{
	"contracts/Registration.sol": {
		"Registration": {
			"abi": [
				{
					"inputs": [
						{
							"internalType": "address",
							"name": "_baseContract",
							"type": "address"
						},
						{
							"internalType": "address",
							"name": "_yok",
							"type": "address"
						},
						{
							"internalType": "address",
							"name": "_tobb",
							"type": "address"
						},
						{
							"internalType": "address",
							"name": "_cb",
							"type": "address"
						}
					],
					"stateMutability": "nonpayable",
					"type": "constructor"
				},
				{
					"anonymous": false,
					"inputs": [
						{
							"indexed": false,
							"internalType": "address",
							"name": "_firmaAdres",
							"type": "address"
						},
						{
							"indexed": false,
							"internalType": "string",
							"name": "_isim",
							"type": "string"
						},
						{
							"indexed": false,
							"internalType": "uint256",
							"name": "_vergiNo",
							"type": "uint256"
						},
						{
							"indexed": false,
							"internalType": "uint8",
							"name": "_ulke",
							"type": "uint8"
						}
					],
					"name": "FirmaEkleLog",
					"type": "event"
				},
				{
					"anonymous": false,
					"inputs": [
						{
							"indexed": false,
							"internalType": "address",
							"name": "_kamuKurumuAdres",
							"type": "address"
						},
						{
							"indexed": false,
							"internalType": "string",
							"name": "_isim",
							"type": "string"
						},
						{
							"indexed": false,
							"internalType": "uint8",
							"name": "_ulke",
							"type": "uint8"
						}
					],
					"name": "KamuKurumuEkleLog",
					"type": "event"
				},
				{
					"anonymous": false,
					"inputs": [
						{
							"indexed": false,
							"internalType": "address",
							"name": "_kisiAdres",
							"type": "address"
						}
					],
					"name": "KisiLog",
					"type": "event"
				},
				{
					"anonymous": false,
					"inputs": [
						{
							"indexed": false,
							"internalType": "address",
							"name": "_kursAdres",
							"type": "address"
						},
						{
							"indexed": false,
							"internalType": "string",
							"name": "_isim",
							"type": "string"
						},
						{
							"indexed": false,
							"internalType": "uint8",
							"name": "_ulke",
							"type": "uint8"
						}
					],
					"name": "KursEkleLog",
					"type": "event"
				},
				{
					"anonymous": false,
					"inputs": [
						{
							"indexed": false,
							"internalType": "address",
							"name": "_stkAdres",
							"type": "address"
						},
						{
							"indexed": false,
							"internalType": "string",
							"name": "_isim",
							"type": "string"
						},
						{
							"indexed": false,
							"internalType": "uint8",
							"name": "_ulke",
							"type": "uint8"
						}
					],
					"name": "STKEkleLog",
					"type": "event"
				},
				{
					"anonymous": false,
					"inputs": [
						{
							"indexed": false,
							"internalType": "address",
							"name": "_smAdres",
							"type": "address"
						},
						{
							"indexed": false,
							"internalType": "string",
							"name": "_isim",
							"type": "string"
						},
						{
							"indexed": false,
							"internalType": "uint8",
							"name": "_ulke",
							"type": "uint8"
						}
					],
					"name": "SertifikaMerkeziEkleLog",
					"type": "event"
				},
				{
					"anonymous": false,
					"inputs": [
						{
							"indexed": false,
							"internalType": "address",
							"name": "_universiteAdres",
							"type": "address"
						},
						{
							"indexed": false,
							"internalType": "string",
							"name": "_isim",
							"type": "string"
						},
						{
							"indexed": false,
							"internalType": "uint8",
							"name": "_ulke",
							"type": "uint8"
						}
					],
					"name": "UniversiteKayitLog",
					"type": "event"
				},
				{
					"inputs": [],
					"name": "getYOK",
					"outputs": [
						{
							"internalType": "address",
							"name": "",
							"type": "address"
						}
					],
					"stateMutability": "view",
					"type": "function"
				},
				{
					"inputs": [
						{
							"internalType": "address",
							"name": "_universiteAdres",
							"type": "address"
						},
						{
							"internalType": "string",
							"name": "_isim",
							"type": "string"
						},
						{
							"internalType": "uint8",
							"name": "_ulke",
							"type": "uint8"
						}
					],
					"name": "kaydetUniversite",
					"outputs": [],
					"stateMutability": "nonpayable",
					"type": "function"
				}
			],
			"devdoc": {
				"kind": "dev",
				"methods": {},
				"version": 1
			},
			"evm": {
				"assembly": "    /* \"contracts/Registration.sol\":102:3899  contract Registration {\r... */\n  mstore(0x40, 0x80)\n    /* \"contracts/Registration.sol\":683:871  constructor (address _baseContract,address _yok, address _tobb, address _cb){\r... */\n  callvalue\n  dup1\n  iszero\n  tag_1\n  jumpi\n  0x00\n  dup1\n  revert\ntag_1:\n  pop\n  mload(0x40)\n  sub(codesize, bytecodeSize)\n  dup1\n  bytecodeSize\n  dup4\n  codecopy\n  dup2\n  dup2\n  add\n  0x40\n  mstore\n  dup2\n  add\n  swap1\n  tag_2\n  swap2\n  swap1\n  tag_3\n  jump\t// in\ntag_2:\n    /* \"contracts/Registration.sol\":795:808  _baseContract */\n  dup4\n    /* \"contracts/Registration.sol\":769:781  baseContract */\n  0x00\n  dup1\n    /* \"contracts/Registration.sol\":769:809  baseContract=BaseContract(_baseContract) */\n  0x0100\n  exp\n  dup2\n  sload\n  dup2\n  0xffffffffffffffffffffffffffffffffffffffff\n  mul\n  not\n  and\n  swap1\n  dup4\n  0xffffffffffffffffffffffffffffffffffffffff\n  and\n  mul\n  or\n  swap1\n  sstore\n  pop\n    /* \"contracts/Registration.sol\":819:831  baseContract */\n  0x00\n  dup1\n  sload\n  swap1\n  0x0100\n  exp\n  swap1\n  div\n  0xffffffffffffffffffffffffffffffffffffffff\n  and\n    /* \"contracts/Registration.sol\":819:845  baseContract.paydasTanimla */\n  0xffffffffffffffffffffffffffffffffffffffff\n  and\n  0x36fd2633\n    /* \"contracts/Registration.sol\":846:850  _yok */\n  dup5\n    /* \"contracts/Registration.sol\":852:857  _tobb */\n  dup5\n    /* \"contracts/Registration.sol\":859:862  _cb */\n  dup5\n    /* \"contracts/Registration.sol\":819:863  baseContract.paydasTanimla(_yok, _tobb, _cb) */\n  mload(0x40)\n  dup5\n  0xffffffff\n  and\n  0xe0\n  shl\n  dup2\n  mstore\n  0x04\n  add\n  tag_6\n  swap4\n  swap3\n  swap2\n  swap1\n  tag_7\n  jump\t// in\ntag_6:\n  0x00\n  mload(0x40)\n  dup1\n  dup4\n  sub\n  dup2\n  0x00\n  dup8\n  dup1\n  extcodesize\n  iszero\n  dup1\n  iszero\n  tag_8\n  jumpi\n  0x00\n  dup1\n  revert\ntag_8:\n  pop\n  gas\n  call\n  iszero\n  dup1\n  iszero\n  tag_10\n  jumpi\n  returndatasize\n  0x00\n  dup1\n  returndatacopy\n  revert(0x00, returndatasize)\ntag_10:\n  pop\n  pop\n  pop\n  pop\n    /* \"contracts/Registration.sol\":683:871  constructor (address _baseContract,address _yok, address _tobb, address _cb){\r... */\n  pop\n  pop\n  pop\n  pop\n    /* \"contracts/Registration.sol\":102:3899  contract Registration {\r... */\n  jump(tag_11)\n    /* \"#utility.yul\":7:150   */\ntag_13:\n    /* \"#utility.yul\":64:69   */\n  0x00\n    /* \"#utility.yul\":95:101   */\n  dup2\n    /* \"#utility.yul\":89:102   */\n  mload\n    /* \"#utility.yul\":80:102   */\n  swap1\n  pop\n    /* \"#utility.yul\":111:144   */\n  tag_15\n    /* \"#utility.yul\":138:143   */\n  dup2\n    /* \"#utility.yul\":111:144   */\n  tag_16\n  jump\t// in\ntag_15:\n    /* \"#utility.yul\":7:150   */\n  swap3\n  swap2\n  pop\n  pop\n  jump\t// out\n    /* \"#utility.yul\":156:976   */\ntag_3:\n    /* \"#utility.yul\":253:259   */\n  0x00\n    /* \"#utility.yul\":261:267   */\n  dup1\n    /* \"#utility.yul\":269:275   */\n  0x00\n    /* \"#utility.yul\":277:283   */\n  dup1\n    /* \"#utility.yul\":326:329   */\n  0x80\n    /* \"#utility.yul\":314:323   */\n  dup6\n    /* \"#utility.yul\":305:312   */\n  dup8\n    /* \"#utility.yul\":301:324   */\n  sub\n    /* \"#utility.yul\":297:330   */\n  slt\n    /* \"#utility.yul\":294:414   */\n  iszero\n  tag_18\n  jumpi\n    /* \"#utility.yul\":333:412   */\n  tag_19\n  tag_20\n  jump\t// in\ntag_19:\n    /* \"#utility.yul\":294:414   */\ntag_18:\n    /* \"#utility.yul\":453:454   */\n  0x00\n    /* \"#utility.yul\":478:542   */\n  tag_21\n    /* \"#utility.yul\":534:541   */\n  dup8\n    /* \"#utility.yul\":525:531   */\n  dup3\n    /* \"#utility.yul\":514:523   */\n  dup9\n    /* \"#utility.yul\":510:532   */\n  add\n    /* \"#utility.yul\":478:542   */\n  tag_13\n  jump\t// in\ntag_21:\n    /* \"#utility.yul\":468:542   */\n  swap5\n  pop\n    /* \"#utility.yul\":424:552   */\n  pop\n    /* \"#utility.yul\":591:593   */\n  0x20\n    /* \"#utility.yul\":617:681   */\n  tag_22\n    /* \"#utility.yul\":673:680   */\n  dup8\n    /* \"#utility.yul\":664:670   */\n  dup3\n    /* \"#utility.yul\":653:662   */\n  dup9\n    /* \"#utility.yul\":649:671   */\n  add\n    /* \"#utility.yul\":617:681   */\n  tag_13\n  jump\t// in\ntag_22:\n    /* \"#utility.yul\":607:681   */\n  swap4\n  pop\n    /* \"#utility.yul\":562:691   */\n  pop\n    /* \"#utility.yul\":730:732   */\n  0x40\n    /* \"#utility.yul\":756:820   */\n  tag_23\n    /* \"#utility.yul\":812:819   */\n  dup8\n    /* \"#utility.yul\":803:809   */\n  dup3\n    /* \"#utility.yul\":792:801   */\n  dup9\n    /* \"#utility.yul\":788:810   */\n  add\n    /* \"#utility.yul\":756:820   */\n  tag_13\n  jump\t// in\ntag_23:\n    /* \"#utility.yul\":746:820   */\n  swap3\n  pop\n    /* \"#utility.yul\":701:830   */\n  pop\n    /* \"#utility.yul\":869:871   */\n  0x60\n    /* \"#utility.yul\":895:959   */\n  tag_24\n    /* \"#utility.yul\":951:958   */\n  dup8\n    /* \"#utility.yul\":942:948   */\n  dup3\n    /* \"#utility.yul\":931:940   */\n  dup9\n    /* \"#utility.yul\":927:949   */\n  add\n    /* \"#utility.yul\":895:959   */\n  tag_13\n  jump\t// in\ntag_24:\n    /* \"#utility.yul\":885:959   */\n  swap2\n  pop\n    /* \"#utility.yul\":840:969   */\n  pop\n    /* \"#utility.yul\":156:976   */\n  swap3\n  swap6\n  swap2\n  swap5\n  pop\n  swap3\n  pop\n  jump\t// out\n    /* \"#utility.yul\":982:1100   */\ntag_25:\n    /* \"#utility.yul\":1069:1093   */\n  tag_27\n    /* \"#utility.yul\":1087:1092   */\n  dup2\n    /* \"#utility.yul\":1069:1093   */\n  tag_28\n  jump\t// in\ntag_27:\n    /* \"#utility.yul\":1064:1067   */\n  dup3\n    /* \"#utility.yul\":1057:1094   */\n  mstore\n    /* \"#utility.yul\":982:1100   */\n  pop\n  pop\n  jump\t// out\n    /* \"#utility.yul\":1106:1548   */\ntag_7:\n    /* \"#utility.yul\":1255:1259   */\n  0x00\n    /* \"#utility.yul\":1293:1295   */\n  0x60\n    /* \"#utility.yul\":1282:1291   */\n  dup3\n    /* \"#utility.yul\":1278:1296   */\n  add\n    /* \"#utility.yul\":1270:1296   */\n  swap1\n  pop\n    /* \"#utility.yul\":1306:1377   */\n  tag_30\n    /* \"#utility.yul\":1374:1375   */\n  0x00\n    /* \"#utility.yul\":1363:1372   */\n  dup4\n    /* \"#utility.yul\":1359:1376   */\n  add\n    /* \"#utility.yul\":1350:1356   */\n  dup7\n    /* \"#utility.yul\":1306:1377   */\n  tag_25\n  jump\t// in\ntag_30:\n    /* \"#utility.yul\":1387:1459   */\n  tag_31\n    /* \"#utility.yul\":1455:1457   */\n  0x20\n    /* \"#utility.yul\":1444:1453   */\n  dup4\n    /* \"#utility.yul\":1440:1458   */\n  add\n    /* \"#utility.yul\":1431:1437   */\n  dup6\n    /* \"#utility.yul\":1387:1459   */\n  tag_25\n  jump\t// in\ntag_31:\n    /* \"#utility.yul\":1469:1541   */\n  tag_32\n    /* \"#utility.yul\":1537:1539   */\n  0x40\n    /* \"#utility.yul\":1526:1535   */\n  dup4\n    /* \"#utility.yul\":1522:1540   */\n  add\n    /* \"#utility.yul\":1513:1519   */\n  dup5\n    /* \"#utility.yul\":1469:1541   */\n  tag_25\n  jump\t// in\ntag_32:\n    /* \"#utility.yul\":1106:1548   */\n  swap5\n  swap4\n  pop\n  pop\n  pop\n  pop\n  jump\t// out\n    /* \"#utility.yul\":1635:1731   */\ntag_28:\n    /* \"#utility.yul\":1672:1679   */\n  0x00\n    /* \"#utility.yul\":1701:1725   */\n  tag_36\n    /* \"#utility.yul\":1719:1724   */\n  dup3\n    /* \"#utility.yul\":1701:1725   */\n  tag_37\n  jump\t// in\ntag_36:\n    /* \"#utility.yul\":1690:1725   */\n  swap1\n  pop\n    /* \"#utility.yul\":1635:1731   */\n  swap2\n  swap1\n  pop\n  jump\t// out\n    /* \"#utility.yul\":1737:1863   */\ntag_37:\n    /* \"#utility.yul\":1774:1781   */\n  0x00\n    /* \"#utility.yul\":1814:1856   */\n  0xffffffffffffffffffffffffffffffffffffffff\n    /* \"#utility.yul\":1807:1812   */\n  dup3\n    /* \"#utility.yul\":1803:1857   */\n  and\n    /* \"#utility.yul\":1792:1857   */\n  swap1\n  pop\n    /* \"#utility.yul\":1737:1863   */\n  swap2\n  swap1\n  pop\n  jump\t// out\n    /* \"#utility.yul\":1992:2109   */\ntag_20:\n    /* \"#utility.yul\":2101:2102   */\n  0x00\n    /* \"#utility.yul\":2098:2099   */\n  dup1\n    /* \"#utility.yul\":2091:2103   */\n  revert\n    /* \"#utility.yul\":2115:2237   */\ntag_16:\n    /* \"#utility.yul\":2188:2212   */\n  tag_43\n    /* \"#utility.yul\":2206:2211   */\n  dup2\n    /* \"#utility.yul\":2188:2212   */\n  tag_28\n  jump\t// in\ntag_43:\n    /* \"#utility.yul\":2181:2186   */\n  dup2\n    /* \"#utility.yul\":2178:2213   */\n  eq\n    /* \"#utility.yul\":2168:2231   */\n  tag_44\n  jumpi\n    /* \"#utility.yul\":2227:2228   */\n  0x00\n    /* \"#utility.yul\":2224:2225   */\n  dup1\n    /* \"#utility.yul\":2217:2229   */\n  revert\n    /* \"#utility.yul\":2168:2231   */\ntag_44:\n    /* \"#utility.yul\":2115:2237   */\n  pop\n  jump\t// out\n    /* \"contracts/Registration.sol\":102:3899  contract Registration {\r... */\ntag_11:\n  dataSize(sub_0)\n  dup1\n  dataOffset(sub_0)\n  0x00\n  codecopy\n  0x00\n  return\nstop\n\nsub_0: assembly {\n        /* \"contracts/Registration.sol\":102:3899  contract Registration {\r... */\n      mstore(0x40, 0x80)\n      callvalue\n      dup1\n      iszero\n      tag_1\n      jumpi\n      0x00\n      dup1\n      revert\n    tag_1:\n      pop\n      jumpi(tag_2, lt(calldatasize, 0x04))\n      shr(0xe0, calldataload(0x00))\n      dup1\n      0x03c3abc4\n      eq\n      tag_3\n      jumpi\n      dup1\n      0x13cb22c6\n      eq\n      tag_4\n      jumpi\n    tag_2:\n      0x00\n      dup1\n      revert\n        /* \"contracts/Registration.sol\":1121:1215  function getYOK()  public   view returns(address) {\r... */\n    tag_3:\n      tag_5\n      tag_6\n      jump\t// in\n    tag_5:\n      mload(0x40)\n      tag_7\n      swap2\n      swap1\n      tag_8\n      jump\t// in\n    tag_7:\n      mload(0x40)\n      dup1\n      swap2\n      sub\n      swap1\n      return\n        /* \"contracts/Registration.sol\":880:1112  function kaydetUniversite(address _universiteAdres,string memory _isim, uint8 _ulke)  public {\r... */\n    tag_4:\n      tag_9\n      0x04\n      dup1\n      calldatasize\n      sub\n      dup2\n      add\n      swap1\n      tag_10\n      swap2\n      swap1\n      tag_11\n      jump\t// in\n    tag_10:\n      tag_12\n      jump\t// in\n    tag_9:\n      stop\n        /* \"contracts/Registration.sol\":1121:1215  function getYOK()  public   view returns(address) {\r... */\n    tag_6:\n        /* \"contracts/Registration.sol\":1162:1169  address */\n      0x00\n        /* \"contracts/Registration.sol\":1186:1198  baseContract */\n      dup1\n      0x00\n      swap1\n      sload\n      swap1\n      0x0100\n      exp\n      swap1\n      div\n      0xffffffffffffffffffffffffffffffffffffffff\n      and\n        /* \"contracts/Registration.sol\":1186:1205  baseContract.getYOK */\n      0xffffffffffffffffffffffffffffffffffffffff\n      and\n      0x03c3abc4\n        /* \"contracts/Registration.sol\":1186:1207  baseContract.getYOK() */\n      mload(0x40)\n      dup2\n      0xffffffff\n      and\n      0xe0\n      shl\n      dup2\n      mstore\n      0x04\n      add\n      0x20\n      mload(0x40)\n      dup1\n      dup4\n      sub\n      dup2\n      dup7\n      dup1\n      extcodesize\n      iszero\n      dup1\n      iszero\n      tag_14\n      jumpi\n      0x00\n      dup1\n      revert\n    tag_14:\n      pop\n      gas\n      staticcall\n      iszero\n      dup1\n      iszero\n      tag_16\n      jumpi\n      returndatasize\n      0x00\n      dup1\n      returndatacopy\n      revert(0x00, returndatasize)\n    tag_16:\n      pop\n      pop\n      pop\n      pop\n      mload(0x40)\n      returndatasize\n      not(0x1f)\n      0x1f\n      dup3\n      add\n      and\n      dup3\n      add\n      dup1\n      0x40\n      mstore\n      pop\n      dup2\n      add\n      swap1\n      tag_17\n      swap2\n      swap1\n      tag_18\n      jump\t// in\n    tag_17:\n        /* \"contracts/Registration.sol\":1179:1207  return baseContract.getYOK() */\n      swap1\n      pop\n        /* \"contracts/Registration.sol\":1121:1215  function getYOK()  public   view returns(address) {\r... */\n      swap1\n      jump\t// out\n        /* \"contracts/Registration.sol\":880:1112  function kaydetUniversite(address _universiteAdres,string memory _isim, uint8 _ulke)  public {\r... */\n    tag_12:\n        /* \"contracts/Registration.sol\":981:993  baseContract */\n      0x00\n      dup1\n      sload\n      swap1\n      0x0100\n      exp\n      swap1\n      div\n      0xffffffffffffffffffffffffffffffffffffffff\n      and\n        /* \"contracts/Registration.sol\":981:1008  baseContract.ekleUniversite */\n      0xffffffffffffffffffffffffffffffffffffffff\n      and\n      0x1d54ab\n        /* \"contracts/Registration.sol\":1009:1025  _universiteAdres */\n      dup5\n        /* \"contracts/Registration.sol\":1027:1032  _isim */\n      dup5\n        /* \"contracts/Registration.sol\":1034:1039  _ulke */\n      dup5\n        /* \"contracts/Registration.sol\":981:1040  baseContract.ekleUniversite(_universiteAdres, _isim, _ulke) */\n      mload(0x40)\n      dup5\n      0xffffffff\n      and\n      0xe0\n      shl\n      dup2\n      mstore\n      0x04\n      add\n      tag_20\n      swap4\n      swap3\n      swap2\n      swap1\n      tag_21\n      jump\t// in\n    tag_20:\n      0x00\n      mload(0x40)\n      dup1\n      dup4\n      sub\n      dup2\n      0x00\n      dup8\n      dup1\n      extcodesize\n      iszero\n      dup1\n      iszero\n      tag_22\n      jumpi\n      0x00\n      dup1\n      revert\n    tag_22:\n      pop\n      gas\n      call\n      iszero\n      dup1\n      iszero\n      tag_24\n      jumpi\n      returndatasize\n      0x00\n      dup1\n      returndatacopy\n      revert(0x00, returndatasize)\n    tag_24:\n      pop\n      pop\n      pop\n      pop\n        /* \"contracts/Registration.sol\":1053:1104  UniversiteKayitLog( _universiteAdres, _isim, _ulke) */\n      0x750ae9c195d9b95b8c17bf0fa25801932d5a28c4871f4571af70581bc15f5bfe\n        /* \"contracts/Registration.sol\":1073:1089  _universiteAdres */\n      dup4\n        /* \"contracts/Registration.sol\":1091:1096  _isim */\n      dup4\n        /* \"contracts/Registration.sol\":1098:1103  _ulke */\n      dup4\n        /* \"contracts/Registration.sol\":1053:1104  UniversiteKayitLog( _universiteAdres, _isim, _ulke) */\n      mload(0x40)\n      tag_25\n      swap4\n      swap3\n      swap2\n      swap1\n      tag_21\n      jump\t// in\n    tag_25:\n      mload(0x40)\n      dup1\n      swap2\n      sub\n      swap1\n      log1\n        /* \"contracts/Registration.sol\":880:1112  function kaydetUniversite(address _universiteAdres,string memory _isim, uint8 _ulke)  public {\r... */\n      pop\n      pop\n      pop\n      jump\t// out\n        /* \"#utility.yul\":7:419   */\n    tag_27:\n        /* \"#utility.yul\":85:90   */\n      0x00\n        /* \"#utility.yul\":110:176   */\n      tag_29\n        /* \"#utility.yul\":126:175   */\n      tag_30\n        /* \"#utility.yul\":168:174   */\n      dup5\n        /* \"#utility.yul\":126:175   */\n      tag_31\n      jump\t// in\n    tag_30:\n        /* \"#utility.yul\":110:176   */\n      tag_32\n      jump\t// in\n    tag_29:\n        /* \"#utility.yul\":101:176   */\n      swap1\n      pop\n        /* \"#utility.yul\":199:205   */\n      dup3\n        /* \"#utility.yul\":192:197   */\n      dup2\n        /* \"#utility.yul\":185:206   */\n      mstore\n        /* \"#utility.yul\":237:241   */\n      0x20\n        /* \"#utility.yul\":230:235   */\n      dup2\n        /* \"#utility.yul\":226:242   */\n      add\n        /* \"#utility.yul\":275:278   */\n      dup5\n        /* \"#utility.yul\":266:272   */\n      dup5\n        /* \"#utility.yul\":261:264   */\n      dup5\n        /* \"#utility.yul\":257:273   */\n      add\n        /* \"#utility.yul\":254:279   */\n      gt\n        /* \"#utility.yul\":251:363   */\n      iszero\n      tag_33\n      jumpi\n        /* \"#utility.yul\":282:361   */\n      tag_34\n      tag_35\n      jump\t// in\n    tag_34:\n        /* \"#utility.yul\":251:363   */\n    tag_33:\n        /* \"#utility.yul\":372:413   */\n      tag_36\n        /* \"#utility.yul\":406:412   */\n      dup5\n        /* \"#utility.yul\":401:404   */\n      dup3\n        /* \"#utility.yul\":396:399   */\n      dup6\n        /* \"#utility.yul\":372:413   */\n      tag_37\n      jump\t// in\n    tag_36:\n        /* \"#utility.yul\":91:419   */\n      pop\n        /* \"#utility.yul\":7:419   */\n      swap4\n      swap3\n      pop\n      pop\n      pop\n      jump\t// out\n        /* \"#utility.yul\":425:564   */\n    tag_38:\n        /* \"#utility.yul\":471:476   */\n      0x00\n        /* \"#utility.yul\":509:515   */\n      dup2\n        /* \"#utility.yul\":496:516   */\n      calldataload\n        /* \"#utility.yul\":487:516   */\n      swap1\n      pop\n        /* \"#utility.yul\":525:558   */\n      tag_40\n        /* \"#utility.yul\":552:557   */\n      dup2\n        /* \"#utility.yul\":525:558   */\n      tag_41\n      jump\t// in\n    tag_40:\n        /* \"#utility.yul\":425:564   */\n      swap3\n      swap2\n      pop\n      pop\n      jump\t// out\n        /* \"#utility.yul\":570:713   */\n    tag_42:\n        /* \"#utility.yul\":627:632   */\n      0x00\n        /* \"#utility.yul\":658:664   */\n      dup2\n        /* \"#utility.yul\":652:665   */\n      mload\n        /* \"#utility.yul\":643:665   */\n      swap1\n      pop\n        /* \"#utility.yul\":674:707   */\n      tag_44\n        /* \"#utility.yul\":701:706   */\n      dup2\n        /* \"#utility.yul\":674:707   */\n      tag_41\n      jump\t// in\n    tag_44:\n        /* \"#utility.yul\":570:713   */\n      swap3\n      swap2\n      pop\n      pop\n      jump\t// out\n        /* \"#utility.yul\":733:1073   */\n    tag_45:\n        /* \"#utility.yul\":789:794   */\n      0x00\n        /* \"#utility.yul\":838:841   */\n      dup3\n        /* \"#utility.yul\":831:835   */\n      0x1f\n        /* \"#utility.yul\":823:829   */\n      dup4\n        /* \"#utility.yul\":819:836   */\n      add\n        /* \"#utility.yul\":815:842   */\n      slt\n        /* \"#utility.yul\":805:927   */\n      tag_47\n      jumpi\n        /* \"#utility.yul\":846:925   */\n      tag_48\n      tag_49\n      jump\t// in\n    tag_48:\n        /* \"#utility.yul\":805:927   */\n    tag_47:\n        /* \"#utility.yul\":963:969   */\n      dup2\n        /* \"#utility.yul\":950:970   */\n      calldataload\n        /* \"#utility.yul\":988:1067   */\n      tag_50\n        /* \"#utility.yul\":1063:1066   */\n      dup5\n        /* \"#utility.yul\":1055:1061   */\n      dup3\n        /* \"#utility.yul\":1048:1052   */\n      0x20\n        /* \"#utility.yul\":1040:1046   */\n      dup7\n        /* \"#utility.yul\":1036:1053   */\n      add\n        /* \"#utility.yul\":988:1067   */\n      tag_27\n      jump\t// in\n    tag_50:\n        /* \"#utility.yul\":979:1067   */\n      swap2\n      pop\n        /* \"#utility.yul\":795:1073   */\n      pop\n        /* \"#utility.yul\":733:1073   */\n      swap3\n      swap2\n      pop\n      pop\n      jump\t// out\n        /* \"#utility.yul\":1079:1214   */\n    tag_51:\n        /* \"#utility.yul\":1123:1128   */\n      0x00\n        /* \"#utility.yul\":1161:1167   */\n      dup2\n        /* \"#utility.yul\":1148:1168   */\n      calldataload\n        /* \"#utility.yul\":1139:1168   */\n      swap1\n      pop\n        /* \"#utility.yul\":1177:1208   */\n      tag_53\n        /* \"#utility.yul\":1202:1207   */\n      dup2\n        /* \"#utility.yul\":1177:1208   */\n      tag_54\n      jump\t// in\n    tag_53:\n        /* \"#utility.yul\":1079:1214   */\n      swap3\n      swap2\n      pop\n      pop\n      jump\t// out\n        /* \"#utility.yul\":1220:1571   */\n    tag_18:\n        /* \"#utility.yul\":1290:1296   */\n      0x00\n        /* \"#utility.yul\":1339:1341   */\n      0x20\n        /* \"#utility.yul\":1327:1336   */\n      dup3\n        /* \"#utility.yul\":1318:1325   */\n      dup5\n        /* \"#utility.yul\":1314:1337   */\n      sub\n        /* \"#utility.yul\":1310:1342   */\n      slt\n        /* \"#utility.yul\":1307:1426   */\n      iszero\n      tag_56\n      jumpi\n        /* \"#utility.yul\":1345:1424   */\n      tag_57\n      tag_58\n      jump\t// in\n    tag_57:\n        /* \"#utility.yul\":1307:1426   */\n    tag_56:\n        /* \"#utility.yul\":1465:1466   */\n      0x00\n        /* \"#utility.yul\":1490:1554   */\n      tag_59\n        /* \"#utility.yul\":1546:1553   */\n      dup5\n        /* \"#utility.yul\":1537:1543   */\n      dup3\n        /* \"#utility.yul\":1526:1535   */\n      dup6\n        /* \"#utility.yul\":1522:1544   */\n      add\n        /* \"#utility.yul\":1490:1554   */\n      tag_42\n      jump\t// in\n    tag_59:\n        /* \"#utility.yul\":1480:1554   */\n      swap2\n      pop\n        /* \"#utility.yul\":1436:1564   */\n      pop\n        /* \"#utility.yul\":1220:1571   */\n      swap3\n      swap2\n      pop\n      pop\n      jump\t// out\n        /* \"#utility.yul\":1577:2372   */\n    tag_11:\n        /* \"#utility.yul\":1662:1668   */\n      0x00\n        /* \"#utility.yul\":1670:1676   */\n      dup1\n        /* \"#utility.yul\":1678:1684   */\n      0x00\n        /* \"#utility.yul\":1727:1729   */\n      0x60\n        /* \"#utility.yul\":1715:1724   */\n      dup5\n        /* \"#utility.yul\":1706:1713   */\n      dup7\n        /* \"#utility.yul\":1702:1725   */\n      sub\n        /* \"#utility.yul\":1698:1730   */\n      slt\n        /* \"#utility.yul\":1695:1814   */\n      iszero\n      tag_61\n      jumpi\n        /* \"#utility.yul\":1733:1812   */\n      tag_62\n      tag_58\n      jump\t// in\n    tag_62:\n        /* \"#utility.yul\":1695:1814   */\n    tag_61:\n        /* \"#utility.yul\":1853:1854   */\n      0x00\n        /* \"#utility.yul\":1878:1931   */\n      tag_63\n        /* \"#utility.yul\":1923:1930   */\n      dup7\n        /* \"#utility.yul\":1914:1920   */\n      dup3\n        /* \"#utility.yul\":1903:1912   */\n      dup8\n        /* \"#utility.yul\":1899:1921   */\n      add\n        /* \"#utility.yul\":1878:1931   */\n      tag_38\n      jump\t// in\n    tag_63:\n        /* \"#utility.yul\":1868:1931   */\n      swap4\n      pop\n        /* \"#utility.yul\":1824:1941   */\n      pop\n        /* \"#utility.yul\":2008:2010   */\n      0x20\n        /* \"#utility.yul\":1997:2006   */\n      dup5\n        /* \"#utility.yul\":1993:2011   */\n      add\n        /* \"#utility.yul\":1980:2012   */\n      calldataload\n        /* \"#utility.yul\":2039:2057   */\n      0xffffffffffffffff\n        /* \"#utility.yul\":2031:2037   */\n      dup2\n        /* \"#utility.yul\":2028:2058   */\n      gt\n        /* \"#utility.yul\":2025:2142   */\n      iszero\n      tag_64\n      jumpi\n        /* \"#utility.yul\":2061:2140   */\n      tag_65\n      tag_66\n      jump\t// in\n    tag_65:\n        /* \"#utility.yul\":2025:2142   */\n    tag_64:\n        /* \"#utility.yul\":2166:2229   */\n      tag_67\n        /* \"#utility.yul\":2221:2228   */\n      dup7\n        /* \"#utility.yul\":2212:2218   */\n      dup3\n        /* \"#utility.yul\":2201:2210   */\n      dup8\n        /* \"#utility.yul\":2197:2219   */\n      add\n        /* \"#utility.yul\":2166:2229   */\n      tag_45\n      jump\t// in\n    tag_67:\n        /* \"#utility.yul\":2156:2229   */\n      swap3\n      pop\n        /* \"#utility.yul\":1951:2239   */\n      pop\n        /* \"#utility.yul\":2278:2280   */\n      0x40\n        /* \"#utility.yul\":2304:2355   */\n      tag_68\n        /* \"#utility.yul\":2347:2354   */\n      dup7\n        /* \"#utility.yul\":2338:2344   */\n      dup3\n        /* \"#utility.yul\":2327:2336   */\n      dup8\n        /* \"#utility.yul\":2323:2345   */\n      add\n        /* \"#utility.yul\":2304:2355   */\n      tag_51\n      jump\t// in\n    tag_68:\n        /* \"#utility.yul\":2294:2355   */\n      swap2\n      pop\n        /* \"#utility.yul\":2249:2365   */\n      pop\n        /* \"#utility.yul\":1577:2372   */\n      swap3\n      pop\n      swap3\n      pop\n      swap3\n      jump\t// out\n        /* \"#utility.yul\":2378:2496   */\n    tag_69:\n        /* \"#utility.yul\":2465:2489   */\n      tag_71\n        /* \"#utility.yul\":2483:2488   */\n      dup2\n        /* \"#utility.yul\":2465:2489   */\n      tag_72\n      jump\t// in\n    tag_71:\n        /* \"#utility.yul\":2460:2463   */\n      dup3\n        /* \"#utility.yul\":2453:2490   */\n      mstore\n        /* \"#utility.yul\":2378:2496   */\n      pop\n      pop\n      jump\t// out\n        /* \"#utility.yul\":2502:2866   */\n    tag_73:\n        /* \"#utility.yul\":2590:2593   */\n      0x00\n        /* \"#utility.yul\":2618:2657   */\n      tag_75\n        /* \"#utility.yul\":2651:2656   */\n      dup3\n        /* \"#utility.yul\":2618:2657   */\n      tag_76\n      jump\t// in\n    tag_75:\n        /* \"#utility.yul\":2673:2744   */\n      tag_77\n        /* \"#utility.yul\":2737:2743   */\n      dup2\n        /* \"#utility.yul\":2732:2735   */\n      dup6\n        /* \"#utility.yul\":2673:2744   */\n      tag_78\n      jump\t// in\n    tag_77:\n        /* \"#utility.yul\":2666:2744   */\n      swap4\n      pop\n        /* \"#utility.yul\":2753:2805   */\n      tag_79\n        /* \"#utility.yul\":2798:2804   */\n      dup2\n        /* \"#utility.yul\":2793:2796   */\n      dup6\n        /* \"#utility.yul\":2786:2790   */\n      0x20\n        /* \"#utility.yul\":2779:2784   */\n      dup7\n        /* \"#utility.yul\":2775:2791   */\n      add\n        /* \"#utility.yul\":2753:2805   */\n      tag_80\n      jump\t// in\n    tag_79:\n        /* \"#utility.yul\":2830:2859   */\n      tag_81\n        /* \"#utility.yul\":2852:2858   */\n      dup2\n        /* \"#utility.yul\":2830:2859   */\n      tag_82\n      jump\t// in\n    tag_81:\n        /* \"#utility.yul\":2825:2828   */\n      dup5\n        /* \"#utility.yul\":2821:2860   */\n      add\n        /* \"#utility.yul\":2814:2860   */\n      swap2\n      pop\n        /* \"#utility.yul\":2594:2866   */\n      pop\n        /* \"#utility.yul\":2502:2866   */\n      swap3\n      swap2\n      pop\n      pop\n      jump\t// out\n        /* \"#utility.yul\":2872:2984   */\n    tag_83:\n        /* \"#utility.yul\":2955:2977   */\n      tag_85\n        /* \"#utility.yul\":2971:2976   */\n      dup2\n        /* \"#utility.yul\":2955:2977   */\n      tag_86\n      jump\t// in\n    tag_85:\n        /* \"#utility.yul\":2950:2953   */\n      dup3\n        /* \"#utility.yul\":2943:2978   */\n      mstore\n        /* \"#utility.yul\":2872:2984   */\n      pop\n      pop\n      jump\t// out\n        /* \"#utility.yul\":2990:3212   */\n    tag_8:\n        /* \"#utility.yul\":3083:3087   */\n      0x00\n        /* \"#utility.yul\":3121:3123   */\n      0x20\n        /* \"#utility.yul\":3110:3119   */\n      dup3\n        /* \"#utility.yul\":3106:3124   */\n      add\n        /* \"#utility.yul\":3098:3124   */\n      swap1\n      pop\n        /* \"#utility.yul\":3134:3205   */\n      tag_88\n        /* \"#utility.yul\":3202:3203   */\n      0x00\n        /* \"#utility.yul\":3191:3200   */\n      dup4\n        /* \"#utility.yul\":3187:3204   */\n      add\n        /* \"#utility.yul\":3178:3184   */\n      dup5\n        /* \"#utility.yul\":3134:3205   */\n      tag_69\n      jump\t// in\n    tag_88:\n        /* \"#utility.yul\":2990:3212   */\n      swap3\n      swap2\n      pop\n      pop\n      jump\t// out\n        /* \"#utility.yul\":3218:3743   */\n    tag_21:\n        /* \"#utility.yul\":3383:3387   */\n      0x00\n        /* \"#utility.yul\":3421:3423   */\n      0x60\n        /* \"#utility.yul\":3410:3419   */\n      dup3\n        /* \"#utility.yul\":3406:3424   */\n      add\n        /* \"#utility.yul\":3398:3424   */\n      swap1\n      pop\n        /* \"#utility.yul\":3434:3505   */\n      tag_90\n        /* \"#utility.yul\":3502:3503   */\n      0x00\n        /* \"#utility.yul\":3491:3500   */\n      dup4\n        /* \"#utility.yul\":3487:3504   */\n      add\n        /* \"#utility.yul\":3478:3484   */\n      dup7\n        /* \"#utility.yul\":3434:3505   */\n      tag_69\n      jump\t// in\n    tag_90:\n        /* \"#utility.yul\":3552:3561   */\n      dup2\n        /* \"#utility.yul\":3546:3550   */\n      dup2\n        /* \"#utility.yul\":3542:3562   */\n      sub\n        /* \"#utility.yul\":3537:3539   */\n      0x20\n        /* \"#utility.yul\":3526:3535   */\n      dup4\n        /* \"#utility.yul\":3522:3540   */\n      add\n        /* \"#utility.yul\":3515:3563   */\n      mstore\n        /* \"#utility.yul\":3580:3658   */\n      tag_91\n        /* \"#utility.yul\":3653:3657   */\n      dup2\n        /* \"#utility.yul\":3644:3650   */\n      dup6\n        /* \"#utility.yul\":3580:3658   */\n      tag_73\n      jump\t// in\n    tag_91:\n        /* \"#utility.yul\":3572:3658   */\n      swap1\n      pop\n        /* \"#utility.yul\":3668:3736   */\n      tag_92\n        /* \"#utility.yul\":3732:3734   */\n      0x40\n        /* \"#utility.yul\":3721:3730   */\n      dup4\n        /* \"#utility.yul\":3717:3735   */\n      add\n        /* \"#utility.yul\":3708:3714   */\n      dup5\n        /* \"#utility.yul\":3668:3736   */\n      tag_83\n      jump\t// in\n    tag_92:\n        /* \"#utility.yul\":3218:3743   */\n      swap5\n      swap4\n      pop\n      pop\n      pop\n      pop\n      jump\t// out\n        /* \"#utility.yul\":3749:3878   */\n    tag_32:\n        /* \"#utility.yul\":3783:3789   */\n      0x00\n        /* \"#utility.yul\":3810:3830   */\n      tag_94\n      tag_95\n      jump\t// in\n    tag_94:\n        /* \"#utility.yul\":3800:3830   */\n      swap1\n      pop\n        /* \"#utility.yul\":3839:3872   */\n      tag_96\n        /* \"#utility.yul\":3867:3871   */\n      dup3\n        /* \"#utility.yul\":3859:3865   */\n      dup3\n        /* \"#utility.yul\":3839:3872   */\n      tag_97\n      jump\t// in\n    tag_96:\n        /* \"#utility.yul\":3749:3878   */\n      swap2\n      swap1\n      pop\n      jump\t// out\n        /* \"#utility.yul\":3884:3959   */\n    tag_95:\n        /* \"#utility.yul\":3917:3923   */\n      0x00\n        /* \"#utility.yul\":3950:3952   */\n      0x40\n        /* \"#utility.yul\":3944:3953   */\n      mload\n        /* \"#utility.yul\":3934:3953   */\n      swap1\n      pop\n        /* \"#utility.yul\":3884:3959   */\n      swap1\n      jump\t// out\n        /* \"#utility.yul\":3965:4273   */\n    tag_31:\n        /* \"#utility.yul\":4027:4031   */\n      0x00\n        /* \"#utility.yul\":4117:4135   */\n      0xffffffffffffffff\n        /* \"#utility.yul\":4109:4115   */\n      dup3\n        /* \"#utility.yul\":4106:4136   */\n      gt\n        /* \"#utility.yul\":4103:4159   */\n      iszero\n      tag_100\n      jumpi\n        /* \"#utility.yul\":4139:4157   */\n      tag_101\n      tag_102\n      jump\t// in\n    tag_101:\n        /* \"#utility.yul\":4103:4159   */\n    tag_100:\n        /* \"#utility.yul\":4177:4206   */\n      tag_103\n        /* \"#utility.yul\":4199:4205   */\n      dup3\n        /* \"#utility.yul\":4177:4206   */\n      tag_82\n      jump\t// in\n    tag_103:\n        /* \"#utility.yul\":4169:4206   */\n      swap1\n      pop\n        /* \"#utility.yul\":4261:4265   */\n      0x20\n        /* \"#utility.yul\":4255:4259   */\n      dup2\n        /* \"#utility.yul\":4251:4266   */\n      add\n        /* \"#utility.yul\":4243:4266   */\n      swap1\n      pop\n        /* \"#utility.yul\":3965:4273   */\n      swap2\n      swap1\n      pop\n      jump\t// out\n        /* \"#utility.yul\":4279:4378   */\n    tag_76:\n        /* \"#utility.yul\":4331:4337   */\n      0x00\n        /* \"#utility.yul\":4365:4370   */\n      dup2\n        /* \"#utility.yul\":4359:4371   */\n      mload\n        /* \"#utility.yul\":4349:4371   */\n      swap1\n      pop\n        /* \"#utility.yul\":4279:4378   */\n      swap2\n      swap1\n      pop\n      jump\t// out\n        /* \"#utility.yul\":4384:4553   */\n    tag_78:\n        /* \"#utility.yul\":4468:4479   */\n      0x00\n        /* \"#utility.yul\":4502:4508   */\n      dup3\n        /* \"#utility.yul\":4497:4500   */\n      dup3\n        /* \"#utility.yul\":4490:4509   */\n      mstore\n        /* \"#utility.yul\":4542:4546   */\n      0x20\n        /* \"#utility.yul\":4537:4540   */\n      dup3\n        /* \"#utility.yul\":4533:4547   */\n      add\n        /* \"#utility.yul\":4518:4547   */\n      swap1\n      pop\n        /* \"#utility.yul\":4384:4553   */\n      swap3\n      swap2\n      pop\n      pop\n      jump\t// out\n        /* \"#utility.yul\":4559:4655   */\n    tag_72:\n        /* \"#utility.yul\":4596:4603   */\n      0x00\n        /* \"#utility.yul\":4625:4649   */\n      tag_107\n        /* \"#utility.yul\":4643:4648   */\n      dup3\n        /* \"#utility.yul\":4625:4649   */\n      tag_108\n      jump\t// in\n    tag_107:\n        /* \"#utility.yul\":4614:4649   */\n      swap1\n      pop\n        /* \"#utility.yul\":4559:4655   */\n      swap2\n      swap1\n      pop\n      jump\t// out\n        /* \"#utility.yul\":4661:4787   */\n    tag_108:\n        /* \"#utility.yul\":4698:4705   */\n      0x00\n        /* \"#utility.yul\":4738:4780   */\n      0xffffffffffffffffffffffffffffffffffffffff\n        /* \"#utility.yul\":4731:4736   */\n      dup3\n        /* \"#utility.yul\":4727:4781   */\n      and\n        /* \"#utility.yul\":4716:4781   */\n      swap1\n      pop\n        /* \"#utility.yul\":4661:4787   */\n      swap2\n      swap1\n      pop\n      jump\t// out\n        /* \"#utility.yul\":4793:4879   */\n    tag_86:\n        /* \"#utility.yul\":4828:4835   */\n      0x00\n        /* \"#utility.yul\":4868:4872   */\n      0xff\n        /* \"#utility.yul\":4861:4866   */\n      dup3\n        /* \"#utility.yul\":4857:4873   */\n      and\n        /* \"#utility.yul\":4846:4873   */\n      swap1\n      pop\n        /* \"#utility.yul\":4793:4879   */\n      swap2\n      swap1\n      pop\n      jump\t// out\n        /* \"#utility.yul\":4885:5039   */\n    tag_37:\n        /* \"#utility.yul\":4969:4975   */\n      dup3\n        /* \"#utility.yul\":4964:4967   */\n      dup2\n        /* \"#utility.yul\":4959:4962   */\n      dup4\n        /* \"#utility.yul\":4946:4976   */\n      calldatacopy\n        /* \"#utility.yul\":5031:5032   */\n      0x00\n        /* \"#utility.yul\":5022:5028   */\n      dup4\n        /* \"#utility.yul\":5017:5020   */\n      dup4\n        /* \"#utility.yul\":5013:5029   */\n      add\n        /* \"#utility.yul\":5006:5033   */\n      mstore\n        /* \"#utility.yul\":4885:5039   */\n      pop\n      pop\n      pop\n      jump\t// out\n        /* \"#utility.yul\":5045:5352   */\n    tag_80:\n        /* \"#utility.yul\":5113:5114   */\n      0x00\n        /* \"#utility.yul\":5123:5236   */\n    tag_113:\n        /* \"#utility.yul\":5137:5143   */\n      dup4\n        /* \"#utility.yul\":5134:5135   */\n      dup2\n        /* \"#utility.yul\":5131:5144   */\n      lt\n        /* \"#utility.yul\":5123:5236   */\n      iszero\n      tag_115\n      jumpi\n        /* \"#utility.yul\":5222:5223   */\n      dup1\n        /* \"#utility.yul\":5217:5220   */\n      dup3\n        /* \"#utility.yul\":5213:5224   */\n      add\n        /* \"#utility.yul\":5207:5225   */\n      mload\n        /* \"#utility.yul\":5203:5204   */\n      dup2\n        /* \"#utility.yul\":5198:5201   */\n      dup5\n        /* \"#utility.yul\":5194:5205   */\n      add\n        /* \"#utility.yul\":5187:5226   */\n      mstore\n        /* \"#utility.yul\":5159:5161   */\n      0x20\n        /* \"#utility.yul\":5156:5157   */\n      dup2\n        /* \"#utility.yul\":5152:5162   */\n      add\n        /* \"#utility.yul\":5147:5162   */\n      swap1\n      pop\n        /* \"#utility.yul\":5123:5236   */\n      jump(tag_113)\n    tag_115:\n        /* \"#utility.yul\":5254:5260   */\n      dup4\n        /* \"#utility.yul\":5251:5252   */\n      dup2\n        /* \"#utility.yul\":5248:5261   */\n      gt\n        /* \"#utility.yul\":5245:5346   */\n      iszero\n      tag_116\n      jumpi\n        /* \"#utility.yul\":5334:5335   */\n      0x00\n        /* \"#utility.yul\":5325:5331   */\n      dup5\n        /* \"#utility.yul\":5320:5323   */\n      dup5\n        /* \"#utility.yul\":5316:5332   */\n      add\n        /* \"#utility.yul\":5309:5336   */\n      mstore\n        /* \"#utility.yul\":5245:5346   */\n    tag_116:\n        /* \"#utility.yul\":5094:5352   */\n      pop\n        /* \"#utility.yul\":5045:5352   */\n      pop\n      pop\n      pop\n      jump\t// out\n        /* \"#utility.yul\":5358:5639   */\n    tag_97:\n        /* \"#utility.yul\":5441:5468   */\n      tag_118\n        /* \"#utility.yul\":5463:5467   */\n      dup3\n        /* \"#utility.yul\":5441:5468   */\n      tag_82\n      jump\t// in\n    tag_118:\n        /* \"#utility.yul\":5433:5439   */\n      dup2\n        /* \"#utility.yul\":5429:5469   */\n      add\n        /* \"#utility.yul\":5571:5577   */\n      dup2\n        /* \"#utility.yul\":5559:5569   */\n      dup2\n        /* \"#utility.yul\":5556:5578   */\n      lt\n        /* \"#utility.yul\":5535:5553   */\n      0xffffffffffffffff\n        /* \"#utility.yul\":5523:5533   */\n      dup3\n        /* \"#utility.yul\":5520:5554   */\n      gt\n        /* \"#utility.yul\":5517:5579   */\n      or\n        /* \"#utility.yul\":5514:5602   */\n      iszero\n      tag_119\n      jumpi\n        /* \"#utility.yul\":5582:5600   */\n      tag_120\n      tag_102\n      jump\t// in\n    tag_120:\n        /* \"#utility.yul\":5514:5602   */\n    tag_119:\n        /* \"#utility.yul\":5622:5632   */\n      dup1\n        /* \"#utility.yul\":5618:5620   */\n      0x40\n        /* \"#utility.yul\":5611:5633   */\n      mstore\n        /* \"#utility.yul\":5401:5639   */\n      pop\n        /* \"#utility.yul\":5358:5639   */\n      pop\n      pop\n      jump\t// out\n        /* \"#utility.yul\":5645:5825   */\n    tag_102:\n        /* \"#utility.yul\":5693:5770   */\n      0x4e487b7100000000000000000000000000000000000000000000000000000000\n        /* \"#utility.yul\":5690:5691   */\n      0x00\n        /* \"#utility.yul\":5683:5771   */\n      mstore\n        /* \"#utility.yul\":5790:5794   */\n      0x41\n        /* \"#utility.yul\":5787:5788   */\n      0x04\n        /* \"#utility.yul\":5780:5795   */\n      mstore\n        /* \"#utility.yul\":5814:5818   */\n      0x24\n        /* \"#utility.yul\":5811:5812   */\n      0x00\n        /* \"#utility.yul\":5804:5819   */\n      revert\n        /* \"#utility.yul\":5831:5948   */\n    tag_49:\n        /* \"#utility.yul\":5940:5941   */\n      0x00\n        /* \"#utility.yul\":5937:5938   */\n      dup1\n        /* \"#utility.yul\":5930:5942   */\n      revert\n        /* \"#utility.yul\":5954:6071   */\n    tag_35:\n        /* \"#utility.yul\":6063:6064   */\n      0x00\n        /* \"#utility.yul\":6060:6061   */\n      dup1\n        /* \"#utility.yul\":6053:6065   */\n      revert\n        /* \"#utility.yul\":6077:6194   */\n    tag_66:\n        /* \"#utility.yul\":6186:6187   */\n      0x00\n        /* \"#utility.yul\":6183:6184   */\n      dup1\n        /* \"#utility.yul\":6176:6188   */\n      revert\n        /* \"#utility.yul\":6200:6317   */\n    tag_58:\n        /* \"#utility.yul\":6309:6310   */\n      0x00\n        /* \"#utility.yul\":6306:6307   */\n      dup1\n        /* \"#utility.yul\":6299:6311   */\n      revert\n        /* \"#utility.yul\":6323:6425   */\n    tag_82:\n        /* \"#utility.yul\":6364:6370   */\n      0x00\n        /* \"#utility.yul\":6415:6417   */\n      0x1f\n        /* \"#utility.yul\":6411:6418   */\n      not\n        /* \"#utility.yul\":6406:6408   */\n      0x1f\n        /* \"#utility.yul\":6399:6404   */\n      dup4\n        /* \"#utility.yul\":6395:6409   */\n      add\n        /* \"#utility.yul\":6391:6419   */\n      and\n        /* \"#utility.yul\":6381:6419   */\n      swap1\n      pop\n        /* \"#utility.yul\":6323:6425   */\n      swap2\n      swap1\n      pop\n      jump\t// out\n        /* \"#utility.yul\":6431:6553   */\n    tag_41:\n        /* \"#utility.yul\":6504:6528   */\n      tag_128\n        /* \"#utility.yul\":6522:6527   */\n      dup2\n        /* \"#utility.yul\":6504:6528   */\n      tag_72\n      jump\t// in\n    tag_128:\n        /* \"#utility.yul\":6497:6502   */\n      dup2\n        /* \"#utility.yul\":6494:6529   */\n      eq\n        /* \"#utility.yul\":6484:6547   */\n      tag_129\n      jumpi\n        /* \"#utility.yul\":6543:6544   */\n      0x00\n        /* \"#utility.yul\":6540:6541   */\n      dup1\n        /* \"#utility.yul\":6533:6545   */\n      revert\n        /* \"#utility.yul\":6484:6547   */\n    tag_129:\n        /* \"#utility.yul\":6431:6553   */\n      pop\n      jump\t// out\n        /* \"#utility.yul\":6559:6677   */\n    tag_54:\n        /* \"#utility.yul\":6630:6652   */\n      tag_131\n        /* \"#utility.yul\":6646:6651   */\n      dup2\n        /* \"#utility.yul\":6630:6652   */\n      tag_86\n      jump\t// in\n    tag_131:\n        /* \"#utility.yul\":6623:6628   */\n      dup2\n        /* \"#utility.yul\":6620:6653   */\n      eq\n        /* \"#utility.yul\":6610:6671   */\n      tag_132\n      jumpi\n        /* \"#utility.yul\":6667:6668   */\n      0x00\n        /* \"#utility.yul\":6664:6665   */\n      dup1\n        /* \"#utility.yul\":6657:6669   */\n      revert\n        /* \"#utility.yul\":6610:6671   */\n    tag_132:\n        /* \"#utility.yul\":6559:6677   */\n      pop\n      jump\t// out\n\n    auxdata: 0xa2646970667358221220e34fbfb4a36cce420b8152f520794e86b02cf6d161ce2e793a828aa65846602a64736f6c63430008070033\n}\n",
				"bytecode": {
					"linkReferences": {},
					"object": "608060405234801561001057600080fd5b506040516107e93803806107e98339818101604052810190610032919061011f565b836000806101000a81548173ffffffffffffffffffffffffffffffffffffffff021916908373ffffffffffffffffffffffffffffffffffffffff16021790555060008054906101000a900473ffffffffffffffffffffffffffffffffffffffff1673ffffffffffffffffffffffffffffffffffffffff166336fd26338484846040518463ffffffff1660e01b81526004016100cf93929190610195565b600060405180830381600087803b1580156100e957600080fd5b505af11580156100fd573d6000803e3d6000fd5b505050505050505061021a565b60008151905061011981610203565b92915050565b60008060008060808587031215610139576101386101fe565b5b60006101478782880161010a565b94505060206101588782880161010a565b93505060406101698782880161010a565b925050606061017a8782880161010a565b91505092959194509250565b61018f816101cc565b82525050565b60006060820190506101aa6000830186610186565b6101b76020830185610186565b6101c46040830184610186565b949350505050565b60006101d7826101de565b9050919050565b600073ffffffffffffffffffffffffffffffffffffffff82169050919050565b600080fd5b61020c816101cc565b811461021757600080fd5b50565b6105c0806102296000396000f3fe608060405234801561001057600080fd5b50600436106100365760003560e01c806303c3abc41461003b57806313cb22c614610059575b600080fd5b610043610075565b604051610050919061038b565b60405180910390f35b610073600480360381019061006e91906102c5565b61011b565b005b60008060009054906101000a900473ffffffffffffffffffffffffffffffffffffffff1673ffffffffffffffffffffffffffffffffffffffff166303c3abc46040518163ffffffff1660e01b815260040160206040518083038186803b1580156100de57600080fd5b505afa1580156100f2573d6000803e3d6000fd5b505050506040513d601f19601f820116820180604052508101906101169190610298565b905090565b60008054906101000a900473ffffffffffffffffffffffffffffffffffffffff1673ffffffffffffffffffffffffffffffffffffffff16621d54ab8484846040518463ffffffff1660e01b8152600401610177939291906103a6565b600060405180830381600087803b15801561019157600080fd5b505af11580156101a5573d6000803e3d6000fd5b505050507f750ae9c195d9b95b8c17bf0fa25801932d5a28c4871f4571af70581bc15f5bfe8383836040516101dc939291906103a6565b60405180910390a1505050565b60006101fc6101f784610409565b6103e4565b9050828152602081018484840111156102185761021761053c565b5b610223848285610495565b509392505050565b60008135905061023a8161055c565b92915050565b60008151905061024f8161055c565b92915050565b600082601f83011261026a57610269610537565b5b813561027a8482602086016101e9565b91505092915050565b60008135905061029281610573565b92915050565b6000602082840312156102ae576102ad610546565b5b60006102bc84828501610240565b91505092915050565b6000806000606084860312156102de576102dd610546565b5b60006102ec8682870161022b565b935050602084013567ffffffffffffffff81111561030d5761030c610541565b5b61031986828701610255565b925050604061032a86828701610283565b9150509250925092565b61033d81610456565b82525050565b600061034e8261043a565b6103588185610445565b93506103688185602086016104a4565b6103718161054b565b840191505092915050565b61038581610488565b82525050565b60006020820190506103a06000830184610334565b92915050565b60006060820190506103bb6000830186610334565b81810360208301526103cd8185610343565b90506103dc604083018461037c565b949350505050565b60006103ee6103ff565b90506103fa82826104d7565b919050565b6000604051905090565b600067ffffffffffffffff82111561042457610423610508565b5b61042d8261054b565b9050602081019050919050565b600081519050919050565b600082825260208201905092915050565b600061046182610468565b9050919050565b600073ffffffffffffffffffffffffffffffffffffffff82169050919050565b600060ff82169050919050565b82818337600083830152505050565b60005b838110156104c25780820151818401526020810190506104a7565b838111156104d1576000848401525b50505050565b6104e08261054b565b810181811067ffffffffffffffff821117156104ff576104fe610508565b5b80604052505050565b7f4e487b7100000000000000000000000000000000000000000000000000000000600052604160045260246000fd5b600080fd5b600080fd5b600080fd5b600080fd5b6000601f19601f8301169050919050565b61056581610456565b811461057057600080fd5b50565b61057c81610488565b811461058757600080fd5b5056fea2646970667358221220e34fbfb4a36cce420b8152f520794e86b02cf6d161ce2e793a828aa65846602a64736f6c63430008070033",
					"opcodes": "PUSH1 0x80 PUSH1 0x40 MSTORE CALLVALUE DUP1 ISZERO PUSH2 0x10 JUMPI PUSH1 0x0 DUP1 REVERT JUMPDEST POP PUSH1 0x40 MLOAD PUSH2 0x7E9 CODESIZE SUB DUP1 PUSH2 0x7E9 DUP4 CODECOPY DUP2 DUP2 ADD PUSH1 0x40 MSTORE DUP2 ADD SWAP1 PUSH2 0x32 SWAP2 SWAP1 PUSH2 0x11F JUMP JUMPDEST DUP4 PUSH1 0x0 DUP1 PUSH2 0x100 EXP DUP2 SLOAD DUP2 PUSH20 0xFFFFFFFFFFFFFFFFFFFFFFFFFFFFFFFFFFFFFFFF MUL NOT AND SWAP1 DUP4 PUSH20 0xFFFFFFFFFFFFFFFFFFFFFFFFFFFFFFFFFFFFFFFF AND MUL OR SWAP1 SSTORE POP PUSH1 0x0 DUP1 SLOAD SWAP1 PUSH2 0x100 EXP SWAP1 DIV PUSH20 0xFFFFFFFFFFFFFFFFFFFFFFFFFFFFFFFFFFFFFFFF AND PUSH20 0xFFFFFFFFFFFFFFFFFFFFFFFFFFFFFFFFFFFFFFFF AND PUSH4 0x36FD2633 DUP5 DUP5 DUP5 PUSH1 0x40 MLOAD DUP5 PUSH4 0xFFFFFFFF AND PUSH1 0xE0 SHL DUP2 MSTORE PUSH1 0x4 ADD PUSH2 0xCF SWAP4 SWAP3 SWAP2 SWAP1 PUSH2 0x195 JUMP JUMPDEST PUSH1 0x0 PUSH1 0x40 MLOAD DUP1 DUP4 SUB DUP2 PUSH1 0x0 DUP8 DUP1 EXTCODESIZE ISZERO DUP1 ISZERO PUSH2 0xE9 JUMPI PUSH1 0x0 DUP1 REVERT JUMPDEST POP GAS CALL ISZERO DUP1 ISZERO PUSH2 0xFD JUMPI RETURNDATASIZE PUSH1 0x0 DUP1 RETURNDATACOPY RETURNDATASIZE PUSH1 0x0 REVERT JUMPDEST POP POP POP POP POP POP POP POP PUSH2 0x21A JUMP JUMPDEST PUSH1 0x0 DUP2 MLOAD SWAP1 POP PUSH2 0x119 DUP2 PUSH2 0x203 JUMP JUMPDEST SWAP3 SWAP2 POP POP JUMP JUMPDEST PUSH1 0x0 DUP1 PUSH1 0x0 DUP1 PUSH1 0x80 DUP6 DUP8 SUB SLT ISZERO PUSH2 0x139 JUMPI PUSH2 0x138 PUSH2 0x1FE JUMP JUMPDEST JUMPDEST PUSH1 0x0 PUSH2 0x147 DUP8 DUP3 DUP9 ADD PUSH2 0x10A JUMP JUMPDEST SWAP5 POP POP PUSH1 0x20 PUSH2 0x158 DUP8 DUP3 DUP9 ADD PUSH2 0x10A JUMP JUMPDEST SWAP4 POP POP PUSH1 0x40 PUSH2 0x169 DUP8 DUP3 DUP9 ADD PUSH2 0x10A JUMP JUMPDEST SWAP3 POP POP PUSH1 0x60 PUSH2 0x17A DUP8 DUP3 DUP9 ADD PUSH2 0x10A JUMP JUMPDEST SWAP2 POP POP SWAP3 SWAP6 SWAP2 SWAP5 POP SWAP3 POP JUMP JUMPDEST PUSH2 0x18F DUP2 PUSH2 0x1CC JUMP JUMPDEST DUP3 MSTORE POP POP JUMP JUMPDEST PUSH1 0x0 PUSH1 0x60 DUP3 ADD SWAP1 POP PUSH2 0x1AA PUSH1 0x0 DUP4 ADD DUP7 PUSH2 0x186 JUMP JUMPDEST PUSH2 0x1B7 PUSH1 0x20 DUP4 ADD DUP6 PUSH2 0x186 JUMP JUMPDEST PUSH2 0x1C4 PUSH1 0x40 DUP4 ADD DUP5 PUSH2 0x186 JUMP JUMPDEST SWAP5 SWAP4 POP POP POP POP JUMP JUMPDEST PUSH1 0x0 PUSH2 0x1D7 DUP3 PUSH2 0x1DE JUMP JUMPDEST SWAP1 POP SWAP2 SWAP1 POP JUMP JUMPDEST PUSH1 0x0 PUSH20 0xFFFFFFFFFFFFFFFFFFFFFFFFFFFFFFFFFFFFFFFF DUP3 AND SWAP1 POP SWAP2 SWAP1 POP JUMP JUMPDEST PUSH1 0x0 DUP1 REVERT JUMPDEST PUSH2 0x20C DUP2 PUSH2 0x1CC JUMP JUMPDEST DUP2 EQ PUSH2 0x217 JUMPI PUSH1 0x0 DUP1 REVERT JUMPDEST POP JUMP JUMPDEST PUSH2 0x5C0 DUP1 PUSH2 0x229 PUSH1 0x0 CODECOPY PUSH1 0x0 RETURN INVALID PUSH1 0x80 PUSH1 0x40 MSTORE CALLVALUE DUP1 ISZERO PUSH2 0x10 JUMPI PUSH1 0x0 DUP1 REVERT JUMPDEST POP PUSH1 0x4 CALLDATASIZE LT PUSH2 0x36 JUMPI PUSH1 0x0 CALLDATALOAD PUSH1 0xE0 SHR DUP1 PUSH4 0x3C3ABC4 EQ PUSH2 0x3B JUMPI DUP1 PUSH4 0x13CB22C6 EQ PUSH2 0x59 JUMPI JUMPDEST PUSH1 0x0 DUP1 REVERT JUMPDEST PUSH2 0x43 PUSH2 0x75 JUMP JUMPDEST PUSH1 0x40 MLOAD PUSH2 0x50 SWAP2 SWAP1 PUSH2 0x38B JUMP JUMPDEST PUSH1 0x40 MLOAD DUP1 SWAP2 SUB SWAP1 RETURN JUMPDEST PUSH2 0x73 PUSH1 0x4 DUP1 CALLDATASIZE SUB DUP2 ADD SWAP1 PUSH2 0x6E SWAP2 SWAP1 PUSH2 0x2C5 JUMP JUMPDEST PUSH2 0x11B JUMP JUMPDEST STOP JUMPDEST PUSH1 0x0 DUP1 PUSH1 0x0 SWAP1 SLOAD SWAP1 PUSH2 0x100 EXP SWAP1 DIV PUSH20 0xFFFFFFFFFFFFFFFFFFFFFFFFFFFFFFFFFFFFFFFF AND PUSH20 0xFFFFFFFFFFFFFFFFFFFFFFFFFFFFFFFFFFFFFFFF AND PUSH4 0x3C3ABC4 PUSH1 0x40 MLOAD DUP2 PUSH4 0xFFFFFFFF AND PUSH1 0xE0 SHL DUP2 MSTORE PUSH1 0x4 ADD PUSH1 0x20 PUSH1 0x40 MLOAD DUP1 DUP4 SUB DUP2 DUP7 DUP1 EXTCODESIZE ISZERO DUP1 ISZERO PUSH2 0xDE JUMPI PUSH1 0x0 DUP1 REVERT JUMPDEST POP GAS STATICCALL ISZERO DUP1 ISZERO PUSH2 0xF2 JUMPI RETURNDATASIZE PUSH1 0x0 DUP1 RETURNDATACOPY RETURNDATASIZE PUSH1 0x0 REVERT JUMPDEST POP POP POP POP PUSH1 0x40 MLOAD RETURNDATASIZE PUSH1 0x1F NOT PUSH1 0x1F DUP3 ADD AND DUP3 ADD DUP1 PUSH1 0x40 MSTORE POP DUP2 ADD SWAP1 PUSH2 0x116 SWAP2 SWAP1 PUSH2 0x298 JUMP JUMPDEST SWAP1 POP SWAP1 JUMP JUMPDEST PUSH1 0x0 DUP1 SLOAD SWAP1 PUSH2 0x100 EXP SWAP1 DIV PUSH20 0xFFFFFFFFFFFFFFFFFFFFFFFFFFFFFFFFFFFFFFFF AND PUSH20 0xFFFFFFFFFFFFFFFFFFFFFFFFFFFFFFFFFFFFFFFF AND PUSH3 0x1D54AB DUP5 DUP5 DUP5 PUSH1 0x40 MLOAD DUP5 PUSH4 0xFFFFFFFF AND PUSH1 0xE0 SHL DUP2 MSTORE PUSH1 0x4 ADD PUSH2 0x177 SWAP4 SWAP3 SWAP2 SWAP1 PUSH2 0x3A6 JUMP JUMPDEST PUSH1 0x0 PUSH1 0x40 MLOAD DUP1 DUP4 SUB DUP2 PUSH1 0x0 DUP8 DUP1 EXTCODESIZE ISZERO DUP1 ISZERO PUSH2 0x191 JUMPI PUSH1 0x0 DUP1 REVERT JUMPDEST POP GAS CALL ISZERO DUP1 ISZERO PUSH2 0x1A5 JUMPI RETURNDATASIZE PUSH1 0x0 DUP1 RETURNDATACOPY RETURNDATASIZE PUSH1 0x0 REVERT JUMPDEST POP POP POP POP PUSH32 0x750AE9C195D9B95B8C17BF0FA25801932D5A28C4871F4571AF70581BC15F5BFE DUP4 DUP4 DUP4 PUSH1 0x40 MLOAD PUSH2 0x1DC SWAP4 SWAP3 SWAP2 SWAP1 PUSH2 0x3A6 JUMP JUMPDEST PUSH1 0x40 MLOAD DUP1 SWAP2 SUB SWAP1 LOG1 POP POP POP JUMP JUMPDEST PUSH1 0x0 PUSH2 0x1FC PUSH2 0x1F7 DUP5 PUSH2 0x409 JUMP JUMPDEST PUSH2 0x3E4 JUMP JUMPDEST SWAP1 POP DUP3 DUP2 MSTORE PUSH1 0x20 DUP2 ADD DUP5 DUP5 DUP5 ADD GT ISZERO PUSH2 0x218 JUMPI PUSH2 0x217 PUSH2 0x53C JUMP JUMPDEST JUMPDEST PUSH2 0x223 DUP5 DUP3 DUP6 PUSH2 0x495 JUMP JUMPDEST POP SWAP4 SWAP3 POP POP POP JUMP JUMPDEST PUSH1 0x0 DUP2 CALLDATALOAD SWAP1 POP PUSH2 0x23A DUP2 PUSH2 0x55C JUMP JUMPDEST SWAP3 SWAP2 POP POP JUMP JUMPDEST PUSH1 0x0 DUP2 MLOAD SWAP1 POP PUSH2 0x24F DUP2 PUSH2 0x55C JUMP JUMPDEST SWAP3 SWAP2 POP POP JUMP JUMPDEST PUSH1 0x0 DUP3 PUSH1 0x1F DUP4 ADD SLT PUSH2 0x26A JUMPI PUSH2 0x269 PUSH2 0x537 JUMP JUMPDEST JUMPDEST DUP2 CALLDATALOAD PUSH2 0x27A DUP5 DUP3 PUSH1 0x20 DUP7 ADD PUSH2 0x1E9 JUMP JUMPDEST SWAP2 POP POP SWAP3 SWAP2 POP POP JUMP JUMPDEST PUSH1 0x0 DUP2 CALLDATALOAD SWAP1 POP PUSH2 0x292 DUP2 PUSH2 0x573 JUMP JUMPDEST SWAP3 SWAP2 POP POP JUMP JUMPDEST PUSH1 0x0 PUSH1 0x20 DUP3 DUP5 SUB SLT ISZERO PUSH2 0x2AE JUMPI PUSH2 0x2AD PUSH2 0x546 JUMP JUMPDEST JUMPDEST PUSH1 0x0 PUSH2 0x2BC DUP5 DUP3 DUP6 ADD PUSH2 0x240 JUMP JUMPDEST SWAP2 POP POP SWAP3 SWAP2 POP POP JUMP JUMPDEST PUSH1 0x0 DUP1 PUSH1 0x0 PUSH1 0x60 DUP5 DUP7 SUB SLT ISZERO PUSH2 0x2DE JUMPI PUSH2 0x2DD PUSH2 0x546 JUMP JUMPDEST JUMPDEST PUSH1 0x0 PUSH2 0x2EC DUP7 DUP3 DUP8 ADD PUSH2 0x22B JUMP JUMPDEST SWAP4 POP POP PUSH1 0x20 DUP5 ADD CALLDATALOAD PUSH8 0xFFFFFFFFFFFFFFFF DUP2 GT ISZERO PUSH2 0x30D JUMPI PUSH2 0x30C PUSH2 0x541 JUMP JUMPDEST JUMPDEST PUSH2 0x319 DUP7 DUP3 DUP8 ADD PUSH2 0x255 JUMP JUMPDEST SWAP3 POP POP PUSH1 0x40 PUSH2 0x32A DUP7 DUP3 DUP8 ADD PUSH2 0x283 JUMP JUMPDEST SWAP2 POP POP SWAP3 POP SWAP3 POP SWAP3 JUMP JUMPDEST PUSH2 0x33D DUP2 PUSH2 0x456 JUMP JUMPDEST DUP3 MSTORE POP POP JUMP JUMPDEST PUSH1 0x0 PUSH2 0x34E DUP3 PUSH2 0x43A JUMP JUMPDEST PUSH2 0x358 DUP2 DUP6 PUSH2 0x445 JUMP JUMPDEST SWAP4 POP PUSH2 0x368 DUP2 DUP6 PUSH1 0x20 DUP7 ADD PUSH2 0x4A4 JUMP JUMPDEST PUSH2 0x371 DUP2 PUSH2 0x54B JUMP JUMPDEST DUP5 ADD SWAP2 POP POP SWAP3 SWAP2 POP POP JUMP JUMPDEST PUSH2 0x385 DUP2 PUSH2 0x488 JUMP JUMPDEST DUP3 MSTORE POP POP JUMP JUMPDEST PUSH1 0x0 PUSH1 0x20 DUP3 ADD SWAP1 POP PUSH2 0x3A0 PUSH1 0x0 DUP4 ADD DUP5 PUSH2 0x334 JUMP JUMPDEST SWAP3 SWAP2 POP POP JUMP JUMPDEST PUSH1 0x0 PUSH1 0x60 DUP3 ADD SWAP1 POP PUSH2 0x3BB PUSH1 0x0 DUP4 ADD DUP7 PUSH2 0x334 JUMP JUMPDEST DUP2 DUP2 SUB PUSH1 0x20 DUP4 ADD MSTORE PUSH2 0x3CD DUP2 DUP6 PUSH2 0x343 JUMP JUMPDEST SWAP1 POP PUSH2 0x3DC PUSH1 0x40 DUP4 ADD DUP5 PUSH2 0x37C JUMP JUMPDEST SWAP5 SWAP4 POP POP POP POP JUMP JUMPDEST PUSH1 0x0 PUSH2 0x3EE PUSH2 0x3FF JUMP JUMPDEST SWAP1 POP PUSH2 0x3FA DUP3 DUP3 PUSH2 0x4D7 JUMP JUMPDEST SWAP2 SWAP1 POP JUMP JUMPDEST PUSH1 0x0 PUSH1 0x40 MLOAD SWAP1 POP SWAP1 JUMP JUMPDEST PUSH1 0x0 PUSH8 0xFFFFFFFFFFFFFFFF DUP3 GT ISZERO PUSH2 0x424 JUMPI PUSH2 0x423 PUSH2 0x508 JUMP JUMPDEST JUMPDEST PUSH2 0x42D DUP3 PUSH2 0x54B JUMP JUMPDEST SWAP1 POP PUSH1 0x20 DUP2 ADD SWAP1 POP SWAP2 SWAP1 POP JUMP JUMPDEST PUSH1 0x0 DUP2 MLOAD SWAP1 POP SWAP2 SWAP1 POP JUMP JUMPDEST PUSH1 0x0 DUP3 DUP3 MSTORE PUSH1 0x20 DUP3 ADD SWAP1 POP SWAP3 SWAP2 POP POP JUMP JUMPDEST PUSH1 0x0 PUSH2 0x461 DUP3 PUSH2 0x468 JUMP JUMPDEST SWAP1 POP SWAP2 SWAP1 POP JUMP JUMPDEST PUSH1 0x0 PUSH20 0xFFFFFFFFFFFFFFFFFFFFFFFFFFFFFFFFFFFFFFFF DUP3 AND SWAP1 POP SWAP2 SWAP1 POP JUMP JUMPDEST PUSH1 0x0 PUSH1 0xFF DUP3 AND SWAP1 POP SWAP2 SWAP1 POP JUMP JUMPDEST DUP3 DUP2 DUP4 CALLDATACOPY PUSH1 0x0 DUP4 DUP4 ADD MSTORE POP POP POP JUMP JUMPDEST PUSH1 0x0 JUMPDEST DUP4 DUP2 LT ISZERO PUSH2 0x4C2 JUMPI DUP1 DUP3 ADD MLOAD DUP2 DUP5 ADD MSTORE PUSH1 0x20 DUP2 ADD SWAP1 POP PUSH2 0x4A7 JUMP JUMPDEST DUP4 DUP2 GT ISZERO PUSH2 0x4D1 JUMPI PUSH1 0x0 DUP5 DUP5 ADD MSTORE JUMPDEST POP POP POP POP JUMP JUMPDEST PUSH2 0x4E0 DUP3 PUSH2 0x54B JUMP JUMPDEST DUP2 ADD DUP2 DUP2 LT PUSH8 0xFFFFFFFFFFFFFFFF DUP3 GT OR ISZERO PUSH2 0x4FF JUMPI PUSH2 0x4FE PUSH2 0x508 JUMP JUMPDEST JUMPDEST DUP1 PUSH1 0x40 MSTORE POP POP POP JUMP JUMPDEST PUSH32 0x4E487B7100000000000000000000000000000000000000000000000000000000 PUSH1 0x0 MSTORE PUSH1 0x41 PUSH1 0x4 MSTORE PUSH1 0x24 PUSH1 0x0 REVERT JUMPDEST PUSH1 0x0 DUP1 REVERT JUMPDEST PUSH1 0x0 DUP1 REVERT JUMPDEST PUSH1 0x0 DUP1 REVERT JUMPDEST PUSH1 0x0 DUP1 REVERT JUMPDEST PUSH1 0x0 PUSH1 0x1F NOT PUSH1 0x1F DUP4 ADD AND SWAP1 POP SWAP2 SWAP1 POP JUMP JUMPDEST PUSH2 0x565 DUP2 PUSH2 0x456 JUMP JUMPDEST DUP2 EQ PUSH2 0x570 JUMPI PUSH1 0x0 DUP1 REVERT JUMPDEST POP JUMP JUMPDEST PUSH2 0x57C DUP2 PUSH2 0x488 JUMP JUMPDEST DUP2 EQ PUSH2 0x587 JUMPI PUSH1 0x0 DUP1 REVERT JUMPDEST POP JUMP INVALID LOG2 PUSH5 0x6970667358 0x22 SLT KECCAK256 0xE3 0x4F 0xBF 0xB4 LOG3 PUSH13 0xCE420B8152F520794E86B02CF6 0xD1 PUSH2 0xCE2E PUSH26 0x3A828AA65846602A64736F6C6343000807003300000000000000 "
				},
				"gasEstimates": {
					"creation": {
						"codeDepositCost": "294400",
						"executionCost": "infinite",
						"totalCost": "infinite"
					},
					"external": {
						"getYOK()": "infinite",
						"kaydetUniversite(address,string,uint8)": "infinite"
					}
				},
				"methodIdentifiers": {
					"getYOK()": "03c3abc4",
					"kaydetUniversite(address,string,uint8)": "13cb22c6"
				}
			},
			"storageLayout": {
				"storage": [
					{
						"astId": 472,
						"contract": "contracts/Registration.sol:Registration",
						"label": "baseContract",
						"offset": 0,
						"slot": "0",
						"type": "t_contract(BaseContract)466"
					}
				],
				"types": {
					"t_contract(BaseContract)466": {
						"encoding": "inplace",
						"label": "contract BaseContract",
						"numberOfBytes": "20"
					}
				}
			},
			"userdoc": {
				"kind": "user",
				"methods": {},
				"version": 1
			}
		}
	}
}