{
	"contracts/KursBilgileri.sol": {
		"KursBilgileri": {
			"abi": [
				{
					"anonymous": false,
					"inputs": [
						{
							"indexed": false,
							"internalType": "address",
							"name": "_kisiAddress",
							"type": "address"
						},
						{
							"indexed": false,
							"internalType": "uint256",
							"name": "_basTarih",
							"type": "uint256"
						},
						{
							"indexed": false,
							"internalType": "uint256",
							"name": "_bitTarih",
							"type": "uint256"
						},
						{
							"indexed": false,
							"internalType": "uint8",
							"name": "_sure",
							"type": "uint8"
						}
					],
					"name": "KursEklendiLog",
					"type": "event"
				},
				{
					"anonymous": false,
					"inputs": [
						{
							"indexed": false,
							"internalType": "address",
							"name": "_kisiAddress",
							"type": "address"
						},
						{
							"indexed": false,
							"internalType": "uint256",
							"name": "_basTarih",
							"type": "uint256"
						},
						{
							"indexed": false,
							"internalType": "uint256",
							"name": "_bitTarih",
							"type": "uint256"
						},
						{
							"indexed": false,
							"internalType": "uint8",
							"name": "_sure",
							"type": "uint8"
						}
					],
					"name": "KursGuncellendiLog",
					"type": "event"
				},
				{
					"anonymous": false,
					"inputs": [
						{
							"indexed": false,
							"internalType": "address",
							"name": "_talepEdilenKurum",
							"type": "address"
						},
						{
							"indexed": false,
							"internalType": "uint256",
							"name": "_basTarih",
							"type": "uint256"
						},
						{
							"indexed": false,
							"internalType": "uint256",
							"name": "_bitTarih",
							"type": "uint256"
						},
						{
							"indexed": false,
							"internalType": "uint8",
							"name": "_sure",
							"type": "uint8"
						}
					],
					"name": "KursTalepEdildiLog",
					"type": "event"
				},
				{
					"inputs": [
						{
							"internalType": "address",
							"name": "",
							"type": "address"
						}
					],
					"name": "akademisyenler",
					"outputs": [
						{
							"internalType": "bool",
							"name": "durum",
							"type": "bool"
						},
						{
							"internalType": "address",
							"name": "universite",
							"type": "address"
						},
						{
							"internalType": "uint16",
							"name": "bolum",
							"type": "uint16"
						},
						{
							"internalType": "enum BaseContract.Unvan",
							"name": "unvan",
							"type": "uint8"
						},
						{
							"internalType": "string",
							"name": "ad",
							"type": "string"
						},
						{
							"internalType": "string",
							"name": "soyad",
							"type": "string"
						}
					],
					"stateMutability": "view",
					"type": "function"
				},
				{
					"inputs": [
						{
							"internalType": "uint32",
							"name": "",
							"type": "uint32"
						}
					],
					"name": "diller",
					"outputs": [
						{
							"internalType": "uint32",
							"name": "id",
							"type": "uint32"
						},
						{
							"internalType": "string",
							"name": "isim",
							"type": "string"
						}
					],
					"stateMutability": "view",
					"type": "function"
				},
				{
					"inputs": [
						{
							"internalType": "address",
							"name": "_kisiAddress",
							"type": "address"
						},
						{
							"internalType": "uint256",
							"name": "basTarih",
							"type": "uint256"
						},
						{
							"internalType": "uint256",
							"name": "bitTarih",
							"type": "uint256"
						},
						{
							"internalType": "uint8",
							"name": "sure",
							"type": "uint8"
						},
						{
							"internalType": "string",
							"name": "egitimAdi",
							"type": "string"
						}
					],
					"name": "ekleKursBilgi",
					"outputs": [],
					"stateMutability": "nonpayable",
					"type": "function"
				},
				{
					"inputs": [
						{
							"internalType": "address",
							"name": "",
							"type": "address"
						}
					],
					"name": "firmalar",
					"outputs": [
						{
							"internalType": "bool",
							"name": "durum",
							"type": "bool"
						},
						{
							"internalType": "uint8",
							"name": "ulke",
							"type": "uint8"
						},
						{
							"internalType": "uint256",
							"name": "vergiNo",
							"type": "uint256"
						},
						{
							"internalType": "string",
							"name": "isim",
							"type": "string"
						}
					],
					"stateMutability": "view",
					"type": "function"
				},
				{
					"inputs": [
						{
							"internalType": "address",
							"name": "_kisiAddress",
							"type": "address"
						},
						{
							"internalType": "uint256",
							"name": "_kursBilgiId",
							"type": "uint256"
						},
						{
							"internalType": "uint256",
							"name": "basTarih",
							"type": "uint256"
						},
						{
							"internalType": "uint256",
							"name": "bitTarih",
							"type": "uint256"
						},
						{
							"internalType": "uint8",
							"name": "sure",
							"type": "uint8"
						},
						{
							"internalType": "string",
							"name": "egitimAdi",
							"type": "string"
						}
					],
					"name": "guncelleKursBilgi",
					"outputs": [
						{
							"internalType": "uint256",
							"name": "",
							"type": "uint256"
						}
					],
					"stateMutability": "nonpayable",
					"type": "function"
				},
				{
					"inputs": [],
					"name": "id",
					"outputs": [
						{
							"internalType": "uint256",
							"name": "",
							"type": "uint256"
						}
					],
					"stateMutability": "view",
					"type": "function"
				},
				{
					"inputs": [
						{
							"internalType": "address",
							"name": "",
							"type": "address"
						}
					],
					"name": "kamuKurumlari",
					"outputs": [
						{
							"internalType": "bool",
							"name": "durum",
							"type": "bool"
						},
						{
							"internalType": "string",
							"name": "isim",
							"type": "string"
						},
						{
							"internalType": "uint8",
							"name": "ulke",
							"type": "uint8"
						}
					],
					"stateMutability": "view",
					"type": "function"
				},
				{
					"inputs": [
						{
							"internalType": "address",
							"name": "",
							"type": "address"
						}
					],
					"name": "kisiler",
					"outputs": [
						{
							"internalType": "bool",
							"name": "durum",
							"type": "bool"
						}
					],
					"stateMutability": "view",
					"type": "function"
				},
				{
					"inputs": [
						{
							"internalType": "address",
							"name": "",
							"type": "address"
						},
						{
							"internalType": "uint256",
							"name": "",
							"type": "uint256"
						}
					],
					"name": "kursBilgiListesi",
					"outputs": [
						{
							"internalType": "uint256",
							"name": "id",
							"type": "uint256"
						},
						{
							"internalType": "address",
							"name": "talepEdilenKurum",
							"type": "address"
						},
						{
							"internalType": "uint256",
							"name": "basTarih",
							"type": "uint256"
						},
						{
							"internalType": "uint256",
							"name": "bitTarih",
							"type": "uint256"
						},
						{
							"internalType": "uint8",
							"name": "sure",
							"type": "uint8"
						},
						{
							"internalType": "string",
							"name": "egitimAdi",
							"type": "string"
						},
						{
							"components": [
								{
									"internalType": "uint256",
									"name": "zaman",
									"type": "uint256"
								},
								{
									"internalType": "address",
									"name": "adres",
									"type": "address"
								},
								{
									"internalType": "enum BaseContract.OnayDurum",
									"name": "durum",
									"type": "uint8"
								}
							],
							"internalType": "struct BaseContract.Onay",
							"name": "onayBilgi",
							"type": "tuple"
						}
					],
					"stateMutability": "view",
					"type": "function"
				},
				{
					"inputs": [
						{
							"internalType": "address",
							"name": "",
							"type": "address"
						}
					],
					"name": "kurslar",
					"outputs": [
						{
							"internalType": "bool",
							"name": "durum",
							"type": "bool"
						},
						{
							"internalType": "string",
							"name": "isim",
							"type": "string"
						},
						{
							"internalType": "uint8",
							"name": "ulke",
							"type": "uint8"
						}
					],
					"stateMutability": "view",
					"type": "function"
				},
				{
					"inputs": [
						{
							"internalType": "address",
							"name": "",
							"type": "address"
						}
					],
					"name": "sertifikaMerkezleri",
					"outputs": [
						{
							"internalType": "bool",
							"name": "durum",
							"type": "bool"
						},
						{
							"internalType": "string",
							"name": "isim",
							"type": "string"
						},
						{
							"internalType": "uint8",
							"name": "ulke",
							"type": "uint8"
						}
					],
					"stateMutability": "view",
					"type": "function"
				},
				{
					"inputs": [
						{
							"internalType": "address",
							"name": "",
							"type": "address"
						}
					],
					"name": "stklar",
					"outputs": [
						{
							"internalType": "bool",
							"name": "durum",
							"type": "bool"
						},
						{
							"internalType": "string",
							"name": "isim",
							"type": "string"
						},
						{
							"internalType": "uint8",
							"name": "ulke",
							"type": "uint8"
						}
					],
					"stateMutability": "view",
					"type": "function"
				},
				{
					"inputs": [
						{
							"internalType": "address",
							"name": "_talepEdilenKurum",
							"type": "address"
						},
						{
							"internalType": "uint256",
							"name": "basTarih",
							"type": "uint256"
						},
						{
							"internalType": "uint256",
							"name": "bitTarih",
							"type": "uint256"
						},
						{
							"internalType": "uint8",
							"name": "sure",
							"type": "uint8"
						},
						{
							"internalType": "string",
							"name": "egitimAdi",
							"type": "string"
						}
					],
					"name": "talepEtKursBilgi",
					"outputs": [],
					"stateMutability": "nonpayable",
					"type": "function"
				},
				{
					"inputs": [
						{
							"internalType": "address",
							"name": "",
							"type": "address"
						}
					],
					"name": "universiteler",
					"outputs": [
						{
							"internalType": "bool",
							"name": "durum",
							"type": "bool"
						},
						{
							"internalType": "string",
							"name": "isim",
							"type": "string"
						},
						{
							"internalType": "uint8",
							"name": "ulke",
							"type": "uint8"
						}
					],
					"stateMutability": "view",
					"type": "function"
				}
			],
			"devdoc": {
				"kind": "dev",
				"methods": {},
				"version": 1
			},
			"evm": {
				"assembly": "    /* \"contracts/KursBilgileri.sol\":104:3597  contract KursBilgileri is BaseContract{\r... */\n  mstore(0x40, 0x80)\n  callvalue\n  dup1\n  iszero\n  tag_1\n  jumpi\n  0x00\n  dup1\n  revert\ntag_1:\n  pop\n  dataSize(sub_0)\n  dup1\n  dataOffset(sub_0)\n  0x00\n  codecopy\n  0x00\n  return\nstop\n\nsub_0: assembly {\n        /* \"contracts/KursBilgileri.sol\":104:3597  contract KursBilgileri is BaseContract{\r... */\n      mstore(0x40, 0x80)\n      callvalue\n      dup1\n      iszero\n      tag_1\n      jumpi\n      0x00\n      dup1\n      revert\n    tag_1:\n      pop\n      jumpi(tag_2, lt(calldatasize, 0x04))\n      shr(0xe0, calldataload(0x00))\n      dup1\n      0x98522fd6\n      gt\n      tag_17\n      jumpi\n      dup1\n      0xaf640d0f\n      gt\n      tag_18\n      jumpi\n      dup1\n      0xaf640d0f\n      eq\n      tag_13\n      jumpi\n      dup1\n      0xba479b7e\n      eq\n      tag_14\n      jumpi\n      dup1\n      0xcbc92809\n      eq\n      tag_15\n      jumpi\n      dup1\n      0xd5070f43\n      eq\n      tag_16\n      jumpi\n      jump(tag_2)\n    tag_18:\n      dup1\n      0x98522fd6\n      eq\n      tag_10\n      jumpi\n      dup1\n      0x9a8c9119\n      eq\n      tag_11\n      jumpi\n      dup1\n      0xa4e7ae05\n      eq\n      tag_12\n      jumpi\n      jump(tag_2)\n    tag_17:\n      dup1\n      0x356b1f1e\n      gt\n      tag_19\n      jumpi\n      dup1\n      0x356b1f1e\n      eq\n      tag_6\n      jumpi\n      dup1\n      0x39987f94\n      eq\n      tag_7\n      jumpi\n      dup1\n      0x6dac86de\n      eq\n      tag_8\n      jumpi\n      dup1\n      0x7d0fa287\n      eq\n      tag_9\n      jumpi\n      jump(tag_2)\n    tag_19:\n      dup1\n      0x1916e139\n      eq\n      tag_3\n      jumpi\n      dup1\n      0x1957b59f\n      eq\n      tag_4\n      jumpi\n      dup1\n      0x28266697\n      eq\n      tag_5\n      jumpi\n    tag_2:\n      0x00\n      dup1\n      revert\n        /* \"contracts/BaseContract.sol\":3293:3331  mapping(address=>Kurs) public  kurslar */\n    tag_3:\n      tag_20\n      0x04\n      dup1\n      calldatasize\n      sub\n      dup2\n      add\n      swap1\n      tag_21\n      swap2\n      swap1\n      tag_22\n      jump\t// in\n    tag_21:\n      tag_23\n      jump\t// in\n    tag_20:\n      mload(0x40)\n      tag_24\n      swap4\n      swap3\n      swap2\n      swap1\n      tag_25\n      jump\t// in\n    tag_24:\n      mload(0x40)\n      dup1\n      swap2\n      sub\n      swap1\n      return\n        /* \"contracts/KursBilgileri.sol\":1655:2643  function guncelleKursBilgi(address _kisiAddress, uint _kursBilgiId, uint basTarih, uint bitTarih, uint8 sure, string memory egitimAdi) public sadeceKurs returns(uint){\r... */\n    tag_4:\n      tag_26\n      0x04\n      dup1\n      calldatasize\n      sub\n      dup2\n      add\n      swap1\n      tag_27\n      swap2\n      swap1\n      tag_28\n      jump\t// in\n    tag_27:\n      tag_29\n      jump\t// in\n    tag_26:\n      mload(0x40)\n      tag_30\n      swap2\n      swap1\n      tag_31\n      jump\t// in\n    tag_30:\n      mload(0x40)\n      dup1\n      swap2\n      sub\n      swap1\n      return\n        /* \"contracts/BaseContract.sol\":3132:3181  mapping(address=>Universite) public universiteler */\n    tag_5:\n      tag_32\n      0x04\n      dup1\n      calldatasize\n      sub\n      dup2\n      add\n      swap1\n      tag_33\n      swap2\n      swap1\n      tag_22\n      jump\t// in\n    tag_33:\n      tag_34\n      jump\t// in\n    tag_32:\n      mload(0x40)\n      tag_35\n      swap4\n      swap3\n      swap2\n      swap1\n      tag_25\n      jump\t// in\n    tag_35:\n      mload(0x40)\n      dup1\n      swap2\n      sub\n      swap1\n      return\n        /* \"contracts/BaseContract.sol\":3436:3497  mapping(address=>SertifikaMerkezi) public sertifikaMerkezleri */\n    tag_6:\n      tag_36\n      0x04\n      dup1\n      calldatasize\n      sub\n      dup2\n      add\n      swap1\n      tag_37\n      swap2\n      swap1\n      tag_22\n      jump\t// in\n    tag_37:\n      tag_38\n      jump\t// in\n    tag_36:\n      mload(0x40)\n      tag_39\n      swap4\n      swap3\n      swap2\n      swap1\n      tag_25\n      jump\t// in\n    tag_39:\n      mload(0x40)\n      dup1\n      swap2\n      sub\n      swap1\n      return\n        /* \"contracts/BaseContract.sol\":3246:3286  mapping(address=>Firma) public  firmalar */\n    tag_7:\n      tag_40\n      0x04\n      dup1\n      calldatasize\n      sub\n      dup2\n      add\n      swap1\n      tag_41\n      swap2\n      swap1\n      tag_22\n      jump\t// in\n    tag_41:\n      tag_42\n      jump\t// in\n    tag_40:\n      mload(0x40)\n      tag_43\n      swap5\n      swap4\n      swap3\n      swap2\n      swap1\n      tag_44\n      jump\t// in\n    tag_43:\n      mload(0x40)\n      dup1\n      swap2\n      sub\n      swap1\n      return\n        /* \"contracts/KursBilgileri.sol\":782:1643  function ekleKursBilgi(address _kisiAddress,  uint basTarih, uint bitTarih, uint8 sure, string memory egitimAdi) public sadeceKurs{\r... */\n    tag_8:\n      tag_45\n      0x04\n      dup1\n      calldatasize\n      sub\n      dup2\n      add\n      swap1\n      tag_46\n      swap2\n      swap1\n      tag_47\n      jump\t// in\n    tag_46:\n      tag_48\n      jump\t// in\n    tag_45:\n      stop\n        /* \"contracts/BaseContract.sol\":3338:3387  mapping(address=>KamuKurumu) public kamuKurumlari */\n    tag_9:\n      tag_49\n      0x04\n      dup1\n      calldatasize\n      sub\n      dup2\n      add\n      swap1\n      tag_50\n      swap2\n      swap1\n      tag_22\n      jump\t// in\n    tag_50:\n      tag_51\n      jump\t// in\n    tag_49:\n      mload(0x40)\n      tag_52\n      swap4\n      swap3\n      swap2\n      swap1\n      tag_25\n      jump\t// in\n    tag_52:\n      mload(0x40)\n      dup1\n      swap2\n      sub\n      swap1\n      return\n        /* \"contracts/KursBilgileri.sol\":2647:3590  function talepEtKursBilgi(address _talepEdilenKurum,  uint basTarih, uint bitTarih, uint8 sure, string memory egitimAdi) public sadeceKurs{\r... */\n    tag_10:\n      tag_53\n      0x04\n      dup1\n      calldatasize\n      sub\n      dup2\n      add\n      swap1\n      tag_54\n      swap2\n      swap1\n      tag_47\n      jump\t// in\n    tag_54:\n      tag_55\n      jump\t// in\n    tag_53:\n      stop\n        /* \"contracts/BaseContract.sol\":3394:3429  mapping(address=>STK) public stklar */\n    tag_11:\n      tag_56\n      0x04\n      dup1\n      calldatasize\n      sub\n      dup2\n      add\n      swap1\n      tag_57\n      swap2\n      swap1\n      tag_22\n      jump\t// in\n    tag_57:\n      tag_58\n      jump\t// in\n    tag_56:\n      mload(0x40)\n      tag_59\n      swap4\n      swap3\n      swap2\n      swap1\n      tag_25\n      jump\t// in\n    tag_59:\n      mload(0x40)\n      dup1\n      swap2\n      sub\n      swap1\n      return\n        /* \"contracts/BaseContract.sol\":3505:3546  mapping(uint32=>YabanciDil) public diller */\n    tag_12:\n      tag_60\n      0x04\n      dup1\n      calldatasize\n      sub\n      dup2\n      add\n      swap1\n      tag_61\n      swap2\n      swap1\n      tag_62\n      jump\t// in\n    tag_61:\n      tag_63\n      jump\t// in\n    tag_60:\n      mload(0x40)\n      tag_64\n      swap3\n      swap2\n      swap1\n      tag_65\n      jump\t// in\n    tag_64:\n      mload(0x40)\n      dup1\n      swap2\n      sub\n      swap1\n      return\n        /* \"contracts/KursBilgileri.sol\":147:161  uint public id */\n    tag_13:\n      tag_66\n      tag_67\n      jump\t// in\n    tag_66:\n      mload(0x40)\n      tag_68\n      swap2\n      swap1\n      tag_31\n      jump\t// in\n    tag_68:\n      mload(0x40)\n      dup1\n      swap2\n      sub\n      swap1\n      return\n        /* \"contracts/BaseContract.sol\":3188:3239  mapping(address=>Akademisyen) public akademisyenler */\n    tag_14:\n      tag_69\n      0x04\n      dup1\n      calldatasize\n      sub\n      dup2\n      add\n      swap1\n      tag_70\n      swap2\n      swap1\n      tag_22\n      jump\t// in\n    tag_70:\n      tag_71\n      jump\t// in\n    tag_69:\n      mload(0x40)\n      tag_72\n      swap7\n      swap6\n      swap5\n      swap4\n      swap3\n      swap2\n      swap1\n      tag_73\n      jump\t// in\n    tag_72:\n      mload(0x40)\n      dup1\n      swap2\n      sub\n      swap1\n      return\n        /* \"contracts/BaseContract.sol\":3088:3125  mapping(address=>Kisi) public kisiler */\n    tag_15:\n      tag_74\n      0x04\n      dup1\n      calldatasize\n      sub\n      dup2\n      add\n      swap1\n      tag_75\n      swap2\n      swap1\n      tag_22\n      jump\t// in\n    tag_75:\n      tag_76\n      jump\t// in\n    tag_74:\n      mload(0x40)\n      tag_77\n      swap2\n      swap1\n      tag_78\n      jump\t// in\n    tag_77:\n      mload(0x40)\n      dup1\n      swap2\n      sub\n      swap1\n      return\n        /* \"contracts/KursBilgileri.sol\":390:456  mapping(address=>mapping(uint=>KursBilgi)) public kursBilgiListesi */\n    tag_16:\n      tag_79\n      0x04\n      dup1\n      calldatasize\n      sub\n      dup2\n      add\n      swap1\n      tag_80\n      swap2\n      swap1\n      tag_81\n      jump\t// in\n    tag_80:\n      tag_82\n      jump\t// in\n    tag_79:\n      mload(0x40)\n      tag_83\n      swap8\n      swap7\n      swap6\n      swap5\n      swap4\n      swap3\n      swap2\n      swap1\n      tag_84\n      jump\t// in\n    tag_83:\n      mload(0x40)\n      dup1\n      swap2\n      sub\n      swap1\n      return\n        /* \"contracts/BaseContract.sol\":3293:3331  mapping(address=>Kurs) public  kurslar */\n    tag_23:\n      mstore(0x20, 0x07)\n      dup1\n      0x00\n      mstore\n      keccak256(0x00, 0x40)\n      0x00\n      swap2\n      pop\n      swap1\n      pop\n      dup1\n      0x00\n      add\n      0x00\n      swap1\n      sload\n      swap1\n      0x0100\n      exp\n      swap1\n      div\n      0xff\n      and\n      swap1\n      dup1\n      0x01\n      add\n      dup1\n      sload\n      tag_85\n      swap1\n      tag_86\n      jump\t// in\n    tag_85:\n      dup1\n      0x1f\n      add\n      0x20\n      dup1\n      swap2\n      div\n      mul\n      0x20\n      add\n      mload(0x40)\n      swap1\n      dup2\n      add\n      0x40\n      mstore\n      dup1\n      swap3\n      swap2\n      swap1\n      dup2\n      dup2\n      mstore\n      0x20\n      add\n      dup3\n      dup1\n      sload\n      tag_87\n      swap1\n      tag_86\n      jump\t// in\n    tag_87:\n      dup1\n      iszero\n      tag_88\n      jumpi\n      dup1\n      0x1f\n      lt\n      tag_89\n      jumpi\n      0x0100\n      dup1\n      dup4\n      sload\n      div\n      mul\n      dup4\n      mstore\n      swap2\n      0x20\n      add\n      swap2\n      jump(tag_88)\n    tag_89:\n      dup3\n      add\n      swap2\n      swap1\n      0x00\n      mstore\n      keccak256(0x00, 0x20)\n      swap1\n    tag_90:\n      dup2\n      sload\n      dup2\n      mstore\n      swap1\n      0x01\n      add\n      swap1\n      0x20\n      add\n      dup1\n      dup4\n      gt\n      tag_90\n      jumpi\n      dup3\n      swap1\n      sub\n      0x1f\n      and\n      dup3\n      add\n      swap2\n    tag_88:\n      pop\n      pop\n      pop\n      pop\n      pop\n      swap1\n      dup1\n      0x02\n      add\n      0x00\n      swap1\n      sload\n      swap1\n      0x0100\n      exp\n      swap1\n      div\n      0xff\n      and\n      swap1\n      pop\n      dup4\n      jump\t// out\n        /* \"contracts/KursBilgileri.sol\":1655:2643  function guncelleKursBilgi(address _kisiAddress, uint _kursBilgiId, uint basTarih, uint bitTarih, uint8 sure, string memory egitimAdi) public sadeceKurs returns(uint){\r... */\n    tag_29:\n        /* \"contracts/KursBilgileri.sol\":1816:1820  uint */\n      0x00\n        /* \"contracts/BaseContract.sol\":2424:2431  kurslar */\n      0x07\n        /* \"contracts/BaseContract.sol\":2424:2443  kurslar[msg.sender] */\n      0x00\n        /* \"contracts/BaseContract.sol\":2432:2442  msg.sender */\n      caller\n        /* \"contracts/BaseContract.sol\":2424:2443  kurslar[msg.sender] */\n      0xffffffffffffffffffffffffffffffffffffffff\n      and\n      0xffffffffffffffffffffffffffffffffffffffff\n      and\n      dup2\n      mstore\n      0x20\n      add\n      swap1\n      dup2\n      mstore\n      0x20\n      add\n      0x00\n      keccak256\n        /* \"contracts/BaseContract.sol\":2424:2449  kurslar[msg.sender].durum */\n      0x00\n      add\n      0x00\n      swap1\n      sload\n      swap1\n      0x0100\n      exp\n      swap1\n      div\n      0xff\n      and\n        /* \"contracts/BaseContract.sol\":2416:2501  require(kurslar[msg.sender].durum,\r... */\n      tag_92\n      jumpi\n      mload(0x40)\n      0x08c379a000000000000000000000000000000000000000000000000000000000\n      dup2\n      mstore\n      0x04\n      add\n      tag_93\n      swap1\n      tag_94\n      jump\t// in\n    tag_93:\n      mload(0x40)\n      dup1\n      swap2\n      sub\n      swap1\n      revert\n    tag_92:\n        /* \"contracts/KursBilgileri.sol\":1848:1855  kisiler */\n      0x03\n        /* \"contracts/KursBilgileri.sol\":1848:1869  kisiler[_kisiAddress] */\n      0x00\n        /* \"contracts/KursBilgileri.sol\":1856:1868  _kisiAddress */\n      dup9\n        /* \"contracts/KursBilgileri.sol\":1848:1869  kisiler[_kisiAddress] */\n      0xffffffffffffffffffffffffffffffffffffffff\n      and\n      0xffffffffffffffffffffffffffffffffffffffff\n      and\n      dup2\n      mstore\n      0x20\n      add\n      swap1\n      dup2\n      mstore\n      0x20\n      add\n      0x00\n      keccak256\n        /* \"contracts/KursBilgileri.sol\":1848:1875  kisiler[_kisiAddress].durum */\n      0x00\n      add\n      0x00\n      swap1\n      sload\n      swap1\n      0x0100\n      exp\n      swap1\n      div\n      0xff\n      and\n        /* \"contracts/KursBilgileri.sol\":1840:1896  require(kisiler[_kisiAddress].durum,\"Kisi mevcut degil\") */\n      tag_96\n      jumpi\n      mload(0x40)\n      0x08c379a000000000000000000000000000000000000000000000000000000000\n      dup2\n      mstore\n      0x04\n      add\n      tag_97\n      swap1\n      tag_98\n      jump\t// in\n    tag_97:\n      mload(0x40)\n      dup1\n      swap2\n      sub\n      swap1\n      revert\n    tag_96:\n        /* \"contracts/KursBilgileri.sol\":1986:1994  basTarih */\n      dup5\n        /* \"contracts/KursBilgileri.sol\":1932:1948  kursBilgiListesi */\n      0x0d\n        /* \"contracts/KursBilgileri.sol\":1932:1962  kursBilgiListesi[_kisiAddress] */\n      0x00\n        /* \"contracts/KursBilgileri.sol\":1949:1961  _kisiAddress */\n      dup10\n        /* \"contracts/KursBilgileri.sol\":1932:1962  kursBilgiListesi[_kisiAddress] */\n      0xffffffffffffffffffffffffffffffffffffffff\n      and\n      0xffffffffffffffffffffffffffffffffffffffff\n      and\n      dup2\n      mstore\n      0x20\n      add\n      swap1\n      dup2\n      mstore\n      0x20\n      add\n      0x00\n      keccak256\n        /* \"contracts/KursBilgileri.sol\":1932:1976  kursBilgiListesi[_kisiAddress][_kursBilgiId] */\n      0x00\n        /* \"contracts/KursBilgileri.sol\":1963:1975  _kursBilgiId */\n      dup9\n        /* \"contracts/KursBilgileri.sol\":1932:1976  kursBilgiListesi[_kisiAddress][_kursBilgiId] */\n      dup2\n      mstore\n      0x20\n      add\n      swap1\n      dup2\n      mstore\n      0x20\n      add\n      0x00\n      keccak256\n        /* \"contracts/KursBilgileri.sol\":1932:1985  kursBilgiListesi[_kisiAddress][_kursBilgiId].basTarih */\n      0x02\n      add\n        /* \"contracts/KursBilgileri.sol\":1932:1994  kursBilgiListesi[_kisiAddress][_kursBilgiId].basTarih=basTarih */\n      dup2\n      swap1\n      sstore\n      pop\n        /* \"contracts/KursBilgileri.sol\":2064:2072  bitTarih */\n      dup4\n        /* \"contracts/KursBilgileri.sol\":2010:2026  kursBilgiListesi */\n      0x0d\n        /* \"contracts/KursBilgileri.sol\":2010:2040  kursBilgiListesi[_kisiAddress] */\n      0x00\n        /* \"contracts/KursBilgileri.sol\":2027:2039  _kisiAddress */\n      dup10\n        /* \"contracts/KursBilgileri.sol\":2010:2040  kursBilgiListesi[_kisiAddress] */\n      0xffffffffffffffffffffffffffffffffffffffff\n      and\n      0xffffffffffffffffffffffffffffffffffffffff\n      and\n      dup2\n      mstore\n      0x20\n      add\n      swap1\n      dup2\n      mstore\n      0x20\n      add\n      0x00\n      keccak256\n        /* \"contracts/KursBilgileri.sol\":2010:2054  kursBilgiListesi[_kisiAddress][_kursBilgiId] */\n      0x00\n        /* \"contracts/KursBilgileri.sol\":2041:2053  _kursBilgiId */\n      dup9\n        /* \"contracts/KursBilgileri.sol\":2010:2054  kursBilgiListesi[_kisiAddress][_kursBilgiId] */\n      dup2\n      mstore\n      0x20\n      add\n      swap1\n      dup2\n      mstore\n      0x20\n      add\n      0x00\n      keccak256\n        /* \"contracts/KursBilgileri.sol\":2010:2063  kursBilgiListesi[_kisiAddress][_kursBilgiId].bitTarih */\n      0x03\n      add\n        /* \"contracts/KursBilgileri.sol\":2010:2072  kursBilgiListesi[_kisiAddress][_kursBilgiId].bitTarih=bitTarih */\n      dup2\n      swap1\n      sstore\n      pop\n        /* \"contracts/KursBilgileri.sol\":2138:2142  sure */\n      dup3\n        /* \"contracts/KursBilgileri.sol\":2088:2104  kursBilgiListesi */\n      0x0d\n        /* \"contracts/KursBilgileri.sol\":2088:2118  kursBilgiListesi[_kisiAddress] */\n      0x00\n        /* \"contracts/KursBilgileri.sol\":2105:2117  _kisiAddress */\n      dup10\n        /* \"contracts/KursBilgileri.sol\":2088:2118  kursBilgiListesi[_kisiAddress] */\n      0xffffffffffffffffffffffffffffffffffffffff\n      and\n      0xffffffffffffffffffffffffffffffffffffffff\n      and\n      dup2\n      mstore\n      0x20\n      add\n      swap1\n      dup2\n      mstore\n      0x20\n      add\n      0x00\n      keccak256\n        /* \"contracts/KursBilgileri.sol\":2088:2132  kursBilgiListesi[_kisiAddress][_kursBilgiId] */\n      0x00\n        /* \"contracts/KursBilgileri.sol\":2119:2131  _kursBilgiId */\n      dup9\n        /* \"contracts/KursBilgileri.sol\":2088:2132  kursBilgiListesi[_kisiAddress][_kursBilgiId] */\n      dup2\n      mstore\n      0x20\n      add\n      swap1\n      dup2\n      mstore\n      0x20\n      add\n      0x00\n      keccak256\n        /* \"contracts/KursBilgileri.sol\":2088:2137  kursBilgiListesi[_kisiAddress][_kursBilgiId].sure */\n      0x04\n      add\n      0x00\n        /* \"contracts/KursBilgileri.sol\":2088:2142  kursBilgiListesi[_kisiAddress][_kursBilgiId].sure=sure */\n      0x0100\n      exp\n      dup2\n      sload\n      dup2\n      0xff\n      mul\n      not\n      and\n      swap1\n      dup4\n      0xff\n      and\n      mul\n      or\n      swap1\n      sstore\n      pop\n        /* \"contracts/KursBilgileri.sol\":2213:2222  egitimAdi */\n      dup2\n        /* \"contracts/KursBilgileri.sol\":2158:2174  kursBilgiListesi */\n      0x0d\n        /* \"contracts/KursBilgileri.sol\":2158:2188  kursBilgiListesi[_kisiAddress] */\n      0x00\n        /* \"contracts/KursBilgileri.sol\":2175:2187  _kisiAddress */\n      dup10\n        /* \"contracts/KursBilgileri.sol\":2158:2188  kursBilgiListesi[_kisiAddress] */\n      0xffffffffffffffffffffffffffffffffffffffff\n      and\n      0xffffffffffffffffffffffffffffffffffffffff\n      and\n      dup2\n      mstore\n      0x20\n      add\n      swap1\n      dup2\n      mstore\n      0x20\n      add\n      0x00\n      keccak256\n        /* \"contracts/KursBilgileri.sol\":2158:2202  kursBilgiListesi[_kisiAddress][_kursBilgiId] */\n      0x00\n        /* \"contracts/KursBilgileri.sol\":2189:2201  _kursBilgiId */\n      dup9\n        /* \"contracts/KursBilgileri.sol\":2158:2202  kursBilgiListesi[_kisiAddress][_kursBilgiId] */\n      dup2\n      mstore\n      0x20\n      add\n      swap1\n      dup2\n      mstore\n      0x20\n      add\n      0x00\n      keccak256\n        /* \"contracts/KursBilgileri.sol\":2158:2212  kursBilgiListesi[_kisiAddress][_kursBilgiId].egitimAdi */\n      0x05\n      add\n        /* \"contracts/KursBilgileri.sol\":2158:2222  kursBilgiListesi[_kisiAddress][_kursBilgiId].egitimAdi=egitimAdi */\n      swap1\n      dup1\n      mload\n      swap1\n      0x20\n      add\n      swap1\n      tag_99\n      swap3\n      swap2\n      swap1\n      tag_100\n      jump\t// in\n    tag_99:\n      pop\n        /* \"contracts/KursBilgileri.sol\":2308:2327  OnayDurum.Onaylandi */\n      0x01\n        /* \"contracts/KursBilgileri.sol\":2247:2263  kursBilgiListesi */\n      0x0d\n        /* \"contracts/KursBilgileri.sol\":2247:2277  kursBilgiListesi[_kisiAddress] */\n      0x00\n        /* \"contracts/KursBilgileri.sol\":2264:2276  _kisiAddress */\n      dup10\n        /* \"contracts/KursBilgileri.sol\":2247:2277  kursBilgiListesi[_kisiAddress] */\n      0xffffffffffffffffffffffffffffffffffffffff\n      and\n      0xffffffffffffffffffffffffffffffffffffffff\n      and\n      dup2\n      mstore\n      0x20\n      add\n      swap1\n      dup2\n      mstore\n      0x20\n      add\n      0x00\n      keccak256\n        /* \"contracts/KursBilgileri.sol\":2247:2291  kursBilgiListesi[_kisiAddress][_kursBilgiId] */\n      0x00\n        /* \"contracts/KursBilgileri.sol\":2278:2290  _kursBilgiId */\n      dup9\n        /* \"contracts/KursBilgileri.sol\":2247:2291  kursBilgiListesi[_kisiAddress][_kursBilgiId] */\n      dup2\n      mstore\n      0x20\n      add\n      swap1\n      dup2\n      mstore\n      0x20\n      add\n      0x00\n      keccak256\n        /* \"contracts/KursBilgileri.sol\":2247:2301  kursBilgiListesi[_kisiAddress][_kursBilgiId].onayBilgi */\n      0x06\n      add\n        /* \"contracts/KursBilgileri.sol\":2247:2307  kursBilgiListesi[_kisiAddress][_kursBilgiId].onayBilgi.durum */\n      0x01\n      add\n      0x14\n        /* \"contracts/KursBilgileri.sol\":2247:2327  kursBilgiListesi[_kisiAddress][_kursBilgiId].onayBilgi.durum=OnayDurum.Onaylandi */\n      0x0100\n      exp\n      dup2\n      sload\n      dup2\n      0xff\n      mul\n      not\n      and\n      swap1\n      dup4\n      0x02\n      dup2\n      gt\n      iszero\n      tag_101\n      jumpi\n      tag_102\n      tag_103\n      jump\t// in\n    tag_102:\n    tag_101:\n      mul\n      or\n      swap1\n      sstore\n      pop\n        /* \"contracts/KursBilgileri.sol\":2404:2419  block.timestamp */\n      timestamp\n        /* \"contracts/KursBilgileri.sol\":2343:2359  kursBilgiListesi */\n      0x0d\n        /* \"contracts/KursBilgileri.sol\":2343:2373  kursBilgiListesi[_kisiAddress] */\n      0x00\n        /* \"contracts/KursBilgileri.sol\":2360:2372  _kisiAddress */\n      dup10\n        /* \"contracts/KursBilgileri.sol\":2343:2373  kursBilgiListesi[_kisiAddress] */\n      0xffffffffffffffffffffffffffffffffffffffff\n      and\n      0xffffffffffffffffffffffffffffffffffffffff\n      and\n      dup2\n      mstore\n      0x20\n      add\n      swap1\n      dup2\n      mstore\n      0x20\n      add\n      0x00\n      keccak256\n        /* \"contracts/KursBilgileri.sol\":2343:2387  kursBilgiListesi[_kisiAddress][_kursBilgiId] */\n      0x00\n        /* \"contracts/KursBilgileri.sol\":2374:2386  _kursBilgiId */\n      dup9\n        /* \"contracts/KursBilgileri.sol\":2343:2387  kursBilgiListesi[_kisiAddress][_kursBilgiId] */\n      dup2\n      mstore\n      0x20\n      add\n      swap1\n      dup2\n      mstore\n      0x20\n      add\n      0x00\n      keccak256\n        /* \"contracts/KursBilgileri.sol\":2343:2397  kursBilgiListesi[_kisiAddress][_kursBilgiId].onayBilgi */\n      0x06\n      add\n        /* \"contracts/KursBilgileri.sol\":2343:2403  kursBilgiListesi[_kisiAddress][_kursBilgiId].onayBilgi.zaman */\n      0x00\n      add\n        /* \"contracts/KursBilgileri.sol\":2343:2419  kursBilgiListesi[_kisiAddress][_kursBilgiId].onayBilgi.zaman=block.timestamp */\n      dup2\n      swap1\n      sstore\n      pop\n        /* \"contracts/KursBilgileri.sol\":2496:2506  msg.sender */\n      caller\n        /* \"contracts/KursBilgileri.sol\":2435:2451  kursBilgiListesi */\n      0x0d\n        /* \"contracts/KursBilgileri.sol\":2435:2465  kursBilgiListesi[_kisiAddress] */\n      0x00\n        /* \"contracts/KursBilgileri.sol\":2452:2464  _kisiAddress */\n      dup10\n        /* \"contracts/KursBilgileri.sol\":2435:2465  kursBilgiListesi[_kisiAddress] */\n      0xffffffffffffffffffffffffffffffffffffffff\n      and\n      0xffffffffffffffffffffffffffffffffffffffff\n      and\n      dup2\n      mstore\n      0x20\n      add\n      swap1\n      dup2\n      mstore\n      0x20\n      add\n      0x00\n      keccak256\n        /* \"contracts/KursBilgileri.sol\":2435:2479  kursBilgiListesi[_kisiAddress][_kursBilgiId] */\n      0x00\n        /* \"contracts/KursBilgileri.sol\":2466:2478  _kursBilgiId */\n      dup9\n        /* \"contracts/KursBilgileri.sol\":2435:2479  kursBilgiListesi[_kisiAddress][_kursBilgiId] */\n      dup2\n      mstore\n      0x20\n      add\n      swap1\n      dup2\n      mstore\n      0x20\n      add\n      0x00\n      keccak256\n        /* \"contracts/KursBilgileri.sol\":2435:2489  kursBilgiListesi[_kisiAddress][_kursBilgiId].onayBilgi */\n      0x06\n      add\n        /* \"contracts/KursBilgileri.sol\":2435:2495  kursBilgiListesi[_kisiAddress][_kursBilgiId].onayBilgi.adres */\n      0x01\n      add\n      0x00\n        /* \"contracts/KursBilgileri.sol\":2435:2506  kursBilgiListesi[_kisiAddress][_kursBilgiId].onayBilgi.adres=msg.sender */\n      0x0100\n      exp\n      dup2\n      sload\n      dup2\n      0xffffffffffffffffffffffffffffffffffffffff\n      mul\n      not\n      and\n      swap1\n      dup4\n      0xffffffffffffffffffffffffffffffffffffffff\n      and\n      mul\n      or\n      swap1\n      sstore\n      pop\n        /* \"contracts/KursBilgileri.sol\":2530:2588  KursGuncellendiLog(_kisiAddress, basTarih, bitTarih, sure) */\n      0x5b7688c1644640dbb13a9ad41480f887d3ac1d5c306de6d9fc69e11fe7095562\n        /* \"contracts/KursBilgileri.sol\":2549:2561  _kisiAddress */\n      dup8\n        /* \"contracts/KursBilgileri.sol\":2563:2571  basTarih */\n      dup7\n        /* \"contracts/KursBilgileri.sol\":2573:2581  bitTarih */\n      dup7\n        /* \"contracts/KursBilgileri.sol\":2583:2587  sure */\n      dup7\n        /* \"contracts/KursBilgileri.sol\":2530:2588  KursGuncellendiLog(_kisiAddress, basTarih, bitTarih, sure) */\n      mload(0x40)\n      tag_104\n      swap5\n      swap4\n      swap3\n      swap2\n      swap1\n      tag_105\n      jump\t// in\n    tag_104:\n      mload(0x40)\n      dup1\n      swap2\n      sub\n      swap1\n      log1\n        /* \"contracts/KursBilgileri.sol\":2617:2629  _kursBilgiId */\n      dup6\n        /* \"contracts/KursBilgileri.sol\":2607:2629  return    _kursBilgiId */\n      swap1\n      pop\n        /* \"contracts/KursBilgileri.sol\":1655:2643  function guncelleKursBilgi(address _kisiAddress, uint _kursBilgiId, uint basTarih, uint bitTarih, uint8 sure, string memory egitimAdi) public sadeceKurs returns(uint){\r... */\n      swap7\n      swap6\n      pop\n      pop\n      pop\n      pop\n      pop\n      pop\n      jump\t// out\n        /* \"contracts/BaseContract.sol\":3132:3181  mapping(address=>Universite) public universiteler */\n    tag_34:\n      mstore(0x20, 0x04)\n      dup1\n      0x00\n      mstore\n      keccak256(0x00, 0x40)\n      0x00\n      swap2\n      pop\n      swap1\n      pop\n      dup1\n      0x00\n      add\n      0x00\n      swap1\n      sload\n      swap1\n      0x0100\n      exp\n      swap1\n      div\n      0xff\n      and\n      swap1\n      dup1\n      0x01\n      add\n      dup1\n      sload\n      tag_106\n      swap1\n      tag_86\n      jump\t// in\n    tag_106:\n      dup1\n      0x1f\n      add\n      0x20\n      dup1\n      swap2\n      div\n      mul\n      0x20\n      add\n      mload(0x40)\n      swap1\n      dup2\n      add\n      0x40\n      mstore\n      dup1\n      swap3\n      swap2\n      swap1\n      dup2\n      dup2\n      mstore\n      0x20\n      add\n      dup3\n      dup1\n      sload\n      tag_107\n      swap1\n      tag_86\n      jump\t// in\n    tag_107:\n      dup1\n      iszero\n      tag_108\n      jumpi\n      dup1\n      0x1f\n      lt\n      tag_109\n      jumpi\n      0x0100\n      dup1\n      dup4\n      sload\n      div\n      mul\n      dup4\n      mstore\n      swap2\n      0x20\n      add\n      swap2\n      jump(tag_108)\n    tag_109:\n      dup3\n      add\n      swap2\n      swap1\n      0x00\n      mstore\n      keccak256(0x00, 0x20)\n      swap1\n    tag_110:\n      dup2\n      sload\n      dup2\n      mstore\n      swap1\n      0x01\n      add\n      swap1\n      0x20\n      add\n      dup1\n      dup4\n      gt\n      tag_110\n      jumpi\n      dup3\n      swap1\n      sub\n      0x1f\n      and\n      dup3\n      add\n      swap2\n    tag_108:\n      pop\n      pop\n      pop\n      pop\n      pop\n      swap1\n      dup1\n      0x02\n      add\n      0x00\n      swap1\n      sload\n      swap1\n      0x0100\n      exp\n      swap1\n      div\n      0xff\n      and\n      swap1\n      pop\n      dup4\n      jump\t// out\n        /* \"contracts/BaseContract.sol\":3436:3497  mapping(address=>SertifikaMerkezi) public sertifikaMerkezleri */\n    tag_38:\n      mstore(0x20, 0x0a)\n      dup1\n      0x00\n      mstore\n      keccak256(0x00, 0x40)\n      0x00\n      swap2\n      pop\n      swap1\n      pop\n      dup1\n      0x00\n      add\n      0x00\n      swap1\n      sload\n      swap1\n      0x0100\n      exp\n      swap1\n      div\n      0xff\n      and\n      swap1\n      dup1\n      0x01\n      add\n      dup1\n      sload\n      tag_111\n      swap1\n      tag_86\n      jump\t// in\n    tag_111:\n      dup1\n      0x1f\n      add\n      0x20\n      dup1\n      swap2\n      div\n      mul\n      0x20\n      add\n      mload(0x40)\n      swap1\n      dup2\n      add\n      0x40\n      mstore\n      dup1\n      swap3\n      swap2\n      swap1\n      dup2\n      dup2\n      mstore\n      0x20\n      add\n      dup3\n      dup1\n      sload\n      tag_112\n      swap1\n      tag_86\n      jump\t// in\n    tag_112:\n      dup1\n      iszero\n      tag_113\n      jumpi\n      dup1\n      0x1f\n      lt\n      tag_114\n      jumpi\n      0x0100\n      dup1\n      dup4\n      sload\n      div\n      mul\n      dup4\n      mstore\n      swap2\n      0x20\n      add\n      swap2\n      jump(tag_113)\n    tag_114:\n      dup3\n      add\n      swap2\n      swap1\n      0x00\n      mstore\n      keccak256(0x00, 0x20)\n      swap1\n    tag_115:\n      dup2\n      sload\n      dup2\n      mstore\n      swap1\n      0x01\n      add\n      swap1\n      0x20\n      add\n      dup1\n      dup4\n      gt\n      tag_115\n      jumpi\n      dup3\n      swap1\n      sub\n      0x1f\n      and\n      dup3\n      add\n      swap2\n    tag_113:\n      pop\n      pop\n      pop\n      pop\n      pop\n      swap1\n      dup1\n      0x02\n      add\n      0x00\n      swap1\n      sload\n      swap1\n      0x0100\n      exp\n      swap1\n      div\n      0xff\n      and\n      swap1\n      pop\n      dup4\n      jump\t// out\n        /* \"contracts/BaseContract.sol\":3246:3286  mapping(address=>Firma) public  firmalar */\n    tag_42:\n      mstore(0x20, 0x06)\n      dup1\n      0x00\n      mstore\n      keccak256(0x00, 0x40)\n      0x00\n      swap2\n      pop\n      swap1\n      pop\n      dup1\n      0x00\n      add\n      0x00\n      swap1\n      sload\n      swap1\n      0x0100\n      exp\n      swap1\n      div\n      0xff\n      and\n      swap1\n      dup1\n      0x00\n      add\n      0x01\n      swap1\n      sload\n      swap1\n      0x0100\n      exp\n      swap1\n      div\n      0xff\n      and\n      swap1\n      dup1\n      0x01\n      add\n      sload\n      swap1\n      dup1\n      0x02\n      add\n      dup1\n      sload\n      tag_116\n      swap1\n      tag_86\n      jump\t// in\n    tag_116:\n      dup1\n      0x1f\n      add\n      0x20\n      dup1\n      swap2\n      div\n      mul\n      0x20\n      add\n      mload(0x40)\n      swap1\n      dup2\n      add\n      0x40\n      mstore\n      dup1\n      swap3\n      swap2\n      swap1\n      dup2\n      dup2\n      mstore\n      0x20\n      add\n      dup3\n      dup1\n      sload\n      tag_117\n      swap1\n      tag_86\n      jump\t// in\n    tag_117:\n      dup1\n      iszero\n      tag_118\n      jumpi\n      dup1\n      0x1f\n      lt\n      tag_119\n      jumpi\n      0x0100\n      dup1\n      dup4\n      sload\n      div\n      mul\n      dup4\n      mstore\n      swap2\n      0x20\n      add\n      swap2\n      jump(tag_118)\n    tag_119:\n      dup3\n      add\n      swap2\n      swap1\n      0x00\n      mstore\n      keccak256(0x00, 0x20)\n      swap1\n    tag_120:\n      dup2\n      sload\n      dup2\n      mstore\n      swap1\n      0x01\n      add\n      swap1\n      0x20\n      add\n      dup1\n      dup4\n      gt\n      tag_120\n      jumpi\n      dup3\n      swap1\n      sub\n      0x1f\n      and\n      dup3\n      add\n      swap2\n    tag_118:\n      pop\n      pop\n      pop\n      pop\n      pop\n      swap1\n      pop\n      dup5\n      jump\t// out\n        /* \"contracts/KursBilgileri.sol\":782:1643  function ekleKursBilgi(address _kisiAddress,  uint basTarih, uint bitTarih, uint8 sure, string memory egitimAdi) public sadeceKurs{\r... */\n    tag_48:\n        /* \"contracts/BaseContract.sol\":2424:2431  kurslar */\n      0x07\n        /* \"contracts/BaseContract.sol\":2424:2443  kurslar[msg.sender] */\n      0x00\n        /* \"contracts/BaseContract.sol\":2432:2442  msg.sender */\n      caller\n        /* \"contracts/BaseContract.sol\":2424:2443  kurslar[msg.sender] */\n      0xffffffffffffffffffffffffffffffffffffffff\n      and\n      0xffffffffffffffffffffffffffffffffffffffff\n      and\n      dup2\n      mstore\n      0x20\n      add\n      swap1\n      dup2\n      mstore\n      0x20\n      add\n      0x00\n      keccak256\n        /* \"contracts/BaseContract.sol\":2424:2449  kurslar[msg.sender].durum */\n      0x00\n      add\n      0x00\n      swap1\n      sload\n      swap1\n      0x0100\n      exp\n      swap1\n      div\n      0xff\n      and\n        /* \"contracts/BaseContract.sol\":2416:2501  require(kurslar[msg.sender].durum,\r... */\n      tag_122\n      jumpi\n      mload(0x40)\n      0x08c379a000000000000000000000000000000000000000000000000000000000\n      dup2\n      mstore\n      0x04\n      add\n      tag_123\n      swap1\n      tag_94\n      jump\t// in\n    tag_123:\n      mload(0x40)\n      dup1\n      swap2\n      sub\n      swap1\n      revert\n    tag_122:\n        /* \"contracts/KursBilgileri.sol\":936:943  kisiler */\n      0x03\n        /* \"contracts/KursBilgileri.sol\":936:957  kisiler[_kisiAddress] */\n      0x00\n        /* \"contracts/KursBilgileri.sol\":944:956  _kisiAddress */\n      dup7\n        /* \"contracts/KursBilgileri.sol\":936:957  kisiler[_kisiAddress] */\n      0xffffffffffffffffffffffffffffffffffffffff\n      and\n      0xffffffffffffffffffffffffffffffffffffffff\n      and\n      dup2\n      mstore\n      0x20\n      add\n      swap1\n      dup2\n      mstore\n      0x20\n      add\n      0x00\n      keccak256\n        /* \"contracts/KursBilgileri.sol\":936:963  kisiler[_kisiAddress].durum */\n      0x00\n      add\n      0x00\n      swap1\n      sload\n      swap1\n      0x0100\n      exp\n      swap1\n      div\n      0xff\n      and\n        /* \"contracts/KursBilgileri.sol\":928:984  require(kisiler[_kisiAddress].durum,\"Kisi mevcut degil\") */\n      tag_125\n      jumpi\n      mload(0x40)\n      0x08c379a000000000000000000000000000000000000000000000000000000000\n      dup2\n      mstore\n      0x04\n      add\n      tag_126\n      swap1\n      tag_98\n      jump\t// in\n    tag_126:\n      mload(0x40)\n      dup1\n      swap2\n      sub\n      swap1\n      revert\n    tag_125:\n        /* \"contracts/KursBilgileri.sol\":1000:1011  uint yeniId */\n      0x00\n        /* \"contracts/KursBilgileri.sol\":1012:1014  id */\n      0x0c\n      0x00\n        /* \"contracts/KursBilgileri.sol\":1012:1016  id++ */\n      dup2\n      sload\n      dup1\n      swap3\n      swap2\n      swap1\n      tag_127\n      swap1\n      tag_128\n      jump\t// in\n    tag_127:\n      swap2\n      swap1\n      pop\n      sstore\n        /* \"contracts/KursBilgileri.sol\":1000:1016  uint yeniId=id++ */\n      swap1\n      pop\n        /* \"contracts/KursBilgileri.sol\":1082:1090  basTarih */\n      dup5\n        /* \"contracts/KursBilgileri.sol\":1034:1050  kursBilgiListesi */\n      0x0d\n        /* \"contracts/KursBilgileri.sol\":1034:1064  kursBilgiListesi[_kisiAddress] */\n      0x00\n        /* \"contracts/KursBilgileri.sol\":1051:1063  _kisiAddress */\n      dup9\n        /* \"contracts/KursBilgileri.sol\":1034:1064  kursBilgiListesi[_kisiAddress] */\n      0xffffffffffffffffffffffffffffffffffffffff\n      and\n      0xffffffffffffffffffffffffffffffffffffffff\n      and\n      dup2\n      mstore\n      0x20\n      add\n      swap1\n      dup2\n      mstore\n      0x20\n      add\n      0x00\n      keccak256\n        /* \"contracts/KursBilgileri.sol\":1034:1072  kursBilgiListesi[_kisiAddress][yeniId] */\n      0x00\n        /* \"contracts/KursBilgileri.sol\":1065:1071  yeniId */\n      dup4\n        /* \"contracts/KursBilgileri.sol\":1034:1072  kursBilgiListesi[_kisiAddress][yeniId] */\n      dup2\n      mstore\n      0x20\n      add\n      swap1\n      dup2\n      mstore\n      0x20\n      add\n      0x00\n      keccak256\n        /* \"contracts/KursBilgileri.sol\":1034:1081  kursBilgiListesi[_kisiAddress][yeniId].basTarih */\n      0x02\n      add\n        /* \"contracts/KursBilgileri.sol\":1034:1090  kursBilgiListesi[_kisiAddress][yeniId].basTarih=basTarih */\n      dup2\n      swap1\n      sstore\n      pop\n        /* \"contracts/KursBilgileri.sol\":1154:1162  bitTarih */\n      dup4\n        /* \"contracts/KursBilgileri.sol\":1106:1122  kursBilgiListesi */\n      0x0d\n        /* \"contracts/KursBilgileri.sol\":1106:1136  kursBilgiListesi[_kisiAddress] */\n      0x00\n        /* \"contracts/KursBilgileri.sol\":1123:1135  _kisiAddress */\n      dup9\n        /* \"contracts/KursBilgileri.sol\":1106:1136  kursBilgiListesi[_kisiAddress] */\n      0xffffffffffffffffffffffffffffffffffffffff\n      and\n      0xffffffffffffffffffffffffffffffffffffffff\n      and\n      dup2\n      mstore\n      0x20\n      add\n      swap1\n      dup2\n      mstore\n      0x20\n      add\n      0x00\n      keccak256\n        /* \"contracts/KursBilgileri.sol\":1106:1144  kursBilgiListesi[_kisiAddress][yeniId] */\n      0x00\n        /* \"contracts/KursBilgileri.sol\":1137:1143  yeniId */\n      dup4\n        /* \"contracts/KursBilgileri.sol\":1106:1144  kursBilgiListesi[_kisiAddress][yeniId] */\n      dup2\n      mstore\n      0x20\n      add\n      swap1\n      dup2\n      mstore\n      0x20\n      add\n      0x00\n      keccak256\n        /* \"contracts/KursBilgileri.sol\":1106:1153  kursBilgiListesi[_kisiAddress][yeniId].bitTarih */\n      0x03\n      add\n        /* \"contracts/KursBilgileri.sol\":1106:1162  kursBilgiListesi[_kisiAddress][yeniId].bitTarih=bitTarih */\n      dup2\n      swap1\n      sstore\n      pop\n        /* \"contracts/KursBilgileri.sol\":1222:1226  sure */\n      dup3\n        /* \"contracts/KursBilgileri.sol\":1178:1194  kursBilgiListesi */\n      0x0d\n        /* \"contracts/KursBilgileri.sol\":1178:1208  kursBilgiListesi[_kisiAddress] */\n      0x00\n        /* \"contracts/KursBilgileri.sol\":1195:1207  _kisiAddress */\n      dup9\n        /* \"contracts/KursBilgileri.sol\":1178:1208  kursBilgiListesi[_kisiAddress] */\n      0xffffffffffffffffffffffffffffffffffffffff\n      and\n      0xffffffffffffffffffffffffffffffffffffffff\n      and\n      dup2\n      mstore\n      0x20\n      add\n      swap1\n      dup2\n      mstore\n      0x20\n      add\n      0x00\n      keccak256\n        /* \"contracts/KursBilgileri.sol\":1178:1216  kursBilgiListesi[_kisiAddress][yeniId] */\n      0x00\n        /* \"contracts/KursBilgileri.sol\":1209:1215  yeniId */\n      dup4\n        /* \"contracts/KursBilgileri.sol\":1178:1216  kursBilgiListesi[_kisiAddress][yeniId] */\n      dup2\n      mstore\n      0x20\n      add\n      swap1\n      dup2\n      mstore\n      0x20\n      add\n      0x00\n      keccak256\n        /* \"contracts/KursBilgileri.sol\":1178:1221  kursBilgiListesi[_kisiAddress][yeniId].sure */\n      0x04\n      add\n      0x00\n        /* \"contracts/KursBilgileri.sol\":1178:1226  kursBilgiListesi[_kisiAddress][yeniId].sure=sure */\n      0x0100\n      exp\n      dup2\n      sload\n      dup2\n      0xff\n      mul\n      not\n      and\n      swap1\n      dup4\n      0xff\n      and\n      mul\n      or\n      swap1\n      sstore\n      pop\n        /* \"contracts/KursBilgileri.sol\":1291:1300  egitimAdi */\n      dup2\n        /* \"contracts/KursBilgileri.sol\":1242:1258  kursBilgiListesi */\n      0x0d\n        /* \"contracts/KursBilgileri.sol\":1242:1272  kursBilgiListesi[_kisiAddress] */\n      0x00\n        /* \"contracts/KursBilgileri.sol\":1259:1271  _kisiAddress */\n      dup9\n        /* \"contracts/KursBilgileri.sol\":1242:1272  kursBilgiListesi[_kisiAddress] */\n      0xffffffffffffffffffffffffffffffffffffffff\n      and\n      0xffffffffffffffffffffffffffffffffffffffff\n      and\n      dup2\n      mstore\n      0x20\n      add\n      swap1\n      dup2\n      mstore\n      0x20\n      add\n      0x00\n      keccak256\n        /* \"contracts/KursBilgileri.sol\":1242:1280  kursBilgiListesi[_kisiAddress][yeniId] */\n      0x00\n        /* \"contracts/KursBilgileri.sol\":1273:1279  yeniId */\n      dup4\n        /* \"contracts/KursBilgileri.sol\":1242:1280  kursBilgiListesi[_kisiAddress][yeniId] */\n      dup2\n      mstore\n      0x20\n      add\n      swap1\n      dup2\n      mstore\n      0x20\n      add\n      0x00\n      keccak256\n        /* \"contracts/KursBilgileri.sol\":1242:1290  kursBilgiListesi[_kisiAddress][yeniId].egitimAdi */\n      0x05\n      add\n        /* \"contracts/KursBilgileri.sol\":1242:1300  kursBilgiListesi[_kisiAddress][yeniId].egitimAdi=egitimAdi */\n      swap1\n      dup1\n      mload\n      swap1\n      0x20\n      add\n      swap1\n      tag_129\n      swap3\n      swap2\n      swap1\n      tag_100\n      jump\t// in\n    tag_129:\n      pop\n        /* \"contracts/KursBilgileri.sol\":1371:1390  OnayDurum.Onaylandi */\n      0x01\n        /* \"contracts/KursBilgileri.sol\":1316:1332  kursBilgiListesi */\n      0x0d\n        /* \"contracts/KursBilgileri.sol\":1316:1346  kursBilgiListesi[_kisiAddress] */\n      0x00\n        /* \"contracts/KursBilgileri.sol\":1333:1345  _kisiAddress */\n      dup9\n        /* \"contracts/KursBilgileri.sol\":1316:1346  kursBilgiListesi[_kisiAddress] */\n      0xffffffffffffffffffffffffffffffffffffffff\n      and\n      0xffffffffffffffffffffffffffffffffffffffff\n      and\n      dup2\n      mstore\n      0x20\n      add\n      swap1\n      dup2\n      mstore\n      0x20\n      add\n      0x00\n      keccak256\n        /* \"contracts/KursBilgileri.sol\":1316:1354  kursBilgiListesi[_kisiAddress][yeniId] */\n      0x00\n        /* \"contracts/KursBilgileri.sol\":1347:1353  yeniId */\n      dup4\n        /* \"contracts/KursBilgileri.sol\":1316:1354  kursBilgiListesi[_kisiAddress][yeniId] */\n      dup2\n      mstore\n      0x20\n      add\n      swap1\n      dup2\n      mstore\n      0x20\n      add\n      0x00\n      keccak256\n        /* \"contracts/KursBilgileri.sol\":1316:1364  kursBilgiListesi[_kisiAddress][yeniId].onayBilgi */\n      0x06\n      add\n        /* \"contracts/KursBilgileri.sol\":1316:1370  kursBilgiListesi[_kisiAddress][yeniId].onayBilgi.durum */\n      0x01\n      add\n      0x14\n        /* \"contracts/KursBilgileri.sol\":1316:1390  kursBilgiListesi[_kisiAddress][yeniId].onayBilgi.durum=OnayDurum.Onaylandi */\n      0x0100\n      exp\n      dup2\n      sload\n      dup2\n      0xff\n      mul\n      not\n      and\n      swap1\n      dup4\n      0x02\n      dup2\n      gt\n      iszero\n      tag_130\n      jumpi\n      tag_131\n      tag_103\n      jump\t// in\n    tag_131:\n    tag_130:\n      mul\n      or\n      swap1\n      sstore\n      pop\n        /* \"contracts/KursBilgileri.sol\":1461:1476  block.timestamp */\n      timestamp\n        /* \"contracts/KursBilgileri.sol\":1406:1422  kursBilgiListesi */\n      0x0d\n        /* \"contracts/KursBilgileri.sol\":1406:1436  kursBilgiListesi[_kisiAddress] */\n      0x00\n        /* \"contracts/KursBilgileri.sol\":1423:1435  _kisiAddress */\n      dup9\n        /* \"contracts/KursBilgileri.sol\":1406:1436  kursBilgiListesi[_kisiAddress] */\n      0xffffffffffffffffffffffffffffffffffffffff\n      and\n      0xffffffffffffffffffffffffffffffffffffffff\n      and\n      dup2\n      mstore\n      0x20\n      add\n      swap1\n      dup2\n      mstore\n      0x20\n      add\n      0x00\n      keccak256\n        /* \"contracts/KursBilgileri.sol\":1406:1444  kursBilgiListesi[_kisiAddress][yeniId] */\n      0x00\n        /* \"contracts/KursBilgileri.sol\":1437:1443  yeniId */\n      dup4\n        /* \"contracts/KursBilgileri.sol\":1406:1444  kursBilgiListesi[_kisiAddress][yeniId] */\n      dup2\n      mstore\n      0x20\n      add\n      swap1\n      dup2\n      mstore\n      0x20\n      add\n      0x00\n      keccak256\n        /* \"contracts/KursBilgileri.sol\":1406:1454  kursBilgiListesi[_kisiAddress][yeniId].onayBilgi */\n      0x06\n      add\n        /* \"contracts/KursBilgileri.sol\":1406:1460  kursBilgiListesi[_kisiAddress][yeniId].onayBilgi.zaman */\n      0x00\n      add\n        /* \"contracts/KursBilgileri.sol\":1406:1476  kursBilgiListesi[_kisiAddress][yeniId].onayBilgi.zaman=block.timestamp */\n      dup2\n      swap1\n      sstore\n      pop\n        /* \"contracts/KursBilgileri.sol\":1547:1557  msg.sender */\n      caller\n        /* \"contracts/KursBilgileri.sol\":1492:1508  kursBilgiListesi */\n      0x0d\n        /* \"contracts/KursBilgileri.sol\":1492:1522  kursBilgiListesi[_kisiAddress] */\n      0x00\n        /* \"contracts/KursBilgileri.sol\":1509:1521  _kisiAddress */\n      dup9\n        /* \"contracts/KursBilgileri.sol\":1492:1522  kursBilgiListesi[_kisiAddress] */\n      0xffffffffffffffffffffffffffffffffffffffff\n      and\n      0xffffffffffffffffffffffffffffffffffffffff\n      and\n      dup2\n      mstore\n      0x20\n      add\n      swap1\n      dup2\n      mstore\n      0x20\n      add\n      0x00\n      keccak256\n        /* \"contracts/KursBilgileri.sol\":1492:1530  kursBilgiListesi[_kisiAddress][yeniId] */\n      0x00\n        /* \"contracts/KursBilgileri.sol\":1523:1529  yeniId */\n      dup4\n        /* \"contracts/KursBilgileri.sol\":1492:1530  kursBilgiListesi[_kisiAddress][yeniId] */\n      dup2\n      mstore\n      0x20\n      add\n      swap1\n      dup2\n      mstore\n      0x20\n      add\n      0x00\n      keccak256\n        /* \"contracts/KursBilgileri.sol\":1492:1540  kursBilgiListesi[_kisiAddress][yeniId].onayBilgi */\n      0x06\n      add\n        /* \"contracts/KursBilgileri.sol\":1492:1546  kursBilgiListesi[_kisiAddress][yeniId].onayBilgi.adres */\n      0x01\n      add\n      0x00\n        /* \"contracts/KursBilgileri.sol\":1492:1557  kursBilgiListesi[_kisiAddress][yeniId].onayBilgi.adres=msg.sender */\n      0x0100\n      exp\n      dup2\n      sload\n      dup2\n      0xffffffffffffffffffffffffffffffffffffffff\n      mul\n      not\n      and\n      swap1\n      dup4\n      0xffffffffffffffffffffffffffffffffffffffff\n      and\n      mul\n      or\n      swap1\n      sstore\n      pop\n        /* \"contracts/KursBilgileri.sol\":1577:1631  KursEklendiLog(_kisiAddress, basTarih, bitTarih, sure) */\n      0xceeb2cb6b3cfcd4203736ec1a776bc065e4ff58f126ddc27b185fe94e5e2ff9e\n        /* \"contracts/KursBilgileri.sol\":1592:1604  _kisiAddress */\n      dup7\n        /* \"contracts/KursBilgileri.sol\":1606:1614  basTarih */\n      dup7\n        /* \"contracts/KursBilgileri.sol\":1616:1624  bitTarih */\n      dup7\n        /* \"contracts/KursBilgileri.sol\":1626:1630  sure */\n      dup7\n        /* \"contracts/KursBilgileri.sol\":1577:1631  KursEklendiLog(_kisiAddress, basTarih, bitTarih, sure) */\n      mload(0x40)\n      tag_132\n      swap5\n      swap4\n      swap3\n      swap2\n      swap1\n      tag_105\n      jump\t// in\n    tag_132:\n      mload(0x40)\n      dup1\n      swap2\n      sub\n      swap1\n      log1\n        /* \"contracts/KursBilgileri.sol\":912:1643  {\r... */\n      pop\n        /* \"contracts/KursBilgileri.sol\":782:1643  function ekleKursBilgi(address _kisiAddress,  uint basTarih, uint bitTarih, uint8 sure, string memory egitimAdi) public sadeceKurs{\r... */\n      pop\n      pop\n      pop\n      pop\n      pop\n      jump\t// out\n        /* \"contracts/BaseContract.sol\":3338:3387  mapping(address=>KamuKurumu) public kamuKurumlari */\n    tag_51:\n      mstore(0x20, 0x08)\n      dup1\n      0x00\n      mstore\n      keccak256(0x00, 0x40)\n      0x00\n      swap2\n      pop\n      swap1\n      pop\n      dup1\n      0x00\n      add\n      0x00\n      swap1\n      sload\n      swap1\n      0x0100\n      exp\n      swap1\n      div\n      0xff\n      and\n      swap1\n      dup1\n      0x01\n      add\n      dup1\n      sload\n      tag_133\n      swap1\n      tag_86\n      jump\t// in\n    tag_133:\n      dup1\n      0x1f\n      add\n      0x20\n      dup1\n      swap2\n      div\n      mul\n      0x20\n      add\n      mload(0x40)\n      swap1\n      dup2\n      add\n      0x40\n      mstore\n      dup1\n      swap3\n      swap2\n      swap1\n      dup2\n      dup2\n      mstore\n      0x20\n      add\n      dup3\n      dup1\n      sload\n      tag_134\n      swap1\n      tag_86\n      jump\t// in\n    tag_134:\n      dup1\n      iszero\n      tag_135\n      jumpi\n      dup1\n      0x1f\n      lt\n      tag_136\n      jumpi\n      0x0100\n      dup1\n      dup4\n      sload\n      div\n      mul\n      dup4\n      mstore\n      swap2\n      0x20\n      add\n      swap2\n      jump(tag_135)\n    tag_136:\n      dup3\n      add\n      swap2\n      swap1\n      0x00\n      mstore\n      keccak256(0x00, 0x20)\n      swap1\n    tag_137:\n      dup2\n      sload\n      dup2\n      mstore\n      swap1\n      0x01\n      add\n      swap1\n      0x20\n      add\n      dup1\n      dup4\n      gt\n      tag_137\n      jumpi\n      dup3\n      swap1\n      sub\n      0x1f\n      and\n      dup3\n      add\n      swap2\n    tag_135:\n      pop\n      pop\n      pop\n      pop\n      pop\n      swap1\n      dup1\n      0x02\n      add\n      0x00\n      swap1\n      sload\n      swap1\n      0x0100\n      exp\n      swap1\n      div\n      0xff\n      and\n      swap1\n      pop\n      dup4\n      jump\t// out\n        /* \"contracts/KursBilgileri.sol\":2647:3590  function talepEtKursBilgi(address _talepEdilenKurum,  uint basTarih, uint bitTarih, uint8 sure, string memory egitimAdi) public sadeceKurs{\r... */\n    tag_55:\n        /* \"contracts/BaseContract.sol\":2424:2431  kurslar */\n      0x07\n        /* \"contracts/BaseContract.sol\":2424:2443  kurslar[msg.sender] */\n      0x00\n        /* \"contracts/BaseContract.sol\":2432:2442  msg.sender */\n      caller\n        /* \"contracts/BaseContract.sol\":2424:2443  kurslar[msg.sender] */\n      0xffffffffffffffffffffffffffffffffffffffff\n      and\n      0xffffffffffffffffffffffffffffffffffffffff\n      and\n      dup2\n      mstore\n      0x20\n      add\n      swap1\n      dup2\n      mstore\n      0x20\n      add\n      0x00\n      keccak256\n        /* \"contracts/BaseContract.sol\":2424:2449  kurslar[msg.sender].durum */\n      0x00\n      add\n      0x00\n      swap1\n      sload\n      swap1\n      0x0100\n      exp\n      swap1\n      div\n      0xff\n      and\n        /* \"contracts/BaseContract.sol\":2416:2501  require(kurslar[msg.sender].durum,\r... */\n      tag_139\n      jumpi\n      mload(0x40)\n      0x08c379a000000000000000000000000000000000000000000000000000000000\n      dup2\n      mstore\n      0x04\n      add\n      tag_140\n      swap1\n      tag_94\n      jump\t// in\n    tag_140:\n      mload(0x40)\n      dup1\n      swap2\n      sub\n      swap1\n      revert\n    tag_139:\n        /* \"contracts/KursBilgileri.sol\":2809:2816  kisiler */\n      0x03\n        /* \"contracts/KursBilgileri.sol\":2809:2828  kisiler[msg.sender] */\n      0x00\n        /* \"contracts/KursBilgileri.sol\":2817:2827  msg.sender */\n      caller\n        /* \"contracts/KursBilgileri.sol\":2809:2828  kisiler[msg.sender] */\n      0xffffffffffffffffffffffffffffffffffffffff\n      and\n      0xffffffffffffffffffffffffffffffffffffffff\n      and\n      dup2\n      mstore\n      0x20\n      add\n      swap1\n      dup2\n      mstore\n      0x20\n      add\n      0x00\n      keccak256\n        /* \"contracts/KursBilgileri.sol\":2809:2834  kisiler[msg.sender].durum */\n      0x00\n      add\n      0x00\n      swap1\n      sload\n      swap1\n      0x0100\n      exp\n      swap1\n      div\n      0xff\n      and\n        /* \"contracts/KursBilgileri.sol\":2801:2855  require(kisiler[msg.sender].durum,\"Kisi mevcut degil\") */\n      tag_142\n      jumpi\n      mload(0x40)\n      0x08c379a000000000000000000000000000000000000000000000000000000000\n      dup2\n      mstore\n      0x04\n      add\n      tag_143\n      swap1\n      tag_98\n      jump\t// in\n    tag_143:\n      mload(0x40)\n      dup1\n      swap2\n      sub\n      swap1\n      revert\n    tag_142:\n        /* \"contracts/KursBilgileri.sol\":2871:2882  uint yeniId */\n      0x00\n        /* \"contracts/KursBilgileri.sol\":2883:2885  id */\n      0x0c\n      0x00\n        /* \"contracts/KursBilgileri.sol\":2883:2887  id++ */\n      dup2\n      sload\n      dup1\n      swap3\n      swap2\n      swap1\n      tag_144\n      swap1\n      tag_128\n      jump\t// in\n    tag_144:\n      swap2\n      swap1\n      pop\n      sstore\n        /* \"contracts/KursBilgileri.sol\":2871:2887  uint yeniId=id++ */\n      swap1\n      pop\n        /* \"contracts/KursBilgileri.sol\":2957:2974  _talepEdilenKurum */\n      dup6\n        /* \"contracts/KursBilgileri.sol\":2903:2919  kursBilgiListesi */\n      0x0d\n        /* \"contracts/KursBilgileri.sol\":2903:2931  kursBilgiListesi[msg.sender] */\n      0x00\n        /* \"contracts/KursBilgileri.sol\":2920:2930  msg.sender */\n      caller\n        /* \"contracts/KursBilgileri.sol\":2903:2931  kursBilgiListesi[msg.sender] */\n      0xffffffffffffffffffffffffffffffffffffffff\n      and\n      0xffffffffffffffffffffffffffffffffffffffff\n      and\n      dup2\n      mstore\n      0x20\n      add\n      swap1\n      dup2\n      mstore\n      0x20\n      add\n      0x00\n      keccak256\n        /* \"contracts/KursBilgileri.sol\":2903:2939  kursBilgiListesi[msg.sender][yeniId] */\n      0x00\n        /* \"contracts/KursBilgileri.sol\":2932:2938  yeniId */\n      dup4\n        /* \"contracts/KursBilgileri.sol\":2903:2939  kursBilgiListesi[msg.sender][yeniId] */\n      dup2\n      mstore\n      0x20\n      add\n      swap1\n      dup2\n      mstore\n      0x20\n      add\n      0x00\n      keccak256\n        /* \"contracts/KursBilgileri.sol\":2903:2956  kursBilgiListesi[msg.sender][yeniId].talepEdilenKurum */\n      0x01\n      add\n      0x00\n        /* \"contracts/KursBilgileri.sol\":2903:2974  kursBilgiListesi[msg.sender][yeniId].talepEdilenKurum=_talepEdilenKurum */\n      0x0100\n      exp\n      dup2\n      sload\n      dup2\n      0xffffffffffffffffffffffffffffffffffffffff\n      mul\n      not\n      and\n      swap1\n      dup4\n      0xffffffffffffffffffffffffffffffffffffffff\n      and\n      mul\n      or\n      swap1\n      sstore\n      pop\n        /* \"contracts/KursBilgileri.sol\":3036:3044  basTarih */\n      dup5\n        /* \"contracts/KursBilgileri.sol\":2990:3006  kursBilgiListesi */\n      0x0d\n        /* \"contracts/KursBilgileri.sol\":2990:3018  kursBilgiListesi[msg.sender] */\n      0x00\n        /* \"contracts/KursBilgileri.sol\":3007:3017  msg.sender */\n      caller\n        /* \"contracts/KursBilgileri.sol\":2990:3018  kursBilgiListesi[msg.sender] */\n      0xffffffffffffffffffffffffffffffffffffffff\n      and\n      0xffffffffffffffffffffffffffffffffffffffff\n      and\n      dup2\n      mstore\n      0x20\n      add\n      swap1\n      dup2\n      mstore\n      0x20\n      add\n      0x00\n      keccak256\n        /* \"contracts/KursBilgileri.sol\":2990:3026  kursBilgiListesi[msg.sender][yeniId] */\n      0x00\n        /* \"contracts/KursBilgileri.sol\":3019:3025  yeniId */\n      dup4\n        /* \"contracts/KursBilgileri.sol\":2990:3026  kursBilgiListesi[msg.sender][yeniId] */\n      dup2\n      mstore\n      0x20\n      add\n      swap1\n      dup2\n      mstore\n      0x20\n      add\n      0x00\n      keccak256\n        /* \"contracts/KursBilgileri.sol\":2990:3035  kursBilgiListesi[msg.sender][yeniId].basTarih */\n      0x02\n      add\n        /* \"contracts/KursBilgileri.sol\":2990:3044  kursBilgiListesi[msg.sender][yeniId].basTarih=basTarih */\n      dup2\n      swap1\n      sstore\n      pop\n        /* \"contracts/KursBilgileri.sol\":3106:3114  bitTarih */\n      dup4\n        /* \"contracts/KursBilgileri.sol\":3060:3076  kursBilgiListesi */\n      0x0d\n        /* \"contracts/KursBilgileri.sol\":3060:3088  kursBilgiListesi[msg.sender] */\n      0x00\n        /* \"contracts/KursBilgileri.sol\":3077:3087  msg.sender */\n      caller\n        /* \"contracts/KursBilgileri.sol\":3060:3088  kursBilgiListesi[msg.sender] */\n      0xffffffffffffffffffffffffffffffffffffffff\n      and\n      0xffffffffffffffffffffffffffffffffffffffff\n      and\n      dup2\n      mstore\n      0x20\n      add\n      swap1\n      dup2\n      mstore\n      0x20\n      add\n      0x00\n      keccak256\n        /* \"contracts/KursBilgileri.sol\":3060:3096  kursBilgiListesi[msg.sender][yeniId] */\n      0x00\n        /* \"contracts/KursBilgileri.sol\":3089:3095  yeniId */\n      dup4\n        /* \"contracts/KursBilgileri.sol\":3060:3096  kursBilgiListesi[msg.sender][yeniId] */\n      dup2\n      mstore\n      0x20\n      add\n      swap1\n      dup2\n      mstore\n      0x20\n      add\n      0x00\n      keccak256\n        /* \"contracts/KursBilgileri.sol\":3060:3105  kursBilgiListesi[msg.sender][yeniId].bitTarih */\n      0x03\n      add\n        /* \"contracts/KursBilgileri.sol\":3060:3114  kursBilgiListesi[msg.sender][yeniId].bitTarih=bitTarih */\n      dup2\n      swap1\n      sstore\n      pop\n        /* \"contracts/KursBilgileri.sol\":3172:3176  sure */\n      dup3\n        /* \"contracts/KursBilgileri.sol\":3130:3146  kursBilgiListesi */\n      0x0d\n        /* \"contracts/KursBilgileri.sol\":3130:3158  kursBilgiListesi[msg.sender] */\n      0x00\n        /* \"contracts/KursBilgileri.sol\":3147:3157  msg.sender */\n      caller\n        /* \"contracts/KursBilgileri.sol\":3130:3158  kursBilgiListesi[msg.sender] */\n      0xffffffffffffffffffffffffffffffffffffffff\n      and\n      0xffffffffffffffffffffffffffffffffffffffff\n      and\n      dup2\n      mstore\n      0x20\n      add\n      swap1\n      dup2\n      mstore\n      0x20\n      add\n      0x00\n      keccak256\n        /* \"contracts/KursBilgileri.sol\":3130:3166  kursBilgiListesi[msg.sender][yeniId] */\n      0x00\n        /* \"contracts/KursBilgileri.sol\":3159:3165  yeniId */\n      dup4\n        /* \"contracts/KursBilgileri.sol\":3130:3166  kursBilgiListesi[msg.sender][yeniId] */\n      dup2\n      mstore\n      0x20\n      add\n      swap1\n      dup2\n      mstore\n      0x20\n      add\n      0x00\n      keccak256\n        /* \"contracts/KursBilgileri.sol\":3130:3171  kursBilgiListesi[msg.sender][yeniId].sure */\n      0x04\n      add\n      0x00\n        /* \"contracts/KursBilgileri.sol\":3130:3176  kursBilgiListesi[msg.sender][yeniId].sure=sure */\n      0x0100\n      exp\n      dup2\n      sload\n      dup2\n      0xff\n      mul\n      not\n      and\n      swap1\n      dup4\n      0xff\n      and\n      mul\n      or\n      swap1\n      sstore\n      pop\n        /* \"contracts/KursBilgileri.sol\":3239:3248  egitimAdi */\n      dup2\n        /* \"contracts/KursBilgileri.sol\":3192:3208  kursBilgiListesi */\n      0x0d\n        /* \"contracts/KursBilgileri.sol\":3192:3220  kursBilgiListesi[msg.sender] */\n      0x00\n        /* \"contracts/KursBilgileri.sol\":3209:3219  msg.sender */\n      caller\n        /* \"contracts/KursBilgileri.sol\":3192:3220  kursBilgiListesi[msg.sender] */\n      0xffffffffffffffffffffffffffffffffffffffff\n      and\n      0xffffffffffffffffffffffffffffffffffffffff\n      and\n      dup2\n      mstore\n      0x20\n      add\n      swap1\n      dup2\n      mstore\n      0x20\n      add\n      0x00\n      keccak256\n        /* \"contracts/KursBilgileri.sol\":3192:3228  kursBilgiListesi[msg.sender][yeniId] */\n      0x00\n        /* \"contracts/KursBilgileri.sol\":3221:3227  yeniId */\n      dup4\n        /* \"contracts/KursBilgileri.sol\":3192:3228  kursBilgiListesi[msg.sender][yeniId] */\n      dup2\n      mstore\n      0x20\n      add\n      swap1\n      dup2\n      mstore\n      0x20\n      add\n      0x00\n      keccak256\n        /* \"contracts/KursBilgileri.sol\":3192:3238  kursBilgiListesi[msg.sender][yeniId].egitimAdi */\n      0x05\n      add\n        /* \"contracts/KursBilgileri.sol\":3192:3248  kursBilgiListesi[msg.sender][yeniId].egitimAdi=egitimAdi */\n      swap1\n      dup1\n      mload\n      swap1\n      0x20\n      add\n      swap1\n      tag_145\n      swap3\n      swap2\n      swap1\n      tag_100\n      jump\t// in\n    tag_145:\n      pop\n        /* \"contracts/KursBilgileri.sol\":3317:3336  OnayDurum.Onaylandi */\n      0x01\n        /* \"contracts/KursBilgileri.sol\":3264:3280  kursBilgiListesi */\n      0x0d\n        /* \"contracts/KursBilgileri.sol\":3264:3292  kursBilgiListesi[msg.sender] */\n      0x00\n        /* \"contracts/KursBilgileri.sol\":3281:3291  msg.sender */\n      caller\n        /* \"contracts/KursBilgileri.sol\":3264:3292  kursBilgiListesi[msg.sender] */\n      0xffffffffffffffffffffffffffffffffffffffff\n      and\n      0xffffffffffffffffffffffffffffffffffffffff\n      and\n      dup2\n      mstore\n      0x20\n      add\n      swap1\n      dup2\n      mstore\n      0x20\n      add\n      0x00\n      keccak256\n        /* \"contracts/KursBilgileri.sol\":3264:3300  kursBilgiListesi[msg.sender][yeniId] */\n      0x00\n        /* \"contracts/KursBilgileri.sol\":3293:3299  yeniId */\n      dup4\n        /* \"contracts/KursBilgileri.sol\":3264:3300  kursBilgiListesi[msg.sender][yeniId] */\n      dup2\n      mstore\n      0x20\n      add\n      swap1\n      dup2\n      mstore\n      0x20\n      add\n      0x00\n      keccak256\n        /* \"contracts/KursBilgileri.sol\":3264:3310  kursBilgiListesi[msg.sender][yeniId].onayBilgi */\n      0x06\n      add\n        /* \"contracts/KursBilgileri.sol\":3264:3316  kursBilgiListesi[msg.sender][yeniId].onayBilgi.durum */\n      0x01\n      add\n      0x14\n        /* \"contracts/KursBilgileri.sol\":3264:3336  kursBilgiListesi[msg.sender][yeniId].onayBilgi.durum=OnayDurum.Onaylandi */\n      0x0100\n      exp\n      dup2\n      sload\n      dup2\n      0xff\n      mul\n      not\n      and\n      swap1\n      dup4\n      0x02\n      dup2\n      gt\n      iszero\n      tag_146\n      jumpi\n      tag_147\n      tag_103\n      jump\t// in\n    tag_147:\n    tag_146:\n      mul\n      or\n      swap1\n      sstore\n      pop\n        /* \"contracts/KursBilgileri.sol\":3405:3420  block.timestamp */\n      timestamp\n        /* \"contracts/KursBilgileri.sol\":3352:3368  kursBilgiListesi */\n      0x0d\n        /* \"contracts/KursBilgileri.sol\":3352:3380  kursBilgiListesi[msg.sender] */\n      0x00\n        /* \"contracts/KursBilgileri.sol\":3369:3379  msg.sender */\n      caller\n        /* \"contracts/KursBilgileri.sol\":3352:3380  kursBilgiListesi[msg.sender] */\n      0xffffffffffffffffffffffffffffffffffffffff\n      and\n      0xffffffffffffffffffffffffffffffffffffffff\n      and\n      dup2\n      mstore\n      0x20\n      add\n      swap1\n      dup2\n      mstore\n      0x20\n      add\n      0x00\n      keccak256\n        /* \"contracts/KursBilgileri.sol\":3352:3388  kursBilgiListesi[msg.sender][yeniId] */\n      0x00\n        /* \"contracts/KursBilgileri.sol\":3381:3387  yeniId */\n      dup4\n        /* \"contracts/KursBilgileri.sol\":3352:3388  kursBilgiListesi[msg.sender][yeniId] */\n      dup2\n      mstore\n      0x20\n      add\n      swap1\n      dup2\n      mstore\n      0x20\n      add\n      0x00\n      keccak256\n        /* \"contracts/KursBilgileri.sol\":3352:3398  kursBilgiListesi[msg.sender][yeniId].onayBilgi */\n      0x06\n      add\n        /* \"contracts/KursBilgileri.sol\":3352:3404  kursBilgiListesi[msg.sender][yeniId].onayBilgi.zaman */\n      0x00\n      add\n        /* \"contracts/KursBilgileri.sol\":3352:3420  kursBilgiListesi[msg.sender][yeniId].onayBilgi.zaman=block.timestamp */\n      dup2\n      swap1\n      sstore\n      pop\n        /* \"contracts/KursBilgileri.sol\":3489:3499  msg.sender */\n      caller\n        /* \"contracts/KursBilgileri.sol\":3436:3452  kursBilgiListesi */\n      0x0d\n        /* \"contracts/KursBilgileri.sol\":3436:3464  kursBilgiListesi[msg.sender] */\n      0x00\n        /* \"contracts/KursBilgileri.sol\":3453:3463  msg.sender */\n      caller\n        /* \"contracts/KursBilgileri.sol\":3436:3464  kursBilgiListesi[msg.sender] */\n      0xffffffffffffffffffffffffffffffffffffffff\n      and\n      0xffffffffffffffffffffffffffffffffffffffff\n      and\n      dup2\n      mstore\n      0x20\n      add\n      swap1\n      dup2\n      mstore\n      0x20\n      add\n      0x00\n      keccak256\n        /* \"contracts/KursBilgileri.sol\":3436:3472  kursBilgiListesi[msg.sender][yeniId] */\n      0x00\n        /* \"contracts/KursBilgileri.sol\":3465:3471  yeniId */\n      dup4\n        /* \"contracts/KursBilgileri.sol\":3436:3472  kursBilgiListesi[msg.sender][yeniId] */\n      dup2\n      mstore\n      0x20\n      add\n      swap1\n      dup2\n      mstore\n      0x20\n      add\n      0x00\n      keccak256\n        /* \"contracts/KursBilgileri.sol\":3436:3482  kursBilgiListesi[msg.sender][yeniId].onayBilgi */\n      0x06\n      add\n        /* \"contracts/KursBilgileri.sol\":3436:3488  kursBilgiListesi[msg.sender][yeniId].onayBilgi.adres */\n      0x01\n      add\n      0x00\n        /* \"contracts/KursBilgileri.sol\":3436:3499  kursBilgiListesi[msg.sender][yeniId].onayBilgi.adres=msg.sender */\n      0x0100\n      exp\n      dup2\n      sload\n      dup2\n      0xffffffffffffffffffffffffffffffffffffffff\n      mul\n      not\n      and\n      swap1\n      dup4\n      0xffffffffffffffffffffffffffffffffffffffff\n      and\n      mul\n      or\n      swap1\n      sstore\n      pop\n        /* \"contracts/KursBilgileri.sol\":3519:3578  KursEklendiLog(_talepEdilenKurum, basTarih, bitTarih, sure) */\n      0xceeb2cb6b3cfcd4203736ec1a776bc065e4ff58f126ddc27b185fe94e5e2ff9e\n        /* \"contracts/KursBilgileri.sol\":3534:3551  _talepEdilenKurum */\n      dup7\n        /* \"contracts/KursBilgileri.sol\":3553:3561  basTarih */\n      dup7\n        /* \"contracts/KursBilgileri.sol\":3563:3571  bitTarih */\n      dup7\n        /* \"contracts/KursBilgileri.sol\":3573:3577  sure */\n      dup7\n        /* \"contracts/KursBilgileri.sol\":3519:3578  KursEklendiLog(_talepEdilenKurum, basTarih, bitTarih, sure) */\n      mload(0x40)\n      tag_148\n      swap5\n      swap4\n      swap3\n      swap2\n      swap1\n      tag_105\n      jump\t// in\n    tag_148:\n      mload(0x40)\n      dup1\n      swap2\n      sub\n      swap1\n      log1\n        /* \"contracts/KursBilgileri.sol\":2785:3590  {\r... */\n      pop\n        /* \"contracts/KursBilgileri.sol\":2647:3590  function talepEtKursBilgi(address _talepEdilenKurum,  uint basTarih, uint bitTarih, uint8 sure, string memory egitimAdi) public sadeceKurs{\r... */\n      pop\n      pop\n      pop\n      pop\n      pop\n      jump\t// out\n        /* \"contracts/BaseContract.sol\":3394:3429  mapping(address=>STK) public stklar */\n    tag_58:\n      mstore(0x20, 0x09)\n      dup1\n      0x00\n      mstore\n      keccak256(0x00, 0x40)\n      0x00\n      swap2\n      pop\n      swap1\n      pop\n      dup1\n      0x00\n      add\n      0x00\n      swap1\n      sload\n      swap1\n      0x0100\n      exp\n      swap1\n      div\n      0xff\n      and\n      swap1\n      dup1\n      0x01\n      add\n      dup1\n      sload\n      tag_149\n      swap1\n      tag_86\n      jump\t// in\n    tag_149:\n      dup1\n      0x1f\n      add\n      0x20\n      dup1\n      swap2\n      div\n      mul\n      0x20\n      add\n      mload(0x40)\n      swap1\n      dup2\n      add\n      0x40\n      mstore\n      dup1\n      swap3\n      swap2\n      swap1\n      dup2\n      dup2\n      mstore\n      0x20\n      add\n      dup3\n      dup1\n      sload\n      tag_150\n      swap1\n      tag_86\n      jump\t// in\n    tag_150:\n      dup1\n      iszero\n      tag_151\n      jumpi\n      dup1\n      0x1f\n      lt\n      tag_152\n      jumpi\n      0x0100\n      dup1\n      dup4\n      sload\n      div\n      mul\n      dup4\n      mstore\n      swap2\n      0x20\n      add\n      swap2\n      jump(tag_151)\n    tag_152:\n      dup3\n      add\n      swap2\n      swap1\n      0x00\n      mstore\n      keccak256(0x00, 0x20)\n      swap1\n    tag_153:\n      dup2\n      sload\n      dup2\n      mstore\n      swap1\n      0x01\n      add\n      swap1\n      0x20\n      add\n      dup1\n      dup4\n      gt\n      tag_153\n      jumpi\n      dup3\n      swap1\n      sub\n      0x1f\n      and\n      dup3\n      add\n      swap2\n    tag_151:\n      pop\n      pop\n      pop\n      pop\n      pop\n      swap1\n      dup1\n      0x02\n      add\n      0x00\n      swap1\n      sload\n      swap1\n      0x0100\n      exp\n      swap1\n      div\n      0xff\n      and\n      swap1\n      pop\n      dup4\n      jump\t// out\n        /* \"contracts/BaseContract.sol\":3505:3546  mapping(uint32=>YabanciDil) public diller */\n    tag_63:\n      mstore(0x20, 0x0b)\n      dup1\n      0x00\n      mstore\n      keccak256(0x00, 0x40)\n      0x00\n      swap2\n      pop\n      swap1\n      pop\n      dup1\n      0x00\n      add\n      0x00\n      swap1\n      sload\n      swap1\n      0x0100\n      exp\n      swap1\n      div\n      0xffffffff\n      and\n      swap1\n      dup1\n      0x01\n      add\n      dup1\n      sload\n      tag_154\n      swap1\n      tag_86\n      jump\t// in\n    tag_154:\n      dup1\n      0x1f\n      add\n      0x20\n      dup1\n      swap2\n      div\n      mul\n      0x20\n      add\n      mload(0x40)\n      swap1\n      dup2\n      add\n      0x40\n      mstore\n      dup1\n      swap3\n      swap2\n      swap1\n      dup2\n      dup2\n      mstore\n      0x20\n      add\n      dup3\n      dup1\n      sload\n      tag_155\n      swap1\n      tag_86\n      jump\t// in\n    tag_155:\n      dup1\n      iszero\n      tag_156\n      jumpi\n      dup1\n      0x1f\n      lt\n      tag_157\n      jumpi\n      0x0100\n      dup1\n      dup4\n      sload\n      div\n      mul\n      dup4\n      mstore\n      swap2\n      0x20\n      add\n      swap2\n      jump(tag_156)\n    tag_157:\n      dup3\n      add\n      swap2\n      swap1\n      0x00\n      mstore\n      keccak256(0x00, 0x20)\n      swap1\n    tag_158:\n      dup2\n      sload\n      dup2\n      mstore\n      swap1\n      0x01\n      add\n      swap1\n      0x20\n      add\n      dup1\n      dup4\n      gt\n      tag_158\n      jumpi\n      dup3\n      swap1\n      sub\n      0x1f\n      and\n      dup3\n      add\n      swap2\n    tag_156:\n      pop\n      pop\n      pop\n      pop\n      pop\n      swap1\n      pop\n      dup3\n      jump\t// out\n        /* \"contracts/KursBilgileri.sol\":147:161  uint public id */\n    tag_67:\n      sload(0x0c)\n      dup2\n      jump\t// out\n        /* \"contracts/BaseContract.sol\":3188:3239  mapping(address=>Akademisyen) public akademisyenler */\n    tag_71:\n      mstore(0x20, 0x05)\n      dup1\n      0x00\n      mstore\n      keccak256(0x00, 0x40)\n      0x00\n      swap2\n      pop\n      swap1\n      pop\n      dup1\n      0x00\n      add\n      0x00\n      swap1\n      sload\n      swap1\n      0x0100\n      exp\n      swap1\n      div\n      0xff\n      and\n      swap1\n      dup1\n      0x00\n      add\n      0x01\n      swap1\n      sload\n      swap1\n      0x0100\n      exp\n      swap1\n      div\n      0xffffffffffffffffffffffffffffffffffffffff\n      and\n      swap1\n      dup1\n      0x00\n      add\n      0x15\n      swap1\n      sload\n      swap1\n      0x0100\n      exp\n      swap1\n      div\n      0xffff\n      and\n      swap1\n      dup1\n      0x00\n      add\n      0x17\n      swap1\n      sload\n      swap1\n      0x0100\n      exp\n      swap1\n      div\n      0xff\n      and\n      swap1\n      dup1\n      0x01\n      add\n      dup1\n      sload\n      tag_159\n      swap1\n      tag_86\n      jump\t// in\n    tag_159:\n      dup1\n      0x1f\n      add\n      0x20\n      dup1\n      swap2\n      div\n      mul\n      0x20\n      add\n      mload(0x40)\n      swap1\n      dup2\n      add\n      0x40\n      mstore\n      dup1\n      swap3\n      swap2\n      swap1\n      dup2\n      dup2\n      mstore\n      0x20\n      add\n      dup3\n      dup1\n      sload\n      tag_160\n      swap1\n      tag_86\n      jump\t// in\n    tag_160:\n      dup1\n      iszero\n      tag_161\n      jumpi\n      dup1\n      0x1f\n      lt\n      tag_162\n      jumpi\n      0x0100\n      dup1\n      dup4\n      sload\n      div\n      mul\n      dup4\n      mstore\n      swap2\n      0x20\n      add\n      swap2\n      jump(tag_161)\n    tag_162:\n      dup3\n      add\n      swap2\n      swap1\n      0x00\n      mstore\n      keccak256(0x00, 0x20)\n      swap1\n    tag_163:\n      dup2\n      sload\n      dup2\n      mstore\n      swap1\n      0x01\n      add\n      swap1\n      0x20\n      add\n      dup1\n      dup4\n      gt\n      tag_163\n      jumpi\n      dup3\n      swap1\n      sub\n      0x1f\n      and\n      dup3\n      add\n      swap2\n    tag_161:\n      pop\n      pop\n      pop\n      pop\n      pop\n      swap1\n      dup1\n      0x02\n      add\n      dup1\n      sload\n      tag_164\n      swap1\n      tag_86\n      jump\t// in\n    tag_164:\n      dup1\n      0x1f\n      add\n      0x20\n      dup1\n      swap2\n      div\n      mul\n      0x20\n      add\n      mload(0x40)\n      swap1\n      dup2\n      add\n      0x40\n      mstore\n      dup1\n      swap3\n      swap2\n      swap1\n      dup2\n      dup2\n      mstore\n      0x20\n      add\n      dup3\n      dup1\n      sload\n      tag_165\n      swap1\n      tag_86\n      jump\t// in\n    tag_165:\n      dup1\n      iszero\n      tag_166\n      jumpi\n      dup1\n      0x1f\n      lt\n      tag_167\n      jumpi\n      0x0100\n      dup1\n      dup4\n      sload\n      div\n      mul\n      dup4\n      mstore\n      swap2\n      0x20\n      add\n      swap2\n      jump(tag_166)\n    tag_167:\n      dup3\n      add\n      swap2\n      swap1\n      0x00\n      mstore\n      keccak256(0x00, 0x20)\n      swap1\n    tag_168:\n      dup2\n      sload\n      dup2\n      mstore\n      swap1\n      0x01\n      add\n      swap1\n      0x20\n      add\n      dup1\n      dup4\n      gt\n      tag_168\n      jumpi\n      dup3\n      swap1\n      sub\n      0x1f\n      and\n      dup3\n      add\n      swap2\n    tag_166:\n      pop\n      pop\n      pop\n      pop\n      pop\n      swap1\n      pop\n      dup7\n      jump\t// out\n        /* \"contracts/BaseContract.sol\":3088:3125  mapping(address=>Kisi) public kisiler */\n    tag_76:\n      mstore(0x20, 0x03)\n      dup1\n      0x00\n      mstore\n      keccak256(0x00, 0x40)\n      0x00\n      swap2\n      pop\n      swap1\n      pop\n      dup1\n      0x00\n      add\n      0x00\n      swap1\n      sload\n      swap1\n      0x0100\n      exp\n      swap1\n      div\n      0xff\n      and\n      swap1\n      pop\n      dup2\n      jump\t// out\n        /* \"contracts/KursBilgileri.sol\":390:456  mapping(address=>mapping(uint=>KursBilgi)) public kursBilgiListesi */\n    tag_82:\n      mstore(0x20, 0x0d)\n      dup2\n      0x00\n      mstore\n      mstore(0x20, keccak256(0x00, 0x40))\n      dup1\n      0x00\n      mstore\n      keccak256(0x00, 0x40)\n      0x00\n      swap2\n      pop\n      swap2\n      pop\n      pop\n      dup1\n      0x00\n      add\n      sload\n      swap1\n      dup1\n      0x01\n      add\n      0x00\n      swap1\n      sload\n      swap1\n      0x0100\n      exp\n      swap1\n      div\n      0xffffffffffffffffffffffffffffffffffffffff\n      and\n      swap1\n      dup1\n      0x02\n      add\n      sload\n      swap1\n      dup1\n      0x03\n      add\n      sload\n      swap1\n      dup1\n      0x04\n      add\n      0x00\n      swap1\n      sload\n      swap1\n      0x0100\n      exp\n      swap1\n      div\n      0xff\n      and\n      swap1\n      dup1\n      0x05\n      add\n      dup1\n      sload\n      tag_169\n      swap1\n      tag_86\n      jump\t// in\n    tag_169:\n      dup1\n      0x1f\n      add\n      0x20\n      dup1\n      swap2\n      div\n      mul\n      0x20\n      add\n      mload(0x40)\n      swap1\n      dup2\n      add\n      0x40\n      mstore\n      dup1\n      swap3\n      swap2\n      swap1\n      dup2\n      dup2\n      mstore\n      0x20\n      add\n      dup3\n      dup1\n      sload\n      tag_170\n      swap1\n      tag_86\n      jump\t// in\n    tag_170:\n      dup1\n      iszero\n      tag_171\n      jumpi\n      dup1\n      0x1f\n      lt\n      tag_172\n      jumpi\n      0x0100\n      dup1\n      dup4\n      sload\n      div\n      mul\n      dup4\n      mstore\n      swap2\n      0x20\n      add\n      swap2\n      jump(tag_171)\n    tag_172:\n      dup3\n      add\n      swap2\n      swap1\n      0x00\n      mstore\n      keccak256(0x00, 0x20)\n      swap1\n    tag_173:\n      dup2\n      sload\n      dup2\n      mstore\n      swap1\n      0x01\n      add\n      swap1\n      0x20\n      add\n      dup1\n      dup4\n      gt\n      tag_173\n      jumpi\n      dup3\n      swap1\n      sub\n      0x1f\n      and\n      dup3\n      add\n      swap2\n    tag_171:\n      pop\n      pop\n      pop\n      pop\n      pop\n      swap1\n      dup1\n      0x06\n      add\n      mload(0x40)\n      dup1\n      0x60\n      add\n      0x40\n      mstore\n      swap1\n      dup2\n      0x00\n      dup3\n      add\n      sload\n      dup2\n      mstore\n      0x20\n      add\n      0x01\n      dup3\n      add\n      0x00\n      swap1\n      sload\n      swap1\n      0x0100\n      exp\n      swap1\n      div\n      0xffffffffffffffffffffffffffffffffffffffff\n      and\n      0xffffffffffffffffffffffffffffffffffffffff\n      and\n      0xffffffffffffffffffffffffffffffffffffffff\n      and\n      dup2\n      mstore\n      0x20\n      add\n      0x01\n      dup3\n      add\n      0x14\n      swap1\n      sload\n      swap1\n      0x0100\n      exp\n      swap1\n      div\n      0xff\n      and\n      0x02\n      dup2\n      gt\n      iszero\n      tag_174\n      jumpi\n      tag_175\n      tag_103\n      jump\t// in\n    tag_175:\n    tag_174:\n      0x02\n      dup2\n      gt\n      iszero\n      tag_176\n      jumpi\n      tag_177\n      tag_103\n      jump\t// in\n    tag_177:\n    tag_176:\n      dup2\n      mstore\n      pop\n      pop\n      swap1\n      pop\n      dup8\n      jump\t// out\n    tag_100:\n      dup3\n      dup1\n      sload\n      tag_178\n      swap1\n      tag_86\n      jump\t// in\n    tag_178:\n      swap1\n      0x00\n      mstore\n      keccak256(0x00, 0x20)\n      swap1\n      0x1f\n      add\n      0x20\n      swap1\n      div\n      dup2\n      add\n      swap3\n      dup3\n      tag_180\n      jumpi\n      0x00\n      dup6\n      sstore\n      jump(tag_179)\n    tag_180:\n      dup3\n      0x1f\n      lt\n      tag_181\n      jumpi\n      dup1\n      mload\n      not(0xff)\n      and\n      dup4\n      dup1\n      add\n      or\n      dup6\n      sstore\n      jump(tag_179)\n    tag_181:\n      dup3\n      dup1\n      add\n      0x01\n      add\n      dup6\n      sstore\n      dup3\n      iszero\n      tag_179\n      jumpi\n      swap2\n      dup3\n      add\n    tag_182:\n      dup3\n      dup2\n      gt\n      iszero\n      tag_183\n      jumpi\n      dup3\n      mload\n      dup3\n      sstore\n      swap2\n      0x20\n      add\n      swap2\n      swap1\n      0x01\n      add\n      swap1\n      jump(tag_182)\n    tag_183:\n    tag_179:\n      pop\n      swap1\n      pop\n      tag_184\n      swap2\n      swap1\n      tag_185\n      jump\t// in\n    tag_184:\n      pop\n      swap1\n      jump\t// out\n    tag_185:\n    tag_186:\n      dup1\n      dup3\n      gt\n      iszero\n      tag_187\n      jumpi\n      0x00\n      dup2\n      0x00\n      swap1\n      sstore\n      pop\n      0x01\n      add\n      jump(tag_186)\n    tag_187:\n      pop\n      swap1\n      jump\t// out\n        /* \"#utility.yul\":7:419   */\n    tag_189:\n        /* \"#utility.yul\":85:90   */\n      0x00\n        /* \"#utility.yul\":110:176   */\n      tag_191\n        /* \"#utility.yul\":126:175   */\n      tag_192\n        /* \"#utility.yul\":168:174   */\n      dup5\n        /* \"#utility.yul\":126:175   */\n      tag_193\n      jump\t// in\n    tag_192:\n        /* \"#utility.yul\":110:176   */\n      tag_194\n      jump\t// in\n    tag_191:\n        /* \"#utility.yul\":101:176   */\n      swap1\n      pop\n        /* \"#utility.yul\":199:205   */\n      dup3\n        /* \"#utility.yul\":192:197   */\n      dup2\n        /* \"#utility.yul\":185:206   */\n      mstore\n        /* \"#utility.yul\":237:241   */\n      0x20\n        /* \"#utility.yul\":230:235   */\n      dup2\n        /* \"#utility.yul\":226:242   */\n      add\n        /* \"#utility.yul\":275:278   */\n      dup5\n        /* \"#utility.yul\":266:272   */\n      dup5\n        /* \"#utility.yul\":261:264   */\n      dup5\n        /* \"#utility.yul\":257:273   */\n      add\n        /* \"#utility.yul\":254:279   */\n      gt\n        /* \"#utility.yul\":251:363   */\n      iszero\n      tag_195\n      jumpi\n        /* \"#utility.yul\":282:361   */\n      tag_196\n      tag_197\n      jump\t// in\n    tag_196:\n        /* \"#utility.yul\":251:363   */\n    tag_195:\n        /* \"#utility.yul\":372:413   */\n      tag_198\n        /* \"#utility.yul\":406:412   */\n      dup5\n        /* \"#utility.yul\":401:404   */\n      dup3\n        /* \"#utility.yul\":396:399   */\n      dup6\n        /* \"#utility.yul\":372:413   */\n      tag_199\n      jump\t// in\n    tag_198:\n        /* \"#utility.yul\":91:419   */\n      pop\n        /* \"#utility.yul\":7:419   */\n      swap4\n      swap3\n      pop\n      pop\n      pop\n      jump\t// out\n        /* \"#utility.yul\":425:564   */\n    tag_200:\n        /* \"#utility.yul\":471:476   */\n      0x00\n        /* \"#utility.yul\":509:515   */\n      dup2\n        /* \"#utility.yul\":496:516   */\n      calldataload\n        /* \"#utility.yul\":487:516   */\n      swap1\n      pop\n        /* \"#utility.yul\":525:558   */\n      tag_202\n        /* \"#utility.yul\":552:557   */\n      dup2\n        /* \"#utility.yul\":525:558   */\n      tag_203\n      jump\t// in\n    tag_202:\n        /* \"#utility.yul\":425:564   */\n      swap3\n      swap2\n      pop\n      pop\n      jump\t// out\n        /* \"#utility.yul\":584:924   */\n    tag_204:\n        /* \"#utility.yul\":640:645   */\n      0x00\n        /* \"#utility.yul\":689:692   */\n      dup3\n        /* \"#utility.yul\":682:686   */\n      0x1f\n        /* \"#utility.yul\":674:680   */\n      dup4\n        /* \"#utility.yul\":670:687   */\n      add\n        /* \"#utility.yul\":666:693   */\n      slt\n        /* \"#utility.yul\":656:778   */\n      tag_206\n      jumpi\n        /* \"#utility.yul\":697:776   */\n      tag_207\n      tag_208\n      jump\t// in\n    tag_207:\n        /* \"#utility.yul\":656:778   */\n    tag_206:\n        /* \"#utility.yul\":814:820   */\n      dup2\n        /* \"#utility.yul\":801:821   */\n      calldataload\n        /* \"#utility.yul\":839:918   */\n      tag_209\n        /* \"#utility.yul\":914:917   */\n      dup5\n        /* \"#utility.yul\":906:912   */\n      dup3\n        /* \"#utility.yul\":899:903   */\n      0x20\n        /* \"#utility.yul\":891:897   */\n      dup7\n        /* \"#utility.yul\":887:904   */\n      add\n        /* \"#utility.yul\":839:918   */\n      tag_189\n      jump\t// in\n    tag_209:\n        /* \"#utility.yul\":830:918   */\n      swap2\n      pop\n        /* \"#utility.yul\":646:924   */\n      pop\n        /* \"#utility.yul\":584:924   */\n      swap3\n      swap2\n      pop\n      pop\n      jump\t// out\n        /* \"#utility.yul\":930:1069   */\n    tag_210:\n        /* \"#utility.yul\":976:981   */\n      0x00\n        /* \"#utility.yul\":1014:1020   */\n      dup2\n        /* \"#utility.yul\":1001:1021   */\n      calldataload\n        /* \"#utility.yul\":992:1021   */\n      swap1\n      pop\n        /* \"#utility.yul\":1030:1063   */\n      tag_212\n        /* \"#utility.yul\":1057:1062   */\n      dup2\n        /* \"#utility.yul\":1030:1063   */\n      tag_213\n      jump\t// in\n    tag_212:\n        /* \"#utility.yul\":930:1069   */\n      swap3\n      swap2\n      pop\n      pop\n      jump\t// out\n        /* \"#utility.yul\":1075:1212   */\n    tag_214:\n        /* \"#utility.yul\":1120:1125   */\n      0x00\n        /* \"#utility.yul\":1158:1164   */\n      dup2\n        /* \"#utility.yul\":1145:1165   */\n      calldataload\n        /* \"#utility.yul\":1136:1165   */\n      swap1\n      pop\n        /* \"#utility.yul\":1174:1206   */\n      tag_216\n        /* \"#utility.yul\":1200:1205   */\n      dup2\n        /* \"#utility.yul\":1174:1206   */\n      tag_217\n      jump\t// in\n    tag_216:\n        /* \"#utility.yul\":1075:1212   */\n      swap3\n      swap2\n      pop\n      pop\n      jump\t// out\n        /* \"#utility.yul\":1218:1353   */\n    tag_218:\n        /* \"#utility.yul\":1262:1267   */\n      0x00\n        /* \"#utility.yul\":1300:1306   */\n      dup2\n        /* \"#utility.yul\":1287:1307   */\n      calldataload\n        /* \"#utility.yul\":1278:1307   */\n      swap1\n      pop\n        /* \"#utility.yul\":1316:1347   */\n      tag_220\n        /* \"#utility.yul\":1341:1346   */\n      dup2\n        /* \"#utility.yul\":1316:1347   */\n      tag_221\n      jump\t// in\n    tag_220:\n        /* \"#utility.yul\":1218:1353   */\n      swap3\n      swap2\n      pop\n      pop\n      jump\t// out\n        /* \"#utility.yul\":1359:1688   */\n    tag_22:\n        /* \"#utility.yul\":1418:1424   */\n      0x00\n        /* \"#utility.yul\":1467:1469   */\n      0x20\n        /* \"#utility.yul\":1455:1464   */\n      dup3\n        /* \"#utility.yul\":1446:1453   */\n      dup5\n        /* \"#utility.yul\":1442:1465   */\n      sub\n        /* \"#utility.yul\":1438:1470   */\n      slt\n        /* \"#utility.yul\":1435:1554   */\n      iszero\n      tag_223\n      jumpi\n        /* \"#utility.yul\":1473:1552   */\n      tag_224\n      tag_225\n      jump\t// in\n    tag_224:\n        /* \"#utility.yul\":1435:1554   */\n    tag_223:\n        /* \"#utility.yul\":1593:1594   */\n      0x00\n        /* \"#utility.yul\":1618:1671   */\n      tag_226\n        /* \"#utility.yul\":1663:1670   */\n      dup5\n        /* \"#utility.yul\":1654:1660   */\n      dup3\n        /* \"#utility.yul\":1643:1652   */\n      dup6\n        /* \"#utility.yul\":1639:1661   */\n      add\n        /* \"#utility.yul\":1618:1671   */\n      tag_200\n      jump\t// in\n    tag_226:\n        /* \"#utility.yul\":1608:1671   */\n      swap2\n      pop\n        /* \"#utility.yul\":1564:1681   */\n      pop\n        /* \"#utility.yul\":1359:1688   */\n      swap3\n      swap2\n      pop\n      pop\n      jump\t// out\n        /* \"#utility.yul\":1694:2168   */\n    tag_81:\n        /* \"#utility.yul\":1762:1768   */\n      0x00\n        /* \"#utility.yul\":1770:1776   */\n      dup1\n        /* \"#utility.yul\":1819:1821   */\n      0x40\n        /* \"#utility.yul\":1807:1816   */\n      dup4\n        /* \"#utility.yul\":1798:1805   */\n      dup6\n        /* \"#utility.yul\":1794:1817   */\n      sub\n        /* \"#utility.yul\":1790:1822   */\n      slt\n        /* \"#utility.yul\":1787:1906   */\n      iszero\n      tag_228\n      jumpi\n        /* \"#utility.yul\":1825:1904   */\n      tag_229\n      tag_225\n      jump\t// in\n    tag_229:\n        /* \"#utility.yul\":1787:1906   */\n    tag_228:\n        /* \"#utility.yul\":1945:1946   */\n      0x00\n        /* \"#utility.yul\":1970:2023   */\n      tag_230\n        /* \"#utility.yul\":2015:2022   */\n      dup6\n        /* \"#utility.yul\":2006:2012   */\n      dup3\n        /* \"#utility.yul\":1995:2004   */\n      dup7\n        /* \"#utility.yul\":1991:2013   */\n      add\n        /* \"#utility.yul\":1970:2023   */\n      tag_200\n      jump\t// in\n    tag_230:\n        /* \"#utility.yul\":1960:2023   */\n      swap3\n      pop\n        /* \"#utility.yul\":1916:2033   */\n      pop\n        /* \"#utility.yul\":2072:2074   */\n      0x20\n        /* \"#utility.yul\":2098:2151   */\n      tag_231\n        /* \"#utility.yul\":2143:2150   */\n      dup6\n        /* \"#utility.yul\":2134:2140   */\n      dup3\n        /* \"#utility.yul\":2123:2132   */\n      dup7\n        /* \"#utility.yul\":2119:2141   */\n      add\n        /* \"#utility.yul\":2098:2151   */\n      tag_210\n      jump\t// in\n    tag_231:\n        /* \"#utility.yul\":2088:2151   */\n      swap2\n      pop\n        /* \"#utility.yul\":2043:2161   */\n      pop\n        /* \"#utility.yul\":1694:2168   */\n      swap3\n      pop\n      swap3\n      swap1\n      pop\n      jump\t// out\n        /* \"#utility.yul\":2174:3407   */\n    tag_28:\n        /* \"#utility.yul\":2286:2292   */\n      0x00\n        /* \"#utility.yul\":2294:2300   */\n      dup1\n        /* \"#utility.yul\":2302:2308   */\n      0x00\n        /* \"#utility.yul\":2310:2316   */\n      dup1\n        /* \"#utility.yul\":2318:2324   */\n      0x00\n        /* \"#utility.yul\":2326:2332   */\n      dup1\n        /* \"#utility.yul\":2375:2378   */\n      0xc0\n        /* \"#utility.yul\":2363:2372   */\n      dup8\n        /* \"#utility.yul\":2354:2361   */\n      dup10\n        /* \"#utility.yul\":2350:2373   */\n      sub\n        /* \"#utility.yul\":2346:2379   */\n      slt\n        /* \"#utility.yul\":2343:2463   */\n      iszero\n      tag_233\n      jumpi\n        /* \"#utility.yul\":2382:2461   */\n      tag_234\n      tag_225\n      jump\t// in\n    tag_234:\n        /* \"#utility.yul\":2343:2463   */\n    tag_233:\n        /* \"#utility.yul\":2502:2503   */\n      0x00\n        /* \"#utility.yul\":2527:2580   */\n      tag_235\n        /* \"#utility.yul\":2572:2579   */\n      dup10\n        /* \"#utility.yul\":2563:2569   */\n      dup3\n        /* \"#utility.yul\":2552:2561   */\n      dup11\n        /* \"#utility.yul\":2548:2570   */\n      add\n        /* \"#utility.yul\":2527:2580   */\n      tag_200\n      jump\t// in\n    tag_235:\n        /* \"#utility.yul\":2517:2580   */\n      swap7\n      pop\n        /* \"#utility.yul\":2473:2590   */\n      pop\n        /* \"#utility.yul\":2629:2631   */\n      0x20\n        /* \"#utility.yul\":2655:2708   */\n      tag_236\n        /* \"#utility.yul\":2700:2707   */\n      dup10\n        /* \"#utility.yul\":2691:2697   */\n      dup3\n        /* \"#utility.yul\":2680:2689   */\n      dup11\n        /* \"#utility.yul\":2676:2698   */\n      add\n        /* \"#utility.yul\":2655:2708   */\n      tag_210\n      jump\t// in\n    tag_236:\n        /* \"#utility.yul\":2645:2708   */\n      swap6\n      pop\n        /* \"#utility.yul\":2600:2718   */\n      pop\n        /* \"#utility.yul\":2757:2759   */\n      0x40\n        /* \"#utility.yul\":2783:2836   */\n      tag_237\n        /* \"#utility.yul\":2828:2835   */\n      dup10\n        /* \"#utility.yul\":2819:2825   */\n      dup3\n        /* \"#utility.yul\":2808:2817   */\n      dup11\n        /* \"#utility.yul\":2804:2826   */\n      add\n        /* \"#utility.yul\":2783:2836   */\n      tag_210\n      jump\t// in\n    tag_237:\n        /* \"#utility.yul\":2773:2836   */\n      swap5\n      pop\n        /* \"#utility.yul\":2728:2846   */\n      pop\n        /* \"#utility.yul\":2885:2887   */\n      0x60\n        /* \"#utility.yul\":2911:2964   */\n      tag_238\n        /* \"#utility.yul\":2956:2963   */\n      dup10\n        /* \"#utility.yul\":2947:2953   */\n      dup3\n        /* \"#utility.yul\":2936:2945   */\n      dup11\n        /* \"#utility.yul\":2932:2954   */\n      add\n        /* \"#utility.yul\":2911:2964   */\n      tag_210\n      jump\t// in\n    tag_238:\n        /* \"#utility.yul\":2901:2964   */\n      swap4\n      pop\n        /* \"#utility.yul\":2856:2974   */\n      pop\n        /* \"#utility.yul\":3013:3016   */\n      0x80\n        /* \"#utility.yul\":3040:3091   */\n      tag_239\n        /* \"#utility.yul\":3083:3090   */\n      dup10\n        /* \"#utility.yul\":3074:3080   */\n      dup3\n        /* \"#utility.yul\":3063:3072   */\n      dup11\n        /* \"#utility.yul\":3059:3081   */\n      add\n        /* \"#utility.yul\":3040:3091   */\n      tag_218\n      jump\t// in\n    tag_239:\n        /* \"#utility.yul\":3030:3091   */\n      swap3\n      pop\n        /* \"#utility.yul\":2984:3101   */\n      pop\n        /* \"#utility.yul\":3168:3171   */\n      0xa0\n        /* \"#utility.yul\":3157:3166   */\n      dup8\n        /* \"#utility.yul\":3153:3172   */\n      add\n        /* \"#utility.yul\":3140:3173   */\n      calldataload\n        /* \"#utility.yul\":3200:3218   */\n      0xffffffffffffffff\n        /* \"#utility.yul\":3192:3198   */\n      dup2\n        /* \"#utility.yul\":3189:3219   */\n      gt\n        /* \"#utility.yul\":3186:3303   */\n      iszero\n      tag_240\n      jumpi\n        /* \"#utility.yul\":3222:3301   */\n      tag_241\n      tag_242\n      jump\t// in\n    tag_241:\n        /* \"#utility.yul\":3186:3303   */\n    tag_240:\n        /* \"#utility.yul\":3327:3390   */\n      tag_243\n        /* \"#utility.yul\":3382:3389   */\n      dup10\n        /* \"#utility.yul\":3373:3379   */\n      dup3\n        /* \"#utility.yul\":3362:3371   */\n      dup11\n        /* \"#utility.yul\":3358:3380   */\n      add\n        /* \"#utility.yul\":3327:3390   */\n      tag_204\n      jump\t// in\n    tag_243:\n        /* \"#utility.yul\":3317:3390   */\n      swap2\n      pop\n        /* \"#utility.yul\":3111:3400   */\n      pop\n        /* \"#utility.yul\":2174:3407   */\n      swap3\n      swap6\n      pop\n      swap3\n      swap6\n      pop\n      swap3\n      swap6\n      jump\t// out\n        /* \"#utility.yul\":3413:4500   */\n    tag_47:\n        /* \"#utility.yul\":3516:3522   */\n      0x00\n        /* \"#utility.yul\":3524:3530   */\n      dup1\n        /* \"#utility.yul\":3532:3538   */\n      0x00\n        /* \"#utility.yul\":3540:3546   */\n      dup1\n        /* \"#utility.yul\":3548:3554   */\n      0x00\n        /* \"#utility.yul\":3597:3600   */\n      0xa0\n        /* \"#utility.yul\":3585:3594   */\n      dup7\n        /* \"#utility.yul\":3576:3583   */\n      dup9\n        /* \"#utility.yul\":3572:3595   */\n      sub\n        /* \"#utility.yul\":3568:3601   */\n      slt\n        /* \"#utility.yul\":3565:3685   */\n      iszero\n      tag_245\n      jumpi\n        /* \"#utility.yul\":3604:3683   */\n      tag_246\n      tag_225\n      jump\t// in\n    tag_246:\n        /* \"#utility.yul\":3565:3685   */\n    tag_245:\n        /* \"#utility.yul\":3724:3725   */\n      0x00\n        /* \"#utility.yul\":3749:3802   */\n      tag_247\n        /* \"#utility.yul\":3794:3801   */\n      dup9\n        /* \"#utility.yul\":3785:3791   */\n      dup3\n        /* \"#utility.yul\":3774:3783   */\n      dup10\n        /* \"#utility.yul\":3770:3792   */\n      add\n        /* \"#utility.yul\":3749:3802   */\n      tag_200\n      jump\t// in\n    tag_247:\n        /* \"#utility.yul\":3739:3802   */\n      swap6\n      pop\n        /* \"#utility.yul\":3695:3812   */\n      pop\n        /* \"#utility.yul\":3851:3853   */\n      0x20\n        /* \"#utility.yul\":3877:3930   */\n      tag_248\n        /* \"#utility.yul\":3922:3929   */\n      dup9\n        /* \"#utility.yul\":3913:3919   */\n      dup3\n        /* \"#utility.yul\":3902:3911   */\n      dup10\n        /* \"#utility.yul\":3898:3920   */\n      add\n        /* \"#utility.yul\":3877:3930   */\n      tag_210\n      jump\t// in\n    tag_248:\n        /* \"#utility.yul\":3867:3930   */\n      swap5\n      pop\n        /* \"#utility.yul\":3822:3940   */\n      pop\n        /* \"#utility.yul\":3979:3981   */\n      0x40\n        /* \"#utility.yul\":4005:4058   */\n      tag_249\n        /* \"#utility.yul\":4050:4057   */\n      dup9\n        /* \"#utility.yul\":4041:4047   */\n      dup3\n        /* \"#utility.yul\":4030:4039   */\n      dup10\n        /* \"#utility.yul\":4026:4048   */\n      add\n        /* \"#utility.yul\":4005:4058   */\n      tag_210\n      jump\t// in\n    tag_249:\n        /* \"#utility.yul\":3995:4058   */\n      swap4\n      pop\n        /* \"#utility.yul\":3950:4068   */\n      pop\n        /* \"#utility.yul\":4107:4109   */\n      0x60\n        /* \"#utility.yul\":4133:4184   */\n      tag_250\n        /* \"#utility.yul\":4176:4183   */\n      dup9\n        /* \"#utility.yul\":4167:4173   */\n      dup3\n        /* \"#utility.yul\":4156:4165   */\n      dup10\n        /* \"#utility.yul\":4152:4174   */\n      add\n        /* \"#utility.yul\":4133:4184   */\n      tag_218\n      jump\t// in\n    tag_250:\n        /* \"#utility.yul\":4123:4184   */\n      swap3\n      pop\n        /* \"#utility.yul\":4078:4194   */\n      pop\n        /* \"#utility.yul\":4261:4264   */\n      0x80\n        /* \"#utility.yul\":4250:4259   */\n      dup7\n        /* \"#utility.yul\":4246:4265   */\n      add\n        /* \"#utility.yul\":4233:4266   */\n      calldataload\n        /* \"#utility.yul\":4293:4311   */\n      0xffffffffffffffff\n        /* \"#utility.yul\":4285:4291   */\n      dup2\n        /* \"#utility.yul\":4282:4312   */\n      gt\n        /* \"#utility.yul\":4279:4396   */\n      iszero\n      tag_251\n      jumpi\n        /* \"#utility.yul\":4315:4394   */\n      tag_252\n      tag_242\n      jump\t// in\n    tag_252:\n        /* \"#utility.yul\":4279:4396   */\n    tag_251:\n        /* \"#utility.yul\":4420:4483   */\n      tag_253\n        /* \"#utility.yul\":4475:4482   */\n      dup9\n        /* \"#utility.yul\":4466:4472   */\n      dup3\n        /* \"#utility.yul\":4455:4464   */\n      dup10\n        /* \"#utility.yul\":4451:4473   */\n      add\n        /* \"#utility.yul\":4420:4483   */\n      tag_204\n      jump\t// in\n    tag_253:\n        /* \"#utility.yul\":4410:4483   */\n      swap2\n      pop\n        /* \"#utility.yul\":4204:4493   */\n      pop\n        /* \"#utility.yul\":3413:4500   */\n      swap3\n      swap6\n      pop\n      swap3\n      swap6\n      swap1\n      swap4\n      pop\n      jump\t// out\n        /* \"#utility.yul\":4506:4833   */\n    tag_62:\n        /* \"#utility.yul\":4564:4570   */\n      0x00\n        /* \"#utility.yul\":4613:4615   */\n      0x20\n        /* \"#utility.yul\":4601:4610   */\n      dup3\n        /* \"#utility.yul\":4592:4599   */\n      dup5\n        /* \"#utility.yul\":4588:4611   */\n      sub\n        /* \"#utility.yul\":4584:4616   */\n      slt\n        /* \"#utility.yul\":4581:4700   */\n      iszero\n      tag_255\n      jumpi\n        /* \"#utility.yul\":4619:4698   */\n      tag_256\n      tag_225\n      jump\t// in\n    tag_256:\n        /* \"#utility.yul\":4581:4700   */\n    tag_255:\n        /* \"#utility.yul\":4739:4740   */\n      0x00\n        /* \"#utility.yul\":4764:4816   */\n      tag_257\n        /* \"#utility.yul\":4808:4815   */\n      dup5\n        /* \"#utility.yul\":4799:4805   */\n      dup3\n        /* \"#utility.yul\":4788:4797   */\n      dup6\n        /* \"#utility.yul\":4784:4806   */\n      add\n        /* \"#utility.yul\":4764:4816   */\n      tag_214\n      jump\t// in\n    tag_257:\n        /* \"#utility.yul\":4754:4816   */\n      swap2\n      pop\n        /* \"#utility.yul\":4710:4826   */\n      pop\n        /* \"#utility.yul\":4506:4833   */\n      swap3\n      swap2\n      pop\n      pop\n      jump\t// out\n        /* \"#utility.yul\":4839:4947   */\n    tag_258:\n        /* \"#utility.yul\":4916:4940   */\n      tag_260\n        /* \"#utility.yul\":4934:4939   */\n      dup2\n        /* \"#utility.yul\":4916:4940   */\n      tag_261\n      jump\t// in\n    tag_260:\n        /* \"#utility.yul\":4911:4914   */\n      dup3\n        /* \"#utility.yul\":4904:4941   */\n      mstore\n        /* \"#utility.yul\":4839:4947   */\n      pop\n      pop\n      jump\t// out\n        /* \"#utility.yul\":4953:5071   */\n    tag_262:\n        /* \"#utility.yul\":5040:5064   */\n      tag_264\n        /* \"#utility.yul\":5058:5063   */\n      dup2\n        /* \"#utility.yul\":5040:5064   */\n      tag_261\n      jump\t// in\n    tag_264:\n        /* \"#utility.yul\":5035:5038   */\n      dup3\n        /* \"#utility.yul\":5028:5065   */\n      mstore\n        /* \"#utility.yul\":4953:5071   */\n      pop\n      pop\n      jump\t// out\n        /* \"#utility.yul\":5077:5186   */\n    tag_265:\n        /* \"#utility.yul\":5158:5179   */\n      tag_267\n        /* \"#utility.yul\":5173:5178   */\n      dup2\n        /* \"#utility.yul\":5158:5179   */\n      tag_268\n      jump\t// in\n    tag_267:\n        /* \"#utility.yul\":5153:5156   */\n      dup3\n        /* \"#utility.yul\":5146:5180   */\n      mstore\n        /* \"#utility.yul\":5077:5186   */\n      pop\n      pop\n      jump\t// out\n        /* \"#utility.yul\":5192:5333   */\n    tag_269:\n        /* \"#utility.yul\":5279:5326   */\n      tag_271\n        /* \"#utility.yul\":5320:5325   */\n      dup2\n        /* \"#utility.yul\":5279:5326   */\n      tag_272\n      jump\t// in\n    tag_271:\n        /* \"#utility.yul\":5274:5277   */\n      dup3\n        /* \"#utility.yul\":5267:5327   */\n      mstore\n        /* \"#utility.yul\":5192:5333   */\n      pop\n      pop\n      jump\t// out\n        /* \"#utility.yul\":5339:5482   */\n    tag_273:\n        /* \"#utility.yul\":5432:5475   */\n      tag_275\n        /* \"#utility.yul\":5469:5474   */\n      dup2\n        /* \"#utility.yul\":5432:5475   */\n      tag_276\n      jump\t// in\n    tag_275:\n        /* \"#utility.yul\":5427:5430   */\n      dup3\n        /* \"#utility.yul\":5420:5476   */\n      mstore\n        /* \"#utility.yul\":5339:5482   */\n      pop\n      pop\n      jump\t// out\n        /* \"#utility.yul\":5488:5852   */\n    tag_277:\n        /* \"#utility.yul\":5576:5579   */\n      0x00\n        /* \"#utility.yul\":5604:5643   */\n      tag_279\n        /* \"#utility.yul\":5637:5642   */\n      dup3\n        /* \"#utility.yul\":5604:5643   */\n      tag_280\n      jump\t// in\n    tag_279:\n        /* \"#utility.yul\":5659:5730   */\n      tag_281\n        /* \"#utility.yul\":5723:5729   */\n      dup2\n        /* \"#utility.yul\":5718:5721   */\n      dup6\n        /* \"#utility.yul\":5659:5730   */\n      tag_282\n      jump\t// in\n    tag_281:\n        /* \"#utility.yul\":5652:5730   */\n      swap4\n      pop\n        /* \"#utility.yul\":5739:5791   */\n      tag_283\n        /* \"#utility.yul\":5784:5790   */\n      dup2\n        /* \"#utility.yul\":5779:5782   */\n      dup6\n        /* \"#utility.yul\":5772:5776   */\n      0x20\n        /* \"#utility.yul\":5765:5770   */\n      dup7\n        /* \"#utility.yul\":5761:5777   */\n      add\n        /* \"#utility.yul\":5739:5791   */\n      tag_284\n      jump\t// in\n    tag_283:\n        /* \"#utility.yul\":5816:5845   */\n      tag_285\n        /* \"#utility.yul\":5838:5844   */\n      dup2\n        /* \"#utility.yul\":5816:5845   */\n      tag_286\n      jump\t// in\n    tag_285:\n        /* \"#utility.yul\":5811:5814   */\n      dup5\n        /* \"#utility.yul\":5807:5846   */\n      add\n        /* \"#utility.yul\":5800:5846   */\n      swap2\n      pop\n        /* \"#utility.yul\":5580:5852   */\n      pop\n        /* \"#utility.yul\":5488:5852   */\n      swap3\n      swap2\n      pop\n      pop\n      jump\t// out\n        /* \"#utility.yul\":5858:6224   */\n    tag_287:\n        /* \"#utility.yul\":6000:6003   */\n      0x00\n        /* \"#utility.yul\":6021:6088   */\n      tag_289\n        /* \"#utility.yul\":6085:6087   */\n      0x11\n        /* \"#utility.yul\":6080:6083   */\n      dup4\n        /* \"#utility.yul\":6021:6088   */\n      tag_282\n      jump\t// in\n    tag_289:\n        /* \"#utility.yul\":6014:6088   */\n      swap2\n      pop\n        /* \"#utility.yul\":6097:6190   */\n      tag_290\n        /* \"#utility.yul\":6186:6189   */\n      dup3\n        /* \"#utility.yul\":6097:6190   */\n      tag_291\n      jump\t// in\n    tag_290:\n        /* \"#utility.yul\":6215:6217   */\n      0x20\n        /* \"#utility.yul\":6210:6213   */\n      dup3\n        /* \"#utility.yul\":6206:6218   */\n      add\n        /* \"#utility.yul\":6199:6218   */\n      swap1\n      pop\n        /* \"#utility.yul\":5858:6224   */\n      swap2\n      swap1\n      pop\n      jump\t// out\n        /* \"#utility.yul\":6230:6596   */\n    tag_292:\n        /* \"#utility.yul\":6372:6375   */\n      0x00\n        /* \"#utility.yul\":6393:6460   */\n      tag_294\n        /* \"#utility.yul\":6457:6459   */\n      0x20\n        /* \"#utility.yul\":6452:6455   */\n      dup4\n        /* \"#utility.yul\":6393:6460   */\n      tag_282\n      jump\t// in\n    tag_294:\n        /* \"#utility.yul\":6386:6460   */\n      swap2\n      pop\n        /* \"#utility.yul\":6469:6562   */\n      tag_295\n        /* \"#utility.yul\":6558:6561   */\n      dup3\n        /* \"#utility.yul\":6469:6562   */\n      tag_296\n      jump\t// in\n    tag_295:\n        /* \"#utility.yul\":6587:6589   */\n      0x20\n        /* \"#utility.yul\":6582:6585   */\n      dup3\n        /* \"#utility.yul\":6578:6590   */\n      add\n        /* \"#utility.yul\":6571:6590   */\n      swap1\n      pop\n        /* \"#utility.yul\":6230:6596   */\n      swap2\n      swap1\n      pop\n      jump\t// out\n        /* \"#utility.yul\":6662:7346   */\n    tag_297:\n        /* \"#utility.yul\":6799:6803   */\n      0x60\n        /* \"#utility.yul\":6794:6797   */\n      dup3\n        /* \"#utility.yul\":6790:6804   */\n      add\n        /* \"#utility.yul\":6887:6891   */\n      0x00\n        /* \"#utility.yul\":6880:6885   */\n      dup3\n        /* \"#utility.yul\":6876:6892   */\n      add\n        /* \"#utility.yul\":6870:6893   */\n      mload\n        /* \"#utility.yul\":6906:6969   */\n      tag_299\n        /* \"#utility.yul\":6963:6967   */\n      0x00\n        /* \"#utility.yul\":6958:6961   */\n      dup6\n        /* \"#utility.yul\":6954:6968   */\n      add\n        /* \"#utility.yul\":6940:6952   */\n      dup3\n        /* \"#utility.yul\":6906:6969   */\n      tag_300\n      jump\t// in\n    tag_299:\n        /* \"#utility.yul\":6814:6979   */\n      pop\n        /* \"#utility.yul\":7062:7066   */\n      0x20\n        /* \"#utility.yul\":7055:7060   */\n      dup3\n        /* \"#utility.yul\":7051:7067   */\n      add\n        /* \"#utility.yul\":7045:7068   */\n      mload\n        /* \"#utility.yul\":7081:7144   */\n      tag_301\n        /* \"#utility.yul\":7138:7142   */\n      0x20\n        /* \"#utility.yul\":7133:7136   */\n      dup6\n        /* \"#utility.yul\":7129:7143   */\n      add\n        /* \"#utility.yul\":7115:7127   */\n      dup3\n        /* \"#utility.yul\":7081:7144   */\n      tag_258\n      jump\t// in\n    tag_301:\n        /* \"#utility.yul\":6989:7154   */\n      pop\n        /* \"#utility.yul\":7237:7241   */\n      0x40\n        /* \"#utility.yul\":7230:7235   */\n      dup3\n        /* \"#utility.yul\":7226:7242   */\n      add\n        /* \"#utility.yul\":7220:7243   */\n      mload\n        /* \"#utility.yul\":7256:7329   */\n      tag_302\n        /* \"#utility.yul\":7323:7327   */\n      0x40\n        /* \"#utility.yul\":7318:7321   */\n      dup6\n        /* \"#utility.yul\":7314:7328   */\n      add\n        /* \"#utility.yul\":7300:7312   */\n      dup3\n        /* \"#utility.yul\":7256:7329   */\n      tag_269\n      jump\t// in\n    tag_302:\n        /* \"#utility.yul\":7164:7339   */\n      pop\n        /* \"#utility.yul\":6768:7346   */\n      pop\n        /* \"#utility.yul\":6662:7346   */\n      pop\n      pop\n      jump\t// out\n        /* \"#utility.yul\":7352:7467   */\n    tag_303:\n        /* \"#utility.yul\":7437:7460   */\n      tag_305\n        /* \"#utility.yul\":7454:7459   */\n      dup2\n        /* \"#utility.yul\":7437:7460   */\n      tag_306\n      jump\t// in\n    tag_305:\n        /* \"#utility.yul\":7432:7435   */\n      dup3\n        /* \"#utility.yul\":7425:7461   */\n      mstore\n        /* \"#utility.yul\":7352:7467   */\n      pop\n      pop\n      jump\t// out\n        /* \"#utility.yul\":7473:7581   */\n    tag_300:\n        /* \"#utility.yul\":7550:7574   */\n      tag_308\n        /* \"#utility.yul\":7568:7573   */\n      dup2\n        /* \"#utility.yul\":7550:7574   */\n      tag_309\n      jump\t// in\n    tag_308:\n        /* \"#utility.yul\":7545:7548   */\n      dup3\n        /* \"#utility.yul\":7538:7575   */\n      mstore\n        /* \"#utility.yul\":7473:7581   */\n      pop\n      pop\n      jump\t// out\n        /* \"#utility.yul\":7587:7705   */\n    tag_310:\n        /* \"#utility.yul\":7674:7698   */\n      tag_312\n        /* \"#utility.yul\":7692:7697   */\n      dup2\n        /* \"#utility.yul\":7674:7698   */\n      tag_309\n      jump\t// in\n    tag_312:\n        /* \"#utility.yul\":7669:7672   */\n      dup3\n        /* \"#utility.yul\":7662:7699   */\n      mstore\n        /* \"#utility.yul\":7587:7705   */\n      pop\n      pop\n      jump\t// out\n        /* \"#utility.yul\":7711:7826   */\n    tag_313:\n        /* \"#utility.yul\":7796:7819   */\n      tag_315\n        /* \"#utility.yul\":7813:7818   */\n      dup2\n        /* \"#utility.yul\":7796:7819   */\n      tag_316\n      jump\t// in\n    tag_315:\n        /* \"#utility.yul\":7791:7794   */\n      dup3\n        /* \"#utility.yul\":7784:7820   */\n      mstore\n        /* \"#utility.yul\":7711:7826   */\n      pop\n      pop\n      jump\t// out\n        /* \"#utility.yul\":7832:7944   */\n    tag_317:\n        /* \"#utility.yul\":7915:7937   */\n      tag_319\n        /* \"#utility.yul\":7931:7936   */\n      dup2\n        /* \"#utility.yul\":7915:7937   */\n      tag_320\n      jump\t// in\n    tag_319:\n        /* \"#utility.yul\":7910:7913   */\n      dup3\n        /* \"#utility.yul\":7903:7938   */\n      mstore\n        /* \"#utility.yul\":7832:7944   */\n      pop\n      pop\n      jump\t// out\n        /* \"#utility.yul\":7950:8495   */\n    tag_105:\n        /* \"#utility.yul\":8123:8127   */\n      0x00\n        /* \"#utility.yul\":8161:8164   */\n      0x80\n        /* \"#utility.yul\":8150:8159   */\n      dup3\n        /* \"#utility.yul\":8146:8165   */\n      add\n        /* \"#utility.yul\":8138:8165   */\n      swap1\n      pop\n        /* \"#utility.yul\":8175:8246   */\n      tag_322\n        /* \"#utility.yul\":8243:8244   */\n      0x00\n        /* \"#utility.yul\":8232:8241   */\n      dup4\n        /* \"#utility.yul\":8228:8245   */\n      add\n        /* \"#utility.yul\":8219:8225   */\n      dup8\n        /* \"#utility.yul\":8175:8246   */\n      tag_262\n      jump\t// in\n    tag_322:\n        /* \"#utility.yul\":8256:8328   */\n      tag_323\n        /* \"#utility.yul\":8324:8326   */\n      0x20\n        /* \"#utility.yul\":8313:8322   */\n      dup4\n        /* \"#utility.yul\":8309:8327   */\n      add\n        /* \"#utility.yul\":8300:8306   */\n      dup7\n        /* \"#utility.yul\":8256:8328   */\n      tag_310\n      jump\t// in\n    tag_323:\n        /* \"#utility.yul\":8338:8410   */\n      tag_324\n        /* \"#utility.yul\":8406:8408   */\n      0x40\n        /* \"#utility.yul\":8395:8404   */\n      dup4\n        /* \"#utility.yul\":8391:8409   */\n      add\n        /* \"#utility.yul\":8382:8388   */\n      dup6\n        /* \"#utility.yul\":8338:8410   */\n      tag_310\n      jump\t// in\n    tag_324:\n        /* \"#utility.yul\":8420:8488   */\n      tag_325\n        /* \"#utility.yul\":8484:8486   */\n      0x60\n        /* \"#utility.yul\":8473:8482   */\n      dup4\n        /* \"#utility.yul\":8469:8487   */\n      add\n        /* \"#utility.yul\":8460:8466   */\n      dup5\n        /* \"#utility.yul\":8420:8488   */\n      tag_317\n      jump\t// in\n    tag_325:\n        /* \"#utility.yul\":7950:8495   */\n      swap6\n      swap5\n      pop\n      pop\n      pop\n      pop\n      pop\n      jump\t// out\n        /* \"#utility.yul\":8501:8711   */\n    tag_78:\n        /* \"#utility.yul\":8588:8592   */\n      0x00\n        /* \"#utility.yul\":8626:8628   */\n      0x20\n        /* \"#utility.yul\":8615:8624   */\n      dup3\n        /* \"#utility.yul\":8611:8629   */\n      add\n        /* \"#utility.yul\":8603:8629   */\n      swap1\n      pop\n        /* \"#utility.yul\":8639:8704   */\n      tag_327\n        /* \"#utility.yul\":8701:8702   */\n      0x00\n        /* \"#utility.yul\":8690:8699   */\n      dup4\n        /* \"#utility.yul\":8686:8703   */\n      add\n        /* \"#utility.yul\":8677:8683   */\n      dup5\n        /* \"#utility.yul\":8639:8704   */\n      tag_265\n      jump\t// in\n    tag_327:\n        /* \"#utility.yul\":8501:8711   */\n      swap3\n      swap2\n      pop\n      pop\n      jump\t// out\n        /* \"#utility.yul\":8717:9670   */\n    tag_73:\n        /* \"#utility.yul\":8988:8992   */\n      0x00\n        /* \"#utility.yul\":9026:9029   */\n      0xc0\n        /* \"#utility.yul\":9015:9024   */\n      dup3\n        /* \"#utility.yul\":9011:9030   */\n      add\n        /* \"#utility.yul\":9003:9030   */\n      swap1\n      pop\n        /* \"#utility.yul\":9040:9105   */\n      tag_329\n        /* \"#utility.yul\":9102:9103   */\n      0x00\n        /* \"#utility.yul\":9091:9100   */\n      dup4\n        /* \"#utility.yul\":9087:9104   */\n      add\n        /* \"#utility.yul\":9078:9084   */\n      dup10\n        /* \"#utility.yul\":9040:9105   */\n      tag_265\n      jump\t// in\n    tag_329:\n        /* \"#utility.yul\":9115:9187   */\n      tag_330\n        /* \"#utility.yul\":9183:9185   */\n      0x20\n        /* \"#utility.yul\":9172:9181   */\n      dup4\n        /* \"#utility.yul\":9168:9186   */\n      add\n        /* \"#utility.yul\":9159:9165   */\n      dup9\n        /* \"#utility.yul\":9115:9187   */\n      tag_262\n      jump\t// in\n    tag_330:\n        /* \"#utility.yul\":9197:9267   */\n      tag_331\n        /* \"#utility.yul\":9263:9265   */\n      0x40\n        /* \"#utility.yul\":9252:9261   */\n      dup4\n        /* \"#utility.yul\":9248:9266   */\n      add\n        /* \"#utility.yul\":9239:9245   */\n      dup8\n        /* \"#utility.yul\":9197:9267   */\n      tag_303\n      jump\t// in\n    tag_331:\n        /* \"#utility.yul\":9277:9355   */\n      tag_332\n        /* \"#utility.yul\":9351:9353   */\n      0x60\n        /* \"#utility.yul\":9340:9349   */\n      dup4\n        /* \"#utility.yul\":9336:9354   */\n      add\n        /* \"#utility.yul\":9327:9333   */\n      dup7\n        /* \"#utility.yul\":9277:9355   */\n      tag_273\n      jump\t// in\n    tag_332:\n        /* \"#utility.yul\":9403:9412   */\n      dup2\n        /* \"#utility.yul\":9397:9401   */\n      dup2\n        /* \"#utility.yul\":9393:9413   */\n      sub\n        /* \"#utility.yul\":9387:9390   */\n      0x80\n        /* \"#utility.yul\":9376:9385   */\n      dup4\n        /* \"#utility.yul\":9372:9391   */\n      add\n        /* \"#utility.yul\":9365:9414   */\n      mstore\n        /* \"#utility.yul\":9431:9509   */\n      tag_333\n        /* \"#utility.yul\":9504:9508   */\n      dup2\n        /* \"#utility.yul\":9495:9501   */\n      dup6\n        /* \"#utility.yul\":9431:9509   */\n      tag_277\n      jump\t// in\n    tag_333:\n        /* \"#utility.yul\":9423:9509   */\n      swap1\n      pop\n        /* \"#utility.yul\":9557:9566   */\n      dup2\n        /* \"#utility.yul\":9551:9555   */\n      dup2\n        /* \"#utility.yul\":9547:9567   */\n      sub\n        /* \"#utility.yul\":9541:9544   */\n      0xa0\n        /* \"#utility.yul\":9530:9539   */\n      dup4\n        /* \"#utility.yul\":9526:9545   */\n      add\n        /* \"#utility.yul\":9519:9568   */\n      mstore\n        /* \"#utility.yul\":9585:9663   */\n      tag_334\n        /* \"#utility.yul\":9658:9662   */\n      dup2\n        /* \"#utility.yul\":9649:9655   */\n      dup5\n        /* \"#utility.yul\":9585:9663   */\n      tag_277\n      jump\t// in\n    tag_334:\n        /* \"#utility.yul\":9577:9663   */\n      swap1\n      pop\n        /* \"#utility.yul\":8717:9670   */\n      swap8\n      swap7\n      pop\n      pop\n      pop\n      pop\n      pop\n      pop\n      pop\n      jump\t// out\n        /* \"#utility.yul\":9676:10189   */\n    tag_25:\n        /* \"#utility.yul\":9835:9839   */\n      0x00\n        /* \"#utility.yul\":9873:9875   */\n      0x60\n        /* \"#utility.yul\":9862:9871   */\n      dup3\n        /* \"#utility.yul\":9858:9876   */\n      add\n        /* \"#utility.yul\":9850:9876   */\n      swap1\n      pop\n        /* \"#utility.yul\":9886:9951   */\n      tag_336\n        /* \"#utility.yul\":9948:9949   */\n      0x00\n        /* \"#utility.yul\":9937:9946   */\n      dup4\n        /* \"#utility.yul\":9933:9950   */\n      add\n        /* \"#utility.yul\":9924:9930   */\n      dup7\n        /* \"#utility.yul\":9886:9951   */\n      tag_265\n      jump\t// in\n    tag_336:\n        /* \"#utility.yul\":9998:10007   */\n      dup2\n        /* \"#utility.yul\":9992:9996   */\n      dup2\n        /* \"#utility.yul\":9988:10008   */\n      sub\n        /* \"#utility.yul\":9983:9985   */\n      0x20\n        /* \"#utility.yul\":9972:9981   */\n      dup4\n        /* \"#utility.yul\":9968:9986   */\n      add\n        /* \"#utility.yul\":9961:10009   */\n      mstore\n        /* \"#utility.yul\":10026:10104   */\n      tag_337\n        /* \"#utility.yul\":10099:10103   */\n      dup2\n        /* \"#utility.yul\":10090:10096   */\n      dup6\n        /* \"#utility.yul\":10026:10104   */\n      tag_277\n      jump\t// in\n    tag_337:\n        /* \"#utility.yul\":10018:10104   */\n      swap1\n      pop\n        /* \"#utility.yul\":10114:10182   */\n      tag_338\n        /* \"#utility.yul\":10178:10180   */\n      0x40\n        /* \"#utility.yul\":10167:10176   */\n      dup4\n        /* \"#utility.yul\":10163:10181   */\n      add\n        /* \"#utility.yul\":10154:10160   */\n      dup5\n        /* \"#utility.yul\":10114:10182   */\n      tag_317\n      jump\t// in\n    tag_338:\n        /* \"#utility.yul\":9676:10189   */\n      swap5\n      swap4\n      pop\n      pop\n      pop\n      pop\n      jump\t// out\n        /* \"#utility.yul\":10195:10819   */\n    tag_44:\n        /* \"#utility.yul\":10382:10386   */\n      0x00\n        /* \"#utility.yul\":10420:10423   */\n      0x80\n        /* \"#utility.yul\":10409:10418   */\n      dup3\n        /* \"#utility.yul\":10405:10424   */\n      add\n        /* \"#utility.yul\":10397:10424   */\n      swap1\n      pop\n        /* \"#utility.yul\":10434:10499   */\n      tag_340\n        /* \"#utility.yul\":10496:10497   */\n      0x00\n        /* \"#utility.yul\":10485:10494   */\n      dup4\n        /* \"#utility.yul\":10481:10498   */\n      add\n        /* \"#utility.yul\":10472:10478   */\n      dup8\n        /* \"#utility.yul\":10434:10499   */\n      tag_265\n      jump\t// in\n    tag_340:\n        /* \"#utility.yul\":10509:10577   */\n      tag_341\n        /* \"#utility.yul\":10573:10575   */\n      0x20\n        /* \"#utility.yul\":10562:10571   */\n      dup4\n        /* \"#utility.yul\":10558:10576   */\n      add\n        /* \"#utility.yul\":10549:10555   */\n      dup7\n        /* \"#utility.yul\":10509:10577   */\n      tag_317\n      jump\t// in\n    tag_341:\n        /* \"#utility.yul\":10587:10659   */\n      tag_342\n        /* \"#utility.yul\":10655:10657   */\n      0x40\n        /* \"#utility.yul\":10644:10653   */\n      dup4\n        /* \"#utility.yul\":10640:10658   */\n      add\n        /* \"#utility.yul\":10631:10637   */\n      dup6\n        /* \"#utility.yul\":10587:10659   */\n      tag_310\n      jump\t// in\n    tag_342:\n        /* \"#utility.yul\":10706:10715   */\n      dup2\n        /* \"#utility.yul\":10700:10704   */\n      dup2\n        /* \"#utility.yul\":10696:10716   */\n      sub\n        /* \"#utility.yul\":10691:10693   */\n      0x60\n        /* \"#utility.yul\":10680:10689   */\n      dup4\n        /* \"#utility.yul\":10676:10694   */\n      add\n        /* \"#utility.yul\":10669:10717   */\n      mstore\n        /* \"#utility.yul\":10734:10812   */\n      tag_343\n        /* \"#utility.yul\":10807:10811   */\n      dup2\n        /* \"#utility.yul\":10798:10804   */\n      dup5\n        /* \"#utility.yul\":10734:10812   */\n      tag_277\n      jump\t// in\n    tag_343:\n        /* \"#utility.yul\":10726:10812   */\n      swap1\n      pop\n        /* \"#utility.yul\":10195:10819   */\n      swap6\n      swap5\n      pop\n      pop\n      pop\n      pop\n      pop\n      jump\t// out\n        /* \"#utility.yul\":10825:11244   */\n    tag_98:\n        /* \"#utility.yul\":10991:10995   */\n      0x00\n        /* \"#utility.yul\":11029:11031   */\n      0x20\n        /* \"#utility.yul\":11018:11027   */\n      dup3\n        /* \"#utility.yul\":11014:11032   */\n      add\n        /* \"#utility.yul\":11006:11032   */\n      swap1\n      pop\n        /* \"#utility.yul\":11078:11087   */\n      dup2\n        /* \"#utility.yul\":11072:11076   */\n      dup2\n        /* \"#utility.yul\":11068:11088   */\n      sub\n        /* \"#utility.yul\":11064:11065   */\n      0x00\n        /* \"#utility.yul\":11053:11062   */\n      dup4\n        /* \"#utility.yul\":11049:11066   */\n      add\n        /* \"#utility.yul\":11042:11089   */\n      mstore\n        /* \"#utility.yul\":11106:11237   */\n      tag_345\n        /* \"#utility.yul\":11232:11236   */\n      dup2\n        /* \"#utility.yul\":11106:11237   */\n      tag_287\n      jump\t// in\n    tag_345:\n        /* \"#utility.yul\":11098:11237   */\n      swap1\n      pop\n        /* \"#utility.yul\":10825:11244   */\n      swap2\n      swap1\n      pop\n      jump\t// out\n        /* \"#utility.yul\":11250:11669   */\n    tag_94:\n        /* \"#utility.yul\":11416:11420   */\n      0x00\n        /* \"#utility.yul\":11454:11456   */\n      0x20\n        /* \"#utility.yul\":11443:11452   */\n      dup3\n        /* \"#utility.yul\":11439:11457   */\n      add\n        /* \"#utility.yul\":11431:11457   */\n      swap1\n      pop\n        /* \"#utility.yul\":11503:11512   */\n      dup2\n        /* \"#utility.yul\":11497:11501   */\n      dup2\n        /* \"#utility.yul\":11493:11513   */\n      sub\n        /* \"#utility.yul\":11489:11490   */\n      0x00\n        /* \"#utility.yul\":11478:11487   */\n      dup4\n        /* \"#utility.yul\":11474:11491   */\n      add\n        /* \"#utility.yul\":11467:11514   */\n      mstore\n        /* \"#utility.yul\":11531:11662   */\n      tag_347\n        /* \"#utility.yul\":11657:11661   */\n      dup2\n        /* \"#utility.yul\":11531:11662   */\n      tag_292\n      jump\t// in\n    tag_347:\n        /* \"#utility.yul\":11523:11662   */\n      swap1\n      pop\n        /* \"#utility.yul\":11250:11669   */\n      swap2\n      swap1\n      pop\n      jump\t// out\n        /* \"#utility.yul\":11675:11897   */\n    tag_31:\n        /* \"#utility.yul\":11768:11772   */\n      0x00\n        /* \"#utility.yul\":11806:11808   */\n      0x20\n        /* \"#utility.yul\":11795:11804   */\n      dup3\n        /* \"#utility.yul\":11791:11809   */\n      add\n        /* \"#utility.yul\":11783:11809   */\n      swap1\n      pop\n        /* \"#utility.yul\":11819:11890   */\n      tag_349\n        /* \"#utility.yul\":11887:11888   */\n      0x00\n        /* \"#utility.yul\":11876:11885   */\n      dup4\n        /* \"#utility.yul\":11872:11889   */\n      add\n        /* \"#utility.yul\":11863:11869   */\n      dup5\n        /* \"#utility.yul\":11819:11890   */\n      tag_310\n      jump\t// in\n    tag_349:\n        /* \"#utility.yul\":11675:11897   */\n      swap3\n      swap2\n      pop\n      pop\n      jump\t// out\n        /* \"#utility.yul\":11903:12952   */\n    tag_84:\n        /* \"#utility.yul\":12220:12224   */\n      0x00\n        /* \"#utility.yul\":12258:12261   */\n      0x0120\n        /* \"#utility.yul\":12247:12256   */\n      dup3\n        /* \"#utility.yul\":12243:12262   */\n      add\n        /* \"#utility.yul\":12235:12262   */\n      swap1\n      pop\n        /* \"#utility.yul\":12272:12343   */\n      tag_351\n        /* \"#utility.yul\":12340:12341   */\n      0x00\n        /* \"#utility.yul\":12329:12338   */\n      dup4\n        /* \"#utility.yul\":12325:12342   */\n      add\n        /* \"#utility.yul\":12316:12322   */\n      dup11\n        /* \"#utility.yul\":12272:12343   */\n      tag_310\n      jump\t// in\n    tag_351:\n        /* \"#utility.yul\":12353:12425   */\n      tag_352\n        /* \"#utility.yul\":12421:12423   */\n      0x20\n        /* \"#utility.yul\":12410:12419   */\n      dup4\n        /* \"#utility.yul\":12406:12424   */\n      add\n        /* \"#utility.yul\":12397:12403   */\n      dup10\n        /* \"#utility.yul\":12353:12425   */\n      tag_262\n      jump\t// in\n    tag_352:\n        /* \"#utility.yul\":12435:12507   */\n      tag_353\n        /* \"#utility.yul\":12503:12505   */\n      0x40\n        /* \"#utility.yul\":12492:12501   */\n      dup4\n        /* \"#utility.yul\":12488:12506   */\n      add\n        /* \"#utility.yul\":12479:12485   */\n      dup9\n        /* \"#utility.yul\":12435:12507   */\n      tag_310\n      jump\t// in\n    tag_353:\n        /* \"#utility.yul\":12517:12589   */\n      tag_354\n        /* \"#utility.yul\":12585:12587   */\n      0x60\n        /* \"#utility.yul\":12574:12583   */\n      dup4\n        /* \"#utility.yul\":12570:12588   */\n      add\n        /* \"#utility.yul\":12561:12567   */\n      dup8\n        /* \"#utility.yul\":12517:12589   */\n      tag_310\n      jump\t// in\n    tag_354:\n        /* \"#utility.yul\":12599:12668   */\n      tag_355\n        /* \"#utility.yul\":12663:12666   */\n      0x80\n        /* \"#utility.yul\":12652:12661   */\n      dup4\n        /* \"#utility.yul\":12648:12667   */\n      add\n        /* \"#utility.yul\":12639:12645   */\n      dup7\n        /* \"#utility.yul\":12599:12668   */\n      tag_317\n      jump\t// in\n    tag_355:\n        /* \"#utility.yul\":12716:12725   */\n      dup2\n        /* \"#utility.yul\":12710:12714   */\n      dup2\n        /* \"#utility.yul\":12706:12726   */\n      sub\n        /* \"#utility.yul\":12700:12703   */\n      0xa0\n        /* \"#utility.yul\":12689:12698   */\n      dup4\n        /* \"#utility.yul\":12685:12704   */\n      add\n        /* \"#utility.yul\":12678:12727   */\n      mstore\n        /* \"#utility.yul\":12744:12822   */\n      tag_356\n        /* \"#utility.yul\":12817:12821   */\n      dup2\n        /* \"#utility.yul\":12808:12814   */\n      dup6\n        /* \"#utility.yul\":12744:12822   */\n      tag_277\n      jump\t// in\n    tag_356:\n        /* \"#utility.yul\":12736:12822   */\n      swap1\n      pop\n        /* \"#utility.yul\":12832:12945   */\n      tag_357\n        /* \"#utility.yul\":12940:12943   */\n      0xc0\n        /* \"#utility.yul\":12929:12938   */\n      dup4\n        /* \"#utility.yul\":12925:12944   */\n      add\n        /* \"#utility.yul\":12916:12922   */\n      dup5\n        /* \"#utility.yul\":12832:12945   */\n      tag_297\n      jump\t// in\n    tag_357:\n        /* \"#utility.yul\":11903:12952   */\n      swap9\n      swap8\n      pop\n      pop\n      pop\n      pop\n      pop\n      pop\n      pop\n      pop\n      jump\t// out\n        /* \"#utility.yul\":12958:13377   */\n    tag_65:\n        /* \"#utility.yul\":13097:13101   */\n      0x00\n        /* \"#utility.yul\":13135:13137   */\n      0x40\n        /* \"#utility.yul\":13124:13133   */\n      dup3\n        /* \"#utility.yul\":13120:13138   */\n      add\n        /* \"#utility.yul\":13112:13138   */\n      swap1\n      pop\n        /* \"#utility.yul\":13148:13217   */\n      tag_359\n        /* \"#utility.yul\":13214:13215   */\n      0x00\n        /* \"#utility.yul\":13203:13212   */\n      dup4\n        /* \"#utility.yul\":13199:13216   */\n      add\n        /* \"#utility.yul\":13190:13196   */\n      dup6\n        /* \"#utility.yul\":13148:13217   */\n      tag_313\n      jump\t// in\n    tag_359:\n        /* \"#utility.yul\":13264:13273   */\n      dup2\n        /* \"#utility.yul\":13258:13262   */\n      dup2\n        /* \"#utility.yul\":13254:13274   */\n      sub\n        /* \"#utility.yul\":13249:13251   */\n      0x20\n        /* \"#utility.yul\":13238:13247   */\n      dup4\n        /* \"#utility.yul\":13234:13252   */\n      add\n        /* \"#utility.yul\":13227:13275   */\n      mstore\n        /* \"#utility.yul\":13292:13370   */\n      tag_360\n        /* \"#utility.yul\":13365:13369   */\n      dup2\n        /* \"#utility.yul\":13356:13362   */\n      dup5\n        /* \"#utility.yul\":13292:13370   */\n      tag_277\n      jump\t// in\n    tag_360:\n        /* \"#utility.yul\":13284:13370   */\n      swap1\n      pop\n        /* \"#utility.yul\":12958:13377   */\n      swap4\n      swap3\n      pop\n      pop\n      pop\n      jump\t// out\n        /* \"#utility.yul\":13383:13512   */\n    tag_194:\n        /* \"#utility.yul\":13417:13423   */\n      0x00\n        /* \"#utility.yul\":13444:13464   */\n      tag_362\n      tag_363\n      jump\t// in\n    tag_362:\n        /* \"#utility.yul\":13434:13464   */\n      swap1\n      pop\n        /* \"#utility.yul\":13473:13506   */\n      tag_364\n        /* \"#utility.yul\":13501:13505   */\n      dup3\n        /* \"#utility.yul\":13493:13499   */\n      dup3\n        /* \"#utility.yul\":13473:13506   */\n      tag_365\n      jump\t// in\n    tag_364:\n        /* \"#utility.yul\":13383:13512   */\n      swap2\n      swap1\n      pop\n      jump\t// out\n        /* \"#utility.yul\":13518:13593   */\n    tag_363:\n        /* \"#utility.yul\":13551:13557   */\n      0x00\n        /* \"#utility.yul\":13584:13586   */\n      0x40\n        /* \"#utility.yul\":13578:13587   */\n      mload\n        /* \"#utility.yul\":13568:13587   */\n      swap1\n      pop\n        /* \"#utility.yul\":13518:13593   */\n      swap1\n      jump\t// out\n        /* \"#utility.yul\":13599:13907   */\n    tag_193:\n        /* \"#utility.yul\":13661:13665   */\n      0x00\n        /* \"#utility.yul\":13751:13769   */\n      0xffffffffffffffff\n        /* \"#utility.yul\":13743:13749   */\n      dup3\n        /* \"#utility.yul\":13740:13770   */\n      gt\n        /* \"#utility.yul\":13737:13793   */\n      iszero\n      tag_368\n      jumpi\n        /* \"#utility.yul\":13773:13791   */\n      tag_369\n      tag_370\n      jump\t// in\n    tag_369:\n        /* \"#utility.yul\":13737:13793   */\n    tag_368:\n        /* \"#utility.yul\":13811:13840   */\n      tag_371\n        /* \"#utility.yul\":13833:13839   */\n      dup3\n        /* \"#utility.yul\":13811:13840   */\n      tag_286\n      jump\t// in\n    tag_371:\n        /* \"#utility.yul\":13803:13840   */\n      swap1\n      pop\n        /* \"#utility.yul\":13895:13899   */\n      0x20\n        /* \"#utility.yul\":13889:13893   */\n      dup2\n        /* \"#utility.yul\":13885:13900   */\n      add\n        /* \"#utility.yul\":13877:13900   */\n      swap1\n      pop\n        /* \"#utility.yul\":13599:13907   */\n      swap2\n      swap1\n      pop\n      jump\t// out\n        /* \"#utility.yul\":13913:14012   */\n    tag_280:\n        /* \"#utility.yul\":13965:13971   */\n      0x00\n        /* \"#utility.yul\":13999:14004   */\n      dup2\n        /* \"#utility.yul\":13993:14005   */\n      mload\n        /* \"#utility.yul\":13983:14005   */\n      swap1\n      pop\n        /* \"#utility.yul\":13913:14012   */\n      swap2\n      swap1\n      pop\n      jump\t// out\n        /* \"#utility.yul\":14018:14187   */\n    tag_282:\n        /* \"#utility.yul\":14102:14113   */\n      0x00\n        /* \"#utility.yul\":14136:14142   */\n      dup3\n        /* \"#utility.yul\":14131:14134   */\n      dup3\n        /* \"#utility.yul\":14124:14143   */\n      mstore\n        /* \"#utility.yul\":14176:14180   */\n      0x20\n        /* \"#utility.yul\":14171:14174   */\n      dup3\n        /* \"#utility.yul\":14167:14181   */\n      add\n        /* \"#utility.yul\":14152:14181   */\n      swap1\n      pop\n        /* \"#utility.yul\":14018:14187   */\n      swap3\n      swap2\n      pop\n      pop\n      jump\t// out\n        /* \"#utility.yul\":14193:14289   */\n    tag_261:\n        /* \"#utility.yul\":14230:14237   */\n      0x00\n        /* \"#utility.yul\":14259:14283   */\n      tag_375\n        /* \"#utility.yul\":14277:14282   */\n      dup3\n        /* \"#utility.yul\":14259:14283   */\n      tag_376\n      jump\t// in\n    tag_375:\n        /* \"#utility.yul\":14248:14283   */\n      swap1\n      pop\n        /* \"#utility.yul\":14193:14289   */\n      swap2\n      swap1\n      pop\n      jump\t// out\n        /* \"#utility.yul\":14295:14385   */\n    tag_268:\n        /* \"#utility.yul\":14329:14336   */\n      0x00\n        /* \"#utility.yul\":14372:14377   */\n      dup2\n        /* \"#utility.yul\":14365:14378   */\n      iszero\n        /* \"#utility.yul\":14358:14379   */\n      iszero\n        /* \"#utility.yul\":14347:14379   */\n      swap1\n      pop\n        /* \"#utility.yul\":14295:14385   */\n      swap2\n      swap1\n      pop\n      jump\t// out\n        /* \"#utility.yul\":14391:14526   */\n    tag_378:\n        /* \"#utility.yul\":14440:14447   */\n      0x00\n        /* \"#utility.yul\":14469:14474   */\n      dup2\n        /* \"#utility.yul\":14458:14474   */\n      swap1\n      pop\n        /* \"#utility.yul\":14475:14520   */\n      tag_380\n        /* \"#utility.yul\":14514:14519   */\n      dup3\n        /* \"#utility.yul\":14475:14520   */\n      tag_381\n      jump\t// in\n    tag_380:\n        /* \"#utility.yul\":14391:14526   */\n      swap2\n      swap1\n      pop\n      jump\t// out\n        /* \"#utility.yul\":14532:14659   */\n    tag_382:\n        /* \"#utility.yul\":14577:14584   */\n      0x00\n        /* \"#utility.yul\":14606:14611   */\n      dup2\n        /* \"#utility.yul\":14595:14611   */\n      swap1\n      pop\n        /* \"#utility.yul\":14612:14653   */\n      tag_384\n        /* \"#utility.yul\":14647:14652   */\n      dup3\n        /* \"#utility.yul\":14612:14653   */\n      tag_385\n      jump\t// in\n    tag_384:\n        /* \"#utility.yul\":14532:14659   */\n      swap2\n      swap1\n      pop\n      jump\t// out\n        /* \"#utility.yul\":14665:14754   */\n    tag_306:\n        /* \"#utility.yul\":14701:14708   */\n      0x00\n        /* \"#utility.yul\":14741:14747   */\n      0xffff\n        /* \"#utility.yul\":14734:14739   */\n      dup3\n        /* \"#utility.yul\":14730:14748   */\n      and\n        /* \"#utility.yul\":14719:14748   */\n      swap1\n      pop\n        /* \"#utility.yul\":14665:14754   */\n      swap2\n      swap1\n      pop\n      jump\t// out\n        /* \"#utility.yul\":14760:14886   */\n    tag_376:\n        /* \"#utility.yul\":14797:14804   */\n      0x00\n        /* \"#utility.yul\":14837:14879   */\n      0xffffffffffffffffffffffffffffffffffffffff\n        /* \"#utility.yul\":14830:14835   */\n      dup3\n        /* \"#utility.yul\":14826:14880   */\n      and\n        /* \"#utility.yul\":14815:14880   */\n      swap1\n      pop\n        /* \"#utility.yul\":14760:14886   */\n      swap2\n      swap1\n      pop\n      jump\t// out\n        /* \"#utility.yul\":14892:14969   */\n    tag_309:\n        /* \"#utility.yul\":14929:14936   */\n      0x00\n        /* \"#utility.yul\":14958:14963   */\n      dup2\n        /* \"#utility.yul\":14947:14963   */\n      swap1\n      pop\n        /* \"#utility.yul\":14892:14969   */\n      swap2\n      swap1\n      pop\n      jump\t// out\n        /* \"#utility.yul\":14975:15068   */\n    tag_316:\n        /* \"#utility.yul\":15011:15018   */\n      0x00\n        /* \"#utility.yul\":15051:15061   */\n      0xffffffff\n        /* \"#utility.yul\":15044:15049   */\n      dup3\n        /* \"#utility.yul\":15040:15062   */\n      and\n        /* \"#utility.yul\":15029:15062   */\n      swap1\n      pop\n        /* \"#utility.yul\":14975:15068   */\n      swap2\n      swap1\n      pop\n      jump\t// out\n        /* \"#utility.yul\":15074:15160   */\n    tag_320:\n        /* \"#utility.yul\":15109:15116   */\n      0x00\n        /* \"#utility.yul\":15149:15153   */\n      0xff\n        /* \"#utility.yul\":15142:15147   */\n      dup3\n        /* \"#utility.yul\":15138:15154   */\n      and\n        /* \"#utility.yul\":15127:15154   */\n      swap1\n      pop\n        /* \"#utility.yul\":15074:15160   */\n      swap2\n      swap1\n      pop\n      jump\t// out\n        /* \"#utility.yul\":15166:15301   */\n    tag_272:\n        /* \"#utility.yul\":15226:15235   */\n      0x00\n        /* \"#utility.yul\":15259:15295   */\n      tag_392\n        /* \"#utility.yul\":15289:15294   */\n      dup3\n        /* \"#utility.yul\":15259:15295   */\n      tag_378\n      jump\t// in\n    tag_392:\n        /* \"#utility.yul\":15246:15295   */\n      swap1\n      pop\n        /* \"#utility.yul\":15166:15301   */\n      swap2\n      swap1\n      pop\n      jump\t// out\n        /* \"#utility.yul\":15307:15434   */\n    tag_276:\n        /* \"#utility.yul\":15363:15372   */\n      0x00\n        /* \"#utility.yul\":15396:15428   */\n      tag_394\n        /* \"#utility.yul\":15422:15427   */\n      dup3\n        /* \"#utility.yul\":15396:15428   */\n      tag_382\n      jump\t// in\n    tag_394:\n        /* \"#utility.yul\":15383:15428   */\n      swap1\n      pop\n        /* \"#utility.yul\":15307:15434   */\n      swap2\n      swap1\n      pop\n      jump\t// out\n        /* \"#utility.yul\":15440:15594   */\n    tag_199:\n        /* \"#utility.yul\":15524:15530   */\n      dup3\n        /* \"#utility.yul\":15519:15522   */\n      dup2\n        /* \"#utility.yul\":15514:15517   */\n      dup4\n        /* \"#utility.yul\":15501:15531   */\n      calldatacopy\n        /* \"#utility.yul\":15586:15587   */\n      0x00\n        /* \"#utility.yul\":15577:15583   */\n      dup4\n        /* \"#utility.yul\":15572:15575   */\n      dup4\n        /* \"#utility.yul\":15568:15584   */\n      add\n        /* \"#utility.yul\":15561:15588   */\n      mstore\n        /* \"#utility.yul\":15440:15594   */\n      pop\n      pop\n      pop\n      jump\t// out\n        /* \"#utility.yul\":15600:15907   */\n    tag_284:\n        /* \"#utility.yul\":15668:15669   */\n      0x00\n        /* \"#utility.yul\":15678:15791   */\n    tag_397:\n        /* \"#utility.yul\":15692:15698   */\n      dup4\n        /* \"#utility.yul\":15689:15690   */\n      dup2\n        /* \"#utility.yul\":15686:15699   */\n      lt\n        /* \"#utility.yul\":15678:15791   */\n      iszero\n      tag_399\n      jumpi\n        /* \"#utility.yul\":15777:15778   */\n      dup1\n        /* \"#utility.yul\":15772:15775   */\n      dup3\n        /* \"#utility.yul\":15768:15779   */\n      add\n        /* \"#utility.yul\":15762:15780   */\n      mload\n        /* \"#utility.yul\":15758:15759   */\n      dup2\n        /* \"#utility.yul\":15753:15756   */\n      dup5\n        /* \"#utility.yul\":15749:15760   */\n      add\n        /* \"#utility.yul\":15742:15781   */\n      mstore\n        /* \"#utility.yul\":15714:15716   */\n      0x20\n        /* \"#utility.yul\":15711:15712   */\n      dup2\n        /* \"#utility.yul\":15707:15717   */\n      add\n        /* \"#utility.yul\":15702:15717   */\n      swap1\n      pop\n        /* \"#utility.yul\":15678:15791   */\n      jump(tag_397)\n    tag_399:\n        /* \"#utility.yul\":15809:15815   */\n      dup4\n        /* \"#utility.yul\":15806:15807   */\n      dup2\n        /* \"#utility.yul\":15803:15816   */\n      gt\n        /* \"#utility.yul\":15800:15901   */\n      iszero\n      tag_400\n      jumpi\n        /* \"#utility.yul\":15889:15890   */\n      0x00\n        /* \"#utility.yul\":15880:15886   */\n      dup5\n        /* \"#utility.yul\":15875:15878   */\n      dup5\n        /* \"#utility.yul\":15871:15887   */\n      add\n        /* \"#utility.yul\":15864:15891   */\n      mstore\n        /* \"#utility.yul\":15800:15901   */\n    tag_400:\n        /* \"#utility.yul\":15649:15907   */\n      pop\n        /* \"#utility.yul\":15600:15907   */\n      pop\n      pop\n      pop\n      jump\t// out\n        /* \"#utility.yul\":15913:16233   */\n    tag_86:\n        /* \"#utility.yul\":15957:15963   */\n      0x00\n        /* \"#utility.yul\":15994:15995   */\n      0x02\n        /* \"#utility.yul\":15988:15992   */\n      dup3\n        /* \"#utility.yul\":15984:15996   */\n      div\n        /* \"#utility.yul\":15974:15996   */\n      swap1\n      pop\n        /* \"#utility.yul\":16041:16042   */\n      0x01\n        /* \"#utility.yul\":16035:16039   */\n      dup3\n        /* \"#utility.yul\":16031:16043   */\n      and\n        /* \"#utility.yul\":16062:16080   */\n      dup1\n        /* \"#utility.yul\":16052:16133   */\n      tag_402\n      jumpi\n        /* \"#utility.yul\":16118:16122   */\n      0x7f\n        /* \"#utility.yul\":16110:16116   */\n      dup3\n        /* \"#utility.yul\":16106:16123   */\n      and\n        /* \"#utility.yul\":16096:16123   */\n      swap2\n      pop\n        /* \"#utility.yul\":16052:16133   */\n    tag_402:\n        /* \"#utility.yul\":16180:16182   */\n      0x20\n        /* \"#utility.yul\":16172:16178   */\n      dup3\n        /* \"#utility.yul\":16169:16183   */\n      lt\n        /* \"#utility.yul\":16149:16167   */\n      dup2\n        /* \"#utility.yul\":16146:16184   */\n      eq\n        /* \"#utility.yul\":16143:16227   */\n      iszero\n      tag_403\n      jumpi\n        /* \"#utility.yul\":16199:16217   */\n      tag_404\n      tag_405\n      jump\t// in\n    tag_404:\n        /* \"#utility.yul\":16143:16227   */\n    tag_403:\n        /* \"#utility.yul\":15964:16233   */\n      pop\n        /* \"#utility.yul\":15913:16233   */\n      swap2\n      swap1\n      pop\n      jump\t// out\n        /* \"#utility.yul\":16239:16520   */\n    tag_365:\n        /* \"#utility.yul\":16322:16349   */\n      tag_407\n        /* \"#utility.yul\":16344:16348   */\n      dup3\n        /* \"#utility.yul\":16322:16349   */\n      tag_286\n      jump\t// in\n    tag_407:\n        /* \"#utility.yul\":16314:16320   */\n      dup2\n        /* \"#utility.yul\":16310:16350   */\n      add\n        /* \"#utility.yul\":16452:16458   */\n      dup2\n        /* \"#utility.yul\":16440:16450   */\n      dup2\n        /* \"#utility.yul\":16437:16459   */\n      lt\n        /* \"#utility.yul\":16416:16434   */\n      0xffffffffffffffff\n        /* \"#utility.yul\":16404:16414   */\n      dup3\n        /* \"#utility.yul\":16401:16435   */\n      gt\n        /* \"#utility.yul\":16398:16460   */\n      or\n        /* \"#utility.yul\":16395:16483   */\n      iszero\n      tag_408\n      jumpi\n        /* \"#utility.yul\":16463:16481   */\n      tag_409\n      tag_370\n      jump\t// in\n    tag_409:\n        /* \"#utility.yul\":16395:16483   */\n    tag_408:\n        /* \"#utility.yul\":16503:16513   */\n      dup1\n        /* \"#utility.yul\":16499:16501   */\n      0x40\n        /* \"#utility.yul\":16492:16514   */\n      mstore\n        /* \"#utility.yul\":16282:16520   */\n      pop\n        /* \"#utility.yul\":16239:16520   */\n      pop\n      pop\n      jump\t// out\n        /* \"#utility.yul\":16526:16759   */\n    tag_128:\n        /* \"#utility.yul\":16565:16568   */\n      0x00\n        /* \"#utility.yul\":16588:16612   */\n      tag_411\n        /* \"#utility.yul\":16606:16611   */\n      dup3\n        /* \"#utility.yul\":16588:16612   */\n      tag_309\n      jump\t// in\n    tag_411:\n        /* \"#utility.yul\":16579:16612   */\n      swap2\n      pop\n        /* \"#utility.yul\":16634:16700   */\n      0xffffffffffffffffffffffffffffffffffffffffffffffffffffffffffffffff\n        /* \"#utility.yul\":16627:16632   */\n      dup3\n        /* \"#utility.yul\":16624:16701   */\n      eq\n        /* \"#utility.yul\":16621:16724   */\n      iszero\n      tag_412\n      jumpi\n        /* \"#utility.yul\":16704:16722   */\n      tag_413\n      tag_414\n      jump\t// in\n    tag_413:\n        /* \"#utility.yul\":16621:16724   */\n    tag_412:\n        /* \"#utility.yul\":16751:16752   */\n      0x01\n        /* \"#utility.yul\":16744:16749   */\n      dup3\n        /* \"#utility.yul\":16740:16753   */\n      add\n        /* \"#utility.yul\":16733:16753   */\n      swap1\n      pop\n        /* \"#utility.yul\":16526:16759   */\n      swap2\n      swap1\n      pop\n      jump\t// out\n        /* \"#utility.yul\":16765:16945   */\n    tag_414:\n        /* \"#utility.yul\":16813:16890   */\n      0x4e487b7100000000000000000000000000000000000000000000000000000000\n        /* \"#utility.yul\":16810:16811   */\n      0x00\n        /* \"#utility.yul\":16803:16891   */\n      mstore\n        /* \"#utility.yul\":16910:16914   */\n      0x11\n        /* \"#utility.yul\":16907:16908   */\n      0x04\n        /* \"#utility.yul\":16900:16915   */\n      mstore\n        /* \"#utility.yul\":16934:16938   */\n      0x24\n        /* \"#utility.yul\":16931:16932   */\n      0x00\n        /* \"#utility.yul\":16924:16939   */\n      revert\n        /* \"#utility.yul\":16951:17131   */\n    tag_103:\n        /* \"#utility.yul\":16999:17076   */\n      0x4e487b7100000000000000000000000000000000000000000000000000000000\n        /* \"#utility.yul\":16996:16997   */\n      0x00\n        /* \"#utility.yul\":16989:17077   */\n      mstore\n        /* \"#utility.yul\":17096:17100   */\n      0x21\n        /* \"#utility.yul\":17093:17094   */\n      0x04\n        /* \"#utility.yul\":17086:17101   */\n      mstore\n        /* \"#utility.yul\":17120:17124   */\n      0x24\n        /* \"#utility.yul\":17117:17118   */\n      0x00\n        /* \"#utility.yul\":17110:17125   */\n      revert\n        /* \"#utility.yul\":17137:17317   */\n    tag_405:\n        /* \"#utility.yul\":17185:17262   */\n      0x4e487b7100000000000000000000000000000000000000000000000000000000\n        /* \"#utility.yul\":17182:17183   */\n      0x00\n        /* \"#utility.yul\":17175:17263   */\n      mstore\n        /* \"#utility.yul\":17282:17286   */\n      0x22\n        /* \"#utility.yul\":17279:17280   */\n      0x04\n        /* \"#utility.yul\":17272:17287   */\n      mstore\n        /* \"#utility.yul\":17306:17310   */\n      0x24\n        /* \"#utility.yul\":17303:17304   */\n      0x00\n        /* \"#utility.yul\":17296:17311   */\n      revert\n        /* \"#utility.yul\":17323:17503   */\n    tag_370:\n        /* \"#utility.yul\":17371:17448   */\n      0x4e487b7100000000000000000000000000000000000000000000000000000000\n        /* \"#utility.yul\":17368:17369   */\n      0x00\n        /* \"#utility.yul\":17361:17449   */\n      mstore\n        /* \"#utility.yul\":17468:17472   */\n      0x41\n        /* \"#utility.yul\":17465:17466   */\n      0x04\n        /* \"#utility.yul\":17458:17473   */\n      mstore\n        /* \"#utility.yul\":17492:17496   */\n      0x24\n        /* \"#utility.yul\":17489:17490   */\n      0x00\n        /* \"#utility.yul\":17482:17497   */\n      revert\n        /* \"#utility.yul\":17509:17626   */\n    tag_208:\n        /* \"#utility.yul\":17618:17619   */\n      0x00\n        /* \"#utility.yul\":17615:17616   */\n      dup1\n        /* \"#utility.yul\":17608:17620   */\n      revert\n        /* \"#utility.yul\":17632:17749   */\n    tag_197:\n        /* \"#utility.yul\":17741:17742   */\n      0x00\n        /* \"#utility.yul\":17738:17739   */\n      dup1\n        /* \"#utility.yul\":17731:17743   */\n      revert\n        /* \"#utility.yul\":17755:17872   */\n    tag_242:\n        /* \"#utility.yul\":17864:17865   */\n      0x00\n        /* \"#utility.yul\":17861:17862   */\n      dup1\n        /* \"#utility.yul\":17854:17866   */\n      revert\n        /* \"#utility.yul\":17878:17995   */\n    tag_225:\n        /* \"#utility.yul\":17987:17988   */\n      0x00\n        /* \"#utility.yul\":17984:17985   */\n      dup1\n        /* \"#utility.yul\":17977:17989   */\n      revert\n        /* \"#utility.yul\":18001:18103   */\n    tag_286:\n        /* \"#utility.yul\":18042:18048   */\n      0x00\n        /* \"#utility.yul\":18093:18095   */\n      0x1f\n        /* \"#utility.yul\":18089:18096   */\n      not\n        /* \"#utility.yul\":18084:18086   */\n      0x1f\n        /* \"#utility.yul\":18077:18082   */\n      dup4\n        /* \"#utility.yul\":18073:18087   */\n      add\n        /* \"#utility.yul\":18069:18097   */\n      and\n        /* \"#utility.yul\":18059:18097   */\n      swap1\n      pop\n        /* \"#utility.yul\":18001:18103   */\n      swap2\n      swap1\n      pop\n      jump\t// out\n        /* \"#utility.yul\":18109:18276   */\n    tag_291:\n        /* \"#utility.yul\":18249:18268   */\n      0x4b697369206d657663757420646567696c000000000000000000000000000000\n        /* \"#utility.yul\":18245:18246   */\n      0x00\n        /* \"#utility.yul\":18237:18243   */\n      dup3\n        /* \"#utility.yul\":18233:18247   */\n      add\n        /* \"#utility.yul\":18226:18269   */\n      mstore\n        /* \"#utility.yul\":18109:18276   */\n      pop\n      jump\t// out\n        /* \"#utility.yul\":18282:18464   */\n    tag_296:\n        /* \"#utility.yul\":18422:18456   */\n      0x42752069736c656d6920736164656365204b757273207961706162696c69722e\n        /* \"#utility.yul\":18418:18419   */\n      0x00\n        /* \"#utility.yul\":18410:18416   */\n      dup3\n        /* \"#utility.yul\":18406:18420   */\n      add\n        /* \"#utility.yul\":18399:18457   */\n      mstore\n        /* \"#utility.yul\":18282:18464   */\n      pop\n      jump\t// out\n        /* \"#utility.yul\":18470:18587   */\n    tag_381:\n        /* \"#utility.yul\":18555:18556   */\n      0x03\n        /* \"#utility.yul\":18548:18553   */\n      dup2\n        /* \"#utility.yul\":18545:18557   */\n      lt\n        /* \"#utility.yul\":18535:18581   */\n      tag_427\n      jumpi\n        /* \"#utility.yul\":18561:18579   */\n      tag_428\n      tag_103\n      jump\t// in\n    tag_428:\n        /* \"#utility.yul\":18535:18581   */\n    tag_427:\n        /* \"#utility.yul\":18470:18587   */\n      pop\n      jump\t// out\n        /* \"#utility.yul\":18593:18706   */\n    tag_385:\n        /* \"#utility.yul\":18674:18675   */\n      0x04\n        /* \"#utility.yul\":18667:18672   */\n      dup2\n        /* \"#utility.yul\":18664:18676   */\n      lt\n        /* \"#utility.yul\":18654:18700   */\n      tag_430\n      jumpi\n        /* \"#utility.yul\":18680:18698   */\n      tag_431\n      tag_103\n      jump\t// in\n    tag_431:\n        /* \"#utility.yul\":18654:18700   */\n    tag_430:\n        /* \"#utility.yul\":18593:18706   */\n      pop\n      jump\t// out\n        /* \"#utility.yul\":18712:18834   */\n    tag_203:\n        /* \"#utility.yul\":18785:18809   */\n      tag_433\n        /* \"#utility.yul\":18803:18808   */\n      dup2\n        /* \"#utility.yul\":18785:18809   */\n      tag_261\n      jump\t// in\n    tag_433:\n        /* \"#utility.yul\":18778:18783   */\n      dup2\n        /* \"#utility.yul\":18775:18810   */\n      eq\n        /* \"#utility.yul\":18765:18828   */\n      tag_434\n      jumpi\n        /* \"#utility.yul\":18824:18825   */\n      0x00\n        /* \"#utility.yul\":18821:18822   */\n      dup1\n        /* \"#utility.yul\":18814:18826   */\n      revert\n        /* \"#utility.yul\":18765:18828   */\n    tag_434:\n        /* \"#utility.yul\":18712:18834   */\n      pop\n      jump\t// out\n        /* \"#utility.yul\":18840:18962   */\n    tag_213:\n        /* \"#utility.yul\":18913:18937   */\n      tag_436\n        /* \"#utility.yul\":18931:18936   */\n      dup2\n        /* \"#utility.yul\":18913:18937   */\n      tag_309\n      jump\t// in\n    tag_436:\n        /* \"#utility.yul\":18906:18911   */\n      dup2\n        /* \"#utility.yul\":18903:18938   */\n      eq\n        /* \"#utility.yul\":18893:18956   */\n      tag_437\n      jumpi\n        /* \"#utility.yul\":18952:18953   */\n      0x00\n        /* \"#utility.yul\":18949:18950   */\n      dup1\n        /* \"#utility.yul\":18942:18954   */\n      revert\n        /* \"#utility.yul\":18893:18956   */\n    tag_437:\n        /* \"#utility.yul\":18840:18962   */\n      pop\n      jump\t// out\n        /* \"#utility.yul\":18968:19088   */\n    tag_217:\n        /* \"#utility.yul\":19040:19063   */\n      tag_439\n        /* \"#utility.yul\":19057:19062   */\n      dup2\n        /* \"#utility.yul\":19040:19063   */\n      tag_316\n      jump\t// in\n    tag_439:\n        /* \"#utility.yul\":19033:19038   */\n      dup2\n        /* \"#utility.yul\":19030:19064   */\n      eq\n        /* \"#utility.yul\":19020:19082   */\n      tag_440\n      jumpi\n        /* \"#utility.yul\":19078:19079   */\n      0x00\n        /* \"#utility.yul\":19075:19076   */\n      dup1\n        /* \"#utility.yul\":19068:19080   */\n      revert\n        /* \"#utility.yul\":19020:19082   */\n    tag_440:\n        /* \"#utility.yul\":18968:19088   */\n      pop\n      jump\t// out\n        /* \"#utility.yul\":19094:19212   */\n    tag_221:\n        /* \"#utility.yul\":19165:19187   */\n      tag_442\n        /* \"#utility.yul\":19181:19186   */\n      dup2\n        /* \"#utility.yul\":19165:19187   */\n      tag_320\n      jump\t// in\n    tag_442:\n        /* \"#utility.yul\":19158:19163   */\n      dup2\n        /* \"#utility.yul\":19155:19188   */\n      eq\n        /* \"#utility.yul\":19145:19206   */\n      tag_443\n      jumpi\n        /* \"#utility.yul\":19202:19203   */\n      0x00\n        /* \"#utility.yul\":19199:19200   */\n      dup1\n        /* \"#utility.yul\":19192:19204   */\n      revert\n        /* \"#utility.yul\":19145:19206   */\n    tag_443:\n        /* \"#utility.yul\":19094:19212   */\n      pop\n      jump\t// out\n\n    auxdata: 0xa26469706673582212201d6381e5f64dc70d102cddc37db1c258d4e961713e822ebf97d452f1312aa16364736f6c63430008070033\n}\n",
				"bytecode": {
					"linkReferences": {},
					"object": "608060405234801561001057600080fd5b50612534806100206000396000f3fe608060405234801561001057600080fd5b50600436106100ea5760003560e01c806398522fd61161008c578063af640d0f11610066578063af640d0f146102b5578063ba479b7e146102d3578063cbc9280914610308578063d5070f4314610338576100ea565b806398522fd6146102365780639a8c911914610252578063a4e7ae0514610284576100ea565b8063356b1f1e116100c8578063356b1f1e1461018357806339987f94146101b55780636dac86de146101e85780637d0fa28714610204576100ea565b80631916e139146100ef5780631957b59f146101215780632826669714610151575b600080fd5b61010960048036038101906101049190611b9e565b61036e565b60405161011893929190611f9e565b60405180910390f35b61013b60048036038101906101369190611c0b565b61043a565b6040516101489190612068565b60405180910390f35b61016b60048036038101906101669190611b9e565b610897565b60405161017a93929190611f9e565b60405180910390f35b61019d60048036038101906101989190611b9e565b610963565b6040516101ac93929190611f9e565b60405180910390f35b6101cf60048036038101906101ca9190611b9e565b610a2f565b6040516101df9493929190611fdc565b60405180910390f35b61020260048036038101906101fd9190611cb4565b610b01565b005b61021e60048036038101906102199190611b9e565b610f72565b60405161022d93929190611f9e565b60405180910390f35b610250600480360381019061024b9190611cb4565b61103e565b005b61026c60048036038101906102679190611b9e565b611541565b60405161027b93929190611f9e565b60405180910390f35b61029e60048036038101906102999190611d4b565b61160d565b6040516102ac9291906120fa565b60405180910390f35b6102bd6116c9565b6040516102ca9190612068565b60405180910390f35b6102ed60048036038101906102e89190611b9e565b6116cf565b6040516102ff96959493929190611f2f565b60405180910390f35b610322600480360381019061031d9190611b9e565b611863565b60405161032f9190611f14565b60405180910390f35b610352600480360381019061034d9190611bcb565b61188e565b6040516103659796959493929190612083565b60405180910390f35b60076020528060005260406000206000915090508060000160009054906101000a900460ff16908060010180546103a49061229b565b80601f01602080910402602001604051908101604052809291908181526020018280546103d09061229b565b801561041d5780601f106103f25761010080835404028352916020019161041d565b820191906000526020600020905b81548152906001019060200180831161040057829003601f168201915b5050505050908060020160009054906101000a900460ff16905083565b6000600760003373ffffffffffffffffffffffffffffffffffffffff1673ffffffffffffffffffffffffffffffffffffffff16815260200190815260200160002060000160009054906101000a900460ff166104cb576040517f08c379a00000000000000000000000000000000000000000000000000000000081526004016104c290612048565b60405180910390fd5b600360008873ffffffffffffffffffffffffffffffffffffffff1673ffffffffffffffffffffffffffffffffffffffff16815260200190815260200160002060000160009054906101000a900460ff1661055a576040517f08c379a000000000000000000000000000000000000000000000000000000000815260040161055190612028565b60405180910390fd5b84600d60008973ffffffffffffffffffffffffffffffffffffffff1673ffffffffffffffffffffffffffffffffffffffff16815260200190815260200160002060008881526020019081526020016000206002018190555083600d60008973ffffffffffffffffffffffffffffffffffffffff1673ffffffffffffffffffffffffffffffffffffffff16815260200190815260200160002060008881526020019081526020016000206003018190555082600d60008973ffffffffffffffffffffffffffffffffffffffff1673ffffffffffffffffffffffffffffffffffffffff168152602001908152602001600020600088815260200190815260200160002060040160006101000a81548160ff021916908360ff16021790555081600d60008973ffffffffffffffffffffffffffffffffffffffff1673ffffffffffffffffffffffffffffffffffffffff168152602001908152602001600020600088815260200190815260200160002060050190805190602001906106dd929190611a37565b506001600d60008973ffffffffffffffffffffffffffffffffffffffff1673ffffffffffffffffffffffffffffffffffffffff168152602001908152602001600020600088815260200190815260200160002060060160010160146101000a81548160ff0219169083600281111561075857610757612376565b5b021790555042600d60008973ffffffffffffffffffffffffffffffffffffffff1673ffffffffffffffffffffffffffffffffffffffff16815260200190815260200160002060008881526020019081526020016000206006016000018190555033600d60008973ffffffffffffffffffffffffffffffffffffffff1673ffffffffffffffffffffffffffffffffffffffff168152602001908152602001600020600088815260200190815260200160002060060160010160006101000a81548173ffffffffffffffffffffffffffffffffffffffff021916908373ffffffffffffffffffffffffffffffffffffffff1602179055507f5b7688c1644640dbb13a9ad41480f887d3ac1d5c306de6d9fc69e11fe7095562878686866040516108829493929190611ecf565b60405180910390a18590509695505050505050565b60046020528060005260406000206000915090508060000160009054906101000a900460ff16908060010180546108cd9061229b565b80601f01602080910402602001604051908101604052809291908181526020018280546108f99061229b565b80156109465780601f1061091b57610100808354040283529160200191610946565b820191906000526020600020905b81548152906001019060200180831161092957829003601f168201915b5050505050908060020160009054906101000a900460ff16905083565b600a6020528060005260406000206000915090508060000160009054906101000a900460ff16908060010180546109999061229b565b80601f01602080910402602001604051908101604052809291908181526020018280546109c59061229b565b8015610a125780601f106109e757610100808354040283529160200191610a12565b820191906000526020600020905b8154815290600101906020018083116109f557829003601f168201915b5050505050908060020160009054906101000a900460ff16905083565b60066020528060005260406000206000915090508060000160009054906101000a900460ff16908060000160019054906101000a900460ff1690806001015490806002018054610a7e9061229b565b80601f0160208091040260200160405190810160405280929190818152602001828054610aaa9061229b565b8015610af75780601f10610acc57610100808354040283529160200191610af7565b820191906000526020600020905b815481529060010190602001808311610ada57829003601f168201915b5050505050905084565b600760003373ffffffffffffffffffffffffffffffffffffffff1673ffffffffffffffffffffffffffffffffffffffff16815260200190815260200160002060000160009054906101000a900460ff16610b90576040517f08c379a0000000000000000000000000000000000000000000000000000000008152600401610b8790612048565b60405180910390fd5b600360008673ffffffffffffffffffffffffffffffffffffffff1673ffffffffffffffffffffffffffffffffffffffff16815260200190815260200160002060000160009054906101000a900460ff16610c1f576040517f08c379a0000000000000000000000000000000000000000000000000000000008152600401610c1690612028565b60405180910390fd5b6000600c6000815480929190610c34906122fe565b91905055905084600d60008873ffffffffffffffffffffffffffffffffffffffff1673ffffffffffffffffffffffffffffffffffffffff16815260200190815260200160002060008381526020019081526020016000206002018190555083600d60008873ffffffffffffffffffffffffffffffffffffffff1673ffffffffffffffffffffffffffffffffffffffff16815260200190815260200160002060008381526020019081526020016000206003018190555082600d60008873ffffffffffffffffffffffffffffffffffffffff1673ffffffffffffffffffffffffffffffffffffffff168152602001908152602001600020600083815260200190815260200160002060040160006101000a81548160ff021916908360ff16021790555081600d60008873ffffffffffffffffffffffffffffffffffffffff1673ffffffffffffffffffffffffffffffffffffffff16815260200190815260200160002060008381526020019081526020016000206005019080519060200190610dbd929190611a37565b506001600d60008873ffffffffffffffffffffffffffffffffffffffff1673ffffffffffffffffffffffffffffffffffffffff168152602001908152602001600020600083815260200190815260200160002060060160010160146101000a81548160ff02191690836002811115610e3857610e37612376565b5b021790555042600d60008873ffffffffffffffffffffffffffffffffffffffff1673ffffffffffffffffffffffffffffffffffffffff16815260200190815260200160002060008381526020019081526020016000206006016000018190555033600d60008873ffffffffffffffffffffffffffffffffffffffff1673ffffffffffffffffffffffffffffffffffffffff168152602001908152602001600020600083815260200190815260200160002060060160010160006101000a81548173ffffffffffffffffffffffffffffffffffffffff021916908373ffffffffffffffffffffffffffffffffffffffff1602179055507fceeb2cb6b3cfcd4203736ec1a776bc065e4ff58f126ddc27b185fe94e5e2ff9e86868686604051610f629493929190611ecf565b60405180910390a1505050505050565b60086020528060005260406000206000915090508060000160009054906101000a900460ff1690806001018054610fa89061229b565b80601f0160208091040260200160405190810160405280929190818152602001828054610fd49061229b565b80156110215780601f10610ff657610100808354040283529160200191611021565b820191906000526020600020905b81548152906001019060200180831161100457829003601f168201915b5050505050908060020160009054906101000a900460ff16905083565b600760003373ffffffffffffffffffffffffffffffffffffffff1673ffffffffffffffffffffffffffffffffffffffff16815260200190815260200160002060000160009054906101000a900460ff166110cd576040517f08c379a00000000000000000000000000000000000000000000000000000000081526004016110c490612048565b60405180910390fd5b600360003373ffffffffffffffffffffffffffffffffffffffff1673ffffffffffffffffffffffffffffffffffffffff16815260200190815260200160002060000160009054906101000a900460ff1661115c576040517f08c379a000000000000000000000000000000000000000000000000000000000815260040161115390612028565b60405180910390fd5b6000600c6000815480929190611171906122fe565b91905055905085600d60003373ffffffffffffffffffffffffffffffffffffffff1673ffffffffffffffffffffffffffffffffffffffff168152602001908152602001600020600083815260200190815260200160002060010160006101000a81548173ffffffffffffffffffffffffffffffffffffffff021916908373ffffffffffffffffffffffffffffffffffffffff16021790555084600d60003373ffffffffffffffffffffffffffffffffffffffff1673ffffffffffffffffffffffffffffffffffffffff16815260200190815260200160002060008381526020019081526020016000206002018190555083600d60003373ffffffffffffffffffffffffffffffffffffffff1673ffffffffffffffffffffffffffffffffffffffff16815260200190815260200160002060008381526020019081526020016000206003018190555082600d60003373ffffffffffffffffffffffffffffffffffffffff1673ffffffffffffffffffffffffffffffffffffffff168152602001908152602001600020600083815260200190815260200160002060040160006101000a81548160ff021916908360ff16021790555081600d60003373ffffffffffffffffffffffffffffffffffffffff1673ffffffffffffffffffffffffffffffffffffffff1681526020019081526020016000206000838152602001908152602001600020600501908051906020019061138c929190611a37565b506001600d60003373ffffffffffffffffffffffffffffffffffffffff1673ffffffffffffffffffffffffffffffffffffffff168152602001908152602001600020600083815260200190815260200160002060060160010160146101000a81548160ff0219169083600281111561140757611406612376565b5b021790555042600d60003373ffffffffffffffffffffffffffffffffffffffff1673ffffffffffffffffffffffffffffffffffffffff16815260200190815260200160002060008381526020019081526020016000206006016000018190555033600d60003373ffffffffffffffffffffffffffffffffffffffff1673ffffffffffffffffffffffffffffffffffffffff168152602001908152602001600020600083815260200190815260200160002060060160010160006101000a81548173ffffffffffffffffffffffffffffffffffffffff021916908373ffffffffffffffffffffffffffffffffffffffff1602179055507fceeb2cb6b3cfcd4203736ec1a776bc065e4ff58f126ddc27b185fe94e5e2ff9e868686866040516115319493929190611ecf565b60405180910390a1505050505050565b60096020528060005260406000206000915090508060000160009054906101000a900460ff16908060010180546115779061229b565b80601f01602080910402602001604051908101604052809291908181526020018280546115a39061229b565b80156115f05780601f106115c5576101008083540402835291602001916115f0565b820191906000526020600020905b8154815290600101906020018083116115d357829003601f168201915b5050505050908060020160009054906101000a900460ff16905083565b600b6020528060005260406000206000915090508060000160009054906101000a900463ffffffff16908060010180546116469061229b565b80601f01602080910402602001604051908101604052809291908181526020018280546116729061229b565b80156116bf5780601f10611694576101008083540402835291602001916116bf565b820191906000526020600020905b8154815290600101906020018083116116a257829003601f168201915b5050505050905082565b600c5481565b60056020528060005260406000206000915090508060000160009054906101000a900460ff16908060000160019054906101000a900473ffffffffffffffffffffffffffffffffffffffff16908060000160159054906101000a900461ffff16908060000160179054906101000a900460ff16908060010180546117529061229b565b80601f016020809104026020016040519081016040528092919081815260200182805461177e9061229b565b80156117cb5780601f106117a0576101008083540402835291602001916117cb565b820191906000526020600020905b8154815290600101906020018083116117ae57829003601f168201915b5050505050908060020180546117e09061229b565b80601f016020809104026020016040519081016040528092919081815260200182805461180c9061229b565b80156118595780601f1061182e57610100808354040283529160200191611859565b820191906000526020600020905b81548152906001019060200180831161183c57829003601f168201915b5050505050905086565b60036020528060005260406000206000915090508060000160009054906101000a900460ff16905081565b600d602052816000526040600020602052806000526040600020600091509150508060000154908060010160009054906101000a900473ffffffffffffffffffffffffffffffffffffffff16908060020154908060030154908060040160009054906101000a900460ff16908060050180546119099061229b565b80601f01602080910402602001604051908101604052809291908181526020018280546119359061229b565b80156119825780601f1061195757610100808354040283529160200191611982565b820191906000526020600020905b81548152906001019060200180831161196557829003601f168201915b50505050509080600601604051806060016040529081600082015481526020016001820160009054906101000a900473ffffffffffffffffffffffffffffffffffffffff1673ffffffffffffffffffffffffffffffffffffffff1673ffffffffffffffffffffffffffffffffffffffff1681526020016001820160149054906101000a900460ff166002811115611a1c57611a1b612376565b5b6002811115611a2e57611a2d612376565b5b81525050905087565b828054611a439061229b565b90600052602060002090601f016020900481019282611a655760008555611aac565b82601f10611a7e57805160ff1916838001178555611aac565b82800160010185558215611aac579182015b82811115611aab578251825591602001919060010190611a90565b5b509050611ab99190611abd565b5090565b5b80821115611ad6576000816000905550600101611abe565b5090565b6000611aed611ae88461214f565b61212a565b905082815260208101848484011115611b0957611b08612408565b5b611b14848285612259565b509392505050565b600081359050611b2b816124a2565b92915050565b600082601f830112611b4657611b45612403565b5b8135611b56848260208601611ada565b91505092915050565b600081359050611b6e816124b9565b92915050565b600081359050611b83816124d0565b92915050565b600081359050611b98816124e7565b92915050565b600060208284031215611bb457611bb3612412565b5b6000611bc284828501611b1c565b91505092915050565b60008060408385031215611be257611be1612412565b5b6000611bf085828601611b1c565b9250506020611c0185828601611b5f565b9150509250929050565b60008060008060008060c08789031215611c2857611c27612412565b5b6000611c3689828a01611b1c565b9650506020611c4789828a01611b5f565b9550506040611c5889828a01611b5f565b9450506060611c6989828a01611b5f565b9350506080611c7a89828a01611b89565b92505060a087013567ffffffffffffffff811115611c9b57611c9a61240d565b5b611ca789828a01611b31565b9150509295509295509295565b600080600080600060a08688031215611cd057611ccf612412565b5b6000611cde88828901611b1c565b9550506020611cef88828901611b5f565b9450506040611d0088828901611b5f565b9350506060611d1188828901611b89565b925050608086013567ffffffffffffffff811115611d3257611d3161240d565b5b611d3e88828901611b31565b9150509295509295909350565b600060208284031215611d6157611d60612412565b5b6000611d6f84828501611b74565b91505092915050565b611d818161219c565b82525050565b611d908161219c565b82525050565b611d9f816121ae565b82525050565b611dae81612235565b82525050565b611dbd81612247565b82525050565b6000611dce82612180565b611dd8818561218b565b9350611de8818560208601612268565b611df181612417565b840191505092915050565b6000611e0960118361218b565b9150611e1482612428565b602082019050919050565b6000611e2c60208361218b565b9150611e3782612451565b602082019050919050565b606082016000820151611e586000850182611e93565b506020820151611e6b6020850182611d78565b506040820151611e7e6040850182611da5565b50505050565b611e8d816121e0565b82525050565b611e9c8161220e565b82525050565b611eab8161220e565b82525050565b611eba81612218565b82525050565b611ec981612228565b82525050565b6000608082019050611ee46000830187611d87565b611ef16020830186611ea2565b611efe6040830185611ea2565b611f0b6060830184611ec0565b95945050505050565b6000602082019050611f296000830184611d96565b92915050565b600060c082019050611f446000830189611d96565b611f516020830188611d87565b611f5e6040830187611e84565b611f6b6060830186611db4565b8181036080830152611f7d8185611dc3565b905081810360a0830152611f918184611dc3565b9050979650505050505050565b6000606082019050611fb36000830186611d96565b8181036020830152611fc58185611dc3565b9050611fd46040830184611ec0565b949350505050565b6000608082019050611ff16000830187611d96565b611ffe6020830186611ec0565b61200b6040830185611ea2565b818103606083015261201d8184611dc3565b905095945050505050565b6000602082019050818103600083015261204181611dfc565b9050919050565b6000602082019050818103600083015261206181611e1f565b9050919050565b600060208201905061207d6000830184611ea2565b92915050565b600061012082019050612099600083018a611ea2565b6120a66020830189611d87565b6120b36040830188611ea2565b6120c06060830187611ea2565b6120cd6080830186611ec0565b81810360a08301526120df8185611dc3565b90506120ee60c0830184611e42565b98975050505050505050565b600060408201905061210f6000830185611eb1565b81810360208301526121218184611dc3565b90509392505050565b6000612134612145565b905061214082826122cd565b919050565b6000604051905090565b600067ffffffffffffffff82111561216a576121696123d4565b5b61217382612417565b9050602081019050919050565b600081519050919050565b600082825260208201905092915050565b60006121a7826121ee565b9050919050565b60008115159050919050565b60008190506121c88261247a565b919050565b60008190506121db8261248e565b919050565b600061ffff82169050919050565b600073ffffffffffffffffffffffffffffffffffffffff82169050919050565b6000819050919050565b600063ffffffff82169050919050565b600060ff82169050919050565b6000612240826121ba565b9050919050565b6000612252826121cd565b9050919050565b82818337600083830152505050565b60005b8381101561228657808201518184015260208101905061226b565b83811115612295576000848401525b50505050565b600060028204905060018216806122b357607f821691505b602082108114156122c7576122c66123a5565b5b50919050565b6122d682612417565b810181811067ffffffffffffffff821117156122f5576122f46123d4565b5b80604052505050565b60006123098261220e565b91507fffffffffffffffffffffffffffffffffffffffffffffffffffffffffffffffff82141561233c5761233b612347565b5b600182019050919050565b7f4e487b7100000000000000000000000000000000000000000000000000000000600052601160045260246000fd5b7f4e487b7100000000000000000000000000000000000000000000000000000000600052602160045260246000fd5b7f4e487b7100000000000000000000000000000000000000000000000000000000600052602260045260246000fd5b7f4e487b7100000000000000000000000000000000000000000000000000000000600052604160045260246000fd5b600080fd5b600080fd5b600080fd5b600080fd5b6000601f19601f8301169050919050565b7f4b697369206d657663757420646567696c000000000000000000000000000000600082015250565b7f42752069736c656d6920736164656365204b757273207961706162696c69722e600082015250565b6003811061248b5761248a612376565b5b50565b6004811061249f5761249e612376565b5b50565b6124ab8161219c565b81146124b657600080fd5b50565b6124c28161220e565b81146124cd57600080fd5b50565b6124d981612218565b81146124e457600080fd5b50565b6124f081612228565b81146124fb57600080fd5b5056fea26469706673582212201d6381e5f64dc70d102cddc37db1c258d4e961713e822ebf97d452f1312aa16364736f6c63430008070033",
					"opcodes": "PUSH1 0x80 PUSH1 0x40 MSTORE CALLVALUE DUP1 ISZERO PUSH2 0x10 JUMPI PUSH1 0x0 DUP1 REVERT JUMPDEST POP PUSH2 0x2534 DUP1 PUSH2 0x20 PUSH1 0x0 CODECOPY PUSH1 0x0 RETURN INVALID PUSH1 0x80 PUSH1 0x40 MSTORE CALLVALUE DUP1 ISZERO PUSH2 0x10 JUMPI PUSH1 0x0 DUP1 REVERT JUMPDEST POP PUSH1 0x4 CALLDATASIZE LT PUSH2 0xEA JUMPI PUSH1 0x0 CALLDATALOAD PUSH1 0xE0 SHR DUP1 PUSH4 0x98522FD6 GT PUSH2 0x8C JUMPI DUP1 PUSH4 0xAF640D0F GT PUSH2 0x66 JUMPI DUP1 PUSH4 0xAF640D0F EQ PUSH2 0x2B5 JUMPI DUP1 PUSH4 0xBA479B7E EQ PUSH2 0x2D3 JUMPI DUP1 PUSH4 0xCBC92809 EQ PUSH2 0x308 JUMPI DUP1 PUSH4 0xD5070F43 EQ PUSH2 0x338 JUMPI PUSH2 0xEA JUMP JUMPDEST DUP1 PUSH4 0x98522FD6 EQ PUSH2 0x236 JUMPI DUP1 PUSH4 0x9A8C9119 EQ PUSH2 0x252 JUMPI DUP1 PUSH4 0xA4E7AE05 EQ PUSH2 0x284 JUMPI PUSH2 0xEA JUMP JUMPDEST DUP1 PUSH4 0x356B1F1E GT PUSH2 0xC8 JUMPI DUP1 PUSH4 0x356B1F1E EQ PUSH2 0x183 JUMPI DUP1 PUSH4 0x39987F94 EQ PUSH2 0x1B5 JUMPI DUP1 PUSH4 0x6DAC86DE EQ PUSH2 0x1E8 JUMPI DUP1 PUSH4 0x7D0FA287 EQ PUSH2 0x204 JUMPI PUSH2 0xEA JUMP JUMPDEST DUP1 PUSH4 0x1916E139 EQ PUSH2 0xEF JUMPI DUP1 PUSH4 0x1957B59F EQ PUSH2 0x121 JUMPI DUP1 PUSH4 0x28266697 EQ PUSH2 0x151 JUMPI JUMPDEST PUSH1 0x0 DUP1 REVERT JUMPDEST PUSH2 0x109 PUSH1 0x4 DUP1 CALLDATASIZE SUB DUP2 ADD SWAP1 PUSH2 0x104 SWAP2 SWAP1 PUSH2 0x1B9E JUMP JUMPDEST PUSH2 0x36E JUMP JUMPDEST PUSH1 0x40 MLOAD PUSH2 0x118 SWAP4 SWAP3 SWAP2 SWAP1 PUSH2 0x1F9E JUMP JUMPDEST PUSH1 0x40 MLOAD DUP1 SWAP2 SUB SWAP1 RETURN JUMPDEST PUSH2 0x13B PUSH1 0x4 DUP1 CALLDATASIZE SUB DUP2 ADD SWAP1 PUSH2 0x136 SWAP2 SWAP1 PUSH2 0x1C0B JUMP JUMPDEST PUSH2 0x43A JUMP JUMPDEST PUSH1 0x40 MLOAD PUSH2 0x148 SWAP2 SWAP1 PUSH2 0x2068 JUMP JUMPDEST PUSH1 0x40 MLOAD DUP1 SWAP2 SUB SWAP1 RETURN JUMPDEST PUSH2 0x16B PUSH1 0x4 DUP1 CALLDATASIZE SUB DUP2 ADD SWAP1 PUSH2 0x166 SWAP2 SWAP1 PUSH2 0x1B9E JUMP JUMPDEST PUSH2 0x897 JUMP JUMPDEST PUSH1 0x40 MLOAD PUSH2 0x17A SWAP4 SWAP3 SWAP2 SWAP1 PUSH2 0x1F9E JUMP JUMPDEST PUSH1 0x40 MLOAD DUP1 SWAP2 SUB SWAP1 RETURN JUMPDEST PUSH2 0x19D PUSH1 0x4 DUP1 CALLDATASIZE SUB DUP2 ADD SWAP1 PUSH2 0x198 SWAP2 SWAP1 PUSH2 0x1B9E JUMP JUMPDEST PUSH2 0x963 JUMP JUMPDEST PUSH1 0x40 MLOAD PUSH2 0x1AC SWAP4 SWAP3 SWAP2 SWAP1 PUSH2 0x1F9E JUMP JUMPDEST PUSH1 0x40 MLOAD DUP1 SWAP2 SUB SWAP1 RETURN JUMPDEST PUSH2 0x1CF PUSH1 0x4 DUP1 CALLDATASIZE SUB DUP2 ADD SWAP1 PUSH2 0x1CA SWAP2 SWAP1 PUSH2 0x1B9E JUMP JUMPDEST PUSH2 0xA2F JUMP JUMPDEST PUSH1 0x40 MLOAD PUSH2 0x1DF SWAP5 SWAP4 SWAP3 SWAP2 SWAP1 PUSH2 0x1FDC JUMP JUMPDEST PUSH1 0x40 MLOAD DUP1 SWAP2 SUB SWAP1 RETURN JUMPDEST PUSH2 0x202 PUSH1 0x4 DUP1 CALLDATASIZE SUB DUP2 ADD SWAP1 PUSH2 0x1FD SWAP2 SWAP1 PUSH2 0x1CB4 JUMP JUMPDEST PUSH2 0xB01 JUMP JUMPDEST STOP JUMPDEST PUSH2 0x21E PUSH1 0x4 DUP1 CALLDATASIZE SUB DUP2 ADD SWAP1 PUSH2 0x219 SWAP2 SWAP1 PUSH2 0x1B9E JUMP JUMPDEST PUSH2 0xF72 JUMP JUMPDEST PUSH1 0x40 MLOAD PUSH2 0x22D SWAP4 SWAP3 SWAP2 SWAP1 PUSH2 0x1F9E JUMP JUMPDEST PUSH1 0x40 MLOAD DUP1 SWAP2 SUB SWAP1 RETURN JUMPDEST PUSH2 0x250 PUSH1 0x4 DUP1 CALLDATASIZE SUB DUP2 ADD SWAP1 PUSH2 0x24B SWAP2 SWAP1 PUSH2 0x1CB4 JUMP JUMPDEST PUSH2 0x103E JUMP JUMPDEST STOP JUMPDEST PUSH2 0x26C PUSH1 0x4 DUP1 CALLDATASIZE SUB DUP2 ADD SWAP1 PUSH2 0x267 SWAP2 SWAP1 PUSH2 0x1B9E JUMP JUMPDEST PUSH2 0x1541 JUMP JUMPDEST PUSH1 0x40 MLOAD PUSH2 0x27B SWAP4 SWAP3 SWAP2 SWAP1 PUSH2 0x1F9E JUMP JUMPDEST PUSH1 0x40 MLOAD DUP1 SWAP2 SUB SWAP1 RETURN JUMPDEST PUSH2 0x29E PUSH1 0x4 DUP1 CALLDATASIZE SUB DUP2 ADD SWAP1 PUSH2 0x299 SWAP2 SWAP1 PUSH2 0x1D4B JUMP JUMPDEST PUSH2 0x160D JUMP JUMPDEST PUSH1 0x40 MLOAD PUSH2 0x2AC SWAP3 SWAP2 SWAP1 PUSH2 0x20FA JUMP JUMPDEST PUSH1 0x40 MLOAD DUP1 SWAP2 SUB SWAP1 RETURN JUMPDEST PUSH2 0x2BD PUSH2 0x16C9 JUMP JUMPDEST PUSH1 0x40 MLOAD PUSH2 0x2CA SWAP2 SWAP1 PUSH2 0x2068 JUMP JUMPDEST PUSH1 0x40 MLOAD DUP1 SWAP2 SUB SWAP1 RETURN JUMPDEST PUSH2 0x2ED PUSH1 0x4 DUP1 CALLDATASIZE SUB DUP2 ADD SWAP1 PUSH2 0x2E8 SWAP2 SWAP1 PUSH2 0x1B9E JUMP JUMPDEST PUSH2 0x16CF JUMP JUMPDEST PUSH1 0x40 MLOAD PUSH2 0x2FF SWAP7 SWAP6 SWAP5 SWAP4 SWAP3 SWAP2 SWAP1 PUSH2 0x1F2F JUMP JUMPDEST PUSH1 0x40 MLOAD DUP1 SWAP2 SUB SWAP1 RETURN JUMPDEST PUSH2 0x322 PUSH1 0x4 DUP1 CALLDATASIZE SUB DUP2 ADD SWAP1 PUSH2 0x31D SWAP2 SWAP1 PUSH2 0x1B9E JUMP JUMPDEST PUSH2 0x1863 JUMP JUMPDEST PUSH1 0x40 MLOAD PUSH2 0x32F SWAP2 SWAP1 PUSH2 0x1F14 JUMP JUMPDEST PUSH1 0x40 MLOAD DUP1 SWAP2 SUB SWAP1 RETURN JUMPDEST PUSH2 0x352 PUSH1 0x4 DUP1 CALLDATASIZE SUB DUP2 ADD SWAP1 PUSH2 0x34D SWAP2 SWAP1 PUSH2 0x1BCB JUMP JUMPDEST PUSH2 0x188E JUMP JUMPDEST PUSH1 0x40 MLOAD PUSH2 0x365 SWAP8 SWAP7 SWAP6 SWAP5 SWAP4 SWAP3 SWAP2 SWAP1 PUSH2 0x2083 JUMP JUMPDEST PUSH1 0x40 MLOAD DUP1 SWAP2 SUB SWAP1 RETURN JUMPDEST PUSH1 0x7 PUSH1 0x20 MSTORE DUP1 PUSH1 0x0 MSTORE PUSH1 0x40 PUSH1 0x0 KECCAK256 PUSH1 0x0 SWAP2 POP SWAP1 POP DUP1 PUSH1 0x0 ADD PUSH1 0x0 SWAP1 SLOAD SWAP1 PUSH2 0x100 EXP SWAP1 DIV PUSH1 0xFF AND SWAP1 DUP1 PUSH1 0x1 ADD DUP1 SLOAD PUSH2 0x3A4 SWAP1 PUSH2 0x229B JUMP JUMPDEST DUP1 PUSH1 0x1F ADD PUSH1 0x20 DUP1 SWAP2 DIV MUL PUSH1 0x20 ADD PUSH1 0x40 MLOAD SWAP1 DUP2 ADD PUSH1 0x40 MSTORE DUP1 SWAP3 SWAP2 SWAP1 DUP2 DUP2 MSTORE PUSH1 0x20 ADD DUP3 DUP1 SLOAD PUSH2 0x3D0 SWAP1 PUSH2 0x229B JUMP JUMPDEST DUP1 ISZERO PUSH2 0x41D JUMPI DUP1 PUSH1 0x1F LT PUSH2 0x3F2 JUMPI PUSH2 0x100 DUP1 DUP4 SLOAD DIV MUL DUP4 MSTORE SWAP2 PUSH1 0x20 ADD SWAP2 PUSH2 0x41D JUMP JUMPDEST DUP3 ADD SWAP2 SWAP1 PUSH1 0x0 MSTORE PUSH1 0x20 PUSH1 0x0 KECCAK256 SWAP1 JUMPDEST DUP2 SLOAD DUP2 MSTORE SWAP1 PUSH1 0x1 ADD SWAP1 PUSH1 0x20 ADD DUP1 DUP4 GT PUSH2 0x400 JUMPI DUP3 SWAP1 SUB PUSH1 0x1F AND DUP3 ADD SWAP2 JUMPDEST POP POP POP POP POP SWAP1 DUP1 PUSH1 0x2 ADD PUSH1 0x0 SWAP1 SLOAD SWAP1 PUSH2 0x100 EXP SWAP1 DIV PUSH1 0xFF AND SWAP1 POP DUP4 JUMP JUMPDEST PUSH1 0x0 PUSH1 0x7 PUSH1 0x0 CALLER PUSH20 0xFFFFFFFFFFFFFFFFFFFFFFFFFFFFFFFFFFFFFFFF AND PUSH20 0xFFFFFFFFFFFFFFFFFFFFFFFFFFFFFFFFFFFFFFFF AND DUP2 MSTORE PUSH1 0x20 ADD SWAP1 DUP2 MSTORE PUSH1 0x20 ADD PUSH1 0x0 KECCAK256 PUSH1 0x0 ADD PUSH1 0x0 SWAP1 SLOAD SWAP1 PUSH2 0x100 EXP SWAP1 DIV PUSH1 0xFF AND PUSH2 0x4CB JUMPI PUSH1 0x40 MLOAD PUSH32 0x8C379A000000000000000000000000000000000000000000000000000000000 DUP2 MSTORE PUSH1 0x4 ADD PUSH2 0x4C2 SWAP1 PUSH2 0x2048 JUMP JUMPDEST PUSH1 0x40 MLOAD DUP1 SWAP2 SUB SWAP1 REVERT JUMPDEST PUSH1 0x3 PUSH1 0x0 DUP9 PUSH20 0xFFFFFFFFFFFFFFFFFFFFFFFFFFFFFFFFFFFFFFFF AND PUSH20 0xFFFFFFFFFFFFFFFFFFFFFFFFFFFFFFFFFFFFFFFF AND DUP2 MSTORE PUSH1 0x20 ADD SWAP1 DUP2 MSTORE PUSH1 0x20 ADD PUSH1 0x0 KECCAK256 PUSH1 0x0 ADD PUSH1 0x0 SWAP1 SLOAD SWAP1 PUSH2 0x100 EXP SWAP1 DIV PUSH1 0xFF AND PUSH2 0x55A JUMPI PUSH1 0x40 MLOAD PUSH32 0x8C379A000000000000000000000000000000000000000000000000000000000 DUP2 MSTORE PUSH1 0x4 ADD PUSH2 0x551 SWAP1 PUSH2 0x2028 JUMP JUMPDEST PUSH1 0x40 MLOAD DUP1 SWAP2 SUB SWAP1 REVERT JUMPDEST DUP5 PUSH1 0xD PUSH1 0x0 DUP10 PUSH20 0xFFFFFFFFFFFFFFFFFFFFFFFFFFFFFFFFFFFFFFFF AND PUSH20 0xFFFFFFFFFFFFFFFFFFFFFFFFFFFFFFFFFFFFFFFF AND DUP2 MSTORE PUSH1 0x20 ADD SWAP1 DUP2 MSTORE PUSH1 0x20 ADD PUSH1 0x0 KECCAK256 PUSH1 0x0 DUP9 DUP2 MSTORE PUSH1 0x20 ADD SWAP1 DUP2 MSTORE PUSH1 0x20 ADD PUSH1 0x0 KECCAK256 PUSH1 0x2 ADD DUP2 SWAP1 SSTORE POP DUP4 PUSH1 0xD PUSH1 0x0 DUP10 PUSH20 0xFFFFFFFFFFFFFFFFFFFFFFFFFFFFFFFFFFFFFFFF AND PUSH20 0xFFFFFFFFFFFFFFFFFFFFFFFFFFFFFFFFFFFFFFFF AND DUP2 MSTORE PUSH1 0x20 ADD SWAP1 DUP2 MSTORE PUSH1 0x20 ADD PUSH1 0x0 KECCAK256 PUSH1 0x0 DUP9 DUP2 MSTORE PUSH1 0x20 ADD SWAP1 DUP2 MSTORE PUSH1 0x20 ADD PUSH1 0x0 KECCAK256 PUSH1 0x3 ADD DUP2 SWAP1 SSTORE POP DUP3 PUSH1 0xD PUSH1 0x0 DUP10 PUSH20 0xFFFFFFFFFFFFFFFFFFFFFFFFFFFFFFFFFFFFFFFF AND PUSH20 0xFFFFFFFFFFFFFFFFFFFFFFFFFFFFFFFFFFFFFFFF AND DUP2 MSTORE PUSH1 0x20 ADD SWAP1 DUP2 MSTORE PUSH1 0x20 ADD PUSH1 0x0 KECCAK256 PUSH1 0x0 DUP9 DUP2 MSTORE PUSH1 0x20 ADD SWAP1 DUP2 MSTORE PUSH1 0x20 ADD PUSH1 0x0 KECCAK256 PUSH1 0x4 ADD PUSH1 0x0 PUSH2 0x100 EXP DUP2 SLOAD DUP2 PUSH1 0xFF MUL NOT AND SWAP1 DUP4 PUSH1 0xFF AND MUL OR SWAP1 SSTORE POP DUP2 PUSH1 0xD PUSH1 0x0 DUP10 PUSH20 0xFFFFFFFFFFFFFFFFFFFFFFFFFFFFFFFFFFFFFFFF AND PUSH20 0xFFFFFFFFFFFFFFFFFFFFFFFFFFFFFFFFFFFFFFFF AND DUP2 MSTORE PUSH1 0x20 ADD SWAP1 DUP2 MSTORE PUSH1 0x20 ADD PUSH1 0x0 KECCAK256 PUSH1 0x0 DUP9 DUP2 MSTORE PUSH1 0x20 ADD SWAP1 DUP2 MSTORE PUSH1 0x20 ADD PUSH1 0x0 KECCAK256 PUSH1 0x5 ADD SWAP1 DUP1 MLOAD SWAP1 PUSH1 0x20 ADD SWAP1 PUSH2 0x6DD SWAP3 SWAP2 SWAP1 PUSH2 0x1A37 JUMP JUMPDEST POP PUSH1 0x1 PUSH1 0xD PUSH1 0x0 DUP10 PUSH20 0xFFFFFFFFFFFFFFFFFFFFFFFFFFFFFFFFFFFFFFFF AND PUSH20 0xFFFFFFFFFFFFFFFFFFFFFFFFFFFFFFFFFFFFFFFF AND DUP2 MSTORE PUSH1 0x20 ADD SWAP1 DUP2 MSTORE PUSH1 0x20 ADD PUSH1 0x0 KECCAK256 PUSH1 0x0 DUP9 DUP2 MSTORE PUSH1 0x20 ADD SWAP1 DUP2 MSTORE PUSH1 0x20 ADD PUSH1 0x0 KECCAK256 PUSH1 0x6 ADD PUSH1 0x1 ADD PUSH1 0x14 PUSH2 0x100 EXP DUP2 SLOAD DUP2 PUSH1 0xFF MUL NOT AND SWAP1 DUP4 PUSH1 0x2 DUP2 GT ISZERO PUSH2 0x758 JUMPI PUSH2 0x757 PUSH2 0x2376 JUMP JUMPDEST JUMPDEST MUL OR SWAP1 SSTORE POP TIMESTAMP PUSH1 0xD PUSH1 0x0 DUP10 PUSH20 0xFFFFFFFFFFFFFFFFFFFFFFFFFFFFFFFFFFFFFFFF AND PUSH20 0xFFFFFFFFFFFFFFFFFFFFFFFFFFFFFFFFFFFFFFFF AND DUP2 MSTORE PUSH1 0x20 ADD SWAP1 DUP2 MSTORE PUSH1 0x20 ADD PUSH1 0x0 KECCAK256 PUSH1 0x0 DUP9 DUP2 MSTORE PUSH1 0x20 ADD SWAP1 DUP2 MSTORE PUSH1 0x20 ADD PUSH1 0x0 KECCAK256 PUSH1 0x6 ADD PUSH1 0x0 ADD DUP2 SWAP1 SSTORE POP CALLER PUSH1 0xD PUSH1 0x0 DUP10 PUSH20 0xFFFFFFFFFFFFFFFFFFFFFFFFFFFFFFFFFFFFFFFF AND PUSH20 0xFFFFFFFFFFFFFFFFFFFFFFFFFFFFFFFFFFFFFFFF AND DUP2 MSTORE PUSH1 0x20 ADD SWAP1 DUP2 MSTORE PUSH1 0x20 ADD PUSH1 0x0 KECCAK256 PUSH1 0x0 DUP9 DUP2 MSTORE PUSH1 0x20 ADD SWAP1 DUP2 MSTORE PUSH1 0x20 ADD PUSH1 0x0 KECCAK256 PUSH1 0x6 ADD PUSH1 0x1 ADD PUSH1 0x0 PUSH2 0x100 EXP DUP2 SLOAD DUP2 PUSH20 0xFFFFFFFFFFFFFFFFFFFFFFFFFFFFFFFFFFFFFFFF MUL NOT AND SWAP1 DUP4 PUSH20 0xFFFFFFFFFFFFFFFFFFFFFFFFFFFFFFFFFFFFFFFF AND MUL OR SWAP1 SSTORE POP PUSH32 0x5B7688C1644640DBB13A9AD41480F887D3AC1D5C306DE6D9FC69E11FE7095562 DUP8 DUP7 DUP7 DUP7 PUSH1 0x40 MLOAD PUSH2 0x882 SWAP5 SWAP4 SWAP3 SWAP2 SWAP1 PUSH2 0x1ECF JUMP JUMPDEST PUSH1 0x40 MLOAD DUP1 SWAP2 SUB SWAP1 LOG1 DUP6 SWAP1 POP SWAP7 SWAP6 POP POP POP POP POP POP JUMP JUMPDEST PUSH1 0x4 PUSH1 0x20 MSTORE DUP1 PUSH1 0x0 MSTORE PUSH1 0x40 PUSH1 0x0 KECCAK256 PUSH1 0x0 SWAP2 POP SWAP1 POP DUP1 PUSH1 0x0 ADD PUSH1 0x0 SWAP1 SLOAD SWAP1 PUSH2 0x100 EXP SWAP1 DIV PUSH1 0xFF AND SWAP1 DUP1 PUSH1 0x1 ADD DUP1 SLOAD PUSH2 0x8CD SWAP1 PUSH2 0x229B JUMP JUMPDEST DUP1 PUSH1 0x1F ADD PUSH1 0x20 DUP1 SWAP2 DIV MUL PUSH1 0x20 ADD PUSH1 0x40 MLOAD SWAP1 DUP2 ADD PUSH1 0x40 MSTORE DUP1 SWAP3 SWAP2 SWAP1 DUP2 DUP2 MSTORE PUSH1 0x20 ADD DUP3 DUP1 SLOAD PUSH2 0x8F9 SWAP1 PUSH2 0x229B JUMP JUMPDEST DUP1 ISZERO PUSH2 0x946 JUMPI DUP1 PUSH1 0x1F LT PUSH2 0x91B JUMPI PUSH2 0x100 DUP1 DUP4 SLOAD DIV MUL DUP4 MSTORE SWAP2 PUSH1 0x20 ADD SWAP2 PUSH2 0x946 JUMP JUMPDEST DUP3 ADD SWAP2 SWAP1 PUSH1 0x0 MSTORE PUSH1 0x20 PUSH1 0x0 KECCAK256 SWAP1 JUMPDEST DUP2 SLOAD DUP2 MSTORE SWAP1 PUSH1 0x1 ADD SWAP1 PUSH1 0x20 ADD DUP1 DUP4 GT PUSH2 0x929 JUMPI DUP3 SWAP1 SUB PUSH1 0x1F AND DUP3 ADD SWAP2 JUMPDEST POP POP POP POP POP SWAP1 DUP1 PUSH1 0x2 ADD PUSH1 0x0 SWAP1 SLOAD SWAP1 PUSH2 0x100 EXP SWAP1 DIV PUSH1 0xFF AND SWAP1 POP DUP4 JUMP JUMPDEST PUSH1 0xA PUSH1 0x20 MSTORE DUP1 PUSH1 0x0 MSTORE PUSH1 0x40 PUSH1 0x0 KECCAK256 PUSH1 0x0 SWAP2 POP SWAP1 POP DUP1 PUSH1 0x0 ADD PUSH1 0x0 SWAP1 SLOAD SWAP1 PUSH2 0x100 EXP SWAP1 DIV PUSH1 0xFF AND SWAP1 DUP1 PUSH1 0x1 ADD DUP1 SLOAD PUSH2 0x999 SWAP1 PUSH2 0x229B JUMP JUMPDEST DUP1 PUSH1 0x1F ADD PUSH1 0x20 DUP1 SWAP2 DIV MUL PUSH1 0x20 ADD PUSH1 0x40 MLOAD SWAP1 DUP2 ADD PUSH1 0x40 MSTORE DUP1 SWAP3 SWAP2 SWAP1 DUP2 DUP2 MSTORE PUSH1 0x20 ADD DUP3 DUP1 SLOAD PUSH2 0x9C5 SWAP1 PUSH2 0x229B JUMP JUMPDEST DUP1 ISZERO PUSH2 0xA12 JUMPI DUP1 PUSH1 0x1F LT PUSH2 0x9E7 JUMPI PUSH2 0x100 DUP1 DUP4 SLOAD DIV MUL DUP4 MSTORE SWAP2 PUSH1 0x20 ADD SWAP2 PUSH2 0xA12 JUMP JUMPDEST DUP3 ADD SWAP2 SWAP1 PUSH1 0x0 MSTORE PUSH1 0x20 PUSH1 0x0 KECCAK256 SWAP1 JUMPDEST DUP2 SLOAD DUP2 MSTORE SWAP1 PUSH1 0x1 ADD SWAP1 PUSH1 0x20 ADD DUP1 DUP4 GT PUSH2 0x9F5 JUMPI DUP3 SWAP1 SUB PUSH1 0x1F AND DUP3 ADD SWAP2 JUMPDEST POP POP POP POP POP SWAP1 DUP1 PUSH1 0x2 ADD PUSH1 0x0 SWAP1 SLOAD SWAP1 PUSH2 0x100 EXP SWAP1 DIV PUSH1 0xFF AND SWAP1 POP DUP4 JUMP JUMPDEST PUSH1 0x6 PUSH1 0x20 MSTORE DUP1 PUSH1 0x0 MSTORE PUSH1 0x40 PUSH1 0x0 KECCAK256 PUSH1 0x0 SWAP2 POP SWAP1 POP DUP1 PUSH1 0x0 ADD PUSH1 0x0 SWAP1 SLOAD SWAP1 PUSH2 0x100 EXP SWAP1 DIV PUSH1 0xFF AND SWAP1 DUP1 PUSH1 0x0 ADD PUSH1 0x1 SWAP1 SLOAD SWAP1 PUSH2 0x100 EXP SWAP1 DIV PUSH1 0xFF AND SWAP1 DUP1 PUSH1 0x1 ADD SLOAD SWAP1 DUP1 PUSH1 0x2 ADD DUP1 SLOAD PUSH2 0xA7E SWAP1 PUSH2 0x229B JUMP JUMPDEST DUP1 PUSH1 0x1F ADD PUSH1 0x20 DUP1 SWAP2 DIV MUL PUSH1 0x20 ADD PUSH1 0x40 MLOAD SWAP1 DUP2 ADD PUSH1 0x40 MSTORE DUP1 SWAP3 SWAP2 SWAP1 DUP2 DUP2 MSTORE PUSH1 0x20 ADD DUP3 DUP1 SLOAD PUSH2 0xAAA SWAP1 PUSH2 0x229B JUMP JUMPDEST DUP1 ISZERO PUSH2 0xAF7 JUMPI DUP1 PUSH1 0x1F LT PUSH2 0xACC JUMPI PUSH2 0x100 DUP1 DUP4 SLOAD DIV MUL DUP4 MSTORE SWAP2 PUSH1 0x20 ADD SWAP2 PUSH2 0xAF7 JUMP JUMPDEST DUP3 ADD SWAP2 SWAP1 PUSH1 0x0 MSTORE PUSH1 0x20 PUSH1 0x0 KECCAK256 SWAP1 JUMPDEST DUP2 SLOAD DUP2 MSTORE SWAP1 PUSH1 0x1 ADD SWAP1 PUSH1 0x20 ADD DUP1 DUP4 GT PUSH2 0xADA JUMPI DUP3 SWAP1 SUB PUSH1 0x1F AND DUP3 ADD SWAP2 JUMPDEST POP POP POP POP POP SWAP1 POP DUP5 JUMP JUMPDEST PUSH1 0x7 PUSH1 0x0 CALLER PUSH20 0xFFFFFFFFFFFFFFFFFFFFFFFFFFFFFFFFFFFFFFFF AND PUSH20 0xFFFFFFFFFFFFFFFFFFFFFFFFFFFFFFFFFFFFFFFF AND DUP2 MSTORE PUSH1 0x20 ADD SWAP1 DUP2 MSTORE PUSH1 0x20 ADD PUSH1 0x0 KECCAK256 PUSH1 0x0 ADD PUSH1 0x0 SWAP1 SLOAD SWAP1 PUSH2 0x100 EXP SWAP1 DIV PUSH1 0xFF AND PUSH2 0xB90 JUMPI PUSH1 0x40 MLOAD PUSH32 0x8C379A000000000000000000000000000000000000000000000000000000000 DUP2 MSTORE PUSH1 0x4 ADD PUSH2 0xB87 SWAP1 PUSH2 0x2048 JUMP JUMPDEST PUSH1 0x40 MLOAD DUP1 SWAP2 SUB SWAP1 REVERT JUMPDEST PUSH1 0x3 PUSH1 0x0 DUP7 PUSH20 0xFFFFFFFFFFFFFFFFFFFFFFFFFFFFFFFFFFFFFFFF AND PUSH20 0xFFFFFFFFFFFFFFFFFFFFFFFFFFFFFFFFFFFFFFFF AND DUP2 MSTORE PUSH1 0x20 ADD SWAP1 DUP2 MSTORE PUSH1 0x20 ADD PUSH1 0x0 KECCAK256 PUSH1 0x0 ADD PUSH1 0x0 SWAP1 SLOAD SWAP1 PUSH2 0x100 EXP SWAP1 DIV PUSH1 0xFF AND PUSH2 0xC1F JUMPI PUSH1 0x40 MLOAD PUSH32 0x8C379A000000000000000000000000000000000000000000000000000000000 DUP2 MSTORE PUSH1 0x4 ADD PUSH2 0xC16 SWAP1 PUSH2 0x2028 JUMP JUMPDEST PUSH1 0x40 MLOAD DUP1 SWAP2 SUB SWAP1 REVERT JUMPDEST PUSH1 0x0 PUSH1 0xC PUSH1 0x0 DUP2 SLOAD DUP1 SWAP3 SWAP2 SWAP1 PUSH2 0xC34 SWAP1 PUSH2 0x22FE JUMP JUMPDEST SWAP2 SWAP1 POP SSTORE SWAP1 POP DUP5 PUSH1 0xD PUSH1 0x0 DUP9 PUSH20 0xFFFFFFFFFFFFFFFFFFFFFFFFFFFFFFFFFFFFFFFF AND PUSH20 0xFFFFFFFFFFFFFFFFFFFFFFFFFFFFFFFFFFFFFFFF AND DUP2 MSTORE PUSH1 0x20 ADD SWAP1 DUP2 MSTORE PUSH1 0x20 ADD PUSH1 0x0 KECCAK256 PUSH1 0x0 DUP4 DUP2 MSTORE PUSH1 0x20 ADD SWAP1 DUP2 MSTORE PUSH1 0x20 ADD PUSH1 0x0 KECCAK256 PUSH1 0x2 ADD DUP2 SWAP1 SSTORE POP DUP4 PUSH1 0xD PUSH1 0x0 DUP9 PUSH20 0xFFFFFFFFFFFFFFFFFFFFFFFFFFFFFFFFFFFFFFFF AND PUSH20 0xFFFFFFFFFFFFFFFFFFFFFFFFFFFFFFFFFFFFFFFF AND DUP2 MSTORE PUSH1 0x20 ADD SWAP1 DUP2 MSTORE PUSH1 0x20 ADD PUSH1 0x0 KECCAK256 PUSH1 0x0 DUP4 DUP2 MSTORE PUSH1 0x20 ADD SWAP1 DUP2 MSTORE PUSH1 0x20 ADD PUSH1 0x0 KECCAK256 PUSH1 0x3 ADD DUP2 SWAP1 SSTORE POP DUP3 PUSH1 0xD PUSH1 0x0 DUP9 PUSH20 0xFFFFFFFFFFFFFFFFFFFFFFFFFFFFFFFFFFFFFFFF AND PUSH20 0xFFFFFFFFFFFFFFFFFFFFFFFFFFFFFFFFFFFFFFFF AND DUP2 MSTORE PUSH1 0x20 ADD SWAP1 DUP2 MSTORE PUSH1 0x20 ADD PUSH1 0x0 KECCAK256 PUSH1 0x0 DUP4 DUP2 MSTORE PUSH1 0x20 ADD SWAP1 DUP2 MSTORE PUSH1 0x20 ADD PUSH1 0x0 KECCAK256 PUSH1 0x4 ADD PUSH1 0x0 PUSH2 0x100 EXP DUP2 SLOAD DUP2 PUSH1 0xFF MUL NOT AND SWAP1 DUP4 PUSH1 0xFF AND MUL OR SWAP1 SSTORE POP DUP2 PUSH1 0xD PUSH1 0x0 DUP9 PUSH20 0xFFFFFFFFFFFFFFFFFFFFFFFFFFFFFFFFFFFFFFFF AND PUSH20 0xFFFFFFFFFFFFFFFFFFFFFFFFFFFFFFFFFFFFFFFF AND DUP2 MSTORE PUSH1 0x20 ADD SWAP1 DUP2 MSTORE PUSH1 0x20 ADD PUSH1 0x0 KECCAK256 PUSH1 0x0 DUP4 DUP2 MSTORE PUSH1 0x20 ADD SWAP1 DUP2 MSTORE PUSH1 0x20 ADD PUSH1 0x0 KECCAK256 PUSH1 0x5 ADD SWAP1 DUP1 MLOAD SWAP1 PUSH1 0x20 ADD SWAP1 PUSH2 0xDBD SWAP3 SWAP2 SWAP1 PUSH2 0x1A37 JUMP JUMPDEST POP PUSH1 0x1 PUSH1 0xD PUSH1 0x0 DUP9 PUSH20 0xFFFFFFFFFFFFFFFFFFFFFFFFFFFFFFFFFFFFFFFF AND PUSH20 0xFFFFFFFFFFFFFFFFFFFFFFFFFFFFFFFFFFFFFFFF AND DUP2 MSTORE PUSH1 0x20 ADD SWAP1 DUP2 MSTORE PUSH1 0x20 ADD PUSH1 0x0 KECCAK256 PUSH1 0x0 DUP4 DUP2 MSTORE PUSH1 0x20 ADD SWAP1 DUP2 MSTORE PUSH1 0x20 ADD PUSH1 0x0 KECCAK256 PUSH1 0x6 ADD PUSH1 0x1 ADD PUSH1 0x14 PUSH2 0x100 EXP DUP2 SLOAD DUP2 PUSH1 0xFF MUL NOT AND SWAP1 DUP4 PUSH1 0x2 DUP2 GT ISZERO PUSH2 0xE38 JUMPI PUSH2 0xE37 PUSH2 0x2376 JUMP JUMPDEST JUMPDEST MUL OR SWAP1 SSTORE POP TIMESTAMP PUSH1 0xD PUSH1 0x0 DUP9 PUSH20 0xFFFFFFFFFFFFFFFFFFFFFFFFFFFFFFFFFFFFFFFF AND PUSH20 0xFFFFFFFFFFFFFFFFFFFFFFFFFFFFFFFFFFFFFFFF AND DUP2 MSTORE PUSH1 0x20 ADD SWAP1 DUP2 MSTORE PUSH1 0x20 ADD PUSH1 0x0 KECCAK256 PUSH1 0x0 DUP4 DUP2 MSTORE PUSH1 0x20 ADD SWAP1 DUP2 MSTORE PUSH1 0x20 ADD PUSH1 0x0 KECCAK256 PUSH1 0x6 ADD PUSH1 0x0 ADD DUP2 SWAP1 SSTORE POP CALLER PUSH1 0xD PUSH1 0x0 DUP9 PUSH20 0xFFFFFFFFFFFFFFFFFFFFFFFFFFFFFFFFFFFFFFFF AND PUSH20 0xFFFFFFFFFFFFFFFFFFFFFFFFFFFFFFFFFFFFFFFF AND DUP2 MSTORE PUSH1 0x20 ADD SWAP1 DUP2 MSTORE PUSH1 0x20 ADD PUSH1 0x0 KECCAK256 PUSH1 0x0 DUP4 DUP2 MSTORE PUSH1 0x20 ADD SWAP1 DUP2 MSTORE PUSH1 0x20 ADD PUSH1 0x0 KECCAK256 PUSH1 0x6 ADD PUSH1 0x1 ADD PUSH1 0x0 PUSH2 0x100 EXP DUP2 SLOAD DUP2 PUSH20 0xFFFFFFFFFFFFFFFFFFFFFFFFFFFFFFFFFFFFFFFF MUL NOT AND SWAP1 DUP4 PUSH20 0xFFFFFFFFFFFFFFFFFFFFFFFFFFFFFFFFFFFFFFFF AND MUL OR SWAP1 SSTORE POP PUSH32 0xCEEB2CB6B3CFCD4203736EC1A776BC065E4FF58F126DDC27B185FE94E5E2FF9E DUP7 DUP7 DUP7 DUP7 PUSH1 0x40 MLOAD PUSH2 0xF62 SWAP5 SWAP4 SWAP3 SWAP2 SWAP1 PUSH2 0x1ECF JUMP JUMPDEST PUSH1 0x40 MLOAD DUP1 SWAP2 SUB SWAP1 LOG1 POP POP POP POP POP POP JUMP JUMPDEST PUSH1 0x8 PUSH1 0x20 MSTORE DUP1 PUSH1 0x0 MSTORE PUSH1 0x40 PUSH1 0x0 KECCAK256 PUSH1 0x0 SWAP2 POP SWAP1 POP DUP1 PUSH1 0x0 ADD PUSH1 0x0 SWAP1 SLOAD SWAP1 PUSH2 0x100 EXP SWAP1 DIV PUSH1 0xFF AND SWAP1 DUP1 PUSH1 0x1 ADD DUP1 SLOAD PUSH2 0xFA8 SWAP1 PUSH2 0x229B JUMP JUMPDEST DUP1 PUSH1 0x1F ADD PUSH1 0x20 DUP1 SWAP2 DIV MUL PUSH1 0x20 ADD PUSH1 0x40 MLOAD SWAP1 DUP2 ADD PUSH1 0x40 MSTORE DUP1 SWAP3 SWAP2 SWAP1 DUP2 DUP2 MSTORE PUSH1 0x20 ADD DUP3 DUP1 SLOAD PUSH2 0xFD4 SWAP1 PUSH2 0x229B JUMP JUMPDEST DUP1 ISZERO PUSH2 0x1021 JUMPI DUP1 PUSH1 0x1F LT PUSH2 0xFF6 JUMPI PUSH2 0x100 DUP1 DUP4 SLOAD DIV MUL DUP4 MSTORE SWAP2 PUSH1 0x20 ADD SWAP2 PUSH2 0x1021 JUMP JUMPDEST DUP3 ADD SWAP2 SWAP1 PUSH1 0x0 MSTORE PUSH1 0x20 PUSH1 0x0 KECCAK256 SWAP1 JUMPDEST DUP2 SLOAD DUP2 MSTORE SWAP1 PUSH1 0x1 ADD SWAP1 PUSH1 0x20 ADD DUP1 DUP4 GT PUSH2 0x1004 JUMPI DUP3 SWAP1 SUB PUSH1 0x1F AND DUP3 ADD SWAP2 JUMPDEST POP POP POP POP POP SWAP1 DUP1 PUSH1 0x2 ADD PUSH1 0x0 SWAP1 SLOAD SWAP1 PUSH2 0x100 EXP SWAP1 DIV PUSH1 0xFF AND SWAP1 POP DUP4 JUMP JUMPDEST PUSH1 0x7 PUSH1 0x0 CALLER PUSH20 0xFFFFFFFFFFFFFFFFFFFFFFFFFFFFFFFFFFFFFFFF AND PUSH20 0xFFFFFFFFFFFFFFFFFFFFFFFFFFFFFFFFFFFFFFFF AND DUP2 MSTORE PUSH1 0x20 ADD SWAP1 DUP2 MSTORE PUSH1 0x20 ADD PUSH1 0x0 KECCAK256 PUSH1 0x0 ADD PUSH1 0x0 SWAP1 SLOAD SWAP1 PUSH2 0x100 EXP SWAP1 DIV PUSH1 0xFF AND PUSH2 0x10CD JUMPI PUSH1 0x40 MLOAD PUSH32 0x8C379A000000000000000000000000000000000000000000000000000000000 DUP2 MSTORE PUSH1 0x4 ADD PUSH2 0x10C4 SWAP1 PUSH2 0x2048 JUMP JUMPDEST PUSH1 0x40 MLOAD DUP1 SWAP2 SUB SWAP1 REVERT JUMPDEST PUSH1 0x3 PUSH1 0x0 CALLER PUSH20 0xFFFFFFFFFFFFFFFFFFFFFFFFFFFFFFFFFFFFFFFF AND PUSH20 0xFFFFFFFFFFFFFFFFFFFFFFFFFFFFFFFFFFFFFFFF AND DUP2 MSTORE PUSH1 0x20 ADD SWAP1 DUP2 MSTORE PUSH1 0x20 ADD PUSH1 0x0 KECCAK256 PUSH1 0x0 ADD PUSH1 0x0 SWAP1 SLOAD SWAP1 PUSH2 0x100 EXP SWAP1 DIV PUSH1 0xFF AND PUSH2 0x115C JUMPI PUSH1 0x40 MLOAD PUSH32 0x8C379A000000000000000000000000000000000000000000000000000000000 DUP2 MSTORE PUSH1 0x4 ADD PUSH2 0x1153 SWAP1 PUSH2 0x2028 JUMP JUMPDEST PUSH1 0x40 MLOAD DUP1 SWAP2 SUB SWAP1 REVERT JUMPDEST PUSH1 0x0 PUSH1 0xC PUSH1 0x0 DUP2 SLOAD DUP1 SWAP3 SWAP2 SWAP1 PUSH2 0x1171 SWAP1 PUSH2 0x22FE JUMP JUMPDEST SWAP2 SWAP1 POP SSTORE SWAP1 POP DUP6 PUSH1 0xD PUSH1 0x0 CALLER PUSH20 0xFFFFFFFFFFFFFFFFFFFFFFFFFFFFFFFFFFFFFFFF AND PUSH20 0xFFFFFFFFFFFFFFFFFFFFFFFFFFFFFFFFFFFFFFFF AND DUP2 MSTORE PUSH1 0x20 ADD SWAP1 DUP2 MSTORE PUSH1 0x20 ADD PUSH1 0x0 KECCAK256 PUSH1 0x0 DUP4 DUP2 MSTORE PUSH1 0x20 ADD SWAP1 DUP2 MSTORE PUSH1 0x20 ADD PUSH1 0x0 KECCAK256 PUSH1 0x1 ADD PUSH1 0x0 PUSH2 0x100 EXP DUP2 SLOAD DUP2 PUSH20 0xFFFFFFFFFFFFFFFFFFFFFFFFFFFFFFFFFFFFFFFF MUL NOT AND SWAP1 DUP4 PUSH20 0xFFFFFFFFFFFFFFFFFFFFFFFFFFFFFFFFFFFFFFFF AND MUL OR SWAP1 SSTORE POP DUP5 PUSH1 0xD PUSH1 0x0 CALLER PUSH20 0xFFFFFFFFFFFFFFFFFFFFFFFFFFFFFFFFFFFFFFFF AND PUSH20 0xFFFFFFFFFFFFFFFFFFFFFFFFFFFFFFFFFFFFFFFF AND DUP2 MSTORE PUSH1 0x20 ADD SWAP1 DUP2 MSTORE PUSH1 0x20 ADD PUSH1 0x0 KECCAK256 PUSH1 0x0 DUP4 DUP2 MSTORE PUSH1 0x20 ADD SWAP1 DUP2 MSTORE PUSH1 0x20 ADD PUSH1 0x0 KECCAK256 PUSH1 0x2 ADD DUP2 SWAP1 SSTORE POP DUP4 PUSH1 0xD PUSH1 0x0 CALLER PUSH20 0xFFFFFFFFFFFFFFFFFFFFFFFFFFFFFFFFFFFFFFFF AND PUSH20 0xFFFFFFFFFFFFFFFFFFFFFFFFFFFFFFFFFFFFFFFF AND DUP2 MSTORE PUSH1 0x20 ADD SWAP1 DUP2 MSTORE PUSH1 0x20 ADD PUSH1 0x0 KECCAK256 PUSH1 0x0 DUP4 DUP2 MSTORE PUSH1 0x20 ADD SWAP1 DUP2 MSTORE PUSH1 0x20 ADD PUSH1 0x0 KECCAK256 PUSH1 0x3 ADD DUP2 SWAP1 SSTORE POP DUP3 PUSH1 0xD PUSH1 0x0 CALLER PUSH20 0xFFFFFFFFFFFFFFFFFFFFFFFFFFFFFFFFFFFFFFFF AND PUSH20 0xFFFFFFFFFFFFFFFFFFFFFFFFFFFFFFFFFFFFFFFF AND DUP2 MSTORE PUSH1 0x20 ADD SWAP1 DUP2 MSTORE PUSH1 0x20 ADD PUSH1 0x0 KECCAK256 PUSH1 0x0 DUP4 DUP2 MSTORE PUSH1 0x20 ADD SWAP1 DUP2 MSTORE PUSH1 0x20 ADD PUSH1 0x0 KECCAK256 PUSH1 0x4 ADD PUSH1 0x0 PUSH2 0x100 EXP DUP2 SLOAD DUP2 PUSH1 0xFF MUL NOT AND SWAP1 DUP4 PUSH1 0xFF AND MUL OR SWAP1 SSTORE POP DUP2 PUSH1 0xD PUSH1 0x0 CALLER PUSH20 0xFFFFFFFFFFFFFFFFFFFFFFFFFFFFFFFFFFFFFFFF AND PUSH20 0xFFFFFFFFFFFFFFFFFFFFFFFFFFFFFFFFFFFFFFFF AND DUP2 MSTORE PUSH1 0x20 ADD SWAP1 DUP2 MSTORE PUSH1 0x20 ADD PUSH1 0x0 KECCAK256 PUSH1 0x0 DUP4 DUP2 MSTORE PUSH1 0x20 ADD SWAP1 DUP2 MSTORE PUSH1 0x20 ADD PUSH1 0x0 KECCAK256 PUSH1 0x5 ADD SWAP1 DUP1 MLOAD SWAP1 PUSH1 0x20 ADD SWAP1 PUSH2 0x138C SWAP3 SWAP2 SWAP1 PUSH2 0x1A37 JUMP JUMPDEST POP PUSH1 0x1 PUSH1 0xD PUSH1 0x0 CALLER PUSH20 0xFFFFFFFFFFFFFFFFFFFFFFFFFFFFFFFFFFFFFFFF AND PUSH20 0xFFFFFFFFFFFFFFFFFFFFFFFFFFFFFFFFFFFFFFFF AND DUP2 MSTORE PUSH1 0x20 ADD SWAP1 DUP2 MSTORE PUSH1 0x20 ADD PUSH1 0x0 KECCAK256 PUSH1 0x0 DUP4 DUP2 MSTORE PUSH1 0x20 ADD SWAP1 DUP2 MSTORE PUSH1 0x20 ADD PUSH1 0x0 KECCAK256 PUSH1 0x6 ADD PUSH1 0x1 ADD PUSH1 0x14 PUSH2 0x100 EXP DUP2 SLOAD DUP2 PUSH1 0xFF MUL NOT AND SWAP1 DUP4 PUSH1 0x2 DUP2 GT ISZERO PUSH2 0x1407 JUMPI PUSH2 0x1406 PUSH2 0x2376 JUMP JUMPDEST JUMPDEST MUL OR SWAP1 SSTORE POP TIMESTAMP PUSH1 0xD PUSH1 0x0 CALLER PUSH20 0xFFFFFFFFFFFFFFFFFFFFFFFFFFFFFFFFFFFFFFFF AND PUSH20 0xFFFFFFFFFFFFFFFFFFFFFFFFFFFFFFFFFFFFFFFF AND DUP2 MSTORE PUSH1 0x20 ADD SWAP1 DUP2 MSTORE PUSH1 0x20 ADD PUSH1 0x0 KECCAK256 PUSH1 0x0 DUP4 DUP2 MSTORE PUSH1 0x20 ADD SWAP1 DUP2 MSTORE PUSH1 0x20 ADD PUSH1 0x0 KECCAK256 PUSH1 0x6 ADD PUSH1 0x0 ADD DUP2 SWAP1 SSTORE POP CALLER PUSH1 0xD PUSH1 0x0 CALLER PUSH20 0xFFFFFFFFFFFFFFFFFFFFFFFFFFFFFFFFFFFFFFFF AND PUSH20 0xFFFFFFFFFFFFFFFFFFFFFFFFFFFFFFFFFFFFFFFF AND DUP2 MSTORE PUSH1 0x20 ADD SWAP1 DUP2 MSTORE PUSH1 0x20 ADD PUSH1 0x0 KECCAK256 PUSH1 0x0 DUP4 DUP2 MSTORE PUSH1 0x20 ADD SWAP1 DUP2 MSTORE PUSH1 0x20 ADD PUSH1 0x0 KECCAK256 PUSH1 0x6 ADD PUSH1 0x1 ADD PUSH1 0x0 PUSH2 0x100 EXP DUP2 SLOAD DUP2 PUSH20 0xFFFFFFFFFFFFFFFFFFFFFFFFFFFFFFFFFFFFFFFF MUL NOT AND SWAP1 DUP4 PUSH20 0xFFFFFFFFFFFFFFFFFFFFFFFFFFFFFFFFFFFFFFFF AND MUL OR SWAP1 SSTORE POP PUSH32 0xCEEB2CB6B3CFCD4203736EC1A776BC065E4FF58F126DDC27B185FE94E5E2FF9E DUP7 DUP7 DUP7 DUP7 PUSH1 0x40 MLOAD PUSH2 0x1531 SWAP5 SWAP4 SWAP3 SWAP2 SWAP1 PUSH2 0x1ECF JUMP JUMPDEST PUSH1 0x40 MLOAD DUP1 SWAP2 SUB SWAP1 LOG1 POP POP POP POP POP POP JUMP JUMPDEST PUSH1 0x9 PUSH1 0x20 MSTORE DUP1 PUSH1 0x0 MSTORE PUSH1 0x40 PUSH1 0x0 KECCAK256 PUSH1 0x0 SWAP2 POP SWAP1 POP DUP1 PUSH1 0x0 ADD PUSH1 0x0 SWAP1 SLOAD SWAP1 PUSH2 0x100 EXP SWAP1 DIV PUSH1 0xFF AND SWAP1 DUP1 PUSH1 0x1 ADD DUP1 SLOAD PUSH2 0x1577 SWAP1 PUSH2 0x229B JUMP JUMPDEST DUP1 PUSH1 0x1F ADD PUSH1 0x20 DUP1 SWAP2 DIV MUL PUSH1 0x20 ADD PUSH1 0x40 MLOAD SWAP1 DUP2 ADD PUSH1 0x40 MSTORE DUP1 SWAP3 SWAP2 SWAP1 DUP2 DUP2 MSTORE PUSH1 0x20 ADD DUP3 DUP1 SLOAD PUSH2 0x15A3 SWAP1 PUSH2 0x229B JUMP JUMPDEST DUP1 ISZERO PUSH2 0x15F0 JUMPI DUP1 PUSH1 0x1F LT PUSH2 0x15C5 JUMPI PUSH2 0x100 DUP1 DUP4 SLOAD DIV MUL DUP4 MSTORE SWAP2 PUSH1 0x20 ADD SWAP2 PUSH2 0x15F0 JUMP JUMPDEST DUP3 ADD SWAP2 SWAP1 PUSH1 0x0 MSTORE PUSH1 0x20 PUSH1 0x0 KECCAK256 SWAP1 JUMPDEST DUP2 SLOAD DUP2 MSTORE SWAP1 PUSH1 0x1 ADD SWAP1 PUSH1 0x20 ADD DUP1 DUP4 GT PUSH2 0x15D3 JUMPI DUP3 SWAP1 SUB PUSH1 0x1F AND DUP3 ADD SWAP2 JUMPDEST POP POP POP POP POP SWAP1 DUP1 PUSH1 0x2 ADD PUSH1 0x0 SWAP1 SLOAD SWAP1 PUSH2 0x100 EXP SWAP1 DIV PUSH1 0xFF AND SWAP1 POP DUP4 JUMP JUMPDEST PUSH1 0xB PUSH1 0x20 MSTORE DUP1 PUSH1 0x0 MSTORE PUSH1 0x40 PUSH1 0x0 KECCAK256 PUSH1 0x0 SWAP2 POP SWAP1 POP DUP1 PUSH1 0x0 ADD PUSH1 0x0 SWAP1 SLOAD SWAP1 PUSH2 0x100 EXP SWAP1 DIV PUSH4 0xFFFFFFFF AND SWAP1 DUP1 PUSH1 0x1 ADD DUP1 SLOAD PUSH2 0x1646 SWAP1 PUSH2 0x229B JUMP JUMPDEST DUP1 PUSH1 0x1F ADD PUSH1 0x20 DUP1 SWAP2 DIV MUL PUSH1 0x20 ADD PUSH1 0x40 MLOAD SWAP1 DUP2 ADD PUSH1 0x40 MSTORE DUP1 SWAP3 SWAP2 SWAP1 DUP2 DUP2 MSTORE PUSH1 0x20 ADD DUP3 DUP1 SLOAD PUSH2 0x1672 SWAP1 PUSH2 0x229B JUMP JUMPDEST DUP1 ISZERO PUSH2 0x16BF JUMPI DUP1 PUSH1 0x1F LT PUSH2 0x1694 JUMPI PUSH2 0x100 DUP1 DUP4 SLOAD DIV MUL DUP4 MSTORE SWAP2 PUSH1 0x20 ADD SWAP2 PUSH2 0x16BF JUMP JUMPDEST DUP3 ADD SWAP2 SWAP1 PUSH1 0x0 MSTORE PUSH1 0x20 PUSH1 0x0 KECCAK256 SWAP1 JUMPDEST DUP2 SLOAD DUP2 MSTORE SWAP1 PUSH1 0x1 ADD SWAP1 PUSH1 0x20 ADD DUP1 DUP4 GT PUSH2 0x16A2 JUMPI DUP3 SWAP1 SUB PUSH1 0x1F AND DUP3 ADD SWAP2 JUMPDEST POP POP POP POP POP SWAP1 POP DUP3 JUMP JUMPDEST PUSH1 0xC SLOAD DUP2 JUMP JUMPDEST PUSH1 0x5 PUSH1 0x20 MSTORE DUP1 PUSH1 0x0 MSTORE PUSH1 0x40 PUSH1 0x0 KECCAK256 PUSH1 0x0 SWAP2 POP SWAP1 POP DUP1 PUSH1 0x0 ADD PUSH1 0x0 SWAP1 SLOAD SWAP1 PUSH2 0x100 EXP SWAP1 DIV PUSH1 0xFF AND SWAP1 DUP1 PUSH1 0x0 ADD PUSH1 0x1 SWAP1 SLOAD SWAP1 PUSH2 0x100 EXP SWAP1 DIV PUSH20 0xFFFFFFFFFFFFFFFFFFFFFFFFFFFFFFFFFFFFFFFF AND SWAP1 DUP1 PUSH1 0x0 ADD PUSH1 0x15 SWAP1 SLOAD SWAP1 PUSH2 0x100 EXP SWAP1 DIV PUSH2 0xFFFF AND SWAP1 DUP1 PUSH1 0x0 ADD PUSH1 0x17 SWAP1 SLOAD SWAP1 PUSH2 0x100 EXP SWAP1 DIV PUSH1 0xFF AND SWAP1 DUP1 PUSH1 0x1 ADD DUP1 SLOAD PUSH2 0x1752 SWAP1 PUSH2 0x229B JUMP JUMPDEST DUP1 PUSH1 0x1F ADD PUSH1 0x20 DUP1 SWAP2 DIV MUL PUSH1 0x20 ADD PUSH1 0x40 MLOAD SWAP1 DUP2 ADD PUSH1 0x40 MSTORE DUP1 SWAP3 SWAP2 SWAP1 DUP2 DUP2 MSTORE PUSH1 0x20 ADD DUP3 DUP1 SLOAD PUSH2 0x177E SWAP1 PUSH2 0x229B JUMP JUMPDEST DUP1 ISZERO PUSH2 0x17CB JUMPI DUP1 PUSH1 0x1F LT PUSH2 0x17A0 JUMPI PUSH2 0x100 DUP1 DUP4 SLOAD DIV MUL DUP4 MSTORE SWAP2 PUSH1 0x20 ADD SWAP2 PUSH2 0x17CB JUMP JUMPDEST DUP3 ADD SWAP2 SWAP1 PUSH1 0x0 MSTORE PUSH1 0x20 PUSH1 0x0 KECCAK256 SWAP1 JUMPDEST DUP2 SLOAD DUP2 MSTORE SWAP1 PUSH1 0x1 ADD SWAP1 PUSH1 0x20 ADD DUP1 DUP4 GT PUSH2 0x17AE JUMPI DUP3 SWAP1 SUB PUSH1 0x1F AND DUP3 ADD SWAP2 JUMPDEST POP POP POP POP POP SWAP1 DUP1 PUSH1 0x2 ADD DUP1 SLOAD PUSH2 0x17E0 SWAP1 PUSH2 0x229B JUMP JUMPDEST DUP1 PUSH1 0x1F ADD PUSH1 0x20 DUP1 SWAP2 DIV MUL PUSH1 0x20 ADD PUSH1 0x40 MLOAD SWAP1 DUP2 ADD PUSH1 0x40 MSTORE DUP1 SWAP3 SWAP2 SWAP1 DUP2 DUP2 MSTORE PUSH1 0x20 ADD DUP3 DUP1 SLOAD PUSH2 0x180C SWAP1 PUSH2 0x229B JUMP JUMPDEST DUP1 ISZERO PUSH2 0x1859 JUMPI DUP1 PUSH1 0x1F LT PUSH2 0x182E JUMPI PUSH2 0x100 DUP1 DUP4 SLOAD DIV MUL DUP4 MSTORE SWAP2 PUSH1 0x20 ADD SWAP2 PUSH2 0x1859 JUMP JUMPDEST DUP3 ADD SWAP2 SWAP1 PUSH1 0x0 MSTORE PUSH1 0x20 PUSH1 0x0 KECCAK256 SWAP1 JUMPDEST DUP2 SLOAD DUP2 MSTORE SWAP1 PUSH1 0x1 ADD SWAP1 PUSH1 0x20 ADD DUP1 DUP4 GT PUSH2 0x183C JUMPI DUP3 SWAP1 SUB PUSH1 0x1F AND DUP3 ADD SWAP2 JUMPDEST POP POP POP POP POP SWAP1 POP DUP7 JUMP JUMPDEST PUSH1 0x3 PUSH1 0x20 MSTORE DUP1 PUSH1 0x0 MSTORE PUSH1 0x40 PUSH1 0x0 KECCAK256 PUSH1 0x0 SWAP2 POP SWAP1 POP DUP1 PUSH1 0x0 ADD PUSH1 0x0 SWAP1 SLOAD SWAP1 PUSH2 0x100 EXP SWAP1 DIV PUSH1 0xFF AND SWAP1 POP DUP2 JUMP JUMPDEST PUSH1 0xD PUSH1 0x20 MSTORE DUP2 PUSH1 0x0 MSTORE PUSH1 0x40 PUSH1 0x0 KECCAK256 PUSH1 0x20 MSTORE DUP1 PUSH1 0x0 MSTORE PUSH1 0x40 PUSH1 0x0 KECCAK256 PUSH1 0x0 SWAP2 POP SWAP2 POP POP DUP1 PUSH1 0x0 ADD SLOAD SWAP1 DUP1 PUSH1 0x1 ADD PUSH1 0x0 SWAP1 SLOAD SWAP1 PUSH2 0x100 EXP SWAP1 DIV PUSH20 0xFFFFFFFFFFFFFFFFFFFFFFFFFFFFFFFFFFFFFFFF AND SWAP1 DUP1 PUSH1 0x2 ADD SLOAD SWAP1 DUP1 PUSH1 0x3 ADD SLOAD SWAP1 DUP1 PUSH1 0x4 ADD PUSH1 0x0 SWAP1 SLOAD SWAP1 PUSH2 0x100 EXP SWAP1 DIV PUSH1 0xFF AND SWAP1 DUP1 PUSH1 0x5 ADD DUP1 SLOAD PUSH2 0x1909 SWAP1 PUSH2 0x229B JUMP JUMPDEST DUP1 PUSH1 0x1F ADD PUSH1 0x20 DUP1 SWAP2 DIV MUL PUSH1 0x20 ADD PUSH1 0x40 MLOAD SWAP1 DUP2 ADD PUSH1 0x40 MSTORE DUP1 SWAP3 SWAP2 SWAP1 DUP2 DUP2 MSTORE PUSH1 0x20 ADD DUP3 DUP1 SLOAD PUSH2 0x1935 SWAP1 PUSH2 0x229B JUMP JUMPDEST DUP1 ISZERO PUSH2 0x1982 JUMPI DUP1 PUSH1 0x1F LT PUSH2 0x1957 JUMPI PUSH2 0x100 DUP1 DUP4 SLOAD DIV MUL DUP4 MSTORE SWAP2 PUSH1 0x20 ADD SWAP2 PUSH2 0x1982 JUMP JUMPDEST DUP3 ADD SWAP2 SWAP1 PUSH1 0x0 MSTORE PUSH1 0x20 PUSH1 0x0 KECCAK256 SWAP1 JUMPDEST DUP2 SLOAD DUP2 MSTORE SWAP1 PUSH1 0x1 ADD SWAP1 PUSH1 0x20 ADD DUP1 DUP4 GT PUSH2 0x1965 JUMPI DUP3 SWAP1 SUB PUSH1 0x1F AND DUP3 ADD SWAP2 JUMPDEST POP POP POP POP POP SWAP1 DUP1 PUSH1 0x6 ADD PUSH1 0x40 MLOAD DUP1 PUSH1 0x60 ADD PUSH1 0x40 MSTORE SWAP1 DUP2 PUSH1 0x0 DUP3 ADD SLOAD DUP2 MSTORE PUSH1 0x20 ADD PUSH1 0x1 DUP3 ADD PUSH1 0x0 SWAP1 SLOAD SWAP1 PUSH2 0x100 EXP SWAP1 DIV PUSH20 0xFFFFFFFFFFFFFFFFFFFFFFFFFFFFFFFFFFFFFFFF AND PUSH20 0xFFFFFFFFFFFFFFFFFFFFFFFFFFFFFFFFFFFFFFFF AND PUSH20 0xFFFFFFFFFFFFFFFFFFFFFFFFFFFFFFFFFFFFFFFF AND DUP2 MSTORE PUSH1 0x20 ADD PUSH1 0x1 DUP3 ADD PUSH1 0x14 SWAP1 SLOAD SWAP1 PUSH2 0x100 EXP SWAP1 DIV PUSH1 0xFF AND PUSH1 0x2 DUP2 GT ISZERO PUSH2 0x1A1C JUMPI PUSH2 0x1A1B PUSH2 0x2376 JUMP JUMPDEST JUMPDEST PUSH1 0x2 DUP2 GT ISZERO PUSH2 0x1A2E JUMPI PUSH2 0x1A2D PUSH2 0x2376 JUMP JUMPDEST JUMPDEST DUP2 MSTORE POP POP SWAP1 POP DUP8 JUMP JUMPDEST DUP3 DUP1 SLOAD PUSH2 0x1A43 SWAP1 PUSH2 0x229B JUMP JUMPDEST SWAP1 PUSH1 0x0 MSTORE PUSH1 0x20 PUSH1 0x0 KECCAK256 SWAP1 PUSH1 0x1F ADD PUSH1 0x20 SWAP1 DIV DUP2 ADD SWAP3 DUP3 PUSH2 0x1A65 JUMPI PUSH1 0x0 DUP6 SSTORE PUSH2 0x1AAC JUMP JUMPDEST DUP3 PUSH1 0x1F LT PUSH2 0x1A7E JUMPI DUP1 MLOAD PUSH1 0xFF NOT AND DUP4 DUP1 ADD OR DUP6 SSTORE PUSH2 0x1AAC JUMP JUMPDEST DUP3 DUP1 ADD PUSH1 0x1 ADD DUP6 SSTORE DUP3 ISZERO PUSH2 0x1AAC JUMPI SWAP2 DUP3 ADD JUMPDEST DUP3 DUP2 GT ISZERO PUSH2 0x1AAB JUMPI DUP3 MLOAD DUP3 SSTORE SWAP2 PUSH1 0x20 ADD SWAP2 SWAP1 PUSH1 0x1 ADD SWAP1 PUSH2 0x1A90 JUMP JUMPDEST JUMPDEST POP SWAP1 POP PUSH2 0x1AB9 SWAP2 SWAP1 PUSH2 0x1ABD JUMP JUMPDEST POP SWAP1 JUMP JUMPDEST JUMPDEST DUP1 DUP3 GT ISZERO PUSH2 0x1AD6 JUMPI PUSH1 0x0 DUP2 PUSH1 0x0 SWAP1 SSTORE POP PUSH1 0x1 ADD PUSH2 0x1ABE JUMP JUMPDEST POP SWAP1 JUMP JUMPDEST PUSH1 0x0 PUSH2 0x1AED PUSH2 0x1AE8 DUP5 PUSH2 0x214F JUMP JUMPDEST PUSH2 0x212A JUMP JUMPDEST SWAP1 POP DUP3 DUP2 MSTORE PUSH1 0x20 DUP2 ADD DUP5 DUP5 DUP5 ADD GT ISZERO PUSH2 0x1B09 JUMPI PUSH2 0x1B08 PUSH2 0x2408 JUMP JUMPDEST JUMPDEST PUSH2 0x1B14 DUP5 DUP3 DUP6 PUSH2 0x2259 JUMP JUMPDEST POP SWAP4 SWAP3 POP POP POP JUMP JUMPDEST PUSH1 0x0 DUP2 CALLDATALOAD SWAP1 POP PUSH2 0x1B2B DUP2 PUSH2 0x24A2 JUMP JUMPDEST SWAP3 SWAP2 POP POP JUMP JUMPDEST PUSH1 0x0 DUP3 PUSH1 0x1F DUP4 ADD SLT PUSH2 0x1B46 JUMPI PUSH2 0x1B45 PUSH2 0x2403 JUMP JUMPDEST JUMPDEST DUP2 CALLDATALOAD PUSH2 0x1B56 DUP5 DUP3 PUSH1 0x20 DUP7 ADD PUSH2 0x1ADA JUMP JUMPDEST SWAP2 POP POP SWAP3 SWAP2 POP POP JUMP JUMPDEST PUSH1 0x0 DUP2 CALLDATALOAD SWAP1 POP PUSH2 0x1B6E DUP2 PUSH2 0x24B9 JUMP JUMPDEST SWAP3 SWAP2 POP POP JUMP JUMPDEST PUSH1 0x0 DUP2 CALLDATALOAD SWAP1 POP PUSH2 0x1B83 DUP2 PUSH2 0x24D0 JUMP JUMPDEST SWAP3 SWAP2 POP POP JUMP JUMPDEST PUSH1 0x0 DUP2 CALLDATALOAD SWAP1 POP PUSH2 0x1B98 DUP2 PUSH2 0x24E7 JUMP JUMPDEST SWAP3 SWAP2 POP POP JUMP JUMPDEST PUSH1 0x0 PUSH1 0x20 DUP3 DUP5 SUB SLT ISZERO PUSH2 0x1BB4 JUMPI PUSH2 0x1BB3 PUSH2 0x2412 JUMP JUMPDEST JUMPDEST PUSH1 0x0 PUSH2 0x1BC2 DUP5 DUP3 DUP6 ADD PUSH2 0x1B1C JUMP JUMPDEST SWAP2 POP POP SWAP3 SWAP2 POP POP JUMP JUMPDEST PUSH1 0x0 DUP1 PUSH1 0x40 DUP4 DUP6 SUB SLT ISZERO PUSH2 0x1BE2 JUMPI PUSH2 0x1BE1 PUSH2 0x2412 JUMP JUMPDEST JUMPDEST PUSH1 0x0 PUSH2 0x1BF0 DUP6 DUP3 DUP7 ADD PUSH2 0x1B1C JUMP JUMPDEST SWAP3 POP POP PUSH1 0x20 PUSH2 0x1C01 DUP6 DUP3 DUP7 ADD PUSH2 0x1B5F JUMP JUMPDEST SWAP2 POP POP SWAP3 POP SWAP3 SWAP1 POP JUMP JUMPDEST PUSH1 0x0 DUP1 PUSH1 0x0 DUP1 PUSH1 0x0 DUP1 PUSH1 0xC0 DUP8 DUP10 SUB SLT ISZERO PUSH2 0x1C28 JUMPI PUSH2 0x1C27 PUSH2 0x2412 JUMP JUMPDEST JUMPDEST PUSH1 0x0 PUSH2 0x1C36 DUP10 DUP3 DUP11 ADD PUSH2 0x1B1C JUMP JUMPDEST SWAP7 POP POP PUSH1 0x20 PUSH2 0x1C47 DUP10 DUP3 DUP11 ADD PUSH2 0x1B5F JUMP JUMPDEST SWAP6 POP POP PUSH1 0x40 PUSH2 0x1C58 DUP10 DUP3 DUP11 ADD PUSH2 0x1B5F JUMP JUMPDEST SWAP5 POP POP PUSH1 0x60 PUSH2 0x1C69 DUP10 DUP3 DUP11 ADD PUSH2 0x1B5F JUMP JUMPDEST SWAP4 POP POP PUSH1 0x80 PUSH2 0x1C7A DUP10 DUP3 DUP11 ADD PUSH2 0x1B89 JUMP JUMPDEST SWAP3 POP POP PUSH1 0xA0 DUP8 ADD CALLDATALOAD PUSH8 0xFFFFFFFFFFFFFFFF DUP2 GT ISZERO PUSH2 0x1C9B JUMPI PUSH2 0x1C9A PUSH2 0x240D JUMP JUMPDEST JUMPDEST PUSH2 0x1CA7 DUP10 DUP3 DUP11 ADD PUSH2 0x1B31 JUMP JUMPDEST SWAP2 POP POP SWAP3 SWAP6 POP SWAP3 SWAP6 POP SWAP3 SWAP6 JUMP JUMPDEST PUSH1 0x0 DUP1 PUSH1 0x0 DUP1 PUSH1 0x0 PUSH1 0xA0 DUP7 DUP9 SUB SLT ISZERO PUSH2 0x1CD0 JUMPI PUSH2 0x1CCF PUSH2 0x2412 JUMP JUMPDEST JUMPDEST PUSH1 0x0 PUSH2 0x1CDE DUP9 DUP3 DUP10 ADD PUSH2 0x1B1C JUMP JUMPDEST SWAP6 POP POP PUSH1 0x20 PUSH2 0x1CEF DUP9 DUP3 DUP10 ADD PUSH2 0x1B5F JUMP JUMPDEST SWAP5 POP POP PUSH1 0x40 PUSH2 0x1D00 DUP9 DUP3 DUP10 ADD PUSH2 0x1B5F JUMP JUMPDEST SWAP4 POP POP PUSH1 0x60 PUSH2 0x1D11 DUP9 DUP3 DUP10 ADD PUSH2 0x1B89 JUMP JUMPDEST SWAP3 POP POP PUSH1 0x80 DUP7 ADD CALLDATALOAD PUSH8 0xFFFFFFFFFFFFFFFF DUP2 GT ISZERO PUSH2 0x1D32 JUMPI PUSH2 0x1D31 PUSH2 0x240D JUMP JUMPDEST JUMPDEST PUSH2 0x1D3E DUP9 DUP3 DUP10 ADD PUSH2 0x1B31 JUMP JUMPDEST SWAP2 POP POP SWAP3 SWAP6 POP SWAP3 SWAP6 SWAP1 SWAP4 POP JUMP JUMPDEST PUSH1 0x0 PUSH1 0x20 DUP3 DUP5 SUB SLT ISZERO PUSH2 0x1D61 JUMPI PUSH2 0x1D60 PUSH2 0x2412 JUMP JUMPDEST JUMPDEST PUSH1 0x0 PUSH2 0x1D6F DUP5 DUP3 DUP6 ADD PUSH2 0x1B74 JUMP JUMPDEST SWAP2 POP POP SWAP3 SWAP2 POP POP JUMP JUMPDEST PUSH2 0x1D81 DUP2 PUSH2 0x219C JUMP JUMPDEST DUP3 MSTORE POP POP JUMP JUMPDEST PUSH2 0x1D90 DUP2 PUSH2 0x219C JUMP JUMPDEST DUP3 MSTORE POP POP JUMP JUMPDEST PUSH2 0x1D9F DUP2 PUSH2 0x21AE JUMP JUMPDEST DUP3 MSTORE POP POP JUMP JUMPDEST PUSH2 0x1DAE DUP2 PUSH2 0x2235 JUMP JUMPDEST DUP3 MSTORE POP POP JUMP JUMPDEST PUSH2 0x1DBD DUP2 PUSH2 0x2247 JUMP JUMPDEST DUP3 MSTORE POP POP JUMP JUMPDEST PUSH1 0x0 PUSH2 0x1DCE DUP3 PUSH2 0x2180 JUMP JUMPDEST PUSH2 0x1DD8 DUP2 DUP6 PUSH2 0x218B JUMP JUMPDEST SWAP4 POP PUSH2 0x1DE8 DUP2 DUP6 PUSH1 0x20 DUP7 ADD PUSH2 0x2268 JUMP JUMPDEST PUSH2 0x1DF1 DUP2 PUSH2 0x2417 JUMP JUMPDEST DUP5 ADD SWAP2 POP POP SWAP3 SWAP2 POP POP JUMP JUMPDEST PUSH1 0x0 PUSH2 0x1E09 PUSH1 0x11 DUP4 PUSH2 0x218B JUMP JUMPDEST SWAP2 POP PUSH2 0x1E14 DUP3 PUSH2 0x2428 JUMP JUMPDEST PUSH1 0x20 DUP3 ADD SWAP1 POP SWAP2 SWAP1 POP JUMP JUMPDEST PUSH1 0x0 PUSH2 0x1E2C PUSH1 0x20 DUP4 PUSH2 0x218B JUMP JUMPDEST SWAP2 POP PUSH2 0x1E37 DUP3 PUSH2 0x2451 JUMP JUMPDEST PUSH1 0x20 DUP3 ADD SWAP1 POP SWAP2 SWAP1 POP JUMP JUMPDEST PUSH1 0x60 DUP3 ADD PUSH1 0x0 DUP3 ADD MLOAD PUSH2 0x1E58 PUSH1 0x0 DUP6 ADD DUP3 PUSH2 0x1E93 JUMP JUMPDEST POP PUSH1 0x20 DUP3 ADD MLOAD PUSH2 0x1E6B PUSH1 0x20 DUP6 ADD DUP3 PUSH2 0x1D78 JUMP JUMPDEST POP PUSH1 0x40 DUP3 ADD MLOAD PUSH2 0x1E7E PUSH1 0x40 DUP6 ADD DUP3 PUSH2 0x1DA5 JUMP JUMPDEST POP POP POP POP JUMP JUMPDEST PUSH2 0x1E8D DUP2 PUSH2 0x21E0 JUMP JUMPDEST DUP3 MSTORE POP POP JUMP JUMPDEST PUSH2 0x1E9C DUP2 PUSH2 0x220E JUMP JUMPDEST DUP3 MSTORE POP POP JUMP JUMPDEST PUSH2 0x1EAB DUP2 PUSH2 0x220E JUMP JUMPDEST DUP3 MSTORE POP POP JUMP JUMPDEST PUSH2 0x1EBA DUP2 PUSH2 0x2218 JUMP JUMPDEST DUP3 MSTORE POP POP JUMP JUMPDEST PUSH2 0x1EC9 DUP2 PUSH2 0x2228 JUMP JUMPDEST DUP3 MSTORE POP POP JUMP JUMPDEST PUSH1 0x0 PUSH1 0x80 DUP3 ADD SWAP1 POP PUSH2 0x1EE4 PUSH1 0x0 DUP4 ADD DUP8 PUSH2 0x1D87 JUMP JUMPDEST PUSH2 0x1EF1 PUSH1 0x20 DUP4 ADD DUP7 PUSH2 0x1EA2 JUMP JUMPDEST PUSH2 0x1EFE PUSH1 0x40 DUP4 ADD DUP6 PUSH2 0x1EA2 JUMP JUMPDEST PUSH2 0x1F0B PUSH1 0x60 DUP4 ADD DUP5 PUSH2 0x1EC0 JUMP JUMPDEST SWAP6 SWAP5 POP POP POP POP POP JUMP JUMPDEST PUSH1 0x0 PUSH1 0x20 DUP3 ADD SWAP1 POP PUSH2 0x1F29 PUSH1 0x0 DUP4 ADD DUP5 PUSH2 0x1D96 JUMP JUMPDEST SWAP3 SWAP2 POP POP JUMP JUMPDEST PUSH1 0x0 PUSH1 0xC0 DUP3 ADD SWAP1 POP PUSH2 0x1F44 PUSH1 0x0 DUP4 ADD DUP10 PUSH2 0x1D96 JUMP JUMPDEST PUSH2 0x1F51 PUSH1 0x20 DUP4 ADD DUP9 PUSH2 0x1D87 JUMP JUMPDEST PUSH2 0x1F5E PUSH1 0x40 DUP4 ADD DUP8 PUSH2 0x1E84 JUMP JUMPDEST PUSH2 0x1F6B PUSH1 0x60 DUP4 ADD DUP7 PUSH2 0x1DB4 JUMP JUMPDEST DUP2 DUP2 SUB PUSH1 0x80 DUP4 ADD MSTORE PUSH2 0x1F7D DUP2 DUP6 PUSH2 0x1DC3 JUMP JUMPDEST SWAP1 POP DUP2 DUP2 SUB PUSH1 0xA0 DUP4 ADD MSTORE PUSH2 0x1F91 DUP2 DUP5 PUSH2 0x1DC3 JUMP JUMPDEST SWAP1 POP SWAP8 SWAP7 POP POP POP POP POP POP POP JUMP JUMPDEST PUSH1 0x0 PUSH1 0x60 DUP3 ADD SWAP1 POP PUSH2 0x1FB3 PUSH1 0x0 DUP4 ADD DUP7 PUSH2 0x1D96 JUMP JUMPDEST DUP2 DUP2 SUB PUSH1 0x20 DUP4 ADD MSTORE PUSH2 0x1FC5 DUP2 DUP6 PUSH2 0x1DC3 JUMP JUMPDEST SWAP1 POP PUSH2 0x1FD4 PUSH1 0x40 DUP4 ADD DUP5 PUSH2 0x1EC0 JUMP JUMPDEST SWAP5 SWAP4 POP POP POP POP JUMP JUMPDEST PUSH1 0x0 PUSH1 0x80 DUP3 ADD SWAP1 POP PUSH2 0x1FF1 PUSH1 0x0 DUP4 ADD DUP8 PUSH2 0x1D96 JUMP JUMPDEST PUSH2 0x1FFE PUSH1 0x20 DUP4 ADD DUP7 PUSH2 0x1EC0 JUMP JUMPDEST PUSH2 0x200B PUSH1 0x40 DUP4 ADD DUP6 PUSH2 0x1EA2 JUMP JUMPDEST DUP2 DUP2 SUB PUSH1 0x60 DUP4 ADD MSTORE PUSH2 0x201D DUP2 DUP5 PUSH2 0x1DC3 JUMP JUMPDEST SWAP1 POP SWAP6 SWAP5 POP POP POP POP POP JUMP JUMPDEST PUSH1 0x0 PUSH1 0x20 DUP3 ADD SWAP1 POP DUP2 DUP2 SUB PUSH1 0x0 DUP4 ADD MSTORE PUSH2 0x2041 DUP2 PUSH2 0x1DFC JUMP JUMPDEST SWAP1 POP SWAP2 SWAP1 POP JUMP JUMPDEST PUSH1 0x0 PUSH1 0x20 DUP3 ADD SWAP1 POP DUP2 DUP2 SUB PUSH1 0x0 DUP4 ADD MSTORE PUSH2 0x2061 DUP2 PUSH2 0x1E1F JUMP JUMPDEST SWAP1 POP SWAP2 SWAP1 POP JUMP JUMPDEST PUSH1 0x0 PUSH1 0x20 DUP3 ADD SWAP1 POP PUSH2 0x207D PUSH1 0x0 DUP4 ADD DUP5 PUSH2 0x1EA2 JUMP JUMPDEST SWAP3 SWAP2 POP POP JUMP JUMPDEST PUSH1 0x0 PUSH2 0x120 DUP3 ADD SWAP1 POP PUSH2 0x2099 PUSH1 0x0 DUP4 ADD DUP11 PUSH2 0x1EA2 JUMP JUMPDEST PUSH2 0x20A6 PUSH1 0x20 DUP4 ADD DUP10 PUSH2 0x1D87 JUMP JUMPDEST PUSH2 0x20B3 PUSH1 0x40 DUP4 ADD DUP9 PUSH2 0x1EA2 JUMP JUMPDEST PUSH2 0x20C0 PUSH1 0x60 DUP4 ADD DUP8 PUSH2 0x1EA2 JUMP JUMPDEST PUSH2 0x20CD PUSH1 0x80 DUP4 ADD DUP7 PUSH2 0x1EC0 JUMP JUMPDEST DUP2 DUP2 SUB PUSH1 0xA0 DUP4 ADD MSTORE PUSH2 0x20DF DUP2 DUP6 PUSH2 0x1DC3 JUMP JUMPDEST SWAP1 POP PUSH2 0x20EE PUSH1 0xC0 DUP4 ADD DUP5 PUSH2 0x1E42 JUMP JUMPDEST SWAP9 SWAP8 POP POP POP POP POP POP POP POP JUMP JUMPDEST PUSH1 0x0 PUSH1 0x40 DUP3 ADD SWAP1 POP PUSH2 0x210F PUSH1 0x0 DUP4 ADD DUP6 PUSH2 0x1EB1 JUMP JUMPDEST DUP2 DUP2 SUB PUSH1 0x20 DUP4 ADD MSTORE PUSH2 0x2121 DUP2 DUP5 PUSH2 0x1DC3 JUMP JUMPDEST SWAP1 POP SWAP4 SWAP3 POP POP POP JUMP JUMPDEST PUSH1 0x0 PUSH2 0x2134 PUSH2 0x2145 JUMP JUMPDEST SWAP1 POP PUSH2 0x2140 DUP3 DUP3 PUSH2 0x22CD JUMP JUMPDEST SWAP2 SWAP1 POP JUMP JUMPDEST PUSH1 0x0 PUSH1 0x40 MLOAD SWAP1 POP SWAP1 JUMP JUMPDEST PUSH1 0x0 PUSH8 0xFFFFFFFFFFFFFFFF DUP3 GT ISZERO PUSH2 0x216A JUMPI PUSH2 0x2169 PUSH2 0x23D4 JUMP JUMPDEST JUMPDEST PUSH2 0x2173 DUP3 PUSH2 0x2417 JUMP JUMPDEST SWAP1 POP PUSH1 0x20 DUP2 ADD SWAP1 POP SWAP2 SWAP1 POP JUMP JUMPDEST PUSH1 0x0 DUP2 MLOAD SWAP1 POP SWAP2 SWAP1 POP JUMP JUMPDEST PUSH1 0x0 DUP3 DUP3 MSTORE PUSH1 0x20 DUP3 ADD SWAP1 POP SWAP3 SWAP2 POP POP JUMP JUMPDEST PUSH1 0x0 PUSH2 0x21A7 DUP3 PUSH2 0x21EE JUMP JUMPDEST SWAP1 POP SWAP2 SWAP1 POP JUMP JUMPDEST PUSH1 0x0 DUP2 ISZERO ISZERO SWAP1 POP SWAP2 SWAP1 POP JUMP JUMPDEST PUSH1 0x0 DUP2 SWAP1 POP PUSH2 0x21C8 DUP3 PUSH2 0x247A JUMP JUMPDEST SWAP2 SWAP1 POP JUMP JUMPDEST PUSH1 0x0 DUP2 SWAP1 POP PUSH2 0x21DB DUP3 PUSH2 0x248E JUMP JUMPDEST SWAP2 SWAP1 POP JUMP JUMPDEST PUSH1 0x0 PUSH2 0xFFFF DUP3 AND SWAP1 POP SWAP2 SWAP1 POP JUMP JUMPDEST PUSH1 0x0 PUSH20 0xFFFFFFFFFFFFFFFFFFFFFFFFFFFFFFFFFFFFFFFF DUP3 AND SWAP1 POP SWAP2 SWAP1 POP JUMP JUMPDEST PUSH1 0x0 DUP2 SWAP1 POP SWAP2 SWAP1 POP JUMP JUMPDEST PUSH1 0x0 PUSH4 0xFFFFFFFF DUP3 AND SWAP1 POP SWAP2 SWAP1 POP JUMP JUMPDEST PUSH1 0x0 PUSH1 0xFF DUP3 AND SWAP1 POP SWAP2 SWAP1 POP JUMP JUMPDEST PUSH1 0x0 PUSH2 0x2240 DUP3 PUSH2 0x21BA JUMP JUMPDEST SWAP1 POP SWAP2 SWAP1 POP JUMP JUMPDEST PUSH1 0x0 PUSH2 0x2252 DUP3 PUSH2 0x21CD JUMP JUMPDEST SWAP1 POP SWAP2 SWAP1 POP JUMP JUMPDEST DUP3 DUP2 DUP4 CALLDATACOPY PUSH1 0x0 DUP4 DUP4 ADD MSTORE POP POP POP JUMP JUMPDEST PUSH1 0x0 JUMPDEST DUP4 DUP2 LT ISZERO PUSH2 0x2286 JUMPI DUP1 DUP3 ADD MLOAD DUP2 DUP5 ADD MSTORE PUSH1 0x20 DUP2 ADD SWAP1 POP PUSH2 0x226B JUMP JUMPDEST DUP4 DUP2 GT ISZERO PUSH2 0x2295 JUMPI PUSH1 0x0 DUP5 DUP5 ADD MSTORE JUMPDEST POP POP POP POP JUMP JUMPDEST PUSH1 0x0 PUSH1 0x2 DUP3 DIV SWAP1 POP PUSH1 0x1 DUP3 AND DUP1 PUSH2 0x22B3 JUMPI PUSH1 0x7F DUP3 AND SWAP2 POP JUMPDEST PUSH1 0x20 DUP3 LT DUP2 EQ ISZERO PUSH2 0x22C7 JUMPI PUSH2 0x22C6 PUSH2 0x23A5 JUMP JUMPDEST JUMPDEST POP SWAP2 SWAP1 POP JUMP JUMPDEST PUSH2 0x22D6 DUP3 PUSH2 0x2417 JUMP JUMPDEST DUP2 ADD DUP2 DUP2 LT PUSH8 0xFFFFFFFFFFFFFFFF DUP3 GT OR ISZERO PUSH2 0x22F5 JUMPI PUSH2 0x22F4 PUSH2 0x23D4 JUMP JUMPDEST JUMPDEST DUP1 PUSH1 0x40 MSTORE POP POP POP JUMP JUMPDEST PUSH1 0x0 PUSH2 0x2309 DUP3 PUSH2 0x220E JUMP JUMPDEST SWAP2 POP PUSH32 0xFFFFFFFFFFFFFFFFFFFFFFFFFFFFFFFFFFFFFFFFFFFFFFFFFFFFFFFFFFFFFFFF DUP3 EQ ISZERO PUSH2 0x233C JUMPI PUSH2 0x233B PUSH2 0x2347 JUMP JUMPDEST JUMPDEST PUSH1 0x1 DUP3 ADD SWAP1 POP SWAP2 SWAP1 POP JUMP JUMPDEST PUSH32 0x4E487B7100000000000000000000000000000000000000000000000000000000 PUSH1 0x0 MSTORE PUSH1 0x11 PUSH1 0x4 MSTORE PUSH1 0x24 PUSH1 0x0 REVERT JUMPDEST PUSH32 0x4E487B7100000000000000000000000000000000000000000000000000000000 PUSH1 0x0 MSTORE PUSH1 0x21 PUSH1 0x4 MSTORE PUSH1 0x24 PUSH1 0x0 REVERT JUMPDEST PUSH32 0x4E487B7100000000000000000000000000000000000000000000000000000000 PUSH1 0x0 MSTORE PUSH1 0x22 PUSH1 0x4 MSTORE PUSH1 0x24 PUSH1 0x0 REVERT JUMPDEST PUSH32 0x4E487B7100000000000000000000000000000000000000000000000000000000 PUSH1 0x0 MSTORE PUSH1 0x41 PUSH1 0x4 MSTORE PUSH1 0x24 PUSH1 0x0 REVERT JUMPDEST PUSH1 0x0 DUP1 REVERT JUMPDEST PUSH1 0x0 DUP1 REVERT JUMPDEST PUSH1 0x0 DUP1 REVERT JUMPDEST PUSH1 0x0 DUP1 REVERT JUMPDEST PUSH1 0x0 PUSH1 0x1F NOT PUSH1 0x1F DUP4 ADD AND SWAP1 POP SWAP2 SWAP1 POP JUMP JUMPDEST PUSH32 0x4B697369206D657663757420646567696C000000000000000000000000000000 PUSH1 0x0 DUP3 ADD MSTORE POP JUMP JUMPDEST PUSH32 0x42752069736C656D6920736164656365204B757273207961706162696C69722E PUSH1 0x0 DUP3 ADD MSTORE POP JUMP JUMPDEST PUSH1 0x3 DUP2 LT PUSH2 0x248B JUMPI PUSH2 0x248A PUSH2 0x2376 JUMP JUMPDEST JUMPDEST POP JUMP JUMPDEST PUSH1 0x4 DUP2 LT PUSH2 0x249F JUMPI PUSH2 0x249E PUSH2 0x2376 JUMP JUMPDEST JUMPDEST POP JUMP JUMPDEST PUSH2 0x24AB DUP2 PUSH2 0x219C JUMP JUMPDEST DUP2 EQ PUSH2 0x24B6 JUMPI PUSH1 0x0 DUP1 REVERT JUMPDEST POP JUMP JUMPDEST PUSH2 0x24C2 DUP2 PUSH2 0x220E JUMP JUMPDEST DUP2 EQ PUSH2 0x24CD JUMPI PUSH1 0x0 DUP1 REVERT JUMPDEST POP JUMP JUMPDEST PUSH2 0x24D9 DUP2 PUSH2 0x2218 JUMP JUMPDEST DUP2 EQ PUSH2 0x24E4 JUMPI PUSH1 0x0 DUP1 REVERT JUMPDEST POP JUMP JUMPDEST PUSH2 0x24F0 DUP2 PUSH2 0x2228 JUMP JUMPDEST DUP2 EQ PUSH2 0x24FB JUMPI PUSH1 0x0 DUP1 REVERT JUMPDEST POP JUMP INVALID LOG2 PUSH5 0x6970667358 0x22 SLT KECCAK256 SAR PUSH4 0x81E5F64D 0xC7 0xD LT 0x2C 0xDD 0xC3 PUSH30 0xB1C258D4E961713E822EBF97D452F1312AA16364736F6C63430008070033 "
				},
				"gasEstimates": {
					"creation": {
						"codeDepositCost": "1904800",
						"executionCost": "2012",
						"totalCost": "1906812"
					},
					"external": {
						"akademisyenler(address)": "infinite",
						"diller(uint32)": "infinite",
						"ekleKursBilgi(address,uint256,uint256,uint8,string)": "infinite",
						"firmalar(address)": "infinite",
						"guncelleKursBilgi(address,uint256,uint256,uint256,uint8,string)": "infinite",
						"id()": "2451",
						"kamuKurumlari(address)": "infinite",
						"kisiler(address)": "2936",
						"kursBilgiListesi(address,uint256)": "infinite",
						"kurslar(address)": "infinite",
						"sertifikaMerkezleri(address)": "infinite",
						"stklar(address)": "infinite",
						"talepEtKursBilgi(address,uint256,uint256,uint8,string)": "infinite",
						"universiteler(address)": "infinite"
					}
				},
				"methodIdentifiers": {
					"akademisyenler(address)": "ba479b7e",
					"diller(uint32)": "a4e7ae05",
					"ekleKursBilgi(address,uint256,uint256,uint8,string)": "6dac86de",
					"firmalar(address)": "39987f94",
					"guncelleKursBilgi(address,uint256,uint256,uint256,uint8,string)": "1957b59f",
					"id()": "af640d0f",
					"kamuKurumlari(address)": "7d0fa287",
					"kisiler(address)": "cbc92809",
					"kursBilgiListesi(address,uint256)": "d5070f43",
					"kurslar(address)": "1916e139",
					"sertifikaMerkezleri(address)": "356b1f1e",
					"stklar(address)": "9a8c9119",
					"talepEtKursBilgi(address,uint256,uint256,uint8,string)": "98522fd6",
					"universiteler(address)": "28266697"
				}
			},
			"storageLayout": {
				"storage": [
					{
						"astId": 3,
						"contract": "contracts/KursBilgileri.sol:KursBilgileri",
						"label": "YOK",
						"offset": 0,
						"slot": "0",
						"type": "t_address"
					},
					{
						"astId": 5,
						"contract": "contracts/KursBilgileri.sol:KursBilgileri",
						"label": "TOBB",
						"offset": 0,
						"slot": "1",
						"type": "t_address"
					},
					{
						"astId": 7,
						"contract": "contracts/KursBilgileri.sol:KursBilgileri",
						"label": "CB",
						"offset": 0,
						"slot": "2",
						"type": "t_address"
					},
					{
						"astId": 249,
						"contract": "contracts/KursBilgileri.sol:KursBilgileri",
						"label": "kisiler",
						"offset": 0,
						"slot": "3",
						"type": "t_mapping(t_address,t_struct(Kisi)10_storage)"
					},
					{
						"astId": 254,
						"contract": "contracts/KursBilgileri.sol:KursBilgileri",
						"label": "universiteler",
						"offset": 0,
						"slot": "4",
						"type": "t_mapping(t_address,t_struct(Universite)29_storage)"
					},
					{
						"astId": 259,
						"contract": "contracts/KursBilgileri.sol:KursBilgileri",
						"label": "akademisyenler",
						"offset": 0,
						"slot": "5",
						"type": "t_mapping(t_address,t_struct(Akademisyen)43_storage)"
					},
					{
						"astId": 264,
						"contract": "contracts/KursBilgileri.sol:KursBilgileri",
						"label": "firmalar",
						"offset": 0,
						"slot": "6",
						"type": "t_mapping(t_address,t_struct(Firma)83_storage)"
					},
					{
						"astId": 269,
						"contract": "contracts/KursBilgileri.sol:KursBilgileri",
						"label": "kurslar",
						"offset": 0,
						"slot": "7",
						"type": "t_mapping(t_address,t_struct(Kurs)111_storage)"
					},
					{
						"astId": 274,
						"contract": "contracts/KursBilgileri.sol:KursBilgileri",
						"label": "kamuKurumlari",
						"offset": 0,
						"slot": "8",
						"type": "t_mapping(t_address,t_struct(KamuKurumu)90_storage)"
					},
					{
						"astId": 279,
						"contract": "contracts/KursBilgileri.sol:KursBilgileri",
						"label": "stklar",
						"offset": 0,
						"slot": "9",
						"type": "t_mapping(t_address,t_struct(STK)97_storage)"
					},
					{
						"astId": 284,
						"contract": "contracts/KursBilgileri.sol:KursBilgileri",
						"label": "sertifikaMerkezleri",
						"offset": 0,
						"slot": "10",
						"type": "t_mapping(t_address,t_struct(SertifikaMerkezi)104_storage)"
					},
					{
						"astId": 289,
						"contract": "contracts/KursBilgileri.sol:KursBilgileri",
						"label": "diller",
						"offset": 0,
						"slot": "11",
						"type": "t_mapping(t_uint32,t_struct(YabanciDil)116_storage)"
					},
					{
						"astId": 297,
						"contract": "contracts/KursBilgileri.sol:KursBilgileri",
						"label": "id",
						"offset": 0,
						"slot": "12",
						"type": "t_uint256"
					},
					{
						"astId": 320,
						"contract": "contracts/KursBilgileri.sol:KursBilgileri",
						"label": "kursBilgiListesi",
						"offset": 0,
						"slot": "13",
						"type": "t_mapping(t_address,t_mapping(t_uint256,t_struct(KursBilgi)313_storage))"
					}
				],
				"types": {
					"t_address": {
						"encoding": "inplace",
						"label": "address",
						"numberOfBytes": "20"
					},
					"t_bool": {
						"encoding": "inplace",
						"label": "bool",
						"numberOfBytes": "1"
					},
					"t_enum(OnayDurum)22": {
						"encoding": "inplace",
						"label": "enum BaseContract.OnayDurum",
						"numberOfBytes": "1"
					},
					"t_enum(Unvan)48": {
						"encoding": "inplace",
						"label": "enum BaseContract.Unvan",
						"numberOfBytes": "1"
					},
					"t_mapping(t_address,t_mapping(t_uint256,t_struct(KursBilgi)313_storage))": {
						"encoding": "mapping",
						"key": "t_address",
						"label": "mapping(address => mapping(uint256 => struct KursBilgileri.KursBilgi))",
						"numberOfBytes": "32",
						"value": "t_mapping(t_uint256,t_struct(KursBilgi)313_storage)"
					},
					"t_mapping(t_address,t_struct(Akademisyen)43_storage)": {
						"encoding": "mapping",
						"key": "t_address",
						"label": "mapping(address => struct BaseContract.Akademisyen)",
						"numberOfBytes": "32",
						"value": "t_struct(Akademisyen)43_storage"
					},
					"t_mapping(t_address,t_struct(Firma)83_storage)": {
						"encoding": "mapping",
						"key": "t_address",
						"label": "mapping(address => struct BaseContract.Firma)",
						"numberOfBytes": "32",
						"value": "t_struct(Firma)83_storage"
					},
					"t_mapping(t_address,t_struct(KamuKurumu)90_storage)": {
						"encoding": "mapping",
						"key": "t_address",
						"label": "mapping(address => struct BaseContract.KamuKurumu)",
						"numberOfBytes": "32",
						"value": "t_struct(KamuKurumu)90_storage"
					},
					"t_mapping(t_address,t_struct(Kisi)10_storage)": {
						"encoding": "mapping",
						"key": "t_address",
						"label": "mapping(address => struct BaseContract.Kisi)",
						"numberOfBytes": "32",
						"value": "t_struct(Kisi)10_storage"
					},
					"t_mapping(t_address,t_struct(Kurs)111_storage)": {
						"encoding": "mapping",
						"key": "t_address",
						"label": "mapping(address => struct BaseContract.Kurs)",
						"numberOfBytes": "32",
						"value": "t_struct(Kurs)111_storage"
					},
					"t_mapping(t_address,t_struct(STK)97_storage)": {
						"encoding": "mapping",
						"key": "t_address",
						"label": "mapping(address => struct BaseContract.STK)",
						"numberOfBytes": "32",
						"value": "t_struct(STK)97_storage"
					},
					"t_mapping(t_address,t_struct(SertifikaMerkezi)104_storage)": {
						"encoding": "mapping",
						"key": "t_address",
						"label": "mapping(address => struct BaseContract.SertifikaMerkezi)",
						"numberOfBytes": "32",
						"value": "t_struct(SertifikaMerkezi)104_storage"
					},
					"t_mapping(t_address,t_struct(Universite)29_storage)": {
						"encoding": "mapping",
						"key": "t_address",
						"label": "mapping(address => struct BaseContract.Universite)",
						"numberOfBytes": "32",
						"value": "t_struct(Universite)29_storage"
					},
					"t_mapping(t_uint256,t_struct(KursBilgi)313_storage)": {
						"encoding": "mapping",
						"key": "t_uint256",
						"label": "mapping(uint256 => struct KursBilgileri.KursBilgi)",
						"numberOfBytes": "32",
						"value": "t_struct(KursBilgi)313_storage"
					},
					"t_mapping(t_uint32,t_struct(YabanciDil)116_storage)": {
						"encoding": "mapping",
						"key": "t_uint32",
						"label": "mapping(uint32 => struct BaseContract.YabanciDil)",
						"numberOfBytes": "32",
						"value": "t_struct(YabanciDil)116_storage"
					},
					"t_string_storage": {
						"encoding": "bytes",
						"label": "string",
						"numberOfBytes": "32"
					},
					"t_struct(Akademisyen)43_storage": {
						"encoding": "inplace",
						"label": "struct BaseContract.Akademisyen",
						"members": [
							{
								"astId": 31,
								"contract": "contracts/KursBilgileri.sol:KursBilgileri",
								"label": "durum",
								"offset": 0,
								"slot": "0",
								"type": "t_bool"
							},
							{
								"astId": 33,
								"contract": "contracts/KursBilgileri.sol:KursBilgileri",
								"label": "universite",
								"offset": 1,
								"slot": "0",
								"type": "t_address"
							},
							{
								"astId": 35,
								"contract": "contracts/KursBilgileri.sol:KursBilgileri",
								"label": "bolum",
								"offset": 21,
								"slot": "0",
								"type": "t_uint16"
							},
							{
								"astId": 38,
								"contract": "contracts/KursBilgileri.sol:KursBilgileri",
								"label": "unvan",
								"offset": 23,
								"slot": "0",
								"type": "t_enum(Unvan)48"
							},
							{
								"astId": 40,
								"contract": "contracts/KursBilgileri.sol:KursBilgileri",
								"label": "ad",
								"offset": 0,
								"slot": "1",
								"type": "t_string_storage"
							},
							{
								"astId": 42,
								"contract": "contracts/KursBilgileri.sol:KursBilgileri",
								"label": "soyad",
								"offset": 0,
								"slot": "2",
								"type": "t_string_storage"
							}
						],
						"numberOfBytes": "96"
					},
					"t_struct(Firma)83_storage": {
						"encoding": "inplace",
						"label": "struct BaseContract.Firma",
						"members": [
							{
								"astId": 76,
								"contract": "contracts/KursBilgileri.sol:KursBilgileri",
								"label": "durum",
								"offset": 0,
								"slot": "0",
								"type": "t_bool"
							},
							{
								"astId": 78,
								"contract": "contracts/KursBilgileri.sol:KursBilgileri",
								"label": "ulke",
								"offset": 1,
								"slot": "0",
								"type": "t_uint8"
							},
							{
								"astId": 80,
								"contract": "contracts/KursBilgileri.sol:KursBilgileri",
								"label": "vergiNo",
								"offset": 0,
								"slot": "1",
								"type": "t_uint256"
							},
							{
								"astId": 82,
								"contract": "contracts/KursBilgileri.sol:KursBilgileri",
								"label": "isim",
								"offset": 0,
								"slot": "2",
								"type": "t_string_storage"
							}
						],
						"numberOfBytes": "96"
					},
					"t_struct(KamuKurumu)90_storage": {
						"encoding": "inplace",
						"label": "struct BaseContract.KamuKurumu",
						"members": [
							{
								"astId": 85,
								"contract": "contracts/KursBilgileri.sol:KursBilgileri",
								"label": "durum",
								"offset": 0,
								"slot": "0",
								"type": "t_bool"
							},
							{
								"astId": 87,
								"contract": "contracts/KursBilgileri.sol:KursBilgileri",
								"label": "isim",
								"offset": 0,
								"slot": "1",
								"type": "t_string_storage"
							},
							{
								"astId": 89,
								"contract": "contracts/KursBilgileri.sol:KursBilgileri",
								"label": "ulke",
								"offset": 0,
								"slot": "2",
								"type": "t_uint8"
							}
						],
						"numberOfBytes": "96"
					},
					"t_struct(Kisi)10_storage": {
						"encoding": "inplace",
						"label": "struct BaseContract.Kisi",
						"members": [
							{
								"astId": 9,
								"contract": "contracts/KursBilgileri.sol:KursBilgileri",
								"label": "durum",
								"offset": 0,
								"slot": "0",
								"type": "t_bool"
							}
						],
						"numberOfBytes": "32"
					},
					"t_struct(Kurs)111_storage": {
						"encoding": "inplace",
						"label": "struct BaseContract.Kurs",
						"members": [
							{
								"astId": 106,
								"contract": "contracts/KursBilgileri.sol:KursBilgileri",
								"label": "durum",
								"offset": 0,
								"slot": "0",
								"type": "t_bool"
							},
							{
								"astId": 108,
								"contract": "contracts/KursBilgileri.sol:KursBilgileri",
								"label": "isim",
								"offset": 0,
								"slot": "1",
								"type": "t_string_storage"
							},
							{
								"astId": 110,
								"contract": "contracts/KursBilgileri.sol:KursBilgileri",
								"label": "ulke",
								"offset": 0,
								"slot": "2",
								"type": "t_uint8"
							}
						],
						"numberOfBytes": "96"
					},
					"t_struct(KursBilgi)313_storage": {
						"encoding": "inplace",
						"label": "struct KursBilgileri.KursBilgi",
						"members": [
							{
								"astId": 299,
								"contract": "contracts/KursBilgileri.sol:KursBilgileri",
								"label": "id",
								"offset": 0,
								"slot": "0",
								"type": "t_uint256"
							},
							{
								"astId": 301,
								"contract": "contracts/KursBilgileri.sol:KursBilgileri",
								"label": "talepEdilenKurum",
								"offset": 0,
								"slot": "1",
								"type": "t_address"
							},
							{
								"astId": 303,
								"contract": "contracts/KursBilgileri.sol:KursBilgileri",
								"label": "basTarih",
								"offset": 0,
								"slot": "2",
								"type": "t_uint256"
							},
							{
								"astId": 305,
								"contract": "contracts/KursBilgileri.sol:KursBilgileri",
								"label": "bitTarih",
								"offset": 0,
								"slot": "3",
								"type": "t_uint256"
							},
							{
								"astId": 307,
								"contract": "contracts/KursBilgileri.sol:KursBilgileri",
								"label": "sure",
								"offset": 0,
								"slot": "4",
								"type": "t_uint8"
							},
							{
								"astId": 309,
								"contract": "contracts/KursBilgileri.sol:KursBilgileri",
								"label": "egitimAdi",
								"offset": 0,
								"slot": "5",
								"type": "t_string_storage"
							},
							{
								"astId": 312,
								"contract": "contracts/KursBilgileri.sol:KursBilgileri",
								"label": "onayBilgi",
								"offset": 0,
								"slot": "6",
								"type": "t_struct(Onay)18_storage"
							}
						],
						"numberOfBytes": "256"
					},
					"t_struct(Onay)18_storage": {
						"encoding": "inplace",
						"label": "struct BaseContract.Onay",
						"members": [
							{
								"astId": 12,
								"contract": "contracts/KursBilgileri.sol:KursBilgileri",
								"label": "zaman",
								"offset": 0,
								"slot": "0",
								"type": "t_uint256"
							},
							{
								"astId": 14,
								"contract": "contracts/KursBilgileri.sol:KursBilgileri",
								"label": "adres",
								"offset": 0,
								"slot": "1",
								"type": "t_address"
							},
							{
								"astId": 17,
								"contract": "contracts/KursBilgileri.sol:KursBilgileri",
								"label": "durum",
								"offset": 20,
								"slot": "1",
								"type": "t_enum(OnayDurum)22"
							}
						],
						"numberOfBytes": "64"
					},
					"t_struct(STK)97_storage": {
						"encoding": "inplace",
						"label": "struct BaseContract.STK",
						"members": [
							{
								"astId": 92,
								"contract": "contracts/KursBilgileri.sol:KursBilgileri",
								"label": "durum",
								"offset": 0,
								"slot": "0",
								"type": "t_bool"
							},
							{
								"astId": 94,
								"contract": "contracts/KursBilgileri.sol:KursBilgileri",
								"label": "isim",
								"offset": 0,
								"slot": "1",
								"type": "t_string_storage"
							},
							{
								"astId": 96,
								"contract": "contracts/KursBilgileri.sol:KursBilgileri",
								"label": "ulke",
								"offset": 0,
								"slot": "2",
								"type": "t_uint8"
							}
						],
						"numberOfBytes": "96"
					},
					"t_struct(SertifikaMerkezi)104_storage": {
						"encoding": "inplace",
						"label": "struct BaseContract.SertifikaMerkezi",
						"members": [
							{
								"astId": 99,
								"contract": "contracts/KursBilgileri.sol:KursBilgileri",
								"label": "durum",
								"offset": 0,
								"slot": "0",
								"type": "t_bool"
							},
							{
								"astId": 101,
								"contract": "contracts/KursBilgileri.sol:KursBilgileri",
								"label": "isim",
								"offset": 0,
								"slot": "1",
								"type": "t_string_storage"
							},
							{
								"astId": 103,
								"contract": "contracts/KursBilgileri.sol:KursBilgileri",
								"label": "ulke",
								"offset": 0,
								"slot": "2",
								"type": "t_uint8"
							}
						],
						"numberOfBytes": "96"
					},
					"t_struct(Universite)29_storage": {
						"encoding": "inplace",
						"label": "struct BaseContract.Universite",
						"members": [
							{
								"astId": 24,
								"contract": "contracts/KursBilgileri.sol:KursBilgileri",
								"label": "durum",
								"offset": 0,
								"slot": "0",
								"type": "t_bool"
							},
							{
								"astId": 26,
								"contract": "contracts/KursBilgileri.sol:KursBilgileri",
								"label": "isim",
								"offset": 0,
								"slot": "1",
								"type": "t_string_storage"
							},
							{
								"astId": 28,
								"contract": "contracts/KursBilgileri.sol:KursBilgileri",
								"label": "ulke",
								"offset": 0,
								"slot": "2",
								"type": "t_uint8"
							}
						],
						"numberOfBytes": "96"
					},
					"t_struct(YabanciDil)116_storage": {
						"encoding": "inplace",
						"label": "struct BaseContract.YabanciDil",
						"members": [
							{
								"astId": 113,
								"contract": "contracts/KursBilgileri.sol:KursBilgileri",
								"label": "id",
								"offset": 0,
								"slot": "0",
								"type": "t_uint32"
							},
							{
								"astId": 115,
								"contract": "contracts/KursBilgileri.sol:KursBilgileri",
								"label": "isim",
								"offset": 0,
								"slot": "1",
								"type": "t_string_storage"
							}
						],
						"numberOfBytes": "64"
					},
					"t_uint16": {
						"encoding": "inplace",
						"label": "uint16",
						"numberOfBytes": "2"
					},
					"t_uint256": {
						"encoding": "inplace",
						"label": "uint256",
						"numberOfBytes": "32"
					},
					"t_uint32": {
						"encoding": "inplace",
						"label": "uint32",
						"numberOfBytes": "4"
					},
					"t_uint8": {
						"encoding": "inplace",
						"label": "uint8",
						"numberOfBytes": "1"
					}
				}
			},
			"userdoc": {
				"kind": "user",
				"methods": {},
				"version": 1
			}
		}
	}
}