{
	"contracts/Registration.sol": {
		"Registration": {
			"abi": [
				{
					"inputs": [
						{
							"internalType": "address",
							"name": "_yok",
							"type": "address"
						},
						{
							"internalType": "address",
							"name": "_tobb",
							"type": "address"
						},
						{
							"internalType": "address",
							"name": "_cb",
							"type": "address"
						}
					],
					"stateMutability": "nonpayable",
					"type": "constructor"
				},
				{
					"anonymous": false,
					"inputs": [
						{
							"indexed": false,
							"internalType": "address",
							"name": "_akademisyenAdres",
							"type": "address"
						},
						{
							"indexed": false,
							"internalType": "address",
							"name": "_universiteAdres",
							"type": "address"
						},
						{
							"indexed": false,
							"internalType": "string",
							"name": "_ad",
							"type": "string"
						},
						{
							"indexed": false,
							"internalType": "string",
							"name": "_soyad",
							"type": "string"
						},
						{
							"indexed": false,
							"internalType": "uint16",
							"name": "_bolum",
							"type": "uint16"
						},
						{
							"indexed": false,
							"internalType": "enum BaseContract.Unvan",
							"name": "_unvan",
							"type": "uint8"
						}
					],
					"name": "AkademisyenEkleLog",
					"type": "event"
				},
				{
					"anonymous": false,
					"inputs": [
						{
							"indexed": false,
							"internalType": "address",
							"name": "_firmaAdres",
							"type": "address"
						},
						{
							"indexed": false,
							"internalType": "string",
							"name": "_isim",
							"type": "string"
						},
						{
							"indexed": false,
							"internalType": "uint256",
							"name": "_vergiNo",
							"type": "uint256"
						},
						{
							"indexed": false,
							"internalType": "uint8",
							"name": "_ulke",
							"type": "uint8"
						}
					],
					"name": "FirmaEkleLog",
					"type": "event"
				},
				{
					"anonymous": false,
					"inputs": [
						{
							"indexed": false,
							"internalType": "address",
							"name": "_kamuKurumuAdres",
							"type": "address"
						},
						{
							"indexed": false,
							"internalType": "string",
							"name": "_isim",
							"type": "string"
						},
						{
							"indexed": false,
							"internalType": "uint8",
							"name": "_ulke",
							"type": "uint8"
						}
					],
					"name": "KamuKurumuEkleLog",
					"type": "event"
				},
				{
					"anonymous": false,
					"inputs": [
						{
							"indexed": false,
							"internalType": "address",
							"name": "_kursAdres",
							"type": "address"
						},
						{
							"indexed": false,
							"internalType": "string",
							"name": "_isim",
							"type": "string"
						},
						{
							"indexed": false,
							"internalType": "uint8",
							"name": "_ulke",
							"type": "uint8"
						}
					],
					"name": "KursEkleLog",
					"type": "event"
				},
				{
					"anonymous": false,
					"inputs": [
						{
							"indexed": false,
							"internalType": "address",
							"name": "_personAddress",
							"type": "address"
						}
					],
					"name": "PersonRegisteredLog",
					"type": "event"
				},
				{
					"anonymous": false,
					"inputs": [
						{
							"indexed": false,
							"internalType": "address",
							"name": "_stkAdres",
							"type": "address"
						},
						{
							"indexed": false,
							"internalType": "string",
							"name": "_isim",
							"type": "string"
						},
						{
							"indexed": false,
							"internalType": "uint8",
							"name": "_ulke",
							"type": "uint8"
						}
					],
					"name": "STKEkleLog",
					"type": "event"
				},
				{
					"anonymous": false,
					"inputs": [
						{
							"indexed": false,
							"internalType": "address",
							"name": "_smAdres",
							"type": "address"
						},
						{
							"indexed": false,
							"internalType": "string",
							"name": "_isim",
							"type": "string"
						},
						{
							"indexed": false,
							"internalType": "uint8",
							"name": "_ulke",
							"type": "uint8"
						}
					],
					"name": "SertifikaMerkeziEkleLog",
					"type": "event"
				},
				{
					"anonymous": false,
					"inputs": [
						{
							"indexed": false,
							"internalType": "address",
							"name": "_universiteAdres",
							"type": "address"
						},
						{
							"indexed": false,
							"internalType": "string",
							"name": "_isim",
							"type": "string"
						},
						{
							"indexed": false,
							"internalType": "uint8",
							"name": "_ulke",
							"type": "uint8"
						}
					],
					"name": "UniversiteKayitLog",
					"type": "event"
				},
				{
					"inputs": [
						{
							"internalType": "address",
							"name": "",
							"type": "address"
						}
					],
					"name": "akademisyenler",
					"outputs": [
						{
							"internalType": "bool",
							"name": "durum",
							"type": "bool"
						},
						{
							"internalType": "address",
							"name": "universite",
							"type": "address"
						},
						{
							"internalType": "uint16",
							"name": "bolum",
							"type": "uint16"
						},
						{
							"internalType": "enum BaseContract.Unvan",
							"name": "unvan",
							"type": "uint8"
						},
						{
							"internalType": "string",
							"name": "ad",
							"type": "string"
						},
						{
							"internalType": "string",
							"name": "soyad",
							"type": "string"
						}
					],
					"stateMutability": "view",
					"type": "function"
				},
				{
					"inputs": [
						{
							"internalType": "uint32",
							"name": "",
							"type": "uint32"
						}
					],
					"name": "diller",
					"outputs": [
						{
							"internalType": "uint32",
							"name": "id",
							"type": "uint32"
						},
						{
							"internalType": "string",
							"name": "isim",
							"type": "string"
						}
					],
					"stateMutability": "view",
					"type": "function"
				},
				{
					"inputs": [
						{
							"internalType": "address",
							"name": "_akademisyenAdres",
							"type": "address"
						},
						{
							"internalType": "address",
							"name": "_universiteAdres",
							"type": "address"
						},
						{
							"internalType": "string",
							"name": "_ad",
							"type": "string"
						},
						{
							"internalType": "string",
							"name": "_soyad",
							"type": "string"
						},
						{
							"internalType": "uint16",
							"name": "_bolum",
							"type": "uint16"
						},
						{
							"internalType": "enum BaseContract.Unvan",
							"name": "_unvan",
							"type": "uint8"
						}
					],
					"name": "ekleAkademisyen",
					"outputs": [],
					"stateMutability": "nonpayable",
					"type": "function"
				},
				{
					"inputs": [
						{
							"internalType": "address",
							"name": "_firmaAdres",
							"type": "address"
						},
						{
							"internalType": "string",
							"name": "_isim",
							"type": "string"
						},
						{
							"internalType": "uint256",
							"name": "_vergiNo",
							"type": "uint256"
						},
						{
							"internalType": "uint8",
							"name": "_ulke",
							"type": "uint8"
						}
					],
					"name": "ekleFirma",
					"outputs": [],
					"stateMutability": "nonpayable",
					"type": "function"
				},
				{
					"inputs": [
						{
							"internalType": "address",
							"name": "_kamuKurumuAdres",
							"type": "address"
						},
						{
							"internalType": "string",
							"name": "_isim",
							"type": "string"
						},
						{
							"internalType": "uint8",
							"name": "_ulke",
							"type": "uint8"
						}
					],
					"name": "ekleKamuKurumu",
					"outputs": [],
					"stateMutability": "nonpayable",
					"type": "function"
				},
				{
					"inputs": [
						{
							"internalType": "address",
							"name": "_kursAdres",
							"type": "address"
						},
						{
							"internalType": "string",
							"name": "_isim",
							"type": "string"
						},
						{
							"internalType": "uint8",
							"name": "_ulke",
							"type": "uint8"
						}
					],
					"name": "ekleKurs",
					"outputs": [],
					"stateMutability": "nonpayable",
					"type": "function"
				},
				{
					"inputs": [
						{
							"internalType": "address",
							"name": "_stkAdres",
							"type": "address"
						},
						{
							"internalType": "string",
							"name": "_isim",
							"type": "string"
						},
						{
							"internalType": "uint8",
							"name": "_ulke",
							"type": "uint8"
						}
					],
					"name": "ekleSTK",
					"outputs": [],
					"stateMutability": "nonpayable",
					"type": "function"
				},
				{
					"inputs": [
						{
							"internalType": "address",
							"name": "_smAdres",
							"type": "address"
						},
						{
							"internalType": "string",
							"name": "_isim",
							"type": "string"
						},
						{
							"internalType": "uint8",
							"name": "_ulke",
							"type": "uint8"
						}
					],
					"name": "ekleSertifikaMerkezi",
					"outputs": [],
					"stateMutability": "nonpayable",
					"type": "function"
				},
				{
					"inputs": [
						{
							"internalType": "address",
							"name": "_universiteAdres",
							"type": "address"
						},
						{
							"internalType": "string",
							"name": "_isim",
							"type": "string"
						},
						{
							"internalType": "uint8",
							"name": "_ulke",
							"type": "uint8"
						}
					],
					"name": "ekleUniversite",
					"outputs": [],
					"stateMutability": "nonpayable",
					"type": "function"
				},
				{
					"inputs": [
						{
							"internalType": "address",
							"name": "",
							"type": "address"
						}
					],
					"name": "firmalar",
					"outputs": [
						{
							"internalType": "bool",
							"name": "durum",
							"type": "bool"
						},
						{
							"internalType": "uint8",
							"name": "ulke",
							"type": "uint8"
						},
						{
							"internalType": "uint256",
							"name": "vergiNo",
							"type": "uint256"
						},
						{
							"internalType": "string",
							"name": "isim",
							"type": "string"
						}
					],
					"stateMutability": "view",
					"type": "function"
				},
				{
					"inputs": [
						{
							"internalType": "address",
							"name": "",
							"type": "address"
						}
					],
					"name": "kamuKurumlari",
					"outputs": [
						{
							"internalType": "bool",
							"name": "durum",
							"type": "bool"
						},
						{
							"internalType": "string",
							"name": "isim",
							"type": "string"
						},
						{
							"internalType": "uint8",
							"name": "ulke",
							"type": "uint8"
						}
					],
					"stateMutability": "view",
					"type": "function"
				},
				{
					"inputs": [
						{
							"internalType": "address",
							"name": "",
							"type": "address"
						}
					],
					"name": "kisiler",
					"outputs": [
						{
							"internalType": "bool",
							"name": "durum",
							"type": "bool"
						}
					],
					"stateMutability": "view",
					"type": "function"
				},
				{
					"inputs": [
						{
							"internalType": "address",
							"name": "",
							"type": "address"
						}
					],
					"name": "kurslar",
					"outputs": [
						{
							"internalType": "bool",
							"name": "durum",
							"type": "bool"
						},
						{
							"internalType": "string",
							"name": "isim",
							"type": "string"
						},
						{
							"internalType": "uint8",
							"name": "ulke",
							"type": "uint8"
						}
					],
					"stateMutability": "view",
					"type": "function"
				},
				{
					"inputs": [
						{
							"internalType": "address",
							"name": "",
							"type": "address"
						}
					],
					"name": "sertifikaMerkezleri",
					"outputs": [
						{
							"internalType": "bool",
							"name": "durum",
							"type": "bool"
						},
						{
							"internalType": "string",
							"name": "isim",
							"type": "string"
						},
						{
							"internalType": "uint8",
							"name": "ulke",
							"type": "uint8"
						}
					],
					"stateMutability": "view",
					"type": "function"
				},
				{
					"inputs": [
						{
							"internalType": "address",
							"name": "",
							"type": "address"
						}
					],
					"name": "stklar",
					"outputs": [
						{
							"internalType": "bool",
							"name": "durum",
							"type": "bool"
						},
						{
							"internalType": "string",
							"name": "isim",
							"type": "string"
						},
						{
							"internalType": "uint8",
							"name": "ulke",
							"type": "uint8"
						}
					],
					"stateMutability": "view",
					"type": "function"
				},
				{
					"inputs": [
						{
							"internalType": "address",
							"name": "",
							"type": "address"
						}
					],
					"name": "universiteler",
					"outputs": [
						{
							"internalType": "bool",
							"name": "durum",
							"type": "bool"
						},
						{
							"internalType": "string",
							"name": "isim",
							"type": "string"
						},
						{
							"internalType": "uint8",
							"name": "ulke",
							"type": "uint8"
						}
					],
					"stateMutability": "view",
					"type": "function"
				}
			],
			"devdoc": {
				"kind": "dev",
				"methods": {},
				"version": 1
			},
			"evm": {
				"assembly": "    /* \"contracts/Registration.sol\":102:5592  contract Registration is BaseContract{\r... */\n  mstore(0x40, 0x80)\n    /* \"contracts/Registration.sol\":825:944  constructor (address _yok, address _tobb, address _cb){\r... */\n  callvalue\n  dup1\n  iszero\n  tag_1\n  jumpi\n  0x00\n  dup1\n  revert\ntag_1:\n  pop\n  mload(0x40)\n  sub(codesize, bytecodeSize)\n  dup1\n  bytecodeSize\n  dup4\n  codecopy\n  dup2\n  dup2\n  add\n  0x40\n  mstore\n  dup2\n  add\n  swap1\n  tag_2\n  swap2\n  swap1\n  tag_3\n  jump\t// in\ntag_2:\n    /* \"contracts/Registration.sol\":894:898  _yok */\n  dup3\n    /* \"contracts/Registration.sol\":890:893  YOK */\n  0x00\n  dup1\n    /* \"contracts/Registration.sol\":890:898  YOK=_yok */\n  0x0100\n  exp\n  dup2\n  sload\n  dup2\n  0xffffffffffffffffffffffffffffffffffffffff\n  mul\n  not\n  and\n  swap1\n  dup4\n  0xffffffffffffffffffffffffffffffffffffffff\n  and\n  mul\n  or\n  swap1\n  sstore\n  pop\n    /* \"contracts/Registration.sol\":914:919  _tobb */\n  dup2\n    /* \"contracts/Registration.sol\":909:913  TOBB */\n  0x01\n  0x00\n    /* \"contracts/Registration.sol\":909:919  TOBB=_tobb */\n  0x0100\n  exp\n  dup2\n  sload\n  dup2\n  0xffffffffffffffffffffffffffffffffffffffff\n  mul\n  not\n  and\n  swap1\n  dup4\n  0xffffffffffffffffffffffffffffffffffffffff\n  and\n  mul\n  or\n  swap1\n  sstore\n  pop\n    /* \"contracts/Registration.sol\":933:936  _cb */\n  dup1\n    /* \"contracts/Registration.sol\":930:932  CB */\n  0x02\n  0x00\n    /* \"contracts/Registration.sol\":930:936  CB=_cb */\n  0x0100\n  exp\n  dup2\n  sload\n  dup2\n  0xffffffffffffffffffffffffffffffffffffffff\n  mul\n  not\n  and\n  swap1\n  dup4\n  0xffffffffffffffffffffffffffffffffffffffff\n  and\n  mul\n  or\n  swap1\n  sstore\n  pop\n    /* \"contracts/Registration.sol\":825:944  constructor (address _yok, address _tobb, address _cb){\r... */\n  pop\n  pop\n  pop\n    /* \"contracts/Registration.sol\":102:5592  contract Registration is BaseContract{\r... */\n  jump(tag_6)\n    /* \"#utility.yul\":7:150   */\ntag_8:\n    /* \"#utility.yul\":64:69   */\n  0x00\n    /* \"#utility.yul\":95:101   */\n  dup2\n    /* \"#utility.yul\":89:102   */\n  mload\n    /* \"#utility.yul\":80:102   */\n  swap1\n  pop\n    /* \"#utility.yul\":111:144   */\n  tag_10\n    /* \"#utility.yul\":138:143   */\n  dup2\n    /* \"#utility.yul\":111:144   */\n  tag_11\n  jump\t// in\ntag_10:\n    /* \"#utility.yul\":7:150   */\n  swap3\n  swap2\n  pop\n  pop\n  jump\t// out\n    /* \"#utility.yul\":156:819   */\ntag_3:\n    /* \"#utility.yul\":244:250   */\n  0x00\n    /* \"#utility.yul\":252:258   */\n  dup1\n    /* \"#utility.yul\":260:266   */\n  0x00\n    /* \"#utility.yul\":309:311   */\n  0x60\n    /* \"#utility.yul\":297:306   */\n  dup5\n    /* \"#utility.yul\":288:295   */\n  dup7\n    /* \"#utility.yul\":284:307   */\n  sub\n    /* \"#utility.yul\":280:312   */\n  slt\n    /* \"#utility.yul\":277:396   */\n  iszero\n  tag_13\n  jumpi\n    /* \"#utility.yul\":315:394   */\n  tag_14\n  tag_15\n  jump\t// in\ntag_14:\n    /* \"#utility.yul\":277:396   */\ntag_13:\n    /* \"#utility.yul\":435:436   */\n  0x00\n    /* \"#utility.yul\":460:524   */\n  tag_16\n    /* \"#utility.yul\":516:523   */\n  dup7\n    /* \"#utility.yul\":507:513   */\n  dup3\n    /* \"#utility.yul\":496:505   */\n  dup8\n    /* \"#utility.yul\":492:514   */\n  add\n    /* \"#utility.yul\":460:524   */\n  tag_8\n  jump\t// in\ntag_16:\n    /* \"#utility.yul\":450:524   */\n  swap4\n  pop\n    /* \"#utility.yul\":406:534   */\n  pop\n    /* \"#utility.yul\":573:575   */\n  0x20\n    /* \"#utility.yul\":599:663   */\n  tag_17\n    /* \"#utility.yul\":655:662   */\n  dup7\n    /* \"#utility.yul\":646:652   */\n  dup3\n    /* \"#utility.yul\":635:644   */\n  dup8\n    /* \"#utility.yul\":631:653   */\n  add\n    /* \"#utility.yul\":599:663   */\n  tag_8\n  jump\t// in\ntag_17:\n    /* \"#utility.yul\":589:663   */\n  swap3\n  pop\n    /* \"#utility.yul\":544:673   */\n  pop\n    /* \"#utility.yul\":712:714   */\n  0x40\n    /* \"#utility.yul\":738:802   */\n  tag_18\n    /* \"#utility.yul\":794:801   */\n  dup7\n    /* \"#utility.yul\":785:791   */\n  dup3\n    /* \"#utility.yul\":774:783   */\n  dup8\n    /* \"#utility.yul\":770:792   */\n  add\n    /* \"#utility.yul\":738:802   */\n  tag_8\n  jump\t// in\ntag_18:\n    /* \"#utility.yul\":728:802   */\n  swap2\n  pop\n    /* \"#utility.yul\":683:812   */\n  pop\n    /* \"#utility.yul\":156:819   */\n  swap3\n  pop\n  swap3\n  pop\n  swap3\n  jump\t// out\n    /* \"#utility.yul\":906:1002   */\ntag_21:\n    /* \"#utility.yul\":943:950   */\n  0x00\n    /* \"#utility.yul\":972:996   */\n  tag_23\n    /* \"#utility.yul\":990:995   */\n  dup3\n    /* \"#utility.yul\":972:996   */\n  tag_24\n  jump\t// in\ntag_23:\n    /* \"#utility.yul\":961:996   */\n  swap1\n  pop\n    /* \"#utility.yul\":906:1002   */\n  swap2\n  swap1\n  pop\n  jump\t// out\n    /* \"#utility.yul\":1008:1134   */\ntag_24:\n    /* \"#utility.yul\":1045:1052   */\n  0x00\n    /* \"#utility.yul\":1085:1127   */\n  0xffffffffffffffffffffffffffffffffffffffff\n    /* \"#utility.yul\":1078:1083   */\n  dup3\n    /* \"#utility.yul\":1074:1128   */\n  and\n    /* \"#utility.yul\":1063:1128   */\n  swap1\n  pop\n    /* \"#utility.yul\":1008:1134   */\n  swap2\n  swap1\n  pop\n  jump\t// out\n    /* \"#utility.yul\":1263:1380   */\ntag_15:\n    /* \"#utility.yul\":1372:1373   */\n  0x00\n    /* \"#utility.yul\":1369:1370   */\n  dup1\n    /* \"#utility.yul\":1362:1374   */\n  revert\n    /* \"#utility.yul\":1386:1508   */\ntag_11:\n    /* \"#utility.yul\":1459:1483   */\n  tag_30\n    /* \"#utility.yul\":1477:1482   */\n  dup2\n    /* \"#utility.yul\":1459:1483   */\n  tag_21\n  jump\t// in\ntag_30:\n    /* \"#utility.yul\":1452:1457   */\n  dup2\n    /* \"#utility.yul\":1449:1484   */\n  eq\n    /* \"#utility.yul\":1439:1502   */\n  tag_31\n  jumpi\n    /* \"#utility.yul\":1498:1499   */\n  0x00\n    /* \"#utility.yul\":1495:1496   */\n  dup1\n    /* \"#utility.yul\":1488:1500   */\n  revert\n    /* \"#utility.yul\":1439:1502   */\ntag_31:\n    /* \"#utility.yul\":1386:1508   */\n  pop\n  jump\t// out\n    /* \"contracts/Registration.sol\":102:5592  contract Registration is BaseContract{\r... */\ntag_6:\n  dataSize(sub_0)\n  dup1\n  dataOffset(sub_0)\n  0x00\n  codecopy\n  0x00\n  return\nstop\n\nsub_0: assembly {\n        /* \"contracts/Registration.sol\":102:5592  contract Registration is BaseContract{\r... */\n      mstore(0x40, 0x80)\n      callvalue\n      dup1\n      iszero\n      tag_1\n      jumpi\n      0x00\n      dup1\n      revert\n    tag_1:\n      pop\n      jumpi(tag_2, lt(calldatasize, 0x04))\n      shr(0xe0, calldataload(0x00))\n      dup1\n      0x7d0fa287\n      gt\n      tag_19\n      jumpi\n      dup1\n      0xba479b7e\n      gt\n      tag_20\n      jumpi\n      dup1\n      0xba479b7e\n      eq\n      tag_15\n      jumpi\n      dup1\n      0xcbc92809\n      eq\n      tag_16\n      jumpi\n      dup1\n      0xd25aab85\n      eq\n      tag_17\n      jumpi\n      dup1\n      0xf63c649f\n      eq\n      tag_18\n      jumpi\n      jump(tag_2)\n    tag_20:\n      dup1\n      0x7d0fa287\n      eq\n      tag_11\n      jumpi\n      dup1\n      0x9a8c9119\n      eq\n      tag_12\n      jumpi\n      dup1\n      0x9dc30114\n      eq\n      tag_13\n      jumpi\n      dup1\n      0xa4e7ae05\n      eq\n      tag_14\n      jumpi\n      jump(tag_2)\n    tag_19:\n      dup1\n      0x28266697\n      gt\n      tag_21\n      jumpi\n      dup1\n      0x28266697\n      eq\n      tag_7\n      jumpi\n      dup1\n      0x356b1f1e\n      eq\n      tag_8\n      jumpi\n      dup1\n      0x39987f94\n      eq\n      tag_9\n      jumpi\n      dup1\n      0x46224853\n      eq\n      tag_10\n      jumpi\n      jump(tag_2)\n    tag_21:\n      dup1\n      0x1d54ab\n      eq\n      tag_3\n      jumpi\n      dup1\n      0x19023bf3\n      eq\n      tag_4\n      jumpi\n      dup1\n      0x1916e139\n      eq\n      tag_5\n      jumpi\n      dup1\n      0x1c23f0e1\n      eq\n      tag_6\n      jumpi\n    tag_2:\n      0x00\n      dup1\n      revert\n        /* \"contracts/Registration.sol\":953:1491  function ekleUniversite(address _universiteAdres,string memory _isim, uint8 _ulke)  public sadeceYOK{\r... */\n    tag_3:\n      tag_22\n      0x04\n      dup1\n      calldatasize\n      sub\n      dup2\n      add\n      swap1\n      tag_23\n      swap2\n      swap1\n      tag_24\n      jump\t// in\n    tag_23:\n      tag_25\n      jump\t// in\n    tag_22:\n      stop\n        /* \"contracts/Registration.sol\":4613:5024  function ekleSTK(address _stkAdres,string memory _isim, uint8 _ulke) \r... */\n    tag_4:\n      tag_26\n      0x04\n      dup1\n      calldatasize\n      sub\n      dup2\n      add\n      swap1\n      tag_27\n      swap2\n      swap1\n      tag_24\n      jump\t// in\n    tag_27:\n      tag_28\n      jump\t// in\n    tag_26:\n      stop\n        /* \"contracts/BaseContract.sol\":3712:3750  mapping(address=>Kurs) public  kurslar */\n    tag_5:\n      tag_29\n      0x04\n      dup1\n      calldatasize\n      sub\n      dup2\n      add\n      swap1\n      tag_30\n      swap2\n      swap1\n      tag_31\n      jump\t// in\n    tag_30:\n      tag_32\n      jump\t// in\n    tag_29:\n      mload(0x40)\n      tag_33\n      swap4\n      swap3\n      swap2\n      swap1\n      tag_34\n      jump\t// in\n    tag_33:\n      mload(0x40)\n      dup1\n      swap2\n      sub\n      swap1\n      return\n        /* \"contracts/Registration.sol\":2412:3201  function ekleAkademisyen(address _akademisyenAdres,address _universiteAdres, string memory _ad, string memory _soyad,uint16 _bolum, Unvan _unvan)   public sadeceUniversite{\r... */\n    tag_6:\n      tag_35\n      0x04\n      dup1\n      calldatasize\n      sub\n      dup2\n      add\n      swap1\n      tag_36\n      swap2\n      swap1\n      tag_37\n      jump\t// in\n    tag_36:\n      tag_38\n      jump\t// in\n    tag_35:\n      stop\n        /* \"contracts/BaseContract.sol\":3551:3600  mapping(address=>Universite) public universiteler */\n    tag_7:\n      tag_39\n      0x04\n      dup1\n      calldatasize\n      sub\n      dup2\n      add\n      swap1\n      tag_40\n      swap2\n      swap1\n      tag_31\n      jump\t// in\n    tag_40:\n      tag_41\n      jump\t// in\n    tag_39:\n      mload(0x40)\n      tag_42\n      swap4\n      swap3\n      swap2\n      swap1\n      tag_34\n      jump\t// in\n    tag_42:\n      mload(0x40)\n      dup1\n      swap2\n      sub\n      swap1\n      return\n        /* \"contracts/BaseContract.sol\":3855:3916  mapping(address=>SertifikaMerkezi) public sertifikaMerkezleri */\n    tag_8:\n      tag_43\n      0x04\n      dup1\n      calldatasize\n      sub\n      dup2\n      add\n      swap1\n      tag_44\n      swap2\n      swap1\n      tag_31\n      jump\t// in\n    tag_44:\n      tag_45\n      jump\t// in\n    tag_43:\n      mload(0x40)\n      tag_46\n      swap4\n      swap3\n      swap2\n      swap1\n      tag_34\n      jump\t// in\n    tag_46:\n      mload(0x40)\n      dup1\n      swap2\n      sub\n      swap1\n      return\n        /* \"contracts/BaseContract.sol\":3665:3705  mapping(address=>Firma) public  firmalar */\n    tag_9:\n      tag_47\n      0x04\n      dup1\n      calldatasize\n      sub\n      dup2\n      add\n      swap1\n      tag_48\n      swap2\n      swap1\n      tag_31\n      jump\t// in\n    tag_48:\n      tag_49\n      jump\t// in\n    tag_47:\n      mload(0x40)\n      tag_50\n      swap5\n      swap4\n      swap3\n      swap2\n      swap1\n      tag_51\n      jump\t// in\n    tag_50:\n      mload(0x40)\n      dup1\n      swap2\n      sub\n      swap1\n      return\n        /* \"contracts/Registration.sol\":4180:4606  function ekleKurs(address _kursAdres,string memory _isim, uint8 _ulke) \r... */\n    tag_10:\n      tag_52\n      0x04\n      dup1\n      calldatasize\n      sub\n      dup2\n      add\n      swap1\n      tag_53\n      swap2\n      swap1\n      tag_24\n      jump\t// in\n    tag_53:\n      tag_54\n      jump\t// in\n    tag_52:\n      stop\n        /* \"contracts/BaseContract.sol\":3757:3806  mapping(address=>KamuKurumu) public kamuKurumlari */\n    tag_11:\n      tag_55\n      0x04\n      dup1\n      calldatasize\n      sub\n      dup2\n      add\n      swap1\n      tag_56\n      swap2\n      swap1\n      tag_31\n      jump\t// in\n    tag_56:\n      tag_57\n      jump\t// in\n    tag_55:\n      mload(0x40)\n      tag_58\n      swap4\n      swap3\n      swap2\n      swap1\n      tag_34\n      jump\t// in\n    tag_58:\n      mload(0x40)\n      dup1\n      swap2\n      sub\n      swap1\n      return\n        /* \"contracts/BaseContract.sol\":3813:3848  mapping(address=>STK) public stklar */\n    tag_12:\n      tag_59\n      0x04\n      dup1\n      calldatasize\n      sub\n      dup2\n      add\n      swap1\n      tag_60\n      swap2\n      swap1\n      tag_31\n      jump\t// in\n    tag_60:\n      tag_61\n      jump\t// in\n    tag_59:\n      mload(0x40)\n      tag_62\n      swap4\n      swap3\n      swap2\n      swap1\n      tag_34\n      jump\t// in\n    tag_62:\n      mload(0x40)\n      dup1\n      swap2\n      sub\n      swap1\n      return\n        /* \"contracts/Registration.sol\":5031:5589  function ekleSertifikaMerkezi(address _smAdres,string memory _isim, uint8 _ulke) \r... */\n    tag_13:\n      tag_63\n      0x04\n      dup1\n      calldatasize\n      sub\n      dup2\n      add\n      swap1\n      tag_64\n      swap2\n      swap1\n      tag_24\n      jump\t// in\n    tag_64:\n      tag_65\n      jump\t// in\n    tag_63:\n      stop\n        /* \"contracts/BaseContract.sol\":3924:3965  mapping(uint32=>YabanciDil) public diller */\n    tag_14:\n      tag_66\n      0x04\n      dup1\n      calldatasize\n      sub\n      dup2\n      add\n      swap1\n      tag_67\n      swap2\n      swap1\n      tag_68\n      jump\t// in\n    tag_67:\n      tag_69\n      jump\t// in\n    tag_66:\n      mload(0x40)\n      tag_70\n      swap3\n      swap2\n      swap1\n      tag_71\n      jump\t// in\n    tag_70:\n      mload(0x40)\n      dup1\n      swap2\n      sub\n      swap1\n      return\n        /* \"contracts/BaseContract.sol\":3607:3658  mapping(address=>Akademisyen) public akademisyenler */\n    tag_15:\n      tag_72\n      0x04\n      dup1\n      calldatasize\n      sub\n      dup2\n      add\n      swap1\n      tag_73\n      swap2\n      swap1\n      tag_31\n      jump\t// in\n    tag_73:\n      tag_74\n      jump\t// in\n    tag_72:\n      mload(0x40)\n      tag_75\n      swap7\n      swap6\n      swap5\n      swap4\n      swap3\n      swap2\n      swap1\n      tag_76\n      jump\t// in\n    tag_75:\n      mload(0x40)\n      dup1\n      swap2\n      sub\n      swap1\n      return\n        /* \"contracts/BaseContract.sol\":3507:3544  mapping(address=>Kisi) public kisiler */\n    tag_16:\n      tag_77\n      0x04\n      dup1\n      calldatasize\n      sub\n      dup2\n      add\n      swap1\n      tag_78\n      swap2\n      swap1\n      tag_31\n      jump\t// in\n    tag_78:\n      tag_79\n      jump\t// in\n    tag_77:\n      mload(0x40)\n      tag_80\n      swap2\n      swap1\n      tag_81\n      jump\t// in\n    tag_80:\n      mload(0x40)\n      dup1\n      swap2\n      sub\n      swap1\n      return\n        /* \"contracts/Registration.sol\":3205:3690  function ekleFirma(address _firmaAdres,string memory _isim, uint _vergiNo,uint8 _ulke) \r... */\n    tag_17:\n      tag_82\n      0x04\n      dup1\n      calldatasize\n      sub\n      dup2\n      add\n      swap1\n      tag_83\n      swap2\n      swap1\n      tag_84\n      jump\t// in\n    tag_83:\n      tag_85\n      jump\t// in\n    tag_82:\n      stop\n        /* \"contracts/Registration.sol\":3697:4173  function ekleKamuKurumu(address _kamuKurumuAdres,string memory _isim, uint8 _ulke) \r... */\n    tag_18:\n      tag_86\n      0x04\n      dup1\n      calldatasize\n      sub\n      dup2\n      add\n      swap1\n      tag_87\n      swap2\n      swap1\n      tag_24\n      jump\t// in\n    tag_87:\n      tag_88\n      jump\t// in\n    tag_86:\n      stop\n        /* \"contracts/Registration.sol\":953:1491  function ekleUniversite(address _universiteAdres,string memory _isim, uint8 _ulke)  public sadeceYOK{\r... */\n    tag_25:\n        /* \"contracts/BaseContract.sol\":2149:2152  YOK */\n      0x00\n      dup1\n      sload\n      swap1\n      0x0100\n      exp\n      swap1\n      div\n      0xffffffffffffffffffffffffffffffffffffffff\n      and\n        /* \"contracts/BaseContract.sol\":2135:2152  msg.sender == YOK */\n      0xffffffffffffffffffffffffffffffffffffffff\n      and\n        /* \"contracts/BaseContract.sol\":2135:2145  msg.sender */\n      caller\n        /* \"contracts/BaseContract.sol\":2135:2152  msg.sender == YOK */\n      0xffffffffffffffffffffffffffffffffffffffff\n      and\n      eq\n        /* \"contracts/BaseContract.sol\":2127:2203  require(msg.sender == YOK,\r... */\n      tag_90\n      jumpi\n      mload(0x40)\n      0x08c379a000000000000000000000000000000000000000000000000000000000\n      dup2\n      mstore\n      0x04\n      add\n      tag_91\n      swap1\n      tag_92\n      jump\t// in\n    tag_91:\n      mload(0x40)\n      dup1\n      swap2\n      sub\n      swap1\n      revert\n    tag_90:\n        /* \"contracts/Registration.sol\":1073:1086  universiteler */\n      0x04\n        /* \"contracts/Registration.sol\":1073:1104  universiteler[_universiteAdres] */\n      0x00\n        /* \"contracts/Registration.sol\":1087:1103  _universiteAdres */\n      dup5\n        /* \"contracts/Registration.sol\":1073:1104  universiteler[_universiteAdres] */\n      0xffffffffffffffffffffffffffffffffffffffff\n      and\n      0xffffffffffffffffffffffffffffffffffffffff\n      and\n      dup2\n      mstore\n      0x20\n      add\n      swap1\n      dup2\n      mstore\n      0x20\n      add\n      0x00\n      keccak256\n        /* \"contracts/Registration.sol\":1073:1110  universiteler[_universiteAdres].durum */\n      0x00\n      add\n      0x00\n      swap1\n      sload\n      swap1\n      0x0100\n      exp\n      swap1\n      div\n      0xff\n      and\n        /* \"contracts/Registration.sol\":1072:1110  !universiteler[_universiteAdres].durum */\n      iszero\n        /* \"contracts/Registration.sol\":1064:1165  require(!universiteler[_universiteAdres].durum,\r... */\n      tag_94\n      jumpi\n      mload(0x40)\n      0x08c379a000000000000000000000000000000000000000000000000000000000\n      dup2\n      mstore\n      0x04\n      add\n      tag_95\n      swap1\n      tag_96\n      jump\t// in\n    tag_95:\n      mload(0x40)\n      dup1\n      swap2\n      sub\n      swap1\n      revert\n    tag_94:\n        /* \"contracts/Registration.sol\":1304:1308  true */\n      0x01\n        /* \"contracts/Registration.sol\":1266:1279  universiteler */\n      0x04\n        /* \"contracts/Registration.sol\":1266:1297  universiteler[_universiteAdres] */\n      0x00\n        /* \"contracts/Registration.sol\":1280:1296  _universiteAdres */\n      dup6\n        /* \"contracts/Registration.sol\":1266:1297  universiteler[_universiteAdres] */\n      0xffffffffffffffffffffffffffffffffffffffff\n      and\n      0xffffffffffffffffffffffffffffffffffffffff\n      and\n      dup2\n      mstore\n      0x20\n      add\n      swap1\n      dup2\n      mstore\n      0x20\n      add\n      0x00\n      keccak256\n        /* \"contracts/Registration.sol\":1266:1303  universiteler[_universiteAdres].durum */\n      0x00\n      add\n      0x00\n        /* \"contracts/Registration.sol\":1266:1308  universiteler[_universiteAdres].durum=true */\n      0x0100\n      exp\n      dup2\n      sload\n      dup2\n      0xff\n      mul\n      not\n      and\n      swap1\n      dup4\n      iszero\n      iszero\n      mul\n      or\n      swap1\n      sstore\n      pop\n        /* \"contracts/Registration.sol\":1356:1361  _isim */\n      dup2\n        /* \"contracts/Registration.sol\":1319:1332  universiteler */\n      0x04\n        /* \"contracts/Registration.sol\":1319:1350  universiteler[_universiteAdres] */\n      0x00\n        /* \"contracts/Registration.sol\":1333:1349  _universiteAdres */\n      dup6\n        /* \"contracts/Registration.sol\":1319:1350  universiteler[_universiteAdres] */\n      0xffffffffffffffffffffffffffffffffffffffff\n      and\n      0xffffffffffffffffffffffffffffffffffffffff\n      and\n      dup2\n      mstore\n      0x20\n      add\n      swap1\n      dup2\n      mstore\n      0x20\n      add\n      0x00\n      keccak256\n        /* \"contracts/Registration.sol\":1319:1355  universiteler[_universiteAdres].isim */\n      0x01\n      add\n        /* \"contracts/Registration.sol\":1319:1361  universiteler[_universiteAdres].isim=_isim */\n      swap1\n      dup1\n      mload\n      swap1\n      0x20\n      add\n      swap1\n      tag_97\n      swap3\n      swap2\n      swap1\n      tag_98\n      jump\t// in\n    tag_97:\n      pop\n        /* \"contracts/Registration.sol\":1409:1414  _ulke */\n      dup1\n        /* \"contracts/Registration.sol\":1372:1385  universiteler */\n      0x04\n        /* \"contracts/Registration.sol\":1372:1403  universiteler[_universiteAdres] */\n      0x00\n        /* \"contracts/Registration.sol\":1386:1402  _universiteAdres */\n      dup6\n        /* \"contracts/Registration.sol\":1372:1403  universiteler[_universiteAdres] */\n      0xffffffffffffffffffffffffffffffffffffffff\n      and\n      0xffffffffffffffffffffffffffffffffffffffff\n      and\n      dup2\n      mstore\n      0x20\n      add\n      swap1\n      dup2\n      mstore\n      0x20\n      add\n      0x00\n      keccak256\n        /* \"contracts/Registration.sol\":1372:1408  universiteler[_universiteAdres].ulke */\n      0x02\n      add\n      0x00\n        /* \"contracts/Registration.sol\":1372:1414  universiteler[_universiteAdres].ulke=_ulke */\n      0x0100\n      exp\n      dup2\n      sload\n      dup2\n      0xff\n      mul\n      not\n      and\n      swap1\n      dup4\n      0xff\n      and\n      mul\n      or\n      swap1\n      sstore\n      pop\n        /* \"contracts/Registration.sol\":1432:1483  UniversiteKayitLog( _universiteAdres, _isim, _ulke) */\n      0x750ae9c195d9b95b8c17bf0fa25801932d5a28c4871f4571af70581bc15f5bfe\n        /* \"contracts/Registration.sol\":1452:1468  _universiteAdres */\n      dup4\n        /* \"contracts/Registration.sol\":1470:1475  _isim */\n      dup4\n        /* \"contracts/Registration.sol\":1477:1482  _ulke */\n      dup4\n        /* \"contracts/Registration.sol\":1432:1483  UniversiteKayitLog( _universiteAdres, _isim, _ulke) */\n      mload(0x40)\n      tag_99\n      swap4\n      swap3\n      swap2\n      swap1\n      tag_100\n      jump\t// in\n    tag_99:\n      mload(0x40)\n      dup1\n      swap2\n      sub\n      swap1\n      log1\n        /* \"contracts/Registration.sol\":953:1491  function ekleUniversite(address _universiteAdres,string memory _isim, uint8 _ulke)  public sadeceYOK{\r... */\n      pop\n      pop\n      pop\n      jump\t// out\n        /* \"contracts/Registration.sol\":4613:5024  function ekleSTK(address _stkAdres,string memory _isim, uint8 _ulke) \r... */\n    tag_28:\n        /* \"contracts/BaseContract.sol\":2423:2425  CB */\n      0x02\n      0x00\n      swap1\n      sload\n      swap1\n      0x0100\n      exp\n      swap1\n      div\n      0xffffffffffffffffffffffffffffffffffffffff\n      and\n        /* \"contracts/BaseContract.sol\":2409:2425  msg.sender == CB */\n      0xffffffffffffffffffffffffffffffffffffffff\n      and\n        /* \"contracts/BaseContract.sol\":2409:2419  msg.sender */\n      caller\n        /* \"contracts/BaseContract.sol\":2409:2425  msg.sender == CB */\n      0xffffffffffffffffffffffffffffffffffffffff\n      and\n      eq\n        /* \"contracts/BaseContract.sol\":2401:2475  require(msg.sender == CB,\r... */\n      tag_102\n      jumpi\n      mload(0x40)\n      0x08c379a000000000000000000000000000000000000000000000000000000000\n      dup2\n      mstore\n      0x04\n      add\n      tag_103\n      swap1\n      tag_104\n      jump\t// in\n    tag_103:\n      mload(0x40)\n      dup1\n      swap2\n      sub\n      swap1\n      revert\n    tag_102:\n        /* \"contracts/Registration.sol\":4724:4730  stklar */\n      0x09\n        /* \"contracts/Registration.sol\":4724:4741  stklar[_stkAdres] */\n      0x00\n        /* \"contracts/Registration.sol\":4731:4740  _stkAdres */\n      dup5\n        /* \"contracts/Registration.sol\":4724:4741  stklar[_stkAdres] */\n      0xffffffffffffffffffffffffffffffffffffffff\n      and\n      0xffffffffffffffffffffffffffffffffffffffff\n      and\n      dup2\n      mstore\n      0x20\n      add\n      swap1\n      dup2\n      mstore\n      0x20\n      add\n      0x00\n      keccak256\n        /* \"contracts/Registration.sol\":4724:4747  stklar[_stkAdres].durum */\n      0x00\n      add\n      0x00\n      swap1\n      sload\n      swap1\n      0x0100\n      exp\n      swap1\n      div\n      0xff\n      and\n        /* \"contracts/Registration.sol\":4723:4747  !stklar[_stkAdres].durum */\n      iszero\n        /* \"contracts/Registration.sol\":4715:4813  require(!stklar[_stkAdres].durum,\r... */\n      tag_106\n      jumpi\n      mload(0x40)\n      0x08c379a000000000000000000000000000000000000000000000000000000000\n      dup2\n      mstore\n      0x04\n      add\n      tag_107\n      swap1\n      tag_108\n      jump\t// in\n    tag_107:\n      mload(0x40)\n      dup1\n      swap2\n      sub\n      swap1\n      revert\n    tag_106:\n        /* \"contracts/Registration.sol\":4862:4866  true */\n      0x01\n        /* \"contracts/Registration.sol\":4838:4844  stklar */\n      0x09\n        /* \"contracts/Registration.sol\":4838:4855  stklar[_stkAdres] */\n      0x00\n        /* \"contracts/Registration.sol\":4845:4854  _stkAdres */\n      dup6\n        /* \"contracts/Registration.sol\":4838:4855  stklar[_stkAdres] */\n      0xffffffffffffffffffffffffffffffffffffffff\n      and\n      0xffffffffffffffffffffffffffffffffffffffff\n      and\n      dup2\n      mstore\n      0x20\n      add\n      swap1\n      dup2\n      mstore\n      0x20\n      add\n      0x00\n      keccak256\n        /* \"contracts/Registration.sol\":4838:4861  stklar[_stkAdres].durum */\n      0x00\n      add\n      0x00\n        /* \"contracts/Registration.sol\":4838:4866  stklar[_stkAdres].durum=true */\n      0x0100\n      exp\n      dup2\n      sload\n      dup2\n      0xff\n      mul\n      not\n      and\n      swap1\n      dup4\n      iszero\n      iszero\n      mul\n      or\n      swap1\n      sstore\n      pop\n        /* \"contracts/Registration.sol\":4900:4905  _isim */\n      dup2\n        /* \"contracts/Registration.sol\":4877:4883  stklar */\n      0x09\n        /* \"contracts/Registration.sol\":4877:4894  stklar[_stkAdres] */\n      0x00\n        /* \"contracts/Registration.sol\":4884:4893  _stkAdres */\n      dup6\n        /* \"contracts/Registration.sol\":4877:4894  stklar[_stkAdres] */\n      0xffffffffffffffffffffffffffffffffffffffff\n      and\n      0xffffffffffffffffffffffffffffffffffffffff\n      and\n      dup2\n      mstore\n      0x20\n      add\n      swap1\n      dup2\n      mstore\n      0x20\n      add\n      0x00\n      keccak256\n        /* \"contracts/Registration.sol\":4877:4899  stklar[_stkAdres].isim */\n      0x01\n      add\n        /* \"contracts/Registration.sol\":4877:4905  stklar[_stkAdres].isim=_isim */\n      swap1\n      dup1\n      mload\n      swap1\n      0x20\n      add\n      swap1\n      tag_109\n      swap3\n      swap2\n      swap1\n      tag_98\n      jump\t// in\n    tag_109:\n      pop\n        /* \"contracts/Registration.sol\":4939:4944  _ulke */\n      dup1\n        /* \"contracts/Registration.sol\":4916:4922  stklar */\n      0x09\n        /* \"contracts/Registration.sol\":4916:4933  stklar[_stkAdres] */\n      0x00\n        /* \"contracts/Registration.sol\":4923:4932  _stkAdres */\n      dup6\n        /* \"contracts/Registration.sol\":4916:4933  stklar[_stkAdres] */\n      0xffffffffffffffffffffffffffffffffffffffff\n      and\n      0xffffffffffffffffffffffffffffffffffffffff\n      and\n      dup2\n      mstore\n      0x20\n      add\n      swap1\n      dup2\n      mstore\n      0x20\n      add\n      0x00\n      keccak256\n        /* \"contracts/Registration.sol\":4916:4938  stklar[_stkAdres].ulke */\n      0x02\n      add\n      0x00\n        /* \"contracts/Registration.sol\":4916:4944  stklar[_stkAdres].ulke=_ulke */\n      0x0100\n      exp\n      dup2\n      sload\n      dup2\n      0xff\n      mul\n      not\n      and\n      swap1\n      dup4\n      0xff\n      and\n      mul\n      or\n      swap1\n      sstore\n      pop\n        /* \"contracts/Registration.sol\":4970:5007  STKEkleLog( _stkAdres,  _isim, _ulke) */\n      0x1993679d861f13477b3e16ff3b01c1c9e471e0f6f2e30a363662c257f7207450\n        /* \"contracts/Registration.sol\":4982:4991  _stkAdres */\n      dup4\n        /* \"contracts/Registration.sol\":4994:4999  _isim */\n      dup4\n        /* \"contracts/Registration.sol\":5001:5006  _ulke */\n      dup4\n        /* \"contracts/Registration.sol\":4970:5007  STKEkleLog( _stkAdres,  _isim, _ulke) */\n      mload(0x40)\n      tag_110\n      swap4\n      swap3\n      swap2\n      swap1\n      tag_100\n      jump\t// in\n    tag_110:\n      mload(0x40)\n      dup1\n      swap2\n      sub\n      swap1\n      log1\n        /* \"contracts/Registration.sol\":4613:5024  function ekleSTK(address _stkAdres,string memory _isim, uint8 _ulke) \r... */\n      pop\n      pop\n      pop\n      jump\t// out\n        /* \"contracts/BaseContract.sol\":3712:3750  mapping(address=>Kurs) public  kurslar */\n    tag_32:\n      mstore(0x20, 0x07)\n      dup1\n      0x00\n      mstore\n      keccak256(0x00, 0x40)\n      0x00\n      swap2\n      pop\n      swap1\n      pop\n      dup1\n      0x00\n      add\n      0x00\n      swap1\n      sload\n      swap1\n      0x0100\n      exp\n      swap1\n      div\n      0xff\n      and\n      swap1\n      dup1\n      0x01\n      add\n      dup1\n      sload\n      tag_111\n      swap1\n      tag_112\n      jump\t// in\n    tag_111:\n      dup1\n      0x1f\n      add\n      0x20\n      dup1\n      swap2\n      div\n      mul\n      0x20\n      add\n      mload(0x40)\n      swap1\n      dup2\n      add\n      0x40\n      mstore\n      dup1\n      swap3\n      swap2\n      swap1\n      dup2\n      dup2\n      mstore\n      0x20\n      add\n      dup3\n      dup1\n      sload\n      tag_113\n      swap1\n      tag_112\n      jump\t// in\n    tag_113:\n      dup1\n      iszero\n      tag_114\n      jumpi\n      dup1\n      0x1f\n      lt\n      tag_115\n      jumpi\n      0x0100\n      dup1\n      dup4\n      sload\n      div\n      mul\n      dup4\n      mstore\n      swap2\n      0x20\n      add\n      swap2\n      jump(tag_114)\n    tag_115:\n      dup3\n      add\n      swap2\n      swap1\n      0x00\n      mstore\n      keccak256(0x00, 0x20)\n      swap1\n    tag_116:\n      dup2\n      sload\n      dup2\n      mstore\n      swap1\n      0x01\n      add\n      swap1\n      0x20\n      add\n      dup1\n      dup4\n      gt\n      tag_116\n      jumpi\n      dup3\n      swap1\n      sub\n      0x1f\n      and\n      dup3\n      add\n      swap2\n    tag_114:\n      pop\n      pop\n      pop\n      pop\n      pop\n      swap1\n      dup1\n      0x02\n      add\n      0x00\n      swap1\n      sload\n      swap1\n      0x0100\n      exp\n      swap1\n      div\n      0xff\n      and\n      swap1\n      pop\n      dup4\n      jump\t// out\n        /* \"contracts/Registration.sol\":2412:3201  function ekleAkademisyen(address _akademisyenAdres,address _universiteAdres, string memory _ad, string memory _soyad,uint16 _bolum, Unvan _unvan)   public sadeceUniversite{\r... */\n    tag_38:\n        /* \"contracts/BaseContract.sol\":2689:2702  universiteler */\n      0x04\n        /* \"contracts/BaseContract.sol\":2689:2714  universiteler[msg.sender] */\n      0x00\n        /* \"contracts/BaseContract.sol\":2703:2713  msg.sender */\n      caller\n        /* \"contracts/BaseContract.sol\":2689:2714  universiteler[msg.sender] */\n      0xffffffffffffffffffffffffffffffffffffffff\n      and\n      0xffffffffffffffffffffffffffffffffffffffff\n      and\n      dup2\n      mstore\n      0x20\n      add\n      swap1\n      dup2\n      mstore\n      0x20\n      add\n      0x00\n      keccak256\n        /* \"contracts/BaseContract.sol\":2689:2720  universiteler[msg.sender].durum */\n      0x00\n      add\n      0x00\n      swap1\n      sload\n      swap1\n      0x0100\n      exp\n      swap1\n      div\n      0xff\n      and\n        /* \"contracts/BaseContract.sol\":2681:2778  require(universiteler[msg.sender].durum,\r... */\n      tag_118\n      jumpi\n      mload(0x40)\n      0x08c379a000000000000000000000000000000000000000000000000000000000\n      dup2\n      mstore\n      0x04\n      add\n      tag_119\n      swap1\n      tag_120\n      jump\t// in\n    tag_119:\n      mload(0x40)\n      dup1\n      swap2\n      sub\n      swap1\n      revert\n    tag_118:\n        /* \"contracts/Registration.sol\":2603:2617  akademisyenler */\n      0x05\n        /* \"contracts/Registration.sol\":2603:2636  akademisyenler[_akademisyenAdres] */\n      0x00\n        /* \"contracts/Registration.sol\":2618:2635  _akademisyenAdres */\n      dup8\n        /* \"contracts/Registration.sol\":2603:2636  akademisyenler[_akademisyenAdres] */\n      0xffffffffffffffffffffffffffffffffffffffff\n      and\n      0xffffffffffffffffffffffffffffffffffffffff\n      and\n      dup2\n      mstore\n      0x20\n      add\n      swap1\n      dup2\n      mstore\n      0x20\n      add\n      0x00\n      keccak256\n        /* \"contracts/Registration.sol\":2603:2642  akademisyenler[_akademisyenAdres].durum */\n      0x00\n      add\n      0x00\n      swap1\n      sload\n      swap1\n      0x0100\n      exp\n      swap1\n      div\n      0xff\n      and\n        /* \"contracts/Registration.sol\":2602:2642  !akademisyenler[_akademisyenAdres].durum */\n      iszero\n        /* \"contracts/Registration.sol\":2594:2698  require(!akademisyenler[_akademisyenAdres].durum,\r... */\n      tag_122\n      jumpi\n      mload(0x40)\n      0x08c379a000000000000000000000000000000000000000000000000000000000\n      dup2\n      mstore\n      0x04\n      add\n      tag_123\n      swap1\n      tag_124\n      jump\t// in\n    tag_123:\n      mload(0x40)\n      dup1\n      swap2\n      sub\n      swap1\n      revert\n    tag_122:\n        /* \"contracts/Registration.sol\":2862:2866  true */\n      0x01\n        /* \"contracts/Registration.sol\":2822:2836  akademisyenler */\n      0x05\n        /* \"contracts/Registration.sol\":2822:2855  akademisyenler[_akademisyenAdres] */\n      0x00\n        /* \"contracts/Registration.sol\":2837:2854  _akademisyenAdres */\n      dup9\n        /* \"contracts/Registration.sol\":2822:2855  akademisyenler[_akademisyenAdres] */\n      0xffffffffffffffffffffffffffffffffffffffff\n      and\n      0xffffffffffffffffffffffffffffffffffffffff\n      and\n      dup2\n      mstore\n      0x20\n      add\n      swap1\n      dup2\n      mstore\n      0x20\n      add\n      0x00\n      keccak256\n        /* \"contracts/Registration.sol\":2822:2861  akademisyenler[_akademisyenAdres].durum */\n      0x00\n      add\n      0x00\n        /* \"contracts/Registration.sol\":2822:2866  akademisyenler[_akademisyenAdres].durum=true */\n      0x0100\n      exp\n      dup2\n      sload\n      dup2\n      0xff\n      mul\n      not\n      and\n      swap1\n      dup4\n      iszero\n      iszero\n      mul\n      or\n      swap1\n      sstore\n      pop\n        /* \"contracts/Registration.sol\":2914:2917  _ad */\n      dup4\n        /* \"contracts/Registration.sol\":2877:2891  akademisyenler */\n      0x05\n        /* \"contracts/Registration.sol\":2877:2910  akademisyenler[_akademisyenAdres] */\n      0x00\n        /* \"contracts/Registration.sol\":2892:2909  _akademisyenAdres */\n      dup9\n        /* \"contracts/Registration.sol\":2877:2910  akademisyenler[_akademisyenAdres] */\n      0xffffffffffffffffffffffffffffffffffffffff\n      and\n      0xffffffffffffffffffffffffffffffffffffffff\n      and\n      dup2\n      mstore\n      0x20\n      add\n      swap1\n      dup2\n      mstore\n      0x20\n      add\n      0x00\n      keccak256\n        /* \"contracts/Registration.sol\":2877:2913  akademisyenler[_akademisyenAdres].ad */\n      0x01\n      add\n        /* \"contracts/Registration.sol\":2877:2917  akademisyenler[_akademisyenAdres].ad=_ad */\n      swap1\n      dup1\n      mload\n      swap1\n      0x20\n      add\n      swap1\n      tag_125\n      swap3\n      swap2\n      swap1\n      tag_98\n      jump\t// in\n    tag_125:\n      pop\n        /* \"contracts/Registration.sol\":2968:2974  _soyad */\n      dup3\n        /* \"contracts/Registration.sol\":2928:2942  akademisyenler */\n      0x05\n        /* \"contracts/Registration.sol\":2928:2961  akademisyenler[_akademisyenAdres] */\n      0x00\n        /* \"contracts/Registration.sol\":2943:2960  _akademisyenAdres */\n      dup9\n        /* \"contracts/Registration.sol\":2928:2961  akademisyenler[_akademisyenAdres] */\n      0xffffffffffffffffffffffffffffffffffffffff\n      and\n      0xffffffffffffffffffffffffffffffffffffffff\n      and\n      dup2\n      mstore\n      0x20\n      add\n      swap1\n      dup2\n      mstore\n      0x20\n      add\n      0x00\n      keccak256\n        /* \"contracts/Registration.sol\":2928:2967  akademisyenler[_akademisyenAdres].soyad */\n      0x02\n      add\n        /* \"contracts/Registration.sol\":2928:2974  akademisyenler[_akademisyenAdres].soyad=_soyad */\n      swap1\n      dup1\n      mload\n      swap1\n      0x20\n      add\n      swap1\n      tag_126\n      swap3\n      swap2\n      swap1\n      tag_98\n      jump\t// in\n    tag_126:\n      pop\n        /* \"contracts/Registration.sol\":3025:3031  _bolum */\n      dup2\n        /* \"contracts/Registration.sol\":2985:2999  akademisyenler */\n      0x05\n        /* \"contracts/Registration.sol\":2985:3018  akademisyenler[_akademisyenAdres] */\n      0x00\n        /* \"contracts/Registration.sol\":3000:3017  _akademisyenAdres */\n      dup9\n        /* \"contracts/Registration.sol\":2985:3018  akademisyenler[_akademisyenAdres] */\n      0xffffffffffffffffffffffffffffffffffffffff\n      and\n      0xffffffffffffffffffffffffffffffffffffffff\n      and\n      dup2\n      mstore\n      0x20\n      add\n      swap1\n      dup2\n      mstore\n      0x20\n      add\n      0x00\n      keccak256\n        /* \"contracts/Registration.sol\":2985:3024  akademisyenler[_akademisyenAdres].bolum */\n      0x00\n      add\n      0x15\n        /* \"contracts/Registration.sol\":2985:3031  akademisyenler[_akademisyenAdres].bolum=_bolum */\n      0x0100\n      exp\n      dup2\n      sload\n      dup2\n      0xffff\n      mul\n      not\n      and\n      swap1\n      dup4\n      0xffff\n      and\n      mul\n      or\n      swap1\n      sstore\n      pop\n        /* \"contracts/Registration.sol\":3082:3088  _unvan */\n      dup1\n        /* \"contracts/Registration.sol\":3042:3056  akademisyenler */\n      0x05\n        /* \"contracts/Registration.sol\":3042:3075  akademisyenler[_akademisyenAdres] */\n      0x00\n        /* \"contracts/Registration.sol\":3057:3074  _akademisyenAdres */\n      dup9\n        /* \"contracts/Registration.sol\":3042:3075  akademisyenler[_akademisyenAdres] */\n      0xffffffffffffffffffffffffffffffffffffffff\n      and\n      0xffffffffffffffffffffffffffffffffffffffff\n      and\n      dup2\n      mstore\n      0x20\n      add\n      swap1\n      dup2\n      mstore\n      0x20\n      add\n      0x00\n      keccak256\n        /* \"contracts/Registration.sol\":3042:3081  akademisyenler[_akademisyenAdres].unvan */\n      0x00\n      add\n      0x17\n        /* \"contracts/Registration.sol\":3042:3088  akademisyenler[_akademisyenAdres].unvan=_unvan */\n      0x0100\n      exp\n      dup2\n      sload\n      dup2\n      0xff\n      mul\n      not\n      and\n      swap1\n      dup4\n      0x03\n      dup2\n      gt\n      iszero\n      tag_127\n      jumpi\n      tag_128\n      tag_129\n      jump\t// in\n    tag_128:\n    tag_127:\n      mul\n      or\n      swap1\n      sstore\n      pop\n        /* \"contracts/Registration.sol\":3106:3193  AkademisyenEkleLog( _akademisyenAdres,_universiteAdres,  _ad,  _soyad,  _bolum, _unvan) */\n      0xc9efd466d9a1950ad2164252edda662048bca360d86fe9602a80d3dadfed1754\n        /* \"contracts/Registration.sol\":3126:3143  _akademisyenAdres */\n      dup7\n        /* \"contracts/Registration.sol\":3144:3160  _universiteAdres */\n      dup7\n        /* \"contracts/Registration.sol\":3163:3166  _ad */\n      dup7\n        /* \"contracts/Registration.sol\":3169:3175  _soyad */\n      dup7\n        /* \"contracts/Registration.sol\":3178:3184  _bolum */\n      dup7\n        /* \"contracts/Registration.sol\":3186:3192  _unvan */\n      dup7\n        /* \"contracts/Registration.sol\":3106:3193  AkademisyenEkleLog( _akademisyenAdres,_universiteAdres,  _ad,  _soyad,  _bolum, _unvan) */\n      mload(0x40)\n      tag_130\n      swap7\n      swap6\n      swap5\n      swap4\n      swap3\n      swap2\n      swap1\n      tag_131\n      jump\t// in\n    tag_130:\n      mload(0x40)\n      dup1\n      swap2\n      sub\n      swap1\n      log1\n        /* \"contracts/Registration.sol\":2412:3201  function ekleAkademisyen(address _akademisyenAdres,address _universiteAdres, string memory _ad, string memory _soyad,uint16 _bolum, Unvan _unvan)   public sadeceUniversite{\r... */\n      pop\n      pop\n      pop\n      pop\n      pop\n      pop\n      jump\t// out\n        /* \"contracts/BaseContract.sol\":3551:3600  mapping(address=>Universite) public universiteler */\n    tag_41:\n      mstore(0x20, 0x04)\n      dup1\n      0x00\n      mstore\n      keccak256(0x00, 0x40)\n      0x00\n      swap2\n      pop\n      swap1\n      pop\n      dup1\n      0x00\n      add\n      0x00\n      swap1\n      sload\n      swap1\n      0x0100\n      exp\n      swap1\n      div\n      0xff\n      and\n      swap1\n      dup1\n      0x01\n      add\n      dup1\n      sload\n      tag_132\n      swap1\n      tag_112\n      jump\t// in\n    tag_132:\n      dup1\n      0x1f\n      add\n      0x20\n      dup1\n      swap2\n      div\n      mul\n      0x20\n      add\n      mload(0x40)\n      swap1\n      dup2\n      add\n      0x40\n      mstore\n      dup1\n      swap3\n      swap2\n      swap1\n      dup2\n      dup2\n      mstore\n      0x20\n      add\n      dup3\n      dup1\n      sload\n      tag_133\n      swap1\n      tag_112\n      jump\t// in\n    tag_133:\n      dup1\n      iszero\n      tag_134\n      jumpi\n      dup1\n      0x1f\n      lt\n      tag_135\n      jumpi\n      0x0100\n      dup1\n      dup4\n      sload\n      div\n      mul\n      dup4\n      mstore\n      swap2\n      0x20\n      add\n      swap2\n      jump(tag_134)\n    tag_135:\n      dup3\n      add\n      swap2\n      swap1\n      0x00\n      mstore\n      keccak256(0x00, 0x20)\n      swap1\n    tag_136:\n      dup2\n      sload\n      dup2\n      mstore\n      swap1\n      0x01\n      add\n      swap1\n      0x20\n      add\n      dup1\n      dup4\n      gt\n      tag_136\n      jumpi\n      dup3\n      swap1\n      sub\n      0x1f\n      and\n      dup3\n      add\n      swap2\n    tag_134:\n      pop\n      pop\n      pop\n      pop\n      pop\n      swap1\n      dup1\n      0x02\n      add\n      0x00\n      swap1\n      sload\n      swap1\n      0x0100\n      exp\n      swap1\n      div\n      0xff\n      and\n      swap1\n      pop\n      dup4\n      jump\t// out\n        /* \"contracts/BaseContract.sol\":3855:3916  mapping(address=>SertifikaMerkezi) public sertifikaMerkezleri */\n    tag_45:\n      mstore(0x20, 0x0a)\n      dup1\n      0x00\n      mstore\n      keccak256(0x00, 0x40)\n      0x00\n      swap2\n      pop\n      swap1\n      pop\n      dup1\n      0x00\n      add\n      0x00\n      swap1\n      sload\n      swap1\n      0x0100\n      exp\n      swap1\n      div\n      0xff\n      and\n      swap1\n      dup1\n      0x01\n      add\n      dup1\n      sload\n      tag_137\n      swap1\n      tag_112\n      jump\t// in\n    tag_137:\n      dup1\n      0x1f\n      add\n      0x20\n      dup1\n      swap2\n      div\n      mul\n      0x20\n      add\n      mload(0x40)\n      swap1\n      dup2\n      add\n      0x40\n      mstore\n      dup1\n      swap3\n      swap2\n      swap1\n      dup2\n      dup2\n      mstore\n      0x20\n      add\n      dup3\n      dup1\n      sload\n      tag_138\n      swap1\n      tag_112\n      jump\t// in\n    tag_138:\n      dup1\n      iszero\n      tag_139\n      jumpi\n      dup1\n      0x1f\n      lt\n      tag_140\n      jumpi\n      0x0100\n      dup1\n      dup4\n      sload\n      div\n      mul\n      dup4\n      mstore\n      swap2\n      0x20\n      add\n      swap2\n      jump(tag_139)\n    tag_140:\n      dup3\n      add\n      swap2\n      swap1\n      0x00\n      mstore\n      keccak256(0x00, 0x20)\n      swap1\n    tag_141:\n      dup2\n      sload\n      dup2\n      mstore\n      swap1\n      0x01\n      add\n      swap1\n      0x20\n      add\n      dup1\n      dup4\n      gt\n      tag_141\n      jumpi\n      dup3\n      swap1\n      sub\n      0x1f\n      and\n      dup3\n      add\n      swap2\n    tag_139:\n      pop\n      pop\n      pop\n      pop\n      pop\n      swap1\n      dup1\n      0x02\n      add\n      0x00\n      swap1\n      sload\n      swap1\n      0x0100\n      exp\n      swap1\n      div\n      0xff\n      and\n      swap1\n      pop\n      dup4\n      jump\t// out\n        /* \"contracts/BaseContract.sol\":3665:3705  mapping(address=>Firma) public  firmalar */\n    tag_49:\n      mstore(0x20, 0x06)\n      dup1\n      0x00\n      mstore\n      keccak256(0x00, 0x40)\n      0x00\n      swap2\n      pop\n      swap1\n      pop\n      dup1\n      0x00\n      add\n      0x00\n      swap1\n      sload\n      swap1\n      0x0100\n      exp\n      swap1\n      div\n      0xff\n      and\n      swap1\n      dup1\n      0x00\n      add\n      0x01\n      swap1\n      sload\n      swap1\n      0x0100\n      exp\n      swap1\n      div\n      0xff\n      and\n      swap1\n      dup1\n      0x01\n      add\n      sload\n      swap1\n      dup1\n      0x02\n      add\n      dup1\n      sload\n      tag_142\n      swap1\n      tag_112\n      jump\t// in\n    tag_142:\n      dup1\n      0x1f\n      add\n      0x20\n      dup1\n      swap2\n      div\n      mul\n      0x20\n      add\n      mload(0x40)\n      swap1\n      dup2\n      add\n      0x40\n      mstore\n      dup1\n      swap3\n      swap2\n      swap1\n      dup2\n      dup2\n      mstore\n      0x20\n      add\n      dup3\n      dup1\n      sload\n      tag_143\n      swap1\n      tag_112\n      jump\t// in\n    tag_143:\n      dup1\n      iszero\n      tag_144\n      jumpi\n      dup1\n      0x1f\n      lt\n      tag_145\n      jumpi\n      0x0100\n      dup1\n      dup4\n      sload\n      div\n      mul\n      dup4\n      mstore\n      swap2\n      0x20\n      add\n      swap2\n      jump(tag_144)\n    tag_145:\n      dup3\n      add\n      swap2\n      swap1\n      0x00\n      mstore\n      keccak256(0x00, 0x20)\n      swap1\n    tag_146:\n      dup2\n      sload\n      dup2\n      mstore\n      swap1\n      0x01\n      add\n      swap1\n      0x20\n      add\n      dup1\n      dup4\n      gt\n      tag_146\n      jumpi\n      dup3\n      swap1\n      sub\n      0x1f\n      and\n      dup3\n      add\n      swap2\n    tag_144:\n      pop\n      pop\n      pop\n      pop\n      pop\n      swap1\n      pop\n      dup5\n      jump\t// out\n        /* \"contracts/Registration.sol\":4180:4606  function ekleKurs(address _kursAdres,string memory _isim, uint8 _ulke) \r... */\n    tag_54:\n        /* \"contracts/BaseContract.sol\":3178:3191  universiteler */\n      0x04\n        /* \"contracts/BaseContract.sol\":3178:3203  universiteler[msg.sender] */\n      0x00\n        /* \"contracts/BaseContract.sol\":3192:3202  msg.sender */\n      caller\n        /* \"contracts/BaseContract.sol\":3178:3203  universiteler[msg.sender] */\n      0xffffffffffffffffffffffffffffffffffffffff\n      and\n      0xffffffffffffffffffffffffffffffffffffffff\n      and\n      dup2\n      mstore\n      0x20\n      add\n      swap1\n      dup2\n      mstore\n      0x20\n      add\n      0x00\n      keccak256\n        /* \"contracts/BaseContract.sol\":3178:3209  universiteler[msg.sender].durum */\n      0x00\n      add\n      0x00\n      swap1\n      sload\n      swap1\n      0x0100\n      exp\n      swap1\n      div\n      0xff\n      and\n        /* \"contracts/BaseContract.sol\":3178:3237  universiteler[msg.sender].durum||firmalar[msg.sender].durum */\n      dup1\n      tag_148\n      jumpi\n      pop\n        /* \"contracts/BaseContract.sol\":3211:3219  firmalar */\n      0x06\n        /* \"contracts/BaseContract.sol\":3211:3231  firmalar[msg.sender] */\n      0x00\n        /* \"contracts/BaseContract.sol\":3220:3230  msg.sender */\n      caller\n        /* \"contracts/BaseContract.sol\":3211:3231  firmalar[msg.sender] */\n      0xffffffffffffffffffffffffffffffffffffffff\n      and\n      0xffffffffffffffffffffffffffffffffffffffff\n      and\n      dup2\n      mstore\n      0x20\n      add\n      swap1\n      dup2\n      mstore\n      0x20\n      add\n      0x00\n      keccak256\n        /* \"contracts/BaseContract.sol\":3211:3237  firmalar[msg.sender].durum */\n      0x00\n      add\n      0x00\n      swap1\n      sload\n      swap1\n      0x0100\n      exp\n      swap1\n      div\n      0xff\n      and\n        /* \"contracts/BaseContract.sol\":3178:3237  universiteler[msg.sender].durum||firmalar[msg.sender].durum */\n    tag_148:\n        /* \"contracts/BaseContract.sol\":3178:3270  universiteler[msg.sender].durum||firmalar[msg.sender].durum||kamuKurumlari[msg.sender].durum */\n      dup1\n      tag_149\n      jumpi\n      pop\n        /* \"contracts/BaseContract.sol\":3239:3252  kamuKurumlari */\n      0x08\n        /* \"contracts/BaseContract.sol\":3239:3264  kamuKurumlari[msg.sender] */\n      0x00\n        /* \"contracts/BaseContract.sol\":3253:3263  msg.sender */\n      caller\n        /* \"contracts/BaseContract.sol\":3239:3264  kamuKurumlari[msg.sender] */\n      0xffffffffffffffffffffffffffffffffffffffff\n      and\n      0xffffffffffffffffffffffffffffffffffffffff\n      and\n      dup2\n      mstore\n      0x20\n      add\n      swap1\n      dup2\n      mstore\n      0x20\n      add\n      0x00\n      keccak256\n        /* \"contracts/BaseContract.sol\":3239:3270  kamuKurumlari[msg.sender].durum */\n      0x00\n      add\n      0x00\n      swap1\n      sload\n      swap1\n      0x0100\n      exp\n      swap1\n      div\n      0xff\n      and\n        /* \"contracts/BaseContract.sol\":3178:3270  universiteler[msg.sender].durum||firmalar[msg.sender].durum||kamuKurumlari[msg.sender].durum */\n    tag_149:\n        /* \"contracts/BaseContract.sol\":3170:3322  require(universiteler[msg.sender].durum||firmalar[msg.sender].durum||kamuKurumlari[msg.sender].durum,\r... */\n      tag_150\n      jumpi\n      mload(0x40)\n      0x08c379a000000000000000000000000000000000000000000000000000000000\n      dup2\n      mstore\n      0x04\n      add\n      tag_151\n      swap1\n      tag_152\n      jump\t// in\n    tag_151:\n      mload(0x40)\n      dup1\n      swap2\n      sub\n      swap1\n      revert\n    tag_150:\n        /* \"contracts/Registration.sol\":4306:4313  kurslar */\n      0x07\n        /* \"contracts/Registration.sol\":4306:4325  kurslar[_kursAdres] */\n      0x00\n        /* \"contracts/Registration.sol\":4314:4324  _kursAdres */\n      dup5\n        /* \"contracts/Registration.sol\":4306:4325  kurslar[_kursAdres] */\n      0xffffffffffffffffffffffffffffffffffffffff\n      and\n      0xffffffffffffffffffffffffffffffffffffffff\n      and\n      dup2\n      mstore\n      0x20\n      add\n      swap1\n      dup2\n      mstore\n      0x20\n      add\n      0x00\n      keccak256\n        /* \"contracts/Registration.sol\":4306:4331  kurslar[_kursAdres].durum */\n      0x00\n      add\n      0x00\n      swap1\n      sload\n      swap1\n      0x0100\n      exp\n      swap1\n      div\n      0xff\n      and\n        /* \"contracts/Registration.sol\":4305:4331  !kurslar[_kursAdres].durum */\n      iszero\n        /* \"contracts/Registration.sol\":4297:4387  require(!kurslar[_kursAdres].durum,\r... */\n      tag_154\n      jumpi\n      mload(0x40)\n      0x08c379a000000000000000000000000000000000000000000000000000000000\n      dup2\n      mstore\n      0x04\n      add\n      tag_155\n      swap1\n      tag_156\n      jump\t// in\n    tag_155:\n      mload(0x40)\n      dup1\n      swap2\n      sub\n      swap1\n      revert\n    tag_154:\n        /* \"contracts/Registration.sol\":4438:4442  true */\n      0x01\n        /* \"contracts/Registration.sol\":4412:4419  kurslar */\n      0x07\n        /* \"contracts/Registration.sol\":4412:4431  kurslar[_kursAdres] */\n      0x00\n        /* \"contracts/Registration.sol\":4420:4430  _kursAdres */\n      dup6\n        /* \"contracts/Registration.sol\":4412:4431  kurslar[_kursAdres] */\n      0xffffffffffffffffffffffffffffffffffffffff\n      and\n      0xffffffffffffffffffffffffffffffffffffffff\n      and\n      dup2\n      mstore\n      0x20\n      add\n      swap1\n      dup2\n      mstore\n      0x20\n      add\n      0x00\n      keccak256\n        /* \"contracts/Registration.sol\":4412:4437  kurslar[_kursAdres].durum */\n      0x00\n      add\n      0x00\n        /* \"contracts/Registration.sol\":4412:4442  kurslar[_kursAdres].durum=true */\n      0x0100\n      exp\n      dup2\n      sload\n      dup2\n      0xff\n      mul\n      not\n      and\n      swap1\n      dup4\n      iszero\n      iszero\n      mul\n      or\n      swap1\n      sstore\n      pop\n        /* \"contracts/Registration.sol\":4478:4483  _isim */\n      dup2\n        /* \"contracts/Registration.sol\":4453:4460  kurslar */\n      0x07\n        /* \"contracts/Registration.sol\":4453:4472  kurslar[_kursAdres] */\n      0x00\n        /* \"contracts/Registration.sol\":4461:4471  _kursAdres */\n      dup6\n        /* \"contracts/Registration.sol\":4453:4472  kurslar[_kursAdres] */\n      0xffffffffffffffffffffffffffffffffffffffff\n      and\n      0xffffffffffffffffffffffffffffffffffffffff\n      and\n      dup2\n      mstore\n      0x20\n      add\n      swap1\n      dup2\n      mstore\n      0x20\n      add\n      0x00\n      keccak256\n        /* \"contracts/Registration.sol\":4453:4477  kurslar[_kursAdres].isim */\n      0x01\n      add\n        /* \"contracts/Registration.sol\":4453:4483  kurslar[_kursAdres].isim=_isim */\n      swap1\n      dup1\n      mload\n      swap1\n      0x20\n      add\n      swap1\n      tag_157\n      swap3\n      swap2\n      swap1\n      tag_98\n      jump\t// in\n    tag_157:\n      pop\n        /* \"contracts/Registration.sol\":4519:4524  _ulke */\n      dup1\n        /* \"contracts/Registration.sol\":4494:4501  kurslar */\n      0x07\n        /* \"contracts/Registration.sol\":4494:4513  kurslar[_kursAdres] */\n      0x00\n        /* \"contracts/Registration.sol\":4502:4512  _kursAdres */\n      dup6\n        /* \"contracts/Registration.sol\":4494:4513  kurslar[_kursAdres] */\n      0xffffffffffffffffffffffffffffffffffffffff\n      and\n      0xffffffffffffffffffffffffffffffffffffffff\n      and\n      dup2\n      mstore\n      0x20\n      add\n      swap1\n      dup2\n      mstore\n      0x20\n      add\n      0x00\n      keccak256\n        /* \"contracts/Registration.sol\":4494:4518  kurslar[_kursAdres].ulke */\n      0x02\n      add\n      0x00\n        /* \"contracts/Registration.sol\":4494:4524  kurslar[_kursAdres].ulke=_ulke */\n      0x0100\n      exp\n      dup2\n      sload\n      dup2\n      0xff\n      mul\n      not\n      and\n      swap1\n      dup4\n      0xff\n      and\n      mul\n      or\n      swap1\n      sstore\n      pop\n        /* \"contracts/Registration.sol\":4550:4589  KursEkleLog( _kursAdres,  _isim, _ulke) */\n      0x6bb7b94bfdc5d1cac19e058d529aff5df791333f0bb6164d9647d8915812fb1f\n        /* \"contracts/Registration.sol\":4563:4573  _kursAdres */\n      dup4\n        /* \"contracts/Registration.sol\":4576:4581  _isim */\n      dup4\n        /* \"contracts/Registration.sol\":4583:4588  _ulke */\n      dup4\n        /* \"contracts/Registration.sol\":4550:4589  KursEkleLog( _kursAdres,  _isim, _ulke) */\n      mload(0x40)\n      tag_158\n      swap4\n      swap3\n      swap2\n      swap1\n      tag_100\n      jump\t// in\n    tag_158:\n      mload(0x40)\n      dup1\n      swap2\n      sub\n      swap1\n      log1\n        /* \"contracts/Registration.sol\":4180:4606  function ekleKurs(address _kursAdres,string memory _isim, uint8 _ulke) \r... */\n      pop\n      pop\n      pop\n      jump\t// out\n        /* \"contracts/BaseContract.sol\":3757:3806  mapping(address=>KamuKurumu) public kamuKurumlari */\n    tag_57:\n      mstore(0x20, 0x08)\n      dup1\n      0x00\n      mstore\n      keccak256(0x00, 0x40)\n      0x00\n      swap2\n      pop\n      swap1\n      pop\n      dup1\n      0x00\n      add\n      0x00\n      swap1\n      sload\n      swap1\n      0x0100\n      exp\n      swap1\n      div\n      0xff\n      and\n      swap1\n      dup1\n      0x01\n      add\n      dup1\n      sload\n      tag_159\n      swap1\n      tag_112\n      jump\t// in\n    tag_159:\n      dup1\n      0x1f\n      add\n      0x20\n      dup1\n      swap2\n      div\n      mul\n      0x20\n      add\n      mload(0x40)\n      swap1\n      dup2\n      add\n      0x40\n      mstore\n      dup1\n      swap3\n      swap2\n      swap1\n      dup2\n      dup2\n      mstore\n      0x20\n      add\n      dup3\n      dup1\n      sload\n      tag_160\n      swap1\n      tag_112\n      jump\t// in\n    tag_160:\n      dup1\n      iszero\n      tag_161\n      jumpi\n      dup1\n      0x1f\n      lt\n      tag_162\n      jumpi\n      0x0100\n      dup1\n      dup4\n      sload\n      div\n      mul\n      dup4\n      mstore\n      swap2\n      0x20\n      add\n      swap2\n      jump(tag_161)\n    tag_162:\n      dup3\n      add\n      swap2\n      swap1\n      0x00\n      mstore\n      keccak256(0x00, 0x20)\n      swap1\n    tag_163:\n      dup2\n      sload\n      dup2\n      mstore\n      swap1\n      0x01\n      add\n      swap1\n      0x20\n      add\n      dup1\n      dup4\n      gt\n      tag_163\n      jumpi\n      dup3\n      swap1\n      sub\n      0x1f\n      and\n      dup3\n      add\n      swap2\n    tag_161:\n      pop\n      pop\n      pop\n      pop\n      pop\n      swap1\n      dup1\n      0x02\n      add\n      0x00\n      swap1\n      sload\n      swap1\n      0x0100\n      exp\n      swap1\n      div\n      0xff\n      and\n      swap1\n      pop\n      dup4\n      jump\t// out\n        /* \"contracts/BaseContract.sol\":3813:3848  mapping(address=>STK) public stklar */\n    tag_61:\n      mstore(0x20, 0x09)\n      dup1\n      0x00\n      mstore\n      keccak256(0x00, 0x40)\n      0x00\n      swap2\n      pop\n      swap1\n      pop\n      dup1\n      0x00\n      add\n      0x00\n      swap1\n      sload\n      swap1\n      0x0100\n      exp\n      swap1\n      div\n      0xff\n      and\n      swap1\n      dup1\n      0x01\n      add\n      dup1\n      sload\n      tag_164\n      swap1\n      tag_112\n      jump\t// in\n    tag_164:\n      dup1\n      0x1f\n      add\n      0x20\n      dup1\n      swap2\n      div\n      mul\n      0x20\n      add\n      mload(0x40)\n      swap1\n      dup2\n      add\n      0x40\n      mstore\n      dup1\n      swap3\n      swap2\n      swap1\n      dup2\n      dup2\n      mstore\n      0x20\n      add\n      dup3\n      dup1\n      sload\n      tag_165\n      swap1\n      tag_112\n      jump\t// in\n    tag_165:\n      dup1\n      iszero\n      tag_166\n      jumpi\n      dup1\n      0x1f\n      lt\n      tag_167\n      jumpi\n      0x0100\n      dup1\n      dup4\n      sload\n      div\n      mul\n      dup4\n      mstore\n      swap2\n      0x20\n      add\n      swap2\n      jump(tag_166)\n    tag_167:\n      dup3\n      add\n      swap2\n      swap1\n      0x00\n      mstore\n      keccak256(0x00, 0x20)\n      swap1\n    tag_168:\n      dup2\n      sload\n      dup2\n      mstore\n      swap1\n      0x01\n      add\n      swap1\n      0x20\n      add\n      dup1\n      dup4\n      gt\n      tag_168\n      jumpi\n      dup3\n      swap1\n      sub\n      0x1f\n      and\n      dup3\n      add\n      swap2\n    tag_166:\n      pop\n      pop\n      pop\n      pop\n      pop\n      swap1\n      dup1\n      0x02\n      add\n      0x00\n      swap1\n      sload\n      swap1\n      0x0100\n      exp\n      swap1\n      div\n      0xff\n      and\n      swap1\n      pop\n      dup4\n      jump\t// out\n        /* \"contracts/Registration.sol\":5031:5589  function ekleSertifikaMerkezi(address _smAdres,string memory _isim, uint8 _ulke) \r... */\n    tag_65:\n        /* \"contracts/BaseContract.sol\":2290:2294  TOBB */\n      0x01\n      0x00\n      swap1\n      sload\n      swap1\n      0x0100\n      exp\n      swap1\n      div\n      0xffffffffffffffffffffffffffffffffffffffff\n      and\n        /* \"contracts/BaseContract.sol\":2276:2294  msg.sender == TOBB */\n      0xffffffffffffffffffffffffffffffffffffffff\n      and\n        /* \"contracts/BaseContract.sol\":2276:2286  msg.sender */\n      caller\n        /* \"contracts/BaseContract.sol\":2276:2294  msg.sender == TOBB */\n      0xffffffffffffffffffffffffffffffffffffffff\n      and\n      eq\n        /* \"contracts/BaseContract.sol\":2268:2346  require(msg.sender == TOBB,\r... */\n      tag_170\n      jumpi\n      mload(0x40)\n      0x08c379a000000000000000000000000000000000000000000000000000000000\n      dup2\n      mstore\n      0x04\n      add\n      tag_171\n      swap1\n      tag_172\n      jump\t// in\n    tag_171:\n      mload(0x40)\n      dup1\n      swap2\n      sub\n      swap1\n      revert\n    tag_170:\n        /* \"contracts/Registration.sol\":5156:5175  sertifikaMerkezleri */\n      0x0a\n        /* \"contracts/Registration.sol\":5156:5185  sertifikaMerkezleri[_smAdres] */\n      0x00\n        /* \"contracts/Registration.sol\":5176:5184  _smAdres */\n      dup5\n        /* \"contracts/Registration.sol\":5156:5185  sertifikaMerkezleri[_smAdres] */\n      0xffffffffffffffffffffffffffffffffffffffff\n      and\n      0xffffffffffffffffffffffffffffffffffffffff\n      and\n      dup2\n      mstore\n      0x20\n      add\n      swap1\n      dup2\n      mstore\n      0x20\n      add\n      0x00\n      keccak256\n        /* \"contracts/Registration.sol\":5156:5191  sertifikaMerkezleri[_smAdres].durum */\n      0x00\n      add\n      0x00\n      swap1\n      sload\n      swap1\n      0x0100\n      exp\n      swap1\n      div\n      0xff\n      and\n        /* \"contracts/Registration.sol\":5155:5191  !sertifikaMerkezleri[_smAdres].durum */\n      iszero\n        /* \"contracts/Registration.sol\":5147:5253  require(!sertifikaMerkezleri[_smAdres].durum,\r... */\n      tag_174\n      jumpi\n      mload(0x40)\n      0x08c379a000000000000000000000000000000000000000000000000000000000\n      dup2\n      mstore\n      0x04\n      add\n      tag_175\n      swap1\n      tag_176\n      jump\t// in\n    tag_175:\n      mload(0x40)\n      dup1\n      swap2\n      sub\n      swap1\n      revert\n    tag_174:\n        /* \"contracts/Registration.sol\":5391:5395  true */\n      0x01\n        /* \"contracts/Registration.sol\":5355:5374  sertifikaMerkezleri */\n      0x0a\n        /* \"contracts/Registration.sol\":5355:5384  sertifikaMerkezleri[_smAdres] */\n      0x00\n        /* \"contracts/Registration.sol\":5375:5383  _smAdres */\n      dup6\n        /* \"contracts/Registration.sol\":5355:5384  sertifikaMerkezleri[_smAdres] */\n      0xffffffffffffffffffffffffffffffffffffffff\n      and\n      0xffffffffffffffffffffffffffffffffffffffff\n      and\n      dup2\n      mstore\n      0x20\n      add\n      swap1\n      dup2\n      mstore\n      0x20\n      add\n      0x00\n      keccak256\n        /* \"contracts/Registration.sol\":5355:5390  sertifikaMerkezleri[_smAdres].durum */\n      0x00\n      add\n      0x00\n        /* \"contracts/Registration.sol\":5355:5395  sertifikaMerkezleri[_smAdres].durum=true */\n      0x0100\n      exp\n      dup2\n      sload\n      dup2\n      0xff\n      mul\n      not\n      and\n      swap1\n      dup4\n      iszero\n      iszero\n      mul\n      or\n      swap1\n      sstore\n      pop\n        /* \"contracts/Registration.sol\":5441:5446  _isim */\n      dup2\n        /* \"contracts/Registration.sol\":5406:5425  sertifikaMerkezleri */\n      0x0a\n        /* \"contracts/Registration.sol\":5406:5435  sertifikaMerkezleri[_smAdres] */\n      0x00\n        /* \"contracts/Registration.sol\":5426:5434  _smAdres */\n      dup6\n        /* \"contracts/Registration.sol\":5406:5435  sertifikaMerkezleri[_smAdres] */\n      0xffffffffffffffffffffffffffffffffffffffff\n      and\n      0xffffffffffffffffffffffffffffffffffffffff\n      and\n      dup2\n      mstore\n      0x20\n      add\n      swap1\n      dup2\n      mstore\n      0x20\n      add\n      0x00\n      keccak256\n        /* \"contracts/Registration.sol\":5406:5440  sertifikaMerkezleri[_smAdres].isim */\n      0x01\n      add\n        /* \"contracts/Registration.sol\":5406:5446  sertifikaMerkezleri[_smAdres].isim=_isim */\n      swap1\n      dup1\n      mload\n      swap1\n      0x20\n      add\n      swap1\n      tag_177\n      swap3\n      swap2\n      swap1\n      tag_98\n      jump\t// in\n    tag_177:\n      pop\n        /* \"contracts/Registration.sol\":5492:5497  _ulke */\n      dup1\n        /* \"contracts/Registration.sol\":5457:5476  sertifikaMerkezleri */\n      0x0a\n        /* \"contracts/Registration.sol\":5457:5486  sertifikaMerkezleri[_smAdres] */\n      0x00\n        /* \"contracts/Registration.sol\":5477:5485  _smAdres */\n      dup6\n        /* \"contracts/Registration.sol\":5457:5486  sertifikaMerkezleri[_smAdres] */\n      0xffffffffffffffffffffffffffffffffffffffff\n      and\n      0xffffffffffffffffffffffffffffffffffffffff\n      and\n      dup2\n      mstore\n      0x20\n      add\n      swap1\n      dup2\n      mstore\n      0x20\n      add\n      0x00\n      keccak256\n        /* \"contracts/Registration.sol\":5457:5491  sertifikaMerkezleri[_smAdres].ulke */\n      0x02\n      add\n      0x00\n        /* \"contracts/Registration.sol\":5457:5497  sertifikaMerkezleri[_smAdres].ulke=_ulke */\n      0x0100\n      exp\n      dup2\n      sload\n      dup2\n      0xff\n      mul\n      not\n      and\n      swap1\n      dup4\n      0xff\n      and\n      mul\n      or\n      swap1\n      sstore\n      pop\n        /* \"contracts/Registration.sol\":5523:5572  SertifikaMerkeziEkleLog( _smAdres,  _isim, _ulke) */\n      0x08f8201cceb68e4cb53475bb7a54a85f719008aee80f1291dba111a7406b2073\n        /* \"contracts/Registration.sol\":5548:5556  _smAdres */\n      dup4\n        /* \"contracts/Registration.sol\":5559:5564  _isim */\n      dup4\n        /* \"contracts/Registration.sol\":5566:5571  _ulke */\n      dup4\n        /* \"contracts/Registration.sol\":5523:5572  SertifikaMerkeziEkleLog( _smAdres,  _isim, _ulke) */\n      mload(0x40)\n      tag_178\n      swap4\n      swap3\n      swap2\n      swap1\n      tag_100\n      jump\t// in\n    tag_178:\n      mload(0x40)\n      dup1\n      swap2\n      sub\n      swap1\n      log1\n        /* \"contracts/Registration.sol\":5031:5589  function ekleSertifikaMerkezi(address _smAdres,string memory _isim, uint8 _ulke) \r... */\n      pop\n      pop\n      pop\n      jump\t// out\n        /* \"contracts/BaseContract.sol\":3924:3965  mapping(uint32=>YabanciDil) public diller */\n    tag_69:\n      mstore(0x20, 0x0b)\n      dup1\n      0x00\n      mstore\n      keccak256(0x00, 0x40)\n      0x00\n      swap2\n      pop\n      swap1\n      pop\n      dup1\n      0x00\n      add\n      0x00\n      swap1\n      sload\n      swap1\n      0x0100\n      exp\n      swap1\n      div\n      0xffffffff\n      and\n      swap1\n      dup1\n      0x01\n      add\n      dup1\n      sload\n      tag_179\n      swap1\n      tag_112\n      jump\t// in\n    tag_179:\n      dup1\n      0x1f\n      add\n      0x20\n      dup1\n      swap2\n      div\n      mul\n      0x20\n      add\n      mload(0x40)\n      swap1\n      dup2\n      add\n      0x40\n      mstore\n      dup1\n      swap3\n      swap2\n      swap1\n      dup2\n      dup2\n      mstore\n      0x20\n      add\n      dup3\n      dup1\n      sload\n      tag_180\n      swap1\n      tag_112\n      jump\t// in\n    tag_180:\n      dup1\n      iszero\n      tag_181\n      jumpi\n      dup1\n      0x1f\n      lt\n      tag_182\n      jumpi\n      0x0100\n      dup1\n      dup4\n      sload\n      div\n      mul\n      dup4\n      mstore\n      swap2\n      0x20\n      add\n      swap2\n      jump(tag_181)\n    tag_182:\n      dup3\n      add\n      swap2\n      swap1\n      0x00\n      mstore\n      keccak256(0x00, 0x20)\n      swap1\n    tag_183:\n      dup2\n      sload\n      dup2\n      mstore\n      swap1\n      0x01\n      add\n      swap1\n      0x20\n      add\n      dup1\n      dup4\n      gt\n      tag_183\n      jumpi\n      dup3\n      swap1\n      sub\n      0x1f\n      and\n      dup3\n      add\n      swap2\n    tag_181:\n      pop\n      pop\n      pop\n      pop\n      pop\n      swap1\n      pop\n      dup3\n      jump\t// out\n        /* \"contracts/BaseContract.sol\":3607:3658  mapping(address=>Akademisyen) public akademisyenler */\n    tag_74:\n      mstore(0x20, 0x05)\n      dup1\n      0x00\n      mstore\n      keccak256(0x00, 0x40)\n      0x00\n      swap2\n      pop\n      swap1\n      pop\n      dup1\n      0x00\n      add\n      0x00\n      swap1\n      sload\n      swap1\n      0x0100\n      exp\n      swap1\n      div\n      0xff\n      and\n      swap1\n      dup1\n      0x00\n      add\n      0x01\n      swap1\n      sload\n      swap1\n      0x0100\n      exp\n      swap1\n      div\n      0xffffffffffffffffffffffffffffffffffffffff\n      and\n      swap1\n      dup1\n      0x00\n      add\n      0x15\n      swap1\n      sload\n      swap1\n      0x0100\n      exp\n      swap1\n      div\n      0xffff\n      and\n      swap1\n      dup1\n      0x00\n      add\n      0x17\n      swap1\n      sload\n      swap1\n      0x0100\n      exp\n      swap1\n      div\n      0xff\n      and\n      swap1\n      dup1\n      0x01\n      add\n      dup1\n      sload\n      tag_184\n      swap1\n      tag_112\n      jump\t// in\n    tag_184:\n      dup1\n      0x1f\n      add\n      0x20\n      dup1\n      swap2\n      div\n      mul\n      0x20\n      add\n      mload(0x40)\n      swap1\n      dup2\n      add\n      0x40\n      mstore\n      dup1\n      swap3\n      swap2\n      swap1\n      dup2\n      dup2\n      mstore\n      0x20\n      add\n      dup3\n      dup1\n      sload\n      tag_185\n      swap1\n      tag_112\n      jump\t// in\n    tag_185:\n      dup1\n      iszero\n      tag_186\n      jumpi\n      dup1\n      0x1f\n      lt\n      tag_187\n      jumpi\n      0x0100\n      dup1\n      dup4\n      sload\n      div\n      mul\n      dup4\n      mstore\n      swap2\n      0x20\n      add\n      swap2\n      jump(tag_186)\n    tag_187:\n      dup3\n      add\n      swap2\n      swap1\n      0x00\n      mstore\n      keccak256(0x00, 0x20)\n      swap1\n    tag_188:\n      dup2\n      sload\n      dup2\n      mstore\n      swap1\n      0x01\n      add\n      swap1\n      0x20\n      add\n      dup1\n      dup4\n      gt\n      tag_188\n      jumpi\n      dup3\n      swap1\n      sub\n      0x1f\n      and\n      dup3\n      add\n      swap2\n    tag_186:\n      pop\n      pop\n      pop\n      pop\n      pop\n      swap1\n      dup1\n      0x02\n      add\n      dup1\n      sload\n      tag_189\n      swap1\n      tag_112\n      jump\t// in\n    tag_189:\n      dup1\n      0x1f\n      add\n      0x20\n      dup1\n      swap2\n      div\n      mul\n      0x20\n      add\n      mload(0x40)\n      swap1\n      dup2\n      add\n      0x40\n      mstore\n      dup1\n      swap3\n      swap2\n      swap1\n      dup2\n      dup2\n      mstore\n      0x20\n      add\n      dup3\n      dup1\n      sload\n      tag_190\n      swap1\n      tag_112\n      jump\t// in\n    tag_190:\n      dup1\n      iszero\n      tag_191\n      jumpi\n      dup1\n      0x1f\n      lt\n      tag_192\n      jumpi\n      0x0100\n      dup1\n      dup4\n      sload\n      div\n      mul\n      dup4\n      mstore\n      swap2\n      0x20\n      add\n      swap2\n      jump(tag_191)\n    tag_192:\n      dup3\n      add\n      swap2\n      swap1\n      0x00\n      mstore\n      keccak256(0x00, 0x20)\n      swap1\n    tag_193:\n      dup2\n      sload\n      dup2\n      mstore\n      swap1\n      0x01\n      add\n      swap1\n      0x20\n      add\n      dup1\n      dup4\n      gt\n      tag_193\n      jumpi\n      dup3\n      swap1\n      sub\n      0x1f\n      and\n      dup3\n      add\n      swap2\n    tag_191:\n      pop\n      pop\n      pop\n      pop\n      pop\n      swap1\n      pop\n      dup7\n      jump\t// out\n        /* \"contracts/BaseContract.sol\":3507:3544  mapping(address=>Kisi) public kisiler */\n    tag_79:\n      mstore(0x20, 0x03)\n      dup1\n      0x00\n      mstore\n      keccak256(0x00, 0x40)\n      0x00\n      swap2\n      pop\n      swap1\n      pop\n      dup1\n      0x00\n      add\n      0x00\n      swap1\n      sload\n      swap1\n      0x0100\n      exp\n      swap1\n      div\n      0xff\n      and\n      swap1\n      pop\n      dup2\n      jump\t// out\n        /* \"contracts/Registration.sol\":3205:3690  function ekleFirma(address _firmaAdres,string memory _isim, uint _vergiNo,uint8 _ulke) \r... */\n    tag_85:\n        /* \"contracts/BaseContract.sol\":2290:2294  TOBB */\n      0x01\n      0x00\n      swap1\n      sload\n      swap1\n      0x0100\n      exp\n      swap1\n      div\n      0xffffffffffffffffffffffffffffffffffffffff\n      and\n        /* \"contracts/BaseContract.sol\":2276:2294  msg.sender == TOBB */\n      0xffffffffffffffffffffffffffffffffffffffff\n      and\n        /* \"contracts/BaseContract.sol\":2276:2286  msg.sender */\n      caller\n        /* \"contracts/BaseContract.sol\":2276:2294  msg.sender == TOBB */\n      0xffffffffffffffffffffffffffffffffffffffff\n      and\n      eq\n        /* \"contracts/BaseContract.sol\":2268:2346  require(msg.sender == TOBB,\r... */\n      tag_195\n      jumpi\n      mload(0x40)\n      0x08c379a000000000000000000000000000000000000000000000000000000000\n      dup2\n      mstore\n      0x04\n      add\n      tag_196\n      swap1\n      tag_172\n      jump\t// in\n    tag_196:\n      mload(0x40)\n      dup1\n      swap2\n      sub\n      swap1\n      revert\n    tag_195:\n        /* \"contracts/Registration.sol\":3333:3341  firmalar */\n      0x06\n        /* \"contracts/Registration.sol\":3333:3354  firmalar[_firmaAdres] */\n      0x00\n        /* \"contracts/Registration.sol\":3342:3353  _firmaAdres */\n      dup6\n        /* \"contracts/Registration.sol\":3333:3354  firmalar[_firmaAdres] */\n      0xffffffffffffffffffffffffffffffffffffffff\n      and\n      0xffffffffffffffffffffffffffffffffffffffff\n      and\n      dup2\n      mstore\n      0x20\n      add\n      swap1\n      dup2\n      mstore\n      0x20\n      add\n      0x00\n      keccak256\n        /* \"contracts/Registration.sol\":3333:3360  firmalar[_firmaAdres].durum */\n      0x00\n      add\n      0x00\n      swap1\n      sload\n      swap1\n      0x0100\n      exp\n      swap1\n      div\n      0xff\n      and\n        /* \"contracts/Registration.sol\":3332:3360  !firmalar[_firmaAdres].durum */\n      iszero\n        /* \"contracts/Registration.sol\":3324:3410  require(!firmalar[_firmaAdres].durum,\r... */\n      tag_198\n      jumpi\n      mload(0x40)\n      0x08c379a000000000000000000000000000000000000000000000000000000000\n      dup2\n      mstore\n      0x04\n      add\n      tag_199\n      swap1\n      tag_200\n      jump\t// in\n    tag_199:\n      mload(0x40)\n      dup1\n      swap2\n      sub\n      swap1\n      revert\n    tag_198:\n        /* \"contracts/Registration.sol\":3463:3467  true */\n      0x01\n        /* \"contracts/Registration.sol\":3435:3443  firmalar */\n      0x06\n        /* \"contracts/Registration.sol\":3435:3456  firmalar[_firmaAdres] */\n      0x00\n        /* \"contracts/Registration.sol\":3444:3455  _firmaAdres */\n      dup7\n        /* \"contracts/Registration.sol\":3435:3456  firmalar[_firmaAdres] */\n      0xffffffffffffffffffffffffffffffffffffffff\n      and\n      0xffffffffffffffffffffffffffffffffffffffff\n      and\n      dup2\n      mstore\n      0x20\n      add\n      swap1\n      dup2\n      mstore\n      0x20\n      add\n      0x00\n      keccak256\n        /* \"contracts/Registration.sol\":3435:3462  firmalar[_firmaAdres].durum */\n      0x00\n      add\n      0x00\n        /* \"contracts/Registration.sol\":3435:3467  firmalar[_firmaAdres].durum=true */\n      0x0100\n      exp\n      dup2\n      sload\n      dup2\n      0xff\n      mul\n      not\n      and\n      swap1\n      dup4\n      iszero\n      iszero\n      mul\n      or\n      swap1\n      sstore\n      pop\n        /* \"contracts/Registration.sol\":3505:3510  _isim */\n      dup3\n        /* \"contracts/Registration.sol\":3478:3486  firmalar */\n      0x06\n        /* \"contracts/Registration.sol\":3478:3499  firmalar[_firmaAdres] */\n      0x00\n        /* \"contracts/Registration.sol\":3487:3498  _firmaAdres */\n      dup7\n        /* \"contracts/Registration.sol\":3478:3499  firmalar[_firmaAdres] */\n      0xffffffffffffffffffffffffffffffffffffffff\n      and\n      0xffffffffffffffffffffffffffffffffffffffff\n      and\n      dup2\n      mstore\n      0x20\n      add\n      swap1\n      dup2\n      mstore\n      0x20\n      add\n      0x00\n      keccak256\n        /* \"contracts/Registration.sol\":3478:3504  firmalar[_firmaAdres].isim */\n      0x02\n      add\n        /* \"contracts/Registration.sol\":3478:3510  firmalar[_firmaAdres].isim=_isim */\n      swap1\n      dup1\n      mload\n      swap1\n      0x20\n      add\n      swap1\n      tag_201\n      swap3\n      swap2\n      swap1\n      tag_98\n      jump\t// in\n    tag_201:\n      pop\n        /* \"contracts/Registration.sol\":3548:3553  _ulke */\n      dup1\n        /* \"contracts/Registration.sol\":3521:3529  firmalar */\n      0x06\n        /* \"contracts/Registration.sol\":3521:3542  firmalar[_firmaAdres] */\n      0x00\n        /* \"contracts/Registration.sol\":3530:3541  _firmaAdres */\n      dup7\n        /* \"contracts/Registration.sol\":3521:3542  firmalar[_firmaAdres] */\n      0xffffffffffffffffffffffffffffffffffffffff\n      and\n      0xffffffffffffffffffffffffffffffffffffffff\n      and\n      dup2\n      mstore\n      0x20\n      add\n      swap1\n      dup2\n      mstore\n      0x20\n      add\n      0x00\n      keccak256\n        /* \"contracts/Registration.sol\":3521:3547  firmalar[_firmaAdres].ulke */\n      0x00\n      add\n      0x01\n        /* \"contracts/Registration.sol\":3521:3553  firmalar[_firmaAdres].ulke=_ulke */\n      0x0100\n      exp\n      dup2\n      sload\n      dup2\n      0xff\n      mul\n      not\n      and\n      swap1\n      dup4\n      0xff\n      and\n      mul\n      or\n      swap1\n      sstore\n      pop\n        /* \"contracts/Registration.sol\":3594:3602  _vergiNo */\n      dup2\n        /* \"contracts/Registration.sol\":3564:3572  firmalar */\n      0x06\n        /* \"contracts/Registration.sol\":3564:3585  firmalar[_firmaAdres] */\n      0x00\n        /* \"contracts/Registration.sol\":3573:3584  _firmaAdres */\n      dup7\n        /* \"contracts/Registration.sol\":3564:3585  firmalar[_firmaAdres] */\n      0xffffffffffffffffffffffffffffffffffffffff\n      and\n      0xffffffffffffffffffffffffffffffffffffffff\n      and\n      dup2\n      mstore\n      0x20\n      add\n      swap1\n      dup2\n      mstore\n      0x20\n      add\n      0x00\n      keccak256\n        /* \"contracts/Registration.sol\":3564:3593  firmalar[_firmaAdres].vergiNo */\n      0x01\n      add\n        /* \"contracts/Registration.sol\":3564:3602  firmalar[_firmaAdres].vergiNo=_vergiNo */\n      dup2\n      swap1\n      sstore\n      pop\n        /* \"contracts/Registration.sol\":3620:3673  FirmaEkleLog( _firmaAdres,  _isim,  _vergiNo,  _ulke) */\n      0x4c80d824213be57abdcc652faafea948bed864ebf9677d2a9dcb5efa217e88d6\n        /* \"contracts/Registration.sol\":3634:3645  _firmaAdres */\n      dup5\n        /* \"contracts/Registration.sol\":3648:3653  _isim */\n      dup5\n        /* \"contracts/Registration.sol\":3656:3664  _vergiNo */\n      dup5\n        /* \"contracts/Registration.sol\":3667:3672  _ulke */\n      dup5\n        /* \"contracts/Registration.sol\":3620:3673  FirmaEkleLog( _firmaAdres,  _isim,  _vergiNo,  _ulke) */\n      mload(0x40)\n      tag_202\n      swap5\n      swap4\n      swap3\n      swap2\n      swap1\n      tag_203\n      jump\t// in\n    tag_202:\n      mload(0x40)\n      dup1\n      swap2\n      sub\n      swap1\n      log1\n        /* \"contracts/Registration.sol\":3205:3690  function ekleFirma(address _firmaAdres,string memory _isim, uint _vergiNo,uint8 _ulke) \r... */\n      pop\n      pop\n      pop\n      pop\n      jump\t// out\n        /* \"contracts/Registration.sol\":3697:4173  function ekleKamuKurumu(address _kamuKurumuAdres,string memory _isim, uint8 _ulke) \r... */\n    tag_88:\n        /* \"contracts/BaseContract.sol\":2423:2425  CB */\n      0x02\n      0x00\n      swap1\n      sload\n      swap1\n      0x0100\n      exp\n      swap1\n      div\n      0xffffffffffffffffffffffffffffffffffffffff\n      and\n        /* \"contracts/BaseContract.sol\":2409:2425  msg.sender == CB */\n      0xffffffffffffffffffffffffffffffffffffffff\n      and\n        /* \"contracts/BaseContract.sol\":2409:2419  msg.sender */\n      caller\n        /* \"contracts/BaseContract.sol\":2409:2425  msg.sender == CB */\n      0xffffffffffffffffffffffffffffffffffffffff\n      and\n      eq\n        /* \"contracts/BaseContract.sol\":2401:2475  require(msg.sender == CB,\r... */\n      tag_205\n      jumpi\n      mload(0x40)\n      0x08c379a000000000000000000000000000000000000000000000000000000000\n      dup2\n      mstore\n      0x04\n      add\n      tag_206\n      swap1\n      tag_104\n      jump\t// in\n    tag_206:\n      mload(0x40)\n      dup1\n      swap2\n      sub\n      swap1\n      revert\n    tag_205:\n        /* \"contracts/Registration.sol\":3822:3835  kamuKurumlari */\n      0x08\n        /* \"contracts/Registration.sol\":3822:3853  kamuKurumlari[_kamuKurumuAdres] */\n      0x00\n        /* \"contracts/Registration.sol\":3836:3852  _kamuKurumuAdres */\n      dup5\n        /* \"contracts/Registration.sol\":3822:3853  kamuKurumlari[_kamuKurumuAdres] */\n      0xffffffffffffffffffffffffffffffffffffffff\n      and\n      0xffffffffffffffffffffffffffffffffffffffff\n      and\n      dup2\n      mstore\n      0x20\n      add\n      swap1\n      dup2\n      mstore\n      0x20\n      add\n      0x00\n      keccak256\n        /* \"contracts/Registration.sol\":3822:3859  kamuKurumlari[_kamuKurumuAdres].durum */\n      0x00\n      add\n      0x00\n      swap1\n      sload\n      swap1\n      0x0100\n      exp\n      swap1\n      div\n      0xff\n      and\n        /* \"contracts/Registration.sol\":3821:3859  !kamuKurumlari[_kamuKurumuAdres].durum */\n      iszero\n        /* \"contracts/Registration.sol\":3813:3914  require(!kamuKurumlari[_kamuKurumuAdres].durum,\r... */\n      tag_208\n      jumpi\n      mload(0x40)\n      0x08c379a000000000000000000000000000000000000000000000000000000000\n      dup2\n      mstore\n      0x04\n      add\n      tag_209\n      swap1\n      tag_210\n      jump\t// in\n    tag_209:\n      mload(0x40)\n      dup1\n      swap2\n      sub\n      swap1\n      revert\n    tag_208:\n        /* \"contracts/Registration.sol\":3977:3981  true */\n      0x01\n        /* \"contracts/Registration.sol\":3939:3952  kamuKurumlari */\n      0x08\n        /* \"contracts/Registration.sol\":3939:3970  kamuKurumlari[_kamuKurumuAdres] */\n      0x00\n        /* \"contracts/Registration.sol\":3953:3969  _kamuKurumuAdres */\n      dup6\n        /* \"contracts/Registration.sol\":3939:3970  kamuKurumlari[_kamuKurumuAdres] */\n      0xffffffffffffffffffffffffffffffffffffffff\n      and\n      0xffffffffffffffffffffffffffffffffffffffff\n      and\n      dup2\n      mstore\n      0x20\n      add\n      swap1\n      dup2\n      mstore\n      0x20\n      add\n      0x00\n      keccak256\n        /* \"contracts/Registration.sol\":3939:3976  kamuKurumlari[_kamuKurumuAdres].durum */\n      0x00\n      add\n      0x00\n        /* \"contracts/Registration.sol\":3939:3981  kamuKurumlari[_kamuKurumuAdres].durum=true */\n      0x0100\n      exp\n      dup2\n      sload\n      dup2\n      0xff\n      mul\n      not\n      and\n      swap1\n      dup4\n      iszero\n      iszero\n      mul\n      or\n      swap1\n      sstore\n      pop\n        /* \"contracts/Registration.sol\":4029:4034  _isim */\n      dup2\n        /* \"contracts/Registration.sol\":3992:4005  kamuKurumlari */\n      0x08\n        /* \"contracts/Registration.sol\":3992:4023  kamuKurumlari[_kamuKurumuAdres] */\n      0x00\n        /* \"contracts/Registration.sol\":4006:4022  _kamuKurumuAdres */\n      dup6\n        /* \"contracts/Registration.sol\":3992:4023  kamuKurumlari[_kamuKurumuAdres] */\n      0xffffffffffffffffffffffffffffffffffffffff\n      and\n      0xffffffffffffffffffffffffffffffffffffffff\n      and\n      dup2\n      mstore\n      0x20\n      add\n      swap1\n      dup2\n      mstore\n      0x20\n      add\n      0x00\n      keccak256\n        /* \"contracts/Registration.sol\":3992:4028  kamuKurumlari[_kamuKurumuAdres].isim */\n      0x01\n      add\n        /* \"contracts/Registration.sol\":3992:4034  kamuKurumlari[_kamuKurumuAdres].isim=_isim */\n      swap1\n      dup1\n      mload\n      swap1\n      0x20\n      add\n      swap1\n      tag_211\n      swap3\n      swap2\n      swap1\n      tag_98\n      jump\t// in\n    tag_211:\n      pop\n        /* \"contracts/Registration.sol\":4082:4087  _ulke */\n      dup1\n        /* \"contracts/Registration.sol\":4045:4058  kamuKurumlari */\n      0x08\n        /* \"contracts/Registration.sol\":4045:4076  kamuKurumlari[_kamuKurumuAdres] */\n      0x00\n        /* \"contracts/Registration.sol\":4059:4075  _kamuKurumuAdres */\n      dup6\n        /* \"contracts/Registration.sol\":4045:4076  kamuKurumlari[_kamuKurumuAdres] */\n      0xffffffffffffffffffffffffffffffffffffffff\n      and\n      0xffffffffffffffffffffffffffffffffffffffff\n      and\n      dup2\n      mstore\n      0x20\n      add\n      swap1\n      dup2\n      mstore\n      0x20\n      add\n      0x00\n      keccak256\n        /* \"contracts/Registration.sol\":4045:4081  kamuKurumlari[_kamuKurumuAdres].ulke */\n      0x02\n      add\n      0x00\n        /* \"contracts/Registration.sol\":4045:4087  kamuKurumlari[_kamuKurumuAdres].ulke=_ulke */\n      0x0100\n      exp\n      dup2\n      sload\n      dup2\n      0xff\n      mul\n      not\n      and\n      swap1\n      dup4\n      0xff\n      and\n      mul\n      or\n      swap1\n      sstore\n      pop\n        /* \"contracts/Registration.sol\":4105:4156  KamuKurumuEkleLog( _kamuKurumuAdres,  _isim, _ulke) */\n      0x3ed49d581db34ca478f2e99aeae4b5f44d7efd3db61bf20bc6d9212bf34f4aef\n        /* \"contracts/Registration.sol\":4124:4140  _kamuKurumuAdres */\n      dup4\n        /* \"contracts/Registration.sol\":4143:4148  _isim */\n      dup4\n        /* \"contracts/Registration.sol\":4150:4155  _ulke */\n      dup4\n        /* \"contracts/Registration.sol\":4105:4156  KamuKurumuEkleLog( _kamuKurumuAdres,  _isim, _ulke) */\n      mload(0x40)\n      tag_212\n      swap4\n      swap3\n      swap2\n      swap1\n      tag_100\n      jump\t// in\n    tag_212:\n      mload(0x40)\n      dup1\n      swap2\n      sub\n      swap1\n      log1\n        /* \"contracts/Registration.sol\":3697:4173  function ekleKamuKurumu(address _kamuKurumuAdres,string memory _isim, uint8 _ulke) \r... */\n      pop\n      pop\n      pop\n      jump\t// out\n    tag_98:\n      dup3\n      dup1\n      sload\n      tag_213\n      swap1\n      tag_112\n      jump\t// in\n    tag_213:\n      swap1\n      0x00\n      mstore\n      keccak256(0x00, 0x20)\n      swap1\n      0x1f\n      add\n      0x20\n      swap1\n      div\n      dup2\n      add\n      swap3\n      dup3\n      tag_215\n      jumpi\n      0x00\n      dup6\n      sstore\n      jump(tag_214)\n    tag_215:\n      dup3\n      0x1f\n      lt\n      tag_216\n      jumpi\n      dup1\n      mload\n      not(0xff)\n      and\n      dup4\n      dup1\n      add\n      or\n      dup6\n      sstore\n      jump(tag_214)\n    tag_216:\n      dup3\n      dup1\n      add\n      0x01\n      add\n      dup6\n      sstore\n      dup3\n      iszero\n      tag_214\n      jumpi\n      swap2\n      dup3\n      add\n    tag_217:\n      dup3\n      dup2\n      gt\n      iszero\n      tag_218\n      jumpi\n      dup3\n      mload\n      dup3\n      sstore\n      swap2\n      0x20\n      add\n      swap2\n      swap1\n      0x01\n      add\n      swap1\n      jump(tag_217)\n    tag_218:\n    tag_214:\n      pop\n      swap1\n      pop\n      tag_219\n      swap2\n      swap1\n      tag_220\n      jump\t// in\n    tag_219:\n      pop\n      swap1\n      jump\t// out\n    tag_220:\n    tag_221:\n      dup1\n      dup3\n      gt\n      iszero\n      tag_222\n      jumpi\n      0x00\n      dup2\n      0x00\n      swap1\n      sstore\n      pop\n      0x01\n      add\n      jump(tag_221)\n    tag_222:\n      pop\n      swap1\n      jump\t// out\n        /* \"#utility.yul\":7:419   */\n    tag_224:\n        /* \"#utility.yul\":85:90   */\n      0x00\n        /* \"#utility.yul\":110:176   */\n      tag_226\n        /* \"#utility.yul\":126:175   */\n      tag_227\n        /* \"#utility.yul\":168:174   */\n      dup5\n        /* \"#utility.yul\":126:175   */\n      tag_228\n      jump\t// in\n    tag_227:\n        /* \"#utility.yul\":110:176   */\n      tag_229\n      jump\t// in\n    tag_226:\n        /* \"#utility.yul\":101:176   */\n      swap1\n      pop\n        /* \"#utility.yul\":199:205   */\n      dup3\n        /* \"#utility.yul\":192:197   */\n      dup2\n        /* \"#utility.yul\":185:206   */\n      mstore\n        /* \"#utility.yul\":237:241   */\n      0x20\n        /* \"#utility.yul\":230:235   */\n      dup2\n        /* \"#utility.yul\":226:242   */\n      add\n        /* \"#utility.yul\":275:278   */\n      dup5\n        /* \"#utility.yul\":266:272   */\n      dup5\n        /* \"#utility.yul\":261:264   */\n      dup5\n        /* \"#utility.yul\":257:273   */\n      add\n        /* \"#utility.yul\":254:279   */\n      gt\n        /* \"#utility.yul\":251:363   */\n      iszero\n      tag_230\n      jumpi\n        /* \"#utility.yul\":282:361   */\n      tag_231\n      tag_232\n      jump\t// in\n    tag_231:\n        /* \"#utility.yul\":251:363   */\n    tag_230:\n        /* \"#utility.yul\":372:413   */\n      tag_233\n        /* \"#utility.yul\":406:412   */\n      dup5\n        /* \"#utility.yul\":401:404   */\n      dup3\n        /* \"#utility.yul\":396:399   */\n      dup6\n        /* \"#utility.yul\":372:413   */\n      tag_234\n      jump\t// in\n    tag_233:\n        /* \"#utility.yul\":91:419   */\n      pop\n        /* \"#utility.yul\":7:419   */\n      swap4\n      swap3\n      pop\n      pop\n      pop\n      jump\t// out\n        /* \"#utility.yul\":425:564   */\n    tag_235:\n        /* \"#utility.yul\":471:476   */\n      0x00\n        /* \"#utility.yul\":509:515   */\n      dup2\n        /* \"#utility.yul\":496:516   */\n      calldataload\n        /* \"#utility.yul\":487:516   */\n      swap1\n      pop\n        /* \"#utility.yul\":525:558   */\n      tag_237\n        /* \"#utility.yul\":552:557   */\n      dup2\n        /* \"#utility.yul\":525:558   */\n      tag_238\n      jump\t// in\n    tag_237:\n        /* \"#utility.yul\":425:564   */\n      swap3\n      swap2\n      pop\n      pop\n      jump\t// out\n        /* \"#utility.yul\":570:725   */\n    tag_239:\n        /* \"#utility.yul\":624:629   */\n      0x00\n        /* \"#utility.yul\":662:668   */\n      dup2\n        /* \"#utility.yul\":649:669   */\n      calldataload\n        /* \"#utility.yul\":640:669   */\n      swap1\n      pop\n        /* \"#utility.yul\":678:719   */\n      tag_241\n        /* \"#utility.yul\":713:718   */\n      dup2\n        /* \"#utility.yul\":678:719   */\n      tag_242\n      jump\t// in\n    tag_241:\n        /* \"#utility.yul\":570:725   */\n      swap3\n      swap2\n      pop\n      pop\n      jump\t// out\n        /* \"#utility.yul\":745:1085   */\n    tag_243:\n        /* \"#utility.yul\":801:806   */\n      0x00\n        /* \"#utility.yul\":850:853   */\n      dup3\n        /* \"#utility.yul\":843:847   */\n      0x1f\n        /* \"#utility.yul\":835:841   */\n      dup4\n        /* \"#utility.yul\":831:848   */\n      add\n        /* \"#utility.yul\":827:854   */\n      slt\n        /* \"#utility.yul\":817:939   */\n      tag_245\n      jumpi\n        /* \"#utility.yul\":858:937   */\n      tag_246\n      tag_247\n      jump\t// in\n    tag_246:\n        /* \"#utility.yul\":817:939   */\n    tag_245:\n        /* \"#utility.yul\":975:981   */\n      dup2\n        /* \"#utility.yul\":962:982   */\n      calldataload\n        /* \"#utility.yul\":1000:1079   */\n      tag_248\n        /* \"#utility.yul\":1075:1078   */\n      dup5\n        /* \"#utility.yul\":1067:1073   */\n      dup3\n        /* \"#utility.yul\":1060:1064   */\n      0x20\n        /* \"#utility.yul\":1052:1058   */\n      dup7\n        /* \"#utility.yul\":1048:1065   */\n      add\n        /* \"#utility.yul\":1000:1079   */\n      tag_224\n      jump\t// in\n    tag_248:\n        /* \"#utility.yul\":991:1079   */\n      swap2\n      pop\n        /* \"#utility.yul\":807:1085   */\n      pop\n        /* \"#utility.yul\":745:1085   */\n      swap3\n      swap2\n      pop\n      pop\n      jump\t// out\n        /* \"#utility.yul\":1091:1228   */\n    tag_249:\n        /* \"#utility.yul\":1136:1141   */\n      0x00\n        /* \"#utility.yul\":1174:1180   */\n      dup2\n        /* \"#utility.yul\":1161:1181   */\n      calldataload\n        /* \"#utility.yul\":1152:1181   */\n      swap1\n      pop\n        /* \"#utility.yul\":1190:1222   */\n      tag_251\n        /* \"#utility.yul\":1216:1221   */\n      dup2\n        /* \"#utility.yul\":1190:1222   */\n      tag_252\n      jump\t// in\n    tag_251:\n        /* \"#utility.yul\":1091:1228   */\n      swap3\n      swap2\n      pop\n      pop\n      jump\t// out\n        /* \"#utility.yul\":1234:1373   */\n    tag_253:\n        /* \"#utility.yul\":1280:1285   */\n      0x00\n        /* \"#utility.yul\":1318:1324   */\n      dup2\n        /* \"#utility.yul\":1305:1325   */\n      calldataload\n        /* \"#utility.yul\":1296:1325   */\n      swap1\n      pop\n        /* \"#utility.yul\":1334:1367   */\n      tag_255\n        /* \"#utility.yul\":1361:1366   */\n      dup2\n        /* \"#utility.yul\":1334:1367   */\n      tag_256\n      jump\t// in\n    tag_255:\n        /* \"#utility.yul\":1234:1373   */\n      swap3\n      swap2\n      pop\n      pop\n      jump\t// out\n        /* \"#utility.yul\":1379:1516   */\n    tag_257:\n        /* \"#utility.yul\":1424:1429   */\n      0x00\n        /* \"#utility.yul\":1462:1468   */\n      dup2\n        /* \"#utility.yul\":1449:1469   */\n      calldataload\n        /* \"#utility.yul\":1440:1469   */\n      swap1\n      pop\n        /* \"#utility.yul\":1478:1510   */\n      tag_259\n        /* \"#utility.yul\":1504:1509   */\n      dup2\n        /* \"#utility.yul\":1478:1510   */\n      tag_260\n      jump\t// in\n    tag_259:\n        /* \"#utility.yul\":1379:1516   */\n      swap3\n      swap2\n      pop\n      pop\n      jump\t// out\n        /* \"#utility.yul\":1522:1657   */\n    tag_261:\n        /* \"#utility.yul\":1566:1571   */\n      0x00\n        /* \"#utility.yul\":1604:1610   */\n      dup2\n        /* \"#utility.yul\":1591:1611   */\n      calldataload\n        /* \"#utility.yul\":1582:1611   */\n      swap1\n      pop\n        /* \"#utility.yul\":1620:1651   */\n      tag_263\n        /* \"#utility.yul\":1645:1650   */\n      dup2\n        /* \"#utility.yul\":1620:1651   */\n      tag_264\n      jump\t// in\n    tag_263:\n        /* \"#utility.yul\":1522:1657   */\n      swap3\n      swap2\n      pop\n      pop\n      jump\t// out\n        /* \"#utility.yul\":1663:1992   */\n    tag_31:\n        /* \"#utility.yul\":1722:1728   */\n      0x00\n        /* \"#utility.yul\":1771:1773   */\n      0x20\n        /* \"#utility.yul\":1759:1768   */\n      dup3\n        /* \"#utility.yul\":1750:1757   */\n      dup5\n        /* \"#utility.yul\":1746:1769   */\n      sub\n        /* \"#utility.yul\":1742:1774   */\n      slt\n        /* \"#utility.yul\":1739:1858   */\n      iszero\n      tag_266\n      jumpi\n        /* \"#utility.yul\":1777:1856   */\n      tag_267\n      tag_268\n      jump\t// in\n    tag_267:\n        /* \"#utility.yul\":1739:1858   */\n    tag_266:\n        /* \"#utility.yul\":1897:1898   */\n      0x00\n        /* \"#utility.yul\":1922:1975   */\n      tag_269\n        /* \"#utility.yul\":1967:1974   */\n      dup5\n        /* \"#utility.yul\":1958:1964   */\n      dup3\n        /* \"#utility.yul\":1947:1956   */\n      dup6\n        /* \"#utility.yul\":1943:1965   */\n      add\n        /* \"#utility.yul\":1922:1975   */\n      tag_235\n      jump\t// in\n    tag_269:\n        /* \"#utility.yul\":1912:1975   */\n      swap2\n      pop\n        /* \"#utility.yul\":1868:1985   */\n      pop\n        /* \"#utility.yul\":1663:1992   */\n      swap3\n      swap2\n      pop\n      pop\n      jump\t// out\n        /* \"#utility.yul\":1998:3429   */\n    tag_37:\n        /* \"#utility.yul\":2129:2135   */\n      0x00\n        /* \"#utility.yul\":2137:2143   */\n      dup1\n        /* \"#utility.yul\":2145:2151   */\n      0x00\n        /* \"#utility.yul\":2153:2159   */\n      dup1\n        /* \"#utility.yul\":2161:2167   */\n      0x00\n        /* \"#utility.yul\":2169:2175   */\n      dup1\n        /* \"#utility.yul\":2218:2221   */\n      0xc0\n        /* \"#utility.yul\":2206:2215   */\n      dup8\n        /* \"#utility.yul\":2197:2204   */\n      dup10\n        /* \"#utility.yul\":2193:2216   */\n      sub\n        /* \"#utility.yul\":2189:2222   */\n      slt\n        /* \"#utility.yul\":2186:2306   */\n      iszero\n      tag_271\n      jumpi\n        /* \"#utility.yul\":2225:2304   */\n      tag_272\n      tag_268\n      jump\t// in\n    tag_272:\n        /* \"#utility.yul\":2186:2306   */\n    tag_271:\n        /* \"#utility.yul\":2345:2346   */\n      0x00\n        /* \"#utility.yul\":2370:2423   */\n      tag_273\n        /* \"#utility.yul\":2415:2422   */\n      dup10\n        /* \"#utility.yul\":2406:2412   */\n      dup3\n        /* \"#utility.yul\":2395:2404   */\n      dup11\n        /* \"#utility.yul\":2391:2413   */\n      add\n        /* \"#utility.yul\":2370:2423   */\n      tag_235\n      jump\t// in\n    tag_273:\n        /* \"#utility.yul\":2360:2423   */\n      swap7\n      pop\n        /* \"#utility.yul\":2316:2433   */\n      pop\n        /* \"#utility.yul\":2472:2474   */\n      0x20\n        /* \"#utility.yul\":2498:2551   */\n      tag_274\n        /* \"#utility.yul\":2543:2550   */\n      dup10\n        /* \"#utility.yul\":2534:2540   */\n      dup3\n        /* \"#utility.yul\":2523:2532   */\n      dup11\n        /* \"#utility.yul\":2519:2541   */\n      add\n        /* \"#utility.yul\":2498:2551   */\n      tag_235\n      jump\t// in\n    tag_274:\n        /* \"#utility.yul\":2488:2551   */\n      swap6\n      pop\n        /* \"#utility.yul\":2443:2561   */\n      pop\n        /* \"#utility.yul\":2628:2630   */\n      0x40\n        /* \"#utility.yul\":2617:2626   */\n      dup8\n        /* \"#utility.yul\":2613:2631   */\n      add\n        /* \"#utility.yul\":2600:2632   */\n      calldataload\n        /* \"#utility.yul\":2659:2677   */\n      0xffffffffffffffff\n        /* \"#utility.yul\":2651:2657   */\n      dup2\n        /* \"#utility.yul\":2648:2678   */\n      gt\n        /* \"#utility.yul\":2645:2762   */\n      iszero\n      tag_275\n      jumpi\n        /* \"#utility.yul\":2681:2760   */\n      tag_276\n      tag_277\n      jump\t// in\n    tag_276:\n        /* \"#utility.yul\":2645:2762   */\n    tag_275:\n        /* \"#utility.yul\":2786:2849   */\n      tag_278\n        /* \"#utility.yul\":2841:2848   */\n      dup10\n        /* \"#utility.yul\":2832:2838   */\n      dup3\n        /* \"#utility.yul\":2821:2830   */\n      dup11\n        /* \"#utility.yul\":2817:2839   */\n      add\n        /* \"#utility.yul\":2786:2849   */\n      tag_243\n      jump\t// in\n    tag_278:\n        /* \"#utility.yul\":2776:2849   */\n      swap5\n      pop\n        /* \"#utility.yul\":2571:2859   */\n      pop\n        /* \"#utility.yul\":2926:2928   */\n      0x60\n        /* \"#utility.yul\":2915:2924   */\n      dup8\n        /* \"#utility.yul\":2911:2929   */\n      add\n        /* \"#utility.yul\":2898:2930   */\n      calldataload\n        /* \"#utility.yul\":2957:2975   */\n      0xffffffffffffffff\n        /* \"#utility.yul\":2949:2955   */\n      dup2\n        /* \"#utility.yul\":2946:2976   */\n      gt\n        /* \"#utility.yul\":2943:3060   */\n      iszero\n      tag_279\n      jumpi\n        /* \"#utility.yul\":2979:3058   */\n      tag_280\n      tag_277\n      jump\t// in\n    tag_280:\n        /* \"#utility.yul\":2943:3060   */\n    tag_279:\n        /* \"#utility.yul\":3084:3147   */\n      tag_281\n        /* \"#utility.yul\":3139:3146   */\n      dup10\n        /* \"#utility.yul\":3130:3136   */\n      dup3\n        /* \"#utility.yul\":3119:3128   */\n      dup11\n        /* \"#utility.yul\":3115:3137   */\n      add\n        /* \"#utility.yul\":3084:3147   */\n      tag_243\n      jump\t// in\n    tag_281:\n        /* \"#utility.yul\":3074:3147   */\n      swap4\n      pop\n        /* \"#utility.yul\":2869:3157   */\n      pop\n        /* \"#utility.yul\":3196:3199   */\n      0x80\n        /* \"#utility.yul\":3223:3275   */\n      tag_282\n        /* \"#utility.yul\":3267:3274   */\n      dup10\n        /* \"#utility.yul\":3258:3264   */\n      dup3\n        /* \"#utility.yul\":3247:3256   */\n      dup11\n        /* \"#utility.yul\":3243:3265   */\n      add\n        /* \"#utility.yul\":3223:3275   */\n      tag_249\n      jump\t// in\n    tag_282:\n        /* \"#utility.yul\":3213:3275   */\n      swap3\n      pop\n        /* \"#utility.yul\":3167:3285   */\n      pop\n        /* \"#utility.yul\":3324:3327   */\n      0xa0\n        /* \"#utility.yul\":3351:3412   */\n      tag_283\n        /* \"#utility.yul\":3404:3411   */\n      dup10\n        /* \"#utility.yul\":3395:3401   */\n      dup3\n        /* \"#utility.yul\":3384:3393   */\n      dup11\n        /* \"#utility.yul\":3380:3402   */\n      add\n        /* \"#utility.yul\":3351:3412   */\n      tag_239\n      jump\t// in\n    tag_283:\n        /* \"#utility.yul\":3341:3412   */\n      swap2\n      pop\n        /* \"#utility.yul\":3295:3422   */\n      pop\n        /* \"#utility.yul\":1998:3429   */\n      swap3\n      swap6\n      pop\n      swap3\n      swap6\n      pop\n      swap3\n      swap6\n      jump\t// out\n        /* \"#utility.yul\":3435:4376   */\n    tag_84:\n        /* \"#utility.yul\":3529:3535   */\n      0x00\n        /* \"#utility.yul\":3537:3543   */\n      dup1\n        /* \"#utility.yul\":3545:3551   */\n      0x00\n        /* \"#utility.yul\":3553:3559   */\n      dup1\n        /* \"#utility.yul\":3602:3605   */\n      0x80\n        /* \"#utility.yul\":3590:3599   */\n      dup6\n        /* \"#utility.yul\":3581:3588   */\n      dup8\n        /* \"#utility.yul\":3577:3600   */\n      sub\n        /* \"#utility.yul\":3573:3606   */\n      slt\n        /* \"#utility.yul\":3570:3690   */\n      iszero\n      tag_285\n      jumpi\n        /* \"#utility.yul\":3609:3688   */\n      tag_286\n      tag_268\n      jump\t// in\n    tag_286:\n        /* \"#utility.yul\":3570:3690   */\n    tag_285:\n        /* \"#utility.yul\":3729:3730   */\n      0x00\n        /* \"#utility.yul\":3754:3807   */\n      tag_287\n        /* \"#utility.yul\":3799:3806   */\n      dup8\n        /* \"#utility.yul\":3790:3796   */\n      dup3\n        /* \"#utility.yul\":3779:3788   */\n      dup9\n        /* \"#utility.yul\":3775:3797   */\n      add\n        /* \"#utility.yul\":3754:3807   */\n      tag_235\n      jump\t// in\n    tag_287:\n        /* \"#utility.yul\":3744:3807   */\n      swap5\n      pop\n        /* \"#utility.yul\":3700:3817   */\n      pop\n        /* \"#utility.yul\":3884:3886   */\n      0x20\n        /* \"#utility.yul\":3873:3882   */\n      dup6\n        /* \"#utility.yul\":3869:3887   */\n      add\n        /* \"#utility.yul\":3856:3888   */\n      calldataload\n        /* \"#utility.yul\":3915:3933   */\n      0xffffffffffffffff\n        /* \"#utility.yul\":3907:3913   */\n      dup2\n        /* \"#utility.yul\":3904:3934   */\n      gt\n        /* \"#utility.yul\":3901:4018   */\n      iszero\n      tag_288\n      jumpi\n        /* \"#utility.yul\":3937:4016   */\n      tag_289\n      tag_277\n      jump\t// in\n    tag_289:\n        /* \"#utility.yul\":3901:4018   */\n    tag_288:\n        /* \"#utility.yul\":4042:4105   */\n      tag_290\n        /* \"#utility.yul\":4097:4104   */\n      dup8\n        /* \"#utility.yul\":4088:4094   */\n      dup3\n        /* \"#utility.yul\":4077:4086   */\n      dup9\n        /* \"#utility.yul\":4073:4095   */\n      add\n        /* \"#utility.yul\":4042:4105   */\n      tag_243\n      jump\t// in\n    tag_290:\n        /* \"#utility.yul\":4032:4105   */\n      swap4\n      pop\n        /* \"#utility.yul\":3827:4115   */\n      pop\n        /* \"#utility.yul\":4154:4156   */\n      0x40\n        /* \"#utility.yul\":4180:4233   */\n      tag_291\n        /* \"#utility.yul\":4225:4232   */\n      dup8\n        /* \"#utility.yul\":4216:4222   */\n      dup3\n        /* \"#utility.yul\":4205:4214   */\n      dup9\n        /* \"#utility.yul\":4201:4223   */\n      add\n        /* \"#utility.yul\":4180:4233   */\n      tag_253\n      jump\t// in\n    tag_291:\n        /* \"#utility.yul\":4170:4233   */\n      swap3\n      pop\n        /* \"#utility.yul\":4125:4243   */\n      pop\n        /* \"#utility.yul\":4282:4284   */\n      0x60\n        /* \"#utility.yul\":4308:4359   */\n      tag_292\n        /* \"#utility.yul\":4351:4358   */\n      dup8\n        /* \"#utility.yul\":4342:4348   */\n      dup3\n        /* \"#utility.yul\":4331:4340   */\n      dup9\n        /* \"#utility.yul\":4327:4349   */\n      add\n        /* \"#utility.yul\":4308:4359   */\n      tag_261\n      jump\t// in\n    tag_292:\n        /* \"#utility.yul\":4298:4359   */\n      swap2\n      pop\n        /* \"#utility.yul\":4253:4369   */\n      pop\n        /* \"#utility.yul\":3435:4376   */\n      swap3\n      swap6\n      swap2\n      swap5\n      pop\n      swap3\n      pop\n      jump\t// out\n        /* \"#utility.yul\":4382:5177   */\n    tag_24:\n        /* \"#utility.yul\":4467:4473   */\n      0x00\n        /* \"#utility.yul\":4475:4481   */\n      dup1\n        /* \"#utility.yul\":4483:4489   */\n      0x00\n        /* \"#utility.yul\":4532:4534   */\n      0x60\n        /* \"#utility.yul\":4520:4529   */\n      dup5\n        /* \"#utility.yul\":4511:4518   */\n      dup7\n        /* \"#utility.yul\":4507:4530   */\n      sub\n        /* \"#utility.yul\":4503:4535   */\n      slt\n        /* \"#utility.yul\":4500:4619   */\n      iszero\n      tag_294\n      jumpi\n        /* \"#utility.yul\":4538:4617   */\n      tag_295\n      tag_268\n      jump\t// in\n    tag_295:\n        /* \"#utility.yul\":4500:4619   */\n    tag_294:\n        /* \"#utility.yul\":4658:4659   */\n      0x00\n        /* \"#utility.yul\":4683:4736   */\n      tag_296\n        /* \"#utility.yul\":4728:4735   */\n      dup7\n        /* \"#utility.yul\":4719:4725   */\n      dup3\n        /* \"#utility.yul\":4708:4717   */\n      dup8\n        /* \"#utility.yul\":4704:4726   */\n      add\n        /* \"#utility.yul\":4683:4736   */\n      tag_235\n      jump\t// in\n    tag_296:\n        /* \"#utility.yul\":4673:4736   */\n      swap4\n      pop\n        /* \"#utility.yul\":4629:4746   */\n      pop\n        /* \"#utility.yul\":4813:4815   */\n      0x20\n        /* \"#utility.yul\":4802:4811   */\n      dup5\n        /* \"#utility.yul\":4798:4816   */\n      add\n        /* \"#utility.yul\":4785:4817   */\n      calldataload\n        /* \"#utility.yul\":4844:4862   */\n      0xffffffffffffffff\n        /* \"#utility.yul\":4836:4842   */\n      dup2\n        /* \"#utility.yul\":4833:4863   */\n      gt\n        /* \"#utility.yul\":4830:4947   */\n      iszero\n      tag_297\n      jumpi\n        /* \"#utility.yul\":4866:4945   */\n      tag_298\n      tag_277\n      jump\t// in\n    tag_298:\n        /* \"#utility.yul\":4830:4947   */\n    tag_297:\n        /* \"#utility.yul\":4971:5034   */\n      tag_299\n        /* \"#utility.yul\":5026:5033   */\n      dup7\n        /* \"#utility.yul\":5017:5023   */\n      dup3\n        /* \"#utility.yul\":5006:5015   */\n      dup8\n        /* \"#utility.yul\":5002:5024   */\n      add\n        /* \"#utility.yul\":4971:5034   */\n      tag_243\n      jump\t// in\n    tag_299:\n        /* \"#utility.yul\":4961:5034   */\n      swap3\n      pop\n        /* \"#utility.yul\":4756:5044   */\n      pop\n        /* \"#utility.yul\":5083:5085   */\n      0x40\n        /* \"#utility.yul\":5109:5160   */\n      tag_300\n        /* \"#utility.yul\":5152:5159   */\n      dup7\n        /* \"#utility.yul\":5143:5149   */\n      dup3\n        /* \"#utility.yul\":5132:5141   */\n      dup8\n        /* \"#utility.yul\":5128:5150   */\n      add\n        /* \"#utility.yul\":5109:5160   */\n      tag_261\n      jump\t// in\n    tag_300:\n        /* \"#utility.yul\":5099:5160   */\n      swap2\n      pop\n        /* \"#utility.yul\":5054:5170   */\n      pop\n        /* \"#utility.yul\":4382:5177   */\n      swap3\n      pop\n      swap3\n      pop\n      swap3\n      jump\t// out\n        /* \"#utility.yul\":5183:5510   */\n    tag_68:\n        /* \"#utility.yul\":5241:5247   */\n      0x00\n        /* \"#utility.yul\":5290:5292   */\n      0x20\n        /* \"#utility.yul\":5278:5287   */\n      dup3\n        /* \"#utility.yul\":5269:5276   */\n      dup5\n        /* \"#utility.yul\":5265:5288   */\n      sub\n        /* \"#utility.yul\":5261:5293   */\n      slt\n        /* \"#utility.yul\":5258:5377   */\n      iszero\n      tag_302\n      jumpi\n        /* \"#utility.yul\":5296:5375   */\n      tag_303\n      tag_268\n      jump\t// in\n    tag_303:\n        /* \"#utility.yul\":5258:5377   */\n    tag_302:\n        /* \"#utility.yul\":5416:5417   */\n      0x00\n        /* \"#utility.yul\":5441:5493   */\n      tag_304\n        /* \"#utility.yul\":5485:5492   */\n      dup5\n        /* \"#utility.yul\":5476:5482   */\n      dup3\n        /* \"#utility.yul\":5465:5474   */\n      dup6\n        /* \"#utility.yul\":5461:5483   */\n      add\n        /* \"#utility.yul\":5441:5493   */\n      tag_257\n      jump\t// in\n    tag_304:\n        /* \"#utility.yul\":5431:5493   */\n      swap2\n      pop\n        /* \"#utility.yul\":5387:5503   */\n      pop\n        /* \"#utility.yul\":5183:5510   */\n      swap3\n      swap2\n      pop\n      pop\n      jump\t// out\n        /* \"#utility.yul\":5516:5634   */\n    tag_305:\n        /* \"#utility.yul\":5603:5627   */\n      tag_307\n        /* \"#utility.yul\":5621:5626   */\n      dup2\n        /* \"#utility.yul\":5603:5627   */\n      tag_308\n      jump\t// in\n    tag_307:\n        /* \"#utility.yul\":5598:5601   */\n      dup3\n        /* \"#utility.yul\":5591:5628   */\n      mstore\n        /* \"#utility.yul\":5516:5634   */\n      pop\n      pop\n      jump\t// out\n        /* \"#utility.yul\":5640:5749   */\n    tag_309:\n        /* \"#utility.yul\":5721:5742   */\n      tag_311\n        /* \"#utility.yul\":5736:5741   */\n      dup2\n        /* \"#utility.yul\":5721:5742   */\n      tag_312\n      jump\t// in\n    tag_311:\n        /* \"#utility.yul\":5716:5719   */\n      dup3\n        /* \"#utility.yul\":5709:5743   */\n      mstore\n        /* \"#utility.yul\":5640:5749   */\n      pop\n      pop\n      jump\t// out\n        /* \"#utility.yul\":5755:5898   */\n    tag_313:\n        /* \"#utility.yul\":5848:5891   */\n      tag_315\n        /* \"#utility.yul\":5885:5890   */\n      dup2\n        /* \"#utility.yul\":5848:5891   */\n      tag_316\n      jump\t// in\n    tag_315:\n        /* \"#utility.yul\":5843:5846   */\n      dup3\n        /* \"#utility.yul\":5836:5892   */\n      mstore\n        /* \"#utility.yul\":5755:5898   */\n      pop\n      pop\n      jump\t// out\n        /* \"#utility.yul\":5904:6268   */\n    tag_317:\n        /* \"#utility.yul\":5992:5995   */\n      0x00\n        /* \"#utility.yul\":6020:6059   */\n      tag_319\n        /* \"#utility.yul\":6053:6058   */\n      dup3\n        /* \"#utility.yul\":6020:6059   */\n      tag_320\n      jump\t// in\n    tag_319:\n        /* \"#utility.yul\":6075:6146   */\n      tag_321\n        /* \"#utility.yul\":6139:6145   */\n      dup2\n        /* \"#utility.yul\":6134:6137   */\n      dup6\n        /* \"#utility.yul\":6075:6146   */\n      tag_322\n      jump\t// in\n    tag_321:\n        /* \"#utility.yul\":6068:6146   */\n      swap4\n      pop\n        /* \"#utility.yul\":6155:6207   */\n      tag_323\n        /* \"#utility.yul\":6200:6206   */\n      dup2\n        /* \"#utility.yul\":6195:6198   */\n      dup6\n        /* \"#utility.yul\":6188:6192   */\n      0x20\n        /* \"#utility.yul\":6181:6186   */\n      dup7\n        /* \"#utility.yul\":6177:6193   */\n      add\n        /* \"#utility.yul\":6155:6207   */\n      tag_324\n      jump\t// in\n    tag_323:\n        /* \"#utility.yul\":6232:6261   */\n      tag_325\n        /* \"#utility.yul\":6254:6260   */\n      dup2\n        /* \"#utility.yul\":6232:6261   */\n      tag_326\n      jump\t// in\n    tag_325:\n        /* \"#utility.yul\":6227:6230   */\n      dup5\n        /* \"#utility.yul\":6223:6262   */\n      add\n        /* \"#utility.yul\":6216:6262   */\n      swap2\n      pop\n        /* \"#utility.yul\":5996:6268   */\n      pop\n        /* \"#utility.yul\":5904:6268   */\n      swap3\n      swap2\n      pop\n      pop\n      jump\t// out\n        /* \"#utility.yul\":6274:6640   */\n    tag_327:\n        /* \"#utility.yul\":6416:6419   */\n      0x00\n        /* \"#utility.yul\":6437:6504   */\n      tag_329\n        /* \"#utility.yul\":6501:6503   */\n      0x1f\n        /* \"#utility.yul\":6496:6499   */\n      dup4\n        /* \"#utility.yul\":6437:6504   */\n      tag_322\n      jump\t// in\n    tag_329:\n        /* \"#utility.yul\":6430:6504   */\n      swap2\n      pop\n        /* \"#utility.yul\":6513:6606   */\n      tag_330\n        /* \"#utility.yul\":6602:6605   */\n      dup3\n        /* \"#utility.yul\":6513:6606   */\n      tag_331\n      jump\t// in\n    tag_330:\n        /* \"#utility.yul\":6631:6633   */\n      0x20\n        /* \"#utility.yul\":6626:6629   */\n      dup3\n        /* \"#utility.yul\":6622:6634   */\n      add\n        /* \"#utility.yul\":6615:6634   */\n      swap1\n      pop\n        /* \"#utility.yul\":6274:6640   */\n      swap2\n      swap1\n      pop\n      jump\t// out\n        /* \"#utility.yul\":6646:7012   */\n    tag_332:\n        /* \"#utility.yul\":6788:6791   */\n      0x00\n        /* \"#utility.yul\":6809:6876   */\n      tag_334\n        /* \"#utility.yul\":6873:6875   */\n      0x18\n        /* \"#utility.yul\":6868:6871   */\n      dup4\n        /* \"#utility.yul\":6809:6876   */\n      tag_322\n      jump\t// in\n    tag_334:\n        /* \"#utility.yul\":6802:6876   */\n      swap2\n      pop\n        /* \"#utility.yul\":6885:6978   */\n      tag_335\n        /* \"#utility.yul\":6974:6977   */\n      dup3\n        /* \"#utility.yul\":6885:6978   */\n      tag_336\n      jump\t// in\n    tag_335:\n        /* \"#utility.yul\":7003:7005   */\n      0x20\n        /* \"#utility.yul\":6998:7001   */\n      dup3\n        /* \"#utility.yul\":6994:7006   */\n      add\n        /* \"#utility.yul\":6987:7006   */\n      swap1\n      pop\n        /* \"#utility.yul\":6646:7012   */\n      swap2\n      swap1\n      pop\n      jump\t// out\n        /* \"#utility.yul\":7018:7384   */\n    tag_337:\n        /* \"#utility.yul\":7160:7163   */\n      0x00\n        /* \"#utility.yul\":7181:7248   */\n      tag_339\n        /* \"#utility.yul\":7245:7247   */\n      0x12\n        /* \"#utility.yul\":7240:7243   */\n      dup4\n        /* \"#utility.yul\":7181:7248   */\n      tag_322\n      jump\t// in\n    tag_339:\n        /* \"#utility.yul\":7174:7248   */\n      swap2\n      pop\n        /* \"#utility.yul\":7257:7350   */\n      tag_340\n        /* \"#utility.yul\":7346:7349   */\n      dup3\n        /* \"#utility.yul\":7257:7350   */\n      tag_341\n      jump\t// in\n    tag_340:\n        /* \"#utility.yul\":7375:7377   */\n      0x20\n        /* \"#utility.yul\":7370:7373   */\n      dup3\n        /* \"#utility.yul\":7366:7378   */\n      add\n        /* \"#utility.yul\":7359:7378   */\n      swap1\n      pop\n        /* \"#utility.yul\":7018:7384   */\n      swap2\n      swap1\n      pop\n      jump\t// out\n        /* \"#utility.yul\":7390:7756   */\n    tag_342:\n        /* \"#utility.yul\":7532:7535   */\n      0x00\n        /* \"#utility.yul\":7553:7620   */\n      tag_344\n        /* \"#utility.yul\":7617:7619   */\n      0x1e\n        /* \"#utility.yul\":7612:7615   */\n      dup4\n        /* \"#utility.yul\":7553:7620   */\n      tag_322\n      jump\t// in\n    tag_344:\n        /* \"#utility.yul\":7546:7620   */\n      swap2\n      pop\n        /* \"#utility.yul\":7629:7722   */\n      tag_345\n        /* \"#utility.yul\":7718:7721   */\n      dup3\n        /* \"#utility.yul\":7629:7722   */\n      tag_346\n      jump\t// in\n    tag_345:\n        /* \"#utility.yul\":7747:7749   */\n      0x20\n        /* \"#utility.yul\":7742:7745   */\n      dup3\n        /* \"#utility.yul\":7738:7750   */\n      add\n        /* \"#utility.yul\":7731:7750   */\n      swap1\n      pop\n        /* \"#utility.yul\":7390:7756   */\n      swap2\n      swap1\n      pop\n      jump\t// out\n        /* \"#utility.yul\":7762:8128   */\n    tag_347:\n        /* \"#utility.yul\":7904:7907   */\n      0x00\n        /* \"#utility.yul\":7925:7992   */\n      tag_349\n        /* \"#utility.yul\":7989:7991   */\n      0x1e\n        /* \"#utility.yul\":7984:7987   */\n      dup4\n        /* \"#utility.yul\":7925:7992   */\n      tag_322\n      jump\t// in\n    tag_349:\n        /* \"#utility.yul\":7918:7992   */\n      swap2\n      pop\n        /* \"#utility.yul\":8001:8094   */\n      tag_350\n        /* \"#utility.yul\":8090:8093   */\n      dup3\n        /* \"#utility.yul\":8001:8094   */\n      tag_351\n      jump\t// in\n    tag_350:\n        /* \"#utility.yul\":8119:8121   */\n      0x20\n        /* \"#utility.yul\":8114:8117   */\n      dup3\n        /* \"#utility.yul\":8110:8122   */\n      add\n        /* \"#utility.yul\":8103:8122   */\n      swap1\n      pop\n        /* \"#utility.yul\":7762:8128   */\n      swap2\n      swap1\n      pop\n      jump\t// out\n        /* \"#utility.yul\":8134:8500   */\n    tag_352:\n        /* \"#utility.yul\":8276:8279   */\n      0x00\n        /* \"#utility.yul\":8297:8364   */\n      tag_354\n        /* \"#utility.yul\":8361:8363   */\n      0x22\n        /* \"#utility.yul\":8356:8359   */\n      dup4\n        /* \"#utility.yul\":8297:8364   */\n      tag_322\n      jump\t// in\n    tag_354:\n        /* \"#utility.yul\":8290:8364   */\n      swap2\n      pop\n        /* \"#utility.yul\":8373:8466   */\n      tag_355\n        /* \"#utility.yul\":8462:8465   */\n      dup3\n        /* \"#utility.yul\":8373:8466   */\n      tag_356\n      jump\t// in\n    tag_355:\n        /* \"#utility.yul\":8491:8493   */\n      0x40\n        /* \"#utility.yul\":8486:8489   */\n      dup3\n        /* \"#utility.yul\":8482:8494   */\n      add\n        /* \"#utility.yul\":8475:8494   */\n      swap1\n      pop\n        /* \"#utility.yul\":8134:8500   */\n      swap2\n      swap1\n      pop\n      jump\t// out\n        /* \"#utility.yul\":8506:8872   */\n    tag_357:\n        /* \"#utility.yul\":8648:8651   */\n      0x00\n        /* \"#utility.yul\":8669:8736   */\n      tag_359\n        /* \"#utility.yul\":8733:8735   */\n      0x17\n        /* \"#utility.yul\":8728:8731   */\n      dup4\n        /* \"#utility.yul\":8669:8736   */\n      tag_322\n      jump\t// in\n    tag_359:\n        /* \"#utility.yul\":8662:8736   */\n      swap2\n      pop\n        /* \"#utility.yul\":8745:8838   */\n      tag_360\n        /* \"#utility.yul\":8834:8837   */\n      dup3\n        /* \"#utility.yul\":8745:8838   */\n      tag_361\n      jump\t// in\n    tag_360:\n        /* \"#utility.yul\":8863:8865   */\n      0x20\n        /* \"#utility.yul\":8858:8861   */\n      dup3\n        /* \"#utility.yul\":8854:8866   */\n      add\n        /* \"#utility.yul\":8847:8866   */\n      swap1\n      pop\n        /* \"#utility.yul\":8506:8872   */\n      swap2\n      swap1\n      pop\n      jump\t// out\n        /* \"#utility.yul\":8878:9244   */\n    tag_362:\n        /* \"#utility.yul\":9020:9023   */\n      0x00\n        /* \"#utility.yul\":9041:9108   */\n      tag_364\n        /* \"#utility.yul\":9105:9107   */\n      0x26\n        /* \"#utility.yul\":9100:9103   */\n      dup4\n        /* \"#utility.yul\":9041:9108   */\n      tag_322\n      jump\t// in\n    tag_364:\n        /* \"#utility.yul\":9034:9108   */\n      swap2\n      pop\n        /* \"#utility.yul\":9117:9210   */\n      tag_365\n        /* \"#utility.yul\":9206:9209   */\n      dup3\n        /* \"#utility.yul\":9117:9210   */\n      tag_366\n      jump\t// in\n    tag_365:\n        /* \"#utility.yul\":9235:9237   */\n      0x40\n        /* \"#utility.yul\":9230:9233   */\n      dup3\n        /* \"#utility.yul\":9226:9238   */\n      add\n        /* \"#utility.yul\":9219:9238   */\n      swap1\n      pop\n        /* \"#utility.yul\":8878:9244   */\n      swap2\n      swap1\n      pop\n      jump\t// out\n        /* \"#utility.yul\":9250:9616   */\n    tag_367:\n        /* \"#utility.yul\":9392:9395   */\n      0x00\n        /* \"#utility.yul\":9413:9480   */\n      tag_369\n        /* \"#utility.yul\":9477:9479   */\n      0x18\n        /* \"#utility.yul\":9472:9475   */\n      dup4\n        /* \"#utility.yul\":9413:9480   */\n      tag_322\n      jump\t// in\n    tag_369:\n        /* \"#utility.yul\":9406:9480   */\n      swap2\n      pop\n        /* \"#utility.yul\":9489:9582   */\n      tag_370\n        /* \"#utility.yul\":9578:9581   */\n      dup3\n        /* \"#utility.yul\":9489:9582   */\n      tag_371\n      jump\t// in\n    tag_370:\n        /* \"#utility.yul\":9607:9609   */\n      0x20\n        /* \"#utility.yul\":9602:9605   */\n      dup3\n        /* \"#utility.yul\":9598:9610   */\n      add\n        /* \"#utility.yul\":9591:9610   */\n      swap1\n      pop\n        /* \"#utility.yul\":9250:9616   */\n      swap2\n      swap1\n      pop\n      jump\t// out\n        /* \"#utility.yul\":9622:9988   */\n    tag_372:\n        /* \"#utility.yul\":9764:9767   */\n      0x00\n        /* \"#utility.yul\":9785:9852   */\n      tag_374\n        /* \"#utility.yul\":9849:9851   */\n      0x17\n        /* \"#utility.yul\":9844:9847   */\n      dup4\n        /* \"#utility.yul\":9785:9852   */\n      tag_322\n      jump\t// in\n    tag_374:\n        /* \"#utility.yul\":9778:9852   */\n      swap2\n      pop\n        /* \"#utility.yul\":9861:9954   */\n      tag_375\n        /* \"#utility.yul\":9950:9953   */\n      dup3\n        /* \"#utility.yul\":9861:9954   */\n      tag_376\n      jump\t// in\n    tag_375:\n        /* \"#utility.yul\":9979:9981   */\n      0x20\n        /* \"#utility.yul\":9974:9977   */\n      dup3\n        /* \"#utility.yul\":9970:9982   */\n      add\n        /* \"#utility.yul\":9963:9982   */\n      swap1\n      pop\n        /* \"#utility.yul\":9622:9988   */\n      swap2\n      swap1\n      pop\n      jump\t// out\n        /* \"#utility.yul\":9994:10360   */\n    tag_377:\n        /* \"#utility.yul\":10136:10139   */\n      0x00\n        /* \"#utility.yul\":10157:10224   */\n      tag_379\n        /* \"#utility.yul\":10221:10223   */\n      0x20\n        /* \"#utility.yul\":10216:10219   */\n      dup4\n        /* \"#utility.yul\":10157:10224   */\n      tag_322\n      jump\t// in\n    tag_379:\n        /* \"#utility.yul\":10150:10224   */\n      swap2\n      pop\n        /* \"#utility.yul\":10233:10326   */\n      tag_380\n        /* \"#utility.yul\":10322:10325   */\n      dup3\n        /* \"#utility.yul\":10233:10326   */\n      tag_381\n      jump\t// in\n    tag_380:\n        /* \"#utility.yul\":10351:10353   */\n      0x20\n        /* \"#utility.yul\":10346:10349   */\n      dup3\n        /* \"#utility.yul\":10342:10354   */\n      add\n        /* \"#utility.yul\":10335:10354   */\n      swap1\n      pop\n        /* \"#utility.yul\":9994:10360   */\n      swap2\n      swap1\n      pop\n      jump\t// out\n        /* \"#utility.yul\":10366:10732   */\n    tag_382:\n        /* \"#utility.yul\":10508:10511   */\n      0x00\n        /* \"#utility.yul\":10529:10596   */\n      tag_384\n        /* \"#utility.yul\":10593:10595   */\n      0x20\n        /* \"#utility.yul\":10588:10591   */\n      dup4\n        /* \"#utility.yul\":10529:10596   */\n      tag_322\n      jump\t// in\n    tag_384:\n        /* \"#utility.yul\":10522:10596   */\n      swap2\n      pop\n        /* \"#utility.yul\":10605:10698   */\n      tag_385\n        /* \"#utility.yul\":10694:10697   */\n      dup3\n        /* \"#utility.yul\":10605:10698   */\n      tag_386\n      jump\t// in\n    tag_385:\n        /* \"#utility.yul\":10723:10725   */\n      0x20\n        /* \"#utility.yul\":10718:10721   */\n      dup3\n        /* \"#utility.yul\":10714:10726   */\n      add\n        /* \"#utility.yul\":10707:10726   */\n      swap1\n      pop\n        /* \"#utility.yul\":10366:10732   */\n      swap2\n      swap1\n      pop\n      jump\t// out\n        /* \"#utility.yul\":10738:10853   */\n    tag_387:\n        /* \"#utility.yul\":10823:10846   */\n      tag_389\n        /* \"#utility.yul\":10840:10845   */\n      dup2\n        /* \"#utility.yul\":10823:10846   */\n      tag_390\n      jump\t// in\n    tag_389:\n        /* \"#utility.yul\":10818:10821   */\n      dup3\n        /* \"#utility.yul\":10811:10847   */\n      mstore\n        /* \"#utility.yul\":10738:10853   */\n      pop\n      pop\n      jump\t// out\n        /* \"#utility.yul\":10859:10977   */\n    tag_391:\n        /* \"#utility.yul\":10946:10970   */\n      tag_393\n        /* \"#utility.yul\":10964:10969   */\n      dup2\n        /* \"#utility.yul\":10946:10970   */\n      tag_394\n      jump\t// in\n    tag_393:\n        /* \"#utility.yul\":10941:10944   */\n      dup3\n        /* \"#utility.yul\":10934:10971   */\n      mstore\n        /* \"#utility.yul\":10859:10977   */\n      pop\n      pop\n      jump\t// out\n        /* \"#utility.yul\":10983:11098   */\n    tag_395:\n        /* \"#utility.yul\":11068:11091   */\n      tag_397\n        /* \"#utility.yul\":11085:11090   */\n      dup2\n        /* \"#utility.yul\":11068:11091   */\n      tag_398\n      jump\t// in\n    tag_397:\n        /* \"#utility.yul\":11063:11066   */\n      dup3\n        /* \"#utility.yul\":11056:11092   */\n      mstore\n        /* \"#utility.yul\":10983:11098   */\n      pop\n      pop\n      jump\t// out\n        /* \"#utility.yul\":11104:11216   */\n    tag_399:\n        /* \"#utility.yul\":11187:11209   */\n      tag_401\n        /* \"#utility.yul\":11203:11208   */\n      dup2\n        /* \"#utility.yul\":11187:11209   */\n      tag_402\n      jump\t// in\n    tag_401:\n        /* \"#utility.yul\":11182:11185   */\n      dup3\n        /* \"#utility.yul\":11175:11210   */\n      mstore\n        /* \"#utility.yul\":11104:11216   */\n      pop\n      pop\n      jump\t// out\n        /* \"#utility.yul\":11222:12187   */\n    tag_131:\n        /* \"#utility.yul\":11499:11503   */\n      0x00\n        /* \"#utility.yul\":11537:11540   */\n      0xc0\n        /* \"#utility.yul\":11526:11535   */\n      dup3\n        /* \"#utility.yul\":11522:11541   */\n      add\n        /* \"#utility.yul\":11514:11541   */\n      swap1\n      pop\n        /* \"#utility.yul\":11551:11622   */\n      tag_404\n        /* \"#utility.yul\":11619:11620   */\n      0x00\n        /* \"#utility.yul\":11608:11617   */\n      dup4\n        /* \"#utility.yul\":11604:11621   */\n      add\n        /* \"#utility.yul\":11595:11601   */\n      dup10\n        /* \"#utility.yul\":11551:11622   */\n      tag_305\n      jump\t// in\n    tag_404:\n        /* \"#utility.yul\":11632:11704   */\n      tag_405\n        /* \"#utility.yul\":11700:11702   */\n      0x20\n        /* \"#utility.yul\":11689:11698   */\n      dup4\n        /* \"#utility.yul\":11685:11703   */\n      add\n        /* \"#utility.yul\":11676:11682   */\n      dup9\n        /* \"#utility.yul\":11632:11704   */\n      tag_305\n      jump\t// in\n    tag_405:\n        /* \"#utility.yul\":11751:11760   */\n      dup2\n        /* \"#utility.yul\":11745:11749   */\n      dup2\n        /* \"#utility.yul\":11741:11761   */\n      sub\n        /* \"#utility.yul\":11736:11738   */\n      0x40\n        /* \"#utility.yul\":11725:11734   */\n      dup4\n        /* \"#utility.yul\":11721:11739   */\n      add\n        /* \"#utility.yul\":11714:11762   */\n      mstore\n        /* \"#utility.yul\":11779:11857   */\n      tag_406\n        /* \"#utility.yul\":11852:11856   */\n      dup2\n        /* \"#utility.yul\":11843:11849   */\n      dup8\n        /* \"#utility.yul\":11779:11857   */\n      tag_317\n      jump\t// in\n    tag_406:\n        /* \"#utility.yul\":11771:11857   */\n      swap1\n      pop\n        /* \"#utility.yul\":11904:11913   */\n      dup2\n        /* \"#utility.yul\":11898:11902   */\n      dup2\n        /* \"#utility.yul\":11894:11914   */\n      sub\n        /* \"#utility.yul\":11889:11891   */\n      0x60\n        /* \"#utility.yul\":11878:11887   */\n      dup4\n        /* \"#utility.yul\":11874:11892   */\n      add\n        /* \"#utility.yul\":11867:11915   */\n      mstore\n        /* \"#utility.yul\":11932:12010   */\n      tag_407\n        /* \"#utility.yul\":12005:12009   */\n      dup2\n        /* \"#utility.yul\":11996:12002   */\n      dup7\n        /* \"#utility.yul\":11932:12010   */\n      tag_317\n      jump\t// in\n    tag_407:\n        /* \"#utility.yul\":11924:12010   */\n      swap1\n      pop\n        /* \"#utility.yul\":12020:12091   */\n      tag_408\n        /* \"#utility.yul\":12086:12089   */\n      0x80\n        /* \"#utility.yul\":12075:12084   */\n      dup4\n        /* \"#utility.yul\":12071:12090   */\n      add\n        /* \"#utility.yul\":12062:12068   */\n      dup6\n        /* \"#utility.yul\":12020:12091   */\n      tag_387\n      jump\t// in\n    tag_408:\n        /* \"#utility.yul\":12101:12180   */\n      tag_409\n        /* \"#utility.yul\":12175:12178   */\n      0xa0\n        /* \"#utility.yul\":12164:12173   */\n      dup4\n        /* \"#utility.yul\":12160:12179   */\n      add\n        /* \"#utility.yul\":12151:12157   */\n      dup5\n        /* \"#utility.yul\":12101:12180   */\n      tag_313\n      jump\t// in\n    tag_409:\n        /* \"#utility.yul\":11222:12187   */\n      swap8\n      swap7\n      pop\n      pop\n      pop\n      pop\n      pop\n      pop\n      pop\n      jump\t// out\n        /* \"#utility.yul\":12193:12829   */\n    tag_203:\n        /* \"#utility.yul\":12386:12390   */\n      0x00\n        /* \"#utility.yul\":12424:12427   */\n      0x80\n        /* \"#utility.yul\":12413:12422   */\n      dup3\n        /* \"#utility.yul\":12409:12428   */\n      add\n        /* \"#utility.yul\":12401:12428   */\n      swap1\n      pop\n        /* \"#utility.yul\":12438:12509   */\n      tag_411\n        /* \"#utility.yul\":12506:12507   */\n      0x00\n        /* \"#utility.yul\":12495:12504   */\n      dup4\n        /* \"#utility.yul\":12491:12508   */\n      add\n        /* \"#utility.yul\":12482:12488   */\n      dup8\n        /* \"#utility.yul\":12438:12509   */\n      tag_305\n      jump\t// in\n    tag_411:\n        /* \"#utility.yul\":12556:12565   */\n      dup2\n        /* \"#utility.yul\":12550:12554   */\n      dup2\n        /* \"#utility.yul\":12546:12566   */\n      sub\n        /* \"#utility.yul\":12541:12543   */\n      0x20\n        /* \"#utility.yul\":12530:12539   */\n      dup4\n        /* \"#utility.yul\":12526:12544   */\n      add\n        /* \"#utility.yul\":12519:12567   */\n      mstore\n        /* \"#utility.yul\":12584:12662   */\n      tag_412\n        /* \"#utility.yul\":12657:12661   */\n      dup2\n        /* \"#utility.yul\":12648:12654   */\n      dup7\n        /* \"#utility.yul\":12584:12662   */\n      tag_317\n      jump\t// in\n    tag_412:\n        /* \"#utility.yul\":12576:12662   */\n      swap1\n      pop\n        /* \"#utility.yul\":12672:12744   */\n      tag_413\n        /* \"#utility.yul\":12740:12742   */\n      0x40\n        /* \"#utility.yul\":12729:12738   */\n      dup4\n        /* \"#utility.yul\":12725:12743   */\n      add\n        /* \"#utility.yul\":12716:12722   */\n      dup6\n        /* \"#utility.yul\":12672:12744   */\n      tag_391\n      jump\t// in\n    tag_413:\n        /* \"#utility.yul\":12754:12822   */\n      tag_414\n        /* \"#utility.yul\":12818:12820   */\n      0x60\n        /* \"#utility.yul\":12807:12816   */\n      dup4\n        /* \"#utility.yul\":12803:12821   */\n      add\n        /* \"#utility.yul\":12794:12800   */\n      dup5\n        /* \"#utility.yul\":12754:12822   */\n      tag_399\n      jump\t// in\n    tag_414:\n        /* \"#utility.yul\":12193:12829   */\n      swap6\n      swap5\n      pop\n      pop\n      pop\n      pop\n      pop\n      jump\t// out\n        /* \"#utility.yul\":12835:13360   */\n    tag_100:\n        /* \"#utility.yul\":13000:13004   */\n      0x00\n        /* \"#utility.yul\":13038:13040   */\n      0x60\n        /* \"#utility.yul\":13027:13036   */\n      dup3\n        /* \"#utility.yul\":13023:13041   */\n      add\n        /* \"#utility.yul\":13015:13041   */\n      swap1\n      pop\n        /* \"#utility.yul\":13051:13122   */\n      tag_416\n        /* \"#utility.yul\":13119:13120   */\n      0x00\n        /* \"#utility.yul\":13108:13117   */\n      dup4\n        /* \"#utility.yul\":13104:13121   */\n      add\n        /* \"#utility.yul\":13095:13101   */\n      dup7\n        /* \"#utility.yul\":13051:13122   */\n      tag_305\n      jump\t// in\n    tag_416:\n        /* \"#utility.yul\":13169:13178   */\n      dup2\n        /* \"#utility.yul\":13163:13167   */\n      dup2\n        /* \"#utility.yul\":13159:13179   */\n      sub\n        /* \"#utility.yul\":13154:13156   */\n      0x20\n        /* \"#utility.yul\":13143:13152   */\n      dup4\n        /* \"#utility.yul\":13139:13157   */\n      add\n        /* \"#utility.yul\":13132:13180   */\n      mstore\n        /* \"#utility.yul\":13197:13275   */\n      tag_417\n        /* \"#utility.yul\":13270:13274   */\n      dup2\n        /* \"#utility.yul\":13261:13267   */\n      dup6\n        /* \"#utility.yul\":13197:13275   */\n      tag_317\n      jump\t// in\n    tag_417:\n        /* \"#utility.yul\":13189:13275   */\n      swap1\n      pop\n        /* \"#utility.yul\":13285:13353   */\n      tag_418\n        /* \"#utility.yul\":13349:13351   */\n      0x40\n        /* \"#utility.yul\":13338:13347   */\n      dup4\n        /* \"#utility.yul\":13334:13352   */\n      add\n        /* \"#utility.yul\":13325:13331   */\n      dup5\n        /* \"#utility.yul\":13285:13353   */\n      tag_399\n      jump\t// in\n    tag_418:\n        /* \"#utility.yul\":12835:13360   */\n      swap5\n      swap4\n      pop\n      pop\n      pop\n      pop\n      jump\t// out\n        /* \"#utility.yul\":13366:13576   */\n    tag_81:\n        /* \"#utility.yul\":13453:13457   */\n      0x00\n        /* \"#utility.yul\":13491:13493   */\n      0x20\n        /* \"#utility.yul\":13480:13489   */\n      dup3\n        /* \"#utility.yul\":13476:13494   */\n      add\n        /* \"#utility.yul\":13468:13494   */\n      swap1\n      pop\n        /* \"#utility.yul\":13504:13569   */\n      tag_420\n        /* \"#utility.yul\":13566:13567   */\n      0x00\n        /* \"#utility.yul\":13555:13564   */\n      dup4\n        /* \"#utility.yul\":13551:13568   */\n      add\n        /* \"#utility.yul\":13542:13548   */\n      dup5\n        /* \"#utility.yul\":13504:13569   */\n      tag_309\n      jump\t// in\n    tag_420:\n        /* \"#utility.yul\":13366:13576   */\n      swap3\n      swap2\n      pop\n      pop\n      jump\t// out\n        /* \"#utility.yul\":13582:14535   */\n    tag_76:\n        /* \"#utility.yul\":13853:13857   */\n      0x00\n        /* \"#utility.yul\":13891:13894   */\n      0xc0\n        /* \"#utility.yul\":13880:13889   */\n      dup3\n        /* \"#utility.yul\":13876:13895   */\n      add\n        /* \"#utility.yul\":13868:13895   */\n      swap1\n      pop\n        /* \"#utility.yul\":13905:13970   */\n      tag_422\n        /* \"#utility.yul\":13967:13968   */\n      0x00\n        /* \"#utility.yul\":13956:13965   */\n      dup4\n        /* \"#utility.yul\":13952:13969   */\n      add\n        /* \"#utility.yul\":13943:13949   */\n      dup10\n        /* \"#utility.yul\":13905:13970   */\n      tag_309\n      jump\t// in\n    tag_422:\n        /* \"#utility.yul\":13980:14052   */\n      tag_423\n        /* \"#utility.yul\":14048:14050   */\n      0x20\n        /* \"#utility.yul\":14037:14046   */\n      dup4\n        /* \"#utility.yul\":14033:14051   */\n      add\n        /* \"#utility.yul\":14024:14030   */\n      dup9\n        /* \"#utility.yul\":13980:14052   */\n      tag_305\n      jump\t// in\n    tag_423:\n        /* \"#utility.yul\":14062:14132   */\n      tag_424\n        /* \"#utility.yul\":14128:14130   */\n      0x40\n        /* \"#utility.yul\":14117:14126   */\n      dup4\n        /* \"#utility.yul\":14113:14131   */\n      add\n        /* \"#utility.yul\":14104:14110   */\n      dup8\n        /* \"#utility.yul\":14062:14132   */\n      tag_387\n      jump\t// in\n    tag_424:\n        /* \"#utility.yul\":14142:14220   */\n      tag_425\n        /* \"#utility.yul\":14216:14218   */\n      0x60\n        /* \"#utility.yul\":14205:14214   */\n      dup4\n        /* \"#utility.yul\":14201:14219   */\n      add\n        /* \"#utility.yul\":14192:14198   */\n      dup7\n        /* \"#utility.yul\":14142:14220   */\n      tag_313\n      jump\t// in\n    tag_425:\n        /* \"#utility.yul\":14268:14277   */\n      dup2\n        /* \"#utility.yul\":14262:14266   */\n      dup2\n        /* \"#utility.yul\":14258:14278   */\n      sub\n        /* \"#utility.yul\":14252:14255   */\n      0x80\n        /* \"#utility.yul\":14241:14250   */\n      dup4\n        /* \"#utility.yul\":14237:14256   */\n      add\n        /* \"#utility.yul\":14230:14279   */\n      mstore\n        /* \"#utility.yul\":14296:14374   */\n      tag_426\n        /* \"#utility.yul\":14369:14373   */\n      dup2\n        /* \"#utility.yul\":14360:14366   */\n      dup6\n        /* \"#utility.yul\":14296:14374   */\n      tag_317\n      jump\t// in\n    tag_426:\n        /* \"#utility.yul\":14288:14374   */\n      swap1\n      pop\n        /* \"#utility.yul\":14422:14431   */\n      dup2\n        /* \"#utility.yul\":14416:14420   */\n      dup2\n        /* \"#utility.yul\":14412:14432   */\n      sub\n        /* \"#utility.yul\":14406:14409   */\n      0xa0\n        /* \"#utility.yul\":14395:14404   */\n      dup4\n        /* \"#utility.yul\":14391:14410   */\n      add\n        /* \"#utility.yul\":14384:14433   */\n      mstore\n        /* \"#utility.yul\":14450:14528   */\n      tag_427\n        /* \"#utility.yul\":14523:14527   */\n      dup2\n        /* \"#utility.yul\":14514:14520   */\n      dup5\n        /* \"#utility.yul\":14450:14528   */\n      tag_317\n      jump\t// in\n    tag_427:\n        /* \"#utility.yul\":14442:14528   */\n      swap1\n      pop\n        /* \"#utility.yul\":13582:14535   */\n      swap8\n      swap7\n      pop\n      pop\n      pop\n      pop\n      pop\n      pop\n      pop\n      jump\t// out\n        /* \"#utility.yul\":14541:15054   */\n    tag_34:\n        /* \"#utility.yul\":14700:14704   */\n      0x00\n        /* \"#utility.yul\":14738:14740   */\n      0x60\n        /* \"#utility.yul\":14727:14736   */\n      dup3\n        /* \"#utility.yul\":14723:14741   */\n      add\n        /* \"#utility.yul\":14715:14741   */\n      swap1\n      pop\n        /* \"#utility.yul\":14751:14816   */\n      tag_429\n        /* \"#utility.yul\":14813:14814   */\n      0x00\n        /* \"#utility.yul\":14802:14811   */\n      dup4\n        /* \"#utility.yul\":14798:14815   */\n      add\n        /* \"#utility.yul\":14789:14795   */\n      dup7\n        /* \"#utility.yul\":14751:14816   */\n      tag_309\n      jump\t// in\n    tag_429:\n        /* \"#utility.yul\":14863:14872   */\n      dup2\n        /* \"#utility.yul\":14857:14861   */\n      dup2\n        /* \"#utility.yul\":14853:14873   */\n      sub\n        /* \"#utility.yul\":14848:14850   */\n      0x20\n        /* \"#utility.yul\":14837:14846   */\n      dup4\n        /* \"#utility.yul\":14833:14851   */\n      add\n        /* \"#utility.yul\":14826:14874   */\n      mstore\n        /* \"#utility.yul\":14891:14969   */\n      tag_430\n        /* \"#utility.yul\":14964:14968   */\n      dup2\n        /* \"#utility.yul\":14955:14961   */\n      dup6\n        /* \"#utility.yul\":14891:14969   */\n      tag_317\n      jump\t// in\n    tag_430:\n        /* \"#utility.yul\":14883:14969   */\n      swap1\n      pop\n        /* \"#utility.yul\":14979:15047   */\n      tag_431\n        /* \"#utility.yul\":15043:15045   */\n      0x40\n        /* \"#utility.yul\":15032:15041   */\n      dup4\n        /* \"#utility.yul\":15028:15046   */\n      add\n        /* \"#utility.yul\":15019:15025   */\n      dup5\n        /* \"#utility.yul\":14979:15047   */\n      tag_399\n      jump\t// in\n    tag_431:\n        /* \"#utility.yul\":14541:15054   */\n      swap5\n      swap4\n      pop\n      pop\n      pop\n      pop\n      jump\t// out\n        /* \"#utility.yul\":15060:15684   */\n    tag_51:\n        /* \"#utility.yul\":15247:15251   */\n      0x00\n        /* \"#utility.yul\":15285:15288   */\n      0x80\n        /* \"#utility.yul\":15274:15283   */\n      dup3\n        /* \"#utility.yul\":15270:15289   */\n      add\n        /* \"#utility.yul\":15262:15289   */\n      swap1\n      pop\n        /* \"#utility.yul\":15299:15364   */\n      tag_433\n        /* \"#utility.yul\":15361:15362   */\n      0x00\n        /* \"#utility.yul\":15350:15359   */\n      dup4\n        /* \"#utility.yul\":15346:15363   */\n      add\n        /* \"#utility.yul\":15337:15343   */\n      dup8\n        /* \"#utility.yul\":15299:15364   */\n      tag_309\n      jump\t// in\n    tag_433:\n        /* \"#utility.yul\":15374:15442   */\n      tag_434\n        /* \"#utility.yul\":15438:15440   */\n      0x20\n        /* \"#utility.yul\":15427:15436   */\n      dup4\n        /* \"#utility.yul\":15423:15441   */\n      add\n        /* \"#utility.yul\":15414:15420   */\n      dup7\n        /* \"#utility.yul\":15374:15442   */\n      tag_399\n      jump\t// in\n    tag_434:\n        /* \"#utility.yul\":15452:15524   */\n      tag_435\n        /* \"#utility.yul\":15520:15522   */\n      0x40\n        /* \"#utility.yul\":15509:15518   */\n      dup4\n        /* \"#utility.yul\":15505:15523   */\n      add\n        /* \"#utility.yul\":15496:15502   */\n      dup6\n        /* \"#utility.yul\":15452:15524   */\n      tag_391\n      jump\t// in\n    tag_435:\n        /* \"#utility.yul\":15571:15580   */\n      dup2\n        /* \"#utility.yul\":15565:15569   */\n      dup2\n        /* \"#utility.yul\":15561:15581   */\n      sub\n        /* \"#utility.yul\":15556:15558   */\n      0x60\n        /* \"#utility.yul\":15545:15554   */\n      dup4\n        /* \"#utility.yul\":15541:15559   */\n      add\n        /* \"#utility.yul\":15534:15582   */\n      mstore\n        /* \"#utility.yul\":15599:15677   */\n      tag_436\n        /* \"#utility.yul\":15672:15676   */\n      dup2\n        /* \"#utility.yul\":15663:15669   */\n      dup5\n        /* \"#utility.yul\":15599:15677   */\n      tag_317\n      jump\t// in\n    tag_436:\n        /* \"#utility.yul\":15591:15677   */\n      swap1\n      pop\n        /* \"#utility.yul\":15060:15684   */\n      swap6\n      swap5\n      pop\n      pop\n      pop\n      pop\n      pop\n      jump\t// out\n        /* \"#utility.yul\":15690:16109   */\n    tag_92:\n        /* \"#utility.yul\":15856:15860   */\n      0x00\n        /* \"#utility.yul\":15894:15896   */\n      0x20\n        /* \"#utility.yul\":15883:15892   */\n      dup3\n        /* \"#utility.yul\":15879:15897   */\n      add\n        /* \"#utility.yul\":15871:15897   */\n      swap1\n      pop\n        /* \"#utility.yul\":15943:15952   */\n      dup2\n        /* \"#utility.yul\":15937:15941   */\n      dup2\n        /* \"#utility.yul\":15933:15953   */\n      sub\n        /* \"#utility.yul\":15929:15930   */\n      0x00\n        /* \"#utility.yul\":15918:15927   */\n      dup4\n        /* \"#utility.yul\":15914:15931   */\n      add\n        /* \"#utility.yul\":15907:15954   */\n      mstore\n        /* \"#utility.yul\":15971:16102   */\n      tag_438\n        /* \"#utility.yul\":16097:16101   */\n      dup2\n        /* \"#utility.yul\":15971:16102   */\n      tag_327\n      jump\t// in\n    tag_438:\n        /* \"#utility.yul\":15963:16102   */\n      swap1\n      pop\n        /* \"#utility.yul\":15690:16109   */\n      swap2\n      swap1\n      pop\n      jump\t// out\n        /* \"#utility.yul\":16115:16534   */\n    tag_156:\n        /* \"#utility.yul\":16281:16285   */\n      0x00\n        /* \"#utility.yul\":16319:16321   */\n      0x20\n        /* \"#utility.yul\":16308:16317   */\n      dup3\n        /* \"#utility.yul\":16304:16322   */\n      add\n        /* \"#utility.yul\":16296:16322   */\n      swap1\n      pop\n        /* \"#utility.yul\":16368:16377   */\n      dup2\n        /* \"#utility.yul\":16362:16366   */\n      dup2\n        /* \"#utility.yul\":16358:16378   */\n      sub\n        /* \"#utility.yul\":16354:16355   */\n      0x00\n        /* \"#utility.yul\":16343:16352   */\n      dup4\n        /* \"#utility.yul\":16339:16356   */\n      add\n        /* \"#utility.yul\":16332:16379   */\n      mstore\n        /* \"#utility.yul\":16396:16527   */\n      tag_440\n        /* \"#utility.yul\":16522:16526   */\n      dup2\n        /* \"#utility.yul\":16396:16527   */\n      tag_332\n      jump\t// in\n    tag_440:\n        /* \"#utility.yul\":16388:16527   */\n      swap1\n      pop\n        /* \"#utility.yul\":16115:16534   */\n      swap2\n      swap1\n      pop\n      jump\t// out\n        /* \"#utility.yul\":16540:16959   */\n    tag_200:\n        /* \"#utility.yul\":16706:16710   */\n      0x00\n        /* \"#utility.yul\":16744:16746   */\n      0x20\n        /* \"#utility.yul\":16733:16742   */\n      dup3\n        /* \"#utility.yul\":16729:16747   */\n      add\n        /* \"#utility.yul\":16721:16747   */\n      swap1\n      pop\n        /* \"#utility.yul\":16793:16802   */\n      dup2\n        /* \"#utility.yul\":16787:16791   */\n      dup2\n        /* \"#utility.yul\":16783:16803   */\n      sub\n        /* \"#utility.yul\":16779:16780   */\n      0x00\n        /* \"#utility.yul\":16768:16777   */\n      dup4\n        /* \"#utility.yul\":16764:16781   */\n      add\n        /* \"#utility.yul\":16757:16804   */\n      mstore\n        /* \"#utility.yul\":16821:16952   */\n      tag_442\n        /* \"#utility.yul\":16947:16951   */\n      dup2\n        /* \"#utility.yul\":16821:16952   */\n      tag_337\n      jump\t// in\n    tag_442:\n        /* \"#utility.yul\":16813:16952   */\n      swap1\n      pop\n        /* \"#utility.yul\":16540:16959   */\n      swap2\n      swap1\n      pop\n      jump\t// out\n        /* \"#utility.yul\":16965:17384   */\n    tag_104:\n        /* \"#utility.yul\":17131:17135   */\n      0x00\n        /* \"#utility.yul\":17169:17171   */\n      0x20\n        /* \"#utility.yul\":17158:17167   */\n      dup3\n        /* \"#utility.yul\":17154:17172   */\n      add\n        /* \"#utility.yul\":17146:17172   */\n      swap1\n      pop\n        /* \"#utility.yul\":17218:17227   */\n      dup2\n        /* \"#utility.yul\":17212:17216   */\n      dup2\n        /* \"#utility.yul\":17208:17228   */\n      sub\n        /* \"#utility.yul\":17204:17205   */\n      0x00\n        /* \"#utility.yul\":17193:17202   */\n      dup4\n        /* \"#utility.yul\":17189:17206   */\n      add\n        /* \"#utility.yul\":17182:17229   */\n      mstore\n        /* \"#utility.yul\":17246:17377   */\n      tag_444\n        /* \"#utility.yul\":17372:17376   */\n      dup2\n        /* \"#utility.yul\":17246:17377   */\n      tag_342\n      jump\t// in\n    tag_444:\n        /* \"#utility.yul\":17238:17377   */\n      swap1\n      pop\n        /* \"#utility.yul\":16965:17384   */\n      swap2\n      swap1\n      pop\n      jump\t// out\n        /* \"#utility.yul\":17390:17809   */\n    tag_176:\n        /* \"#utility.yul\":17556:17560   */\n      0x00\n        /* \"#utility.yul\":17594:17596   */\n      0x20\n        /* \"#utility.yul\":17583:17592   */\n      dup3\n        /* \"#utility.yul\":17579:17597   */\n      add\n        /* \"#utility.yul\":17571:17597   */\n      swap1\n      pop\n        /* \"#utility.yul\":17643:17652   */\n      dup2\n        /* \"#utility.yul\":17637:17641   */\n      dup2\n        /* \"#utility.yul\":17633:17653   */\n      sub\n        /* \"#utility.yul\":17629:17630   */\n      0x00\n        /* \"#utility.yul\":17618:17627   */\n      dup4\n        /* \"#utility.yul\":17614:17631   */\n      add\n        /* \"#utility.yul\":17607:17654   */\n      mstore\n        /* \"#utility.yul\":17671:17802   */\n      tag_446\n        /* \"#utility.yul\":17797:17801   */\n      dup2\n        /* \"#utility.yul\":17671:17802   */\n      tag_347\n      jump\t// in\n    tag_446:\n        /* \"#utility.yul\":17663:17802   */\n      swap1\n      pop\n        /* \"#utility.yul\":17390:17809   */\n      swap2\n      swap1\n      pop\n      jump\t// out\n        /* \"#utility.yul\":17815:18234   */\n    tag_108:\n        /* \"#utility.yul\":17981:17985   */\n      0x00\n        /* \"#utility.yul\":18019:18021   */\n      0x20\n        /* \"#utility.yul\":18008:18017   */\n      dup3\n        /* \"#utility.yul\":18004:18022   */\n      add\n        /* \"#utility.yul\":17996:18022   */\n      swap1\n      pop\n        /* \"#utility.yul\":18068:18077   */\n      dup2\n        /* \"#utility.yul\":18062:18066   */\n      dup2\n        /* \"#utility.yul\":18058:18078   */\n      sub\n        /* \"#utility.yul\":18054:18055   */\n      0x00\n        /* \"#utility.yul\":18043:18052   */\n      dup4\n        /* \"#utility.yul\":18039:18056   */\n      add\n        /* \"#utility.yul\":18032:18079   */\n      mstore\n        /* \"#utility.yul\":18096:18227   */\n      tag_448\n        /* \"#utility.yul\":18222:18226   */\n      dup2\n        /* \"#utility.yul\":18096:18227   */\n      tag_352\n      jump\t// in\n    tag_448:\n        /* \"#utility.yul\":18088:18227   */\n      swap1\n      pop\n        /* \"#utility.yul\":17815:18234   */\n      swap2\n      swap1\n      pop\n      jump\t// out\n        /* \"#utility.yul\":18240:18659   */\n    tag_96:\n        /* \"#utility.yul\":18406:18410   */\n      0x00\n        /* \"#utility.yul\":18444:18446   */\n      0x20\n        /* \"#utility.yul\":18433:18442   */\n      dup3\n        /* \"#utility.yul\":18429:18447   */\n      add\n        /* \"#utility.yul\":18421:18447   */\n      swap1\n      pop\n        /* \"#utility.yul\":18493:18502   */\n      dup2\n        /* \"#utility.yul\":18487:18491   */\n      dup2\n        /* \"#utility.yul\":18483:18503   */\n      sub\n        /* \"#utility.yul\":18479:18480   */\n      0x00\n        /* \"#utility.yul\":18468:18477   */\n      dup4\n        /* \"#utility.yul\":18464:18481   */\n      add\n        /* \"#utility.yul\":18457:18504   */\n      mstore\n        /* \"#utility.yul\":18521:18652   */\n      tag_450\n        /* \"#utility.yul\":18647:18651   */\n      dup2\n        /* \"#utility.yul\":18521:18652   */\n      tag_357\n      jump\t// in\n    tag_450:\n        /* \"#utility.yul\":18513:18652   */\n      swap1\n      pop\n        /* \"#utility.yul\":18240:18659   */\n      swap2\n      swap1\n      pop\n      jump\t// out\n        /* \"#utility.yul\":18665:19084   */\n    tag_120:\n        /* \"#utility.yul\":18831:18835   */\n      0x00\n        /* \"#utility.yul\":18869:18871   */\n      0x20\n        /* \"#utility.yul\":18858:18867   */\n      dup3\n        /* \"#utility.yul\":18854:18872   */\n      add\n        /* \"#utility.yul\":18846:18872   */\n      swap1\n      pop\n        /* \"#utility.yul\":18918:18927   */\n      dup2\n        /* \"#utility.yul\":18912:18916   */\n      dup2\n        /* \"#utility.yul\":18908:18928   */\n      sub\n        /* \"#utility.yul\":18904:18905   */\n      0x00\n        /* \"#utility.yul\":18893:18902   */\n      dup4\n        /* \"#utility.yul\":18889:18906   */\n      add\n        /* \"#utility.yul\":18882:18929   */\n      mstore\n        /* \"#utility.yul\":18946:19077   */\n      tag_452\n        /* \"#utility.yul\":19072:19076   */\n      dup2\n        /* \"#utility.yul\":18946:19077   */\n      tag_362\n      jump\t// in\n    tag_452:\n        /* \"#utility.yul\":18938:19077   */\n      swap1\n      pop\n        /* \"#utility.yul\":18665:19084   */\n      swap2\n      swap1\n      pop\n      jump\t// out\n        /* \"#utility.yul\":19090:19509   */\n    tag_124:\n        /* \"#utility.yul\":19256:19260   */\n      0x00\n        /* \"#utility.yul\":19294:19296   */\n      0x20\n        /* \"#utility.yul\":19283:19292   */\n      dup3\n        /* \"#utility.yul\":19279:19297   */\n      add\n        /* \"#utility.yul\":19271:19297   */\n      swap1\n      pop\n        /* \"#utility.yul\":19343:19352   */\n      dup2\n        /* \"#utility.yul\":19337:19341   */\n      dup2\n        /* \"#utility.yul\":19333:19353   */\n      sub\n        /* \"#utility.yul\":19329:19330   */\n      0x00\n        /* \"#utility.yul\":19318:19327   */\n      dup4\n        /* \"#utility.yul\":19314:19331   */\n      add\n        /* \"#utility.yul\":19307:19354   */\n      mstore\n        /* \"#utility.yul\":19371:19502   */\n      tag_454\n        /* \"#utility.yul\":19497:19501   */\n      dup2\n        /* \"#utility.yul\":19371:19502   */\n      tag_367\n      jump\t// in\n    tag_454:\n        /* \"#utility.yul\":19363:19502   */\n      swap1\n      pop\n        /* \"#utility.yul\":19090:19509   */\n      swap2\n      swap1\n      pop\n      jump\t// out\n        /* \"#utility.yul\":19515:19934   */\n    tag_210:\n        /* \"#utility.yul\":19681:19685   */\n      0x00\n        /* \"#utility.yul\":19719:19721   */\n      0x20\n        /* \"#utility.yul\":19708:19717   */\n      dup3\n        /* \"#utility.yul\":19704:19722   */\n      add\n        /* \"#utility.yul\":19696:19722   */\n      swap1\n      pop\n        /* \"#utility.yul\":19768:19777   */\n      dup2\n        /* \"#utility.yul\":19762:19766   */\n      dup2\n        /* \"#utility.yul\":19758:19778   */\n      sub\n        /* \"#utility.yul\":19754:19755   */\n      0x00\n        /* \"#utility.yul\":19743:19752   */\n      dup4\n        /* \"#utility.yul\":19739:19756   */\n      add\n        /* \"#utility.yul\":19732:19779   */\n      mstore\n        /* \"#utility.yul\":19796:19927   */\n      tag_456\n        /* \"#utility.yul\":19922:19926   */\n      dup2\n        /* \"#utility.yul\":19796:19927   */\n      tag_372\n      jump\t// in\n    tag_456:\n        /* \"#utility.yul\":19788:19927   */\n      swap1\n      pop\n        /* \"#utility.yul\":19515:19934   */\n      swap2\n      swap1\n      pop\n      jump\t// out\n        /* \"#utility.yul\":19940:20359   */\n    tag_172:\n        /* \"#utility.yul\":20106:20110   */\n      0x00\n        /* \"#utility.yul\":20144:20146   */\n      0x20\n        /* \"#utility.yul\":20133:20142   */\n      dup3\n        /* \"#utility.yul\":20129:20147   */\n      add\n        /* \"#utility.yul\":20121:20147   */\n      swap1\n      pop\n        /* \"#utility.yul\":20193:20202   */\n      dup2\n        /* \"#utility.yul\":20187:20191   */\n      dup2\n        /* \"#utility.yul\":20183:20203   */\n      sub\n        /* \"#utility.yul\":20179:20180   */\n      0x00\n        /* \"#utility.yul\":20168:20177   */\n      dup4\n        /* \"#utility.yul\":20164:20181   */\n      add\n        /* \"#utility.yul\":20157:20204   */\n      mstore\n        /* \"#utility.yul\":20221:20352   */\n      tag_458\n        /* \"#utility.yul\":20347:20351   */\n      dup2\n        /* \"#utility.yul\":20221:20352   */\n      tag_377\n      jump\t// in\n    tag_458:\n        /* \"#utility.yul\":20213:20352   */\n      swap1\n      pop\n        /* \"#utility.yul\":19940:20359   */\n      swap2\n      swap1\n      pop\n      jump\t// out\n        /* \"#utility.yul\":20365:20784   */\n    tag_152:\n        /* \"#utility.yul\":20531:20535   */\n      0x00\n        /* \"#utility.yul\":20569:20571   */\n      0x20\n        /* \"#utility.yul\":20558:20567   */\n      dup3\n        /* \"#utility.yul\":20554:20572   */\n      add\n        /* \"#utility.yul\":20546:20572   */\n      swap1\n      pop\n        /* \"#utility.yul\":20618:20627   */\n      dup2\n        /* \"#utility.yul\":20612:20616   */\n      dup2\n        /* \"#utility.yul\":20608:20628   */\n      sub\n        /* \"#utility.yul\":20604:20605   */\n      0x00\n        /* \"#utility.yul\":20593:20602   */\n      dup4\n        /* \"#utility.yul\":20589:20606   */\n      add\n        /* \"#utility.yul\":20582:20629   */\n      mstore\n        /* \"#utility.yul\":20646:20777   */\n      tag_460\n        /* \"#utility.yul\":20772:20776   */\n      dup2\n        /* \"#utility.yul\":20646:20777   */\n      tag_382\n      jump\t// in\n    tag_460:\n        /* \"#utility.yul\":20638:20777   */\n      swap1\n      pop\n        /* \"#utility.yul\":20365:20784   */\n      swap2\n      swap1\n      pop\n      jump\t// out\n        /* \"#utility.yul\":20790:21209   */\n    tag_71:\n        /* \"#utility.yul\":20929:20933   */\n      0x00\n        /* \"#utility.yul\":20967:20969   */\n      0x40\n        /* \"#utility.yul\":20956:20965   */\n      dup3\n        /* \"#utility.yul\":20952:20970   */\n      add\n        /* \"#utility.yul\":20944:20970   */\n      swap1\n      pop\n        /* \"#utility.yul\":20980:21049   */\n      tag_462\n        /* \"#utility.yul\":21046:21047   */\n      0x00\n        /* \"#utility.yul\":21035:21044   */\n      dup4\n        /* \"#utility.yul\":21031:21048   */\n      add\n        /* \"#utility.yul\":21022:21028   */\n      dup6\n        /* \"#utility.yul\":20980:21049   */\n      tag_395\n      jump\t// in\n    tag_462:\n        /* \"#utility.yul\":21096:21105   */\n      dup2\n        /* \"#utility.yul\":21090:21094   */\n      dup2\n        /* \"#utility.yul\":21086:21106   */\n      sub\n        /* \"#utility.yul\":21081:21083   */\n      0x20\n        /* \"#utility.yul\":21070:21079   */\n      dup4\n        /* \"#utility.yul\":21066:21084   */\n      add\n        /* \"#utility.yul\":21059:21107   */\n      mstore\n        /* \"#utility.yul\":21124:21202   */\n      tag_463\n        /* \"#utility.yul\":21197:21201   */\n      dup2\n        /* \"#utility.yul\":21188:21194   */\n      dup5\n        /* \"#utility.yul\":21124:21202   */\n      tag_317\n      jump\t// in\n    tag_463:\n        /* \"#utility.yul\":21116:21202   */\n      swap1\n      pop\n        /* \"#utility.yul\":20790:21209   */\n      swap4\n      swap3\n      pop\n      pop\n      pop\n      jump\t// out\n        /* \"#utility.yul\":21215:21344   */\n    tag_229:\n        /* \"#utility.yul\":21249:21255   */\n      0x00\n        /* \"#utility.yul\":21276:21296   */\n      tag_465\n      tag_466\n      jump\t// in\n    tag_465:\n        /* \"#utility.yul\":21266:21296   */\n      swap1\n      pop\n        /* \"#utility.yul\":21305:21338   */\n      tag_467\n        /* \"#utility.yul\":21333:21337   */\n      dup3\n        /* \"#utility.yul\":21325:21331   */\n      dup3\n        /* \"#utility.yul\":21305:21338   */\n      tag_468\n      jump\t// in\n    tag_467:\n        /* \"#utility.yul\":21215:21344   */\n      swap2\n      swap1\n      pop\n      jump\t// out\n        /* \"#utility.yul\":21350:21425   */\n    tag_466:\n        /* \"#utility.yul\":21383:21389   */\n      0x00\n        /* \"#utility.yul\":21416:21418   */\n      0x40\n        /* \"#utility.yul\":21410:21419   */\n      mload\n        /* \"#utility.yul\":21400:21419   */\n      swap1\n      pop\n        /* \"#utility.yul\":21350:21425   */\n      swap1\n      jump\t// out\n        /* \"#utility.yul\":21431:21739   */\n    tag_228:\n        /* \"#utility.yul\":21493:21497   */\n      0x00\n        /* \"#utility.yul\":21583:21601   */\n      0xffffffffffffffff\n        /* \"#utility.yul\":21575:21581   */\n      dup3\n        /* \"#utility.yul\":21572:21602   */\n      gt\n        /* \"#utility.yul\":21569:21625   */\n      iszero\n      tag_471\n      jumpi\n        /* \"#utility.yul\":21605:21623   */\n      tag_472\n      tag_473\n      jump\t// in\n    tag_472:\n        /* \"#utility.yul\":21569:21625   */\n    tag_471:\n        /* \"#utility.yul\":21643:21672   */\n      tag_474\n        /* \"#utility.yul\":21665:21671   */\n      dup3\n        /* \"#utility.yul\":21643:21672   */\n      tag_326\n      jump\t// in\n    tag_474:\n        /* \"#utility.yul\":21635:21672   */\n      swap1\n      pop\n        /* \"#utility.yul\":21727:21731   */\n      0x20\n        /* \"#utility.yul\":21721:21725   */\n      dup2\n        /* \"#utility.yul\":21717:21732   */\n      add\n        /* \"#utility.yul\":21709:21732   */\n      swap1\n      pop\n        /* \"#utility.yul\":21431:21739   */\n      swap2\n      swap1\n      pop\n      jump\t// out\n        /* \"#utility.yul\":21745:21844   */\n    tag_320:\n        /* \"#utility.yul\":21797:21803   */\n      0x00\n        /* \"#utility.yul\":21831:21836   */\n      dup2\n        /* \"#utility.yul\":21825:21837   */\n      mload\n        /* \"#utility.yul\":21815:21837   */\n      swap1\n      pop\n        /* \"#utility.yul\":21745:21844   */\n      swap2\n      swap1\n      pop\n      jump\t// out\n        /* \"#utility.yul\":21850:22019   */\n    tag_322:\n        /* \"#utility.yul\":21934:21945   */\n      0x00\n        /* \"#utility.yul\":21968:21974   */\n      dup3\n        /* \"#utility.yul\":21963:21966   */\n      dup3\n        /* \"#utility.yul\":21956:21975   */\n      mstore\n        /* \"#utility.yul\":22008:22012   */\n      0x20\n        /* \"#utility.yul\":22003:22006   */\n      dup3\n        /* \"#utility.yul\":21999:22013   */\n      add\n        /* \"#utility.yul\":21984:22013   */\n      swap1\n      pop\n        /* \"#utility.yul\":21850:22019   */\n      swap3\n      swap2\n      pop\n      pop\n      jump\t// out\n        /* \"#utility.yul\":22025:22121   */\n    tag_308:\n        /* \"#utility.yul\":22062:22069   */\n      0x00\n        /* \"#utility.yul\":22091:22115   */\n      tag_478\n        /* \"#utility.yul\":22109:22114   */\n      dup3\n        /* \"#utility.yul\":22091:22115   */\n      tag_479\n      jump\t// in\n    tag_478:\n        /* \"#utility.yul\":22080:22115   */\n      swap1\n      pop\n        /* \"#utility.yul\":22025:22121   */\n      swap2\n      swap1\n      pop\n      jump\t// out\n        /* \"#utility.yul\":22127:22217   */\n    tag_312:\n        /* \"#utility.yul\":22161:22168   */\n      0x00\n        /* \"#utility.yul\":22204:22209   */\n      dup2\n        /* \"#utility.yul\":22197:22210   */\n      iszero\n        /* \"#utility.yul\":22190:22211   */\n      iszero\n        /* \"#utility.yul\":22179:22211   */\n      swap1\n      pop\n        /* \"#utility.yul\":22127:22217   */\n      swap2\n      swap1\n      pop\n      jump\t// out\n        /* \"#utility.yul\":22223:22350   */\n    tag_481:\n        /* \"#utility.yul\":22268:22275   */\n      0x00\n        /* \"#utility.yul\":22297:22302   */\n      dup2\n        /* \"#utility.yul\":22286:22302   */\n      swap1\n      pop\n        /* \"#utility.yul\":22303:22344   */\n      tag_483\n        /* \"#utility.yul\":22338:22343   */\n      dup3\n        /* \"#utility.yul\":22303:22344   */\n      tag_484\n      jump\t// in\n    tag_483:\n        /* \"#utility.yul\":22223:22350   */\n      swap2\n      swap1\n      pop\n      jump\t// out\n        /* \"#utility.yul\":22356:22445   */\n    tag_390:\n        /* \"#utility.yul\":22392:22399   */\n      0x00\n        /* \"#utility.yul\":22432:22438   */\n      0xffff\n        /* \"#utility.yul\":22425:22430   */\n      dup3\n        /* \"#utility.yul\":22421:22439   */\n      and\n        /* \"#utility.yul\":22410:22439   */\n      swap1\n      pop\n        /* \"#utility.yul\":22356:22445   */\n      swap2\n      swap1\n      pop\n      jump\t// out\n        /* \"#utility.yul\":22451:22577   */\n    tag_479:\n        /* \"#utility.yul\":22488:22495   */\n      0x00\n        /* \"#utility.yul\":22528:22570   */\n      0xffffffffffffffffffffffffffffffffffffffff\n        /* \"#utility.yul\":22521:22526   */\n      dup3\n        /* \"#utility.yul\":22517:22571   */\n      and\n        /* \"#utility.yul\":22506:22571   */\n      swap1\n      pop\n        /* \"#utility.yul\":22451:22577   */\n      swap2\n      swap1\n      pop\n      jump\t// out\n        /* \"#utility.yul\":22583:22660   */\n    tag_394:\n        /* \"#utility.yul\":22620:22627   */\n      0x00\n        /* \"#utility.yul\":22649:22654   */\n      dup2\n        /* \"#utility.yul\":22638:22654   */\n      swap1\n      pop\n        /* \"#utility.yul\":22583:22660   */\n      swap2\n      swap1\n      pop\n      jump\t// out\n        /* \"#utility.yul\":22666:22759   */\n    tag_398:\n        /* \"#utility.yul\":22702:22709   */\n      0x00\n        /* \"#utility.yul\":22742:22752   */\n      0xffffffff\n        /* \"#utility.yul\":22735:22740   */\n      dup3\n        /* \"#utility.yul\":22731:22753   */\n      and\n        /* \"#utility.yul\":22720:22753   */\n      swap1\n      pop\n        /* \"#utility.yul\":22666:22759   */\n      swap2\n      swap1\n      pop\n      jump\t// out\n        /* \"#utility.yul\":22765:22851   */\n    tag_402:\n        /* \"#utility.yul\":22800:22807   */\n      0x00\n        /* \"#utility.yul\":22840:22844   */\n      0xff\n        /* \"#utility.yul\":22833:22838   */\n      dup3\n        /* \"#utility.yul\":22829:22845   */\n      and\n        /* \"#utility.yul\":22818:22845   */\n      swap1\n      pop\n        /* \"#utility.yul\":22765:22851   */\n      swap2\n      swap1\n      pop\n      jump\t// out\n        /* \"#utility.yul\":22857:22984   */\n    tag_316:\n        /* \"#utility.yul\":22913:22922   */\n      0x00\n        /* \"#utility.yul\":22946:22978   */\n      tag_491\n        /* \"#utility.yul\":22972:22977   */\n      dup3\n        /* \"#utility.yul\":22946:22978   */\n      tag_481\n      jump\t// in\n    tag_491:\n        /* \"#utility.yul\":22933:22978   */\n      swap1\n      pop\n        /* \"#utility.yul\":22857:22984   */\n      swap2\n      swap1\n      pop\n      jump\t// out\n        /* \"#utility.yul\":22990:23144   */\n    tag_234:\n        /* \"#utility.yul\":23074:23080   */\n      dup3\n        /* \"#utility.yul\":23069:23072   */\n      dup2\n        /* \"#utility.yul\":23064:23067   */\n      dup4\n        /* \"#utility.yul\":23051:23081   */\n      calldatacopy\n        /* \"#utility.yul\":23136:23137   */\n      0x00\n        /* \"#utility.yul\":23127:23133   */\n      dup4\n        /* \"#utility.yul\":23122:23125   */\n      dup4\n        /* \"#utility.yul\":23118:23134   */\n      add\n        /* \"#utility.yul\":23111:23138   */\n      mstore\n        /* \"#utility.yul\":22990:23144   */\n      pop\n      pop\n      pop\n      jump\t// out\n        /* \"#utility.yul\":23150:23457   */\n    tag_324:\n        /* \"#utility.yul\":23218:23219   */\n      0x00\n        /* \"#utility.yul\":23228:23341   */\n    tag_494:\n        /* \"#utility.yul\":23242:23248   */\n      dup4\n        /* \"#utility.yul\":23239:23240   */\n      dup2\n        /* \"#utility.yul\":23236:23249   */\n      lt\n        /* \"#utility.yul\":23228:23341   */\n      iszero\n      tag_496\n      jumpi\n        /* \"#utility.yul\":23327:23328   */\n      dup1\n        /* \"#utility.yul\":23322:23325   */\n      dup3\n        /* \"#utility.yul\":23318:23329   */\n      add\n        /* \"#utility.yul\":23312:23330   */\n      mload\n        /* \"#utility.yul\":23308:23309   */\n      dup2\n        /* \"#utility.yul\":23303:23306   */\n      dup5\n        /* \"#utility.yul\":23299:23310   */\n      add\n        /* \"#utility.yul\":23292:23331   */\n      mstore\n        /* \"#utility.yul\":23264:23266   */\n      0x20\n        /* \"#utility.yul\":23261:23262   */\n      dup2\n        /* \"#utility.yul\":23257:23267   */\n      add\n        /* \"#utility.yul\":23252:23267   */\n      swap1\n      pop\n        /* \"#utility.yul\":23228:23341   */\n      jump(tag_494)\n    tag_496:\n        /* \"#utility.yul\":23359:23365   */\n      dup4\n        /* \"#utility.yul\":23356:23357   */\n      dup2\n        /* \"#utility.yul\":23353:23366   */\n      gt\n        /* \"#utility.yul\":23350:23451   */\n      iszero\n      tag_497\n      jumpi\n        /* \"#utility.yul\":23439:23440   */\n      0x00\n        /* \"#utility.yul\":23430:23436   */\n      dup5\n        /* \"#utility.yul\":23425:23428   */\n      dup5\n        /* \"#utility.yul\":23421:23437   */\n      add\n        /* \"#utility.yul\":23414:23441   */\n      mstore\n        /* \"#utility.yul\":23350:23451   */\n    tag_497:\n        /* \"#utility.yul\":23199:23457   */\n      pop\n        /* \"#utility.yul\":23150:23457   */\n      pop\n      pop\n      pop\n      jump\t// out\n        /* \"#utility.yul\":23463:23783   */\n    tag_112:\n        /* \"#utility.yul\":23507:23513   */\n      0x00\n        /* \"#utility.yul\":23544:23545   */\n      0x02\n        /* \"#utility.yul\":23538:23542   */\n      dup3\n        /* \"#utility.yul\":23534:23546   */\n      div\n        /* \"#utility.yul\":23524:23546   */\n      swap1\n      pop\n        /* \"#utility.yul\":23591:23592   */\n      0x01\n        /* \"#utility.yul\":23585:23589   */\n      dup3\n        /* \"#utility.yul\":23581:23593   */\n      and\n        /* \"#utility.yul\":23612:23630   */\n      dup1\n        /* \"#utility.yul\":23602:23683   */\n      tag_499\n      jumpi\n        /* \"#utility.yul\":23668:23672   */\n      0x7f\n        /* \"#utility.yul\":23660:23666   */\n      dup3\n        /* \"#utility.yul\":23656:23673   */\n      and\n        /* \"#utility.yul\":23646:23673   */\n      swap2\n      pop\n        /* \"#utility.yul\":23602:23683   */\n    tag_499:\n        /* \"#utility.yul\":23730:23732   */\n      0x20\n        /* \"#utility.yul\":23722:23728   */\n      dup3\n        /* \"#utility.yul\":23719:23733   */\n      lt\n        /* \"#utility.yul\":23699:23717   */\n      dup2\n        /* \"#utility.yul\":23696:23734   */\n      eq\n        /* \"#utility.yul\":23693:23777   */\n      iszero\n      tag_500\n      jumpi\n        /* \"#utility.yul\":23749:23767   */\n      tag_501\n      tag_502\n      jump\t// in\n    tag_501:\n        /* \"#utility.yul\":23693:23777   */\n    tag_500:\n        /* \"#utility.yul\":23514:23783   */\n      pop\n        /* \"#utility.yul\":23463:23783   */\n      swap2\n      swap1\n      pop\n      jump\t// out\n        /* \"#utility.yul\":23789:24070   */\n    tag_468:\n        /* \"#utility.yul\":23872:23899   */\n      tag_504\n        /* \"#utility.yul\":23894:23898   */\n      dup3\n        /* \"#utility.yul\":23872:23899   */\n      tag_326\n      jump\t// in\n    tag_504:\n        /* \"#utility.yul\":23864:23870   */\n      dup2\n        /* \"#utility.yul\":23860:23900   */\n      add\n        /* \"#utility.yul\":24002:24008   */\n      dup2\n        /* \"#utility.yul\":23990:24000   */\n      dup2\n        /* \"#utility.yul\":23987:24009   */\n      lt\n        /* \"#utility.yul\":23966:23984   */\n      0xffffffffffffffff\n        /* \"#utility.yul\":23954:23964   */\n      dup3\n        /* \"#utility.yul\":23951:23985   */\n      gt\n        /* \"#utility.yul\":23948:24010   */\n      or\n        /* \"#utility.yul\":23945:24033   */\n      iszero\n      tag_505\n      jumpi\n        /* \"#utility.yul\":24013:24031   */\n      tag_506\n      tag_473\n      jump\t// in\n    tag_506:\n        /* \"#utility.yul\":23945:24033   */\n    tag_505:\n        /* \"#utility.yul\":24053:24063   */\n      dup1\n        /* \"#utility.yul\":24049:24051   */\n      0x40\n        /* \"#utility.yul\":24042:24064   */\n      mstore\n        /* \"#utility.yul\":23832:24070   */\n      pop\n        /* \"#utility.yul\":23789:24070   */\n      pop\n      pop\n      jump\t// out\n        /* \"#utility.yul\":24076:24256   */\n    tag_129:\n        /* \"#utility.yul\":24124:24201   */\n      0x4e487b7100000000000000000000000000000000000000000000000000000000\n        /* \"#utility.yul\":24121:24122   */\n      0x00\n        /* \"#utility.yul\":24114:24202   */\n      mstore\n        /* \"#utility.yul\":24221:24225   */\n      0x21\n        /* \"#utility.yul\":24218:24219   */\n      0x04\n        /* \"#utility.yul\":24211:24226   */\n      mstore\n        /* \"#utility.yul\":24245:24249   */\n      0x24\n        /* \"#utility.yul\":24242:24243   */\n      0x00\n        /* \"#utility.yul\":24235:24250   */\n      revert\n        /* \"#utility.yul\":24262:24442   */\n    tag_502:\n        /* \"#utility.yul\":24310:24387   */\n      0x4e487b7100000000000000000000000000000000000000000000000000000000\n        /* \"#utility.yul\":24307:24308   */\n      0x00\n        /* \"#utility.yul\":24300:24388   */\n      mstore\n        /* \"#utility.yul\":24407:24411   */\n      0x22\n        /* \"#utility.yul\":24404:24405   */\n      0x04\n        /* \"#utility.yul\":24397:24412   */\n      mstore\n        /* \"#utility.yul\":24431:24435   */\n      0x24\n        /* \"#utility.yul\":24428:24429   */\n      0x00\n        /* \"#utility.yul\":24421:24436   */\n      revert\n        /* \"#utility.yul\":24448:24628   */\n    tag_473:\n        /* \"#utility.yul\":24496:24573   */\n      0x4e487b7100000000000000000000000000000000000000000000000000000000\n        /* \"#utility.yul\":24493:24494   */\n      0x00\n        /* \"#utility.yul\":24486:24574   */\n      mstore\n        /* \"#utility.yul\":24593:24597   */\n      0x41\n        /* \"#utility.yul\":24590:24591   */\n      0x04\n        /* \"#utility.yul\":24583:24598   */\n      mstore\n        /* \"#utility.yul\":24617:24621   */\n      0x24\n        /* \"#utility.yul\":24614:24615   */\n      0x00\n        /* \"#utility.yul\":24607:24622   */\n      revert\n        /* \"#utility.yul\":24634:24751   */\n    tag_247:\n        /* \"#utility.yul\":24743:24744   */\n      0x00\n        /* \"#utility.yul\":24740:24741   */\n      dup1\n        /* \"#utility.yul\":24733:24745   */\n      revert\n        /* \"#utility.yul\":24757:24874   */\n    tag_232:\n        /* \"#utility.yul\":24866:24867   */\n      0x00\n        /* \"#utility.yul\":24863:24864   */\n      dup1\n        /* \"#utility.yul\":24856:24868   */\n      revert\n        /* \"#utility.yul\":24880:24997   */\n    tag_277:\n        /* \"#utility.yul\":24989:24990   */\n      0x00\n        /* \"#utility.yul\":24986:24987   */\n      dup1\n        /* \"#utility.yul\":24979:24991   */\n      revert\n        /* \"#utility.yul\":25003:25120   */\n    tag_268:\n        /* \"#utility.yul\":25112:25113   */\n      0x00\n        /* \"#utility.yul\":25109:25110   */\n      dup1\n        /* \"#utility.yul\":25102:25114   */\n      revert\n        /* \"#utility.yul\":25126:25228   */\n    tag_326:\n        /* \"#utility.yul\":25167:25173   */\n      0x00\n        /* \"#utility.yul\":25218:25220   */\n      0x1f\n        /* \"#utility.yul\":25214:25221   */\n      not\n        /* \"#utility.yul\":25209:25211   */\n      0x1f\n        /* \"#utility.yul\":25202:25207   */\n      dup4\n        /* \"#utility.yul\":25198:25212   */\n      add\n        /* \"#utility.yul\":25194:25222   */\n      and\n        /* \"#utility.yul\":25184:25222   */\n      swap1\n      pop\n        /* \"#utility.yul\":25126:25228   */\n      swap2\n      swap1\n      pop\n      jump\t// out\n        /* \"#utility.yul\":25234:25415   */\n    tag_331:\n        /* \"#utility.yul\":25374:25407   */\n      0x53616465636520594f4b2062752069736c656d69207961706162696c69722e00\n        /* \"#utility.yul\":25370:25371   */\n      0x00\n        /* \"#utility.yul\":25362:25368   */\n      dup3\n        /* \"#utility.yul\":25358:25372   */\n      add\n        /* \"#utility.yul\":25351:25408   */\n      mstore\n        /* \"#utility.yul\":25234:25415   */\n      pop\n      jump\t// out\n        /* \"#utility.yul\":25421:25595   */\n    tag_336:\n        /* \"#utility.yul\":25561:25587   */\n      0x4b616d75204b7572756d75205a6174656e204d65766375740000000000000000\n        /* \"#utility.yul\":25557:25558   */\n      0x00\n        /* \"#utility.yul\":25549:25555   */\n      dup3\n        /* \"#utility.yul\":25545:25559   */\n      add\n        /* \"#utility.yul\":25538:25588   */\n      mstore\n        /* \"#utility.yul\":25421:25595   */\n      pop\n      jump\t// out\n        /* \"#utility.yul\":25601:25769   */\n    tag_341:\n        /* \"#utility.yul\":25741:25761   */\n      0x4669726d61205a6174656e204d65766375740000000000000000000000000000\n        /* \"#utility.yul\":25737:25738   */\n      0x00\n        /* \"#utility.yul\":25729:25735   */\n      dup3\n        /* \"#utility.yul\":25725:25739   */\n      add\n        /* \"#utility.yul\":25718:25762   */\n      mstore\n        /* \"#utility.yul\":25601:25769   */\n      pop\n      jump\t// out\n        /* \"#utility.yul\":25775:25955   */\n    tag_346:\n        /* \"#utility.yul\":25915:25947   */\n      0x5361646563652043422062752069736c656d69207961706162696c69722e0000\n        /* \"#utility.yul\":25911:25912   */\n      0x00\n        /* \"#utility.yul\":25903:25909   */\n      dup3\n        /* \"#utility.yul\":25899:25913   */\n      add\n        /* \"#utility.yul\":25892:25948   */\n      mstore\n        /* \"#utility.yul\":25775:25955   */\n      pop\n      jump\t// out\n        /* \"#utility.yul\":25961:26141   */\n    tag_351:\n        /* \"#utility.yul\":26101:26133   */\n      0x536572746966696b61204d65726b657a69205a6174656e204d65766375740000\n        /* \"#utility.yul\":26097:26098   */\n      0x00\n        /* \"#utility.yul\":26089:26095   */\n      dup3\n        /* \"#utility.yul\":26085:26099   */\n      add\n        /* \"#utility.yul\":26078:26134   */\n      mstore\n        /* \"#utility.yul\":25961:26141   */\n      pop\n      jump\t// out\n        /* \"#utility.yul\":26147:26368   */\n    tag_356:\n        /* \"#utility.yul\":26287:26321   */\n      0x536976696c20546f706c756d204b7572756c757375205a6174656e204d657663\n        /* \"#utility.yul\":26283:26284   */\n      0x00\n        /* \"#utility.yul\":26275:26281   */\n      dup3\n        /* \"#utility.yul\":26271:26285   */\n      add\n        /* \"#utility.yul\":26264:26322   */\n      mstore\n        /* \"#utility.yul\":26356:26360   */\n      0x7574000000000000000000000000000000000000000000000000000000000000\n        /* \"#utility.yul\":26351:26353   */\n      0x20\n        /* \"#utility.yul\":26343:26349   */\n      dup3\n        /* \"#utility.yul\":26339:26354   */\n      add\n        /* \"#utility.yul\":26332:26361   */\n      mstore\n        /* \"#utility.yul\":26147:26368   */\n      pop\n      jump\t// out\n        /* \"#utility.yul\":26374:26547   */\n    tag_361:\n        /* \"#utility.yul\":26514:26539   */\n      0x556e6976657273697465205a6174656e204d6576637574000000000000000000\n        /* \"#utility.yul\":26510:26511   */\n      0x00\n        /* \"#utility.yul\":26502:26508   */\n      dup3\n        /* \"#utility.yul\":26498:26512   */\n      add\n        /* \"#utility.yul\":26491:26540   */\n      mstore\n        /* \"#utility.yul\":26374:26547   */\n      pop\n      jump\t// out\n        /* \"#utility.yul\":26553:26778   */\n    tag_366:\n        /* \"#utility.yul\":26693:26727   */\n      0x53616465636520556e69766572736974652062752069736c656d692079617061\n        /* \"#utility.yul\":26689:26690   */\n      0x00\n        /* \"#utility.yul\":26681:26687   */\n      dup3\n        /* \"#utility.yul\":26677:26691   */\n      add\n        /* \"#utility.yul\":26670:26728   */\n      mstore\n        /* \"#utility.yul\":26762:26770   */\n      0x62696c69722e0000000000000000000000000000000000000000000000000000\n        /* \"#utility.yul\":26757:26759   */\n      0x20\n        /* \"#utility.yul\":26749:26755   */\n      dup3\n        /* \"#utility.yul\":26745:26760   */\n      add\n        /* \"#utility.yul\":26738:26771   */\n      mstore\n        /* \"#utility.yul\":26553:26778   */\n      pop\n      jump\t// out\n        /* \"#utility.yul\":26784:26958   */\n    tag_371:\n        /* \"#utility.yul\":26924:26950   */\n      0x416b6164656d697379656e205a6174656e204d65766375740000000000000000\n        /* \"#utility.yul\":26920:26921   */\n      0x00\n        /* \"#utility.yul\":26912:26918   */\n      dup3\n        /* \"#utility.yul\":26908:26922   */\n      add\n        /* \"#utility.yul\":26901:26951   */\n      mstore\n        /* \"#utility.yul\":26784:26958   */\n      pop\n      jump\t// out\n        /* \"#utility.yul\":26964:27137   */\n    tag_376:\n        /* \"#utility.yul\":27104:27129   */\n      0x4b616d75204b75726d75205a6174656e204d6576637574000000000000000000\n        /* \"#utility.yul\":27100:27101   */\n      0x00\n        /* \"#utility.yul\":27092:27098   */\n      dup3\n        /* \"#utility.yul\":27088:27102   */\n      add\n        /* \"#utility.yul\":27081:27130   */\n      mstore\n        /* \"#utility.yul\":26964:27137   */\n      pop\n      jump\t// out\n        /* \"#utility.yul\":27143:27325   */\n    tag_381:\n        /* \"#utility.yul\":27283:27317   */\n      0x53616465636520544f42422062752069736c656d69207961706162696c69722e\n        /* \"#utility.yul\":27279:27280   */\n      0x00\n        /* \"#utility.yul\":27271:27277   */\n      dup3\n        /* \"#utility.yul\":27267:27281   */\n      add\n        /* \"#utility.yul\":27260:27318   */\n      mstore\n        /* \"#utility.yul\":27143:27325   */\n      pop\n      jump\t// out\n        /* \"#utility.yul\":27331:27513   */\n    tag_386:\n        /* \"#utility.yul\":27471:27505   */\n      0x42752069736c656d6920736164656365204b757273207961706162696c69722e\n        /* \"#utility.yul\":27467:27468   */\n      0x00\n        /* \"#utility.yul\":27459:27465   */\n      dup3\n        /* \"#utility.yul\":27455:27469   */\n      add\n        /* \"#utility.yul\":27448:27506   */\n      mstore\n        /* \"#utility.yul\":27331:27513   */\n      pop\n      jump\t// out\n        /* \"#utility.yul\":27519:27632   */\n    tag_484:\n        /* \"#utility.yul\":27600:27601   */\n      0x04\n        /* \"#utility.yul\":27593:27598   */\n      dup2\n        /* \"#utility.yul\":27590:27602   */\n      lt\n        /* \"#utility.yul\":27580:27626   */\n      tag_528\n      jumpi\n        /* \"#utility.yul\":27606:27624   */\n      tag_529\n      tag_129\n      jump\t// in\n    tag_529:\n        /* \"#utility.yul\":27580:27626   */\n    tag_528:\n        /* \"#utility.yul\":27519:27632   */\n      pop\n      jump\t// out\n        /* \"#utility.yul\":27638:27760   */\n    tag_238:\n        /* \"#utility.yul\":27711:27735   */\n      tag_531\n        /* \"#utility.yul\":27729:27734   */\n      dup2\n        /* \"#utility.yul\":27711:27735   */\n      tag_308\n      jump\t// in\n    tag_531:\n        /* \"#utility.yul\":27704:27709   */\n      dup2\n        /* \"#utility.yul\":27701:27736   */\n      eq\n        /* \"#utility.yul\":27691:27754   */\n      tag_532\n      jumpi\n        /* \"#utility.yul\":27750:27751   */\n      0x00\n        /* \"#utility.yul\":27747:27748   */\n      dup1\n        /* \"#utility.yul\":27740:27752   */\n      revert\n        /* \"#utility.yul\":27691:27754   */\n    tag_532:\n        /* \"#utility.yul\":27638:27760   */\n      pop\n      jump\t// out\n        /* \"#utility.yul\":27766:27873   */\n    tag_242:\n        /* \"#utility.yul\":27847:27848   */\n      0x04\n        /* \"#utility.yul\":27840:27845   */\n      dup2\n        /* \"#utility.yul\":27837:27849   */\n      lt\n        /* \"#utility.yul\":27827:27867   */\n      tag_534\n      jumpi\n        /* \"#utility.yul\":27863:27864   */\n      0x00\n        /* \"#utility.yul\":27860:27861   */\n      dup1\n        /* \"#utility.yul\":27853:27865   */\n      revert\n        /* \"#utility.yul\":27827:27867   */\n    tag_534:\n        /* \"#utility.yul\":27766:27873   */\n      pop\n      jump\t// out\n        /* \"#utility.yul\":27879:27999   */\n    tag_252:\n        /* \"#utility.yul\":27951:27974   */\n      tag_536\n        /* \"#utility.yul\":27968:27973   */\n      dup2\n        /* \"#utility.yul\":27951:27974   */\n      tag_390\n      jump\t// in\n    tag_536:\n        /* \"#utility.yul\":27944:27949   */\n      dup2\n        /* \"#utility.yul\":27941:27975   */\n      eq\n        /* \"#utility.yul\":27931:27993   */\n      tag_537\n      jumpi\n        /* \"#utility.yul\":27989:27990   */\n      0x00\n        /* \"#utility.yul\":27986:27987   */\n      dup1\n        /* \"#utility.yul\":27979:27991   */\n      revert\n        /* \"#utility.yul\":27931:27993   */\n    tag_537:\n        /* \"#utility.yul\":27879:27999   */\n      pop\n      jump\t// out\n        /* \"#utility.yul\":28005:28127   */\n    tag_256:\n        /* \"#utility.yul\":28078:28102   */\n      tag_539\n        /* \"#utility.yul\":28096:28101   */\n      dup2\n        /* \"#utility.yul\":28078:28102   */\n      tag_394\n      jump\t// in\n    tag_539:\n        /* \"#utility.yul\":28071:28076   */\n      dup2\n        /* \"#utility.yul\":28068:28103   */\n      eq\n        /* \"#utility.yul\":28058:28121   */\n      tag_540\n      jumpi\n        /* \"#utility.yul\":28117:28118   */\n      0x00\n        /* \"#utility.yul\":28114:28115   */\n      dup1\n        /* \"#utility.yul\":28107:28119   */\n      revert\n        /* \"#utility.yul\":28058:28121   */\n    tag_540:\n        /* \"#utility.yul\":28005:28127   */\n      pop\n      jump\t// out\n        /* \"#utility.yul\":28133:28253   */\n    tag_260:\n        /* \"#utility.yul\":28205:28228   */\n      tag_542\n        /* \"#utility.yul\":28222:28227   */\n      dup2\n        /* \"#utility.yul\":28205:28228   */\n      tag_398\n      jump\t// in\n    tag_542:\n        /* \"#utility.yul\":28198:28203   */\n      dup2\n        /* \"#utility.yul\":28195:28229   */\n      eq\n        /* \"#utility.yul\":28185:28247   */\n      tag_543\n      jumpi\n        /* \"#utility.yul\":28243:28244   */\n      0x00\n        /* \"#utility.yul\":28240:28241   */\n      dup1\n        /* \"#utility.yul\":28233:28245   */\n      revert\n        /* \"#utility.yul\":28185:28247   */\n    tag_543:\n        /* \"#utility.yul\":28133:28253   */\n      pop\n      jump\t// out\n        /* \"#utility.yul\":28259:28377   */\n    tag_264:\n        /* \"#utility.yul\":28330:28352   */\n      tag_545\n        /* \"#utility.yul\":28346:28351   */\n      dup2\n        /* \"#utility.yul\":28330:28352   */\n      tag_402\n      jump\t// in\n    tag_545:\n        /* \"#utility.yul\":28323:28328   */\n      dup2\n        /* \"#utility.yul\":28320:28353   */\n      eq\n        /* \"#utility.yul\":28310:28371   */\n      tag_546\n      jumpi\n        /* \"#utility.yul\":28367:28368   */\n      0x00\n        /* \"#utility.yul\":28364:28365   */\n      dup1\n        /* \"#utility.yul\":28357:28369   */\n      revert\n        /* \"#utility.yul\":28310:28371   */\n    tag_546:\n        /* \"#utility.yul\":28259:28377   */\n      pop\n      jump\t// out\n\n    auxdata: 0xa2646970667358221220d3d834f0fa01c5e5b30657570b4c738dd5921f02956cd91d3a44d722f28d5f7364736f6c63430008070033\n}\n",
				"bytecode": {
					"linkReferences": {},
					"object": "60806040523480156200001157600080fd5b5060405162002e7238038062002e72833981810160405281019062000037919062000119565b826000806101000a81548173ffffffffffffffffffffffffffffffffffffffff021916908373ffffffffffffffffffffffffffffffffffffffff16021790555081600160006101000a81548173ffffffffffffffffffffffffffffffffffffffff021916908373ffffffffffffffffffffffffffffffffffffffff16021790555080600260006101000a81548173ffffffffffffffffffffffffffffffffffffffff021916908373ffffffffffffffffffffffffffffffffffffffff160217905550505050620001c8565b6000815190506200011381620001ae565b92915050565b600080600060608486031215620001355762000134620001a9565b5b6000620001458682870162000102565b9350506020620001588682870162000102565b92505060406200016b8682870162000102565b9150509250925092565b6000620001828262000189565b9050919050565b600073ffffffffffffffffffffffffffffffffffffffff82169050919050565b600080fd5b620001b98162000175565b8114620001c557600080fd5b50565b612c9a80620001d86000396000f3fe608060405234801561001057600080fd5b50600436106100ff5760003560e01c80637d0fa28711610097578063ba479b7e11610066578063ba479b7e146102ee578063cbc9280914610323578063d25aab8514610353578063f63c649f1461036f576100ff565b80637d0fa2871461023d5780639a8c91191461026f5780639dc30114146102a1578063a4e7ae05146102bd576100ff565b806328266697116100d3578063282666971461018a578063356b1f1e146101bc57806339987f94146101ee5780634622485314610221576100ff565b80621d54ab1461010457806319023bf3146101205780631916e1391461013c5780631c23f0e11461016e575b600080fd5b61011e60048036038101906101199190612095565b61038b565b005b61013a60048036038101906101359190612095565b6105f6565b005b61015660048036038101906101519190611f20565b610863565b604051610165939291906124fa565b60405180910390f35b61018860048036038101906101839190611f4d565b61092f565b005b6101a4600480360381019061019f9190611f20565b610c67565b6040516101b3939291906124fa565b60405180910390f35b6101d660048036038101906101d19190611f20565b610d33565b6040516101e5939291906124fa565b60405180910390f35b61020860048036038101906102039190611f20565b610dff565b6040516102189493929190612538565b60405180910390f35b61023b60048036038101906102369190612095565b610ed1565b005b61025760048036038101906102529190611f20565b6111eb565b604051610266939291906124fa565b60405180910390f35b61028960048036038101906102849190611f20565b6112b7565b604051610298939291906124fa565b60405180910390f35b6102bb60048036038101906102b69190612095565b611383565b005b6102d760048036038101906102d29190612104565b6115f0565b6040516102e5929190612704565b60405180910390f35b61030860048036038101906103039190611f20565b6116ac565b60405161031a9695949392919061248b565b60405180910390f35b61033d60048036038101906103389190611f20565b611840565b60405161034a9190612470565b60405180910390f35b61036d60048036038101906103689190612012565b61186b565b005b61038960048036038101906103849190612095565b611b22565b005b60008054906101000a900473ffffffffffffffffffffffffffffffffffffffff1673ffffffffffffffffffffffffffffffffffffffff163373ffffffffffffffffffffffffffffffffffffffff1614610419576040517f08c379a000000000000000000000000000000000000000000000000000000000815260040161041090612584565b60405180910390fd5b600460008473ffffffffffffffffffffffffffffffffffffffff1673ffffffffffffffffffffffffffffffffffffffff16815260200190815260200160002060000160009054906101000a900460ff16156104a9576040517f08c379a00000000000000000000000000000000000000000000000000000000081526004016104a090612644565b60405180910390fd5b6001600460008573ffffffffffffffffffffffffffffffffffffffff1673ffffffffffffffffffffffffffffffffffffffff16815260200190815260200160002060000160006101000a81548160ff02191690831515021790555081600460008573ffffffffffffffffffffffffffffffffffffffff1673ffffffffffffffffffffffffffffffffffffffff168152602001908152602001600020600101908051906020019061055a929190611d8f565b5080600460008573ffffffffffffffffffffffffffffffffffffffff1673ffffffffffffffffffffffffffffffffffffffff16815260200190815260200160002060020160006101000a81548160ff021916908360ff1602179055507f750ae9c195d9b95b8c17bf0fa25801932d5a28c4871f4571af70581bc15f5bfe8383836040516105e993929190612432565b60405180910390a1505050565b600260009054906101000a900473ffffffffffffffffffffffffffffffffffffffff1673ffffffffffffffffffffffffffffffffffffffff163373ffffffffffffffffffffffffffffffffffffffff1614610686576040517f08c379a000000000000000000000000000000000000000000000000000000000815260040161067d906125e4565b60405180910390fd5b600960008473ffffffffffffffffffffffffffffffffffffffff1673ffffffffffffffffffffffffffffffffffffffff16815260200190815260200160002060000160009054906101000a900460ff1615610716576040517f08c379a000000000000000000000000000000000000000000000000000000000815260040161070d90612624565b60405180910390fd5b6001600960008573ffffffffffffffffffffffffffffffffffffffff1673ffffffffffffffffffffffffffffffffffffffff16815260200190815260200160002060000160006101000a81548160ff02191690831515021790555081600960008573ffffffffffffffffffffffffffffffffffffffff1673ffffffffffffffffffffffffffffffffffffffff16815260200190815260200160002060010190805190602001906107c7929190611d8f565b5080600960008573ffffffffffffffffffffffffffffffffffffffff1673ffffffffffffffffffffffffffffffffffffffff16815260200190815260200160002060020160006101000a81548160ff021916908360ff1602179055507f1993679d861f13477b3e16ff3b01c1c9e471e0f6f2e30a363662c257f720745083838360405161085693929190612432565b60405180910390a1505050565b60076020528060005260406000206000915090508060000160009054906101000a900460ff169080600101805461089990612880565b80601f01602080910402602001604051908101604052809291908181526020018280546108c590612880565b80156109125780601f106108e757610100808354040283529160200191610912565b820191906000526020600020905b8154815290600101906020018083116108f557829003601f168201915b5050505050908060020160009054906101000a900460ff16905083565b600460003373ffffffffffffffffffffffffffffffffffffffff1673ffffffffffffffffffffffffffffffffffffffff16815260200190815260200160002060000160009054906101000a900460ff166109be576040517f08c379a00000000000000000000000000000000000000000000000000000000081526004016109b590612664565b60405180910390fd5b600560008773ffffffffffffffffffffffffffffffffffffffff1673ffffffffffffffffffffffffffffffffffffffff16815260200190815260200160002060000160009054906101000a900460ff1615610a4e576040517f08c379a0000000000000000000000000000000000000000000000000000000008152600401610a4590612684565b60405180910390fd5b6001600560008873ffffffffffffffffffffffffffffffffffffffff1673ffffffffffffffffffffffffffffffffffffffff16815260200190815260200160002060000160006101000a81548160ff02191690831515021790555083600560008873ffffffffffffffffffffffffffffffffffffffff1673ffffffffffffffffffffffffffffffffffffffff1681526020019081526020016000206001019080519060200190610aff929190611d8f565b5082600560008873ffffffffffffffffffffffffffffffffffffffff1673ffffffffffffffffffffffffffffffffffffffff1681526020019081526020016000206002019080519060200190610b56929190611d8f565b5081600560008873ffffffffffffffffffffffffffffffffffffffff1673ffffffffffffffffffffffffffffffffffffffff16815260200190815260200160002060000160156101000a81548161ffff021916908361ffff16021790555080600560008873ffffffffffffffffffffffffffffffffffffffff1673ffffffffffffffffffffffffffffffffffffffff16815260200190815260200160002060000160176101000a81548160ff02191690836003811115610c1957610c186128e3565b5b02179055507fc9efd466d9a1950ad2164252edda662048bca360d86fe9602a80d3dadfed1754868686868686604051610c5796959493929190612377565b60405180910390a1505050505050565b60046020528060005260406000206000915090508060000160009054906101000a900460ff1690806001018054610c9d90612880565b80601f0160208091040260200160405190810160405280929190818152602001828054610cc990612880565b8015610d165780601f10610ceb57610100808354040283529160200191610d16565b820191906000526020600020905b815481529060010190602001808311610cf957829003601f168201915b5050505050908060020160009054906101000a900460ff16905083565b600a6020528060005260406000206000915090508060000160009054906101000a900460ff1690806001018054610d6990612880565b80601f0160208091040260200160405190810160405280929190818152602001828054610d9590612880565b8015610de25780601f10610db757610100808354040283529160200191610de2565b820191906000526020600020905b815481529060010190602001808311610dc557829003601f168201915b5050505050908060020160009054906101000a900460ff16905083565b60066020528060005260406000206000915090508060000160009054906101000a900460ff16908060000160019054906101000a900460ff1690806001015490806002018054610e4e90612880565b80601f0160208091040260200160405190810160405280929190818152602001828054610e7a90612880565b8015610ec75780601f10610e9c57610100808354040283529160200191610ec7565b820191906000526020600020905b815481529060010190602001808311610eaa57829003601f168201915b5050505050905084565b600460003373ffffffffffffffffffffffffffffffffffffffff1673ffffffffffffffffffffffffffffffffffffffff16815260200190815260200160002060000160009054906101000a900460ff1680610f785750600660003373ffffffffffffffffffffffffffffffffffffffff1673ffffffffffffffffffffffffffffffffffffffff16815260200190815260200160002060000160009054906101000a900460ff165b80610fcf5750600860003373ffffffffffffffffffffffffffffffffffffffff1673ffffffffffffffffffffffffffffffffffffffff16815260200190815260200160002060000160009054906101000a900460ff165b61100e576040517f08c379a0000000000000000000000000000000000000000000000000000000008152600401611005906126e4565b60405180910390fd5b600760008473ffffffffffffffffffffffffffffffffffffffff1673ffffffffffffffffffffffffffffffffffffffff16815260200190815260200160002060000160009054906101000a900460ff161561109e576040517f08c379a0000000000000000000000000000000000000000000000000000000008152600401611095906125a4565b60405180910390fd5b6001600760008573ffffffffffffffffffffffffffffffffffffffff1673ffffffffffffffffffffffffffffffffffffffff16815260200190815260200160002060000160006101000a81548160ff02191690831515021790555081600760008573ffffffffffffffffffffffffffffffffffffffff1673ffffffffffffffffffffffffffffffffffffffff168152602001908152602001600020600101908051906020019061114f929190611d8f565b5080600760008573ffffffffffffffffffffffffffffffffffffffff1673ffffffffffffffffffffffffffffffffffffffff16815260200190815260200160002060020160006101000a81548160ff021916908360ff1602179055507f6bb7b94bfdc5d1cac19e058d529aff5df791333f0bb6164d9647d8915812fb1f8383836040516111de93929190612432565b60405180910390a1505050565b60086020528060005260406000206000915090508060000160009054906101000a900460ff169080600101805461122190612880565b80601f016020809104026020016040519081016040528092919081815260200182805461124d90612880565b801561129a5780601f1061126f5761010080835404028352916020019161129a565b820191906000526020600020905b81548152906001019060200180831161127d57829003601f168201915b5050505050908060020160009054906101000a900460ff16905083565b60096020528060005260406000206000915090508060000160009054906101000a900460ff16908060010180546112ed90612880565b80601f016020809104026020016040519081016040528092919081815260200182805461131990612880565b80156113665780601f1061133b57610100808354040283529160200191611366565b820191906000526020600020905b81548152906001019060200180831161134957829003601f168201915b5050505050908060020160009054906101000a900460ff16905083565b600160009054906101000a900473ffffffffffffffffffffffffffffffffffffffff1673ffffffffffffffffffffffffffffffffffffffff163373ffffffffffffffffffffffffffffffffffffffff1614611413576040517f08c379a000000000000000000000000000000000000000000000000000000000815260040161140a906126c4565b60405180910390fd5b600a60008473ffffffffffffffffffffffffffffffffffffffff1673ffffffffffffffffffffffffffffffffffffffff16815260200190815260200160002060000160009054906101000a900460ff16156114a3576040517f08c379a000000000000000000000000000000000000000000000000000000000815260040161149a90612604565b60405180910390fd5b6001600a60008573ffffffffffffffffffffffffffffffffffffffff1673ffffffffffffffffffffffffffffffffffffffff16815260200190815260200160002060000160006101000a81548160ff02191690831515021790555081600a60008573ffffffffffffffffffffffffffffffffffffffff1673ffffffffffffffffffffffffffffffffffffffff1681526020019081526020016000206001019080519060200190611554929190611d8f565b5080600a60008573ffffffffffffffffffffffffffffffffffffffff1673ffffffffffffffffffffffffffffffffffffffff16815260200190815260200160002060020160006101000a81548160ff021916908360ff1602179055507f08f8201cceb68e4cb53475bb7a54a85f719008aee80f1291dba111a7406b20738383836040516115e393929190612432565b60405180910390a1505050565b600b6020528060005260406000206000915090508060000160009054906101000a900463ffffffff169080600101805461162990612880565b80601f016020809104026020016040519081016040528092919081815260200182805461165590612880565b80156116a25780601f10611677576101008083540402835291602001916116a2565b820191906000526020600020905b81548152906001019060200180831161168557829003601f168201915b5050505050905082565b60056020528060005260406000206000915090508060000160009054906101000a900460ff16908060000160019054906101000a900473ffffffffffffffffffffffffffffffffffffffff16908060000160159054906101000a900461ffff16908060000160179054906101000a900460ff169080600101805461172f90612880565b80601f016020809104026020016040519081016040528092919081815260200182805461175b90612880565b80156117a85780601f1061177d576101008083540402835291602001916117a8565b820191906000526020600020905b81548152906001019060200180831161178b57829003601f168201915b5050505050908060020180546117bd90612880565b80601f01602080910402602001604051908101604052809291908181526020018280546117e990612880565b80156118365780601f1061180b57610100808354040283529160200191611836565b820191906000526020600020905b81548152906001019060200180831161181957829003601f168201915b5050505050905086565b60036020528060005260406000206000915090508060000160009054906101000a900460ff16905081565b600160009054906101000a900473ffffffffffffffffffffffffffffffffffffffff1673ffffffffffffffffffffffffffffffffffffffff163373ffffffffffffffffffffffffffffffffffffffff16146118fb576040517f08c379a00000000000000000000000000000000000000000000000000000000081526004016118f2906126c4565b60405180910390fd5b600660008573ffffffffffffffffffffffffffffffffffffffff1673ffffffffffffffffffffffffffffffffffffffff16815260200190815260200160002060000160009054906101000a900460ff161561198b576040517f08c379a0000000000000000000000000000000000000000000000000000000008152600401611982906125c4565b60405180910390fd5b6001600660008673ffffffffffffffffffffffffffffffffffffffff1673ffffffffffffffffffffffffffffffffffffffff16815260200190815260200160002060000160006101000a81548160ff02191690831515021790555082600660008673ffffffffffffffffffffffffffffffffffffffff1673ffffffffffffffffffffffffffffffffffffffff1681526020019081526020016000206002019080519060200190611a3c929190611d8f565b5080600660008673ffffffffffffffffffffffffffffffffffffffff1673ffffffffffffffffffffffffffffffffffffffff16815260200190815260200160002060000160016101000a81548160ff021916908360ff16021790555081600660008673ffffffffffffffffffffffffffffffffffffffff1673ffffffffffffffffffffffffffffffffffffffff168152602001908152602001600020600101819055507f4c80d824213be57abdcc652faafea948bed864ebf9677d2a9dcb5efa217e88d684848484604051611b1494939291906123e6565b60405180910390a150505050565b600260009054906101000a900473ffffffffffffffffffffffffffffffffffffffff1673ffffffffffffffffffffffffffffffffffffffff163373ffffffffffffffffffffffffffffffffffffffff1614611bb2576040517f08c379a0000000000000000000000000000000000000000000000000000000008152600401611ba9906125e4565b60405180910390fd5b600860008473ffffffffffffffffffffffffffffffffffffffff1673ffffffffffffffffffffffffffffffffffffffff16815260200190815260200160002060000160009054906101000a900460ff1615611c42576040517f08c379a0000000000000000000000000000000000000000000000000000000008152600401611c39906126a4565b60405180910390fd5b6001600860008573ffffffffffffffffffffffffffffffffffffffff1673ffffffffffffffffffffffffffffffffffffffff16815260200190815260200160002060000160006101000a81548160ff02191690831515021790555081600860008573ffffffffffffffffffffffffffffffffffffffff1673ffffffffffffffffffffffffffffffffffffffff1681526020019081526020016000206001019080519060200190611cf3929190611d8f565b5080600860008573ffffffffffffffffffffffffffffffffffffffff1673ffffffffffffffffffffffffffffffffffffffff16815260200190815260200160002060020160006101000a81548160ff021916908360ff1602179055507f3ed49d581db34ca478f2e99aeae4b5f44d7efd3db61bf20bc6d9212bf34f4aef838383604051611d8293929190612432565b60405180910390a1505050565b828054611d9b90612880565b90600052602060002090601f016020900481019282611dbd5760008555611e04565b82601f10611dd657805160ff1916838001178555611e04565b82800160010185558215611e04579182015b82811115611e03578251825591602001919060010190611de8565b5b509050611e119190611e15565b5090565b5b80821115611e2e576000816000905550600101611e16565b5090565b6000611e45611e4084612759565b612734565b905082815260208101848484011115611e6157611e60612975565b5b611e6c84828561283e565b509392505050565b600081359050611e8381612be1565b92915050565b600081359050611e9881612bf8565b92915050565b600082601f830112611eb357611eb2612970565b5b8135611ec3848260208601611e32565b91505092915050565b600081359050611edb81612c08565b92915050565b600081359050611ef081612c1f565b92915050565b600081359050611f0581612c36565b92915050565b600081359050611f1a81612c4d565b92915050565b600060208284031215611f3657611f3561297f565b5b6000611f4484828501611e74565b91505092915050565b60008060008060008060c08789031215611f6a57611f6961297f565b5b6000611f7889828a01611e74565b9650506020611f8989828a01611e74565b955050604087013567ffffffffffffffff811115611faa57611fa961297a565b5b611fb689828a01611e9e565b945050606087013567ffffffffffffffff811115611fd757611fd661297a565b5b611fe389828a01611e9e565b9350506080611ff489828a01611ecc565b92505060a061200589828a01611e89565b9150509295509295509295565b6000806000806080858703121561202c5761202b61297f565b5b600061203a87828801611e74565b945050602085013567ffffffffffffffff81111561205b5761205a61297a565b5b61206787828801611e9e565b935050604061207887828801611ee1565b925050606061208987828801611f0b565b91505092959194509250565b6000806000606084860312156120ae576120ad61297f565b5b60006120bc86828701611e74565b935050602084013567ffffffffffffffff8111156120dd576120dc61297a565b5b6120e986828701611e9e565b92505060406120fa86828701611f0b565b9150509250925092565b60006020828403121561211a5761211961297f565b5b600061212884828501611ef6565b91505092915050565b61213a816127a6565b82525050565b612149816127b8565b82525050565b6121588161282c565b82525050565b60006121698261278a565b6121738185612795565b935061218381856020860161284d565b61218c81612984565b840191505092915050565b60006121a4601f83612795565b91506121af82612995565b602082019050919050565b60006121c7601883612795565b91506121d2826129be565b602082019050919050565b60006121ea601283612795565b91506121f5826129e7565b602082019050919050565b600061220d601e83612795565b915061221882612a10565b602082019050919050565b6000612230601e83612795565b915061223b82612a39565b602082019050919050565b6000612253602283612795565b915061225e82612a62565b604082019050919050565b6000612276601783612795565b915061228182612ab1565b602082019050919050565b6000612299602683612795565b91506122a482612ada565b604082019050919050565b60006122bc601883612795565b91506122c782612b29565b602082019050919050565b60006122df601783612795565b91506122ea82612b52565b602082019050919050565b6000612302602083612795565b915061230d82612b7b565b602082019050919050565b6000612325602083612795565b915061233082612ba4565b602082019050919050565b612344816127d7565b82525050565b61235381612805565b82525050565b6123628161280f565b82525050565b6123718161281f565b82525050565b600060c08201905061238c6000830189612131565b6123996020830188612131565b81810360408301526123ab818761215e565b905081810360608301526123bf818661215e565b90506123ce608083018561233b565b6123db60a083018461214f565b979650505050505050565b60006080820190506123fb6000830187612131565b818103602083015261240d818661215e565b905061241c604083018561234a565b6124296060830184612368565b95945050505050565b60006060820190506124476000830186612131565b8181036020830152612459818561215e565b90506124686040830184612368565b949350505050565b60006020820190506124856000830184612140565b92915050565b600060c0820190506124a06000830189612140565b6124ad6020830188612131565b6124ba604083018761233b565b6124c7606083018661214f565b81810360808301526124d9818561215e565b905081810360a08301526124ed818461215e565b9050979650505050505050565b600060608201905061250f6000830186612140565b8181036020830152612521818561215e565b90506125306040830184612368565b949350505050565b600060808201905061254d6000830187612140565b61255a6020830186612368565b612567604083018561234a565b8181036060830152612579818461215e565b905095945050505050565b6000602082019050818103600083015261259d81612197565b9050919050565b600060208201905081810360008301526125bd816121ba565b9050919050565b600060208201905081810360008301526125dd816121dd565b9050919050565b600060208201905081810360008301526125fd81612200565b9050919050565b6000602082019050818103600083015261261d81612223565b9050919050565b6000602082019050818103600083015261263d81612246565b9050919050565b6000602082019050818103600083015261265d81612269565b9050919050565b6000602082019050818103600083015261267d8161228c565b9050919050565b6000602082019050818103600083015261269d816122af565b9050919050565b600060208201905081810360008301526126bd816122d2565b9050919050565b600060208201905081810360008301526126dd816122f5565b9050919050565b600060208201905081810360008301526126fd81612318565b9050919050565b60006040820190506127196000830185612359565b818103602083015261272b818461215e565b90509392505050565b600061273e61274f565b905061274a82826128b2565b919050565b6000604051905090565b600067ffffffffffffffff82111561277457612773612941565b5b61277d82612984565b9050602081019050919050565b600081519050919050565b600082825260208201905092915050565b60006127b1826127e5565b9050919050565b60008115159050919050565b60008190506127d282612bcd565b919050565b600061ffff82169050919050565b600073ffffffffffffffffffffffffffffffffffffffff82169050919050565b6000819050919050565b600063ffffffff82169050919050565b600060ff82169050919050565b6000612837826127c4565b9050919050565b82818337600083830152505050565b60005b8381101561286b578082015181840152602081019050612850565b8381111561287a576000848401525b50505050565b6000600282049050600182168061289857607f821691505b602082108114156128ac576128ab612912565b5b50919050565b6128bb82612984565b810181811067ffffffffffffffff821117156128da576128d9612941565b5b80604052505050565b7f4e487b7100000000000000000000000000000000000000000000000000000000600052602160045260246000fd5b7f4e487b7100000000000000000000000000000000000000000000000000000000600052602260045260246000fd5b7f4e487b7100000000000000000000000000000000000000000000000000000000600052604160045260246000fd5b600080fd5b600080fd5b600080fd5b600080fd5b6000601f19601f8301169050919050565b7f53616465636520594f4b2062752069736c656d69207961706162696c69722e00600082015250565b7f4b616d75204b7572756d75205a6174656e204d65766375740000000000000000600082015250565b7f4669726d61205a6174656e204d65766375740000000000000000000000000000600082015250565b7f5361646563652043422062752069736c656d69207961706162696c69722e0000600082015250565b7f536572746966696b61204d65726b657a69205a6174656e204d65766375740000600082015250565b7f536976696c20546f706c756d204b7572756c757375205a6174656e204d65766360008201527f7574000000000000000000000000000000000000000000000000000000000000602082015250565b7f556e6976657273697465205a6174656e204d6576637574000000000000000000600082015250565b7f53616465636520556e69766572736974652062752069736c656d69207961706160008201527f62696c69722e0000000000000000000000000000000000000000000000000000602082015250565b7f416b6164656d697379656e205a6174656e204d65766375740000000000000000600082015250565b7f4b616d75204b75726d75205a6174656e204d6576637574000000000000000000600082015250565b7f53616465636520544f42422062752069736c656d69207961706162696c69722e600082015250565b7f42752069736c656d6920736164656365204b757273207961706162696c69722e600082015250565b60048110612bde57612bdd6128e3565b5b50565b612bea816127a6565b8114612bf557600080fd5b50565b60048110612c0557600080fd5b50565b612c11816127d7565b8114612c1c57600080fd5b50565b612c2881612805565b8114612c3357600080fd5b50565b612c3f8161280f565b8114612c4a57600080fd5b50565b612c568161281f565b8114612c6157600080fd5b5056fea2646970667358221220d3d834f0fa01c5e5b30657570b4c738dd5921f02956cd91d3a44d722f28d5f7364736f6c63430008070033",
					"opcodes": "PUSH1 0x80 PUSH1 0x40 MSTORE CALLVALUE DUP1 ISZERO PUSH3 0x11 JUMPI PUSH1 0x0 DUP1 REVERT JUMPDEST POP PUSH1 0x40 MLOAD PUSH3 0x2E72 CODESIZE SUB DUP1 PUSH3 0x2E72 DUP4 CODECOPY DUP2 DUP2 ADD PUSH1 0x40 MSTORE DUP2 ADD SWAP1 PUSH3 0x37 SWAP2 SWAP1 PUSH3 0x119 JUMP JUMPDEST DUP3 PUSH1 0x0 DUP1 PUSH2 0x100 EXP DUP2 SLOAD DUP2 PUSH20 0xFFFFFFFFFFFFFFFFFFFFFFFFFFFFFFFFFFFFFFFF MUL NOT AND SWAP1 DUP4 PUSH20 0xFFFFFFFFFFFFFFFFFFFFFFFFFFFFFFFFFFFFFFFF AND MUL OR SWAP1 SSTORE POP DUP2 PUSH1 0x1 PUSH1 0x0 PUSH2 0x100 EXP DUP2 SLOAD DUP2 PUSH20 0xFFFFFFFFFFFFFFFFFFFFFFFFFFFFFFFFFFFFFFFF MUL NOT AND SWAP1 DUP4 PUSH20 0xFFFFFFFFFFFFFFFFFFFFFFFFFFFFFFFFFFFFFFFF AND MUL OR SWAP1 SSTORE POP DUP1 PUSH1 0x2 PUSH1 0x0 PUSH2 0x100 EXP DUP2 SLOAD DUP2 PUSH20 0xFFFFFFFFFFFFFFFFFFFFFFFFFFFFFFFFFFFFFFFF MUL NOT AND SWAP1 DUP4 PUSH20 0xFFFFFFFFFFFFFFFFFFFFFFFFFFFFFFFFFFFFFFFF AND MUL OR SWAP1 SSTORE POP POP POP POP PUSH3 0x1C8 JUMP JUMPDEST PUSH1 0x0 DUP2 MLOAD SWAP1 POP PUSH3 0x113 DUP2 PUSH3 0x1AE JUMP JUMPDEST SWAP3 SWAP2 POP POP JUMP JUMPDEST PUSH1 0x0 DUP1 PUSH1 0x0 PUSH1 0x60 DUP5 DUP7 SUB SLT ISZERO PUSH3 0x135 JUMPI PUSH3 0x134 PUSH3 0x1A9 JUMP JUMPDEST JUMPDEST PUSH1 0x0 PUSH3 0x145 DUP7 DUP3 DUP8 ADD PUSH3 0x102 JUMP JUMPDEST SWAP4 POP POP PUSH1 0x20 PUSH3 0x158 DUP7 DUP3 DUP8 ADD PUSH3 0x102 JUMP JUMPDEST SWAP3 POP POP PUSH1 0x40 PUSH3 0x16B DUP7 DUP3 DUP8 ADD PUSH3 0x102 JUMP JUMPDEST SWAP2 POP POP SWAP3 POP SWAP3 POP SWAP3 JUMP JUMPDEST PUSH1 0x0 PUSH3 0x182 DUP3 PUSH3 0x189 JUMP JUMPDEST SWAP1 POP SWAP2 SWAP1 POP JUMP JUMPDEST PUSH1 0x0 PUSH20 0xFFFFFFFFFFFFFFFFFFFFFFFFFFFFFFFFFFFFFFFF DUP3 AND SWAP1 POP SWAP2 SWAP1 POP JUMP JUMPDEST PUSH1 0x0 DUP1 REVERT JUMPDEST PUSH3 0x1B9 DUP2 PUSH3 0x175 JUMP JUMPDEST DUP2 EQ PUSH3 0x1C5 JUMPI PUSH1 0x0 DUP1 REVERT JUMPDEST POP JUMP JUMPDEST PUSH2 0x2C9A DUP1 PUSH3 0x1D8 PUSH1 0x0 CODECOPY PUSH1 0x0 RETURN INVALID PUSH1 0x80 PUSH1 0x40 MSTORE CALLVALUE DUP1 ISZERO PUSH2 0x10 JUMPI PUSH1 0x0 DUP1 REVERT JUMPDEST POP PUSH1 0x4 CALLDATASIZE LT PUSH2 0xFF JUMPI PUSH1 0x0 CALLDATALOAD PUSH1 0xE0 SHR DUP1 PUSH4 0x7D0FA287 GT PUSH2 0x97 JUMPI DUP1 PUSH4 0xBA479B7E GT PUSH2 0x66 JUMPI DUP1 PUSH4 0xBA479B7E EQ PUSH2 0x2EE JUMPI DUP1 PUSH4 0xCBC92809 EQ PUSH2 0x323 JUMPI DUP1 PUSH4 0xD25AAB85 EQ PUSH2 0x353 JUMPI DUP1 PUSH4 0xF63C649F EQ PUSH2 0x36F JUMPI PUSH2 0xFF JUMP JUMPDEST DUP1 PUSH4 0x7D0FA287 EQ PUSH2 0x23D JUMPI DUP1 PUSH4 0x9A8C9119 EQ PUSH2 0x26F JUMPI DUP1 PUSH4 0x9DC30114 EQ PUSH2 0x2A1 JUMPI DUP1 PUSH4 0xA4E7AE05 EQ PUSH2 0x2BD JUMPI PUSH2 0xFF JUMP JUMPDEST DUP1 PUSH4 0x28266697 GT PUSH2 0xD3 JUMPI DUP1 PUSH4 0x28266697 EQ PUSH2 0x18A JUMPI DUP1 PUSH4 0x356B1F1E EQ PUSH2 0x1BC JUMPI DUP1 PUSH4 0x39987F94 EQ PUSH2 0x1EE JUMPI DUP1 PUSH4 0x46224853 EQ PUSH2 0x221 JUMPI PUSH2 0xFF JUMP JUMPDEST DUP1 PUSH3 0x1D54AB EQ PUSH2 0x104 JUMPI DUP1 PUSH4 0x19023BF3 EQ PUSH2 0x120 JUMPI DUP1 PUSH4 0x1916E139 EQ PUSH2 0x13C JUMPI DUP1 PUSH4 0x1C23F0E1 EQ PUSH2 0x16E JUMPI JUMPDEST PUSH1 0x0 DUP1 REVERT JUMPDEST PUSH2 0x11E PUSH1 0x4 DUP1 CALLDATASIZE SUB DUP2 ADD SWAP1 PUSH2 0x119 SWAP2 SWAP1 PUSH2 0x2095 JUMP JUMPDEST PUSH2 0x38B JUMP JUMPDEST STOP JUMPDEST PUSH2 0x13A PUSH1 0x4 DUP1 CALLDATASIZE SUB DUP2 ADD SWAP1 PUSH2 0x135 SWAP2 SWAP1 PUSH2 0x2095 JUMP JUMPDEST PUSH2 0x5F6 JUMP JUMPDEST STOP JUMPDEST PUSH2 0x156 PUSH1 0x4 DUP1 CALLDATASIZE SUB DUP2 ADD SWAP1 PUSH2 0x151 SWAP2 SWAP1 PUSH2 0x1F20 JUMP JUMPDEST PUSH2 0x863 JUMP JUMPDEST PUSH1 0x40 MLOAD PUSH2 0x165 SWAP4 SWAP3 SWAP2 SWAP1 PUSH2 0x24FA JUMP JUMPDEST PUSH1 0x40 MLOAD DUP1 SWAP2 SUB SWAP1 RETURN JUMPDEST PUSH2 0x188 PUSH1 0x4 DUP1 CALLDATASIZE SUB DUP2 ADD SWAP1 PUSH2 0x183 SWAP2 SWAP1 PUSH2 0x1F4D JUMP JUMPDEST PUSH2 0x92F JUMP JUMPDEST STOP JUMPDEST PUSH2 0x1A4 PUSH1 0x4 DUP1 CALLDATASIZE SUB DUP2 ADD SWAP1 PUSH2 0x19F SWAP2 SWAP1 PUSH2 0x1F20 JUMP JUMPDEST PUSH2 0xC67 JUMP JUMPDEST PUSH1 0x40 MLOAD PUSH2 0x1B3 SWAP4 SWAP3 SWAP2 SWAP1 PUSH2 0x24FA JUMP JUMPDEST PUSH1 0x40 MLOAD DUP1 SWAP2 SUB SWAP1 RETURN JUMPDEST PUSH2 0x1D6 PUSH1 0x4 DUP1 CALLDATASIZE SUB DUP2 ADD SWAP1 PUSH2 0x1D1 SWAP2 SWAP1 PUSH2 0x1F20 JUMP JUMPDEST PUSH2 0xD33 JUMP JUMPDEST PUSH1 0x40 MLOAD PUSH2 0x1E5 SWAP4 SWAP3 SWAP2 SWAP1 PUSH2 0x24FA JUMP JUMPDEST PUSH1 0x40 MLOAD DUP1 SWAP2 SUB SWAP1 RETURN JUMPDEST PUSH2 0x208 PUSH1 0x4 DUP1 CALLDATASIZE SUB DUP2 ADD SWAP1 PUSH2 0x203 SWAP2 SWAP1 PUSH2 0x1F20 JUMP JUMPDEST PUSH2 0xDFF JUMP JUMPDEST PUSH1 0x40 MLOAD PUSH2 0x218 SWAP5 SWAP4 SWAP3 SWAP2 SWAP1 PUSH2 0x2538 JUMP JUMPDEST PUSH1 0x40 MLOAD DUP1 SWAP2 SUB SWAP1 RETURN JUMPDEST PUSH2 0x23B PUSH1 0x4 DUP1 CALLDATASIZE SUB DUP2 ADD SWAP1 PUSH2 0x236 SWAP2 SWAP1 PUSH2 0x2095 JUMP JUMPDEST PUSH2 0xED1 JUMP JUMPDEST STOP JUMPDEST PUSH2 0x257 PUSH1 0x4 DUP1 CALLDATASIZE SUB DUP2 ADD SWAP1 PUSH2 0x252 SWAP2 SWAP1 PUSH2 0x1F20 JUMP JUMPDEST PUSH2 0x11EB JUMP JUMPDEST PUSH1 0x40 MLOAD PUSH2 0x266 SWAP4 SWAP3 SWAP2 SWAP1 PUSH2 0x24FA JUMP JUMPDEST PUSH1 0x40 MLOAD DUP1 SWAP2 SUB SWAP1 RETURN JUMPDEST PUSH2 0x289 PUSH1 0x4 DUP1 CALLDATASIZE SUB DUP2 ADD SWAP1 PUSH2 0x284 SWAP2 SWAP1 PUSH2 0x1F20 JUMP JUMPDEST PUSH2 0x12B7 JUMP JUMPDEST PUSH1 0x40 MLOAD PUSH2 0x298 SWAP4 SWAP3 SWAP2 SWAP1 PUSH2 0x24FA JUMP JUMPDEST PUSH1 0x40 MLOAD DUP1 SWAP2 SUB SWAP1 RETURN JUMPDEST PUSH2 0x2BB PUSH1 0x4 DUP1 CALLDATASIZE SUB DUP2 ADD SWAP1 PUSH2 0x2B6 SWAP2 SWAP1 PUSH2 0x2095 JUMP JUMPDEST PUSH2 0x1383 JUMP JUMPDEST STOP JUMPDEST PUSH2 0x2D7 PUSH1 0x4 DUP1 CALLDATASIZE SUB DUP2 ADD SWAP1 PUSH2 0x2D2 SWAP2 SWAP1 PUSH2 0x2104 JUMP JUMPDEST PUSH2 0x15F0 JUMP JUMPDEST PUSH1 0x40 MLOAD PUSH2 0x2E5 SWAP3 SWAP2 SWAP1 PUSH2 0x2704 JUMP JUMPDEST PUSH1 0x40 MLOAD DUP1 SWAP2 SUB SWAP1 RETURN JUMPDEST PUSH2 0x308 PUSH1 0x4 DUP1 CALLDATASIZE SUB DUP2 ADD SWAP1 PUSH2 0x303 SWAP2 SWAP1 PUSH2 0x1F20 JUMP JUMPDEST PUSH2 0x16AC JUMP JUMPDEST PUSH1 0x40 MLOAD PUSH2 0x31A SWAP7 SWAP6 SWAP5 SWAP4 SWAP3 SWAP2 SWAP1 PUSH2 0x248B JUMP JUMPDEST PUSH1 0x40 MLOAD DUP1 SWAP2 SUB SWAP1 RETURN JUMPDEST PUSH2 0x33D PUSH1 0x4 DUP1 CALLDATASIZE SUB DUP2 ADD SWAP1 PUSH2 0x338 SWAP2 SWAP1 PUSH2 0x1F20 JUMP JUMPDEST PUSH2 0x1840 JUMP JUMPDEST PUSH1 0x40 MLOAD PUSH2 0x34A SWAP2 SWAP1 PUSH2 0x2470 JUMP JUMPDEST PUSH1 0x40 MLOAD DUP1 SWAP2 SUB SWAP1 RETURN JUMPDEST PUSH2 0x36D PUSH1 0x4 DUP1 CALLDATASIZE SUB DUP2 ADD SWAP1 PUSH2 0x368 SWAP2 SWAP1 PUSH2 0x2012 JUMP JUMPDEST PUSH2 0x186B JUMP JUMPDEST STOP JUMPDEST PUSH2 0x389 PUSH1 0x4 DUP1 CALLDATASIZE SUB DUP2 ADD SWAP1 PUSH2 0x384 SWAP2 SWAP1 PUSH2 0x2095 JUMP JUMPDEST PUSH2 0x1B22 JUMP JUMPDEST STOP JUMPDEST PUSH1 0x0 DUP1 SLOAD SWAP1 PUSH2 0x100 EXP SWAP1 DIV PUSH20 0xFFFFFFFFFFFFFFFFFFFFFFFFFFFFFFFFFFFFFFFF AND PUSH20 0xFFFFFFFFFFFFFFFFFFFFFFFFFFFFFFFFFFFFFFFF AND CALLER PUSH20 0xFFFFFFFFFFFFFFFFFFFFFFFFFFFFFFFFFFFFFFFF AND EQ PUSH2 0x419 JUMPI PUSH1 0x40 MLOAD PUSH32 0x8C379A000000000000000000000000000000000000000000000000000000000 DUP2 MSTORE PUSH1 0x4 ADD PUSH2 0x410 SWAP1 PUSH2 0x2584 JUMP JUMPDEST PUSH1 0x40 MLOAD DUP1 SWAP2 SUB SWAP1 REVERT JUMPDEST PUSH1 0x4 PUSH1 0x0 DUP5 PUSH20 0xFFFFFFFFFFFFFFFFFFFFFFFFFFFFFFFFFFFFFFFF AND PUSH20 0xFFFFFFFFFFFFFFFFFFFFFFFFFFFFFFFFFFFFFFFF AND DUP2 MSTORE PUSH1 0x20 ADD SWAP1 DUP2 MSTORE PUSH1 0x20 ADD PUSH1 0x0 KECCAK256 PUSH1 0x0 ADD PUSH1 0x0 SWAP1 SLOAD SWAP1 PUSH2 0x100 EXP SWAP1 DIV PUSH1 0xFF AND ISZERO PUSH2 0x4A9 JUMPI PUSH1 0x40 MLOAD PUSH32 0x8C379A000000000000000000000000000000000000000000000000000000000 DUP2 MSTORE PUSH1 0x4 ADD PUSH2 0x4A0 SWAP1 PUSH2 0x2644 JUMP JUMPDEST PUSH1 0x40 MLOAD DUP1 SWAP2 SUB SWAP1 REVERT JUMPDEST PUSH1 0x1 PUSH1 0x4 PUSH1 0x0 DUP6 PUSH20 0xFFFFFFFFFFFFFFFFFFFFFFFFFFFFFFFFFFFFFFFF AND PUSH20 0xFFFFFFFFFFFFFFFFFFFFFFFFFFFFFFFFFFFFFFFF AND DUP2 MSTORE PUSH1 0x20 ADD SWAP1 DUP2 MSTORE PUSH1 0x20 ADD PUSH1 0x0 KECCAK256 PUSH1 0x0 ADD PUSH1 0x0 PUSH2 0x100 EXP DUP2 SLOAD DUP2 PUSH1 0xFF MUL NOT AND SWAP1 DUP4 ISZERO ISZERO MUL OR SWAP1 SSTORE POP DUP2 PUSH1 0x4 PUSH1 0x0 DUP6 PUSH20 0xFFFFFFFFFFFFFFFFFFFFFFFFFFFFFFFFFFFFFFFF AND PUSH20 0xFFFFFFFFFFFFFFFFFFFFFFFFFFFFFFFFFFFFFFFF AND DUP2 MSTORE PUSH1 0x20 ADD SWAP1 DUP2 MSTORE PUSH1 0x20 ADD PUSH1 0x0 KECCAK256 PUSH1 0x1 ADD SWAP1 DUP1 MLOAD SWAP1 PUSH1 0x20 ADD SWAP1 PUSH2 0x55A SWAP3 SWAP2 SWAP1 PUSH2 0x1D8F JUMP JUMPDEST POP DUP1 PUSH1 0x4 PUSH1 0x0 DUP6 PUSH20 0xFFFFFFFFFFFFFFFFFFFFFFFFFFFFFFFFFFFFFFFF AND PUSH20 0xFFFFFFFFFFFFFFFFFFFFFFFFFFFFFFFFFFFFFFFF AND DUP2 MSTORE PUSH1 0x20 ADD SWAP1 DUP2 MSTORE PUSH1 0x20 ADD PUSH1 0x0 KECCAK256 PUSH1 0x2 ADD PUSH1 0x0 PUSH2 0x100 EXP DUP2 SLOAD DUP2 PUSH1 0xFF MUL NOT AND SWAP1 DUP4 PUSH1 0xFF AND MUL OR SWAP1 SSTORE POP PUSH32 0x750AE9C195D9B95B8C17BF0FA25801932D5A28C4871F4571AF70581BC15F5BFE DUP4 DUP4 DUP4 PUSH1 0x40 MLOAD PUSH2 0x5E9 SWAP4 SWAP3 SWAP2 SWAP1 PUSH2 0x2432 JUMP JUMPDEST PUSH1 0x40 MLOAD DUP1 SWAP2 SUB SWAP1 LOG1 POP POP POP JUMP JUMPDEST PUSH1 0x2 PUSH1 0x0 SWAP1 SLOAD SWAP1 PUSH2 0x100 EXP SWAP1 DIV PUSH20 0xFFFFFFFFFFFFFFFFFFFFFFFFFFFFFFFFFFFFFFFF AND PUSH20 0xFFFFFFFFFFFFFFFFFFFFFFFFFFFFFFFFFFFFFFFF AND CALLER PUSH20 0xFFFFFFFFFFFFFFFFFFFFFFFFFFFFFFFFFFFFFFFF AND EQ PUSH2 0x686 JUMPI PUSH1 0x40 MLOAD PUSH32 0x8C379A000000000000000000000000000000000000000000000000000000000 DUP2 MSTORE PUSH1 0x4 ADD PUSH2 0x67D SWAP1 PUSH2 0x25E4 JUMP JUMPDEST PUSH1 0x40 MLOAD DUP1 SWAP2 SUB SWAP1 REVERT JUMPDEST PUSH1 0x9 PUSH1 0x0 DUP5 PUSH20 0xFFFFFFFFFFFFFFFFFFFFFFFFFFFFFFFFFFFFFFFF AND PUSH20 0xFFFFFFFFFFFFFFFFFFFFFFFFFFFFFFFFFFFFFFFF AND DUP2 MSTORE PUSH1 0x20 ADD SWAP1 DUP2 MSTORE PUSH1 0x20 ADD PUSH1 0x0 KECCAK256 PUSH1 0x0 ADD PUSH1 0x0 SWAP1 SLOAD SWAP1 PUSH2 0x100 EXP SWAP1 DIV PUSH1 0xFF AND ISZERO PUSH2 0x716 JUMPI PUSH1 0x40 MLOAD PUSH32 0x8C379A000000000000000000000000000000000000000000000000000000000 DUP2 MSTORE PUSH1 0x4 ADD PUSH2 0x70D SWAP1 PUSH2 0x2624 JUMP JUMPDEST PUSH1 0x40 MLOAD DUP1 SWAP2 SUB SWAP1 REVERT JUMPDEST PUSH1 0x1 PUSH1 0x9 PUSH1 0x0 DUP6 PUSH20 0xFFFFFFFFFFFFFFFFFFFFFFFFFFFFFFFFFFFFFFFF AND PUSH20 0xFFFFFFFFFFFFFFFFFFFFFFFFFFFFFFFFFFFFFFFF AND DUP2 MSTORE PUSH1 0x20 ADD SWAP1 DUP2 MSTORE PUSH1 0x20 ADD PUSH1 0x0 KECCAK256 PUSH1 0x0 ADD PUSH1 0x0 PUSH2 0x100 EXP DUP2 SLOAD DUP2 PUSH1 0xFF MUL NOT AND SWAP1 DUP4 ISZERO ISZERO MUL OR SWAP1 SSTORE POP DUP2 PUSH1 0x9 PUSH1 0x0 DUP6 PUSH20 0xFFFFFFFFFFFFFFFFFFFFFFFFFFFFFFFFFFFFFFFF AND PUSH20 0xFFFFFFFFFFFFFFFFFFFFFFFFFFFFFFFFFFFFFFFF AND DUP2 MSTORE PUSH1 0x20 ADD SWAP1 DUP2 MSTORE PUSH1 0x20 ADD PUSH1 0x0 KECCAK256 PUSH1 0x1 ADD SWAP1 DUP1 MLOAD SWAP1 PUSH1 0x20 ADD SWAP1 PUSH2 0x7C7 SWAP3 SWAP2 SWAP1 PUSH2 0x1D8F JUMP JUMPDEST POP DUP1 PUSH1 0x9 PUSH1 0x0 DUP6 PUSH20 0xFFFFFFFFFFFFFFFFFFFFFFFFFFFFFFFFFFFFFFFF AND PUSH20 0xFFFFFFFFFFFFFFFFFFFFFFFFFFFFFFFFFFFFFFFF AND DUP2 MSTORE PUSH1 0x20 ADD SWAP1 DUP2 MSTORE PUSH1 0x20 ADD PUSH1 0x0 KECCAK256 PUSH1 0x2 ADD PUSH1 0x0 PUSH2 0x100 EXP DUP2 SLOAD DUP2 PUSH1 0xFF MUL NOT AND SWAP1 DUP4 PUSH1 0xFF AND MUL OR SWAP1 SSTORE POP PUSH32 0x1993679D861F13477B3E16FF3B01C1C9E471E0F6F2E30A363662C257F7207450 DUP4 DUP4 DUP4 PUSH1 0x40 MLOAD PUSH2 0x856 SWAP4 SWAP3 SWAP2 SWAP1 PUSH2 0x2432 JUMP JUMPDEST PUSH1 0x40 MLOAD DUP1 SWAP2 SUB SWAP1 LOG1 POP POP POP JUMP JUMPDEST PUSH1 0x7 PUSH1 0x20 MSTORE DUP1 PUSH1 0x0 MSTORE PUSH1 0x40 PUSH1 0x0 KECCAK256 PUSH1 0x0 SWAP2 POP SWAP1 POP DUP1 PUSH1 0x0 ADD PUSH1 0x0 SWAP1 SLOAD SWAP1 PUSH2 0x100 EXP SWAP1 DIV PUSH1 0xFF AND SWAP1 DUP1 PUSH1 0x1 ADD DUP1 SLOAD PUSH2 0x899 SWAP1 PUSH2 0x2880 JUMP JUMPDEST DUP1 PUSH1 0x1F ADD PUSH1 0x20 DUP1 SWAP2 DIV MUL PUSH1 0x20 ADD PUSH1 0x40 MLOAD SWAP1 DUP2 ADD PUSH1 0x40 MSTORE DUP1 SWAP3 SWAP2 SWAP1 DUP2 DUP2 MSTORE PUSH1 0x20 ADD DUP3 DUP1 SLOAD PUSH2 0x8C5 SWAP1 PUSH2 0x2880 JUMP JUMPDEST DUP1 ISZERO PUSH2 0x912 JUMPI DUP1 PUSH1 0x1F LT PUSH2 0x8E7 JUMPI PUSH2 0x100 DUP1 DUP4 SLOAD DIV MUL DUP4 MSTORE SWAP2 PUSH1 0x20 ADD SWAP2 PUSH2 0x912 JUMP JUMPDEST DUP3 ADD SWAP2 SWAP1 PUSH1 0x0 MSTORE PUSH1 0x20 PUSH1 0x0 KECCAK256 SWAP1 JUMPDEST DUP2 SLOAD DUP2 MSTORE SWAP1 PUSH1 0x1 ADD SWAP1 PUSH1 0x20 ADD DUP1 DUP4 GT PUSH2 0x8F5 JUMPI DUP3 SWAP1 SUB PUSH1 0x1F AND DUP3 ADD SWAP2 JUMPDEST POP POP POP POP POP SWAP1 DUP1 PUSH1 0x2 ADD PUSH1 0x0 SWAP1 SLOAD SWAP1 PUSH2 0x100 EXP SWAP1 DIV PUSH1 0xFF AND SWAP1 POP DUP4 JUMP JUMPDEST PUSH1 0x4 PUSH1 0x0 CALLER PUSH20 0xFFFFFFFFFFFFFFFFFFFFFFFFFFFFFFFFFFFFFFFF AND PUSH20 0xFFFFFFFFFFFFFFFFFFFFFFFFFFFFFFFFFFFFFFFF AND DUP2 MSTORE PUSH1 0x20 ADD SWAP1 DUP2 MSTORE PUSH1 0x20 ADD PUSH1 0x0 KECCAK256 PUSH1 0x0 ADD PUSH1 0x0 SWAP1 SLOAD SWAP1 PUSH2 0x100 EXP SWAP1 DIV PUSH1 0xFF AND PUSH2 0x9BE JUMPI PUSH1 0x40 MLOAD PUSH32 0x8C379A000000000000000000000000000000000000000000000000000000000 DUP2 MSTORE PUSH1 0x4 ADD PUSH2 0x9B5 SWAP1 PUSH2 0x2664 JUMP JUMPDEST PUSH1 0x40 MLOAD DUP1 SWAP2 SUB SWAP1 REVERT JUMPDEST PUSH1 0x5 PUSH1 0x0 DUP8 PUSH20 0xFFFFFFFFFFFFFFFFFFFFFFFFFFFFFFFFFFFFFFFF AND PUSH20 0xFFFFFFFFFFFFFFFFFFFFFFFFFFFFFFFFFFFFFFFF AND DUP2 MSTORE PUSH1 0x20 ADD SWAP1 DUP2 MSTORE PUSH1 0x20 ADD PUSH1 0x0 KECCAK256 PUSH1 0x0 ADD PUSH1 0x0 SWAP1 SLOAD SWAP1 PUSH2 0x100 EXP SWAP1 DIV PUSH1 0xFF AND ISZERO PUSH2 0xA4E JUMPI PUSH1 0x40 MLOAD PUSH32 0x8C379A000000000000000000000000000000000000000000000000000000000 DUP2 MSTORE PUSH1 0x4 ADD PUSH2 0xA45 SWAP1 PUSH2 0x2684 JUMP JUMPDEST PUSH1 0x40 MLOAD DUP1 SWAP2 SUB SWAP1 REVERT JUMPDEST PUSH1 0x1 PUSH1 0x5 PUSH1 0x0 DUP9 PUSH20 0xFFFFFFFFFFFFFFFFFFFFFFFFFFFFFFFFFFFFFFFF AND PUSH20 0xFFFFFFFFFFFFFFFFFFFFFFFFFFFFFFFFFFFFFFFF AND DUP2 MSTORE PUSH1 0x20 ADD SWAP1 DUP2 MSTORE PUSH1 0x20 ADD PUSH1 0x0 KECCAK256 PUSH1 0x0 ADD PUSH1 0x0 PUSH2 0x100 EXP DUP2 SLOAD DUP2 PUSH1 0xFF MUL NOT AND SWAP1 DUP4 ISZERO ISZERO MUL OR SWAP1 SSTORE POP DUP4 PUSH1 0x5 PUSH1 0x0 DUP9 PUSH20 0xFFFFFFFFFFFFFFFFFFFFFFFFFFFFFFFFFFFFFFFF AND PUSH20 0xFFFFFFFFFFFFFFFFFFFFFFFFFFFFFFFFFFFFFFFF AND DUP2 MSTORE PUSH1 0x20 ADD SWAP1 DUP2 MSTORE PUSH1 0x20 ADD PUSH1 0x0 KECCAK256 PUSH1 0x1 ADD SWAP1 DUP1 MLOAD SWAP1 PUSH1 0x20 ADD SWAP1 PUSH2 0xAFF SWAP3 SWAP2 SWAP1 PUSH2 0x1D8F JUMP JUMPDEST POP DUP3 PUSH1 0x5 PUSH1 0x0 DUP9 PUSH20 0xFFFFFFFFFFFFFFFFFFFFFFFFFFFFFFFFFFFFFFFF AND PUSH20 0xFFFFFFFFFFFFFFFFFFFFFFFFFFFFFFFFFFFFFFFF AND DUP2 MSTORE PUSH1 0x20 ADD SWAP1 DUP2 MSTORE PUSH1 0x20 ADD PUSH1 0x0 KECCAK256 PUSH1 0x2 ADD SWAP1 DUP1 MLOAD SWAP1 PUSH1 0x20 ADD SWAP1 PUSH2 0xB56 SWAP3 SWAP2 SWAP1 PUSH2 0x1D8F JUMP JUMPDEST POP DUP2 PUSH1 0x5 PUSH1 0x0 DUP9 PUSH20 0xFFFFFFFFFFFFFFFFFFFFFFFFFFFFFFFFFFFFFFFF AND PUSH20 0xFFFFFFFFFFFFFFFFFFFFFFFFFFFFFFFFFFFFFFFF AND DUP2 MSTORE PUSH1 0x20 ADD SWAP1 DUP2 MSTORE PUSH1 0x20 ADD PUSH1 0x0 KECCAK256 PUSH1 0x0 ADD PUSH1 0x15 PUSH2 0x100 EXP DUP2 SLOAD DUP2 PUSH2 0xFFFF MUL NOT AND SWAP1 DUP4 PUSH2 0xFFFF AND MUL OR SWAP1 SSTORE POP DUP1 PUSH1 0x5 PUSH1 0x0 DUP9 PUSH20 0xFFFFFFFFFFFFFFFFFFFFFFFFFFFFFFFFFFFFFFFF AND PUSH20 0xFFFFFFFFFFFFFFFFFFFFFFFFFFFFFFFFFFFFFFFF AND DUP2 MSTORE PUSH1 0x20 ADD SWAP1 DUP2 MSTORE PUSH1 0x20 ADD PUSH1 0x0 KECCAK256 PUSH1 0x0 ADD PUSH1 0x17 PUSH2 0x100 EXP DUP2 SLOAD DUP2 PUSH1 0xFF MUL NOT AND SWAP1 DUP4 PUSH1 0x3 DUP2 GT ISZERO PUSH2 0xC19 JUMPI PUSH2 0xC18 PUSH2 0x28E3 JUMP JUMPDEST JUMPDEST MUL OR SWAP1 SSTORE POP PUSH32 0xC9EFD466D9A1950AD2164252EDDA662048BCA360D86FE9602A80D3DADFED1754 DUP7 DUP7 DUP7 DUP7 DUP7 DUP7 PUSH1 0x40 MLOAD PUSH2 0xC57 SWAP7 SWAP6 SWAP5 SWAP4 SWAP3 SWAP2 SWAP1 PUSH2 0x2377 JUMP JUMPDEST PUSH1 0x40 MLOAD DUP1 SWAP2 SUB SWAP1 LOG1 POP POP POP POP POP POP JUMP JUMPDEST PUSH1 0x4 PUSH1 0x20 MSTORE DUP1 PUSH1 0x0 MSTORE PUSH1 0x40 PUSH1 0x0 KECCAK256 PUSH1 0x0 SWAP2 POP SWAP1 POP DUP1 PUSH1 0x0 ADD PUSH1 0x0 SWAP1 SLOAD SWAP1 PUSH2 0x100 EXP SWAP1 DIV PUSH1 0xFF AND SWAP1 DUP1 PUSH1 0x1 ADD DUP1 SLOAD PUSH2 0xC9D SWAP1 PUSH2 0x2880 JUMP JUMPDEST DUP1 PUSH1 0x1F ADD PUSH1 0x20 DUP1 SWAP2 DIV MUL PUSH1 0x20 ADD PUSH1 0x40 MLOAD SWAP1 DUP2 ADD PUSH1 0x40 MSTORE DUP1 SWAP3 SWAP2 SWAP1 DUP2 DUP2 MSTORE PUSH1 0x20 ADD DUP3 DUP1 SLOAD PUSH2 0xCC9 SWAP1 PUSH2 0x2880 JUMP JUMPDEST DUP1 ISZERO PUSH2 0xD16 JUMPI DUP1 PUSH1 0x1F LT PUSH2 0xCEB JUMPI PUSH2 0x100 DUP1 DUP4 SLOAD DIV MUL DUP4 MSTORE SWAP2 PUSH1 0x20 ADD SWAP2 PUSH2 0xD16 JUMP JUMPDEST DUP3 ADD SWAP2 SWAP1 PUSH1 0x0 MSTORE PUSH1 0x20 PUSH1 0x0 KECCAK256 SWAP1 JUMPDEST DUP2 SLOAD DUP2 MSTORE SWAP1 PUSH1 0x1 ADD SWAP1 PUSH1 0x20 ADD DUP1 DUP4 GT PUSH2 0xCF9 JUMPI DUP3 SWAP1 SUB PUSH1 0x1F AND DUP3 ADD SWAP2 JUMPDEST POP POP POP POP POP SWAP1 DUP1 PUSH1 0x2 ADD PUSH1 0x0 SWAP1 SLOAD SWAP1 PUSH2 0x100 EXP SWAP1 DIV PUSH1 0xFF AND SWAP1 POP DUP4 JUMP JUMPDEST PUSH1 0xA PUSH1 0x20 MSTORE DUP1 PUSH1 0x0 MSTORE PUSH1 0x40 PUSH1 0x0 KECCAK256 PUSH1 0x0 SWAP2 POP SWAP1 POP DUP1 PUSH1 0x0 ADD PUSH1 0x0 SWAP1 SLOAD SWAP1 PUSH2 0x100 EXP SWAP1 DIV PUSH1 0xFF AND SWAP1 DUP1 PUSH1 0x1 ADD DUP1 SLOAD PUSH2 0xD69 SWAP1 PUSH2 0x2880 JUMP JUMPDEST DUP1 PUSH1 0x1F ADD PUSH1 0x20 DUP1 SWAP2 DIV MUL PUSH1 0x20 ADD PUSH1 0x40 MLOAD SWAP1 DUP2 ADD PUSH1 0x40 MSTORE DUP1 SWAP3 SWAP2 SWAP1 DUP2 DUP2 MSTORE PUSH1 0x20 ADD DUP3 DUP1 SLOAD PUSH2 0xD95 SWAP1 PUSH2 0x2880 JUMP JUMPDEST DUP1 ISZERO PUSH2 0xDE2 JUMPI DUP1 PUSH1 0x1F LT PUSH2 0xDB7 JUMPI PUSH2 0x100 DUP1 DUP4 SLOAD DIV MUL DUP4 MSTORE SWAP2 PUSH1 0x20 ADD SWAP2 PUSH2 0xDE2 JUMP JUMPDEST DUP3 ADD SWAP2 SWAP1 PUSH1 0x0 MSTORE PUSH1 0x20 PUSH1 0x0 KECCAK256 SWAP1 JUMPDEST DUP2 SLOAD DUP2 MSTORE SWAP1 PUSH1 0x1 ADD SWAP1 PUSH1 0x20 ADD DUP1 DUP4 GT PUSH2 0xDC5 JUMPI DUP3 SWAP1 SUB PUSH1 0x1F AND DUP3 ADD SWAP2 JUMPDEST POP POP POP POP POP SWAP1 DUP1 PUSH1 0x2 ADD PUSH1 0x0 SWAP1 SLOAD SWAP1 PUSH2 0x100 EXP SWAP1 DIV PUSH1 0xFF AND SWAP1 POP DUP4 JUMP JUMPDEST PUSH1 0x6 PUSH1 0x20 MSTORE DUP1 PUSH1 0x0 MSTORE PUSH1 0x40 PUSH1 0x0 KECCAK256 PUSH1 0x0 SWAP2 POP SWAP1 POP DUP1 PUSH1 0x0 ADD PUSH1 0x0 SWAP1 SLOAD SWAP1 PUSH2 0x100 EXP SWAP1 DIV PUSH1 0xFF AND SWAP1 DUP1 PUSH1 0x0 ADD PUSH1 0x1 SWAP1 SLOAD SWAP1 PUSH2 0x100 EXP SWAP1 DIV PUSH1 0xFF AND SWAP1 DUP1 PUSH1 0x1 ADD SLOAD SWAP1 DUP1 PUSH1 0x2 ADD DUP1 SLOAD PUSH2 0xE4E SWAP1 PUSH2 0x2880 JUMP JUMPDEST DUP1 PUSH1 0x1F ADD PUSH1 0x20 DUP1 SWAP2 DIV MUL PUSH1 0x20 ADD PUSH1 0x40 MLOAD SWAP1 DUP2 ADD PUSH1 0x40 MSTORE DUP1 SWAP3 SWAP2 SWAP1 DUP2 DUP2 MSTORE PUSH1 0x20 ADD DUP3 DUP1 SLOAD PUSH2 0xE7A SWAP1 PUSH2 0x2880 JUMP JUMPDEST DUP1 ISZERO PUSH2 0xEC7 JUMPI DUP1 PUSH1 0x1F LT PUSH2 0xE9C JUMPI PUSH2 0x100 DUP1 DUP4 SLOAD DIV MUL DUP4 MSTORE SWAP2 PUSH1 0x20 ADD SWAP2 PUSH2 0xEC7 JUMP JUMPDEST DUP3 ADD SWAP2 SWAP1 PUSH1 0x0 MSTORE PUSH1 0x20 PUSH1 0x0 KECCAK256 SWAP1 JUMPDEST DUP2 SLOAD DUP2 MSTORE SWAP1 PUSH1 0x1 ADD SWAP1 PUSH1 0x20 ADD DUP1 DUP4 GT PUSH2 0xEAA JUMPI DUP3 SWAP1 SUB PUSH1 0x1F AND DUP3 ADD SWAP2 JUMPDEST POP POP POP POP POP SWAP1 POP DUP5 JUMP JUMPDEST PUSH1 0x4 PUSH1 0x0 CALLER PUSH20 0xFFFFFFFFFFFFFFFFFFFFFFFFFFFFFFFFFFFFFFFF AND PUSH20 0xFFFFFFFFFFFFFFFFFFFFFFFFFFFFFFFFFFFFFFFF AND DUP2 MSTORE PUSH1 0x20 ADD SWAP1 DUP2 MSTORE PUSH1 0x20 ADD PUSH1 0x0 KECCAK256 PUSH1 0x0 ADD PUSH1 0x0 SWAP1 SLOAD SWAP1 PUSH2 0x100 EXP SWAP1 DIV PUSH1 0xFF AND DUP1 PUSH2 0xF78 JUMPI POP PUSH1 0x6 PUSH1 0x0 CALLER PUSH20 0xFFFFFFFFFFFFFFFFFFFFFFFFFFFFFFFFFFFFFFFF AND PUSH20 0xFFFFFFFFFFFFFFFFFFFFFFFFFFFFFFFFFFFFFFFF AND DUP2 MSTORE PUSH1 0x20 ADD SWAP1 DUP2 MSTORE PUSH1 0x20 ADD PUSH1 0x0 KECCAK256 PUSH1 0x0 ADD PUSH1 0x0 SWAP1 SLOAD SWAP1 PUSH2 0x100 EXP SWAP1 DIV PUSH1 0xFF AND JUMPDEST DUP1 PUSH2 0xFCF JUMPI POP PUSH1 0x8 PUSH1 0x0 CALLER PUSH20 0xFFFFFFFFFFFFFFFFFFFFFFFFFFFFFFFFFFFFFFFF AND PUSH20 0xFFFFFFFFFFFFFFFFFFFFFFFFFFFFFFFFFFFFFFFF AND DUP2 MSTORE PUSH1 0x20 ADD SWAP1 DUP2 MSTORE PUSH1 0x20 ADD PUSH1 0x0 KECCAK256 PUSH1 0x0 ADD PUSH1 0x0 SWAP1 SLOAD SWAP1 PUSH2 0x100 EXP SWAP1 DIV PUSH1 0xFF AND JUMPDEST PUSH2 0x100E JUMPI PUSH1 0x40 MLOAD PUSH32 0x8C379A000000000000000000000000000000000000000000000000000000000 DUP2 MSTORE PUSH1 0x4 ADD PUSH2 0x1005 SWAP1 PUSH2 0x26E4 JUMP JUMPDEST PUSH1 0x40 MLOAD DUP1 SWAP2 SUB SWAP1 REVERT JUMPDEST PUSH1 0x7 PUSH1 0x0 DUP5 PUSH20 0xFFFFFFFFFFFFFFFFFFFFFFFFFFFFFFFFFFFFFFFF AND PUSH20 0xFFFFFFFFFFFFFFFFFFFFFFFFFFFFFFFFFFFFFFFF AND DUP2 MSTORE PUSH1 0x20 ADD SWAP1 DUP2 MSTORE PUSH1 0x20 ADD PUSH1 0x0 KECCAK256 PUSH1 0x0 ADD PUSH1 0x0 SWAP1 SLOAD SWAP1 PUSH2 0x100 EXP SWAP1 DIV PUSH1 0xFF AND ISZERO PUSH2 0x109E JUMPI PUSH1 0x40 MLOAD PUSH32 0x8C379A000000000000000000000000000000000000000000000000000000000 DUP2 MSTORE PUSH1 0x4 ADD PUSH2 0x1095 SWAP1 PUSH2 0x25A4 JUMP JUMPDEST PUSH1 0x40 MLOAD DUP1 SWAP2 SUB SWAP1 REVERT JUMPDEST PUSH1 0x1 PUSH1 0x7 PUSH1 0x0 DUP6 PUSH20 0xFFFFFFFFFFFFFFFFFFFFFFFFFFFFFFFFFFFFFFFF AND PUSH20 0xFFFFFFFFFFFFFFFFFFFFFFFFFFFFFFFFFFFFFFFF AND DUP2 MSTORE PUSH1 0x20 ADD SWAP1 DUP2 MSTORE PUSH1 0x20 ADD PUSH1 0x0 KECCAK256 PUSH1 0x0 ADD PUSH1 0x0 PUSH2 0x100 EXP DUP2 SLOAD DUP2 PUSH1 0xFF MUL NOT AND SWAP1 DUP4 ISZERO ISZERO MUL OR SWAP1 SSTORE POP DUP2 PUSH1 0x7 PUSH1 0x0 DUP6 PUSH20 0xFFFFFFFFFFFFFFFFFFFFFFFFFFFFFFFFFFFFFFFF AND PUSH20 0xFFFFFFFFFFFFFFFFFFFFFFFFFFFFFFFFFFFFFFFF AND DUP2 MSTORE PUSH1 0x20 ADD SWAP1 DUP2 MSTORE PUSH1 0x20 ADD PUSH1 0x0 KECCAK256 PUSH1 0x1 ADD SWAP1 DUP1 MLOAD SWAP1 PUSH1 0x20 ADD SWAP1 PUSH2 0x114F SWAP3 SWAP2 SWAP1 PUSH2 0x1D8F JUMP JUMPDEST POP DUP1 PUSH1 0x7 PUSH1 0x0 DUP6 PUSH20 0xFFFFFFFFFFFFFFFFFFFFFFFFFFFFFFFFFFFFFFFF AND PUSH20 0xFFFFFFFFFFFFFFFFFFFFFFFFFFFFFFFFFFFFFFFF AND DUP2 MSTORE PUSH1 0x20 ADD SWAP1 DUP2 MSTORE PUSH1 0x20 ADD PUSH1 0x0 KECCAK256 PUSH1 0x2 ADD PUSH1 0x0 PUSH2 0x100 EXP DUP2 SLOAD DUP2 PUSH1 0xFF MUL NOT AND SWAP1 DUP4 PUSH1 0xFF AND MUL OR SWAP1 SSTORE POP PUSH32 0x6BB7B94BFDC5D1CAC19E058D529AFF5DF791333F0BB6164D9647D8915812FB1F DUP4 DUP4 DUP4 PUSH1 0x40 MLOAD PUSH2 0x11DE SWAP4 SWAP3 SWAP2 SWAP1 PUSH2 0x2432 JUMP JUMPDEST PUSH1 0x40 MLOAD DUP1 SWAP2 SUB SWAP1 LOG1 POP POP POP JUMP JUMPDEST PUSH1 0x8 PUSH1 0x20 MSTORE DUP1 PUSH1 0x0 MSTORE PUSH1 0x40 PUSH1 0x0 KECCAK256 PUSH1 0x0 SWAP2 POP SWAP1 POP DUP1 PUSH1 0x0 ADD PUSH1 0x0 SWAP1 SLOAD SWAP1 PUSH2 0x100 EXP SWAP1 DIV PUSH1 0xFF AND SWAP1 DUP1 PUSH1 0x1 ADD DUP1 SLOAD PUSH2 0x1221 SWAP1 PUSH2 0x2880 JUMP JUMPDEST DUP1 PUSH1 0x1F ADD PUSH1 0x20 DUP1 SWAP2 DIV MUL PUSH1 0x20 ADD PUSH1 0x40 MLOAD SWAP1 DUP2 ADD PUSH1 0x40 MSTORE DUP1 SWAP3 SWAP2 SWAP1 DUP2 DUP2 MSTORE PUSH1 0x20 ADD DUP3 DUP1 SLOAD PUSH2 0x124D SWAP1 PUSH2 0x2880 JUMP JUMPDEST DUP1 ISZERO PUSH2 0x129A JUMPI DUP1 PUSH1 0x1F LT PUSH2 0x126F JUMPI PUSH2 0x100 DUP1 DUP4 SLOAD DIV MUL DUP4 MSTORE SWAP2 PUSH1 0x20 ADD SWAP2 PUSH2 0x129A JUMP JUMPDEST DUP3 ADD SWAP2 SWAP1 PUSH1 0x0 MSTORE PUSH1 0x20 PUSH1 0x0 KECCAK256 SWAP1 JUMPDEST DUP2 SLOAD DUP2 MSTORE SWAP1 PUSH1 0x1 ADD SWAP1 PUSH1 0x20 ADD DUP1 DUP4 GT PUSH2 0x127D JUMPI DUP3 SWAP1 SUB PUSH1 0x1F AND DUP3 ADD SWAP2 JUMPDEST POP POP POP POP POP SWAP1 DUP1 PUSH1 0x2 ADD PUSH1 0x0 SWAP1 SLOAD SWAP1 PUSH2 0x100 EXP SWAP1 DIV PUSH1 0xFF AND SWAP1 POP DUP4 JUMP JUMPDEST PUSH1 0x9 PUSH1 0x20 MSTORE DUP1 PUSH1 0x0 MSTORE PUSH1 0x40 PUSH1 0x0 KECCAK256 PUSH1 0x0 SWAP2 POP SWAP1 POP DUP1 PUSH1 0x0 ADD PUSH1 0x0 SWAP1 SLOAD SWAP1 PUSH2 0x100 EXP SWAP1 DIV PUSH1 0xFF AND SWAP1 DUP1 PUSH1 0x1 ADD DUP1 SLOAD PUSH2 0x12ED SWAP1 PUSH2 0x2880 JUMP JUMPDEST DUP1 PUSH1 0x1F ADD PUSH1 0x20 DUP1 SWAP2 DIV MUL PUSH1 0x20 ADD PUSH1 0x40 MLOAD SWAP1 DUP2 ADD PUSH1 0x40 MSTORE DUP1 SWAP3 SWAP2 SWAP1 DUP2 DUP2 MSTORE PUSH1 0x20 ADD DUP3 DUP1 SLOAD PUSH2 0x1319 SWAP1 PUSH2 0x2880 JUMP JUMPDEST DUP1 ISZERO PUSH2 0x1366 JUMPI DUP1 PUSH1 0x1F LT PUSH2 0x133B JUMPI PUSH2 0x100 DUP1 DUP4 SLOAD DIV MUL DUP4 MSTORE SWAP2 PUSH1 0x20 ADD SWAP2 PUSH2 0x1366 JUMP JUMPDEST DUP3 ADD SWAP2 SWAP1 PUSH1 0x0 MSTORE PUSH1 0x20 PUSH1 0x0 KECCAK256 SWAP1 JUMPDEST DUP2 SLOAD DUP2 MSTORE SWAP1 PUSH1 0x1 ADD SWAP1 PUSH1 0x20 ADD DUP1 DUP4 GT PUSH2 0x1349 JUMPI DUP3 SWAP1 SUB PUSH1 0x1F AND DUP3 ADD SWAP2 JUMPDEST POP POP POP POP POP SWAP1 DUP1 PUSH1 0x2 ADD PUSH1 0x0 SWAP1 SLOAD SWAP1 PUSH2 0x100 EXP SWAP1 DIV PUSH1 0xFF AND SWAP1 POP DUP4 JUMP JUMPDEST PUSH1 0x1 PUSH1 0x0 SWAP1 SLOAD SWAP1 PUSH2 0x100 EXP SWAP1 DIV PUSH20 0xFFFFFFFFFFFFFFFFFFFFFFFFFFFFFFFFFFFFFFFF AND PUSH20 0xFFFFFFFFFFFFFFFFFFFFFFFFFFFFFFFFFFFFFFFF AND CALLER PUSH20 0xFFFFFFFFFFFFFFFFFFFFFFFFFFFFFFFFFFFFFFFF AND EQ PUSH2 0x1413 JUMPI PUSH1 0x40 MLOAD PUSH32 0x8C379A000000000000000000000000000000000000000000000000000000000 DUP2 MSTORE PUSH1 0x4 ADD PUSH2 0x140A SWAP1 PUSH2 0x26C4 JUMP JUMPDEST PUSH1 0x40 MLOAD DUP1 SWAP2 SUB SWAP1 REVERT JUMPDEST PUSH1 0xA PUSH1 0x0 DUP5 PUSH20 0xFFFFFFFFFFFFFFFFFFFFFFFFFFFFFFFFFFFFFFFF AND PUSH20 0xFFFFFFFFFFFFFFFFFFFFFFFFFFFFFFFFFFFFFFFF AND DUP2 MSTORE PUSH1 0x20 ADD SWAP1 DUP2 MSTORE PUSH1 0x20 ADD PUSH1 0x0 KECCAK256 PUSH1 0x0 ADD PUSH1 0x0 SWAP1 SLOAD SWAP1 PUSH2 0x100 EXP SWAP1 DIV PUSH1 0xFF AND ISZERO PUSH2 0x14A3 JUMPI PUSH1 0x40 MLOAD PUSH32 0x8C379A000000000000000000000000000000000000000000000000000000000 DUP2 MSTORE PUSH1 0x4 ADD PUSH2 0x149A SWAP1 PUSH2 0x2604 JUMP JUMPDEST PUSH1 0x40 MLOAD DUP1 SWAP2 SUB SWAP1 REVERT JUMPDEST PUSH1 0x1 PUSH1 0xA PUSH1 0x0 DUP6 PUSH20 0xFFFFFFFFFFFFFFFFFFFFFFFFFFFFFFFFFFFFFFFF AND PUSH20 0xFFFFFFFFFFFFFFFFFFFFFFFFFFFFFFFFFFFFFFFF AND DUP2 MSTORE PUSH1 0x20 ADD SWAP1 DUP2 MSTORE PUSH1 0x20 ADD PUSH1 0x0 KECCAK256 PUSH1 0x0 ADD PUSH1 0x0 PUSH2 0x100 EXP DUP2 SLOAD DUP2 PUSH1 0xFF MUL NOT AND SWAP1 DUP4 ISZERO ISZERO MUL OR SWAP1 SSTORE POP DUP2 PUSH1 0xA PUSH1 0x0 DUP6 PUSH20 0xFFFFFFFFFFFFFFFFFFFFFFFFFFFFFFFFFFFFFFFF AND PUSH20 0xFFFFFFFFFFFFFFFFFFFFFFFFFFFFFFFFFFFFFFFF AND DUP2 MSTORE PUSH1 0x20 ADD SWAP1 DUP2 MSTORE PUSH1 0x20 ADD PUSH1 0x0 KECCAK256 PUSH1 0x1 ADD SWAP1 DUP1 MLOAD SWAP1 PUSH1 0x20 ADD SWAP1 PUSH2 0x1554 SWAP3 SWAP2 SWAP1 PUSH2 0x1D8F JUMP JUMPDEST POP DUP1 PUSH1 0xA PUSH1 0x0 DUP6 PUSH20 0xFFFFFFFFFFFFFFFFFFFFFFFFFFFFFFFFFFFFFFFF AND PUSH20 0xFFFFFFFFFFFFFFFFFFFFFFFFFFFFFFFFFFFFFFFF AND DUP2 MSTORE PUSH1 0x20 ADD SWAP1 DUP2 MSTORE PUSH1 0x20 ADD PUSH1 0x0 KECCAK256 PUSH1 0x2 ADD PUSH1 0x0 PUSH2 0x100 EXP DUP2 SLOAD DUP2 PUSH1 0xFF MUL NOT AND SWAP1 DUP4 PUSH1 0xFF AND MUL OR SWAP1 SSTORE POP PUSH32 0x8F8201CCEB68E4CB53475BB7A54A85F719008AEE80F1291DBA111A7406B2073 DUP4 DUP4 DUP4 PUSH1 0x40 MLOAD PUSH2 0x15E3 SWAP4 SWAP3 SWAP2 SWAP1 PUSH2 0x2432 JUMP JUMPDEST PUSH1 0x40 MLOAD DUP1 SWAP2 SUB SWAP1 LOG1 POP POP POP JUMP JUMPDEST PUSH1 0xB PUSH1 0x20 MSTORE DUP1 PUSH1 0x0 MSTORE PUSH1 0x40 PUSH1 0x0 KECCAK256 PUSH1 0x0 SWAP2 POP SWAP1 POP DUP1 PUSH1 0x0 ADD PUSH1 0x0 SWAP1 SLOAD SWAP1 PUSH2 0x100 EXP SWAP1 DIV PUSH4 0xFFFFFFFF AND SWAP1 DUP1 PUSH1 0x1 ADD DUP1 SLOAD PUSH2 0x1629 SWAP1 PUSH2 0x2880 JUMP JUMPDEST DUP1 PUSH1 0x1F ADD PUSH1 0x20 DUP1 SWAP2 DIV MUL PUSH1 0x20 ADD PUSH1 0x40 MLOAD SWAP1 DUP2 ADD PUSH1 0x40 MSTORE DUP1 SWAP3 SWAP2 SWAP1 DUP2 DUP2 MSTORE PUSH1 0x20 ADD DUP3 DUP1 SLOAD PUSH2 0x1655 SWAP1 PUSH2 0x2880 JUMP JUMPDEST DUP1 ISZERO PUSH2 0x16A2 JUMPI DUP1 PUSH1 0x1F LT PUSH2 0x1677 JUMPI PUSH2 0x100 DUP1 DUP4 SLOAD DIV MUL DUP4 MSTORE SWAP2 PUSH1 0x20 ADD SWAP2 PUSH2 0x16A2 JUMP JUMPDEST DUP3 ADD SWAP2 SWAP1 PUSH1 0x0 MSTORE PUSH1 0x20 PUSH1 0x0 KECCAK256 SWAP1 JUMPDEST DUP2 SLOAD DUP2 MSTORE SWAP1 PUSH1 0x1 ADD SWAP1 PUSH1 0x20 ADD DUP1 DUP4 GT PUSH2 0x1685 JUMPI DUP3 SWAP1 SUB PUSH1 0x1F AND DUP3 ADD SWAP2 JUMPDEST POP POP POP POP POP SWAP1 POP DUP3 JUMP JUMPDEST PUSH1 0x5 PUSH1 0x20 MSTORE DUP1 PUSH1 0x0 MSTORE PUSH1 0x40 PUSH1 0x0 KECCAK256 PUSH1 0x0 SWAP2 POP SWAP1 POP DUP1 PUSH1 0x0 ADD PUSH1 0x0 SWAP1 SLOAD SWAP1 PUSH2 0x100 EXP SWAP1 DIV PUSH1 0xFF AND SWAP1 DUP1 PUSH1 0x0 ADD PUSH1 0x1 SWAP1 SLOAD SWAP1 PUSH2 0x100 EXP SWAP1 DIV PUSH20 0xFFFFFFFFFFFFFFFFFFFFFFFFFFFFFFFFFFFFFFFF AND SWAP1 DUP1 PUSH1 0x0 ADD PUSH1 0x15 SWAP1 SLOAD SWAP1 PUSH2 0x100 EXP SWAP1 DIV PUSH2 0xFFFF AND SWAP1 DUP1 PUSH1 0x0 ADD PUSH1 0x17 SWAP1 SLOAD SWAP1 PUSH2 0x100 EXP SWAP1 DIV PUSH1 0xFF AND SWAP1 DUP1 PUSH1 0x1 ADD DUP1 SLOAD PUSH2 0x172F SWAP1 PUSH2 0x2880 JUMP JUMPDEST DUP1 PUSH1 0x1F ADD PUSH1 0x20 DUP1 SWAP2 DIV MUL PUSH1 0x20 ADD PUSH1 0x40 MLOAD SWAP1 DUP2 ADD PUSH1 0x40 MSTORE DUP1 SWAP3 SWAP2 SWAP1 DUP2 DUP2 MSTORE PUSH1 0x20 ADD DUP3 DUP1 SLOAD PUSH2 0x175B SWAP1 PUSH2 0x2880 JUMP JUMPDEST DUP1 ISZERO PUSH2 0x17A8 JUMPI DUP1 PUSH1 0x1F LT PUSH2 0x177D JUMPI PUSH2 0x100 DUP1 DUP4 SLOAD DIV MUL DUP4 MSTORE SWAP2 PUSH1 0x20 ADD SWAP2 PUSH2 0x17A8 JUMP JUMPDEST DUP3 ADD SWAP2 SWAP1 PUSH1 0x0 MSTORE PUSH1 0x20 PUSH1 0x0 KECCAK256 SWAP1 JUMPDEST DUP2 SLOAD DUP2 MSTORE SWAP1 PUSH1 0x1 ADD SWAP1 PUSH1 0x20 ADD DUP1 DUP4 GT PUSH2 0x178B JUMPI DUP3 SWAP1 SUB PUSH1 0x1F AND DUP3 ADD SWAP2 JUMPDEST POP POP POP POP POP SWAP1 DUP1 PUSH1 0x2 ADD DUP1 SLOAD PUSH2 0x17BD SWAP1 PUSH2 0x2880 JUMP JUMPDEST DUP1 PUSH1 0x1F ADD PUSH1 0x20 DUP1 SWAP2 DIV MUL PUSH1 0x20 ADD PUSH1 0x40 MLOAD SWAP1 DUP2 ADD PUSH1 0x40 MSTORE DUP1 SWAP3 SWAP2 SWAP1 DUP2 DUP2 MSTORE PUSH1 0x20 ADD DUP3 DUP1 SLOAD PUSH2 0x17E9 SWAP1 PUSH2 0x2880 JUMP JUMPDEST DUP1 ISZERO PUSH2 0x1836 JUMPI DUP1 PUSH1 0x1F LT PUSH2 0x180B JUMPI PUSH2 0x100 DUP1 DUP4 SLOAD DIV MUL DUP4 MSTORE SWAP2 PUSH1 0x20 ADD SWAP2 PUSH2 0x1836 JUMP JUMPDEST DUP3 ADD SWAP2 SWAP1 PUSH1 0x0 MSTORE PUSH1 0x20 PUSH1 0x0 KECCAK256 SWAP1 JUMPDEST DUP2 SLOAD DUP2 MSTORE SWAP1 PUSH1 0x1 ADD SWAP1 PUSH1 0x20 ADD DUP1 DUP4 GT PUSH2 0x1819 JUMPI DUP3 SWAP1 SUB PUSH1 0x1F AND DUP3 ADD SWAP2 JUMPDEST POP POP POP POP POP SWAP1 POP DUP7 JUMP JUMPDEST PUSH1 0x3 PUSH1 0x20 MSTORE DUP1 PUSH1 0x0 MSTORE PUSH1 0x40 PUSH1 0x0 KECCAK256 PUSH1 0x0 SWAP2 POP SWAP1 POP DUP1 PUSH1 0x0 ADD PUSH1 0x0 SWAP1 SLOAD SWAP1 PUSH2 0x100 EXP SWAP1 DIV PUSH1 0xFF AND SWAP1 POP DUP2 JUMP JUMPDEST PUSH1 0x1 PUSH1 0x0 SWAP1 SLOAD SWAP1 PUSH2 0x100 EXP SWAP1 DIV PUSH20 0xFFFFFFFFFFFFFFFFFFFFFFFFFFFFFFFFFFFFFFFF AND PUSH20 0xFFFFFFFFFFFFFFFFFFFFFFFFFFFFFFFFFFFFFFFF AND CALLER PUSH20 0xFFFFFFFFFFFFFFFFFFFFFFFFFFFFFFFFFFFFFFFF AND EQ PUSH2 0x18FB JUMPI PUSH1 0x40 MLOAD PUSH32 0x8C379A000000000000000000000000000000000000000000000000000000000 DUP2 MSTORE PUSH1 0x4 ADD PUSH2 0x18F2 SWAP1 PUSH2 0x26C4 JUMP JUMPDEST PUSH1 0x40 MLOAD DUP1 SWAP2 SUB SWAP1 REVERT JUMPDEST PUSH1 0x6 PUSH1 0x0 DUP6 PUSH20 0xFFFFFFFFFFFFFFFFFFFFFFFFFFFFFFFFFFFFFFFF AND PUSH20 0xFFFFFFFFFFFFFFFFFFFFFFFFFFFFFFFFFFFFFFFF AND DUP2 MSTORE PUSH1 0x20 ADD SWAP1 DUP2 MSTORE PUSH1 0x20 ADD PUSH1 0x0 KECCAK256 PUSH1 0x0 ADD PUSH1 0x0 SWAP1 SLOAD SWAP1 PUSH2 0x100 EXP SWAP1 DIV PUSH1 0xFF AND ISZERO PUSH2 0x198B JUMPI PUSH1 0x40 MLOAD PUSH32 0x8C379A000000000000000000000000000000000000000000000000000000000 DUP2 MSTORE PUSH1 0x4 ADD PUSH2 0x1982 SWAP1 PUSH2 0x25C4 JUMP JUMPDEST PUSH1 0x40 MLOAD DUP1 SWAP2 SUB SWAP1 REVERT JUMPDEST PUSH1 0x1 PUSH1 0x6 PUSH1 0x0 DUP7 PUSH20 0xFFFFFFFFFFFFFFFFFFFFFFFFFFFFFFFFFFFFFFFF AND PUSH20 0xFFFFFFFFFFFFFFFFFFFFFFFFFFFFFFFFFFFFFFFF AND DUP2 MSTORE PUSH1 0x20 ADD SWAP1 DUP2 MSTORE PUSH1 0x20 ADD PUSH1 0x0 KECCAK256 PUSH1 0x0 ADD PUSH1 0x0 PUSH2 0x100 EXP DUP2 SLOAD DUP2 PUSH1 0xFF MUL NOT AND SWAP1 DUP4 ISZERO ISZERO MUL OR SWAP1 SSTORE POP DUP3 PUSH1 0x6 PUSH1 0x0 DUP7 PUSH20 0xFFFFFFFFFFFFFFFFFFFFFFFFFFFFFFFFFFFFFFFF AND PUSH20 0xFFFFFFFFFFFFFFFFFFFFFFFFFFFFFFFFFFFFFFFF AND DUP2 MSTORE PUSH1 0x20 ADD SWAP1 DUP2 MSTORE PUSH1 0x20 ADD PUSH1 0x0 KECCAK256 PUSH1 0x2 ADD SWAP1 DUP1 MLOAD SWAP1 PUSH1 0x20 ADD SWAP1 PUSH2 0x1A3C SWAP3 SWAP2 SWAP1 PUSH2 0x1D8F JUMP JUMPDEST POP DUP1 PUSH1 0x6 PUSH1 0x0 DUP7 PUSH20 0xFFFFFFFFFFFFFFFFFFFFFFFFFFFFFFFFFFFFFFFF AND PUSH20 0xFFFFFFFFFFFFFFFFFFFFFFFFFFFFFFFFFFFFFFFF AND DUP2 MSTORE PUSH1 0x20 ADD SWAP1 DUP2 MSTORE PUSH1 0x20 ADD PUSH1 0x0 KECCAK256 PUSH1 0x0 ADD PUSH1 0x1 PUSH2 0x100 EXP DUP2 SLOAD DUP2 PUSH1 0xFF MUL NOT AND SWAP1 DUP4 PUSH1 0xFF AND MUL OR SWAP1 SSTORE POP DUP2 PUSH1 0x6 PUSH1 0x0 DUP7 PUSH20 0xFFFFFFFFFFFFFFFFFFFFFFFFFFFFFFFFFFFFFFFF AND PUSH20 0xFFFFFFFFFFFFFFFFFFFFFFFFFFFFFFFFFFFFFFFF AND DUP2 MSTORE PUSH1 0x20 ADD SWAP1 DUP2 MSTORE PUSH1 0x20 ADD PUSH1 0x0 KECCAK256 PUSH1 0x1 ADD DUP2 SWAP1 SSTORE POP PUSH32 0x4C80D824213BE57ABDCC652FAAFEA948BED864EBF9677D2A9DCB5EFA217E88D6 DUP5 DUP5 DUP5 DUP5 PUSH1 0x40 MLOAD PUSH2 0x1B14 SWAP5 SWAP4 SWAP3 SWAP2 SWAP1 PUSH2 0x23E6 JUMP JUMPDEST PUSH1 0x40 MLOAD DUP1 SWAP2 SUB SWAP1 LOG1 POP POP POP POP JUMP JUMPDEST PUSH1 0x2 PUSH1 0x0 SWAP1 SLOAD SWAP1 PUSH2 0x100 EXP SWAP1 DIV PUSH20 0xFFFFFFFFFFFFFFFFFFFFFFFFFFFFFFFFFFFFFFFF AND PUSH20 0xFFFFFFFFFFFFFFFFFFFFFFFFFFFFFFFFFFFFFFFF AND CALLER PUSH20 0xFFFFFFFFFFFFFFFFFFFFFFFFFFFFFFFFFFFFFFFF AND EQ PUSH2 0x1BB2 JUMPI PUSH1 0x40 MLOAD PUSH32 0x8C379A000000000000000000000000000000000000000000000000000000000 DUP2 MSTORE PUSH1 0x4 ADD PUSH2 0x1BA9 SWAP1 PUSH2 0x25E4 JUMP JUMPDEST PUSH1 0x40 MLOAD DUP1 SWAP2 SUB SWAP1 REVERT JUMPDEST PUSH1 0x8 PUSH1 0x0 DUP5 PUSH20 0xFFFFFFFFFFFFFFFFFFFFFFFFFFFFFFFFFFFFFFFF AND PUSH20 0xFFFFFFFFFFFFFFFFFFFFFFFFFFFFFFFFFFFFFFFF AND DUP2 MSTORE PUSH1 0x20 ADD SWAP1 DUP2 MSTORE PUSH1 0x20 ADD PUSH1 0x0 KECCAK256 PUSH1 0x0 ADD PUSH1 0x0 SWAP1 SLOAD SWAP1 PUSH2 0x100 EXP SWAP1 DIV PUSH1 0xFF AND ISZERO PUSH2 0x1C42 JUMPI PUSH1 0x40 MLOAD PUSH32 0x8C379A000000000000000000000000000000000000000000000000000000000 DUP2 MSTORE PUSH1 0x4 ADD PUSH2 0x1C39 SWAP1 PUSH2 0x26A4 JUMP JUMPDEST PUSH1 0x40 MLOAD DUP1 SWAP2 SUB SWAP1 REVERT JUMPDEST PUSH1 0x1 PUSH1 0x8 PUSH1 0x0 DUP6 PUSH20 0xFFFFFFFFFFFFFFFFFFFFFFFFFFFFFFFFFFFFFFFF AND PUSH20 0xFFFFFFFFFFFFFFFFFFFFFFFFFFFFFFFFFFFFFFFF AND DUP2 MSTORE PUSH1 0x20 ADD SWAP1 DUP2 MSTORE PUSH1 0x20 ADD PUSH1 0x0 KECCAK256 PUSH1 0x0 ADD PUSH1 0x0 PUSH2 0x100 EXP DUP2 SLOAD DUP2 PUSH1 0xFF MUL NOT AND SWAP1 DUP4 ISZERO ISZERO MUL OR SWAP1 SSTORE POP DUP2 PUSH1 0x8 PUSH1 0x0 DUP6 PUSH20 0xFFFFFFFFFFFFFFFFFFFFFFFFFFFFFFFFFFFFFFFF AND PUSH20 0xFFFFFFFFFFFFFFFFFFFFFFFFFFFFFFFFFFFFFFFF AND DUP2 MSTORE PUSH1 0x20 ADD SWAP1 DUP2 MSTORE PUSH1 0x20 ADD PUSH1 0x0 KECCAK256 PUSH1 0x1 ADD SWAP1 DUP1 MLOAD SWAP1 PUSH1 0x20 ADD SWAP1 PUSH2 0x1CF3 SWAP3 SWAP2 SWAP1 PUSH2 0x1D8F JUMP JUMPDEST POP DUP1 PUSH1 0x8 PUSH1 0x0 DUP6 PUSH20 0xFFFFFFFFFFFFFFFFFFFFFFFFFFFFFFFFFFFFFFFF AND PUSH20 0xFFFFFFFFFFFFFFFFFFFFFFFFFFFFFFFFFFFFFFFF AND DUP2 MSTORE PUSH1 0x20 ADD SWAP1 DUP2 MSTORE PUSH1 0x20 ADD PUSH1 0x0 KECCAK256 PUSH1 0x2 ADD PUSH1 0x0 PUSH2 0x100 EXP DUP2 SLOAD DUP2 PUSH1 0xFF MUL NOT AND SWAP1 DUP4 PUSH1 0xFF AND MUL OR SWAP1 SSTORE POP PUSH32 0x3ED49D581DB34CA478F2E99AEAE4B5F44D7EFD3DB61BF20BC6D9212BF34F4AEF DUP4 DUP4 DUP4 PUSH1 0x40 MLOAD PUSH2 0x1D82 SWAP4 SWAP3 SWAP2 SWAP1 PUSH2 0x2432 JUMP JUMPDEST PUSH1 0x40 MLOAD DUP1 SWAP2 SUB SWAP1 LOG1 POP POP POP JUMP JUMPDEST DUP3 DUP1 SLOAD PUSH2 0x1D9B SWAP1 PUSH2 0x2880 JUMP JUMPDEST SWAP1 PUSH1 0x0 MSTORE PUSH1 0x20 PUSH1 0x0 KECCAK256 SWAP1 PUSH1 0x1F ADD PUSH1 0x20 SWAP1 DIV DUP2 ADD SWAP3 DUP3 PUSH2 0x1DBD JUMPI PUSH1 0x0 DUP6 SSTORE PUSH2 0x1E04 JUMP JUMPDEST DUP3 PUSH1 0x1F LT PUSH2 0x1DD6 JUMPI DUP1 MLOAD PUSH1 0xFF NOT AND DUP4 DUP1 ADD OR DUP6 SSTORE PUSH2 0x1E04 JUMP JUMPDEST DUP3 DUP1 ADD PUSH1 0x1 ADD DUP6 SSTORE DUP3 ISZERO PUSH2 0x1E04 JUMPI SWAP2 DUP3 ADD JUMPDEST DUP3 DUP2 GT ISZERO PUSH2 0x1E03 JUMPI DUP3 MLOAD DUP3 SSTORE SWAP2 PUSH1 0x20 ADD SWAP2 SWAP1 PUSH1 0x1 ADD SWAP1 PUSH2 0x1DE8 JUMP JUMPDEST JUMPDEST POP SWAP1 POP PUSH2 0x1E11 SWAP2 SWAP1 PUSH2 0x1E15 JUMP JUMPDEST POP SWAP1 JUMP JUMPDEST JUMPDEST DUP1 DUP3 GT ISZERO PUSH2 0x1E2E JUMPI PUSH1 0x0 DUP2 PUSH1 0x0 SWAP1 SSTORE POP PUSH1 0x1 ADD PUSH2 0x1E16 JUMP JUMPDEST POP SWAP1 JUMP JUMPDEST PUSH1 0x0 PUSH2 0x1E45 PUSH2 0x1E40 DUP5 PUSH2 0x2759 JUMP JUMPDEST PUSH2 0x2734 JUMP JUMPDEST SWAP1 POP DUP3 DUP2 MSTORE PUSH1 0x20 DUP2 ADD DUP5 DUP5 DUP5 ADD GT ISZERO PUSH2 0x1E61 JUMPI PUSH2 0x1E60 PUSH2 0x2975 JUMP JUMPDEST JUMPDEST PUSH2 0x1E6C DUP5 DUP3 DUP6 PUSH2 0x283E JUMP JUMPDEST POP SWAP4 SWAP3 POP POP POP JUMP JUMPDEST PUSH1 0x0 DUP2 CALLDATALOAD SWAP1 POP PUSH2 0x1E83 DUP2 PUSH2 0x2BE1 JUMP JUMPDEST SWAP3 SWAP2 POP POP JUMP JUMPDEST PUSH1 0x0 DUP2 CALLDATALOAD SWAP1 POP PUSH2 0x1E98 DUP2 PUSH2 0x2BF8 JUMP JUMPDEST SWAP3 SWAP2 POP POP JUMP JUMPDEST PUSH1 0x0 DUP3 PUSH1 0x1F DUP4 ADD SLT PUSH2 0x1EB3 JUMPI PUSH2 0x1EB2 PUSH2 0x2970 JUMP JUMPDEST JUMPDEST DUP2 CALLDATALOAD PUSH2 0x1EC3 DUP5 DUP3 PUSH1 0x20 DUP7 ADD PUSH2 0x1E32 JUMP JUMPDEST SWAP2 POP POP SWAP3 SWAP2 POP POP JUMP JUMPDEST PUSH1 0x0 DUP2 CALLDATALOAD SWAP1 POP PUSH2 0x1EDB DUP2 PUSH2 0x2C08 JUMP JUMPDEST SWAP3 SWAP2 POP POP JUMP JUMPDEST PUSH1 0x0 DUP2 CALLDATALOAD SWAP1 POP PUSH2 0x1EF0 DUP2 PUSH2 0x2C1F JUMP JUMPDEST SWAP3 SWAP2 POP POP JUMP JUMPDEST PUSH1 0x0 DUP2 CALLDATALOAD SWAP1 POP PUSH2 0x1F05 DUP2 PUSH2 0x2C36 JUMP JUMPDEST SWAP3 SWAP2 POP POP JUMP JUMPDEST PUSH1 0x0 DUP2 CALLDATALOAD SWAP1 POP PUSH2 0x1F1A DUP2 PUSH2 0x2C4D JUMP JUMPDEST SWAP3 SWAP2 POP POP JUMP JUMPDEST PUSH1 0x0 PUSH1 0x20 DUP3 DUP5 SUB SLT ISZERO PUSH2 0x1F36 JUMPI PUSH2 0x1F35 PUSH2 0x297F JUMP JUMPDEST JUMPDEST PUSH1 0x0 PUSH2 0x1F44 DUP5 DUP3 DUP6 ADD PUSH2 0x1E74 JUMP JUMPDEST SWAP2 POP POP SWAP3 SWAP2 POP POP JUMP JUMPDEST PUSH1 0x0 DUP1 PUSH1 0x0 DUP1 PUSH1 0x0 DUP1 PUSH1 0xC0 DUP8 DUP10 SUB SLT ISZERO PUSH2 0x1F6A JUMPI PUSH2 0x1F69 PUSH2 0x297F JUMP JUMPDEST JUMPDEST PUSH1 0x0 PUSH2 0x1F78 DUP10 DUP3 DUP11 ADD PUSH2 0x1E74 JUMP JUMPDEST SWAP7 POP POP PUSH1 0x20 PUSH2 0x1F89 DUP10 DUP3 DUP11 ADD PUSH2 0x1E74 JUMP JUMPDEST SWAP6 POP POP PUSH1 0x40 DUP8 ADD CALLDATALOAD PUSH8 0xFFFFFFFFFFFFFFFF DUP2 GT ISZERO PUSH2 0x1FAA JUMPI PUSH2 0x1FA9 PUSH2 0x297A JUMP JUMPDEST JUMPDEST PUSH2 0x1FB6 DUP10 DUP3 DUP11 ADD PUSH2 0x1E9E JUMP JUMPDEST SWAP5 POP POP PUSH1 0x60 DUP8 ADD CALLDATALOAD PUSH8 0xFFFFFFFFFFFFFFFF DUP2 GT ISZERO PUSH2 0x1FD7 JUMPI PUSH2 0x1FD6 PUSH2 0x297A JUMP JUMPDEST JUMPDEST PUSH2 0x1FE3 DUP10 DUP3 DUP11 ADD PUSH2 0x1E9E JUMP JUMPDEST SWAP4 POP POP PUSH1 0x80 PUSH2 0x1FF4 DUP10 DUP3 DUP11 ADD PUSH2 0x1ECC JUMP JUMPDEST SWAP3 POP POP PUSH1 0xA0 PUSH2 0x2005 DUP10 DUP3 DUP11 ADD PUSH2 0x1E89 JUMP JUMPDEST SWAP2 POP POP SWAP3 SWAP6 POP SWAP3 SWAP6 POP SWAP3 SWAP6 JUMP JUMPDEST PUSH1 0x0 DUP1 PUSH1 0x0 DUP1 PUSH1 0x80 DUP6 DUP8 SUB SLT ISZERO PUSH2 0x202C JUMPI PUSH2 0x202B PUSH2 0x297F JUMP JUMPDEST JUMPDEST PUSH1 0x0 PUSH2 0x203A DUP8 DUP3 DUP9 ADD PUSH2 0x1E74 JUMP JUMPDEST SWAP5 POP POP PUSH1 0x20 DUP6 ADD CALLDATALOAD PUSH8 0xFFFFFFFFFFFFFFFF DUP2 GT ISZERO PUSH2 0x205B JUMPI PUSH2 0x205A PUSH2 0x297A JUMP JUMPDEST JUMPDEST PUSH2 0x2067 DUP8 DUP3 DUP9 ADD PUSH2 0x1E9E JUMP JUMPDEST SWAP4 POP POP PUSH1 0x40 PUSH2 0x2078 DUP8 DUP3 DUP9 ADD PUSH2 0x1EE1 JUMP JUMPDEST SWAP3 POP POP PUSH1 0x60 PUSH2 0x2089 DUP8 DUP3 DUP9 ADD PUSH2 0x1F0B JUMP JUMPDEST SWAP2 POP POP SWAP3 SWAP6 SWAP2 SWAP5 POP SWAP3 POP JUMP JUMPDEST PUSH1 0x0 DUP1 PUSH1 0x0 PUSH1 0x60 DUP5 DUP7 SUB SLT ISZERO PUSH2 0x20AE JUMPI PUSH2 0x20AD PUSH2 0x297F JUMP JUMPDEST JUMPDEST PUSH1 0x0 PUSH2 0x20BC DUP7 DUP3 DUP8 ADD PUSH2 0x1E74 JUMP JUMPDEST SWAP4 POP POP PUSH1 0x20 DUP5 ADD CALLDATALOAD PUSH8 0xFFFFFFFFFFFFFFFF DUP2 GT ISZERO PUSH2 0x20DD JUMPI PUSH2 0x20DC PUSH2 0x297A JUMP JUMPDEST JUMPDEST PUSH2 0x20E9 DUP7 DUP3 DUP8 ADD PUSH2 0x1E9E JUMP JUMPDEST SWAP3 POP POP PUSH1 0x40 PUSH2 0x20FA DUP7 DUP3 DUP8 ADD PUSH2 0x1F0B JUMP JUMPDEST SWAP2 POP POP SWAP3 POP SWAP3 POP SWAP3 JUMP JUMPDEST PUSH1 0x0 PUSH1 0x20 DUP3 DUP5 SUB SLT ISZERO PUSH2 0x211A JUMPI PUSH2 0x2119 PUSH2 0x297F JUMP JUMPDEST JUMPDEST PUSH1 0x0 PUSH2 0x2128 DUP5 DUP3 DUP6 ADD PUSH2 0x1EF6 JUMP JUMPDEST SWAP2 POP POP SWAP3 SWAP2 POP POP JUMP JUMPDEST PUSH2 0x213A DUP2 PUSH2 0x27A6 JUMP JUMPDEST DUP3 MSTORE POP POP JUMP JUMPDEST PUSH2 0x2149 DUP2 PUSH2 0x27B8 JUMP JUMPDEST DUP3 MSTORE POP POP JUMP JUMPDEST PUSH2 0x2158 DUP2 PUSH2 0x282C JUMP JUMPDEST DUP3 MSTORE POP POP JUMP JUMPDEST PUSH1 0x0 PUSH2 0x2169 DUP3 PUSH2 0x278A JUMP JUMPDEST PUSH2 0x2173 DUP2 DUP6 PUSH2 0x2795 JUMP JUMPDEST SWAP4 POP PUSH2 0x2183 DUP2 DUP6 PUSH1 0x20 DUP7 ADD PUSH2 0x284D JUMP JUMPDEST PUSH2 0x218C DUP2 PUSH2 0x2984 JUMP JUMPDEST DUP5 ADD SWAP2 POP POP SWAP3 SWAP2 POP POP JUMP JUMPDEST PUSH1 0x0 PUSH2 0x21A4 PUSH1 0x1F DUP4 PUSH2 0x2795 JUMP JUMPDEST SWAP2 POP PUSH2 0x21AF DUP3 PUSH2 0x2995 JUMP JUMPDEST PUSH1 0x20 DUP3 ADD SWAP1 POP SWAP2 SWAP1 POP JUMP JUMPDEST PUSH1 0x0 PUSH2 0x21C7 PUSH1 0x18 DUP4 PUSH2 0x2795 JUMP JUMPDEST SWAP2 POP PUSH2 0x21D2 DUP3 PUSH2 0x29BE JUMP JUMPDEST PUSH1 0x20 DUP3 ADD SWAP1 POP SWAP2 SWAP1 POP JUMP JUMPDEST PUSH1 0x0 PUSH2 0x21EA PUSH1 0x12 DUP4 PUSH2 0x2795 JUMP JUMPDEST SWAP2 POP PUSH2 0x21F5 DUP3 PUSH2 0x29E7 JUMP JUMPDEST PUSH1 0x20 DUP3 ADD SWAP1 POP SWAP2 SWAP1 POP JUMP JUMPDEST PUSH1 0x0 PUSH2 0x220D PUSH1 0x1E DUP4 PUSH2 0x2795 JUMP JUMPDEST SWAP2 POP PUSH2 0x2218 DUP3 PUSH2 0x2A10 JUMP JUMPDEST PUSH1 0x20 DUP3 ADD SWAP1 POP SWAP2 SWAP1 POP JUMP JUMPDEST PUSH1 0x0 PUSH2 0x2230 PUSH1 0x1E DUP4 PUSH2 0x2795 JUMP JUMPDEST SWAP2 POP PUSH2 0x223B DUP3 PUSH2 0x2A39 JUMP JUMPDEST PUSH1 0x20 DUP3 ADD SWAP1 POP SWAP2 SWAP1 POP JUMP JUMPDEST PUSH1 0x0 PUSH2 0x2253 PUSH1 0x22 DUP4 PUSH2 0x2795 JUMP JUMPDEST SWAP2 POP PUSH2 0x225E DUP3 PUSH2 0x2A62 JUMP JUMPDEST PUSH1 0x40 DUP3 ADD SWAP1 POP SWAP2 SWAP1 POP JUMP JUMPDEST PUSH1 0x0 PUSH2 0x2276 PUSH1 0x17 DUP4 PUSH2 0x2795 JUMP JUMPDEST SWAP2 POP PUSH2 0x2281 DUP3 PUSH2 0x2AB1 JUMP JUMPDEST PUSH1 0x20 DUP3 ADD SWAP1 POP SWAP2 SWAP1 POP JUMP JUMPDEST PUSH1 0x0 PUSH2 0x2299 PUSH1 0x26 DUP4 PUSH2 0x2795 JUMP JUMPDEST SWAP2 POP PUSH2 0x22A4 DUP3 PUSH2 0x2ADA JUMP JUMPDEST PUSH1 0x40 DUP3 ADD SWAP1 POP SWAP2 SWAP1 POP JUMP JUMPDEST PUSH1 0x0 PUSH2 0x22BC PUSH1 0x18 DUP4 PUSH2 0x2795 JUMP JUMPDEST SWAP2 POP PUSH2 0x22C7 DUP3 PUSH2 0x2B29 JUMP JUMPDEST PUSH1 0x20 DUP3 ADD SWAP1 POP SWAP2 SWAP1 POP JUMP JUMPDEST PUSH1 0x0 PUSH2 0x22DF PUSH1 0x17 DUP4 PUSH2 0x2795 JUMP JUMPDEST SWAP2 POP PUSH2 0x22EA DUP3 PUSH2 0x2B52 JUMP JUMPDEST PUSH1 0x20 DUP3 ADD SWAP1 POP SWAP2 SWAP1 POP JUMP JUMPDEST PUSH1 0x0 PUSH2 0x2302 PUSH1 0x20 DUP4 PUSH2 0x2795 JUMP JUMPDEST SWAP2 POP PUSH2 0x230D DUP3 PUSH2 0x2B7B JUMP JUMPDEST PUSH1 0x20 DUP3 ADD SWAP1 POP SWAP2 SWAP1 POP JUMP JUMPDEST PUSH1 0x0 PUSH2 0x2325 PUSH1 0x20 DUP4 PUSH2 0x2795 JUMP JUMPDEST SWAP2 POP PUSH2 0x2330 DUP3 PUSH2 0x2BA4 JUMP JUMPDEST PUSH1 0x20 DUP3 ADD SWAP1 POP SWAP2 SWAP1 POP JUMP JUMPDEST PUSH2 0x2344 DUP2 PUSH2 0x27D7 JUMP JUMPDEST DUP3 MSTORE POP POP JUMP JUMPDEST PUSH2 0x2353 DUP2 PUSH2 0x2805 JUMP JUMPDEST DUP3 MSTORE POP POP JUMP JUMPDEST PUSH2 0x2362 DUP2 PUSH2 0x280F JUMP JUMPDEST DUP3 MSTORE POP POP JUMP JUMPDEST PUSH2 0x2371 DUP2 PUSH2 0x281F JUMP JUMPDEST DUP3 MSTORE POP POP JUMP JUMPDEST PUSH1 0x0 PUSH1 0xC0 DUP3 ADD SWAP1 POP PUSH2 0x238C PUSH1 0x0 DUP4 ADD DUP10 PUSH2 0x2131 JUMP JUMPDEST PUSH2 0x2399 PUSH1 0x20 DUP4 ADD DUP9 PUSH2 0x2131 JUMP JUMPDEST DUP2 DUP2 SUB PUSH1 0x40 DUP4 ADD MSTORE PUSH2 0x23AB DUP2 DUP8 PUSH2 0x215E JUMP JUMPDEST SWAP1 POP DUP2 DUP2 SUB PUSH1 0x60 DUP4 ADD MSTORE PUSH2 0x23BF DUP2 DUP7 PUSH2 0x215E JUMP JUMPDEST SWAP1 POP PUSH2 0x23CE PUSH1 0x80 DUP4 ADD DUP6 PUSH2 0x233B JUMP JUMPDEST PUSH2 0x23DB PUSH1 0xA0 DUP4 ADD DUP5 PUSH2 0x214F JUMP JUMPDEST SWAP8 SWAP7 POP POP POP POP POP POP POP JUMP JUMPDEST PUSH1 0x0 PUSH1 0x80 DUP3 ADD SWAP1 POP PUSH2 0x23FB PUSH1 0x0 DUP4 ADD DUP8 PUSH2 0x2131 JUMP JUMPDEST DUP2 DUP2 SUB PUSH1 0x20 DUP4 ADD MSTORE PUSH2 0x240D DUP2 DUP7 PUSH2 0x215E JUMP JUMPDEST SWAP1 POP PUSH2 0x241C PUSH1 0x40 DUP4 ADD DUP6 PUSH2 0x234A JUMP JUMPDEST PUSH2 0x2429 PUSH1 0x60 DUP4 ADD DUP5 PUSH2 0x2368 JUMP JUMPDEST SWAP6 SWAP5 POP POP POP POP POP JUMP JUMPDEST PUSH1 0x0 PUSH1 0x60 DUP3 ADD SWAP1 POP PUSH2 0x2447 PUSH1 0x0 DUP4 ADD DUP7 PUSH2 0x2131 JUMP JUMPDEST DUP2 DUP2 SUB PUSH1 0x20 DUP4 ADD MSTORE PUSH2 0x2459 DUP2 DUP6 PUSH2 0x215E JUMP JUMPDEST SWAP1 POP PUSH2 0x2468 PUSH1 0x40 DUP4 ADD DUP5 PUSH2 0x2368 JUMP JUMPDEST SWAP5 SWAP4 POP POP POP POP JUMP JUMPDEST PUSH1 0x0 PUSH1 0x20 DUP3 ADD SWAP1 POP PUSH2 0x2485 PUSH1 0x0 DUP4 ADD DUP5 PUSH2 0x2140 JUMP JUMPDEST SWAP3 SWAP2 POP POP JUMP JUMPDEST PUSH1 0x0 PUSH1 0xC0 DUP3 ADD SWAP1 POP PUSH2 0x24A0 PUSH1 0x0 DUP4 ADD DUP10 PUSH2 0x2140 JUMP JUMPDEST PUSH2 0x24AD PUSH1 0x20 DUP4 ADD DUP9 PUSH2 0x2131 JUMP JUMPDEST PUSH2 0x24BA PUSH1 0x40 DUP4 ADD DUP8 PUSH2 0x233B JUMP JUMPDEST PUSH2 0x24C7 PUSH1 0x60 DUP4 ADD DUP7 PUSH2 0x214F JUMP JUMPDEST DUP2 DUP2 SUB PUSH1 0x80 DUP4 ADD MSTORE PUSH2 0x24D9 DUP2 DUP6 PUSH2 0x215E JUMP JUMPDEST SWAP1 POP DUP2 DUP2 SUB PUSH1 0xA0 DUP4 ADD MSTORE PUSH2 0x24ED DUP2 DUP5 PUSH2 0x215E JUMP JUMPDEST SWAP1 POP SWAP8 SWAP7 POP POP POP POP POP POP POP JUMP JUMPDEST PUSH1 0x0 PUSH1 0x60 DUP3 ADD SWAP1 POP PUSH2 0x250F PUSH1 0x0 DUP4 ADD DUP7 PUSH2 0x2140 JUMP JUMPDEST DUP2 DUP2 SUB PUSH1 0x20 DUP4 ADD MSTORE PUSH2 0x2521 DUP2 DUP6 PUSH2 0x215E JUMP JUMPDEST SWAP1 POP PUSH2 0x2530 PUSH1 0x40 DUP4 ADD DUP5 PUSH2 0x2368 JUMP JUMPDEST SWAP5 SWAP4 POP POP POP POP JUMP JUMPDEST PUSH1 0x0 PUSH1 0x80 DUP3 ADD SWAP1 POP PUSH2 0x254D PUSH1 0x0 DUP4 ADD DUP8 PUSH2 0x2140 JUMP JUMPDEST PUSH2 0x255A PUSH1 0x20 DUP4 ADD DUP7 PUSH2 0x2368 JUMP JUMPDEST PUSH2 0x2567 PUSH1 0x40 DUP4 ADD DUP6 PUSH2 0x234A JUMP JUMPDEST DUP2 DUP2 SUB PUSH1 0x60 DUP4 ADD MSTORE PUSH2 0x2579 DUP2 DUP5 PUSH2 0x215E JUMP JUMPDEST SWAP1 POP SWAP6 SWAP5 POP POP POP POP POP JUMP JUMPDEST PUSH1 0x0 PUSH1 0x20 DUP3 ADD SWAP1 POP DUP2 DUP2 SUB PUSH1 0x0 DUP4 ADD MSTORE PUSH2 0x259D DUP2 PUSH2 0x2197 JUMP JUMPDEST SWAP1 POP SWAP2 SWAP1 POP JUMP JUMPDEST PUSH1 0x0 PUSH1 0x20 DUP3 ADD SWAP1 POP DUP2 DUP2 SUB PUSH1 0x0 DUP4 ADD MSTORE PUSH2 0x25BD DUP2 PUSH2 0x21BA JUMP JUMPDEST SWAP1 POP SWAP2 SWAP1 POP JUMP JUMPDEST PUSH1 0x0 PUSH1 0x20 DUP3 ADD SWAP1 POP DUP2 DUP2 SUB PUSH1 0x0 DUP4 ADD MSTORE PUSH2 0x25DD DUP2 PUSH2 0x21DD JUMP JUMPDEST SWAP1 POP SWAP2 SWAP1 POP JUMP JUMPDEST PUSH1 0x0 PUSH1 0x20 DUP3 ADD SWAP1 POP DUP2 DUP2 SUB PUSH1 0x0 DUP4 ADD MSTORE PUSH2 0x25FD DUP2 PUSH2 0x2200 JUMP JUMPDEST SWAP1 POP SWAP2 SWAP1 POP JUMP JUMPDEST PUSH1 0x0 PUSH1 0x20 DUP3 ADD SWAP1 POP DUP2 DUP2 SUB PUSH1 0x0 DUP4 ADD MSTORE PUSH2 0x261D DUP2 PUSH2 0x2223 JUMP JUMPDEST SWAP1 POP SWAP2 SWAP1 POP JUMP JUMPDEST PUSH1 0x0 PUSH1 0x20 DUP3 ADD SWAP1 POP DUP2 DUP2 SUB PUSH1 0x0 DUP4 ADD MSTORE PUSH2 0x263D DUP2 PUSH2 0x2246 JUMP JUMPDEST SWAP1 POP SWAP2 SWAP1 POP JUMP JUMPDEST PUSH1 0x0 PUSH1 0x20 DUP3 ADD SWAP1 POP DUP2 DUP2 SUB PUSH1 0x0 DUP4 ADD MSTORE PUSH2 0x265D DUP2 PUSH2 0x2269 JUMP JUMPDEST SWAP1 POP SWAP2 SWAP1 POP JUMP JUMPDEST PUSH1 0x0 PUSH1 0x20 DUP3 ADD SWAP1 POP DUP2 DUP2 SUB PUSH1 0x0 DUP4 ADD MSTORE PUSH2 0x267D DUP2 PUSH2 0x228C JUMP JUMPDEST SWAP1 POP SWAP2 SWAP1 POP JUMP JUMPDEST PUSH1 0x0 PUSH1 0x20 DUP3 ADD SWAP1 POP DUP2 DUP2 SUB PUSH1 0x0 DUP4 ADD MSTORE PUSH2 0x269D DUP2 PUSH2 0x22AF JUMP JUMPDEST SWAP1 POP SWAP2 SWAP1 POP JUMP JUMPDEST PUSH1 0x0 PUSH1 0x20 DUP3 ADD SWAP1 POP DUP2 DUP2 SUB PUSH1 0x0 DUP4 ADD MSTORE PUSH2 0x26BD DUP2 PUSH2 0x22D2 JUMP JUMPDEST SWAP1 POP SWAP2 SWAP1 POP JUMP JUMPDEST PUSH1 0x0 PUSH1 0x20 DUP3 ADD SWAP1 POP DUP2 DUP2 SUB PUSH1 0x0 DUP4 ADD MSTORE PUSH2 0x26DD DUP2 PUSH2 0x22F5 JUMP JUMPDEST SWAP1 POP SWAP2 SWAP1 POP JUMP JUMPDEST PUSH1 0x0 PUSH1 0x20 DUP3 ADD SWAP1 POP DUP2 DUP2 SUB PUSH1 0x0 DUP4 ADD MSTORE PUSH2 0x26FD DUP2 PUSH2 0x2318 JUMP JUMPDEST SWAP1 POP SWAP2 SWAP1 POP JUMP JUMPDEST PUSH1 0x0 PUSH1 0x40 DUP3 ADD SWAP1 POP PUSH2 0x2719 PUSH1 0x0 DUP4 ADD DUP6 PUSH2 0x2359 JUMP JUMPDEST DUP2 DUP2 SUB PUSH1 0x20 DUP4 ADD MSTORE PUSH2 0x272B DUP2 DUP5 PUSH2 0x215E JUMP JUMPDEST SWAP1 POP SWAP4 SWAP3 POP POP POP JUMP JUMPDEST PUSH1 0x0 PUSH2 0x273E PUSH2 0x274F JUMP JUMPDEST SWAP1 POP PUSH2 0x274A DUP3 DUP3 PUSH2 0x28B2 JUMP JUMPDEST SWAP2 SWAP1 POP JUMP JUMPDEST PUSH1 0x0 PUSH1 0x40 MLOAD SWAP1 POP SWAP1 JUMP JUMPDEST PUSH1 0x0 PUSH8 0xFFFFFFFFFFFFFFFF DUP3 GT ISZERO PUSH2 0x2774 JUMPI PUSH2 0x2773 PUSH2 0x2941 JUMP JUMPDEST JUMPDEST PUSH2 0x277D DUP3 PUSH2 0x2984 JUMP JUMPDEST SWAP1 POP PUSH1 0x20 DUP2 ADD SWAP1 POP SWAP2 SWAP1 POP JUMP JUMPDEST PUSH1 0x0 DUP2 MLOAD SWAP1 POP SWAP2 SWAP1 POP JUMP JUMPDEST PUSH1 0x0 DUP3 DUP3 MSTORE PUSH1 0x20 DUP3 ADD SWAP1 POP SWAP3 SWAP2 POP POP JUMP JUMPDEST PUSH1 0x0 PUSH2 0x27B1 DUP3 PUSH2 0x27E5 JUMP JUMPDEST SWAP1 POP SWAP2 SWAP1 POP JUMP JUMPDEST PUSH1 0x0 DUP2 ISZERO ISZERO SWAP1 POP SWAP2 SWAP1 POP JUMP JUMPDEST PUSH1 0x0 DUP2 SWAP1 POP PUSH2 0x27D2 DUP3 PUSH2 0x2BCD JUMP JUMPDEST SWAP2 SWAP1 POP JUMP JUMPDEST PUSH1 0x0 PUSH2 0xFFFF DUP3 AND SWAP1 POP SWAP2 SWAP1 POP JUMP JUMPDEST PUSH1 0x0 PUSH20 0xFFFFFFFFFFFFFFFFFFFFFFFFFFFFFFFFFFFFFFFF DUP3 AND SWAP1 POP SWAP2 SWAP1 POP JUMP JUMPDEST PUSH1 0x0 DUP2 SWAP1 POP SWAP2 SWAP1 POP JUMP JUMPDEST PUSH1 0x0 PUSH4 0xFFFFFFFF DUP3 AND SWAP1 POP SWAP2 SWAP1 POP JUMP JUMPDEST PUSH1 0x0 PUSH1 0xFF DUP3 AND SWAP1 POP SWAP2 SWAP1 POP JUMP JUMPDEST PUSH1 0x0 PUSH2 0x2837 DUP3 PUSH2 0x27C4 JUMP JUMPDEST SWAP1 POP SWAP2 SWAP1 POP JUMP JUMPDEST DUP3 DUP2 DUP4 CALLDATACOPY PUSH1 0x0 DUP4 DUP4 ADD MSTORE POP POP POP JUMP JUMPDEST PUSH1 0x0 JUMPDEST DUP4 DUP2 LT ISZERO PUSH2 0x286B JUMPI DUP1 DUP3 ADD MLOAD DUP2 DUP5 ADD MSTORE PUSH1 0x20 DUP2 ADD SWAP1 POP PUSH2 0x2850 JUMP JUMPDEST DUP4 DUP2 GT ISZERO PUSH2 0x287A JUMPI PUSH1 0x0 DUP5 DUP5 ADD MSTORE JUMPDEST POP POP POP POP JUMP JUMPDEST PUSH1 0x0 PUSH1 0x2 DUP3 DIV SWAP1 POP PUSH1 0x1 DUP3 AND DUP1 PUSH2 0x2898 JUMPI PUSH1 0x7F DUP3 AND SWAP2 POP JUMPDEST PUSH1 0x20 DUP3 LT DUP2 EQ ISZERO PUSH2 0x28AC JUMPI PUSH2 0x28AB PUSH2 0x2912 JUMP JUMPDEST JUMPDEST POP SWAP2 SWAP1 POP JUMP JUMPDEST PUSH2 0x28BB DUP3 PUSH2 0x2984 JUMP JUMPDEST DUP2 ADD DUP2 DUP2 LT PUSH8 0xFFFFFFFFFFFFFFFF DUP3 GT OR ISZERO PUSH2 0x28DA JUMPI PUSH2 0x28D9 PUSH2 0x2941 JUMP JUMPDEST JUMPDEST DUP1 PUSH1 0x40 MSTORE POP POP POP JUMP JUMPDEST PUSH32 0x4E487B7100000000000000000000000000000000000000000000000000000000 PUSH1 0x0 MSTORE PUSH1 0x21 PUSH1 0x4 MSTORE PUSH1 0x24 PUSH1 0x0 REVERT JUMPDEST PUSH32 0x4E487B7100000000000000000000000000000000000000000000000000000000 PUSH1 0x0 MSTORE PUSH1 0x22 PUSH1 0x4 MSTORE PUSH1 0x24 PUSH1 0x0 REVERT JUMPDEST PUSH32 0x4E487B7100000000000000000000000000000000000000000000000000000000 PUSH1 0x0 MSTORE PUSH1 0x41 PUSH1 0x4 MSTORE PUSH1 0x24 PUSH1 0x0 REVERT JUMPDEST PUSH1 0x0 DUP1 REVERT JUMPDEST PUSH1 0x0 DUP1 REVERT JUMPDEST PUSH1 0x0 DUP1 REVERT JUMPDEST PUSH1 0x0 DUP1 REVERT JUMPDEST PUSH1 0x0 PUSH1 0x1F NOT PUSH1 0x1F DUP4 ADD AND SWAP1 POP SWAP2 SWAP1 POP JUMP JUMPDEST PUSH32 0x53616465636520594F4B2062752069736C656D69207961706162696C69722E00 PUSH1 0x0 DUP3 ADD MSTORE POP JUMP JUMPDEST PUSH32 0x4B616D75204B7572756D75205A6174656E204D65766375740000000000000000 PUSH1 0x0 DUP3 ADD MSTORE POP JUMP JUMPDEST PUSH32 0x4669726D61205A6174656E204D65766375740000000000000000000000000000 PUSH1 0x0 DUP3 ADD MSTORE POP JUMP JUMPDEST PUSH32 0x5361646563652043422062752069736C656D69207961706162696C69722E0000 PUSH1 0x0 DUP3 ADD MSTORE POP JUMP JUMPDEST PUSH32 0x536572746966696B61204D65726B657A69205A6174656E204D65766375740000 PUSH1 0x0 DUP3 ADD MSTORE POP JUMP JUMPDEST PUSH32 0x536976696C20546F706C756D204B7572756C757375205A6174656E204D657663 PUSH1 0x0 DUP3 ADD MSTORE PUSH32 0x7574000000000000000000000000000000000000000000000000000000000000 PUSH1 0x20 DUP3 ADD MSTORE POP JUMP JUMPDEST PUSH32 0x556E6976657273697465205A6174656E204D6576637574000000000000000000 PUSH1 0x0 DUP3 ADD MSTORE POP JUMP JUMPDEST PUSH32 0x53616465636520556E69766572736974652062752069736C656D692079617061 PUSH1 0x0 DUP3 ADD MSTORE PUSH32 0x62696C69722E0000000000000000000000000000000000000000000000000000 PUSH1 0x20 DUP3 ADD MSTORE POP JUMP JUMPDEST PUSH32 0x416B6164656D697379656E205A6174656E204D65766375740000000000000000 PUSH1 0x0 DUP3 ADD MSTORE POP JUMP JUMPDEST PUSH32 0x4B616D75204B75726D75205A6174656E204D6576637574000000000000000000 PUSH1 0x0 DUP3 ADD MSTORE POP JUMP JUMPDEST PUSH32 0x53616465636520544F42422062752069736C656D69207961706162696C69722E PUSH1 0x0 DUP3 ADD MSTORE POP JUMP JUMPDEST PUSH32 0x42752069736C656D6920736164656365204B757273207961706162696C69722E PUSH1 0x0 DUP3 ADD MSTORE POP JUMP JUMPDEST PUSH1 0x4 DUP2 LT PUSH2 0x2BDE JUMPI PUSH2 0x2BDD PUSH2 0x28E3 JUMP JUMPDEST JUMPDEST POP JUMP JUMPDEST PUSH2 0x2BEA DUP2 PUSH2 0x27A6 JUMP JUMPDEST DUP2 EQ PUSH2 0x2BF5 JUMPI PUSH1 0x0 DUP1 REVERT JUMPDEST POP JUMP JUMPDEST PUSH1 0x4 DUP2 LT PUSH2 0x2C05 JUMPI PUSH1 0x0 DUP1 REVERT JUMPDEST POP JUMP JUMPDEST PUSH2 0x2C11 DUP2 PUSH2 0x27D7 JUMP JUMPDEST DUP2 EQ PUSH2 0x2C1C JUMPI PUSH1 0x0 DUP1 REVERT JUMPDEST POP JUMP JUMPDEST PUSH2 0x2C28 DUP2 PUSH2 0x2805 JUMP JUMPDEST DUP2 EQ PUSH2 0x2C33 JUMPI PUSH1 0x0 DUP1 REVERT JUMPDEST POP JUMP JUMPDEST PUSH2 0x2C3F DUP2 PUSH2 0x280F JUMP JUMPDEST DUP2 EQ PUSH2 0x2C4A JUMPI PUSH1 0x0 DUP1 REVERT JUMPDEST POP JUMP JUMPDEST PUSH2 0x2C56 DUP2 PUSH2 0x281F JUMP JUMPDEST DUP2 EQ PUSH2 0x2C61 JUMPI PUSH1 0x0 DUP1 REVERT JUMPDEST POP JUMP INVALID LOG2 PUSH5 0x6970667358 0x22 SLT KECCAK256 0xD3 0xD8 CALLVALUE CREATE STATICCALL ADD 0xC5 0xE5 0xB3 MOD JUMPI JUMPI SIGNEXTEND 0x4C PUSH20 0x8DD5921F02956CD91D3A44D722F28D5F7364736F PUSH13 0x63430008070033000000000000 "
				},
				"gasEstimates": {
					"creation": {
						"codeDepositCost": "2283600",
						"executionCost": "infinite",
						"totalCost": "infinite"
					},
					"external": {
						"akademisyenler(address)": "infinite",
						"diller(uint32)": "infinite",
						"ekleAkademisyen(address,address,string,string,uint16,uint8)": "infinite",
						"ekleFirma(address,string,uint256,uint8)": "infinite",
						"ekleKamuKurumu(address,string,uint8)": "infinite",
						"ekleKurs(address,string,uint8)": "infinite",
						"ekleSTK(address,string,uint8)": "infinite",
						"ekleSertifikaMerkezi(address,string,uint8)": "infinite",
						"ekleUniversite(address,string,uint8)": "infinite",
						"firmalar(address)": "infinite",
						"kamuKurumlari(address)": "infinite",
						"kisiler(address)": "2914",
						"kurslar(address)": "infinite",
						"sertifikaMerkezleri(address)": "infinite",
						"stklar(address)": "infinite",
						"universiteler(address)": "infinite"
					}
				},
				"methodIdentifiers": {
					"akademisyenler(address)": "ba479b7e",
					"diller(uint32)": "a4e7ae05",
					"ekleAkademisyen(address,address,string,string,uint16,uint8)": "1c23f0e1",
					"ekleFirma(address,string,uint256,uint8)": "d25aab85",
					"ekleKamuKurumu(address,string,uint8)": "f63c649f",
					"ekleKurs(address,string,uint8)": "46224853",
					"ekleSTK(address,string,uint8)": "19023bf3",
					"ekleSertifikaMerkezi(address,string,uint8)": "9dc30114",
					"ekleUniversite(address,string,uint8)": "001d54ab",
					"firmalar(address)": "39987f94",
					"kamuKurumlari(address)": "7d0fa287",
					"kisiler(address)": "cbc92809",
					"kurslar(address)": "1916e139",
					"sertifikaMerkezleri(address)": "356b1f1e",
					"stklar(address)": "9a8c9119",
					"universiteler(address)": "28266697"
				}
			},
			"storageLayout": {
				"storage": [
					{
						"astId": 3,
						"contract": "contracts/Registration.sol:Registration",
						"label": "YOK",
						"offset": 0,
						"slot": "0",
						"type": "t_address"
					},
					{
						"astId": 5,
						"contract": "contracts/Registration.sol:Registration",
						"label": "TOBB",
						"offset": 0,
						"slot": "1",
						"type": "t_address"
					},
					{
						"astId": 7,
						"contract": "contracts/Registration.sol:Registration",
						"label": "CB",
						"offset": 0,
						"slot": "2",
						"type": "t_address"
					},
					{
						"astId": 263,
						"contract": "contracts/Registration.sol:Registration",
						"label": "kisiler",
						"offset": 0,
						"slot": "3",
						"type": "t_mapping(t_address,t_struct(Kisi)10_storage)"
					},
					{
						"astId": 268,
						"contract": "contracts/Registration.sol:Registration",
						"label": "universiteler",
						"offset": 0,
						"slot": "4",
						"type": "t_mapping(t_address,t_struct(Universite)43_storage)"
					},
					{
						"astId": 273,
						"contract": "contracts/Registration.sol:Registration",
						"label": "akademisyenler",
						"offset": 0,
						"slot": "5",
						"type": "t_mapping(t_address,t_struct(Akademisyen)57_storage)"
					},
					{
						"astId": 278,
						"contract": "contracts/Registration.sol:Registration",
						"label": "firmalar",
						"offset": 0,
						"slot": "6",
						"type": "t_mapping(t_address,t_struct(Firma)97_storage)"
					},
					{
						"astId": 283,
						"contract": "contracts/Registration.sol:Registration",
						"label": "kurslar",
						"offset": 0,
						"slot": "7",
						"type": "t_mapping(t_address,t_struct(Kurs)125_storage)"
					},
					{
						"astId": 288,
						"contract": "contracts/Registration.sol:Registration",
						"label": "kamuKurumlari",
						"offset": 0,
						"slot": "8",
						"type": "t_mapping(t_address,t_struct(KamuKurumu)104_storage)"
					},
					{
						"astId": 293,
						"contract": "contracts/Registration.sol:Registration",
						"label": "stklar",
						"offset": 0,
						"slot": "9",
						"type": "t_mapping(t_address,t_struct(STK)111_storage)"
					},
					{
						"astId": 298,
						"contract": "contracts/Registration.sol:Registration",
						"label": "sertifikaMerkezleri",
						"offset": 0,
						"slot": "10",
						"type": "t_mapping(t_address,t_struct(SertifikaMerkezi)118_storage)"
					},
					{
						"astId": 303,
						"contract": "contracts/Registration.sol:Registration",
						"label": "diller",
						"offset": 0,
						"slot": "11",
						"type": "t_mapping(t_uint32,t_struct(YabanciDil)130_storage)"
					}
				],
				"types": {
					"t_address": {
						"encoding": "inplace",
						"label": "address",
						"numberOfBytes": "20"
					},
					"t_bool": {
						"encoding": "inplace",
						"label": "bool",
						"numberOfBytes": "1"
					},
					"t_enum(Unvan)62": {
						"encoding": "inplace",
						"label": "enum BaseContract.Unvan",
						"numberOfBytes": "1"
					},
					"t_mapping(t_address,t_struct(Akademisyen)57_storage)": {
						"encoding": "mapping",
						"key": "t_address",
						"label": "mapping(address => struct BaseContract.Akademisyen)",
						"numberOfBytes": "32",
						"value": "t_struct(Akademisyen)57_storage"
					},
					"t_mapping(t_address,t_struct(Firma)97_storage)": {
						"encoding": "mapping",
						"key": "t_address",
						"label": "mapping(address => struct BaseContract.Firma)",
						"numberOfBytes": "32",
						"value": "t_struct(Firma)97_storage"
					},
					"t_mapping(t_address,t_struct(KamuKurumu)104_storage)": {
						"encoding": "mapping",
						"key": "t_address",
						"label": "mapping(address => struct BaseContract.KamuKurumu)",
						"numberOfBytes": "32",
						"value": "t_struct(KamuKurumu)104_storage"
					},
					"t_mapping(t_address,t_struct(Kisi)10_storage)": {
						"encoding": "mapping",
						"key": "t_address",
						"label": "mapping(address => struct BaseContract.Kisi)",
						"numberOfBytes": "32",
						"value": "t_struct(Kisi)10_storage"
					},
					"t_mapping(t_address,t_struct(Kurs)125_storage)": {
						"encoding": "mapping",
						"key": "t_address",
						"label": "mapping(address => struct BaseContract.Kurs)",
						"numberOfBytes": "32",
						"value": "t_struct(Kurs)125_storage"
					},
					"t_mapping(t_address,t_struct(STK)111_storage)": {
						"encoding": "mapping",
						"key": "t_address",
						"label": "mapping(address => struct BaseContract.STK)",
						"numberOfBytes": "32",
						"value": "t_struct(STK)111_storage"
					},
					"t_mapping(t_address,t_struct(SertifikaMerkezi)118_storage)": {
						"encoding": "mapping",
						"key": "t_address",
						"label": "mapping(address => struct BaseContract.SertifikaMerkezi)",
						"numberOfBytes": "32",
						"value": "t_struct(SertifikaMerkezi)118_storage"
					},
					"t_mapping(t_address,t_struct(Universite)43_storage)": {
						"encoding": "mapping",
						"key": "t_address",
						"label": "mapping(address => struct BaseContract.Universite)",
						"numberOfBytes": "32",
						"value": "t_struct(Universite)43_storage"
					},
					"t_mapping(t_uint32,t_struct(YabanciDil)130_storage)": {
						"encoding": "mapping",
						"key": "t_uint32",
						"label": "mapping(uint32 => struct BaseContract.YabanciDil)",
						"numberOfBytes": "32",
						"value": "t_struct(YabanciDil)130_storage"
					},
					"t_string_storage": {
						"encoding": "bytes",
						"label": "string",
						"numberOfBytes": "32"
					},
					"t_struct(Akademisyen)57_storage": {
						"encoding": "inplace",
						"label": "struct BaseContract.Akademisyen",
						"members": [
							{
								"astId": 45,
								"contract": "contracts/Registration.sol:Registration",
								"label": "durum",
								"offset": 0,
								"slot": "0",
								"type": "t_bool"
							},
							{
								"astId": 47,
								"contract": "contracts/Registration.sol:Registration",
								"label": "universite",
								"offset": 1,
								"slot": "0",
								"type": "t_address"
							},
							{
								"astId": 49,
								"contract": "contracts/Registration.sol:Registration",
								"label": "bolum",
								"offset": 21,
								"slot": "0",
								"type": "t_uint16"
							},
							{
								"astId": 52,
								"contract": "contracts/Registration.sol:Registration",
								"label": "unvan",
								"offset": 23,
								"slot": "0",
								"type": "t_enum(Unvan)62"
							},
							{
								"astId": 54,
								"contract": "contracts/Registration.sol:Registration",
								"label": "ad",
								"offset": 0,
								"slot": "1",
								"type": "t_string_storage"
							},
							{
								"astId": 56,
								"contract": "contracts/Registration.sol:Registration",
								"label": "soyad",
								"offset": 0,
								"slot": "2",
								"type": "t_string_storage"
							}
						],
						"numberOfBytes": "96"
					},
					"t_struct(Firma)97_storage": {
						"encoding": "inplace",
						"label": "struct BaseContract.Firma",
						"members": [
							{
								"astId": 90,
								"contract": "contracts/Registration.sol:Registration",
								"label": "durum",
								"offset": 0,
								"slot": "0",
								"type": "t_bool"
							},
							{
								"astId": 92,
								"contract": "contracts/Registration.sol:Registration",
								"label": "ulke",
								"offset": 1,
								"slot": "0",
								"type": "t_uint8"
							},
							{
								"astId": 94,
								"contract": "contracts/Registration.sol:Registration",
								"label": "vergiNo",
								"offset": 0,
								"slot": "1",
								"type": "t_uint256"
							},
							{
								"astId": 96,
								"contract": "contracts/Registration.sol:Registration",
								"label": "isim",
								"offset": 0,
								"slot": "2",
								"type": "t_string_storage"
							}
						],
						"numberOfBytes": "96"
					},
					"t_struct(KamuKurumu)104_storage": {
						"encoding": "inplace",
						"label": "struct BaseContract.KamuKurumu",
						"members": [
							{
								"astId": 99,
								"contract": "contracts/Registration.sol:Registration",
								"label": "durum",
								"offset": 0,
								"slot": "0",
								"type": "t_bool"
							},
							{
								"astId": 101,
								"contract": "contracts/Registration.sol:Registration",
								"label": "isim",
								"offset": 0,
								"slot": "1",
								"type": "t_string_storage"
							},
							{
								"astId": 103,
								"contract": "contracts/Registration.sol:Registration",
								"label": "ulke",
								"offset": 0,
								"slot": "2",
								"type": "t_uint8"
							}
						],
						"numberOfBytes": "96"
					},
					"t_struct(Kisi)10_storage": {
						"encoding": "inplace",
						"label": "struct BaseContract.Kisi",
						"members": [
							{
								"astId": 9,
								"contract": "contracts/Registration.sol:Registration",
								"label": "durum",
								"offset": 0,
								"slot": "0",
								"type": "t_bool"
							}
						],
						"numberOfBytes": "32"
					},
					"t_struct(Kurs)125_storage": {
						"encoding": "inplace",
						"label": "struct BaseContract.Kurs",
						"members": [
							{
								"astId": 120,
								"contract": "contracts/Registration.sol:Registration",
								"label": "durum",
								"offset": 0,
								"slot": "0",
								"type": "t_bool"
							},
							{
								"astId": 122,
								"contract": "contracts/Registration.sol:Registration",
								"label": "isim",
								"offset": 0,
								"slot": "1",
								"type": "t_string_storage"
							},
							{
								"astId": 124,
								"contract": "contracts/Registration.sol:Registration",
								"label": "ulke",
								"offset": 0,
								"slot": "2",
								"type": "t_uint8"
							}
						],
						"numberOfBytes": "96"
					},
					"t_struct(STK)111_storage": {
						"encoding": "inplace",
						"label": "struct BaseContract.STK",
						"members": [
							{
								"astId": 106,
								"contract": "contracts/Registration.sol:Registration",
								"label": "durum",
								"offset": 0,
								"slot": "0",
								"type": "t_bool"
							},
							{
								"astId": 108,
								"contract": "contracts/Registration.sol:Registration",
								"label": "isim",
								"offset": 0,
								"slot": "1",
								"type": "t_string_storage"
							},
							{
								"astId": 110,
								"contract": "contracts/Registration.sol:Registration",
								"label": "ulke",
								"offset": 0,
								"slot": "2",
								"type": "t_uint8"
							}
						],
						"numberOfBytes": "96"
					},
					"t_struct(SertifikaMerkezi)118_storage": {
						"encoding": "inplace",
						"label": "struct BaseContract.SertifikaMerkezi",
						"members": [
							{
								"astId": 113,
								"contract": "contracts/Registration.sol:Registration",
								"label": "durum",
								"offset": 0,
								"slot": "0",
								"type": "t_bool"
							},
							{
								"astId": 115,
								"contract": "contracts/Registration.sol:Registration",
								"label": "isim",
								"offset": 0,
								"slot": "1",
								"type": "t_string_storage"
							},
							{
								"astId": 117,
								"contract": "contracts/Registration.sol:Registration",
								"label": "ulke",
								"offset": 0,
								"slot": "2",
								"type": "t_uint8"
							}
						],
						"numberOfBytes": "96"
					},
					"t_struct(Universite)43_storage": {
						"encoding": "inplace",
						"label": "struct BaseContract.Universite",
						"members": [
							{
								"astId": 38,
								"contract": "contracts/Registration.sol:Registration",
								"label": "durum",
								"offset": 0,
								"slot": "0",
								"type": "t_bool"
							},
							{
								"astId": 40,
								"contract": "contracts/Registration.sol:Registration",
								"label": "isim",
								"offset": 0,
								"slot": "1",
								"type": "t_string_storage"
							},
							{
								"astId": 42,
								"contract": "contracts/Registration.sol:Registration",
								"label": "ulke",
								"offset": 0,
								"slot": "2",
								"type": "t_uint8"
							}
						],
						"numberOfBytes": "96"
					},
					"t_struct(YabanciDil)130_storage": {
						"encoding": "inplace",
						"label": "struct BaseContract.YabanciDil",
						"members": [
							{
								"astId": 127,
								"contract": "contracts/Registration.sol:Registration",
								"label": "id",
								"offset": 0,
								"slot": "0",
								"type": "t_uint32"
							},
							{
								"astId": 129,
								"contract": "contracts/Registration.sol:Registration",
								"label": "isim",
								"offset": 0,
								"slot": "1",
								"type": "t_string_storage"
							}
						],
						"numberOfBytes": "64"
					},
					"t_uint16": {
						"encoding": "inplace",
						"label": "uint16",
						"numberOfBytes": "2"
					},
					"t_uint256": {
						"encoding": "inplace",
						"label": "uint256",
						"numberOfBytes": "32"
					},
					"t_uint32": {
						"encoding": "inplace",
						"label": "uint32",
						"numberOfBytes": "4"
					},
					"t_uint8": {
						"encoding": "inplace",
						"label": "uint8",
						"numberOfBytes": "1"
					}
				}
			},
			"userdoc": {
				"kind": "user",
				"methods": {},
				"version": 1
			}
		}
	}
}