{
	"contracts/CalismaBilgileri.sol": {
		"CalismaBilgileri": {
			"abi": [
				{
					"anonymous": false,
					"inputs": [
						{
							"indexed": false,
							"internalType": "address",
							"name": "_kisiAdres",
							"type": "address"
						},
						{
							"indexed": false,
							"internalType": "uint8",
							"name": "_ulke",
							"type": "uint8"
						},
						{
							"indexed": false,
							"internalType": "uint256",
							"name": "_pozisyon",
							"type": "uint256"
						},
						{
							"indexed": false,
							"internalType": "uint256",
							"name": "_sektor",
							"type": "uint256"
						}
					],
					"name": "CalismaBilgiEklendiLog",
					"type": "event"
				},
				{
					"anonymous": false,
					"inputs": [
						{
							"indexed": false,
							"internalType": "address",
							"name": "_kisiAdres",
							"type": "address"
						},
						{
							"indexed": false,
							"internalType": "uint8",
							"name": "_ulke",
							"type": "uint8"
						},
						{
							"indexed": false,
							"internalType": "uint256",
							"name": "_pozisyon",
							"type": "uint256"
						},
						{
							"indexed": false,
							"internalType": "uint256",
							"name": "_sektor",
							"type": "uint256"
						}
					],
					"name": "CalismaBilgiGuncellendiLog",
					"type": "event"
				},
				{
					"anonymous": false,
					"inputs": [
						{
							"indexed": false,
							"internalType": "address",
							"name": "_talepEdilenKurum",
							"type": "address"
						},
						{
							"indexed": false,
							"internalType": "uint8",
							"name": "_ulke",
							"type": "uint8"
						},
						{
							"indexed": false,
							"internalType": "uint256",
							"name": "_pozisyon",
							"type": "uint256"
						},
						{
							"indexed": false,
							"internalType": "uint256",
							"name": "_sektor",
							"type": "uint256"
						}
					],
					"name": "CalismaBilgiTalepEdildiLog",
					"type": "event"
				},
				{
					"inputs": [
						{
							"internalType": "address",
							"name": "",
							"type": "address"
						}
					],
					"name": "akademisyenler",
					"outputs": [
						{
							"internalType": "bool",
							"name": "durum",
							"type": "bool"
						},
						{
							"internalType": "address",
							"name": "universite",
							"type": "address"
						},
						{
							"internalType": "uint16",
							"name": "bolum",
							"type": "uint16"
						},
						{
							"internalType": "enum BaseContract.Unvan",
							"name": "unvan",
							"type": "uint8"
						},
						{
							"internalType": "string",
							"name": "ad",
							"type": "string"
						},
						{
							"internalType": "string",
							"name": "soyad",
							"type": "string"
						}
					],
					"stateMutability": "view",
					"type": "function"
				},
				{
					"inputs": [
						{
							"internalType": "address",
							"name": "",
							"type": "address"
						},
						{
							"internalType": "uint256",
							"name": "",
							"type": "uint256"
						}
					],
					"name": "calismaBilgileri",
					"outputs": [
						{
							"internalType": "uint256",
							"name": "id",
							"type": "uint256"
						},
						{
							"internalType": "address",
							"name": "talepEdilenKurum",
							"type": "address"
						},
						{
							"internalType": "uint32",
							"name": "pozisyon",
							"type": "uint32"
						},
						{
							"internalType": "uint8",
							"name": "sektor",
							"type": "uint8"
						},
						{
							"internalType": "enum BaseContract.CalismaTipi",
							"name": "calismaTipi",
							"type": "uint8"
						},
						{
							"internalType": "string",
							"name": "isAciklama",
							"type": "string"
						},
						{
							"internalType": "uint256",
							"name": "basTarih",
							"type": "uint256"
						},
						{
							"internalType": "uint256",
							"name": "bitTarih",
							"type": "uint256"
						},
						{
							"internalType": "uint8",
							"name": "ulke",
							"type": "uint8"
						},
						{
							"internalType": "uint32",
							"name": "sehir",
							"type": "uint32"
						},
						{
							"components": [
								{
									"internalType": "uint256",
									"name": "zaman",
									"type": "uint256"
								},
								{
									"internalType": "address",
									"name": "adres",
									"type": "address"
								},
								{
									"internalType": "enum BaseContract.OnayDurum",
									"name": "durum",
									"type": "uint8"
								}
							],
							"internalType": "struct BaseContract.Onay",
							"name": "onayBilgi",
							"type": "tuple"
						}
					],
					"stateMutability": "view",
					"type": "function"
				},
				{
					"inputs": [
						{
							"internalType": "uint32",
							"name": "",
							"type": "uint32"
						}
					],
					"name": "diller",
					"outputs": [
						{
							"internalType": "uint32",
							"name": "id",
							"type": "uint32"
						},
						{
							"internalType": "string",
							"name": "isim",
							"type": "string"
						}
					],
					"stateMutability": "view",
					"type": "function"
				},
				{
					"inputs": [
						{
							"internalType": "address",
							"name": "_kisiAddress",
							"type": "address"
						},
						{
							"internalType": "uint32",
							"name": "pozisyon",
							"type": "uint32"
						},
						{
							"internalType": "uint8",
							"name": "sektor",
							"type": "uint8"
						},
						{
							"internalType": "enum BaseContract.CalismaTipi",
							"name": "calismaTipi",
							"type": "uint8"
						},
						{
							"internalType": "string",
							"name": "isAciklama",
							"type": "string"
						},
						{
							"internalType": "uint256",
							"name": "basTarih",
							"type": "uint256"
						},
						{
							"internalType": "uint256",
							"name": "bitTarih",
							"type": "uint256"
						},
						{
							"internalType": "uint8",
							"name": "ulke",
							"type": "uint8"
						},
						{
							"internalType": "uint32",
							"name": "sehir",
							"type": "uint32"
						}
					],
					"name": "ekleCalismaBilgi",
					"outputs": [],
					"stateMutability": "nonpayable",
					"type": "function"
				},
				{
					"inputs": [
						{
							"internalType": "address",
							"name": "",
							"type": "address"
						}
					],
					"name": "firmalar",
					"outputs": [
						{
							"internalType": "bool",
							"name": "durum",
							"type": "bool"
						},
						{
							"internalType": "uint8",
							"name": "ulke",
							"type": "uint8"
						},
						{
							"internalType": "uint256",
							"name": "vergiNo",
							"type": "uint256"
						},
						{
							"internalType": "string",
							"name": "isim",
							"type": "string"
						}
					],
					"stateMutability": "view",
					"type": "function"
				},
				{
					"inputs": [
						{
							"internalType": "address",
							"name": "_kisiAddress",
							"type": "address"
						},
						{
							"internalType": "uint256",
							"name": "_calismaBilgiId",
							"type": "uint256"
						},
						{
							"internalType": "uint32",
							"name": "pozisyon",
							"type": "uint32"
						},
						{
							"internalType": "uint8",
							"name": "sektor",
							"type": "uint8"
						},
						{
							"internalType": "enum BaseContract.CalismaTipi",
							"name": "calismaTipi",
							"type": "uint8"
						},
						{
							"internalType": "string",
							"name": "isAciklama",
							"type": "string"
						},
						{
							"internalType": "uint256",
							"name": "basTarih",
							"type": "uint256"
						},
						{
							"internalType": "uint256",
							"name": "bitTarih",
							"type": "uint256"
						},
						{
							"internalType": "uint8",
							"name": "ulke",
							"type": "uint8"
						},
						{
							"internalType": "uint32",
							"name": "sehir",
							"type": "uint32"
						}
					],
					"name": "guncelleCalismaBilgi",
					"outputs": [
						{
							"internalType": "uint256",
							"name": "",
							"type": "uint256"
						}
					],
					"stateMutability": "nonpayable",
					"type": "function"
				},
				{
					"inputs": [],
					"name": "id",
					"outputs": [
						{
							"internalType": "uint256",
							"name": "",
							"type": "uint256"
						}
					],
					"stateMutability": "view",
					"type": "function"
				},
				{
					"inputs": [
						{
							"internalType": "address",
							"name": "",
							"type": "address"
						}
					],
					"name": "kamuKurumlari",
					"outputs": [
						{
							"internalType": "bool",
							"name": "durum",
							"type": "bool"
						},
						{
							"internalType": "string",
							"name": "isim",
							"type": "string"
						},
						{
							"internalType": "uint8",
							"name": "ulke",
							"type": "uint8"
						}
					],
					"stateMutability": "view",
					"type": "function"
				},
				{
					"inputs": [
						{
							"internalType": "address",
							"name": "",
							"type": "address"
						}
					],
					"name": "kisiler",
					"outputs": [
						{
							"internalType": "bool",
							"name": "durum",
							"type": "bool"
						}
					],
					"stateMutability": "view",
					"type": "function"
				},
				{
					"inputs": [
						{
							"internalType": "address",
							"name": "",
							"type": "address"
						}
					],
					"name": "kurslar",
					"outputs": [
						{
							"internalType": "bool",
							"name": "durum",
							"type": "bool"
						},
						{
							"internalType": "string",
							"name": "isim",
							"type": "string"
						},
						{
							"internalType": "uint8",
							"name": "ulke",
							"type": "uint8"
						}
					],
					"stateMutability": "view",
					"type": "function"
				},
				{
					"inputs": [
						{
							"internalType": "address",
							"name": "",
							"type": "address"
						}
					],
					"name": "sertifikaMerkezleri",
					"outputs": [
						{
							"internalType": "bool",
							"name": "durum",
							"type": "bool"
						},
						{
							"internalType": "string",
							"name": "isim",
							"type": "string"
						},
						{
							"internalType": "uint8",
							"name": "ulke",
							"type": "uint8"
						}
					],
					"stateMutability": "view",
					"type": "function"
				},
				{
					"inputs": [
						{
							"internalType": "address",
							"name": "",
							"type": "address"
						}
					],
					"name": "stklar",
					"outputs": [
						{
							"internalType": "bool",
							"name": "durum",
							"type": "bool"
						},
						{
							"internalType": "string",
							"name": "isim",
							"type": "string"
						},
						{
							"internalType": "uint8",
							"name": "ulke",
							"type": "uint8"
						}
					],
					"stateMutability": "view",
					"type": "function"
				},
				{
					"inputs": [
						{
							"internalType": "address",
							"name": "_talepEdilenKurum",
							"type": "address"
						},
						{
							"internalType": "uint32",
							"name": "pozisyon",
							"type": "uint32"
						},
						{
							"internalType": "uint8",
							"name": "sektor",
							"type": "uint8"
						},
						{
							"internalType": "enum BaseContract.CalismaTipi",
							"name": "calismaTipi",
							"type": "uint8"
						},
						{
							"internalType": "string",
							"name": "isAciklama",
							"type": "string"
						},
						{
							"internalType": "uint256",
							"name": "basTarih",
							"type": "uint256"
						},
						{
							"internalType": "uint256",
							"name": "bitTarih",
							"type": "uint256"
						},
						{
							"internalType": "uint8",
							"name": "ulke",
							"type": "uint8"
						},
						{
							"internalType": "uint32",
							"name": "sehir",
							"type": "uint32"
						}
					],
					"name": "talepEtCalismaBilgi",
					"outputs": [],
					"stateMutability": "nonpayable",
					"type": "function"
				},
				{
					"inputs": [
						{
							"internalType": "address",
							"name": "",
							"type": "address"
						}
					],
					"name": "universiteler",
					"outputs": [
						{
							"internalType": "bool",
							"name": "durum",
							"type": "bool"
						},
						{
							"internalType": "string",
							"name": "isim",
							"type": "string"
						},
						{
							"internalType": "uint8",
							"name": "ulke",
							"type": "uint8"
						}
					],
					"stateMutability": "view",
					"type": "function"
				}
			],
			"devdoc": {
				"kind": "dev",
				"methods": {},
				"version": 1
			},
			"evm": {
				"assembly": "    /* \"contracts/CalismaBilgileri.sol\":137:4846  contract CalismaBilgileri is BaseContract{\r... */\n  mstore(0x40, 0x80)\n  callvalue\n  dup1\n  iszero\n  tag_1\n  jumpi\n  0x00\n  dup1\n  revert\ntag_1:\n  pop\n  dataSize(sub_0)\n  dup1\n  dataOffset(sub_0)\n  0x00\n  codecopy\n  0x00\n  return\nstop\n\nsub_0: assembly {\n        /* \"contracts/CalismaBilgileri.sol\":137:4846  contract CalismaBilgileri is BaseContract{\r... */\n      mstore(0x40, 0x80)\n      callvalue\n      dup1\n      iszero\n      tag_1\n      jumpi\n      0x00\n      dup1\n      revert\n    tag_1:\n      pop\n      jumpi(tag_2, lt(calldatasize, 0x04))\n      shr(0xe0, calldataload(0x00))\n      dup1\n      0x7d0fa287\n      gt\n      tag_17\n      jumpi\n      dup1\n      0xac30910c\n      gt\n      tag_18\n      jumpi\n      dup1\n      0xac30910c\n      eq\n      tag_13\n      jumpi\n      dup1\n      0xaf640d0f\n      eq\n      tag_14\n      jumpi\n      dup1\n      0xba479b7e\n      eq\n      tag_15\n      jumpi\n      dup1\n      0xcbc92809\n      eq\n      tag_16\n      jumpi\n      jump(tag_2)\n    tag_18:\n      dup1\n      0x7d0fa287\n      eq\n      tag_10\n      jumpi\n      dup1\n      0x9a8c9119\n      eq\n      tag_11\n      jumpi\n      dup1\n      0xa4e7ae05\n      eq\n      tag_12\n      jumpi\n      jump(tag_2)\n    tag_17:\n      dup1\n      0x28266697\n      gt\n      tag_19\n      jumpi\n      dup1\n      0x28266697\n      eq\n      tag_6\n      jumpi\n      dup1\n      0x356b1f1e\n      eq\n      tag_7\n      jumpi\n      dup1\n      0x39987f94\n      eq\n      tag_8\n      jumpi\n      dup1\n      0x62bda16b\n      eq\n      tag_9\n      jumpi\n      jump(tag_2)\n    tag_19:\n      dup1\n      0x035963ce\n      eq\n      tag_3\n      jumpi\n      dup1\n      0x0fb0b1b2\n      eq\n      tag_4\n      jumpi\n      dup1\n      0x1916e139\n      eq\n      tag_5\n      jumpi\n    tag_2:\n      0x00\n      dup1\n      revert\n        /* \"contracts/CalismaBilgileri.sol\":3676:4836  function talepEtCalismaBilgi(address _talepEdilenKurum, uint32 pozisyon, uint8 sektor, CalismaTipi calismaTipi, string memory isAciklama, uint basTarih, uint bitTarih, uint8 ulke, uint32 sehir)  public sadeceKisi{\r... */\n    tag_3:\n      tag_20\n      0x04\n      dup1\n      calldatasize\n      sub\n      dup2\n      add\n      swap1\n      tag_21\n      swap2\n      swap1\n      tag_22\n      jump\t// in\n    tag_21:\n      tag_23\n      jump\t// in\n    tag_20:\n      stop\n        /* \"contracts/CalismaBilgileri.sol\":558:627  mapping(address=>mapping(uint=>CalismaBilgi)) public calismaBilgileri */\n    tag_4:\n      tag_24\n      0x04\n      dup1\n      calldatasize\n      sub\n      dup2\n      add\n      swap1\n      tag_25\n      swap2\n      swap1\n      tag_26\n      jump\t// in\n    tag_25:\n      tag_27\n      jump\t// in\n    tag_24:\n      mload(0x40)\n      tag_28\n      swap12\n      swap11\n      swap10\n      swap9\n      swap8\n      swap7\n      swap6\n      swap5\n      swap4\n      swap3\n      swap2\n      swap1\n      tag_29\n      jump\t// in\n    tag_28:\n      mload(0x40)\n      dup1\n      swap2\n      sub\n      swap1\n      return\n        /* \"contracts/BaseContract.sol\":3712:3750  mapping(address=>Kurs) public  kurslar */\n    tag_5:\n      tag_30\n      0x04\n      dup1\n      calldatasize\n      sub\n      dup2\n      add\n      swap1\n      tag_31\n      swap2\n      swap1\n      tag_32\n      jump\t// in\n    tag_31:\n      tag_33\n      jump\t// in\n    tag_30:\n      mload(0x40)\n      tag_34\n      swap4\n      swap3\n      swap2\n      swap1\n      tag_35\n      jump\t// in\n    tag_34:\n      mload(0x40)\n      dup1\n      swap2\n      sub\n      swap1\n      return\n        /* \"contracts/BaseContract.sol\":3551:3600  mapping(address=>Universite) public universiteler */\n    tag_6:\n      tag_36\n      0x04\n      dup1\n      calldatasize\n      sub\n      dup2\n      add\n      swap1\n      tag_37\n      swap2\n      swap1\n      tag_32\n      jump\t// in\n    tag_37:\n      tag_38\n      jump\t// in\n    tag_36:\n      mload(0x40)\n      tag_39\n      swap4\n      swap3\n      swap2\n      swap1\n      tag_35\n      jump\t// in\n    tag_39:\n      mload(0x40)\n      dup1\n      swap2\n      sub\n      swap1\n      return\n        /* \"contracts/BaseContract.sol\":3855:3916  mapping(address=>SertifikaMerkezi) public sertifikaMerkezleri */\n    tag_7:\n      tag_40\n      0x04\n      dup1\n      calldatasize\n      sub\n      dup2\n      add\n      swap1\n      tag_41\n      swap2\n      swap1\n      tag_32\n      jump\t// in\n    tag_41:\n      tag_42\n      jump\t// in\n    tag_40:\n      mload(0x40)\n      tag_43\n      swap4\n      swap3\n      swap2\n      swap1\n      tag_35\n      jump\t// in\n    tag_43:\n      mload(0x40)\n      dup1\n      swap2\n      sub\n      swap1\n      return\n        /* \"contracts/BaseContract.sol\":3665:3705  mapping(address=>Firma) public  firmalar */\n    tag_8:\n      tag_44\n      0x04\n      dup1\n      calldatasize\n      sub\n      dup2\n      add\n      swap1\n      tag_45\n      swap2\n      swap1\n      tag_32\n      jump\t// in\n    tag_45:\n      tag_46\n      jump\t// in\n    tag_44:\n      mload(0x40)\n      tag_47\n      swap5\n      swap4\n      swap3\n      swap2\n      swap1\n      tag_48\n      jump\t// in\n    tag_47:\n      mload(0x40)\n      dup1\n      swap2\n      sub\n      swap1\n      return\n        /* \"contracts/CalismaBilgileri.sol\":2253:3667  function guncelleCalismaBilgi(address _kisiAddress, uint _calismaBilgiId, uint32 pozisyon, uint8 sektor, CalismaTipi calismaTipi, string memory isAciklama, uint basTarih, uint bitTarih, uint8 ulke, uint32 sehir)  public sadece_Uni_Firma_Kamu returns(uint){\r... */\n    tag_9:\n      tag_49\n      0x04\n      dup1\n      calldatasize\n      sub\n      dup2\n      add\n      swap1\n      tag_50\n      swap2\n      swap1\n      tag_51\n      jump\t// in\n    tag_50:\n      tag_52\n      jump\t// in\n    tag_49:\n      mload(0x40)\n      tag_53\n      swap2\n      swap1\n      tag_54\n      jump\t// in\n    tag_53:\n      mload(0x40)\n      dup1\n      swap2\n      sub\n      swap1\n      return\n        /* \"contracts/BaseContract.sol\":3757:3806  mapping(address=>KamuKurumu) public kamuKurumlari */\n    tag_10:\n      tag_55\n      0x04\n      dup1\n      calldatasize\n      sub\n      dup2\n      add\n      swap1\n      tag_56\n      swap2\n      swap1\n      tag_32\n      jump\t// in\n    tag_56:\n      tag_57\n      jump\t// in\n    tag_55:\n      mload(0x40)\n      tag_58\n      swap4\n      swap3\n      swap2\n      swap1\n      tag_35\n      jump\t// in\n    tag_58:\n      mload(0x40)\n      dup1\n      swap2\n      sub\n      swap1\n      return\n        /* \"contracts/BaseContract.sol\":3813:3848  mapping(address=>STK) public stklar */\n    tag_11:\n      tag_59\n      0x04\n      dup1\n      calldatasize\n      sub\n      dup2\n      add\n      swap1\n      tag_60\n      swap2\n      swap1\n      tag_32\n      jump\t// in\n    tag_60:\n      tag_61\n      jump\t// in\n    tag_59:\n      mload(0x40)\n      tag_62\n      swap4\n      swap3\n      swap2\n      swap1\n      tag_35\n      jump\t// in\n    tag_62:\n      mload(0x40)\n      dup1\n      swap2\n      sub\n      swap1\n      return\n        /* \"contracts/BaseContract.sol\":3924:3965  mapping(uint32=>YabanciDil) public diller */\n    tag_12:\n      tag_63\n      0x04\n      dup1\n      calldatasize\n      sub\n      dup2\n      add\n      swap1\n      tag_64\n      swap2\n      swap1\n      tag_65\n      jump\t// in\n    tag_64:\n      tag_66\n      jump\t// in\n    tag_63:\n      mload(0x40)\n      tag_67\n      swap3\n      swap2\n      swap1\n      tag_68\n      jump\t// in\n    tag_67:\n      mload(0x40)\n      dup1\n      swap2\n      sub\n      swap1\n      return\n        /* \"contracts/CalismaBilgileri.sol\":983:2244  function ekleCalismaBilgi(address _kisiAddress, uint32 pozisyon, uint8 sektor, CalismaTipi calismaTipi, string memory isAciklama, uint basTarih, uint bitTarih, uint8 ulke, uint32 sehir)  public sadece_Uni_Firma_Kamu{\r... */\n    tag_13:\n      tag_69\n      0x04\n      dup1\n      calldatasize\n      sub\n      dup2\n      add\n      swap1\n      tag_70\n      swap2\n      swap1\n      tag_22\n      jump\t// in\n    tag_70:\n      tag_71\n      jump\t// in\n    tag_69:\n      stop\n        /* \"contracts/CalismaBilgileri.sol\":183:197  uint public id */\n    tag_14:\n      tag_72\n      tag_73\n      jump\t// in\n    tag_72:\n      mload(0x40)\n      tag_74\n      swap2\n      swap1\n      tag_54\n      jump\t// in\n    tag_74:\n      mload(0x40)\n      dup1\n      swap2\n      sub\n      swap1\n      return\n        /* \"contracts/BaseContract.sol\":3607:3658  mapping(address=>Akademisyen) public akademisyenler */\n    tag_15:\n      tag_75\n      0x04\n      dup1\n      calldatasize\n      sub\n      dup2\n      add\n      swap1\n      tag_76\n      swap2\n      swap1\n      tag_32\n      jump\t// in\n    tag_76:\n      tag_77\n      jump\t// in\n    tag_75:\n      mload(0x40)\n      tag_78\n      swap7\n      swap6\n      swap5\n      swap4\n      swap3\n      swap2\n      swap1\n      tag_79\n      jump\t// in\n    tag_78:\n      mload(0x40)\n      dup1\n      swap2\n      sub\n      swap1\n      return\n        /* \"contracts/BaseContract.sol\":3507:3544  mapping(address=>Kisi) public kisiler */\n    tag_16:\n      tag_80\n      0x04\n      dup1\n      calldatasize\n      sub\n      dup2\n      add\n      swap1\n      tag_81\n      swap2\n      swap1\n      tag_32\n      jump\t// in\n    tag_81:\n      tag_82\n      jump\t// in\n    tag_80:\n      mload(0x40)\n      tag_83\n      swap2\n      swap1\n      tag_84\n      jump\t// in\n    tag_83:\n      mload(0x40)\n      dup1\n      swap2\n      sub\n      swap1\n      return\n        /* \"contracts/CalismaBilgileri.sol\":3676:4836  function talepEtCalismaBilgi(address _talepEdilenKurum, uint32 pozisyon, uint8 sektor, CalismaTipi calismaTipi, string memory isAciklama, uint basTarih, uint bitTarih, uint8 ulke, uint32 sehir)  public sadeceKisi{\r... */\n    tag_23:\n        /* \"contracts/BaseContract.sol\":2543:2550  kisiler */\n      0x03\n        /* \"contracts/BaseContract.sol\":2543:2562  kisiler[msg.sender] */\n      0x00\n        /* \"contracts/BaseContract.sol\":2551:2561  msg.sender */\n      caller\n        /* \"contracts/BaseContract.sol\":2543:2562  kisiler[msg.sender] */\n      0xffffffffffffffffffffffffffffffffffffffff\n      and\n      0xffffffffffffffffffffffffffffffffffffffff\n      and\n      dup2\n      mstore\n      0x20\n      add\n      swap1\n      dup2\n      mstore\n      0x20\n      add\n      0x00\n      keccak256\n        /* \"contracts/BaseContract.sol\":2543:2568  kisiler[msg.sender].durum */\n      0x00\n      add\n      0x00\n      swap1\n      sload\n      swap1\n      0x0100\n      exp\n      swap1\n      div\n      0xff\n      and\n        /* \"contracts/BaseContract.sol\":2535:2620  require(kisiler[msg.sender].durum,\r... */\n      tag_86\n      jumpi\n      mload(0x40)\n      0x08c379a000000000000000000000000000000000000000000000000000000000\n      dup2\n      mstore\n      0x04\n      add\n      tag_87\n      swap1\n      tag_88\n      jump\t// in\n    tag_87:\n      mload(0x40)\n      dup1\n      swap2\n      sub\n      swap1\n      revert\n    tag_86:\n        /* \"contracts/CalismaBilgileri.sol\":3912:3919  kisiler */\n      0x03\n        /* \"contracts/CalismaBilgileri.sol\":3912:3931  kisiler[msg.sender] */\n      0x00\n        /* \"contracts/CalismaBilgileri.sol\":3920:3930  msg.sender */\n      caller\n        /* \"contracts/CalismaBilgileri.sol\":3912:3931  kisiler[msg.sender] */\n      0xffffffffffffffffffffffffffffffffffffffff\n      and\n      0xffffffffffffffffffffffffffffffffffffffff\n      and\n      dup2\n      mstore\n      0x20\n      add\n      swap1\n      dup2\n      mstore\n      0x20\n      add\n      0x00\n      keccak256\n        /* \"contracts/CalismaBilgileri.sol\":3912:3937  kisiler[msg.sender].durum */\n      0x00\n      add\n      0x00\n      swap1\n      sload\n      swap1\n      0x0100\n      exp\n      swap1\n      div\n      0xff\n      and\n        /* \"contracts/CalismaBilgileri.sol\":3904:3959  require(kisiler[msg.sender].durum,\"Student not exists\") */\n      tag_90\n      jumpi\n      mload(0x40)\n      0x08c379a000000000000000000000000000000000000000000000000000000000\n      dup2\n      mstore\n      0x04\n      add\n      tag_91\n      swap1\n      tag_92\n      jump\t// in\n    tag_91:\n      mload(0x40)\n      dup1\n      swap2\n      sub\n      swap1\n      revert\n    tag_90:\n        /* \"contracts/CalismaBilgileri.sol\":3975:3986  uint yeniId */\n      0x00\n        /* \"contracts/CalismaBilgileri.sol\":3987:3989  id */\n      0x0c\n      0x00\n        /* \"contracts/CalismaBilgileri.sol\":3987:3991  id++ */\n      dup2\n      sload\n      dup1\n      swap3\n      swap2\n      swap1\n      tag_93\n      swap1\n      tag_94\n      jump\t// in\n    tag_93:\n      swap2\n      swap1\n      pop\n      sstore\n        /* \"contracts/CalismaBilgileri.sol\":3975:3991  uint yeniId=id++ */\n      swap1\n      pop\n        /* \"contracts/CalismaBilgileri.sol\":4063:4080  _talepEdilenKurum */\n      dup10\n        /* \"contracts/CalismaBilgileri.sol\":4009:4025  calismaBilgileri */\n      0x0d\n        /* \"contracts/CalismaBilgileri.sol\":4009:4037  calismaBilgileri[msg.sender] */\n      0x00\n        /* \"contracts/CalismaBilgileri.sol\":4026:4036  msg.sender */\n      caller\n        /* \"contracts/CalismaBilgileri.sol\":4009:4037  calismaBilgileri[msg.sender] */\n      0xffffffffffffffffffffffffffffffffffffffff\n      and\n      0xffffffffffffffffffffffffffffffffffffffff\n      and\n      dup2\n      mstore\n      0x20\n      add\n      swap1\n      dup2\n      mstore\n      0x20\n      add\n      0x00\n      keccak256\n        /* \"contracts/CalismaBilgileri.sol\":4009:4045  calismaBilgileri[msg.sender][yeniId] */\n      0x00\n        /* \"contracts/CalismaBilgileri.sol\":4038:4044  yeniId */\n      dup4\n        /* \"contracts/CalismaBilgileri.sol\":4009:4045  calismaBilgileri[msg.sender][yeniId] */\n      dup2\n      mstore\n      0x20\n      add\n      swap1\n      dup2\n      mstore\n      0x20\n      add\n      0x00\n      keccak256\n        /* \"contracts/CalismaBilgileri.sol\":4009:4062  calismaBilgileri[msg.sender][yeniId].talepEdilenKurum */\n      0x01\n      add\n      0x00\n        /* \"contracts/CalismaBilgileri.sol\":4009:4080  calismaBilgileri[msg.sender][yeniId].talepEdilenKurum=_talepEdilenKurum */\n      0x0100\n      exp\n      dup2\n      sload\n      dup2\n      0xffffffffffffffffffffffffffffffffffffffff\n      mul\n      not\n      and\n      swap1\n      dup4\n      0xffffffffffffffffffffffffffffffffffffffff\n      and\n      mul\n      or\n      swap1\n      sstore\n      pop\n        /* \"contracts/CalismaBilgileri.sol\":4142:4150  pozisyon */\n      dup9\n        /* \"contracts/CalismaBilgileri.sol\":4096:4112  calismaBilgileri */\n      0x0d\n        /* \"contracts/CalismaBilgileri.sol\":4096:4124  calismaBilgileri[msg.sender] */\n      0x00\n        /* \"contracts/CalismaBilgileri.sol\":4113:4123  msg.sender */\n      caller\n        /* \"contracts/CalismaBilgileri.sol\":4096:4124  calismaBilgileri[msg.sender] */\n      0xffffffffffffffffffffffffffffffffffffffff\n      and\n      0xffffffffffffffffffffffffffffffffffffffff\n      and\n      dup2\n      mstore\n      0x20\n      add\n      swap1\n      dup2\n      mstore\n      0x20\n      add\n      0x00\n      keccak256\n        /* \"contracts/CalismaBilgileri.sol\":4096:4132  calismaBilgileri[msg.sender][yeniId] */\n      0x00\n        /* \"contracts/CalismaBilgileri.sol\":4125:4131  yeniId */\n      dup4\n        /* \"contracts/CalismaBilgileri.sol\":4096:4132  calismaBilgileri[msg.sender][yeniId] */\n      dup2\n      mstore\n      0x20\n      add\n      swap1\n      dup2\n      mstore\n      0x20\n      add\n      0x00\n      keccak256\n        /* \"contracts/CalismaBilgileri.sol\":4096:4141  calismaBilgileri[msg.sender][yeniId].pozisyon */\n      0x01\n      add\n      0x14\n        /* \"contracts/CalismaBilgileri.sol\":4096:4150  calismaBilgileri[msg.sender][yeniId].pozisyon=pozisyon */\n      0x0100\n      exp\n      dup2\n      sload\n      dup2\n      0xffffffff\n      mul\n      not\n      and\n      swap1\n      dup4\n      0xffffffff\n      and\n      mul\n      or\n      swap1\n      sstore\n      pop\n        /* \"contracts/CalismaBilgileri.sol\":4210:4216  sektor */\n      dup8\n        /* \"contracts/CalismaBilgileri.sol\":4166:4182  calismaBilgileri */\n      0x0d\n        /* \"contracts/CalismaBilgileri.sol\":4166:4194  calismaBilgileri[msg.sender] */\n      0x00\n        /* \"contracts/CalismaBilgileri.sol\":4183:4193  msg.sender */\n      caller\n        /* \"contracts/CalismaBilgileri.sol\":4166:4194  calismaBilgileri[msg.sender] */\n      0xffffffffffffffffffffffffffffffffffffffff\n      and\n      0xffffffffffffffffffffffffffffffffffffffff\n      and\n      dup2\n      mstore\n      0x20\n      add\n      swap1\n      dup2\n      mstore\n      0x20\n      add\n      0x00\n      keccak256\n        /* \"contracts/CalismaBilgileri.sol\":4166:4202  calismaBilgileri[msg.sender][yeniId] */\n      0x00\n        /* \"contracts/CalismaBilgileri.sol\":4195:4201  yeniId */\n      dup4\n        /* \"contracts/CalismaBilgileri.sol\":4166:4202  calismaBilgileri[msg.sender][yeniId] */\n      dup2\n      mstore\n      0x20\n      add\n      swap1\n      dup2\n      mstore\n      0x20\n      add\n      0x00\n      keccak256\n        /* \"contracts/CalismaBilgileri.sol\":4166:4209  calismaBilgileri[msg.sender][yeniId].sektor */\n      0x01\n      add\n      0x18\n        /* \"contracts/CalismaBilgileri.sol\":4166:4216  calismaBilgileri[msg.sender][yeniId].sektor=sektor */\n      0x0100\n      exp\n      dup2\n      sload\n      dup2\n      0xff\n      mul\n      not\n      and\n      swap1\n      dup4\n      0xff\n      and\n      mul\n      or\n      swap1\n      sstore\n      pop\n        /* \"contracts/CalismaBilgileri.sol\":4281:4292  calismaTipi */\n      dup7\n        /* \"contracts/CalismaBilgileri.sol\":4232:4248  calismaBilgileri */\n      0x0d\n        /* \"contracts/CalismaBilgileri.sol\":4232:4260  calismaBilgileri[msg.sender] */\n      0x00\n        /* \"contracts/CalismaBilgileri.sol\":4249:4259  msg.sender */\n      caller\n        /* \"contracts/CalismaBilgileri.sol\":4232:4260  calismaBilgileri[msg.sender] */\n      0xffffffffffffffffffffffffffffffffffffffff\n      and\n      0xffffffffffffffffffffffffffffffffffffffff\n      and\n      dup2\n      mstore\n      0x20\n      add\n      swap1\n      dup2\n      mstore\n      0x20\n      add\n      0x00\n      keccak256\n        /* \"contracts/CalismaBilgileri.sol\":4232:4268  calismaBilgileri[msg.sender][yeniId] */\n      0x00\n        /* \"contracts/CalismaBilgileri.sol\":4261:4267  yeniId */\n      dup4\n        /* \"contracts/CalismaBilgileri.sol\":4232:4268  calismaBilgileri[msg.sender][yeniId] */\n      dup2\n      mstore\n      0x20\n      add\n      swap1\n      dup2\n      mstore\n      0x20\n      add\n      0x00\n      keccak256\n        /* \"contracts/CalismaBilgileri.sol\":4232:4280  calismaBilgileri[msg.sender][yeniId].calismaTipi */\n      0x01\n      add\n      0x19\n        /* \"contracts/CalismaBilgileri.sol\":4232:4292  calismaBilgileri[msg.sender][yeniId].calismaTipi=calismaTipi */\n      0x0100\n      exp\n      dup2\n      sload\n      dup2\n      0xff\n      mul\n      not\n      and\n      swap1\n      dup4\n      0x02\n      dup2\n      gt\n      iszero\n      tag_95\n      jumpi\n      tag_96\n      tag_97\n      jump\t// in\n    tag_96:\n    tag_95:\n      mul\n      or\n      swap1\n      sstore\n      pop\n        /* \"contracts/CalismaBilgileri.sol\":4356:4366  isAciklama */\n      dup6\n        /* \"contracts/CalismaBilgileri.sol\":4308:4324  calismaBilgileri */\n      0x0d\n        /* \"contracts/CalismaBilgileri.sol\":4308:4336  calismaBilgileri[msg.sender] */\n      0x00\n        /* \"contracts/CalismaBilgileri.sol\":4325:4335  msg.sender */\n      caller\n        /* \"contracts/CalismaBilgileri.sol\":4308:4336  calismaBilgileri[msg.sender] */\n      0xffffffffffffffffffffffffffffffffffffffff\n      and\n      0xffffffffffffffffffffffffffffffffffffffff\n      and\n      dup2\n      mstore\n      0x20\n      add\n      swap1\n      dup2\n      mstore\n      0x20\n      add\n      0x00\n      keccak256\n        /* \"contracts/CalismaBilgileri.sol\":4308:4344  calismaBilgileri[msg.sender][yeniId] */\n      0x00\n        /* \"contracts/CalismaBilgileri.sol\":4337:4343  yeniId */\n      dup4\n        /* \"contracts/CalismaBilgileri.sol\":4308:4344  calismaBilgileri[msg.sender][yeniId] */\n      dup2\n      mstore\n      0x20\n      add\n      swap1\n      dup2\n      mstore\n      0x20\n      add\n      0x00\n      keccak256\n        /* \"contracts/CalismaBilgileri.sol\":4308:4355  calismaBilgileri[msg.sender][yeniId].isAciklama */\n      0x02\n      add\n        /* \"contracts/CalismaBilgileri.sol\":4308:4366  calismaBilgileri[msg.sender][yeniId].isAciklama=isAciklama */\n      swap1\n      dup1\n      mload\n      swap1\n      0x20\n      add\n      swap1\n      tag_98\n      swap3\n      swap2\n      swap1\n      tag_99\n      jump\t// in\n    tag_98:\n      pop\n        /* \"contracts/CalismaBilgileri.sol\":4428:4436  basTarih */\n      dup5\n        /* \"contracts/CalismaBilgileri.sol\":4382:4398  calismaBilgileri */\n      0x0d\n        /* \"contracts/CalismaBilgileri.sol\":4382:4410  calismaBilgileri[msg.sender] */\n      0x00\n        /* \"contracts/CalismaBilgileri.sol\":4399:4409  msg.sender */\n      caller\n        /* \"contracts/CalismaBilgileri.sol\":4382:4410  calismaBilgileri[msg.sender] */\n      0xffffffffffffffffffffffffffffffffffffffff\n      and\n      0xffffffffffffffffffffffffffffffffffffffff\n      and\n      dup2\n      mstore\n      0x20\n      add\n      swap1\n      dup2\n      mstore\n      0x20\n      add\n      0x00\n      keccak256\n        /* \"contracts/CalismaBilgileri.sol\":4382:4418  calismaBilgileri[msg.sender][yeniId] */\n      0x00\n        /* \"contracts/CalismaBilgileri.sol\":4411:4417  yeniId */\n      dup4\n        /* \"contracts/CalismaBilgileri.sol\":4382:4418  calismaBilgileri[msg.sender][yeniId] */\n      dup2\n      mstore\n      0x20\n      add\n      swap1\n      dup2\n      mstore\n      0x20\n      add\n      0x00\n      keccak256\n        /* \"contracts/CalismaBilgileri.sol\":4382:4427  calismaBilgileri[msg.sender][yeniId].basTarih */\n      0x03\n      add\n        /* \"contracts/CalismaBilgileri.sol\":4382:4436  calismaBilgileri[msg.sender][yeniId].basTarih=basTarih */\n      dup2\n      swap1\n      sstore\n      pop\n        /* \"contracts/CalismaBilgileri.sol\":4498:4506  bitTarih */\n      dup4\n        /* \"contracts/CalismaBilgileri.sol\":4452:4468  calismaBilgileri */\n      0x0d\n        /* \"contracts/CalismaBilgileri.sol\":4452:4480  calismaBilgileri[msg.sender] */\n      0x00\n        /* \"contracts/CalismaBilgileri.sol\":4469:4479  msg.sender */\n      caller\n        /* \"contracts/CalismaBilgileri.sol\":4452:4480  calismaBilgileri[msg.sender] */\n      0xffffffffffffffffffffffffffffffffffffffff\n      and\n      0xffffffffffffffffffffffffffffffffffffffff\n      and\n      dup2\n      mstore\n      0x20\n      add\n      swap1\n      dup2\n      mstore\n      0x20\n      add\n      0x00\n      keccak256\n        /* \"contracts/CalismaBilgileri.sol\":4452:4488  calismaBilgileri[msg.sender][yeniId] */\n      0x00\n        /* \"contracts/CalismaBilgileri.sol\":4481:4487  yeniId */\n      dup4\n        /* \"contracts/CalismaBilgileri.sol\":4452:4488  calismaBilgileri[msg.sender][yeniId] */\n      dup2\n      mstore\n      0x20\n      add\n      swap1\n      dup2\n      mstore\n      0x20\n      add\n      0x00\n      keccak256\n        /* \"contracts/CalismaBilgileri.sol\":4452:4497  calismaBilgileri[msg.sender][yeniId].bitTarih */\n      0x04\n      add\n        /* \"contracts/CalismaBilgileri.sol\":4452:4506  calismaBilgileri[msg.sender][yeniId].bitTarih=bitTarih */\n      dup2\n      swap1\n      sstore\n      pop\n        /* \"contracts/CalismaBilgileri.sol\":4564:4568  ulke */\n      dup3\n        /* \"contracts/CalismaBilgileri.sol\":4522:4538  calismaBilgileri */\n      0x0d\n        /* \"contracts/CalismaBilgileri.sol\":4522:4550  calismaBilgileri[msg.sender] */\n      0x00\n        /* \"contracts/CalismaBilgileri.sol\":4539:4549  msg.sender */\n      caller\n        /* \"contracts/CalismaBilgileri.sol\":4522:4550  calismaBilgileri[msg.sender] */\n      0xffffffffffffffffffffffffffffffffffffffff\n      and\n      0xffffffffffffffffffffffffffffffffffffffff\n      and\n      dup2\n      mstore\n      0x20\n      add\n      swap1\n      dup2\n      mstore\n      0x20\n      add\n      0x00\n      keccak256\n        /* \"contracts/CalismaBilgileri.sol\":4522:4558  calismaBilgileri[msg.sender][yeniId] */\n      0x00\n        /* \"contracts/CalismaBilgileri.sol\":4551:4557  yeniId */\n      dup4\n        /* \"contracts/CalismaBilgileri.sol\":4522:4558  calismaBilgileri[msg.sender][yeniId] */\n      dup2\n      mstore\n      0x20\n      add\n      swap1\n      dup2\n      mstore\n      0x20\n      add\n      0x00\n      keccak256\n        /* \"contracts/CalismaBilgileri.sol\":4522:4563  calismaBilgileri[msg.sender][yeniId].ulke */\n      0x05\n      add\n      0x00\n        /* \"contracts/CalismaBilgileri.sol\":4522:4568  calismaBilgileri[msg.sender][yeniId].ulke=ulke */\n      0x0100\n      exp\n      dup2\n      sload\n      dup2\n      0xff\n      mul\n      not\n      and\n      swap1\n      dup4\n      0xff\n      and\n      mul\n      or\n      swap1\n      sstore\n      pop\n        /* \"contracts/CalismaBilgileri.sol\":4627:4632  sehir */\n      dup2\n        /* \"contracts/CalismaBilgileri.sol\":4584:4600  calismaBilgileri */\n      0x0d\n        /* \"contracts/CalismaBilgileri.sol\":4584:4612  calismaBilgileri[msg.sender] */\n      0x00\n        /* \"contracts/CalismaBilgileri.sol\":4601:4611  msg.sender */\n      caller\n        /* \"contracts/CalismaBilgileri.sol\":4584:4612  calismaBilgileri[msg.sender] */\n      0xffffffffffffffffffffffffffffffffffffffff\n      and\n      0xffffffffffffffffffffffffffffffffffffffff\n      and\n      dup2\n      mstore\n      0x20\n      add\n      swap1\n      dup2\n      mstore\n      0x20\n      add\n      0x00\n      keccak256\n        /* \"contracts/CalismaBilgileri.sol\":4584:4620  calismaBilgileri[msg.sender][yeniId] */\n      0x00\n        /* \"contracts/CalismaBilgileri.sol\":4613:4619  yeniId */\n      dup4\n        /* \"contracts/CalismaBilgileri.sol\":4584:4620  calismaBilgileri[msg.sender][yeniId] */\n      dup2\n      mstore\n      0x20\n      add\n      swap1\n      dup2\n      mstore\n      0x20\n      add\n      0x00\n      keccak256\n        /* \"contracts/CalismaBilgileri.sol\":4584:4626  calismaBilgileri[msg.sender][yeniId].sehir */\n      0x05\n      add\n      0x01\n        /* \"contracts/CalismaBilgileri.sol\":4584:4632  calismaBilgileri[msg.sender][yeniId].sehir=sehir */\n      0x0100\n      exp\n      dup2\n      sload\n      dup2\n      0xffffffff\n      mul\n      not\n      and\n      swap1\n      dup4\n      0xffffffff\n      and\n      mul\n      or\n      swap1\n      sstore\n      pop\n        /* \"contracts/CalismaBilgileri.sol\":4701:4723  OnayDurum.OnayBekliyor */\n      0x00\n        /* \"contracts/CalismaBilgileri.sol\":4648:4664  calismaBilgileri */\n      0x0d\n        /* \"contracts/CalismaBilgileri.sol\":4648:4676  calismaBilgileri[msg.sender] */\n      0x00\n        /* \"contracts/CalismaBilgileri.sol\":4665:4675  msg.sender */\n      caller\n        /* \"contracts/CalismaBilgileri.sol\":4648:4676  calismaBilgileri[msg.sender] */\n      0xffffffffffffffffffffffffffffffffffffffff\n      and\n      0xffffffffffffffffffffffffffffffffffffffff\n      and\n      dup2\n      mstore\n      0x20\n      add\n      swap1\n      dup2\n      mstore\n      0x20\n      add\n      0x00\n      keccak256\n        /* \"contracts/CalismaBilgileri.sol\":4648:4684  calismaBilgileri[msg.sender][yeniId] */\n      0x00\n        /* \"contracts/CalismaBilgileri.sol\":4677:4683  yeniId */\n      dup4\n        /* \"contracts/CalismaBilgileri.sol\":4648:4684  calismaBilgileri[msg.sender][yeniId] */\n      dup2\n      mstore\n      0x20\n      add\n      swap1\n      dup2\n      mstore\n      0x20\n      add\n      0x00\n      keccak256\n        /* \"contracts/CalismaBilgileri.sol\":4648:4694  calismaBilgileri[msg.sender][yeniId].onayBilgi */\n      0x06\n      add\n        /* \"contracts/CalismaBilgileri.sol\":4648:4700  calismaBilgileri[msg.sender][yeniId].onayBilgi.durum */\n      0x01\n      add\n      0x14\n        /* \"contracts/CalismaBilgileri.sol\":4648:4723  calismaBilgileri[msg.sender][yeniId].onayBilgi.durum=OnayDurum.OnayBekliyor */\n      0x0100\n      exp\n      dup2\n      sload\n      dup2\n      0xff\n      mul\n      not\n      and\n      swap1\n      dup4\n      0x02\n      dup2\n      gt\n      iszero\n      tag_100\n      jumpi\n      tag_101\n      tag_97\n      jump\t// in\n    tag_101:\n    tag_100:\n      mul\n      or\n      swap1\n      sstore\n      pop\n        /* \"contracts/CalismaBilgileri.sol\":4759:4828  CalismaBilgiTalepEdildiLog( _talepEdilenKurum, ulke,pozisyon, sektor) */\n      0xb1e7ee8400131f0adc507179ea96ee8eb90b1a9e9215ce4232f874cb41aa88ef\n        /* \"contracts/CalismaBilgileri.sol\":4787:4804  _talepEdilenKurum */\n      dup11\n        /* \"contracts/CalismaBilgileri.sol\":4806:4810  ulke */\n      dup5\n        /* \"contracts/CalismaBilgileri.sol\":4811:4819  pozisyon */\n      dup12\n        /* \"contracts/CalismaBilgileri.sol\":4821:4827  sektor */\n      dup12\n        /* \"contracts/CalismaBilgileri.sol\":4759:4828  CalismaBilgiTalepEdildiLog( _talepEdilenKurum, ulke,pozisyon, sektor) */\n      mload(0x40)\n      tag_102\n      swap5\n      swap4\n      swap3\n      swap2\n      swap1\n      tag_103\n      jump\t// in\n    tag_102:\n      mload(0x40)\n      dup1\n      swap2\n      sub\n      swap1\n      log1\n        /* \"contracts/CalismaBilgileri.sol\":3888:4836  {\r... */\n      pop\n        /* \"contracts/CalismaBilgileri.sol\":3676:4836  function talepEtCalismaBilgi(address _talepEdilenKurum, uint32 pozisyon, uint8 sektor, CalismaTipi calismaTipi, string memory isAciklama, uint basTarih, uint bitTarih, uint8 ulke, uint32 sehir)  public sadeceKisi{\r... */\n      pop\n      pop\n      pop\n      pop\n      pop\n      pop\n      pop\n      pop\n      pop\n      jump\t// out\n        /* \"contracts/CalismaBilgileri.sol\":558:627  mapping(address=>mapping(uint=>CalismaBilgi)) public calismaBilgileri */\n    tag_27:\n      mstore(0x20, 0x0d)\n      dup2\n      0x00\n      mstore\n      mstore(0x20, keccak256(0x00, 0x40))\n      dup1\n      0x00\n      mstore\n      keccak256(0x00, 0x40)\n      0x00\n      swap2\n      pop\n      swap2\n      pop\n      pop\n      dup1\n      0x00\n      add\n      sload\n      swap1\n      dup1\n      0x01\n      add\n      0x00\n      swap1\n      sload\n      swap1\n      0x0100\n      exp\n      swap1\n      div\n      0xffffffffffffffffffffffffffffffffffffffff\n      and\n      swap1\n      dup1\n      0x01\n      add\n      0x14\n      swap1\n      sload\n      swap1\n      0x0100\n      exp\n      swap1\n      div\n      0xffffffff\n      and\n      swap1\n      dup1\n      0x01\n      add\n      0x18\n      swap1\n      sload\n      swap1\n      0x0100\n      exp\n      swap1\n      div\n      0xff\n      and\n      swap1\n      dup1\n      0x01\n      add\n      0x19\n      swap1\n      sload\n      swap1\n      0x0100\n      exp\n      swap1\n      div\n      0xff\n      and\n      swap1\n      dup1\n      0x02\n      add\n      dup1\n      sload\n      tag_104\n      swap1\n      tag_105\n      jump\t// in\n    tag_104:\n      dup1\n      0x1f\n      add\n      0x20\n      dup1\n      swap2\n      div\n      mul\n      0x20\n      add\n      mload(0x40)\n      swap1\n      dup2\n      add\n      0x40\n      mstore\n      dup1\n      swap3\n      swap2\n      swap1\n      dup2\n      dup2\n      mstore\n      0x20\n      add\n      dup3\n      dup1\n      sload\n      tag_106\n      swap1\n      tag_105\n      jump\t// in\n    tag_106:\n      dup1\n      iszero\n      tag_107\n      jumpi\n      dup1\n      0x1f\n      lt\n      tag_108\n      jumpi\n      0x0100\n      dup1\n      dup4\n      sload\n      div\n      mul\n      dup4\n      mstore\n      swap2\n      0x20\n      add\n      swap2\n      jump(tag_107)\n    tag_108:\n      dup3\n      add\n      swap2\n      swap1\n      0x00\n      mstore\n      keccak256(0x00, 0x20)\n      swap1\n    tag_109:\n      dup2\n      sload\n      dup2\n      mstore\n      swap1\n      0x01\n      add\n      swap1\n      0x20\n      add\n      dup1\n      dup4\n      gt\n      tag_109\n      jumpi\n      dup3\n      swap1\n      sub\n      0x1f\n      and\n      dup3\n      add\n      swap2\n    tag_107:\n      pop\n      pop\n      pop\n      pop\n      pop\n      swap1\n      dup1\n      0x03\n      add\n      sload\n      swap1\n      dup1\n      0x04\n      add\n      sload\n      swap1\n      dup1\n      0x05\n      add\n      0x00\n      swap1\n      sload\n      swap1\n      0x0100\n      exp\n      swap1\n      div\n      0xff\n      and\n      swap1\n      dup1\n      0x05\n      add\n      0x01\n      swap1\n      sload\n      swap1\n      0x0100\n      exp\n      swap1\n      div\n      0xffffffff\n      and\n      swap1\n      dup1\n      0x06\n      add\n      mload(0x40)\n      dup1\n      0x60\n      add\n      0x40\n      mstore\n      swap1\n      dup2\n      0x00\n      dup3\n      add\n      sload\n      dup2\n      mstore\n      0x20\n      add\n      0x01\n      dup3\n      add\n      0x00\n      swap1\n      sload\n      swap1\n      0x0100\n      exp\n      swap1\n      div\n      0xffffffffffffffffffffffffffffffffffffffff\n      and\n      0xffffffffffffffffffffffffffffffffffffffff\n      and\n      0xffffffffffffffffffffffffffffffffffffffff\n      and\n      dup2\n      mstore\n      0x20\n      add\n      0x01\n      dup3\n      add\n      0x14\n      swap1\n      sload\n      swap1\n      0x0100\n      exp\n      swap1\n      div\n      0xff\n      and\n      0x02\n      dup2\n      gt\n      iszero\n      tag_110\n      jumpi\n      tag_111\n      tag_97\n      jump\t// in\n    tag_111:\n    tag_110:\n      0x02\n      dup2\n      gt\n      iszero\n      tag_112\n      jumpi\n      tag_113\n      tag_97\n      jump\t// in\n    tag_113:\n    tag_112:\n      dup2\n      mstore\n      pop\n      pop\n      swap1\n      pop\n      dup12\n      jump\t// out\n        /* \"contracts/BaseContract.sol\":3712:3750  mapping(address=>Kurs) public  kurslar */\n    tag_33:\n      mstore(0x20, 0x07)\n      dup1\n      0x00\n      mstore\n      keccak256(0x00, 0x40)\n      0x00\n      swap2\n      pop\n      swap1\n      pop\n      dup1\n      0x00\n      add\n      0x00\n      swap1\n      sload\n      swap1\n      0x0100\n      exp\n      swap1\n      div\n      0xff\n      and\n      swap1\n      dup1\n      0x01\n      add\n      dup1\n      sload\n      tag_114\n      swap1\n      tag_105\n      jump\t// in\n    tag_114:\n      dup1\n      0x1f\n      add\n      0x20\n      dup1\n      swap2\n      div\n      mul\n      0x20\n      add\n      mload(0x40)\n      swap1\n      dup2\n      add\n      0x40\n      mstore\n      dup1\n      swap3\n      swap2\n      swap1\n      dup2\n      dup2\n      mstore\n      0x20\n      add\n      dup3\n      dup1\n      sload\n      tag_115\n      swap1\n      tag_105\n      jump\t// in\n    tag_115:\n      dup1\n      iszero\n      tag_116\n      jumpi\n      dup1\n      0x1f\n      lt\n      tag_117\n      jumpi\n      0x0100\n      dup1\n      dup4\n      sload\n      div\n      mul\n      dup4\n      mstore\n      swap2\n      0x20\n      add\n      swap2\n      jump(tag_116)\n    tag_117:\n      dup3\n      add\n      swap2\n      swap1\n      0x00\n      mstore\n      keccak256(0x00, 0x20)\n      swap1\n    tag_118:\n      dup2\n      sload\n      dup2\n      mstore\n      swap1\n      0x01\n      add\n      swap1\n      0x20\n      add\n      dup1\n      dup4\n      gt\n      tag_118\n      jumpi\n      dup3\n      swap1\n      sub\n      0x1f\n      and\n      dup3\n      add\n      swap2\n    tag_116:\n      pop\n      pop\n      pop\n      pop\n      pop\n      swap1\n      dup1\n      0x02\n      add\n      0x00\n      swap1\n      sload\n      swap1\n      0x0100\n      exp\n      swap1\n      div\n      0xff\n      and\n      swap1\n      pop\n      dup4\n      jump\t// out\n        /* \"contracts/BaseContract.sol\":3551:3600  mapping(address=>Universite) public universiteler */\n    tag_38:\n      mstore(0x20, 0x04)\n      dup1\n      0x00\n      mstore\n      keccak256(0x00, 0x40)\n      0x00\n      swap2\n      pop\n      swap1\n      pop\n      dup1\n      0x00\n      add\n      0x00\n      swap1\n      sload\n      swap1\n      0x0100\n      exp\n      swap1\n      div\n      0xff\n      and\n      swap1\n      dup1\n      0x01\n      add\n      dup1\n      sload\n      tag_119\n      swap1\n      tag_105\n      jump\t// in\n    tag_119:\n      dup1\n      0x1f\n      add\n      0x20\n      dup1\n      swap2\n      div\n      mul\n      0x20\n      add\n      mload(0x40)\n      swap1\n      dup2\n      add\n      0x40\n      mstore\n      dup1\n      swap3\n      swap2\n      swap1\n      dup2\n      dup2\n      mstore\n      0x20\n      add\n      dup3\n      dup1\n      sload\n      tag_120\n      swap1\n      tag_105\n      jump\t// in\n    tag_120:\n      dup1\n      iszero\n      tag_121\n      jumpi\n      dup1\n      0x1f\n      lt\n      tag_122\n      jumpi\n      0x0100\n      dup1\n      dup4\n      sload\n      div\n      mul\n      dup4\n      mstore\n      swap2\n      0x20\n      add\n      swap2\n      jump(tag_121)\n    tag_122:\n      dup3\n      add\n      swap2\n      swap1\n      0x00\n      mstore\n      keccak256(0x00, 0x20)\n      swap1\n    tag_123:\n      dup2\n      sload\n      dup2\n      mstore\n      swap1\n      0x01\n      add\n      swap1\n      0x20\n      add\n      dup1\n      dup4\n      gt\n      tag_123\n      jumpi\n      dup3\n      swap1\n      sub\n      0x1f\n      and\n      dup3\n      add\n      swap2\n    tag_121:\n      pop\n      pop\n      pop\n      pop\n      pop\n      swap1\n      dup1\n      0x02\n      add\n      0x00\n      swap1\n      sload\n      swap1\n      0x0100\n      exp\n      swap1\n      div\n      0xff\n      and\n      swap1\n      pop\n      dup4\n      jump\t// out\n        /* \"contracts/BaseContract.sol\":3855:3916  mapping(address=>SertifikaMerkezi) public sertifikaMerkezleri */\n    tag_42:\n      mstore(0x20, 0x0a)\n      dup1\n      0x00\n      mstore\n      keccak256(0x00, 0x40)\n      0x00\n      swap2\n      pop\n      swap1\n      pop\n      dup1\n      0x00\n      add\n      0x00\n      swap1\n      sload\n      swap1\n      0x0100\n      exp\n      swap1\n      div\n      0xff\n      and\n      swap1\n      dup1\n      0x01\n      add\n      dup1\n      sload\n      tag_124\n      swap1\n      tag_105\n      jump\t// in\n    tag_124:\n      dup1\n      0x1f\n      add\n      0x20\n      dup1\n      swap2\n      div\n      mul\n      0x20\n      add\n      mload(0x40)\n      swap1\n      dup2\n      add\n      0x40\n      mstore\n      dup1\n      swap3\n      swap2\n      swap1\n      dup2\n      dup2\n      mstore\n      0x20\n      add\n      dup3\n      dup1\n      sload\n      tag_125\n      swap1\n      tag_105\n      jump\t// in\n    tag_125:\n      dup1\n      iszero\n      tag_126\n      jumpi\n      dup1\n      0x1f\n      lt\n      tag_127\n      jumpi\n      0x0100\n      dup1\n      dup4\n      sload\n      div\n      mul\n      dup4\n      mstore\n      swap2\n      0x20\n      add\n      swap2\n      jump(tag_126)\n    tag_127:\n      dup3\n      add\n      swap2\n      swap1\n      0x00\n      mstore\n      keccak256(0x00, 0x20)\n      swap1\n    tag_128:\n      dup2\n      sload\n      dup2\n      mstore\n      swap1\n      0x01\n      add\n      swap1\n      0x20\n      add\n      dup1\n      dup4\n      gt\n      tag_128\n      jumpi\n      dup3\n      swap1\n      sub\n      0x1f\n      and\n      dup3\n      add\n      swap2\n    tag_126:\n      pop\n      pop\n      pop\n      pop\n      pop\n      swap1\n      dup1\n      0x02\n      add\n      0x00\n      swap1\n      sload\n      swap1\n      0x0100\n      exp\n      swap1\n      div\n      0xff\n      and\n      swap1\n      pop\n      dup4\n      jump\t// out\n        /* \"contracts/BaseContract.sol\":3665:3705  mapping(address=>Firma) public  firmalar */\n    tag_46:\n      mstore(0x20, 0x06)\n      dup1\n      0x00\n      mstore\n      keccak256(0x00, 0x40)\n      0x00\n      swap2\n      pop\n      swap1\n      pop\n      dup1\n      0x00\n      add\n      0x00\n      swap1\n      sload\n      swap1\n      0x0100\n      exp\n      swap1\n      div\n      0xff\n      and\n      swap1\n      dup1\n      0x00\n      add\n      0x01\n      swap1\n      sload\n      swap1\n      0x0100\n      exp\n      swap1\n      div\n      0xff\n      and\n      swap1\n      dup1\n      0x01\n      add\n      sload\n      swap1\n      dup1\n      0x02\n      add\n      dup1\n      sload\n      tag_129\n      swap1\n      tag_105\n      jump\t// in\n    tag_129:\n      dup1\n      0x1f\n      add\n      0x20\n      dup1\n      swap2\n      div\n      mul\n      0x20\n      add\n      mload(0x40)\n      swap1\n      dup2\n      add\n      0x40\n      mstore\n      dup1\n      swap3\n      swap2\n      swap1\n      dup2\n      dup2\n      mstore\n      0x20\n      add\n      dup3\n      dup1\n      sload\n      tag_130\n      swap1\n      tag_105\n      jump\t// in\n    tag_130:\n      dup1\n      iszero\n      tag_131\n      jumpi\n      dup1\n      0x1f\n      lt\n      tag_132\n      jumpi\n      0x0100\n      dup1\n      dup4\n      sload\n      div\n      mul\n      dup4\n      mstore\n      swap2\n      0x20\n      add\n      swap2\n      jump(tag_131)\n    tag_132:\n      dup3\n      add\n      swap2\n      swap1\n      0x00\n      mstore\n      keccak256(0x00, 0x20)\n      swap1\n    tag_133:\n      dup2\n      sload\n      dup2\n      mstore\n      swap1\n      0x01\n      add\n      swap1\n      0x20\n      add\n      dup1\n      dup4\n      gt\n      tag_133\n      jumpi\n      dup3\n      swap1\n      sub\n      0x1f\n      and\n      dup3\n      add\n      swap2\n    tag_131:\n      pop\n      pop\n      pop\n      pop\n      pop\n      swap1\n      pop\n      dup5\n      jump\t// out\n        /* \"contracts/CalismaBilgileri.sol\":2253:3667  function guncelleCalismaBilgi(address _kisiAddress, uint _calismaBilgiId, uint32 pozisyon, uint8 sektor, CalismaTipi calismaTipi, string memory isAciklama, uint basTarih, uint bitTarih, uint8 ulke, uint32 sehir)  public sadece_Uni_Firma_Kamu returns(uint){\r... */\n    tag_52:\n        /* \"contracts/CalismaBilgileri.sol\":2503:2507  uint */\n      0x00\n        /* \"contracts/BaseContract.sol\":3178:3191  universiteler */\n      0x04\n        /* \"contracts/BaseContract.sol\":3178:3203  universiteler[msg.sender] */\n      0x00\n        /* \"contracts/BaseContract.sol\":3192:3202  msg.sender */\n      caller\n        /* \"contracts/BaseContract.sol\":3178:3203  universiteler[msg.sender] */\n      0xffffffffffffffffffffffffffffffffffffffff\n      and\n      0xffffffffffffffffffffffffffffffffffffffff\n      and\n      dup2\n      mstore\n      0x20\n      add\n      swap1\n      dup2\n      mstore\n      0x20\n      add\n      0x00\n      keccak256\n        /* \"contracts/BaseContract.sol\":3178:3209  universiteler[msg.sender].durum */\n      0x00\n      add\n      0x00\n      swap1\n      sload\n      swap1\n      0x0100\n      exp\n      swap1\n      div\n      0xff\n      and\n        /* \"contracts/BaseContract.sol\":3178:3237  universiteler[msg.sender].durum||firmalar[msg.sender].durum */\n      dup1\n      tag_135\n      jumpi\n      pop\n        /* \"contracts/BaseContract.sol\":3211:3219  firmalar */\n      0x06\n        /* \"contracts/BaseContract.sol\":3211:3231  firmalar[msg.sender] */\n      0x00\n        /* \"contracts/BaseContract.sol\":3220:3230  msg.sender */\n      caller\n        /* \"contracts/BaseContract.sol\":3211:3231  firmalar[msg.sender] */\n      0xffffffffffffffffffffffffffffffffffffffff\n      and\n      0xffffffffffffffffffffffffffffffffffffffff\n      and\n      dup2\n      mstore\n      0x20\n      add\n      swap1\n      dup2\n      mstore\n      0x20\n      add\n      0x00\n      keccak256\n        /* \"contracts/BaseContract.sol\":3211:3237  firmalar[msg.sender].durum */\n      0x00\n      add\n      0x00\n      swap1\n      sload\n      swap1\n      0x0100\n      exp\n      swap1\n      div\n      0xff\n      and\n        /* \"contracts/BaseContract.sol\":3178:3237  universiteler[msg.sender].durum||firmalar[msg.sender].durum */\n    tag_135:\n        /* \"contracts/BaseContract.sol\":3178:3270  universiteler[msg.sender].durum||firmalar[msg.sender].durum||kamuKurumlari[msg.sender].durum */\n      dup1\n      tag_136\n      jumpi\n      pop\n        /* \"contracts/BaseContract.sol\":3239:3252  kamuKurumlari */\n      0x08\n        /* \"contracts/BaseContract.sol\":3239:3264  kamuKurumlari[msg.sender] */\n      0x00\n        /* \"contracts/BaseContract.sol\":3253:3263  msg.sender */\n      caller\n        /* \"contracts/BaseContract.sol\":3239:3264  kamuKurumlari[msg.sender] */\n      0xffffffffffffffffffffffffffffffffffffffff\n      and\n      0xffffffffffffffffffffffffffffffffffffffff\n      and\n      dup2\n      mstore\n      0x20\n      add\n      swap1\n      dup2\n      mstore\n      0x20\n      add\n      0x00\n      keccak256\n        /* \"contracts/BaseContract.sol\":3239:3270  kamuKurumlari[msg.sender].durum */\n      0x00\n      add\n      0x00\n      swap1\n      sload\n      swap1\n      0x0100\n      exp\n      swap1\n      div\n      0xff\n      and\n        /* \"contracts/BaseContract.sol\":3178:3270  universiteler[msg.sender].durum||firmalar[msg.sender].durum||kamuKurumlari[msg.sender].durum */\n    tag_136:\n        /* \"contracts/BaseContract.sol\":3170:3322  require(universiteler[msg.sender].durum||firmalar[msg.sender].durum||kamuKurumlari[msg.sender].durum,\r... */\n      tag_137\n      jumpi\n      mload(0x40)\n      0x08c379a000000000000000000000000000000000000000000000000000000000\n      dup2\n      mstore\n      0x04\n      add\n      tag_138\n      swap1\n      tag_139\n      jump\t// in\n    tag_138:\n      mload(0x40)\n      dup1\n      swap2\n      sub\n      swap1\n      revert\n    tag_137:\n        /* \"contracts/CalismaBilgileri.sol\":2532:2539  kisiler */\n      0x03\n        /* \"contracts/CalismaBilgileri.sol\":2532:2553  kisiler[_kisiAddress] */\n      0x00\n        /* \"contracts/CalismaBilgileri.sol\":2540:2552  _kisiAddress */\n      dup13\n        /* \"contracts/CalismaBilgileri.sol\":2532:2553  kisiler[_kisiAddress] */\n      0xffffffffffffffffffffffffffffffffffffffff\n      and\n      0xffffffffffffffffffffffffffffffffffffffff\n      and\n      dup2\n      mstore\n      0x20\n      add\n      swap1\n      dup2\n      mstore\n      0x20\n      add\n      0x00\n      keccak256\n        /* \"contracts/CalismaBilgileri.sol\":2532:2559  kisiler[_kisiAddress].durum */\n      0x00\n      add\n      0x00\n      swap1\n      sload\n      swap1\n      0x0100\n      exp\n      swap1\n      div\n      0xff\n      and\n        /* \"contracts/CalismaBilgileri.sol\":2524:2581  require(kisiler[_kisiAddress].durum,\"Student not exists\") */\n      tag_141\n      jumpi\n      mload(0x40)\n      0x08c379a000000000000000000000000000000000000000000000000000000000\n      dup2\n      mstore\n      0x04\n      add\n      tag_142\n      swap1\n      tag_92\n      jump\t// in\n    tag_142:\n      mload(0x40)\n      dup1\n      swap2\n      sub\n      swap1\n      revert\n    tag_141:\n        /* \"contracts/CalismaBilgileri.sol\":2669:2677  pozisyon */\n      dup9\n        /* \"contracts/CalismaBilgileri.sol\":2612:2628  calismaBilgileri */\n      0x0d\n        /* \"contracts/CalismaBilgileri.sol\":2612:2642  calismaBilgileri[_kisiAddress] */\n      0x00\n        /* \"contracts/CalismaBilgileri.sol\":2629:2641  _kisiAddress */\n      dup14\n        /* \"contracts/CalismaBilgileri.sol\":2612:2642  calismaBilgileri[_kisiAddress] */\n      0xffffffffffffffffffffffffffffffffffffffff\n      and\n      0xffffffffffffffffffffffffffffffffffffffff\n      and\n      dup2\n      mstore\n      0x20\n      add\n      swap1\n      dup2\n      mstore\n      0x20\n      add\n      0x00\n      keccak256\n        /* \"contracts/CalismaBilgileri.sol\":2612:2659  calismaBilgileri[_kisiAddress][_calismaBilgiId] */\n      0x00\n        /* \"contracts/CalismaBilgileri.sol\":2643:2658  _calismaBilgiId */\n      dup13\n        /* \"contracts/CalismaBilgileri.sol\":2612:2659  calismaBilgileri[_kisiAddress][_calismaBilgiId] */\n      dup2\n      mstore\n      0x20\n      add\n      swap1\n      dup2\n      mstore\n      0x20\n      add\n      0x00\n      keccak256\n        /* \"contracts/CalismaBilgileri.sol\":2612:2668  calismaBilgileri[_kisiAddress][_calismaBilgiId].pozisyon */\n      0x01\n      add\n      0x14\n        /* \"contracts/CalismaBilgileri.sol\":2612:2677  calismaBilgileri[_kisiAddress][_calismaBilgiId].pozisyon=pozisyon */\n      0x0100\n      exp\n      dup2\n      sload\n      dup2\n      0xffffffff\n      mul\n      not\n      and\n      swap1\n      dup4\n      0xffffffff\n      and\n      mul\n      or\n      swap1\n      sstore\n      pop\n        /* \"contracts/CalismaBilgileri.sol\":2748:2754  sektor */\n      dup8\n        /* \"contracts/CalismaBilgileri.sol\":2693:2709  calismaBilgileri */\n      0x0d\n        /* \"contracts/CalismaBilgileri.sol\":2693:2723  calismaBilgileri[_kisiAddress] */\n      0x00\n        /* \"contracts/CalismaBilgileri.sol\":2710:2722  _kisiAddress */\n      dup14\n        /* \"contracts/CalismaBilgileri.sol\":2693:2723  calismaBilgileri[_kisiAddress] */\n      0xffffffffffffffffffffffffffffffffffffffff\n      and\n      0xffffffffffffffffffffffffffffffffffffffff\n      and\n      dup2\n      mstore\n      0x20\n      add\n      swap1\n      dup2\n      mstore\n      0x20\n      add\n      0x00\n      keccak256\n        /* \"contracts/CalismaBilgileri.sol\":2693:2740  calismaBilgileri[_kisiAddress][_calismaBilgiId] */\n      0x00\n        /* \"contracts/CalismaBilgileri.sol\":2724:2739  _calismaBilgiId */\n      dup13\n        /* \"contracts/CalismaBilgileri.sol\":2693:2740  calismaBilgileri[_kisiAddress][_calismaBilgiId] */\n      dup2\n      mstore\n      0x20\n      add\n      swap1\n      dup2\n      mstore\n      0x20\n      add\n      0x00\n      keccak256\n        /* \"contracts/CalismaBilgileri.sol\":2693:2747  calismaBilgileri[_kisiAddress][_calismaBilgiId].sektor */\n      0x01\n      add\n      0x18\n        /* \"contracts/CalismaBilgileri.sol\":2693:2754  calismaBilgileri[_kisiAddress][_calismaBilgiId].sektor=sektor */\n      0x0100\n      exp\n      dup2\n      sload\n      dup2\n      0xff\n      mul\n      not\n      and\n      swap1\n      dup4\n      0xff\n      and\n      mul\n      or\n      swap1\n      sstore\n      pop\n        /* \"contracts/CalismaBilgileri.sol\":2830:2841  calismaTipi */\n      dup7\n        /* \"contracts/CalismaBilgileri.sol\":2770:2786  calismaBilgileri */\n      0x0d\n        /* \"contracts/CalismaBilgileri.sol\":2770:2800  calismaBilgileri[_kisiAddress] */\n      0x00\n        /* \"contracts/CalismaBilgileri.sol\":2787:2799  _kisiAddress */\n      dup14\n        /* \"contracts/CalismaBilgileri.sol\":2770:2800  calismaBilgileri[_kisiAddress] */\n      0xffffffffffffffffffffffffffffffffffffffff\n      and\n      0xffffffffffffffffffffffffffffffffffffffff\n      and\n      dup2\n      mstore\n      0x20\n      add\n      swap1\n      dup2\n      mstore\n      0x20\n      add\n      0x00\n      keccak256\n        /* \"contracts/CalismaBilgileri.sol\":2770:2817  calismaBilgileri[_kisiAddress][_calismaBilgiId] */\n      0x00\n        /* \"contracts/CalismaBilgileri.sol\":2801:2816  _calismaBilgiId */\n      dup13\n        /* \"contracts/CalismaBilgileri.sol\":2770:2817  calismaBilgileri[_kisiAddress][_calismaBilgiId] */\n      dup2\n      mstore\n      0x20\n      add\n      swap1\n      dup2\n      mstore\n      0x20\n      add\n      0x00\n      keccak256\n        /* \"contracts/CalismaBilgileri.sol\":2770:2829  calismaBilgileri[_kisiAddress][_calismaBilgiId].calismaTipi */\n      0x01\n      add\n      0x19\n        /* \"contracts/CalismaBilgileri.sol\":2770:2841  calismaBilgileri[_kisiAddress][_calismaBilgiId].calismaTipi=calismaTipi */\n      0x0100\n      exp\n      dup2\n      sload\n      dup2\n      0xff\n      mul\n      not\n      and\n      swap1\n      dup4\n      0x02\n      dup2\n      gt\n      iszero\n      tag_143\n      jumpi\n      tag_144\n      tag_97\n      jump\t// in\n    tag_144:\n    tag_143:\n      mul\n      or\n      swap1\n      sstore\n      pop\n        /* \"contracts/CalismaBilgileri.sol\":2916:2926  isAciklama */\n      dup6\n        /* \"contracts/CalismaBilgileri.sol\":2857:2873  calismaBilgileri */\n      0x0d\n        /* \"contracts/CalismaBilgileri.sol\":2857:2887  calismaBilgileri[_kisiAddress] */\n      0x00\n        /* \"contracts/CalismaBilgileri.sol\":2874:2886  _kisiAddress */\n      dup14\n        /* \"contracts/CalismaBilgileri.sol\":2857:2887  calismaBilgileri[_kisiAddress] */\n      0xffffffffffffffffffffffffffffffffffffffff\n      and\n      0xffffffffffffffffffffffffffffffffffffffff\n      and\n      dup2\n      mstore\n      0x20\n      add\n      swap1\n      dup2\n      mstore\n      0x20\n      add\n      0x00\n      keccak256\n        /* \"contracts/CalismaBilgileri.sol\":2857:2904  calismaBilgileri[_kisiAddress][_calismaBilgiId] */\n      0x00\n        /* \"contracts/CalismaBilgileri.sol\":2888:2903  _calismaBilgiId */\n      dup13\n        /* \"contracts/CalismaBilgileri.sol\":2857:2904  calismaBilgileri[_kisiAddress][_calismaBilgiId] */\n      dup2\n      mstore\n      0x20\n      add\n      swap1\n      dup2\n      mstore\n      0x20\n      add\n      0x00\n      keccak256\n        /* \"contracts/CalismaBilgileri.sol\":2857:2915  calismaBilgileri[_kisiAddress][_calismaBilgiId].isAciklama */\n      0x02\n      add\n        /* \"contracts/CalismaBilgileri.sol\":2857:2926  calismaBilgileri[_kisiAddress][_calismaBilgiId].isAciklama=isAciklama */\n      swap1\n      dup1\n      mload\n      swap1\n      0x20\n      add\n      swap1\n      tag_145\n      swap3\n      swap2\n      swap1\n      tag_99\n      jump\t// in\n    tag_145:\n      pop\n        /* \"contracts/CalismaBilgileri.sol\":2999:3007  basTarih */\n      dup5\n        /* \"contracts/CalismaBilgileri.sol\":2942:2958  calismaBilgileri */\n      0x0d\n        /* \"contracts/CalismaBilgileri.sol\":2942:2972  calismaBilgileri[_kisiAddress] */\n      0x00\n        /* \"contracts/CalismaBilgileri.sol\":2959:2971  _kisiAddress */\n      dup14\n        /* \"contracts/CalismaBilgileri.sol\":2942:2972  calismaBilgileri[_kisiAddress] */\n      0xffffffffffffffffffffffffffffffffffffffff\n      and\n      0xffffffffffffffffffffffffffffffffffffffff\n      and\n      dup2\n      mstore\n      0x20\n      add\n      swap1\n      dup2\n      mstore\n      0x20\n      add\n      0x00\n      keccak256\n        /* \"contracts/CalismaBilgileri.sol\":2942:2989  calismaBilgileri[_kisiAddress][_calismaBilgiId] */\n      0x00\n        /* \"contracts/CalismaBilgileri.sol\":2973:2988  _calismaBilgiId */\n      dup13\n        /* \"contracts/CalismaBilgileri.sol\":2942:2989  calismaBilgileri[_kisiAddress][_calismaBilgiId] */\n      dup2\n      mstore\n      0x20\n      add\n      swap1\n      dup2\n      mstore\n      0x20\n      add\n      0x00\n      keccak256\n        /* \"contracts/CalismaBilgileri.sol\":2942:2998  calismaBilgileri[_kisiAddress][_calismaBilgiId].basTarih */\n      0x03\n      add\n        /* \"contracts/CalismaBilgileri.sol\":2942:3007  calismaBilgileri[_kisiAddress][_calismaBilgiId].basTarih=basTarih */\n      dup2\n      swap1\n      sstore\n      pop\n        /* \"contracts/CalismaBilgileri.sol\":3080:3088  bitTarih */\n      dup4\n        /* \"contracts/CalismaBilgileri.sol\":3023:3039  calismaBilgileri */\n      0x0d\n        /* \"contracts/CalismaBilgileri.sol\":3023:3053  calismaBilgileri[_kisiAddress] */\n      0x00\n        /* \"contracts/CalismaBilgileri.sol\":3040:3052  _kisiAddress */\n      dup14\n        /* \"contracts/CalismaBilgileri.sol\":3023:3053  calismaBilgileri[_kisiAddress] */\n      0xffffffffffffffffffffffffffffffffffffffff\n      and\n      0xffffffffffffffffffffffffffffffffffffffff\n      and\n      dup2\n      mstore\n      0x20\n      add\n      swap1\n      dup2\n      mstore\n      0x20\n      add\n      0x00\n      keccak256\n        /* \"contracts/CalismaBilgileri.sol\":3023:3070  calismaBilgileri[_kisiAddress][_calismaBilgiId] */\n      0x00\n        /* \"contracts/CalismaBilgileri.sol\":3054:3069  _calismaBilgiId */\n      dup13\n        /* \"contracts/CalismaBilgileri.sol\":3023:3070  calismaBilgileri[_kisiAddress][_calismaBilgiId] */\n      dup2\n      mstore\n      0x20\n      add\n      swap1\n      dup2\n      mstore\n      0x20\n      add\n      0x00\n      keccak256\n        /* \"contracts/CalismaBilgileri.sol\":3023:3079  calismaBilgileri[_kisiAddress][_calismaBilgiId].bitTarih */\n      0x04\n      add\n        /* \"contracts/CalismaBilgileri.sol\":3023:3088  calismaBilgileri[_kisiAddress][_calismaBilgiId].bitTarih=bitTarih */\n      dup2\n      swap1\n      sstore\n      pop\n        /* \"contracts/CalismaBilgileri.sol\":3157:3161  ulke */\n      dup3\n        /* \"contracts/CalismaBilgileri.sol\":3104:3120  calismaBilgileri */\n      0x0d\n        /* \"contracts/CalismaBilgileri.sol\":3104:3134  calismaBilgileri[_kisiAddress] */\n      0x00\n        /* \"contracts/CalismaBilgileri.sol\":3121:3133  _kisiAddress */\n      dup14\n        /* \"contracts/CalismaBilgileri.sol\":3104:3134  calismaBilgileri[_kisiAddress] */\n      0xffffffffffffffffffffffffffffffffffffffff\n      and\n      0xffffffffffffffffffffffffffffffffffffffff\n      and\n      dup2\n      mstore\n      0x20\n      add\n      swap1\n      dup2\n      mstore\n      0x20\n      add\n      0x00\n      keccak256\n        /* \"contracts/CalismaBilgileri.sol\":3104:3151  calismaBilgileri[_kisiAddress][_calismaBilgiId] */\n      0x00\n        /* \"contracts/CalismaBilgileri.sol\":3135:3150  _calismaBilgiId */\n      dup13\n        /* \"contracts/CalismaBilgileri.sol\":3104:3151  calismaBilgileri[_kisiAddress][_calismaBilgiId] */\n      dup2\n      mstore\n      0x20\n      add\n      swap1\n      dup2\n      mstore\n      0x20\n      add\n      0x00\n      keccak256\n        /* \"contracts/CalismaBilgileri.sol\":3104:3156  calismaBilgileri[_kisiAddress][_calismaBilgiId].ulke */\n      0x05\n      add\n      0x00\n        /* \"contracts/CalismaBilgileri.sol\":3104:3161  calismaBilgileri[_kisiAddress][_calismaBilgiId].ulke=ulke */\n      0x0100\n      exp\n      dup2\n      sload\n      dup2\n      0xff\n      mul\n      not\n      and\n      swap1\n      dup4\n      0xff\n      and\n      mul\n      or\n      swap1\n      sstore\n      pop\n        /* \"contracts/CalismaBilgileri.sol\":3231:3236  sehir */\n      dup2\n        /* \"contracts/CalismaBilgileri.sol\":3177:3193  calismaBilgileri */\n      0x0d\n        /* \"contracts/CalismaBilgileri.sol\":3177:3207  calismaBilgileri[_kisiAddress] */\n      0x00\n        /* \"contracts/CalismaBilgileri.sol\":3194:3206  _kisiAddress */\n      dup14\n        /* \"contracts/CalismaBilgileri.sol\":3177:3207  calismaBilgileri[_kisiAddress] */\n      0xffffffffffffffffffffffffffffffffffffffff\n      and\n      0xffffffffffffffffffffffffffffffffffffffff\n      and\n      dup2\n      mstore\n      0x20\n      add\n      swap1\n      dup2\n      mstore\n      0x20\n      add\n      0x00\n      keccak256\n        /* \"contracts/CalismaBilgileri.sol\":3177:3224  calismaBilgileri[_kisiAddress][_calismaBilgiId] */\n      0x00\n        /* \"contracts/CalismaBilgileri.sol\":3208:3223  _calismaBilgiId */\n      dup13\n        /* \"contracts/CalismaBilgileri.sol\":3177:3224  calismaBilgileri[_kisiAddress][_calismaBilgiId] */\n      dup2\n      mstore\n      0x20\n      add\n      swap1\n      dup2\n      mstore\n      0x20\n      add\n      0x00\n      keccak256\n        /* \"contracts/CalismaBilgileri.sol\":3177:3230  calismaBilgileri[_kisiAddress][_calismaBilgiId].sehir */\n      0x05\n      add\n      0x01\n        /* \"contracts/CalismaBilgileri.sol\":3177:3236  calismaBilgileri[_kisiAddress][_calismaBilgiId].sehir=sehir */\n      0x0100\n      exp\n      dup2\n      sload\n      dup2\n      0xffffffff\n      mul\n      not\n      and\n      swap1\n      dup4\n      0xffffffff\n      and\n      mul\n      or\n      swap1\n      sstore\n      pop\n        /* \"contracts/CalismaBilgileri.sol\":3316:3331  block.timestamp */\n      timestamp\n        /* \"contracts/CalismaBilgileri.sol\":3252:3268  calismaBilgileri */\n      0x0d\n        /* \"contracts/CalismaBilgileri.sol\":3252:3282  calismaBilgileri[_kisiAddress] */\n      0x00\n        /* \"contracts/CalismaBilgileri.sol\":3269:3281  _kisiAddress */\n      dup14\n        /* \"contracts/CalismaBilgileri.sol\":3252:3282  calismaBilgileri[_kisiAddress] */\n      0xffffffffffffffffffffffffffffffffffffffff\n      and\n      0xffffffffffffffffffffffffffffffffffffffff\n      and\n      dup2\n      mstore\n      0x20\n      add\n      swap1\n      dup2\n      mstore\n      0x20\n      add\n      0x00\n      keccak256\n        /* \"contracts/CalismaBilgileri.sol\":3252:3299  calismaBilgileri[_kisiAddress][_calismaBilgiId] */\n      0x00\n        /* \"contracts/CalismaBilgileri.sol\":3283:3298  _calismaBilgiId */\n      dup13\n        /* \"contracts/CalismaBilgileri.sol\":3252:3299  calismaBilgileri[_kisiAddress][_calismaBilgiId] */\n      dup2\n      mstore\n      0x20\n      add\n      swap1\n      dup2\n      mstore\n      0x20\n      add\n      0x00\n      keccak256\n        /* \"contracts/CalismaBilgileri.sol\":3252:3309  calismaBilgileri[_kisiAddress][_calismaBilgiId].onayBilgi */\n      0x06\n      add\n        /* \"contracts/CalismaBilgileri.sol\":3252:3315  calismaBilgileri[_kisiAddress][_calismaBilgiId].onayBilgi.zaman */\n      0x00\n      add\n        /* \"contracts/CalismaBilgileri.sol\":3252:3331  calismaBilgileri[_kisiAddress][_calismaBilgiId].onayBilgi.zaman=block.timestamp */\n      dup2\n      swap1\n      sstore\n      pop\n        /* \"contracts/CalismaBilgileri.sol\":3411:3430  OnayDurum.Onaylandi */\n      0x01\n        /* \"contracts/CalismaBilgileri.sol\":3347:3363  calismaBilgileri */\n      0x0d\n        /* \"contracts/CalismaBilgileri.sol\":3347:3377  calismaBilgileri[_kisiAddress] */\n      0x00\n        /* \"contracts/CalismaBilgileri.sol\":3364:3376  _kisiAddress */\n      dup14\n        /* \"contracts/CalismaBilgileri.sol\":3347:3377  calismaBilgileri[_kisiAddress] */\n      0xffffffffffffffffffffffffffffffffffffffff\n      and\n      0xffffffffffffffffffffffffffffffffffffffff\n      and\n      dup2\n      mstore\n      0x20\n      add\n      swap1\n      dup2\n      mstore\n      0x20\n      add\n      0x00\n      keccak256\n        /* \"contracts/CalismaBilgileri.sol\":3347:3394  calismaBilgileri[_kisiAddress][_calismaBilgiId] */\n      0x00\n        /* \"contracts/CalismaBilgileri.sol\":3378:3393  _calismaBilgiId */\n      dup13\n        /* \"contracts/CalismaBilgileri.sol\":3347:3394  calismaBilgileri[_kisiAddress][_calismaBilgiId] */\n      dup2\n      mstore\n      0x20\n      add\n      swap1\n      dup2\n      mstore\n      0x20\n      add\n      0x00\n      keccak256\n        /* \"contracts/CalismaBilgileri.sol\":3347:3404  calismaBilgileri[_kisiAddress][_calismaBilgiId].onayBilgi */\n      0x06\n      add\n        /* \"contracts/CalismaBilgileri.sol\":3347:3410  calismaBilgileri[_kisiAddress][_calismaBilgiId].onayBilgi.durum */\n      0x01\n      add\n      0x14\n        /* \"contracts/CalismaBilgileri.sol\":3347:3430  calismaBilgileri[_kisiAddress][_calismaBilgiId].onayBilgi.durum=OnayDurum.Onaylandi */\n      0x0100\n      exp\n      dup2\n      sload\n      dup2\n      0xff\n      mul\n      not\n      and\n      swap1\n      dup4\n      0x02\n      dup2\n      gt\n      iszero\n      tag_146\n      jumpi\n      tag_147\n      tag_97\n      jump\t// in\n    tag_147:\n    tag_146:\n      mul\n      or\n      swap1\n      sstore\n      pop\n        /* \"contracts/CalismaBilgileri.sol\":3510:3520  msg.sender */\n      caller\n        /* \"contracts/CalismaBilgileri.sol\":3446:3462  calismaBilgileri */\n      0x0d\n        /* \"contracts/CalismaBilgileri.sol\":3446:3476  calismaBilgileri[_kisiAddress] */\n      0x00\n        /* \"contracts/CalismaBilgileri.sol\":3463:3475  _kisiAddress */\n      dup14\n        /* \"contracts/CalismaBilgileri.sol\":3446:3476  calismaBilgileri[_kisiAddress] */\n      0xffffffffffffffffffffffffffffffffffffffff\n      and\n      0xffffffffffffffffffffffffffffffffffffffff\n      and\n      dup2\n      mstore\n      0x20\n      add\n      swap1\n      dup2\n      mstore\n      0x20\n      add\n      0x00\n      keccak256\n        /* \"contracts/CalismaBilgileri.sol\":3446:3493  calismaBilgileri[_kisiAddress][_calismaBilgiId] */\n      0x00\n        /* \"contracts/CalismaBilgileri.sol\":3477:3492  _calismaBilgiId */\n      dup13\n        /* \"contracts/CalismaBilgileri.sol\":3446:3493  calismaBilgileri[_kisiAddress][_calismaBilgiId] */\n      dup2\n      mstore\n      0x20\n      add\n      swap1\n      dup2\n      mstore\n      0x20\n      add\n      0x00\n      keccak256\n        /* \"contracts/CalismaBilgileri.sol\":3446:3503  calismaBilgileri[_kisiAddress][_calismaBilgiId].onayBilgi */\n      0x06\n      add\n        /* \"contracts/CalismaBilgileri.sol\":3446:3509  calismaBilgileri[_kisiAddress][_calismaBilgiId].onayBilgi.adres */\n      0x01\n      add\n      0x00\n        /* \"contracts/CalismaBilgileri.sol\":3446:3520  calismaBilgileri[_kisiAddress][_calismaBilgiId].onayBilgi.adres=msg.sender */\n      0x0100\n      exp\n      dup2\n      sload\n      dup2\n      0xffffffffffffffffffffffffffffffffffffffff\n      mul\n      not\n      and\n      swap1\n      dup4\n      0xffffffffffffffffffffffffffffffffffffffff\n      and\n      mul\n      or\n      swap1\n      sstore\n      pop\n        /* \"contracts/CalismaBilgileri.sol\":3554:3619  CalismaBilgiGuncellendiLog( _kisiAddress, ulke, pozisyon, sektor) */\n      0x0d2d369c2a311bbedf49b15d0d8d116c0a1aaf3adf72494f1ebb4275c54cad73\n        /* \"contracts/CalismaBilgileri.sol\":3582:3594  _kisiAddress */\n      dup12\n        /* \"contracts/CalismaBilgileri.sol\":3596:3600  ulke */\n      dup5\n        /* \"contracts/CalismaBilgileri.sol\":3602:3610  pozisyon */\n      dup12\n        /* \"contracts/CalismaBilgileri.sol\":3612:3618  sektor */\n      dup12\n        /* \"contracts/CalismaBilgileri.sol\":3554:3619  CalismaBilgiGuncellendiLog( _kisiAddress, ulke, pozisyon, sektor) */\n      mload(0x40)\n      tag_148\n      swap5\n      swap4\n      swap3\n      swap2\n      swap1\n      tag_103\n      jump\t// in\n    tag_148:\n      mload(0x40)\n      dup1\n      swap2\n      sub\n      swap1\n      log1\n        /* \"contracts/CalismaBilgileri.sol\":3642:3657  _calismaBilgiId */\n      dup10\n        /* \"contracts/CalismaBilgileri.sol\":3635:3657  return _calismaBilgiId */\n      swap1\n      pop\n        /* \"contracts/CalismaBilgileri.sol\":2253:3667  function guncelleCalismaBilgi(address _kisiAddress, uint _calismaBilgiId, uint32 pozisyon, uint8 sektor, CalismaTipi calismaTipi, string memory isAciklama, uint basTarih, uint bitTarih, uint8 ulke, uint32 sehir)  public sadece_Uni_Firma_Kamu returns(uint){\r... */\n      swap11\n      swap10\n      pop\n      pop\n      pop\n      pop\n      pop\n      pop\n      pop\n      pop\n      pop\n      pop\n      jump\t// out\n        /* \"contracts/BaseContract.sol\":3757:3806  mapping(address=>KamuKurumu) public kamuKurumlari */\n    tag_57:\n      mstore(0x20, 0x08)\n      dup1\n      0x00\n      mstore\n      keccak256(0x00, 0x40)\n      0x00\n      swap2\n      pop\n      swap1\n      pop\n      dup1\n      0x00\n      add\n      0x00\n      swap1\n      sload\n      swap1\n      0x0100\n      exp\n      swap1\n      div\n      0xff\n      and\n      swap1\n      dup1\n      0x01\n      add\n      dup1\n      sload\n      tag_149\n      swap1\n      tag_105\n      jump\t// in\n    tag_149:\n      dup1\n      0x1f\n      add\n      0x20\n      dup1\n      swap2\n      div\n      mul\n      0x20\n      add\n      mload(0x40)\n      swap1\n      dup2\n      add\n      0x40\n      mstore\n      dup1\n      swap3\n      swap2\n      swap1\n      dup2\n      dup2\n      mstore\n      0x20\n      add\n      dup3\n      dup1\n      sload\n      tag_150\n      swap1\n      tag_105\n      jump\t// in\n    tag_150:\n      dup1\n      iszero\n      tag_151\n      jumpi\n      dup1\n      0x1f\n      lt\n      tag_152\n      jumpi\n      0x0100\n      dup1\n      dup4\n      sload\n      div\n      mul\n      dup4\n      mstore\n      swap2\n      0x20\n      add\n      swap2\n      jump(tag_151)\n    tag_152:\n      dup3\n      add\n      swap2\n      swap1\n      0x00\n      mstore\n      keccak256(0x00, 0x20)\n      swap1\n    tag_153:\n      dup2\n      sload\n      dup2\n      mstore\n      swap1\n      0x01\n      add\n      swap1\n      0x20\n      add\n      dup1\n      dup4\n      gt\n      tag_153\n      jumpi\n      dup3\n      swap1\n      sub\n      0x1f\n      and\n      dup3\n      add\n      swap2\n    tag_151:\n      pop\n      pop\n      pop\n      pop\n      pop\n      swap1\n      dup1\n      0x02\n      add\n      0x00\n      swap1\n      sload\n      swap1\n      0x0100\n      exp\n      swap1\n      div\n      0xff\n      and\n      swap1\n      pop\n      dup4\n      jump\t// out\n        /* \"contracts/BaseContract.sol\":3813:3848  mapping(address=>STK) public stklar */\n    tag_61:\n      mstore(0x20, 0x09)\n      dup1\n      0x00\n      mstore\n      keccak256(0x00, 0x40)\n      0x00\n      swap2\n      pop\n      swap1\n      pop\n      dup1\n      0x00\n      add\n      0x00\n      swap1\n      sload\n      swap1\n      0x0100\n      exp\n      swap1\n      div\n      0xff\n      and\n      swap1\n      dup1\n      0x01\n      add\n      dup1\n      sload\n      tag_154\n      swap1\n      tag_105\n      jump\t// in\n    tag_154:\n      dup1\n      0x1f\n      add\n      0x20\n      dup1\n      swap2\n      div\n      mul\n      0x20\n      add\n      mload(0x40)\n      swap1\n      dup2\n      add\n      0x40\n      mstore\n      dup1\n      swap3\n      swap2\n      swap1\n      dup2\n      dup2\n      mstore\n      0x20\n      add\n      dup3\n      dup1\n      sload\n      tag_155\n      swap1\n      tag_105\n      jump\t// in\n    tag_155:\n      dup1\n      iszero\n      tag_156\n      jumpi\n      dup1\n      0x1f\n      lt\n      tag_157\n      jumpi\n      0x0100\n      dup1\n      dup4\n      sload\n      div\n      mul\n      dup4\n      mstore\n      swap2\n      0x20\n      add\n      swap2\n      jump(tag_156)\n    tag_157:\n      dup3\n      add\n      swap2\n      swap1\n      0x00\n      mstore\n      keccak256(0x00, 0x20)\n      swap1\n    tag_158:\n      dup2\n      sload\n      dup2\n      mstore\n      swap1\n      0x01\n      add\n      swap1\n      0x20\n      add\n      dup1\n      dup4\n      gt\n      tag_158\n      jumpi\n      dup3\n      swap1\n      sub\n      0x1f\n      and\n      dup3\n      add\n      swap2\n    tag_156:\n      pop\n      pop\n      pop\n      pop\n      pop\n      swap1\n      dup1\n      0x02\n      add\n      0x00\n      swap1\n      sload\n      swap1\n      0x0100\n      exp\n      swap1\n      div\n      0xff\n      and\n      swap1\n      pop\n      dup4\n      jump\t// out\n        /* \"contracts/BaseContract.sol\":3924:3965  mapping(uint32=>YabanciDil) public diller */\n    tag_66:\n      mstore(0x20, 0x0b)\n      dup1\n      0x00\n      mstore\n      keccak256(0x00, 0x40)\n      0x00\n      swap2\n      pop\n      swap1\n      pop\n      dup1\n      0x00\n      add\n      0x00\n      swap1\n      sload\n      swap1\n      0x0100\n      exp\n      swap1\n      div\n      0xffffffff\n      and\n      swap1\n      dup1\n      0x01\n      add\n      dup1\n      sload\n      tag_159\n      swap1\n      tag_105\n      jump\t// in\n    tag_159:\n      dup1\n      0x1f\n      add\n      0x20\n      dup1\n      swap2\n      div\n      mul\n      0x20\n      add\n      mload(0x40)\n      swap1\n      dup2\n      add\n      0x40\n      mstore\n      dup1\n      swap3\n      swap2\n      swap1\n      dup2\n      dup2\n      mstore\n      0x20\n      add\n      dup3\n      dup1\n      sload\n      tag_160\n      swap1\n      tag_105\n      jump\t// in\n    tag_160:\n      dup1\n      iszero\n      tag_161\n      jumpi\n      dup1\n      0x1f\n      lt\n      tag_162\n      jumpi\n      0x0100\n      dup1\n      dup4\n      sload\n      div\n      mul\n      dup4\n      mstore\n      swap2\n      0x20\n      add\n      swap2\n      jump(tag_161)\n    tag_162:\n      dup3\n      add\n      swap2\n      swap1\n      0x00\n      mstore\n      keccak256(0x00, 0x20)\n      swap1\n    tag_163:\n      dup2\n      sload\n      dup2\n      mstore\n      swap1\n      0x01\n      add\n      swap1\n      0x20\n      add\n      dup1\n      dup4\n      gt\n      tag_163\n      jumpi\n      dup3\n      swap1\n      sub\n      0x1f\n      and\n      dup3\n      add\n      swap2\n    tag_161:\n      pop\n      pop\n      pop\n      pop\n      pop\n      swap1\n      pop\n      dup3\n      jump\t// out\n        /* \"contracts/CalismaBilgileri.sol\":983:2244  function ekleCalismaBilgi(address _kisiAddress, uint32 pozisyon, uint8 sektor, CalismaTipi calismaTipi, string memory isAciklama, uint basTarih, uint bitTarih, uint8 ulke, uint32 sehir)  public sadece_Uni_Firma_Kamu{\r... */\n    tag_71:\n        /* \"contracts/BaseContract.sol\":3178:3191  universiteler */\n      0x04\n        /* \"contracts/BaseContract.sol\":3178:3203  universiteler[msg.sender] */\n      0x00\n        /* \"contracts/BaseContract.sol\":3192:3202  msg.sender */\n      caller\n        /* \"contracts/BaseContract.sol\":3178:3203  universiteler[msg.sender] */\n      0xffffffffffffffffffffffffffffffffffffffff\n      and\n      0xffffffffffffffffffffffffffffffffffffffff\n      and\n      dup2\n      mstore\n      0x20\n      add\n      swap1\n      dup2\n      mstore\n      0x20\n      add\n      0x00\n      keccak256\n        /* \"contracts/BaseContract.sol\":3178:3209  universiteler[msg.sender].durum */\n      0x00\n      add\n      0x00\n      swap1\n      sload\n      swap1\n      0x0100\n      exp\n      swap1\n      div\n      0xff\n      and\n        /* \"contracts/BaseContract.sol\":3178:3237  universiteler[msg.sender].durum||firmalar[msg.sender].durum */\n      dup1\n      tag_165\n      jumpi\n      pop\n        /* \"contracts/BaseContract.sol\":3211:3219  firmalar */\n      0x06\n        /* \"contracts/BaseContract.sol\":3211:3231  firmalar[msg.sender] */\n      0x00\n        /* \"contracts/BaseContract.sol\":3220:3230  msg.sender */\n      caller\n        /* \"contracts/BaseContract.sol\":3211:3231  firmalar[msg.sender] */\n      0xffffffffffffffffffffffffffffffffffffffff\n      and\n      0xffffffffffffffffffffffffffffffffffffffff\n      and\n      dup2\n      mstore\n      0x20\n      add\n      swap1\n      dup2\n      mstore\n      0x20\n      add\n      0x00\n      keccak256\n        /* \"contracts/BaseContract.sol\":3211:3237  firmalar[msg.sender].durum */\n      0x00\n      add\n      0x00\n      swap1\n      sload\n      swap1\n      0x0100\n      exp\n      swap1\n      div\n      0xff\n      and\n        /* \"contracts/BaseContract.sol\":3178:3237  universiteler[msg.sender].durum||firmalar[msg.sender].durum */\n    tag_165:\n        /* \"contracts/BaseContract.sol\":3178:3270  universiteler[msg.sender].durum||firmalar[msg.sender].durum||kamuKurumlari[msg.sender].durum */\n      dup1\n      tag_166\n      jumpi\n      pop\n        /* \"contracts/BaseContract.sol\":3239:3252  kamuKurumlari */\n      0x08\n        /* \"contracts/BaseContract.sol\":3239:3264  kamuKurumlari[msg.sender] */\n      0x00\n        /* \"contracts/BaseContract.sol\":3253:3263  msg.sender */\n      caller\n        /* \"contracts/BaseContract.sol\":3239:3264  kamuKurumlari[msg.sender] */\n      0xffffffffffffffffffffffffffffffffffffffff\n      and\n      0xffffffffffffffffffffffffffffffffffffffff\n      and\n      dup2\n      mstore\n      0x20\n      add\n      swap1\n      dup2\n      mstore\n      0x20\n      add\n      0x00\n      keccak256\n        /* \"contracts/BaseContract.sol\":3239:3270  kamuKurumlari[msg.sender].durum */\n      0x00\n      add\n      0x00\n      swap1\n      sload\n      swap1\n      0x0100\n      exp\n      swap1\n      div\n      0xff\n      and\n        /* \"contracts/BaseContract.sol\":3178:3270  universiteler[msg.sender].durum||firmalar[msg.sender].durum||kamuKurumlari[msg.sender].durum */\n    tag_166:\n        /* \"contracts/BaseContract.sol\":3170:3322  require(universiteler[msg.sender].durum||firmalar[msg.sender].durum||kamuKurumlari[msg.sender].durum,\r... */\n      tag_167\n      jumpi\n      mload(0x40)\n      0x08c379a000000000000000000000000000000000000000000000000000000000\n      dup2\n      mstore\n      0x04\n      add\n      tag_168\n      swap1\n      tag_139\n      jump\t// in\n    tag_168:\n      mload(0x40)\n      dup1\n      swap2\n      sub\n      swap1\n      revert\n    tag_167:\n        /* \"contracts/CalismaBilgileri.sol\":1222:1229  kisiler */\n      0x03\n        /* \"contracts/CalismaBilgileri.sol\":1222:1243  kisiler[_kisiAddress] */\n      0x00\n        /* \"contracts/CalismaBilgileri.sol\":1230:1242  _kisiAddress */\n      dup11\n        /* \"contracts/CalismaBilgileri.sol\":1222:1243  kisiler[_kisiAddress] */\n      0xffffffffffffffffffffffffffffffffffffffff\n      and\n      0xffffffffffffffffffffffffffffffffffffffff\n      and\n      dup2\n      mstore\n      0x20\n      add\n      swap1\n      dup2\n      mstore\n      0x20\n      add\n      0x00\n      keccak256\n        /* \"contracts/CalismaBilgileri.sol\":1222:1249  kisiler[_kisiAddress].durum */\n      0x00\n      add\n      0x00\n      swap1\n      sload\n      swap1\n      0x0100\n      exp\n      swap1\n      div\n      0xff\n      and\n        /* \"contracts/CalismaBilgileri.sol\":1214:1271  require(kisiler[_kisiAddress].durum,\"Student not exists\") */\n      tag_170\n      jumpi\n      mload(0x40)\n      0x08c379a000000000000000000000000000000000000000000000000000000000\n      dup2\n      mstore\n      0x04\n      add\n      tag_171\n      swap1\n      tag_92\n      jump\t// in\n    tag_171:\n      mload(0x40)\n      dup1\n      swap2\n      sub\n      swap1\n      revert\n    tag_170:\n        /* \"contracts/CalismaBilgileri.sol\":1287:1298  uint yeniId */\n      0x00\n        /* \"contracts/CalismaBilgileri.sol\":1299:1301  id */\n      0x0c\n      0x00\n        /* \"contracts/CalismaBilgileri.sol\":1299:1303  id++ */\n      dup2\n      sload\n      dup1\n      swap3\n      swap2\n      swap1\n      tag_172\n      swap1\n      tag_94\n      jump\t// in\n    tag_172:\n      swap2\n      swap1\n      pop\n      sstore\n        /* \"contracts/CalismaBilgileri.sol\":1287:1303  uint yeniId=id++ */\n      swap1\n      pop\n        /* \"contracts/CalismaBilgileri.sol\":1381:1389  pozisyon */\n      dup9\n        /* \"contracts/CalismaBilgileri.sol\":1333:1349  calismaBilgileri */\n      0x0d\n        /* \"contracts/CalismaBilgileri.sol\":1333:1363  calismaBilgileri[_kisiAddress] */\n      0x00\n        /* \"contracts/CalismaBilgileri.sol\":1350:1362  _kisiAddress */\n      dup13\n        /* \"contracts/CalismaBilgileri.sol\":1333:1363  calismaBilgileri[_kisiAddress] */\n      0xffffffffffffffffffffffffffffffffffffffff\n      and\n      0xffffffffffffffffffffffffffffffffffffffff\n      and\n      dup2\n      mstore\n      0x20\n      add\n      swap1\n      dup2\n      mstore\n      0x20\n      add\n      0x00\n      keccak256\n        /* \"contracts/CalismaBilgileri.sol\":1333:1371  calismaBilgileri[_kisiAddress][yeniId] */\n      0x00\n        /* \"contracts/CalismaBilgileri.sol\":1364:1370  yeniId */\n      dup4\n        /* \"contracts/CalismaBilgileri.sol\":1333:1371  calismaBilgileri[_kisiAddress][yeniId] */\n      dup2\n      mstore\n      0x20\n      add\n      swap1\n      dup2\n      mstore\n      0x20\n      add\n      0x00\n      keccak256\n        /* \"contracts/CalismaBilgileri.sol\":1333:1380  calismaBilgileri[_kisiAddress][yeniId].pozisyon */\n      0x01\n      add\n      0x14\n        /* \"contracts/CalismaBilgileri.sol\":1333:1389  calismaBilgileri[_kisiAddress][yeniId].pozisyon=pozisyon */\n      0x0100\n      exp\n      dup2\n      sload\n      dup2\n      0xffffffff\n      mul\n      not\n      and\n      swap1\n      dup4\n      0xffffffff\n      and\n      mul\n      or\n      swap1\n      sstore\n      pop\n        /* \"contracts/CalismaBilgileri.sol\":1451:1457  sektor */\n      dup8\n        /* \"contracts/CalismaBilgileri.sol\":1405:1421  calismaBilgileri */\n      0x0d\n        /* \"contracts/CalismaBilgileri.sol\":1405:1435  calismaBilgileri[_kisiAddress] */\n      0x00\n        /* \"contracts/CalismaBilgileri.sol\":1422:1434  _kisiAddress */\n      dup13\n        /* \"contracts/CalismaBilgileri.sol\":1405:1435  calismaBilgileri[_kisiAddress] */\n      0xffffffffffffffffffffffffffffffffffffffff\n      and\n      0xffffffffffffffffffffffffffffffffffffffff\n      and\n      dup2\n      mstore\n      0x20\n      add\n      swap1\n      dup2\n      mstore\n      0x20\n      add\n      0x00\n      keccak256\n        /* \"contracts/CalismaBilgileri.sol\":1405:1443  calismaBilgileri[_kisiAddress][yeniId] */\n      0x00\n        /* \"contracts/CalismaBilgileri.sol\":1436:1442  yeniId */\n      dup4\n        /* \"contracts/CalismaBilgileri.sol\":1405:1443  calismaBilgileri[_kisiAddress][yeniId] */\n      dup2\n      mstore\n      0x20\n      add\n      swap1\n      dup2\n      mstore\n      0x20\n      add\n      0x00\n      keccak256\n        /* \"contracts/CalismaBilgileri.sol\":1405:1450  calismaBilgileri[_kisiAddress][yeniId].sektor */\n      0x01\n      add\n      0x18\n        /* \"contracts/CalismaBilgileri.sol\":1405:1457  calismaBilgileri[_kisiAddress][yeniId].sektor=sektor */\n      0x0100\n      exp\n      dup2\n      sload\n      dup2\n      0xff\n      mul\n      not\n      and\n      swap1\n      dup4\n      0xff\n      and\n      mul\n      or\n      swap1\n      sstore\n      pop\n        /* \"contracts/CalismaBilgileri.sol\":1524:1535  calismaTipi */\n      dup7\n        /* \"contracts/CalismaBilgileri.sol\":1473:1489  calismaBilgileri */\n      0x0d\n        /* \"contracts/CalismaBilgileri.sol\":1473:1503  calismaBilgileri[_kisiAddress] */\n      0x00\n        /* \"contracts/CalismaBilgileri.sol\":1490:1502  _kisiAddress */\n      dup13\n        /* \"contracts/CalismaBilgileri.sol\":1473:1503  calismaBilgileri[_kisiAddress] */\n      0xffffffffffffffffffffffffffffffffffffffff\n      and\n      0xffffffffffffffffffffffffffffffffffffffff\n      and\n      dup2\n      mstore\n      0x20\n      add\n      swap1\n      dup2\n      mstore\n      0x20\n      add\n      0x00\n      keccak256\n        /* \"contracts/CalismaBilgileri.sol\":1473:1511  calismaBilgileri[_kisiAddress][yeniId] */\n      0x00\n        /* \"contracts/CalismaBilgileri.sol\":1504:1510  yeniId */\n      dup4\n        /* \"contracts/CalismaBilgileri.sol\":1473:1511  calismaBilgileri[_kisiAddress][yeniId] */\n      dup2\n      mstore\n      0x20\n      add\n      swap1\n      dup2\n      mstore\n      0x20\n      add\n      0x00\n      keccak256\n        /* \"contracts/CalismaBilgileri.sol\":1473:1523  calismaBilgileri[_kisiAddress][yeniId].calismaTipi */\n      0x01\n      add\n      0x19\n        /* \"contracts/CalismaBilgileri.sol\":1473:1535  calismaBilgileri[_kisiAddress][yeniId].calismaTipi=calismaTipi */\n      0x0100\n      exp\n      dup2\n      sload\n      dup2\n      0xff\n      mul\n      not\n      and\n      swap1\n      dup4\n      0x02\n      dup2\n      gt\n      iszero\n      tag_173\n      jumpi\n      tag_174\n      tag_97\n      jump\t// in\n    tag_174:\n    tag_173:\n      mul\n      or\n      swap1\n      sstore\n      pop\n        /* \"contracts/CalismaBilgileri.sol\":1601:1611  isAciklama */\n      dup6\n        /* \"contracts/CalismaBilgileri.sol\":1551:1567  calismaBilgileri */\n      0x0d\n        /* \"contracts/CalismaBilgileri.sol\":1551:1581  calismaBilgileri[_kisiAddress] */\n      0x00\n        /* \"contracts/CalismaBilgileri.sol\":1568:1580  _kisiAddress */\n      dup13\n        /* \"contracts/CalismaBilgileri.sol\":1551:1581  calismaBilgileri[_kisiAddress] */\n      0xffffffffffffffffffffffffffffffffffffffff\n      and\n      0xffffffffffffffffffffffffffffffffffffffff\n      and\n      dup2\n      mstore\n      0x20\n      add\n      swap1\n      dup2\n      mstore\n      0x20\n      add\n      0x00\n      keccak256\n        /* \"contracts/CalismaBilgileri.sol\":1551:1589  calismaBilgileri[_kisiAddress][yeniId] */\n      0x00\n        /* \"contracts/CalismaBilgileri.sol\":1582:1588  yeniId */\n      dup4\n        /* \"contracts/CalismaBilgileri.sol\":1551:1589  calismaBilgileri[_kisiAddress][yeniId] */\n      dup2\n      mstore\n      0x20\n      add\n      swap1\n      dup2\n      mstore\n      0x20\n      add\n      0x00\n      keccak256\n        /* \"contracts/CalismaBilgileri.sol\":1551:1600  calismaBilgileri[_kisiAddress][yeniId].isAciklama */\n      0x02\n      add\n        /* \"contracts/CalismaBilgileri.sol\":1551:1611  calismaBilgileri[_kisiAddress][yeniId].isAciklama=isAciklama */\n      swap1\n      dup1\n      mload\n      swap1\n      0x20\n      add\n      swap1\n      tag_175\n      swap3\n      swap2\n      swap1\n      tag_99\n      jump\t// in\n    tag_175:\n      pop\n        /* \"contracts/CalismaBilgileri.sol\":1675:1683  basTarih */\n      dup5\n        /* \"contracts/CalismaBilgileri.sol\":1627:1643  calismaBilgileri */\n      0x0d\n        /* \"contracts/CalismaBilgileri.sol\":1627:1657  calismaBilgileri[_kisiAddress] */\n      0x00\n        /* \"contracts/CalismaBilgileri.sol\":1644:1656  _kisiAddress */\n      dup13\n        /* \"contracts/CalismaBilgileri.sol\":1627:1657  calismaBilgileri[_kisiAddress] */\n      0xffffffffffffffffffffffffffffffffffffffff\n      and\n      0xffffffffffffffffffffffffffffffffffffffff\n      and\n      dup2\n      mstore\n      0x20\n      add\n      swap1\n      dup2\n      mstore\n      0x20\n      add\n      0x00\n      keccak256\n        /* \"contracts/CalismaBilgileri.sol\":1627:1665  calismaBilgileri[_kisiAddress][yeniId] */\n      0x00\n        /* \"contracts/CalismaBilgileri.sol\":1658:1664  yeniId */\n      dup4\n        /* \"contracts/CalismaBilgileri.sol\":1627:1665  calismaBilgileri[_kisiAddress][yeniId] */\n      dup2\n      mstore\n      0x20\n      add\n      swap1\n      dup2\n      mstore\n      0x20\n      add\n      0x00\n      keccak256\n        /* \"contracts/CalismaBilgileri.sol\":1627:1674  calismaBilgileri[_kisiAddress][yeniId].basTarih */\n      0x03\n      add\n        /* \"contracts/CalismaBilgileri.sol\":1627:1683  calismaBilgileri[_kisiAddress][yeniId].basTarih=basTarih */\n      dup2\n      swap1\n      sstore\n      pop\n        /* \"contracts/CalismaBilgileri.sol\":1747:1755  bitTarih */\n      dup4\n        /* \"contracts/CalismaBilgileri.sol\":1699:1715  calismaBilgileri */\n      0x0d\n        /* \"contracts/CalismaBilgileri.sol\":1699:1729  calismaBilgileri[_kisiAddress] */\n      0x00\n        /* \"contracts/CalismaBilgileri.sol\":1716:1728  _kisiAddress */\n      dup13\n        /* \"contracts/CalismaBilgileri.sol\":1699:1729  calismaBilgileri[_kisiAddress] */\n      0xffffffffffffffffffffffffffffffffffffffff\n      and\n      0xffffffffffffffffffffffffffffffffffffffff\n      and\n      dup2\n      mstore\n      0x20\n      add\n      swap1\n      dup2\n      mstore\n      0x20\n      add\n      0x00\n      keccak256\n        /* \"contracts/CalismaBilgileri.sol\":1699:1737  calismaBilgileri[_kisiAddress][yeniId] */\n      0x00\n        /* \"contracts/CalismaBilgileri.sol\":1730:1736  yeniId */\n      dup4\n        /* \"contracts/CalismaBilgileri.sol\":1699:1737  calismaBilgileri[_kisiAddress][yeniId] */\n      dup2\n      mstore\n      0x20\n      add\n      swap1\n      dup2\n      mstore\n      0x20\n      add\n      0x00\n      keccak256\n        /* \"contracts/CalismaBilgileri.sol\":1699:1746  calismaBilgileri[_kisiAddress][yeniId].bitTarih */\n      0x04\n      add\n        /* \"contracts/CalismaBilgileri.sol\":1699:1755  calismaBilgileri[_kisiAddress][yeniId].bitTarih=bitTarih */\n      dup2\n      swap1\n      sstore\n      pop\n        /* \"contracts/CalismaBilgileri.sol\":1815:1819  ulke */\n      dup3\n        /* \"contracts/CalismaBilgileri.sol\":1771:1787  calismaBilgileri */\n      0x0d\n        /* \"contracts/CalismaBilgileri.sol\":1771:1801  calismaBilgileri[_kisiAddress] */\n      0x00\n        /* \"contracts/CalismaBilgileri.sol\":1788:1800  _kisiAddress */\n      dup13\n        /* \"contracts/CalismaBilgileri.sol\":1771:1801  calismaBilgileri[_kisiAddress] */\n      0xffffffffffffffffffffffffffffffffffffffff\n      and\n      0xffffffffffffffffffffffffffffffffffffffff\n      and\n      dup2\n      mstore\n      0x20\n      add\n      swap1\n      dup2\n      mstore\n      0x20\n      add\n      0x00\n      keccak256\n        /* \"contracts/CalismaBilgileri.sol\":1771:1809  calismaBilgileri[_kisiAddress][yeniId] */\n      0x00\n        /* \"contracts/CalismaBilgileri.sol\":1802:1808  yeniId */\n      dup4\n        /* \"contracts/CalismaBilgileri.sol\":1771:1809  calismaBilgileri[_kisiAddress][yeniId] */\n      dup2\n      mstore\n      0x20\n      add\n      swap1\n      dup2\n      mstore\n      0x20\n      add\n      0x00\n      keccak256\n        /* \"contracts/CalismaBilgileri.sol\":1771:1814  calismaBilgileri[_kisiAddress][yeniId].ulke */\n      0x05\n      add\n      0x00\n        /* \"contracts/CalismaBilgileri.sol\":1771:1819  calismaBilgileri[_kisiAddress][yeniId].ulke=ulke */\n      0x0100\n      exp\n      dup2\n      sload\n      dup2\n      0xff\n      mul\n      not\n      and\n      swap1\n      dup4\n      0xff\n      and\n      mul\n      or\n      swap1\n      sstore\n      pop\n        /* \"contracts/CalismaBilgileri.sol\":1880:1885  sehir */\n      dup2\n        /* \"contracts/CalismaBilgileri.sol\":1835:1851  calismaBilgileri */\n      0x0d\n        /* \"contracts/CalismaBilgileri.sol\":1835:1865  calismaBilgileri[_kisiAddress] */\n      0x00\n        /* \"contracts/CalismaBilgileri.sol\":1852:1864  _kisiAddress */\n      dup13\n        /* \"contracts/CalismaBilgileri.sol\":1835:1865  calismaBilgileri[_kisiAddress] */\n      0xffffffffffffffffffffffffffffffffffffffff\n      and\n      0xffffffffffffffffffffffffffffffffffffffff\n      and\n      dup2\n      mstore\n      0x20\n      add\n      swap1\n      dup2\n      mstore\n      0x20\n      add\n      0x00\n      keccak256\n        /* \"contracts/CalismaBilgileri.sol\":1835:1873  calismaBilgileri[_kisiAddress][yeniId] */\n      0x00\n        /* \"contracts/CalismaBilgileri.sol\":1866:1872  yeniId */\n      dup4\n        /* \"contracts/CalismaBilgileri.sol\":1835:1873  calismaBilgileri[_kisiAddress][yeniId] */\n      dup2\n      mstore\n      0x20\n      add\n      swap1\n      dup2\n      mstore\n      0x20\n      add\n      0x00\n      keccak256\n        /* \"contracts/CalismaBilgileri.sol\":1835:1879  calismaBilgileri[_kisiAddress][yeniId].sehir */\n      0x05\n      add\n      0x01\n        /* \"contracts/CalismaBilgileri.sol\":1835:1885  calismaBilgileri[_kisiAddress][yeniId].sehir=sehir */\n      0x0100\n      exp\n      dup2\n      sload\n      dup2\n      0xffffffff\n      mul\n      not\n      and\n      swap1\n      dup4\n      0xffffffff\n      and\n      mul\n      or\n      swap1\n      sstore\n      pop\n        /* \"contracts/CalismaBilgileri.sol\":1956:1971  block.timestamp */\n      timestamp\n        /* \"contracts/CalismaBilgileri.sol\":1901:1917  calismaBilgileri */\n      0x0d\n        /* \"contracts/CalismaBilgileri.sol\":1901:1931  calismaBilgileri[_kisiAddress] */\n      0x00\n        /* \"contracts/CalismaBilgileri.sol\":1918:1930  _kisiAddress */\n      dup13\n        /* \"contracts/CalismaBilgileri.sol\":1901:1931  calismaBilgileri[_kisiAddress] */\n      0xffffffffffffffffffffffffffffffffffffffff\n      and\n      0xffffffffffffffffffffffffffffffffffffffff\n      and\n      dup2\n      mstore\n      0x20\n      add\n      swap1\n      dup2\n      mstore\n      0x20\n      add\n      0x00\n      keccak256\n        /* \"contracts/CalismaBilgileri.sol\":1901:1939  calismaBilgileri[_kisiAddress][yeniId] */\n      0x00\n        /* \"contracts/CalismaBilgileri.sol\":1932:1938  yeniId */\n      dup4\n        /* \"contracts/CalismaBilgileri.sol\":1901:1939  calismaBilgileri[_kisiAddress][yeniId] */\n      dup2\n      mstore\n      0x20\n      add\n      swap1\n      dup2\n      mstore\n      0x20\n      add\n      0x00\n      keccak256\n        /* \"contracts/CalismaBilgileri.sol\":1901:1949  calismaBilgileri[_kisiAddress][yeniId].onayBilgi */\n      0x06\n      add\n        /* \"contracts/CalismaBilgileri.sol\":1901:1955  calismaBilgileri[_kisiAddress][yeniId].onayBilgi.zaman */\n      0x00\n      add\n        /* \"contracts/CalismaBilgileri.sol\":1901:1971  calismaBilgileri[_kisiAddress][yeniId].onayBilgi.zaman=block.timestamp */\n      dup2\n      swap1\n      sstore\n      pop\n        /* \"contracts/CalismaBilgileri.sol\":2042:2061  OnayDurum.Onaylandi */\n      0x01\n        /* \"contracts/CalismaBilgileri.sol\":1987:2003  calismaBilgileri */\n      0x0d\n        /* \"contracts/CalismaBilgileri.sol\":1987:2017  calismaBilgileri[_kisiAddress] */\n      0x00\n        /* \"contracts/CalismaBilgileri.sol\":2004:2016  _kisiAddress */\n      dup13\n        /* \"contracts/CalismaBilgileri.sol\":1987:2017  calismaBilgileri[_kisiAddress] */\n      0xffffffffffffffffffffffffffffffffffffffff\n      and\n      0xffffffffffffffffffffffffffffffffffffffff\n      and\n      dup2\n      mstore\n      0x20\n      add\n      swap1\n      dup2\n      mstore\n      0x20\n      add\n      0x00\n      keccak256\n        /* \"contracts/CalismaBilgileri.sol\":1987:2025  calismaBilgileri[_kisiAddress][yeniId] */\n      0x00\n        /* \"contracts/CalismaBilgileri.sol\":2018:2024  yeniId */\n      dup4\n        /* \"contracts/CalismaBilgileri.sol\":1987:2025  calismaBilgileri[_kisiAddress][yeniId] */\n      dup2\n      mstore\n      0x20\n      add\n      swap1\n      dup2\n      mstore\n      0x20\n      add\n      0x00\n      keccak256\n        /* \"contracts/CalismaBilgileri.sol\":1987:2035  calismaBilgileri[_kisiAddress][yeniId].onayBilgi */\n      0x06\n      add\n        /* \"contracts/CalismaBilgileri.sol\":1987:2041  calismaBilgileri[_kisiAddress][yeniId].onayBilgi.durum */\n      0x01\n      add\n      0x14\n        /* \"contracts/CalismaBilgileri.sol\":1987:2061  calismaBilgileri[_kisiAddress][yeniId].onayBilgi.durum=OnayDurum.Onaylandi */\n      0x0100\n      exp\n      dup2\n      sload\n      dup2\n      0xff\n      mul\n      not\n      and\n      swap1\n      dup4\n      0x02\n      dup2\n      gt\n      iszero\n      tag_176\n      jumpi\n      tag_177\n      tag_97\n      jump\t// in\n    tag_177:\n    tag_176:\n      mul\n      or\n      swap1\n      sstore\n      pop\n        /* \"contracts/CalismaBilgileri.sol\":2132:2142  msg.sender */\n      caller\n        /* \"contracts/CalismaBilgileri.sol\":2077:2093  calismaBilgileri */\n      0x0d\n        /* \"contracts/CalismaBilgileri.sol\":2077:2107  calismaBilgileri[_kisiAddress] */\n      0x00\n        /* \"contracts/CalismaBilgileri.sol\":2094:2106  _kisiAddress */\n      dup13\n        /* \"contracts/CalismaBilgileri.sol\":2077:2107  calismaBilgileri[_kisiAddress] */\n      0xffffffffffffffffffffffffffffffffffffffff\n      and\n      0xffffffffffffffffffffffffffffffffffffffff\n      and\n      dup2\n      mstore\n      0x20\n      add\n      swap1\n      dup2\n      mstore\n      0x20\n      add\n      0x00\n      keccak256\n        /* \"contracts/CalismaBilgileri.sol\":2077:2115  calismaBilgileri[_kisiAddress][yeniId] */\n      0x00\n        /* \"contracts/CalismaBilgileri.sol\":2108:2114  yeniId */\n      dup4\n        /* \"contracts/CalismaBilgileri.sol\":2077:2115  calismaBilgileri[_kisiAddress][yeniId] */\n      dup2\n      mstore\n      0x20\n      add\n      swap1\n      dup2\n      mstore\n      0x20\n      add\n      0x00\n      keccak256\n        /* \"contracts/CalismaBilgileri.sol\":2077:2125  calismaBilgileri[_kisiAddress][yeniId].onayBilgi */\n      0x06\n      add\n        /* \"contracts/CalismaBilgileri.sol\":2077:2131  calismaBilgileri[_kisiAddress][yeniId].onayBilgi.adres */\n      0x01\n      add\n      0x00\n        /* \"contracts/CalismaBilgileri.sol\":2077:2142  calismaBilgileri[_kisiAddress][yeniId].onayBilgi.adres=msg.sender */\n      0x0100\n      exp\n      dup2\n      sload\n      dup2\n      0xffffffffffffffffffffffffffffffffffffffff\n      mul\n      not\n      and\n      swap1\n      dup4\n      0xffffffffffffffffffffffffffffffffffffffff\n      and\n      mul\n      or\n      swap1\n      sstore\n      pop\n        /* \"contracts/CalismaBilgileri.sol\":2176:2236  CalismaBilgiEklendiLog( _kisiAddress, ulke,pozisyon, sektor) */\n      0x5ad0792471e6b8d6289d325d174cfb7e274ac9529efeb295f4abce0a90cdcb23\n        /* \"contracts/CalismaBilgileri.sol\":2200:2212  _kisiAddress */\n      dup11\n        /* \"contracts/CalismaBilgileri.sol\":2214:2218  ulke */\n      dup5\n        /* \"contracts/CalismaBilgileri.sol\":2219:2227  pozisyon */\n      dup12\n        /* \"contracts/CalismaBilgileri.sol\":2229:2235  sektor */\n      dup12\n        /* \"contracts/CalismaBilgileri.sol\":2176:2236  CalismaBilgiEklendiLog( _kisiAddress, ulke,pozisyon, sektor) */\n      mload(0x40)\n      tag_178\n      swap5\n      swap4\n      swap3\n      swap2\n      swap1\n      tag_103\n      jump\t// in\n    tag_178:\n      mload(0x40)\n      dup1\n      swap2\n      sub\n      swap1\n      log1\n        /* \"contracts/CalismaBilgileri.sol\":1198:2244  {\r... */\n      pop\n        /* \"contracts/CalismaBilgileri.sol\":983:2244  function ekleCalismaBilgi(address _kisiAddress, uint32 pozisyon, uint8 sektor, CalismaTipi calismaTipi, string memory isAciklama, uint basTarih, uint bitTarih, uint8 ulke, uint32 sehir)  public sadece_Uni_Firma_Kamu{\r... */\n      pop\n      pop\n      pop\n      pop\n      pop\n      pop\n      pop\n      pop\n      pop\n      jump\t// out\n        /* \"contracts/CalismaBilgileri.sol\":183:197  uint public id */\n    tag_73:\n      sload(0x0c)\n      dup2\n      jump\t// out\n        /* \"contracts/BaseContract.sol\":3607:3658  mapping(address=>Akademisyen) public akademisyenler */\n    tag_77:\n      mstore(0x20, 0x05)\n      dup1\n      0x00\n      mstore\n      keccak256(0x00, 0x40)\n      0x00\n      swap2\n      pop\n      swap1\n      pop\n      dup1\n      0x00\n      add\n      0x00\n      swap1\n      sload\n      swap1\n      0x0100\n      exp\n      swap1\n      div\n      0xff\n      and\n      swap1\n      dup1\n      0x00\n      add\n      0x01\n      swap1\n      sload\n      swap1\n      0x0100\n      exp\n      swap1\n      div\n      0xffffffffffffffffffffffffffffffffffffffff\n      and\n      swap1\n      dup1\n      0x00\n      add\n      0x15\n      swap1\n      sload\n      swap1\n      0x0100\n      exp\n      swap1\n      div\n      0xffff\n      and\n      swap1\n      dup1\n      0x00\n      add\n      0x17\n      swap1\n      sload\n      swap1\n      0x0100\n      exp\n      swap1\n      div\n      0xff\n      and\n      swap1\n      dup1\n      0x01\n      add\n      dup1\n      sload\n      tag_179\n      swap1\n      tag_105\n      jump\t// in\n    tag_179:\n      dup1\n      0x1f\n      add\n      0x20\n      dup1\n      swap2\n      div\n      mul\n      0x20\n      add\n      mload(0x40)\n      swap1\n      dup2\n      add\n      0x40\n      mstore\n      dup1\n      swap3\n      swap2\n      swap1\n      dup2\n      dup2\n      mstore\n      0x20\n      add\n      dup3\n      dup1\n      sload\n      tag_180\n      swap1\n      tag_105\n      jump\t// in\n    tag_180:\n      dup1\n      iszero\n      tag_181\n      jumpi\n      dup1\n      0x1f\n      lt\n      tag_182\n      jumpi\n      0x0100\n      dup1\n      dup4\n      sload\n      div\n      mul\n      dup4\n      mstore\n      swap2\n      0x20\n      add\n      swap2\n      jump(tag_181)\n    tag_182:\n      dup3\n      add\n      swap2\n      swap1\n      0x00\n      mstore\n      keccak256(0x00, 0x20)\n      swap1\n    tag_183:\n      dup2\n      sload\n      dup2\n      mstore\n      swap1\n      0x01\n      add\n      swap1\n      0x20\n      add\n      dup1\n      dup4\n      gt\n      tag_183\n      jumpi\n      dup3\n      swap1\n      sub\n      0x1f\n      and\n      dup3\n      add\n      swap2\n    tag_181:\n      pop\n      pop\n      pop\n      pop\n      pop\n      swap1\n      dup1\n      0x02\n      add\n      dup1\n      sload\n      tag_184\n      swap1\n      tag_105\n      jump\t// in\n    tag_184:\n      dup1\n      0x1f\n      add\n      0x20\n      dup1\n      swap2\n      div\n      mul\n      0x20\n      add\n      mload(0x40)\n      swap1\n      dup2\n      add\n      0x40\n      mstore\n      dup1\n      swap3\n      swap2\n      swap1\n      dup2\n      dup2\n      mstore\n      0x20\n      add\n      dup3\n      dup1\n      sload\n      tag_185\n      swap1\n      tag_105\n      jump\t// in\n    tag_185:\n      dup1\n      iszero\n      tag_186\n      jumpi\n      dup1\n      0x1f\n      lt\n      tag_187\n      jumpi\n      0x0100\n      dup1\n      dup4\n      sload\n      div\n      mul\n      dup4\n      mstore\n      swap2\n      0x20\n      add\n      swap2\n      jump(tag_186)\n    tag_187:\n      dup3\n      add\n      swap2\n      swap1\n      0x00\n      mstore\n      keccak256(0x00, 0x20)\n      swap1\n    tag_188:\n      dup2\n      sload\n      dup2\n      mstore\n      swap1\n      0x01\n      add\n      swap1\n      0x20\n      add\n      dup1\n      dup4\n      gt\n      tag_188\n      jumpi\n      dup3\n      swap1\n      sub\n      0x1f\n      and\n      dup3\n      add\n      swap2\n    tag_186:\n      pop\n      pop\n      pop\n      pop\n      pop\n      swap1\n      pop\n      dup7\n      jump\t// out\n        /* \"contracts/BaseContract.sol\":3507:3544  mapping(address=>Kisi) public kisiler */\n    tag_82:\n      mstore(0x20, 0x03)\n      dup1\n      0x00\n      mstore\n      keccak256(0x00, 0x40)\n      0x00\n      swap2\n      pop\n      swap1\n      pop\n      dup1\n      0x00\n      add\n      0x00\n      swap1\n      sload\n      swap1\n      0x0100\n      exp\n      swap1\n      div\n      0xff\n      and\n      swap1\n      pop\n      dup2\n      jump\t// out\n    tag_99:\n      dup3\n      dup1\n      sload\n      tag_189\n      swap1\n      tag_105\n      jump\t// in\n    tag_189:\n      swap1\n      0x00\n      mstore\n      keccak256(0x00, 0x20)\n      swap1\n      0x1f\n      add\n      0x20\n      swap1\n      div\n      dup2\n      add\n      swap3\n      dup3\n      tag_191\n      jumpi\n      0x00\n      dup6\n      sstore\n      jump(tag_190)\n    tag_191:\n      dup3\n      0x1f\n      lt\n      tag_192\n      jumpi\n      dup1\n      mload\n      not(0xff)\n      and\n      dup4\n      dup1\n      add\n      or\n      dup6\n      sstore\n      jump(tag_190)\n    tag_192:\n      dup3\n      dup1\n      add\n      0x01\n      add\n      dup6\n      sstore\n      dup3\n      iszero\n      tag_190\n      jumpi\n      swap2\n      dup3\n      add\n    tag_193:\n      dup3\n      dup2\n      gt\n      iszero\n      tag_194\n      jumpi\n      dup3\n      mload\n      dup3\n      sstore\n      swap2\n      0x20\n      add\n      swap2\n      swap1\n      0x01\n      add\n      swap1\n      jump(tag_193)\n    tag_194:\n    tag_190:\n      pop\n      swap1\n      pop\n      tag_195\n      swap2\n      swap1\n      tag_196\n      jump\t// in\n    tag_195:\n      pop\n      swap1\n      jump\t// out\n    tag_196:\n    tag_197:\n      dup1\n      dup3\n      gt\n      iszero\n      tag_198\n      jumpi\n      0x00\n      dup2\n      0x00\n      swap1\n      sstore\n      pop\n      0x01\n      add\n      jump(tag_197)\n    tag_198:\n      pop\n      swap1\n      jump\t// out\n        /* \"#utility.yul\":7:419   */\n    tag_200:\n        /* \"#utility.yul\":85:90   */\n      0x00\n        /* \"#utility.yul\":110:176   */\n      tag_202\n        /* \"#utility.yul\":126:175   */\n      tag_203\n        /* \"#utility.yul\":168:174   */\n      dup5\n        /* \"#utility.yul\":126:175   */\n      tag_204\n      jump\t// in\n    tag_203:\n        /* \"#utility.yul\":110:176   */\n      tag_205\n      jump\t// in\n    tag_202:\n        /* \"#utility.yul\":101:176   */\n      swap1\n      pop\n        /* \"#utility.yul\":199:205   */\n      dup3\n        /* \"#utility.yul\":192:197   */\n      dup2\n        /* \"#utility.yul\":185:206   */\n      mstore\n        /* \"#utility.yul\":237:241   */\n      0x20\n        /* \"#utility.yul\":230:235   */\n      dup2\n        /* \"#utility.yul\":226:242   */\n      add\n        /* \"#utility.yul\":275:278   */\n      dup5\n        /* \"#utility.yul\":266:272   */\n      dup5\n        /* \"#utility.yul\":261:264   */\n      dup5\n        /* \"#utility.yul\":257:273   */\n      add\n        /* \"#utility.yul\":254:279   */\n      gt\n        /* \"#utility.yul\":251:363   */\n      iszero\n      tag_206\n      jumpi\n        /* \"#utility.yul\":282:361   */\n      tag_207\n      tag_208\n      jump\t// in\n    tag_207:\n        /* \"#utility.yul\":251:363   */\n    tag_206:\n        /* \"#utility.yul\":372:413   */\n      tag_209\n        /* \"#utility.yul\":406:412   */\n      dup5\n        /* \"#utility.yul\":401:404   */\n      dup3\n        /* \"#utility.yul\":396:399   */\n      dup6\n        /* \"#utility.yul\":372:413   */\n      tag_210\n      jump\t// in\n    tag_209:\n        /* \"#utility.yul\":91:419   */\n      pop\n        /* \"#utility.yul\":7:419   */\n      swap4\n      swap3\n      pop\n      pop\n      pop\n      jump\t// out\n        /* \"#utility.yul\":425:564   */\n    tag_211:\n        /* \"#utility.yul\":471:476   */\n      0x00\n        /* \"#utility.yul\":509:515   */\n      dup2\n        /* \"#utility.yul\":496:516   */\n      calldataload\n        /* \"#utility.yul\":487:516   */\n      swap1\n      pop\n        /* \"#utility.yul\":525:558   */\n      tag_213\n        /* \"#utility.yul\":552:557   */\n      dup2\n        /* \"#utility.yul\":525:558   */\n      tag_214\n      jump\t// in\n    tag_213:\n        /* \"#utility.yul\":425:564   */\n      swap3\n      swap2\n      pop\n      pop\n      jump\t// out\n        /* \"#utility.yul\":570:737   */\n    tag_215:\n        /* \"#utility.yul\":630:635   */\n      0x00\n        /* \"#utility.yul\":668:674   */\n      dup2\n        /* \"#utility.yul\":655:675   */\n      calldataload\n        /* \"#utility.yul\":646:675   */\n      swap1\n      pop\n        /* \"#utility.yul\":684:731   */\n      tag_217\n        /* \"#utility.yul\":725:730   */\n      dup2\n        /* \"#utility.yul\":684:731   */\n      tag_218\n      jump\t// in\n    tag_217:\n        /* \"#utility.yul\":570:737   */\n      swap3\n      swap2\n      pop\n      pop\n      jump\t// out\n        /* \"#utility.yul\":757:1097   */\n    tag_219:\n        /* \"#utility.yul\":813:818   */\n      0x00\n        /* \"#utility.yul\":862:865   */\n      dup3\n        /* \"#utility.yul\":855:859   */\n      0x1f\n        /* \"#utility.yul\":847:853   */\n      dup4\n        /* \"#utility.yul\":843:860   */\n      add\n        /* \"#utility.yul\":839:866   */\n      slt\n        /* \"#utility.yul\":829:951   */\n      tag_221\n      jumpi\n        /* \"#utility.yul\":870:949   */\n      tag_222\n      tag_223\n      jump\t// in\n    tag_222:\n        /* \"#utility.yul\":829:951   */\n    tag_221:\n        /* \"#utility.yul\":987:993   */\n      dup2\n        /* \"#utility.yul\":974:994   */\n      calldataload\n        /* \"#utility.yul\":1012:1091   */\n      tag_224\n        /* \"#utility.yul\":1087:1090   */\n      dup5\n        /* \"#utility.yul\":1079:1085   */\n      dup3\n        /* \"#utility.yul\":1072:1076   */\n      0x20\n        /* \"#utility.yul\":1064:1070   */\n      dup7\n        /* \"#utility.yul\":1060:1077   */\n      add\n        /* \"#utility.yul\":1012:1091   */\n      tag_200\n      jump\t// in\n    tag_224:\n        /* \"#utility.yul\":1003:1091   */\n      swap2\n      pop\n        /* \"#utility.yul\":819:1097   */\n      pop\n        /* \"#utility.yul\":757:1097   */\n      swap3\n      swap2\n      pop\n      pop\n      jump\t// out\n        /* \"#utility.yul\":1103:1242   */\n    tag_225:\n        /* \"#utility.yul\":1149:1154   */\n      0x00\n        /* \"#utility.yul\":1187:1193   */\n      dup2\n        /* \"#utility.yul\":1174:1194   */\n      calldataload\n        /* \"#utility.yul\":1165:1194   */\n      swap1\n      pop\n        /* \"#utility.yul\":1203:1236   */\n      tag_227\n        /* \"#utility.yul\":1230:1235   */\n      dup2\n        /* \"#utility.yul\":1203:1236   */\n      tag_228\n      jump\t// in\n    tag_227:\n        /* \"#utility.yul\":1103:1242   */\n      swap3\n      swap2\n      pop\n      pop\n      jump\t// out\n        /* \"#utility.yul\":1248:1385   */\n    tag_229:\n        /* \"#utility.yul\":1293:1298   */\n      0x00\n        /* \"#utility.yul\":1331:1337   */\n      dup2\n        /* \"#utility.yul\":1318:1338   */\n      calldataload\n        /* \"#utility.yul\":1309:1338   */\n      swap1\n      pop\n        /* \"#utility.yul\":1347:1379   */\n      tag_231\n        /* \"#utility.yul\":1373:1378   */\n      dup2\n        /* \"#utility.yul\":1347:1379   */\n      tag_232\n      jump\t// in\n    tag_231:\n        /* \"#utility.yul\":1248:1385   */\n      swap3\n      swap2\n      pop\n      pop\n      jump\t// out\n        /* \"#utility.yul\":1391:1526   */\n    tag_233:\n        /* \"#utility.yul\":1435:1440   */\n      0x00\n        /* \"#utility.yul\":1473:1479   */\n      dup2\n        /* \"#utility.yul\":1460:1480   */\n      calldataload\n        /* \"#utility.yul\":1451:1480   */\n      swap1\n      pop\n        /* \"#utility.yul\":1489:1520   */\n      tag_235\n        /* \"#utility.yul\":1514:1519   */\n      dup2\n        /* \"#utility.yul\":1489:1520   */\n      tag_236\n      jump\t// in\n    tag_235:\n        /* \"#utility.yul\":1391:1526   */\n      swap3\n      swap2\n      pop\n      pop\n      jump\t// out\n        /* \"#utility.yul\":1532:1861   */\n    tag_32:\n        /* \"#utility.yul\":1591:1597   */\n      0x00\n        /* \"#utility.yul\":1640:1642   */\n      0x20\n        /* \"#utility.yul\":1628:1637   */\n      dup3\n        /* \"#utility.yul\":1619:1626   */\n      dup5\n        /* \"#utility.yul\":1615:1638   */\n      sub\n        /* \"#utility.yul\":1611:1643   */\n      slt\n        /* \"#utility.yul\":1608:1727   */\n      iszero\n      tag_238\n      jumpi\n        /* \"#utility.yul\":1646:1725   */\n      tag_239\n      tag_240\n      jump\t// in\n    tag_239:\n        /* \"#utility.yul\":1608:1727   */\n    tag_238:\n        /* \"#utility.yul\":1766:1767   */\n      0x00\n        /* \"#utility.yul\":1791:1844   */\n      tag_241\n        /* \"#utility.yul\":1836:1843   */\n      dup5\n        /* \"#utility.yul\":1827:1833   */\n      dup3\n        /* \"#utility.yul\":1816:1825   */\n      dup6\n        /* \"#utility.yul\":1812:1834   */\n      add\n        /* \"#utility.yul\":1791:1844   */\n      tag_211\n      jump\t// in\n    tag_241:\n        /* \"#utility.yul\":1781:1844   */\n      swap2\n      pop\n        /* \"#utility.yul\":1737:1854   */\n      pop\n        /* \"#utility.yul\":1532:1861   */\n      swap3\n      swap2\n      pop\n      pop\n      jump\t// out\n        /* \"#utility.yul\":1867:2341   */\n    tag_26:\n        /* \"#utility.yul\":1935:1941   */\n      0x00\n        /* \"#utility.yul\":1943:1949   */\n      dup1\n        /* \"#utility.yul\":1992:1994   */\n      0x40\n        /* \"#utility.yul\":1980:1989   */\n      dup4\n        /* \"#utility.yul\":1971:1978   */\n      dup6\n        /* \"#utility.yul\":1967:1990   */\n      sub\n        /* \"#utility.yul\":1963:1995   */\n      slt\n        /* \"#utility.yul\":1960:2079   */\n      iszero\n      tag_243\n      jumpi\n        /* \"#utility.yul\":1998:2077   */\n      tag_244\n      tag_240\n      jump\t// in\n    tag_244:\n        /* \"#utility.yul\":1960:2079   */\n    tag_243:\n        /* \"#utility.yul\":2118:2119   */\n      0x00\n        /* \"#utility.yul\":2143:2196   */\n      tag_245\n        /* \"#utility.yul\":2188:2195   */\n      dup6\n        /* \"#utility.yul\":2179:2185   */\n      dup3\n        /* \"#utility.yul\":2168:2177   */\n      dup7\n        /* \"#utility.yul\":2164:2186   */\n      add\n        /* \"#utility.yul\":2143:2196   */\n      tag_211\n      jump\t// in\n    tag_245:\n        /* \"#utility.yul\":2133:2196   */\n      swap3\n      pop\n        /* \"#utility.yul\":2089:2206   */\n      pop\n        /* \"#utility.yul\":2245:2247   */\n      0x20\n        /* \"#utility.yul\":2271:2324   */\n      tag_246\n        /* \"#utility.yul\":2316:2323   */\n      dup6\n        /* \"#utility.yul\":2307:2313   */\n      dup3\n        /* \"#utility.yul\":2296:2305   */\n      dup7\n        /* \"#utility.yul\":2292:2314   */\n      add\n        /* \"#utility.yul\":2271:2324   */\n      tag_225\n      jump\t// in\n    tag_246:\n        /* \"#utility.yul\":2261:2324   */\n      swap2\n      pop\n        /* \"#utility.yul\":2216:2334   */\n      pop\n        /* \"#utility.yul\":1867:2341   */\n      swap3\n      pop\n      swap3\n      swap1\n      pop\n      jump\t// out\n        /* \"#utility.yul\":2347:4184   */\n    tag_51:\n        /* \"#utility.yul\":2505:2511   */\n      0x00\n        /* \"#utility.yul\":2513:2519   */\n      dup1\n        /* \"#utility.yul\":2521:2527   */\n      0x00\n        /* \"#utility.yul\":2529:2535   */\n      dup1\n        /* \"#utility.yul\":2537:2543   */\n      0x00\n        /* \"#utility.yul\":2545:2551   */\n      dup1\n        /* \"#utility.yul\":2553:2559   */\n      0x00\n        /* \"#utility.yul\":2561:2567   */\n      dup1\n        /* \"#utility.yul\":2569:2575   */\n      0x00\n        /* \"#utility.yul\":2577:2583   */\n      dup1\n        /* \"#utility.yul\":2626:2629   */\n      0x0140\n        /* \"#utility.yul\":2614:2623   */\n      dup12\n        /* \"#utility.yul\":2605:2612   */\n      dup14\n        /* \"#utility.yul\":2601:2624   */\n      sub\n        /* \"#utility.yul\":2597:2630   */\n      slt\n        /* \"#utility.yul\":2594:2714   */\n      iszero\n      tag_248\n      jumpi\n        /* \"#utility.yul\":2633:2712   */\n      tag_249\n      tag_240\n      jump\t// in\n    tag_249:\n        /* \"#utility.yul\":2594:2714   */\n    tag_248:\n        /* \"#utility.yul\":2753:2754   */\n      0x00\n        /* \"#utility.yul\":2778:2831   */\n      tag_250\n        /* \"#utility.yul\":2823:2830   */\n      dup14\n        /* \"#utility.yul\":2814:2820   */\n      dup3\n        /* \"#utility.yul\":2803:2812   */\n      dup15\n        /* \"#utility.yul\":2799:2821   */\n      add\n        /* \"#utility.yul\":2778:2831   */\n      tag_211\n      jump\t// in\n    tag_250:\n        /* \"#utility.yul\":2768:2831   */\n      swap11\n      pop\n        /* \"#utility.yul\":2724:2841   */\n      pop\n        /* \"#utility.yul\":2880:2882   */\n      0x20\n        /* \"#utility.yul\":2906:2959   */\n      tag_251\n        /* \"#utility.yul\":2951:2958   */\n      dup14\n        /* \"#utility.yul\":2942:2948   */\n      dup3\n        /* \"#utility.yul\":2931:2940   */\n      dup15\n        /* \"#utility.yul\":2927:2949   */\n      add\n        /* \"#utility.yul\":2906:2959   */\n      tag_225\n      jump\t// in\n    tag_251:\n        /* \"#utility.yul\":2896:2959   */\n      swap10\n      pop\n        /* \"#utility.yul\":2851:2969   */\n      pop\n        /* \"#utility.yul\":3008:3010   */\n      0x40\n        /* \"#utility.yul\":3034:3086   */\n      tag_252\n        /* \"#utility.yul\":3078:3085   */\n      dup14\n        /* \"#utility.yul\":3069:3075   */\n      dup3\n        /* \"#utility.yul\":3058:3067   */\n      dup15\n        /* \"#utility.yul\":3054:3076   */\n      add\n        /* \"#utility.yul\":3034:3086   */\n      tag_229\n      jump\t// in\n    tag_252:\n        /* \"#utility.yul\":3024:3086   */\n      swap9\n      pop\n        /* \"#utility.yul\":2979:3096   */\n      pop\n        /* \"#utility.yul\":3135:3137   */\n      0x60\n        /* \"#utility.yul\":3161:3212   */\n      tag_253\n        /* \"#utility.yul\":3204:3211   */\n      dup14\n        /* \"#utility.yul\":3195:3201   */\n      dup3\n        /* \"#utility.yul\":3184:3193   */\n      dup15\n        /* \"#utility.yul\":3180:3202   */\n      add\n        /* \"#utility.yul\":3161:3212   */\n      tag_233\n      jump\t// in\n    tag_253:\n        /* \"#utility.yul\":3151:3212   */\n      swap8\n      pop\n        /* \"#utility.yul\":3106:3222   */\n      pop\n        /* \"#utility.yul\":3261:3264   */\n      0x80\n        /* \"#utility.yul\":3288:3355   */\n      tag_254\n        /* \"#utility.yul\":3347:3354   */\n      dup14\n        /* \"#utility.yul\":3338:3344   */\n      dup3\n        /* \"#utility.yul\":3327:3336   */\n      dup15\n        /* \"#utility.yul\":3323:3345   */\n      add\n        /* \"#utility.yul\":3288:3355   */\n      tag_215\n      jump\t// in\n    tag_254:\n        /* \"#utility.yul\":3278:3355   */\n      swap7\n      pop\n        /* \"#utility.yul\":3232:3365   */\n      pop\n        /* \"#utility.yul\":3432:3435   */\n      0xa0\n        /* \"#utility.yul\":3421:3430   */\n      dup12\n        /* \"#utility.yul\":3417:3436   */\n      add\n        /* \"#utility.yul\":3404:3437   */\n      calldataload\n        /* \"#utility.yul\":3464:3482   */\n      0xffffffffffffffff\n        /* \"#utility.yul\":3456:3462   */\n      dup2\n        /* \"#utility.yul\":3453:3483   */\n      gt\n        /* \"#utility.yul\":3450:3567   */\n      iszero\n      tag_255\n      jumpi\n        /* \"#utility.yul\":3486:3565   */\n      tag_256\n      tag_257\n      jump\t// in\n    tag_256:\n        /* \"#utility.yul\":3450:3567   */\n    tag_255:\n        /* \"#utility.yul\":3591:3654   */\n      tag_258\n        /* \"#utility.yul\":3646:3653   */\n      dup14\n        /* \"#utility.yul\":3637:3643   */\n      dup3\n        /* \"#utility.yul\":3626:3635   */\n      dup15\n        /* \"#utility.yul\":3622:3644   */\n      add\n        /* \"#utility.yul\":3591:3654   */\n      tag_219\n      jump\t// in\n    tag_258:\n        /* \"#utility.yul\":3581:3654   */\n      swap6\n      pop\n        /* \"#utility.yul\":3375:3664   */\n      pop\n        /* \"#utility.yul\":3703:3706   */\n      0xc0\n        /* \"#utility.yul\":3730:3783   */\n      tag_259\n        /* \"#utility.yul\":3775:3782   */\n      dup14\n        /* \"#utility.yul\":3766:3772   */\n      dup3\n        /* \"#utility.yul\":3755:3764   */\n      dup15\n        /* \"#utility.yul\":3751:3773   */\n      add\n        /* \"#utility.yul\":3730:3783   */\n      tag_225\n      jump\t// in\n    tag_259:\n        /* \"#utility.yul\":3720:3783   */\n      swap5\n      pop\n        /* \"#utility.yul\":3674:3793   */\n      pop\n        /* \"#utility.yul\":3832:3835   */\n      0xe0\n        /* \"#utility.yul\":3859:3912   */\n      tag_260\n        /* \"#utility.yul\":3904:3911   */\n      dup14\n        /* \"#utility.yul\":3895:3901   */\n      dup3\n        /* \"#utility.yul\":3884:3893   */\n      dup15\n        /* \"#utility.yul\":3880:3902   */\n      add\n        /* \"#utility.yul\":3859:3912   */\n      tag_225\n      jump\t// in\n    tag_260:\n        /* \"#utility.yul\":3849:3912   */\n      swap4\n      pop\n        /* \"#utility.yul\":3803:3922   */\n      pop\n        /* \"#utility.yul\":3961:3964   */\n      0x0100\n        /* \"#utility.yul\":3988:4039   */\n      tag_261\n        /* \"#utility.yul\":4031:4038   */\n      dup14\n        /* \"#utility.yul\":4022:4028   */\n      dup3\n        /* \"#utility.yul\":4011:4020   */\n      dup15\n        /* \"#utility.yul\":4007:4029   */\n      add\n        /* \"#utility.yul\":3988:4039   */\n      tag_233\n      jump\t// in\n    tag_261:\n        /* \"#utility.yul\":3978:4039   */\n      swap3\n      pop\n        /* \"#utility.yul\":3932:4049   */\n      pop\n        /* \"#utility.yul\":4088:4091   */\n      0x0120\n        /* \"#utility.yul\":4115:4167   */\n      tag_262\n        /* \"#utility.yul\":4159:4166   */\n      dup14\n        /* \"#utility.yul\":4150:4156   */\n      dup3\n        /* \"#utility.yul\":4139:4148   */\n      dup15\n        /* \"#utility.yul\":4135:4157   */\n      add\n        /* \"#utility.yul\":4115:4167   */\n      tag_229\n      jump\t// in\n    tag_262:\n        /* \"#utility.yul\":4105:4167   */\n      swap2\n      pop\n        /* \"#utility.yul\":4059:4177   */\n      pop\n        /* \"#utility.yul\":2347:4184   */\n      swap3\n      swap6\n      swap9\n      swap12\n      swap2\n      swap5\n      swap8\n      swap11\n      pop\n      swap3\n      swap6\n      swap9\n      pop\n      jump\t// out\n        /* \"#utility.yul\":4190:5881   */\n    tag_22:\n        /* \"#utility.yul\":4339:4345   */\n      0x00\n        /* \"#utility.yul\":4347:4353   */\n      dup1\n        /* \"#utility.yul\":4355:4361   */\n      0x00\n        /* \"#utility.yul\":4363:4369   */\n      dup1\n        /* \"#utility.yul\":4371:4377   */\n      0x00\n        /* \"#utility.yul\":4379:4385   */\n      dup1\n        /* \"#utility.yul\":4387:4393   */\n      0x00\n        /* \"#utility.yul\":4395:4401   */\n      dup1\n        /* \"#utility.yul\":4403:4409   */\n      0x00\n        /* \"#utility.yul\":4452:4455   */\n      0x0120\n        /* \"#utility.yul\":4440:4449   */\n      dup11\n        /* \"#utility.yul\":4431:4438   */\n      dup13\n        /* \"#utility.yul\":4427:4450   */\n      sub\n        /* \"#utility.yul\":4423:4456   */\n      slt\n        /* \"#utility.yul\":4420:4540   */\n      iszero\n      tag_264\n      jumpi\n        /* \"#utility.yul\":4459:4538   */\n      tag_265\n      tag_240\n      jump\t// in\n    tag_265:\n        /* \"#utility.yul\":4420:4540   */\n    tag_264:\n        /* \"#utility.yul\":4579:4580   */\n      0x00\n        /* \"#utility.yul\":4604:4657   */\n      tag_266\n        /* \"#utility.yul\":4649:4656   */\n      dup13\n        /* \"#utility.yul\":4640:4646   */\n      dup3\n        /* \"#utility.yul\":4629:4638   */\n      dup14\n        /* \"#utility.yul\":4625:4647   */\n      add\n        /* \"#utility.yul\":4604:4657   */\n      tag_211\n      jump\t// in\n    tag_266:\n        /* \"#utility.yul\":4594:4657   */\n      swap10\n      pop\n        /* \"#utility.yul\":4550:4667   */\n      pop\n        /* \"#utility.yul\":4706:4708   */\n      0x20\n        /* \"#utility.yul\":4732:4784   */\n      tag_267\n        /* \"#utility.yul\":4776:4783   */\n      dup13\n        /* \"#utility.yul\":4767:4773   */\n      dup3\n        /* \"#utility.yul\":4756:4765   */\n      dup14\n        /* \"#utility.yul\":4752:4774   */\n      add\n        /* \"#utility.yul\":4732:4784   */\n      tag_229\n      jump\t// in\n    tag_267:\n        /* \"#utility.yul\":4722:4784   */\n      swap9\n      pop\n        /* \"#utility.yul\":4677:4794   */\n      pop\n        /* \"#utility.yul\":4833:4835   */\n      0x40\n        /* \"#utility.yul\":4859:4910   */\n      tag_268\n        /* \"#utility.yul\":4902:4909   */\n      dup13\n        /* \"#utility.yul\":4893:4899   */\n      dup3\n        /* \"#utility.yul\":4882:4891   */\n      dup14\n        /* \"#utility.yul\":4878:4900   */\n      add\n        /* \"#utility.yul\":4859:4910   */\n      tag_233\n      jump\t// in\n    tag_268:\n        /* \"#utility.yul\":4849:4910   */\n      swap8\n      pop\n        /* \"#utility.yul\":4804:4920   */\n      pop\n        /* \"#utility.yul\":4959:4961   */\n      0x60\n        /* \"#utility.yul\":4985:5052   */\n      tag_269\n        /* \"#utility.yul\":5044:5051   */\n      dup13\n        /* \"#utility.yul\":5035:5041   */\n      dup3\n        /* \"#utility.yul\":5024:5033   */\n      dup14\n        /* \"#utility.yul\":5020:5042   */\n      add\n        /* \"#utility.yul\":4985:5052   */\n      tag_215\n      jump\t// in\n    tag_269:\n        /* \"#utility.yul\":4975:5052   */\n      swap7\n      pop\n        /* \"#utility.yul\":4930:5062   */\n      pop\n        /* \"#utility.yul\":5129:5132   */\n      0x80\n        /* \"#utility.yul\":5118:5127   */\n      dup11\n        /* \"#utility.yul\":5114:5133   */\n      add\n        /* \"#utility.yul\":5101:5134   */\n      calldataload\n        /* \"#utility.yul\":5161:5179   */\n      0xffffffffffffffff\n        /* \"#utility.yul\":5153:5159   */\n      dup2\n        /* \"#utility.yul\":5150:5180   */\n      gt\n        /* \"#utility.yul\":5147:5264   */\n      iszero\n      tag_270\n      jumpi\n        /* \"#utility.yul\":5183:5262   */\n      tag_271\n      tag_257\n      jump\t// in\n    tag_271:\n        /* \"#utility.yul\":5147:5264   */\n    tag_270:\n        /* \"#utility.yul\":5288:5351   */\n      tag_272\n        /* \"#utility.yul\":5343:5350   */\n      dup13\n        /* \"#utility.yul\":5334:5340   */\n      dup3\n        /* \"#utility.yul\":5323:5332   */\n      dup14\n        /* \"#utility.yul\":5319:5341   */\n      add\n        /* \"#utility.yul\":5288:5351   */\n      tag_219\n      jump\t// in\n    tag_272:\n        /* \"#utility.yul\":5278:5351   */\n      swap6\n      pop\n        /* \"#utility.yul\":5072:5361   */\n      pop\n        /* \"#utility.yul\":5400:5403   */\n      0xa0\n        /* \"#utility.yul\":5427:5480   */\n      tag_273\n        /* \"#utility.yul\":5472:5479   */\n      dup13\n        /* \"#utility.yul\":5463:5469   */\n      dup3\n        /* \"#utility.yul\":5452:5461   */\n      dup14\n        /* \"#utility.yul\":5448:5470   */\n      add\n        /* \"#utility.yul\":5427:5480   */\n      tag_225\n      jump\t// in\n    tag_273:\n        /* \"#utility.yul\":5417:5480   */\n      swap5\n      pop\n        /* \"#utility.yul\":5371:5490   */\n      pop\n        /* \"#utility.yul\":5529:5532   */\n      0xc0\n        /* \"#utility.yul\":5556:5609   */\n      tag_274\n        /* \"#utility.yul\":5601:5608   */\n      dup13\n        /* \"#utility.yul\":5592:5598   */\n      dup3\n        /* \"#utility.yul\":5581:5590   */\n      dup14\n        /* \"#utility.yul\":5577:5599   */\n      add\n        /* \"#utility.yul\":5556:5609   */\n      tag_225\n      jump\t// in\n    tag_274:\n        /* \"#utility.yul\":5546:5609   */\n      swap4\n      pop\n        /* \"#utility.yul\":5500:5619   */\n      pop\n        /* \"#utility.yul\":5658:5661   */\n      0xe0\n        /* \"#utility.yul\":5685:5736   */\n      tag_275\n        /* \"#utility.yul\":5728:5735   */\n      dup13\n        /* \"#utility.yul\":5719:5725   */\n      dup3\n        /* \"#utility.yul\":5708:5717   */\n      dup14\n        /* \"#utility.yul\":5704:5726   */\n      add\n        /* \"#utility.yul\":5685:5736   */\n      tag_233\n      jump\t// in\n    tag_275:\n        /* \"#utility.yul\":5675:5736   */\n      swap3\n      pop\n        /* \"#utility.yul\":5629:5746   */\n      pop\n        /* \"#utility.yul\":5785:5788   */\n      0x0100\n        /* \"#utility.yul\":5812:5864   */\n      tag_276\n        /* \"#utility.yul\":5856:5863   */\n      dup13\n        /* \"#utility.yul\":5847:5853   */\n      dup3\n        /* \"#utility.yul\":5836:5845   */\n      dup14\n        /* \"#utility.yul\":5832:5854   */\n      add\n        /* \"#utility.yul\":5812:5864   */\n      tag_229\n      jump\t// in\n    tag_276:\n        /* \"#utility.yul\":5802:5864   */\n      swap2\n      pop\n        /* \"#utility.yul\":5756:5874   */\n      pop\n        /* \"#utility.yul\":4190:5881   */\n      swap3\n      swap6\n      swap9\n      pop\n      swap3\n      swap6\n      swap9\n      pop\n      swap3\n      swap6\n      swap9\n      jump\t// out\n        /* \"#utility.yul\":5887:6214   */\n    tag_65:\n        /* \"#utility.yul\":5945:5951   */\n      0x00\n        /* \"#utility.yul\":5994:5996   */\n      0x20\n        /* \"#utility.yul\":5982:5991   */\n      dup3\n        /* \"#utility.yul\":5973:5980   */\n      dup5\n        /* \"#utility.yul\":5969:5992   */\n      sub\n        /* \"#utility.yul\":5965:5997   */\n      slt\n        /* \"#utility.yul\":5962:6081   */\n      iszero\n      tag_278\n      jumpi\n        /* \"#utility.yul\":6000:6079   */\n      tag_279\n      tag_240\n      jump\t// in\n    tag_279:\n        /* \"#utility.yul\":5962:6081   */\n    tag_278:\n        /* \"#utility.yul\":6120:6121   */\n      0x00\n        /* \"#utility.yul\":6145:6197   */\n      tag_280\n        /* \"#utility.yul\":6189:6196   */\n      dup5\n        /* \"#utility.yul\":6180:6186   */\n      dup3\n        /* \"#utility.yul\":6169:6178   */\n      dup6\n        /* \"#utility.yul\":6165:6187   */\n      add\n        /* \"#utility.yul\":6145:6197   */\n      tag_229\n      jump\t// in\n    tag_280:\n        /* \"#utility.yul\":6135:6197   */\n      swap2\n      pop\n        /* \"#utility.yul\":6091:6207   */\n      pop\n        /* \"#utility.yul\":5887:6214   */\n      swap3\n      swap2\n      pop\n      pop\n      jump\t// out\n        /* \"#utility.yul\":6220:6328   */\n    tag_281:\n        /* \"#utility.yul\":6297:6321   */\n      tag_283\n        /* \"#utility.yul\":6315:6320   */\n      dup2\n        /* \"#utility.yul\":6297:6321   */\n      tag_284\n      jump\t// in\n    tag_283:\n        /* \"#utility.yul\":6292:6295   */\n      dup3\n        /* \"#utility.yul\":6285:6322   */\n      mstore\n        /* \"#utility.yul\":6220:6328   */\n      pop\n      pop\n      jump\t// out\n        /* \"#utility.yul\":6334:6452   */\n    tag_285:\n        /* \"#utility.yul\":6421:6445   */\n      tag_287\n        /* \"#utility.yul\":6439:6444   */\n      dup2\n        /* \"#utility.yul\":6421:6445   */\n      tag_284\n      jump\t// in\n    tag_287:\n        /* \"#utility.yul\":6416:6419   */\n      dup3\n        /* \"#utility.yul\":6409:6446   */\n      mstore\n        /* \"#utility.yul\":6334:6452   */\n      pop\n      pop\n      jump\t// out\n        /* \"#utility.yul\":6458:6567   */\n    tag_288:\n        /* \"#utility.yul\":6539:6560   */\n      tag_290\n        /* \"#utility.yul\":6554:6559   */\n      dup2\n        /* \"#utility.yul\":6539:6560   */\n      tag_291\n      jump\t// in\n    tag_290:\n        /* \"#utility.yul\":6534:6537   */\n      dup3\n        /* \"#utility.yul\":6527:6561   */\n      mstore\n        /* \"#utility.yul\":6458:6567   */\n      pop\n      pop\n      jump\t// out\n        /* \"#utility.yul\":6573:6728   */\n    tag_292:\n        /* \"#utility.yul\":6672:6721   */\n      tag_294\n        /* \"#utility.yul\":6715:6720   */\n      dup2\n        /* \"#utility.yul\":6672:6721   */\n      tag_295\n      jump\t// in\n    tag_294:\n        /* \"#utility.yul\":6667:6670   */\n      dup3\n        /* \"#utility.yul\":6660:6722   */\n      mstore\n        /* \"#utility.yul\":6573:6728   */\n      pop\n      pop\n      jump\t// out\n        /* \"#utility.yul\":6734:6875   */\n    tag_296:\n        /* \"#utility.yul\":6821:6868   */\n      tag_298\n        /* \"#utility.yul\":6862:6867   */\n      dup2\n        /* \"#utility.yul\":6821:6868   */\n      tag_299\n      jump\t// in\n    tag_298:\n        /* \"#utility.yul\":6816:6819   */\n      dup3\n        /* \"#utility.yul\":6809:6869   */\n      mstore\n        /* \"#utility.yul\":6734:6875   */\n      pop\n      pop\n      jump\t// out\n        /* \"#utility.yul\":6881:7024   */\n    tag_300:\n        /* \"#utility.yul\":6974:7017   */\n      tag_302\n        /* \"#utility.yul\":7011:7016   */\n      dup2\n        /* \"#utility.yul\":6974:7017   */\n      tag_303\n      jump\t// in\n    tag_302:\n        /* \"#utility.yul\":6969:6972   */\n      dup3\n        /* \"#utility.yul\":6962:7018   */\n      mstore\n        /* \"#utility.yul\":6881:7024   */\n      pop\n      pop\n      jump\t// out\n        /* \"#utility.yul\":7030:7394   */\n    tag_304:\n        /* \"#utility.yul\":7118:7121   */\n      0x00\n        /* \"#utility.yul\":7146:7185   */\n      tag_306\n        /* \"#utility.yul\":7179:7184   */\n      dup3\n        /* \"#utility.yul\":7146:7185   */\n      tag_307\n      jump\t// in\n    tag_306:\n        /* \"#utility.yul\":7201:7272   */\n      tag_308\n        /* \"#utility.yul\":7265:7271   */\n      dup2\n        /* \"#utility.yul\":7260:7263   */\n      dup6\n        /* \"#utility.yul\":7201:7272   */\n      tag_309\n      jump\t// in\n    tag_308:\n        /* \"#utility.yul\":7194:7272   */\n      swap4\n      pop\n        /* \"#utility.yul\":7281:7333   */\n      tag_310\n        /* \"#utility.yul\":7326:7332   */\n      dup2\n        /* \"#utility.yul\":7321:7324   */\n      dup6\n        /* \"#utility.yul\":7314:7318   */\n      0x20\n        /* \"#utility.yul\":7307:7312   */\n      dup7\n        /* \"#utility.yul\":7303:7319   */\n      add\n        /* \"#utility.yul\":7281:7333   */\n      tag_311\n      jump\t// in\n    tag_310:\n        /* \"#utility.yul\":7358:7387   */\n      tag_312\n        /* \"#utility.yul\":7380:7386   */\n      dup2\n        /* \"#utility.yul\":7358:7387   */\n      tag_313\n      jump\t// in\n    tag_312:\n        /* \"#utility.yul\":7353:7356   */\n      dup5\n        /* \"#utility.yul\":7349:7388   */\n      add\n        /* \"#utility.yul\":7342:7388   */\n      swap2\n      pop\n        /* \"#utility.yul\":7122:7394   */\n      pop\n        /* \"#utility.yul\":7030:7394   */\n      swap3\n      swap2\n      pop\n      pop\n      jump\t// out\n        /* \"#utility.yul\":7400:7766   */\n    tag_314:\n        /* \"#utility.yul\":7542:7545   */\n      0x00\n        /* \"#utility.yul\":7563:7630   */\n      tag_316\n        /* \"#utility.yul\":7627:7629   */\n      0x20\n        /* \"#utility.yul\":7622:7625   */\n      dup4\n        /* \"#utility.yul\":7563:7630   */\n      tag_309\n      jump\t// in\n    tag_316:\n        /* \"#utility.yul\":7556:7630   */\n      swap2\n      pop\n        /* \"#utility.yul\":7639:7732   */\n      tag_317\n        /* \"#utility.yul\":7728:7731   */\n      dup3\n        /* \"#utility.yul\":7639:7732   */\n      tag_318\n      jump\t// in\n    tag_317:\n        /* \"#utility.yul\":7757:7759   */\n      0x20\n        /* \"#utility.yul\":7752:7755   */\n      dup3\n        /* \"#utility.yul\":7748:7760   */\n      add\n        /* \"#utility.yul\":7741:7760   */\n      swap1\n      pop\n        /* \"#utility.yul\":7400:7766   */\n      swap2\n      swap1\n      pop\n      jump\t// out\n        /* \"#utility.yul\":7772:8138   */\n    tag_319:\n        /* \"#utility.yul\":7914:7917   */\n      0x00\n        /* \"#utility.yul\":7935:8002   */\n      tag_321\n        /* \"#utility.yul\":7999:8001   */\n      0x12\n        /* \"#utility.yul\":7994:7997   */\n      dup4\n        /* \"#utility.yul\":7935:8002   */\n      tag_309\n      jump\t// in\n    tag_321:\n        /* \"#utility.yul\":7928:8002   */\n      swap2\n      pop\n        /* \"#utility.yul\":8011:8104   */\n      tag_322\n        /* \"#utility.yul\":8100:8103   */\n      dup3\n        /* \"#utility.yul\":8011:8104   */\n      tag_323\n      jump\t// in\n    tag_322:\n        /* \"#utility.yul\":8129:8131   */\n      0x20\n        /* \"#utility.yul\":8124:8127   */\n      dup3\n        /* \"#utility.yul\":8120:8132   */\n      add\n        /* \"#utility.yul\":8113:8132   */\n      swap1\n      pop\n        /* \"#utility.yul\":7772:8138   */\n      swap2\n      swap1\n      pop\n      jump\t// out\n        /* \"#utility.yul\":8144:8510   */\n    tag_324:\n        /* \"#utility.yul\":8286:8289   */\n      0x00\n        /* \"#utility.yul\":8307:8374   */\n      tag_326\n        /* \"#utility.yul\":8371:8373   */\n      0x20\n        /* \"#utility.yul\":8366:8369   */\n      dup4\n        /* \"#utility.yul\":8307:8374   */\n      tag_309\n      jump\t// in\n    tag_326:\n        /* \"#utility.yul\":8300:8374   */\n      swap2\n      pop\n        /* \"#utility.yul\":8383:8476   */\n      tag_327\n        /* \"#utility.yul\":8472:8475   */\n      dup3\n        /* \"#utility.yul\":8383:8476   */\n      tag_328\n      jump\t// in\n    tag_327:\n        /* \"#utility.yul\":8501:8503   */\n      0x20\n        /* \"#utility.yul\":8496:8499   */\n      dup3\n        /* \"#utility.yul\":8492:8504   */\n      add\n        /* \"#utility.yul\":8485:8504   */\n      swap1\n      pop\n        /* \"#utility.yul\":8144:8510   */\n      swap2\n      swap1\n      pop\n      jump\t// out\n        /* \"#utility.yul\":8576:9260   */\n    tag_329:\n        /* \"#utility.yul\":8713:8717   */\n      0x60\n        /* \"#utility.yul\":8708:8711   */\n      dup3\n        /* \"#utility.yul\":8704:8718   */\n      add\n        /* \"#utility.yul\":8801:8805   */\n      0x00\n        /* \"#utility.yul\":8794:8799   */\n      dup3\n        /* \"#utility.yul\":8790:8806   */\n      add\n        /* \"#utility.yul\":8784:8807   */\n      mload\n        /* \"#utility.yul\":8820:8883   */\n      tag_331\n        /* \"#utility.yul\":8877:8881   */\n      0x00\n        /* \"#utility.yul\":8872:8875   */\n      dup6\n        /* \"#utility.yul\":8868:8882   */\n      add\n        /* \"#utility.yul\":8854:8866   */\n      dup3\n        /* \"#utility.yul\":8820:8883   */\n      tag_332\n      jump\t// in\n    tag_331:\n        /* \"#utility.yul\":8728:8893   */\n      pop\n        /* \"#utility.yul\":8976:8980   */\n      0x20\n        /* \"#utility.yul\":8969:8974   */\n      dup3\n        /* \"#utility.yul\":8965:8981   */\n      add\n        /* \"#utility.yul\":8959:8982   */\n      mload\n        /* \"#utility.yul\":8995:9058   */\n      tag_333\n        /* \"#utility.yul\":9052:9056   */\n      0x20\n        /* \"#utility.yul\":9047:9050   */\n      dup6\n        /* \"#utility.yul\":9043:9057   */\n      add\n        /* \"#utility.yul\":9029:9041   */\n      dup3\n        /* \"#utility.yul\":8995:9058   */\n      tag_281\n      jump\t// in\n    tag_333:\n        /* \"#utility.yul\":8903:9068   */\n      pop\n        /* \"#utility.yul\":9151:9155   */\n      0x40\n        /* \"#utility.yul\":9144:9149   */\n      dup3\n        /* \"#utility.yul\":9140:9156   */\n      add\n        /* \"#utility.yul\":9134:9157   */\n      mload\n        /* \"#utility.yul\":9170:9243   */\n      tag_334\n        /* \"#utility.yul\":9237:9241   */\n      0x40\n        /* \"#utility.yul\":9232:9235   */\n      dup6\n        /* \"#utility.yul\":9228:9242   */\n      add\n        /* \"#utility.yul\":9214:9226   */\n      dup3\n        /* \"#utility.yul\":9170:9243   */\n      tag_296\n      jump\t// in\n    tag_334:\n        /* \"#utility.yul\":9078:9253   */\n      pop\n        /* \"#utility.yul\":8682:9260   */\n      pop\n        /* \"#utility.yul\":8576:9260   */\n      pop\n      pop\n      jump\t// out\n        /* \"#utility.yul\":9266:9381   */\n    tag_335:\n        /* \"#utility.yul\":9351:9374   */\n      tag_337\n        /* \"#utility.yul\":9368:9373   */\n      dup2\n        /* \"#utility.yul\":9351:9374   */\n      tag_338\n      jump\t// in\n    tag_337:\n        /* \"#utility.yul\":9346:9349   */\n      dup3\n        /* \"#utility.yul\":9339:9375   */\n      mstore\n        /* \"#utility.yul\":9266:9381   */\n      pop\n      pop\n      jump\t// out\n        /* \"#utility.yul\":9387:9495   */\n    tag_332:\n        /* \"#utility.yul\":9464:9488   */\n      tag_340\n        /* \"#utility.yul\":9482:9487   */\n      dup2\n        /* \"#utility.yul\":9464:9488   */\n      tag_341\n      jump\t// in\n    tag_340:\n        /* \"#utility.yul\":9459:9462   */\n      dup3\n        /* \"#utility.yul\":9452:9489   */\n      mstore\n        /* \"#utility.yul\":9387:9495   */\n      pop\n      pop\n      jump\t// out\n        /* \"#utility.yul\":9501:9619   */\n    tag_342:\n        /* \"#utility.yul\":9588:9612   */\n      tag_344\n        /* \"#utility.yul\":9606:9611   */\n      dup2\n        /* \"#utility.yul\":9588:9612   */\n      tag_341\n      jump\t// in\n    tag_344:\n        /* \"#utility.yul\":9583:9586   */\n      dup3\n        /* \"#utility.yul\":9576:9613   */\n      mstore\n        /* \"#utility.yul\":9501:9619   */\n      pop\n      pop\n      jump\t// out\n        /* \"#utility.yul\":9625:9754   */\n    tag_345:\n        /* \"#utility.yul\":9711:9747   */\n      tag_347\n        /* \"#utility.yul\":9741:9746   */\n      dup2\n        /* \"#utility.yul\":9711:9747   */\n      tag_348\n      jump\t// in\n    tag_347:\n        /* \"#utility.yul\":9706:9709   */\n      dup3\n        /* \"#utility.yul\":9699:9748   */\n      mstore\n        /* \"#utility.yul\":9625:9754   */\n      pop\n      pop\n      jump\t// out\n        /* \"#utility.yul\":9760:9875   */\n    tag_349:\n        /* \"#utility.yul\":9845:9868   */\n      tag_351\n        /* \"#utility.yul\":9862:9867   */\n      dup2\n        /* \"#utility.yul\":9845:9868   */\n      tag_352\n      jump\t// in\n    tag_351:\n        /* \"#utility.yul\":9840:9843   */\n      dup3\n        /* \"#utility.yul\":9833:9869   */\n      mstore\n        /* \"#utility.yul\":9760:9875   */\n      pop\n      pop\n      jump\t// out\n        /* \"#utility.yul\":9881:10008   */\n    tag_353:\n        /* \"#utility.yul\":9966:10001   */\n      tag_355\n        /* \"#utility.yul\":9995:10000   */\n      dup2\n        /* \"#utility.yul\":9966:10001   */\n      tag_356\n      jump\t// in\n    tag_355:\n        /* \"#utility.yul\":9961:9964   */\n      dup3\n        /* \"#utility.yul\":9954:10002   */\n      mstore\n        /* \"#utility.yul\":9881:10008   */\n      pop\n      pop\n      jump\t// out\n        /* \"#utility.yul\":10014:10126   */\n    tag_357:\n        /* \"#utility.yul\":10097:10119   */\n      tag_359\n        /* \"#utility.yul\":10113:10118   */\n      dup2\n        /* \"#utility.yul\":10097:10119   */\n      tag_360\n      jump\t// in\n    tag_359:\n        /* \"#utility.yul\":10092:10095   */\n      dup3\n        /* \"#utility.yul\":10085:10120   */\n      mstore\n        /* \"#utility.yul\":10014:10126   */\n      pop\n      pop\n      jump\t// out\n        /* \"#utility.yul\":10132:10671   */\n    tag_103:\n        /* \"#utility.yul\":10302:10306   */\n      0x00\n        /* \"#utility.yul\":10340:10343   */\n      0x80\n        /* \"#utility.yul\":10329:10338   */\n      dup3\n        /* \"#utility.yul\":10325:10344   */\n      add\n        /* \"#utility.yul\":10317:10344   */\n      swap1\n      pop\n        /* \"#utility.yul\":10354:10425   */\n      tag_362\n        /* \"#utility.yul\":10422:10423   */\n      0x00\n        /* \"#utility.yul\":10411:10420   */\n      dup4\n        /* \"#utility.yul\":10407:10424   */\n      add\n        /* \"#utility.yul\":10398:10404   */\n      dup8\n        /* \"#utility.yul\":10354:10425   */\n      tag_285\n      jump\t// in\n    tag_362:\n        /* \"#utility.yul\":10435:10503   */\n      tag_363\n        /* \"#utility.yul\":10499:10501   */\n      0x20\n        /* \"#utility.yul\":10488:10497   */\n      dup4\n        /* \"#utility.yul\":10484:10502   */\n      add\n        /* \"#utility.yul\":10475:10481   */\n      dup7\n        /* \"#utility.yul\":10435:10503   */\n      tag_357\n      jump\t// in\n    tag_363:\n        /* \"#utility.yul\":10513:10584   */\n      tag_364\n        /* \"#utility.yul\":10580:10582   */\n      0x40\n        /* \"#utility.yul\":10569:10578   */\n      dup4\n        /* \"#utility.yul\":10565:10583   */\n      add\n        /* \"#utility.yul\":10556:10562   */\n      dup6\n        /* \"#utility.yul\":10513:10584   */\n      tag_345\n      jump\t// in\n    tag_364:\n        /* \"#utility.yul\":10594:10664   */\n      tag_365\n        /* \"#utility.yul\":10660:10662   */\n      0x60\n        /* \"#utility.yul\":10649:10658   */\n      dup4\n        /* \"#utility.yul\":10645:10663   */\n      add\n        /* \"#utility.yul\":10636:10642   */\n      dup5\n        /* \"#utility.yul\":10594:10664   */\n      tag_353\n      jump\t// in\n    tag_365:\n        /* \"#utility.yul\":10132:10671   */\n      swap6\n      swap5\n      pop\n      pop\n      pop\n      pop\n      pop\n      jump\t// out\n        /* \"#utility.yul\":10677:10887   */\n    tag_84:\n        /* \"#utility.yul\":10764:10768   */\n      0x00\n        /* \"#utility.yul\":10802:10804   */\n      0x20\n        /* \"#utility.yul\":10791:10800   */\n      dup3\n        /* \"#utility.yul\":10787:10805   */\n      add\n        /* \"#utility.yul\":10779:10805   */\n      swap1\n      pop\n        /* \"#utility.yul\":10815:10880   */\n      tag_367\n        /* \"#utility.yul\":10877:10878   */\n      0x00\n        /* \"#utility.yul\":10866:10875   */\n      dup4\n        /* \"#utility.yul\":10862:10879   */\n      add\n        /* \"#utility.yul\":10853:10859   */\n      dup5\n        /* \"#utility.yul\":10815:10880   */\n      tag_288\n      jump\t// in\n    tag_367:\n        /* \"#utility.yul\":10677:10887   */\n      swap3\n      swap2\n      pop\n      pop\n      jump\t// out\n        /* \"#utility.yul\":10893:11846   */\n    tag_79:\n        /* \"#utility.yul\":11164:11168   */\n      0x00\n        /* \"#utility.yul\":11202:11205   */\n      0xc0\n        /* \"#utility.yul\":11191:11200   */\n      dup3\n        /* \"#utility.yul\":11187:11206   */\n      add\n        /* \"#utility.yul\":11179:11206   */\n      swap1\n      pop\n        /* \"#utility.yul\":11216:11281   */\n      tag_369\n        /* \"#utility.yul\":11278:11279   */\n      0x00\n        /* \"#utility.yul\":11267:11276   */\n      dup4\n        /* \"#utility.yul\":11263:11280   */\n      add\n        /* \"#utility.yul\":11254:11260   */\n      dup10\n        /* \"#utility.yul\":11216:11281   */\n      tag_288\n      jump\t// in\n    tag_369:\n        /* \"#utility.yul\":11291:11363   */\n      tag_370\n        /* \"#utility.yul\":11359:11361   */\n      0x20\n        /* \"#utility.yul\":11348:11357   */\n      dup4\n        /* \"#utility.yul\":11344:11362   */\n      add\n        /* \"#utility.yul\":11335:11341   */\n      dup9\n        /* \"#utility.yul\":11291:11363   */\n      tag_285\n      jump\t// in\n    tag_370:\n        /* \"#utility.yul\":11373:11443   */\n      tag_371\n        /* \"#utility.yul\":11439:11441   */\n      0x40\n        /* \"#utility.yul\":11428:11437   */\n      dup4\n        /* \"#utility.yul\":11424:11442   */\n      add\n        /* \"#utility.yul\":11415:11421   */\n      dup8\n        /* \"#utility.yul\":11373:11443   */\n      tag_335\n      jump\t// in\n    tag_371:\n        /* \"#utility.yul\":11453:11531   */\n      tag_372\n        /* \"#utility.yul\":11527:11529   */\n      0x60\n        /* \"#utility.yul\":11516:11525   */\n      dup4\n        /* \"#utility.yul\":11512:11530   */\n      add\n        /* \"#utility.yul\":11503:11509   */\n      dup7\n        /* \"#utility.yul\":11453:11531   */\n      tag_300\n      jump\t// in\n    tag_372:\n        /* \"#utility.yul\":11579:11588   */\n      dup2\n        /* \"#utility.yul\":11573:11577   */\n      dup2\n        /* \"#utility.yul\":11569:11589   */\n      sub\n        /* \"#utility.yul\":11563:11566   */\n      0x80\n        /* \"#utility.yul\":11552:11561   */\n      dup4\n        /* \"#utility.yul\":11548:11567   */\n      add\n        /* \"#utility.yul\":11541:11590   */\n      mstore\n        /* \"#utility.yul\":11607:11685   */\n      tag_373\n        /* \"#utility.yul\":11680:11684   */\n      dup2\n        /* \"#utility.yul\":11671:11677   */\n      dup6\n        /* \"#utility.yul\":11607:11685   */\n      tag_304\n      jump\t// in\n    tag_373:\n        /* \"#utility.yul\":11599:11685   */\n      swap1\n      pop\n        /* \"#utility.yul\":11733:11742   */\n      dup2\n        /* \"#utility.yul\":11727:11731   */\n      dup2\n        /* \"#utility.yul\":11723:11743   */\n      sub\n        /* \"#utility.yul\":11717:11720   */\n      0xa0\n        /* \"#utility.yul\":11706:11715   */\n      dup4\n        /* \"#utility.yul\":11702:11721   */\n      add\n        /* \"#utility.yul\":11695:11744   */\n      mstore\n        /* \"#utility.yul\":11761:11839   */\n      tag_374\n        /* \"#utility.yul\":11834:11838   */\n      dup2\n        /* \"#utility.yul\":11825:11831   */\n      dup5\n        /* \"#utility.yul\":11761:11839   */\n      tag_304\n      jump\t// in\n    tag_374:\n        /* \"#utility.yul\":11753:11839   */\n      swap1\n      pop\n        /* \"#utility.yul\":10893:11846   */\n      swap8\n      swap7\n      pop\n      pop\n      pop\n      pop\n      pop\n      pop\n      pop\n      jump\t// out\n        /* \"#utility.yul\":11852:12365   */\n    tag_35:\n        /* \"#utility.yul\":12011:12015   */\n      0x00\n        /* \"#utility.yul\":12049:12051   */\n      0x60\n        /* \"#utility.yul\":12038:12047   */\n      dup3\n        /* \"#utility.yul\":12034:12052   */\n      add\n        /* \"#utility.yul\":12026:12052   */\n      swap1\n      pop\n        /* \"#utility.yul\":12062:12127   */\n      tag_376\n        /* \"#utility.yul\":12124:12125   */\n      0x00\n        /* \"#utility.yul\":12113:12122   */\n      dup4\n        /* \"#utility.yul\":12109:12126   */\n      add\n        /* \"#utility.yul\":12100:12106   */\n      dup7\n        /* \"#utility.yul\":12062:12127   */\n      tag_288\n      jump\t// in\n    tag_376:\n        /* \"#utility.yul\":12174:12183   */\n      dup2\n        /* \"#utility.yul\":12168:12172   */\n      dup2\n        /* \"#utility.yul\":12164:12184   */\n      sub\n        /* \"#utility.yul\":12159:12161   */\n      0x20\n        /* \"#utility.yul\":12148:12157   */\n      dup4\n        /* \"#utility.yul\":12144:12162   */\n      add\n        /* \"#utility.yul\":12137:12185   */\n      mstore\n        /* \"#utility.yul\":12202:12280   */\n      tag_377\n        /* \"#utility.yul\":12275:12279   */\n      dup2\n        /* \"#utility.yul\":12266:12272   */\n      dup6\n        /* \"#utility.yul\":12202:12280   */\n      tag_304\n      jump\t// in\n    tag_377:\n        /* \"#utility.yul\":12194:12280   */\n      swap1\n      pop\n        /* \"#utility.yul\":12290:12358   */\n      tag_378\n        /* \"#utility.yul\":12354:12356   */\n      0x40\n        /* \"#utility.yul\":12343:12352   */\n      dup4\n        /* \"#utility.yul\":12339:12357   */\n      add\n        /* \"#utility.yul\":12330:12336   */\n      dup5\n        /* \"#utility.yul\":12290:12358   */\n      tag_357\n      jump\t// in\n    tag_378:\n        /* \"#utility.yul\":11852:12365   */\n      swap5\n      swap4\n      pop\n      pop\n      pop\n      pop\n      jump\t// out\n        /* \"#utility.yul\":12371:12995   */\n    tag_48:\n        /* \"#utility.yul\":12558:12562   */\n      0x00\n        /* \"#utility.yul\":12596:12599   */\n      0x80\n        /* \"#utility.yul\":12585:12594   */\n      dup3\n        /* \"#utility.yul\":12581:12600   */\n      add\n        /* \"#utility.yul\":12573:12600   */\n      swap1\n      pop\n        /* \"#utility.yul\":12610:12675   */\n      tag_380\n        /* \"#utility.yul\":12672:12673   */\n      0x00\n        /* \"#utility.yul\":12661:12670   */\n      dup4\n        /* \"#utility.yul\":12657:12674   */\n      add\n        /* \"#utility.yul\":12648:12654   */\n      dup8\n        /* \"#utility.yul\":12610:12675   */\n      tag_288\n      jump\t// in\n    tag_380:\n        /* \"#utility.yul\":12685:12753   */\n      tag_381\n        /* \"#utility.yul\":12749:12751   */\n      0x20\n        /* \"#utility.yul\":12738:12747   */\n      dup4\n        /* \"#utility.yul\":12734:12752   */\n      add\n        /* \"#utility.yul\":12725:12731   */\n      dup7\n        /* \"#utility.yul\":12685:12753   */\n      tag_357\n      jump\t// in\n    tag_381:\n        /* \"#utility.yul\":12763:12835   */\n      tag_382\n        /* \"#utility.yul\":12831:12833   */\n      0x40\n        /* \"#utility.yul\":12820:12829   */\n      dup4\n        /* \"#utility.yul\":12816:12834   */\n      add\n        /* \"#utility.yul\":12807:12813   */\n      dup6\n        /* \"#utility.yul\":12763:12835   */\n      tag_342\n      jump\t// in\n    tag_382:\n        /* \"#utility.yul\":12882:12891   */\n      dup2\n        /* \"#utility.yul\":12876:12880   */\n      dup2\n        /* \"#utility.yul\":12872:12892   */\n      sub\n        /* \"#utility.yul\":12867:12869   */\n      0x60\n        /* \"#utility.yul\":12856:12865   */\n      dup4\n        /* \"#utility.yul\":12852:12870   */\n      add\n        /* \"#utility.yul\":12845:12893   */\n      mstore\n        /* \"#utility.yul\":12910:12988   */\n      tag_383\n        /* \"#utility.yul\":12983:12987   */\n      dup2\n        /* \"#utility.yul\":12974:12980   */\n      dup5\n        /* \"#utility.yul\":12910:12988   */\n      tag_304\n      jump\t// in\n    tag_383:\n        /* \"#utility.yul\":12902:12988   */\n      swap1\n      pop\n        /* \"#utility.yul\":12371:12995   */\n      swap6\n      swap5\n      pop\n      pop\n      pop\n      pop\n      pop\n      jump\t// out\n        /* \"#utility.yul\":13001:13420   */\n    tag_88:\n        /* \"#utility.yul\":13167:13171   */\n      0x00\n        /* \"#utility.yul\":13205:13207   */\n      0x20\n        /* \"#utility.yul\":13194:13203   */\n      dup3\n        /* \"#utility.yul\":13190:13208   */\n      add\n        /* \"#utility.yul\":13182:13208   */\n      swap1\n      pop\n        /* \"#utility.yul\":13254:13263   */\n      dup2\n        /* \"#utility.yul\":13248:13252   */\n      dup2\n        /* \"#utility.yul\":13244:13264   */\n      sub\n        /* \"#utility.yul\":13240:13241   */\n      0x00\n        /* \"#utility.yul\":13229:13238   */\n      dup4\n        /* \"#utility.yul\":13225:13242   */\n      add\n        /* \"#utility.yul\":13218:13265   */\n      mstore\n        /* \"#utility.yul\":13282:13413   */\n      tag_385\n        /* \"#utility.yul\":13408:13412   */\n      dup2\n        /* \"#utility.yul\":13282:13413   */\n      tag_314\n      jump\t// in\n    tag_385:\n        /* \"#utility.yul\":13274:13413   */\n      swap1\n      pop\n        /* \"#utility.yul\":13001:13420   */\n      swap2\n      swap1\n      pop\n      jump\t// out\n        /* \"#utility.yul\":13426:13845   */\n    tag_92:\n        /* \"#utility.yul\":13592:13596   */\n      0x00\n        /* \"#utility.yul\":13630:13632   */\n      0x20\n        /* \"#utility.yul\":13619:13628   */\n      dup3\n        /* \"#utility.yul\":13615:13633   */\n      add\n        /* \"#utility.yul\":13607:13633   */\n      swap1\n      pop\n        /* \"#utility.yul\":13679:13688   */\n      dup2\n        /* \"#utility.yul\":13673:13677   */\n      dup2\n        /* \"#utility.yul\":13669:13689   */\n      sub\n        /* \"#utility.yul\":13665:13666   */\n      0x00\n        /* \"#utility.yul\":13654:13663   */\n      dup4\n        /* \"#utility.yul\":13650:13667   */\n      add\n        /* \"#utility.yul\":13643:13690   */\n      mstore\n        /* \"#utility.yul\":13707:13838   */\n      tag_387\n        /* \"#utility.yul\":13833:13837   */\n      dup2\n        /* \"#utility.yul\":13707:13838   */\n      tag_319\n      jump\t// in\n    tag_387:\n        /* \"#utility.yul\":13699:13838   */\n      swap1\n      pop\n        /* \"#utility.yul\":13426:13845   */\n      swap2\n      swap1\n      pop\n      jump\t// out\n        /* \"#utility.yul\":13851:14270   */\n    tag_139:\n        /* \"#utility.yul\":14017:14021   */\n      0x00\n        /* \"#utility.yul\":14055:14057   */\n      0x20\n        /* \"#utility.yul\":14044:14053   */\n      dup3\n        /* \"#utility.yul\":14040:14058   */\n      add\n        /* \"#utility.yul\":14032:14058   */\n      swap1\n      pop\n        /* \"#utility.yul\":14104:14113   */\n      dup2\n        /* \"#utility.yul\":14098:14102   */\n      dup2\n        /* \"#utility.yul\":14094:14114   */\n      sub\n        /* \"#utility.yul\":14090:14091   */\n      0x00\n        /* \"#utility.yul\":14079:14088   */\n      dup4\n        /* \"#utility.yul\":14075:14092   */\n      add\n        /* \"#utility.yul\":14068:14115   */\n      mstore\n        /* \"#utility.yul\":14132:14263   */\n      tag_389\n        /* \"#utility.yul\":14258:14262   */\n      dup2\n        /* \"#utility.yul\":14132:14263   */\n      tag_324\n      jump\t// in\n    tag_389:\n        /* \"#utility.yul\":14124:14263   */\n      swap1\n      pop\n        /* \"#utility.yul\":13851:14270   */\n      swap2\n      swap1\n      pop\n      jump\t// out\n        /* \"#utility.yul\":14276:14498   */\n    tag_54:\n        /* \"#utility.yul\":14369:14373   */\n      0x00\n        /* \"#utility.yul\":14407:14409   */\n      0x20\n        /* \"#utility.yul\":14396:14405   */\n      dup3\n        /* \"#utility.yul\":14392:14410   */\n      add\n        /* \"#utility.yul\":14384:14410   */\n      swap1\n      pop\n        /* \"#utility.yul\":14420:14491   */\n      tag_391\n        /* \"#utility.yul\":14488:14489   */\n      0x00\n        /* \"#utility.yul\":14477:14486   */\n      dup4\n        /* \"#utility.yul\":14473:14490   */\n      add\n        /* \"#utility.yul\":14464:14470   */\n      dup5\n        /* \"#utility.yul\":14420:14491   */\n      tag_342\n      jump\t// in\n    tag_391:\n        /* \"#utility.yul\":14276:14498   */\n      swap3\n      swap2\n      pop\n      pop\n      jump\t// out\n        /* \"#utility.yul\":14504:16007   */\n    tag_29:\n        /* \"#utility.yul\":14938:14942   */\n      0x00\n        /* \"#utility.yul\":14976:14979   */\n      0x01a0\n        /* \"#utility.yul\":14965:14974   */\n      dup3\n        /* \"#utility.yul\":14961:14980   */\n      add\n        /* \"#utility.yul\":14953:14980   */\n      swap1\n      pop\n        /* \"#utility.yul\":14990:15061   */\n      tag_393\n        /* \"#utility.yul\":15058:15059   */\n      0x00\n        /* \"#utility.yul\":15047:15056   */\n      dup4\n        /* \"#utility.yul\":15043:15060   */\n      add\n        /* \"#utility.yul\":15034:15040   */\n      dup15\n        /* \"#utility.yul\":14990:15061   */\n      tag_342\n      jump\t// in\n    tag_393:\n        /* \"#utility.yul\":15071:15143   */\n      tag_394\n        /* \"#utility.yul\":15139:15141   */\n      0x20\n        /* \"#utility.yul\":15128:15137   */\n      dup4\n        /* \"#utility.yul\":15124:15142   */\n      add\n        /* \"#utility.yul\":15115:15121   */\n      dup14\n        /* \"#utility.yul\":15071:15143   */\n      tag_285\n      jump\t// in\n    tag_394:\n        /* \"#utility.yul\":15153:15223   */\n      tag_395\n        /* \"#utility.yul\":15219:15221   */\n      0x40\n        /* \"#utility.yul\":15208:15217   */\n      dup4\n        /* \"#utility.yul\":15204:15222   */\n      add\n        /* \"#utility.yul\":15195:15201   */\n      dup13\n        /* \"#utility.yul\":15153:15223   */\n      tag_349\n      jump\t// in\n    tag_395:\n        /* \"#utility.yul\":15233:15301   */\n      tag_396\n        /* \"#utility.yul\":15297:15299   */\n      0x60\n        /* \"#utility.yul\":15286:15295   */\n      dup4\n        /* \"#utility.yul\":15282:15300   */\n      add\n        /* \"#utility.yul\":15273:15279   */\n      dup12\n        /* \"#utility.yul\":15233:15301   */\n      tag_357\n      jump\t// in\n    tag_396:\n        /* \"#utility.yul\":15311:15396   */\n      tag_397\n        /* \"#utility.yul\":15391:15394   */\n      0x80\n        /* \"#utility.yul\":15380:15389   */\n      dup4\n        /* \"#utility.yul\":15376:15395   */\n      add\n        /* \"#utility.yul\":15367:15373   */\n      dup11\n        /* \"#utility.yul\":15311:15396   */\n      tag_292\n      jump\t// in\n    tag_397:\n        /* \"#utility.yul\":15444:15453   */\n      dup2\n        /* \"#utility.yul\":15438:15442   */\n      dup2\n        /* \"#utility.yul\":15434:15454   */\n      sub\n        /* \"#utility.yul\":15428:15431   */\n      0xa0\n        /* \"#utility.yul\":15417:15426   */\n      dup4\n        /* \"#utility.yul\":15413:15432   */\n      add\n        /* \"#utility.yul\":15406:15455   */\n      mstore\n        /* \"#utility.yul\":15472:15550   */\n      tag_398\n        /* \"#utility.yul\":15545:15549   */\n      dup2\n        /* \"#utility.yul\":15536:15542   */\n      dup10\n        /* \"#utility.yul\":15472:15550   */\n      tag_304\n      jump\t// in\n    tag_398:\n        /* \"#utility.yul\":15464:15550   */\n      swap1\n      pop\n        /* \"#utility.yul\":15560:15633   */\n      tag_399\n        /* \"#utility.yul\":15628:15631   */\n      0xc0\n        /* \"#utility.yul\":15617:15626   */\n      dup4\n        /* \"#utility.yul\":15613:15632   */\n      add\n        /* \"#utility.yul\":15604:15610   */\n      dup9\n        /* \"#utility.yul\":15560:15633   */\n      tag_342\n      jump\t// in\n    tag_399:\n        /* \"#utility.yul\":15643:15716   */\n      tag_400\n        /* \"#utility.yul\":15711:15714   */\n      0xe0\n        /* \"#utility.yul\":15700:15709   */\n      dup4\n        /* \"#utility.yul\":15696:15715   */\n      add\n        /* \"#utility.yul\":15687:15693   */\n      dup8\n        /* \"#utility.yul\":15643:15716   */\n      tag_342\n      jump\t// in\n    tag_400:\n        /* \"#utility.yul\":15726:15795   */\n      tag_401\n        /* \"#utility.yul\":15790:15793   */\n      0x0100\n        /* \"#utility.yul\":15779:15788   */\n      dup4\n        /* \"#utility.yul\":15775:15794   */\n      add\n        /* \"#utility.yul\":15766:15772   */\n      dup7\n        /* \"#utility.yul\":15726:15795   */\n      tag_357\n      jump\t// in\n    tag_401:\n        /* \"#utility.yul\":15805:15876   */\n      tag_402\n        /* \"#utility.yul\":15871:15874   */\n      0x0120\n        /* \"#utility.yul\":15860:15869   */\n      dup4\n        /* \"#utility.yul\":15856:15875   */\n      add\n        /* \"#utility.yul\":15847:15853   */\n      dup6\n        /* \"#utility.yul\":15805:15876   */\n      tag_349\n      jump\t// in\n    tag_402:\n        /* \"#utility.yul\":15886:16000   */\n      tag_403\n        /* \"#utility.yul\":15995:15998   */\n      0x0140\n        /* \"#utility.yul\":15984:15993   */\n      dup4\n        /* \"#utility.yul\":15980:15999   */\n      add\n        /* \"#utility.yul\":15970:15977   */\n      dup5\n        /* \"#utility.yul\":15886:16000   */\n      tag_329\n      jump\t// in\n    tag_403:\n        /* \"#utility.yul\":14504:16007   */\n      swap13\n      swap12\n      pop\n      pop\n      pop\n      pop\n      pop\n      pop\n      pop\n      pop\n      pop\n      pop\n      pop\n      pop\n      jump\t// out\n        /* \"#utility.yul\":16013:16432   */\n    tag_68:\n        /* \"#utility.yul\":16152:16156   */\n      0x00\n        /* \"#utility.yul\":16190:16192   */\n      0x40\n        /* \"#utility.yul\":16179:16188   */\n      dup3\n        /* \"#utility.yul\":16175:16193   */\n      add\n        /* \"#utility.yul\":16167:16193   */\n      swap1\n      pop\n        /* \"#utility.yul\":16203:16272   */\n      tag_405\n        /* \"#utility.yul\":16269:16270   */\n      0x00\n        /* \"#utility.yul\":16258:16267   */\n      dup4\n        /* \"#utility.yul\":16254:16271   */\n      add\n        /* \"#utility.yul\":16245:16251   */\n      dup6\n        /* \"#utility.yul\":16203:16272   */\n      tag_349\n      jump\t// in\n    tag_405:\n        /* \"#utility.yul\":16319:16328   */\n      dup2\n        /* \"#utility.yul\":16313:16317   */\n      dup2\n        /* \"#utility.yul\":16309:16329   */\n      sub\n        /* \"#utility.yul\":16304:16306   */\n      0x20\n        /* \"#utility.yul\":16293:16302   */\n      dup4\n        /* \"#utility.yul\":16289:16307   */\n      add\n        /* \"#utility.yul\":16282:16330   */\n      mstore\n        /* \"#utility.yul\":16347:16425   */\n      tag_406\n        /* \"#utility.yul\":16420:16424   */\n      dup2\n        /* \"#utility.yul\":16411:16417   */\n      dup5\n        /* \"#utility.yul\":16347:16425   */\n      tag_304\n      jump\t// in\n    tag_406:\n        /* \"#utility.yul\":16339:16425   */\n      swap1\n      pop\n        /* \"#utility.yul\":16013:16432   */\n      swap4\n      swap3\n      pop\n      pop\n      pop\n      jump\t// out\n        /* \"#utility.yul\":16438:16567   */\n    tag_205:\n        /* \"#utility.yul\":16472:16478   */\n      0x00\n        /* \"#utility.yul\":16499:16519   */\n      tag_408\n      tag_409\n      jump\t// in\n    tag_408:\n        /* \"#utility.yul\":16489:16519   */\n      swap1\n      pop\n        /* \"#utility.yul\":16528:16561   */\n      tag_410\n        /* \"#utility.yul\":16556:16560   */\n      dup3\n        /* \"#utility.yul\":16548:16554   */\n      dup3\n        /* \"#utility.yul\":16528:16561   */\n      tag_411\n      jump\t// in\n    tag_410:\n        /* \"#utility.yul\":16438:16567   */\n      swap2\n      swap1\n      pop\n      jump\t// out\n        /* \"#utility.yul\":16573:16648   */\n    tag_409:\n        /* \"#utility.yul\":16606:16612   */\n      0x00\n        /* \"#utility.yul\":16639:16641   */\n      0x40\n        /* \"#utility.yul\":16633:16642   */\n      mload\n        /* \"#utility.yul\":16623:16642   */\n      swap1\n      pop\n        /* \"#utility.yul\":16573:16648   */\n      swap1\n      jump\t// out\n        /* \"#utility.yul\":16654:16962   */\n    tag_204:\n        /* \"#utility.yul\":16716:16720   */\n      0x00\n        /* \"#utility.yul\":16806:16824   */\n      0xffffffffffffffff\n        /* \"#utility.yul\":16798:16804   */\n      dup3\n        /* \"#utility.yul\":16795:16825   */\n      gt\n        /* \"#utility.yul\":16792:16848   */\n      iszero\n      tag_414\n      jumpi\n        /* \"#utility.yul\":16828:16846   */\n      tag_415\n      tag_416\n      jump\t// in\n    tag_415:\n        /* \"#utility.yul\":16792:16848   */\n    tag_414:\n        /* \"#utility.yul\":16866:16895   */\n      tag_417\n        /* \"#utility.yul\":16888:16894   */\n      dup3\n        /* \"#utility.yul\":16866:16895   */\n      tag_313\n      jump\t// in\n    tag_417:\n        /* \"#utility.yul\":16858:16895   */\n      swap1\n      pop\n        /* \"#utility.yul\":16950:16954   */\n      0x20\n        /* \"#utility.yul\":16944:16948   */\n      dup2\n        /* \"#utility.yul\":16940:16955   */\n      add\n        /* \"#utility.yul\":16932:16955   */\n      swap1\n      pop\n        /* \"#utility.yul\":16654:16962   */\n      swap2\n      swap1\n      pop\n      jump\t// out\n        /* \"#utility.yul\":16968:17067   */\n    tag_307:\n        /* \"#utility.yul\":17020:17026   */\n      0x00\n        /* \"#utility.yul\":17054:17059   */\n      dup2\n        /* \"#utility.yul\":17048:17060   */\n      mload\n        /* \"#utility.yul\":17038:17060   */\n      swap1\n      pop\n        /* \"#utility.yul\":16968:17067   */\n      swap2\n      swap1\n      pop\n      jump\t// out\n        /* \"#utility.yul\":17073:17242   */\n    tag_309:\n        /* \"#utility.yul\":17157:17168   */\n      0x00\n        /* \"#utility.yul\":17191:17197   */\n      dup3\n        /* \"#utility.yul\":17186:17189   */\n      dup3\n        /* \"#utility.yul\":17179:17198   */\n      mstore\n        /* \"#utility.yul\":17231:17235   */\n      0x20\n        /* \"#utility.yul\":17226:17229   */\n      dup3\n        /* \"#utility.yul\":17222:17236   */\n      add\n        /* \"#utility.yul\":17207:17236   */\n      swap1\n      pop\n        /* \"#utility.yul\":17073:17242   */\n      swap3\n      swap2\n      pop\n      pop\n      jump\t// out\n        /* \"#utility.yul\":17248:17344   */\n    tag_284:\n        /* \"#utility.yul\":17285:17292   */\n      0x00\n        /* \"#utility.yul\":17314:17338   */\n      tag_421\n        /* \"#utility.yul\":17332:17337   */\n      dup3\n        /* \"#utility.yul\":17314:17338   */\n      tag_422\n      jump\t// in\n    tag_421:\n        /* \"#utility.yul\":17303:17338   */\n      swap1\n      pop\n        /* \"#utility.yul\":17248:17344   */\n      swap2\n      swap1\n      pop\n      jump\t// out\n        /* \"#utility.yul\":17350:17440   */\n    tag_291:\n        /* \"#utility.yul\":17384:17391   */\n      0x00\n        /* \"#utility.yul\":17427:17432   */\n      dup2\n        /* \"#utility.yul\":17420:17433   */\n      iszero\n        /* \"#utility.yul\":17413:17434   */\n      iszero\n        /* \"#utility.yul\":17402:17434   */\n      swap1\n      pop\n        /* \"#utility.yul\":17350:17440   */\n      swap2\n      swap1\n      pop\n      jump\t// out\n        /* \"#utility.yul\":17446:17585   */\n    tag_424:\n        /* \"#utility.yul\":17497:17504   */\n      0x00\n        /* \"#utility.yul\":17526:17531   */\n      dup2\n        /* \"#utility.yul\":17515:17531   */\n      swap1\n      pop\n        /* \"#utility.yul\":17532:17579   */\n      tag_426\n        /* \"#utility.yul\":17573:17578   */\n      dup3\n        /* \"#utility.yul\":17532:17579   */\n      tag_427\n      jump\t// in\n    tag_426:\n        /* \"#utility.yul\":17446:17585   */\n      swap2\n      swap1\n      pop\n      jump\t// out\n        /* \"#utility.yul\":17591:17726   */\n    tag_428:\n        /* \"#utility.yul\":17640:17647   */\n      0x00\n        /* \"#utility.yul\":17669:17674   */\n      dup2\n        /* \"#utility.yul\":17658:17674   */\n      swap1\n      pop\n        /* \"#utility.yul\":17675:17720   */\n      tag_430\n        /* \"#utility.yul\":17714:17719   */\n      dup3\n        /* \"#utility.yul\":17675:17720   */\n      tag_431\n      jump\t// in\n    tag_430:\n        /* \"#utility.yul\":17591:17726   */\n      swap2\n      swap1\n      pop\n      jump\t// out\n        /* \"#utility.yul\":17732:17859   */\n    tag_432:\n        /* \"#utility.yul\":17777:17784   */\n      0x00\n        /* \"#utility.yul\":17806:17811   */\n      dup2\n        /* \"#utility.yul\":17795:17811   */\n      swap1\n      pop\n        /* \"#utility.yul\":17812:17853   */\n      tag_434\n        /* \"#utility.yul\":17847:17852   */\n      dup3\n        /* \"#utility.yul\":17812:17853   */\n      tag_435\n      jump\t// in\n    tag_434:\n        /* \"#utility.yul\":17732:17859   */\n      swap2\n      swap1\n      pop\n      jump\t// out\n        /* \"#utility.yul\":17865:17954   */\n    tag_338:\n        /* \"#utility.yul\":17901:17908   */\n      0x00\n        /* \"#utility.yul\":17941:17947   */\n      0xffff\n        /* \"#utility.yul\":17934:17939   */\n      dup3\n        /* \"#utility.yul\":17930:17948   */\n      and\n        /* \"#utility.yul\":17919:17948   */\n      swap1\n      pop\n        /* \"#utility.yul\":17865:17954   */\n      swap2\n      swap1\n      pop\n      jump\t// out\n        /* \"#utility.yul\":17960:18086   */\n    tag_422:\n        /* \"#utility.yul\":17997:18004   */\n      0x00\n        /* \"#utility.yul\":18037:18079   */\n      0xffffffffffffffffffffffffffffffffffffffff\n        /* \"#utility.yul\":18030:18035   */\n      dup3\n        /* \"#utility.yul\":18026:18080   */\n      and\n        /* \"#utility.yul\":18015:18080   */\n      swap1\n      pop\n        /* \"#utility.yul\":17960:18086   */\n      swap2\n      swap1\n      pop\n      jump\t// out\n        /* \"#utility.yul\":18092:18169   */\n    tag_341:\n        /* \"#utility.yul\":18129:18136   */\n      0x00\n        /* \"#utility.yul\":18158:18163   */\n      dup2\n        /* \"#utility.yul\":18147:18163   */\n      swap1\n      pop\n        /* \"#utility.yul\":18092:18169   */\n      swap2\n      swap1\n      pop\n      jump\t// out\n        /* \"#utility.yul\":18175:18268   */\n    tag_352:\n        /* \"#utility.yul\":18211:18218   */\n      0x00\n        /* \"#utility.yul\":18251:18261   */\n      0xffffffff\n        /* \"#utility.yul\":18244:18249   */\n      dup3\n        /* \"#utility.yul\":18240:18262   */\n      and\n        /* \"#utility.yul\":18229:18262   */\n      swap1\n      pop\n        /* \"#utility.yul\":18175:18268   */\n      swap2\n      swap1\n      pop\n      jump\t// out\n        /* \"#utility.yul\":18274:18360   */\n    tag_360:\n        /* \"#utility.yul\":18309:18316   */\n      0x00\n        /* \"#utility.yul\":18349:18353   */\n      0xff\n        /* \"#utility.yul\":18342:18347   */\n      dup3\n        /* \"#utility.yul\":18338:18354   */\n      and\n        /* \"#utility.yul\":18327:18354   */\n      swap1\n      pop\n        /* \"#utility.yul\":18274:18360   */\n      swap2\n      swap1\n      pop\n      jump\t// out\n        /* \"#utility.yul\":18366:18505   */\n    tag_295:\n        /* \"#utility.yul\":18428:18437   */\n      0x00\n        /* \"#utility.yul\":18461:18499   */\n      tag_442\n        /* \"#utility.yul\":18493:18498   */\n      dup3\n        /* \"#utility.yul\":18461:18499   */\n      tag_424\n      jump\t// in\n    tag_442:\n        /* \"#utility.yul\":18448:18499   */\n      swap1\n      pop\n        /* \"#utility.yul\":18366:18505   */\n      swap2\n      swap1\n      pop\n      jump\t// out\n        /* \"#utility.yul\":18511:18646   */\n    tag_299:\n        /* \"#utility.yul\":18571:18580   */\n      0x00\n        /* \"#utility.yul\":18604:18640   */\n      tag_444\n        /* \"#utility.yul\":18634:18639   */\n      dup3\n        /* \"#utility.yul\":18604:18640   */\n      tag_428\n      jump\t// in\n    tag_444:\n        /* \"#utility.yul\":18591:18640   */\n      swap1\n      pop\n        /* \"#utility.yul\":18511:18646   */\n      swap2\n      swap1\n      pop\n      jump\t// out\n        /* \"#utility.yul\":18652:18779   */\n    tag_303:\n        /* \"#utility.yul\":18708:18717   */\n      0x00\n        /* \"#utility.yul\":18741:18773   */\n      tag_446\n        /* \"#utility.yul\":18767:18772   */\n      dup3\n        /* \"#utility.yul\":18741:18773   */\n      tag_432\n      jump\t// in\n    tag_446:\n        /* \"#utility.yul\":18728:18773   */\n      swap1\n      pop\n        /* \"#utility.yul\":18652:18779   */\n      swap2\n      swap1\n      pop\n      jump\t// out\n        /* \"#utility.yul\":18785:18896   */\n    tag_348:\n        /* \"#utility.yul\":18834:18843   */\n      0x00\n        /* \"#utility.yul\":18867:18890   */\n      tag_448\n        /* \"#utility.yul\":18884:18889   */\n      dup3\n        /* \"#utility.yul\":18867:18890   */\n      tag_352\n      jump\t// in\n    tag_448:\n        /* \"#utility.yul\":18854:18890   */\n      swap1\n      pop\n        /* \"#utility.yul\":18785:18896   */\n      swap2\n      swap1\n      pop\n      jump\t// out\n        /* \"#utility.yul\":18902:19011   */\n    tag_356:\n        /* \"#utility.yul\":18950:18959   */\n      0x00\n        /* \"#utility.yul\":18983:19005   */\n      tag_450\n        /* \"#utility.yul\":18999:19004   */\n      dup3\n        /* \"#utility.yul\":18983:19005   */\n      tag_360\n      jump\t// in\n    tag_450:\n        /* \"#utility.yul\":18970:19005   */\n      swap1\n      pop\n        /* \"#utility.yul\":18902:19011   */\n      swap2\n      swap1\n      pop\n      jump\t// out\n        /* \"#utility.yul\":19017:19171   */\n    tag_210:\n        /* \"#utility.yul\":19101:19107   */\n      dup3\n        /* \"#utility.yul\":19096:19099   */\n      dup2\n        /* \"#utility.yul\":19091:19094   */\n      dup4\n        /* \"#utility.yul\":19078:19108   */\n      calldatacopy\n        /* \"#utility.yul\":19163:19164   */\n      0x00\n        /* \"#utility.yul\":19154:19160   */\n      dup4\n        /* \"#utility.yul\":19149:19152   */\n      dup4\n        /* \"#utility.yul\":19145:19161   */\n      add\n        /* \"#utility.yul\":19138:19165   */\n      mstore\n        /* \"#utility.yul\":19017:19171   */\n      pop\n      pop\n      pop\n      jump\t// out\n        /* \"#utility.yul\":19177:19484   */\n    tag_311:\n        /* \"#utility.yul\":19245:19246   */\n      0x00\n        /* \"#utility.yul\":19255:19368   */\n    tag_453:\n        /* \"#utility.yul\":19269:19275   */\n      dup4\n        /* \"#utility.yul\":19266:19267   */\n      dup2\n        /* \"#utility.yul\":19263:19276   */\n      lt\n        /* \"#utility.yul\":19255:19368   */\n      iszero\n      tag_455\n      jumpi\n        /* \"#utility.yul\":19354:19355   */\n      dup1\n        /* \"#utility.yul\":19349:19352   */\n      dup3\n        /* \"#utility.yul\":19345:19356   */\n      add\n        /* \"#utility.yul\":19339:19357   */\n      mload\n        /* \"#utility.yul\":19335:19336   */\n      dup2\n        /* \"#utility.yul\":19330:19333   */\n      dup5\n        /* \"#utility.yul\":19326:19337   */\n      add\n        /* \"#utility.yul\":19319:19358   */\n      mstore\n        /* \"#utility.yul\":19291:19293   */\n      0x20\n        /* \"#utility.yul\":19288:19289   */\n      dup2\n        /* \"#utility.yul\":19284:19294   */\n      add\n        /* \"#utility.yul\":19279:19294   */\n      swap1\n      pop\n        /* \"#utility.yul\":19255:19368   */\n      jump(tag_453)\n    tag_455:\n        /* \"#utility.yul\":19386:19392   */\n      dup4\n        /* \"#utility.yul\":19383:19384   */\n      dup2\n        /* \"#utility.yul\":19380:19393   */\n      gt\n        /* \"#utility.yul\":19377:19478   */\n      iszero\n      tag_456\n      jumpi\n        /* \"#utility.yul\":19466:19467   */\n      0x00\n        /* \"#utility.yul\":19457:19463   */\n      dup5\n        /* \"#utility.yul\":19452:19455   */\n      dup5\n        /* \"#utility.yul\":19448:19464   */\n      add\n        /* \"#utility.yul\":19441:19468   */\n      mstore\n        /* \"#utility.yul\":19377:19478   */\n    tag_456:\n        /* \"#utility.yul\":19226:19484   */\n      pop\n        /* \"#utility.yul\":19177:19484   */\n      pop\n      pop\n      pop\n      jump\t// out\n        /* \"#utility.yul\":19490:19810   */\n    tag_105:\n        /* \"#utility.yul\":19534:19540   */\n      0x00\n        /* \"#utility.yul\":19571:19572   */\n      0x02\n        /* \"#utility.yul\":19565:19569   */\n      dup3\n        /* \"#utility.yul\":19561:19573   */\n      div\n        /* \"#utility.yul\":19551:19573   */\n      swap1\n      pop\n        /* \"#utility.yul\":19618:19619   */\n      0x01\n        /* \"#utility.yul\":19612:19616   */\n      dup3\n        /* \"#utility.yul\":19608:19620   */\n      and\n        /* \"#utility.yul\":19639:19657   */\n      dup1\n        /* \"#utility.yul\":19629:19710   */\n      tag_458\n      jumpi\n        /* \"#utility.yul\":19695:19699   */\n      0x7f\n        /* \"#utility.yul\":19687:19693   */\n      dup3\n        /* \"#utility.yul\":19683:19700   */\n      and\n        /* \"#utility.yul\":19673:19700   */\n      swap2\n      pop\n        /* \"#utility.yul\":19629:19710   */\n    tag_458:\n        /* \"#utility.yul\":19757:19759   */\n      0x20\n        /* \"#utility.yul\":19749:19755   */\n      dup3\n        /* \"#utility.yul\":19746:19760   */\n      lt\n        /* \"#utility.yul\":19726:19744   */\n      dup2\n        /* \"#utility.yul\":19723:19761   */\n      eq\n        /* \"#utility.yul\":19720:19804   */\n      iszero\n      tag_459\n      jumpi\n        /* \"#utility.yul\":19776:19794   */\n      tag_460\n      tag_461\n      jump\t// in\n    tag_460:\n        /* \"#utility.yul\":19720:19804   */\n    tag_459:\n        /* \"#utility.yul\":19541:19810   */\n      pop\n        /* \"#utility.yul\":19490:19810   */\n      swap2\n      swap1\n      pop\n      jump\t// out\n        /* \"#utility.yul\":19816:20097   */\n    tag_411:\n        /* \"#utility.yul\":19899:19926   */\n      tag_463\n        /* \"#utility.yul\":19921:19925   */\n      dup3\n        /* \"#utility.yul\":19899:19926   */\n      tag_313\n      jump\t// in\n    tag_463:\n        /* \"#utility.yul\":19891:19897   */\n      dup2\n        /* \"#utility.yul\":19887:19927   */\n      add\n        /* \"#utility.yul\":20029:20035   */\n      dup2\n        /* \"#utility.yul\":20017:20027   */\n      dup2\n        /* \"#utility.yul\":20014:20036   */\n      lt\n        /* \"#utility.yul\":19993:20011   */\n      0xffffffffffffffff\n        /* \"#utility.yul\":19981:19991   */\n      dup3\n        /* \"#utility.yul\":19978:20012   */\n      gt\n        /* \"#utility.yul\":19975:20037   */\n      or\n        /* \"#utility.yul\":19972:20060   */\n      iszero\n      tag_464\n      jumpi\n        /* \"#utility.yul\":20040:20058   */\n      tag_465\n      tag_416\n      jump\t// in\n    tag_465:\n        /* \"#utility.yul\":19972:20060   */\n    tag_464:\n        /* \"#utility.yul\":20080:20090   */\n      dup1\n        /* \"#utility.yul\":20076:20078   */\n      0x40\n        /* \"#utility.yul\":20069:20091   */\n      mstore\n        /* \"#utility.yul\":19859:20097   */\n      pop\n        /* \"#utility.yul\":19816:20097   */\n      pop\n      pop\n      jump\t// out\n        /* \"#utility.yul\":20103:20336   */\n    tag_94:\n        /* \"#utility.yul\":20142:20145   */\n      0x00\n        /* \"#utility.yul\":20165:20189   */\n      tag_467\n        /* \"#utility.yul\":20183:20188   */\n      dup3\n        /* \"#utility.yul\":20165:20189   */\n      tag_341\n      jump\t// in\n    tag_467:\n        /* \"#utility.yul\":20156:20189   */\n      swap2\n      pop\n        /* \"#utility.yul\":20211:20277   */\n      0xffffffffffffffffffffffffffffffffffffffffffffffffffffffffffffffff\n        /* \"#utility.yul\":20204:20209   */\n      dup3\n        /* \"#utility.yul\":20201:20278   */\n      eq\n        /* \"#utility.yul\":20198:20301   */\n      iszero\n      tag_468\n      jumpi\n        /* \"#utility.yul\":20281:20299   */\n      tag_469\n      tag_470\n      jump\t// in\n    tag_469:\n        /* \"#utility.yul\":20198:20301   */\n    tag_468:\n        /* \"#utility.yul\":20328:20329   */\n      0x01\n        /* \"#utility.yul\":20321:20326   */\n      dup3\n        /* \"#utility.yul\":20317:20330   */\n      add\n        /* \"#utility.yul\":20310:20330   */\n      swap1\n      pop\n        /* \"#utility.yul\":20103:20336   */\n      swap2\n      swap1\n      pop\n      jump\t// out\n        /* \"#utility.yul\":20342:20522   */\n    tag_470:\n        /* \"#utility.yul\":20390:20467   */\n      0x4e487b7100000000000000000000000000000000000000000000000000000000\n        /* \"#utility.yul\":20387:20388   */\n      0x00\n        /* \"#utility.yul\":20380:20468   */\n      mstore\n        /* \"#utility.yul\":20487:20491   */\n      0x11\n        /* \"#utility.yul\":20484:20485   */\n      0x04\n        /* \"#utility.yul\":20477:20492   */\n      mstore\n        /* \"#utility.yul\":20511:20515   */\n      0x24\n        /* \"#utility.yul\":20508:20509   */\n      0x00\n        /* \"#utility.yul\":20501:20516   */\n      revert\n        /* \"#utility.yul\":20528:20708   */\n    tag_97:\n        /* \"#utility.yul\":20576:20653   */\n      0x4e487b7100000000000000000000000000000000000000000000000000000000\n        /* \"#utility.yul\":20573:20574   */\n      0x00\n        /* \"#utility.yul\":20566:20654   */\n      mstore\n        /* \"#utility.yul\":20673:20677   */\n      0x21\n        /* \"#utility.yul\":20670:20671   */\n      0x04\n        /* \"#utility.yul\":20663:20678   */\n      mstore\n        /* \"#utility.yul\":20697:20701   */\n      0x24\n        /* \"#utility.yul\":20694:20695   */\n      0x00\n        /* \"#utility.yul\":20687:20702   */\n      revert\n        /* \"#utility.yul\":20714:20894   */\n    tag_461:\n        /* \"#utility.yul\":20762:20839   */\n      0x4e487b7100000000000000000000000000000000000000000000000000000000\n        /* \"#utility.yul\":20759:20760   */\n      0x00\n        /* \"#utility.yul\":20752:20840   */\n      mstore\n        /* \"#utility.yul\":20859:20863   */\n      0x22\n        /* \"#utility.yul\":20856:20857   */\n      0x04\n        /* \"#utility.yul\":20849:20864   */\n      mstore\n        /* \"#utility.yul\":20883:20887   */\n      0x24\n        /* \"#utility.yul\":20880:20881   */\n      0x00\n        /* \"#utility.yul\":20873:20888   */\n      revert\n        /* \"#utility.yul\":20900:21080   */\n    tag_416:\n        /* \"#utility.yul\":20948:21025   */\n      0x4e487b7100000000000000000000000000000000000000000000000000000000\n        /* \"#utility.yul\":20945:20946   */\n      0x00\n        /* \"#utility.yul\":20938:21026   */\n      mstore\n        /* \"#utility.yul\":21045:21049   */\n      0x41\n        /* \"#utility.yul\":21042:21043   */\n      0x04\n        /* \"#utility.yul\":21035:21050   */\n      mstore\n        /* \"#utility.yul\":21069:21073   */\n      0x24\n        /* \"#utility.yul\":21066:21067   */\n      0x00\n        /* \"#utility.yul\":21059:21074   */\n      revert\n        /* \"#utility.yul\":21086:21203   */\n    tag_223:\n        /* \"#utility.yul\":21195:21196   */\n      0x00\n        /* \"#utility.yul\":21192:21193   */\n      dup1\n        /* \"#utility.yul\":21185:21197   */\n      revert\n        /* \"#utility.yul\":21209:21326   */\n    tag_208:\n        /* \"#utility.yul\":21318:21319   */\n      0x00\n        /* \"#utility.yul\":21315:21316   */\n      dup1\n        /* \"#utility.yul\":21308:21320   */\n      revert\n        /* \"#utility.yul\":21332:21449   */\n    tag_257:\n        /* \"#utility.yul\":21441:21442   */\n      0x00\n        /* \"#utility.yul\":21438:21439   */\n      dup1\n        /* \"#utility.yul\":21431:21443   */\n      revert\n        /* \"#utility.yul\":21455:21572   */\n    tag_240:\n        /* \"#utility.yul\":21564:21565   */\n      0x00\n        /* \"#utility.yul\":21561:21562   */\n      dup1\n        /* \"#utility.yul\":21554:21566   */\n      revert\n        /* \"#utility.yul\":21578:21680   */\n    tag_313:\n        /* \"#utility.yul\":21619:21625   */\n      0x00\n        /* \"#utility.yul\":21670:21672   */\n      0x1f\n        /* \"#utility.yul\":21666:21673   */\n      not\n        /* \"#utility.yul\":21661:21663   */\n      0x1f\n        /* \"#utility.yul\":21654:21659   */\n      dup4\n        /* \"#utility.yul\":21650:21664   */\n      add\n        /* \"#utility.yul\":21646:21674   */\n      and\n        /* \"#utility.yul\":21636:21674   */\n      swap1\n      pop\n        /* \"#utility.yul\":21578:21680   */\n      swap2\n      swap1\n      pop\n      jump\t// out\n        /* \"#utility.yul\":21686:21868   */\n    tag_318:\n        /* \"#utility.yul\":21826:21860   */\n      0x42752069736c656d6920736164656365204b697369207961706162696c69722e\n        /* \"#utility.yul\":21822:21823   */\n      0x00\n        /* \"#utility.yul\":21814:21820   */\n      dup3\n        /* \"#utility.yul\":21810:21824   */\n      add\n        /* \"#utility.yul\":21803:21861   */\n      mstore\n        /* \"#utility.yul\":21686:21868   */\n      pop\n      jump\t// out\n        /* \"#utility.yul\":21874:22042   */\n    tag_323:\n        /* \"#utility.yul\":22014:22034   */\n      0x53747564656e74206e6f74206578697374730000000000000000000000000000\n        /* \"#utility.yul\":22010:22011   */\n      0x00\n        /* \"#utility.yul\":22002:22008   */\n      dup3\n        /* \"#utility.yul\":21998:22012   */\n      add\n        /* \"#utility.yul\":21991:22035   */\n      mstore\n        /* \"#utility.yul\":21874:22042   */\n      pop\n      jump\t// out\n        /* \"#utility.yul\":22048:22230   */\n    tag_328:\n        /* \"#utility.yul\":22188:22222   */\n      0x42752069736c656d6920736164656365204b757273207961706162696c69722e\n        /* \"#utility.yul\":22184:22185   */\n      0x00\n        /* \"#utility.yul\":22176:22182   */\n      dup3\n        /* \"#utility.yul\":22172:22186   */\n      add\n        /* \"#utility.yul\":22165:22223   */\n      mstore\n        /* \"#utility.yul\":22048:22230   */\n      pop\n      jump\t// out\n        /* \"#utility.yul\":22236:22355   */\n    tag_427:\n        /* \"#utility.yul\":22323:22324   */\n      0x03\n        /* \"#utility.yul\":22316:22321   */\n      dup2\n        /* \"#utility.yul\":22313:22325   */\n      lt\n        /* \"#utility.yul\":22303:22349   */\n      tag_484\n      jumpi\n        /* \"#utility.yul\":22329:22347   */\n      tag_485\n      tag_97\n      jump\t// in\n    tag_485:\n        /* \"#utility.yul\":22303:22349   */\n    tag_484:\n        /* \"#utility.yul\":22236:22355   */\n      pop\n      jump\t// out\n        /* \"#utility.yul\":22361:22478   */\n    tag_431:\n        /* \"#utility.yul\":22446:22447   */\n      0x03\n        /* \"#utility.yul\":22439:22444   */\n      dup2\n        /* \"#utility.yul\":22436:22448   */\n      lt\n        /* \"#utility.yul\":22426:22472   */\n      tag_487\n      jumpi\n        /* \"#utility.yul\":22452:22470   */\n      tag_488\n      tag_97\n      jump\t// in\n    tag_488:\n        /* \"#utility.yul\":22426:22472   */\n    tag_487:\n        /* \"#utility.yul\":22361:22478   */\n      pop\n      jump\t// out\n        /* \"#utility.yul\":22484:22597   */\n    tag_435:\n        /* \"#utility.yul\":22565:22566   */\n      0x04\n        /* \"#utility.yul\":22558:22563   */\n      dup2\n        /* \"#utility.yul\":22555:22567   */\n      lt\n        /* \"#utility.yul\":22545:22591   */\n      tag_490\n      jumpi\n        /* \"#utility.yul\":22571:22589   */\n      tag_491\n      tag_97\n      jump\t// in\n    tag_491:\n        /* \"#utility.yul\":22545:22591   */\n    tag_490:\n        /* \"#utility.yul\":22484:22597   */\n      pop\n      jump\t// out\n        /* \"#utility.yul\":22603:22725   */\n    tag_214:\n        /* \"#utility.yul\":22676:22700   */\n      tag_493\n        /* \"#utility.yul\":22694:22699   */\n      dup2\n        /* \"#utility.yul\":22676:22700   */\n      tag_284\n      jump\t// in\n    tag_493:\n        /* \"#utility.yul\":22669:22674   */\n      dup2\n        /* \"#utility.yul\":22666:22701   */\n      eq\n        /* \"#utility.yul\":22656:22719   */\n      tag_494\n      jumpi\n        /* \"#utility.yul\":22715:22716   */\n      0x00\n        /* \"#utility.yul\":22712:22713   */\n      dup1\n        /* \"#utility.yul\":22705:22717   */\n      revert\n        /* \"#utility.yul\":22656:22719   */\n    tag_494:\n        /* \"#utility.yul\":22603:22725   */\n      pop\n      jump\t// out\n        /* \"#utility.yul\":22731:22844   */\n    tag_218:\n        /* \"#utility.yul\":22818:22819   */\n      0x03\n        /* \"#utility.yul\":22811:22816   */\n      dup2\n        /* \"#utility.yul\":22808:22820   */\n      lt\n        /* \"#utility.yul\":22798:22838   */\n      tag_496\n      jumpi\n        /* \"#utility.yul\":22834:22835   */\n      0x00\n        /* \"#utility.yul\":22831:22832   */\n      dup1\n        /* \"#utility.yul\":22824:22836   */\n      revert\n        /* \"#utility.yul\":22798:22838   */\n    tag_496:\n        /* \"#utility.yul\":22731:22844   */\n      pop\n      jump\t// out\n        /* \"#utility.yul\":22850:22972   */\n    tag_228:\n        /* \"#utility.yul\":22923:22947   */\n      tag_498\n        /* \"#utility.yul\":22941:22946   */\n      dup2\n        /* \"#utility.yul\":22923:22947   */\n      tag_341\n      jump\t// in\n    tag_498:\n        /* \"#utility.yul\":22916:22921   */\n      dup2\n        /* \"#utility.yul\":22913:22948   */\n      eq\n        /* \"#utility.yul\":22903:22966   */\n      tag_499\n      jumpi\n        /* \"#utility.yul\":22962:22963   */\n      0x00\n        /* \"#utility.yul\":22959:22960   */\n      dup1\n        /* \"#utility.yul\":22952:22964   */\n      revert\n        /* \"#utility.yul\":22903:22966   */\n    tag_499:\n        /* \"#utility.yul\":22850:22972   */\n      pop\n      jump\t// out\n        /* \"#utility.yul\":22978:23098   */\n    tag_232:\n        /* \"#utility.yul\":23050:23073   */\n      tag_501\n        /* \"#utility.yul\":23067:23072   */\n      dup2\n        /* \"#utility.yul\":23050:23073   */\n      tag_352\n      jump\t// in\n    tag_501:\n        /* \"#utility.yul\":23043:23048   */\n      dup2\n        /* \"#utility.yul\":23040:23074   */\n      eq\n        /* \"#utility.yul\":23030:23092   */\n      tag_502\n      jumpi\n        /* \"#utility.yul\":23088:23089   */\n      0x00\n        /* \"#utility.yul\":23085:23086   */\n      dup1\n        /* \"#utility.yul\":23078:23090   */\n      revert\n        /* \"#utility.yul\":23030:23092   */\n    tag_502:\n        /* \"#utility.yul\":22978:23098   */\n      pop\n      jump\t// out\n        /* \"#utility.yul\":23104:23222   */\n    tag_236:\n        /* \"#utility.yul\":23175:23197   */\n      tag_504\n        /* \"#utility.yul\":23191:23196   */\n      dup2\n        /* \"#utility.yul\":23175:23197   */\n      tag_360\n      jump\t// in\n    tag_504:\n        /* \"#utility.yul\":23168:23173   */\n      dup2\n        /* \"#utility.yul\":23165:23198   */\n      eq\n        /* \"#utility.yul\":23155:23216   */\n      tag_505\n      jumpi\n        /* \"#utility.yul\":23212:23213   */\n      0x00\n        /* \"#utility.yul\":23209:23210   */\n      dup1\n        /* \"#utility.yul\":23202:23214   */\n      revert\n        /* \"#utility.yul\":23155:23216   */\n    tag_505:\n        /* \"#utility.yul\":23104:23222   */\n      pop\n      jump\t// out\n\n    auxdata: 0xa2646970667358221220c5199d23b88061ad5a2bb3613d7e4c36d2ef3bf0ca0eb9f51b983e28e0d5c8b364736f6c63430008070033\n}\n",
				"bytecode": {
					"linkReferences": {},
					"object": "608060405234801561001057600080fd5b50612d5a806100206000396000f3fe608060405234801561001057600080fd5b50600436106100ea5760003560e01c80637d0fa2871161008c578063ac30910c11610066578063ac30910c146102d3578063af640d0f146102ef578063ba479b7e1461030d578063cbc9280914610342576100ea565b80637d0fa2871461023e5780639a8c911914610270578063a4e7ae05146102a2576100ea565b806328266697116100c85780632826669714610177578063356b1f1e146101a957806339987f94146101db57806362bda16b1461020e576100ea565b8063035963ce146100ef5780630fb0b1b21461010b5780631916e13914610145575b600080fd5b6101096004803603810190610104919061234a565b610372565b005b6101256004803603810190610120919061220f565b610954565b60405161013c9b9a999897969594939291906127d8565b60405180910390f35b61015f600480360381019061015a91906121e2565b610b4f565b60405161016e939291906126d3565b60405180910390f35b610191600480360381019061018c91906121e2565b610c1b565b6040516101a0939291906126d3565b60405180910390f35b6101c360048036038101906101be91906121e2565b610ce7565b6040516101d2939291906126d3565b60405180910390f35b6101f560048036038101906101f091906121e2565b610db3565b6040516102059493929190612711565b60405180910390f35b6102286004803603810190610223919061224f565b610e85565b60405161023591906127bd565b60405180910390f35b610258600480360381019061025391906121e2565b61155f565b604051610267939291906126d3565b60405180910390f35b61028a600480360381019061028591906121e2565b61162b565b604051610299939291906126d3565b60405180910390f35b6102bc60048036038101906102b79190612430565b6116f7565b6040516102ca92919061288a565b60405180910390f35b6102ed60048036038101906102e8919061234a565b6117b3565b005b6102f7611ea1565b60405161030491906127bd565b60405180910390f35b610327600480360381019061032291906121e2565b611ea7565b60405161033996959493929190612664565b60405180910390f35b61035c600480360381019061035791906121e2565b61203b565b6040516103699190612649565b60405180910390f35b600360003373ffffffffffffffffffffffffffffffffffffffff1673ffffffffffffffffffffffffffffffffffffffff16815260200190815260200160002060000160009054906101000a900460ff16610401576040517f08c379a00000000000000000000000000000000000000000000000000000000081526004016103f89061275d565b60405180910390fd5b600360003373ffffffffffffffffffffffffffffffffffffffff1673ffffffffffffffffffffffffffffffffffffffff16815260200190815260200160002060000160009054906101000a900460ff16610490576040517f08c379a00000000000000000000000000000000000000000000000000000000081526004016104879061277d565b60405180910390fd5b6000600c60008154809291906104a590612ad7565b91905055905089600d60003373ffffffffffffffffffffffffffffffffffffffff1673ffffffffffffffffffffffffffffffffffffffff168152602001908152602001600020600083815260200190815260200160002060010160006101000a81548173ffffffffffffffffffffffffffffffffffffffff021916908373ffffffffffffffffffffffffffffffffffffffff16021790555088600d60003373ffffffffffffffffffffffffffffffffffffffff1673ffffffffffffffffffffffffffffffffffffffff168152602001908152602001600020600083815260200190815260200160002060010160146101000a81548163ffffffff021916908363ffffffff16021790555087600d60003373ffffffffffffffffffffffffffffffffffffffff1673ffffffffffffffffffffffffffffffffffffffff168152602001908152602001600020600083815260200190815260200160002060010160186101000a81548160ff021916908360ff16021790555086600d60003373ffffffffffffffffffffffffffffffffffffffff1673ffffffffffffffffffffffffffffffffffffffff168152602001908152602001600020600083815260200190815260200160002060010160196101000a81548160ff0219169083600281111561069157610690612b4f565b5b021790555085600d60003373ffffffffffffffffffffffffffffffffffffffff1673ffffffffffffffffffffffffffffffffffffffff168152602001908152602001600020600083815260200190815260200160002060020190805190602001906106fd929190612066565b5084600d60003373ffffffffffffffffffffffffffffffffffffffff1673ffffffffffffffffffffffffffffffffffffffff16815260200190815260200160002060008381526020019081526020016000206003018190555083600d60003373ffffffffffffffffffffffffffffffffffffffff1673ffffffffffffffffffffffffffffffffffffffff16815260200190815260200160002060008381526020019081526020016000206004018190555082600d60003373ffffffffffffffffffffffffffffffffffffffff1673ffffffffffffffffffffffffffffffffffffffff168152602001908152602001600020600083815260200190815260200160002060050160006101000a81548160ff021916908360ff16021790555081600d60003373ffffffffffffffffffffffffffffffffffffffff1673ffffffffffffffffffffffffffffffffffffffff168152602001908152602001600020600083815260200190815260200160002060050160016101000a81548163ffffffff021916908363ffffffff1602179055506000600d60003373ffffffffffffffffffffffffffffffffffffffff1673ffffffffffffffffffffffffffffffffffffffff168152602001908152602001600020600083815260200190815260200160002060060160010160146101000a81548160ff0219169083600281111561090657610905612b4f565b5b02179055507fb1e7ee8400131f0adc507179ea96ee8eb90b1a9e9215ce4232f874cb41aa88ef8a848b8b6040516109409493929190612604565b60405180910390a150505050505050505050565b600d602052816000526040600020602052806000526040600020600091509150508060000154908060010160009054906101000a900473ffffffffffffffffffffffffffffffffffffffff16908060010160149054906101000a900463ffffffff16908060010160189054906101000a900460ff16908060010160199054906101000a900460ff16908060020180546109ec90612a74565b80601f0160208091040260200160405190810160405280929190818152602001828054610a1890612a74565b8015610a655780601f10610a3a57610100808354040283529160200191610a65565b820191906000526020600020905b815481529060010190602001808311610a4857829003601f168201915b5050505050908060030154908060040154908060050160009054906101000a900460ff16908060050160019054906101000a900463ffffffff169080600601604051806060016040529081600082015481526020016001820160009054906101000a900473ffffffffffffffffffffffffffffffffffffffff1673ffffffffffffffffffffffffffffffffffffffff1673ffffffffffffffffffffffffffffffffffffffff1681526020016001820160149054906101000a900460ff166002811115610b3457610b33612b4f565b5b6002811115610b4657610b45612b4f565b5b8152505090508b565b60076020528060005260406000206000915090508060000160009054906101000a900460ff1690806001018054610b8590612a74565b80601f0160208091040260200160405190810160405280929190818152602001828054610bb190612a74565b8015610bfe5780601f10610bd357610100808354040283529160200191610bfe565b820191906000526020600020905b815481529060010190602001808311610be157829003601f168201915b5050505050908060020160009054906101000a900460ff16905083565b60046020528060005260406000206000915090508060000160009054906101000a900460ff1690806001018054610c5190612a74565b80601f0160208091040260200160405190810160405280929190818152602001828054610c7d90612a74565b8015610cca5780601f10610c9f57610100808354040283529160200191610cca565b820191906000526020600020905b815481529060010190602001808311610cad57829003601f168201915b5050505050908060020160009054906101000a900460ff16905083565b600a6020528060005260406000206000915090508060000160009054906101000a900460ff1690806001018054610d1d90612a74565b80601f0160208091040260200160405190810160405280929190818152602001828054610d4990612a74565b8015610d965780601f10610d6b57610100808354040283529160200191610d96565b820191906000526020600020905b815481529060010190602001808311610d7957829003601f168201915b5050505050908060020160009054906101000a900460ff16905083565b60066020528060005260406000206000915090508060000160009054906101000a900460ff16908060000160019054906101000a900460ff1690806001015490806002018054610e0290612a74565b80601f0160208091040260200160405190810160405280929190818152602001828054610e2e90612a74565b8015610e7b5780601f10610e5057610100808354040283529160200191610e7b565b820191906000526020600020905b815481529060010190602001808311610e5e57829003601f168201915b5050505050905084565b6000600460003373ffffffffffffffffffffffffffffffffffffffff1673ffffffffffffffffffffffffffffffffffffffff16815260200190815260200160002060000160009054906101000a900460ff1680610f2e5750600660003373ffffffffffffffffffffffffffffffffffffffff1673ffffffffffffffffffffffffffffffffffffffff16815260200190815260200160002060000160009054906101000a900460ff165b80610f855750600860003373ffffffffffffffffffffffffffffffffffffffff1673ffffffffffffffffffffffffffffffffffffffff16815260200190815260200160002060000160009054906101000a900460ff165b610fc4576040517f08c379a0000000000000000000000000000000000000000000000000000000008152600401610fbb9061279d565b60405180910390fd5b600360008c73ffffffffffffffffffffffffffffffffffffffff1673ffffffffffffffffffffffffffffffffffffffff16815260200190815260200160002060000160009054906101000a900460ff16611053576040517f08c379a000000000000000000000000000000000000000000000000000000000815260040161104a9061277d565b60405180910390fd5b88600d60008d73ffffffffffffffffffffffffffffffffffffffff1673ffffffffffffffffffffffffffffffffffffffff16815260200190815260200160002060008c815260200190815260200160002060010160146101000a81548163ffffffff021916908363ffffffff16021790555087600d60008d73ffffffffffffffffffffffffffffffffffffffff1673ffffffffffffffffffffffffffffffffffffffff16815260200190815260200160002060008c815260200190815260200160002060010160186101000a81548160ff021916908360ff16021790555086600d60008d73ffffffffffffffffffffffffffffffffffffffff1673ffffffffffffffffffffffffffffffffffffffff16815260200190815260200160002060008c815260200190815260200160002060010160196101000a81548160ff021916908360028111156111a7576111a6612b4f565b5b021790555085600d60008d73ffffffffffffffffffffffffffffffffffffffff1673ffffffffffffffffffffffffffffffffffffffff16815260200190815260200160002060008c81526020019081526020016000206002019080519060200190611213929190612066565b5084600d60008d73ffffffffffffffffffffffffffffffffffffffff1673ffffffffffffffffffffffffffffffffffffffff16815260200190815260200160002060008c81526020019081526020016000206003018190555083600d60008d73ffffffffffffffffffffffffffffffffffffffff1673ffffffffffffffffffffffffffffffffffffffff16815260200190815260200160002060008c81526020019081526020016000206004018190555082600d60008d73ffffffffffffffffffffffffffffffffffffffff1673ffffffffffffffffffffffffffffffffffffffff16815260200190815260200160002060008c815260200190815260200160002060050160006101000a81548160ff021916908360ff16021790555081600d60008d73ffffffffffffffffffffffffffffffffffffffff1673ffffffffffffffffffffffffffffffffffffffff16815260200190815260200160002060008c815260200190815260200160002060050160016101000a81548163ffffffff021916908363ffffffff16021790555042600d60008d73ffffffffffffffffffffffffffffffffffffffff1673ffffffffffffffffffffffffffffffffffffffff16815260200190815260200160002060008c8152602001908152602001600020600601600001819055506001600d60008d73ffffffffffffffffffffffffffffffffffffffff1673ffffffffffffffffffffffffffffffffffffffff16815260200190815260200160002060008c815260200190815260200160002060060160010160146101000a81548160ff0219169083600281111561147757611476612b4f565b5b021790555033600d60008d73ffffffffffffffffffffffffffffffffffffffff1673ffffffffffffffffffffffffffffffffffffffff16815260200190815260200160002060008c815260200190815260200160002060060160010160006101000a81548173ffffffffffffffffffffffffffffffffffffffff021916908373ffffffffffffffffffffffffffffffffffffffff1602179055507f0d2d369c2a311bbedf49b15d0d8d116c0a1aaf3adf72494f1ebb4275c54cad738b848b8b6040516115469493929190612604565b60405180910390a18990509a9950505050505050505050565b60086020528060005260406000206000915090508060000160009054906101000a900460ff169080600101805461159590612a74565b80601f01602080910402602001604051908101604052809291908181526020018280546115c190612a74565b801561160e5780601f106115e35761010080835404028352916020019161160e565b820191906000526020600020905b8154815290600101906020018083116115f157829003601f168201915b5050505050908060020160009054906101000a900460ff16905083565b60096020528060005260406000206000915090508060000160009054906101000a900460ff169080600101805461166190612a74565b80601f016020809104026020016040519081016040528092919081815260200182805461168d90612a74565b80156116da5780601f106116af576101008083540402835291602001916116da565b820191906000526020600020905b8154815290600101906020018083116116bd57829003601f168201915b5050505050908060020160009054906101000a900460ff16905083565b600b6020528060005260406000206000915090508060000160009054906101000a900463ffffffff169080600101805461173090612a74565b80601f016020809104026020016040519081016040528092919081815260200182805461175c90612a74565b80156117a95780601f1061177e576101008083540402835291602001916117a9565b820191906000526020600020905b81548152906001019060200180831161178c57829003601f168201915b5050505050905082565b600460003373ffffffffffffffffffffffffffffffffffffffff1673ffffffffffffffffffffffffffffffffffffffff16815260200190815260200160002060000160009054906101000a900460ff168061185a5750600660003373ffffffffffffffffffffffffffffffffffffffff1673ffffffffffffffffffffffffffffffffffffffff16815260200190815260200160002060000160009054906101000a900460ff165b806118b15750600860003373ffffffffffffffffffffffffffffffffffffffff1673ffffffffffffffffffffffffffffffffffffffff16815260200190815260200160002060000160009054906101000a900460ff165b6118f0576040517f08c379a00000000000000000000000000000000000000000000000000000000081526004016118e79061279d565b60405180910390fd5b600360008a73ffffffffffffffffffffffffffffffffffffffff1673ffffffffffffffffffffffffffffffffffffffff16815260200190815260200160002060000160009054906101000a900460ff1661197f576040517f08c379a00000000000000000000000000000000000000000000000000000000081526004016119769061277d565b60405180910390fd5b6000600c600081548092919061199490612ad7565b91905055905088600d60008c73ffffffffffffffffffffffffffffffffffffffff1673ffffffffffffffffffffffffffffffffffffffff168152602001908152602001600020600083815260200190815260200160002060010160146101000a81548163ffffffff021916908363ffffffff16021790555087600d60008c73ffffffffffffffffffffffffffffffffffffffff1673ffffffffffffffffffffffffffffffffffffffff168152602001908152602001600020600083815260200190815260200160002060010160186101000a81548160ff021916908360ff16021790555086600d60008c73ffffffffffffffffffffffffffffffffffffffff1673ffffffffffffffffffffffffffffffffffffffff168152602001908152602001600020600083815260200190815260200160002060010160196101000a81548160ff02191690836002811115611aee57611aed612b4f565b5b021790555085600d60008c73ffffffffffffffffffffffffffffffffffffffff1673ffffffffffffffffffffffffffffffffffffffff16815260200190815260200160002060008381526020019081526020016000206002019080519060200190611b5a929190612066565b5084600d60008c73ffffffffffffffffffffffffffffffffffffffff1673ffffffffffffffffffffffffffffffffffffffff16815260200190815260200160002060008381526020019081526020016000206003018190555083600d60008c73ffffffffffffffffffffffffffffffffffffffff1673ffffffffffffffffffffffffffffffffffffffff16815260200190815260200160002060008381526020019081526020016000206004018190555082600d60008c73ffffffffffffffffffffffffffffffffffffffff1673ffffffffffffffffffffffffffffffffffffffff168152602001908152602001600020600083815260200190815260200160002060050160006101000a81548160ff021916908360ff16021790555081600d60008c73ffffffffffffffffffffffffffffffffffffffff1673ffffffffffffffffffffffffffffffffffffffff168152602001908152602001600020600083815260200190815260200160002060050160016101000a81548163ffffffff021916908363ffffffff16021790555042600d60008c73ffffffffffffffffffffffffffffffffffffffff1673ffffffffffffffffffffffffffffffffffffffff1681526020019081526020016000206000838152602001908152602001600020600601600001819055506001600d60008c73ffffffffffffffffffffffffffffffffffffffff1673ffffffffffffffffffffffffffffffffffffffff168152602001908152602001600020600083815260200190815260200160002060060160010160146101000a81548160ff02191690836002811115611dbe57611dbd612b4f565b5b021790555033600d60008c73ffffffffffffffffffffffffffffffffffffffff1673ffffffffffffffffffffffffffffffffffffffff168152602001908152602001600020600083815260200190815260200160002060060160010160006101000a81548173ffffffffffffffffffffffffffffffffffffffff021916908373ffffffffffffffffffffffffffffffffffffffff1602179055507f5ad0792471e6b8d6289d325d174cfb7e274ac9529efeb295f4abce0a90cdcb238a848b8b604051611e8d9493929190612604565b60405180910390a150505050505050505050565b600c5481565b60056020528060005260406000206000915090508060000160009054906101000a900460ff16908060000160019054906101000a900473ffffffffffffffffffffffffffffffffffffffff16908060000160159054906101000a900461ffff16908060000160179054906101000a900460ff1690806001018054611f2a90612a74565b80601f0160208091040260200160405190810160405280929190818152602001828054611f5690612a74565b8015611fa35780601f10611f7857610100808354040283529160200191611fa3565b820191906000526020600020905b815481529060010190602001808311611f8657829003601f168201915b505050505090806002018054611fb890612a74565b80601f0160208091040260200160405190810160405280929190818152602001828054611fe490612a74565b80156120315780601f1061200657610100808354040283529160200191612031565b820191906000526020600020905b81548152906001019060200180831161201457829003601f168201915b5050505050905086565b60036020528060005260406000206000915090508060000160009054906101000a900460ff16905081565b82805461207290612a74565b90600052602060002090601f01602090048101928261209457600085556120db565b82601f106120ad57805160ff19168380011785556120db565b828001600101855582156120db579182015b828111156120da5782518255916020019190600101906120bf565b5b5090506120e891906120ec565b5090565b5b808211156121055760008160009055506001016120ed565b5090565b600061211c612117846128df565b6128ba565b90508281526020810184848401111561213857612137612be1565b5b612143848285612a32565b509392505050565b60008135905061215a81612cb8565b92915050565b60008135905061216f81612ccf565b92915050565b600082601f83011261218a57612189612bdc565b5b813561219a848260208601612109565b91505092915050565b6000813590506121b281612cdf565b92915050565b6000813590506121c781612cf6565b92915050565b6000813590506121dc81612d0d565b92915050565b6000602082840312156121f8576121f7612beb565b5b60006122068482850161214b565b91505092915050565b6000806040838503121561222657612225612beb565b5b60006122348582860161214b565b9250506020612245858286016121a3565b9150509250929050565b6000806000806000806000806000806101408b8d03121561227357612272612beb565b5b60006122818d828e0161214b565b9a505060206122928d828e016121a3565b99505060406122a38d828e016121b8565b98505060606122b48d828e016121cd565b97505060806122c58d828e01612160565b96505060a08b013567ffffffffffffffff8111156122e6576122e5612be6565b5b6122f28d828e01612175565b95505060c06123038d828e016121a3565b94505060e06123148d828e016121a3565b9350506101006123268d828e016121cd565b9250506101206123388d828e016121b8565b9150509295989b9194979a5092959850565b60008060008060008060008060006101208a8c03121561236d5761236c612beb565b5b600061237b8c828d0161214b565b995050602061238c8c828d016121b8565b985050604061239d8c828d016121cd565b97505060606123ae8c828d01612160565b96505060808a013567ffffffffffffffff8111156123cf576123ce612be6565b5b6123db8c828d01612175565b95505060a06123ec8c828d016121a3565b94505060c06123fd8c828d016121a3565b93505060e061240e8c828d016121cd565b9250506101006124208c828d016121b8565b9150509295985092959850929598565b60006020828403121561244657612445612beb565b5b6000612454848285016121b8565b91505092915050565b6124668161292c565b82525050565b6124758161292c565b82525050565b6124848161293e565b82525050565b612493816129d8565b82525050565b6124a2816129ea565b82525050565b6124b1816129fc565b82525050565b60006124c282612910565b6124cc818561291b565b93506124dc818560208601612a41565b6124e581612bf0565b840191505092915050565b60006124fd60208361291b565b915061250882612c01565b602082019050919050565b600061252060128361291b565b915061252b82612c2a565b602082019050919050565b600061254360208361291b565b915061254e82612c53565b602082019050919050565b60608201600082015161256f60008501826125aa565b506020820151612582602085018261245d565b5060408201516125956040850182612499565b50505050565b6125a481612983565b82525050565b6125b3816129b1565b82525050565b6125c2816129b1565b82525050565b6125d181612a0e565b82525050565b6125e0816129bb565b82525050565b6125ef81612a20565b82525050565b6125fe816129cb565b82525050565b6000608082019050612619600083018761246c565b61262660208301866125f5565b61263360408301856125c8565b61264060608301846125e6565b95945050505050565b600060208201905061265e600083018461247b565b92915050565b600060c082019050612679600083018961247b565b612686602083018861246c565b612693604083018761259b565b6126a060608301866124a8565b81810360808301526126b281856124b7565b905081810360a08301526126c681846124b7565b9050979650505050505050565b60006060820190506126e8600083018661247b565b81810360208301526126fa81856124b7565b905061270960408301846125f5565b949350505050565b6000608082019050612726600083018761247b565b61273360208301866125f5565b61274060408301856125b9565b818103606083015261275281846124b7565b905095945050505050565b60006020820190508181036000830152612776816124f0565b9050919050565b6000602082019050818103600083015261279681612513565b9050919050565b600060208201905081810360008301526127b681612536565b9050919050565b60006020820190506127d260008301846125b9565b92915050565b60006101a0820190506127ee600083018e6125b9565b6127fb602083018d61246c565b612808604083018c6125d7565b612815606083018b6125f5565b612822608083018a61248a565b81810360a083015261283481896124b7565b905061284360c08301886125b9565b61285060e08301876125b9565b61285e6101008301866125f5565b61286c6101208301856125d7565b61287a610140830184612559565b9c9b505050505050505050505050565b600060408201905061289f60008301856125d7565b81810360208301526128b181846124b7565b90509392505050565b60006128c46128d5565b90506128d08282612aa6565b919050565b6000604051905090565b600067ffffffffffffffff8211156128fa576128f9612bad565b5b61290382612bf0565b9050602081019050919050565b600081519050919050565b600082825260208201905092915050565b600061293782612991565b9050919050565b60008115159050919050565b600081905061295882612c7c565b919050565b600081905061296b82612c90565b919050565b600081905061297e82612ca4565b919050565b600061ffff82169050919050565b600073ffffffffffffffffffffffffffffffffffffffff82169050919050565b6000819050919050565b600063ffffffff82169050919050565b600060ff82169050919050565b60006129e38261294a565b9050919050565b60006129f58261295d565b9050919050565b6000612a0782612970565b9050919050565b6000612a19826129bb565b9050919050565b6000612a2b826129cb565b9050919050565b82818337600083830152505050565b60005b83811015612a5f578082015181840152602081019050612a44565b83811115612a6e576000848401525b50505050565b60006002820490506001821680612a8c57607f821691505b60208210811415612aa057612a9f612b7e565b5b50919050565b612aaf82612bf0565b810181811067ffffffffffffffff82111715612ace57612acd612bad565b5b80604052505050565b6000612ae2826129b1565b91507fffffffffffffffffffffffffffffffffffffffffffffffffffffffffffffffff821415612b1557612b14612b20565b5b600182019050919050565b7f4e487b7100000000000000000000000000000000000000000000000000000000600052601160045260246000fd5b7f4e487b7100000000000000000000000000000000000000000000000000000000600052602160045260246000fd5b7f4e487b7100000000000000000000000000000000000000000000000000000000600052602260045260246000fd5b7f4e487b7100000000000000000000000000000000000000000000000000000000600052604160045260246000fd5b600080fd5b600080fd5b600080fd5b600080fd5b6000601f19601f8301169050919050565b7f42752069736c656d6920736164656365204b697369207961706162696c69722e600082015250565b7f53747564656e74206e6f74206578697374730000000000000000000000000000600082015250565b7f42752069736c656d6920736164656365204b757273207961706162696c69722e600082015250565b60038110612c8d57612c8c612b4f565b5b50565b60038110612ca157612ca0612b4f565b5b50565b60048110612cb557612cb4612b4f565b5b50565b612cc18161292c565b8114612ccc57600080fd5b50565b60038110612cdc57600080fd5b50565b612ce8816129b1565b8114612cf357600080fd5b50565b612cff816129bb565b8114612d0a57600080fd5b50565b612d16816129cb565b8114612d2157600080fd5b5056fea2646970667358221220c5199d23b88061ad5a2bb3613d7e4c36d2ef3bf0ca0eb9f51b983e28e0d5c8b364736f6c63430008070033",
					"opcodes": "PUSH1 0x80 PUSH1 0x40 MSTORE CALLVALUE DUP1 ISZERO PUSH2 0x10 JUMPI PUSH1 0x0 DUP1 REVERT JUMPDEST POP PUSH2 0x2D5A DUP1 PUSH2 0x20 PUSH1 0x0 CODECOPY PUSH1 0x0 RETURN INVALID PUSH1 0x80 PUSH1 0x40 MSTORE CALLVALUE DUP1 ISZERO PUSH2 0x10 JUMPI PUSH1 0x0 DUP1 REVERT JUMPDEST POP PUSH1 0x4 CALLDATASIZE LT PUSH2 0xEA JUMPI PUSH1 0x0 CALLDATALOAD PUSH1 0xE0 SHR DUP1 PUSH4 0x7D0FA287 GT PUSH2 0x8C JUMPI DUP1 PUSH4 0xAC30910C GT PUSH2 0x66 JUMPI DUP1 PUSH4 0xAC30910C EQ PUSH2 0x2D3 JUMPI DUP1 PUSH4 0xAF640D0F EQ PUSH2 0x2EF JUMPI DUP1 PUSH4 0xBA479B7E EQ PUSH2 0x30D JUMPI DUP1 PUSH4 0xCBC92809 EQ PUSH2 0x342 JUMPI PUSH2 0xEA JUMP JUMPDEST DUP1 PUSH4 0x7D0FA287 EQ PUSH2 0x23E JUMPI DUP1 PUSH4 0x9A8C9119 EQ PUSH2 0x270 JUMPI DUP1 PUSH4 0xA4E7AE05 EQ PUSH2 0x2A2 JUMPI PUSH2 0xEA JUMP JUMPDEST DUP1 PUSH4 0x28266697 GT PUSH2 0xC8 JUMPI DUP1 PUSH4 0x28266697 EQ PUSH2 0x177 JUMPI DUP1 PUSH4 0x356B1F1E EQ PUSH2 0x1A9 JUMPI DUP1 PUSH4 0x39987F94 EQ PUSH2 0x1DB JUMPI DUP1 PUSH4 0x62BDA16B EQ PUSH2 0x20E JUMPI PUSH2 0xEA JUMP JUMPDEST DUP1 PUSH4 0x35963CE EQ PUSH2 0xEF JUMPI DUP1 PUSH4 0xFB0B1B2 EQ PUSH2 0x10B JUMPI DUP1 PUSH4 0x1916E139 EQ PUSH2 0x145 JUMPI JUMPDEST PUSH1 0x0 DUP1 REVERT JUMPDEST PUSH2 0x109 PUSH1 0x4 DUP1 CALLDATASIZE SUB DUP2 ADD SWAP1 PUSH2 0x104 SWAP2 SWAP1 PUSH2 0x234A JUMP JUMPDEST PUSH2 0x372 JUMP JUMPDEST STOP JUMPDEST PUSH2 0x125 PUSH1 0x4 DUP1 CALLDATASIZE SUB DUP2 ADD SWAP1 PUSH2 0x120 SWAP2 SWAP1 PUSH2 0x220F JUMP JUMPDEST PUSH2 0x954 JUMP JUMPDEST PUSH1 0x40 MLOAD PUSH2 0x13C SWAP12 SWAP11 SWAP10 SWAP9 SWAP8 SWAP7 SWAP6 SWAP5 SWAP4 SWAP3 SWAP2 SWAP1 PUSH2 0x27D8 JUMP JUMPDEST PUSH1 0x40 MLOAD DUP1 SWAP2 SUB SWAP1 RETURN JUMPDEST PUSH2 0x15F PUSH1 0x4 DUP1 CALLDATASIZE SUB DUP2 ADD SWAP1 PUSH2 0x15A SWAP2 SWAP1 PUSH2 0x21E2 JUMP JUMPDEST PUSH2 0xB4F JUMP JUMPDEST PUSH1 0x40 MLOAD PUSH2 0x16E SWAP4 SWAP3 SWAP2 SWAP1 PUSH2 0x26D3 JUMP JUMPDEST PUSH1 0x40 MLOAD DUP1 SWAP2 SUB SWAP1 RETURN JUMPDEST PUSH2 0x191 PUSH1 0x4 DUP1 CALLDATASIZE SUB DUP2 ADD SWAP1 PUSH2 0x18C SWAP2 SWAP1 PUSH2 0x21E2 JUMP JUMPDEST PUSH2 0xC1B JUMP JUMPDEST PUSH1 0x40 MLOAD PUSH2 0x1A0 SWAP4 SWAP3 SWAP2 SWAP1 PUSH2 0x26D3 JUMP JUMPDEST PUSH1 0x40 MLOAD DUP1 SWAP2 SUB SWAP1 RETURN JUMPDEST PUSH2 0x1C3 PUSH1 0x4 DUP1 CALLDATASIZE SUB DUP2 ADD SWAP1 PUSH2 0x1BE SWAP2 SWAP1 PUSH2 0x21E2 JUMP JUMPDEST PUSH2 0xCE7 JUMP JUMPDEST PUSH1 0x40 MLOAD PUSH2 0x1D2 SWAP4 SWAP3 SWAP2 SWAP1 PUSH2 0x26D3 JUMP JUMPDEST PUSH1 0x40 MLOAD DUP1 SWAP2 SUB SWAP1 RETURN JUMPDEST PUSH2 0x1F5 PUSH1 0x4 DUP1 CALLDATASIZE SUB DUP2 ADD SWAP1 PUSH2 0x1F0 SWAP2 SWAP1 PUSH2 0x21E2 JUMP JUMPDEST PUSH2 0xDB3 JUMP JUMPDEST PUSH1 0x40 MLOAD PUSH2 0x205 SWAP5 SWAP4 SWAP3 SWAP2 SWAP1 PUSH2 0x2711 JUMP JUMPDEST PUSH1 0x40 MLOAD DUP1 SWAP2 SUB SWAP1 RETURN JUMPDEST PUSH2 0x228 PUSH1 0x4 DUP1 CALLDATASIZE SUB DUP2 ADD SWAP1 PUSH2 0x223 SWAP2 SWAP1 PUSH2 0x224F JUMP JUMPDEST PUSH2 0xE85 JUMP JUMPDEST PUSH1 0x40 MLOAD PUSH2 0x235 SWAP2 SWAP1 PUSH2 0x27BD JUMP JUMPDEST PUSH1 0x40 MLOAD DUP1 SWAP2 SUB SWAP1 RETURN JUMPDEST PUSH2 0x258 PUSH1 0x4 DUP1 CALLDATASIZE SUB DUP2 ADD SWAP1 PUSH2 0x253 SWAP2 SWAP1 PUSH2 0x21E2 JUMP JUMPDEST PUSH2 0x155F JUMP JUMPDEST PUSH1 0x40 MLOAD PUSH2 0x267 SWAP4 SWAP3 SWAP2 SWAP1 PUSH2 0x26D3 JUMP JUMPDEST PUSH1 0x40 MLOAD DUP1 SWAP2 SUB SWAP1 RETURN JUMPDEST PUSH2 0x28A PUSH1 0x4 DUP1 CALLDATASIZE SUB DUP2 ADD SWAP1 PUSH2 0x285 SWAP2 SWAP1 PUSH2 0x21E2 JUMP JUMPDEST PUSH2 0x162B JUMP JUMPDEST PUSH1 0x40 MLOAD PUSH2 0x299 SWAP4 SWAP3 SWAP2 SWAP1 PUSH2 0x26D3 JUMP JUMPDEST PUSH1 0x40 MLOAD DUP1 SWAP2 SUB SWAP1 RETURN JUMPDEST PUSH2 0x2BC PUSH1 0x4 DUP1 CALLDATASIZE SUB DUP2 ADD SWAP1 PUSH2 0x2B7 SWAP2 SWAP1 PUSH2 0x2430 JUMP JUMPDEST PUSH2 0x16F7 JUMP JUMPDEST PUSH1 0x40 MLOAD PUSH2 0x2CA SWAP3 SWAP2 SWAP1 PUSH2 0x288A JUMP JUMPDEST PUSH1 0x40 MLOAD DUP1 SWAP2 SUB SWAP1 RETURN JUMPDEST PUSH2 0x2ED PUSH1 0x4 DUP1 CALLDATASIZE SUB DUP2 ADD SWAP1 PUSH2 0x2E8 SWAP2 SWAP1 PUSH2 0x234A JUMP JUMPDEST PUSH2 0x17B3 JUMP JUMPDEST STOP JUMPDEST PUSH2 0x2F7 PUSH2 0x1EA1 JUMP JUMPDEST PUSH1 0x40 MLOAD PUSH2 0x304 SWAP2 SWAP1 PUSH2 0x27BD JUMP JUMPDEST PUSH1 0x40 MLOAD DUP1 SWAP2 SUB SWAP1 RETURN JUMPDEST PUSH2 0x327 PUSH1 0x4 DUP1 CALLDATASIZE SUB DUP2 ADD SWAP1 PUSH2 0x322 SWAP2 SWAP1 PUSH2 0x21E2 JUMP JUMPDEST PUSH2 0x1EA7 JUMP JUMPDEST PUSH1 0x40 MLOAD PUSH2 0x339 SWAP7 SWAP6 SWAP5 SWAP4 SWAP3 SWAP2 SWAP1 PUSH2 0x2664 JUMP JUMPDEST PUSH1 0x40 MLOAD DUP1 SWAP2 SUB SWAP1 RETURN JUMPDEST PUSH2 0x35C PUSH1 0x4 DUP1 CALLDATASIZE SUB DUP2 ADD SWAP1 PUSH2 0x357 SWAP2 SWAP1 PUSH2 0x21E2 JUMP JUMPDEST PUSH2 0x203B JUMP JUMPDEST PUSH1 0x40 MLOAD PUSH2 0x369 SWAP2 SWAP1 PUSH2 0x2649 JUMP JUMPDEST PUSH1 0x40 MLOAD DUP1 SWAP2 SUB SWAP1 RETURN JUMPDEST PUSH1 0x3 PUSH1 0x0 CALLER PUSH20 0xFFFFFFFFFFFFFFFFFFFFFFFFFFFFFFFFFFFFFFFF AND PUSH20 0xFFFFFFFFFFFFFFFFFFFFFFFFFFFFFFFFFFFFFFFF AND DUP2 MSTORE PUSH1 0x20 ADD SWAP1 DUP2 MSTORE PUSH1 0x20 ADD PUSH1 0x0 KECCAK256 PUSH1 0x0 ADD PUSH1 0x0 SWAP1 SLOAD SWAP1 PUSH2 0x100 EXP SWAP1 DIV PUSH1 0xFF AND PUSH2 0x401 JUMPI PUSH1 0x40 MLOAD PUSH32 0x8C379A000000000000000000000000000000000000000000000000000000000 DUP2 MSTORE PUSH1 0x4 ADD PUSH2 0x3F8 SWAP1 PUSH2 0x275D JUMP JUMPDEST PUSH1 0x40 MLOAD DUP1 SWAP2 SUB SWAP1 REVERT JUMPDEST PUSH1 0x3 PUSH1 0x0 CALLER PUSH20 0xFFFFFFFFFFFFFFFFFFFFFFFFFFFFFFFFFFFFFFFF AND PUSH20 0xFFFFFFFFFFFFFFFFFFFFFFFFFFFFFFFFFFFFFFFF AND DUP2 MSTORE PUSH1 0x20 ADD SWAP1 DUP2 MSTORE PUSH1 0x20 ADD PUSH1 0x0 KECCAK256 PUSH1 0x0 ADD PUSH1 0x0 SWAP1 SLOAD SWAP1 PUSH2 0x100 EXP SWAP1 DIV PUSH1 0xFF AND PUSH2 0x490 JUMPI PUSH1 0x40 MLOAD PUSH32 0x8C379A000000000000000000000000000000000000000000000000000000000 DUP2 MSTORE PUSH1 0x4 ADD PUSH2 0x487 SWAP1 PUSH2 0x277D JUMP JUMPDEST PUSH1 0x40 MLOAD DUP1 SWAP2 SUB SWAP1 REVERT JUMPDEST PUSH1 0x0 PUSH1 0xC PUSH1 0x0 DUP2 SLOAD DUP1 SWAP3 SWAP2 SWAP1 PUSH2 0x4A5 SWAP1 PUSH2 0x2AD7 JUMP JUMPDEST SWAP2 SWAP1 POP SSTORE SWAP1 POP DUP10 PUSH1 0xD PUSH1 0x0 CALLER PUSH20 0xFFFFFFFFFFFFFFFFFFFFFFFFFFFFFFFFFFFFFFFF AND PUSH20 0xFFFFFFFFFFFFFFFFFFFFFFFFFFFFFFFFFFFFFFFF AND DUP2 MSTORE PUSH1 0x20 ADD SWAP1 DUP2 MSTORE PUSH1 0x20 ADD PUSH1 0x0 KECCAK256 PUSH1 0x0 DUP4 DUP2 MSTORE PUSH1 0x20 ADD SWAP1 DUP2 MSTORE PUSH1 0x20 ADD PUSH1 0x0 KECCAK256 PUSH1 0x1 ADD PUSH1 0x0 PUSH2 0x100 EXP DUP2 SLOAD DUP2 PUSH20 0xFFFFFFFFFFFFFFFFFFFFFFFFFFFFFFFFFFFFFFFF MUL NOT AND SWAP1 DUP4 PUSH20 0xFFFFFFFFFFFFFFFFFFFFFFFFFFFFFFFFFFFFFFFF AND MUL OR SWAP1 SSTORE POP DUP9 PUSH1 0xD PUSH1 0x0 CALLER PUSH20 0xFFFFFFFFFFFFFFFFFFFFFFFFFFFFFFFFFFFFFFFF AND PUSH20 0xFFFFFFFFFFFFFFFFFFFFFFFFFFFFFFFFFFFFFFFF AND DUP2 MSTORE PUSH1 0x20 ADD SWAP1 DUP2 MSTORE PUSH1 0x20 ADD PUSH1 0x0 KECCAK256 PUSH1 0x0 DUP4 DUP2 MSTORE PUSH1 0x20 ADD SWAP1 DUP2 MSTORE PUSH1 0x20 ADD PUSH1 0x0 KECCAK256 PUSH1 0x1 ADD PUSH1 0x14 PUSH2 0x100 EXP DUP2 SLOAD DUP2 PUSH4 0xFFFFFFFF MUL NOT AND SWAP1 DUP4 PUSH4 0xFFFFFFFF AND MUL OR SWAP1 SSTORE POP DUP8 PUSH1 0xD PUSH1 0x0 CALLER PUSH20 0xFFFFFFFFFFFFFFFFFFFFFFFFFFFFFFFFFFFFFFFF AND PUSH20 0xFFFFFFFFFFFFFFFFFFFFFFFFFFFFFFFFFFFFFFFF AND DUP2 MSTORE PUSH1 0x20 ADD SWAP1 DUP2 MSTORE PUSH1 0x20 ADD PUSH1 0x0 KECCAK256 PUSH1 0x0 DUP4 DUP2 MSTORE PUSH1 0x20 ADD SWAP1 DUP2 MSTORE PUSH1 0x20 ADD PUSH1 0x0 KECCAK256 PUSH1 0x1 ADD PUSH1 0x18 PUSH2 0x100 EXP DUP2 SLOAD DUP2 PUSH1 0xFF MUL NOT AND SWAP1 DUP4 PUSH1 0xFF AND MUL OR SWAP1 SSTORE POP DUP7 PUSH1 0xD PUSH1 0x0 CALLER PUSH20 0xFFFFFFFFFFFFFFFFFFFFFFFFFFFFFFFFFFFFFFFF AND PUSH20 0xFFFFFFFFFFFFFFFFFFFFFFFFFFFFFFFFFFFFFFFF AND DUP2 MSTORE PUSH1 0x20 ADD SWAP1 DUP2 MSTORE PUSH1 0x20 ADD PUSH1 0x0 KECCAK256 PUSH1 0x0 DUP4 DUP2 MSTORE PUSH1 0x20 ADD SWAP1 DUP2 MSTORE PUSH1 0x20 ADD PUSH1 0x0 KECCAK256 PUSH1 0x1 ADD PUSH1 0x19 PUSH2 0x100 EXP DUP2 SLOAD DUP2 PUSH1 0xFF MUL NOT AND SWAP1 DUP4 PUSH1 0x2 DUP2 GT ISZERO PUSH2 0x691 JUMPI PUSH2 0x690 PUSH2 0x2B4F JUMP JUMPDEST JUMPDEST MUL OR SWAP1 SSTORE POP DUP6 PUSH1 0xD PUSH1 0x0 CALLER PUSH20 0xFFFFFFFFFFFFFFFFFFFFFFFFFFFFFFFFFFFFFFFF AND PUSH20 0xFFFFFFFFFFFFFFFFFFFFFFFFFFFFFFFFFFFFFFFF AND DUP2 MSTORE PUSH1 0x20 ADD SWAP1 DUP2 MSTORE PUSH1 0x20 ADD PUSH1 0x0 KECCAK256 PUSH1 0x0 DUP4 DUP2 MSTORE PUSH1 0x20 ADD SWAP1 DUP2 MSTORE PUSH1 0x20 ADD PUSH1 0x0 KECCAK256 PUSH1 0x2 ADD SWAP1 DUP1 MLOAD SWAP1 PUSH1 0x20 ADD SWAP1 PUSH2 0x6FD SWAP3 SWAP2 SWAP1 PUSH2 0x2066 JUMP JUMPDEST POP DUP5 PUSH1 0xD PUSH1 0x0 CALLER PUSH20 0xFFFFFFFFFFFFFFFFFFFFFFFFFFFFFFFFFFFFFFFF AND PUSH20 0xFFFFFFFFFFFFFFFFFFFFFFFFFFFFFFFFFFFFFFFF AND DUP2 MSTORE PUSH1 0x20 ADD SWAP1 DUP2 MSTORE PUSH1 0x20 ADD PUSH1 0x0 KECCAK256 PUSH1 0x0 DUP4 DUP2 MSTORE PUSH1 0x20 ADD SWAP1 DUP2 MSTORE PUSH1 0x20 ADD PUSH1 0x0 KECCAK256 PUSH1 0x3 ADD DUP2 SWAP1 SSTORE POP DUP4 PUSH1 0xD PUSH1 0x0 CALLER PUSH20 0xFFFFFFFFFFFFFFFFFFFFFFFFFFFFFFFFFFFFFFFF AND PUSH20 0xFFFFFFFFFFFFFFFFFFFFFFFFFFFFFFFFFFFFFFFF AND DUP2 MSTORE PUSH1 0x20 ADD SWAP1 DUP2 MSTORE PUSH1 0x20 ADD PUSH1 0x0 KECCAK256 PUSH1 0x0 DUP4 DUP2 MSTORE PUSH1 0x20 ADD SWAP1 DUP2 MSTORE PUSH1 0x20 ADD PUSH1 0x0 KECCAK256 PUSH1 0x4 ADD DUP2 SWAP1 SSTORE POP DUP3 PUSH1 0xD PUSH1 0x0 CALLER PUSH20 0xFFFFFFFFFFFFFFFFFFFFFFFFFFFFFFFFFFFFFFFF AND PUSH20 0xFFFFFFFFFFFFFFFFFFFFFFFFFFFFFFFFFFFFFFFF AND DUP2 MSTORE PUSH1 0x20 ADD SWAP1 DUP2 MSTORE PUSH1 0x20 ADD PUSH1 0x0 KECCAK256 PUSH1 0x0 DUP4 DUP2 MSTORE PUSH1 0x20 ADD SWAP1 DUP2 MSTORE PUSH1 0x20 ADD PUSH1 0x0 KECCAK256 PUSH1 0x5 ADD PUSH1 0x0 PUSH2 0x100 EXP DUP2 SLOAD DUP2 PUSH1 0xFF MUL NOT AND SWAP1 DUP4 PUSH1 0xFF AND MUL OR SWAP1 SSTORE POP DUP2 PUSH1 0xD PUSH1 0x0 CALLER PUSH20 0xFFFFFFFFFFFFFFFFFFFFFFFFFFFFFFFFFFFFFFFF AND PUSH20 0xFFFFFFFFFFFFFFFFFFFFFFFFFFFFFFFFFFFFFFFF AND DUP2 MSTORE PUSH1 0x20 ADD SWAP1 DUP2 MSTORE PUSH1 0x20 ADD PUSH1 0x0 KECCAK256 PUSH1 0x0 DUP4 DUP2 MSTORE PUSH1 0x20 ADD SWAP1 DUP2 MSTORE PUSH1 0x20 ADD PUSH1 0x0 KECCAK256 PUSH1 0x5 ADD PUSH1 0x1 PUSH2 0x100 EXP DUP2 SLOAD DUP2 PUSH4 0xFFFFFFFF MUL NOT AND SWAP1 DUP4 PUSH4 0xFFFFFFFF AND MUL OR SWAP1 SSTORE POP PUSH1 0x0 PUSH1 0xD PUSH1 0x0 CALLER PUSH20 0xFFFFFFFFFFFFFFFFFFFFFFFFFFFFFFFFFFFFFFFF AND PUSH20 0xFFFFFFFFFFFFFFFFFFFFFFFFFFFFFFFFFFFFFFFF AND DUP2 MSTORE PUSH1 0x20 ADD SWAP1 DUP2 MSTORE PUSH1 0x20 ADD PUSH1 0x0 KECCAK256 PUSH1 0x0 DUP4 DUP2 MSTORE PUSH1 0x20 ADD SWAP1 DUP2 MSTORE PUSH1 0x20 ADD PUSH1 0x0 KECCAK256 PUSH1 0x6 ADD PUSH1 0x1 ADD PUSH1 0x14 PUSH2 0x100 EXP DUP2 SLOAD DUP2 PUSH1 0xFF MUL NOT AND SWAP1 DUP4 PUSH1 0x2 DUP2 GT ISZERO PUSH2 0x906 JUMPI PUSH2 0x905 PUSH2 0x2B4F JUMP JUMPDEST JUMPDEST MUL OR SWAP1 SSTORE POP PUSH32 0xB1E7EE8400131F0ADC507179EA96EE8EB90B1A9E9215CE4232F874CB41AA88EF DUP11 DUP5 DUP12 DUP12 PUSH1 0x40 MLOAD PUSH2 0x940 SWAP5 SWAP4 SWAP3 SWAP2 SWAP1 PUSH2 0x2604 JUMP JUMPDEST PUSH1 0x40 MLOAD DUP1 SWAP2 SUB SWAP1 LOG1 POP POP POP POP POP POP POP POP POP POP JUMP JUMPDEST PUSH1 0xD PUSH1 0x20 MSTORE DUP2 PUSH1 0x0 MSTORE PUSH1 0x40 PUSH1 0x0 KECCAK256 PUSH1 0x20 MSTORE DUP1 PUSH1 0x0 MSTORE PUSH1 0x40 PUSH1 0x0 KECCAK256 PUSH1 0x0 SWAP2 POP SWAP2 POP POP DUP1 PUSH1 0x0 ADD SLOAD SWAP1 DUP1 PUSH1 0x1 ADD PUSH1 0x0 SWAP1 SLOAD SWAP1 PUSH2 0x100 EXP SWAP1 DIV PUSH20 0xFFFFFFFFFFFFFFFFFFFFFFFFFFFFFFFFFFFFFFFF AND SWAP1 DUP1 PUSH1 0x1 ADD PUSH1 0x14 SWAP1 SLOAD SWAP1 PUSH2 0x100 EXP SWAP1 DIV PUSH4 0xFFFFFFFF AND SWAP1 DUP1 PUSH1 0x1 ADD PUSH1 0x18 SWAP1 SLOAD SWAP1 PUSH2 0x100 EXP SWAP1 DIV PUSH1 0xFF AND SWAP1 DUP1 PUSH1 0x1 ADD PUSH1 0x19 SWAP1 SLOAD SWAP1 PUSH2 0x100 EXP SWAP1 DIV PUSH1 0xFF AND SWAP1 DUP1 PUSH1 0x2 ADD DUP1 SLOAD PUSH2 0x9EC SWAP1 PUSH2 0x2A74 JUMP JUMPDEST DUP1 PUSH1 0x1F ADD PUSH1 0x20 DUP1 SWAP2 DIV MUL PUSH1 0x20 ADD PUSH1 0x40 MLOAD SWAP1 DUP2 ADD PUSH1 0x40 MSTORE DUP1 SWAP3 SWAP2 SWAP1 DUP2 DUP2 MSTORE PUSH1 0x20 ADD DUP3 DUP1 SLOAD PUSH2 0xA18 SWAP1 PUSH2 0x2A74 JUMP JUMPDEST DUP1 ISZERO PUSH2 0xA65 JUMPI DUP1 PUSH1 0x1F LT PUSH2 0xA3A JUMPI PUSH2 0x100 DUP1 DUP4 SLOAD DIV MUL DUP4 MSTORE SWAP2 PUSH1 0x20 ADD SWAP2 PUSH2 0xA65 JUMP JUMPDEST DUP3 ADD SWAP2 SWAP1 PUSH1 0x0 MSTORE PUSH1 0x20 PUSH1 0x0 KECCAK256 SWAP1 JUMPDEST DUP2 SLOAD DUP2 MSTORE SWAP1 PUSH1 0x1 ADD SWAP1 PUSH1 0x20 ADD DUP1 DUP4 GT PUSH2 0xA48 JUMPI DUP3 SWAP1 SUB PUSH1 0x1F AND DUP3 ADD SWAP2 JUMPDEST POP POP POP POP POP SWAP1 DUP1 PUSH1 0x3 ADD SLOAD SWAP1 DUP1 PUSH1 0x4 ADD SLOAD SWAP1 DUP1 PUSH1 0x5 ADD PUSH1 0x0 SWAP1 SLOAD SWAP1 PUSH2 0x100 EXP SWAP1 DIV PUSH1 0xFF AND SWAP1 DUP1 PUSH1 0x5 ADD PUSH1 0x1 SWAP1 SLOAD SWAP1 PUSH2 0x100 EXP SWAP1 DIV PUSH4 0xFFFFFFFF AND SWAP1 DUP1 PUSH1 0x6 ADD PUSH1 0x40 MLOAD DUP1 PUSH1 0x60 ADD PUSH1 0x40 MSTORE SWAP1 DUP2 PUSH1 0x0 DUP3 ADD SLOAD DUP2 MSTORE PUSH1 0x20 ADD PUSH1 0x1 DUP3 ADD PUSH1 0x0 SWAP1 SLOAD SWAP1 PUSH2 0x100 EXP SWAP1 DIV PUSH20 0xFFFFFFFFFFFFFFFFFFFFFFFFFFFFFFFFFFFFFFFF AND PUSH20 0xFFFFFFFFFFFFFFFFFFFFFFFFFFFFFFFFFFFFFFFF AND PUSH20 0xFFFFFFFFFFFFFFFFFFFFFFFFFFFFFFFFFFFFFFFF AND DUP2 MSTORE PUSH1 0x20 ADD PUSH1 0x1 DUP3 ADD PUSH1 0x14 SWAP1 SLOAD SWAP1 PUSH2 0x100 EXP SWAP1 DIV PUSH1 0xFF AND PUSH1 0x2 DUP2 GT ISZERO PUSH2 0xB34 JUMPI PUSH2 0xB33 PUSH2 0x2B4F JUMP JUMPDEST JUMPDEST PUSH1 0x2 DUP2 GT ISZERO PUSH2 0xB46 JUMPI PUSH2 0xB45 PUSH2 0x2B4F JUMP JUMPDEST JUMPDEST DUP2 MSTORE POP POP SWAP1 POP DUP12 JUMP JUMPDEST PUSH1 0x7 PUSH1 0x20 MSTORE DUP1 PUSH1 0x0 MSTORE PUSH1 0x40 PUSH1 0x0 KECCAK256 PUSH1 0x0 SWAP2 POP SWAP1 POP DUP1 PUSH1 0x0 ADD PUSH1 0x0 SWAP1 SLOAD SWAP1 PUSH2 0x100 EXP SWAP1 DIV PUSH1 0xFF AND SWAP1 DUP1 PUSH1 0x1 ADD DUP1 SLOAD PUSH2 0xB85 SWAP1 PUSH2 0x2A74 JUMP JUMPDEST DUP1 PUSH1 0x1F ADD PUSH1 0x20 DUP1 SWAP2 DIV MUL PUSH1 0x20 ADD PUSH1 0x40 MLOAD SWAP1 DUP2 ADD PUSH1 0x40 MSTORE DUP1 SWAP3 SWAP2 SWAP1 DUP2 DUP2 MSTORE PUSH1 0x20 ADD DUP3 DUP1 SLOAD PUSH2 0xBB1 SWAP1 PUSH2 0x2A74 JUMP JUMPDEST DUP1 ISZERO PUSH2 0xBFE JUMPI DUP1 PUSH1 0x1F LT PUSH2 0xBD3 JUMPI PUSH2 0x100 DUP1 DUP4 SLOAD DIV MUL DUP4 MSTORE SWAP2 PUSH1 0x20 ADD SWAP2 PUSH2 0xBFE JUMP JUMPDEST DUP3 ADD SWAP2 SWAP1 PUSH1 0x0 MSTORE PUSH1 0x20 PUSH1 0x0 KECCAK256 SWAP1 JUMPDEST DUP2 SLOAD DUP2 MSTORE SWAP1 PUSH1 0x1 ADD SWAP1 PUSH1 0x20 ADD DUP1 DUP4 GT PUSH2 0xBE1 JUMPI DUP3 SWAP1 SUB PUSH1 0x1F AND DUP3 ADD SWAP2 JUMPDEST POP POP POP POP POP SWAP1 DUP1 PUSH1 0x2 ADD PUSH1 0x0 SWAP1 SLOAD SWAP1 PUSH2 0x100 EXP SWAP1 DIV PUSH1 0xFF AND SWAP1 POP DUP4 JUMP JUMPDEST PUSH1 0x4 PUSH1 0x20 MSTORE DUP1 PUSH1 0x0 MSTORE PUSH1 0x40 PUSH1 0x0 KECCAK256 PUSH1 0x0 SWAP2 POP SWAP1 POP DUP1 PUSH1 0x0 ADD PUSH1 0x0 SWAP1 SLOAD SWAP1 PUSH2 0x100 EXP SWAP1 DIV PUSH1 0xFF AND SWAP1 DUP1 PUSH1 0x1 ADD DUP1 SLOAD PUSH2 0xC51 SWAP1 PUSH2 0x2A74 JUMP JUMPDEST DUP1 PUSH1 0x1F ADD PUSH1 0x20 DUP1 SWAP2 DIV MUL PUSH1 0x20 ADD PUSH1 0x40 MLOAD SWAP1 DUP2 ADD PUSH1 0x40 MSTORE DUP1 SWAP3 SWAP2 SWAP1 DUP2 DUP2 MSTORE PUSH1 0x20 ADD DUP3 DUP1 SLOAD PUSH2 0xC7D SWAP1 PUSH2 0x2A74 JUMP JUMPDEST DUP1 ISZERO PUSH2 0xCCA JUMPI DUP1 PUSH1 0x1F LT PUSH2 0xC9F JUMPI PUSH2 0x100 DUP1 DUP4 SLOAD DIV MUL DUP4 MSTORE SWAP2 PUSH1 0x20 ADD SWAP2 PUSH2 0xCCA JUMP JUMPDEST DUP3 ADD SWAP2 SWAP1 PUSH1 0x0 MSTORE PUSH1 0x20 PUSH1 0x0 KECCAK256 SWAP1 JUMPDEST DUP2 SLOAD DUP2 MSTORE SWAP1 PUSH1 0x1 ADD SWAP1 PUSH1 0x20 ADD DUP1 DUP4 GT PUSH2 0xCAD JUMPI DUP3 SWAP1 SUB PUSH1 0x1F AND DUP3 ADD SWAP2 JUMPDEST POP POP POP POP POP SWAP1 DUP1 PUSH1 0x2 ADD PUSH1 0x0 SWAP1 SLOAD SWAP1 PUSH2 0x100 EXP SWAP1 DIV PUSH1 0xFF AND SWAP1 POP DUP4 JUMP JUMPDEST PUSH1 0xA PUSH1 0x20 MSTORE DUP1 PUSH1 0x0 MSTORE PUSH1 0x40 PUSH1 0x0 KECCAK256 PUSH1 0x0 SWAP2 POP SWAP1 POP DUP1 PUSH1 0x0 ADD PUSH1 0x0 SWAP1 SLOAD SWAP1 PUSH2 0x100 EXP SWAP1 DIV PUSH1 0xFF AND SWAP1 DUP1 PUSH1 0x1 ADD DUP1 SLOAD PUSH2 0xD1D SWAP1 PUSH2 0x2A74 JUMP JUMPDEST DUP1 PUSH1 0x1F ADD PUSH1 0x20 DUP1 SWAP2 DIV MUL PUSH1 0x20 ADD PUSH1 0x40 MLOAD SWAP1 DUP2 ADD PUSH1 0x40 MSTORE DUP1 SWAP3 SWAP2 SWAP1 DUP2 DUP2 MSTORE PUSH1 0x20 ADD DUP3 DUP1 SLOAD PUSH2 0xD49 SWAP1 PUSH2 0x2A74 JUMP JUMPDEST DUP1 ISZERO PUSH2 0xD96 JUMPI DUP1 PUSH1 0x1F LT PUSH2 0xD6B JUMPI PUSH2 0x100 DUP1 DUP4 SLOAD DIV MUL DUP4 MSTORE SWAP2 PUSH1 0x20 ADD SWAP2 PUSH2 0xD96 JUMP JUMPDEST DUP3 ADD SWAP2 SWAP1 PUSH1 0x0 MSTORE PUSH1 0x20 PUSH1 0x0 KECCAK256 SWAP1 JUMPDEST DUP2 SLOAD DUP2 MSTORE SWAP1 PUSH1 0x1 ADD SWAP1 PUSH1 0x20 ADD DUP1 DUP4 GT PUSH2 0xD79 JUMPI DUP3 SWAP1 SUB PUSH1 0x1F AND DUP3 ADD SWAP2 JUMPDEST POP POP POP POP POP SWAP1 DUP1 PUSH1 0x2 ADD PUSH1 0x0 SWAP1 SLOAD SWAP1 PUSH2 0x100 EXP SWAP1 DIV PUSH1 0xFF AND SWAP1 POP DUP4 JUMP JUMPDEST PUSH1 0x6 PUSH1 0x20 MSTORE DUP1 PUSH1 0x0 MSTORE PUSH1 0x40 PUSH1 0x0 KECCAK256 PUSH1 0x0 SWAP2 POP SWAP1 POP DUP1 PUSH1 0x0 ADD PUSH1 0x0 SWAP1 SLOAD SWAP1 PUSH2 0x100 EXP SWAP1 DIV PUSH1 0xFF AND SWAP1 DUP1 PUSH1 0x0 ADD PUSH1 0x1 SWAP1 SLOAD SWAP1 PUSH2 0x100 EXP SWAP1 DIV PUSH1 0xFF AND SWAP1 DUP1 PUSH1 0x1 ADD SLOAD SWAP1 DUP1 PUSH1 0x2 ADD DUP1 SLOAD PUSH2 0xE02 SWAP1 PUSH2 0x2A74 JUMP JUMPDEST DUP1 PUSH1 0x1F ADD PUSH1 0x20 DUP1 SWAP2 DIV MUL PUSH1 0x20 ADD PUSH1 0x40 MLOAD SWAP1 DUP2 ADD PUSH1 0x40 MSTORE DUP1 SWAP3 SWAP2 SWAP1 DUP2 DUP2 MSTORE PUSH1 0x20 ADD DUP3 DUP1 SLOAD PUSH2 0xE2E SWAP1 PUSH2 0x2A74 JUMP JUMPDEST DUP1 ISZERO PUSH2 0xE7B JUMPI DUP1 PUSH1 0x1F LT PUSH2 0xE50 JUMPI PUSH2 0x100 DUP1 DUP4 SLOAD DIV MUL DUP4 MSTORE SWAP2 PUSH1 0x20 ADD SWAP2 PUSH2 0xE7B JUMP JUMPDEST DUP3 ADD SWAP2 SWAP1 PUSH1 0x0 MSTORE PUSH1 0x20 PUSH1 0x0 KECCAK256 SWAP1 JUMPDEST DUP2 SLOAD DUP2 MSTORE SWAP1 PUSH1 0x1 ADD SWAP1 PUSH1 0x20 ADD DUP1 DUP4 GT PUSH2 0xE5E JUMPI DUP3 SWAP1 SUB PUSH1 0x1F AND DUP3 ADD SWAP2 JUMPDEST POP POP POP POP POP SWAP1 POP DUP5 JUMP JUMPDEST PUSH1 0x0 PUSH1 0x4 PUSH1 0x0 CALLER PUSH20 0xFFFFFFFFFFFFFFFFFFFFFFFFFFFFFFFFFFFFFFFF AND PUSH20 0xFFFFFFFFFFFFFFFFFFFFFFFFFFFFFFFFFFFFFFFF AND DUP2 MSTORE PUSH1 0x20 ADD SWAP1 DUP2 MSTORE PUSH1 0x20 ADD PUSH1 0x0 KECCAK256 PUSH1 0x0 ADD PUSH1 0x0 SWAP1 SLOAD SWAP1 PUSH2 0x100 EXP SWAP1 DIV PUSH1 0xFF AND DUP1 PUSH2 0xF2E JUMPI POP PUSH1 0x6 PUSH1 0x0 CALLER PUSH20 0xFFFFFFFFFFFFFFFFFFFFFFFFFFFFFFFFFFFFFFFF AND PUSH20 0xFFFFFFFFFFFFFFFFFFFFFFFFFFFFFFFFFFFFFFFF AND DUP2 MSTORE PUSH1 0x20 ADD SWAP1 DUP2 MSTORE PUSH1 0x20 ADD PUSH1 0x0 KECCAK256 PUSH1 0x0 ADD PUSH1 0x0 SWAP1 SLOAD SWAP1 PUSH2 0x100 EXP SWAP1 DIV PUSH1 0xFF AND JUMPDEST DUP1 PUSH2 0xF85 JUMPI POP PUSH1 0x8 PUSH1 0x0 CALLER PUSH20 0xFFFFFFFFFFFFFFFFFFFFFFFFFFFFFFFFFFFFFFFF AND PUSH20 0xFFFFFFFFFFFFFFFFFFFFFFFFFFFFFFFFFFFFFFFF AND DUP2 MSTORE PUSH1 0x20 ADD SWAP1 DUP2 MSTORE PUSH1 0x20 ADD PUSH1 0x0 KECCAK256 PUSH1 0x0 ADD PUSH1 0x0 SWAP1 SLOAD SWAP1 PUSH2 0x100 EXP SWAP1 DIV PUSH1 0xFF AND JUMPDEST PUSH2 0xFC4 JUMPI PUSH1 0x40 MLOAD PUSH32 0x8C379A000000000000000000000000000000000000000000000000000000000 DUP2 MSTORE PUSH1 0x4 ADD PUSH2 0xFBB SWAP1 PUSH2 0x279D JUMP JUMPDEST PUSH1 0x40 MLOAD DUP1 SWAP2 SUB SWAP1 REVERT JUMPDEST PUSH1 0x3 PUSH1 0x0 DUP13 PUSH20 0xFFFFFFFFFFFFFFFFFFFFFFFFFFFFFFFFFFFFFFFF AND PUSH20 0xFFFFFFFFFFFFFFFFFFFFFFFFFFFFFFFFFFFFFFFF AND DUP2 MSTORE PUSH1 0x20 ADD SWAP1 DUP2 MSTORE PUSH1 0x20 ADD PUSH1 0x0 KECCAK256 PUSH1 0x0 ADD PUSH1 0x0 SWAP1 SLOAD SWAP1 PUSH2 0x100 EXP SWAP1 DIV PUSH1 0xFF AND PUSH2 0x1053 JUMPI PUSH1 0x40 MLOAD PUSH32 0x8C379A000000000000000000000000000000000000000000000000000000000 DUP2 MSTORE PUSH1 0x4 ADD PUSH2 0x104A SWAP1 PUSH2 0x277D JUMP JUMPDEST PUSH1 0x40 MLOAD DUP1 SWAP2 SUB SWAP1 REVERT JUMPDEST DUP9 PUSH1 0xD PUSH1 0x0 DUP14 PUSH20 0xFFFFFFFFFFFFFFFFFFFFFFFFFFFFFFFFFFFFFFFF AND PUSH20 0xFFFFFFFFFFFFFFFFFFFFFFFFFFFFFFFFFFFFFFFF AND DUP2 MSTORE PUSH1 0x20 ADD SWAP1 DUP2 MSTORE PUSH1 0x20 ADD PUSH1 0x0 KECCAK256 PUSH1 0x0 DUP13 DUP2 MSTORE PUSH1 0x20 ADD SWAP1 DUP2 MSTORE PUSH1 0x20 ADD PUSH1 0x0 KECCAK256 PUSH1 0x1 ADD PUSH1 0x14 PUSH2 0x100 EXP DUP2 SLOAD DUP2 PUSH4 0xFFFFFFFF MUL NOT AND SWAP1 DUP4 PUSH4 0xFFFFFFFF AND MUL OR SWAP1 SSTORE POP DUP8 PUSH1 0xD PUSH1 0x0 DUP14 PUSH20 0xFFFFFFFFFFFFFFFFFFFFFFFFFFFFFFFFFFFFFFFF AND PUSH20 0xFFFFFFFFFFFFFFFFFFFFFFFFFFFFFFFFFFFFFFFF AND DUP2 MSTORE PUSH1 0x20 ADD SWAP1 DUP2 MSTORE PUSH1 0x20 ADD PUSH1 0x0 KECCAK256 PUSH1 0x0 DUP13 DUP2 MSTORE PUSH1 0x20 ADD SWAP1 DUP2 MSTORE PUSH1 0x20 ADD PUSH1 0x0 KECCAK256 PUSH1 0x1 ADD PUSH1 0x18 PUSH2 0x100 EXP DUP2 SLOAD DUP2 PUSH1 0xFF MUL NOT AND SWAP1 DUP4 PUSH1 0xFF AND MUL OR SWAP1 SSTORE POP DUP7 PUSH1 0xD PUSH1 0x0 DUP14 PUSH20 0xFFFFFFFFFFFFFFFFFFFFFFFFFFFFFFFFFFFFFFFF AND PUSH20 0xFFFFFFFFFFFFFFFFFFFFFFFFFFFFFFFFFFFFFFFF AND DUP2 MSTORE PUSH1 0x20 ADD SWAP1 DUP2 MSTORE PUSH1 0x20 ADD PUSH1 0x0 KECCAK256 PUSH1 0x0 DUP13 DUP2 MSTORE PUSH1 0x20 ADD SWAP1 DUP2 MSTORE PUSH1 0x20 ADD PUSH1 0x0 KECCAK256 PUSH1 0x1 ADD PUSH1 0x19 PUSH2 0x100 EXP DUP2 SLOAD DUP2 PUSH1 0xFF MUL NOT AND SWAP1 DUP4 PUSH1 0x2 DUP2 GT ISZERO PUSH2 0x11A7 JUMPI PUSH2 0x11A6 PUSH2 0x2B4F JUMP JUMPDEST JUMPDEST MUL OR SWAP1 SSTORE POP DUP6 PUSH1 0xD PUSH1 0x0 DUP14 PUSH20 0xFFFFFFFFFFFFFFFFFFFFFFFFFFFFFFFFFFFFFFFF AND PUSH20 0xFFFFFFFFFFFFFFFFFFFFFFFFFFFFFFFFFFFFFFFF AND DUP2 MSTORE PUSH1 0x20 ADD SWAP1 DUP2 MSTORE PUSH1 0x20 ADD PUSH1 0x0 KECCAK256 PUSH1 0x0 DUP13 DUP2 MSTORE PUSH1 0x20 ADD SWAP1 DUP2 MSTORE PUSH1 0x20 ADD PUSH1 0x0 KECCAK256 PUSH1 0x2 ADD SWAP1 DUP1 MLOAD SWAP1 PUSH1 0x20 ADD SWAP1 PUSH2 0x1213 SWAP3 SWAP2 SWAP1 PUSH2 0x2066 JUMP JUMPDEST POP DUP5 PUSH1 0xD PUSH1 0x0 DUP14 PUSH20 0xFFFFFFFFFFFFFFFFFFFFFFFFFFFFFFFFFFFFFFFF AND PUSH20 0xFFFFFFFFFFFFFFFFFFFFFFFFFFFFFFFFFFFFFFFF AND DUP2 MSTORE PUSH1 0x20 ADD SWAP1 DUP2 MSTORE PUSH1 0x20 ADD PUSH1 0x0 KECCAK256 PUSH1 0x0 DUP13 DUP2 MSTORE PUSH1 0x20 ADD SWAP1 DUP2 MSTORE PUSH1 0x20 ADD PUSH1 0x0 KECCAK256 PUSH1 0x3 ADD DUP2 SWAP1 SSTORE POP DUP4 PUSH1 0xD PUSH1 0x0 DUP14 PUSH20 0xFFFFFFFFFFFFFFFFFFFFFFFFFFFFFFFFFFFFFFFF AND PUSH20 0xFFFFFFFFFFFFFFFFFFFFFFFFFFFFFFFFFFFFFFFF AND DUP2 MSTORE PUSH1 0x20 ADD SWAP1 DUP2 MSTORE PUSH1 0x20 ADD PUSH1 0x0 KECCAK256 PUSH1 0x0 DUP13 DUP2 MSTORE PUSH1 0x20 ADD SWAP1 DUP2 MSTORE PUSH1 0x20 ADD PUSH1 0x0 KECCAK256 PUSH1 0x4 ADD DUP2 SWAP1 SSTORE POP DUP3 PUSH1 0xD PUSH1 0x0 DUP14 PUSH20 0xFFFFFFFFFFFFFFFFFFFFFFFFFFFFFFFFFFFFFFFF AND PUSH20 0xFFFFFFFFFFFFFFFFFFFFFFFFFFFFFFFFFFFFFFFF AND DUP2 MSTORE PUSH1 0x20 ADD SWAP1 DUP2 MSTORE PUSH1 0x20 ADD PUSH1 0x0 KECCAK256 PUSH1 0x0 DUP13 DUP2 MSTORE PUSH1 0x20 ADD SWAP1 DUP2 MSTORE PUSH1 0x20 ADD PUSH1 0x0 KECCAK256 PUSH1 0x5 ADD PUSH1 0x0 PUSH2 0x100 EXP DUP2 SLOAD DUP2 PUSH1 0xFF MUL NOT AND SWAP1 DUP4 PUSH1 0xFF AND MUL OR SWAP1 SSTORE POP DUP2 PUSH1 0xD PUSH1 0x0 DUP14 PUSH20 0xFFFFFFFFFFFFFFFFFFFFFFFFFFFFFFFFFFFFFFFF AND PUSH20 0xFFFFFFFFFFFFFFFFFFFFFFFFFFFFFFFFFFFFFFFF AND DUP2 MSTORE PUSH1 0x20 ADD SWAP1 DUP2 MSTORE PUSH1 0x20 ADD PUSH1 0x0 KECCAK256 PUSH1 0x0 DUP13 DUP2 MSTORE PUSH1 0x20 ADD SWAP1 DUP2 MSTORE PUSH1 0x20 ADD PUSH1 0x0 KECCAK256 PUSH1 0x5 ADD PUSH1 0x1 PUSH2 0x100 EXP DUP2 SLOAD DUP2 PUSH4 0xFFFFFFFF MUL NOT AND SWAP1 DUP4 PUSH4 0xFFFFFFFF AND MUL OR SWAP1 SSTORE POP TIMESTAMP PUSH1 0xD PUSH1 0x0 DUP14 PUSH20 0xFFFFFFFFFFFFFFFFFFFFFFFFFFFFFFFFFFFFFFFF AND PUSH20 0xFFFFFFFFFFFFFFFFFFFFFFFFFFFFFFFFFFFFFFFF AND DUP2 MSTORE PUSH1 0x20 ADD SWAP1 DUP2 MSTORE PUSH1 0x20 ADD PUSH1 0x0 KECCAK256 PUSH1 0x0 DUP13 DUP2 MSTORE PUSH1 0x20 ADD SWAP1 DUP2 MSTORE PUSH1 0x20 ADD PUSH1 0x0 KECCAK256 PUSH1 0x6 ADD PUSH1 0x0 ADD DUP2 SWAP1 SSTORE POP PUSH1 0x1 PUSH1 0xD PUSH1 0x0 DUP14 PUSH20 0xFFFFFFFFFFFFFFFFFFFFFFFFFFFFFFFFFFFFFFFF AND PUSH20 0xFFFFFFFFFFFFFFFFFFFFFFFFFFFFFFFFFFFFFFFF AND DUP2 MSTORE PUSH1 0x20 ADD SWAP1 DUP2 MSTORE PUSH1 0x20 ADD PUSH1 0x0 KECCAK256 PUSH1 0x0 DUP13 DUP2 MSTORE PUSH1 0x20 ADD SWAP1 DUP2 MSTORE PUSH1 0x20 ADD PUSH1 0x0 KECCAK256 PUSH1 0x6 ADD PUSH1 0x1 ADD PUSH1 0x14 PUSH2 0x100 EXP DUP2 SLOAD DUP2 PUSH1 0xFF MUL NOT AND SWAP1 DUP4 PUSH1 0x2 DUP2 GT ISZERO PUSH2 0x1477 JUMPI PUSH2 0x1476 PUSH2 0x2B4F JUMP JUMPDEST JUMPDEST MUL OR SWAP1 SSTORE POP CALLER PUSH1 0xD PUSH1 0x0 DUP14 PUSH20 0xFFFFFFFFFFFFFFFFFFFFFFFFFFFFFFFFFFFFFFFF AND PUSH20 0xFFFFFFFFFFFFFFFFFFFFFFFFFFFFFFFFFFFFFFFF AND DUP2 MSTORE PUSH1 0x20 ADD SWAP1 DUP2 MSTORE PUSH1 0x20 ADD PUSH1 0x0 KECCAK256 PUSH1 0x0 DUP13 DUP2 MSTORE PUSH1 0x20 ADD SWAP1 DUP2 MSTORE PUSH1 0x20 ADD PUSH1 0x0 KECCAK256 PUSH1 0x6 ADD PUSH1 0x1 ADD PUSH1 0x0 PUSH2 0x100 EXP DUP2 SLOAD DUP2 PUSH20 0xFFFFFFFFFFFFFFFFFFFFFFFFFFFFFFFFFFFFFFFF MUL NOT AND SWAP1 DUP4 PUSH20 0xFFFFFFFFFFFFFFFFFFFFFFFFFFFFFFFFFFFFFFFF AND MUL OR SWAP1 SSTORE POP PUSH32 0xD2D369C2A311BBEDF49B15D0D8D116C0A1AAF3ADF72494F1EBB4275C54CAD73 DUP12 DUP5 DUP12 DUP12 PUSH1 0x40 MLOAD PUSH2 0x1546 SWAP5 SWAP4 SWAP3 SWAP2 SWAP1 PUSH2 0x2604 JUMP JUMPDEST PUSH1 0x40 MLOAD DUP1 SWAP2 SUB SWAP1 LOG1 DUP10 SWAP1 POP SWAP11 SWAP10 POP POP POP POP POP POP POP POP POP POP JUMP JUMPDEST PUSH1 0x8 PUSH1 0x20 MSTORE DUP1 PUSH1 0x0 MSTORE PUSH1 0x40 PUSH1 0x0 KECCAK256 PUSH1 0x0 SWAP2 POP SWAP1 POP DUP1 PUSH1 0x0 ADD PUSH1 0x0 SWAP1 SLOAD SWAP1 PUSH2 0x100 EXP SWAP1 DIV PUSH1 0xFF AND SWAP1 DUP1 PUSH1 0x1 ADD DUP1 SLOAD PUSH2 0x1595 SWAP1 PUSH2 0x2A74 JUMP JUMPDEST DUP1 PUSH1 0x1F ADD PUSH1 0x20 DUP1 SWAP2 DIV MUL PUSH1 0x20 ADD PUSH1 0x40 MLOAD SWAP1 DUP2 ADD PUSH1 0x40 MSTORE DUP1 SWAP3 SWAP2 SWAP1 DUP2 DUP2 MSTORE PUSH1 0x20 ADD DUP3 DUP1 SLOAD PUSH2 0x15C1 SWAP1 PUSH2 0x2A74 JUMP JUMPDEST DUP1 ISZERO PUSH2 0x160E JUMPI DUP1 PUSH1 0x1F LT PUSH2 0x15E3 JUMPI PUSH2 0x100 DUP1 DUP4 SLOAD DIV MUL DUP4 MSTORE SWAP2 PUSH1 0x20 ADD SWAP2 PUSH2 0x160E JUMP JUMPDEST DUP3 ADD SWAP2 SWAP1 PUSH1 0x0 MSTORE PUSH1 0x20 PUSH1 0x0 KECCAK256 SWAP1 JUMPDEST DUP2 SLOAD DUP2 MSTORE SWAP1 PUSH1 0x1 ADD SWAP1 PUSH1 0x20 ADD DUP1 DUP4 GT PUSH2 0x15F1 JUMPI DUP3 SWAP1 SUB PUSH1 0x1F AND DUP3 ADD SWAP2 JUMPDEST POP POP POP POP POP SWAP1 DUP1 PUSH1 0x2 ADD PUSH1 0x0 SWAP1 SLOAD SWAP1 PUSH2 0x100 EXP SWAP1 DIV PUSH1 0xFF AND SWAP1 POP DUP4 JUMP JUMPDEST PUSH1 0x9 PUSH1 0x20 MSTORE DUP1 PUSH1 0x0 MSTORE PUSH1 0x40 PUSH1 0x0 KECCAK256 PUSH1 0x0 SWAP2 POP SWAP1 POP DUP1 PUSH1 0x0 ADD PUSH1 0x0 SWAP1 SLOAD SWAP1 PUSH2 0x100 EXP SWAP1 DIV PUSH1 0xFF AND SWAP1 DUP1 PUSH1 0x1 ADD DUP1 SLOAD PUSH2 0x1661 SWAP1 PUSH2 0x2A74 JUMP JUMPDEST DUP1 PUSH1 0x1F ADD PUSH1 0x20 DUP1 SWAP2 DIV MUL PUSH1 0x20 ADD PUSH1 0x40 MLOAD SWAP1 DUP2 ADD PUSH1 0x40 MSTORE DUP1 SWAP3 SWAP2 SWAP1 DUP2 DUP2 MSTORE PUSH1 0x20 ADD DUP3 DUP1 SLOAD PUSH2 0x168D SWAP1 PUSH2 0x2A74 JUMP JUMPDEST DUP1 ISZERO PUSH2 0x16DA JUMPI DUP1 PUSH1 0x1F LT PUSH2 0x16AF JUMPI PUSH2 0x100 DUP1 DUP4 SLOAD DIV MUL DUP4 MSTORE SWAP2 PUSH1 0x20 ADD SWAP2 PUSH2 0x16DA JUMP JUMPDEST DUP3 ADD SWAP2 SWAP1 PUSH1 0x0 MSTORE PUSH1 0x20 PUSH1 0x0 KECCAK256 SWAP1 JUMPDEST DUP2 SLOAD DUP2 MSTORE SWAP1 PUSH1 0x1 ADD SWAP1 PUSH1 0x20 ADD DUP1 DUP4 GT PUSH2 0x16BD JUMPI DUP3 SWAP1 SUB PUSH1 0x1F AND DUP3 ADD SWAP2 JUMPDEST POP POP POP POP POP SWAP1 DUP1 PUSH1 0x2 ADD PUSH1 0x0 SWAP1 SLOAD SWAP1 PUSH2 0x100 EXP SWAP1 DIV PUSH1 0xFF AND SWAP1 POP DUP4 JUMP JUMPDEST PUSH1 0xB PUSH1 0x20 MSTORE DUP1 PUSH1 0x0 MSTORE PUSH1 0x40 PUSH1 0x0 KECCAK256 PUSH1 0x0 SWAP2 POP SWAP1 POP DUP1 PUSH1 0x0 ADD PUSH1 0x0 SWAP1 SLOAD SWAP1 PUSH2 0x100 EXP SWAP1 DIV PUSH4 0xFFFFFFFF AND SWAP1 DUP1 PUSH1 0x1 ADD DUP1 SLOAD PUSH2 0x1730 SWAP1 PUSH2 0x2A74 JUMP JUMPDEST DUP1 PUSH1 0x1F ADD PUSH1 0x20 DUP1 SWAP2 DIV MUL PUSH1 0x20 ADD PUSH1 0x40 MLOAD SWAP1 DUP2 ADD PUSH1 0x40 MSTORE DUP1 SWAP3 SWAP2 SWAP1 DUP2 DUP2 MSTORE PUSH1 0x20 ADD DUP3 DUP1 SLOAD PUSH2 0x175C SWAP1 PUSH2 0x2A74 JUMP JUMPDEST DUP1 ISZERO PUSH2 0x17A9 JUMPI DUP1 PUSH1 0x1F LT PUSH2 0x177E JUMPI PUSH2 0x100 DUP1 DUP4 SLOAD DIV MUL DUP4 MSTORE SWAP2 PUSH1 0x20 ADD SWAP2 PUSH2 0x17A9 JUMP JUMPDEST DUP3 ADD SWAP2 SWAP1 PUSH1 0x0 MSTORE PUSH1 0x20 PUSH1 0x0 KECCAK256 SWAP1 JUMPDEST DUP2 SLOAD DUP2 MSTORE SWAP1 PUSH1 0x1 ADD SWAP1 PUSH1 0x20 ADD DUP1 DUP4 GT PUSH2 0x178C JUMPI DUP3 SWAP1 SUB PUSH1 0x1F AND DUP3 ADD SWAP2 JUMPDEST POP POP POP POP POP SWAP1 POP DUP3 JUMP JUMPDEST PUSH1 0x4 PUSH1 0x0 CALLER PUSH20 0xFFFFFFFFFFFFFFFFFFFFFFFFFFFFFFFFFFFFFFFF AND PUSH20 0xFFFFFFFFFFFFFFFFFFFFFFFFFFFFFFFFFFFFFFFF AND DUP2 MSTORE PUSH1 0x20 ADD SWAP1 DUP2 MSTORE PUSH1 0x20 ADD PUSH1 0x0 KECCAK256 PUSH1 0x0 ADD PUSH1 0x0 SWAP1 SLOAD SWAP1 PUSH2 0x100 EXP SWAP1 DIV PUSH1 0xFF AND DUP1 PUSH2 0x185A JUMPI POP PUSH1 0x6 PUSH1 0x0 CALLER PUSH20 0xFFFFFFFFFFFFFFFFFFFFFFFFFFFFFFFFFFFFFFFF AND PUSH20 0xFFFFFFFFFFFFFFFFFFFFFFFFFFFFFFFFFFFFFFFF AND DUP2 MSTORE PUSH1 0x20 ADD SWAP1 DUP2 MSTORE PUSH1 0x20 ADD PUSH1 0x0 KECCAK256 PUSH1 0x0 ADD PUSH1 0x0 SWAP1 SLOAD SWAP1 PUSH2 0x100 EXP SWAP1 DIV PUSH1 0xFF AND JUMPDEST DUP1 PUSH2 0x18B1 JUMPI POP PUSH1 0x8 PUSH1 0x0 CALLER PUSH20 0xFFFFFFFFFFFFFFFFFFFFFFFFFFFFFFFFFFFFFFFF AND PUSH20 0xFFFFFFFFFFFFFFFFFFFFFFFFFFFFFFFFFFFFFFFF AND DUP2 MSTORE PUSH1 0x20 ADD SWAP1 DUP2 MSTORE PUSH1 0x20 ADD PUSH1 0x0 KECCAK256 PUSH1 0x0 ADD PUSH1 0x0 SWAP1 SLOAD SWAP1 PUSH2 0x100 EXP SWAP1 DIV PUSH1 0xFF AND JUMPDEST PUSH2 0x18F0 JUMPI PUSH1 0x40 MLOAD PUSH32 0x8C379A000000000000000000000000000000000000000000000000000000000 DUP2 MSTORE PUSH1 0x4 ADD PUSH2 0x18E7 SWAP1 PUSH2 0x279D JUMP JUMPDEST PUSH1 0x40 MLOAD DUP1 SWAP2 SUB SWAP1 REVERT JUMPDEST PUSH1 0x3 PUSH1 0x0 DUP11 PUSH20 0xFFFFFFFFFFFFFFFFFFFFFFFFFFFFFFFFFFFFFFFF AND PUSH20 0xFFFFFFFFFFFFFFFFFFFFFFFFFFFFFFFFFFFFFFFF AND DUP2 MSTORE PUSH1 0x20 ADD SWAP1 DUP2 MSTORE PUSH1 0x20 ADD PUSH1 0x0 KECCAK256 PUSH1 0x0 ADD PUSH1 0x0 SWAP1 SLOAD SWAP1 PUSH2 0x100 EXP SWAP1 DIV PUSH1 0xFF AND PUSH2 0x197F JUMPI PUSH1 0x40 MLOAD PUSH32 0x8C379A000000000000000000000000000000000000000000000000000000000 DUP2 MSTORE PUSH1 0x4 ADD PUSH2 0x1976 SWAP1 PUSH2 0x277D JUMP JUMPDEST PUSH1 0x40 MLOAD DUP1 SWAP2 SUB SWAP1 REVERT JUMPDEST PUSH1 0x0 PUSH1 0xC PUSH1 0x0 DUP2 SLOAD DUP1 SWAP3 SWAP2 SWAP1 PUSH2 0x1994 SWAP1 PUSH2 0x2AD7 JUMP JUMPDEST SWAP2 SWAP1 POP SSTORE SWAP1 POP DUP9 PUSH1 0xD PUSH1 0x0 DUP13 PUSH20 0xFFFFFFFFFFFFFFFFFFFFFFFFFFFFFFFFFFFFFFFF AND PUSH20 0xFFFFFFFFFFFFFFFFFFFFFFFFFFFFFFFFFFFFFFFF AND DUP2 MSTORE PUSH1 0x20 ADD SWAP1 DUP2 MSTORE PUSH1 0x20 ADD PUSH1 0x0 KECCAK256 PUSH1 0x0 DUP4 DUP2 MSTORE PUSH1 0x20 ADD SWAP1 DUP2 MSTORE PUSH1 0x20 ADD PUSH1 0x0 KECCAK256 PUSH1 0x1 ADD PUSH1 0x14 PUSH2 0x100 EXP DUP2 SLOAD DUP2 PUSH4 0xFFFFFFFF MUL NOT AND SWAP1 DUP4 PUSH4 0xFFFFFFFF AND MUL OR SWAP1 SSTORE POP DUP8 PUSH1 0xD PUSH1 0x0 DUP13 PUSH20 0xFFFFFFFFFFFFFFFFFFFFFFFFFFFFFFFFFFFFFFFF AND PUSH20 0xFFFFFFFFFFFFFFFFFFFFFFFFFFFFFFFFFFFFFFFF AND DUP2 MSTORE PUSH1 0x20 ADD SWAP1 DUP2 MSTORE PUSH1 0x20 ADD PUSH1 0x0 KECCAK256 PUSH1 0x0 DUP4 DUP2 MSTORE PUSH1 0x20 ADD SWAP1 DUP2 MSTORE PUSH1 0x20 ADD PUSH1 0x0 KECCAK256 PUSH1 0x1 ADD PUSH1 0x18 PUSH2 0x100 EXP DUP2 SLOAD DUP2 PUSH1 0xFF MUL NOT AND SWAP1 DUP4 PUSH1 0xFF AND MUL OR SWAP1 SSTORE POP DUP7 PUSH1 0xD PUSH1 0x0 DUP13 PUSH20 0xFFFFFFFFFFFFFFFFFFFFFFFFFFFFFFFFFFFFFFFF AND PUSH20 0xFFFFFFFFFFFFFFFFFFFFFFFFFFFFFFFFFFFFFFFF AND DUP2 MSTORE PUSH1 0x20 ADD SWAP1 DUP2 MSTORE PUSH1 0x20 ADD PUSH1 0x0 KECCAK256 PUSH1 0x0 DUP4 DUP2 MSTORE PUSH1 0x20 ADD SWAP1 DUP2 MSTORE PUSH1 0x20 ADD PUSH1 0x0 KECCAK256 PUSH1 0x1 ADD PUSH1 0x19 PUSH2 0x100 EXP DUP2 SLOAD DUP2 PUSH1 0xFF MUL NOT AND SWAP1 DUP4 PUSH1 0x2 DUP2 GT ISZERO PUSH2 0x1AEE JUMPI PUSH2 0x1AED PUSH2 0x2B4F JUMP JUMPDEST JUMPDEST MUL OR SWAP1 SSTORE POP DUP6 PUSH1 0xD PUSH1 0x0 DUP13 PUSH20 0xFFFFFFFFFFFFFFFFFFFFFFFFFFFFFFFFFFFFFFFF AND PUSH20 0xFFFFFFFFFFFFFFFFFFFFFFFFFFFFFFFFFFFFFFFF AND DUP2 MSTORE PUSH1 0x20 ADD SWAP1 DUP2 MSTORE PUSH1 0x20 ADD PUSH1 0x0 KECCAK256 PUSH1 0x0 DUP4 DUP2 MSTORE PUSH1 0x20 ADD SWAP1 DUP2 MSTORE PUSH1 0x20 ADD PUSH1 0x0 KECCAK256 PUSH1 0x2 ADD SWAP1 DUP1 MLOAD SWAP1 PUSH1 0x20 ADD SWAP1 PUSH2 0x1B5A SWAP3 SWAP2 SWAP1 PUSH2 0x2066 JUMP JUMPDEST POP DUP5 PUSH1 0xD PUSH1 0x0 DUP13 PUSH20 0xFFFFFFFFFFFFFFFFFFFFFFFFFFFFFFFFFFFFFFFF AND PUSH20 0xFFFFFFFFFFFFFFFFFFFFFFFFFFFFFFFFFFFFFFFF AND DUP2 MSTORE PUSH1 0x20 ADD SWAP1 DUP2 MSTORE PUSH1 0x20 ADD PUSH1 0x0 KECCAK256 PUSH1 0x0 DUP4 DUP2 MSTORE PUSH1 0x20 ADD SWAP1 DUP2 MSTORE PUSH1 0x20 ADD PUSH1 0x0 KECCAK256 PUSH1 0x3 ADD DUP2 SWAP1 SSTORE POP DUP4 PUSH1 0xD PUSH1 0x0 DUP13 PUSH20 0xFFFFFFFFFFFFFFFFFFFFFFFFFFFFFFFFFFFFFFFF AND PUSH20 0xFFFFFFFFFFFFFFFFFFFFFFFFFFFFFFFFFFFFFFFF AND DUP2 MSTORE PUSH1 0x20 ADD SWAP1 DUP2 MSTORE PUSH1 0x20 ADD PUSH1 0x0 KECCAK256 PUSH1 0x0 DUP4 DUP2 MSTORE PUSH1 0x20 ADD SWAP1 DUP2 MSTORE PUSH1 0x20 ADD PUSH1 0x0 KECCAK256 PUSH1 0x4 ADD DUP2 SWAP1 SSTORE POP DUP3 PUSH1 0xD PUSH1 0x0 DUP13 PUSH20 0xFFFFFFFFFFFFFFFFFFFFFFFFFFFFFFFFFFFFFFFF AND PUSH20 0xFFFFFFFFFFFFFFFFFFFFFFFFFFFFFFFFFFFFFFFF AND DUP2 MSTORE PUSH1 0x20 ADD SWAP1 DUP2 MSTORE PUSH1 0x20 ADD PUSH1 0x0 KECCAK256 PUSH1 0x0 DUP4 DUP2 MSTORE PUSH1 0x20 ADD SWAP1 DUP2 MSTORE PUSH1 0x20 ADD PUSH1 0x0 KECCAK256 PUSH1 0x5 ADD PUSH1 0x0 PUSH2 0x100 EXP DUP2 SLOAD DUP2 PUSH1 0xFF MUL NOT AND SWAP1 DUP4 PUSH1 0xFF AND MUL OR SWAP1 SSTORE POP DUP2 PUSH1 0xD PUSH1 0x0 DUP13 PUSH20 0xFFFFFFFFFFFFFFFFFFFFFFFFFFFFFFFFFFFFFFFF AND PUSH20 0xFFFFFFFFFFFFFFFFFFFFFFFFFFFFFFFFFFFFFFFF AND DUP2 MSTORE PUSH1 0x20 ADD SWAP1 DUP2 MSTORE PUSH1 0x20 ADD PUSH1 0x0 KECCAK256 PUSH1 0x0 DUP4 DUP2 MSTORE PUSH1 0x20 ADD SWAP1 DUP2 MSTORE PUSH1 0x20 ADD PUSH1 0x0 KECCAK256 PUSH1 0x5 ADD PUSH1 0x1 PUSH2 0x100 EXP DUP2 SLOAD DUP2 PUSH4 0xFFFFFFFF MUL NOT AND SWAP1 DUP4 PUSH4 0xFFFFFFFF AND MUL OR SWAP1 SSTORE POP TIMESTAMP PUSH1 0xD PUSH1 0x0 DUP13 PUSH20 0xFFFFFFFFFFFFFFFFFFFFFFFFFFFFFFFFFFFFFFFF AND PUSH20 0xFFFFFFFFFFFFFFFFFFFFFFFFFFFFFFFFFFFFFFFF AND DUP2 MSTORE PUSH1 0x20 ADD SWAP1 DUP2 MSTORE PUSH1 0x20 ADD PUSH1 0x0 KECCAK256 PUSH1 0x0 DUP4 DUP2 MSTORE PUSH1 0x20 ADD SWAP1 DUP2 MSTORE PUSH1 0x20 ADD PUSH1 0x0 KECCAK256 PUSH1 0x6 ADD PUSH1 0x0 ADD DUP2 SWAP1 SSTORE POP PUSH1 0x1 PUSH1 0xD PUSH1 0x0 DUP13 PUSH20 0xFFFFFFFFFFFFFFFFFFFFFFFFFFFFFFFFFFFFFFFF AND PUSH20 0xFFFFFFFFFFFFFFFFFFFFFFFFFFFFFFFFFFFFFFFF AND DUP2 MSTORE PUSH1 0x20 ADD SWAP1 DUP2 MSTORE PUSH1 0x20 ADD PUSH1 0x0 KECCAK256 PUSH1 0x0 DUP4 DUP2 MSTORE PUSH1 0x20 ADD SWAP1 DUP2 MSTORE PUSH1 0x20 ADD PUSH1 0x0 KECCAK256 PUSH1 0x6 ADD PUSH1 0x1 ADD PUSH1 0x14 PUSH2 0x100 EXP DUP2 SLOAD DUP2 PUSH1 0xFF MUL NOT AND SWAP1 DUP4 PUSH1 0x2 DUP2 GT ISZERO PUSH2 0x1DBE JUMPI PUSH2 0x1DBD PUSH2 0x2B4F JUMP JUMPDEST JUMPDEST MUL OR SWAP1 SSTORE POP CALLER PUSH1 0xD PUSH1 0x0 DUP13 PUSH20 0xFFFFFFFFFFFFFFFFFFFFFFFFFFFFFFFFFFFFFFFF AND PUSH20 0xFFFFFFFFFFFFFFFFFFFFFFFFFFFFFFFFFFFFFFFF AND DUP2 MSTORE PUSH1 0x20 ADD SWAP1 DUP2 MSTORE PUSH1 0x20 ADD PUSH1 0x0 KECCAK256 PUSH1 0x0 DUP4 DUP2 MSTORE PUSH1 0x20 ADD SWAP1 DUP2 MSTORE PUSH1 0x20 ADD PUSH1 0x0 KECCAK256 PUSH1 0x6 ADD PUSH1 0x1 ADD PUSH1 0x0 PUSH2 0x100 EXP DUP2 SLOAD DUP2 PUSH20 0xFFFFFFFFFFFFFFFFFFFFFFFFFFFFFFFFFFFFFFFF MUL NOT AND SWAP1 DUP4 PUSH20 0xFFFFFFFFFFFFFFFFFFFFFFFFFFFFFFFFFFFFFFFF AND MUL OR SWAP1 SSTORE POP PUSH32 0x5AD0792471E6B8D6289D325D174CFB7E274AC9529EFEB295F4ABCE0A90CDCB23 DUP11 DUP5 DUP12 DUP12 PUSH1 0x40 MLOAD PUSH2 0x1E8D SWAP5 SWAP4 SWAP3 SWAP2 SWAP1 PUSH2 0x2604 JUMP JUMPDEST PUSH1 0x40 MLOAD DUP1 SWAP2 SUB SWAP1 LOG1 POP POP POP POP POP POP POP POP POP POP JUMP JUMPDEST PUSH1 0xC SLOAD DUP2 JUMP JUMPDEST PUSH1 0x5 PUSH1 0x20 MSTORE DUP1 PUSH1 0x0 MSTORE PUSH1 0x40 PUSH1 0x0 KECCAK256 PUSH1 0x0 SWAP2 POP SWAP1 POP DUP1 PUSH1 0x0 ADD PUSH1 0x0 SWAP1 SLOAD SWAP1 PUSH2 0x100 EXP SWAP1 DIV PUSH1 0xFF AND SWAP1 DUP1 PUSH1 0x0 ADD PUSH1 0x1 SWAP1 SLOAD SWAP1 PUSH2 0x100 EXP SWAP1 DIV PUSH20 0xFFFFFFFFFFFFFFFFFFFFFFFFFFFFFFFFFFFFFFFF AND SWAP1 DUP1 PUSH1 0x0 ADD PUSH1 0x15 SWAP1 SLOAD SWAP1 PUSH2 0x100 EXP SWAP1 DIV PUSH2 0xFFFF AND SWAP1 DUP1 PUSH1 0x0 ADD PUSH1 0x17 SWAP1 SLOAD SWAP1 PUSH2 0x100 EXP SWAP1 DIV PUSH1 0xFF AND SWAP1 DUP1 PUSH1 0x1 ADD DUP1 SLOAD PUSH2 0x1F2A SWAP1 PUSH2 0x2A74 JUMP JUMPDEST DUP1 PUSH1 0x1F ADD PUSH1 0x20 DUP1 SWAP2 DIV MUL PUSH1 0x20 ADD PUSH1 0x40 MLOAD SWAP1 DUP2 ADD PUSH1 0x40 MSTORE DUP1 SWAP3 SWAP2 SWAP1 DUP2 DUP2 MSTORE PUSH1 0x20 ADD DUP3 DUP1 SLOAD PUSH2 0x1F56 SWAP1 PUSH2 0x2A74 JUMP JUMPDEST DUP1 ISZERO PUSH2 0x1FA3 JUMPI DUP1 PUSH1 0x1F LT PUSH2 0x1F78 JUMPI PUSH2 0x100 DUP1 DUP4 SLOAD DIV MUL DUP4 MSTORE SWAP2 PUSH1 0x20 ADD SWAP2 PUSH2 0x1FA3 JUMP JUMPDEST DUP3 ADD SWAP2 SWAP1 PUSH1 0x0 MSTORE PUSH1 0x20 PUSH1 0x0 KECCAK256 SWAP1 JUMPDEST DUP2 SLOAD DUP2 MSTORE SWAP1 PUSH1 0x1 ADD SWAP1 PUSH1 0x20 ADD DUP1 DUP4 GT PUSH2 0x1F86 JUMPI DUP3 SWAP1 SUB PUSH1 0x1F AND DUP3 ADD SWAP2 JUMPDEST POP POP POP POP POP SWAP1 DUP1 PUSH1 0x2 ADD DUP1 SLOAD PUSH2 0x1FB8 SWAP1 PUSH2 0x2A74 JUMP JUMPDEST DUP1 PUSH1 0x1F ADD PUSH1 0x20 DUP1 SWAP2 DIV MUL PUSH1 0x20 ADD PUSH1 0x40 MLOAD SWAP1 DUP2 ADD PUSH1 0x40 MSTORE DUP1 SWAP3 SWAP2 SWAP1 DUP2 DUP2 MSTORE PUSH1 0x20 ADD DUP3 DUP1 SLOAD PUSH2 0x1FE4 SWAP1 PUSH2 0x2A74 JUMP JUMPDEST DUP1 ISZERO PUSH2 0x2031 JUMPI DUP1 PUSH1 0x1F LT PUSH2 0x2006 JUMPI PUSH2 0x100 DUP1 DUP4 SLOAD DIV MUL DUP4 MSTORE SWAP2 PUSH1 0x20 ADD SWAP2 PUSH2 0x2031 JUMP JUMPDEST DUP3 ADD SWAP2 SWAP1 PUSH1 0x0 MSTORE PUSH1 0x20 PUSH1 0x0 KECCAK256 SWAP1 JUMPDEST DUP2 SLOAD DUP2 MSTORE SWAP1 PUSH1 0x1 ADD SWAP1 PUSH1 0x20 ADD DUP1 DUP4 GT PUSH2 0x2014 JUMPI DUP3 SWAP1 SUB PUSH1 0x1F AND DUP3 ADD SWAP2 JUMPDEST POP POP POP POP POP SWAP1 POP DUP7 JUMP JUMPDEST PUSH1 0x3 PUSH1 0x20 MSTORE DUP1 PUSH1 0x0 MSTORE PUSH1 0x40 PUSH1 0x0 KECCAK256 PUSH1 0x0 SWAP2 POP SWAP1 POP DUP1 PUSH1 0x0 ADD PUSH1 0x0 SWAP1 SLOAD SWAP1 PUSH2 0x100 EXP SWAP1 DIV PUSH1 0xFF AND SWAP1 POP DUP2 JUMP JUMPDEST DUP3 DUP1 SLOAD PUSH2 0x2072 SWAP1 PUSH2 0x2A74 JUMP JUMPDEST SWAP1 PUSH1 0x0 MSTORE PUSH1 0x20 PUSH1 0x0 KECCAK256 SWAP1 PUSH1 0x1F ADD PUSH1 0x20 SWAP1 DIV DUP2 ADD SWAP3 DUP3 PUSH2 0x2094 JUMPI PUSH1 0x0 DUP6 SSTORE PUSH2 0x20DB JUMP JUMPDEST DUP3 PUSH1 0x1F LT PUSH2 0x20AD JUMPI DUP1 MLOAD PUSH1 0xFF NOT AND DUP4 DUP1 ADD OR DUP6 SSTORE PUSH2 0x20DB JUMP JUMPDEST DUP3 DUP1 ADD PUSH1 0x1 ADD DUP6 SSTORE DUP3 ISZERO PUSH2 0x20DB JUMPI SWAP2 DUP3 ADD JUMPDEST DUP3 DUP2 GT ISZERO PUSH2 0x20DA JUMPI DUP3 MLOAD DUP3 SSTORE SWAP2 PUSH1 0x20 ADD SWAP2 SWAP1 PUSH1 0x1 ADD SWAP1 PUSH2 0x20BF JUMP JUMPDEST JUMPDEST POP SWAP1 POP PUSH2 0x20E8 SWAP2 SWAP1 PUSH2 0x20EC JUMP JUMPDEST POP SWAP1 JUMP JUMPDEST JUMPDEST DUP1 DUP3 GT ISZERO PUSH2 0x2105 JUMPI PUSH1 0x0 DUP2 PUSH1 0x0 SWAP1 SSTORE POP PUSH1 0x1 ADD PUSH2 0x20ED JUMP JUMPDEST POP SWAP1 JUMP JUMPDEST PUSH1 0x0 PUSH2 0x211C PUSH2 0x2117 DUP5 PUSH2 0x28DF JUMP JUMPDEST PUSH2 0x28BA JUMP JUMPDEST SWAP1 POP DUP3 DUP2 MSTORE PUSH1 0x20 DUP2 ADD DUP5 DUP5 DUP5 ADD GT ISZERO PUSH2 0x2138 JUMPI PUSH2 0x2137 PUSH2 0x2BE1 JUMP JUMPDEST JUMPDEST PUSH2 0x2143 DUP5 DUP3 DUP6 PUSH2 0x2A32 JUMP JUMPDEST POP SWAP4 SWAP3 POP POP POP JUMP JUMPDEST PUSH1 0x0 DUP2 CALLDATALOAD SWAP1 POP PUSH2 0x215A DUP2 PUSH2 0x2CB8 JUMP JUMPDEST SWAP3 SWAP2 POP POP JUMP JUMPDEST PUSH1 0x0 DUP2 CALLDATALOAD SWAP1 POP PUSH2 0x216F DUP2 PUSH2 0x2CCF JUMP JUMPDEST SWAP3 SWAP2 POP POP JUMP JUMPDEST PUSH1 0x0 DUP3 PUSH1 0x1F DUP4 ADD SLT PUSH2 0x218A JUMPI PUSH2 0x2189 PUSH2 0x2BDC JUMP JUMPDEST JUMPDEST DUP2 CALLDATALOAD PUSH2 0x219A DUP5 DUP3 PUSH1 0x20 DUP7 ADD PUSH2 0x2109 JUMP JUMPDEST SWAP2 POP POP SWAP3 SWAP2 POP POP JUMP JUMPDEST PUSH1 0x0 DUP2 CALLDATALOAD SWAP1 POP PUSH2 0x21B2 DUP2 PUSH2 0x2CDF JUMP JUMPDEST SWAP3 SWAP2 POP POP JUMP JUMPDEST PUSH1 0x0 DUP2 CALLDATALOAD SWAP1 POP PUSH2 0x21C7 DUP2 PUSH2 0x2CF6 JUMP JUMPDEST SWAP3 SWAP2 POP POP JUMP JUMPDEST PUSH1 0x0 DUP2 CALLDATALOAD SWAP1 POP PUSH2 0x21DC DUP2 PUSH2 0x2D0D JUMP JUMPDEST SWAP3 SWAP2 POP POP JUMP JUMPDEST PUSH1 0x0 PUSH1 0x20 DUP3 DUP5 SUB SLT ISZERO PUSH2 0x21F8 JUMPI PUSH2 0x21F7 PUSH2 0x2BEB JUMP JUMPDEST JUMPDEST PUSH1 0x0 PUSH2 0x2206 DUP5 DUP3 DUP6 ADD PUSH2 0x214B JUMP JUMPDEST SWAP2 POP POP SWAP3 SWAP2 POP POP JUMP JUMPDEST PUSH1 0x0 DUP1 PUSH1 0x40 DUP4 DUP6 SUB SLT ISZERO PUSH2 0x2226 JUMPI PUSH2 0x2225 PUSH2 0x2BEB JUMP JUMPDEST JUMPDEST PUSH1 0x0 PUSH2 0x2234 DUP6 DUP3 DUP7 ADD PUSH2 0x214B JUMP JUMPDEST SWAP3 POP POP PUSH1 0x20 PUSH2 0x2245 DUP6 DUP3 DUP7 ADD PUSH2 0x21A3 JUMP JUMPDEST SWAP2 POP POP SWAP3 POP SWAP3 SWAP1 POP JUMP JUMPDEST PUSH1 0x0 DUP1 PUSH1 0x0 DUP1 PUSH1 0x0 DUP1 PUSH1 0x0 DUP1 PUSH1 0x0 DUP1 PUSH2 0x140 DUP12 DUP14 SUB SLT ISZERO PUSH2 0x2273 JUMPI PUSH2 0x2272 PUSH2 0x2BEB JUMP JUMPDEST JUMPDEST PUSH1 0x0 PUSH2 0x2281 DUP14 DUP3 DUP15 ADD PUSH2 0x214B JUMP JUMPDEST SWAP11 POP POP PUSH1 0x20 PUSH2 0x2292 DUP14 DUP3 DUP15 ADD PUSH2 0x21A3 JUMP JUMPDEST SWAP10 POP POP PUSH1 0x40 PUSH2 0x22A3 DUP14 DUP3 DUP15 ADD PUSH2 0x21B8 JUMP JUMPDEST SWAP9 POP POP PUSH1 0x60 PUSH2 0x22B4 DUP14 DUP3 DUP15 ADD PUSH2 0x21CD JUMP JUMPDEST SWAP8 POP POP PUSH1 0x80 PUSH2 0x22C5 DUP14 DUP3 DUP15 ADD PUSH2 0x2160 JUMP JUMPDEST SWAP7 POP POP PUSH1 0xA0 DUP12 ADD CALLDATALOAD PUSH8 0xFFFFFFFFFFFFFFFF DUP2 GT ISZERO PUSH2 0x22E6 JUMPI PUSH2 0x22E5 PUSH2 0x2BE6 JUMP JUMPDEST JUMPDEST PUSH2 0x22F2 DUP14 DUP3 DUP15 ADD PUSH2 0x2175 JUMP JUMPDEST SWAP6 POP POP PUSH1 0xC0 PUSH2 0x2303 DUP14 DUP3 DUP15 ADD PUSH2 0x21A3 JUMP JUMPDEST SWAP5 POP POP PUSH1 0xE0 PUSH2 0x2314 DUP14 DUP3 DUP15 ADD PUSH2 0x21A3 JUMP JUMPDEST SWAP4 POP POP PUSH2 0x100 PUSH2 0x2326 DUP14 DUP3 DUP15 ADD PUSH2 0x21CD JUMP JUMPDEST SWAP3 POP POP PUSH2 0x120 PUSH2 0x2338 DUP14 DUP3 DUP15 ADD PUSH2 0x21B8 JUMP JUMPDEST SWAP2 POP POP SWAP3 SWAP6 SWAP9 SWAP12 SWAP2 SWAP5 SWAP8 SWAP11 POP SWAP3 SWAP6 SWAP9 POP JUMP JUMPDEST PUSH1 0x0 DUP1 PUSH1 0x0 DUP1 PUSH1 0x0 DUP1 PUSH1 0x0 DUP1 PUSH1 0x0 PUSH2 0x120 DUP11 DUP13 SUB SLT ISZERO PUSH2 0x236D JUMPI PUSH2 0x236C PUSH2 0x2BEB JUMP JUMPDEST JUMPDEST PUSH1 0x0 PUSH2 0x237B DUP13 DUP3 DUP14 ADD PUSH2 0x214B JUMP JUMPDEST SWAP10 POP POP PUSH1 0x20 PUSH2 0x238C DUP13 DUP3 DUP14 ADD PUSH2 0x21B8 JUMP JUMPDEST SWAP9 POP POP PUSH1 0x40 PUSH2 0x239D DUP13 DUP3 DUP14 ADD PUSH2 0x21CD JUMP JUMPDEST SWAP8 POP POP PUSH1 0x60 PUSH2 0x23AE DUP13 DUP3 DUP14 ADD PUSH2 0x2160 JUMP JUMPDEST SWAP7 POP POP PUSH1 0x80 DUP11 ADD CALLDATALOAD PUSH8 0xFFFFFFFFFFFFFFFF DUP2 GT ISZERO PUSH2 0x23CF JUMPI PUSH2 0x23CE PUSH2 0x2BE6 JUMP JUMPDEST JUMPDEST PUSH2 0x23DB DUP13 DUP3 DUP14 ADD PUSH2 0x2175 JUMP JUMPDEST SWAP6 POP POP PUSH1 0xA0 PUSH2 0x23EC DUP13 DUP3 DUP14 ADD PUSH2 0x21A3 JUMP JUMPDEST SWAP5 POP POP PUSH1 0xC0 PUSH2 0x23FD DUP13 DUP3 DUP14 ADD PUSH2 0x21A3 JUMP JUMPDEST SWAP4 POP POP PUSH1 0xE0 PUSH2 0x240E DUP13 DUP3 DUP14 ADD PUSH2 0x21CD JUMP JUMPDEST SWAP3 POP POP PUSH2 0x100 PUSH2 0x2420 DUP13 DUP3 DUP14 ADD PUSH2 0x21B8 JUMP JUMPDEST SWAP2 POP POP SWAP3 SWAP6 SWAP9 POP SWAP3 SWAP6 SWAP9 POP SWAP3 SWAP6 SWAP9 JUMP JUMPDEST PUSH1 0x0 PUSH1 0x20 DUP3 DUP5 SUB SLT ISZERO PUSH2 0x2446 JUMPI PUSH2 0x2445 PUSH2 0x2BEB JUMP JUMPDEST JUMPDEST PUSH1 0x0 PUSH2 0x2454 DUP5 DUP3 DUP6 ADD PUSH2 0x21B8 JUMP JUMPDEST SWAP2 POP POP SWAP3 SWAP2 POP POP JUMP JUMPDEST PUSH2 0x2466 DUP2 PUSH2 0x292C JUMP JUMPDEST DUP3 MSTORE POP POP JUMP JUMPDEST PUSH2 0x2475 DUP2 PUSH2 0x292C JUMP JUMPDEST DUP3 MSTORE POP POP JUMP JUMPDEST PUSH2 0x2484 DUP2 PUSH2 0x293E JUMP JUMPDEST DUP3 MSTORE POP POP JUMP JUMPDEST PUSH2 0x2493 DUP2 PUSH2 0x29D8 JUMP JUMPDEST DUP3 MSTORE POP POP JUMP JUMPDEST PUSH2 0x24A2 DUP2 PUSH2 0x29EA JUMP JUMPDEST DUP3 MSTORE POP POP JUMP JUMPDEST PUSH2 0x24B1 DUP2 PUSH2 0x29FC JUMP JUMPDEST DUP3 MSTORE POP POP JUMP JUMPDEST PUSH1 0x0 PUSH2 0x24C2 DUP3 PUSH2 0x2910 JUMP JUMPDEST PUSH2 0x24CC DUP2 DUP6 PUSH2 0x291B JUMP JUMPDEST SWAP4 POP PUSH2 0x24DC DUP2 DUP6 PUSH1 0x20 DUP7 ADD PUSH2 0x2A41 JUMP JUMPDEST PUSH2 0x24E5 DUP2 PUSH2 0x2BF0 JUMP JUMPDEST DUP5 ADD SWAP2 POP POP SWAP3 SWAP2 POP POP JUMP JUMPDEST PUSH1 0x0 PUSH2 0x24FD PUSH1 0x20 DUP4 PUSH2 0x291B JUMP JUMPDEST SWAP2 POP PUSH2 0x2508 DUP3 PUSH2 0x2C01 JUMP JUMPDEST PUSH1 0x20 DUP3 ADD SWAP1 POP SWAP2 SWAP1 POP JUMP JUMPDEST PUSH1 0x0 PUSH2 0x2520 PUSH1 0x12 DUP4 PUSH2 0x291B JUMP JUMPDEST SWAP2 POP PUSH2 0x252B DUP3 PUSH2 0x2C2A JUMP JUMPDEST PUSH1 0x20 DUP3 ADD SWAP1 POP SWAP2 SWAP1 POP JUMP JUMPDEST PUSH1 0x0 PUSH2 0x2543 PUSH1 0x20 DUP4 PUSH2 0x291B JUMP JUMPDEST SWAP2 POP PUSH2 0x254E DUP3 PUSH2 0x2C53 JUMP JUMPDEST PUSH1 0x20 DUP3 ADD SWAP1 POP SWAP2 SWAP1 POP JUMP JUMPDEST PUSH1 0x60 DUP3 ADD PUSH1 0x0 DUP3 ADD MLOAD PUSH2 0x256F PUSH1 0x0 DUP6 ADD DUP3 PUSH2 0x25AA JUMP JUMPDEST POP PUSH1 0x20 DUP3 ADD MLOAD PUSH2 0x2582 PUSH1 0x20 DUP6 ADD DUP3 PUSH2 0x245D JUMP JUMPDEST POP PUSH1 0x40 DUP3 ADD MLOAD PUSH2 0x2595 PUSH1 0x40 DUP6 ADD DUP3 PUSH2 0x2499 JUMP JUMPDEST POP POP POP POP JUMP JUMPDEST PUSH2 0x25A4 DUP2 PUSH2 0x2983 JUMP JUMPDEST DUP3 MSTORE POP POP JUMP JUMPDEST PUSH2 0x25B3 DUP2 PUSH2 0x29B1 JUMP JUMPDEST DUP3 MSTORE POP POP JUMP JUMPDEST PUSH2 0x25C2 DUP2 PUSH2 0x29B1 JUMP JUMPDEST DUP3 MSTORE POP POP JUMP JUMPDEST PUSH2 0x25D1 DUP2 PUSH2 0x2A0E JUMP JUMPDEST DUP3 MSTORE POP POP JUMP JUMPDEST PUSH2 0x25E0 DUP2 PUSH2 0x29BB JUMP JUMPDEST DUP3 MSTORE POP POP JUMP JUMPDEST PUSH2 0x25EF DUP2 PUSH2 0x2A20 JUMP JUMPDEST DUP3 MSTORE POP POP JUMP JUMPDEST PUSH2 0x25FE DUP2 PUSH2 0x29CB JUMP JUMPDEST DUP3 MSTORE POP POP JUMP JUMPDEST PUSH1 0x0 PUSH1 0x80 DUP3 ADD SWAP1 POP PUSH2 0x2619 PUSH1 0x0 DUP4 ADD DUP8 PUSH2 0x246C JUMP JUMPDEST PUSH2 0x2626 PUSH1 0x20 DUP4 ADD DUP7 PUSH2 0x25F5 JUMP JUMPDEST PUSH2 0x2633 PUSH1 0x40 DUP4 ADD DUP6 PUSH2 0x25C8 JUMP JUMPDEST PUSH2 0x2640 PUSH1 0x60 DUP4 ADD DUP5 PUSH2 0x25E6 JUMP JUMPDEST SWAP6 SWAP5 POP POP POP POP POP JUMP JUMPDEST PUSH1 0x0 PUSH1 0x20 DUP3 ADD SWAP1 POP PUSH2 0x265E PUSH1 0x0 DUP4 ADD DUP5 PUSH2 0x247B JUMP JUMPDEST SWAP3 SWAP2 POP POP JUMP JUMPDEST PUSH1 0x0 PUSH1 0xC0 DUP3 ADD SWAP1 POP PUSH2 0x2679 PUSH1 0x0 DUP4 ADD DUP10 PUSH2 0x247B JUMP JUMPDEST PUSH2 0x2686 PUSH1 0x20 DUP4 ADD DUP9 PUSH2 0x246C JUMP JUMPDEST PUSH2 0x2693 PUSH1 0x40 DUP4 ADD DUP8 PUSH2 0x259B JUMP JUMPDEST PUSH2 0x26A0 PUSH1 0x60 DUP4 ADD DUP7 PUSH2 0x24A8 JUMP JUMPDEST DUP2 DUP2 SUB PUSH1 0x80 DUP4 ADD MSTORE PUSH2 0x26B2 DUP2 DUP6 PUSH2 0x24B7 JUMP JUMPDEST SWAP1 POP DUP2 DUP2 SUB PUSH1 0xA0 DUP4 ADD MSTORE PUSH2 0x26C6 DUP2 DUP5 PUSH2 0x24B7 JUMP JUMPDEST SWAP1 POP SWAP8 SWAP7 POP POP POP POP POP POP POP JUMP JUMPDEST PUSH1 0x0 PUSH1 0x60 DUP3 ADD SWAP1 POP PUSH2 0x26E8 PUSH1 0x0 DUP4 ADD DUP7 PUSH2 0x247B JUMP JUMPDEST DUP2 DUP2 SUB PUSH1 0x20 DUP4 ADD MSTORE PUSH2 0x26FA DUP2 DUP6 PUSH2 0x24B7 JUMP JUMPDEST SWAP1 POP PUSH2 0x2709 PUSH1 0x40 DUP4 ADD DUP5 PUSH2 0x25F5 JUMP JUMPDEST SWAP5 SWAP4 POP POP POP POP JUMP JUMPDEST PUSH1 0x0 PUSH1 0x80 DUP3 ADD SWAP1 POP PUSH2 0x2726 PUSH1 0x0 DUP4 ADD DUP8 PUSH2 0x247B JUMP JUMPDEST PUSH2 0x2733 PUSH1 0x20 DUP4 ADD DUP7 PUSH2 0x25F5 JUMP JUMPDEST PUSH2 0x2740 PUSH1 0x40 DUP4 ADD DUP6 PUSH2 0x25B9 JUMP JUMPDEST DUP2 DUP2 SUB PUSH1 0x60 DUP4 ADD MSTORE PUSH2 0x2752 DUP2 DUP5 PUSH2 0x24B7 JUMP JUMPDEST SWAP1 POP SWAP6 SWAP5 POP POP POP POP POP JUMP JUMPDEST PUSH1 0x0 PUSH1 0x20 DUP3 ADD SWAP1 POP DUP2 DUP2 SUB PUSH1 0x0 DUP4 ADD MSTORE PUSH2 0x2776 DUP2 PUSH2 0x24F0 JUMP JUMPDEST SWAP1 POP SWAP2 SWAP1 POP JUMP JUMPDEST PUSH1 0x0 PUSH1 0x20 DUP3 ADD SWAP1 POP DUP2 DUP2 SUB PUSH1 0x0 DUP4 ADD MSTORE PUSH2 0x2796 DUP2 PUSH2 0x2513 JUMP JUMPDEST SWAP1 POP SWAP2 SWAP1 POP JUMP JUMPDEST PUSH1 0x0 PUSH1 0x20 DUP3 ADD SWAP1 POP DUP2 DUP2 SUB PUSH1 0x0 DUP4 ADD MSTORE PUSH2 0x27B6 DUP2 PUSH2 0x2536 JUMP JUMPDEST SWAP1 POP SWAP2 SWAP1 POP JUMP JUMPDEST PUSH1 0x0 PUSH1 0x20 DUP3 ADD SWAP1 POP PUSH2 0x27D2 PUSH1 0x0 DUP4 ADD DUP5 PUSH2 0x25B9 JUMP JUMPDEST SWAP3 SWAP2 POP POP JUMP JUMPDEST PUSH1 0x0 PUSH2 0x1A0 DUP3 ADD SWAP1 POP PUSH2 0x27EE PUSH1 0x0 DUP4 ADD DUP15 PUSH2 0x25B9 JUMP JUMPDEST PUSH2 0x27FB PUSH1 0x20 DUP4 ADD DUP14 PUSH2 0x246C JUMP JUMPDEST PUSH2 0x2808 PUSH1 0x40 DUP4 ADD DUP13 PUSH2 0x25D7 JUMP JUMPDEST PUSH2 0x2815 PUSH1 0x60 DUP4 ADD DUP12 PUSH2 0x25F5 JUMP JUMPDEST PUSH2 0x2822 PUSH1 0x80 DUP4 ADD DUP11 PUSH2 0x248A JUMP JUMPDEST DUP2 DUP2 SUB PUSH1 0xA0 DUP4 ADD MSTORE PUSH2 0x2834 DUP2 DUP10 PUSH2 0x24B7 JUMP JUMPDEST SWAP1 POP PUSH2 0x2843 PUSH1 0xC0 DUP4 ADD DUP9 PUSH2 0x25B9 JUMP JUMPDEST PUSH2 0x2850 PUSH1 0xE0 DUP4 ADD DUP8 PUSH2 0x25B9 JUMP JUMPDEST PUSH2 0x285E PUSH2 0x100 DUP4 ADD DUP7 PUSH2 0x25F5 JUMP JUMPDEST PUSH2 0x286C PUSH2 0x120 DUP4 ADD DUP6 PUSH2 0x25D7 JUMP JUMPDEST PUSH2 0x287A PUSH2 0x140 DUP4 ADD DUP5 PUSH2 0x2559 JUMP JUMPDEST SWAP13 SWAP12 POP POP POP POP POP POP POP POP POP POP POP POP JUMP JUMPDEST PUSH1 0x0 PUSH1 0x40 DUP3 ADD SWAP1 POP PUSH2 0x289F PUSH1 0x0 DUP4 ADD DUP6 PUSH2 0x25D7 JUMP JUMPDEST DUP2 DUP2 SUB PUSH1 0x20 DUP4 ADD MSTORE PUSH2 0x28B1 DUP2 DUP5 PUSH2 0x24B7 JUMP JUMPDEST SWAP1 POP SWAP4 SWAP3 POP POP POP JUMP JUMPDEST PUSH1 0x0 PUSH2 0x28C4 PUSH2 0x28D5 JUMP JUMPDEST SWAP1 POP PUSH2 0x28D0 DUP3 DUP3 PUSH2 0x2AA6 JUMP JUMPDEST SWAP2 SWAP1 POP JUMP JUMPDEST PUSH1 0x0 PUSH1 0x40 MLOAD SWAP1 POP SWAP1 JUMP JUMPDEST PUSH1 0x0 PUSH8 0xFFFFFFFFFFFFFFFF DUP3 GT ISZERO PUSH2 0x28FA JUMPI PUSH2 0x28F9 PUSH2 0x2BAD JUMP JUMPDEST JUMPDEST PUSH2 0x2903 DUP3 PUSH2 0x2BF0 JUMP JUMPDEST SWAP1 POP PUSH1 0x20 DUP2 ADD SWAP1 POP SWAP2 SWAP1 POP JUMP JUMPDEST PUSH1 0x0 DUP2 MLOAD SWAP1 POP SWAP2 SWAP1 POP JUMP JUMPDEST PUSH1 0x0 DUP3 DUP3 MSTORE PUSH1 0x20 DUP3 ADD SWAP1 POP SWAP3 SWAP2 POP POP JUMP JUMPDEST PUSH1 0x0 PUSH2 0x2937 DUP3 PUSH2 0x2991 JUMP JUMPDEST SWAP1 POP SWAP2 SWAP1 POP JUMP JUMPDEST PUSH1 0x0 DUP2 ISZERO ISZERO SWAP1 POP SWAP2 SWAP1 POP JUMP JUMPDEST PUSH1 0x0 DUP2 SWAP1 POP PUSH2 0x2958 DUP3 PUSH2 0x2C7C JUMP JUMPDEST SWAP2 SWAP1 POP JUMP JUMPDEST PUSH1 0x0 DUP2 SWAP1 POP PUSH2 0x296B DUP3 PUSH2 0x2C90 JUMP JUMPDEST SWAP2 SWAP1 POP JUMP JUMPDEST PUSH1 0x0 DUP2 SWAP1 POP PUSH2 0x297E DUP3 PUSH2 0x2CA4 JUMP JUMPDEST SWAP2 SWAP1 POP JUMP JUMPDEST PUSH1 0x0 PUSH2 0xFFFF DUP3 AND SWAP1 POP SWAP2 SWAP1 POP JUMP JUMPDEST PUSH1 0x0 PUSH20 0xFFFFFFFFFFFFFFFFFFFFFFFFFFFFFFFFFFFFFFFF DUP3 AND SWAP1 POP SWAP2 SWAP1 POP JUMP JUMPDEST PUSH1 0x0 DUP2 SWAP1 POP SWAP2 SWAP1 POP JUMP JUMPDEST PUSH1 0x0 PUSH4 0xFFFFFFFF DUP3 AND SWAP1 POP SWAP2 SWAP1 POP JUMP JUMPDEST PUSH1 0x0 PUSH1 0xFF DUP3 AND SWAP1 POP SWAP2 SWAP1 POP JUMP JUMPDEST PUSH1 0x0 PUSH2 0x29E3 DUP3 PUSH2 0x294A JUMP JUMPDEST SWAP1 POP SWAP2 SWAP1 POP JUMP JUMPDEST PUSH1 0x0 PUSH2 0x29F5 DUP3 PUSH2 0x295D JUMP JUMPDEST SWAP1 POP SWAP2 SWAP1 POP JUMP JUMPDEST PUSH1 0x0 PUSH2 0x2A07 DUP3 PUSH2 0x2970 JUMP JUMPDEST SWAP1 POP SWAP2 SWAP1 POP JUMP JUMPDEST PUSH1 0x0 PUSH2 0x2A19 DUP3 PUSH2 0x29BB JUMP JUMPDEST SWAP1 POP SWAP2 SWAP1 POP JUMP JUMPDEST PUSH1 0x0 PUSH2 0x2A2B DUP3 PUSH2 0x29CB JUMP JUMPDEST SWAP1 POP SWAP2 SWAP1 POP JUMP JUMPDEST DUP3 DUP2 DUP4 CALLDATACOPY PUSH1 0x0 DUP4 DUP4 ADD MSTORE POP POP POP JUMP JUMPDEST PUSH1 0x0 JUMPDEST DUP4 DUP2 LT ISZERO PUSH2 0x2A5F JUMPI DUP1 DUP3 ADD MLOAD DUP2 DUP5 ADD MSTORE PUSH1 0x20 DUP2 ADD SWAP1 POP PUSH2 0x2A44 JUMP JUMPDEST DUP4 DUP2 GT ISZERO PUSH2 0x2A6E JUMPI PUSH1 0x0 DUP5 DUP5 ADD MSTORE JUMPDEST POP POP POP POP JUMP JUMPDEST PUSH1 0x0 PUSH1 0x2 DUP3 DIV SWAP1 POP PUSH1 0x1 DUP3 AND DUP1 PUSH2 0x2A8C JUMPI PUSH1 0x7F DUP3 AND SWAP2 POP JUMPDEST PUSH1 0x20 DUP3 LT DUP2 EQ ISZERO PUSH2 0x2AA0 JUMPI PUSH2 0x2A9F PUSH2 0x2B7E JUMP JUMPDEST JUMPDEST POP SWAP2 SWAP1 POP JUMP JUMPDEST PUSH2 0x2AAF DUP3 PUSH2 0x2BF0 JUMP JUMPDEST DUP2 ADD DUP2 DUP2 LT PUSH8 0xFFFFFFFFFFFFFFFF DUP3 GT OR ISZERO PUSH2 0x2ACE JUMPI PUSH2 0x2ACD PUSH2 0x2BAD JUMP JUMPDEST JUMPDEST DUP1 PUSH1 0x40 MSTORE POP POP POP JUMP JUMPDEST PUSH1 0x0 PUSH2 0x2AE2 DUP3 PUSH2 0x29B1 JUMP JUMPDEST SWAP2 POP PUSH32 0xFFFFFFFFFFFFFFFFFFFFFFFFFFFFFFFFFFFFFFFFFFFFFFFFFFFFFFFFFFFFFFFF DUP3 EQ ISZERO PUSH2 0x2B15 JUMPI PUSH2 0x2B14 PUSH2 0x2B20 JUMP JUMPDEST JUMPDEST PUSH1 0x1 DUP3 ADD SWAP1 POP SWAP2 SWAP1 POP JUMP JUMPDEST PUSH32 0x4E487B7100000000000000000000000000000000000000000000000000000000 PUSH1 0x0 MSTORE PUSH1 0x11 PUSH1 0x4 MSTORE PUSH1 0x24 PUSH1 0x0 REVERT JUMPDEST PUSH32 0x4E487B7100000000000000000000000000000000000000000000000000000000 PUSH1 0x0 MSTORE PUSH1 0x21 PUSH1 0x4 MSTORE PUSH1 0x24 PUSH1 0x0 REVERT JUMPDEST PUSH32 0x4E487B7100000000000000000000000000000000000000000000000000000000 PUSH1 0x0 MSTORE PUSH1 0x22 PUSH1 0x4 MSTORE PUSH1 0x24 PUSH1 0x0 REVERT JUMPDEST PUSH32 0x4E487B7100000000000000000000000000000000000000000000000000000000 PUSH1 0x0 MSTORE PUSH1 0x41 PUSH1 0x4 MSTORE PUSH1 0x24 PUSH1 0x0 REVERT JUMPDEST PUSH1 0x0 DUP1 REVERT JUMPDEST PUSH1 0x0 DUP1 REVERT JUMPDEST PUSH1 0x0 DUP1 REVERT JUMPDEST PUSH1 0x0 DUP1 REVERT JUMPDEST PUSH1 0x0 PUSH1 0x1F NOT PUSH1 0x1F DUP4 ADD AND SWAP1 POP SWAP2 SWAP1 POP JUMP JUMPDEST PUSH32 0x42752069736C656D6920736164656365204B697369207961706162696C69722E PUSH1 0x0 DUP3 ADD MSTORE POP JUMP JUMPDEST PUSH32 0x53747564656E74206E6F74206578697374730000000000000000000000000000 PUSH1 0x0 DUP3 ADD MSTORE POP JUMP JUMPDEST PUSH32 0x42752069736C656D6920736164656365204B757273207961706162696C69722E PUSH1 0x0 DUP3 ADD MSTORE POP JUMP JUMPDEST PUSH1 0x3 DUP2 LT PUSH2 0x2C8D JUMPI PUSH2 0x2C8C PUSH2 0x2B4F JUMP JUMPDEST JUMPDEST POP JUMP JUMPDEST PUSH1 0x3 DUP2 LT PUSH2 0x2CA1 JUMPI PUSH2 0x2CA0 PUSH2 0x2B4F JUMP JUMPDEST JUMPDEST POP JUMP JUMPDEST PUSH1 0x4 DUP2 LT PUSH2 0x2CB5 JUMPI PUSH2 0x2CB4 PUSH2 0x2B4F JUMP JUMPDEST JUMPDEST POP JUMP JUMPDEST PUSH2 0x2CC1 DUP2 PUSH2 0x292C JUMP JUMPDEST DUP2 EQ PUSH2 0x2CCC JUMPI PUSH1 0x0 DUP1 REVERT JUMPDEST POP JUMP JUMPDEST PUSH1 0x3 DUP2 LT PUSH2 0x2CDC JUMPI PUSH1 0x0 DUP1 REVERT JUMPDEST POP JUMP JUMPDEST PUSH2 0x2CE8 DUP2 PUSH2 0x29B1 JUMP JUMPDEST DUP2 EQ PUSH2 0x2CF3 JUMPI PUSH1 0x0 DUP1 REVERT JUMPDEST POP JUMP JUMPDEST PUSH2 0x2CFF DUP2 PUSH2 0x29BB JUMP JUMPDEST DUP2 EQ PUSH2 0x2D0A JUMPI PUSH1 0x0 DUP1 REVERT JUMPDEST POP JUMP JUMPDEST PUSH2 0x2D16 DUP2 PUSH2 0x29CB JUMP JUMPDEST DUP2 EQ PUSH2 0x2D21 JUMPI PUSH1 0x0 DUP1 REVERT JUMPDEST POP JUMP INVALID LOG2 PUSH5 0x6970667358 0x22 SLT KECCAK256 0xC5 NOT SWAP14 0x23 0xB8 DUP1 PUSH2 0xAD5A 0x2B 0xB3 PUSH2 0x3D7E 0x4C CALLDATASIZE 0xD2 0xEF EXTCODESIZE CREATE 0xCA 0xE 0xB9 CREATE2 SHL SWAP9 RETURNDATACOPY 0x28 0xE0 0xD5 0xC8 0xB3 PUSH5 0x736F6C6343 STOP ADDMOD SMOD STOP CALLER "
				},
				"gasEstimates": {
					"creation": {
						"codeDepositCost": "2322000",
						"executionCost": "2486",
						"totalCost": "2324486"
					},
					"external": {
						"akademisyenler(address)": "infinite",
						"calismaBilgileri(address,uint256)": "infinite",
						"diller(uint32)": "infinite",
						"ekleCalismaBilgi(address,uint32,uint8,uint8,string,uint256,uint256,uint8,uint32)": "infinite",
						"firmalar(address)": "infinite",
						"guncelleCalismaBilgi(address,uint256,uint32,uint8,uint8,string,uint256,uint256,uint8,uint32)": "infinite",
						"id()": "2473",
						"kamuKurumlari(address)": "infinite",
						"kisiler(address)": "2958",
						"kurslar(address)": "infinite",
						"sertifikaMerkezleri(address)": "infinite",
						"stklar(address)": "infinite",
						"talepEtCalismaBilgi(address,uint32,uint8,uint8,string,uint256,uint256,uint8,uint32)": "infinite",
						"universiteler(address)": "infinite"
					}
				},
				"methodIdentifiers": {
					"akademisyenler(address)": "ba479b7e",
					"calismaBilgileri(address,uint256)": "0fb0b1b2",
					"diller(uint32)": "a4e7ae05",
					"ekleCalismaBilgi(address,uint32,uint8,uint8,string,uint256,uint256,uint8,uint32)": "ac30910c",
					"firmalar(address)": "39987f94",
					"guncelleCalismaBilgi(address,uint256,uint32,uint8,uint8,string,uint256,uint256,uint8,uint32)": "62bda16b",
					"id()": "af640d0f",
					"kamuKurumlari(address)": "7d0fa287",
					"kisiler(address)": "cbc92809",
					"kurslar(address)": "1916e139",
					"sertifikaMerkezleri(address)": "356b1f1e",
					"stklar(address)": "9a8c9119",
					"talepEtCalismaBilgi(address,uint32,uint8,uint8,string,uint256,uint256,uint8,uint32)": "035963ce",
					"universiteler(address)": "28266697"
				}
			},
			"storageLayout": {
				"storage": [
					{
						"astId": 3,
						"contract": "contracts/CalismaBilgileri.sol:CalismaBilgileri",
						"label": "YOK",
						"offset": 0,
						"slot": "0",
						"type": "t_address"
					},
					{
						"astId": 5,
						"contract": "contracts/CalismaBilgileri.sol:CalismaBilgileri",
						"label": "TOBB",
						"offset": 0,
						"slot": "1",
						"type": "t_address"
					},
					{
						"astId": 7,
						"contract": "contracts/CalismaBilgileri.sol:CalismaBilgileri",
						"label": "CB",
						"offset": 0,
						"slot": "2",
						"type": "t_address"
					},
					{
						"astId": 263,
						"contract": "contracts/CalismaBilgileri.sol:CalismaBilgileri",
						"label": "kisiler",
						"offset": 0,
						"slot": "3",
						"type": "t_mapping(t_address,t_struct(Kisi)10_storage)"
					},
					{
						"astId": 268,
						"contract": "contracts/CalismaBilgileri.sol:CalismaBilgileri",
						"label": "universiteler",
						"offset": 0,
						"slot": "4",
						"type": "t_mapping(t_address,t_struct(Universite)43_storage)"
					},
					{
						"astId": 273,
						"contract": "contracts/CalismaBilgileri.sol:CalismaBilgileri",
						"label": "akademisyenler",
						"offset": 0,
						"slot": "5",
						"type": "t_mapping(t_address,t_struct(Akademisyen)57_storage)"
					},
					{
						"astId": 278,
						"contract": "contracts/CalismaBilgileri.sol:CalismaBilgileri",
						"label": "firmalar",
						"offset": 0,
						"slot": "6",
						"type": "t_mapping(t_address,t_struct(Firma)97_storage)"
					},
					{
						"astId": 283,
						"contract": "contracts/CalismaBilgileri.sol:CalismaBilgileri",
						"label": "kurslar",
						"offset": 0,
						"slot": "7",
						"type": "t_mapping(t_address,t_struct(Kurs)125_storage)"
					},
					{
						"astId": 288,
						"contract": "contracts/CalismaBilgileri.sol:CalismaBilgileri",
						"label": "kamuKurumlari",
						"offset": 0,
						"slot": "8",
						"type": "t_mapping(t_address,t_struct(KamuKurumu)104_storage)"
					},
					{
						"astId": 293,
						"contract": "contracts/CalismaBilgileri.sol:CalismaBilgileri",
						"label": "stklar",
						"offset": 0,
						"slot": "9",
						"type": "t_mapping(t_address,t_struct(STK)111_storage)"
					},
					{
						"astId": 298,
						"contract": "contracts/CalismaBilgileri.sol:CalismaBilgileri",
						"label": "sertifikaMerkezleri",
						"offset": 0,
						"slot": "10",
						"type": "t_mapping(t_address,t_struct(SertifikaMerkezi)118_storage)"
					},
					{
						"astId": 303,
						"contract": "contracts/CalismaBilgileri.sol:CalismaBilgileri",
						"label": "diller",
						"offset": 0,
						"slot": "11",
						"type": "t_mapping(t_uint32,t_struct(YabanciDil)130_storage)"
					},
					{
						"astId": 311,
						"contract": "contracts/CalismaBilgileri.sol:CalismaBilgileri",
						"label": "id",
						"offset": 0,
						"slot": "12",
						"type": "t_uint256"
					},
					{
						"astId": 343,
						"contract": "contracts/CalismaBilgileri.sol:CalismaBilgileri",
						"label": "calismaBilgileri",
						"offset": 0,
						"slot": "13",
						"type": "t_mapping(t_address,t_mapping(t_uint256,t_struct(CalismaBilgi)336_storage))"
					}
				],
				"types": {
					"t_address": {
						"encoding": "inplace",
						"label": "address",
						"numberOfBytes": "20"
					},
					"t_bool": {
						"encoding": "inplace",
						"label": "bool",
						"numberOfBytes": "1"
					},
					"t_enum(CalismaTipi)24": {
						"encoding": "inplace",
						"label": "enum BaseContract.CalismaTipi",
						"numberOfBytes": "1"
					},
					"t_enum(OnayDurum)36": {
						"encoding": "inplace",
						"label": "enum BaseContract.OnayDurum",
						"numberOfBytes": "1"
					},
					"t_enum(Unvan)62": {
						"encoding": "inplace",
						"label": "enum BaseContract.Unvan",
						"numberOfBytes": "1"
					},
					"t_mapping(t_address,t_mapping(t_uint256,t_struct(CalismaBilgi)336_storage))": {
						"encoding": "mapping",
						"key": "t_address",
						"label": "mapping(address => mapping(uint256 => struct CalismaBilgileri.CalismaBilgi))",
						"numberOfBytes": "32",
						"value": "t_mapping(t_uint256,t_struct(CalismaBilgi)336_storage)"
					},
					"t_mapping(t_address,t_struct(Akademisyen)57_storage)": {
						"encoding": "mapping",
						"key": "t_address",
						"label": "mapping(address => struct BaseContract.Akademisyen)",
						"numberOfBytes": "32",
						"value": "t_struct(Akademisyen)57_storage"
					},
					"t_mapping(t_address,t_struct(Firma)97_storage)": {
						"encoding": "mapping",
						"key": "t_address",
						"label": "mapping(address => struct BaseContract.Firma)",
						"numberOfBytes": "32",
						"value": "t_struct(Firma)97_storage"
					},
					"t_mapping(t_address,t_struct(KamuKurumu)104_storage)": {
						"encoding": "mapping",
						"key": "t_address",
						"label": "mapping(address => struct BaseContract.KamuKurumu)",
						"numberOfBytes": "32",
						"value": "t_struct(KamuKurumu)104_storage"
					},
					"t_mapping(t_address,t_struct(Kisi)10_storage)": {
						"encoding": "mapping",
						"key": "t_address",
						"label": "mapping(address => struct BaseContract.Kisi)",
						"numberOfBytes": "32",
						"value": "t_struct(Kisi)10_storage"
					},
					"t_mapping(t_address,t_struct(Kurs)125_storage)": {
						"encoding": "mapping",
						"key": "t_address",
						"label": "mapping(address => struct BaseContract.Kurs)",
						"numberOfBytes": "32",
						"value": "t_struct(Kurs)125_storage"
					},
					"t_mapping(t_address,t_struct(STK)111_storage)": {
						"encoding": "mapping",
						"key": "t_address",
						"label": "mapping(address => struct BaseContract.STK)",
						"numberOfBytes": "32",
						"value": "t_struct(STK)111_storage"
					},
					"t_mapping(t_address,t_struct(SertifikaMerkezi)118_storage)": {
						"encoding": "mapping",
						"key": "t_address",
						"label": "mapping(address => struct BaseContract.SertifikaMerkezi)",
						"numberOfBytes": "32",
						"value": "t_struct(SertifikaMerkezi)118_storage"
					},
					"t_mapping(t_address,t_struct(Universite)43_storage)": {
						"encoding": "mapping",
						"key": "t_address",
						"label": "mapping(address => struct BaseContract.Universite)",
						"numberOfBytes": "32",
						"value": "t_struct(Universite)43_storage"
					},
					"t_mapping(t_uint256,t_struct(CalismaBilgi)336_storage)": {
						"encoding": "mapping",
						"key": "t_uint256",
						"label": "mapping(uint256 => struct CalismaBilgileri.CalismaBilgi)",
						"numberOfBytes": "32",
						"value": "t_struct(CalismaBilgi)336_storage"
					},
					"t_mapping(t_uint32,t_struct(YabanciDil)130_storage)": {
						"encoding": "mapping",
						"key": "t_uint32",
						"label": "mapping(uint32 => struct BaseContract.YabanciDil)",
						"numberOfBytes": "32",
						"value": "t_struct(YabanciDil)130_storage"
					},
					"t_string_storage": {
						"encoding": "bytes",
						"label": "string",
						"numberOfBytes": "32"
					},
					"t_struct(Akademisyen)57_storage": {
						"encoding": "inplace",
						"label": "struct BaseContract.Akademisyen",
						"members": [
							{
								"astId": 45,
								"contract": "contracts/CalismaBilgileri.sol:CalismaBilgileri",
								"label": "durum",
								"offset": 0,
								"slot": "0",
								"type": "t_bool"
							},
							{
								"astId": 47,
								"contract": "contracts/CalismaBilgileri.sol:CalismaBilgileri",
								"label": "universite",
								"offset": 1,
								"slot": "0",
								"type": "t_address"
							},
							{
								"astId": 49,
								"contract": "contracts/CalismaBilgileri.sol:CalismaBilgileri",
								"label": "bolum",
								"offset": 21,
								"slot": "0",
								"type": "t_uint16"
							},
							{
								"astId": 52,
								"contract": "contracts/CalismaBilgileri.sol:CalismaBilgileri",
								"label": "unvan",
								"offset": 23,
								"slot": "0",
								"type": "t_enum(Unvan)62"
							},
							{
								"astId": 54,
								"contract": "contracts/CalismaBilgileri.sol:CalismaBilgileri",
								"label": "ad",
								"offset": 0,
								"slot": "1",
								"type": "t_string_storage"
							},
							{
								"astId": 56,
								"contract": "contracts/CalismaBilgileri.sol:CalismaBilgileri",
								"label": "soyad",
								"offset": 0,
								"slot": "2",
								"type": "t_string_storage"
							}
						],
						"numberOfBytes": "96"
					},
					"t_struct(CalismaBilgi)336_storage": {
						"encoding": "inplace",
						"label": "struct CalismaBilgileri.CalismaBilgi",
						"members": [
							{
								"astId": 313,
								"contract": "contracts/CalismaBilgileri.sol:CalismaBilgileri",
								"label": "id",
								"offset": 0,
								"slot": "0",
								"type": "t_uint256"
							},
							{
								"astId": 315,
								"contract": "contracts/CalismaBilgileri.sol:CalismaBilgileri",
								"label": "talepEdilenKurum",
								"offset": 0,
								"slot": "1",
								"type": "t_address"
							},
							{
								"astId": 317,
								"contract": "contracts/CalismaBilgileri.sol:CalismaBilgileri",
								"label": "pozisyon",
								"offset": 20,
								"slot": "1",
								"type": "t_uint32"
							},
							{
								"astId": 319,
								"contract": "contracts/CalismaBilgileri.sol:CalismaBilgileri",
								"label": "sektor",
								"offset": 24,
								"slot": "1",
								"type": "t_uint8"
							},
							{
								"astId": 322,
								"contract": "contracts/CalismaBilgileri.sol:CalismaBilgileri",
								"label": "calismaTipi",
								"offset": 25,
								"slot": "1",
								"type": "t_enum(CalismaTipi)24"
							},
							{
								"astId": 324,
								"contract": "contracts/CalismaBilgileri.sol:CalismaBilgileri",
								"label": "isAciklama",
								"offset": 0,
								"slot": "2",
								"type": "t_string_storage"
							},
							{
								"astId": 326,
								"contract": "contracts/CalismaBilgileri.sol:CalismaBilgileri",
								"label": "basTarih",
								"offset": 0,
								"slot": "3",
								"type": "t_uint256"
							},
							{
								"astId": 328,
								"contract": "contracts/CalismaBilgileri.sol:CalismaBilgileri",
								"label": "bitTarih",
								"offset": 0,
								"slot": "4",
								"type": "t_uint256"
							},
							{
								"astId": 330,
								"contract": "contracts/CalismaBilgileri.sol:CalismaBilgileri",
								"label": "ulke",
								"offset": 0,
								"slot": "5",
								"type": "t_uint8"
							},
							{
								"astId": 332,
								"contract": "contracts/CalismaBilgileri.sol:CalismaBilgileri",
								"label": "sehir",
								"offset": 1,
								"slot": "5",
								"type": "t_uint32"
							},
							{
								"astId": 335,
								"contract": "contracts/CalismaBilgileri.sol:CalismaBilgileri",
								"label": "onayBilgi",
								"offset": 0,
								"slot": "6",
								"type": "t_struct(Onay)32_storage"
							}
						],
						"numberOfBytes": "256"
					},
					"t_struct(Firma)97_storage": {
						"encoding": "inplace",
						"label": "struct BaseContract.Firma",
						"members": [
							{
								"astId": 90,
								"contract": "contracts/CalismaBilgileri.sol:CalismaBilgileri",
								"label": "durum",
								"offset": 0,
								"slot": "0",
								"type": "t_bool"
							},
							{
								"astId": 92,
								"contract": "contracts/CalismaBilgileri.sol:CalismaBilgileri",
								"label": "ulke",
								"offset": 1,
								"slot": "0",
								"type": "t_uint8"
							},
							{
								"astId": 94,
								"contract": "contracts/CalismaBilgileri.sol:CalismaBilgileri",
								"label": "vergiNo",
								"offset": 0,
								"slot": "1",
								"type": "t_uint256"
							},
							{
								"astId": 96,
								"contract": "contracts/CalismaBilgileri.sol:CalismaBilgileri",
								"label": "isim",
								"offset": 0,
								"slot": "2",
								"type": "t_string_storage"
							}
						],
						"numberOfBytes": "96"
					},
					"t_struct(KamuKurumu)104_storage": {
						"encoding": "inplace",
						"label": "struct BaseContract.KamuKurumu",
						"members": [
							{
								"astId": 99,
								"contract": "contracts/CalismaBilgileri.sol:CalismaBilgileri",
								"label": "durum",
								"offset": 0,
								"slot": "0",
								"type": "t_bool"
							},
							{
								"astId": 101,
								"contract": "contracts/CalismaBilgileri.sol:CalismaBilgileri",
								"label": "isim",
								"offset": 0,
								"slot": "1",
								"type": "t_string_storage"
							},
							{
								"astId": 103,
								"contract": "contracts/CalismaBilgileri.sol:CalismaBilgileri",
								"label": "ulke",
								"offset": 0,
								"slot": "2",
								"type": "t_uint8"
							}
						],
						"numberOfBytes": "96"
					},
					"t_struct(Kisi)10_storage": {
						"encoding": "inplace",
						"label": "struct BaseContract.Kisi",
						"members": [
							{
								"astId": 9,
								"contract": "contracts/CalismaBilgileri.sol:CalismaBilgileri",
								"label": "durum",
								"offset": 0,
								"slot": "0",
								"type": "t_bool"
							}
						],
						"numberOfBytes": "32"
					},
					"t_struct(Kurs)125_storage": {
						"encoding": "inplace",
						"label": "struct BaseContract.Kurs",
						"members": [
							{
								"astId": 120,
								"contract": "contracts/CalismaBilgileri.sol:CalismaBilgileri",
								"label": "durum",
								"offset": 0,
								"slot": "0",
								"type": "t_bool"
							},
							{
								"astId": 122,
								"contract": "contracts/CalismaBilgileri.sol:CalismaBilgileri",
								"label": "isim",
								"offset": 0,
								"slot": "1",
								"type": "t_string_storage"
							},
							{
								"astId": 124,
								"contract": "contracts/CalismaBilgileri.sol:CalismaBilgileri",
								"label": "ulke",
								"offset": 0,
								"slot": "2",
								"type": "t_uint8"
							}
						],
						"numberOfBytes": "96"
					},
					"t_struct(Onay)32_storage": {
						"encoding": "inplace",
						"label": "struct BaseContract.Onay",
						"members": [
							{
								"astId": 26,
								"contract": "contracts/CalismaBilgileri.sol:CalismaBilgileri",
								"label": "zaman",
								"offset": 0,
								"slot": "0",
								"type": "t_uint256"
							},
							{
								"astId": 28,
								"contract": "contracts/CalismaBilgileri.sol:CalismaBilgileri",
								"label": "adres",
								"offset": 0,
								"slot": "1",
								"type": "t_address"
							},
							{
								"astId": 31,
								"contract": "contracts/CalismaBilgileri.sol:CalismaBilgileri",
								"label": "durum",
								"offset": 20,
								"slot": "1",
								"type": "t_enum(OnayDurum)36"
							}
						],
						"numberOfBytes": "64"
					},
					"t_struct(STK)111_storage": {
						"encoding": "inplace",
						"label": "struct BaseContract.STK",
						"members": [
							{
								"astId": 106,
								"contract": "contracts/CalismaBilgileri.sol:CalismaBilgileri",
								"label": "durum",
								"offset": 0,
								"slot": "0",
								"type": "t_bool"
							},
							{
								"astId": 108,
								"contract": "contracts/CalismaBilgileri.sol:CalismaBilgileri",
								"label": "isim",
								"offset": 0,
								"slot": "1",
								"type": "t_string_storage"
							},
							{
								"astId": 110,
								"contract": "contracts/CalismaBilgileri.sol:CalismaBilgileri",
								"label": "ulke",
								"offset": 0,
								"slot": "2",
								"type": "t_uint8"
							}
						],
						"numberOfBytes": "96"
					},
					"t_struct(SertifikaMerkezi)118_storage": {
						"encoding": "inplace",
						"label": "struct BaseContract.SertifikaMerkezi",
						"members": [
							{
								"astId": 113,
								"contract": "contracts/CalismaBilgileri.sol:CalismaBilgileri",
								"label": "durum",
								"offset": 0,
								"slot": "0",
								"type": "t_bool"
							},
							{
								"astId": 115,
								"contract": "contracts/CalismaBilgileri.sol:CalismaBilgileri",
								"label": "isim",
								"offset": 0,
								"slot": "1",
								"type": "t_string_storage"
							},
							{
								"astId": 117,
								"contract": "contracts/CalismaBilgileri.sol:CalismaBilgileri",
								"label": "ulke",
								"offset": 0,
								"slot": "2",
								"type": "t_uint8"
							}
						],
						"numberOfBytes": "96"
					},
					"t_struct(Universite)43_storage": {
						"encoding": "inplace",
						"label": "struct BaseContract.Universite",
						"members": [
							{
								"astId": 38,
								"contract": "contracts/CalismaBilgileri.sol:CalismaBilgileri",
								"label": "durum",
								"offset": 0,
								"slot": "0",
								"type": "t_bool"
							},
							{
								"astId": 40,
								"contract": "contracts/CalismaBilgileri.sol:CalismaBilgileri",
								"label": "isim",
								"offset": 0,
								"slot": "1",
								"type": "t_string_storage"
							},
							{
								"astId": 42,
								"contract": "contracts/CalismaBilgileri.sol:CalismaBilgileri",
								"label": "ulke",
								"offset": 0,
								"slot": "2",
								"type": "t_uint8"
							}
						],
						"numberOfBytes": "96"
					},
					"t_struct(YabanciDil)130_storage": {
						"encoding": "inplace",
						"label": "struct BaseContract.YabanciDil",
						"members": [
							{
								"astId": 127,
								"contract": "contracts/CalismaBilgileri.sol:CalismaBilgileri",
								"label": "id",
								"offset": 0,
								"slot": "0",
								"type": "t_uint32"
							},
							{
								"astId": 129,
								"contract": "contracts/CalismaBilgileri.sol:CalismaBilgileri",
								"label": "isim",
								"offset": 0,
								"slot": "1",
								"type": "t_string_storage"
							}
						],
						"numberOfBytes": "64"
					},
					"t_uint16": {
						"encoding": "inplace",
						"label": "uint16",
						"numberOfBytes": "2"
					},
					"t_uint256": {
						"encoding": "inplace",
						"label": "uint256",
						"numberOfBytes": "32"
					},
					"t_uint32": {
						"encoding": "inplace",
						"label": "uint32",
						"numberOfBytes": "4"
					},
					"t_uint8": {
						"encoding": "inplace",
						"label": "uint8",
						"numberOfBytes": "1"
					}
				}
			},
			"userdoc": {
				"kind": "user",
				"methods": {},
				"version": 1
			}
		}
	}
}