{
	"contracts/Registration.sol": {
		"Registration": {
			"abi": [
				{
					"inputs": [
						{
							"internalType": "address",
							"name": "_baseContract",
							"type": "address"
						},
						{
							"internalType": "address",
							"name": "_yok",
							"type": "address"
						},
						{
							"internalType": "address",
							"name": "_tobb",
							"type": "address"
						},
						{
							"internalType": "address",
							"name": "_cb",
							"type": "address"
						}
					],
					"stateMutability": "nonpayable",
					"type": "constructor"
				},
				{
					"anonymous": false,
					"inputs": [
						{
							"indexed": false,
							"internalType": "address",
							"name": "_firmaAdres",
							"type": "address"
						},
						{
							"indexed": false,
							"internalType": "string",
							"name": "_isim",
							"type": "string"
						},
						{
							"indexed": false,
							"internalType": "uint256",
							"name": "_vergiNo",
							"type": "uint256"
						},
						{
							"indexed": false,
							"internalType": "uint8",
							"name": "_ulke",
							"type": "uint8"
						}
					],
					"name": "FirmaEkleLog",
					"type": "event"
				},
				{
					"anonymous": false,
					"inputs": [
						{
							"indexed": false,
							"internalType": "address",
							"name": "_kamuKurumuAdres",
							"type": "address"
						},
						{
							"indexed": false,
							"internalType": "string",
							"name": "_isim",
							"type": "string"
						},
						{
							"indexed": false,
							"internalType": "uint8",
							"name": "_ulke",
							"type": "uint8"
						}
					],
					"name": "KamuKurumuEkleLog",
					"type": "event"
				},
				{
					"anonymous": false,
					"inputs": [
						{
							"indexed": false,
							"internalType": "address",
							"name": "_kisiAdres",
							"type": "address"
						}
					],
					"name": "KisiLog",
					"type": "event"
				},
				{
					"anonymous": false,
					"inputs": [
						{
							"indexed": false,
							"internalType": "address",
							"name": "_kursAdres",
							"type": "address"
						},
						{
							"indexed": false,
							"internalType": "string",
							"name": "_isim",
							"type": "string"
						},
						{
							"indexed": false,
							"internalType": "uint8",
							"name": "_ulke",
							"type": "uint8"
						}
					],
					"name": "KursEkleLog",
					"type": "event"
				},
				{
					"anonymous": false,
					"inputs": [
						{
							"indexed": false,
							"internalType": "address",
							"name": "_stkAdres",
							"type": "address"
						},
						{
							"indexed": false,
							"internalType": "string",
							"name": "_isim",
							"type": "string"
						},
						{
							"indexed": false,
							"internalType": "uint8",
							"name": "_ulke",
							"type": "uint8"
						}
					],
					"name": "STKEkleLog",
					"type": "event"
				},
				{
					"anonymous": false,
					"inputs": [
						{
							"indexed": false,
							"internalType": "address",
							"name": "_smAdres",
							"type": "address"
						},
						{
							"indexed": false,
							"internalType": "string",
							"name": "_isim",
							"type": "string"
						},
						{
							"indexed": false,
							"internalType": "uint8",
							"name": "_ulke",
							"type": "uint8"
						}
					],
					"name": "SertifikaMerkeziEkleLog",
					"type": "event"
				},
				{
					"anonymous": false,
					"inputs": [
						{
							"indexed": false,
							"internalType": "address",
							"name": "_universiteAdres",
							"type": "address"
						},
						{
							"indexed": false,
							"internalType": "string",
							"name": "_isim",
							"type": "string"
						},
						{
							"indexed": false,
							"internalType": "uint8",
							"name": "_ulke",
							"type": "uint8"
						}
					],
					"name": "UniversiteKayitLog",
					"type": "event"
				},
				{
					"inputs": [
						{
							"internalType": "address",
							"name": "_universiteAdres",
							"type": "address"
						},
						{
							"internalType": "string",
							"name": "_isim",
							"type": "string"
						},
						{
							"internalType": "uint8",
							"name": "_ulke",
							"type": "uint8"
						}
					],
					"name": "kaydetUniversite",
					"outputs": [],
					"stateMutability": "nonpayable",
					"type": "function"
				}
			],
			"devdoc": {
				"kind": "dev",
				"methods": {},
				"version": 1
			},
			"evm": {
				"assembly": "    /* \"contracts/Registration.sol\":102:3796  contract Registration {\r... */\n  mstore(0x40, 0x80)\n    /* \"contracts/Registration.sol\":683:871  constructor (address _baseContract,address _yok, address _tobb, address _cb){\r... */\n  callvalue\n  dup1\n  iszero\n  tag_1\n  jumpi\n  0x00\n  dup1\n  revert\ntag_1:\n  pop\n  mload(0x40)\n  sub(codesize, bytecodeSize)\n  dup1\n  bytecodeSize\n  dup4\n  codecopy\n  dup2\n  dup2\n  add\n  0x40\n  mstore\n  dup2\n  add\n  swap1\n  tag_2\n  swap2\n  swap1\n  tag_3\n  jump\t// in\ntag_2:\n    /* \"contracts/Registration.sol\":795:808  _baseContract */\n  dup4\n    /* \"contracts/Registration.sol\":769:781  baseContract */\n  0x00\n  dup1\n    /* \"contracts/Registration.sol\":769:809  baseContract=BaseContract(_baseContract) */\n  0x0100\n  exp\n  dup2\n  sload\n  dup2\n  0xffffffffffffffffffffffffffffffffffffffff\n  mul\n  not\n  and\n  swap1\n  dup4\n  0xffffffffffffffffffffffffffffffffffffffff\n  and\n  mul\n  or\n  swap1\n  sstore\n  pop\n    /* \"contracts/Registration.sol\":819:831  baseContract */\n  0x00\n  dup1\n  sload\n  swap1\n  0x0100\n  exp\n  swap1\n  div\n  0xffffffffffffffffffffffffffffffffffffffff\n  and\n    /* \"contracts/Registration.sol\":819:845  baseContract.paydasTanimla */\n  0xffffffffffffffffffffffffffffffffffffffff\n  and\n  0x36fd2633\n    /* \"contracts/Registration.sol\":846:850  _yok */\n  dup5\n    /* \"contracts/Registration.sol\":852:857  _tobb */\n  dup5\n    /* \"contracts/Registration.sol\":859:862  _cb */\n  dup5\n    /* \"contracts/Registration.sol\":819:863  baseContract.paydasTanimla(_yok, _tobb, _cb) */\n  mload(0x40)\n  dup5\n  0xffffffff\n  and\n  0xe0\n  shl\n  dup2\n  mstore\n  0x04\n  add\n  tag_6\n  swap4\n  swap3\n  swap2\n  swap1\n  tag_7\n  jump\t// in\ntag_6:\n  0x00\n  mload(0x40)\n  dup1\n  dup4\n  sub\n  dup2\n  0x00\n  dup8\n  dup1\n  extcodesize\n  iszero\n  dup1\n  iszero\n  tag_8\n  jumpi\n  0x00\n  dup1\n  revert\ntag_8:\n  pop\n  gas\n  call\n  iszero\n  dup1\n  iszero\n  tag_10\n  jumpi\n  returndatasize\n  0x00\n  dup1\n  returndatacopy\n  revert(0x00, returndatasize)\ntag_10:\n  pop\n  pop\n  pop\n  pop\n    /* \"contracts/Registration.sol\":683:871  constructor (address _baseContract,address _yok, address _tobb, address _cb){\r... */\n  pop\n  pop\n  pop\n  pop\n    /* \"contracts/Registration.sol\":102:3796  contract Registration {\r... */\n  jump(tag_11)\n    /* \"#utility.yul\":7:150   */\ntag_13:\n    /* \"#utility.yul\":64:69   */\n  0x00\n    /* \"#utility.yul\":95:101   */\n  dup2\n    /* \"#utility.yul\":89:102   */\n  mload\n    /* \"#utility.yul\":80:102   */\n  swap1\n  pop\n    /* \"#utility.yul\":111:144   */\n  tag_15\n    /* \"#utility.yul\":138:143   */\n  dup2\n    /* \"#utility.yul\":111:144   */\n  tag_16\n  jump\t// in\ntag_15:\n    /* \"#utility.yul\":7:150   */\n  swap3\n  swap2\n  pop\n  pop\n  jump\t// out\n    /* \"#utility.yul\":156:976   */\ntag_3:\n    /* \"#utility.yul\":253:259   */\n  0x00\n    /* \"#utility.yul\":261:267   */\n  dup1\n    /* \"#utility.yul\":269:275   */\n  0x00\n    /* \"#utility.yul\":277:283   */\n  dup1\n    /* \"#utility.yul\":326:329   */\n  0x80\n    /* \"#utility.yul\":314:323   */\n  dup6\n    /* \"#utility.yul\":305:312   */\n  dup8\n    /* \"#utility.yul\":301:324   */\n  sub\n    /* \"#utility.yul\":297:330   */\n  slt\n    /* \"#utility.yul\":294:414   */\n  iszero\n  tag_18\n  jumpi\n    /* \"#utility.yul\":333:412   */\n  tag_19\n  tag_20\n  jump\t// in\ntag_19:\n    /* \"#utility.yul\":294:414   */\ntag_18:\n    /* \"#utility.yul\":453:454   */\n  0x00\n    /* \"#utility.yul\":478:542   */\n  tag_21\n    /* \"#utility.yul\":534:541   */\n  dup8\n    /* \"#utility.yul\":525:531   */\n  dup3\n    /* \"#utility.yul\":514:523   */\n  dup9\n    /* \"#utility.yul\":510:532   */\n  add\n    /* \"#utility.yul\":478:542   */\n  tag_13\n  jump\t// in\ntag_21:\n    /* \"#utility.yul\":468:542   */\n  swap5\n  pop\n    /* \"#utility.yul\":424:552   */\n  pop\n    /* \"#utility.yul\":591:593   */\n  0x20\n    /* \"#utility.yul\":617:681   */\n  tag_22\n    /* \"#utility.yul\":673:680   */\n  dup8\n    /* \"#utility.yul\":664:670   */\n  dup3\n    /* \"#utility.yul\":653:662   */\n  dup9\n    /* \"#utility.yul\":649:671   */\n  add\n    /* \"#utility.yul\":617:681   */\n  tag_13\n  jump\t// in\ntag_22:\n    /* \"#utility.yul\":607:681   */\n  swap4\n  pop\n    /* \"#utility.yul\":562:691   */\n  pop\n    /* \"#utility.yul\":730:732   */\n  0x40\n    /* \"#utility.yul\":756:820   */\n  tag_23\n    /* \"#utility.yul\":812:819   */\n  dup8\n    /* \"#utility.yul\":803:809   */\n  dup3\n    /* \"#utility.yul\":792:801   */\n  dup9\n    /* \"#utility.yul\":788:810   */\n  add\n    /* \"#utility.yul\":756:820   */\n  tag_13\n  jump\t// in\ntag_23:\n    /* \"#utility.yul\":746:820   */\n  swap3\n  pop\n    /* \"#utility.yul\":701:830   */\n  pop\n    /* \"#utility.yul\":869:871   */\n  0x60\n    /* \"#utility.yul\":895:959   */\n  tag_24\n    /* \"#utility.yul\":951:958   */\n  dup8\n    /* \"#utility.yul\":942:948   */\n  dup3\n    /* \"#utility.yul\":931:940   */\n  dup9\n    /* \"#utility.yul\":927:949   */\n  add\n    /* \"#utility.yul\":895:959   */\n  tag_13\n  jump\t// in\ntag_24:\n    /* \"#utility.yul\":885:959   */\n  swap2\n  pop\n    /* \"#utility.yul\":840:969   */\n  pop\n    /* \"#utility.yul\":156:976   */\n  swap3\n  swap6\n  swap2\n  swap5\n  pop\n  swap3\n  pop\n  jump\t// out\n    /* \"#utility.yul\":982:1100   */\ntag_25:\n    /* \"#utility.yul\":1069:1093   */\n  tag_27\n    /* \"#utility.yul\":1087:1092   */\n  dup2\n    /* \"#utility.yul\":1069:1093   */\n  tag_28\n  jump\t// in\ntag_27:\n    /* \"#utility.yul\":1064:1067   */\n  dup3\n    /* \"#utility.yul\":1057:1094   */\n  mstore\n    /* \"#utility.yul\":982:1100   */\n  pop\n  pop\n  jump\t// out\n    /* \"#utility.yul\":1106:1548   */\ntag_7:\n    /* \"#utility.yul\":1255:1259   */\n  0x00\n    /* \"#utility.yul\":1293:1295   */\n  0x60\n    /* \"#utility.yul\":1282:1291   */\n  dup3\n    /* \"#utility.yul\":1278:1296   */\n  add\n    /* \"#utility.yul\":1270:1296   */\n  swap1\n  pop\n    /* \"#utility.yul\":1306:1377   */\n  tag_30\n    /* \"#utility.yul\":1374:1375   */\n  0x00\n    /* \"#utility.yul\":1363:1372   */\n  dup4\n    /* \"#utility.yul\":1359:1376   */\n  add\n    /* \"#utility.yul\":1350:1356   */\n  dup7\n    /* \"#utility.yul\":1306:1377   */\n  tag_25\n  jump\t// in\ntag_30:\n    /* \"#utility.yul\":1387:1459   */\n  tag_31\n    /* \"#utility.yul\":1455:1457   */\n  0x20\n    /* \"#utility.yul\":1444:1453   */\n  dup4\n    /* \"#utility.yul\":1440:1458   */\n  add\n    /* \"#utility.yul\":1431:1437   */\n  dup6\n    /* \"#utility.yul\":1387:1459   */\n  tag_25\n  jump\t// in\ntag_31:\n    /* \"#utility.yul\":1469:1541   */\n  tag_32\n    /* \"#utility.yul\":1537:1539   */\n  0x40\n    /* \"#utility.yul\":1526:1535   */\n  dup4\n    /* \"#utility.yul\":1522:1540   */\n  add\n    /* \"#utility.yul\":1513:1519   */\n  dup5\n    /* \"#utility.yul\":1469:1541   */\n  tag_25\n  jump\t// in\ntag_32:\n    /* \"#utility.yul\":1106:1548   */\n  swap5\n  swap4\n  pop\n  pop\n  pop\n  pop\n  jump\t// out\n    /* \"#utility.yul\":1635:1731   */\ntag_28:\n    /* \"#utility.yul\":1672:1679   */\n  0x00\n    /* \"#utility.yul\":1701:1725   */\n  tag_36\n    /* \"#utility.yul\":1719:1724   */\n  dup3\n    /* \"#utility.yul\":1701:1725   */\n  tag_37\n  jump\t// in\ntag_36:\n    /* \"#utility.yul\":1690:1725   */\n  swap1\n  pop\n    /* \"#utility.yul\":1635:1731   */\n  swap2\n  swap1\n  pop\n  jump\t// out\n    /* \"#utility.yul\":1737:1863   */\ntag_37:\n    /* \"#utility.yul\":1774:1781   */\n  0x00\n    /* \"#utility.yul\":1814:1856   */\n  0xffffffffffffffffffffffffffffffffffffffff\n    /* \"#utility.yul\":1807:1812   */\n  dup3\n    /* \"#utility.yul\":1803:1857   */\n  and\n    /* \"#utility.yul\":1792:1857   */\n  swap1\n  pop\n    /* \"#utility.yul\":1737:1863   */\n  swap2\n  swap1\n  pop\n  jump\t// out\n    /* \"#utility.yul\":1992:2109   */\ntag_20:\n    /* \"#utility.yul\":2101:2102   */\n  0x00\n    /* \"#utility.yul\":2098:2099   */\n  dup1\n    /* \"#utility.yul\":2091:2103   */\n  revert\n    /* \"#utility.yul\":2115:2237   */\ntag_16:\n    /* \"#utility.yul\":2188:2212   */\n  tag_43\n    /* \"#utility.yul\":2206:2211   */\n  dup2\n    /* \"#utility.yul\":2188:2212   */\n  tag_28\n  jump\t// in\ntag_43:\n    /* \"#utility.yul\":2181:2186   */\n  dup2\n    /* \"#utility.yul\":2178:2213   */\n  eq\n    /* \"#utility.yul\":2168:2231   */\n  tag_44\n  jumpi\n    /* \"#utility.yul\":2227:2228   */\n  0x00\n    /* \"#utility.yul\":2224:2225   */\n  dup1\n    /* \"#utility.yul\":2217:2229   */\n  revert\n    /* \"#utility.yul\":2168:2231   */\ntag_44:\n    /* \"#utility.yul\":2115:2237   */\n  pop\n  jump\t// out\n    /* \"contracts/Registration.sol\":102:3796  contract Registration {\r... */\ntag_11:\n  dataSize(sub_0)\n  dup1\n  dataOffset(sub_0)\n  0x00\n  codecopy\n  0x00\n  return\nstop\n\nsub_0: assembly {\n        /* \"contracts/Registration.sol\":102:3796  contract Registration {\r... */\n      mstore(0x40, 0x80)\n      callvalue\n      dup1\n      iszero\n      tag_1\n      jumpi\n      0x00\n      dup1\n      revert\n    tag_1:\n      pop\n      jumpi(tag_2, lt(calldatasize, 0x04))\n      shr(0xe0, calldataload(0x00))\n      dup1\n      0x13cb22c6\n      eq\n      tag_3\n      jumpi\n    tag_2:\n      0x00\n      dup1\n      revert\n        /* \"contracts/Registration.sol\":880:1112  function kaydetUniversite(address _universiteAdres,string memory _isim, uint8 _ulke)  public {\r... */\n    tag_3:\n      tag_4\n      0x04\n      dup1\n      calldatasize\n      sub\n      dup2\n      add\n      swap1\n      tag_5\n      swap2\n      swap1\n      tag_6\n      jump\t// in\n    tag_5:\n      tag_7\n      jump\t// in\n    tag_4:\n      stop\n    tag_7:\n        /* \"contracts/Registration.sol\":981:993  baseContract */\n      0x00\n      dup1\n      sload\n      swap1\n      0x0100\n      exp\n      swap1\n      div\n      0xffffffffffffffffffffffffffffffffffffffff\n      and\n        /* \"contracts/Registration.sol\":981:1008  baseContract.ekleUniversite */\n      0xffffffffffffffffffffffffffffffffffffffff\n      and\n      0x1d54ab\n        /* \"contracts/Registration.sol\":1009:1025  _universiteAdres */\n      dup5\n        /* \"contracts/Registration.sol\":1027:1032  _isim */\n      dup5\n        /* \"contracts/Registration.sol\":1034:1039  _ulke */\n      dup5\n        /* \"contracts/Registration.sol\":981:1040  baseContract.ekleUniversite(_universiteAdres, _isim, _ulke) */\n      mload(0x40)\n      dup5\n      0xffffffff\n      and\n      0xe0\n      shl\n      dup2\n      mstore\n      0x04\n      add\n      tag_9\n      swap4\n      swap3\n      swap2\n      swap1\n      tag_10\n      jump\t// in\n    tag_9:\n      0x00\n      mload(0x40)\n      dup1\n      dup4\n      sub\n      dup2\n      0x00\n      dup8\n      dup1\n      extcodesize\n      iszero\n      dup1\n      iszero\n      tag_11\n      jumpi\n      0x00\n      dup1\n      revert\n    tag_11:\n      pop\n      gas\n      call\n      iszero\n      dup1\n      iszero\n      tag_13\n      jumpi\n      returndatasize\n      0x00\n      dup1\n      returndatacopy\n      revert(0x00, returndatasize)\n    tag_13:\n      pop\n      pop\n      pop\n      pop\n        /* \"contracts/Registration.sol\":1053:1104  UniversiteKayitLog( _universiteAdres, _isim, _ulke) */\n      0x750ae9c195d9b95b8c17bf0fa25801932d5a28c4871f4571af70581bc15f5bfe\n        /* \"contracts/Registration.sol\":1073:1089  _universiteAdres */\n      dup4\n        /* \"contracts/Registration.sol\":1091:1096  _isim */\n      dup4\n        /* \"contracts/Registration.sol\":1098:1103  _ulke */\n      dup4\n        /* \"contracts/Registration.sol\":1053:1104  UniversiteKayitLog( _universiteAdres, _isim, _ulke) */\n      mload(0x40)\n      tag_14\n      swap4\n      swap3\n      swap2\n      swap1\n      tag_10\n      jump\t// in\n    tag_14:\n      mload(0x40)\n      dup1\n      swap2\n      sub\n      swap1\n      log1\n        /* \"contracts/Registration.sol\":880:1112  function kaydetUniversite(address _universiteAdres,string memory _isim, uint8 _ulke)  public {\r... */\n      pop\n      pop\n      pop\n      jump\t// out\n        /* \"#utility.yul\":7:419   */\n    tag_16:\n        /* \"#utility.yul\":85:90   */\n      0x00\n        /* \"#utility.yul\":110:176   */\n      tag_18\n        /* \"#utility.yul\":126:175   */\n      tag_19\n        /* \"#utility.yul\":168:174   */\n      dup5\n        /* \"#utility.yul\":126:175   */\n      tag_20\n      jump\t// in\n    tag_19:\n        /* \"#utility.yul\":110:176   */\n      tag_21\n      jump\t// in\n    tag_18:\n        /* \"#utility.yul\":101:176   */\n      swap1\n      pop\n        /* \"#utility.yul\":199:205   */\n      dup3\n        /* \"#utility.yul\":192:197   */\n      dup2\n        /* \"#utility.yul\":185:206   */\n      mstore\n        /* \"#utility.yul\":237:241   */\n      0x20\n        /* \"#utility.yul\":230:235   */\n      dup2\n        /* \"#utility.yul\":226:242   */\n      add\n        /* \"#utility.yul\":275:278   */\n      dup5\n        /* \"#utility.yul\":266:272   */\n      dup5\n        /* \"#utility.yul\":261:264   */\n      dup5\n        /* \"#utility.yul\":257:273   */\n      add\n        /* \"#utility.yul\":254:279   */\n      gt\n        /* \"#utility.yul\":251:363   */\n      iszero\n      tag_22\n      jumpi\n        /* \"#utility.yul\":282:361   */\n      tag_23\n      tag_24\n      jump\t// in\n    tag_23:\n        /* \"#utility.yul\":251:363   */\n    tag_22:\n        /* \"#utility.yul\":372:413   */\n      tag_25\n        /* \"#utility.yul\":406:412   */\n      dup5\n        /* \"#utility.yul\":401:404   */\n      dup3\n        /* \"#utility.yul\":396:399   */\n      dup6\n        /* \"#utility.yul\":372:413   */\n      tag_26\n      jump\t// in\n    tag_25:\n        /* \"#utility.yul\":91:419   */\n      pop\n        /* \"#utility.yul\":7:419   */\n      swap4\n      swap3\n      pop\n      pop\n      pop\n      jump\t// out\n        /* \"#utility.yul\":425:564   */\n    tag_27:\n        /* \"#utility.yul\":471:476   */\n      0x00\n        /* \"#utility.yul\":509:515   */\n      dup2\n        /* \"#utility.yul\":496:516   */\n      calldataload\n        /* \"#utility.yul\":487:516   */\n      swap1\n      pop\n        /* \"#utility.yul\":525:558   */\n      tag_29\n        /* \"#utility.yul\":552:557   */\n      dup2\n        /* \"#utility.yul\":525:558   */\n      tag_30\n      jump\t// in\n    tag_29:\n        /* \"#utility.yul\":425:564   */\n      swap3\n      swap2\n      pop\n      pop\n      jump\t// out\n        /* \"#utility.yul\":584:924   */\n    tag_31:\n        /* \"#utility.yul\":640:645   */\n      0x00\n        /* \"#utility.yul\":689:692   */\n      dup3\n        /* \"#utility.yul\":682:686   */\n      0x1f\n        /* \"#utility.yul\":674:680   */\n      dup4\n        /* \"#utility.yul\":670:687   */\n      add\n        /* \"#utility.yul\":666:693   */\n      slt\n        /* \"#utility.yul\":656:778   */\n      tag_33\n      jumpi\n        /* \"#utility.yul\":697:776   */\n      tag_34\n      tag_35\n      jump\t// in\n    tag_34:\n        /* \"#utility.yul\":656:778   */\n    tag_33:\n        /* \"#utility.yul\":814:820   */\n      dup2\n        /* \"#utility.yul\":801:821   */\n      calldataload\n        /* \"#utility.yul\":839:918   */\n      tag_36\n        /* \"#utility.yul\":914:917   */\n      dup5\n        /* \"#utility.yul\":906:912   */\n      dup3\n        /* \"#utility.yul\":899:903   */\n      0x20\n        /* \"#utility.yul\":891:897   */\n      dup7\n        /* \"#utility.yul\":887:904   */\n      add\n        /* \"#utility.yul\":839:918   */\n      tag_16\n      jump\t// in\n    tag_36:\n        /* \"#utility.yul\":830:918   */\n      swap2\n      pop\n        /* \"#utility.yul\":646:924   */\n      pop\n        /* \"#utility.yul\":584:924   */\n      swap3\n      swap2\n      pop\n      pop\n      jump\t// out\n        /* \"#utility.yul\":930:1065   */\n    tag_37:\n        /* \"#utility.yul\":974:979   */\n      0x00\n        /* \"#utility.yul\":1012:1018   */\n      dup2\n        /* \"#utility.yul\":999:1019   */\n      calldataload\n        /* \"#utility.yul\":990:1019   */\n      swap1\n      pop\n        /* \"#utility.yul\":1028:1059   */\n      tag_39\n        /* \"#utility.yul\":1053:1058   */\n      dup2\n        /* \"#utility.yul\":1028:1059   */\n      tag_40\n      jump\t// in\n    tag_39:\n        /* \"#utility.yul\":930:1065   */\n      swap3\n      swap2\n      pop\n      pop\n      jump\t// out\n        /* \"#utility.yul\":1071:1866   */\n    tag_6:\n        /* \"#utility.yul\":1156:1162   */\n      0x00\n        /* \"#utility.yul\":1164:1170   */\n      dup1\n        /* \"#utility.yul\":1172:1178   */\n      0x00\n        /* \"#utility.yul\":1221:1223   */\n      0x60\n        /* \"#utility.yul\":1209:1218   */\n      dup5\n        /* \"#utility.yul\":1200:1207   */\n      dup7\n        /* \"#utility.yul\":1196:1219   */\n      sub\n        /* \"#utility.yul\":1192:1224   */\n      slt\n        /* \"#utility.yul\":1189:1308   */\n      iszero\n      tag_42\n      jumpi\n        /* \"#utility.yul\":1227:1306   */\n      tag_43\n      tag_44\n      jump\t// in\n    tag_43:\n        /* \"#utility.yul\":1189:1308   */\n    tag_42:\n        /* \"#utility.yul\":1347:1348   */\n      0x00\n        /* \"#utility.yul\":1372:1425   */\n      tag_45\n        /* \"#utility.yul\":1417:1424   */\n      dup7\n        /* \"#utility.yul\":1408:1414   */\n      dup3\n        /* \"#utility.yul\":1397:1406   */\n      dup8\n        /* \"#utility.yul\":1393:1415   */\n      add\n        /* \"#utility.yul\":1372:1425   */\n      tag_27\n      jump\t// in\n    tag_45:\n        /* \"#utility.yul\":1362:1425   */\n      swap4\n      pop\n        /* \"#utility.yul\":1318:1435   */\n      pop\n        /* \"#utility.yul\":1502:1504   */\n      0x20\n        /* \"#utility.yul\":1491:1500   */\n      dup5\n        /* \"#utility.yul\":1487:1505   */\n      add\n        /* \"#utility.yul\":1474:1506   */\n      calldataload\n        /* \"#utility.yul\":1533:1551   */\n      0xffffffffffffffff\n        /* \"#utility.yul\":1525:1531   */\n      dup2\n        /* \"#utility.yul\":1522:1552   */\n      gt\n        /* \"#utility.yul\":1519:1636   */\n      iszero\n      tag_46\n      jumpi\n        /* \"#utility.yul\":1555:1634   */\n      tag_47\n      tag_48\n      jump\t// in\n    tag_47:\n        /* \"#utility.yul\":1519:1636   */\n    tag_46:\n        /* \"#utility.yul\":1660:1723   */\n      tag_49\n        /* \"#utility.yul\":1715:1722   */\n      dup7\n        /* \"#utility.yul\":1706:1712   */\n      dup3\n        /* \"#utility.yul\":1695:1704   */\n      dup8\n        /* \"#utility.yul\":1691:1713   */\n      add\n        /* \"#utility.yul\":1660:1723   */\n      tag_31\n      jump\t// in\n    tag_49:\n        /* \"#utility.yul\":1650:1723   */\n      swap3\n      pop\n        /* \"#utility.yul\":1445:1733   */\n      pop\n        /* \"#utility.yul\":1772:1774   */\n      0x40\n        /* \"#utility.yul\":1798:1849   */\n      tag_50\n        /* \"#utility.yul\":1841:1848   */\n      dup7\n        /* \"#utility.yul\":1832:1838   */\n      dup3\n        /* \"#utility.yul\":1821:1830   */\n      dup8\n        /* \"#utility.yul\":1817:1839   */\n      add\n        /* \"#utility.yul\":1798:1849   */\n      tag_37\n      jump\t// in\n    tag_50:\n        /* \"#utility.yul\":1788:1849   */\n      swap2\n      pop\n        /* \"#utility.yul\":1743:1859   */\n      pop\n        /* \"#utility.yul\":1071:1866   */\n      swap3\n      pop\n      swap3\n      pop\n      swap3\n      jump\t// out\n        /* \"#utility.yul\":1872:1990   */\n    tag_51:\n        /* \"#utility.yul\":1959:1983   */\n      tag_53\n        /* \"#utility.yul\":1977:1982   */\n      dup2\n        /* \"#utility.yul\":1959:1983   */\n      tag_54\n      jump\t// in\n    tag_53:\n        /* \"#utility.yul\":1954:1957   */\n      dup3\n        /* \"#utility.yul\":1947:1984   */\n      mstore\n        /* \"#utility.yul\":1872:1990   */\n      pop\n      pop\n      jump\t// out\n        /* \"#utility.yul\":1996:2360   */\n    tag_55:\n        /* \"#utility.yul\":2084:2087   */\n      0x00\n        /* \"#utility.yul\":2112:2151   */\n      tag_57\n        /* \"#utility.yul\":2145:2150   */\n      dup3\n        /* \"#utility.yul\":2112:2151   */\n      tag_58\n      jump\t// in\n    tag_57:\n        /* \"#utility.yul\":2167:2238   */\n      tag_59\n        /* \"#utility.yul\":2231:2237   */\n      dup2\n        /* \"#utility.yul\":2226:2229   */\n      dup6\n        /* \"#utility.yul\":2167:2238   */\n      tag_60\n      jump\t// in\n    tag_59:\n        /* \"#utility.yul\":2160:2238   */\n      swap4\n      pop\n        /* \"#utility.yul\":2247:2299   */\n      tag_61\n        /* \"#utility.yul\":2292:2298   */\n      dup2\n        /* \"#utility.yul\":2287:2290   */\n      dup6\n        /* \"#utility.yul\":2280:2284   */\n      0x20\n        /* \"#utility.yul\":2273:2278   */\n      dup7\n        /* \"#utility.yul\":2269:2285   */\n      add\n        /* \"#utility.yul\":2247:2299   */\n      tag_62\n      jump\t// in\n    tag_61:\n        /* \"#utility.yul\":2324:2353   */\n      tag_63\n        /* \"#utility.yul\":2346:2352   */\n      dup2\n        /* \"#utility.yul\":2324:2353   */\n      tag_64\n      jump\t// in\n    tag_63:\n        /* \"#utility.yul\":2319:2322   */\n      dup5\n        /* \"#utility.yul\":2315:2354   */\n      add\n        /* \"#utility.yul\":2308:2354   */\n      swap2\n      pop\n        /* \"#utility.yul\":2088:2360   */\n      pop\n        /* \"#utility.yul\":1996:2360   */\n      swap3\n      swap2\n      pop\n      pop\n      jump\t// out\n        /* \"#utility.yul\":2366:2478   */\n    tag_65:\n        /* \"#utility.yul\":2449:2471   */\n      tag_67\n        /* \"#utility.yul\":2465:2470   */\n      dup2\n        /* \"#utility.yul\":2449:2471   */\n      tag_68\n      jump\t// in\n    tag_67:\n        /* \"#utility.yul\":2444:2447   */\n      dup3\n        /* \"#utility.yul\":2437:2472   */\n      mstore\n        /* \"#utility.yul\":2366:2478   */\n      pop\n      pop\n      jump\t// out\n        /* \"#utility.yul\":2484:3009   */\n    tag_10:\n        /* \"#utility.yul\":2649:2653   */\n      0x00\n        /* \"#utility.yul\":2687:2689   */\n      0x60\n        /* \"#utility.yul\":2676:2685   */\n      dup3\n        /* \"#utility.yul\":2672:2690   */\n      add\n        /* \"#utility.yul\":2664:2690   */\n      swap1\n      pop\n        /* \"#utility.yul\":2700:2771   */\n      tag_70\n        /* \"#utility.yul\":2768:2769   */\n      0x00\n        /* \"#utility.yul\":2757:2766   */\n      dup4\n        /* \"#utility.yul\":2753:2770   */\n      add\n        /* \"#utility.yul\":2744:2750   */\n      dup7\n        /* \"#utility.yul\":2700:2771   */\n      tag_51\n      jump\t// in\n    tag_70:\n        /* \"#utility.yul\":2818:2827   */\n      dup2\n        /* \"#utility.yul\":2812:2816   */\n      dup2\n        /* \"#utility.yul\":2808:2828   */\n      sub\n        /* \"#utility.yul\":2803:2805   */\n      0x20\n        /* \"#utility.yul\":2792:2801   */\n      dup4\n        /* \"#utility.yul\":2788:2806   */\n      add\n        /* \"#utility.yul\":2781:2829   */\n      mstore\n        /* \"#utility.yul\":2846:2924   */\n      tag_71\n        /* \"#utility.yul\":2919:2923   */\n      dup2\n        /* \"#utility.yul\":2910:2916   */\n      dup6\n        /* \"#utility.yul\":2846:2924   */\n      tag_55\n      jump\t// in\n    tag_71:\n        /* \"#utility.yul\":2838:2924   */\n      swap1\n      pop\n        /* \"#utility.yul\":2934:3002   */\n      tag_72\n        /* \"#utility.yul\":2998:3000   */\n      0x40\n        /* \"#utility.yul\":2987:2996   */\n      dup4\n        /* \"#utility.yul\":2983:3001   */\n      add\n        /* \"#utility.yul\":2974:2980   */\n      dup5\n        /* \"#utility.yul\":2934:3002   */\n      tag_65\n      jump\t// in\n    tag_72:\n        /* \"#utility.yul\":2484:3009   */\n      swap5\n      swap4\n      pop\n      pop\n      pop\n      pop\n      jump\t// out\n        /* \"#utility.yul\":3015:3144   */\n    tag_21:\n        /* \"#utility.yul\":3049:3055   */\n      0x00\n        /* \"#utility.yul\":3076:3096   */\n      tag_74\n      tag_75\n      jump\t// in\n    tag_74:\n        /* \"#utility.yul\":3066:3096   */\n      swap1\n      pop\n        /* \"#utility.yul\":3105:3138   */\n      tag_76\n        /* \"#utility.yul\":3133:3137   */\n      dup3\n        /* \"#utility.yul\":3125:3131   */\n      dup3\n        /* \"#utility.yul\":3105:3138   */\n      tag_77\n      jump\t// in\n    tag_76:\n        /* \"#utility.yul\":3015:3144   */\n      swap2\n      swap1\n      pop\n      jump\t// out\n        /* \"#utility.yul\":3150:3225   */\n    tag_75:\n        /* \"#utility.yul\":3183:3189   */\n      0x00\n        /* \"#utility.yul\":3216:3218   */\n      0x40\n        /* \"#utility.yul\":3210:3219   */\n      mload\n        /* \"#utility.yul\":3200:3219   */\n      swap1\n      pop\n        /* \"#utility.yul\":3150:3225   */\n      swap1\n      jump\t// out\n        /* \"#utility.yul\":3231:3539   */\n    tag_20:\n        /* \"#utility.yul\":3293:3297   */\n      0x00\n        /* \"#utility.yul\":3383:3401   */\n      0xffffffffffffffff\n        /* \"#utility.yul\":3375:3381   */\n      dup3\n        /* \"#utility.yul\":3372:3402   */\n      gt\n        /* \"#utility.yul\":3369:3425   */\n      iszero\n      tag_80\n      jumpi\n        /* \"#utility.yul\":3405:3423   */\n      tag_81\n      tag_82\n      jump\t// in\n    tag_81:\n        /* \"#utility.yul\":3369:3425   */\n    tag_80:\n        /* \"#utility.yul\":3443:3472   */\n      tag_83\n        /* \"#utility.yul\":3465:3471   */\n      dup3\n        /* \"#utility.yul\":3443:3472   */\n      tag_64\n      jump\t// in\n    tag_83:\n        /* \"#utility.yul\":3435:3472   */\n      swap1\n      pop\n        /* \"#utility.yul\":3527:3531   */\n      0x20\n        /* \"#utility.yul\":3521:3525   */\n      dup2\n        /* \"#utility.yul\":3517:3532   */\n      add\n        /* \"#utility.yul\":3509:3532   */\n      swap1\n      pop\n        /* \"#utility.yul\":3231:3539   */\n      swap2\n      swap1\n      pop\n      jump\t// out\n        /* \"#utility.yul\":3545:3644   */\n    tag_58:\n        /* \"#utility.yul\":3597:3603   */\n      0x00\n        /* \"#utility.yul\":3631:3636   */\n      dup2\n        /* \"#utility.yul\":3625:3637   */\n      mload\n        /* \"#utility.yul\":3615:3637   */\n      swap1\n      pop\n        /* \"#utility.yul\":3545:3644   */\n      swap2\n      swap1\n      pop\n      jump\t// out\n        /* \"#utility.yul\":3650:3819   */\n    tag_60:\n        /* \"#utility.yul\":3734:3745   */\n      0x00\n        /* \"#utility.yul\":3768:3774   */\n      dup3\n        /* \"#utility.yul\":3763:3766   */\n      dup3\n        /* \"#utility.yul\":3756:3775   */\n      mstore\n        /* \"#utility.yul\":3808:3812   */\n      0x20\n        /* \"#utility.yul\":3803:3806   */\n      dup3\n        /* \"#utility.yul\":3799:3813   */\n      add\n        /* \"#utility.yul\":3784:3813   */\n      swap1\n      pop\n        /* \"#utility.yul\":3650:3819   */\n      swap3\n      swap2\n      pop\n      pop\n      jump\t// out\n        /* \"#utility.yul\":3825:3921   */\n    tag_54:\n        /* \"#utility.yul\":3862:3869   */\n      0x00\n        /* \"#utility.yul\":3891:3915   */\n      tag_87\n        /* \"#utility.yul\":3909:3914   */\n      dup3\n        /* \"#utility.yul\":3891:3915   */\n      tag_88\n      jump\t// in\n    tag_87:\n        /* \"#utility.yul\":3880:3915   */\n      swap1\n      pop\n        /* \"#utility.yul\":3825:3921   */\n      swap2\n      swap1\n      pop\n      jump\t// out\n        /* \"#utility.yul\":3927:4053   */\n    tag_88:\n        /* \"#utility.yul\":3964:3971   */\n      0x00\n        /* \"#utility.yul\":4004:4046   */\n      0xffffffffffffffffffffffffffffffffffffffff\n        /* \"#utility.yul\":3997:4002   */\n      dup3\n        /* \"#utility.yul\":3993:4047   */\n      and\n        /* \"#utility.yul\":3982:4047   */\n      swap1\n      pop\n        /* \"#utility.yul\":3927:4053   */\n      swap2\n      swap1\n      pop\n      jump\t// out\n        /* \"#utility.yul\":4059:4145   */\n    tag_68:\n        /* \"#utility.yul\":4094:4101   */\n      0x00\n        /* \"#utility.yul\":4134:4138   */\n      0xff\n        /* \"#utility.yul\":4127:4132   */\n      dup3\n        /* \"#utility.yul\":4123:4139   */\n      and\n        /* \"#utility.yul\":4112:4139   */\n      swap1\n      pop\n        /* \"#utility.yul\":4059:4145   */\n      swap2\n      swap1\n      pop\n      jump\t// out\n        /* \"#utility.yul\":4151:4305   */\n    tag_26:\n        /* \"#utility.yul\":4235:4241   */\n      dup3\n        /* \"#utility.yul\":4230:4233   */\n      dup2\n        /* \"#utility.yul\":4225:4228   */\n      dup4\n        /* \"#utility.yul\":4212:4242   */\n      calldatacopy\n        /* \"#utility.yul\":4297:4298   */\n      0x00\n        /* \"#utility.yul\":4288:4294   */\n      dup4\n        /* \"#utility.yul\":4283:4286   */\n      dup4\n        /* \"#utility.yul\":4279:4295   */\n      add\n        /* \"#utility.yul\":4272:4299   */\n      mstore\n        /* \"#utility.yul\":4151:4305   */\n      pop\n      pop\n      pop\n      jump\t// out\n        /* \"#utility.yul\":4311:4618   */\n    tag_62:\n        /* \"#utility.yul\":4379:4380   */\n      0x00\n        /* \"#utility.yul\":4389:4502   */\n    tag_93:\n        /* \"#utility.yul\":4403:4409   */\n      dup4\n        /* \"#utility.yul\":4400:4401   */\n      dup2\n        /* \"#utility.yul\":4397:4410   */\n      lt\n        /* \"#utility.yul\":4389:4502   */\n      iszero\n      tag_95\n      jumpi\n        /* \"#utility.yul\":4488:4489   */\n      dup1\n        /* \"#utility.yul\":4483:4486   */\n      dup3\n        /* \"#utility.yul\":4479:4490   */\n      add\n        /* \"#utility.yul\":4473:4491   */\n      mload\n        /* \"#utility.yul\":4469:4470   */\n      dup2\n        /* \"#utility.yul\":4464:4467   */\n      dup5\n        /* \"#utility.yul\":4460:4471   */\n      add\n        /* \"#utility.yul\":4453:4492   */\n      mstore\n        /* \"#utility.yul\":4425:4427   */\n      0x20\n        /* \"#utility.yul\":4422:4423   */\n      dup2\n        /* \"#utility.yul\":4418:4428   */\n      add\n        /* \"#utility.yul\":4413:4428   */\n      swap1\n      pop\n        /* \"#utility.yul\":4389:4502   */\n      jump(tag_93)\n    tag_95:\n        /* \"#utility.yul\":4520:4526   */\n      dup4\n        /* \"#utility.yul\":4517:4518   */\n      dup2\n        /* \"#utility.yul\":4514:4527   */\n      gt\n        /* \"#utility.yul\":4511:4612   */\n      iszero\n      tag_96\n      jumpi\n        /* \"#utility.yul\":4600:4601   */\n      0x00\n        /* \"#utility.yul\":4591:4597   */\n      dup5\n        /* \"#utility.yul\":4586:4589   */\n      dup5\n        /* \"#utility.yul\":4582:4598   */\n      add\n        /* \"#utility.yul\":4575:4602   */\n      mstore\n        /* \"#utility.yul\":4511:4612   */\n    tag_96:\n        /* \"#utility.yul\":4360:4618   */\n      pop\n        /* \"#utility.yul\":4311:4618   */\n      pop\n      pop\n      pop\n      jump\t// out\n        /* \"#utility.yul\":4624:4905   */\n    tag_77:\n        /* \"#utility.yul\":4707:4734   */\n      tag_98\n        /* \"#utility.yul\":4729:4733   */\n      dup3\n        /* \"#utility.yul\":4707:4734   */\n      tag_64\n      jump\t// in\n    tag_98:\n        /* \"#utility.yul\":4699:4705   */\n      dup2\n        /* \"#utility.yul\":4695:4735   */\n      add\n        /* \"#utility.yul\":4837:4843   */\n      dup2\n        /* \"#utility.yul\":4825:4835   */\n      dup2\n        /* \"#utility.yul\":4822:4844   */\n      lt\n        /* \"#utility.yul\":4801:4819   */\n      0xffffffffffffffff\n        /* \"#utility.yul\":4789:4799   */\n      dup3\n        /* \"#utility.yul\":4786:4820   */\n      gt\n        /* \"#utility.yul\":4783:4845   */\n      or\n        /* \"#utility.yul\":4780:4868   */\n      iszero\n      tag_99\n      jumpi\n        /* \"#utility.yul\":4848:4866   */\n      tag_100\n      tag_82\n      jump\t// in\n    tag_100:\n        /* \"#utility.yul\":4780:4868   */\n    tag_99:\n        /* \"#utility.yul\":4888:4898   */\n      dup1\n        /* \"#utility.yul\":4884:4886   */\n      0x40\n        /* \"#utility.yul\":4877:4899   */\n      mstore\n        /* \"#utility.yul\":4667:4905   */\n      pop\n        /* \"#utility.yul\":4624:4905   */\n      pop\n      pop\n      jump\t// out\n        /* \"#utility.yul\":4911:5091   */\n    tag_82:\n        /* \"#utility.yul\":4959:5036   */\n      0x4e487b7100000000000000000000000000000000000000000000000000000000\n        /* \"#utility.yul\":4956:4957   */\n      0x00\n        /* \"#utility.yul\":4949:5037   */\n      mstore\n        /* \"#utility.yul\":5056:5060   */\n      0x41\n        /* \"#utility.yul\":5053:5054   */\n      0x04\n        /* \"#utility.yul\":5046:5061   */\n      mstore\n        /* \"#utility.yul\":5080:5084   */\n      0x24\n        /* \"#utility.yul\":5077:5078   */\n      0x00\n        /* \"#utility.yul\":5070:5085   */\n      revert\n        /* \"#utility.yul\":5097:5214   */\n    tag_35:\n        /* \"#utility.yul\":5206:5207   */\n      0x00\n        /* \"#utility.yul\":5203:5204   */\n      dup1\n        /* \"#utility.yul\":5196:5208   */\n      revert\n        /* \"#utility.yul\":5220:5337   */\n    tag_24:\n        /* \"#utility.yul\":5329:5330   */\n      0x00\n        /* \"#utility.yul\":5326:5327   */\n      dup1\n        /* \"#utility.yul\":5319:5331   */\n      revert\n        /* \"#utility.yul\":5343:5460   */\n    tag_48:\n        /* \"#utility.yul\":5452:5453   */\n      0x00\n        /* \"#utility.yul\":5449:5450   */\n      dup1\n        /* \"#utility.yul\":5442:5454   */\n      revert\n        /* \"#utility.yul\":5466:5583   */\n    tag_44:\n        /* \"#utility.yul\":5575:5576   */\n      0x00\n        /* \"#utility.yul\":5572:5573   */\n      dup1\n        /* \"#utility.yul\":5565:5577   */\n      revert\n        /* \"#utility.yul\":5589:5691   */\n    tag_64:\n        /* \"#utility.yul\":5630:5636   */\n      0x00\n        /* \"#utility.yul\":5681:5683   */\n      0x1f\n        /* \"#utility.yul\":5677:5684   */\n      not\n        /* \"#utility.yul\":5672:5674   */\n      0x1f\n        /* \"#utility.yul\":5665:5670   */\n      dup4\n        /* \"#utility.yul\":5661:5675   */\n      add\n        /* \"#utility.yul\":5657:5685   */\n      and\n        /* \"#utility.yul\":5647:5685   */\n      swap1\n      pop\n        /* \"#utility.yul\":5589:5691   */\n      swap2\n      swap1\n      pop\n      jump\t// out\n        /* \"#utility.yul\":5697:5819   */\n    tag_30:\n        /* \"#utility.yul\":5770:5794   */\n      tag_108\n        /* \"#utility.yul\":5788:5793   */\n      dup2\n        /* \"#utility.yul\":5770:5794   */\n      tag_54\n      jump\t// in\n    tag_108:\n        /* \"#utility.yul\":5763:5768   */\n      dup2\n        /* \"#utility.yul\":5760:5795   */\n      eq\n        /* \"#utility.yul\":5750:5813   */\n      tag_109\n      jumpi\n        /* \"#utility.yul\":5809:5810   */\n      0x00\n        /* \"#utility.yul\":5806:5807   */\n      dup1\n        /* \"#utility.yul\":5799:5811   */\n      revert\n        /* \"#utility.yul\":5750:5813   */\n    tag_109:\n        /* \"#utility.yul\":5697:5819   */\n      pop\n      jump\t// out\n        /* \"#utility.yul\":5825:5943   */\n    tag_40:\n        /* \"#utility.yul\":5896:5918   */\n      tag_111\n        /* \"#utility.yul\":5912:5917   */\n      dup2\n        /* \"#utility.yul\":5896:5918   */\n      tag_68\n      jump\t// in\n    tag_111:\n        /* \"#utility.yul\":5889:5894   */\n      dup2\n        /* \"#utility.yul\":5886:5919   */\n      eq\n        /* \"#utility.yul\":5876:5937   */\n      tag_112\n      jumpi\n        /* \"#utility.yul\":5933:5934   */\n      0x00\n        /* \"#utility.yul\":5930:5931   */\n      dup1\n        /* \"#utility.yul\":5923:5935   */\n      revert\n        /* \"#utility.yul\":5876:5937   */\n    tag_112:\n        /* \"#utility.yul\":5825:5943   */\n      pop\n      jump\t// out\n\n    auxdata: 0xa26469706673582212207aa824151bb0427e89335bdcdaf5b4a4dbc0828c82d89d84deaedc4b15630af264736f6c63430008070033\n}\n",
				"bytecode": {
					"linkReferences": {},
					"object": "608060405234801561001057600080fd5b506040516106bd3803806106bd8339818101604052810190610032919061011f565b836000806101000a81548173ffffffffffffffffffffffffffffffffffffffff021916908373ffffffffffffffffffffffffffffffffffffffff16021790555060008054906101000a900473ffffffffffffffffffffffffffffffffffffffff1673ffffffffffffffffffffffffffffffffffffffff166336fd26338484846040518463ffffffff1660e01b81526004016100cf93929190610195565b600060405180830381600087803b1580156100e957600080fd5b505af11580156100fd573d6000803e3d6000fd5b505050505050505061021a565b60008151905061011981610203565b92915050565b60008060008060808587031215610139576101386101fe565b5b60006101478782880161010a565b94505060206101588782880161010a565b93505060406101698782880161010a565b925050606061017a8782880161010a565b91505092959194509250565b61018f816101cc565b82525050565b60006060820190506101aa6000830186610186565b6101b76020830185610186565b6101c46040830184610186565b949350505050565b60006101d7826101de565b9050919050565b600073ffffffffffffffffffffffffffffffffffffffff82169050919050565b600080fd5b61020c816101cc565b811461021757600080fd5b50565b610494806102296000396000f3fe608060405234801561001057600080fd5b506004361061002b5760003560e01c806313cb22c614610030575b600080fd5b61004a600480360381019061004591906101b4565b61004c565b005b60008054906101000a900473ffffffffffffffffffffffffffffffffffffffff1673ffffffffffffffffffffffffffffffffffffffff16621d54ab8484846040518463ffffffff1660e01b81526004016100a89392919061027a565b600060405180830381600087803b1580156100c257600080fd5b505af11580156100d6573d6000803e3d6000fd5b505050507f750ae9c195d9b95b8c17bf0fa25801932d5a28c4871f4571af70581bc15f5bfe83838360405161010d9392919061027a565b60405180910390a1505050565b600061012d610128846102dd565b6102b8565b90508281526020810184848401111561014957610148610410565b5b610154848285610369565b509392505050565b60008135905061016b81610430565b92915050565b600082601f8301126101865761018561040b565b5b813561019684826020860161011a565b91505092915050565b6000813590506101ae81610447565b92915050565b6000806000606084860312156101cd576101cc61041a565b5b60006101db8682870161015c565b935050602084013567ffffffffffffffff8111156101fc576101fb610415565b5b61020886828701610171565b92505060406102198682870161019f565b9150509250925092565b61022c8161032a565b82525050565b600061023d8261030e565b6102478185610319565b9350610257818560208601610378565b6102608161041f565b840191505092915050565b6102748161035c565b82525050565b600060608201905061028f6000830186610223565b81810360208301526102a18185610232565b90506102b0604083018461026b565b949350505050565b60006102c26102d3565b90506102ce82826103ab565b919050565b6000604051905090565b600067ffffffffffffffff8211156102f8576102f76103dc565b5b6103018261041f565b9050602081019050919050565b600081519050919050565b600082825260208201905092915050565b60006103358261033c565b9050919050565b600073ffffffffffffffffffffffffffffffffffffffff82169050919050565b600060ff82169050919050565b82818337600083830152505050565b60005b8381101561039657808201518184015260208101905061037b565b838111156103a5576000848401525b50505050565b6103b48261041f565b810181811067ffffffffffffffff821117156103d3576103d26103dc565b5b80604052505050565b7f4e487b7100000000000000000000000000000000000000000000000000000000600052604160045260246000fd5b600080fd5b600080fd5b600080fd5b600080fd5b6000601f19601f8301169050919050565b6104398161032a565b811461044457600080fd5b50565b6104508161035c565b811461045b57600080fd5b5056fea26469706673582212207aa824151bb0427e89335bdcdaf5b4a4dbc0828c82d89d84deaedc4b15630af264736f6c63430008070033",
					"opcodes": "PUSH1 0x80 PUSH1 0x40 MSTORE CALLVALUE DUP1 ISZERO PUSH2 0x10 JUMPI PUSH1 0x0 DUP1 REVERT JUMPDEST POP PUSH1 0x40 MLOAD PUSH2 0x6BD CODESIZE SUB DUP1 PUSH2 0x6BD DUP4 CODECOPY DUP2 DUP2 ADD PUSH1 0x40 MSTORE DUP2 ADD SWAP1 PUSH2 0x32 SWAP2 SWAP1 PUSH2 0x11F JUMP JUMPDEST DUP4 PUSH1 0x0 DUP1 PUSH2 0x100 EXP DUP2 SLOAD DUP2 PUSH20 0xFFFFFFFFFFFFFFFFFFFFFFFFFFFFFFFFFFFFFFFF MUL NOT AND SWAP1 DUP4 PUSH20 0xFFFFFFFFFFFFFFFFFFFFFFFFFFFFFFFFFFFFFFFF AND MUL OR SWAP1 SSTORE POP PUSH1 0x0 DUP1 SLOAD SWAP1 PUSH2 0x100 EXP SWAP1 DIV PUSH20 0xFFFFFFFFFFFFFFFFFFFFFFFFFFFFFFFFFFFFFFFF AND PUSH20 0xFFFFFFFFFFFFFFFFFFFFFFFFFFFFFFFFFFFFFFFF AND PUSH4 0x36FD2633 DUP5 DUP5 DUP5 PUSH1 0x40 MLOAD DUP5 PUSH4 0xFFFFFFFF AND PUSH1 0xE0 SHL DUP2 MSTORE PUSH1 0x4 ADD PUSH2 0xCF SWAP4 SWAP3 SWAP2 SWAP1 PUSH2 0x195 JUMP JUMPDEST PUSH1 0x0 PUSH1 0x40 MLOAD DUP1 DUP4 SUB DUP2 PUSH1 0x0 DUP8 DUP1 EXTCODESIZE ISZERO DUP1 ISZERO PUSH2 0xE9 JUMPI PUSH1 0x0 DUP1 REVERT JUMPDEST POP GAS CALL ISZERO DUP1 ISZERO PUSH2 0xFD JUMPI RETURNDATASIZE PUSH1 0x0 DUP1 RETURNDATACOPY RETURNDATASIZE PUSH1 0x0 REVERT JUMPDEST POP POP POP POP POP POP POP POP PUSH2 0x21A JUMP JUMPDEST PUSH1 0x0 DUP2 MLOAD SWAP1 POP PUSH2 0x119 DUP2 PUSH2 0x203 JUMP JUMPDEST SWAP3 SWAP2 POP POP JUMP JUMPDEST PUSH1 0x0 DUP1 PUSH1 0x0 DUP1 PUSH1 0x80 DUP6 DUP8 SUB SLT ISZERO PUSH2 0x139 JUMPI PUSH2 0x138 PUSH2 0x1FE JUMP JUMPDEST JUMPDEST PUSH1 0x0 PUSH2 0x147 DUP8 DUP3 DUP9 ADD PUSH2 0x10A JUMP JUMPDEST SWAP5 POP POP PUSH1 0x20 PUSH2 0x158 DUP8 DUP3 DUP9 ADD PUSH2 0x10A JUMP JUMPDEST SWAP4 POP POP PUSH1 0x40 PUSH2 0x169 DUP8 DUP3 DUP9 ADD PUSH2 0x10A JUMP JUMPDEST SWAP3 POP POP PUSH1 0x60 PUSH2 0x17A DUP8 DUP3 DUP9 ADD PUSH2 0x10A JUMP JUMPDEST SWAP2 POP POP SWAP3 SWAP6 SWAP2 SWAP5 POP SWAP3 POP JUMP JUMPDEST PUSH2 0x18F DUP2 PUSH2 0x1CC JUMP JUMPDEST DUP3 MSTORE POP POP JUMP JUMPDEST PUSH1 0x0 PUSH1 0x60 DUP3 ADD SWAP1 POP PUSH2 0x1AA PUSH1 0x0 DUP4 ADD DUP7 PUSH2 0x186 JUMP JUMPDEST PUSH2 0x1B7 PUSH1 0x20 DUP4 ADD DUP6 PUSH2 0x186 JUMP JUMPDEST PUSH2 0x1C4 PUSH1 0x40 DUP4 ADD DUP5 PUSH2 0x186 JUMP JUMPDEST SWAP5 SWAP4 POP POP POP POP JUMP JUMPDEST PUSH1 0x0 PUSH2 0x1D7 DUP3 PUSH2 0x1DE JUMP JUMPDEST SWAP1 POP SWAP2 SWAP1 POP JUMP JUMPDEST PUSH1 0x0 PUSH20 0xFFFFFFFFFFFFFFFFFFFFFFFFFFFFFFFFFFFFFFFF DUP3 AND SWAP1 POP SWAP2 SWAP1 POP JUMP JUMPDEST PUSH1 0x0 DUP1 REVERT JUMPDEST PUSH2 0x20C DUP2 PUSH2 0x1CC JUMP JUMPDEST DUP2 EQ PUSH2 0x217 JUMPI PUSH1 0x0 DUP1 REVERT JUMPDEST POP JUMP JUMPDEST PUSH2 0x494 DUP1 PUSH2 0x229 PUSH1 0x0 CODECOPY PUSH1 0x0 RETURN INVALID PUSH1 0x80 PUSH1 0x40 MSTORE CALLVALUE DUP1 ISZERO PUSH2 0x10 JUMPI PUSH1 0x0 DUP1 REVERT JUMPDEST POP PUSH1 0x4 CALLDATASIZE LT PUSH2 0x2B JUMPI PUSH1 0x0 CALLDATALOAD PUSH1 0xE0 SHR DUP1 PUSH4 0x13CB22C6 EQ PUSH2 0x30 JUMPI JUMPDEST PUSH1 0x0 DUP1 REVERT JUMPDEST PUSH2 0x4A PUSH1 0x4 DUP1 CALLDATASIZE SUB DUP2 ADD SWAP1 PUSH2 0x45 SWAP2 SWAP1 PUSH2 0x1B4 JUMP JUMPDEST PUSH2 0x4C JUMP JUMPDEST STOP JUMPDEST PUSH1 0x0 DUP1 SLOAD SWAP1 PUSH2 0x100 EXP SWAP1 DIV PUSH20 0xFFFFFFFFFFFFFFFFFFFFFFFFFFFFFFFFFFFFFFFF AND PUSH20 0xFFFFFFFFFFFFFFFFFFFFFFFFFFFFFFFFFFFFFFFF AND PUSH3 0x1D54AB DUP5 DUP5 DUP5 PUSH1 0x40 MLOAD DUP5 PUSH4 0xFFFFFFFF AND PUSH1 0xE0 SHL DUP2 MSTORE PUSH1 0x4 ADD PUSH2 0xA8 SWAP4 SWAP3 SWAP2 SWAP1 PUSH2 0x27A JUMP JUMPDEST PUSH1 0x0 PUSH1 0x40 MLOAD DUP1 DUP4 SUB DUP2 PUSH1 0x0 DUP8 DUP1 EXTCODESIZE ISZERO DUP1 ISZERO PUSH2 0xC2 JUMPI PUSH1 0x0 DUP1 REVERT JUMPDEST POP GAS CALL ISZERO DUP1 ISZERO PUSH2 0xD6 JUMPI RETURNDATASIZE PUSH1 0x0 DUP1 RETURNDATACOPY RETURNDATASIZE PUSH1 0x0 REVERT JUMPDEST POP POP POP POP PUSH32 0x750AE9C195D9B95B8C17BF0FA25801932D5A28C4871F4571AF70581BC15F5BFE DUP4 DUP4 DUP4 PUSH1 0x40 MLOAD PUSH2 0x10D SWAP4 SWAP3 SWAP2 SWAP1 PUSH2 0x27A JUMP JUMPDEST PUSH1 0x40 MLOAD DUP1 SWAP2 SUB SWAP1 LOG1 POP POP POP JUMP JUMPDEST PUSH1 0x0 PUSH2 0x12D PUSH2 0x128 DUP5 PUSH2 0x2DD JUMP JUMPDEST PUSH2 0x2B8 JUMP JUMPDEST SWAP1 POP DUP3 DUP2 MSTORE PUSH1 0x20 DUP2 ADD DUP5 DUP5 DUP5 ADD GT ISZERO PUSH2 0x149 JUMPI PUSH2 0x148 PUSH2 0x410 JUMP JUMPDEST JUMPDEST PUSH2 0x154 DUP5 DUP3 DUP6 PUSH2 0x369 JUMP JUMPDEST POP SWAP4 SWAP3 POP POP POP JUMP JUMPDEST PUSH1 0x0 DUP2 CALLDATALOAD SWAP1 POP PUSH2 0x16B DUP2 PUSH2 0x430 JUMP JUMPDEST SWAP3 SWAP2 POP POP JUMP JUMPDEST PUSH1 0x0 DUP3 PUSH1 0x1F DUP4 ADD SLT PUSH2 0x186 JUMPI PUSH2 0x185 PUSH2 0x40B JUMP JUMPDEST JUMPDEST DUP2 CALLDATALOAD PUSH2 0x196 DUP5 DUP3 PUSH1 0x20 DUP7 ADD PUSH2 0x11A JUMP JUMPDEST SWAP2 POP POP SWAP3 SWAP2 POP POP JUMP JUMPDEST PUSH1 0x0 DUP2 CALLDATALOAD SWAP1 POP PUSH2 0x1AE DUP2 PUSH2 0x447 JUMP JUMPDEST SWAP3 SWAP2 POP POP JUMP JUMPDEST PUSH1 0x0 DUP1 PUSH1 0x0 PUSH1 0x60 DUP5 DUP7 SUB SLT ISZERO PUSH2 0x1CD JUMPI PUSH2 0x1CC PUSH2 0x41A JUMP JUMPDEST JUMPDEST PUSH1 0x0 PUSH2 0x1DB DUP7 DUP3 DUP8 ADD PUSH2 0x15C JUMP JUMPDEST SWAP4 POP POP PUSH1 0x20 DUP5 ADD CALLDATALOAD PUSH8 0xFFFFFFFFFFFFFFFF DUP2 GT ISZERO PUSH2 0x1FC JUMPI PUSH2 0x1FB PUSH2 0x415 JUMP JUMPDEST JUMPDEST PUSH2 0x208 DUP7 DUP3 DUP8 ADD PUSH2 0x171 JUMP JUMPDEST SWAP3 POP POP PUSH1 0x40 PUSH2 0x219 DUP7 DUP3 DUP8 ADD PUSH2 0x19F JUMP JUMPDEST SWAP2 POP POP SWAP3 POP SWAP3 POP SWAP3 JUMP JUMPDEST PUSH2 0x22C DUP2 PUSH2 0x32A JUMP JUMPDEST DUP3 MSTORE POP POP JUMP JUMPDEST PUSH1 0x0 PUSH2 0x23D DUP3 PUSH2 0x30E JUMP JUMPDEST PUSH2 0x247 DUP2 DUP6 PUSH2 0x319 JUMP JUMPDEST SWAP4 POP PUSH2 0x257 DUP2 DUP6 PUSH1 0x20 DUP7 ADD PUSH2 0x378 JUMP JUMPDEST PUSH2 0x260 DUP2 PUSH2 0x41F JUMP JUMPDEST DUP5 ADD SWAP2 POP POP SWAP3 SWAP2 POP POP JUMP JUMPDEST PUSH2 0x274 DUP2 PUSH2 0x35C JUMP JUMPDEST DUP3 MSTORE POP POP JUMP JUMPDEST PUSH1 0x0 PUSH1 0x60 DUP3 ADD SWAP1 POP PUSH2 0x28F PUSH1 0x0 DUP4 ADD DUP7 PUSH2 0x223 JUMP JUMPDEST DUP2 DUP2 SUB PUSH1 0x20 DUP4 ADD MSTORE PUSH2 0x2A1 DUP2 DUP6 PUSH2 0x232 JUMP JUMPDEST SWAP1 POP PUSH2 0x2B0 PUSH1 0x40 DUP4 ADD DUP5 PUSH2 0x26B JUMP JUMPDEST SWAP5 SWAP4 POP POP POP POP JUMP JUMPDEST PUSH1 0x0 PUSH2 0x2C2 PUSH2 0x2D3 JUMP JUMPDEST SWAP1 POP PUSH2 0x2CE DUP3 DUP3 PUSH2 0x3AB JUMP JUMPDEST SWAP2 SWAP1 POP JUMP JUMPDEST PUSH1 0x0 PUSH1 0x40 MLOAD SWAP1 POP SWAP1 JUMP JUMPDEST PUSH1 0x0 PUSH8 0xFFFFFFFFFFFFFFFF DUP3 GT ISZERO PUSH2 0x2F8 JUMPI PUSH2 0x2F7 PUSH2 0x3DC JUMP JUMPDEST JUMPDEST PUSH2 0x301 DUP3 PUSH2 0x41F JUMP JUMPDEST SWAP1 POP PUSH1 0x20 DUP2 ADD SWAP1 POP SWAP2 SWAP1 POP JUMP JUMPDEST PUSH1 0x0 DUP2 MLOAD SWAP1 POP SWAP2 SWAP1 POP JUMP JUMPDEST PUSH1 0x0 DUP3 DUP3 MSTORE PUSH1 0x20 DUP3 ADD SWAP1 POP SWAP3 SWAP2 POP POP JUMP JUMPDEST PUSH1 0x0 PUSH2 0x335 DUP3 PUSH2 0x33C JUMP JUMPDEST SWAP1 POP SWAP2 SWAP1 POP JUMP JUMPDEST PUSH1 0x0 PUSH20 0xFFFFFFFFFFFFFFFFFFFFFFFFFFFFFFFFFFFFFFFF DUP3 AND SWAP1 POP SWAP2 SWAP1 POP JUMP JUMPDEST PUSH1 0x0 PUSH1 0xFF DUP3 AND SWAP1 POP SWAP2 SWAP1 POP JUMP JUMPDEST DUP3 DUP2 DUP4 CALLDATACOPY PUSH1 0x0 DUP4 DUP4 ADD MSTORE POP POP POP JUMP JUMPDEST PUSH1 0x0 JUMPDEST DUP4 DUP2 LT ISZERO PUSH2 0x396 JUMPI DUP1 DUP3 ADD MLOAD DUP2 DUP5 ADD MSTORE PUSH1 0x20 DUP2 ADD SWAP1 POP PUSH2 0x37B JUMP JUMPDEST DUP4 DUP2 GT ISZERO PUSH2 0x3A5 JUMPI PUSH1 0x0 DUP5 DUP5 ADD MSTORE JUMPDEST POP POP POP POP JUMP JUMPDEST PUSH2 0x3B4 DUP3 PUSH2 0x41F JUMP JUMPDEST DUP2 ADD DUP2 DUP2 LT PUSH8 0xFFFFFFFFFFFFFFFF DUP3 GT OR ISZERO PUSH2 0x3D3 JUMPI PUSH2 0x3D2 PUSH2 0x3DC JUMP JUMPDEST JUMPDEST DUP1 PUSH1 0x40 MSTORE POP POP POP JUMP JUMPDEST PUSH32 0x4E487B7100000000000000000000000000000000000000000000000000000000 PUSH1 0x0 MSTORE PUSH1 0x41 PUSH1 0x4 MSTORE PUSH1 0x24 PUSH1 0x0 REVERT JUMPDEST PUSH1 0x0 DUP1 REVERT JUMPDEST PUSH1 0x0 DUP1 REVERT JUMPDEST PUSH1 0x0 DUP1 REVERT JUMPDEST PUSH1 0x0 DUP1 REVERT JUMPDEST PUSH1 0x0 PUSH1 0x1F NOT PUSH1 0x1F DUP4 ADD AND SWAP1 POP SWAP2 SWAP1 POP JUMP JUMPDEST PUSH2 0x439 DUP2 PUSH2 0x32A JUMP JUMPDEST DUP2 EQ PUSH2 0x444 JUMPI PUSH1 0x0 DUP1 REVERT JUMPDEST POP JUMP JUMPDEST PUSH2 0x450 DUP2 PUSH2 0x35C JUMP JUMPDEST DUP2 EQ PUSH2 0x45B JUMPI PUSH1 0x0 DUP1 REVERT JUMPDEST POP JUMP INVALID LOG2 PUSH5 0x6970667358 0x22 SLT KECCAK256 PUSH27 0xA824151BB0427E89335BDCDAF5B4A4DBC0828C82D89D84DEAEDC4B ISZERO PUSH4 0xAF26473 PUSH16 0x6C634300080700330000000000000000 "
				},
				"gasEstimates": {
					"creation": {
						"codeDepositCost": "234400",
						"executionCost": "infinite",
						"totalCost": "infinite"
					},
					"external": {
						"kaydetUniversite(address,string,uint8)": "infinite"
					}
				},
				"methodIdentifiers": {
					"kaydetUniversite(address,string,uint8)": "13cb22c6"
				}
			},
			"storageLayout": {
				"storage": [
					{
						"astId": 464,
						"contract": "contracts/Registration.sol:Registration",
						"label": "baseContract",
						"offset": 0,
						"slot": "0",
						"type": "t_contract(BaseContract)458"
					}
				],
				"types": {
					"t_contract(BaseContract)458": {
						"encoding": "inplace",
						"label": "contract BaseContract",
						"numberOfBytes": "20"
					}
				}
			},
			"userdoc": {
				"kind": "user",
				"methods": {},
				"version": 1
			}
		}
	}
}