{
	"contracts/BaseContract.sol": {
		"BaseContract": {
			"abi": [
				{
					"inputs": [],
					"name": "YOK",
					"outputs": [
						{
							"internalType": "address",
							"name": "",
							"type": "address"
						}
					],
					"stateMutability": "view",
					"type": "function"
				},
				{
					"inputs": [
						{
							"internalType": "address",
							"name": "",
							"type": "address"
						}
					],
					"name": "akademisyenler",
					"outputs": [
						{
							"internalType": "bool",
							"name": "durum",
							"type": "bool"
						},
						{
							"internalType": "address",
							"name": "universite",
							"type": "address"
						},
						{
							"internalType": "uint16",
							"name": "bolum",
							"type": "uint16"
						},
						{
							"internalType": "enum BaseContract.Unvan",
							"name": "unvan",
							"type": "uint8"
						},
						{
							"internalType": "string",
							"name": "ad",
							"type": "string"
						},
						{
							"internalType": "string",
							"name": "soyad",
							"type": "string"
						}
					],
					"stateMutability": "view",
					"type": "function"
				},
				{
					"inputs": [
						{
							"internalType": "uint32",
							"name": "",
							"type": "uint32"
						}
					],
					"name": "diller",
					"outputs": [
						{
							"internalType": "uint32",
							"name": "id",
							"type": "uint32"
						},
						{
							"internalType": "string",
							"name": "isim",
							"type": "string"
						}
					],
					"stateMutability": "view",
					"type": "function"
				},
				{
					"inputs": [
						{
							"internalType": "address",
							"name": "_universiteAdres",
							"type": "address"
						},
						{
							"internalType": "string",
							"name": "_isim",
							"type": "string"
						},
						{
							"internalType": "uint8",
							"name": "_ulke",
							"type": "uint8"
						}
					],
					"name": "ekleUniversite",
					"outputs": [],
					"stateMutability": "nonpayable",
					"type": "function"
				},
				{
					"inputs": [
						{
							"internalType": "address",
							"name": "",
							"type": "address"
						}
					],
					"name": "firmalar",
					"outputs": [
						{
							"internalType": "bool",
							"name": "durum",
							"type": "bool"
						},
						{
							"internalType": "uint8",
							"name": "ulke",
							"type": "uint8"
						},
						{
							"internalType": "uint256",
							"name": "vergiNo",
							"type": "uint256"
						},
						{
							"internalType": "string",
							"name": "isim",
							"type": "string"
						}
					],
					"stateMutability": "view",
					"type": "function"
				},
				{
					"inputs": [
						{
							"internalType": "address",
							"name": "_address",
							"type": "address"
						}
					],
					"name": "isFirma",
					"outputs": [
						{
							"internalType": "bool",
							"name": "",
							"type": "bool"
						}
					],
					"stateMutability": "view",
					"type": "function"
				},
				{
					"inputs": [
						{
							"internalType": "address",
							"name": "_address",
							"type": "address"
						}
					],
					"name": "isKamuKurumu",
					"outputs": [
						{
							"internalType": "bool",
							"name": "",
							"type": "bool"
						}
					],
					"stateMutability": "view",
					"type": "function"
				},
				{
					"inputs": [
						{
							"internalType": "address",
							"name": "_address",
							"type": "address"
						}
					],
					"name": "isKisi",
					"outputs": [
						{
							"internalType": "bool",
							"name": "",
							"type": "bool"
						}
					],
					"stateMutability": "view",
					"type": "function"
				},
				{
					"inputs": [
						{
							"internalType": "address",
							"name": "_address",
							"type": "address"
						}
					],
					"name": "isKurs",
					"outputs": [
						{
							"internalType": "bool",
							"name": "",
							"type": "bool"
						}
					],
					"stateMutability": "view",
					"type": "function"
				},
				{
					"inputs": [
						{
							"internalType": "address",
							"name": "_address",
							"type": "address"
						}
					],
					"name": "isSTK",
					"outputs": [
						{
							"internalType": "bool",
							"name": "",
							"type": "bool"
						}
					],
					"stateMutability": "view",
					"type": "function"
				},
				{
					"inputs": [
						{
							"internalType": "address",
							"name": "_address",
							"type": "address"
						}
					],
					"name": "isSertifikaMerkezi",
					"outputs": [
						{
							"internalType": "bool",
							"name": "",
							"type": "bool"
						}
					],
					"stateMutability": "view",
					"type": "function"
				},
				{
					"inputs": [
						{
							"internalType": "address",
							"name": "_address",
							"type": "address"
						}
					],
					"name": "isUniversite",
					"outputs": [
						{
							"internalType": "bool",
							"name": "",
							"type": "bool"
						}
					],
					"stateMutability": "view",
					"type": "function"
				},
				{
					"inputs": [
						{
							"internalType": "address",
							"name": "",
							"type": "address"
						}
					],
					"name": "kamuKurumlari",
					"outputs": [
						{
							"internalType": "bool",
							"name": "durum",
							"type": "bool"
						},
						{
							"internalType": "string",
							"name": "isim",
							"type": "string"
						},
						{
							"internalType": "uint8",
							"name": "ulke",
							"type": "uint8"
						}
					],
					"stateMutability": "view",
					"type": "function"
				},
				{
					"inputs": [
						{
							"internalType": "address",
							"name": "",
							"type": "address"
						}
					],
					"name": "kisiler",
					"outputs": [
						{
							"internalType": "bool",
							"name": "durum",
							"type": "bool"
						}
					],
					"stateMutability": "view",
					"type": "function"
				},
				{
					"inputs": [
						{
							"internalType": "address",
							"name": "",
							"type": "address"
						}
					],
					"name": "kurslar",
					"outputs": [
						{
							"internalType": "bool",
							"name": "durum",
							"type": "bool"
						},
						{
							"internalType": "string",
							"name": "isim",
							"type": "string"
						},
						{
							"internalType": "uint8",
							"name": "ulke",
							"type": "uint8"
						}
					],
					"stateMutability": "view",
					"type": "function"
				},
				{
					"inputs": [
						{
							"internalType": "address",
							"name": "_yok",
							"type": "address"
						},
						{
							"internalType": "address",
							"name": "_tobb",
							"type": "address"
						},
						{
							"internalType": "address",
							"name": "_cb",
							"type": "address"
						}
					],
					"name": "paydasTanimla",
					"outputs": [],
					"stateMutability": "nonpayable",
					"type": "function"
				},
				{
					"inputs": [
						{
							"internalType": "address",
							"name": "",
							"type": "address"
						}
					],
					"name": "sertifikaMerkezleri",
					"outputs": [
						{
							"internalType": "bool",
							"name": "durum",
							"type": "bool"
						},
						{
							"internalType": "string",
							"name": "isim",
							"type": "string"
						},
						{
							"internalType": "uint8",
							"name": "ulke",
							"type": "uint8"
						}
					],
					"stateMutability": "view",
					"type": "function"
				},
				{
					"inputs": [
						{
							"internalType": "address",
							"name": "",
							"type": "address"
						}
					],
					"name": "stklar",
					"outputs": [
						{
							"internalType": "bool",
							"name": "durum",
							"type": "bool"
						},
						{
							"internalType": "string",
							"name": "isim",
							"type": "string"
						},
						{
							"internalType": "uint8",
							"name": "ulke",
							"type": "uint8"
						}
					],
					"stateMutability": "view",
					"type": "function"
				},
				{
					"inputs": [
						{
							"internalType": "address",
							"name": "",
							"type": "address"
						}
					],
					"name": "universiteler",
					"outputs": [
						{
							"internalType": "bool",
							"name": "durum",
							"type": "bool"
						},
						{
							"internalType": "string",
							"name": "isim",
							"type": "string"
						},
						{
							"internalType": "uint8",
							"name": "ulke",
							"type": "uint8"
						}
					],
					"stateMutability": "view",
					"type": "function"
				}
			],
			"devdoc": {
				"kind": "dev",
				"methods": {},
				"version": 1
			},
			"evm": {
				"assembly": "    /* \"contracts/BaseContract.sol\":70:5428  contract BaseContract{\r... */\n  mstore(0x40, 0x80)\n  callvalue\n  dup1\n  iszero\n  tag_1\n  jumpi\n  0x00\n  dup1\n  revert\ntag_1:\n  pop\n  dataSize(sub_0)\n  dup1\n  dataOffset(sub_0)\n  0x00\n  codecopy\n  0x00\n  return\nstop\n\nsub_0: assembly {\n        /* \"contracts/BaseContract.sol\":70:5428  contract BaseContract{\r... */\n      mstore(0x40, 0x80)\n      callvalue\n      dup1\n      iszero\n      tag_1\n      jumpi\n      0x00\n      dup1\n      revert\n    tag_1:\n      pop\n      jumpi(tag_2, lt(calldatasize, 0x04))\n      shr(0xe0, calldataload(0x00))\n      dup1\n      0x71af892d\n      gt\n      tag_22\n      jumpi\n      dup1\n      0xb98ccefd\n      gt\n      tag_23\n      jumpi\n      dup1\n      0xb98ccefd\n      eq\n      tag_17\n      jumpi\n      dup1\n      0xba479b7e\n      eq\n      tag_18\n      jumpi\n      dup1\n      0xcbc92809\n      eq\n      tag_19\n      jumpi\n      dup1\n      0xe24047ca\n      eq\n      tag_20\n      jumpi\n      dup1\n      0xf0040eb9\n      eq\n      tag_21\n      jumpi\n      jump(tag_2)\n    tag_23:\n      dup1\n      0x71af892d\n      eq\n      tag_12\n      jumpi\n      dup1\n      0x7d0fa287\n      eq\n      tag_13\n      jumpi\n      dup1\n      0x8c848885\n      eq\n      tag_14\n      jumpi\n      dup1\n      0x9a8c9119\n      eq\n      tag_15\n      jumpi\n      dup1\n      0xa4e7ae05\n      eq\n      tag_16\n      jumpi\n      jump(tag_2)\n    tag_22:\n      dup1\n      0x2d087d70\n      gt\n      tag_24\n      jumpi\n      dup1\n      0x2d087d70\n      eq\n      tag_7\n      jumpi\n      dup1\n      0x356b1f1e\n      eq\n      tag_8\n      jumpi\n      dup1\n      0x36fd2633\n      eq\n      tag_9\n      jumpi\n      dup1\n      0x39987f94\n      eq\n      tag_10\n      jumpi\n      dup1\n      0x514e03c7\n      eq\n      tag_11\n      jumpi\n      jump(tag_2)\n    tag_24:\n      dup1\n      0x1d54ab\n      eq\n      tag_3\n      jumpi\n      dup1\n      0x024eb6bc\n      eq\n      tag_4\n      jumpi\n      dup1\n      0x1916e139\n      eq\n      tag_5\n      jumpi\n      dup1\n      0x28266697\n      eq\n      tag_6\n      jumpi\n    tag_2:\n      0x00\n      dup1\n      revert\n        /* \"contracts/BaseContract.sol\":4889:5286  function ekleUniversite(address _universiteAdres,string memory _isim, uint8 _ulke)  public  sadeceYOK{\r... */\n    tag_3:\n      tag_25\n      0x04\n      dup1\n      calldatasize\n      sub\n      dup2\n      add\n      swap1\n      tag_26\n      swap2\n      swap1\n      tag_27\n      jump\t// in\n    tag_26:\n      tag_28\n      jump\t// in\n    tag_25:\n      stop\n        /* \"contracts/BaseContract.sol\":4046:4154  function isKurs(address _address) public view returns(bool){\r... */\n    tag_4:\n      tag_29\n      0x04\n      dup1\n      calldatasize\n      sub\n      dup2\n      add\n      swap1\n      tag_30\n      swap2\n      swap1\n      tag_31\n      jump\t// in\n    tag_30:\n      tag_32\n      jump\t// in\n    tag_29:\n      mload(0x40)\n      tag_33\n      swap2\n      swap1\n      tag_34\n      jump\t// in\n    tag_33:\n      mload(0x40)\n      dup1\n      swap2\n      sub\n      swap1\n      return\n        /* \"contracts/BaseContract.sol\":4625:4663  mapping(address=>Kurs) public  kurslar */\n    tag_5:\n      tag_35\n      0x04\n      dup1\n      calldatasize\n      sub\n      dup2\n      add\n      swap1\n      tag_36\n      swap2\n      swap1\n      tag_31\n      jump\t// in\n    tag_36:\n      tag_37\n      jump\t// in\n    tag_35:\n      mload(0x40)\n      tag_38\n      swap4\n      swap3\n      swap2\n      swap1\n      tag_39\n      jump\t// in\n    tag_38:\n      mload(0x40)\n      dup1\n      swap2\n      sub\n      swap1\n      return\n        /* \"contracts/BaseContract.sol\":4464:4513  mapping(address=>Universite) public universiteler */\n    tag_6:\n      tag_40\n      0x04\n      dup1\n      calldatasize\n      sub\n      dup2\n      add\n      swap1\n      tag_41\n      swap2\n      swap1\n      tag_31\n      jump\t// in\n    tag_41:\n      tag_42\n      jump\t// in\n    tag_40:\n      mload(0x40)\n      tag_43\n      swap4\n      swap3\n      swap2\n      swap1\n      tag_39\n      jump\t// in\n    tag_43:\n      mload(0x40)\n      dup1\n      swap2\n      sub\n      swap1\n      return\n        /* \"contracts/BaseContract.sol\":3924:4034  function isFirma(address _address) public view returns(bool){\r... */\n    tag_7:\n      tag_44\n      0x04\n      dup1\n      calldatasize\n      sub\n      dup2\n      add\n      swap1\n      tag_45\n      swap2\n      swap1\n      tag_31\n      jump\t// in\n    tag_45:\n      tag_46\n      jump\t// in\n    tag_44:\n      mload(0x40)\n      tag_47\n      swap2\n      swap1\n      tag_34\n      jump\t// in\n    tag_47:\n      mload(0x40)\n      dup1\n      swap2\n      sub\n      swap1\n      return\n        /* \"contracts/BaseContract.sol\":4768:4829  mapping(address=>SertifikaMerkezi) public sertifikaMerkezleri */\n    tag_8:\n      tag_48\n      0x04\n      dup1\n      calldatasize\n      sub\n      dup2\n      add\n      swap1\n      tag_49\n      swap2\n      swap1\n      tag_31\n      jump\t// in\n    tag_49:\n      tag_50\n      jump\t// in\n    tag_48:\n      mload(0x40)\n      tag_51\n      swap4\n      swap3\n      swap2\n      swap1\n      tag_39\n      jump\t// in\n    tag_51:\n      mload(0x40)\n      dup1\n      swap2\n      sub\n      swap1\n      return\n        /* \"contracts/BaseContract.sol\":5292:5425  function paydasTanimla(address _yok, address _tobb, address _cb)  public  {\r... */\n    tag_9:\n      tag_52\n      0x04\n      dup1\n      calldatasize\n      sub\n      dup2\n      add\n      swap1\n      tag_53\n      swap2\n      swap1\n      tag_54\n      jump\t// in\n    tag_53:\n      tag_55\n      jump\t// in\n    tag_52:\n      stop\n        /* \"contracts/BaseContract.sol\":4578:4618  mapping(address=>Firma) public  firmalar */\n    tag_10:\n      tag_56\n      0x04\n      dup1\n      calldatasize\n      sub\n      dup2\n      add\n      swap1\n      tag_57\n      swap2\n      swap1\n      tag_31\n      jump\t// in\n    tag_57:\n      tag_58\n      jump\t// in\n    tag_56:\n      mload(0x40)\n      tag_59\n      swap5\n      swap4\n      swap3\n      swap2\n      swap1\n      tag_60\n      jump\t// in\n    tag_59:\n      mload(0x40)\n      dup1\n      swap2\n      sub\n      swap1\n      return\n        /* \"contracts/BaseContract.sol\":3796:3916  function isKamuKurumu(address _address) public view returns(bool){\r... */\n    tag_11:\n      tag_61\n      0x04\n      dup1\n      calldatasize\n      sub\n      dup2\n      add\n      swap1\n      tag_62\n      swap2\n      swap1\n      tag_31\n      jump\t// in\n    tag_62:\n      tag_63\n      jump\t// in\n    tag_61:\n      mload(0x40)\n      tag_64\n      swap2\n      swap1\n      tag_34\n      jump\t// in\n    tag_64:\n      mload(0x40)\n      dup1\n      swap2\n      sub\n      swap1\n      return\n        /* \"contracts/BaseContract.sol\":99:117  address public YOK */\n    tag_12:\n      tag_65\n      tag_66\n      jump\t// in\n    tag_65:\n      mload(0x40)\n      tag_67\n      swap2\n      swap1\n      tag_68\n      jump\t// in\n    tag_67:\n      mload(0x40)\n      dup1\n      swap2\n      sub\n      swap1\n      return\n        /* \"contracts/BaseContract.sol\":4670:4719  mapping(address=>KamuKurumu) public kamuKurumlari */\n    tag_13:\n      tag_69\n      0x04\n      dup1\n      calldatasize\n      sub\n      dup2\n      add\n      swap1\n      tag_70\n      swap2\n      swap1\n      tag_31\n      jump\t// in\n    tag_70:\n      tag_71\n      jump\t// in\n    tag_69:\n      mload(0x40)\n      tag_72\n      swap4\n      swap3\n      swap2\n      swap1\n      tag_39\n      jump\t// in\n    tag_72:\n      mload(0x40)\n      dup1\n      swap2\n      sub\n      swap1\n      return\n        /* \"contracts/BaseContract.sol\":4162:4268  function isSTK(address _address) public view returns(bool){\r... */\n    tag_14:\n      tag_73\n      0x04\n      dup1\n      calldatasize\n      sub\n      dup2\n      add\n      swap1\n      tag_74\n      swap2\n      swap1\n      tag_31\n      jump\t// in\n    tag_74:\n      tag_75\n      jump\t// in\n    tag_73:\n      mload(0x40)\n      tag_76\n      swap2\n      swap1\n      tag_34\n      jump\t// in\n    tag_76:\n      mload(0x40)\n      dup1\n      swap2\n      sub\n      swap1\n      return\n        /* \"contracts/BaseContract.sol\":4726:4761  mapping(address=>STK) public stklar */\n    tag_15:\n      tag_77\n      0x04\n      dup1\n      calldatasize\n      sub\n      dup2\n      add\n      swap1\n      tag_78\n      swap2\n      swap1\n      tag_31\n      jump\t// in\n    tag_78:\n      tag_79\n      jump\t// in\n    tag_77:\n      mload(0x40)\n      tag_80\n      swap4\n      swap3\n      swap2\n      swap1\n      tag_39\n      jump\t// in\n    tag_80:\n      mload(0x40)\n      dup1\n      swap2\n      sub\n      swap1\n      return\n        /* \"contracts/BaseContract.sol\":4836:4877  mapping(uint32=>YabanciDil) public diller */\n    tag_16:\n      tag_81\n      0x04\n      dup1\n      calldatasize\n      sub\n      dup2\n      add\n      swap1\n      tag_82\n      swap2\n      swap1\n      tag_83\n      jump\t// in\n    tag_82:\n      tag_84\n      jump\t// in\n    tag_81:\n      mload(0x40)\n      tag_85\n      swap3\n      swap2\n      swap1\n      tag_86\n      jump\t// in\n    tag_85:\n      mload(0x40)\n      dup1\n      swap2\n      sub\n      swap1\n      return\n        /* \"contracts/BaseContract.sol\":3676:3784  function isKisi(address _address) public view returns(bool){\r... */\n    tag_17:\n      tag_87\n      0x04\n      dup1\n      calldatasize\n      sub\n      dup2\n      add\n      swap1\n      tag_88\n      swap2\n      swap1\n      tag_31\n      jump\t// in\n    tag_88:\n      tag_89\n      jump\t// in\n    tag_87:\n      mload(0x40)\n      tag_90\n      swap2\n      swap1\n      tag_34\n      jump\t// in\n    tag_90:\n      mload(0x40)\n      dup1\n      swap2\n      sub\n      swap1\n      return\n        /* \"contracts/BaseContract.sol\":4520:4571  mapping(address=>Akademisyen) public akademisyenler */\n    tag_18:\n      tag_91\n      0x04\n      dup1\n      calldatasize\n      sub\n      dup2\n      add\n      swap1\n      tag_92\n      swap2\n      swap1\n      tag_31\n      jump\t// in\n    tag_92:\n      tag_93\n      jump\t// in\n    tag_91:\n      mload(0x40)\n      tag_94\n      swap7\n      swap6\n      swap5\n      swap4\n      swap3\n      swap2\n      swap1\n      tag_95\n      jump\t// in\n    tag_94:\n      mload(0x40)\n      dup1\n      swap2\n      sub\n      swap1\n      return\n        /* \"contracts/BaseContract.sol\":4420:4457  mapping(address=>Kisi) public kisiler */\n    tag_19:\n      tag_96\n      0x04\n      dup1\n      calldatasize\n      sub\n      dup2\n      add\n      swap1\n      tag_97\n      swap2\n      swap1\n      tag_31\n      jump\t// in\n    tag_97:\n      tag_98\n      jump\t// in\n    tag_96:\n      mload(0x40)\n      tag_99\n      swap2\n      swap1\n      tag_34\n      jump\t// in\n    tag_99:\n      mload(0x40)\n      dup1\n      swap2\n      sub\n      swap1\n      return\n        /* \"contracts/BaseContract.sol\":4280:4412  function isSertifikaMerkezi(address _address) public view returns(bool){\r... */\n    tag_20:\n      tag_100\n      0x04\n      dup1\n      calldatasize\n      sub\n      dup2\n      add\n      swap1\n      tag_101\n      swap2\n      swap1\n      tag_31\n      jump\t// in\n    tag_101:\n      tag_102\n      jump\t// in\n    tag_100:\n      mload(0x40)\n      tag_103\n      swap2\n      swap1\n      tag_34\n      jump\t// in\n    tag_103:\n      mload(0x40)\n      dup1\n      swap2\n      sub\n      swap1\n      return\n        /* \"contracts/BaseContract.sol\":3548:3668  function isUniversite(address _address) public view returns(bool){\r... */\n    tag_21:\n      tag_104\n      0x04\n      dup1\n      calldatasize\n      sub\n      dup2\n      add\n      swap1\n      tag_105\n      swap2\n      swap1\n      tag_31\n      jump\t// in\n    tag_105:\n      tag_106\n      jump\t// in\n    tag_104:\n      mload(0x40)\n      tag_107\n      swap2\n      swap1\n      tag_34\n      jump\t// in\n    tag_107:\n      mload(0x40)\n      dup1\n      swap2\n      sub\n      swap1\n      return\n        /* \"contracts/BaseContract.sol\":4889:5286  function ekleUniversite(address _universiteAdres,string memory _isim, uint8 _ulke)  public  sadeceYOK{\r... */\n    tag_28:\n        /* \"contracts/BaseContract.sol\":2162:2165  YOK */\n      0x00\n      dup1\n      sload\n      swap1\n      0x0100\n      exp\n      swap1\n      div\n      0xffffffffffffffffffffffffffffffffffffffff\n      and\n        /* \"contracts/BaseContract.sol\":2148:2165  msg.sender == YOK */\n      0xffffffffffffffffffffffffffffffffffffffff\n      and\n        /* \"contracts/BaseContract.sol\":2148:2158  msg.sender */\n      caller\n        /* \"contracts/BaseContract.sol\":2148:2165  msg.sender == YOK */\n      0xffffffffffffffffffffffffffffffffffffffff\n      and\n      eq\n        /* \"contracts/BaseContract.sol\":2140:2216  require(msg.sender == YOK,\r... */\n      tag_109\n      jumpi\n      mload(0x40)\n      0x08c379a000000000000000000000000000000000000000000000000000000000\n      dup2\n      mstore\n      0x04\n      add\n      tag_110\n      swap1\n      tag_111\n      jump\t// in\n    tag_110:\n      mload(0x40)\n      dup1\n      swap2\n      sub\n      swap1\n      revert\n    tag_109:\n        /* \"contracts/BaseContract.sol\":5010:5040  isUniversite(_universiteAdres) */\n      tag_113\n        /* \"contracts/BaseContract.sol\":5023:5039  _universiteAdres */\n      dup4\n        /* \"contracts/BaseContract.sol\":5010:5022  isUniversite */\n      tag_106\n        /* \"contracts/BaseContract.sol\":5010:5040  isUniversite(_universiteAdres) */\n      jump\t// in\n    tag_113:\n        /* \"contracts/BaseContract.sol\":5009:5040  !isUniversite(_universiteAdres) */\n      iszero\n        /* \"contracts/BaseContract.sol\":5001:5095  require(!isUniversite(_universiteAdres),\r... */\n      tag_114\n      jumpi\n      mload(0x40)\n      0x08c379a000000000000000000000000000000000000000000000000000000000\n      dup2\n      mstore\n      0x04\n      add\n      tag_115\n      swap1\n      tag_116\n      jump\t// in\n    tag_115:\n      mload(0x40)\n      dup1\n      swap2\n      sub\n      swap1\n      revert\n    tag_114:\n        /* \"contracts/BaseContract.sol\":5157:5161  true */\n      0x01\n        /* \"contracts/BaseContract.sol\":5119:5132  universiteler */\n      0x04\n        /* \"contracts/BaseContract.sol\":5119:5150  universiteler[_universiteAdres] */\n      0x00\n        /* \"contracts/BaseContract.sol\":5133:5149  _universiteAdres */\n      dup6\n        /* \"contracts/BaseContract.sol\":5119:5150  universiteler[_universiteAdres] */\n      0xffffffffffffffffffffffffffffffffffffffff\n      and\n      0xffffffffffffffffffffffffffffffffffffffff\n      and\n      dup2\n      mstore\n      0x20\n      add\n      swap1\n      dup2\n      mstore\n      0x20\n      add\n      0x00\n      keccak256\n        /* \"contracts/BaseContract.sol\":5119:5156  universiteler[_universiteAdres].durum */\n      0x00\n      add\n      0x00\n        /* \"contracts/BaseContract.sol\":5119:5161  universiteler[_universiteAdres].durum=true */\n      0x0100\n      exp\n      dup2\n      sload\n      dup2\n      0xff\n      mul\n      not\n      and\n      swap1\n      dup4\n      iszero\n      iszero\n      mul\n      or\n      swap1\n      sstore\n      pop\n        /* \"contracts/BaseContract.sol\":5209:5214  _isim */\n      dup2\n        /* \"contracts/BaseContract.sol\":5172:5185  universiteler */\n      0x04\n        /* \"contracts/BaseContract.sol\":5172:5203  universiteler[_universiteAdres] */\n      0x00\n        /* \"contracts/BaseContract.sol\":5186:5202  _universiteAdres */\n      dup6\n        /* \"contracts/BaseContract.sol\":5172:5203  universiteler[_universiteAdres] */\n      0xffffffffffffffffffffffffffffffffffffffff\n      and\n      0xffffffffffffffffffffffffffffffffffffffff\n      and\n      dup2\n      mstore\n      0x20\n      add\n      swap1\n      dup2\n      mstore\n      0x20\n      add\n      0x00\n      keccak256\n        /* \"contracts/BaseContract.sol\":5172:5208  universiteler[_universiteAdres].isim */\n      0x01\n      add\n        /* \"contracts/BaseContract.sol\":5172:5214  universiteler[_universiteAdres].isim=_isim */\n      swap1\n      dup1\n      mload\n      swap1\n      0x20\n      add\n      swap1\n      tag_117\n      swap3\n      swap2\n      swap1\n      tag_118\n      jump\t// in\n    tag_117:\n      pop\n        /* \"contracts/BaseContract.sol\":5262:5267  _ulke */\n      dup1\n        /* \"contracts/BaseContract.sol\":5225:5238  universiteler */\n      0x04\n        /* \"contracts/BaseContract.sol\":5225:5256  universiteler[_universiteAdres] */\n      0x00\n        /* \"contracts/BaseContract.sol\":5239:5255  _universiteAdres */\n      dup6\n        /* \"contracts/BaseContract.sol\":5225:5256  universiteler[_universiteAdres] */\n      0xffffffffffffffffffffffffffffffffffffffff\n      and\n      0xffffffffffffffffffffffffffffffffffffffff\n      and\n      dup2\n      mstore\n      0x20\n      add\n      swap1\n      dup2\n      mstore\n      0x20\n      add\n      0x00\n      keccak256\n        /* \"contracts/BaseContract.sol\":5225:5261  universiteler[_universiteAdres].ulke */\n      0x02\n      add\n      0x00\n        /* \"contracts/BaseContract.sol\":5225:5267  universiteler[_universiteAdres].ulke=_ulke */\n      0x0100\n      exp\n      dup2\n      sload\n      dup2\n      0xff\n      mul\n      not\n      and\n      swap1\n      dup4\n      0xff\n      and\n      mul\n      or\n      swap1\n      sstore\n      pop\n        /* \"contracts/BaseContract.sol\":4889:5286  function ekleUniversite(address _universiteAdres,string memory _isim, uint8 _ulke)  public  sadeceYOK{\r... */\n      pop\n      pop\n      pop\n      jump\t// out\n        /* \"contracts/BaseContract.sol\":4046:4154  function isKurs(address _address) public view returns(bool){\r... */\n    tag_32:\n        /* \"contracts/BaseContract.sol\":4100:4104  bool */\n      0x00\n        /* \"contracts/BaseContract.sol\":4123:4130  kurslar */\n      0x07\n        /* \"contracts/BaseContract.sol\":4123:4140  kurslar[_address] */\n      0x00\n        /* \"contracts/BaseContract.sol\":4131:4139  _address */\n      dup4\n        /* \"contracts/BaseContract.sol\":4123:4140  kurslar[_address] */\n      0xffffffffffffffffffffffffffffffffffffffff\n      and\n      0xffffffffffffffffffffffffffffffffffffffff\n      and\n      dup2\n      mstore\n      0x20\n      add\n      swap1\n      dup2\n      mstore\n      0x20\n      add\n      0x00\n      keccak256\n        /* \"contracts/BaseContract.sol\":4123:4146  kurslar[_address].durum */\n      0x00\n      add\n      0x00\n      swap1\n      sload\n      swap1\n      0x0100\n      exp\n      swap1\n      div\n      0xff\n      and\n        /* \"contracts/BaseContract.sol\":4116:4146  return kurslar[_address].durum */\n      swap1\n      pop\n        /* \"contracts/BaseContract.sol\":4046:4154  function isKurs(address _address) public view returns(bool){\r... */\n      swap2\n      swap1\n      pop\n      jump\t// out\n        /* \"contracts/BaseContract.sol\":4625:4663  mapping(address=>Kurs) public  kurslar */\n    tag_37:\n      mstore(0x20, 0x07)\n      dup1\n      0x00\n      mstore\n      keccak256(0x00, 0x40)\n      0x00\n      swap2\n      pop\n      swap1\n      pop\n      dup1\n      0x00\n      add\n      0x00\n      swap1\n      sload\n      swap1\n      0x0100\n      exp\n      swap1\n      div\n      0xff\n      and\n      swap1\n      dup1\n      0x01\n      add\n      dup1\n      sload\n      tag_120\n      swap1\n      tag_121\n      jump\t// in\n    tag_120:\n      dup1\n      0x1f\n      add\n      0x20\n      dup1\n      swap2\n      div\n      mul\n      0x20\n      add\n      mload(0x40)\n      swap1\n      dup2\n      add\n      0x40\n      mstore\n      dup1\n      swap3\n      swap2\n      swap1\n      dup2\n      dup2\n      mstore\n      0x20\n      add\n      dup3\n      dup1\n      sload\n      tag_122\n      swap1\n      tag_121\n      jump\t// in\n    tag_122:\n      dup1\n      iszero\n      tag_123\n      jumpi\n      dup1\n      0x1f\n      lt\n      tag_124\n      jumpi\n      0x0100\n      dup1\n      dup4\n      sload\n      div\n      mul\n      dup4\n      mstore\n      swap2\n      0x20\n      add\n      swap2\n      jump(tag_123)\n    tag_124:\n      dup3\n      add\n      swap2\n      swap1\n      0x00\n      mstore\n      keccak256(0x00, 0x20)\n      swap1\n    tag_125:\n      dup2\n      sload\n      dup2\n      mstore\n      swap1\n      0x01\n      add\n      swap1\n      0x20\n      add\n      dup1\n      dup4\n      gt\n      tag_125\n      jumpi\n      dup3\n      swap1\n      sub\n      0x1f\n      and\n      dup3\n      add\n      swap2\n    tag_123:\n      pop\n      pop\n      pop\n      pop\n      pop\n      swap1\n      dup1\n      0x02\n      add\n      0x00\n      swap1\n      sload\n      swap1\n      0x0100\n      exp\n      swap1\n      div\n      0xff\n      and\n      swap1\n      pop\n      dup4\n      jump\t// out\n        /* \"contracts/BaseContract.sol\":4464:4513  mapping(address=>Universite) public universiteler */\n    tag_42:\n      mstore(0x20, 0x04)\n      dup1\n      0x00\n      mstore\n      keccak256(0x00, 0x40)\n      0x00\n      swap2\n      pop\n      swap1\n      pop\n      dup1\n      0x00\n      add\n      0x00\n      swap1\n      sload\n      swap1\n      0x0100\n      exp\n      swap1\n      div\n      0xff\n      and\n      swap1\n      dup1\n      0x01\n      add\n      dup1\n      sload\n      tag_126\n      swap1\n      tag_121\n      jump\t// in\n    tag_126:\n      dup1\n      0x1f\n      add\n      0x20\n      dup1\n      swap2\n      div\n      mul\n      0x20\n      add\n      mload(0x40)\n      swap1\n      dup2\n      add\n      0x40\n      mstore\n      dup1\n      swap3\n      swap2\n      swap1\n      dup2\n      dup2\n      mstore\n      0x20\n      add\n      dup3\n      dup1\n      sload\n      tag_127\n      swap1\n      tag_121\n      jump\t// in\n    tag_127:\n      dup1\n      iszero\n      tag_128\n      jumpi\n      dup1\n      0x1f\n      lt\n      tag_129\n      jumpi\n      0x0100\n      dup1\n      dup4\n      sload\n      div\n      mul\n      dup4\n      mstore\n      swap2\n      0x20\n      add\n      swap2\n      jump(tag_128)\n    tag_129:\n      dup3\n      add\n      swap2\n      swap1\n      0x00\n      mstore\n      keccak256(0x00, 0x20)\n      swap1\n    tag_130:\n      dup2\n      sload\n      dup2\n      mstore\n      swap1\n      0x01\n      add\n      swap1\n      0x20\n      add\n      dup1\n      dup4\n      gt\n      tag_130\n      jumpi\n      dup3\n      swap1\n      sub\n      0x1f\n      and\n      dup3\n      add\n      swap2\n    tag_128:\n      pop\n      pop\n      pop\n      pop\n      pop\n      swap1\n      dup1\n      0x02\n      add\n      0x00\n      swap1\n      sload\n      swap1\n      0x0100\n      exp\n      swap1\n      div\n      0xff\n      and\n      swap1\n      pop\n      dup4\n      jump\t// out\n        /* \"contracts/BaseContract.sol\":3924:4034  function isFirma(address _address) public view returns(bool){\r... */\n    tag_46:\n        /* \"contracts/BaseContract.sol\":3979:3983  bool */\n      0x00\n        /* \"contracts/BaseContract.sol\":4002:4010  firmalar */\n      0x06\n        /* \"contracts/BaseContract.sol\":4002:4020  firmalar[_address] */\n      0x00\n        /* \"contracts/BaseContract.sol\":4011:4019  _address */\n      dup4\n        /* \"contracts/BaseContract.sol\":4002:4020  firmalar[_address] */\n      0xffffffffffffffffffffffffffffffffffffffff\n      and\n      0xffffffffffffffffffffffffffffffffffffffff\n      and\n      dup2\n      mstore\n      0x20\n      add\n      swap1\n      dup2\n      mstore\n      0x20\n      add\n      0x00\n      keccak256\n        /* \"contracts/BaseContract.sol\":4002:4026  firmalar[_address].durum */\n      0x00\n      add\n      0x00\n      swap1\n      sload\n      swap1\n      0x0100\n      exp\n      swap1\n      div\n      0xff\n      and\n        /* \"contracts/BaseContract.sol\":3995:4026  return firmalar[_address].durum */\n      swap1\n      pop\n        /* \"contracts/BaseContract.sol\":3924:4034  function isFirma(address _address) public view returns(bool){\r... */\n      swap2\n      swap1\n      pop\n      jump\t// out\n        /* \"contracts/BaseContract.sol\":4768:4829  mapping(address=>SertifikaMerkezi) public sertifikaMerkezleri */\n    tag_50:\n      mstore(0x20, 0x0a)\n      dup1\n      0x00\n      mstore\n      keccak256(0x00, 0x40)\n      0x00\n      swap2\n      pop\n      swap1\n      pop\n      dup1\n      0x00\n      add\n      0x00\n      swap1\n      sload\n      swap1\n      0x0100\n      exp\n      swap1\n      div\n      0xff\n      and\n      swap1\n      dup1\n      0x01\n      add\n      dup1\n      sload\n      tag_132\n      swap1\n      tag_121\n      jump\t// in\n    tag_132:\n      dup1\n      0x1f\n      add\n      0x20\n      dup1\n      swap2\n      div\n      mul\n      0x20\n      add\n      mload(0x40)\n      swap1\n      dup2\n      add\n      0x40\n      mstore\n      dup1\n      swap3\n      swap2\n      swap1\n      dup2\n      dup2\n      mstore\n      0x20\n      add\n      dup3\n      dup1\n      sload\n      tag_133\n      swap1\n      tag_121\n      jump\t// in\n    tag_133:\n      dup1\n      iszero\n      tag_134\n      jumpi\n      dup1\n      0x1f\n      lt\n      tag_135\n      jumpi\n      0x0100\n      dup1\n      dup4\n      sload\n      div\n      mul\n      dup4\n      mstore\n      swap2\n      0x20\n      add\n      swap2\n      jump(tag_134)\n    tag_135:\n      dup3\n      add\n      swap2\n      swap1\n      0x00\n      mstore\n      keccak256(0x00, 0x20)\n      swap1\n    tag_136:\n      dup2\n      sload\n      dup2\n      mstore\n      swap1\n      0x01\n      add\n      swap1\n      0x20\n      add\n      dup1\n      dup4\n      gt\n      tag_136\n      jumpi\n      dup3\n      swap1\n      sub\n      0x1f\n      and\n      dup3\n      add\n      swap2\n    tag_134:\n      pop\n      pop\n      pop\n      pop\n      pop\n      swap1\n      dup1\n      0x02\n      add\n      0x00\n      swap1\n      sload\n      swap1\n      0x0100\n      exp\n      swap1\n      div\n      0xff\n      and\n      swap1\n      pop\n      dup4\n      jump\t// out\n        /* \"contracts/BaseContract.sol\":5292:5425  function paydasTanimla(address _yok, address _tobb, address _cb)  public  {\r... */\n    tag_55:\n        /* \"contracts/BaseContract.sol\":5379:5383  _yok */\n      dup3\n        /* \"contracts/BaseContract.sol\":5375:5378  YOK */\n      0x00\n      dup1\n        /* \"contracts/BaseContract.sol\":5375:5383  YOK=_yok */\n      0x0100\n      exp\n      dup2\n      sload\n      dup2\n      0xffffffffffffffffffffffffffffffffffffffff\n      mul\n      not\n      and\n      swap1\n      dup4\n      0xffffffffffffffffffffffffffffffffffffffff\n      and\n      mul\n      or\n      swap1\n      sstore\n      pop\n        /* \"contracts/BaseContract.sol\":5397:5402  _tobb */\n      dup2\n        /* \"contracts/BaseContract.sol\":5392:5396  TOBB */\n      0x01\n      0x00\n        /* \"contracts/BaseContract.sol\":5392:5402  TOBB=_tobb */\n      0x0100\n      exp\n      dup2\n      sload\n      dup2\n      0xffffffffffffffffffffffffffffffffffffffff\n      mul\n      not\n      and\n      swap1\n      dup4\n      0xffffffffffffffffffffffffffffffffffffffff\n      and\n      mul\n      or\n      swap1\n      sstore\n      pop\n        /* \"contracts/BaseContract.sol\":5414:5417  _cb */\n      dup1\n        /* \"contracts/BaseContract.sol\":5411:5413  CB */\n      0x02\n      0x00\n        /* \"contracts/BaseContract.sol\":5411:5417  CB=_cb */\n      0x0100\n      exp\n      dup2\n      sload\n      dup2\n      0xffffffffffffffffffffffffffffffffffffffff\n      mul\n      not\n      and\n      swap1\n      dup4\n      0xffffffffffffffffffffffffffffffffffffffff\n      and\n      mul\n      or\n      swap1\n      sstore\n      pop\n        /* \"contracts/BaseContract.sol\":5292:5425  function paydasTanimla(address _yok, address _tobb, address _cb)  public  {\r... */\n      pop\n      pop\n      pop\n      jump\t// out\n        /* \"contracts/BaseContract.sol\":4578:4618  mapping(address=>Firma) public  firmalar */\n    tag_58:\n      mstore(0x20, 0x06)\n      dup1\n      0x00\n      mstore\n      keccak256(0x00, 0x40)\n      0x00\n      swap2\n      pop\n      swap1\n      pop\n      dup1\n      0x00\n      add\n      0x00\n      swap1\n      sload\n      swap1\n      0x0100\n      exp\n      swap1\n      div\n      0xff\n      and\n      swap1\n      dup1\n      0x00\n      add\n      0x01\n      swap1\n      sload\n      swap1\n      0x0100\n      exp\n      swap1\n      div\n      0xff\n      and\n      swap1\n      dup1\n      0x01\n      add\n      sload\n      swap1\n      dup1\n      0x02\n      add\n      dup1\n      sload\n      tag_138\n      swap1\n      tag_121\n      jump\t// in\n    tag_138:\n      dup1\n      0x1f\n      add\n      0x20\n      dup1\n      swap2\n      div\n      mul\n      0x20\n      add\n      mload(0x40)\n      swap1\n      dup2\n      add\n      0x40\n      mstore\n      dup1\n      swap3\n      swap2\n      swap1\n      dup2\n      dup2\n      mstore\n      0x20\n      add\n      dup3\n      dup1\n      sload\n      tag_139\n      swap1\n      tag_121\n      jump\t// in\n    tag_139:\n      dup1\n      iszero\n      tag_140\n      jumpi\n      dup1\n      0x1f\n      lt\n      tag_141\n      jumpi\n      0x0100\n      dup1\n      dup4\n      sload\n      div\n      mul\n      dup4\n      mstore\n      swap2\n      0x20\n      add\n      swap2\n      jump(tag_140)\n    tag_141:\n      dup3\n      add\n      swap2\n      swap1\n      0x00\n      mstore\n      keccak256(0x00, 0x20)\n      swap1\n    tag_142:\n      dup2\n      sload\n      dup2\n      mstore\n      swap1\n      0x01\n      add\n      swap1\n      0x20\n      add\n      dup1\n      dup4\n      gt\n      tag_142\n      jumpi\n      dup3\n      swap1\n      sub\n      0x1f\n      and\n      dup3\n      add\n      swap2\n    tag_140:\n      pop\n      pop\n      pop\n      pop\n      pop\n      swap1\n      pop\n      dup5\n      jump\t// out\n        /* \"contracts/BaseContract.sol\":3796:3916  function isKamuKurumu(address _address) public view returns(bool){\r... */\n    tag_63:\n        /* \"contracts/BaseContract.sol\":3856:3860  bool */\n      0x00\n        /* \"contracts/BaseContract.sol\":3879:3892  kamuKurumlari */\n      0x08\n        /* \"contracts/BaseContract.sol\":3879:3902  kamuKurumlari[_address] */\n      0x00\n        /* \"contracts/BaseContract.sol\":3893:3901  _address */\n      dup4\n        /* \"contracts/BaseContract.sol\":3879:3902  kamuKurumlari[_address] */\n      0xffffffffffffffffffffffffffffffffffffffff\n      and\n      0xffffffffffffffffffffffffffffffffffffffff\n      and\n      dup2\n      mstore\n      0x20\n      add\n      swap1\n      dup2\n      mstore\n      0x20\n      add\n      0x00\n      keccak256\n        /* \"contracts/BaseContract.sol\":3879:3908  kamuKurumlari[_address].durum */\n      0x00\n      add\n      0x00\n      swap1\n      sload\n      swap1\n      0x0100\n      exp\n      swap1\n      div\n      0xff\n      and\n        /* \"contracts/BaseContract.sol\":3872:3908  return kamuKurumlari[_address].durum */\n      swap1\n      pop\n        /* \"contracts/BaseContract.sol\":3796:3916  function isKamuKurumu(address _address) public view returns(bool){\r... */\n      swap2\n      swap1\n      pop\n      jump\t// out\n        /* \"contracts/BaseContract.sol\":99:117  address public YOK */\n    tag_66:\n      0x00\n      dup1\n      sload\n      swap1\n      0x0100\n      exp\n      swap1\n      div\n      0xffffffffffffffffffffffffffffffffffffffff\n      and\n      dup2\n      jump\t// out\n        /* \"contracts/BaseContract.sol\":4670:4719  mapping(address=>KamuKurumu) public kamuKurumlari */\n    tag_71:\n      mstore(0x20, 0x08)\n      dup1\n      0x00\n      mstore\n      keccak256(0x00, 0x40)\n      0x00\n      swap2\n      pop\n      swap1\n      pop\n      dup1\n      0x00\n      add\n      0x00\n      swap1\n      sload\n      swap1\n      0x0100\n      exp\n      swap1\n      div\n      0xff\n      and\n      swap1\n      dup1\n      0x01\n      add\n      dup1\n      sload\n      tag_144\n      swap1\n      tag_121\n      jump\t// in\n    tag_144:\n      dup1\n      0x1f\n      add\n      0x20\n      dup1\n      swap2\n      div\n      mul\n      0x20\n      add\n      mload(0x40)\n      swap1\n      dup2\n      add\n      0x40\n      mstore\n      dup1\n      swap3\n      swap2\n      swap1\n      dup2\n      dup2\n      mstore\n      0x20\n      add\n      dup3\n      dup1\n      sload\n      tag_145\n      swap1\n      tag_121\n      jump\t// in\n    tag_145:\n      dup1\n      iszero\n      tag_146\n      jumpi\n      dup1\n      0x1f\n      lt\n      tag_147\n      jumpi\n      0x0100\n      dup1\n      dup4\n      sload\n      div\n      mul\n      dup4\n      mstore\n      swap2\n      0x20\n      add\n      swap2\n      jump(tag_146)\n    tag_147:\n      dup3\n      add\n      swap2\n      swap1\n      0x00\n      mstore\n      keccak256(0x00, 0x20)\n      swap1\n    tag_148:\n      dup2\n      sload\n      dup2\n      mstore\n      swap1\n      0x01\n      add\n      swap1\n      0x20\n      add\n      dup1\n      dup4\n      gt\n      tag_148\n      jumpi\n      dup3\n      swap1\n      sub\n      0x1f\n      and\n      dup3\n      add\n      swap2\n    tag_146:\n      pop\n      pop\n      pop\n      pop\n      pop\n      swap1\n      dup1\n      0x02\n      add\n      0x00\n      swap1\n      sload\n      swap1\n      0x0100\n      exp\n      swap1\n      div\n      0xff\n      and\n      swap1\n      pop\n      dup4\n      jump\t// out\n        /* \"contracts/BaseContract.sol\":4162:4268  function isSTK(address _address) public view returns(bool){\r... */\n    tag_75:\n        /* \"contracts/BaseContract.sol\":4215:4219  bool */\n      0x00\n        /* \"contracts/BaseContract.sol\":4238:4244  stklar */\n      0x09\n        /* \"contracts/BaseContract.sol\":4238:4254  stklar[_address] */\n      0x00\n        /* \"contracts/BaseContract.sol\":4245:4253  _address */\n      dup4\n        /* \"contracts/BaseContract.sol\":4238:4254  stklar[_address] */\n      0xffffffffffffffffffffffffffffffffffffffff\n      and\n      0xffffffffffffffffffffffffffffffffffffffff\n      and\n      dup2\n      mstore\n      0x20\n      add\n      swap1\n      dup2\n      mstore\n      0x20\n      add\n      0x00\n      keccak256\n        /* \"contracts/BaseContract.sol\":4238:4260  stklar[_address].durum */\n      0x00\n      add\n      0x00\n      swap1\n      sload\n      swap1\n      0x0100\n      exp\n      swap1\n      div\n      0xff\n      and\n        /* \"contracts/BaseContract.sol\":4231:4260  return stklar[_address].durum */\n      swap1\n      pop\n        /* \"contracts/BaseContract.sol\":4162:4268  function isSTK(address _address) public view returns(bool){\r... */\n      swap2\n      swap1\n      pop\n      jump\t// out\n        /* \"contracts/BaseContract.sol\":4726:4761  mapping(address=>STK) public stklar */\n    tag_79:\n      mstore(0x20, 0x09)\n      dup1\n      0x00\n      mstore\n      keccak256(0x00, 0x40)\n      0x00\n      swap2\n      pop\n      swap1\n      pop\n      dup1\n      0x00\n      add\n      0x00\n      swap1\n      sload\n      swap1\n      0x0100\n      exp\n      swap1\n      div\n      0xff\n      and\n      swap1\n      dup1\n      0x01\n      add\n      dup1\n      sload\n      tag_150\n      swap1\n      tag_121\n      jump\t// in\n    tag_150:\n      dup1\n      0x1f\n      add\n      0x20\n      dup1\n      swap2\n      div\n      mul\n      0x20\n      add\n      mload(0x40)\n      swap1\n      dup2\n      add\n      0x40\n      mstore\n      dup1\n      swap3\n      swap2\n      swap1\n      dup2\n      dup2\n      mstore\n      0x20\n      add\n      dup3\n      dup1\n      sload\n      tag_151\n      swap1\n      tag_121\n      jump\t// in\n    tag_151:\n      dup1\n      iszero\n      tag_152\n      jumpi\n      dup1\n      0x1f\n      lt\n      tag_153\n      jumpi\n      0x0100\n      dup1\n      dup4\n      sload\n      div\n      mul\n      dup4\n      mstore\n      swap2\n      0x20\n      add\n      swap2\n      jump(tag_152)\n    tag_153:\n      dup3\n      add\n      swap2\n      swap1\n      0x00\n      mstore\n      keccak256(0x00, 0x20)\n      swap1\n    tag_154:\n      dup2\n      sload\n      dup2\n      mstore\n      swap1\n      0x01\n      add\n      swap1\n      0x20\n      add\n      dup1\n      dup4\n      gt\n      tag_154\n      jumpi\n      dup3\n      swap1\n      sub\n      0x1f\n      and\n      dup3\n      add\n      swap2\n    tag_152:\n      pop\n      pop\n      pop\n      pop\n      pop\n      swap1\n      dup1\n      0x02\n      add\n      0x00\n      swap1\n      sload\n      swap1\n      0x0100\n      exp\n      swap1\n      div\n      0xff\n      and\n      swap1\n      pop\n      dup4\n      jump\t// out\n        /* \"contracts/BaseContract.sol\":4836:4877  mapping(uint32=>YabanciDil) public diller */\n    tag_84:\n      mstore(0x20, 0x0b)\n      dup1\n      0x00\n      mstore\n      keccak256(0x00, 0x40)\n      0x00\n      swap2\n      pop\n      swap1\n      pop\n      dup1\n      0x00\n      add\n      0x00\n      swap1\n      sload\n      swap1\n      0x0100\n      exp\n      swap1\n      div\n      0xffffffff\n      and\n      swap1\n      dup1\n      0x01\n      add\n      dup1\n      sload\n      tag_155\n      swap1\n      tag_121\n      jump\t// in\n    tag_155:\n      dup1\n      0x1f\n      add\n      0x20\n      dup1\n      swap2\n      div\n      mul\n      0x20\n      add\n      mload(0x40)\n      swap1\n      dup2\n      add\n      0x40\n      mstore\n      dup1\n      swap3\n      swap2\n      swap1\n      dup2\n      dup2\n      mstore\n      0x20\n      add\n      dup3\n      dup1\n      sload\n      tag_156\n      swap1\n      tag_121\n      jump\t// in\n    tag_156:\n      dup1\n      iszero\n      tag_157\n      jumpi\n      dup1\n      0x1f\n      lt\n      tag_158\n      jumpi\n      0x0100\n      dup1\n      dup4\n      sload\n      div\n      mul\n      dup4\n      mstore\n      swap2\n      0x20\n      add\n      swap2\n      jump(tag_157)\n    tag_158:\n      dup3\n      add\n      swap2\n      swap1\n      0x00\n      mstore\n      keccak256(0x00, 0x20)\n      swap1\n    tag_159:\n      dup2\n      sload\n      dup2\n      mstore\n      swap1\n      0x01\n      add\n      swap1\n      0x20\n      add\n      dup1\n      dup4\n      gt\n      tag_159\n      jumpi\n      dup3\n      swap1\n      sub\n      0x1f\n      and\n      dup3\n      add\n      swap2\n    tag_157:\n      pop\n      pop\n      pop\n      pop\n      pop\n      swap1\n      pop\n      dup3\n      jump\t// out\n        /* \"contracts/BaseContract.sol\":3676:3784  function isKisi(address _address) public view returns(bool){\r... */\n    tag_89:\n        /* \"contracts/BaseContract.sol\":3730:3734  bool */\n      0x00\n        /* \"contracts/BaseContract.sol\":3753:3760  kisiler */\n      0x03\n        /* \"contracts/BaseContract.sol\":3753:3770  kisiler[_address] */\n      0x00\n        /* \"contracts/BaseContract.sol\":3761:3769  _address */\n      dup4\n        /* \"contracts/BaseContract.sol\":3753:3770  kisiler[_address] */\n      0xffffffffffffffffffffffffffffffffffffffff\n      and\n      0xffffffffffffffffffffffffffffffffffffffff\n      and\n      dup2\n      mstore\n      0x20\n      add\n      swap1\n      dup2\n      mstore\n      0x20\n      add\n      0x00\n      keccak256\n        /* \"contracts/BaseContract.sol\":3753:3776  kisiler[_address].durum */\n      0x00\n      add\n      0x00\n      swap1\n      sload\n      swap1\n      0x0100\n      exp\n      swap1\n      div\n      0xff\n      and\n        /* \"contracts/BaseContract.sol\":3746:3776  return kisiler[_address].durum */\n      swap1\n      pop\n        /* \"contracts/BaseContract.sol\":3676:3784  function isKisi(address _address) public view returns(bool){\r... */\n      swap2\n      swap1\n      pop\n      jump\t// out\n        /* \"contracts/BaseContract.sol\":4520:4571  mapping(address=>Akademisyen) public akademisyenler */\n    tag_93:\n      mstore(0x20, 0x05)\n      dup1\n      0x00\n      mstore\n      keccak256(0x00, 0x40)\n      0x00\n      swap2\n      pop\n      swap1\n      pop\n      dup1\n      0x00\n      add\n      0x00\n      swap1\n      sload\n      swap1\n      0x0100\n      exp\n      swap1\n      div\n      0xff\n      and\n      swap1\n      dup1\n      0x00\n      add\n      0x01\n      swap1\n      sload\n      swap1\n      0x0100\n      exp\n      swap1\n      div\n      0xffffffffffffffffffffffffffffffffffffffff\n      and\n      swap1\n      dup1\n      0x00\n      add\n      0x15\n      swap1\n      sload\n      swap1\n      0x0100\n      exp\n      swap1\n      div\n      0xffff\n      and\n      swap1\n      dup1\n      0x00\n      add\n      0x17\n      swap1\n      sload\n      swap1\n      0x0100\n      exp\n      swap1\n      div\n      0xff\n      and\n      swap1\n      dup1\n      0x01\n      add\n      dup1\n      sload\n      tag_161\n      swap1\n      tag_121\n      jump\t// in\n    tag_161:\n      dup1\n      0x1f\n      add\n      0x20\n      dup1\n      swap2\n      div\n      mul\n      0x20\n      add\n      mload(0x40)\n      swap1\n      dup2\n      add\n      0x40\n      mstore\n      dup1\n      swap3\n      swap2\n      swap1\n      dup2\n      dup2\n      mstore\n      0x20\n      add\n      dup3\n      dup1\n      sload\n      tag_162\n      swap1\n      tag_121\n      jump\t// in\n    tag_162:\n      dup1\n      iszero\n      tag_163\n      jumpi\n      dup1\n      0x1f\n      lt\n      tag_164\n      jumpi\n      0x0100\n      dup1\n      dup4\n      sload\n      div\n      mul\n      dup4\n      mstore\n      swap2\n      0x20\n      add\n      swap2\n      jump(tag_163)\n    tag_164:\n      dup3\n      add\n      swap2\n      swap1\n      0x00\n      mstore\n      keccak256(0x00, 0x20)\n      swap1\n    tag_165:\n      dup2\n      sload\n      dup2\n      mstore\n      swap1\n      0x01\n      add\n      swap1\n      0x20\n      add\n      dup1\n      dup4\n      gt\n      tag_165\n      jumpi\n      dup3\n      swap1\n      sub\n      0x1f\n      and\n      dup3\n      add\n      swap2\n    tag_163:\n      pop\n      pop\n      pop\n      pop\n      pop\n      swap1\n      dup1\n      0x02\n      add\n      dup1\n      sload\n      tag_166\n      swap1\n      tag_121\n      jump\t// in\n    tag_166:\n      dup1\n      0x1f\n      add\n      0x20\n      dup1\n      swap2\n      div\n      mul\n      0x20\n      add\n      mload(0x40)\n      swap1\n      dup2\n      add\n      0x40\n      mstore\n      dup1\n      swap3\n      swap2\n      swap1\n      dup2\n      dup2\n      mstore\n      0x20\n      add\n      dup3\n      dup1\n      sload\n      tag_167\n      swap1\n      tag_121\n      jump\t// in\n    tag_167:\n      dup1\n      iszero\n      tag_168\n      jumpi\n      dup1\n      0x1f\n      lt\n      tag_169\n      jumpi\n      0x0100\n      dup1\n      dup4\n      sload\n      div\n      mul\n      dup4\n      mstore\n      swap2\n      0x20\n      add\n      swap2\n      jump(tag_168)\n    tag_169:\n      dup3\n      add\n      swap2\n      swap1\n      0x00\n      mstore\n      keccak256(0x00, 0x20)\n      swap1\n    tag_170:\n      dup2\n      sload\n      dup2\n      mstore\n      swap1\n      0x01\n      add\n      swap1\n      0x20\n      add\n      dup1\n      dup4\n      gt\n      tag_170\n      jumpi\n      dup3\n      swap1\n      sub\n      0x1f\n      and\n      dup3\n      add\n      swap2\n    tag_168:\n      pop\n      pop\n      pop\n      pop\n      pop\n      swap1\n      pop\n      dup7\n      jump\t// out\n        /* \"contracts/BaseContract.sol\":4420:4457  mapping(address=>Kisi) public kisiler */\n    tag_98:\n      mstore(0x20, 0x03)\n      dup1\n      0x00\n      mstore\n      keccak256(0x00, 0x40)\n      0x00\n      swap2\n      pop\n      swap1\n      pop\n      dup1\n      0x00\n      add\n      0x00\n      swap1\n      sload\n      swap1\n      0x0100\n      exp\n      swap1\n      div\n      0xff\n      and\n      swap1\n      pop\n      dup2\n      jump\t// out\n        /* \"contracts/BaseContract.sol\":4280:4412  function isSertifikaMerkezi(address _address) public view returns(bool){\r... */\n    tag_102:\n        /* \"contracts/BaseContract.sol\":4346:4350  bool */\n      0x00\n        /* \"contracts/BaseContract.sol\":4369:4388  sertifikaMerkezleri */\n      0x0a\n        /* \"contracts/BaseContract.sol\":4369:4398  sertifikaMerkezleri[_address] */\n      0x00\n        /* \"contracts/BaseContract.sol\":4389:4397  _address */\n      dup4\n        /* \"contracts/BaseContract.sol\":4369:4398  sertifikaMerkezleri[_address] */\n      0xffffffffffffffffffffffffffffffffffffffff\n      and\n      0xffffffffffffffffffffffffffffffffffffffff\n      and\n      dup2\n      mstore\n      0x20\n      add\n      swap1\n      dup2\n      mstore\n      0x20\n      add\n      0x00\n      keccak256\n        /* \"contracts/BaseContract.sol\":4369:4404  sertifikaMerkezleri[_address].durum */\n      0x00\n      add\n      0x00\n      swap1\n      sload\n      swap1\n      0x0100\n      exp\n      swap1\n      div\n      0xff\n      and\n        /* \"contracts/BaseContract.sol\":4362:4404  return sertifikaMerkezleri[_address].durum */\n      swap1\n      pop\n        /* \"contracts/BaseContract.sol\":4280:4412  function isSertifikaMerkezi(address _address) public view returns(bool){\r... */\n      swap2\n      swap1\n      pop\n      jump\t// out\n        /* \"contracts/BaseContract.sol\":3548:3668  function isUniversite(address _address) public view returns(bool){\r... */\n    tag_106:\n        /* \"contracts/BaseContract.sol\":3608:3612  bool */\n      0x00\n        /* \"contracts/BaseContract.sol\":3631:3644  universiteler */\n      0x04\n        /* \"contracts/BaseContract.sol\":3631:3654  universiteler[_address] */\n      0x00\n        /* \"contracts/BaseContract.sol\":3645:3653  _address */\n      dup4\n        /* \"contracts/BaseContract.sol\":3631:3654  universiteler[_address] */\n      0xffffffffffffffffffffffffffffffffffffffff\n      and\n      0xffffffffffffffffffffffffffffffffffffffff\n      and\n      dup2\n      mstore\n      0x20\n      add\n      swap1\n      dup2\n      mstore\n      0x20\n      add\n      0x00\n      keccak256\n        /* \"contracts/BaseContract.sol\":3631:3660  universiteler[_address].durum */\n      0x00\n      add\n      0x00\n      swap1\n      sload\n      swap1\n      0x0100\n      exp\n      swap1\n      div\n      0xff\n      and\n        /* \"contracts/BaseContract.sol\":3624:3660  return universiteler[_address].durum */\n      swap1\n      pop\n        /* \"contracts/BaseContract.sol\":3548:3668  function isUniversite(address _address) public view returns(bool){\r... */\n      swap2\n      swap1\n      pop\n      jump\t// out\n    tag_118:\n      dup3\n      dup1\n      sload\n      tag_173\n      swap1\n      tag_121\n      jump\t// in\n    tag_173:\n      swap1\n      0x00\n      mstore\n      keccak256(0x00, 0x20)\n      swap1\n      0x1f\n      add\n      0x20\n      swap1\n      div\n      dup2\n      add\n      swap3\n      dup3\n      tag_175\n      jumpi\n      0x00\n      dup6\n      sstore\n      jump(tag_174)\n    tag_175:\n      dup3\n      0x1f\n      lt\n      tag_176\n      jumpi\n      dup1\n      mload\n      not(0xff)\n      and\n      dup4\n      dup1\n      add\n      or\n      dup6\n      sstore\n      jump(tag_174)\n    tag_176:\n      dup3\n      dup1\n      add\n      0x01\n      add\n      dup6\n      sstore\n      dup3\n      iszero\n      tag_174\n      jumpi\n      swap2\n      dup3\n      add\n    tag_177:\n      dup3\n      dup2\n      gt\n      iszero\n      tag_178\n      jumpi\n      dup3\n      mload\n      dup3\n      sstore\n      swap2\n      0x20\n      add\n      swap2\n      swap1\n      0x01\n      add\n      swap1\n      jump(tag_177)\n    tag_178:\n    tag_174:\n      pop\n      swap1\n      pop\n      tag_179\n      swap2\n      swap1\n      tag_180\n      jump\t// in\n    tag_179:\n      pop\n      swap1\n      jump\t// out\n    tag_180:\n    tag_181:\n      dup1\n      dup3\n      gt\n      iszero\n      tag_182\n      jumpi\n      0x00\n      dup2\n      0x00\n      swap1\n      sstore\n      pop\n      0x01\n      add\n      jump(tag_181)\n    tag_182:\n      pop\n      swap1\n      jump\t// out\n        /* \"#utility.yul\":7:419   */\n    tag_184:\n        /* \"#utility.yul\":85:90   */\n      0x00\n        /* \"#utility.yul\":110:176   */\n      tag_186\n        /* \"#utility.yul\":126:175   */\n      tag_187\n        /* \"#utility.yul\":168:174   */\n      dup5\n        /* \"#utility.yul\":126:175   */\n      tag_188\n      jump\t// in\n    tag_187:\n        /* \"#utility.yul\":110:176   */\n      tag_189\n      jump\t// in\n    tag_186:\n        /* \"#utility.yul\":101:176   */\n      swap1\n      pop\n        /* \"#utility.yul\":199:205   */\n      dup3\n        /* \"#utility.yul\":192:197   */\n      dup2\n        /* \"#utility.yul\":185:206   */\n      mstore\n        /* \"#utility.yul\":237:241   */\n      0x20\n        /* \"#utility.yul\":230:235   */\n      dup2\n        /* \"#utility.yul\":226:242   */\n      add\n        /* \"#utility.yul\":275:278   */\n      dup5\n        /* \"#utility.yul\":266:272   */\n      dup5\n        /* \"#utility.yul\":261:264   */\n      dup5\n        /* \"#utility.yul\":257:273   */\n      add\n        /* \"#utility.yul\":254:279   */\n      gt\n        /* \"#utility.yul\":251:363   */\n      iszero\n      tag_190\n      jumpi\n        /* \"#utility.yul\":282:361   */\n      tag_191\n      tag_192\n      jump\t// in\n    tag_191:\n        /* \"#utility.yul\":251:363   */\n    tag_190:\n        /* \"#utility.yul\":372:413   */\n      tag_193\n        /* \"#utility.yul\":406:412   */\n      dup5\n        /* \"#utility.yul\":401:404   */\n      dup3\n        /* \"#utility.yul\":396:399   */\n      dup6\n        /* \"#utility.yul\":372:413   */\n      tag_194\n      jump\t// in\n    tag_193:\n        /* \"#utility.yul\":91:419   */\n      pop\n        /* \"#utility.yul\":7:419   */\n      swap4\n      swap3\n      pop\n      pop\n      pop\n      jump\t// out\n        /* \"#utility.yul\":425:564   */\n    tag_195:\n        /* \"#utility.yul\":471:476   */\n      0x00\n        /* \"#utility.yul\":509:515   */\n      dup2\n        /* \"#utility.yul\":496:516   */\n      calldataload\n        /* \"#utility.yul\":487:516   */\n      swap1\n      pop\n        /* \"#utility.yul\":525:558   */\n      tag_197\n        /* \"#utility.yul\":552:557   */\n      dup2\n        /* \"#utility.yul\":525:558   */\n      tag_198\n      jump\t// in\n    tag_197:\n        /* \"#utility.yul\":425:564   */\n      swap3\n      swap2\n      pop\n      pop\n      jump\t// out\n        /* \"#utility.yul\":584:924   */\n    tag_199:\n        /* \"#utility.yul\":640:645   */\n      0x00\n        /* \"#utility.yul\":689:692   */\n      dup3\n        /* \"#utility.yul\":682:686   */\n      0x1f\n        /* \"#utility.yul\":674:680   */\n      dup4\n        /* \"#utility.yul\":670:687   */\n      add\n        /* \"#utility.yul\":666:693   */\n      slt\n        /* \"#utility.yul\":656:778   */\n      tag_201\n      jumpi\n        /* \"#utility.yul\":697:776   */\n      tag_202\n      tag_203\n      jump\t// in\n    tag_202:\n        /* \"#utility.yul\":656:778   */\n    tag_201:\n        /* \"#utility.yul\":814:820   */\n      dup2\n        /* \"#utility.yul\":801:821   */\n      calldataload\n        /* \"#utility.yul\":839:918   */\n      tag_204\n        /* \"#utility.yul\":914:917   */\n      dup5\n        /* \"#utility.yul\":906:912   */\n      dup3\n        /* \"#utility.yul\":899:903   */\n      0x20\n        /* \"#utility.yul\":891:897   */\n      dup7\n        /* \"#utility.yul\":887:904   */\n      add\n        /* \"#utility.yul\":839:918   */\n      tag_184\n      jump\t// in\n    tag_204:\n        /* \"#utility.yul\":830:918   */\n      swap2\n      pop\n        /* \"#utility.yul\":646:924   */\n      pop\n        /* \"#utility.yul\":584:924   */\n      swap3\n      swap2\n      pop\n      pop\n      jump\t// out\n        /* \"#utility.yul\":930:1067   */\n    tag_205:\n        /* \"#utility.yul\":975:980   */\n      0x00\n        /* \"#utility.yul\":1013:1019   */\n      dup2\n        /* \"#utility.yul\":1000:1020   */\n      calldataload\n        /* \"#utility.yul\":991:1020   */\n      swap1\n      pop\n        /* \"#utility.yul\":1029:1061   */\n      tag_207\n        /* \"#utility.yul\":1055:1060   */\n      dup2\n        /* \"#utility.yul\":1029:1061   */\n      tag_208\n      jump\t// in\n    tag_207:\n        /* \"#utility.yul\":930:1067   */\n      swap3\n      swap2\n      pop\n      pop\n      jump\t// out\n        /* \"#utility.yul\":1073:1208   */\n    tag_209:\n        /* \"#utility.yul\":1117:1122   */\n      0x00\n        /* \"#utility.yul\":1155:1161   */\n      dup2\n        /* \"#utility.yul\":1142:1162   */\n      calldataload\n        /* \"#utility.yul\":1133:1162   */\n      swap1\n      pop\n        /* \"#utility.yul\":1171:1202   */\n      tag_211\n        /* \"#utility.yul\":1196:1201   */\n      dup2\n        /* \"#utility.yul\":1171:1202   */\n      tag_212\n      jump\t// in\n    tag_211:\n        /* \"#utility.yul\":1073:1208   */\n      swap3\n      swap2\n      pop\n      pop\n      jump\t// out\n        /* \"#utility.yul\":1214:1543   */\n    tag_31:\n        /* \"#utility.yul\":1273:1279   */\n      0x00\n        /* \"#utility.yul\":1322:1324   */\n      0x20\n        /* \"#utility.yul\":1310:1319   */\n      dup3\n        /* \"#utility.yul\":1301:1308   */\n      dup5\n        /* \"#utility.yul\":1297:1320   */\n      sub\n        /* \"#utility.yul\":1293:1325   */\n      slt\n        /* \"#utility.yul\":1290:1409   */\n      iszero\n      tag_214\n      jumpi\n        /* \"#utility.yul\":1328:1407   */\n      tag_215\n      tag_216\n      jump\t// in\n    tag_215:\n        /* \"#utility.yul\":1290:1409   */\n    tag_214:\n        /* \"#utility.yul\":1448:1449   */\n      0x00\n        /* \"#utility.yul\":1473:1526   */\n      tag_217\n        /* \"#utility.yul\":1518:1525   */\n      dup5\n        /* \"#utility.yul\":1509:1515   */\n      dup3\n        /* \"#utility.yul\":1498:1507   */\n      dup6\n        /* \"#utility.yul\":1494:1516   */\n      add\n        /* \"#utility.yul\":1473:1526   */\n      tag_195\n      jump\t// in\n    tag_217:\n        /* \"#utility.yul\":1463:1526   */\n      swap2\n      pop\n        /* \"#utility.yul\":1419:1536   */\n      pop\n        /* \"#utility.yul\":1214:1543   */\n      swap3\n      swap2\n      pop\n      pop\n      jump\t// out\n        /* \"#utility.yul\":1549:2168   */\n    tag_54:\n        /* \"#utility.yul\":1626:1632   */\n      0x00\n        /* \"#utility.yul\":1634:1640   */\n      dup1\n        /* \"#utility.yul\":1642:1648   */\n      0x00\n        /* \"#utility.yul\":1691:1693   */\n      0x60\n        /* \"#utility.yul\":1679:1688   */\n      dup5\n        /* \"#utility.yul\":1670:1677   */\n      dup7\n        /* \"#utility.yul\":1666:1689   */\n      sub\n        /* \"#utility.yul\":1662:1694   */\n      slt\n        /* \"#utility.yul\":1659:1778   */\n      iszero\n      tag_219\n      jumpi\n        /* \"#utility.yul\":1697:1776   */\n      tag_220\n      tag_216\n      jump\t// in\n    tag_220:\n        /* \"#utility.yul\":1659:1778   */\n    tag_219:\n        /* \"#utility.yul\":1817:1818   */\n      0x00\n        /* \"#utility.yul\":1842:1895   */\n      tag_221\n        /* \"#utility.yul\":1887:1894   */\n      dup7\n        /* \"#utility.yul\":1878:1884   */\n      dup3\n        /* \"#utility.yul\":1867:1876   */\n      dup8\n        /* \"#utility.yul\":1863:1885   */\n      add\n        /* \"#utility.yul\":1842:1895   */\n      tag_195\n      jump\t// in\n    tag_221:\n        /* \"#utility.yul\":1832:1895   */\n      swap4\n      pop\n        /* \"#utility.yul\":1788:1905   */\n      pop\n        /* \"#utility.yul\":1944:1946   */\n      0x20\n        /* \"#utility.yul\":1970:2023   */\n      tag_222\n        /* \"#utility.yul\":2015:2022   */\n      dup7\n        /* \"#utility.yul\":2006:2012   */\n      dup3\n        /* \"#utility.yul\":1995:2004   */\n      dup8\n        /* \"#utility.yul\":1991:2013   */\n      add\n        /* \"#utility.yul\":1970:2023   */\n      tag_195\n      jump\t// in\n    tag_222:\n        /* \"#utility.yul\":1960:2023   */\n      swap3\n      pop\n        /* \"#utility.yul\":1915:2033   */\n      pop\n        /* \"#utility.yul\":2072:2074   */\n      0x40\n        /* \"#utility.yul\":2098:2151   */\n      tag_223\n        /* \"#utility.yul\":2143:2150   */\n      dup7\n        /* \"#utility.yul\":2134:2140   */\n      dup3\n        /* \"#utility.yul\":2123:2132   */\n      dup8\n        /* \"#utility.yul\":2119:2141   */\n      add\n        /* \"#utility.yul\":2098:2151   */\n      tag_195\n      jump\t// in\n    tag_223:\n        /* \"#utility.yul\":2088:2151   */\n      swap2\n      pop\n        /* \"#utility.yul\":2043:2161   */\n      pop\n        /* \"#utility.yul\":1549:2168   */\n      swap3\n      pop\n      swap3\n      pop\n      swap3\n      jump\t// out\n        /* \"#utility.yul\":2174:2969   */\n    tag_27:\n        /* \"#utility.yul\":2259:2265   */\n      0x00\n        /* \"#utility.yul\":2267:2273   */\n      dup1\n        /* \"#utility.yul\":2275:2281   */\n      0x00\n        /* \"#utility.yul\":2324:2326   */\n      0x60\n        /* \"#utility.yul\":2312:2321   */\n      dup5\n        /* \"#utility.yul\":2303:2310   */\n      dup7\n        /* \"#utility.yul\":2299:2322   */\n      sub\n        /* \"#utility.yul\":2295:2327   */\n      slt\n        /* \"#utility.yul\":2292:2411   */\n      iszero\n      tag_225\n      jumpi\n        /* \"#utility.yul\":2330:2409   */\n      tag_226\n      tag_216\n      jump\t// in\n    tag_226:\n        /* \"#utility.yul\":2292:2411   */\n    tag_225:\n        /* \"#utility.yul\":2450:2451   */\n      0x00\n        /* \"#utility.yul\":2475:2528   */\n      tag_227\n        /* \"#utility.yul\":2520:2527   */\n      dup7\n        /* \"#utility.yul\":2511:2517   */\n      dup3\n        /* \"#utility.yul\":2500:2509   */\n      dup8\n        /* \"#utility.yul\":2496:2518   */\n      add\n        /* \"#utility.yul\":2475:2528   */\n      tag_195\n      jump\t// in\n    tag_227:\n        /* \"#utility.yul\":2465:2528   */\n      swap4\n      pop\n        /* \"#utility.yul\":2421:2538   */\n      pop\n        /* \"#utility.yul\":2605:2607   */\n      0x20\n        /* \"#utility.yul\":2594:2603   */\n      dup5\n        /* \"#utility.yul\":2590:2608   */\n      add\n        /* \"#utility.yul\":2577:2609   */\n      calldataload\n        /* \"#utility.yul\":2636:2654   */\n      0xffffffffffffffff\n        /* \"#utility.yul\":2628:2634   */\n      dup2\n        /* \"#utility.yul\":2625:2655   */\n      gt\n        /* \"#utility.yul\":2622:2739   */\n      iszero\n      tag_228\n      jumpi\n        /* \"#utility.yul\":2658:2737   */\n      tag_229\n      tag_230\n      jump\t// in\n    tag_229:\n        /* \"#utility.yul\":2622:2739   */\n    tag_228:\n        /* \"#utility.yul\":2763:2826   */\n      tag_231\n        /* \"#utility.yul\":2818:2825   */\n      dup7\n        /* \"#utility.yul\":2809:2815   */\n      dup3\n        /* \"#utility.yul\":2798:2807   */\n      dup8\n        /* \"#utility.yul\":2794:2816   */\n      add\n        /* \"#utility.yul\":2763:2826   */\n      tag_199\n      jump\t// in\n    tag_231:\n        /* \"#utility.yul\":2753:2826   */\n      swap3\n      pop\n        /* \"#utility.yul\":2548:2836   */\n      pop\n        /* \"#utility.yul\":2875:2877   */\n      0x40\n        /* \"#utility.yul\":2901:2952   */\n      tag_232\n        /* \"#utility.yul\":2944:2951   */\n      dup7\n        /* \"#utility.yul\":2935:2941   */\n      dup3\n        /* \"#utility.yul\":2924:2933   */\n      dup8\n        /* \"#utility.yul\":2920:2942   */\n      add\n        /* \"#utility.yul\":2901:2952   */\n      tag_209\n      jump\t// in\n    tag_232:\n        /* \"#utility.yul\":2891:2952   */\n      swap2\n      pop\n        /* \"#utility.yul\":2846:2962   */\n      pop\n        /* \"#utility.yul\":2174:2969   */\n      swap3\n      pop\n      swap3\n      pop\n      swap3\n      jump\t// out\n        /* \"#utility.yul\":2975:3302   */\n    tag_83:\n        /* \"#utility.yul\":3033:3039   */\n      0x00\n        /* \"#utility.yul\":3082:3084   */\n      0x20\n        /* \"#utility.yul\":3070:3079   */\n      dup3\n        /* \"#utility.yul\":3061:3068   */\n      dup5\n        /* \"#utility.yul\":3057:3080   */\n      sub\n        /* \"#utility.yul\":3053:3085   */\n      slt\n        /* \"#utility.yul\":3050:3169   */\n      iszero\n      tag_234\n      jumpi\n        /* \"#utility.yul\":3088:3167   */\n      tag_235\n      tag_216\n      jump\t// in\n    tag_235:\n        /* \"#utility.yul\":3050:3169   */\n    tag_234:\n        /* \"#utility.yul\":3208:3209   */\n      0x00\n        /* \"#utility.yul\":3233:3285   */\n      tag_236\n        /* \"#utility.yul\":3277:3284   */\n      dup5\n        /* \"#utility.yul\":3268:3274   */\n      dup3\n        /* \"#utility.yul\":3257:3266   */\n      dup6\n        /* \"#utility.yul\":3253:3275   */\n      add\n        /* \"#utility.yul\":3233:3285   */\n      tag_205\n      jump\t// in\n    tag_236:\n        /* \"#utility.yul\":3223:3285   */\n      swap2\n      pop\n        /* \"#utility.yul\":3179:3295   */\n      pop\n        /* \"#utility.yul\":2975:3302   */\n      swap3\n      swap2\n      pop\n      pop\n      jump\t// out\n        /* \"#utility.yul\":3308:3426   */\n    tag_237:\n        /* \"#utility.yul\":3395:3419   */\n      tag_239\n        /* \"#utility.yul\":3413:3418   */\n      dup2\n        /* \"#utility.yul\":3395:3419   */\n      tag_240\n      jump\t// in\n    tag_239:\n        /* \"#utility.yul\":3390:3393   */\n      dup3\n        /* \"#utility.yul\":3383:3420   */\n      mstore\n        /* \"#utility.yul\":3308:3426   */\n      pop\n      pop\n      jump\t// out\n        /* \"#utility.yul\":3432:3541   */\n    tag_241:\n        /* \"#utility.yul\":3513:3534   */\n      tag_243\n        /* \"#utility.yul\":3528:3533   */\n      dup2\n        /* \"#utility.yul\":3513:3534   */\n      tag_244\n      jump\t// in\n    tag_243:\n        /* \"#utility.yul\":3508:3511   */\n      dup3\n        /* \"#utility.yul\":3501:3535   */\n      mstore\n        /* \"#utility.yul\":3432:3541   */\n      pop\n      pop\n      jump\t// out\n        /* \"#utility.yul\":3547:3690   */\n    tag_245:\n        /* \"#utility.yul\":3640:3683   */\n      tag_247\n        /* \"#utility.yul\":3677:3682   */\n      dup2\n        /* \"#utility.yul\":3640:3683   */\n      tag_248\n      jump\t// in\n    tag_247:\n        /* \"#utility.yul\":3635:3638   */\n      dup3\n        /* \"#utility.yul\":3628:3684   */\n      mstore\n        /* \"#utility.yul\":3547:3690   */\n      pop\n      pop\n      jump\t// out\n        /* \"#utility.yul\":3696:4060   */\n    tag_249:\n        /* \"#utility.yul\":3784:3787   */\n      0x00\n        /* \"#utility.yul\":3812:3851   */\n      tag_251\n        /* \"#utility.yul\":3845:3850   */\n      dup3\n        /* \"#utility.yul\":3812:3851   */\n      tag_252\n      jump\t// in\n    tag_251:\n        /* \"#utility.yul\":3867:3938   */\n      tag_253\n        /* \"#utility.yul\":3931:3937   */\n      dup2\n        /* \"#utility.yul\":3926:3929   */\n      dup6\n        /* \"#utility.yul\":3867:3938   */\n      tag_254\n      jump\t// in\n    tag_253:\n        /* \"#utility.yul\":3860:3938   */\n      swap4\n      pop\n        /* \"#utility.yul\":3947:3999   */\n      tag_255\n        /* \"#utility.yul\":3992:3998   */\n      dup2\n        /* \"#utility.yul\":3987:3990   */\n      dup6\n        /* \"#utility.yul\":3980:3984   */\n      0x20\n        /* \"#utility.yul\":3973:3978   */\n      dup7\n        /* \"#utility.yul\":3969:3985   */\n      add\n        /* \"#utility.yul\":3947:3999   */\n      tag_256\n      jump\t// in\n    tag_255:\n        /* \"#utility.yul\":4024:4053   */\n      tag_257\n        /* \"#utility.yul\":4046:4052   */\n      dup2\n        /* \"#utility.yul\":4024:4053   */\n      tag_258\n      jump\t// in\n    tag_257:\n        /* \"#utility.yul\":4019:4022   */\n      dup5\n        /* \"#utility.yul\":4015:4054   */\n      add\n        /* \"#utility.yul\":4008:4054   */\n      swap2\n      pop\n        /* \"#utility.yul\":3788:4060   */\n      pop\n        /* \"#utility.yul\":3696:4060   */\n      swap3\n      swap2\n      pop\n      pop\n      jump\t// out\n        /* \"#utility.yul\":4066:4432   */\n    tag_259:\n        /* \"#utility.yul\":4208:4211   */\n      0x00\n        /* \"#utility.yul\":4229:4296   */\n      tag_261\n        /* \"#utility.yul\":4293:4295   */\n      0x1f\n        /* \"#utility.yul\":4288:4291   */\n      dup4\n        /* \"#utility.yul\":4229:4296   */\n      tag_254\n      jump\t// in\n    tag_261:\n        /* \"#utility.yul\":4222:4296   */\n      swap2\n      pop\n        /* \"#utility.yul\":4305:4398   */\n      tag_262\n        /* \"#utility.yul\":4394:4397   */\n      dup3\n        /* \"#utility.yul\":4305:4398   */\n      tag_263\n      jump\t// in\n    tag_262:\n        /* \"#utility.yul\":4423:4425   */\n      0x20\n        /* \"#utility.yul\":4418:4421   */\n      dup3\n        /* \"#utility.yul\":4414:4426   */\n      add\n        /* \"#utility.yul\":4407:4426   */\n      swap1\n      pop\n        /* \"#utility.yul\":4066:4432   */\n      swap2\n      swap1\n      pop\n      jump\t// out\n        /* \"#utility.yul\":4438:4804   */\n    tag_264:\n        /* \"#utility.yul\":4580:4583   */\n      0x00\n        /* \"#utility.yul\":4601:4668   */\n      tag_266\n        /* \"#utility.yul\":4665:4667   */\n      0x17\n        /* \"#utility.yul\":4660:4663   */\n      dup4\n        /* \"#utility.yul\":4601:4668   */\n      tag_254\n      jump\t// in\n    tag_266:\n        /* \"#utility.yul\":4594:4668   */\n      swap2\n      pop\n        /* \"#utility.yul\":4677:4770   */\n      tag_267\n        /* \"#utility.yul\":4766:4769   */\n      dup3\n        /* \"#utility.yul\":4677:4770   */\n      tag_268\n      jump\t// in\n    tag_267:\n        /* \"#utility.yul\":4795:4797   */\n      0x20\n        /* \"#utility.yul\":4790:4793   */\n      dup3\n        /* \"#utility.yul\":4786:4798   */\n      add\n        /* \"#utility.yul\":4779:4798   */\n      swap1\n      pop\n        /* \"#utility.yul\":4438:4804   */\n      swap2\n      swap1\n      pop\n      jump\t// out\n        /* \"#utility.yul\":4810:4925   */\n    tag_269:\n        /* \"#utility.yul\":4895:4918   */\n      tag_271\n        /* \"#utility.yul\":4912:4917   */\n      dup2\n        /* \"#utility.yul\":4895:4918   */\n      tag_272\n      jump\t// in\n    tag_271:\n        /* \"#utility.yul\":4890:4893   */\n      dup3\n        /* \"#utility.yul\":4883:4919   */\n      mstore\n        /* \"#utility.yul\":4810:4925   */\n      pop\n      pop\n      jump\t// out\n        /* \"#utility.yul\":4931:5049   */\n    tag_273:\n        /* \"#utility.yul\":5018:5042   */\n      tag_275\n        /* \"#utility.yul\":5036:5041   */\n      dup2\n        /* \"#utility.yul\":5018:5042   */\n      tag_276\n      jump\t// in\n    tag_275:\n        /* \"#utility.yul\":5013:5016   */\n      dup3\n        /* \"#utility.yul\":5006:5043   */\n      mstore\n        /* \"#utility.yul\":4931:5049   */\n      pop\n      pop\n      jump\t// out\n        /* \"#utility.yul\":5055:5170   */\n    tag_277:\n        /* \"#utility.yul\":5140:5163   */\n      tag_279\n        /* \"#utility.yul\":5157:5162   */\n      dup2\n        /* \"#utility.yul\":5140:5163   */\n      tag_280\n      jump\t// in\n    tag_279:\n        /* \"#utility.yul\":5135:5138   */\n      dup3\n        /* \"#utility.yul\":5128:5164   */\n      mstore\n        /* \"#utility.yul\":5055:5170   */\n      pop\n      pop\n      jump\t// out\n        /* \"#utility.yul\":5176:5288   */\n    tag_281:\n        /* \"#utility.yul\":5259:5281   */\n      tag_283\n        /* \"#utility.yul\":5275:5280   */\n      dup2\n        /* \"#utility.yul\":5259:5281   */\n      tag_284\n      jump\t// in\n    tag_283:\n        /* \"#utility.yul\":5254:5257   */\n      dup3\n        /* \"#utility.yul\":5247:5282   */\n      mstore\n        /* \"#utility.yul\":5176:5288   */\n      pop\n      pop\n      jump\t// out\n        /* \"#utility.yul\":5294:5516   */\n    tag_68:\n        /* \"#utility.yul\":5387:5391   */\n      0x00\n        /* \"#utility.yul\":5425:5427   */\n      0x20\n        /* \"#utility.yul\":5414:5423   */\n      dup3\n        /* \"#utility.yul\":5410:5428   */\n      add\n        /* \"#utility.yul\":5402:5428   */\n      swap1\n      pop\n        /* \"#utility.yul\":5438:5509   */\n      tag_286\n        /* \"#utility.yul\":5506:5507   */\n      0x00\n        /* \"#utility.yul\":5495:5504   */\n      dup4\n        /* \"#utility.yul\":5491:5508   */\n      add\n        /* \"#utility.yul\":5482:5488   */\n      dup5\n        /* \"#utility.yul\":5438:5509   */\n      tag_237\n      jump\t// in\n    tag_286:\n        /* \"#utility.yul\":5294:5516   */\n      swap3\n      swap2\n      pop\n      pop\n      jump\t// out\n        /* \"#utility.yul\":5522:5732   */\n    tag_34:\n        /* \"#utility.yul\":5609:5613   */\n      0x00\n        /* \"#utility.yul\":5647:5649   */\n      0x20\n        /* \"#utility.yul\":5636:5645   */\n      dup3\n        /* \"#utility.yul\":5632:5650   */\n      add\n        /* \"#utility.yul\":5624:5650   */\n      swap1\n      pop\n        /* \"#utility.yul\":5660:5725   */\n      tag_288\n        /* \"#utility.yul\":5722:5723   */\n      0x00\n        /* \"#utility.yul\":5711:5720   */\n      dup4\n        /* \"#utility.yul\":5707:5724   */\n      add\n        /* \"#utility.yul\":5698:5704   */\n      dup5\n        /* \"#utility.yul\":5660:5725   */\n      tag_241\n      jump\t// in\n    tag_288:\n        /* \"#utility.yul\":5522:5732   */\n      swap3\n      swap2\n      pop\n      pop\n      jump\t// out\n        /* \"#utility.yul\":5738:6691   */\n    tag_95:\n        /* \"#utility.yul\":6009:6013   */\n      0x00\n        /* \"#utility.yul\":6047:6050   */\n      0xc0\n        /* \"#utility.yul\":6036:6045   */\n      dup3\n        /* \"#utility.yul\":6032:6051   */\n      add\n        /* \"#utility.yul\":6024:6051   */\n      swap1\n      pop\n        /* \"#utility.yul\":6061:6126   */\n      tag_290\n        /* \"#utility.yul\":6123:6124   */\n      0x00\n        /* \"#utility.yul\":6112:6121   */\n      dup4\n        /* \"#utility.yul\":6108:6125   */\n      add\n        /* \"#utility.yul\":6099:6105   */\n      dup10\n        /* \"#utility.yul\":6061:6126   */\n      tag_241\n      jump\t// in\n    tag_290:\n        /* \"#utility.yul\":6136:6208   */\n      tag_291\n        /* \"#utility.yul\":6204:6206   */\n      0x20\n        /* \"#utility.yul\":6193:6202   */\n      dup4\n        /* \"#utility.yul\":6189:6207   */\n      add\n        /* \"#utility.yul\":6180:6186   */\n      dup9\n        /* \"#utility.yul\":6136:6208   */\n      tag_237\n      jump\t// in\n    tag_291:\n        /* \"#utility.yul\":6218:6288   */\n      tag_292\n        /* \"#utility.yul\":6284:6286   */\n      0x40\n        /* \"#utility.yul\":6273:6282   */\n      dup4\n        /* \"#utility.yul\":6269:6287   */\n      add\n        /* \"#utility.yul\":6260:6266   */\n      dup8\n        /* \"#utility.yul\":6218:6288   */\n      tag_269\n      jump\t// in\n    tag_292:\n        /* \"#utility.yul\":6298:6376   */\n      tag_293\n        /* \"#utility.yul\":6372:6374   */\n      0x60\n        /* \"#utility.yul\":6361:6370   */\n      dup4\n        /* \"#utility.yul\":6357:6375   */\n      add\n        /* \"#utility.yul\":6348:6354   */\n      dup7\n        /* \"#utility.yul\":6298:6376   */\n      tag_245\n      jump\t// in\n    tag_293:\n        /* \"#utility.yul\":6424:6433   */\n      dup2\n        /* \"#utility.yul\":6418:6422   */\n      dup2\n        /* \"#utility.yul\":6414:6434   */\n      sub\n        /* \"#utility.yul\":6408:6411   */\n      0x80\n        /* \"#utility.yul\":6397:6406   */\n      dup4\n        /* \"#utility.yul\":6393:6412   */\n      add\n        /* \"#utility.yul\":6386:6435   */\n      mstore\n        /* \"#utility.yul\":6452:6530   */\n      tag_294\n        /* \"#utility.yul\":6525:6529   */\n      dup2\n        /* \"#utility.yul\":6516:6522   */\n      dup6\n        /* \"#utility.yul\":6452:6530   */\n      tag_249\n      jump\t// in\n    tag_294:\n        /* \"#utility.yul\":6444:6530   */\n      swap1\n      pop\n        /* \"#utility.yul\":6578:6587   */\n      dup2\n        /* \"#utility.yul\":6572:6576   */\n      dup2\n        /* \"#utility.yul\":6568:6588   */\n      sub\n        /* \"#utility.yul\":6562:6565   */\n      0xa0\n        /* \"#utility.yul\":6551:6560   */\n      dup4\n        /* \"#utility.yul\":6547:6566   */\n      add\n        /* \"#utility.yul\":6540:6589   */\n      mstore\n        /* \"#utility.yul\":6606:6684   */\n      tag_295\n        /* \"#utility.yul\":6679:6683   */\n      dup2\n        /* \"#utility.yul\":6670:6676   */\n      dup5\n        /* \"#utility.yul\":6606:6684   */\n      tag_249\n      jump\t// in\n    tag_295:\n        /* \"#utility.yul\":6598:6684   */\n      swap1\n      pop\n        /* \"#utility.yul\":5738:6691   */\n      swap8\n      swap7\n      pop\n      pop\n      pop\n      pop\n      pop\n      pop\n      pop\n      jump\t// out\n        /* \"#utility.yul\":6697:7210   */\n    tag_39:\n        /* \"#utility.yul\":6856:6860   */\n      0x00\n        /* \"#utility.yul\":6894:6896   */\n      0x60\n        /* \"#utility.yul\":6883:6892   */\n      dup3\n        /* \"#utility.yul\":6879:6897   */\n      add\n        /* \"#utility.yul\":6871:6897   */\n      swap1\n      pop\n        /* \"#utility.yul\":6907:6972   */\n      tag_297\n        /* \"#utility.yul\":6969:6970   */\n      0x00\n        /* \"#utility.yul\":6958:6967   */\n      dup4\n        /* \"#utility.yul\":6954:6971   */\n      add\n        /* \"#utility.yul\":6945:6951   */\n      dup7\n        /* \"#utility.yul\":6907:6972   */\n      tag_241\n      jump\t// in\n    tag_297:\n        /* \"#utility.yul\":7019:7028   */\n      dup2\n        /* \"#utility.yul\":7013:7017   */\n      dup2\n        /* \"#utility.yul\":7009:7029   */\n      sub\n        /* \"#utility.yul\":7004:7006   */\n      0x20\n        /* \"#utility.yul\":6993:7002   */\n      dup4\n        /* \"#utility.yul\":6989:7007   */\n      add\n        /* \"#utility.yul\":6982:7030   */\n      mstore\n        /* \"#utility.yul\":7047:7125   */\n      tag_298\n        /* \"#utility.yul\":7120:7124   */\n      dup2\n        /* \"#utility.yul\":7111:7117   */\n      dup6\n        /* \"#utility.yul\":7047:7125   */\n      tag_249\n      jump\t// in\n    tag_298:\n        /* \"#utility.yul\":7039:7125   */\n      swap1\n      pop\n        /* \"#utility.yul\":7135:7203   */\n      tag_299\n        /* \"#utility.yul\":7199:7201   */\n      0x40\n        /* \"#utility.yul\":7188:7197   */\n      dup4\n        /* \"#utility.yul\":7184:7202   */\n      add\n        /* \"#utility.yul\":7175:7181   */\n      dup5\n        /* \"#utility.yul\":7135:7203   */\n      tag_281\n      jump\t// in\n    tag_299:\n        /* \"#utility.yul\":6697:7210   */\n      swap5\n      swap4\n      pop\n      pop\n      pop\n      pop\n      jump\t// out\n        /* \"#utility.yul\":7216:7840   */\n    tag_60:\n        /* \"#utility.yul\":7403:7407   */\n      0x00\n        /* \"#utility.yul\":7441:7444   */\n      0x80\n        /* \"#utility.yul\":7430:7439   */\n      dup3\n        /* \"#utility.yul\":7426:7445   */\n      add\n        /* \"#utility.yul\":7418:7445   */\n      swap1\n      pop\n        /* \"#utility.yul\":7455:7520   */\n      tag_301\n        /* \"#utility.yul\":7517:7518   */\n      0x00\n        /* \"#utility.yul\":7506:7515   */\n      dup4\n        /* \"#utility.yul\":7502:7519   */\n      add\n        /* \"#utility.yul\":7493:7499   */\n      dup8\n        /* \"#utility.yul\":7455:7520   */\n      tag_241\n      jump\t// in\n    tag_301:\n        /* \"#utility.yul\":7530:7598   */\n      tag_302\n        /* \"#utility.yul\":7594:7596   */\n      0x20\n        /* \"#utility.yul\":7583:7592   */\n      dup4\n        /* \"#utility.yul\":7579:7597   */\n      add\n        /* \"#utility.yul\":7570:7576   */\n      dup7\n        /* \"#utility.yul\":7530:7598   */\n      tag_281\n      jump\t// in\n    tag_302:\n        /* \"#utility.yul\":7608:7680   */\n      tag_303\n        /* \"#utility.yul\":7676:7678   */\n      0x40\n        /* \"#utility.yul\":7665:7674   */\n      dup4\n        /* \"#utility.yul\":7661:7679   */\n      add\n        /* \"#utility.yul\":7652:7658   */\n      dup6\n        /* \"#utility.yul\":7608:7680   */\n      tag_273\n      jump\t// in\n    tag_303:\n        /* \"#utility.yul\":7727:7736   */\n      dup2\n        /* \"#utility.yul\":7721:7725   */\n      dup2\n        /* \"#utility.yul\":7717:7737   */\n      sub\n        /* \"#utility.yul\":7712:7714   */\n      0x60\n        /* \"#utility.yul\":7701:7710   */\n      dup4\n        /* \"#utility.yul\":7697:7715   */\n      add\n        /* \"#utility.yul\":7690:7738   */\n      mstore\n        /* \"#utility.yul\":7755:7833   */\n      tag_304\n        /* \"#utility.yul\":7828:7832   */\n      dup2\n        /* \"#utility.yul\":7819:7825   */\n      dup5\n        /* \"#utility.yul\":7755:7833   */\n      tag_249\n      jump\t// in\n    tag_304:\n        /* \"#utility.yul\":7747:7833   */\n      swap1\n      pop\n        /* \"#utility.yul\":7216:7840   */\n      swap6\n      swap5\n      pop\n      pop\n      pop\n      pop\n      pop\n      jump\t// out\n        /* \"#utility.yul\":7846:8265   */\n    tag_111:\n        /* \"#utility.yul\":8012:8016   */\n      0x00\n        /* \"#utility.yul\":8050:8052   */\n      0x20\n        /* \"#utility.yul\":8039:8048   */\n      dup3\n        /* \"#utility.yul\":8035:8053   */\n      add\n        /* \"#utility.yul\":8027:8053   */\n      swap1\n      pop\n        /* \"#utility.yul\":8099:8108   */\n      dup2\n        /* \"#utility.yul\":8093:8097   */\n      dup2\n        /* \"#utility.yul\":8089:8109   */\n      sub\n        /* \"#utility.yul\":8085:8086   */\n      0x00\n        /* \"#utility.yul\":8074:8083   */\n      dup4\n        /* \"#utility.yul\":8070:8087   */\n      add\n        /* \"#utility.yul\":8063:8110   */\n      mstore\n        /* \"#utility.yul\":8127:8258   */\n      tag_306\n        /* \"#utility.yul\":8253:8257   */\n      dup2\n        /* \"#utility.yul\":8127:8258   */\n      tag_259\n      jump\t// in\n    tag_306:\n        /* \"#utility.yul\":8119:8258   */\n      swap1\n      pop\n        /* \"#utility.yul\":7846:8265   */\n      swap2\n      swap1\n      pop\n      jump\t// out\n        /* \"#utility.yul\":8271:8690   */\n    tag_116:\n        /* \"#utility.yul\":8437:8441   */\n      0x00\n        /* \"#utility.yul\":8475:8477   */\n      0x20\n        /* \"#utility.yul\":8464:8473   */\n      dup3\n        /* \"#utility.yul\":8460:8478   */\n      add\n        /* \"#utility.yul\":8452:8478   */\n      swap1\n      pop\n        /* \"#utility.yul\":8524:8533   */\n      dup2\n        /* \"#utility.yul\":8518:8522   */\n      dup2\n        /* \"#utility.yul\":8514:8534   */\n      sub\n        /* \"#utility.yul\":8510:8511   */\n      0x00\n        /* \"#utility.yul\":8499:8508   */\n      dup4\n        /* \"#utility.yul\":8495:8512   */\n      add\n        /* \"#utility.yul\":8488:8535   */\n      mstore\n        /* \"#utility.yul\":8552:8683   */\n      tag_308\n        /* \"#utility.yul\":8678:8682   */\n      dup2\n        /* \"#utility.yul\":8552:8683   */\n      tag_264\n      jump\t// in\n    tag_308:\n        /* \"#utility.yul\":8544:8683   */\n      swap1\n      pop\n        /* \"#utility.yul\":8271:8690   */\n      swap2\n      swap1\n      pop\n      jump\t// out\n        /* \"#utility.yul\":8696:9115   */\n    tag_86:\n        /* \"#utility.yul\":8835:8839   */\n      0x00\n        /* \"#utility.yul\":8873:8875   */\n      0x40\n        /* \"#utility.yul\":8862:8871   */\n      dup3\n        /* \"#utility.yul\":8858:8876   */\n      add\n        /* \"#utility.yul\":8850:8876   */\n      swap1\n      pop\n        /* \"#utility.yul\":8886:8955   */\n      tag_310\n        /* \"#utility.yul\":8952:8953   */\n      0x00\n        /* \"#utility.yul\":8941:8950   */\n      dup4\n        /* \"#utility.yul\":8937:8954   */\n      add\n        /* \"#utility.yul\":8928:8934   */\n      dup6\n        /* \"#utility.yul\":8886:8955   */\n      tag_277\n      jump\t// in\n    tag_310:\n        /* \"#utility.yul\":9002:9011   */\n      dup2\n        /* \"#utility.yul\":8996:9000   */\n      dup2\n        /* \"#utility.yul\":8992:9012   */\n      sub\n        /* \"#utility.yul\":8987:8989   */\n      0x20\n        /* \"#utility.yul\":8976:8985   */\n      dup4\n        /* \"#utility.yul\":8972:8990   */\n      add\n        /* \"#utility.yul\":8965:9013   */\n      mstore\n        /* \"#utility.yul\":9030:9108   */\n      tag_311\n        /* \"#utility.yul\":9103:9107   */\n      dup2\n        /* \"#utility.yul\":9094:9100   */\n      dup5\n        /* \"#utility.yul\":9030:9108   */\n      tag_249\n      jump\t// in\n    tag_311:\n        /* \"#utility.yul\":9022:9108   */\n      swap1\n      pop\n        /* \"#utility.yul\":8696:9115   */\n      swap4\n      swap3\n      pop\n      pop\n      pop\n      jump\t// out\n        /* \"#utility.yul\":9121:9250   */\n    tag_189:\n        /* \"#utility.yul\":9155:9161   */\n      0x00\n        /* \"#utility.yul\":9182:9202   */\n      tag_313\n      tag_314\n      jump\t// in\n    tag_313:\n        /* \"#utility.yul\":9172:9202   */\n      swap1\n      pop\n        /* \"#utility.yul\":9211:9244   */\n      tag_315\n        /* \"#utility.yul\":9239:9243   */\n      dup3\n        /* \"#utility.yul\":9231:9237   */\n      dup3\n        /* \"#utility.yul\":9211:9244   */\n      tag_316\n      jump\t// in\n    tag_315:\n        /* \"#utility.yul\":9121:9250   */\n      swap2\n      swap1\n      pop\n      jump\t// out\n        /* \"#utility.yul\":9256:9331   */\n    tag_314:\n        /* \"#utility.yul\":9289:9295   */\n      0x00\n        /* \"#utility.yul\":9322:9324   */\n      0x40\n        /* \"#utility.yul\":9316:9325   */\n      mload\n        /* \"#utility.yul\":9306:9325   */\n      swap1\n      pop\n        /* \"#utility.yul\":9256:9331   */\n      swap1\n      jump\t// out\n        /* \"#utility.yul\":9337:9645   */\n    tag_188:\n        /* \"#utility.yul\":9399:9403   */\n      0x00\n        /* \"#utility.yul\":9489:9507   */\n      0xffffffffffffffff\n        /* \"#utility.yul\":9481:9487   */\n      dup3\n        /* \"#utility.yul\":9478:9508   */\n      gt\n        /* \"#utility.yul\":9475:9531   */\n      iszero\n      tag_319\n      jumpi\n        /* \"#utility.yul\":9511:9529   */\n      tag_320\n      tag_321\n      jump\t// in\n    tag_320:\n        /* \"#utility.yul\":9475:9531   */\n    tag_319:\n        /* \"#utility.yul\":9549:9578   */\n      tag_322\n        /* \"#utility.yul\":9571:9577   */\n      dup3\n        /* \"#utility.yul\":9549:9578   */\n      tag_258\n      jump\t// in\n    tag_322:\n        /* \"#utility.yul\":9541:9578   */\n      swap1\n      pop\n        /* \"#utility.yul\":9633:9637   */\n      0x20\n        /* \"#utility.yul\":9627:9631   */\n      dup2\n        /* \"#utility.yul\":9623:9638   */\n      add\n        /* \"#utility.yul\":9615:9638   */\n      swap1\n      pop\n        /* \"#utility.yul\":9337:9645   */\n      swap2\n      swap1\n      pop\n      jump\t// out\n        /* \"#utility.yul\":9651:9750   */\n    tag_252:\n        /* \"#utility.yul\":9703:9709   */\n      0x00\n        /* \"#utility.yul\":9737:9742   */\n      dup2\n        /* \"#utility.yul\":9731:9743   */\n      mload\n        /* \"#utility.yul\":9721:9743   */\n      swap1\n      pop\n        /* \"#utility.yul\":9651:9750   */\n      swap2\n      swap1\n      pop\n      jump\t// out\n        /* \"#utility.yul\":9756:9925   */\n    tag_254:\n        /* \"#utility.yul\":9840:9851   */\n      0x00\n        /* \"#utility.yul\":9874:9880   */\n      dup3\n        /* \"#utility.yul\":9869:9872   */\n      dup3\n        /* \"#utility.yul\":9862:9881   */\n      mstore\n        /* \"#utility.yul\":9914:9918   */\n      0x20\n        /* \"#utility.yul\":9909:9912   */\n      dup3\n        /* \"#utility.yul\":9905:9919   */\n      add\n        /* \"#utility.yul\":9890:9919   */\n      swap1\n      pop\n        /* \"#utility.yul\":9756:9925   */\n      swap3\n      swap2\n      pop\n      pop\n      jump\t// out\n        /* \"#utility.yul\":9931:10027   */\n    tag_240:\n        /* \"#utility.yul\":9968:9975   */\n      0x00\n        /* \"#utility.yul\":9997:10021   */\n      tag_326\n        /* \"#utility.yul\":10015:10020   */\n      dup3\n        /* \"#utility.yul\":9997:10021   */\n      tag_327\n      jump\t// in\n    tag_326:\n        /* \"#utility.yul\":9986:10021   */\n      swap1\n      pop\n        /* \"#utility.yul\":9931:10027   */\n      swap2\n      swap1\n      pop\n      jump\t// out\n        /* \"#utility.yul\":10033:10123   */\n    tag_244:\n        /* \"#utility.yul\":10067:10074   */\n      0x00\n        /* \"#utility.yul\":10110:10115   */\n      dup2\n        /* \"#utility.yul\":10103:10116   */\n      iszero\n        /* \"#utility.yul\":10096:10117   */\n      iszero\n        /* \"#utility.yul\":10085:10117   */\n      swap1\n      pop\n        /* \"#utility.yul\":10033:10123   */\n      swap2\n      swap1\n      pop\n      jump\t// out\n        /* \"#utility.yul\":10129:10256   */\n    tag_329:\n        /* \"#utility.yul\":10174:10181   */\n      0x00\n        /* \"#utility.yul\":10203:10208   */\n      dup2\n        /* \"#utility.yul\":10192:10208   */\n      swap1\n      pop\n        /* \"#utility.yul\":10209:10250   */\n      tag_331\n        /* \"#utility.yul\":10244:10249   */\n      dup3\n        /* \"#utility.yul\":10209:10250   */\n      tag_332\n      jump\t// in\n    tag_331:\n        /* \"#utility.yul\":10129:10256   */\n      swap2\n      swap1\n      pop\n      jump\t// out\n        /* \"#utility.yul\":10262:10351   */\n    tag_272:\n        /* \"#utility.yul\":10298:10305   */\n      0x00\n        /* \"#utility.yul\":10338:10344   */\n      0xffff\n        /* \"#utility.yul\":10331:10336   */\n      dup3\n        /* \"#utility.yul\":10327:10345   */\n      and\n        /* \"#utility.yul\":10316:10345   */\n      swap1\n      pop\n        /* \"#utility.yul\":10262:10351   */\n      swap2\n      swap1\n      pop\n      jump\t// out\n        /* \"#utility.yul\":10357:10483   */\n    tag_327:\n        /* \"#utility.yul\":10394:10401   */\n      0x00\n        /* \"#utility.yul\":10434:10476   */\n      0xffffffffffffffffffffffffffffffffffffffff\n        /* \"#utility.yul\":10427:10432   */\n      dup3\n        /* \"#utility.yul\":10423:10477   */\n      and\n        /* \"#utility.yul\":10412:10477   */\n      swap1\n      pop\n        /* \"#utility.yul\":10357:10483   */\n      swap2\n      swap1\n      pop\n      jump\t// out\n        /* \"#utility.yul\":10489:10566   */\n    tag_276:\n        /* \"#utility.yul\":10526:10533   */\n      0x00\n        /* \"#utility.yul\":10555:10560   */\n      dup2\n        /* \"#utility.yul\":10544:10560   */\n      swap1\n      pop\n        /* \"#utility.yul\":10489:10566   */\n      swap2\n      swap1\n      pop\n      jump\t// out\n        /* \"#utility.yul\":10572:10665   */\n    tag_280:\n        /* \"#utility.yul\":10608:10615   */\n      0x00\n        /* \"#utility.yul\":10648:10658   */\n      0xffffffff\n        /* \"#utility.yul\":10641:10646   */\n      dup3\n        /* \"#utility.yul\":10637:10659   */\n      and\n        /* \"#utility.yul\":10626:10659   */\n      swap1\n      pop\n        /* \"#utility.yul\":10572:10665   */\n      swap2\n      swap1\n      pop\n      jump\t// out\n        /* \"#utility.yul\":10671:10757   */\n    tag_284:\n        /* \"#utility.yul\":10706:10713   */\n      0x00\n        /* \"#utility.yul\":10746:10750   */\n      0xff\n        /* \"#utility.yul\":10739:10744   */\n      dup3\n        /* \"#utility.yul\":10735:10751   */\n      and\n        /* \"#utility.yul\":10724:10751   */\n      swap1\n      pop\n        /* \"#utility.yul\":10671:10757   */\n      swap2\n      swap1\n      pop\n      jump\t// out\n        /* \"#utility.yul\":10763:10890   */\n    tag_248:\n        /* \"#utility.yul\":10819:10828   */\n      0x00\n        /* \"#utility.yul\":10852:10884   */\n      tag_339\n        /* \"#utility.yul\":10878:10883   */\n      dup3\n        /* \"#utility.yul\":10852:10884   */\n      tag_329\n      jump\t// in\n    tag_339:\n        /* \"#utility.yul\":10839:10884   */\n      swap1\n      pop\n        /* \"#utility.yul\":10763:10890   */\n      swap2\n      swap1\n      pop\n      jump\t// out\n        /* \"#utility.yul\":10896:11050   */\n    tag_194:\n        /* \"#utility.yul\":10980:10986   */\n      dup3\n        /* \"#utility.yul\":10975:10978   */\n      dup2\n        /* \"#utility.yul\":10970:10973   */\n      dup4\n        /* \"#utility.yul\":10957:10987   */\n      calldatacopy\n        /* \"#utility.yul\":11042:11043   */\n      0x00\n        /* \"#utility.yul\":11033:11039   */\n      dup4\n        /* \"#utility.yul\":11028:11031   */\n      dup4\n        /* \"#utility.yul\":11024:11040   */\n      add\n        /* \"#utility.yul\":11017:11044   */\n      mstore\n        /* \"#utility.yul\":10896:11050   */\n      pop\n      pop\n      pop\n      jump\t// out\n        /* \"#utility.yul\":11056:11363   */\n    tag_256:\n        /* \"#utility.yul\":11124:11125   */\n      0x00\n        /* \"#utility.yul\":11134:11247   */\n    tag_342:\n        /* \"#utility.yul\":11148:11154   */\n      dup4\n        /* \"#utility.yul\":11145:11146   */\n      dup2\n        /* \"#utility.yul\":11142:11155   */\n      lt\n        /* \"#utility.yul\":11134:11247   */\n      iszero\n      tag_344\n      jumpi\n        /* \"#utility.yul\":11233:11234   */\n      dup1\n        /* \"#utility.yul\":11228:11231   */\n      dup3\n        /* \"#utility.yul\":11224:11235   */\n      add\n        /* \"#utility.yul\":11218:11236   */\n      mload\n        /* \"#utility.yul\":11214:11215   */\n      dup2\n        /* \"#utility.yul\":11209:11212   */\n      dup5\n        /* \"#utility.yul\":11205:11216   */\n      add\n        /* \"#utility.yul\":11198:11237   */\n      mstore\n        /* \"#utility.yul\":11170:11172   */\n      0x20\n        /* \"#utility.yul\":11167:11168   */\n      dup2\n        /* \"#utility.yul\":11163:11173   */\n      add\n        /* \"#utility.yul\":11158:11173   */\n      swap1\n      pop\n        /* \"#utility.yul\":11134:11247   */\n      jump(tag_342)\n    tag_344:\n        /* \"#utility.yul\":11265:11271   */\n      dup4\n        /* \"#utility.yul\":11262:11263   */\n      dup2\n        /* \"#utility.yul\":11259:11272   */\n      gt\n        /* \"#utility.yul\":11256:11357   */\n      iszero\n      tag_345\n      jumpi\n        /* \"#utility.yul\":11345:11346   */\n      0x00\n        /* \"#utility.yul\":11336:11342   */\n      dup5\n        /* \"#utility.yul\":11331:11334   */\n      dup5\n        /* \"#utility.yul\":11327:11343   */\n      add\n        /* \"#utility.yul\":11320:11347   */\n      mstore\n        /* \"#utility.yul\":11256:11357   */\n    tag_345:\n        /* \"#utility.yul\":11105:11363   */\n      pop\n        /* \"#utility.yul\":11056:11363   */\n      pop\n      pop\n      pop\n      jump\t// out\n        /* \"#utility.yul\":11369:11689   */\n    tag_121:\n        /* \"#utility.yul\":11413:11419   */\n      0x00\n        /* \"#utility.yul\":11450:11451   */\n      0x02\n        /* \"#utility.yul\":11444:11448   */\n      dup3\n        /* \"#utility.yul\":11440:11452   */\n      div\n        /* \"#utility.yul\":11430:11452   */\n      swap1\n      pop\n        /* \"#utility.yul\":11497:11498   */\n      0x01\n        /* \"#utility.yul\":11491:11495   */\n      dup3\n        /* \"#utility.yul\":11487:11499   */\n      and\n        /* \"#utility.yul\":11518:11536   */\n      dup1\n        /* \"#utility.yul\":11508:11589   */\n      tag_347\n      jumpi\n        /* \"#utility.yul\":11574:11578   */\n      0x7f\n        /* \"#utility.yul\":11566:11572   */\n      dup3\n        /* \"#utility.yul\":11562:11579   */\n      and\n        /* \"#utility.yul\":11552:11579   */\n      swap2\n      pop\n        /* \"#utility.yul\":11508:11589   */\n    tag_347:\n        /* \"#utility.yul\":11636:11638   */\n      0x20\n        /* \"#utility.yul\":11628:11634   */\n      dup3\n        /* \"#utility.yul\":11625:11639   */\n      lt\n        /* \"#utility.yul\":11605:11623   */\n      dup2\n        /* \"#utility.yul\":11602:11640   */\n      eq\n        /* \"#utility.yul\":11599:11683   */\n      iszero\n      tag_348\n      jumpi\n        /* \"#utility.yul\":11655:11673   */\n      tag_349\n      tag_350\n      jump\t// in\n    tag_349:\n        /* \"#utility.yul\":11599:11683   */\n    tag_348:\n        /* \"#utility.yul\":11420:11689   */\n      pop\n        /* \"#utility.yul\":11369:11689   */\n      swap2\n      swap1\n      pop\n      jump\t// out\n        /* \"#utility.yul\":11695:11976   */\n    tag_316:\n        /* \"#utility.yul\":11778:11805   */\n      tag_352\n        /* \"#utility.yul\":11800:11804   */\n      dup3\n        /* \"#utility.yul\":11778:11805   */\n      tag_258\n      jump\t// in\n    tag_352:\n        /* \"#utility.yul\":11770:11776   */\n      dup2\n        /* \"#utility.yul\":11766:11806   */\n      add\n        /* \"#utility.yul\":11908:11914   */\n      dup2\n        /* \"#utility.yul\":11896:11906   */\n      dup2\n        /* \"#utility.yul\":11893:11915   */\n      lt\n        /* \"#utility.yul\":11872:11890   */\n      0xffffffffffffffff\n        /* \"#utility.yul\":11860:11870   */\n      dup3\n        /* \"#utility.yul\":11857:11891   */\n      gt\n        /* \"#utility.yul\":11854:11916   */\n      or\n        /* \"#utility.yul\":11851:11939   */\n      iszero\n      tag_353\n      jumpi\n        /* \"#utility.yul\":11919:11937   */\n      tag_354\n      tag_321\n      jump\t// in\n    tag_354:\n        /* \"#utility.yul\":11851:11939   */\n    tag_353:\n        /* \"#utility.yul\":11959:11969   */\n      dup1\n        /* \"#utility.yul\":11955:11957   */\n      0x40\n        /* \"#utility.yul\":11948:11970   */\n      mstore\n        /* \"#utility.yul\":11738:11976   */\n      pop\n        /* \"#utility.yul\":11695:11976   */\n      pop\n      pop\n      jump\t// out\n        /* \"#utility.yul\":11982:12162   */\n    tag_355:\n        /* \"#utility.yul\":12030:12107   */\n      0x4e487b7100000000000000000000000000000000000000000000000000000000\n        /* \"#utility.yul\":12027:12028   */\n      0x00\n        /* \"#utility.yul\":12020:12108   */\n      mstore\n        /* \"#utility.yul\":12127:12131   */\n      0x21\n        /* \"#utility.yul\":12124:12125   */\n      0x04\n        /* \"#utility.yul\":12117:12132   */\n      mstore\n        /* \"#utility.yul\":12151:12155   */\n      0x24\n        /* \"#utility.yul\":12148:12149   */\n      0x00\n        /* \"#utility.yul\":12141:12156   */\n      revert\n        /* \"#utility.yul\":12168:12348   */\n    tag_350:\n        /* \"#utility.yul\":12216:12293   */\n      0x4e487b7100000000000000000000000000000000000000000000000000000000\n        /* \"#utility.yul\":12213:12214   */\n      0x00\n        /* \"#utility.yul\":12206:12294   */\n      mstore\n        /* \"#utility.yul\":12313:12317   */\n      0x22\n        /* \"#utility.yul\":12310:12311   */\n      0x04\n        /* \"#utility.yul\":12303:12318   */\n      mstore\n        /* \"#utility.yul\":12337:12341   */\n      0x24\n        /* \"#utility.yul\":12334:12335   */\n      0x00\n        /* \"#utility.yul\":12327:12342   */\n      revert\n        /* \"#utility.yul\":12354:12534   */\n    tag_321:\n        /* \"#utility.yul\":12402:12479   */\n      0x4e487b7100000000000000000000000000000000000000000000000000000000\n        /* \"#utility.yul\":12399:12400   */\n      0x00\n        /* \"#utility.yul\":12392:12480   */\n      mstore\n        /* \"#utility.yul\":12499:12503   */\n      0x41\n        /* \"#utility.yul\":12496:12497   */\n      0x04\n        /* \"#utility.yul\":12489:12504   */\n      mstore\n        /* \"#utility.yul\":12523:12527   */\n      0x24\n        /* \"#utility.yul\":12520:12521   */\n      0x00\n        /* \"#utility.yul\":12513:12528   */\n      revert\n        /* \"#utility.yul\":12540:12657   */\n    tag_203:\n        /* \"#utility.yul\":12649:12650   */\n      0x00\n        /* \"#utility.yul\":12646:12647   */\n      dup1\n        /* \"#utility.yul\":12639:12651   */\n      revert\n        /* \"#utility.yul\":12663:12780   */\n    tag_192:\n        /* \"#utility.yul\":12772:12773   */\n      0x00\n        /* \"#utility.yul\":12769:12770   */\n      dup1\n        /* \"#utility.yul\":12762:12774   */\n      revert\n        /* \"#utility.yul\":12786:12903   */\n    tag_230:\n        /* \"#utility.yul\":12895:12896   */\n      0x00\n        /* \"#utility.yul\":12892:12893   */\n      dup1\n        /* \"#utility.yul\":12885:12897   */\n      revert\n        /* \"#utility.yul\":12909:13026   */\n    tag_216:\n        /* \"#utility.yul\":13018:13019   */\n      0x00\n        /* \"#utility.yul\":13015:13016   */\n      dup1\n        /* \"#utility.yul\":13008:13020   */\n      revert\n        /* \"#utility.yul\":13032:13134   */\n    tag_258:\n        /* \"#utility.yul\":13073:13079   */\n      0x00\n        /* \"#utility.yul\":13124:13126   */\n      0x1f\n        /* \"#utility.yul\":13120:13127   */\n      not\n        /* \"#utility.yul\":13115:13117   */\n      0x1f\n        /* \"#utility.yul\":13108:13113   */\n      dup4\n        /* \"#utility.yul\":13104:13118   */\n      add\n        /* \"#utility.yul\":13100:13128   */\n      and\n        /* \"#utility.yul\":13090:13128   */\n      swap1\n      pop\n        /* \"#utility.yul\":13032:13134   */\n      swap2\n      swap1\n      pop\n      jump\t// out\n        /* \"#utility.yul\":13140:13321   */\n    tag_263:\n        /* \"#utility.yul\":13280:13313   */\n      0x53616465636520594f4b2062752069736c656d69207961706162696c69722e00\n        /* \"#utility.yul\":13276:13277   */\n      0x00\n        /* \"#utility.yul\":13268:13274   */\n      dup3\n        /* \"#utility.yul\":13264:13278   */\n      add\n        /* \"#utility.yul\":13257:13314   */\n      mstore\n        /* \"#utility.yul\":13140:13321   */\n      pop\n      jump\t// out\n        /* \"#utility.yul\":13327:13500   */\n    tag_268:\n        /* \"#utility.yul\":13467:13492   */\n      0x556e6976657273697465205a6174656e204d6576637574000000000000000000\n        /* \"#utility.yul\":13463:13464   */\n      0x00\n        /* \"#utility.yul\":13455:13461   */\n      dup3\n        /* \"#utility.yul\":13451:13465   */\n      add\n        /* \"#utility.yul\":13444:13493   */\n      mstore\n        /* \"#utility.yul\":13327:13500   */\n      pop\n      jump\t// out\n        /* \"#utility.yul\":13506:13619   */\n    tag_332:\n        /* \"#utility.yul\":13587:13588   */\n      0x04\n        /* \"#utility.yul\":13580:13585   */\n      dup2\n        /* \"#utility.yul\":13577:13589   */\n      lt\n        /* \"#utility.yul\":13567:13613   */\n      tag_367\n      jumpi\n        /* \"#utility.yul\":13593:13611   */\n      tag_368\n      tag_355\n      jump\t// in\n    tag_368:\n        /* \"#utility.yul\":13567:13613   */\n    tag_367:\n        /* \"#utility.yul\":13506:13619   */\n      pop\n      jump\t// out\n        /* \"#utility.yul\":13625:13747   */\n    tag_198:\n        /* \"#utility.yul\":13698:13722   */\n      tag_370\n        /* \"#utility.yul\":13716:13721   */\n      dup2\n        /* \"#utility.yul\":13698:13722   */\n      tag_240\n      jump\t// in\n    tag_370:\n        /* \"#utility.yul\":13691:13696   */\n      dup2\n        /* \"#utility.yul\":13688:13723   */\n      eq\n        /* \"#utility.yul\":13678:13741   */\n      tag_371\n      jumpi\n        /* \"#utility.yul\":13737:13738   */\n      0x00\n        /* \"#utility.yul\":13734:13735   */\n      dup1\n        /* \"#utility.yul\":13727:13739   */\n      revert\n        /* \"#utility.yul\":13678:13741   */\n    tag_371:\n        /* \"#utility.yul\":13625:13747   */\n      pop\n      jump\t// out\n        /* \"#utility.yul\":13753:13873   */\n    tag_208:\n        /* \"#utility.yul\":13825:13848   */\n      tag_373\n        /* \"#utility.yul\":13842:13847   */\n      dup2\n        /* \"#utility.yul\":13825:13848   */\n      tag_280\n      jump\t// in\n    tag_373:\n        /* \"#utility.yul\":13818:13823   */\n      dup2\n        /* \"#utility.yul\":13815:13849   */\n      eq\n        /* \"#utility.yul\":13805:13867   */\n      tag_374\n      jumpi\n        /* \"#utility.yul\":13863:13864   */\n      0x00\n        /* \"#utility.yul\":13860:13861   */\n      dup1\n        /* \"#utility.yul\":13853:13865   */\n      revert\n        /* \"#utility.yul\":13805:13867   */\n    tag_374:\n        /* \"#utility.yul\":13753:13873   */\n      pop\n      jump\t// out\n        /* \"#utility.yul\":13879:13997   */\n    tag_212:\n        /* \"#utility.yul\":13950:13972   */\n      tag_376\n        /* \"#utility.yul\":13966:13971   */\n      dup2\n        /* \"#utility.yul\":13950:13972   */\n      tag_284\n      jump\t// in\n    tag_376:\n        /* \"#utility.yul\":13943:13948   */\n      dup2\n        /* \"#utility.yul\":13940:13973   */\n      eq\n        /* \"#utility.yul\":13930:13991   */\n      tag_377\n      jumpi\n        /* \"#utility.yul\":13987:13988   */\n      0x00\n        /* \"#utility.yul\":13984:13985   */\n      dup1\n        /* \"#utility.yul\":13977:13989   */\n      revert\n        /* \"#utility.yul\":13930:13991   */\n    tag_377:\n        /* \"#utility.yul\":13879:13997   */\n      pop\n      jump\t// out\n\n    auxdata: 0xa26469706673582212208fb446dec181946907e21ca6a13a8a5b586576d3daf66fb721d0b76b29af20da64736f6c63430008070033\n}\n",
				"bytecode": {
					"linkReferences": {},
					"object": "608060405234801561001057600080fd5b50611951806100206000396000f3fe608060405234801561001057600080fd5b50600436106101205760003560e01c806371af892d116100ad578063b98ccefd11610071578063b98ccefd14610399578063ba479b7e146103c9578063cbc92809146103fe578063e24047ca1461042e578063f0040eb91461045e57610120565b806371af892d146102b65780637d0fa287146102d45780638c848885146103065780639a8c911914610336578063a4e7ae051461036857610120565b80632d087d70116100f45780632d087d70146101d5578063356b1f1e1461020557806336fd26331461023757806339987f9414610253578063514e03c71461028657610120565b80621d54ab14610125578063024eb6bc146101415780631916e1391461017157806328266697146101a3575b600080fd5b61013f600480360381019061013a91906112ec565b61048e565b005b61015b6004803603810190610156919061126c565b610677565b604051610168919061148b565b60405180910390f35b61018b6004803603810190610186919061126c565b6106d0565b60405161019a93929190611515565b60405180910390f35b6101bd60048036038101906101b8919061126c565b61079c565b6040516101cc93929190611515565b60405180910390f35b6101ef60048036038101906101ea919061126c565b610868565b6040516101fc919061148b565b60405180910390f35b61021f600480360381019061021a919061126c565b6108c1565b60405161022e93929190611515565b60405180910390f35b610251600480360381019061024c9190611299565b61098d565b005b61026d6004803603810190610268919061126c565b610a54565b60405161027d9493929190611553565b60405180910390f35b6102a0600480360381019061029b919061126c565b610b26565b6040516102ad919061148b565b60405180910390f35b6102be610b7f565b6040516102cb9190611470565b60405180910390f35b6102ee60048036038101906102e9919061126c565b610ba3565b6040516102fd93929190611515565b60405180910390f35b610320600480360381019061031b919061126c565b610c6f565b60405161032d919061148b565b60405180910390f35b610350600480360381019061034b919061126c565b610cc8565b60405161035f93929190611515565b60405180910390f35b610382600480360381019061037d919061135b565b610d94565b6040516103909291906115df565b60405180910390f35b6103b360048036038101906103ae919061126c565b610e50565b6040516103c0919061148b565b60405180910390f35b6103e360048036038101906103de919061126c565b610ea9565b6040516103f5969594939291906114a6565b60405180910390f35b6104186004803603810190610413919061126c565b61103d565b604051610425919061148b565b60405180910390f35b6104486004803603810190610443919061126c565b611068565b604051610455919061148b565b60405180910390f35b6104786004803603810190610473919061126c565b6110c1565b604051610485919061148b565b60405180910390f35b60008054906101000a900473ffffffffffffffffffffffffffffffffffffffff1673ffffffffffffffffffffffffffffffffffffffff163373ffffffffffffffffffffffffffffffffffffffff161461051c576040517f08c379a00000000000000000000000000000000000000000000000000000000081526004016105139061159f565b60405180910390fd5b610525836110c1565b15610565576040517f08c379a000000000000000000000000000000000000000000000000000000000815260040161055c906115bf565b60405180910390fd5b6001600460008573ffffffffffffffffffffffffffffffffffffffff1673ffffffffffffffffffffffffffffffffffffffff16815260200190815260200160002060000160006101000a81548160ff02191690831515021790555081600460008573ffffffffffffffffffffffffffffffffffffffff1673ffffffffffffffffffffffffffffffffffffffff168152602001908152602001600020600101908051906020019061061692919061111a565b5080600460008573ffffffffffffffffffffffffffffffffffffffff1673ffffffffffffffffffffffffffffffffffffffff16815260200190815260200160002060020160006101000a81548160ff021916908360ff160217905550505050565b6000600760008373ffffffffffffffffffffffffffffffffffffffff1673ffffffffffffffffffffffffffffffffffffffff16815260200190815260200160002060000160009054906101000a900460ff169050919050565b60076020528060005260406000206000915090508060000160009054906101000a900460ff16908060010180546107069061175b565b80601f01602080910402602001604051908101604052809291908181526020018280546107329061175b565b801561077f5780601f106107545761010080835404028352916020019161077f565b820191906000526020600020905b81548152906001019060200180831161076257829003601f168201915b5050505050908060020160009054906101000a900460ff16905083565b60046020528060005260406000206000915090508060000160009054906101000a900460ff16908060010180546107d29061175b565b80601f01602080910402602001604051908101604052809291908181526020018280546107fe9061175b565b801561084b5780601f106108205761010080835404028352916020019161084b565b820191906000526020600020905b81548152906001019060200180831161082e57829003601f168201915b5050505050908060020160009054906101000a900460ff16905083565b6000600660008373ffffffffffffffffffffffffffffffffffffffff1673ffffffffffffffffffffffffffffffffffffffff16815260200190815260200160002060000160009054906101000a900460ff169050919050565b600a6020528060005260406000206000915090508060000160009054906101000a900460ff16908060010180546108f79061175b565b80601f01602080910402602001604051908101604052809291908181526020018280546109239061175b565b80156109705780601f1061094557610100808354040283529160200191610970565b820191906000526020600020905b81548152906001019060200180831161095357829003601f168201915b5050505050908060020160009054906101000a900460ff16905083565b826000806101000a81548173ffffffffffffffffffffffffffffffffffffffff021916908373ffffffffffffffffffffffffffffffffffffffff16021790555081600160006101000a81548173ffffffffffffffffffffffffffffffffffffffff021916908373ffffffffffffffffffffffffffffffffffffffff16021790555080600260006101000a81548173ffffffffffffffffffffffffffffffffffffffff021916908373ffffffffffffffffffffffffffffffffffffffff160217905550505050565b60066020528060005260406000206000915090508060000160009054906101000a900460ff16908060000160019054906101000a900460ff1690806001015490806002018054610aa39061175b565b80601f0160208091040260200160405190810160405280929190818152602001828054610acf9061175b565b8015610b1c5780601f10610af157610100808354040283529160200191610b1c565b820191906000526020600020905b815481529060010190602001808311610aff57829003601f168201915b5050505050905084565b6000600860008373ffffffffffffffffffffffffffffffffffffffff1673ffffffffffffffffffffffffffffffffffffffff16815260200190815260200160002060000160009054906101000a900460ff169050919050565b60008054906101000a900473ffffffffffffffffffffffffffffffffffffffff1681565b60086020528060005260406000206000915090508060000160009054906101000a900460ff1690806001018054610bd99061175b565b80601f0160208091040260200160405190810160405280929190818152602001828054610c059061175b565b8015610c525780601f10610c2757610100808354040283529160200191610c52565b820191906000526020600020905b815481529060010190602001808311610c3557829003601f168201915b5050505050908060020160009054906101000a900460ff16905083565b6000600960008373ffffffffffffffffffffffffffffffffffffffff1673ffffffffffffffffffffffffffffffffffffffff16815260200190815260200160002060000160009054906101000a900460ff169050919050565b60096020528060005260406000206000915090508060000160009054906101000a900460ff1690806001018054610cfe9061175b565b80601f0160208091040260200160405190810160405280929190818152602001828054610d2a9061175b565b8015610d775780601f10610d4c57610100808354040283529160200191610d77565b820191906000526020600020905b815481529060010190602001808311610d5a57829003601f168201915b5050505050908060020160009054906101000a900460ff16905083565b600b6020528060005260406000206000915090508060000160009054906101000a900463ffffffff1690806001018054610dcd9061175b565b80601f0160208091040260200160405190810160405280929190818152602001828054610df99061175b565b8015610e465780601f10610e1b57610100808354040283529160200191610e46565b820191906000526020600020905b815481529060010190602001808311610e2957829003601f168201915b5050505050905082565b6000600360008373ffffffffffffffffffffffffffffffffffffffff1673ffffffffffffffffffffffffffffffffffffffff16815260200190815260200160002060000160009054906101000a900460ff169050919050565b60056020528060005260406000206000915090508060000160009054906101000a900460ff16908060000160019054906101000a900473ffffffffffffffffffffffffffffffffffffffff16908060000160159054906101000a900461ffff16908060000160179054906101000a900460ff1690806001018054610f2c9061175b565b80601f0160208091040260200160405190810160405280929190818152602001828054610f589061175b565b8015610fa55780601f10610f7a57610100808354040283529160200191610fa5565b820191906000526020600020905b815481529060010190602001808311610f8857829003601f168201915b505050505090806002018054610fba9061175b565b80601f0160208091040260200160405190810160405280929190818152602001828054610fe69061175b565b80156110335780601f1061100857610100808354040283529160200191611033565b820191906000526020600020905b81548152906001019060200180831161101657829003601f168201915b5050505050905086565b60036020528060005260406000206000915090508060000160009054906101000a900460ff16905081565b6000600a60008373ffffffffffffffffffffffffffffffffffffffff1673ffffffffffffffffffffffffffffffffffffffff16815260200190815260200160002060000160009054906101000a900460ff169050919050565b6000600460008373ffffffffffffffffffffffffffffffffffffffff1673ffffffffffffffffffffffffffffffffffffffff16815260200190815260200160002060000160009054906101000a900460ff169050919050565b8280546111269061175b565b90600052602060002090601f016020900481019282611148576000855561118f565b82601f1061116157805160ff191683800117855561118f565b8280016001018555821561118f579182015b8281111561118e578251825591602001919060010190611173565b5b50905061119c91906111a0565b5090565b5b808211156111b95760008160009055506001016111a1565b5090565b60006111d06111cb84611634565b61160f565b9050828152602081018484840111156111ec576111eb611850565b5b6111f7848285611719565b509392505050565b60008135905061120e816118d6565b92915050565b600082601f8301126112295761122861184b565b5b81356112398482602086016111bd565b91505092915050565b600081359050611251816118ed565b92915050565b60008135905061126681611904565b92915050565b6000602082840312156112825761128161185a565b5b6000611290848285016111ff565b91505092915050565b6000806000606084860312156112b2576112b161185a565b5b60006112c0868287016111ff565b93505060206112d1868287016111ff565b92505060406112e2868287016111ff565b9150509250925092565b6000806000606084860312156113055761130461185a565b5b6000611313868287016111ff565b935050602084013567ffffffffffffffff81111561133457611333611855565b5b61134086828701611214565b925050604061135186828701611257565b9150509250925092565b6000602082840312156113715761137061185a565b5b600061137f84828501611242565b91505092915050565b61139181611681565b82525050565b6113a081611693565b82525050565b6113af81611707565b82525050565b60006113c082611665565b6113ca8185611670565b93506113da818560208601611728565b6113e38161185f565b840191505092915050565b60006113fb601f83611670565b915061140682611870565b602082019050919050565b600061141e601783611670565b915061142982611899565b602082019050919050565b61143d816116b2565b82525050565b61144c816116e0565b82525050565b61145b816116ea565b82525050565b61146a816116fa565b82525050565b60006020820190506114856000830184611388565b92915050565b60006020820190506114a06000830184611397565b92915050565b600060c0820190506114bb6000830189611397565b6114c86020830188611388565b6114d56040830187611434565b6114e260608301866113a6565b81810360808301526114f481856113b5565b905081810360a083015261150881846113b5565b9050979650505050505050565b600060608201905061152a6000830186611397565b818103602083015261153c81856113b5565b905061154b6040830184611461565b949350505050565b60006080820190506115686000830187611397565b6115756020830186611461565b6115826040830185611443565b818103606083015261159481846113b5565b905095945050505050565b600060208201905081810360008301526115b8816113ee565b9050919050565b600060208201905081810360008301526115d881611411565b9050919050565b60006040820190506115f46000830185611452565b818103602083015261160681846113b5565b90509392505050565b600061161961162a565b9050611625828261178d565b919050565b6000604051905090565b600067ffffffffffffffff82111561164f5761164e61181c565b5b6116588261185f565b9050602081019050919050565b600081519050919050565b600082825260208201905092915050565b600061168c826116c0565b9050919050565b60008115159050919050565b60008190506116ad826118c2565b919050565b600061ffff82169050919050565b600073ffffffffffffffffffffffffffffffffffffffff82169050919050565b6000819050919050565b600063ffffffff82169050919050565b600060ff82169050919050565b60006117128261169f565b9050919050565b82818337600083830152505050565b60005b8381101561174657808201518184015260208101905061172b565b83811115611755576000848401525b50505050565b6000600282049050600182168061177357607f821691505b60208210811415611787576117866117ed565b5b50919050565b6117968261185f565b810181811067ffffffffffffffff821117156117b5576117b461181c565b5b80604052505050565b7f4e487b7100000000000000000000000000000000000000000000000000000000600052602160045260246000fd5b7f4e487b7100000000000000000000000000000000000000000000000000000000600052602260045260246000fd5b7f4e487b7100000000000000000000000000000000000000000000000000000000600052604160045260246000fd5b600080fd5b600080fd5b600080fd5b600080fd5b6000601f19601f8301169050919050565b7f53616465636520594f4b2062752069736c656d69207961706162696c69722e00600082015250565b7f556e6976657273697465205a6174656e204d6576637574000000000000000000600082015250565b600481106118d3576118d26117be565b5b50565b6118df81611681565b81146118ea57600080fd5b50565b6118f6816116ea565b811461190157600080fd5b50565b61190d816116fa565b811461191857600080fd5b5056fea26469706673582212208fb446dec181946907e21ca6a13a8a5b586576d3daf66fb721d0b76b29af20da64736f6c63430008070033",
					"opcodes": "PUSH1 0x80 PUSH1 0x40 MSTORE CALLVALUE DUP1 ISZERO PUSH2 0x10 JUMPI PUSH1 0x0 DUP1 REVERT JUMPDEST POP PUSH2 0x1951 DUP1 PUSH2 0x20 PUSH1 0x0 CODECOPY PUSH1 0x0 RETURN INVALID PUSH1 0x80 PUSH1 0x40 MSTORE CALLVALUE DUP1 ISZERO PUSH2 0x10 JUMPI PUSH1 0x0 DUP1 REVERT JUMPDEST POP PUSH1 0x4 CALLDATASIZE LT PUSH2 0x120 JUMPI PUSH1 0x0 CALLDATALOAD PUSH1 0xE0 SHR DUP1 PUSH4 0x71AF892D GT PUSH2 0xAD JUMPI DUP1 PUSH4 0xB98CCEFD GT PUSH2 0x71 JUMPI DUP1 PUSH4 0xB98CCEFD EQ PUSH2 0x399 JUMPI DUP1 PUSH4 0xBA479B7E EQ PUSH2 0x3C9 JUMPI DUP1 PUSH4 0xCBC92809 EQ PUSH2 0x3FE JUMPI DUP1 PUSH4 0xE24047CA EQ PUSH2 0x42E JUMPI DUP1 PUSH4 0xF0040EB9 EQ PUSH2 0x45E JUMPI PUSH2 0x120 JUMP JUMPDEST DUP1 PUSH4 0x71AF892D EQ PUSH2 0x2B6 JUMPI DUP1 PUSH4 0x7D0FA287 EQ PUSH2 0x2D4 JUMPI DUP1 PUSH4 0x8C848885 EQ PUSH2 0x306 JUMPI DUP1 PUSH4 0x9A8C9119 EQ PUSH2 0x336 JUMPI DUP1 PUSH4 0xA4E7AE05 EQ PUSH2 0x368 JUMPI PUSH2 0x120 JUMP JUMPDEST DUP1 PUSH4 0x2D087D70 GT PUSH2 0xF4 JUMPI DUP1 PUSH4 0x2D087D70 EQ PUSH2 0x1D5 JUMPI DUP1 PUSH4 0x356B1F1E EQ PUSH2 0x205 JUMPI DUP1 PUSH4 0x36FD2633 EQ PUSH2 0x237 JUMPI DUP1 PUSH4 0x39987F94 EQ PUSH2 0x253 JUMPI DUP1 PUSH4 0x514E03C7 EQ PUSH2 0x286 JUMPI PUSH2 0x120 JUMP JUMPDEST DUP1 PUSH3 0x1D54AB EQ PUSH2 0x125 JUMPI DUP1 PUSH4 0x24EB6BC EQ PUSH2 0x141 JUMPI DUP1 PUSH4 0x1916E139 EQ PUSH2 0x171 JUMPI DUP1 PUSH4 0x28266697 EQ PUSH2 0x1A3 JUMPI JUMPDEST PUSH1 0x0 DUP1 REVERT JUMPDEST PUSH2 0x13F PUSH1 0x4 DUP1 CALLDATASIZE SUB DUP2 ADD SWAP1 PUSH2 0x13A SWAP2 SWAP1 PUSH2 0x12EC JUMP JUMPDEST PUSH2 0x48E JUMP JUMPDEST STOP JUMPDEST PUSH2 0x15B PUSH1 0x4 DUP1 CALLDATASIZE SUB DUP2 ADD SWAP1 PUSH2 0x156 SWAP2 SWAP1 PUSH2 0x126C JUMP JUMPDEST PUSH2 0x677 JUMP JUMPDEST PUSH1 0x40 MLOAD PUSH2 0x168 SWAP2 SWAP1 PUSH2 0x148B JUMP JUMPDEST PUSH1 0x40 MLOAD DUP1 SWAP2 SUB SWAP1 RETURN JUMPDEST PUSH2 0x18B PUSH1 0x4 DUP1 CALLDATASIZE SUB DUP2 ADD SWAP1 PUSH2 0x186 SWAP2 SWAP1 PUSH2 0x126C JUMP JUMPDEST PUSH2 0x6D0 JUMP JUMPDEST PUSH1 0x40 MLOAD PUSH2 0x19A SWAP4 SWAP3 SWAP2 SWAP1 PUSH2 0x1515 JUMP JUMPDEST PUSH1 0x40 MLOAD DUP1 SWAP2 SUB SWAP1 RETURN JUMPDEST PUSH2 0x1BD PUSH1 0x4 DUP1 CALLDATASIZE SUB DUP2 ADD SWAP1 PUSH2 0x1B8 SWAP2 SWAP1 PUSH2 0x126C JUMP JUMPDEST PUSH2 0x79C JUMP JUMPDEST PUSH1 0x40 MLOAD PUSH2 0x1CC SWAP4 SWAP3 SWAP2 SWAP1 PUSH2 0x1515 JUMP JUMPDEST PUSH1 0x40 MLOAD DUP1 SWAP2 SUB SWAP1 RETURN JUMPDEST PUSH2 0x1EF PUSH1 0x4 DUP1 CALLDATASIZE SUB DUP2 ADD SWAP1 PUSH2 0x1EA SWAP2 SWAP1 PUSH2 0x126C JUMP JUMPDEST PUSH2 0x868 JUMP JUMPDEST PUSH1 0x40 MLOAD PUSH2 0x1FC SWAP2 SWAP1 PUSH2 0x148B JUMP JUMPDEST PUSH1 0x40 MLOAD DUP1 SWAP2 SUB SWAP1 RETURN JUMPDEST PUSH2 0x21F PUSH1 0x4 DUP1 CALLDATASIZE SUB DUP2 ADD SWAP1 PUSH2 0x21A SWAP2 SWAP1 PUSH2 0x126C JUMP JUMPDEST PUSH2 0x8C1 JUMP JUMPDEST PUSH1 0x40 MLOAD PUSH2 0x22E SWAP4 SWAP3 SWAP2 SWAP1 PUSH2 0x1515 JUMP JUMPDEST PUSH1 0x40 MLOAD DUP1 SWAP2 SUB SWAP1 RETURN JUMPDEST PUSH2 0x251 PUSH1 0x4 DUP1 CALLDATASIZE SUB DUP2 ADD SWAP1 PUSH2 0x24C SWAP2 SWAP1 PUSH2 0x1299 JUMP JUMPDEST PUSH2 0x98D JUMP JUMPDEST STOP JUMPDEST PUSH2 0x26D PUSH1 0x4 DUP1 CALLDATASIZE SUB DUP2 ADD SWAP1 PUSH2 0x268 SWAP2 SWAP1 PUSH2 0x126C JUMP JUMPDEST PUSH2 0xA54 JUMP JUMPDEST PUSH1 0x40 MLOAD PUSH2 0x27D SWAP5 SWAP4 SWAP3 SWAP2 SWAP1 PUSH2 0x1553 JUMP JUMPDEST PUSH1 0x40 MLOAD DUP1 SWAP2 SUB SWAP1 RETURN JUMPDEST PUSH2 0x2A0 PUSH1 0x4 DUP1 CALLDATASIZE SUB DUP2 ADD SWAP1 PUSH2 0x29B SWAP2 SWAP1 PUSH2 0x126C JUMP JUMPDEST PUSH2 0xB26 JUMP JUMPDEST PUSH1 0x40 MLOAD PUSH2 0x2AD SWAP2 SWAP1 PUSH2 0x148B JUMP JUMPDEST PUSH1 0x40 MLOAD DUP1 SWAP2 SUB SWAP1 RETURN JUMPDEST PUSH2 0x2BE PUSH2 0xB7F JUMP JUMPDEST PUSH1 0x40 MLOAD PUSH2 0x2CB SWAP2 SWAP1 PUSH2 0x1470 JUMP JUMPDEST PUSH1 0x40 MLOAD DUP1 SWAP2 SUB SWAP1 RETURN JUMPDEST PUSH2 0x2EE PUSH1 0x4 DUP1 CALLDATASIZE SUB DUP2 ADD SWAP1 PUSH2 0x2E9 SWAP2 SWAP1 PUSH2 0x126C JUMP JUMPDEST PUSH2 0xBA3 JUMP JUMPDEST PUSH1 0x40 MLOAD PUSH2 0x2FD SWAP4 SWAP3 SWAP2 SWAP1 PUSH2 0x1515 JUMP JUMPDEST PUSH1 0x40 MLOAD DUP1 SWAP2 SUB SWAP1 RETURN JUMPDEST PUSH2 0x320 PUSH1 0x4 DUP1 CALLDATASIZE SUB DUP2 ADD SWAP1 PUSH2 0x31B SWAP2 SWAP1 PUSH2 0x126C JUMP JUMPDEST PUSH2 0xC6F JUMP JUMPDEST PUSH1 0x40 MLOAD PUSH2 0x32D SWAP2 SWAP1 PUSH2 0x148B JUMP JUMPDEST PUSH1 0x40 MLOAD DUP1 SWAP2 SUB SWAP1 RETURN JUMPDEST PUSH2 0x350 PUSH1 0x4 DUP1 CALLDATASIZE SUB DUP2 ADD SWAP1 PUSH2 0x34B SWAP2 SWAP1 PUSH2 0x126C JUMP JUMPDEST PUSH2 0xCC8 JUMP JUMPDEST PUSH1 0x40 MLOAD PUSH2 0x35F SWAP4 SWAP3 SWAP2 SWAP1 PUSH2 0x1515 JUMP JUMPDEST PUSH1 0x40 MLOAD DUP1 SWAP2 SUB SWAP1 RETURN JUMPDEST PUSH2 0x382 PUSH1 0x4 DUP1 CALLDATASIZE SUB DUP2 ADD SWAP1 PUSH2 0x37D SWAP2 SWAP1 PUSH2 0x135B JUMP JUMPDEST PUSH2 0xD94 JUMP JUMPDEST PUSH1 0x40 MLOAD PUSH2 0x390 SWAP3 SWAP2 SWAP1 PUSH2 0x15DF JUMP JUMPDEST PUSH1 0x40 MLOAD DUP1 SWAP2 SUB SWAP1 RETURN JUMPDEST PUSH2 0x3B3 PUSH1 0x4 DUP1 CALLDATASIZE SUB DUP2 ADD SWAP1 PUSH2 0x3AE SWAP2 SWAP1 PUSH2 0x126C JUMP JUMPDEST PUSH2 0xE50 JUMP JUMPDEST PUSH1 0x40 MLOAD PUSH2 0x3C0 SWAP2 SWAP1 PUSH2 0x148B JUMP JUMPDEST PUSH1 0x40 MLOAD DUP1 SWAP2 SUB SWAP1 RETURN JUMPDEST PUSH2 0x3E3 PUSH1 0x4 DUP1 CALLDATASIZE SUB DUP2 ADD SWAP1 PUSH2 0x3DE SWAP2 SWAP1 PUSH2 0x126C JUMP JUMPDEST PUSH2 0xEA9 JUMP JUMPDEST PUSH1 0x40 MLOAD PUSH2 0x3F5 SWAP7 SWAP6 SWAP5 SWAP4 SWAP3 SWAP2 SWAP1 PUSH2 0x14A6 JUMP JUMPDEST PUSH1 0x40 MLOAD DUP1 SWAP2 SUB SWAP1 RETURN JUMPDEST PUSH2 0x418 PUSH1 0x4 DUP1 CALLDATASIZE SUB DUP2 ADD SWAP1 PUSH2 0x413 SWAP2 SWAP1 PUSH2 0x126C JUMP JUMPDEST PUSH2 0x103D JUMP JUMPDEST PUSH1 0x40 MLOAD PUSH2 0x425 SWAP2 SWAP1 PUSH2 0x148B JUMP JUMPDEST PUSH1 0x40 MLOAD DUP1 SWAP2 SUB SWAP1 RETURN JUMPDEST PUSH2 0x448 PUSH1 0x4 DUP1 CALLDATASIZE SUB DUP2 ADD SWAP1 PUSH2 0x443 SWAP2 SWAP1 PUSH2 0x126C JUMP JUMPDEST PUSH2 0x1068 JUMP JUMPDEST PUSH1 0x40 MLOAD PUSH2 0x455 SWAP2 SWAP1 PUSH2 0x148B JUMP JUMPDEST PUSH1 0x40 MLOAD DUP1 SWAP2 SUB SWAP1 RETURN JUMPDEST PUSH2 0x478 PUSH1 0x4 DUP1 CALLDATASIZE SUB DUP2 ADD SWAP1 PUSH2 0x473 SWAP2 SWAP1 PUSH2 0x126C JUMP JUMPDEST PUSH2 0x10C1 JUMP JUMPDEST PUSH1 0x40 MLOAD PUSH2 0x485 SWAP2 SWAP1 PUSH2 0x148B JUMP JUMPDEST PUSH1 0x40 MLOAD DUP1 SWAP2 SUB SWAP1 RETURN JUMPDEST PUSH1 0x0 DUP1 SLOAD SWAP1 PUSH2 0x100 EXP SWAP1 DIV PUSH20 0xFFFFFFFFFFFFFFFFFFFFFFFFFFFFFFFFFFFFFFFF AND PUSH20 0xFFFFFFFFFFFFFFFFFFFFFFFFFFFFFFFFFFFFFFFF AND CALLER PUSH20 0xFFFFFFFFFFFFFFFFFFFFFFFFFFFFFFFFFFFFFFFF AND EQ PUSH2 0x51C JUMPI PUSH1 0x40 MLOAD PUSH32 0x8C379A000000000000000000000000000000000000000000000000000000000 DUP2 MSTORE PUSH1 0x4 ADD PUSH2 0x513 SWAP1 PUSH2 0x159F JUMP JUMPDEST PUSH1 0x40 MLOAD DUP1 SWAP2 SUB SWAP1 REVERT JUMPDEST PUSH2 0x525 DUP4 PUSH2 0x10C1 JUMP JUMPDEST ISZERO PUSH2 0x565 JUMPI PUSH1 0x40 MLOAD PUSH32 0x8C379A000000000000000000000000000000000000000000000000000000000 DUP2 MSTORE PUSH1 0x4 ADD PUSH2 0x55C SWAP1 PUSH2 0x15BF JUMP JUMPDEST PUSH1 0x40 MLOAD DUP1 SWAP2 SUB SWAP1 REVERT JUMPDEST PUSH1 0x1 PUSH1 0x4 PUSH1 0x0 DUP6 PUSH20 0xFFFFFFFFFFFFFFFFFFFFFFFFFFFFFFFFFFFFFFFF AND PUSH20 0xFFFFFFFFFFFFFFFFFFFFFFFFFFFFFFFFFFFFFFFF AND DUP2 MSTORE PUSH1 0x20 ADD SWAP1 DUP2 MSTORE PUSH1 0x20 ADD PUSH1 0x0 KECCAK256 PUSH1 0x0 ADD PUSH1 0x0 PUSH2 0x100 EXP DUP2 SLOAD DUP2 PUSH1 0xFF MUL NOT AND SWAP1 DUP4 ISZERO ISZERO MUL OR SWAP1 SSTORE POP DUP2 PUSH1 0x4 PUSH1 0x0 DUP6 PUSH20 0xFFFFFFFFFFFFFFFFFFFFFFFFFFFFFFFFFFFFFFFF AND PUSH20 0xFFFFFFFFFFFFFFFFFFFFFFFFFFFFFFFFFFFFFFFF AND DUP2 MSTORE PUSH1 0x20 ADD SWAP1 DUP2 MSTORE PUSH1 0x20 ADD PUSH1 0x0 KECCAK256 PUSH1 0x1 ADD SWAP1 DUP1 MLOAD SWAP1 PUSH1 0x20 ADD SWAP1 PUSH2 0x616 SWAP3 SWAP2 SWAP1 PUSH2 0x111A JUMP JUMPDEST POP DUP1 PUSH1 0x4 PUSH1 0x0 DUP6 PUSH20 0xFFFFFFFFFFFFFFFFFFFFFFFFFFFFFFFFFFFFFFFF AND PUSH20 0xFFFFFFFFFFFFFFFFFFFFFFFFFFFFFFFFFFFFFFFF AND DUP2 MSTORE PUSH1 0x20 ADD SWAP1 DUP2 MSTORE PUSH1 0x20 ADD PUSH1 0x0 KECCAK256 PUSH1 0x2 ADD PUSH1 0x0 PUSH2 0x100 EXP DUP2 SLOAD DUP2 PUSH1 0xFF MUL NOT AND SWAP1 DUP4 PUSH1 0xFF AND MUL OR SWAP1 SSTORE POP POP POP POP JUMP JUMPDEST PUSH1 0x0 PUSH1 0x7 PUSH1 0x0 DUP4 PUSH20 0xFFFFFFFFFFFFFFFFFFFFFFFFFFFFFFFFFFFFFFFF AND PUSH20 0xFFFFFFFFFFFFFFFFFFFFFFFFFFFFFFFFFFFFFFFF AND DUP2 MSTORE PUSH1 0x20 ADD SWAP1 DUP2 MSTORE PUSH1 0x20 ADD PUSH1 0x0 KECCAK256 PUSH1 0x0 ADD PUSH1 0x0 SWAP1 SLOAD SWAP1 PUSH2 0x100 EXP SWAP1 DIV PUSH1 0xFF AND SWAP1 POP SWAP2 SWAP1 POP JUMP JUMPDEST PUSH1 0x7 PUSH1 0x20 MSTORE DUP1 PUSH1 0x0 MSTORE PUSH1 0x40 PUSH1 0x0 KECCAK256 PUSH1 0x0 SWAP2 POP SWAP1 POP DUP1 PUSH1 0x0 ADD PUSH1 0x0 SWAP1 SLOAD SWAP1 PUSH2 0x100 EXP SWAP1 DIV PUSH1 0xFF AND SWAP1 DUP1 PUSH1 0x1 ADD DUP1 SLOAD PUSH2 0x706 SWAP1 PUSH2 0x175B JUMP JUMPDEST DUP1 PUSH1 0x1F ADD PUSH1 0x20 DUP1 SWAP2 DIV MUL PUSH1 0x20 ADD PUSH1 0x40 MLOAD SWAP1 DUP2 ADD PUSH1 0x40 MSTORE DUP1 SWAP3 SWAP2 SWAP1 DUP2 DUP2 MSTORE PUSH1 0x20 ADD DUP3 DUP1 SLOAD PUSH2 0x732 SWAP1 PUSH2 0x175B JUMP JUMPDEST DUP1 ISZERO PUSH2 0x77F JUMPI DUP1 PUSH1 0x1F LT PUSH2 0x754 JUMPI PUSH2 0x100 DUP1 DUP4 SLOAD DIV MUL DUP4 MSTORE SWAP2 PUSH1 0x20 ADD SWAP2 PUSH2 0x77F JUMP JUMPDEST DUP3 ADD SWAP2 SWAP1 PUSH1 0x0 MSTORE PUSH1 0x20 PUSH1 0x0 KECCAK256 SWAP1 JUMPDEST DUP2 SLOAD DUP2 MSTORE SWAP1 PUSH1 0x1 ADD SWAP1 PUSH1 0x20 ADD DUP1 DUP4 GT PUSH2 0x762 JUMPI DUP3 SWAP1 SUB PUSH1 0x1F AND DUP3 ADD SWAP2 JUMPDEST POP POP POP POP POP SWAP1 DUP1 PUSH1 0x2 ADD PUSH1 0x0 SWAP1 SLOAD SWAP1 PUSH2 0x100 EXP SWAP1 DIV PUSH1 0xFF AND SWAP1 POP DUP4 JUMP JUMPDEST PUSH1 0x4 PUSH1 0x20 MSTORE DUP1 PUSH1 0x0 MSTORE PUSH1 0x40 PUSH1 0x0 KECCAK256 PUSH1 0x0 SWAP2 POP SWAP1 POP DUP1 PUSH1 0x0 ADD PUSH1 0x0 SWAP1 SLOAD SWAP1 PUSH2 0x100 EXP SWAP1 DIV PUSH1 0xFF AND SWAP1 DUP1 PUSH1 0x1 ADD DUP1 SLOAD PUSH2 0x7D2 SWAP1 PUSH2 0x175B JUMP JUMPDEST DUP1 PUSH1 0x1F ADD PUSH1 0x20 DUP1 SWAP2 DIV MUL PUSH1 0x20 ADD PUSH1 0x40 MLOAD SWAP1 DUP2 ADD PUSH1 0x40 MSTORE DUP1 SWAP3 SWAP2 SWAP1 DUP2 DUP2 MSTORE PUSH1 0x20 ADD DUP3 DUP1 SLOAD PUSH2 0x7FE SWAP1 PUSH2 0x175B JUMP JUMPDEST DUP1 ISZERO PUSH2 0x84B JUMPI DUP1 PUSH1 0x1F LT PUSH2 0x820 JUMPI PUSH2 0x100 DUP1 DUP4 SLOAD DIV MUL DUP4 MSTORE SWAP2 PUSH1 0x20 ADD SWAP2 PUSH2 0x84B JUMP JUMPDEST DUP3 ADD SWAP2 SWAP1 PUSH1 0x0 MSTORE PUSH1 0x20 PUSH1 0x0 KECCAK256 SWAP1 JUMPDEST DUP2 SLOAD DUP2 MSTORE SWAP1 PUSH1 0x1 ADD SWAP1 PUSH1 0x20 ADD DUP1 DUP4 GT PUSH2 0x82E JUMPI DUP3 SWAP1 SUB PUSH1 0x1F AND DUP3 ADD SWAP2 JUMPDEST POP POP POP POP POP SWAP1 DUP1 PUSH1 0x2 ADD PUSH1 0x0 SWAP1 SLOAD SWAP1 PUSH2 0x100 EXP SWAP1 DIV PUSH1 0xFF AND SWAP1 POP DUP4 JUMP JUMPDEST PUSH1 0x0 PUSH1 0x6 PUSH1 0x0 DUP4 PUSH20 0xFFFFFFFFFFFFFFFFFFFFFFFFFFFFFFFFFFFFFFFF AND PUSH20 0xFFFFFFFFFFFFFFFFFFFFFFFFFFFFFFFFFFFFFFFF AND DUP2 MSTORE PUSH1 0x20 ADD SWAP1 DUP2 MSTORE PUSH1 0x20 ADD PUSH1 0x0 KECCAK256 PUSH1 0x0 ADD PUSH1 0x0 SWAP1 SLOAD SWAP1 PUSH2 0x100 EXP SWAP1 DIV PUSH1 0xFF AND SWAP1 POP SWAP2 SWAP1 POP JUMP JUMPDEST PUSH1 0xA PUSH1 0x20 MSTORE DUP1 PUSH1 0x0 MSTORE PUSH1 0x40 PUSH1 0x0 KECCAK256 PUSH1 0x0 SWAP2 POP SWAP1 POP DUP1 PUSH1 0x0 ADD PUSH1 0x0 SWAP1 SLOAD SWAP1 PUSH2 0x100 EXP SWAP1 DIV PUSH1 0xFF AND SWAP1 DUP1 PUSH1 0x1 ADD DUP1 SLOAD PUSH2 0x8F7 SWAP1 PUSH2 0x175B JUMP JUMPDEST DUP1 PUSH1 0x1F ADD PUSH1 0x20 DUP1 SWAP2 DIV MUL PUSH1 0x20 ADD PUSH1 0x40 MLOAD SWAP1 DUP2 ADD PUSH1 0x40 MSTORE DUP1 SWAP3 SWAP2 SWAP1 DUP2 DUP2 MSTORE PUSH1 0x20 ADD DUP3 DUP1 SLOAD PUSH2 0x923 SWAP1 PUSH2 0x175B JUMP JUMPDEST DUP1 ISZERO PUSH2 0x970 JUMPI DUP1 PUSH1 0x1F LT PUSH2 0x945 JUMPI PUSH2 0x100 DUP1 DUP4 SLOAD DIV MUL DUP4 MSTORE SWAP2 PUSH1 0x20 ADD SWAP2 PUSH2 0x970 JUMP JUMPDEST DUP3 ADD SWAP2 SWAP1 PUSH1 0x0 MSTORE PUSH1 0x20 PUSH1 0x0 KECCAK256 SWAP1 JUMPDEST DUP2 SLOAD DUP2 MSTORE SWAP1 PUSH1 0x1 ADD SWAP1 PUSH1 0x20 ADD DUP1 DUP4 GT PUSH2 0x953 JUMPI DUP3 SWAP1 SUB PUSH1 0x1F AND DUP3 ADD SWAP2 JUMPDEST POP POP POP POP POP SWAP1 DUP1 PUSH1 0x2 ADD PUSH1 0x0 SWAP1 SLOAD SWAP1 PUSH2 0x100 EXP SWAP1 DIV PUSH1 0xFF AND SWAP1 POP DUP4 JUMP JUMPDEST DUP3 PUSH1 0x0 DUP1 PUSH2 0x100 EXP DUP2 SLOAD DUP2 PUSH20 0xFFFFFFFFFFFFFFFFFFFFFFFFFFFFFFFFFFFFFFFF MUL NOT AND SWAP1 DUP4 PUSH20 0xFFFFFFFFFFFFFFFFFFFFFFFFFFFFFFFFFFFFFFFF AND MUL OR SWAP1 SSTORE POP DUP2 PUSH1 0x1 PUSH1 0x0 PUSH2 0x100 EXP DUP2 SLOAD DUP2 PUSH20 0xFFFFFFFFFFFFFFFFFFFFFFFFFFFFFFFFFFFFFFFF MUL NOT AND SWAP1 DUP4 PUSH20 0xFFFFFFFFFFFFFFFFFFFFFFFFFFFFFFFFFFFFFFFF AND MUL OR SWAP1 SSTORE POP DUP1 PUSH1 0x2 PUSH1 0x0 PUSH2 0x100 EXP DUP2 SLOAD DUP2 PUSH20 0xFFFFFFFFFFFFFFFFFFFFFFFFFFFFFFFFFFFFFFFF MUL NOT AND SWAP1 DUP4 PUSH20 0xFFFFFFFFFFFFFFFFFFFFFFFFFFFFFFFFFFFFFFFF AND MUL OR SWAP1 SSTORE POP POP POP POP JUMP JUMPDEST PUSH1 0x6 PUSH1 0x20 MSTORE DUP1 PUSH1 0x0 MSTORE PUSH1 0x40 PUSH1 0x0 KECCAK256 PUSH1 0x0 SWAP2 POP SWAP1 POP DUP1 PUSH1 0x0 ADD PUSH1 0x0 SWAP1 SLOAD SWAP1 PUSH2 0x100 EXP SWAP1 DIV PUSH1 0xFF AND SWAP1 DUP1 PUSH1 0x0 ADD PUSH1 0x1 SWAP1 SLOAD SWAP1 PUSH2 0x100 EXP SWAP1 DIV PUSH1 0xFF AND SWAP1 DUP1 PUSH1 0x1 ADD SLOAD SWAP1 DUP1 PUSH1 0x2 ADD DUP1 SLOAD PUSH2 0xAA3 SWAP1 PUSH2 0x175B JUMP JUMPDEST DUP1 PUSH1 0x1F ADD PUSH1 0x20 DUP1 SWAP2 DIV MUL PUSH1 0x20 ADD PUSH1 0x40 MLOAD SWAP1 DUP2 ADD PUSH1 0x40 MSTORE DUP1 SWAP3 SWAP2 SWAP1 DUP2 DUP2 MSTORE PUSH1 0x20 ADD DUP3 DUP1 SLOAD PUSH2 0xACF SWAP1 PUSH2 0x175B JUMP JUMPDEST DUP1 ISZERO PUSH2 0xB1C JUMPI DUP1 PUSH1 0x1F LT PUSH2 0xAF1 JUMPI PUSH2 0x100 DUP1 DUP4 SLOAD DIV MUL DUP4 MSTORE SWAP2 PUSH1 0x20 ADD SWAP2 PUSH2 0xB1C JUMP JUMPDEST DUP3 ADD SWAP2 SWAP1 PUSH1 0x0 MSTORE PUSH1 0x20 PUSH1 0x0 KECCAK256 SWAP1 JUMPDEST DUP2 SLOAD DUP2 MSTORE SWAP1 PUSH1 0x1 ADD SWAP1 PUSH1 0x20 ADD DUP1 DUP4 GT PUSH2 0xAFF JUMPI DUP3 SWAP1 SUB PUSH1 0x1F AND DUP3 ADD SWAP2 JUMPDEST POP POP POP POP POP SWAP1 POP DUP5 JUMP JUMPDEST PUSH1 0x0 PUSH1 0x8 PUSH1 0x0 DUP4 PUSH20 0xFFFFFFFFFFFFFFFFFFFFFFFFFFFFFFFFFFFFFFFF AND PUSH20 0xFFFFFFFFFFFFFFFFFFFFFFFFFFFFFFFFFFFFFFFF AND DUP2 MSTORE PUSH1 0x20 ADD SWAP1 DUP2 MSTORE PUSH1 0x20 ADD PUSH1 0x0 KECCAK256 PUSH1 0x0 ADD PUSH1 0x0 SWAP1 SLOAD SWAP1 PUSH2 0x100 EXP SWAP1 DIV PUSH1 0xFF AND SWAP1 POP SWAP2 SWAP1 POP JUMP JUMPDEST PUSH1 0x0 DUP1 SLOAD SWAP1 PUSH2 0x100 EXP SWAP1 DIV PUSH20 0xFFFFFFFFFFFFFFFFFFFFFFFFFFFFFFFFFFFFFFFF AND DUP2 JUMP JUMPDEST PUSH1 0x8 PUSH1 0x20 MSTORE DUP1 PUSH1 0x0 MSTORE PUSH1 0x40 PUSH1 0x0 KECCAK256 PUSH1 0x0 SWAP2 POP SWAP1 POP DUP1 PUSH1 0x0 ADD PUSH1 0x0 SWAP1 SLOAD SWAP1 PUSH2 0x100 EXP SWAP1 DIV PUSH1 0xFF AND SWAP1 DUP1 PUSH1 0x1 ADD DUP1 SLOAD PUSH2 0xBD9 SWAP1 PUSH2 0x175B JUMP JUMPDEST DUP1 PUSH1 0x1F ADD PUSH1 0x20 DUP1 SWAP2 DIV MUL PUSH1 0x20 ADD PUSH1 0x40 MLOAD SWAP1 DUP2 ADD PUSH1 0x40 MSTORE DUP1 SWAP3 SWAP2 SWAP1 DUP2 DUP2 MSTORE PUSH1 0x20 ADD DUP3 DUP1 SLOAD PUSH2 0xC05 SWAP1 PUSH2 0x175B JUMP JUMPDEST DUP1 ISZERO PUSH2 0xC52 JUMPI DUP1 PUSH1 0x1F LT PUSH2 0xC27 JUMPI PUSH2 0x100 DUP1 DUP4 SLOAD DIV MUL DUP4 MSTORE SWAP2 PUSH1 0x20 ADD SWAP2 PUSH2 0xC52 JUMP JUMPDEST DUP3 ADD SWAP2 SWAP1 PUSH1 0x0 MSTORE PUSH1 0x20 PUSH1 0x0 KECCAK256 SWAP1 JUMPDEST DUP2 SLOAD DUP2 MSTORE SWAP1 PUSH1 0x1 ADD SWAP1 PUSH1 0x20 ADD DUP1 DUP4 GT PUSH2 0xC35 JUMPI DUP3 SWAP1 SUB PUSH1 0x1F AND DUP3 ADD SWAP2 JUMPDEST POP POP POP POP POP SWAP1 DUP1 PUSH1 0x2 ADD PUSH1 0x0 SWAP1 SLOAD SWAP1 PUSH2 0x100 EXP SWAP1 DIV PUSH1 0xFF AND SWAP1 POP DUP4 JUMP JUMPDEST PUSH1 0x0 PUSH1 0x9 PUSH1 0x0 DUP4 PUSH20 0xFFFFFFFFFFFFFFFFFFFFFFFFFFFFFFFFFFFFFFFF AND PUSH20 0xFFFFFFFFFFFFFFFFFFFFFFFFFFFFFFFFFFFFFFFF AND DUP2 MSTORE PUSH1 0x20 ADD SWAP1 DUP2 MSTORE PUSH1 0x20 ADD PUSH1 0x0 KECCAK256 PUSH1 0x0 ADD PUSH1 0x0 SWAP1 SLOAD SWAP1 PUSH2 0x100 EXP SWAP1 DIV PUSH1 0xFF AND SWAP1 POP SWAP2 SWAP1 POP JUMP JUMPDEST PUSH1 0x9 PUSH1 0x20 MSTORE DUP1 PUSH1 0x0 MSTORE PUSH1 0x40 PUSH1 0x0 KECCAK256 PUSH1 0x0 SWAP2 POP SWAP1 POP DUP1 PUSH1 0x0 ADD PUSH1 0x0 SWAP1 SLOAD SWAP1 PUSH2 0x100 EXP SWAP1 DIV PUSH1 0xFF AND SWAP1 DUP1 PUSH1 0x1 ADD DUP1 SLOAD PUSH2 0xCFE SWAP1 PUSH2 0x175B JUMP JUMPDEST DUP1 PUSH1 0x1F ADD PUSH1 0x20 DUP1 SWAP2 DIV MUL PUSH1 0x20 ADD PUSH1 0x40 MLOAD SWAP1 DUP2 ADD PUSH1 0x40 MSTORE DUP1 SWAP3 SWAP2 SWAP1 DUP2 DUP2 MSTORE PUSH1 0x20 ADD DUP3 DUP1 SLOAD PUSH2 0xD2A SWAP1 PUSH2 0x175B JUMP JUMPDEST DUP1 ISZERO PUSH2 0xD77 JUMPI DUP1 PUSH1 0x1F LT PUSH2 0xD4C JUMPI PUSH2 0x100 DUP1 DUP4 SLOAD DIV MUL DUP4 MSTORE SWAP2 PUSH1 0x20 ADD SWAP2 PUSH2 0xD77 JUMP JUMPDEST DUP3 ADD SWAP2 SWAP1 PUSH1 0x0 MSTORE PUSH1 0x20 PUSH1 0x0 KECCAK256 SWAP1 JUMPDEST DUP2 SLOAD DUP2 MSTORE SWAP1 PUSH1 0x1 ADD SWAP1 PUSH1 0x20 ADD DUP1 DUP4 GT PUSH2 0xD5A JUMPI DUP3 SWAP1 SUB PUSH1 0x1F AND DUP3 ADD SWAP2 JUMPDEST POP POP POP POP POP SWAP1 DUP1 PUSH1 0x2 ADD PUSH1 0x0 SWAP1 SLOAD SWAP1 PUSH2 0x100 EXP SWAP1 DIV PUSH1 0xFF AND SWAP1 POP DUP4 JUMP JUMPDEST PUSH1 0xB PUSH1 0x20 MSTORE DUP1 PUSH1 0x0 MSTORE PUSH1 0x40 PUSH1 0x0 KECCAK256 PUSH1 0x0 SWAP2 POP SWAP1 POP DUP1 PUSH1 0x0 ADD PUSH1 0x0 SWAP1 SLOAD SWAP1 PUSH2 0x100 EXP SWAP1 DIV PUSH4 0xFFFFFFFF AND SWAP1 DUP1 PUSH1 0x1 ADD DUP1 SLOAD PUSH2 0xDCD SWAP1 PUSH2 0x175B JUMP JUMPDEST DUP1 PUSH1 0x1F ADD PUSH1 0x20 DUP1 SWAP2 DIV MUL PUSH1 0x20 ADD PUSH1 0x40 MLOAD SWAP1 DUP2 ADD PUSH1 0x40 MSTORE DUP1 SWAP3 SWAP2 SWAP1 DUP2 DUP2 MSTORE PUSH1 0x20 ADD DUP3 DUP1 SLOAD PUSH2 0xDF9 SWAP1 PUSH2 0x175B JUMP JUMPDEST DUP1 ISZERO PUSH2 0xE46 JUMPI DUP1 PUSH1 0x1F LT PUSH2 0xE1B JUMPI PUSH2 0x100 DUP1 DUP4 SLOAD DIV MUL DUP4 MSTORE SWAP2 PUSH1 0x20 ADD SWAP2 PUSH2 0xE46 JUMP JUMPDEST DUP3 ADD SWAP2 SWAP1 PUSH1 0x0 MSTORE PUSH1 0x20 PUSH1 0x0 KECCAK256 SWAP1 JUMPDEST DUP2 SLOAD DUP2 MSTORE SWAP1 PUSH1 0x1 ADD SWAP1 PUSH1 0x20 ADD DUP1 DUP4 GT PUSH2 0xE29 JUMPI DUP3 SWAP1 SUB PUSH1 0x1F AND DUP3 ADD SWAP2 JUMPDEST POP POP POP POP POP SWAP1 POP DUP3 JUMP JUMPDEST PUSH1 0x0 PUSH1 0x3 PUSH1 0x0 DUP4 PUSH20 0xFFFFFFFFFFFFFFFFFFFFFFFFFFFFFFFFFFFFFFFF AND PUSH20 0xFFFFFFFFFFFFFFFFFFFFFFFFFFFFFFFFFFFFFFFF AND DUP2 MSTORE PUSH1 0x20 ADD SWAP1 DUP2 MSTORE PUSH1 0x20 ADD PUSH1 0x0 KECCAK256 PUSH1 0x0 ADD PUSH1 0x0 SWAP1 SLOAD SWAP1 PUSH2 0x100 EXP SWAP1 DIV PUSH1 0xFF AND SWAP1 POP SWAP2 SWAP1 POP JUMP JUMPDEST PUSH1 0x5 PUSH1 0x20 MSTORE DUP1 PUSH1 0x0 MSTORE PUSH1 0x40 PUSH1 0x0 KECCAK256 PUSH1 0x0 SWAP2 POP SWAP1 POP DUP1 PUSH1 0x0 ADD PUSH1 0x0 SWAP1 SLOAD SWAP1 PUSH2 0x100 EXP SWAP1 DIV PUSH1 0xFF AND SWAP1 DUP1 PUSH1 0x0 ADD PUSH1 0x1 SWAP1 SLOAD SWAP1 PUSH2 0x100 EXP SWAP1 DIV PUSH20 0xFFFFFFFFFFFFFFFFFFFFFFFFFFFFFFFFFFFFFFFF AND SWAP1 DUP1 PUSH1 0x0 ADD PUSH1 0x15 SWAP1 SLOAD SWAP1 PUSH2 0x100 EXP SWAP1 DIV PUSH2 0xFFFF AND SWAP1 DUP1 PUSH1 0x0 ADD PUSH1 0x17 SWAP1 SLOAD SWAP1 PUSH2 0x100 EXP SWAP1 DIV PUSH1 0xFF AND SWAP1 DUP1 PUSH1 0x1 ADD DUP1 SLOAD PUSH2 0xF2C SWAP1 PUSH2 0x175B JUMP JUMPDEST DUP1 PUSH1 0x1F ADD PUSH1 0x20 DUP1 SWAP2 DIV MUL PUSH1 0x20 ADD PUSH1 0x40 MLOAD SWAP1 DUP2 ADD PUSH1 0x40 MSTORE DUP1 SWAP3 SWAP2 SWAP1 DUP2 DUP2 MSTORE PUSH1 0x20 ADD DUP3 DUP1 SLOAD PUSH2 0xF58 SWAP1 PUSH2 0x175B JUMP JUMPDEST DUP1 ISZERO PUSH2 0xFA5 JUMPI DUP1 PUSH1 0x1F LT PUSH2 0xF7A JUMPI PUSH2 0x100 DUP1 DUP4 SLOAD DIV MUL DUP4 MSTORE SWAP2 PUSH1 0x20 ADD SWAP2 PUSH2 0xFA5 JUMP JUMPDEST DUP3 ADD SWAP2 SWAP1 PUSH1 0x0 MSTORE PUSH1 0x20 PUSH1 0x0 KECCAK256 SWAP1 JUMPDEST DUP2 SLOAD DUP2 MSTORE SWAP1 PUSH1 0x1 ADD SWAP1 PUSH1 0x20 ADD DUP1 DUP4 GT PUSH2 0xF88 JUMPI DUP3 SWAP1 SUB PUSH1 0x1F AND DUP3 ADD SWAP2 JUMPDEST POP POP POP POP POP SWAP1 DUP1 PUSH1 0x2 ADD DUP1 SLOAD PUSH2 0xFBA SWAP1 PUSH2 0x175B JUMP JUMPDEST DUP1 PUSH1 0x1F ADD PUSH1 0x20 DUP1 SWAP2 DIV MUL PUSH1 0x20 ADD PUSH1 0x40 MLOAD SWAP1 DUP2 ADD PUSH1 0x40 MSTORE DUP1 SWAP3 SWAP2 SWAP1 DUP2 DUP2 MSTORE PUSH1 0x20 ADD DUP3 DUP1 SLOAD PUSH2 0xFE6 SWAP1 PUSH2 0x175B JUMP JUMPDEST DUP1 ISZERO PUSH2 0x1033 JUMPI DUP1 PUSH1 0x1F LT PUSH2 0x1008 JUMPI PUSH2 0x100 DUP1 DUP4 SLOAD DIV MUL DUP4 MSTORE SWAP2 PUSH1 0x20 ADD SWAP2 PUSH2 0x1033 JUMP JUMPDEST DUP3 ADD SWAP2 SWAP1 PUSH1 0x0 MSTORE PUSH1 0x20 PUSH1 0x0 KECCAK256 SWAP1 JUMPDEST DUP2 SLOAD DUP2 MSTORE SWAP1 PUSH1 0x1 ADD SWAP1 PUSH1 0x20 ADD DUP1 DUP4 GT PUSH2 0x1016 JUMPI DUP3 SWAP1 SUB PUSH1 0x1F AND DUP3 ADD SWAP2 JUMPDEST POP POP POP POP POP SWAP1 POP DUP7 JUMP JUMPDEST PUSH1 0x3 PUSH1 0x20 MSTORE DUP1 PUSH1 0x0 MSTORE PUSH1 0x40 PUSH1 0x0 KECCAK256 PUSH1 0x0 SWAP2 POP SWAP1 POP DUP1 PUSH1 0x0 ADD PUSH1 0x0 SWAP1 SLOAD SWAP1 PUSH2 0x100 EXP SWAP1 DIV PUSH1 0xFF AND SWAP1 POP DUP2 JUMP JUMPDEST PUSH1 0x0 PUSH1 0xA PUSH1 0x0 DUP4 PUSH20 0xFFFFFFFFFFFFFFFFFFFFFFFFFFFFFFFFFFFFFFFF AND PUSH20 0xFFFFFFFFFFFFFFFFFFFFFFFFFFFFFFFFFFFFFFFF AND DUP2 MSTORE PUSH1 0x20 ADD SWAP1 DUP2 MSTORE PUSH1 0x20 ADD PUSH1 0x0 KECCAK256 PUSH1 0x0 ADD PUSH1 0x0 SWAP1 SLOAD SWAP1 PUSH2 0x100 EXP SWAP1 DIV PUSH1 0xFF AND SWAP1 POP SWAP2 SWAP1 POP JUMP JUMPDEST PUSH1 0x0 PUSH1 0x4 PUSH1 0x0 DUP4 PUSH20 0xFFFFFFFFFFFFFFFFFFFFFFFFFFFFFFFFFFFFFFFF AND PUSH20 0xFFFFFFFFFFFFFFFFFFFFFFFFFFFFFFFFFFFFFFFF AND DUP2 MSTORE PUSH1 0x20 ADD SWAP1 DUP2 MSTORE PUSH1 0x20 ADD PUSH1 0x0 KECCAK256 PUSH1 0x0 ADD PUSH1 0x0 SWAP1 SLOAD SWAP1 PUSH2 0x100 EXP SWAP1 DIV PUSH1 0xFF AND SWAP1 POP SWAP2 SWAP1 POP JUMP JUMPDEST DUP3 DUP1 SLOAD PUSH2 0x1126 SWAP1 PUSH2 0x175B JUMP JUMPDEST SWAP1 PUSH1 0x0 MSTORE PUSH1 0x20 PUSH1 0x0 KECCAK256 SWAP1 PUSH1 0x1F ADD PUSH1 0x20 SWAP1 DIV DUP2 ADD SWAP3 DUP3 PUSH2 0x1148 JUMPI PUSH1 0x0 DUP6 SSTORE PUSH2 0x118F JUMP JUMPDEST DUP3 PUSH1 0x1F LT PUSH2 0x1161 JUMPI DUP1 MLOAD PUSH1 0xFF NOT AND DUP4 DUP1 ADD OR DUP6 SSTORE PUSH2 0x118F JUMP JUMPDEST DUP3 DUP1 ADD PUSH1 0x1 ADD DUP6 SSTORE DUP3 ISZERO PUSH2 0x118F JUMPI SWAP2 DUP3 ADD JUMPDEST DUP3 DUP2 GT ISZERO PUSH2 0x118E JUMPI DUP3 MLOAD DUP3 SSTORE SWAP2 PUSH1 0x20 ADD SWAP2 SWAP1 PUSH1 0x1 ADD SWAP1 PUSH2 0x1173 JUMP JUMPDEST JUMPDEST POP SWAP1 POP PUSH2 0x119C SWAP2 SWAP1 PUSH2 0x11A0 JUMP JUMPDEST POP SWAP1 JUMP JUMPDEST JUMPDEST DUP1 DUP3 GT ISZERO PUSH2 0x11B9 JUMPI PUSH1 0x0 DUP2 PUSH1 0x0 SWAP1 SSTORE POP PUSH1 0x1 ADD PUSH2 0x11A1 JUMP JUMPDEST POP SWAP1 JUMP JUMPDEST PUSH1 0x0 PUSH2 0x11D0 PUSH2 0x11CB DUP5 PUSH2 0x1634 JUMP JUMPDEST PUSH2 0x160F JUMP JUMPDEST SWAP1 POP DUP3 DUP2 MSTORE PUSH1 0x20 DUP2 ADD DUP5 DUP5 DUP5 ADD GT ISZERO PUSH2 0x11EC JUMPI PUSH2 0x11EB PUSH2 0x1850 JUMP JUMPDEST JUMPDEST PUSH2 0x11F7 DUP5 DUP3 DUP6 PUSH2 0x1719 JUMP JUMPDEST POP SWAP4 SWAP3 POP POP POP JUMP JUMPDEST PUSH1 0x0 DUP2 CALLDATALOAD SWAP1 POP PUSH2 0x120E DUP2 PUSH2 0x18D6 JUMP JUMPDEST SWAP3 SWAP2 POP POP JUMP JUMPDEST PUSH1 0x0 DUP3 PUSH1 0x1F DUP4 ADD SLT PUSH2 0x1229 JUMPI PUSH2 0x1228 PUSH2 0x184B JUMP JUMPDEST JUMPDEST DUP2 CALLDATALOAD PUSH2 0x1239 DUP5 DUP3 PUSH1 0x20 DUP7 ADD PUSH2 0x11BD JUMP JUMPDEST SWAP2 POP POP SWAP3 SWAP2 POP POP JUMP JUMPDEST PUSH1 0x0 DUP2 CALLDATALOAD SWAP1 POP PUSH2 0x1251 DUP2 PUSH2 0x18ED JUMP JUMPDEST SWAP3 SWAP2 POP POP JUMP JUMPDEST PUSH1 0x0 DUP2 CALLDATALOAD SWAP1 POP PUSH2 0x1266 DUP2 PUSH2 0x1904 JUMP JUMPDEST SWAP3 SWAP2 POP POP JUMP JUMPDEST PUSH1 0x0 PUSH1 0x20 DUP3 DUP5 SUB SLT ISZERO PUSH2 0x1282 JUMPI PUSH2 0x1281 PUSH2 0x185A JUMP JUMPDEST JUMPDEST PUSH1 0x0 PUSH2 0x1290 DUP5 DUP3 DUP6 ADD PUSH2 0x11FF JUMP JUMPDEST SWAP2 POP POP SWAP3 SWAP2 POP POP JUMP JUMPDEST PUSH1 0x0 DUP1 PUSH1 0x0 PUSH1 0x60 DUP5 DUP7 SUB SLT ISZERO PUSH2 0x12B2 JUMPI PUSH2 0x12B1 PUSH2 0x185A JUMP JUMPDEST JUMPDEST PUSH1 0x0 PUSH2 0x12C0 DUP7 DUP3 DUP8 ADD PUSH2 0x11FF JUMP JUMPDEST SWAP4 POP POP PUSH1 0x20 PUSH2 0x12D1 DUP7 DUP3 DUP8 ADD PUSH2 0x11FF JUMP JUMPDEST SWAP3 POP POP PUSH1 0x40 PUSH2 0x12E2 DUP7 DUP3 DUP8 ADD PUSH2 0x11FF JUMP JUMPDEST SWAP2 POP POP SWAP3 POP SWAP3 POP SWAP3 JUMP JUMPDEST PUSH1 0x0 DUP1 PUSH1 0x0 PUSH1 0x60 DUP5 DUP7 SUB SLT ISZERO PUSH2 0x1305 JUMPI PUSH2 0x1304 PUSH2 0x185A JUMP JUMPDEST JUMPDEST PUSH1 0x0 PUSH2 0x1313 DUP7 DUP3 DUP8 ADD PUSH2 0x11FF JUMP JUMPDEST SWAP4 POP POP PUSH1 0x20 DUP5 ADD CALLDATALOAD PUSH8 0xFFFFFFFFFFFFFFFF DUP2 GT ISZERO PUSH2 0x1334 JUMPI PUSH2 0x1333 PUSH2 0x1855 JUMP JUMPDEST JUMPDEST PUSH2 0x1340 DUP7 DUP3 DUP8 ADD PUSH2 0x1214 JUMP JUMPDEST SWAP3 POP POP PUSH1 0x40 PUSH2 0x1351 DUP7 DUP3 DUP8 ADD PUSH2 0x1257 JUMP JUMPDEST SWAP2 POP POP SWAP3 POP SWAP3 POP SWAP3 JUMP JUMPDEST PUSH1 0x0 PUSH1 0x20 DUP3 DUP5 SUB SLT ISZERO PUSH2 0x1371 JUMPI PUSH2 0x1370 PUSH2 0x185A JUMP JUMPDEST JUMPDEST PUSH1 0x0 PUSH2 0x137F DUP5 DUP3 DUP6 ADD PUSH2 0x1242 JUMP JUMPDEST SWAP2 POP POP SWAP3 SWAP2 POP POP JUMP JUMPDEST PUSH2 0x1391 DUP2 PUSH2 0x1681 JUMP JUMPDEST DUP3 MSTORE POP POP JUMP JUMPDEST PUSH2 0x13A0 DUP2 PUSH2 0x1693 JUMP JUMPDEST DUP3 MSTORE POP POP JUMP JUMPDEST PUSH2 0x13AF DUP2 PUSH2 0x1707 JUMP JUMPDEST DUP3 MSTORE POP POP JUMP JUMPDEST PUSH1 0x0 PUSH2 0x13C0 DUP3 PUSH2 0x1665 JUMP JUMPDEST PUSH2 0x13CA DUP2 DUP6 PUSH2 0x1670 JUMP JUMPDEST SWAP4 POP PUSH2 0x13DA DUP2 DUP6 PUSH1 0x20 DUP7 ADD PUSH2 0x1728 JUMP JUMPDEST PUSH2 0x13E3 DUP2 PUSH2 0x185F JUMP JUMPDEST DUP5 ADD SWAP2 POP POP SWAP3 SWAP2 POP POP JUMP JUMPDEST PUSH1 0x0 PUSH2 0x13FB PUSH1 0x1F DUP4 PUSH2 0x1670 JUMP JUMPDEST SWAP2 POP PUSH2 0x1406 DUP3 PUSH2 0x1870 JUMP JUMPDEST PUSH1 0x20 DUP3 ADD SWAP1 POP SWAP2 SWAP1 POP JUMP JUMPDEST PUSH1 0x0 PUSH2 0x141E PUSH1 0x17 DUP4 PUSH2 0x1670 JUMP JUMPDEST SWAP2 POP PUSH2 0x1429 DUP3 PUSH2 0x1899 JUMP JUMPDEST PUSH1 0x20 DUP3 ADD SWAP1 POP SWAP2 SWAP1 POP JUMP JUMPDEST PUSH2 0x143D DUP2 PUSH2 0x16B2 JUMP JUMPDEST DUP3 MSTORE POP POP JUMP JUMPDEST PUSH2 0x144C DUP2 PUSH2 0x16E0 JUMP JUMPDEST DUP3 MSTORE POP POP JUMP JUMPDEST PUSH2 0x145B DUP2 PUSH2 0x16EA JUMP JUMPDEST DUP3 MSTORE POP POP JUMP JUMPDEST PUSH2 0x146A DUP2 PUSH2 0x16FA JUMP JUMPDEST DUP3 MSTORE POP POP JUMP JUMPDEST PUSH1 0x0 PUSH1 0x20 DUP3 ADD SWAP1 POP PUSH2 0x1485 PUSH1 0x0 DUP4 ADD DUP5 PUSH2 0x1388 JUMP JUMPDEST SWAP3 SWAP2 POP POP JUMP JUMPDEST PUSH1 0x0 PUSH1 0x20 DUP3 ADD SWAP1 POP PUSH2 0x14A0 PUSH1 0x0 DUP4 ADD DUP5 PUSH2 0x1397 JUMP JUMPDEST SWAP3 SWAP2 POP POP JUMP JUMPDEST PUSH1 0x0 PUSH1 0xC0 DUP3 ADD SWAP1 POP PUSH2 0x14BB PUSH1 0x0 DUP4 ADD DUP10 PUSH2 0x1397 JUMP JUMPDEST PUSH2 0x14C8 PUSH1 0x20 DUP4 ADD DUP9 PUSH2 0x1388 JUMP JUMPDEST PUSH2 0x14D5 PUSH1 0x40 DUP4 ADD DUP8 PUSH2 0x1434 JUMP JUMPDEST PUSH2 0x14E2 PUSH1 0x60 DUP4 ADD DUP7 PUSH2 0x13A6 JUMP JUMPDEST DUP2 DUP2 SUB PUSH1 0x80 DUP4 ADD MSTORE PUSH2 0x14F4 DUP2 DUP6 PUSH2 0x13B5 JUMP JUMPDEST SWAP1 POP DUP2 DUP2 SUB PUSH1 0xA0 DUP4 ADD MSTORE PUSH2 0x1508 DUP2 DUP5 PUSH2 0x13B5 JUMP JUMPDEST SWAP1 POP SWAP8 SWAP7 POP POP POP POP POP POP POP JUMP JUMPDEST PUSH1 0x0 PUSH1 0x60 DUP3 ADD SWAP1 POP PUSH2 0x152A PUSH1 0x0 DUP4 ADD DUP7 PUSH2 0x1397 JUMP JUMPDEST DUP2 DUP2 SUB PUSH1 0x20 DUP4 ADD MSTORE PUSH2 0x153C DUP2 DUP6 PUSH2 0x13B5 JUMP JUMPDEST SWAP1 POP PUSH2 0x154B PUSH1 0x40 DUP4 ADD DUP5 PUSH2 0x1461 JUMP JUMPDEST SWAP5 SWAP4 POP POP POP POP JUMP JUMPDEST PUSH1 0x0 PUSH1 0x80 DUP3 ADD SWAP1 POP PUSH2 0x1568 PUSH1 0x0 DUP4 ADD DUP8 PUSH2 0x1397 JUMP JUMPDEST PUSH2 0x1575 PUSH1 0x20 DUP4 ADD DUP7 PUSH2 0x1461 JUMP JUMPDEST PUSH2 0x1582 PUSH1 0x40 DUP4 ADD DUP6 PUSH2 0x1443 JUMP JUMPDEST DUP2 DUP2 SUB PUSH1 0x60 DUP4 ADD MSTORE PUSH2 0x1594 DUP2 DUP5 PUSH2 0x13B5 JUMP JUMPDEST SWAP1 POP SWAP6 SWAP5 POP POP POP POP POP JUMP JUMPDEST PUSH1 0x0 PUSH1 0x20 DUP3 ADD SWAP1 POP DUP2 DUP2 SUB PUSH1 0x0 DUP4 ADD MSTORE PUSH2 0x15B8 DUP2 PUSH2 0x13EE JUMP JUMPDEST SWAP1 POP SWAP2 SWAP1 POP JUMP JUMPDEST PUSH1 0x0 PUSH1 0x20 DUP3 ADD SWAP1 POP DUP2 DUP2 SUB PUSH1 0x0 DUP4 ADD MSTORE PUSH2 0x15D8 DUP2 PUSH2 0x1411 JUMP JUMPDEST SWAP1 POP SWAP2 SWAP1 POP JUMP JUMPDEST PUSH1 0x0 PUSH1 0x40 DUP3 ADD SWAP1 POP PUSH2 0x15F4 PUSH1 0x0 DUP4 ADD DUP6 PUSH2 0x1452 JUMP JUMPDEST DUP2 DUP2 SUB PUSH1 0x20 DUP4 ADD MSTORE PUSH2 0x1606 DUP2 DUP5 PUSH2 0x13B5 JUMP JUMPDEST SWAP1 POP SWAP4 SWAP3 POP POP POP JUMP JUMPDEST PUSH1 0x0 PUSH2 0x1619 PUSH2 0x162A JUMP JUMPDEST SWAP1 POP PUSH2 0x1625 DUP3 DUP3 PUSH2 0x178D JUMP JUMPDEST SWAP2 SWAP1 POP JUMP JUMPDEST PUSH1 0x0 PUSH1 0x40 MLOAD SWAP1 POP SWAP1 JUMP JUMPDEST PUSH1 0x0 PUSH8 0xFFFFFFFFFFFFFFFF DUP3 GT ISZERO PUSH2 0x164F JUMPI PUSH2 0x164E PUSH2 0x181C JUMP JUMPDEST JUMPDEST PUSH2 0x1658 DUP3 PUSH2 0x185F JUMP JUMPDEST SWAP1 POP PUSH1 0x20 DUP2 ADD SWAP1 POP SWAP2 SWAP1 POP JUMP JUMPDEST PUSH1 0x0 DUP2 MLOAD SWAP1 POP SWAP2 SWAP1 POP JUMP JUMPDEST PUSH1 0x0 DUP3 DUP3 MSTORE PUSH1 0x20 DUP3 ADD SWAP1 POP SWAP3 SWAP2 POP POP JUMP JUMPDEST PUSH1 0x0 PUSH2 0x168C DUP3 PUSH2 0x16C0 JUMP JUMPDEST SWAP1 POP SWAP2 SWAP1 POP JUMP JUMPDEST PUSH1 0x0 DUP2 ISZERO ISZERO SWAP1 POP SWAP2 SWAP1 POP JUMP JUMPDEST PUSH1 0x0 DUP2 SWAP1 POP PUSH2 0x16AD DUP3 PUSH2 0x18C2 JUMP JUMPDEST SWAP2 SWAP1 POP JUMP JUMPDEST PUSH1 0x0 PUSH2 0xFFFF DUP3 AND SWAP1 POP SWAP2 SWAP1 POP JUMP JUMPDEST PUSH1 0x0 PUSH20 0xFFFFFFFFFFFFFFFFFFFFFFFFFFFFFFFFFFFFFFFF DUP3 AND SWAP1 POP SWAP2 SWAP1 POP JUMP JUMPDEST PUSH1 0x0 DUP2 SWAP1 POP SWAP2 SWAP1 POP JUMP JUMPDEST PUSH1 0x0 PUSH4 0xFFFFFFFF DUP3 AND SWAP1 POP SWAP2 SWAP1 POP JUMP JUMPDEST PUSH1 0x0 PUSH1 0xFF DUP3 AND SWAP1 POP SWAP2 SWAP1 POP JUMP JUMPDEST PUSH1 0x0 PUSH2 0x1712 DUP3 PUSH2 0x169F JUMP JUMPDEST SWAP1 POP SWAP2 SWAP1 POP JUMP JUMPDEST DUP3 DUP2 DUP4 CALLDATACOPY PUSH1 0x0 DUP4 DUP4 ADD MSTORE POP POP POP JUMP JUMPDEST PUSH1 0x0 JUMPDEST DUP4 DUP2 LT ISZERO PUSH2 0x1746 JUMPI DUP1 DUP3 ADD MLOAD DUP2 DUP5 ADD MSTORE PUSH1 0x20 DUP2 ADD SWAP1 POP PUSH2 0x172B JUMP JUMPDEST DUP4 DUP2 GT ISZERO PUSH2 0x1755 JUMPI PUSH1 0x0 DUP5 DUP5 ADD MSTORE JUMPDEST POP POP POP POP JUMP JUMPDEST PUSH1 0x0 PUSH1 0x2 DUP3 DIV SWAP1 POP PUSH1 0x1 DUP3 AND DUP1 PUSH2 0x1773 JUMPI PUSH1 0x7F DUP3 AND SWAP2 POP JUMPDEST PUSH1 0x20 DUP3 LT DUP2 EQ ISZERO PUSH2 0x1787 JUMPI PUSH2 0x1786 PUSH2 0x17ED JUMP JUMPDEST JUMPDEST POP SWAP2 SWAP1 POP JUMP JUMPDEST PUSH2 0x1796 DUP3 PUSH2 0x185F JUMP JUMPDEST DUP2 ADD DUP2 DUP2 LT PUSH8 0xFFFFFFFFFFFFFFFF DUP3 GT OR ISZERO PUSH2 0x17B5 JUMPI PUSH2 0x17B4 PUSH2 0x181C JUMP JUMPDEST JUMPDEST DUP1 PUSH1 0x40 MSTORE POP POP POP JUMP JUMPDEST PUSH32 0x4E487B7100000000000000000000000000000000000000000000000000000000 PUSH1 0x0 MSTORE PUSH1 0x21 PUSH1 0x4 MSTORE PUSH1 0x24 PUSH1 0x0 REVERT JUMPDEST PUSH32 0x4E487B7100000000000000000000000000000000000000000000000000000000 PUSH1 0x0 MSTORE PUSH1 0x22 PUSH1 0x4 MSTORE PUSH1 0x24 PUSH1 0x0 REVERT JUMPDEST PUSH32 0x4E487B7100000000000000000000000000000000000000000000000000000000 PUSH1 0x0 MSTORE PUSH1 0x41 PUSH1 0x4 MSTORE PUSH1 0x24 PUSH1 0x0 REVERT JUMPDEST PUSH1 0x0 DUP1 REVERT JUMPDEST PUSH1 0x0 DUP1 REVERT JUMPDEST PUSH1 0x0 DUP1 REVERT JUMPDEST PUSH1 0x0 DUP1 REVERT JUMPDEST PUSH1 0x0 PUSH1 0x1F NOT PUSH1 0x1F DUP4 ADD AND SWAP1 POP SWAP2 SWAP1 POP JUMP JUMPDEST PUSH32 0x53616465636520594F4B2062752069736C656D69207961706162696C69722E00 PUSH1 0x0 DUP3 ADD MSTORE POP JUMP JUMPDEST PUSH32 0x556E6976657273697465205A6174656E204D6576637574000000000000000000 PUSH1 0x0 DUP3 ADD MSTORE POP JUMP JUMPDEST PUSH1 0x4 DUP2 LT PUSH2 0x18D3 JUMPI PUSH2 0x18D2 PUSH2 0x17BE JUMP JUMPDEST JUMPDEST POP JUMP JUMPDEST PUSH2 0x18DF DUP2 PUSH2 0x1681 JUMP JUMPDEST DUP2 EQ PUSH2 0x18EA JUMPI PUSH1 0x0 DUP1 REVERT JUMPDEST POP JUMP JUMPDEST PUSH2 0x18F6 DUP2 PUSH2 0x16EA JUMP JUMPDEST DUP2 EQ PUSH2 0x1901 JUMPI PUSH1 0x0 DUP1 REVERT JUMPDEST POP JUMP JUMPDEST PUSH2 0x190D DUP2 PUSH2 0x16FA JUMP JUMPDEST DUP2 EQ PUSH2 0x1918 JUMPI PUSH1 0x0 DUP1 REVERT JUMPDEST POP JUMP INVALID LOG2 PUSH5 0x6970667358 0x22 SLT KECCAK256 DUP16 0xB4 CHAINID 0xDE 0xC1 DUP2 SWAP5 PUSH10 0x7E21CA6A13A8A5B5865 PUSH23 0xD3DAF66FB721D0B76B29AF20DA64736F6C634300080700 CALLER "
				},
				"gasEstimates": {
					"creation": {
						"codeDepositCost": "1296200",
						"executionCost": "1349",
						"totalCost": "1297549"
					},
					"external": {
						"YOK()": "2534",
						"akademisyenler(address)": "infinite",
						"diller(uint32)": "infinite",
						"ekleUniversite(address,string,uint8)": "infinite",
						"firmalar(address)": "infinite",
						"isFirma(address)": "2912",
						"isKamuKurumu(address)": "3000",
						"isKisi(address)": "2911",
						"isKurs(address)": "2935",
						"isSTK(address)": "2956",
						"isSertifikaMerkezi(address)": "2977",
						"isUniversite(address)": "2999",
						"kamuKurumlari(address)": "infinite",
						"kisiler(address)": "2936",
						"kurslar(address)": "infinite",
						"paydasTanimla(address,address,address)": "infinite",
						"sertifikaMerkezleri(address)": "infinite",
						"stklar(address)": "infinite",
						"universiteler(address)": "infinite"
					}
				},
				"methodIdentifiers": {
					"YOK()": "71af892d",
					"akademisyenler(address)": "ba479b7e",
					"diller(uint32)": "a4e7ae05",
					"ekleUniversite(address,string,uint8)": "001d54ab",
					"firmalar(address)": "39987f94",
					"isFirma(address)": "2d087d70",
					"isKamuKurumu(address)": "514e03c7",
					"isKisi(address)": "b98ccefd",
					"isKurs(address)": "024eb6bc",
					"isSTK(address)": "8c848885",
					"isSertifikaMerkezi(address)": "e24047ca",
					"isUniversite(address)": "f0040eb9",
					"kamuKurumlari(address)": "7d0fa287",
					"kisiler(address)": "cbc92809",
					"kurslar(address)": "1916e139",
					"paydasTanimla(address,address,address)": "36fd2633",
					"sertifikaMerkezleri(address)": "356b1f1e",
					"stklar(address)": "9a8c9119",
					"universiteler(address)": "28266697"
				}
			},
			"storageLayout": {
				"storage": [
					{
						"astId": 3,
						"contract": "contracts/BaseContract.sol:BaseContract",
						"label": "YOK",
						"offset": 0,
						"slot": "0",
						"type": "t_address"
					},
					{
						"astId": 5,
						"contract": "contracts/BaseContract.sol:BaseContract",
						"label": "TOBB",
						"offset": 0,
						"slot": "1",
						"type": "t_address"
					},
					{
						"astId": 7,
						"contract": "contracts/BaseContract.sol:BaseContract",
						"label": "CB",
						"offset": 0,
						"slot": "2",
						"type": "t_address"
					},
					{
						"astId": 354,
						"contract": "contracts/BaseContract.sol:BaseContract",
						"label": "kisiler",
						"offset": 0,
						"slot": "3",
						"type": "t_mapping(t_address,t_struct(Kisi)10_storage)"
					},
					{
						"astId": 359,
						"contract": "contracts/BaseContract.sol:BaseContract",
						"label": "universiteler",
						"offset": 0,
						"slot": "4",
						"type": "t_mapping(t_address,t_struct(Universite)43_storage)"
					},
					{
						"astId": 364,
						"contract": "contracts/BaseContract.sol:BaseContract",
						"label": "akademisyenler",
						"offset": 0,
						"slot": "5",
						"type": "t_mapping(t_address,t_struct(Akademisyen)57_storage)"
					},
					{
						"astId": 369,
						"contract": "contracts/BaseContract.sol:BaseContract",
						"label": "firmalar",
						"offset": 0,
						"slot": "6",
						"type": "t_mapping(t_address,t_struct(Firma)97_storage)"
					},
					{
						"astId": 374,
						"contract": "contracts/BaseContract.sol:BaseContract",
						"label": "kurslar",
						"offset": 0,
						"slot": "7",
						"type": "t_mapping(t_address,t_struct(Kurs)125_storage)"
					},
					{
						"astId": 379,
						"contract": "contracts/BaseContract.sol:BaseContract",
						"label": "kamuKurumlari",
						"offset": 0,
						"slot": "8",
						"type": "t_mapping(t_address,t_struct(KamuKurumu)104_storage)"
					},
					{
						"astId": 384,
						"contract": "contracts/BaseContract.sol:BaseContract",
						"label": "stklar",
						"offset": 0,
						"slot": "9",
						"type": "t_mapping(t_address,t_struct(STK)111_storage)"
					},
					{
						"astId": 389,
						"contract": "contracts/BaseContract.sol:BaseContract",
						"label": "sertifikaMerkezleri",
						"offset": 0,
						"slot": "10",
						"type": "t_mapping(t_address,t_struct(SertifikaMerkezi)118_storage)"
					},
					{
						"astId": 394,
						"contract": "contracts/BaseContract.sol:BaseContract",
						"label": "diller",
						"offset": 0,
						"slot": "11",
						"type": "t_mapping(t_uint32,t_struct(YabanciDil)130_storage)"
					}
				],
				"types": {
					"t_address": {
						"encoding": "inplace",
						"label": "address",
						"numberOfBytes": "20"
					},
					"t_bool": {
						"encoding": "inplace",
						"label": "bool",
						"numberOfBytes": "1"
					},
					"t_enum(Unvan)62": {
						"encoding": "inplace",
						"label": "enum BaseContract.Unvan",
						"numberOfBytes": "1"
					},
					"t_mapping(t_address,t_struct(Akademisyen)57_storage)": {
						"encoding": "mapping",
						"key": "t_address",
						"label": "mapping(address => struct BaseContract.Akademisyen)",
						"numberOfBytes": "32",
						"value": "t_struct(Akademisyen)57_storage"
					},
					"t_mapping(t_address,t_struct(Firma)97_storage)": {
						"encoding": "mapping",
						"key": "t_address",
						"label": "mapping(address => struct BaseContract.Firma)",
						"numberOfBytes": "32",
						"value": "t_struct(Firma)97_storage"
					},
					"t_mapping(t_address,t_struct(KamuKurumu)104_storage)": {
						"encoding": "mapping",
						"key": "t_address",
						"label": "mapping(address => struct BaseContract.KamuKurumu)",
						"numberOfBytes": "32",
						"value": "t_struct(KamuKurumu)104_storage"
					},
					"t_mapping(t_address,t_struct(Kisi)10_storage)": {
						"encoding": "mapping",
						"key": "t_address",
						"label": "mapping(address => struct BaseContract.Kisi)",
						"numberOfBytes": "32",
						"value": "t_struct(Kisi)10_storage"
					},
					"t_mapping(t_address,t_struct(Kurs)125_storage)": {
						"encoding": "mapping",
						"key": "t_address",
						"label": "mapping(address => struct BaseContract.Kurs)",
						"numberOfBytes": "32",
						"value": "t_struct(Kurs)125_storage"
					},
					"t_mapping(t_address,t_struct(STK)111_storage)": {
						"encoding": "mapping",
						"key": "t_address",
						"label": "mapping(address => struct BaseContract.STK)",
						"numberOfBytes": "32",
						"value": "t_struct(STK)111_storage"
					},
					"t_mapping(t_address,t_struct(SertifikaMerkezi)118_storage)": {
						"encoding": "mapping",
						"key": "t_address",
						"label": "mapping(address => struct BaseContract.SertifikaMerkezi)",
						"numberOfBytes": "32",
						"value": "t_struct(SertifikaMerkezi)118_storage"
					},
					"t_mapping(t_address,t_struct(Universite)43_storage)": {
						"encoding": "mapping",
						"key": "t_address",
						"label": "mapping(address => struct BaseContract.Universite)",
						"numberOfBytes": "32",
						"value": "t_struct(Universite)43_storage"
					},
					"t_mapping(t_uint32,t_struct(YabanciDil)130_storage)": {
						"encoding": "mapping",
						"key": "t_uint32",
						"label": "mapping(uint32 => struct BaseContract.YabanciDil)",
						"numberOfBytes": "32",
						"value": "t_struct(YabanciDil)130_storage"
					},
					"t_string_storage": {
						"encoding": "bytes",
						"label": "string",
						"numberOfBytes": "32"
					},
					"t_struct(Akademisyen)57_storage": {
						"encoding": "inplace",
						"label": "struct BaseContract.Akademisyen",
						"members": [
							{
								"astId": 45,
								"contract": "contracts/BaseContract.sol:BaseContract",
								"label": "durum",
								"offset": 0,
								"slot": "0",
								"type": "t_bool"
							},
							{
								"astId": 47,
								"contract": "contracts/BaseContract.sol:BaseContract",
								"label": "universite",
								"offset": 1,
								"slot": "0",
								"type": "t_address"
							},
							{
								"astId": 49,
								"contract": "contracts/BaseContract.sol:BaseContract",
								"label": "bolum",
								"offset": 21,
								"slot": "0",
								"type": "t_uint16"
							},
							{
								"astId": 52,
								"contract": "contracts/BaseContract.sol:BaseContract",
								"label": "unvan",
								"offset": 23,
								"slot": "0",
								"type": "t_enum(Unvan)62"
							},
							{
								"astId": 54,
								"contract": "contracts/BaseContract.sol:BaseContract",
								"label": "ad",
								"offset": 0,
								"slot": "1",
								"type": "t_string_storage"
							},
							{
								"astId": 56,
								"contract": "contracts/BaseContract.sol:BaseContract",
								"label": "soyad",
								"offset": 0,
								"slot": "2",
								"type": "t_string_storage"
							}
						],
						"numberOfBytes": "96"
					},
					"t_struct(Firma)97_storage": {
						"encoding": "inplace",
						"label": "struct BaseContract.Firma",
						"members": [
							{
								"astId": 90,
								"contract": "contracts/BaseContract.sol:BaseContract",
								"label": "durum",
								"offset": 0,
								"slot": "0",
								"type": "t_bool"
							},
							{
								"astId": 92,
								"contract": "contracts/BaseContract.sol:BaseContract",
								"label": "ulke",
								"offset": 1,
								"slot": "0",
								"type": "t_uint8"
							},
							{
								"astId": 94,
								"contract": "contracts/BaseContract.sol:BaseContract",
								"label": "vergiNo",
								"offset": 0,
								"slot": "1",
								"type": "t_uint256"
							},
							{
								"astId": 96,
								"contract": "contracts/BaseContract.sol:BaseContract",
								"label": "isim",
								"offset": 0,
								"slot": "2",
								"type": "t_string_storage"
							}
						],
						"numberOfBytes": "96"
					},
					"t_struct(KamuKurumu)104_storage": {
						"encoding": "inplace",
						"label": "struct BaseContract.KamuKurumu",
						"members": [
							{
								"astId": 99,
								"contract": "contracts/BaseContract.sol:BaseContract",
								"label": "durum",
								"offset": 0,
								"slot": "0",
								"type": "t_bool"
							},
							{
								"astId": 101,
								"contract": "contracts/BaseContract.sol:BaseContract",
								"label": "isim",
								"offset": 0,
								"slot": "1",
								"type": "t_string_storage"
							},
							{
								"astId": 103,
								"contract": "contracts/BaseContract.sol:BaseContract",
								"label": "ulke",
								"offset": 0,
								"slot": "2",
								"type": "t_uint8"
							}
						],
						"numberOfBytes": "96"
					},
					"t_struct(Kisi)10_storage": {
						"encoding": "inplace",
						"label": "struct BaseContract.Kisi",
						"members": [
							{
								"astId": 9,
								"contract": "contracts/BaseContract.sol:BaseContract",
								"label": "durum",
								"offset": 0,
								"slot": "0",
								"type": "t_bool"
							}
						],
						"numberOfBytes": "32"
					},
					"t_struct(Kurs)125_storage": {
						"encoding": "inplace",
						"label": "struct BaseContract.Kurs",
						"members": [
							{
								"astId": 120,
								"contract": "contracts/BaseContract.sol:BaseContract",
								"label": "durum",
								"offset": 0,
								"slot": "0",
								"type": "t_bool"
							},
							{
								"astId": 122,
								"contract": "contracts/BaseContract.sol:BaseContract",
								"label": "isim",
								"offset": 0,
								"slot": "1",
								"type": "t_string_storage"
							},
							{
								"astId": 124,
								"contract": "contracts/BaseContract.sol:BaseContract",
								"label": "ulke",
								"offset": 0,
								"slot": "2",
								"type": "t_uint8"
							}
						],
						"numberOfBytes": "96"
					},
					"t_struct(STK)111_storage": {
						"encoding": "inplace",
						"label": "struct BaseContract.STK",
						"members": [
							{
								"astId": 106,
								"contract": "contracts/BaseContract.sol:BaseContract",
								"label": "durum",
								"offset": 0,
								"slot": "0",
								"type": "t_bool"
							},
							{
								"astId": 108,
								"contract": "contracts/BaseContract.sol:BaseContract",
								"label": "isim",
								"offset": 0,
								"slot": "1",
								"type": "t_string_storage"
							},
							{
								"astId": 110,
								"contract": "contracts/BaseContract.sol:BaseContract",
								"label": "ulke",
								"offset": 0,
								"slot": "2",
								"type": "t_uint8"
							}
						],
						"numberOfBytes": "96"
					},
					"t_struct(SertifikaMerkezi)118_storage": {
						"encoding": "inplace",
						"label": "struct BaseContract.SertifikaMerkezi",
						"members": [
							{
								"astId": 113,
								"contract": "contracts/BaseContract.sol:BaseContract",
								"label": "durum",
								"offset": 0,
								"slot": "0",
								"type": "t_bool"
							},
							{
								"astId": 115,
								"contract": "contracts/BaseContract.sol:BaseContract",
								"label": "isim",
								"offset": 0,
								"slot": "1",
								"type": "t_string_storage"
							},
							{
								"astId": 117,
								"contract": "contracts/BaseContract.sol:BaseContract",
								"label": "ulke",
								"offset": 0,
								"slot": "2",
								"type": "t_uint8"
							}
						],
						"numberOfBytes": "96"
					},
					"t_struct(Universite)43_storage": {
						"encoding": "inplace",
						"label": "struct BaseContract.Universite",
						"members": [
							{
								"astId": 38,
								"contract": "contracts/BaseContract.sol:BaseContract",
								"label": "durum",
								"offset": 0,
								"slot": "0",
								"type": "t_bool"
							},
							{
								"astId": 40,
								"contract": "contracts/BaseContract.sol:BaseContract",
								"label": "isim",
								"offset": 0,
								"slot": "1",
								"type": "t_string_storage"
							},
							{
								"astId": 42,
								"contract": "contracts/BaseContract.sol:BaseContract",
								"label": "ulke",
								"offset": 0,
								"slot": "2",
								"type": "t_uint8"
							}
						],
						"numberOfBytes": "96"
					},
					"t_struct(YabanciDil)130_storage": {
						"encoding": "inplace",
						"label": "struct BaseContract.YabanciDil",
						"members": [
							{
								"astId": 127,
								"contract": "contracts/BaseContract.sol:BaseContract",
								"label": "id",
								"offset": 0,
								"slot": "0",
								"type": "t_uint32"
							},
							{
								"astId": 129,
								"contract": "contracts/BaseContract.sol:BaseContract",
								"label": "isim",
								"offset": 0,
								"slot": "1",
								"type": "t_string_storage"
							}
						],
						"numberOfBytes": "64"
					},
					"t_uint16": {
						"encoding": "inplace",
						"label": "uint16",
						"numberOfBytes": "2"
					},
					"t_uint256": {
						"encoding": "inplace",
						"label": "uint256",
						"numberOfBytes": "32"
					},
					"t_uint32": {
						"encoding": "inplace",
						"label": "uint32",
						"numberOfBytes": "4"
					},
					"t_uint8": {
						"encoding": "inplace",
						"label": "uint8",
						"numberOfBytes": "1"
					}
				}
			},
			"userdoc": {
				"kind": "user",
				"methods": {},
				"version": 1
			}
		}
	}
}