{
	"contracts/KisiselBilgisi.sol": {
		"KisiselBilgisi": {
			"abi": [
				{
					"anonymous": false,
					"inputs": [
						{
							"indexed": false,
							"internalType": "address",
							"name": "_kisiAddress",
							"type": "address"
						},
						{
							"indexed": false,
							"internalType": "string",
							"name": "_ad",
							"type": "string"
						},
						{
							"indexed": false,
							"internalType": "string",
							"name": "_soyad",
							"type": "string"
						},
						{
							"indexed": false,
							"internalType": "uint16",
							"name": "_dogumYil",
							"type": "uint16"
						}
					],
					"name": "KisiselBilgiEklendiLog",
					"type": "event"
				},
				{
					"anonymous": false,
					"inputs": [
						{
							"indexed": false,
							"internalType": "address",
							"name": "_kisiAddress",
							"type": "address"
						},
						{
							"indexed": false,
							"internalType": "string",
							"name": "_ad",
							"type": "string"
						},
						{
							"indexed": false,
							"internalType": "string",
							"name": "_soyad",
							"type": "string"
						},
						{
							"indexed": false,
							"internalType": "uint16",
							"name": "_dogumYil",
							"type": "uint16"
						}
					],
					"name": "KisiselBilgiGuncellendiLog",
					"type": "event"
				},
				{
					"inputs": [
						{
							"internalType": "address",
							"name": "",
							"type": "address"
						}
					],
					"name": "akademisyenler",
					"outputs": [
						{
							"internalType": "bool",
							"name": "durum",
							"type": "bool"
						},
						{
							"internalType": "address",
							"name": "universite",
							"type": "address"
						},
						{
							"internalType": "uint16",
							"name": "bolum",
							"type": "uint16"
						},
						{
							"internalType": "enum BaseContract.Unvan",
							"name": "unvan",
							"type": "uint8"
						},
						{
							"internalType": "string",
							"name": "ad",
							"type": "string"
						},
						{
							"internalType": "string",
							"name": "soyad",
							"type": "string"
						}
					],
					"stateMutability": "view",
					"type": "function"
				},
				{
					"inputs": [
						{
							"internalType": "uint32",
							"name": "",
							"type": "uint32"
						}
					],
					"name": "diller",
					"outputs": [
						{
							"internalType": "uint32",
							"name": "id",
							"type": "uint32"
						},
						{
							"internalType": "string",
							"name": "isim",
							"type": "string"
						}
					],
					"stateMutability": "view",
					"type": "function"
				},
				{
					"inputs": [
						{
							"internalType": "address",
							"name": "_kisiAddress",
							"type": "address"
						},
						{
							"internalType": "string",
							"name": "ad",
							"type": "string"
						},
						{
							"internalType": "string",
							"name": "soyad",
							"type": "string"
						},
						{
							"internalType": "uint8",
							"name": "ulkeId",
							"type": "uint8"
						},
						{
							"internalType": "uint32",
							"name": "sehirId",
							"type": "uint32"
						},
						{
							"internalType": "string",
							"name": "telefon",
							"type": "string"
						},
						{
							"internalType": "enum BaseContract.Cinsiyet",
							"name": "cinsiyet",
							"type": "uint8"
						},
						{
							"internalType": "enum BaseContract.AskerlikDurum",
							"name": "askerlikDurum",
							"type": "uint8"
						},
						{
							"internalType": "uint8",
							"name": "uyrukId",
							"type": "uint8"
						},
						{
							"internalType": "enum BaseContract.EhliyetDurum",
							"name": "ehliyetDurum",
							"type": "uint8"
						},
						{
							"internalType": "uint16",
							"name": "dogumYil",
							"type": "uint16"
						}
					],
					"name": "ekleKisiselBilgi",
					"outputs": [],
					"stateMutability": "nonpayable",
					"type": "function"
				},
				{
					"inputs": [
						{
							"internalType": "address",
							"name": "",
							"type": "address"
						}
					],
					"name": "firmalar",
					"outputs": [
						{
							"internalType": "bool",
							"name": "durum",
							"type": "bool"
						},
						{
							"internalType": "uint8",
							"name": "ulke",
							"type": "uint8"
						},
						{
							"internalType": "uint256",
							"name": "vergiNo",
							"type": "uint256"
						},
						{
							"internalType": "string",
							"name": "isim",
							"type": "string"
						}
					],
					"stateMutability": "view",
					"type": "function"
				},
				{
					"inputs": [
						{
							"internalType": "address",
							"name": "_kisiAddress",
							"type": "address"
						},
						{
							"internalType": "string",
							"name": "ad",
							"type": "string"
						},
						{
							"internalType": "string",
							"name": "soyad",
							"type": "string"
						},
						{
							"internalType": "uint8",
							"name": "ulkeId",
							"type": "uint8"
						},
						{
							"internalType": "uint32",
							"name": "sehirId",
							"type": "uint32"
						},
						{
							"internalType": "string",
							"name": "telefon",
							"type": "string"
						},
						{
							"internalType": "enum BaseContract.Cinsiyet",
							"name": "cinsiyet",
							"type": "uint8"
						},
						{
							"internalType": "enum BaseContract.AskerlikDurum",
							"name": "askerlikDurum",
							"type": "uint8"
						},
						{
							"internalType": "uint8",
							"name": "uyrukId",
							"type": "uint8"
						},
						{
							"internalType": "enum BaseContract.EhliyetDurum",
							"name": "ehliyetDurum",
							"type": "uint8"
						},
						{
							"internalType": "uint16",
							"name": "dogumYil",
							"type": "uint16"
						}
					],
					"name": "guncelleKisiselBilgi",
					"outputs": [
						{
							"internalType": "address",
							"name": "",
							"type": "address"
						}
					],
					"stateMutability": "nonpayable",
					"type": "function"
				},
				{
					"inputs": [
						{
							"internalType": "address",
							"name": "",
							"type": "address"
						}
					],
					"name": "kamuKurumlari",
					"outputs": [
						{
							"internalType": "bool",
							"name": "durum",
							"type": "bool"
						},
						{
							"internalType": "string",
							"name": "isim",
							"type": "string"
						},
						{
							"internalType": "uint8",
							"name": "ulke",
							"type": "uint8"
						}
					],
					"stateMutability": "view",
					"type": "function"
				},
				{
					"inputs": [
						{
							"internalType": "address",
							"name": "",
							"type": "address"
						}
					],
					"name": "kisiler",
					"outputs": [
						{
							"internalType": "bool",
							"name": "durum",
							"type": "bool"
						}
					],
					"stateMutability": "view",
					"type": "function"
				},
				{
					"inputs": [
						{
							"internalType": "address",
							"name": "",
							"type": "address"
						}
					],
					"name": "kisiselBilgisi",
					"outputs": [
						{
							"internalType": "string",
							"name": "ad",
							"type": "string"
						},
						{
							"internalType": "string",
							"name": "soyad",
							"type": "string"
						},
						{
							"internalType": "uint8",
							"name": "ulkeId",
							"type": "uint8"
						},
						{
							"internalType": "uint32",
							"name": "sehirId",
							"type": "uint32"
						},
						{
							"internalType": "string",
							"name": "telefon",
							"type": "string"
						},
						{
							"internalType": "enum BaseContract.Cinsiyet",
							"name": "cinsiyet",
							"type": "uint8"
						},
						{
							"internalType": "enum BaseContract.AskerlikDurum",
							"name": "askerlikDurum",
							"type": "uint8"
						},
						{
							"internalType": "uint8",
							"name": "uyrukId",
							"type": "uint8"
						},
						{
							"internalType": "enum BaseContract.EhliyetDurum",
							"name": "ehliyetDurum",
							"type": "uint8"
						},
						{
							"internalType": "uint16",
							"name": "dogumYil",
							"type": "uint16"
						}
					],
					"stateMutability": "view",
					"type": "function"
				},
				{
					"inputs": [
						{
							"internalType": "address",
							"name": "",
							"type": "address"
						}
					],
					"name": "kurslar",
					"outputs": [
						{
							"internalType": "bool",
							"name": "durum",
							"type": "bool"
						},
						{
							"internalType": "string",
							"name": "isim",
							"type": "string"
						},
						{
							"internalType": "uint8",
							"name": "ulke",
							"type": "uint8"
						}
					],
					"stateMutability": "view",
					"type": "function"
				},
				{
					"inputs": [
						{
							"internalType": "address",
							"name": "",
							"type": "address"
						}
					],
					"name": "sertifikaMerkezleri",
					"outputs": [
						{
							"internalType": "bool",
							"name": "durum",
							"type": "bool"
						},
						{
							"internalType": "string",
							"name": "isim",
							"type": "string"
						},
						{
							"internalType": "uint8",
							"name": "ulke",
							"type": "uint8"
						}
					],
					"stateMutability": "view",
					"type": "function"
				},
				{
					"inputs": [
						{
							"internalType": "address",
							"name": "",
							"type": "address"
						}
					],
					"name": "stklar",
					"outputs": [
						{
							"internalType": "bool",
							"name": "durum",
							"type": "bool"
						},
						{
							"internalType": "string",
							"name": "isim",
							"type": "string"
						},
						{
							"internalType": "uint8",
							"name": "ulke",
							"type": "uint8"
						}
					],
					"stateMutability": "view",
					"type": "function"
				},
				{
					"inputs": [
						{
							"internalType": "address",
							"name": "",
							"type": "address"
						}
					],
					"name": "universiteler",
					"outputs": [
						{
							"internalType": "bool",
							"name": "durum",
							"type": "bool"
						},
						{
							"internalType": "string",
							"name": "isim",
							"type": "string"
						},
						{
							"internalType": "uint8",
							"name": "ulke",
							"type": "uint8"
						}
					],
					"stateMutability": "view",
					"type": "function"
				}
			],
			"devdoc": {
				"kind": "dev",
				"methods": {},
				"version": 1
			},
			"evm": {
				"assembly": "    /* \"contracts/KisiselBilgisi.sol\":106:3079  contract KisiselBilgisi is BaseContract{\r... */\n  mstore(0x40, 0x80)\n  callvalue\n  dup1\n  iszero\n  tag_1\n  jumpi\n  0x00\n  dup1\n  revert\ntag_1:\n  pop\n  dataSize(sub_0)\n  dup1\n  dataOffset(sub_0)\n  0x00\n  codecopy\n  0x00\n  return\nstop\n\nsub_0: assembly {\n        /* \"contracts/KisiselBilgisi.sol\":106:3079  contract KisiselBilgisi is BaseContract{\r... */\n      mstore(0x40, 0x80)\n      callvalue\n      dup1\n      iszero\n      tag_1\n      jumpi\n      0x00\n      dup1\n      revert\n    tag_1:\n      pop\n      jumpi(tag_2, lt(calldatasize, 0x04))\n      shr(0xe0, calldataload(0x00))\n      dup1\n      0x39987f94\n      gt\n      tag_15\n      jumpi\n      dup1\n      0x39987f94\n      eq\n      tag_9\n      jumpi\n      dup1\n      0x7d0fa287\n      eq\n      tag_10\n      jumpi\n      dup1\n      0x9a8c9119\n      eq\n      tag_11\n      jumpi\n      dup1\n      0xa4e7ae05\n      eq\n      tag_12\n      jumpi\n      dup1\n      0xba479b7e\n      eq\n      tag_13\n      jumpi\n      dup1\n      0xcbc92809\n      eq\n      tag_14\n      jumpi\n      jump(tag_2)\n    tag_15:\n      dup1\n      0x06064a3e\n      eq\n      tag_3\n      jumpi\n      dup1\n      0x1916e139\n      eq\n      tag_4\n      jumpi\n      dup1\n      0x28266697\n      eq\n      tag_5\n      jumpi\n      dup1\n      0x317c82d1\n      eq\n      tag_6\n      jumpi\n      dup1\n      0x33c19554\n      eq\n      tag_7\n      jumpi\n      dup1\n      0x356b1f1e\n      eq\n      tag_8\n      jumpi\n    tag_2:\n      0x00\n      dup1\n      revert\n        /* \"contracts/KisiselBilgisi.sol\":766:1877  function ekleKisiselBilgi(address _kisiAddress, string memory ad, string memory soyad, uint8 ulkeId, uint32 sehirId, string memory telefon, Cinsiyet cinsiyet, AskerlikDurum askerlikDurum, uint8 uyrukId, EhliyetDurum ehliyetDurum, uint16 dogumYil)  public {\r... */\n    tag_3:\n      tag_16\n      0x04\n      dup1\n      calldatasize\n      sub\n      dup2\n      add\n      swap1\n      tag_17\n      swap2\n      swap1\n      tag_18\n      jump\t// in\n    tag_17:\n      tag_19\n      jump\t// in\n    tag_16:\n      stop\n        /* \"contracts/BaseContract.sol\":2951:2989  mapping(address=>Kurs) public  kurslar */\n    tag_4:\n      tag_20\n      0x04\n      dup1\n      calldatasize\n      sub\n      dup2\n      add\n      swap1\n      tag_21\n      swap2\n      swap1\n      tag_22\n      jump\t// in\n    tag_21:\n      tag_23\n      jump\t// in\n    tag_20:\n      mload(0x40)\n      tag_24\n      swap4\n      swap3\n      swap2\n      swap1\n      tag_25\n      jump\t// in\n    tag_24:\n      mload(0x40)\n      dup1\n      swap2\n      sub\n      swap1\n      return\n        /* \"contracts/BaseContract.sol\":2790:2839  mapping(address=>Universite) public universiteler */\n    tag_5:\n      tag_26\n      0x04\n      dup1\n      calldatasize\n      sub\n      dup2\n      add\n      swap1\n      tag_27\n      swap2\n      swap1\n      tag_22\n      jump\t// in\n    tag_27:\n      tag_28\n      jump\t// in\n    tag_26:\n      mload(0x40)\n      tag_29\n      swap4\n      swap3\n      swap2\n      swap1\n      tag_25\n      jump\t// in\n    tag_29:\n      mload(0x40)\n      dup1\n      swap2\n      sub\n      swap1\n      return\n        /* \"contracts/KisiselBilgisi.sol\":1889:3070  function guncelleKisiselBilgi(address _kisiAddress,  string memory ad, string memory soyad, uint8 ulkeId, uint32 sehirId, string memory telefon, Cinsiyet cinsiyet, AskerlikDurum askerlikDurum, uint8 uyrukId, EhliyetDurum ehliyetDurum, uint16 dogumYil)  public  returns(address){\r... */\n    tag_6:\n      tag_30\n      0x04\n      dup1\n      calldatasize\n      sub\n      dup2\n      add\n      swap1\n      tag_31\n      swap2\n      swap1\n      tag_18\n      jump\t// in\n    tag_31:\n      tag_32\n      jump\t// in\n    tag_30:\n      mload(0x40)\n      tag_33\n      swap2\n      swap1\n      tag_34\n      jump\t// in\n    tag_33:\n      mload(0x40)\n      dup1\n      swap2\n      sub\n      swap1\n      return\n        /* \"contracts/KisiselBilgisi.sol\":484:536  mapping(address=>KisiselBilgi) public kisiselBilgisi */\n    tag_7:\n      tag_35\n      0x04\n      dup1\n      calldatasize\n      sub\n      dup2\n      add\n      swap1\n      tag_36\n      swap2\n      swap1\n      tag_22\n      jump\t// in\n    tag_36:\n      tag_37\n      jump\t// in\n    tag_35:\n      mload(0x40)\n      tag_38\n      swap11\n      swap10\n      swap9\n      swap8\n      swap7\n      swap6\n      swap5\n      swap4\n      swap3\n      swap2\n      swap1\n      tag_39\n      jump\t// in\n    tag_38:\n      mload(0x40)\n      dup1\n      swap2\n      sub\n      swap1\n      return\n        /* \"contracts/BaseContract.sol\":3094:3155  mapping(address=>SertifikaMerkezi) public sertifikaMerkezleri */\n    tag_8:\n      tag_40\n      0x04\n      dup1\n      calldatasize\n      sub\n      dup2\n      add\n      swap1\n      tag_41\n      swap2\n      swap1\n      tag_22\n      jump\t// in\n    tag_41:\n      tag_42\n      jump\t// in\n    tag_40:\n      mload(0x40)\n      tag_43\n      swap4\n      swap3\n      swap2\n      swap1\n      tag_25\n      jump\t// in\n    tag_43:\n      mload(0x40)\n      dup1\n      swap2\n      sub\n      swap1\n      return\n        /* \"contracts/BaseContract.sol\":2904:2944  mapping(address=>Firma) public  firmalar */\n    tag_9:\n      tag_44\n      0x04\n      dup1\n      calldatasize\n      sub\n      dup2\n      add\n      swap1\n      tag_45\n      swap2\n      swap1\n      tag_22\n      jump\t// in\n    tag_45:\n      tag_46\n      jump\t// in\n    tag_44:\n      mload(0x40)\n      tag_47\n      swap5\n      swap4\n      swap3\n      swap2\n      swap1\n      tag_48\n      jump\t// in\n    tag_47:\n      mload(0x40)\n      dup1\n      swap2\n      sub\n      swap1\n      return\n        /* \"contracts/BaseContract.sol\":2996:3045  mapping(address=>KamuKurumu) public kamuKurumlari */\n    tag_10:\n      tag_49\n      0x04\n      dup1\n      calldatasize\n      sub\n      dup2\n      add\n      swap1\n      tag_50\n      swap2\n      swap1\n      tag_22\n      jump\t// in\n    tag_50:\n      tag_51\n      jump\t// in\n    tag_49:\n      mload(0x40)\n      tag_52\n      swap4\n      swap3\n      swap2\n      swap1\n      tag_25\n      jump\t// in\n    tag_52:\n      mload(0x40)\n      dup1\n      swap2\n      sub\n      swap1\n      return\n        /* \"contracts/BaseContract.sol\":3052:3087  mapping(address=>STK) public stklar */\n    tag_11:\n      tag_53\n      0x04\n      dup1\n      calldatasize\n      sub\n      dup2\n      add\n      swap1\n      tag_54\n      swap2\n      swap1\n      tag_22\n      jump\t// in\n    tag_54:\n      tag_55\n      jump\t// in\n    tag_53:\n      mload(0x40)\n      tag_56\n      swap4\n      swap3\n      swap2\n      swap1\n      tag_25\n      jump\t// in\n    tag_56:\n      mload(0x40)\n      dup1\n      swap2\n      sub\n      swap1\n      return\n        /* \"contracts/BaseContract.sol\":3165:3206  mapping(uint32=>YabanciDil) public diller */\n    tag_12:\n      tag_57\n      0x04\n      dup1\n      calldatasize\n      sub\n      dup2\n      add\n      swap1\n      tag_58\n      swap2\n      swap1\n      tag_59\n      jump\t// in\n    tag_58:\n      tag_60\n      jump\t// in\n    tag_57:\n      mload(0x40)\n      tag_61\n      swap3\n      swap2\n      swap1\n      tag_62\n      jump\t// in\n    tag_61:\n      mload(0x40)\n      dup1\n      swap2\n      sub\n      swap1\n      return\n        /* \"contracts/BaseContract.sol\":2846:2897  mapping(address=>Akademisyen) public akademisyenler */\n    tag_13:\n      tag_63\n      0x04\n      dup1\n      calldatasize\n      sub\n      dup2\n      add\n      swap1\n      tag_64\n      swap2\n      swap1\n      tag_22\n      jump\t// in\n    tag_64:\n      tag_65\n      jump\t// in\n    tag_63:\n      mload(0x40)\n      tag_66\n      swap7\n      swap6\n      swap5\n      swap4\n      swap3\n      swap2\n      swap1\n      tag_67\n      jump\t// in\n    tag_66:\n      mload(0x40)\n      dup1\n      swap2\n      sub\n      swap1\n      return\n        /* \"contracts/BaseContract.sol\":2746:2783  mapping(address=>Kisi) public kisiler */\n    tag_14:\n      tag_68\n      0x04\n      dup1\n      calldatasize\n      sub\n      dup2\n      add\n      swap1\n      tag_69\n      swap2\n      swap1\n      tag_22\n      jump\t// in\n    tag_69:\n      tag_70\n      jump\t// in\n    tag_68:\n      mload(0x40)\n      tag_71\n      swap2\n      swap1\n      tag_72\n      jump\t// in\n    tag_71:\n      mload(0x40)\n      dup1\n      swap2\n      sub\n      swap1\n      return\n        /* \"contracts/KisiselBilgisi.sol\":766:1877  function ekleKisiselBilgi(address _kisiAddress, string memory ad, string memory soyad, uint8 ulkeId, uint32 sehirId, string memory telefon, Cinsiyet cinsiyet, AskerlikDurum askerlikDurum, uint8 uyrukId, EhliyetDurum ehliyetDurum, uint16 dogumYil)  public {\r... */\n    tag_19:\n        /* \"contracts/KisiselBilgisi.sol\":1045:1052  kisiler */\n      0x03\n        /* \"contracts/KisiselBilgisi.sol\":1045:1066  kisiler[_kisiAddress] */\n      0x00\n        /* \"contracts/KisiselBilgisi.sol\":1053:1065  _kisiAddress */\n      dup13\n        /* \"contracts/KisiselBilgisi.sol\":1045:1066  kisiler[_kisiAddress] */\n      0xffffffffffffffffffffffffffffffffffffffff\n      and\n      0xffffffffffffffffffffffffffffffffffffffff\n      and\n      dup2\n      mstore\n      0x20\n      add\n      swap1\n      dup2\n      mstore\n      0x20\n      add\n      0x00\n      keccak256\n        /* \"contracts/KisiselBilgisi.sol\":1045:1072  kisiler[_kisiAddress].durum */\n      0x00\n      add\n      0x00\n      swap1\n      sload\n      swap1\n      0x0100\n      exp\n      swap1\n      div\n      0xff\n      and\n        /* \"contracts/KisiselBilgisi.sol\":1037:1093  require(kisiler[_kisiAddress].durum,\"Kisi mevcut degil\") */\n      tag_74\n      jumpi\n      mload(0x40)\n      0x08c379a000000000000000000000000000000000000000000000000000000000\n      dup2\n      mstore\n      0x04\n      add\n      tag_75\n      swap1\n      tag_76\n      jump\t// in\n    tag_75:\n      mload(0x40)\n      dup1\n      swap2\n      sub\n      swap1\n      revert\n    tag_74:\n        /* \"contracts/KisiselBilgisi.sol\":1145:1764  KisiselBilgi(ad,\r... */\n      mload(0x40)\n      dup1\n      0x0140\n      add\n      0x40\n      mstore\n      dup1\n        /* \"contracts/KisiselBilgisi.sol\":1158:1160  ad */\n      dup12\n        /* \"contracts/KisiselBilgisi.sol\":1145:1764  KisiselBilgi(ad,\r... */\n      dup2\n      mstore\n      0x20\n      add\n        /* \"contracts/KisiselBilgisi.sol\":1219:1224  soyad */\n      dup11\n        /* \"contracts/KisiselBilgisi.sol\":1145:1764  KisiselBilgi(ad,\r... */\n      dup2\n      mstore\n      0x20\n      add\n        /* \"contracts/KisiselBilgisi.sol\":1283:1289  ulkeId */\n      dup10\n        /* \"contracts/KisiselBilgisi.sol\":1145:1764  KisiselBilgi(ad,\r... */\n      0xff\n      and\n      dup2\n      mstore\n      0x20\n      add\n        /* \"contracts/KisiselBilgisi.sol\":1348:1355  sehirId */\n      dup9\n        /* \"contracts/KisiselBilgisi.sol\":1145:1764  KisiselBilgi(ad,\r... */\n      0xffffffff\n      and\n      dup2\n      mstore\n      0x20\n      add\n        /* \"contracts/KisiselBilgisi.sol\":1414:1421  telefon */\n      dup8\n        /* \"contracts/KisiselBilgisi.sol\":1145:1764  KisiselBilgi(ad,\r... */\n      dup2\n      mstore\n      0x20\n      add\n        /* \"contracts/KisiselBilgisi.sol\":1480:1488  cinsiyet */\n      dup7\n        /* \"contracts/KisiselBilgisi.sol\":1145:1764  KisiselBilgi(ad,\r... */\n      0x01\n      dup2\n      gt\n      iszero\n      tag_77\n      jumpi\n      tag_78\n      tag_79\n      jump\t// in\n    tag_78:\n    tag_77:\n      dup2\n      mstore\n      0x20\n      add\n        /* \"contracts/KisiselBilgisi.sol\":1547:1560  askerlikDurum */\n      dup6\n        /* \"contracts/KisiselBilgisi.sol\":1145:1764  KisiselBilgi(ad,\r... */\n      0x02\n      dup2\n      gt\n      iszero\n      tag_80\n      jumpi\n      tag_81\n      tag_79\n      jump\t// in\n    tag_81:\n    tag_80:\n      dup2\n      mstore\n      0x20\n      add\n        /* \"contracts/KisiselBilgisi.sol\":1619:1626  uyrukId */\n      dup5\n        /* \"contracts/KisiselBilgisi.sol\":1145:1764  KisiselBilgi(ad,\r... */\n      0xff\n      and\n      dup2\n      mstore\n      0x20\n      add\n        /* \"contracts/KisiselBilgisi.sol\":1685:1697  ehliyetDurum */\n      dup4\n        /* \"contracts/KisiselBilgisi.sol\":1145:1764  KisiselBilgi(ad,\r... */\n      0x05\n      dup2\n      gt\n      iszero\n      tag_82\n      jumpi\n      tag_83\n      tag_79\n      jump\t// in\n    tag_83:\n    tag_82:\n      dup2\n      mstore\n      0x20\n      add\n        /* \"contracts/KisiselBilgisi.sol\":1755:1763  dogumYil */\n      dup3\n        /* \"contracts/KisiselBilgisi.sol\":1145:1764  KisiselBilgi(ad,\r... */\n      0xffff\n      and\n      dup2\n      mstore\n      pop\n        /* \"contracts/KisiselBilgisi.sol\":1116:1130  kisiselBilgisi */\n      0x0c\n        /* \"contracts/KisiselBilgisi.sol\":1116:1144  kisiselBilgisi[_kisiAddress] */\n      0x00\n        /* \"contracts/KisiselBilgisi.sol\":1131:1143  _kisiAddress */\n      dup14\n        /* \"contracts/KisiselBilgisi.sol\":1116:1144  kisiselBilgisi[_kisiAddress] */\n      0xffffffffffffffffffffffffffffffffffffffff\n      and\n      0xffffffffffffffffffffffffffffffffffffffff\n      and\n      dup2\n      mstore\n      0x20\n      add\n      swap1\n      dup2\n      mstore\n      0x20\n      add\n      0x00\n      keccak256\n        /* \"contracts/KisiselBilgisi.sol\":1116:1764  kisiselBilgisi[_kisiAddress]=KisiselBilgi(ad,\r... */\n      0x00\n      dup3\n      add\n      mload\n      dup2\n      0x00\n      add\n      swap1\n      dup1\n      mload\n      swap1\n      0x20\n      add\n      swap1\n      tag_84\n      swap3\n      swap2\n      swap1\n      tag_85\n      jump\t// in\n    tag_84:\n      pop\n      0x20\n      dup3\n      add\n      mload\n      dup2\n      0x01\n      add\n      swap1\n      dup1\n      mload\n      swap1\n      0x20\n      add\n      swap1\n      tag_86\n      swap3\n      swap2\n      swap1\n      tag_85\n      jump\t// in\n    tag_86:\n      pop\n      0x40\n      dup3\n      add\n      mload\n      dup2\n      0x02\n      add\n      exp(0x0100, 0x00)\n      dup2\n      sload\n      dup2\n      0xff\n      mul\n      not\n      and\n      swap1\n      dup4\n      0xff\n      and\n      mul\n      or\n      swap1\n      sstore\n      pop\n      0x60\n      dup3\n      add\n      mload\n      dup2\n      0x02\n      add\n      exp(0x0100, 0x01)\n      dup2\n      sload\n      dup2\n      0xffffffff\n      mul\n      not\n      and\n      swap1\n      dup4\n      0xffffffff\n      and\n      mul\n      or\n      swap1\n      sstore\n      pop\n      0x80\n      dup3\n      add\n      mload\n      dup2\n      0x03\n      add\n      swap1\n      dup1\n      mload\n      swap1\n      0x20\n      add\n      swap1\n      tag_87\n      swap3\n      swap2\n      swap1\n      tag_85\n      jump\t// in\n    tag_87:\n      pop\n      0xa0\n      dup3\n      add\n      mload\n      dup2\n      0x04\n      add\n      exp(0x0100, 0x00)\n      dup2\n      sload\n      dup2\n      0xff\n      mul\n      not\n      and\n      swap1\n      dup4\n      0x01\n      dup2\n      gt\n      iszero\n      tag_88\n      jumpi\n      tag_89\n      tag_79\n      jump\t// in\n    tag_89:\n    tag_88:\n      mul\n      or\n      swap1\n      sstore\n      pop\n      0xc0\n      dup3\n      add\n      mload\n      dup2\n      0x04\n      add\n      exp(0x0100, 0x01)\n      dup2\n      sload\n      dup2\n      0xff\n      mul\n      not\n      and\n      swap1\n      dup4\n      0x02\n      dup2\n      gt\n      iszero\n      tag_90\n      jumpi\n      tag_91\n      tag_79\n      jump\t// in\n    tag_91:\n    tag_90:\n      mul\n      or\n      swap1\n      sstore\n      pop\n      0xe0\n      dup3\n      add\n      mload\n      dup2\n      0x04\n      add\n      exp(0x0100, 0x02)\n      dup2\n      sload\n      dup2\n      0xff\n      mul\n      not\n      and\n      swap1\n      dup4\n      0xff\n      and\n      mul\n      or\n      swap1\n      sstore\n      pop\n      0x0100\n      dup3\n      add\n      mload\n      dup2\n      0x04\n      add\n      exp(0x0100, 0x03)\n      dup2\n      sload\n      dup2\n      0xff\n      mul\n      not\n      and\n      swap1\n      dup4\n      0x05\n      dup2\n      gt\n      iszero\n      tag_92\n      jumpi\n      tag_93\n      tag_79\n      jump\t// in\n    tag_93:\n    tag_92:\n      mul\n      or\n      swap1\n      sstore\n      pop\n      0x0120\n      dup3\n      add\n      mload\n      dup2\n      0x04\n      add\n      exp(0x0100, 0x04)\n      dup2\n      sload\n      dup2\n      0xffff\n      mul\n      not\n      and\n      swap1\n      dup4\n      0xffff\n      and\n      mul\n      or\n      swap1\n      sstore\n      pop\n      swap1\n      pop\n      pop\n        /* \"contracts/KisiselBilgisi.sol\":1809:1865  KisiselBilgiEklendiLog(_kisiAddress,ad, soyad, dogumYil) */\n      0x86c26b4f75e4e12a40a04d26a4583f8f27616a2d920a48848d5a6c3c938466df\n        /* \"contracts/KisiselBilgisi.sol\":1832:1844  _kisiAddress */\n      dup12\n        /* \"contracts/KisiselBilgisi.sol\":1845:1847  ad */\n      dup12\n        /* \"contracts/KisiselBilgisi.sol\":1849:1854  soyad */\n      dup12\n        /* \"contracts/KisiselBilgisi.sol\":1856:1864  dogumYil */\n      dup5\n        /* \"contracts/KisiselBilgisi.sol\":1809:1865  KisiselBilgiEklendiLog(_kisiAddress,ad, soyad, dogumYil) */\n      mload(0x40)\n      tag_94\n      swap5\n      swap4\n      swap3\n      swap2\n      swap1\n      tag_95\n      jump\t// in\n    tag_94:\n      mload(0x40)\n      dup1\n      swap2\n      sub\n      swap1\n      log1\n        /* \"contracts/KisiselBilgisi.sol\":766:1877  function ekleKisiselBilgi(address _kisiAddress, string memory ad, string memory soyad, uint8 ulkeId, uint32 sehirId, string memory telefon, Cinsiyet cinsiyet, AskerlikDurum askerlikDurum, uint8 uyrukId, EhliyetDurum ehliyetDurum, uint16 dogumYil)  public {\r... */\n      pop\n      pop\n      pop\n      pop\n      pop\n      pop\n      pop\n      pop\n      pop\n      pop\n      pop\n      jump\t// out\n        /* \"contracts/BaseContract.sol\":2951:2989  mapping(address=>Kurs) public  kurslar */\n    tag_23:\n      mstore(0x20, 0x07)\n      dup1\n      0x00\n      mstore\n      keccak256(0x00, 0x40)\n      0x00\n      swap2\n      pop\n      swap1\n      pop\n      dup1\n      0x00\n      add\n      0x00\n      swap1\n      sload\n      swap1\n      0x0100\n      exp\n      swap1\n      div\n      0xff\n      and\n      swap1\n      dup1\n      0x01\n      add\n      dup1\n      sload\n      tag_96\n      swap1\n      tag_97\n      jump\t// in\n    tag_96:\n      dup1\n      0x1f\n      add\n      0x20\n      dup1\n      swap2\n      div\n      mul\n      0x20\n      add\n      mload(0x40)\n      swap1\n      dup2\n      add\n      0x40\n      mstore\n      dup1\n      swap3\n      swap2\n      swap1\n      dup2\n      dup2\n      mstore\n      0x20\n      add\n      dup3\n      dup1\n      sload\n      tag_98\n      swap1\n      tag_97\n      jump\t// in\n    tag_98:\n      dup1\n      iszero\n      tag_99\n      jumpi\n      dup1\n      0x1f\n      lt\n      tag_100\n      jumpi\n      0x0100\n      dup1\n      dup4\n      sload\n      div\n      mul\n      dup4\n      mstore\n      swap2\n      0x20\n      add\n      swap2\n      jump(tag_99)\n    tag_100:\n      dup3\n      add\n      swap2\n      swap1\n      0x00\n      mstore\n      keccak256(0x00, 0x20)\n      swap1\n    tag_101:\n      dup2\n      sload\n      dup2\n      mstore\n      swap1\n      0x01\n      add\n      swap1\n      0x20\n      add\n      dup1\n      dup4\n      gt\n      tag_101\n      jumpi\n      dup3\n      swap1\n      sub\n      0x1f\n      and\n      dup3\n      add\n      swap2\n    tag_99:\n      pop\n      pop\n      pop\n      pop\n      pop\n      swap1\n      dup1\n      0x02\n      add\n      0x00\n      swap1\n      sload\n      swap1\n      0x0100\n      exp\n      swap1\n      div\n      0xff\n      and\n      swap1\n      pop\n      dup4\n      jump\t// out\n        /* \"contracts/BaseContract.sol\":2790:2839  mapping(address=>Universite) public universiteler */\n    tag_28:\n      mstore(0x20, 0x04)\n      dup1\n      0x00\n      mstore\n      keccak256(0x00, 0x40)\n      0x00\n      swap2\n      pop\n      swap1\n      pop\n      dup1\n      0x00\n      add\n      0x00\n      swap1\n      sload\n      swap1\n      0x0100\n      exp\n      swap1\n      div\n      0xff\n      and\n      swap1\n      dup1\n      0x01\n      add\n      dup1\n      sload\n      tag_102\n      swap1\n      tag_97\n      jump\t// in\n    tag_102:\n      dup1\n      0x1f\n      add\n      0x20\n      dup1\n      swap2\n      div\n      mul\n      0x20\n      add\n      mload(0x40)\n      swap1\n      dup2\n      add\n      0x40\n      mstore\n      dup1\n      swap3\n      swap2\n      swap1\n      dup2\n      dup2\n      mstore\n      0x20\n      add\n      dup3\n      dup1\n      sload\n      tag_103\n      swap1\n      tag_97\n      jump\t// in\n    tag_103:\n      dup1\n      iszero\n      tag_104\n      jumpi\n      dup1\n      0x1f\n      lt\n      tag_105\n      jumpi\n      0x0100\n      dup1\n      dup4\n      sload\n      div\n      mul\n      dup4\n      mstore\n      swap2\n      0x20\n      add\n      swap2\n      jump(tag_104)\n    tag_105:\n      dup3\n      add\n      swap2\n      swap1\n      0x00\n      mstore\n      keccak256(0x00, 0x20)\n      swap1\n    tag_106:\n      dup2\n      sload\n      dup2\n      mstore\n      swap1\n      0x01\n      add\n      swap1\n      0x20\n      add\n      dup1\n      dup4\n      gt\n      tag_106\n      jumpi\n      dup3\n      swap1\n      sub\n      0x1f\n      and\n      dup3\n      add\n      swap2\n    tag_104:\n      pop\n      pop\n      pop\n      pop\n      pop\n      swap1\n      dup1\n      0x02\n      add\n      0x00\n      swap1\n      sload\n      swap1\n      0x0100\n      exp\n      swap1\n      div\n      0xff\n      and\n      swap1\n      pop\n      dup4\n      jump\t// out\n        /* \"contracts/KisiselBilgisi.sol\":1889:3070  function guncelleKisiselBilgi(address _kisiAddress,  string memory ad, string memory soyad, uint8 ulkeId, uint32 sehirId, string memory telefon, Cinsiyet cinsiyet, AskerlikDurum askerlikDurum, uint8 uyrukId, EhliyetDurum ehliyetDurum, uint16 dogumYil)  public  returns(address){\r... */\n    tag_32:\n        /* \"contracts/KisiselBilgisi.sol\":2158:2165  address */\n      0x00\n        /* \"contracts/KisiselBilgisi.sol\":2193:2200  kisiler */\n      0x03\n        /* \"contracts/KisiselBilgisi.sol\":2193:2214  kisiler[_kisiAddress] */\n      0x00\n        /* \"contracts/KisiselBilgisi.sol\":2201:2213  _kisiAddress */\n      dup14\n        /* \"contracts/KisiselBilgisi.sol\":2193:2214  kisiler[_kisiAddress] */\n      0xffffffffffffffffffffffffffffffffffffffff\n      and\n      0xffffffffffffffffffffffffffffffffffffffff\n      and\n      dup2\n      mstore\n      0x20\n      add\n      swap1\n      dup2\n      mstore\n      0x20\n      add\n      0x00\n      keccak256\n        /* \"contracts/KisiselBilgisi.sol\":2193:2220  kisiler[_kisiAddress].durum */\n      0x00\n      add\n      0x00\n      swap1\n      sload\n      swap1\n      0x0100\n      exp\n      swap1\n      div\n      0xff\n      and\n        /* \"contracts/KisiselBilgisi.sol\":2185:2241  require(kisiler[_kisiAddress].durum,\"Kisi mevcut degil\") */\n      tag_108\n      jumpi\n      mload(0x40)\n      0x08c379a000000000000000000000000000000000000000000000000000000000\n      dup2\n      mstore\n      0x04\n      add\n      tag_109\n      swap1\n      tag_76\n      jump\t// in\n    tag_109:\n      mload(0x40)\n      dup1\n      swap2\n      sub\n      swap1\n      revert\n    tag_108:\n        /* \"contracts/KisiselBilgisi.sol\":2309:2929  KisiselBilgi(ad,\r... */\n      mload(0x40)\n      dup1\n      0x0140\n      add\n      0x40\n      mstore\n      dup1\n        /* \"contracts/KisiselBilgisi.sol\":2322:2324  ad */\n      dup13\n        /* \"contracts/KisiselBilgisi.sol\":2309:2929  KisiselBilgi(ad,\r... */\n      dup2\n      mstore\n      0x20\n      add\n        /* \"contracts/KisiselBilgisi.sol\":2383:2388  soyad */\n      dup12\n        /* \"contracts/KisiselBilgisi.sol\":2309:2929  KisiselBilgi(ad,\r... */\n      dup2\n      mstore\n      0x20\n      add\n        /* \"contracts/KisiselBilgisi.sol\":2447:2453  ulkeId */\n      dup11\n        /* \"contracts/KisiselBilgisi.sol\":2309:2929  KisiselBilgi(ad,\r... */\n      0xff\n      and\n      dup2\n      mstore\n      0x20\n      add\n        /* \"contracts/KisiselBilgisi.sol\":2512:2519  sehirId */\n      dup10\n        /* \"contracts/KisiselBilgisi.sol\":2309:2929  KisiselBilgi(ad,\r... */\n      0xffffffff\n      and\n      dup2\n      mstore\n      0x20\n      add\n        /* \"contracts/KisiselBilgisi.sol\":2578:2585  telefon */\n      dup9\n        /* \"contracts/KisiselBilgisi.sol\":2309:2929  KisiselBilgi(ad,\r... */\n      dup2\n      mstore\n      0x20\n      add\n        /* \"contracts/KisiselBilgisi.sol\":2644:2652  cinsiyet */\n      dup8\n        /* \"contracts/KisiselBilgisi.sol\":2309:2929  KisiselBilgi(ad,\r... */\n      0x01\n      dup2\n      gt\n      iszero\n      tag_110\n      jumpi\n      tag_111\n      tag_79\n      jump\t// in\n    tag_111:\n    tag_110:\n      dup2\n      mstore\n      0x20\n      add\n        /* \"contracts/KisiselBilgisi.sol\":2711:2724  askerlikDurum */\n      dup7\n        /* \"contracts/KisiselBilgisi.sol\":2309:2929  KisiselBilgi(ad,\r... */\n      0x02\n      dup2\n      gt\n      iszero\n      tag_112\n      jumpi\n      tag_113\n      tag_79\n      jump\t// in\n    tag_113:\n    tag_112:\n      dup2\n      mstore\n      0x20\n      add\n        /* \"contracts/KisiselBilgisi.sol\":2783:2790  uyrukId */\n      dup6\n        /* \"contracts/KisiselBilgisi.sol\":2309:2929  KisiselBilgi(ad,\r... */\n      0xff\n      and\n      dup2\n      mstore\n      0x20\n      add\n        /* \"contracts/KisiselBilgisi.sol\":2849:2861  ehliyetDurum */\n      dup5\n        /* \"contracts/KisiselBilgisi.sol\":2309:2929  KisiselBilgi(ad,\r... */\n      0x05\n      dup2\n      gt\n      iszero\n      tag_114\n      jumpi\n      tag_115\n      tag_79\n      jump\t// in\n    tag_115:\n    tag_114:\n      dup2\n      mstore\n      0x20\n      add\n        /* \"contracts/KisiselBilgisi.sol\":2920:2928  dogumYil */\n      dup4\n        /* \"contracts/KisiselBilgisi.sol\":2309:2929  KisiselBilgi(ad,\r... */\n      0xffff\n      and\n      dup2\n      mstore\n      pop\n        /* \"contracts/KisiselBilgisi.sol\":2280:2294  kisiselBilgisi */\n      0x0c\n        /* \"contracts/KisiselBilgisi.sol\":2280:2308  kisiselBilgisi[_kisiAddress] */\n      0x00\n        /* \"contracts/KisiselBilgisi.sol\":2295:2307  _kisiAddress */\n      dup15\n        /* \"contracts/KisiselBilgisi.sol\":2280:2308  kisiselBilgisi[_kisiAddress] */\n      0xffffffffffffffffffffffffffffffffffffffff\n      and\n      0xffffffffffffffffffffffffffffffffffffffff\n      and\n      dup2\n      mstore\n      0x20\n      add\n      swap1\n      dup2\n      mstore\n      0x20\n      add\n      0x00\n      keccak256\n        /* \"contracts/KisiselBilgisi.sol\":2280:2929  kisiselBilgisi[_kisiAddress]=KisiselBilgi(ad,\r... */\n      0x00\n      dup3\n      add\n      mload\n      dup2\n      0x00\n      add\n      swap1\n      dup1\n      mload\n      swap1\n      0x20\n      add\n      swap1\n      tag_116\n      swap3\n      swap2\n      swap1\n      tag_85\n      jump\t// in\n    tag_116:\n      pop\n      0x20\n      dup3\n      add\n      mload\n      dup2\n      0x01\n      add\n      swap1\n      dup1\n      mload\n      swap1\n      0x20\n      add\n      swap1\n      tag_117\n      swap3\n      swap2\n      swap1\n      tag_85\n      jump\t// in\n    tag_117:\n      pop\n      0x40\n      dup3\n      add\n      mload\n      dup2\n      0x02\n      add\n      exp(0x0100, 0x00)\n      dup2\n      sload\n      dup2\n      0xff\n      mul\n      not\n      and\n      swap1\n      dup4\n      0xff\n      and\n      mul\n      or\n      swap1\n      sstore\n      pop\n      0x60\n      dup3\n      add\n      mload\n      dup2\n      0x02\n      add\n      exp(0x0100, 0x01)\n      dup2\n      sload\n      dup2\n      0xffffffff\n      mul\n      not\n      and\n      swap1\n      dup4\n      0xffffffff\n      and\n      mul\n      or\n      swap1\n      sstore\n      pop\n      0x80\n      dup3\n      add\n      mload\n      dup2\n      0x03\n      add\n      swap1\n      dup1\n      mload\n      swap1\n      0x20\n      add\n      swap1\n      tag_118\n      swap3\n      swap2\n      swap1\n      tag_85\n      jump\t// in\n    tag_118:\n      pop\n      0xa0\n      dup3\n      add\n      mload\n      dup2\n      0x04\n      add\n      exp(0x0100, 0x00)\n      dup2\n      sload\n      dup2\n      0xff\n      mul\n      not\n      and\n      swap1\n      dup4\n      0x01\n      dup2\n      gt\n      iszero\n      tag_119\n      jumpi\n      tag_120\n      tag_79\n      jump\t// in\n    tag_120:\n    tag_119:\n      mul\n      or\n      swap1\n      sstore\n      pop\n      0xc0\n      dup3\n      add\n      mload\n      dup2\n      0x04\n      add\n      exp(0x0100, 0x01)\n      dup2\n      sload\n      dup2\n      0xff\n      mul\n      not\n      and\n      swap1\n      dup4\n      0x02\n      dup2\n      gt\n      iszero\n      tag_121\n      jumpi\n      tag_122\n      tag_79\n      jump\t// in\n    tag_122:\n    tag_121:\n      mul\n      or\n      swap1\n      sstore\n      pop\n      0xe0\n      dup3\n      add\n      mload\n      dup2\n      0x04\n      add\n      exp(0x0100, 0x02)\n      dup2\n      sload\n      dup2\n      0xff\n      mul\n      not\n      and\n      swap1\n      dup4\n      0xff\n      and\n      mul\n      or\n      swap1\n      sstore\n      pop\n      0x0100\n      dup3\n      add\n      mload\n      dup2\n      0x04\n      add\n      exp(0x0100, 0x03)\n      dup2\n      sload\n      dup2\n      0xff\n      mul\n      not\n      and\n      swap1\n      dup4\n      0x05\n      dup2\n      gt\n      iszero\n      tag_123\n      jumpi\n      tag_124\n      tag_79\n      jump\t// in\n    tag_124:\n    tag_123:\n      mul\n      or\n      swap1\n      sstore\n      pop\n      0x0120\n      dup3\n      add\n      mload\n      dup2\n      0x04\n      add\n      exp(0x0100, 0x04)\n      dup2\n      sload\n      dup2\n      0xffff\n      mul\n      not\n      and\n      swap1\n      dup4\n      0xffff\n      and\n      mul\n      or\n      swap1\n      sstore\n      pop\n      swap1\n      pop\n      pop\n        /* \"contracts/KisiselBilgisi.sol\":2955:3015  KisiselBilgiGuncellendiLog(_kisiAddress,ad, soyad, dogumYil) */\n      0x63d87ed42ba706260aaa2ff2521f5a2810503763d2e120a4f8bcc29cb14e08ee\n        /* \"contracts/KisiselBilgisi.sol\":2982:2994  _kisiAddress */\n      dup13\n        /* \"contracts/KisiselBilgisi.sol\":2995:2997  ad */\n      dup13\n        /* \"contracts/KisiselBilgisi.sol\":2999:3004  soyad */\n      dup13\n        /* \"contracts/KisiselBilgisi.sol\":3006:3014  dogumYil */\n      dup6\n        /* \"contracts/KisiselBilgisi.sol\":2955:3015  KisiselBilgiGuncellendiLog(_kisiAddress,ad, soyad, dogumYil) */\n      mload(0x40)\n      tag_125\n      swap5\n      swap4\n      swap3\n      swap2\n      swap1\n      tag_95\n      jump\t// in\n    tag_125:\n      mload(0x40)\n      dup1\n      swap2\n      sub\n      swap1\n      log1\n        /* \"contracts/KisiselBilgisi.sol\":3044:3056  _kisiAddress */\n      dup12\n        /* \"contracts/KisiselBilgisi.sol\":3034:3056  return    _kisiAddress */\n      swap1\n      pop\n        /* \"contracts/KisiselBilgisi.sol\":1889:3070  function guncelleKisiselBilgi(address _kisiAddress,  string memory ad, string memory soyad, uint8 ulkeId, uint32 sehirId, string memory telefon, Cinsiyet cinsiyet, AskerlikDurum askerlikDurum, uint8 uyrukId, EhliyetDurum ehliyetDurum, uint16 dogumYil)  public  returns(address){\r... */\n      swap12\n      swap11\n      pop\n      pop\n      pop\n      pop\n      pop\n      pop\n      pop\n      pop\n      pop\n      pop\n      pop\n      jump\t// out\n        /* \"contracts/KisiselBilgisi.sol\":484:536  mapping(address=>KisiselBilgi) public kisiselBilgisi */\n    tag_37:\n      mstore(0x20, 0x0c)\n      dup1\n      0x00\n      mstore\n      keccak256(0x00, 0x40)\n      0x00\n      swap2\n      pop\n      swap1\n      pop\n      dup1\n      0x00\n      add\n      dup1\n      sload\n      tag_126\n      swap1\n      tag_97\n      jump\t// in\n    tag_126:\n      dup1\n      0x1f\n      add\n      0x20\n      dup1\n      swap2\n      div\n      mul\n      0x20\n      add\n      mload(0x40)\n      swap1\n      dup2\n      add\n      0x40\n      mstore\n      dup1\n      swap3\n      swap2\n      swap1\n      dup2\n      dup2\n      mstore\n      0x20\n      add\n      dup3\n      dup1\n      sload\n      tag_127\n      swap1\n      tag_97\n      jump\t// in\n    tag_127:\n      dup1\n      iszero\n      tag_128\n      jumpi\n      dup1\n      0x1f\n      lt\n      tag_129\n      jumpi\n      0x0100\n      dup1\n      dup4\n      sload\n      div\n      mul\n      dup4\n      mstore\n      swap2\n      0x20\n      add\n      swap2\n      jump(tag_128)\n    tag_129:\n      dup3\n      add\n      swap2\n      swap1\n      0x00\n      mstore\n      keccak256(0x00, 0x20)\n      swap1\n    tag_130:\n      dup2\n      sload\n      dup2\n      mstore\n      swap1\n      0x01\n      add\n      swap1\n      0x20\n      add\n      dup1\n      dup4\n      gt\n      tag_130\n      jumpi\n      dup3\n      swap1\n      sub\n      0x1f\n      and\n      dup3\n      add\n      swap2\n    tag_128:\n      pop\n      pop\n      pop\n      pop\n      pop\n      swap1\n      dup1\n      0x01\n      add\n      dup1\n      sload\n      tag_131\n      swap1\n      tag_97\n      jump\t// in\n    tag_131:\n      dup1\n      0x1f\n      add\n      0x20\n      dup1\n      swap2\n      div\n      mul\n      0x20\n      add\n      mload(0x40)\n      swap1\n      dup2\n      add\n      0x40\n      mstore\n      dup1\n      swap3\n      swap2\n      swap1\n      dup2\n      dup2\n      mstore\n      0x20\n      add\n      dup3\n      dup1\n      sload\n      tag_132\n      swap1\n      tag_97\n      jump\t// in\n    tag_132:\n      dup1\n      iszero\n      tag_133\n      jumpi\n      dup1\n      0x1f\n      lt\n      tag_134\n      jumpi\n      0x0100\n      dup1\n      dup4\n      sload\n      div\n      mul\n      dup4\n      mstore\n      swap2\n      0x20\n      add\n      swap2\n      jump(tag_133)\n    tag_134:\n      dup3\n      add\n      swap2\n      swap1\n      0x00\n      mstore\n      keccak256(0x00, 0x20)\n      swap1\n    tag_135:\n      dup2\n      sload\n      dup2\n      mstore\n      swap1\n      0x01\n      add\n      swap1\n      0x20\n      add\n      dup1\n      dup4\n      gt\n      tag_135\n      jumpi\n      dup3\n      swap1\n      sub\n      0x1f\n      and\n      dup3\n      add\n      swap2\n    tag_133:\n      pop\n      pop\n      pop\n      pop\n      pop\n      swap1\n      dup1\n      0x02\n      add\n      0x00\n      swap1\n      sload\n      swap1\n      0x0100\n      exp\n      swap1\n      div\n      0xff\n      and\n      swap1\n      dup1\n      0x02\n      add\n      0x01\n      swap1\n      sload\n      swap1\n      0x0100\n      exp\n      swap1\n      div\n      0xffffffff\n      and\n      swap1\n      dup1\n      0x03\n      add\n      dup1\n      sload\n      tag_136\n      swap1\n      tag_97\n      jump\t// in\n    tag_136:\n      dup1\n      0x1f\n      add\n      0x20\n      dup1\n      swap2\n      div\n      mul\n      0x20\n      add\n      mload(0x40)\n      swap1\n      dup2\n      add\n      0x40\n      mstore\n      dup1\n      swap3\n      swap2\n      swap1\n      dup2\n      dup2\n      mstore\n      0x20\n      add\n      dup3\n      dup1\n      sload\n      tag_137\n      swap1\n      tag_97\n      jump\t// in\n    tag_137:\n      dup1\n      iszero\n      tag_138\n      jumpi\n      dup1\n      0x1f\n      lt\n      tag_139\n      jumpi\n      0x0100\n      dup1\n      dup4\n      sload\n      div\n      mul\n      dup4\n      mstore\n      swap2\n      0x20\n      add\n      swap2\n      jump(tag_138)\n    tag_139:\n      dup3\n      add\n      swap2\n      swap1\n      0x00\n      mstore\n      keccak256(0x00, 0x20)\n      swap1\n    tag_140:\n      dup2\n      sload\n      dup2\n      mstore\n      swap1\n      0x01\n      add\n      swap1\n      0x20\n      add\n      dup1\n      dup4\n      gt\n      tag_140\n      jumpi\n      dup3\n      swap1\n      sub\n      0x1f\n      and\n      dup3\n      add\n      swap2\n    tag_138:\n      pop\n      pop\n      pop\n      pop\n      pop\n      swap1\n      dup1\n      0x04\n      add\n      0x00\n      swap1\n      sload\n      swap1\n      0x0100\n      exp\n      swap1\n      div\n      0xff\n      and\n      swap1\n      dup1\n      0x04\n      add\n      0x01\n      swap1\n      sload\n      swap1\n      0x0100\n      exp\n      swap1\n      div\n      0xff\n      and\n      swap1\n      dup1\n      0x04\n      add\n      0x02\n      swap1\n      sload\n      swap1\n      0x0100\n      exp\n      swap1\n      div\n      0xff\n      and\n      swap1\n      dup1\n      0x04\n      add\n      0x03\n      swap1\n      sload\n      swap1\n      0x0100\n      exp\n      swap1\n      div\n      0xff\n      and\n      swap1\n      dup1\n      0x04\n      add\n      0x04\n      swap1\n      sload\n      swap1\n      0x0100\n      exp\n      swap1\n      div\n      0xffff\n      and\n      swap1\n      pop\n      dup11\n      jump\t// out\n        /* \"contracts/BaseContract.sol\":3094:3155  mapping(address=>SertifikaMerkezi) public sertifikaMerkezleri */\n    tag_42:\n      mstore(0x20, 0x0a)\n      dup1\n      0x00\n      mstore\n      keccak256(0x00, 0x40)\n      0x00\n      swap2\n      pop\n      swap1\n      pop\n      dup1\n      0x00\n      add\n      0x00\n      swap1\n      sload\n      swap1\n      0x0100\n      exp\n      swap1\n      div\n      0xff\n      and\n      swap1\n      dup1\n      0x01\n      add\n      dup1\n      sload\n      tag_141\n      swap1\n      tag_97\n      jump\t// in\n    tag_141:\n      dup1\n      0x1f\n      add\n      0x20\n      dup1\n      swap2\n      div\n      mul\n      0x20\n      add\n      mload(0x40)\n      swap1\n      dup2\n      add\n      0x40\n      mstore\n      dup1\n      swap3\n      swap2\n      swap1\n      dup2\n      dup2\n      mstore\n      0x20\n      add\n      dup3\n      dup1\n      sload\n      tag_142\n      swap1\n      tag_97\n      jump\t// in\n    tag_142:\n      dup1\n      iszero\n      tag_143\n      jumpi\n      dup1\n      0x1f\n      lt\n      tag_144\n      jumpi\n      0x0100\n      dup1\n      dup4\n      sload\n      div\n      mul\n      dup4\n      mstore\n      swap2\n      0x20\n      add\n      swap2\n      jump(tag_143)\n    tag_144:\n      dup3\n      add\n      swap2\n      swap1\n      0x00\n      mstore\n      keccak256(0x00, 0x20)\n      swap1\n    tag_145:\n      dup2\n      sload\n      dup2\n      mstore\n      swap1\n      0x01\n      add\n      swap1\n      0x20\n      add\n      dup1\n      dup4\n      gt\n      tag_145\n      jumpi\n      dup3\n      swap1\n      sub\n      0x1f\n      and\n      dup3\n      add\n      swap2\n    tag_143:\n      pop\n      pop\n      pop\n      pop\n      pop\n      swap1\n      dup1\n      0x02\n      add\n      0x00\n      swap1\n      sload\n      swap1\n      0x0100\n      exp\n      swap1\n      div\n      0xff\n      and\n      swap1\n      pop\n      dup4\n      jump\t// out\n        /* \"contracts/BaseContract.sol\":2904:2944  mapping(address=>Firma) public  firmalar */\n    tag_46:\n      mstore(0x20, 0x06)\n      dup1\n      0x00\n      mstore\n      keccak256(0x00, 0x40)\n      0x00\n      swap2\n      pop\n      swap1\n      pop\n      dup1\n      0x00\n      add\n      0x00\n      swap1\n      sload\n      swap1\n      0x0100\n      exp\n      swap1\n      div\n      0xff\n      and\n      swap1\n      dup1\n      0x00\n      add\n      0x01\n      swap1\n      sload\n      swap1\n      0x0100\n      exp\n      swap1\n      div\n      0xff\n      and\n      swap1\n      dup1\n      0x01\n      add\n      sload\n      swap1\n      dup1\n      0x02\n      add\n      dup1\n      sload\n      tag_146\n      swap1\n      tag_97\n      jump\t// in\n    tag_146:\n      dup1\n      0x1f\n      add\n      0x20\n      dup1\n      swap2\n      div\n      mul\n      0x20\n      add\n      mload(0x40)\n      swap1\n      dup2\n      add\n      0x40\n      mstore\n      dup1\n      swap3\n      swap2\n      swap1\n      dup2\n      dup2\n      mstore\n      0x20\n      add\n      dup3\n      dup1\n      sload\n      tag_147\n      swap1\n      tag_97\n      jump\t// in\n    tag_147:\n      dup1\n      iszero\n      tag_148\n      jumpi\n      dup1\n      0x1f\n      lt\n      tag_149\n      jumpi\n      0x0100\n      dup1\n      dup4\n      sload\n      div\n      mul\n      dup4\n      mstore\n      swap2\n      0x20\n      add\n      swap2\n      jump(tag_148)\n    tag_149:\n      dup3\n      add\n      swap2\n      swap1\n      0x00\n      mstore\n      keccak256(0x00, 0x20)\n      swap1\n    tag_150:\n      dup2\n      sload\n      dup2\n      mstore\n      swap1\n      0x01\n      add\n      swap1\n      0x20\n      add\n      dup1\n      dup4\n      gt\n      tag_150\n      jumpi\n      dup3\n      swap1\n      sub\n      0x1f\n      and\n      dup3\n      add\n      swap2\n    tag_148:\n      pop\n      pop\n      pop\n      pop\n      pop\n      swap1\n      pop\n      dup5\n      jump\t// out\n        /* \"contracts/BaseContract.sol\":2996:3045  mapping(address=>KamuKurumu) public kamuKurumlari */\n    tag_51:\n      mstore(0x20, 0x08)\n      dup1\n      0x00\n      mstore\n      keccak256(0x00, 0x40)\n      0x00\n      swap2\n      pop\n      swap1\n      pop\n      dup1\n      0x00\n      add\n      0x00\n      swap1\n      sload\n      swap1\n      0x0100\n      exp\n      swap1\n      div\n      0xff\n      and\n      swap1\n      dup1\n      0x01\n      add\n      dup1\n      sload\n      tag_151\n      swap1\n      tag_97\n      jump\t// in\n    tag_151:\n      dup1\n      0x1f\n      add\n      0x20\n      dup1\n      swap2\n      div\n      mul\n      0x20\n      add\n      mload(0x40)\n      swap1\n      dup2\n      add\n      0x40\n      mstore\n      dup1\n      swap3\n      swap2\n      swap1\n      dup2\n      dup2\n      mstore\n      0x20\n      add\n      dup3\n      dup1\n      sload\n      tag_152\n      swap1\n      tag_97\n      jump\t// in\n    tag_152:\n      dup1\n      iszero\n      tag_153\n      jumpi\n      dup1\n      0x1f\n      lt\n      tag_154\n      jumpi\n      0x0100\n      dup1\n      dup4\n      sload\n      div\n      mul\n      dup4\n      mstore\n      swap2\n      0x20\n      add\n      swap2\n      jump(tag_153)\n    tag_154:\n      dup3\n      add\n      swap2\n      swap1\n      0x00\n      mstore\n      keccak256(0x00, 0x20)\n      swap1\n    tag_155:\n      dup2\n      sload\n      dup2\n      mstore\n      swap1\n      0x01\n      add\n      swap1\n      0x20\n      add\n      dup1\n      dup4\n      gt\n      tag_155\n      jumpi\n      dup3\n      swap1\n      sub\n      0x1f\n      and\n      dup3\n      add\n      swap2\n    tag_153:\n      pop\n      pop\n      pop\n      pop\n      pop\n      swap1\n      dup1\n      0x02\n      add\n      0x00\n      swap1\n      sload\n      swap1\n      0x0100\n      exp\n      swap1\n      div\n      0xff\n      and\n      swap1\n      pop\n      dup4\n      jump\t// out\n        /* \"contracts/BaseContract.sol\":3052:3087  mapping(address=>STK) public stklar */\n    tag_55:\n      mstore(0x20, 0x09)\n      dup1\n      0x00\n      mstore\n      keccak256(0x00, 0x40)\n      0x00\n      swap2\n      pop\n      swap1\n      pop\n      dup1\n      0x00\n      add\n      0x00\n      swap1\n      sload\n      swap1\n      0x0100\n      exp\n      swap1\n      div\n      0xff\n      and\n      swap1\n      dup1\n      0x01\n      add\n      dup1\n      sload\n      tag_156\n      swap1\n      tag_97\n      jump\t// in\n    tag_156:\n      dup1\n      0x1f\n      add\n      0x20\n      dup1\n      swap2\n      div\n      mul\n      0x20\n      add\n      mload(0x40)\n      swap1\n      dup2\n      add\n      0x40\n      mstore\n      dup1\n      swap3\n      swap2\n      swap1\n      dup2\n      dup2\n      mstore\n      0x20\n      add\n      dup3\n      dup1\n      sload\n      tag_157\n      swap1\n      tag_97\n      jump\t// in\n    tag_157:\n      dup1\n      iszero\n      tag_158\n      jumpi\n      dup1\n      0x1f\n      lt\n      tag_159\n      jumpi\n      0x0100\n      dup1\n      dup4\n      sload\n      div\n      mul\n      dup4\n      mstore\n      swap2\n      0x20\n      add\n      swap2\n      jump(tag_158)\n    tag_159:\n      dup3\n      add\n      swap2\n      swap1\n      0x00\n      mstore\n      keccak256(0x00, 0x20)\n      swap1\n    tag_160:\n      dup2\n      sload\n      dup2\n      mstore\n      swap1\n      0x01\n      add\n      swap1\n      0x20\n      add\n      dup1\n      dup4\n      gt\n      tag_160\n      jumpi\n      dup3\n      swap1\n      sub\n      0x1f\n      and\n      dup3\n      add\n      swap2\n    tag_158:\n      pop\n      pop\n      pop\n      pop\n      pop\n      swap1\n      dup1\n      0x02\n      add\n      0x00\n      swap1\n      sload\n      swap1\n      0x0100\n      exp\n      swap1\n      div\n      0xff\n      and\n      swap1\n      pop\n      dup4\n      jump\t// out\n        /* \"contracts/BaseContract.sol\":3165:3206  mapping(uint32=>YabanciDil) public diller */\n    tag_60:\n      mstore(0x20, 0x0b)\n      dup1\n      0x00\n      mstore\n      keccak256(0x00, 0x40)\n      0x00\n      swap2\n      pop\n      swap1\n      pop\n      dup1\n      0x00\n      add\n      0x00\n      swap1\n      sload\n      swap1\n      0x0100\n      exp\n      swap1\n      div\n      0xffffffff\n      and\n      swap1\n      dup1\n      0x01\n      add\n      dup1\n      sload\n      tag_161\n      swap1\n      tag_97\n      jump\t// in\n    tag_161:\n      dup1\n      0x1f\n      add\n      0x20\n      dup1\n      swap2\n      div\n      mul\n      0x20\n      add\n      mload(0x40)\n      swap1\n      dup2\n      add\n      0x40\n      mstore\n      dup1\n      swap3\n      swap2\n      swap1\n      dup2\n      dup2\n      mstore\n      0x20\n      add\n      dup3\n      dup1\n      sload\n      tag_162\n      swap1\n      tag_97\n      jump\t// in\n    tag_162:\n      dup1\n      iszero\n      tag_163\n      jumpi\n      dup1\n      0x1f\n      lt\n      tag_164\n      jumpi\n      0x0100\n      dup1\n      dup4\n      sload\n      div\n      mul\n      dup4\n      mstore\n      swap2\n      0x20\n      add\n      swap2\n      jump(tag_163)\n    tag_164:\n      dup3\n      add\n      swap2\n      swap1\n      0x00\n      mstore\n      keccak256(0x00, 0x20)\n      swap1\n    tag_165:\n      dup2\n      sload\n      dup2\n      mstore\n      swap1\n      0x01\n      add\n      swap1\n      0x20\n      add\n      dup1\n      dup4\n      gt\n      tag_165\n      jumpi\n      dup3\n      swap1\n      sub\n      0x1f\n      and\n      dup3\n      add\n      swap2\n    tag_163:\n      pop\n      pop\n      pop\n      pop\n      pop\n      swap1\n      pop\n      dup3\n      jump\t// out\n        /* \"contracts/BaseContract.sol\":2846:2897  mapping(address=>Akademisyen) public akademisyenler */\n    tag_65:\n      mstore(0x20, 0x05)\n      dup1\n      0x00\n      mstore\n      keccak256(0x00, 0x40)\n      0x00\n      swap2\n      pop\n      swap1\n      pop\n      dup1\n      0x00\n      add\n      0x00\n      swap1\n      sload\n      swap1\n      0x0100\n      exp\n      swap1\n      div\n      0xff\n      and\n      swap1\n      dup1\n      0x00\n      add\n      0x01\n      swap1\n      sload\n      swap1\n      0x0100\n      exp\n      swap1\n      div\n      0xffffffffffffffffffffffffffffffffffffffff\n      and\n      swap1\n      dup1\n      0x00\n      add\n      0x15\n      swap1\n      sload\n      swap1\n      0x0100\n      exp\n      swap1\n      div\n      0xffff\n      and\n      swap1\n      dup1\n      0x00\n      add\n      0x17\n      swap1\n      sload\n      swap1\n      0x0100\n      exp\n      swap1\n      div\n      0xff\n      and\n      swap1\n      dup1\n      0x01\n      add\n      dup1\n      sload\n      tag_166\n      swap1\n      tag_97\n      jump\t// in\n    tag_166:\n      dup1\n      0x1f\n      add\n      0x20\n      dup1\n      swap2\n      div\n      mul\n      0x20\n      add\n      mload(0x40)\n      swap1\n      dup2\n      add\n      0x40\n      mstore\n      dup1\n      swap3\n      swap2\n      swap1\n      dup2\n      dup2\n      mstore\n      0x20\n      add\n      dup3\n      dup1\n      sload\n      tag_167\n      swap1\n      tag_97\n      jump\t// in\n    tag_167:\n      dup1\n      iszero\n      tag_168\n      jumpi\n      dup1\n      0x1f\n      lt\n      tag_169\n      jumpi\n      0x0100\n      dup1\n      dup4\n      sload\n      div\n      mul\n      dup4\n      mstore\n      swap2\n      0x20\n      add\n      swap2\n      jump(tag_168)\n    tag_169:\n      dup3\n      add\n      swap2\n      swap1\n      0x00\n      mstore\n      keccak256(0x00, 0x20)\n      swap1\n    tag_170:\n      dup2\n      sload\n      dup2\n      mstore\n      swap1\n      0x01\n      add\n      swap1\n      0x20\n      add\n      dup1\n      dup4\n      gt\n      tag_170\n      jumpi\n      dup3\n      swap1\n      sub\n      0x1f\n      and\n      dup3\n      add\n      swap2\n    tag_168:\n      pop\n      pop\n      pop\n      pop\n      pop\n      swap1\n      dup1\n      0x02\n      add\n      dup1\n      sload\n      tag_171\n      swap1\n      tag_97\n      jump\t// in\n    tag_171:\n      dup1\n      0x1f\n      add\n      0x20\n      dup1\n      swap2\n      div\n      mul\n      0x20\n      add\n      mload(0x40)\n      swap1\n      dup2\n      add\n      0x40\n      mstore\n      dup1\n      swap3\n      swap2\n      swap1\n      dup2\n      dup2\n      mstore\n      0x20\n      add\n      dup3\n      dup1\n      sload\n      tag_172\n      swap1\n      tag_97\n      jump\t// in\n    tag_172:\n      dup1\n      iszero\n      tag_173\n      jumpi\n      dup1\n      0x1f\n      lt\n      tag_174\n      jumpi\n      0x0100\n      dup1\n      dup4\n      sload\n      div\n      mul\n      dup4\n      mstore\n      swap2\n      0x20\n      add\n      swap2\n      jump(tag_173)\n    tag_174:\n      dup3\n      add\n      swap2\n      swap1\n      0x00\n      mstore\n      keccak256(0x00, 0x20)\n      swap1\n    tag_175:\n      dup2\n      sload\n      dup2\n      mstore\n      swap1\n      0x01\n      add\n      swap1\n      0x20\n      add\n      dup1\n      dup4\n      gt\n      tag_175\n      jumpi\n      dup3\n      swap1\n      sub\n      0x1f\n      and\n      dup3\n      add\n      swap2\n    tag_173:\n      pop\n      pop\n      pop\n      pop\n      pop\n      swap1\n      pop\n      dup7\n      jump\t// out\n        /* \"contracts/BaseContract.sol\":2746:2783  mapping(address=>Kisi) public kisiler */\n    tag_70:\n      mstore(0x20, 0x03)\n      dup1\n      0x00\n      mstore\n      keccak256(0x00, 0x40)\n      0x00\n      swap2\n      pop\n      swap1\n      pop\n      dup1\n      0x00\n      add\n      0x00\n      swap1\n      sload\n      swap1\n      0x0100\n      exp\n      swap1\n      div\n      0xff\n      and\n      swap1\n      pop\n      dup2\n      jump\t// out\n    tag_85:\n      dup3\n      dup1\n      sload\n      tag_176\n      swap1\n      tag_97\n      jump\t// in\n    tag_176:\n      swap1\n      0x00\n      mstore\n      keccak256(0x00, 0x20)\n      swap1\n      0x1f\n      add\n      0x20\n      swap1\n      div\n      dup2\n      add\n      swap3\n      dup3\n      tag_178\n      jumpi\n      0x00\n      dup6\n      sstore\n      jump(tag_177)\n    tag_178:\n      dup3\n      0x1f\n      lt\n      tag_179\n      jumpi\n      dup1\n      mload\n      not(0xff)\n      and\n      dup4\n      dup1\n      add\n      or\n      dup6\n      sstore\n      jump(tag_177)\n    tag_179:\n      dup3\n      dup1\n      add\n      0x01\n      add\n      dup6\n      sstore\n      dup3\n      iszero\n      tag_177\n      jumpi\n      swap2\n      dup3\n      add\n    tag_180:\n      dup3\n      dup2\n      gt\n      iszero\n      tag_181\n      jumpi\n      dup3\n      mload\n      dup3\n      sstore\n      swap2\n      0x20\n      add\n      swap2\n      swap1\n      0x01\n      add\n      swap1\n      jump(tag_180)\n    tag_181:\n    tag_177:\n      pop\n      swap1\n      pop\n      tag_182\n      swap2\n      swap1\n      tag_183\n      jump\t// in\n    tag_182:\n      pop\n      swap1\n      jump\t// out\n    tag_183:\n    tag_184:\n      dup1\n      dup3\n      gt\n      iszero\n      tag_185\n      jumpi\n      0x00\n      dup2\n      0x00\n      swap1\n      sstore\n      pop\n      0x01\n      add\n      jump(tag_184)\n    tag_185:\n      pop\n      swap1\n      jump\t// out\n        /* \"#utility.yul\":7:419   */\n    tag_187:\n        /* \"#utility.yul\":85:90   */\n      0x00\n        /* \"#utility.yul\":110:176   */\n      tag_189\n        /* \"#utility.yul\":126:175   */\n      tag_190\n        /* \"#utility.yul\":168:174   */\n      dup5\n        /* \"#utility.yul\":126:175   */\n      tag_191\n      jump\t// in\n    tag_190:\n        /* \"#utility.yul\":110:176   */\n      tag_192\n      jump\t// in\n    tag_189:\n        /* \"#utility.yul\":101:176   */\n      swap1\n      pop\n        /* \"#utility.yul\":199:205   */\n      dup3\n        /* \"#utility.yul\":192:197   */\n      dup2\n        /* \"#utility.yul\":185:206   */\n      mstore\n        /* \"#utility.yul\":237:241   */\n      0x20\n        /* \"#utility.yul\":230:235   */\n      dup2\n        /* \"#utility.yul\":226:242   */\n      add\n        /* \"#utility.yul\":275:278   */\n      dup5\n        /* \"#utility.yul\":266:272   */\n      dup5\n        /* \"#utility.yul\":261:264   */\n      dup5\n        /* \"#utility.yul\":257:273   */\n      add\n        /* \"#utility.yul\":254:279   */\n      gt\n        /* \"#utility.yul\":251:363   */\n      iszero\n      tag_193\n      jumpi\n        /* \"#utility.yul\":282:361   */\n      tag_194\n      tag_195\n      jump\t// in\n    tag_194:\n        /* \"#utility.yul\":251:363   */\n    tag_193:\n        /* \"#utility.yul\":372:413   */\n      tag_196\n        /* \"#utility.yul\":406:412   */\n      dup5\n        /* \"#utility.yul\":401:404   */\n      dup3\n        /* \"#utility.yul\":396:399   */\n      dup6\n        /* \"#utility.yul\":372:413   */\n      tag_197\n      jump\t// in\n    tag_196:\n        /* \"#utility.yul\":91:419   */\n      pop\n        /* \"#utility.yul\":7:419   */\n      swap4\n      swap3\n      pop\n      pop\n      pop\n      jump\t// out\n        /* \"#utility.yul\":425:564   */\n    tag_198:\n        /* \"#utility.yul\":471:476   */\n      0x00\n        /* \"#utility.yul\":509:515   */\n      dup2\n        /* \"#utility.yul\":496:516   */\n      calldataload\n        /* \"#utility.yul\":487:516   */\n      swap1\n      pop\n        /* \"#utility.yul\":525:558   */\n      tag_200\n        /* \"#utility.yul\":552:557   */\n      dup2\n        /* \"#utility.yul\":525:558   */\n      tag_201\n      jump\t// in\n    tag_200:\n        /* \"#utility.yul\":425:564   */\n      swap3\n      swap2\n      pop\n      pop\n      jump\t// out\n        /* \"#utility.yul\":570:741   */\n    tag_202:\n        /* \"#utility.yul\":632:637   */\n      0x00\n        /* \"#utility.yul\":670:676   */\n      dup2\n        /* \"#utility.yul\":657:677   */\n      calldataload\n        /* \"#utility.yul\":648:677   */\n      swap1\n      pop\n        /* \"#utility.yul\":686:735   */\n      tag_204\n        /* \"#utility.yul\":729:734   */\n      dup2\n        /* \"#utility.yul\":686:735   */\n      tag_205\n      jump\t// in\n    tag_204:\n        /* \"#utility.yul\":570:741   */\n      swap3\n      swap2\n      pop\n      pop\n      jump\t// out\n        /* \"#utility.yul\":747:908   */\n    tag_206:\n        /* \"#utility.yul\":804:809   */\n      0x00\n        /* \"#utility.yul\":842:848   */\n      dup2\n        /* \"#utility.yul\":829:849   */\n      calldataload\n        /* \"#utility.yul\":820:849   */\n      swap1\n      pop\n        /* \"#utility.yul\":858:902   */\n      tag_208\n        /* \"#utility.yul\":896:901   */\n      dup2\n        /* \"#utility.yul\":858:902   */\n      tag_209\n      jump\t// in\n    tag_208:\n        /* \"#utility.yul\":747:908   */\n      swap3\n      swap2\n      pop\n      pop\n      jump\t// out\n        /* \"#utility.yul\":914:1083   */\n    tag_210:\n        /* \"#utility.yul\":975:980   */\n      0x00\n        /* \"#utility.yul\":1013:1019   */\n      dup2\n        /* \"#utility.yul\":1000:1020   */\n      calldataload\n        /* \"#utility.yul\":991:1020   */\n      swap1\n      pop\n        /* \"#utility.yul\":1029:1077   */\n      tag_212\n        /* \"#utility.yul\":1071:1076   */\n      dup2\n        /* \"#utility.yul\":1029:1077   */\n      tag_213\n      jump\t// in\n    tag_212:\n        /* \"#utility.yul\":914:1083   */\n      swap3\n      swap2\n      pop\n      pop\n      jump\t// out\n        /* \"#utility.yul\":1103:1443   */\n    tag_214:\n        /* \"#utility.yul\":1159:1164   */\n      0x00\n        /* \"#utility.yul\":1208:1211   */\n      dup3\n        /* \"#utility.yul\":1201:1205   */\n      0x1f\n        /* \"#utility.yul\":1193:1199   */\n      dup4\n        /* \"#utility.yul\":1189:1206   */\n      add\n        /* \"#utility.yul\":1185:1212   */\n      slt\n        /* \"#utility.yul\":1175:1297   */\n      tag_216\n      jumpi\n        /* \"#utility.yul\":1216:1295   */\n      tag_217\n      tag_218\n      jump\t// in\n    tag_217:\n        /* \"#utility.yul\":1175:1297   */\n    tag_216:\n        /* \"#utility.yul\":1333:1339   */\n      dup2\n        /* \"#utility.yul\":1320:1340   */\n      calldataload\n        /* \"#utility.yul\":1358:1437   */\n      tag_219\n        /* \"#utility.yul\":1433:1436   */\n      dup5\n        /* \"#utility.yul\":1425:1431   */\n      dup3\n        /* \"#utility.yul\":1418:1422   */\n      0x20\n        /* \"#utility.yul\":1410:1416   */\n      dup7\n        /* \"#utility.yul\":1406:1423   */\n      add\n        /* \"#utility.yul\":1358:1437   */\n      tag_187\n      jump\t// in\n    tag_219:\n        /* \"#utility.yul\":1349:1437   */\n      swap2\n      pop\n        /* \"#utility.yul\":1165:1443   */\n      pop\n        /* \"#utility.yul\":1103:1443   */\n      swap3\n      swap2\n      pop\n      pop\n      jump\t// out\n        /* \"#utility.yul\":1449:1586   */\n    tag_220:\n        /* \"#utility.yul\":1494:1499   */\n      0x00\n        /* \"#utility.yul\":1532:1538   */\n      dup2\n        /* \"#utility.yul\":1519:1539   */\n      calldataload\n        /* \"#utility.yul\":1510:1539   */\n      swap1\n      pop\n        /* \"#utility.yul\":1548:1580   */\n      tag_222\n        /* \"#utility.yul\":1574:1579   */\n      dup2\n        /* \"#utility.yul\":1548:1580   */\n      tag_223\n      jump\t// in\n    tag_222:\n        /* \"#utility.yul\":1449:1586   */\n      swap3\n      swap2\n      pop\n      pop\n      jump\t// out\n        /* \"#utility.yul\":1592:1729   */\n    tag_224:\n        /* \"#utility.yul\":1637:1642   */\n      0x00\n        /* \"#utility.yul\":1675:1681   */\n      dup2\n        /* \"#utility.yul\":1662:1682   */\n      calldataload\n        /* \"#utility.yul\":1653:1682   */\n      swap1\n      pop\n        /* \"#utility.yul\":1691:1723   */\n      tag_226\n        /* \"#utility.yul\":1717:1722   */\n      dup2\n        /* \"#utility.yul\":1691:1723   */\n      tag_227\n      jump\t// in\n    tag_226:\n        /* \"#utility.yul\":1592:1729   */\n      swap3\n      swap2\n      pop\n      pop\n      jump\t// out\n        /* \"#utility.yul\":1735:1870   */\n    tag_228:\n        /* \"#utility.yul\":1779:1784   */\n      0x00\n        /* \"#utility.yul\":1817:1823   */\n      dup2\n        /* \"#utility.yul\":1804:1824   */\n      calldataload\n        /* \"#utility.yul\":1795:1824   */\n      swap1\n      pop\n        /* \"#utility.yul\":1833:1864   */\n      tag_230\n        /* \"#utility.yul\":1858:1863   */\n      dup2\n        /* \"#utility.yul\":1833:1864   */\n      tag_231\n      jump\t// in\n    tag_230:\n        /* \"#utility.yul\":1735:1870   */\n      swap3\n      swap2\n      pop\n      pop\n      jump\t// out\n        /* \"#utility.yul\":1876:2205   */\n    tag_22:\n        /* \"#utility.yul\":1935:1941   */\n      0x00\n        /* \"#utility.yul\":1984:1986   */\n      0x20\n        /* \"#utility.yul\":1972:1981   */\n      dup3\n        /* \"#utility.yul\":1963:1970   */\n      dup5\n        /* \"#utility.yul\":1959:1982   */\n      sub\n        /* \"#utility.yul\":1955:1987   */\n      slt\n        /* \"#utility.yul\":1952:2071   */\n      iszero\n      tag_233\n      jumpi\n        /* \"#utility.yul\":1990:2069   */\n      tag_234\n      tag_235\n      jump\t// in\n    tag_234:\n        /* \"#utility.yul\":1952:2071   */\n    tag_233:\n        /* \"#utility.yul\":2110:2111   */\n      0x00\n        /* \"#utility.yul\":2135:2188   */\n      tag_236\n        /* \"#utility.yul\":2180:2187   */\n      dup5\n        /* \"#utility.yul\":2171:2177   */\n      dup3\n        /* \"#utility.yul\":2160:2169   */\n      dup6\n        /* \"#utility.yul\":2156:2178   */\n      add\n        /* \"#utility.yul\":2135:2188   */\n      tag_198\n      jump\t// in\n    tag_236:\n        /* \"#utility.yul\":2125:2188   */\n      swap2\n      pop\n        /* \"#utility.yul\":2081:2198   */\n      pop\n        /* \"#utility.yul\":1876:2205   */\n      swap3\n      swap2\n      pop\n      pop\n      jump\t// out\n        /* \"#utility.yul\":2211:4612   */\n    tag_18:\n        /* \"#utility.yul\":2426:2432   */\n      0x00\n        /* \"#utility.yul\":2434:2440   */\n      dup1\n        /* \"#utility.yul\":2442:2448   */\n      0x00\n        /* \"#utility.yul\":2450:2456   */\n      dup1\n        /* \"#utility.yul\":2458:2464   */\n      0x00\n        /* \"#utility.yul\":2466:2472   */\n      dup1\n        /* \"#utility.yul\":2474:2480   */\n      0x00\n        /* \"#utility.yul\":2482:2488   */\n      dup1\n        /* \"#utility.yul\":2490:2496   */\n      0x00\n        /* \"#utility.yul\":2498:2504   */\n      dup1\n        /* \"#utility.yul\":2506:2513   */\n      0x00\n        /* \"#utility.yul\":2556:2559   */\n      0x0160\n        /* \"#utility.yul\":2544:2553   */\n      dup13\n        /* \"#utility.yul\":2535:2542   */\n      dup15\n        /* \"#utility.yul\":2531:2554   */\n      sub\n        /* \"#utility.yul\":2527:2560   */\n      slt\n        /* \"#utility.yul\":2524:2644   */\n      iszero\n      tag_238\n      jumpi\n        /* \"#utility.yul\":2563:2642   */\n      tag_239\n      tag_235\n      jump\t// in\n    tag_239:\n        /* \"#utility.yul\":2524:2644   */\n    tag_238:\n        /* \"#utility.yul\":2683:2684   */\n      0x00\n        /* \"#utility.yul\":2708:2761   */\n      tag_240\n        /* \"#utility.yul\":2753:2760   */\n      dup15\n        /* \"#utility.yul\":2744:2750   */\n      dup3\n        /* \"#utility.yul\":2733:2742   */\n      dup16\n        /* \"#utility.yul\":2729:2751   */\n      add\n        /* \"#utility.yul\":2708:2761   */\n      tag_198\n      jump\t// in\n    tag_240:\n        /* \"#utility.yul\":2698:2761   */\n      swap12\n      pop\n        /* \"#utility.yul\":2654:2771   */\n      pop\n        /* \"#utility.yul\":2838:2840   */\n      0x20\n        /* \"#utility.yul\":2827:2836   */\n      dup13\n        /* \"#utility.yul\":2823:2841   */\n      add\n        /* \"#utility.yul\":2810:2842   */\n      calldataload\n        /* \"#utility.yul\":2869:2887   */\n      0xffffffffffffffff\n        /* \"#utility.yul\":2861:2867   */\n      dup2\n        /* \"#utility.yul\":2858:2888   */\n      gt\n        /* \"#utility.yul\":2855:2972   */\n      iszero\n      tag_241\n      jumpi\n        /* \"#utility.yul\":2891:2970   */\n      tag_242\n      tag_243\n      jump\t// in\n    tag_242:\n        /* \"#utility.yul\":2855:2972   */\n    tag_241:\n        /* \"#utility.yul\":2996:3059   */\n      tag_244\n        /* \"#utility.yul\":3051:3058   */\n      dup15\n        /* \"#utility.yul\":3042:3048   */\n      dup3\n        /* \"#utility.yul\":3031:3040   */\n      dup16\n        /* \"#utility.yul\":3027:3049   */\n      add\n        /* \"#utility.yul\":2996:3059   */\n      tag_214\n      jump\t// in\n    tag_244:\n        /* \"#utility.yul\":2986:3059   */\n      swap11\n      pop\n        /* \"#utility.yul\":2781:3069   */\n      pop\n        /* \"#utility.yul\":3136:3138   */\n      0x40\n        /* \"#utility.yul\":3125:3134   */\n      dup13\n        /* \"#utility.yul\":3121:3139   */\n      add\n        /* \"#utility.yul\":3108:3140   */\n      calldataload\n        /* \"#utility.yul\":3167:3185   */\n      0xffffffffffffffff\n        /* \"#utility.yul\":3159:3165   */\n      dup2\n        /* \"#utility.yul\":3156:3186   */\n      gt\n        /* \"#utility.yul\":3153:3270   */\n      iszero\n      tag_245\n      jumpi\n        /* \"#utility.yul\":3189:3268   */\n      tag_246\n      tag_243\n      jump\t// in\n    tag_246:\n        /* \"#utility.yul\":3153:3270   */\n    tag_245:\n        /* \"#utility.yul\":3294:3357   */\n      tag_247\n        /* \"#utility.yul\":3349:3356   */\n      dup15\n        /* \"#utility.yul\":3340:3346   */\n      dup3\n        /* \"#utility.yul\":3329:3338   */\n      dup16\n        /* \"#utility.yul\":3325:3347   */\n      add\n        /* \"#utility.yul\":3294:3357   */\n      tag_214\n      jump\t// in\n    tag_247:\n        /* \"#utility.yul\":3284:3357   */\n      swap10\n      pop\n        /* \"#utility.yul\":3079:3367   */\n      pop\n        /* \"#utility.yul\":3406:3408   */\n      0x60\n        /* \"#utility.yul\":3432:3483   */\n      tag_248\n        /* \"#utility.yul\":3475:3482   */\n      dup15\n        /* \"#utility.yul\":3466:3472   */\n      dup3\n        /* \"#utility.yul\":3455:3464   */\n      dup16\n        /* \"#utility.yul\":3451:3473   */\n      add\n        /* \"#utility.yul\":3432:3483   */\n      tag_228\n      jump\t// in\n    tag_248:\n        /* \"#utility.yul\":3422:3483   */\n      swap9\n      pop\n        /* \"#utility.yul\":3377:3493   */\n      pop\n        /* \"#utility.yul\":3532:3535   */\n      0x80\n        /* \"#utility.yul\":3559:3611   */\n      tag_249\n        /* \"#utility.yul\":3603:3610   */\n      dup15\n        /* \"#utility.yul\":3594:3600   */\n      dup3\n        /* \"#utility.yul\":3583:3592   */\n      dup16\n        /* \"#utility.yul\":3579:3601   */\n      add\n        /* \"#utility.yul\":3559:3611   */\n      tag_224\n      jump\t// in\n    tag_249:\n        /* \"#utility.yul\":3549:3611   */\n      swap8\n      pop\n        /* \"#utility.yul\":3503:3621   */\n      pop\n        /* \"#utility.yul\":3688:3691   */\n      0xa0\n        /* \"#utility.yul\":3677:3686   */\n      dup13\n        /* \"#utility.yul\":3673:3692   */\n      add\n        /* \"#utility.yul\":3660:3693   */\n      calldataload\n        /* \"#utility.yul\":3720:3738   */\n      0xffffffffffffffff\n        /* \"#utility.yul\":3712:3718   */\n      dup2\n        /* \"#utility.yul\":3709:3739   */\n      gt\n        /* \"#utility.yul\":3706:3823   */\n      iszero\n      tag_250\n      jumpi\n        /* \"#utility.yul\":3742:3821   */\n      tag_251\n      tag_243\n      jump\t// in\n    tag_251:\n        /* \"#utility.yul\":3706:3823   */\n    tag_250:\n        /* \"#utility.yul\":3847:3910   */\n      tag_252\n        /* \"#utility.yul\":3902:3909   */\n      dup15\n        /* \"#utility.yul\":3893:3899   */\n      dup3\n        /* \"#utility.yul\":3882:3891   */\n      dup16\n        /* \"#utility.yul\":3878:3900   */\n      add\n        /* \"#utility.yul\":3847:3910   */\n      tag_214\n      jump\t// in\n    tag_252:\n        /* \"#utility.yul\":3837:3910   */\n      swap7\n      pop\n        /* \"#utility.yul\":3631:3920   */\n      pop\n        /* \"#utility.yul\":3959:3962   */\n      0xc0\n        /* \"#utility.yul\":3986:4050   */\n      tag_253\n        /* \"#utility.yul\":4042:4049   */\n      dup15\n        /* \"#utility.yul\":4033:4039   */\n      dup3\n        /* \"#utility.yul\":4022:4031   */\n      dup16\n        /* \"#utility.yul\":4018:4040   */\n      add\n        /* \"#utility.yul\":3986:4050   */\n      tag_206\n      jump\t// in\n    tag_253:\n        /* \"#utility.yul\":3976:4050   */\n      swap6\n      pop\n        /* \"#utility.yul\":3930:4060   */\n      pop\n        /* \"#utility.yul\":4099:4102   */\n      0xe0\n        /* \"#utility.yul\":4126:4195   */\n      tag_254\n        /* \"#utility.yul\":4187:4194   */\n      dup15\n        /* \"#utility.yul\":4178:4184   */\n      dup3\n        /* \"#utility.yul\":4167:4176   */\n      dup16\n        /* \"#utility.yul\":4163:4185   */\n      add\n        /* \"#utility.yul\":4126:4195   */\n      tag_202\n      jump\t// in\n    tag_254:\n        /* \"#utility.yul\":4116:4195   */\n      swap5\n      pop\n        /* \"#utility.yul\":4070:4205   */\n      pop\n        /* \"#utility.yul\":4244:4247   */\n      0x0100\n        /* \"#utility.yul\":4271:4322   */\n      tag_255\n        /* \"#utility.yul\":4314:4321   */\n      dup15\n        /* \"#utility.yul\":4305:4311   */\n      dup3\n        /* \"#utility.yul\":4294:4303   */\n      dup16\n        /* \"#utility.yul\":4290:4312   */\n      add\n        /* \"#utility.yul\":4271:4322   */\n      tag_228\n      jump\t// in\n    tag_255:\n        /* \"#utility.yul\":4261:4322   */\n      swap4\n      pop\n        /* \"#utility.yul\":4215:4332   */\n      pop\n        /* \"#utility.yul\":4371:4374   */\n      0x0120\n        /* \"#utility.yul\":4398:4466   */\n      tag_256\n        /* \"#utility.yul\":4458:4465   */\n      dup15\n        /* \"#utility.yul\":4449:4455   */\n      dup3\n        /* \"#utility.yul\":4438:4447   */\n      dup16\n        /* \"#utility.yul\":4434:4456   */\n      add\n        /* \"#utility.yul\":4398:4466   */\n      tag_210\n      jump\t// in\n    tag_256:\n        /* \"#utility.yul\":4388:4466   */\n      swap3\n      pop\n        /* \"#utility.yul\":4342:4476   */\n      pop\n        /* \"#utility.yul\":4515:4518   */\n      0x0140\n        /* \"#utility.yul\":4543:4595   */\n      tag_257\n        /* \"#utility.yul\":4587:4594   */\n      dup15\n        /* \"#utility.yul\":4578:4584   */\n      dup3\n        /* \"#utility.yul\":4567:4576   */\n      dup16\n        /* \"#utility.yul\":4563:4585   */\n      add\n        /* \"#utility.yul\":4543:4595   */\n      tag_220\n      jump\t// in\n    tag_257:\n        /* \"#utility.yul\":4532:4595   */\n      swap2\n      pop\n        /* \"#utility.yul\":4486:4605   */\n      pop\n        /* \"#utility.yul\":2211:4612   */\n      swap3\n      swap6\n      swap9\n      swap12\n      pop\n      swap3\n      swap6\n      swap9\n      swap12\n      swap1\n      swap4\n      swap7\n      swap10\n      pop\n      jump\t// out\n        /* \"#utility.yul\":4618:4945   */\n    tag_59:\n        /* \"#utility.yul\":4676:4682   */\n      0x00\n        /* \"#utility.yul\":4725:4727   */\n      0x20\n        /* \"#utility.yul\":4713:4722   */\n      dup3\n        /* \"#utility.yul\":4704:4711   */\n      dup5\n        /* \"#utility.yul\":4700:4723   */\n      sub\n        /* \"#utility.yul\":4696:4728   */\n      slt\n        /* \"#utility.yul\":4693:4812   */\n      iszero\n      tag_259\n      jumpi\n        /* \"#utility.yul\":4731:4810   */\n      tag_260\n      tag_235\n      jump\t// in\n    tag_260:\n        /* \"#utility.yul\":4693:4812   */\n    tag_259:\n        /* \"#utility.yul\":4851:4852   */\n      0x00\n        /* \"#utility.yul\":4876:4928   */\n      tag_261\n        /* \"#utility.yul\":4920:4927   */\n      dup5\n        /* \"#utility.yul\":4911:4917   */\n      dup3\n        /* \"#utility.yul\":4900:4909   */\n      dup6\n        /* \"#utility.yul\":4896:4918   */\n      add\n        /* \"#utility.yul\":4876:4928   */\n      tag_224\n      jump\t// in\n    tag_261:\n        /* \"#utility.yul\":4866:4928   */\n      swap2\n      pop\n        /* \"#utility.yul\":4822:4938   */\n      pop\n        /* \"#utility.yul\":4618:4945   */\n      swap3\n      swap2\n      pop\n      pop\n      jump\t// out\n        /* \"#utility.yul\":4951:5069   */\n    tag_262:\n        /* \"#utility.yul\":5038:5062   */\n      tag_264\n        /* \"#utility.yul\":5056:5061   */\n      dup2\n        /* \"#utility.yul\":5038:5062   */\n      tag_265\n      jump\t// in\n    tag_264:\n        /* \"#utility.yul\":5033:5036   */\n      dup3\n        /* \"#utility.yul\":5026:5063   */\n      mstore\n        /* \"#utility.yul\":4951:5069   */\n      pop\n      pop\n      jump\t// out\n        /* \"#utility.yul\":5075:5184   */\n    tag_266:\n        /* \"#utility.yul\":5156:5177   */\n      tag_268\n        /* \"#utility.yul\":5171:5176   */\n      dup2\n        /* \"#utility.yul\":5156:5177   */\n      tag_269\n      jump\t// in\n    tag_268:\n        /* \"#utility.yul\":5151:5154   */\n      dup3\n        /* \"#utility.yul\":5144:5178   */\n      mstore\n        /* \"#utility.yul\":5075:5184   */\n      pop\n      pop\n      jump\t// out\n        /* \"#utility.yul\":5190:5349   */\n    tag_270:\n        /* \"#utility.yul\":5291:5342   */\n      tag_272\n        /* \"#utility.yul\":5336:5341   */\n      dup2\n        /* \"#utility.yul\":5291:5342   */\n      tag_273\n      jump\t// in\n    tag_272:\n        /* \"#utility.yul\":5286:5289   */\n      dup3\n        /* \"#utility.yul\":5279:5343   */\n      mstore\n        /* \"#utility.yul\":5190:5349   */\n      pop\n      pop\n      jump\t// out\n        /* \"#utility.yul\":5355:5504   */\n    tag_274:\n        /* \"#utility.yul\":5451:5497   */\n      tag_276\n        /* \"#utility.yul\":5491:5496   */\n      dup2\n        /* \"#utility.yul\":5451:5497   */\n      tag_277\n      jump\t// in\n    tag_276:\n        /* \"#utility.yul\":5446:5449   */\n      dup3\n        /* \"#utility.yul\":5439:5498   */\n      mstore\n        /* \"#utility.yul\":5355:5504   */\n      pop\n      pop\n      jump\t// out\n        /* \"#utility.yul\":5510:5667   */\n    tag_278:\n        /* \"#utility.yul\":5610:5660   */\n      tag_280\n        /* \"#utility.yul\":5654:5659   */\n      dup2\n        /* \"#utility.yul\":5610:5660   */\n      tag_281\n      jump\t// in\n    tag_280:\n        /* \"#utility.yul\":5605:5608   */\n      dup3\n        /* \"#utility.yul\":5598:5661   */\n      mstore\n        /* \"#utility.yul\":5510:5667   */\n      pop\n      pop\n      jump\t// out\n        /* \"#utility.yul\":5673:5816   */\n    tag_282:\n        /* \"#utility.yul\":5766:5809   */\n      tag_284\n        /* \"#utility.yul\":5803:5808   */\n      dup2\n        /* \"#utility.yul\":5766:5809   */\n      tag_285\n      jump\t// in\n    tag_284:\n        /* \"#utility.yul\":5761:5764   */\n      dup3\n        /* \"#utility.yul\":5754:5810   */\n      mstore\n        /* \"#utility.yul\":5673:5816   */\n      pop\n      pop\n      jump\t// out\n        /* \"#utility.yul\":5822:6186   */\n    tag_286:\n        /* \"#utility.yul\":5910:5913   */\n      0x00\n        /* \"#utility.yul\":5938:5977   */\n      tag_288\n        /* \"#utility.yul\":5971:5976   */\n      dup3\n        /* \"#utility.yul\":5938:5977   */\n      tag_289\n      jump\t// in\n    tag_288:\n        /* \"#utility.yul\":5993:6064   */\n      tag_290\n        /* \"#utility.yul\":6057:6063   */\n      dup2\n        /* \"#utility.yul\":6052:6055   */\n      dup6\n        /* \"#utility.yul\":5993:6064   */\n      tag_291\n      jump\t// in\n    tag_290:\n        /* \"#utility.yul\":5986:6064   */\n      swap4\n      pop\n        /* \"#utility.yul\":6073:6125   */\n      tag_292\n        /* \"#utility.yul\":6118:6124   */\n      dup2\n        /* \"#utility.yul\":6113:6116   */\n      dup6\n        /* \"#utility.yul\":6106:6110   */\n      0x20\n        /* \"#utility.yul\":6099:6104   */\n      dup7\n        /* \"#utility.yul\":6095:6111   */\n      add\n        /* \"#utility.yul\":6073:6125   */\n      tag_293\n      jump\t// in\n    tag_292:\n        /* \"#utility.yul\":6150:6179   */\n      tag_294\n        /* \"#utility.yul\":6172:6178   */\n      dup2\n        /* \"#utility.yul\":6150:6179   */\n      tag_295\n      jump\t// in\n    tag_294:\n        /* \"#utility.yul\":6145:6148   */\n      dup5\n        /* \"#utility.yul\":6141:6180   */\n      add\n        /* \"#utility.yul\":6134:6180   */\n      swap2\n      pop\n        /* \"#utility.yul\":5914:6186   */\n      pop\n        /* \"#utility.yul\":5822:6186   */\n      swap3\n      swap2\n      pop\n      pop\n      jump\t// out\n        /* \"#utility.yul\":6192:6558   */\n    tag_296:\n        /* \"#utility.yul\":6334:6337   */\n      0x00\n        /* \"#utility.yul\":6355:6422   */\n      tag_298\n        /* \"#utility.yul\":6419:6421   */\n      0x11\n        /* \"#utility.yul\":6414:6417   */\n      dup4\n        /* \"#utility.yul\":6355:6422   */\n      tag_291\n      jump\t// in\n    tag_298:\n        /* \"#utility.yul\":6348:6422   */\n      swap2\n      pop\n        /* \"#utility.yul\":6431:6524   */\n      tag_299\n        /* \"#utility.yul\":6520:6523   */\n      dup3\n        /* \"#utility.yul\":6431:6524   */\n      tag_300\n      jump\t// in\n    tag_299:\n        /* \"#utility.yul\":6549:6551   */\n      0x20\n        /* \"#utility.yul\":6544:6547   */\n      dup3\n        /* \"#utility.yul\":6540:6552   */\n      add\n        /* \"#utility.yul\":6533:6552   */\n      swap1\n      pop\n        /* \"#utility.yul\":6192:6558   */\n      swap2\n      swap1\n      pop\n      jump\t// out\n        /* \"#utility.yul\":6564:6679   */\n    tag_301:\n        /* \"#utility.yul\":6649:6672   */\n      tag_303\n        /* \"#utility.yul\":6666:6671   */\n      dup2\n        /* \"#utility.yul\":6649:6672   */\n      tag_304\n      jump\t// in\n    tag_303:\n        /* \"#utility.yul\":6644:6647   */\n      dup3\n        /* \"#utility.yul\":6637:6673   */\n      mstore\n        /* \"#utility.yul\":6564:6679   */\n      pop\n      pop\n      jump\t// out\n        /* \"#utility.yul\":6685:6803   */\n    tag_305:\n        /* \"#utility.yul\":6772:6796   */\n      tag_307\n        /* \"#utility.yul\":6790:6795   */\n      dup2\n        /* \"#utility.yul\":6772:6796   */\n      tag_308\n      jump\t// in\n    tag_307:\n        /* \"#utility.yul\":6767:6770   */\n      dup3\n        /* \"#utility.yul\":6760:6797   */\n      mstore\n        /* \"#utility.yul\":6685:6803   */\n      pop\n      pop\n      jump\t// out\n        /* \"#utility.yul\":6809:6924   */\n    tag_309:\n        /* \"#utility.yul\":6894:6917   */\n      tag_311\n        /* \"#utility.yul\":6911:6916   */\n      dup2\n        /* \"#utility.yul\":6894:6917   */\n      tag_312\n      jump\t// in\n    tag_311:\n        /* \"#utility.yul\":6889:6892   */\n      dup3\n        /* \"#utility.yul\":6882:6918   */\n      mstore\n        /* \"#utility.yul\":6809:6924   */\n      pop\n      pop\n      jump\t// out\n        /* \"#utility.yul\":6930:7042   */\n    tag_313:\n        /* \"#utility.yul\":7013:7035   */\n      tag_315\n        /* \"#utility.yul\":7029:7034   */\n      dup2\n        /* \"#utility.yul\":7013:7035   */\n      tag_316\n      jump\t// in\n    tag_315:\n        /* \"#utility.yul\":7008:7011   */\n      dup3\n        /* \"#utility.yul\":7001:7036   */\n      mstore\n        /* \"#utility.yul\":6930:7042   */\n      pop\n      pop\n      jump\t// out\n        /* \"#utility.yul\":7048:7270   */\n    tag_34:\n        /* \"#utility.yul\":7141:7145   */\n      0x00\n        /* \"#utility.yul\":7179:7181   */\n      0x20\n        /* \"#utility.yul\":7168:7177   */\n      dup3\n        /* \"#utility.yul\":7164:7182   */\n      add\n        /* \"#utility.yul\":7156:7182   */\n      swap1\n      pop\n        /* \"#utility.yul\":7192:7263   */\n      tag_318\n        /* \"#utility.yul\":7260:7261   */\n      0x00\n        /* \"#utility.yul\":7249:7258   */\n      dup4\n        /* \"#utility.yul\":7245:7262   */\n      add\n        /* \"#utility.yul\":7236:7242   */\n      dup5\n        /* \"#utility.yul\":7192:7263   */\n      tag_262\n      jump\t// in\n    tag_318:\n        /* \"#utility.yul\":7048:7270   */\n      swap3\n      swap2\n      pop\n      pop\n      jump\t// out\n        /* \"#utility.yul\":7276:8007   */\n    tag_95:\n        /* \"#utility.yul\":7491:7495   */\n      0x00\n        /* \"#utility.yul\":7529:7532   */\n      0x80\n        /* \"#utility.yul\":7518:7527   */\n      dup3\n        /* \"#utility.yul\":7514:7533   */\n      add\n        /* \"#utility.yul\":7506:7533   */\n      swap1\n      pop\n        /* \"#utility.yul\":7543:7614   */\n      tag_320\n        /* \"#utility.yul\":7611:7612   */\n      0x00\n        /* \"#utility.yul\":7600:7609   */\n      dup4\n        /* \"#utility.yul\":7596:7613   */\n      add\n        /* \"#utility.yul\":7587:7593   */\n      dup8\n        /* \"#utility.yul\":7543:7614   */\n      tag_262\n      jump\t// in\n    tag_320:\n        /* \"#utility.yul\":7661:7670   */\n      dup2\n        /* \"#utility.yul\":7655:7659   */\n      dup2\n        /* \"#utility.yul\":7651:7671   */\n      sub\n        /* \"#utility.yul\":7646:7648   */\n      0x20\n        /* \"#utility.yul\":7635:7644   */\n      dup4\n        /* \"#utility.yul\":7631:7649   */\n      add\n        /* \"#utility.yul\":7624:7672   */\n      mstore\n        /* \"#utility.yul\":7689:7767   */\n      tag_321\n        /* \"#utility.yul\":7762:7766   */\n      dup2\n        /* \"#utility.yul\":7753:7759   */\n      dup7\n        /* \"#utility.yul\":7689:7767   */\n      tag_286\n      jump\t// in\n    tag_321:\n        /* \"#utility.yul\":7681:7767   */\n      swap1\n      pop\n        /* \"#utility.yul\":7814:7823   */\n      dup2\n        /* \"#utility.yul\":7808:7812   */\n      dup2\n        /* \"#utility.yul\":7804:7824   */\n      sub\n        /* \"#utility.yul\":7799:7801   */\n      0x40\n        /* \"#utility.yul\":7788:7797   */\n      dup4\n        /* \"#utility.yul\":7784:7802   */\n      add\n        /* \"#utility.yul\":7777:7825   */\n      mstore\n        /* \"#utility.yul\":7842:7920   */\n      tag_322\n        /* \"#utility.yul\":7915:7919   */\n      dup2\n        /* \"#utility.yul\":7906:7912   */\n      dup6\n        /* \"#utility.yul\":7842:7920   */\n      tag_286\n      jump\t// in\n    tag_322:\n        /* \"#utility.yul\":7834:7920   */\n      swap1\n      pop\n        /* \"#utility.yul\":7930:8000   */\n      tag_323\n        /* \"#utility.yul\":7996:7998   */\n      0x60\n        /* \"#utility.yul\":7985:7994   */\n      dup4\n        /* \"#utility.yul\":7981:7999   */\n      add\n        /* \"#utility.yul\":7972:7978   */\n      dup5\n        /* \"#utility.yul\":7930:8000   */\n      tag_301\n      jump\t// in\n    tag_323:\n        /* \"#utility.yul\":7276:8007   */\n      swap6\n      swap5\n      pop\n      pop\n      pop\n      pop\n      pop\n      jump\t// out\n        /* \"#utility.yul\":8013:8223   */\n    tag_72:\n        /* \"#utility.yul\":8100:8104   */\n      0x00\n        /* \"#utility.yul\":8138:8140   */\n      0x20\n        /* \"#utility.yul\":8127:8136   */\n      dup3\n        /* \"#utility.yul\":8123:8141   */\n      add\n        /* \"#utility.yul\":8115:8141   */\n      swap1\n      pop\n        /* \"#utility.yul\":8151:8216   */\n      tag_325\n        /* \"#utility.yul\":8213:8214   */\n      0x00\n        /* \"#utility.yul\":8202:8211   */\n      dup4\n        /* \"#utility.yul\":8198:8215   */\n      add\n        /* \"#utility.yul\":8189:8195   */\n      dup5\n        /* \"#utility.yul\":8151:8216   */\n      tag_266\n      jump\t// in\n    tag_325:\n        /* \"#utility.yul\":8013:8223   */\n      swap3\n      swap2\n      pop\n      pop\n      jump\t// out\n        /* \"#utility.yul\":8229:9182   */\n    tag_67:\n        /* \"#utility.yul\":8500:8504   */\n      0x00\n        /* \"#utility.yul\":8538:8541   */\n      0xc0\n        /* \"#utility.yul\":8527:8536   */\n      dup3\n        /* \"#utility.yul\":8523:8542   */\n      add\n        /* \"#utility.yul\":8515:8542   */\n      swap1\n      pop\n        /* \"#utility.yul\":8552:8617   */\n      tag_327\n        /* \"#utility.yul\":8614:8615   */\n      0x00\n        /* \"#utility.yul\":8603:8612   */\n      dup4\n        /* \"#utility.yul\":8599:8616   */\n      add\n        /* \"#utility.yul\":8590:8596   */\n      dup10\n        /* \"#utility.yul\":8552:8617   */\n      tag_266\n      jump\t// in\n    tag_327:\n        /* \"#utility.yul\":8627:8699   */\n      tag_328\n        /* \"#utility.yul\":8695:8697   */\n      0x20\n        /* \"#utility.yul\":8684:8693   */\n      dup4\n        /* \"#utility.yul\":8680:8698   */\n      add\n        /* \"#utility.yul\":8671:8677   */\n      dup9\n        /* \"#utility.yul\":8627:8699   */\n      tag_262\n      jump\t// in\n    tag_328:\n        /* \"#utility.yul\":8709:8779   */\n      tag_329\n        /* \"#utility.yul\":8775:8777   */\n      0x40\n        /* \"#utility.yul\":8764:8773   */\n      dup4\n        /* \"#utility.yul\":8760:8778   */\n      add\n        /* \"#utility.yul\":8751:8757   */\n      dup8\n        /* \"#utility.yul\":8709:8779   */\n      tag_301\n      jump\t// in\n    tag_329:\n        /* \"#utility.yul\":8789:8867   */\n      tag_330\n        /* \"#utility.yul\":8863:8865   */\n      0x60\n        /* \"#utility.yul\":8852:8861   */\n      dup4\n        /* \"#utility.yul\":8848:8866   */\n      add\n        /* \"#utility.yul\":8839:8845   */\n      dup7\n        /* \"#utility.yul\":8789:8867   */\n      tag_282\n      jump\t// in\n    tag_330:\n        /* \"#utility.yul\":8915:8924   */\n      dup2\n        /* \"#utility.yul\":8909:8913   */\n      dup2\n        /* \"#utility.yul\":8905:8925   */\n      sub\n        /* \"#utility.yul\":8899:8902   */\n      0x80\n        /* \"#utility.yul\":8888:8897   */\n      dup4\n        /* \"#utility.yul\":8884:8903   */\n      add\n        /* \"#utility.yul\":8877:8926   */\n      mstore\n        /* \"#utility.yul\":8943:9021   */\n      tag_331\n        /* \"#utility.yul\":9016:9020   */\n      dup2\n        /* \"#utility.yul\":9007:9013   */\n      dup6\n        /* \"#utility.yul\":8943:9021   */\n      tag_286\n      jump\t// in\n    tag_331:\n        /* \"#utility.yul\":8935:9021   */\n      swap1\n      pop\n        /* \"#utility.yul\":9069:9078   */\n      dup2\n        /* \"#utility.yul\":9063:9067   */\n      dup2\n        /* \"#utility.yul\":9059:9079   */\n      sub\n        /* \"#utility.yul\":9053:9056   */\n      0xa0\n        /* \"#utility.yul\":9042:9051   */\n      dup4\n        /* \"#utility.yul\":9038:9057   */\n      add\n        /* \"#utility.yul\":9031:9080   */\n      mstore\n        /* \"#utility.yul\":9097:9175   */\n      tag_332\n        /* \"#utility.yul\":9170:9174   */\n      dup2\n        /* \"#utility.yul\":9161:9167   */\n      dup5\n        /* \"#utility.yul\":9097:9175   */\n      tag_286\n      jump\t// in\n    tag_332:\n        /* \"#utility.yul\":9089:9175   */\n      swap1\n      pop\n        /* \"#utility.yul\":8229:9182   */\n      swap8\n      swap7\n      pop\n      pop\n      pop\n      pop\n      pop\n      pop\n      pop\n      jump\t// out\n        /* \"#utility.yul\":9188:9701   */\n    tag_25:\n        /* \"#utility.yul\":9347:9351   */\n      0x00\n        /* \"#utility.yul\":9385:9387   */\n      0x60\n        /* \"#utility.yul\":9374:9383   */\n      dup3\n        /* \"#utility.yul\":9370:9388   */\n      add\n        /* \"#utility.yul\":9362:9388   */\n      swap1\n      pop\n        /* \"#utility.yul\":9398:9463   */\n      tag_334\n        /* \"#utility.yul\":9460:9461   */\n      0x00\n        /* \"#utility.yul\":9449:9458   */\n      dup4\n        /* \"#utility.yul\":9445:9462   */\n      add\n        /* \"#utility.yul\":9436:9442   */\n      dup7\n        /* \"#utility.yul\":9398:9463   */\n      tag_266\n      jump\t// in\n    tag_334:\n        /* \"#utility.yul\":9510:9519   */\n      dup2\n        /* \"#utility.yul\":9504:9508   */\n      dup2\n        /* \"#utility.yul\":9500:9520   */\n      sub\n        /* \"#utility.yul\":9495:9497   */\n      0x20\n        /* \"#utility.yul\":9484:9493   */\n      dup4\n        /* \"#utility.yul\":9480:9498   */\n      add\n        /* \"#utility.yul\":9473:9521   */\n      mstore\n        /* \"#utility.yul\":9538:9616   */\n      tag_335\n        /* \"#utility.yul\":9611:9615   */\n      dup2\n        /* \"#utility.yul\":9602:9608   */\n      dup6\n        /* \"#utility.yul\":9538:9616   */\n      tag_286\n      jump\t// in\n    tag_335:\n        /* \"#utility.yul\":9530:9616   */\n      swap1\n      pop\n        /* \"#utility.yul\":9626:9694   */\n      tag_336\n        /* \"#utility.yul\":9690:9692   */\n      0x40\n        /* \"#utility.yul\":9679:9688   */\n      dup4\n        /* \"#utility.yul\":9675:9693   */\n      add\n        /* \"#utility.yul\":9666:9672   */\n      dup5\n        /* \"#utility.yul\":9626:9694   */\n      tag_313\n      jump\t// in\n    tag_336:\n        /* \"#utility.yul\":9188:9701   */\n      swap5\n      swap4\n      pop\n      pop\n      pop\n      pop\n      jump\t// out\n        /* \"#utility.yul\":9707:10331   */\n    tag_48:\n        /* \"#utility.yul\":9894:9898   */\n      0x00\n        /* \"#utility.yul\":9932:9935   */\n      0x80\n        /* \"#utility.yul\":9921:9930   */\n      dup3\n        /* \"#utility.yul\":9917:9936   */\n      add\n        /* \"#utility.yul\":9909:9936   */\n      swap1\n      pop\n        /* \"#utility.yul\":9946:10011   */\n      tag_338\n        /* \"#utility.yul\":10008:10009   */\n      0x00\n        /* \"#utility.yul\":9997:10006   */\n      dup4\n        /* \"#utility.yul\":9993:10010   */\n      add\n        /* \"#utility.yul\":9984:9990   */\n      dup8\n        /* \"#utility.yul\":9946:10011   */\n      tag_266\n      jump\t// in\n    tag_338:\n        /* \"#utility.yul\":10021:10089   */\n      tag_339\n        /* \"#utility.yul\":10085:10087   */\n      0x20\n        /* \"#utility.yul\":10074:10083   */\n      dup4\n        /* \"#utility.yul\":10070:10088   */\n      add\n        /* \"#utility.yul\":10061:10067   */\n      dup7\n        /* \"#utility.yul\":10021:10089   */\n      tag_313\n      jump\t// in\n    tag_339:\n        /* \"#utility.yul\":10099:10171   */\n      tag_340\n        /* \"#utility.yul\":10167:10169   */\n      0x40\n        /* \"#utility.yul\":10156:10165   */\n      dup4\n        /* \"#utility.yul\":10152:10170   */\n      add\n        /* \"#utility.yul\":10143:10149   */\n      dup6\n        /* \"#utility.yul\":10099:10171   */\n      tag_305\n      jump\t// in\n    tag_340:\n        /* \"#utility.yul\":10218:10227   */\n      dup2\n        /* \"#utility.yul\":10212:10216   */\n      dup2\n        /* \"#utility.yul\":10208:10228   */\n      sub\n        /* \"#utility.yul\":10203:10205   */\n      0x60\n        /* \"#utility.yul\":10192:10201   */\n      dup4\n        /* \"#utility.yul\":10188:10206   */\n      add\n        /* \"#utility.yul\":10181:10229   */\n      mstore\n        /* \"#utility.yul\":10246:10324   */\n      tag_341\n        /* \"#utility.yul\":10319:10323   */\n      dup2\n        /* \"#utility.yul\":10310:10316   */\n      dup5\n        /* \"#utility.yul\":10246:10324   */\n      tag_286\n      jump\t// in\n    tag_341:\n        /* \"#utility.yul\":10238:10324   */\n      swap1\n      pop\n        /* \"#utility.yul\":9707:10331   */\n      swap6\n      swap5\n      pop\n      pop\n      pop\n      pop\n      pop\n      jump\t// out\n        /* \"#utility.yul\":10337:11877   */\n    tag_39:\n        /* \"#utility.yul\":10766:10770   */\n      0x00\n        /* \"#utility.yul\":10804:10807   */\n      0x0140\n        /* \"#utility.yul\":10793:10802   */\n      dup3\n        /* \"#utility.yul\":10789:10808   */\n      add\n        /* \"#utility.yul\":10781:10808   */\n      swap1\n      pop\n        /* \"#utility.yul\":10854:10863   */\n      dup2\n        /* \"#utility.yul\":10848:10852   */\n      dup2\n        /* \"#utility.yul\":10844:10864   */\n      sub\n        /* \"#utility.yul\":10840:10841   */\n      0x00\n        /* \"#utility.yul\":10829:10838   */\n      dup4\n        /* \"#utility.yul\":10825:10842   */\n      add\n        /* \"#utility.yul\":10818:10865   */\n      mstore\n        /* \"#utility.yul\":10882:10960   */\n      tag_343\n        /* \"#utility.yul\":10955:10959   */\n      dup2\n        /* \"#utility.yul\":10946:10952   */\n      dup14\n        /* \"#utility.yul\":10882:10960   */\n      tag_286\n      jump\t// in\n    tag_343:\n        /* \"#utility.yul\":10874:10960   */\n      swap1\n      pop\n        /* \"#utility.yul\":11007:11016   */\n      dup2\n        /* \"#utility.yul\":11001:11005   */\n      dup2\n        /* \"#utility.yul\":10997:11017   */\n      sub\n        /* \"#utility.yul\":10992:10994   */\n      0x20\n        /* \"#utility.yul\":10981:10990   */\n      dup4\n        /* \"#utility.yul\":10977:10995   */\n      add\n        /* \"#utility.yul\":10970:11018   */\n      mstore\n        /* \"#utility.yul\":11035:11113   */\n      tag_344\n        /* \"#utility.yul\":11108:11112   */\n      dup2\n        /* \"#utility.yul\":11099:11105   */\n      dup13\n        /* \"#utility.yul\":11035:11113   */\n      tag_286\n      jump\t// in\n    tag_344:\n        /* \"#utility.yul\":11027:11113   */\n      swap1\n      pop\n        /* \"#utility.yul\":11123:11191   */\n      tag_345\n        /* \"#utility.yul\":11187:11189   */\n      0x40\n        /* \"#utility.yul\":11176:11185   */\n      dup4\n        /* \"#utility.yul\":11172:11190   */\n      add\n        /* \"#utility.yul\":11163:11169   */\n      dup12\n        /* \"#utility.yul\":11123:11191   */\n      tag_313\n      jump\t// in\n    tag_345:\n        /* \"#utility.yul\":11201:11271   */\n      tag_346\n        /* \"#utility.yul\":11267:11269   */\n      0x60\n        /* \"#utility.yul\":11256:11265   */\n      dup4\n        /* \"#utility.yul\":11252:11270   */\n      add\n        /* \"#utility.yul\":11243:11249   */\n      dup11\n        /* \"#utility.yul\":11201:11271   */\n      tag_309\n      jump\t// in\n    tag_346:\n        /* \"#utility.yul\":11319:11328   */\n      dup2\n        /* \"#utility.yul\":11313:11317   */\n      dup2\n        /* \"#utility.yul\":11309:11329   */\n      sub\n        /* \"#utility.yul\":11303:11306   */\n      0x80\n        /* \"#utility.yul\":11292:11301   */\n      dup4\n        /* \"#utility.yul\":11288:11307   */\n      add\n        /* \"#utility.yul\":11281:11330   */\n      mstore\n        /* \"#utility.yul\":11347:11425   */\n      tag_347\n        /* \"#utility.yul\":11420:11424   */\n      dup2\n        /* \"#utility.yul\":11411:11417   */\n      dup10\n        /* \"#utility.yul\":11347:11425   */\n      tag_286\n      jump\t// in\n    tag_347:\n        /* \"#utility.yul\":11339:11425   */\n      swap1\n      pop\n        /* \"#utility.yul\":11435:11517   */\n      tag_348\n        /* \"#utility.yul\":11512:11515   */\n      0xa0\n        /* \"#utility.yul\":11501:11510   */\n      dup4\n        /* \"#utility.yul\":11497:11516   */\n      add\n        /* \"#utility.yul\":11488:11494   */\n      dup9\n        /* \"#utility.yul\":11435:11517   */\n      tag_274\n      jump\t// in\n    tag_348:\n        /* \"#utility.yul\":11527:11614   */\n      tag_349\n        /* \"#utility.yul\":11609:11612   */\n      0xc0\n        /* \"#utility.yul\":11598:11607   */\n      dup4\n        /* \"#utility.yul\":11594:11613   */\n      add\n        /* \"#utility.yul\":11585:11591   */\n      dup8\n        /* \"#utility.yul\":11527:11614   */\n      tag_270\n      jump\t// in\n    tag_349:\n        /* \"#utility.yul\":11624:11693   */\n      tag_350\n        /* \"#utility.yul\":11688:11691   */\n      0xe0\n        /* \"#utility.yul\":11677:11686   */\n      dup4\n        /* \"#utility.yul\":11673:11692   */\n      add\n        /* \"#utility.yul\":11664:11670   */\n      dup7\n        /* \"#utility.yul\":11624:11693   */\n      tag_313\n      jump\t// in\n    tag_350:\n        /* \"#utility.yul\":11703:11789   */\n      tag_351\n        /* \"#utility.yul\":11784:11787   */\n      0x0100\n        /* \"#utility.yul\":11773:11782   */\n      dup4\n        /* \"#utility.yul\":11769:11788   */\n      add\n        /* \"#utility.yul\":11760:11766   */\n      dup6\n        /* \"#utility.yul\":11703:11789   */\n      tag_278\n      jump\t// in\n    tag_351:\n        /* \"#utility.yul\":11799:11870   */\n      tag_352\n        /* \"#utility.yul\":11865:11868   */\n      0x0120\n        /* \"#utility.yul\":11854:11863   */\n      dup4\n        /* \"#utility.yul\":11850:11869   */\n      add\n        /* \"#utility.yul\":11841:11847   */\n      dup5\n        /* \"#utility.yul\":11799:11870   */\n      tag_301\n      jump\t// in\n    tag_352:\n        /* \"#utility.yul\":10337:11877   */\n      swap12\n      swap11\n      pop\n      pop\n      pop\n      pop\n      pop\n      pop\n      pop\n      pop\n      pop\n      pop\n      pop\n      jump\t// out\n        /* \"#utility.yul\":11883:12302   */\n    tag_76:\n        /* \"#utility.yul\":12049:12053   */\n      0x00\n        /* \"#utility.yul\":12087:12089   */\n      0x20\n        /* \"#utility.yul\":12076:12085   */\n      dup3\n        /* \"#utility.yul\":12072:12090   */\n      add\n        /* \"#utility.yul\":12064:12090   */\n      swap1\n      pop\n        /* \"#utility.yul\":12136:12145   */\n      dup2\n        /* \"#utility.yul\":12130:12134   */\n      dup2\n        /* \"#utility.yul\":12126:12146   */\n      sub\n        /* \"#utility.yul\":12122:12123   */\n      0x00\n        /* \"#utility.yul\":12111:12120   */\n      dup4\n        /* \"#utility.yul\":12107:12124   */\n      add\n        /* \"#utility.yul\":12100:12147   */\n      mstore\n        /* \"#utility.yul\":12164:12295   */\n      tag_354\n        /* \"#utility.yul\":12290:12294   */\n      dup2\n        /* \"#utility.yul\":12164:12295   */\n      tag_296\n      jump\t// in\n    tag_354:\n        /* \"#utility.yul\":12156:12295   */\n      swap1\n      pop\n        /* \"#utility.yul\":11883:12302   */\n      swap2\n      swap1\n      pop\n      jump\t// out\n        /* \"#utility.yul\":12308:12727   */\n    tag_62:\n        /* \"#utility.yul\":12447:12451   */\n      0x00\n        /* \"#utility.yul\":12485:12487   */\n      0x40\n        /* \"#utility.yul\":12474:12483   */\n      dup3\n        /* \"#utility.yul\":12470:12488   */\n      add\n        /* \"#utility.yul\":12462:12488   */\n      swap1\n      pop\n        /* \"#utility.yul\":12498:12567   */\n      tag_356\n        /* \"#utility.yul\":12564:12565   */\n      0x00\n        /* \"#utility.yul\":12553:12562   */\n      dup4\n        /* \"#utility.yul\":12549:12566   */\n      add\n        /* \"#utility.yul\":12540:12546   */\n      dup6\n        /* \"#utility.yul\":12498:12567   */\n      tag_309\n      jump\t// in\n    tag_356:\n        /* \"#utility.yul\":12614:12623   */\n      dup2\n        /* \"#utility.yul\":12608:12612   */\n      dup2\n        /* \"#utility.yul\":12604:12624   */\n      sub\n        /* \"#utility.yul\":12599:12601   */\n      0x20\n        /* \"#utility.yul\":12588:12597   */\n      dup4\n        /* \"#utility.yul\":12584:12602   */\n      add\n        /* \"#utility.yul\":12577:12625   */\n      mstore\n        /* \"#utility.yul\":12642:12720   */\n      tag_357\n        /* \"#utility.yul\":12715:12719   */\n      dup2\n        /* \"#utility.yul\":12706:12712   */\n      dup5\n        /* \"#utility.yul\":12642:12720   */\n      tag_286\n      jump\t// in\n    tag_357:\n        /* \"#utility.yul\":12634:12720   */\n      swap1\n      pop\n        /* \"#utility.yul\":12308:12727   */\n      swap4\n      swap3\n      pop\n      pop\n      pop\n      jump\t// out\n        /* \"#utility.yul\":12733:12862   */\n    tag_192:\n        /* \"#utility.yul\":12767:12773   */\n      0x00\n        /* \"#utility.yul\":12794:12814   */\n      tag_359\n      tag_360\n      jump\t// in\n    tag_359:\n        /* \"#utility.yul\":12784:12814   */\n      swap1\n      pop\n        /* \"#utility.yul\":12823:12856   */\n      tag_361\n        /* \"#utility.yul\":12851:12855   */\n      dup3\n        /* \"#utility.yul\":12843:12849   */\n      dup3\n        /* \"#utility.yul\":12823:12856   */\n      tag_362\n      jump\t// in\n    tag_361:\n        /* \"#utility.yul\":12733:12862   */\n      swap2\n      swap1\n      pop\n      jump\t// out\n        /* \"#utility.yul\":12868:12943   */\n    tag_360:\n        /* \"#utility.yul\":12901:12907   */\n      0x00\n        /* \"#utility.yul\":12934:12936   */\n      0x40\n        /* \"#utility.yul\":12928:12937   */\n      mload\n        /* \"#utility.yul\":12918:12937   */\n      swap1\n      pop\n        /* \"#utility.yul\":12868:12943   */\n      swap1\n      jump\t// out\n        /* \"#utility.yul\":12949:13257   */\n    tag_191:\n        /* \"#utility.yul\":13011:13015   */\n      0x00\n        /* \"#utility.yul\":13101:13119   */\n      0xffffffffffffffff\n        /* \"#utility.yul\":13093:13099   */\n      dup3\n        /* \"#utility.yul\":13090:13120   */\n      gt\n        /* \"#utility.yul\":13087:13143   */\n      iszero\n      tag_365\n      jumpi\n        /* \"#utility.yul\":13123:13141   */\n      tag_366\n      tag_367\n      jump\t// in\n    tag_366:\n        /* \"#utility.yul\":13087:13143   */\n    tag_365:\n        /* \"#utility.yul\":13161:13190   */\n      tag_368\n        /* \"#utility.yul\":13183:13189   */\n      dup3\n        /* \"#utility.yul\":13161:13190   */\n      tag_295\n      jump\t// in\n    tag_368:\n        /* \"#utility.yul\":13153:13190   */\n      swap1\n      pop\n        /* \"#utility.yul\":13245:13249   */\n      0x20\n        /* \"#utility.yul\":13239:13243   */\n      dup2\n        /* \"#utility.yul\":13235:13250   */\n      add\n        /* \"#utility.yul\":13227:13250   */\n      swap1\n      pop\n        /* \"#utility.yul\":12949:13257   */\n      swap2\n      swap1\n      pop\n      jump\t// out\n        /* \"#utility.yul\":13263:13362   */\n    tag_289:\n        /* \"#utility.yul\":13315:13321   */\n      0x00\n        /* \"#utility.yul\":13349:13354   */\n      dup2\n        /* \"#utility.yul\":13343:13355   */\n      mload\n        /* \"#utility.yul\":13333:13355   */\n      swap1\n      pop\n        /* \"#utility.yul\":13263:13362   */\n      swap2\n      swap1\n      pop\n      jump\t// out\n        /* \"#utility.yul\":13368:13537   */\n    tag_291:\n        /* \"#utility.yul\":13452:13463   */\n      0x00\n        /* \"#utility.yul\":13486:13492   */\n      dup3\n        /* \"#utility.yul\":13481:13484   */\n      dup3\n        /* \"#utility.yul\":13474:13493   */\n      mstore\n        /* \"#utility.yul\":13526:13530   */\n      0x20\n        /* \"#utility.yul\":13521:13524   */\n      dup3\n        /* \"#utility.yul\":13517:13531   */\n      add\n        /* \"#utility.yul\":13502:13531   */\n      swap1\n      pop\n        /* \"#utility.yul\":13368:13537   */\n      swap3\n      swap2\n      pop\n      pop\n      jump\t// out\n        /* \"#utility.yul\":13543:13639   */\n    tag_265:\n        /* \"#utility.yul\":13580:13587   */\n      0x00\n        /* \"#utility.yul\":13609:13633   */\n      tag_372\n        /* \"#utility.yul\":13627:13632   */\n      dup3\n        /* \"#utility.yul\":13609:13633   */\n      tag_373\n      jump\t// in\n    tag_372:\n        /* \"#utility.yul\":13598:13633   */\n      swap1\n      pop\n        /* \"#utility.yul\":13543:13639   */\n      swap2\n      swap1\n      pop\n      jump\t// out\n        /* \"#utility.yul\":13645:13735   */\n    tag_269:\n        /* \"#utility.yul\":13679:13686   */\n      0x00\n        /* \"#utility.yul\":13722:13727   */\n      dup2\n        /* \"#utility.yul\":13715:13728   */\n      iszero\n        /* \"#utility.yul\":13708:13729   */\n      iszero\n        /* \"#utility.yul\":13697:13729   */\n      swap1\n      pop\n        /* \"#utility.yul\":13645:13735   */\n      swap2\n      swap1\n      pop\n      jump\t// out\n        /* \"#utility.yul\":13741:13884   */\n    tag_375:\n        /* \"#utility.yul\":13794:13801   */\n      0x00\n        /* \"#utility.yul\":13823:13828   */\n      dup2\n        /* \"#utility.yul\":13812:13828   */\n      swap1\n      pop\n        /* \"#utility.yul\":13829:13878   */\n      tag_377\n        /* \"#utility.yul\":13872:13877   */\n      dup3\n        /* \"#utility.yul\":13829:13878   */\n      tag_378\n      jump\t// in\n    tag_377:\n        /* \"#utility.yul\":13741:13884   */\n      swap2\n      swap1\n      pop\n      jump\t// out\n        /* \"#utility.yul\":13890:14023   */\n    tag_379:\n        /* \"#utility.yul\":13938:13945   */\n      0x00\n        /* \"#utility.yul\":13967:13972   */\n      dup2\n        /* \"#utility.yul\":13956:13972   */\n      swap1\n      pop\n        /* \"#utility.yul\":13973:14017   */\n      tag_381\n        /* \"#utility.yul\":14011:14016   */\n      dup3\n        /* \"#utility.yul\":13973:14017   */\n      tag_382\n      jump\t// in\n    tag_381:\n        /* \"#utility.yul\":13890:14023   */\n      swap2\n      swap1\n      pop\n      jump\t// out\n        /* \"#utility.yul\":14029:14170   */\n    tag_383:\n        /* \"#utility.yul\":14081:14088   */\n      0x00\n        /* \"#utility.yul\":14110:14115   */\n      dup2\n        /* \"#utility.yul\":14099:14115   */\n      swap1\n      pop\n        /* \"#utility.yul\":14116:14164   */\n      tag_385\n        /* \"#utility.yul\":14158:14163   */\n      dup3\n        /* \"#utility.yul\":14116:14164   */\n      tag_386\n      jump\t// in\n    tag_385:\n        /* \"#utility.yul\":14029:14170   */\n      swap2\n      swap1\n      pop\n      jump\t// out\n        /* \"#utility.yul\":14176:14303   */\n    tag_387:\n        /* \"#utility.yul\":14221:14228   */\n      0x00\n        /* \"#utility.yul\":14250:14255   */\n      dup2\n        /* \"#utility.yul\":14239:14255   */\n      swap1\n      pop\n        /* \"#utility.yul\":14256:14297   */\n      tag_389\n        /* \"#utility.yul\":14291:14296   */\n      dup3\n        /* \"#utility.yul\":14256:14297   */\n      tag_390\n      jump\t// in\n    tag_389:\n        /* \"#utility.yul\":14176:14303   */\n      swap2\n      swap1\n      pop\n      jump\t// out\n        /* \"#utility.yul\":14309:14398   */\n    tag_304:\n        /* \"#utility.yul\":14345:14352   */\n      0x00\n        /* \"#utility.yul\":14385:14391   */\n      0xffff\n        /* \"#utility.yul\":14378:14383   */\n      dup3\n        /* \"#utility.yul\":14374:14392   */\n      and\n        /* \"#utility.yul\":14363:14392   */\n      swap1\n      pop\n        /* \"#utility.yul\":14309:14398   */\n      swap2\n      swap1\n      pop\n      jump\t// out\n        /* \"#utility.yul\":14404:14530   */\n    tag_373:\n        /* \"#utility.yul\":14441:14448   */\n      0x00\n        /* \"#utility.yul\":14481:14523   */\n      0xffffffffffffffffffffffffffffffffffffffff\n        /* \"#utility.yul\":14474:14479   */\n      dup3\n        /* \"#utility.yul\":14470:14524   */\n      and\n        /* \"#utility.yul\":14459:14524   */\n      swap1\n      pop\n        /* \"#utility.yul\":14404:14530   */\n      swap2\n      swap1\n      pop\n      jump\t// out\n        /* \"#utility.yul\":14536:14613   */\n    tag_308:\n        /* \"#utility.yul\":14573:14580   */\n      0x00\n        /* \"#utility.yul\":14602:14607   */\n      dup2\n        /* \"#utility.yul\":14591:14607   */\n      swap1\n      pop\n        /* \"#utility.yul\":14536:14613   */\n      swap2\n      swap1\n      pop\n      jump\t// out\n        /* \"#utility.yul\":14619:14712   */\n    tag_312:\n        /* \"#utility.yul\":14655:14662   */\n      0x00\n        /* \"#utility.yul\":14695:14705   */\n      0xffffffff\n        /* \"#utility.yul\":14688:14693   */\n      dup3\n        /* \"#utility.yul\":14684:14706   */\n      and\n        /* \"#utility.yul\":14673:14706   */\n      swap1\n      pop\n        /* \"#utility.yul\":14619:14712   */\n      swap2\n      swap1\n      pop\n      jump\t// out\n        /* \"#utility.yul\":14718:14804   */\n    tag_316:\n        /* \"#utility.yul\":14753:14760   */\n      0x00\n        /* \"#utility.yul\":14793:14797   */\n      0xff\n        /* \"#utility.yul\":14786:14791   */\n      dup3\n        /* \"#utility.yul\":14782:14798   */\n      and\n        /* \"#utility.yul\":14771:14798   */\n      swap1\n      pop\n        /* \"#utility.yul\":14718:14804   */\n      swap2\n      swap1\n      pop\n      jump\t// out\n        /* \"#utility.yul\":14810:14953   */\n    tag_273:\n        /* \"#utility.yul\":14874:14883   */\n      0x00\n        /* \"#utility.yul\":14907:14947   */\n      tag_397\n        /* \"#utility.yul\":14941:14946   */\n      dup3\n        /* \"#utility.yul\":14907:14947   */\n      tag_375\n      jump\t// in\n    tag_397:\n        /* \"#utility.yul\":14894:14947   */\n      swap1\n      pop\n        /* \"#utility.yul\":14810:14953   */\n      swap2\n      swap1\n      pop\n      jump\t// out\n        /* \"#utility.yul\":14959:15092   */\n    tag_277:\n        /* \"#utility.yul\":15018:15027   */\n      0x00\n        /* \"#utility.yul\":15051:15086   */\n      tag_399\n        /* \"#utility.yul\":15080:15085   */\n      dup3\n        /* \"#utility.yul\":15051:15086   */\n      tag_379\n      jump\t// in\n    tag_399:\n        /* \"#utility.yul\":15038:15086   */\n      swap1\n      pop\n        /* \"#utility.yul\":14959:15092   */\n      swap2\n      swap1\n      pop\n      jump\t// out\n        /* \"#utility.yul\":15098:15239   */\n    tag_281:\n        /* \"#utility.yul\":15161:15170   */\n      0x00\n        /* \"#utility.yul\":15194:15233   */\n      tag_401\n        /* \"#utility.yul\":15227:15232   */\n      dup3\n        /* \"#utility.yul\":15194:15233   */\n      tag_383\n      jump\t// in\n    tag_401:\n        /* \"#utility.yul\":15181:15233   */\n      swap1\n      pop\n        /* \"#utility.yul\":15098:15239   */\n      swap2\n      swap1\n      pop\n      jump\t// out\n        /* \"#utility.yul\":15245:15372   */\n    tag_285:\n        /* \"#utility.yul\":15301:15310   */\n      0x00\n        /* \"#utility.yul\":15334:15366   */\n      tag_403\n        /* \"#utility.yul\":15360:15365   */\n      dup3\n        /* \"#utility.yul\":15334:15366   */\n      tag_387\n      jump\t// in\n    tag_403:\n        /* \"#utility.yul\":15321:15366   */\n      swap1\n      pop\n        /* \"#utility.yul\":15245:15372   */\n      swap2\n      swap1\n      pop\n      jump\t// out\n        /* \"#utility.yul\":15378:15532   */\n    tag_197:\n        /* \"#utility.yul\":15462:15468   */\n      dup3\n        /* \"#utility.yul\":15457:15460   */\n      dup2\n        /* \"#utility.yul\":15452:15455   */\n      dup4\n        /* \"#utility.yul\":15439:15469   */\n      calldatacopy\n        /* \"#utility.yul\":15524:15525   */\n      0x00\n        /* \"#utility.yul\":15515:15521   */\n      dup4\n        /* \"#utility.yul\":15510:15513   */\n      dup4\n        /* \"#utility.yul\":15506:15522   */\n      add\n        /* \"#utility.yul\":15499:15526   */\n      mstore\n        /* \"#utility.yul\":15378:15532   */\n      pop\n      pop\n      pop\n      jump\t// out\n        /* \"#utility.yul\":15538:15845   */\n    tag_293:\n        /* \"#utility.yul\":15606:15607   */\n      0x00\n        /* \"#utility.yul\":15616:15729   */\n    tag_406:\n        /* \"#utility.yul\":15630:15636   */\n      dup4\n        /* \"#utility.yul\":15627:15628   */\n      dup2\n        /* \"#utility.yul\":15624:15637   */\n      lt\n        /* \"#utility.yul\":15616:15729   */\n      iszero\n      tag_408\n      jumpi\n        /* \"#utility.yul\":15715:15716   */\n      dup1\n        /* \"#utility.yul\":15710:15713   */\n      dup3\n        /* \"#utility.yul\":15706:15717   */\n      add\n        /* \"#utility.yul\":15700:15718   */\n      mload\n        /* \"#utility.yul\":15696:15697   */\n      dup2\n        /* \"#utility.yul\":15691:15694   */\n      dup5\n        /* \"#utility.yul\":15687:15698   */\n      add\n        /* \"#utility.yul\":15680:15719   */\n      mstore\n        /* \"#utility.yul\":15652:15654   */\n      0x20\n        /* \"#utility.yul\":15649:15650   */\n      dup2\n        /* \"#utility.yul\":15645:15655   */\n      add\n        /* \"#utility.yul\":15640:15655   */\n      swap1\n      pop\n        /* \"#utility.yul\":15616:15729   */\n      jump(tag_406)\n    tag_408:\n        /* \"#utility.yul\":15747:15753   */\n      dup4\n        /* \"#utility.yul\":15744:15745   */\n      dup2\n        /* \"#utility.yul\":15741:15754   */\n      gt\n        /* \"#utility.yul\":15738:15839   */\n      iszero\n      tag_409\n      jumpi\n        /* \"#utility.yul\":15827:15828   */\n      0x00\n        /* \"#utility.yul\":15818:15824   */\n      dup5\n        /* \"#utility.yul\":15813:15816   */\n      dup5\n        /* \"#utility.yul\":15809:15825   */\n      add\n        /* \"#utility.yul\":15802:15829   */\n      mstore\n        /* \"#utility.yul\":15738:15839   */\n    tag_409:\n        /* \"#utility.yul\":15587:15845   */\n      pop\n        /* \"#utility.yul\":15538:15845   */\n      pop\n      pop\n      pop\n      jump\t// out\n        /* \"#utility.yul\":15851:16171   */\n    tag_97:\n        /* \"#utility.yul\":15895:15901   */\n      0x00\n        /* \"#utility.yul\":15932:15933   */\n      0x02\n        /* \"#utility.yul\":15926:15930   */\n      dup3\n        /* \"#utility.yul\":15922:15934   */\n      div\n        /* \"#utility.yul\":15912:15934   */\n      swap1\n      pop\n        /* \"#utility.yul\":15979:15980   */\n      0x01\n        /* \"#utility.yul\":15973:15977   */\n      dup3\n        /* \"#utility.yul\":15969:15981   */\n      and\n        /* \"#utility.yul\":16000:16018   */\n      dup1\n        /* \"#utility.yul\":15990:16071   */\n      tag_411\n      jumpi\n        /* \"#utility.yul\":16056:16060   */\n      0x7f\n        /* \"#utility.yul\":16048:16054   */\n      dup3\n        /* \"#utility.yul\":16044:16061   */\n      and\n        /* \"#utility.yul\":16034:16061   */\n      swap2\n      pop\n        /* \"#utility.yul\":15990:16071   */\n    tag_411:\n        /* \"#utility.yul\":16118:16120   */\n      0x20\n        /* \"#utility.yul\":16110:16116   */\n      dup3\n        /* \"#utility.yul\":16107:16121   */\n      lt\n        /* \"#utility.yul\":16087:16105   */\n      dup2\n        /* \"#utility.yul\":16084:16122   */\n      eq\n        /* \"#utility.yul\":16081:16165   */\n      iszero\n      tag_412\n      jumpi\n        /* \"#utility.yul\":16137:16155   */\n      tag_413\n      tag_414\n      jump\t// in\n    tag_413:\n        /* \"#utility.yul\":16081:16165   */\n    tag_412:\n        /* \"#utility.yul\":15902:16171   */\n      pop\n        /* \"#utility.yul\":15851:16171   */\n      swap2\n      swap1\n      pop\n      jump\t// out\n        /* \"#utility.yul\":16177:16458   */\n    tag_362:\n        /* \"#utility.yul\":16260:16287   */\n      tag_416\n        /* \"#utility.yul\":16282:16286   */\n      dup3\n        /* \"#utility.yul\":16260:16287   */\n      tag_295\n      jump\t// in\n    tag_416:\n        /* \"#utility.yul\":16252:16258   */\n      dup2\n        /* \"#utility.yul\":16248:16288   */\n      add\n        /* \"#utility.yul\":16390:16396   */\n      dup2\n        /* \"#utility.yul\":16378:16388   */\n      dup2\n        /* \"#utility.yul\":16375:16397   */\n      lt\n        /* \"#utility.yul\":16354:16372   */\n      0xffffffffffffffff\n        /* \"#utility.yul\":16342:16352   */\n      dup3\n        /* \"#utility.yul\":16339:16373   */\n      gt\n        /* \"#utility.yul\":16336:16398   */\n      or\n        /* \"#utility.yul\":16333:16421   */\n      iszero\n      tag_417\n      jumpi\n        /* \"#utility.yul\":16401:16419   */\n      tag_418\n      tag_367\n      jump\t// in\n    tag_418:\n        /* \"#utility.yul\":16333:16421   */\n    tag_417:\n        /* \"#utility.yul\":16441:16451   */\n      dup1\n        /* \"#utility.yul\":16437:16439   */\n      0x40\n        /* \"#utility.yul\":16430:16452   */\n      mstore\n        /* \"#utility.yul\":16220:16458   */\n      pop\n        /* \"#utility.yul\":16177:16458   */\n      pop\n      pop\n      jump\t// out\n        /* \"#utility.yul\":16464:16644   */\n    tag_79:\n        /* \"#utility.yul\":16512:16589   */\n      0x4e487b7100000000000000000000000000000000000000000000000000000000\n        /* \"#utility.yul\":16509:16510   */\n      0x00\n        /* \"#utility.yul\":16502:16590   */\n      mstore\n        /* \"#utility.yul\":16609:16613   */\n      0x21\n        /* \"#utility.yul\":16606:16607   */\n      0x04\n        /* \"#utility.yul\":16599:16614   */\n      mstore\n        /* \"#utility.yul\":16633:16637   */\n      0x24\n        /* \"#utility.yul\":16630:16631   */\n      0x00\n        /* \"#utility.yul\":16623:16638   */\n      revert\n        /* \"#utility.yul\":16650:16830   */\n    tag_414:\n        /* \"#utility.yul\":16698:16775   */\n      0x4e487b7100000000000000000000000000000000000000000000000000000000\n        /* \"#utility.yul\":16695:16696   */\n      0x00\n        /* \"#utility.yul\":16688:16776   */\n      mstore\n        /* \"#utility.yul\":16795:16799   */\n      0x22\n        /* \"#utility.yul\":16792:16793   */\n      0x04\n        /* \"#utility.yul\":16785:16800   */\n      mstore\n        /* \"#utility.yul\":16819:16823   */\n      0x24\n        /* \"#utility.yul\":16816:16817   */\n      0x00\n        /* \"#utility.yul\":16809:16824   */\n      revert\n        /* \"#utility.yul\":16836:17016   */\n    tag_367:\n        /* \"#utility.yul\":16884:16961   */\n      0x4e487b7100000000000000000000000000000000000000000000000000000000\n        /* \"#utility.yul\":16881:16882   */\n      0x00\n        /* \"#utility.yul\":16874:16962   */\n      mstore\n        /* \"#utility.yul\":16981:16985   */\n      0x41\n        /* \"#utility.yul\":16978:16979   */\n      0x04\n        /* \"#utility.yul\":16971:16986   */\n      mstore\n        /* \"#utility.yul\":17005:17009   */\n      0x24\n        /* \"#utility.yul\":17002:17003   */\n      0x00\n        /* \"#utility.yul\":16995:17010   */\n      revert\n        /* \"#utility.yul\":17022:17139   */\n    tag_218:\n        /* \"#utility.yul\":17131:17132   */\n      0x00\n        /* \"#utility.yul\":17128:17129   */\n      dup1\n        /* \"#utility.yul\":17121:17133   */\n      revert\n        /* \"#utility.yul\":17145:17262   */\n    tag_195:\n        /* \"#utility.yul\":17254:17255   */\n      0x00\n        /* \"#utility.yul\":17251:17252   */\n      dup1\n        /* \"#utility.yul\":17244:17256   */\n      revert\n        /* \"#utility.yul\":17268:17385   */\n    tag_243:\n        /* \"#utility.yul\":17377:17378   */\n      0x00\n        /* \"#utility.yul\":17374:17375   */\n      dup1\n        /* \"#utility.yul\":17367:17379   */\n      revert\n        /* \"#utility.yul\":17391:17508   */\n    tag_235:\n        /* \"#utility.yul\":17500:17501   */\n      0x00\n        /* \"#utility.yul\":17497:17498   */\n      dup1\n        /* \"#utility.yul\":17490:17502   */\n      revert\n        /* \"#utility.yul\":17514:17616   */\n    tag_295:\n        /* \"#utility.yul\":17555:17561   */\n      0x00\n        /* \"#utility.yul\":17606:17608   */\n      0x1f\n        /* \"#utility.yul\":17602:17609   */\n      not\n        /* \"#utility.yul\":17597:17599   */\n      0x1f\n        /* \"#utility.yul\":17590:17595   */\n      dup4\n        /* \"#utility.yul\":17586:17600   */\n      add\n        /* \"#utility.yul\":17582:17610   */\n      and\n        /* \"#utility.yul\":17572:17610   */\n      swap1\n      pop\n        /* \"#utility.yul\":17514:17616   */\n      swap2\n      swap1\n      pop\n      jump\t// out\n        /* \"#utility.yul\":17622:17789   */\n    tag_300:\n        /* \"#utility.yul\":17762:17781   */\n      0x4b697369206d657663757420646567696c000000000000000000000000000000\n        /* \"#utility.yul\":17758:17759   */\n      0x00\n        /* \"#utility.yul\":17750:17756   */\n      dup3\n        /* \"#utility.yul\":17746:17760   */\n      add\n        /* \"#utility.yul\":17739:17782   */\n      mstore\n        /* \"#utility.yul\":17622:17789   */\n      pop\n      jump\t// out\n        /* \"#utility.yul\":17795:17916   */\n    tag_378:\n        /* \"#utility.yul\":17884:17885   */\n      0x03\n        /* \"#utility.yul\":17877:17882   */\n      dup2\n        /* \"#utility.yul\":17874:17886   */\n      lt\n        /* \"#utility.yul\":17864:17910   */\n      tag_429\n      jumpi\n        /* \"#utility.yul\":17890:17908   */\n      tag_430\n      tag_79\n      jump\t// in\n    tag_430:\n        /* \"#utility.yul\":17864:17910   */\n    tag_429:\n        /* \"#utility.yul\":17795:17916   */\n      pop\n      jump\t// out\n        /* \"#utility.yul\":17922:18038   */\n    tag_382:\n        /* \"#utility.yul\":18006:18007   */\n      0x02\n        /* \"#utility.yul\":17999:18004   */\n      dup2\n        /* \"#utility.yul\":17996:18008   */\n      lt\n        /* \"#utility.yul\":17986:18032   */\n      tag_432\n      jumpi\n        /* \"#utility.yul\":18012:18030   */\n      tag_433\n      tag_79\n      jump\t// in\n    tag_433:\n        /* \"#utility.yul\":17986:18032   */\n    tag_432:\n        /* \"#utility.yul\":17922:18038   */\n      pop\n      jump\t// out\n        /* \"#utility.yul\":18044:18164   */\n    tag_386:\n        /* \"#utility.yul\":18132:18133   */\n      0x06\n        /* \"#utility.yul\":18125:18130   */\n      dup2\n        /* \"#utility.yul\":18122:18134   */\n      lt\n        /* \"#utility.yul\":18112:18158   */\n      tag_435\n      jumpi\n        /* \"#utility.yul\":18138:18156   */\n      tag_436\n      tag_79\n      jump\t// in\n    tag_436:\n        /* \"#utility.yul\":18112:18158   */\n    tag_435:\n        /* \"#utility.yul\":18044:18164   */\n      pop\n      jump\t// out\n        /* \"#utility.yul\":18170:18283   */\n    tag_390:\n        /* \"#utility.yul\":18251:18252   */\n      0x04\n        /* \"#utility.yul\":18244:18249   */\n      dup2\n        /* \"#utility.yul\":18241:18253   */\n      lt\n        /* \"#utility.yul\":18231:18277   */\n      tag_438\n      jumpi\n        /* \"#utility.yul\":18257:18275   */\n      tag_439\n      tag_79\n      jump\t// in\n    tag_439:\n        /* \"#utility.yul\":18231:18277   */\n    tag_438:\n        /* \"#utility.yul\":18170:18283   */\n      pop\n      jump\t// out\n        /* \"#utility.yul\":18289:18411   */\n    tag_201:\n        /* \"#utility.yul\":18362:18386   */\n      tag_441\n        /* \"#utility.yul\":18380:18385   */\n      dup2\n        /* \"#utility.yul\":18362:18386   */\n      tag_265\n      jump\t// in\n    tag_441:\n        /* \"#utility.yul\":18355:18360   */\n      dup2\n        /* \"#utility.yul\":18352:18387   */\n      eq\n        /* \"#utility.yul\":18342:18405   */\n      tag_442\n      jumpi\n        /* \"#utility.yul\":18401:18402   */\n      0x00\n        /* \"#utility.yul\":18398:18399   */\n      dup1\n        /* \"#utility.yul\":18391:18403   */\n      revert\n        /* \"#utility.yul\":18342:18405   */\n    tag_442:\n        /* \"#utility.yul\":18289:18411   */\n      pop\n      jump\t// out\n        /* \"#utility.yul\":18417:18532   */\n    tag_205:\n        /* \"#utility.yul\":18506:18507   */\n      0x03\n        /* \"#utility.yul\":18499:18504   */\n      dup2\n        /* \"#utility.yul\":18496:18508   */\n      lt\n        /* \"#utility.yul\":18486:18526   */\n      tag_444\n      jumpi\n        /* \"#utility.yul\":18522:18523   */\n      0x00\n        /* \"#utility.yul\":18519:18520   */\n      dup1\n        /* \"#utility.yul\":18512:18524   */\n      revert\n        /* \"#utility.yul\":18486:18526   */\n    tag_444:\n        /* \"#utility.yul\":18417:18532   */\n      pop\n      jump\t// out\n        /* \"#utility.yul\":18538:18648   */\n    tag_209:\n        /* \"#utility.yul\":18622:18623   */\n      0x02\n        /* \"#utility.yul\":18615:18620   */\n      dup2\n        /* \"#utility.yul\":18612:18624   */\n      lt\n        /* \"#utility.yul\":18602:18642   */\n      tag_446\n      jumpi\n        /* \"#utility.yul\":18638:18639   */\n      0x00\n        /* \"#utility.yul\":18635:18636   */\n      dup1\n        /* \"#utility.yul\":18628:18640   */\n      revert\n        /* \"#utility.yul\":18602:18642   */\n    tag_446:\n        /* \"#utility.yul\":18538:18648   */\n      pop\n      jump\t// out\n        /* \"#utility.yul\":18654:18768   */\n    tag_213:\n        /* \"#utility.yul\":18742:18743   */\n      0x06\n        /* \"#utility.yul\":18735:18740   */\n      dup2\n        /* \"#utility.yul\":18732:18744   */\n      lt\n        /* \"#utility.yul\":18722:18762   */\n      tag_448\n      jumpi\n        /* \"#utility.yul\":18758:18759   */\n      0x00\n        /* \"#utility.yul\":18755:18756   */\n      dup1\n        /* \"#utility.yul\":18748:18760   */\n      revert\n        /* \"#utility.yul\":18722:18762   */\n    tag_448:\n        /* \"#utility.yul\":18654:18768   */\n      pop\n      jump\t// out\n        /* \"#utility.yul\":18774:18894   */\n    tag_223:\n        /* \"#utility.yul\":18846:18869   */\n      tag_450\n        /* \"#utility.yul\":18863:18868   */\n      dup2\n        /* \"#utility.yul\":18846:18869   */\n      tag_304\n      jump\t// in\n    tag_450:\n        /* \"#utility.yul\":18839:18844   */\n      dup2\n        /* \"#utility.yul\":18836:18870   */\n      eq\n        /* \"#utility.yul\":18826:18888   */\n      tag_451\n      jumpi\n        /* \"#utility.yul\":18884:18885   */\n      0x00\n        /* \"#utility.yul\":18881:18882   */\n      dup1\n        /* \"#utility.yul\":18874:18886   */\n      revert\n        /* \"#utility.yul\":18826:18888   */\n    tag_451:\n        /* \"#utility.yul\":18774:18894   */\n      pop\n      jump\t// out\n        /* \"#utility.yul\":18900:19020   */\n    tag_227:\n        /* \"#utility.yul\":18972:18995   */\n      tag_453\n        /* \"#utility.yul\":18989:18994   */\n      dup2\n        /* \"#utility.yul\":18972:18995   */\n      tag_312\n      jump\t// in\n    tag_453:\n        /* \"#utility.yul\":18965:18970   */\n      dup2\n        /* \"#utility.yul\":18962:18996   */\n      eq\n        /* \"#utility.yul\":18952:19014   */\n      tag_454\n      jumpi\n        /* \"#utility.yul\":19010:19011   */\n      0x00\n        /* \"#utility.yul\":19007:19008   */\n      dup1\n        /* \"#utility.yul\":19000:19012   */\n      revert\n        /* \"#utility.yul\":18952:19014   */\n    tag_454:\n        /* \"#utility.yul\":18900:19020   */\n      pop\n      jump\t// out\n        /* \"#utility.yul\":19026:19144   */\n    tag_231:\n        /* \"#utility.yul\":19097:19119   */\n      tag_456\n        /* \"#utility.yul\":19113:19118   */\n      dup2\n        /* \"#utility.yul\":19097:19119   */\n      tag_316\n      jump\t// in\n    tag_456:\n        /* \"#utility.yul\":19090:19095   */\n      dup2\n        /* \"#utility.yul\":19087:19120   */\n      eq\n        /* \"#utility.yul\":19077:19138   */\n      tag_457\n      jumpi\n        /* \"#utility.yul\":19134:19135   */\n      0x00\n        /* \"#utility.yul\":19131:19132   */\n      dup1\n        /* \"#utility.yul\":19124:19136   */\n      revert\n        /* \"#utility.yul\":19077:19138   */\n    tag_457:\n        /* \"#utility.yul\":19026:19144   */\n      pop\n      jump\t// out\n\n    auxdata: 0xa2646970667358221220a6afe61690f9dc86e3c664e16813115cac0103c03582174a136590c1df6c77e064736f6c63430008070033\n}\n",
				"bytecode": {
					"linkReferences": {},
					"object": "608060405234801561001057600080fd5b50611d9c806100206000396000f3fe608060405234801561001057600080fd5b50600436106100b45760003560e01c806339987f941161007157806339987f94146101d45780637d0fa287146102075780639a8c911914610239578063a4e7ae051461026b578063ba479b7e1461029c578063cbc92809146102d1576100b4565b806306064a3e146100b95780631916e139146100d55780632826669714610107578063317c82d11461013957806333c1955414610169578063356b1f1e146101a2575b600080fd5b6100d360048036038101906100ce91906114a7565b610301565b005b6100ef60048036038101906100ea919061147a565b61061d565b6040516100fe93929190611806565b60405180910390f35b610121600480360381019061011c919061147a565b6106e9565b60405161013093929190611806565b60405180910390f35b610153600480360381019061014e91906114a7565b6107b5565b604051610160919061170e565b60405180910390f35b610183600480360381019061017e919061147a565b610ad8565b6040516101999a99989796959493929190611890565b60405180910390f35b6101bc60048036038101906101b7919061147a565b610d23565b6040516101cb93929190611806565b60405180910390f35b6101ee60048036038101906101e9919061147a565b610def565b6040516101fe9493929190611844565b60405180910390f35b610221600480360381019061021c919061147a565b610ec1565b60405161023093929190611806565b60405180910390f35b610253600480360381019061024e919061147a565b610f8d565b60405161026293929190611806565b60405180910390f35b610285600480360381019061028091906115ef565b611059565b604051610293929190611961565b60405180910390f35b6102b660048036038101906102b1919061147a565b611115565b6040516102c896959493929190611797565b60405180910390f35b6102eb60048036038101906102e6919061147a565b6112a9565b6040516102f8919061177c565b60405180910390f35b600360008c73ffffffffffffffffffffffffffffffffffffffff1673ffffffffffffffffffffffffffffffffffffffff16815260200190815260200160002060000160009054906101000a900460ff16610390576040517f08c379a000000000000000000000000000000000000000000000000000000000815260040161038790611941565b60405180910390fd5b6040518061014001604052808b81526020018a81526020018960ff1681526020018863ffffffff1681526020018781526020018660018111156103d6576103d5611baf565b5b81526020018560028111156103ee576103ed611baf565b5b81526020018460ff16815260200183600581111561040f5761040e611baf565b5b81526020018261ffff16815250600c60008d73ffffffffffffffffffffffffffffffffffffffff1673ffffffffffffffffffffffffffffffffffffffff16815260200190815260200160002060008201518160000190805190602001906104779291906112d4565b5060208201518160010190805190602001906104949291906112d4565b5060408201518160020160006101000a81548160ff021916908360ff16021790555060608201518160020160016101000a81548163ffffffff021916908363ffffffff16021790555060808201518160030190805190602001906104f99291906112d4565b5060a08201518160040160006101000a81548160ff0219169083600181111561052557610524611baf565b5b021790555060c08201518160040160016101000a81548160ff0219169083600281111561055557610554611baf565b5b021790555060e08201518160040160026101000a81548160ff021916908360ff1602179055506101008201518160040160036101000a81548160ff021916908360058111156105a7576105a6611baf565b5b02179055506101208201518160040160046101000a81548161ffff021916908361ffff1602179055509050507f86c26b4f75e4e12a40a04d26a4583f8f27616a2d920a48848d5a6c3c938466df8b8b8b846040516106089493929190611729565b60405180910390a15050505050505050505050565b60076020528060005260406000206000915090508060000160009054906101000a900460ff169080600101805461065390611b4c565b80601f016020809104026020016040519081016040528092919081815260200182805461067f90611b4c565b80156106cc5780601f106106a1576101008083540402835291602001916106cc565b820191906000526020600020905b8154815290600101906020018083116106af57829003601f168201915b5050505050908060020160009054906101000a900460ff16905083565b60046020528060005260406000206000915090508060000160009054906101000a900460ff169080600101805461071f90611b4c565b80601f016020809104026020016040519081016040528092919081815260200182805461074b90611b4c565b80156107985780601f1061076d57610100808354040283529160200191610798565b820191906000526020600020905b81548152906001019060200180831161077b57829003601f168201915b5050505050908060020160009054906101000a900460ff16905083565b6000600360008d73ffffffffffffffffffffffffffffffffffffffff1673ffffffffffffffffffffffffffffffffffffffff16815260200190815260200160002060000160009054906101000a900460ff16610846576040517f08c379a000000000000000000000000000000000000000000000000000000000815260040161083d90611941565b60405180910390fd5b6040518061014001604052808c81526020018b81526020018a60ff1681526020018963ffffffff16815260200188815260200187600181111561088c5761088b611baf565b5b81526020018660028111156108a4576108a3611baf565b5b81526020018560ff1681526020018460058111156108c5576108c4611baf565b5b81526020018361ffff16815250600c60008e73ffffffffffffffffffffffffffffffffffffffff1673ffffffffffffffffffffffffffffffffffffffff168152602001908152602001600020600082015181600001908051906020019061092d9291906112d4565b50602082015181600101908051906020019061094a9291906112d4565b5060408201518160020160006101000a81548160ff021916908360ff16021790555060608201518160020160016101000a81548163ffffffff021916908363ffffffff16021790555060808201518160030190805190602001906109af9291906112d4565b5060a08201518160040160006101000a81548160ff021916908360018111156109db576109da611baf565b5b021790555060c08201518160040160016101000a81548160ff02191690836002811115610a0b57610a0a611baf565b5b021790555060e08201518160040160026101000a81548160ff021916908360ff1602179055506101008201518160040160036101000a81548160ff02191690836005811115610a5d57610a5c611baf565b5b02179055506101208201518160040160046101000a81548161ffff021916908361ffff1602179055509050507f63d87ed42ba706260aaa2ff2521f5a2810503763d2e120a4f8bcc29cb14e08ee8c8c8c85604051610abe9493929190611729565b60405180910390a18b90509b9a5050505050505050505050565b600c602052806000526040600020600091509050806000018054610afb90611b4c565b80601f0160208091040260200160405190810160405280929190818152602001828054610b2790611b4c565b8015610b745780601f10610b4957610100808354040283529160200191610b74565b820191906000526020600020905b815481529060010190602001808311610b5757829003601f168201915b505050505090806001018054610b8990611b4c565b80601f0160208091040260200160405190810160405280929190818152602001828054610bb590611b4c565b8015610c025780601f10610bd757610100808354040283529160200191610c02565b820191906000526020600020905b815481529060010190602001808311610be557829003601f168201915b5050505050908060020160009054906101000a900460ff16908060020160019054906101000a900463ffffffff1690806003018054610c4090611b4c565b80601f0160208091040260200160405190810160405280929190818152602001828054610c6c90611b4c565b8015610cb95780601f10610c8e57610100808354040283529160200191610cb9565b820191906000526020600020905b815481529060010190602001808311610c9c57829003601f168201915b5050505050908060040160009054906101000a900460ff16908060040160019054906101000a900460ff16908060040160029054906101000a900460ff16908060040160039054906101000a900460ff16908060040160049054906101000a900461ffff1690508a565b600a6020528060005260406000206000915090508060000160009054906101000a900460ff1690806001018054610d5990611b4c565b80601f0160208091040260200160405190810160405280929190818152602001828054610d8590611b4c565b8015610dd25780601f10610da757610100808354040283529160200191610dd2565b820191906000526020600020905b815481529060010190602001808311610db557829003601f168201915b5050505050908060020160009054906101000a900460ff16905083565b60066020528060005260406000206000915090508060000160009054906101000a900460ff16908060000160019054906101000a900460ff1690806001015490806002018054610e3e90611b4c565b80601f0160208091040260200160405190810160405280929190818152602001828054610e6a90611b4c565b8015610eb75780601f10610e8c57610100808354040283529160200191610eb7565b820191906000526020600020905b815481529060010190602001808311610e9a57829003601f168201915b5050505050905084565b60086020528060005260406000206000915090508060000160009054906101000a900460ff1690806001018054610ef790611b4c565b80601f0160208091040260200160405190810160405280929190818152602001828054610f2390611b4c565b8015610f705780601f10610f4557610100808354040283529160200191610f70565b820191906000526020600020905b815481529060010190602001808311610f5357829003601f168201915b5050505050908060020160009054906101000a900460ff16905083565b60096020528060005260406000206000915090508060000160009054906101000a900460ff1690806001018054610fc390611b4c565b80601f0160208091040260200160405190810160405280929190818152602001828054610fef90611b4c565b801561103c5780601f106110115761010080835404028352916020019161103c565b820191906000526020600020905b81548152906001019060200180831161101f57829003601f168201915b5050505050908060020160009054906101000a900460ff16905083565b600b6020528060005260406000206000915090508060000160009054906101000a900463ffffffff169080600101805461109290611b4c565b80601f01602080910402602001604051908101604052809291908181526020018280546110be90611b4c565b801561110b5780601f106110e05761010080835404028352916020019161110b565b820191906000526020600020905b8154815290600101906020018083116110ee57829003601f168201915b5050505050905082565b60056020528060005260406000206000915090508060000160009054906101000a900460ff16908060000160019054906101000a900473ffffffffffffffffffffffffffffffffffffffff16908060000160159054906101000a900461ffff16908060000160179054906101000a900460ff169080600101805461119890611b4c565b80601f01602080910402602001604051908101604052809291908181526020018280546111c490611b4c565b80156112115780601f106111e657610100808354040283529160200191611211565b820191906000526020600020905b8154815290600101906020018083116111f457829003601f168201915b50505050509080600201805461122690611b4c565b80601f016020809104026020016040519081016040528092919081815260200182805461125290611b4c565b801561129f5780601f106112745761010080835404028352916020019161129f565b820191906000526020600020905b81548152906001019060200180831161128257829003601f168201915b5050505050905086565b60036020528060005260406000206000915090508060000160009054906101000a900460ff16905081565b8280546112e090611b4c565b90600052602060002090601f0160209004810192826113025760008555611349565b82601f1061131b57805160ff1916838001178555611349565b82800160010185558215611349579182015b8281111561134857825182559160200191906001019061132d565b5b509050611356919061135a565b5090565b5b8082111561137357600081600090555060010161135b565b5090565b600061138a611385846119b6565b611991565b9050828152602081018484840111156113a6576113a5611c41565b5b6113b1848285611b0a565b509392505050565b6000813590506113c881611cda565b92915050565b6000813590506113dd81611cf1565b92915050565b6000813590506113f281611d01565b92915050565b60008135905061140781611d11565b92915050565b600082601f83011261142257611421611c3c565b5b8135611432848260208601611377565b91505092915050565b60008135905061144a81611d21565b92915050565b60008135905061145f81611d38565b92915050565b60008135905061147481611d4f565b92915050565b6000602082840312156114905761148f611c4b565b5b600061149e848285016113b9565b91505092915050565b60008060008060008060008060008060006101608c8e0312156114cd576114cc611c4b565b5b60006114db8e828f016113b9565b9b505060208c013567ffffffffffffffff8111156114fc576114fb611c46565b5b6115088e828f0161140d565b9a505060408c013567ffffffffffffffff81111561152957611528611c46565b5b6115358e828f0161140d565b99505060606115468e828f01611465565b98505060806115578e828f01611450565b97505060a08c013567ffffffffffffffff81111561157857611577611c46565b5b6115848e828f0161140d565b96505060c06115958e828f016113e3565b95505060e06115a68e828f016113ce565b9450506101006115b88e828f01611465565b9350506101206115ca8e828f016113f8565b9250506101406115dc8e828f0161143b565b9150509295989b509295989b9093969950565b60006020828403121561160557611604611c4b565b5b600061161384828501611450565b91505092915050565b61162581611a03565b82525050565b61163481611a15565b82525050565b61164381611ac2565b82525050565b61165281611ad4565b82525050565b61166181611ae6565b82525050565b61167081611af8565b82525050565b6000611681826119e7565b61168b81856119f2565b935061169b818560208601611b19565b6116a481611c50565b840191505092915050565b60006116bc6011836119f2565b91506116c782611c61565b602082019050919050565b6116db81611a6d565b82525050565b6116ea81611a9b565b82525050565b6116f981611aa5565b82525050565b61170881611ab5565b82525050565b6000602082019050611723600083018461161c565b92915050565b600060808201905061173e600083018761161c565b81810360208301526117508186611676565b905081810360408301526117648185611676565b905061177360608301846116d2565b95945050505050565b6000602082019050611791600083018461162b565b92915050565b600060c0820190506117ac600083018961162b565b6117b9602083018861161c565b6117c660408301876116d2565b6117d36060830186611667565b81810360808301526117e58185611676565b905081810360a08301526117f98184611676565b9050979650505050505050565b600060608201905061181b600083018661162b565b818103602083015261182d8185611676565b905061183c60408301846116ff565b949350505050565b6000608082019050611859600083018761162b565b61186660208301866116ff565b61187360408301856116e1565b81810360608301526118858184611676565b905095945050505050565b60006101408201905081810360008301526118ab818d611676565b905081810360208301526118bf818c611676565b90506118ce604083018b6116ff565b6118db606083018a6116f0565b81810360808301526118ed8189611676565b90506118fc60a0830188611649565b61190960c083018761163a565b61191660e08301866116ff565b611924610100830185611658565b6119326101208301846116d2565b9b9a5050505050505050505050565b6000602082019050818103600083015261195a816116af565b9050919050565b600060408201905061197660008301856116f0565b81810360208301526119888184611676565b90509392505050565b600061199b6119ac565b90506119a78282611b7e565b919050565b6000604051905090565b600067ffffffffffffffff8211156119d1576119d0611c0d565b5b6119da82611c50565b9050602081019050919050565b600081519050919050565b600082825260208201905092915050565b6000611a0e82611a7b565b9050919050565b60008115159050919050565b6000819050611a2f82611c8a565b919050565b6000819050611a4282611c9e565b919050565b6000819050611a5582611cb2565b919050565b6000819050611a6882611cc6565b919050565b600061ffff82169050919050565b600073ffffffffffffffffffffffffffffffffffffffff82169050919050565b6000819050919050565b600063ffffffff82169050919050565b600060ff82169050919050565b6000611acd82611a21565b9050919050565b6000611adf82611a34565b9050919050565b6000611af182611a47565b9050919050565b6000611b0382611a5a565b9050919050565b82818337600083830152505050565b60005b83811015611b37578082015181840152602081019050611b1c565b83811115611b46576000848401525b50505050565b60006002820490506001821680611b6457607f821691505b60208210811415611b7857611b77611bde565b5b50919050565b611b8782611c50565b810181811067ffffffffffffffff82111715611ba657611ba5611c0d565b5b80604052505050565b7f4e487b7100000000000000000000000000000000000000000000000000000000600052602160045260246000fd5b7f4e487b7100000000000000000000000000000000000000000000000000000000600052602260045260246000fd5b7f4e487b7100000000000000000000000000000000000000000000000000000000600052604160045260246000fd5b600080fd5b600080fd5b600080fd5b600080fd5b6000601f19601f8301169050919050565b7f4b697369206d657663757420646567696c000000000000000000000000000000600082015250565b60038110611c9b57611c9a611baf565b5b50565b60028110611caf57611cae611baf565b5b50565b60068110611cc357611cc2611baf565b5b50565b60048110611cd757611cd6611baf565b5b50565b611ce381611a03565b8114611cee57600080fd5b50565b60038110611cfe57600080fd5b50565b60028110611d0e57600080fd5b50565b60068110611d1e57600080fd5b50565b611d2a81611a6d565b8114611d3557600080fd5b50565b611d4181611aa5565b8114611d4c57600080fd5b50565b611d5881611ab5565b8114611d6357600080fd5b5056fea2646970667358221220a6afe61690f9dc86e3c664e16813115cac0103c03582174a136590c1df6c77e064736f6c63430008070033",
					"opcodes": "PUSH1 0x80 PUSH1 0x40 MSTORE CALLVALUE DUP1 ISZERO PUSH2 0x10 JUMPI PUSH1 0x0 DUP1 REVERT JUMPDEST POP PUSH2 0x1D9C DUP1 PUSH2 0x20 PUSH1 0x0 CODECOPY PUSH1 0x0 RETURN INVALID PUSH1 0x80 PUSH1 0x40 MSTORE CALLVALUE DUP1 ISZERO PUSH2 0x10 JUMPI PUSH1 0x0 DUP1 REVERT JUMPDEST POP PUSH1 0x4 CALLDATASIZE LT PUSH2 0xB4 JUMPI PUSH1 0x0 CALLDATALOAD PUSH1 0xE0 SHR DUP1 PUSH4 0x39987F94 GT PUSH2 0x71 JUMPI DUP1 PUSH4 0x39987F94 EQ PUSH2 0x1D4 JUMPI DUP1 PUSH4 0x7D0FA287 EQ PUSH2 0x207 JUMPI DUP1 PUSH4 0x9A8C9119 EQ PUSH2 0x239 JUMPI DUP1 PUSH4 0xA4E7AE05 EQ PUSH2 0x26B JUMPI DUP1 PUSH4 0xBA479B7E EQ PUSH2 0x29C JUMPI DUP1 PUSH4 0xCBC92809 EQ PUSH2 0x2D1 JUMPI PUSH2 0xB4 JUMP JUMPDEST DUP1 PUSH4 0x6064A3E EQ PUSH2 0xB9 JUMPI DUP1 PUSH4 0x1916E139 EQ PUSH2 0xD5 JUMPI DUP1 PUSH4 0x28266697 EQ PUSH2 0x107 JUMPI DUP1 PUSH4 0x317C82D1 EQ PUSH2 0x139 JUMPI DUP1 PUSH4 0x33C19554 EQ PUSH2 0x169 JUMPI DUP1 PUSH4 0x356B1F1E EQ PUSH2 0x1A2 JUMPI JUMPDEST PUSH1 0x0 DUP1 REVERT JUMPDEST PUSH2 0xD3 PUSH1 0x4 DUP1 CALLDATASIZE SUB DUP2 ADD SWAP1 PUSH2 0xCE SWAP2 SWAP1 PUSH2 0x14A7 JUMP JUMPDEST PUSH2 0x301 JUMP JUMPDEST STOP JUMPDEST PUSH2 0xEF PUSH1 0x4 DUP1 CALLDATASIZE SUB DUP2 ADD SWAP1 PUSH2 0xEA SWAP2 SWAP1 PUSH2 0x147A JUMP JUMPDEST PUSH2 0x61D JUMP JUMPDEST PUSH1 0x40 MLOAD PUSH2 0xFE SWAP4 SWAP3 SWAP2 SWAP1 PUSH2 0x1806 JUMP JUMPDEST PUSH1 0x40 MLOAD DUP1 SWAP2 SUB SWAP1 RETURN JUMPDEST PUSH2 0x121 PUSH1 0x4 DUP1 CALLDATASIZE SUB DUP2 ADD SWAP1 PUSH2 0x11C SWAP2 SWAP1 PUSH2 0x147A JUMP JUMPDEST PUSH2 0x6E9 JUMP JUMPDEST PUSH1 0x40 MLOAD PUSH2 0x130 SWAP4 SWAP3 SWAP2 SWAP1 PUSH2 0x1806 JUMP JUMPDEST PUSH1 0x40 MLOAD DUP1 SWAP2 SUB SWAP1 RETURN JUMPDEST PUSH2 0x153 PUSH1 0x4 DUP1 CALLDATASIZE SUB DUP2 ADD SWAP1 PUSH2 0x14E SWAP2 SWAP1 PUSH2 0x14A7 JUMP JUMPDEST PUSH2 0x7B5 JUMP JUMPDEST PUSH1 0x40 MLOAD PUSH2 0x160 SWAP2 SWAP1 PUSH2 0x170E JUMP JUMPDEST PUSH1 0x40 MLOAD DUP1 SWAP2 SUB SWAP1 RETURN JUMPDEST PUSH2 0x183 PUSH1 0x4 DUP1 CALLDATASIZE SUB DUP2 ADD SWAP1 PUSH2 0x17E SWAP2 SWAP1 PUSH2 0x147A JUMP JUMPDEST PUSH2 0xAD8 JUMP JUMPDEST PUSH1 0x40 MLOAD PUSH2 0x199 SWAP11 SWAP10 SWAP9 SWAP8 SWAP7 SWAP6 SWAP5 SWAP4 SWAP3 SWAP2 SWAP1 PUSH2 0x1890 JUMP JUMPDEST PUSH1 0x40 MLOAD DUP1 SWAP2 SUB SWAP1 RETURN JUMPDEST PUSH2 0x1BC PUSH1 0x4 DUP1 CALLDATASIZE SUB DUP2 ADD SWAP1 PUSH2 0x1B7 SWAP2 SWAP1 PUSH2 0x147A JUMP JUMPDEST PUSH2 0xD23 JUMP JUMPDEST PUSH1 0x40 MLOAD PUSH2 0x1CB SWAP4 SWAP3 SWAP2 SWAP1 PUSH2 0x1806 JUMP JUMPDEST PUSH1 0x40 MLOAD DUP1 SWAP2 SUB SWAP1 RETURN JUMPDEST PUSH2 0x1EE PUSH1 0x4 DUP1 CALLDATASIZE SUB DUP2 ADD SWAP1 PUSH2 0x1E9 SWAP2 SWAP1 PUSH2 0x147A JUMP JUMPDEST PUSH2 0xDEF JUMP JUMPDEST PUSH1 0x40 MLOAD PUSH2 0x1FE SWAP5 SWAP4 SWAP3 SWAP2 SWAP1 PUSH2 0x1844 JUMP JUMPDEST PUSH1 0x40 MLOAD DUP1 SWAP2 SUB SWAP1 RETURN JUMPDEST PUSH2 0x221 PUSH1 0x4 DUP1 CALLDATASIZE SUB DUP2 ADD SWAP1 PUSH2 0x21C SWAP2 SWAP1 PUSH2 0x147A JUMP JUMPDEST PUSH2 0xEC1 JUMP JUMPDEST PUSH1 0x40 MLOAD PUSH2 0x230 SWAP4 SWAP3 SWAP2 SWAP1 PUSH2 0x1806 JUMP JUMPDEST PUSH1 0x40 MLOAD DUP1 SWAP2 SUB SWAP1 RETURN JUMPDEST PUSH2 0x253 PUSH1 0x4 DUP1 CALLDATASIZE SUB DUP2 ADD SWAP1 PUSH2 0x24E SWAP2 SWAP1 PUSH2 0x147A JUMP JUMPDEST PUSH2 0xF8D JUMP JUMPDEST PUSH1 0x40 MLOAD PUSH2 0x262 SWAP4 SWAP3 SWAP2 SWAP1 PUSH2 0x1806 JUMP JUMPDEST PUSH1 0x40 MLOAD DUP1 SWAP2 SUB SWAP1 RETURN JUMPDEST PUSH2 0x285 PUSH1 0x4 DUP1 CALLDATASIZE SUB DUP2 ADD SWAP1 PUSH2 0x280 SWAP2 SWAP1 PUSH2 0x15EF JUMP JUMPDEST PUSH2 0x1059 JUMP JUMPDEST PUSH1 0x40 MLOAD PUSH2 0x293 SWAP3 SWAP2 SWAP1 PUSH2 0x1961 JUMP JUMPDEST PUSH1 0x40 MLOAD DUP1 SWAP2 SUB SWAP1 RETURN JUMPDEST PUSH2 0x2B6 PUSH1 0x4 DUP1 CALLDATASIZE SUB DUP2 ADD SWAP1 PUSH2 0x2B1 SWAP2 SWAP1 PUSH2 0x147A JUMP JUMPDEST PUSH2 0x1115 JUMP JUMPDEST PUSH1 0x40 MLOAD PUSH2 0x2C8 SWAP7 SWAP6 SWAP5 SWAP4 SWAP3 SWAP2 SWAP1 PUSH2 0x1797 JUMP JUMPDEST PUSH1 0x40 MLOAD DUP1 SWAP2 SUB SWAP1 RETURN JUMPDEST PUSH2 0x2EB PUSH1 0x4 DUP1 CALLDATASIZE SUB DUP2 ADD SWAP1 PUSH2 0x2E6 SWAP2 SWAP1 PUSH2 0x147A JUMP JUMPDEST PUSH2 0x12A9 JUMP JUMPDEST PUSH1 0x40 MLOAD PUSH2 0x2F8 SWAP2 SWAP1 PUSH2 0x177C JUMP JUMPDEST PUSH1 0x40 MLOAD DUP1 SWAP2 SUB SWAP1 RETURN JUMPDEST PUSH1 0x3 PUSH1 0x0 DUP13 PUSH20 0xFFFFFFFFFFFFFFFFFFFFFFFFFFFFFFFFFFFFFFFF AND PUSH20 0xFFFFFFFFFFFFFFFFFFFFFFFFFFFFFFFFFFFFFFFF AND DUP2 MSTORE PUSH1 0x20 ADD SWAP1 DUP2 MSTORE PUSH1 0x20 ADD PUSH1 0x0 KECCAK256 PUSH1 0x0 ADD PUSH1 0x0 SWAP1 SLOAD SWAP1 PUSH2 0x100 EXP SWAP1 DIV PUSH1 0xFF AND PUSH2 0x390 JUMPI PUSH1 0x40 MLOAD PUSH32 0x8C379A000000000000000000000000000000000000000000000000000000000 DUP2 MSTORE PUSH1 0x4 ADD PUSH2 0x387 SWAP1 PUSH2 0x1941 JUMP JUMPDEST PUSH1 0x40 MLOAD DUP1 SWAP2 SUB SWAP1 REVERT JUMPDEST PUSH1 0x40 MLOAD DUP1 PUSH2 0x140 ADD PUSH1 0x40 MSTORE DUP1 DUP12 DUP2 MSTORE PUSH1 0x20 ADD DUP11 DUP2 MSTORE PUSH1 0x20 ADD DUP10 PUSH1 0xFF AND DUP2 MSTORE PUSH1 0x20 ADD DUP9 PUSH4 0xFFFFFFFF AND DUP2 MSTORE PUSH1 0x20 ADD DUP8 DUP2 MSTORE PUSH1 0x20 ADD DUP7 PUSH1 0x1 DUP2 GT ISZERO PUSH2 0x3D6 JUMPI PUSH2 0x3D5 PUSH2 0x1BAF JUMP JUMPDEST JUMPDEST DUP2 MSTORE PUSH1 0x20 ADD DUP6 PUSH1 0x2 DUP2 GT ISZERO PUSH2 0x3EE JUMPI PUSH2 0x3ED PUSH2 0x1BAF JUMP JUMPDEST JUMPDEST DUP2 MSTORE PUSH1 0x20 ADD DUP5 PUSH1 0xFF AND DUP2 MSTORE PUSH1 0x20 ADD DUP4 PUSH1 0x5 DUP2 GT ISZERO PUSH2 0x40F JUMPI PUSH2 0x40E PUSH2 0x1BAF JUMP JUMPDEST JUMPDEST DUP2 MSTORE PUSH1 0x20 ADD DUP3 PUSH2 0xFFFF AND DUP2 MSTORE POP PUSH1 0xC PUSH1 0x0 DUP14 PUSH20 0xFFFFFFFFFFFFFFFFFFFFFFFFFFFFFFFFFFFFFFFF AND PUSH20 0xFFFFFFFFFFFFFFFFFFFFFFFFFFFFFFFFFFFFFFFF AND DUP2 MSTORE PUSH1 0x20 ADD SWAP1 DUP2 MSTORE PUSH1 0x20 ADD PUSH1 0x0 KECCAK256 PUSH1 0x0 DUP3 ADD MLOAD DUP2 PUSH1 0x0 ADD SWAP1 DUP1 MLOAD SWAP1 PUSH1 0x20 ADD SWAP1 PUSH2 0x477 SWAP3 SWAP2 SWAP1 PUSH2 0x12D4 JUMP JUMPDEST POP PUSH1 0x20 DUP3 ADD MLOAD DUP2 PUSH1 0x1 ADD SWAP1 DUP1 MLOAD SWAP1 PUSH1 0x20 ADD SWAP1 PUSH2 0x494 SWAP3 SWAP2 SWAP1 PUSH2 0x12D4 JUMP JUMPDEST POP PUSH1 0x40 DUP3 ADD MLOAD DUP2 PUSH1 0x2 ADD PUSH1 0x0 PUSH2 0x100 EXP DUP2 SLOAD DUP2 PUSH1 0xFF MUL NOT AND SWAP1 DUP4 PUSH1 0xFF AND MUL OR SWAP1 SSTORE POP PUSH1 0x60 DUP3 ADD MLOAD DUP2 PUSH1 0x2 ADD PUSH1 0x1 PUSH2 0x100 EXP DUP2 SLOAD DUP2 PUSH4 0xFFFFFFFF MUL NOT AND SWAP1 DUP4 PUSH4 0xFFFFFFFF AND MUL OR SWAP1 SSTORE POP PUSH1 0x80 DUP3 ADD MLOAD DUP2 PUSH1 0x3 ADD SWAP1 DUP1 MLOAD SWAP1 PUSH1 0x20 ADD SWAP1 PUSH2 0x4F9 SWAP3 SWAP2 SWAP1 PUSH2 0x12D4 JUMP JUMPDEST POP PUSH1 0xA0 DUP3 ADD MLOAD DUP2 PUSH1 0x4 ADD PUSH1 0x0 PUSH2 0x100 EXP DUP2 SLOAD DUP2 PUSH1 0xFF MUL NOT AND SWAP1 DUP4 PUSH1 0x1 DUP2 GT ISZERO PUSH2 0x525 JUMPI PUSH2 0x524 PUSH2 0x1BAF JUMP JUMPDEST JUMPDEST MUL OR SWAP1 SSTORE POP PUSH1 0xC0 DUP3 ADD MLOAD DUP2 PUSH1 0x4 ADD PUSH1 0x1 PUSH2 0x100 EXP DUP2 SLOAD DUP2 PUSH1 0xFF MUL NOT AND SWAP1 DUP4 PUSH1 0x2 DUP2 GT ISZERO PUSH2 0x555 JUMPI PUSH2 0x554 PUSH2 0x1BAF JUMP JUMPDEST JUMPDEST MUL OR SWAP1 SSTORE POP PUSH1 0xE0 DUP3 ADD MLOAD DUP2 PUSH1 0x4 ADD PUSH1 0x2 PUSH2 0x100 EXP DUP2 SLOAD DUP2 PUSH1 0xFF MUL NOT AND SWAP1 DUP4 PUSH1 0xFF AND MUL OR SWAP1 SSTORE POP PUSH2 0x100 DUP3 ADD MLOAD DUP2 PUSH1 0x4 ADD PUSH1 0x3 PUSH2 0x100 EXP DUP2 SLOAD DUP2 PUSH1 0xFF MUL NOT AND SWAP1 DUP4 PUSH1 0x5 DUP2 GT ISZERO PUSH2 0x5A7 JUMPI PUSH2 0x5A6 PUSH2 0x1BAF JUMP JUMPDEST JUMPDEST MUL OR SWAP1 SSTORE POP PUSH2 0x120 DUP3 ADD MLOAD DUP2 PUSH1 0x4 ADD PUSH1 0x4 PUSH2 0x100 EXP DUP2 SLOAD DUP2 PUSH2 0xFFFF MUL NOT AND SWAP1 DUP4 PUSH2 0xFFFF AND MUL OR SWAP1 SSTORE POP SWAP1 POP POP PUSH32 0x86C26B4F75E4E12A40A04D26A4583F8F27616A2D920A48848D5A6C3C938466DF DUP12 DUP12 DUP12 DUP5 PUSH1 0x40 MLOAD PUSH2 0x608 SWAP5 SWAP4 SWAP3 SWAP2 SWAP1 PUSH2 0x1729 JUMP JUMPDEST PUSH1 0x40 MLOAD DUP1 SWAP2 SUB SWAP1 LOG1 POP POP POP POP POP POP POP POP POP POP POP JUMP JUMPDEST PUSH1 0x7 PUSH1 0x20 MSTORE DUP1 PUSH1 0x0 MSTORE PUSH1 0x40 PUSH1 0x0 KECCAK256 PUSH1 0x0 SWAP2 POP SWAP1 POP DUP1 PUSH1 0x0 ADD PUSH1 0x0 SWAP1 SLOAD SWAP1 PUSH2 0x100 EXP SWAP1 DIV PUSH1 0xFF AND SWAP1 DUP1 PUSH1 0x1 ADD DUP1 SLOAD PUSH2 0x653 SWAP1 PUSH2 0x1B4C JUMP JUMPDEST DUP1 PUSH1 0x1F ADD PUSH1 0x20 DUP1 SWAP2 DIV MUL PUSH1 0x20 ADD PUSH1 0x40 MLOAD SWAP1 DUP2 ADD PUSH1 0x40 MSTORE DUP1 SWAP3 SWAP2 SWAP1 DUP2 DUP2 MSTORE PUSH1 0x20 ADD DUP3 DUP1 SLOAD PUSH2 0x67F SWAP1 PUSH2 0x1B4C JUMP JUMPDEST DUP1 ISZERO PUSH2 0x6CC JUMPI DUP1 PUSH1 0x1F LT PUSH2 0x6A1 JUMPI PUSH2 0x100 DUP1 DUP4 SLOAD DIV MUL DUP4 MSTORE SWAP2 PUSH1 0x20 ADD SWAP2 PUSH2 0x6CC JUMP JUMPDEST DUP3 ADD SWAP2 SWAP1 PUSH1 0x0 MSTORE PUSH1 0x20 PUSH1 0x0 KECCAK256 SWAP1 JUMPDEST DUP2 SLOAD DUP2 MSTORE SWAP1 PUSH1 0x1 ADD SWAP1 PUSH1 0x20 ADD DUP1 DUP4 GT PUSH2 0x6AF JUMPI DUP3 SWAP1 SUB PUSH1 0x1F AND DUP3 ADD SWAP2 JUMPDEST POP POP POP POP POP SWAP1 DUP1 PUSH1 0x2 ADD PUSH1 0x0 SWAP1 SLOAD SWAP1 PUSH2 0x100 EXP SWAP1 DIV PUSH1 0xFF AND SWAP1 POP DUP4 JUMP JUMPDEST PUSH1 0x4 PUSH1 0x20 MSTORE DUP1 PUSH1 0x0 MSTORE PUSH1 0x40 PUSH1 0x0 KECCAK256 PUSH1 0x0 SWAP2 POP SWAP1 POP DUP1 PUSH1 0x0 ADD PUSH1 0x0 SWAP1 SLOAD SWAP1 PUSH2 0x100 EXP SWAP1 DIV PUSH1 0xFF AND SWAP1 DUP1 PUSH1 0x1 ADD DUP1 SLOAD PUSH2 0x71F SWAP1 PUSH2 0x1B4C JUMP JUMPDEST DUP1 PUSH1 0x1F ADD PUSH1 0x20 DUP1 SWAP2 DIV MUL PUSH1 0x20 ADD PUSH1 0x40 MLOAD SWAP1 DUP2 ADD PUSH1 0x40 MSTORE DUP1 SWAP3 SWAP2 SWAP1 DUP2 DUP2 MSTORE PUSH1 0x20 ADD DUP3 DUP1 SLOAD PUSH2 0x74B SWAP1 PUSH2 0x1B4C JUMP JUMPDEST DUP1 ISZERO PUSH2 0x798 JUMPI DUP1 PUSH1 0x1F LT PUSH2 0x76D JUMPI PUSH2 0x100 DUP1 DUP4 SLOAD DIV MUL DUP4 MSTORE SWAP2 PUSH1 0x20 ADD SWAP2 PUSH2 0x798 JUMP JUMPDEST DUP3 ADD SWAP2 SWAP1 PUSH1 0x0 MSTORE PUSH1 0x20 PUSH1 0x0 KECCAK256 SWAP1 JUMPDEST DUP2 SLOAD DUP2 MSTORE SWAP1 PUSH1 0x1 ADD SWAP1 PUSH1 0x20 ADD DUP1 DUP4 GT PUSH2 0x77B JUMPI DUP3 SWAP1 SUB PUSH1 0x1F AND DUP3 ADD SWAP2 JUMPDEST POP POP POP POP POP SWAP1 DUP1 PUSH1 0x2 ADD PUSH1 0x0 SWAP1 SLOAD SWAP1 PUSH2 0x100 EXP SWAP1 DIV PUSH1 0xFF AND SWAP1 POP DUP4 JUMP JUMPDEST PUSH1 0x0 PUSH1 0x3 PUSH1 0x0 DUP14 PUSH20 0xFFFFFFFFFFFFFFFFFFFFFFFFFFFFFFFFFFFFFFFF AND PUSH20 0xFFFFFFFFFFFFFFFFFFFFFFFFFFFFFFFFFFFFFFFF AND DUP2 MSTORE PUSH1 0x20 ADD SWAP1 DUP2 MSTORE PUSH1 0x20 ADD PUSH1 0x0 KECCAK256 PUSH1 0x0 ADD PUSH1 0x0 SWAP1 SLOAD SWAP1 PUSH2 0x100 EXP SWAP1 DIV PUSH1 0xFF AND PUSH2 0x846 JUMPI PUSH1 0x40 MLOAD PUSH32 0x8C379A000000000000000000000000000000000000000000000000000000000 DUP2 MSTORE PUSH1 0x4 ADD PUSH2 0x83D SWAP1 PUSH2 0x1941 JUMP JUMPDEST PUSH1 0x40 MLOAD DUP1 SWAP2 SUB SWAP1 REVERT JUMPDEST PUSH1 0x40 MLOAD DUP1 PUSH2 0x140 ADD PUSH1 0x40 MSTORE DUP1 DUP13 DUP2 MSTORE PUSH1 0x20 ADD DUP12 DUP2 MSTORE PUSH1 0x20 ADD DUP11 PUSH1 0xFF AND DUP2 MSTORE PUSH1 0x20 ADD DUP10 PUSH4 0xFFFFFFFF AND DUP2 MSTORE PUSH1 0x20 ADD DUP9 DUP2 MSTORE PUSH1 0x20 ADD DUP8 PUSH1 0x1 DUP2 GT ISZERO PUSH2 0x88C JUMPI PUSH2 0x88B PUSH2 0x1BAF JUMP JUMPDEST JUMPDEST DUP2 MSTORE PUSH1 0x20 ADD DUP7 PUSH1 0x2 DUP2 GT ISZERO PUSH2 0x8A4 JUMPI PUSH2 0x8A3 PUSH2 0x1BAF JUMP JUMPDEST JUMPDEST DUP2 MSTORE PUSH1 0x20 ADD DUP6 PUSH1 0xFF AND DUP2 MSTORE PUSH1 0x20 ADD DUP5 PUSH1 0x5 DUP2 GT ISZERO PUSH2 0x8C5 JUMPI PUSH2 0x8C4 PUSH2 0x1BAF JUMP JUMPDEST JUMPDEST DUP2 MSTORE PUSH1 0x20 ADD DUP4 PUSH2 0xFFFF AND DUP2 MSTORE POP PUSH1 0xC PUSH1 0x0 DUP15 PUSH20 0xFFFFFFFFFFFFFFFFFFFFFFFFFFFFFFFFFFFFFFFF AND PUSH20 0xFFFFFFFFFFFFFFFFFFFFFFFFFFFFFFFFFFFFFFFF AND DUP2 MSTORE PUSH1 0x20 ADD SWAP1 DUP2 MSTORE PUSH1 0x20 ADD PUSH1 0x0 KECCAK256 PUSH1 0x0 DUP3 ADD MLOAD DUP2 PUSH1 0x0 ADD SWAP1 DUP1 MLOAD SWAP1 PUSH1 0x20 ADD SWAP1 PUSH2 0x92D SWAP3 SWAP2 SWAP1 PUSH2 0x12D4 JUMP JUMPDEST POP PUSH1 0x20 DUP3 ADD MLOAD DUP2 PUSH1 0x1 ADD SWAP1 DUP1 MLOAD SWAP1 PUSH1 0x20 ADD SWAP1 PUSH2 0x94A SWAP3 SWAP2 SWAP1 PUSH2 0x12D4 JUMP JUMPDEST POP PUSH1 0x40 DUP3 ADD MLOAD DUP2 PUSH1 0x2 ADD PUSH1 0x0 PUSH2 0x100 EXP DUP2 SLOAD DUP2 PUSH1 0xFF MUL NOT AND SWAP1 DUP4 PUSH1 0xFF AND MUL OR SWAP1 SSTORE POP PUSH1 0x60 DUP3 ADD MLOAD DUP2 PUSH1 0x2 ADD PUSH1 0x1 PUSH2 0x100 EXP DUP2 SLOAD DUP2 PUSH4 0xFFFFFFFF MUL NOT AND SWAP1 DUP4 PUSH4 0xFFFFFFFF AND MUL OR SWAP1 SSTORE POP PUSH1 0x80 DUP3 ADD MLOAD DUP2 PUSH1 0x3 ADD SWAP1 DUP1 MLOAD SWAP1 PUSH1 0x20 ADD SWAP1 PUSH2 0x9AF SWAP3 SWAP2 SWAP1 PUSH2 0x12D4 JUMP JUMPDEST POP PUSH1 0xA0 DUP3 ADD MLOAD DUP2 PUSH1 0x4 ADD PUSH1 0x0 PUSH2 0x100 EXP DUP2 SLOAD DUP2 PUSH1 0xFF MUL NOT AND SWAP1 DUP4 PUSH1 0x1 DUP2 GT ISZERO PUSH2 0x9DB JUMPI PUSH2 0x9DA PUSH2 0x1BAF JUMP JUMPDEST JUMPDEST MUL OR SWAP1 SSTORE POP PUSH1 0xC0 DUP3 ADD MLOAD DUP2 PUSH1 0x4 ADD PUSH1 0x1 PUSH2 0x100 EXP DUP2 SLOAD DUP2 PUSH1 0xFF MUL NOT AND SWAP1 DUP4 PUSH1 0x2 DUP2 GT ISZERO PUSH2 0xA0B JUMPI PUSH2 0xA0A PUSH2 0x1BAF JUMP JUMPDEST JUMPDEST MUL OR SWAP1 SSTORE POP PUSH1 0xE0 DUP3 ADD MLOAD DUP2 PUSH1 0x4 ADD PUSH1 0x2 PUSH2 0x100 EXP DUP2 SLOAD DUP2 PUSH1 0xFF MUL NOT AND SWAP1 DUP4 PUSH1 0xFF AND MUL OR SWAP1 SSTORE POP PUSH2 0x100 DUP3 ADD MLOAD DUP2 PUSH1 0x4 ADD PUSH1 0x3 PUSH2 0x100 EXP DUP2 SLOAD DUP2 PUSH1 0xFF MUL NOT AND SWAP1 DUP4 PUSH1 0x5 DUP2 GT ISZERO PUSH2 0xA5D JUMPI PUSH2 0xA5C PUSH2 0x1BAF JUMP JUMPDEST JUMPDEST MUL OR SWAP1 SSTORE POP PUSH2 0x120 DUP3 ADD MLOAD DUP2 PUSH1 0x4 ADD PUSH1 0x4 PUSH2 0x100 EXP DUP2 SLOAD DUP2 PUSH2 0xFFFF MUL NOT AND SWAP1 DUP4 PUSH2 0xFFFF AND MUL OR SWAP1 SSTORE POP SWAP1 POP POP PUSH32 0x63D87ED42BA706260AAA2FF2521F5A2810503763D2E120A4F8BCC29CB14E08EE DUP13 DUP13 DUP13 DUP6 PUSH1 0x40 MLOAD PUSH2 0xABE SWAP5 SWAP4 SWAP3 SWAP2 SWAP1 PUSH2 0x1729 JUMP JUMPDEST PUSH1 0x40 MLOAD DUP1 SWAP2 SUB SWAP1 LOG1 DUP12 SWAP1 POP SWAP12 SWAP11 POP POP POP POP POP POP POP POP POP POP POP JUMP JUMPDEST PUSH1 0xC PUSH1 0x20 MSTORE DUP1 PUSH1 0x0 MSTORE PUSH1 0x40 PUSH1 0x0 KECCAK256 PUSH1 0x0 SWAP2 POP SWAP1 POP DUP1 PUSH1 0x0 ADD DUP1 SLOAD PUSH2 0xAFB SWAP1 PUSH2 0x1B4C JUMP JUMPDEST DUP1 PUSH1 0x1F ADD PUSH1 0x20 DUP1 SWAP2 DIV MUL PUSH1 0x20 ADD PUSH1 0x40 MLOAD SWAP1 DUP2 ADD PUSH1 0x40 MSTORE DUP1 SWAP3 SWAP2 SWAP1 DUP2 DUP2 MSTORE PUSH1 0x20 ADD DUP3 DUP1 SLOAD PUSH2 0xB27 SWAP1 PUSH2 0x1B4C JUMP JUMPDEST DUP1 ISZERO PUSH2 0xB74 JUMPI DUP1 PUSH1 0x1F LT PUSH2 0xB49 JUMPI PUSH2 0x100 DUP1 DUP4 SLOAD DIV MUL DUP4 MSTORE SWAP2 PUSH1 0x20 ADD SWAP2 PUSH2 0xB74 JUMP JUMPDEST DUP3 ADD SWAP2 SWAP1 PUSH1 0x0 MSTORE PUSH1 0x20 PUSH1 0x0 KECCAK256 SWAP1 JUMPDEST DUP2 SLOAD DUP2 MSTORE SWAP1 PUSH1 0x1 ADD SWAP1 PUSH1 0x20 ADD DUP1 DUP4 GT PUSH2 0xB57 JUMPI DUP3 SWAP1 SUB PUSH1 0x1F AND DUP3 ADD SWAP2 JUMPDEST POP POP POP POP POP SWAP1 DUP1 PUSH1 0x1 ADD DUP1 SLOAD PUSH2 0xB89 SWAP1 PUSH2 0x1B4C JUMP JUMPDEST DUP1 PUSH1 0x1F ADD PUSH1 0x20 DUP1 SWAP2 DIV MUL PUSH1 0x20 ADD PUSH1 0x40 MLOAD SWAP1 DUP2 ADD PUSH1 0x40 MSTORE DUP1 SWAP3 SWAP2 SWAP1 DUP2 DUP2 MSTORE PUSH1 0x20 ADD DUP3 DUP1 SLOAD PUSH2 0xBB5 SWAP1 PUSH2 0x1B4C JUMP JUMPDEST DUP1 ISZERO PUSH2 0xC02 JUMPI DUP1 PUSH1 0x1F LT PUSH2 0xBD7 JUMPI PUSH2 0x100 DUP1 DUP4 SLOAD DIV MUL DUP4 MSTORE SWAP2 PUSH1 0x20 ADD SWAP2 PUSH2 0xC02 JUMP JUMPDEST DUP3 ADD SWAP2 SWAP1 PUSH1 0x0 MSTORE PUSH1 0x20 PUSH1 0x0 KECCAK256 SWAP1 JUMPDEST DUP2 SLOAD DUP2 MSTORE SWAP1 PUSH1 0x1 ADD SWAP1 PUSH1 0x20 ADD DUP1 DUP4 GT PUSH2 0xBE5 JUMPI DUP3 SWAP1 SUB PUSH1 0x1F AND DUP3 ADD SWAP2 JUMPDEST POP POP POP POP POP SWAP1 DUP1 PUSH1 0x2 ADD PUSH1 0x0 SWAP1 SLOAD SWAP1 PUSH2 0x100 EXP SWAP1 DIV PUSH1 0xFF AND SWAP1 DUP1 PUSH1 0x2 ADD PUSH1 0x1 SWAP1 SLOAD SWAP1 PUSH2 0x100 EXP SWAP1 DIV PUSH4 0xFFFFFFFF AND SWAP1 DUP1 PUSH1 0x3 ADD DUP1 SLOAD PUSH2 0xC40 SWAP1 PUSH2 0x1B4C JUMP JUMPDEST DUP1 PUSH1 0x1F ADD PUSH1 0x20 DUP1 SWAP2 DIV MUL PUSH1 0x20 ADD PUSH1 0x40 MLOAD SWAP1 DUP2 ADD PUSH1 0x40 MSTORE DUP1 SWAP3 SWAP2 SWAP1 DUP2 DUP2 MSTORE PUSH1 0x20 ADD DUP3 DUP1 SLOAD PUSH2 0xC6C SWAP1 PUSH2 0x1B4C JUMP JUMPDEST DUP1 ISZERO PUSH2 0xCB9 JUMPI DUP1 PUSH1 0x1F LT PUSH2 0xC8E JUMPI PUSH2 0x100 DUP1 DUP4 SLOAD DIV MUL DUP4 MSTORE SWAP2 PUSH1 0x20 ADD SWAP2 PUSH2 0xCB9 JUMP JUMPDEST DUP3 ADD SWAP2 SWAP1 PUSH1 0x0 MSTORE PUSH1 0x20 PUSH1 0x0 KECCAK256 SWAP1 JUMPDEST DUP2 SLOAD DUP2 MSTORE SWAP1 PUSH1 0x1 ADD SWAP1 PUSH1 0x20 ADD DUP1 DUP4 GT PUSH2 0xC9C JUMPI DUP3 SWAP1 SUB PUSH1 0x1F AND DUP3 ADD SWAP2 JUMPDEST POP POP POP POP POP SWAP1 DUP1 PUSH1 0x4 ADD PUSH1 0x0 SWAP1 SLOAD SWAP1 PUSH2 0x100 EXP SWAP1 DIV PUSH1 0xFF AND SWAP1 DUP1 PUSH1 0x4 ADD PUSH1 0x1 SWAP1 SLOAD SWAP1 PUSH2 0x100 EXP SWAP1 DIV PUSH1 0xFF AND SWAP1 DUP1 PUSH1 0x4 ADD PUSH1 0x2 SWAP1 SLOAD SWAP1 PUSH2 0x100 EXP SWAP1 DIV PUSH1 0xFF AND SWAP1 DUP1 PUSH1 0x4 ADD PUSH1 0x3 SWAP1 SLOAD SWAP1 PUSH2 0x100 EXP SWAP1 DIV PUSH1 0xFF AND SWAP1 DUP1 PUSH1 0x4 ADD PUSH1 0x4 SWAP1 SLOAD SWAP1 PUSH2 0x100 EXP SWAP1 DIV PUSH2 0xFFFF AND SWAP1 POP DUP11 JUMP JUMPDEST PUSH1 0xA PUSH1 0x20 MSTORE DUP1 PUSH1 0x0 MSTORE PUSH1 0x40 PUSH1 0x0 KECCAK256 PUSH1 0x0 SWAP2 POP SWAP1 POP DUP1 PUSH1 0x0 ADD PUSH1 0x0 SWAP1 SLOAD SWAP1 PUSH2 0x100 EXP SWAP1 DIV PUSH1 0xFF AND SWAP1 DUP1 PUSH1 0x1 ADD DUP1 SLOAD PUSH2 0xD59 SWAP1 PUSH2 0x1B4C JUMP JUMPDEST DUP1 PUSH1 0x1F ADD PUSH1 0x20 DUP1 SWAP2 DIV MUL PUSH1 0x20 ADD PUSH1 0x40 MLOAD SWAP1 DUP2 ADD PUSH1 0x40 MSTORE DUP1 SWAP3 SWAP2 SWAP1 DUP2 DUP2 MSTORE PUSH1 0x20 ADD DUP3 DUP1 SLOAD PUSH2 0xD85 SWAP1 PUSH2 0x1B4C JUMP JUMPDEST DUP1 ISZERO PUSH2 0xDD2 JUMPI DUP1 PUSH1 0x1F LT PUSH2 0xDA7 JUMPI PUSH2 0x100 DUP1 DUP4 SLOAD DIV MUL DUP4 MSTORE SWAP2 PUSH1 0x20 ADD SWAP2 PUSH2 0xDD2 JUMP JUMPDEST DUP3 ADD SWAP2 SWAP1 PUSH1 0x0 MSTORE PUSH1 0x20 PUSH1 0x0 KECCAK256 SWAP1 JUMPDEST DUP2 SLOAD DUP2 MSTORE SWAP1 PUSH1 0x1 ADD SWAP1 PUSH1 0x20 ADD DUP1 DUP4 GT PUSH2 0xDB5 JUMPI DUP3 SWAP1 SUB PUSH1 0x1F AND DUP3 ADD SWAP2 JUMPDEST POP POP POP POP POP SWAP1 DUP1 PUSH1 0x2 ADD PUSH1 0x0 SWAP1 SLOAD SWAP1 PUSH2 0x100 EXP SWAP1 DIV PUSH1 0xFF AND SWAP1 POP DUP4 JUMP JUMPDEST PUSH1 0x6 PUSH1 0x20 MSTORE DUP1 PUSH1 0x0 MSTORE PUSH1 0x40 PUSH1 0x0 KECCAK256 PUSH1 0x0 SWAP2 POP SWAP1 POP DUP1 PUSH1 0x0 ADD PUSH1 0x0 SWAP1 SLOAD SWAP1 PUSH2 0x100 EXP SWAP1 DIV PUSH1 0xFF AND SWAP1 DUP1 PUSH1 0x0 ADD PUSH1 0x1 SWAP1 SLOAD SWAP1 PUSH2 0x100 EXP SWAP1 DIV PUSH1 0xFF AND SWAP1 DUP1 PUSH1 0x1 ADD SLOAD SWAP1 DUP1 PUSH1 0x2 ADD DUP1 SLOAD PUSH2 0xE3E SWAP1 PUSH2 0x1B4C JUMP JUMPDEST DUP1 PUSH1 0x1F ADD PUSH1 0x20 DUP1 SWAP2 DIV MUL PUSH1 0x20 ADD PUSH1 0x40 MLOAD SWAP1 DUP2 ADD PUSH1 0x40 MSTORE DUP1 SWAP3 SWAP2 SWAP1 DUP2 DUP2 MSTORE PUSH1 0x20 ADD DUP3 DUP1 SLOAD PUSH2 0xE6A SWAP1 PUSH2 0x1B4C JUMP JUMPDEST DUP1 ISZERO PUSH2 0xEB7 JUMPI DUP1 PUSH1 0x1F LT PUSH2 0xE8C JUMPI PUSH2 0x100 DUP1 DUP4 SLOAD DIV MUL DUP4 MSTORE SWAP2 PUSH1 0x20 ADD SWAP2 PUSH2 0xEB7 JUMP JUMPDEST DUP3 ADD SWAP2 SWAP1 PUSH1 0x0 MSTORE PUSH1 0x20 PUSH1 0x0 KECCAK256 SWAP1 JUMPDEST DUP2 SLOAD DUP2 MSTORE SWAP1 PUSH1 0x1 ADD SWAP1 PUSH1 0x20 ADD DUP1 DUP4 GT PUSH2 0xE9A JUMPI DUP3 SWAP1 SUB PUSH1 0x1F AND DUP3 ADD SWAP2 JUMPDEST POP POP POP POP POP SWAP1 POP DUP5 JUMP JUMPDEST PUSH1 0x8 PUSH1 0x20 MSTORE DUP1 PUSH1 0x0 MSTORE PUSH1 0x40 PUSH1 0x0 KECCAK256 PUSH1 0x0 SWAP2 POP SWAP1 POP DUP1 PUSH1 0x0 ADD PUSH1 0x0 SWAP1 SLOAD SWAP1 PUSH2 0x100 EXP SWAP1 DIV PUSH1 0xFF AND SWAP1 DUP1 PUSH1 0x1 ADD DUP1 SLOAD PUSH2 0xEF7 SWAP1 PUSH2 0x1B4C JUMP JUMPDEST DUP1 PUSH1 0x1F ADD PUSH1 0x20 DUP1 SWAP2 DIV MUL PUSH1 0x20 ADD PUSH1 0x40 MLOAD SWAP1 DUP2 ADD PUSH1 0x40 MSTORE DUP1 SWAP3 SWAP2 SWAP1 DUP2 DUP2 MSTORE PUSH1 0x20 ADD DUP3 DUP1 SLOAD PUSH2 0xF23 SWAP1 PUSH2 0x1B4C JUMP JUMPDEST DUP1 ISZERO PUSH2 0xF70 JUMPI DUP1 PUSH1 0x1F LT PUSH2 0xF45 JUMPI PUSH2 0x100 DUP1 DUP4 SLOAD DIV MUL DUP4 MSTORE SWAP2 PUSH1 0x20 ADD SWAP2 PUSH2 0xF70 JUMP JUMPDEST DUP3 ADD SWAP2 SWAP1 PUSH1 0x0 MSTORE PUSH1 0x20 PUSH1 0x0 KECCAK256 SWAP1 JUMPDEST DUP2 SLOAD DUP2 MSTORE SWAP1 PUSH1 0x1 ADD SWAP1 PUSH1 0x20 ADD DUP1 DUP4 GT PUSH2 0xF53 JUMPI DUP3 SWAP1 SUB PUSH1 0x1F AND DUP3 ADD SWAP2 JUMPDEST POP POP POP POP POP SWAP1 DUP1 PUSH1 0x2 ADD PUSH1 0x0 SWAP1 SLOAD SWAP1 PUSH2 0x100 EXP SWAP1 DIV PUSH1 0xFF AND SWAP1 POP DUP4 JUMP JUMPDEST PUSH1 0x9 PUSH1 0x20 MSTORE DUP1 PUSH1 0x0 MSTORE PUSH1 0x40 PUSH1 0x0 KECCAK256 PUSH1 0x0 SWAP2 POP SWAP1 POP DUP1 PUSH1 0x0 ADD PUSH1 0x0 SWAP1 SLOAD SWAP1 PUSH2 0x100 EXP SWAP1 DIV PUSH1 0xFF AND SWAP1 DUP1 PUSH1 0x1 ADD DUP1 SLOAD PUSH2 0xFC3 SWAP1 PUSH2 0x1B4C JUMP JUMPDEST DUP1 PUSH1 0x1F ADD PUSH1 0x20 DUP1 SWAP2 DIV MUL PUSH1 0x20 ADD PUSH1 0x40 MLOAD SWAP1 DUP2 ADD PUSH1 0x40 MSTORE DUP1 SWAP3 SWAP2 SWAP1 DUP2 DUP2 MSTORE PUSH1 0x20 ADD DUP3 DUP1 SLOAD PUSH2 0xFEF SWAP1 PUSH2 0x1B4C JUMP JUMPDEST DUP1 ISZERO PUSH2 0x103C JUMPI DUP1 PUSH1 0x1F LT PUSH2 0x1011 JUMPI PUSH2 0x100 DUP1 DUP4 SLOAD DIV MUL DUP4 MSTORE SWAP2 PUSH1 0x20 ADD SWAP2 PUSH2 0x103C JUMP JUMPDEST DUP3 ADD SWAP2 SWAP1 PUSH1 0x0 MSTORE PUSH1 0x20 PUSH1 0x0 KECCAK256 SWAP1 JUMPDEST DUP2 SLOAD DUP2 MSTORE SWAP1 PUSH1 0x1 ADD SWAP1 PUSH1 0x20 ADD DUP1 DUP4 GT PUSH2 0x101F JUMPI DUP3 SWAP1 SUB PUSH1 0x1F AND DUP3 ADD SWAP2 JUMPDEST POP POP POP POP POP SWAP1 DUP1 PUSH1 0x2 ADD PUSH1 0x0 SWAP1 SLOAD SWAP1 PUSH2 0x100 EXP SWAP1 DIV PUSH1 0xFF AND SWAP1 POP DUP4 JUMP JUMPDEST PUSH1 0xB PUSH1 0x20 MSTORE DUP1 PUSH1 0x0 MSTORE PUSH1 0x40 PUSH1 0x0 KECCAK256 PUSH1 0x0 SWAP2 POP SWAP1 POP DUP1 PUSH1 0x0 ADD PUSH1 0x0 SWAP1 SLOAD SWAP1 PUSH2 0x100 EXP SWAP1 DIV PUSH4 0xFFFFFFFF AND SWAP1 DUP1 PUSH1 0x1 ADD DUP1 SLOAD PUSH2 0x1092 SWAP1 PUSH2 0x1B4C JUMP JUMPDEST DUP1 PUSH1 0x1F ADD PUSH1 0x20 DUP1 SWAP2 DIV MUL PUSH1 0x20 ADD PUSH1 0x40 MLOAD SWAP1 DUP2 ADD PUSH1 0x40 MSTORE DUP1 SWAP3 SWAP2 SWAP1 DUP2 DUP2 MSTORE PUSH1 0x20 ADD DUP3 DUP1 SLOAD PUSH2 0x10BE SWAP1 PUSH2 0x1B4C JUMP JUMPDEST DUP1 ISZERO PUSH2 0x110B JUMPI DUP1 PUSH1 0x1F LT PUSH2 0x10E0 JUMPI PUSH2 0x100 DUP1 DUP4 SLOAD DIV MUL DUP4 MSTORE SWAP2 PUSH1 0x20 ADD SWAP2 PUSH2 0x110B JUMP JUMPDEST DUP3 ADD SWAP2 SWAP1 PUSH1 0x0 MSTORE PUSH1 0x20 PUSH1 0x0 KECCAK256 SWAP1 JUMPDEST DUP2 SLOAD DUP2 MSTORE SWAP1 PUSH1 0x1 ADD SWAP1 PUSH1 0x20 ADD DUP1 DUP4 GT PUSH2 0x10EE JUMPI DUP3 SWAP1 SUB PUSH1 0x1F AND DUP3 ADD SWAP2 JUMPDEST POP POP POP POP POP SWAP1 POP DUP3 JUMP JUMPDEST PUSH1 0x5 PUSH1 0x20 MSTORE DUP1 PUSH1 0x0 MSTORE PUSH1 0x40 PUSH1 0x0 KECCAK256 PUSH1 0x0 SWAP2 POP SWAP1 POP DUP1 PUSH1 0x0 ADD PUSH1 0x0 SWAP1 SLOAD SWAP1 PUSH2 0x100 EXP SWAP1 DIV PUSH1 0xFF AND SWAP1 DUP1 PUSH1 0x0 ADD PUSH1 0x1 SWAP1 SLOAD SWAP1 PUSH2 0x100 EXP SWAP1 DIV PUSH20 0xFFFFFFFFFFFFFFFFFFFFFFFFFFFFFFFFFFFFFFFF AND SWAP1 DUP1 PUSH1 0x0 ADD PUSH1 0x15 SWAP1 SLOAD SWAP1 PUSH2 0x100 EXP SWAP1 DIV PUSH2 0xFFFF AND SWAP1 DUP1 PUSH1 0x0 ADD PUSH1 0x17 SWAP1 SLOAD SWAP1 PUSH2 0x100 EXP SWAP1 DIV PUSH1 0xFF AND SWAP1 DUP1 PUSH1 0x1 ADD DUP1 SLOAD PUSH2 0x1198 SWAP1 PUSH2 0x1B4C JUMP JUMPDEST DUP1 PUSH1 0x1F ADD PUSH1 0x20 DUP1 SWAP2 DIV MUL PUSH1 0x20 ADD PUSH1 0x40 MLOAD SWAP1 DUP2 ADD PUSH1 0x40 MSTORE DUP1 SWAP3 SWAP2 SWAP1 DUP2 DUP2 MSTORE PUSH1 0x20 ADD DUP3 DUP1 SLOAD PUSH2 0x11C4 SWAP1 PUSH2 0x1B4C JUMP JUMPDEST DUP1 ISZERO PUSH2 0x1211 JUMPI DUP1 PUSH1 0x1F LT PUSH2 0x11E6 JUMPI PUSH2 0x100 DUP1 DUP4 SLOAD DIV MUL DUP4 MSTORE SWAP2 PUSH1 0x20 ADD SWAP2 PUSH2 0x1211 JUMP JUMPDEST DUP3 ADD SWAP2 SWAP1 PUSH1 0x0 MSTORE PUSH1 0x20 PUSH1 0x0 KECCAK256 SWAP1 JUMPDEST DUP2 SLOAD DUP2 MSTORE SWAP1 PUSH1 0x1 ADD SWAP1 PUSH1 0x20 ADD DUP1 DUP4 GT PUSH2 0x11F4 JUMPI DUP3 SWAP1 SUB PUSH1 0x1F AND DUP3 ADD SWAP2 JUMPDEST POP POP POP POP POP SWAP1 DUP1 PUSH1 0x2 ADD DUP1 SLOAD PUSH2 0x1226 SWAP1 PUSH2 0x1B4C JUMP JUMPDEST DUP1 PUSH1 0x1F ADD PUSH1 0x20 DUP1 SWAP2 DIV MUL PUSH1 0x20 ADD PUSH1 0x40 MLOAD SWAP1 DUP2 ADD PUSH1 0x40 MSTORE DUP1 SWAP3 SWAP2 SWAP1 DUP2 DUP2 MSTORE PUSH1 0x20 ADD DUP3 DUP1 SLOAD PUSH2 0x1252 SWAP1 PUSH2 0x1B4C JUMP JUMPDEST DUP1 ISZERO PUSH2 0x129F JUMPI DUP1 PUSH1 0x1F LT PUSH2 0x1274 JUMPI PUSH2 0x100 DUP1 DUP4 SLOAD DIV MUL DUP4 MSTORE SWAP2 PUSH1 0x20 ADD SWAP2 PUSH2 0x129F JUMP JUMPDEST DUP3 ADD SWAP2 SWAP1 PUSH1 0x0 MSTORE PUSH1 0x20 PUSH1 0x0 KECCAK256 SWAP1 JUMPDEST DUP2 SLOAD DUP2 MSTORE SWAP1 PUSH1 0x1 ADD SWAP1 PUSH1 0x20 ADD DUP1 DUP4 GT PUSH2 0x1282 JUMPI DUP3 SWAP1 SUB PUSH1 0x1F AND DUP3 ADD SWAP2 JUMPDEST POP POP POP POP POP SWAP1 POP DUP7 JUMP JUMPDEST PUSH1 0x3 PUSH1 0x20 MSTORE DUP1 PUSH1 0x0 MSTORE PUSH1 0x40 PUSH1 0x0 KECCAK256 PUSH1 0x0 SWAP2 POP SWAP1 POP DUP1 PUSH1 0x0 ADD PUSH1 0x0 SWAP1 SLOAD SWAP1 PUSH2 0x100 EXP SWAP1 DIV PUSH1 0xFF AND SWAP1 POP DUP2 JUMP JUMPDEST DUP3 DUP1 SLOAD PUSH2 0x12E0 SWAP1 PUSH2 0x1B4C JUMP JUMPDEST SWAP1 PUSH1 0x0 MSTORE PUSH1 0x20 PUSH1 0x0 KECCAK256 SWAP1 PUSH1 0x1F ADD PUSH1 0x20 SWAP1 DIV DUP2 ADD SWAP3 DUP3 PUSH2 0x1302 JUMPI PUSH1 0x0 DUP6 SSTORE PUSH2 0x1349 JUMP JUMPDEST DUP3 PUSH1 0x1F LT PUSH2 0x131B JUMPI DUP1 MLOAD PUSH1 0xFF NOT AND DUP4 DUP1 ADD OR DUP6 SSTORE PUSH2 0x1349 JUMP JUMPDEST DUP3 DUP1 ADD PUSH1 0x1 ADD DUP6 SSTORE DUP3 ISZERO PUSH2 0x1349 JUMPI SWAP2 DUP3 ADD JUMPDEST DUP3 DUP2 GT ISZERO PUSH2 0x1348 JUMPI DUP3 MLOAD DUP3 SSTORE SWAP2 PUSH1 0x20 ADD SWAP2 SWAP1 PUSH1 0x1 ADD SWAP1 PUSH2 0x132D JUMP JUMPDEST JUMPDEST POP SWAP1 POP PUSH2 0x1356 SWAP2 SWAP1 PUSH2 0x135A JUMP JUMPDEST POP SWAP1 JUMP JUMPDEST JUMPDEST DUP1 DUP3 GT ISZERO PUSH2 0x1373 JUMPI PUSH1 0x0 DUP2 PUSH1 0x0 SWAP1 SSTORE POP PUSH1 0x1 ADD PUSH2 0x135B JUMP JUMPDEST POP SWAP1 JUMP JUMPDEST PUSH1 0x0 PUSH2 0x138A PUSH2 0x1385 DUP5 PUSH2 0x19B6 JUMP JUMPDEST PUSH2 0x1991 JUMP JUMPDEST SWAP1 POP DUP3 DUP2 MSTORE PUSH1 0x20 DUP2 ADD DUP5 DUP5 DUP5 ADD GT ISZERO PUSH2 0x13A6 JUMPI PUSH2 0x13A5 PUSH2 0x1C41 JUMP JUMPDEST JUMPDEST PUSH2 0x13B1 DUP5 DUP3 DUP6 PUSH2 0x1B0A JUMP JUMPDEST POP SWAP4 SWAP3 POP POP POP JUMP JUMPDEST PUSH1 0x0 DUP2 CALLDATALOAD SWAP1 POP PUSH2 0x13C8 DUP2 PUSH2 0x1CDA JUMP JUMPDEST SWAP3 SWAP2 POP POP JUMP JUMPDEST PUSH1 0x0 DUP2 CALLDATALOAD SWAP1 POP PUSH2 0x13DD DUP2 PUSH2 0x1CF1 JUMP JUMPDEST SWAP3 SWAP2 POP POP JUMP JUMPDEST PUSH1 0x0 DUP2 CALLDATALOAD SWAP1 POP PUSH2 0x13F2 DUP2 PUSH2 0x1D01 JUMP JUMPDEST SWAP3 SWAP2 POP POP JUMP JUMPDEST PUSH1 0x0 DUP2 CALLDATALOAD SWAP1 POP PUSH2 0x1407 DUP2 PUSH2 0x1D11 JUMP JUMPDEST SWAP3 SWAP2 POP POP JUMP JUMPDEST PUSH1 0x0 DUP3 PUSH1 0x1F DUP4 ADD SLT PUSH2 0x1422 JUMPI PUSH2 0x1421 PUSH2 0x1C3C JUMP JUMPDEST JUMPDEST DUP2 CALLDATALOAD PUSH2 0x1432 DUP5 DUP3 PUSH1 0x20 DUP7 ADD PUSH2 0x1377 JUMP JUMPDEST SWAP2 POP POP SWAP3 SWAP2 POP POP JUMP JUMPDEST PUSH1 0x0 DUP2 CALLDATALOAD SWAP1 POP PUSH2 0x144A DUP2 PUSH2 0x1D21 JUMP JUMPDEST SWAP3 SWAP2 POP POP JUMP JUMPDEST PUSH1 0x0 DUP2 CALLDATALOAD SWAP1 POP PUSH2 0x145F DUP2 PUSH2 0x1D38 JUMP JUMPDEST SWAP3 SWAP2 POP POP JUMP JUMPDEST PUSH1 0x0 DUP2 CALLDATALOAD SWAP1 POP PUSH2 0x1474 DUP2 PUSH2 0x1D4F JUMP JUMPDEST SWAP3 SWAP2 POP POP JUMP JUMPDEST PUSH1 0x0 PUSH1 0x20 DUP3 DUP5 SUB SLT ISZERO PUSH2 0x1490 JUMPI PUSH2 0x148F PUSH2 0x1C4B JUMP JUMPDEST JUMPDEST PUSH1 0x0 PUSH2 0x149E DUP5 DUP3 DUP6 ADD PUSH2 0x13B9 JUMP JUMPDEST SWAP2 POP POP SWAP3 SWAP2 POP POP JUMP JUMPDEST PUSH1 0x0 DUP1 PUSH1 0x0 DUP1 PUSH1 0x0 DUP1 PUSH1 0x0 DUP1 PUSH1 0x0 DUP1 PUSH1 0x0 PUSH2 0x160 DUP13 DUP15 SUB SLT ISZERO PUSH2 0x14CD JUMPI PUSH2 0x14CC PUSH2 0x1C4B JUMP JUMPDEST JUMPDEST PUSH1 0x0 PUSH2 0x14DB DUP15 DUP3 DUP16 ADD PUSH2 0x13B9 JUMP JUMPDEST SWAP12 POP POP PUSH1 0x20 DUP13 ADD CALLDATALOAD PUSH8 0xFFFFFFFFFFFFFFFF DUP2 GT ISZERO PUSH2 0x14FC JUMPI PUSH2 0x14FB PUSH2 0x1C46 JUMP JUMPDEST JUMPDEST PUSH2 0x1508 DUP15 DUP3 DUP16 ADD PUSH2 0x140D JUMP JUMPDEST SWAP11 POP POP PUSH1 0x40 DUP13 ADD CALLDATALOAD PUSH8 0xFFFFFFFFFFFFFFFF DUP2 GT ISZERO PUSH2 0x1529 JUMPI PUSH2 0x1528 PUSH2 0x1C46 JUMP JUMPDEST JUMPDEST PUSH2 0x1535 DUP15 DUP3 DUP16 ADD PUSH2 0x140D JUMP JUMPDEST SWAP10 POP POP PUSH1 0x60 PUSH2 0x1546 DUP15 DUP3 DUP16 ADD PUSH2 0x1465 JUMP JUMPDEST SWAP9 POP POP PUSH1 0x80 PUSH2 0x1557 DUP15 DUP3 DUP16 ADD PUSH2 0x1450 JUMP JUMPDEST SWAP8 POP POP PUSH1 0xA0 DUP13 ADD CALLDATALOAD PUSH8 0xFFFFFFFFFFFFFFFF DUP2 GT ISZERO PUSH2 0x1578 JUMPI PUSH2 0x1577 PUSH2 0x1C46 JUMP JUMPDEST JUMPDEST PUSH2 0x1584 DUP15 DUP3 DUP16 ADD PUSH2 0x140D JUMP JUMPDEST SWAP7 POP POP PUSH1 0xC0 PUSH2 0x1595 DUP15 DUP3 DUP16 ADD PUSH2 0x13E3 JUMP JUMPDEST SWAP6 POP POP PUSH1 0xE0 PUSH2 0x15A6 DUP15 DUP3 DUP16 ADD PUSH2 0x13CE JUMP JUMPDEST SWAP5 POP POP PUSH2 0x100 PUSH2 0x15B8 DUP15 DUP3 DUP16 ADD PUSH2 0x1465 JUMP JUMPDEST SWAP4 POP POP PUSH2 0x120 PUSH2 0x15CA DUP15 DUP3 DUP16 ADD PUSH2 0x13F8 JUMP JUMPDEST SWAP3 POP POP PUSH2 0x140 PUSH2 0x15DC DUP15 DUP3 DUP16 ADD PUSH2 0x143B JUMP JUMPDEST SWAP2 POP POP SWAP3 SWAP6 SWAP9 SWAP12 POP SWAP3 SWAP6 SWAP9 SWAP12 SWAP1 SWAP4 SWAP7 SWAP10 POP JUMP JUMPDEST PUSH1 0x0 PUSH1 0x20 DUP3 DUP5 SUB SLT ISZERO PUSH2 0x1605 JUMPI PUSH2 0x1604 PUSH2 0x1C4B JUMP JUMPDEST JUMPDEST PUSH1 0x0 PUSH2 0x1613 DUP5 DUP3 DUP6 ADD PUSH2 0x1450 JUMP JUMPDEST SWAP2 POP POP SWAP3 SWAP2 POP POP JUMP JUMPDEST PUSH2 0x1625 DUP2 PUSH2 0x1A03 JUMP JUMPDEST DUP3 MSTORE POP POP JUMP JUMPDEST PUSH2 0x1634 DUP2 PUSH2 0x1A15 JUMP JUMPDEST DUP3 MSTORE POP POP JUMP JUMPDEST PUSH2 0x1643 DUP2 PUSH2 0x1AC2 JUMP JUMPDEST DUP3 MSTORE POP POP JUMP JUMPDEST PUSH2 0x1652 DUP2 PUSH2 0x1AD4 JUMP JUMPDEST DUP3 MSTORE POP POP JUMP JUMPDEST PUSH2 0x1661 DUP2 PUSH2 0x1AE6 JUMP JUMPDEST DUP3 MSTORE POP POP JUMP JUMPDEST PUSH2 0x1670 DUP2 PUSH2 0x1AF8 JUMP JUMPDEST DUP3 MSTORE POP POP JUMP JUMPDEST PUSH1 0x0 PUSH2 0x1681 DUP3 PUSH2 0x19E7 JUMP JUMPDEST PUSH2 0x168B DUP2 DUP6 PUSH2 0x19F2 JUMP JUMPDEST SWAP4 POP PUSH2 0x169B DUP2 DUP6 PUSH1 0x20 DUP7 ADD PUSH2 0x1B19 JUMP JUMPDEST PUSH2 0x16A4 DUP2 PUSH2 0x1C50 JUMP JUMPDEST DUP5 ADD SWAP2 POP POP SWAP3 SWAP2 POP POP JUMP JUMPDEST PUSH1 0x0 PUSH2 0x16BC PUSH1 0x11 DUP4 PUSH2 0x19F2 JUMP JUMPDEST SWAP2 POP PUSH2 0x16C7 DUP3 PUSH2 0x1C61 JUMP JUMPDEST PUSH1 0x20 DUP3 ADD SWAP1 POP SWAP2 SWAP1 POP JUMP JUMPDEST PUSH2 0x16DB DUP2 PUSH2 0x1A6D JUMP JUMPDEST DUP3 MSTORE POP POP JUMP JUMPDEST PUSH2 0x16EA DUP2 PUSH2 0x1A9B JUMP JUMPDEST DUP3 MSTORE POP POP JUMP JUMPDEST PUSH2 0x16F9 DUP2 PUSH2 0x1AA5 JUMP JUMPDEST DUP3 MSTORE POP POP JUMP JUMPDEST PUSH2 0x1708 DUP2 PUSH2 0x1AB5 JUMP JUMPDEST DUP3 MSTORE POP POP JUMP JUMPDEST PUSH1 0x0 PUSH1 0x20 DUP3 ADD SWAP1 POP PUSH2 0x1723 PUSH1 0x0 DUP4 ADD DUP5 PUSH2 0x161C JUMP JUMPDEST SWAP3 SWAP2 POP POP JUMP JUMPDEST PUSH1 0x0 PUSH1 0x80 DUP3 ADD SWAP1 POP PUSH2 0x173E PUSH1 0x0 DUP4 ADD DUP8 PUSH2 0x161C JUMP JUMPDEST DUP2 DUP2 SUB PUSH1 0x20 DUP4 ADD MSTORE PUSH2 0x1750 DUP2 DUP7 PUSH2 0x1676 JUMP JUMPDEST SWAP1 POP DUP2 DUP2 SUB PUSH1 0x40 DUP4 ADD MSTORE PUSH2 0x1764 DUP2 DUP6 PUSH2 0x1676 JUMP JUMPDEST SWAP1 POP PUSH2 0x1773 PUSH1 0x60 DUP4 ADD DUP5 PUSH2 0x16D2 JUMP JUMPDEST SWAP6 SWAP5 POP POP POP POP POP JUMP JUMPDEST PUSH1 0x0 PUSH1 0x20 DUP3 ADD SWAP1 POP PUSH2 0x1791 PUSH1 0x0 DUP4 ADD DUP5 PUSH2 0x162B JUMP JUMPDEST SWAP3 SWAP2 POP POP JUMP JUMPDEST PUSH1 0x0 PUSH1 0xC0 DUP3 ADD SWAP1 POP PUSH2 0x17AC PUSH1 0x0 DUP4 ADD DUP10 PUSH2 0x162B JUMP JUMPDEST PUSH2 0x17B9 PUSH1 0x20 DUP4 ADD DUP9 PUSH2 0x161C JUMP JUMPDEST PUSH2 0x17C6 PUSH1 0x40 DUP4 ADD DUP8 PUSH2 0x16D2 JUMP JUMPDEST PUSH2 0x17D3 PUSH1 0x60 DUP4 ADD DUP7 PUSH2 0x1667 JUMP JUMPDEST DUP2 DUP2 SUB PUSH1 0x80 DUP4 ADD MSTORE PUSH2 0x17E5 DUP2 DUP6 PUSH2 0x1676 JUMP JUMPDEST SWAP1 POP DUP2 DUP2 SUB PUSH1 0xA0 DUP4 ADD MSTORE PUSH2 0x17F9 DUP2 DUP5 PUSH2 0x1676 JUMP JUMPDEST SWAP1 POP SWAP8 SWAP7 POP POP POP POP POP POP POP JUMP JUMPDEST PUSH1 0x0 PUSH1 0x60 DUP3 ADD SWAP1 POP PUSH2 0x181B PUSH1 0x0 DUP4 ADD DUP7 PUSH2 0x162B JUMP JUMPDEST DUP2 DUP2 SUB PUSH1 0x20 DUP4 ADD MSTORE PUSH2 0x182D DUP2 DUP6 PUSH2 0x1676 JUMP JUMPDEST SWAP1 POP PUSH2 0x183C PUSH1 0x40 DUP4 ADD DUP5 PUSH2 0x16FF JUMP JUMPDEST SWAP5 SWAP4 POP POP POP POP JUMP JUMPDEST PUSH1 0x0 PUSH1 0x80 DUP3 ADD SWAP1 POP PUSH2 0x1859 PUSH1 0x0 DUP4 ADD DUP8 PUSH2 0x162B JUMP JUMPDEST PUSH2 0x1866 PUSH1 0x20 DUP4 ADD DUP7 PUSH2 0x16FF JUMP JUMPDEST PUSH2 0x1873 PUSH1 0x40 DUP4 ADD DUP6 PUSH2 0x16E1 JUMP JUMPDEST DUP2 DUP2 SUB PUSH1 0x60 DUP4 ADD MSTORE PUSH2 0x1885 DUP2 DUP5 PUSH2 0x1676 JUMP JUMPDEST SWAP1 POP SWAP6 SWAP5 POP POP POP POP POP JUMP JUMPDEST PUSH1 0x0 PUSH2 0x140 DUP3 ADD SWAP1 POP DUP2 DUP2 SUB PUSH1 0x0 DUP4 ADD MSTORE PUSH2 0x18AB DUP2 DUP14 PUSH2 0x1676 JUMP JUMPDEST SWAP1 POP DUP2 DUP2 SUB PUSH1 0x20 DUP4 ADD MSTORE PUSH2 0x18BF DUP2 DUP13 PUSH2 0x1676 JUMP JUMPDEST SWAP1 POP PUSH2 0x18CE PUSH1 0x40 DUP4 ADD DUP12 PUSH2 0x16FF JUMP JUMPDEST PUSH2 0x18DB PUSH1 0x60 DUP4 ADD DUP11 PUSH2 0x16F0 JUMP JUMPDEST DUP2 DUP2 SUB PUSH1 0x80 DUP4 ADD MSTORE PUSH2 0x18ED DUP2 DUP10 PUSH2 0x1676 JUMP JUMPDEST SWAP1 POP PUSH2 0x18FC PUSH1 0xA0 DUP4 ADD DUP9 PUSH2 0x1649 JUMP JUMPDEST PUSH2 0x1909 PUSH1 0xC0 DUP4 ADD DUP8 PUSH2 0x163A JUMP JUMPDEST PUSH2 0x1916 PUSH1 0xE0 DUP4 ADD DUP7 PUSH2 0x16FF JUMP JUMPDEST PUSH2 0x1924 PUSH2 0x100 DUP4 ADD DUP6 PUSH2 0x1658 JUMP JUMPDEST PUSH2 0x1932 PUSH2 0x120 DUP4 ADD DUP5 PUSH2 0x16D2 JUMP JUMPDEST SWAP12 SWAP11 POP POP POP POP POP POP POP POP POP POP POP JUMP JUMPDEST PUSH1 0x0 PUSH1 0x20 DUP3 ADD SWAP1 POP DUP2 DUP2 SUB PUSH1 0x0 DUP4 ADD MSTORE PUSH2 0x195A DUP2 PUSH2 0x16AF JUMP JUMPDEST SWAP1 POP SWAP2 SWAP1 POP JUMP JUMPDEST PUSH1 0x0 PUSH1 0x40 DUP3 ADD SWAP1 POP PUSH2 0x1976 PUSH1 0x0 DUP4 ADD DUP6 PUSH2 0x16F0 JUMP JUMPDEST DUP2 DUP2 SUB PUSH1 0x20 DUP4 ADD MSTORE PUSH2 0x1988 DUP2 DUP5 PUSH2 0x1676 JUMP JUMPDEST SWAP1 POP SWAP4 SWAP3 POP POP POP JUMP JUMPDEST PUSH1 0x0 PUSH2 0x199B PUSH2 0x19AC JUMP JUMPDEST SWAP1 POP PUSH2 0x19A7 DUP3 DUP3 PUSH2 0x1B7E JUMP JUMPDEST SWAP2 SWAP1 POP JUMP JUMPDEST PUSH1 0x0 PUSH1 0x40 MLOAD SWAP1 POP SWAP1 JUMP JUMPDEST PUSH1 0x0 PUSH8 0xFFFFFFFFFFFFFFFF DUP3 GT ISZERO PUSH2 0x19D1 JUMPI PUSH2 0x19D0 PUSH2 0x1C0D JUMP JUMPDEST JUMPDEST PUSH2 0x19DA DUP3 PUSH2 0x1C50 JUMP JUMPDEST SWAP1 POP PUSH1 0x20 DUP2 ADD SWAP1 POP SWAP2 SWAP1 POP JUMP JUMPDEST PUSH1 0x0 DUP2 MLOAD SWAP1 POP SWAP2 SWAP1 POP JUMP JUMPDEST PUSH1 0x0 DUP3 DUP3 MSTORE PUSH1 0x20 DUP3 ADD SWAP1 POP SWAP3 SWAP2 POP POP JUMP JUMPDEST PUSH1 0x0 PUSH2 0x1A0E DUP3 PUSH2 0x1A7B JUMP JUMPDEST SWAP1 POP SWAP2 SWAP1 POP JUMP JUMPDEST PUSH1 0x0 DUP2 ISZERO ISZERO SWAP1 POP SWAP2 SWAP1 POP JUMP JUMPDEST PUSH1 0x0 DUP2 SWAP1 POP PUSH2 0x1A2F DUP3 PUSH2 0x1C8A JUMP JUMPDEST SWAP2 SWAP1 POP JUMP JUMPDEST PUSH1 0x0 DUP2 SWAP1 POP PUSH2 0x1A42 DUP3 PUSH2 0x1C9E JUMP JUMPDEST SWAP2 SWAP1 POP JUMP JUMPDEST PUSH1 0x0 DUP2 SWAP1 POP PUSH2 0x1A55 DUP3 PUSH2 0x1CB2 JUMP JUMPDEST SWAP2 SWAP1 POP JUMP JUMPDEST PUSH1 0x0 DUP2 SWAP1 POP PUSH2 0x1A68 DUP3 PUSH2 0x1CC6 JUMP JUMPDEST SWAP2 SWAP1 POP JUMP JUMPDEST PUSH1 0x0 PUSH2 0xFFFF DUP3 AND SWAP1 POP SWAP2 SWAP1 POP JUMP JUMPDEST PUSH1 0x0 PUSH20 0xFFFFFFFFFFFFFFFFFFFFFFFFFFFFFFFFFFFFFFFF DUP3 AND SWAP1 POP SWAP2 SWAP1 POP JUMP JUMPDEST PUSH1 0x0 DUP2 SWAP1 POP SWAP2 SWAP1 POP JUMP JUMPDEST PUSH1 0x0 PUSH4 0xFFFFFFFF DUP3 AND SWAP1 POP SWAP2 SWAP1 POP JUMP JUMPDEST PUSH1 0x0 PUSH1 0xFF DUP3 AND SWAP1 POP SWAP2 SWAP1 POP JUMP JUMPDEST PUSH1 0x0 PUSH2 0x1ACD DUP3 PUSH2 0x1A21 JUMP JUMPDEST SWAP1 POP SWAP2 SWAP1 POP JUMP JUMPDEST PUSH1 0x0 PUSH2 0x1ADF DUP3 PUSH2 0x1A34 JUMP JUMPDEST SWAP1 POP SWAP2 SWAP1 POP JUMP JUMPDEST PUSH1 0x0 PUSH2 0x1AF1 DUP3 PUSH2 0x1A47 JUMP JUMPDEST SWAP1 POP SWAP2 SWAP1 POP JUMP JUMPDEST PUSH1 0x0 PUSH2 0x1B03 DUP3 PUSH2 0x1A5A JUMP JUMPDEST SWAP1 POP SWAP2 SWAP1 POP JUMP JUMPDEST DUP3 DUP2 DUP4 CALLDATACOPY PUSH1 0x0 DUP4 DUP4 ADD MSTORE POP POP POP JUMP JUMPDEST PUSH1 0x0 JUMPDEST DUP4 DUP2 LT ISZERO PUSH2 0x1B37 JUMPI DUP1 DUP3 ADD MLOAD DUP2 DUP5 ADD MSTORE PUSH1 0x20 DUP2 ADD SWAP1 POP PUSH2 0x1B1C JUMP JUMPDEST DUP4 DUP2 GT ISZERO PUSH2 0x1B46 JUMPI PUSH1 0x0 DUP5 DUP5 ADD MSTORE JUMPDEST POP POP POP POP JUMP JUMPDEST PUSH1 0x0 PUSH1 0x2 DUP3 DIV SWAP1 POP PUSH1 0x1 DUP3 AND DUP1 PUSH2 0x1B64 JUMPI PUSH1 0x7F DUP3 AND SWAP2 POP JUMPDEST PUSH1 0x20 DUP3 LT DUP2 EQ ISZERO PUSH2 0x1B78 JUMPI PUSH2 0x1B77 PUSH2 0x1BDE JUMP JUMPDEST JUMPDEST POP SWAP2 SWAP1 POP JUMP JUMPDEST PUSH2 0x1B87 DUP3 PUSH2 0x1C50 JUMP JUMPDEST DUP2 ADD DUP2 DUP2 LT PUSH8 0xFFFFFFFFFFFFFFFF DUP3 GT OR ISZERO PUSH2 0x1BA6 JUMPI PUSH2 0x1BA5 PUSH2 0x1C0D JUMP JUMPDEST JUMPDEST DUP1 PUSH1 0x40 MSTORE POP POP POP JUMP JUMPDEST PUSH32 0x4E487B7100000000000000000000000000000000000000000000000000000000 PUSH1 0x0 MSTORE PUSH1 0x21 PUSH1 0x4 MSTORE PUSH1 0x24 PUSH1 0x0 REVERT JUMPDEST PUSH32 0x4E487B7100000000000000000000000000000000000000000000000000000000 PUSH1 0x0 MSTORE PUSH1 0x22 PUSH1 0x4 MSTORE PUSH1 0x24 PUSH1 0x0 REVERT JUMPDEST PUSH32 0x4E487B7100000000000000000000000000000000000000000000000000000000 PUSH1 0x0 MSTORE PUSH1 0x41 PUSH1 0x4 MSTORE PUSH1 0x24 PUSH1 0x0 REVERT JUMPDEST PUSH1 0x0 DUP1 REVERT JUMPDEST PUSH1 0x0 DUP1 REVERT JUMPDEST PUSH1 0x0 DUP1 REVERT JUMPDEST PUSH1 0x0 DUP1 REVERT JUMPDEST PUSH1 0x0 PUSH1 0x1F NOT PUSH1 0x1F DUP4 ADD AND SWAP1 POP SWAP2 SWAP1 POP JUMP JUMPDEST PUSH32 0x4B697369206D657663757420646567696C000000000000000000000000000000 PUSH1 0x0 DUP3 ADD MSTORE POP JUMP JUMPDEST PUSH1 0x3 DUP2 LT PUSH2 0x1C9B JUMPI PUSH2 0x1C9A PUSH2 0x1BAF JUMP JUMPDEST JUMPDEST POP JUMP JUMPDEST PUSH1 0x2 DUP2 LT PUSH2 0x1CAF JUMPI PUSH2 0x1CAE PUSH2 0x1BAF JUMP JUMPDEST JUMPDEST POP JUMP JUMPDEST PUSH1 0x6 DUP2 LT PUSH2 0x1CC3 JUMPI PUSH2 0x1CC2 PUSH2 0x1BAF JUMP JUMPDEST JUMPDEST POP JUMP JUMPDEST PUSH1 0x4 DUP2 LT PUSH2 0x1CD7 JUMPI PUSH2 0x1CD6 PUSH2 0x1BAF JUMP JUMPDEST JUMPDEST POP JUMP JUMPDEST PUSH2 0x1CE3 DUP2 PUSH2 0x1A03 JUMP JUMPDEST DUP2 EQ PUSH2 0x1CEE JUMPI PUSH1 0x0 DUP1 REVERT JUMPDEST POP JUMP JUMPDEST PUSH1 0x3 DUP2 LT PUSH2 0x1CFE JUMPI PUSH1 0x0 DUP1 REVERT JUMPDEST POP JUMP JUMPDEST PUSH1 0x2 DUP2 LT PUSH2 0x1D0E JUMPI PUSH1 0x0 DUP1 REVERT JUMPDEST POP JUMP JUMPDEST PUSH1 0x6 DUP2 LT PUSH2 0x1D1E JUMPI PUSH1 0x0 DUP1 REVERT JUMPDEST POP JUMP JUMPDEST PUSH2 0x1D2A DUP2 PUSH2 0x1A6D JUMP JUMPDEST DUP2 EQ PUSH2 0x1D35 JUMPI PUSH1 0x0 DUP1 REVERT JUMPDEST POP JUMP JUMPDEST PUSH2 0x1D41 DUP2 PUSH2 0x1AA5 JUMP JUMPDEST DUP2 EQ PUSH2 0x1D4C JUMPI PUSH1 0x0 DUP1 REVERT JUMPDEST POP JUMP JUMPDEST PUSH2 0x1D58 DUP2 PUSH2 0x1AB5 JUMP JUMPDEST DUP2 EQ PUSH2 0x1D63 JUMPI PUSH1 0x0 DUP1 REVERT JUMPDEST POP JUMP INVALID LOG2 PUSH5 0x6970667358 0x22 SLT KECCAK256 0xA6 0xAF 0xE6 AND SWAP1 0xF9 0xDC DUP7 0xE3 0xC6 PUSH5 0xE16813115C 0xAC ADD SUB 0xC0 CALLDATALOAD DUP3 OR 0x4A SGT PUSH6 0x90C1DF6C77E0 PUSH5 0x736F6C6343 STOP ADDMOD SMOD STOP CALLER "
				},
				"gasEstimates": {
					"creation": {
						"codeDepositCost": "1516000",
						"executionCost": "1582",
						"totalCost": "1517582"
					},
					"external": {
						"akademisyenler(address)": "infinite",
						"diller(uint32)": "infinite",
						"ekleKisiselBilgi(address,string,string,uint8,uint32,string,uint8,uint8,uint8,uint8,uint16)": "infinite",
						"firmalar(address)": "infinite",
						"guncelleKisiselBilgi(address,string,string,uint8,uint32,string,uint8,uint8,uint8,uint8,uint16)": "infinite",
						"kamuKurumlari(address)": "infinite",
						"kisiler(address)": "2980",
						"kisiselBilgisi(address)": "infinite",
						"kurslar(address)": "infinite",
						"sertifikaMerkezleri(address)": "infinite",
						"stklar(address)": "infinite",
						"universiteler(address)": "infinite"
					}
				},
				"methodIdentifiers": {
					"akademisyenler(address)": "ba479b7e",
					"diller(uint32)": "a4e7ae05",
					"ekleKisiselBilgi(address,string,string,uint8,uint32,string,uint8,uint8,uint8,uint8,uint16)": "06064a3e",
					"firmalar(address)": "39987f94",
					"guncelleKisiselBilgi(address,string,string,uint8,uint32,string,uint8,uint8,uint8,uint8,uint16)": "317c82d1",
					"kamuKurumlari(address)": "7d0fa287",
					"kisiler(address)": "cbc92809",
					"kisiselBilgisi(address)": "33c19554",
					"kurslar(address)": "1916e139",
					"sertifikaMerkezleri(address)": "356b1f1e",
					"stklar(address)": "9a8c9119",
					"universiteler(address)": "28266697"
				}
			},
			"storageLayout": {
				"storage": [
					{
						"astId": 3,
						"contract": "contracts/KisiselBilgisi.sol:KisiselBilgisi",
						"label": "YOK",
						"offset": 0,
						"slot": "0",
						"type": "t_address"
					},
					{
						"astId": 5,
						"contract": "contracts/KisiselBilgisi.sol:KisiselBilgisi",
						"label": "TOBB",
						"offset": 0,
						"slot": "1",
						"type": "t_address"
					},
					{
						"astId": 7,
						"contract": "contracts/KisiselBilgisi.sol:KisiselBilgisi",
						"label": "CB",
						"offset": 0,
						"slot": "2",
						"type": "t_address"
					},
					{
						"astId": 224,
						"contract": "contracts/KisiselBilgisi.sol:KisiselBilgisi",
						"label": "kisiler",
						"offset": 0,
						"slot": "3",
						"type": "t_mapping(t_address,t_struct(Kisi)10_storage)"
					},
					{
						"astId": 229,
						"contract": "contracts/KisiselBilgisi.sol:KisiselBilgisi",
						"label": "universiteler",
						"offset": 0,
						"slot": "4",
						"type": "t_mapping(t_address,t_struct(Universite)17_storage)"
					},
					{
						"astId": 234,
						"contract": "contracts/KisiselBilgisi.sol:KisiselBilgisi",
						"label": "akademisyenler",
						"offset": 0,
						"slot": "5",
						"type": "t_mapping(t_address,t_struct(Akademisyen)31_storage)"
					},
					{
						"astId": 239,
						"contract": "contracts/KisiselBilgisi.sol:KisiselBilgisi",
						"label": "firmalar",
						"offset": 0,
						"slot": "6",
						"type": "t_mapping(t_address,t_struct(Firma)71_storage)"
					},
					{
						"astId": 244,
						"contract": "contracts/KisiselBilgisi.sol:KisiselBilgisi",
						"label": "kurslar",
						"offset": 0,
						"slot": "7",
						"type": "t_mapping(t_address,t_struct(Kurs)99_storage)"
					},
					{
						"astId": 249,
						"contract": "contracts/KisiselBilgisi.sol:KisiselBilgisi",
						"label": "kamuKurumlari",
						"offset": 0,
						"slot": "8",
						"type": "t_mapping(t_address,t_struct(KamuKurumu)78_storage)"
					},
					{
						"astId": 254,
						"contract": "contracts/KisiselBilgisi.sol:KisiselBilgisi",
						"label": "stklar",
						"offset": 0,
						"slot": "9",
						"type": "t_mapping(t_address,t_struct(STK)85_storage)"
					},
					{
						"astId": 259,
						"contract": "contracts/KisiselBilgisi.sol:KisiselBilgisi",
						"label": "sertifikaMerkezleri",
						"offset": 0,
						"slot": "10",
						"type": "t_mapping(t_address,t_struct(SertifikaMerkezi)92_storage)"
					},
					{
						"astId": 264,
						"contract": "contracts/KisiselBilgisi.sol:KisiselBilgisi",
						"label": "diller",
						"offset": 0,
						"slot": "11",
						"type": "t_mapping(t_uint32,t_struct(YabanciDil)104_storage)"
					},
					{
						"astId": 299,
						"contract": "contracts/KisiselBilgisi.sol:KisiselBilgisi",
						"label": "kisiselBilgisi",
						"offset": 0,
						"slot": "12",
						"type": "t_mapping(t_address,t_struct(KisiselBilgi)294_storage)"
					}
				],
				"types": {
					"t_address": {
						"encoding": "inplace",
						"label": "address",
						"numberOfBytes": "20"
					},
					"t_bool": {
						"encoding": "inplace",
						"label": "bool",
						"numberOfBytes": "1"
					},
					"t_enum(AskerlikDurum)48": {
						"encoding": "inplace",
						"label": "enum BaseContract.AskerlikDurum",
						"numberOfBytes": "1"
					},
					"t_enum(Cinsiyet)44": {
						"encoding": "inplace",
						"label": "enum BaseContract.Cinsiyet",
						"numberOfBytes": "1"
					},
					"t_enum(EhliyetDurum)55": {
						"encoding": "inplace",
						"label": "enum BaseContract.EhliyetDurum",
						"numberOfBytes": "1"
					},
					"t_enum(Unvan)36": {
						"encoding": "inplace",
						"label": "enum BaseContract.Unvan",
						"numberOfBytes": "1"
					},
					"t_mapping(t_address,t_struct(Akademisyen)31_storage)": {
						"encoding": "mapping",
						"key": "t_address",
						"label": "mapping(address => struct BaseContract.Akademisyen)",
						"numberOfBytes": "32",
						"value": "t_struct(Akademisyen)31_storage"
					},
					"t_mapping(t_address,t_struct(Firma)71_storage)": {
						"encoding": "mapping",
						"key": "t_address",
						"label": "mapping(address => struct BaseContract.Firma)",
						"numberOfBytes": "32",
						"value": "t_struct(Firma)71_storage"
					},
					"t_mapping(t_address,t_struct(KamuKurumu)78_storage)": {
						"encoding": "mapping",
						"key": "t_address",
						"label": "mapping(address => struct BaseContract.KamuKurumu)",
						"numberOfBytes": "32",
						"value": "t_struct(KamuKurumu)78_storage"
					},
					"t_mapping(t_address,t_struct(Kisi)10_storage)": {
						"encoding": "mapping",
						"key": "t_address",
						"label": "mapping(address => struct BaseContract.Kisi)",
						"numberOfBytes": "32",
						"value": "t_struct(Kisi)10_storage"
					},
					"t_mapping(t_address,t_struct(KisiselBilgi)294_storage)": {
						"encoding": "mapping",
						"key": "t_address",
						"label": "mapping(address => struct KisiselBilgisi.KisiselBilgi)",
						"numberOfBytes": "32",
						"value": "t_struct(KisiselBilgi)294_storage"
					},
					"t_mapping(t_address,t_struct(Kurs)99_storage)": {
						"encoding": "mapping",
						"key": "t_address",
						"label": "mapping(address => struct BaseContract.Kurs)",
						"numberOfBytes": "32",
						"value": "t_struct(Kurs)99_storage"
					},
					"t_mapping(t_address,t_struct(STK)85_storage)": {
						"encoding": "mapping",
						"key": "t_address",
						"label": "mapping(address => struct BaseContract.STK)",
						"numberOfBytes": "32",
						"value": "t_struct(STK)85_storage"
					},
					"t_mapping(t_address,t_struct(SertifikaMerkezi)92_storage)": {
						"encoding": "mapping",
						"key": "t_address",
						"label": "mapping(address => struct BaseContract.SertifikaMerkezi)",
						"numberOfBytes": "32",
						"value": "t_struct(SertifikaMerkezi)92_storage"
					},
					"t_mapping(t_address,t_struct(Universite)17_storage)": {
						"encoding": "mapping",
						"key": "t_address",
						"label": "mapping(address => struct BaseContract.Universite)",
						"numberOfBytes": "32",
						"value": "t_struct(Universite)17_storage"
					},
					"t_mapping(t_uint32,t_struct(YabanciDil)104_storage)": {
						"encoding": "mapping",
						"key": "t_uint32",
						"label": "mapping(uint32 => struct BaseContract.YabanciDil)",
						"numberOfBytes": "32",
						"value": "t_struct(YabanciDil)104_storage"
					},
					"t_string_storage": {
						"encoding": "bytes",
						"label": "string",
						"numberOfBytes": "32"
					},
					"t_struct(Akademisyen)31_storage": {
						"encoding": "inplace",
						"label": "struct BaseContract.Akademisyen",
						"members": [
							{
								"astId": 19,
								"contract": "contracts/KisiselBilgisi.sol:KisiselBilgisi",
								"label": "durum",
								"offset": 0,
								"slot": "0",
								"type": "t_bool"
							},
							{
								"astId": 21,
								"contract": "contracts/KisiselBilgisi.sol:KisiselBilgisi",
								"label": "universite",
								"offset": 1,
								"slot": "0",
								"type": "t_address"
							},
							{
								"astId": 23,
								"contract": "contracts/KisiselBilgisi.sol:KisiselBilgisi",
								"label": "bolum",
								"offset": 21,
								"slot": "0",
								"type": "t_uint16"
							},
							{
								"astId": 26,
								"contract": "contracts/KisiselBilgisi.sol:KisiselBilgisi",
								"label": "unvan",
								"offset": 23,
								"slot": "0",
								"type": "t_enum(Unvan)36"
							},
							{
								"astId": 28,
								"contract": "contracts/KisiselBilgisi.sol:KisiselBilgisi",
								"label": "ad",
								"offset": 0,
								"slot": "1",
								"type": "t_string_storage"
							},
							{
								"astId": 30,
								"contract": "contracts/KisiselBilgisi.sol:KisiselBilgisi",
								"label": "soyad",
								"offset": 0,
								"slot": "2",
								"type": "t_string_storage"
							}
						],
						"numberOfBytes": "96"
					},
					"t_struct(Firma)71_storage": {
						"encoding": "inplace",
						"label": "struct BaseContract.Firma",
						"members": [
							{
								"astId": 64,
								"contract": "contracts/KisiselBilgisi.sol:KisiselBilgisi",
								"label": "durum",
								"offset": 0,
								"slot": "0",
								"type": "t_bool"
							},
							{
								"astId": 66,
								"contract": "contracts/KisiselBilgisi.sol:KisiselBilgisi",
								"label": "ulke",
								"offset": 1,
								"slot": "0",
								"type": "t_uint8"
							},
							{
								"astId": 68,
								"contract": "contracts/KisiselBilgisi.sol:KisiselBilgisi",
								"label": "vergiNo",
								"offset": 0,
								"slot": "1",
								"type": "t_uint256"
							},
							{
								"astId": 70,
								"contract": "contracts/KisiselBilgisi.sol:KisiselBilgisi",
								"label": "isim",
								"offset": 0,
								"slot": "2",
								"type": "t_string_storage"
							}
						],
						"numberOfBytes": "96"
					},
					"t_struct(KamuKurumu)78_storage": {
						"encoding": "inplace",
						"label": "struct BaseContract.KamuKurumu",
						"members": [
							{
								"astId": 73,
								"contract": "contracts/KisiselBilgisi.sol:KisiselBilgisi",
								"label": "durum",
								"offset": 0,
								"slot": "0",
								"type": "t_bool"
							},
							{
								"astId": 75,
								"contract": "contracts/KisiselBilgisi.sol:KisiselBilgisi",
								"label": "isim",
								"offset": 0,
								"slot": "1",
								"type": "t_string_storage"
							},
							{
								"astId": 77,
								"contract": "contracts/KisiselBilgisi.sol:KisiselBilgisi",
								"label": "ulke",
								"offset": 0,
								"slot": "2",
								"type": "t_uint8"
							}
						],
						"numberOfBytes": "96"
					},
					"t_struct(Kisi)10_storage": {
						"encoding": "inplace",
						"label": "struct BaseContract.Kisi",
						"members": [
							{
								"astId": 9,
								"contract": "contracts/KisiselBilgisi.sol:KisiselBilgisi",
								"label": "durum",
								"offset": 0,
								"slot": "0",
								"type": "t_bool"
							}
						],
						"numberOfBytes": "32"
					},
					"t_struct(KisiselBilgi)294_storage": {
						"encoding": "inplace",
						"label": "struct KisiselBilgisi.KisiselBilgi",
						"members": [
							{
								"astId": 272,
								"contract": "contracts/KisiselBilgisi.sol:KisiselBilgisi",
								"label": "ad",
								"offset": 0,
								"slot": "0",
								"type": "t_string_storage"
							},
							{
								"astId": 274,
								"contract": "contracts/KisiselBilgisi.sol:KisiselBilgisi",
								"label": "soyad",
								"offset": 0,
								"slot": "1",
								"type": "t_string_storage"
							},
							{
								"astId": 276,
								"contract": "contracts/KisiselBilgisi.sol:KisiselBilgisi",
								"label": "ulkeId",
								"offset": 0,
								"slot": "2",
								"type": "t_uint8"
							},
							{
								"astId": 278,
								"contract": "contracts/KisiselBilgisi.sol:KisiselBilgisi",
								"label": "sehirId",
								"offset": 1,
								"slot": "2",
								"type": "t_uint32"
							},
							{
								"astId": 280,
								"contract": "contracts/KisiselBilgisi.sol:KisiselBilgisi",
								"label": "telefon",
								"offset": 0,
								"slot": "3",
								"type": "t_string_storage"
							},
							{
								"astId": 283,
								"contract": "contracts/KisiselBilgisi.sol:KisiselBilgisi",
								"label": "cinsiyet",
								"offset": 0,
								"slot": "4",
								"type": "t_enum(Cinsiyet)44"
							},
							{
								"astId": 286,
								"contract": "contracts/KisiselBilgisi.sol:KisiselBilgisi",
								"label": "askerlikDurum",
								"offset": 1,
								"slot": "4",
								"type": "t_enum(AskerlikDurum)48"
							},
							{
								"astId": 288,
								"contract": "contracts/KisiselBilgisi.sol:KisiselBilgisi",
								"label": "uyrukId",
								"offset": 2,
								"slot": "4",
								"type": "t_uint8"
							},
							{
								"astId": 291,
								"contract": "contracts/KisiselBilgisi.sol:KisiselBilgisi",
								"label": "ehliyetDurum",
								"offset": 3,
								"slot": "4",
								"type": "t_enum(EhliyetDurum)55"
							},
							{
								"astId": 293,
								"contract": "contracts/KisiselBilgisi.sol:KisiselBilgisi",
								"label": "dogumYil",
								"offset": 4,
								"slot": "4",
								"type": "t_uint16"
							}
						],
						"numberOfBytes": "160"
					},
					"t_struct(Kurs)99_storage": {
						"encoding": "inplace",
						"label": "struct BaseContract.Kurs",
						"members": [
							{
								"astId": 94,
								"contract": "contracts/KisiselBilgisi.sol:KisiselBilgisi",
								"label": "durum",
								"offset": 0,
								"slot": "0",
								"type": "t_bool"
							},
							{
								"astId": 96,
								"contract": "contracts/KisiselBilgisi.sol:KisiselBilgisi",
								"label": "isim",
								"offset": 0,
								"slot": "1",
								"type": "t_string_storage"
							},
							{
								"astId": 98,
								"contract": "contracts/KisiselBilgisi.sol:KisiselBilgisi",
								"label": "ulke",
								"offset": 0,
								"slot": "2",
								"type": "t_uint8"
							}
						],
						"numberOfBytes": "96"
					},
					"t_struct(STK)85_storage": {
						"encoding": "inplace",
						"label": "struct BaseContract.STK",
						"members": [
							{
								"astId": 80,
								"contract": "contracts/KisiselBilgisi.sol:KisiselBilgisi",
								"label": "durum",
								"offset": 0,
								"slot": "0",
								"type": "t_bool"
							},
							{
								"astId": 82,
								"contract": "contracts/KisiselBilgisi.sol:KisiselBilgisi",
								"label": "isim",
								"offset": 0,
								"slot": "1",
								"type": "t_string_storage"
							},
							{
								"astId": 84,
								"contract": "contracts/KisiselBilgisi.sol:KisiselBilgisi",
								"label": "ulke",
								"offset": 0,
								"slot": "2",
								"type": "t_uint8"
							}
						],
						"numberOfBytes": "96"
					},
					"t_struct(SertifikaMerkezi)92_storage": {
						"encoding": "inplace",
						"label": "struct BaseContract.SertifikaMerkezi",
						"members": [
							{
								"astId": 87,
								"contract": "contracts/KisiselBilgisi.sol:KisiselBilgisi",
								"label": "durum",
								"offset": 0,
								"slot": "0",
								"type": "t_bool"
							},
							{
								"astId": 89,
								"contract": "contracts/KisiselBilgisi.sol:KisiselBilgisi",
								"label": "isim",
								"offset": 0,
								"slot": "1",
								"type": "t_string_storage"
							},
							{
								"astId": 91,
								"contract": "contracts/KisiselBilgisi.sol:KisiselBilgisi",
								"label": "ulke",
								"offset": 0,
								"slot": "2",
								"type": "t_uint8"
							}
						],
						"numberOfBytes": "96"
					},
					"t_struct(Universite)17_storage": {
						"encoding": "inplace",
						"label": "struct BaseContract.Universite",
						"members": [
							{
								"astId": 12,
								"contract": "contracts/KisiselBilgisi.sol:KisiselBilgisi",
								"label": "durum",
								"offset": 0,
								"slot": "0",
								"type": "t_bool"
							},
							{
								"astId": 14,
								"contract": "contracts/KisiselBilgisi.sol:KisiselBilgisi",
								"label": "isim",
								"offset": 0,
								"slot": "1",
								"type": "t_string_storage"
							},
							{
								"astId": 16,
								"contract": "contracts/KisiselBilgisi.sol:KisiselBilgisi",
								"label": "ulke",
								"offset": 0,
								"slot": "2",
								"type": "t_uint8"
							}
						],
						"numberOfBytes": "96"
					},
					"t_struct(YabanciDil)104_storage": {
						"encoding": "inplace",
						"label": "struct BaseContract.YabanciDil",
						"members": [
							{
								"astId": 101,
								"contract": "contracts/KisiselBilgisi.sol:KisiselBilgisi",
								"label": "id",
								"offset": 0,
								"slot": "0",
								"type": "t_uint32"
							},
							{
								"astId": 103,
								"contract": "contracts/KisiselBilgisi.sol:KisiselBilgisi",
								"label": "isim",
								"offset": 0,
								"slot": "1",
								"type": "t_string_storage"
							}
						],
						"numberOfBytes": "64"
					},
					"t_uint16": {
						"encoding": "inplace",
						"label": "uint16",
						"numberOfBytes": "2"
					},
					"t_uint256": {
						"encoding": "inplace",
						"label": "uint256",
						"numberOfBytes": "32"
					},
					"t_uint32": {
						"encoding": "inplace",
						"label": "uint32",
						"numberOfBytes": "4"
					},
					"t_uint8": {
						"encoding": "inplace",
						"label": "uint8",
						"numberOfBytes": "1"
					}
				}
			},
			"userdoc": {
				"kind": "user",
				"methods": {},
				"version": 1
			}
		}
	}
}