{
	"contracts/SertifikaBilgileri.sol": {
		"SertifikaBilgileri": {
			"abi": [
				{
					"inputs": [
						{
							"internalType": "address",
							"name": "baseAddress",
							"type": "address"
						}
					],
					"stateMutability": "nonpayable",
					"type": "constructor"
				},
				{
					"anonymous": false,
					"inputs": [
						{
							"indexed": false,
							"internalType": "uint256",
							"name": "_id",
							"type": "uint256"
						},
						{
							"indexed": false,
							"internalType": "uint256",
							"name": "_alinanTarih",
							"type": "uint256"
						},
						{
							"indexed": false,
							"internalType": "uint256",
							"name": "_gecerlilikSuresi",
							"type": "uint256"
						}
					],
					"name": "SertifikaEklendiLog",
					"type": "event"
				},
				{
					"anonymous": false,
					"inputs": [
						{
							"indexed": false,
							"internalType": "uint256",
							"name": "_sertifikaBilgiId",
							"type": "uint256"
						},
						{
							"indexed": false,
							"internalType": "uint256",
							"name": "_alinanTarih",
							"type": "uint256"
						},
						{
							"indexed": false,
							"internalType": "uint256",
							"name": "_gecerlilikSuresi",
							"type": "uint256"
						}
					],
					"name": "SertifikaGuncellendiLog",
					"type": "event"
				},
				{
					"anonymous": false,
					"inputs": [
						{
							"indexed": false,
							"internalType": "uint256",
							"name": "_sertifikaBilgiId",
							"type": "uint256"
						},
						{
							"indexed": false,
							"internalType": "uint256",
							"name": "_alinanTarih",
							"type": "uint256"
						},
						{
							"indexed": false,
							"internalType": "uint256",
							"name": "_gecerlilikSuresi",
							"type": "uint256"
						}
					],
					"name": "SertifikaTalepEdildiLog",
					"type": "event"
				},
				{
					"inputs": [
						{
							"internalType": "address",
							"name": "_kisiAddress",
							"type": "address"
						},
						{
							"internalType": "uint256",
							"name": "_alinanTarih",
							"type": "uint256"
						},
						{
							"internalType": "uint8",
							"name": "_gecerlilikSuresi",
							"type": "uint8"
						},
						{
							"internalType": "string",
							"name": "_sertifikaAdi",
							"type": "string"
						}
					],
					"name": "ekleSertifikaBilgi",
					"outputs": [],
					"stateMutability": "nonpayable",
					"type": "function"
				},
				{
					"inputs": [
						{
							"internalType": "address",
							"name": "_kisiAddress",
							"type": "address"
						},
						{
							"internalType": "uint256",
							"name": "_sertifikaBilgiId",
							"type": "uint256"
						},
						{
							"internalType": "uint256",
							"name": "_alinanTarih",
							"type": "uint256"
						},
						{
							"internalType": "uint8",
							"name": "_gecerlilikSuresi",
							"type": "uint8"
						},
						{
							"internalType": "string",
							"name": "_sertifikaAdi",
							"type": "string"
						}
					],
					"name": "guncelleSertifikaBilgi",
					"outputs": [
						{
							"internalType": "uint256",
							"name": "",
							"type": "uint256"
						}
					],
					"stateMutability": "nonpayable",
					"type": "function"
				},
				{
					"inputs": [],
					"name": "id",
					"outputs": [
						{
							"internalType": "uint256",
							"name": "",
							"type": "uint256"
						}
					],
					"stateMutability": "view",
					"type": "function"
				},
				{
					"inputs": [
						{
							"internalType": "address",
							"name": "",
							"type": "address"
						},
						{
							"internalType": "uint256",
							"name": "",
							"type": "uint256"
						}
					],
					"name": "sertifikaBilgiListesi",
					"outputs": [
						{
							"internalType": "uint256",
							"name": "id",
							"type": "uint256"
						},
						{
							"internalType": "address",
							"name": "talepEdilenKurum",
							"type": "address"
						},
						{
							"internalType": "uint256",
							"name": "alinanTarih",
							"type": "uint256"
						},
						{
							"internalType": "uint8",
							"name": "gecerlilikSuresi",
							"type": "uint8"
						},
						{
							"internalType": "string",
							"name": "sertifikaAdi",
							"type": "string"
						},
						{
							"components": [
								{
									"internalType": "uint256",
									"name": "zaman",
									"type": "uint256"
								},
								{
									"internalType": "address",
									"name": "adres",
									"type": "address"
								},
								{
									"internalType": "enum BaseProperties.OnayDurum",
									"name": "durum",
									"type": "uint8"
								}
							],
							"internalType": "struct BaseProperties.Onay",
							"name": "onayBilgi",
							"type": "tuple"
						}
					],
					"stateMutability": "view",
					"type": "function"
				},
				{
					"inputs": [
						{
							"internalType": "address",
							"name": "_kisiAddress",
							"type": "address"
						},
						{
							"internalType": "address",
							"name": "_talepEdilenKurum",
							"type": "address"
						},
						{
							"internalType": "uint256",
							"name": "_alinanTarih",
							"type": "uint256"
						},
						{
							"internalType": "uint8",
							"name": "_gecerlilikSuresi",
							"type": "uint8"
						},
						{
							"internalType": "string",
							"name": "_sertifikaAdi",
							"type": "string"
						}
					],
					"name": "talepEtSertifikaBilgi",
					"outputs": [],
					"stateMutability": "nonpayable",
					"type": "function"
				}
			],
			"devdoc": {
				"kind": "dev",
				"methods": {},
				"version": 1
			},
			"evm": {
				"assembly": "    /* \"contracts/SertifikaBilgileri.sol\":134:4109  contract SertifikaBilgileri is BaseProperties{\r... */\n  mstore(0x40, 0x80)\n    /* \"contracts/SertifikaBilgileri.sol\":842:941  constructor(address baseAddress)  {\r... */\n  callvalue\n  dup1\n  iszero\n  tag_1\n  jumpi\n  0x00\n  dup1\n  revert\ntag_1:\n  pop\n  mload(0x40)\n  sub(codesize, bytecodeSize)\n  dup1\n  bytecodeSize\n  dup4\n  codecopy\n  dup2\n  dup2\n  add\n  0x40\n  mstore\n  dup2\n  add\n  swap1\n  tag_2\n  swap2\n  swap1\n  tag_3\n  jump\t// in\ntag_2:\n    /* \"contracts/SertifikaBilgileri.sol\":913:924  baseAddress */\n  dup1\n    /* \"contracts/SertifikaBilgileri.sol\":887:899  baseContract */\n  0x01\n  0x00\n    /* \"contracts/SertifikaBilgileri.sol\":887:925  baseContract=BaseContract(baseAddress) */\n  0x0100\n  exp\n  dup2\n  sload\n  dup2\n  0xffffffffffffffffffffffffffffffffffffffff\n  mul\n  not\n  and\n  swap1\n  dup4\n  0xffffffffffffffffffffffffffffffffffffffff\n  and\n  mul\n  or\n  swap1\n  sstore\n  pop\n    /* \"contracts/SertifikaBilgileri.sol\":842:941  constructor(address baseAddress)  {\r... */\n  pop\n    /* \"contracts/SertifikaBilgileri.sol\":134:4109  contract SertifikaBilgileri is BaseProperties{\r... */\n  jump(tag_6)\n    /* \"#utility.yul\":7:150   */\ntag_8:\n    /* \"#utility.yul\":64:69   */\n  0x00\n    /* \"#utility.yul\":95:101   */\n  dup2\n    /* \"#utility.yul\":89:102   */\n  mload\n    /* \"#utility.yul\":80:102   */\n  swap1\n  pop\n    /* \"#utility.yul\":111:144   */\n  tag_10\n    /* \"#utility.yul\":138:143   */\n  dup2\n    /* \"#utility.yul\":111:144   */\n  tag_11\n  jump\t// in\ntag_10:\n    /* \"#utility.yul\":7:150   */\n  swap3\n  swap2\n  pop\n  pop\n  jump\t// out\n    /* \"#utility.yul\":156:507   */\ntag_3:\n    /* \"#utility.yul\":226:232   */\n  0x00\n    /* \"#utility.yul\":275:277   */\n  0x20\n    /* \"#utility.yul\":263:272   */\n  dup3\n    /* \"#utility.yul\":254:261   */\n  dup5\n    /* \"#utility.yul\":250:273   */\n  sub\n    /* \"#utility.yul\":246:278   */\n  slt\n    /* \"#utility.yul\":243:362   */\n  iszero\n  tag_13\n  jumpi\n    /* \"#utility.yul\":281:360   */\n  tag_14\n  tag_15\n  jump\t// in\ntag_14:\n    /* \"#utility.yul\":243:362   */\ntag_13:\n    /* \"#utility.yul\":401:402   */\n  0x00\n    /* \"#utility.yul\":426:490   */\n  tag_16\n    /* \"#utility.yul\":482:489   */\n  dup5\n    /* \"#utility.yul\":473:479   */\n  dup3\n    /* \"#utility.yul\":462:471   */\n  dup6\n    /* \"#utility.yul\":458:480   */\n  add\n    /* \"#utility.yul\":426:490   */\n  tag_8\n  jump\t// in\ntag_16:\n    /* \"#utility.yul\":416:490   */\n  swap2\n  pop\n    /* \"#utility.yul\":372:500   */\n  pop\n    /* \"#utility.yul\":156:507   */\n  swap3\n  swap2\n  pop\n  pop\n  jump\t// out\n    /* \"#utility.yul\":594:690   */\ntag_19:\n    /* \"#utility.yul\":631:638   */\n  0x00\n    /* \"#utility.yul\":660:684   */\n  tag_21\n    /* \"#utility.yul\":678:683   */\n  dup3\n    /* \"#utility.yul\":660:684   */\n  tag_22\n  jump\t// in\ntag_21:\n    /* \"#utility.yul\":649:684   */\n  swap1\n  pop\n    /* \"#utility.yul\":594:690   */\n  swap2\n  swap1\n  pop\n  jump\t// out\n    /* \"#utility.yul\":696:822   */\ntag_22:\n    /* \"#utility.yul\":733:740   */\n  0x00\n    /* \"#utility.yul\":773:815   */\n  0xffffffffffffffffffffffffffffffffffffffff\n    /* \"#utility.yul\":766:771   */\n  dup3\n    /* \"#utility.yul\":762:816   */\n  and\n    /* \"#utility.yul\":751:816   */\n  swap1\n  pop\n    /* \"#utility.yul\":696:822   */\n  swap2\n  swap1\n  pop\n  jump\t// out\n    /* \"#utility.yul\":951:1068   */\ntag_15:\n    /* \"#utility.yul\":1060:1061   */\n  0x00\n    /* \"#utility.yul\":1057:1058   */\n  dup1\n    /* \"#utility.yul\":1050:1062   */\n  revert\n    /* \"#utility.yul\":1074:1196   */\ntag_11:\n    /* \"#utility.yul\":1147:1171   */\n  tag_28\n    /* \"#utility.yul\":1165:1170   */\n  dup2\n    /* \"#utility.yul\":1147:1171   */\n  tag_19\n  jump\t// in\ntag_28:\n    /* \"#utility.yul\":1140:1145   */\n  dup2\n    /* \"#utility.yul\":1137:1172   */\n  eq\n    /* \"#utility.yul\":1127:1190   */\n  tag_29\n  jumpi\n    /* \"#utility.yul\":1186:1187   */\n  0x00\n    /* \"#utility.yul\":1183:1184   */\n  dup1\n    /* \"#utility.yul\":1176:1188   */\n  revert\n    /* \"#utility.yul\":1127:1190   */\ntag_29:\n    /* \"#utility.yul\":1074:1196   */\n  pop\n  jump\t// out\n    /* \"contracts/SertifikaBilgileri.sol\":134:4109  contract SertifikaBilgileri is BaseProperties{\r... */\ntag_6:\n  dataSize(sub_0)\n  dup1\n  dataOffset(sub_0)\n  0x00\n  codecopy\n  0x00\n  return\nstop\n\nsub_0: assembly {\n        /* \"contracts/SertifikaBilgileri.sol\":134:4109  contract SertifikaBilgileri is BaseProperties{\r... */\n      mstore(0x40, 0x80)\n      callvalue\n      dup1\n      iszero\n      tag_1\n      jumpi\n      0x00\n      dup1\n      revert\n    tag_1:\n      pop\n      jumpi(tag_2, lt(calldatasize, 0x04))\n      shr(0xe0, calldataload(0x00))\n      dup1\n      0x13e5c393\n      eq\n      tag_3\n      jumpi\n      dup1\n      0x2281d48d\n      eq\n      tag_4\n      jumpi\n      dup1\n      0x6f9bce31\n      eq\n      tag_5\n      jumpi\n      dup1\n      0xaf640d0f\n      eq\n      tag_6\n      jumpi\n      dup1\n      0xcca50940\n      eq\n      tag_7\n      jumpi\n    tag_2:\n      0x00\n      dup1\n      revert\n        /* \"contracts/SertifikaBilgileri.sol\":453:529  mapping(address=>mapping(uint=>SertifikaBilgi)) public sertifikaBilgiListesi */\n    tag_3:\n      tag_8\n      0x04\n      dup1\n      calldatasize\n      sub\n      dup2\n      add\n      swap1\n      tag_9\n      swap2\n      swap1\n      tag_10\n      jump\t// in\n    tag_9:\n      tag_11\n      jump\t// in\n    tag_8:\n      mload(0x40)\n      tag_12\n      swap7\n      swap6\n      swap5\n      swap4\n      swap3\n      swap2\n      swap1\n      tag_13\n      jump\t// in\n    tag_12:\n      mload(0x40)\n      dup1\n      swap2\n      sub\n      swap1\n      return\n        /* \"contracts/SertifikaBilgileri.sol\":2178:3240  function guncelleSertifikaBilgi(address _kisiAddress, uint _sertifikaBilgiId, uint _alinanTarih, uint8 _gecerlilikSuresi, string memory _sertifikaAdi) public _yetkiliPaydas returns(uint){\r... */\n    tag_4:\n      tag_14\n      0x04\n      dup1\n      calldatasize\n      sub\n      dup2\n      add\n      swap1\n      tag_15\n      swap2\n      swap1\n      tag_16\n      jump\t// in\n    tag_15:\n      tag_17\n      jump\t// in\n    tag_14:\n      mload(0x40)\n      tag_18\n      swap2\n      swap1\n      tag_19\n      jump\t// in\n    tag_18:\n      mload(0x40)\n      dup1\n      swap2\n      sub\n      swap1\n      return\n        /* \"contracts/SertifikaBilgileri.sol\":1270:2166  function ekleSertifikaBilgi(address _kisiAddress, uint _alinanTarih, uint8 _gecerlilikSuresi, string memory _sertifikaAdi) public _yetkiliPaydas{\r... */\n    tag_5:\n      tag_20\n      0x04\n      dup1\n      calldatasize\n      sub\n      dup2\n      add\n      swap1\n      tag_21\n      swap2\n      swap1\n      tag_22\n      jump\t// in\n    tag_21:\n      tag_23\n      jump\t// in\n    tag_20:\n      stop\n        /* \"contracts/SertifikaBilgileri.sol\":184:198  uint public id */\n    tag_6:\n      tag_24\n      tag_25\n      jump\t// in\n    tag_24:\n      mload(0x40)\n      tag_26\n      swap2\n      swap1\n      tag_19\n      jump\t// in\n    tag_26:\n      mload(0x40)\n      dup1\n      swap2\n      sub\n      swap1\n      return\n        /* \"contracts/SertifikaBilgileri.sol\":3261:4100  function talepEtSertifikaBilgi(address _kisiAddress,address _talepEdilenKurum, uint _alinanTarih, uint8 _gecerlilikSuresi, string memory _sertifikaAdi) public {\r... */\n    tag_7:\n      tag_27\n      0x04\n      dup1\n      calldatasize\n      sub\n      dup2\n      add\n      swap1\n      tag_28\n      swap2\n      swap1\n      tag_29\n      jump\t// in\n    tag_28:\n      tag_30\n      jump\t// in\n    tag_27:\n      stop\n        /* \"contracts/SertifikaBilgileri.sol\":453:529  mapping(address=>mapping(uint=>SertifikaBilgi)) public sertifikaBilgiListesi */\n    tag_11:\n      mstore(0x20, 0x02)\n      dup2\n      0x00\n      mstore\n      mstore(0x20, keccak256(0x00, 0x40))\n      dup1\n      0x00\n      mstore\n      keccak256(0x00, 0x40)\n      0x00\n      swap2\n      pop\n      swap2\n      pop\n      pop\n      dup1\n      0x00\n      add\n      sload\n      swap1\n      dup1\n      0x01\n      add\n      0x00\n      swap1\n      sload\n      swap1\n      0x0100\n      exp\n      swap1\n      div\n      0xffffffffffffffffffffffffffffffffffffffff\n      and\n      swap1\n      dup1\n      0x02\n      add\n      sload\n      swap1\n      dup1\n      0x03\n      add\n      0x00\n      swap1\n      sload\n      swap1\n      0x0100\n      exp\n      swap1\n      div\n      0xff\n      and\n      swap1\n      dup1\n      0x04\n      add\n      dup1\n      sload\n      tag_31\n      swap1\n      tag_32\n      jump\t// in\n    tag_31:\n      dup1\n      0x1f\n      add\n      0x20\n      dup1\n      swap2\n      div\n      mul\n      0x20\n      add\n      mload(0x40)\n      swap1\n      dup2\n      add\n      0x40\n      mstore\n      dup1\n      swap3\n      swap2\n      swap1\n      dup2\n      dup2\n      mstore\n      0x20\n      add\n      dup3\n      dup1\n      sload\n      tag_33\n      swap1\n      tag_32\n      jump\t// in\n    tag_33:\n      dup1\n      iszero\n      tag_34\n      jumpi\n      dup1\n      0x1f\n      lt\n      tag_35\n      jumpi\n      0x0100\n      dup1\n      dup4\n      sload\n      div\n      mul\n      dup4\n      mstore\n      swap2\n      0x20\n      add\n      swap2\n      jump(tag_34)\n    tag_35:\n      dup3\n      add\n      swap2\n      swap1\n      0x00\n      mstore\n      keccak256(0x00, 0x20)\n      swap1\n    tag_36:\n      dup2\n      sload\n      dup2\n      mstore\n      swap1\n      0x01\n      add\n      swap1\n      0x20\n      add\n      dup1\n      dup4\n      gt\n      tag_36\n      jumpi\n      dup3\n      swap1\n      sub\n      0x1f\n      and\n      dup3\n      add\n      swap2\n    tag_34:\n      pop\n      pop\n      pop\n      pop\n      pop\n      swap1\n      dup1\n      0x05\n      add\n      mload(0x40)\n      dup1\n      0x60\n      add\n      0x40\n      mstore\n      swap1\n      dup2\n      0x00\n      dup3\n      add\n      sload\n      dup2\n      mstore\n      0x20\n      add\n      0x01\n      dup3\n      add\n      0x00\n      swap1\n      sload\n      swap1\n      0x0100\n      exp\n      swap1\n      div\n      0xffffffffffffffffffffffffffffffffffffffff\n      and\n      0xffffffffffffffffffffffffffffffffffffffff\n      and\n      0xffffffffffffffffffffffffffffffffffffffff\n      and\n      dup2\n      mstore\n      0x20\n      add\n      0x01\n      dup3\n      add\n      0x14\n      swap1\n      sload\n      swap1\n      0x0100\n      exp\n      swap1\n      div\n      0xff\n      and\n      0x02\n      dup2\n      gt\n      iszero\n      tag_37\n      jumpi\n      tag_38\n      tag_39\n      jump\t// in\n    tag_38:\n    tag_37:\n      0x02\n      dup2\n      gt\n      iszero\n      tag_40\n      jumpi\n      tag_41\n      tag_39\n      jump\t// in\n    tag_41:\n    tag_40:\n      dup2\n      mstore\n      pop\n      pop\n      swap1\n      pop\n      dup7\n      jump\t// out\n        /* \"contracts/SertifikaBilgileri.sol\":2178:3240  function guncelleSertifikaBilgi(address _kisiAddress, uint _sertifikaBilgiId, uint _alinanTarih, uint8 _gecerlilikSuresi, string memory _sertifikaAdi) public _yetkiliPaydas returns(uint){\r... */\n    tag_17:\n        /* \"contracts/SertifikaBilgileri.sol\":2359:2363  uint */\n      0x00\n        /* \"contracts/SertifikaBilgileri.sol\":988:1000  baseContract */\n      0x01\n      0x00\n      swap1\n      sload\n      swap1\n      0x0100\n      exp\n      swap1\n      div\n      0xffffffffffffffffffffffffffffffffffffffff\n      and\n        /* \"contracts/SertifikaBilgileri.sol\":988:1019  baseContract.isSertifikaMerkezi */\n      0xffffffffffffffffffffffffffffffffffffffff\n      and\n      0xe24047ca\n        /* \"contracts/SertifikaBilgileri.sol\":1020:1030  msg.sender */\n      caller\n        /* \"contracts/SertifikaBilgileri.sol\":988:1031  baseContract.isSertifikaMerkezi(msg.sender) */\n      mload(0x40)\n      dup3\n      0xffffffff\n      and\n      0xe0\n      shl\n      dup2\n      mstore\n      0x04\n      add\n      tag_43\n      swap2\n      swap1\n      tag_44\n      jump\t// in\n    tag_43:\n      0x20\n      mload(0x40)\n      dup1\n      dup4\n      sub\n      dup2\n      dup7\n      dup1\n      extcodesize\n      iszero\n      dup1\n      iszero\n      tag_45\n      jumpi\n      0x00\n      dup1\n      revert\n    tag_45:\n      pop\n      gas\n      staticcall\n      iszero\n      dup1\n      iszero\n      tag_47\n      jumpi\n      returndatasize\n      0x00\n      dup1\n      returndatacopy\n      revert(0x00, returndatasize)\n    tag_47:\n      pop\n      pop\n      pop\n      pop\n      mload(0x40)\n      returndatasize\n      not(0x1f)\n      0x1f\n      dup3\n      add\n      and\n      dup3\n      add\n      dup1\n      0x40\n      mstore\n      pop\n      dup2\n      add\n      swap1\n      tag_48\n      swap2\n      swap1\n      tag_49\n      jump\t// in\n    tag_48:\n        /* \"contracts/SertifikaBilgileri.sol\":980:1093  require(baseContract.isSertifikaMerkezi(msg.sender),\r... */\n      tag_50\n      jumpi\n      mload(0x40)\n      0x08c379a000000000000000000000000000000000000000000000000000000000\n      dup2\n      mstore\n      0x04\n      add\n      tag_51\n      swap1\n      tag_52\n      jump\t// in\n    tag_51:\n      mload(0x40)\n      dup1\n      swap2\n      sub\n      swap1\n      revert\n    tag_50:\n        /* \"contracts/SertifikaBilgileri.sol\":2401:2413  baseContract */\n      0x01\n      0x00\n      swap1\n      sload\n      swap1\n      0x0100\n      exp\n      swap1\n      div\n      0xffffffffffffffffffffffffffffffffffffffff\n      and\n        /* \"contracts/SertifikaBilgileri.sol\":2401:2420  baseContract.isKisi */\n      0xffffffffffffffffffffffffffffffffffffffff\n      and\n      0xb98ccefd\n        /* \"contracts/SertifikaBilgileri.sol\":2421:2433  _kisiAddress */\n      dup8\n        /* \"contracts/SertifikaBilgileri.sol\":2401:2434  baseContract.isKisi(_kisiAddress) */\n      mload(0x40)\n      dup3\n      0xffffffff\n      and\n      0xe0\n      shl\n      dup2\n      mstore\n      0x04\n      add\n      tag_54\n      swap2\n      swap1\n      tag_44\n      jump\t// in\n    tag_54:\n      0x20\n      mload(0x40)\n      dup1\n      dup4\n      sub\n      dup2\n      dup7\n      dup1\n      extcodesize\n      iszero\n      dup1\n      iszero\n      tag_55\n      jumpi\n      0x00\n      dup1\n      revert\n    tag_55:\n      pop\n      gas\n      staticcall\n      iszero\n      dup1\n      iszero\n      tag_57\n      jumpi\n      returndatasize\n      0x00\n      dup1\n      returndatacopy\n      revert(0x00, returndatasize)\n    tag_57:\n      pop\n      pop\n      pop\n      pop\n      mload(0x40)\n      returndatasize\n      not(0x1f)\n      0x1f\n      dup3\n      add\n      and\n      dup3\n      add\n      dup1\n      0x40\n      mstore\n      pop\n      dup2\n      add\n      swap1\n      tag_58\n      swap2\n      swap1\n      tag_49\n      jump\t// in\n    tag_58:\n        /* \"contracts/SertifikaBilgileri.sol\":2393:2453  require(baseContract.isKisi(_kisiAddress),\"Kisi bulunamadi\") */\n      tag_59\n      jumpi\n      mload(0x40)\n      0x08c379a000000000000000000000000000000000000000000000000000000000\n      dup2\n      mstore\n      0x04\n      add\n      tag_60\n      swap1\n      tag_61\n      jump\t// in\n    tag_60:\n      mload(0x40)\n      dup1\n      swap2\n      sub\n      swap1\n      revert\n    tag_59:\n        /* \"contracts/SertifikaBilgileri.sol\":2554:2566  _alinanTarih */\n      dup4\n        /* \"contracts/SertifikaBilgileri.sol\":2487:2508  sertifikaBilgiListesi */\n      0x02\n        /* \"contracts/SertifikaBilgileri.sol\":2487:2522  sertifikaBilgiListesi[_kisiAddress] */\n      0x00\n        /* \"contracts/SertifikaBilgileri.sol\":2509:2521  _kisiAddress */\n      dup9\n        /* \"contracts/SertifikaBilgileri.sol\":2487:2522  sertifikaBilgiListesi[_kisiAddress] */\n      0xffffffffffffffffffffffffffffffffffffffff\n      and\n      0xffffffffffffffffffffffffffffffffffffffff\n      and\n      dup2\n      mstore\n      0x20\n      add\n      swap1\n      dup2\n      mstore\n      0x20\n      add\n      0x00\n      keccak256\n        /* \"contracts/SertifikaBilgileri.sol\":2487:2541  sertifikaBilgiListesi[_kisiAddress][_sertifikaBilgiId] */\n      0x00\n        /* \"contracts/SertifikaBilgileri.sol\":2523:2540  _sertifikaBilgiId */\n      dup8\n        /* \"contracts/SertifikaBilgileri.sol\":2487:2541  sertifikaBilgiListesi[_kisiAddress][_sertifikaBilgiId] */\n      dup2\n      mstore\n      0x20\n      add\n      swap1\n      dup2\n      mstore\n      0x20\n      add\n      0x00\n      keccak256\n        /* \"contracts/SertifikaBilgileri.sol\":2487:2553  sertifikaBilgiListesi[_kisiAddress][_sertifikaBilgiId].alinanTarih */\n      0x02\n      add\n        /* \"contracts/SertifikaBilgileri.sol\":2487:2566  sertifikaBilgiListesi[_kisiAddress][_sertifikaBilgiId].alinanTarih=_alinanTarih */\n      dup2\n      swap1\n      sstore\n      pop\n        /* \"contracts/SertifikaBilgileri.sol\":2654:2671  _gecerlilikSuresi */\n      dup3\n        /* \"contracts/SertifikaBilgileri.sol\":2582:2603  sertifikaBilgiListesi */\n      0x02\n        /* \"contracts/SertifikaBilgileri.sol\":2582:2617  sertifikaBilgiListesi[_kisiAddress] */\n      0x00\n        /* \"contracts/SertifikaBilgileri.sol\":2604:2616  _kisiAddress */\n      dup9\n        /* \"contracts/SertifikaBilgileri.sol\":2582:2617  sertifikaBilgiListesi[_kisiAddress] */\n      0xffffffffffffffffffffffffffffffffffffffff\n      and\n      0xffffffffffffffffffffffffffffffffffffffff\n      and\n      dup2\n      mstore\n      0x20\n      add\n      swap1\n      dup2\n      mstore\n      0x20\n      add\n      0x00\n      keccak256\n        /* \"contracts/SertifikaBilgileri.sol\":2582:2636  sertifikaBilgiListesi[_kisiAddress][_sertifikaBilgiId] */\n      0x00\n        /* \"contracts/SertifikaBilgileri.sol\":2618:2635  _sertifikaBilgiId */\n      dup8\n        /* \"contracts/SertifikaBilgileri.sol\":2582:2636  sertifikaBilgiListesi[_kisiAddress][_sertifikaBilgiId] */\n      dup2\n      mstore\n      0x20\n      add\n      swap1\n      dup2\n      mstore\n      0x20\n      add\n      0x00\n      keccak256\n        /* \"contracts/SertifikaBilgileri.sol\":2582:2653  sertifikaBilgiListesi[_kisiAddress][_sertifikaBilgiId].gecerlilikSuresi */\n      0x03\n      add\n      0x00\n        /* \"contracts/SertifikaBilgileri.sol\":2582:2671  sertifikaBilgiListesi[_kisiAddress][_sertifikaBilgiId].gecerlilikSuresi=_gecerlilikSuresi */\n      0x0100\n      exp\n      dup2\n      sload\n      dup2\n      0xff\n      mul\n      not\n      and\n      swap1\n      dup4\n      0xff\n      and\n      mul\n      or\n      swap1\n      sstore\n      pop\n        /* \"contracts/SertifikaBilgileri.sol\":2755:2768  _sertifikaAdi */\n      dup2\n        /* \"contracts/SertifikaBilgileri.sol\":2687:2708  sertifikaBilgiListesi */\n      0x02\n        /* \"contracts/SertifikaBilgileri.sol\":2687:2722  sertifikaBilgiListesi[_kisiAddress] */\n      0x00\n        /* \"contracts/SertifikaBilgileri.sol\":2709:2721  _kisiAddress */\n      dup9\n        /* \"contracts/SertifikaBilgileri.sol\":2687:2722  sertifikaBilgiListesi[_kisiAddress] */\n      0xffffffffffffffffffffffffffffffffffffffff\n      and\n      0xffffffffffffffffffffffffffffffffffffffff\n      and\n      dup2\n      mstore\n      0x20\n      add\n      swap1\n      dup2\n      mstore\n      0x20\n      add\n      0x00\n      keccak256\n        /* \"contracts/SertifikaBilgileri.sol\":2687:2741  sertifikaBilgiListesi[_kisiAddress][_sertifikaBilgiId] */\n      0x00\n        /* \"contracts/SertifikaBilgileri.sol\":2723:2740  _sertifikaBilgiId */\n      dup8\n        /* \"contracts/SertifikaBilgileri.sol\":2687:2741  sertifikaBilgiListesi[_kisiAddress][_sertifikaBilgiId] */\n      dup2\n      mstore\n      0x20\n      add\n      swap1\n      dup2\n      mstore\n      0x20\n      add\n      0x00\n      keccak256\n        /* \"contracts/SertifikaBilgileri.sol\":2687:2754  sertifikaBilgiListesi[_kisiAddress][_sertifikaBilgiId].sertifikaAdi */\n      0x04\n      add\n        /* \"contracts/SertifikaBilgileri.sol\":2687:2768  sertifikaBilgiListesi[_kisiAddress][_sertifikaBilgiId].sertifikaAdi=_sertifikaAdi */\n      swap1\n      dup1\n      mload\n      swap1\n      0x20\n      add\n      swap1\n      tag_62\n      swap3\n      swap2\n      swap1\n      tag_63\n      jump\t// in\n    tag_62:\n      pop\n        /* \"contracts/SertifikaBilgileri.sol\":2864:2883  OnayDurum.Onaylandi */\n      0x01\n        /* \"contracts/SertifikaBilgileri.sol\":2793:2814  sertifikaBilgiListesi */\n      0x02\n        /* \"contracts/SertifikaBilgileri.sol\":2793:2828  sertifikaBilgiListesi[_kisiAddress] */\n      0x00\n        /* \"contracts/SertifikaBilgileri.sol\":2815:2827  _kisiAddress */\n      dup9\n        /* \"contracts/SertifikaBilgileri.sol\":2793:2828  sertifikaBilgiListesi[_kisiAddress] */\n      0xffffffffffffffffffffffffffffffffffffffff\n      and\n      0xffffffffffffffffffffffffffffffffffffffff\n      and\n      dup2\n      mstore\n      0x20\n      add\n      swap1\n      dup2\n      mstore\n      0x20\n      add\n      0x00\n      keccak256\n        /* \"contracts/SertifikaBilgileri.sol\":2793:2847  sertifikaBilgiListesi[_kisiAddress][_sertifikaBilgiId] */\n      0x00\n        /* \"contracts/SertifikaBilgileri.sol\":2829:2846  _sertifikaBilgiId */\n      dup8\n        /* \"contracts/SertifikaBilgileri.sol\":2793:2847  sertifikaBilgiListesi[_kisiAddress][_sertifikaBilgiId] */\n      dup2\n      mstore\n      0x20\n      add\n      swap1\n      dup2\n      mstore\n      0x20\n      add\n      0x00\n      keccak256\n        /* \"contracts/SertifikaBilgileri.sol\":2793:2857  sertifikaBilgiListesi[_kisiAddress][_sertifikaBilgiId].onayBilgi */\n      0x05\n      add\n        /* \"contracts/SertifikaBilgileri.sol\":2793:2863  sertifikaBilgiListesi[_kisiAddress][_sertifikaBilgiId].onayBilgi.durum */\n      0x01\n      add\n      0x14\n        /* \"contracts/SertifikaBilgileri.sol\":2793:2883  sertifikaBilgiListesi[_kisiAddress][_sertifikaBilgiId].onayBilgi.durum=OnayDurum.Onaylandi */\n      0x0100\n      exp\n      dup2\n      sload\n      dup2\n      0xff\n      mul\n      not\n      and\n      swap1\n      dup4\n      0x02\n      dup2\n      gt\n      iszero\n      tag_64\n      jumpi\n      tag_65\n      tag_39\n      jump\t// in\n    tag_65:\n    tag_64:\n      mul\n      or\n      swap1\n      sstore\n      pop\n        /* \"contracts/SertifikaBilgileri.sol\":2970:2985  block.timestamp */\n      timestamp\n        /* \"contracts/SertifikaBilgileri.sol\":2899:2920  sertifikaBilgiListesi */\n      0x02\n        /* \"contracts/SertifikaBilgileri.sol\":2899:2934  sertifikaBilgiListesi[_kisiAddress] */\n      0x00\n        /* \"contracts/SertifikaBilgileri.sol\":2921:2933  _kisiAddress */\n      dup9\n        /* \"contracts/SertifikaBilgileri.sol\":2899:2934  sertifikaBilgiListesi[_kisiAddress] */\n      0xffffffffffffffffffffffffffffffffffffffff\n      and\n      0xffffffffffffffffffffffffffffffffffffffff\n      and\n      dup2\n      mstore\n      0x20\n      add\n      swap1\n      dup2\n      mstore\n      0x20\n      add\n      0x00\n      keccak256\n        /* \"contracts/SertifikaBilgileri.sol\":2899:2953  sertifikaBilgiListesi[_kisiAddress][_sertifikaBilgiId] */\n      0x00\n        /* \"contracts/SertifikaBilgileri.sol\":2935:2952  _sertifikaBilgiId */\n      dup8\n        /* \"contracts/SertifikaBilgileri.sol\":2899:2953  sertifikaBilgiListesi[_kisiAddress][_sertifikaBilgiId] */\n      dup2\n      mstore\n      0x20\n      add\n      swap1\n      dup2\n      mstore\n      0x20\n      add\n      0x00\n      keccak256\n        /* \"contracts/SertifikaBilgileri.sol\":2899:2963  sertifikaBilgiListesi[_kisiAddress][_sertifikaBilgiId].onayBilgi */\n      0x05\n      add\n        /* \"contracts/SertifikaBilgileri.sol\":2899:2969  sertifikaBilgiListesi[_kisiAddress][_sertifikaBilgiId].onayBilgi.zaman */\n      0x00\n      add\n        /* \"contracts/SertifikaBilgileri.sol\":2899:2985  sertifikaBilgiListesi[_kisiAddress][_sertifikaBilgiId].onayBilgi.zaman=block.timestamp */\n      dup2\n      swap1\n      sstore\n      pop\n        /* \"contracts/SertifikaBilgileri.sol\":3072:3082  msg.sender */\n      caller\n        /* \"contracts/SertifikaBilgileri.sol\":3001:3022  sertifikaBilgiListesi */\n      0x02\n        /* \"contracts/SertifikaBilgileri.sol\":3001:3036  sertifikaBilgiListesi[_kisiAddress] */\n      0x00\n        /* \"contracts/SertifikaBilgileri.sol\":3023:3035  _kisiAddress */\n      dup9\n        /* \"contracts/SertifikaBilgileri.sol\":3001:3036  sertifikaBilgiListesi[_kisiAddress] */\n      0xffffffffffffffffffffffffffffffffffffffff\n      and\n      0xffffffffffffffffffffffffffffffffffffffff\n      and\n      dup2\n      mstore\n      0x20\n      add\n      swap1\n      dup2\n      mstore\n      0x20\n      add\n      0x00\n      keccak256\n        /* \"contracts/SertifikaBilgileri.sol\":3001:3055  sertifikaBilgiListesi[_kisiAddress][_sertifikaBilgiId] */\n      0x00\n        /* \"contracts/SertifikaBilgileri.sol\":3037:3054  _sertifikaBilgiId */\n      dup8\n        /* \"contracts/SertifikaBilgileri.sol\":3001:3055  sertifikaBilgiListesi[_kisiAddress][_sertifikaBilgiId] */\n      dup2\n      mstore\n      0x20\n      add\n      swap1\n      dup2\n      mstore\n      0x20\n      add\n      0x00\n      keccak256\n        /* \"contracts/SertifikaBilgileri.sol\":3001:3065  sertifikaBilgiListesi[_kisiAddress][_sertifikaBilgiId].onayBilgi */\n      0x05\n      add\n        /* \"contracts/SertifikaBilgileri.sol\":3001:3071  sertifikaBilgiListesi[_kisiAddress][_sertifikaBilgiId].onayBilgi.adres */\n      0x01\n      add\n      0x00\n        /* \"contracts/SertifikaBilgileri.sol\":3001:3082  sertifikaBilgiListesi[_kisiAddress][_sertifikaBilgiId].onayBilgi.adres=msg.sender */\n      0x0100\n      exp\n      dup2\n      sload\n      dup2\n      0xffffffffffffffffffffffffffffffffffffffff\n      mul\n      not\n      and\n      swap1\n      dup4\n      0xffffffffffffffffffffffffffffffffffffffff\n      and\n      mul\n      or\n      swap1\n      sstore\n      pop\n        /* \"contracts/SertifikaBilgileri.sol\":3106:3183  SertifikaGuncellendiLog(_sertifikaBilgiId,  _alinanTarih,  _gecerlilikSuresi) */\n      0xf9f415b36bab00ec7ce2b6169fba48d979ac445d0b84e81be942439e3b492981\n        /* \"contracts/SertifikaBilgileri.sol\":3130:3147  _sertifikaBilgiId */\n      dup6\n        /* \"contracts/SertifikaBilgileri.sol\":3150:3162  _alinanTarih */\n      dup6\n        /* \"contracts/SertifikaBilgileri.sol\":3165:3182  _gecerlilikSuresi */\n      dup6\n        /* \"contracts/SertifikaBilgileri.sol\":3106:3183  SertifikaGuncellendiLog(_sertifikaBilgiId,  _alinanTarih,  _gecerlilikSuresi) */\n      mload(0x40)\n      tag_66\n      swap4\n      swap3\n      swap2\n      swap1\n      tag_67\n      jump\t// in\n    tag_66:\n      mload(0x40)\n      dup1\n      swap2\n      sub\n      swap1\n      log1\n        /* \"contracts/SertifikaBilgileri.sol\":3209:3226  _sertifikaBilgiId */\n      dup5\n        /* \"contracts/SertifikaBilgileri.sol\":3202:3226  return _sertifikaBilgiId */\n      swap1\n      pop\n        /* \"contracts/SertifikaBilgileri.sol\":2178:3240  function guncelleSertifikaBilgi(address _kisiAddress, uint _sertifikaBilgiId, uint _alinanTarih, uint8 _gecerlilikSuresi, string memory _sertifikaAdi) public _yetkiliPaydas returns(uint){\r... */\n      swap6\n      swap5\n      pop\n      pop\n      pop\n      pop\n      pop\n      jump\t// out\n        /* \"contracts/SertifikaBilgileri.sol\":1270:2166  function ekleSertifikaBilgi(address _kisiAddress, uint _alinanTarih, uint8 _gecerlilikSuresi, string memory _sertifikaAdi) public _yetkiliPaydas{\r... */\n    tag_23:\n        /* \"contracts/SertifikaBilgileri.sol\":988:1000  baseContract */\n      0x01\n      0x00\n      swap1\n      sload\n      swap1\n      0x0100\n      exp\n      swap1\n      div\n      0xffffffffffffffffffffffffffffffffffffffff\n      and\n        /* \"contracts/SertifikaBilgileri.sol\":988:1019  baseContract.isSertifikaMerkezi */\n      0xffffffffffffffffffffffffffffffffffffffff\n      and\n      0xe24047ca\n        /* \"contracts/SertifikaBilgileri.sol\":1020:1030  msg.sender */\n      caller\n        /* \"contracts/SertifikaBilgileri.sol\":988:1031  baseContract.isSertifikaMerkezi(msg.sender) */\n      mload(0x40)\n      dup3\n      0xffffffff\n      and\n      0xe0\n      shl\n      dup2\n      mstore\n      0x04\n      add\n      tag_69\n      swap2\n      swap1\n      tag_44\n      jump\t// in\n    tag_69:\n      0x20\n      mload(0x40)\n      dup1\n      dup4\n      sub\n      dup2\n      dup7\n      dup1\n      extcodesize\n      iszero\n      dup1\n      iszero\n      tag_70\n      jumpi\n      0x00\n      dup1\n      revert\n    tag_70:\n      pop\n      gas\n      staticcall\n      iszero\n      dup1\n      iszero\n      tag_72\n      jumpi\n      returndatasize\n      0x00\n      dup1\n      returndatacopy\n      revert(0x00, returndatasize)\n    tag_72:\n      pop\n      pop\n      pop\n      pop\n      mload(0x40)\n      returndatasize\n      not(0x1f)\n      0x1f\n      dup3\n      add\n      and\n      dup3\n      add\n      dup1\n      0x40\n      mstore\n      pop\n      dup2\n      add\n      swap1\n      tag_73\n      swap2\n      swap1\n      tag_49\n      jump\t// in\n    tag_73:\n        /* \"contracts/SertifikaBilgileri.sol\":980:1093  require(baseContract.isSertifikaMerkezi(msg.sender),\r... */\n      tag_74\n      jumpi\n      mload(0x40)\n      0x08c379a000000000000000000000000000000000000000000000000000000000\n      dup2\n      mstore\n      0x04\n      add\n      tag_75\n      swap1\n      tag_52\n      jump\t// in\n    tag_75:\n      mload(0x40)\n      dup1\n      swap2\n      sub\n      swap1\n      revert\n    tag_74:\n        /* \"contracts/SertifikaBilgileri.sol\":1437:1449  baseContract */\n      0x01\n      0x00\n      swap1\n      sload\n      swap1\n      0x0100\n      exp\n      swap1\n      div\n      0xffffffffffffffffffffffffffffffffffffffff\n      and\n        /* \"contracts/SertifikaBilgileri.sol\":1437:1456  baseContract.isKisi */\n      0xffffffffffffffffffffffffffffffffffffffff\n      and\n      0xb98ccefd\n        /* \"contracts/SertifikaBilgileri.sol\":1457:1469  _kisiAddress */\n      dup6\n        /* \"contracts/SertifikaBilgileri.sol\":1437:1470  baseContract.isKisi(_kisiAddress) */\n      mload(0x40)\n      dup3\n      0xffffffff\n      and\n      0xe0\n      shl\n      dup2\n      mstore\n      0x04\n      add\n      tag_77\n      swap2\n      swap1\n      tag_44\n      jump\t// in\n    tag_77:\n      0x20\n      mload(0x40)\n      dup1\n      dup4\n      sub\n      dup2\n      dup7\n      dup1\n      extcodesize\n      iszero\n      dup1\n      iszero\n      tag_78\n      jumpi\n      0x00\n      dup1\n      revert\n    tag_78:\n      pop\n      gas\n      staticcall\n      iszero\n      dup1\n      iszero\n      tag_80\n      jumpi\n      returndatasize\n      0x00\n      dup1\n      returndatacopy\n      revert(0x00, returndatasize)\n    tag_80:\n      pop\n      pop\n      pop\n      pop\n      mload(0x40)\n      returndatasize\n      not(0x1f)\n      0x1f\n      dup3\n      add\n      and\n      dup3\n      add\n      dup1\n      0x40\n      mstore\n      pop\n      dup2\n      add\n      swap1\n      tag_81\n      swap2\n      swap1\n      tag_49\n      jump\t// in\n    tag_81:\n        /* \"contracts/SertifikaBilgileri.sol\":1429:1489  require(baseContract.isKisi(_kisiAddress),\"Kisi bulunamadi\") */\n      tag_82\n      jumpi\n      mload(0x40)\n      0x08c379a000000000000000000000000000000000000000000000000000000000\n      dup2\n      mstore\n      0x04\n      add\n      tag_83\n      swap1\n      tag_61\n      jump\t// in\n    tag_83:\n      mload(0x40)\n      dup1\n      swap2\n      sub\n      swap1\n      revert\n    tag_82:\n        /* \"contracts/SertifikaBilgileri.sol\":1519:1530  uint yeniId */\n      0x00\n        /* \"contracts/SertifikaBilgileri.sol\":1531:1533  id */\n      dup1\n      0x00\n        /* \"contracts/SertifikaBilgileri.sol\":1531:1535  id++ */\n      dup2\n      sload\n      dup1\n      swap3\n      swap2\n      swap1\n      tag_84\n      swap1\n      tag_85\n      jump\t// in\n    tag_84:\n      swap2\n      swap1\n      pop\n      sstore\n        /* \"contracts/SertifikaBilgileri.sol\":1519:1535  uint yeniId=id++ */\n      swap1\n      pop\n        /* \"contracts/SertifikaBilgileri.sol\":1607:1619  _alinanTarih */\n      dup4\n        /* \"contracts/SertifikaBilgileri.sol\":1551:1572  sertifikaBilgiListesi */\n      0x02\n        /* \"contracts/SertifikaBilgileri.sol\":1551:1586  sertifikaBilgiListesi[_kisiAddress] */\n      0x00\n        /* \"contracts/SertifikaBilgileri.sol\":1573:1585  _kisiAddress */\n      dup8\n        /* \"contracts/SertifikaBilgileri.sol\":1551:1586  sertifikaBilgiListesi[_kisiAddress] */\n      0xffffffffffffffffffffffffffffffffffffffff\n      and\n      0xffffffffffffffffffffffffffffffffffffffff\n      and\n      dup2\n      mstore\n      0x20\n      add\n      swap1\n      dup2\n      mstore\n      0x20\n      add\n      0x00\n      keccak256\n        /* \"contracts/SertifikaBilgileri.sol\":1551:1594  sertifikaBilgiListesi[_kisiAddress][yeniId] */\n      0x00\n        /* \"contracts/SertifikaBilgileri.sol\":1587:1593  yeniId */\n      dup4\n        /* \"contracts/SertifikaBilgileri.sol\":1551:1594  sertifikaBilgiListesi[_kisiAddress][yeniId] */\n      dup2\n      mstore\n      0x20\n      add\n      swap1\n      dup2\n      mstore\n      0x20\n      add\n      0x00\n      keccak256\n        /* \"contracts/SertifikaBilgileri.sol\":1551:1606  sertifikaBilgiListesi[_kisiAddress][yeniId].alinanTarih */\n      0x02\n      add\n        /* \"contracts/SertifikaBilgileri.sol\":1551:1619  sertifikaBilgiListesi[_kisiAddress][yeniId].alinanTarih=_alinanTarih */\n      dup2\n      swap1\n      sstore\n      pop\n        /* \"contracts/SertifikaBilgileri.sol\":1696:1713  _gecerlilikSuresi */\n      dup3\n        /* \"contracts/SertifikaBilgileri.sol\":1635:1656  sertifikaBilgiListesi */\n      0x02\n        /* \"contracts/SertifikaBilgileri.sol\":1635:1670  sertifikaBilgiListesi[_kisiAddress] */\n      0x00\n        /* \"contracts/SertifikaBilgileri.sol\":1657:1669  _kisiAddress */\n      dup8\n        /* \"contracts/SertifikaBilgileri.sol\":1635:1670  sertifikaBilgiListesi[_kisiAddress] */\n      0xffffffffffffffffffffffffffffffffffffffff\n      and\n      0xffffffffffffffffffffffffffffffffffffffff\n      and\n      dup2\n      mstore\n      0x20\n      add\n      swap1\n      dup2\n      mstore\n      0x20\n      add\n      0x00\n      keccak256\n        /* \"contracts/SertifikaBilgileri.sol\":1635:1678  sertifikaBilgiListesi[_kisiAddress][yeniId] */\n      0x00\n        /* \"contracts/SertifikaBilgileri.sol\":1671:1677  yeniId */\n      dup4\n        /* \"contracts/SertifikaBilgileri.sol\":1635:1678  sertifikaBilgiListesi[_kisiAddress][yeniId] */\n      dup2\n      mstore\n      0x20\n      add\n      swap1\n      dup2\n      mstore\n      0x20\n      add\n      0x00\n      keccak256\n        /* \"contracts/SertifikaBilgileri.sol\":1635:1695  sertifikaBilgiListesi[_kisiAddress][yeniId].gecerlilikSuresi */\n      0x03\n      add\n      0x00\n        /* \"contracts/SertifikaBilgileri.sol\":1635:1713  sertifikaBilgiListesi[_kisiAddress][yeniId].gecerlilikSuresi=_gecerlilikSuresi */\n      0x0100\n      exp\n      dup2\n      sload\n      dup2\n      0xff\n      mul\n      not\n      and\n      swap1\n      dup4\n      0xff\n      and\n      mul\n      or\n      swap1\n      sstore\n      pop\n        /* \"contracts/SertifikaBilgileri.sol\":1786:1799  _sertifikaAdi */\n      dup2\n        /* \"contracts/SertifikaBilgileri.sol\":1729:1750  sertifikaBilgiListesi */\n      0x02\n        /* \"contracts/SertifikaBilgileri.sol\":1729:1764  sertifikaBilgiListesi[_kisiAddress] */\n      0x00\n        /* \"contracts/SertifikaBilgileri.sol\":1751:1763  _kisiAddress */\n      dup8\n        /* \"contracts/SertifikaBilgileri.sol\":1729:1764  sertifikaBilgiListesi[_kisiAddress] */\n      0xffffffffffffffffffffffffffffffffffffffff\n      and\n      0xffffffffffffffffffffffffffffffffffffffff\n      and\n      dup2\n      mstore\n      0x20\n      add\n      swap1\n      dup2\n      mstore\n      0x20\n      add\n      0x00\n      keccak256\n        /* \"contracts/SertifikaBilgileri.sol\":1729:1772  sertifikaBilgiListesi[_kisiAddress][yeniId] */\n      0x00\n        /* \"contracts/SertifikaBilgileri.sol\":1765:1771  yeniId */\n      dup4\n        /* \"contracts/SertifikaBilgileri.sol\":1729:1772  sertifikaBilgiListesi[_kisiAddress][yeniId] */\n      dup2\n      mstore\n      0x20\n      add\n      swap1\n      dup2\n      mstore\n      0x20\n      add\n      0x00\n      keccak256\n        /* \"contracts/SertifikaBilgileri.sol\":1729:1785  sertifikaBilgiListesi[_kisiAddress][yeniId].sertifikaAdi */\n      0x04\n      add\n        /* \"contracts/SertifikaBilgileri.sol\":1729:1799  sertifikaBilgiListesi[_kisiAddress][yeniId].sertifikaAdi=_sertifikaAdi */\n      swap1\n      dup1\n      mload\n      swap1\n      0x20\n      add\n      swap1\n      tag_86\n      swap3\n      swap2\n      swap1\n      tag_63\n      jump\t// in\n    tag_86:\n      pop\n        /* \"contracts/SertifikaBilgileri.sol\":1875:1894  OnayDurum.Onaylandi */\n      0x01\n        /* \"contracts/SertifikaBilgileri.sol\":1815:1836  sertifikaBilgiListesi */\n      0x02\n        /* \"contracts/SertifikaBilgileri.sol\":1815:1850  sertifikaBilgiListesi[_kisiAddress] */\n      0x00\n        /* \"contracts/SertifikaBilgileri.sol\":1837:1849  _kisiAddress */\n      dup8\n        /* \"contracts/SertifikaBilgileri.sol\":1815:1850  sertifikaBilgiListesi[_kisiAddress] */\n      0xffffffffffffffffffffffffffffffffffffffff\n      and\n      0xffffffffffffffffffffffffffffffffffffffff\n      and\n      dup2\n      mstore\n      0x20\n      add\n      swap1\n      dup2\n      mstore\n      0x20\n      add\n      0x00\n      keccak256\n        /* \"contracts/SertifikaBilgileri.sol\":1815:1858  sertifikaBilgiListesi[_kisiAddress][yeniId] */\n      0x00\n        /* \"contracts/SertifikaBilgileri.sol\":1851:1857  yeniId */\n      dup4\n        /* \"contracts/SertifikaBilgileri.sol\":1815:1858  sertifikaBilgiListesi[_kisiAddress][yeniId] */\n      dup2\n      mstore\n      0x20\n      add\n      swap1\n      dup2\n      mstore\n      0x20\n      add\n      0x00\n      keccak256\n        /* \"contracts/SertifikaBilgileri.sol\":1815:1868  sertifikaBilgiListesi[_kisiAddress][yeniId].onayBilgi */\n      0x05\n      add\n        /* \"contracts/SertifikaBilgileri.sol\":1815:1874  sertifikaBilgiListesi[_kisiAddress][yeniId].onayBilgi.durum */\n      0x01\n      add\n      0x14\n        /* \"contracts/SertifikaBilgileri.sol\":1815:1894  sertifikaBilgiListesi[_kisiAddress][yeniId].onayBilgi.durum=OnayDurum.Onaylandi */\n      0x0100\n      exp\n      dup2\n      sload\n      dup2\n      0xff\n      mul\n      not\n      and\n      swap1\n      dup4\n      0x02\n      dup2\n      gt\n      iszero\n      tag_87\n      jumpi\n      tag_88\n      tag_39\n      jump\t// in\n    tag_88:\n    tag_87:\n      mul\n      or\n      swap1\n      sstore\n      pop\n        /* \"contracts/SertifikaBilgileri.sol\":1970:1985  block.timestamp */\n      timestamp\n        /* \"contracts/SertifikaBilgileri.sol\":1910:1931  sertifikaBilgiListesi */\n      0x02\n        /* \"contracts/SertifikaBilgileri.sol\":1910:1945  sertifikaBilgiListesi[_kisiAddress] */\n      0x00\n        /* \"contracts/SertifikaBilgileri.sol\":1932:1944  _kisiAddress */\n      dup8\n        /* \"contracts/SertifikaBilgileri.sol\":1910:1945  sertifikaBilgiListesi[_kisiAddress] */\n      0xffffffffffffffffffffffffffffffffffffffff\n      and\n      0xffffffffffffffffffffffffffffffffffffffff\n      and\n      dup2\n      mstore\n      0x20\n      add\n      swap1\n      dup2\n      mstore\n      0x20\n      add\n      0x00\n      keccak256\n        /* \"contracts/SertifikaBilgileri.sol\":1910:1953  sertifikaBilgiListesi[_kisiAddress][yeniId] */\n      0x00\n        /* \"contracts/SertifikaBilgileri.sol\":1946:1952  yeniId */\n      dup4\n        /* \"contracts/SertifikaBilgileri.sol\":1910:1953  sertifikaBilgiListesi[_kisiAddress][yeniId] */\n      dup2\n      mstore\n      0x20\n      add\n      swap1\n      dup2\n      mstore\n      0x20\n      add\n      0x00\n      keccak256\n        /* \"contracts/SertifikaBilgileri.sol\":1910:1963  sertifikaBilgiListesi[_kisiAddress][yeniId].onayBilgi */\n      0x05\n      add\n        /* \"contracts/SertifikaBilgileri.sol\":1910:1969  sertifikaBilgiListesi[_kisiAddress][yeniId].onayBilgi.zaman */\n      0x00\n      add\n        /* \"contracts/SertifikaBilgileri.sol\":1910:1985  sertifikaBilgiListesi[_kisiAddress][yeniId].onayBilgi.zaman=block.timestamp */\n      dup2\n      swap1\n      sstore\n      pop\n        /* \"contracts/SertifikaBilgileri.sol\":2061:2071  msg.sender */\n      caller\n        /* \"contracts/SertifikaBilgileri.sol\":2001:2022  sertifikaBilgiListesi */\n      0x02\n        /* \"contracts/SertifikaBilgileri.sol\":2001:2036  sertifikaBilgiListesi[_kisiAddress] */\n      0x00\n        /* \"contracts/SertifikaBilgileri.sol\":2023:2035  _kisiAddress */\n      dup8\n        /* \"contracts/SertifikaBilgileri.sol\":2001:2036  sertifikaBilgiListesi[_kisiAddress] */\n      0xffffffffffffffffffffffffffffffffffffffff\n      and\n      0xffffffffffffffffffffffffffffffffffffffff\n      and\n      dup2\n      mstore\n      0x20\n      add\n      swap1\n      dup2\n      mstore\n      0x20\n      add\n      0x00\n      keccak256\n        /* \"contracts/SertifikaBilgileri.sol\":2001:2044  sertifikaBilgiListesi[_kisiAddress][yeniId] */\n      0x00\n        /* \"contracts/SertifikaBilgileri.sol\":2037:2043  yeniId */\n      dup4\n        /* \"contracts/SertifikaBilgileri.sol\":2001:2044  sertifikaBilgiListesi[_kisiAddress][yeniId] */\n      dup2\n      mstore\n      0x20\n      add\n      swap1\n      dup2\n      mstore\n      0x20\n      add\n      0x00\n      keccak256\n        /* \"contracts/SertifikaBilgileri.sol\":2001:2054  sertifikaBilgiListesi[_kisiAddress][yeniId].onayBilgi */\n      0x05\n      add\n        /* \"contracts/SertifikaBilgileri.sol\":2001:2060  sertifikaBilgiListesi[_kisiAddress][yeniId].onayBilgi.adres */\n      0x01\n      add\n      0x00\n        /* \"contracts/SertifikaBilgileri.sol\":2001:2071  sertifikaBilgiListesi[_kisiAddress][yeniId].onayBilgi.adres=msg.sender */\n      0x0100\n      exp\n      dup2\n      sload\n      dup2\n      0xffffffffffffffffffffffffffffffffffffffff\n      mul\n      not\n      and\n      swap1\n      dup4\n      0xffffffffffffffffffffffffffffffffffffffff\n      and\n      mul\n      or\n      swap1\n      sstore\n      pop\n        /* \"contracts/SertifikaBilgileri.sol\":2094:2154  SertifikaEklendiLog(yeniId, _alinanTarih, _gecerlilikSuresi) */\n      0x054b623f8c9e4f82dabe9fa4dcda7698d2759c99c1646c278deec0bc70c6f76c\n        /* \"contracts/SertifikaBilgileri.sol\":2114:2120  yeniId */\n      dup2\n        /* \"contracts/SertifikaBilgileri.sol\":2122:2134  _alinanTarih */\n      dup6\n        /* \"contracts/SertifikaBilgileri.sol\":2136:2153  _gecerlilikSuresi */\n      dup6\n        /* \"contracts/SertifikaBilgileri.sol\":2094:2154  SertifikaEklendiLog(yeniId, _alinanTarih, _gecerlilikSuresi) */\n      mload(0x40)\n      tag_89\n      swap4\n      swap3\n      swap2\n      swap1\n      tag_67\n      jump\t// in\n    tag_89:\n      mload(0x40)\n      dup1\n      swap2\n      sub\n      swap1\n      log1\n        /* \"contracts/SertifikaBilgileri.sol\":1414:2166  {\r... */\n      pop\n        /* \"contracts/SertifikaBilgileri.sol\":1270:2166  function ekleSertifikaBilgi(address _kisiAddress, uint _alinanTarih, uint8 _gecerlilikSuresi, string memory _sertifikaAdi) public _yetkiliPaydas{\r... */\n      pop\n      pop\n      pop\n      pop\n      jump\t// out\n        /* \"contracts/SertifikaBilgileri.sol\":184:198  uint public id */\n    tag_25:\n      sload(0x00)\n      dup2\n      jump\t// out\n        /* \"contracts/SertifikaBilgileri.sol\":3261:4100  function talepEtSertifikaBilgi(address _kisiAddress,address _talepEdilenKurum, uint _alinanTarih, uint8 _gecerlilikSuresi, string memory _sertifikaAdi) public {\r... */\n    tag_30:\n        /* \"contracts/SertifikaBilgileri.sol\":3444:3456  baseContract */\n      0x01\n      0x00\n      swap1\n      sload\n      swap1\n      0x0100\n      exp\n      swap1\n      div\n      0xffffffffffffffffffffffffffffffffffffffff\n      and\n        /* \"contracts/SertifikaBilgileri.sol\":3444:3463  baseContract.isKisi */\n      0xffffffffffffffffffffffffffffffffffffffff\n      and\n      0xb98ccefd\n        /* \"contracts/SertifikaBilgileri.sol\":3465:3477  _kisiAddress */\n      dup7\n        /* \"contracts/SertifikaBilgileri.sol\":3444:3478  baseContract.isKisi( _kisiAddress) */\n      mload(0x40)\n      dup3\n      0xffffffff\n      and\n      0xe0\n      shl\n      dup2\n      mstore\n      0x04\n      add\n      tag_91\n      swap2\n      swap1\n      tag_44\n      jump\t// in\n    tag_91:\n      0x20\n      mload(0x40)\n      dup1\n      dup4\n      sub\n      dup2\n      dup7\n      dup1\n      extcodesize\n      iszero\n      dup1\n      iszero\n      tag_92\n      jumpi\n      0x00\n      dup1\n      revert\n    tag_92:\n      pop\n      gas\n      staticcall\n      iszero\n      dup1\n      iszero\n      tag_94\n      jumpi\n      returndatasize\n      0x00\n      dup1\n      returndatacopy\n      revert(0x00, returndatasize)\n    tag_94:\n      pop\n      pop\n      pop\n      pop\n      mload(0x40)\n      returndatasize\n      not(0x1f)\n      0x1f\n      dup3\n      add\n      and\n      dup3\n      add\n      dup1\n      0x40\n      mstore\n      pop\n      dup2\n      add\n      swap1\n      tag_95\n      swap2\n      swap1\n      tag_49\n      jump\t// in\n    tag_95:\n        /* \"contracts/SertifikaBilgileri.sol\":3436:3499  require(baseContract.isKisi( _kisiAddress),\"Kisi mevcut degil\") */\n      tag_96\n      jumpi\n      mload(0x40)\n      0x08c379a000000000000000000000000000000000000000000000000000000000\n      dup2\n      mstore\n      0x04\n      add\n      tag_97\n      swap1\n      tag_98\n      jump\t// in\n    tag_97:\n      mload(0x40)\n      dup1\n      swap2\n      sub\n      swap1\n      revert\n    tag_96:\n        /* \"contracts/SertifikaBilgileri.sol\":3529:3540  uint yeniId */\n      0x00\n        /* \"contracts/SertifikaBilgileri.sol\":3541:3543  id */\n      dup1\n      0x00\n        /* \"contracts/SertifikaBilgileri.sol\":3541:3545  id++ */\n      dup2\n      sload\n      dup1\n      swap3\n      swap2\n      swap1\n      tag_99\n      swap1\n      tag_85\n      jump\t// in\n    tag_99:\n      swap2\n      swap1\n      pop\n      sstore\n        /* \"contracts/SertifikaBilgileri.sol\":3529:3545  uint yeniId=id++ */\n      swap1\n      pop\n        /* \"contracts/SertifikaBilgileri.sol\":3622:3639  _talepEdilenKurum */\n      dup5\n        /* \"contracts/SertifikaBilgileri.sol\":3561:3582  sertifikaBilgiListesi */\n      0x02\n        /* \"contracts/SertifikaBilgileri.sol\":3561:3596  sertifikaBilgiListesi[_kisiAddress] */\n      0x00\n        /* \"contracts/SertifikaBilgileri.sol\":3583:3595  _kisiAddress */\n      dup9\n        /* \"contracts/SertifikaBilgileri.sol\":3561:3596  sertifikaBilgiListesi[_kisiAddress] */\n      0xffffffffffffffffffffffffffffffffffffffff\n      and\n      0xffffffffffffffffffffffffffffffffffffffff\n      and\n      dup2\n      mstore\n      0x20\n      add\n      swap1\n      dup2\n      mstore\n      0x20\n      add\n      0x00\n      keccak256\n        /* \"contracts/SertifikaBilgileri.sol\":3561:3604  sertifikaBilgiListesi[_kisiAddress][yeniId] */\n      0x00\n        /* \"contracts/SertifikaBilgileri.sol\":3597:3603  yeniId */\n      dup4\n        /* \"contracts/SertifikaBilgileri.sol\":3561:3604  sertifikaBilgiListesi[_kisiAddress][yeniId] */\n      dup2\n      mstore\n      0x20\n      add\n      swap1\n      dup2\n      mstore\n      0x20\n      add\n      0x00\n      keccak256\n        /* \"contracts/SertifikaBilgileri.sol\":3561:3621  sertifikaBilgiListesi[_kisiAddress][yeniId].talepEdilenKurum */\n      0x01\n      add\n      0x00\n        /* \"contracts/SertifikaBilgileri.sol\":3561:3639  sertifikaBilgiListesi[_kisiAddress][yeniId].talepEdilenKurum=_talepEdilenKurum */\n      0x0100\n      exp\n      dup2\n      sload\n      dup2\n      0xffffffffffffffffffffffffffffffffffffffff\n      mul\n      not\n      and\n      swap1\n      dup4\n      0xffffffffffffffffffffffffffffffffffffffff\n      and\n      mul\n      or\n      swap1\n      sstore\n      pop\n        /* \"contracts/SertifikaBilgileri.sol\":3711:3723  _alinanTarih */\n      dup4\n        /* \"contracts/SertifikaBilgileri.sol\":3655:3676  sertifikaBilgiListesi */\n      0x02\n        /* \"contracts/SertifikaBilgileri.sol\":3655:3690  sertifikaBilgiListesi[_kisiAddress] */\n      0x00\n        /* \"contracts/SertifikaBilgileri.sol\":3677:3689  _kisiAddress */\n      dup9\n        /* \"contracts/SertifikaBilgileri.sol\":3655:3690  sertifikaBilgiListesi[_kisiAddress] */\n      0xffffffffffffffffffffffffffffffffffffffff\n      and\n      0xffffffffffffffffffffffffffffffffffffffff\n      and\n      dup2\n      mstore\n      0x20\n      add\n      swap1\n      dup2\n      mstore\n      0x20\n      add\n      0x00\n      keccak256\n        /* \"contracts/SertifikaBilgileri.sol\":3655:3698  sertifikaBilgiListesi[_kisiAddress][yeniId] */\n      0x00\n        /* \"contracts/SertifikaBilgileri.sol\":3691:3697  yeniId */\n      dup4\n        /* \"contracts/SertifikaBilgileri.sol\":3655:3698  sertifikaBilgiListesi[_kisiAddress][yeniId] */\n      dup2\n      mstore\n      0x20\n      add\n      swap1\n      dup2\n      mstore\n      0x20\n      add\n      0x00\n      keccak256\n        /* \"contracts/SertifikaBilgileri.sol\":3655:3710  sertifikaBilgiListesi[_kisiAddress][yeniId].alinanTarih */\n      0x02\n      add\n        /* \"contracts/SertifikaBilgileri.sol\":3655:3723  sertifikaBilgiListesi[_kisiAddress][yeniId].alinanTarih=_alinanTarih */\n      dup2\n      swap1\n      sstore\n      pop\n        /* \"contracts/SertifikaBilgileri.sol\":3800:3817  _gecerlilikSuresi */\n      dup3\n        /* \"contracts/SertifikaBilgileri.sol\":3739:3760  sertifikaBilgiListesi */\n      0x02\n        /* \"contracts/SertifikaBilgileri.sol\":3739:3774  sertifikaBilgiListesi[_kisiAddress] */\n      0x00\n        /* \"contracts/SertifikaBilgileri.sol\":3761:3773  _kisiAddress */\n      dup9\n        /* \"contracts/SertifikaBilgileri.sol\":3739:3774  sertifikaBilgiListesi[_kisiAddress] */\n      0xffffffffffffffffffffffffffffffffffffffff\n      and\n      0xffffffffffffffffffffffffffffffffffffffff\n      and\n      dup2\n      mstore\n      0x20\n      add\n      swap1\n      dup2\n      mstore\n      0x20\n      add\n      0x00\n      keccak256\n        /* \"contracts/SertifikaBilgileri.sol\":3739:3782  sertifikaBilgiListesi[_kisiAddress][yeniId] */\n      0x00\n        /* \"contracts/SertifikaBilgileri.sol\":3775:3781  yeniId */\n      dup4\n        /* \"contracts/SertifikaBilgileri.sol\":3739:3782  sertifikaBilgiListesi[_kisiAddress][yeniId] */\n      dup2\n      mstore\n      0x20\n      add\n      swap1\n      dup2\n      mstore\n      0x20\n      add\n      0x00\n      keccak256\n        /* \"contracts/SertifikaBilgileri.sol\":3739:3799  sertifikaBilgiListesi[_kisiAddress][yeniId].gecerlilikSuresi */\n      0x03\n      add\n      0x00\n        /* \"contracts/SertifikaBilgileri.sol\":3739:3817  sertifikaBilgiListesi[_kisiAddress][yeniId].gecerlilikSuresi=_gecerlilikSuresi */\n      0x0100\n      exp\n      dup2\n      sload\n      dup2\n      0xff\n      mul\n      not\n      and\n      swap1\n      dup4\n      0xff\n      and\n      mul\n      or\n      swap1\n      sstore\n      pop\n        /* \"contracts/SertifikaBilgileri.sol\":3890:3903  _sertifikaAdi */\n      dup2\n        /* \"contracts/SertifikaBilgileri.sol\":3833:3854  sertifikaBilgiListesi */\n      0x02\n        /* \"contracts/SertifikaBilgileri.sol\":3833:3868  sertifikaBilgiListesi[_kisiAddress] */\n      0x00\n        /* \"contracts/SertifikaBilgileri.sol\":3855:3867  _kisiAddress */\n      dup9\n        /* \"contracts/SertifikaBilgileri.sol\":3833:3868  sertifikaBilgiListesi[_kisiAddress] */\n      0xffffffffffffffffffffffffffffffffffffffff\n      and\n      0xffffffffffffffffffffffffffffffffffffffff\n      and\n      dup2\n      mstore\n      0x20\n      add\n      swap1\n      dup2\n      mstore\n      0x20\n      add\n      0x00\n      keccak256\n        /* \"contracts/SertifikaBilgileri.sol\":3833:3876  sertifikaBilgiListesi[_kisiAddress][yeniId] */\n      0x00\n        /* \"contracts/SertifikaBilgileri.sol\":3869:3875  yeniId */\n      dup4\n        /* \"contracts/SertifikaBilgileri.sol\":3833:3876  sertifikaBilgiListesi[_kisiAddress][yeniId] */\n      dup2\n      mstore\n      0x20\n      add\n      swap1\n      dup2\n      mstore\n      0x20\n      add\n      0x00\n      keccak256\n        /* \"contracts/SertifikaBilgileri.sol\":3833:3889  sertifikaBilgiListesi[_kisiAddress][yeniId].sertifikaAdi */\n      0x04\n      add\n        /* \"contracts/SertifikaBilgileri.sol\":3833:3903  sertifikaBilgiListesi[_kisiAddress][yeniId].sertifikaAdi=_sertifikaAdi */\n      swap1\n      dup1\n      mload\n      swap1\n      0x20\n      add\n      swap1\n      tag_100\n      swap3\n      swap2\n      swap1\n      tag_63\n      jump\t// in\n    tag_100:\n      pop\n        /* \"contracts/SertifikaBilgileri.sol\":3979:4001  OnayDurum.OnayBekliyor */\n      0x00\n        /* \"contracts/SertifikaBilgileri.sol\":3919:3940  sertifikaBilgiListesi */\n      0x02\n        /* \"contracts/SertifikaBilgileri.sol\":3919:3954  sertifikaBilgiListesi[_kisiAddress] */\n      0x00\n        /* \"contracts/SertifikaBilgileri.sol\":3941:3953  _kisiAddress */\n      dup9\n        /* \"contracts/SertifikaBilgileri.sol\":3919:3954  sertifikaBilgiListesi[_kisiAddress] */\n      0xffffffffffffffffffffffffffffffffffffffff\n      and\n      0xffffffffffffffffffffffffffffffffffffffff\n      and\n      dup2\n      mstore\n      0x20\n      add\n      swap1\n      dup2\n      mstore\n      0x20\n      add\n      0x00\n      keccak256\n        /* \"contracts/SertifikaBilgileri.sol\":3919:3962  sertifikaBilgiListesi[_kisiAddress][yeniId] */\n      0x00\n        /* \"contracts/SertifikaBilgileri.sol\":3955:3961  yeniId */\n      dup4\n        /* \"contracts/SertifikaBilgileri.sol\":3919:3962  sertifikaBilgiListesi[_kisiAddress][yeniId] */\n      dup2\n      mstore\n      0x20\n      add\n      swap1\n      dup2\n      mstore\n      0x20\n      add\n      0x00\n      keccak256\n        /* \"contracts/SertifikaBilgileri.sol\":3919:3972  sertifikaBilgiListesi[_kisiAddress][yeniId].onayBilgi */\n      0x05\n      add\n        /* \"contracts/SertifikaBilgileri.sol\":3919:3978  sertifikaBilgiListesi[_kisiAddress][yeniId].onayBilgi.durum */\n      0x01\n      add\n      0x14\n        /* \"contracts/SertifikaBilgileri.sol\":3919:4001  sertifikaBilgiListesi[_kisiAddress][yeniId].onayBilgi.durum=OnayDurum.OnayBekliyor */\n      0x0100\n      exp\n      dup2\n      sload\n      dup2\n      0xff\n      mul\n      not\n      and\n      swap1\n      dup4\n      0x02\n      dup2\n      gt\n      iszero\n      tag_101\n      jumpi\n      tag_102\n      tag_39\n      jump\t// in\n    tag_102:\n    tag_101:\n      mul\n      or\n      swap1\n      sstore\n      pop\n        /* \"contracts/SertifikaBilgileri.sol\":4024:4088  SertifikaTalepEdildiLog(yeniId, _alinanTarih, _gecerlilikSuresi) */\n      0xdaf544d55f2b0d82bd37254f81a5f6f0d8709dbdf56a68c8566d3e1fcb159fb7\n        /* \"contracts/SertifikaBilgileri.sol\":4048:4054  yeniId */\n      dup2\n        /* \"contracts/SertifikaBilgileri.sol\":4056:4068  _alinanTarih */\n      dup6\n        /* \"contracts/SertifikaBilgileri.sol\":4070:4087  _gecerlilikSuresi */\n      dup6\n        /* \"contracts/SertifikaBilgileri.sol\":4024:4088  SertifikaTalepEdildiLog(yeniId, _alinanTarih, _gecerlilikSuresi) */\n      mload(0x40)\n      tag_103\n      swap4\n      swap3\n      swap2\n      swap1\n      tag_67\n      jump\t// in\n    tag_103:\n      mload(0x40)\n      dup1\n      swap2\n      sub\n      swap1\n      log1\n        /* \"contracts/SertifikaBilgileri.sol\":3420:4100  {\r... */\n      pop\n        /* \"contracts/SertifikaBilgileri.sol\":3261:4100  function talepEtSertifikaBilgi(address _kisiAddress,address _talepEdilenKurum, uint _alinanTarih, uint8 _gecerlilikSuresi, string memory _sertifikaAdi) public {\r... */\n      pop\n      pop\n      pop\n      pop\n      pop\n      jump\t// out\n    tag_63:\n      dup3\n      dup1\n      sload\n      tag_104\n      swap1\n      tag_32\n      jump\t// in\n    tag_104:\n      swap1\n      0x00\n      mstore\n      keccak256(0x00, 0x20)\n      swap1\n      0x1f\n      add\n      0x20\n      swap1\n      div\n      dup2\n      add\n      swap3\n      dup3\n      tag_106\n      jumpi\n      0x00\n      dup6\n      sstore\n      jump(tag_105)\n    tag_106:\n      dup3\n      0x1f\n      lt\n      tag_107\n      jumpi\n      dup1\n      mload\n      not(0xff)\n      and\n      dup4\n      dup1\n      add\n      or\n      dup6\n      sstore\n      jump(tag_105)\n    tag_107:\n      dup3\n      dup1\n      add\n      0x01\n      add\n      dup6\n      sstore\n      dup3\n      iszero\n      tag_105\n      jumpi\n      swap2\n      dup3\n      add\n    tag_108:\n      dup3\n      dup2\n      gt\n      iszero\n      tag_109\n      jumpi\n      dup3\n      mload\n      dup3\n      sstore\n      swap2\n      0x20\n      add\n      swap2\n      swap1\n      0x01\n      add\n      swap1\n      jump(tag_108)\n    tag_109:\n    tag_105:\n      pop\n      swap1\n      pop\n      tag_110\n      swap2\n      swap1\n      tag_111\n      jump\t// in\n    tag_110:\n      pop\n      swap1\n      jump\t// out\n    tag_111:\n    tag_112:\n      dup1\n      dup3\n      gt\n      iszero\n      tag_113\n      jumpi\n      0x00\n      dup2\n      0x00\n      swap1\n      sstore\n      pop\n      0x01\n      add\n      jump(tag_112)\n    tag_113:\n      pop\n      swap1\n      jump\t// out\n        /* \"#utility.yul\":7:419   */\n    tag_115:\n        /* \"#utility.yul\":85:90   */\n      0x00\n        /* \"#utility.yul\":110:176   */\n      tag_117\n        /* \"#utility.yul\":126:175   */\n      tag_118\n        /* \"#utility.yul\":168:174   */\n      dup5\n        /* \"#utility.yul\":126:175   */\n      tag_119\n      jump\t// in\n    tag_118:\n        /* \"#utility.yul\":110:176   */\n      tag_120\n      jump\t// in\n    tag_117:\n        /* \"#utility.yul\":101:176   */\n      swap1\n      pop\n        /* \"#utility.yul\":199:205   */\n      dup3\n        /* \"#utility.yul\":192:197   */\n      dup2\n        /* \"#utility.yul\":185:206   */\n      mstore\n        /* \"#utility.yul\":237:241   */\n      0x20\n        /* \"#utility.yul\":230:235   */\n      dup2\n        /* \"#utility.yul\":226:242   */\n      add\n        /* \"#utility.yul\":275:278   */\n      dup5\n        /* \"#utility.yul\":266:272   */\n      dup5\n        /* \"#utility.yul\":261:264   */\n      dup5\n        /* \"#utility.yul\":257:273   */\n      add\n        /* \"#utility.yul\":254:279   */\n      gt\n        /* \"#utility.yul\":251:363   */\n      iszero\n      tag_121\n      jumpi\n        /* \"#utility.yul\":282:361   */\n      tag_122\n      tag_123\n      jump\t// in\n    tag_122:\n        /* \"#utility.yul\":251:363   */\n    tag_121:\n        /* \"#utility.yul\":372:413   */\n      tag_124\n        /* \"#utility.yul\":406:412   */\n      dup5\n        /* \"#utility.yul\":401:404   */\n      dup3\n        /* \"#utility.yul\":396:399   */\n      dup6\n        /* \"#utility.yul\":372:413   */\n      tag_125\n      jump\t// in\n    tag_124:\n        /* \"#utility.yul\":91:419   */\n      pop\n        /* \"#utility.yul\":7:419   */\n      swap4\n      swap3\n      pop\n      pop\n      pop\n      jump\t// out\n        /* \"#utility.yul\":425:564   */\n    tag_126:\n        /* \"#utility.yul\":471:476   */\n      0x00\n        /* \"#utility.yul\":509:515   */\n      dup2\n        /* \"#utility.yul\":496:516   */\n      calldataload\n        /* \"#utility.yul\":487:516   */\n      swap1\n      pop\n        /* \"#utility.yul\":525:558   */\n      tag_128\n        /* \"#utility.yul\":552:557   */\n      dup2\n        /* \"#utility.yul\":525:558   */\n      tag_129\n      jump\t// in\n    tag_128:\n        /* \"#utility.yul\":425:564   */\n      swap3\n      swap2\n      pop\n      pop\n      jump\t// out\n        /* \"#utility.yul\":570:707   */\n    tag_130:\n        /* \"#utility.yul\":624:629   */\n      0x00\n        /* \"#utility.yul\":655:661   */\n      dup2\n        /* \"#utility.yul\":649:662   */\n      mload\n        /* \"#utility.yul\":640:662   */\n      swap1\n      pop\n        /* \"#utility.yul\":671:701   */\n      tag_132\n        /* \"#utility.yul\":695:700   */\n      dup2\n        /* \"#utility.yul\":671:701   */\n      tag_133\n      jump\t// in\n    tag_132:\n        /* \"#utility.yul\":570:707   */\n      swap3\n      swap2\n      pop\n      pop\n      jump\t// out\n        /* \"#utility.yul\":727:1067   */\n    tag_134:\n        /* \"#utility.yul\":783:788   */\n      0x00\n        /* \"#utility.yul\":832:835   */\n      dup3\n        /* \"#utility.yul\":825:829   */\n      0x1f\n        /* \"#utility.yul\":817:823   */\n      dup4\n        /* \"#utility.yul\":813:830   */\n      add\n        /* \"#utility.yul\":809:836   */\n      slt\n        /* \"#utility.yul\":799:921   */\n      tag_136\n      jumpi\n        /* \"#utility.yul\":840:919   */\n      tag_137\n      tag_138\n      jump\t// in\n    tag_137:\n        /* \"#utility.yul\":799:921   */\n    tag_136:\n        /* \"#utility.yul\":957:963   */\n      dup2\n        /* \"#utility.yul\":944:964   */\n      calldataload\n        /* \"#utility.yul\":982:1061   */\n      tag_139\n        /* \"#utility.yul\":1057:1060   */\n      dup5\n        /* \"#utility.yul\":1049:1055   */\n      dup3\n        /* \"#utility.yul\":1042:1046   */\n      0x20\n        /* \"#utility.yul\":1034:1040   */\n      dup7\n        /* \"#utility.yul\":1030:1047   */\n      add\n        /* \"#utility.yul\":982:1061   */\n      tag_115\n      jump\t// in\n    tag_139:\n        /* \"#utility.yul\":973:1061   */\n      swap2\n      pop\n        /* \"#utility.yul\":789:1067   */\n      pop\n        /* \"#utility.yul\":727:1067   */\n      swap3\n      swap2\n      pop\n      pop\n      jump\t// out\n        /* \"#utility.yul\":1073:1212   */\n    tag_140:\n        /* \"#utility.yul\":1119:1124   */\n      0x00\n        /* \"#utility.yul\":1157:1163   */\n      dup2\n        /* \"#utility.yul\":1144:1164   */\n      calldataload\n        /* \"#utility.yul\":1135:1164   */\n      swap1\n      pop\n        /* \"#utility.yul\":1173:1206   */\n      tag_142\n        /* \"#utility.yul\":1200:1205   */\n      dup2\n        /* \"#utility.yul\":1173:1206   */\n      tag_143\n      jump\t// in\n    tag_142:\n        /* \"#utility.yul\":1073:1212   */\n      swap3\n      swap2\n      pop\n      pop\n      jump\t// out\n        /* \"#utility.yul\":1218:1353   */\n    tag_144:\n        /* \"#utility.yul\":1262:1267   */\n      0x00\n        /* \"#utility.yul\":1300:1306   */\n      dup2\n        /* \"#utility.yul\":1287:1307   */\n      calldataload\n        /* \"#utility.yul\":1278:1307   */\n      swap1\n      pop\n        /* \"#utility.yul\":1316:1347   */\n      tag_146\n        /* \"#utility.yul\":1341:1346   */\n      dup2\n        /* \"#utility.yul\":1316:1347   */\n      tag_147\n      jump\t// in\n    tag_146:\n        /* \"#utility.yul\":1218:1353   */\n      swap3\n      swap2\n      pop\n      pop\n      jump\t// out\n        /* \"#utility.yul\":1359:2446   */\n    tag_29:\n        /* \"#utility.yul\":1462:1468   */\n      0x00\n        /* \"#utility.yul\":1470:1476   */\n      dup1\n        /* \"#utility.yul\":1478:1484   */\n      0x00\n        /* \"#utility.yul\":1486:1492   */\n      dup1\n        /* \"#utility.yul\":1494:1500   */\n      0x00\n        /* \"#utility.yul\":1543:1546   */\n      0xa0\n        /* \"#utility.yul\":1531:1540   */\n      dup7\n        /* \"#utility.yul\":1522:1529   */\n      dup9\n        /* \"#utility.yul\":1518:1541   */\n      sub\n        /* \"#utility.yul\":1514:1547   */\n      slt\n        /* \"#utility.yul\":1511:1631   */\n      iszero\n      tag_149\n      jumpi\n        /* \"#utility.yul\":1550:1629   */\n      tag_150\n      tag_151\n      jump\t// in\n    tag_150:\n        /* \"#utility.yul\":1511:1631   */\n    tag_149:\n        /* \"#utility.yul\":1670:1671   */\n      0x00\n        /* \"#utility.yul\":1695:1748   */\n      tag_152\n        /* \"#utility.yul\":1740:1747   */\n      dup9\n        /* \"#utility.yul\":1731:1737   */\n      dup3\n        /* \"#utility.yul\":1720:1729   */\n      dup10\n        /* \"#utility.yul\":1716:1738   */\n      add\n        /* \"#utility.yul\":1695:1748   */\n      tag_126\n      jump\t// in\n    tag_152:\n        /* \"#utility.yul\":1685:1748   */\n      swap6\n      pop\n        /* \"#utility.yul\":1641:1758   */\n      pop\n        /* \"#utility.yul\":1797:1799   */\n      0x20\n        /* \"#utility.yul\":1823:1876   */\n      tag_153\n        /* \"#utility.yul\":1868:1875   */\n      dup9\n        /* \"#utility.yul\":1859:1865   */\n      dup3\n        /* \"#utility.yul\":1848:1857   */\n      dup10\n        /* \"#utility.yul\":1844:1866   */\n      add\n        /* \"#utility.yul\":1823:1876   */\n      tag_126\n      jump\t// in\n    tag_153:\n        /* \"#utility.yul\":1813:1876   */\n      swap5\n      pop\n        /* \"#utility.yul\":1768:1886   */\n      pop\n        /* \"#utility.yul\":1925:1927   */\n      0x40\n        /* \"#utility.yul\":1951:2004   */\n      tag_154\n        /* \"#utility.yul\":1996:2003   */\n      dup9\n        /* \"#utility.yul\":1987:1993   */\n      dup3\n        /* \"#utility.yul\":1976:1985   */\n      dup10\n        /* \"#utility.yul\":1972:1994   */\n      add\n        /* \"#utility.yul\":1951:2004   */\n      tag_140\n      jump\t// in\n    tag_154:\n        /* \"#utility.yul\":1941:2004   */\n      swap4\n      pop\n        /* \"#utility.yul\":1896:2014   */\n      pop\n        /* \"#utility.yul\":2053:2055   */\n      0x60\n        /* \"#utility.yul\":2079:2130   */\n      tag_155\n        /* \"#utility.yul\":2122:2129   */\n      dup9\n        /* \"#utility.yul\":2113:2119   */\n      dup3\n        /* \"#utility.yul\":2102:2111   */\n      dup10\n        /* \"#utility.yul\":2098:2120   */\n      add\n        /* \"#utility.yul\":2079:2130   */\n      tag_144\n      jump\t// in\n    tag_155:\n        /* \"#utility.yul\":2069:2130   */\n      swap3\n      pop\n        /* \"#utility.yul\":2024:2140   */\n      pop\n        /* \"#utility.yul\":2207:2210   */\n      0x80\n        /* \"#utility.yul\":2196:2205   */\n      dup7\n        /* \"#utility.yul\":2192:2211   */\n      add\n        /* \"#utility.yul\":2179:2212   */\n      calldataload\n        /* \"#utility.yul\":2239:2257   */\n      0xffffffffffffffff\n        /* \"#utility.yul\":2231:2237   */\n      dup2\n        /* \"#utility.yul\":2228:2258   */\n      gt\n        /* \"#utility.yul\":2225:2342   */\n      iszero\n      tag_156\n      jumpi\n        /* \"#utility.yul\":2261:2340   */\n      tag_157\n      tag_158\n      jump\t// in\n    tag_157:\n        /* \"#utility.yul\":2225:2342   */\n    tag_156:\n        /* \"#utility.yul\":2366:2429   */\n      tag_159\n        /* \"#utility.yul\":2421:2428   */\n      dup9\n        /* \"#utility.yul\":2412:2418   */\n      dup3\n        /* \"#utility.yul\":2401:2410   */\n      dup10\n        /* \"#utility.yul\":2397:2419   */\n      add\n        /* \"#utility.yul\":2366:2429   */\n      tag_134\n      jump\t// in\n    tag_159:\n        /* \"#utility.yul\":2356:2429   */\n      swap2\n      pop\n        /* \"#utility.yul\":2150:2439   */\n      pop\n        /* \"#utility.yul\":1359:2446   */\n      swap3\n      swap6\n      pop\n      swap3\n      swap6\n      swap1\n      swap4\n      pop\n      jump\t// out\n        /* \"#utility.yul\":2452:2926   */\n    tag_10:\n        /* \"#utility.yul\":2520:2526   */\n      0x00\n        /* \"#utility.yul\":2528:2534   */\n      dup1\n        /* \"#utility.yul\":2577:2579   */\n      0x40\n        /* \"#utility.yul\":2565:2574   */\n      dup4\n        /* \"#utility.yul\":2556:2563   */\n      dup6\n        /* \"#utility.yul\":2552:2575   */\n      sub\n        /* \"#utility.yul\":2548:2580   */\n      slt\n        /* \"#utility.yul\":2545:2664   */\n      iszero\n      tag_161\n      jumpi\n        /* \"#utility.yul\":2583:2662   */\n      tag_162\n      tag_151\n      jump\t// in\n    tag_162:\n        /* \"#utility.yul\":2545:2664   */\n    tag_161:\n        /* \"#utility.yul\":2703:2704   */\n      0x00\n        /* \"#utility.yul\":2728:2781   */\n      tag_163\n        /* \"#utility.yul\":2773:2780   */\n      dup6\n        /* \"#utility.yul\":2764:2770   */\n      dup3\n        /* \"#utility.yul\":2753:2762   */\n      dup7\n        /* \"#utility.yul\":2749:2771   */\n      add\n        /* \"#utility.yul\":2728:2781   */\n      tag_126\n      jump\t// in\n    tag_163:\n        /* \"#utility.yul\":2718:2781   */\n      swap3\n      pop\n        /* \"#utility.yul\":2674:2791   */\n      pop\n        /* \"#utility.yul\":2830:2832   */\n      0x20\n        /* \"#utility.yul\":2856:2909   */\n      tag_164\n        /* \"#utility.yul\":2901:2908   */\n      dup6\n        /* \"#utility.yul\":2892:2898   */\n      dup3\n        /* \"#utility.yul\":2881:2890   */\n      dup7\n        /* \"#utility.yul\":2877:2899   */\n      add\n        /* \"#utility.yul\":2856:2909   */\n      tag_140\n      jump\t// in\n    tag_164:\n        /* \"#utility.yul\":2846:2909   */\n      swap2\n      pop\n        /* \"#utility.yul\":2801:2919   */\n      pop\n        /* \"#utility.yul\":2452:2926   */\n      swap3\n      pop\n      swap3\n      swap1\n      pop\n      jump\t// out\n        /* \"#utility.yul\":2932:4019   */\n    tag_16:\n        /* \"#utility.yul\":3035:3041   */\n      0x00\n        /* \"#utility.yul\":3043:3049   */\n      dup1\n        /* \"#utility.yul\":3051:3057   */\n      0x00\n        /* \"#utility.yul\":3059:3065   */\n      dup1\n        /* \"#utility.yul\":3067:3073   */\n      0x00\n        /* \"#utility.yul\":3116:3119   */\n      0xa0\n        /* \"#utility.yul\":3104:3113   */\n      dup7\n        /* \"#utility.yul\":3095:3102   */\n      dup9\n        /* \"#utility.yul\":3091:3114   */\n      sub\n        /* \"#utility.yul\":3087:3120   */\n      slt\n        /* \"#utility.yul\":3084:3204   */\n      iszero\n      tag_166\n      jumpi\n        /* \"#utility.yul\":3123:3202   */\n      tag_167\n      tag_151\n      jump\t// in\n    tag_167:\n        /* \"#utility.yul\":3084:3204   */\n    tag_166:\n        /* \"#utility.yul\":3243:3244   */\n      0x00\n        /* \"#utility.yul\":3268:3321   */\n      tag_168\n        /* \"#utility.yul\":3313:3320   */\n      dup9\n        /* \"#utility.yul\":3304:3310   */\n      dup3\n        /* \"#utility.yul\":3293:3302   */\n      dup10\n        /* \"#utility.yul\":3289:3311   */\n      add\n        /* \"#utility.yul\":3268:3321   */\n      tag_126\n      jump\t// in\n    tag_168:\n        /* \"#utility.yul\":3258:3321   */\n      swap6\n      pop\n        /* \"#utility.yul\":3214:3331   */\n      pop\n        /* \"#utility.yul\":3370:3372   */\n      0x20\n        /* \"#utility.yul\":3396:3449   */\n      tag_169\n        /* \"#utility.yul\":3441:3448   */\n      dup9\n        /* \"#utility.yul\":3432:3438   */\n      dup3\n        /* \"#utility.yul\":3421:3430   */\n      dup10\n        /* \"#utility.yul\":3417:3439   */\n      add\n        /* \"#utility.yul\":3396:3449   */\n      tag_140\n      jump\t// in\n    tag_169:\n        /* \"#utility.yul\":3386:3449   */\n      swap5\n      pop\n        /* \"#utility.yul\":3341:3459   */\n      pop\n        /* \"#utility.yul\":3498:3500   */\n      0x40\n        /* \"#utility.yul\":3524:3577   */\n      tag_170\n        /* \"#utility.yul\":3569:3576   */\n      dup9\n        /* \"#utility.yul\":3560:3566   */\n      dup3\n        /* \"#utility.yul\":3549:3558   */\n      dup10\n        /* \"#utility.yul\":3545:3567   */\n      add\n        /* \"#utility.yul\":3524:3577   */\n      tag_140\n      jump\t// in\n    tag_170:\n        /* \"#utility.yul\":3514:3577   */\n      swap4\n      pop\n        /* \"#utility.yul\":3469:3587   */\n      pop\n        /* \"#utility.yul\":3626:3628   */\n      0x60\n        /* \"#utility.yul\":3652:3703   */\n      tag_171\n        /* \"#utility.yul\":3695:3702   */\n      dup9\n        /* \"#utility.yul\":3686:3692   */\n      dup3\n        /* \"#utility.yul\":3675:3684   */\n      dup10\n        /* \"#utility.yul\":3671:3693   */\n      add\n        /* \"#utility.yul\":3652:3703   */\n      tag_144\n      jump\t// in\n    tag_171:\n        /* \"#utility.yul\":3642:3703   */\n      swap3\n      pop\n        /* \"#utility.yul\":3597:3713   */\n      pop\n        /* \"#utility.yul\":3780:3783   */\n      0x80\n        /* \"#utility.yul\":3769:3778   */\n      dup7\n        /* \"#utility.yul\":3765:3784   */\n      add\n        /* \"#utility.yul\":3752:3785   */\n      calldataload\n        /* \"#utility.yul\":3812:3830   */\n      0xffffffffffffffff\n        /* \"#utility.yul\":3804:3810   */\n      dup2\n        /* \"#utility.yul\":3801:3831   */\n      gt\n        /* \"#utility.yul\":3798:3915   */\n      iszero\n      tag_172\n      jumpi\n        /* \"#utility.yul\":3834:3913   */\n      tag_173\n      tag_158\n      jump\t// in\n    tag_173:\n        /* \"#utility.yul\":3798:3915   */\n    tag_172:\n        /* \"#utility.yul\":3939:4002   */\n      tag_174\n        /* \"#utility.yul\":3994:4001   */\n      dup9\n        /* \"#utility.yul\":3985:3991   */\n      dup3\n        /* \"#utility.yul\":3974:3983   */\n      dup10\n        /* \"#utility.yul\":3970:3992   */\n      add\n        /* \"#utility.yul\":3939:4002   */\n      tag_134\n      jump\t// in\n    tag_174:\n        /* \"#utility.yul\":3929:4002   */\n      swap2\n      pop\n        /* \"#utility.yul\":3723:4012   */\n      pop\n        /* \"#utility.yul\":2932:4019   */\n      swap3\n      swap6\n      pop\n      swap3\n      swap6\n      swap1\n      swap4\n      pop\n      jump\t// out\n        /* \"#utility.yul\":4025:4966   */\n    tag_22:\n        /* \"#utility.yul\":4119:4125   */\n      0x00\n        /* \"#utility.yul\":4127:4133   */\n      dup1\n        /* \"#utility.yul\":4135:4141   */\n      0x00\n        /* \"#utility.yul\":4143:4149   */\n      dup1\n        /* \"#utility.yul\":4192:4195   */\n      0x80\n        /* \"#utility.yul\":4180:4189   */\n      dup6\n        /* \"#utility.yul\":4171:4178   */\n      dup8\n        /* \"#utility.yul\":4167:4190   */\n      sub\n        /* \"#utility.yul\":4163:4196   */\n      slt\n        /* \"#utility.yul\":4160:4280   */\n      iszero\n      tag_176\n      jumpi\n        /* \"#utility.yul\":4199:4278   */\n      tag_177\n      tag_151\n      jump\t// in\n    tag_177:\n        /* \"#utility.yul\":4160:4280   */\n    tag_176:\n        /* \"#utility.yul\":4319:4320   */\n      0x00\n        /* \"#utility.yul\":4344:4397   */\n      tag_178\n        /* \"#utility.yul\":4389:4396   */\n      dup8\n        /* \"#utility.yul\":4380:4386   */\n      dup3\n        /* \"#utility.yul\":4369:4378   */\n      dup9\n        /* \"#utility.yul\":4365:4387   */\n      add\n        /* \"#utility.yul\":4344:4397   */\n      tag_126\n      jump\t// in\n    tag_178:\n        /* \"#utility.yul\":4334:4397   */\n      swap5\n      pop\n        /* \"#utility.yul\":4290:4407   */\n      pop\n        /* \"#utility.yul\":4446:4448   */\n      0x20\n        /* \"#utility.yul\":4472:4525   */\n      tag_179\n        /* \"#utility.yul\":4517:4524   */\n      dup8\n        /* \"#utility.yul\":4508:4514   */\n      dup3\n        /* \"#utility.yul\":4497:4506   */\n      dup9\n        /* \"#utility.yul\":4493:4515   */\n      add\n        /* \"#utility.yul\":4472:4525   */\n      tag_140\n      jump\t// in\n    tag_179:\n        /* \"#utility.yul\":4462:4525   */\n      swap4\n      pop\n        /* \"#utility.yul\":4417:4535   */\n      pop\n        /* \"#utility.yul\":4574:4576   */\n      0x40\n        /* \"#utility.yul\":4600:4651   */\n      tag_180\n        /* \"#utility.yul\":4643:4650   */\n      dup8\n        /* \"#utility.yul\":4634:4640   */\n      dup3\n        /* \"#utility.yul\":4623:4632   */\n      dup9\n        /* \"#utility.yul\":4619:4641   */\n      add\n        /* \"#utility.yul\":4600:4651   */\n      tag_144\n      jump\t// in\n    tag_180:\n        /* \"#utility.yul\":4590:4651   */\n      swap3\n      pop\n        /* \"#utility.yul\":4545:4661   */\n      pop\n        /* \"#utility.yul\":4728:4730   */\n      0x60\n        /* \"#utility.yul\":4717:4726   */\n      dup6\n        /* \"#utility.yul\":4713:4731   */\n      add\n        /* \"#utility.yul\":4700:4732   */\n      calldataload\n        /* \"#utility.yul\":4759:4777   */\n      0xffffffffffffffff\n        /* \"#utility.yul\":4751:4757   */\n      dup2\n        /* \"#utility.yul\":4748:4778   */\n      gt\n        /* \"#utility.yul\":4745:4862   */\n      iszero\n      tag_181\n      jumpi\n        /* \"#utility.yul\":4781:4860   */\n      tag_182\n      tag_158\n      jump\t// in\n    tag_182:\n        /* \"#utility.yul\":4745:4862   */\n    tag_181:\n        /* \"#utility.yul\":4886:4949   */\n      tag_183\n        /* \"#utility.yul\":4941:4948   */\n      dup8\n        /* \"#utility.yul\":4932:4938   */\n      dup3\n        /* \"#utility.yul\":4921:4930   */\n      dup9\n        /* \"#utility.yul\":4917:4939   */\n      add\n        /* \"#utility.yul\":4886:4949   */\n      tag_134\n      jump\t// in\n    tag_183:\n        /* \"#utility.yul\":4876:4949   */\n      swap2\n      pop\n        /* \"#utility.yul\":4671:4959   */\n      pop\n        /* \"#utility.yul\":4025:4966   */\n      swap3\n      swap6\n      swap2\n      swap5\n      pop\n      swap3\n      pop\n      jump\t// out\n        /* \"#utility.yul\":4972:5317   */\n    tag_49:\n        /* \"#utility.yul\":5039:5045   */\n      0x00\n        /* \"#utility.yul\":5088:5090   */\n      0x20\n        /* \"#utility.yul\":5076:5085   */\n      dup3\n        /* \"#utility.yul\":5067:5074   */\n      dup5\n        /* \"#utility.yul\":5063:5086   */\n      sub\n        /* \"#utility.yul\":5059:5091   */\n      slt\n        /* \"#utility.yul\":5056:5175   */\n      iszero\n      tag_185\n      jumpi\n        /* \"#utility.yul\":5094:5173   */\n      tag_186\n      tag_151\n      jump\t// in\n    tag_186:\n        /* \"#utility.yul\":5056:5175   */\n    tag_185:\n        /* \"#utility.yul\":5214:5215   */\n      0x00\n        /* \"#utility.yul\":5239:5300   */\n      tag_187\n        /* \"#utility.yul\":5292:5299   */\n      dup5\n        /* \"#utility.yul\":5283:5289   */\n      dup3\n        /* \"#utility.yul\":5272:5281   */\n      dup6\n        /* \"#utility.yul\":5268:5290   */\n      add\n        /* \"#utility.yul\":5239:5300   */\n      tag_130\n      jump\t// in\n    tag_187:\n        /* \"#utility.yul\":5229:5300   */\n      swap2\n      pop\n        /* \"#utility.yul\":5185:5310   */\n      pop\n        /* \"#utility.yul\":4972:5317   */\n      swap3\n      swap2\n      pop\n      pop\n      jump\t// out\n        /* \"#utility.yul\":5323:5431   */\n    tag_188:\n        /* \"#utility.yul\":5400:5424   */\n      tag_190\n        /* \"#utility.yul\":5418:5423   */\n      dup2\n        /* \"#utility.yul\":5400:5424   */\n      tag_191\n      jump\t// in\n    tag_190:\n        /* \"#utility.yul\":5395:5398   */\n      dup3\n        /* \"#utility.yul\":5388:5425   */\n      mstore\n        /* \"#utility.yul\":5323:5431   */\n      pop\n      pop\n      jump\t// out\n        /* \"#utility.yul\":5437:5555   */\n    tag_192:\n        /* \"#utility.yul\":5524:5548   */\n      tag_194\n        /* \"#utility.yul\":5542:5547   */\n      dup2\n        /* \"#utility.yul\":5524:5548   */\n      tag_191\n      jump\t// in\n    tag_194:\n        /* \"#utility.yul\":5519:5522   */\n      dup3\n        /* \"#utility.yul\":5512:5549   */\n      mstore\n        /* \"#utility.yul\":5437:5555   */\n      pop\n      pop\n      jump\t// out\n        /* \"#utility.yul\":5561:5706   */\n    tag_195:\n        /* \"#utility.yul\":5650:5699   */\n      tag_197\n        /* \"#utility.yul\":5693:5698   */\n      dup2\n        /* \"#utility.yul\":5650:5699   */\n      tag_198\n      jump\t// in\n    tag_197:\n        /* \"#utility.yul\":5645:5648   */\n      dup3\n        /* \"#utility.yul\":5638:5700   */\n      mstore\n        /* \"#utility.yul\":5561:5706   */\n      pop\n      pop\n      jump\t// out\n        /* \"#utility.yul\":5712:6076   */\n    tag_199:\n        /* \"#utility.yul\":5800:5803   */\n      0x00\n        /* \"#utility.yul\":5828:5867   */\n      tag_201\n        /* \"#utility.yul\":5861:5866   */\n      dup3\n        /* \"#utility.yul\":5828:5867   */\n      tag_202\n      jump\t// in\n    tag_201:\n        /* \"#utility.yul\":5883:5954   */\n      tag_203\n        /* \"#utility.yul\":5947:5953   */\n      dup2\n        /* \"#utility.yul\":5942:5945   */\n      dup6\n        /* \"#utility.yul\":5883:5954   */\n      tag_204\n      jump\t// in\n    tag_203:\n        /* \"#utility.yul\":5876:5954   */\n      swap4\n      pop\n        /* \"#utility.yul\":5963:6015   */\n      tag_205\n        /* \"#utility.yul\":6008:6014   */\n      dup2\n        /* \"#utility.yul\":6003:6006   */\n      dup6\n        /* \"#utility.yul\":5996:6000   */\n      0x20\n        /* \"#utility.yul\":5989:5994   */\n      dup7\n        /* \"#utility.yul\":5985:6001   */\n      add\n        /* \"#utility.yul\":5963:6015   */\n      tag_206\n      jump\t// in\n    tag_205:\n        /* \"#utility.yul\":6040:6069   */\n      tag_207\n        /* \"#utility.yul\":6062:6068   */\n      dup2\n        /* \"#utility.yul\":6040:6069   */\n      tag_208\n      jump\t// in\n    tag_207:\n        /* \"#utility.yul\":6035:6038   */\n      dup5\n        /* \"#utility.yul\":6031:6070   */\n      add\n        /* \"#utility.yul\":6024:6070   */\n      swap2\n      pop\n        /* \"#utility.yul\":5804:6076   */\n      pop\n        /* \"#utility.yul\":5712:6076   */\n      swap3\n      swap2\n      pop\n      pop\n      jump\t// out\n        /* \"#utility.yul\":6082:6448   */\n    tag_209:\n        /* \"#utility.yul\":6224:6227   */\n      0x00\n        /* \"#utility.yul\":6245:6312   */\n      tag_211\n        /* \"#utility.yul\":6309:6311   */\n      0x11\n        /* \"#utility.yul\":6304:6307   */\n      dup4\n        /* \"#utility.yul\":6245:6312   */\n      tag_204\n      jump\t// in\n    tag_211:\n        /* \"#utility.yul\":6238:6312   */\n      swap2\n      pop\n        /* \"#utility.yul\":6321:6414   */\n      tag_212\n        /* \"#utility.yul\":6410:6413   */\n      dup3\n        /* \"#utility.yul\":6321:6414   */\n      tag_213\n      jump\t// in\n    tag_212:\n        /* \"#utility.yul\":6439:6441   */\n      0x20\n        /* \"#utility.yul\":6434:6437   */\n      dup3\n        /* \"#utility.yul\":6430:6442   */\n      add\n        /* \"#utility.yul\":6423:6442   */\n      swap1\n      pop\n        /* \"#utility.yul\":6082:6448   */\n      swap2\n      swap1\n      pop\n      jump\t// out\n        /* \"#utility.yul\":6454:6820   */\n    tag_214:\n        /* \"#utility.yul\":6596:6599   */\n      0x00\n        /* \"#utility.yul\":6617:6684   */\n      tag_216\n        /* \"#utility.yul\":6681:6683   */\n      0x2a\n        /* \"#utility.yul\":6676:6679   */\n      dup4\n        /* \"#utility.yul\":6617:6684   */\n      tag_204\n      jump\t// in\n    tag_216:\n        /* \"#utility.yul\":6610:6684   */\n      swap2\n      pop\n        /* \"#utility.yul\":6693:6786   */\n      tag_217\n        /* \"#utility.yul\":6782:6785   */\n      dup3\n        /* \"#utility.yul\":6693:6786   */\n      tag_218\n      jump\t// in\n    tag_217:\n        /* \"#utility.yul\":6811:6813   */\n      0x40\n        /* \"#utility.yul\":6806:6809   */\n      dup3\n        /* \"#utility.yul\":6802:6814   */\n      add\n        /* \"#utility.yul\":6795:6814   */\n      swap1\n      pop\n        /* \"#utility.yul\":6454:6820   */\n      swap2\n      swap1\n      pop\n      jump\t// out\n        /* \"#utility.yul\":6826:7192   */\n    tag_219:\n        /* \"#utility.yul\":6968:6971   */\n      0x00\n        /* \"#utility.yul\":6989:7056   */\n      tag_221\n        /* \"#utility.yul\":7053:7055   */\n      0x0f\n        /* \"#utility.yul\":7048:7051   */\n      dup4\n        /* \"#utility.yul\":6989:7056   */\n      tag_204\n      jump\t// in\n    tag_221:\n        /* \"#utility.yul\":6982:7056   */\n      swap2\n      pop\n        /* \"#utility.yul\":7065:7158   */\n      tag_222\n        /* \"#utility.yul\":7154:7157   */\n      dup3\n        /* \"#utility.yul\":7065:7158   */\n      tag_223\n      jump\t// in\n    tag_222:\n        /* \"#utility.yul\":7183:7185   */\n      0x20\n        /* \"#utility.yul\":7178:7181   */\n      dup3\n        /* \"#utility.yul\":7174:7186   */\n      add\n        /* \"#utility.yul\":7167:7186   */\n      swap1\n      pop\n        /* \"#utility.yul\":6826:7192   */\n      swap2\n      swap1\n      pop\n      jump\t// out\n        /* \"#utility.yul\":7262:7952   */\n    tag_224:\n        /* \"#utility.yul\":7403:7407   */\n      0x60\n        /* \"#utility.yul\":7398:7401   */\n      dup3\n        /* \"#utility.yul\":7394:7408   */\n      add\n        /* \"#utility.yul\":7491:7495   */\n      0x00\n        /* \"#utility.yul\":7484:7489   */\n      dup3\n        /* \"#utility.yul\":7480:7496   */\n      add\n        /* \"#utility.yul\":7474:7497   */\n      mload\n        /* \"#utility.yul\":7510:7573   */\n      tag_226\n        /* \"#utility.yul\":7567:7571   */\n      0x00\n        /* \"#utility.yul\":7562:7565   */\n      dup6\n        /* \"#utility.yul\":7558:7572   */\n      add\n        /* \"#utility.yul\":7544:7556   */\n      dup3\n        /* \"#utility.yul\":7510:7573   */\n      tag_227\n      jump\t// in\n    tag_226:\n        /* \"#utility.yul\":7418:7583   */\n      pop\n        /* \"#utility.yul\":7666:7670   */\n      0x20\n        /* \"#utility.yul\":7659:7664   */\n      dup3\n        /* \"#utility.yul\":7655:7671   */\n      add\n        /* \"#utility.yul\":7649:7672   */\n      mload\n        /* \"#utility.yul\":7685:7748   */\n      tag_228\n        /* \"#utility.yul\":7742:7746   */\n      0x20\n        /* \"#utility.yul\":7737:7740   */\n      dup6\n        /* \"#utility.yul\":7733:7747   */\n      add\n        /* \"#utility.yul\":7719:7731   */\n      dup3\n        /* \"#utility.yul\":7685:7748   */\n      tag_188\n      jump\t// in\n    tag_228:\n        /* \"#utility.yul\":7593:7758   */\n      pop\n        /* \"#utility.yul\":7841:7845   */\n      0x40\n        /* \"#utility.yul\":7834:7839   */\n      dup3\n        /* \"#utility.yul\":7830:7846   */\n      add\n        /* \"#utility.yul\":7824:7847   */\n      mload\n        /* \"#utility.yul\":7860:7935   */\n      tag_229\n        /* \"#utility.yul\":7929:7933   */\n      0x40\n        /* \"#utility.yul\":7924:7927   */\n      dup6\n        /* \"#utility.yul\":7920:7934   */\n      add\n        /* \"#utility.yul\":7906:7918   */\n      dup3\n        /* \"#utility.yul\":7860:7935   */\n      tag_195\n      jump\t// in\n    tag_229:\n        /* \"#utility.yul\":7768:7945   */\n      pop\n        /* \"#utility.yul\":7372:7952   */\n      pop\n        /* \"#utility.yul\":7262:7952   */\n      pop\n      pop\n      jump\t// out\n        /* \"#utility.yul\":7958:8066   */\n    tag_227:\n        /* \"#utility.yul\":8035:8059   */\n      tag_231\n        /* \"#utility.yul\":8053:8058   */\n      dup2\n        /* \"#utility.yul\":8035:8059   */\n      tag_232\n      jump\t// in\n    tag_231:\n        /* \"#utility.yul\":8030:8033   */\n      dup3\n        /* \"#utility.yul\":8023:8060   */\n      mstore\n        /* \"#utility.yul\":7958:8066   */\n      pop\n      pop\n      jump\t// out\n        /* \"#utility.yul\":8072:8190   */\n    tag_233:\n        /* \"#utility.yul\":8159:8183   */\n      tag_235\n        /* \"#utility.yul\":8177:8182   */\n      dup2\n        /* \"#utility.yul\":8159:8183   */\n      tag_232\n      jump\t// in\n    tag_235:\n        /* \"#utility.yul\":8154:8157   */\n      dup3\n        /* \"#utility.yul\":8147:8184   */\n      mstore\n        /* \"#utility.yul\":8072:8190   */\n      pop\n      pop\n      jump\t// out\n        /* \"#utility.yul\":8196:8323   */\n    tag_236:\n        /* \"#utility.yul\":8281:8316   */\n      tag_238\n        /* \"#utility.yul\":8310:8315   */\n      dup2\n        /* \"#utility.yul\":8281:8316   */\n      tag_239\n      jump\t// in\n    tag_238:\n        /* \"#utility.yul\":8276:8279   */\n      dup3\n        /* \"#utility.yul\":8269:8317   */\n      mstore\n        /* \"#utility.yul\":8196:8323   */\n      pop\n      pop\n      jump\t// out\n        /* \"#utility.yul\":8329:8441   */\n    tag_240:\n        /* \"#utility.yul\":8412:8434   */\n      tag_242\n        /* \"#utility.yul\":8428:8433   */\n      dup2\n        /* \"#utility.yul\":8412:8434   */\n      tag_243\n      jump\t// in\n    tag_242:\n        /* \"#utility.yul\":8407:8410   */\n      dup3\n        /* \"#utility.yul\":8400:8435   */\n      mstore\n        /* \"#utility.yul\":8329:8441   */\n      pop\n      pop\n      jump\t// out\n        /* \"#utility.yul\":8447:8669   */\n    tag_44:\n        /* \"#utility.yul\":8540:8544   */\n      0x00\n        /* \"#utility.yul\":8578:8580   */\n      0x20\n        /* \"#utility.yul\":8567:8576   */\n      dup3\n        /* \"#utility.yul\":8563:8581   */\n      add\n        /* \"#utility.yul\":8555:8581   */\n      swap1\n      pop\n        /* \"#utility.yul\":8591:8662   */\n      tag_245\n        /* \"#utility.yul\":8659:8660   */\n      0x00\n        /* \"#utility.yul\":8648:8657   */\n      dup4\n        /* \"#utility.yul\":8644:8661   */\n      add\n        /* \"#utility.yul\":8635:8641   */\n      dup5\n        /* \"#utility.yul\":8591:8662   */\n      tag_192\n      jump\t// in\n    tag_245:\n        /* \"#utility.yul\":8447:8669   */\n      swap3\n      swap2\n      pop\n      pop\n      jump\t// out\n        /* \"#utility.yul\":8675:9094   */\n    tag_98:\n        /* \"#utility.yul\":8841:8845   */\n      0x00\n        /* \"#utility.yul\":8879:8881   */\n      0x20\n        /* \"#utility.yul\":8868:8877   */\n      dup3\n        /* \"#utility.yul\":8864:8882   */\n      add\n        /* \"#utility.yul\":8856:8882   */\n      swap1\n      pop\n        /* \"#utility.yul\":8928:8937   */\n      dup2\n        /* \"#utility.yul\":8922:8926   */\n      dup2\n        /* \"#utility.yul\":8918:8938   */\n      sub\n        /* \"#utility.yul\":8914:8915   */\n      0x00\n        /* \"#utility.yul\":8903:8912   */\n      dup4\n        /* \"#utility.yul\":8899:8916   */\n      add\n        /* \"#utility.yul\":8892:8939   */\n      mstore\n        /* \"#utility.yul\":8956:9087   */\n      tag_247\n        /* \"#utility.yul\":9082:9086   */\n      dup2\n        /* \"#utility.yul\":8956:9087   */\n      tag_209\n      jump\t// in\n    tag_247:\n        /* \"#utility.yul\":8948:9087   */\n      swap1\n      pop\n        /* \"#utility.yul\":8675:9094   */\n      swap2\n      swap1\n      pop\n      jump\t// out\n        /* \"#utility.yul\":9100:9519   */\n    tag_52:\n        /* \"#utility.yul\":9266:9270   */\n      0x00\n        /* \"#utility.yul\":9304:9306   */\n      0x20\n        /* \"#utility.yul\":9293:9302   */\n      dup3\n        /* \"#utility.yul\":9289:9307   */\n      add\n        /* \"#utility.yul\":9281:9307   */\n      swap1\n      pop\n        /* \"#utility.yul\":9353:9362   */\n      dup2\n        /* \"#utility.yul\":9347:9351   */\n      dup2\n        /* \"#utility.yul\":9343:9363   */\n      sub\n        /* \"#utility.yul\":9339:9340   */\n      0x00\n        /* \"#utility.yul\":9328:9337   */\n      dup4\n        /* \"#utility.yul\":9324:9341   */\n      add\n        /* \"#utility.yul\":9317:9364   */\n      mstore\n        /* \"#utility.yul\":9381:9512   */\n      tag_249\n        /* \"#utility.yul\":9507:9511   */\n      dup2\n        /* \"#utility.yul\":9381:9512   */\n      tag_214\n      jump\t// in\n    tag_249:\n        /* \"#utility.yul\":9373:9512   */\n      swap1\n      pop\n        /* \"#utility.yul\":9100:9519   */\n      swap2\n      swap1\n      pop\n      jump\t// out\n        /* \"#utility.yul\":9525:9944   */\n    tag_61:\n        /* \"#utility.yul\":9691:9695   */\n      0x00\n        /* \"#utility.yul\":9729:9731   */\n      0x20\n        /* \"#utility.yul\":9718:9727   */\n      dup3\n        /* \"#utility.yul\":9714:9732   */\n      add\n        /* \"#utility.yul\":9706:9732   */\n      swap1\n      pop\n        /* \"#utility.yul\":9778:9787   */\n      dup2\n        /* \"#utility.yul\":9772:9776   */\n      dup2\n        /* \"#utility.yul\":9768:9788   */\n      sub\n        /* \"#utility.yul\":9764:9765   */\n      0x00\n        /* \"#utility.yul\":9753:9762   */\n      dup4\n        /* \"#utility.yul\":9749:9766   */\n      add\n        /* \"#utility.yul\":9742:9789   */\n      mstore\n        /* \"#utility.yul\":9806:9937   */\n      tag_251\n        /* \"#utility.yul\":9932:9936   */\n      dup2\n        /* \"#utility.yul\":9806:9937   */\n      tag_219\n      jump\t// in\n    tag_251:\n        /* \"#utility.yul\":9798:9937   */\n      swap1\n      pop\n        /* \"#utility.yul\":9525:9944   */\n      swap2\n      swap1\n      pop\n      jump\t// out\n        /* \"#utility.yul\":9950:10172   */\n    tag_19:\n        /* \"#utility.yul\":10043:10047   */\n      0x00\n        /* \"#utility.yul\":10081:10083   */\n      0x20\n        /* \"#utility.yul\":10070:10079   */\n      dup3\n        /* \"#utility.yul\":10066:10084   */\n      add\n        /* \"#utility.yul\":10058:10084   */\n      swap1\n      pop\n        /* \"#utility.yul\":10094:10165   */\n      tag_253\n        /* \"#utility.yul\":10162:10163   */\n      0x00\n        /* \"#utility.yul\":10151:10160   */\n      dup4\n        /* \"#utility.yul\":10147:10164   */\n      add\n        /* \"#utility.yul\":10138:10144   */\n      dup5\n        /* \"#utility.yul\":10094:10165   */\n      tag_233\n      jump\t// in\n    tag_253:\n        /* \"#utility.yul\":9950:10172   */\n      swap3\n      swap2\n      pop\n      pop\n      jump\t// out\n        /* \"#utility.yul\":10178:11124   */\n    tag_13:\n        /* \"#utility.yul\":10471:10475   */\n      0x00\n        /* \"#utility.yul\":10509:10512   */\n      0x0100\n        /* \"#utility.yul\":10498:10507   */\n      dup3\n        /* \"#utility.yul\":10494:10513   */\n      add\n        /* \"#utility.yul\":10486:10513   */\n      swap1\n      pop\n        /* \"#utility.yul\":10523:10594   */\n      tag_255\n        /* \"#utility.yul\":10591:10592   */\n      0x00\n        /* \"#utility.yul\":10580:10589   */\n      dup4\n        /* \"#utility.yul\":10576:10593   */\n      add\n        /* \"#utility.yul\":10567:10573   */\n      dup10\n        /* \"#utility.yul\":10523:10594   */\n      tag_233\n      jump\t// in\n    tag_255:\n        /* \"#utility.yul\":10604:10676   */\n      tag_256\n        /* \"#utility.yul\":10672:10674   */\n      0x20\n        /* \"#utility.yul\":10661:10670   */\n      dup4\n        /* \"#utility.yul\":10657:10675   */\n      add\n        /* \"#utility.yul\":10648:10654   */\n      dup9\n        /* \"#utility.yul\":10604:10676   */\n      tag_192\n      jump\t// in\n    tag_256:\n        /* \"#utility.yul\":10686:10758   */\n      tag_257\n        /* \"#utility.yul\":10754:10756   */\n      0x40\n        /* \"#utility.yul\":10743:10752   */\n      dup4\n        /* \"#utility.yul\":10739:10757   */\n      add\n        /* \"#utility.yul\":10730:10736   */\n      dup8\n        /* \"#utility.yul\":10686:10758   */\n      tag_233\n      jump\t// in\n    tag_257:\n        /* \"#utility.yul\":10768:10836   */\n      tag_258\n        /* \"#utility.yul\":10832:10834   */\n      0x60\n        /* \"#utility.yul\":10821:10830   */\n      dup4\n        /* \"#utility.yul\":10817:10835   */\n      add\n        /* \"#utility.yul\":10808:10814   */\n      dup7\n        /* \"#utility.yul\":10768:10836   */\n      tag_240\n      jump\t// in\n    tag_258:\n        /* \"#utility.yul\":10884:10893   */\n      dup2\n        /* \"#utility.yul\":10878:10882   */\n      dup2\n        /* \"#utility.yul\":10874:10894   */\n      sub\n        /* \"#utility.yul\":10868:10871   */\n      0x80\n        /* \"#utility.yul\":10857:10866   */\n      dup4\n        /* \"#utility.yul\":10853:10872   */\n      add\n        /* \"#utility.yul\":10846:10895   */\n      mstore\n        /* \"#utility.yul\":10912:10990   */\n      tag_259\n        /* \"#utility.yul\":10985:10989   */\n      dup2\n        /* \"#utility.yul\":10976:10982   */\n      dup6\n        /* \"#utility.yul\":10912:10990   */\n      tag_199\n      jump\t// in\n    tag_259:\n        /* \"#utility.yul\":10904:10990   */\n      swap1\n      pop\n        /* \"#utility.yul\":11000:11117   */\n      tag_260\n        /* \"#utility.yul\":11112:11115   */\n      0xa0\n        /* \"#utility.yul\":11101:11110   */\n      dup4\n        /* \"#utility.yul\":11097:11116   */\n      add\n        /* \"#utility.yul\":11088:11094   */\n      dup5\n        /* \"#utility.yul\":11000:11117   */\n      tag_224\n      jump\t// in\n    tag_260:\n        /* \"#utility.yul\":10178:11124   */\n      swap8\n      swap7\n      pop\n      pop\n      pop\n      pop\n      pop\n      pop\n      pop\n      jump\t// out\n        /* \"#utility.yul\":11130:11568   */\n    tag_67:\n        /* \"#utility.yul\":11277:11281   */\n      0x00\n        /* \"#utility.yul\":11315:11317   */\n      0x60\n        /* \"#utility.yul\":11304:11313   */\n      dup3\n        /* \"#utility.yul\":11300:11318   */\n      add\n        /* \"#utility.yul\":11292:11318   */\n      swap1\n      pop\n        /* \"#utility.yul\":11328:11399   */\n      tag_262\n        /* \"#utility.yul\":11396:11397   */\n      0x00\n        /* \"#utility.yul\":11385:11394   */\n      dup4\n        /* \"#utility.yul\":11381:11398   */\n      add\n        /* \"#utility.yul\":11372:11378   */\n      dup7\n        /* \"#utility.yul\":11328:11399   */\n      tag_233\n      jump\t// in\n    tag_262:\n        /* \"#utility.yul\":11409:11481   */\n      tag_263\n        /* \"#utility.yul\":11477:11479   */\n      0x20\n        /* \"#utility.yul\":11466:11475   */\n      dup4\n        /* \"#utility.yul\":11462:11480   */\n      add\n        /* \"#utility.yul\":11453:11459   */\n      dup6\n        /* \"#utility.yul\":11409:11481   */\n      tag_233\n      jump\t// in\n    tag_263:\n        /* \"#utility.yul\":11491:11561   */\n      tag_264\n        /* \"#utility.yul\":11557:11559   */\n      0x40\n        /* \"#utility.yul\":11546:11555   */\n      dup4\n        /* \"#utility.yul\":11542:11560   */\n      add\n        /* \"#utility.yul\":11533:11539   */\n      dup5\n        /* \"#utility.yul\":11491:11561   */\n      tag_236\n      jump\t// in\n    tag_264:\n        /* \"#utility.yul\":11130:11568   */\n      swap5\n      swap4\n      pop\n      pop\n      pop\n      pop\n      jump\t// out\n        /* \"#utility.yul\":11574:11703   */\n    tag_120:\n        /* \"#utility.yul\":11608:11614   */\n      0x00\n        /* \"#utility.yul\":11635:11655   */\n      tag_266\n      tag_267\n      jump\t// in\n    tag_266:\n        /* \"#utility.yul\":11625:11655   */\n      swap1\n      pop\n        /* \"#utility.yul\":11664:11697   */\n      tag_268\n        /* \"#utility.yul\":11692:11696   */\n      dup3\n        /* \"#utility.yul\":11684:11690   */\n      dup3\n        /* \"#utility.yul\":11664:11697   */\n      tag_269\n      jump\t// in\n    tag_268:\n        /* \"#utility.yul\":11574:11703   */\n      swap2\n      swap1\n      pop\n      jump\t// out\n        /* \"#utility.yul\":11709:11784   */\n    tag_267:\n        /* \"#utility.yul\":11742:11748   */\n      0x00\n        /* \"#utility.yul\":11775:11777   */\n      0x40\n        /* \"#utility.yul\":11769:11778   */\n      mload\n        /* \"#utility.yul\":11759:11778   */\n      swap1\n      pop\n        /* \"#utility.yul\":11709:11784   */\n      swap1\n      jump\t// out\n        /* \"#utility.yul\":11790:12098   */\n    tag_119:\n        /* \"#utility.yul\":11852:11856   */\n      0x00\n        /* \"#utility.yul\":11942:11960   */\n      0xffffffffffffffff\n        /* \"#utility.yul\":11934:11940   */\n      dup3\n        /* \"#utility.yul\":11931:11961   */\n      gt\n        /* \"#utility.yul\":11928:11984   */\n      iszero\n      tag_272\n      jumpi\n        /* \"#utility.yul\":11964:11982   */\n      tag_273\n      tag_274\n      jump\t// in\n    tag_273:\n        /* \"#utility.yul\":11928:11984   */\n    tag_272:\n        /* \"#utility.yul\":12002:12031   */\n      tag_275\n        /* \"#utility.yul\":12024:12030   */\n      dup3\n        /* \"#utility.yul\":12002:12031   */\n      tag_208\n      jump\t// in\n    tag_275:\n        /* \"#utility.yul\":11994:12031   */\n      swap1\n      pop\n        /* \"#utility.yul\":12086:12090   */\n      0x20\n        /* \"#utility.yul\":12080:12084   */\n      dup2\n        /* \"#utility.yul\":12076:12091   */\n      add\n        /* \"#utility.yul\":12068:12091   */\n      swap1\n      pop\n        /* \"#utility.yul\":11790:12098   */\n      swap2\n      swap1\n      pop\n      jump\t// out\n        /* \"#utility.yul\":12104:12203   */\n    tag_202:\n        /* \"#utility.yul\":12156:12162   */\n      0x00\n        /* \"#utility.yul\":12190:12195   */\n      dup2\n        /* \"#utility.yul\":12184:12196   */\n      mload\n        /* \"#utility.yul\":12174:12196   */\n      swap1\n      pop\n        /* \"#utility.yul\":12104:12203   */\n      swap2\n      swap1\n      pop\n      jump\t// out\n        /* \"#utility.yul\":12209:12378   */\n    tag_204:\n        /* \"#utility.yul\":12293:12304   */\n      0x00\n        /* \"#utility.yul\":12327:12333   */\n      dup3\n        /* \"#utility.yul\":12322:12325   */\n      dup3\n        /* \"#utility.yul\":12315:12334   */\n      mstore\n        /* \"#utility.yul\":12367:12371   */\n      0x20\n        /* \"#utility.yul\":12362:12365   */\n      dup3\n        /* \"#utility.yul\":12358:12372   */\n      add\n        /* \"#utility.yul\":12343:12372   */\n      swap1\n      pop\n        /* \"#utility.yul\":12209:12378   */\n      swap3\n      swap2\n      pop\n      pop\n      jump\t// out\n        /* \"#utility.yul\":12384:12480   */\n    tag_191:\n        /* \"#utility.yul\":12421:12428   */\n      0x00\n        /* \"#utility.yul\":12450:12474   */\n      tag_279\n        /* \"#utility.yul\":12468:12473   */\n      dup3\n        /* \"#utility.yul\":12450:12474   */\n      tag_280\n      jump\t// in\n    tag_279:\n        /* \"#utility.yul\":12439:12474   */\n      swap1\n      pop\n        /* \"#utility.yul\":12384:12480   */\n      swap2\n      swap1\n      pop\n      jump\t// out\n        /* \"#utility.yul\":12486:12576   */\n    tag_281:\n        /* \"#utility.yul\":12520:12527   */\n      0x00\n        /* \"#utility.yul\":12563:12568   */\n      dup2\n        /* \"#utility.yul\":12556:12569   */\n      iszero\n        /* \"#utility.yul\":12549:12570   */\n      iszero\n        /* \"#utility.yul\":12538:12570   */\n      swap1\n      pop\n        /* \"#utility.yul\":12486:12576   */\n      swap2\n      swap1\n      pop\n      jump\t// out\n        /* \"#utility.yul\":12582:12721   */\n    tag_283:\n        /* \"#utility.yul\":12633:12640   */\n      0x00\n        /* \"#utility.yul\":12662:12667   */\n      dup2\n        /* \"#utility.yul\":12651:12667   */\n      swap1\n      pop\n        /* \"#utility.yul\":12668:12715   */\n      tag_285\n        /* \"#utility.yul\":12709:12714   */\n      dup3\n        /* \"#utility.yul\":12668:12715   */\n      tag_286\n      jump\t// in\n    tag_285:\n        /* \"#utility.yul\":12582:12721   */\n      swap2\n      swap1\n      pop\n      jump\t// out\n        /* \"#utility.yul\":12727:12853   */\n    tag_280:\n        /* \"#utility.yul\":12764:12771   */\n      0x00\n        /* \"#utility.yul\":12804:12846   */\n      0xffffffffffffffffffffffffffffffffffffffff\n        /* \"#utility.yul\":12797:12802   */\n      dup3\n        /* \"#utility.yul\":12793:12847   */\n      and\n        /* \"#utility.yul\":12782:12847   */\n      swap1\n      pop\n        /* \"#utility.yul\":12727:12853   */\n      swap2\n      swap1\n      pop\n      jump\t// out\n        /* \"#utility.yul\":12859:12936   */\n    tag_232:\n        /* \"#utility.yul\":12896:12903   */\n      0x00\n        /* \"#utility.yul\":12925:12930   */\n      dup2\n        /* \"#utility.yul\":12914:12930   */\n      swap1\n      pop\n        /* \"#utility.yul\":12859:12936   */\n      swap2\n      swap1\n      pop\n      jump\t// out\n        /* \"#utility.yul\":12942:13028   */\n    tag_243:\n        /* \"#utility.yul\":12977:12984   */\n      0x00\n        /* \"#utility.yul\":13017:13021   */\n      0xff\n        /* \"#utility.yul\":13010:13015   */\n      dup3\n        /* \"#utility.yul\":13006:13022   */\n      and\n        /* \"#utility.yul\":12995:13022   */\n      swap1\n      pop\n        /* \"#utility.yul\":12942:13028   */\n      swap2\n      swap1\n      pop\n      jump\t// out\n        /* \"#utility.yul\":13034:13173   */\n    tag_198:\n        /* \"#utility.yul\":13096:13105   */\n      0x00\n        /* \"#utility.yul\":13129:13167   */\n      tag_291\n        /* \"#utility.yul\":13161:13166   */\n      dup3\n        /* \"#utility.yul\":13129:13167   */\n      tag_283\n      jump\t// in\n    tag_291:\n        /* \"#utility.yul\":13116:13167   */\n      swap1\n      pop\n        /* \"#utility.yul\":13034:13173   */\n      swap2\n      swap1\n      pop\n      jump\t// out\n        /* \"#utility.yul\":13179:13288   */\n    tag_239:\n        /* \"#utility.yul\":13227:13236   */\n      0x00\n        /* \"#utility.yul\":13260:13282   */\n      tag_293\n        /* \"#utility.yul\":13276:13281   */\n      dup3\n        /* \"#utility.yul\":13260:13282   */\n      tag_243\n      jump\t// in\n    tag_293:\n        /* \"#utility.yul\":13247:13282   */\n      swap1\n      pop\n        /* \"#utility.yul\":13179:13288   */\n      swap2\n      swap1\n      pop\n      jump\t// out\n        /* \"#utility.yul\":13294:13448   */\n    tag_125:\n        /* \"#utility.yul\":13378:13384   */\n      dup3\n        /* \"#utility.yul\":13373:13376   */\n      dup2\n        /* \"#utility.yul\":13368:13371   */\n      dup4\n        /* \"#utility.yul\":13355:13385   */\n      calldatacopy\n        /* \"#utility.yul\":13440:13441   */\n      0x00\n        /* \"#utility.yul\":13431:13437   */\n      dup4\n        /* \"#utility.yul\":13426:13429   */\n      dup4\n        /* \"#utility.yul\":13422:13438   */\n      add\n        /* \"#utility.yul\":13415:13442   */\n      mstore\n        /* \"#utility.yul\":13294:13448   */\n      pop\n      pop\n      pop\n      jump\t// out\n        /* \"#utility.yul\":13454:13761   */\n    tag_206:\n        /* \"#utility.yul\":13522:13523   */\n      0x00\n        /* \"#utility.yul\":13532:13645   */\n    tag_296:\n        /* \"#utility.yul\":13546:13552   */\n      dup4\n        /* \"#utility.yul\":13543:13544   */\n      dup2\n        /* \"#utility.yul\":13540:13553   */\n      lt\n        /* \"#utility.yul\":13532:13645   */\n      iszero\n      tag_298\n      jumpi\n        /* \"#utility.yul\":13631:13632   */\n      dup1\n        /* \"#utility.yul\":13626:13629   */\n      dup3\n        /* \"#utility.yul\":13622:13633   */\n      add\n        /* \"#utility.yul\":13616:13634   */\n      mload\n        /* \"#utility.yul\":13612:13613   */\n      dup2\n        /* \"#utility.yul\":13607:13610   */\n      dup5\n        /* \"#utility.yul\":13603:13614   */\n      add\n        /* \"#utility.yul\":13596:13635   */\n      mstore\n        /* \"#utility.yul\":13568:13570   */\n      0x20\n        /* \"#utility.yul\":13565:13566   */\n      dup2\n        /* \"#utility.yul\":13561:13571   */\n      add\n        /* \"#utility.yul\":13556:13571   */\n      swap1\n      pop\n        /* \"#utility.yul\":13532:13645   */\n      jump(tag_296)\n    tag_298:\n        /* \"#utility.yul\":13663:13669   */\n      dup4\n        /* \"#utility.yul\":13660:13661   */\n      dup2\n        /* \"#utility.yul\":13657:13670   */\n      gt\n        /* \"#utility.yul\":13654:13755   */\n      iszero\n      tag_299\n      jumpi\n        /* \"#utility.yul\":13743:13744   */\n      0x00\n        /* \"#utility.yul\":13734:13740   */\n      dup5\n        /* \"#utility.yul\":13729:13732   */\n      dup5\n        /* \"#utility.yul\":13725:13741   */\n      add\n        /* \"#utility.yul\":13718:13745   */\n      mstore\n        /* \"#utility.yul\":13654:13755   */\n    tag_299:\n        /* \"#utility.yul\":13503:13761   */\n      pop\n        /* \"#utility.yul\":13454:13761   */\n      pop\n      pop\n      pop\n      jump\t// out\n        /* \"#utility.yul\":13767:14087   */\n    tag_32:\n        /* \"#utility.yul\":13811:13817   */\n      0x00\n        /* \"#utility.yul\":13848:13849   */\n      0x02\n        /* \"#utility.yul\":13842:13846   */\n      dup3\n        /* \"#utility.yul\":13838:13850   */\n      div\n        /* \"#utility.yul\":13828:13850   */\n      swap1\n      pop\n        /* \"#utility.yul\":13895:13896   */\n      0x01\n        /* \"#utility.yul\":13889:13893   */\n      dup3\n        /* \"#utility.yul\":13885:13897   */\n      and\n        /* \"#utility.yul\":13916:13934   */\n      dup1\n        /* \"#utility.yul\":13906:13987   */\n      tag_301\n      jumpi\n        /* \"#utility.yul\":13972:13976   */\n      0x7f\n        /* \"#utility.yul\":13964:13970   */\n      dup3\n        /* \"#utility.yul\":13960:13977   */\n      and\n        /* \"#utility.yul\":13950:13977   */\n      swap2\n      pop\n        /* \"#utility.yul\":13906:13987   */\n    tag_301:\n        /* \"#utility.yul\":14034:14036   */\n      0x20\n        /* \"#utility.yul\":14026:14032   */\n      dup3\n        /* \"#utility.yul\":14023:14037   */\n      lt\n        /* \"#utility.yul\":14003:14021   */\n      dup2\n        /* \"#utility.yul\":14000:14038   */\n      eq\n        /* \"#utility.yul\":13997:14081   */\n      iszero\n      tag_302\n      jumpi\n        /* \"#utility.yul\":14053:14071   */\n      tag_303\n      tag_304\n      jump\t// in\n    tag_303:\n        /* \"#utility.yul\":13997:14081   */\n    tag_302:\n        /* \"#utility.yul\":13818:14087   */\n      pop\n        /* \"#utility.yul\":13767:14087   */\n      swap2\n      swap1\n      pop\n      jump\t// out\n        /* \"#utility.yul\":14093:14374   */\n    tag_269:\n        /* \"#utility.yul\":14176:14203   */\n      tag_306\n        /* \"#utility.yul\":14198:14202   */\n      dup3\n        /* \"#utility.yul\":14176:14203   */\n      tag_208\n      jump\t// in\n    tag_306:\n        /* \"#utility.yul\":14168:14174   */\n      dup2\n        /* \"#utility.yul\":14164:14204   */\n      add\n        /* \"#utility.yul\":14306:14312   */\n      dup2\n        /* \"#utility.yul\":14294:14304   */\n      dup2\n        /* \"#utility.yul\":14291:14313   */\n      lt\n        /* \"#utility.yul\":14270:14288   */\n      0xffffffffffffffff\n        /* \"#utility.yul\":14258:14268   */\n      dup3\n        /* \"#utility.yul\":14255:14289   */\n      gt\n        /* \"#utility.yul\":14252:14314   */\n      or\n        /* \"#utility.yul\":14249:14337   */\n      iszero\n      tag_307\n      jumpi\n        /* \"#utility.yul\":14317:14335   */\n      tag_308\n      tag_274\n      jump\t// in\n    tag_308:\n        /* \"#utility.yul\":14249:14337   */\n    tag_307:\n        /* \"#utility.yul\":14357:14367   */\n      dup1\n        /* \"#utility.yul\":14353:14355   */\n      0x40\n        /* \"#utility.yul\":14346:14368   */\n      mstore\n        /* \"#utility.yul\":14136:14374   */\n      pop\n        /* \"#utility.yul\":14093:14374   */\n      pop\n      pop\n      jump\t// out\n        /* \"#utility.yul\":14380:14613   */\n    tag_85:\n        /* \"#utility.yul\":14419:14422   */\n      0x00\n        /* \"#utility.yul\":14442:14466   */\n      tag_310\n        /* \"#utility.yul\":14460:14465   */\n      dup3\n        /* \"#utility.yul\":14442:14466   */\n      tag_232\n      jump\t// in\n    tag_310:\n        /* \"#utility.yul\":14433:14466   */\n      swap2\n      pop\n        /* \"#utility.yul\":14488:14554   */\n      0xffffffffffffffffffffffffffffffffffffffffffffffffffffffffffffffff\n        /* \"#utility.yul\":14481:14486   */\n      dup3\n        /* \"#utility.yul\":14478:14555   */\n      eq\n        /* \"#utility.yul\":14475:14578   */\n      iszero\n      tag_311\n      jumpi\n        /* \"#utility.yul\":14558:14576   */\n      tag_312\n      tag_313\n      jump\t// in\n    tag_312:\n        /* \"#utility.yul\":14475:14578   */\n    tag_311:\n        /* \"#utility.yul\":14605:14606   */\n      0x01\n        /* \"#utility.yul\":14598:14603   */\n      dup3\n        /* \"#utility.yul\":14594:14607   */\n      add\n        /* \"#utility.yul\":14587:14607   */\n      swap1\n      pop\n        /* \"#utility.yul\":14380:14613   */\n      swap2\n      swap1\n      pop\n      jump\t// out\n        /* \"#utility.yul\":14619:14799   */\n    tag_313:\n        /* \"#utility.yul\":14667:14744   */\n      0x4e487b7100000000000000000000000000000000000000000000000000000000\n        /* \"#utility.yul\":14664:14665   */\n      0x00\n        /* \"#utility.yul\":14657:14745   */\n      mstore\n        /* \"#utility.yul\":14764:14768   */\n      0x11\n        /* \"#utility.yul\":14761:14762   */\n      0x04\n        /* \"#utility.yul\":14754:14769   */\n      mstore\n        /* \"#utility.yul\":14788:14792   */\n      0x24\n        /* \"#utility.yul\":14785:14786   */\n      0x00\n        /* \"#utility.yul\":14778:14793   */\n      revert\n        /* \"#utility.yul\":14805:14985   */\n    tag_39:\n        /* \"#utility.yul\":14853:14930   */\n      0x4e487b7100000000000000000000000000000000000000000000000000000000\n        /* \"#utility.yul\":14850:14851   */\n      0x00\n        /* \"#utility.yul\":14843:14931   */\n      mstore\n        /* \"#utility.yul\":14950:14954   */\n      0x21\n        /* \"#utility.yul\":14947:14948   */\n      0x04\n        /* \"#utility.yul\":14940:14955   */\n      mstore\n        /* \"#utility.yul\":14974:14978   */\n      0x24\n        /* \"#utility.yul\":14971:14972   */\n      0x00\n        /* \"#utility.yul\":14964:14979   */\n      revert\n        /* \"#utility.yul\":14991:15171   */\n    tag_304:\n        /* \"#utility.yul\":15039:15116   */\n      0x4e487b7100000000000000000000000000000000000000000000000000000000\n        /* \"#utility.yul\":15036:15037   */\n      0x00\n        /* \"#utility.yul\":15029:15117   */\n      mstore\n        /* \"#utility.yul\":15136:15140   */\n      0x22\n        /* \"#utility.yul\":15133:15134   */\n      0x04\n        /* \"#utility.yul\":15126:15141   */\n      mstore\n        /* \"#utility.yul\":15160:15164   */\n      0x24\n        /* \"#utility.yul\":15157:15158   */\n      0x00\n        /* \"#utility.yul\":15150:15165   */\n      revert\n        /* \"#utility.yul\":15177:15357   */\n    tag_274:\n        /* \"#utility.yul\":15225:15302   */\n      0x4e487b7100000000000000000000000000000000000000000000000000000000\n        /* \"#utility.yul\":15222:15223   */\n      0x00\n        /* \"#utility.yul\":15215:15303   */\n      mstore\n        /* \"#utility.yul\":15322:15326   */\n      0x41\n        /* \"#utility.yul\":15319:15320   */\n      0x04\n        /* \"#utility.yul\":15312:15327   */\n      mstore\n        /* \"#utility.yul\":15346:15350   */\n      0x24\n        /* \"#utility.yul\":15343:15344   */\n      0x00\n        /* \"#utility.yul\":15336:15351   */\n      revert\n        /* \"#utility.yul\":15363:15480   */\n    tag_138:\n        /* \"#utility.yul\":15472:15473   */\n      0x00\n        /* \"#utility.yul\":15469:15470   */\n      dup1\n        /* \"#utility.yul\":15462:15474   */\n      revert\n        /* \"#utility.yul\":15486:15603   */\n    tag_123:\n        /* \"#utility.yul\":15595:15596   */\n      0x00\n        /* \"#utility.yul\":15592:15593   */\n      dup1\n        /* \"#utility.yul\":15585:15597   */\n      revert\n        /* \"#utility.yul\":15609:15726   */\n    tag_158:\n        /* \"#utility.yul\":15718:15719   */\n      0x00\n        /* \"#utility.yul\":15715:15716   */\n      dup1\n        /* \"#utility.yul\":15708:15720   */\n      revert\n        /* \"#utility.yul\":15732:15849   */\n    tag_151:\n        /* \"#utility.yul\":15841:15842   */\n      0x00\n        /* \"#utility.yul\":15838:15839   */\n      dup1\n        /* \"#utility.yul\":15831:15843   */\n      revert\n        /* \"#utility.yul\":15855:15957   */\n    tag_208:\n        /* \"#utility.yul\":15896:15902   */\n      0x00\n        /* \"#utility.yul\":15947:15949   */\n      0x1f\n        /* \"#utility.yul\":15943:15950   */\n      not\n        /* \"#utility.yul\":15938:15940   */\n      0x1f\n        /* \"#utility.yul\":15931:15936   */\n      dup4\n        /* \"#utility.yul\":15927:15941   */\n      add\n        /* \"#utility.yul\":15923:15951   */\n      and\n        /* \"#utility.yul\":15913:15951   */\n      swap1\n      pop\n        /* \"#utility.yul\":15855:15957   */\n      swap2\n      swap1\n      pop\n      jump\t// out\n        /* \"#utility.yul\":15963:16130   */\n    tag_213:\n        /* \"#utility.yul\":16103:16122   */\n      0x4b697369206d657663757420646567696c000000000000000000000000000000\n        /* \"#utility.yul\":16099:16100   */\n      0x00\n        /* \"#utility.yul\":16091:16097   */\n      dup3\n        /* \"#utility.yul\":16087:16101   */\n      add\n        /* \"#utility.yul\":16080:16123   */\n      mstore\n        /* \"#utility.yul\":15963:16130   */\n      pop\n      jump\t// out\n        /* \"#utility.yul\":16136:16365   */\n    tag_218:\n        /* \"#utility.yul\":16276:16310   */\n      0x536164656365207965746b696c69207061796461732062752069736c656d6920\n        /* \"#utility.yul\":16272:16273   */\n      0x00\n        /* \"#utility.yul\":16264:16270   */\n      dup3\n        /* \"#utility.yul\":16260:16274   */\n      add\n        /* \"#utility.yul\":16253:16311   */\n      mstore\n        /* \"#utility.yul\":16345:16357   */\n      0x7961706162696c69722e00000000000000000000000000000000000000000000\n        /* \"#utility.yul\":16340:16342   */\n      0x20\n        /* \"#utility.yul\":16332:16338   */\n      dup3\n        /* \"#utility.yul\":16328:16343   */\n      add\n        /* \"#utility.yul\":16321:16358   */\n      mstore\n        /* \"#utility.yul\":16136:16365   */\n      pop\n      jump\t// out\n        /* \"#utility.yul\":16371:16536   */\n    tag_223:\n        /* \"#utility.yul\":16511:16528   */\n      0x4b6973692062756c756e616d6164690000000000000000000000000000000000\n        /* \"#utility.yul\":16507:16508   */\n      0x00\n        /* \"#utility.yul\":16499:16505   */\n      dup3\n        /* \"#utility.yul\":16495:16509   */\n      add\n        /* \"#utility.yul\":16488:16529   */\n      mstore\n        /* \"#utility.yul\":16371:16536   */\n      pop\n      jump\t// out\n        /* \"#utility.yul\":16542:16661   */\n    tag_286:\n        /* \"#utility.yul\":16629:16630   */\n      0x03\n        /* \"#utility.yul\":16622:16627   */\n      dup2\n        /* \"#utility.yul\":16619:16631   */\n      lt\n        /* \"#utility.yul\":16609:16655   */\n      tag_327\n      jumpi\n        /* \"#utility.yul\":16635:16653   */\n      tag_328\n      tag_39\n      jump\t// in\n    tag_328:\n        /* \"#utility.yul\":16609:16655   */\n    tag_327:\n        /* \"#utility.yul\":16542:16661   */\n      pop\n      jump\t// out\n        /* \"#utility.yul\":16667:16789   */\n    tag_129:\n        /* \"#utility.yul\":16740:16764   */\n      tag_330\n        /* \"#utility.yul\":16758:16763   */\n      dup2\n        /* \"#utility.yul\":16740:16764   */\n      tag_191\n      jump\t// in\n    tag_330:\n        /* \"#utility.yul\":16733:16738   */\n      dup2\n        /* \"#utility.yul\":16730:16765   */\n      eq\n        /* \"#utility.yul\":16720:16783   */\n      tag_331\n      jumpi\n        /* \"#utility.yul\":16779:16780   */\n      0x00\n        /* \"#utility.yul\":16776:16777   */\n      dup1\n        /* \"#utility.yul\":16769:16781   */\n      revert\n        /* \"#utility.yul\":16720:16783   */\n    tag_331:\n        /* \"#utility.yul\":16667:16789   */\n      pop\n      jump\t// out\n        /* \"#utility.yul\":16795:16911   */\n    tag_133:\n        /* \"#utility.yul\":16865:16886   */\n      tag_333\n        /* \"#utility.yul\":16880:16885   */\n      dup2\n        /* \"#utility.yul\":16865:16886   */\n      tag_281\n      jump\t// in\n    tag_333:\n        /* \"#utility.yul\":16858:16863   */\n      dup2\n        /* \"#utility.yul\":16855:16887   */\n      eq\n        /* \"#utility.yul\":16845:16905   */\n      tag_334\n      jumpi\n        /* \"#utility.yul\":16901:16902   */\n      0x00\n        /* \"#utility.yul\":16898:16899   */\n      dup1\n        /* \"#utility.yul\":16891:16903   */\n      revert\n        /* \"#utility.yul\":16845:16905   */\n    tag_334:\n        /* \"#utility.yul\":16795:16911   */\n      pop\n      jump\t// out\n        /* \"#utility.yul\":16917:17039   */\n    tag_143:\n        /* \"#utility.yul\":16990:17014   */\n      tag_336\n        /* \"#utility.yul\":17008:17013   */\n      dup2\n        /* \"#utility.yul\":16990:17014   */\n      tag_232\n      jump\t// in\n    tag_336:\n        /* \"#utility.yul\":16983:16988   */\n      dup2\n        /* \"#utility.yul\":16980:17015   */\n      eq\n        /* \"#utility.yul\":16970:17033   */\n      tag_337\n      jumpi\n        /* \"#utility.yul\":17029:17030   */\n      0x00\n        /* \"#utility.yul\":17026:17027   */\n      dup1\n        /* \"#utility.yul\":17019:17031   */\n      revert\n        /* \"#utility.yul\":16970:17033   */\n    tag_337:\n        /* \"#utility.yul\":16917:17039   */\n      pop\n      jump\t// out\n        /* \"#utility.yul\":17045:17163   */\n    tag_147:\n        /* \"#utility.yul\":17116:17138   */\n      tag_339\n        /* \"#utility.yul\":17132:17137   */\n      dup2\n        /* \"#utility.yul\":17116:17138   */\n      tag_243\n      jump\t// in\n    tag_339:\n        /* \"#utility.yul\":17109:17114   */\n      dup2\n        /* \"#utility.yul\":17106:17139   */\n      eq\n        /* \"#utility.yul\":17096:17157   */\n      tag_340\n      jumpi\n        /* \"#utility.yul\":17153:17154   */\n      0x00\n        /* \"#utility.yul\":17150:17151   */\n      dup1\n        /* \"#utility.yul\":17143:17155   */\n      revert\n        /* \"#utility.yul\":17096:17157   */\n    tag_340:\n        /* \"#utility.yul\":17045:17163   */\n      pop\n      jump\t// out\n\n    auxdata: 0xa26469706673582212202823be86d8f8f77276d4dea1c028df00d72518e46de7b89b77b128073b5a551364736f6c63430008070033\n}\n",
				"bytecode": {
					"linkReferences": {},
					"object": "60806040523480156200001157600080fd5b5060405162001b0e38038062001b0e833981810160405281019062000037919062000096565b80600160006101000a81548173ffffffffffffffffffffffffffffffffffffffff021916908373ffffffffffffffffffffffffffffffffffffffff160217905550506200011b565b600081519050620000908162000101565b92915050565b600060208284031215620000af57620000ae620000fc565b5b6000620000bf848285016200007f565b91505092915050565b6000620000d582620000dc565b9050919050565b600073ffffffffffffffffffffffffffffffffffffffff82169050919050565b600080fd5b6200010c81620000c8565b81146200011857600080fd5b50565b6119e3806200012b6000396000f3fe608060405234801561001057600080fd5b50600436106100575760003560e01c806313e5c3931461005c5780632281d48d146100915780636f9bce31146100c1578063af640d0f146100dd578063cca50940146100fb575b600080fd5b610076600480360381019061007191906111c5565b610117565b6040516100889695949392919061152f565b60405180910390f35b6100ab60048036038101906100a69190611205565b6102ba565b6040516100b89190611514565b60405180910390f35b6100db60048036038101906100d6919061129c565b610772565b005b6100e5610c3d565b6040516100f29190611514565b60405180910390f35b6101156004803603810190610110919061112e565b610c43565b005b6002602052816000526040600020602052806000526040600020600091509150508060000154908060010160009054906101000a900473ffffffffffffffffffffffffffffffffffffffff16908060020154908060030160009054906101000a900460ff169080600401805461018c9061170f565b80601f01602080910402602001604051908101604052809291908181526020018280546101b89061170f565b80156102055780601f106101da57610100808354040283529160200191610205565b820191906000526020600020905b8154815290600101906020018083116101e857829003601f168201915b50505050509080600501604051806060016040529081600082015481526020016001820160009054906101000a900473ffffffffffffffffffffffffffffffffffffffff1673ffffffffffffffffffffffffffffffffffffffff1673ffffffffffffffffffffffffffffffffffffffff1681526020016001820160149054906101000a900460ff16600281111561029f5761029e6117ea565b5b60028111156102b1576102b06117ea565b5b81525050905086565b6000600160009054906101000a900473ffffffffffffffffffffffffffffffffffffffff1673ffffffffffffffffffffffffffffffffffffffff1663e24047ca336040518263ffffffff1660e01b81526004016103179190611499565b60206040518083038186803b15801561032f57600080fd5b505afa158015610343573d6000803e3d6000fd5b505050506040513d601f19601f82011682018060405250810190610367919061131f565b6103a6576040517f08c379a000000000000000000000000000000000000000000000000000000000815260040161039d906114d4565b60405180910390fd5b600160009054906101000a900473ffffffffffffffffffffffffffffffffffffffff1673ffffffffffffffffffffffffffffffffffffffff1663b98ccefd876040518263ffffffff1660e01b81526004016104019190611499565b60206040518083038186803b15801561041957600080fd5b505afa15801561042d573d6000803e3d6000fd5b505050506040513d601f19601f82011682018060405250810190610451919061131f565b610490576040517f08c379a0000000000000000000000000000000000000000000000000000000008152600401610487906114f4565b60405180910390fd5b83600260008873ffffffffffffffffffffffffffffffffffffffff1673ffffffffffffffffffffffffffffffffffffffff16815260200190815260200160002060008781526020019081526020016000206002018190555082600260008873ffffffffffffffffffffffffffffffffffffffff1673ffffffffffffffffffffffffffffffffffffffff168152602001908152602001600020600087815260200190815260200160002060030160006101000a81548160ff021916908360ff16021790555081600260008873ffffffffffffffffffffffffffffffffffffffff1673ffffffffffffffffffffffffffffffffffffffff168152602001908152602001600020600087815260200190815260200160002060040190805190602001906105bb929190610fc7565b506001600260008873ffffffffffffffffffffffffffffffffffffffff1673ffffffffffffffffffffffffffffffffffffffff168152602001908152602001600020600087815260200190815260200160002060050160010160146101000a81548160ff02191690836002811115610636576106356117ea565b5b021790555042600260008873ffffffffffffffffffffffffffffffffffffffff1673ffffffffffffffffffffffffffffffffffffffff16815260200190815260200160002060008781526020019081526020016000206005016000018190555033600260008873ffffffffffffffffffffffffffffffffffffffff1673ffffffffffffffffffffffffffffffffffffffff168152602001908152602001600020600087815260200190815260200160002060050160010160006101000a81548173ffffffffffffffffffffffffffffffffffffffff021916908373ffffffffffffffffffffffffffffffffffffffff1602179055507ff9f415b36bab00ec7ce2b6169fba48d979ac445d0b84e81be942439e3b49298185858560405161075e93929190611598565b60405180910390a184905095945050505050565b600160009054906101000a900473ffffffffffffffffffffffffffffffffffffffff1673ffffffffffffffffffffffffffffffffffffffff1663e24047ca336040518263ffffffff1660e01b81526004016107cd9190611499565b60206040518083038186803b1580156107e557600080fd5b505afa1580156107f9573d6000803e3d6000fd5b505050506040513d601f19601f8201168201806040525081019061081d919061131f565b61085c576040517f08c379a0000000000000000000000000000000000000000000000000000000008152600401610853906114d4565b60405180910390fd5b600160009054906101000a900473ffffffffffffffffffffffffffffffffffffffff1673ffffffffffffffffffffffffffffffffffffffff1663b98ccefd856040518263ffffffff1660e01b81526004016108b79190611499565b60206040518083038186803b1580156108cf57600080fd5b505afa1580156108e3573d6000803e3d6000fd5b505050506040513d601f19601f82011682018060405250810190610907919061131f565b610946576040517f08c379a000000000000000000000000000000000000000000000000000000000815260040161093d906114f4565b60405180910390fd5b600080600081548092919061095a90611772565b91905055905083600260008773ffffffffffffffffffffffffffffffffffffffff1673ffffffffffffffffffffffffffffffffffffffff16815260200190815260200160002060008381526020019081526020016000206002018190555082600260008773ffffffffffffffffffffffffffffffffffffffff1673ffffffffffffffffffffffffffffffffffffffff168152602001908152602001600020600083815260200190815260200160002060030160006101000a81548160ff021916908360ff16021790555081600260008773ffffffffffffffffffffffffffffffffffffffff1673ffffffffffffffffffffffffffffffffffffffff16815260200190815260200160002060008381526020019081526020016000206004019080519060200190610a8b929190610fc7565b506001600260008773ffffffffffffffffffffffffffffffffffffffff1673ffffffffffffffffffffffffffffffffffffffff168152602001908152602001600020600083815260200190815260200160002060050160010160146101000a81548160ff02191690836002811115610b0657610b056117ea565b5b021790555042600260008773ffffffffffffffffffffffffffffffffffffffff1673ffffffffffffffffffffffffffffffffffffffff16815260200190815260200160002060008381526020019081526020016000206005016000018190555033600260008773ffffffffffffffffffffffffffffffffffffffff1673ffffffffffffffffffffffffffffffffffffffff168152602001908152602001600020600083815260200190815260200160002060050160010160006101000a81548173ffffffffffffffffffffffffffffffffffffffff021916908373ffffffffffffffffffffffffffffffffffffffff1602179055507f054b623f8c9e4f82dabe9fa4dcda7698d2759c99c1646c278deec0bc70c6f76c818585604051610c2e93929190611598565b60405180910390a15050505050565b60005481565b600160009054906101000a900473ffffffffffffffffffffffffffffffffffffffff1673ffffffffffffffffffffffffffffffffffffffff1663b98ccefd866040518263ffffffff1660e01b8152600401610c9e9190611499565b60206040518083038186803b158015610cb657600080fd5b505afa158015610cca573d6000803e3d6000fd5b505050506040513d601f19601f82011682018060405250810190610cee919061131f565b610d2d576040517f08c379a0000000000000000000000000000000000000000000000000000000008152600401610d24906114b4565b60405180910390fd5b6000806000815480929190610d4190611772565b91905055905084600260008873ffffffffffffffffffffffffffffffffffffffff1673ffffffffffffffffffffffffffffffffffffffff168152602001908152602001600020600083815260200190815260200160002060010160006101000a81548173ffffffffffffffffffffffffffffffffffffffff021916908373ffffffffffffffffffffffffffffffffffffffff16021790555083600260008873ffffffffffffffffffffffffffffffffffffffff1673ffffffffffffffffffffffffffffffffffffffff16815260200190815260200160002060008381526020019081526020016000206002018190555082600260008873ffffffffffffffffffffffffffffffffffffffff1673ffffffffffffffffffffffffffffffffffffffff168152602001908152602001600020600083815260200190815260200160002060030160006101000a81548160ff021916908360ff16021790555081600260008873ffffffffffffffffffffffffffffffffffffffff1673ffffffffffffffffffffffffffffffffffffffff16815260200190815260200160002060008381526020019081526020016000206004019080519060200190610f04929190610fc7565b506000600260008873ffffffffffffffffffffffffffffffffffffffff1673ffffffffffffffffffffffffffffffffffffffff168152602001908152602001600020600083815260200190815260200160002060050160010160146101000a81548160ff02191690836002811115610f7f57610f7e6117ea565b5b02179055507fdaf544d55f2b0d82bd37254f81a5f6f0d8709dbdf56a68c8566d3e1fcb159fb7818585604051610fb793929190611598565b60405180910390a1505050505050565b828054610fd39061170f565b90600052602060002090601f016020900481019282610ff5576000855561103c565b82601f1061100e57805160ff191683800117855561103c565b8280016001018555821561103c579182015b8281111561103b578251825591602001919060010190611020565b5b509050611049919061104d565b5090565b5b8082111561106657600081600090555060010161104e565b5090565b600061107d611078846115f4565b6115cf565b9050828152602081018484840111156110995761109861187c565b5b6110a48482856116cd565b509392505050565b6000813590506110bb81611951565b92915050565b6000815190506110d081611968565b92915050565b600082601f8301126110eb576110ea611877565b5b81356110fb84826020860161106a565b91505092915050565b6000813590506111138161197f565b92915050565b60008135905061112881611996565b92915050565b600080600080600060a0868803121561114a57611149611886565b5b6000611158888289016110ac565b9550506020611169888289016110ac565b945050604061117a88828901611104565b935050606061118b88828901611119565b925050608086013567ffffffffffffffff8111156111ac576111ab611881565b5b6111b8888289016110d6565b9150509295509295909350565b600080604083850312156111dc576111db611886565b5b60006111ea858286016110ac565b92505060206111fb85828601611104565b9150509250929050565b600080600080600060a0868803121561122157611220611886565b5b600061122f888289016110ac565b955050602061124088828901611104565b945050604061125188828901611104565b935050606061126288828901611119565b925050608086013567ffffffffffffffff81111561128357611282611881565b5b61128f888289016110d6565b9150509295509295909350565b600080600080608085870312156112b6576112b5611886565b5b60006112c4878288016110ac565b94505060206112d587828801611104565b93505060406112e687828801611119565b925050606085013567ffffffffffffffff81111561130757611306611881565b5b611313878288016110d6565b91505092959194509250565b60006020828403121561133557611334611886565b5b6000611343848285016110c1565b91505092915050565b61135581611641565b82525050565b61136481611641565b82525050565b611373816116a9565b82525050565b600061138482611625565b61138e8185611630565b935061139e8185602086016116dc565b6113a78161188b565b840191505092915050565b60006113bf601183611630565b91506113ca8261189c565b602082019050919050565b60006113e2602a83611630565b91506113ed826118c5565b604082019050919050565b6000611405600f83611630565b915061141082611914565b602082019050919050565b606082016000820151611431600085018261145d565b506020820151611444602085018261134c565b506040820151611457604085018261136a565b50505050565b61146681611692565b82525050565b61147581611692565b82525050565b611484816116bb565b82525050565b6114938161169c565b82525050565b60006020820190506114ae600083018461135b565b92915050565b600060208201905081810360008301526114cd816113b2565b9050919050565b600060208201905081810360008301526114ed816113d5565b9050919050565b6000602082019050818103600083015261150d816113f8565b9050919050565b6000602082019050611529600083018461146c565b92915050565b600061010082019050611545600083018961146c565b611552602083018861135b565b61155f604083018761146c565b61156c606083018661148a565b818103608083015261157e8185611379565b905061158d60a083018461141b565b979650505050505050565b60006060820190506115ad600083018661146c565b6115ba602083018561146c565b6115c7604083018461147b565b949350505050565b60006115d96115ea565b90506115e58282611741565b919050565b6000604051905090565b600067ffffffffffffffff82111561160f5761160e611848565b5b6116188261188b565b9050602081019050919050565b600081519050919050565b600082825260208201905092915050565b600061164c82611672565b9050919050565b60008115159050919050565b600081905061166d8261193d565b919050565b600073ffffffffffffffffffffffffffffffffffffffff82169050919050565b6000819050919050565b600060ff82169050919050565b60006116b48261165f565b9050919050565b60006116c68261169c565b9050919050565b82818337600083830152505050565b60005b838110156116fa5780820151818401526020810190506116df565b83811115611709576000848401525b50505050565b6000600282049050600182168061172757607f821691505b6020821081141561173b5761173a611819565b5b50919050565b61174a8261188b565b810181811067ffffffffffffffff8211171561176957611768611848565b5b80604052505050565b600061177d82611692565b91507fffffffffffffffffffffffffffffffffffffffffffffffffffffffffffffffff8214156117b0576117af6117bb565b5b600182019050919050565b7f4e487b7100000000000000000000000000000000000000000000000000000000600052601160045260246000fd5b7f4e487b7100000000000000000000000000000000000000000000000000000000600052602160045260246000fd5b7f4e487b7100000000000000000000000000000000000000000000000000000000600052602260045260246000fd5b7f4e487b7100000000000000000000000000000000000000000000000000000000600052604160045260246000fd5b600080fd5b600080fd5b600080fd5b600080fd5b6000601f19601f8301169050919050565b7f4b697369206d657663757420646567696c000000000000000000000000000000600082015250565b7f536164656365207965746b696c69207061796461732062752069736c656d692060008201527f7961706162696c69722e00000000000000000000000000000000000000000000602082015250565b7f4b6973692062756c756e616d6164690000000000000000000000000000000000600082015250565b6003811061194e5761194d6117ea565b5b50565b61195a81611641565b811461196557600080fd5b50565b61197181611653565b811461197c57600080fd5b50565b61198881611692565b811461199357600080fd5b50565b61199f8161169c565b81146119aa57600080fd5b5056fea26469706673582212202823be86d8f8f77276d4dea1c028df00d72518e46de7b89b77b128073b5a551364736f6c63430008070033",
					"opcodes": "PUSH1 0x80 PUSH1 0x40 MSTORE CALLVALUE DUP1 ISZERO PUSH3 0x11 JUMPI PUSH1 0x0 DUP1 REVERT JUMPDEST POP PUSH1 0x40 MLOAD PUSH3 0x1B0E CODESIZE SUB DUP1 PUSH3 0x1B0E DUP4 CODECOPY DUP2 DUP2 ADD PUSH1 0x40 MSTORE DUP2 ADD SWAP1 PUSH3 0x37 SWAP2 SWAP1 PUSH3 0x96 JUMP JUMPDEST DUP1 PUSH1 0x1 PUSH1 0x0 PUSH2 0x100 EXP DUP2 SLOAD DUP2 PUSH20 0xFFFFFFFFFFFFFFFFFFFFFFFFFFFFFFFFFFFFFFFF MUL NOT AND SWAP1 DUP4 PUSH20 0xFFFFFFFFFFFFFFFFFFFFFFFFFFFFFFFFFFFFFFFF AND MUL OR SWAP1 SSTORE POP POP PUSH3 0x11B JUMP JUMPDEST PUSH1 0x0 DUP2 MLOAD SWAP1 POP PUSH3 0x90 DUP2 PUSH3 0x101 JUMP JUMPDEST SWAP3 SWAP2 POP POP JUMP JUMPDEST PUSH1 0x0 PUSH1 0x20 DUP3 DUP5 SUB SLT ISZERO PUSH3 0xAF JUMPI PUSH3 0xAE PUSH3 0xFC JUMP JUMPDEST JUMPDEST PUSH1 0x0 PUSH3 0xBF DUP5 DUP3 DUP6 ADD PUSH3 0x7F JUMP JUMPDEST SWAP2 POP POP SWAP3 SWAP2 POP POP JUMP JUMPDEST PUSH1 0x0 PUSH3 0xD5 DUP3 PUSH3 0xDC JUMP JUMPDEST SWAP1 POP SWAP2 SWAP1 POP JUMP JUMPDEST PUSH1 0x0 PUSH20 0xFFFFFFFFFFFFFFFFFFFFFFFFFFFFFFFFFFFFFFFF DUP3 AND SWAP1 POP SWAP2 SWAP1 POP JUMP JUMPDEST PUSH1 0x0 DUP1 REVERT JUMPDEST PUSH3 0x10C DUP2 PUSH3 0xC8 JUMP JUMPDEST DUP2 EQ PUSH3 0x118 JUMPI PUSH1 0x0 DUP1 REVERT JUMPDEST POP JUMP JUMPDEST PUSH2 0x19E3 DUP1 PUSH3 0x12B PUSH1 0x0 CODECOPY PUSH1 0x0 RETURN INVALID PUSH1 0x80 PUSH1 0x40 MSTORE CALLVALUE DUP1 ISZERO PUSH2 0x10 JUMPI PUSH1 0x0 DUP1 REVERT JUMPDEST POP PUSH1 0x4 CALLDATASIZE LT PUSH2 0x57 JUMPI PUSH1 0x0 CALLDATALOAD PUSH1 0xE0 SHR DUP1 PUSH4 0x13E5C393 EQ PUSH2 0x5C JUMPI DUP1 PUSH4 0x2281D48D EQ PUSH2 0x91 JUMPI DUP1 PUSH4 0x6F9BCE31 EQ PUSH2 0xC1 JUMPI DUP1 PUSH4 0xAF640D0F EQ PUSH2 0xDD JUMPI DUP1 PUSH4 0xCCA50940 EQ PUSH2 0xFB JUMPI JUMPDEST PUSH1 0x0 DUP1 REVERT JUMPDEST PUSH2 0x76 PUSH1 0x4 DUP1 CALLDATASIZE SUB DUP2 ADD SWAP1 PUSH2 0x71 SWAP2 SWAP1 PUSH2 0x11C5 JUMP JUMPDEST PUSH2 0x117 JUMP JUMPDEST PUSH1 0x40 MLOAD PUSH2 0x88 SWAP7 SWAP6 SWAP5 SWAP4 SWAP3 SWAP2 SWAP1 PUSH2 0x152F JUMP JUMPDEST PUSH1 0x40 MLOAD DUP1 SWAP2 SUB SWAP1 RETURN JUMPDEST PUSH2 0xAB PUSH1 0x4 DUP1 CALLDATASIZE SUB DUP2 ADD SWAP1 PUSH2 0xA6 SWAP2 SWAP1 PUSH2 0x1205 JUMP JUMPDEST PUSH2 0x2BA JUMP JUMPDEST PUSH1 0x40 MLOAD PUSH2 0xB8 SWAP2 SWAP1 PUSH2 0x1514 JUMP JUMPDEST PUSH1 0x40 MLOAD DUP1 SWAP2 SUB SWAP1 RETURN JUMPDEST PUSH2 0xDB PUSH1 0x4 DUP1 CALLDATASIZE SUB DUP2 ADD SWAP1 PUSH2 0xD6 SWAP2 SWAP1 PUSH2 0x129C JUMP JUMPDEST PUSH2 0x772 JUMP JUMPDEST STOP JUMPDEST PUSH2 0xE5 PUSH2 0xC3D JUMP JUMPDEST PUSH1 0x40 MLOAD PUSH2 0xF2 SWAP2 SWAP1 PUSH2 0x1514 JUMP JUMPDEST PUSH1 0x40 MLOAD DUP1 SWAP2 SUB SWAP1 RETURN JUMPDEST PUSH2 0x115 PUSH1 0x4 DUP1 CALLDATASIZE SUB DUP2 ADD SWAP1 PUSH2 0x110 SWAP2 SWAP1 PUSH2 0x112E JUMP JUMPDEST PUSH2 0xC43 JUMP JUMPDEST STOP JUMPDEST PUSH1 0x2 PUSH1 0x20 MSTORE DUP2 PUSH1 0x0 MSTORE PUSH1 0x40 PUSH1 0x0 KECCAK256 PUSH1 0x20 MSTORE DUP1 PUSH1 0x0 MSTORE PUSH1 0x40 PUSH1 0x0 KECCAK256 PUSH1 0x0 SWAP2 POP SWAP2 POP POP DUP1 PUSH1 0x0 ADD SLOAD SWAP1 DUP1 PUSH1 0x1 ADD PUSH1 0x0 SWAP1 SLOAD SWAP1 PUSH2 0x100 EXP SWAP1 DIV PUSH20 0xFFFFFFFFFFFFFFFFFFFFFFFFFFFFFFFFFFFFFFFF AND SWAP1 DUP1 PUSH1 0x2 ADD SLOAD SWAP1 DUP1 PUSH1 0x3 ADD PUSH1 0x0 SWAP1 SLOAD SWAP1 PUSH2 0x100 EXP SWAP1 DIV PUSH1 0xFF AND SWAP1 DUP1 PUSH1 0x4 ADD DUP1 SLOAD PUSH2 0x18C SWAP1 PUSH2 0x170F JUMP JUMPDEST DUP1 PUSH1 0x1F ADD PUSH1 0x20 DUP1 SWAP2 DIV MUL PUSH1 0x20 ADD PUSH1 0x40 MLOAD SWAP1 DUP2 ADD PUSH1 0x40 MSTORE DUP1 SWAP3 SWAP2 SWAP1 DUP2 DUP2 MSTORE PUSH1 0x20 ADD DUP3 DUP1 SLOAD PUSH2 0x1B8 SWAP1 PUSH2 0x170F JUMP JUMPDEST DUP1 ISZERO PUSH2 0x205 JUMPI DUP1 PUSH1 0x1F LT PUSH2 0x1DA JUMPI PUSH2 0x100 DUP1 DUP4 SLOAD DIV MUL DUP4 MSTORE SWAP2 PUSH1 0x20 ADD SWAP2 PUSH2 0x205 JUMP JUMPDEST DUP3 ADD SWAP2 SWAP1 PUSH1 0x0 MSTORE PUSH1 0x20 PUSH1 0x0 KECCAK256 SWAP1 JUMPDEST DUP2 SLOAD DUP2 MSTORE SWAP1 PUSH1 0x1 ADD SWAP1 PUSH1 0x20 ADD DUP1 DUP4 GT PUSH2 0x1E8 JUMPI DUP3 SWAP1 SUB PUSH1 0x1F AND DUP3 ADD SWAP2 JUMPDEST POP POP POP POP POP SWAP1 DUP1 PUSH1 0x5 ADD PUSH1 0x40 MLOAD DUP1 PUSH1 0x60 ADD PUSH1 0x40 MSTORE SWAP1 DUP2 PUSH1 0x0 DUP3 ADD SLOAD DUP2 MSTORE PUSH1 0x20 ADD PUSH1 0x1 DUP3 ADD PUSH1 0x0 SWAP1 SLOAD SWAP1 PUSH2 0x100 EXP SWAP1 DIV PUSH20 0xFFFFFFFFFFFFFFFFFFFFFFFFFFFFFFFFFFFFFFFF AND PUSH20 0xFFFFFFFFFFFFFFFFFFFFFFFFFFFFFFFFFFFFFFFF AND PUSH20 0xFFFFFFFFFFFFFFFFFFFFFFFFFFFFFFFFFFFFFFFF AND DUP2 MSTORE PUSH1 0x20 ADD PUSH1 0x1 DUP3 ADD PUSH1 0x14 SWAP1 SLOAD SWAP1 PUSH2 0x100 EXP SWAP1 DIV PUSH1 0xFF AND PUSH1 0x2 DUP2 GT ISZERO PUSH2 0x29F JUMPI PUSH2 0x29E PUSH2 0x17EA JUMP JUMPDEST JUMPDEST PUSH1 0x2 DUP2 GT ISZERO PUSH2 0x2B1 JUMPI PUSH2 0x2B0 PUSH2 0x17EA JUMP JUMPDEST JUMPDEST DUP2 MSTORE POP POP SWAP1 POP DUP7 JUMP JUMPDEST PUSH1 0x0 PUSH1 0x1 PUSH1 0x0 SWAP1 SLOAD SWAP1 PUSH2 0x100 EXP SWAP1 DIV PUSH20 0xFFFFFFFFFFFFFFFFFFFFFFFFFFFFFFFFFFFFFFFF AND PUSH20 0xFFFFFFFFFFFFFFFFFFFFFFFFFFFFFFFFFFFFFFFF AND PUSH4 0xE24047CA CALLER PUSH1 0x40 MLOAD DUP3 PUSH4 0xFFFFFFFF AND PUSH1 0xE0 SHL DUP2 MSTORE PUSH1 0x4 ADD PUSH2 0x317 SWAP2 SWAP1 PUSH2 0x1499 JUMP JUMPDEST PUSH1 0x20 PUSH1 0x40 MLOAD DUP1 DUP4 SUB DUP2 DUP7 DUP1 EXTCODESIZE ISZERO DUP1 ISZERO PUSH2 0x32F JUMPI PUSH1 0x0 DUP1 REVERT JUMPDEST POP GAS STATICCALL ISZERO DUP1 ISZERO PUSH2 0x343 JUMPI RETURNDATASIZE PUSH1 0x0 DUP1 RETURNDATACOPY RETURNDATASIZE PUSH1 0x0 REVERT JUMPDEST POP POP POP POP PUSH1 0x40 MLOAD RETURNDATASIZE PUSH1 0x1F NOT PUSH1 0x1F DUP3 ADD AND DUP3 ADD DUP1 PUSH1 0x40 MSTORE POP DUP2 ADD SWAP1 PUSH2 0x367 SWAP2 SWAP1 PUSH2 0x131F JUMP JUMPDEST PUSH2 0x3A6 JUMPI PUSH1 0x40 MLOAD PUSH32 0x8C379A000000000000000000000000000000000000000000000000000000000 DUP2 MSTORE PUSH1 0x4 ADD PUSH2 0x39D SWAP1 PUSH2 0x14D4 JUMP JUMPDEST PUSH1 0x40 MLOAD DUP1 SWAP2 SUB SWAP1 REVERT JUMPDEST PUSH1 0x1 PUSH1 0x0 SWAP1 SLOAD SWAP1 PUSH2 0x100 EXP SWAP1 DIV PUSH20 0xFFFFFFFFFFFFFFFFFFFFFFFFFFFFFFFFFFFFFFFF AND PUSH20 0xFFFFFFFFFFFFFFFFFFFFFFFFFFFFFFFFFFFFFFFF AND PUSH4 0xB98CCEFD DUP8 PUSH1 0x40 MLOAD DUP3 PUSH4 0xFFFFFFFF AND PUSH1 0xE0 SHL DUP2 MSTORE PUSH1 0x4 ADD PUSH2 0x401 SWAP2 SWAP1 PUSH2 0x1499 JUMP JUMPDEST PUSH1 0x20 PUSH1 0x40 MLOAD DUP1 DUP4 SUB DUP2 DUP7 DUP1 EXTCODESIZE ISZERO DUP1 ISZERO PUSH2 0x419 JUMPI PUSH1 0x0 DUP1 REVERT JUMPDEST POP GAS STATICCALL ISZERO DUP1 ISZERO PUSH2 0x42D JUMPI RETURNDATASIZE PUSH1 0x0 DUP1 RETURNDATACOPY RETURNDATASIZE PUSH1 0x0 REVERT JUMPDEST POP POP POP POP PUSH1 0x40 MLOAD RETURNDATASIZE PUSH1 0x1F NOT PUSH1 0x1F DUP3 ADD AND DUP3 ADD DUP1 PUSH1 0x40 MSTORE POP DUP2 ADD SWAP1 PUSH2 0x451 SWAP2 SWAP1 PUSH2 0x131F JUMP JUMPDEST PUSH2 0x490 JUMPI PUSH1 0x40 MLOAD PUSH32 0x8C379A000000000000000000000000000000000000000000000000000000000 DUP2 MSTORE PUSH1 0x4 ADD PUSH2 0x487 SWAP1 PUSH2 0x14F4 JUMP JUMPDEST PUSH1 0x40 MLOAD DUP1 SWAP2 SUB SWAP1 REVERT JUMPDEST DUP4 PUSH1 0x2 PUSH1 0x0 DUP9 PUSH20 0xFFFFFFFFFFFFFFFFFFFFFFFFFFFFFFFFFFFFFFFF AND PUSH20 0xFFFFFFFFFFFFFFFFFFFFFFFFFFFFFFFFFFFFFFFF AND DUP2 MSTORE PUSH1 0x20 ADD SWAP1 DUP2 MSTORE PUSH1 0x20 ADD PUSH1 0x0 KECCAK256 PUSH1 0x0 DUP8 DUP2 MSTORE PUSH1 0x20 ADD SWAP1 DUP2 MSTORE PUSH1 0x20 ADD PUSH1 0x0 KECCAK256 PUSH1 0x2 ADD DUP2 SWAP1 SSTORE POP DUP3 PUSH1 0x2 PUSH1 0x0 DUP9 PUSH20 0xFFFFFFFFFFFFFFFFFFFFFFFFFFFFFFFFFFFFFFFF AND PUSH20 0xFFFFFFFFFFFFFFFFFFFFFFFFFFFFFFFFFFFFFFFF AND DUP2 MSTORE PUSH1 0x20 ADD SWAP1 DUP2 MSTORE PUSH1 0x20 ADD PUSH1 0x0 KECCAK256 PUSH1 0x0 DUP8 DUP2 MSTORE PUSH1 0x20 ADD SWAP1 DUP2 MSTORE PUSH1 0x20 ADD PUSH1 0x0 KECCAK256 PUSH1 0x3 ADD PUSH1 0x0 PUSH2 0x100 EXP DUP2 SLOAD DUP2 PUSH1 0xFF MUL NOT AND SWAP1 DUP4 PUSH1 0xFF AND MUL OR SWAP1 SSTORE POP DUP2 PUSH1 0x2 PUSH1 0x0 DUP9 PUSH20 0xFFFFFFFFFFFFFFFFFFFFFFFFFFFFFFFFFFFFFFFF AND PUSH20 0xFFFFFFFFFFFFFFFFFFFFFFFFFFFFFFFFFFFFFFFF AND DUP2 MSTORE PUSH1 0x20 ADD SWAP1 DUP2 MSTORE PUSH1 0x20 ADD PUSH1 0x0 KECCAK256 PUSH1 0x0 DUP8 DUP2 MSTORE PUSH1 0x20 ADD SWAP1 DUP2 MSTORE PUSH1 0x20 ADD PUSH1 0x0 KECCAK256 PUSH1 0x4 ADD SWAP1 DUP1 MLOAD SWAP1 PUSH1 0x20 ADD SWAP1 PUSH2 0x5BB SWAP3 SWAP2 SWAP1 PUSH2 0xFC7 JUMP JUMPDEST POP PUSH1 0x1 PUSH1 0x2 PUSH1 0x0 DUP9 PUSH20 0xFFFFFFFFFFFFFFFFFFFFFFFFFFFFFFFFFFFFFFFF AND PUSH20 0xFFFFFFFFFFFFFFFFFFFFFFFFFFFFFFFFFFFFFFFF AND DUP2 MSTORE PUSH1 0x20 ADD SWAP1 DUP2 MSTORE PUSH1 0x20 ADD PUSH1 0x0 KECCAK256 PUSH1 0x0 DUP8 DUP2 MSTORE PUSH1 0x20 ADD SWAP1 DUP2 MSTORE PUSH1 0x20 ADD PUSH1 0x0 KECCAK256 PUSH1 0x5 ADD PUSH1 0x1 ADD PUSH1 0x14 PUSH2 0x100 EXP DUP2 SLOAD DUP2 PUSH1 0xFF MUL NOT AND SWAP1 DUP4 PUSH1 0x2 DUP2 GT ISZERO PUSH2 0x636 JUMPI PUSH2 0x635 PUSH2 0x17EA JUMP JUMPDEST JUMPDEST MUL OR SWAP1 SSTORE POP TIMESTAMP PUSH1 0x2 PUSH1 0x0 DUP9 PUSH20 0xFFFFFFFFFFFFFFFFFFFFFFFFFFFFFFFFFFFFFFFF AND PUSH20 0xFFFFFFFFFFFFFFFFFFFFFFFFFFFFFFFFFFFFFFFF AND DUP2 MSTORE PUSH1 0x20 ADD SWAP1 DUP2 MSTORE PUSH1 0x20 ADD PUSH1 0x0 KECCAK256 PUSH1 0x0 DUP8 DUP2 MSTORE PUSH1 0x20 ADD SWAP1 DUP2 MSTORE PUSH1 0x20 ADD PUSH1 0x0 KECCAK256 PUSH1 0x5 ADD PUSH1 0x0 ADD DUP2 SWAP1 SSTORE POP CALLER PUSH1 0x2 PUSH1 0x0 DUP9 PUSH20 0xFFFFFFFFFFFFFFFFFFFFFFFFFFFFFFFFFFFFFFFF AND PUSH20 0xFFFFFFFFFFFFFFFFFFFFFFFFFFFFFFFFFFFFFFFF AND DUP2 MSTORE PUSH1 0x20 ADD SWAP1 DUP2 MSTORE PUSH1 0x20 ADD PUSH1 0x0 KECCAK256 PUSH1 0x0 DUP8 DUP2 MSTORE PUSH1 0x20 ADD SWAP1 DUP2 MSTORE PUSH1 0x20 ADD PUSH1 0x0 KECCAK256 PUSH1 0x5 ADD PUSH1 0x1 ADD PUSH1 0x0 PUSH2 0x100 EXP DUP2 SLOAD DUP2 PUSH20 0xFFFFFFFFFFFFFFFFFFFFFFFFFFFFFFFFFFFFFFFF MUL NOT AND SWAP1 DUP4 PUSH20 0xFFFFFFFFFFFFFFFFFFFFFFFFFFFFFFFFFFFFFFFF AND MUL OR SWAP1 SSTORE POP PUSH32 0xF9F415B36BAB00EC7CE2B6169FBA48D979AC445D0B84E81BE942439E3B492981 DUP6 DUP6 DUP6 PUSH1 0x40 MLOAD PUSH2 0x75E SWAP4 SWAP3 SWAP2 SWAP1 PUSH2 0x1598 JUMP JUMPDEST PUSH1 0x40 MLOAD DUP1 SWAP2 SUB SWAP1 LOG1 DUP5 SWAP1 POP SWAP6 SWAP5 POP POP POP POP POP JUMP JUMPDEST PUSH1 0x1 PUSH1 0x0 SWAP1 SLOAD SWAP1 PUSH2 0x100 EXP SWAP1 DIV PUSH20 0xFFFFFFFFFFFFFFFFFFFFFFFFFFFFFFFFFFFFFFFF AND PUSH20 0xFFFFFFFFFFFFFFFFFFFFFFFFFFFFFFFFFFFFFFFF AND PUSH4 0xE24047CA CALLER PUSH1 0x40 MLOAD DUP3 PUSH4 0xFFFFFFFF AND PUSH1 0xE0 SHL DUP2 MSTORE PUSH1 0x4 ADD PUSH2 0x7CD SWAP2 SWAP1 PUSH2 0x1499 JUMP JUMPDEST PUSH1 0x20 PUSH1 0x40 MLOAD DUP1 DUP4 SUB DUP2 DUP7 DUP1 EXTCODESIZE ISZERO DUP1 ISZERO PUSH2 0x7E5 JUMPI PUSH1 0x0 DUP1 REVERT JUMPDEST POP GAS STATICCALL ISZERO DUP1 ISZERO PUSH2 0x7F9 JUMPI RETURNDATASIZE PUSH1 0x0 DUP1 RETURNDATACOPY RETURNDATASIZE PUSH1 0x0 REVERT JUMPDEST POP POP POP POP PUSH1 0x40 MLOAD RETURNDATASIZE PUSH1 0x1F NOT PUSH1 0x1F DUP3 ADD AND DUP3 ADD DUP1 PUSH1 0x40 MSTORE POP DUP2 ADD SWAP1 PUSH2 0x81D SWAP2 SWAP1 PUSH2 0x131F JUMP JUMPDEST PUSH2 0x85C JUMPI PUSH1 0x40 MLOAD PUSH32 0x8C379A000000000000000000000000000000000000000000000000000000000 DUP2 MSTORE PUSH1 0x4 ADD PUSH2 0x853 SWAP1 PUSH2 0x14D4 JUMP JUMPDEST PUSH1 0x40 MLOAD DUP1 SWAP2 SUB SWAP1 REVERT JUMPDEST PUSH1 0x1 PUSH1 0x0 SWAP1 SLOAD SWAP1 PUSH2 0x100 EXP SWAP1 DIV PUSH20 0xFFFFFFFFFFFFFFFFFFFFFFFFFFFFFFFFFFFFFFFF AND PUSH20 0xFFFFFFFFFFFFFFFFFFFFFFFFFFFFFFFFFFFFFFFF AND PUSH4 0xB98CCEFD DUP6 PUSH1 0x40 MLOAD DUP3 PUSH4 0xFFFFFFFF AND PUSH1 0xE0 SHL DUP2 MSTORE PUSH1 0x4 ADD PUSH2 0x8B7 SWAP2 SWAP1 PUSH2 0x1499 JUMP JUMPDEST PUSH1 0x20 PUSH1 0x40 MLOAD DUP1 DUP4 SUB DUP2 DUP7 DUP1 EXTCODESIZE ISZERO DUP1 ISZERO PUSH2 0x8CF JUMPI PUSH1 0x0 DUP1 REVERT JUMPDEST POP GAS STATICCALL ISZERO DUP1 ISZERO PUSH2 0x8E3 JUMPI RETURNDATASIZE PUSH1 0x0 DUP1 RETURNDATACOPY RETURNDATASIZE PUSH1 0x0 REVERT JUMPDEST POP POP POP POP PUSH1 0x40 MLOAD RETURNDATASIZE PUSH1 0x1F NOT PUSH1 0x1F DUP3 ADD AND DUP3 ADD DUP1 PUSH1 0x40 MSTORE POP DUP2 ADD SWAP1 PUSH2 0x907 SWAP2 SWAP1 PUSH2 0x131F JUMP JUMPDEST PUSH2 0x946 JUMPI PUSH1 0x40 MLOAD PUSH32 0x8C379A000000000000000000000000000000000000000000000000000000000 DUP2 MSTORE PUSH1 0x4 ADD PUSH2 0x93D SWAP1 PUSH2 0x14F4 JUMP JUMPDEST PUSH1 0x40 MLOAD DUP1 SWAP2 SUB SWAP1 REVERT JUMPDEST PUSH1 0x0 DUP1 PUSH1 0x0 DUP2 SLOAD DUP1 SWAP3 SWAP2 SWAP1 PUSH2 0x95A SWAP1 PUSH2 0x1772 JUMP JUMPDEST SWAP2 SWAP1 POP SSTORE SWAP1 POP DUP4 PUSH1 0x2 PUSH1 0x0 DUP8 PUSH20 0xFFFFFFFFFFFFFFFFFFFFFFFFFFFFFFFFFFFFFFFF AND PUSH20 0xFFFFFFFFFFFFFFFFFFFFFFFFFFFFFFFFFFFFFFFF AND DUP2 MSTORE PUSH1 0x20 ADD SWAP1 DUP2 MSTORE PUSH1 0x20 ADD PUSH1 0x0 KECCAK256 PUSH1 0x0 DUP4 DUP2 MSTORE PUSH1 0x20 ADD SWAP1 DUP2 MSTORE PUSH1 0x20 ADD PUSH1 0x0 KECCAK256 PUSH1 0x2 ADD DUP2 SWAP1 SSTORE POP DUP3 PUSH1 0x2 PUSH1 0x0 DUP8 PUSH20 0xFFFFFFFFFFFFFFFFFFFFFFFFFFFFFFFFFFFFFFFF AND PUSH20 0xFFFFFFFFFFFFFFFFFFFFFFFFFFFFFFFFFFFFFFFF AND DUP2 MSTORE PUSH1 0x20 ADD SWAP1 DUP2 MSTORE PUSH1 0x20 ADD PUSH1 0x0 KECCAK256 PUSH1 0x0 DUP4 DUP2 MSTORE PUSH1 0x20 ADD SWAP1 DUP2 MSTORE PUSH1 0x20 ADD PUSH1 0x0 KECCAK256 PUSH1 0x3 ADD PUSH1 0x0 PUSH2 0x100 EXP DUP2 SLOAD DUP2 PUSH1 0xFF MUL NOT AND SWAP1 DUP4 PUSH1 0xFF AND MUL OR SWAP1 SSTORE POP DUP2 PUSH1 0x2 PUSH1 0x0 DUP8 PUSH20 0xFFFFFFFFFFFFFFFFFFFFFFFFFFFFFFFFFFFFFFFF AND PUSH20 0xFFFFFFFFFFFFFFFFFFFFFFFFFFFFFFFFFFFFFFFF AND DUP2 MSTORE PUSH1 0x20 ADD SWAP1 DUP2 MSTORE PUSH1 0x20 ADD PUSH1 0x0 KECCAK256 PUSH1 0x0 DUP4 DUP2 MSTORE PUSH1 0x20 ADD SWAP1 DUP2 MSTORE PUSH1 0x20 ADD PUSH1 0x0 KECCAK256 PUSH1 0x4 ADD SWAP1 DUP1 MLOAD SWAP1 PUSH1 0x20 ADD SWAP1 PUSH2 0xA8B SWAP3 SWAP2 SWAP1 PUSH2 0xFC7 JUMP JUMPDEST POP PUSH1 0x1 PUSH1 0x2 PUSH1 0x0 DUP8 PUSH20 0xFFFFFFFFFFFFFFFFFFFFFFFFFFFFFFFFFFFFFFFF AND PUSH20 0xFFFFFFFFFFFFFFFFFFFFFFFFFFFFFFFFFFFFFFFF AND DUP2 MSTORE PUSH1 0x20 ADD SWAP1 DUP2 MSTORE PUSH1 0x20 ADD PUSH1 0x0 KECCAK256 PUSH1 0x0 DUP4 DUP2 MSTORE PUSH1 0x20 ADD SWAP1 DUP2 MSTORE PUSH1 0x20 ADD PUSH1 0x0 KECCAK256 PUSH1 0x5 ADD PUSH1 0x1 ADD PUSH1 0x14 PUSH2 0x100 EXP DUP2 SLOAD DUP2 PUSH1 0xFF MUL NOT AND SWAP1 DUP4 PUSH1 0x2 DUP2 GT ISZERO PUSH2 0xB06 JUMPI PUSH2 0xB05 PUSH2 0x17EA JUMP JUMPDEST JUMPDEST MUL OR SWAP1 SSTORE POP TIMESTAMP PUSH1 0x2 PUSH1 0x0 DUP8 PUSH20 0xFFFFFFFFFFFFFFFFFFFFFFFFFFFFFFFFFFFFFFFF AND PUSH20 0xFFFFFFFFFFFFFFFFFFFFFFFFFFFFFFFFFFFFFFFF AND DUP2 MSTORE PUSH1 0x20 ADD SWAP1 DUP2 MSTORE PUSH1 0x20 ADD PUSH1 0x0 KECCAK256 PUSH1 0x0 DUP4 DUP2 MSTORE PUSH1 0x20 ADD SWAP1 DUP2 MSTORE PUSH1 0x20 ADD PUSH1 0x0 KECCAK256 PUSH1 0x5 ADD PUSH1 0x0 ADD DUP2 SWAP1 SSTORE POP CALLER PUSH1 0x2 PUSH1 0x0 DUP8 PUSH20 0xFFFFFFFFFFFFFFFFFFFFFFFFFFFFFFFFFFFFFFFF AND PUSH20 0xFFFFFFFFFFFFFFFFFFFFFFFFFFFFFFFFFFFFFFFF AND DUP2 MSTORE PUSH1 0x20 ADD SWAP1 DUP2 MSTORE PUSH1 0x20 ADD PUSH1 0x0 KECCAK256 PUSH1 0x0 DUP4 DUP2 MSTORE PUSH1 0x20 ADD SWAP1 DUP2 MSTORE PUSH1 0x20 ADD PUSH1 0x0 KECCAK256 PUSH1 0x5 ADD PUSH1 0x1 ADD PUSH1 0x0 PUSH2 0x100 EXP DUP2 SLOAD DUP2 PUSH20 0xFFFFFFFFFFFFFFFFFFFFFFFFFFFFFFFFFFFFFFFF MUL NOT AND SWAP1 DUP4 PUSH20 0xFFFFFFFFFFFFFFFFFFFFFFFFFFFFFFFFFFFFFFFF AND MUL OR SWAP1 SSTORE POP PUSH32 0x54B623F8C9E4F82DABE9FA4DCDA7698D2759C99C1646C278DEEC0BC70C6F76C DUP2 DUP6 DUP6 PUSH1 0x40 MLOAD PUSH2 0xC2E SWAP4 SWAP3 SWAP2 SWAP1 PUSH2 0x1598 JUMP JUMPDEST PUSH1 0x40 MLOAD DUP1 SWAP2 SUB SWAP1 LOG1 POP POP POP POP POP JUMP JUMPDEST PUSH1 0x0 SLOAD DUP2 JUMP JUMPDEST PUSH1 0x1 PUSH1 0x0 SWAP1 SLOAD SWAP1 PUSH2 0x100 EXP SWAP1 DIV PUSH20 0xFFFFFFFFFFFFFFFFFFFFFFFFFFFFFFFFFFFFFFFF AND PUSH20 0xFFFFFFFFFFFFFFFFFFFFFFFFFFFFFFFFFFFFFFFF AND PUSH4 0xB98CCEFD DUP7 PUSH1 0x40 MLOAD DUP3 PUSH4 0xFFFFFFFF AND PUSH1 0xE0 SHL DUP2 MSTORE PUSH1 0x4 ADD PUSH2 0xC9E SWAP2 SWAP1 PUSH2 0x1499 JUMP JUMPDEST PUSH1 0x20 PUSH1 0x40 MLOAD DUP1 DUP4 SUB DUP2 DUP7 DUP1 EXTCODESIZE ISZERO DUP1 ISZERO PUSH2 0xCB6 JUMPI PUSH1 0x0 DUP1 REVERT JUMPDEST POP GAS STATICCALL ISZERO DUP1 ISZERO PUSH2 0xCCA JUMPI RETURNDATASIZE PUSH1 0x0 DUP1 RETURNDATACOPY RETURNDATASIZE PUSH1 0x0 REVERT JUMPDEST POP POP POP POP PUSH1 0x40 MLOAD RETURNDATASIZE PUSH1 0x1F NOT PUSH1 0x1F DUP3 ADD AND DUP3 ADD DUP1 PUSH1 0x40 MSTORE POP DUP2 ADD SWAP1 PUSH2 0xCEE SWAP2 SWAP1 PUSH2 0x131F JUMP JUMPDEST PUSH2 0xD2D JUMPI PUSH1 0x40 MLOAD PUSH32 0x8C379A000000000000000000000000000000000000000000000000000000000 DUP2 MSTORE PUSH1 0x4 ADD PUSH2 0xD24 SWAP1 PUSH2 0x14B4 JUMP JUMPDEST PUSH1 0x40 MLOAD DUP1 SWAP2 SUB SWAP1 REVERT JUMPDEST PUSH1 0x0 DUP1 PUSH1 0x0 DUP2 SLOAD DUP1 SWAP3 SWAP2 SWAP1 PUSH2 0xD41 SWAP1 PUSH2 0x1772 JUMP JUMPDEST SWAP2 SWAP1 POP SSTORE SWAP1 POP DUP5 PUSH1 0x2 PUSH1 0x0 DUP9 PUSH20 0xFFFFFFFFFFFFFFFFFFFFFFFFFFFFFFFFFFFFFFFF AND PUSH20 0xFFFFFFFFFFFFFFFFFFFFFFFFFFFFFFFFFFFFFFFF AND DUP2 MSTORE PUSH1 0x20 ADD SWAP1 DUP2 MSTORE PUSH1 0x20 ADD PUSH1 0x0 KECCAK256 PUSH1 0x0 DUP4 DUP2 MSTORE PUSH1 0x20 ADD SWAP1 DUP2 MSTORE PUSH1 0x20 ADD PUSH1 0x0 KECCAK256 PUSH1 0x1 ADD PUSH1 0x0 PUSH2 0x100 EXP DUP2 SLOAD DUP2 PUSH20 0xFFFFFFFFFFFFFFFFFFFFFFFFFFFFFFFFFFFFFFFF MUL NOT AND SWAP1 DUP4 PUSH20 0xFFFFFFFFFFFFFFFFFFFFFFFFFFFFFFFFFFFFFFFF AND MUL OR SWAP1 SSTORE POP DUP4 PUSH1 0x2 PUSH1 0x0 DUP9 PUSH20 0xFFFFFFFFFFFFFFFFFFFFFFFFFFFFFFFFFFFFFFFF AND PUSH20 0xFFFFFFFFFFFFFFFFFFFFFFFFFFFFFFFFFFFFFFFF AND DUP2 MSTORE PUSH1 0x20 ADD SWAP1 DUP2 MSTORE PUSH1 0x20 ADD PUSH1 0x0 KECCAK256 PUSH1 0x0 DUP4 DUP2 MSTORE PUSH1 0x20 ADD SWAP1 DUP2 MSTORE PUSH1 0x20 ADD PUSH1 0x0 KECCAK256 PUSH1 0x2 ADD DUP2 SWAP1 SSTORE POP DUP3 PUSH1 0x2 PUSH1 0x0 DUP9 PUSH20 0xFFFFFFFFFFFFFFFFFFFFFFFFFFFFFFFFFFFFFFFF AND PUSH20 0xFFFFFFFFFFFFFFFFFFFFFFFFFFFFFFFFFFFFFFFF AND DUP2 MSTORE PUSH1 0x20 ADD SWAP1 DUP2 MSTORE PUSH1 0x20 ADD PUSH1 0x0 KECCAK256 PUSH1 0x0 DUP4 DUP2 MSTORE PUSH1 0x20 ADD SWAP1 DUP2 MSTORE PUSH1 0x20 ADD PUSH1 0x0 KECCAK256 PUSH1 0x3 ADD PUSH1 0x0 PUSH2 0x100 EXP DUP2 SLOAD DUP2 PUSH1 0xFF MUL NOT AND SWAP1 DUP4 PUSH1 0xFF AND MUL OR SWAP1 SSTORE POP DUP2 PUSH1 0x2 PUSH1 0x0 DUP9 PUSH20 0xFFFFFFFFFFFFFFFFFFFFFFFFFFFFFFFFFFFFFFFF AND PUSH20 0xFFFFFFFFFFFFFFFFFFFFFFFFFFFFFFFFFFFFFFFF AND DUP2 MSTORE PUSH1 0x20 ADD SWAP1 DUP2 MSTORE PUSH1 0x20 ADD PUSH1 0x0 KECCAK256 PUSH1 0x0 DUP4 DUP2 MSTORE PUSH1 0x20 ADD SWAP1 DUP2 MSTORE PUSH1 0x20 ADD PUSH1 0x0 KECCAK256 PUSH1 0x4 ADD SWAP1 DUP1 MLOAD SWAP1 PUSH1 0x20 ADD SWAP1 PUSH2 0xF04 SWAP3 SWAP2 SWAP1 PUSH2 0xFC7 JUMP JUMPDEST POP PUSH1 0x0 PUSH1 0x2 PUSH1 0x0 DUP9 PUSH20 0xFFFFFFFFFFFFFFFFFFFFFFFFFFFFFFFFFFFFFFFF AND PUSH20 0xFFFFFFFFFFFFFFFFFFFFFFFFFFFFFFFFFFFFFFFF AND DUP2 MSTORE PUSH1 0x20 ADD SWAP1 DUP2 MSTORE PUSH1 0x20 ADD PUSH1 0x0 KECCAK256 PUSH1 0x0 DUP4 DUP2 MSTORE PUSH1 0x20 ADD SWAP1 DUP2 MSTORE PUSH1 0x20 ADD PUSH1 0x0 KECCAK256 PUSH1 0x5 ADD PUSH1 0x1 ADD PUSH1 0x14 PUSH2 0x100 EXP DUP2 SLOAD DUP2 PUSH1 0xFF MUL NOT AND SWAP1 DUP4 PUSH1 0x2 DUP2 GT ISZERO PUSH2 0xF7F JUMPI PUSH2 0xF7E PUSH2 0x17EA JUMP JUMPDEST JUMPDEST MUL OR SWAP1 SSTORE POP PUSH32 0xDAF544D55F2B0D82BD37254F81A5F6F0D8709DBDF56A68C8566D3E1FCB159FB7 DUP2 DUP6 DUP6 PUSH1 0x40 MLOAD PUSH2 0xFB7 SWAP4 SWAP3 SWAP2 SWAP1 PUSH2 0x1598 JUMP JUMPDEST PUSH1 0x40 MLOAD DUP1 SWAP2 SUB SWAP1 LOG1 POP POP POP POP POP POP JUMP JUMPDEST DUP3 DUP1 SLOAD PUSH2 0xFD3 SWAP1 PUSH2 0x170F JUMP JUMPDEST SWAP1 PUSH1 0x0 MSTORE PUSH1 0x20 PUSH1 0x0 KECCAK256 SWAP1 PUSH1 0x1F ADD PUSH1 0x20 SWAP1 DIV DUP2 ADD SWAP3 DUP3 PUSH2 0xFF5 JUMPI PUSH1 0x0 DUP6 SSTORE PUSH2 0x103C JUMP JUMPDEST DUP3 PUSH1 0x1F LT PUSH2 0x100E JUMPI DUP1 MLOAD PUSH1 0xFF NOT AND DUP4 DUP1 ADD OR DUP6 SSTORE PUSH2 0x103C JUMP JUMPDEST DUP3 DUP1 ADD PUSH1 0x1 ADD DUP6 SSTORE DUP3 ISZERO PUSH2 0x103C JUMPI SWAP2 DUP3 ADD JUMPDEST DUP3 DUP2 GT ISZERO PUSH2 0x103B JUMPI DUP3 MLOAD DUP3 SSTORE SWAP2 PUSH1 0x20 ADD SWAP2 SWAP1 PUSH1 0x1 ADD SWAP1 PUSH2 0x1020 JUMP JUMPDEST JUMPDEST POP SWAP1 POP PUSH2 0x1049 SWAP2 SWAP1 PUSH2 0x104D JUMP JUMPDEST POP SWAP1 JUMP JUMPDEST JUMPDEST DUP1 DUP3 GT ISZERO PUSH2 0x1066 JUMPI PUSH1 0x0 DUP2 PUSH1 0x0 SWAP1 SSTORE POP PUSH1 0x1 ADD PUSH2 0x104E JUMP JUMPDEST POP SWAP1 JUMP JUMPDEST PUSH1 0x0 PUSH2 0x107D PUSH2 0x1078 DUP5 PUSH2 0x15F4 JUMP JUMPDEST PUSH2 0x15CF JUMP JUMPDEST SWAP1 POP DUP3 DUP2 MSTORE PUSH1 0x20 DUP2 ADD DUP5 DUP5 DUP5 ADD GT ISZERO PUSH2 0x1099 JUMPI PUSH2 0x1098 PUSH2 0x187C JUMP JUMPDEST JUMPDEST PUSH2 0x10A4 DUP5 DUP3 DUP6 PUSH2 0x16CD JUMP JUMPDEST POP SWAP4 SWAP3 POP POP POP JUMP JUMPDEST PUSH1 0x0 DUP2 CALLDATALOAD SWAP1 POP PUSH2 0x10BB DUP2 PUSH2 0x1951 JUMP JUMPDEST SWAP3 SWAP2 POP POP JUMP JUMPDEST PUSH1 0x0 DUP2 MLOAD SWAP1 POP PUSH2 0x10D0 DUP2 PUSH2 0x1968 JUMP JUMPDEST SWAP3 SWAP2 POP POP JUMP JUMPDEST PUSH1 0x0 DUP3 PUSH1 0x1F DUP4 ADD SLT PUSH2 0x10EB JUMPI PUSH2 0x10EA PUSH2 0x1877 JUMP JUMPDEST JUMPDEST DUP2 CALLDATALOAD PUSH2 0x10FB DUP5 DUP3 PUSH1 0x20 DUP7 ADD PUSH2 0x106A JUMP JUMPDEST SWAP2 POP POP SWAP3 SWAP2 POP POP JUMP JUMPDEST PUSH1 0x0 DUP2 CALLDATALOAD SWAP1 POP PUSH2 0x1113 DUP2 PUSH2 0x197F JUMP JUMPDEST SWAP3 SWAP2 POP POP JUMP JUMPDEST PUSH1 0x0 DUP2 CALLDATALOAD SWAP1 POP PUSH2 0x1128 DUP2 PUSH2 0x1996 JUMP JUMPDEST SWAP3 SWAP2 POP POP JUMP JUMPDEST PUSH1 0x0 DUP1 PUSH1 0x0 DUP1 PUSH1 0x0 PUSH1 0xA0 DUP7 DUP9 SUB SLT ISZERO PUSH2 0x114A JUMPI PUSH2 0x1149 PUSH2 0x1886 JUMP JUMPDEST JUMPDEST PUSH1 0x0 PUSH2 0x1158 DUP9 DUP3 DUP10 ADD PUSH2 0x10AC JUMP JUMPDEST SWAP6 POP POP PUSH1 0x20 PUSH2 0x1169 DUP9 DUP3 DUP10 ADD PUSH2 0x10AC JUMP JUMPDEST SWAP5 POP POP PUSH1 0x40 PUSH2 0x117A DUP9 DUP3 DUP10 ADD PUSH2 0x1104 JUMP JUMPDEST SWAP4 POP POP PUSH1 0x60 PUSH2 0x118B DUP9 DUP3 DUP10 ADD PUSH2 0x1119 JUMP JUMPDEST SWAP3 POP POP PUSH1 0x80 DUP7 ADD CALLDATALOAD PUSH8 0xFFFFFFFFFFFFFFFF DUP2 GT ISZERO PUSH2 0x11AC JUMPI PUSH2 0x11AB PUSH2 0x1881 JUMP JUMPDEST JUMPDEST PUSH2 0x11B8 DUP9 DUP3 DUP10 ADD PUSH2 0x10D6 JUMP JUMPDEST SWAP2 POP POP SWAP3 SWAP6 POP SWAP3 SWAP6 SWAP1 SWAP4 POP JUMP JUMPDEST PUSH1 0x0 DUP1 PUSH1 0x40 DUP4 DUP6 SUB SLT ISZERO PUSH2 0x11DC JUMPI PUSH2 0x11DB PUSH2 0x1886 JUMP JUMPDEST JUMPDEST PUSH1 0x0 PUSH2 0x11EA DUP6 DUP3 DUP7 ADD PUSH2 0x10AC JUMP JUMPDEST SWAP3 POP POP PUSH1 0x20 PUSH2 0x11FB DUP6 DUP3 DUP7 ADD PUSH2 0x1104 JUMP JUMPDEST SWAP2 POP POP SWAP3 POP SWAP3 SWAP1 POP JUMP JUMPDEST PUSH1 0x0 DUP1 PUSH1 0x0 DUP1 PUSH1 0x0 PUSH1 0xA0 DUP7 DUP9 SUB SLT ISZERO PUSH2 0x1221 JUMPI PUSH2 0x1220 PUSH2 0x1886 JUMP JUMPDEST JUMPDEST PUSH1 0x0 PUSH2 0x122F DUP9 DUP3 DUP10 ADD PUSH2 0x10AC JUMP JUMPDEST SWAP6 POP POP PUSH1 0x20 PUSH2 0x1240 DUP9 DUP3 DUP10 ADD PUSH2 0x1104 JUMP JUMPDEST SWAP5 POP POP PUSH1 0x40 PUSH2 0x1251 DUP9 DUP3 DUP10 ADD PUSH2 0x1104 JUMP JUMPDEST SWAP4 POP POP PUSH1 0x60 PUSH2 0x1262 DUP9 DUP3 DUP10 ADD PUSH2 0x1119 JUMP JUMPDEST SWAP3 POP POP PUSH1 0x80 DUP7 ADD CALLDATALOAD PUSH8 0xFFFFFFFFFFFFFFFF DUP2 GT ISZERO PUSH2 0x1283 JUMPI PUSH2 0x1282 PUSH2 0x1881 JUMP JUMPDEST JUMPDEST PUSH2 0x128F DUP9 DUP3 DUP10 ADD PUSH2 0x10D6 JUMP JUMPDEST SWAP2 POP POP SWAP3 SWAP6 POP SWAP3 SWAP6 SWAP1 SWAP4 POP JUMP JUMPDEST PUSH1 0x0 DUP1 PUSH1 0x0 DUP1 PUSH1 0x80 DUP6 DUP8 SUB SLT ISZERO PUSH2 0x12B6 JUMPI PUSH2 0x12B5 PUSH2 0x1886 JUMP JUMPDEST JUMPDEST PUSH1 0x0 PUSH2 0x12C4 DUP8 DUP3 DUP9 ADD PUSH2 0x10AC JUMP JUMPDEST SWAP5 POP POP PUSH1 0x20 PUSH2 0x12D5 DUP8 DUP3 DUP9 ADD PUSH2 0x1104 JUMP JUMPDEST SWAP4 POP POP PUSH1 0x40 PUSH2 0x12E6 DUP8 DUP3 DUP9 ADD PUSH2 0x1119 JUMP JUMPDEST SWAP3 POP POP PUSH1 0x60 DUP6 ADD CALLDATALOAD PUSH8 0xFFFFFFFFFFFFFFFF DUP2 GT ISZERO PUSH2 0x1307 JUMPI PUSH2 0x1306 PUSH2 0x1881 JUMP JUMPDEST JUMPDEST PUSH2 0x1313 DUP8 DUP3 DUP9 ADD PUSH2 0x10D6 JUMP JUMPDEST SWAP2 POP POP SWAP3 SWAP6 SWAP2 SWAP5 POP SWAP3 POP JUMP JUMPDEST PUSH1 0x0 PUSH1 0x20 DUP3 DUP5 SUB SLT ISZERO PUSH2 0x1335 JUMPI PUSH2 0x1334 PUSH2 0x1886 JUMP JUMPDEST JUMPDEST PUSH1 0x0 PUSH2 0x1343 DUP5 DUP3 DUP6 ADD PUSH2 0x10C1 JUMP JUMPDEST SWAP2 POP POP SWAP3 SWAP2 POP POP JUMP JUMPDEST PUSH2 0x1355 DUP2 PUSH2 0x1641 JUMP JUMPDEST DUP3 MSTORE POP POP JUMP JUMPDEST PUSH2 0x1364 DUP2 PUSH2 0x1641 JUMP JUMPDEST DUP3 MSTORE POP POP JUMP JUMPDEST PUSH2 0x1373 DUP2 PUSH2 0x16A9 JUMP JUMPDEST DUP3 MSTORE POP POP JUMP JUMPDEST PUSH1 0x0 PUSH2 0x1384 DUP3 PUSH2 0x1625 JUMP JUMPDEST PUSH2 0x138E DUP2 DUP6 PUSH2 0x1630 JUMP JUMPDEST SWAP4 POP PUSH2 0x139E DUP2 DUP6 PUSH1 0x20 DUP7 ADD PUSH2 0x16DC JUMP JUMPDEST PUSH2 0x13A7 DUP2 PUSH2 0x188B JUMP JUMPDEST DUP5 ADD SWAP2 POP POP SWAP3 SWAP2 POP POP JUMP JUMPDEST PUSH1 0x0 PUSH2 0x13BF PUSH1 0x11 DUP4 PUSH2 0x1630 JUMP JUMPDEST SWAP2 POP PUSH2 0x13CA DUP3 PUSH2 0x189C JUMP JUMPDEST PUSH1 0x20 DUP3 ADD SWAP1 POP SWAP2 SWAP1 POP JUMP JUMPDEST PUSH1 0x0 PUSH2 0x13E2 PUSH1 0x2A DUP4 PUSH2 0x1630 JUMP JUMPDEST SWAP2 POP PUSH2 0x13ED DUP3 PUSH2 0x18C5 JUMP JUMPDEST PUSH1 0x40 DUP3 ADD SWAP1 POP SWAP2 SWAP1 POP JUMP JUMPDEST PUSH1 0x0 PUSH2 0x1405 PUSH1 0xF DUP4 PUSH2 0x1630 JUMP JUMPDEST SWAP2 POP PUSH2 0x1410 DUP3 PUSH2 0x1914 JUMP JUMPDEST PUSH1 0x20 DUP3 ADD SWAP1 POP SWAP2 SWAP1 POP JUMP JUMPDEST PUSH1 0x60 DUP3 ADD PUSH1 0x0 DUP3 ADD MLOAD PUSH2 0x1431 PUSH1 0x0 DUP6 ADD DUP3 PUSH2 0x145D JUMP JUMPDEST POP PUSH1 0x20 DUP3 ADD MLOAD PUSH2 0x1444 PUSH1 0x20 DUP6 ADD DUP3 PUSH2 0x134C JUMP JUMPDEST POP PUSH1 0x40 DUP3 ADD MLOAD PUSH2 0x1457 PUSH1 0x40 DUP6 ADD DUP3 PUSH2 0x136A JUMP JUMPDEST POP POP POP POP JUMP JUMPDEST PUSH2 0x1466 DUP2 PUSH2 0x1692 JUMP JUMPDEST DUP3 MSTORE POP POP JUMP JUMPDEST PUSH2 0x1475 DUP2 PUSH2 0x1692 JUMP JUMPDEST DUP3 MSTORE POP POP JUMP JUMPDEST PUSH2 0x1484 DUP2 PUSH2 0x16BB JUMP JUMPDEST DUP3 MSTORE POP POP JUMP JUMPDEST PUSH2 0x1493 DUP2 PUSH2 0x169C JUMP JUMPDEST DUP3 MSTORE POP POP JUMP JUMPDEST PUSH1 0x0 PUSH1 0x20 DUP3 ADD SWAP1 POP PUSH2 0x14AE PUSH1 0x0 DUP4 ADD DUP5 PUSH2 0x135B JUMP JUMPDEST SWAP3 SWAP2 POP POP JUMP JUMPDEST PUSH1 0x0 PUSH1 0x20 DUP3 ADD SWAP1 POP DUP2 DUP2 SUB PUSH1 0x0 DUP4 ADD MSTORE PUSH2 0x14CD DUP2 PUSH2 0x13B2 JUMP JUMPDEST SWAP1 POP SWAP2 SWAP1 POP JUMP JUMPDEST PUSH1 0x0 PUSH1 0x20 DUP3 ADD SWAP1 POP DUP2 DUP2 SUB PUSH1 0x0 DUP4 ADD MSTORE PUSH2 0x14ED DUP2 PUSH2 0x13D5 JUMP JUMPDEST SWAP1 POP SWAP2 SWAP1 POP JUMP JUMPDEST PUSH1 0x0 PUSH1 0x20 DUP3 ADD SWAP1 POP DUP2 DUP2 SUB PUSH1 0x0 DUP4 ADD MSTORE PUSH2 0x150D DUP2 PUSH2 0x13F8 JUMP JUMPDEST SWAP1 POP SWAP2 SWAP1 POP JUMP JUMPDEST PUSH1 0x0 PUSH1 0x20 DUP3 ADD SWAP1 POP PUSH2 0x1529 PUSH1 0x0 DUP4 ADD DUP5 PUSH2 0x146C JUMP JUMPDEST SWAP3 SWAP2 POP POP JUMP JUMPDEST PUSH1 0x0 PUSH2 0x100 DUP3 ADD SWAP1 POP PUSH2 0x1545 PUSH1 0x0 DUP4 ADD DUP10 PUSH2 0x146C JUMP JUMPDEST PUSH2 0x1552 PUSH1 0x20 DUP4 ADD DUP9 PUSH2 0x135B JUMP JUMPDEST PUSH2 0x155F PUSH1 0x40 DUP4 ADD DUP8 PUSH2 0x146C JUMP JUMPDEST PUSH2 0x156C PUSH1 0x60 DUP4 ADD DUP7 PUSH2 0x148A JUMP JUMPDEST DUP2 DUP2 SUB PUSH1 0x80 DUP4 ADD MSTORE PUSH2 0x157E DUP2 DUP6 PUSH2 0x1379 JUMP JUMPDEST SWAP1 POP PUSH2 0x158D PUSH1 0xA0 DUP4 ADD DUP5 PUSH2 0x141B JUMP JUMPDEST SWAP8 SWAP7 POP POP POP POP POP POP POP JUMP JUMPDEST PUSH1 0x0 PUSH1 0x60 DUP3 ADD SWAP1 POP PUSH2 0x15AD PUSH1 0x0 DUP4 ADD DUP7 PUSH2 0x146C JUMP JUMPDEST PUSH2 0x15BA PUSH1 0x20 DUP4 ADD DUP6 PUSH2 0x146C JUMP JUMPDEST PUSH2 0x15C7 PUSH1 0x40 DUP4 ADD DUP5 PUSH2 0x147B JUMP JUMPDEST SWAP5 SWAP4 POP POP POP POP JUMP JUMPDEST PUSH1 0x0 PUSH2 0x15D9 PUSH2 0x15EA JUMP JUMPDEST SWAP1 POP PUSH2 0x15E5 DUP3 DUP3 PUSH2 0x1741 JUMP JUMPDEST SWAP2 SWAP1 POP JUMP JUMPDEST PUSH1 0x0 PUSH1 0x40 MLOAD SWAP1 POP SWAP1 JUMP JUMPDEST PUSH1 0x0 PUSH8 0xFFFFFFFFFFFFFFFF DUP3 GT ISZERO PUSH2 0x160F JUMPI PUSH2 0x160E PUSH2 0x1848 JUMP JUMPDEST JUMPDEST PUSH2 0x1618 DUP3 PUSH2 0x188B JUMP JUMPDEST SWAP1 POP PUSH1 0x20 DUP2 ADD SWAP1 POP SWAP2 SWAP1 POP JUMP JUMPDEST PUSH1 0x0 DUP2 MLOAD SWAP1 POP SWAP2 SWAP1 POP JUMP JUMPDEST PUSH1 0x0 DUP3 DUP3 MSTORE PUSH1 0x20 DUP3 ADD SWAP1 POP SWAP3 SWAP2 POP POP JUMP JUMPDEST PUSH1 0x0 PUSH2 0x164C DUP3 PUSH2 0x1672 JUMP JUMPDEST SWAP1 POP SWAP2 SWAP1 POP JUMP JUMPDEST PUSH1 0x0 DUP2 ISZERO ISZERO SWAP1 POP SWAP2 SWAP1 POP JUMP JUMPDEST PUSH1 0x0 DUP2 SWAP1 POP PUSH2 0x166D DUP3 PUSH2 0x193D JUMP JUMPDEST SWAP2 SWAP1 POP JUMP JUMPDEST PUSH1 0x0 PUSH20 0xFFFFFFFFFFFFFFFFFFFFFFFFFFFFFFFFFFFFFFFF DUP3 AND SWAP1 POP SWAP2 SWAP1 POP JUMP JUMPDEST PUSH1 0x0 DUP2 SWAP1 POP SWAP2 SWAP1 POP JUMP JUMPDEST PUSH1 0x0 PUSH1 0xFF DUP3 AND SWAP1 POP SWAP2 SWAP1 POP JUMP JUMPDEST PUSH1 0x0 PUSH2 0x16B4 DUP3 PUSH2 0x165F JUMP JUMPDEST SWAP1 POP SWAP2 SWAP1 POP JUMP JUMPDEST PUSH1 0x0 PUSH2 0x16C6 DUP3 PUSH2 0x169C JUMP JUMPDEST SWAP1 POP SWAP2 SWAP1 POP JUMP JUMPDEST DUP3 DUP2 DUP4 CALLDATACOPY PUSH1 0x0 DUP4 DUP4 ADD MSTORE POP POP POP JUMP JUMPDEST PUSH1 0x0 JUMPDEST DUP4 DUP2 LT ISZERO PUSH2 0x16FA JUMPI DUP1 DUP3 ADD MLOAD DUP2 DUP5 ADD MSTORE PUSH1 0x20 DUP2 ADD SWAP1 POP PUSH2 0x16DF JUMP JUMPDEST DUP4 DUP2 GT ISZERO PUSH2 0x1709 JUMPI PUSH1 0x0 DUP5 DUP5 ADD MSTORE JUMPDEST POP POP POP POP JUMP JUMPDEST PUSH1 0x0 PUSH1 0x2 DUP3 DIV SWAP1 POP PUSH1 0x1 DUP3 AND DUP1 PUSH2 0x1727 JUMPI PUSH1 0x7F DUP3 AND SWAP2 POP JUMPDEST PUSH1 0x20 DUP3 LT DUP2 EQ ISZERO PUSH2 0x173B JUMPI PUSH2 0x173A PUSH2 0x1819 JUMP JUMPDEST JUMPDEST POP SWAP2 SWAP1 POP JUMP JUMPDEST PUSH2 0x174A DUP3 PUSH2 0x188B JUMP JUMPDEST DUP2 ADD DUP2 DUP2 LT PUSH8 0xFFFFFFFFFFFFFFFF DUP3 GT OR ISZERO PUSH2 0x1769 JUMPI PUSH2 0x1768 PUSH2 0x1848 JUMP JUMPDEST JUMPDEST DUP1 PUSH1 0x40 MSTORE POP POP POP JUMP JUMPDEST PUSH1 0x0 PUSH2 0x177D DUP3 PUSH2 0x1692 JUMP JUMPDEST SWAP2 POP PUSH32 0xFFFFFFFFFFFFFFFFFFFFFFFFFFFFFFFFFFFFFFFFFFFFFFFFFFFFFFFFFFFFFFFF DUP3 EQ ISZERO PUSH2 0x17B0 JUMPI PUSH2 0x17AF PUSH2 0x17BB JUMP JUMPDEST JUMPDEST PUSH1 0x1 DUP3 ADD SWAP1 POP SWAP2 SWAP1 POP JUMP JUMPDEST PUSH32 0x4E487B7100000000000000000000000000000000000000000000000000000000 PUSH1 0x0 MSTORE PUSH1 0x11 PUSH1 0x4 MSTORE PUSH1 0x24 PUSH1 0x0 REVERT JUMPDEST PUSH32 0x4E487B7100000000000000000000000000000000000000000000000000000000 PUSH1 0x0 MSTORE PUSH1 0x21 PUSH1 0x4 MSTORE PUSH1 0x24 PUSH1 0x0 REVERT JUMPDEST PUSH32 0x4E487B7100000000000000000000000000000000000000000000000000000000 PUSH1 0x0 MSTORE PUSH1 0x22 PUSH1 0x4 MSTORE PUSH1 0x24 PUSH1 0x0 REVERT JUMPDEST PUSH32 0x4E487B7100000000000000000000000000000000000000000000000000000000 PUSH1 0x0 MSTORE PUSH1 0x41 PUSH1 0x4 MSTORE PUSH1 0x24 PUSH1 0x0 REVERT JUMPDEST PUSH1 0x0 DUP1 REVERT JUMPDEST PUSH1 0x0 DUP1 REVERT JUMPDEST PUSH1 0x0 DUP1 REVERT JUMPDEST PUSH1 0x0 DUP1 REVERT JUMPDEST PUSH1 0x0 PUSH1 0x1F NOT PUSH1 0x1F DUP4 ADD AND SWAP1 POP SWAP2 SWAP1 POP JUMP JUMPDEST PUSH32 0x4B697369206D657663757420646567696C000000000000000000000000000000 PUSH1 0x0 DUP3 ADD MSTORE POP JUMP JUMPDEST PUSH32 0x536164656365207965746B696C69207061796461732062752069736C656D6920 PUSH1 0x0 DUP3 ADD MSTORE PUSH32 0x7961706162696C69722E00000000000000000000000000000000000000000000 PUSH1 0x20 DUP3 ADD MSTORE POP JUMP JUMPDEST PUSH32 0x4B6973692062756C756E616D6164690000000000000000000000000000000000 PUSH1 0x0 DUP3 ADD MSTORE POP JUMP JUMPDEST PUSH1 0x3 DUP2 LT PUSH2 0x194E JUMPI PUSH2 0x194D PUSH2 0x17EA JUMP JUMPDEST JUMPDEST POP JUMP JUMPDEST PUSH2 0x195A DUP2 PUSH2 0x1641 JUMP JUMPDEST DUP2 EQ PUSH2 0x1965 JUMPI PUSH1 0x0 DUP1 REVERT JUMPDEST POP JUMP JUMPDEST PUSH2 0x1971 DUP2 PUSH2 0x1653 JUMP JUMPDEST DUP2 EQ PUSH2 0x197C JUMPI PUSH1 0x0 DUP1 REVERT JUMPDEST POP JUMP JUMPDEST PUSH2 0x1988 DUP2 PUSH2 0x1692 JUMP JUMPDEST DUP2 EQ PUSH2 0x1993 JUMPI PUSH1 0x0 DUP1 REVERT JUMPDEST POP JUMP JUMPDEST PUSH2 0x199F DUP2 PUSH2 0x169C JUMP JUMPDEST DUP2 EQ PUSH2 0x19AA JUMPI PUSH1 0x0 DUP1 REVERT JUMPDEST POP JUMP INVALID LOG2 PUSH5 0x6970667358 0x22 SLT KECCAK256 0x28 0x23 0xBE DUP7 0xD8 0xF8 0xF7 PUSH19 0x76D4DEA1C028DF00D72518E46DE7B89B77B128 SMOD EXTCODESIZE GAS SSTORE SGT PUSH5 0x736F6C6343 STOP ADDMOD SMOD STOP CALLER "
				},
				"gasEstimates": {
					"creation": {
						"codeDepositCost": "1325400",
						"executionCost": "infinite",
						"totalCost": "infinite"
					},
					"external": {
						"ekleSertifikaBilgi(address,uint256,uint8,string)": "infinite",
						"guncelleSertifikaBilgi(address,uint256,uint256,uint8,string)": "infinite",
						"id()": "2473",
						"sertifikaBilgiListesi(address,uint256)": "infinite",
						"talepEtSertifikaBilgi(address,address,uint256,uint8,string)": "infinite"
					}
				},
				"methodIdentifiers": {
					"ekleSertifikaBilgi(address,uint256,uint8,string)": "6f9bce31",
					"guncelleSertifikaBilgi(address,uint256,uint256,uint8,string)": "2281d48d",
					"id()": "af640d0f",
					"sertifikaBilgiListesi(address,uint256)": "13e5c393",
					"talepEtSertifikaBilgi(address,address,uint256,uint8,string)": "cca50940"
				}
			},
			"storageLayout": {
				"storage": [
					{
						"astId": 1236,
						"contract": "contracts/SertifikaBilgileri.sol:SertifikaBilgileri",
						"label": "id",
						"offset": 0,
						"slot": "0",
						"type": "t_uint256"
					},
					{
						"astId": 1239,
						"contract": "contracts/SertifikaBilgileri.sol:SertifikaBilgileri",
						"label": "baseContract",
						"offset": 0,
						"slot": "1",
						"type": "t_contract(BaseContract)1102"
					},
					{
						"astId": 1260,
						"contract": "contracts/SertifikaBilgileri.sol:SertifikaBilgileri",
						"label": "sertifikaBilgiListesi",
						"offset": 0,
						"slot": "2",
						"type": "t_mapping(t_address,t_mapping(t_uint256,t_struct(SertifikaBilgi)1253_storage))"
					}
				],
				"types": {
					"t_address": {
						"encoding": "inplace",
						"label": "address",
						"numberOfBytes": "20"
					},
					"t_contract(BaseContract)1102": {
						"encoding": "inplace",
						"label": "contract BaseContract",
						"numberOfBytes": "20"
					},
					"t_enum(OnayDurum)1133": {
						"encoding": "inplace",
						"label": "enum BaseProperties.OnayDurum",
						"numberOfBytes": "1"
					},
					"t_mapping(t_address,t_mapping(t_uint256,t_struct(SertifikaBilgi)1253_storage))": {
						"encoding": "mapping",
						"key": "t_address",
						"label": "mapping(address => mapping(uint256 => struct SertifikaBilgileri.SertifikaBilgi))",
						"numberOfBytes": "32",
						"value": "t_mapping(t_uint256,t_struct(SertifikaBilgi)1253_storage)"
					},
					"t_mapping(t_uint256,t_struct(SertifikaBilgi)1253_storage)": {
						"encoding": "mapping",
						"key": "t_uint256",
						"label": "mapping(uint256 => struct SertifikaBilgileri.SertifikaBilgi)",
						"numberOfBytes": "32",
						"value": "t_struct(SertifikaBilgi)1253_storage"
					},
					"t_string_storage": {
						"encoding": "bytes",
						"label": "string",
						"numberOfBytes": "32"
					},
					"t_struct(Onay)1129_storage": {
						"encoding": "inplace",
						"label": "struct BaseProperties.Onay",
						"members": [
							{
								"astId": 1123,
								"contract": "contracts/SertifikaBilgileri.sol:SertifikaBilgileri",
								"label": "zaman",
								"offset": 0,
								"slot": "0",
								"type": "t_uint256"
							},
							{
								"astId": 1125,
								"contract": "contracts/SertifikaBilgileri.sol:SertifikaBilgileri",
								"label": "adres",
								"offset": 0,
								"slot": "1",
								"type": "t_address"
							},
							{
								"astId": 1128,
								"contract": "contracts/SertifikaBilgileri.sol:SertifikaBilgileri",
								"label": "durum",
								"offset": 20,
								"slot": "1",
								"type": "t_enum(OnayDurum)1133"
							}
						],
						"numberOfBytes": "64"
					},
					"t_struct(SertifikaBilgi)1253_storage": {
						"encoding": "inplace",
						"label": "struct SertifikaBilgileri.SertifikaBilgi",
						"members": [
							{
								"astId": 1241,
								"contract": "contracts/SertifikaBilgileri.sol:SertifikaBilgileri",
								"label": "id",
								"offset": 0,
								"slot": "0",
								"type": "t_uint256"
							},
							{
								"astId": 1243,
								"contract": "contracts/SertifikaBilgileri.sol:SertifikaBilgileri",
								"label": "talepEdilenKurum",
								"offset": 0,
								"slot": "1",
								"type": "t_address"
							},
							{
								"astId": 1245,
								"contract": "contracts/SertifikaBilgileri.sol:SertifikaBilgileri",
								"label": "alinanTarih",
								"offset": 0,
								"slot": "2",
								"type": "t_uint256"
							},
							{
								"astId": 1247,
								"contract": "contracts/SertifikaBilgileri.sol:SertifikaBilgileri",
								"label": "gecerlilikSuresi",
								"offset": 0,
								"slot": "3",
								"type": "t_uint8"
							},
							{
								"astId": 1249,
								"contract": "contracts/SertifikaBilgileri.sol:SertifikaBilgileri",
								"label": "sertifikaAdi",
								"offset": 0,
								"slot": "4",
								"type": "t_string_storage"
							},
							{
								"astId": 1252,
								"contract": "contracts/SertifikaBilgileri.sol:SertifikaBilgileri",
								"label": "onayBilgi",
								"offset": 0,
								"slot": "5",
								"type": "t_struct(Onay)1129_storage"
							}
						],
						"numberOfBytes": "224"
					},
					"t_uint256": {
						"encoding": "inplace",
						"label": "uint256",
						"numberOfBytes": "32"
					},
					"t_uint8": {
						"encoding": "inplace",
						"label": "uint8",
						"numberOfBytes": "1"
					}
				}
			},
			"userdoc": {
				"kind": "user",
				"methods": {},
				"version": 1
			}
		}
	}
}