{
	"contracts/CalismaBilgileri.sol": {
		"CalismaBilgileri": {
			"abi": [
				{
					"anonymous": false,
					"inputs": [
						{
							"indexed": false,
							"internalType": "address",
							"name": "_kisiAdres",
							"type": "address"
						},
						{
							"indexed": false,
							"internalType": "uint8",
							"name": "_ulke",
							"type": "uint8"
						},
						{
							"indexed": false,
							"internalType": "uint256",
							"name": "_pozisyon",
							"type": "uint256"
						},
						{
							"indexed": false,
							"internalType": "uint256",
							"name": "_sektor",
							"type": "uint256"
						}
					],
					"name": "CalismaBilgiEklendiLog",
					"type": "event"
				},
				{
					"anonymous": false,
					"inputs": [
						{
							"indexed": false,
							"internalType": "address",
							"name": "_kisiAdres",
							"type": "address"
						},
						{
							"indexed": false,
							"internalType": "uint8",
							"name": "_ulke",
							"type": "uint8"
						},
						{
							"indexed": false,
							"internalType": "uint256",
							"name": "_pozisyon",
							"type": "uint256"
						},
						{
							"indexed": false,
							"internalType": "uint256",
							"name": "_sektor",
							"type": "uint256"
						}
					],
					"name": "CalismaBilgiGuncellendiLog",
					"type": "event"
				},
				{
					"anonymous": false,
					"inputs": [
						{
							"indexed": false,
							"internalType": "address",
							"name": "_talepEdilenKurum",
							"type": "address"
						},
						{
							"indexed": false,
							"internalType": "uint8",
							"name": "_ulke",
							"type": "uint8"
						},
						{
							"indexed": false,
							"internalType": "uint256",
							"name": "_pozisyon",
							"type": "uint256"
						},
						{
							"indexed": false,
							"internalType": "uint256",
							"name": "_sektor",
							"type": "uint256"
						}
					],
					"name": "CalismaBilgiTalepEdildiLog",
					"type": "event"
				},
				{
					"inputs": [
						{
							"internalType": "address",
							"name": "",
							"type": "address"
						}
					],
					"name": "akademisyenler",
					"outputs": [
						{
							"internalType": "bool",
							"name": "durum",
							"type": "bool"
						},
						{
							"internalType": "address",
							"name": "universite",
							"type": "address"
						},
						{
							"internalType": "uint16",
							"name": "bolum",
							"type": "uint16"
						},
						{
							"internalType": "enum BaseContract.Unvan",
							"name": "unvan",
							"type": "uint8"
						},
						{
							"internalType": "string",
							"name": "ad",
							"type": "string"
						},
						{
							"internalType": "string",
							"name": "soyad",
							"type": "string"
						}
					],
					"stateMutability": "view",
					"type": "function"
				},
				{
					"inputs": [
						{
							"internalType": "address",
							"name": "",
							"type": "address"
						},
						{
							"internalType": "uint256",
							"name": "",
							"type": "uint256"
						}
					],
					"name": "calismaBilgileri",
					"outputs": [
						{
							"internalType": "uint256",
							"name": "id",
							"type": "uint256"
						},
						{
							"internalType": "address",
							"name": "talepEdilenKurum",
							"type": "address"
						},
						{
							"internalType": "uint32",
							"name": "pozisyon",
							"type": "uint32"
						},
						{
							"internalType": "uint8",
							"name": "sektor",
							"type": "uint8"
						},
						{
							"internalType": "enum CalismaBilgileri.CalismaTipi",
							"name": "calismaTipi",
							"type": "uint8"
						},
						{
							"internalType": "string",
							"name": "isAciklama",
							"type": "string"
						},
						{
							"internalType": "uint256",
							"name": "basTarih",
							"type": "uint256"
						},
						{
							"internalType": "uint256",
							"name": "bitTarih",
							"type": "uint256"
						},
						{
							"internalType": "uint8",
							"name": "ulke",
							"type": "uint8"
						},
						{
							"internalType": "uint32",
							"name": "sehir",
							"type": "uint32"
						},
						{
							"components": [
								{
									"internalType": "uint256",
									"name": "zaman",
									"type": "uint256"
								},
								{
									"internalType": "address",
									"name": "adres",
									"type": "address"
								},
								{
									"internalType": "enum BaseContract.OnayDurum",
									"name": "durum",
									"type": "uint8"
								}
							],
							"internalType": "struct BaseContract.Onay",
							"name": "onayBilgi",
							"type": "tuple"
						}
					],
					"stateMutability": "view",
					"type": "function"
				},
				{
					"inputs": [
						{
							"internalType": "uint32",
							"name": "",
							"type": "uint32"
						}
					],
					"name": "diller",
					"outputs": [
						{
							"internalType": "uint32",
							"name": "id",
							"type": "uint32"
						},
						{
							"internalType": "string",
							"name": "isim",
							"type": "string"
						}
					],
					"stateMutability": "view",
					"type": "function"
				},
				{
					"inputs": [
						{
							"internalType": "address",
							"name": "_kisiAddress",
							"type": "address"
						},
						{
							"internalType": "uint32",
							"name": "pozisyon",
							"type": "uint32"
						},
						{
							"internalType": "uint8",
							"name": "sektor",
							"type": "uint8"
						},
						{
							"internalType": "enum CalismaBilgileri.CalismaTipi",
							"name": "calismaTipi",
							"type": "uint8"
						},
						{
							"internalType": "string",
							"name": "isAciklama",
							"type": "string"
						},
						{
							"internalType": "uint256",
							"name": "basTarih",
							"type": "uint256"
						},
						{
							"internalType": "uint256",
							"name": "bitTarih",
							"type": "uint256"
						},
						{
							"internalType": "uint8",
							"name": "ulke",
							"type": "uint8"
						},
						{
							"internalType": "uint32",
							"name": "sehir",
							"type": "uint32"
						}
					],
					"name": "ekleCalismaBilgi",
					"outputs": [],
					"stateMutability": "nonpayable",
					"type": "function"
				},
				{
					"inputs": [
						{
							"internalType": "address",
							"name": "",
							"type": "address"
						}
					],
					"name": "firmalar",
					"outputs": [
						{
							"internalType": "bool",
							"name": "durum",
							"type": "bool"
						},
						{
							"internalType": "uint8",
							"name": "ulke",
							"type": "uint8"
						},
						{
							"internalType": "uint256",
							"name": "vergiNo",
							"type": "uint256"
						},
						{
							"internalType": "string",
							"name": "isim",
							"type": "string"
						}
					],
					"stateMutability": "view",
					"type": "function"
				},
				{
					"inputs": [
						{
							"internalType": "address",
							"name": "_kisiAddress",
							"type": "address"
						},
						{
							"internalType": "uint256",
							"name": "_calismaBilgiId",
							"type": "uint256"
						},
						{
							"internalType": "uint32",
							"name": "pozisyon",
							"type": "uint32"
						},
						{
							"internalType": "uint8",
							"name": "sektor",
							"type": "uint8"
						},
						{
							"internalType": "enum CalismaBilgileri.CalismaTipi",
							"name": "calismaTipi",
							"type": "uint8"
						},
						{
							"internalType": "string",
							"name": "isAciklama",
							"type": "string"
						},
						{
							"internalType": "uint256",
							"name": "basTarih",
							"type": "uint256"
						},
						{
							"internalType": "uint256",
							"name": "bitTarih",
							"type": "uint256"
						},
						{
							"internalType": "uint8",
							"name": "ulke",
							"type": "uint8"
						},
						{
							"internalType": "uint32",
							"name": "sehir",
							"type": "uint32"
						}
					],
					"name": "guncelleCalismaBilgi",
					"outputs": [
						{
							"internalType": "uint256",
							"name": "",
							"type": "uint256"
						}
					],
					"stateMutability": "nonpayable",
					"type": "function"
				},
				{
					"inputs": [],
					"name": "id",
					"outputs": [
						{
							"internalType": "uint256",
							"name": "",
							"type": "uint256"
						}
					],
					"stateMutability": "view",
					"type": "function"
				},
				{
					"inputs": [
						{
							"internalType": "address",
							"name": "",
							"type": "address"
						}
					],
					"name": "kamuKurumlari",
					"outputs": [
						{
							"internalType": "bool",
							"name": "durum",
							"type": "bool"
						},
						{
							"internalType": "string",
							"name": "isim",
							"type": "string"
						},
						{
							"internalType": "uint8",
							"name": "ulke",
							"type": "uint8"
						}
					],
					"stateMutability": "view",
					"type": "function"
				},
				{
					"inputs": [
						{
							"internalType": "address",
							"name": "",
							"type": "address"
						}
					],
					"name": "kisiler",
					"outputs": [
						{
							"internalType": "bool",
							"name": "durum",
							"type": "bool"
						}
					],
					"stateMutability": "view",
					"type": "function"
				},
				{
					"inputs": [
						{
							"internalType": "address",
							"name": "",
							"type": "address"
						}
					],
					"name": "kurslar",
					"outputs": [
						{
							"internalType": "bool",
							"name": "durum",
							"type": "bool"
						},
						{
							"internalType": "string",
							"name": "isim",
							"type": "string"
						},
						{
							"internalType": "uint8",
							"name": "ulke",
							"type": "uint8"
						}
					],
					"stateMutability": "view",
					"type": "function"
				},
				{
					"inputs": [
						{
							"internalType": "address",
							"name": "",
							"type": "address"
						}
					],
					"name": "sertifikaMerkezleri",
					"outputs": [
						{
							"internalType": "bool",
							"name": "durum",
							"type": "bool"
						},
						{
							"internalType": "string",
							"name": "isim",
							"type": "string"
						},
						{
							"internalType": "uint8",
							"name": "ulke",
							"type": "uint8"
						}
					],
					"stateMutability": "view",
					"type": "function"
				},
				{
					"inputs": [
						{
							"internalType": "address",
							"name": "",
							"type": "address"
						}
					],
					"name": "stklar",
					"outputs": [
						{
							"internalType": "bool",
							"name": "durum",
							"type": "bool"
						},
						{
							"internalType": "string",
							"name": "isim",
							"type": "string"
						},
						{
							"internalType": "uint8",
							"name": "ulke",
							"type": "uint8"
						}
					],
					"stateMutability": "view",
					"type": "function"
				},
				{
					"inputs": [
						{
							"internalType": "address",
							"name": "_talepEdilenKurum",
							"type": "address"
						},
						{
							"internalType": "uint32",
							"name": "pozisyon",
							"type": "uint32"
						},
						{
							"internalType": "uint8",
							"name": "sektor",
							"type": "uint8"
						},
						{
							"internalType": "enum CalismaBilgileri.CalismaTipi",
							"name": "calismaTipi",
							"type": "uint8"
						},
						{
							"internalType": "string",
							"name": "isAciklama",
							"type": "string"
						},
						{
							"internalType": "uint256",
							"name": "basTarih",
							"type": "uint256"
						},
						{
							"internalType": "uint256",
							"name": "bitTarih",
							"type": "uint256"
						},
						{
							"internalType": "uint8",
							"name": "ulke",
							"type": "uint8"
						},
						{
							"internalType": "uint32",
							"name": "sehir",
							"type": "uint32"
						}
					],
					"name": "talepEtCalismaBilgi",
					"outputs": [],
					"stateMutability": "nonpayable",
					"type": "function"
				},
				{
					"inputs": [
						{
							"internalType": "address",
							"name": "",
							"type": "address"
						}
					],
					"name": "universiteler",
					"outputs": [
						{
							"internalType": "bool",
							"name": "durum",
							"type": "bool"
						},
						{
							"internalType": "string",
							"name": "isim",
							"type": "string"
						},
						{
							"internalType": "uint8",
							"name": "ulke",
							"type": "uint8"
						}
					],
					"stateMutability": "view",
					"type": "function"
				}
			],
			"devdoc": {
				"kind": "dev",
				"methods": {},
				"version": 1
			},
			"evm": {
				"assembly": "    /* \"contracts/CalismaBilgileri.sol\":137:4963  contract CalismaBilgileri is BaseContract{\r... */\n  mstore(0x40, 0x80)\n  callvalue\n  dup1\n  iszero\n  tag_1\n  jumpi\n  0x00\n  dup1\n  revert\ntag_1:\n  pop\n  dataSize(sub_0)\n  dup1\n  dataOffset(sub_0)\n  0x00\n  codecopy\n  0x00\n  return\nstop\n\nsub_0: assembly {\n        /* \"contracts/CalismaBilgileri.sol\":137:4963  contract CalismaBilgileri is BaseContract{\r... */\n      mstore(0x40, 0x80)\n      callvalue\n      dup1\n      iszero\n      tag_1\n      jumpi\n      0x00\n      dup1\n      revert\n    tag_1:\n      pop\n      jumpi(tag_2, lt(calldatasize, 0x04))\n      shr(0xe0, calldataload(0x00))\n      dup1\n      0x7d0fa287\n      gt\n      tag_17\n      jumpi\n      dup1\n      0xac30910c\n      gt\n      tag_18\n      jumpi\n      dup1\n      0xac30910c\n      eq\n      tag_13\n      jumpi\n      dup1\n      0xaf640d0f\n      eq\n      tag_14\n      jumpi\n      dup1\n      0xba479b7e\n      eq\n      tag_15\n      jumpi\n      dup1\n      0xcbc92809\n      eq\n      tag_16\n      jumpi\n      jump(tag_2)\n    tag_18:\n      dup1\n      0x7d0fa287\n      eq\n      tag_10\n      jumpi\n      dup1\n      0x9a8c9119\n      eq\n      tag_11\n      jumpi\n      dup1\n      0xa4e7ae05\n      eq\n      tag_12\n      jumpi\n      jump(tag_2)\n    tag_17:\n      dup1\n      0x28266697\n      gt\n      tag_19\n      jumpi\n      dup1\n      0x28266697\n      eq\n      tag_6\n      jumpi\n      dup1\n      0x356b1f1e\n      eq\n      tag_7\n      jumpi\n      dup1\n      0x39987f94\n      eq\n      tag_8\n      jumpi\n      dup1\n      0x62bda16b\n      eq\n      tag_9\n      jumpi\n      jump(tag_2)\n    tag_19:\n      dup1\n      0x035963ce\n      eq\n      tag_3\n      jumpi\n      dup1\n      0x0fb0b1b2\n      eq\n      tag_4\n      jumpi\n      dup1\n      0x1916e139\n      eq\n      tag_5\n      jumpi\n    tag_2:\n      0x00\n      dup1\n      revert\n        /* \"contracts/CalismaBilgileri.sol\":3793:4953  function talepEtCalismaBilgi(address _talepEdilenKurum, uint32 pozisyon, uint8 sektor, CalismaTipi calismaTipi, string memory isAciklama, uint basTarih, uint bitTarih, uint8 ulke, uint32 sehir)  public sadeceKisi{\r... */\n    tag_3:\n      tag_20\n      0x04\n      dup1\n      calldatasize\n      sub\n      dup2\n      add\n      swap1\n      tag_21\n      swap2\n      swap1\n      tag_22\n      jump\t// in\n    tag_21:\n      tag_23\n      jump\t// in\n    tag_20:\n      stop\n        /* \"contracts/CalismaBilgileri.sol\":675:744  mapping(address=>mapping(uint=>CalismaBilgi)) public calismaBilgileri */\n    tag_4:\n      tag_24\n      0x04\n      dup1\n      calldatasize\n      sub\n      dup2\n      add\n      swap1\n      tag_25\n      swap2\n      swap1\n      tag_26\n      jump\t// in\n    tag_25:\n      tag_27\n      jump\t// in\n    tag_24:\n      mload(0x40)\n      tag_28\n      swap12\n      swap11\n      swap10\n      swap9\n      swap8\n      swap7\n      swap6\n      swap5\n      swap4\n      swap3\n      swap2\n      swap1\n      tag_29\n      jump\t// in\n    tag_28:\n      mload(0x40)\n      dup1\n      swap2\n      sub\n      swap1\n      return\n        /* \"contracts/BaseContract.sol\":3293:3331  mapping(address=>Kurs) public  kurslar */\n    tag_5:\n      tag_30\n      0x04\n      dup1\n      calldatasize\n      sub\n      dup2\n      add\n      swap1\n      tag_31\n      swap2\n      swap1\n      tag_32\n      jump\t// in\n    tag_31:\n      tag_33\n      jump\t// in\n    tag_30:\n      mload(0x40)\n      tag_34\n      swap4\n      swap3\n      swap2\n      swap1\n      tag_35\n      jump\t// in\n    tag_34:\n      mload(0x40)\n      dup1\n      swap2\n      sub\n      swap1\n      return\n        /* \"contracts/BaseContract.sol\":3132:3181  mapping(address=>Universite) public universiteler */\n    tag_6:\n      tag_36\n      0x04\n      dup1\n      calldatasize\n      sub\n      dup2\n      add\n      swap1\n      tag_37\n      swap2\n      swap1\n      tag_32\n      jump\t// in\n    tag_37:\n      tag_38\n      jump\t// in\n    tag_36:\n      mload(0x40)\n      tag_39\n      swap4\n      swap3\n      swap2\n      swap1\n      tag_35\n      jump\t// in\n    tag_39:\n      mload(0x40)\n      dup1\n      swap2\n      sub\n      swap1\n      return\n        /* \"contracts/BaseContract.sol\":3436:3497  mapping(address=>SertifikaMerkezi) public sertifikaMerkezleri */\n    tag_7:\n      tag_40\n      0x04\n      dup1\n      calldatasize\n      sub\n      dup2\n      add\n      swap1\n      tag_41\n      swap2\n      swap1\n      tag_32\n      jump\t// in\n    tag_41:\n      tag_42\n      jump\t// in\n    tag_40:\n      mload(0x40)\n      tag_43\n      swap4\n      swap3\n      swap2\n      swap1\n      tag_35\n      jump\t// in\n    tag_43:\n      mload(0x40)\n      dup1\n      swap2\n      sub\n      swap1\n      return\n        /* \"contracts/BaseContract.sol\":3246:3286  mapping(address=>Firma) public  firmalar */\n    tag_8:\n      tag_44\n      0x04\n      dup1\n      calldatasize\n      sub\n      dup2\n      add\n      swap1\n      tag_45\n      swap2\n      swap1\n      tag_32\n      jump\t// in\n    tag_45:\n      tag_46\n      jump\t// in\n    tag_44:\n      mload(0x40)\n      tag_47\n      swap5\n      swap4\n      swap3\n      swap2\n      swap1\n      tag_48\n      jump\t// in\n    tag_47:\n      mload(0x40)\n      dup1\n      swap2\n      sub\n      swap1\n      return\n        /* \"contracts/CalismaBilgileri.sol\":2370:3784  function guncelleCalismaBilgi(address _kisiAddress, uint _calismaBilgiId, uint32 pozisyon, uint8 sektor, CalismaTipi calismaTipi, string memory isAciklama, uint basTarih, uint bitTarih, uint8 ulke, uint32 sehir)  public sadece_Uni_Firma_Kamu returns(uint){\r... */\n    tag_9:\n      tag_49\n      0x04\n      dup1\n      calldatasize\n      sub\n      dup2\n      add\n      swap1\n      tag_50\n      swap2\n      swap1\n      tag_51\n      jump\t// in\n    tag_50:\n      tag_52\n      jump\t// in\n    tag_49:\n      mload(0x40)\n      tag_53\n      swap2\n      swap1\n      tag_54\n      jump\t// in\n    tag_53:\n      mload(0x40)\n      dup1\n      swap2\n      sub\n      swap1\n      return\n        /* \"contracts/BaseContract.sol\":3338:3387  mapping(address=>KamuKurumu) public kamuKurumlari */\n    tag_10:\n      tag_55\n      0x04\n      dup1\n      calldatasize\n      sub\n      dup2\n      add\n      swap1\n      tag_56\n      swap2\n      swap1\n      tag_32\n      jump\t// in\n    tag_56:\n      tag_57\n      jump\t// in\n    tag_55:\n      mload(0x40)\n      tag_58\n      swap4\n      swap3\n      swap2\n      swap1\n      tag_35\n      jump\t// in\n    tag_58:\n      mload(0x40)\n      dup1\n      swap2\n      sub\n      swap1\n      return\n        /* \"contracts/BaseContract.sol\":3394:3429  mapping(address=>STK) public stklar */\n    tag_11:\n      tag_59\n      0x04\n      dup1\n      calldatasize\n      sub\n      dup2\n      add\n      swap1\n      tag_60\n      swap2\n      swap1\n      tag_32\n      jump\t// in\n    tag_60:\n      tag_61\n      jump\t// in\n    tag_59:\n      mload(0x40)\n      tag_62\n      swap4\n      swap3\n      swap2\n      swap1\n      tag_35\n      jump\t// in\n    tag_62:\n      mload(0x40)\n      dup1\n      swap2\n      sub\n      swap1\n      return\n        /* \"contracts/BaseContract.sol\":3505:3546  mapping(uint32=>YabanciDil) public diller */\n    tag_12:\n      tag_63\n      0x04\n      dup1\n      calldatasize\n      sub\n      dup2\n      add\n      swap1\n      tag_64\n      swap2\n      swap1\n      tag_65\n      jump\t// in\n    tag_64:\n      tag_66\n      jump\t// in\n    tag_63:\n      mload(0x40)\n      tag_67\n      swap3\n      swap2\n      swap1\n      tag_68\n      jump\t// in\n    tag_67:\n      mload(0x40)\n      dup1\n      swap2\n      sub\n      swap1\n      return\n        /* \"contracts/CalismaBilgileri.sol\":1100:2361  function ekleCalismaBilgi(address _kisiAddress, uint32 pozisyon, uint8 sektor, CalismaTipi calismaTipi, string memory isAciklama, uint basTarih, uint bitTarih, uint8 ulke, uint32 sehir)  public sadece_Uni_Firma_Kamu{\r... */\n    tag_13:\n      tag_69\n      0x04\n      dup1\n      calldatasize\n      sub\n      dup2\n      add\n      swap1\n      tag_70\n      swap2\n      swap1\n      tag_22\n      jump\t// in\n    tag_70:\n      tag_71\n      jump\t// in\n    tag_69:\n      stop\n        /* \"contracts/CalismaBilgileri.sol\":183:197  uint public id */\n    tag_14:\n      tag_72\n      tag_73\n      jump\t// in\n    tag_72:\n      mload(0x40)\n      tag_74\n      swap2\n      swap1\n      tag_54\n      jump\t// in\n    tag_74:\n      mload(0x40)\n      dup1\n      swap2\n      sub\n      swap1\n      return\n        /* \"contracts/BaseContract.sol\":3188:3239  mapping(address=>Akademisyen) public akademisyenler */\n    tag_15:\n      tag_75\n      0x04\n      dup1\n      calldatasize\n      sub\n      dup2\n      add\n      swap1\n      tag_76\n      swap2\n      swap1\n      tag_32\n      jump\t// in\n    tag_76:\n      tag_77\n      jump\t// in\n    tag_75:\n      mload(0x40)\n      tag_78\n      swap7\n      swap6\n      swap5\n      swap4\n      swap3\n      swap2\n      swap1\n      tag_79\n      jump\t// in\n    tag_78:\n      mload(0x40)\n      dup1\n      swap2\n      sub\n      swap1\n      return\n        /* \"contracts/BaseContract.sol\":3088:3125  mapping(address=>Kisi) public kisiler */\n    tag_16:\n      tag_80\n      0x04\n      dup1\n      calldatasize\n      sub\n      dup2\n      add\n      swap1\n      tag_81\n      swap2\n      swap1\n      tag_32\n      jump\t// in\n    tag_81:\n      tag_82\n      jump\t// in\n    tag_80:\n      mload(0x40)\n      tag_83\n      swap2\n      swap1\n      tag_84\n      jump\t// in\n    tag_83:\n      mload(0x40)\n      dup1\n      swap2\n      sub\n      swap1\n      return\n        /* \"contracts/CalismaBilgileri.sol\":3793:4953  function talepEtCalismaBilgi(address _talepEdilenKurum, uint32 pozisyon, uint8 sektor, CalismaTipi calismaTipi, string memory isAciklama, uint basTarih, uint bitTarih, uint8 ulke, uint32 sehir)  public sadeceKisi{\r... */\n    tag_23:\n        /* \"contracts/BaseContract.sol\":2124:2131  kisiler */\n      0x03\n        /* \"contracts/BaseContract.sol\":2124:2143  kisiler[msg.sender] */\n      0x00\n        /* \"contracts/BaseContract.sol\":2132:2142  msg.sender */\n      caller\n        /* \"contracts/BaseContract.sol\":2124:2143  kisiler[msg.sender] */\n      0xffffffffffffffffffffffffffffffffffffffff\n      and\n      0xffffffffffffffffffffffffffffffffffffffff\n      and\n      dup2\n      mstore\n      0x20\n      add\n      swap1\n      dup2\n      mstore\n      0x20\n      add\n      0x00\n      keccak256\n        /* \"contracts/BaseContract.sol\":2124:2149  kisiler[msg.sender].durum */\n      0x00\n      add\n      0x00\n      swap1\n      sload\n      swap1\n      0x0100\n      exp\n      swap1\n      div\n      0xff\n      and\n        /* \"contracts/BaseContract.sol\":2116:2201  require(kisiler[msg.sender].durum,\r... */\n      tag_86\n      jumpi\n      mload(0x40)\n      0x08c379a000000000000000000000000000000000000000000000000000000000\n      dup2\n      mstore\n      0x04\n      add\n      tag_87\n      swap1\n      tag_88\n      jump\t// in\n    tag_87:\n      mload(0x40)\n      dup1\n      swap2\n      sub\n      swap1\n      revert\n    tag_86:\n        /* \"contracts/CalismaBilgileri.sol\":4029:4036  kisiler */\n      0x03\n        /* \"contracts/CalismaBilgileri.sol\":4029:4048  kisiler[msg.sender] */\n      0x00\n        /* \"contracts/CalismaBilgileri.sol\":4037:4047  msg.sender */\n      caller\n        /* \"contracts/CalismaBilgileri.sol\":4029:4048  kisiler[msg.sender] */\n      0xffffffffffffffffffffffffffffffffffffffff\n      and\n      0xffffffffffffffffffffffffffffffffffffffff\n      and\n      dup2\n      mstore\n      0x20\n      add\n      swap1\n      dup2\n      mstore\n      0x20\n      add\n      0x00\n      keccak256\n        /* \"contracts/CalismaBilgileri.sol\":4029:4054  kisiler[msg.sender].durum */\n      0x00\n      add\n      0x00\n      swap1\n      sload\n      swap1\n      0x0100\n      exp\n      swap1\n      div\n      0xff\n      and\n        /* \"contracts/CalismaBilgileri.sol\":4021:4076  require(kisiler[msg.sender].durum,\"Student not exists\") */\n      tag_90\n      jumpi\n      mload(0x40)\n      0x08c379a000000000000000000000000000000000000000000000000000000000\n      dup2\n      mstore\n      0x04\n      add\n      tag_91\n      swap1\n      tag_92\n      jump\t// in\n    tag_91:\n      mload(0x40)\n      dup1\n      swap2\n      sub\n      swap1\n      revert\n    tag_90:\n        /* \"contracts/CalismaBilgileri.sol\":4092:4103  uint yeniId */\n      0x00\n        /* \"contracts/CalismaBilgileri.sol\":4104:4106  id */\n      0x0c\n      0x00\n        /* \"contracts/CalismaBilgileri.sol\":4104:4108  id++ */\n      dup2\n      sload\n      dup1\n      swap3\n      swap2\n      swap1\n      tag_93\n      swap1\n      tag_94\n      jump\t// in\n    tag_93:\n      swap2\n      swap1\n      pop\n      sstore\n        /* \"contracts/CalismaBilgileri.sol\":4092:4108  uint yeniId=id++ */\n      swap1\n      pop\n        /* \"contracts/CalismaBilgileri.sol\":4180:4197  _talepEdilenKurum */\n      dup10\n        /* \"contracts/CalismaBilgileri.sol\":4126:4142  calismaBilgileri */\n      0x0d\n        /* \"contracts/CalismaBilgileri.sol\":4126:4154  calismaBilgileri[msg.sender] */\n      0x00\n        /* \"contracts/CalismaBilgileri.sol\":4143:4153  msg.sender */\n      caller\n        /* \"contracts/CalismaBilgileri.sol\":4126:4154  calismaBilgileri[msg.sender] */\n      0xffffffffffffffffffffffffffffffffffffffff\n      and\n      0xffffffffffffffffffffffffffffffffffffffff\n      and\n      dup2\n      mstore\n      0x20\n      add\n      swap1\n      dup2\n      mstore\n      0x20\n      add\n      0x00\n      keccak256\n        /* \"contracts/CalismaBilgileri.sol\":4126:4162  calismaBilgileri[msg.sender][yeniId] */\n      0x00\n        /* \"contracts/CalismaBilgileri.sol\":4155:4161  yeniId */\n      dup4\n        /* \"contracts/CalismaBilgileri.sol\":4126:4162  calismaBilgileri[msg.sender][yeniId] */\n      dup2\n      mstore\n      0x20\n      add\n      swap1\n      dup2\n      mstore\n      0x20\n      add\n      0x00\n      keccak256\n        /* \"contracts/CalismaBilgileri.sol\":4126:4179  calismaBilgileri[msg.sender][yeniId].talepEdilenKurum */\n      0x01\n      add\n      0x00\n        /* \"contracts/CalismaBilgileri.sol\":4126:4197  calismaBilgileri[msg.sender][yeniId].talepEdilenKurum=_talepEdilenKurum */\n      0x0100\n      exp\n      dup2\n      sload\n      dup2\n      0xffffffffffffffffffffffffffffffffffffffff\n      mul\n      not\n      and\n      swap1\n      dup4\n      0xffffffffffffffffffffffffffffffffffffffff\n      and\n      mul\n      or\n      swap1\n      sstore\n      pop\n        /* \"contracts/CalismaBilgileri.sol\":4259:4267  pozisyon */\n      dup9\n        /* \"contracts/CalismaBilgileri.sol\":4213:4229  calismaBilgileri */\n      0x0d\n        /* \"contracts/CalismaBilgileri.sol\":4213:4241  calismaBilgileri[msg.sender] */\n      0x00\n        /* \"contracts/CalismaBilgileri.sol\":4230:4240  msg.sender */\n      caller\n        /* \"contracts/CalismaBilgileri.sol\":4213:4241  calismaBilgileri[msg.sender] */\n      0xffffffffffffffffffffffffffffffffffffffff\n      and\n      0xffffffffffffffffffffffffffffffffffffffff\n      and\n      dup2\n      mstore\n      0x20\n      add\n      swap1\n      dup2\n      mstore\n      0x20\n      add\n      0x00\n      keccak256\n        /* \"contracts/CalismaBilgileri.sol\":4213:4249  calismaBilgileri[msg.sender][yeniId] */\n      0x00\n        /* \"contracts/CalismaBilgileri.sol\":4242:4248  yeniId */\n      dup4\n        /* \"contracts/CalismaBilgileri.sol\":4213:4249  calismaBilgileri[msg.sender][yeniId] */\n      dup2\n      mstore\n      0x20\n      add\n      swap1\n      dup2\n      mstore\n      0x20\n      add\n      0x00\n      keccak256\n        /* \"contracts/CalismaBilgileri.sol\":4213:4258  calismaBilgileri[msg.sender][yeniId].pozisyon */\n      0x01\n      add\n      0x14\n        /* \"contracts/CalismaBilgileri.sol\":4213:4267  calismaBilgileri[msg.sender][yeniId].pozisyon=pozisyon */\n      0x0100\n      exp\n      dup2\n      sload\n      dup2\n      0xffffffff\n      mul\n      not\n      and\n      swap1\n      dup4\n      0xffffffff\n      and\n      mul\n      or\n      swap1\n      sstore\n      pop\n        /* \"contracts/CalismaBilgileri.sol\":4327:4333  sektor */\n      dup8\n        /* \"contracts/CalismaBilgileri.sol\":4283:4299  calismaBilgileri */\n      0x0d\n        /* \"contracts/CalismaBilgileri.sol\":4283:4311  calismaBilgileri[msg.sender] */\n      0x00\n        /* \"contracts/CalismaBilgileri.sol\":4300:4310  msg.sender */\n      caller\n        /* \"contracts/CalismaBilgileri.sol\":4283:4311  calismaBilgileri[msg.sender] */\n      0xffffffffffffffffffffffffffffffffffffffff\n      and\n      0xffffffffffffffffffffffffffffffffffffffff\n      and\n      dup2\n      mstore\n      0x20\n      add\n      swap1\n      dup2\n      mstore\n      0x20\n      add\n      0x00\n      keccak256\n        /* \"contracts/CalismaBilgileri.sol\":4283:4319  calismaBilgileri[msg.sender][yeniId] */\n      0x00\n        /* \"contracts/CalismaBilgileri.sol\":4312:4318  yeniId */\n      dup4\n        /* \"contracts/CalismaBilgileri.sol\":4283:4319  calismaBilgileri[msg.sender][yeniId] */\n      dup2\n      mstore\n      0x20\n      add\n      swap1\n      dup2\n      mstore\n      0x20\n      add\n      0x00\n      keccak256\n        /* \"contracts/CalismaBilgileri.sol\":4283:4326  calismaBilgileri[msg.sender][yeniId].sektor */\n      0x01\n      add\n      0x18\n        /* \"contracts/CalismaBilgileri.sol\":4283:4333  calismaBilgileri[msg.sender][yeniId].sektor=sektor */\n      0x0100\n      exp\n      dup2\n      sload\n      dup2\n      0xff\n      mul\n      not\n      and\n      swap1\n      dup4\n      0xff\n      and\n      mul\n      or\n      swap1\n      sstore\n      pop\n        /* \"contracts/CalismaBilgileri.sol\":4398:4409  calismaTipi */\n      dup7\n        /* \"contracts/CalismaBilgileri.sol\":4349:4365  calismaBilgileri */\n      0x0d\n        /* \"contracts/CalismaBilgileri.sol\":4349:4377  calismaBilgileri[msg.sender] */\n      0x00\n        /* \"contracts/CalismaBilgileri.sol\":4366:4376  msg.sender */\n      caller\n        /* \"contracts/CalismaBilgileri.sol\":4349:4377  calismaBilgileri[msg.sender] */\n      0xffffffffffffffffffffffffffffffffffffffff\n      and\n      0xffffffffffffffffffffffffffffffffffffffff\n      and\n      dup2\n      mstore\n      0x20\n      add\n      swap1\n      dup2\n      mstore\n      0x20\n      add\n      0x00\n      keccak256\n        /* \"contracts/CalismaBilgileri.sol\":4349:4385  calismaBilgileri[msg.sender][yeniId] */\n      0x00\n        /* \"contracts/CalismaBilgileri.sol\":4378:4384  yeniId */\n      dup4\n        /* \"contracts/CalismaBilgileri.sol\":4349:4385  calismaBilgileri[msg.sender][yeniId] */\n      dup2\n      mstore\n      0x20\n      add\n      swap1\n      dup2\n      mstore\n      0x20\n      add\n      0x00\n      keccak256\n        /* \"contracts/CalismaBilgileri.sol\":4349:4397  calismaBilgileri[msg.sender][yeniId].calismaTipi */\n      0x01\n      add\n      0x19\n        /* \"contracts/CalismaBilgileri.sol\":4349:4409  calismaBilgileri[msg.sender][yeniId].calismaTipi=calismaTipi */\n      0x0100\n      exp\n      dup2\n      sload\n      dup2\n      0xff\n      mul\n      not\n      and\n      swap1\n      dup4\n      0x02\n      dup2\n      gt\n      iszero\n      tag_95\n      jumpi\n      tag_96\n      tag_97\n      jump\t// in\n    tag_96:\n    tag_95:\n      mul\n      or\n      swap1\n      sstore\n      pop\n        /* \"contracts/CalismaBilgileri.sol\":4473:4483  isAciklama */\n      dup6\n        /* \"contracts/CalismaBilgileri.sol\":4425:4441  calismaBilgileri */\n      0x0d\n        /* \"contracts/CalismaBilgileri.sol\":4425:4453  calismaBilgileri[msg.sender] */\n      0x00\n        /* \"contracts/CalismaBilgileri.sol\":4442:4452  msg.sender */\n      caller\n        /* \"contracts/CalismaBilgileri.sol\":4425:4453  calismaBilgileri[msg.sender] */\n      0xffffffffffffffffffffffffffffffffffffffff\n      and\n      0xffffffffffffffffffffffffffffffffffffffff\n      and\n      dup2\n      mstore\n      0x20\n      add\n      swap1\n      dup2\n      mstore\n      0x20\n      add\n      0x00\n      keccak256\n        /* \"contracts/CalismaBilgileri.sol\":4425:4461  calismaBilgileri[msg.sender][yeniId] */\n      0x00\n        /* \"contracts/CalismaBilgileri.sol\":4454:4460  yeniId */\n      dup4\n        /* \"contracts/CalismaBilgileri.sol\":4425:4461  calismaBilgileri[msg.sender][yeniId] */\n      dup2\n      mstore\n      0x20\n      add\n      swap1\n      dup2\n      mstore\n      0x20\n      add\n      0x00\n      keccak256\n        /* \"contracts/CalismaBilgileri.sol\":4425:4472  calismaBilgileri[msg.sender][yeniId].isAciklama */\n      0x02\n      add\n        /* \"contracts/CalismaBilgileri.sol\":4425:4483  calismaBilgileri[msg.sender][yeniId].isAciklama=isAciklama */\n      swap1\n      dup1\n      mload\n      swap1\n      0x20\n      add\n      swap1\n      tag_98\n      swap3\n      swap2\n      swap1\n      tag_99\n      jump\t// in\n    tag_98:\n      pop\n        /* \"contracts/CalismaBilgileri.sol\":4545:4553  basTarih */\n      dup5\n        /* \"contracts/CalismaBilgileri.sol\":4499:4515  calismaBilgileri */\n      0x0d\n        /* \"contracts/CalismaBilgileri.sol\":4499:4527  calismaBilgileri[msg.sender] */\n      0x00\n        /* \"contracts/CalismaBilgileri.sol\":4516:4526  msg.sender */\n      caller\n        /* \"contracts/CalismaBilgileri.sol\":4499:4527  calismaBilgileri[msg.sender] */\n      0xffffffffffffffffffffffffffffffffffffffff\n      and\n      0xffffffffffffffffffffffffffffffffffffffff\n      and\n      dup2\n      mstore\n      0x20\n      add\n      swap1\n      dup2\n      mstore\n      0x20\n      add\n      0x00\n      keccak256\n        /* \"contracts/CalismaBilgileri.sol\":4499:4535  calismaBilgileri[msg.sender][yeniId] */\n      0x00\n        /* \"contracts/CalismaBilgileri.sol\":4528:4534  yeniId */\n      dup4\n        /* \"contracts/CalismaBilgileri.sol\":4499:4535  calismaBilgileri[msg.sender][yeniId] */\n      dup2\n      mstore\n      0x20\n      add\n      swap1\n      dup2\n      mstore\n      0x20\n      add\n      0x00\n      keccak256\n        /* \"contracts/CalismaBilgileri.sol\":4499:4544  calismaBilgileri[msg.sender][yeniId].basTarih */\n      0x03\n      add\n        /* \"contracts/CalismaBilgileri.sol\":4499:4553  calismaBilgileri[msg.sender][yeniId].basTarih=basTarih */\n      dup2\n      swap1\n      sstore\n      pop\n        /* \"contracts/CalismaBilgileri.sol\":4615:4623  bitTarih */\n      dup4\n        /* \"contracts/CalismaBilgileri.sol\":4569:4585  calismaBilgileri */\n      0x0d\n        /* \"contracts/CalismaBilgileri.sol\":4569:4597  calismaBilgileri[msg.sender] */\n      0x00\n        /* \"contracts/CalismaBilgileri.sol\":4586:4596  msg.sender */\n      caller\n        /* \"contracts/CalismaBilgileri.sol\":4569:4597  calismaBilgileri[msg.sender] */\n      0xffffffffffffffffffffffffffffffffffffffff\n      and\n      0xffffffffffffffffffffffffffffffffffffffff\n      and\n      dup2\n      mstore\n      0x20\n      add\n      swap1\n      dup2\n      mstore\n      0x20\n      add\n      0x00\n      keccak256\n        /* \"contracts/CalismaBilgileri.sol\":4569:4605  calismaBilgileri[msg.sender][yeniId] */\n      0x00\n        /* \"contracts/CalismaBilgileri.sol\":4598:4604  yeniId */\n      dup4\n        /* \"contracts/CalismaBilgileri.sol\":4569:4605  calismaBilgileri[msg.sender][yeniId] */\n      dup2\n      mstore\n      0x20\n      add\n      swap1\n      dup2\n      mstore\n      0x20\n      add\n      0x00\n      keccak256\n        /* \"contracts/CalismaBilgileri.sol\":4569:4614  calismaBilgileri[msg.sender][yeniId].bitTarih */\n      0x04\n      add\n        /* \"contracts/CalismaBilgileri.sol\":4569:4623  calismaBilgileri[msg.sender][yeniId].bitTarih=bitTarih */\n      dup2\n      swap1\n      sstore\n      pop\n        /* \"contracts/CalismaBilgileri.sol\":4681:4685  ulke */\n      dup3\n        /* \"contracts/CalismaBilgileri.sol\":4639:4655  calismaBilgileri */\n      0x0d\n        /* \"contracts/CalismaBilgileri.sol\":4639:4667  calismaBilgileri[msg.sender] */\n      0x00\n        /* \"contracts/CalismaBilgileri.sol\":4656:4666  msg.sender */\n      caller\n        /* \"contracts/CalismaBilgileri.sol\":4639:4667  calismaBilgileri[msg.sender] */\n      0xffffffffffffffffffffffffffffffffffffffff\n      and\n      0xffffffffffffffffffffffffffffffffffffffff\n      and\n      dup2\n      mstore\n      0x20\n      add\n      swap1\n      dup2\n      mstore\n      0x20\n      add\n      0x00\n      keccak256\n        /* \"contracts/CalismaBilgileri.sol\":4639:4675  calismaBilgileri[msg.sender][yeniId] */\n      0x00\n        /* \"contracts/CalismaBilgileri.sol\":4668:4674  yeniId */\n      dup4\n        /* \"contracts/CalismaBilgileri.sol\":4639:4675  calismaBilgileri[msg.sender][yeniId] */\n      dup2\n      mstore\n      0x20\n      add\n      swap1\n      dup2\n      mstore\n      0x20\n      add\n      0x00\n      keccak256\n        /* \"contracts/CalismaBilgileri.sol\":4639:4680  calismaBilgileri[msg.sender][yeniId].ulke */\n      0x05\n      add\n      0x00\n        /* \"contracts/CalismaBilgileri.sol\":4639:4685  calismaBilgileri[msg.sender][yeniId].ulke=ulke */\n      0x0100\n      exp\n      dup2\n      sload\n      dup2\n      0xff\n      mul\n      not\n      and\n      swap1\n      dup4\n      0xff\n      and\n      mul\n      or\n      swap1\n      sstore\n      pop\n        /* \"contracts/CalismaBilgileri.sol\":4744:4749  sehir */\n      dup2\n        /* \"contracts/CalismaBilgileri.sol\":4701:4717  calismaBilgileri */\n      0x0d\n        /* \"contracts/CalismaBilgileri.sol\":4701:4729  calismaBilgileri[msg.sender] */\n      0x00\n        /* \"contracts/CalismaBilgileri.sol\":4718:4728  msg.sender */\n      caller\n        /* \"contracts/CalismaBilgileri.sol\":4701:4729  calismaBilgileri[msg.sender] */\n      0xffffffffffffffffffffffffffffffffffffffff\n      and\n      0xffffffffffffffffffffffffffffffffffffffff\n      and\n      dup2\n      mstore\n      0x20\n      add\n      swap1\n      dup2\n      mstore\n      0x20\n      add\n      0x00\n      keccak256\n        /* \"contracts/CalismaBilgileri.sol\":4701:4737  calismaBilgileri[msg.sender][yeniId] */\n      0x00\n        /* \"contracts/CalismaBilgileri.sol\":4730:4736  yeniId */\n      dup4\n        /* \"contracts/CalismaBilgileri.sol\":4701:4737  calismaBilgileri[msg.sender][yeniId] */\n      dup2\n      mstore\n      0x20\n      add\n      swap1\n      dup2\n      mstore\n      0x20\n      add\n      0x00\n      keccak256\n        /* \"contracts/CalismaBilgileri.sol\":4701:4743  calismaBilgileri[msg.sender][yeniId].sehir */\n      0x05\n      add\n      0x01\n        /* \"contracts/CalismaBilgileri.sol\":4701:4749  calismaBilgileri[msg.sender][yeniId].sehir=sehir */\n      0x0100\n      exp\n      dup2\n      sload\n      dup2\n      0xffffffff\n      mul\n      not\n      and\n      swap1\n      dup4\n      0xffffffff\n      and\n      mul\n      or\n      swap1\n      sstore\n      pop\n        /* \"contracts/CalismaBilgileri.sol\":4818:4840  OnayDurum.OnayBekliyor */\n      0x00\n        /* \"contracts/CalismaBilgileri.sol\":4765:4781  calismaBilgileri */\n      0x0d\n        /* \"contracts/CalismaBilgileri.sol\":4765:4793  calismaBilgileri[msg.sender] */\n      0x00\n        /* \"contracts/CalismaBilgileri.sol\":4782:4792  msg.sender */\n      caller\n        /* \"contracts/CalismaBilgileri.sol\":4765:4793  calismaBilgileri[msg.sender] */\n      0xffffffffffffffffffffffffffffffffffffffff\n      and\n      0xffffffffffffffffffffffffffffffffffffffff\n      and\n      dup2\n      mstore\n      0x20\n      add\n      swap1\n      dup2\n      mstore\n      0x20\n      add\n      0x00\n      keccak256\n        /* \"contracts/CalismaBilgileri.sol\":4765:4801  calismaBilgileri[msg.sender][yeniId] */\n      0x00\n        /* \"contracts/CalismaBilgileri.sol\":4794:4800  yeniId */\n      dup4\n        /* \"contracts/CalismaBilgileri.sol\":4765:4801  calismaBilgileri[msg.sender][yeniId] */\n      dup2\n      mstore\n      0x20\n      add\n      swap1\n      dup2\n      mstore\n      0x20\n      add\n      0x00\n      keccak256\n        /* \"contracts/CalismaBilgileri.sol\":4765:4811  calismaBilgileri[msg.sender][yeniId].onayBilgi */\n      0x06\n      add\n        /* \"contracts/CalismaBilgileri.sol\":4765:4817  calismaBilgileri[msg.sender][yeniId].onayBilgi.durum */\n      0x01\n      add\n      0x14\n        /* \"contracts/CalismaBilgileri.sol\":4765:4840  calismaBilgileri[msg.sender][yeniId].onayBilgi.durum=OnayDurum.OnayBekliyor */\n      0x0100\n      exp\n      dup2\n      sload\n      dup2\n      0xff\n      mul\n      not\n      and\n      swap1\n      dup4\n      0x02\n      dup2\n      gt\n      iszero\n      tag_100\n      jumpi\n      tag_101\n      tag_97\n      jump\t// in\n    tag_101:\n    tag_100:\n      mul\n      or\n      swap1\n      sstore\n      pop\n        /* \"contracts/CalismaBilgileri.sol\":4876:4945  CalismaBilgiTalepEdildiLog( _talepEdilenKurum, ulke,pozisyon, sektor) */\n      0xb1e7ee8400131f0adc507179ea96ee8eb90b1a9e9215ce4232f874cb41aa88ef\n        /* \"contracts/CalismaBilgileri.sol\":4904:4921  _talepEdilenKurum */\n      dup11\n        /* \"contracts/CalismaBilgileri.sol\":4923:4927  ulke */\n      dup5\n        /* \"contracts/CalismaBilgileri.sol\":4928:4936  pozisyon */\n      dup12\n        /* \"contracts/CalismaBilgileri.sol\":4938:4944  sektor */\n      dup12\n        /* \"contracts/CalismaBilgileri.sol\":4876:4945  CalismaBilgiTalepEdildiLog( _talepEdilenKurum, ulke,pozisyon, sektor) */\n      mload(0x40)\n      tag_102\n      swap5\n      swap4\n      swap3\n      swap2\n      swap1\n      tag_103\n      jump\t// in\n    tag_102:\n      mload(0x40)\n      dup1\n      swap2\n      sub\n      swap1\n      log1\n        /* \"contracts/CalismaBilgileri.sol\":4005:4953  {\r... */\n      pop\n        /* \"contracts/CalismaBilgileri.sol\":3793:4953  function talepEtCalismaBilgi(address _talepEdilenKurum, uint32 pozisyon, uint8 sektor, CalismaTipi calismaTipi, string memory isAciklama, uint basTarih, uint bitTarih, uint8 ulke, uint32 sehir)  public sadeceKisi{\r... */\n      pop\n      pop\n      pop\n      pop\n      pop\n      pop\n      pop\n      pop\n      pop\n      jump\t// out\n        /* \"contracts/CalismaBilgileri.sol\":675:744  mapping(address=>mapping(uint=>CalismaBilgi)) public calismaBilgileri */\n    tag_27:\n      mstore(0x20, 0x0d)\n      dup2\n      0x00\n      mstore\n      mstore(0x20, keccak256(0x00, 0x40))\n      dup1\n      0x00\n      mstore\n      keccak256(0x00, 0x40)\n      0x00\n      swap2\n      pop\n      swap2\n      pop\n      pop\n      dup1\n      0x00\n      add\n      sload\n      swap1\n      dup1\n      0x01\n      add\n      0x00\n      swap1\n      sload\n      swap1\n      0x0100\n      exp\n      swap1\n      div\n      0xffffffffffffffffffffffffffffffffffffffff\n      and\n      swap1\n      dup1\n      0x01\n      add\n      0x14\n      swap1\n      sload\n      swap1\n      0x0100\n      exp\n      swap1\n      div\n      0xffffffff\n      and\n      swap1\n      dup1\n      0x01\n      add\n      0x18\n      swap1\n      sload\n      swap1\n      0x0100\n      exp\n      swap1\n      div\n      0xff\n      and\n      swap1\n      dup1\n      0x01\n      add\n      0x19\n      swap1\n      sload\n      swap1\n      0x0100\n      exp\n      swap1\n      div\n      0xff\n      and\n      swap1\n      dup1\n      0x02\n      add\n      dup1\n      sload\n      tag_104\n      swap1\n      tag_105\n      jump\t// in\n    tag_104:\n      dup1\n      0x1f\n      add\n      0x20\n      dup1\n      swap2\n      div\n      mul\n      0x20\n      add\n      mload(0x40)\n      swap1\n      dup2\n      add\n      0x40\n      mstore\n      dup1\n      swap3\n      swap2\n      swap1\n      dup2\n      dup2\n      mstore\n      0x20\n      add\n      dup3\n      dup1\n      sload\n      tag_106\n      swap1\n      tag_105\n      jump\t// in\n    tag_106:\n      dup1\n      iszero\n      tag_107\n      jumpi\n      dup1\n      0x1f\n      lt\n      tag_108\n      jumpi\n      0x0100\n      dup1\n      dup4\n      sload\n      div\n      mul\n      dup4\n      mstore\n      swap2\n      0x20\n      add\n      swap2\n      jump(tag_107)\n    tag_108:\n      dup3\n      add\n      swap2\n      swap1\n      0x00\n      mstore\n      keccak256(0x00, 0x20)\n      swap1\n    tag_109:\n      dup2\n      sload\n      dup2\n      mstore\n      swap1\n      0x01\n      add\n      swap1\n      0x20\n      add\n      dup1\n      dup4\n      gt\n      tag_109\n      jumpi\n      dup3\n      swap1\n      sub\n      0x1f\n      and\n      dup3\n      add\n      swap2\n    tag_107:\n      pop\n      pop\n      pop\n      pop\n      pop\n      swap1\n      dup1\n      0x03\n      add\n      sload\n      swap1\n      dup1\n      0x04\n      add\n      sload\n      swap1\n      dup1\n      0x05\n      add\n      0x00\n      swap1\n      sload\n      swap1\n      0x0100\n      exp\n      swap1\n      div\n      0xff\n      and\n      swap1\n      dup1\n      0x05\n      add\n      0x01\n      swap1\n      sload\n      swap1\n      0x0100\n      exp\n      swap1\n      div\n      0xffffffff\n      and\n      swap1\n      dup1\n      0x06\n      add\n      mload(0x40)\n      dup1\n      0x60\n      add\n      0x40\n      mstore\n      swap1\n      dup2\n      0x00\n      dup3\n      add\n      sload\n      dup2\n      mstore\n      0x20\n      add\n      0x01\n      dup3\n      add\n      0x00\n      swap1\n      sload\n      swap1\n      0x0100\n      exp\n      swap1\n      div\n      0xffffffffffffffffffffffffffffffffffffffff\n      and\n      0xffffffffffffffffffffffffffffffffffffffff\n      and\n      0xffffffffffffffffffffffffffffffffffffffff\n      and\n      dup2\n      mstore\n      0x20\n      add\n      0x01\n      dup3\n      add\n      0x14\n      swap1\n      sload\n      swap1\n      0x0100\n      exp\n      swap1\n      div\n      0xff\n      and\n      0x02\n      dup2\n      gt\n      iszero\n      tag_110\n      jumpi\n      tag_111\n      tag_97\n      jump\t// in\n    tag_111:\n    tag_110:\n      0x02\n      dup2\n      gt\n      iszero\n      tag_112\n      jumpi\n      tag_113\n      tag_97\n      jump\t// in\n    tag_113:\n    tag_112:\n      dup2\n      mstore\n      pop\n      pop\n      swap1\n      pop\n      dup12\n      jump\t// out\n        /* \"contracts/BaseContract.sol\":3293:3331  mapping(address=>Kurs) public  kurslar */\n    tag_33:\n      mstore(0x20, 0x07)\n      dup1\n      0x00\n      mstore\n      keccak256(0x00, 0x40)\n      0x00\n      swap2\n      pop\n      swap1\n      pop\n      dup1\n      0x00\n      add\n      0x00\n      swap1\n      sload\n      swap1\n      0x0100\n      exp\n      swap1\n      div\n      0xff\n      and\n      swap1\n      dup1\n      0x01\n      add\n      dup1\n      sload\n      tag_114\n      swap1\n      tag_105\n      jump\t// in\n    tag_114:\n      dup1\n      0x1f\n      add\n      0x20\n      dup1\n      swap2\n      div\n      mul\n      0x20\n      add\n      mload(0x40)\n      swap1\n      dup2\n      add\n      0x40\n      mstore\n      dup1\n      swap3\n      swap2\n      swap1\n      dup2\n      dup2\n      mstore\n      0x20\n      add\n      dup3\n      dup1\n      sload\n      tag_115\n      swap1\n      tag_105\n      jump\t// in\n    tag_115:\n      dup1\n      iszero\n      tag_116\n      jumpi\n      dup1\n      0x1f\n      lt\n      tag_117\n      jumpi\n      0x0100\n      dup1\n      dup4\n      sload\n      div\n      mul\n      dup4\n      mstore\n      swap2\n      0x20\n      add\n      swap2\n      jump(tag_116)\n    tag_117:\n      dup3\n      add\n      swap2\n      swap1\n      0x00\n      mstore\n      keccak256(0x00, 0x20)\n      swap1\n    tag_118:\n      dup2\n      sload\n      dup2\n      mstore\n      swap1\n      0x01\n      add\n      swap1\n      0x20\n      add\n      dup1\n      dup4\n      gt\n      tag_118\n      jumpi\n      dup3\n      swap1\n      sub\n      0x1f\n      and\n      dup3\n      add\n      swap2\n    tag_116:\n      pop\n      pop\n      pop\n      pop\n      pop\n      swap1\n      dup1\n      0x02\n      add\n      0x00\n      swap1\n      sload\n      swap1\n      0x0100\n      exp\n      swap1\n      div\n      0xff\n      and\n      swap1\n      pop\n      dup4\n      jump\t// out\n        /* \"contracts/BaseContract.sol\":3132:3181  mapping(address=>Universite) public universiteler */\n    tag_38:\n      mstore(0x20, 0x04)\n      dup1\n      0x00\n      mstore\n      keccak256(0x00, 0x40)\n      0x00\n      swap2\n      pop\n      swap1\n      pop\n      dup1\n      0x00\n      add\n      0x00\n      swap1\n      sload\n      swap1\n      0x0100\n      exp\n      swap1\n      div\n      0xff\n      and\n      swap1\n      dup1\n      0x01\n      add\n      dup1\n      sload\n      tag_119\n      swap1\n      tag_105\n      jump\t// in\n    tag_119:\n      dup1\n      0x1f\n      add\n      0x20\n      dup1\n      swap2\n      div\n      mul\n      0x20\n      add\n      mload(0x40)\n      swap1\n      dup2\n      add\n      0x40\n      mstore\n      dup1\n      swap3\n      swap2\n      swap1\n      dup2\n      dup2\n      mstore\n      0x20\n      add\n      dup3\n      dup1\n      sload\n      tag_120\n      swap1\n      tag_105\n      jump\t// in\n    tag_120:\n      dup1\n      iszero\n      tag_121\n      jumpi\n      dup1\n      0x1f\n      lt\n      tag_122\n      jumpi\n      0x0100\n      dup1\n      dup4\n      sload\n      div\n      mul\n      dup4\n      mstore\n      swap2\n      0x20\n      add\n      swap2\n      jump(tag_121)\n    tag_122:\n      dup3\n      add\n      swap2\n      swap1\n      0x00\n      mstore\n      keccak256(0x00, 0x20)\n      swap1\n    tag_123:\n      dup2\n      sload\n      dup2\n      mstore\n      swap1\n      0x01\n      add\n      swap1\n      0x20\n      add\n      dup1\n      dup4\n      gt\n      tag_123\n      jumpi\n      dup3\n      swap1\n      sub\n      0x1f\n      and\n      dup3\n      add\n      swap2\n    tag_121:\n      pop\n      pop\n      pop\n      pop\n      pop\n      swap1\n      dup1\n      0x02\n      add\n      0x00\n      swap1\n      sload\n      swap1\n      0x0100\n      exp\n      swap1\n      div\n      0xff\n      and\n      swap1\n      pop\n      dup4\n      jump\t// out\n        /* \"contracts/BaseContract.sol\":3436:3497  mapping(address=>SertifikaMerkezi) public sertifikaMerkezleri */\n    tag_42:\n      mstore(0x20, 0x0a)\n      dup1\n      0x00\n      mstore\n      keccak256(0x00, 0x40)\n      0x00\n      swap2\n      pop\n      swap1\n      pop\n      dup1\n      0x00\n      add\n      0x00\n      swap1\n      sload\n      swap1\n      0x0100\n      exp\n      swap1\n      div\n      0xff\n      and\n      swap1\n      dup1\n      0x01\n      add\n      dup1\n      sload\n      tag_124\n      swap1\n      tag_105\n      jump\t// in\n    tag_124:\n      dup1\n      0x1f\n      add\n      0x20\n      dup1\n      swap2\n      div\n      mul\n      0x20\n      add\n      mload(0x40)\n      swap1\n      dup2\n      add\n      0x40\n      mstore\n      dup1\n      swap3\n      swap2\n      swap1\n      dup2\n      dup2\n      mstore\n      0x20\n      add\n      dup3\n      dup1\n      sload\n      tag_125\n      swap1\n      tag_105\n      jump\t// in\n    tag_125:\n      dup1\n      iszero\n      tag_126\n      jumpi\n      dup1\n      0x1f\n      lt\n      tag_127\n      jumpi\n      0x0100\n      dup1\n      dup4\n      sload\n      div\n      mul\n      dup4\n      mstore\n      swap2\n      0x20\n      add\n      swap2\n      jump(tag_126)\n    tag_127:\n      dup3\n      add\n      swap2\n      swap1\n      0x00\n      mstore\n      keccak256(0x00, 0x20)\n      swap1\n    tag_128:\n      dup2\n      sload\n      dup2\n      mstore\n      swap1\n      0x01\n      add\n      swap1\n      0x20\n      add\n      dup1\n      dup4\n      gt\n      tag_128\n      jumpi\n      dup3\n      swap1\n      sub\n      0x1f\n      and\n      dup3\n      add\n      swap2\n    tag_126:\n      pop\n      pop\n      pop\n      pop\n      pop\n      swap1\n      dup1\n      0x02\n      add\n      0x00\n      swap1\n      sload\n      swap1\n      0x0100\n      exp\n      swap1\n      div\n      0xff\n      and\n      swap1\n      pop\n      dup4\n      jump\t// out\n        /* \"contracts/BaseContract.sol\":3246:3286  mapping(address=>Firma) public  firmalar */\n    tag_46:\n      mstore(0x20, 0x06)\n      dup1\n      0x00\n      mstore\n      keccak256(0x00, 0x40)\n      0x00\n      swap2\n      pop\n      swap1\n      pop\n      dup1\n      0x00\n      add\n      0x00\n      swap1\n      sload\n      swap1\n      0x0100\n      exp\n      swap1\n      div\n      0xff\n      and\n      swap1\n      dup1\n      0x00\n      add\n      0x01\n      swap1\n      sload\n      swap1\n      0x0100\n      exp\n      swap1\n      div\n      0xff\n      and\n      swap1\n      dup1\n      0x01\n      add\n      sload\n      swap1\n      dup1\n      0x02\n      add\n      dup1\n      sload\n      tag_129\n      swap1\n      tag_105\n      jump\t// in\n    tag_129:\n      dup1\n      0x1f\n      add\n      0x20\n      dup1\n      swap2\n      div\n      mul\n      0x20\n      add\n      mload(0x40)\n      swap1\n      dup2\n      add\n      0x40\n      mstore\n      dup1\n      swap3\n      swap2\n      swap1\n      dup2\n      dup2\n      mstore\n      0x20\n      add\n      dup3\n      dup1\n      sload\n      tag_130\n      swap1\n      tag_105\n      jump\t// in\n    tag_130:\n      dup1\n      iszero\n      tag_131\n      jumpi\n      dup1\n      0x1f\n      lt\n      tag_132\n      jumpi\n      0x0100\n      dup1\n      dup4\n      sload\n      div\n      mul\n      dup4\n      mstore\n      swap2\n      0x20\n      add\n      swap2\n      jump(tag_131)\n    tag_132:\n      dup3\n      add\n      swap2\n      swap1\n      0x00\n      mstore\n      keccak256(0x00, 0x20)\n      swap1\n    tag_133:\n      dup2\n      sload\n      dup2\n      mstore\n      swap1\n      0x01\n      add\n      swap1\n      0x20\n      add\n      dup1\n      dup4\n      gt\n      tag_133\n      jumpi\n      dup3\n      swap1\n      sub\n      0x1f\n      and\n      dup3\n      add\n      swap2\n    tag_131:\n      pop\n      pop\n      pop\n      pop\n      pop\n      swap1\n      pop\n      dup5\n      jump\t// out\n        /* \"contracts/CalismaBilgileri.sol\":2370:3784  function guncelleCalismaBilgi(address _kisiAddress, uint _calismaBilgiId, uint32 pozisyon, uint8 sektor, CalismaTipi calismaTipi, string memory isAciklama, uint basTarih, uint bitTarih, uint8 ulke, uint32 sehir)  public sadece_Uni_Firma_Kamu returns(uint){\r... */\n    tag_52:\n        /* \"contracts/CalismaBilgileri.sol\":2620:2624  uint */\n      0x00\n        /* \"contracts/BaseContract.sol\":2759:2772  universiteler */\n      0x04\n        /* \"contracts/BaseContract.sol\":2759:2784  universiteler[msg.sender] */\n      0x00\n        /* \"contracts/BaseContract.sol\":2773:2783  msg.sender */\n      caller\n        /* \"contracts/BaseContract.sol\":2759:2784  universiteler[msg.sender] */\n      0xffffffffffffffffffffffffffffffffffffffff\n      and\n      0xffffffffffffffffffffffffffffffffffffffff\n      and\n      dup2\n      mstore\n      0x20\n      add\n      swap1\n      dup2\n      mstore\n      0x20\n      add\n      0x00\n      keccak256\n        /* \"contracts/BaseContract.sol\":2759:2790  universiteler[msg.sender].durum */\n      0x00\n      add\n      0x00\n      swap1\n      sload\n      swap1\n      0x0100\n      exp\n      swap1\n      div\n      0xff\n      and\n        /* \"contracts/BaseContract.sol\":2759:2818  universiteler[msg.sender].durum||firmalar[msg.sender].durum */\n      dup1\n      tag_135\n      jumpi\n      pop\n        /* \"contracts/BaseContract.sol\":2792:2800  firmalar */\n      0x06\n        /* \"contracts/BaseContract.sol\":2792:2812  firmalar[msg.sender] */\n      0x00\n        /* \"contracts/BaseContract.sol\":2801:2811  msg.sender */\n      caller\n        /* \"contracts/BaseContract.sol\":2792:2812  firmalar[msg.sender] */\n      0xffffffffffffffffffffffffffffffffffffffff\n      and\n      0xffffffffffffffffffffffffffffffffffffffff\n      and\n      dup2\n      mstore\n      0x20\n      add\n      swap1\n      dup2\n      mstore\n      0x20\n      add\n      0x00\n      keccak256\n        /* \"contracts/BaseContract.sol\":2792:2818  firmalar[msg.sender].durum */\n      0x00\n      add\n      0x00\n      swap1\n      sload\n      swap1\n      0x0100\n      exp\n      swap1\n      div\n      0xff\n      and\n        /* \"contracts/BaseContract.sol\":2759:2818  universiteler[msg.sender].durum||firmalar[msg.sender].durum */\n    tag_135:\n        /* \"contracts/BaseContract.sol\":2759:2851  universiteler[msg.sender].durum||firmalar[msg.sender].durum||kamuKurumlari[msg.sender].durum */\n      dup1\n      tag_136\n      jumpi\n      pop\n        /* \"contracts/BaseContract.sol\":2820:2833  kamuKurumlari */\n      0x08\n        /* \"contracts/BaseContract.sol\":2820:2845  kamuKurumlari[msg.sender] */\n      0x00\n        /* \"contracts/BaseContract.sol\":2834:2844  msg.sender */\n      caller\n        /* \"contracts/BaseContract.sol\":2820:2845  kamuKurumlari[msg.sender] */\n      0xffffffffffffffffffffffffffffffffffffffff\n      and\n      0xffffffffffffffffffffffffffffffffffffffff\n      and\n      dup2\n      mstore\n      0x20\n      add\n      swap1\n      dup2\n      mstore\n      0x20\n      add\n      0x00\n      keccak256\n        /* \"contracts/BaseContract.sol\":2820:2851  kamuKurumlari[msg.sender].durum */\n      0x00\n      add\n      0x00\n      swap1\n      sload\n      swap1\n      0x0100\n      exp\n      swap1\n      div\n      0xff\n      and\n        /* \"contracts/BaseContract.sol\":2759:2851  universiteler[msg.sender].durum||firmalar[msg.sender].durum||kamuKurumlari[msg.sender].durum */\n    tag_136:\n        /* \"contracts/BaseContract.sol\":2751:2903  require(universiteler[msg.sender].durum||firmalar[msg.sender].durum||kamuKurumlari[msg.sender].durum,\r... */\n      tag_137\n      jumpi\n      mload(0x40)\n      0x08c379a000000000000000000000000000000000000000000000000000000000\n      dup2\n      mstore\n      0x04\n      add\n      tag_138\n      swap1\n      tag_139\n      jump\t// in\n    tag_138:\n      mload(0x40)\n      dup1\n      swap2\n      sub\n      swap1\n      revert\n    tag_137:\n        /* \"contracts/CalismaBilgileri.sol\":2649:2656  kisiler */\n      0x03\n        /* \"contracts/CalismaBilgileri.sol\":2649:2670  kisiler[_kisiAddress] */\n      0x00\n        /* \"contracts/CalismaBilgileri.sol\":2657:2669  _kisiAddress */\n      dup13\n        /* \"contracts/CalismaBilgileri.sol\":2649:2670  kisiler[_kisiAddress] */\n      0xffffffffffffffffffffffffffffffffffffffff\n      and\n      0xffffffffffffffffffffffffffffffffffffffff\n      and\n      dup2\n      mstore\n      0x20\n      add\n      swap1\n      dup2\n      mstore\n      0x20\n      add\n      0x00\n      keccak256\n        /* \"contracts/CalismaBilgileri.sol\":2649:2676  kisiler[_kisiAddress].durum */\n      0x00\n      add\n      0x00\n      swap1\n      sload\n      swap1\n      0x0100\n      exp\n      swap1\n      div\n      0xff\n      and\n        /* \"contracts/CalismaBilgileri.sol\":2641:2698  require(kisiler[_kisiAddress].durum,\"Student not exists\") */\n      tag_141\n      jumpi\n      mload(0x40)\n      0x08c379a000000000000000000000000000000000000000000000000000000000\n      dup2\n      mstore\n      0x04\n      add\n      tag_142\n      swap1\n      tag_92\n      jump\t// in\n    tag_142:\n      mload(0x40)\n      dup1\n      swap2\n      sub\n      swap1\n      revert\n    tag_141:\n        /* \"contracts/CalismaBilgileri.sol\":2786:2794  pozisyon */\n      dup9\n        /* \"contracts/CalismaBilgileri.sol\":2729:2745  calismaBilgileri */\n      0x0d\n        /* \"contracts/CalismaBilgileri.sol\":2729:2759  calismaBilgileri[_kisiAddress] */\n      0x00\n        /* \"contracts/CalismaBilgileri.sol\":2746:2758  _kisiAddress */\n      dup14\n        /* \"contracts/CalismaBilgileri.sol\":2729:2759  calismaBilgileri[_kisiAddress] */\n      0xffffffffffffffffffffffffffffffffffffffff\n      and\n      0xffffffffffffffffffffffffffffffffffffffff\n      and\n      dup2\n      mstore\n      0x20\n      add\n      swap1\n      dup2\n      mstore\n      0x20\n      add\n      0x00\n      keccak256\n        /* \"contracts/CalismaBilgileri.sol\":2729:2776  calismaBilgileri[_kisiAddress][_calismaBilgiId] */\n      0x00\n        /* \"contracts/CalismaBilgileri.sol\":2760:2775  _calismaBilgiId */\n      dup13\n        /* \"contracts/CalismaBilgileri.sol\":2729:2776  calismaBilgileri[_kisiAddress][_calismaBilgiId] */\n      dup2\n      mstore\n      0x20\n      add\n      swap1\n      dup2\n      mstore\n      0x20\n      add\n      0x00\n      keccak256\n        /* \"contracts/CalismaBilgileri.sol\":2729:2785  calismaBilgileri[_kisiAddress][_calismaBilgiId].pozisyon */\n      0x01\n      add\n      0x14\n        /* \"contracts/CalismaBilgileri.sol\":2729:2794  calismaBilgileri[_kisiAddress][_calismaBilgiId].pozisyon=pozisyon */\n      0x0100\n      exp\n      dup2\n      sload\n      dup2\n      0xffffffff\n      mul\n      not\n      and\n      swap1\n      dup4\n      0xffffffff\n      and\n      mul\n      or\n      swap1\n      sstore\n      pop\n        /* \"contracts/CalismaBilgileri.sol\":2865:2871  sektor */\n      dup8\n        /* \"contracts/CalismaBilgileri.sol\":2810:2826  calismaBilgileri */\n      0x0d\n        /* \"contracts/CalismaBilgileri.sol\":2810:2840  calismaBilgileri[_kisiAddress] */\n      0x00\n        /* \"contracts/CalismaBilgileri.sol\":2827:2839  _kisiAddress */\n      dup14\n        /* \"contracts/CalismaBilgileri.sol\":2810:2840  calismaBilgileri[_kisiAddress] */\n      0xffffffffffffffffffffffffffffffffffffffff\n      and\n      0xffffffffffffffffffffffffffffffffffffffff\n      and\n      dup2\n      mstore\n      0x20\n      add\n      swap1\n      dup2\n      mstore\n      0x20\n      add\n      0x00\n      keccak256\n        /* \"contracts/CalismaBilgileri.sol\":2810:2857  calismaBilgileri[_kisiAddress][_calismaBilgiId] */\n      0x00\n        /* \"contracts/CalismaBilgileri.sol\":2841:2856  _calismaBilgiId */\n      dup13\n        /* \"contracts/CalismaBilgileri.sol\":2810:2857  calismaBilgileri[_kisiAddress][_calismaBilgiId] */\n      dup2\n      mstore\n      0x20\n      add\n      swap1\n      dup2\n      mstore\n      0x20\n      add\n      0x00\n      keccak256\n        /* \"contracts/CalismaBilgileri.sol\":2810:2864  calismaBilgileri[_kisiAddress][_calismaBilgiId].sektor */\n      0x01\n      add\n      0x18\n        /* \"contracts/CalismaBilgileri.sol\":2810:2871  calismaBilgileri[_kisiAddress][_calismaBilgiId].sektor=sektor */\n      0x0100\n      exp\n      dup2\n      sload\n      dup2\n      0xff\n      mul\n      not\n      and\n      swap1\n      dup4\n      0xff\n      and\n      mul\n      or\n      swap1\n      sstore\n      pop\n        /* \"contracts/CalismaBilgileri.sol\":2947:2958  calismaTipi */\n      dup7\n        /* \"contracts/CalismaBilgileri.sol\":2887:2903  calismaBilgileri */\n      0x0d\n        /* \"contracts/CalismaBilgileri.sol\":2887:2917  calismaBilgileri[_kisiAddress] */\n      0x00\n        /* \"contracts/CalismaBilgileri.sol\":2904:2916  _kisiAddress */\n      dup14\n        /* \"contracts/CalismaBilgileri.sol\":2887:2917  calismaBilgileri[_kisiAddress] */\n      0xffffffffffffffffffffffffffffffffffffffff\n      and\n      0xffffffffffffffffffffffffffffffffffffffff\n      and\n      dup2\n      mstore\n      0x20\n      add\n      swap1\n      dup2\n      mstore\n      0x20\n      add\n      0x00\n      keccak256\n        /* \"contracts/CalismaBilgileri.sol\":2887:2934  calismaBilgileri[_kisiAddress][_calismaBilgiId] */\n      0x00\n        /* \"contracts/CalismaBilgileri.sol\":2918:2933  _calismaBilgiId */\n      dup13\n        /* \"contracts/CalismaBilgileri.sol\":2887:2934  calismaBilgileri[_kisiAddress][_calismaBilgiId] */\n      dup2\n      mstore\n      0x20\n      add\n      swap1\n      dup2\n      mstore\n      0x20\n      add\n      0x00\n      keccak256\n        /* \"contracts/CalismaBilgileri.sol\":2887:2946  calismaBilgileri[_kisiAddress][_calismaBilgiId].calismaTipi */\n      0x01\n      add\n      0x19\n        /* \"contracts/CalismaBilgileri.sol\":2887:2958  calismaBilgileri[_kisiAddress][_calismaBilgiId].calismaTipi=calismaTipi */\n      0x0100\n      exp\n      dup2\n      sload\n      dup2\n      0xff\n      mul\n      not\n      and\n      swap1\n      dup4\n      0x02\n      dup2\n      gt\n      iszero\n      tag_143\n      jumpi\n      tag_144\n      tag_97\n      jump\t// in\n    tag_144:\n    tag_143:\n      mul\n      or\n      swap1\n      sstore\n      pop\n        /* \"contracts/CalismaBilgileri.sol\":3033:3043  isAciklama */\n      dup6\n        /* \"contracts/CalismaBilgileri.sol\":2974:2990  calismaBilgileri */\n      0x0d\n        /* \"contracts/CalismaBilgileri.sol\":2974:3004  calismaBilgileri[_kisiAddress] */\n      0x00\n        /* \"contracts/CalismaBilgileri.sol\":2991:3003  _kisiAddress */\n      dup14\n        /* \"contracts/CalismaBilgileri.sol\":2974:3004  calismaBilgileri[_kisiAddress] */\n      0xffffffffffffffffffffffffffffffffffffffff\n      and\n      0xffffffffffffffffffffffffffffffffffffffff\n      and\n      dup2\n      mstore\n      0x20\n      add\n      swap1\n      dup2\n      mstore\n      0x20\n      add\n      0x00\n      keccak256\n        /* \"contracts/CalismaBilgileri.sol\":2974:3021  calismaBilgileri[_kisiAddress][_calismaBilgiId] */\n      0x00\n        /* \"contracts/CalismaBilgileri.sol\":3005:3020  _calismaBilgiId */\n      dup13\n        /* \"contracts/CalismaBilgileri.sol\":2974:3021  calismaBilgileri[_kisiAddress][_calismaBilgiId] */\n      dup2\n      mstore\n      0x20\n      add\n      swap1\n      dup2\n      mstore\n      0x20\n      add\n      0x00\n      keccak256\n        /* \"contracts/CalismaBilgileri.sol\":2974:3032  calismaBilgileri[_kisiAddress][_calismaBilgiId].isAciklama */\n      0x02\n      add\n        /* \"contracts/CalismaBilgileri.sol\":2974:3043  calismaBilgileri[_kisiAddress][_calismaBilgiId].isAciklama=isAciklama */\n      swap1\n      dup1\n      mload\n      swap1\n      0x20\n      add\n      swap1\n      tag_145\n      swap3\n      swap2\n      swap1\n      tag_99\n      jump\t// in\n    tag_145:\n      pop\n        /* \"contracts/CalismaBilgileri.sol\":3116:3124  basTarih */\n      dup5\n        /* \"contracts/CalismaBilgileri.sol\":3059:3075  calismaBilgileri */\n      0x0d\n        /* \"contracts/CalismaBilgileri.sol\":3059:3089  calismaBilgileri[_kisiAddress] */\n      0x00\n        /* \"contracts/CalismaBilgileri.sol\":3076:3088  _kisiAddress */\n      dup14\n        /* \"contracts/CalismaBilgileri.sol\":3059:3089  calismaBilgileri[_kisiAddress] */\n      0xffffffffffffffffffffffffffffffffffffffff\n      and\n      0xffffffffffffffffffffffffffffffffffffffff\n      and\n      dup2\n      mstore\n      0x20\n      add\n      swap1\n      dup2\n      mstore\n      0x20\n      add\n      0x00\n      keccak256\n        /* \"contracts/CalismaBilgileri.sol\":3059:3106  calismaBilgileri[_kisiAddress][_calismaBilgiId] */\n      0x00\n        /* \"contracts/CalismaBilgileri.sol\":3090:3105  _calismaBilgiId */\n      dup13\n        /* \"contracts/CalismaBilgileri.sol\":3059:3106  calismaBilgileri[_kisiAddress][_calismaBilgiId] */\n      dup2\n      mstore\n      0x20\n      add\n      swap1\n      dup2\n      mstore\n      0x20\n      add\n      0x00\n      keccak256\n        /* \"contracts/CalismaBilgileri.sol\":3059:3115  calismaBilgileri[_kisiAddress][_calismaBilgiId].basTarih */\n      0x03\n      add\n        /* \"contracts/CalismaBilgileri.sol\":3059:3124  calismaBilgileri[_kisiAddress][_calismaBilgiId].basTarih=basTarih */\n      dup2\n      swap1\n      sstore\n      pop\n        /* \"contracts/CalismaBilgileri.sol\":3197:3205  bitTarih */\n      dup4\n        /* \"contracts/CalismaBilgileri.sol\":3140:3156  calismaBilgileri */\n      0x0d\n        /* \"contracts/CalismaBilgileri.sol\":3140:3170  calismaBilgileri[_kisiAddress] */\n      0x00\n        /* \"contracts/CalismaBilgileri.sol\":3157:3169  _kisiAddress */\n      dup14\n        /* \"contracts/CalismaBilgileri.sol\":3140:3170  calismaBilgileri[_kisiAddress] */\n      0xffffffffffffffffffffffffffffffffffffffff\n      and\n      0xffffffffffffffffffffffffffffffffffffffff\n      and\n      dup2\n      mstore\n      0x20\n      add\n      swap1\n      dup2\n      mstore\n      0x20\n      add\n      0x00\n      keccak256\n        /* \"contracts/CalismaBilgileri.sol\":3140:3187  calismaBilgileri[_kisiAddress][_calismaBilgiId] */\n      0x00\n        /* \"contracts/CalismaBilgileri.sol\":3171:3186  _calismaBilgiId */\n      dup13\n        /* \"contracts/CalismaBilgileri.sol\":3140:3187  calismaBilgileri[_kisiAddress][_calismaBilgiId] */\n      dup2\n      mstore\n      0x20\n      add\n      swap1\n      dup2\n      mstore\n      0x20\n      add\n      0x00\n      keccak256\n        /* \"contracts/CalismaBilgileri.sol\":3140:3196  calismaBilgileri[_kisiAddress][_calismaBilgiId].bitTarih */\n      0x04\n      add\n        /* \"contracts/CalismaBilgileri.sol\":3140:3205  calismaBilgileri[_kisiAddress][_calismaBilgiId].bitTarih=bitTarih */\n      dup2\n      swap1\n      sstore\n      pop\n        /* \"contracts/CalismaBilgileri.sol\":3274:3278  ulke */\n      dup3\n        /* \"contracts/CalismaBilgileri.sol\":3221:3237  calismaBilgileri */\n      0x0d\n        /* \"contracts/CalismaBilgileri.sol\":3221:3251  calismaBilgileri[_kisiAddress] */\n      0x00\n        /* \"contracts/CalismaBilgileri.sol\":3238:3250  _kisiAddress */\n      dup14\n        /* \"contracts/CalismaBilgileri.sol\":3221:3251  calismaBilgileri[_kisiAddress] */\n      0xffffffffffffffffffffffffffffffffffffffff\n      and\n      0xffffffffffffffffffffffffffffffffffffffff\n      and\n      dup2\n      mstore\n      0x20\n      add\n      swap1\n      dup2\n      mstore\n      0x20\n      add\n      0x00\n      keccak256\n        /* \"contracts/CalismaBilgileri.sol\":3221:3268  calismaBilgileri[_kisiAddress][_calismaBilgiId] */\n      0x00\n        /* \"contracts/CalismaBilgileri.sol\":3252:3267  _calismaBilgiId */\n      dup13\n        /* \"contracts/CalismaBilgileri.sol\":3221:3268  calismaBilgileri[_kisiAddress][_calismaBilgiId] */\n      dup2\n      mstore\n      0x20\n      add\n      swap1\n      dup2\n      mstore\n      0x20\n      add\n      0x00\n      keccak256\n        /* \"contracts/CalismaBilgileri.sol\":3221:3273  calismaBilgileri[_kisiAddress][_calismaBilgiId].ulke */\n      0x05\n      add\n      0x00\n        /* \"contracts/CalismaBilgileri.sol\":3221:3278  calismaBilgileri[_kisiAddress][_calismaBilgiId].ulke=ulke */\n      0x0100\n      exp\n      dup2\n      sload\n      dup2\n      0xff\n      mul\n      not\n      and\n      swap1\n      dup4\n      0xff\n      and\n      mul\n      or\n      swap1\n      sstore\n      pop\n        /* \"contracts/CalismaBilgileri.sol\":3348:3353  sehir */\n      dup2\n        /* \"contracts/CalismaBilgileri.sol\":3294:3310  calismaBilgileri */\n      0x0d\n        /* \"contracts/CalismaBilgileri.sol\":3294:3324  calismaBilgileri[_kisiAddress] */\n      0x00\n        /* \"contracts/CalismaBilgileri.sol\":3311:3323  _kisiAddress */\n      dup14\n        /* \"contracts/CalismaBilgileri.sol\":3294:3324  calismaBilgileri[_kisiAddress] */\n      0xffffffffffffffffffffffffffffffffffffffff\n      and\n      0xffffffffffffffffffffffffffffffffffffffff\n      and\n      dup2\n      mstore\n      0x20\n      add\n      swap1\n      dup2\n      mstore\n      0x20\n      add\n      0x00\n      keccak256\n        /* \"contracts/CalismaBilgileri.sol\":3294:3341  calismaBilgileri[_kisiAddress][_calismaBilgiId] */\n      0x00\n        /* \"contracts/CalismaBilgileri.sol\":3325:3340  _calismaBilgiId */\n      dup13\n        /* \"contracts/CalismaBilgileri.sol\":3294:3341  calismaBilgileri[_kisiAddress][_calismaBilgiId] */\n      dup2\n      mstore\n      0x20\n      add\n      swap1\n      dup2\n      mstore\n      0x20\n      add\n      0x00\n      keccak256\n        /* \"contracts/CalismaBilgileri.sol\":3294:3347  calismaBilgileri[_kisiAddress][_calismaBilgiId].sehir */\n      0x05\n      add\n      0x01\n        /* \"contracts/CalismaBilgileri.sol\":3294:3353  calismaBilgileri[_kisiAddress][_calismaBilgiId].sehir=sehir */\n      0x0100\n      exp\n      dup2\n      sload\n      dup2\n      0xffffffff\n      mul\n      not\n      and\n      swap1\n      dup4\n      0xffffffff\n      and\n      mul\n      or\n      swap1\n      sstore\n      pop\n        /* \"contracts/CalismaBilgileri.sol\":3433:3448  block.timestamp */\n      timestamp\n        /* \"contracts/CalismaBilgileri.sol\":3369:3385  calismaBilgileri */\n      0x0d\n        /* \"contracts/CalismaBilgileri.sol\":3369:3399  calismaBilgileri[_kisiAddress] */\n      0x00\n        /* \"contracts/CalismaBilgileri.sol\":3386:3398  _kisiAddress */\n      dup14\n        /* \"contracts/CalismaBilgileri.sol\":3369:3399  calismaBilgileri[_kisiAddress] */\n      0xffffffffffffffffffffffffffffffffffffffff\n      and\n      0xffffffffffffffffffffffffffffffffffffffff\n      and\n      dup2\n      mstore\n      0x20\n      add\n      swap1\n      dup2\n      mstore\n      0x20\n      add\n      0x00\n      keccak256\n        /* \"contracts/CalismaBilgileri.sol\":3369:3416  calismaBilgileri[_kisiAddress][_calismaBilgiId] */\n      0x00\n        /* \"contracts/CalismaBilgileri.sol\":3400:3415  _calismaBilgiId */\n      dup13\n        /* \"contracts/CalismaBilgileri.sol\":3369:3416  calismaBilgileri[_kisiAddress][_calismaBilgiId] */\n      dup2\n      mstore\n      0x20\n      add\n      swap1\n      dup2\n      mstore\n      0x20\n      add\n      0x00\n      keccak256\n        /* \"contracts/CalismaBilgileri.sol\":3369:3426  calismaBilgileri[_kisiAddress][_calismaBilgiId].onayBilgi */\n      0x06\n      add\n        /* \"contracts/CalismaBilgileri.sol\":3369:3432  calismaBilgileri[_kisiAddress][_calismaBilgiId].onayBilgi.zaman */\n      0x00\n      add\n        /* \"contracts/CalismaBilgileri.sol\":3369:3448  calismaBilgileri[_kisiAddress][_calismaBilgiId].onayBilgi.zaman=block.timestamp */\n      dup2\n      swap1\n      sstore\n      pop\n        /* \"contracts/CalismaBilgileri.sol\":3528:3547  OnayDurum.Onaylandi */\n      0x01\n        /* \"contracts/CalismaBilgileri.sol\":3464:3480  calismaBilgileri */\n      0x0d\n        /* \"contracts/CalismaBilgileri.sol\":3464:3494  calismaBilgileri[_kisiAddress] */\n      0x00\n        /* \"contracts/CalismaBilgileri.sol\":3481:3493  _kisiAddress */\n      dup14\n        /* \"contracts/CalismaBilgileri.sol\":3464:3494  calismaBilgileri[_kisiAddress] */\n      0xffffffffffffffffffffffffffffffffffffffff\n      and\n      0xffffffffffffffffffffffffffffffffffffffff\n      and\n      dup2\n      mstore\n      0x20\n      add\n      swap1\n      dup2\n      mstore\n      0x20\n      add\n      0x00\n      keccak256\n        /* \"contracts/CalismaBilgileri.sol\":3464:3511  calismaBilgileri[_kisiAddress][_calismaBilgiId] */\n      0x00\n        /* \"contracts/CalismaBilgileri.sol\":3495:3510  _calismaBilgiId */\n      dup13\n        /* \"contracts/CalismaBilgileri.sol\":3464:3511  calismaBilgileri[_kisiAddress][_calismaBilgiId] */\n      dup2\n      mstore\n      0x20\n      add\n      swap1\n      dup2\n      mstore\n      0x20\n      add\n      0x00\n      keccak256\n        /* \"contracts/CalismaBilgileri.sol\":3464:3521  calismaBilgileri[_kisiAddress][_calismaBilgiId].onayBilgi */\n      0x06\n      add\n        /* \"contracts/CalismaBilgileri.sol\":3464:3527  calismaBilgileri[_kisiAddress][_calismaBilgiId].onayBilgi.durum */\n      0x01\n      add\n      0x14\n        /* \"contracts/CalismaBilgileri.sol\":3464:3547  calismaBilgileri[_kisiAddress][_calismaBilgiId].onayBilgi.durum=OnayDurum.Onaylandi */\n      0x0100\n      exp\n      dup2\n      sload\n      dup2\n      0xff\n      mul\n      not\n      and\n      swap1\n      dup4\n      0x02\n      dup2\n      gt\n      iszero\n      tag_146\n      jumpi\n      tag_147\n      tag_97\n      jump\t// in\n    tag_147:\n    tag_146:\n      mul\n      or\n      swap1\n      sstore\n      pop\n        /* \"contracts/CalismaBilgileri.sol\":3627:3637  msg.sender */\n      caller\n        /* \"contracts/CalismaBilgileri.sol\":3563:3579  calismaBilgileri */\n      0x0d\n        /* \"contracts/CalismaBilgileri.sol\":3563:3593  calismaBilgileri[_kisiAddress] */\n      0x00\n        /* \"contracts/CalismaBilgileri.sol\":3580:3592  _kisiAddress */\n      dup14\n        /* \"contracts/CalismaBilgileri.sol\":3563:3593  calismaBilgileri[_kisiAddress] */\n      0xffffffffffffffffffffffffffffffffffffffff\n      and\n      0xffffffffffffffffffffffffffffffffffffffff\n      and\n      dup2\n      mstore\n      0x20\n      add\n      swap1\n      dup2\n      mstore\n      0x20\n      add\n      0x00\n      keccak256\n        /* \"contracts/CalismaBilgileri.sol\":3563:3610  calismaBilgileri[_kisiAddress][_calismaBilgiId] */\n      0x00\n        /* \"contracts/CalismaBilgileri.sol\":3594:3609  _calismaBilgiId */\n      dup13\n        /* \"contracts/CalismaBilgileri.sol\":3563:3610  calismaBilgileri[_kisiAddress][_calismaBilgiId] */\n      dup2\n      mstore\n      0x20\n      add\n      swap1\n      dup2\n      mstore\n      0x20\n      add\n      0x00\n      keccak256\n        /* \"contracts/CalismaBilgileri.sol\":3563:3620  calismaBilgileri[_kisiAddress][_calismaBilgiId].onayBilgi */\n      0x06\n      add\n        /* \"contracts/CalismaBilgileri.sol\":3563:3626  calismaBilgileri[_kisiAddress][_calismaBilgiId].onayBilgi.adres */\n      0x01\n      add\n      0x00\n        /* \"contracts/CalismaBilgileri.sol\":3563:3637  calismaBilgileri[_kisiAddress][_calismaBilgiId].onayBilgi.adres=msg.sender */\n      0x0100\n      exp\n      dup2\n      sload\n      dup2\n      0xffffffffffffffffffffffffffffffffffffffff\n      mul\n      not\n      and\n      swap1\n      dup4\n      0xffffffffffffffffffffffffffffffffffffffff\n      and\n      mul\n      or\n      swap1\n      sstore\n      pop\n        /* \"contracts/CalismaBilgileri.sol\":3671:3736  CalismaBilgiGuncellendiLog( _kisiAddress, ulke, pozisyon, sektor) */\n      0x0d2d369c2a311bbedf49b15d0d8d116c0a1aaf3adf72494f1ebb4275c54cad73\n        /* \"contracts/CalismaBilgileri.sol\":3699:3711  _kisiAddress */\n      dup12\n        /* \"contracts/CalismaBilgileri.sol\":3713:3717  ulke */\n      dup5\n        /* \"contracts/CalismaBilgileri.sol\":3719:3727  pozisyon */\n      dup12\n        /* \"contracts/CalismaBilgileri.sol\":3729:3735  sektor */\n      dup12\n        /* \"contracts/CalismaBilgileri.sol\":3671:3736  CalismaBilgiGuncellendiLog( _kisiAddress, ulke, pozisyon, sektor) */\n      mload(0x40)\n      tag_148\n      swap5\n      swap4\n      swap3\n      swap2\n      swap1\n      tag_103\n      jump\t// in\n    tag_148:\n      mload(0x40)\n      dup1\n      swap2\n      sub\n      swap1\n      log1\n        /* \"contracts/CalismaBilgileri.sol\":3759:3774  _calismaBilgiId */\n      dup10\n        /* \"contracts/CalismaBilgileri.sol\":3752:3774  return _calismaBilgiId */\n      swap1\n      pop\n        /* \"contracts/CalismaBilgileri.sol\":2370:3784  function guncelleCalismaBilgi(address _kisiAddress, uint _calismaBilgiId, uint32 pozisyon, uint8 sektor, CalismaTipi calismaTipi, string memory isAciklama, uint basTarih, uint bitTarih, uint8 ulke, uint32 sehir)  public sadece_Uni_Firma_Kamu returns(uint){\r... */\n      swap11\n      swap10\n      pop\n      pop\n      pop\n      pop\n      pop\n      pop\n      pop\n      pop\n      pop\n      pop\n      jump\t// out\n        /* \"contracts/BaseContract.sol\":3338:3387  mapping(address=>KamuKurumu) public kamuKurumlari */\n    tag_57:\n      mstore(0x20, 0x08)\n      dup1\n      0x00\n      mstore\n      keccak256(0x00, 0x40)\n      0x00\n      swap2\n      pop\n      swap1\n      pop\n      dup1\n      0x00\n      add\n      0x00\n      swap1\n      sload\n      swap1\n      0x0100\n      exp\n      swap1\n      div\n      0xff\n      and\n      swap1\n      dup1\n      0x01\n      add\n      dup1\n      sload\n      tag_149\n      swap1\n      tag_105\n      jump\t// in\n    tag_149:\n      dup1\n      0x1f\n      add\n      0x20\n      dup1\n      swap2\n      div\n      mul\n      0x20\n      add\n      mload(0x40)\n      swap1\n      dup2\n      add\n      0x40\n      mstore\n      dup1\n      swap3\n      swap2\n      swap1\n      dup2\n      dup2\n      mstore\n      0x20\n      add\n      dup3\n      dup1\n      sload\n      tag_150\n      swap1\n      tag_105\n      jump\t// in\n    tag_150:\n      dup1\n      iszero\n      tag_151\n      jumpi\n      dup1\n      0x1f\n      lt\n      tag_152\n      jumpi\n      0x0100\n      dup1\n      dup4\n      sload\n      div\n      mul\n      dup4\n      mstore\n      swap2\n      0x20\n      add\n      swap2\n      jump(tag_151)\n    tag_152:\n      dup3\n      add\n      swap2\n      swap1\n      0x00\n      mstore\n      keccak256(0x00, 0x20)\n      swap1\n    tag_153:\n      dup2\n      sload\n      dup2\n      mstore\n      swap1\n      0x01\n      add\n      swap1\n      0x20\n      add\n      dup1\n      dup4\n      gt\n      tag_153\n      jumpi\n      dup3\n      swap1\n      sub\n      0x1f\n      and\n      dup3\n      add\n      swap2\n    tag_151:\n      pop\n      pop\n      pop\n      pop\n      pop\n      swap1\n      dup1\n      0x02\n      add\n      0x00\n      swap1\n      sload\n      swap1\n      0x0100\n      exp\n      swap1\n      div\n      0xff\n      and\n      swap1\n      pop\n      dup4\n      jump\t// out\n        /* \"contracts/BaseContract.sol\":3394:3429  mapping(address=>STK) public stklar */\n    tag_61:\n      mstore(0x20, 0x09)\n      dup1\n      0x00\n      mstore\n      keccak256(0x00, 0x40)\n      0x00\n      swap2\n      pop\n      swap1\n      pop\n      dup1\n      0x00\n      add\n      0x00\n      swap1\n      sload\n      swap1\n      0x0100\n      exp\n      swap1\n      div\n      0xff\n      and\n      swap1\n      dup1\n      0x01\n      add\n      dup1\n      sload\n      tag_154\n      swap1\n      tag_105\n      jump\t// in\n    tag_154:\n      dup1\n      0x1f\n      add\n      0x20\n      dup1\n      swap2\n      div\n      mul\n      0x20\n      add\n      mload(0x40)\n      swap1\n      dup2\n      add\n      0x40\n      mstore\n      dup1\n      swap3\n      swap2\n      swap1\n      dup2\n      dup2\n      mstore\n      0x20\n      add\n      dup3\n      dup1\n      sload\n      tag_155\n      swap1\n      tag_105\n      jump\t// in\n    tag_155:\n      dup1\n      iszero\n      tag_156\n      jumpi\n      dup1\n      0x1f\n      lt\n      tag_157\n      jumpi\n      0x0100\n      dup1\n      dup4\n      sload\n      div\n      mul\n      dup4\n      mstore\n      swap2\n      0x20\n      add\n      swap2\n      jump(tag_156)\n    tag_157:\n      dup3\n      add\n      swap2\n      swap1\n      0x00\n      mstore\n      keccak256(0x00, 0x20)\n      swap1\n    tag_158:\n      dup2\n      sload\n      dup2\n      mstore\n      swap1\n      0x01\n      add\n      swap1\n      0x20\n      add\n      dup1\n      dup4\n      gt\n      tag_158\n      jumpi\n      dup3\n      swap1\n      sub\n      0x1f\n      and\n      dup3\n      add\n      swap2\n    tag_156:\n      pop\n      pop\n      pop\n      pop\n      pop\n      swap1\n      dup1\n      0x02\n      add\n      0x00\n      swap1\n      sload\n      swap1\n      0x0100\n      exp\n      swap1\n      div\n      0xff\n      and\n      swap1\n      pop\n      dup4\n      jump\t// out\n        /* \"contracts/BaseContract.sol\":3505:3546  mapping(uint32=>YabanciDil) public diller */\n    tag_66:\n      mstore(0x20, 0x0b)\n      dup1\n      0x00\n      mstore\n      keccak256(0x00, 0x40)\n      0x00\n      swap2\n      pop\n      swap1\n      pop\n      dup1\n      0x00\n      add\n      0x00\n      swap1\n      sload\n      swap1\n      0x0100\n      exp\n      swap1\n      div\n      0xffffffff\n      and\n      swap1\n      dup1\n      0x01\n      add\n      dup1\n      sload\n      tag_159\n      swap1\n      tag_105\n      jump\t// in\n    tag_159:\n      dup1\n      0x1f\n      add\n      0x20\n      dup1\n      swap2\n      div\n      mul\n      0x20\n      add\n      mload(0x40)\n      swap1\n      dup2\n      add\n      0x40\n      mstore\n      dup1\n      swap3\n      swap2\n      swap1\n      dup2\n      dup2\n      mstore\n      0x20\n      add\n      dup3\n      dup1\n      sload\n      tag_160\n      swap1\n      tag_105\n      jump\t// in\n    tag_160:\n      dup1\n      iszero\n      tag_161\n      jumpi\n      dup1\n      0x1f\n      lt\n      tag_162\n      jumpi\n      0x0100\n      dup1\n      dup4\n      sload\n      div\n      mul\n      dup4\n      mstore\n      swap2\n      0x20\n      add\n      swap2\n      jump(tag_161)\n    tag_162:\n      dup3\n      add\n      swap2\n      swap1\n      0x00\n      mstore\n      keccak256(0x00, 0x20)\n      swap1\n    tag_163:\n      dup2\n      sload\n      dup2\n      mstore\n      swap1\n      0x01\n      add\n      swap1\n      0x20\n      add\n      dup1\n      dup4\n      gt\n      tag_163\n      jumpi\n      dup3\n      swap1\n      sub\n      0x1f\n      and\n      dup3\n      add\n      swap2\n    tag_161:\n      pop\n      pop\n      pop\n      pop\n      pop\n      swap1\n      pop\n      dup3\n      jump\t// out\n        /* \"contracts/CalismaBilgileri.sol\":1100:2361  function ekleCalismaBilgi(address _kisiAddress, uint32 pozisyon, uint8 sektor, CalismaTipi calismaTipi, string memory isAciklama, uint basTarih, uint bitTarih, uint8 ulke, uint32 sehir)  public sadece_Uni_Firma_Kamu{\r... */\n    tag_71:\n        /* \"contracts/BaseContract.sol\":2759:2772  universiteler */\n      0x04\n        /* \"contracts/BaseContract.sol\":2759:2784  universiteler[msg.sender] */\n      0x00\n        /* \"contracts/BaseContract.sol\":2773:2783  msg.sender */\n      caller\n        /* \"contracts/BaseContract.sol\":2759:2784  universiteler[msg.sender] */\n      0xffffffffffffffffffffffffffffffffffffffff\n      and\n      0xffffffffffffffffffffffffffffffffffffffff\n      and\n      dup2\n      mstore\n      0x20\n      add\n      swap1\n      dup2\n      mstore\n      0x20\n      add\n      0x00\n      keccak256\n        /* \"contracts/BaseContract.sol\":2759:2790  universiteler[msg.sender].durum */\n      0x00\n      add\n      0x00\n      swap1\n      sload\n      swap1\n      0x0100\n      exp\n      swap1\n      div\n      0xff\n      and\n        /* \"contracts/BaseContract.sol\":2759:2818  universiteler[msg.sender].durum||firmalar[msg.sender].durum */\n      dup1\n      tag_165\n      jumpi\n      pop\n        /* \"contracts/BaseContract.sol\":2792:2800  firmalar */\n      0x06\n        /* \"contracts/BaseContract.sol\":2792:2812  firmalar[msg.sender] */\n      0x00\n        /* \"contracts/BaseContract.sol\":2801:2811  msg.sender */\n      caller\n        /* \"contracts/BaseContract.sol\":2792:2812  firmalar[msg.sender] */\n      0xffffffffffffffffffffffffffffffffffffffff\n      and\n      0xffffffffffffffffffffffffffffffffffffffff\n      and\n      dup2\n      mstore\n      0x20\n      add\n      swap1\n      dup2\n      mstore\n      0x20\n      add\n      0x00\n      keccak256\n        /* \"contracts/BaseContract.sol\":2792:2818  firmalar[msg.sender].durum */\n      0x00\n      add\n      0x00\n      swap1\n      sload\n      swap1\n      0x0100\n      exp\n      swap1\n      div\n      0xff\n      and\n        /* \"contracts/BaseContract.sol\":2759:2818  universiteler[msg.sender].durum||firmalar[msg.sender].durum */\n    tag_165:\n        /* \"contracts/BaseContract.sol\":2759:2851  universiteler[msg.sender].durum||firmalar[msg.sender].durum||kamuKurumlari[msg.sender].durum */\n      dup1\n      tag_166\n      jumpi\n      pop\n        /* \"contracts/BaseContract.sol\":2820:2833  kamuKurumlari */\n      0x08\n        /* \"contracts/BaseContract.sol\":2820:2845  kamuKurumlari[msg.sender] */\n      0x00\n        /* \"contracts/BaseContract.sol\":2834:2844  msg.sender */\n      caller\n        /* \"contracts/BaseContract.sol\":2820:2845  kamuKurumlari[msg.sender] */\n      0xffffffffffffffffffffffffffffffffffffffff\n      and\n      0xffffffffffffffffffffffffffffffffffffffff\n      and\n      dup2\n      mstore\n      0x20\n      add\n      swap1\n      dup2\n      mstore\n      0x20\n      add\n      0x00\n      keccak256\n        /* \"contracts/BaseContract.sol\":2820:2851  kamuKurumlari[msg.sender].durum */\n      0x00\n      add\n      0x00\n      swap1\n      sload\n      swap1\n      0x0100\n      exp\n      swap1\n      div\n      0xff\n      and\n        /* \"contracts/BaseContract.sol\":2759:2851  universiteler[msg.sender].durum||firmalar[msg.sender].durum||kamuKurumlari[msg.sender].durum */\n    tag_166:\n        /* \"contracts/BaseContract.sol\":2751:2903  require(universiteler[msg.sender].durum||firmalar[msg.sender].durum||kamuKurumlari[msg.sender].durum,\r... */\n      tag_167\n      jumpi\n      mload(0x40)\n      0x08c379a000000000000000000000000000000000000000000000000000000000\n      dup2\n      mstore\n      0x04\n      add\n      tag_168\n      swap1\n      tag_139\n      jump\t// in\n    tag_168:\n      mload(0x40)\n      dup1\n      swap2\n      sub\n      swap1\n      revert\n    tag_167:\n        /* \"contracts/CalismaBilgileri.sol\":1339:1346  kisiler */\n      0x03\n        /* \"contracts/CalismaBilgileri.sol\":1339:1360  kisiler[_kisiAddress] */\n      0x00\n        /* \"contracts/CalismaBilgileri.sol\":1347:1359  _kisiAddress */\n      dup11\n        /* \"contracts/CalismaBilgileri.sol\":1339:1360  kisiler[_kisiAddress] */\n      0xffffffffffffffffffffffffffffffffffffffff\n      and\n      0xffffffffffffffffffffffffffffffffffffffff\n      and\n      dup2\n      mstore\n      0x20\n      add\n      swap1\n      dup2\n      mstore\n      0x20\n      add\n      0x00\n      keccak256\n        /* \"contracts/CalismaBilgileri.sol\":1339:1366  kisiler[_kisiAddress].durum */\n      0x00\n      add\n      0x00\n      swap1\n      sload\n      swap1\n      0x0100\n      exp\n      swap1\n      div\n      0xff\n      and\n        /* \"contracts/CalismaBilgileri.sol\":1331:1388  require(kisiler[_kisiAddress].durum,\"Student not exists\") */\n      tag_170\n      jumpi\n      mload(0x40)\n      0x08c379a000000000000000000000000000000000000000000000000000000000\n      dup2\n      mstore\n      0x04\n      add\n      tag_171\n      swap1\n      tag_92\n      jump\t// in\n    tag_171:\n      mload(0x40)\n      dup1\n      swap2\n      sub\n      swap1\n      revert\n    tag_170:\n        /* \"contracts/CalismaBilgileri.sol\":1404:1415  uint yeniId */\n      0x00\n        /* \"contracts/CalismaBilgileri.sol\":1416:1418  id */\n      0x0c\n      0x00\n        /* \"contracts/CalismaBilgileri.sol\":1416:1420  id++ */\n      dup2\n      sload\n      dup1\n      swap3\n      swap2\n      swap1\n      tag_172\n      swap1\n      tag_94\n      jump\t// in\n    tag_172:\n      swap2\n      swap1\n      pop\n      sstore\n        /* \"contracts/CalismaBilgileri.sol\":1404:1420  uint yeniId=id++ */\n      swap1\n      pop\n        /* \"contracts/CalismaBilgileri.sol\":1498:1506  pozisyon */\n      dup9\n        /* \"contracts/CalismaBilgileri.sol\":1450:1466  calismaBilgileri */\n      0x0d\n        /* \"contracts/CalismaBilgileri.sol\":1450:1480  calismaBilgileri[_kisiAddress] */\n      0x00\n        /* \"contracts/CalismaBilgileri.sol\":1467:1479  _kisiAddress */\n      dup13\n        /* \"contracts/CalismaBilgileri.sol\":1450:1480  calismaBilgileri[_kisiAddress] */\n      0xffffffffffffffffffffffffffffffffffffffff\n      and\n      0xffffffffffffffffffffffffffffffffffffffff\n      and\n      dup2\n      mstore\n      0x20\n      add\n      swap1\n      dup2\n      mstore\n      0x20\n      add\n      0x00\n      keccak256\n        /* \"contracts/CalismaBilgileri.sol\":1450:1488  calismaBilgileri[_kisiAddress][yeniId] */\n      0x00\n        /* \"contracts/CalismaBilgileri.sol\":1481:1487  yeniId */\n      dup4\n        /* \"contracts/CalismaBilgileri.sol\":1450:1488  calismaBilgileri[_kisiAddress][yeniId] */\n      dup2\n      mstore\n      0x20\n      add\n      swap1\n      dup2\n      mstore\n      0x20\n      add\n      0x00\n      keccak256\n        /* \"contracts/CalismaBilgileri.sol\":1450:1497  calismaBilgileri[_kisiAddress][yeniId].pozisyon */\n      0x01\n      add\n      0x14\n        /* \"contracts/CalismaBilgileri.sol\":1450:1506  calismaBilgileri[_kisiAddress][yeniId].pozisyon=pozisyon */\n      0x0100\n      exp\n      dup2\n      sload\n      dup2\n      0xffffffff\n      mul\n      not\n      and\n      swap1\n      dup4\n      0xffffffff\n      and\n      mul\n      or\n      swap1\n      sstore\n      pop\n        /* \"contracts/CalismaBilgileri.sol\":1568:1574  sektor */\n      dup8\n        /* \"contracts/CalismaBilgileri.sol\":1522:1538  calismaBilgileri */\n      0x0d\n        /* \"contracts/CalismaBilgileri.sol\":1522:1552  calismaBilgileri[_kisiAddress] */\n      0x00\n        /* \"contracts/CalismaBilgileri.sol\":1539:1551  _kisiAddress */\n      dup13\n        /* \"contracts/CalismaBilgileri.sol\":1522:1552  calismaBilgileri[_kisiAddress] */\n      0xffffffffffffffffffffffffffffffffffffffff\n      and\n      0xffffffffffffffffffffffffffffffffffffffff\n      and\n      dup2\n      mstore\n      0x20\n      add\n      swap1\n      dup2\n      mstore\n      0x20\n      add\n      0x00\n      keccak256\n        /* \"contracts/CalismaBilgileri.sol\":1522:1560  calismaBilgileri[_kisiAddress][yeniId] */\n      0x00\n        /* \"contracts/CalismaBilgileri.sol\":1553:1559  yeniId */\n      dup4\n        /* \"contracts/CalismaBilgileri.sol\":1522:1560  calismaBilgileri[_kisiAddress][yeniId] */\n      dup2\n      mstore\n      0x20\n      add\n      swap1\n      dup2\n      mstore\n      0x20\n      add\n      0x00\n      keccak256\n        /* \"contracts/CalismaBilgileri.sol\":1522:1567  calismaBilgileri[_kisiAddress][yeniId].sektor */\n      0x01\n      add\n      0x18\n        /* \"contracts/CalismaBilgileri.sol\":1522:1574  calismaBilgileri[_kisiAddress][yeniId].sektor=sektor */\n      0x0100\n      exp\n      dup2\n      sload\n      dup2\n      0xff\n      mul\n      not\n      and\n      swap1\n      dup4\n      0xff\n      and\n      mul\n      or\n      swap1\n      sstore\n      pop\n        /* \"contracts/CalismaBilgileri.sol\":1641:1652  calismaTipi */\n      dup7\n        /* \"contracts/CalismaBilgileri.sol\":1590:1606  calismaBilgileri */\n      0x0d\n        /* \"contracts/CalismaBilgileri.sol\":1590:1620  calismaBilgileri[_kisiAddress] */\n      0x00\n        /* \"contracts/CalismaBilgileri.sol\":1607:1619  _kisiAddress */\n      dup13\n        /* \"contracts/CalismaBilgileri.sol\":1590:1620  calismaBilgileri[_kisiAddress] */\n      0xffffffffffffffffffffffffffffffffffffffff\n      and\n      0xffffffffffffffffffffffffffffffffffffffff\n      and\n      dup2\n      mstore\n      0x20\n      add\n      swap1\n      dup2\n      mstore\n      0x20\n      add\n      0x00\n      keccak256\n        /* \"contracts/CalismaBilgileri.sol\":1590:1628  calismaBilgileri[_kisiAddress][yeniId] */\n      0x00\n        /* \"contracts/CalismaBilgileri.sol\":1621:1627  yeniId */\n      dup4\n        /* \"contracts/CalismaBilgileri.sol\":1590:1628  calismaBilgileri[_kisiAddress][yeniId] */\n      dup2\n      mstore\n      0x20\n      add\n      swap1\n      dup2\n      mstore\n      0x20\n      add\n      0x00\n      keccak256\n        /* \"contracts/CalismaBilgileri.sol\":1590:1640  calismaBilgileri[_kisiAddress][yeniId].calismaTipi */\n      0x01\n      add\n      0x19\n        /* \"contracts/CalismaBilgileri.sol\":1590:1652  calismaBilgileri[_kisiAddress][yeniId].calismaTipi=calismaTipi */\n      0x0100\n      exp\n      dup2\n      sload\n      dup2\n      0xff\n      mul\n      not\n      and\n      swap1\n      dup4\n      0x02\n      dup2\n      gt\n      iszero\n      tag_173\n      jumpi\n      tag_174\n      tag_97\n      jump\t// in\n    tag_174:\n    tag_173:\n      mul\n      or\n      swap1\n      sstore\n      pop\n        /* \"contracts/CalismaBilgileri.sol\":1718:1728  isAciklama */\n      dup6\n        /* \"contracts/CalismaBilgileri.sol\":1668:1684  calismaBilgileri */\n      0x0d\n        /* \"contracts/CalismaBilgileri.sol\":1668:1698  calismaBilgileri[_kisiAddress] */\n      0x00\n        /* \"contracts/CalismaBilgileri.sol\":1685:1697  _kisiAddress */\n      dup13\n        /* \"contracts/CalismaBilgileri.sol\":1668:1698  calismaBilgileri[_kisiAddress] */\n      0xffffffffffffffffffffffffffffffffffffffff\n      and\n      0xffffffffffffffffffffffffffffffffffffffff\n      and\n      dup2\n      mstore\n      0x20\n      add\n      swap1\n      dup2\n      mstore\n      0x20\n      add\n      0x00\n      keccak256\n        /* \"contracts/CalismaBilgileri.sol\":1668:1706  calismaBilgileri[_kisiAddress][yeniId] */\n      0x00\n        /* \"contracts/CalismaBilgileri.sol\":1699:1705  yeniId */\n      dup4\n        /* \"contracts/CalismaBilgileri.sol\":1668:1706  calismaBilgileri[_kisiAddress][yeniId] */\n      dup2\n      mstore\n      0x20\n      add\n      swap1\n      dup2\n      mstore\n      0x20\n      add\n      0x00\n      keccak256\n        /* \"contracts/CalismaBilgileri.sol\":1668:1717  calismaBilgileri[_kisiAddress][yeniId].isAciklama */\n      0x02\n      add\n        /* \"contracts/CalismaBilgileri.sol\":1668:1728  calismaBilgileri[_kisiAddress][yeniId].isAciklama=isAciklama */\n      swap1\n      dup1\n      mload\n      swap1\n      0x20\n      add\n      swap1\n      tag_175\n      swap3\n      swap2\n      swap1\n      tag_99\n      jump\t// in\n    tag_175:\n      pop\n        /* \"contracts/CalismaBilgileri.sol\":1792:1800  basTarih */\n      dup5\n        /* \"contracts/CalismaBilgileri.sol\":1744:1760  calismaBilgileri */\n      0x0d\n        /* \"contracts/CalismaBilgileri.sol\":1744:1774  calismaBilgileri[_kisiAddress] */\n      0x00\n        /* \"contracts/CalismaBilgileri.sol\":1761:1773  _kisiAddress */\n      dup13\n        /* \"contracts/CalismaBilgileri.sol\":1744:1774  calismaBilgileri[_kisiAddress] */\n      0xffffffffffffffffffffffffffffffffffffffff\n      and\n      0xffffffffffffffffffffffffffffffffffffffff\n      and\n      dup2\n      mstore\n      0x20\n      add\n      swap1\n      dup2\n      mstore\n      0x20\n      add\n      0x00\n      keccak256\n        /* \"contracts/CalismaBilgileri.sol\":1744:1782  calismaBilgileri[_kisiAddress][yeniId] */\n      0x00\n        /* \"contracts/CalismaBilgileri.sol\":1775:1781  yeniId */\n      dup4\n        /* \"contracts/CalismaBilgileri.sol\":1744:1782  calismaBilgileri[_kisiAddress][yeniId] */\n      dup2\n      mstore\n      0x20\n      add\n      swap1\n      dup2\n      mstore\n      0x20\n      add\n      0x00\n      keccak256\n        /* \"contracts/CalismaBilgileri.sol\":1744:1791  calismaBilgileri[_kisiAddress][yeniId].basTarih */\n      0x03\n      add\n        /* \"contracts/CalismaBilgileri.sol\":1744:1800  calismaBilgileri[_kisiAddress][yeniId].basTarih=basTarih */\n      dup2\n      swap1\n      sstore\n      pop\n        /* \"contracts/CalismaBilgileri.sol\":1864:1872  bitTarih */\n      dup4\n        /* \"contracts/CalismaBilgileri.sol\":1816:1832  calismaBilgileri */\n      0x0d\n        /* \"contracts/CalismaBilgileri.sol\":1816:1846  calismaBilgileri[_kisiAddress] */\n      0x00\n        /* \"contracts/CalismaBilgileri.sol\":1833:1845  _kisiAddress */\n      dup13\n        /* \"contracts/CalismaBilgileri.sol\":1816:1846  calismaBilgileri[_kisiAddress] */\n      0xffffffffffffffffffffffffffffffffffffffff\n      and\n      0xffffffffffffffffffffffffffffffffffffffff\n      and\n      dup2\n      mstore\n      0x20\n      add\n      swap1\n      dup2\n      mstore\n      0x20\n      add\n      0x00\n      keccak256\n        /* \"contracts/CalismaBilgileri.sol\":1816:1854  calismaBilgileri[_kisiAddress][yeniId] */\n      0x00\n        /* \"contracts/CalismaBilgileri.sol\":1847:1853  yeniId */\n      dup4\n        /* \"contracts/CalismaBilgileri.sol\":1816:1854  calismaBilgileri[_kisiAddress][yeniId] */\n      dup2\n      mstore\n      0x20\n      add\n      swap1\n      dup2\n      mstore\n      0x20\n      add\n      0x00\n      keccak256\n        /* \"contracts/CalismaBilgileri.sol\":1816:1863  calismaBilgileri[_kisiAddress][yeniId].bitTarih */\n      0x04\n      add\n        /* \"contracts/CalismaBilgileri.sol\":1816:1872  calismaBilgileri[_kisiAddress][yeniId].bitTarih=bitTarih */\n      dup2\n      swap1\n      sstore\n      pop\n        /* \"contracts/CalismaBilgileri.sol\":1932:1936  ulke */\n      dup3\n        /* \"contracts/CalismaBilgileri.sol\":1888:1904  calismaBilgileri */\n      0x0d\n        /* \"contracts/CalismaBilgileri.sol\":1888:1918  calismaBilgileri[_kisiAddress] */\n      0x00\n        /* \"contracts/CalismaBilgileri.sol\":1905:1917  _kisiAddress */\n      dup13\n        /* \"contracts/CalismaBilgileri.sol\":1888:1918  calismaBilgileri[_kisiAddress] */\n      0xffffffffffffffffffffffffffffffffffffffff\n      and\n      0xffffffffffffffffffffffffffffffffffffffff\n      and\n      dup2\n      mstore\n      0x20\n      add\n      swap1\n      dup2\n      mstore\n      0x20\n      add\n      0x00\n      keccak256\n        /* \"contracts/CalismaBilgileri.sol\":1888:1926  calismaBilgileri[_kisiAddress][yeniId] */\n      0x00\n        /* \"contracts/CalismaBilgileri.sol\":1919:1925  yeniId */\n      dup4\n        /* \"contracts/CalismaBilgileri.sol\":1888:1926  calismaBilgileri[_kisiAddress][yeniId] */\n      dup2\n      mstore\n      0x20\n      add\n      swap1\n      dup2\n      mstore\n      0x20\n      add\n      0x00\n      keccak256\n        /* \"contracts/CalismaBilgileri.sol\":1888:1931  calismaBilgileri[_kisiAddress][yeniId].ulke */\n      0x05\n      add\n      0x00\n        /* \"contracts/CalismaBilgileri.sol\":1888:1936  calismaBilgileri[_kisiAddress][yeniId].ulke=ulke */\n      0x0100\n      exp\n      dup2\n      sload\n      dup2\n      0xff\n      mul\n      not\n      and\n      swap1\n      dup4\n      0xff\n      and\n      mul\n      or\n      swap1\n      sstore\n      pop\n        /* \"contracts/CalismaBilgileri.sol\":1997:2002  sehir */\n      dup2\n        /* \"contracts/CalismaBilgileri.sol\":1952:1968  calismaBilgileri */\n      0x0d\n        /* \"contracts/CalismaBilgileri.sol\":1952:1982  calismaBilgileri[_kisiAddress] */\n      0x00\n        /* \"contracts/CalismaBilgileri.sol\":1969:1981  _kisiAddress */\n      dup13\n        /* \"contracts/CalismaBilgileri.sol\":1952:1982  calismaBilgileri[_kisiAddress] */\n      0xffffffffffffffffffffffffffffffffffffffff\n      and\n      0xffffffffffffffffffffffffffffffffffffffff\n      and\n      dup2\n      mstore\n      0x20\n      add\n      swap1\n      dup2\n      mstore\n      0x20\n      add\n      0x00\n      keccak256\n        /* \"contracts/CalismaBilgileri.sol\":1952:1990  calismaBilgileri[_kisiAddress][yeniId] */\n      0x00\n        /* \"contracts/CalismaBilgileri.sol\":1983:1989  yeniId */\n      dup4\n        /* \"contracts/CalismaBilgileri.sol\":1952:1990  calismaBilgileri[_kisiAddress][yeniId] */\n      dup2\n      mstore\n      0x20\n      add\n      swap1\n      dup2\n      mstore\n      0x20\n      add\n      0x00\n      keccak256\n        /* \"contracts/CalismaBilgileri.sol\":1952:1996  calismaBilgileri[_kisiAddress][yeniId].sehir */\n      0x05\n      add\n      0x01\n        /* \"contracts/CalismaBilgileri.sol\":1952:2002  calismaBilgileri[_kisiAddress][yeniId].sehir=sehir */\n      0x0100\n      exp\n      dup2\n      sload\n      dup2\n      0xffffffff\n      mul\n      not\n      and\n      swap1\n      dup4\n      0xffffffff\n      and\n      mul\n      or\n      swap1\n      sstore\n      pop\n        /* \"contracts/CalismaBilgileri.sol\":2073:2088  block.timestamp */\n      timestamp\n        /* \"contracts/CalismaBilgileri.sol\":2018:2034  calismaBilgileri */\n      0x0d\n        /* \"contracts/CalismaBilgileri.sol\":2018:2048  calismaBilgileri[_kisiAddress] */\n      0x00\n        /* \"contracts/CalismaBilgileri.sol\":2035:2047  _kisiAddress */\n      dup13\n        /* \"contracts/CalismaBilgileri.sol\":2018:2048  calismaBilgileri[_kisiAddress] */\n      0xffffffffffffffffffffffffffffffffffffffff\n      and\n      0xffffffffffffffffffffffffffffffffffffffff\n      and\n      dup2\n      mstore\n      0x20\n      add\n      swap1\n      dup2\n      mstore\n      0x20\n      add\n      0x00\n      keccak256\n        /* \"contracts/CalismaBilgileri.sol\":2018:2056  calismaBilgileri[_kisiAddress][yeniId] */\n      0x00\n        /* \"contracts/CalismaBilgileri.sol\":2049:2055  yeniId */\n      dup4\n        /* \"contracts/CalismaBilgileri.sol\":2018:2056  calismaBilgileri[_kisiAddress][yeniId] */\n      dup2\n      mstore\n      0x20\n      add\n      swap1\n      dup2\n      mstore\n      0x20\n      add\n      0x00\n      keccak256\n        /* \"contracts/CalismaBilgileri.sol\":2018:2066  calismaBilgileri[_kisiAddress][yeniId].onayBilgi */\n      0x06\n      add\n        /* \"contracts/CalismaBilgileri.sol\":2018:2072  calismaBilgileri[_kisiAddress][yeniId].onayBilgi.zaman */\n      0x00\n      add\n        /* \"contracts/CalismaBilgileri.sol\":2018:2088  calismaBilgileri[_kisiAddress][yeniId].onayBilgi.zaman=block.timestamp */\n      dup2\n      swap1\n      sstore\n      pop\n        /* \"contracts/CalismaBilgileri.sol\":2159:2178  OnayDurum.Onaylandi */\n      0x01\n        /* \"contracts/CalismaBilgileri.sol\":2104:2120  calismaBilgileri */\n      0x0d\n        /* \"contracts/CalismaBilgileri.sol\":2104:2134  calismaBilgileri[_kisiAddress] */\n      0x00\n        /* \"contracts/CalismaBilgileri.sol\":2121:2133  _kisiAddress */\n      dup13\n        /* \"contracts/CalismaBilgileri.sol\":2104:2134  calismaBilgileri[_kisiAddress] */\n      0xffffffffffffffffffffffffffffffffffffffff\n      and\n      0xffffffffffffffffffffffffffffffffffffffff\n      and\n      dup2\n      mstore\n      0x20\n      add\n      swap1\n      dup2\n      mstore\n      0x20\n      add\n      0x00\n      keccak256\n        /* \"contracts/CalismaBilgileri.sol\":2104:2142  calismaBilgileri[_kisiAddress][yeniId] */\n      0x00\n        /* \"contracts/CalismaBilgileri.sol\":2135:2141  yeniId */\n      dup4\n        /* \"contracts/CalismaBilgileri.sol\":2104:2142  calismaBilgileri[_kisiAddress][yeniId] */\n      dup2\n      mstore\n      0x20\n      add\n      swap1\n      dup2\n      mstore\n      0x20\n      add\n      0x00\n      keccak256\n        /* \"contracts/CalismaBilgileri.sol\":2104:2152  calismaBilgileri[_kisiAddress][yeniId].onayBilgi */\n      0x06\n      add\n        /* \"contracts/CalismaBilgileri.sol\":2104:2158  calismaBilgileri[_kisiAddress][yeniId].onayBilgi.durum */\n      0x01\n      add\n      0x14\n        /* \"contracts/CalismaBilgileri.sol\":2104:2178  calismaBilgileri[_kisiAddress][yeniId].onayBilgi.durum=OnayDurum.Onaylandi */\n      0x0100\n      exp\n      dup2\n      sload\n      dup2\n      0xff\n      mul\n      not\n      and\n      swap1\n      dup4\n      0x02\n      dup2\n      gt\n      iszero\n      tag_176\n      jumpi\n      tag_177\n      tag_97\n      jump\t// in\n    tag_177:\n    tag_176:\n      mul\n      or\n      swap1\n      sstore\n      pop\n        /* \"contracts/CalismaBilgileri.sol\":2249:2259  msg.sender */\n      caller\n        /* \"contracts/CalismaBilgileri.sol\":2194:2210  calismaBilgileri */\n      0x0d\n        /* \"contracts/CalismaBilgileri.sol\":2194:2224  calismaBilgileri[_kisiAddress] */\n      0x00\n        /* \"contracts/CalismaBilgileri.sol\":2211:2223  _kisiAddress */\n      dup13\n        /* \"contracts/CalismaBilgileri.sol\":2194:2224  calismaBilgileri[_kisiAddress] */\n      0xffffffffffffffffffffffffffffffffffffffff\n      and\n      0xffffffffffffffffffffffffffffffffffffffff\n      and\n      dup2\n      mstore\n      0x20\n      add\n      swap1\n      dup2\n      mstore\n      0x20\n      add\n      0x00\n      keccak256\n        /* \"contracts/CalismaBilgileri.sol\":2194:2232  calismaBilgileri[_kisiAddress][yeniId] */\n      0x00\n        /* \"contracts/CalismaBilgileri.sol\":2225:2231  yeniId */\n      dup4\n        /* \"contracts/CalismaBilgileri.sol\":2194:2232  calismaBilgileri[_kisiAddress][yeniId] */\n      dup2\n      mstore\n      0x20\n      add\n      swap1\n      dup2\n      mstore\n      0x20\n      add\n      0x00\n      keccak256\n        /* \"contracts/CalismaBilgileri.sol\":2194:2242  calismaBilgileri[_kisiAddress][yeniId].onayBilgi */\n      0x06\n      add\n        /* \"contracts/CalismaBilgileri.sol\":2194:2248  calismaBilgileri[_kisiAddress][yeniId].onayBilgi.adres */\n      0x01\n      add\n      0x00\n        /* \"contracts/CalismaBilgileri.sol\":2194:2259  calismaBilgileri[_kisiAddress][yeniId].onayBilgi.adres=msg.sender */\n      0x0100\n      exp\n      dup2\n      sload\n      dup2\n      0xffffffffffffffffffffffffffffffffffffffff\n      mul\n      not\n      and\n      swap1\n      dup4\n      0xffffffffffffffffffffffffffffffffffffffff\n      and\n      mul\n      or\n      swap1\n      sstore\n      pop\n        /* \"contracts/CalismaBilgileri.sol\":2293:2353  CalismaBilgiEklendiLog( _kisiAddress, ulke,pozisyon, sektor) */\n      0x5ad0792471e6b8d6289d325d174cfb7e274ac9529efeb295f4abce0a90cdcb23\n        /* \"contracts/CalismaBilgileri.sol\":2317:2329  _kisiAddress */\n      dup11\n        /* \"contracts/CalismaBilgileri.sol\":2331:2335  ulke */\n      dup5\n        /* \"contracts/CalismaBilgileri.sol\":2336:2344  pozisyon */\n      dup12\n        /* \"contracts/CalismaBilgileri.sol\":2346:2352  sektor */\n      dup12\n        /* \"contracts/CalismaBilgileri.sol\":2293:2353  CalismaBilgiEklendiLog( _kisiAddress, ulke,pozisyon, sektor) */\n      mload(0x40)\n      tag_178\n      swap5\n      swap4\n      swap3\n      swap2\n      swap1\n      tag_103\n      jump\t// in\n    tag_178:\n      mload(0x40)\n      dup1\n      swap2\n      sub\n      swap1\n      log1\n        /* \"contracts/CalismaBilgileri.sol\":1315:2361  {\r... */\n      pop\n        /* \"contracts/CalismaBilgileri.sol\":1100:2361  function ekleCalismaBilgi(address _kisiAddress, uint32 pozisyon, uint8 sektor, CalismaTipi calismaTipi, string memory isAciklama, uint basTarih, uint bitTarih, uint8 ulke, uint32 sehir)  public sadece_Uni_Firma_Kamu{\r... */\n      pop\n      pop\n      pop\n      pop\n      pop\n      pop\n      pop\n      pop\n      pop\n      jump\t// out\n        /* \"contracts/CalismaBilgileri.sol\":183:197  uint public id */\n    tag_73:\n      sload(0x0c)\n      dup2\n      jump\t// out\n        /* \"contracts/BaseContract.sol\":3188:3239  mapping(address=>Akademisyen) public akademisyenler */\n    tag_77:\n      mstore(0x20, 0x05)\n      dup1\n      0x00\n      mstore\n      keccak256(0x00, 0x40)\n      0x00\n      swap2\n      pop\n      swap1\n      pop\n      dup1\n      0x00\n      add\n      0x00\n      swap1\n      sload\n      swap1\n      0x0100\n      exp\n      swap1\n      div\n      0xff\n      and\n      swap1\n      dup1\n      0x00\n      add\n      0x01\n      swap1\n      sload\n      swap1\n      0x0100\n      exp\n      swap1\n      div\n      0xffffffffffffffffffffffffffffffffffffffff\n      and\n      swap1\n      dup1\n      0x00\n      add\n      0x15\n      swap1\n      sload\n      swap1\n      0x0100\n      exp\n      swap1\n      div\n      0xffff\n      and\n      swap1\n      dup1\n      0x00\n      add\n      0x17\n      swap1\n      sload\n      swap1\n      0x0100\n      exp\n      swap1\n      div\n      0xff\n      and\n      swap1\n      dup1\n      0x01\n      add\n      dup1\n      sload\n      tag_179\n      swap1\n      tag_105\n      jump\t// in\n    tag_179:\n      dup1\n      0x1f\n      add\n      0x20\n      dup1\n      swap2\n      div\n      mul\n      0x20\n      add\n      mload(0x40)\n      swap1\n      dup2\n      add\n      0x40\n      mstore\n      dup1\n      swap3\n      swap2\n      swap1\n      dup2\n      dup2\n      mstore\n      0x20\n      add\n      dup3\n      dup1\n      sload\n      tag_180\n      swap1\n      tag_105\n      jump\t// in\n    tag_180:\n      dup1\n      iszero\n      tag_181\n      jumpi\n      dup1\n      0x1f\n      lt\n      tag_182\n      jumpi\n      0x0100\n      dup1\n      dup4\n      sload\n      div\n      mul\n      dup4\n      mstore\n      swap2\n      0x20\n      add\n      swap2\n      jump(tag_181)\n    tag_182:\n      dup3\n      add\n      swap2\n      swap1\n      0x00\n      mstore\n      keccak256(0x00, 0x20)\n      swap1\n    tag_183:\n      dup2\n      sload\n      dup2\n      mstore\n      swap1\n      0x01\n      add\n      swap1\n      0x20\n      add\n      dup1\n      dup4\n      gt\n      tag_183\n      jumpi\n      dup3\n      swap1\n      sub\n      0x1f\n      and\n      dup3\n      add\n      swap2\n    tag_181:\n      pop\n      pop\n      pop\n      pop\n      pop\n      swap1\n      dup1\n      0x02\n      add\n      dup1\n      sload\n      tag_184\n      swap1\n      tag_105\n      jump\t// in\n    tag_184:\n      dup1\n      0x1f\n      add\n      0x20\n      dup1\n      swap2\n      div\n      mul\n      0x20\n      add\n      mload(0x40)\n      swap1\n      dup2\n      add\n      0x40\n      mstore\n      dup1\n      swap3\n      swap2\n      swap1\n      dup2\n      dup2\n      mstore\n      0x20\n      add\n      dup3\n      dup1\n      sload\n      tag_185\n      swap1\n      tag_105\n      jump\t// in\n    tag_185:\n      dup1\n      iszero\n      tag_186\n      jumpi\n      dup1\n      0x1f\n      lt\n      tag_187\n      jumpi\n      0x0100\n      dup1\n      dup4\n      sload\n      div\n      mul\n      dup4\n      mstore\n      swap2\n      0x20\n      add\n      swap2\n      jump(tag_186)\n    tag_187:\n      dup3\n      add\n      swap2\n      swap1\n      0x00\n      mstore\n      keccak256(0x00, 0x20)\n      swap1\n    tag_188:\n      dup2\n      sload\n      dup2\n      mstore\n      swap1\n      0x01\n      add\n      swap1\n      0x20\n      add\n      dup1\n      dup4\n      gt\n      tag_188\n      jumpi\n      dup3\n      swap1\n      sub\n      0x1f\n      and\n      dup3\n      add\n      swap2\n    tag_186:\n      pop\n      pop\n      pop\n      pop\n      pop\n      swap1\n      pop\n      dup7\n      jump\t// out\n        /* \"contracts/BaseContract.sol\":3088:3125  mapping(address=>Kisi) public kisiler */\n    tag_82:\n      mstore(0x20, 0x03)\n      dup1\n      0x00\n      mstore\n      keccak256(0x00, 0x40)\n      0x00\n      swap2\n      pop\n      swap1\n      pop\n      dup1\n      0x00\n      add\n      0x00\n      swap1\n      sload\n      swap1\n      0x0100\n      exp\n      swap1\n      div\n      0xff\n      and\n      swap1\n      pop\n      dup2\n      jump\t// out\n    tag_99:\n      dup3\n      dup1\n      sload\n      tag_189\n      swap1\n      tag_105\n      jump\t// in\n    tag_189:\n      swap1\n      0x00\n      mstore\n      keccak256(0x00, 0x20)\n      swap1\n      0x1f\n      add\n      0x20\n      swap1\n      div\n      dup2\n      add\n      swap3\n      dup3\n      tag_191\n      jumpi\n      0x00\n      dup6\n      sstore\n      jump(tag_190)\n    tag_191:\n      dup3\n      0x1f\n      lt\n      tag_192\n      jumpi\n      dup1\n      mload\n      not(0xff)\n      and\n      dup4\n      dup1\n      add\n      or\n      dup6\n      sstore\n      jump(tag_190)\n    tag_192:\n      dup3\n      dup1\n      add\n      0x01\n      add\n      dup6\n      sstore\n      dup3\n      iszero\n      tag_190\n      jumpi\n      swap2\n      dup3\n      add\n    tag_193:\n      dup3\n      dup2\n      gt\n      iszero\n      tag_194\n      jumpi\n      dup3\n      mload\n      dup3\n      sstore\n      swap2\n      0x20\n      add\n      swap2\n      swap1\n      0x01\n      add\n      swap1\n      jump(tag_193)\n    tag_194:\n    tag_190:\n      pop\n      swap1\n      pop\n      tag_195\n      swap2\n      swap1\n      tag_196\n      jump\t// in\n    tag_195:\n      pop\n      swap1\n      jump\t// out\n    tag_196:\n    tag_197:\n      dup1\n      dup3\n      gt\n      iszero\n      tag_198\n      jumpi\n      0x00\n      dup2\n      0x00\n      swap1\n      sstore\n      pop\n      0x01\n      add\n      jump(tag_197)\n    tag_198:\n      pop\n      swap1\n      jump\t// out\n        /* \"#utility.yul\":7:419   */\n    tag_200:\n        /* \"#utility.yul\":85:90   */\n      0x00\n        /* \"#utility.yul\":110:176   */\n      tag_202\n        /* \"#utility.yul\":126:175   */\n      tag_203\n        /* \"#utility.yul\":168:174   */\n      dup5\n        /* \"#utility.yul\":126:175   */\n      tag_204\n      jump\t// in\n    tag_203:\n        /* \"#utility.yul\":110:176   */\n      tag_205\n      jump\t// in\n    tag_202:\n        /* \"#utility.yul\":101:176   */\n      swap1\n      pop\n        /* \"#utility.yul\":199:205   */\n      dup3\n        /* \"#utility.yul\":192:197   */\n      dup2\n        /* \"#utility.yul\":185:206   */\n      mstore\n        /* \"#utility.yul\":237:241   */\n      0x20\n        /* \"#utility.yul\":230:235   */\n      dup2\n        /* \"#utility.yul\":226:242   */\n      add\n        /* \"#utility.yul\":275:278   */\n      dup5\n        /* \"#utility.yul\":266:272   */\n      dup5\n        /* \"#utility.yul\":261:264   */\n      dup5\n        /* \"#utility.yul\":257:273   */\n      add\n        /* \"#utility.yul\":254:279   */\n      gt\n        /* \"#utility.yul\":251:363   */\n      iszero\n      tag_206\n      jumpi\n        /* \"#utility.yul\":282:361   */\n      tag_207\n      tag_208\n      jump\t// in\n    tag_207:\n        /* \"#utility.yul\":251:363   */\n    tag_206:\n        /* \"#utility.yul\":372:413   */\n      tag_209\n        /* \"#utility.yul\":406:412   */\n      dup5\n        /* \"#utility.yul\":401:404   */\n      dup3\n        /* \"#utility.yul\":396:399   */\n      dup6\n        /* \"#utility.yul\":372:413   */\n      tag_210\n      jump\t// in\n    tag_209:\n        /* \"#utility.yul\":91:419   */\n      pop\n        /* \"#utility.yul\":7:419   */\n      swap4\n      swap3\n      pop\n      pop\n      pop\n      jump\t// out\n        /* \"#utility.yul\":425:564   */\n    tag_211:\n        /* \"#utility.yul\":471:476   */\n      0x00\n        /* \"#utility.yul\":509:515   */\n      dup2\n        /* \"#utility.yul\":496:516   */\n      calldataload\n        /* \"#utility.yul\":487:516   */\n      swap1\n      pop\n        /* \"#utility.yul\":525:558   */\n      tag_213\n        /* \"#utility.yul\":552:557   */\n      dup2\n        /* \"#utility.yul\":525:558   */\n      tag_214\n      jump\t// in\n    tag_213:\n        /* \"#utility.yul\":425:564   */\n      swap3\n      swap2\n      pop\n      pop\n      jump\t// out\n        /* \"#utility.yul\":570:739   */\n    tag_215:\n        /* \"#utility.yul\":631:636   */\n      0x00\n        /* \"#utility.yul\":669:675   */\n      dup2\n        /* \"#utility.yul\":656:676   */\n      calldataload\n        /* \"#utility.yul\":647:676   */\n      swap1\n      pop\n        /* \"#utility.yul\":685:733   */\n      tag_217\n        /* \"#utility.yul\":727:732   */\n      dup2\n        /* \"#utility.yul\":685:733   */\n      tag_218\n      jump\t// in\n    tag_217:\n        /* \"#utility.yul\":570:739   */\n      swap3\n      swap2\n      pop\n      pop\n      jump\t// out\n        /* \"#utility.yul\":759:1099   */\n    tag_219:\n        /* \"#utility.yul\":815:820   */\n      0x00\n        /* \"#utility.yul\":864:867   */\n      dup3\n        /* \"#utility.yul\":857:861   */\n      0x1f\n        /* \"#utility.yul\":849:855   */\n      dup4\n        /* \"#utility.yul\":845:862   */\n      add\n        /* \"#utility.yul\":841:868   */\n      slt\n        /* \"#utility.yul\":831:953   */\n      tag_221\n      jumpi\n        /* \"#utility.yul\":872:951   */\n      tag_222\n      tag_223\n      jump\t// in\n    tag_222:\n        /* \"#utility.yul\":831:953   */\n    tag_221:\n        /* \"#utility.yul\":989:995   */\n      dup2\n        /* \"#utility.yul\":976:996   */\n      calldataload\n        /* \"#utility.yul\":1014:1093   */\n      tag_224\n        /* \"#utility.yul\":1089:1092   */\n      dup5\n        /* \"#utility.yul\":1081:1087   */\n      dup3\n        /* \"#utility.yul\":1074:1078   */\n      0x20\n        /* \"#utility.yul\":1066:1072   */\n      dup7\n        /* \"#utility.yul\":1062:1079   */\n      add\n        /* \"#utility.yul\":1014:1093   */\n      tag_200\n      jump\t// in\n    tag_224:\n        /* \"#utility.yul\":1005:1093   */\n      swap2\n      pop\n        /* \"#utility.yul\":821:1099   */\n      pop\n        /* \"#utility.yul\":759:1099   */\n      swap3\n      swap2\n      pop\n      pop\n      jump\t// out\n        /* \"#utility.yul\":1105:1244   */\n    tag_225:\n        /* \"#utility.yul\":1151:1156   */\n      0x00\n        /* \"#utility.yul\":1189:1195   */\n      dup2\n        /* \"#utility.yul\":1176:1196   */\n      calldataload\n        /* \"#utility.yul\":1167:1196   */\n      swap1\n      pop\n        /* \"#utility.yul\":1205:1238   */\n      tag_227\n        /* \"#utility.yul\":1232:1237   */\n      dup2\n        /* \"#utility.yul\":1205:1238   */\n      tag_228\n      jump\t// in\n    tag_227:\n        /* \"#utility.yul\":1105:1244   */\n      swap3\n      swap2\n      pop\n      pop\n      jump\t// out\n        /* \"#utility.yul\":1250:1387   */\n    tag_229:\n        /* \"#utility.yul\":1295:1300   */\n      0x00\n        /* \"#utility.yul\":1333:1339   */\n      dup2\n        /* \"#utility.yul\":1320:1340   */\n      calldataload\n        /* \"#utility.yul\":1311:1340   */\n      swap1\n      pop\n        /* \"#utility.yul\":1349:1381   */\n      tag_231\n        /* \"#utility.yul\":1375:1380   */\n      dup2\n        /* \"#utility.yul\":1349:1381   */\n      tag_232\n      jump\t// in\n    tag_231:\n        /* \"#utility.yul\":1250:1387   */\n      swap3\n      swap2\n      pop\n      pop\n      jump\t// out\n        /* \"#utility.yul\":1393:1528   */\n    tag_233:\n        /* \"#utility.yul\":1437:1442   */\n      0x00\n        /* \"#utility.yul\":1475:1481   */\n      dup2\n        /* \"#utility.yul\":1462:1482   */\n      calldataload\n        /* \"#utility.yul\":1453:1482   */\n      swap1\n      pop\n        /* \"#utility.yul\":1491:1522   */\n      tag_235\n        /* \"#utility.yul\":1516:1521   */\n      dup2\n        /* \"#utility.yul\":1491:1522   */\n      tag_236\n      jump\t// in\n    tag_235:\n        /* \"#utility.yul\":1393:1528   */\n      swap3\n      swap2\n      pop\n      pop\n      jump\t// out\n        /* \"#utility.yul\":1534:1863   */\n    tag_32:\n        /* \"#utility.yul\":1593:1599   */\n      0x00\n        /* \"#utility.yul\":1642:1644   */\n      0x20\n        /* \"#utility.yul\":1630:1639   */\n      dup3\n        /* \"#utility.yul\":1621:1628   */\n      dup5\n        /* \"#utility.yul\":1617:1640   */\n      sub\n        /* \"#utility.yul\":1613:1645   */\n      slt\n        /* \"#utility.yul\":1610:1729   */\n      iszero\n      tag_238\n      jumpi\n        /* \"#utility.yul\":1648:1727   */\n      tag_239\n      tag_240\n      jump\t// in\n    tag_239:\n        /* \"#utility.yul\":1610:1729   */\n    tag_238:\n        /* \"#utility.yul\":1768:1769   */\n      0x00\n        /* \"#utility.yul\":1793:1846   */\n      tag_241\n        /* \"#utility.yul\":1838:1845   */\n      dup5\n        /* \"#utility.yul\":1829:1835   */\n      dup3\n        /* \"#utility.yul\":1818:1827   */\n      dup6\n        /* \"#utility.yul\":1814:1836   */\n      add\n        /* \"#utility.yul\":1793:1846   */\n      tag_211\n      jump\t// in\n    tag_241:\n        /* \"#utility.yul\":1783:1846   */\n      swap2\n      pop\n        /* \"#utility.yul\":1739:1856   */\n      pop\n        /* \"#utility.yul\":1534:1863   */\n      swap3\n      swap2\n      pop\n      pop\n      jump\t// out\n        /* \"#utility.yul\":1869:2343   */\n    tag_26:\n        /* \"#utility.yul\":1937:1943   */\n      0x00\n        /* \"#utility.yul\":1945:1951   */\n      dup1\n        /* \"#utility.yul\":1994:1996   */\n      0x40\n        /* \"#utility.yul\":1982:1991   */\n      dup4\n        /* \"#utility.yul\":1973:1980   */\n      dup6\n        /* \"#utility.yul\":1969:1992   */\n      sub\n        /* \"#utility.yul\":1965:1997   */\n      slt\n        /* \"#utility.yul\":1962:2081   */\n      iszero\n      tag_243\n      jumpi\n        /* \"#utility.yul\":2000:2079   */\n      tag_244\n      tag_240\n      jump\t// in\n    tag_244:\n        /* \"#utility.yul\":1962:2081   */\n    tag_243:\n        /* \"#utility.yul\":2120:2121   */\n      0x00\n        /* \"#utility.yul\":2145:2198   */\n      tag_245\n        /* \"#utility.yul\":2190:2197   */\n      dup6\n        /* \"#utility.yul\":2181:2187   */\n      dup3\n        /* \"#utility.yul\":2170:2179   */\n      dup7\n        /* \"#utility.yul\":2166:2188   */\n      add\n        /* \"#utility.yul\":2145:2198   */\n      tag_211\n      jump\t// in\n    tag_245:\n        /* \"#utility.yul\":2135:2198   */\n      swap3\n      pop\n        /* \"#utility.yul\":2091:2208   */\n      pop\n        /* \"#utility.yul\":2247:2249   */\n      0x20\n        /* \"#utility.yul\":2273:2326   */\n      tag_246\n        /* \"#utility.yul\":2318:2325   */\n      dup6\n        /* \"#utility.yul\":2309:2315   */\n      dup3\n        /* \"#utility.yul\":2298:2307   */\n      dup7\n        /* \"#utility.yul\":2294:2316   */\n      add\n        /* \"#utility.yul\":2273:2326   */\n      tag_225\n      jump\t// in\n    tag_246:\n        /* \"#utility.yul\":2263:2326   */\n      swap2\n      pop\n        /* \"#utility.yul\":2218:2336   */\n      pop\n        /* \"#utility.yul\":1869:2343   */\n      swap3\n      pop\n      swap3\n      swap1\n      pop\n      jump\t// out\n        /* \"#utility.yul\":2349:4188   */\n    tag_51:\n        /* \"#utility.yul\":2508:2514   */\n      0x00\n        /* \"#utility.yul\":2516:2522   */\n      dup1\n        /* \"#utility.yul\":2524:2530   */\n      0x00\n        /* \"#utility.yul\":2532:2538   */\n      dup1\n        /* \"#utility.yul\":2540:2546   */\n      0x00\n        /* \"#utility.yul\":2548:2554   */\n      dup1\n        /* \"#utility.yul\":2556:2562   */\n      0x00\n        /* \"#utility.yul\":2564:2570   */\n      dup1\n        /* \"#utility.yul\":2572:2578   */\n      0x00\n        /* \"#utility.yul\":2580:2586   */\n      dup1\n        /* \"#utility.yul\":2629:2632   */\n      0x0140\n        /* \"#utility.yul\":2617:2626   */\n      dup12\n        /* \"#utility.yul\":2608:2615   */\n      dup14\n        /* \"#utility.yul\":2604:2627   */\n      sub\n        /* \"#utility.yul\":2600:2633   */\n      slt\n        /* \"#utility.yul\":2597:2717   */\n      iszero\n      tag_248\n      jumpi\n        /* \"#utility.yul\":2636:2715   */\n      tag_249\n      tag_240\n      jump\t// in\n    tag_249:\n        /* \"#utility.yul\":2597:2717   */\n    tag_248:\n        /* \"#utility.yul\":2756:2757   */\n      0x00\n        /* \"#utility.yul\":2781:2834   */\n      tag_250\n        /* \"#utility.yul\":2826:2833   */\n      dup14\n        /* \"#utility.yul\":2817:2823   */\n      dup3\n        /* \"#utility.yul\":2806:2815   */\n      dup15\n        /* \"#utility.yul\":2802:2824   */\n      add\n        /* \"#utility.yul\":2781:2834   */\n      tag_211\n      jump\t// in\n    tag_250:\n        /* \"#utility.yul\":2771:2834   */\n      swap11\n      pop\n        /* \"#utility.yul\":2727:2844   */\n      pop\n        /* \"#utility.yul\":2883:2885   */\n      0x20\n        /* \"#utility.yul\":2909:2962   */\n      tag_251\n        /* \"#utility.yul\":2954:2961   */\n      dup14\n        /* \"#utility.yul\":2945:2951   */\n      dup3\n        /* \"#utility.yul\":2934:2943   */\n      dup15\n        /* \"#utility.yul\":2930:2952   */\n      add\n        /* \"#utility.yul\":2909:2962   */\n      tag_225\n      jump\t// in\n    tag_251:\n        /* \"#utility.yul\":2899:2962   */\n      swap10\n      pop\n        /* \"#utility.yul\":2854:2972   */\n      pop\n        /* \"#utility.yul\":3011:3013   */\n      0x40\n        /* \"#utility.yul\":3037:3089   */\n      tag_252\n        /* \"#utility.yul\":3081:3088   */\n      dup14\n        /* \"#utility.yul\":3072:3078   */\n      dup3\n        /* \"#utility.yul\":3061:3070   */\n      dup15\n        /* \"#utility.yul\":3057:3079   */\n      add\n        /* \"#utility.yul\":3037:3089   */\n      tag_229\n      jump\t// in\n    tag_252:\n        /* \"#utility.yul\":3027:3089   */\n      swap9\n      pop\n        /* \"#utility.yul\":2982:3099   */\n      pop\n        /* \"#utility.yul\":3138:3140   */\n      0x60\n        /* \"#utility.yul\":3164:3215   */\n      tag_253\n        /* \"#utility.yul\":3207:3214   */\n      dup14\n        /* \"#utility.yul\":3198:3204   */\n      dup3\n        /* \"#utility.yul\":3187:3196   */\n      dup15\n        /* \"#utility.yul\":3183:3205   */\n      add\n        /* \"#utility.yul\":3164:3215   */\n      tag_233\n      jump\t// in\n    tag_253:\n        /* \"#utility.yul\":3154:3215   */\n      swap8\n      pop\n        /* \"#utility.yul\":3109:3225   */\n      pop\n        /* \"#utility.yul\":3264:3267   */\n      0x80\n        /* \"#utility.yul\":3291:3359   */\n      tag_254\n        /* \"#utility.yul\":3351:3358   */\n      dup14\n        /* \"#utility.yul\":3342:3348   */\n      dup3\n        /* \"#utility.yul\":3331:3340   */\n      dup15\n        /* \"#utility.yul\":3327:3349   */\n      add\n        /* \"#utility.yul\":3291:3359   */\n      tag_215\n      jump\t// in\n    tag_254:\n        /* \"#utility.yul\":3281:3359   */\n      swap7\n      pop\n        /* \"#utility.yul\":3235:3369   */\n      pop\n        /* \"#utility.yul\":3436:3439   */\n      0xa0\n        /* \"#utility.yul\":3425:3434   */\n      dup12\n        /* \"#utility.yul\":3421:3440   */\n      add\n        /* \"#utility.yul\":3408:3441   */\n      calldataload\n        /* \"#utility.yul\":3468:3486   */\n      0xffffffffffffffff\n        /* \"#utility.yul\":3460:3466   */\n      dup2\n        /* \"#utility.yul\":3457:3487   */\n      gt\n        /* \"#utility.yul\":3454:3571   */\n      iszero\n      tag_255\n      jumpi\n        /* \"#utility.yul\":3490:3569   */\n      tag_256\n      tag_257\n      jump\t// in\n    tag_256:\n        /* \"#utility.yul\":3454:3571   */\n    tag_255:\n        /* \"#utility.yul\":3595:3658   */\n      tag_258\n        /* \"#utility.yul\":3650:3657   */\n      dup14\n        /* \"#utility.yul\":3641:3647   */\n      dup3\n        /* \"#utility.yul\":3630:3639   */\n      dup15\n        /* \"#utility.yul\":3626:3648   */\n      add\n        /* \"#utility.yul\":3595:3658   */\n      tag_219\n      jump\t// in\n    tag_258:\n        /* \"#utility.yul\":3585:3658   */\n      swap6\n      pop\n        /* \"#utility.yul\":3379:3668   */\n      pop\n        /* \"#utility.yul\":3707:3710   */\n      0xc0\n        /* \"#utility.yul\":3734:3787   */\n      tag_259\n        /* \"#utility.yul\":3779:3786   */\n      dup14\n        /* \"#utility.yul\":3770:3776   */\n      dup3\n        /* \"#utility.yul\":3759:3768   */\n      dup15\n        /* \"#utility.yul\":3755:3777   */\n      add\n        /* \"#utility.yul\":3734:3787   */\n      tag_225\n      jump\t// in\n    tag_259:\n        /* \"#utility.yul\":3724:3787   */\n      swap5\n      pop\n        /* \"#utility.yul\":3678:3797   */\n      pop\n        /* \"#utility.yul\":3836:3839   */\n      0xe0\n        /* \"#utility.yul\":3863:3916   */\n      tag_260\n        /* \"#utility.yul\":3908:3915   */\n      dup14\n        /* \"#utility.yul\":3899:3905   */\n      dup3\n        /* \"#utility.yul\":3888:3897   */\n      dup15\n        /* \"#utility.yul\":3884:3906   */\n      add\n        /* \"#utility.yul\":3863:3916   */\n      tag_225\n      jump\t// in\n    tag_260:\n        /* \"#utility.yul\":3853:3916   */\n      swap4\n      pop\n        /* \"#utility.yul\":3807:3926   */\n      pop\n        /* \"#utility.yul\":3965:3968   */\n      0x0100\n        /* \"#utility.yul\":3992:4043   */\n      tag_261\n        /* \"#utility.yul\":4035:4042   */\n      dup14\n        /* \"#utility.yul\":4026:4032   */\n      dup3\n        /* \"#utility.yul\":4015:4024   */\n      dup15\n        /* \"#utility.yul\":4011:4033   */\n      add\n        /* \"#utility.yul\":3992:4043   */\n      tag_233\n      jump\t// in\n    tag_261:\n        /* \"#utility.yul\":3982:4043   */\n      swap3\n      pop\n        /* \"#utility.yul\":3936:4053   */\n      pop\n        /* \"#utility.yul\":4092:4095   */\n      0x0120\n        /* \"#utility.yul\":4119:4171   */\n      tag_262\n        /* \"#utility.yul\":4163:4170   */\n      dup14\n        /* \"#utility.yul\":4154:4160   */\n      dup3\n        /* \"#utility.yul\":4143:4152   */\n      dup15\n        /* \"#utility.yul\":4139:4161   */\n      add\n        /* \"#utility.yul\":4119:4171   */\n      tag_229\n      jump\t// in\n    tag_262:\n        /* \"#utility.yul\":4109:4171   */\n      swap2\n      pop\n        /* \"#utility.yul\":4063:4181   */\n      pop\n        /* \"#utility.yul\":2349:4188   */\n      swap3\n      swap6\n      swap9\n      swap12\n      swap2\n      swap5\n      swap8\n      swap11\n      pop\n      swap3\n      swap6\n      swap9\n      pop\n      jump\t// out\n        /* \"#utility.yul\":4194:5887   */\n    tag_22:\n        /* \"#utility.yul\":4344:4350   */\n      0x00\n        /* \"#utility.yul\":4352:4358   */\n      dup1\n        /* \"#utility.yul\":4360:4366   */\n      0x00\n        /* \"#utility.yul\":4368:4374   */\n      dup1\n        /* \"#utility.yul\":4376:4382   */\n      0x00\n        /* \"#utility.yul\":4384:4390   */\n      dup1\n        /* \"#utility.yul\":4392:4398   */\n      0x00\n        /* \"#utility.yul\":4400:4406   */\n      dup1\n        /* \"#utility.yul\":4408:4414   */\n      0x00\n        /* \"#utility.yul\":4457:4460   */\n      0x0120\n        /* \"#utility.yul\":4445:4454   */\n      dup11\n        /* \"#utility.yul\":4436:4443   */\n      dup13\n        /* \"#utility.yul\":4432:4455   */\n      sub\n        /* \"#utility.yul\":4428:4461   */\n      slt\n        /* \"#utility.yul\":4425:4545   */\n      iszero\n      tag_264\n      jumpi\n        /* \"#utility.yul\":4464:4543   */\n      tag_265\n      tag_240\n      jump\t// in\n    tag_265:\n        /* \"#utility.yul\":4425:4545   */\n    tag_264:\n        /* \"#utility.yul\":4584:4585   */\n      0x00\n        /* \"#utility.yul\":4609:4662   */\n      tag_266\n        /* \"#utility.yul\":4654:4661   */\n      dup13\n        /* \"#utility.yul\":4645:4651   */\n      dup3\n        /* \"#utility.yul\":4634:4643   */\n      dup14\n        /* \"#utility.yul\":4630:4652   */\n      add\n        /* \"#utility.yul\":4609:4662   */\n      tag_211\n      jump\t// in\n    tag_266:\n        /* \"#utility.yul\":4599:4662   */\n      swap10\n      pop\n        /* \"#utility.yul\":4555:4672   */\n      pop\n        /* \"#utility.yul\":4711:4713   */\n      0x20\n        /* \"#utility.yul\":4737:4789   */\n      tag_267\n        /* \"#utility.yul\":4781:4788   */\n      dup13\n        /* \"#utility.yul\":4772:4778   */\n      dup3\n        /* \"#utility.yul\":4761:4770   */\n      dup14\n        /* \"#utility.yul\":4757:4779   */\n      add\n        /* \"#utility.yul\":4737:4789   */\n      tag_229\n      jump\t// in\n    tag_267:\n        /* \"#utility.yul\":4727:4789   */\n      swap9\n      pop\n        /* \"#utility.yul\":4682:4799   */\n      pop\n        /* \"#utility.yul\":4838:4840   */\n      0x40\n        /* \"#utility.yul\":4864:4915   */\n      tag_268\n        /* \"#utility.yul\":4907:4914   */\n      dup13\n        /* \"#utility.yul\":4898:4904   */\n      dup3\n        /* \"#utility.yul\":4887:4896   */\n      dup14\n        /* \"#utility.yul\":4883:4905   */\n      add\n        /* \"#utility.yul\":4864:4915   */\n      tag_233\n      jump\t// in\n    tag_268:\n        /* \"#utility.yul\":4854:4915   */\n      swap8\n      pop\n        /* \"#utility.yul\":4809:4925   */\n      pop\n        /* \"#utility.yul\":4964:4966   */\n      0x60\n        /* \"#utility.yul\":4990:5058   */\n      tag_269\n        /* \"#utility.yul\":5050:5057   */\n      dup13\n        /* \"#utility.yul\":5041:5047   */\n      dup3\n        /* \"#utility.yul\":5030:5039   */\n      dup14\n        /* \"#utility.yul\":5026:5048   */\n      add\n        /* \"#utility.yul\":4990:5058   */\n      tag_215\n      jump\t// in\n    tag_269:\n        /* \"#utility.yul\":4980:5058   */\n      swap7\n      pop\n        /* \"#utility.yul\":4935:5068   */\n      pop\n        /* \"#utility.yul\":5135:5138   */\n      0x80\n        /* \"#utility.yul\":5124:5133   */\n      dup11\n        /* \"#utility.yul\":5120:5139   */\n      add\n        /* \"#utility.yul\":5107:5140   */\n      calldataload\n        /* \"#utility.yul\":5167:5185   */\n      0xffffffffffffffff\n        /* \"#utility.yul\":5159:5165   */\n      dup2\n        /* \"#utility.yul\":5156:5186   */\n      gt\n        /* \"#utility.yul\":5153:5270   */\n      iszero\n      tag_270\n      jumpi\n        /* \"#utility.yul\":5189:5268   */\n      tag_271\n      tag_257\n      jump\t// in\n    tag_271:\n        /* \"#utility.yul\":5153:5270   */\n    tag_270:\n        /* \"#utility.yul\":5294:5357   */\n      tag_272\n        /* \"#utility.yul\":5349:5356   */\n      dup13\n        /* \"#utility.yul\":5340:5346   */\n      dup3\n        /* \"#utility.yul\":5329:5338   */\n      dup14\n        /* \"#utility.yul\":5325:5347   */\n      add\n        /* \"#utility.yul\":5294:5357   */\n      tag_219\n      jump\t// in\n    tag_272:\n        /* \"#utility.yul\":5284:5357   */\n      swap6\n      pop\n        /* \"#utility.yul\":5078:5367   */\n      pop\n        /* \"#utility.yul\":5406:5409   */\n      0xa0\n        /* \"#utility.yul\":5433:5486   */\n      tag_273\n        /* \"#utility.yul\":5478:5485   */\n      dup13\n        /* \"#utility.yul\":5469:5475   */\n      dup3\n        /* \"#utility.yul\":5458:5467   */\n      dup14\n        /* \"#utility.yul\":5454:5476   */\n      add\n        /* \"#utility.yul\":5433:5486   */\n      tag_225\n      jump\t// in\n    tag_273:\n        /* \"#utility.yul\":5423:5486   */\n      swap5\n      pop\n        /* \"#utility.yul\":5377:5496   */\n      pop\n        /* \"#utility.yul\":5535:5538   */\n      0xc0\n        /* \"#utility.yul\":5562:5615   */\n      tag_274\n        /* \"#utility.yul\":5607:5614   */\n      dup13\n        /* \"#utility.yul\":5598:5604   */\n      dup3\n        /* \"#utility.yul\":5587:5596   */\n      dup14\n        /* \"#utility.yul\":5583:5605   */\n      add\n        /* \"#utility.yul\":5562:5615   */\n      tag_225\n      jump\t// in\n    tag_274:\n        /* \"#utility.yul\":5552:5615   */\n      swap4\n      pop\n        /* \"#utility.yul\":5506:5625   */\n      pop\n        /* \"#utility.yul\":5664:5667   */\n      0xe0\n        /* \"#utility.yul\":5691:5742   */\n      tag_275\n        /* \"#utility.yul\":5734:5741   */\n      dup13\n        /* \"#utility.yul\":5725:5731   */\n      dup3\n        /* \"#utility.yul\":5714:5723   */\n      dup14\n        /* \"#utility.yul\":5710:5732   */\n      add\n        /* \"#utility.yul\":5691:5742   */\n      tag_233\n      jump\t// in\n    tag_275:\n        /* \"#utility.yul\":5681:5742   */\n      swap3\n      pop\n        /* \"#utility.yul\":5635:5752   */\n      pop\n        /* \"#utility.yul\":5791:5794   */\n      0x0100\n        /* \"#utility.yul\":5818:5870   */\n      tag_276\n        /* \"#utility.yul\":5862:5869   */\n      dup13\n        /* \"#utility.yul\":5853:5859   */\n      dup3\n        /* \"#utility.yul\":5842:5851   */\n      dup14\n        /* \"#utility.yul\":5838:5860   */\n      add\n        /* \"#utility.yul\":5818:5870   */\n      tag_229\n      jump\t// in\n    tag_276:\n        /* \"#utility.yul\":5808:5870   */\n      swap2\n      pop\n        /* \"#utility.yul\":5762:5880   */\n      pop\n        /* \"#utility.yul\":4194:5887   */\n      swap3\n      swap6\n      swap9\n      pop\n      swap3\n      swap6\n      swap9\n      pop\n      swap3\n      swap6\n      swap9\n      jump\t// out\n        /* \"#utility.yul\":5893:6220   */\n    tag_65:\n        /* \"#utility.yul\":5951:5957   */\n      0x00\n        /* \"#utility.yul\":6000:6002   */\n      0x20\n        /* \"#utility.yul\":5988:5997   */\n      dup3\n        /* \"#utility.yul\":5979:5986   */\n      dup5\n        /* \"#utility.yul\":5975:5998   */\n      sub\n        /* \"#utility.yul\":5971:6003   */\n      slt\n        /* \"#utility.yul\":5968:6087   */\n      iszero\n      tag_278\n      jumpi\n        /* \"#utility.yul\":6006:6085   */\n      tag_279\n      tag_240\n      jump\t// in\n    tag_279:\n        /* \"#utility.yul\":5968:6087   */\n    tag_278:\n        /* \"#utility.yul\":6126:6127   */\n      0x00\n        /* \"#utility.yul\":6151:6203   */\n      tag_280\n        /* \"#utility.yul\":6195:6202   */\n      dup5\n        /* \"#utility.yul\":6186:6192   */\n      dup3\n        /* \"#utility.yul\":6175:6184   */\n      dup6\n        /* \"#utility.yul\":6171:6193   */\n      add\n        /* \"#utility.yul\":6151:6203   */\n      tag_229\n      jump\t// in\n    tag_280:\n        /* \"#utility.yul\":6141:6203   */\n      swap2\n      pop\n        /* \"#utility.yul\":6097:6213   */\n      pop\n        /* \"#utility.yul\":5893:6220   */\n      swap3\n      swap2\n      pop\n      pop\n      jump\t// out\n        /* \"#utility.yul\":6226:6334   */\n    tag_281:\n        /* \"#utility.yul\":6303:6327   */\n      tag_283\n        /* \"#utility.yul\":6321:6326   */\n      dup2\n        /* \"#utility.yul\":6303:6327   */\n      tag_284\n      jump\t// in\n    tag_283:\n        /* \"#utility.yul\":6298:6301   */\n      dup3\n        /* \"#utility.yul\":6291:6328   */\n      mstore\n        /* \"#utility.yul\":6226:6334   */\n      pop\n      pop\n      jump\t// out\n        /* \"#utility.yul\":6340:6458   */\n    tag_285:\n        /* \"#utility.yul\":6427:6451   */\n      tag_287\n        /* \"#utility.yul\":6445:6450   */\n      dup2\n        /* \"#utility.yul\":6427:6451   */\n      tag_284\n      jump\t// in\n    tag_287:\n        /* \"#utility.yul\":6422:6425   */\n      dup3\n        /* \"#utility.yul\":6415:6452   */\n      mstore\n        /* \"#utility.yul\":6340:6458   */\n      pop\n      pop\n      jump\t// out\n        /* \"#utility.yul\":6464:6573   */\n    tag_288:\n        /* \"#utility.yul\":6545:6566   */\n      tag_290\n        /* \"#utility.yul\":6560:6565   */\n      dup2\n        /* \"#utility.yul\":6545:6566   */\n      tag_291\n      jump\t// in\n    tag_290:\n        /* \"#utility.yul\":6540:6543   */\n      dup3\n        /* \"#utility.yul\":6533:6567   */\n      mstore\n        /* \"#utility.yul\":6464:6573   */\n      pop\n      pop\n      jump\t// out\n        /* \"#utility.yul\":6579:6736   */\n    tag_292:\n        /* \"#utility.yul\":6679:6729   */\n      tag_294\n        /* \"#utility.yul\":6723:6728   */\n      dup2\n        /* \"#utility.yul\":6679:6729   */\n      tag_295\n      jump\t// in\n    tag_294:\n        /* \"#utility.yul\":6674:6677   */\n      dup3\n        /* \"#utility.yul\":6667:6730   */\n      mstore\n        /* \"#utility.yul\":6579:6736   */\n      pop\n      pop\n      jump\t// out\n        /* \"#utility.yul\":6742:6883   */\n    tag_296:\n        /* \"#utility.yul\":6829:6876   */\n      tag_298\n        /* \"#utility.yul\":6870:6875   */\n      dup2\n        /* \"#utility.yul\":6829:6876   */\n      tag_299\n      jump\t// in\n    tag_298:\n        /* \"#utility.yul\":6824:6827   */\n      dup3\n        /* \"#utility.yul\":6817:6877   */\n      mstore\n        /* \"#utility.yul\":6742:6883   */\n      pop\n      pop\n      jump\t// out\n        /* \"#utility.yul\":6889:7032   */\n    tag_300:\n        /* \"#utility.yul\":6982:7025   */\n      tag_302\n        /* \"#utility.yul\":7019:7024   */\n      dup2\n        /* \"#utility.yul\":6982:7025   */\n      tag_303\n      jump\t// in\n    tag_302:\n        /* \"#utility.yul\":6977:6980   */\n      dup3\n        /* \"#utility.yul\":6970:7026   */\n      mstore\n        /* \"#utility.yul\":6889:7032   */\n      pop\n      pop\n      jump\t// out\n        /* \"#utility.yul\":7038:7402   */\n    tag_304:\n        /* \"#utility.yul\":7126:7129   */\n      0x00\n        /* \"#utility.yul\":7154:7193   */\n      tag_306\n        /* \"#utility.yul\":7187:7192   */\n      dup3\n        /* \"#utility.yul\":7154:7193   */\n      tag_307\n      jump\t// in\n    tag_306:\n        /* \"#utility.yul\":7209:7280   */\n      tag_308\n        /* \"#utility.yul\":7273:7279   */\n      dup2\n        /* \"#utility.yul\":7268:7271   */\n      dup6\n        /* \"#utility.yul\":7209:7280   */\n      tag_309\n      jump\t// in\n    tag_308:\n        /* \"#utility.yul\":7202:7280   */\n      swap4\n      pop\n        /* \"#utility.yul\":7289:7341   */\n      tag_310\n        /* \"#utility.yul\":7334:7340   */\n      dup2\n        /* \"#utility.yul\":7329:7332   */\n      dup6\n        /* \"#utility.yul\":7322:7326   */\n      0x20\n        /* \"#utility.yul\":7315:7320   */\n      dup7\n        /* \"#utility.yul\":7311:7327   */\n      add\n        /* \"#utility.yul\":7289:7341   */\n      tag_311\n      jump\t// in\n    tag_310:\n        /* \"#utility.yul\":7366:7395   */\n      tag_312\n        /* \"#utility.yul\":7388:7394   */\n      dup2\n        /* \"#utility.yul\":7366:7395   */\n      tag_313\n      jump\t// in\n    tag_312:\n        /* \"#utility.yul\":7361:7364   */\n      dup5\n        /* \"#utility.yul\":7357:7396   */\n      add\n        /* \"#utility.yul\":7350:7396   */\n      swap2\n      pop\n        /* \"#utility.yul\":7130:7402   */\n      pop\n        /* \"#utility.yul\":7038:7402   */\n      swap3\n      swap2\n      pop\n      pop\n      jump\t// out\n        /* \"#utility.yul\":7408:7774   */\n    tag_314:\n        /* \"#utility.yul\":7550:7553   */\n      0x00\n        /* \"#utility.yul\":7571:7638   */\n      tag_316\n        /* \"#utility.yul\":7635:7637   */\n      0x20\n        /* \"#utility.yul\":7630:7633   */\n      dup4\n        /* \"#utility.yul\":7571:7638   */\n      tag_309\n      jump\t// in\n    tag_316:\n        /* \"#utility.yul\":7564:7638   */\n      swap2\n      pop\n        /* \"#utility.yul\":7647:7740   */\n      tag_317\n        /* \"#utility.yul\":7736:7739   */\n      dup3\n        /* \"#utility.yul\":7647:7740   */\n      tag_318\n      jump\t// in\n    tag_317:\n        /* \"#utility.yul\":7765:7767   */\n      0x20\n        /* \"#utility.yul\":7760:7763   */\n      dup3\n        /* \"#utility.yul\":7756:7768   */\n      add\n        /* \"#utility.yul\":7749:7768   */\n      swap1\n      pop\n        /* \"#utility.yul\":7408:7774   */\n      swap2\n      swap1\n      pop\n      jump\t// out\n        /* \"#utility.yul\":7780:8146   */\n    tag_319:\n        /* \"#utility.yul\":7922:7925   */\n      0x00\n        /* \"#utility.yul\":7943:8010   */\n      tag_321\n        /* \"#utility.yul\":8007:8009   */\n      0x12\n        /* \"#utility.yul\":8002:8005   */\n      dup4\n        /* \"#utility.yul\":7943:8010   */\n      tag_309\n      jump\t// in\n    tag_321:\n        /* \"#utility.yul\":7936:8010   */\n      swap2\n      pop\n        /* \"#utility.yul\":8019:8112   */\n      tag_322\n        /* \"#utility.yul\":8108:8111   */\n      dup3\n        /* \"#utility.yul\":8019:8112   */\n      tag_323\n      jump\t// in\n    tag_322:\n        /* \"#utility.yul\":8137:8139   */\n      0x20\n        /* \"#utility.yul\":8132:8135   */\n      dup3\n        /* \"#utility.yul\":8128:8140   */\n      add\n        /* \"#utility.yul\":8121:8140   */\n      swap1\n      pop\n        /* \"#utility.yul\":7780:8146   */\n      swap2\n      swap1\n      pop\n      jump\t// out\n        /* \"#utility.yul\":8152:8518   */\n    tag_324:\n        /* \"#utility.yul\":8294:8297   */\n      0x00\n        /* \"#utility.yul\":8315:8382   */\n      tag_326\n        /* \"#utility.yul\":8379:8381   */\n      0x20\n        /* \"#utility.yul\":8374:8377   */\n      dup4\n        /* \"#utility.yul\":8315:8382   */\n      tag_309\n      jump\t// in\n    tag_326:\n        /* \"#utility.yul\":8308:8382   */\n      swap2\n      pop\n        /* \"#utility.yul\":8391:8484   */\n      tag_327\n        /* \"#utility.yul\":8480:8483   */\n      dup3\n        /* \"#utility.yul\":8391:8484   */\n      tag_328\n      jump\t// in\n    tag_327:\n        /* \"#utility.yul\":8509:8511   */\n      0x20\n        /* \"#utility.yul\":8504:8507   */\n      dup3\n        /* \"#utility.yul\":8500:8512   */\n      add\n        /* \"#utility.yul\":8493:8512   */\n      swap1\n      pop\n        /* \"#utility.yul\":8152:8518   */\n      swap2\n      swap1\n      pop\n      jump\t// out\n        /* \"#utility.yul\":8584:9268   */\n    tag_329:\n        /* \"#utility.yul\":8721:8725   */\n      0x60\n        /* \"#utility.yul\":8716:8719   */\n      dup3\n        /* \"#utility.yul\":8712:8726   */\n      add\n        /* \"#utility.yul\":8809:8813   */\n      0x00\n        /* \"#utility.yul\":8802:8807   */\n      dup3\n        /* \"#utility.yul\":8798:8814   */\n      add\n        /* \"#utility.yul\":8792:8815   */\n      mload\n        /* \"#utility.yul\":8828:8891   */\n      tag_331\n        /* \"#utility.yul\":8885:8889   */\n      0x00\n        /* \"#utility.yul\":8880:8883   */\n      dup6\n        /* \"#utility.yul\":8876:8890   */\n      add\n        /* \"#utility.yul\":8862:8874   */\n      dup3\n        /* \"#utility.yul\":8828:8891   */\n      tag_332\n      jump\t// in\n    tag_331:\n        /* \"#utility.yul\":8736:8901   */\n      pop\n        /* \"#utility.yul\":8984:8988   */\n      0x20\n        /* \"#utility.yul\":8977:8982   */\n      dup3\n        /* \"#utility.yul\":8973:8989   */\n      add\n        /* \"#utility.yul\":8967:8990   */\n      mload\n        /* \"#utility.yul\":9003:9066   */\n      tag_333\n        /* \"#utility.yul\":9060:9064   */\n      0x20\n        /* \"#utility.yul\":9055:9058   */\n      dup6\n        /* \"#utility.yul\":9051:9065   */\n      add\n        /* \"#utility.yul\":9037:9049   */\n      dup3\n        /* \"#utility.yul\":9003:9066   */\n      tag_281\n      jump\t// in\n    tag_333:\n        /* \"#utility.yul\":8911:9076   */\n      pop\n        /* \"#utility.yul\":9159:9163   */\n      0x40\n        /* \"#utility.yul\":9152:9157   */\n      dup3\n        /* \"#utility.yul\":9148:9164   */\n      add\n        /* \"#utility.yul\":9142:9165   */\n      mload\n        /* \"#utility.yul\":9178:9251   */\n      tag_334\n        /* \"#utility.yul\":9245:9249   */\n      0x40\n        /* \"#utility.yul\":9240:9243   */\n      dup6\n        /* \"#utility.yul\":9236:9250   */\n      add\n        /* \"#utility.yul\":9222:9234   */\n      dup3\n        /* \"#utility.yul\":9178:9251   */\n      tag_296\n      jump\t// in\n    tag_334:\n        /* \"#utility.yul\":9086:9261   */\n      pop\n        /* \"#utility.yul\":8690:9268   */\n      pop\n        /* \"#utility.yul\":8584:9268   */\n      pop\n      pop\n      jump\t// out\n        /* \"#utility.yul\":9274:9389   */\n    tag_335:\n        /* \"#utility.yul\":9359:9382   */\n      tag_337\n        /* \"#utility.yul\":9376:9381   */\n      dup2\n        /* \"#utility.yul\":9359:9382   */\n      tag_338\n      jump\t// in\n    tag_337:\n        /* \"#utility.yul\":9354:9357   */\n      dup3\n        /* \"#utility.yul\":9347:9383   */\n      mstore\n        /* \"#utility.yul\":9274:9389   */\n      pop\n      pop\n      jump\t// out\n        /* \"#utility.yul\":9395:9503   */\n    tag_332:\n        /* \"#utility.yul\":9472:9496   */\n      tag_340\n        /* \"#utility.yul\":9490:9495   */\n      dup2\n        /* \"#utility.yul\":9472:9496   */\n      tag_341\n      jump\t// in\n    tag_340:\n        /* \"#utility.yul\":9467:9470   */\n      dup3\n        /* \"#utility.yul\":9460:9497   */\n      mstore\n        /* \"#utility.yul\":9395:9503   */\n      pop\n      pop\n      jump\t// out\n        /* \"#utility.yul\":9509:9627   */\n    tag_342:\n        /* \"#utility.yul\":9596:9620   */\n      tag_344\n        /* \"#utility.yul\":9614:9619   */\n      dup2\n        /* \"#utility.yul\":9596:9620   */\n      tag_341\n      jump\t// in\n    tag_344:\n        /* \"#utility.yul\":9591:9594   */\n      dup3\n        /* \"#utility.yul\":9584:9621   */\n      mstore\n        /* \"#utility.yul\":9509:9627   */\n      pop\n      pop\n      jump\t// out\n        /* \"#utility.yul\":9633:9762   */\n    tag_345:\n        /* \"#utility.yul\":9719:9755   */\n      tag_347\n        /* \"#utility.yul\":9749:9754   */\n      dup2\n        /* \"#utility.yul\":9719:9755   */\n      tag_348\n      jump\t// in\n    tag_347:\n        /* \"#utility.yul\":9714:9717   */\n      dup3\n        /* \"#utility.yul\":9707:9756   */\n      mstore\n        /* \"#utility.yul\":9633:9762   */\n      pop\n      pop\n      jump\t// out\n        /* \"#utility.yul\":9768:9883   */\n    tag_349:\n        /* \"#utility.yul\":9853:9876   */\n      tag_351\n        /* \"#utility.yul\":9870:9875   */\n      dup2\n        /* \"#utility.yul\":9853:9876   */\n      tag_352\n      jump\t// in\n    tag_351:\n        /* \"#utility.yul\":9848:9851   */\n      dup3\n        /* \"#utility.yul\":9841:9877   */\n      mstore\n        /* \"#utility.yul\":9768:9883   */\n      pop\n      pop\n      jump\t// out\n        /* \"#utility.yul\":9889:10016   */\n    tag_353:\n        /* \"#utility.yul\":9974:10009   */\n      tag_355\n        /* \"#utility.yul\":10003:10008   */\n      dup2\n        /* \"#utility.yul\":9974:10009   */\n      tag_356\n      jump\t// in\n    tag_355:\n        /* \"#utility.yul\":9969:9972   */\n      dup3\n        /* \"#utility.yul\":9962:10010   */\n      mstore\n        /* \"#utility.yul\":9889:10016   */\n      pop\n      pop\n      jump\t// out\n        /* \"#utility.yul\":10022:10134   */\n    tag_357:\n        /* \"#utility.yul\":10105:10127   */\n      tag_359\n        /* \"#utility.yul\":10121:10126   */\n      dup2\n        /* \"#utility.yul\":10105:10127   */\n      tag_360\n      jump\t// in\n    tag_359:\n        /* \"#utility.yul\":10100:10103   */\n      dup3\n        /* \"#utility.yul\":10093:10128   */\n      mstore\n        /* \"#utility.yul\":10022:10134   */\n      pop\n      pop\n      jump\t// out\n        /* \"#utility.yul\":10140:10679   */\n    tag_103:\n        /* \"#utility.yul\":10310:10314   */\n      0x00\n        /* \"#utility.yul\":10348:10351   */\n      0x80\n        /* \"#utility.yul\":10337:10346   */\n      dup3\n        /* \"#utility.yul\":10333:10352   */\n      add\n        /* \"#utility.yul\":10325:10352   */\n      swap1\n      pop\n        /* \"#utility.yul\":10362:10433   */\n      tag_362\n        /* \"#utility.yul\":10430:10431   */\n      0x00\n        /* \"#utility.yul\":10419:10428   */\n      dup4\n        /* \"#utility.yul\":10415:10432   */\n      add\n        /* \"#utility.yul\":10406:10412   */\n      dup8\n        /* \"#utility.yul\":10362:10433   */\n      tag_285\n      jump\t// in\n    tag_362:\n        /* \"#utility.yul\":10443:10511   */\n      tag_363\n        /* \"#utility.yul\":10507:10509   */\n      0x20\n        /* \"#utility.yul\":10496:10505   */\n      dup4\n        /* \"#utility.yul\":10492:10510   */\n      add\n        /* \"#utility.yul\":10483:10489   */\n      dup7\n        /* \"#utility.yul\":10443:10511   */\n      tag_357\n      jump\t// in\n    tag_363:\n        /* \"#utility.yul\":10521:10592   */\n      tag_364\n        /* \"#utility.yul\":10588:10590   */\n      0x40\n        /* \"#utility.yul\":10577:10586   */\n      dup4\n        /* \"#utility.yul\":10573:10591   */\n      add\n        /* \"#utility.yul\":10564:10570   */\n      dup6\n        /* \"#utility.yul\":10521:10592   */\n      tag_345\n      jump\t// in\n    tag_364:\n        /* \"#utility.yul\":10602:10672   */\n      tag_365\n        /* \"#utility.yul\":10668:10670   */\n      0x60\n        /* \"#utility.yul\":10657:10666   */\n      dup4\n        /* \"#utility.yul\":10653:10671   */\n      add\n        /* \"#utility.yul\":10644:10650   */\n      dup5\n        /* \"#utility.yul\":10602:10672   */\n      tag_353\n      jump\t// in\n    tag_365:\n        /* \"#utility.yul\":10140:10679   */\n      swap6\n      swap5\n      pop\n      pop\n      pop\n      pop\n      pop\n      jump\t// out\n        /* \"#utility.yul\":10685:10895   */\n    tag_84:\n        /* \"#utility.yul\":10772:10776   */\n      0x00\n        /* \"#utility.yul\":10810:10812   */\n      0x20\n        /* \"#utility.yul\":10799:10808   */\n      dup3\n        /* \"#utility.yul\":10795:10813   */\n      add\n        /* \"#utility.yul\":10787:10813   */\n      swap1\n      pop\n        /* \"#utility.yul\":10823:10888   */\n      tag_367\n        /* \"#utility.yul\":10885:10886   */\n      0x00\n        /* \"#utility.yul\":10874:10883   */\n      dup4\n        /* \"#utility.yul\":10870:10887   */\n      add\n        /* \"#utility.yul\":10861:10867   */\n      dup5\n        /* \"#utility.yul\":10823:10888   */\n      tag_288\n      jump\t// in\n    tag_367:\n        /* \"#utility.yul\":10685:10895   */\n      swap3\n      swap2\n      pop\n      pop\n      jump\t// out\n        /* \"#utility.yul\":10901:11854   */\n    tag_79:\n        /* \"#utility.yul\":11172:11176   */\n      0x00\n        /* \"#utility.yul\":11210:11213   */\n      0xc0\n        /* \"#utility.yul\":11199:11208   */\n      dup3\n        /* \"#utility.yul\":11195:11214   */\n      add\n        /* \"#utility.yul\":11187:11214   */\n      swap1\n      pop\n        /* \"#utility.yul\":11224:11289   */\n      tag_369\n        /* \"#utility.yul\":11286:11287   */\n      0x00\n        /* \"#utility.yul\":11275:11284   */\n      dup4\n        /* \"#utility.yul\":11271:11288   */\n      add\n        /* \"#utility.yul\":11262:11268   */\n      dup10\n        /* \"#utility.yul\":11224:11289   */\n      tag_288\n      jump\t// in\n    tag_369:\n        /* \"#utility.yul\":11299:11371   */\n      tag_370\n        /* \"#utility.yul\":11367:11369   */\n      0x20\n        /* \"#utility.yul\":11356:11365   */\n      dup4\n        /* \"#utility.yul\":11352:11370   */\n      add\n        /* \"#utility.yul\":11343:11349   */\n      dup9\n        /* \"#utility.yul\":11299:11371   */\n      tag_285\n      jump\t// in\n    tag_370:\n        /* \"#utility.yul\":11381:11451   */\n      tag_371\n        /* \"#utility.yul\":11447:11449   */\n      0x40\n        /* \"#utility.yul\":11436:11445   */\n      dup4\n        /* \"#utility.yul\":11432:11450   */\n      add\n        /* \"#utility.yul\":11423:11429   */\n      dup8\n        /* \"#utility.yul\":11381:11451   */\n      tag_335\n      jump\t// in\n    tag_371:\n        /* \"#utility.yul\":11461:11539   */\n      tag_372\n        /* \"#utility.yul\":11535:11537   */\n      0x60\n        /* \"#utility.yul\":11524:11533   */\n      dup4\n        /* \"#utility.yul\":11520:11538   */\n      add\n        /* \"#utility.yul\":11511:11517   */\n      dup7\n        /* \"#utility.yul\":11461:11539   */\n      tag_300\n      jump\t// in\n    tag_372:\n        /* \"#utility.yul\":11587:11596   */\n      dup2\n        /* \"#utility.yul\":11581:11585   */\n      dup2\n        /* \"#utility.yul\":11577:11597   */\n      sub\n        /* \"#utility.yul\":11571:11574   */\n      0x80\n        /* \"#utility.yul\":11560:11569   */\n      dup4\n        /* \"#utility.yul\":11556:11575   */\n      add\n        /* \"#utility.yul\":11549:11598   */\n      mstore\n        /* \"#utility.yul\":11615:11693   */\n      tag_373\n        /* \"#utility.yul\":11688:11692   */\n      dup2\n        /* \"#utility.yul\":11679:11685   */\n      dup6\n        /* \"#utility.yul\":11615:11693   */\n      tag_304\n      jump\t// in\n    tag_373:\n        /* \"#utility.yul\":11607:11693   */\n      swap1\n      pop\n        /* \"#utility.yul\":11741:11750   */\n      dup2\n        /* \"#utility.yul\":11735:11739   */\n      dup2\n        /* \"#utility.yul\":11731:11751   */\n      sub\n        /* \"#utility.yul\":11725:11728   */\n      0xa0\n        /* \"#utility.yul\":11714:11723   */\n      dup4\n        /* \"#utility.yul\":11710:11729   */\n      add\n        /* \"#utility.yul\":11703:11752   */\n      mstore\n        /* \"#utility.yul\":11769:11847   */\n      tag_374\n        /* \"#utility.yul\":11842:11846   */\n      dup2\n        /* \"#utility.yul\":11833:11839   */\n      dup5\n        /* \"#utility.yul\":11769:11847   */\n      tag_304\n      jump\t// in\n    tag_374:\n        /* \"#utility.yul\":11761:11847   */\n      swap1\n      pop\n        /* \"#utility.yul\":10901:11854   */\n      swap8\n      swap7\n      pop\n      pop\n      pop\n      pop\n      pop\n      pop\n      pop\n      jump\t// out\n        /* \"#utility.yul\":11860:12373   */\n    tag_35:\n        /* \"#utility.yul\":12019:12023   */\n      0x00\n        /* \"#utility.yul\":12057:12059   */\n      0x60\n        /* \"#utility.yul\":12046:12055   */\n      dup3\n        /* \"#utility.yul\":12042:12060   */\n      add\n        /* \"#utility.yul\":12034:12060   */\n      swap1\n      pop\n        /* \"#utility.yul\":12070:12135   */\n      tag_376\n        /* \"#utility.yul\":12132:12133   */\n      0x00\n        /* \"#utility.yul\":12121:12130   */\n      dup4\n        /* \"#utility.yul\":12117:12134   */\n      add\n        /* \"#utility.yul\":12108:12114   */\n      dup7\n        /* \"#utility.yul\":12070:12135   */\n      tag_288\n      jump\t// in\n    tag_376:\n        /* \"#utility.yul\":12182:12191   */\n      dup2\n        /* \"#utility.yul\":12176:12180   */\n      dup2\n        /* \"#utility.yul\":12172:12192   */\n      sub\n        /* \"#utility.yul\":12167:12169   */\n      0x20\n        /* \"#utility.yul\":12156:12165   */\n      dup4\n        /* \"#utility.yul\":12152:12170   */\n      add\n        /* \"#utility.yul\":12145:12193   */\n      mstore\n        /* \"#utility.yul\":12210:12288   */\n      tag_377\n        /* \"#utility.yul\":12283:12287   */\n      dup2\n        /* \"#utility.yul\":12274:12280   */\n      dup6\n        /* \"#utility.yul\":12210:12288   */\n      tag_304\n      jump\t// in\n    tag_377:\n        /* \"#utility.yul\":12202:12288   */\n      swap1\n      pop\n        /* \"#utility.yul\":12298:12366   */\n      tag_378\n        /* \"#utility.yul\":12362:12364   */\n      0x40\n        /* \"#utility.yul\":12351:12360   */\n      dup4\n        /* \"#utility.yul\":12347:12365   */\n      add\n        /* \"#utility.yul\":12338:12344   */\n      dup5\n        /* \"#utility.yul\":12298:12366   */\n      tag_357\n      jump\t// in\n    tag_378:\n        /* \"#utility.yul\":11860:12373   */\n      swap5\n      swap4\n      pop\n      pop\n      pop\n      pop\n      jump\t// out\n        /* \"#utility.yul\":12379:13003   */\n    tag_48:\n        /* \"#utility.yul\":12566:12570   */\n      0x00\n        /* \"#utility.yul\":12604:12607   */\n      0x80\n        /* \"#utility.yul\":12593:12602   */\n      dup3\n        /* \"#utility.yul\":12589:12608   */\n      add\n        /* \"#utility.yul\":12581:12608   */\n      swap1\n      pop\n        /* \"#utility.yul\":12618:12683   */\n      tag_380\n        /* \"#utility.yul\":12680:12681   */\n      0x00\n        /* \"#utility.yul\":12669:12678   */\n      dup4\n        /* \"#utility.yul\":12665:12682   */\n      add\n        /* \"#utility.yul\":12656:12662   */\n      dup8\n        /* \"#utility.yul\":12618:12683   */\n      tag_288\n      jump\t// in\n    tag_380:\n        /* \"#utility.yul\":12693:12761   */\n      tag_381\n        /* \"#utility.yul\":12757:12759   */\n      0x20\n        /* \"#utility.yul\":12746:12755   */\n      dup4\n        /* \"#utility.yul\":12742:12760   */\n      add\n        /* \"#utility.yul\":12733:12739   */\n      dup7\n        /* \"#utility.yul\":12693:12761   */\n      tag_357\n      jump\t// in\n    tag_381:\n        /* \"#utility.yul\":12771:12843   */\n      tag_382\n        /* \"#utility.yul\":12839:12841   */\n      0x40\n        /* \"#utility.yul\":12828:12837   */\n      dup4\n        /* \"#utility.yul\":12824:12842   */\n      add\n        /* \"#utility.yul\":12815:12821   */\n      dup6\n        /* \"#utility.yul\":12771:12843   */\n      tag_342\n      jump\t// in\n    tag_382:\n        /* \"#utility.yul\":12890:12899   */\n      dup2\n        /* \"#utility.yul\":12884:12888   */\n      dup2\n        /* \"#utility.yul\":12880:12900   */\n      sub\n        /* \"#utility.yul\":12875:12877   */\n      0x60\n        /* \"#utility.yul\":12864:12873   */\n      dup4\n        /* \"#utility.yul\":12860:12878   */\n      add\n        /* \"#utility.yul\":12853:12901   */\n      mstore\n        /* \"#utility.yul\":12918:12996   */\n      tag_383\n        /* \"#utility.yul\":12991:12995   */\n      dup2\n        /* \"#utility.yul\":12982:12988   */\n      dup5\n        /* \"#utility.yul\":12918:12996   */\n      tag_304\n      jump\t// in\n    tag_383:\n        /* \"#utility.yul\":12910:12996   */\n      swap1\n      pop\n        /* \"#utility.yul\":12379:13003   */\n      swap6\n      swap5\n      pop\n      pop\n      pop\n      pop\n      pop\n      jump\t// out\n        /* \"#utility.yul\":13009:13428   */\n    tag_88:\n        /* \"#utility.yul\":13175:13179   */\n      0x00\n        /* \"#utility.yul\":13213:13215   */\n      0x20\n        /* \"#utility.yul\":13202:13211   */\n      dup3\n        /* \"#utility.yul\":13198:13216   */\n      add\n        /* \"#utility.yul\":13190:13216   */\n      swap1\n      pop\n        /* \"#utility.yul\":13262:13271   */\n      dup2\n        /* \"#utility.yul\":13256:13260   */\n      dup2\n        /* \"#utility.yul\":13252:13272   */\n      sub\n        /* \"#utility.yul\":13248:13249   */\n      0x00\n        /* \"#utility.yul\":13237:13246   */\n      dup4\n        /* \"#utility.yul\":13233:13250   */\n      add\n        /* \"#utility.yul\":13226:13273   */\n      mstore\n        /* \"#utility.yul\":13290:13421   */\n      tag_385\n        /* \"#utility.yul\":13416:13420   */\n      dup2\n        /* \"#utility.yul\":13290:13421   */\n      tag_314\n      jump\t// in\n    tag_385:\n        /* \"#utility.yul\":13282:13421   */\n      swap1\n      pop\n        /* \"#utility.yul\":13009:13428   */\n      swap2\n      swap1\n      pop\n      jump\t// out\n        /* \"#utility.yul\":13434:13853   */\n    tag_92:\n        /* \"#utility.yul\":13600:13604   */\n      0x00\n        /* \"#utility.yul\":13638:13640   */\n      0x20\n        /* \"#utility.yul\":13627:13636   */\n      dup3\n        /* \"#utility.yul\":13623:13641   */\n      add\n        /* \"#utility.yul\":13615:13641   */\n      swap1\n      pop\n        /* \"#utility.yul\":13687:13696   */\n      dup2\n        /* \"#utility.yul\":13681:13685   */\n      dup2\n        /* \"#utility.yul\":13677:13697   */\n      sub\n        /* \"#utility.yul\":13673:13674   */\n      0x00\n        /* \"#utility.yul\":13662:13671   */\n      dup4\n        /* \"#utility.yul\":13658:13675   */\n      add\n        /* \"#utility.yul\":13651:13698   */\n      mstore\n        /* \"#utility.yul\":13715:13846   */\n      tag_387\n        /* \"#utility.yul\":13841:13845   */\n      dup2\n        /* \"#utility.yul\":13715:13846   */\n      tag_319\n      jump\t// in\n    tag_387:\n        /* \"#utility.yul\":13707:13846   */\n      swap1\n      pop\n        /* \"#utility.yul\":13434:13853   */\n      swap2\n      swap1\n      pop\n      jump\t// out\n        /* \"#utility.yul\":13859:14278   */\n    tag_139:\n        /* \"#utility.yul\":14025:14029   */\n      0x00\n        /* \"#utility.yul\":14063:14065   */\n      0x20\n        /* \"#utility.yul\":14052:14061   */\n      dup3\n        /* \"#utility.yul\":14048:14066   */\n      add\n        /* \"#utility.yul\":14040:14066   */\n      swap1\n      pop\n        /* \"#utility.yul\":14112:14121   */\n      dup2\n        /* \"#utility.yul\":14106:14110   */\n      dup2\n        /* \"#utility.yul\":14102:14122   */\n      sub\n        /* \"#utility.yul\":14098:14099   */\n      0x00\n        /* \"#utility.yul\":14087:14096   */\n      dup4\n        /* \"#utility.yul\":14083:14100   */\n      add\n        /* \"#utility.yul\":14076:14123   */\n      mstore\n        /* \"#utility.yul\":14140:14271   */\n      tag_389\n        /* \"#utility.yul\":14266:14270   */\n      dup2\n        /* \"#utility.yul\":14140:14271   */\n      tag_324\n      jump\t// in\n    tag_389:\n        /* \"#utility.yul\":14132:14271   */\n      swap1\n      pop\n        /* \"#utility.yul\":13859:14278   */\n      swap2\n      swap1\n      pop\n      jump\t// out\n        /* \"#utility.yul\":14284:14506   */\n    tag_54:\n        /* \"#utility.yul\":14377:14381   */\n      0x00\n        /* \"#utility.yul\":14415:14417   */\n      0x20\n        /* \"#utility.yul\":14404:14413   */\n      dup3\n        /* \"#utility.yul\":14400:14418   */\n      add\n        /* \"#utility.yul\":14392:14418   */\n      swap1\n      pop\n        /* \"#utility.yul\":14428:14499   */\n      tag_391\n        /* \"#utility.yul\":14496:14497   */\n      0x00\n        /* \"#utility.yul\":14485:14494   */\n      dup4\n        /* \"#utility.yul\":14481:14498   */\n      add\n        /* \"#utility.yul\":14472:14478   */\n      dup5\n        /* \"#utility.yul\":14428:14499   */\n      tag_342\n      jump\t// in\n    tag_391:\n        /* \"#utility.yul\":14284:14506   */\n      swap3\n      swap2\n      pop\n      pop\n      jump\t// out\n        /* \"#utility.yul\":14512:16017   */\n    tag_29:\n        /* \"#utility.yul\":14947:14951   */\n      0x00\n        /* \"#utility.yul\":14985:14988   */\n      0x01a0\n        /* \"#utility.yul\":14974:14983   */\n      dup3\n        /* \"#utility.yul\":14970:14989   */\n      add\n        /* \"#utility.yul\":14962:14989   */\n      swap1\n      pop\n        /* \"#utility.yul\":14999:15070   */\n      tag_393\n        /* \"#utility.yul\":15067:15068   */\n      0x00\n        /* \"#utility.yul\":15056:15065   */\n      dup4\n        /* \"#utility.yul\":15052:15069   */\n      add\n        /* \"#utility.yul\":15043:15049   */\n      dup15\n        /* \"#utility.yul\":14999:15070   */\n      tag_342\n      jump\t// in\n    tag_393:\n        /* \"#utility.yul\":15080:15152   */\n      tag_394\n        /* \"#utility.yul\":15148:15150   */\n      0x20\n        /* \"#utility.yul\":15137:15146   */\n      dup4\n        /* \"#utility.yul\":15133:15151   */\n      add\n        /* \"#utility.yul\":15124:15130   */\n      dup14\n        /* \"#utility.yul\":15080:15152   */\n      tag_285\n      jump\t// in\n    tag_394:\n        /* \"#utility.yul\":15162:15232   */\n      tag_395\n        /* \"#utility.yul\":15228:15230   */\n      0x40\n        /* \"#utility.yul\":15217:15226   */\n      dup4\n        /* \"#utility.yul\":15213:15231   */\n      add\n        /* \"#utility.yul\":15204:15210   */\n      dup13\n        /* \"#utility.yul\":15162:15232   */\n      tag_349\n      jump\t// in\n    tag_395:\n        /* \"#utility.yul\":15242:15310   */\n      tag_396\n        /* \"#utility.yul\":15306:15308   */\n      0x60\n        /* \"#utility.yul\":15295:15304   */\n      dup4\n        /* \"#utility.yul\":15291:15309   */\n      add\n        /* \"#utility.yul\":15282:15288   */\n      dup12\n        /* \"#utility.yul\":15242:15310   */\n      tag_357\n      jump\t// in\n    tag_396:\n        /* \"#utility.yul\":15320:15406   */\n      tag_397\n        /* \"#utility.yul\":15401:15404   */\n      0x80\n        /* \"#utility.yul\":15390:15399   */\n      dup4\n        /* \"#utility.yul\":15386:15405   */\n      add\n        /* \"#utility.yul\":15377:15383   */\n      dup11\n        /* \"#utility.yul\":15320:15406   */\n      tag_292\n      jump\t// in\n    tag_397:\n        /* \"#utility.yul\":15454:15463   */\n      dup2\n        /* \"#utility.yul\":15448:15452   */\n      dup2\n        /* \"#utility.yul\":15444:15464   */\n      sub\n        /* \"#utility.yul\":15438:15441   */\n      0xa0\n        /* \"#utility.yul\":15427:15436   */\n      dup4\n        /* \"#utility.yul\":15423:15442   */\n      add\n        /* \"#utility.yul\":15416:15465   */\n      mstore\n        /* \"#utility.yul\":15482:15560   */\n      tag_398\n        /* \"#utility.yul\":15555:15559   */\n      dup2\n        /* \"#utility.yul\":15546:15552   */\n      dup10\n        /* \"#utility.yul\":15482:15560   */\n      tag_304\n      jump\t// in\n    tag_398:\n        /* \"#utility.yul\":15474:15560   */\n      swap1\n      pop\n        /* \"#utility.yul\":15570:15643   */\n      tag_399\n        /* \"#utility.yul\":15638:15641   */\n      0xc0\n        /* \"#utility.yul\":15627:15636   */\n      dup4\n        /* \"#utility.yul\":15623:15642   */\n      add\n        /* \"#utility.yul\":15614:15620   */\n      dup9\n        /* \"#utility.yul\":15570:15643   */\n      tag_342\n      jump\t// in\n    tag_399:\n        /* \"#utility.yul\":15653:15726   */\n      tag_400\n        /* \"#utility.yul\":15721:15724   */\n      0xe0\n        /* \"#utility.yul\":15710:15719   */\n      dup4\n        /* \"#utility.yul\":15706:15725   */\n      add\n        /* \"#utility.yul\":15697:15703   */\n      dup8\n        /* \"#utility.yul\":15653:15726   */\n      tag_342\n      jump\t// in\n    tag_400:\n        /* \"#utility.yul\":15736:15805   */\n      tag_401\n        /* \"#utility.yul\":15800:15803   */\n      0x0100\n        /* \"#utility.yul\":15789:15798   */\n      dup4\n        /* \"#utility.yul\":15785:15804   */\n      add\n        /* \"#utility.yul\":15776:15782   */\n      dup7\n        /* \"#utility.yul\":15736:15805   */\n      tag_357\n      jump\t// in\n    tag_401:\n        /* \"#utility.yul\":15815:15886   */\n      tag_402\n        /* \"#utility.yul\":15881:15884   */\n      0x0120\n        /* \"#utility.yul\":15870:15879   */\n      dup4\n        /* \"#utility.yul\":15866:15885   */\n      add\n        /* \"#utility.yul\":15857:15863   */\n      dup6\n        /* \"#utility.yul\":15815:15886   */\n      tag_349\n      jump\t// in\n    tag_402:\n        /* \"#utility.yul\":15896:16010   */\n      tag_403\n        /* \"#utility.yul\":16005:16008   */\n      0x0140\n        /* \"#utility.yul\":15994:16003   */\n      dup4\n        /* \"#utility.yul\":15990:16009   */\n      add\n        /* \"#utility.yul\":15980:15987   */\n      dup5\n        /* \"#utility.yul\":15896:16010   */\n      tag_329\n      jump\t// in\n    tag_403:\n        /* \"#utility.yul\":14512:16017   */\n      swap13\n      swap12\n      pop\n      pop\n      pop\n      pop\n      pop\n      pop\n      pop\n      pop\n      pop\n      pop\n      pop\n      pop\n      jump\t// out\n        /* \"#utility.yul\":16023:16442   */\n    tag_68:\n        /* \"#utility.yul\":16162:16166   */\n      0x00\n        /* \"#utility.yul\":16200:16202   */\n      0x40\n        /* \"#utility.yul\":16189:16198   */\n      dup3\n        /* \"#utility.yul\":16185:16203   */\n      add\n        /* \"#utility.yul\":16177:16203   */\n      swap1\n      pop\n        /* \"#utility.yul\":16213:16282   */\n      tag_405\n        /* \"#utility.yul\":16279:16280   */\n      0x00\n        /* \"#utility.yul\":16268:16277   */\n      dup4\n        /* \"#utility.yul\":16264:16281   */\n      add\n        /* \"#utility.yul\":16255:16261   */\n      dup6\n        /* \"#utility.yul\":16213:16282   */\n      tag_349\n      jump\t// in\n    tag_405:\n        /* \"#utility.yul\":16329:16338   */\n      dup2\n        /* \"#utility.yul\":16323:16327   */\n      dup2\n        /* \"#utility.yul\":16319:16339   */\n      sub\n        /* \"#utility.yul\":16314:16316   */\n      0x20\n        /* \"#utility.yul\":16303:16312   */\n      dup4\n        /* \"#utility.yul\":16299:16317   */\n      add\n        /* \"#utility.yul\":16292:16340   */\n      mstore\n        /* \"#utility.yul\":16357:16435   */\n      tag_406\n        /* \"#utility.yul\":16430:16434   */\n      dup2\n        /* \"#utility.yul\":16421:16427   */\n      dup5\n        /* \"#utility.yul\":16357:16435   */\n      tag_304\n      jump\t// in\n    tag_406:\n        /* \"#utility.yul\":16349:16435   */\n      swap1\n      pop\n        /* \"#utility.yul\":16023:16442   */\n      swap4\n      swap3\n      pop\n      pop\n      pop\n      jump\t// out\n        /* \"#utility.yul\":16448:16577   */\n    tag_205:\n        /* \"#utility.yul\":16482:16488   */\n      0x00\n        /* \"#utility.yul\":16509:16529   */\n      tag_408\n      tag_409\n      jump\t// in\n    tag_408:\n        /* \"#utility.yul\":16499:16529   */\n      swap1\n      pop\n        /* \"#utility.yul\":16538:16571   */\n      tag_410\n        /* \"#utility.yul\":16566:16570   */\n      dup3\n        /* \"#utility.yul\":16558:16564   */\n      dup3\n        /* \"#utility.yul\":16538:16571   */\n      tag_411\n      jump\t// in\n    tag_410:\n        /* \"#utility.yul\":16448:16577   */\n      swap2\n      swap1\n      pop\n      jump\t// out\n        /* \"#utility.yul\":16583:16658   */\n    tag_409:\n        /* \"#utility.yul\":16616:16622   */\n      0x00\n        /* \"#utility.yul\":16649:16651   */\n      0x40\n        /* \"#utility.yul\":16643:16652   */\n      mload\n        /* \"#utility.yul\":16633:16652   */\n      swap1\n      pop\n        /* \"#utility.yul\":16583:16658   */\n      swap1\n      jump\t// out\n        /* \"#utility.yul\":16664:16972   */\n    tag_204:\n        /* \"#utility.yul\":16726:16730   */\n      0x00\n        /* \"#utility.yul\":16816:16834   */\n      0xffffffffffffffff\n        /* \"#utility.yul\":16808:16814   */\n      dup3\n        /* \"#utility.yul\":16805:16835   */\n      gt\n        /* \"#utility.yul\":16802:16858   */\n      iszero\n      tag_414\n      jumpi\n        /* \"#utility.yul\":16838:16856   */\n      tag_415\n      tag_416\n      jump\t// in\n    tag_415:\n        /* \"#utility.yul\":16802:16858   */\n    tag_414:\n        /* \"#utility.yul\":16876:16905   */\n      tag_417\n        /* \"#utility.yul\":16898:16904   */\n      dup3\n        /* \"#utility.yul\":16876:16905   */\n      tag_313\n      jump\t// in\n    tag_417:\n        /* \"#utility.yul\":16868:16905   */\n      swap1\n      pop\n        /* \"#utility.yul\":16960:16964   */\n      0x20\n        /* \"#utility.yul\":16954:16958   */\n      dup2\n        /* \"#utility.yul\":16950:16965   */\n      add\n        /* \"#utility.yul\":16942:16965   */\n      swap1\n      pop\n        /* \"#utility.yul\":16664:16972   */\n      swap2\n      swap1\n      pop\n      jump\t// out\n        /* \"#utility.yul\":16978:17077   */\n    tag_307:\n        /* \"#utility.yul\":17030:17036   */\n      0x00\n        /* \"#utility.yul\":17064:17069   */\n      dup2\n        /* \"#utility.yul\":17058:17070   */\n      mload\n        /* \"#utility.yul\":17048:17070   */\n      swap1\n      pop\n        /* \"#utility.yul\":16978:17077   */\n      swap2\n      swap1\n      pop\n      jump\t// out\n        /* \"#utility.yul\":17083:17252   */\n    tag_309:\n        /* \"#utility.yul\":17167:17178   */\n      0x00\n        /* \"#utility.yul\":17201:17207   */\n      dup3\n        /* \"#utility.yul\":17196:17199   */\n      dup3\n        /* \"#utility.yul\":17189:17208   */\n      mstore\n        /* \"#utility.yul\":17241:17245   */\n      0x20\n        /* \"#utility.yul\":17236:17239   */\n      dup3\n        /* \"#utility.yul\":17232:17246   */\n      add\n        /* \"#utility.yul\":17217:17246   */\n      swap1\n      pop\n        /* \"#utility.yul\":17083:17252   */\n      swap3\n      swap2\n      pop\n      pop\n      jump\t// out\n        /* \"#utility.yul\":17258:17354   */\n    tag_284:\n        /* \"#utility.yul\":17295:17302   */\n      0x00\n        /* \"#utility.yul\":17324:17348   */\n      tag_421\n        /* \"#utility.yul\":17342:17347   */\n      dup3\n        /* \"#utility.yul\":17324:17348   */\n      tag_422\n      jump\t// in\n    tag_421:\n        /* \"#utility.yul\":17313:17348   */\n      swap1\n      pop\n        /* \"#utility.yul\":17258:17354   */\n      swap2\n      swap1\n      pop\n      jump\t// out\n        /* \"#utility.yul\":17360:17450   */\n    tag_291:\n        /* \"#utility.yul\":17394:17401   */\n      0x00\n        /* \"#utility.yul\":17437:17442   */\n      dup2\n        /* \"#utility.yul\":17430:17443   */\n      iszero\n        /* \"#utility.yul\":17423:17444   */\n      iszero\n        /* \"#utility.yul\":17412:17444   */\n      swap1\n      pop\n        /* \"#utility.yul\":17360:17450   */\n      swap2\n      swap1\n      pop\n      jump\t// out\n        /* \"#utility.yul\":17456:17597   */\n    tag_424:\n        /* \"#utility.yul\":17508:17515   */\n      0x00\n        /* \"#utility.yul\":17537:17542   */\n      dup2\n        /* \"#utility.yul\":17526:17542   */\n      swap1\n      pop\n        /* \"#utility.yul\":17543:17591   */\n      tag_426\n        /* \"#utility.yul\":17585:17590   */\n      dup3\n        /* \"#utility.yul\":17543:17591   */\n      tag_427\n      jump\t// in\n    tag_426:\n        /* \"#utility.yul\":17456:17597   */\n      swap2\n      swap1\n      pop\n      jump\t// out\n        /* \"#utility.yul\":17603:17738   */\n    tag_428:\n        /* \"#utility.yul\":17652:17659   */\n      0x00\n        /* \"#utility.yul\":17681:17686   */\n      dup2\n        /* \"#utility.yul\":17670:17686   */\n      swap1\n      pop\n        /* \"#utility.yul\":17687:17732   */\n      tag_430\n        /* \"#utility.yul\":17726:17731   */\n      dup3\n        /* \"#utility.yul\":17687:17732   */\n      tag_431\n      jump\t// in\n    tag_430:\n        /* \"#utility.yul\":17603:17738   */\n      swap2\n      swap1\n      pop\n      jump\t// out\n        /* \"#utility.yul\":17744:17871   */\n    tag_432:\n        /* \"#utility.yul\":17789:17796   */\n      0x00\n        /* \"#utility.yul\":17818:17823   */\n      dup2\n        /* \"#utility.yul\":17807:17823   */\n      swap1\n      pop\n        /* \"#utility.yul\":17824:17865   */\n      tag_434\n        /* \"#utility.yul\":17859:17864   */\n      dup3\n        /* \"#utility.yul\":17824:17865   */\n      tag_435\n      jump\t// in\n    tag_434:\n        /* \"#utility.yul\":17744:17871   */\n      swap2\n      swap1\n      pop\n      jump\t// out\n        /* \"#utility.yul\":17877:17966   */\n    tag_338:\n        /* \"#utility.yul\":17913:17920   */\n      0x00\n        /* \"#utility.yul\":17953:17959   */\n      0xffff\n        /* \"#utility.yul\":17946:17951   */\n      dup3\n        /* \"#utility.yul\":17942:17960   */\n      and\n        /* \"#utility.yul\":17931:17960   */\n      swap1\n      pop\n        /* \"#utility.yul\":17877:17966   */\n      swap2\n      swap1\n      pop\n      jump\t// out\n        /* \"#utility.yul\":17972:18098   */\n    tag_422:\n        /* \"#utility.yul\":18009:18016   */\n      0x00\n        /* \"#utility.yul\":18049:18091   */\n      0xffffffffffffffffffffffffffffffffffffffff\n        /* \"#utility.yul\":18042:18047   */\n      dup3\n        /* \"#utility.yul\":18038:18092   */\n      and\n        /* \"#utility.yul\":18027:18092   */\n      swap1\n      pop\n        /* \"#utility.yul\":17972:18098   */\n      swap2\n      swap1\n      pop\n      jump\t// out\n        /* \"#utility.yul\":18104:18181   */\n    tag_341:\n        /* \"#utility.yul\":18141:18148   */\n      0x00\n        /* \"#utility.yul\":18170:18175   */\n      dup2\n        /* \"#utility.yul\":18159:18175   */\n      swap1\n      pop\n        /* \"#utility.yul\":18104:18181   */\n      swap2\n      swap1\n      pop\n      jump\t// out\n        /* \"#utility.yul\":18187:18280   */\n    tag_352:\n        /* \"#utility.yul\":18223:18230   */\n      0x00\n        /* \"#utility.yul\":18263:18273   */\n      0xffffffff\n        /* \"#utility.yul\":18256:18261   */\n      dup3\n        /* \"#utility.yul\":18252:18274   */\n      and\n        /* \"#utility.yul\":18241:18274   */\n      swap1\n      pop\n        /* \"#utility.yul\":18187:18280   */\n      swap2\n      swap1\n      pop\n      jump\t// out\n        /* \"#utility.yul\":18286:18372   */\n    tag_360:\n        /* \"#utility.yul\":18321:18328   */\n      0x00\n        /* \"#utility.yul\":18361:18365   */\n      0xff\n        /* \"#utility.yul\":18354:18359   */\n      dup3\n        /* \"#utility.yul\":18350:18366   */\n      and\n        /* \"#utility.yul\":18339:18366   */\n      swap1\n      pop\n        /* \"#utility.yul\":18286:18372   */\n      swap2\n      swap1\n      pop\n      jump\t// out\n        /* \"#utility.yul\":18378:18519   */\n    tag_295:\n        /* \"#utility.yul\":18441:18450   */\n      0x00\n        /* \"#utility.yul\":18474:18513   */\n      tag_442\n        /* \"#utility.yul\":18507:18512   */\n      dup3\n        /* \"#utility.yul\":18474:18513   */\n      tag_424\n      jump\t// in\n    tag_442:\n        /* \"#utility.yul\":18461:18513   */\n      swap1\n      pop\n        /* \"#utility.yul\":18378:18519   */\n      swap2\n      swap1\n      pop\n      jump\t// out\n        /* \"#utility.yul\":18525:18660   */\n    tag_299:\n        /* \"#utility.yul\":18585:18594   */\n      0x00\n        /* \"#utility.yul\":18618:18654   */\n      tag_444\n        /* \"#utility.yul\":18648:18653   */\n      dup3\n        /* \"#utility.yul\":18618:18654   */\n      tag_428\n      jump\t// in\n    tag_444:\n        /* \"#utility.yul\":18605:18654   */\n      swap1\n      pop\n        /* \"#utility.yul\":18525:18660   */\n      swap2\n      swap1\n      pop\n      jump\t// out\n        /* \"#utility.yul\":18666:18793   */\n    tag_303:\n        /* \"#utility.yul\":18722:18731   */\n      0x00\n        /* \"#utility.yul\":18755:18787   */\n      tag_446\n        /* \"#utility.yul\":18781:18786   */\n      dup3\n        /* \"#utility.yul\":18755:18787   */\n      tag_432\n      jump\t// in\n    tag_446:\n        /* \"#utility.yul\":18742:18787   */\n      swap1\n      pop\n        /* \"#utility.yul\":18666:18793   */\n      swap2\n      swap1\n      pop\n      jump\t// out\n        /* \"#utility.yul\":18799:18910   */\n    tag_348:\n        /* \"#utility.yul\":18848:18857   */\n      0x00\n        /* \"#utility.yul\":18881:18904   */\n      tag_448\n        /* \"#utility.yul\":18898:18903   */\n      dup3\n        /* \"#utility.yul\":18881:18904   */\n      tag_352\n      jump\t// in\n    tag_448:\n        /* \"#utility.yul\":18868:18904   */\n      swap1\n      pop\n        /* \"#utility.yul\":18799:18910   */\n      swap2\n      swap1\n      pop\n      jump\t// out\n        /* \"#utility.yul\":18916:19025   */\n    tag_356:\n        /* \"#utility.yul\":18964:18973   */\n      0x00\n        /* \"#utility.yul\":18997:19019   */\n      tag_450\n        /* \"#utility.yul\":19013:19018   */\n      dup3\n        /* \"#utility.yul\":18997:19019   */\n      tag_360\n      jump\t// in\n    tag_450:\n        /* \"#utility.yul\":18984:19019   */\n      swap1\n      pop\n        /* \"#utility.yul\":18916:19025   */\n      swap2\n      swap1\n      pop\n      jump\t// out\n        /* \"#utility.yul\":19031:19185   */\n    tag_210:\n        /* \"#utility.yul\":19115:19121   */\n      dup3\n        /* \"#utility.yul\":19110:19113   */\n      dup2\n        /* \"#utility.yul\":19105:19108   */\n      dup4\n        /* \"#utility.yul\":19092:19122   */\n      calldatacopy\n        /* \"#utility.yul\":19177:19178   */\n      0x00\n        /* \"#utility.yul\":19168:19174   */\n      dup4\n        /* \"#utility.yul\":19163:19166   */\n      dup4\n        /* \"#utility.yul\":19159:19175   */\n      add\n        /* \"#utility.yul\":19152:19179   */\n      mstore\n        /* \"#utility.yul\":19031:19185   */\n      pop\n      pop\n      pop\n      jump\t// out\n        /* \"#utility.yul\":19191:19498   */\n    tag_311:\n        /* \"#utility.yul\":19259:19260   */\n      0x00\n        /* \"#utility.yul\":19269:19382   */\n    tag_453:\n        /* \"#utility.yul\":19283:19289   */\n      dup4\n        /* \"#utility.yul\":19280:19281   */\n      dup2\n        /* \"#utility.yul\":19277:19290   */\n      lt\n        /* \"#utility.yul\":19269:19382   */\n      iszero\n      tag_455\n      jumpi\n        /* \"#utility.yul\":19368:19369   */\n      dup1\n        /* \"#utility.yul\":19363:19366   */\n      dup3\n        /* \"#utility.yul\":19359:19370   */\n      add\n        /* \"#utility.yul\":19353:19371   */\n      mload\n        /* \"#utility.yul\":19349:19350   */\n      dup2\n        /* \"#utility.yul\":19344:19347   */\n      dup5\n        /* \"#utility.yul\":19340:19351   */\n      add\n        /* \"#utility.yul\":19333:19372   */\n      mstore\n        /* \"#utility.yul\":19305:19307   */\n      0x20\n        /* \"#utility.yul\":19302:19303   */\n      dup2\n        /* \"#utility.yul\":19298:19308   */\n      add\n        /* \"#utility.yul\":19293:19308   */\n      swap1\n      pop\n        /* \"#utility.yul\":19269:19382   */\n      jump(tag_453)\n    tag_455:\n        /* \"#utility.yul\":19400:19406   */\n      dup4\n        /* \"#utility.yul\":19397:19398   */\n      dup2\n        /* \"#utility.yul\":19394:19407   */\n      gt\n        /* \"#utility.yul\":19391:19492   */\n      iszero\n      tag_456\n      jumpi\n        /* \"#utility.yul\":19480:19481   */\n      0x00\n        /* \"#utility.yul\":19471:19477   */\n      dup5\n        /* \"#utility.yul\":19466:19469   */\n      dup5\n        /* \"#utility.yul\":19462:19478   */\n      add\n        /* \"#utility.yul\":19455:19482   */\n      mstore\n        /* \"#utility.yul\":19391:19492   */\n    tag_456:\n        /* \"#utility.yul\":19240:19498   */\n      pop\n        /* \"#utility.yul\":19191:19498   */\n      pop\n      pop\n      pop\n      jump\t// out\n        /* \"#utility.yul\":19504:19824   */\n    tag_105:\n        /* \"#utility.yul\":19548:19554   */\n      0x00\n        /* \"#utility.yul\":19585:19586   */\n      0x02\n        /* \"#utility.yul\":19579:19583   */\n      dup3\n        /* \"#utility.yul\":19575:19587   */\n      div\n        /* \"#utility.yul\":19565:19587   */\n      swap1\n      pop\n        /* \"#utility.yul\":19632:19633   */\n      0x01\n        /* \"#utility.yul\":19626:19630   */\n      dup3\n        /* \"#utility.yul\":19622:19634   */\n      and\n        /* \"#utility.yul\":19653:19671   */\n      dup1\n        /* \"#utility.yul\":19643:19724   */\n      tag_458\n      jumpi\n        /* \"#utility.yul\":19709:19713   */\n      0x7f\n        /* \"#utility.yul\":19701:19707   */\n      dup3\n        /* \"#utility.yul\":19697:19714   */\n      and\n        /* \"#utility.yul\":19687:19714   */\n      swap2\n      pop\n        /* \"#utility.yul\":19643:19724   */\n    tag_458:\n        /* \"#utility.yul\":19771:19773   */\n      0x20\n        /* \"#utility.yul\":19763:19769   */\n      dup3\n        /* \"#utility.yul\":19760:19774   */\n      lt\n        /* \"#utility.yul\":19740:19758   */\n      dup2\n        /* \"#utility.yul\":19737:19775   */\n      eq\n        /* \"#utility.yul\":19734:19818   */\n      iszero\n      tag_459\n      jumpi\n        /* \"#utility.yul\":19790:19808   */\n      tag_460\n      tag_461\n      jump\t// in\n    tag_460:\n        /* \"#utility.yul\":19734:19818   */\n    tag_459:\n        /* \"#utility.yul\":19555:19824   */\n      pop\n        /* \"#utility.yul\":19504:19824   */\n      swap2\n      swap1\n      pop\n      jump\t// out\n        /* \"#utility.yul\":19830:20111   */\n    tag_411:\n        /* \"#utility.yul\":19913:19940   */\n      tag_463\n        /* \"#utility.yul\":19935:19939   */\n      dup3\n        /* \"#utility.yul\":19913:19940   */\n      tag_313\n      jump\t// in\n    tag_463:\n        /* \"#utility.yul\":19905:19911   */\n      dup2\n        /* \"#utility.yul\":19901:19941   */\n      add\n        /* \"#utility.yul\":20043:20049   */\n      dup2\n        /* \"#utility.yul\":20031:20041   */\n      dup2\n        /* \"#utility.yul\":20028:20050   */\n      lt\n        /* \"#utility.yul\":20007:20025   */\n      0xffffffffffffffff\n        /* \"#utility.yul\":19995:20005   */\n      dup3\n        /* \"#utility.yul\":19992:20026   */\n      gt\n        /* \"#utility.yul\":19989:20051   */\n      or\n        /* \"#utility.yul\":19986:20074   */\n      iszero\n      tag_464\n      jumpi\n        /* \"#utility.yul\":20054:20072   */\n      tag_465\n      tag_416\n      jump\t// in\n    tag_465:\n        /* \"#utility.yul\":19986:20074   */\n    tag_464:\n        /* \"#utility.yul\":20094:20104   */\n      dup1\n        /* \"#utility.yul\":20090:20092   */\n      0x40\n        /* \"#utility.yul\":20083:20105   */\n      mstore\n        /* \"#utility.yul\":19873:20111   */\n      pop\n        /* \"#utility.yul\":19830:20111   */\n      pop\n      pop\n      jump\t// out\n        /* \"#utility.yul\":20117:20350   */\n    tag_94:\n        /* \"#utility.yul\":20156:20159   */\n      0x00\n        /* \"#utility.yul\":20179:20203   */\n      tag_467\n        /* \"#utility.yul\":20197:20202   */\n      dup3\n        /* \"#utility.yul\":20179:20203   */\n      tag_341\n      jump\t// in\n    tag_467:\n        /* \"#utility.yul\":20170:20203   */\n      swap2\n      pop\n        /* \"#utility.yul\":20225:20291   */\n      0xffffffffffffffffffffffffffffffffffffffffffffffffffffffffffffffff\n        /* \"#utility.yul\":20218:20223   */\n      dup3\n        /* \"#utility.yul\":20215:20292   */\n      eq\n        /* \"#utility.yul\":20212:20315   */\n      iszero\n      tag_468\n      jumpi\n        /* \"#utility.yul\":20295:20313   */\n      tag_469\n      tag_470\n      jump\t// in\n    tag_469:\n        /* \"#utility.yul\":20212:20315   */\n    tag_468:\n        /* \"#utility.yul\":20342:20343   */\n      0x01\n        /* \"#utility.yul\":20335:20340   */\n      dup3\n        /* \"#utility.yul\":20331:20344   */\n      add\n        /* \"#utility.yul\":20324:20344   */\n      swap1\n      pop\n        /* \"#utility.yul\":20117:20350   */\n      swap2\n      swap1\n      pop\n      jump\t// out\n        /* \"#utility.yul\":20356:20536   */\n    tag_470:\n        /* \"#utility.yul\":20404:20481   */\n      0x4e487b7100000000000000000000000000000000000000000000000000000000\n        /* \"#utility.yul\":20401:20402   */\n      0x00\n        /* \"#utility.yul\":20394:20482   */\n      mstore\n        /* \"#utility.yul\":20501:20505   */\n      0x11\n        /* \"#utility.yul\":20498:20499   */\n      0x04\n        /* \"#utility.yul\":20491:20506   */\n      mstore\n        /* \"#utility.yul\":20525:20529   */\n      0x24\n        /* \"#utility.yul\":20522:20523   */\n      0x00\n        /* \"#utility.yul\":20515:20530   */\n      revert\n        /* \"#utility.yul\":20542:20722   */\n    tag_97:\n        /* \"#utility.yul\":20590:20667   */\n      0x4e487b7100000000000000000000000000000000000000000000000000000000\n        /* \"#utility.yul\":20587:20588   */\n      0x00\n        /* \"#utility.yul\":20580:20668   */\n      mstore\n        /* \"#utility.yul\":20687:20691   */\n      0x21\n        /* \"#utility.yul\":20684:20685   */\n      0x04\n        /* \"#utility.yul\":20677:20692   */\n      mstore\n        /* \"#utility.yul\":20711:20715   */\n      0x24\n        /* \"#utility.yul\":20708:20709   */\n      0x00\n        /* \"#utility.yul\":20701:20716   */\n      revert\n        /* \"#utility.yul\":20728:20908   */\n    tag_461:\n        /* \"#utility.yul\":20776:20853   */\n      0x4e487b7100000000000000000000000000000000000000000000000000000000\n        /* \"#utility.yul\":20773:20774   */\n      0x00\n        /* \"#utility.yul\":20766:20854   */\n      mstore\n        /* \"#utility.yul\":20873:20877   */\n      0x22\n        /* \"#utility.yul\":20870:20871   */\n      0x04\n        /* \"#utility.yul\":20863:20878   */\n      mstore\n        /* \"#utility.yul\":20897:20901   */\n      0x24\n        /* \"#utility.yul\":20894:20895   */\n      0x00\n        /* \"#utility.yul\":20887:20902   */\n      revert\n        /* \"#utility.yul\":20914:21094   */\n    tag_416:\n        /* \"#utility.yul\":20962:21039   */\n      0x4e487b7100000000000000000000000000000000000000000000000000000000\n        /* \"#utility.yul\":20959:20960   */\n      0x00\n        /* \"#utility.yul\":20952:21040   */\n      mstore\n        /* \"#utility.yul\":21059:21063   */\n      0x41\n        /* \"#utility.yul\":21056:21057   */\n      0x04\n        /* \"#utility.yul\":21049:21064   */\n      mstore\n        /* \"#utility.yul\":21083:21087   */\n      0x24\n        /* \"#utility.yul\":21080:21081   */\n      0x00\n        /* \"#utility.yul\":21073:21088   */\n      revert\n        /* \"#utility.yul\":21100:21217   */\n    tag_223:\n        /* \"#utility.yul\":21209:21210   */\n      0x00\n        /* \"#utility.yul\":21206:21207   */\n      dup1\n        /* \"#utility.yul\":21199:21211   */\n      revert\n        /* \"#utility.yul\":21223:21340   */\n    tag_208:\n        /* \"#utility.yul\":21332:21333   */\n      0x00\n        /* \"#utility.yul\":21329:21330   */\n      dup1\n        /* \"#utility.yul\":21322:21334   */\n      revert\n        /* \"#utility.yul\":21346:21463   */\n    tag_257:\n        /* \"#utility.yul\":21455:21456   */\n      0x00\n        /* \"#utility.yul\":21452:21453   */\n      dup1\n        /* \"#utility.yul\":21445:21457   */\n      revert\n        /* \"#utility.yul\":21469:21586   */\n    tag_240:\n        /* \"#utility.yul\":21578:21579   */\n      0x00\n        /* \"#utility.yul\":21575:21576   */\n      dup1\n        /* \"#utility.yul\":21568:21580   */\n      revert\n        /* \"#utility.yul\":21592:21694   */\n    tag_313:\n        /* \"#utility.yul\":21633:21639   */\n      0x00\n        /* \"#utility.yul\":21684:21686   */\n      0x1f\n        /* \"#utility.yul\":21680:21687   */\n      not\n        /* \"#utility.yul\":21675:21677   */\n      0x1f\n        /* \"#utility.yul\":21668:21673   */\n      dup4\n        /* \"#utility.yul\":21664:21678   */\n      add\n        /* \"#utility.yul\":21660:21688   */\n      and\n        /* \"#utility.yul\":21650:21688   */\n      swap1\n      pop\n        /* \"#utility.yul\":21592:21694   */\n      swap2\n      swap1\n      pop\n      jump\t// out\n        /* \"#utility.yul\":21700:21882   */\n    tag_318:\n        /* \"#utility.yul\":21840:21874   */\n      0x42752069736c656d6920736164656365204b697369207961706162696c69722e\n        /* \"#utility.yul\":21836:21837   */\n      0x00\n        /* \"#utility.yul\":21828:21834   */\n      dup3\n        /* \"#utility.yul\":21824:21838   */\n      add\n        /* \"#utility.yul\":21817:21875   */\n      mstore\n        /* \"#utility.yul\":21700:21882   */\n      pop\n      jump\t// out\n        /* \"#utility.yul\":21888:22056   */\n    tag_323:\n        /* \"#utility.yul\":22028:22048   */\n      0x53747564656e74206e6f74206578697374730000000000000000000000000000\n        /* \"#utility.yul\":22024:22025   */\n      0x00\n        /* \"#utility.yul\":22016:22022   */\n      dup3\n        /* \"#utility.yul\":22012:22026   */\n      add\n        /* \"#utility.yul\":22005:22049   */\n      mstore\n        /* \"#utility.yul\":21888:22056   */\n      pop\n      jump\t// out\n        /* \"#utility.yul\":22062:22244   */\n    tag_328:\n        /* \"#utility.yul\":22202:22236   */\n      0x42752069736c656d6920736164656365204b757273207961706162696c69722e\n        /* \"#utility.yul\":22198:22199   */\n      0x00\n        /* \"#utility.yul\":22190:22196   */\n      dup3\n        /* \"#utility.yul\":22186:22200   */\n      add\n        /* \"#utility.yul\":22179:22237   */\n      mstore\n        /* \"#utility.yul\":22062:22244   */\n      pop\n      jump\t// out\n        /* \"#utility.yul\":22250:22370   */\n    tag_427:\n        /* \"#utility.yul\":22338:22339   */\n      0x03\n        /* \"#utility.yul\":22331:22336   */\n      dup2\n        /* \"#utility.yul\":22328:22340   */\n      lt\n        /* \"#utility.yul\":22318:22364   */\n      tag_484\n      jumpi\n        /* \"#utility.yul\":22344:22362   */\n      tag_485\n      tag_97\n      jump\t// in\n    tag_485:\n        /* \"#utility.yul\":22318:22364   */\n    tag_484:\n        /* \"#utility.yul\":22250:22370   */\n      pop\n      jump\t// out\n        /* \"#utility.yul\":22376:22493   */\n    tag_431:\n        /* \"#utility.yul\":22461:22462   */\n      0x03\n        /* \"#utility.yul\":22454:22459   */\n      dup2\n        /* \"#utility.yul\":22451:22463   */\n      lt\n        /* \"#utility.yul\":22441:22487   */\n      tag_487\n      jumpi\n        /* \"#utility.yul\":22467:22485   */\n      tag_488\n      tag_97\n      jump\t// in\n    tag_488:\n        /* \"#utility.yul\":22441:22487   */\n    tag_487:\n        /* \"#utility.yul\":22376:22493   */\n      pop\n      jump\t// out\n        /* \"#utility.yul\":22499:22612   */\n    tag_435:\n        /* \"#utility.yul\":22580:22581   */\n      0x04\n        /* \"#utility.yul\":22573:22578   */\n      dup2\n        /* \"#utility.yul\":22570:22582   */\n      lt\n        /* \"#utility.yul\":22560:22606   */\n      tag_490\n      jumpi\n        /* \"#utility.yul\":22586:22604   */\n      tag_491\n      tag_97\n      jump\t// in\n    tag_491:\n        /* \"#utility.yul\":22560:22606   */\n    tag_490:\n        /* \"#utility.yul\":22499:22612   */\n      pop\n      jump\t// out\n        /* \"#utility.yul\":22618:22740   */\n    tag_214:\n        /* \"#utility.yul\":22691:22715   */\n      tag_493\n        /* \"#utility.yul\":22709:22714   */\n      dup2\n        /* \"#utility.yul\":22691:22715   */\n      tag_284\n      jump\t// in\n    tag_493:\n        /* \"#utility.yul\":22684:22689   */\n      dup2\n        /* \"#utility.yul\":22681:22716   */\n      eq\n        /* \"#utility.yul\":22671:22734   */\n      tag_494\n      jumpi\n        /* \"#utility.yul\":22730:22731   */\n      0x00\n        /* \"#utility.yul\":22727:22728   */\n      dup1\n        /* \"#utility.yul\":22720:22732   */\n      revert\n        /* \"#utility.yul\":22671:22734   */\n    tag_494:\n        /* \"#utility.yul\":22618:22740   */\n      pop\n      jump\t// out\n        /* \"#utility.yul\":22746:22860   */\n    tag_218:\n        /* \"#utility.yul\":22834:22835   */\n      0x03\n        /* \"#utility.yul\":22827:22832   */\n      dup2\n        /* \"#utility.yul\":22824:22836   */\n      lt\n        /* \"#utility.yul\":22814:22854   */\n      tag_496\n      jumpi\n        /* \"#utility.yul\":22850:22851   */\n      0x00\n        /* \"#utility.yul\":22847:22848   */\n      dup1\n        /* \"#utility.yul\":22840:22852   */\n      revert\n        /* \"#utility.yul\":22814:22854   */\n    tag_496:\n        /* \"#utility.yul\":22746:22860   */\n      pop\n      jump\t// out\n        /* \"#utility.yul\":22866:22988   */\n    tag_228:\n        /* \"#utility.yul\":22939:22963   */\n      tag_498\n        /* \"#utility.yul\":22957:22962   */\n      dup2\n        /* \"#utility.yul\":22939:22963   */\n      tag_341\n      jump\t// in\n    tag_498:\n        /* \"#utility.yul\":22932:22937   */\n      dup2\n        /* \"#utility.yul\":22929:22964   */\n      eq\n        /* \"#utility.yul\":22919:22982   */\n      tag_499\n      jumpi\n        /* \"#utility.yul\":22978:22979   */\n      0x00\n        /* \"#utility.yul\":22975:22976   */\n      dup1\n        /* \"#utility.yul\":22968:22980   */\n      revert\n        /* \"#utility.yul\":22919:22982   */\n    tag_499:\n        /* \"#utility.yul\":22866:22988   */\n      pop\n      jump\t// out\n        /* \"#utility.yul\":22994:23114   */\n    tag_232:\n        /* \"#utility.yul\":23066:23089   */\n      tag_501\n        /* \"#utility.yul\":23083:23088   */\n      dup2\n        /* \"#utility.yul\":23066:23089   */\n      tag_352\n      jump\t// in\n    tag_501:\n        /* \"#utility.yul\":23059:23064   */\n      dup2\n        /* \"#utility.yul\":23056:23090   */\n      eq\n        /* \"#utility.yul\":23046:23108   */\n      tag_502\n      jumpi\n        /* \"#utility.yul\":23104:23105   */\n      0x00\n        /* \"#utility.yul\":23101:23102   */\n      dup1\n        /* \"#utility.yul\":23094:23106   */\n      revert\n        /* \"#utility.yul\":23046:23108   */\n    tag_502:\n        /* \"#utility.yul\":22994:23114   */\n      pop\n      jump\t// out\n        /* \"#utility.yul\":23120:23238   */\n    tag_236:\n        /* \"#utility.yul\":23191:23213   */\n      tag_504\n        /* \"#utility.yul\":23207:23212   */\n      dup2\n        /* \"#utility.yul\":23191:23213   */\n      tag_360\n      jump\t// in\n    tag_504:\n        /* \"#utility.yul\":23184:23189   */\n      dup2\n        /* \"#utility.yul\":23181:23214   */\n      eq\n        /* \"#utility.yul\":23171:23232   */\n      tag_505\n      jumpi\n        /* \"#utility.yul\":23228:23229   */\n      0x00\n        /* \"#utility.yul\":23225:23226   */\n      dup1\n        /* \"#utility.yul\":23218:23230   */\n      revert\n        /* \"#utility.yul\":23171:23232   */\n    tag_505:\n        /* \"#utility.yul\":23120:23238   */\n      pop\n      jump\t// out\n\n    auxdata: 0xa2646970667358221220cb74f161662bbc33c299ea3de02d65407389af088d193ea68a2a08342cabc69964736f6c63430008070033\n}\n",
				"bytecode": {
					"linkReferences": {},
					"object": "608060405234801561001057600080fd5b50612d5a806100206000396000f3fe608060405234801561001057600080fd5b50600436106100ea5760003560e01c80637d0fa2871161008c578063ac30910c11610066578063ac30910c146102d3578063af640d0f146102ef578063ba479b7e1461030d578063cbc9280914610342576100ea565b80637d0fa2871461023e5780639a8c911914610270578063a4e7ae05146102a2576100ea565b806328266697116100c85780632826669714610177578063356b1f1e146101a957806339987f94146101db57806362bda16b1461020e576100ea565b8063035963ce146100ef5780630fb0b1b21461010b5780631916e13914610145575b600080fd5b6101096004803603810190610104919061234a565b610372565b005b6101256004803603810190610120919061220f565b610954565b60405161013c9b9a999897969594939291906127d8565b60405180910390f35b61015f600480360381019061015a91906121e2565b610b4f565b60405161016e939291906126d3565b60405180910390f35b610191600480360381019061018c91906121e2565b610c1b565b6040516101a0939291906126d3565b60405180910390f35b6101c360048036038101906101be91906121e2565b610ce7565b6040516101d2939291906126d3565b60405180910390f35b6101f560048036038101906101f091906121e2565b610db3565b6040516102059493929190612711565b60405180910390f35b6102286004803603810190610223919061224f565b610e85565b60405161023591906127bd565b60405180910390f35b610258600480360381019061025391906121e2565b61155f565b604051610267939291906126d3565b60405180910390f35b61028a600480360381019061028591906121e2565b61162b565b604051610299939291906126d3565b60405180910390f35b6102bc60048036038101906102b79190612430565b6116f7565b6040516102ca92919061288a565b60405180910390f35b6102ed60048036038101906102e8919061234a565b6117b3565b005b6102f7611ea1565b60405161030491906127bd565b60405180910390f35b610327600480360381019061032291906121e2565b611ea7565b60405161033996959493929190612664565b60405180910390f35b61035c600480360381019061035791906121e2565b61203b565b6040516103699190612649565b60405180910390f35b600360003373ffffffffffffffffffffffffffffffffffffffff1673ffffffffffffffffffffffffffffffffffffffff16815260200190815260200160002060000160009054906101000a900460ff16610401576040517f08c379a00000000000000000000000000000000000000000000000000000000081526004016103f89061275d565b60405180910390fd5b600360003373ffffffffffffffffffffffffffffffffffffffff1673ffffffffffffffffffffffffffffffffffffffff16815260200190815260200160002060000160009054906101000a900460ff16610490576040517f08c379a00000000000000000000000000000000000000000000000000000000081526004016104879061277d565b60405180910390fd5b6000600c60008154809291906104a590612ad7565b91905055905089600d60003373ffffffffffffffffffffffffffffffffffffffff1673ffffffffffffffffffffffffffffffffffffffff168152602001908152602001600020600083815260200190815260200160002060010160006101000a81548173ffffffffffffffffffffffffffffffffffffffff021916908373ffffffffffffffffffffffffffffffffffffffff16021790555088600d60003373ffffffffffffffffffffffffffffffffffffffff1673ffffffffffffffffffffffffffffffffffffffff168152602001908152602001600020600083815260200190815260200160002060010160146101000a81548163ffffffff021916908363ffffffff16021790555087600d60003373ffffffffffffffffffffffffffffffffffffffff1673ffffffffffffffffffffffffffffffffffffffff168152602001908152602001600020600083815260200190815260200160002060010160186101000a81548160ff021916908360ff16021790555086600d60003373ffffffffffffffffffffffffffffffffffffffff1673ffffffffffffffffffffffffffffffffffffffff168152602001908152602001600020600083815260200190815260200160002060010160196101000a81548160ff0219169083600281111561069157610690612b4f565b5b021790555085600d60003373ffffffffffffffffffffffffffffffffffffffff1673ffffffffffffffffffffffffffffffffffffffff168152602001908152602001600020600083815260200190815260200160002060020190805190602001906106fd929190612066565b5084600d60003373ffffffffffffffffffffffffffffffffffffffff1673ffffffffffffffffffffffffffffffffffffffff16815260200190815260200160002060008381526020019081526020016000206003018190555083600d60003373ffffffffffffffffffffffffffffffffffffffff1673ffffffffffffffffffffffffffffffffffffffff16815260200190815260200160002060008381526020019081526020016000206004018190555082600d60003373ffffffffffffffffffffffffffffffffffffffff1673ffffffffffffffffffffffffffffffffffffffff168152602001908152602001600020600083815260200190815260200160002060050160006101000a81548160ff021916908360ff16021790555081600d60003373ffffffffffffffffffffffffffffffffffffffff1673ffffffffffffffffffffffffffffffffffffffff168152602001908152602001600020600083815260200190815260200160002060050160016101000a81548163ffffffff021916908363ffffffff1602179055506000600d60003373ffffffffffffffffffffffffffffffffffffffff1673ffffffffffffffffffffffffffffffffffffffff168152602001908152602001600020600083815260200190815260200160002060060160010160146101000a81548160ff0219169083600281111561090657610905612b4f565b5b02179055507fb1e7ee8400131f0adc507179ea96ee8eb90b1a9e9215ce4232f874cb41aa88ef8a848b8b6040516109409493929190612604565b60405180910390a150505050505050505050565b600d602052816000526040600020602052806000526040600020600091509150508060000154908060010160009054906101000a900473ffffffffffffffffffffffffffffffffffffffff16908060010160149054906101000a900463ffffffff16908060010160189054906101000a900460ff16908060010160199054906101000a900460ff16908060020180546109ec90612a74565b80601f0160208091040260200160405190810160405280929190818152602001828054610a1890612a74565b8015610a655780601f10610a3a57610100808354040283529160200191610a65565b820191906000526020600020905b815481529060010190602001808311610a4857829003601f168201915b5050505050908060030154908060040154908060050160009054906101000a900460ff16908060050160019054906101000a900463ffffffff169080600601604051806060016040529081600082015481526020016001820160009054906101000a900473ffffffffffffffffffffffffffffffffffffffff1673ffffffffffffffffffffffffffffffffffffffff1673ffffffffffffffffffffffffffffffffffffffff1681526020016001820160149054906101000a900460ff166002811115610b3457610b33612b4f565b5b6002811115610b4657610b45612b4f565b5b8152505090508b565b60076020528060005260406000206000915090508060000160009054906101000a900460ff1690806001018054610b8590612a74565b80601f0160208091040260200160405190810160405280929190818152602001828054610bb190612a74565b8015610bfe5780601f10610bd357610100808354040283529160200191610bfe565b820191906000526020600020905b815481529060010190602001808311610be157829003601f168201915b5050505050908060020160009054906101000a900460ff16905083565b60046020528060005260406000206000915090508060000160009054906101000a900460ff1690806001018054610c5190612a74565b80601f0160208091040260200160405190810160405280929190818152602001828054610c7d90612a74565b8015610cca5780601f10610c9f57610100808354040283529160200191610cca565b820191906000526020600020905b815481529060010190602001808311610cad57829003601f168201915b5050505050908060020160009054906101000a900460ff16905083565b600a6020528060005260406000206000915090508060000160009054906101000a900460ff1690806001018054610d1d90612a74565b80601f0160208091040260200160405190810160405280929190818152602001828054610d4990612a74565b8015610d965780601f10610d6b57610100808354040283529160200191610d96565b820191906000526020600020905b815481529060010190602001808311610d7957829003601f168201915b5050505050908060020160009054906101000a900460ff16905083565b60066020528060005260406000206000915090508060000160009054906101000a900460ff16908060000160019054906101000a900460ff1690806001015490806002018054610e0290612a74565b80601f0160208091040260200160405190810160405280929190818152602001828054610e2e90612a74565b8015610e7b5780601f10610e5057610100808354040283529160200191610e7b565b820191906000526020600020905b815481529060010190602001808311610e5e57829003601f168201915b5050505050905084565b6000600460003373ffffffffffffffffffffffffffffffffffffffff1673ffffffffffffffffffffffffffffffffffffffff16815260200190815260200160002060000160009054906101000a900460ff1680610f2e5750600660003373ffffffffffffffffffffffffffffffffffffffff1673ffffffffffffffffffffffffffffffffffffffff16815260200190815260200160002060000160009054906101000a900460ff165b80610f855750600860003373ffffffffffffffffffffffffffffffffffffffff1673ffffffffffffffffffffffffffffffffffffffff16815260200190815260200160002060000160009054906101000a900460ff165b610fc4576040517f08c379a0000000000000000000000000000000000000000000000000000000008152600401610fbb9061279d565b60405180910390fd5b600360008c73ffffffffffffffffffffffffffffffffffffffff1673ffffffffffffffffffffffffffffffffffffffff16815260200190815260200160002060000160009054906101000a900460ff16611053576040517f08c379a000000000000000000000000000000000000000000000000000000000815260040161104a9061277d565b60405180910390fd5b88600d60008d73ffffffffffffffffffffffffffffffffffffffff1673ffffffffffffffffffffffffffffffffffffffff16815260200190815260200160002060008c815260200190815260200160002060010160146101000a81548163ffffffff021916908363ffffffff16021790555087600d60008d73ffffffffffffffffffffffffffffffffffffffff1673ffffffffffffffffffffffffffffffffffffffff16815260200190815260200160002060008c815260200190815260200160002060010160186101000a81548160ff021916908360ff16021790555086600d60008d73ffffffffffffffffffffffffffffffffffffffff1673ffffffffffffffffffffffffffffffffffffffff16815260200190815260200160002060008c815260200190815260200160002060010160196101000a81548160ff021916908360028111156111a7576111a6612b4f565b5b021790555085600d60008d73ffffffffffffffffffffffffffffffffffffffff1673ffffffffffffffffffffffffffffffffffffffff16815260200190815260200160002060008c81526020019081526020016000206002019080519060200190611213929190612066565b5084600d60008d73ffffffffffffffffffffffffffffffffffffffff1673ffffffffffffffffffffffffffffffffffffffff16815260200190815260200160002060008c81526020019081526020016000206003018190555083600d60008d73ffffffffffffffffffffffffffffffffffffffff1673ffffffffffffffffffffffffffffffffffffffff16815260200190815260200160002060008c81526020019081526020016000206004018190555082600d60008d73ffffffffffffffffffffffffffffffffffffffff1673ffffffffffffffffffffffffffffffffffffffff16815260200190815260200160002060008c815260200190815260200160002060050160006101000a81548160ff021916908360ff16021790555081600d60008d73ffffffffffffffffffffffffffffffffffffffff1673ffffffffffffffffffffffffffffffffffffffff16815260200190815260200160002060008c815260200190815260200160002060050160016101000a81548163ffffffff021916908363ffffffff16021790555042600d60008d73ffffffffffffffffffffffffffffffffffffffff1673ffffffffffffffffffffffffffffffffffffffff16815260200190815260200160002060008c8152602001908152602001600020600601600001819055506001600d60008d73ffffffffffffffffffffffffffffffffffffffff1673ffffffffffffffffffffffffffffffffffffffff16815260200190815260200160002060008c815260200190815260200160002060060160010160146101000a81548160ff0219169083600281111561147757611476612b4f565b5b021790555033600d60008d73ffffffffffffffffffffffffffffffffffffffff1673ffffffffffffffffffffffffffffffffffffffff16815260200190815260200160002060008c815260200190815260200160002060060160010160006101000a81548173ffffffffffffffffffffffffffffffffffffffff021916908373ffffffffffffffffffffffffffffffffffffffff1602179055507f0d2d369c2a311bbedf49b15d0d8d116c0a1aaf3adf72494f1ebb4275c54cad738b848b8b6040516115469493929190612604565b60405180910390a18990509a9950505050505050505050565b60086020528060005260406000206000915090508060000160009054906101000a900460ff169080600101805461159590612a74565b80601f01602080910402602001604051908101604052809291908181526020018280546115c190612a74565b801561160e5780601f106115e35761010080835404028352916020019161160e565b820191906000526020600020905b8154815290600101906020018083116115f157829003601f168201915b5050505050908060020160009054906101000a900460ff16905083565b60096020528060005260406000206000915090508060000160009054906101000a900460ff169080600101805461166190612a74565b80601f016020809104026020016040519081016040528092919081815260200182805461168d90612a74565b80156116da5780601f106116af576101008083540402835291602001916116da565b820191906000526020600020905b8154815290600101906020018083116116bd57829003601f168201915b5050505050908060020160009054906101000a900460ff16905083565b600b6020528060005260406000206000915090508060000160009054906101000a900463ffffffff169080600101805461173090612a74565b80601f016020809104026020016040519081016040528092919081815260200182805461175c90612a74565b80156117a95780601f1061177e576101008083540402835291602001916117a9565b820191906000526020600020905b81548152906001019060200180831161178c57829003601f168201915b5050505050905082565b600460003373ffffffffffffffffffffffffffffffffffffffff1673ffffffffffffffffffffffffffffffffffffffff16815260200190815260200160002060000160009054906101000a900460ff168061185a5750600660003373ffffffffffffffffffffffffffffffffffffffff1673ffffffffffffffffffffffffffffffffffffffff16815260200190815260200160002060000160009054906101000a900460ff165b806118b15750600860003373ffffffffffffffffffffffffffffffffffffffff1673ffffffffffffffffffffffffffffffffffffffff16815260200190815260200160002060000160009054906101000a900460ff165b6118f0576040517f08c379a00000000000000000000000000000000000000000000000000000000081526004016118e79061279d565b60405180910390fd5b600360008a73ffffffffffffffffffffffffffffffffffffffff1673ffffffffffffffffffffffffffffffffffffffff16815260200190815260200160002060000160009054906101000a900460ff1661197f576040517f08c379a00000000000000000000000000000000000000000000000000000000081526004016119769061277d565b60405180910390fd5b6000600c600081548092919061199490612ad7565b91905055905088600d60008c73ffffffffffffffffffffffffffffffffffffffff1673ffffffffffffffffffffffffffffffffffffffff168152602001908152602001600020600083815260200190815260200160002060010160146101000a81548163ffffffff021916908363ffffffff16021790555087600d60008c73ffffffffffffffffffffffffffffffffffffffff1673ffffffffffffffffffffffffffffffffffffffff168152602001908152602001600020600083815260200190815260200160002060010160186101000a81548160ff021916908360ff16021790555086600d60008c73ffffffffffffffffffffffffffffffffffffffff1673ffffffffffffffffffffffffffffffffffffffff168152602001908152602001600020600083815260200190815260200160002060010160196101000a81548160ff02191690836002811115611aee57611aed612b4f565b5b021790555085600d60008c73ffffffffffffffffffffffffffffffffffffffff1673ffffffffffffffffffffffffffffffffffffffff16815260200190815260200160002060008381526020019081526020016000206002019080519060200190611b5a929190612066565b5084600d60008c73ffffffffffffffffffffffffffffffffffffffff1673ffffffffffffffffffffffffffffffffffffffff16815260200190815260200160002060008381526020019081526020016000206003018190555083600d60008c73ffffffffffffffffffffffffffffffffffffffff1673ffffffffffffffffffffffffffffffffffffffff16815260200190815260200160002060008381526020019081526020016000206004018190555082600d60008c73ffffffffffffffffffffffffffffffffffffffff1673ffffffffffffffffffffffffffffffffffffffff168152602001908152602001600020600083815260200190815260200160002060050160006101000a81548160ff021916908360ff16021790555081600d60008c73ffffffffffffffffffffffffffffffffffffffff1673ffffffffffffffffffffffffffffffffffffffff168152602001908152602001600020600083815260200190815260200160002060050160016101000a81548163ffffffff021916908363ffffffff16021790555042600d60008c73ffffffffffffffffffffffffffffffffffffffff1673ffffffffffffffffffffffffffffffffffffffff1681526020019081526020016000206000838152602001908152602001600020600601600001819055506001600d60008c73ffffffffffffffffffffffffffffffffffffffff1673ffffffffffffffffffffffffffffffffffffffff168152602001908152602001600020600083815260200190815260200160002060060160010160146101000a81548160ff02191690836002811115611dbe57611dbd612b4f565b5b021790555033600d60008c73ffffffffffffffffffffffffffffffffffffffff1673ffffffffffffffffffffffffffffffffffffffff168152602001908152602001600020600083815260200190815260200160002060060160010160006101000a81548173ffffffffffffffffffffffffffffffffffffffff021916908373ffffffffffffffffffffffffffffffffffffffff1602179055507f5ad0792471e6b8d6289d325d174cfb7e274ac9529efeb295f4abce0a90cdcb238a848b8b604051611e8d9493929190612604565b60405180910390a150505050505050505050565b600c5481565b60056020528060005260406000206000915090508060000160009054906101000a900460ff16908060000160019054906101000a900473ffffffffffffffffffffffffffffffffffffffff16908060000160159054906101000a900461ffff16908060000160179054906101000a900460ff1690806001018054611f2a90612a74565b80601f0160208091040260200160405190810160405280929190818152602001828054611f5690612a74565b8015611fa35780601f10611f7857610100808354040283529160200191611fa3565b820191906000526020600020905b815481529060010190602001808311611f8657829003601f168201915b505050505090806002018054611fb890612a74565b80601f0160208091040260200160405190810160405280929190818152602001828054611fe490612a74565b80156120315780601f1061200657610100808354040283529160200191612031565b820191906000526020600020905b81548152906001019060200180831161201457829003601f168201915b5050505050905086565b60036020528060005260406000206000915090508060000160009054906101000a900460ff16905081565b82805461207290612a74565b90600052602060002090601f01602090048101928261209457600085556120db565b82601f106120ad57805160ff19168380011785556120db565b828001600101855582156120db579182015b828111156120da5782518255916020019190600101906120bf565b5b5090506120e891906120ec565b5090565b5b808211156121055760008160009055506001016120ed565b5090565b600061211c612117846128df565b6128ba565b90508281526020810184848401111561213857612137612be1565b5b612143848285612a32565b509392505050565b60008135905061215a81612cb8565b92915050565b60008135905061216f81612ccf565b92915050565b600082601f83011261218a57612189612bdc565b5b813561219a848260208601612109565b91505092915050565b6000813590506121b281612cdf565b92915050565b6000813590506121c781612cf6565b92915050565b6000813590506121dc81612d0d565b92915050565b6000602082840312156121f8576121f7612beb565b5b60006122068482850161214b565b91505092915050565b6000806040838503121561222657612225612beb565b5b60006122348582860161214b565b9250506020612245858286016121a3565b9150509250929050565b6000806000806000806000806000806101408b8d03121561227357612272612beb565b5b60006122818d828e0161214b565b9a505060206122928d828e016121a3565b99505060406122a38d828e016121b8565b98505060606122b48d828e016121cd565b97505060806122c58d828e01612160565b96505060a08b013567ffffffffffffffff8111156122e6576122e5612be6565b5b6122f28d828e01612175565b95505060c06123038d828e016121a3565b94505060e06123148d828e016121a3565b9350506101006123268d828e016121cd565b9250506101206123388d828e016121b8565b9150509295989b9194979a5092959850565b60008060008060008060008060006101208a8c03121561236d5761236c612beb565b5b600061237b8c828d0161214b565b995050602061238c8c828d016121b8565b985050604061239d8c828d016121cd565b97505060606123ae8c828d01612160565b96505060808a013567ffffffffffffffff8111156123cf576123ce612be6565b5b6123db8c828d01612175565b95505060a06123ec8c828d016121a3565b94505060c06123fd8c828d016121a3565b93505060e061240e8c828d016121cd565b9250506101006124208c828d016121b8565b9150509295985092959850929598565b60006020828403121561244657612445612beb565b5b6000612454848285016121b8565b91505092915050565b6124668161292c565b82525050565b6124758161292c565b82525050565b6124848161293e565b82525050565b612493816129d8565b82525050565b6124a2816129ea565b82525050565b6124b1816129fc565b82525050565b60006124c282612910565b6124cc818561291b565b93506124dc818560208601612a41565b6124e581612bf0565b840191505092915050565b60006124fd60208361291b565b915061250882612c01565b602082019050919050565b600061252060128361291b565b915061252b82612c2a565b602082019050919050565b600061254360208361291b565b915061254e82612c53565b602082019050919050565b60608201600082015161256f60008501826125aa565b506020820151612582602085018261245d565b5060408201516125956040850182612499565b50505050565b6125a481612983565b82525050565b6125b3816129b1565b82525050565b6125c2816129b1565b82525050565b6125d181612a0e565b82525050565b6125e0816129bb565b82525050565b6125ef81612a20565b82525050565b6125fe816129cb565b82525050565b6000608082019050612619600083018761246c565b61262660208301866125f5565b61263360408301856125c8565b61264060608301846125e6565b95945050505050565b600060208201905061265e600083018461247b565b92915050565b600060c082019050612679600083018961247b565b612686602083018861246c565b612693604083018761259b565b6126a060608301866124a8565b81810360808301526126b281856124b7565b905081810360a08301526126c681846124b7565b9050979650505050505050565b60006060820190506126e8600083018661247b565b81810360208301526126fa81856124b7565b905061270960408301846125f5565b949350505050565b6000608082019050612726600083018761247b565b61273360208301866125f5565b61274060408301856125b9565b818103606083015261275281846124b7565b905095945050505050565b60006020820190508181036000830152612776816124f0565b9050919050565b6000602082019050818103600083015261279681612513565b9050919050565b600060208201905081810360008301526127b681612536565b9050919050565b60006020820190506127d260008301846125b9565b92915050565b60006101a0820190506127ee600083018e6125b9565b6127fb602083018d61246c565b612808604083018c6125d7565b612815606083018b6125f5565b612822608083018a61248a565b81810360a083015261283481896124b7565b905061284360c08301886125b9565b61285060e08301876125b9565b61285e6101008301866125f5565b61286c6101208301856125d7565b61287a610140830184612559565b9c9b505050505050505050505050565b600060408201905061289f60008301856125d7565b81810360208301526128b181846124b7565b90509392505050565b60006128c46128d5565b90506128d08282612aa6565b919050565b6000604051905090565b600067ffffffffffffffff8211156128fa576128f9612bad565b5b61290382612bf0565b9050602081019050919050565b600081519050919050565b600082825260208201905092915050565b600061293782612991565b9050919050565b60008115159050919050565b600081905061295882612c7c565b919050565b600081905061296b82612c90565b919050565b600081905061297e82612ca4565b919050565b600061ffff82169050919050565b600073ffffffffffffffffffffffffffffffffffffffff82169050919050565b6000819050919050565b600063ffffffff82169050919050565b600060ff82169050919050565b60006129e38261294a565b9050919050565b60006129f58261295d565b9050919050565b6000612a0782612970565b9050919050565b6000612a19826129bb565b9050919050565b6000612a2b826129cb565b9050919050565b82818337600083830152505050565b60005b83811015612a5f578082015181840152602081019050612a44565b83811115612a6e576000848401525b50505050565b60006002820490506001821680612a8c57607f821691505b60208210811415612aa057612a9f612b7e565b5b50919050565b612aaf82612bf0565b810181811067ffffffffffffffff82111715612ace57612acd612bad565b5b80604052505050565b6000612ae2826129b1565b91507fffffffffffffffffffffffffffffffffffffffffffffffffffffffffffffffff821415612b1557612b14612b20565b5b600182019050919050565b7f4e487b7100000000000000000000000000000000000000000000000000000000600052601160045260246000fd5b7f4e487b7100000000000000000000000000000000000000000000000000000000600052602160045260246000fd5b7f4e487b7100000000000000000000000000000000000000000000000000000000600052602260045260246000fd5b7f4e487b7100000000000000000000000000000000000000000000000000000000600052604160045260246000fd5b600080fd5b600080fd5b600080fd5b600080fd5b6000601f19601f8301169050919050565b7f42752069736c656d6920736164656365204b697369207961706162696c69722e600082015250565b7f53747564656e74206e6f74206578697374730000000000000000000000000000600082015250565b7f42752069736c656d6920736164656365204b757273207961706162696c69722e600082015250565b60038110612c8d57612c8c612b4f565b5b50565b60038110612ca157612ca0612b4f565b5b50565b60048110612cb557612cb4612b4f565b5b50565b612cc18161292c565b8114612ccc57600080fd5b50565b60038110612cdc57600080fd5b50565b612ce8816129b1565b8114612cf357600080fd5b50565b612cff816129bb565b8114612d0a57600080fd5b50565b612d16816129cb565b8114612d2157600080fd5b5056fea2646970667358221220cb74f161662bbc33c299ea3de02d65407389af088d193ea68a2a08342cabc69964736f6c63430008070033",
					"opcodes": "PUSH1 0x80 PUSH1 0x40 MSTORE CALLVALUE DUP1 ISZERO PUSH2 0x10 JUMPI PUSH1 0x0 DUP1 REVERT JUMPDEST POP PUSH2 0x2D5A DUP1 PUSH2 0x20 PUSH1 0x0 CODECOPY PUSH1 0x0 RETURN INVALID PUSH1 0x80 PUSH1 0x40 MSTORE CALLVALUE DUP1 ISZERO PUSH2 0x10 JUMPI PUSH1 0x0 DUP1 REVERT JUMPDEST POP PUSH1 0x4 CALLDATASIZE LT PUSH2 0xEA JUMPI PUSH1 0x0 CALLDATALOAD PUSH1 0xE0 SHR DUP1 PUSH4 0x7D0FA287 GT PUSH2 0x8C JUMPI DUP1 PUSH4 0xAC30910C GT PUSH2 0x66 JUMPI DUP1 PUSH4 0xAC30910C EQ PUSH2 0x2D3 JUMPI DUP1 PUSH4 0xAF640D0F EQ PUSH2 0x2EF JUMPI DUP1 PUSH4 0xBA479B7E EQ PUSH2 0x30D JUMPI DUP1 PUSH4 0xCBC92809 EQ PUSH2 0x342 JUMPI PUSH2 0xEA JUMP JUMPDEST DUP1 PUSH4 0x7D0FA287 EQ PUSH2 0x23E JUMPI DUP1 PUSH4 0x9A8C9119 EQ PUSH2 0x270 JUMPI DUP1 PUSH4 0xA4E7AE05 EQ PUSH2 0x2A2 JUMPI PUSH2 0xEA JUMP JUMPDEST DUP1 PUSH4 0x28266697 GT PUSH2 0xC8 JUMPI DUP1 PUSH4 0x28266697 EQ PUSH2 0x177 JUMPI DUP1 PUSH4 0x356B1F1E EQ PUSH2 0x1A9 JUMPI DUP1 PUSH4 0x39987F94 EQ PUSH2 0x1DB JUMPI DUP1 PUSH4 0x62BDA16B EQ PUSH2 0x20E JUMPI PUSH2 0xEA JUMP JUMPDEST DUP1 PUSH4 0x35963CE EQ PUSH2 0xEF JUMPI DUP1 PUSH4 0xFB0B1B2 EQ PUSH2 0x10B JUMPI DUP1 PUSH4 0x1916E139 EQ PUSH2 0x145 JUMPI JUMPDEST PUSH1 0x0 DUP1 REVERT JUMPDEST PUSH2 0x109 PUSH1 0x4 DUP1 CALLDATASIZE SUB DUP2 ADD SWAP1 PUSH2 0x104 SWAP2 SWAP1 PUSH2 0x234A JUMP JUMPDEST PUSH2 0x372 JUMP JUMPDEST STOP JUMPDEST PUSH2 0x125 PUSH1 0x4 DUP1 CALLDATASIZE SUB DUP2 ADD SWAP1 PUSH2 0x120 SWAP2 SWAP1 PUSH2 0x220F JUMP JUMPDEST PUSH2 0x954 JUMP JUMPDEST PUSH1 0x40 MLOAD PUSH2 0x13C SWAP12 SWAP11 SWAP10 SWAP9 SWAP8 SWAP7 SWAP6 SWAP5 SWAP4 SWAP3 SWAP2 SWAP1 PUSH2 0x27D8 JUMP JUMPDEST PUSH1 0x40 MLOAD DUP1 SWAP2 SUB SWAP1 RETURN JUMPDEST PUSH2 0x15F PUSH1 0x4 DUP1 CALLDATASIZE SUB DUP2 ADD SWAP1 PUSH2 0x15A SWAP2 SWAP1 PUSH2 0x21E2 JUMP JUMPDEST PUSH2 0xB4F JUMP JUMPDEST PUSH1 0x40 MLOAD PUSH2 0x16E SWAP4 SWAP3 SWAP2 SWAP1 PUSH2 0x26D3 JUMP JUMPDEST PUSH1 0x40 MLOAD DUP1 SWAP2 SUB SWAP1 RETURN JUMPDEST PUSH2 0x191 PUSH1 0x4 DUP1 CALLDATASIZE SUB DUP2 ADD SWAP1 PUSH2 0x18C SWAP2 SWAP1 PUSH2 0x21E2 JUMP JUMPDEST PUSH2 0xC1B JUMP JUMPDEST PUSH1 0x40 MLOAD PUSH2 0x1A0 SWAP4 SWAP3 SWAP2 SWAP1 PUSH2 0x26D3 JUMP JUMPDEST PUSH1 0x40 MLOAD DUP1 SWAP2 SUB SWAP1 RETURN JUMPDEST PUSH2 0x1C3 PUSH1 0x4 DUP1 CALLDATASIZE SUB DUP2 ADD SWAP1 PUSH2 0x1BE SWAP2 SWAP1 PUSH2 0x21E2 JUMP JUMPDEST PUSH2 0xCE7 JUMP JUMPDEST PUSH1 0x40 MLOAD PUSH2 0x1D2 SWAP4 SWAP3 SWAP2 SWAP1 PUSH2 0x26D3 JUMP JUMPDEST PUSH1 0x40 MLOAD DUP1 SWAP2 SUB SWAP1 RETURN JUMPDEST PUSH2 0x1F5 PUSH1 0x4 DUP1 CALLDATASIZE SUB DUP2 ADD SWAP1 PUSH2 0x1F0 SWAP2 SWAP1 PUSH2 0x21E2 JUMP JUMPDEST PUSH2 0xDB3 JUMP JUMPDEST PUSH1 0x40 MLOAD PUSH2 0x205 SWAP5 SWAP4 SWAP3 SWAP2 SWAP1 PUSH2 0x2711 JUMP JUMPDEST PUSH1 0x40 MLOAD DUP1 SWAP2 SUB SWAP1 RETURN JUMPDEST PUSH2 0x228 PUSH1 0x4 DUP1 CALLDATASIZE SUB DUP2 ADD SWAP1 PUSH2 0x223 SWAP2 SWAP1 PUSH2 0x224F JUMP JUMPDEST PUSH2 0xE85 JUMP JUMPDEST PUSH1 0x40 MLOAD PUSH2 0x235 SWAP2 SWAP1 PUSH2 0x27BD JUMP JUMPDEST PUSH1 0x40 MLOAD DUP1 SWAP2 SUB SWAP1 RETURN JUMPDEST PUSH2 0x258 PUSH1 0x4 DUP1 CALLDATASIZE SUB DUP2 ADD SWAP1 PUSH2 0x253 SWAP2 SWAP1 PUSH2 0x21E2 JUMP JUMPDEST PUSH2 0x155F JUMP JUMPDEST PUSH1 0x40 MLOAD PUSH2 0x267 SWAP4 SWAP3 SWAP2 SWAP1 PUSH2 0x26D3 JUMP JUMPDEST PUSH1 0x40 MLOAD DUP1 SWAP2 SUB SWAP1 RETURN JUMPDEST PUSH2 0x28A PUSH1 0x4 DUP1 CALLDATASIZE SUB DUP2 ADD SWAP1 PUSH2 0x285 SWAP2 SWAP1 PUSH2 0x21E2 JUMP JUMPDEST PUSH2 0x162B JUMP JUMPDEST PUSH1 0x40 MLOAD PUSH2 0x299 SWAP4 SWAP3 SWAP2 SWAP1 PUSH2 0x26D3 JUMP JUMPDEST PUSH1 0x40 MLOAD DUP1 SWAP2 SUB SWAP1 RETURN JUMPDEST PUSH2 0x2BC PUSH1 0x4 DUP1 CALLDATASIZE SUB DUP2 ADD SWAP1 PUSH2 0x2B7 SWAP2 SWAP1 PUSH2 0x2430 JUMP JUMPDEST PUSH2 0x16F7 JUMP JUMPDEST PUSH1 0x40 MLOAD PUSH2 0x2CA SWAP3 SWAP2 SWAP1 PUSH2 0x288A JUMP JUMPDEST PUSH1 0x40 MLOAD DUP1 SWAP2 SUB SWAP1 RETURN JUMPDEST PUSH2 0x2ED PUSH1 0x4 DUP1 CALLDATASIZE SUB DUP2 ADD SWAP1 PUSH2 0x2E8 SWAP2 SWAP1 PUSH2 0x234A JUMP JUMPDEST PUSH2 0x17B3 JUMP JUMPDEST STOP JUMPDEST PUSH2 0x2F7 PUSH2 0x1EA1 JUMP JUMPDEST PUSH1 0x40 MLOAD PUSH2 0x304 SWAP2 SWAP1 PUSH2 0x27BD JUMP JUMPDEST PUSH1 0x40 MLOAD DUP1 SWAP2 SUB SWAP1 RETURN JUMPDEST PUSH2 0x327 PUSH1 0x4 DUP1 CALLDATASIZE SUB DUP2 ADD SWAP1 PUSH2 0x322 SWAP2 SWAP1 PUSH2 0x21E2 JUMP JUMPDEST PUSH2 0x1EA7 JUMP JUMPDEST PUSH1 0x40 MLOAD PUSH2 0x339 SWAP7 SWAP6 SWAP5 SWAP4 SWAP3 SWAP2 SWAP1 PUSH2 0x2664 JUMP JUMPDEST PUSH1 0x40 MLOAD DUP1 SWAP2 SUB SWAP1 RETURN JUMPDEST PUSH2 0x35C PUSH1 0x4 DUP1 CALLDATASIZE SUB DUP2 ADD SWAP1 PUSH2 0x357 SWAP2 SWAP1 PUSH2 0x21E2 JUMP JUMPDEST PUSH2 0x203B JUMP JUMPDEST PUSH1 0x40 MLOAD PUSH2 0x369 SWAP2 SWAP1 PUSH2 0x2649 JUMP JUMPDEST PUSH1 0x40 MLOAD DUP1 SWAP2 SUB SWAP1 RETURN JUMPDEST PUSH1 0x3 PUSH1 0x0 CALLER PUSH20 0xFFFFFFFFFFFFFFFFFFFFFFFFFFFFFFFFFFFFFFFF AND PUSH20 0xFFFFFFFFFFFFFFFFFFFFFFFFFFFFFFFFFFFFFFFF AND DUP2 MSTORE PUSH1 0x20 ADD SWAP1 DUP2 MSTORE PUSH1 0x20 ADD PUSH1 0x0 KECCAK256 PUSH1 0x0 ADD PUSH1 0x0 SWAP1 SLOAD SWAP1 PUSH2 0x100 EXP SWAP1 DIV PUSH1 0xFF AND PUSH2 0x401 JUMPI PUSH1 0x40 MLOAD PUSH32 0x8C379A000000000000000000000000000000000000000000000000000000000 DUP2 MSTORE PUSH1 0x4 ADD PUSH2 0x3F8 SWAP1 PUSH2 0x275D JUMP JUMPDEST PUSH1 0x40 MLOAD DUP1 SWAP2 SUB SWAP1 REVERT JUMPDEST PUSH1 0x3 PUSH1 0x0 CALLER PUSH20 0xFFFFFFFFFFFFFFFFFFFFFFFFFFFFFFFFFFFFFFFF AND PUSH20 0xFFFFFFFFFFFFFFFFFFFFFFFFFFFFFFFFFFFFFFFF AND DUP2 MSTORE PUSH1 0x20 ADD SWAP1 DUP2 MSTORE PUSH1 0x20 ADD PUSH1 0x0 KECCAK256 PUSH1 0x0 ADD PUSH1 0x0 SWAP1 SLOAD SWAP1 PUSH2 0x100 EXP SWAP1 DIV PUSH1 0xFF AND PUSH2 0x490 JUMPI PUSH1 0x40 MLOAD PUSH32 0x8C379A000000000000000000000000000000000000000000000000000000000 DUP2 MSTORE PUSH1 0x4 ADD PUSH2 0x487 SWAP1 PUSH2 0x277D JUMP JUMPDEST PUSH1 0x40 MLOAD DUP1 SWAP2 SUB SWAP1 REVERT JUMPDEST PUSH1 0x0 PUSH1 0xC PUSH1 0x0 DUP2 SLOAD DUP1 SWAP3 SWAP2 SWAP1 PUSH2 0x4A5 SWAP1 PUSH2 0x2AD7 JUMP JUMPDEST SWAP2 SWAP1 POP SSTORE SWAP1 POP DUP10 PUSH1 0xD PUSH1 0x0 CALLER PUSH20 0xFFFFFFFFFFFFFFFFFFFFFFFFFFFFFFFFFFFFFFFF AND PUSH20 0xFFFFFFFFFFFFFFFFFFFFFFFFFFFFFFFFFFFFFFFF AND DUP2 MSTORE PUSH1 0x20 ADD SWAP1 DUP2 MSTORE PUSH1 0x20 ADD PUSH1 0x0 KECCAK256 PUSH1 0x0 DUP4 DUP2 MSTORE PUSH1 0x20 ADD SWAP1 DUP2 MSTORE PUSH1 0x20 ADD PUSH1 0x0 KECCAK256 PUSH1 0x1 ADD PUSH1 0x0 PUSH2 0x100 EXP DUP2 SLOAD DUP2 PUSH20 0xFFFFFFFFFFFFFFFFFFFFFFFFFFFFFFFFFFFFFFFF MUL NOT AND SWAP1 DUP4 PUSH20 0xFFFFFFFFFFFFFFFFFFFFFFFFFFFFFFFFFFFFFFFF AND MUL OR SWAP1 SSTORE POP DUP9 PUSH1 0xD PUSH1 0x0 CALLER PUSH20 0xFFFFFFFFFFFFFFFFFFFFFFFFFFFFFFFFFFFFFFFF AND PUSH20 0xFFFFFFFFFFFFFFFFFFFFFFFFFFFFFFFFFFFFFFFF AND DUP2 MSTORE PUSH1 0x20 ADD SWAP1 DUP2 MSTORE PUSH1 0x20 ADD PUSH1 0x0 KECCAK256 PUSH1 0x0 DUP4 DUP2 MSTORE PUSH1 0x20 ADD SWAP1 DUP2 MSTORE PUSH1 0x20 ADD PUSH1 0x0 KECCAK256 PUSH1 0x1 ADD PUSH1 0x14 PUSH2 0x100 EXP DUP2 SLOAD DUP2 PUSH4 0xFFFFFFFF MUL NOT AND SWAP1 DUP4 PUSH4 0xFFFFFFFF AND MUL OR SWAP1 SSTORE POP DUP8 PUSH1 0xD PUSH1 0x0 CALLER PUSH20 0xFFFFFFFFFFFFFFFFFFFFFFFFFFFFFFFFFFFFFFFF AND PUSH20 0xFFFFFFFFFFFFFFFFFFFFFFFFFFFFFFFFFFFFFFFF AND DUP2 MSTORE PUSH1 0x20 ADD SWAP1 DUP2 MSTORE PUSH1 0x20 ADD PUSH1 0x0 KECCAK256 PUSH1 0x0 DUP4 DUP2 MSTORE PUSH1 0x20 ADD SWAP1 DUP2 MSTORE PUSH1 0x20 ADD PUSH1 0x0 KECCAK256 PUSH1 0x1 ADD PUSH1 0x18 PUSH2 0x100 EXP DUP2 SLOAD DUP2 PUSH1 0xFF MUL NOT AND SWAP1 DUP4 PUSH1 0xFF AND MUL OR SWAP1 SSTORE POP DUP7 PUSH1 0xD PUSH1 0x0 CALLER PUSH20 0xFFFFFFFFFFFFFFFFFFFFFFFFFFFFFFFFFFFFFFFF AND PUSH20 0xFFFFFFFFFFFFFFFFFFFFFFFFFFFFFFFFFFFFFFFF AND DUP2 MSTORE PUSH1 0x20 ADD SWAP1 DUP2 MSTORE PUSH1 0x20 ADD PUSH1 0x0 KECCAK256 PUSH1 0x0 DUP4 DUP2 MSTORE PUSH1 0x20 ADD SWAP1 DUP2 MSTORE PUSH1 0x20 ADD PUSH1 0x0 KECCAK256 PUSH1 0x1 ADD PUSH1 0x19 PUSH2 0x100 EXP DUP2 SLOAD DUP2 PUSH1 0xFF MUL NOT AND SWAP1 DUP4 PUSH1 0x2 DUP2 GT ISZERO PUSH2 0x691 JUMPI PUSH2 0x690 PUSH2 0x2B4F JUMP JUMPDEST JUMPDEST MUL OR SWAP1 SSTORE POP DUP6 PUSH1 0xD PUSH1 0x0 CALLER PUSH20 0xFFFFFFFFFFFFFFFFFFFFFFFFFFFFFFFFFFFFFFFF AND PUSH20 0xFFFFFFFFFFFFFFFFFFFFFFFFFFFFFFFFFFFFFFFF AND DUP2 MSTORE PUSH1 0x20 ADD SWAP1 DUP2 MSTORE PUSH1 0x20 ADD PUSH1 0x0 KECCAK256 PUSH1 0x0 DUP4 DUP2 MSTORE PUSH1 0x20 ADD SWAP1 DUP2 MSTORE PUSH1 0x20 ADD PUSH1 0x0 KECCAK256 PUSH1 0x2 ADD SWAP1 DUP1 MLOAD SWAP1 PUSH1 0x20 ADD SWAP1 PUSH2 0x6FD SWAP3 SWAP2 SWAP1 PUSH2 0x2066 JUMP JUMPDEST POP DUP5 PUSH1 0xD PUSH1 0x0 CALLER PUSH20 0xFFFFFFFFFFFFFFFFFFFFFFFFFFFFFFFFFFFFFFFF AND PUSH20 0xFFFFFFFFFFFFFFFFFFFFFFFFFFFFFFFFFFFFFFFF AND DUP2 MSTORE PUSH1 0x20 ADD SWAP1 DUP2 MSTORE PUSH1 0x20 ADD PUSH1 0x0 KECCAK256 PUSH1 0x0 DUP4 DUP2 MSTORE PUSH1 0x20 ADD SWAP1 DUP2 MSTORE PUSH1 0x20 ADD PUSH1 0x0 KECCAK256 PUSH1 0x3 ADD DUP2 SWAP1 SSTORE POP DUP4 PUSH1 0xD PUSH1 0x0 CALLER PUSH20 0xFFFFFFFFFFFFFFFFFFFFFFFFFFFFFFFFFFFFFFFF AND PUSH20 0xFFFFFFFFFFFFFFFFFFFFFFFFFFFFFFFFFFFFFFFF AND DUP2 MSTORE PUSH1 0x20 ADD SWAP1 DUP2 MSTORE PUSH1 0x20 ADD PUSH1 0x0 KECCAK256 PUSH1 0x0 DUP4 DUP2 MSTORE PUSH1 0x20 ADD SWAP1 DUP2 MSTORE PUSH1 0x20 ADD PUSH1 0x0 KECCAK256 PUSH1 0x4 ADD DUP2 SWAP1 SSTORE POP DUP3 PUSH1 0xD PUSH1 0x0 CALLER PUSH20 0xFFFFFFFFFFFFFFFFFFFFFFFFFFFFFFFFFFFFFFFF AND PUSH20 0xFFFFFFFFFFFFFFFFFFFFFFFFFFFFFFFFFFFFFFFF AND DUP2 MSTORE PUSH1 0x20 ADD SWAP1 DUP2 MSTORE PUSH1 0x20 ADD PUSH1 0x0 KECCAK256 PUSH1 0x0 DUP4 DUP2 MSTORE PUSH1 0x20 ADD SWAP1 DUP2 MSTORE PUSH1 0x20 ADD PUSH1 0x0 KECCAK256 PUSH1 0x5 ADD PUSH1 0x0 PUSH2 0x100 EXP DUP2 SLOAD DUP2 PUSH1 0xFF MUL NOT AND SWAP1 DUP4 PUSH1 0xFF AND MUL OR SWAP1 SSTORE POP DUP2 PUSH1 0xD PUSH1 0x0 CALLER PUSH20 0xFFFFFFFFFFFFFFFFFFFFFFFFFFFFFFFFFFFFFFFF AND PUSH20 0xFFFFFFFFFFFFFFFFFFFFFFFFFFFFFFFFFFFFFFFF AND DUP2 MSTORE PUSH1 0x20 ADD SWAP1 DUP2 MSTORE PUSH1 0x20 ADD PUSH1 0x0 KECCAK256 PUSH1 0x0 DUP4 DUP2 MSTORE PUSH1 0x20 ADD SWAP1 DUP2 MSTORE PUSH1 0x20 ADD PUSH1 0x0 KECCAK256 PUSH1 0x5 ADD PUSH1 0x1 PUSH2 0x100 EXP DUP2 SLOAD DUP2 PUSH4 0xFFFFFFFF MUL NOT AND SWAP1 DUP4 PUSH4 0xFFFFFFFF AND MUL OR SWAP1 SSTORE POP PUSH1 0x0 PUSH1 0xD PUSH1 0x0 CALLER PUSH20 0xFFFFFFFFFFFFFFFFFFFFFFFFFFFFFFFFFFFFFFFF AND PUSH20 0xFFFFFFFFFFFFFFFFFFFFFFFFFFFFFFFFFFFFFFFF AND DUP2 MSTORE PUSH1 0x20 ADD SWAP1 DUP2 MSTORE PUSH1 0x20 ADD PUSH1 0x0 KECCAK256 PUSH1 0x0 DUP4 DUP2 MSTORE PUSH1 0x20 ADD SWAP1 DUP2 MSTORE PUSH1 0x20 ADD PUSH1 0x0 KECCAK256 PUSH1 0x6 ADD PUSH1 0x1 ADD PUSH1 0x14 PUSH2 0x100 EXP DUP2 SLOAD DUP2 PUSH1 0xFF MUL NOT AND SWAP1 DUP4 PUSH1 0x2 DUP2 GT ISZERO PUSH2 0x906 JUMPI PUSH2 0x905 PUSH2 0x2B4F JUMP JUMPDEST JUMPDEST MUL OR SWAP1 SSTORE POP PUSH32 0xB1E7EE8400131F0ADC507179EA96EE8EB90B1A9E9215CE4232F874CB41AA88EF DUP11 DUP5 DUP12 DUP12 PUSH1 0x40 MLOAD PUSH2 0x940 SWAP5 SWAP4 SWAP3 SWAP2 SWAP1 PUSH2 0x2604 JUMP JUMPDEST PUSH1 0x40 MLOAD DUP1 SWAP2 SUB SWAP1 LOG1 POP POP POP POP POP POP POP POP POP POP JUMP JUMPDEST PUSH1 0xD PUSH1 0x20 MSTORE DUP2 PUSH1 0x0 MSTORE PUSH1 0x40 PUSH1 0x0 KECCAK256 PUSH1 0x20 MSTORE DUP1 PUSH1 0x0 MSTORE PUSH1 0x40 PUSH1 0x0 KECCAK256 PUSH1 0x0 SWAP2 POP SWAP2 POP POP DUP1 PUSH1 0x0 ADD SLOAD SWAP1 DUP1 PUSH1 0x1 ADD PUSH1 0x0 SWAP1 SLOAD SWAP1 PUSH2 0x100 EXP SWAP1 DIV PUSH20 0xFFFFFFFFFFFFFFFFFFFFFFFFFFFFFFFFFFFFFFFF AND SWAP1 DUP1 PUSH1 0x1 ADD PUSH1 0x14 SWAP1 SLOAD SWAP1 PUSH2 0x100 EXP SWAP1 DIV PUSH4 0xFFFFFFFF AND SWAP1 DUP1 PUSH1 0x1 ADD PUSH1 0x18 SWAP1 SLOAD SWAP1 PUSH2 0x100 EXP SWAP1 DIV PUSH1 0xFF AND SWAP1 DUP1 PUSH1 0x1 ADD PUSH1 0x19 SWAP1 SLOAD SWAP1 PUSH2 0x100 EXP SWAP1 DIV PUSH1 0xFF AND SWAP1 DUP1 PUSH1 0x2 ADD DUP1 SLOAD PUSH2 0x9EC SWAP1 PUSH2 0x2A74 JUMP JUMPDEST DUP1 PUSH1 0x1F ADD PUSH1 0x20 DUP1 SWAP2 DIV MUL PUSH1 0x20 ADD PUSH1 0x40 MLOAD SWAP1 DUP2 ADD PUSH1 0x40 MSTORE DUP1 SWAP3 SWAP2 SWAP1 DUP2 DUP2 MSTORE PUSH1 0x20 ADD DUP3 DUP1 SLOAD PUSH2 0xA18 SWAP1 PUSH2 0x2A74 JUMP JUMPDEST DUP1 ISZERO PUSH2 0xA65 JUMPI DUP1 PUSH1 0x1F LT PUSH2 0xA3A JUMPI PUSH2 0x100 DUP1 DUP4 SLOAD DIV MUL DUP4 MSTORE SWAP2 PUSH1 0x20 ADD SWAP2 PUSH2 0xA65 JUMP JUMPDEST DUP3 ADD SWAP2 SWAP1 PUSH1 0x0 MSTORE PUSH1 0x20 PUSH1 0x0 KECCAK256 SWAP1 JUMPDEST DUP2 SLOAD DUP2 MSTORE SWAP1 PUSH1 0x1 ADD SWAP1 PUSH1 0x20 ADD DUP1 DUP4 GT PUSH2 0xA48 JUMPI DUP3 SWAP1 SUB PUSH1 0x1F AND DUP3 ADD SWAP2 JUMPDEST POP POP POP POP POP SWAP1 DUP1 PUSH1 0x3 ADD SLOAD SWAP1 DUP1 PUSH1 0x4 ADD SLOAD SWAP1 DUP1 PUSH1 0x5 ADD PUSH1 0x0 SWAP1 SLOAD SWAP1 PUSH2 0x100 EXP SWAP1 DIV PUSH1 0xFF AND SWAP1 DUP1 PUSH1 0x5 ADD PUSH1 0x1 SWAP1 SLOAD SWAP1 PUSH2 0x100 EXP SWAP1 DIV PUSH4 0xFFFFFFFF AND SWAP1 DUP1 PUSH1 0x6 ADD PUSH1 0x40 MLOAD DUP1 PUSH1 0x60 ADD PUSH1 0x40 MSTORE SWAP1 DUP2 PUSH1 0x0 DUP3 ADD SLOAD DUP2 MSTORE PUSH1 0x20 ADD PUSH1 0x1 DUP3 ADD PUSH1 0x0 SWAP1 SLOAD SWAP1 PUSH2 0x100 EXP SWAP1 DIV PUSH20 0xFFFFFFFFFFFFFFFFFFFFFFFFFFFFFFFFFFFFFFFF AND PUSH20 0xFFFFFFFFFFFFFFFFFFFFFFFFFFFFFFFFFFFFFFFF AND PUSH20 0xFFFFFFFFFFFFFFFFFFFFFFFFFFFFFFFFFFFFFFFF AND DUP2 MSTORE PUSH1 0x20 ADD PUSH1 0x1 DUP3 ADD PUSH1 0x14 SWAP1 SLOAD SWAP1 PUSH2 0x100 EXP SWAP1 DIV PUSH1 0xFF AND PUSH1 0x2 DUP2 GT ISZERO PUSH2 0xB34 JUMPI PUSH2 0xB33 PUSH2 0x2B4F JUMP JUMPDEST JUMPDEST PUSH1 0x2 DUP2 GT ISZERO PUSH2 0xB46 JUMPI PUSH2 0xB45 PUSH2 0x2B4F JUMP JUMPDEST JUMPDEST DUP2 MSTORE POP POP SWAP1 POP DUP12 JUMP JUMPDEST PUSH1 0x7 PUSH1 0x20 MSTORE DUP1 PUSH1 0x0 MSTORE PUSH1 0x40 PUSH1 0x0 KECCAK256 PUSH1 0x0 SWAP2 POP SWAP1 POP DUP1 PUSH1 0x0 ADD PUSH1 0x0 SWAP1 SLOAD SWAP1 PUSH2 0x100 EXP SWAP1 DIV PUSH1 0xFF AND SWAP1 DUP1 PUSH1 0x1 ADD DUP1 SLOAD PUSH2 0xB85 SWAP1 PUSH2 0x2A74 JUMP JUMPDEST DUP1 PUSH1 0x1F ADD PUSH1 0x20 DUP1 SWAP2 DIV MUL PUSH1 0x20 ADD PUSH1 0x40 MLOAD SWAP1 DUP2 ADD PUSH1 0x40 MSTORE DUP1 SWAP3 SWAP2 SWAP1 DUP2 DUP2 MSTORE PUSH1 0x20 ADD DUP3 DUP1 SLOAD PUSH2 0xBB1 SWAP1 PUSH2 0x2A74 JUMP JUMPDEST DUP1 ISZERO PUSH2 0xBFE JUMPI DUP1 PUSH1 0x1F LT PUSH2 0xBD3 JUMPI PUSH2 0x100 DUP1 DUP4 SLOAD DIV MUL DUP4 MSTORE SWAP2 PUSH1 0x20 ADD SWAP2 PUSH2 0xBFE JUMP JUMPDEST DUP3 ADD SWAP2 SWAP1 PUSH1 0x0 MSTORE PUSH1 0x20 PUSH1 0x0 KECCAK256 SWAP1 JUMPDEST DUP2 SLOAD DUP2 MSTORE SWAP1 PUSH1 0x1 ADD SWAP1 PUSH1 0x20 ADD DUP1 DUP4 GT PUSH2 0xBE1 JUMPI DUP3 SWAP1 SUB PUSH1 0x1F AND DUP3 ADD SWAP2 JUMPDEST POP POP POP POP POP SWAP1 DUP1 PUSH1 0x2 ADD PUSH1 0x0 SWAP1 SLOAD SWAP1 PUSH2 0x100 EXP SWAP1 DIV PUSH1 0xFF AND SWAP1 POP DUP4 JUMP JUMPDEST PUSH1 0x4 PUSH1 0x20 MSTORE DUP1 PUSH1 0x0 MSTORE PUSH1 0x40 PUSH1 0x0 KECCAK256 PUSH1 0x0 SWAP2 POP SWAP1 POP DUP1 PUSH1 0x0 ADD PUSH1 0x0 SWAP1 SLOAD SWAP1 PUSH2 0x100 EXP SWAP1 DIV PUSH1 0xFF AND SWAP1 DUP1 PUSH1 0x1 ADD DUP1 SLOAD PUSH2 0xC51 SWAP1 PUSH2 0x2A74 JUMP JUMPDEST DUP1 PUSH1 0x1F ADD PUSH1 0x20 DUP1 SWAP2 DIV MUL PUSH1 0x20 ADD PUSH1 0x40 MLOAD SWAP1 DUP2 ADD PUSH1 0x40 MSTORE DUP1 SWAP3 SWAP2 SWAP1 DUP2 DUP2 MSTORE PUSH1 0x20 ADD DUP3 DUP1 SLOAD PUSH2 0xC7D SWAP1 PUSH2 0x2A74 JUMP JUMPDEST DUP1 ISZERO PUSH2 0xCCA JUMPI DUP1 PUSH1 0x1F LT PUSH2 0xC9F JUMPI PUSH2 0x100 DUP1 DUP4 SLOAD DIV MUL DUP4 MSTORE SWAP2 PUSH1 0x20 ADD SWAP2 PUSH2 0xCCA JUMP JUMPDEST DUP3 ADD SWAP2 SWAP1 PUSH1 0x0 MSTORE PUSH1 0x20 PUSH1 0x0 KECCAK256 SWAP1 JUMPDEST DUP2 SLOAD DUP2 MSTORE SWAP1 PUSH1 0x1 ADD SWAP1 PUSH1 0x20 ADD DUP1 DUP4 GT PUSH2 0xCAD JUMPI DUP3 SWAP1 SUB PUSH1 0x1F AND DUP3 ADD SWAP2 JUMPDEST POP POP POP POP POP SWAP1 DUP1 PUSH1 0x2 ADD PUSH1 0x0 SWAP1 SLOAD SWAP1 PUSH2 0x100 EXP SWAP1 DIV PUSH1 0xFF AND SWAP1 POP DUP4 JUMP JUMPDEST PUSH1 0xA PUSH1 0x20 MSTORE DUP1 PUSH1 0x0 MSTORE PUSH1 0x40 PUSH1 0x0 KECCAK256 PUSH1 0x0 SWAP2 POP SWAP1 POP DUP1 PUSH1 0x0 ADD PUSH1 0x0 SWAP1 SLOAD SWAP1 PUSH2 0x100 EXP SWAP1 DIV PUSH1 0xFF AND SWAP1 DUP1 PUSH1 0x1 ADD DUP1 SLOAD PUSH2 0xD1D SWAP1 PUSH2 0x2A74 JUMP JUMPDEST DUP1 PUSH1 0x1F ADD PUSH1 0x20 DUP1 SWAP2 DIV MUL PUSH1 0x20 ADD PUSH1 0x40 MLOAD SWAP1 DUP2 ADD PUSH1 0x40 MSTORE DUP1 SWAP3 SWAP2 SWAP1 DUP2 DUP2 MSTORE PUSH1 0x20 ADD DUP3 DUP1 SLOAD PUSH2 0xD49 SWAP1 PUSH2 0x2A74 JUMP JUMPDEST DUP1 ISZERO PUSH2 0xD96 JUMPI DUP1 PUSH1 0x1F LT PUSH2 0xD6B JUMPI PUSH2 0x100 DUP1 DUP4 SLOAD DIV MUL DUP4 MSTORE SWAP2 PUSH1 0x20 ADD SWAP2 PUSH2 0xD96 JUMP JUMPDEST DUP3 ADD SWAP2 SWAP1 PUSH1 0x0 MSTORE PUSH1 0x20 PUSH1 0x0 KECCAK256 SWAP1 JUMPDEST DUP2 SLOAD DUP2 MSTORE SWAP1 PUSH1 0x1 ADD SWAP1 PUSH1 0x20 ADD DUP1 DUP4 GT PUSH2 0xD79 JUMPI DUP3 SWAP1 SUB PUSH1 0x1F AND DUP3 ADD SWAP2 JUMPDEST POP POP POP POP POP SWAP1 DUP1 PUSH1 0x2 ADD PUSH1 0x0 SWAP1 SLOAD SWAP1 PUSH2 0x100 EXP SWAP1 DIV PUSH1 0xFF AND SWAP1 POP DUP4 JUMP JUMPDEST PUSH1 0x6 PUSH1 0x20 MSTORE DUP1 PUSH1 0x0 MSTORE PUSH1 0x40 PUSH1 0x0 KECCAK256 PUSH1 0x0 SWAP2 POP SWAP1 POP DUP1 PUSH1 0x0 ADD PUSH1 0x0 SWAP1 SLOAD SWAP1 PUSH2 0x100 EXP SWAP1 DIV PUSH1 0xFF AND SWAP1 DUP1 PUSH1 0x0 ADD PUSH1 0x1 SWAP1 SLOAD SWAP1 PUSH2 0x100 EXP SWAP1 DIV PUSH1 0xFF AND SWAP1 DUP1 PUSH1 0x1 ADD SLOAD SWAP1 DUP1 PUSH1 0x2 ADD DUP1 SLOAD PUSH2 0xE02 SWAP1 PUSH2 0x2A74 JUMP JUMPDEST DUP1 PUSH1 0x1F ADD PUSH1 0x20 DUP1 SWAP2 DIV MUL PUSH1 0x20 ADD PUSH1 0x40 MLOAD SWAP1 DUP2 ADD PUSH1 0x40 MSTORE DUP1 SWAP3 SWAP2 SWAP1 DUP2 DUP2 MSTORE PUSH1 0x20 ADD DUP3 DUP1 SLOAD PUSH2 0xE2E SWAP1 PUSH2 0x2A74 JUMP JUMPDEST DUP1 ISZERO PUSH2 0xE7B JUMPI DUP1 PUSH1 0x1F LT PUSH2 0xE50 JUMPI PUSH2 0x100 DUP1 DUP4 SLOAD DIV MUL DUP4 MSTORE SWAP2 PUSH1 0x20 ADD SWAP2 PUSH2 0xE7B JUMP JUMPDEST DUP3 ADD SWAP2 SWAP1 PUSH1 0x0 MSTORE PUSH1 0x20 PUSH1 0x0 KECCAK256 SWAP1 JUMPDEST DUP2 SLOAD DUP2 MSTORE SWAP1 PUSH1 0x1 ADD SWAP1 PUSH1 0x20 ADD DUP1 DUP4 GT PUSH2 0xE5E JUMPI DUP3 SWAP1 SUB PUSH1 0x1F AND DUP3 ADD SWAP2 JUMPDEST POP POP POP POP POP SWAP1 POP DUP5 JUMP JUMPDEST PUSH1 0x0 PUSH1 0x4 PUSH1 0x0 CALLER PUSH20 0xFFFFFFFFFFFFFFFFFFFFFFFFFFFFFFFFFFFFFFFF AND PUSH20 0xFFFFFFFFFFFFFFFFFFFFFFFFFFFFFFFFFFFFFFFF AND DUP2 MSTORE PUSH1 0x20 ADD SWAP1 DUP2 MSTORE PUSH1 0x20 ADD PUSH1 0x0 KECCAK256 PUSH1 0x0 ADD PUSH1 0x0 SWAP1 SLOAD SWAP1 PUSH2 0x100 EXP SWAP1 DIV PUSH1 0xFF AND DUP1 PUSH2 0xF2E JUMPI POP PUSH1 0x6 PUSH1 0x0 CALLER PUSH20 0xFFFFFFFFFFFFFFFFFFFFFFFFFFFFFFFFFFFFFFFF AND PUSH20 0xFFFFFFFFFFFFFFFFFFFFFFFFFFFFFFFFFFFFFFFF AND DUP2 MSTORE PUSH1 0x20 ADD SWAP1 DUP2 MSTORE PUSH1 0x20 ADD PUSH1 0x0 KECCAK256 PUSH1 0x0 ADD PUSH1 0x0 SWAP1 SLOAD SWAP1 PUSH2 0x100 EXP SWAP1 DIV PUSH1 0xFF AND JUMPDEST DUP1 PUSH2 0xF85 JUMPI POP PUSH1 0x8 PUSH1 0x0 CALLER PUSH20 0xFFFFFFFFFFFFFFFFFFFFFFFFFFFFFFFFFFFFFFFF AND PUSH20 0xFFFFFFFFFFFFFFFFFFFFFFFFFFFFFFFFFFFFFFFF AND DUP2 MSTORE PUSH1 0x20 ADD SWAP1 DUP2 MSTORE PUSH1 0x20 ADD PUSH1 0x0 KECCAK256 PUSH1 0x0 ADD PUSH1 0x0 SWAP1 SLOAD SWAP1 PUSH2 0x100 EXP SWAP1 DIV PUSH1 0xFF AND JUMPDEST PUSH2 0xFC4 JUMPI PUSH1 0x40 MLOAD PUSH32 0x8C379A000000000000000000000000000000000000000000000000000000000 DUP2 MSTORE PUSH1 0x4 ADD PUSH2 0xFBB SWAP1 PUSH2 0x279D JUMP JUMPDEST PUSH1 0x40 MLOAD DUP1 SWAP2 SUB SWAP1 REVERT JUMPDEST PUSH1 0x3 PUSH1 0x0 DUP13 PUSH20 0xFFFFFFFFFFFFFFFFFFFFFFFFFFFFFFFFFFFFFFFF AND PUSH20 0xFFFFFFFFFFFFFFFFFFFFFFFFFFFFFFFFFFFFFFFF AND DUP2 MSTORE PUSH1 0x20 ADD SWAP1 DUP2 MSTORE PUSH1 0x20 ADD PUSH1 0x0 KECCAK256 PUSH1 0x0 ADD PUSH1 0x0 SWAP1 SLOAD SWAP1 PUSH2 0x100 EXP SWAP1 DIV PUSH1 0xFF AND PUSH2 0x1053 JUMPI PUSH1 0x40 MLOAD PUSH32 0x8C379A000000000000000000000000000000000000000000000000000000000 DUP2 MSTORE PUSH1 0x4 ADD PUSH2 0x104A SWAP1 PUSH2 0x277D JUMP JUMPDEST PUSH1 0x40 MLOAD DUP1 SWAP2 SUB SWAP1 REVERT JUMPDEST DUP9 PUSH1 0xD PUSH1 0x0 DUP14 PUSH20 0xFFFFFFFFFFFFFFFFFFFFFFFFFFFFFFFFFFFFFFFF AND PUSH20 0xFFFFFFFFFFFFFFFFFFFFFFFFFFFFFFFFFFFFFFFF AND DUP2 MSTORE PUSH1 0x20 ADD SWAP1 DUP2 MSTORE PUSH1 0x20 ADD PUSH1 0x0 KECCAK256 PUSH1 0x0 DUP13 DUP2 MSTORE PUSH1 0x20 ADD SWAP1 DUP2 MSTORE PUSH1 0x20 ADD PUSH1 0x0 KECCAK256 PUSH1 0x1 ADD PUSH1 0x14 PUSH2 0x100 EXP DUP2 SLOAD DUP2 PUSH4 0xFFFFFFFF MUL NOT AND SWAP1 DUP4 PUSH4 0xFFFFFFFF AND MUL OR SWAP1 SSTORE POP DUP8 PUSH1 0xD PUSH1 0x0 DUP14 PUSH20 0xFFFFFFFFFFFFFFFFFFFFFFFFFFFFFFFFFFFFFFFF AND PUSH20 0xFFFFFFFFFFFFFFFFFFFFFFFFFFFFFFFFFFFFFFFF AND DUP2 MSTORE PUSH1 0x20 ADD SWAP1 DUP2 MSTORE PUSH1 0x20 ADD PUSH1 0x0 KECCAK256 PUSH1 0x0 DUP13 DUP2 MSTORE PUSH1 0x20 ADD SWAP1 DUP2 MSTORE PUSH1 0x20 ADD PUSH1 0x0 KECCAK256 PUSH1 0x1 ADD PUSH1 0x18 PUSH2 0x100 EXP DUP2 SLOAD DUP2 PUSH1 0xFF MUL NOT AND SWAP1 DUP4 PUSH1 0xFF AND MUL OR SWAP1 SSTORE POP DUP7 PUSH1 0xD PUSH1 0x0 DUP14 PUSH20 0xFFFFFFFFFFFFFFFFFFFFFFFFFFFFFFFFFFFFFFFF AND PUSH20 0xFFFFFFFFFFFFFFFFFFFFFFFFFFFFFFFFFFFFFFFF AND DUP2 MSTORE PUSH1 0x20 ADD SWAP1 DUP2 MSTORE PUSH1 0x20 ADD PUSH1 0x0 KECCAK256 PUSH1 0x0 DUP13 DUP2 MSTORE PUSH1 0x20 ADD SWAP1 DUP2 MSTORE PUSH1 0x20 ADD PUSH1 0x0 KECCAK256 PUSH1 0x1 ADD PUSH1 0x19 PUSH2 0x100 EXP DUP2 SLOAD DUP2 PUSH1 0xFF MUL NOT AND SWAP1 DUP4 PUSH1 0x2 DUP2 GT ISZERO PUSH2 0x11A7 JUMPI PUSH2 0x11A6 PUSH2 0x2B4F JUMP JUMPDEST JUMPDEST MUL OR SWAP1 SSTORE POP DUP6 PUSH1 0xD PUSH1 0x0 DUP14 PUSH20 0xFFFFFFFFFFFFFFFFFFFFFFFFFFFFFFFFFFFFFFFF AND PUSH20 0xFFFFFFFFFFFFFFFFFFFFFFFFFFFFFFFFFFFFFFFF AND DUP2 MSTORE PUSH1 0x20 ADD SWAP1 DUP2 MSTORE PUSH1 0x20 ADD PUSH1 0x0 KECCAK256 PUSH1 0x0 DUP13 DUP2 MSTORE PUSH1 0x20 ADD SWAP1 DUP2 MSTORE PUSH1 0x20 ADD PUSH1 0x0 KECCAK256 PUSH1 0x2 ADD SWAP1 DUP1 MLOAD SWAP1 PUSH1 0x20 ADD SWAP1 PUSH2 0x1213 SWAP3 SWAP2 SWAP1 PUSH2 0x2066 JUMP JUMPDEST POP DUP5 PUSH1 0xD PUSH1 0x0 DUP14 PUSH20 0xFFFFFFFFFFFFFFFFFFFFFFFFFFFFFFFFFFFFFFFF AND PUSH20 0xFFFFFFFFFFFFFFFFFFFFFFFFFFFFFFFFFFFFFFFF AND DUP2 MSTORE PUSH1 0x20 ADD SWAP1 DUP2 MSTORE PUSH1 0x20 ADD PUSH1 0x0 KECCAK256 PUSH1 0x0 DUP13 DUP2 MSTORE PUSH1 0x20 ADD SWAP1 DUP2 MSTORE PUSH1 0x20 ADD PUSH1 0x0 KECCAK256 PUSH1 0x3 ADD DUP2 SWAP1 SSTORE POP DUP4 PUSH1 0xD PUSH1 0x0 DUP14 PUSH20 0xFFFFFFFFFFFFFFFFFFFFFFFFFFFFFFFFFFFFFFFF AND PUSH20 0xFFFFFFFFFFFFFFFFFFFFFFFFFFFFFFFFFFFFFFFF AND DUP2 MSTORE PUSH1 0x20 ADD SWAP1 DUP2 MSTORE PUSH1 0x20 ADD PUSH1 0x0 KECCAK256 PUSH1 0x0 DUP13 DUP2 MSTORE PUSH1 0x20 ADD SWAP1 DUP2 MSTORE PUSH1 0x20 ADD PUSH1 0x0 KECCAK256 PUSH1 0x4 ADD DUP2 SWAP1 SSTORE POP DUP3 PUSH1 0xD PUSH1 0x0 DUP14 PUSH20 0xFFFFFFFFFFFFFFFFFFFFFFFFFFFFFFFFFFFFFFFF AND PUSH20 0xFFFFFFFFFFFFFFFFFFFFFFFFFFFFFFFFFFFFFFFF AND DUP2 MSTORE PUSH1 0x20 ADD SWAP1 DUP2 MSTORE PUSH1 0x20 ADD PUSH1 0x0 KECCAK256 PUSH1 0x0 DUP13 DUP2 MSTORE PUSH1 0x20 ADD SWAP1 DUP2 MSTORE PUSH1 0x20 ADD PUSH1 0x0 KECCAK256 PUSH1 0x5 ADD PUSH1 0x0 PUSH2 0x100 EXP DUP2 SLOAD DUP2 PUSH1 0xFF MUL NOT AND SWAP1 DUP4 PUSH1 0xFF AND MUL OR SWAP1 SSTORE POP DUP2 PUSH1 0xD PUSH1 0x0 DUP14 PUSH20 0xFFFFFFFFFFFFFFFFFFFFFFFFFFFFFFFFFFFFFFFF AND PUSH20 0xFFFFFFFFFFFFFFFFFFFFFFFFFFFFFFFFFFFFFFFF AND DUP2 MSTORE PUSH1 0x20 ADD SWAP1 DUP2 MSTORE PUSH1 0x20 ADD PUSH1 0x0 KECCAK256 PUSH1 0x0 DUP13 DUP2 MSTORE PUSH1 0x20 ADD SWAP1 DUP2 MSTORE PUSH1 0x20 ADD PUSH1 0x0 KECCAK256 PUSH1 0x5 ADD PUSH1 0x1 PUSH2 0x100 EXP DUP2 SLOAD DUP2 PUSH4 0xFFFFFFFF MUL NOT AND SWAP1 DUP4 PUSH4 0xFFFFFFFF AND MUL OR SWAP1 SSTORE POP TIMESTAMP PUSH1 0xD PUSH1 0x0 DUP14 PUSH20 0xFFFFFFFFFFFFFFFFFFFFFFFFFFFFFFFFFFFFFFFF AND PUSH20 0xFFFFFFFFFFFFFFFFFFFFFFFFFFFFFFFFFFFFFFFF AND DUP2 MSTORE PUSH1 0x20 ADD SWAP1 DUP2 MSTORE PUSH1 0x20 ADD PUSH1 0x0 KECCAK256 PUSH1 0x0 DUP13 DUP2 MSTORE PUSH1 0x20 ADD SWAP1 DUP2 MSTORE PUSH1 0x20 ADD PUSH1 0x0 KECCAK256 PUSH1 0x6 ADD PUSH1 0x0 ADD DUP2 SWAP1 SSTORE POP PUSH1 0x1 PUSH1 0xD PUSH1 0x0 DUP14 PUSH20 0xFFFFFFFFFFFFFFFFFFFFFFFFFFFFFFFFFFFFFFFF AND PUSH20 0xFFFFFFFFFFFFFFFFFFFFFFFFFFFFFFFFFFFFFFFF AND DUP2 MSTORE PUSH1 0x20 ADD SWAP1 DUP2 MSTORE PUSH1 0x20 ADD PUSH1 0x0 KECCAK256 PUSH1 0x0 DUP13 DUP2 MSTORE PUSH1 0x20 ADD SWAP1 DUP2 MSTORE PUSH1 0x20 ADD PUSH1 0x0 KECCAK256 PUSH1 0x6 ADD PUSH1 0x1 ADD PUSH1 0x14 PUSH2 0x100 EXP DUP2 SLOAD DUP2 PUSH1 0xFF MUL NOT AND SWAP1 DUP4 PUSH1 0x2 DUP2 GT ISZERO PUSH2 0x1477 JUMPI PUSH2 0x1476 PUSH2 0x2B4F JUMP JUMPDEST JUMPDEST MUL OR SWAP1 SSTORE POP CALLER PUSH1 0xD PUSH1 0x0 DUP14 PUSH20 0xFFFFFFFFFFFFFFFFFFFFFFFFFFFFFFFFFFFFFFFF AND PUSH20 0xFFFFFFFFFFFFFFFFFFFFFFFFFFFFFFFFFFFFFFFF AND DUP2 MSTORE PUSH1 0x20 ADD SWAP1 DUP2 MSTORE PUSH1 0x20 ADD PUSH1 0x0 KECCAK256 PUSH1 0x0 DUP13 DUP2 MSTORE PUSH1 0x20 ADD SWAP1 DUP2 MSTORE PUSH1 0x20 ADD PUSH1 0x0 KECCAK256 PUSH1 0x6 ADD PUSH1 0x1 ADD PUSH1 0x0 PUSH2 0x100 EXP DUP2 SLOAD DUP2 PUSH20 0xFFFFFFFFFFFFFFFFFFFFFFFFFFFFFFFFFFFFFFFF MUL NOT AND SWAP1 DUP4 PUSH20 0xFFFFFFFFFFFFFFFFFFFFFFFFFFFFFFFFFFFFFFFF AND MUL OR SWAP1 SSTORE POP PUSH32 0xD2D369C2A311BBEDF49B15D0D8D116C0A1AAF3ADF72494F1EBB4275C54CAD73 DUP12 DUP5 DUP12 DUP12 PUSH1 0x40 MLOAD PUSH2 0x1546 SWAP5 SWAP4 SWAP3 SWAP2 SWAP1 PUSH2 0x2604 JUMP JUMPDEST PUSH1 0x40 MLOAD DUP1 SWAP2 SUB SWAP1 LOG1 DUP10 SWAP1 POP SWAP11 SWAP10 POP POP POP POP POP POP POP POP POP POP JUMP JUMPDEST PUSH1 0x8 PUSH1 0x20 MSTORE DUP1 PUSH1 0x0 MSTORE PUSH1 0x40 PUSH1 0x0 KECCAK256 PUSH1 0x0 SWAP2 POP SWAP1 POP DUP1 PUSH1 0x0 ADD PUSH1 0x0 SWAP1 SLOAD SWAP1 PUSH2 0x100 EXP SWAP1 DIV PUSH1 0xFF AND SWAP1 DUP1 PUSH1 0x1 ADD DUP1 SLOAD PUSH2 0x1595 SWAP1 PUSH2 0x2A74 JUMP JUMPDEST DUP1 PUSH1 0x1F ADD PUSH1 0x20 DUP1 SWAP2 DIV MUL PUSH1 0x20 ADD PUSH1 0x40 MLOAD SWAP1 DUP2 ADD PUSH1 0x40 MSTORE DUP1 SWAP3 SWAP2 SWAP1 DUP2 DUP2 MSTORE PUSH1 0x20 ADD DUP3 DUP1 SLOAD PUSH2 0x15C1 SWAP1 PUSH2 0x2A74 JUMP JUMPDEST DUP1 ISZERO PUSH2 0x160E JUMPI DUP1 PUSH1 0x1F LT PUSH2 0x15E3 JUMPI PUSH2 0x100 DUP1 DUP4 SLOAD DIV MUL DUP4 MSTORE SWAP2 PUSH1 0x20 ADD SWAP2 PUSH2 0x160E JUMP JUMPDEST DUP3 ADD SWAP2 SWAP1 PUSH1 0x0 MSTORE PUSH1 0x20 PUSH1 0x0 KECCAK256 SWAP1 JUMPDEST DUP2 SLOAD DUP2 MSTORE SWAP1 PUSH1 0x1 ADD SWAP1 PUSH1 0x20 ADD DUP1 DUP4 GT PUSH2 0x15F1 JUMPI DUP3 SWAP1 SUB PUSH1 0x1F AND DUP3 ADD SWAP2 JUMPDEST POP POP POP POP POP SWAP1 DUP1 PUSH1 0x2 ADD PUSH1 0x0 SWAP1 SLOAD SWAP1 PUSH2 0x100 EXP SWAP1 DIV PUSH1 0xFF AND SWAP1 POP DUP4 JUMP JUMPDEST PUSH1 0x9 PUSH1 0x20 MSTORE DUP1 PUSH1 0x0 MSTORE PUSH1 0x40 PUSH1 0x0 KECCAK256 PUSH1 0x0 SWAP2 POP SWAP1 POP DUP1 PUSH1 0x0 ADD PUSH1 0x0 SWAP1 SLOAD SWAP1 PUSH2 0x100 EXP SWAP1 DIV PUSH1 0xFF AND SWAP1 DUP1 PUSH1 0x1 ADD DUP1 SLOAD PUSH2 0x1661 SWAP1 PUSH2 0x2A74 JUMP JUMPDEST DUP1 PUSH1 0x1F ADD PUSH1 0x20 DUP1 SWAP2 DIV MUL PUSH1 0x20 ADD PUSH1 0x40 MLOAD SWAP1 DUP2 ADD PUSH1 0x40 MSTORE DUP1 SWAP3 SWAP2 SWAP1 DUP2 DUP2 MSTORE PUSH1 0x20 ADD DUP3 DUP1 SLOAD PUSH2 0x168D SWAP1 PUSH2 0x2A74 JUMP JUMPDEST DUP1 ISZERO PUSH2 0x16DA JUMPI DUP1 PUSH1 0x1F LT PUSH2 0x16AF JUMPI PUSH2 0x100 DUP1 DUP4 SLOAD DIV MUL DUP4 MSTORE SWAP2 PUSH1 0x20 ADD SWAP2 PUSH2 0x16DA JUMP JUMPDEST DUP3 ADD SWAP2 SWAP1 PUSH1 0x0 MSTORE PUSH1 0x20 PUSH1 0x0 KECCAK256 SWAP1 JUMPDEST DUP2 SLOAD DUP2 MSTORE SWAP1 PUSH1 0x1 ADD SWAP1 PUSH1 0x20 ADD DUP1 DUP4 GT PUSH2 0x16BD JUMPI DUP3 SWAP1 SUB PUSH1 0x1F AND DUP3 ADD SWAP2 JUMPDEST POP POP POP POP POP SWAP1 DUP1 PUSH1 0x2 ADD PUSH1 0x0 SWAP1 SLOAD SWAP1 PUSH2 0x100 EXP SWAP1 DIV PUSH1 0xFF AND SWAP1 POP DUP4 JUMP JUMPDEST PUSH1 0xB PUSH1 0x20 MSTORE DUP1 PUSH1 0x0 MSTORE PUSH1 0x40 PUSH1 0x0 KECCAK256 PUSH1 0x0 SWAP2 POP SWAP1 POP DUP1 PUSH1 0x0 ADD PUSH1 0x0 SWAP1 SLOAD SWAP1 PUSH2 0x100 EXP SWAP1 DIV PUSH4 0xFFFFFFFF AND SWAP1 DUP1 PUSH1 0x1 ADD DUP1 SLOAD PUSH2 0x1730 SWAP1 PUSH2 0x2A74 JUMP JUMPDEST DUP1 PUSH1 0x1F ADD PUSH1 0x20 DUP1 SWAP2 DIV MUL PUSH1 0x20 ADD PUSH1 0x40 MLOAD SWAP1 DUP2 ADD PUSH1 0x40 MSTORE DUP1 SWAP3 SWAP2 SWAP1 DUP2 DUP2 MSTORE PUSH1 0x20 ADD DUP3 DUP1 SLOAD PUSH2 0x175C SWAP1 PUSH2 0x2A74 JUMP JUMPDEST DUP1 ISZERO PUSH2 0x17A9 JUMPI DUP1 PUSH1 0x1F LT PUSH2 0x177E JUMPI PUSH2 0x100 DUP1 DUP4 SLOAD DIV MUL DUP4 MSTORE SWAP2 PUSH1 0x20 ADD SWAP2 PUSH2 0x17A9 JUMP JUMPDEST DUP3 ADD SWAP2 SWAP1 PUSH1 0x0 MSTORE PUSH1 0x20 PUSH1 0x0 KECCAK256 SWAP1 JUMPDEST DUP2 SLOAD DUP2 MSTORE SWAP1 PUSH1 0x1 ADD SWAP1 PUSH1 0x20 ADD DUP1 DUP4 GT PUSH2 0x178C JUMPI DUP3 SWAP1 SUB PUSH1 0x1F AND DUP3 ADD SWAP2 JUMPDEST POP POP POP POP POP SWAP1 POP DUP3 JUMP JUMPDEST PUSH1 0x4 PUSH1 0x0 CALLER PUSH20 0xFFFFFFFFFFFFFFFFFFFFFFFFFFFFFFFFFFFFFFFF AND PUSH20 0xFFFFFFFFFFFFFFFFFFFFFFFFFFFFFFFFFFFFFFFF AND DUP2 MSTORE PUSH1 0x20 ADD SWAP1 DUP2 MSTORE PUSH1 0x20 ADD PUSH1 0x0 KECCAK256 PUSH1 0x0 ADD PUSH1 0x0 SWAP1 SLOAD SWAP1 PUSH2 0x100 EXP SWAP1 DIV PUSH1 0xFF AND DUP1 PUSH2 0x185A JUMPI POP PUSH1 0x6 PUSH1 0x0 CALLER PUSH20 0xFFFFFFFFFFFFFFFFFFFFFFFFFFFFFFFFFFFFFFFF AND PUSH20 0xFFFFFFFFFFFFFFFFFFFFFFFFFFFFFFFFFFFFFFFF AND DUP2 MSTORE PUSH1 0x20 ADD SWAP1 DUP2 MSTORE PUSH1 0x20 ADD PUSH1 0x0 KECCAK256 PUSH1 0x0 ADD PUSH1 0x0 SWAP1 SLOAD SWAP1 PUSH2 0x100 EXP SWAP1 DIV PUSH1 0xFF AND JUMPDEST DUP1 PUSH2 0x18B1 JUMPI POP PUSH1 0x8 PUSH1 0x0 CALLER PUSH20 0xFFFFFFFFFFFFFFFFFFFFFFFFFFFFFFFFFFFFFFFF AND PUSH20 0xFFFFFFFFFFFFFFFFFFFFFFFFFFFFFFFFFFFFFFFF AND DUP2 MSTORE PUSH1 0x20 ADD SWAP1 DUP2 MSTORE PUSH1 0x20 ADD PUSH1 0x0 KECCAK256 PUSH1 0x0 ADD PUSH1 0x0 SWAP1 SLOAD SWAP1 PUSH2 0x100 EXP SWAP1 DIV PUSH1 0xFF AND JUMPDEST PUSH2 0x18F0 JUMPI PUSH1 0x40 MLOAD PUSH32 0x8C379A000000000000000000000000000000000000000000000000000000000 DUP2 MSTORE PUSH1 0x4 ADD PUSH2 0x18E7 SWAP1 PUSH2 0x279D JUMP JUMPDEST PUSH1 0x40 MLOAD DUP1 SWAP2 SUB SWAP1 REVERT JUMPDEST PUSH1 0x3 PUSH1 0x0 DUP11 PUSH20 0xFFFFFFFFFFFFFFFFFFFFFFFFFFFFFFFFFFFFFFFF AND PUSH20 0xFFFFFFFFFFFFFFFFFFFFFFFFFFFFFFFFFFFFFFFF AND DUP2 MSTORE PUSH1 0x20 ADD SWAP1 DUP2 MSTORE PUSH1 0x20 ADD PUSH1 0x0 KECCAK256 PUSH1 0x0 ADD PUSH1 0x0 SWAP1 SLOAD SWAP1 PUSH2 0x100 EXP SWAP1 DIV PUSH1 0xFF AND PUSH2 0x197F JUMPI PUSH1 0x40 MLOAD PUSH32 0x8C379A000000000000000000000000000000000000000000000000000000000 DUP2 MSTORE PUSH1 0x4 ADD PUSH2 0x1976 SWAP1 PUSH2 0x277D JUMP JUMPDEST PUSH1 0x40 MLOAD DUP1 SWAP2 SUB SWAP1 REVERT JUMPDEST PUSH1 0x0 PUSH1 0xC PUSH1 0x0 DUP2 SLOAD DUP1 SWAP3 SWAP2 SWAP1 PUSH2 0x1994 SWAP1 PUSH2 0x2AD7 JUMP JUMPDEST SWAP2 SWAP1 POP SSTORE SWAP1 POP DUP9 PUSH1 0xD PUSH1 0x0 DUP13 PUSH20 0xFFFFFFFFFFFFFFFFFFFFFFFFFFFFFFFFFFFFFFFF AND PUSH20 0xFFFFFFFFFFFFFFFFFFFFFFFFFFFFFFFFFFFFFFFF AND DUP2 MSTORE PUSH1 0x20 ADD SWAP1 DUP2 MSTORE PUSH1 0x20 ADD PUSH1 0x0 KECCAK256 PUSH1 0x0 DUP4 DUP2 MSTORE PUSH1 0x20 ADD SWAP1 DUP2 MSTORE PUSH1 0x20 ADD PUSH1 0x0 KECCAK256 PUSH1 0x1 ADD PUSH1 0x14 PUSH2 0x100 EXP DUP2 SLOAD DUP2 PUSH4 0xFFFFFFFF MUL NOT AND SWAP1 DUP4 PUSH4 0xFFFFFFFF AND MUL OR SWAP1 SSTORE POP DUP8 PUSH1 0xD PUSH1 0x0 DUP13 PUSH20 0xFFFFFFFFFFFFFFFFFFFFFFFFFFFFFFFFFFFFFFFF AND PUSH20 0xFFFFFFFFFFFFFFFFFFFFFFFFFFFFFFFFFFFFFFFF AND DUP2 MSTORE PUSH1 0x20 ADD SWAP1 DUP2 MSTORE PUSH1 0x20 ADD PUSH1 0x0 KECCAK256 PUSH1 0x0 DUP4 DUP2 MSTORE PUSH1 0x20 ADD SWAP1 DUP2 MSTORE PUSH1 0x20 ADD PUSH1 0x0 KECCAK256 PUSH1 0x1 ADD PUSH1 0x18 PUSH2 0x100 EXP DUP2 SLOAD DUP2 PUSH1 0xFF MUL NOT AND SWAP1 DUP4 PUSH1 0xFF AND MUL OR SWAP1 SSTORE POP DUP7 PUSH1 0xD PUSH1 0x0 DUP13 PUSH20 0xFFFFFFFFFFFFFFFFFFFFFFFFFFFFFFFFFFFFFFFF AND PUSH20 0xFFFFFFFFFFFFFFFFFFFFFFFFFFFFFFFFFFFFFFFF AND DUP2 MSTORE PUSH1 0x20 ADD SWAP1 DUP2 MSTORE PUSH1 0x20 ADD PUSH1 0x0 KECCAK256 PUSH1 0x0 DUP4 DUP2 MSTORE PUSH1 0x20 ADD SWAP1 DUP2 MSTORE PUSH1 0x20 ADD PUSH1 0x0 KECCAK256 PUSH1 0x1 ADD PUSH1 0x19 PUSH2 0x100 EXP DUP2 SLOAD DUP2 PUSH1 0xFF MUL NOT AND SWAP1 DUP4 PUSH1 0x2 DUP2 GT ISZERO PUSH2 0x1AEE JUMPI PUSH2 0x1AED PUSH2 0x2B4F JUMP JUMPDEST JUMPDEST MUL OR SWAP1 SSTORE POP DUP6 PUSH1 0xD PUSH1 0x0 DUP13 PUSH20 0xFFFFFFFFFFFFFFFFFFFFFFFFFFFFFFFFFFFFFFFF AND PUSH20 0xFFFFFFFFFFFFFFFFFFFFFFFFFFFFFFFFFFFFFFFF AND DUP2 MSTORE PUSH1 0x20 ADD SWAP1 DUP2 MSTORE PUSH1 0x20 ADD PUSH1 0x0 KECCAK256 PUSH1 0x0 DUP4 DUP2 MSTORE PUSH1 0x20 ADD SWAP1 DUP2 MSTORE PUSH1 0x20 ADD PUSH1 0x0 KECCAK256 PUSH1 0x2 ADD SWAP1 DUP1 MLOAD SWAP1 PUSH1 0x20 ADD SWAP1 PUSH2 0x1B5A SWAP3 SWAP2 SWAP1 PUSH2 0x2066 JUMP JUMPDEST POP DUP5 PUSH1 0xD PUSH1 0x0 DUP13 PUSH20 0xFFFFFFFFFFFFFFFFFFFFFFFFFFFFFFFFFFFFFFFF AND PUSH20 0xFFFFFFFFFFFFFFFFFFFFFFFFFFFFFFFFFFFFFFFF AND DUP2 MSTORE PUSH1 0x20 ADD SWAP1 DUP2 MSTORE PUSH1 0x20 ADD PUSH1 0x0 KECCAK256 PUSH1 0x0 DUP4 DUP2 MSTORE PUSH1 0x20 ADD SWAP1 DUP2 MSTORE PUSH1 0x20 ADD PUSH1 0x0 KECCAK256 PUSH1 0x3 ADD DUP2 SWAP1 SSTORE POP DUP4 PUSH1 0xD PUSH1 0x0 DUP13 PUSH20 0xFFFFFFFFFFFFFFFFFFFFFFFFFFFFFFFFFFFFFFFF AND PUSH20 0xFFFFFFFFFFFFFFFFFFFFFFFFFFFFFFFFFFFFFFFF AND DUP2 MSTORE PUSH1 0x20 ADD SWAP1 DUP2 MSTORE PUSH1 0x20 ADD PUSH1 0x0 KECCAK256 PUSH1 0x0 DUP4 DUP2 MSTORE PUSH1 0x20 ADD SWAP1 DUP2 MSTORE PUSH1 0x20 ADD PUSH1 0x0 KECCAK256 PUSH1 0x4 ADD DUP2 SWAP1 SSTORE POP DUP3 PUSH1 0xD PUSH1 0x0 DUP13 PUSH20 0xFFFFFFFFFFFFFFFFFFFFFFFFFFFFFFFFFFFFFFFF AND PUSH20 0xFFFFFFFFFFFFFFFFFFFFFFFFFFFFFFFFFFFFFFFF AND DUP2 MSTORE PUSH1 0x20 ADD SWAP1 DUP2 MSTORE PUSH1 0x20 ADD PUSH1 0x0 KECCAK256 PUSH1 0x0 DUP4 DUP2 MSTORE PUSH1 0x20 ADD SWAP1 DUP2 MSTORE PUSH1 0x20 ADD PUSH1 0x0 KECCAK256 PUSH1 0x5 ADD PUSH1 0x0 PUSH2 0x100 EXP DUP2 SLOAD DUP2 PUSH1 0xFF MUL NOT AND SWAP1 DUP4 PUSH1 0xFF AND MUL OR SWAP1 SSTORE POP DUP2 PUSH1 0xD PUSH1 0x0 DUP13 PUSH20 0xFFFFFFFFFFFFFFFFFFFFFFFFFFFFFFFFFFFFFFFF AND PUSH20 0xFFFFFFFFFFFFFFFFFFFFFFFFFFFFFFFFFFFFFFFF AND DUP2 MSTORE PUSH1 0x20 ADD SWAP1 DUP2 MSTORE PUSH1 0x20 ADD PUSH1 0x0 KECCAK256 PUSH1 0x0 DUP4 DUP2 MSTORE PUSH1 0x20 ADD SWAP1 DUP2 MSTORE PUSH1 0x20 ADD PUSH1 0x0 KECCAK256 PUSH1 0x5 ADD PUSH1 0x1 PUSH2 0x100 EXP DUP2 SLOAD DUP2 PUSH4 0xFFFFFFFF MUL NOT AND SWAP1 DUP4 PUSH4 0xFFFFFFFF AND MUL OR SWAP1 SSTORE POP TIMESTAMP PUSH1 0xD PUSH1 0x0 DUP13 PUSH20 0xFFFFFFFFFFFFFFFFFFFFFFFFFFFFFFFFFFFFFFFF AND PUSH20 0xFFFFFFFFFFFFFFFFFFFFFFFFFFFFFFFFFFFFFFFF AND DUP2 MSTORE PUSH1 0x20 ADD SWAP1 DUP2 MSTORE PUSH1 0x20 ADD PUSH1 0x0 KECCAK256 PUSH1 0x0 DUP4 DUP2 MSTORE PUSH1 0x20 ADD SWAP1 DUP2 MSTORE PUSH1 0x20 ADD PUSH1 0x0 KECCAK256 PUSH1 0x6 ADD PUSH1 0x0 ADD DUP2 SWAP1 SSTORE POP PUSH1 0x1 PUSH1 0xD PUSH1 0x0 DUP13 PUSH20 0xFFFFFFFFFFFFFFFFFFFFFFFFFFFFFFFFFFFFFFFF AND PUSH20 0xFFFFFFFFFFFFFFFFFFFFFFFFFFFFFFFFFFFFFFFF AND DUP2 MSTORE PUSH1 0x20 ADD SWAP1 DUP2 MSTORE PUSH1 0x20 ADD PUSH1 0x0 KECCAK256 PUSH1 0x0 DUP4 DUP2 MSTORE PUSH1 0x20 ADD SWAP1 DUP2 MSTORE PUSH1 0x20 ADD PUSH1 0x0 KECCAK256 PUSH1 0x6 ADD PUSH1 0x1 ADD PUSH1 0x14 PUSH2 0x100 EXP DUP2 SLOAD DUP2 PUSH1 0xFF MUL NOT AND SWAP1 DUP4 PUSH1 0x2 DUP2 GT ISZERO PUSH2 0x1DBE JUMPI PUSH2 0x1DBD PUSH2 0x2B4F JUMP JUMPDEST JUMPDEST MUL OR SWAP1 SSTORE POP CALLER PUSH1 0xD PUSH1 0x0 DUP13 PUSH20 0xFFFFFFFFFFFFFFFFFFFFFFFFFFFFFFFFFFFFFFFF AND PUSH20 0xFFFFFFFFFFFFFFFFFFFFFFFFFFFFFFFFFFFFFFFF AND DUP2 MSTORE PUSH1 0x20 ADD SWAP1 DUP2 MSTORE PUSH1 0x20 ADD PUSH1 0x0 KECCAK256 PUSH1 0x0 DUP4 DUP2 MSTORE PUSH1 0x20 ADD SWAP1 DUP2 MSTORE PUSH1 0x20 ADD PUSH1 0x0 KECCAK256 PUSH1 0x6 ADD PUSH1 0x1 ADD PUSH1 0x0 PUSH2 0x100 EXP DUP2 SLOAD DUP2 PUSH20 0xFFFFFFFFFFFFFFFFFFFFFFFFFFFFFFFFFFFFFFFF MUL NOT AND SWAP1 DUP4 PUSH20 0xFFFFFFFFFFFFFFFFFFFFFFFFFFFFFFFFFFFFFFFF AND MUL OR SWAP1 SSTORE POP PUSH32 0x5AD0792471E6B8D6289D325D174CFB7E274AC9529EFEB295F4ABCE0A90CDCB23 DUP11 DUP5 DUP12 DUP12 PUSH1 0x40 MLOAD PUSH2 0x1E8D SWAP5 SWAP4 SWAP3 SWAP2 SWAP1 PUSH2 0x2604 JUMP JUMPDEST PUSH1 0x40 MLOAD DUP1 SWAP2 SUB SWAP1 LOG1 POP POP POP POP POP POP POP POP POP POP JUMP JUMPDEST PUSH1 0xC SLOAD DUP2 JUMP JUMPDEST PUSH1 0x5 PUSH1 0x20 MSTORE DUP1 PUSH1 0x0 MSTORE PUSH1 0x40 PUSH1 0x0 KECCAK256 PUSH1 0x0 SWAP2 POP SWAP1 POP DUP1 PUSH1 0x0 ADD PUSH1 0x0 SWAP1 SLOAD SWAP1 PUSH2 0x100 EXP SWAP1 DIV PUSH1 0xFF AND SWAP1 DUP1 PUSH1 0x0 ADD PUSH1 0x1 SWAP1 SLOAD SWAP1 PUSH2 0x100 EXP SWAP1 DIV PUSH20 0xFFFFFFFFFFFFFFFFFFFFFFFFFFFFFFFFFFFFFFFF AND SWAP1 DUP1 PUSH1 0x0 ADD PUSH1 0x15 SWAP1 SLOAD SWAP1 PUSH2 0x100 EXP SWAP1 DIV PUSH2 0xFFFF AND SWAP1 DUP1 PUSH1 0x0 ADD PUSH1 0x17 SWAP1 SLOAD SWAP1 PUSH2 0x100 EXP SWAP1 DIV PUSH1 0xFF AND SWAP1 DUP1 PUSH1 0x1 ADD DUP1 SLOAD PUSH2 0x1F2A SWAP1 PUSH2 0x2A74 JUMP JUMPDEST DUP1 PUSH1 0x1F ADD PUSH1 0x20 DUP1 SWAP2 DIV MUL PUSH1 0x20 ADD PUSH1 0x40 MLOAD SWAP1 DUP2 ADD PUSH1 0x40 MSTORE DUP1 SWAP3 SWAP2 SWAP1 DUP2 DUP2 MSTORE PUSH1 0x20 ADD DUP3 DUP1 SLOAD PUSH2 0x1F56 SWAP1 PUSH2 0x2A74 JUMP JUMPDEST DUP1 ISZERO PUSH2 0x1FA3 JUMPI DUP1 PUSH1 0x1F LT PUSH2 0x1F78 JUMPI PUSH2 0x100 DUP1 DUP4 SLOAD DIV MUL DUP4 MSTORE SWAP2 PUSH1 0x20 ADD SWAP2 PUSH2 0x1FA3 JUMP JUMPDEST DUP3 ADD SWAP2 SWAP1 PUSH1 0x0 MSTORE PUSH1 0x20 PUSH1 0x0 KECCAK256 SWAP1 JUMPDEST DUP2 SLOAD DUP2 MSTORE SWAP1 PUSH1 0x1 ADD SWAP1 PUSH1 0x20 ADD DUP1 DUP4 GT PUSH2 0x1F86 JUMPI DUP3 SWAP1 SUB PUSH1 0x1F AND DUP3 ADD SWAP2 JUMPDEST POP POP POP POP POP SWAP1 DUP1 PUSH1 0x2 ADD DUP1 SLOAD PUSH2 0x1FB8 SWAP1 PUSH2 0x2A74 JUMP JUMPDEST DUP1 PUSH1 0x1F ADD PUSH1 0x20 DUP1 SWAP2 DIV MUL PUSH1 0x20 ADD PUSH1 0x40 MLOAD SWAP1 DUP2 ADD PUSH1 0x40 MSTORE DUP1 SWAP3 SWAP2 SWAP1 DUP2 DUP2 MSTORE PUSH1 0x20 ADD DUP3 DUP1 SLOAD PUSH2 0x1FE4 SWAP1 PUSH2 0x2A74 JUMP JUMPDEST DUP1 ISZERO PUSH2 0x2031 JUMPI DUP1 PUSH1 0x1F LT PUSH2 0x2006 JUMPI PUSH2 0x100 DUP1 DUP4 SLOAD DIV MUL DUP4 MSTORE SWAP2 PUSH1 0x20 ADD SWAP2 PUSH2 0x2031 JUMP JUMPDEST DUP3 ADD SWAP2 SWAP1 PUSH1 0x0 MSTORE PUSH1 0x20 PUSH1 0x0 KECCAK256 SWAP1 JUMPDEST DUP2 SLOAD DUP2 MSTORE SWAP1 PUSH1 0x1 ADD SWAP1 PUSH1 0x20 ADD DUP1 DUP4 GT PUSH2 0x2014 JUMPI DUP3 SWAP1 SUB PUSH1 0x1F AND DUP3 ADD SWAP2 JUMPDEST POP POP POP POP POP SWAP1 POP DUP7 JUMP JUMPDEST PUSH1 0x3 PUSH1 0x20 MSTORE DUP1 PUSH1 0x0 MSTORE PUSH1 0x40 PUSH1 0x0 KECCAK256 PUSH1 0x0 SWAP2 POP SWAP1 POP DUP1 PUSH1 0x0 ADD PUSH1 0x0 SWAP1 SLOAD SWAP1 PUSH2 0x100 EXP SWAP1 DIV PUSH1 0xFF AND SWAP1 POP DUP2 JUMP JUMPDEST DUP3 DUP1 SLOAD PUSH2 0x2072 SWAP1 PUSH2 0x2A74 JUMP JUMPDEST SWAP1 PUSH1 0x0 MSTORE PUSH1 0x20 PUSH1 0x0 KECCAK256 SWAP1 PUSH1 0x1F ADD PUSH1 0x20 SWAP1 DIV DUP2 ADD SWAP3 DUP3 PUSH2 0x2094 JUMPI PUSH1 0x0 DUP6 SSTORE PUSH2 0x20DB JUMP JUMPDEST DUP3 PUSH1 0x1F LT PUSH2 0x20AD JUMPI DUP1 MLOAD PUSH1 0xFF NOT AND DUP4 DUP1 ADD OR DUP6 SSTORE PUSH2 0x20DB JUMP JUMPDEST DUP3 DUP1 ADD PUSH1 0x1 ADD DUP6 SSTORE DUP3 ISZERO PUSH2 0x20DB JUMPI SWAP2 DUP3 ADD JUMPDEST DUP3 DUP2 GT ISZERO PUSH2 0x20DA JUMPI DUP3 MLOAD DUP3 SSTORE SWAP2 PUSH1 0x20 ADD SWAP2 SWAP1 PUSH1 0x1 ADD SWAP1 PUSH2 0x20BF JUMP JUMPDEST JUMPDEST POP SWAP1 POP PUSH2 0x20E8 SWAP2 SWAP1 PUSH2 0x20EC JUMP JUMPDEST POP SWAP1 JUMP JUMPDEST JUMPDEST DUP1 DUP3 GT ISZERO PUSH2 0x2105 JUMPI PUSH1 0x0 DUP2 PUSH1 0x0 SWAP1 SSTORE POP PUSH1 0x1 ADD PUSH2 0x20ED JUMP JUMPDEST POP SWAP1 JUMP JUMPDEST PUSH1 0x0 PUSH2 0x211C PUSH2 0x2117 DUP5 PUSH2 0x28DF JUMP JUMPDEST PUSH2 0x28BA JUMP JUMPDEST SWAP1 POP DUP3 DUP2 MSTORE PUSH1 0x20 DUP2 ADD DUP5 DUP5 DUP5 ADD GT ISZERO PUSH2 0x2138 JUMPI PUSH2 0x2137 PUSH2 0x2BE1 JUMP JUMPDEST JUMPDEST PUSH2 0x2143 DUP5 DUP3 DUP6 PUSH2 0x2A32 JUMP JUMPDEST POP SWAP4 SWAP3 POP POP POP JUMP JUMPDEST PUSH1 0x0 DUP2 CALLDATALOAD SWAP1 POP PUSH2 0x215A DUP2 PUSH2 0x2CB8 JUMP JUMPDEST SWAP3 SWAP2 POP POP JUMP JUMPDEST PUSH1 0x0 DUP2 CALLDATALOAD SWAP1 POP PUSH2 0x216F DUP2 PUSH2 0x2CCF JUMP JUMPDEST SWAP3 SWAP2 POP POP JUMP JUMPDEST PUSH1 0x0 DUP3 PUSH1 0x1F DUP4 ADD SLT PUSH2 0x218A JUMPI PUSH2 0x2189 PUSH2 0x2BDC JUMP JUMPDEST JUMPDEST DUP2 CALLDATALOAD PUSH2 0x219A DUP5 DUP3 PUSH1 0x20 DUP7 ADD PUSH2 0x2109 JUMP JUMPDEST SWAP2 POP POP SWAP3 SWAP2 POP POP JUMP JUMPDEST PUSH1 0x0 DUP2 CALLDATALOAD SWAP1 POP PUSH2 0x21B2 DUP2 PUSH2 0x2CDF JUMP JUMPDEST SWAP3 SWAP2 POP POP JUMP JUMPDEST PUSH1 0x0 DUP2 CALLDATALOAD SWAP1 POP PUSH2 0x21C7 DUP2 PUSH2 0x2CF6 JUMP JUMPDEST SWAP3 SWAP2 POP POP JUMP JUMPDEST PUSH1 0x0 DUP2 CALLDATALOAD SWAP1 POP PUSH2 0x21DC DUP2 PUSH2 0x2D0D JUMP JUMPDEST SWAP3 SWAP2 POP POP JUMP JUMPDEST PUSH1 0x0 PUSH1 0x20 DUP3 DUP5 SUB SLT ISZERO PUSH2 0x21F8 JUMPI PUSH2 0x21F7 PUSH2 0x2BEB JUMP JUMPDEST JUMPDEST PUSH1 0x0 PUSH2 0x2206 DUP5 DUP3 DUP6 ADD PUSH2 0x214B JUMP JUMPDEST SWAP2 POP POP SWAP3 SWAP2 POP POP JUMP JUMPDEST PUSH1 0x0 DUP1 PUSH1 0x40 DUP4 DUP6 SUB SLT ISZERO PUSH2 0x2226 JUMPI PUSH2 0x2225 PUSH2 0x2BEB JUMP JUMPDEST JUMPDEST PUSH1 0x0 PUSH2 0x2234 DUP6 DUP3 DUP7 ADD PUSH2 0x214B JUMP JUMPDEST SWAP3 POP POP PUSH1 0x20 PUSH2 0x2245 DUP6 DUP3 DUP7 ADD PUSH2 0x21A3 JUMP JUMPDEST SWAP2 POP POP SWAP3 POP SWAP3 SWAP1 POP JUMP JUMPDEST PUSH1 0x0 DUP1 PUSH1 0x0 DUP1 PUSH1 0x0 DUP1 PUSH1 0x0 DUP1 PUSH1 0x0 DUP1 PUSH2 0x140 DUP12 DUP14 SUB SLT ISZERO PUSH2 0x2273 JUMPI PUSH2 0x2272 PUSH2 0x2BEB JUMP JUMPDEST JUMPDEST PUSH1 0x0 PUSH2 0x2281 DUP14 DUP3 DUP15 ADD PUSH2 0x214B JUMP JUMPDEST SWAP11 POP POP PUSH1 0x20 PUSH2 0x2292 DUP14 DUP3 DUP15 ADD PUSH2 0x21A3 JUMP JUMPDEST SWAP10 POP POP PUSH1 0x40 PUSH2 0x22A3 DUP14 DUP3 DUP15 ADD PUSH2 0x21B8 JUMP JUMPDEST SWAP9 POP POP PUSH1 0x60 PUSH2 0x22B4 DUP14 DUP3 DUP15 ADD PUSH2 0x21CD JUMP JUMPDEST SWAP8 POP POP PUSH1 0x80 PUSH2 0x22C5 DUP14 DUP3 DUP15 ADD PUSH2 0x2160 JUMP JUMPDEST SWAP7 POP POP PUSH1 0xA0 DUP12 ADD CALLDATALOAD PUSH8 0xFFFFFFFFFFFFFFFF DUP2 GT ISZERO PUSH2 0x22E6 JUMPI PUSH2 0x22E5 PUSH2 0x2BE6 JUMP JUMPDEST JUMPDEST PUSH2 0x22F2 DUP14 DUP3 DUP15 ADD PUSH2 0x2175 JUMP JUMPDEST SWAP6 POP POP PUSH1 0xC0 PUSH2 0x2303 DUP14 DUP3 DUP15 ADD PUSH2 0x21A3 JUMP JUMPDEST SWAP5 POP POP PUSH1 0xE0 PUSH2 0x2314 DUP14 DUP3 DUP15 ADD PUSH2 0x21A3 JUMP JUMPDEST SWAP4 POP POP PUSH2 0x100 PUSH2 0x2326 DUP14 DUP3 DUP15 ADD PUSH2 0x21CD JUMP JUMPDEST SWAP3 POP POP PUSH2 0x120 PUSH2 0x2338 DUP14 DUP3 DUP15 ADD PUSH2 0x21B8 JUMP JUMPDEST SWAP2 POP POP SWAP3 SWAP6 SWAP9 SWAP12 SWAP2 SWAP5 SWAP8 SWAP11 POP SWAP3 SWAP6 SWAP9 POP JUMP JUMPDEST PUSH1 0x0 DUP1 PUSH1 0x0 DUP1 PUSH1 0x0 DUP1 PUSH1 0x0 DUP1 PUSH1 0x0 PUSH2 0x120 DUP11 DUP13 SUB SLT ISZERO PUSH2 0x236D JUMPI PUSH2 0x236C PUSH2 0x2BEB JUMP JUMPDEST JUMPDEST PUSH1 0x0 PUSH2 0x237B DUP13 DUP3 DUP14 ADD PUSH2 0x214B JUMP JUMPDEST SWAP10 POP POP PUSH1 0x20 PUSH2 0x238C DUP13 DUP3 DUP14 ADD PUSH2 0x21B8 JUMP JUMPDEST SWAP9 POP POP PUSH1 0x40 PUSH2 0x239D DUP13 DUP3 DUP14 ADD PUSH2 0x21CD JUMP JUMPDEST SWAP8 POP POP PUSH1 0x60 PUSH2 0x23AE DUP13 DUP3 DUP14 ADD PUSH2 0x2160 JUMP JUMPDEST SWAP7 POP POP PUSH1 0x80 DUP11 ADD CALLDATALOAD PUSH8 0xFFFFFFFFFFFFFFFF DUP2 GT ISZERO PUSH2 0x23CF JUMPI PUSH2 0x23CE PUSH2 0x2BE6 JUMP JUMPDEST JUMPDEST PUSH2 0x23DB DUP13 DUP3 DUP14 ADD PUSH2 0x2175 JUMP JUMPDEST SWAP6 POP POP PUSH1 0xA0 PUSH2 0x23EC DUP13 DUP3 DUP14 ADD PUSH2 0x21A3 JUMP JUMPDEST SWAP5 POP POP PUSH1 0xC0 PUSH2 0x23FD DUP13 DUP3 DUP14 ADD PUSH2 0x21A3 JUMP JUMPDEST SWAP4 POP POP PUSH1 0xE0 PUSH2 0x240E DUP13 DUP3 DUP14 ADD PUSH2 0x21CD JUMP JUMPDEST SWAP3 POP POP PUSH2 0x100 PUSH2 0x2420 DUP13 DUP3 DUP14 ADD PUSH2 0x21B8 JUMP JUMPDEST SWAP2 POP POP SWAP3 SWAP6 SWAP9 POP SWAP3 SWAP6 SWAP9 POP SWAP3 SWAP6 SWAP9 JUMP JUMPDEST PUSH1 0x0 PUSH1 0x20 DUP3 DUP5 SUB SLT ISZERO PUSH2 0x2446 JUMPI PUSH2 0x2445 PUSH2 0x2BEB JUMP JUMPDEST JUMPDEST PUSH1 0x0 PUSH2 0x2454 DUP5 DUP3 DUP6 ADD PUSH2 0x21B8 JUMP JUMPDEST SWAP2 POP POP SWAP3 SWAP2 POP POP JUMP JUMPDEST PUSH2 0x2466 DUP2 PUSH2 0x292C JUMP JUMPDEST DUP3 MSTORE POP POP JUMP JUMPDEST PUSH2 0x2475 DUP2 PUSH2 0x292C JUMP JUMPDEST DUP3 MSTORE POP POP JUMP JUMPDEST PUSH2 0x2484 DUP2 PUSH2 0x293E JUMP JUMPDEST DUP3 MSTORE POP POP JUMP JUMPDEST PUSH2 0x2493 DUP2 PUSH2 0x29D8 JUMP JUMPDEST DUP3 MSTORE POP POP JUMP JUMPDEST PUSH2 0x24A2 DUP2 PUSH2 0x29EA JUMP JUMPDEST DUP3 MSTORE POP POP JUMP JUMPDEST PUSH2 0x24B1 DUP2 PUSH2 0x29FC JUMP JUMPDEST DUP3 MSTORE POP POP JUMP JUMPDEST PUSH1 0x0 PUSH2 0x24C2 DUP3 PUSH2 0x2910 JUMP JUMPDEST PUSH2 0x24CC DUP2 DUP6 PUSH2 0x291B JUMP JUMPDEST SWAP4 POP PUSH2 0x24DC DUP2 DUP6 PUSH1 0x20 DUP7 ADD PUSH2 0x2A41 JUMP JUMPDEST PUSH2 0x24E5 DUP2 PUSH2 0x2BF0 JUMP JUMPDEST DUP5 ADD SWAP2 POP POP SWAP3 SWAP2 POP POP JUMP JUMPDEST PUSH1 0x0 PUSH2 0x24FD PUSH1 0x20 DUP4 PUSH2 0x291B JUMP JUMPDEST SWAP2 POP PUSH2 0x2508 DUP3 PUSH2 0x2C01 JUMP JUMPDEST PUSH1 0x20 DUP3 ADD SWAP1 POP SWAP2 SWAP1 POP JUMP JUMPDEST PUSH1 0x0 PUSH2 0x2520 PUSH1 0x12 DUP4 PUSH2 0x291B JUMP JUMPDEST SWAP2 POP PUSH2 0x252B DUP3 PUSH2 0x2C2A JUMP JUMPDEST PUSH1 0x20 DUP3 ADD SWAP1 POP SWAP2 SWAP1 POP JUMP JUMPDEST PUSH1 0x0 PUSH2 0x2543 PUSH1 0x20 DUP4 PUSH2 0x291B JUMP JUMPDEST SWAP2 POP PUSH2 0x254E DUP3 PUSH2 0x2C53 JUMP JUMPDEST PUSH1 0x20 DUP3 ADD SWAP1 POP SWAP2 SWAP1 POP JUMP JUMPDEST PUSH1 0x60 DUP3 ADD PUSH1 0x0 DUP3 ADD MLOAD PUSH2 0x256F PUSH1 0x0 DUP6 ADD DUP3 PUSH2 0x25AA JUMP JUMPDEST POP PUSH1 0x20 DUP3 ADD MLOAD PUSH2 0x2582 PUSH1 0x20 DUP6 ADD DUP3 PUSH2 0x245D JUMP JUMPDEST POP PUSH1 0x40 DUP3 ADD MLOAD PUSH2 0x2595 PUSH1 0x40 DUP6 ADD DUP3 PUSH2 0x2499 JUMP JUMPDEST POP POP POP POP JUMP JUMPDEST PUSH2 0x25A4 DUP2 PUSH2 0x2983 JUMP JUMPDEST DUP3 MSTORE POP POP JUMP JUMPDEST PUSH2 0x25B3 DUP2 PUSH2 0x29B1 JUMP JUMPDEST DUP3 MSTORE POP POP JUMP JUMPDEST PUSH2 0x25C2 DUP2 PUSH2 0x29B1 JUMP JUMPDEST DUP3 MSTORE POP POP JUMP JUMPDEST PUSH2 0x25D1 DUP2 PUSH2 0x2A0E JUMP JUMPDEST DUP3 MSTORE POP POP JUMP JUMPDEST PUSH2 0x25E0 DUP2 PUSH2 0x29BB JUMP JUMPDEST DUP3 MSTORE POP POP JUMP JUMPDEST PUSH2 0x25EF DUP2 PUSH2 0x2A20 JUMP JUMPDEST DUP3 MSTORE POP POP JUMP JUMPDEST PUSH2 0x25FE DUP2 PUSH2 0x29CB JUMP JUMPDEST DUP3 MSTORE POP POP JUMP JUMPDEST PUSH1 0x0 PUSH1 0x80 DUP3 ADD SWAP1 POP PUSH2 0x2619 PUSH1 0x0 DUP4 ADD DUP8 PUSH2 0x246C JUMP JUMPDEST PUSH2 0x2626 PUSH1 0x20 DUP4 ADD DUP7 PUSH2 0x25F5 JUMP JUMPDEST PUSH2 0x2633 PUSH1 0x40 DUP4 ADD DUP6 PUSH2 0x25C8 JUMP JUMPDEST PUSH2 0x2640 PUSH1 0x60 DUP4 ADD DUP5 PUSH2 0x25E6 JUMP JUMPDEST SWAP6 SWAP5 POP POP POP POP POP JUMP JUMPDEST PUSH1 0x0 PUSH1 0x20 DUP3 ADD SWAP1 POP PUSH2 0x265E PUSH1 0x0 DUP4 ADD DUP5 PUSH2 0x247B JUMP JUMPDEST SWAP3 SWAP2 POP POP JUMP JUMPDEST PUSH1 0x0 PUSH1 0xC0 DUP3 ADD SWAP1 POP PUSH2 0x2679 PUSH1 0x0 DUP4 ADD DUP10 PUSH2 0x247B JUMP JUMPDEST PUSH2 0x2686 PUSH1 0x20 DUP4 ADD DUP9 PUSH2 0x246C JUMP JUMPDEST PUSH2 0x2693 PUSH1 0x40 DUP4 ADD DUP8 PUSH2 0x259B JUMP JUMPDEST PUSH2 0x26A0 PUSH1 0x60 DUP4 ADD DUP7 PUSH2 0x24A8 JUMP JUMPDEST DUP2 DUP2 SUB PUSH1 0x80 DUP4 ADD MSTORE PUSH2 0x26B2 DUP2 DUP6 PUSH2 0x24B7 JUMP JUMPDEST SWAP1 POP DUP2 DUP2 SUB PUSH1 0xA0 DUP4 ADD MSTORE PUSH2 0x26C6 DUP2 DUP5 PUSH2 0x24B7 JUMP JUMPDEST SWAP1 POP SWAP8 SWAP7 POP POP POP POP POP POP POP JUMP JUMPDEST PUSH1 0x0 PUSH1 0x60 DUP3 ADD SWAP1 POP PUSH2 0x26E8 PUSH1 0x0 DUP4 ADD DUP7 PUSH2 0x247B JUMP JUMPDEST DUP2 DUP2 SUB PUSH1 0x20 DUP4 ADD MSTORE PUSH2 0x26FA DUP2 DUP6 PUSH2 0x24B7 JUMP JUMPDEST SWAP1 POP PUSH2 0x2709 PUSH1 0x40 DUP4 ADD DUP5 PUSH2 0x25F5 JUMP JUMPDEST SWAP5 SWAP4 POP POP POP POP JUMP JUMPDEST PUSH1 0x0 PUSH1 0x80 DUP3 ADD SWAP1 POP PUSH2 0x2726 PUSH1 0x0 DUP4 ADD DUP8 PUSH2 0x247B JUMP JUMPDEST PUSH2 0x2733 PUSH1 0x20 DUP4 ADD DUP7 PUSH2 0x25F5 JUMP JUMPDEST PUSH2 0x2740 PUSH1 0x40 DUP4 ADD DUP6 PUSH2 0x25B9 JUMP JUMPDEST DUP2 DUP2 SUB PUSH1 0x60 DUP4 ADD MSTORE PUSH2 0x2752 DUP2 DUP5 PUSH2 0x24B7 JUMP JUMPDEST SWAP1 POP SWAP6 SWAP5 POP POP POP POP POP JUMP JUMPDEST PUSH1 0x0 PUSH1 0x20 DUP3 ADD SWAP1 POP DUP2 DUP2 SUB PUSH1 0x0 DUP4 ADD MSTORE PUSH2 0x2776 DUP2 PUSH2 0x24F0 JUMP JUMPDEST SWAP1 POP SWAP2 SWAP1 POP JUMP JUMPDEST PUSH1 0x0 PUSH1 0x20 DUP3 ADD SWAP1 POP DUP2 DUP2 SUB PUSH1 0x0 DUP4 ADD MSTORE PUSH2 0x2796 DUP2 PUSH2 0x2513 JUMP JUMPDEST SWAP1 POP SWAP2 SWAP1 POP JUMP JUMPDEST PUSH1 0x0 PUSH1 0x20 DUP3 ADD SWAP1 POP DUP2 DUP2 SUB PUSH1 0x0 DUP4 ADD MSTORE PUSH2 0x27B6 DUP2 PUSH2 0x2536 JUMP JUMPDEST SWAP1 POP SWAP2 SWAP1 POP JUMP JUMPDEST PUSH1 0x0 PUSH1 0x20 DUP3 ADD SWAP1 POP PUSH2 0x27D2 PUSH1 0x0 DUP4 ADD DUP5 PUSH2 0x25B9 JUMP JUMPDEST SWAP3 SWAP2 POP POP JUMP JUMPDEST PUSH1 0x0 PUSH2 0x1A0 DUP3 ADD SWAP1 POP PUSH2 0x27EE PUSH1 0x0 DUP4 ADD DUP15 PUSH2 0x25B9 JUMP JUMPDEST PUSH2 0x27FB PUSH1 0x20 DUP4 ADD DUP14 PUSH2 0x246C JUMP JUMPDEST PUSH2 0x2808 PUSH1 0x40 DUP4 ADD DUP13 PUSH2 0x25D7 JUMP JUMPDEST PUSH2 0x2815 PUSH1 0x60 DUP4 ADD DUP12 PUSH2 0x25F5 JUMP JUMPDEST PUSH2 0x2822 PUSH1 0x80 DUP4 ADD DUP11 PUSH2 0x248A JUMP JUMPDEST DUP2 DUP2 SUB PUSH1 0xA0 DUP4 ADD MSTORE PUSH2 0x2834 DUP2 DUP10 PUSH2 0x24B7 JUMP JUMPDEST SWAP1 POP PUSH2 0x2843 PUSH1 0xC0 DUP4 ADD DUP9 PUSH2 0x25B9 JUMP JUMPDEST PUSH2 0x2850 PUSH1 0xE0 DUP4 ADD DUP8 PUSH2 0x25B9 JUMP JUMPDEST PUSH2 0x285E PUSH2 0x100 DUP4 ADD DUP7 PUSH2 0x25F5 JUMP JUMPDEST PUSH2 0x286C PUSH2 0x120 DUP4 ADD DUP6 PUSH2 0x25D7 JUMP JUMPDEST PUSH2 0x287A PUSH2 0x140 DUP4 ADD DUP5 PUSH2 0x2559 JUMP JUMPDEST SWAP13 SWAP12 POP POP POP POP POP POP POP POP POP POP POP POP JUMP JUMPDEST PUSH1 0x0 PUSH1 0x40 DUP3 ADD SWAP1 POP PUSH2 0x289F PUSH1 0x0 DUP4 ADD DUP6 PUSH2 0x25D7 JUMP JUMPDEST DUP2 DUP2 SUB PUSH1 0x20 DUP4 ADD MSTORE PUSH2 0x28B1 DUP2 DUP5 PUSH2 0x24B7 JUMP JUMPDEST SWAP1 POP SWAP4 SWAP3 POP POP POP JUMP JUMPDEST PUSH1 0x0 PUSH2 0x28C4 PUSH2 0x28D5 JUMP JUMPDEST SWAP1 POP PUSH2 0x28D0 DUP3 DUP3 PUSH2 0x2AA6 JUMP JUMPDEST SWAP2 SWAP1 POP JUMP JUMPDEST PUSH1 0x0 PUSH1 0x40 MLOAD SWAP1 POP SWAP1 JUMP JUMPDEST PUSH1 0x0 PUSH8 0xFFFFFFFFFFFFFFFF DUP3 GT ISZERO PUSH2 0x28FA JUMPI PUSH2 0x28F9 PUSH2 0x2BAD JUMP JUMPDEST JUMPDEST PUSH2 0x2903 DUP3 PUSH2 0x2BF0 JUMP JUMPDEST SWAP1 POP PUSH1 0x20 DUP2 ADD SWAP1 POP SWAP2 SWAP1 POP JUMP JUMPDEST PUSH1 0x0 DUP2 MLOAD SWAP1 POP SWAP2 SWAP1 POP JUMP JUMPDEST PUSH1 0x0 DUP3 DUP3 MSTORE PUSH1 0x20 DUP3 ADD SWAP1 POP SWAP3 SWAP2 POP POP JUMP JUMPDEST PUSH1 0x0 PUSH2 0x2937 DUP3 PUSH2 0x2991 JUMP JUMPDEST SWAP1 POP SWAP2 SWAP1 POP JUMP JUMPDEST PUSH1 0x0 DUP2 ISZERO ISZERO SWAP1 POP SWAP2 SWAP1 POP JUMP JUMPDEST PUSH1 0x0 DUP2 SWAP1 POP PUSH2 0x2958 DUP3 PUSH2 0x2C7C JUMP JUMPDEST SWAP2 SWAP1 POP JUMP JUMPDEST PUSH1 0x0 DUP2 SWAP1 POP PUSH2 0x296B DUP3 PUSH2 0x2C90 JUMP JUMPDEST SWAP2 SWAP1 POP JUMP JUMPDEST PUSH1 0x0 DUP2 SWAP1 POP PUSH2 0x297E DUP3 PUSH2 0x2CA4 JUMP JUMPDEST SWAP2 SWAP1 POP JUMP JUMPDEST PUSH1 0x0 PUSH2 0xFFFF DUP3 AND SWAP1 POP SWAP2 SWAP1 POP JUMP JUMPDEST PUSH1 0x0 PUSH20 0xFFFFFFFFFFFFFFFFFFFFFFFFFFFFFFFFFFFFFFFF DUP3 AND SWAP1 POP SWAP2 SWAP1 POP JUMP JUMPDEST PUSH1 0x0 DUP2 SWAP1 POP SWAP2 SWAP1 POP JUMP JUMPDEST PUSH1 0x0 PUSH4 0xFFFFFFFF DUP3 AND SWAP1 POP SWAP2 SWAP1 POP JUMP JUMPDEST PUSH1 0x0 PUSH1 0xFF DUP3 AND SWAP1 POP SWAP2 SWAP1 POP JUMP JUMPDEST PUSH1 0x0 PUSH2 0x29E3 DUP3 PUSH2 0x294A JUMP JUMPDEST SWAP1 POP SWAP2 SWAP1 POP JUMP JUMPDEST PUSH1 0x0 PUSH2 0x29F5 DUP3 PUSH2 0x295D JUMP JUMPDEST SWAP1 POP SWAP2 SWAP1 POP JUMP JUMPDEST PUSH1 0x0 PUSH2 0x2A07 DUP3 PUSH2 0x2970 JUMP JUMPDEST SWAP1 POP SWAP2 SWAP1 POP JUMP JUMPDEST PUSH1 0x0 PUSH2 0x2A19 DUP3 PUSH2 0x29BB JUMP JUMPDEST SWAP1 POP SWAP2 SWAP1 POP JUMP JUMPDEST PUSH1 0x0 PUSH2 0x2A2B DUP3 PUSH2 0x29CB JUMP JUMPDEST SWAP1 POP SWAP2 SWAP1 POP JUMP JUMPDEST DUP3 DUP2 DUP4 CALLDATACOPY PUSH1 0x0 DUP4 DUP4 ADD MSTORE POP POP POP JUMP JUMPDEST PUSH1 0x0 JUMPDEST DUP4 DUP2 LT ISZERO PUSH2 0x2A5F JUMPI DUP1 DUP3 ADD MLOAD DUP2 DUP5 ADD MSTORE PUSH1 0x20 DUP2 ADD SWAP1 POP PUSH2 0x2A44 JUMP JUMPDEST DUP4 DUP2 GT ISZERO PUSH2 0x2A6E JUMPI PUSH1 0x0 DUP5 DUP5 ADD MSTORE JUMPDEST POP POP POP POP JUMP JUMPDEST PUSH1 0x0 PUSH1 0x2 DUP3 DIV SWAP1 POP PUSH1 0x1 DUP3 AND DUP1 PUSH2 0x2A8C JUMPI PUSH1 0x7F DUP3 AND SWAP2 POP JUMPDEST PUSH1 0x20 DUP3 LT DUP2 EQ ISZERO PUSH2 0x2AA0 JUMPI PUSH2 0x2A9F PUSH2 0x2B7E JUMP JUMPDEST JUMPDEST POP SWAP2 SWAP1 POP JUMP JUMPDEST PUSH2 0x2AAF DUP3 PUSH2 0x2BF0 JUMP JUMPDEST DUP2 ADD DUP2 DUP2 LT PUSH8 0xFFFFFFFFFFFFFFFF DUP3 GT OR ISZERO PUSH2 0x2ACE JUMPI PUSH2 0x2ACD PUSH2 0x2BAD JUMP JUMPDEST JUMPDEST DUP1 PUSH1 0x40 MSTORE POP POP POP JUMP JUMPDEST PUSH1 0x0 PUSH2 0x2AE2 DUP3 PUSH2 0x29B1 JUMP JUMPDEST SWAP2 POP PUSH32 0xFFFFFFFFFFFFFFFFFFFFFFFFFFFFFFFFFFFFFFFFFFFFFFFFFFFFFFFFFFFFFFFF DUP3 EQ ISZERO PUSH2 0x2B15 JUMPI PUSH2 0x2B14 PUSH2 0x2B20 JUMP JUMPDEST JUMPDEST PUSH1 0x1 DUP3 ADD SWAP1 POP SWAP2 SWAP1 POP JUMP JUMPDEST PUSH32 0x4E487B7100000000000000000000000000000000000000000000000000000000 PUSH1 0x0 MSTORE PUSH1 0x11 PUSH1 0x4 MSTORE PUSH1 0x24 PUSH1 0x0 REVERT JUMPDEST PUSH32 0x4E487B7100000000000000000000000000000000000000000000000000000000 PUSH1 0x0 MSTORE PUSH1 0x21 PUSH1 0x4 MSTORE PUSH1 0x24 PUSH1 0x0 REVERT JUMPDEST PUSH32 0x4E487B7100000000000000000000000000000000000000000000000000000000 PUSH1 0x0 MSTORE PUSH1 0x22 PUSH1 0x4 MSTORE PUSH1 0x24 PUSH1 0x0 REVERT JUMPDEST PUSH32 0x4E487B7100000000000000000000000000000000000000000000000000000000 PUSH1 0x0 MSTORE PUSH1 0x41 PUSH1 0x4 MSTORE PUSH1 0x24 PUSH1 0x0 REVERT JUMPDEST PUSH1 0x0 DUP1 REVERT JUMPDEST PUSH1 0x0 DUP1 REVERT JUMPDEST PUSH1 0x0 DUP1 REVERT JUMPDEST PUSH1 0x0 DUP1 REVERT JUMPDEST PUSH1 0x0 PUSH1 0x1F NOT PUSH1 0x1F DUP4 ADD AND SWAP1 POP SWAP2 SWAP1 POP JUMP JUMPDEST PUSH32 0x42752069736C656D6920736164656365204B697369207961706162696C69722E PUSH1 0x0 DUP3 ADD MSTORE POP JUMP JUMPDEST PUSH32 0x53747564656E74206E6F74206578697374730000000000000000000000000000 PUSH1 0x0 DUP3 ADD MSTORE POP JUMP JUMPDEST PUSH32 0x42752069736C656D6920736164656365204B757273207961706162696C69722E PUSH1 0x0 DUP3 ADD MSTORE POP JUMP JUMPDEST PUSH1 0x3 DUP2 LT PUSH2 0x2C8D JUMPI PUSH2 0x2C8C PUSH2 0x2B4F JUMP JUMPDEST JUMPDEST POP JUMP JUMPDEST PUSH1 0x3 DUP2 LT PUSH2 0x2CA1 JUMPI PUSH2 0x2CA0 PUSH2 0x2B4F JUMP JUMPDEST JUMPDEST POP JUMP JUMPDEST PUSH1 0x4 DUP2 LT PUSH2 0x2CB5 JUMPI PUSH2 0x2CB4 PUSH2 0x2B4F JUMP JUMPDEST JUMPDEST POP JUMP JUMPDEST PUSH2 0x2CC1 DUP2 PUSH2 0x292C JUMP JUMPDEST DUP2 EQ PUSH2 0x2CCC JUMPI PUSH1 0x0 DUP1 REVERT JUMPDEST POP JUMP JUMPDEST PUSH1 0x3 DUP2 LT PUSH2 0x2CDC JUMPI PUSH1 0x0 DUP1 REVERT JUMPDEST POP JUMP JUMPDEST PUSH2 0x2CE8 DUP2 PUSH2 0x29B1 JUMP JUMPDEST DUP2 EQ PUSH2 0x2CF3 JUMPI PUSH1 0x0 DUP1 REVERT JUMPDEST POP JUMP JUMPDEST PUSH2 0x2CFF DUP2 PUSH2 0x29BB JUMP JUMPDEST DUP2 EQ PUSH2 0x2D0A JUMPI PUSH1 0x0 DUP1 REVERT JUMPDEST POP JUMP JUMPDEST PUSH2 0x2D16 DUP2 PUSH2 0x29CB JUMP JUMPDEST DUP2 EQ PUSH2 0x2D21 JUMPI PUSH1 0x0 DUP1 REVERT JUMPDEST POP JUMP INVALID LOG2 PUSH5 0x6970667358 0x22 SLT KECCAK256 0xCB PUSH21 0xF161662BBC33C299EA3DE02D65407389AF088D193E 0xA6 DUP11 0x2A ADDMOD CALLVALUE 0x2C 0xAB 0xC6 SWAP10 PUSH5 0x736F6C6343 STOP ADDMOD SMOD STOP CALLER "
				},
				"gasEstimates": {
					"creation": {
						"codeDepositCost": "2322000",
						"executionCost": "2486",
						"totalCost": "2324486"
					},
					"external": {
						"akademisyenler(address)": "infinite",
						"calismaBilgileri(address,uint256)": "infinite",
						"diller(uint32)": "infinite",
						"ekleCalismaBilgi(address,uint32,uint8,uint8,string,uint256,uint256,uint8,uint32)": "infinite",
						"firmalar(address)": "infinite",
						"guncelleCalismaBilgi(address,uint256,uint32,uint8,uint8,string,uint256,uint256,uint8,uint32)": "infinite",
						"id()": "2473",
						"kamuKurumlari(address)": "infinite",
						"kisiler(address)": "2958",
						"kurslar(address)": "infinite",
						"sertifikaMerkezleri(address)": "infinite",
						"stklar(address)": "infinite",
						"talepEtCalismaBilgi(address,uint32,uint8,uint8,string,uint256,uint256,uint8,uint32)": "infinite",
						"universiteler(address)": "infinite"
					}
				},
				"methodIdentifiers": {
					"akademisyenler(address)": "ba479b7e",
					"calismaBilgileri(address,uint256)": "0fb0b1b2",
					"diller(uint32)": "a4e7ae05",
					"ekleCalismaBilgi(address,uint32,uint8,uint8,string,uint256,uint256,uint8,uint32)": "ac30910c",
					"firmalar(address)": "39987f94",
					"guncelleCalismaBilgi(address,uint256,uint32,uint8,uint8,string,uint256,uint256,uint8,uint32)": "62bda16b",
					"id()": "af640d0f",
					"kamuKurumlari(address)": "7d0fa287",
					"kisiler(address)": "cbc92809",
					"kurslar(address)": "1916e139",
					"sertifikaMerkezleri(address)": "356b1f1e",
					"stklar(address)": "9a8c9119",
					"talepEtCalismaBilgi(address,uint32,uint8,uint8,string,uint256,uint256,uint8,uint32)": "035963ce",
					"universiteler(address)": "28266697"
				}
			},
			"storageLayout": {
				"storage": [
					{
						"astId": 3,
						"contract": "contracts/CalismaBilgileri.sol:CalismaBilgileri",
						"label": "YOK",
						"offset": 0,
						"slot": "0",
						"type": "t_address"
					},
					{
						"astId": 5,
						"contract": "contracts/CalismaBilgileri.sol:CalismaBilgileri",
						"label": "TOBB",
						"offset": 0,
						"slot": "1",
						"type": "t_address"
					},
					{
						"astId": 7,
						"contract": "contracts/CalismaBilgileri.sol:CalismaBilgileri",
						"label": "CB",
						"offset": 0,
						"slot": "2",
						"type": "t_address"
					},
					{
						"astId": 249,
						"contract": "contracts/CalismaBilgileri.sol:CalismaBilgileri",
						"label": "kisiler",
						"offset": 0,
						"slot": "3",
						"type": "t_mapping(t_address,t_struct(Kisi)10_storage)"
					},
					{
						"astId": 254,
						"contract": "contracts/CalismaBilgileri.sol:CalismaBilgileri",
						"label": "universiteler",
						"offset": 0,
						"slot": "4",
						"type": "t_mapping(t_address,t_struct(Universite)29_storage)"
					},
					{
						"astId": 259,
						"contract": "contracts/CalismaBilgileri.sol:CalismaBilgileri",
						"label": "akademisyenler",
						"offset": 0,
						"slot": "5",
						"type": "t_mapping(t_address,t_struct(Akademisyen)43_storage)"
					},
					{
						"astId": 264,
						"contract": "contracts/CalismaBilgileri.sol:CalismaBilgileri",
						"label": "firmalar",
						"offset": 0,
						"slot": "6",
						"type": "t_mapping(t_address,t_struct(Firma)83_storage)"
					},
					{
						"astId": 269,
						"contract": "contracts/CalismaBilgileri.sol:CalismaBilgileri",
						"label": "kurslar",
						"offset": 0,
						"slot": "7",
						"type": "t_mapping(t_address,t_struct(Kurs)111_storage)"
					},
					{
						"astId": 274,
						"contract": "contracts/CalismaBilgileri.sol:CalismaBilgileri",
						"label": "kamuKurumlari",
						"offset": 0,
						"slot": "8",
						"type": "t_mapping(t_address,t_struct(KamuKurumu)90_storage)"
					},
					{
						"astId": 279,
						"contract": "contracts/CalismaBilgileri.sol:CalismaBilgileri",
						"label": "stklar",
						"offset": 0,
						"slot": "9",
						"type": "t_mapping(t_address,t_struct(STK)97_storage)"
					},
					{
						"astId": 284,
						"contract": "contracts/CalismaBilgileri.sol:CalismaBilgileri",
						"label": "sertifikaMerkezleri",
						"offset": 0,
						"slot": "10",
						"type": "t_mapping(t_address,t_struct(SertifikaMerkezi)104_storage)"
					},
					{
						"astId": 289,
						"contract": "contracts/CalismaBilgileri.sol:CalismaBilgileri",
						"label": "diller",
						"offset": 0,
						"slot": "11",
						"type": "t_mapping(t_uint32,t_struct(YabanciDil)116_storage)"
					},
					{
						"astId": 297,
						"contract": "contracts/CalismaBilgileri.sol:CalismaBilgileri",
						"label": "id",
						"offset": 0,
						"slot": "12",
						"type": "t_uint256"
					},
					{
						"astId": 333,
						"contract": "contracts/CalismaBilgileri.sol:CalismaBilgileri",
						"label": "calismaBilgileri",
						"offset": 0,
						"slot": "13",
						"type": "t_mapping(t_address,t_mapping(t_uint256,t_struct(CalismaBilgi)322_storage))"
					}
				],
				"types": {
					"t_address": {
						"encoding": "inplace",
						"label": "address",
						"numberOfBytes": "20"
					},
					"t_bool": {
						"encoding": "inplace",
						"label": "bool",
						"numberOfBytes": "1"
					},
					"t_enum(CalismaTipi)326": {
						"encoding": "inplace",
						"label": "enum CalismaBilgileri.CalismaTipi",
						"numberOfBytes": "1"
					},
					"t_enum(OnayDurum)22": {
						"encoding": "inplace",
						"label": "enum BaseContract.OnayDurum",
						"numberOfBytes": "1"
					},
					"t_enum(Unvan)48": {
						"encoding": "inplace",
						"label": "enum BaseContract.Unvan",
						"numberOfBytes": "1"
					},
					"t_mapping(t_address,t_mapping(t_uint256,t_struct(CalismaBilgi)322_storage))": {
						"encoding": "mapping",
						"key": "t_address",
						"label": "mapping(address => mapping(uint256 => struct CalismaBilgileri.CalismaBilgi))",
						"numberOfBytes": "32",
						"value": "t_mapping(t_uint256,t_struct(CalismaBilgi)322_storage)"
					},
					"t_mapping(t_address,t_struct(Akademisyen)43_storage)": {
						"encoding": "mapping",
						"key": "t_address",
						"label": "mapping(address => struct BaseContract.Akademisyen)",
						"numberOfBytes": "32",
						"value": "t_struct(Akademisyen)43_storage"
					},
					"t_mapping(t_address,t_struct(Firma)83_storage)": {
						"encoding": "mapping",
						"key": "t_address",
						"label": "mapping(address => struct BaseContract.Firma)",
						"numberOfBytes": "32",
						"value": "t_struct(Firma)83_storage"
					},
					"t_mapping(t_address,t_struct(KamuKurumu)90_storage)": {
						"encoding": "mapping",
						"key": "t_address",
						"label": "mapping(address => struct BaseContract.KamuKurumu)",
						"numberOfBytes": "32",
						"value": "t_struct(KamuKurumu)90_storage"
					},
					"t_mapping(t_address,t_struct(Kisi)10_storage)": {
						"encoding": "mapping",
						"key": "t_address",
						"label": "mapping(address => struct BaseContract.Kisi)",
						"numberOfBytes": "32",
						"value": "t_struct(Kisi)10_storage"
					},
					"t_mapping(t_address,t_struct(Kurs)111_storage)": {
						"encoding": "mapping",
						"key": "t_address",
						"label": "mapping(address => struct BaseContract.Kurs)",
						"numberOfBytes": "32",
						"value": "t_struct(Kurs)111_storage"
					},
					"t_mapping(t_address,t_struct(STK)97_storage)": {
						"encoding": "mapping",
						"key": "t_address",
						"label": "mapping(address => struct BaseContract.STK)",
						"numberOfBytes": "32",
						"value": "t_struct(STK)97_storage"
					},
					"t_mapping(t_address,t_struct(SertifikaMerkezi)104_storage)": {
						"encoding": "mapping",
						"key": "t_address",
						"label": "mapping(address => struct BaseContract.SertifikaMerkezi)",
						"numberOfBytes": "32",
						"value": "t_struct(SertifikaMerkezi)104_storage"
					},
					"t_mapping(t_address,t_struct(Universite)29_storage)": {
						"encoding": "mapping",
						"key": "t_address",
						"label": "mapping(address => struct BaseContract.Universite)",
						"numberOfBytes": "32",
						"value": "t_struct(Universite)29_storage"
					},
					"t_mapping(t_uint256,t_struct(CalismaBilgi)322_storage)": {
						"encoding": "mapping",
						"key": "t_uint256",
						"label": "mapping(uint256 => struct CalismaBilgileri.CalismaBilgi)",
						"numberOfBytes": "32",
						"value": "t_struct(CalismaBilgi)322_storage"
					},
					"t_mapping(t_uint32,t_struct(YabanciDil)116_storage)": {
						"encoding": "mapping",
						"key": "t_uint32",
						"label": "mapping(uint32 => struct BaseContract.YabanciDil)",
						"numberOfBytes": "32",
						"value": "t_struct(YabanciDil)116_storage"
					},
					"t_string_storage": {
						"encoding": "bytes",
						"label": "string",
						"numberOfBytes": "32"
					},
					"t_struct(Akademisyen)43_storage": {
						"encoding": "inplace",
						"label": "struct BaseContract.Akademisyen",
						"members": [
							{
								"astId": 31,
								"contract": "contracts/CalismaBilgileri.sol:CalismaBilgileri",
								"label": "durum",
								"offset": 0,
								"slot": "0",
								"type": "t_bool"
							},
							{
								"astId": 33,
								"contract": "contracts/CalismaBilgileri.sol:CalismaBilgileri",
								"label": "universite",
								"offset": 1,
								"slot": "0",
								"type": "t_address"
							},
							{
								"astId": 35,
								"contract": "contracts/CalismaBilgileri.sol:CalismaBilgileri",
								"label": "bolum",
								"offset": 21,
								"slot": "0",
								"type": "t_uint16"
							},
							{
								"astId": 38,
								"contract": "contracts/CalismaBilgileri.sol:CalismaBilgileri",
								"label": "unvan",
								"offset": 23,
								"slot": "0",
								"type": "t_enum(Unvan)48"
							},
							{
								"astId": 40,
								"contract": "contracts/CalismaBilgileri.sol:CalismaBilgileri",
								"label": "ad",
								"offset": 0,
								"slot": "1",
								"type": "t_string_storage"
							},
							{
								"astId": 42,
								"contract": "contracts/CalismaBilgileri.sol:CalismaBilgileri",
								"label": "soyad",
								"offset": 0,
								"slot": "2",
								"type": "t_string_storage"
							}
						],
						"numberOfBytes": "96"
					},
					"t_struct(CalismaBilgi)322_storage": {
						"encoding": "inplace",
						"label": "struct CalismaBilgileri.CalismaBilgi",
						"members": [
							{
								"astId": 299,
								"contract": "contracts/CalismaBilgileri.sol:CalismaBilgileri",
								"label": "id",
								"offset": 0,
								"slot": "0",
								"type": "t_uint256"
							},
							{
								"astId": 301,
								"contract": "contracts/CalismaBilgileri.sol:CalismaBilgileri",
								"label": "talepEdilenKurum",
								"offset": 0,
								"slot": "1",
								"type": "t_address"
							},
							{
								"astId": 303,
								"contract": "contracts/CalismaBilgileri.sol:CalismaBilgileri",
								"label": "pozisyon",
								"offset": 20,
								"slot": "1",
								"type": "t_uint32"
							},
							{
								"astId": 305,
								"contract": "contracts/CalismaBilgileri.sol:CalismaBilgileri",
								"label": "sektor",
								"offset": 24,
								"slot": "1",
								"type": "t_uint8"
							},
							{
								"astId": 308,
								"contract": "contracts/CalismaBilgileri.sol:CalismaBilgileri",
								"label": "calismaTipi",
								"offset": 25,
								"slot": "1",
								"type": "t_enum(CalismaTipi)326"
							},
							{
								"astId": 310,
								"contract": "contracts/CalismaBilgileri.sol:CalismaBilgileri",
								"label": "isAciklama",
								"offset": 0,
								"slot": "2",
								"type": "t_string_storage"
							},
							{
								"astId": 312,
								"contract": "contracts/CalismaBilgileri.sol:CalismaBilgileri",
								"label": "basTarih",
								"offset": 0,
								"slot": "3",
								"type": "t_uint256"
							},
							{
								"astId": 314,
								"contract": "contracts/CalismaBilgileri.sol:CalismaBilgileri",
								"label": "bitTarih",
								"offset": 0,
								"slot": "4",
								"type": "t_uint256"
							},
							{
								"astId": 316,
								"contract": "contracts/CalismaBilgileri.sol:CalismaBilgileri",
								"label": "ulke",
								"offset": 0,
								"slot": "5",
								"type": "t_uint8"
							},
							{
								"astId": 318,
								"contract": "contracts/CalismaBilgileri.sol:CalismaBilgileri",
								"label": "sehir",
								"offset": 1,
								"slot": "5",
								"type": "t_uint32"
							},
							{
								"astId": 321,
								"contract": "contracts/CalismaBilgileri.sol:CalismaBilgileri",
								"label": "onayBilgi",
								"offset": 0,
								"slot": "6",
								"type": "t_struct(Onay)18_storage"
							}
						],
						"numberOfBytes": "256"
					},
					"t_struct(Firma)83_storage": {
						"encoding": "inplace",
						"label": "struct BaseContract.Firma",
						"members": [
							{
								"astId": 76,
								"contract": "contracts/CalismaBilgileri.sol:CalismaBilgileri",
								"label": "durum",
								"offset": 0,
								"slot": "0",
								"type": "t_bool"
							},
							{
								"astId": 78,
								"contract": "contracts/CalismaBilgileri.sol:CalismaBilgileri",
								"label": "ulke",
								"offset": 1,
								"slot": "0",
								"type": "t_uint8"
							},
							{
								"astId": 80,
								"contract": "contracts/CalismaBilgileri.sol:CalismaBilgileri",
								"label": "vergiNo",
								"offset": 0,
								"slot": "1",
								"type": "t_uint256"
							},
							{
								"astId": 82,
								"contract": "contracts/CalismaBilgileri.sol:CalismaBilgileri",
								"label": "isim",
								"offset": 0,
								"slot": "2",
								"type": "t_string_storage"
							}
						],
						"numberOfBytes": "96"
					},
					"t_struct(KamuKurumu)90_storage": {
						"encoding": "inplace",
						"label": "struct BaseContract.KamuKurumu",
						"members": [
							{
								"astId": 85,
								"contract": "contracts/CalismaBilgileri.sol:CalismaBilgileri",
								"label": "durum",
								"offset": 0,
								"slot": "0",
								"type": "t_bool"
							},
							{
								"astId": 87,
								"contract": "contracts/CalismaBilgileri.sol:CalismaBilgileri",
								"label": "isim",
								"offset": 0,
								"slot": "1",
								"type": "t_string_storage"
							},
							{
								"astId": 89,
								"contract": "contracts/CalismaBilgileri.sol:CalismaBilgileri",
								"label": "ulke",
								"offset": 0,
								"slot": "2",
								"type": "t_uint8"
							}
						],
						"numberOfBytes": "96"
					},
					"t_struct(Kisi)10_storage": {
						"encoding": "inplace",
						"label": "struct BaseContract.Kisi",
						"members": [
							{
								"astId": 9,
								"contract": "contracts/CalismaBilgileri.sol:CalismaBilgileri",
								"label": "durum",
								"offset": 0,
								"slot": "0",
								"type": "t_bool"
							}
						],
						"numberOfBytes": "32"
					},
					"t_struct(Kurs)111_storage": {
						"encoding": "inplace",
						"label": "struct BaseContract.Kurs",
						"members": [
							{
								"astId": 106,
								"contract": "contracts/CalismaBilgileri.sol:CalismaBilgileri",
								"label": "durum",
								"offset": 0,
								"slot": "0",
								"type": "t_bool"
							},
							{
								"astId": 108,
								"contract": "contracts/CalismaBilgileri.sol:CalismaBilgileri",
								"label": "isim",
								"offset": 0,
								"slot": "1",
								"type": "t_string_storage"
							},
							{
								"astId": 110,
								"contract": "contracts/CalismaBilgileri.sol:CalismaBilgileri",
								"label": "ulke",
								"offset": 0,
								"slot": "2",
								"type": "t_uint8"
							}
						],
						"numberOfBytes": "96"
					},
					"t_struct(Onay)18_storage": {
						"encoding": "inplace",
						"label": "struct BaseContract.Onay",
						"members": [
							{
								"astId": 12,
								"contract": "contracts/CalismaBilgileri.sol:CalismaBilgileri",
								"label": "zaman",
								"offset": 0,
								"slot": "0",
								"type": "t_uint256"
							},
							{
								"astId": 14,
								"contract": "contracts/CalismaBilgileri.sol:CalismaBilgileri",
								"label": "adres",
								"offset": 0,
								"slot": "1",
								"type": "t_address"
							},
							{
								"astId": 17,
								"contract": "contracts/CalismaBilgileri.sol:CalismaBilgileri",
								"label": "durum",
								"offset": 20,
								"slot": "1",
								"type": "t_enum(OnayDurum)22"
							}
						],
						"numberOfBytes": "64"
					},
					"t_struct(STK)97_storage": {
						"encoding": "inplace",
						"label": "struct BaseContract.STK",
						"members": [
							{
								"astId": 92,
								"contract": "contracts/CalismaBilgileri.sol:CalismaBilgileri",
								"label": "durum",
								"offset": 0,
								"slot": "0",
								"type": "t_bool"
							},
							{
								"astId": 94,
								"contract": "contracts/CalismaBilgileri.sol:CalismaBilgileri",
								"label": "isim",
								"offset": 0,
								"slot": "1",
								"type": "t_string_storage"
							},
							{
								"astId": 96,
								"contract": "contracts/CalismaBilgileri.sol:CalismaBilgileri",
								"label": "ulke",
								"offset": 0,
								"slot": "2",
								"type": "t_uint8"
							}
						],
						"numberOfBytes": "96"
					},
					"t_struct(SertifikaMerkezi)104_storage": {
						"encoding": "inplace",
						"label": "struct BaseContract.SertifikaMerkezi",
						"members": [
							{
								"astId": 99,
								"contract": "contracts/CalismaBilgileri.sol:CalismaBilgileri",
								"label": "durum",
								"offset": 0,
								"slot": "0",
								"type": "t_bool"
							},
							{
								"astId": 101,
								"contract": "contracts/CalismaBilgileri.sol:CalismaBilgileri",
								"label": "isim",
								"offset": 0,
								"slot": "1",
								"type": "t_string_storage"
							},
							{
								"astId": 103,
								"contract": "contracts/CalismaBilgileri.sol:CalismaBilgileri",
								"label": "ulke",
								"offset": 0,
								"slot": "2",
								"type": "t_uint8"
							}
						],
						"numberOfBytes": "96"
					},
					"t_struct(Universite)29_storage": {
						"encoding": "inplace",
						"label": "struct BaseContract.Universite",
						"members": [
							{
								"astId": 24,
								"contract": "contracts/CalismaBilgileri.sol:CalismaBilgileri",
								"label": "durum",
								"offset": 0,
								"slot": "0",
								"type": "t_bool"
							},
							{
								"astId": 26,
								"contract": "contracts/CalismaBilgileri.sol:CalismaBilgileri",
								"label": "isim",
								"offset": 0,
								"slot": "1",
								"type": "t_string_storage"
							},
							{
								"astId": 28,
								"contract": "contracts/CalismaBilgileri.sol:CalismaBilgileri",
								"label": "ulke",
								"offset": 0,
								"slot": "2",
								"type": "t_uint8"
							}
						],
						"numberOfBytes": "96"
					},
					"t_struct(YabanciDil)116_storage": {
						"encoding": "inplace",
						"label": "struct BaseContract.YabanciDil",
						"members": [
							{
								"astId": 113,
								"contract": "contracts/CalismaBilgileri.sol:CalismaBilgileri",
								"label": "id",
								"offset": 0,
								"slot": "0",
								"type": "t_uint32"
							},
							{
								"astId": 115,
								"contract": "contracts/CalismaBilgileri.sol:CalismaBilgileri",
								"label": "isim",
								"offset": 0,
								"slot": "1",
								"type": "t_string_storage"
							}
						],
						"numberOfBytes": "64"
					},
					"t_uint16": {
						"encoding": "inplace",
						"label": "uint16",
						"numberOfBytes": "2"
					},
					"t_uint256": {
						"encoding": "inplace",
						"label": "uint256",
						"numberOfBytes": "32"
					},
					"t_uint32": {
						"encoding": "inplace",
						"label": "uint32",
						"numberOfBytes": "4"
					},
					"t_uint8": {
						"encoding": "inplace",
						"label": "uint8",
						"numberOfBytes": "1"
					}
				}
			},
			"userdoc": {
				"kind": "user",
				"methods": {},
				"version": 1
			}
		}
	}
}