{
	"contracts/CalismaBilgileri.sol": {
		"CalismaBilgileri": {
			"abi": [
				{
					"anonymous": false,
					"inputs": [
						{
							"indexed": false,
							"internalType": "address",
							"name": "_kisiAdres",
							"type": "address"
						},
						{
							"indexed": false,
							"internalType": "uint8",
							"name": "_ulke",
							"type": "uint8"
						},
						{
							"indexed": false,
							"internalType": "uint256",
							"name": "_pozisyon",
							"type": "uint256"
						},
						{
							"indexed": false,
							"internalType": "uint256",
							"name": "_sektor",
							"type": "uint256"
						}
					],
					"name": "CalismaBilgiEklendiLog",
					"type": "event"
				},
				{
					"anonymous": false,
					"inputs": [
						{
							"indexed": false,
							"internalType": "address",
							"name": "_kisiAdres",
							"type": "address"
						},
						{
							"indexed": false,
							"internalType": "uint8",
							"name": "_ulke",
							"type": "uint8"
						},
						{
							"indexed": false,
							"internalType": "uint256",
							"name": "_pozisyon",
							"type": "uint256"
						},
						{
							"indexed": false,
							"internalType": "uint256",
							"name": "_sektor",
							"type": "uint256"
						}
					],
					"name": "CalismaBilgiGuncellendiLog",
					"type": "event"
				},
				{
					"inputs": [
						{
							"internalType": "address",
							"name": "",
							"type": "address"
						}
					],
					"name": "akademisyenler",
					"outputs": [
						{
							"internalType": "bool",
							"name": "durum",
							"type": "bool"
						},
						{
							"internalType": "address",
							"name": "universite",
							"type": "address"
						},
						{
							"internalType": "uint16",
							"name": "bolum",
							"type": "uint16"
						},
						{
							"internalType": "enum BaseContract.Unvan",
							"name": "unvan",
							"type": "uint8"
						},
						{
							"internalType": "string",
							"name": "ad",
							"type": "string"
						},
						{
							"internalType": "string",
							"name": "soyad",
							"type": "string"
						}
					],
					"stateMutability": "view",
					"type": "function"
				},
				{
					"inputs": [
						{
							"internalType": "address",
							"name": "",
							"type": "address"
						},
						{
							"internalType": "uint256",
							"name": "",
							"type": "uint256"
						}
					],
					"name": "calismaBilgileri",
					"outputs": [
						{
							"internalType": "uint256",
							"name": "id",
							"type": "uint256"
						},
						{
							"internalType": "address",
							"name": "kurumAdres",
							"type": "address"
						},
						{
							"internalType": "uint32",
							"name": "pozisyon",
							"type": "uint32"
						},
						{
							"internalType": "uint8",
							"name": "sektor",
							"type": "uint8"
						},
						{
							"internalType": "enum CalismaBilgileri.CalismaTipi",
							"name": "calismaTipi",
							"type": "uint8"
						},
						{
							"internalType": "string",
							"name": "isAciklama",
							"type": "string"
						},
						{
							"internalType": "uint256",
							"name": "basTarih",
							"type": "uint256"
						},
						{
							"internalType": "uint256",
							"name": "bitTarih",
							"type": "uint256"
						},
						{
							"internalType": "uint8",
							"name": "ulke",
							"type": "uint8"
						},
						{
							"internalType": "uint32",
							"name": "sehir",
							"type": "uint32"
						},
						{
							"components": [
								{
									"internalType": "uint256",
									"name": "zaman",
									"type": "uint256"
								},
								{
									"internalType": "address",
									"name": "adres",
									"type": "address"
								},
								{
									"internalType": "enum BaseContract.OnayDurum",
									"name": "durum",
									"type": "uint8"
								}
							],
							"internalType": "struct BaseContract.Onay",
							"name": "onayBilgi",
							"type": "tuple"
						}
					],
					"stateMutability": "view",
					"type": "function"
				},
				{
					"inputs": [
						{
							"internalType": "uint32",
							"name": "",
							"type": "uint32"
						}
					],
					"name": "diller",
					"outputs": [
						{
							"internalType": "uint32",
							"name": "id",
							"type": "uint32"
						},
						{
							"internalType": "string",
							"name": "isim",
							"type": "string"
						}
					],
					"stateMutability": "view",
					"type": "function"
				},
				{
					"inputs": [
						{
							"internalType": "address",
							"name": "_kisiAddress",
							"type": "address"
						},
						{
							"internalType": "uint32",
							"name": "pozisyon",
							"type": "uint32"
						},
						{
							"internalType": "uint8",
							"name": "sektor",
							"type": "uint8"
						},
						{
							"internalType": "enum CalismaBilgileri.CalismaTipi",
							"name": "calismaTipi",
							"type": "uint8"
						},
						{
							"internalType": "string",
							"name": "isAciklama",
							"type": "string"
						},
						{
							"internalType": "uint256",
							"name": "basTarih",
							"type": "uint256"
						},
						{
							"internalType": "uint256",
							"name": "bitTarih",
							"type": "uint256"
						},
						{
							"internalType": "uint8",
							"name": "ulke",
							"type": "uint8"
						},
						{
							"internalType": "uint32",
							"name": "sehir",
							"type": "uint32"
						}
					],
					"name": "ekleCalismaBilgi",
					"outputs": [],
					"stateMutability": "nonpayable",
					"type": "function"
				},
				{
					"inputs": [
						{
							"internalType": "address",
							"name": "",
							"type": "address"
						}
					],
					"name": "firmalar",
					"outputs": [
						{
							"internalType": "bool",
							"name": "durum",
							"type": "bool"
						},
						{
							"internalType": "uint8",
							"name": "ulke",
							"type": "uint8"
						},
						{
							"internalType": "uint256",
							"name": "vergiNo",
							"type": "uint256"
						},
						{
							"internalType": "string",
							"name": "isim",
							"type": "string"
						}
					],
					"stateMutability": "view",
					"type": "function"
				},
				{
					"inputs": [
						{
							"internalType": "address",
							"name": "_kisiAddress",
							"type": "address"
						},
						{
							"internalType": "uint256",
							"name": "_calismaBilgiId",
							"type": "uint256"
						},
						{
							"internalType": "uint32",
							"name": "pozisyon",
							"type": "uint32"
						},
						{
							"internalType": "uint8",
							"name": "sektor",
							"type": "uint8"
						},
						{
							"internalType": "enum CalismaBilgileri.CalismaTipi",
							"name": "calismaTipi",
							"type": "uint8"
						},
						{
							"internalType": "string",
							"name": "isAciklama",
							"type": "string"
						},
						{
							"internalType": "uint256",
							"name": "basTarih",
							"type": "uint256"
						},
						{
							"internalType": "uint256",
							"name": "bitTarih",
							"type": "uint256"
						},
						{
							"internalType": "uint8",
							"name": "ulke",
							"type": "uint8"
						},
						{
							"internalType": "uint32",
							"name": "sehir",
							"type": "uint32"
						}
					],
					"name": "guncelleCalismaBilgi",
					"outputs": [
						{
							"internalType": "uint256",
							"name": "",
							"type": "uint256"
						}
					],
					"stateMutability": "nonpayable",
					"type": "function"
				},
				{
					"inputs": [],
					"name": "id",
					"outputs": [
						{
							"internalType": "uint256",
							"name": "",
							"type": "uint256"
						}
					],
					"stateMutability": "view",
					"type": "function"
				},
				{
					"inputs": [
						{
							"internalType": "address",
							"name": "",
							"type": "address"
						}
					],
					"name": "kamuKurumlari",
					"outputs": [
						{
							"internalType": "bool",
							"name": "durum",
							"type": "bool"
						},
						{
							"internalType": "string",
							"name": "isim",
							"type": "string"
						},
						{
							"internalType": "uint8",
							"name": "ulke",
							"type": "uint8"
						}
					],
					"stateMutability": "view",
					"type": "function"
				},
				{
					"inputs": [
						{
							"internalType": "address",
							"name": "",
							"type": "address"
						}
					],
					"name": "kisiler",
					"outputs": [
						{
							"internalType": "bool",
							"name": "durum",
							"type": "bool"
						}
					],
					"stateMutability": "view",
					"type": "function"
				},
				{
					"inputs": [
						{
							"internalType": "address",
							"name": "",
							"type": "address"
						}
					],
					"name": "kurslar",
					"outputs": [
						{
							"internalType": "bool",
							"name": "durum",
							"type": "bool"
						},
						{
							"internalType": "string",
							"name": "isim",
							"type": "string"
						},
						{
							"internalType": "uint8",
							"name": "ulke",
							"type": "uint8"
						}
					],
					"stateMutability": "view",
					"type": "function"
				},
				{
					"inputs": [
						{
							"internalType": "address",
							"name": "",
							"type": "address"
						}
					],
					"name": "sertifikaMerkezleri",
					"outputs": [
						{
							"internalType": "bool",
							"name": "durum",
							"type": "bool"
						},
						{
							"internalType": "string",
							"name": "isim",
							"type": "string"
						},
						{
							"internalType": "uint8",
							"name": "ulke",
							"type": "uint8"
						}
					],
					"stateMutability": "view",
					"type": "function"
				},
				{
					"inputs": [
						{
							"internalType": "address",
							"name": "",
							"type": "address"
						}
					],
					"name": "stklar",
					"outputs": [
						{
							"internalType": "bool",
							"name": "durum",
							"type": "bool"
						},
						{
							"internalType": "string",
							"name": "isim",
							"type": "string"
						},
						{
							"internalType": "uint8",
							"name": "ulke",
							"type": "uint8"
						}
					],
					"stateMutability": "view",
					"type": "function"
				},
				{
					"inputs": [
						{
							"internalType": "address",
							"name": "",
							"type": "address"
						}
					],
					"name": "universiteler",
					"outputs": [
						{
							"internalType": "bool",
							"name": "durum",
							"type": "bool"
						},
						{
							"internalType": "string",
							"name": "isim",
							"type": "string"
						},
						{
							"internalType": "uint8",
							"name": "ulke",
							"type": "uint8"
						}
					],
					"stateMutability": "view",
					"type": "function"
				}
			],
			"devdoc": {
				"kind": "dev",
				"methods": {},
				"version": 1
			},
			"evm": {
				"assembly": "    /* \"contracts/CalismaBilgileri.sol\":137:3671  contract CalismaBilgileri is BaseContract{\r... */\n  mstore(0x40, 0x80)\n  callvalue\n  dup1\n  iszero\n  tag_1\n  jumpi\n  0x00\n  dup1\n  revert\ntag_1:\n  pop\n  dataSize(sub_0)\n  dup1\n  dataOffset(sub_0)\n  0x00\n  codecopy\n  0x00\n  return\nstop\n\nsub_0: assembly {\n        /* \"contracts/CalismaBilgileri.sol\":137:3671  contract CalismaBilgileri is BaseContract{\r... */\n      mstore(0x40, 0x80)\n      callvalue\n      dup1\n      iszero\n      tag_1\n      jumpi\n      0x00\n      dup1\n      revert\n    tag_1:\n      pop\n      jumpi(tag_2, lt(calldatasize, 0x04))\n      shr(0xe0, calldataload(0x00))\n      dup1\n      0x7d0fa287\n      gt\n      tag_16\n      jumpi\n      dup1\n      0xac30910c\n      gt\n      tag_17\n      jumpi\n      dup1\n      0xac30910c\n      eq\n      tag_12\n      jumpi\n      dup1\n      0xaf640d0f\n      eq\n      tag_13\n      jumpi\n      dup1\n      0xba479b7e\n      eq\n      tag_14\n      jumpi\n      dup1\n      0xcbc92809\n      eq\n      tag_15\n      jumpi\n      jump(tag_2)\n    tag_17:\n      dup1\n      0x7d0fa287\n      eq\n      tag_9\n      jumpi\n      dup1\n      0x9a8c9119\n      eq\n      tag_10\n      jumpi\n      dup1\n      0xa4e7ae05\n      eq\n      tag_11\n      jumpi\n      jump(tag_2)\n    tag_16:\n      dup1\n      0x0fb0b1b2\n      eq\n      tag_3\n      jumpi\n      dup1\n      0x1916e139\n      eq\n      tag_4\n      jumpi\n      dup1\n      0x28266697\n      eq\n      tag_5\n      jumpi\n      dup1\n      0x356b1f1e\n      eq\n      tag_6\n      jumpi\n      dup1\n      0x39987f94\n      eq\n      tag_7\n      jumpi\n      dup1\n      0x62bda16b\n      eq\n      tag_8\n      jumpi\n    tag_2:\n      0x00\n      dup1\n      revert\n        /* \"contracts/CalismaBilgileri.sol\":669:738  mapping(address=>mapping(uint=>CalismaBilgi)) public calismaBilgileri */\n    tag_3:\n      tag_18\n      0x04\n      dup1\n      calldatasize\n      sub\n      dup2\n      add\n      swap1\n      tag_19\n      swap2\n      swap1\n      tag_20\n      jump\t// in\n    tag_19:\n      tag_21\n      jump\t// in\n    tag_18:\n      mload(0x40)\n      tag_22\n      swap12\n      swap11\n      swap10\n      swap9\n      swap8\n      swap7\n      swap6\n      swap5\n      swap4\n      swap3\n      swap2\n      swap1\n      tag_23\n      jump\t// in\n    tag_22:\n      mload(0x40)\n      dup1\n      swap2\n      sub\n      swap1\n      return\n        /* \"contracts/BaseContract.sol\":3151:3189  mapping(address=>Kurs) public  kurslar */\n    tag_4:\n      tag_24\n      0x04\n      dup1\n      calldatasize\n      sub\n      dup2\n      add\n      swap1\n      tag_25\n      swap2\n      swap1\n      tag_26\n      jump\t// in\n    tag_25:\n      tag_27\n      jump\t// in\n    tag_24:\n      mload(0x40)\n      tag_28\n      swap4\n      swap3\n      swap2\n      swap1\n      tag_29\n      jump\t// in\n    tag_28:\n      mload(0x40)\n      dup1\n      swap2\n      sub\n      swap1\n      return\n        /* \"contracts/BaseContract.sol\":2990:3039  mapping(address=>Universite) public universiteler */\n    tag_5:\n      tag_30\n      0x04\n      dup1\n      calldatasize\n      sub\n      dup2\n      add\n      swap1\n      tag_31\n      swap2\n      swap1\n      tag_26\n      jump\t// in\n    tag_31:\n      tag_32\n      jump\t// in\n    tag_30:\n      mload(0x40)\n      tag_33\n      swap4\n      swap3\n      swap2\n      swap1\n      tag_29\n      jump\t// in\n    tag_33:\n      mload(0x40)\n      dup1\n      swap2\n      sub\n      swap1\n      return\n        /* \"contracts/BaseContract.sol\":3294:3355  mapping(address=>SertifikaMerkezi) public sertifikaMerkezleri */\n    tag_6:\n      tag_34\n      0x04\n      dup1\n      calldatasize\n      sub\n      dup2\n      add\n      swap1\n      tag_35\n      swap2\n      swap1\n      tag_26\n      jump\t// in\n    tag_35:\n      tag_36\n      jump\t// in\n    tag_34:\n      mload(0x40)\n      tag_37\n      swap4\n      swap3\n      swap2\n      swap1\n      tag_29\n      jump\t// in\n    tag_37:\n      mload(0x40)\n      dup1\n      swap2\n      sub\n      swap1\n      return\n        /* \"contracts/BaseContract.sol\":3104:3144  mapping(address=>Firma) public  firmalar */\n    tag_7:\n      tag_38\n      0x04\n      dup1\n      calldatasize\n      sub\n      dup2\n      add\n      swap1\n      tag_39\n      swap2\n      swap1\n      tag_26\n      jump\t// in\n    tag_39:\n      tag_40\n      jump\t// in\n    tag_38:\n      mload(0x40)\n      tag_41\n      swap5\n      swap4\n      swap3\n      swap2\n      swap1\n      tag_42\n      jump\t// in\n    tag_41:\n      mload(0x40)\n      dup1\n      swap2\n      sub\n      swap1\n      return\n        /* \"contracts/CalismaBilgileri.sol\":2247:3661  function guncelleCalismaBilgi(address _kisiAddress, uint _calismaBilgiId, uint32 pozisyon, uint8 sektor, CalismaTipi calismaTipi, string memory isAciklama, uint basTarih, uint bitTarih, uint8 ulke, uint32 sehir)  public sadece_Uni_Firma_Kamu returns(uint){\r... */\n    tag_8:\n      tag_43\n      0x04\n      dup1\n      calldatasize\n      sub\n      dup2\n      add\n      swap1\n      tag_44\n      swap2\n      swap1\n      tag_45\n      jump\t// in\n    tag_44:\n      tag_46\n      jump\t// in\n    tag_43:\n      mload(0x40)\n      tag_47\n      swap2\n      swap1\n      tag_48\n      jump\t// in\n    tag_47:\n      mload(0x40)\n      dup1\n      swap2\n      sub\n      swap1\n      return\n        /* \"contracts/BaseContract.sol\":3196:3245  mapping(address=>KamuKurumu) public kamuKurumlari */\n    tag_9:\n      tag_49\n      0x04\n      dup1\n      calldatasize\n      sub\n      dup2\n      add\n      swap1\n      tag_50\n      swap2\n      swap1\n      tag_26\n      jump\t// in\n    tag_50:\n      tag_51\n      jump\t// in\n    tag_49:\n      mload(0x40)\n      tag_52\n      swap4\n      swap3\n      swap2\n      swap1\n      tag_29\n      jump\t// in\n    tag_52:\n      mload(0x40)\n      dup1\n      swap2\n      sub\n      swap1\n      return\n        /* \"contracts/BaseContract.sol\":3252:3287  mapping(address=>STK) public stklar */\n    tag_10:\n      tag_53\n      0x04\n      dup1\n      calldatasize\n      sub\n      dup2\n      add\n      swap1\n      tag_54\n      swap2\n      swap1\n      tag_26\n      jump\t// in\n    tag_54:\n      tag_55\n      jump\t// in\n    tag_53:\n      mload(0x40)\n      tag_56\n      swap4\n      swap3\n      swap2\n      swap1\n      tag_29\n      jump\t// in\n    tag_56:\n      mload(0x40)\n      dup1\n      swap2\n      sub\n      swap1\n      return\n        /* \"contracts/BaseContract.sol\":3365:3406  mapping(uint32=>YabanciDil) public diller */\n    tag_11:\n      tag_57\n      0x04\n      dup1\n      calldatasize\n      sub\n      dup2\n      add\n      swap1\n      tag_58\n      swap2\n      swap1\n      tag_59\n      jump\t// in\n    tag_58:\n      tag_60\n      jump\t// in\n    tag_57:\n      mload(0x40)\n      tag_61\n      swap3\n      swap2\n      swap1\n      tag_62\n      jump\t// in\n    tag_61:\n      mload(0x40)\n      dup1\n      swap2\n      sub\n      swap1\n      return\n        /* \"contracts/CalismaBilgileri.sol\":977:2238  function ekleCalismaBilgi(address _kisiAddress, uint32 pozisyon, uint8 sektor, CalismaTipi calismaTipi, string memory isAciklama, uint basTarih, uint bitTarih, uint8 ulke, uint32 sehir)  public sadece_Uni_Firma_Kamu{\r... */\n    tag_12:\n      tag_63\n      0x04\n      dup1\n      calldatasize\n      sub\n      dup2\n      add\n      swap1\n      tag_64\n      swap2\n      swap1\n      tag_65\n      jump\t// in\n    tag_64:\n      tag_66\n      jump\t// in\n    tag_63:\n      stop\n        /* \"contracts/CalismaBilgileri.sol\":183:197  uint public id */\n    tag_13:\n      tag_67\n      tag_68\n      jump\t// in\n    tag_67:\n      mload(0x40)\n      tag_69\n      swap2\n      swap1\n      tag_48\n      jump\t// in\n    tag_69:\n      mload(0x40)\n      dup1\n      swap2\n      sub\n      swap1\n      return\n        /* \"contracts/BaseContract.sol\":3046:3097  mapping(address=>Akademisyen) public akademisyenler */\n    tag_14:\n      tag_70\n      0x04\n      dup1\n      calldatasize\n      sub\n      dup2\n      add\n      swap1\n      tag_71\n      swap2\n      swap1\n      tag_26\n      jump\t// in\n    tag_71:\n      tag_72\n      jump\t// in\n    tag_70:\n      mload(0x40)\n      tag_73\n      swap7\n      swap6\n      swap5\n      swap4\n      swap3\n      swap2\n      swap1\n      tag_74\n      jump\t// in\n    tag_73:\n      mload(0x40)\n      dup1\n      swap2\n      sub\n      swap1\n      return\n        /* \"contracts/BaseContract.sol\":2946:2983  mapping(address=>Kisi) public kisiler */\n    tag_15:\n      tag_75\n      0x04\n      dup1\n      calldatasize\n      sub\n      dup2\n      add\n      swap1\n      tag_76\n      swap2\n      swap1\n      tag_26\n      jump\t// in\n    tag_76:\n      tag_77\n      jump\t// in\n    tag_75:\n      mload(0x40)\n      tag_78\n      swap2\n      swap1\n      tag_79\n      jump\t// in\n    tag_78:\n      mload(0x40)\n      dup1\n      swap2\n      sub\n      swap1\n      return\n        /* \"contracts/CalismaBilgileri.sol\":669:738  mapping(address=>mapping(uint=>CalismaBilgi)) public calismaBilgileri */\n    tag_21:\n      mstore(0x20, 0x0d)\n      dup2\n      0x00\n      mstore\n      mstore(0x20, keccak256(0x00, 0x40))\n      dup1\n      0x00\n      mstore\n      keccak256(0x00, 0x40)\n      0x00\n      swap2\n      pop\n      swap2\n      pop\n      pop\n      dup1\n      0x00\n      add\n      sload\n      swap1\n      dup1\n      0x01\n      add\n      0x00\n      swap1\n      sload\n      swap1\n      0x0100\n      exp\n      swap1\n      div\n      0xffffffffffffffffffffffffffffffffffffffff\n      and\n      swap1\n      dup1\n      0x01\n      add\n      0x14\n      swap1\n      sload\n      swap1\n      0x0100\n      exp\n      swap1\n      div\n      0xffffffff\n      and\n      swap1\n      dup1\n      0x01\n      add\n      0x18\n      swap1\n      sload\n      swap1\n      0x0100\n      exp\n      swap1\n      div\n      0xff\n      and\n      swap1\n      dup1\n      0x01\n      add\n      0x19\n      swap1\n      sload\n      swap1\n      0x0100\n      exp\n      swap1\n      div\n      0xff\n      and\n      swap1\n      dup1\n      0x02\n      add\n      dup1\n      sload\n      tag_80\n      swap1\n      tag_81\n      jump\t// in\n    tag_80:\n      dup1\n      0x1f\n      add\n      0x20\n      dup1\n      swap2\n      div\n      mul\n      0x20\n      add\n      mload(0x40)\n      swap1\n      dup2\n      add\n      0x40\n      mstore\n      dup1\n      swap3\n      swap2\n      swap1\n      dup2\n      dup2\n      mstore\n      0x20\n      add\n      dup3\n      dup1\n      sload\n      tag_82\n      swap1\n      tag_81\n      jump\t// in\n    tag_82:\n      dup1\n      iszero\n      tag_83\n      jumpi\n      dup1\n      0x1f\n      lt\n      tag_84\n      jumpi\n      0x0100\n      dup1\n      dup4\n      sload\n      div\n      mul\n      dup4\n      mstore\n      swap2\n      0x20\n      add\n      swap2\n      jump(tag_83)\n    tag_84:\n      dup3\n      add\n      swap2\n      swap1\n      0x00\n      mstore\n      keccak256(0x00, 0x20)\n      swap1\n    tag_85:\n      dup2\n      sload\n      dup2\n      mstore\n      swap1\n      0x01\n      add\n      swap1\n      0x20\n      add\n      dup1\n      dup4\n      gt\n      tag_85\n      jumpi\n      dup3\n      swap1\n      sub\n      0x1f\n      and\n      dup3\n      add\n      swap2\n    tag_83:\n      pop\n      pop\n      pop\n      pop\n      pop\n      swap1\n      dup1\n      0x03\n      add\n      sload\n      swap1\n      dup1\n      0x04\n      add\n      sload\n      swap1\n      dup1\n      0x05\n      add\n      0x00\n      swap1\n      sload\n      swap1\n      0x0100\n      exp\n      swap1\n      div\n      0xff\n      and\n      swap1\n      dup1\n      0x05\n      add\n      0x01\n      swap1\n      sload\n      swap1\n      0x0100\n      exp\n      swap1\n      div\n      0xffffffff\n      and\n      swap1\n      dup1\n      0x06\n      add\n      mload(0x40)\n      dup1\n      0x60\n      add\n      0x40\n      mstore\n      swap1\n      dup2\n      0x00\n      dup3\n      add\n      sload\n      dup2\n      mstore\n      0x20\n      add\n      0x01\n      dup3\n      add\n      0x00\n      swap1\n      sload\n      swap1\n      0x0100\n      exp\n      swap1\n      div\n      0xffffffffffffffffffffffffffffffffffffffff\n      and\n      0xffffffffffffffffffffffffffffffffffffffff\n      and\n      0xffffffffffffffffffffffffffffffffffffffff\n      and\n      dup2\n      mstore\n      0x20\n      add\n      0x01\n      dup3\n      add\n      0x14\n      swap1\n      sload\n      swap1\n      0x0100\n      exp\n      swap1\n      div\n      0xff\n      and\n      0x02\n      dup2\n      gt\n      iszero\n      tag_86\n      jumpi\n      tag_87\n      tag_88\n      jump\t// in\n    tag_87:\n    tag_86:\n      0x02\n      dup2\n      gt\n      iszero\n      tag_89\n      jumpi\n      tag_90\n      tag_88\n      jump\t// in\n    tag_90:\n    tag_89:\n      dup2\n      mstore\n      pop\n      pop\n      swap1\n      pop\n      dup12\n      jump\t// out\n        /* \"contracts/BaseContract.sol\":3151:3189  mapping(address=>Kurs) public  kurslar */\n    tag_27:\n      mstore(0x20, 0x07)\n      dup1\n      0x00\n      mstore\n      keccak256(0x00, 0x40)\n      0x00\n      swap2\n      pop\n      swap1\n      pop\n      dup1\n      0x00\n      add\n      0x00\n      swap1\n      sload\n      swap1\n      0x0100\n      exp\n      swap1\n      div\n      0xff\n      and\n      swap1\n      dup1\n      0x01\n      add\n      dup1\n      sload\n      tag_91\n      swap1\n      tag_81\n      jump\t// in\n    tag_91:\n      dup1\n      0x1f\n      add\n      0x20\n      dup1\n      swap2\n      div\n      mul\n      0x20\n      add\n      mload(0x40)\n      swap1\n      dup2\n      add\n      0x40\n      mstore\n      dup1\n      swap3\n      swap2\n      swap1\n      dup2\n      dup2\n      mstore\n      0x20\n      add\n      dup3\n      dup1\n      sload\n      tag_92\n      swap1\n      tag_81\n      jump\t// in\n    tag_92:\n      dup1\n      iszero\n      tag_93\n      jumpi\n      dup1\n      0x1f\n      lt\n      tag_94\n      jumpi\n      0x0100\n      dup1\n      dup4\n      sload\n      div\n      mul\n      dup4\n      mstore\n      swap2\n      0x20\n      add\n      swap2\n      jump(tag_93)\n    tag_94:\n      dup3\n      add\n      swap2\n      swap1\n      0x00\n      mstore\n      keccak256(0x00, 0x20)\n      swap1\n    tag_95:\n      dup2\n      sload\n      dup2\n      mstore\n      swap1\n      0x01\n      add\n      swap1\n      0x20\n      add\n      dup1\n      dup4\n      gt\n      tag_95\n      jumpi\n      dup3\n      swap1\n      sub\n      0x1f\n      and\n      dup3\n      add\n      swap2\n    tag_93:\n      pop\n      pop\n      pop\n      pop\n      pop\n      swap1\n      dup1\n      0x02\n      add\n      0x00\n      swap1\n      sload\n      swap1\n      0x0100\n      exp\n      swap1\n      div\n      0xff\n      and\n      swap1\n      pop\n      dup4\n      jump\t// out\n        /* \"contracts/BaseContract.sol\":2990:3039  mapping(address=>Universite) public universiteler */\n    tag_32:\n      mstore(0x20, 0x04)\n      dup1\n      0x00\n      mstore\n      keccak256(0x00, 0x40)\n      0x00\n      swap2\n      pop\n      swap1\n      pop\n      dup1\n      0x00\n      add\n      0x00\n      swap1\n      sload\n      swap1\n      0x0100\n      exp\n      swap1\n      div\n      0xff\n      and\n      swap1\n      dup1\n      0x01\n      add\n      dup1\n      sload\n      tag_96\n      swap1\n      tag_81\n      jump\t// in\n    tag_96:\n      dup1\n      0x1f\n      add\n      0x20\n      dup1\n      swap2\n      div\n      mul\n      0x20\n      add\n      mload(0x40)\n      swap1\n      dup2\n      add\n      0x40\n      mstore\n      dup1\n      swap3\n      swap2\n      swap1\n      dup2\n      dup2\n      mstore\n      0x20\n      add\n      dup3\n      dup1\n      sload\n      tag_97\n      swap1\n      tag_81\n      jump\t// in\n    tag_97:\n      dup1\n      iszero\n      tag_98\n      jumpi\n      dup1\n      0x1f\n      lt\n      tag_99\n      jumpi\n      0x0100\n      dup1\n      dup4\n      sload\n      div\n      mul\n      dup4\n      mstore\n      swap2\n      0x20\n      add\n      swap2\n      jump(tag_98)\n    tag_99:\n      dup3\n      add\n      swap2\n      swap1\n      0x00\n      mstore\n      keccak256(0x00, 0x20)\n      swap1\n    tag_100:\n      dup2\n      sload\n      dup2\n      mstore\n      swap1\n      0x01\n      add\n      swap1\n      0x20\n      add\n      dup1\n      dup4\n      gt\n      tag_100\n      jumpi\n      dup3\n      swap1\n      sub\n      0x1f\n      and\n      dup3\n      add\n      swap2\n    tag_98:\n      pop\n      pop\n      pop\n      pop\n      pop\n      swap1\n      dup1\n      0x02\n      add\n      0x00\n      swap1\n      sload\n      swap1\n      0x0100\n      exp\n      swap1\n      div\n      0xff\n      and\n      swap1\n      pop\n      dup4\n      jump\t// out\n        /* \"contracts/BaseContract.sol\":3294:3355  mapping(address=>SertifikaMerkezi) public sertifikaMerkezleri */\n    tag_36:\n      mstore(0x20, 0x0a)\n      dup1\n      0x00\n      mstore\n      keccak256(0x00, 0x40)\n      0x00\n      swap2\n      pop\n      swap1\n      pop\n      dup1\n      0x00\n      add\n      0x00\n      swap1\n      sload\n      swap1\n      0x0100\n      exp\n      swap1\n      div\n      0xff\n      and\n      swap1\n      dup1\n      0x01\n      add\n      dup1\n      sload\n      tag_101\n      swap1\n      tag_81\n      jump\t// in\n    tag_101:\n      dup1\n      0x1f\n      add\n      0x20\n      dup1\n      swap2\n      div\n      mul\n      0x20\n      add\n      mload(0x40)\n      swap1\n      dup2\n      add\n      0x40\n      mstore\n      dup1\n      swap3\n      swap2\n      swap1\n      dup2\n      dup2\n      mstore\n      0x20\n      add\n      dup3\n      dup1\n      sload\n      tag_102\n      swap1\n      tag_81\n      jump\t// in\n    tag_102:\n      dup1\n      iszero\n      tag_103\n      jumpi\n      dup1\n      0x1f\n      lt\n      tag_104\n      jumpi\n      0x0100\n      dup1\n      dup4\n      sload\n      div\n      mul\n      dup4\n      mstore\n      swap2\n      0x20\n      add\n      swap2\n      jump(tag_103)\n    tag_104:\n      dup3\n      add\n      swap2\n      swap1\n      0x00\n      mstore\n      keccak256(0x00, 0x20)\n      swap1\n    tag_105:\n      dup2\n      sload\n      dup2\n      mstore\n      swap1\n      0x01\n      add\n      swap1\n      0x20\n      add\n      dup1\n      dup4\n      gt\n      tag_105\n      jumpi\n      dup3\n      swap1\n      sub\n      0x1f\n      and\n      dup3\n      add\n      swap2\n    tag_103:\n      pop\n      pop\n      pop\n      pop\n      pop\n      swap1\n      dup1\n      0x02\n      add\n      0x00\n      swap1\n      sload\n      swap1\n      0x0100\n      exp\n      swap1\n      div\n      0xff\n      and\n      swap1\n      pop\n      dup4\n      jump\t// out\n        /* \"contracts/BaseContract.sol\":3104:3144  mapping(address=>Firma) public  firmalar */\n    tag_40:\n      mstore(0x20, 0x06)\n      dup1\n      0x00\n      mstore\n      keccak256(0x00, 0x40)\n      0x00\n      swap2\n      pop\n      swap1\n      pop\n      dup1\n      0x00\n      add\n      0x00\n      swap1\n      sload\n      swap1\n      0x0100\n      exp\n      swap1\n      div\n      0xff\n      and\n      swap1\n      dup1\n      0x00\n      add\n      0x01\n      swap1\n      sload\n      swap1\n      0x0100\n      exp\n      swap1\n      div\n      0xff\n      and\n      swap1\n      dup1\n      0x01\n      add\n      sload\n      swap1\n      dup1\n      0x02\n      add\n      dup1\n      sload\n      tag_106\n      swap1\n      tag_81\n      jump\t// in\n    tag_106:\n      dup1\n      0x1f\n      add\n      0x20\n      dup1\n      swap2\n      div\n      mul\n      0x20\n      add\n      mload(0x40)\n      swap1\n      dup2\n      add\n      0x40\n      mstore\n      dup1\n      swap3\n      swap2\n      swap1\n      dup2\n      dup2\n      mstore\n      0x20\n      add\n      dup3\n      dup1\n      sload\n      tag_107\n      swap1\n      tag_81\n      jump\t// in\n    tag_107:\n      dup1\n      iszero\n      tag_108\n      jumpi\n      dup1\n      0x1f\n      lt\n      tag_109\n      jumpi\n      0x0100\n      dup1\n      dup4\n      sload\n      div\n      mul\n      dup4\n      mstore\n      swap2\n      0x20\n      add\n      swap2\n      jump(tag_108)\n    tag_109:\n      dup3\n      add\n      swap2\n      swap1\n      0x00\n      mstore\n      keccak256(0x00, 0x20)\n      swap1\n    tag_110:\n      dup2\n      sload\n      dup2\n      mstore\n      swap1\n      0x01\n      add\n      swap1\n      0x20\n      add\n      dup1\n      dup4\n      gt\n      tag_110\n      jumpi\n      dup3\n      swap1\n      sub\n      0x1f\n      and\n      dup3\n      add\n      swap2\n    tag_108:\n      pop\n      pop\n      pop\n      pop\n      pop\n      swap1\n      pop\n      dup5\n      jump\t// out\n        /* \"contracts/CalismaBilgileri.sol\":2247:3661  function guncelleCalismaBilgi(address _kisiAddress, uint _calismaBilgiId, uint32 pozisyon, uint8 sektor, CalismaTipi calismaTipi, string memory isAciklama, uint basTarih, uint bitTarih, uint8 ulke, uint32 sehir)  public sadece_Uni_Firma_Kamu returns(uint){\r... */\n    tag_46:\n        /* \"contracts/CalismaBilgileri.sol\":2497:2501  uint */\n      0x00\n        /* \"contracts/BaseContract.sol\":2617:2630  universiteler */\n      0x04\n        /* \"contracts/BaseContract.sol\":2617:2642  universiteler[msg.sender] */\n      0x00\n        /* \"contracts/BaseContract.sol\":2631:2641  msg.sender */\n      caller\n        /* \"contracts/BaseContract.sol\":2617:2642  universiteler[msg.sender] */\n      0xffffffffffffffffffffffffffffffffffffffff\n      and\n      0xffffffffffffffffffffffffffffffffffffffff\n      and\n      dup2\n      mstore\n      0x20\n      add\n      swap1\n      dup2\n      mstore\n      0x20\n      add\n      0x00\n      keccak256\n        /* \"contracts/BaseContract.sol\":2617:2648  universiteler[msg.sender].durum */\n      0x00\n      add\n      0x00\n      swap1\n      sload\n      swap1\n      0x0100\n      exp\n      swap1\n      div\n      0xff\n      and\n        /* \"contracts/BaseContract.sol\":2617:2676  universiteler[msg.sender].durum||firmalar[msg.sender].durum */\n      dup1\n      tag_112\n      jumpi\n      pop\n        /* \"contracts/BaseContract.sol\":2650:2658  firmalar */\n      0x06\n        /* \"contracts/BaseContract.sol\":2650:2670  firmalar[msg.sender] */\n      0x00\n        /* \"contracts/BaseContract.sol\":2659:2669  msg.sender */\n      caller\n        /* \"contracts/BaseContract.sol\":2650:2670  firmalar[msg.sender] */\n      0xffffffffffffffffffffffffffffffffffffffff\n      and\n      0xffffffffffffffffffffffffffffffffffffffff\n      and\n      dup2\n      mstore\n      0x20\n      add\n      swap1\n      dup2\n      mstore\n      0x20\n      add\n      0x00\n      keccak256\n        /* \"contracts/BaseContract.sol\":2650:2676  firmalar[msg.sender].durum */\n      0x00\n      add\n      0x00\n      swap1\n      sload\n      swap1\n      0x0100\n      exp\n      swap1\n      div\n      0xff\n      and\n        /* \"contracts/BaseContract.sol\":2617:2676  universiteler[msg.sender].durum||firmalar[msg.sender].durum */\n    tag_112:\n        /* \"contracts/BaseContract.sol\":2617:2709  universiteler[msg.sender].durum||firmalar[msg.sender].durum||kamuKurumlari[msg.sender].durum */\n      dup1\n      tag_113\n      jumpi\n      pop\n        /* \"contracts/BaseContract.sol\":2678:2691  kamuKurumlari */\n      0x08\n        /* \"contracts/BaseContract.sol\":2678:2703  kamuKurumlari[msg.sender] */\n      0x00\n        /* \"contracts/BaseContract.sol\":2692:2702  msg.sender */\n      caller\n        /* \"contracts/BaseContract.sol\":2678:2703  kamuKurumlari[msg.sender] */\n      0xffffffffffffffffffffffffffffffffffffffff\n      and\n      0xffffffffffffffffffffffffffffffffffffffff\n      and\n      dup2\n      mstore\n      0x20\n      add\n      swap1\n      dup2\n      mstore\n      0x20\n      add\n      0x00\n      keccak256\n        /* \"contracts/BaseContract.sol\":2678:2709  kamuKurumlari[msg.sender].durum */\n      0x00\n      add\n      0x00\n      swap1\n      sload\n      swap1\n      0x0100\n      exp\n      swap1\n      div\n      0xff\n      and\n        /* \"contracts/BaseContract.sol\":2617:2709  universiteler[msg.sender].durum||firmalar[msg.sender].durum||kamuKurumlari[msg.sender].durum */\n    tag_113:\n        /* \"contracts/BaseContract.sol\":2609:2761  require(universiteler[msg.sender].durum||firmalar[msg.sender].durum||kamuKurumlari[msg.sender].durum,\r... */\n      tag_114\n      jumpi\n      mload(0x40)\n      0x08c379a000000000000000000000000000000000000000000000000000000000\n      dup2\n      mstore\n      0x04\n      add\n      tag_115\n      swap1\n      tag_116\n      jump\t// in\n    tag_115:\n      mload(0x40)\n      dup1\n      swap2\n      sub\n      swap1\n      revert\n    tag_114:\n        /* \"contracts/CalismaBilgileri.sol\":2526:2533  kisiler */\n      0x03\n        /* \"contracts/CalismaBilgileri.sol\":2526:2547  kisiler[_kisiAddress] */\n      0x00\n        /* \"contracts/CalismaBilgileri.sol\":2534:2546  _kisiAddress */\n      dup13\n        /* \"contracts/CalismaBilgileri.sol\":2526:2547  kisiler[_kisiAddress] */\n      0xffffffffffffffffffffffffffffffffffffffff\n      and\n      0xffffffffffffffffffffffffffffffffffffffff\n      and\n      dup2\n      mstore\n      0x20\n      add\n      swap1\n      dup2\n      mstore\n      0x20\n      add\n      0x00\n      keccak256\n        /* \"contracts/CalismaBilgileri.sol\":2526:2553  kisiler[_kisiAddress].durum */\n      0x00\n      add\n      0x00\n      swap1\n      sload\n      swap1\n      0x0100\n      exp\n      swap1\n      div\n      0xff\n      and\n        /* \"contracts/CalismaBilgileri.sol\":2518:2575  require(kisiler[_kisiAddress].durum,\"Student not exists\") */\n      tag_118\n      jumpi\n      mload(0x40)\n      0x08c379a000000000000000000000000000000000000000000000000000000000\n      dup2\n      mstore\n      0x04\n      add\n      tag_119\n      swap1\n      tag_120\n      jump\t// in\n    tag_119:\n      mload(0x40)\n      dup1\n      swap2\n      sub\n      swap1\n      revert\n    tag_118:\n        /* \"contracts/CalismaBilgileri.sol\":2663:2671  pozisyon */\n      dup9\n        /* \"contracts/CalismaBilgileri.sol\":2606:2622  calismaBilgileri */\n      0x0d\n        /* \"contracts/CalismaBilgileri.sol\":2606:2636  calismaBilgileri[_kisiAddress] */\n      0x00\n        /* \"contracts/CalismaBilgileri.sol\":2623:2635  _kisiAddress */\n      dup14\n        /* \"contracts/CalismaBilgileri.sol\":2606:2636  calismaBilgileri[_kisiAddress] */\n      0xffffffffffffffffffffffffffffffffffffffff\n      and\n      0xffffffffffffffffffffffffffffffffffffffff\n      and\n      dup2\n      mstore\n      0x20\n      add\n      swap1\n      dup2\n      mstore\n      0x20\n      add\n      0x00\n      keccak256\n        /* \"contracts/CalismaBilgileri.sol\":2606:2653  calismaBilgileri[_kisiAddress][_calismaBilgiId] */\n      0x00\n        /* \"contracts/CalismaBilgileri.sol\":2637:2652  _calismaBilgiId */\n      dup13\n        /* \"contracts/CalismaBilgileri.sol\":2606:2653  calismaBilgileri[_kisiAddress][_calismaBilgiId] */\n      dup2\n      mstore\n      0x20\n      add\n      swap1\n      dup2\n      mstore\n      0x20\n      add\n      0x00\n      keccak256\n        /* \"contracts/CalismaBilgileri.sol\":2606:2662  calismaBilgileri[_kisiAddress][_calismaBilgiId].pozisyon */\n      0x01\n      add\n      0x14\n        /* \"contracts/CalismaBilgileri.sol\":2606:2671  calismaBilgileri[_kisiAddress][_calismaBilgiId].pozisyon=pozisyon */\n      0x0100\n      exp\n      dup2\n      sload\n      dup2\n      0xffffffff\n      mul\n      not\n      and\n      swap1\n      dup4\n      0xffffffff\n      and\n      mul\n      or\n      swap1\n      sstore\n      pop\n        /* \"contracts/CalismaBilgileri.sol\":2742:2748  sektor */\n      dup8\n        /* \"contracts/CalismaBilgileri.sol\":2687:2703  calismaBilgileri */\n      0x0d\n        /* \"contracts/CalismaBilgileri.sol\":2687:2717  calismaBilgileri[_kisiAddress] */\n      0x00\n        /* \"contracts/CalismaBilgileri.sol\":2704:2716  _kisiAddress */\n      dup14\n        /* \"contracts/CalismaBilgileri.sol\":2687:2717  calismaBilgileri[_kisiAddress] */\n      0xffffffffffffffffffffffffffffffffffffffff\n      and\n      0xffffffffffffffffffffffffffffffffffffffff\n      and\n      dup2\n      mstore\n      0x20\n      add\n      swap1\n      dup2\n      mstore\n      0x20\n      add\n      0x00\n      keccak256\n        /* \"contracts/CalismaBilgileri.sol\":2687:2734  calismaBilgileri[_kisiAddress][_calismaBilgiId] */\n      0x00\n        /* \"contracts/CalismaBilgileri.sol\":2718:2733  _calismaBilgiId */\n      dup13\n        /* \"contracts/CalismaBilgileri.sol\":2687:2734  calismaBilgileri[_kisiAddress][_calismaBilgiId] */\n      dup2\n      mstore\n      0x20\n      add\n      swap1\n      dup2\n      mstore\n      0x20\n      add\n      0x00\n      keccak256\n        /* \"contracts/CalismaBilgileri.sol\":2687:2741  calismaBilgileri[_kisiAddress][_calismaBilgiId].sektor */\n      0x01\n      add\n      0x18\n        /* \"contracts/CalismaBilgileri.sol\":2687:2748  calismaBilgileri[_kisiAddress][_calismaBilgiId].sektor=sektor */\n      0x0100\n      exp\n      dup2\n      sload\n      dup2\n      0xff\n      mul\n      not\n      and\n      swap1\n      dup4\n      0xff\n      and\n      mul\n      or\n      swap1\n      sstore\n      pop\n        /* \"contracts/CalismaBilgileri.sol\":2824:2835  calismaTipi */\n      dup7\n        /* \"contracts/CalismaBilgileri.sol\":2764:2780  calismaBilgileri */\n      0x0d\n        /* \"contracts/CalismaBilgileri.sol\":2764:2794  calismaBilgileri[_kisiAddress] */\n      0x00\n        /* \"contracts/CalismaBilgileri.sol\":2781:2793  _kisiAddress */\n      dup14\n        /* \"contracts/CalismaBilgileri.sol\":2764:2794  calismaBilgileri[_kisiAddress] */\n      0xffffffffffffffffffffffffffffffffffffffff\n      and\n      0xffffffffffffffffffffffffffffffffffffffff\n      and\n      dup2\n      mstore\n      0x20\n      add\n      swap1\n      dup2\n      mstore\n      0x20\n      add\n      0x00\n      keccak256\n        /* \"contracts/CalismaBilgileri.sol\":2764:2811  calismaBilgileri[_kisiAddress][_calismaBilgiId] */\n      0x00\n        /* \"contracts/CalismaBilgileri.sol\":2795:2810  _calismaBilgiId */\n      dup13\n        /* \"contracts/CalismaBilgileri.sol\":2764:2811  calismaBilgileri[_kisiAddress][_calismaBilgiId] */\n      dup2\n      mstore\n      0x20\n      add\n      swap1\n      dup2\n      mstore\n      0x20\n      add\n      0x00\n      keccak256\n        /* \"contracts/CalismaBilgileri.sol\":2764:2823  calismaBilgileri[_kisiAddress][_calismaBilgiId].calismaTipi */\n      0x01\n      add\n      0x19\n        /* \"contracts/CalismaBilgileri.sol\":2764:2835  calismaBilgileri[_kisiAddress][_calismaBilgiId].calismaTipi=calismaTipi */\n      0x0100\n      exp\n      dup2\n      sload\n      dup2\n      0xff\n      mul\n      not\n      and\n      swap1\n      dup4\n      0x02\n      dup2\n      gt\n      iszero\n      tag_121\n      jumpi\n      tag_122\n      tag_88\n      jump\t// in\n    tag_122:\n    tag_121:\n      mul\n      or\n      swap1\n      sstore\n      pop\n        /* \"contracts/CalismaBilgileri.sol\":2910:2920  isAciklama */\n      dup6\n        /* \"contracts/CalismaBilgileri.sol\":2851:2867  calismaBilgileri */\n      0x0d\n        /* \"contracts/CalismaBilgileri.sol\":2851:2881  calismaBilgileri[_kisiAddress] */\n      0x00\n        /* \"contracts/CalismaBilgileri.sol\":2868:2880  _kisiAddress */\n      dup14\n        /* \"contracts/CalismaBilgileri.sol\":2851:2881  calismaBilgileri[_kisiAddress] */\n      0xffffffffffffffffffffffffffffffffffffffff\n      and\n      0xffffffffffffffffffffffffffffffffffffffff\n      and\n      dup2\n      mstore\n      0x20\n      add\n      swap1\n      dup2\n      mstore\n      0x20\n      add\n      0x00\n      keccak256\n        /* \"contracts/CalismaBilgileri.sol\":2851:2898  calismaBilgileri[_kisiAddress][_calismaBilgiId] */\n      0x00\n        /* \"contracts/CalismaBilgileri.sol\":2882:2897  _calismaBilgiId */\n      dup13\n        /* \"contracts/CalismaBilgileri.sol\":2851:2898  calismaBilgileri[_kisiAddress][_calismaBilgiId] */\n      dup2\n      mstore\n      0x20\n      add\n      swap1\n      dup2\n      mstore\n      0x20\n      add\n      0x00\n      keccak256\n        /* \"contracts/CalismaBilgileri.sol\":2851:2909  calismaBilgileri[_kisiAddress][_calismaBilgiId].isAciklama */\n      0x02\n      add\n        /* \"contracts/CalismaBilgileri.sol\":2851:2920  calismaBilgileri[_kisiAddress][_calismaBilgiId].isAciklama=isAciklama */\n      swap1\n      dup1\n      mload\n      swap1\n      0x20\n      add\n      swap1\n      tag_123\n      swap3\n      swap2\n      swap1\n      tag_124\n      jump\t// in\n    tag_123:\n      pop\n        /* \"contracts/CalismaBilgileri.sol\":2993:3001  basTarih */\n      dup5\n        /* \"contracts/CalismaBilgileri.sol\":2936:2952  calismaBilgileri */\n      0x0d\n        /* \"contracts/CalismaBilgileri.sol\":2936:2966  calismaBilgileri[_kisiAddress] */\n      0x00\n        /* \"contracts/CalismaBilgileri.sol\":2953:2965  _kisiAddress */\n      dup14\n        /* \"contracts/CalismaBilgileri.sol\":2936:2966  calismaBilgileri[_kisiAddress] */\n      0xffffffffffffffffffffffffffffffffffffffff\n      and\n      0xffffffffffffffffffffffffffffffffffffffff\n      and\n      dup2\n      mstore\n      0x20\n      add\n      swap1\n      dup2\n      mstore\n      0x20\n      add\n      0x00\n      keccak256\n        /* \"contracts/CalismaBilgileri.sol\":2936:2983  calismaBilgileri[_kisiAddress][_calismaBilgiId] */\n      0x00\n        /* \"contracts/CalismaBilgileri.sol\":2967:2982  _calismaBilgiId */\n      dup13\n        /* \"contracts/CalismaBilgileri.sol\":2936:2983  calismaBilgileri[_kisiAddress][_calismaBilgiId] */\n      dup2\n      mstore\n      0x20\n      add\n      swap1\n      dup2\n      mstore\n      0x20\n      add\n      0x00\n      keccak256\n        /* \"contracts/CalismaBilgileri.sol\":2936:2992  calismaBilgileri[_kisiAddress][_calismaBilgiId].basTarih */\n      0x03\n      add\n        /* \"contracts/CalismaBilgileri.sol\":2936:3001  calismaBilgileri[_kisiAddress][_calismaBilgiId].basTarih=basTarih */\n      dup2\n      swap1\n      sstore\n      pop\n        /* \"contracts/CalismaBilgileri.sol\":3074:3082  bitTarih */\n      dup4\n        /* \"contracts/CalismaBilgileri.sol\":3017:3033  calismaBilgileri */\n      0x0d\n        /* \"contracts/CalismaBilgileri.sol\":3017:3047  calismaBilgileri[_kisiAddress] */\n      0x00\n        /* \"contracts/CalismaBilgileri.sol\":3034:3046  _kisiAddress */\n      dup14\n        /* \"contracts/CalismaBilgileri.sol\":3017:3047  calismaBilgileri[_kisiAddress] */\n      0xffffffffffffffffffffffffffffffffffffffff\n      and\n      0xffffffffffffffffffffffffffffffffffffffff\n      and\n      dup2\n      mstore\n      0x20\n      add\n      swap1\n      dup2\n      mstore\n      0x20\n      add\n      0x00\n      keccak256\n        /* \"contracts/CalismaBilgileri.sol\":3017:3064  calismaBilgileri[_kisiAddress][_calismaBilgiId] */\n      0x00\n        /* \"contracts/CalismaBilgileri.sol\":3048:3063  _calismaBilgiId */\n      dup13\n        /* \"contracts/CalismaBilgileri.sol\":3017:3064  calismaBilgileri[_kisiAddress][_calismaBilgiId] */\n      dup2\n      mstore\n      0x20\n      add\n      swap1\n      dup2\n      mstore\n      0x20\n      add\n      0x00\n      keccak256\n        /* \"contracts/CalismaBilgileri.sol\":3017:3073  calismaBilgileri[_kisiAddress][_calismaBilgiId].bitTarih */\n      0x04\n      add\n        /* \"contracts/CalismaBilgileri.sol\":3017:3082  calismaBilgileri[_kisiAddress][_calismaBilgiId].bitTarih=bitTarih */\n      dup2\n      swap1\n      sstore\n      pop\n        /* \"contracts/CalismaBilgileri.sol\":3151:3155  ulke */\n      dup3\n        /* \"contracts/CalismaBilgileri.sol\":3098:3114  calismaBilgileri */\n      0x0d\n        /* \"contracts/CalismaBilgileri.sol\":3098:3128  calismaBilgileri[_kisiAddress] */\n      0x00\n        /* \"contracts/CalismaBilgileri.sol\":3115:3127  _kisiAddress */\n      dup14\n        /* \"contracts/CalismaBilgileri.sol\":3098:3128  calismaBilgileri[_kisiAddress] */\n      0xffffffffffffffffffffffffffffffffffffffff\n      and\n      0xffffffffffffffffffffffffffffffffffffffff\n      and\n      dup2\n      mstore\n      0x20\n      add\n      swap1\n      dup2\n      mstore\n      0x20\n      add\n      0x00\n      keccak256\n        /* \"contracts/CalismaBilgileri.sol\":3098:3145  calismaBilgileri[_kisiAddress][_calismaBilgiId] */\n      0x00\n        /* \"contracts/CalismaBilgileri.sol\":3129:3144  _calismaBilgiId */\n      dup13\n        /* \"contracts/CalismaBilgileri.sol\":3098:3145  calismaBilgileri[_kisiAddress][_calismaBilgiId] */\n      dup2\n      mstore\n      0x20\n      add\n      swap1\n      dup2\n      mstore\n      0x20\n      add\n      0x00\n      keccak256\n        /* \"contracts/CalismaBilgileri.sol\":3098:3150  calismaBilgileri[_kisiAddress][_calismaBilgiId].ulke */\n      0x05\n      add\n      0x00\n        /* \"contracts/CalismaBilgileri.sol\":3098:3155  calismaBilgileri[_kisiAddress][_calismaBilgiId].ulke=ulke */\n      0x0100\n      exp\n      dup2\n      sload\n      dup2\n      0xff\n      mul\n      not\n      and\n      swap1\n      dup4\n      0xff\n      and\n      mul\n      or\n      swap1\n      sstore\n      pop\n        /* \"contracts/CalismaBilgileri.sol\":3225:3230  sehir */\n      dup2\n        /* \"contracts/CalismaBilgileri.sol\":3171:3187  calismaBilgileri */\n      0x0d\n        /* \"contracts/CalismaBilgileri.sol\":3171:3201  calismaBilgileri[_kisiAddress] */\n      0x00\n        /* \"contracts/CalismaBilgileri.sol\":3188:3200  _kisiAddress */\n      dup14\n        /* \"contracts/CalismaBilgileri.sol\":3171:3201  calismaBilgileri[_kisiAddress] */\n      0xffffffffffffffffffffffffffffffffffffffff\n      and\n      0xffffffffffffffffffffffffffffffffffffffff\n      and\n      dup2\n      mstore\n      0x20\n      add\n      swap1\n      dup2\n      mstore\n      0x20\n      add\n      0x00\n      keccak256\n        /* \"contracts/CalismaBilgileri.sol\":3171:3218  calismaBilgileri[_kisiAddress][_calismaBilgiId] */\n      0x00\n        /* \"contracts/CalismaBilgileri.sol\":3202:3217  _calismaBilgiId */\n      dup13\n        /* \"contracts/CalismaBilgileri.sol\":3171:3218  calismaBilgileri[_kisiAddress][_calismaBilgiId] */\n      dup2\n      mstore\n      0x20\n      add\n      swap1\n      dup2\n      mstore\n      0x20\n      add\n      0x00\n      keccak256\n        /* \"contracts/CalismaBilgileri.sol\":3171:3224  calismaBilgileri[_kisiAddress][_calismaBilgiId].sehir */\n      0x05\n      add\n      0x01\n        /* \"contracts/CalismaBilgileri.sol\":3171:3230  calismaBilgileri[_kisiAddress][_calismaBilgiId].sehir=sehir */\n      0x0100\n      exp\n      dup2\n      sload\n      dup2\n      0xffffffff\n      mul\n      not\n      and\n      swap1\n      dup4\n      0xffffffff\n      and\n      mul\n      or\n      swap1\n      sstore\n      pop\n        /* \"contracts/CalismaBilgileri.sol\":3310:3325  block.timestamp */\n      timestamp\n        /* \"contracts/CalismaBilgileri.sol\":3246:3262  calismaBilgileri */\n      0x0d\n        /* \"contracts/CalismaBilgileri.sol\":3246:3276  calismaBilgileri[_kisiAddress] */\n      0x00\n        /* \"contracts/CalismaBilgileri.sol\":3263:3275  _kisiAddress */\n      dup14\n        /* \"contracts/CalismaBilgileri.sol\":3246:3276  calismaBilgileri[_kisiAddress] */\n      0xffffffffffffffffffffffffffffffffffffffff\n      and\n      0xffffffffffffffffffffffffffffffffffffffff\n      and\n      dup2\n      mstore\n      0x20\n      add\n      swap1\n      dup2\n      mstore\n      0x20\n      add\n      0x00\n      keccak256\n        /* \"contracts/CalismaBilgileri.sol\":3246:3293  calismaBilgileri[_kisiAddress][_calismaBilgiId] */\n      0x00\n        /* \"contracts/CalismaBilgileri.sol\":3277:3292  _calismaBilgiId */\n      dup13\n        /* \"contracts/CalismaBilgileri.sol\":3246:3293  calismaBilgileri[_kisiAddress][_calismaBilgiId] */\n      dup2\n      mstore\n      0x20\n      add\n      swap1\n      dup2\n      mstore\n      0x20\n      add\n      0x00\n      keccak256\n        /* \"contracts/CalismaBilgileri.sol\":3246:3303  calismaBilgileri[_kisiAddress][_calismaBilgiId].onayBilgi */\n      0x06\n      add\n        /* \"contracts/CalismaBilgileri.sol\":3246:3309  calismaBilgileri[_kisiAddress][_calismaBilgiId].onayBilgi.zaman */\n      0x00\n      add\n        /* \"contracts/CalismaBilgileri.sol\":3246:3325  calismaBilgileri[_kisiAddress][_calismaBilgiId].onayBilgi.zaman=block.timestamp */\n      dup2\n      swap1\n      sstore\n      pop\n        /* \"contracts/CalismaBilgileri.sol\":3405:3424  OnayDurum.Onaylandi */\n      0x01\n        /* \"contracts/CalismaBilgileri.sol\":3341:3357  calismaBilgileri */\n      0x0d\n        /* \"contracts/CalismaBilgileri.sol\":3341:3371  calismaBilgileri[_kisiAddress] */\n      0x00\n        /* \"contracts/CalismaBilgileri.sol\":3358:3370  _kisiAddress */\n      dup14\n        /* \"contracts/CalismaBilgileri.sol\":3341:3371  calismaBilgileri[_kisiAddress] */\n      0xffffffffffffffffffffffffffffffffffffffff\n      and\n      0xffffffffffffffffffffffffffffffffffffffff\n      and\n      dup2\n      mstore\n      0x20\n      add\n      swap1\n      dup2\n      mstore\n      0x20\n      add\n      0x00\n      keccak256\n        /* \"contracts/CalismaBilgileri.sol\":3341:3388  calismaBilgileri[_kisiAddress][_calismaBilgiId] */\n      0x00\n        /* \"contracts/CalismaBilgileri.sol\":3372:3387  _calismaBilgiId */\n      dup13\n        /* \"contracts/CalismaBilgileri.sol\":3341:3388  calismaBilgileri[_kisiAddress][_calismaBilgiId] */\n      dup2\n      mstore\n      0x20\n      add\n      swap1\n      dup2\n      mstore\n      0x20\n      add\n      0x00\n      keccak256\n        /* \"contracts/CalismaBilgileri.sol\":3341:3398  calismaBilgileri[_kisiAddress][_calismaBilgiId].onayBilgi */\n      0x06\n      add\n        /* \"contracts/CalismaBilgileri.sol\":3341:3404  calismaBilgileri[_kisiAddress][_calismaBilgiId].onayBilgi.durum */\n      0x01\n      add\n      0x14\n        /* \"contracts/CalismaBilgileri.sol\":3341:3424  calismaBilgileri[_kisiAddress][_calismaBilgiId].onayBilgi.durum=OnayDurum.Onaylandi */\n      0x0100\n      exp\n      dup2\n      sload\n      dup2\n      0xff\n      mul\n      not\n      and\n      swap1\n      dup4\n      0x02\n      dup2\n      gt\n      iszero\n      tag_125\n      jumpi\n      tag_126\n      tag_88\n      jump\t// in\n    tag_126:\n    tag_125:\n      mul\n      or\n      swap1\n      sstore\n      pop\n        /* \"contracts/CalismaBilgileri.sol\":3504:3514  msg.sender */\n      caller\n        /* \"contracts/CalismaBilgileri.sol\":3440:3456  calismaBilgileri */\n      0x0d\n        /* \"contracts/CalismaBilgileri.sol\":3440:3470  calismaBilgileri[_kisiAddress] */\n      0x00\n        /* \"contracts/CalismaBilgileri.sol\":3457:3469  _kisiAddress */\n      dup14\n        /* \"contracts/CalismaBilgileri.sol\":3440:3470  calismaBilgileri[_kisiAddress] */\n      0xffffffffffffffffffffffffffffffffffffffff\n      and\n      0xffffffffffffffffffffffffffffffffffffffff\n      and\n      dup2\n      mstore\n      0x20\n      add\n      swap1\n      dup2\n      mstore\n      0x20\n      add\n      0x00\n      keccak256\n        /* \"contracts/CalismaBilgileri.sol\":3440:3487  calismaBilgileri[_kisiAddress][_calismaBilgiId] */\n      0x00\n        /* \"contracts/CalismaBilgileri.sol\":3471:3486  _calismaBilgiId */\n      dup13\n        /* \"contracts/CalismaBilgileri.sol\":3440:3487  calismaBilgileri[_kisiAddress][_calismaBilgiId] */\n      dup2\n      mstore\n      0x20\n      add\n      swap1\n      dup2\n      mstore\n      0x20\n      add\n      0x00\n      keccak256\n        /* \"contracts/CalismaBilgileri.sol\":3440:3497  calismaBilgileri[_kisiAddress][_calismaBilgiId].onayBilgi */\n      0x06\n      add\n        /* \"contracts/CalismaBilgileri.sol\":3440:3503  calismaBilgileri[_kisiAddress][_calismaBilgiId].onayBilgi.adres */\n      0x01\n      add\n      0x00\n        /* \"contracts/CalismaBilgileri.sol\":3440:3514  calismaBilgileri[_kisiAddress][_calismaBilgiId].onayBilgi.adres=msg.sender */\n      0x0100\n      exp\n      dup2\n      sload\n      dup2\n      0xffffffffffffffffffffffffffffffffffffffff\n      mul\n      not\n      and\n      swap1\n      dup4\n      0xffffffffffffffffffffffffffffffffffffffff\n      and\n      mul\n      or\n      swap1\n      sstore\n      pop\n        /* \"contracts/CalismaBilgileri.sol\":3548:3613  CalismaBilgiGuncellendiLog( _kisiAddress, ulke, pozisyon, sektor) */\n      0x0d2d369c2a311bbedf49b15d0d8d116c0a1aaf3adf72494f1ebb4275c54cad73\n        /* \"contracts/CalismaBilgileri.sol\":3576:3588  _kisiAddress */\n      dup12\n        /* \"contracts/CalismaBilgileri.sol\":3590:3594  ulke */\n      dup5\n        /* \"contracts/CalismaBilgileri.sol\":3596:3604  pozisyon */\n      dup12\n        /* \"contracts/CalismaBilgileri.sol\":3606:3612  sektor */\n      dup12\n        /* \"contracts/CalismaBilgileri.sol\":3548:3613  CalismaBilgiGuncellendiLog( _kisiAddress, ulke, pozisyon, sektor) */\n      mload(0x40)\n      tag_127\n      swap5\n      swap4\n      swap3\n      swap2\n      swap1\n      tag_128\n      jump\t// in\n    tag_127:\n      mload(0x40)\n      dup1\n      swap2\n      sub\n      swap1\n      log1\n        /* \"contracts/CalismaBilgileri.sol\":3636:3651  _calismaBilgiId */\n      dup10\n        /* \"contracts/CalismaBilgileri.sol\":3629:3651  return _calismaBilgiId */\n      swap1\n      pop\n        /* \"contracts/CalismaBilgileri.sol\":2247:3661  function guncelleCalismaBilgi(address _kisiAddress, uint _calismaBilgiId, uint32 pozisyon, uint8 sektor, CalismaTipi calismaTipi, string memory isAciklama, uint basTarih, uint bitTarih, uint8 ulke, uint32 sehir)  public sadece_Uni_Firma_Kamu returns(uint){\r... */\n      swap11\n      swap10\n      pop\n      pop\n      pop\n      pop\n      pop\n      pop\n      pop\n      pop\n      pop\n      pop\n      jump\t// out\n        /* \"contracts/BaseContract.sol\":3196:3245  mapping(address=>KamuKurumu) public kamuKurumlari */\n    tag_51:\n      mstore(0x20, 0x08)\n      dup1\n      0x00\n      mstore\n      keccak256(0x00, 0x40)\n      0x00\n      swap2\n      pop\n      swap1\n      pop\n      dup1\n      0x00\n      add\n      0x00\n      swap1\n      sload\n      swap1\n      0x0100\n      exp\n      swap1\n      div\n      0xff\n      and\n      swap1\n      dup1\n      0x01\n      add\n      dup1\n      sload\n      tag_129\n      swap1\n      tag_81\n      jump\t// in\n    tag_129:\n      dup1\n      0x1f\n      add\n      0x20\n      dup1\n      swap2\n      div\n      mul\n      0x20\n      add\n      mload(0x40)\n      swap1\n      dup2\n      add\n      0x40\n      mstore\n      dup1\n      swap3\n      swap2\n      swap1\n      dup2\n      dup2\n      mstore\n      0x20\n      add\n      dup3\n      dup1\n      sload\n      tag_130\n      swap1\n      tag_81\n      jump\t// in\n    tag_130:\n      dup1\n      iszero\n      tag_131\n      jumpi\n      dup1\n      0x1f\n      lt\n      tag_132\n      jumpi\n      0x0100\n      dup1\n      dup4\n      sload\n      div\n      mul\n      dup4\n      mstore\n      swap2\n      0x20\n      add\n      swap2\n      jump(tag_131)\n    tag_132:\n      dup3\n      add\n      swap2\n      swap1\n      0x00\n      mstore\n      keccak256(0x00, 0x20)\n      swap1\n    tag_133:\n      dup2\n      sload\n      dup2\n      mstore\n      swap1\n      0x01\n      add\n      swap1\n      0x20\n      add\n      dup1\n      dup4\n      gt\n      tag_133\n      jumpi\n      dup3\n      swap1\n      sub\n      0x1f\n      and\n      dup3\n      add\n      swap2\n    tag_131:\n      pop\n      pop\n      pop\n      pop\n      pop\n      swap1\n      dup1\n      0x02\n      add\n      0x00\n      swap1\n      sload\n      swap1\n      0x0100\n      exp\n      swap1\n      div\n      0xff\n      and\n      swap1\n      pop\n      dup4\n      jump\t// out\n        /* \"contracts/BaseContract.sol\":3252:3287  mapping(address=>STK) public stklar */\n    tag_55:\n      mstore(0x20, 0x09)\n      dup1\n      0x00\n      mstore\n      keccak256(0x00, 0x40)\n      0x00\n      swap2\n      pop\n      swap1\n      pop\n      dup1\n      0x00\n      add\n      0x00\n      swap1\n      sload\n      swap1\n      0x0100\n      exp\n      swap1\n      div\n      0xff\n      and\n      swap1\n      dup1\n      0x01\n      add\n      dup1\n      sload\n      tag_134\n      swap1\n      tag_81\n      jump\t// in\n    tag_134:\n      dup1\n      0x1f\n      add\n      0x20\n      dup1\n      swap2\n      div\n      mul\n      0x20\n      add\n      mload(0x40)\n      swap1\n      dup2\n      add\n      0x40\n      mstore\n      dup1\n      swap3\n      swap2\n      swap1\n      dup2\n      dup2\n      mstore\n      0x20\n      add\n      dup3\n      dup1\n      sload\n      tag_135\n      swap1\n      tag_81\n      jump\t// in\n    tag_135:\n      dup1\n      iszero\n      tag_136\n      jumpi\n      dup1\n      0x1f\n      lt\n      tag_137\n      jumpi\n      0x0100\n      dup1\n      dup4\n      sload\n      div\n      mul\n      dup4\n      mstore\n      swap2\n      0x20\n      add\n      swap2\n      jump(tag_136)\n    tag_137:\n      dup3\n      add\n      swap2\n      swap1\n      0x00\n      mstore\n      keccak256(0x00, 0x20)\n      swap1\n    tag_138:\n      dup2\n      sload\n      dup2\n      mstore\n      swap1\n      0x01\n      add\n      swap1\n      0x20\n      add\n      dup1\n      dup4\n      gt\n      tag_138\n      jumpi\n      dup3\n      swap1\n      sub\n      0x1f\n      and\n      dup3\n      add\n      swap2\n    tag_136:\n      pop\n      pop\n      pop\n      pop\n      pop\n      swap1\n      dup1\n      0x02\n      add\n      0x00\n      swap1\n      sload\n      swap1\n      0x0100\n      exp\n      swap1\n      div\n      0xff\n      and\n      swap1\n      pop\n      dup4\n      jump\t// out\n        /* \"contracts/BaseContract.sol\":3365:3406  mapping(uint32=>YabanciDil) public diller */\n    tag_60:\n      mstore(0x20, 0x0b)\n      dup1\n      0x00\n      mstore\n      keccak256(0x00, 0x40)\n      0x00\n      swap2\n      pop\n      swap1\n      pop\n      dup1\n      0x00\n      add\n      0x00\n      swap1\n      sload\n      swap1\n      0x0100\n      exp\n      swap1\n      div\n      0xffffffff\n      and\n      swap1\n      dup1\n      0x01\n      add\n      dup1\n      sload\n      tag_139\n      swap1\n      tag_81\n      jump\t// in\n    tag_139:\n      dup1\n      0x1f\n      add\n      0x20\n      dup1\n      swap2\n      div\n      mul\n      0x20\n      add\n      mload(0x40)\n      swap1\n      dup2\n      add\n      0x40\n      mstore\n      dup1\n      swap3\n      swap2\n      swap1\n      dup2\n      dup2\n      mstore\n      0x20\n      add\n      dup3\n      dup1\n      sload\n      tag_140\n      swap1\n      tag_81\n      jump\t// in\n    tag_140:\n      dup1\n      iszero\n      tag_141\n      jumpi\n      dup1\n      0x1f\n      lt\n      tag_142\n      jumpi\n      0x0100\n      dup1\n      dup4\n      sload\n      div\n      mul\n      dup4\n      mstore\n      swap2\n      0x20\n      add\n      swap2\n      jump(tag_141)\n    tag_142:\n      dup3\n      add\n      swap2\n      swap1\n      0x00\n      mstore\n      keccak256(0x00, 0x20)\n      swap1\n    tag_143:\n      dup2\n      sload\n      dup2\n      mstore\n      swap1\n      0x01\n      add\n      swap1\n      0x20\n      add\n      dup1\n      dup4\n      gt\n      tag_143\n      jumpi\n      dup3\n      swap1\n      sub\n      0x1f\n      and\n      dup3\n      add\n      swap2\n    tag_141:\n      pop\n      pop\n      pop\n      pop\n      pop\n      swap1\n      pop\n      dup3\n      jump\t// out\n        /* \"contracts/CalismaBilgileri.sol\":977:2238  function ekleCalismaBilgi(address _kisiAddress, uint32 pozisyon, uint8 sektor, CalismaTipi calismaTipi, string memory isAciklama, uint basTarih, uint bitTarih, uint8 ulke, uint32 sehir)  public sadece_Uni_Firma_Kamu{\r... */\n    tag_66:\n        /* \"contracts/BaseContract.sol\":2617:2630  universiteler */\n      0x04\n        /* \"contracts/BaseContract.sol\":2617:2642  universiteler[msg.sender] */\n      0x00\n        /* \"contracts/BaseContract.sol\":2631:2641  msg.sender */\n      caller\n        /* \"contracts/BaseContract.sol\":2617:2642  universiteler[msg.sender] */\n      0xffffffffffffffffffffffffffffffffffffffff\n      and\n      0xffffffffffffffffffffffffffffffffffffffff\n      and\n      dup2\n      mstore\n      0x20\n      add\n      swap1\n      dup2\n      mstore\n      0x20\n      add\n      0x00\n      keccak256\n        /* \"contracts/BaseContract.sol\":2617:2648  universiteler[msg.sender].durum */\n      0x00\n      add\n      0x00\n      swap1\n      sload\n      swap1\n      0x0100\n      exp\n      swap1\n      div\n      0xff\n      and\n        /* \"contracts/BaseContract.sol\":2617:2676  universiteler[msg.sender].durum||firmalar[msg.sender].durum */\n      dup1\n      tag_145\n      jumpi\n      pop\n        /* \"contracts/BaseContract.sol\":2650:2658  firmalar */\n      0x06\n        /* \"contracts/BaseContract.sol\":2650:2670  firmalar[msg.sender] */\n      0x00\n        /* \"contracts/BaseContract.sol\":2659:2669  msg.sender */\n      caller\n        /* \"contracts/BaseContract.sol\":2650:2670  firmalar[msg.sender] */\n      0xffffffffffffffffffffffffffffffffffffffff\n      and\n      0xffffffffffffffffffffffffffffffffffffffff\n      and\n      dup2\n      mstore\n      0x20\n      add\n      swap1\n      dup2\n      mstore\n      0x20\n      add\n      0x00\n      keccak256\n        /* \"contracts/BaseContract.sol\":2650:2676  firmalar[msg.sender].durum */\n      0x00\n      add\n      0x00\n      swap1\n      sload\n      swap1\n      0x0100\n      exp\n      swap1\n      div\n      0xff\n      and\n        /* \"contracts/BaseContract.sol\":2617:2676  universiteler[msg.sender].durum||firmalar[msg.sender].durum */\n    tag_145:\n        /* \"contracts/BaseContract.sol\":2617:2709  universiteler[msg.sender].durum||firmalar[msg.sender].durum||kamuKurumlari[msg.sender].durum */\n      dup1\n      tag_146\n      jumpi\n      pop\n        /* \"contracts/BaseContract.sol\":2678:2691  kamuKurumlari */\n      0x08\n        /* \"contracts/BaseContract.sol\":2678:2703  kamuKurumlari[msg.sender] */\n      0x00\n        /* \"contracts/BaseContract.sol\":2692:2702  msg.sender */\n      caller\n        /* \"contracts/BaseContract.sol\":2678:2703  kamuKurumlari[msg.sender] */\n      0xffffffffffffffffffffffffffffffffffffffff\n      and\n      0xffffffffffffffffffffffffffffffffffffffff\n      and\n      dup2\n      mstore\n      0x20\n      add\n      swap1\n      dup2\n      mstore\n      0x20\n      add\n      0x00\n      keccak256\n        /* \"contracts/BaseContract.sol\":2678:2709  kamuKurumlari[msg.sender].durum */\n      0x00\n      add\n      0x00\n      swap1\n      sload\n      swap1\n      0x0100\n      exp\n      swap1\n      div\n      0xff\n      and\n        /* \"contracts/BaseContract.sol\":2617:2709  universiteler[msg.sender].durum||firmalar[msg.sender].durum||kamuKurumlari[msg.sender].durum */\n    tag_146:\n        /* \"contracts/BaseContract.sol\":2609:2761  require(universiteler[msg.sender].durum||firmalar[msg.sender].durum||kamuKurumlari[msg.sender].durum,\r... */\n      tag_147\n      jumpi\n      mload(0x40)\n      0x08c379a000000000000000000000000000000000000000000000000000000000\n      dup2\n      mstore\n      0x04\n      add\n      tag_148\n      swap1\n      tag_116\n      jump\t// in\n    tag_148:\n      mload(0x40)\n      dup1\n      swap2\n      sub\n      swap1\n      revert\n    tag_147:\n        /* \"contracts/CalismaBilgileri.sol\":1216:1223  kisiler */\n      0x03\n        /* \"contracts/CalismaBilgileri.sol\":1216:1237  kisiler[_kisiAddress] */\n      0x00\n        /* \"contracts/CalismaBilgileri.sol\":1224:1236  _kisiAddress */\n      dup11\n        /* \"contracts/CalismaBilgileri.sol\":1216:1237  kisiler[_kisiAddress] */\n      0xffffffffffffffffffffffffffffffffffffffff\n      and\n      0xffffffffffffffffffffffffffffffffffffffff\n      and\n      dup2\n      mstore\n      0x20\n      add\n      swap1\n      dup2\n      mstore\n      0x20\n      add\n      0x00\n      keccak256\n        /* \"contracts/CalismaBilgileri.sol\":1216:1243  kisiler[_kisiAddress].durum */\n      0x00\n      add\n      0x00\n      swap1\n      sload\n      swap1\n      0x0100\n      exp\n      swap1\n      div\n      0xff\n      and\n        /* \"contracts/CalismaBilgileri.sol\":1208:1265  require(kisiler[_kisiAddress].durum,\"Student not exists\") */\n      tag_150\n      jumpi\n      mload(0x40)\n      0x08c379a000000000000000000000000000000000000000000000000000000000\n      dup2\n      mstore\n      0x04\n      add\n      tag_151\n      swap1\n      tag_120\n      jump\t// in\n    tag_151:\n      mload(0x40)\n      dup1\n      swap2\n      sub\n      swap1\n      revert\n    tag_150:\n        /* \"contracts/CalismaBilgileri.sol\":1281:1292  uint yeniId */\n      0x00\n        /* \"contracts/CalismaBilgileri.sol\":1293:1295  id */\n      0x0c\n      0x00\n        /* \"contracts/CalismaBilgileri.sol\":1293:1297  id++ */\n      dup2\n      sload\n      dup1\n      swap3\n      swap2\n      swap1\n      tag_152\n      swap1\n      tag_153\n      jump\t// in\n    tag_152:\n      swap2\n      swap1\n      pop\n      sstore\n        /* \"contracts/CalismaBilgileri.sol\":1281:1297  uint yeniId=id++ */\n      swap1\n      pop\n        /* \"contracts/CalismaBilgileri.sol\":1375:1383  pozisyon */\n      dup9\n        /* \"contracts/CalismaBilgileri.sol\":1327:1343  calismaBilgileri */\n      0x0d\n        /* \"contracts/CalismaBilgileri.sol\":1327:1357  calismaBilgileri[_kisiAddress] */\n      0x00\n        /* \"contracts/CalismaBilgileri.sol\":1344:1356  _kisiAddress */\n      dup13\n        /* \"contracts/CalismaBilgileri.sol\":1327:1357  calismaBilgileri[_kisiAddress] */\n      0xffffffffffffffffffffffffffffffffffffffff\n      and\n      0xffffffffffffffffffffffffffffffffffffffff\n      and\n      dup2\n      mstore\n      0x20\n      add\n      swap1\n      dup2\n      mstore\n      0x20\n      add\n      0x00\n      keccak256\n        /* \"contracts/CalismaBilgileri.sol\":1327:1365  calismaBilgileri[_kisiAddress][yeniId] */\n      0x00\n        /* \"contracts/CalismaBilgileri.sol\":1358:1364  yeniId */\n      dup4\n        /* \"contracts/CalismaBilgileri.sol\":1327:1365  calismaBilgileri[_kisiAddress][yeniId] */\n      dup2\n      mstore\n      0x20\n      add\n      swap1\n      dup2\n      mstore\n      0x20\n      add\n      0x00\n      keccak256\n        /* \"contracts/CalismaBilgileri.sol\":1327:1374  calismaBilgileri[_kisiAddress][yeniId].pozisyon */\n      0x01\n      add\n      0x14\n        /* \"contracts/CalismaBilgileri.sol\":1327:1383  calismaBilgileri[_kisiAddress][yeniId].pozisyon=pozisyon */\n      0x0100\n      exp\n      dup2\n      sload\n      dup2\n      0xffffffff\n      mul\n      not\n      and\n      swap1\n      dup4\n      0xffffffff\n      and\n      mul\n      or\n      swap1\n      sstore\n      pop\n        /* \"contracts/CalismaBilgileri.sol\":1445:1451  sektor */\n      dup8\n        /* \"contracts/CalismaBilgileri.sol\":1399:1415  calismaBilgileri */\n      0x0d\n        /* \"contracts/CalismaBilgileri.sol\":1399:1429  calismaBilgileri[_kisiAddress] */\n      0x00\n        /* \"contracts/CalismaBilgileri.sol\":1416:1428  _kisiAddress */\n      dup13\n        /* \"contracts/CalismaBilgileri.sol\":1399:1429  calismaBilgileri[_kisiAddress] */\n      0xffffffffffffffffffffffffffffffffffffffff\n      and\n      0xffffffffffffffffffffffffffffffffffffffff\n      and\n      dup2\n      mstore\n      0x20\n      add\n      swap1\n      dup2\n      mstore\n      0x20\n      add\n      0x00\n      keccak256\n        /* \"contracts/CalismaBilgileri.sol\":1399:1437  calismaBilgileri[_kisiAddress][yeniId] */\n      0x00\n        /* \"contracts/CalismaBilgileri.sol\":1430:1436  yeniId */\n      dup4\n        /* \"contracts/CalismaBilgileri.sol\":1399:1437  calismaBilgileri[_kisiAddress][yeniId] */\n      dup2\n      mstore\n      0x20\n      add\n      swap1\n      dup2\n      mstore\n      0x20\n      add\n      0x00\n      keccak256\n        /* \"contracts/CalismaBilgileri.sol\":1399:1444  calismaBilgileri[_kisiAddress][yeniId].sektor */\n      0x01\n      add\n      0x18\n        /* \"contracts/CalismaBilgileri.sol\":1399:1451  calismaBilgileri[_kisiAddress][yeniId].sektor=sektor */\n      0x0100\n      exp\n      dup2\n      sload\n      dup2\n      0xff\n      mul\n      not\n      and\n      swap1\n      dup4\n      0xff\n      and\n      mul\n      or\n      swap1\n      sstore\n      pop\n        /* \"contracts/CalismaBilgileri.sol\":1518:1529  calismaTipi */\n      dup7\n        /* \"contracts/CalismaBilgileri.sol\":1467:1483  calismaBilgileri */\n      0x0d\n        /* \"contracts/CalismaBilgileri.sol\":1467:1497  calismaBilgileri[_kisiAddress] */\n      0x00\n        /* \"contracts/CalismaBilgileri.sol\":1484:1496  _kisiAddress */\n      dup13\n        /* \"contracts/CalismaBilgileri.sol\":1467:1497  calismaBilgileri[_kisiAddress] */\n      0xffffffffffffffffffffffffffffffffffffffff\n      and\n      0xffffffffffffffffffffffffffffffffffffffff\n      and\n      dup2\n      mstore\n      0x20\n      add\n      swap1\n      dup2\n      mstore\n      0x20\n      add\n      0x00\n      keccak256\n        /* \"contracts/CalismaBilgileri.sol\":1467:1505  calismaBilgileri[_kisiAddress][yeniId] */\n      0x00\n        /* \"contracts/CalismaBilgileri.sol\":1498:1504  yeniId */\n      dup4\n        /* \"contracts/CalismaBilgileri.sol\":1467:1505  calismaBilgileri[_kisiAddress][yeniId] */\n      dup2\n      mstore\n      0x20\n      add\n      swap1\n      dup2\n      mstore\n      0x20\n      add\n      0x00\n      keccak256\n        /* \"contracts/CalismaBilgileri.sol\":1467:1517  calismaBilgileri[_kisiAddress][yeniId].calismaTipi */\n      0x01\n      add\n      0x19\n        /* \"contracts/CalismaBilgileri.sol\":1467:1529  calismaBilgileri[_kisiAddress][yeniId].calismaTipi=calismaTipi */\n      0x0100\n      exp\n      dup2\n      sload\n      dup2\n      0xff\n      mul\n      not\n      and\n      swap1\n      dup4\n      0x02\n      dup2\n      gt\n      iszero\n      tag_154\n      jumpi\n      tag_155\n      tag_88\n      jump\t// in\n    tag_155:\n    tag_154:\n      mul\n      or\n      swap1\n      sstore\n      pop\n        /* \"contracts/CalismaBilgileri.sol\":1595:1605  isAciklama */\n      dup6\n        /* \"contracts/CalismaBilgileri.sol\":1545:1561  calismaBilgileri */\n      0x0d\n        /* \"contracts/CalismaBilgileri.sol\":1545:1575  calismaBilgileri[_kisiAddress] */\n      0x00\n        /* \"contracts/CalismaBilgileri.sol\":1562:1574  _kisiAddress */\n      dup13\n        /* \"contracts/CalismaBilgileri.sol\":1545:1575  calismaBilgileri[_kisiAddress] */\n      0xffffffffffffffffffffffffffffffffffffffff\n      and\n      0xffffffffffffffffffffffffffffffffffffffff\n      and\n      dup2\n      mstore\n      0x20\n      add\n      swap1\n      dup2\n      mstore\n      0x20\n      add\n      0x00\n      keccak256\n        /* \"contracts/CalismaBilgileri.sol\":1545:1583  calismaBilgileri[_kisiAddress][yeniId] */\n      0x00\n        /* \"contracts/CalismaBilgileri.sol\":1576:1582  yeniId */\n      dup4\n        /* \"contracts/CalismaBilgileri.sol\":1545:1583  calismaBilgileri[_kisiAddress][yeniId] */\n      dup2\n      mstore\n      0x20\n      add\n      swap1\n      dup2\n      mstore\n      0x20\n      add\n      0x00\n      keccak256\n        /* \"contracts/CalismaBilgileri.sol\":1545:1594  calismaBilgileri[_kisiAddress][yeniId].isAciklama */\n      0x02\n      add\n        /* \"contracts/CalismaBilgileri.sol\":1545:1605  calismaBilgileri[_kisiAddress][yeniId].isAciklama=isAciklama */\n      swap1\n      dup1\n      mload\n      swap1\n      0x20\n      add\n      swap1\n      tag_156\n      swap3\n      swap2\n      swap1\n      tag_124\n      jump\t// in\n    tag_156:\n      pop\n        /* \"contracts/CalismaBilgileri.sol\":1669:1677  basTarih */\n      dup5\n        /* \"contracts/CalismaBilgileri.sol\":1621:1637  calismaBilgileri */\n      0x0d\n        /* \"contracts/CalismaBilgileri.sol\":1621:1651  calismaBilgileri[_kisiAddress] */\n      0x00\n        /* \"contracts/CalismaBilgileri.sol\":1638:1650  _kisiAddress */\n      dup13\n        /* \"contracts/CalismaBilgileri.sol\":1621:1651  calismaBilgileri[_kisiAddress] */\n      0xffffffffffffffffffffffffffffffffffffffff\n      and\n      0xffffffffffffffffffffffffffffffffffffffff\n      and\n      dup2\n      mstore\n      0x20\n      add\n      swap1\n      dup2\n      mstore\n      0x20\n      add\n      0x00\n      keccak256\n        /* \"contracts/CalismaBilgileri.sol\":1621:1659  calismaBilgileri[_kisiAddress][yeniId] */\n      0x00\n        /* \"contracts/CalismaBilgileri.sol\":1652:1658  yeniId */\n      dup4\n        /* \"contracts/CalismaBilgileri.sol\":1621:1659  calismaBilgileri[_kisiAddress][yeniId] */\n      dup2\n      mstore\n      0x20\n      add\n      swap1\n      dup2\n      mstore\n      0x20\n      add\n      0x00\n      keccak256\n        /* \"contracts/CalismaBilgileri.sol\":1621:1668  calismaBilgileri[_kisiAddress][yeniId].basTarih */\n      0x03\n      add\n        /* \"contracts/CalismaBilgileri.sol\":1621:1677  calismaBilgileri[_kisiAddress][yeniId].basTarih=basTarih */\n      dup2\n      swap1\n      sstore\n      pop\n        /* \"contracts/CalismaBilgileri.sol\":1741:1749  bitTarih */\n      dup4\n        /* \"contracts/CalismaBilgileri.sol\":1693:1709  calismaBilgileri */\n      0x0d\n        /* \"contracts/CalismaBilgileri.sol\":1693:1723  calismaBilgileri[_kisiAddress] */\n      0x00\n        /* \"contracts/CalismaBilgileri.sol\":1710:1722  _kisiAddress */\n      dup13\n        /* \"contracts/CalismaBilgileri.sol\":1693:1723  calismaBilgileri[_kisiAddress] */\n      0xffffffffffffffffffffffffffffffffffffffff\n      and\n      0xffffffffffffffffffffffffffffffffffffffff\n      and\n      dup2\n      mstore\n      0x20\n      add\n      swap1\n      dup2\n      mstore\n      0x20\n      add\n      0x00\n      keccak256\n        /* \"contracts/CalismaBilgileri.sol\":1693:1731  calismaBilgileri[_kisiAddress][yeniId] */\n      0x00\n        /* \"contracts/CalismaBilgileri.sol\":1724:1730  yeniId */\n      dup4\n        /* \"contracts/CalismaBilgileri.sol\":1693:1731  calismaBilgileri[_kisiAddress][yeniId] */\n      dup2\n      mstore\n      0x20\n      add\n      swap1\n      dup2\n      mstore\n      0x20\n      add\n      0x00\n      keccak256\n        /* \"contracts/CalismaBilgileri.sol\":1693:1740  calismaBilgileri[_kisiAddress][yeniId].bitTarih */\n      0x04\n      add\n        /* \"contracts/CalismaBilgileri.sol\":1693:1749  calismaBilgileri[_kisiAddress][yeniId].bitTarih=bitTarih */\n      dup2\n      swap1\n      sstore\n      pop\n        /* \"contracts/CalismaBilgileri.sol\":1809:1813  ulke */\n      dup3\n        /* \"contracts/CalismaBilgileri.sol\":1765:1781  calismaBilgileri */\n      0x0d\n        /* \"contracts/CalismaBilgileri.sol\":1765:1795  calismaBilgileri[_kisiAddress] */\n      0x00\n        /* \"contracts/CalismaBilgileri.sol\":1782:1794  _kisiAddress */\n      dup13\n        /* \"contracts/CalismaBilgileri.sol\":1765:1795  calismaBilgileri[_kisiAddress] */\n      0xffffffffffffffffffffffffffffffffffffffff\n      and\n      0xffffffffffffffffffffffffffffffffffffffff\n      and\n      dup2\n      mstore\n      0x20\n      add\n      swap1\n      dup2\n      mstore\n      0x20\n      add\n      0x00\n      keccak256\n        /* \"contracts/CalismaBilgileri.sol\":1765:1803  calismaBilgileri[_kisiAddress][yeniId] */\n      0x00\n        /* \"contracts/CalismaBilgileri.sol\":1796:1802  yeniId */\n      dup4\n        /* \"contracts/CalismaBilgileri.sol\":1765:1803  calismaBilgileri[_kisiAddress][yeniId] */\n      dup2\n      mstore\n      0x20\n      add\n      swap1\n      dup2\n      mstore\n      0x20\n      add\n      0x00\n      keccak256\n        /* \"contracts/CalismaBilgileri.sol\":1765:1808  calismaBilgileri[_kisiAddress][yeniId].ulke */\n      0x05\n      add\n      0x00\n        /* \"contracts/CalismaBilgileri.sol\":1765:1813  calismaBilgileri[_kisiAddress][yeniId].ulke=ulke */\n      0x0100\n      exp\n      dup2\n      sload\n      dup2\n      0xff\n      mul\n      not\n      and\n      swap1\n      dup4\n      0xff\n      and\n      mul\n      or\n      swap1\n      sstore\n      pop\n        /* \"contracts/CalismaBilgileri.sol\":1874:1879  sehir */\n      dup2\n        /* \"contracts/CalismaBilgileri.sol\":1829:1845  calismaBilgileri */\n      0x0d\n        /* \"contracts/CalismaBilgileri.sol\":1829:1859  calismaBilgileri[_kisiAddress] */\n      0x00\n        /* \"contracts/CalismaBilgileri.sol\":1846:1858  _kisiAddress */\n      dup13\n        /* \"contracts/CalismaBilgileri.sol\":1829:1859  calismaBilgileri[_kisiAddress] */\n      0xffffffffffffffffffffffffffffffffffffffff\n      and\n      0xffffffffffffffffffffffffffffffffffffffff\n      and\n      dup2\n      mstore\n      0x20\n      add\n      swap1\n      dup2\n      mstore\n      0x20\n      add\n      0x00\n      keccak256\n        /* \"contracts/CalismaBilgileri.sol\":1829:1867  calismaBilgileri[_kisiAddress][yeniId] */\n      0x00\n        /* \"contracts/CalismaBilgileri.sol\":1860:1866  yeniId */\n      dup4\n        /* \"contracts/CalismaBilgileri.sol\":1829:1867  calismaBilgileri[_kisiAddress][yeniId] */\n      dup2\n      mstore\n      0x20\n      add\n      swap1\n      dup2\n      mstore\n      0x20\n      add\n      0x00\n      keccak256\n        /* \"contracts/CalismaBilgileri.sol\":1829:1873  calismaBilgileri[_kisiAddress][yeniId].sehir */\n      0x05\n      add\n      0x01\n        /* \"contracts/CalismaBilgileri.sol\":1829:1879  calismaBilgileri[_kisiAddress][yeniId].sehir=sehir */\n      0x0100\n      exp\n      dup2\n      sload\n      dup2\n      0xffffffff\n      mul\n      not\n      and\n      swap1\n      dup4\n      0xffffffff\n      and\n      mul\n      or\n      swap1\n      sstore\n      pop\n        /* \"contracts/CalismaBilgileri.sol\":1950:1965  block.timestamp */\n      timestamp\n        /* \"contracts/CalismaBilgileri.sol\":1895:1911  calismaBilgileri */\n      0x0d\n        /* \"contracts/CalismaBilgileri.sol\":1895:1925  calismaBilgileri[_kisiAddress] */\n      0x00\n        /* \"contracts/CalismaBilgileri.sol\":1912:1924  _kisiAddress */\n      dup13\n        /* \"contracts/CalismaBilgileri.sol\":1895:1925  calismaBilgileri[_kisiAddress] */\n      0xffffffffffffffffffffffffffffffffffffffff\n      and\n      0xffffffffffffffffffffffffffffffffffffffff\n      and\n      dup2\n      mstore\n      0x20\n      add\n      swap1\n      dup2\n      mstore\n      0x20\n      add\n      0x00\n      keccak256\n        /* \"contracts/CalismaBilgileri.sol\":1895:1933  calismaBilgileri[_kisiAddress][yeniId] */\n      0x00\n        /* \"contracts/CalismaBilgileri.sol\":1926:1932  yeniId */\n      dup4\n        /* \"contracts/CalismaBilgileri.sol\":1895:1933  calismaBilgileri[_kisiAddress][yeniId] */\n      dup2\n      mstore\n      0x20\n      add\n      swap1\n      dup2\n      mstore\n      0x20\n      add\n      0x00\n      keccak256\n        /* \"contracts/CalismaBilgileri.sol\":1895:1943  calismaBilgileri[_kisiAddress][yeniId].onayBilgi */\n      0x06\n      add\n        /* \"contracts/CalismaBilgileri.sol\":1895:1949  calismaBilgileri[_kisiAddress][yeniId].onayBilgi.zaman */\n      0x00\n      add\n        /* \"contracts/CalismaBilgileri.sol\":1895:1965  calismaBilgileri[_kisiAddress][yeniId].onayBilgi.zaman=block.timestamp */\n      dup2\n      swap1\n      sstore\n      pop\n        /* \"contracts/CalismaBilgileri.sol\":2036:2055  OnayDurum.Onaylandi */\n      0x01\n        /* \"contracts/CalismaBilgileri.sol\":1981:1997  calismaBilgileri */\n      0x0d\n        /* \"contracts/CalismaBilgileri.sol\":1981:2011  calismaBilgileri[_kisiAddress] */\n      0x00\n        /* \"contracts/CalismaBilgileri.sol\":1998:2010  _kisiAddress */\n      dup13\n        /* \"contracts/CalismaBilgileri.sol\":1981:2011  calismaBilgileri[_kisiAddress] */\n      0xffffffffffffffffffffffffffffffffffffffff\n      and\n      0xffffffffffffffffffffffffffffffffffffffff\n      and\n      dup2\n      mstore\n      0x20\n      add\n      swap1\n      dup2\n      mstore\n      0x20\n      add\n      0x00\n      keccak256\n        /* \"contracts/CalismaBilgileri.sol\":1981:2019  calismaBilgileri[_kisiAddress][yeniId] */\n      0x00\n        /* \"contracts/CalismaBilgileri.sol\":2012:2018  yeniId */\n      dup4\n        /* \"contracts/CalismaBilgileri.sol\":1981:2019  calismaBilgileri[_kisiAddress][yeniId] */\n      dup2\n      mstore\n      0x20\n      add\n      swap1\n      dup2\n      mstore\n      0x20\n      add\n      0x00\n      keccak256\n        /* \"contracts/CalismaBilgileri.sol\":1981:2029  calismaBilgileri[_kisiAddress][yeniId].onayBilgi */\n      0x06\n      add\n        /* \"contracts/CalismaBilgileri.sol\":1981:2035  calismaBilgileri[_kisiAddress][yeniId].onayBilgi.durum */\n      0x01\n      add\n      0x14\n        /* \"contracts/CalismaBilgileri.sol\":1981:2055  calismaBilgileri[_kisiAddress][yeniId].onayBilgi.durum=OnayDurum.Onaylandi */\n      0x0100\n      exp\n      dup2\n      sload\n      dup2\n      0xff\n      mul\n      not\n      and\n      swap1\n      dup4\n      0x02\n      dup2\n      gt\n      iszero\n      tag_157\n      jumpi\n      tag_158\n      tag_88\n      jump\t// in\n    tag_158:\n    tag_157:\n      mul\n      or\n      swap1\n      sstore\n      pop\n        /* \"contracts/CalismaBilgileri.sol\":2126:2136  msg.sender */\n      caller\n        /* \"contracts/CalismaBilgileri.sol\":2071:2087  calismaBilgileri */\n      0x0d\n        /* \"contracts/CalismaBilgileri.sol\":2071:2101  calismaBilgileri[_kisiAddress] */\n      0x00\n        /* \"contracts/CalismaBilgileri.sol\":2088:2100  _kisiAddress */\n      dup13\n        /* \"contracts/CalismaBilgileri.sol\":2071:2101  calismaBilgileri[_kisiAddress] */\n      0xffffffffffffffffffffffffffffffffffffffff\n      and\n      0xffffffffffffffffffffffffffffffffffffffff\n      and\n      dup2\n      mstore\n      0x20\n      add\n      swap1\n      dup2\n      mstore\n      0x20\n      add\n      0x00\n      keccak256\n        /* \"contracts/CalismaBilgileri.sol\":2071:2109  calismaBilgileri[_kisiAddress][yeniId] */\n      0x00\n        /* \"contracts/CalismaBilgileri.sol\":2102:2108  yeniId */\n      dup4\n        /* \"contracts/CalismaBilgileri.sol\":2071:2109  calismaBilgileri[_kisiAddress][yeniId] */\n      dup2\n      mstore\n      0x20\n      add\n      swap1\n      dup2\n      mstore\n      0x20\n      add\n      0x00\n      keccak256\n        /* \"contracts/CalismaBilgileri.sol\":2071:2119  calismaBilgileri[_kisiAddress][yeniId].onayBilgi */\n      0x06\n      add\n        /* \"contracts/CalismaBilgileri.sol\":2071:2125  calismaBilgileri[_kisiAddress][yeniId].onayBilgi.adres */\n      0x01\n      add\n      0x00\n        /* \"contracts/CalismaBilgileri.sol\":2071:2136  calismaBilgileri[_kisiAddress][yeniId].onayBilgi.adres=msg.sender */\n      0x0100\n      exp\n      dup2\n      sload\n      dup2\n      0xffffffffffffffffffffffffffffffffffffffff\n      mul\n      not\n      and\n      swap1\n      dup4\n      0xffffffffffffffffffffffffffffffffffffffff\n      and\n      mul\n      or\n      swap1\n      sstore\n      pop\n        /* \"contracts/CalismaBilgileri.sol\":2170:2230  CalismaBilgiEklendiLog( _kisiAddress, ulke,pozisyon, sektor) */\n      0x5ad0792471e6b8d6289d325d174cfb7e274ac9529efeb295f4abce0a90cdcb23\n        /* \"contracts/CalismaBilgileri.sol\":2194:2206  _kisiAddress */\n      dup11\n        /* \"contracts/CalismaBilgileri.sol\":2208:2212  ulke */\n      dup5\n        /* \"contracts/CalismaBilgileri.sol\":2213:2221  pozisyon */\n      dup12\n        /* \"contracts/CalismaBilgileri.sol\":2223:2229  sektor */\n      dup12\n        /* \"contracts/CalismaBilgileri.sol\":2170:2230  CalismaBilgiEklendiLog( _kisiAddress, ulke,pozisyon, sektor) */\n      mload(0x40)\n      tag_159\n      swap5\n      swap4\n      swap3\n      swap2\n      swap1\n      tag_128\n      jump\t// in\n    tag_159:\n      mload(0x40)\n      dup1\n      swap2\n      sub\n      swap1\n      log1\n        /* \"contracts/CalismaBilgileri.sol\":1192:2238  {\r... */\n      pop\n        /* \"contracts/CalismaBilgileri.sol\":977:2238  function ekleCalismaBilgi(address _kisiAddress, uint32 pozisyon, uint8 sektor, CalismaTipi calismaTipi, string memory isAciklama, uint basTarih, uint bitTarih, uint8 ulke, uint32 sehir)  public sadece_Uni_Firma_Kamu{\r... */\n      pop\n      pop\n      pop\n      pop\n      pop\n      pop\n      pop\n      pop\n      pop\n      jump\t// out\n        /* \"contracts/CalismaBilgileri.sol\":183:197  uint public id */\n    tag_68:\n      sload(0x0c)\n      dup2\n      jump\t// out\n        /* \"contracts/BaseContract.sol\":3046:3097  mapping(address=>Akademisyen) public akademisyenler */\n    tag_72:\n      mstore(0x20, 0x05)\n      dup1\n      0x00\n      mstore\n      keccak256(0x00, 0x40)\n      0x00\n      swap2\n      pop\n      swap1\n      pop\n      dup1\n      0x00\n      add\n      0x00\n      swap1\n      sload\n      swap1\n      0x0100\n      exp\n      swap1\n      div\n      0xff\n      and\n      swap1\n      dup1\n      0x00\n      add\n      0x01\n      swap1\n      sload\n      swap1\n      0x0100\n      exp\n      swap1\n      div\n      0xffffffffffffffffffffffffffffffffffffffff\n      and\n      swap1\n      dup1\n      0x00\n      add\n      0x15\n      swap1\n      sload\n      swap1\n      0x0100\n      exp\n      swap1\n      div\n      0xffff\n      and\n      swap1\n      dup1\n      0x00\n      add\n      0x17\n      swap1\n      sload\n      swap1\n      0x0100\n      exp\n      swap1\n      div\n      0xff\n      and\n      swap1\n      dup1\n      0x01\n      add\n      dup1\n      sload\n      tag_160\n      swap1\n      tag_81\n      jump\t// in\n    tag_160:\n      dup1\n      0x1f\n      add\n      0x20\n      dup1\n      swap2\n      div\n      mul\n      0x20\n      add\n      mload(0x40)\n      swap1\n      dup2\n      add\n      0x40\n      mstore\n      dup1\n      swap3\n      swap2\n      swap1\n      dup2\n      dup2\n      mstore\n      0x20\n      add\n      dup3\n      dup1\n      sload\n      tag_161\n      swap1\n      tag_81\n      jump\t// in\n    tag_161:\n      dup1\n      iszero\n      tag_162\n      jumpi\n      dup1\n      0x1f\n      lt\n      tag_163\n      jumpi\n      0x0100\n      dup1\n      dup4\n      sload\n      div\n      mul\n      dup4\n      mstore\n      swap2\n      0x20\n      add\n      swap2\n      jump(tag_162)\n    tag_163:\n      dup3\n      add\n      swap2\n      swap1\n      0x00\n      mstore\n      keccak256(0x00, 0x20)\n      swap1\n    tag_164:\n      dup2\n      sload\n      dup2\n      mstore\n      swap1\n      0x01\n      add\n      swap1\n      0x20\n      add\n      dup1\n      dup4\n      gt\n      tag_164\n      jumpi\n      dup3\n      swap1\n      sub\n      0x1f\n      and\n      dup3\n      add\n      swap2\n    tag_162:\n      pop\n      pop\n      pop\n      pop\n      pop\n      swap1\n      dup1\n      0x02\n      add\n      dup1\n      sload\n      tag_165\n      swap1\n      tag_81\n      jump\t// in\n    tag_165:\n      dup1\n      0x1f\n      add\n      0x20\n      dup1\n      swap2\n      div\n      mul\n      0x20\n      add\n      mload(0x40)\n      swap1\n      dup2\n      add\n      0x40\n      mstore\n      dup1\n      swap3\n      swap2\n      swap1\n      dup2\n      dup2\n      mstore\n      0x20\n      add\n      dup3\n      dup1\n      sload\n      tag_166\n      swap1\n      tag_81\n      jump\t// in\n    tag_166:\n      dup1\n      iszero\n      tag_167\n      jumpi\n      dup1\n      0x1f\n      lt\n      tag_168\n      jumpi\n      0x0100\n      dup1\n      dup4\n      sload\n      div\n      mul\n      dup4\n      mstore\n      swap2\n      0x20\n      add\n      swap2\n      jump(tag_167)\n    tag_168:\n      dup3\n      add\n      swap2\n      swap1\n      0x00\n      mstore\n      keccak256(0x00, 0x20)\n      swap1\n    tag_169:\n      dup2\n      sload\n      dup2\n      mstore\n      swap1\n      0x01\n      add\n      swap1\n      0x20\n      add\n      dup1\n      dup4\n      gt\n      tag_169\n      jumpi\n      dup3\n      swap1\n      sub\n      0x1f\n      and\n      dup3\n      add\n      swap2\n    tag_167:\n      pop\n      pop\n      pop\n      pop\n      pop\n      swap1\n      pop\n      dup7\n      jump\t// out\n        /* \"contracts/BaseContract.sol\":2946:2983  mapping(address=>Kisi) public kisiler */\n    tag_77:\n      mstore(0x20, 0x03)\n      dup1\n      0x00\n      mstore\n      keccak256(0x00, 0x40)\n      0x00\n      swap2\n      pop\n      swap1\n      pop\n      dup1\n      0x00\n      add\n      0x00\n      swap1\n      sload\n      swap1\n      0x0100\n      exp\n      swap1\n      div\n      0xff\n      and\n      swap1\n      pop\n      dup2\n      jump\t// out\n    tag_124:\n      dup3\n      dup1\n      sload\n      tag_170\n      swap1\n      tag_81\n      jump\t// in\n    tag_170:\n      swap1\n      0x00\n      mstore\n      keccak256(0x00, 0x20)\n      swap1\n      0x1f\n      add\n      0x20\n      swap1\n      div\n      dup2\n      add\n      swap3\n      dup3\n      tag_172\n      jumpi\n      0x00\n      dup6\n      sstore\n      jump(tag_171)\n    tag_172:\n      dup3\n      0x1f\n      lt\n      tag_173\n      jumpi\n      dup1\n      mload\n      not(0xff)\n      and\n      dup4\n      dup1\n      add\n      or\n      dup6\n      sstore\n      jump(tag_171)\n    tag_173:\n      dup3\n      dup1\n      add\n      0x01\n      add\n      dup6\n      sstore\n      dup3\n      iszero\n      tag_171\n      jumpi\n      swap2\n      dup3\n      add\n    tag_174:\n      dup3\n      dup2\n      gt\n      iszero\n      tag_175\n      jumpi\n      dup3\n      mload\n      dup3\n      sstore\n      swap2\n      0x20\n      add\n      swap2\n      swap1\n      0x01\n      add\n      swap1\n      jump(tag_174)\n    tag_175:\n    tag_171:\n      pop\n      swap1\n      pop\n      tag_176\n      swap2\n      swap1\n      tag_177\n      jump\t// in\n    tag_176:\n      pop\n      swap1\n      jump\t// out\n    tag_177:\n    tag_178:\n      dup1\n      dup3\n      gt\n      iszero\n      tag_179\n      jumpi\n      0x00\n      dup2\n      0x00\n      swap1\n      sstore\n      pop\n      0x01\n      add\n      jump(tag_178)\n    tag_179:\n      pop\n      swap1\n      jump\t// out\n        /* \"#utility.yul\":7:419   */\n    tag_181:\n        /* \"#utility.yul\":85:90   */\n      0x00\n        /* \"#utility.yul\":110:176   */\n      tag_183\n        /* \"#utility.yul\":126:175   */\n      tag_184\n        /* \"#utility.yul\":168:174   */\n      dup5\n        /* \"#utility.yul\":126:175   */\n      tag_185\n      jump\t// in\n    tag_184:\n        /* \"#utility.yul\":110:176   */\n      tag_186\n      jump\t// in\n    tag_183:\n        /* \"#utility.yul\":101:176   */\n      swap1\n      pop\n        /* \"#utility.yul\":199:205   */\n      dup3\n        /* \"#utility.yul\":192:197   */\n      dup2\n        /* \"#utility.yul\":185:206   */\n      mstore\n        /* \"#utility.yul\":237:241   */\n      0x20\n        /* \"#utility.yul\":230:235   */\n      dup2\n        /* \"#utility.yul\":226:242   */\n      add\n        /* \"#utility.yul\":275:278   */\n      dup5\n        /* \"#utility.yul\":266:272   */\n      dup5\n        /* \"#utility.yul\":261:264   */\n      dup5\n        /* \"#utility.yul\":257:273   */\n      add\n        /* \"#utility.yul\":254:279   */\n      gt\n        /* \"#utility.yul\":251:363   */\n      iszero\n      tag_187\n      jumpi\n        /* \"#utility.yul\":282:361   */\n      tag_188\n      tag_189\n      jump\t// in\n    tag_188:\n        /* \"#utility.yul\":251:363   */\n    tag_187:\n        /* \"#utility.yul\":372:413   */\n      tag_190\n        /* \"#utility.yul\":406:412   */\n      dup5\n        /* \"#utility.yul\":401:404   */\n      dup3\n        /* \"#utility.yul\":396:399   */\n      dup6\n        /* \"#utility.yul\":372:413   */\n      tag_191\n      jump\t// in\n    tag_190:\n        /* \"#utility.yul\":91:419   */\n      pop\n        /* \"#utility.yul\":7:419   */\n      swap4\n      swap3\n      pop\n      pop\n      pop\n      jump\t// out\n        /* \"#utility.yul\":425:564   */\n    tag_192:\n        /* \"#utility.yul\":471:476   */\n      0x00\n        /* \"#utility.yul\":509:515   */\n      dup2\n        /* \"#utility.yul\":496:516   */\n      calldataload\n        /* \"#utility.yul\":487:516   */\n      swap1\n      pop\n        /* \"#utility.yul\":525:558   */\n      tag_194\n        /* \"#utility.yul\":552:557   */\n      dup2\n        /* \"#utility.yul\":525:558   */\n      tag_195\n      jump\t// in\n    tag_194:\n        /* \"#utility.yul\":425:564   */\n      swap3\n      swap2\n      pop\n      pop\n      jump\t// out\n        /* \"#utility.yul\":570:739   */\n    tag_196:\n        /* \"#utility.yul\":631:636   */\n      0x00\n        /* \"#utility.yul\":669:675   */\n      dup2\n        /* \"#utility.yul\":656:676   */\n      calldataload\n        /* \"#utility.yul\":647:676   */\n      swap1\n      pop\n        /* \"#utility.yul\":685:733   */\n      tag_198\n        /* \"#utility.yul\":727:732   */\n      dup2\n        /* \"#utility.yul\":685:733   */\n      tag_199\n      jump\t// in\n    tag_198:\n        /* \"#utility.yul\":570:739   */\n      swap3\n      swap2\n      pop\n      pop\n      jump\t// out\n        /* \"#utility.yul\":759:1099   */\n    tag_200:\n        /* \"#utility.yul\":815:820   */\n      0x00\n        /* \"#utility.yul\":864:867   */\n      dup3\n        /* \"#utility.yul\":857:861   */\n      0x1f\n        /* \"#utility.yul\":849:855   */\n      dup4\n        /* \"#utility.yul\":845:862   */\n      add\n        /* \"#utility.yul\":841:868   */\n      slt\n        /* \"#utility.yul\":831:953   */\n      tag_202\n      jumpi\n        /* \"#utility.yul\":872:951   */\n      tag_203\n      tag_204\n      jump\t// in\n    tag_203:\n        /* \"#utility.yul\":831:953   */\n    tag_202:\n        /* \"#utility.yul\":989:995   */\n      dup2\n        /* \"#utility.yul\":976:996   */\n      calldataload\n        /* \"#utility.yul\":1014:1093   */\n      tag_205\n        /* \"#utility.yul\":1089:1092   */\n      dup5\n        /* \"#utility.yul\":1081:1087   */\n      dup3\n        /* \"#utility.yul\":1074:1078   */\n      0x20\n        /* \"#utility.yul\":1066:1072   */\n      dup7\n        /* \"#utility.yul\":1062:1079   */\n      add\n        /* \"#utility.yul\":1014:1093   */\n      tag_181\n      jump\t// in\n    tag_205:\n        /* \"#utility.yul\":1005:1093   */\n      swap2\n      pop\n        /* \"#utility.yul\":821:1099   */\n      pop\n        /* \"#utility.yul\":759:1099   */\n      swap3\n      swap2\n      pop\n      pop\n      jump\t// out\n        /* \"#utility.yul\":1105:1244   */\n    tag_206:\n        /* \"#utility.yul\":1151:1156   */\n      0x00\n        /* \"#utility.yul\":1189:1195   */\n      dup2\n        /* \"#utility.yul\":1176:1196   */\n      calldataload\n        /* \"#utility.yul\":1167:1196   */\n      swap1\n      pop\n        /* \"#utility.yul\":1205:1238   */\n      tag_208\n        /* \"#utility.yul\":1232:1237   */\n      dup2\n        /* \"#utility.yul\":1205:1238   */\n      tag_209\n      jump\t// in\n    tag_208:\n        /* \"#utility.yul\":1105:1244   */\n      swap3\n      swap2\n      pop\n      pop\n      jump\t// out\n        /* \"#utility.yul\":1250:1387   */\n    tag_210:\n        /* \"#utility.yul\":1295:1300   */\n      0x00\n        /* \"#utility.yul\":1333:1339   */\n      dup2\n        /* \"#utility.yul\":1320:1340   */\n      calldataload\n        /* \"#utility.yul\":1311:1340   */\n      swap1\n      pop\n        /* \"#utility.yul\":1349:1381   */\n      tag_212\n        /* \"#utility.yul\":1375:1380   */\n      dup2\n        /* \"#utility.yul\":1349:1381   */\n      tag_213\n      jump\t// in\n    tag_212:\n        /* \"#utility.yul\":1250:1387   */\n      swap3\n      swap2\n      pop\n      pop\n      jump\t// out\n        /* \"#utility.yul\":1393:1528   */\n    tag_214:\n        /* \"#utility.yul\":1437:1442   */\n      0x00\n        /* \"#utility.yul\":1475:1481   */\n      dup2\n        /* \"#utility.yul\":1462:1482   */\n      calldataload\n        /* \"#utility.yul\":1453:1482   */\n      swap1\n      pop\n        /* \"#utility.yul\":1491:1522   */\n      tag_216\n        /* \"#utility.yul\":1516:1521   */\n      dup2\n        /* \"#utility.yul\":1491:1522   */\n      tag_217\n      jump\t// in\n    tag_216:\n        /* \"#utility.yul\":1393:1528   */\n      swap3\n      swap2\n      pop\n      pop\n      jump\t// out\n        /* \"#utility.yul\":1534:1863   */\n    tag_26:\n        /* \"#utility.yul\":1593:1599   */\n      0x00\n        /* \"#utility.yul\":1642:1644   */\n      0x20\n        /* \"#utility.yul\":1630:1639   */\n      dup3\n        /* \"#utility.yul\":1621:1628   */\n      dup5\n        /* \"#utility.yul\":1617:1640   */\n      sub\n        /* \"#utility.yul\":1613:1645   */\n      slt\n        /* \"#utility.yul\":1610:1729   */\n      iszero\n      tag_219\n      jumpi\n        /* \"#utility.yul\":1648:1727   */\n      tag_220\n      tag_221\n      jump\t// in\n    tag_220:\n        /* \"#utility.yul\":1610:1729   */\n    tag_219:\n        /* \"#utility.yul\":1768:1769   */\n      0x00\n        /* \"#utility.yul\":1793:1846   */\n      tag_222\n        /* \"#utility.yul\":1838:1845   */\n      dup5\n        /* \"#utility.yul\":1829:1835   */\n      dup3\n        /* \"#utility.yul\":1818:1827   */\n      dup6\n        /* \"#utility.yul\":1814:1836   */\n      add\n        /* \"#utility.yul\":1793:1846   */\n      tag_192\n      jump\t// in\n    tag_222:\n        /* \"#utility.yul\":1783:1846   */\n      swap2\n      pop\n        /* \"#utility.yul\":1739:1856   */\n      pop\n        /* \"#utility.yul\":1534:1863   */\n      swap3\n      swap2\n      pop\n      pop\n      jump\t// out\n        /* \"#utility.yul\":1869:2343   */\n    tag_20:\n        /* \"#utility.yul\":1937:1943   */\n      0x00\n        /* \"#utility.yul\":1945:1951   */\n      dup1\n        /* \"#utility.yul\":1994:1996   */\n      0x40\n        /* \"#utility.yul\":1982:1991   */\n      dup4\n        /* \"#utility.yul\":1973:1980   */\n      dup6\n        /* \"#utility.yul\":1969:1992   */\n      sub\n        /* \"#utility.yul\":1965:1997   */\n      slt\n        /* \"#utility.yul\":1962:2081   */\n      iszero\n      tag_224\n      jumpi\n        /* \"#utility.yul\":2000:2079   */\n      tag_225\n      tag_221\n      jump\t// in\n    tag_225:\n        /* \"#utility.yul\":1962:2081   */\n    tag_224:\n        /* \"#utility.yul\":2120:2121   */\n      0x00\n        /* \"#utility.yul\":2145:2198   */\n      tag_226\n        /* \"#utility.yul\":2190:2197   */\n      dup6\n        /* \"#utility.yul\":2181:2187   */\n      dup3\n        /* \"#utility.yul\":2170:2179   */\n      dup7\n        /* \"#utility.yul\":2166:2188   */\n      add\n        /* \"#utility.yul\":2145:2198   */\n      tag_192\n      jump\t// in\n    tag_226:\n        /* \"#utility.yul\":2135:2198   */\n      swap3\n      pop\n        /* \"#utility.yul\":2091:2208   */\n      pop\n        /* \"#utility.yul\":2247:2249   */\n      0x20\n        /* \"#utility.yul\":2273:2326   */\n      tag_227\n        /* \"#utility.yul\":2318:2325   */\n      dup6\n        /* \"#utility.yul\":2309:2315   */\n      dup3\n        /* \"#utility.yul\":2298:2307   */\n      dup7\n        /* \"#utility.yul\":2294:2316   */\n      add\n        /* \"#utility.yul\":2273:2326   */\n      tag_206\n      jump\t// in\n    tag_227:\n        /* \"#utility.yul\":2263:2326   */\n      swap2\n      pop\n        /* \"#utility.yul\":2218:2336   */\n      pop\n        /* \"#utility.yul\":1869:2343   */\n      swap3\n      pop\n      swap3\n      swap1\n      pop\n      jump\t// out\n        /* \"#utility.yul\":2349:4188   */\n    tag_45:\n        /* \"#utility.yul\":2508:2514   */\n      0x00\n        /* \"#utility.yul\":2516:2522   */\n      dup1\n        /* \"#utility.yul\":2524:2530   */\n      0x00\n        /* \"#utility.yul\":2532:2538   */\n      dup1\n        /* \"#utility.yul\":2540:2546   */\n      0x00\n        /* \"#utility.yul\":2548:2554   */\n      dup1\n        /* \"#utility.yul\":2556:2562   */\n      0x00\n        /* \"#utility.yul\":2564:2570   */\n      dup1\n        /* \"#utility.yul\":2572:2578   */\n      0x00\n        /* \"#utility.yul\":2580:2586   */\n      dup1\n        /* \"#utility.yul\":2629:2632   */\n      0x0140\n        /* \"#utility.yul\":2617:2626   */\n      dup12\n        /* \"#utility.yul\":2608:2615   */\n      dup14\n        /* \"#utility.yul\":2604:2627   */\n      sub\n        /* \"#utility.yul\":2600:2633   */\n      slt\n        /* \"#utility.yul\":2597:2717   */\n      iszero\n      tag_229\n      jumpi\n        /* \"#utility.yul\":2636:2715   */\n      tag_230\n      tag_221\n      jump\t// in\n    tag_230:\n        /* \"#utility.yul\":2597:2717   */\n    tag_229:\n        /* \"#utility.yul\":2756:2757   */\n      0x00\n        /* \"#utility.yul\":2781:2834   */\n      tag_231\n        /* \"#utility.yul\":2826:2833   */\n      dup14\n        /* \"#utility.yul\":2817:2823   */\n      dup3\n        /* \"#utility.yul\":2806:2815   */\n      dup15\n        /* \"#utility.yul\":2802:2824   */\n      add\n        /* \"#utility.yul\":2781:2834   */\n      tag_192\n      jump\t// in\n    tag_231:\n        /* \"#utility.yul\":2771:2834   */\n      swap11\n      pop\n        /* \"#utility.yul\":2727:2844   */\n      pop\n        /* \"#utility.yul\":2883:2885   */\n      0x20\n        /* \"#utility.yul\":2909:2962   */\n      tag_232\n        /* \"#utility.yul\":2954:2961   */\n      dup14\n        /* \"#utility.yul\":2945:2951   */\n      dup3\n        /* \"#utility.yul\":2934:2943   */\n      dup15\n        /* \"#utility.yul\":2930:2952   */\n      add\n        /* \"#utility.yul\":2909:2962   */\n      tag_206\n      jump\t// in\n    tag_232:\n        /* \"#utility.yul\":2899:2962   */\n      swap10\n      pop\n        /* \"#utility.yul\":2854:2972   */\n      pop\n        /* \"#utility.yul\":3011:3013   */\n      0x40\n        /* \"#utility.yul\":3037:3089   */\n      tag_233\n        /* \"#utility.yul\":3081:3088   */\n      dup14\n        /* \"#utility.yul\":3072:3078   */\n      dup3\n        /* \"#utility.yul\":3061:3070   */\n      dup15\n        /* \"#utility.yul\":3057:3079   */\n      add\n        /* \"#utility.yul\":3037:3089   */\n      tag_210\n      jump\t// in\n    tag_233:\n        /* \"#utility.yul\":3027:3089   */\n      swap9\n      pop\n        /* \"#utility.yul\":2982:3099   */\n      pop\n        /* \"#utility.yul\":3138:3140   */\n      0x60\n        /* \"#utility.yul\":3164:3215   */\n      tag_234\n        /* \"#utility.yul\":3207:3214   */\n      dup14\n        /* \"#utility.yul\":3198:3204   */\n      dup3\n        /* \"#utility.yul\":3187:3196   */\n      dup15\n        /* \"#utility.yul\":3183:3205   */\n      add\n        /* \"#utility.yul\":3164:3215   */\n      tag_214\n      jump\t// in\n    tag_234:\n        /* \"#utility.yul\":3154:3215   */\n      swap8\n      pop\n        /* \"#utility.yul\":3109:3225   */\n      pop\n        /* \"#utility.yul\":3264:3267   */\n      0x80\n        /* \"#utility.yul\":3291:3359   */\n      tag_235\n        /* \"#utility.yul\":3351:3358   */\n      dup14\n        /* \"#utility.yul\":3342:3348   */\n      dup3\n        /* \"#utility.yul\":3331:3340   */\n      dup15\n        /* \"#utility.yul\":3327:3349   */\n      add\n        /* \"#utility.yul\":3291:3359   */\n      tag_196\n      jump\t// in\n    tag_235:\n        /* \"#utility.yul\":3281:3359   */\n      swap7\n      pop\n        /* \"#utility.yul\":3235:3369   */\n      pop\n        /* \"#utility.yul\":3436:3439   */\n      0xa0\n        /* \"#utility.yul\":3425:3434   */\n      dup12\n        /* \"#utility.yul\":3421:3440   */\n      add\n        /* \"#utility.yul\":3408:3441   */\n      calldataload\n        /* \"#utility.yul\":3468:3486   */\n      0xffffffffffffffff\n        /* \"#utility.yul\":3460:3466   */\n      dup2\n        /* \"#utility.yul\":3457:3487   */\n      gt\n        /* \"#utility.yul\":3454:3571   */\n      iszero\n      tag_236\n      jumpi\n        /* \"#utility.yul\":3490:3569   */\n      tag_237\n      tag_238\n      jump\t// in\n    tag_237:\n        /* \"#utility.yul\":3454:3571   */\n    tag_236:\n        /* \"#utility.yul\":3595:3658   */\n      tag_239\n        /* \"#utility.yul\":3650:3657   */\n      dup14\n        /* \"#utility.yul\":3641:3647   */\n      dup3\n        /* \"#utility.yul\":3630:3639   */\n      dup15\n        /* \"#utility.yul\":3626:3648   */\n      add\n        /* \"#utility.yul\":3595:3658   */\n      tag_200\n      jump\t// in\n    tag_239:\n        /* \"#utility.yul\":3585:3658   */\n      swap6\n      pop\n        /* \"#utility.yul\":3379:3668   */\n      pop\n        /* \"#utility.yul\":3707:3710   */\n      0xc0\n        /* \"#utility.yul\":3734:3787   */\n      tag_240\n        /* \"#utility.yul\":3779:3786   */\n      dup14\n        /* \"#utility.yul\":3770:3776   */\n      dup3\n        /* \"#utility.yul\":3759:3768   */\n      dup15\n        /* \"#utility.yul\":3755:3777   */\n      add\n        /* \"#utility.yul\":3734:3787   */\n      tag_206\n      jump\t// in\n    tag_240:\n        /* \"#utility.yul\":3724:3787   */\n      swap5\n      pop\n        /* \"#utility.yul\":3678:3797   */\n      pop\n        /* \"#utility.yul\":3836:3839   */\n      0xe0\n        /* \"#utility.yul\":3863:3916   */\n      tag_241\n        /* \"#utility.yul\":3908:3915   */\n      dup14\n        /* \"#utility.yul\":3899:3905   */\n      dup3\n        /* \"#utility.yul\":3888:3897   */\n      dup15\n        /* \"#utility.yul\":3884:3906   */\n      add\n        /* \"#utility.yul\":3863:3916   */\n      tag_206\n      jump\t// in\n    tag_241:\n        /* \"#utility.yul\":3853:3916   */\n      swap4\n      pop\n        /* \"#utility.yul\":3807:3926   */\n      pop\n        /* \"#utility.yul\":3965:3968   */\n      0x0100\n        /* \"#utility.yul\":3992:4043   */\n      tag_242\n        /* \"#utility.yul\":4035:4042   */\n      dup14\n        /* \"#utility.yul\":4026:4032   */\n      dup3\n        /* \"#utility.yul\":4015:4024   */\n      dup15\n        /* \"#utility.yul\":4011:4033   */\n      add\n        /* \"#utility.yul\":3992:4043   */\n      tag_214\n      jump\t// in\n    tag_242:\n        /* \"#utility.yul\":3982:4043   */\n      swap3\n      pop\n        /* \"#utility.yul\":3936:4053   */\n      pop\n        /* \"#utility.yul\":4092:4095   */\n      0x0120\n        /* \"#utility.yul\":4119:4171   */\n      tag_243\n        /* \"#utility.yul\":4163:4170   */\n      dup14\n        /* \"#utility.yul\":4154:4160   */\n      dup3\n        /* \"#utility.yul\":4143:4152   */\n      dup15\n        /* \"#utility.yul\":4139:4161   */\n      add\n        /* \"#utility.yul\":4119:4171   */\n      tag_210\n      jump\t// in\n    tag_243:\n        /* \"#utility.yul\":4109:4171   */\n      swap2\n      pop\n        /* \"#utility.yul\":4063:4181   */\n      pop\n        /* \"#utility.yul\":2349:4188   */\n      swap3\n      swap6\n      swap9\n      swap12\n      swap2\n      swap5\n      swap8\n      swap11\n      pop\n      swap3\n      swap6\n      swap9\n      pop\n      jump\t// out\n        /* \"#utility.yul\":4194:5887   */\n    tag_65:\n        /* \"#utility.yul\":4344:4350   */\n      0x00\n        /* \"#utility.yul\":4352:4358   */\n      dup1\n        /* \"#utility.yul\":4360:4366   */\n      0x00\n        /* \"#utility.yul\":4368:4374   */\n      dup1\n        /* \"#utility.yul\":4376:4382   */\n      0x00\n        /* \"#utility.yul\":4384:4390   */\n      dup1\n        /* \"#utility.yul\":4392:4398   */\n      0x00\n        /* \"#utility.yul\":4400:4406   */\n      dup1\n        /* \"#utility.yul\":4408:4414   */\n      0x00\n        /* \"#utility.yul\":4457:4460   */\n      0x0120\n        /* \"#utility.yul\":4445:4454   */\n      dup11\n        /* \"#utility.yul\":4436:4443   */\n      dup13\n        /* \"#utility.yul\":4432:4455   */\n      sub\n        /* \"#utility.yul\":4428:4461   */\n      slt\n        /* \"#utility.yul\":4425:4545   */\n      iszero\n      tag_245\n      jumpi\n        /* \"#utility.yul\":4464:4543   */\n      tag_246\n      tag_221\n      jump\t// in\n    tag_246:\n        /* \"#utility.yul\":4425:4545   */\n    tag_245:\n        /* \"#utility.yul\":4584:4585   */\n      0x00\n        /* \"#utility.yul\":4609:4662   */\n      tag_247\n        /* \"#utility.yul\":4654:4661   */\n      dup13\n        /* \"#utility.yul\":4645:4651   */\n      dup3\n        /* \"#utility.yul\":4634:4643   */\n      dup14\n        /* \"#utility.yul\":4630:4652   */\n      add\n        /* \"#utility.yul\":4609:4662   */\n      tag_192\n      jump\t// in\n    tag_247:\n        /* \"#utility.yul\":4599:4662   */\n      swap10\n      pop\n        /* \"#utility.yul\":4555:4672   */\n      pop\n        /* \"#utility.yul\":4711:4713   */\n      0x20\n        /* \"#utility.yul\":4737:4789   */\n      tag_248\n        /* \"#utility.yul\":4781:4788   */\n      dup13\n        /* \"#utility.yul\":4772:4778   */\n      dup3\n        /* \"#utility.yul\":4761:4770   */\n      dup14\n        /* \"#utility.yul\":4757:4779   */\n      add\n        /* \"#utility.yul\":4737:4789   */\n      tag_210\n      jump\t// in\n    tag_248:\n        /* \"#utility.yul\":4727:4789   */\n      swap9\n      pop\n        /* \"#utility.yul\":4682:4799   */\n      pop\n        /* \"#utility.yul\":4838:4840   */\n      0x40\n        /* \"#utility.yul\":4864:4915   */\n      tag_249\n        /* \"#utility.yul\":4907:4914   */\n      dup13\n        /* \"#utility.yul\":4898:4904   */\n      dup3\n        /* \"#utility.yul\":4887:4896   */\n      dup14\n        /* \"#utility.yul\":4883:4905   */\n      add\n        /* \"#utility.yul\":4864:4915   */\n      tag_214\n      jump\t// in\n    tag_249:\n        /* \"#utility.yul\":4854:4915   */\n      swap8\n      pop\n        /* \"#utility.yul\":4809:4925   */\n      pop\n        /* \"#utility.yul\":4964:4966   */\n      0x60\n        /* \"#utility.yul\":4990:5058   */\n      tag_250\n        /* \"#utility.yul\":5050:5057   */\n      dup13\n        /* \"#utility.yul\":5041:5047   */\n      dup3\n        /* \"#utility.yul\":5030:5039   */\n      dup14\n        /* \"#utility.yul\":5026:5048   */\n      add\n        /* \"#utility.yul\":4990:5058   */\n      tag_196\n      jump\t// in\n    tag_250:\n        /* \"#utility.yul\":4980:5058   */\n      swap7\n      pop\n        /* \"#utility.yul\":4935:5068   */\n      pop\n        /* \"#utility.yul\":5135:5138   */\n      0x80\n        /* \"#utility.yul\":5124:5133   */\n      dup11\n        /* \"#utility.yul\":5120:5139   */\n      add\n        /* \"#utility.yul\":5107:5140   */\n      calldataload\n        /* \"#utility.yul\":5167:5185   */\n      0xffffffffffffffff\n        /* \"#utility.yul\":5159:5165   */\n      dup2\n        /* \"#utility.yul\":5156:5186   */\n      gt\n        /* \"#utility.yul\":5153:5270   */\n      iszero\n      tag_251\n      jumpi\n        /* \"#utility.yul\":5189:5268   */\n      tag_252\n      tag_238\n      jump\t// in\n    tag_252:\n        /* \"#utility.yul\":5153:5270   */\n    tag_251:\n        /* \"#utility.yul\":5294:5357   */\n      tag_253\n        /* \"#utility.yul\":5349:5356   */\n      dup13\n        /* \"#utility.yul\":5340:5346   */\n      dup3\n        /* \"#utility.yul\":5329:5338   */\n      dup14\n        /* \"#utility.yul\":5325:5347   */\n      add\n        /* \"#utility.yul\":5294:5357   */\n      tag_200\n      jump\t// in\n    tag_253:\n        /* \"#utility.yul\":5284:5357   */\n      swap6\n      pop\n        /* \"#utility.yul\":5078:5367   */\n      pop\n        /* \"#utility.yul\":5406:5409   */\n      0xa0\n        /* \"#utility.yul\":5433:5486   */\n      tag_254\n        /* \"#utility.yul\":5478:5485   */\n      dup13\n        /* \"#utility.yul\":5469:5475   */\n      dup3\n        /* \"#utility.yul\":5458:5467   */\n      dup14\n        /* \"#utility.yul\":5454:5476   */\n      add\n        /* \"#utility.yul\":5433:5486   */\n      tag_206\n      jump\t// in\n    tag_254:\n        /* \"#utility.yul\":5423:5486   */\n      swap5\n      pop\n        /* \"#utility.yul\":5377:5496   */\n      pop\n        /* \"#utility.yul\":5535:5538   */\n      0xc0\n        /* \"#utility.yul\":5562:5615   */\n      tag_255\n        /* \"#utility.yul\":5607:5614   */\n      dup13\n        /* \"#utility.yul\":5598:5604   */\n      dup3\n        /* \"#utility.yul\":5587:5596   */\n      dup14\n        /* \"#utility.yul\":5583:5605   */\n      add\n        /* \"#utility.yul\":5562:5615   */\n      tag_206\n      jump\t// in\n    tag_255:\n        /* \"#utility.yul\":5552:5615   */\n      swap4\n      pop\n        /* \"#utility.yul\":5506:5625   */\n      pop\n        /* \"#utility.yul\":5664:5667   */\n      0xe0\n        /* \"#utility.yul\":5691:5742   */\n      tag_256\n        /* \"#utility.yul\":5734:5741   */\n      dup13\n        /* \"#utility.yul\":5725:5731   */\n      dup3\n        /* \"#utility.yul\":5714:5723   */\n      dup14\n        /* \"#utility.yul\":5710:5732   */\n      add\n        /* \"#utility.yul\":5691:5742   */\n      tag_214\n      jump\t// in\n    tag_256:\n        /* \"#utility.yul\":5681:5742   */\n      swap3\n      pop\n        /* \"#utility.yul\":5635:5752   */\n      pop\n        /* \"#utility.yul\":5791:5794   */\n      0x0100\n        /* \"#utility.yul\":5818:5870   */\n      tag_257\n        /* \"#utility.yul\":5862:5869   */\n      dup13\n        /* \"#utility.yul\":5853:5859   */\n      dup3\n        /* \"#utility.yul\":5842:5851   */\n      dup14\n        /* \"#utility.yul\":5838:5860   */\n      add\n        /* \"#utility.yul\":5818:5870   */\n      tag_210\n      jump\t// in\n    tag_257:\n        /* \"#utility.yul\":5808:5870   */\n      swap2\n      pop\n        /* \"#utility.yul\":5762:5880   */\n      pop\n        /* \"#utility.yul\":4194:5887   */\n      swap3\n      swap6\n      swap9\n      pop\n      swap3\n      swap6\n      swap9\n      pop\n      swap3\n      swap6\n      swap9\n      jump\t// out\n        /* \"#utility.yul\":5893:6220   */\n    tag_59:\n        /* \"#utility.yul\":5951:5957   */\n      0x00\n        /* \"#utility.yul\":6000:6002   */\n      0x20\n        /* \"#utility.yul\":5988:5997   */\n      dup3\n        /* \"#utility.yul\":5979:5986   */\n      dup5\n        /* \"#utility.yul\":5975:5998   */\n      sub\n        /* \"#utility.yul\":5971:6003   */\n      slt\n        /* \"#utility.yul\":5968:6087   */\n      iszero\n      tag_259\n      jumpi\n        /* \"#utility.yul\":6006:6085   */\n      tag_260\n      tag_221\n      jump\t// in\n    tag_260:\n        /* \"#utility.yul\":5968:6087   */\n    tag_259:\n        /* \"#utility.yul\":6126:6127   */\n      0x00\n        /* \"#utility.yul\":6151:6203   */\n      tag_261\n        /* \"#utility.yul\":6195:6202   */\n      dup5\n        /* \"#utility.yul\":6186:6192   */\n      dup3\n        /* \"#utility.yul\":6175:6184   */\n      dup6\n        /* \"#utility.yul\":6171:6193   */\n      add\n        /* \"#utility.yul\":6151:6203   */\n      tag_210\n      jump\t// in\n    tag_261:\n        /* \"#utility.yul\":6141:6203   */\n      swap2\n      pop\n        /* \"#utility.yul\":6097:6213   */\n      pop\n        /* \"#utility.yul\":5893:6220   */\n      swap3\n      swap2\n      pop\n      pop\n      jump\t// out\n        /* \"#utility.yul\":6226:6334   */\n    tag_262:\n        /* \"#utility.yul\":6303:6327   */\n      tag_264\n        /* \"#utility.yul\":6321:6326   */\n      dup2\n        /* \"#utility.yul\":6303:6327   */\n      tag_265\n      jump\t// in\n    tag_264:\n        /* \"#utility.yul\":6298:6301   */\n      dup3\n        /* \"#utility.yul\":6291:6328   */\n      mstore\n        /* \"#utility.yul\":6226:6334   */\n      pop\n      pop\n      jump\t// out\n        /* \"#utility.yul\":6340:6458   */\n    tag_266:\n        /* \"#utility.yul\":6427:6451   */\n      tag_268\n        /* \"#utility.yul\":6445:6450   */\n      dup2\n        /* \"#utility.yul\":6427:6451   */\n      tag_265\n      jump\t// in\n    tag_268:\n        /* \"#utility.yul\":6422:6425   */\n      dup3\n        /* \"#utility.yul\":6415:6452   */\n      mstore\n        /* \"#utility.yul\":6340:6458   */\n      pop\n      pop\n      jump\t// out\n        /* \"#utility.yul\":6464:6573   */\n    tag_269:\n        /* \"#utility.yul\":6545:6566   */\n      tag_271\n        /* \"#utility.yul\":6560:6565   */\n      dup2\n        /* \"#utility.yul\":6545:6566   */\n      tag_272\n      jump\t// in\n    tag_271:\n        /* \"#utility.yul\":6540:6543   */\n      dup3\n        /* \"#utility.yul\":6533:6567   */\n      mstore\n        /* \"#utility.yul\":6464:6573   */\n      pop\n      pop\n      jump\t// out\n        /* \"#utility.yul\":6579:6736   */\n    tag_273:\n        /* \"#utility.yul\":6679:6729   */\n      tag_275\n        /* \"#utility.yul\":6723:6728   */\n      dup2\n        /* \"#utility.yul\":6679:6729   */\n      tag_276\n      jump\t// in\n    tag_275:\n        /* \"#utility.yul\":6674:6677   */\n      dup3\n        /* \"#utility.yul\":6667:6730   */\n      mstore\n        /* \"#utility.yul\":6579:6736   */\n      pop\n      pop\n      jump\t// out\n        /* \"#utility.yul\":6742:6883   */\n    tag_277:\n        /* \"#utility.yul\":6829:6876   */\n      tag_279\n        /* \"#utility.yul\":6870:6875   */\n      dup2\n        /* \"#utility.yul\":6829:6876   */\n      tag_280\n      jump\t// in\n    tag_279:\n        /* \"#utility.yul\":6824:6827   */\n      dup3\n        /* \"#utility.yul\":6817:6877   */\n      mstore\n        /* \"#utility.yul\":6742:6883   */\n      pop\n      pop\n      jump\t// out\n        /* \"#utility.yul\":6889:7032   */\n    tag_281:\n        /* \"#utility.yul\":6982:7025   */\n      tag_283\n        /* \"#utility.yul\":7019:7024   */\n      dup2\n        /* \"#utility.yul\":6982:7025   */\n      tag_284\n      jump\t// in\n    tag_283:\n        /* \"#utility.yul\":6977:6980   */\n      dup3\n        /* \"#utility.yul\":6970:7026   */\n      mstore\n        /* \"#utility.yul\":6889:7032   */\n      pop\n      pop\n      jump\t// out\n        /* \"#utility.yul\":7038:7402   */\n    tag_285:\n        /* \"#utility.yul\":7126:7129   */\n      0x00\n        /* \"#utility.yul\":7154:7193   */\n      tag_287\n        /* \"#utility.yul\":7187:7192   */\n      dup3\n        /* \"#utility.yul\":7154:7193   */\n      tag_288\n      jump\t// in\n    tag_287:\n        /* \"#utility.yul\":7209:7280   */\n      tag_289\n        /* \"#utility.yul\":7273:7279   */\n      dup2\n        /* \"#utility.yul\":7268:7271   */\n      dup6\n        /* \"#utility.yul\":7209:7280   */\n      tag_290\n      jump\t// in\n    tag_289:\n        /* \"#utility.yul\":7202:7280   */\n      swap4\n      pop\n        /* \"#utility.yul\":7289:7341   */\n      tag_291\n        /* \"#utility.yul\":7334:7340   */\n      dup2\n        /* \"#utility.yul\":7329:7332   */\n      dup6\n        /* \"#utility.yul\":7322:7326   */\n      0x20\n        /* \"#utility.yul\":7315:7320   */\n      dup7\n        /* \"#utility.yul\":7311:7327   */\n      add\n        /* \"#utility.yul\":7289:7341   */\n      tag_292\n      jump\t// in\n    tag_291:\n        /* \"#utility.yul\":7366:7395   */\n      tag_293\n        /* \"#utility.yul\":7388:7394   */\n      dup2\n        /* \"#utility.yul\":7366:7395   */\n      tag_294\n      jump\t// in\n    tag_293:\n        /* \"#utility.yul\":7361:7364   */\n      dup5\n        /* \"#utility.yul\":7357:7396   */\n      add\n        /* \"#utility.yul\":7350:7396   */\n      swap2\n      pop\n        /* \"#utility.yul\":7130:7402   */\n      pop\n        /* \"#utility.yul\":7038:7402   */\n      swap3\n      swap2\n      pop\n      pop\n      jump\t// out\n        /* \"#utility.yul\":7408:7774   */\n    tag_295:\n        /* \"#utility.yul\":7550:7553   */\n      0x00\n        /* \"#utility.yul\":7571:7638   */\n      tag_297\n        /* \"#utility.yul\":7635:7637   */\n      0x12\n        /* \"#utility.yul\":7630:7633   */\n      dup4\n        /* \"#utility.yul\":7571:7638   */\n      tag_290\n      jump\t// in\n    tag_297:\n        /* \"#utility.yul\":7564:7638   */\n      swap2\n      pop\n        /* \"#utility.yul\":7647:7740   */\n      tag_298\n        /* \"#utility.yul\":7736:7739   */\n      dup3\n        /* \"#utility.yul\":7647:7740   */\n      tag_299\n      jump\t// in\n    tag_298:\n        /* \"#utility.yul\":7765:7767   */\n      0x20\n        /* \"#utility.yul\":7760:7763   */\n      dup3\n        /* \"#utility.yul\":7756:7768   */\n      add\n        /* \"#utility.yul\":7749:7768   */\n      swap1\n      pop\n        /* \"#utility.yul\":7408:7774   */\n      swap2\n      swap1\n      pop\n      jump\t// out\n        /* \"#utility.yul\":7780:8146   */\n    tag_300:\n        /* \"#utility.yul\":7922:7925   */\n      0x00\n        /* \"#utility.yul\":7943:8010   */\n      tag_302\n        /* \"#utility.yul\":8007:8009   */\n      0x20\n        /* \"#utility.yul\":8002:8005   */\n      dup4\n        /* \"#utility.yul\":7943:8010   */\n      tag_290\n      jump\t// in\n    tag_302:\n        /* \"#utility.yul\":7936:8010   */\n      swap2\n      pop\n        /* \"#utility.yul\":8019:8112   */\n      tag_303\n        /* \"#utility.yul\":8108:8111   */\n      dup3\n        /* \"#utility.yul\":8019:8112   */\n      tag_304\n      jump\t// in\n    tag_303:\n        /* \"#utility.yul\":8137:8139   */\n      0x20\n        /* \"#utility.yul\":8132:8135   */\n      dup3\n        /* \"#utility.yul\":8128:8140   */\n      add\n        /* \"#utility.yul\":8121:8140   */\n      swap1\n      pop\n        /* \"#utility.yul\":7780:8146   */\n      swap2\n      swap1\n      pop\n      jump\t// out\n        /* \"#utility.yul\":8212:8896   */\n    tag_305:\n        /* \"#utility.yul\":8349:8353   */\n      0x60\n        /* \"#utility.yul\":8344:8347   */\n      dup3\n        /* \"#utility.yul\":8340:8354   */\n      add\n        /* \"#utility.yul\":8437:8441   */\n      0x00\n        /* \"#utility.yul\":8430:8435   */\n      dup3\n        /* \"#utility.yul\":8426:8442   */\n      add\n        /* \"#utility.yul\":8420:8443   */\n      mload\n        /* \"#utility.yul\":8456:8519   */\n      tag_307\n        /* \"#utility.yul\":8513:8517   */\n      0x00\n        /* \"#utility.yul\":8508:8511   */\n      dup6\n        /* \"#utility.yul\":8504:8518   */\n      add\n        /* \"#utility.yul\":8490:8502   */\n      dup3\n        /* \"#utility.yul\":8456:8519   */\n      tag_308\n      jump\t// in\n    tag_307:\n        /* \"#utility.yul\":8364:8529   */\n      pop\n        /* \"#utility.yul\":8612:8616   */\n      0x20\n        /* \"#utility.yul\":8605:8610   */\n      dup3\n        /* \"#utility.yul\":8601:8617   */\n      add\n        /* \"#utility.yul\":8595:8618   */\n      mload\n        /* \"#utility.yul\":8631:8694   */\n      tag_309\n        /* \"#utility.yul\":8688:8692   */\n      0x20\n        /* \"#utility.yul\":8683:8686   */\n      dup6\n        /* \"#utility.yul\":8679:8693   */\n      add\n        /* \"#utility.yul\":8665:8677   */\n      dup3\n        /* \"#utility.yul\":8631:8694   */\n      tag_262\n      jump\t// in\n    tag_309:\n        /* \"#utility.yul\":8539:8704   */\n      pop\n        /* \"#utility.yul\":8787:8791   */\n      0x40\n        /* \"#utility.yul\":8780:8785   */\n      dup3\n        /* \"#utility.yul\":8776:8792   */\n      add\n        /* \"#utility.yul\":8770:8793   */\n      mload\n        /* \"#utility.yul\":8806:8879   */\n      tag_310\n        /* \"#utility.yul\":8873:8877   */\n      0x40\n        /* \"#utility.yul\":8868:8871   */\n      dup6\n        /* \"#utility.yul\":8864:8878   */\n      add\n        /* \"#utility.yul\":8850:8862   */\n      dup3\n        /* \"#utility.yul\":8806:8879   */\n      tag_277\n      jump\t// in\n    tag_310:\n        /* \"#utility.yul\":8714:8889   */\n      pop\n        /* \"#utility.yul\":8318:8896   */\n      pop\n        /* \"#utility.yul\":8212:8896   */\n      pop\n      pop\n      jump\t// out\n        /* \"#utility.yul\":8902:9017   */\n    tag_311:\n        /* \"#utility.yul\":8987:9010   */\n      tag_313\n        /* \"#utility.yul\":9004:9009   */\n      dup2\n        /* \"#utility.yul\":8987:9010   */\n      tag_314\n      jump\t// in\n    tag_313:\n        /* \"#utility.yul\":8982:8985   */\n      dup3\n        /* \"#utility.yul\":8975:9011   */\n      mstore\n        /* \"#utility.yul\":8902:9017   */\n      pop\n      pop\n      jump\t// out\n        /* \"#utility.yul\":9023:9131   */\n    tag_308:\n        /* \"#utility.yul\":9100:9124   */\n      tag_316\n        /* \"#utility.yul\":9118:9123   */\n      dup2\n        /* \"#utility.yul\":9100:9124   */\n      tag_317\n      jump\t// in\n    tag_316:\n        /* \"#utility.yul\":9095:9098   */\n      dup3\n        /* \"#utility.yul\":9088:9125   */\n      mstore\n        /* \"#utility.yul\":9023:9131   */\n      pop\n      pop\n      jump\t// out\n        /* \"#utility.yul\":9137:9255   */\n    tag_318:\n        /* \"#utility.yul\":9224:9248   */\n      tag_320\n        /* \"#utility.yul\":9242:9247   */\n      dup2\n        /* \"#utility.yul\":9224:9248   */\n      tag_317\n      jump\t// in\n    tag_320:\n        /* \"#utility.yul\":9219:9222   */\n      dup3\n        /* \"#utility.yul\":9212:9249   */\n      mstore\n        /* \"#utility.yul\":9137:9255   */\n      pop\n      pop\n      jump\t// out\n        /* \"#utility.yul\":9261:9390   */\n    tag_321:\n        /* \"#utility.yul\":9347:9383   */\n      tag_323\n        /* \"#utility.yul\":9377:9382   */\n      dup2\n        /* \"#utility.yul\":9347:9383   */\n      tag_324\n      jump\t// in\n    tag_323:\n        /* \"#utility.yul\":9342:9345   */\n      dup3\n        /* \"#utility.yul\":9335:9384   */\n      mstore\n        /* \"#utility.yul\":9261:9390   */\n      pop\n      pop\n      jump\t// out\n        /* \"#utility.yul\":9396:9511   */\n    tag_325:\n        /* \"#utility.yul\":9481:9504   */\n      tag_327\n        /* \"#utility.yul\":9498:9503   */\n      dup2\n        /* \"#utility.yul\":9481:9504   */\n      tag_328\n      jump\t// in\n    tag_327:\n        /* \"#utility.yul\":9476:9479   */\n      dup3\n        /* \"#utility.yul\":9469:9505   */\n      mstore\n        /* \"#utility.yul\":9396:9511   */\n      pop\n      pop\n      jump\t// out\n        /* \"#utility.yul\":9517:9644   */\n    tag_329:\n        /* \"#utility.yul\":9602:9637   */\n      tag_331\n        /* \"#utility.yul\":9631:9636   */\n      dup2\n        /* \"#utility.yul\":9602:9637   */\n      tag_332\n      jump\t// in\n    tag_331:\n        /* \"#utility.yul\":9597:9600   */\n      dup3\n        /* \"#utility.yul\":9590:9638   */\n      mstore\n        /* \"#utility.yul\":9517:9644   */\n      pop\n      pop\n      jump\t// out\n        /* \"#utility.yul\":9650:9762   */\n    tag_333:\n        /* \"#utility.yul\":9733:9755   */\n      tag_335\n        /* \"#utility.yul\":9749:9754   */\n      dup2\n        /* \"#utility.yul\":9733:9755   */\n      tag_336\n      jump\t// in\n    tag_335:\n        /* \"#utility.yul\":9728:9731   */\n      dup3\n        /* \"#utility.yul\":9721:9756   */\n      mstore\n        /* \"#utility.yul\":9650:9762   */\n      pop\n      pop\n      jump\t// out\n        /* \"#utility.yul\":9768:10307   */\n    tag_128:\n        /* \"#utility.yul\":9938:9942   */\n      0x00\n        /* \"#utility.yul\":9976:9979   */\n      0x80\n        /* \"#utility.yul\":9965:9974   */\n      dup3\n        /* \"#utility.yul\":9961:9980   */\n      add\n        /* \"#utility.yul\":9953:9980   */\n      swap1\n      pop\n        /* \"#utility.yul\":9990:10061   */\n      tag_338\n        /* \"#utility.yul\":10058:10059   */\n      0x00\n        /* \"#utility.yul\":10047:10056   */\n      dup4\n        /* \"#utility.yul\":10043:10060   */\n      add\n        /* \"#utility.yul\":10034:10040   */\n      dup8\n        /* \"#utility.yul\":9990:10061   */\n      tag_266\n      jump\t// in\n    tag_338:\n        /* \"#utility.yul\":10071:10139   */\n      tag_339\n        /* \"#utility.yul\":10135:10137   */\n      0x20\n        /* \"#utility.yul\":10124:10133   */\n      dup4\n        /* \"#utility.yul\":10120:10138   */\n      add\n        /* \"#utility.yul\":10111:10117   */\n      dup7\n        /* \"#utility.yul\":10071:10139   */\n      tag_333\n      jump\t// in\n    tag_339:\n        /* \"#utility.yul\":10149:10220   */\n      tag_340\n        /* \"#utility.yul\":10216:10218   */\n      0x40\n        /* \"#utility.yul\":10205:10214   */\n      dup4\n        /* \"#utility.yul\":10201:10219   */\n      add\n        /* \"#utility.yul\":10192:10198   */\n      dup6\n        /* \"#utility.yul\":10149:10220   */\n      tag_321\n      jump\t// in\n    tag_340:\n        /* \"#utility.yul\":10230:10300   */\n      tag_341\n        /* \"#utility.yul\":10296:10298   */\n      0x60\n        /* \"#utility.yul\":10285:10294   */\n      dup4\n        /* \"#utility.yul\":10281:10299   */\n      add\n        /* \"#utility.yul\":10272:10278   */\n      dup5\n        /* \"#utility.yul\":10230:10300   */\n      tag_329\n      jump\t// in\n    tag_341:\n        /* \"#utility.yul\":9768:10307   */\n      swap6\n      swap5\n      pop\n      pop\n      pop\n      pop\n      pop\n      jump\t// out\n        /* \"#utility.yul\":10313:10523   */\n    tag_79:\n        /* \"#utility.yul\":10400:10404   */\n      0x00\n        /* \"#utility.yul\":10438:10440   */\n      0x20\n        /* \"#utility.yul\":10427:10436   */\n      dup3\n        /* \"#utility.yul\":10423:10441   */\n      add\n        /* \"#utility.yul\":10415:10441   */\n      swap1\n      pop\n        /* \"#utility.yul\":10451:10516   */\n      tag_343\n        /* \"#utility.yul\":10513:10514   */\n      0x00\n        /* \"#utility.yul\":10502:10511   */\n      dup4\n        /* \"#utility.yul\":10498:10515   */\n      add\n        /* \"#utility.yul\":10489:10495   */\n      dup5\n        /* \"#utility.yul\":10451:10516   */\n      tag_269\n      jump\t// in\n    tag_343:\n        /* \"#utility.yul\":10313:10523   */\n      swap3\n      swap2\n      pop\n      pop\n      jump\t// out\n        /* \"#utility.yul\":10529:11482   */\n    tag_74:\n        /* \"#utility.yul\":10800:10804   */\n      0x00\n        /* \"#utility.yul\":10838:10841   */\n      0xc0\n        /* \"#utility.yul\":10827:10836   */\n      dup3\n        /* \"#utility.yul\":10823:10842   */\n      add\n        /* \"#utility.yul\":10815:10842   */\n      swap1\n      pop\n        /* \"#utility.yul\":10852:10917   */\n      tag_345\n        /* \"#utility.yul\":10914:10915   */\n      0x00\n        /* \"#utility.yul\":10903:10912   */\n      dup4\n        /* \"#utility.yul\":10899:10916   */\n      add\n        /* \"#utility.yul\":10890:10896   */\n      dup10\n        /* \"#utility.yul\":10852:10917   */\n      tag_269\n      jump\t// in\n    tag_345:\n        /* \"#utility.yul\":10927:10999   */\n      tag_346\n        /* \"#utility.yul\":10995:10997   */\n      0x20\n        /* \"#utility.yul\":10984:10993   */\n      dup4\n        /* \"#utility.yul\":10980:10998   */\n      add\n        /* \"#utility.yul\":10971:10977   */\n      dup9\n        /* \"#utility.yul\":10927:10999   */\n      tag_266\n      jump\t// in\n    tag_346:\n        /* \"#utility.yul\":11009:11079   */\n      tag_347\n        /* \"#utility.yul\":11075:11077   */\n      0x40\n        /* \"#utility.yul\":11064:11073   */\n      dup4\n        /* \"#utility.yul\":11060:11078   */\n      add\n        /* \"#utility.yul\":11051:11057   */\n      dup8\n        /* \"#utility.yul\":11009:11079   */\n      tag_311\n      jump\t// in\n    tag_347:\n        /* \"#utility.yul\":11089:11167   */\n      tag_348\n        /* \"#utility.yul\":11163:11165   */\n      0x60\n        /* \"#utility.yul\":11152:11161   */\n      dup4\n        /* \"#utility.yul\":11148:11166   */\n      add\n        /* \"#utility.yul\":11139:11145   */\n      dup7\n        /* \"#utility.yul\":11089:11167   */\n      tag_281\n      jump\t// in\n    tag_348:\n        /* \"#utility.yul\":11215:11224   */\n      dup2\n        /* \"#utility.yul\":11209:11213   */\n      dup2\n        /* \"#utility.yul\":11205:11225   */\n      sub\n        /* \"#utility.yul\":11199:11202   */\n      0x80\n        /* \"#utility.yul\":11188:11197   */\n      dup4\n        /* \"#utility.yul\":11184:11203   */\n      add\n        /* \"#utility.yul\":11177:11226   */\n      mstore\n        /* \"#utility.yul\":11243:11321   */\n      tag_349\n        /* \"#utility.yul\":11316:11320   */\n      dup2\n        /* \"#utility.yul\":11307:11313   */\n      dup6\n        /* \"#utility.yul\":11243:11321   */\n      tag_285\n      jump\t// in\n    tag_349:\n        /* \"#utility.yul\":11235:11321   */\n      swap1\n      pop\n        /* \"#utility.yul\":11369:11378   */\n      dup2\n        /* \"#utility.yul\":11363:11367   */\n      dup2\n        /* \"#utility.yul\":11359:11379   */\n      sub\n        /* \"#utility.yul\":11353:11356   */\n      0xa0\n        /* \"#utility.yul\":11342:11351   */\n      dup4\n        /* \"#utility.yul\":11338:11357   */\n      add\n        /* \"#utility.yul\":11331:11380   */\n      mstore\n        /* \"#utility.yul\":11397:11475   */\n      tag_350\n        /* \"#utility.yul\":11470:11474   */\n      dup2\n        /* \"#utility.yul\":11461:11467   */\n      dup5\n        /* \"#utility.yul\":11397:11475   */\n      tag_285\n      jump\t// in\n    tag_350:\n        /* \"#utility.yul\":11389:11475   */\n      swap1\n      pop\n        /* \"#utility.yul\":10529:11482   */\n      swap8\n      swap7\n      pop\n      pop\n      pop\n      pop\n      pop\n      pop\n      pop\n      jump\t// out\n        /* \"#utility.yul\":11488:12001   */\n    tag_29:\n        /* \"#utility.yul\":11647:11651   */\n      0x00\n        /* \"#utility.yul\":11685:11687   */\n      0x60\n        /* \"#utility.yul\":11674:11683   */\n      dup3\n        /* \"#utility.yul\":11670:11688   */\n      add\n        /* \"#utility.yul\":11662:11688   */\n      swap1\n      pop\n        /* \"#utility.yul\":11698:11763   */\n      tag_352\n        /* \"#utility.yul\":11760:11761   */\n      0x00\n        /* \"#utility.yul\":11749:11758   */\n      dup4\n        /* \"#utility.yul\":11745:11762   */\n      add\n        /* \"#utility.yul\":11736:11742   */\n      dup7\n        /* \"#utility.yul\":11698:11763   */\n      tag_269\n      jump\t// in\n    tag_352:\n        /* \"#utility.yul\":11810:11819   */\n      dup2\n        /* \"#utility.yul\":11804:11808   */\n      dup2\n        /* \"#utility.yul\":11800:11820   */\n      sub\n        /* \"#utility.yul\":11795:11797   */\n      0x20\n        /* \"#utility.yul\":11784:11793   */\n      dup4\n        /* \"#utility.yul\":11780:11798   */\n      add\n        /* \"#utility.yul\":11773:11821   */\n      mstore\n        /* \"#utility.yul\":11838:11916   */\n      tag_353\n        /* \"#utility.yul\":11911:11915   */\n      dup2\n        /* \"#utility.yul\":11902:11908   */\n      dup6\n        /* \"#utility.yul\":11838:11916   */\n      tag_285\n      jump\t// in\n    tag_353:\n        /* \"#utility.yul\":11830:11916   */\n      swap1\n      pop\n        /* \"#utility.yul\":11926:11994   */\n      tag_354\n        /* \"#utility.yul\":11990:11992   */\n      0x40\n        /* \"#utility.yul\":11979:11988   */\n      dup4\n        /* \"#utility.yul\":11975:11993   */\n      add\n        /* \"#utility.yul\":11966:11972   */\n      dup5\n        /* \"#utility.yul\":11926:11994   */\n      tag_333\n      jump\t// in\n    tag_354:\n        /* \"#utility.yul\":11488:12001   */\n      swap5\n      swap4\n      pop\n      pop\n      pop\n      pop\n      jump\t// out\n        /* \"#utility.yul\":12007:12631   */\n    tag_42:\n        /* \"#utility.yul\":12194:12198   */\n      0x00\n        /* \"#utility.yul\":12232:12235   */\n      0x80\n        /* \"#utility.yul\":12221:12230   */\n      dup3\n        /* \"#utility.yul\":12217:12236   */\n      add\n        /* \"#utility.yul\":12209:12236   */\n      swap1\n      pop\n        /* \"#utility.yul\":12246:12311   */\n      tag_356\n        /* \"#utility.yul\":12308:12309   */\n      0x00\n        /* \"#utility.yul\":12297:12306   */\n      dup4\n        /* \"#utility.yul\":12293:12310   */\n      add\n        /* \"#utility.yul\":12284:12290   */\n      dup8\n        /* \"#utility.yul\":12246:12311   */\n      tag_269\n      jump\t// in\n    tag_356:\n        /* \"#utility.yul\":12321:12389   */\n      tag_357\n        /* \"#utility.yul\":12385:12387   */\n      0x20\n        /* \"#utility.yul\":12374:12383   */\n      dup4\n        /* \"#utility.yul\":12370:12388   */\n      add\n        /* \"#utility.yul\":12361:12367   */\n      dup7\n        /* \"#utility.yul\":12321:12389   */\n      tag_333\n      jump\t// in\n    tag_357:\n        /* \"#utility.yul\":12399:12471   */\n      tag_358\n        /* \"#utility.yul\":12467:12469   */\n      0x40\n        /* \"#utility.yul\":12456:12465   */\n      dup4\n        /* \"#utility.yul\":12452:12470   */\n      add\n        /* \"#utility.yul\":12443:12449   */\n      dup6\n        /* \"#utility.yul\":12399:12471   */\n      tag_318\n      jump\t// in\n    tag_358:\n        /* \"#utility.yul\":12518:12527   */\n      dup2\n        /* \"#utility.yul\":12512:12516   */\n      dup2\n        /* \"#utility.yul\":12508:12528   */\n      sub\n        /* \"#utility.yul\":12503:12505   */\n      0x60\n        /* \"#utility.yul\":12492:12501   */\n      dup4\n        /* \"#utility.yul\":12488:12506   */\n      add\n        /* \"#utility.yul\":12481:12529   */\n      mstore\n        /* \"#utility.yul\":12546:12624   */\n      tag_359\n        /* \"#utility.yul\":12619:12623   */\n      dup2\n        /* \"#utility.yul\":12610:12616   */\n      dup5\n        /* \"#utility.yul\":12546:12624   */\n      tag_285\n      jump\t// in\n    tag_359:\n        /* \"#utility.yul\":12538:12624   */\n      swap1\n      pop\n        /* \"#utility.yul\":12007:12631   */\n      swap6\n      swap5\n      pop\n      pop\n      pop\n      pop\n      pop\n      jump\t// out\n        /* \"#utility.yul\":12637:13056   */\n    tag_120:\n        /* \"#utility.yul\":12803:12807   */\n      0x00\n        /* \"#utility.yul\":12841:12843   */\n      0x20\n        /* \"#utility.yul\":12830:12839   */\n      dup3\n        /* \"#utility.yul\":12826:12844   */\n      add\n        /* \"#utility.yul\":12818:12844   */\n      swap1\n      pop\n        /* \"#utility.yul\":12890:12899   */\n      dup2\n        /* \"#utility.yul\":12884:12888   */\n      dup2\n        /* \"#utility.yul\":12880:12900   */\n      sub\n        /* \"#utility.yul\":12876:12877   */\n      0x00\n        /* \"#utility.yul\":12865:12874   */\n      dup4\n        /* \"#utility.yul\":12861:12878   */\n      add\n        /* \"#utility.yul\":12854:12901   */\n      mstore\n        /* \"#utility.yul\":12918:13049   */\n      tag_361\n        /* \"#utility.yul\":13044:13048   */\n      dup2\n        /* \"#utility.yul\":12918:13049   */\n      tag_295\n      jump\t// in\n    tag_361:\n        /* \"#utility.yul\":12910:13049   */\n      swap1\n      pop\n        /* \"#utility.yul\":12637:13056   */\n      swap2\n      swap1\n      pop\n      jump\t// out\n        /* \"#utility.yul\":13062:13481   */\n    tag_116:\n        /* \"#utility.yul\":13228:13232   */\n      0x00\n        /* \"#utility.yul\":13266:13268   */\n      0x20\n        /* \"#utility.yul\":13255:13264   */\n      dup3\n        /* \"#utility.yul\":13251:13269   */\n      add\n        /* \"#utility.yul\":13243:13269   */\n      swap1\n      pop\n        /* \"#utility.yul\":13315:13324   */\n      dup2\n        /* \"#utility.yul\":13309:13313   */\n      dup2\n        /* \"#utility.yul\":13305:13325   */\n      sub\n        /* \"#utility.yul\":13301:13302   */\n      0x00\n        /* \"#utility.yul\":13290:13299   */\n      dup4\n        /* \"#utility.yul\":13286:13303   */\n      add\n        /* \"#utility.yul\":13279:13326   */\n      mstore\n        /* \"#utility.yul\":13343:13474   */\n      tag_363\n        /* \"#utility.yul\":13469:13473   */\n      dup2\n        /* \"#utility.yul\":13343:13474   */\n      tag_300\n      jump\t// in\n    tag_363:\n        /* \"#utility.yul\":13335:13474   */\n      swap1\n      pop\n        /* \"#utility.yul\":13062:13481   */\n      swap2\n      swap1\n      pop\n      jump\t// out\n        /* \"#utility.yul\":13487:13709   */\n    tag_48:\n        /* \"#utility.yul\":13580:13584   */\n      0x00\n        /* \"#utility.yul\":13618:13620   */\n      0x20\n        /* \"#utility.yul\":13607:13616   */\n      dup3\n        /* \"#utility.yul\":13603:13621   */\n      add\n        /* \"#utility.yul\":13595:13621   */\n      swap1\n      pop\n        /* \"#utility.yul\":13631:13702   */\n      tag_365\n        /* \"#utility.yul\":13699:13700   */\n      0x00\n        /* \"#utility.yul\":13688:13697   */\n      dup4\n        /* \"#utility.yul\":13684:13701   */\n      add\n        /* \"#utility.yul\":13675:13681   */\n      dup5\n        /* \"#utility.yul\":13631:13702   */\n      tag_318\n      jump\t// in\n    tag_365:\n        /* \"#utility.yul\":13487:13709   */\n      swap3\n      swap2\n      pop\n      pop\n      jump\t// out\n        /* \"#utility.yul\":13715:15220   */\n    tag_23:\n        /* \"#utility.yul\":14150:14154   */\n      0x00\n        /* \"#utility.yul\":14188:14191   */\n      0x01a0\n        /* \"#utility.yul\":14177:14186   */\n      dup3\n        /* \"#utility.yul\":14173:14192   */\n      add\n        /* \"#utility.yul\":14165:14192   */\n      swap1\n      pop\n        /* \"#utility.yul\":14202:14273   */\n      tag_367\n        /* \"#utility.yul\":14270:14271   */\n      0x00\n        /* \"#utility.yul\":14259:14268   */\n      dup4\n        /* \"#utility.yul\":14255:14272   */\n      add\n        /* \"#utility.yul\":14246:14252   */\n      dup15\n        /* \"#utility.yul\":14202:14273   */\n      tag_318\n      jump\t// in\n    tag_367:\n        /* \"#utility.yul\":14283:14355   */\n      tag_368\n        /* \"#utility.yul\":14351:14353   */\n      0x20\n        /* \"#utility.yul\":14340:14349   */\n      dup4\n        /* \"#utility.yul\":14336:14354   */\n      add\n        /* \"#utility.yul\":14327:14333   */\n      dup14\n        /* \"#utility.yul\":14283:14355   */\n      tag_266\n      jump\t// in\n    tag_368:\n        /* \"#utility.yul\":14365:14435   */\n      tag_369\n        /* \"#utility.yul\":14431:14433   */\n      0x40\n        /* \"#utility.yul\":14420:14429   */\n      dup4\n        /* \"#utility.yul\":14416:14434   */\n      add\n        /* \"#utility.yul\":14407:14413   */\n      dup13\n        /* \"#utility.yul\":14365:14435   */\n      tag_325\n      jump\t// in\n    tag_369:\n        /* \"#utility.yul\":14445:14513   */\n      tag_370\n        /* \"#utility.yul\":14509:14511   */\n      0x60\n        /* \"#utility.yul\":14498:14507   */\n      dup4\n        /* \"#utility.yul\":14494:14512   */\n      add\n        /* \"#utility.yul\":14485:14491   */\n      dup12\n        /* \"#utility.yul\":14445:14513   */\n      tag_333\n      jump\t// in\n    tag_370:\n        /* \"#utility.yul\":14523:14609   */\n      tag_371\n        /* \"#utility.yul\":14604:14607   */\n      0x80\n        /* \"#utility.yul\":14593:14602   */\n      dup4\n        /* \"#utility.yul\":14589:14608   */\n      add\n        /* \"#utility.yul\":14580:14586   */\n      dup11\n        /* \"#utility.yul\":14523:14609   */\n      tag_273\n      jump\t// in\n    tag_371:\n        /* \"#utility.yul\":14657:14666   */\n      dup2\n        /* \"#utility.yul\":14651:14655   */\n      dup2\n        /* \"#utility.yul\":14647:14667   */\n      sub\n        /* \"#utility.yul\":14641:14644   */\n      0xa0\n        /* \"#utility.yul\":14630:14639   */\n      dup4\n        /* \"#utility.yul\":14626:14645   */\n      add\n        /* \"#utility.yul\":14619:14668   */\n      mstore\n        /* \"#utility.yul\":14685:14763   */\n      tag_372\n        /* \"#utility.yul\":14758:14762   */\n      dup2\n        /* \"#utility.yul\":14749:14755   */\n      dup10\n        /* \"#utility.yul\":14685:14763   */\n      tag_285\n      jump\t// in\n    tag_372:\n        /* \"#utility.yul\":14677:14763   */\n      swap1\n      pop\n        /* \"#utility.yul\":14773:14846   */\n      tag_373\n        /* \"#utility.yul\":14841:14844   */\n      0xc0\n        /* \"#utility.yul\":14830:14839   */\n      dup4\n        /* \"#utility.yul\":14826:14845   */\n      add\n        /* \"#utility.yul\":14817:14823   */\n      dup9\n        /* \"#utility.yul\":14773:14846   */\n      tag_318\n      jump\t// in\n    tag_373:\n        /* \"#utility.yul\":14856:14929   */\n      tag_374\n        /* \"#utility.yul\":14924:14927   */\n      0xe0\n        /* \"#utility.yul\":14913:14922   */\n      dup4\n        /* \"#utility.yul\":14909:14928   */\n      add\n        /* \"#utility.yul\":14900:14906   */\n      dup8\n        /* \"#utility.yul\":14856:14929   */\n      tag_318\n      jump\t// in\n    tag_374:\n        /* \"#utility.yul\":14939:15008   */\n      tag_375\n        /* \"#utility.yul\":15003:15006   */\n      0x0100\n        /* \"#utility.yul\":14992:15001   */\n      dup4\n        /* \"#utility.yul\":14988:15007   */\n      add\n        /* \"#utility.yul\":14979:14985   */\n      dup7\n        /* \"#utility.yul\":14939:15008   */\n      tag_333\n      jump\t// in\n    tag_375:\n        /* \"#utility.yul\":15018:15089   */\n      tag_376\n        /* \"#utility.yul\":15084:15087   */\n      0x0120\n        /* \"#utility.yul\":15073:15082   */\n      dup4\n        /* \"#utility.yul\":15069:15088   */\n      add\n        /* \"#utility.yul\":15060:15066   */\n      dup6\n        /* \"#utility.yul\":15018:15089   */\n      tag_325\n      jump\t// in\n    tag_376:\n        /* \"#utility.yul\":15099:15213   */\n      tag_377\n        /* \"#utility.yul\":15208:15211   */\n      0x0140\n        /* \"#utility.yul\":15197:15206   */\n      dup4\n        /* \"#utility.yul\":15193:15212   */\n      add\n        /* \"#utility.yul\":15183:15190   */\n      dup5\n        /* \"#utility.yul\":15099:15213   */\n      tag_305\n      jump\t// in\n    tag_377:\n        /* \"#utility.yul\":13715:15220   */\n      swap13\n      swap12\n      pop\n      pop\n      pop\n      pop\n      pop\n      pop\n      pop\n      pop\n      pop\n      pop\n      pop\n      pop\n      jump\t// out\n        /* \"#utility.yul\":15226:15645   */\n    tag_62:\n        /* \"#utility.yul\":15365:15369   */\n      0x00\n        /* \"#utility.yul\":15403:15405   */\n      0x40\n        /* \"#utility.yul\":15392:15401   */\n      dup3\n        /* \"#utility.yul\":15388:15406   */\n      add\n        /* \"#utility.yul\":15380:15406   */\n      swap1\n      pop\n        /* \"#utility.yul\":15416:15485   */\n      tag_379\n        /* \"#utility.yul\":15482:15483   */\n      0x00\n        /* \"#utility.yul\":15471:15480   */\n      dup4\n        /* \"#utility.yul\":15467:15484   */\n      add\n        /* \"#utility.yul\":15458:15464   */\n      dup6\n        /* \"#utility.yul\":15416:15485   */\n      tag_325\n      jump\t// in\n    tag_379:\n        /* \"#utility.yul\":15532:15541   */\n      dup2\n        /* \"#utility.yul\":15526:15530   */\n      dup2\n        /* \"#utility.yul\":15522:15542   */\n      sub\n        /* \"#utility.yul\":15517:15519   */\n      0x20\n        /* \"#utility.yul\":15506:15515   */\n      dup4\n        /* \"#utility.yul\":15502:15520   */\n      add\n        /* \"#utility.yul\":15495:15543   */\n      mstore\n        /* \"#utility.yul\":15560:15638   */\n      tag_380\n        /* \"#utility.yul\":15633:15637   */\n      dup2\n        /* \"#utility.yul\":15624:15630   */\n      dup5\n        /* \"#utility.yul\":15560:15638   */\n      tag_285\n      jump\t// in\n    tag_380:\n        /* \"#utility.yul\":15552:15638   */\n      swap1\n      pop\n        /* \"#utility.yul\":15226:15645   */\n      swap4\n      swap3\n      pop\n      pop\n      pop\n      jump\t// out\n        /* \"#utility.yul\":15651:15780   */\n    tag_186:\n        /* \"#utility.yul\":15685:15691   */\n      0x00\n        /* \"#utility.yul\":15712:15732   */\n      tag_382\n      tag_383\n      jump\t// in\n    tag_382:\n        /* \"#utility.yul\":15702:15732   */\n      swap1\n      pop\n        /* \"#utility.yul\":15741:15774   */\n      tag_384\n        /* \"#utility.yul\":15769:15773   */\n      dup3\n        /* \"#utility.yul\":15761:15767   */\n      dup3\n        /* \"#utility.yul\":15741:15774   */\n      tag_385\n      jump\t// in\n    tag_384:\n        /* \"#utility.yul\":15651:15780   */\n      swap2\n      swap1\n      pop\n      jump\t// out\n        /* \"#utility.yul\":15786:15861   */\n    tag_383:\n        /* \"#utility.yul\":15819:15825   */\n      0x00\n        /* \"#utility.yul\":15852:15854   */\n      0x40\n        /* \"#utility.yul\":15846:15855   */\n      mload\n        /* \"#utility.yul\":15836:15855   */\n      swap1\n      pop\n        /* \"#utility.yul\":15786:15861   */\n      swap1\n      jump\t// out\n        /* \"#utility.yul\":15867:16175   */\n    tag_185:\n        /* \"#utility.yul\":15929:15933   */\n      0x00\n        /* \"#utility.yul\":16019:16037   */\n      0xffffffffffffffff\n        /* \"#utility.yul\":16011:16017   */\n      dup3\n        /* \"#utility.yul\":16008:16038   */\n      gt\n        /* \"#utility.yul\":16005:16061   */\n      iszero\n      tag_388\n      jumpi\n        /* \"#utility.yul\":16041:16059   */\n      tag_389\n      tag_390\n      jump\t// in\n    tag_389:\n        /* \"#utility.yul\":16005:16061   */\n    tag_388:\n        /* \"#utility.yul\":16079:16108   */\n      tag_391\n        /* \"#utility.yul\":16101:16107   */\n      dup3\n        /* \"#utility.yul\":16079:16108   */\n      tag_294\n      jump\t// in\n    tag_391:\n        /* \"#utility.yul\":16071:16108   */\n      swap1\n      pop\n        /* \"#utility.yul\":16163:16167   */\n      0x20\n        /* \"#utility.yul\":16157:16161   */\n      dup2\n        /* \"#utility.yul\":16153:16168   */\n      add\n        /* \"#utility.yul\":16145:16168   */\n      swap1\n      pop\n        /* \"#utility.yul\":15867:16175   */\n      swap2\n      swap1\n      pop\n      jump\t// out\n        /* \"#utility.yul\":16181:16280   */\n    tag_288:\n        /* \"#utility.yul\":16233:16239   */\n      0x00\n        /* \"#utility.yul\":16267:16272   */\n      dup2\n        /* \"#utility.yul\":16261:16273   */\n      mload\n        /* \"#utility.yul\":16251:16273   */\n      swap1\n      pop\n        /* \"#utility.yul\":16181:16280   */\n      swap2\n      swap1\n      pop\n      jump\t// out\n        /* \"#utility.yul\":16286:16455   */\n    tag_290:\n        /* \"#utility.yul\":16370:16381   */\n      0x00\n        /* \"#utility.yul\":16404:16410   */\n      dup3\n        /* \"#utility.yul\":16399:16402   */\n      dup3\n        /* \"#utility.yul\":16392:16411   */\n      mstore\n        /* \"#utility.yul\":16444:16448   */\n      0x20\n        /* \"#utility.yul\":16439:16442   */\n      dup3\n        /* \"#utility.yul\":16435:16449   */\n      add\n        /* \"#utility.yul\":16420:16449   */\n      swap1\n      pop\n        /* \"#utility.yul\":16286:16455   */\n      swap3\n      swap2\n      pop\n      pop\n      jump\t// out\n        /* \"#utility.yul\":16461:16557   */\n    tag_265:\n        /* \"#utility.yul\":16498:16505   */\n      0x00\n        /* \"#utility.yul\":16527:16551   */\n      tag_395\n        /* \"#utility.yul\":16545:16550   */\n      dup3\n        /* \"#utility.yul\":16527:16551   */\n      tag_396\n      jump\t// in\n    tag_395:\n        /* \"#utility.yul\":16516:16551   */\n      swap1\n      pop\n        /* \"#utility.yul\":16461:16557   */\n      swap2\n      swap1\n      pop\n      jump\t// out\n        /* \"#utility.yul\":16563:16653   */\n    tag_272:\n        /* \"#utility.yul\":16597:16604   */\n      0x00\n        /* \"#utility.yul\":16640:16645   */\n      dup2\n        /* \"#utility.yul\":16633:16646   */\n      iszero\n        /* \"#utility.yul\":16626:16647   */\n      iszero\n        /* \"#utility.yul\":16615:16647   */\n      swap1\n      pop\n        /* \"#utility.yul\":16563:16653   */\n      swap2\n      swap1\n      pop\n      jump\t// out\n        /* \"#utility.yul\":16659:16800   */\n    tag_398:\n        /* \"#utility.yul\":16711:16718   */\n      0x00\n        /* \"#utility.yul\":16740:16745   */\n      dup2\n        /* \"#utility.yul\":16729:16745   */\n      swap1\n      pop\n        /* \"#utility.yul\":16746:16794   */\n      tag_400\n        /* \"#utility.yul\":16788:16793   */\n      dup3\n        /* \"#utility.yul\":16746:16794   */\n      tag_401\n      jump\t// in\n    tag_400:\n        /* \"#utility.yul\":16659:16800   */\n      swap2\n      swap1\n      pop\n      jump\t// out\n        /* \"#utility.yul\":16806:16941   */\n    tag_402:\n        /* \"#utility.yul\":16855:16862   */\n      0x00\n        /* \"#utility.yul\":16884:16889   */\n      dup2\n        /* \"#utility.yul\":16873:16889   */\n      swap1\n      pop\n        /* \"#utility.yul\":16890:16935   */\n      tag_404\n        /* \"#utility.yul\":16929:16934   */\n      dup3\n        /* \"#utility.yul\":16890:16935   */\n      tag_405\n      jump\t// in\n    tag_404:\n        /* \"#utility.yul\":16806:16941   */\n      swap2\n      swap1\n      pop\n      jump\t// out\n        /* \"#utility.yul\":16947:17074   */\n    tag_406:\n        /* \"#utility.yul\":16992:16999   */\n      0x00\n        /* \"#utility.yul\":17021:17026   */\n      dup2\n        /* \"#utility.yul\":17010:17026   */\n      swap1\n      pop\n        /* \"#utility.yul\":17027:17068   */\n      tag_408\n        /* \"#utility.yul\":17062:17067   */\n      dup3\n        /* \"#utility.yul\":17027:17068   */\n      tag_409\n      jump\t// in\n    tag_408:\n        /* \"#utility.yul\":16947:17074   */\n      swap2\n      swap1\n      pop\n      jump\t// out\n        /* \"#utility.yul\":17080:17169   */\n    tag_314:\n        /* \"#utility.yul\":17116:17123   */\n      0x00\n        /* \"#utility.yul\":17156:17162   */\n      0xffff\n        /* \"#utility.yul\":17149:17154   */\n      dup3\n        /* \"#utility.yul\":17145:17163   */\n      and\n        /* \"#utility.yul\":17134:17163   */\n      swap1\n      pop\n        /* \"#utility.yul\":17080:17169   */\n      swap2\n      swap1\n      pop\n      jump\t// out\n        /* \"#utility.yul\":17175:17301   */\n    tag_396:\n        /* \"#utility.yul\":17212:17219   */\n      0x00\n        /* \"#utility.yul\":17252:17294   */\n      0xffffffffffffffffffffffffffffffffffffffff\n        /* \"#utility.yul\":17245:17250   */\n      dup3\n        /* \"#utility.yul\":17241:17295   */\n      and\n        /* \"#utility.yul\":17230:17295   */\n      swap1\n      pop\n        /* \"#utility.yul\":17175:17301   */\n      swap2\n      swap1\n      pop\n      jump\t// out\n        /* \"#utility.yul\":17307:17384   */\n    tag_317:\n        /* \"#utility.yul\":17344:17351   */\n      0x00\n        /* \"#utility.yul\":17373:17378   */\n      dup2\n        /* \"#utility.yul\":17362:17378   */\n      swap1\n      pop\n        /* \"#utility.yul\":17307:17384   */\n      swap2\n      swap1\n      pop\n      jump\t// out\n        /* \"#utility.yul\":17390:17483   */\n    tag_328:\n        /* \"#utility.yul\":17426:17433   */\n      0x00\n        /* \"#utility.yul\":17466:17476   */\n      0xffffffff\n        /* \"#utility.yul\":17459:17464   */\n      dup3\n        /* \"#utility.yul\":17455:17477   */\n      and\n        /* \"#utility.yul\":17444:17477   */\n      swap1\n      pop\n        /* \"#utility.yul\":17390:17483   */\n      swap2\n      swap1\n      pop\n      jump\t// out\n        /* \"#utility.yul\":17489:17575   */\n    tag_336:\n        /* \"#utility.yul\":17524:17531   */\n      0x00\n        /* \"#utility.yul\":17564:17568   */\n      0xff\n        /* \"#utility.yul\":17557:17562   */\n      dup3\n        /* \"#utility.yul\":17553:17569   */\n      and\n        /* \"#utility.yul\":17542:17569   */\n      swap1\n      pop\n        /* \"#utility.yul\":17489:17575   */\n      swap2\n      swap1\n      pop\n      jump\t// out\n        /* \"#utility.yul\":17581:17722   */\n    tag_276:\n        /* \"#utility.yul\":17644:17653   */\n      0x00\n        /* \"#utility.yul\":17677:17716   */\n      tag_416\n        /* \"#utility.yul\":17710:17715   */\n      dup3\n        /* \"#utility.yul\":17677:17716   */\n      tag_398\n      jump\t// in\n    tag_416:\n        /* \"#utility.yul\":17664:17716   */\n      swap1\n      pop\n        /* \"#utility.yul\":17581:17722   */\n      swap2\n      swap1\n      pop\n      jump\t// out\n        /* \"#utility.yul\":17728:17863   */\n    tag_280:\n        /* \"#utility.yul\":17788:17797   */\n      0x00\n        /* \"#utility.yul\":17821:17857   */\n      tag_418\n        /* \"#utility.yul\":17851:17856   */\n      dup3\n        /* \"#utility.yul\":17821:17857   */\n      tag_402\n      jump\t// in\n    tag_418:\n        /* \"#utility.yul\":17808:17857   */\n      swap1\n      pop\n        /* \"#utility.yul\":17728:17863   */\n      swap2\n      swap1\n      pop\n      jump\t// out\n        /* \"#utility.yul\":17869:17996   */\n    tag_284:\n        /* \"#utility.yul\":17925:17934   */\n      0x00\n        /* \"#utility.yul\":17958:17990   */\n      tag_420\n        /* \"#utility.yul\":17984:17989   */\n      dup3\n        /* \"#utility.yul\":17958:17990   */\n      tag_406\n      jump\t// in\n    tag_420:\n        /* \"#utility.yul\":17945:17990   */\n      swap1\n      pop\n        /* \"#utility.yul\":17869:17996   */\n      swap2\n      swap1\n      pop\n      jump\t// out\n        /* \"#utility.yul\":18002:18113   */\n    tag_324:\n        /* \"#utility.yul\":18051:18060   */\n      0x00\n        /* \"#utility.yul\":18084:18107   */\n      tag_422\n        /* \"#utility.yul\":18101:18106   */\n      dup3\n        /* \"#utility.yul\":18084:18107   */\n      tag_328\n      jump\t// in\n    tag_422:\n        /* \"#utility.yul\":18071:18107   */\n      swap1\n      pop\n        /* \"#utility.yul\":18002:18113   */\n      swap2\n      swap1\n      pop\n      jump\t// out\n        /* \"#utility.yul\":18119:18228   */\n    tag_332:\n        /* \"#utility.yul\":18167:18176   */\n      0x00\n        /* \"#utility.yul\":18200:18222   */\n      tag_424\n        /* \"#utility.yul\":18216:18221   */\n      dup3\n        /* \"#utility.yul\":18200:18222   */\n      tag_336\n      jump\t// in\n    tag_424:\n        /* \"#utility.yul\":18187:18222   */\n      swap1\n      pop\n        /* \"#utility.yul\":18119:18228   */\n      swap2\n      swap1\n      pop\n      jump\t// out\n        /* \"#utility.yul\":18234:18388   */\n    tag_191:\n        /* \"#utility.yul\":18318:18324   */\n      dup3\n        /* \"#utility.yul\":18313:18316   */\n      dup2\n        /* \"#utility.yul\":18308:18311   */\n      dup4\n        /* \"#utility.yul\":18295:18325   */\n      calldatacopy\n        /* \"#utility.yul\":18380:18381   */\n      0x00\n        /* \"#utility.yul\":18371:18377   */\n      dup4\n        /* \"#utility.yul\":18366:18369   */\n      dup4\n        /* \"#utility.yul\":18362:18378   */\n      add\n        /* \"#utility.yul\":18355:18382   */\n      mstore\n        /* \"#utility.yul\":18234:18388   */\n      pop\n      pop\n      pop\n      jump\t// out\n        /* \"#utility.yul\":18394:18701   */\n    tag_292:\n        /* \"#utility.yul\":18462:18463   */\n      0x00\n        /* \"#utility.yul\":18472:18585   */\n    tag_427:\n        /* \"#utility.yul\":18486:18492   */\n      dup4\n        /* \"#utility.yul\":18483:18484   */\n      dup2\n        /* \"#utility.yul\":18480:18493   */\n      lt\n        /* \"#utility.yul\":18472:18585   */\n      iszero\n      tag_429\n      jumpi\n        /* \"#utility.yul\":18571:18572   */\n      dup1\n        /* \"#utility.yul\":18566:18569   */\n      dup3\n        /* \"#utility.yul\":18562:18573   */\n      add\n        /* \"#utility.yul\":18556:18574   */\n      mload\n        /* \"#utility.yul\":18552:18553   */\n      dup2\n        /* \"#utility.yul\":18547:18550   */\n      dup5\n        /* \"#utility.yul\":18543:18554   */\n      add\n        /* \"#utility.yul\":18536:18575   */\n      mstore\n        /* \"#utility.yul\":18508:18510   */\n      0x20\n        /* \"#utility.yul\":18505:18506   */\n      dup2\n        /* \"#utility.yul\":18501:18511   */\n      add\n        /* \"#utility.yul\":18496:18511   */\n      swap1\n      pop\n        /* \"#utility.yul\":18472:18585   */\n      jump(tag_427)\n    tag_429:\n        /* \"#utility.yul\":18603:18609   */\n      dup4\n        /* \"#utility.yul\":18600:18601   */\n      dup2\n        /* \"#utility.yul\":18597:18610   */\n      gt\n        /* \"#utility.yul\":18594:18695   */\n      iszero\n      tag_430\n      jumpi\n        /* \"#utility.yul\":18683:18684   */\n      0x00\n        /* \"#utility.yul\":18674:18680   */\n      dup5\n        /* \"#utility.yul\":18669:18672   */\n      dup5\n        /* \"#utility.yul\":18665:18681   */\n      add\n        /* \"#utility.yul\":18658:18685   */\n      mstore\n        /* \"#utility.yul\":18594:18695   */\n    tag_430:\n        /* \"#utility.yul\":18443:18701   */\n      pop\n        /* \"#utility.yul\":18394:18701   */\n      pop\n      pop\n      pop\n      jump\t// out\n        /* \"#utility.yul\":18707:19027   */\n    tag_81:\n        /* \"#utility.yul\":18751:18757   */\n      0x00\n        /* \"#utility.yul\":18788:18789   */\n      0x02\n        /* \"#utility.yul\":18782:18786   */\n      dup3\n        /* \"#utility.yul\":18778:18790   */\n      div\n        /* \"#utility.yul\":18768:18790   */\n      swap1\n      pop\n        /* \"#utility.yul\":18835:18836   */\n      0x01\n        /* \"#utility.yul\":18829:18833   */\n      dup3\n        /* \"#utility.yul\":18825:18837   */\n      and\n        /* \"#utility.yul\":18856:18874   */\n      dup1\n        /* \"#utility.yul\":18846:18927   */\n      tag_432\n      jumpi\n        /* \"#utility.yul\":18912:18916   */\n      0x7f\n        /* \"#utility.yul\":18904:18910   */\n      dup3\n        /* \"#utility.yul\":18900:18917   */\n      and\n        /* \"#utility.yul\":18890:18917   */\n      swap2\n      pop\n        /* \"#utility.yul\":18846:18927   */\n    tag_432:\n        /* \"#utility.yul\":18974:18976   */\n      0x20\n        /* \"#utility.yul\":18966:18972   */\n      dup3\n        /* \"#utility.yul\":18963:18977   */\n      lt\n        /* \"#utility.yul\":18943:18961   */\n      dup2\n        /* \"#utility.yul\":18940:18978   */\n      eq\n        /* \"#utility.yul\":18937:19021   */\n      iszero\n      tag_433\n      jumpi\n        /* \"#utility.yul\":18993:19011   */\n      tag_434\n      tag_435\n      jump\t// in\n    tag_434:\n        /* \"#utility.yul\":18937:19021   */\n    tag_433:\n        /* \"#utility.yul\":18758:19027   */\n      pop\n        /* \"#utility.yul\":18707:19027   */\n      swap2\n      swap1\n      pop\n      jump\t// out\n        /* \"#utility.yul\":19033:19314   */\n    tag_385:\n        /* \"#utility.yul\":19116:19143   */\n      tag_437\n        /* \"#utility.yul\":19138:19142   */\n      dup3\n        /* \"#utility.yul\":19116:19143   */\n      tag_294\n      jump\t// in\n    tag_437:\n        /* \"#utility.yul\":19108:19114   */\n      dup2\n        /* \"#utility.yul\":19104:19144   */\n      add\n        /* \"#utility.yul\":19246:19252   */\n      dup2\n        /* \"#utility.yul\":19234:19244   */\n      dup2\n        /* \"#utility.yul\":19231:19253   */\n      lt\n        /* \"#utility.yul\":19210:19228   */\n      0xffffffffffffffff\n        /* \"#utility.yul\":19198:19208   */\n      dup3\n        /* \"#utility.yul\":19195:19229   */\n      gt\n        /* \"#utility.yul\":19192:19254   */\n      or\n        /* \"#utility.yul\":19189:19277   */\n      iszero\n      tag_438\n      jumpi\n        /* \"#utility.yul\":19257:19275   */\n      tag_439\n      tag_390\n      jump\t// in\n    tag_439:\n        /* \"#utility.yul\":19189:19277   */\n    tag_438:\n        /* \"#utility.yul\":19297:19307   */\n      dup1\n        /* \"#utility.yul\":19293:19295   */\n      0x40\n        /* \"#utility.yul\":19286:19308   */\n      mstore\n        /* \"#utility.yul\":19076:19314   */\n      pop\n        /* \"#utility.yul\":19033:19314   */\n      pop\n      pop\n      jump\t// out\n        /* \"#utility.yul\":19320:19553   */\n    tag_153:\n        /* \"#utility.yul\":19359:19362   */\n      0x00\n        /* \"#utility.yul\":19382:19406   */\n      tag_441\n        /* \"#utility.yul\":19400:19405   */\n      dup3\n        /* \"#utility.yul\":19382:19406   */\n      tag_317\n      jump\t// in\n    tag_441:\n        /* \"#utility.yul\":19373:19406   */\n      swap2\n      pop\n        /* \"#utility.yul\":19428:19494   */\n      0xffffffffffffffffffffffffffffffffffffffffffffffffffffffffffffffff\n        /* \"#utility.yul\":19421:19426   */\n      dup3\n        /* \"#utility.yul\":19418:19495   */\n      eq\n        /* \"#utility.yul\":19415:19518   */\n      iszero\n      tag_442\n      jumpi\n        /* \"#utility.yul\":19498:19516   */\n      tag_443\n      tag_444\n      jump\t// in\n    tag_443:\n        /* \"#utility.yul\":19415:19518   */\n    tag_442:\n        /* \"#utility.yul\":19545:19546   */\n      0x01\n        /* \"#utility.yul\":19538:19543   */\n      dup3\n        /* \"#utility.yul\":19534:19547   */\n      add\n        /* \"#utility.yul\":19527:19547   */\n      swap1\n      pop\n        /* \"#utility.yul\":19320:19553   */\n      swap2\n      swap1\n      pop\n      jump\t// out\n        /* \"#utility.yul\":19559:19739   */\n    tag_444:\n        /* \"#utility.yul\":19607:19684   */\n      0x4e487b7100000000000000000000000000000000000000000000000000000000\n        /* \"#utility.yul\":19604:19605   */\n      0x00\n        /* \"#utility.yul\":19597:19685   */\n      mstore\n        /* \"#utility.yul\":19704:19708   */\n      0x11\n        /* \"#utility.yul\":19701:19702   */\n      0x04\n        /* \"#utility.yul\":19694:19709   */\n      mstore\n        /* \"#utility.yul\":19728:19732   */\n      0x24\n        /* \"#utility.yul\":19725:19726   */\n      0x00\n        /* \"#utility.yul\":19718:19733   */\n      revert\n        /* \"#utility.yul\":19745:19925   */\n    tag_88:\n        /* \"#utility.yul\":19793:19870   */\n      0x4e487b7100000000000000000000000000000000000000000000000000000000\n        /* \"#utility.yul\":19790:19791   */\n      0x00\n        /* \"#utility.yul\":19783:19871   */\n      mstore\n        /* \"#utility.yul\":19890:19894   */\n      0x21\n        /* \"#utility.yul\":19887:19888   */\n      0x04\n        /* \"#utility.yul\":19880:19895   */\n      mstore\n        /* \"#utility.yul\":19914:19918   */\n      0x24\n        /* \"#utility.yul\":19911:19912   */\n      0x00\n        /* \"#utility.yul\":19904:19919   */\n      revert\n        /* \"#utility.yul\":19931:20111   */\n    tag_435:\n        /* \"#utility.yul\":19979:20056   */\n      0x4e487b7100000000000000000000000000000000000000000000000000000000\n        /* \"#utility.yul\":19976:19977   */\n      0x00\n        /* \"#utility.yul\":19969:20057   */\n      mstore\n        /* \"#utility.yul\":20076:20080   */\n      0x22\n        /* \"#utility.yul\":20073:20074   */\n      0x04\n        /* \"#utility.yul\":20066:20081   */\n      mstore\n        /* \"#utility.yul\":20100:20104   */\n      0x24\n        /* \"#utility.yul\":20097:20098   */\n      0x00\n        /* \"#utility.yul\":20090:20105   */\n      revert\n        /* \"#utility.yul\":20117:20297   */\n    tag_390:\n        /* \"#utility.yul\":20165:20242   */\n      0x4e487b7100000000000000000000000000000000000000000000000000000000\n        /* \"#utility.yul\":20162:20163   */\n      0x00\n        /* \"#utility.yul\":20155:20243   */\n      mstore\n        /* \"#utility.yul\":20262:20266   */\n      0x41\n        /* \"#utility.yul\":20259:20260   */\n      0x04\n        /* \"#utility.yul\":20252:20267   */\n      mstore\n        /* \"#utility.yul\":20286:20290   */\n      0x24\n        /* \"#utility.yul\":20283:20284   */\n      0x00\n        /* \"#utility.yul\":20276:20291   */\n      revert\n        /* \"#utility.yul\":20303:20420   */\n    tag_204:\n        /* \"#utility.yul\":20412:20413   */\n      0x00\n        /* \"#utility.yul\":20409:20410   */\n      dup1\n        /* \"#utility.yul\":20402:20414   */\n      revert\n        /* \"#utility.yul\":20426:20543   */\n    tag_189:\n        /* \"#utility.yul\":20535:20536   */\n      0x00\n        /* \"#utility.yul\":20532:20533   */\n      dup1\n        /* \"#utility.yul\":20525:20537   */\n      revert\n        /* \"#utility.yul\":20549:20666   */\n    tag_238:\n        /* \"#utility.yul\":20658:20659   */\n      0x00\n        /* \"#utility.yul\":20655:20656   */\n      dup1\n        /* \"#utility.yul\":20648:20660   */\n      revert\n        /* \"#utility.yul\":20672:20789   */\n    tag_221:\n        /* \"#utility.yul\":20781:20782   */\n      0x00\n        /* \"#utility.yul\":20778:20779   */\n      dup1\n        /* \"#utility.yul\":20771:20783   */\n      revert\n        /* \"#utility.yul\":20795:20897   */\n    tag_294:\n        /* \"#utility.yul\":20836:20842   */\n      0x00\n        /* \"#utility.yul\":20887:20889   */\n      0x1f\n        /* \"#utility.yul\":20883:20890   */\n      not\n        /* \"#utility.yul\":20878:20880   */\n      0x1f\n        /* \"#utility.yul\":20871:20876   */\n      dup4\n        /* \"#utility.yul\":20867:20881   */\n      add\n        /* \"#utility.yul\":20863:20891   */\n      and\n        /* \"#utility.yul\":20853:20891   */\n      swap1\n      pop\n        /* \"#utility.yul\":20795:20897   */\n      swap2\n      swap1\n      pop\n      jump\t// out\n        /* \"#utility.yul\":20903:21071   */\n    tag_299:\n        /* \"#utility.yul\":21043:21063   */\n      0x53747564656e74206e6f74206578697374730000000000000000000000000000\n        /* \"#utility.yul\":21039:21040   */\n      0x00\n        /* \"#utility.yul\":21031:21037   */\n      dup3\n        /* \"#utility.yul\":21027:21041   */\n      add\n        /* \"#utility.yul\":21020:21064   */\n      mstore\n        /* \"#utility.yul\":20903:21071   */\n      pop\n      jump\t// out\n        /* \"#utility.yul\":21077:21259   */\n    tag_304:\n        /* \"#utility.yul\":21217:21251   */\n      0x42752069736c656d6920736164656365204b757273207961706162696c69722e\n        /* \"#utility.yul\":21213:21214   */\n      0x00\n        /* \"#utility.yul\":21205:21211   */\n      dup3\n        /* \"#utility.yul\":21201:21215   */\n      add\n        /* \"#utility.yul\":21194:21252   */\n      mstore\n        /* \"#utility.yul\":21077:21259   */\n      pop\n      jump\t// out\n        /* \"#utility.yul\":21265:21385   */\n    tag_401:\n        /* \"#utility.yul\":21353:21354   */\n      0x03\n        /* \"#utility.yul\":21346:21351   */\n      dup2\n        /* \"#utility.yul\":21343:21355   */\n      lt\n        /* \"#utility.yul\":21333:21379   */\n      tag_457\n      jumpi\n        /* \"#utility.yul\":21359:21377   */\n      tag_458\n      tag_88\n      jump\t// in\n    tag_458:\n        /* \"#utility.yul\":21333:21379   */\n    tag_457:\n        /* \"#utility.yul\":21265:21385   */\n      pop\n      jump\t// out\n        /* \"#utility.yul\":21391:21508   */\n    tag_405:\n        /* \"#utility.yul\":21476:21477   */\n      0x03\n        /* \"#utility.yul\":21469:21474   */\n      dup2\n        /* \"#utility.yul\":21466:21478   */\n      lt\n        /* \"#utility.yul\":21456:21502   */\n      tag_460\n      jumpi\n        /* \"#utility.yul\":21482:21500   */\n      tag_461\n      tag_88\n      jump\t// in\n    tag_461:\n        /* \"#utility.yul\":21456:21502   */\n    tag_460:\n        /* \"#utility.yul\":21391:21508   */\n      pop\n      jump\t// out\n        /* \"#utility.yul\":21514:21627   */\n    tag_409:\n        /* \"#utility.yul\":21595:21596   */\n      0x04\n        /* \"#utility.yul\":21588:21593   */\n      dup2\n        /* \"#utility.yul\":21585:21597   */\n      lt\n        /* \"#utility.yul\":21575:21621   */\n      tag_463\n      jumpi\n        /* \"#utility.yul\":21601:21619   */\n      tag_464\n      tag_88\n      jump\t// in\n    tag_464:\n        /* \"#utility.yul\":21575:21621   */\n    tag_463:\n        /* \"#utility.yul\":21514:21627   */\n      pop\n      jump\t// out\n        /* \"#utility.yul\":21633:21755   */\n    tag_195:\n        /* \"#utility.yul\":21706:21730   */\n      tag_466\n        /* \"#utility.yul\":21724:21729   */\n      dup2\n        /* \"#utility.yul\":21706:21730   */\n      tag_265\n      jump\t// in\n    tag_466:\n        /* \"#utility.yul\":21699:21704   */\n      dup2\n        /* \"#utility.yul\":21696:21731   */\n      eq\n        /* \"#utility.yul\":21686:21749   */\n      tag_467\n      jumpi\n        /* \"#utility.yul\":21745:21746   */\n      0x00\n        /* \"#utility.yul\":21742:21743   */\n      dup1\n        /* \"#utility.yul\":21735:21747   */\n      revert\n        /* \"#utility.yul\":21686:21749   */\n    tag_467:\n        /* \"#utility.yul\":21633:21755   */\n      pop\n      jump\t// out\n        /* \"#utility.yul\":21761:21875   */\n    tag_199:\n        /* \"#utility.yul\":21849:21850   */\n      0x03\n        /* \"#utility.yul\":21842:21847   */\n      dup2\n        /* \"#utility.yul\":21839:21851   */\n      lt\n        /* \"#utility.yul\":21829:21869   */\n      tag_469\n      jumpi\n        /* \"#utility.yul\":21865:21866   */\n      0x00\n        /* \"#utility.yul\":21862:21863   */\n      dup1\n        /* \"#utility.yul\":21855:21867   */\n      revert\n        /* \"#utility.yul\":21829:21869   */\n    tag_469:\n        /* \"#utility.yul\":21761:21875   */\n      pop\n      jump\t// out\n        /* \"#utility.yul\":21881:22003   */\n    tag_209:\n        /* \"#utility.yul\":21954:21978   */\n      tag_471\n        /* \"#utility.yul\":21972:21977   */\n      dup2\n        /* \"#utility.yul\":21954:21978   */\n      tag_317\n      jump\t// in\n    tag_471:\n        /* \"#utility.yul\":21947:21952   */\n      dup2\n        /* \"#utility.yul\":21944:21979   */\n      eq\n        /* \"#utility.yul\":21934:21997   */\n      tag_472\n      jumpi\n        /* \"#utility.yul\":21993:21994   */\n      0x00\n        /* \"#utility.yul\":21990:21991   */\n      dup1\n        /* \"#utility.yul\":21983:21995   */\n      revert\n        /* \"#utility.yul\":21934:21997   */\n    tag_472:\n        /* \"#utility.yul\":21881:22003   */\n      pop\n      jump\t// out\n        /* \"#utility.yul\":22009:22129   */\n    tag_213:\n        /* \"#utility.yul\":22081:22104   */\n      tag_474\n        /* \"#utility.yul\":22098:22103   */\n      dup2\n        /* \"#utility.yul\":22081:22104   */\n      tag_328\n      jump\t// in\n    tag_474:\n        /* \"#utility.yul\":22074:22079   */\n      dup2\n        /* \"#utility.yul\":22071:22105   */\n      eq\n        /* \"#utility.yul\":22061:22123   */\n      tag_475\n      jumpi\n        /* \"#utility.yul\":22119:22120   */\n      0x00\n        /* \"#utility.yul\":22116:22117   */\n      dup1\n        /* \"#utility.yul\":22109:22121   */\n      revert\n        /* \"#utility.yul\":22061:22123   */\n    tag_475:\n        /* \"#utility.yul\":22009:22129   */\n      pop\n      jump\t// out\n        /* \"#utility.yul\":22135:22253   */\n    tag_217:\n        /* \"#utility.yul\":22206:22228   */\n      tag_477\n        /* \"#utility.yul\":22222:22227   */\n      dup2\n        /* \"#utility.yul\":22206:22228   */\n      tag_336\n      jump\t// in\n    tag_477:\n        /* \"#utility.yul\":22199:22204   */\n      dup2\n        /* \"#utility.yul\":22196:22229   */\n      eq\n        /* \"#utility.yul\":22186:22247   */\n      tag_478\n      jumpi\n        /* \"#utility.yul\":22243:22244   */\n      0x00\n        /* \"#utility.yul\":22240:22241   */\n      dup1\n        /* \"#utility.yul\":22233:22245   */\n      revert\n        /* \"#utility.yul\":22186:22247   */\n    tag_478:\n        /* \"#utility.yul\":22135:22253   */\n      pop\n      jump\t// out\n\n    auxdata: 0xa264697066735822122007b2ca3a603b295bde0f121ae1e9239b847aa15ca1cb471f630ee41bf3ff54ba64736f6c63430008070033\n}\n",
				"bytecode": {
					"linkReferences": {},
					"object": "608060405234801561001057600080fd5b506126d5806100206000396000f3fe608060405234801561001057600080fd5b50600436106100cf5760003560e01c80637d0fa2871161008c578063ac30910c11610066578063ac30910c1461029c578063af640d0f146102b8578063ba479b7e146102d6578063cbc928091461030b576100cf565b80637d0fa287146102075780639a8c911914610239578063a4e7ae051461026b576100cf565b80630fb0b1b2146100d45780631916e1391461010e5780632826669714610140578063356b1f1e1461017257806339987f94146101a457806362bda16b146101d7575b600080fd5b6100ee60048036038101906100e99190611bf6565b61033b565b6040516101059b9a9998979695949392919061217c565b60405180910390f35b61012860048036038101906101239190611bc9565b610536565b60405161013793929190612097565b60405180910390f35b61015a60048036038101906101559190611bc9565b610602565b60405161016993929190612097565b60405180910390f35b61018c60048036038101906101879190611bc9565b6106ce565b60405161019b93929190612097565b60405180910390f35b6101be60048036038101906101b99190611bc9565b61079a565b6040516101ce94939291906120d5565b60405180910390f35b6101f160048036038101906101ec9190611c36565b61086c565b6040516101fe9190612161565b60405180910390f35b610221600480360381019061021c9190611bc9565b610f46565b60405161023093929190612097565b60405180910390f35b610253600480360381019061024e9190611bc9565b611012565b60405161026293929190612097565b60405180910390f35b61028560048036038101906102809190611e17565b6110de565b60405161029392919061222e565b60405180910390f35b6102b660048036038101906102b19190611d31565b61119a565b005b6102c0611888565b6040516102cd9190612161565b60405180910390f35b6102f060048036038101906102eb9190611bc9565b61188e565b60405161030296959493929190612028565b60405180910390f35b61032560048036038101906103209190611bc9565b611a22565b604051610332919061200d565b60405180910390f35b600d602052816000526040600020602052806000526040600020600091509150508060000154908060010160009054906101000a900473ffffffffffffffffffffffffffffffffffffffff16908060010160149054906101000a900463ffffffff16908060010160189054906101000a900460ff16908060010160199054906101000a900460ff16908060020180546103d390612418565b80601f01602080910402602001604051908101604052809291908181526020018280546103ff90612418565b801561044c5780601f106104215761010080835404028352916020019161044c565b820191906000526020600020905b81548152906001019060200180831161042f57829003601f168201915b5050505050908060030154908060040154908060050160009054906101000a900460ff16908060050160019054906101000a900463ffffffff169080600601604051806060016040529081600082015481526020016001820160009054906101000a900473ffffffffffffffffffffffffffffffffffffffff1673ffffffffffffffffffffffffffffffffffffffff1673ffffffffffffffffffffffffffffffffffffffff1681526020016001820160149054906101000a900460ff16600281111561051b5761051a6124f3565b5b600281111561052d5761052c6124f3565b5b8152505090508b565b60076020528060005260406000206000915090508060000160009054906101000a900460ff169080600101805461056c90612418565b80601f016020809104026020016040519081016040528092919081815260200182805461059890612418565b80156105e55780601f106105ba576101008083540402835291602001916105e5565b820191906000526020600020905b8154815290600101906020018083116105c857829003601f168201915b5050505050908060020160009054906101000a900460ff16905083565b60046020528060005260406000206000915090508060000160009054906101000a900460ff169080600101805461063890612418565b80601f016020809104026020016040519081016040528092919081815260200182805461066490612418565b80156106b15780601f10610686576101008083540402835291602001916106b1565b820191906000526020600020905b81548152906001019060200180831161069457829003601f168201915b5050505050908060020160009054906101000a900460ff16905083565b600a6020528060005260406000206000915090508060000160009054906101000a900460ff169080600101805461070490612418565b80601f016020809104026020016040519081016040528092919081815260200182805461073090612418565b801561077d5780601f106107525761010080835404028352916020019161077d565b820191906000526020600020905b81548152906001019060200180831161076057829003601f168201915b5050505050908060020160009054906101000a900460ff16905083565b60066020528060005260406000206000915090508060000160009054906101000a900460ff16908060000160019054906101000a900460ff16908060010154908060020180546107e990612418565b80601f016020809104026020016040519081016040528092919081815260200182805461081590612418565b80156108625780601f1061083757610100808354040283529160200191610862565b820191906000526020600020905b81548152906001019060200180831161084557829003601f168201915b5050505050905084565b6000600460003373ffffffffffffffffffffffffffffffffffffffff1673ffffffffffffffffffffffffffffffffffffffff16815260200190815260200160002060000160009054906101000a900460ff16806109155750600660003373ffffffffffffffffffffffffffffffffffffffff1673ffffffffffffffffffffffffffffffffffffffff16815260200190815260200160002060000160009054906101000a900460ff165b8061096c5750600860003373ffffffffffffffffffffffffffffffffffffffff1673ffffffffffffffffffffffffffffffffffffffff16815260200190815260200160002060000160009054906101000a900460ff165b6109ab576040517f08c379a00000000000000000000000000000000000000000000000000000000081526004016109a290612141565b60405180910390fd5b600360008c73ffffffffffffffffffffffffffffffffffffffff1673ffffffffffffffffffffffffffffffffffffffff16815260200190815260200160002060000160009054906101000a900460ff16610a3a576040517f08c379a0000000000000000000000000000000000000000000000000000000008152600401610a3190612121565b60405180910390fd5b88600d60008d73ffffffffffffffffffffffffffffffffffffffff1673ffffffffffffffffffffffffffffffffffffffff16815260200190815260200160002060008c815260200190815260200160002060010160146101000a81548163ffffffff021916908363ffffffff16021790555087600d60008d73ffffffffffffffffffffffffffffffffffffffff1673ffffffffffffffffffffffffffffffffffffffff16815260200190815260200160002060008c815260200190815260200160002060010160186101000a81548160ff021916908360ff16021790555086600d60008d73ffffffffffffffffffffffffffffffffffffffff1673ffffffffffffffffffffffffffffffffffffffff16815260200190815260200160002060008c815260200190815260200160002060010160196101000a81548160ff02191690836002811115610b8e57610b8d6124f3565b5b021790555085600d60008d73ffffffffffffffffffffffffffffffffffffffff1673ffffffffffffffffffffffffffffffffffffffff16815260200190815260200160002060008c81526020019081526020016000206002019080519060200190610bfa929190611a4d565b5084600d60008d73ffffffffffffffffffffffffffffffffffffffff1673ffffffffffffffffffffffffffffffffffffffff16815260200190815260200160002060008c81526020019081526020016000206003018190555083600d60008d73ffffffffffffffffffffffffffffffffffffffff1673ffffffffffffffffffffffffffffffffffffffff16815260200190815260200160002060008c81526020019081526020016000206004018190555082600d60008d73ffffffffffffffffffffffffffffffffffffffff1673ffffffffffffffffffffffffffffffffffffffff16815260200190815260200160002060008c815260200190815260200160002060050160006101000a81548160ff021916908360ff16021790555081600d60008d73ffffffffffffffffffffffffffffffffffffffff1673ffffffffffffffffffffffffffffffffffffffff16815260200190815260200160002060008c815260200190815260200160002060050160016101000a81548163ffffffff021916908363ffffffff16021790555042600d60008d73ffffffffffffffffffffffffffffffffffffffff1673ffffffffffffffffffffffffffffffffffffffff16815260200190815260200160002060008c8152602001908152602001600020600601600001819055506001600d60008d73ffffffffffffffffffffffffffffffffffffffff1673ffffffffffffffffffffffffffffffffffffffff16815260200190815260200160002060008c815260200190815260200160002060060160010160146101000a81548160ff02191690836002811115610e5e57610e5d6124f3565b5b021790555033600d60008d73ffffffffffffffffffffffffffffffffffffffff1673ffffffffffffffffffffffffffffffffffffffff16815260200190815260200160002060008c815260200190815260200160002060060160010160006101000a81548173ffffffffffffffffffffffffffffffffffffffff021916908373ffffffffffffffffffffffffffffffffffffffff1602179055507f0d2d369c2a311bbedf49b15d0d8d116c0a1aaf3adf72494f1ebb4275c54cad738b848b8b604051610f2d9493929190611fc8565b60405180910390a18990509a9950505050505050505050565b60086020528060005260406000206000915090508060000160009054906101000a900460ff1690806001018054610f7c90612418565b80601f0160208091040260200160405190810160405280929190818152602001828054610fa890612418565b8015610ff55780601f10610fca57610100808354040283529160200191610ff5565b820191906000526020600020905b815481529060010190602001808311610fd857829003601f168201915b5050505050908060020160009054906101000a900460ff16905083565b60096020528060005260406000206000915090508060000160009054906101000a900460ff169080600101805461104890612418565b80601f016020809104026020016040519081016040528092919081815260200182805461107490612418565b80156110c15780601f10611096576101008083540402835291602001916110c1565b820191906000526020600020905b8154815290600101906020018083116110a457829003601f168201915b5050505050908060020160009054906101000a900460ff16905083565b600b6020528060005260406000206000915090508060000160009054906101000a900463ffffffff169080600101805461111790612418565b80601f016020809104026020016040519081016040528092919081815260200182805461114390612418565b80156111905780601f1061116557610100808354040283529160200191611190565b820191906000526020600020905b81548152906001019060200180831161117357829003601f168201915b5050505050905082565b600460003373ffffffffffffffffffffffffffffffffffffffff1673ffffffffffffffffffffffffffffffffffffffff16815260200190815260200160002060000160009054906101000a900460ff16806112415750600660003373ffffffffffffffffffffffffffffffffffffffff1673ffffffffffffffffffffffffffffffffffffffff16815260200190815260200160002060000160009054906101000a900460ff165b806112985750600860003373ffffffffffffffffffffffffffffffffffffffff1673ffffffffffffffffffffffffffffffffffffffff16815260200190815260200160002060000160009054906101000a900460ff165b6112d7576040517f08c379a00000000000000000000000000000000000000000000000000000000081526004016112ce90612141565b60405180910390fd5b600360008a73ffffffffffffffffffffffffffffffffffffffff1673ffffffffffffffffffffffffffffffffffffffff16815260200190815260200160002060000160009054906101000a900460ff16611366576040517f08c379a000000000000000000000000000000000000000000000000000000000815260040161135d90612121565b60405180910390fd5b6000600c600081548092919061137b9061247b565b91905055905088600d60008c73ffffffffffffffffffffffffffffffffffffffff1673ffffffffffffffffffffffffffffffffffffffff168152602001908152602001600020600083815260200190815260200160002060010160146101000a81548163ffffffff021916908363ffffffff16021790555087600d60008c73ffffffffffffffffffffffffffffffffffffffff1673ffffffffffffffffffffffffffffffffffffffff168152602001908152602001600020600083815260200190815260200160002060010160186101000a81548160ff021916908360ff16021790555086600d60008c73ffffffffffffffffffffffffffffffffffffffff1673ffffffffffffffffffffffffffffffffffffffff168152602001908152602001600020600083815260200190815260200160002060010160196101000a81548160ff021916908360028111156114d5576114d46124f3565b5b021790555085600d60008c73ffffffffffffffffffffffffffffffffffffffff1673ffffffffffffffffffffffffffffffffffffffff16815260200190815260200160002060008381526020019081526020016000206002019080519060200190611541929190611a4d565b5084600d60008c73ffffffffffffffffffffffffffffffffffffffff1673ffffffffffffffffffffffffffffffffffffffff16815260200190815260200160002060008381526020019081526020016000206003018190555083600d60008c73ffffffffffffffffffffffffffffffffffffffff1673ffffffffffffffffffffffffffffffffffffffff16815260200190815260200160002060008381526020019081526020016000206004018190555082600d60008c73ffffffffffffffffffffffffffffffffffffffff1673ffffffffffffffffffffffffffffffffffffffff168152602001908152602001600020600083815260200190815260200160002060050160006101000a81548160ff021916908360ff16021790555081600d60008c73ffffffffffffffffffffffffffffffffffffffff1673ffffffffffffffffffffffffffffffffffffffff168152602001908152602001600020600083815260200190815260200160002060050160016101000a81548163ffffffff021916908363ffffffff16021790555042600d60008c73ffffffffffffffffffffffffffffffffffffffff1673ffffffffffffffffffffffffffffffffffffffff1681526020019081526020016000206000838152602001908152602001600020600601600001819055506001600d60008c73ffffffffffffffffffffffffffffffffffffffff1673ffffffffffffffffffffffffffffffffffffffff168152602001908152602001600020600083815260200190815260200160002060060160010160146101000a81548160ff021916908360028111156117a5576117a46124f3565b5b021790555033600d60008c73ffffffffffffffffffffffffffffffffffffffff1673ffffffffffffffffffffffffffffffffffffffff168152602001908152602001600020600083815260200190815260200160002060060160010160006101000a81548173ffffffffffffffffffffffffffffffffffffffff021916908373ffffffffffffffffffffffffffffffffffffffff1602179055507f5ad0792471e6b8d6289d325d174cfb7e274ac9529efeb295f4abce0a90cdcb238a848b8b6040516118749493929190611fc8565b60405180910390a150505050505050505050565b600c5481565b60056020528060005260406000206000915090508060000160009054906101000a900460ff16908060000160019054906101000a900473ffffffffffffffffffffffffffffffffffffffff16908060000160159054906101000a900461ffff16908060000160179054906101000a900460ff169080600101805461191190612418565b80601f016020809104026020016040519081016040528092919081815260200182805461193d90612418565b801561198a5780601f1061195f5761010080835404028352916020019161198a565b820191906000526020600020905b81548152906001019060200180831161196d57829003601f168201915b50505050509080600201805461199f90612418565b80601f01602080910402602001604051908101604052809291908181526020018280546119cb90612418565b8015611a185780601f106119ed57610100808354040283529160200191611a18565b820191906000526020600020905b8154815290600101906020018083116119fb57829003601f168201915b5050505050905086565b60036020528060005260406000206000915090508060000160009054906101000a900460ff16905081565b828054611a5990612418565b90600052602060002090601f016020900481019282611a7b5760008555611ac2565b82601f10611a9457805160ff1916838001178555611ac2565b82800160010185558215611ac2579182015b82811115611ac1578251825591602001919060010190611aa6565b5b509050611acf9190611ad3565b5090565b5b80821115611aec576000816000905550600101611ad4565b5090565b6000611b03611afe84612283565b61225e565b905082815260208101848484011115611b1f57611b1e612585565b5b611b2a8482856123d6565b509392505050565b600081359050611b4181612633565b92915050565b600081359050611b568161264a565b92915050565b600082601f830112611b7157611b70612580565b5b8135611b81848260208601611af0565b91505092915050565b600081359050611b998161265a565b92915050565b600081359050611bae81612671565b92915050565b600081359050611bc381612688565b92915050565b600060208284031215611bdf57611bde61258f565b5b6000611bed84828501611b32565b91505092915050565b60008060408385031215611c0d57611c0c61258f565b5b6000611c1b85828601611b32565b9250506020611c2c85828601611b8a565b9150509250929050565b6000806000806000806000806000806101408b8d031215611c5a57611c5961258f565b5b6000611c688d828e01611b32565b9a50506020611c798d828e01611b8a565b9950506040611c8a8d828e01611b9f565b9850506060611c9b8d828e01611bb4565b9750506080611cac8d828e01611b47565b96505060a08b013567ffffffffffffffff811115611ccd57611ccc61258a565b5b611cd98d828e01611b5c565b95505060c0611cea8d828e01611b8a565b94505060e0611cfb8d828e01611b8a565b935050610100611d0d8d828e01611bb4565b925050610120611d1f8d828e01611b9f565b9150509295989b9194979a5092959850565b60008060008060008060008060006101208a8c031215611d5457611d5361258f565b5b6000611d628c828d01611b32565b9950506020611d738c828d01611b9f565b9850506040611d848c828d01611bb4565b9750506060611d958c828d01611b47565b96505060808a013567ffffffffffffffff811115611db657611db561258a565b5b611dc28c828d01611b5c565b95505060a0611dd38c828d01611b8a565b94505060c0611de48c828d01611b8a565b93505060e0611df58c828d01611bb4565b925050610100611e078c828d01611b9f565b9150509295985092959850929598565b600060208284031215611e2d57611e2c61258f565b5b6000611e3b84828501611b9f565b91505092915050565b611e4d816122d0565b82525050565b611e5c816122d0565b82525050565b611e6b816122e2565b82525050565b611e7a8161237c565b82525050565b611e898161238e565b82525050565b611e98816123a0565b82525050565b6000611ea9826122b4565b611eb381856122bf565b9350611ec38185602086016123e5565b611ecc81612594565b840191505092915050565b6000611ee46012836122bf565b9150611eef826125a5565b602082019050919050565b6000611f076020836122bf565b9150611f12826125ce565b602082019050919050565b606082016000820151611f336000850182611f6e565b506020820151611f466020850182611e44565b506040820151611f596040850182611e80565b50505050565b611f6881612327565b82525050565b611f7781612355565b82525050565b611f8681612355565b82525050565b611f95816123b2565b82525050565b611fa48161235f565b82525050565b611fb3816123c4565b82525050565b611fc28161236f565b82525050565b6000608082019050611fdd6000830187611e53565b611fea6020830186611fb9565b611ff76040830185611f8c565b6120046060830184611faa565b95945050505050565b60006020820190506120226000830184611e62565b92915050565b600060c08201905061203d6000830189611e62565b61204a6020830188611e53565b6120576040830187611f5f565b6120646060830186611e8f565b81810360808301526120768185611e9e565b905081810360a083015261208a8184611e9e565b9050979650505050505050565b60006060820190506120ac6000830186611e62565b81810360208301526120be8185611e9e565b90506120cd6040830184611fb9565b949350505050565b60006080820190506120ea6000830187611e62565b6120f76020830186611fb9565b6121046040830185611f7d565b81810360608301526121168184611e9e565b905095945050505050565b6000602082019050818103600083015261213a81611ed7565b9050919050565b6000602082019050818103600083015261215a81611efa565b9050919050565b60006020820190506121766000830184611f7d565b92915050565b60006101a082019050612192600083018e611f7d565b61219f602083018d611e53565b6121ac604083018c611f9b565b6121b9606083018b611fb9565b6121c6608083018a611e71565b81810360a08301526121d88189611e9e565b90506121e760c0830188611f7d565b6121f460e0830187611f7d565b612202610100830186611fb9565b612210610120830185611f9b565b61221e610140830184611f1d565b9c9b505050505050505050505050565b60006040820190506122436000830185611f9b565b81810360208301526122558184611e9e565b90509392505050565b6000612268612279565b9050612274828261244a565b919050565b6000604051905090565b600067ffffffffffffffff82111561229e5761229d612551565b5b6122a782612594565b9050602081019050919050565b600081519050919050565b600082825260208201905092915050565b60006122db82612335565b9050919050565b60008115159050919050565b60008190506122fc826125f7565b919050565b600081905061230f8261260b565b919050565b60008190506123228261261f565b919050565b600061ffff82169050919050565b600073ffffffffffffffffffffffffffffffffffffffff82169050919050565b6000819050919050565b600063ffffffff82169050919050565b600060ff82169050919050565b6000612387826122ee565b9050919050565b600061239982612301565b9050919050565b60006123ab82612314565b9050919050565b60006123bd8261235f565b9050919050565b60006123cf8261236f565b9050919050565b82818337600083830152505050565b60005b838110156124035780820151818401526020810190506123e8565b83811115612412576000848401525b50505050565b6000600282049050600182168061243057607f821691505b6020821081141561244457612443612522565b5b50919050565b61245382612594565b810181811067ffffffffffffffff8211171561247257612471612551565b5b80604052505050565b600061248682612355565b91507fffffffffffffffffffffffffffffffffffffffffffffffffffffffffffffffff8214156124b9576124b86124c4565b5b600182019050919050565b7f4e487b7100000000000000000000000000000000000000000000000000000000600052601160045260246000fd5b7f4e487b7100000000000000000000000000000000000000000000000000000000600052602160045260246000fd5b7f4e487b7100000000000000000000000000000000000000000000000000000000600052602260045260246000fd5b7f4e487b7100000000000000000000000000000000000000000000000000000000600052604160045260246000fd5b600080fd5b600080fd5b600080fd5b600080fd5b6000601f19601f8301169050919050565b7f53747564656e74206e6f74206578697374730000000000000000000000000000600082015250565b7f42752069736c656d6920736164656365204b757273207961706162696c69722e600082015250565b60038110612608576126076124f3565b5b50565b6003811061261c5761261b6124f3565b5b50565b600481106126305761262f6124f3565b5b50565b61263c816122d0565b811461264757600080fd5b50565b6003811061265757600080fd5b50565b61266381612355565b811461266e57600080fd5b50565b61267a8161235f565b811461268557600080fd5b50565b6126918161236f565b811461269c57600080fd5b5056fea264697066735822122007b2ca3a603b295bde0f121ae1e9239b847aa15ca1cb471f630ee41bf3ff54ba64736f6c63430008070033",
					"opcodes": "PUSH1 0x80 PUSH1 0x40 MSTORE CALLVALUE DUP1 ISZERO PUSH2 0x10 JUMPI PUSH1 0x0 DUP1 REVERT JUMPDEST POP PUSH2 0x26D5 DUP1 PUSH2 0x20 PUSH1 0x0 CODECOPY PUSH1 0x0 RETURN INVALID PUSH1 0x80 PUSH1 0x40 MSTORE CALLVALUE DUP1 ISZERO PUSH2 0x10 JUMPI PUSH1 0x0 DUP1 REVERT JUMPDEST POP PUSH1 0x4 CALLDATASIZE LT PUSH2 0xCF JUMPI PUSH1 0x0 CALLDATALOAD PUSH1 0xE0 SHR DUP1 PUSH4 0x7D0FA287 GT PUSH2 0x8C JUMPI DUP1 PUSH4 0xAC30910C GT PUSH2 0x66 JUMPI DUP1 PUSH4 0xAC30910C EQ PUSH2 0x29C JUMPI DUP1 PUSH4 0xAF640D0F EQ PUSH2 0x2B8 JUMPI DUP1 PUSH4 0xBA479B7E EQ PUSH2 0x2D6 JUMPI DUP1 PUSH4 0xCBC92809 EQ PUSH2 0x30B JUMPI PUSH2 0xCF JUMP JUMPDEST DUP1 PUSH4 0x7D0FA287 EQ PUSH2 0x207 JUMPI DUP1 PUSH4 0x9A8C9119 EQ PUSH2 0x239 JUMPI DUP1 PUSH4 0xA4E7AE05 EQ PUSH2 0x26B JUMPI PUSH2 0xCF JUMP JUMPDEST DUP1 PUSH4 0xFB0B1B2 EQ PUSH2 0xD4 JUMPI DUP1 PUSH4 0x1916E139 EQ PUSH2 0x10E JUMPI DUP1 PUSH4 0x28266697 EQ PUSH2 0x140 JUMPI DUP1 PUSH4 0x356B1F1E EQ PUSH2 0x172 JUMPI DUP1 PUSH4 0x39987F94 EQ PUSH2 0x1A4 JUMPI DUP1 PUSH4 0x62BDA16B EQ PUSH2 0x1D7 JUMPI JUMPDEST PUSH1 0x0 DUP1 REVERT JUMPDEST PUSH2 0xEE PUSH1 0x4 DUP1 CALLDATASIZE SUB DUP2 ADD SWAP1 PUSH2 0xE9 SWAP2 SWAP1 PUSH2 0x1BF6 JUMP JUMPDEST PUSH2 0x33B JUMP JUMPDEST PUSH1 0x40 MLOAD PUSH2 0x105 SWAP12 SWAP11 SWAP10 SWAP9 SWAP8 SWAP7 SWAP6 SWAP5 SWAP4 SWAP3 SWAP2 SWAP1 PUSH2 0x217C JUMP JUMPDEST PUSH1 0x40 MLOAD DUP1 SWAP2 SUB SWAP1 RETURN JUMPDEST PUSH2 0x128 PUSH1 0x4 DUP1 CALLDATASIZE SUB DUP2 ADD SWAP1 PUSH2 0x123 SWAP2 SWAP1 PUSH2 0x1BC9 JUMP JUMPDEST PUSH2 0x536 JUMP JUMPDEST PUSH1 0x40 MLOAD PUSH2 0x137 SWAP4 SWAP3 SWAP2 SWAP1 PUSH2 0x2097 JUMP JUMPDEST PUSH1 0x40 MLOAD DUP1 SWAP2 SUB SWAP1 RETURN JUMPDEST PUSH2 0x15A PUSH1 0x4 DUP1 CALLDATASIZE SUB DUP2 ADD SWAP1 PUSH2 0x155 SWAP2 SWAP1 PUSH2 0x1BC9 JUMP JUMPDEST PUSH2 0x602 JUMP JUMPDEST PUSH1 0x40 MLOAD PUSH2 0x169 SWAP4 SWAP3 SWAP2 SWAP1 PUSH2 0x2097 JUMP JUMPDEST PUSH1 0x40 MLOAD DUP1 SWAP2 SUB SWAP1 RETURN JUMPDEST PUSH2 0x18C PUSH1 0x4 DUP1 CALLDATASIZE SUB DUP2 ADD SWAP1 PUSH2 0x187 SWAP2 SWAP1 PUSH2 0x1BC9 JUMP JUMPDEST PUSH2 0x6CE JUMP JUMPDEST PUSH1 0x40 MLOAD PUSH2 0x19B SWAP4 SWAP3 SWAP2 SWAP1 PUSH2 0x2097 JUMP JUMPDEST PUSH1 0x40 MLOAD DUP1 SWAP2 SUB SWAP1 RETURN JUMPDEST PUSH2 0x1BE PUSH1 0x4 DUP1 CALLDATASIZE SUB DUP2 ADD SWAP1 PUSH2 0x1B9 SWAP2 SWAP1 PUSH2 0x1BC9 JUMP JUMPDEST PUSH2 0x79A JUMP JUMPDEST PUSH1 0x40 MLOAD PUSH2 0x1CE SWAP5 SWAP4 SWAP3 SWAP2 SWAP1 PUSH2 0x20D5 JUMP JUMPDEST PUSH1 0x40 MLOAD DUP1 SWAP2 SUB SWAP1 RETURN JUMPDEST PUSH2 0x1F1 PUSH1 0x4 DUP1 CALLDATASIZE SUB DUP2 ADD SWAP1 PUSH2 0x1EC SWAP2 SWAP1 PUSH2 0x1C36 JUMP JUMPDEST PUSH2 0x86C JUMP JUMPDEST PUSH1 0x40 MLOAD PUSH2 0x1FE SWAP2 SWAP1 PUSH2 0x2161 JUMP JUMPDEST PUSH1 0x40 MLOAD DUP1 SWAP2 SUB SWAP1 RETURN JUMPDEST PUSH2 0x221 PUSH1 0x4 DUP1 CALLDATASIZE SUB DUP2 ADD SWAP1 PUSH2 0x21C SWAP2 SWAP1 PUSH2 0x1BC9 JUMP JUMPDEST PUSH2 0xF46 JUMP JUMPDEST PUSH1 0x40 MLOAD PUSH2 0x230 SWAP4 SWAP3 SWAP2 SWAP1 PUSH2 0x2097 JUMP JUMPDEST PUSH1 0x40 MLOAD DUP1 SWAP2 SUB SWAP1 RETURN JUMPDEST PUSH2 0x253 PUSH1 0x4 DUP1 CALLDATASIZE SUB DUP2 ADD SWAP1 PUSH2 0x24E SWAP2 SWAP1 PUSH2 0x1BC9 JUMP JUMPDEST PUSH2 0x1012 JUMP JUMPDEST PUSH1 0x40 MLOAD PUSH2 0x262 SWAP4 SWAP3 SWAP2 SWAP1 PUSH2 0x2097 JUMP JUMPDEST PUSH1 0x40 MLOAD DUP1 SWAP2 SUB SWAP1 RETURN JUMPDEST PUSH2 0x285 PUSH1 0x4 DUP1 CALLDATASIZE SUB DUP2 ADD SWAP1 PUSH2 0x280 SWAP2 SWAP1 PUSH2 0x1E17 JUMP JUMPDEST PUSH2 0x10DE JUMP JUMPDEST PUSH1 0x40 MLOAD PUSH2 0x293 SWAP3 SWAP2 SWAP1 PUSH2 0x222E JUMP JUMPDEST PUSH1 0x40 MLOAD DUP1 SWAP2 SUB SWAP1 RETURN JUMPDEST PUSH2 0x2B6 PUSH1 0x4 DUP1 CALLDATASIZE SUB DUP2 ADD SWAP1 PUSH2 0x2B1 SWAP2 SWAP1 PUSH2 0x1D31 JUMP JUMPDEST PUSH2 0x119A JUMP JUMPDEST STOP JUMPDEST PUSH2 0x2C0 PUSH2 0x1888 JUMP JUMPDEST PUSH1 0x40 MLOAD PUSH2 0x2CD SWAP2 SWAP1 PUSH2 0x2161 JUMP JUMPDEST PUSH1 0x40 MLOAD DUP1 SWAP2 SUB SWAP1 RETURN JUMPDEST PUSH2 0x2F0 PUSH1 0x4 DUP1 CALLDATASIZE SUB DUP2 ADD SWAP1 PUSH2 0x2EB SWAP2 SWAP1 PUSH2 0x1BC9 JUMP JUMPDEST PUSH2 0x188E JUMP JUMPDEST PUSH1 0x40 MLOAD PUSH2 0x302 SWAP7 SWAP6 SWAP5 SWAP4 SWAP3 SWAP2 SWAP1 PUSH2 0x2028 JUMP JUMPDEST PUSH1 0x40 MLOAD DUP1 SWAP2 SUB SWAP1 RETURN JUMPDEST PUSH2 0x325 PUSH1 0x4 DUP1 CALLDATASIZE SUB DUP2 ADD SWAP1 PUSH2 0x320 SWAP2 SWAP1 PUSH2 0x1BC9 JUMP JUMPDEST PUSH2 0x1A22 JUMP JUMPDEST PUSH1 0x40 MLOAD PUSH2 0x332 SWAP2 SWAP1 PUSH2 0x200D JUMP JUMPDEST PUSH1 0x40 MLOAD DUP1 SWAP2 SUB SWAP1 RETURN JUMPDEST PUSH1 0xD PUSH1 0x20 MSTORE DUP2 PUSH1 0x0 MSTORE PUSH1 0x40 PUSH1 0x0 KECCAK256 PUSH1 0x20 MSTORE DUP1 PUSH1 0x0 MSTORE PUSH1 0x40 PUSH1 0x0 KECCAK256 PUSH1 0x0 SWAP2 POP SWAP2 POP POP DUP1 PUSH1 0x0 ADD SLOAD SWAP1 DUP1 PUSH1 0x1 ADD PUSH1 0x0 SWAP1 SLOAD SWAP1 PUSH2 0x100 EXP SWAP1 DIV PUSH20 0xFFFFFFFFFFFFFFFFFFFFFFFFFFFFFFFFFFFFFFFF AND SWAP1 DUP1 PUSH1 0x1 ADD PUSH1 0x14 SWAP1 SLOAD SWAP1 PUSH2 0x100 EXP SWAP1 DIV PUSH4 0xFFFFFFFF AND SWAP1 DUP1 PUSH1 0x1 ADD PUSH1 0x18 SWAP1 SLOAD SWAP1 PUSH2 0x100 EXP SWAP1 DIV PUSH1 0xFF AND SWAP1 DUP1 PUSH1 0x1 ADD PUSH1 0x19 SWAP1 SLOAD SWAP1 PUSH2 0x100 EXP SWAP1 DIV PUSH1 0xFF AND SWAP1 DUP1 PUSH1 0x2 ADD DUP1 SLOAD PUSH2 0x3D3 SWAP1 PUSH2 0x2418 JUMP JUMPDEST DUP1 PUSH1 0x1F ADD PUSH1 0x20 DUP1 SWAP2 DIV MUL PUSH1 0x20 ADD PUSH1 0x40 MLOAD SWAP1 DUP2 ADD PUSH1 0x40 MSTORE DUP1 SWAP3 SWAP2 SWAP1 DUP2 DUP2 MSTORE PUSH1 0x20 ADD DUP3 DUP1 SLOAD PUSH2 0x3FF SWAP1 PUSH2 0x2418 JUMP JUMPDEST DUP1 ISZERO PUSH2 0x44C JUMPI DUP1 PUSH1 0x1F LT PUSH2 0x421 JUMPI PUSH2 0x100 DUP1 DUP4 SLOAD DIV MUL DUP4 MSTORE SWAP2 PUSH1 0x20 ADD SWAP2 PUSH2 0x44C JUMP JUMPDEST DUP3 ADD SWAP2 SWAP1 PUSH1 0x0 MSTORE PUSH1 0x20 PUSH1 0x0 KECCAK256 SWAP1 JUMPDEST DUP2 SLOAD DUP2 MSTORE SWAP1 PUSH1 0x1 ADD SWAP1 PUSH1 0x20 ADD DUP1 DUP4 GT PUSH2 0x42F JUMPI DUP3 SWAP1 SUB PUSH1 0x1F AND DUP3 ADD SWAP2 JUMPDEST POP POP POP POP POP SWAP1 DUP1 PUSH1 0x3 ADD SLOAD SWAP1 DUP1 PUSH1 0x4 ADD SLOAD SWAP1 DUP1 PUSH1 0x5 ADD PUSH1 0x0 SWAP1 SLOAD SWAP1 PUSH2 0x100 EXP SWAP1 DIV PUSH1 0xFF AND SWAP1 DUP1 PUSH1 0x5 ADD PUSH1 0x1 SWAP1 SLOAD SWAP1 PUSH2 0x100 EXP SWAP1 DIV PUSH4 0xFFFFFFFF AND SWAP1 DUP1 PUSH1 0x6 ADD PUSH1 0x40 MLOAD DUP1 PUSH1 0x60 ADD PUSH1 0x40 MSTORE SWAP1 DUP2 PUSH1 0x0 DUP3 ADD SLOAD DUP2 MSTORE PUSH1 0x20 ADD PUSH1 0x1 DUP3 ADD PUSH1 0x0 SWAP1 SLOAD SWAP1 PUSH2 0x100 EXP SWAP1 DIV PUSH20 0xFFFFFFFFFFFFFFFFFFFFFFFFFFFFFFFFFFFFFFFF AND PUSH20 0xFFFFFFFFFFFFFFFFFFFFFFFFFFFFFFFFFFFFFFFF AND PUSH20 0xFFFFFFFFFFFFFFFFFFFFFFFFFFFFFFFFFFFFFFFF AND DUP2 MSTORE PUSH1 0x20 ADD PUSH1 0x1 DUP3 ADD PUSH1 0x14 SWAP1 SLOAD SWAP1 PUSH2 0x100 EXP SWAP1 DIV PUSH1 0xFF AND PUSH1 0x2 DUP2 GT ISZERO PUSH2 0x51B JUMPI PUSH2 0x51A PUSH2 0x24F3 JUMP JUMPDEST JUMPDEST PUSH1 0x2 DUP2 GT ISZERO PUSH2 0x52D JUMPI PUSH2 0x52C PUSH2 0x24F3 JUMP JUMPDEST JUMPDEST DUP2 MSTORE POP POP SWAP1 POP DUP12 JUMP JUMPDEST PUSH1 0x7 PUSH1 0x20 MSTORE DUP1 PUSH1 0x0 MSTORE PUSH1 0x40 PUSH1 0x0 KECCAK256 PUSH1 0x0 SWAP2 POP SWAP1 POP DUP1 PUSH1 0x0 ADD PUSH1 0x0 SWAP1 SLOAD SWAP1 PUSH2 0x100 EXP SWAP1 DIV PUSH1 0xFF AND SWAP1 DUP1 PUSH1 0x1 ADD DUP1 SLOAD PUSH2 0x56C SWAP1 PUSH2 0x2418 JUMP JUMPDEST DUP1 PUSH1 0x1F ADD PUSH1 0x20 DUP1 SWAP2 DIV MUL PUSH1 0x20 ADD PUSH1 0x40 MLOAD SWAP1 DUP2 ADD PUSH1 0x40 MSTORE DUP1 SWAP3 SWAP2 SWAP1 DUP2 DUP2 MSTORE PUSH1 0x20 ADD DUP3 DUP1 SLOAD PUSH2 0x598 SWAP1 PUSH2 0x2418 JUMP JUMPDEST DUP1 ISZERO PUSH2 0x5E5 JUMPI DUP1 PUSH1 0x1F LT PUSH2 0x5BA JUMPI PUSH2 0x100 DUP1 DUP4 SLOAD DIV MUL DUP4 MSTORE SWAP2 PUSH1 0x20 ADD SWAP2 PUSH2 0x5E5 JUMP JUMPDEST DUP3 ADD SWAP2 SWAP1 PUSH1 0x0 MSTORE PUSH1 0x20 PUSH1 0x0 KECCAK256 SWAP1 JUMPDEST DUP2 SLOAD DUP2 MSTORE SWAP1 PUSH1 0x1 ADD SWAP1 PUSH1 0x20 ADD DUP1 DUP4 GT PUSH2 0x5C8 JUMPI DUP3 SWAP1 SUB PUSH1 0x1F AND DUP3 ADD SWAP2 JUMPDEST POP POP POP POP POP SWAP1 DUP1 PUSH1 0x2 ADD PUSH1 0x0 SWAP1 SLOAD SWAP1 PUSH2 0x100 EXP SWAP1 DIV PUSH1 0xFF AND SWAP1 POP DUP4 JUMP JUMPDEST PUSH1 0x4 PUSH1 0x20 MSTORE DUP1 PUSH1 0x0 MSTORE PUSH1 0x40 PUSH1 0x0 KECCAK256 PUSH1 0x0 SWAP2 POP SWAP1 POP DUP1 PUSH1 0x0 ADD PUSH1 0x0 SWAP1 SLOAD SWAP1 PUSH2 0x100 EXP SWAP1 DIV PUSH1 0xFF AND SWAP1 DUP1 PUSH1 0x1 ADD DUP1 SLOAD PUSH2 0x638 SWAP1 PUSH2 0x2418 JUMP JUMPDEST DUP1 PUSH1 0x1F ADD PUSH1 0x20 DUP1 SWAP2 DIV MUL PUSH1 0x20 ADD PUSH1 0x40 MLOAD SWAP1 DUP2 ADD PUSH1 0x40 MSTORE DUP1 SWAP3 SWAP2 SWAP1 DUP2 DUP2 MSTORE PUSH1 0x20 ADD DUP3 DUP1 SLOAD PUSH2 0x664 SWAP1 PUSH2 0x2418 JUMP JUMPDEST DUP1 ISZERO PUSH2 0x6B1 JUMPI DUP1 PUSH1 0x1F LT PUSH2 0x686 JUMPI PUSH2 0x100 DUP1 DUP4 SLOAD DIV MUL DUP4 MSTORE SWAP2 PUSH1 0x20 ADD SWAP2 PUSH2 0x6B1 JUMP JUMPDEST DUP3 ADD SWAP2 SWAP1 PUSH1 0x0 MSTORE PUSH1 0x20 PUSH1 0x0 KECCAK256 SWAP1 JUMPDEST DUP2 SLOAD DUP2 MSTORE SWAP1 PUSH1 0x1 ADD SWAP1 PUSH1 0x20 ADD DUP1 DUP4 GT PUSH2 0x694 JUMPI DUP3 SWAP1 SUB PUSH1 0x1F AND DUP3 ADD SWAP2 JUMPDEST POP POP POP POP POP SWAP1 DUP1 PUSH1 0x2 ADD PUSH1 0x0 SWAP1 SLOAD SWAP1 PUSH2 0x100 EXP SWAP1 DIV PUSH1 0xFF AND SWAP1 POP DUP4 JUMP JUMPDEST PUSH1 0xA PUSH1 0x20 MSTORE DUP1 PUSH1 0x0 MSTORE PUSH1 0x40 PUSH1 0x0 KECCAK256 PUSH1 0x0 SWAP2 POP SWAP1 POP DUP1 PUSH1 0x0 ADD PUSH1 0x0 SWAP1 SLOAD SWAP1 PUSH2 0x100 EXP SWAP1 DIV PUSH1 0xFF AND SWAP1 DUP1 PUSH1 0x1 ADD DUP1 SLOAD PUSH2 0x704 SWAP1 PUSH2 0x2418 JUMP JUMPDEST DUP1 PUSH1 0x1F ADD PUSH1 0x20 DUP1 SWAP2 DIV MUL PUSH1 0x20 ADD PUSH1 0x40 MLOAD SWAP1 DUP2 ADD PUSH1 0x40 MSTORE DUP1 SWAP3 SWAP2 SWAP1 DUP2 DUP2 MSTORE PUSH1 0x20 ADD DUP3 DUP1 SLOAD PUSH2 0x730 SWAP1 PUSH2 0x2418 JUMP JUMPDEST DUP1 ISZERO PUSH2 0x77D JUMPI DUP1 PUSH1 0x1F LT PUSH2 0x752 JUMPI PUSH2 0x100 DUP1 DUP4 SLOAD DIV MUL DUP4 MSTORE SWAP2 PUSH1 0x20 ADD SWAP2 PUSH2 0x77D JUMP JUMPDEST DUP3 ADD SWAP2 SWAP1 PUSH1 0x0 MSTORE PUSH1 0x20 PUSH1 0x0 KECCAK256 SWAP1 JUMPDEST DUP2 SLOAD DUP2 MSTORE SWAP1 PUSH1 0x1 ADD SWAP1 PUSH1 0x20 ADD DUP1 DUP4 GT PUSH2 0x760 JUMPI DUP3 SWAP1 SUB PUSH1 0x1F AND DUP3 ADD SWAP2 JUMPDEST POP POP POP POP POP SWAP1 DUP1 PUSH1 0x2 ADD PUSH1 0x0 SWAP1 SLOAD SWAP1 PUSH2 0x100 EXP SWAP1 DIV PUSH1 0xFF AND SWAP1 POP DUP4 JUMP JUMPDEST PUSH1 0x6 PUSH1 0x20 MSTORE DUP1 PUSH1 0x0 MSTORE PUSH1 0x40 PUSH1 0x0 KECCAK256 PUSH1 0x0 SWAP2 POP SWAP1 POP DUP1 PUSH1 0x0 ADD PUSH1 0x0 SWAP1 SLOAD SWAP1 PUSH2 0x100 EXP SWAP1 DIV PUSH1 0xFF AND SWAP1 DUP1 PUSH1 0x0 ADD PUSH1 0x1 SWAP1 SLOAD SWAP1 PUSH2 0x100 EXP SWAP1 DIV PUSH1 0xFF AND SWAP1 DUP1 PUSH1 0x1 ADD SLOAD SWAP1 DUP1 PUSH1 0x2 ADD DUP1 SLOAD PUSH2 0x7E9 SWAP1 PUSH2 0x2418 JUMP JUMPDEST DUP1 PUSH1 0x1F ADD PUSH1 0x20 DUP1 SWAP2 DIV MUL PUSH1 0x20 ADD PUSH1 0x40 MLOAD SWAP1 DUP2 ADD PUSH1 0x40 MSTORE DUP1 SWAP3 SWAP2 SWAP1 DUP2 DUP2 MSTORE PUSH1 0x20 ADD DUP3 DUP1 SLOAD PUSH2 0x815 SWAP1 PUSH2 0x2418 JUMP JUMPDEST DUP1 ISZERO PUSH2 0x862 JUMPI DUP1 PUSH1 0x1F LT PUSH2 0x837 JUMPI PUSH2 0x100 DUP1 DUP4 SLOAD DIV MUL DUP4 MSTORE SWAP2 PUSH1 0x20 ADD SWAP2 PUSH2 0x862 JUMP JUMPDEST DUP3 ADD SWAP2 SWAP1 PUSH1 0x0 MSTORE PUSH1 0x20 PUSH1 0x0 KECCAK256 SWAP1 JUMPDEST DUP2 SLOAD DUP2 MSTORE SWAP1 PUSH1 0x1 ADD SWAP1 PUSH1 0x20 ADD DUP1 DUP4 GT PUSH2 0x845 JUMPI DUP3 SWAP1 SUB PUSH1 0x1F AND DUP3 ADD SWAP2 JUMPDEST POP POP POP POP POP SWAP1 POP DUP5 JUMP JUMPDEST PUSH1 0x0 PUSH1 0x4 PUSH1 0x0 CALLER PUSH20 0xFFFFFFFFFFFFFFFFFFFFFFFFFFFFFFFFFFFFFFFF AND PUSH20 0xFFFFFFFFFFFFFFFFFFFFFFFFFFFFFFFFFFFFFFFF AND DUP2 MSTORE PUSH1 0x20 ADD SWAP1 DUP2 MSTORE PUSH1 0x20 ADD PUSH1 0x0 KECCAK256 PUSH1 0x0 ADD PUSH1 0x0 SWAP1 SLOAD SWAP1 PUSH2 0x100 EXP SWAP1 DIV PUSH1 0xFF AND DUP1 PUSH2 0x915 JUMPI POP PUSH1 0x6 PUSH1 0x0 CALLER PUSH20 0xFFFFFFFFFFFFFFFFFFFFFFFFFFFFFFFFFFFFFFFF AND PUSH20 0xFFFFFFFFFFFFFFFFFFFFFFFFFFFFFFFFFFFFFFFF AND DUP2 MSTORE PUSH1 0x20 ADD SWAP1 DUP2 MSTORE PUSH1 0x20 ADD PUSH1 0x0 KECCAK256 PUSH1 0x0 ADD PUSH1 0x0 SWAP1 SLOAD SWAP1 PUSH2 0x100 EXP SWAP1 DIV PUSH1 0xFF AND JUMPDEST DUP1 PUSH2 0x96C JUMPI POP PUSH1 0x8 PUSH1 0x0 CALLER PUSH20 0xFFFFFFFFFFFFFFFFFFFFFFFFFFFFFFFFFFFFFFFF AND PUSH20 0xFFFFFFFFFFFFFFFFFFFFFFFFFFFFFFFFFFFFFFFF AND DUP2 MSTORE PUSH1 0x20 ADD SWAP1 DUP2 MSTORE PUSH1 0x20 ADD PUSH1 0x0 KECCAK256 PUSH1 0x0 ADD PUSH1 0x0 SWAP1 SLOAD SWAP1 PUSH2 0x100 EXP SWAP1 DIV PUSH1 0xFF AND JUMPDEST PUSH2 0x9AB JUMPI PUSH1 0x40 MLOAD PUSH32 0x8C379A000000000000000000000000000000000000000000000000000000000 DUP2 MSTORE PUSH1 0x4 ADD PUSH2 0x9A2 SWAP1 PUSH2 0x2141 JUMP JUMPDEST PUSH1 0x40 MLOAD DUP1 SWAP2 SUB SWAP1 REVERT JUMPDEST PUSH1 0x3 PUSH1 0x0 DUP13 PUSH20 0xFFFFFFFFFFFFFFFFFFFFFFFFFFFFFFFFFFFFFFFF AND PUSH20 0xFFFFFFFFFFFFFFFFFFFFFFFFFFFFFFFFFFFFFFFF AND DUP2 MSTORE PUSH1 0x20 ADD SWAP1 DUP2 MSTORE PUSH1 0x20 ADD PUSH1 0x0 KECCAK256 PUSH1 0x0 ADD PUSH1 0x0 SWAP1 SLOAD SWAP1 PUSH2 0x100 EXP SWAP1 DIV PUSH1 0xFF AND PUSH2 0xA3A JUMPI PUSH1 0x40 MLOAD PUSH32 0x8C379A000000000000000000000000000000000000000000000000000000000 DUP2 MSTORE PUSH1 0x4 ADD PUSH2 0xA31 SWAP1 PUSH2 0x2121 JUMP JUMPDEST PUSH1 0x40 MLOAD DUP1 SWAP2 SUB SWAP1 REVERT JUMPDEST DUP9 PUSH1 0xD PUSH1 0x0 DUP14 PUSH20 0xFFFFFFFFFFFFFFFFFFFFFFFFFFFFFFFFFFFFFFFF AND PUSH20 0xFFFFFFFFFFFFFFFFFFFFFFFFFFFFFFFFFFFFFFFF AND DUP2 MSTORE PUSH1 0x20 ADD SWAP1 DUP2 MSTORE PUSH1 0x20 ADD PUSH1 0x0 KECCAK256 PUSH1 0x0 DUP13 DUP2 MSTORE PUSH1 0x20 ADD SWAP1 DUP2 MSTORE PUSH1 0x20 ADD PUSH1 0x0 KECCAK256 PUSH1 0x1 ADD PUSH1 0x14 PUSH2 0x100 EXP DUP2 SLOAD DUP2 PUSH4 0xFFFFFFFF MUL NOT AND SWAP1 DUP4 PUSH4 0xFFFFFFFF AND MUL OR SWAP1 SSTORE POP DUP8 PUSH1 0xD PUSH1 0x0 DUP14 PUSH20 0xFFFFFFFFFFFFFFFFFFFFFFFFFFFFFFFFFFFFFFFF AND PUSH20 0xFFFFFFFFFFFFFFFFFFFFFFFFFFFFFFFFFFFFFFFF AND DUP2 MSTORE PUSH1 0x20 ADD SWAP1 DUP2 MSTORE PUSH1 0x20 ADD PUSH1 0x0 KECCAK256 PUSH1 0x0 DUP13 DUP2 MSTORE PUSH1 0x20 ADD SWAP1 DUP2 MSTORE PUSH1 0x20 ADD PUSH1 0x0 KECCAK256 PUSH1 0x1 ADD PUSH1 0x18 PUSH2 0x100 EXP DUP2 SLOAD DUP2 PUSH1 0xFF MUL NOT AND SWAP1 DUP4 PUSH1 0xFF AND MUL OR SWAP1 SSTORE POP DUP7 PUSH1 0xD PUSH1 0x0 DUP14 PUSH20 0xFFFFFFFFFFFFFFFFFFFFFFFFFFFFFFFFFFFFFFFF AND PUSH20 0xFFFFFFFFFFFFFFFFFFFFFFFFFFFFFFFFFFFFFFFF AND DUP2 MSTORE PUSH1 0x20 ADD SWAP1 DUP2 MSTORE PUSH1 0x20 ADD PUSH1 0x0 KECCAK256 PUSH1 0x0 DUP13 DUP2 MSTORE PUSH1 0x20 ADD SWAP1 DUP2 MSTORE PUSH1 0x20 ADD PUSH1 0x0 KECCAK256 PUSH1 0x1 ADD PUSH1 0x19 PUSH2 0x100 EXP DUP2 SLOAD DUP2 PUSH1 0xFF MUL NOT AND SWAP1 DUP4 PUSH1 0x2 DUP2 GT ISZERO PUSH2 0xB8E JUMPI PUSH2 0xB8D PUSH2 0x24F3 JUMP JUMPDEST JUMPDEST MUL OR SWAP1 SSTORE POP DUP6 PUSH1 0xD PUSH1 0x0 DUP14 PUSH20 0xFFFFFFFFFFFFFFFFFFFFFFFFFFFFFFFFFFFFFFFF AND PUSH20 0xFFFFFFFFFFFFFFFFFFFFFFFFFFFFFFFFFFFFFFFF AND DUP2 MSTORE PUSH1 0x20 ADD SWAP1 DUP2 MSTORE PUSH1 0x20 ADD PUSH1 0x0 KECCAK256 PUSH1 0x0 DUP13 DUP2 MSTORE PUSH1 0x20 ADD SWAP1 DUP2 MSTORE PUSH1 0x20 ADD PUSH1 0x0 KECCAK256 PUSH1 0x2 ADD SWAP1 DUP1 MLOAD SWAP1 PUSH1 0x20 ADD SWAP1 PUSH2 0xBFA SWAP3 SWAP2 SWAP1 PUSH2 0x1A4D JUMP JUMPDEST POP DUP5 PUSH1 0xD PUSH1 0x0 DUP14 PUSH20 0xFFFFFFFFFFFFFFFFFFFFFFFFFFFFFFFFFFFFFFFF AND PUSH20 0xFFFFFFFFFFFFFFFFFFFFFFFFFFFFFFFFFFFFFFFF AND DUP2 MSTORE PUSH1 0x20 ADD SWAP1 DUP2 MSTORE PUSH1 0x20 ADD PUSH1 0x0 KECCAK256 PUSH1 0x0 DUP13 DUP2 MSTORE PUSH1 0x20 ADD SWAP1 DUP2 MSTORE PUSH1 0x20 ADD PUSH1 0x0 KECCAK256 PUSH1 0x3 ADD DUP2 SWAP1 SSTORE POP DUP4 PUSH1 0xD PUSH1 0x0 DUP14 PUSH20 0xFFFFFFFFFFFFFFFFFFFFFFFFFFFFFFFFFFFFFFFF AND PUSH20 0xFFFFFFFFFFFFFFFFFFFFFFFFFFFFFFFFFFFFFFFF AND DUP2 MSTORE PUSH1 0x20 ADD SWAP1 DUP2 MSTORE PUSH1 0x20 ADD PUSH1 0x0 KECCAK256 PUSH1 0x0 DUP13 DUP2 MSTORE PUSH1 0x20 ADD SWAP1 DUP2 MSTORE PUSH1 0x20 ADD PUSH1 0x0 KECCAK256 PUSH1 0x4 ADD DUP2 SWAP1 SSTORE POP DUP3 PUSH1 0xD PUSH1 0x0 DUP14 PUSH20 0xFFFFFFFFFFFFFFFFFFFFFFFFFFFFFFFFFFFFFFFF AND PUSH20 0xFFFFFFFFFFFFFFFFFFFFFFFFFFFFFFFFFFFFFFFF AND DUP2 MSTORE PUSH1 0x20 ADD SWAP1 DUP2 MSTORE PUSH1 0x20 ADD PUSH1 0x0 KECCAK256 PUSH1 0x0 DUP13 DUP2 MSTORE PUSH1 0x20 ADD SWAP1 DUP2 MSTORE PUSH1 0x20 ADD PUSH1 0x0 KECCAK256 PUSH1 0x5 ADD PUSH1 0x0 PUSH2 0x100 EXP DUP2 SLOAD DUP2 PUSH1 0xFF MUL NOT AND SWAP1 DUP4 PUSH1 0xFF AND MUL OR SWAP1 SSTORE POP DUP2 PUSH1 0xD PUSH1 0x0 DUP14 PUSH20 0xFFFFFFFFFFFFFFFFFFFFFFFFFFFFFFFFFFFFFFFF AND PUSH20 0xFFFFFFFFFFFFFFFFFFFFFFFFFFFFFFFFFFFFFFFF AND DUP2 MSTORE PUSH1 0x20 ADD SWAP1 DUP2 MSTORE PUSH1 0x20 ADD PUSH1 0x0 KECCAK256 PUSH1 0x0 DUP13 DUP2 MSTORE PUSH1 0x20 ADD SWAP1 DUP2 MSTORE PUSH1 0x20 ADD PUSH1 0x0 KECCAK256 PUSH1 0x5 ADD PUSH1 0x1 PUSH2 0x100 EXP DUP2 SLOAD DUP2 PUSH4 0xFFFFFFFF MUL NOT AND SWAP1 DUP4 PUSH4 0xFFFFFFFF AND MUL OR SWAP1 SSTORE POP TIMESTAMP PUSH1 0xD PUSH1 0x0 DUP14 PUSH20 0xFFFFFFFFFFFFFFFFFFFFFFFFFFFFFFFFFFFFFFFF AND PUSH20 0xFFFFFFFFFFFFFFFFFFFFFFFFFFFFFFFFFFFFFFFF AND DUP2 MSTORE PUSH1 0x20 ADD SWAP1 DUP2 MSTORE PUSH1 0x20 ADD PUSH1 0x0 KECCAK256 PUSH1 0x0 DUP13 DUP2 MSTORE PUSH1 0x20 ADD SWAP1 DUP2 MSTORE PUSH1 0x20 ADD PUSH1 0x0 KECCAK256 PUSH1 0x6 ADD PUSH1 0x0 ADD DUP2 SWAP1 SSTORE POP PUSH1 0x1 PUSH1 0xD PUSH1 0x0 DUP14 PUSH20 0xFFFFFFFFFFFFFFFFFFFFFFFFFFFFFFFFFFFFFFFF AND PUSH20 0xFFFFFFFFFFFFFFFFFFFFFFFFFFFFFFFFFFFFFFFF AND DUP2 MSTORE PUSH1 0x20 ADD SWAP1 DUP2 MSTORE PUSH1 0x20 ADD PUSH1 0x0 KECCAK256 PUSH1 0x0 DUP13 DUP2 MSTORE PUSH1 0x20 ADD SWAP1 DUP2 MSTORE PUSH1 0x20 ADD PUSH1 0x0 KECCAK256 PUSH1 0x6 ADD PUSH1 0x1 ADD PUSH1 0x14 PUSH2 0x100 EXP DUP2 SLOAD DUP2 PUSH1 0xFF MUL NOT AND SWAP1 DUP4 PUSH1 0x2 DUP2 GT ISZERO PUSH2 0xE5E JUMPI PUSH2 0xE5D PUSH2 0x24F3 JUMP JUMPDEST JUMPDEST MUL OR SWAP1 SSTORE POP CALLER PUSH1 0xD PUSH1 0x0 DUP14 PUSH20 0xFFFFFFFFFFFFFFFFFFFFFFFFFFFFFFFFFFFFFFFF AND PUSH20 0xFFFFFFFFFFFFFFFFFFFFFFFFFFFFFFFFFFFFFFFF AND DUP2 MSTORE PUSH1 0x20 ADD SWAP1 DUP2 MSTORE PUSH1 0x20 ADD PUSH1 0x0 KECCAK256 PUSH1 0x0 DUP13 DUP2 MSTORE PUSH1 0x20 ADD SWAP1 DUP2 MSTORE PUSH1 0x20 ADD PUSH1 0x0 KECCAK256 PUSH1 0x6 ADD PUSH1 0x1 ADD PUSH1 0x0 PUSH2 0x100 EXP DUP2 SLOAD DUP2 PUSH20 0xFFFFFFFFFFFFFFFFFFFFFFFFFFFFFFFFFFFFFFFF MUL NOT AND SWAP1 DUP4 PUSH20 0xFFFFFFFFFFFFFFFFFFFFFFFFFFFFFFFFFFFFFFFF AND MUL OR SWAP1 SSTORE POP PUSH32 0xD2D369C2A311BBEDF49B15D0D8D116C0A1AAF3ADF72494F1EBB4275C54CAD73 DUP12 DUP5 DUP12 DUP12 PUSH1 0x40 MLOAD PUSH2 0xF2D SWAP5 SWAP4 SWAP3 SWAP2 SWAP1 PUSH2 0x1FC8 JUMP JUMPDEST PUSH1 0x40 MLOAD DUP1 SWAP2 SUB SWAP1 LOG1 DUP10 SWAP1 POP SWAP11 SWAP10 POP POP POP POP POP POP POP POP POP POP JUMP JUMPDEST PUSH1 0x8 PUSH1 0x20 MSTORE DUP1 PUSH1 0x0 MSTORE PUSH1 0x40 PUSH1 0x0 KECCAK256 PUSH1 0x0 SWAP2 POP SWAP1 POP DUP1 PUSH1 0x0 ADD PUSH1 0x0 SWAP1 SLOAD SWAP1 PUSH2 0x100 EXP SWAP1 DIV PUSH1 0xFF AND SWAP1 DUP1 PUSH1 0x1 ADD DUP1 SLOAD PUSH2 0xF7C SWAP1 PUSH2 0x2418 JUMP JUMPDEST DUP1 PUSH1 0x1F ADD PUSH1 0x20 DUP1 SWAP2 DIV MUL PUSH1 0x20 ADD PUSH1 0x40 MLOAD SWAP1 DUP2 ADD PUSH1 0x40 MSTORE DUP1 SWAP3 SWAP2 SWAP1 DUP2 DUP2 MSTORE PUSH1 0x20 ADD DUP3 DUP1 SLOAD PUSH2 0xFA8 SWAP1 PUSH2 0x2418 JUMP JUMPDEST DUP1 ISZERO PUSH2 0xFF5 JUMPI DUP1 PUSH1 0x1F LT PUSH2 0xFCA JUMPI PUSH2 0x100 DUP1 DUP4 SLOAD DIV MUL DUP4 MSTORE SWAP2 PUSH1 0x20 ADD SWAP2 PUSH2 0xFF5 JUMP JUMPDEST DUP3 ADD SWAP2 SWAP1 PUSH1 0x0 MSTORE PUSH1 0x20 PUSH1 0x0 KECCAK256 SWAP1 JUMPDEST DUP2 SLOAD DUP2 MSTORE SWAP1 PUSH1 0x1 ADD SWAP1 PUSH1 0x20 ADD DUP1 DUP4 GT PUSH2 0xFD8 JUMPI DUP3 SWAP1 SUB PUSH1 0x1F AND DUP3 ADD SWAP2 JUMPDEST POP POP POP POP POP SWAP1 DUP1 PUSH1 0x2 ADD PUSH1 0x0 SWAP1 SLOAD SWAP1 PUSH2 0x100 EXP SWAP1 DIV PUSH1 0xFF AND SWAP1 POP DUP4 JUMP JUMPDEST PUSH1 0x9 PUSH1 0x20 MSTORE DUP1 PUSH1 0x0 MSTORE PUSH1 0x40 PUSH1 0x0 KECCAK256 PUSH1 0x0 SWAP2 POP SWAP1 POP DUP1 PUSH1 0x0 ADD PUSH1 0x0 SWAP1 SLOAD SWAP1 PUSH2 0x100 EXP SWAP1 DIV PUSH1 0xFF AND SWAP1 DUP1 PUSH1 0x1 ADD DUP1 SLOAD PUSH2 0x1048 SWAP1 PUSH2 0x2418 JUMP JUMPDEST DUP1 PUSH1 0x1F ADD PUSH1 0x20 DUP1 SWAP2 DIV MUL PUSH1 0x20 ADD PUSH1 0x40 MLOAD SWAP1 DUP2 ADD PUSH1 0x40 MSTORE DUP1 SWAP3 SWAP2 SWAP1 DUP2 DUP2 MSTORE PUSH1 0x20 ADD DUP3 DUP1 SLOAD PUSH2 0x1074 SWAP1 PUSH2 0x2418 JUMP JUMPDEST DUP1 ISZERO PUSH2 0x10C1 JUMPI DUP1 PUSH1 0x1F LT PUSH2 0x1096 JUMPI PUSH2 0x100 DUP1 DUP4 SLOAD DIV MUL DUP4 MSTORE SWAP2 PUSH1 0x20 ADD SWAP2 PUSH2 0x10C1 JUMP JUMPDEST DUP3 ADD SWAP2 SWAP1 PUSH1 0x0 MSTORE PUSH1 0x20 PUSH1 0x0 KECCAK256 SWAP1 JUMPDEST DUP2 SLOAD DUP2 MSTORE SWAP1 PUSH1 0x1 ADD SWAP1 PUSH1 0x20 ADD DUP1 DUP4 GT PUSH2 0x10A4 JUMPI DUP3 SWAP1 SUB PUSH1 0x1F AND DUP3 ADD SWAP2 JUMPDEST POP POP POP POP POP SWAP1 DUP1 PUSH1 0x2 ADD PUSH1 0x0 SWAP1 SLOAD SWAP1 PUSH2 0x100 EXP SWAP1 DIV PUSH1 0xFF AND SWAP1 POP DUP4 JUMP JUMPDEST PUSH1 0xB PUSH1 0x20 MSTORE DUP1 PUSH1 0x0 MSTORE PUSH1 0x40 PUSH1 0x0 KECCAK256 PUSH1 0x0 SWAP2 POP SWAP1 POP DUP1 PUSH1 0x0 ADD PUSH1 0x0 SWAP1 SLOAD SWAP1 PUSH2 0x100 EXP SWAP1 DIV PUSH4 0xFFFFFFFF AND SWAP1 DUP1 PUSH1 0x1 ADD DUP1 SLOAD PUSH2 0x1117 SWAP1 PUSH2 0x2418 JUMP JUMPDEST DUP1 PUSH1 0x1F ADD PUSH1 0x20 DUP1 SWAP2 DIV MUL PUSH1 0x20 ADD PUSH1 0x40 MLOAD SWAP1 DUP2 ADD PUSH1 0x40 MSTORE DUP1 SWAP3 SWAP2 SWAP1 DUP2 DUP2 MSTORE PUSH1 0x20 ADD DUP3 DUP1 SLOAD PUSH2 0x1143 SWAP1 PUSH2 0x2418 JUMP JUMPDEST DUP1 ISZERO PUSH2 0x1190 JUMPI DUP1 PUSH1 0x1F LT PUSH2 0x1165 JUMPI PUSH2 0x100 DUP1 DUP4 SLOAD DIV MUL DUP4 MSTORE SWAP2 PUSH1 0x20 ADD SWAP2 PUSH2 0x1190 JUMP JUMPDEST DUP3 ADD SWAP2 SWAP1 PUSH1 0x0 MSTORE PUSH1 0x20 PUSH1 0x0 KECCAK256 SWAP1 JUMPDEST DUP2 SLOAD DUP2 MSTORE SWAP1 PUSH1 0x1 ADD SWAP1 PUSH1 0x20 ADD DUP1 DUP4 GT PUSH2 0x1173 JUMPI DUP3 SWAP1 SUB PUSH1 0x1F AND DUP3 ADD SWAP2 JUMPDEST POP POP POP POP POP SWAP1 POP DUP3 JUMP JUMPDEST PUSH1 0x4 PUSH1 0x0 CALLER PUSH20 0xFFFFFFFFFFFFFFFFFFFFFFFFFFFFFFFFFFFFFFFF AND PUSH20 0xFFFFFFFFFFFFFFFFFFFFFFFFFFFFFFFFFFFFFFFF AND DUP2 MSTORE PUSH1 0x20 ADD SWAP1 DUP2 MSTORE PUSH1 0x20 ADD PUSH1 0x0 KECCAK256 PUSH1 0x0 ADD PUSH1 0x0 SWAP1 SLOAD SWAP1 PUSH2 0x100 EXP SWAP1 DIV PUSH1 0xFF AND DUP1 PUSH2 0x1241 JUMPI POP PUSH1 0x6 PUSH1 0x0 CALLER PUSH20 0xFFFFFFFFFFFFFFFFFFFFFFFFFFFFFFFFFFFFFFFF AND PUSH20 0xFFFFFFFFFFFFFFFFFFFFFFFFFFFFFFFFFFFFFFFF AND DUP2 MSTORE PUSH1 0x20 ADD SWAP1 DUP2 MSTORE PUSH1 0x20 ADD PUSH1 0x0 KECCAK256 PUSH1 0x0 ADD PUSH1 0x0 SWAP1 SLOAD SWAP1 PUSH2 0x100 EXP SWAP1 DIV PUSH1 0xFF AND JUMPDEST DUP1 PUSH2 0x1298 JUMPI POP PUSH1 0x8 PUSH1 0x0 CALLER PUSH20 0xFFFFFFFFFFFFFFFFFFFFFFFFFFFFFFFFFFFFFFFF AND PUSH20 0xFFFFFFFFFFFFFFFFFFFFFFFFFFFFFFFFFFFFFFFF AND DUP2 MSTORE PUSH1 0x20 ADD SWAP1 DUP2 MSTORE PUSH1 0x20 ADD PUSH1 0x0 KECCAK256 PUSH1 0x0 ADD PUSH1 0x0 SWAP1 SLOAD SWAP1 PUSH2 0x100 EXP SWAP1 DIV PUSH1 0xFF AND JUMPDEST PUSH2 0x12D7 JUMPI PUSH1 0x40 MLOAD PUSH32 0x8C379A000000000000000000000000000000000000000000000000000000000 DUP2 MSTORE PUSH1 0x4 ADD PUSH2 0x12CE SWAP1 PUSH2 0x2141 JUMP JUMPDEST PUSH1 0x40 MLOAD DUP1 SWAP2 SUB SWAP1 REVERT JUMPDEST PUSH1 0x3 PUSH1 0x0 DUP11 PUSH20 0xFFFFFFFFFFFFFFFFFFFFFFFFFFFFFFFFFFFFFFFF AND PUSH20 0xFFFFFFFFFFFFFFFFFFFFFFFFFFFFFFFFFFFFFFFF AND DUP2 MSTORE PUSH1 0x20 ADD SWAP1 DUP2 MSTORE PUSH1 0x20 ADD PUSH1 0x0 KECCAK256 PUSH1 0x0 ADD PUSH1 0x0 SWAP1 SLOAD SWAP1 PUSH2 0x100 EXP SWAP1 DIV PUSH1 0xFF AND PUSH2 0x1366 JUMPI PUSH1 0x40 MLOAD PUSH32 0x8C379A000000000000000000000000000000000000000000000000000000000 DUP2 MSTORE PUSH1 0x4 ADD PUSH2 0x135D SWAP1 PUSH2 0x2121 JUMP JUMPDEST PUSH1 0x40 MLOAD DUP1 SWAP2 SUB SWAP1 REVERT JUMPDEST PUSH1 0x0 PUSH1 0xC PUSH1 0x0 DUP2 SLOAD DUP1 SWAP3 SWAP2 SWAP1 PUSH2 0x137B SWAP1 PUSH2 0x247B JUMP JUMPDEST SWAP2 SWAP1 POP SSTORE SWAP1 POP DUP9 PUSH1 0xD PUSH1 0x0 DUP13 PUSH20 0xFFFFFFFFFFFFFFFFFFFFFFFFFFFFFFFFFFFFFFFF AND PUSH20 0xFFFFFFFFFFFFFFFFFFFFFFFFFFFFFFFFFFFFFFFF AND DUP2 MSTORE PUSH1 0x20 ADD SWAP1 DUP2 MSTORE PUSH1 0x20 ADD PUSH1 0x0 KECCAK256 PUSH1 0x0 DUP4 DUP2 MSTORE PUSH1 0x20 ADD SWAP1 DUP2 MSTORE PUSH1 0x20 ADD PUSH1 0x0 KECCAK256 PUSH1 0x1 ADD PUSH1 0x14 PUSH2 0x100 EXP DUP2 SLOAD DUP2 PUSH4 0xFFFFFFFF MUL NOT AND SWAP1 DUP4 PUSH4 0xFFFFFFFF AND MUL OR SWAP1 SSTORE POP DUP8 PUSH1 0xD PUSH1 0x0 DUP13 PUSH20 0xFFFFFFFFFFFFFFFFFFFFFFFFFFFFFFFFFFFFFFFF AND PUSH20 0xFFFFFFFFFFFFFFFFFFFFFFFFFFFFFFFFFFFFFFFF AND DUP2 MSTORE PUSH1 0x20 ADD SWAP1 DUP2 MSTORE PUSH1 0x20 ADD PUSH1 0x0 KECCAK256 PUSH1 0x0 DUP4 DUP2 MSTORE PUSH1 0x20 ADD SWAP1 DUP2 MSTORE PUSH1 0x20 ADD PUSH1 0x0 KECCAK256 PUSH1 0x1 ADD PUSH1 0x18 PUSH2 0x100 EXP DUP2 SLOAD DUP2 PUSH1 0xFF MUL NOT AND SWAP1 DUP4 PUSH1 0xFF AND MUL OR SWAP1 SSTORE POP DUP7 PUSH1 0xD PUSH1 0x0 DUP13 PUSH20 0xFFFFFFFFFFFFFFFFFFFFFFFFFFFFFFFFFFFFFFFF AND PUSH20 0xFFFFFFFFFFFFFFFFFFFFFFFFFFFFFFFFFFFFFFFF AND DUP2 MSTORE PUSH1 0x20 ADD SWAP1 DUP2 MSTORE PUSH1 0x20 ADD PUSH1 0x0 KECCAK256 PUSH1 0x0 DUP4 DUP2 MSTORE PUSH1 0x20 ADD SWAP1 DUP2 MSTORE PUSH1 0x20 ADD PUSH1 0x0 KECCAK256 PUSH1 0x1 ADD PUSH1 0x19 PUSH2 0x100 EXP DUP2 SLOAD DUP2 PUSH1 0xFF MUL NOT AND SWAP1 DUP4 PUSH1 0x2 DUP2 GT ISZERO PUSH2 0x14D5 JUMPI PUSH2 0x14D4 PUSH2 0x24F3 JUMP JUMPDEST JUMPDEST MUL OR SWAP1 SSTORE POP DUP6 PUSH1 0xD PUSH1 0x0 DUP13 PUSH20 0xFFFFFFFFFFFFFFFFFFFFFFFFFFFFFFFFFFFFFFFF AND PUSH20 0xFFFFFFFFFFFFFFFFFFFFFFFFFFFFFFFFFFFFFFFF AND DUP2 MSTORE PUSH1 0x20 ADD SWAP1 DUP2 MSTORE PUSH1 0x20 ADD PUSH1 0x0 KECCAK256 PUSH1 0x0 DUP4 DUP2 MSTORE PUSH1 0x20 ADD SWAP1 DUP2 MSTORE PUSH1 0x20 ADD PUSH1 0x0 KECCAK256 PUSH1 0x2 ADD SWAP1 DUP1 MLOAD SWAP1 PUSH1 0x20 ADD SWAP1 PUSH2 0x1541 SWAP3 SWAP2 SWAP1 PUSH2 0x1A4D JUMP JUMPDEST POP DUP5 PUSH1 0xD PUSH1 0x0 DUP13 PUSH20 0xFFFFFFFFFFFFFFFFFFFFFFFFFFFFFFFFFFFFFFFF AND PUSH20 0xFFFFFFFFFFFFFFFFFFFFFFFFFFFFFFFFFFFFFFFF AND DUP2 MSTORE PUSH1 0x20 ADD SWAP1 DUP2 MSTORE PUSH1 0x20 ADD PUSH1 0x0 KECCAK256 PUSH1 0x0 DUP4 DUP2 MSTORE PUSH1 0x20 ADD SWAP1 DUP2 MSTORE PUSH1 0x20 ADD PUSH1 0x0 KECCAK256 PUSH1 0x3 ADD DUP2 SWAP1 SSTORE POP DUP4 PUSH1 0xD PUSH1 0x0 DUP13 PUSH20 0xFFFFFFFFFFFFFFFFFFFFFFFFFFFFFFFFFFFFFFFF AND PUSH20 0xFFFFFFFFFFFFFFFFFFFFFFFFFFFFFFFFFFFFFFFF AND DUP2 MSTORE PUSH1 0x20 ADD SWAP1 DUP2 MSTORE PUSH1 0x20 ADD PUSH1 0x0 KECCAK256 PUSH1 0x0 DUP4 DUP2 MSTORE PUSH1 0x20 ADD SWAP1 DUP2 MSTORE PUSH1 0x20 ADD PUSH1 0x0 KECCAK256 PUSH1 0x4 ADD DUP2 SWAP1 SSTORE POP DUP3 PUSH1 0xD PUSH1 0x0 DUP13 PUSH20 0xFFFFFFFFFFFFFFFFFFFFFFFFFFFFFFFFFFFFFFFF AND PUSH20 0xFFFFFFFFFFFFFFFFFFFFFFFFFFFFFFFFFFFFFFFF AND DUP2 MSTORE PUSH1 0x20 ADD SWAP1 DUP2 MSTORE PUSH1 0x20 ADD PUSH1 0x0 KECCAK256 PUSH1 0x0 DUP4 DUP2 MSTORE PUSH1 0x20 ADD SWAP1 DUP2 MSTORE PUSH1 0x20 ADD PUSH1 0x0 KECCAK256 PUSH1 0x5 ADD PUSH1 0x0 PUSH2 0x100 EXP DUP2 SLOAD DUP2 PUSH1 0xFF MUL NOT AND SWAP1 DUP4 PUSH1 0xFF AND MUL OR SWAP1 SSTORE POP DUP2 PUSH1 0xD PUSH1 0x0 DUP13 PUSH20 0xFFFFFFFFFFFFFFFFFFFFFFFFFFFFFFFFFFFFFFFF AND PUSH20 0xFFFFFFFFFFFFFFFFFFFFFFFFFFFFFFFFFFFFFFFF AND DUP2 MSTORE PUSH1 0x20 ADD SWAP1 DUP2 MSTORE PUSH1 0x20 ADD PUSH1 0x0 KECCAK256 PUSH1 0x0 DUP4 DUP2 MSTORE PUSH1 0x20 ADD SWAP1 DUP2 MSTORE PUSH1 0x20 ADD PUSH1 0x0 KECCAK256 PUSH1 0x5 ADD PUSH1 0x1 PUSH2 0x100 EXP DUP2 SLOAD DUP2 PUSH4 0xFFFFFFFF MUL NOT AND SWAP1 DUP4 PUSH4 0xFFFFFFFF AND MUL OR SWAP1 SSTORE POP TIMESTAMP PUSH1 0xD PUSH1 0x0 DUP13 PUSH20 0xFFFFFFFFFFFFFFFFFFFFFFFFFFFFFFFFFFFFFFFF AND PUSH20 0xFFFFFFFFFFFFFFFFFFFFFFFFFFFFFFFFFFFFFFFF AND DUP2 MSTORE PUSH1 0x20 ADD SWAP1 DUP2 MSTORE PUSH1 0x20 ADD PUSH1 0x0 KECCAK256 PUSH1 0x0 DUP4 DUP2 MSTORE PUSH1 0x20 ADD SWAP1 DUP2 MSTORE PUSH1 0x20 ADD PUSH1 0x0 KECCAK256 PUSH1 0x6 ADD PUSH1 0x0 ADD DUP2 SWAP1 SSTORE POP PUSH1 0x1 PUSH1 0xD PUSH1 0x0 DUP13 PUSH20 0xFFFFFFFFFFFFFFFFFFFFFFFFFFFFFFFFFFFFFFFF AND PUSH20 0xFFFFFFFFFFFFFFFFFFFFFFFFFFFFFFFFFFFFFFFF AND DUP2 MSTORE PUSH1 0x20 ADD SWAP1 DUP2 MSTORE PUSH1 0x20 ADD PUSH1 0x0 KECCAK256 PUSH1 0x0 DUP4 DUP2 MSTORE PUSH1 0x20 ADD SWAP1 DUP2 MSTORE PUSH1 0x20 ADD PUSH1 0x0 KECCAK256 PUSH1 0x6 ADD PUSH1 0x1 ADD PUSH1 0x14 PUSH2 0x100 EXP DUP2 SLOAD DUP2 PUSH1 0xFF MUL NOT AND SWAP1 DUP4 PUSH1 0x2 DUP2 GT ISZERO PUSH2 0x17A5 JUMPI PUSH2 0x17A4 PUSH2 0x24F3 JUMP JUMPDEST JUMPDEST MUL OR SWAP1 SSTORE POP CALLER PUSH1 0xD PUSH1 0x0 DUP13 PUSH20 0xFFFFFFFFFFFFFFFFFFFFFFFFFFFFFFFFFFFFFFFF AND PUSH20 0xFFFFFFFFFFFFFFFFFFFFFFFFFFFFFFFFFFFFFFFF AND DUP2 MSTORE PUSH1 0x20 ADD SWAP1 DUP2 MSTORE PUSH1 0x20 ADD PUSH1 0x0 KECCAK256 PUSH1 0x0 DUP4 DUP2 MSTORE PUSH1 0x20 ADD SWAP1 DUP2 MSTORE PUSH1 0x20 ADD PUSH1 0x0 KECCAK256 PUSH1 0x6 ADD PUSH1 0x1 ADD PUSH1 0x0 PUSH2 0x100 EXP DUP2 SLOAD DUP2 PUSH20 0xFFFFFFFFFFFFFFFFFFFFFFFFFFFFFFFFFFFFFFFF MUL NOT AND SWAP1 DUP4 PUSH20 0xFFFFFFFFFFFFFFFFFFFFFFFFFFFFFFFFFFFFFFFF AND MUL OR SWAP1 SSTORE POP PUSH32 0x5AD0792471E6B8D6289D325D174CFB7E274AC9529EFEB295F4ABCE0A90CDCB23 DUP11 DUP5 DUP12 DUP12 PUSH1 0x40 MLOAD PUSH2 0x1874 SWAP5 SWAP4 SWAP3 SWAP2 SWAP1 PUSH2 0x1FC8 JUMP JUMPDEST PUSH1 0x40 MLOAD DUP1 SWAP2 SUB SWAP1 LOG1 POP POP POP POP POP POP POP POP POP POP JUMP JUMPDEST PUSH1 0xC SLOAD DUP2 JUMP JUMPDEST PUSH1 0x5 PUSH1 0x20 MSTORE DUP1 PUSH1 0x0 MSTORE PUSH1 0x40 PUSH1 0x0 KECCAK256 PUSH1 0x0 SWAP2 POP SWAP1 POP DUP1 PUSH1 0x0 ADD PUSH1 0x0 SWAP1 SLOAD SWAP1 PUSH2 0x100 EXP SWAP1 DIV PUSH1 0xFF AND SWAP1 DUP1 PUSH1 0x0 ADD PUSH1 0x1 SWAP1 SLOAD SWAP1 PUSH2 0x100 EXP SWAP1 DIV PUSH20 0xFFFFFFFFFFFFFFFFFFFFFFFFFFFFFFFFFFFFFFFF AND SWAP1 DUP1 PUSH1 0x0 ADD PUSH1 0x15 SWAP1 SLOAD SWAP1 PUSH2 0x100 EXP SWAP1 DIV PUSH2 0xFFFF AND SWAP1 DUP1 PUSH1 0x0 ADD PUSH1 0x17 SWAP1 SLOAD SWAP1 PUSH2 0x100 EXP SWAP1 DIV PUSH1 0xFF AND SWAP1 DUP1 PUSH1 0x1 ADD DUP1 SLOAD PUSH2 0x1911 SWAP1 PUSH2 0x2418 JUMP JUMPDEST DUP1 PUSH1 0x1F ADD PUSH1 0x20 DUP1 SWAP2 DIV MUL PUSH1 0x20 ADD PUSH1 0x40 MLOAD SWAP1 DUP2 ADD PUSH1 0x40 MSTORE DUP1 SWAP3 SWAP2 SWAP1 DUP2 DUP2 MSTORE PUSH1 0x20 ADD DUP3 DUP1 SLOAD PUSH2 0x193D SWAP1 PUSH2 0x2418 JUMP JUMPDEST DUP1 ISZERO PUSH2 0x198A JUMPI DUP1 PUSH1 0x1F LT PUSH2 0x195F JUMPI PUSH2 0x100 DUP1 DUP4 SLOAD DIV MUL DUP4 MSTORE SWAP2 PUSH1 0x20 ADD SWAP2 PUSH2 0x198A JUMP JUMPDEST DUP3 ADD SWAP2 SWAP1 PUSH1 0x0 MSTORE PUSH1 0x20 PUSH1 0x0 KECCAK256 SWAP1 JUMPDEST DUP2 SLOAD DUP2 MSTORE SWAP1 PUSH1 0x1 ADD SWAP1 PUSH1 0x20 ADD DUP1 DUP4 GT PUSH2 0x196D JUMPI DUP3 SWAP1 SUB PUSH1 0x1F AND DUP3 ADD SWAP2 JUMPDEST POP POP POP POP POP SWAP1 DUP1 PUSH1 0x2 ADD DUP1 SLOAD PUSH2 0x199F SWAP1 PUSH2 0x2418 JUMP JUMPDEST DUP1 PUSH1 0x1F ADD PUSH1 0x20 DUP1 SWAP2 DIV MUL PUSH1 0x20 ADD PUSH1 0x40 MLOAD SWAP1 DUP2 ADD PUSH1 0x40 MSTORE DUP1 SWAP3 SWAP2 SWAP1 DUP2 DUP2 MSTORE PUSH1 0x20 ADD DUP3 DUP1 SLOAD PUSH2 0x19CB SWAP1 PUSH2 0x2418 JUMP JUMPDEST DUP1 ISZERO PUSH2 0x1A18 JUMPI DUP1 PUSH1 0x1F LT PUSH2 0x19ED JUMPI PUSH2 0x100 DUP1 DUP4 SLOAD DIV MUL DUP4 MSTORE SWAP2 PUSH1 0x20 ADD SWAP2 PUSH2 0x1A18 JUMP JUMPDEST DUP3 ADD SWAP2 SWAP1 PUSH1 0x0 MSTORE PUSH1 0x20 PUSH1 0x0 KECCAK256 SWAP1 JUMPDEST DUP2 SLOAD DUP2 MSTORE SWAP1 PUSH1 0x1 ADD SWAP1 PUSH1 0x20 ADD DUP1 DUP4 GT PUSH2 0x19FB JUMPI DUP3 SWAP1 SUB PUSH1 0x1F AND DUP3 ADD SWAP2 JUMPDEST POP POP POP POP POP SWAP1 POP DUP7 JUMP JUMPDEST PUSH1 0x3 PUSH1 0x20 MSTORE DUP1 PUSH1 0x0 MSTORE PUSH1 0x40 PUSH1 0x0 KECCAK256 PUSH1 0x0 SWAP2 POP SWAP1 POP DUP1 PUSH1 0x0 ADD PUSH1 0x0 SWAP1 SLOAD SWAP1 PUSH2 0x100 EXP SWAP1 DIV PUSH1 0xFF AND SWAP1 POP DUP2 JUMP JUMPDEST DUP3 DUP1 SLOAD PUSH2 0x1A59 SWAP1 PUSH2 0x2418 JUMP JUMPDEST SWAP1 PUSH1 0x0 MSTORE PUSH1 0x20 PUSH1 0x0 KECCAK256 SWAP1 PUSH1 0x1F ADD PUSH1 0x20 SWAP1 DIV DUP2 ADD SWAP3 DUP3 PUSH2 0x1A7B JUMPI PUSH1 0x0 DUP6 SSTORE PUSH2 0x1AC2 JUMP JUMPDEST DUP3 PUSH1 0x1F LT PUSH2 0x1A94 JUMPI DUP1 MLOAD PUSH1 0xFF NOT AND DUP4 DUP1 ADD OR DUP6 SSTORE PUSH2 0x1AC2 JUMP JUMPDEST DUP3 DUP1 ADD PUSH1 0x1 ADD DUP6 SSTORE DUP3 ISZERO PUSH2 0x1AC2 JUMPI SWAP2 DUP3 ADD JUMPDEST DUP3 DUP2 GT ISZERO PUSH2 0x1AC1 JUMPI DUP3 MLOAD DUP3 SSTORE SWAP2 PUSH1 0x20 ADD SWAP2 SWAP1 PUSH1 0x1 ADD SWAP1 PUSH2 0x1AA6 JUMP JUMPDEST JUMPDEST POP SWAP1 POP PUSH2 0x1ACF SWAP2 SWAP1 PUSH2 0x1AD3 JUMP JUMPDEST POP SWAP1 JUMP JUMPDEST JUMPDEST DUP1 DUP3 GT ISZERO PUSH2 0x1AEC JUMPI PUSH1 0x0 DUP2 PUSH1 0x0 SWAP1 SSTORE POP PUSH1 0x1 ADD PUSH2 0x1AD4 JUMP JUMPDEST POP SWAP1 JUMP JUMPDEST PUSH1 0x0 PUSH2 0x1B03 PUSH2 0x1AFE DUP5 PUSH2 0x2283 JUMP JUMPDEST PUSH2 0x225E JUMP JUMPDEST SWAP1 POP DUP3 DUP2 MSTORE PUSH1 0x20 DUP2 ADD DUP5 DUP5 DUP5 ADD GT ISZERO PUSH2 0x1B1F JUMPI PUSH2 0x1B1E PUSH2 0x2585 JUMP JUMPDEST JUMPDEST PUSH2 0x1B2A DUP5 DUP3 DUP6 PUSH2 0x23D6 JUMP JUMPDEST POP SWAP4 SWAP3 POP POP POP JUMP JUMPDEST PUSH1 0x0 DUP2 CALLDATALOAD SWAP1 POP PUSH2 0x1B41 DUP2 PUSH2 0x2633 JUMP JUMPDEST SWAP3 SWAP2 POP POP JUMP JUMPDEST PUSH1 0x0 DUP2 CALLDATALOAD SWAP1 POP PUSH2 0x1B56 DUP2 PUSH2 0x264A JUMP JUMPDEST SWAP3 SWAP2 POP POP JUMP JUMPDEST PUSH1 0x0 DUP3 PUSH1 0x1F DUP4 ADD SLT PUSH2 0x1B71 JUMPI PUSH2 0x1B70 PUSH2 0x2580 JUMP JUMPDEST JUMPDEST DUP2 CALLDATALOAD PUSH2 0x1B81 DUP5 DUP3 PUSH1 0x20 DUP7 ADD PUSH2 0x1AF0 JUMP JUMPDEST SWAP2 POP POP SWAP3 SWAP2 POP POP JUMP JUMPDEST PUSH1 0x0 DUP2 CALLDATALOAD SWAP1 POP PUSH2 0x1B99 DUP2 PUSH2 0x265A JUMP JUMPDEST SWAP3 SWAP2 POP POP JUMP JUMPDEST PUSH1 0x0 DUP2 CALLDATALOAD SWAP1 POP PUSH2 0x1BAE DUP2 PUSH2 0x2671 JUMP JUMPDEST SWAP3 SWAP2 POP POP JUMP JUMPDEST PUSH1 0x0 DUP2 CALLDATALOAD SWAP1 POP PUSH2 0x1BC3 DUP2 PUSH2 0x2688 JUMP JUMPDEST SWAP3 SWAP2 POP POP JUMP JUMPDEST PUSH1 0x0 PUSH1 0x20 DUP3 DUP5 SUB SLT ISZERO PUSH2 0x1BDF JUMPI PUSH2 0x1BDE PUSH2 0x258F JUMP JUMPDEST JUMPDEST PUSH1 0x0 PUSH2 0x1BED DUP5 DUP3 DUP6 ADD PUSH2 0x1B32 JUMP JUMPDEST SWAP2 POP POP SWAP3 SWAP2 POP POP JUMP JUMPDEST PUSH1 0x0 DUP1 PUSH1 0x40 DUP4 DUP6 SUB SLT ISZERO PUSH2 0x1C0D JUMPI PUSH2 0x1C0C PUSH2 0x258F JUMP JUMPDEST JUMPDEST PUSH1 0x0 PUSH2 0x1C1B DUP6 DUP3 DUP7 ADD PUSH2 0x1B32 JUMP JUMPDEST SWAP3 POP POP PUSH1 0x20 PUSH2 0x1C2C DUP6 DUP3 DUP7 ADD PUSH2 0x1B8A JUMP JUMPDEST SWAP2 POP POP SWAP3 POP SWAP3 SWAP1 POP JUMP JUMPDEST PUSH1 0x0 DUP1 PUSH1 0x0 DUP1 PUSH1 0x0 DUP1 PUSH1 0x0 DUP1 PUSH1 0x0 DUP1 PUSH2 0x140 DUP12 DUP14 SUB SLT ISZERO PUSH2 0x1C5A JUMPI PUSH2 0x1C59 PUSH2 0x258F JUMP JUMPDEST JUMPDEST PUSH1 0x0 PUSH2 0x1C68 DUP14 DUP3 DUP15 ADD PUSH2 0x1B32 JUMP JUMPDEST SWAP11 POP POP PUSH1 0x20 PUSH2 0x1C79 DUP14 DUP3 DUP15 ADD PUSH2 0x1B8A JUMP JUMPDEST SWAP10 POP POP PUSH1 0x40 PUSH2 0x1C8A DUP14 DUP3 DUP15 ADD PUSH2 0x1B9F JUMP JUMPDEST SWAP9 POP POP PUSH1 0x60 PUSH2 0x1C9B DUP14 DUP3 DUP15 ADD PUSH2 0x1BB4 JUMP JUMPDEST SWAP8 POP POP PUSH1 0x80 PUSH2 0x1CAC DUP14 DUP3 DUP15 ADD PUSH2 0x1B47 JUMP JUMPDEST SWAP7 POP POP PUSH1 0xA0 DUP12 ADD CALLDATALOAD PUSH8 0xFFFFFFFFFFFFFFFF DUP2 GT ISZERO PUSH2 0x1CCD JUMPI PUSH2 0x1CCC PUSH2 0x258A JUMP JUMPDEST JUMPDEST PUSH2 0x1CD9 DUP14 DUP3 DUP15 ADD PUSH2 0x1B5C JUMP JUMPDEST SWAP6 POP POP PUSH1 0xC0 PUSH2 0x1CEA DUP14 DUP3 DUP15 ADD PUSH2 0x1B8A JUMP JUMPDEST SWAP5 POP POP PUSH1 0xE0 PUSH2 0x1CFB DUP14 DUP3 DUP15 ADD PUSH2 0x1B8A JUMP JUMPDEST SWAP4 POP POP PUSH2 0x100 PUSH2 0x1D0D DUP14 DUP3 DUP15 ADD PUSH2 0x1BB4 JUMP JUMPDEST SWAP3 POP POP PUSH2 0x120 PUSH2 0x1D1F DUP14 DUP3 DUP15 ADD PUSH2 0x1B9F JUMP JUMPDEST SWAP2 POP POP SWAP3 SWAP6 SWAP9 SWAP12 SWAP2 SWAP5 SWAP8 SWAP11 POP SWAP3 SWAP6 SWAP9 POP JUMP JUMPDEST PUSH1 0x0 DUP1 PUSH1 0x0 DUP1 PUSH1 0x0 DUP1 PUSH1 0x0 DUP1 PUSH1 0x0 PUSH2 0x120 DUP11 DUP13 SUB SLT ISZERO PUSH2 0x1D54 JUMPI PUSH2 0x1D53 PUSH2 0x258F JUMP JUMPDEST JUMPDEST PUSH1 0x0 PUSH2 0x1D62 DUP13 DUP3 DUP14 ADD PUSH2 0x1B32 JUMP JUMPDEST SWAP10 POP POP PUSH1 0x20 PUSH2 0x1D73 DUP13 DUP3 DUP14 ADD PUSH2 0x1B9F JUMP JUMPDEST SWAP9 POP POP PUSH1 0x40 PUSH2 0x1D84 DUP13 DUP3 DUP14 ADD PUSH2 0x1BB4 JUMP JUMPDEST SWAP8 POP POP PUSH1 0x60 PUSH2 0x1D95 DUP13 DUP3 DUP14 ADD PUSH2 0x1B47 JUMP JUMPDEST SWAP7 POP POP PUSH1 0x80 DUP11 ADD CALLDATALOAD PUSH8 0xFFFFFFFFFFFFFFFF DUP2 GT ISZERO PUSH2 0x1DB6 JUMPI PUSH2 0x1DB5 PUSH2 0x258A JUMP JUMPDEST JUMPDEST PUSH2 0x1DC2 DUP13 DUP3 DUP14 ADD PUSH2 0x1B5C JUMP JUMPDEST SWAP6 POP POP PUSH1 0xA0 PUSH2 0x1DD3 DUP13 DUP3 DUP14 ADD PUSH2 0x1B8A JUMP JUMPDEST SWAP5 POP POP PUSH1 0xC0 PUSH2 0x1DE4 DUP13 DUP3 DUP14 ADD PUSH2 0x1B8A JUMP JUMPDEST SWAP4 POP POP PUSH1 0xE0 PUSH2 0x1DF5 DUP13 DUP3 DUP14 ADD PUSH2 0x1BB4 JUMP JUMPDEST SWAP3 POP POP PUSH2 0x100 PUSH2 0x1E07 DUP13 DUP3 DUP14 ADD PUSH2 0x1B9F JUMP JUMPDEST SWAP2 POP POP SWAP3 SWAP6 SWAP9 POP SWAP3 SWAP6 SWAP9 POP SWAP3 SWAP6 SWAP9 JUMP JUMPDEST PUSH1 0x0 PUSH1 0x20 DUP3 DUP5 SUB SLT ISZERO PUSH2 0x1E2D JUMPI PUSH2 0x1E2C PUSH2 0x258F JUMP JUMPDEST JUMPDEST PUSH1 0x0 PUSH2 0x1E3B DUP5 DUP3 DUP6 ADD PUSH2 0x1B9F JUMP JUMPDEST SWAP2 POP POP SWAP3 SWAP2 POP POP JUMP JUMPDEST PUSH2 0x1E4D DUP2 PUSH2 0x22D0 JUMP JUMPDEST DUP3 MSTORE POP POP JUMP JUMPDEST PUSH2 0x1E5C DUP2 PUSH2 0x22D0 JUMP JUMPDEST DUP3 MSTORE POP POP JUMP JUMPDEST PUSH2 0x1E6B DUP2 PUSH2 0x22E2 JUMP JUMPDEST DUP3 MSTORE POP POP JUMP JUMPDEST PUSH2 0x1E7A DUP2 PUSH2 0x237C JUMP JUMPDEST DUP3 MSTORE POP POP JUMP JUMPDEST PUSH2 0x1E89 DUP2 PUSH2 0x238E JUMP JUMPDEST DUP3 MSTORE POP POP JUMP JUMPDEST PUSH2 0x1E98 DUP2 PUSH2 0x23A0 JUMP JUMPDEST DUP3 MSTORE POP POP JUMP JUMPDEST PUSH1 0x0 PUSH2 0x1EA9 DUP3 PUSH2 0x22B4 JUMP JUMPDEST PUSH2 0x1EB3 DUP2 DUP6 PUSH2 0x22BF JUMP JUMPDEST SWAP4 POP PUSH2 0x1EC3 DUP2 DUP6 PUSH1 0x20 DUP7 ADD PUSH2 0x23E5 JUMP JUMPDEST PUSH2 0x1ECC DUP2 PUSH2 0x2594 JUMP JUMPDEST DUP5 ADD SWAP2 POP POP SWAP3 SWAP2 POP POP JUMP JUMPDEST PUSH1 0x0 PUSH2 0x1EE4 PUSH1 0x12 DUP4 PUSH2 0x22BF JUMP JUMPDEST SWAP2 POP PUSH2 0x1EEF DUP3 PUSH2 0x25A5 JUMP JUMPDEST PUSH1 0x20 DUP3 ADD SWAP1 POP SWAP2 SWAP1 POP JUMP JUMPDEST PUSH1 0x0 PUSH2 0x1F07 PUSH1 0x20 DUP4 PUSH2 0x22BF JUMP JUMPDEST SWAP2 POP PUSH2 0x1F12 DUP3 PUSH2 0x25CE JUMP JUMPDEST PUSH1 0x20 DUP3 ADD SWAP1 POP SWAP2 SWAP1 POP JUMP JUMPDEST PUSH1 0x60 DUP3 ADD PUSH1 0x0 DUP3 ADD MLOAD PUSH2 0x1F33 PUSH1 0x0 DUP6 ADD DUP3 PUSH2 0x1F6E JUMP JUMPDEST POP PUSH1 0x20 DUP3 ADD MLOAD PUSH2 0x1F46 PUSH1 0x20 DUP6 ADD DUP3 PUSH2 0x1E44 JUMP JUMPDEST POP PUSH1 0x40 DUP3 ADD MLOAD PUSH2 0x1F59 PUSH1 0x40 DUP6 ADD DUP3 PUSH2 0x1E80 JUMP JUMPDEST POP POP POP POP JUMP JUMPDEST PUSH2 0x1F68 DUP2 PUSH2 0x2327 JUMP JUMPDEST DUP3 MSTORE POP POP JUMP JUMPDEST PUSH2 0x1F77 DUP2 PUSH2 0x2355 JUMP JUMPDEST DUP3 MSTORE POP POP JUMP JUMPDEST PUSH2 0x1F86 DUP2 PUSH2 0x2355 JUMP JUMPDEST DUP3 MSTORE POP POP JUMP JUMPDEST PUSH2 0x1F95 DUP2 PUSH2 0x23B2 JUMP JUMPDEST DUP3 MSTORE POP POP JUMP JUMPDEST PUSH2 0x1FA4 DUP2 PUSH2 0x235F JUMP JUMPDEST DUP3 MSTORE POP POP JUMP JUMPDEST PUSH2 0x1FB3 DUP2 PUSH2 0x23C4 JUMP JUMPDEST DUP3 MSTORE POP POP JUMP JUMPDEST PUSH2 0x1FC2 DUP2 PUSH2 0x236F JUMP JUMPDEST DUP3 MSTORE POP POP JUMP JUMPDEST PUSH1 0x0 PUSH1 0x80 DUP3 ADD SWAP1 POP PUSH2 0x1FDD PUSH1 0x0 DUP4 ADD DUP8 PUSH2 0x1E53 JUMP JUMPDEST PUSH2 0x1FEA PUSH1 0x20 DUP4 ADD DUP7 PUSH2 0x1FB9 JUMP JUMPDEST PUSH2 0x1FF7 PUSH1 0x40 DUP4 ADD DUP6 PUSH2 0x1F8C JUMP JUMPDEST PUSH2 0x2004 PUSH1 0x60 DUP4 ADD DUP5 PUSH2 0x1FAA JUMP JUMPDEST SWAP6 SWAP5 POP POP POP POP POP JUMP JUMPDEST PUSH1 0x0 PUSH1 0x20 DUP3 ADD SWAP1 POP PUSH2 0x2022 PUSH1 0x0 DUP4 ADD DUP5 PUSH2 0x1E62 JUMP JUMPDEST SWAP3 SWAP2 POP POP JUMP JUMPDEST PUSH1 0x0 PUSH1 0xC0 DUP3 ADD SWAP1 POP PUSH2 0x203D PUSH1 0x0 DUP4 ADD DUP10 PUSH2 0x1E62 JUMP JUMPDEST PUSH2 0x204A PUSH1 0x20 DUP4 ADD DUP9 PUSH2 0x1E53 JUMP JUMPDEST PUSH2 0x2057 PUSH1 0x40 DUP4 ADD DUP8 PUSH2 0x1F5F JUMP JUMPDEST PUSH2 0x2064 PUSH1 0x60 DUP4 ADD DUP7 PUSH2 0x1E8F JUMP JUMPDEST DUP2 DUP2 SUB PUSH1 0x80 DUP4 ADD MSTORE PUSH2 0x2076 DUP2 DUP6 PUSH2 0x1E9E JUMP JUMPDEST SWAP1 POP DUP2 DUP2 SUB PUSH1 0xA0 DUP4 ADD MSTORE PUSH2 0x208A DUP2 DUP5 PUSH2 0x1E9E JUMP JUMPDEST SWAP1 POP SWAP8 SWAP7 POP POP POP POP POP POP POP JUMP JUMPDEST PUSH1 0x0 PUSH1 0x60 DUP3 ADD SWAP1 POP PUSH2 0x20AC PUSH1 0x0 DUP4 ADD DUP7 PUSH2 0x1E62 JUMP JUMPDEST DUP2 DUP2 SUB PUSH1 0x20 DUP4 ADD MSTORE PUSH2 0x20BE DUP2 DUP6 PUSH2 0x1E9E JUMP JUMPDEST SWAP1 POP PUSH2 0x20CD PUSH1 0x40 DUP4 ADD DUP5 PUSH2 0x1FB9 JUMP JUMPDEST SWAP5 SWAP4 POP POP POP POP JUMP JUMPDEST PUSH1 0x0 PUSH1 0x80 DUP3 ADD SWAP1 POP PUSH2 0x20EA PUSH1 0x0 DUP4 ADD DUP8 PUSH2 0x1E62 JUMP JUMPDEST PUSH2 0x20F7 PUSH1 0x20 DUP4 ADD DUP7 PUSH2 0x1FB9 JUMP JUMPDEST PUSH2 0x2104 PUSH1 0x40 DUP4 ADD DUP6 PUSH2 0x1F7D JUMP JUMPDEST DUP2 DUP2 SUB PUSH1 0x60 DUP4 ADD MSTORE PUSH2 0x2116 DUP2 DUP5 PUSH2 0x1E9E JUMP JUMPDEST SWAP1 POP SWAP6 SWAP5 POP POP POP POP POP JUMP JUMPDEST PUSH1 0x0 PUSH1 0x20 DUP3 ADD SWAP1 POP DUP2 DUP2 SUB PUSH1 0x0 DUP4 ADD MSTORE PUSH2 0x213A DUP2 PUSH2 0x1ED7 JUMP JUMPDEST SWAP1 POP SWAP2 SWAP1 POP JUMP JUMPDEST PUSH1 0x0 PUSH1 0x20 DUP3 ADD SWAP1 POP DUP2 DUP2 SUB PUSH1 0x0 DUP4 ADD MSTORE PUSH2 0x215A DUP2 PUSH2 0x1EFA JUMP JUMPDEST SWAP1 POP SWAP2 SWAP1 POP JUMP JUMPDEST PUSH1 0x0 PUSH1 0x20 DUP3 ADD SWAP1 POP PUSH2 0x2176 PUSH1 0x0 DUP4 ADD DUP5 PUSH2 0x1F7D JUMP JUMPDEST SWAP3 SWAP2 POP POP JUMP JUMPDEST PUSH1 0x0 PUSH2 0x1A0 DUP3 ADD SWAP1 POP PUSH2 0x2192 PUSH1 0x0 DUP4 ADD DUP15 PUSH2 0x1F7D JUMP JUMPDEST PUSH2 0x219F PUSH1 0x20 DUP4 ADD DUP14 PUSH2 0x1E53 JUMP JUMPDEST PUSH2 0x21AC PUSH1 0x40 DUP4 ADD DUP13 PUSH2 0x1F9B JUMP JUMPDEST PUSH2 0x21B9 PUSH1 0x60 DUP4 ADD DUP12 PUSH2 0x1FB9 JUMP JUMPDEST PUSH2 0x21C6 PUSH1 0x80 DUP4 ADD DUP11 PUSH2 0x1E71 JUMP JUMPDEST DUP2 DUP2 SUB PUSH1 0xA0 DUP4 ADD MSTORE PUSH2 0x21D8 DUP2 DUP10 PUSH2 0x1E9E JUMP JUMPDEST SWAP1 POP PUSH2 0x21E7 PUSH1 0xC0 DUP4 ADD DUP9 PUSH2 0x1F7D JUMP JUMPDEST PUSH2 0x21F4 PUSH1 0xE0 DUP4 ADD DUP8 PUSH2 0x1F7D JUMP JUMPDEST PUSH2 0x2202 PUSH2 0x100 DUP4 ADD DUP7 PUSH2 0x1FB9 JUMP JUMPDEST PUSH2 0x2210 PUSH2 0x120 DUP4 ADD DUP6 PUSH2 0x1F9B JUMP JUMPDEST PUSH2 0x221E PUSH2 0x140 DUP4 ADD DUP5 PUSH2 0x1F1D JUMP JUMPDEST SWAP13 SWAP12 POP POP POP POP POP POP POP POP POP POP POP POP JUMP JUMPDEST PUSH1 0x0 PUSH1 0x40 DUP3 ADD SWAP1 POP PUSH2 0x2243 PUSH1 0x0 DUP4 ADD DUP6 PUSH2 0x1F9B JUMP JUMPDEST DUP2 DUP2 SUB PUSH1 0x20 DUP4 ADD MSTORE PUSH2 0x2255 DUP2 DUP5 PUSH2 0x1E9E JUMP JUMPDEST SWAP1 POP SWAP4 SWAP3 POP POP POP JUMP JUMPDEST PUSH1 0x0 PUSH2 0x2268 PUSH2 0x2279 JUMP JUMPDEST SWAP1 POP PUSH2 0x2274 DUP3 DUP3 PUSH2 0x244A JUMP JUMPDEST SWAP2 SWAP1 POP JUMP JUMPDEST PUSH1 0x0 PUSH1 0x40 MLOAD SWAP1 POP SWAP1 JUMP JUMPDEST PUSH1 0x0 PUSH8 0xFFFFFFFFFFFFFFFF DUP3 GT ISZERO PUSH2 0x229E JUMPI PUSH2 0x229D PUSH2 0x2551 JUMP JUMPDEST JUMPDEST PUSH2 0x22A7 DUP3 PUSH2 0x2594 JUMP JUMPDEST SWAP1 POP PUSH1 0x20 DUP2 ADD SWAP1 POP SWAP2 SWAP1 POP JUMP JUMPDEST PUSH1 0x0 DUP2 MLOAD SWAP1 POP SWAP2 SWAP1 POP JUMP JUMPDEST PUSH1 0x0 DUP3 DUP3 MSTORE PUSH1 0x20 DUP3 ADD SWAP1 POP SWAP3 SWAP2 POP POP JUMP JUMPDEST PUSH1 0x0 PUSH2 0x22DB DUP3 PUSH2 0x2335 JUMP JUMPDEST SWAP1 POP SWAP2 SWAP1 POP JUMP JUMPDEST PUSH1 0x0 DUP2 ISZERO ISZERO SWAP1 POP SWAP2 SWAP1 POP JUMP JUMPDEST PUSH1 0x0 DUP2 SWAP1 POP PUSH2 0x22FC DUP3 PUSH2 0x25F7 JUMP JUMPDEST SWAP2 SWAP1 POP JUMP JUMPDEST PUSH1 0x0 DUP2 SWAP1 POP PUSH2 0x230F DUP3 PUSH2 0x260B JUMP JUMPDEST SWAP2 SWAP1 POP JUMP JUMPDEST PUSH1 0x0 DUP2 SWAP1 POP PUSH2 0x2322 DUP3 PUSH2 0x261F JUMP JUMPDEST SWAP2 SWAP1 POP JUMP JUMPDEST PUSH1 0x0 PUSH2 0xFFFF DUP3 AND SWAP1 POP SWAP2 SWAP1 POP JUMP JUMPDEST PUSH1 0x0 PUSH20 0xFFFFFFFFFFFFFFFFFFFFFFFFFFFFFFFFFFFFFFFF DUP3 AND SWAP1 POP SWAP2 SWAP1 POP JUMP JUMPDEST PUSH1 0x0 DUP2 SWAP1 POP SWAP2 SWAP1 POP JUMP JUMPDEST PUSH1 0x0 PUSH4 0xFFFFFFFF DUP3 AND SWAP1 POP SWAP2 SWAP1 POP JUMP JUMPDEST PUSH1 0x0 PUSH1 0xFF DUP3 AND SWAP1 POP SWAP2 SWAP1 POP JUMP JUMPDEST PUSH1 0x0 PUSH2 0x2387 DUP3 PUSH2 0x22EE JUMP JUMPDEST SWAP1 POP SWAP2 SWAP1 POP JUMP JUMPDEST PUSH1 0x0 PUSH2 0x2399 DUP3 PUSH2 0x2301 JUMP JUMPDEST SWAP1 POP SWAP2 SWAP1 POP JUMP JUMPDEST PUSH1 0x0 PUSH2 0x23AB DUP3 PUSH2 0x2314 JUMP JUMPDEST SWAP1 POP SWAP2 SWAP1 POP JUMP JUMPDEST PUSH1 0x0 PUSH2 0x23BD DUP3 PUSH2 0x235F JUMP JUMPDEST SWAP1 POP SWAP2 SWAP1 POP JUMP JUMPDEST PUSH1 0x0 PUSH2 0x23CF DUP3 PUSH2 0x236F JUMP JUMPDEST SWAP1 POP SWAP2 SWAP1 POP JUMP JUMPDEST DUP3 DUP2 DUP4 CALLDATACOPY PUSH1 0x0 DUP4 DUP4 ADD MSTORE POP POP POP JUMP JUMPDEST PUSH1 0x0 JUMPDEST DUP4 DUP2 LT ISZERO PUSH2 0x2403 JUMPI DUP1 DUP3 ADD MLOAD DUP2 DUP5 ADD MSTORE PUSH1 0x20 DUP2 ADD SWAP1 POP PUSH2 0x23E8 JUMP JUMPDEST DUP4 DUP2 GT ISZERO PUSH2 0x2412 JUMPI PUSH1 0x0 DUP5 DUP5 ADD MSTORE JUMPDEST POP POP POP POP JUMP JUMPDEST PUSH1 0x0 PUSH1 0x2 DUP3 DIV SWAP1 POP PUSH1 0x1 DUP3 AND DUP1 PUSH2 0x2430 JUMPI PUSH1 0x7F DUP3 AND SWAP2 POP JUMPDEST PUSH1 0x20 DUP3 LT DUP2 EQ ISZERO PUSH2 0x2444 JUMPI PUSH2 0x2443 PUSH2 0x2522 JUMP JUMPDEST JUMPDEST POP SWAP2 SWAP1 POP JUMP JUMPDEST PUSH2 0x2453 DUP3 PUSH2 0x2594 JUMP JUMPDEST DUP2 ADD DUP2 DUP2 LT PUSH8 0xFFFFFFFFFFFFFFFF DUP3 GT OR ISZERO PUSH2 0x2472 JUMPI PUSH2 0x2471 PUSH2 0x2551 JUMP JUMPDEST JUMPDEST DUP1 PUSH1 0x40 MSTORE POP POP POP JUMP JUMPDEST PUSH1 0x0 PUSH2 0x2486 DUP3 PUSH2 0x2355 JUMP JUMPDEST SWAP2 POP PUSH32 0xFFFFFFFFFFFFFFFFFFFFFFFFFFFFFFFFFFFFFFFFFFFFFFFFFFFFFFFFFFFFFFFF DUP3 EQ ISZERO PUSH2 0x24B9 JUMPI PUSH2 0x24B8 PUSH2 0x24C4 JUMP JUMPDEST JUMPDEST PUSH1 0x1 DUP3 ADD SWAP1 POP SWAP2 SWAP1 POP JUMP JUMPDEST PUSH32 0x4E487B7100000000000000000000000000000000000000000000000000000000 PUSH1 0x0 MSTORE PUSH1 0x11 PUSH1 0x4 MSTORE PUSH1 0x24 PUSH1 0x0 REVERT JUMPDEST PUSH32 0x4E487B7100000000000000000000000000000000000000000000000000000000 PUSH1 0x0 MSTORE PUSH1 0x21 PUSH1 0x4 MSTORE PUSH1 0x24 PUSH1 0x0 REVERT JUMPDEST PUSH32 0x4E487B7100000000000000000000000000000000000000000000000000000000 PUSH1 0x0 MSTORE PUSH1 0x22 PUSH1 0x4 MSTORE PUSH1 0x24 PUSH1 0x0 REVERT JUMPDEST PUSH32 0x4E487B7100000000000000000000000000000000000000000000000000000000 PUSH1 0x0 MSTORE PUSH1 0x41 PUSH1 0x4 MSTORE PUSH1 0x24 PUSH1 0x0 REVERT JUMPDEST PUSH1 0x0 DUP1 REVERT JUMPDEST PUSH1 0x0 DUP1 REVERT JUMPDEST PUSH1 0x0 DUP1 REVERT JUMPDEST PUSH1 0x0 DUP1 REVERT JUMPDEST PUSH1 0x0 PUSH1 0x1F NOT PUSH1 0x1F DUP4 ADD AND SWAP1 POP SWAP2 SWAP1 POP JUMP JUMPDEST PUSH32 0x53747564656E74206E6F74206578697374730000000000000000000000000000 PUSH1 0x0 DUP3 ADD MSTORE POP JUMP JUMPDEST PUSH32 0x42752069736C656D6920736164656365204B757273207961706162696C69722E PUSH1 0x0 DUP3 ADD MSTORE POP JUMP JUMPDEST PUSH1 0x3 DUP2 LT PUSH2 0x2608 JUMPI PUSH2 0x2607 PUSH2 0x24F3 JUMP JUMPDEST JUMPDEST POP JUMP JUMPDEST PUSH1 0x3 DUP2 LT PUSH2 0x261C JUMPI PUSH2 0x261B PUSH2 0x24F3 JUMP JUMPDEST JUMPDEST POP JUMP JUMPDEST PUSH1 0x4 DUP2 LT PUSH2 0x2630 JUMPI PUSH2 0x262F PUSH2 0x24F3 JUMP JUMPDEST JUMPDEST POP JUMP JUMPDEST PUSH2 0x263C DUP2 PUSH2 0x22D0 JUMP JUMPDEST DUP2 EQ PUSH2 0x2647 JUMPI PUSH1 0x0 DUP1 REVERT JUMPDEST POP JUMP JUMPDEST PUSH1 0x3 DUP2 LT PUSH2 0x2657 JUMPI PUSH1 0x0 DUP1 REVERT JUMPDEST POP JUMP JUMPDEST PUSH2 0x2663 DUP2 PUSH2 0x2355 JUMP JUMPDEST DUP2 EQ PUSH2 0x266E JUMPI PUSH1 0x0 DUP1 REVERT JUMPDEST POP JUMP JUMPDEST PUSH2 0x267A DUP2 PUSH2 0x235F JUMP JUMPDEST DUP2 EQ PUSH2 0x2685 JUMPI PUSH1 0x0 DUP1 REVERT JUMPDEST POP JUMP JUMPDEST PUSH2 0x2691 DUP2 PUSH2 0x236F JUMP JUMPDEST DUP2 EQ PUSH2 0x269C JUMPI PUSH1 0x0 DUP1 REVERT JUMPDEST POP JUMP INVALID LOG2 PUSH5 0x6970667358 0x22 SLT KECCAK256 SMOD 0xB2 0xCA GASPRICE PUSH1 0x3B 0x29 JUMPDEST 0xDE 0xF SLT BYTE 0xE1 0xE9 0x23 SWAP12 DUP5 PUSH27 0xA15CA1CB471F630EE41BF3FF54BA64736F6C634300080700330000 "
				},
				"gasEstimates": {
					"creation": {
						"codeDepositCost": "1988200",
						"executionCost": "2105",
						"totalCost": "1990305"
					},
					"external": {
						"akademisyenler(address)": "infinite",
						"calismaBilgileri(address,uint256)": "infinite",
						"diller(uint32)": "infinite",
						"ekleCalismaBilgi(address,uint32,uint8,uint8,string,uint256,uint256,uint8,uint32)": "infinite",
						"firmalar(address)": "infinite",
						"guncelleCalismaBilgi(address,uint256,uint32,uint8,uint8,string,uint256,uint256,uint8,uint32)": "infinite",
						"id()": "2473",
						"kamuKurumlari(address)": "infinite",
						"kisiler(address)": "2958",
						"kurslar(address)": "infinite",
						"sertifikaMerkezleri(address)": "infinite",
						"stklar(address)": "infinite",
						"universiteler(address)": "infinite"
					}
				},
				"methodIdentifiers": {
					"akademisyenler(address)": "ba479b7e",
					"calismaBilgileri(address,uint256)": "0fb0b1b2",
					"diller(uint32)": "a4e7ae05",
					"ekleCalismaBilgi(address,uint32,uint8,uint8,string,uint256,uint256,uint8,uint32)": "ac30910c",
					"firmalar(address)": "39987f94",
					"guncelleCalismaBilgi(address,uint256,uint32,uint8,uint8,string,uint256,uint256,uint8,uint32)": "62bda16b",
					"id()": "af640d0f",
					"kamuKurumlari(address)": "7d0fa287",
					"kisiler(address)": "cbc92809",
					"kurslar(address)": "1916e139",
					"sertifikaMerkezleri(address)": "356b1f1e",
					"stklar(address)": "9a8c9119",
					"universiteler(address)": "28266697"
				}
			},
			"storageLayout": {
				"storage": [
					{
						"astId": 3,
						"contract": "contracts/CalismaBilgileri.sol:CalismaBilgileri",
						"label": "YOK",
						"offset": 0,
						"slot": "0",
						"type": "t_address"
					},
					{
						"astId": 5,
						"contract": "contracts/CalismaBilgileri.sol:CalismaBilgileri",
						"label": "TOBB",
						"offset": 0,
						"slot": "1",
						"type": "t_address"
					},
					{
						"astId": 7,
						"contract": "contracts/CalismaBilgileri.sol:CalismaBilgileri",
						"label": "CB",
						"offset": 0,
						"slot": "2",
						"type": "t_address"
					},
					{
						"astId": 236,
						"contract": "contracts/CalismaBilgileri.sol:CalismaBilgileri",
						"label": "kisiler",
						"offset": 0,
						"slot": "3",
						"type": "t_mapping(t_address,t_struct(Kisi)10_storage)"
					},
					{
						"astId": 241,
						"contract": "contracts/CalismaBilgileri.sol:CalismaBilgileri",
						"label": "universiteler",
						"offset": 0,
						"slot": "4",
						"type": "t_mapping(t_address,t_struct(Universite)29_storage)"
					},
					{
						"astId": 246,
						"contract": "contracts/CalismaBilgileri.sol:CalismaBilgileri",
						"label": "akademisyenler",
						"offset": 0,
						"slot": "5",
						"type": "t_mapping(t_address,t_struct(Akademisyen)43_storage)"
					},
					{
						"astId": 251,
						"contract": "contracts/CalismaBilgileri.sol:CalismaBilgileri",
						"label": "firmalar",
						"offset": 0,
						"slot": "6",
						"type": "t_mapping(t_address,t_struct(Firma)83_storage)"
					},
					{
						"astId": 256,
						"contract": "contracts/CalismaBilgileri.sol:CalismaBilgileri",
						"label": "kurslar",
						"offset": 0,
						"slot": "7",
						"type": "t_mapping(t_address,t_struct(Kurs)111_storage)"
					},
					{
						"astId": 261,
						"contract": "contracts/CalismaBilgileri.sol:CalismaBilgileri",
						"label": "kamuKurumlari",
						"offset": 0,
						"slot": "8",
						"type": "t_mapping(t_address,t_struct(KamuKurumu)90_storage)"
					},
					{
						"astId": 266,
						"contract": "contracts/CalismaBilgileri.sol:CalismaBilgileri",
						"label": "stklar",
						"offset": 0,
						"slot": "9",
						"type": "t_mapping(t_address,t_struct(STK)97_storage)"
					},
					{
						"astId": 271,
						"contract": "contracts/CalismaBilgileri.sol:CalismaBilgileri",
						"label": "sertifikaMerkezleri",
						"offset": 0,
						"slot": "10",
						"type": "t_mapping(t_address,t_struct(SertifikaMerkezi)104_storage)"
					},
					{
						"astId": 276,
						"contract": "contracts/CalismaBilgileri.sol:CalismaBilgileri",
						"label": "diller",
						"offset": 0,
						"slot": "11",
						"type": "t_mapping(t_uint32,t_struct(YabanciDil)116_storage)"
					},
					{
						"astId": 284,
						"contract": "contracts/CalismaBilgileri.sol:CalismaBilgileri",
						"label": "id",
						"offset": 0,
						"slot": "12",
						"type": "t_uint256"
					},
					{
						"astId": 320,
						"contract": "contracts/CalismaBilgileri.sol:CalismaBilgileri",
						"label": "calismaBilgileri",
						"offset": 0,
						"slot": "13",
						"type": "t_mapping(t_address,t_mapping(t_uint256,t_struct(CalismaBilgi)309_storage))"
					}
				],
				"types": {
					"t_address": {
						"encoding": "inplace",
						"label": "address",
						"numberOfBytes": "20"
					},
					"t_bool": {
						"encoding": "inplace",
						"label": "bool",
						"numberOfBytes": "1"
					},
					"t_enum(CalismaTipi)313": {
						"encoding": "inplace",
						"label": "enum CalismaBilgileri.CalismaTipi",
						"numberOfBytes": "1"
					},
					"t_enum(OnayDurum)22": {
						"encoding": "inplace",
						"label": "enum BaseContract.OnayDurum",
						"numberOfBytes": "1"
					},
					"t_enum(Unvan)48": {
						"encoding": "inplace",
						"label": "enum BaseContract.Unvan",
						"numberOfBytes": "1"
					},
					"t_mapping(t_address,t_mapping(t_uint256,t_struct(CalismaBilgi)309_storage))": {
						"encoding": "mapping",
						"key": "t_address",
						"label": "mapping(address => mapping(uint256 => struct CalismaBilgileri.CalismaBilgi))",
						"numberOfBytes": "32",
						"value": "t_mapping(t_uint256,t_struct(CalismaBilgi)309_storage)"
					},
					"t_mapping(t_address,t_struct(Akademisyen)43_storage)": {
						"encoding": "mapping",
						"key": "t_address",
						"label": "mapping(address => struct BaseContract.Akademisyen)",
						"numberOfBytes": "32",
						"value": "t_struct(Akademisyen)43_storage"
					},
					"t_mapping(t_address,t_struct(Firma)83_storage)": {
						"encoding": "mapping",
						"key": "t_address",
						"label": "mapping(address => struct BaseContract.Firma)",
						"numberOfBytes": "32",
						"value": "t_struct(Firma)83_storage"
					},
					"t_mapping(t_address,t_struct(KamuKurumu)90_storage)": {
						"encoding": "mapping",
						"key": "t_address",
						"label": "mapping(address => struct BaseContract.KamuKurumu)",
						"numberOfBytes": "32",
						"value": "t_struct(KamuKurumu)90_storage"
					},
					"t_mapping(t_address,t_struct(Kisi)10_storage)": {
						"encoding": "mapping",
						"key": "t_address",
						"label": "mapping(address => struct BaseContract.Kisi)",
						"numberOfBytes": "32",
						"value": "t_struct(Kisi)10_storage"
					},
					"t_mapping(t_address,t_struct(Kurs)111_storage)": {
						"encoding": "mapping",
						"key": "t_address",
						"label": "mapping(address => struct BaseContract.Kurs)",
						"numberOfBytes": "32",
						"value": "t_struct(Kurs)111_storage"
					},
					"t_mapping(t_address,t_struct(STK)97_storage)": {
						"encoding": "mapping",
						"key": "t_address",
						"label": "mapping(address => struct BaseContract.STK)",
						"numberOfBytes": "32",
						"value": "t_struct(STK)97_storage"
					},
					"t_mapping(t_address,t_struct(SertifikaMerkezi)104_storage)": {
						"encoding": "mapping",
						"key": "t_address",
						"label": "mapping(address => struct BaseContract.SertifikaMerkezi)",
						"numberOfBytes": "32",
						"value": "t_struct(SertifikaMerkezi)104_storage"
					},
					"t_mapping(t_address,t_struct(Universite)29_storage)": {
						"encoding": "mapping",
						"key": "t_address",
						"label": "mapping(address => struct BaseContract.Universite)",
						"numberOfBytes": "32",
						"value": "t_struct(Universite)29_storage"
					},
					"t_mapping(t_uint256,t_struct(CalismaBilgi)309_storage)": {
						"encoding": "mapping",
						"key": "t_uint256",
						"label": "mapping(uint256 => struct CalismaBilgileri.CalismaBilgi)",
						"numberOfBytes": "32",
						"value": "t_struct(CalismaBilgi)309_storage"
					},
					"t_mapping(t_uint32,t_struct(YabanciDil)116_storage)": {
						"encoding": "mapping",
						"key": "t_uint32",
						"label": "mapping(uint32 => struct BaseContract.YabanciDil)",
						"numberOfBytes": "32",
						"value": "t_struct(YabanciDil)116_storage"
					},
					"t_string_storage": {
						"encoding": "bytes",
						"label": "string",
						"numberOfBytes": "32"
					},
					"t_struct(Akademisyen)43_storage": {
						"encoding": "inplace",
						"label": "struct BaseContract.Akademisyen",
						"members": [
							{
								"astId": 31,
								"contract": "contracts/CalismaBilgileri.sol:CalismaBilgileri",
								"label": "durum",
								"offset": 0,
								"slot": "0",
								"type": "t_bool"
							},
							{
								"astId": 33,
								"contract": "contracts/CalismaBilgileri.sol:CalismaBilgileri",
								"label": "universite",
								"offset": 1,
								"slot": "0",
								"type": "t_address"
							},
							{
								"astId": 35,
								"contract": "contracts/CalismaBilgileri.sol:CalismaBilgileri",
								"label": "bolum",
								"offset": 21,
								"slot": "0",
								"type": "t_uint16"
							},
							{
								"astId": 38,
								"contract": "contracts/CalismaBilgileri.sol:CalismaBilgileri",
								"label": "unvan",
								"offset": 23,
								"slot": "0",
								"type": "t_enum(Unvan)48"
							},
							{
								"astId": 40,
								"contract": "contracts/CalismaBilgileri.sol:CalismaBilgileri",
								"label": "ad",
								"offset": 0,
								"slot": "1",
								"type": "t_string_storage"
							},
							{
								"astId": 42,
								"contract": "contracts/CalismaBilgileri.sol:CalismaBilgileri",
								"label": "soyad",
								"offset": 0,
								"slot": "2",
								"type": "t_string_storage"
							}
						],
						"numberOfBytes": "96"
					},
					"t_struct(CalismaBilgi)309_storage": {
						"encoding": "inplace",
						"label": "struct CalismaBilgileri.CalismaBilgi",
						"members": [
							{
								"astId": 286,
								"contract": "contracts/CalismaBilgileri.sol:CalismaBilgileri",
								"label": "id",
								"offset": 0,
								"slot": "0",
								"type": "t_uint256"
							},
							{
								"astId": 288,
								"contract": "contracts/CalismaBilgileri.sol:CalismaBilgileri",
								"label": "kurumAdres",
								"offset": 0,
								"slot": "1",
								"type": "t_address"
							},
							{
								"astId": 290,
								"contract": "contracts/CalismaBilgileri.sol:CalismaBilgileri",
								"label": "pozisyon",
								"offset": 20,
								"slot": "1",
								"type": "t_uint32"
							},
							{
								"astId": 292,
								"contract": "contracts/CalismaBilgileri.sol:CalismaBilgileri",
								"label": "sektor",
								"offset": 24,
								"slot": "1",
								"type": "t_uint8"
							},
							{
								"astId": 295,
								"contract": "contracts/CalismaBilgileri.sol:CalismaBilgileri",
								"label": "calismaTipi",
								"offset": 25,
								"slot": "1",
								"type": "t_enum(CalismaTipi)313"
							},
							{
								"astId": 297,
								"contract": "contracts/CalismaBilgileri.sol:CalismaBilgileri",
								"label": "isAciklama",
								"offset": 0,
								"slot": "2",
								"type": "t_string_storage"
							},
							{
								"astId": 299,
								"contract": "contracts/CalismaBilgileri.sol:CalismaBilgileri",
								"label": "basTarih",
								"offset": 0,
								"slot": "3",
								"type": "t_uint256"
							},
							{
								"astId": 301,
								"contract": "contracts/CalismaBilgileri.sol:CalismaBilgileri",
								"label": "bitTarih",
								"offset": 0,
								"slot": "4",
								"type": "t_uint256"
							},
							{
								"astId": 303,
								"contract": "contracts/CalismaBilgileri.sol:CalismaBilgileri",
								"label": "ulke",
								"offset": 0,
								"slot": "5",
								"type": "t_uint8"
							},
							{
								"astId": 305,
								"contract": "contracts/CalismaBilgileri.sol:CalismaBilgileri",
								"label": "sehir",
								"offset": 1,
								"slot": "5",
								"type": "t_uint32"
							},
							{
								"astId": 308,
								"contract": "contracts/CalismaBilgileri.sol:CalismaBilgileri",
								"label": "onayBilgi",
								"offset": 0,
								"slot": "6",
								"type": "t_struct(Onay)18_storage"
							}
						],
						"numberOfBytes": "256"
					},
					"t_struct(Firma)83_storage": {
						"encoding": "inplace",
						"label": "struct BaseContract.Firma",
						"members": [
							{
								"astId": 76,
								"contract": "contracts/CalismaBilgileri.sol:CalismaBilgileri",
								"label": "durum",
								"offset": 0,
								"slot": "0",
								"type": "t_bool"
							},
							{
								"astId": 78,
								"contract": "contracts/CalismaBilgileri.sol:CalismaBilgileri",
								"label": "ulke",
								"offset": 1,
								"slot": "0",
								"type": "t_uint8"
							},
							{
								"astId": 80,
								"contract": "contracts/CalismaBilgileri.sol:CalismaBilgileri",
								"label": "vergiNo",
								"offset": 0,
								"slot": "1",
								"type": "t_uint256"
							},
							{
								"astId": 82,
								"contract": "contracts/CalismaBilgileri.sol:CalismaBilgileri",
								"label": "isim",
								"offset": 0,
								"slot": "2",
								"type": "t_string_storage"
							}
						],
						"numberOfBytes": "96"
					},
					"t_struct(KamuKurumu)90_storage": {
						"encoding": "inplace",
						"label": "struct BaseContract.KamuKurumu",
						"members": [
							{
								"astId": 85,
								"contract": "contracts/CalismaBilgileri.sol:CalismaBilgileri",
								"label": "durum",
								"offset": 0,
								"slot": "0",
								"type": "t_bool"
							},
							{
								"astId": 87,
								"contract": "contracts/CalismaBilgileri.sol:CalismaBilgileri",
								"label": "isim",
								"offset": 0,
								"slot": "1",
								"type": "t_string_storage"
							},
							{
								"astId": 89,
								"contract": "contracts/CalismaBilgileri.sol:CalismaBilgileri",
								"label": "ulke",
								"offset": 0,
								"slot": "2",
								"type": "t_uint8"
							}
						],
						"numberOfBytes": "96"
					},
					"t_struct(Kisi)10_storage": {
						"encoding": "inplace",
						"label": "struct BaseContract.Kisi",
						"members": [
							{
								"astId": 9,
								"contract": "contracts/CalismaBilgileri.sol:CalismaBilgileri",
								"label": "durum",
								"offset": 0,
								"slot": "0",
								"type": "t_bool"
							}
						],
						"numberOfBytes": "32"
					},
					"t_struct(Kurs)111_storage": {
						"encoding": "inplace",
						"label": "struct BaseContract.Kurs",
						"members": [
							{
								"astId": 106,
								"contract": "contracts/CalismaBilgileri.sol:CalismaBilgileri",
								"label": "durum",
								"offset": 0,
								"slot": "0",
								"type": "t_bool"
							},
							{
								"astId": 108,
								"contract": "contracts/CalismaBilgileri.sol:CalismaBilgileri",
								"label": "isim",
								"offset": 0,
								"slot": "1",
								"type": "t_string_storage"
							},
							{
								"astId": 110,
								"contract": "contracts/CalismaBilgileri.sol:CalismaBilgileri",
								"label": "ulke",
								"offset": 0,
								"slot": "2",
								"type": "t_uint8"
							}
						],
						"numberOfBytes": "96"
					},
					"t_struct(Onay)18_storage": {
						"encoding": "inplace",
						"label": "struct BaseContract.Onay",
						"members": [
							{
								"astId": 12,
								"contract": "contracts/CalismaBilgileri.sol:CalismaBilgileri",
								"label": "zaman",
								"offset": 0,
								"slot": "0",
								"type": "t_uint256"
							},
							{
								"astId": 14,
								"contract": "contracts/CalismaBilgileri.sol:CalismaBilgileri",
								"label": "adres",
								"offset": 0,
								"slot": "1",
								"type": "t_address"
							},
							{
								"astId": 17,
								"contract": "contracts/CalismaBilgileri.sol:CalismaBilgileri",
								"label": "durum",
								"offset": 20,
								"slot": "1",
								"type": "t_enum(OnayDurum)22"
							}
						],
						"numberOfBytes": "64"
					},
					"t_struct(STK)97_storage": {
						"encoding": "inplace",
						"label": "struct BaseContract.STK",
						"members": [
							{
								"astId": 92,
								"contract": "contracts/CalismaBilgileri.sol:CalismaBilgileri",
								"label": "durum",
								"offset": 0,
								"slot": "0",
								"type": "t_bool"
							},
							{
								"astId": 94,
								"contract": "contracts/CalismaBilgileri.sol:CalismaBilgileri",
								"label": "isim",
								"offset": 0,
								"slot": "1",
								"type": "t_string_storage"
							},
							{
								"astId": 96,
								"contract": "contracts/CalismaBilgileri.sol:CalismaBilgileri",
								"label": "ulke",
								"offset": 0,
								"slot": "2",
								"type": "t_uint8"
							}
						],
						"numberOfBytes": "96"
					},
					"t_struct(SertifikaMerkezi)104_storage": {
						"encoding": "inplace",
						"label": "struct BaseContract.SertifikaMerkezi",
						"members": [
							{
								"astId": 99,
								"contract": "contracts/CalismaBilgileri.sol:CalismaBilgileri",
								"label": "durum",
								"offset": 0,
								"slot": "0",
								"type": "t_bool"
							},
							{
								"astId": 101,
								"contract": "contracts/CalismaBilgileri.sol:CalismaBilgileri",
								"label": "isim",
								"offset": 0,
								"slot": "1",
								"type": "t_string_storage"
							},
							{
								"astId": 103,
								"contract": "contracts/CalismaBilgileri.sol:CalismaBilgileri",
								"label": "ulke",
								"offset": 0,
								"slot": "2",
								"type": "t_uint8"
							}
						],
						"numberOfBytes": "96"
					},
					"t_struct(Universite)29_storage": {
						"encoding": "inplace",
						"label": "struct BaseContract.Universite",
						"members": [
							{
								"astId": 24,
								"contract": "contracts/CalismaBilgileri.sol:CalismaBilgileri",
								"label": "durum",
								"offset": 0,
								"slot": "0",
								"type": "t_bool"
							},
							{
								"astId": 26,
								"contract": "contracts/CalismaBilgileri.sol:CalismaBilgileri",
								"label": "isim",
								"offset": 0,
								"slot": "1",
								"type": "t_string_storage"
							},
							{
								"astId": 28,
								"contract": "contracts/CalismaBilgileri.sol:CalismaBilgileri",
								"label": "ulke",
								"offset": 0,
								"slot": "2",
								"type": "t_uint8"
							}
						],
						"numberOfBytes": "96"
					},
					"t_struct(YabanciDil)116_storage": {
						"encoding": "inplace",
						"label": "struct BaseContract.YabanciDil",
						"members": [
							{
								"astId": 113,
								"contract": "contracts/CalismaBilgileri.sol:CalismaBilgileri",
								"label": "id",
								"offset": 0,
								"slot": "0",
								"type": "t_uint32"
							},
							{
								"astId": 115,
								"contract": "contracts/CalismaBilgileri.sol:CalismaBilgileri",
								"label": "isim",
								"offset": 0,
								"slot": "1",
								"type": "t_string_storage"
							}
						],
						"numberOfBytes": "64"
					},
					"t_uint16": {
						"encoding": "inplace",
						"label": "uint16",
						"numberOfBytes": "2"
					},
					"t_uint256": {
						"encoding": "inplace",
						"label": "uint256",
						"numberOfBytes": "32"
					},
					"t_uint32": {
						"encoding": "inplace",
						"label": "uint32",
						"numberOfBytes": "4"
					},
					"t_uint8": {
						"encoding": "inplace",
						"label": "uint8",
						"numberOfBytes": "1"
					}
				}
			},
			"userdoc": {
				"kind": "user",
				"methods": {},
				"version": 1
			}
		}
	}
}