{
	"contracts/Registration.sol": {
		"Registration": {
			"abi": [
				{
					"inputs": [
						{
							"internalType": "address",
							"name": "_yok",
							"type": "address"
						},
						{
							"internalType": "address",
							"name": "_tobb",
							"type": "address"
						},
						{
							"internalType": "address",
							"name": "_cb",
							"type": "address"
						}
					],
					"stateMutability": "nonpayable",
					"type": "constructor"
				},
				{
					"anonymous": false,
					"inputs": [
						{
							"indexed": false,
							"internalType": "address",
							"name": "_akademisyenAdres",
							"type": "address"
						},
						{
							"indexed": false,
							"internalType": "address",
							"name": "_universiteAdres",
							"type": "address"
						},
						{
							"indexed": false,
							"internalType": "string",
							"name": "_ad",
							"type": "string"
						},
						{
							"indexed": false,
							"internalType": "string",
							"name": "_soyad",
							"type": "string"
						},
						{
							"indexed": false,
							"internalType": "uint16",
							"name": "_bolum",
							"type": "uint16"
						},
						{
							"indexed": false,
							"internalType": "enum BaseContract.Unvan",
							"name": "_unvan",
							"type": "uint8"
						}
					],
					"name": "AkademisyenEkleLog",
					"type": "event"
				},
				{
					"anonymous": false,
					"inputs": [
						{
							"indexed": false,
							"internalType": "address",
							"name": "_firmaAdres",
							"type": "address"
						},
						{
							"indexed": false,
							"internalType": "string",
							"name": "_isim",
							"type": "string"
						},
						{
							"indexed": false,
							"internalType": "uint256",
							"name": "_vergiNo",
							"type": "uint256"
						},
						{
							"indexed": false,
							"internalType": "uint8",
							"name": "_ulke",
							"type": "uint8"
						}
					],
					"name": "FirmaEkleLog",
					"type": "event"
				},
				{
					"anonymous": false,
					"inputs": [
						{
							"indexed": false,
							"internalType": "address",
							"name": "_kamuKurumuAdres",
							"type": "address"
						},
						{
							"indexed": false,
							"internalType": "string",
							"name": "_isim",
							"type": "string"
						},
						{
							"indexed": false,
							"internalType": "uint8",
							"name": "_ulke",
							"type": "uint8"
						}
					],
					"name": "KamuKurumuEkleLog",
					"type": "event"
				},
				{
					"anonymous": false,
					"inputs": [
						{
							"indexed": false,
							"internalType": "address",
							"name": "_kursAdres",
							"type": "address"
						},
						{
							"indexed": false,
							"internalType": "string",
							"name": "_isim",
							"type": "string"
						},
						{
							"indexed": false,
							"internalType": "uint8",
							"name": "_ulke",
							"type": "uint8"
						}
					],
					"name": "KursEkleLog",
					"type": "event"
				},
				{
					"anonymous": false,
					"inputs": [
						{
							"indexed": false,
							"internalType": "address",
							"name": "_personAddress",
							"type": "address"
						}
					],
					"name": "PersonRegisteredLog",
					"type": "event"
				},
				{
					"anonymous": false,
					"inputs": [
						{
							"indexed": false,
							"internalType": "address",
							"name": "_stkAdres",
							"type": "address"
						},
						{
							"indexed": false,
							"internalType": "string",
							"name": "_isim",
							"type": "string"
						},
						{
							"indexed": false,
							"internalType": "uint8",
							"name": "_ulke",
							"type": "uint8"
						}
					],
					"name": "STKEkleLog",
					"type": "event"
				},
				{
					"anonymous": false,
					"inputs": [
						{
							"indexed": false,
							"internalType": "address",
							"name": "_smAdres",
							"type": "address"
						},
						{
							"indexed": false,
							"internalType": "string",
							"name": "_isim",
							"type": "string"
						},
						{
							"indexed": false,
							"internalType": "uint8",
							"name": "_ulke",
							"type": "uint8"
						}
					],
					"name": "SertifikaMerkeziEkleLog",
					"type": "event"
				},
				{
					"anonymous": false,
					"inputs": [
						{
							"indexed": false,
							"internalType": "address",
							"name": "_universiteAdres",
							"type": "address"
						},
						{
							"indexed": false,
							"internalType": "string",
							"name": "_isim",
							"type": "string"
						},
						{
							"indexed": false,
							"internalType": "uint8",
							"name": "_ulke",
							"type": "uint8"
						}
					],
					"name": "UniversiteKayitLog",
					"type": "event"
				},
				{
					"inputs": [
						{
							"internalType": "address",
							"name": "",
							"type": "address"
						}
					],
					"name": "akademisyenler",
					"outputs": [
						{
							"internalType": "bool",
							"name": "durum",
							"type": "bool"
						},
						{
							"internalType": "address",
							"name": "universite",
							"type": "address"
						},
						{
							"internalType": "uint16",
							"name": "bolum",
							"type": "uint16"
						},
						{
							"internalType": "enum BaseContract.Unvan",
							"name": "unvan",
							"type": "uint8"
						},
						{
							"internalType": "string",
							"name": "ad",
							"type": "string"
						},
						{
							"internalType": "string",
							"name": "soyad",
							"type": "string"
						}
					],
					"stateMutability": "view",
					"type": "function"
				},
				{
					"inputs": [
						{
							"internalType": "address",
							"name": "_akademisyenAdres",
							"type": "address"
						},
						{
							"internalType": "address",
							"name": "_universiteAdres",
							"type": "address"
						},
						{
							"internalType": "string",
							"name": "_ad",
							"type": "string"
						},
						{
							"internalType": "string",
							"name": "_soyad",
							"type": "string"
						},
						{
							"internalType": "uint16",
							"name": "_bolum",
							"type": "uint16"
						},
						{
							"internalType": "enum BaseContract.Unvan",
							"name": "_unvan",
							"type": "uint8"
						}
					],
					"name": "ekleAkademisyen",
					"outputs": [],
					"stateMutability": "nonpayable",
					"type": "function"
				},
				{
					"inputs": [
						{
							"internalType": "address",
							"name": "_firmaAdres",
							"type": "address"
						},
						{
							"internalType": "string",
							"name": "_isim",
							"type": "string"
						},
						{
							"internalType": "uint256",
							"name": "_vergiNo",
							"type": "uint256"
						},
						{
							"internalType": "uint8",
							"name": "_ulke",
							"type": "uint8"
						}
					],
					"name": "ekleFirma",
					"outputs": [],
					"stateMutability": "nonpayable",
					"type": "function"
				},
				{
					"inputs": [
						{
							"internalType": "address",
							"name": "_kamuKurumuAdres",
							"type": "address"
						},
						{
							"internalType": "string",
							"name": "_isim",
							"type": "string"
						},
						{
							"internalType": "uint8",
							"name": "_ulke",
							"type": "uint8"
						}
					],
					"name": "ekleKamuKurumu",
					"outputs": [],
					"stateMutability": "nonpayable",
					"type": "function"
				},
				{
					"inputs": [
						{
							"internalType": "address",
							"name": "_kursAdres",
							"type": "address"
						},
						{
							"internalType": "string",
							"name": "_isim",
							"type": "string"
						},
						{
							"internalType": "uint8",
							"name": "_ulke",
							"type": "uint8"
						}
					],
					"name": "ekleKurs",
					"outputs": [],
					"stateMutability": "nonpayable",
					"type": "function"
				},
				{
					"inputs": [
						{
							"internalType": "address",
							"name": "_stkAdres",
							"type": "address"
						},
						{
							"internalType": "string",
							"name": "_isim",
							"type": "string"
						},
						{
							"internalType": "uint8",
							"name": "_ulke",
							"type": "uint8"
						}
					],
					"name": "ekleSTK",
					"outputs": [],
					"stateMutability": "nonpayable",
					"type": "function"
				},
				{
					"inputs": [
						{
							"internalType": "address",
							"name": "_smAdres",
							"type": "address"
						},
						{
							"internalType": "string",
							"name": "_isim",
							"type": "string"
						},
						{
							"internalType": "uint8",
							"name": "_ulke",
							"type": "uint8"
						}
					],
					"name": "ekleSertifikaMerkezi",
					"outputs": [],
					"stateMutability": "nonpayable",
					"type": "function"
				},
				{
					"inputs": [
						{
							"internalType": "address",
							"name": "_universiteAdres",
							"type": "address"
						},
						{
							"internalType": "string",
							"name": "_isim",
							"type": "string"
						},
						{
							"internalType": "uint8",
							"name": "_ulke",
							"type": "uint8"
						}
					],
					"name": "ekleUniversite",
					"outputs": [],
					"stateMutability": "nonpayable",
					"type": "function"
				},
				{
					"inputs": [
						{
							"internalType": "address",
							"name": "",
							"type": "address"
						}
					],
					"name": "firmalar",
					"outputs": [
						{
							"internalType": "bool",
							"name": "durum",
							"type": "bool"
						},
						{
							"internalType": "uint8",
							"name": "ulke",
							"type": "uint8"
						},
						{
							"internalType": "uint256",
							"name": "vergiNo",
							"type": "uint256"
						},
						{
							"internalType": "string",
							"name": "isim",
							"type": "string"
						}
					],
					"stateMutability": "view",
					"type": "function"
				},
				{
					"inputs": [
						{
							"internalType": "address",
							"name": "",
							"type": "address"
						}
					],
					"name": "kamuKurumlari",
					"outputs": [
						{
							"internalType": "bool",
							"name": "durum",
							"type": "bool"
						},
						{
							"internalType": "string",
							"name": "isim",
							"type": "string"
						},
						{
							"internalType": "uint8",
							"name": "ulke",
							"type": "uint8"
						}
					],
					"stateMutability": "view",
					"type": "function"
				},
				{
					"inputs": [
						{
							"internalType": "address",
							"name": "",
							"type": "address"
						}
					],
					"name": "kisiler",
					"outputs": [
						{
							"internalType": "bool",
							"name": "durum",
							"type": "bool"
						}
					],
					"stateMutability": "view",
					"type": "function"
				},
				{
					"inputs": [
						{
							"internalType": "address",
							"name": "",
							"type": "address"
						}
					],
					"name": "kurslar",
					"outputs": [
						{
							"internalType": "bool",
							"name": "durum",
							"type": "bool"
						},
						{
							"internalType": "string",
							"name": "isim",
							"type": "string"
						},
						{
							"internalType": "uint8",
							"name": "ulke",
							"type": "uint8"
						}
					],
					"stateMutability": "view",
					"type": "function"
				},
				{
					"inputs": [
						{
							"internalType": "address",
							"name": "",
							"type": "address"
						}
					],
					"name": "sertifikaMerkezleri",
					"outputs": [
						{
							"internalType": "bool",
							"name": "durum",
							"type": "bool"
						},
						{
							"internalType": "string",
							"name": "isim",
							"type": "string"
						},
						{
							"internalType": "uint8",
							"name": "ulke",
							"type": "uint8"
						}
					],
					"stateMutability": "view",
					"type": "function"
				},
				{
					"inputs": [
						{
							"internalType": "address",
							"name": "",
							"type": "address"
						}
					],
					"name": "stklar",
					"outputs": [
						{
							"internalType": "bool",
							"name": "durum",
							"type": "bool"
						},
						{
							"internalType": "string",
							"name": "isim",
							"type": "string"
						},
						{
							"internalType": "uint8",
							"name": "ulke",
							"type": "uint8"
						}
					],
					"stateMutability": "view",
					"type": "function"
				},
				{
					"inputs": [
						{
							"internalType": "address",
							"name": "",
							"type": "address"
						}
					],
					"name": "universiteler",
					"outputs": [
						{
							"internalType": "bool",
							"name": "durum",
							"type": "bool"
						},
						{
							"internalType": "string",
							"name": "isim",
							"type": "string"
						},
						{
							"internalType": "uint8",
							"name": "ulke",
							"type": "uint8"
						}
					],
					"stateMutability": "view",
					"type": "function"
				}
			],
			"devdoc": {
				"kind": "dev",
				"methods": {},
				"version": 1
			},
			"evm": {
				"assembly": "    /* \"contracts/Registration.sol\":102:5592  contract Registration is BaseContract{\r... */\n  mstore(0x40, 0x80)\n    /* \"contracts/Registration.sol\":825:944  constructor (address _yok, address _tobb, address _cb){\r... */\n  callvalue\n  dup1\n  iszero\n  tag_1\n  jumpi\n  0x00\n  dup1\n  revert\ntag_1:\n  pop\n  mload(0x40)\n  sub(codesize, bytecodeSize)\n  dup1\n  bytecodeSize\n  dup4\n  codecopy\n  dup2\n  dup2\n  add\n  0x40\n  mstore\n  dup2\n  add\n  swap1\n  tag_2\n  swap2\n  swap1\n  tag_3\n  jump\t// in\ntag_2:\n    /* \"contracts/Registration.sol\":894:898  _yok */\n  dup3\n    /* \"contracts/Registration.sol\":890:893  YOK */\n  0x00\n  dup1\n    /* \"contracts/Registration.sol\":890:898  YOK=_yok */\n  0x0100\n  exp\n  dup2\n  sload\n  dup2\n  0xffffffffffffffffffffffffffffffffffffffff\n  mul\n  not\n  and\n  swap1\n  dup4\n  0xffffffffffffffffffffffffffffffffffffffff\n  and\n  mul\n  or\n  swap1\n  sstore\n  pop\n    /* \"contracts/Registration.sol\":914:919  _tobb */\n  dup2\n    /* \"contracts/Registration.sol\":909:913  TOBB */\n  0x01\n  0x00\n    /* \"contracts/Registration.sol\":909:919  TOBB=_tobb */\n  0x0100\n  exp\n  dup2\n  sload\n  dup2\n  0xffffffffffffffffffffffffffffffffffffffff\n  mul\n  not\n  and\n  swap1\n  dup4\n  0xffffffffffffffffffffffffffffffffffffffff\n  and\n  mul\n  or\n  swap1\n  sstore\n  pop\n    /* \"contracts/Registration.sol\":933:936  _cb */\n  dup1\n    /* \"contracts/Registration.sol\":930:932  CB */\n  0x02\n  0x00\n    /* \"contracts/Registration.sol\":930:936  CB=_cb */\n  0x0100\n  exp\n  dup2\n  sload\n  dup2\n  0xffffffffffffffffffffffffffffffffffffffff\n  mul\n  not\n  and\n  swap1\n  dup4\n  0xffffffffffffffffffffffffffffffffffffffff\n  and\n  mul\n  or\n  swap1\n  sstore\n  pop\n    /* \"contracts/Registration.sol\":825:944  constructor (address _yok, address _tobb, address _cb){\r... */\n  pop\n  pop\n  pop\n    /* \"contracts/Registration.sol\":102:5592  contract Registration is BaseContract{\r... */\n  jump(tag_6)\n    /* \"#utility.yul\":7:150   */\ntag_8:\n    /* \"#utility.yul\":64:69   */\n  0x00\n    /* \"#utility.yul\":95:101   */\n  dup2\n    /* \"#utility.yul\":89:102   */\n  mload\n    /* \"#utility.yul\":80:102   */\n  swap1\n  pop\n    /* \"#utility.yul\":111:144   */\n  tag_10\n    /* \"#utility.yul\":138:143   */\n  dup2\n    /* \"#utility.yul\":111:144   */\n  tag_11\n  jump\t// in\ntag_10:\n    /* \"#utility.yul\":7:150   */\n  swap3\n  swap2\n  pop\n  pop\n  jump\t// out\n    /* \"#utility.yul\":156:819   */\ntag_3:\n    /* \"#utility.yul\":244:250   */\n  0x00\n    /* \"#utility.yul\":252:258   */\n  dup1\n    /* \"#utility.yul\":260:266   */\n  0x00\n    /* \"#utility.yul\":309:311   */\n  0x60\n    /* \"#utility.yul\":297:306   */\n  dup5\n    /* \"#utility.yul\":288:295   */\n  dup7\n    /* \"#utility.yul\":284:307   */\n  sub\n    /* \"#utility.yul\":280:312   */\n  slt\n    /* \"#utility.yul\":277:396   */\n  iszero\n  tag_13\n  jumpi\n    /* \"#utility.yul\":315:394   */\n  tag_14\n  tag_15\n  jump\t// in\ntag_14:\n    /* \"#utility.yul\":277:396   */\ntag_13:\n    /* \"#utility.yul\":435:436   */\n  0x00\n    /* \"#utility.yul\":460:524   */\n  tag_16\n    /* \"#utility.yul\":516:523   */\n  dup7\n    /* \"#utility.yul\":507:513   */\n  dup3\n    /* \"#utility.yul\":496:505   */\n  dup8\n    /* \"#utility.yul\":492:514   */\n  add\n    /* \"#utility.yul\":460:524   */\n  tag_8\n  jump\t// in\ntag_16:\n    /* \"#utility.yul\":450:524   */\n  swap4\n  pop\n    /* \"#utility.yul\":406:534   */\n  pop\n    /* \"#utility.yul\":573:575   */\n  0x20\n    /* \"#utility.yul\":599:663   */\n  tag_17\n    /* \"#utility.yul\":655:662   */\n  dup7\n    /* \"#utility.yul\":646:652   */\n  dup3\n    /* \"#utility.yul\":635:644   */\n  dup8\n    /* \"#utility.yul\":631:653   */\n  add\n    /* \"#utility.yul\":599:663   */\n  tag_8\n  jump\t// in\ntag_17:\n    /* \"#utility.yul\":589:663   */\n  swap3\n  pop\n    /* \"#utility.yul\":544:673   */\n  pop\n    /* \"#utility.yul\":712:714   */\n  0x40\n    /* \"#utility.yul\":738:802   */\n  tag_18\n    /* \"#utility.yul\":794:801   */\n  dup7\n    /* \"#utility.yul\":785:791   */\n  dup3\n    /* \"#utility.yul\":774:783   */\n  dup8\n    /* \"#utility.yul\":770:792   */\n  add\n    /* \"#utility.yul\":738:802   */\n  tag_8\n  jump\t// in\ntag_18:\n    /* \"#utility.yul\":728:802   */\n  swap2\n  pop\n    /* \"#utility.yul\":683:812   */\n  pop\n    /* \"#utility.yul\":156:819   */\n  swap3\n  pop\n  swap3\n  pop\n  swap3\n  jump\t// out\n    /* \"#utility.yul\":906:1002   */\ntag_21:\n    /* \"#utility.yul\":943:950   */\n  0x00\n    /* \"#utility.yul\":972:996   */\n  tag_23\n    /* \"#utility.yul\":990:995   */\n  dup3\n    /* \"#utility.yul\":972:996   */\n  tag_24\n  jump\t// in\ntag_23:\n    /* \"#utility.yul\":961:996   */\n  swap1\n  pop\n    /* \"#utility.yul\":906:1002   */\n  swap2\n  swap1\n  pop\n  jump\t// out\n    /* \"#utility.yul\":1008:1134   */\ntag_24:\n    /* \"#utility.yul\":1045:1052   */\n  0x00\n    /* \"#utility.yul\":1085:1127   */\n  0xffffffffffffffffffffffffffffffffffffffff\n    /* \"#utility.yul\":1078:1083   */\n  dup3\n    /* \"#utility.yul\":1074:1128   */\n  and\n    /* \"#utility.yul\":1063:1128   */\n  swap1\n  pop\n    /* \"#utility.yul\":1008:1134   */\n  swap2\n  swap1\n  pop\n  jump\t// out\n    /* \"#utility.yul\":1263:1380   */\ntag_15:\n    /* \"#utility.yul\":1372:1373   */\n  0x00\n    /* \"#utility.yul\":1369:1370   */\n  dup1\n    /* \"#utility.yul\":1362:1374   */\n  revert\n    /* \"#utility.yul\":1386:1508   */\ntag_11:\n    /* \"#utility.yul\":1459:1483   */\n  tag_30\n    /* \"#utility.yul\":1477:1482   */\n  dup2\n    /* \"#utility.yul\":1459:1483   */\n  tag_21\n  jump\t// in\ntag_30:\n    /* \"#utility.yul\":1452:1457   */\n  dup2\n    /* \"#utility.yul\":1449:1484   */\n  eq\n    /* \"#utility.yul\":1439:1502   */\n  tag_31\n  jumpi\n    /* \"#utility.yul\":1498:1499   */\n  0x00\n    /* \"#utility.yul\":1495:1496   */\n  dup1\n    /* \"#utility.yul\":1488:1500   */\n  revert\n    /* \"#utility.yul\":1439:1502   */\ntag_31:\n    /* \"#utility.yul\":1386:1508   */\n  pop\n  jump\t// out\n    /* \"contracts/Registration.sol\":102:5592  contract Registration is BaseContract{\r... */\ntag_6:\n  dataSize(sub_0)\n  dup1\n  dataOffset(sub_0)\n  0x00\n  codecopy\n  0x00\n  return\nstop\n\nsub_0: assembly {\n        /* \"contracts/Registration.sol\":102:5592  contract Registration is BaseContract{\r... */\n      mstore(0x40, 0x80)\n      callvalue\n      dup1\n      iszero\n      tag_1\n      jumpi\n      0x00\n      dup1\n      revert\n    tag_1:\n      pop\n      jumpi(tag_2, lt(calldatasize, 0x04))\n      shr(0xe0, calldataload(0x00))\n      dup1\n      0x46224853\n      gt\n      tag_18\n      jumpi\n      dup1\n      0xba479b7e\n      gt\n      tag_19\n      jumpi\n      dup1\n      0xba479b7e\n      eq\n      tag_14\n      jumpi\n      dup1\n      0xcbc92809\n      eq\n      tag_15\n      jumpi\n      dup1\n      0xd25aab85\n      eq\n      tag_16\n      jumpi\n      dup1\n      0xf63c649f\n      eq\n      tag_17\n      jumpi\n      jump(tag_2)\n    tag_19:\n      dup1\n      0x46224853\n      eq\n      tag_10\n      jumpi\n      dup1\n      0x7d0fa287\n      eq\n      tag_11\n      jumpi\n      dup1\n      0x9a8c9119\n      eq\n      tag_12\n      jumpi\n      dup1\n      0x9dc30114\n      eq\n      tag_13\n      jumpi\n      jump(tag_2)\n    tag_18:\n      dup1\n      0x1c23f0e1\n      gt\n      tag_20\n      jumpi\n      dup1\n      0x1c23f0e1\n      eq\n      tag_6\n      jumpi\n      dup1\n      0x28266697\n      eq\n      tag_7\n      jumpi\n      dup1\n      0x356b1f1e\n      eq\n      tag_8\n      jumpi\n      dup1\n      0x39987f94\n      eq\n      tag_9\n      jumpi\n      jump(tag_2)\n    tag_20:\n      dup1\n      0x1d54ab\n      eq\n      tag_3\n      jumpi\n      dup1\n      0x19023bf3\n      eq\n      tag_4\n      jumpi\n      dup1\n      0x1916e139\n      eq\n      tag_5\n      jumpi\n    tag_2:\n      0x00\n      dup1\n      revert\n        /* \"contracts/Registration.sol\":953:1491  function ekleUniversite(address _universiteAdres,string memory _isim, uint8 _ulke)  public sadeceYOK{\r... */\n    tag_3:\n      tag_21\n      0x04\n      dup1\n      calldatasize\n      sub\n      dup2\n      add\n      swap1\n      tag_22\n      swap2\n      swap1\n      tag_23\n      jump\t// in\n    tag_22:\n      tag_24\n      jump\t// in\n    tag_21:\n      stop\n        /* \"contracts/Registration.sol\":4613:5024  function ekleSTK(address _stkAdres,string memory _isim, uint8 _ulke) \r... */\n    tag_4:\n      tag_25\n      0x04\n      dup1\n      calldatasize\n      sub\n      dup2\n      add\n      swap1\n      tag_26\n      swap2\n      swap1\n      tag_23\n      jump\t// in\n    tag_26:\n      tag_27\n      jump\t// in\n    tag_25:\n      stop\n        /* \"contracts/BaseContract.sol\":2653:2691  mapping(address=>Kurs) public  kurslar */\n    tag_5:\n      tag_28\n      0x04\n      dup1\n      calldatasize\n      sub\n      dup2\n      add\n      swap1\n      tag_29\n      swap2\n      swap1\n      tag_30\n      jump\t// in\n    tag_29:\n      tag_31\n      jump\t// in\n    tag_28:\n      mload(0x40)\n      tag_32\n      swap4\n      swap3\n      swap2\n      swap1\n      tag_33\n      jump\t// in\n    tag_32:\n      mload(0x40)\n      dup1\n      swap2\n      sub\n      swap1\n      return\n        /* \"contracts/Registration.sol\":2412:3201  function ekleAkademisyen(address _akademisyenAdres,address _universiteAdres, string memory _ad, string memory _soyad,uint16 _bolum, Unvan _unvan)   public sadeceUniversite{\r... */\n    tag_6:\n      tag_34\n      0x04\n      dup1\n      calldatasize\n      sub\n      dup2\n      add\n      swap1\n      tag_35\n      swap2\n      swap1\n      tag_36\n      jump\t// in\n    tag_35:\n      tag_37\n      jump\t// in\n    tag_34:\n      stop\n        /* \"contracts/BaseContract.sol\":2492:2541  mapping(address=>Universite) public universiteler */\n    tag_7:\n      tag_38\n      0x04\n      dup1\n      calldatasize\n      sub\n      dup2\n      add\n      swap1\n      tag_39\n      swap2\n      swap1\n      tag_30\n      jump\t// in\n    tag_39:\n      tag_40\n      jump\t// in\n    tag_38:\n      mload(0x40)\n      tag_41\n      swap4\n      swap3\n      swap2\n      swap1\n      tag_33\n      jump\t// in\n    tag_41:\n      mload(0x40)\n      dup1\n      swap2\n      sub\n      swap1\n      return\n        /* \"contracts/BaseContract.sol\":2796:2857  mapping(address=>SertifikaMerkezi) public sertifikaMerkezleri */\n    tag_8:\n      tag_42\n      0x04\n      dup1\n      calldatasize\n      sub\n      dup2\n      add\n      swap1\n      tag_43\n      swap2\n      swap1\n      tag_30\n      jump\t// in\n    tag_43:\n      tag_44\n      jump\t// in\n    tag_42:\n      mload(0x40)\n      tag_45\n      swap4\n      swap3\n      swap2\n      swap1\n      tag_33\n      jump\t// in\n    tag_45:\n      mload(0x40)\n      dup1\n      swap2\n      sub\n      swap1\n      return\n        /* \"contracts/BaseContract.sol\":2606:2646  mapping(address=>Firma) public  firmalar */\n    tag_9:\n      tag_46\n      0x04\n      dup1\n      calldatasize\n      sub\n      dup2\n      add\n      swap1\n      tag_47\n      swap2\n      swap1\n      tag_30\n      jump\t// in\n    tag_47:\n      tag_48\n      jump\t// in\n    tag_46:\n      mload(0x40)\n      tag_49\n      swap5\n      swap4\n      swap3\n      swap2\n      swap1\n      tag_50\n      jump\t// in\n    tag_49:\n      mload(0x40)\n      dup1\n      swap2\n      sub\n      swap1\n      return\n        /* \"contracts/Registration.sol\":4180:4606  function ekleKurs(address _kursAdres,string memory _isim, uint8 _ulke) \r... */\n    tag_10:\n      tag_51\n      0x04\n      dup1\n      calldatasize\n      sub\n      dup2\n      add\n      swap1\n      tag_52\n      swap2\n      swap1\n      tag_23\n      jump\t// in\n    tag_52:\n      tag_53\n      jump\t// in\n    tag_51:\n      stop\n        /* \"contracts/BaseContract.sol\":2698:2747  mapping(address=>KamuKurumu) public kamuKurumlari */\n    tag_11:\n      tag_54\n      0x04\n      dup1\n      calldatasize\n      sub\n      dup2\n      add\n      swap1\n      tag_55\n      swap2\n      swap1\n      tag_30\n      jump\t// in\n    tag_55:\n      tag_56\n      jump\t// in\n    tag_54:\n      mload(0x40)\n      tag_57\n      swap4\n      swap3\n      swap2\n      swap1\n      tag_33\n      jump\t// in\n    tag_57:\n      mload(0x40)\n      dup1\n      swap2\n      sub\n      swap1\n      return\n        /* \"contracts/BaseContract.sol\":2754:2789  mapping(address=>STK) public stklar */\n    tag_12:\n      tag_58\n      0x04\n      dup1\n      calldatasize\n      sub\n      dup2\n      add\n      swap1\n      tag_59\n      swap2\n      swap1\n      tag_30\n      jump\t// in\n    tag_59:\n      tag_60\n      jump\t// in\n    tag_58:\n      mload(0x40)\n      tag_61\n      swap4\n      swap3\n      swap2\n      swap1\n      tag_33\n      jump\t// in\n    tag_61:\n      mload(0x40)\n      dup1\n      swap2\n      sub\n      swap1\n      return\n        /* \"contracts/Registration.sol\":5031:5589  function ekleSertifikaMerkezi(address _smAdres,string memory _isim, uint8 _ulke) \r... */\n    tag_13:\n      tag_62\n      0x04\n      dup1\n      calldatasize\n      sub\n      dup2\n      add\n      swap1\n      tag_63\n      swap2\n      swap1\n      tag_23\n      jump\t// in\n    tag_63:\n      tag_64\n      jump\t// in\n    tag_62:\n      stop\n        /* \"contracts/BaseContract.sol\":2548:2599  mapping(address=>Akademisyen) public akademisyenler */\n    tag_14:\n      tag_65\n      0x04\n      dup1\n      calldatasize\n      sub\n      dup2\n      add\n      swap1\n      tag_66\n      swap2\n      swap1\n      tag_30\n      jump\t// in\n    tag_66:\n      tag_67\n      jump\t// in\n    tag_65:\n      mload(0x40)\n      tag_68\n      swap7\n      swap6\n      swap5\n      swap4\n      swap3\n      swap2\n      swap1\n      tag_69\n      jump\t// in\n    tag_68:\n      mload(0x40)\n      dup1\n      swap2\n      sub\n      swap1\n      return\n        /* \"contracts/BaseContract.sol\":2448:2485  mapping(address=>Kisi) public kisiler */\n    tag_15:\n      tag_70\n      0x04\n      dup1\n      calldatasize\n      sub\n      dup2\n      add\n      swap1\n      tag_71\n      swap2\n      swap1\n      tag_30\n      jump\t// in\n    tag_71:\n      tag_72\n      jump\t// in\n    tag_70:\n      mload(0x40)\n      tag_73\n      swap2\n      swap1\n      tag_74\n      jump\t// in\n    tag_73:\n      mload(0x40)\n      dup1\n      swap2\n      sub\n      swap1\n      return\n        /* \"contracts/Registration.sol\":3205:3690  function ekleFirma(address _firmaAdres,string memory _isim, uint _vergiNo,uint8 _ulke) \r... */\n    tag_16:\n      tag_75\n      0x04\n      dup1\n      calldatasize\n      sub\n      dup2\n      add\n      swap1\n      tag_76\n      swap2\n      swap1\n      tag_77\n      jump\t// in\n    tag_76:\n      tag_78\n      jump\t// in\n    tag_75:\n      stop\n        /* \"contracts/Registration.sol\":3697:4173  function ekleKamuKurumu(address _kamuKurumuAdres,string memory _isim, uint8 _ulke) \r... */\n    tag_17:\n      tag_79\n      0x04\n      dup1\n      calldatasize\n      sub\n      dup2\n      add\n      swap1\n      tag_80\n      swap2\n      swap1\n      tag_23\n      jump\t// in\n    tag_80:\n      tag_81\n      jump\t// in\n    tag_79:\n      stop\n        /* \"contracts/Registration.sol\":953:1491  function ekleUniversite(address _universiteAdres,string memory _isim, uint8 _ulke)  public sadeceYOK{\r... */\n    tag_24:\n        /* \"contracts/BaseContract.sol\":1242:1245  YOK */\n      0x00\n      dup1\n      sload\n      swap1\n      0x0100\n      exp\n      swap1\n      div\n      0xffffffffffffffffffffffffffffffffffffffff\n      and\n        /* \"contracts/BaseContract.sol\":1228:1245  msg.sender == YOK */\n      0xffffffffffffffffffffffffffffffffffffffff\n      and\n        /* \"contracts/BaseContract.sol\":1228:1238  msg.sender */\n      caller\n        /* \"contracts/BaseContract.sol\":1228:1245  msg.sender == YOK */\n      0xffffffffffffffffffffffffffffffffffffffff\n      and\n      eq\n        /* \"contracts/BaseContract.sol\":1220:1296  require(msg.sender == YOK,\r... */\n      tag_83\n      jumpi\n      mload(0x40)\n      0x08c379a000000000000000000000000000000000000000000000000000000000\n      dup2\n      mstore\n      0x04\n      add\n      tag_84\n      swap1\n      tag_85\n      jump\t// in\n    tag_84:\n      mload(0x40)\n      dup1\n      swap2\n      sub\n      swap1\n      revert\n    tag_83:\n        /* \"contracts/Registration.sol\":1073:1086  universiteler */\n      0x04\n        /* \"contracts/Registration.sol\":1073:1104  universiteler[_universiteAdres] */\n      0x00\n        /* \"contracts/Registration.sol\":1087:1103  _universiteAdres */\n      dup5\n        /* \"contracts/Registration.sol\":1073:1104  universiteler[_universiteAdres] */\n      0xffffffffffffffffffffffffffffffffffffffff\n      and\n      0xffffffffffffffffffffffffffffffffffffffff\n      and\n      dup2\n      mstore\n      0x20\n      add\n      swap1\n      dup2\n      mstore\n      0x20\n      add\n      0x00\n      keccak256\n        /* \"contracts/Registration.sol\":1073:1110  universiteler[_universiteAdres].durum */\n      0x00\n      add\n      0x00\n      swap1\n      sload\n      swap1\n      0x0100\n      exp\n      swap1\n      div\n      0xff\n      and\n        /* \"contracts/Registration.sol\":1072:1110  !universiteler[_universiteAdres].durum */\n      iszero\n        /* \"contracts/Registration.sol\":1064:1165  require(!universiteler[_universiteAdres].durum,\r... */\n      tag_87\n      jumpi\n      mload(0x40)\n      0x08c379a000000000000000000000000000000000000000000000000000000000\n      dup2\n      mstore\n      0x04\n      add\n      tag_88\n      swap1\n      tag_89\n      jump\t// in\n    tag_88:\n      mload(0x40)\n      dup1\n      swap2\n      sub\n      swap1\n      revert\n    tag_87:\n        /* \"contracts/Registration.sol\":1304:1308  true */\n      0x01\n        /* \"contracts/Registration.sol\":1266:1279  universiteler */\n      0x04\n        /* \"contracts/Registration.sol\":1266:1297  universiteler[_universiteAdres] */\n      0x00\n        /* \"contracts/Registration.sol\":1280:1296  _universiteAdres */\n      dup6\n        /* \"contracts/Registration.sol\":1266:1297  universiteler[_universiteAdres] */\n      0xffffffffffffffffffffffffffffffffffffffff\n      and\n      0xffffffffffffffffffffffffffffffffffffffff\n      and\n      dup2\n      mstore\n      0x20\n      add\n      swap1\n      dup2\n      mstore\n      0x20\n      add\n      0x00\n      keccak256\n        /* \"contracts/Registration.sol\":1266:1303  universiteler[_universiteAdres].durum */\n      0x00\n      add\n      0x00\n        /* \"contracts/Registration.sol\":1266:1308  universiteler[_universiteAdres].durum=true */\n      0x0100\n      exp\n      dup2\n      sload\n      dup2\n      0xff\n      mul\n      not\n      and\n      swap1\n      dup4\n      iszero\n      iszero\n      mul\n      or\n      swap1\n      sstore\n      pop\n        /* \"contracts/Registration.sol\":1356:1361  _isim */\n      dup2\n        /* \"contracts/Registration.sol\":1319:1332  universiteler */\n      0x04\n        /* \"contracts/Registration.sol\":1319:1350  universiteler[_universiteAdres] */\n      0x00\n        /* \"contracts/Registration.sol\":1333:1349  _universiteAdres */\n      dup6\n        /* \"contracts/Registration.sol\":1319:1350  universiteler[_universiteAdres] */\n      0xffffffffffffffffffffffffffffffffffffffff\n      and\n      0xffffffffffffffffffffffffffffffffffffffff\n      and\n      dup2\n      mstore\n      0x20\n      add\n      swap1\n      dup2\n      mstore\n      0x20\n      add\n      0x00\n      keccak256\n        /* \"contracts/Registration.sol\":1319:1355  universiteler[_universiteAdres].isim */\n      0x01\n      add\n        /* \"contracts/Registration.sol\":1319:1361  universiteler[_universiteAdres].isim=_isim */\n      swap1\n      dup1\n      mload\n      swap1\n      0x20\n      add\n      swap1\n      tag_90\n      swap3\n      swap2\n      swap1\n      tag_91\n      jump\t// in\n    tag_90:\n      pop\n        /* \"contracts/Registration.sol\":1409:1414  _ulke */\n      dup1\n        /* \"contracts/Registration.sol\":1372:1385  universiteler */\n      0x04\n        /* \"contracts/Registration.sol\":1372:1403  universiteler[_universiteAdres] */\n      0x00\n        /* \"contracts/Registration.sol\":1386:1402  _universiteAdres */\n      dup6\n        /* \"contracts/Registration.sol\":1372:1403  universiteler[_universiteAdres] */\n      0xffffffffffffffffffffffffffffffffffffffff\n      and\n      0xffffffffffffffffffffffffffffffffffffffff\n      and\n      dup2\n      mstore\n      0x20\n      add\n      swap1\n      dup2\n      mstore\n      0x20\n      add\n      0x00\n      keccak256\n        /* \"contracts/Registration.sol\":1372:1408  universiteler[_universiteAdres].ulke */\n      0x02\n      add\n      0x00\n        /* \"contracts/Registration.sol\":1372:1414  universiteler[_universiteAdres].ulke=_ulke */\n      0x0100\n      exp\n      dup2\n      sload\n      dup2\n      0xff\n      mul\n      not\n      and\n      swap1\n      dup4\n      0xff\n      and\n      mul\n      or\n      swap1\n      sstore\n      pop\n        /* \"contracts/Registration.sol\":1432:1483  UniversiteKayitLog( _universiteAdres, _isim, _ulke) */\n      0x750ae9c195d9b95b8c17bf0fa25801932d5a28c4871f4571af70581bc15f5bfe\n        /* \"contracts/Registration.sol\":1452:1468  _universiteAdres */\n      dup4\n        /* \"contracts/Registration.sol\":1470:1475  _isim */\n      dup4\n        /* \"contracts/Registration.sol\":1477:1482  _ulke */\n      dup4\n        /* \"contracts/Registration.sol\":1432:1483  UniversiteKayitLog( _universiteAdres, _isim, _ulke) */\n      mload(0x40)\n      tag_92\n      swap4\n      swap3\n      swap2\n      swap1\n      tag_93\n      jump\t// in\n    tag_92:\n      mload(0x40)\n      dup1\n      swap2\n      sub\n      swap1\n      log1\n        /* \"contracts/Registration.sol\":953:1491  function ekleUniversite(address _universiteAdres,string memory _isim, uint8 _ulke)  public sadeceYOK{\r... */\n      pop\n      pop\n      pop\n      jump\t// out\n        /* \"contracts/Registration.sol\":4613:5024  function ekleSTK(address _stkAdres,string memory _isim, uint8 _ulke) \r... */\n    tag_27:\n        /* \"contracts/BaseContract.sol\":1516:1518  CB */\n      0x02\n      0x00\n      swap1\n      sload\n      swap1\n      0x0100\n      exp\n      swap1\n      div\n      0xffffffffffffffffffffffffffffffffffffffff\n      and\n        /* \"contracts/BaseContract.sol\":1502:1518  msg.sender == CB */\n      0xffffffffffffffffffffffffffffffffffffffff\n      and\n        /* \"contracts/BaseContract.sol\":1502:1512  msg.sender */\n      caller\n        /* \"contracts/BaseContract.sol\":1502:1518  msg.sender == CB */\n      0xffffffffffffffffffffffffffffffffffffffff\n      and\n      eq\n        /* \"contracts/BaseContract.sol\":1494:1568  require(msg.sender == CB,\r... */\n      tag_95\n      jumpi\n      mload(0x40)\n      0x08c379a000000000000000000000000000000000000000000000000000000000\n      dup2\n      mstore\n      0x04\n      add\n      tag_96\n      swap1\n      tag_97\n      jump\t// in\n    tag_96:\n      mload(0x40)\n      dup1\n      swap2\n      sub\n      swap1\n      revert\n    tag_95:\n        /* \"contracts/Registration.sol\":4724:4730  stklar */\n      0x09\n        /* \"contracts/Registration.sol\":4724:4741  stklar[_stkAdres] */\n      0x00\n        /* \"contracts/Registration.sol\":4731:4740  _stkAdres */\n      dup5\n        /* \"contracts/Registration.sol\":4724:4741  stklar[_stkAdres] */\n      0xffffffffffffffffffffffffffffffffffffffff\n      and\n      0xffffffffffffffffffffffffffffffffffffffff\n      and\n      dup2\n      mstore\n      0x20\n      add\n      swap1\n      dup2\n      mstore\n      0x20\n      add\n      0x00\n      keccak256\n        /* \"contracts/Registration.sol\":4724:4747  stklar[_stkAdres].durum */\n      0x00\n      add\n      0x00\n      swap1\n      sload\n      swap1\n      0x0100\n      exp\n      swap1\n      div\n      0xff\n      and\n        /* \"contracts/Registration.sol\":4723:4747  !stklar[_stkAdres].durum */\n      iszero\n        /* \"contracts/Registration.sol\":4715:4813  require(!stklar[_stkAdres].durum,\r... */\n      tag_99\n      jumpi\n      mload(0x40)\n      0x08c379a000000000000000000000000000000000000000000000000000000000\n      dup2\n      mstore\n      0x04\n      add\n      tag_100\n      swap1\n      tag_101\n      jump\t// in\n    tag_100:\n      mload(0x40)\n      dup1\n      swap2\n      sub\n      swap1\n      revert\n    tag_99:\n        /* \"contracts/Registration.sol\":4862:4866  true */\n      0x01\n        /* \"contracts/Registration.sol\":4838:4844  stklar */\n      0x09\n        /* \"contracts/Registration.sol\":4838:4855  stklar[_stkAdres] */\n      0x00\n        /* \"contracts/Registration.sol\":4845:4854  _stkAdres */\n      dup6\n        /* \"contracts/Registration.sol\":4838:4855  stklar[_stkAdres] */\n      0xffffffffffffffffffffffffffffffffffffffff\n      and\n      0xffffffffffffffffffffffffffffffffffffffff\n      and\n      dup2\n      mstore\n      0x20\n      add\n      swap1\n      dup2\n      mstore\n      0x20\n      add\n      0x00\n      keccak256\n        /* \"contracts/Registration.sol\":4838:4861  stklar[_stkAdres].durum */\n      0x00\n      add\n      0x00\n        /* \"contracts/Registration.sol\":4838:4866  stklar[_stkAdres].durum=true */\n      0x0100\n      exp\n      dup2\n      sload\n      dup2\n      0xff\n      mul\n      not\n      and\n      swap1\n      dup4\n      iszero\n      iszero\n      mul\n      or\n      swap1\n      sstore\n      pop\n        /* \"contracts/Registration.sol\":4900:4905  _isim */\n      dup2\n        /* \"contracts/Registration.sol\":4877:4883  stklar */\n      0x09\n        /* \"contracts/Registration.sol\":4877:4894  stklar[_stkAdres] */\n      0x00\n        /* \"contracts/Registration.sol\":4884:4893  _stkAdres */\n      dup6\n        /* \"contracts/Registration.sol\":4877:4894  stklar[_stkAdres] */\n      0xffffffffffffffffffffffffffffffffffffffff\n      and\n      0xffffffffffffffffffffffffffffffffffffffff\n      and\n      dup2\n      mstore\n      0x20\n      add\n      swap1\n      dup2\n      mstore\n      0x20\n      add\n      0x00\n      keccak256\n        /* \"contracts/Registration.sol\":4877:4899  stklar[_stkAdres].isim */\n      0x01\n      add\n        /* \"contracts/Registration.sol\":4877:4905  stklar[_stkAdres].isim=_isim */\n      swap1\n      dup1\n      mload\n      swap1\n      0x20\n      add\n      swap1\n      tag_102\n      swap3\n      swap2\n      swap1\n      tag_91\n      jump\t// in\n    tag_102:\n      pop\n        /* \"contracts/Registration.sol\":4939:4944  _ulke */\n      dup1\n        /* \"contracts/Registration.sol\":4916:4922  stklar */\n      0x09\n        /* \"contracts/Registration.sol\":4916:4933  stklar[_stkAdres] */\n      0x00\n        /* \"contracts/Registration.sol\":4923:4932  _stkAdres */\n      dup6\n        /* \"contracts/Registration.sol\":4916:4933  stklar[_stkAdres] */\n      0xffffffffffffffffffffffffffffffffffffffff\n      and\n      0xffffffffffffffffffffffffffffffffffffffff\n      and\n      dup2\n      mstore\n      0x20\n      add\n      swap1\n      dup2\n      mstore\n      0x20\n      add\n      0x00\n      keccak256\n        /* \"contracts/Registration.sol\":4916:4938  stklar[_stkAdres].ulke */\n      0x02\n      add\n      0x00\n        /* \"contracts/Registration.sol\":4916:4944  stklar[_stkAdres].ulke=_ulke */\n      0x0100\n      exp\n      dup2\n      sload\n      dup2\n      0xff\n      mul\n      not\n      and\n      swap1\n      dup4\n      0xff\n      and\n      mul\n      or\n      swap1\n      sstore\n      pop\n        /* \"contracts/Registration.sol\":4970:5007  STKEkleLog( _stkAdres,  _isim, _ulke) */\n      0x1993679d861f13477b3e16ff3b01c1c9e471e0f6f2e30a363662c257f7207450\n        /* \"contracts/Registration.sol\":4982:4991  _stkAdres */\n      dup4\n        /* \"contracts/Registration.sol\":4994:4999  _isim */\n      dup4\n        /* \"contracts/Registration.sol\":5001:5006  _ulke */\n      dup4\n        /* \"contracts/Registration.sol\":4970:5007  STKEkleLog( _stkAdres,  _isim, _ulke) */\n      mload(0x40)\n      tag_103\n      swap4\n      swap3\n      swap2\n      swap1\n      tag_93\n      jump\t// in\n    tag_103:\n      mload(0x40)\n      dup1\n      swap2\n      sub\n      swap1\n      log1\n        /* \"contracts/Registration.sol\":4613:5024  function ekleSTK(address _stkAdres,string memory _isim, uint8 _ulke) \r... */\n      pop\n      pop\n      pop\n      jump\t// out\n        /* \"contracts/BaseContract.sol\":2653:2691  mapping(address=>Kurs) public  kurslar */\n    tag_31:\n      mstore(0x20, 0x07)\n      dup1\n      0x00\n      mstore\n      keccak256(0x00, 0x40)\n      0x00\n      swap2\n      pop\n      swap1\n      pop\n      dup1\n      0x00\n      add\n      0x00\n      swap1\n      sload\n      swap1\n      0x0100\n      exp\n      swap1\n      div\n      0xff\n      and\n      swap1\n      dup1\n      0x01\n      add\n      dup1\n      sload\n      tag_104\n      swap1\n      tag_105\n      jump\t// in\n    tag_104:\n      dup1\n      0x1f\n      add\n      0x20\n      dup1\n      swap2\n      div\n      mul\n      0x20\n      add\n      mload(0x40)\n      swap1\n      dup2\n      add\n      0x40\n      mstore\n      dup1\n      swap3\n      swap2\n      swap1\n      dup2\n      dup2\n      mstore\n      0x20\n      add\n      dup3\n      dup1\n      sload\n      tag_106\n      swap1\n      tag_105\n      jump\t// in\n    tag_106:\n      dup1\n      iszero\n      tag_107\n      jumpi\n      dup1\n      0x1f\n      lt\n      tag_108\n      jumpi\n      0x0100\n      dup1\n      dup4\n      sload\n      div\n      mul\n      dup4\n      mstore\n      swap2\n      0x20\n      add\n      swap2\n      jump(tag_107)\n    tag_108:\n      dup3\n      add\n      swap2\n      swap1\n      0x00\n      mstore\n      keccak256(0x00, 0x20)\n      swap1\n    tag_109:\n      dup2\n      sload\n      dup2\n      mstore\n      swap1\n      0x01\n      add\n      swap1\n      0x20\n      add\n      dup1\n      dup4\n      gt\n      tag_109\n      jumpi\n      dup3\n      swap1\n      sub\n      0x1f\n      and\n      dup3\n      add\n      swap2\n    tag_107:\n      pop\n      pop\n      pop\n      pop\n      pop\n      swap1\n      dup1\n      0x02\n      add\n      0x00\n      swap1\n      sload\n      swap1\n      0x0100\n      exp\n      swap1\n      div\n      0xff\n      and\n      swap1\n      pop\n      dup4\n      jump\t// out\n        /* \"contracts/Registration.sol\":2412:3201  function ekleAkademisyen(address _akademisyenAdres,address _universiteAdres, string memory _ad, string memory _soyad,uint16 _bolum, Unvan _unvan)   public sadeceUniversite{\r... */\n    tag_37:\n        /* \"contracts/BaseContract.sol\":1642:1655  universiteler */\n      0x04\n        /* \"contracts/BaseContract.sol\":1642:1667  universiteler[msg.sender] */\n      0x00\n        /* \"contracts/BaseContract.sol\":1656:1666  msg.sender */\n      caller\n        /* \"contracts/BaseContract.sol\":1642:1667  universiteler[msg.sender] */\n      0xffffffffffffffffffffffffffffffffffffffff\n      and\n      0xffffffffffffffffffffffffffffffffffffffff\n      and\n      dup2\n      mstore\n      0x20\n      add\n      swap1\n      dup2\n      mstore\n      0x20\n      add\n      0x00\n      keccak256\n        /* \"contracts/BaseContract.sol\":1642:1673  universiteler[msg.sender].durum */\n      0x00\n      add\n      0x00\n      swap1\n      sload\n      swap1\n      0x0100\n      exp\n      swap1\n      div\n      0xff\n      and\n        /* \"contracts/BaseContract.sol\":1634:1731  require(universiteler[msg.sender].durum,\r... */\n      tag_111\n      jumpi\n      mload(0x40)\n      0x08c379a000000000000000000000000000000000000000000000000000000000\n      dup2\n      mstore\n      0x04\n      add\n      tag_112\n      swap1\n      tag_113\n      jump\t// in\n    tag_112:\n      mload(0x40)\n      dup1\n      swap2\n      sub\n      swap1\n      revert\n    tag_111:\n        /* \"contracts/Registration.sol\":2603:2617  akademisyenler */\n      0x05\n        /* \"contracts/Registration.sol\":2603:2636  akademisyenler[_akademisyenAdres] */\n      0x00\n        /* \"contracts/Registration.sol\":2618:2635  _akademisyenAdres */\n      dup8\n        /* \"contracts/Registration.sol\":2603:2636  akademisyenler[_akademisyenAdres] */\n      0xffffffffffffffffffffffffffffffffffffffff\n      and\n      0xffffffffffffffffffffffffffffffffffffffff\n      and\n      dup2\n      mstore\n      0x20\n      add\n      swap1\n      dup2\n      mstore\n      0x20\n      add\n      0x00\n      keccak256\n        /* \"contracts/Registration.sol\":2603:2642  akademisyenler[_akademisyenAdres].durum */\n      0x00\n      add\n      0x00\n      swap1\n      sload\n      swap1\n      0x0100\n      exp\n      swap1\n      div\n      0xff\n      and\n        /* \"contracts/Registration.sol\":2602:2642  !akademisyenler[_akademisyenAdres].durum */\n      iszero\n        /* \"contracts/Registration.sol\":2594:2698  require(!akademisyenler[_akademisyenAdres].durum,\r... */\n      tag_115\n      jumpi\n      mload(0x40)\n      0x08c379a000000000000000000000000000000000000000000000000000000000\n      dup2\n      mstore\n      0x04\n      add\n      tag_116\n      swap1\n      tag_117\n      jump\t// in\n    tag_116:\n      mload(0x40)\n      dup1\n      swap2\n      sub\n      swap1\n      revert\n    tag_115:\n        /* \"contracts/Registration.sol\":2862:2866  true */\n      0x01\n        /* \"contracts/Registration.sol\":2822:2836  akademisyenler */\n      0x05\n        /* \"contracts/Registration.sol\":2822:2855  akademisyenler[_akademisyenAdres] */\n      0x00\n        /* \"contracts/Registration.sol\":2837:2854  _akademisyenAdres */\n      dup9\n        /* \"contracts/Registration.sol\":2822:2855  akademisyenler[_akademisyenAdres] */\n      0xffffffffffffffffffffffffffffffffffffffff\n      and\n      0xffffffffffffffffffffffffffffffffffffffff\n      and\n      dup2\n      mstore\n      0x20\n      add\n      swap1\n      dup2\n      mstore\n      0x20\n      add\n      0x00\n      keccak256\n        /* \"contracts/Registration.sol\":2822:2861  akademisyenler[_akademisyenAdres].durum */\n      0x00\n      add\n      0x00\n        /* \"contracts/Registration.sol\":2822:2866  akademisyenler[_akademisyenAdres].durum=true */\n      0x0100\n      exp\n      dup2\n      sload\n      dup2\n      0xff\n      mul\n      not\n      and\n      swap1\n      dup4\n      iszero\n      iszero\n      mul\n      or\n      swap1\n      sstore\n      pop\n        /* \"contracts/Registration.sol\":2914:2917  _ad */\n      dup4\n        /* \"contracts/Registration.sol\":2877:2891  akademisyenler */\n      0x05\n        /* \"contracts/Registration.sol\":2877:2910  akademisyenler[_akademisyenAdres] */\n      0x00\n        /* \"contracts/Registration.sol\":2892:2909  _akademisyenAdres */\n      dup9\n        /* \"contracts/Registration.sol\":2877:2910  akademisyenler[_akademisyenAdres] */\n      0xffffffffffffffffffffffffffffffffffffffff\n      and\n      0xffffffffffffffffffffffffffffffffffffffff\n      and\n      dup2\n      mstore\n      0x20\n      add\n      swap1\n      dup2\n      mstore\n      0x20\n      add\n      0x00\n      keccak256\n        /* \"contracts/Registration.sol\":2877:2913  akademisyenler[_akademisyenAdres].ad */\n      0x01\n      add\n        /* \"contracts/Registration.sol\":2877:2917  akademisyenler[_akademisyenAdres].ad=_ad */\n      swap1\n      dup1\n      mload\n      swap1\n      0x20\n      add\n      swap1\n      tag_118\n      swap3\n      swap2\n      swap1\n      tag_91\n      jump\t// in\n    tag_118:\n      pop\n        /* \"contracts/Registration.sol\":2968:2974  _soyad */\n      dup3\n        /* \"contracts/Registration.sol\":2928:2942  akademisyenler */\n      0x05\n        /* \"contracts/Registration.sol\":2928:2961  akademisyenler[_akademisyenAdres] */\n      0x00\n        /* \"contracts/Registration.sol\":2943:2960  _akademisyenAdres */\n      dup9\n        /* \"contracts/Registration.sol\":2928:2961  akademisyenler[_akademisyenAdres] */\n      0xffffffffffffffffffffffffffffffffffffffff\n      and\n      0xffffffffffffffffffffffffffffffffffffffff\n      and\n      dup2\n      mstore\n      0x20\n      add\n      swap1\n      dup2\n      mstore\n      0x20\n      add\n      0x00\n      keccak256\n        /* \"contracts/Registration.sol\":2928:2967  akademisyenler[_akademisyenAdres].soyad */\n      0x02\n      add\n        /* \"contracts/Registration.sol\":2928:2974  akademisyenler[_akademisyenAdres].soyad=_soyad */\n      swap1\n      dup1\n      mload\n      swap1\n      0x20\n      add\n      swap1\n      tag_119\n      swap3\n      swap2\n      swap1\n      tag_91\n      jump\t// in\n    tag_119:\n      pop\n        /* \"contracts/Registration.sol\":3025:3031  _bolum */\n      dup2\n        /* \"contracts/Registration.sol\":2985:2999  akademisyenler */\n      0x05\n        /* \"contracts/Registration.sol\":2985:3018  akademisyenler[_akademisyenAdres] */\n      0x00\n        /* \"contracts/Registration.sol\":3000:3017  _akademisyenAdres */\n      dup9\n        /* \"contracts/Registration.sol\":2985:3018  akademisyenler[_akademisyenAdres] */\n      0xffffffffffffffffffffffffffffffffffffffff\n      and\n      0xffffffffffffffffffffffffffffffffffffffff\n      and\n      dup2\n      mstore\n      0x20\n      add\n      swap1\n      dup2\n      mstore\n      0x20\n      add\n      0x00\n      keccak256\n        /* \"contracts/Registration.sol\":2985:3024  akademisyenler[_akademisyenAdres].bolum */\n      0x00\n      add\n      0x15\n        /* \"contracts/Registration.sol\":2985:3031  akademisyenler[_akademisyenAdres].bolum=_bolum */\n      0x0100\n      exp\n      dup2\n      sload\n      dup2\n      0xffff\n      mul\n      not\n      and\n      swap1\n      dup4\n      0xffff\n      and\n      mul\n      or\n      swap1\n      sstore\n      pop\n        /* \"contracts/Registration.sol\":3082:3088  _unvan */\n      dup1\n        /* \"contracts/Registration.sol\":3042:3056  akademisyenler */\n      0x05\n        /* \"contracts/Registration.sol\":3042:3075  akademisyenler[_akademisyenAdres] */\n      0x00\n        /* \"contracts/Registration.sol\":3057:3074  _akademisyenAdres */\n      dup9\n        /* \"contracts/Registration.sol\":3042:3075  akademisyenler[_akademisyenAdres] */\n      0xffffffffffffffffffffffffffffffffffffffff\n      and\n      0xffffffffffffffffffffffffffffffffffffffff\n      and\n      dup2\n      mstore\n      0x20\n      add\n      swap1\n      dup2\n      mstore\n      0x20\n      add\n      0x00\n      keccak256\n        /* \"contracts/Registration.sol\":3042:3081  akademisyenler[_akademisyenAdres].unvan */\n      0x00\n      add\n      0x17\n        /* \"contracts/Registration.sol\":3042:3088  akademisyenler[_akademisyenAdres].unvan=_unvan */\n      0x0100\n      exp\n      dup2\n      sload\n      dup2\n      0xff\n      mul\n      not\n      and\n      swap1\n      dup4\n      0x03\n      dup2\n      gt\n      iszero\n      tag_120\n      jumpi\n      tag_121\n      tag_122\n      jump\t// in\n    tag_121:\n    tag_120:\n      mul\n      or\n      swap1\n      sstore\n      pop\n        /* \"contracts/Registration.sol\":3106:3193  AkademisyenEkleLog( _akademisyenAdres,_universiteAdres,  _ad,  _soyad,  _bolum, _unvan) */\n      0xc9efd466d9a1950ad2164252edda662048bca360d86fe9602a80d3dadfed1754\n        /* \"contracts/Registration.sol\":3126:3143  _akademisyenAdres */\n      dup7\n        /* \"contracts/Registration.sol\":3144:3160  _universiteAdres */\n      dup7\n        /* \"contracts/Registration.sol\":3163:3166  _ad */\n      dup7\n        /* \"contracts/Registration.sol\":3169:3175  _soyad */\n      dup7\n        /* \"contracts/Registration.sol\":3178:3184  _bolum */\n      dup7\n        /* \"contracts/Registration.sol\":3186:3192  _unvan */\n      dup7\n        /* \"contracts/Registration.sol\":3106:3193  AkademisyenEkleLog( _akademisyenAdres,_universiteAdres,  _ad,  _soyad,  _bolum, _unvan) */\n      mload(0x40)\n      tag_123\n      swap7\n      swap6\n      swap5\n      swap4\n      swap3\n      swap2\n      swap1\n      tag_124\n      jump\t// in\n    tag_123:\n      mload(0x40)\n      dup1\n      swap2\n      sub\n      swap1\n      log1\n        /* \"contracts/Registration.sol\":2412:3201  function ekleAkademisyen(address _akademisyenAdres,address _universiteAdres, string memory _ad, string memory _soyad,uint16 _bolum, Unvan _unvan)   public sadeceUniversite{\r... */\n      pop\n      pop\n      pop\n      pop\n      pop\n      pop\n      jump\t// out\n        /* \"contracts/BaseContract.sol\":2492:2541  mapping(address=>Universite) public universiteler */\n    tag_40:\n      mstore(0x20, 0x04)\n      dup1\n      0x00\n      mstore\n      keccak256(0x00, 0x40)\n      0x00\n      swap2\n      pop\n      swap1\n      pop\n      dup1\n      0x00\n      add\n      0x00\n      swap1\n      sload\n      swap1\n      0x0100\n      exp\n      swap1\n      div\n      0xff\n      and\n      swap1\n      dup1\n      0x01\n      add\n      dup1\n      sload\n      tag_125\n      swap1\n      tag_105\n      jump\t// in\n    tag_125:\n      dup1\n      0x1f\n      add\n      0x20\n      dup1\n      swap2\n      div\n      mul\n      0x20\n      add\n      mload(0x40)\n      swap1\n      dup2\n      add\n      0x40\n      mstore\n      dup1\n      swap3\n      swap2\n      swap1\n      dup2\n      dup2\n      mstore\n      0x20\n      add\n      dup3\n      dup1\n      sload\n      tag_126\n      swap1\n      tag_105\n      jump\t// in\n    tag_126:\n      dup1\n      iszero\n      tag_127\n      jumpi\n      dup1\n      0x1f\n      lt\n      tag_128\n      jumpi\n      0x0100\n      dup1\n      dup4\n      sload\n      div\n      mul\n      dup4\n      mstore\n      swap2\n      0x20\n      add\n      swap2\n      jump(tag_127)\n    tag_128:\n      dup3\n      add\n      swap2\n      swap1\n      0x00\n      mstore\n      keccak256(0x00, 0x20)\n      swap1\n    tag_129:\n      dup2\n      sload\n      dup2\n      mstore\n      swap1\n      0x01\n      add\n      swap1\n      0x20\n      add\n      dup1\n      dup4\n      gt\n      tag_129\n      jumpi\n      dup3\n      swap1\n      sub\n      0x1f\n      and\n      dup3\n      add\n      swap2\n    tag_127:\n      pop\n      pop\n      pop\n      pop\n      pop\n      swap1\n      dup1\n      0x02\n      add\n      0x00\n      swap1\n      sload\n      swap1\n      0x0100\n      exp\n      swap1\n      div\n      0xff\n      and\n      swap1\n      pop\n      dup4\n      jump\t// out\n        /* \"contracts/BaseContract.sol\":2796:2857  mapping(address=>SertifikaMerkezi) public sertifikaMerkezleri */\n    tag_44:\n      mstore(0x20, 0x0a)\n      dup1\n      0x00\n      mstore\n      keccak256(0x00, 0x40)\n      0x00\n      swap2\n      pop\n      swap1\n      pop\n      dup1\n      0x00\n      add\n      0x00\n      swap1\n      sload\n      swap1\n      0x0100\n      exp\n      swap1\n      div\n      0xff\n      and\n      swap1\n      dup1\n      0x01\n      add\n      dup1\n      sload\n      tag_130\n      swap1\n      tag_105\n      jump\t// in\n    tag_130:\n      dup1\n      0x1f\n      add\n      0x20\n      dup1\n      swap2\n      div\n      mul\n      0x20\n      add\n      mload(0x40)\n      swap1\n      dup2\n      add\n      0x40\n      mstore\n      dup1\n      swap3\n      swap2\n      swap1\n      dup2\n      dup2\n      mstore\n      0x20\n      add\n      dup3\n      dup1\n      sload\n      tag_131\n      swap1\n      tag_105\n      jump\t// in\n    tag_131:\n      dup1\n      iszero\n      tag_132\n      jumpi\n      dup1\n      0x1f\n      lt\n      tag_133\n      jumpi\n      0x0100\n      dup1\n      dup4\n      sload\n      div\n      mul\n      dup4\n      mstore\n      swap2\n      0x20\n      add\n      swap2\n      jump(tag_132)\n    tag_133:\n      dup3\n      add\n      swap2\n      swap1\n      0x00\n      mstore\n      keccak256(0x00, 0x20)\n      swap1\n    tag_134:\n      dup2\n      sload\n      dup2\n      mstore\n      swap1\n      0x01\n      add\n      swap1\n      0x20\n      add\n      dup1\n      dup4\n      gt\n      tag_134\n      jumpi\n      dup3\n      swap1\n      sub\n      0x1f\n      and\n      dup3\n      add\n      swap2\n    tag_132:\n      pop\n      pop\n      pop\n      pop\n      pop\n      swap1\n      dup1\n      0x02\n      add\n      0x00\n      swap1\n      sload\n      swap1\n      0x0100\n      exp\n      swap1\n      div\n      0xff\n      and\n      swap1\n      pop\n      dup4\n      jump\t// out\n        /* \"contracts/BaseContract.sol\":2606:2646  mapping(address=>Firma) public  firmalar */\n    tag_48:\n      mstore(0x20, 0x06)\n      dup1\n      0x00\n      mstore\n      keccak256(0x00, 0x40)\n      0x00\n      swap2\n      pop\n      swap1\n      pop\n      dup1\n      0x00\n      add\n      0x00\n      swap1\n      sload\n      swap1\n      0x0100\n      exp\n      swap1\n      div\n      0xff\n      and\n      swap1\n      dup1\n      0x00\n      add\n      0x01\n      swap1\n      sload\n      swap1\n      0x0100\n      exp\n      swap1\n      div\n      0xff\n      and\n      swap1\n      dup1\n      0x01\n      add\n      sload\n      swap1\n      dup1\n      0x02\n      add\n      dup1\n      sload\n      tag_135\n      swap1\n      tag_105\n      jump\t// in\n    tag_135:\n      dup1\n      0x1f\n      add\n      0x20\n      dup1\n      swap2\n      div\n      mul\n      0x20\n      add\n      mload(0x40)\n      swap1\n      dup2\n      add\n      0x40\n      mstore\n      dup1\n      swap3\n      swap2\n      swap1\n      dup2\n      dup2\n      mstore\n      0x20\n      add\n      dup3\n      dup1\n      sload\n      tag_136\n      swap1\n      tag_105\n      jump\t// in\n    tag_136:\n      dup1\n      iszero\n      tag_137\n      jumpi\n      dup1\n      0x1f\n      lt\n      tag_138\n      jumpi\n      0x0100\n      dup1\n      dup4\n      sload\n      div\n      mul\n      dup4\n      mstore\n      swap2\n      0x20\n      add\n      swap2\n      jump(tag_137)\n    tag_138:\n      dup3\n      add\n      swap2\n      swap1\n      0x00\n      mstore\n      keccak256(0x00, 0x20)\n      swap1\n    tag_139:\n      dup2\n      sload\n      dup2\n      mstore\n      swap1\n      0x01\n      add\n      swap1\n      0x20\n      add\n      dup1\n      dup4\n      gt\n      tag_139\n      jumpi\n      dup3\n      swap1\n      sub\n      0x1f\n      and\n      dup3\n      add\n      swap2\n    tag_137:\n      pop\n      pop\n      pop\n      pop\n      pop\n      swap1\n      pop\n      dup5\n      jump\t// out\n        /* \"contracts/Registration.sol\":4180:4606  function ekleKurs(address _kursAdres,string memory _isim, uint8 _ulke) \r... */\n    tag_53:\n        /* \"contracts/BaseContract.sol\":2119:2132  universiteler */\n      0x04\n        /* \"contracts/BaseContract.sol\":2119:2144  universiteler[msg.sender] */\n      0x00\n        /* \"contracts/BaseContract.sol\":2133:2143  msg.sender */\n      caller\n        /* \"contracts/BaseContract.sol\":2119:2144  universiteler[msg.sender] */\n      0xffffffffffffffffffffffffffffffffffffffff\n      and\n      0xffffffffffffffffffffffffffffffffffffffff\n      and\n      dup2\n      mstore\n      0x20\n      add\n      swap1\n      dup2\n      mstore\n      0x20\n      add\n      0x00\n      keccak256\n        /* \"contracts/BaseContract.sol\":2119:2150  universiteler[msg.sender].durum */\n      0x00\n      add\n      0x00\n      swap1\n      sload\n      swap1\n      0x0100\n      exp\n      swap1\n      div\n      0xff\n      and\n        /* \"contracts/BaseContract.sol\":2119:2178  universiteler[msg.sender].durum||firmalar[msg.sender].durum */\n      dup1\n      tag_141\n      jumpi\n      pop\n        /* \"contracts/BaseContract.sol\":2152:2160  firmalar */\n      0x06\n        /* \"contracts/BaseContract.sol\":2152:2172  firmalar[msg.sender] */\n      0x00\n        /* \"contracts/BaseContract.sol\":2161:2171  msg.sender */\n      caller\n        /* \"contracts/BaseContract.sol\":2152:2172  firmalar[msg.sender] */\n      0xffffffffffffffffffffffffffffffffffffffff\n      and\n      0xffffffffffffffffffffffffffffffffffffffff\n      and\n      dup2\n      mstore\n      0x20\n      add\n      swap1\n      dup2\n      mstore\n      0x20\n      add\n      0x00\n      keccak256\n        /* \"contracts/BaseContract.sol\":2152:2178  firmalar[msg.sender].durum */\n      0x00\n      add\n      0x00\n      swap1\n      sload\n      swap1\n      0x0100\n      exp\n      swap1\n      div\n      0xff\n      and\n        /* \"contracts/BaseContract.sol\":2119:2178  universiteler[msg.sender].durum||firmalar[msg.sender].durum */\n    tag_141:\n        /* \"contracts/BaseContract.sol\":2119:2211  universiteler[msg.sender].durum||firmalar[msg.sender].durum||kamuKurumlari[msg.sender].durum */\n      dup1\n      tag_142\n      jumpi\n      pop\n        /* \"contracts/BaseContract.sol\":2180:2193  kamuKurumlari */\n      0x08\n        /* \"contracts/BaseContract.sol\":2180:2205  kamuKurumlari[msg.sender] */\n      0x00\n        /* \"contracts/BaseContract.sol\":2194:2204  msg.sender */\n      caller\n        /* \"contracts/BaseContract.sol\":2180:2205  kamuKurumlari[msg.sender] */\n      0xffffffffffffffffffffffffffffffffffffffff\n      and\n      0xffffffffffffffffffffffffffffffffffffffff\n      and\n      dup2\n      mstore\n      0x20\n      add\n      swap1\n      dup2\n      mstore\n      0x20\n      add\n      0x00\n      keccak256\n        /* \"contracts/BaseContract.sol\":2180:2211  kamuKurumlari[msg.sender].durum */\n      0x00\n      add\n      0x00\n      swap1\n      sload\n      swap1\n      0x0100\n      exp\n      swap1\n      div\n      0xff\n      and\n        /* \"contracts/BaseContract.sol\":2119:2211  universiteler[msg.sender].durum||firmalar[msg.sender].durum||kamuKurumlari[msg.sender].durum */\n    tag_142:\n        /* \"contracts/BaseContract.sol\":2111:2263  require(universiteler[msg.sender].durum||firmalar[msg.sender].durum||kamuKurumlari[msg.sender].durum,\r... */\n      tag_143\n      jumpi\n      mload(0x40)\n      0x08c379a000000000000000000000000000000000000000000000000000000000\n      dup2\n      mstore\n      0x04\n      add\n      tag_144\n      swap1\n      tag_145\n      jump\t// in\n    tag_144:\n      mload(0x40)\n      dup1\n      swap2\n      sub\n      swap1\n      revert\n    tag_143:\n        /* \"contracts/Registration.sol\":4306:4313  kurslar */\n      0x07\n        /* \"contracts/Registration.sol\":4306:4325  kurslar[_kursAdres] */\n      0x00\n        /* \"contracts/Registration.sol\":4314:4324  _kursAdres */\n      dup5\n        /* \"contracts/Registration.sol\":4306:4325  kurslar[_kursAdres] */\n      0xffffffffffffffffffffffffffffffffffffffff\n      and\n      0xffffffffffffffffffffffffffffffffffffffff\n      and\n      dup2\n      mstore\n      0x20\n      add\n      swap1\n      dup2\n      mstore\n      0x20\n      add\n      0x00\n      keccak256\n        /* \"contracts/Registration.sol\":4306:4331  kurslar[_kursAdres].durum */\n      0x00\n      add\n      0x00\n      swap1\n      sload\n      swap1\n      0x0100\n      exp\n      swap1\n      div\n      0xff\n      and\n        /* \"contracts/Registration.sol\":4305:4331  !kurslar[_kursAdres].durum */\n      iszero\n        /* \"contracts/Registration.sol\":4297:4387  require(!kurslar[_kursAdres].durum,\r... */\n      tag_147\n      jumpi\n      mload(0x40)\n      0x08c379a000000000000000000000000000000000000000000000000000000000\n      dup2\n      mstore\n      0x04\n      add\n      tag_148\n      swap1\n      tag_149\n      jump\t// in\n    tag_148:\n      mload(0x40)\n      dup1\n      swap2\n      sub\n      swap1\n      revert\n    tag_147:\n        /* \"contracts/Registration.sol\":4438:4442  true */\n      0x01\n        /* \"contracts/Registration.sol\":4412:4419  kurslar */\n      0x07\n        /* \"contracts/Registration.sol\":4412:4431  kurslar[_kursAdres] */\n      0x00\n        /* \"contracts/Registration.sol\":4420:4430  _kursAdres */\n      dup6\n        /* \"contracts/Registration.sol\":4412:4431  kurslar[_kursAdres] */\n      0xffffffffffffffffffffffffffffffffffffffff\n      and\n      0xffffffffffffffffffffffffffffffffffffffff\n      and\n      dup2\n      mstore\n      0x20\n      add\n      swap1\n      dup2\n      mstore\n      0x20\n      add\n      0x00\n      keccak256\n        /* \"contracts/Registration.sol\":4412:4437  kurslar[_kursAdres].durum */\n      0x00\n      add\n      0x00\n        /* \"contracts/Registration.sol\":4412:4442  kurslar[_kursAdres].durum=true */\n      0x0100\n      exp\n      dup2\n      sload\n      dup2\n      0xff\n      mul\n      not\n      and\n      swap1\n      dup4\n      iszero\n      iszero\n      mul\n      or\n      swap1\n      sstore\n      pop\n        /* \"contracts/Registration.sol\":4478:4483  _isim */\n      dup2\n        /* \"contracts/Registration.sol\":4453:4460  kurslar */\n      0x07\n        /* \"contracts/Registration.sol\":4453:4472  kurslar[_kursAdres] */\n      0x00\n        /* \"contracts/Registration.sol\":4461:4471  _kursAdres */\n      dup6\n        /* \"contracts/Registration.sol\":4453:4472  kurslar[_kursAdres] */\n      0xffffffffffffffffffffffffffffffffffffffff\n      and\n      0xffffffffffffffffffffffffffffffffffffffff\n      and\n      dup2\n      mstore\n      0x20\n      add\n      swap1\n      dup2\n      mstore\n      0x20\n      add\n      0x00\n      keccak256\n        /* \"contracts/Registration.sol\":4453:4477  kurslar[_kursAdres].isim */\n      0x01\n      add\n        /* \"contracts/Registration.sol\":4453:4483  kurslar[_kursAdres].isim=_isim */\n      swap1\n      dup1\n      mload\n      swap1\n      0x20\n      add\n      swap1\n      tag_150\n      swap3\n      swap2\n      swap1\n      tag_91\n      jump\t// in\n    tag_150:\n      pop\n        /* \"contracts/Registration.sol\":4519:4524  _ulke */\n      dup1\n        /* \"contracts/Registration.sol\":4494:4501  kurslar */\n      0x07\n        /* \"contracts/Registration.sol\":4494:4513  kurslar[_kursAdres] */\n      0x00\n        /* \"contracts/Registration.sol\":4502:4512  _kursAdres */\n      dup6\n        /* \"contracts/Registration.sol\":4494:4513  kurslar[_kursAdres] */\n      0xffffffffffffffffffffffffffffffffffffffff\n      and\n      0xffffffffffffffffffffffffffffffffffffffff\n      and\n      dup2\n      mstore\n      0x20\n      add\n      swap1\n      dup2\n      mstore\n      0x20\n      add\n      0x00\n      keccak256\n        /* \"contracts/Registration.sol\":4494:4518  kurslar[_kursAdres].ulke */\n      0x02\n      add\n      0x00\n        /* \"contracts/Registration.sol\":4494:4524  kurslar[_kursAdres].ulke=_ulke */\n      0x0100\n      exp\n      dup2\n      sload\n      dup2\n      0xff\n      mul\n      not\n      and\n      swap1\n      dup4\n      0xff\n      and\n      mul\n      or\n      swap1\n      sstore\n      pop\n        /* \"contracts/Registration.sol\":4550:4589  KursEkleLog( _kursAdres,  _isim, _ulke) */\n      0x6bb7b94bfdc5d1cac19e058d529aff5df791333f0bb6164d9647d8915812fb1f\n        /* \"contracts/Registration.sol\":4563:4573  _kursAdres */\n      dup4\n        /* \"contracts/Registration.sol\":4576:4581  _isim */\n      dup4\n        /* \"contracts/Registration.sol\":4583:4588  _ulke */\n      dup4\n        /* \"contracts/Registration.sol\":4550:4589  KursEkleLog( _kursAdres,  _isim, _ulke) */\n      mload(0x40)\n      tag_151\n      swap4\n      swap3\n      swap2\n      swap1\n      tag_93\n      jump\t// in\n    tag_151:\n      mload(0x40)\n      dup1\n      swap2\n      sub\n      swap1\n      log1\n        /* \"contracts/Registration.sol\":4180:4606  function ekleKurs(address _kursAdres,string memory _isim, uint8 _ulke) \r... */\n      pop\n      pop\n      pop\n      jump\t// out\n        /* \"contracts/BaseContract.sol\":2698:2747  mapping(address=>KamuKurumu) public kamuKurumlari */\n    tag_56:\n      mstore(0x20, 0x08)\n      dup1\n      0x00\n      mstore\n      keccak256(0x00, 0x40)\n      0x00\n      swap2\n      pop\n      swap1\n      pop\n      dup1\n      0x00\n      add\n      0x00\n      swap1\n      sload\n      swap1\n      0x0100\n      exp\n      swap1\n      div\n      0xff\n      and\n      swap1\n      dup1\n      0x01\n      add\n      dup1\n      sload\n      tag_152\n      swap1\n      tag_105\n      jump\t// in\n    tag_152:\n      dup1\n      0x1f\n      add\n      0x20\n      dup1\n      swap2\n      div\n      mul\n      0x20\n      add\n      mload(0x40)\n      swap1\n      dup2\n      add\n      0x40\n      mstore\n      dup1\n      swap3\n      swap2\n      swap1\n      dup2\n      dup2\n      mstore\n      0x20\n      add\n      dup3\n      dup1\n      sload\n      tag_153\n      swap1\n      tag_105\n      jump\t// in\n    tag_153:\n      dup1\n      iszero\n      tag_154\n      jumpi\n      dup1\n      0x1f\n      lt\n      tag_155\n      jumpi\n      0x0100\n      dup1\n      dup4\n      sload\n      div\n      mul\n      dup4\n      mstore\n      swap2\n      0x20\n      add\n      swap2\n      jump(tag_154)\n    tag_155:\n      dup3\n      add\n      swap2\n      swap1\n      0x00\n      mstore\n      keccak256(0x00, 0x20)\n      swap1\n    tag_156:\n      dup2\n      sload\n      dup2\n      mstore\n      swap1\n      0x01\n      add\n      swap1\n      0x20\n      add\n      dup1\n      dup4\n      gt\n      tag_156\n      jumpi\n      dup3\n      swap1\n      sub\n      0x1f\n      and\n      dup3\n      add\n      swap2\n    tag_154:\n      pop\n      pop\n      pop\n      pop\n      pop\n      swap1\n      dup1\n      0x02\n      add\n      0x00\n      swap1\n      sload\n      swap1\n      0x0100\n      exp\n      swap1\n      div\n      0xff\n      and\n      swap1\n      pop\n      dup4\n      jump\t// out\n        /* \"contracts/BaseContract.sol\":2754:2789  mapping(address=>STK) public stklar */\n    tag_60:\n      mstore(0x20, 0x09)\n      dup1\n      0x00\n      mstore\n      keccak256(0x00, 0x40)\n      0x00\n      swap2\n      pop\n      swap1\n      pop\n      dup1\n      0x00\n      add\n      0x00\n      swap1\n      sload\n      swap1\n      0x0100\n      exp\n      swap1\n      div\n      0xff\n      and\n      swap1\n      dup1\n      0x01\n      add\n      dup1\n      sload\n      tag_157\n      swap1\n      tag_105\n      jump\t// in\n    tag_157:\n      dup1\n      0x1f\n      add\n      0x20\n      dup1\n      swap2\n      div\n      mul\n      0x20\n      add\n      mload(0x40)\n      swap1\n      dup2\n      add\n      0x40\n      mstore\n      dup1\n      swap3\n      swap2\n      swap1\n      dup2\n      dup2\n      mstore\n      0x20\n      add\n      dup3\n      dup1\n      sload\n      tag_158\n      swap1\n      tag_105\n      jump\t// in\n    tag_158:\n      dup1\n      iszero\n      tag_159\n      jumpi\n      dup1\n      0x1f\n      lt\n      tag_160\n      jumpi\n      0x0100\n      dup1\n      dup4\n      sload\n      div\n      mul\n      dup4\n      mstore\n      swap2\n      0x20\n      add\n      swap2\n      jump(tag_159)\n    tag_160:\n      dup3\n      add\n      swap2\n      swap1\n      0x00\n      mstore\n      keccak256(0x00, 0x20)\n      swap1\n    tag_161:\n      dup2\n      sload\n      dup2\n      mstore\n      swap1\n      0x01\n      add\n      swap1\n      0x20\n      add\n      dup1\n      dup4\n      gt\n      tag_161\n      jumpi\n      dup3\n      swap1\n      sub\n      0x1f\n      and\n      dup3\n      add\n      swap2\n    tag_159:\n      pop\n      pop\n      pop\n      pop\n      pop\n      swap1\n      dup1\n      0x02\n      add\n      0x00\n      swap1\n      sload\n      swap1\n      0x0100\n      exp\n      swap1\n      div\n      0xff\n      and\n      swap1\n      pop\n      dup4\n      jump\t// out\n        /* \"contracts/Registration.sol\":5031:5589  function ekleSertifikaMerkezi(address _smAdres,string memory _isim, uint8 _ulke) \r... */\n    tag_64:\n        /* \"contracts/BaseContract.sol\":1383:1387  TOBB */\n      0x01\n      0x00\n      swap1\n      sload\n      swap1\n      0x0100\n      exp\n      swap1\n      div\n      0xffffffffffffffffffffffffffffffffffffffff\n      and\n        /* \"contracts/BaseContract.sol\":1369:1387  msg.sender == TOBB */\n      0xffffffffffffffffffffffffffffffffffffffff\n      and\n        /* \"contracts/BaseContract.sol\":1369:1379  msg.sender */\n      caller\n        /* \"contracts/BaseContract.sol\":1369:1387  msg.sender == TOBB */\n      0xffffffffffffffffffffffffffffffffffffffff\n      and\n      eq\n        /* \"contracts/BaseContract.sol\":1361:1439  require(msg.sender == TOBB,\r... */\n      tag_163\n      jumpi\n      mload(0x40)\n      0x08c379a000000000000000000000000000000000000000000000000000000000\n      dup2\n      mstore\n      0x04\n      add\n      tag_164\n      swap1\n      tag_165\n      jump\t// in\n    tag_164:\n      mload(0x40)\n      dup1\n      swap2\n      sub\n      swap1\n      revert\n    tag_163:\n        /* \"contracts/Registration.sol\":5156:5175  sertifikaMerkezleri */\n      0x0a\n        /* \"contracts/Registration.sol\":5156:5185  sertifikaMerkezleri[_smAdres] */\n      0x00\n        /* \"contracts/Registration.sol\":5176:5184  _smAdres */\n      dup5\n        /* \"contracts/Registration.sol\":5156:5185  sertifikaMerkezleri[_smAdres] */\n      0xffffffffffffffffffffffffffffffffffffffff\n      and\n      0xffffffffffffffffffffffffffffffffffffffff\n      and\n      dup2\n      mstore\n      0x20\n      add\n      swap1\n      dup2\n      mstore\n      0x20\n      add\n      0x00\n      keccak256\n        /* \"contracts/Registration.sol\":5156:5191  sertifikaMerkezleri[_smAdres].durum */\n      0x00\n      add\n      0x00\n      swap1\n      sload\n      swap1\n      0x0100\n      exp\n      swap1\n      div\n      0xff\n      and\n        /* \"contracts/Registration.sol\":5155:5191  !sertifikaMerkezleri[_smAdres].durum */\n      iszero\n        /* \"contracts/Registration.sol\":5147:5253  require(!sertifikaMerkezleri[_smAdres].durum,\r... */\n      tag_167\n      jumpi\n      mload(0x40)\n      0x08c379a000000000000000000000000000000000000000000000000000000000\n      dup2\n      mstore\n      0x04\n      add\n      tag_168\n      swap1\n      tag_169\n      jump\t// in\n    tag_168:\n      mload(0x40)\n      dup1\n      swap2\n      sub\n      swap1\n      revert\n    tag_167:\n        /* \"contracts/Registration.sol\":5391:5395  true */\n      0x01\n        /* \"contracts/Registration.sol\":5355:5374  sertifikaMerkezleri */\n      0x0a\n        /* \"contracts/Registration.sol\":5355:5384  sertifikaMerkezleri[_smAdres] */\n      0x00\n        /* \"contracts/Registration.sol\":5375:5383  _smAdres */\n      dup6\n        /* \"contracts/Registration.sol\":5355:5384  sertifikaMerkezleri[_smAdres] */\n      0xffffffffffffffffffffffffffffffffffffffff\n      and\n      0xffffffffffffffffffffffffffffffffffffffff\n      and\n      dup2\n      mstore\n      0x20\n      add\n      swap1\n      dup2\n      mstore\n      0x20\n      add\n      0x00\n      keccak256\n        /* \"contracts/Registration.sol\":5355:5390  sertifikaMerkezleri[_smAdres].durum */\n      0x00\n      add\n      0x00\n        /* \"contracts/Registration.sol\":5355:5395  sertifikaMerkezleri[_smAdres].durum=true */\n      0x0100\n      exp\n      dup2\n      sload\n      dup2\n      0xff\n      mul\n      not\n      and\n      swap1\n      dup4\n      iszero\n      iszero\n      mul\n      or\n      swap1\n      sstore\n      pop\n        /* \"contracts/Registration.sol\":5441:5446  _isim */\n      dup2\n        /* \"contracts/Registration.sol\":5406:5425  sertifikaMerkezleri */\n      0x0a\n        /* \"contracts/Registration.sol\":5406:5435  sertifikaMerkezleri[_smAdres] */\n      0x00\n        /* \"contracts/Registration.sol\":5426:5434  _smAdres */\n      dup6\n        /* \"contracts/Registration.sol\":5406:5435  sertifikaMerkezleri[_smAdres] */\n      0xffffffffffffffffffffffffffffffffffffffff\n      and\n      0xffffffffffffffffffffffffffffffffffffffff\n      and\n      dup2\n      mstore\n      0x20\n      add\n      swap1\n      dup2\n      mstore\n      0x20\n      add\n      0x00\n      keccak256\n        /* \"contracts/Registration.sol\":5406:5440  sertifikaMerkezleri[_smAdres].isim */\n      0x01\n      add\n        /* \"contracts/Registration.sol\":5406:5446  sertifikaMerkezleri[_smAdres].isim=_isim */\n      swap1\n      dup1\n      mload\n      swap1\n      0x20\n      add\n      swap1\n      tag_170\n      swap3\n      swap2\n      swap1\n      tag_91\n      jump\t// in\n    tag_170:\n      pop\n        /* \"contracts/Registration.sol\":5492:5497  _ulke */\n      dup1\n        /* \"contracts/Registration.sol\":5457:5476  sertifikaMerkezleri */\n      0x0a\n        /* \"contracts/Registration.sol\":5457:5486  sertifikaMerkezleri[_smAdres] */\n      0x00\n        /* \"contracts/Registration.sol\":5477:5485  _smAdres */\n      dup6\n        /* \"contracts/Registration.sol\":5457:5486  sertifikaMerkezleri[_smAdres] */\n      0xffffffffffffffffffffffffffffffffffffffff\n      and\n      0xffffffffffffffffffffffffffffffffffffffff\n      and\n      dup2\n      mstore\n      0x20\n      add\n      swap1\n      dup2\n      mstore\n      0x20\n      add\n      0x00\n      keccak256\n        /* \"contracts/Registration.sol\":5457:5491  sertifikaMerkezleri[_smAdres].ulke */\n      0x02\n      add\n      0x00\n        /* \"contracts/Registration.sol\":5457:5497  sertifikaMerkezleri[_smAdres].ulke=_ulke */\n      0x0100\n      exp\n      dup2\n      sload\n      dup2\n      0xff\n      mul\n      not\n      and\n      swap1\n      dup4\n      0xff\n      and\n      mul\n      or\n      swap1\n      sstore\n      pop\n        /* \"contracts/Registration.sol\":5523:5572  SertifikaMerkeziEkleLog( _smAdres,  _isim, _ulke) */\n      0x08f8201cceb68e4cb53475bb7a54a85f719008aee80f1291dba111a7406b2073\n        /* \"contracts/Registration.sol\":5548:5556  _smAdres */\n      dup4\n        /* \"contracts/Registration.sol\":5559:5564  _isim */\n      dup4\n        /* \"contracts/Registration.sol\":5566:5571  _ulke */\n      dup4\n        /* \"contracts/Registration.sol\":5523:5572  SertifikaMerkeziEkleLog( _smAdres,  _isim, _ulke) */\n      mload(0x40)\n      tag_171\n      swap4\n      swap3\n      swap2\n      swap1\n      tag_93\n      jump\t// in\n    tag_171:\n      mload(0x40)\n      dup1\n      swap2\n      sub\n      swap1\n      log1\n        /* \"contracts/Registration.sol\":5031:5589  function ekleSertifikaMerkezi(address _smAdres,string memory _isim, uint8 _ulke) \r... */\n      pop\n      pop\n      pop\n      jump\t// out\n        /* \"contracts/BaseContract.sol\":2548:2599  mapping(address=>Akademisyen) public akademisyenler */\n    tag_67:\n      mstore(0x20, 0x05)\n      dup1\n      0x00\n      mstore\n      keccak256(0x00, 0x40)\n      0x00\n      swap2\n      pop\n      swap1\n      pop\n      dup1\n      0x00\n      add\n      0x00\n      swap1\n      sload\n      swap1\n      0x0100\n      exp\n      swap1\n      div\n      0xff\n      and\n      swap1\n      dup1\n      0x00\n      add\n      0x01\n      swap1\n      sload\n      swap1\n      0x0100\n      exp\n      swap1\n      div\n      0xffffffffffffffffffffffffffffffffffffffff\n      and\n      swap1\n      dup1\n      0x00\n      add\n      0x15\n      swap1\n      sload\n      swap1\n      0x0100\n      exp\n      swap1\n      div\n      0xffff\n      and\n      swap1\n      dup1\n      0x00\n      add\n      0x17\n      swap1\n      sload\n      swap1\n      0x0100\n      exp\n      swap1\n      div\n      0xff\n      and\n      swap1\n      dup1\n      0x01\n      add\n      dup1\n      sload\n      tag_172\n      swap1\n      tag_105\n      jump\t// in\n    tag_172:\n      dup1\n      0x1f\n      add\n      0x20\n      dup1\n      swap2\n      div\n      mul\n      0x20\n      add\n      mload(0x40)\n      swap1\n      dup2\n      add\n      0x40\n      mstore\n      dup1\n      swap3\n      swap2\n      swap1\n      dup2\n      dup2\n      mstore\n      0x20\n      add\n      dup3\n      dup1\n      sload\n      tag_173\n      swap1\n      tag_105\n      jump\t// in\n    tag_173:\n      dup1\n      iszero\n      tag_174\n      jumpi\n      dup1\n      0x1f\n      lt\n      tag_175\n      jumpi\n      0x0100\n      dup1\n      dup4\n      sload\n      div\n      mul\n      dup4\n      mstore\n      swap2\n      0x20\n      add\n      swap2\n      jump(tag_174)\n    tag_175:\n      dup3\n      add\n      swap2\n      swap1\n      0x00\n      mstore\n      keccak256(0x00, 0x20)\n      swap1\n    tag_176:\n      dup2\n      sload\n      dup2\n      mstore\n      swap1\n      0x01\n      add\n      swap1\n      0x20\n      add\n      dup1\n      dup4\n      gt\n      tag_176\n      jumpi\n      dup3\n      swap1\n      sub\n      0x1f\n      and\n      dup3\n      add\n      swap2\n    tag_174:\n      pop\n      pop\n      pop\n      pop\n      pop\n      swap1\n      dup1\n      0x02\n      add\n      dup1\n      sload\n      tag_177\n      swap1\n      tag_105\n      jump\t// in\n    tag_177:\n      dup1\n      0x1f\n      add\n      0x20\n      dup1\n      swap2\n      div\n      mul\n      0x20\n      add\n      mload(0x40)\n      swap1\n      dup2\n      add\n      0x40\n      mstore\n      dup1\n      swap3\n      swap2\n      swap1\n      dup2\n      dup2\n      mstore\n      0x20\n      add\n      dup3\n      dup1\n      sload\n      tag_178\n      swap1\n      tag_105\n      jump\t// in\n    tag_178:\n      dup1\n      iszero\n      tag_179\n      jumpi\n      dup1\n      0x1f\n      lt\n      tag_180\n      jumpi\n      0x0100\n      dup1\n      dup4\n      sload\n      div\n      mul\n      dup4\n      mstore\n      swap2\n      0x20\n      add\n      swap2\n      jump(tag_179)\n    tag_180:\n      dup3\n      add\n      swap2\n      swap1\n      0x00\n      mstore\n      keccak256(0x00, 0x20)\n      swap1\n    tag_181:\n      dup2\n      sload\n      dup2\n      mstore\n      swap1\n      0x01\n      add\n      swap1\n      0x20\n      add\n      dup1\n      dup4\n      gt\n      tag_181\n      jumpi\n      dup3\n      swap1\n      sub\n      0x1f\n      and\n      dup3\n      add\n      swap2\n    tag_179:\n      pop\n      pop\n      pop\n      pop\n      pop\n      swap1\n      pop\n      dup7\n      jump\t// out\n        /* \"contracts/BaseContract.sol\":2448:2485  mapping(address=>Kisi) public kisiler */\n    tag_72:\n      mstore(0x20, 0x03)\n      dup1\n      0x00\n      mstore\n      keccak256(0x00, 0x40)\n      0x00\n      swap2\n      pop\n      swap1\n      pop\n      dup1\n      0x00\n      add\n      0x00\n      swap1\n      sload\n      swap1\n      0x0100\n      exp\n      swap1\n      div\n      0xff\n      and\n      swap1\n      pop\n      dup2\n      jump\t// out\n        /* \"contracts/Registration.sol\":3205:3690  function ekleFirma(address _firmaAdres,string memory _isim, uint _vergiNo,uint8 _ulke) \r... */\n    tag_78:\n        /* \"contracts/BaseContract.sol\":1383:1387  TOBB */\n      0x01\n      0x00\n      swap1\n      sload\n      swap1\n      0x0100\n      exp\n      swap1\n      div\n      0xffffffffffffffffffffffffffffffffffffffff\n      and\n        /* \"contracts/BaseContract.sol\":1369:1387  msg.sender == TOBB */\n      0xffffffffffffffffffffffffffffffffffffffff\n      and\n        /* \"contracts/BaseContract.sol\":1369:1379  msg.sender */\n      caller\n        /* \"contracts/BaseContract.sol\":1369:1387  msg.sender == TOBB */\n      0xffffffffffffffffffffffffffffffffffffffff\n      and\n      eq\n        /* \"contracts/BaseContract.sol\":1361:1439  require(msg.sender == TOBB,\r... */\n      tag_183\n      jumpi\n      mload(0x40)\n      0x08c379a000000000000000000000000000000000000000000000000000000000\n      dup2\n      mstore\n      0x04\n      add\n      tag_184\n      swap1\n      tag_165\n      jump\t// in\n    tag_184:\n      mload(0x40)\n      dup1\n      swap2\n      sub\n      swap1\n      revert\n    tag_183:\n        /* \"contracts/Registration.sol\":3333:3341  firmalar */\n      0x06\n        /* \"contracts/Registration.sol\":3333:3354  firmalar[_firmaAdres] */\n      0x00\n        /* \"contracts/Registration.sol\":3342:3353  _firmaAdres */\n      dup6\n        /* \"contracts/Registration.sol\":3333:3354  firmalar[_firmaAdres] */\n      0xffffffffffffffffffffffffffffffffffffffff\n      and\n      0xffffffffffffffffffffffffffffffffffffffff\n      and\n      dup2\n      mstore\n      0x20\n      add\n      swap1\n      dup2\n      mstore\n      0x20\n      add\n      0x00\n      keccak256\n        /* \"contracts/Registration.sol\":3333:3360  firmalar[_firmaAdres].durum */\n      0x00\n      add\n      0x00\n      swap1\n      sload\n      swap1\n      0x0100\n      exp\n      swap1\n      div\n      0xff\n      and\n        /* \"contracts/Registration.sol\":3332:3360  !firmalar[_firmaAdres].durum */\n      iszero\n        /* \"contracts/Registration.sol\":3324:3410  require(!firmalar[_firmaAdres].durum,\r... */\n      tag_186\n      jumpi\n      mload(0x40)\n      0x08c379a000000000000000000000000000000000000000000000000000000000\n      dup2\n      mstore\n      0x04\n      add\n      tag_187\n      swap1\n      tag_188\n      jump\t// in\n    tag_187:\n      mload(0x40)\n      dup1\n      swap2\n      sub\n      swap1\n      revert\n    tag_186:\n        /* \"contracts/Registration.sol\":3463:3467  true */\n      0x01\n        /* \"contracts/Registration.sol\":3435:3443  firmalar */\n      0x06\n        /* \"contracts/Registration.sol\":3435:3456  firmalar[_firmaAdres] */\n      0x00\n        /* \"contracts/Registration.sol\":3444:3455  _firmaAdres */\n      dup7\n        /* \"contracts/Registration.sol\":3435:3456  firmalar[_firmaAdres] */\n      0xffffffffffffffffffffffffffffffffffffffff\n      and\n      0xffffffffffffffffffffffffffffffffffffffff\n      and\n      dup2\n      mstore\n      0x20\n      add\n      swap1\n      dup2\n      mstore\n      0x20\n      add\n      0x00\n      keccak256\n        /* \"contracts/Registration.sol\":3435:3462  firmalar[_firmaAdres].durum */\n      0x00\n      add\n      0x00\n        /* \"contracts/Registration.sol\":3435:3467  firmalar[_firmaAdres].durum=true */\n      0x0100\n      exp\n      dup2\n      sload\n      dup2\n      0xff\n      mul\n      not\n      and\n      swap1\n      dup4\n      iszero\n      iszero\n      mul\n      or\n      swap1\n      sstore\n      pop\n        /* \"contracts/Registration.sol\":3505:3510  _isim */\n      dup3\n        /* \"contracts/Registration.sol\":3478:3486  firmalar */\n      0x06\n        /* \"contracts/Registration.sol\":3478:3499  firmalar[_firmaAdres] */\n      0x00\n        /* \"contracts/Registration.sol\":3487:3498  _firmaAdres */\n      dup7\n        /* \"contracts/Registration.sol\":3478:3499  firmalar[_firmaAdres] */\n      0xffffffffffffffffffffffffffffffffffffffff\n      and\n      0xffffffffffffffffffffffffffffffffffffffff\n      and\n      dup2\n      mstore\n      0x20\n      add\n      swap1\n      dup2\n      mstore\n      0x20\n      add\n      0x00\n      keccak256\n        /* \"contracts/Registration.sol\":3478:3504  firmalar[_firmaAdres].isim */\n      0x02\n      add\n        /* \"contracts/Registration.sol\":3478:3510  firmalar[_firmaAdres].isim=_isim */\n      swap1\n      dup1\n      mload\n      swap1\n      0x20\n      add\n      swap1\n      tag_189\n      swap3\n      swap2\n      swap1\n      tag_91\n      jump\t// in\n    tag_189:\n      pop\n        /* \"contracts/Registration.sol\":3548:3553  _ulke */\n      dup1\n        /* \"contracts/Registration.sol\":3521:3529  firmalar */\n      0x06\n        /* \"contracts/Registration.sol\":3521:3542  firmalar[_firmaAdres] */\n      0x00\n        /* \"contracts/Registration.sol\":3530:3541  _firmaAdres */\n      dup7\n        /* \"contracts/Registration.sol\":3521:3542  firmalar[_firmaAdres] */\n      0xffffffffffffffffffffffffffffffffffffffff\n      and\n      0xffffffffffffffffffffffffffffffffffffffff\n      and\n      dup2\n      mstore\n      0x20\n      add\n      swap1\n      dup2\n      mstore\n      0x20\n      add\n      0x00\n      keccak256\n        /* \"contracts/Registration.sol\":3521:3547  firmalar[_firmaAdres].ulke */\n      0x00\n      add\n      0x01\n        /* \"contracts/Registration.sol\":3521:3553  firmalar[_firmaAdres].ulke=_ulke */\n      0x0100\n      exp\n      dup2\n      sload\n      dup2\n      0xff\n      mul\n      not\n      and\n      swap1\n      dup4\n      0xff\n      and\n      mul\n      or\n      swap1\n      sstore\n      pop\n        /* \"contracts/Registration.sol\":3594:3602  _vergiNo */\n      dup2\n        /* \"contracts/Registration.sol\":3564:3572  firmalar */\n      0x06\n        /* \"contracts/Registration.sol\":3564:3585  firmalar[_firmaAdres] */\n      0x00\n        /* \"contracts/Registration.sol\":3573:3584  _firmaAdres */\n      dup7\n        /* \"contracts/Registration.sol\":3564:3585  firmalar[_firmaAdres] */\n      0xffffffffffffffffffffffffffffffffffffffff\n      and\n      0xffffffffffffffffffffffffffffffffffffffff\n      and\n      dup2\n      mstore\n      0x20\n      add\n      swap1\n      dup2\n      mstore\n      0x20\n      add\n      0x00\n      keccak256\n        /* \"contracts/Registration.sol\":3564:3593  firmalar[_firmaAdres].vergiNo */\n      0x01\n      add\n        /* \"contracts/Registration.sol\":3564:3602  firmalar[_firmaAdres].vergiNo=_vergiNo */\n      dup2\n      swap1\n      sstore\n      pop\n        /* \"contracts/Registration.sol\":3620:3673  FirmaEkleLog( _firmaAdres,  _isim,  _vergiNo,  _ulke) */\n      0x4c80d824213be57abdcc652faafea948bed864ebf9677d2a9dcb5efa217e88d6\n        /* \"contracts/Registration.sol\":3634:3645  _firmaAdres */\n      dup5\n        /* \"contracts/Registration.sol\":3648:3653  _isim */\n      dup5\n        /* \"contracts/Registration.sol\":3656:3664  _vergiNo */\n      dup5\n        /* \"contracts/Registration.sol\":3667:3672  _ulke */\n      dup5\n        /* \"contracts/Registration.sol\":3620:3673  FirmaEkleLog( _firmaAdres,  _isim,  _vergiNo,  _ulke) */\n      mload(0x40)\n      tag_190\n      swap5\n      swap4\n      swap3\n      swap2\n      swap1\n      tag_191\n      jump\t// in\n    tag_190:\n      mload(0x40)\n      dup1\n      swap2\n      sub\n      swap1\n      log1\n        /* \"contracts/Registration.sol\":3205:3690  function ekleFirma(address _firmaAdres,string memory _isim, uint _vergiNo,uint8 _ulke) \r... */\n      pop\n      pop\n      pop\n      pop\n      jump\t// out\n        /* \"contracts/Registration.sol\":3697:4173  function ekleKamuKurumu(address _kamuKurumuAdres,string memory _isim, uint8 _ulke) \r... */\n    tag_81:\n        /* \"contracts/BaseContract.sol\":1516:1518  CB */\n      0x02\n      0x00\n      swap1\n      sload\n      swap1\n      0x0100\n      exp\n      swap1\n      div\n      0xffffffffffffffffffffffffffffffffffffffff\n      and\n        /* \"contracts/BaseContract.sol\":1502:1518  msg.sender == CB */\n      0xffffffffffffffffffffffffffffffffffffffff\n      and\n        /* \"contracts/BaseContract.sol\":1502:1512  msg.sender */\n      caller\n        /* \"contracts/BaseContract.sol\":1502:1518  msg.sender == CB */\n      0xffffffffffffffffffffffffffffffffffffffff\n      and\n      eq\n        /* \"contracts/BaseContract.sol\":1494:1568  require(msg.sender == CB,\r... */\n      tag_193\n      jumpi\n      mload(0x40)\n      0x08c379a000000000000000000000000000000000000000000000000000000000\n      dup2\n      mstore\n      0x04\n      add\n      tag_194\n      swap1\n      tag_97\n      jump\t// in\n    tag_194:\n      mload(0x40)\n      dup1\n      swap2\n      sub\n      swap1\n      revert\n    tag_193:\n        /* \"contracts/Registration.sol\":3822:3835  kamuKurumlari */\n      0x08\n        /* \"contracts/Registration.sol\":3822:3853  kamuKurumlari[_kamuKurumuAdres] */\n      0x00\n        /* \"contracts/Registration.sol\":3836:3852  _kamuKurumuAdres */\n      dup5\n        /* \"contracts/Registration.sol\":3822:3853  kamuKurumlari[_kamuKurumuAdres] */\n      0xffffffffffffffffffffffffffffffffffffffff\n      and\n      0xffffffffffffffffffffffffffffffffffffffff\n      and\n      dup2\n      mstore\n      0x20\n      add\n      swap1\n      dup2\n      mstore\n      0x20\n      add\n      0x00\n      keccak256\n        /* \"contracts/Registration.sol\":3822:3859  kamuKurumlari[_kamuKurumuAdres].durum */\n      0x00\n      add\n      0x00\n      swap1\n      sload\n      swap1\n      0x0100\n      exp\n      swap1\n      div\n      0xff\n      and\n        /* \"contracts/Registration.sol\":3821:3859  !kamuKurumlari[_kamuKurumuAdres].durum */\n      iszero\n        /* \"contracts/Registration.sol\":3813:3914  require(!kamuKurumlari[_kamuKurumuAdres].durum,\r... */\n      tag_196\n      jumpi\n      mload(0x40)\n      0x08c379a000000000000000000000000000000000000000000000000000000000\n      dup2\n      mstore\n      0x04\n      add\n      tag_197\n      swap1\n      tag_198\n      jump\t// in\n    tag_197:\n      mload(0x40)\n      dup1\n      swap2\n      sub\n      swap1\n      revert\n    tag_196:\n        /* \"contracts/Registration.sol\":3977:3981  true */\n      0x01\n        /* \"contracts/Registration.sol\":3939:3952  kamuKurumlari */\n      0x08\n        /* \"contracts/Registration.sol\":3939:3970  kamuKurumlari[_kamuKurumuAdres] */\n      0x00\n        /* \"contracts/Registration.sol\":3953:3969  _kamuKurumuAdres */\n      dup6\n        /* \"contracts/Registration.sol\":3939:3970  kamuKurumlari[_kamuKurumuAdres] */\n      0xffffffffffffffffffffffffffffffffffffffff\n      and\n      0xffffffffffffffffffffffffffffffffffffffff\n      and\n      dup2\n      mstore\n      0x20\n      add\n      swap1\n      dup2\n      mstore\n      0x20\n      add\n      0x00\n      keccak256\n        /* \"contracts/Registration.sol\":3939:3976  kamuKurumlari[_kamuKurumuAdres].durum */\n      0x00\n      add\n      0x00\n        /* \"contracts/Registration.sol\":3939:3981  kamuKurumlari[_kamuKurumuAdres].durum=true */\n      0x0100\n      exp\n      dup2\n      sload\n      dup2\n      0xff\n      mul\n      not\n      and\n      swap1\n      dup4\n      iszero\n      iszero\n      mul\n      or\n      swap1\n      sstore\n      pop\n        /* \"contracts/Registration.sol\":4029:4034  _isim */\n      dup2\n        /* \"contracts/Registration.sol\":3992:4005  kamuKurumlari */\n      0x08\n        /* \"contracts/Registration.sol\":3992:4023  kamuKurumlari[_kamuKurumuAdres] */\n      0x00\n        /* \"contracts/Registration.sol\":4006:4022  _kamuKurumuAdres */\n      dup6\n        /* \"contracts/Registration.sol\":3992:4023  kamuKurumlari[_kamuKurumuAdres] */\n      0xffffffffffffffffffffffffffffffffffffffff\n      and\n      0xffffffffffffffffffffffffffffffffffffffff\n      and\n      dup2\n      mstore\n      0x20\n      add\n      swap1\n      dup2\n      mstore\n      0x20\n      add\n      0x00\n      keccak256\n        /* \"contracts/Registration.sol\":3992:4028  kamuKurumlari[_kamuKurumuAdres].isim */\n      0x01\n      add\n        /* \"contracts/Registration.sol\":3992:4034  kamuKurumlari[_kamuKurumuAdres].isim=_isim */\n      swap1\n      dup1\n      mload\n      swap1\n      0x20\n      add\n      swap1\n      tag_199\n      swap3\n      swap2\n      swap1\n      tag_91\n      jump\t// in\n    tag_199:\n      pop\n        /* \"contracts/Registration.sol\":4082:4087  _ulke */\n      dup1\n        /* \"contracts/Registration.sol\":4045:4058  kamuKurumlari */\n      0x08\n        /* \"contracts/Registration.sol\":4045:4076  kamuKurumlari[_kamuKurumuAdres] */\n      0x00\n        /* \"contracts/Registration.sol\":4059:4075  _kamuKurumuAdres */\n      dup6\n        /* \"contracts/Registration.sol\":4045:4076  kamuKurumlari[_kamuKurumuAdres] */\n      0xffffffffffffffffffffffffffffffffffffffff\n      and\n      0xffffffffffffffffffffffffffffffffffffffff\n      and\n      dup2\n      mstore\n      0x20\n      add\n      swap1\n      dup2\n      mstore\n      0x20\n      add\n      0x00\n      keccak256\n        /* \"contracts/Registration.sol\":4045:4081  kamuKurumlari[_kamuKurumuAdres].ulke */\n      0x02\n      add\n      0x00\n        /* \"contracts/Registration.sol\":4045:4087  kamuKurumlari[_kamuKurumuAdres].ulke=_ulke */\n      0x0100\n      exp\n      dup2\n      sload\n      dup2\n      0xff\n      mul\n      not\n      and\n      swap1\n      dup4\n      0xff\n      and\n      mul\n      or\n      swap1\n      sstore\n      pop\n        /* \"contracts/Registration.sol\":4105:4156  KamuKurumuEkleLog( _kamuKurumuAdres,  _isim, _ulke) */\n      0x3ed49d581db34ca478f2e99aeae4b5f44d7efd3db61bf20bc6d9212bf34f4aef\n        /* \"contracts/Registration.sol\":4124:4140  _kamuKurumuAdres */\n      dup4\n        /* \"contracts/Registration.sol\":4143:4148  _isim */\n      dup4\n        /* \"contracts/Registration.sol\":4150:4155  _ulke */\n      dup4\n        /* \"contracts/Registration.sol\":4105:4156  KamuKurumuEkleLog( _kamuKurumuAdres,  _isim, _ulke) */\n      mload(0x40)\n      tag_200\n      swap4\n      swap3\n      swap2\n      swap1\n      tag_93\n      jump\t// in\n    tag_200:\n      mload(0x40)\n      dup1\n      swap2\n      sub\n      swap1\n      log1\n        /* \"contracts/Registration.sol\":3697:4173  function ekleKamuKurumu(address _kamuKurumuAdres,string memory _isim, uint8 _ulke) \r... */\n      pop\n      pop\n      pop\n      jump\t// out\n    tag_91:\n      dup3\n      dup1\n      sload\n      tag_201\n      swap1\n      tag_105\n      jump\t// in\n    tag_201:\n      swap1\n      0x00\n      mstore\n      keccak256(0x00, 0x20)\n      swap1\n      0x1f\n      add\n      0x20\n      swap1\n      div\n      dup2\n      add\n      swap3\n      dup3\n      tag_203\n      jumpi\n      0x00\n      dup6\n      sstore\n      jump(tag_202)\n    tag_203:\n      dup3\n      0x1f\n      lt\n      tag_204\n      jumpi\n      dup1\n      mload\n      not(0xff)\n      and\n      dup4\n      dup1\n      add\n      or\n      dup6\n      sstore\n      jump(tag_202)\n    tag_204:\n      dup3\n      dup1\n      add\n      0x01\n      add\n      dup6\n      sstore\n      dup3\n      iszero\n      tag_202\n      jumpi\n      swap2\n      dup3\n      add\n    tag_205:\n      dup3\n      dup2\n      gt\n      iszero\n      tag_206\n      jumpi\n      dup3\n      mload\n      dup3\n      sstore\n      swap2\n      0x20\n      add\n      swap2\n      swap1\n      0x01\n      add\n      swap1\n      jump(tag_205)\n    tag_206:\n    tag_202:\n      pop\n      swap1\n      pop\n      tag_207\n      swap2\n      swap1\n      tag_208\n      jump\t// in\n    tag_207:\n      pop\n      swap1\n      jump\t// out\n    tag_208:\n    tag_209:\n      dup1\n      dup3\n      gt\n      iszero\n      tag_210\n      jumpi\n      0x00\n      dup2\n      0x00\n      swap1\n      sstore\n      pop\n      0x01\n      add\n      jump(tag_209)\n    tag_210:\n      pop\n      swap1\n      jump\t// out\n        /* \"#utility.yul\":7:419   */\n    tag_212:\n        /* \"#utility.yul\":85:90   */\n      0x00\n        /* \"#utility.yul\":110:176   */\n      tag_214\n        /* \"#utility.yul\":126:175   */\n      tag_215\n        /* \"#utility.yul\":168:174   */\n      dup5\n        /* \"#utility.yul\":126:175   */\n      tag_216\n      jump\t// in\n    tag_215:\n        /* \"#utility.yul\":110:176   */\n      tag_217\n      jump\t// in\n    tag_214:\n        /* \"#utility.yul\":101:176   */\n      swap1\n      pop\n        /* \"#utility.yul\":199:205   */\n      dup3\n        /* \"#utility.yul\":192:197   */\n      dup2\n        /* \"#utility.yul\":185:206   */\n      mstore\n        /* \"#utility.yul\":237:241   */\n      0x20\n        /* \"#utility.yul\":230:235   */\n      dup2\n        /* \"#utility.yul\":226:242   */\n      add\n        /* \"#utility.yul\":275:278   */\n      dup5\n        /* \"#utility.yul\":266:272   */\n      dup5\n        /* \"#utility.yul\":261:264   */\n      dup5\n        /* \"#utility.yul\":257:273   */\n      add\n        /* \"#utility.yul\":254:279   */\n      gt\n        /* \"#utility.yul\":251:363   */\n      iszero\n      tag_218\n      jumpi\n        /* \"#utility.yul\":282:361   */\n      tag_219\n      tag_220\n      jump\t// in\n    tag_219:\n        /* \"#utility.yul\":251:363   */\n    tag_218:\n        /* \"#utility.yul\":372:413   */\n      tag_221\n        /* \"#utility.yul\":406:412   */\n      dup5\n        /* \"#utility.yul\":401:404   */\n      dup3\n        /* \"#utility.yul\":396:399   */\n      dup6\n        /* \"#utility.yul\":372:413   */\n      tag_222\n      jump\t// in\n    tag_221:\n        /* \"#utility.yul\":91:419   */\n      pop\n        /* \"#utility.yul\":7:419   */\n      swap4\n      swap3\n      pop\n      pop\n      pop\n      jump\t// out\n        /* \"#utility.yul\":425:564   */\n    tag_223:\n        /* \"#utility.yul\":471:476   */\n      0x00\n        /* \"#utility.yul\":509:515   */\n      dup2\n        /* \"#utility.yul\":496:516   */\n      calldataload\n        /* \"#utility.yul\":487:516   */\n      swap1\n      pop\n        /* \"#utility.yul\":525:558   */\n      tag_225\n        /* \"#utility.yul\":552:557   */\n      dup2\n        /* \"#utility.yul\":525:558   */\n      tag_226\n      jump\t// in\n    tag_225:\n        /* \"#utility.yul\":425:564   */\n      swap3\n      swap2\n      pop\n      pop\n      jump\t// out\n        /* \"#utility.yul\":570:725   */\n    tag_227:\n        /* \"#utility.yul\":624:629   */\n      0x00\n        /* \"#utility.yul\":662:668   */\n      dup2\n        /* \"#utility.yul\":649:669   */\n      calldataload\n        /* \"#utility.yul\":640:669   */\n      swap1\n      pop\n        /* \"#utility.yul\":678:719   */\n      tag_229\n        /* \"#utility.yul\":713:718   */\n      dup2\n        /* \"#utility.yul\":678:719   */\n      tag_230\n      jump\t// in\n    tag_229:\n        /* \"#utility.yul\":570:725   */\n      swap3\n      swap2\n      pop\n      pop\n      jump\t// out\n        /* \"#utility.yul\":745:1085   */\n    tag_231:\n        /* \"#utility.yul\":801:806   */\n      0x00\n        /* \"#utility.yul\":850:853   */\n      dup3\n        /* \"#utility.yul\":843:847   */\n      0x1f\n        /* \"#utility.yul\":835:841   */\n      dup4\n        /* \"#utility.yul\":831:848   */\n      add\n        /* \"#utility.yul\":827:854   */\n      slt\n        /* \"#utility.yul\":817:939   */\n      tag_233\n      jumpi\n        /* \"#utility.yul\":858:937   */\n      tag_234\n      tag_235\n      jump\t// in\n    tag_234:\n        /* \"#utility.yul\":817:939   */\n    tag_233:\n        /* \"#utility.yul\":975:981   */\n      dup2\n        /* \"#utility.yul\":962:982   */\n      calldataload\n        /* \"#utility.yul\":1000:1079   */\n      tag_236\n        /* \"#utility.yul\":1075:1078   */\n      dup5\n        /* \"#utility.yul\":1067:1073   */\n      dup3\n        /* \"#utility.yul\":1060:1064   */\n      0x20\n        /* \"#utility.yul\":1052:1058   */\n      dup7\n        /* \"#utility.yul\":1048:1065   */\n      add\n        /* \"#utility.yul\":1000:1079   */\n      tag_212\n      jump\t// in\n    tag_236:\n        /* \"#utility.yul\":991:1079   */\n      swap2\n      pop\n        /* \"#utility.yul\":807:1085   */\n      pop\n        /* \"#utility.yul\":745:1085   */\n      swap3\n      swap2\n      pop\n      pop\n      jump\t// out\n        /* \"#utility.yul\":1091:1228   */\n    tag_237:\n        /* \"#utility.yul\":1136:1141   */\n      0x00\n        /* \"#utility.yul\":1174:1180   */\n      dup2\n        /* \"#utility.yul\":1161:1181   */\n      calldataload\n        /* \"#utility.yul\":1152:1181   */\n      swap1\n      pop\n        /* \"#utility.yul\":1190:1222   */\n      tag_239\n        /* \"#utility.yul\":1216:1221   */\n      dup2\n        /* \"#utility.yul\":1190:1222   */\n      tag_240\n      jump\t// in\n    tag_239:\n        /* \"#utility.yul\":1091:1228   */\n      swap3\n      swap2\n      pop\n      pop\n      jump\t// out\n        /* \"#utility.yul\":1234:1373   */\n    tag_241:\n        /* \"#utility.yul\":1280:1285   */\n      0x00\n        /* \"#utility.yul\":1318:1324   */\n      dup2\n        /* \"#utility.yul\":1305:1325   */\n      calldataload\n        /* \"#utility.yul\":1296:1325   */\n      swap1\n      pop\n        /* \"#utility.yul\":1334:1367   */\n      tag_243\n        /* \"#utility.yul\":1361:1366   */\n      dup2\n        /* \"#utility.yul\":1334:1367   */\n      tag_244\n      jump\t// in\n    tag_243:\n        /* \"#utility.yul\":1234:1373   */\n      swap3\n      swap2\n      pop\n      pop\n      jump\t// out\n        /* \"#utility.yul\":1379:1514   */\n    tag_245:\n        /* \"#utility.yul\":1423:1428   */\n      0x00\n        /* \"#utility.yul\":1461:1467   */\n      dup2\n        /* \"#utility.yul\":1448:1468   */\n      calldataload\n        /* \"#utility.yul\":1439:1468   */\n      swap1\n      pop\n        /* \"#utility.yul\":1477:1508   */\n      tag_247\n        /* \"#utility.yul\":1502:1507   */\n      dup2\n        /* \"#utility.yul\":1477:1508   */\n      tag_248\n      jump\t// in\n    tag_247:\n        /* \"#utility.yul\":1379:1514   */\n      swap3\n      swap2\n      pop\n      pop\n      jump\t// out\n        /* \"#utility.yul\":1520:1849   */\n    tag_30:\n        /* \"#utility.yul\":1579:1585   */\n      0x00\n        /* \"#utility.yul\":1628:1630   */\n      0x20\n        /* \"#utility.yul\":1616:1625   */\n      dup3\n        /* \"#utility.yul\":1607:1614   */\n      dup5\n        /* \"#utility.yul\":1603:1626   */\n      sub\n        /* \"#utility.yul\":1599:1631   */\n      slt\n        /* \"#utility.yul\":1596:1715   */\n      iszero\n      tag_250\n      jumpi\n        /* \"#utility.yul\":1634:1713   */\n      tag_251\n      tag_252\n      jump\t// in\n    tag_251:\n        /* \"#utility.yul\":1596:1715   */\n    tag_250:\n        /* \"#utility.yul\":1754:1755   */\n      0x00\n        /* \"#utility.yul\":1779:1832   */\n      tag_253\n        /* \"#utility.yul\":1824:1831   */\n      dup5\n        /* \"#utility.yul\":1815:1821   */\n      dup3\n        /* \"#utility.yul\":1804:1813   */\n      dup6\n        /* \"#utility.yul\":1800:1822   */\n      add\n        /* \"#utility.yul\":1779:1832   */\n      tag_223\n      jump\t// in\n    tag_253:\n        /* \"#utility.yul\":1769:1832   */\n      swap2\n      pop\n        /* \"#utility.yul\":1725:1842   */\n      pop\n        /* \"#utility.yul\":1520:1849   */\n      swap3\n      swap2\n      pop\n      pop\n      jump\t// out\n        /* \"#utility.yul\":1855:3286   */\n    tag_36:\n        /* \"#utility.yul\":1986:1992   */\n      0x00\n        /* \"#utility.yul\":1994:2000   */\n      dup1\n        /* \"#utility.yul\":2002:2008   */\n      0x00\n        /* \"#utility.yul\":2010:2016   */\n      dup1\n        /* \"#utility.yul\":2018:2024   */\n      0x00\n        /* \"#utility.yul\":2026:2032   */\n      dup1\n        /* \"#utility.yul\":2075:2078   */\n      0xc0\n        /* \"#utility.yul\":2063:2072   */\n      dup8\n        /* \"#utility.yul\":2054:2061   */\n      dup10\n        /* \"#utility.yul\":2050:2073   */\n      sub\n        /* \"#utility.yul\":2046:2079   */\n      slt\n        /* \"#utility.yul\":2043:2163   */\n      iszero\n      tag_255\n      jumpi\n        /* \"#utility.yul\":2082:2161   */\n      tag_256\n      tag_252\n      jump\t// in\n    tag_256:\n        /* \"#utility.yul\":2043:2163   */\n    tag_255:\n        /* \"#utility.yul\":2202:2203   */\n      0x00\n        /* \"#utility.yul\":2227:2280   */\n      tag_257\n        /* \"#utility.yul\":2272:2279   */\n      dup10\n        /* \"#utility.yul\":2263:2269   */\n      dup3\n        /* \"#utility.yul\":2252:2261   */\n      dup11\n        /* \"#utility.yul\":2248:2270   */\n      add\n        /* \"#utility.yul\":2227:2280   */\n      tag_223\n      jump\t// in\n    tag_257:\n        /* \"#utility.yul\":2217:2280   */\n      swap7\n      pop\n        /* \"#utility.yul\":2173:2290   */\n      pop\n        /* \"#utility.yul\":2329:2331   */\n      0x20\n        /* \"#utility.yul\":2355:2408   */\n      tag_258\n        /* \"#utility.yul\":2400:2407   */\n      dup10\n        /* \"#utility.yul\":2391:2397   */\n      dup3\n        /* \"#utility.yul\":2380:2389   */\n      dup11\n        /* \"#utility.yul\":2376:2398   */\n      add\n        /* \"#utility.yul\":2355:2408   */\n      tag_223\n      jump\t// in\n    tag_258:\n        /* \"#utility.yul\":2345:2408   */\n      swap6\n      pop\n        /* \"#utility.yul\":2300:2418   */\n      pop\n        /* \"#utility.yul\":2485:2487   */\n      0x40\n        /* \"#utility.yul\":2474:2483   */\n      dup8\n        /* \"#utility.yul\":2470:2488   */\n      add\n        /* \"#utility.yul\":2457:2489   */\n      calldataload\n        /* \"#utility.yul\":2516:2534   */\n      0xffffffffffffffff\n        /* \"#utility.yul\":2508:2514   */\n      dup2\n        /* \"#utility.yul\":2505:2535   */\n      gt\n        /* \"#utility.yul\":2502:2619   */\n      iszero\n      tag_259\n      jumpi\n        /* \"#utility.yul\":2538:2617   */\n      tag_260\n      tag_261\n      jump\t// in\n    tag_260:\n        /* \"#utility.yul\":2502:2619   */\n    tag_259:\n        /* \"#utility.yul\":2643:2706   */\n      tag_262\n        /* \"#utility.yul\":2698:2705   */\n      dup10\n        /* \"#utility.yul\":2689:2695   */\n      dup3\n        /* \"#utility.yul\":2678:2687   */\n      dup11\n        /* \"#utility.yul\":2674:2696   */\n      add\n        /* \"#utility.yul\":2643:2706   */\n      tag_231\n      jump\t// in\n    tag_262:\n        /* \"#utility.yul\":2633:2706   */\n      swap5\n      pop\n        /* \"#utility.yul\":2428:2716   */\n      pop\n        /* \"#utility.yul\":2783:2785   */\n      0x60\n        /* \"#utility.yul\":2772:2781   */\n      dup8\n        /* \"#utility.yul\":2768:2786   */\n      add\n        /* \"#utility.yul\":2755:2787   */\n      calldataload\n        /* \"#utility.yul\":2814:2832   */\n      0xffffffffffffffff\n        /* \"#utility.yul\":2806:2812   */\n      dup2\n        /* \"#utility.yul\":2803:2833   */\n      gt\n        /* \"#utility.yul\":2800:2917   */\n      iszero\n      tag_263\n      jumpi\n        /* \"#utility.yul\":2836:2915   */\n      tag_264\n      tag_261\n      jump\t// in\n    tag_264:\n        /* \"#utility.yul\":2800:2917   */\n    tag_263:\n        /* \"#utility.yul\":2941:3004   */\n      tag_265\n        /* \"#utility.yul\":2996:3003   */\n      dup10\n        /* \"#utility.yul\":2987:2993   */\n      dup3\n        /* \"#utility.yul\":2976:2985   */\n      dup11\n        /* \"#utility.yul\":2972:2994   */\n      add\n        /* \"#utility.yul\":2941:3004   */\n      tag_231\n      jump\t// in\n    tag_265:\n        /* \"#utility.yul\":2931:3004   */\n      swap4\n      pop\n        /* \"#utility.yul\":2726:3014   */\n      pop\n        /* \"#utility.yul\":3053:3056   */\n      0x80\n        /* \"#utility.yul\":3080:3132   */\n      tag_266\n        /* \"#utility.yul\":3124:3131   */\n      dup10\n        /* \"#utility.yul\":3115:3121   */\n      dup3\n        /* \"#utility.yul\":3104:3113   */\n      dup11\n        /* \"#utility.yul\":3100:3122   */\n      add\n        /* \"#utility.yul\":3080:3132   */\n      tag_237\n      jump\t// in\n    tag_266:\n        /* \"#utility.yul\":3070:3132   */\n      swap3\n      pop\n        /* \"#utility.yul\":3024:3142   */\n      pop\n        /* \"#utility.yul\":3181:3184   */\n      0xa0\n        /* \"#utility.yul\":3208:3269   */\n      tag_267\n        /* \"#utility.yul\":3261:3268   */\n      dup10\n        /* \"#utility.yul\":3252:3258   */\n      dup3\n        /* \"#utility.yul\":3241:3250   */\n      dup11\n        /* \"#utility.yul\":3237:3259   */\n      add\n        /* \"#utility.yul\":3208:3269   */\n      tag_227\n      jump\t// in\n    tag_267:\n        /* \"#utility.yul\":3198:3269   */\n      swap2\n      pop\n        /* \"#utility.yul\":3152:3279   */\n      pop\n        /* \"#utility.yul\":1855:3286   */\n      swap3\n      swap6\n      pop\n      swap3\n      swap6\n      pop\n      swap3\n      swap6\n      jump\t// out\n        /* \"#utility.yul\":3292:4233   */\n    tag_77:\n        /* \"#utility.yul\":3386:3392   */\n      0x00\n        /* \"#utility.yul\":3394:3400   */\n      dup1\n        /* \"#utility.yul\":3402:3408   */\n      0x00\n        /* \"#utility.yul\":3410:3416   */\n      dup1\n        /* \"#utility.yul\":3459:3462   */\n      0x80\n        /* \"#utility.yul\":3447:3456   */\n      dup6\n        /* \"#utility.yul\":3438:3445   */\n      dup8\n        /* \"#utility.yul\":3434:3457   */\n      sub\n        /* \"#utility.yul\":3430:3463   */\n      slt\n        /* \"#utility.yul\":3427:3547   */\n      iszero\n      tag_269\n      jumpi\n        /* \"#utility.yul\":3466:3545   */\n      tag_270\n      tag_252\n      jump\t// in\n    tag_270:\n        /* \"#utility.yul\":3427:3547   */\n    tag_269:\n        /* \"#utility.yul\":3586:3587   */\n      0x00\n        /* \"#utility.yul\":3611:3664   */\n      tag_271\n        /* \"#utility.yul\":3656:3663   */\n      dup8\n        /* \"#utility.yul\":3647:3653   */\n      dup3\n        /* \"#utility.yul\":3636:3645   */\n      dup9\n        /* \"#utility.yul\":3632:3654   */\n      add\n        /* \"#utility.yul\":3611:3664   */\n      tag_223\n      jump\t// in\n    tag_271:\n        /* \"#utility.yul\":3601:3664   */\n      swap5\n      pop\n        /* \"#utility.yul\":3557:3674   */\n      pop\n        /* \"#utility.yul\":3741:3743   */\n      0x20\n        /* \"#utility.yul\":3730:3739   */\n      dup6\n        /* \"#utility.yul\":3726:3744   */\n      add\n        /* \"#utility.yul\":3713:3745   */\n      calldataload\n        /* \"#utility.yul\":3772:3790   */\n      0xffffffffffffffff\n        /* \"#utility.yul\":3764:3770   */\n      dup2\n        /* \"#utility.yul\":3761:3791   */\n      gt\n        /* \"#utility.yul\":3758:3875   */\n      iszero\n      tag_272\n      jumpi\n        /* \"#utility.yul\":3794:3873   */\n      tag_273\n      tag_261\n      jump\t// in\n    tag_273:\n        /* \"#utility.yul\":3758:3875   */\n    tag_272:\n        /* \"#utility.yul\":3899:3962   */\n      tag_274\n        /* \"#utility.yul\":3954:3961   */\n      dup8\n        /* \"#utility.yul\":3945:3951   */\n      dup3\n        /* \"#utility.yul\":3934:3943   */\n      dup9\n        /* \"#utility.yul\":3930:3952   */\n      add\n        /* \"#utility.yul\":3899:3962   */\n      tag_231\n      jump\t// in\n    tag_274:\n        /* \"#utility.yul\":3889:3962   */\n      swap4\n      pop\n        /* \"#utility.yul\":3684:3972   */\n      pop\n        /* \"#utility.yul\":4011:4013   */\n      0x40\n        /* \"#utility.yul\":4037:4090   */\n      tag_275\n        /* \"#utility.yul\":4082:4089   */\n      dup8\n        /* \"#utility.yul\":4073:4079   */\n      dup3\n        /* \"#utility.yul\":4062:4071   */\n      dup9\n        /* \"#utility.yul\":4058:4080   */\n      add\n        /* \"#utility.yul\":4037:4090   */\n      tag_241\n      jump\t// in\n    tag_275:\n        /* \"#utility.yul\":4027:4090   */\n      swap3\n      pop\n        /* \"#utility.yul\":3982:4100   */\n      pop\n        /* \"#utility.yul\":4139:4141   */\n      0x60\n        /* \"#utility.yul\":4165:4216   */\n      tag_276\n        /* \"#utility.yul\":4208:4215   */\n      dup8\n        /* \"#utility.yul\":4199:4205   */\n      dup3\n        /* \"#utility.yul\":4188:4197   */\n      dup9\n        /* \"#utility.yul\":4184:4206   */\n      add\n        /* \"#utility.yul\":4165:4216   */\n      tag_245\n      jump\t// in\n    tag_276:\n        /* \"#utility.yul\":4155:4216   */\n      swap2\n      pop\n        /* \"#utility.yul\":4110:4226   */\n      pop\n        /* \"#utility.yul\":3292:4233   */\n      swap3\n      swap6\n      swap2\n      swap5\n      pop\n      swap3\n      pop\n      jump\t// out\n        /* \"#utility.yul\":4239:5034   */\n    tag_23:\n        /* \"#utility.yul\":4324:4330   */\n      0x00\n        /* \"#utility.yul\":4332:4338   */\n      dup1\n        /* \"#utility.yul\":4340:4346   */\n      0x00\n        /* \"#utility.yul\":4389:4391   */\n      0x60\n        /* \"#utility.yul\":4377:4386   */\n      dup5\n        /* \"#utility.yul\":4368:4375   */\n      dup7\n        /* \"#utility.yul\":4364:4387   */\n      sub\n        /* \"#utility.yul\":4360:4392   */\n      slt\n        /* \"#utility.yul\":4357:4476   */\n      iszero\n      tag_278\n      jumpi\n        /* \"#utility.yul\":4395:4474   */\n      tag_279\n      tag_252\n      jump\t// in\n    tag_279:\n        /* \"#utility.yul\":4357:4476   */\n    tag_278:\n        /* \"#utility.yul\":4515:4516   */\n      0x00\n        /* \"#utility.yul\":4540:4593   */\n      tag_280\n        /* \"#utility.yul\":4585:4592   */\n      dup7\n        /* \"#utility.yul\":4576:4582   */\n      dup3\n        /* \"#utility.yul\":4565:4574   */\n      dup8\n        /* \"#utility.yul\":4561:4583   */\n      add\n        /* \"#utility.yul\":4540:4593   */\n      tag_223\n      jump\t// in\n    tag_280:\n        /* \"#utility.yul\":4530:4593   */\n      swap4\n      pop\n        /* \"#utility.yul\":4486:4603   */\n      pop\n        /* \"#utility.yul\":4670:4672   */\n      0x20\n        /* \"#utility.yul\":4659:4668   */\n      dup5\n        /* \"#utility.yul\":4655:4673   */\n      add\n        /* \"#utility.yul\":4642:4674   */\n      calldataload\n        /* \"#utility.yul\":4701:4719   */\n      0xffffffffffffffff\n        /* \"#utility.yul\":4693:4699   */\n      dup2\n        /* \"#utility.yul\":4690:4720   */\n      gt\n        /* \"#utility.yul\":4687:4804   */\n      iszero\n      tag_281\n      jumpi\n        /* \"#utility.yul\":4723:4802   */\n      tag_282\n      tag_261\n      jump\t// in\n    tag_282:\n        /* \"#utility.yul\":4687:4804   */\n    tag_281:\n        /* \"#utility.yul\":4828:4891   */\n      tag_283\n        /* \"#utility.yul\":4883:4890   */\n      dup7\n        /* \"#utility.yul\":4874:4880   */\n      dup3\n        /* \"#utility.yul\":4863:4872   */\n      dup8\n        /* \"#utility.yul\":4859:4881   */\n      add\n        /* \"#utility.yul\":4828:4891   */\n      tag_231\n      jump\t// in\n    tag_283:\n        /* \"#utility.yul\":4818:4891   */\n      swap3\n      pop\n        /* \"#utility.yul\":4613:4901   */\n      pop\n        /* \"#utility.yul\":4940:4942   */\n      0x40\n        /* \"#utility.yul\":4966:5017   */\n      tag_284\n        /* \"#utility.yul\":5009:5016   */\n      dup7\n        /* \"#utility.yul\":5000:5006   */\n      dup3\n        /* \"#utility.yul\":4989:4998   */\n      dup8\n        /* \"#utility.yul\":4985:5007   */\n      add\n        /* \"#utility.yul\":4966:5017   */\n      tag_245\n      jump\t// in\n    tag_284:\n        /* \"#utility.yul\":4956:5017   */\n      swap2\n      pop\n        /* \"#utility.yul\":4911:5027   */\n      pop\n        /* \"#utility.yul\":4239:5034   */\n      swap3\n      pop\n      swap3\n      pop\n      swap3\n      jump\t// out\n        /* \"#utility.yul\":5040:5158   */\n    tag_285:\n        /* \"#utility.yul\":5127:5151   */\n      tag_287\n        /* \"#utility.yul\":5145:5150   */\n      dup2\n        /* \"#utility.yul\":5127:5151   */\n      tag_288\n      jump\t// in\n    tag_287:\n        /* \"#utility.yul\":5122:5125   */\n      dup3\n        /* \"#utility.yul\":5115:5152   */\n      mstore\n        /* \"#utility.yul\":5040:5158   */\n      pop\n      pop\n      jump\t// out\n        /* \"#utility.yul\":5164:5273   */\n    tag_289:\n        /* \"#utility.yul\":5245:5266   */\n      tag_291\n        /* \"#utility.yul\":5260:5265   */\n      dup2\n        /* \"#utility.yul\":5245:5266   */\n      tag_292\n      jump\t// in\n    tag_291:\n        /* \"#utility.yul\":5240:5243   */\n      dup3\n        /* \"#utility.yul\":5233:5267   */\n      mstore\n        /* \"#utility.yul\":5164:5273   */\n      pop\n      pop\n      jump\t// out\n        /* \"#utility.yul\":5279:5422   */\n    tag_293:\n        /* \"#utility.yul\":5372:5415   */\n      tag_295\n        /* \"#utility.yul\":5409:5414   */\n      dup2\n        /* \"#utility.yul\":5372:5415   */\n      tag_296\n      jump\t// in\n    tag_295:\n        /* \"#utility.yul\":5367:5370   */\n      dup3\n        /* \"#utility.yul\":5360:5416   */\n      mstore\n        /* \"#utility.yul\":5279:5422   */\n      pop\n      pop\n      jump\t// out\n        /* \"#utility.yul\":5428:5792   */\n    tag_297:\n        /* \"#utility.yul\":5516:5519   */\n      0x00\n        /* \"#utility.yul\":5544:5583   */\n      tag_299\n        /* \"#utility.yul\":5577:5582   */\n      dup3\n        /* \"#utility.yul\":5544:5583   */\n      tag_300\n      jump\t// in\n    tag_299:\n        /* \"#utility.yul\":5599:5670   */\n      tag_301\n        /* \"#utility.yul\":5663:5669   */\n      dup2\n        /* \"#utility.yul\":5658:5661   */\n      dup6\n        /* \"#utility.yul\":5599:5670   */\n      tag_302\n      jump\t// in\n    tag_301:\n        /* \"#utility.yul\":5592:5670   */\n      swap4\n      pop\n        /* \"#utility.yul\":5679:5731   */\n      tag_303\n        /* \"#utility.yul\":5724:5730   */\n      dup2\n        /* \"#utility.yul\":5719:5722   */\n      dup6\n        /* \"#utility.yul\":5712:5716   */\n      0x20\n        /* \"#utility.yul\":5705:5710   */\n      dup7\n        /* \"#utility.yul\":5701:5717   */\n      add\n        /* \"#utility.yul\":5679:5731   */\n      tag_304\n      jump\t// in\n    tag_303:\n        /* \"#utility.yul\":5756:5785   */\n      tag_305\n        /* \"#utility.yul\":5778:5784   */\n      dup2\n        /* \"#utility.yul\":5756:5785   */\n      tag_306\n      jump\t// in\n    tag_305:\n        /* \"#utility.yul\":5751:5754   */\n      dup5\n        /* \"#utility.yul\":5747:5786   */\n      add\n        /* \"#utility.yul\":5740:5786   */\n      swap2\n      pop\n        /* \"#utility.yul\":5520:5792   */\n      pop\n        /* \"#utility.yul\":5428:5792   */\n      swap3\n      swap2\n      pop\n      pop\n      jump\t// out\n        /* \"#utility.yul\":5798:6164   */\n    tag_307:\n        /* \"#utility.yul\":5940:5943   */\n      0x00\n        /* \"#utility.yul\":5961:6028   */\n      tag_309\n        /* \"#utility.yul\":6025:6027   */\n      0x1f\n        /* \"#utility.yul\":6020:6023   */\n      dup4\n        /* \"#utility.yul\":5961:6028   */\n      tag_302\n      jump\t// in\n    tag_309:\n        /* \"#utility.yul\":5954:6028   */\n      swap2\n      pop\n        /* \"#utility.yul\":6037:6130   */\n      tag_310\n        /* \"#utility.yul\":6126:6129   */\n      dup3\n        /* \"#utility.yul\":6037:6130   */\n      tag_311\n      jump\t// in\n    tag_310:\n        /* \"#utility.yul\":6155:6157   */\n      0x20\n        /* \"#utility.yul\":6150:6153   */\n      dup3\n        /* \"#utility.yul\":6146:6158   */\n      add\n        /* \"#utility.yul\":6139:6158   */\n      swap1\n      pop\n        /* \"#utility.yul\":5798:6164   */\n      swap2\n      swap1\n      pop\n      jump\t// out\n        /* \"#utility.yul\":6170:6536   */\n    tag_312:\n        /* \"#utility.yul\":6312:6315   */\n      0x00\n        /* \"#utility.yul\":6333:6400   */\n      tag_314\n        /* \"#utility.yul\":6397:6399   */\n      0x18\n        /* \"#utility.yul\":6392:6395   */\n      dup4\n        /* \"#utility.yul\":6333:6400   */\n      tag_302\n      jump\t// in\n    tag_314:\n        /* \"#utility.yul\":6326:6400   */\n      swap2\n      pop\n        /* \"#utility.yul\":6409:6502   */\n      tag_315\n        /* \"#utility.yul\":6498:6501   */\n      dup3\n        /* \"#utility.yul\":6409:6502   */\n      tag_316\n      jump\t// in\n    tag_315:\n        /* \"#utility.yul\":6527:6529   */\n      0x20\n        /* \"#utility.yul\":6522:6525   */\n      dup3\n        /* \"#utility.yul\":6518:6530   */\n      add\n        /* \"#utility.yul\":6511:6530   */\n      swap1\n      pop\n        /* \"#utility.yul\":6170:6536   */\n      swap2\n      swap1\n      pop\n      jump\t// out\n        /* \"#utility.yul\":6542:6908   */\n    tag_317:\n        /* \"#utility.yul\":6684:6687   */\n      0x00\n        /* \"#utility.yul\":6705:6772   */\n      tag_319\n        /* \"#utility.yul\":6769:6771   */\n      0x12\n        /* \"#utility.yul\":6764:6767   */\n      dup4\n        /* \"#utility.yul\":6705:6772   */\n      tag_302\n      jump\t// in\n    tag_319:\n        /* \"#utility.yul\":6698:6772   */\n      swap2\n      pop\n        /* \"#utility.yul\":6781:6874   */\n      tag_320\n        /* \"#utility.yul\":6870:6873   */\n      dup3\n        /* \"#utility.yul\":6781:6874   */\n      tag_321\n      jump\t// in\n    tag_320:\n        /* \"#utility.yul\":6899:6901   */\n      0x20\n        /* \"#utility.yul\":6894:6897   */\n      dup3\n        /* \"#utility.yul\":6890:6902   */\n      add\n        /* \"#utility.yul\":6883:6902   */\n      swap1\n      pop\n        /* \"#utility.yul\":6542:6908   */\n      swap2\n      swap1\n      pop\n      jump\t// out\n        /* \"#utility.yul\":6914:7280   */\n    tag_322:\n        /* \"#utility.yul\":7056:7059   */\n      0x00\n        /* \"#utility.yul\":7077:7144   */\n      tag_324\n        /* \"#utility.yul\":7141:7143   */\n      0x1e\n        /* \"#utility.yul\":7136:7139   */\n      dup4\n        /* \"#utility.yul\":7077:7144   */\n      tag_302\n      jump\t// in\n    tag_324:\n        /* \"#utility.yul\":7070:7144   */\n      swap2\n      pop\n        /* \"#utility.yul\":7153:7246   */\n      tag_325\n        /* \"#utility.yul\":7242:7245   */\n      dup3\n        /* \"#utility.yul\":7153:7246   */\n      tag_326\n      jump\t// in\n    tag_325:\n        /* \"#utility.yul\":7271:7273   */\n      0x20\n        /* \"#utility.yul\":7266:7269   */\n      dup3\n        /* \"#utility.yul\":7262:7274   */\n      add\n        /* \"#utility.yul\":7255:7274   */\n      swap1\n      pop\n        /* \"#utility.yul\":6914:7280   */\n      swap2\n      swap1\n      pop\n      jump\t// out\n        /* \"#utility.yul\":7286:7652   */\n    tag_327:\n        /* \"#utility.yul\":7428:7431   */\n      0x00\n        /* \"#utility.yul\":7449:7516   */\n      tag_329\n        /* \"#utility.yul\":7513:7515   */\n      0x1e\n        /* \"#utility.yul\":7508:7511   */\n      dup4\n        /* \"#utility.yul\":7449:7516   */\n      tag_302\n      jump\t// in\n    tag_329:\n        /* \"#utility.yul\":7442:7516   */\n      swap2\n      pop\n        /* \"#utility.yul\":7525:7618   */\n      tag_330\n        /* \"#utility.yul\":7614:7617   */\n      dup3\n        /* \"#utility.yul\":7525:7618   */\n      tag_331\n      jump\t// in\n    tag_330:\n        /* \"#utility.yul\":7643:7645   */\n      0x20\n        /* \"#utility.yul\":7638:7641   */\n      dup3\n        /* \"#utility.yul\":7634:7646   */\n      add\n        /* \"#utility.yul\":7627:7646   */\n      swap1\n      pop\n        /* \"#utility.yul\":7286:7652   */\n      swap2\n      swap1\n      pop\n      jump\t// out\n        /* \"#utility.yul\":7658:8024   */\n    tag_332:\n        /* \"#utility.yul\":7800:7803   */\n      0x00\n        /* \"#utility.yul\":7821:7888   */\n      tag_334\n        /* \"#utility.yul\":7885:7887   */\n      0x22\n        /* \"#utility.yul\":7880:7883   */\n      dup4\n        /* \"#utility.yul\":7821:7888   */\n      tag_302\n      jump\t// in\n    tag_334:\n        /* \"#utility.yul\":7814:7888   */\n      swap2\n      pop\n        /* \"#utility.yul\":7897:7990   */\n      tag_335\n        /* \"#utility.yul\":7986:7989   */\n      dup3\n        /* \"#utility.yul\":7897:7990   */\n      tag_336\n      jump\t// in\n    tag_335:\n        /* \"#utility.yul\":8015:8017   */\n      0x40\n        /* \"#utility.yul\":8010:8013   */\n      dup3\n        /* \"#utility.yul\":8006:8018   */\n      add\n        /* \"#utility.yul\":7999:8018   */\n      swap1\n      pop\n        /* \"#utility.yul\":7658:8024   */\n      swap2\n      swap1\n      pop\n      jump\t// out\n        /* \"#utility.yul\":8030:8396   */\n    tag_337:\n        /* \"#utility.yul\":8172:8175   */\n      0x00\n        /* \"#utility.yul\":8193:8260   */\n      tag_339\n        /* \"#utility.yul\":8257:8259   */\n      0x17\n        /* \"#utility.yul\":8252:8255   */\n      dup4\n        /* \"#utility.yul\":8193:8260   */\n      tag_302\n      jump\t// in\n    tag_339:\n        /* \"#utility.yul\":8186:8260   */\n      swap2\n      pop\n        /* \"#utility.yul\":8269:8362   */\n      tag_340\n        /* \"#utility.yul\":8358:8361   */\n      dup3\n        /* \"#utility.yul\":8269:8362   */\n      tag_341\n      jump\t// in\n    tag_340:\n        /* \"#utility.yul\":8387:8389   */\n      0x20\n        /* \"#utility.yul\":8382:8385   */\n      dup3\n        /* \"#utility.yul\":8378:8390   */\n      add\n        /* \"#utility.yul\":8371:8390   */\n      swap1\n      pop\n        /* \"#utility.yul\":8030:8396   */\n      swap2\n      swap1\n      pop\n      jump\t// out\n        /* \"#utility.yul\":8402:8768   */\n    tag_342:\n        /* \"#utility.yul\":8544:8547   */\n      0x00\n        /* \"#utility.yul\":8565:8632   */\n      tag_344\n        /* \"#utility.yul\":8629:8631   */\n      0x26\n        /* \"#utility.yul\":8624:8627   */\n      dup4\n        /* \"#utility.yul\":8565:8632   */\n      tag_302\n      jump\t// in\n    tag_344:\n        /* \"#utility.yul\":8558:8632   */\n      swap2\n      pop\n        /* \"#utility.yul\":8641:8734   */\n      tag_345\n        /* \"#utility.yul\":8730:8733   */\n      dup3\n        /* \"#utility.yul\":8641:8734   */\n      tag_346\n      jump\t// in\n    tag_345:\n        /* \"#utility.yul\":8759:8761   */\n      0x40\n        /* \"#utility.yul\":8754:8757   */\n      dup3\n        /* \"#utility.yul\":8750:8762   */\n      add\n        /* \"#utility.yul\":8743:8762   */\n      swap1\n      pop\n        /* \"#utility.yul\":8402:8768   */\n      swap2\n      swap1\n      pop\n      jump\t// out\n        /* \"#utility.yul\":8774:9140   */\n    tag_347:\n        /* \"#utility.yul\":8916:8919   */\n      0x00\n        /* \"#utility.yul\":8937:9004   */\n      tag_349\n        /* \"#utility.yul\":9001:9003   */\n      0x18\n        /* \"#utility.yul\":8996:8999   */\n      dup4\n        /* \"#utility.yul\":8937:9004   */\n      tag_302\n      jump\t// in\n    tag_349:\n        /* \"#utility.yul\":8930:9004   */\n      swap2\n      pop\n        /* \"#utility.yul\":9013:9106   */\n      tag_350\n        /* \"#utility.yul\":9102:9105   */\n      dup3\n        /* \"#utility.yul\":9013:9106   */\n      tag_351\n      jump\t// in\n    tag_350:\n        /* \"#utility.yul\":9131:9133   */\n      0x20\n        /* \"#utility.yul\":9126:9129   */\n      dup3\n        /* \"#utility.yul\":9122:9134   */\n      add\n        /* \"#utility.yul\":9115:9134   */\n      swap1\n      pop\n        /* \"#utility.yul\":8774:9140   */\n      swap2\n      swap1\n      pop\n      jump\t// out\n        /* \"#utility.yul\":9146:9512   */\n    tag_352:\n        /* \"#utility.yul\":9288:9291   */\n      0x00\n        /* \"#utility.yul\":9309:9376   */\n      tag_354\n        /* \"#utility.yul\":9373:9375   */\n      0x17\n        /* \"#utility.yul\":9368:9371   */\n      dup4\n        /* \"#utility.yul\":9309:9376   */\n      tag_302\n      jump\t// in\n    tag_354:\n        /* \"#utility.yul\":9302:9376   */\n      swap2\n      pop\n        /* \"#utility.yul\":9385:9478   */\n      tag_355\n        /* \"#utility.yul\":9474:9477   */\n      dup3\n        /* \"#utility.yul\":9385:9478   */\n      tag_356\n      jump\t// in\n    tag_355:\n        /* \"#utility.yul\":9503:9505   */\n      0x20\n        /* \"#utility.yul\":9498:9501   */\n      dup3\n        /* \"#utility.yul\":9494:9506   */\n      add\n        /* \"#utility.yul\":9487:9506   */\n      swap1\n      pop\n        /* \"#utility.yul\":9146:9512   */\n      swap2\n      swap1\n      pop\n      jump\t// out\n        /* \"#utility.yul\":9518:9884   */\n    tag_357:\n        /* \"#utility.yul\":9660:9663   */\n      0x00\n        /* \"#utility.yul\":9681:9748   */\n      tag_359\n        /* \"#utility.yul\":9745:9747   */\n      0x20\n        /* \"#utility.yul\":9740:9743   */\n      dup4\n        /* \"#utility.yul\":9681:9748   */\n      tag_302\n      jump\t// in\n    tag_359:\n        /* \"#utility.yul\":9674:9748   */\n      swap2\n      pop\n        /* \"#utility.yul\":9757:9850   */\n      tag_360\n        /* \"#utility.yul\":9846:9849   */\n      dup3\n        /* \"#utility.yul\":9757:9850   */\n      tag_361\n      jump\t// in\n    tag_360:\n        /* \"#utility.yul\":9875:9877   */\n      0x20\n        /* \"#utility.yul\":9870:9873   */\n      dup3\n        /* \"#utility.yul\":9866:9878   */\n      add\n        /* \"#utility.yul\":9859:9878   */\n      swap1\n      pop\n        /* \"#utility.yul\":9518:9884   */\n      swap2\n      swap1\n      pop\n      jump\t// out\n        /* \"#utility.yul\":9890:10256   */\n    tag_362:\n        /* \"#utility.yul\":10032:10035   */\n      0x00\n        /* \"#utility.yul\":10053:10120   */\n      tag_364\n        /* \"#utility.yul\":10117:10119   */\n      0x20\n        /* \"#utility.yul\":10112:10115   */\n      dup4\n        /* \"#utility.yul\":10053:10120   */\n      tag_302\n      jump\t// in\n    tag_364:\n        /* \"#utility.yul\":10046:10120   */\n      swap2\n      pop\n        /* \"#utility.yul\":10129:10222   */\n      tag_365\n        /* \"#utility.yul\":10218:10221   */\n      dup3\n        /* \"#utility.yul\":10129:10222   */\n      tag_366\n      jump\t// in\n    tag_365:\n        /* \"#utility.yul\":10247:10249   */\n      0x20\n        /* \"#utility.yul\":10242:10245   */\n      dup3\n        /* \"#utility.yul\":10238:10250   */\n      add\n        /* \"#utility.yul\":10231:10250   */\n      swap1\n      pop\n        /* \"#utility.yul\":9890:10256   */\n      swap2\n      swap1\n      pop\n      jump\t// out\n        /* \"#utility.yul\":10262:10377   */\n    tag_367:\n        /* \"#utility.yul\":10347:10370   */\n      tag_369\n        /* \"#utility.yul\":10364:10369   */\n      dup2\n        /* \"#utility.yul\":10347:10370   */\n      tag_370\n      jump\t// in\n    tag_369:\n        /* \"#utility.yul\":10342:10345   */\n      dup3\n        /* \"#utility.yul\":10335:10371   */\n      mstore\n        /* \"#utility.yul\":10262:10377   */\n      pop\n      pop\n      jump\t// out\n        /* \"#utility.yul\":10383:10501   */\n    tag_371:\n        /* \"#utility.yul\":10470:10494   */\n      tag_373\n        /* \"#utility.yul\":10488:10493   */\n      dup2\n        /* \"#utility.yul\":10470:10494   */\n      tag_374\n      jump\t// in\n    tag_373:\n        /* \"#utility.yul\":10465:10468   */\n      dup3\n        /* \"#utility.yul\":10458:10495   */\n      mstore\n        /* \"#utility.yul\":10383:10501   */\n      pop\n      pop\n      jump\t// out\n        /* \"#utility.yul\":10507:10619   */\n    tag_375:\n        /* \"#utility.yul\":10590:10612   */\n      tag_377\n        /* \"#utility.yul\":10606:10611   */\n      dup2\n        /* \"#utility.yul\":10590:10612   */\n      tag_378\n      jump\t// in\n    tag_377:\n        /* \"#utility.yul\":10585:10588   */\n      dup3\n        /* \"#utility.yul\":10578:10613   */\n      mstore\n        /* \"#utility.yul\":10507:10619   */\n      pop\n      pop\n      jump\t// out\n        /* \"#utility.yul\":10625:11590   */\n    tag_124:\n        /* \"#utility.yul\":10902:10906   */\n      0x00\n        /* \"#utility.yul\":10940:10943   */\n      0xc0\n        /* \"#utility.yul\":10929:10938   */\n      dup3\n        /* \"#utility.yul\":10925:10944   */\n      add\n        /* \"#utility.yul\":10917:10944   */\n      swap1\n      pop\n        /* \"#utility.yul\":10954:11025   */\n      tag_380\n        /* \"#utility.yul\":11022:11023   */\n      0x00\n        /* \"#utility.yul\":11011:11020   */\n      dup4\n        /* \"#utility.yul\":11007:11024   */\n      add\n        /* \"#utility.yul\":10998:11004   */\n      dup10\n        /* \"#utility.yul\":10954:11025   */\n      tag_285\n      jump\t// in\n    tag_380:\n        /* \"#utility.yul\":11035:11107   */\n      tag_381\n        /* \"#utility.yul\":11103:11105   */\n      0x20\n        /* \"#utility.yul\":11092:11101   */\n      dup4\n        /* \"#utility.yul\":11088:11106   */\n      add\n        /* \"#utility.yul\":11079:11085   */\n      dup9\n        /* \"#utility.yul\":11035:11107   */\n      tag_285\n      jump\t// in\n    tag_381:\n        /* \"#utility.yul\":11154:11163   */\n      dup2\n        /* \"#utility.yul\":11148:11152   */\n      dup2\n        /* \"#utility.yul\":11144:11164   */\n      sub\n        /* \"#utility.yul\":11139:11141   */\n      0x40\n        /* \"#utility.yul\":11128:11137   */\n      dup4\n        /* \"#utility.yul\":11124:11142   */\n      add\n        /* \"#utility.yul\":11117:11165   */\n      mstore\n        /* \"#utility.yul\":11182:11260   */\n      tag_382\n        /* \"#utility.yul\":11255:11259   */\n      dup2\n        /* \"#utility.yul\":11246:11252   */\n      dup8\n        /* \"#utility.yul\":11182:11260   */\n      tag_297\n      jump\t// in\n    tag_382:\n        /* \"#utility.yul\":11174:11260   */\n      swap1\n      pop\n        /* \"#utility.yul\":11307:11316   */\n      dup2\n        /* \"#utility.yul\":11301:11305   */\n      dup2\n        /* \"#utility.yul\":11297:11317   */\n      sub\n        /* \"#utility.yul\":11292:11294   */\n      0x60\n        /* \"#utility.yul\":11281:11290   */\n      dup4\n        /* \"#utility.yul\":11277:11295   */\n      add\n        /* \"#utility.yul\":11270:11318   */\n      mstore\n        /* \"#utility.yul\":11335:11413   */\n      tag_383\n        /* \"#utility.yul\":11408:11412   */\n      dup2\n        /* \"#utility.yul\":11399:11405   */\n      dup7\n        /* \"#utility.yul\":11335:11413   */\n      tag_297\n      jump\t// in\n    tag_383:\n        /* \"#utility.yul\":11327:11413   */\n      swap1\n      pop\n        /* \"#utility.yul\":11423:11494   */\n      tag_384\n        /* \"#utility.yul\":11489:11492   */\n      0x80\n        /* \"#utility.yul\":11478:11487   */\n      dup4\n        /* \"#utility.yul\":11474:11493   */\n      add\n        /* \"#utility.yul\":11465:11471   */\n      dup6\n        /* \"#utility.yul\":11423:11494   */\n      tag_367\n      jump\t// in\n    tag_384:\n        /* \"#utility.yul\":11504:11583   */\n      tag_385\n        /* \"#utility.yul\":11578:11581   */\n      0xa0\n        /* \"#utility.yul\":11567:11576   */\n      dup4\n        /* \"#utility.yul\":11563:11582   */\n      add\n        /* \"#utility.yul\":11554:11560   */\n      dup5\n        /* \"#utility.yul\":11504:11583   */\n      tag_293\n      jump\t// in\n    tag_385:\n        /* \"#utility.yul\":10625:11590   */\n      swap8\n      swap7\n      pop\n      pop\n      pop\n      pop\n      pop\n      pop\n      pop\n      jump\t// out\n        /* \"#utility.yul\":11596:12232   */\n    tag_191:\n        /* \"#utility.yul\":11789:11793   */\n      0x00\n        /* \"#utility.yul\":11827:11830   */\n      0x80\n        /* \"#utility.yul\":11816:11825   */\n      dup3\n        /* \"#utility.yul\":11812:11831   */\n      add\n        /* \"#utility.yul\":11804:11831   */\n      swap1\n      pop\n        /* \"#utility.yul\":11841:11912   */\n      tag_387\n        /* \"#utility.yul\":11909:11910   */\n      0x00\n        /* \"#utility.yul\":11898:11907   */\n      dup4\n        /* \"#utility.yul\":11894:11911   */\n      add\n        /* \"#utility.yul\":11885:11891   */\n      dup8\n        /* \"#utility.yul\":11841:11912   */\n      tag_285\n      jump\t// in\n    tag_387:\n        /* \"#utility.yul\":11959:11968   */\n      dup2\n        /* \"#utility.yul\":11953:11957   */\n      dup2\n        /* \"#utility.yul\":11949:11969   */\n      sub\n        /* \"#utility.yul\":11944:11946   */\n      0x20\n        /* \"#utility.yul\":11933:11942   */\n      dup4\n        /* \"#utility.yul\":11929:11947   */\n      add\n        /* \"#utility.yul\":11922:11970   */\n      mstore\n        /* \"#utility.yul\":11987:12065   */\n      tag_388\n        /* \"#utility.yul\":12060:12064   */\n      dup2\n        /* \"#utility.yul\":12051:12057   */\n      dup7\n        /* \"#utility.yul\":11987:12065   */\n      tag_297\n      jump\t// in\n    tag_388:\n        /* \"#utility.yul\":11979:12065   */\n      swap1\n      pop\n        /* \"#utility.yul\":12075:12147   */\n      tag_389\n        /* \"#utility.yul\":12143:12145   */\n      0x40\n        /* \"#utility.yul\":12132:12141   */\n      dup4\n        /* \"#utility.yul\":12128:12146   */\n      add\n        /* \"#utility.yul\":12119:12125   */\n      dup6\n        /* \"#utility.yul\":12075:12147   */\n      tag_371\n      jump\t// in\n    tag_389:\n        /* \"#utility.yul\":12157:12225   */\n      tag_390\n        /* \"#utility.yul\":12221:12223   */\n      0x60\n        /* \"#utility.yul\":12210:12219   */\n      dup4\n        /* \"#utility.yul\":12206:12224   */\n      add\n        /* \"#utility.yul\":12197:12203   */\n      dup5\n        /* \"#utility.yul\":12157:12225   */\n      tag_375\n      jump\t// in\n    tag_390:\n        /* \"#utility.yul\":11596:12232   */\n      swap6\n      swap5\n      pop\n      pop\n      pop\n      pop\n      pop\n      jump\t// out\n        /* \"#utility.yul\":12238:12763   */\n    tag_93:\n        /* \"#utility.yul\":12403:12407   */\n      0x00\n        /* \"#utility.yul\":12441:12443   */\n      0x60\n        /* \"#utility.yul\":12430:12439   */\n      dup3\n        /* \"#utility.yul\":12426:12444   */\n      add\n        /* \"#utility.yul\":12418:12444   */\n      swap1\n      pop\n        /* \"#utility.yul\":12454:12525   */\n      tag_392\n        /* \"#utility.yul\":12522:12523   */\n      0x00\n        /* \"#utility.yul\":12511:12520   */\n      dup4\n        /* \"#utility.yul\":12507:12524   */\n      add\n        /* \"#utility.yul\":12498:12504   */\n      dup7\n        /* \"#utility.yul\":12454:12525   */\n      tag_285\n      jump\t// in\n    tag_392:\n        /* \"#utility.yul\":12572:12581   */\n      dup2\n        /* \"#utility.yul\":12566:12570   */\n      dup2\n        /* \"#utility.yul\":12562:12582   */\n      sub\n        /* \"#utility.yul\":12557:12559   */\n      0x20\n        /* \"#utility.yul\":12546:12555   */\n      dup4\n        /* \"#utility.yul\":12542:12560   */\n      add\n        /* \"#utility.yul\":12535:12583   */\n      mstore\n        /* \"#utility.yul\":12600:12678   */\n      tag_393\n        /* \"#utility.yul\":12673:12677   */\n      dup2\n        /* \"#utility.yul\":12664:12670   */\n      dup6\n        /* \"#utility.yul\":12600:12678   */\n      tag_297\n      jump\t// in\n    tag_393:\n        /* \"#utility.yul\":12592:12678   */\n      swap1\n      pop\n        /* \"#utility.yul\":12688:12756   */\n      tag_394\n        /* \"#utility.yul\":12752:12754   */\n      0x40\n        /* \"#utility.yul\":12741:12750   */\n      dup4\n        /* \"#utility.yul\":12737:12755   */\n      add\n        /* \"#utility.yul\":12728:12734   */\n      dup5\n        /* \"#utility.yul\":12688:12756   */\n      tag_375\n      jump\t// in\n    tag_394:\n        /* \"#utility.yul\":12238:12763   */\n      swap5\n      swap4\n      pop\n      pop\n      pop\n      pop\n      jump\t// out\n        /* \"#utility.yul\":12769:12979   */\n    tag_74:\n        /* \"#utility.yul\":12856:12860   */\n      0x00\n        /* \"#utility.yul\":12894:12896   */\n      0x20\n        /* \"#utility.yul\":12883:12892   */\n      dup3\n        /* \"#utility.yul\":12879:12897   */\n      add\n        /* \"#utility.yul\":12871:12897   */\n      swap1\n      pop\n        /* \"#utility.yul\":12907:12972   */\n      tag_396\n        /* \"#utility.yul\":12969:12970   */\n      0x00\n        /* \"#utility.yul\":12958:12967   */\n      dup4\n        /* \"#utility.yul\":12954:12971   */\n      add\n        /* \"#utility.yul\":12945:12951   */\n      dup5\n        /* \"#utility.yul\":12907:12972   */\n      tag_289\n      jump\t// in\n    tag_396:\n        /* \"#utility.yul\":12769:12979   */\n      swap3\n      swap2\n      pop\n      pop\n      jump\t// out\n        /* \"#utility.yul\":12985:13938   */\n    tag_69:\n        /* \"#utility.yul\":13256:13260   */\n      0x00\n        /* \"#utility.yul\":13294:13297   */\n      0xc0\n        /* \"#utility.yul\":13283:13292   */\n      dup3\n        /* \"#utility.yul\":13279:13298   */\n      add\n        /* \"#utility.yul\":13271:13298   */\n      swap1\n      pop\n        /* \"#utility.yul\":13308:13373   */\n      tag_398\n        /* \"#utility.yul\":13370:13371   */\n      0x00\n        /* \"#utility.yul\":13359:13368   */\n      dup4\n        /* \"#utility.yul\":13355:13372   */\n      add\n        /* \"#utility.yul\":13346:13352   */\n      dup10\n        /* \"#utility.yul\":13308:13373   */\n      tag_289\n      jump\t// in\n    tag_398:\n        /* \"#utility.yul\":13383:13455   */\n      tag_399\n        /* \"#utility.yul\":13451:13453   */\n      0x20\n        /* \"#utility.yul\":13440:13449   */\n      dup4\n        /* \"#utility.yul\":13436:13454   */\n      add\n        /* \"#utility.yul\":13427:13433   */\n      dup9\n        /* \"#utility.yul\":13383:13455   */\n      tag_285\n      jump\t// in\n    tag_399:\n        /* \"#utility.yul\":13465:13535   */\n      tag_400\n        /* \"#utility.yul\":13531:13533   */\n      0x40\n        /* \"#utility.yul\":13520:13529   */\n      dup4\n        /* \"#utility.yul\":13516:13534   */\n      add\n        /* \"#utility.yul\":13507:13513   */\n      dup8\n        /* \"#utility.yul\":13465:13535   */\n      tag_367\n      jump\t// in\n    tag_400:\n        /* \"#utility.yul\":13545:13623   */\n      tag_401\n        /* \"#utility.yul\":13619:13621   */\n      0x60\n        /* \"#utility.yul\":13608:13617   */\n      dup4\n        /* \"#utility.yul\":13604:13622   */\n      add\n        /* \"#utility.yul\":13595:13601   */\n      dup7\n        /* \"#utility.yul\":13545:13623   */\n      tag_293\n      jump\t// in\n    tag_401:\n        /* \"#utility.yul\":13671:13680   */\n      dup2\n        /* \"#utility.yul\":13665:13669   */\n      dup2\n        /* \"#utility.yul\":13661:13681   */\n      sub\n        /* \"#utility.yul\":13655:13658   */\n      0x80\n        /* \"#utility.yul\":13644:13653   */\n      dup4\n        /* \"#utility.yul\":13640:13659   */\n      add\n        /* \"#utility.yul\":13633:13682   */\n      mstore\n        /* \"#utility.yul\":13699:13777   */\n      tag_402\n        /* \"#utility.yul\":13772:13776   */\n      dup2\n        /* \"#utility.yul\":13763:13769   */\n      dup6\n        /* \"#utility.yul\":13699:13777   */\n      tag_297\n      jump\t// in\n    tag_402:\n        /* \"#utility.yul\":13691:13777   */\n      swap1\n      pop\n        /* \"#utility.yul\":13825:13834   */\n      dup2\n        /* \"#utility.yul\":13819:13823   */\n      dup2\n        /* \"#utility.yul\":13815:13835   */\n      sub\n        /* \"#utility.yul\":13809:13812   */\n      0xa0\n        /* \"#utility.yul\":13798:13807   */\n      dup4\n        /* \"#utility.yul\":13794:13813   */\n      add\n        /* \"#utility.yul\":13787:13836   */\n      mstore\n        /* \"#utility.yul\":13853:13931   */\n      tag_403\n        /* \"#utility.yul\":13926:13930   */\n      dup2\n        /* \"#utility.yul\":13917:13923   */\n      dup5\n        /* \"#utility.yul\":13853:13931   */\n      tag_297\n      jump\t// in\n    tag_403:\n        /* \"#utility.yul\":13845:13931   */\n      swap1\n      pop\n        /* \"#utility.yul\":12985:13938   */\n      swap8\n      swap7\n      pop\n      pop\n      pop\n      pop\n      pop\n      pop\n      pop\n      jump\t// out\n        /* \"#utility.yul\":13944:14457   */\n    tag_33:\n        /* \"#utility.yul\":14103:14107   */\n      0x00\n        /* \"#utility.yul\":14141:14143   */\n      0x60\n        /* \"#utility.yul\":14130:14139   */\n      dup3\n        /* \"#utility.yul\":14126:14144   */\n      add\n        /* \"#utility.yul\":14118:14144   */\n      swap1\n      pop\n        /* \"#utility.yul\":14154:14219   */\n      tag_405\n        /* \"#utility.yul\":14216:14217   */\n      0x00\n        /* \"#utility.yul\":14205:14214   */\n      dup4\n        /* \"#utility.yul\":14201:14218   */\n      add\n        /* \"#utility.yul\":14192:14198   */\n      dup7\n        /* \"#utility.yul\":14154:14219   */\n      tag_289\n      jump\t// in\n    tag_405:\n        /* \"#utility.yul\":14266:14275   */\n      dup2\n        /* \"#utility.yul\":14260:14264   */\n      dup2\n        /* \"#utility.yul\":14256:14276   */\n      sub\n        /* \"#utility.yul\":14251:14253   */\n      0x20\n        /* \"#utility.yul\":14240:14249   */\n      dup4\n        /* \"#utility.yul\":14236:14254   */\n      add\n        /* \"#utility.yul\":14229:14277   */\n      mstore\n        /* \"#utility.yul\":14294:14372   */\n      tag_406\n        /* \"#utility.yul\":14367:14371   */\n      dup2\n        /* \"#utility.yul\":14358:14364   */\n      dup6\n        /* \"#utility.yul\":14294:14372   */\n      tag_297\n      jump\t// in\n    tag_406:\n        /* \"#utility.yul\":14286:14372   */\n      swap1\n      pop\n        /* \"#utility.yul\":14382:14450   */\n      tag_407\n        /* \"#utility.yul\":14446:14448   */\n      0x40\n        /* \"#utility.yul\":14435:14444   */\n      dup4\n        /* \"#utility.yul\":14431:14449   */\n      add\n        /* \"#utility.yul\":14422:14428   */\n      dup5\n        /* \"#utility.yul\":14382:14450   */\n      tag_375\n      jump\t// in\n    tag_407:\n        /* \"#utility.yul\":13944:14457   */\n      swap5\n      swap4\n      pop\n      pop\n      pop\n      pop\n      jump\t// out\n        /* \"#utility.yul\":14463:15087   */\n    tag_50:\n        /* \"#utility.yul\":14650:14654   */\n      0x00\n        /* \"#utility.yul\":14688:14691   */\n      0x80\n        /* \"#utility.yul\":14677:14686   */\n      dup3\n        /* \"#utility.yul\":14673:14692   */\n      add\n        /* \"#utility.yul\":14665:14692   */\n      swap1\n      pop\n        /* \"#utility.yul\":14702:14767   */\n      tag_409\n        /* \"#utility.yul\":14764:14765   */\n      0x00\n        /* \"#utility.yul\":14753:14762   */\n      dup4\n        /* \"#utility.yul\":14749:14766   */\n      add\n        /* \"#utility.yul\":14740:14746   */\n      dup8\n        /* \"#utility.yul\":14702:14767   */\n      tag_289\n      jump\t// in\n    tag_409:\n        /* \"#utility.yul\":14777:14845   */\n      tag_410\n        /* \"#utility.yul\":14841:14843   */\n      0x20\n        /* \"#utility.yul\":14830:14839   */\n      dup4\n        /* \"#utility.yul\":14826:14844   */\n      add\n        /* \"#utility.yul\":14817:14823   */\n      dup7\n        /* \"#utility.yul\":14777:14845   */\n      tag_375\n      jump\t// in\n    tag_410:\n        /* \"#utility.yul\":14855:14927   */\n      tag_411\n        /* \"#utility.yul\":14923:14925   */\n      0x40\n        /* \"#utility.yul\":14912:14921   */\n      dup4\n        /* \"#utility.yul\":14908:14926   */\n      add\n        /* \"#utility.yul\":14899:14905   */\n      dup6\n        /* \"#utility.yul\":14855:14927   */\n      tag_371\n      jump\t// in\n    tag_411:\n        /* \"#utility.yul\":14974:14983   */\n      dup2\n        /* \"#utility.yul\":14968:14972   */\n      dup2\n        /* \"#utility.yul\":14964:14984   */\n      sub\n        /* \"#utility.yul\":14959:14961   */\n      0x60\n        /* \"#utility.yul\":14948:14957   */\n      dup4\n        /* \"#utility.yul\":14944:14962   */\n      add\n        /* \"#utility.yul\":14937:14985   */\n      mstore\n        /* \"#utility.yul\":15002:15080   */\n      tag_412\n        /* \"#utility.yul\":15075:15079   */\n      dup2\n        /* \"#utility.yul\":15066:15072   */\n      dup5\n        /* \"#utility.yul\":15002:15080   */\n      tag_297\n      jump\t// in\n    tag_412:\n        /* \"#utility.yul\":14994:15080   */\n      swap1\n      pop\n        /* \"#utility.yul\":14463:15087   */\n      swap6\n      swap5\n      pop\n      pop\n      pop\n      pop\n      pop\n      jump\t// out\n        /* \"#utility.yul\":15093:15512   */\n    tag_85:\n        /* \"#utility.yul\":15259:15263   */\n      0x00\n        /* \"#utility.yul\":15297:15299   */\n      0x20\n        /* \"#utility.yul\":15286:15295   */\n      dup3\n        /* \"#utility.yul\":15282:15300   */\n      add\n        /* \"#utility.yul\":15274:15300   */\n      swap1\n      pop\n        /* \"#utility.yul\":15346:15355   */\n      dup2\n        /* \"#utility.yul\":15340:15344   */\n      dup2\n        /* \"#utility.yul\":15336:15356   */\n      sub\n        /* \"#utility.yul\":15332:15333   */\n      0x00\n        /* \"#utility.yul\":15321:15330   */\n      dup4\n        /* \"#utility.yul\":15317:15334   */\n      add\n        /* \"#utility.yul\":15310:15357   */\n      mstore\n        /* \"#utility.yul\":15374:15505   */\n      tag_414\n        /* \"#utility.yul\":15500:15504   */\n      dup2\n        /* \"#utility.yul\":15374:15505   */\n      tag_307\n      jump\t// in\n    tag_414:\n        /* \"#utility.yul\":15366:15505   */\n      swap1\n      pop\n        /* \"#utility.yul\":15093:15512   */\n      swap2\n      swap1\n      pop\n      jump\t// out\n        /* \"#utility.yul\":15518:15937   */\n    tag_149:\n        /* \"#utility.yul\":15684:15688   */\n      0x00\n        /* \"#utility.yul\":15722:15724   */\n      0x20\n        /* \"#utility.yul\":15711:15720   */\n      dup3\n        /* \"#utility.yul\":15707:15725   */\n      add\n        /* \"#utility.yul\":15699:15725   */\n      swap1\n      pop\n        /* \"#utility.yul\":15771:15780   */\n      dup2\n        /* \"#utility.yul\":15765:15769   */\n      dup2\n        /* \"#utility.yul\":15761:15781   */\n      sub\n        /* \"#utility.yul\":15757:15758   */\n      0x00\n        /* \"#utility.yul\":15746:15755   */\n      dup4\n        /* \"#utility.yul\":15742:15759   */\n      add\n        /* \"#utility.yul\":15735:15782   */\n      mstore\n        /* \"#utility.yul\":15799:15930   */\n      tag_416\n        /* \"#utility.yul\":15925:15929   */\n      dup2\n        /* \"#utility.yul\":15799:15930   */\n      tag_312\n      jump\t// in\n    tag_416:\n        /* \"#utility.yul\":15791:15930   */\n      swap1\n      pop\n        /* \"#utility.yul\":15518:15937   */\n      swap2\n      swap1\n      pop\n      jump\t// out\n        /* \"#utility.yul\":15943:16362   */\n    tag_188:\n        /* \"#utility.yul\":16109:16113   */\n      0x00\n        /* \"#utility.yul\":16147:16149   */\n      0x20\n        /* \"#utility.yul\":16136:16145   */\n      dup3\n        /* \"#utility.yul\":16132:16150   */\n      add\n        /* \"#utility.yul\":16124:16150   */\n      swap1\n      pop\n        /* \"#utility.yul\":16196:16205   */\n      dup2\n        /* \"#utility.yul\":16190:16194   */\n      dup2\n        /* \"#utility.yul\":16186:16206   */\n      sub\n        /* \"#utility.yul\":16182:16183   */\n      0x00\n        /* \"#utility.yul\":16171:16180   */\n      dup4\n        /* \"#utility.yul\":16167:16184   */\n      add\n        /* \"#utility.yul\":16160:16207   */\n      mstore\n        /* \"#utility.yul\":16224:16355   */\n      tag_418\n        /* \"#utility.yul\":16350:16354   */\n      dup2\n        /* \"#utility.yul\":16224:16355   */\n      tag_317\n      jump\t// in\n    tag_418:\n        /* \"#utility.yul\":16216:16355   */\n      swap1\n      pop\n        /* \"#utility.yul\":15943:16362   */\n      swap2\n      swap1\n      pop\n      jump\t// out\n        /* \"#utility.yul\":16368:16787   */\n    tag_97:\n        /* \"#utility.yul\":16534:16538   */\n      0x00\n        /* \"#utility.yul\":16572:16574   */\n      0x20\n        /* \"#utility.yul\":16561:16570   */\n      dup3\n        /* \"#utility.yul\":16557:16575   */\n      add\n        /* \"#utility.yul\":16549:16575   */\n      swap1\n      pop\n        /* \"#utility.yul\":16621:16630   */\n      dup2\n        /* \"#utility.yul\":16615:16619   */\n      dup2\n        /* \"#utility.yul\":16611:16631   */\n      sub\n        /* \"#utility.yul\":16607:16608   */\n      0x00\n        /* \"#utility.yul\":16596:16605   */\n      dup4\n        /* \"#utility.yul\":16592:16609   */\n      add\n        /* \"#utility.yul\":16585:16632   */\n      mstore\n        /* \"#utility.yul\":16649:16780   */\n      tag_420\n        /* \"#utility.yul\":16775:16779   */\n      dup2\n        /* \"#utility.yul\":16649:16780   */\n      tag_322\n      jump\t// in\n    tag_420:\n        /* \"#utility.yul\":16641:16780   */\n      swap1\n      pop\n        /* \"#utility.yul\":16368:16787   */\n      swap2\n      swap1\n      pop\n      jump\t// out\n        /* \"#utility.yul\":16793:17212   */\n    tag_169:\n        /* \"#utility.yul\":16959:16963   */\n      0x00\n        /* \"#utility.yul\":16997:16999   */\n      0x20\n        /* \"#utility.yul\":16986:16995   */\n      dup3\n        /* \"#utility.yul\":16982:17000   */\n      add\n        /* \"#utility.yul\":16974:17000   */\n      swap1\n      pop\n        /* \"#utility.yul\":17046:17055   */\n      dup2\n        /* \"#utility.yul\":17040:17044   */\n      dup2\n        /* \"#utility.yul\":17036:17056   */\n      sub\n        /* \"#utility.yul\":17032:17033   */\n      0x00\n        /* \"#utility.yul\":17021:17030   */\n      dup4\n        /* \"#utility.yul\":17017:17034   */\n      add\n        /* \"#utility.yul\":17010:17057   */\n      mstore\n        /* \"#utility.yul\":17074:17205   */\n      tag_422\n        /* \"#utility.yul\":17200:17204   */\n      dup2\n        /* \"#utility.yul\":17074:17205   */\n      tag_327\n      jump\t// in\n    tag_422:\n        /* \"#utility.yul\":17066:17205   */\n      swap1\n      pop\n        /* \"#utility.yul\":16793:17212   */\n      swap2\n      swap1\n      pop\n      jump\t// out\n        /* \"#utility.yul\":17218:17637   */\n    tag_101:\n        /* \"#utility.yul\":17384:17388   */\n      0x00\n        /* \"#utility.yul\":17422:17424   */\n      0x20\n        /* \"#utility.yul\":17411:17420   */\n      dup3\n        /* \"#utility.yul\":17407:17425   */\n      add\n        /* \"#utility.yul\":17399:17425   */\n      swap1\n      pop\n        /* \"#utility.yul\":17471:17480   */\n      dup2\n        /* \"#utility.yul\":17465:17469   */\n      dup2\n        /* \"#utility.yul\":17461:17481   */\n      sub\n        /* \"#utility.yul\":17457:17458   */\n      0x00\n        /* \"#utility.yul\":17446:17455   */\n      dup4\n        /* \"#utility.yul\":17442:17459   */\n      add\n        /* \"#utility.yul\":17435:17482   */\n      mstore\n        /* \"#utility.yul\":17499:17630   */\n      tag_424\n        /* \"#utility.yul\":17625:17629   */\n      dup2\n        /* \"#utility.yul\":17499:17630   */\n      tag_332\n      jump\t// in\n    tag_424:\n        /* \"#utility.yul\":17491:17630   */\n      swap1\n      pop\n        /* \"#utility.yul\":17218:17637   */\n      swap2\n      swap1\n      pop\n      jump\t// out\n        /* \"#utility.yul\":17643:18062   */\n    tag_89:\n        /* \"#utility.yul\":17809:17813   */\n      0x00\n        /* \"#utility.yul\":17847:17849   */\n      0x20\n        /* \"#utility.yul\":17836:17845   */\n      dup3\n        /* \"#utility.yul\":17832:17850   */\n      add\n        /* \"#utility.yul\":17824:17850   */\n      swap1\n      pop\n        /* \"#utility.yul\":17896:17905   */\n      dup2\n        /* \"#utility.yul\":17890:17894   */\n      dup2\n        /* \"#utility.yul\":17886:17906   */\n      sub\n        /* \"#utility.yul\":17882:17883   */\n      0x00\n        /* \"#utility.yul\":17871:17880   */\n      dup4\n        /* \"#utility.yul\":17867:17884   */\n      add\n        /* \"#utility.yul\":17860:17907   */\n      mstore\n        /* \"#utility.yul\":17924:18055   */\n      tag_426\n        /* \"#utility.yul\":18050:18054   */\n      dup2\n        /* \"#utility.yul\":17924:18055   */\n      tag_337\n      jump\t// in\n    tag_426:\n        /* \"#utility.yul\":17916:18055   */\n      swap1\n      pop\n        /* \"#utility.yul\":17643:18062   */\n      swap2\n      swap1\n      pop\n      jump\t// out\n        /* \"#utility.yul\":18068:18487   */\n    tag_113:\n        /* \"#utility.yul\":18234:18238   */\n      0x00\n        /* \"#utility.yul\":18272:18274   */\n      0x20\n        /* \"#utility.yul\":18261:18270   */\n      dup3\n        /* \"#utility.yul\":18257:18275   */\n      add\n        /* \"#utility.yul\":18249:18275   */\n      swap1\n      pop\n        /* \"#utility.yul\":18321:18330   */\n      dup2\n        /* \"#utility.yul\":18315:18319   */\n      dup2\n        /* \"#utility.yul\":18311:18331   */\n      sub\n        /* \"#utility.yul\":18307:18308   */\n      0x00\n        /* \"#utility.yul\":18296:18305   */\n      dup4\n        /* \"#utility.yul\":18292:18309   */\n      add\n        /* \"#utility.yul\":18285:18332   */\n      mstore\n        /* \"#utility.yul\":18349:18480   */\n      tag_428\n        /* \"#utility.yul\":18475:18479   */\n      dup2\n        /* \"#utility.yul\":18349:18480   */\n      tag_342\n      jump\t// in\n    tag_428:\n        /* \"#utility.yul\":18341:18480   */\n      swap1\n      pop\n        /* \"#utility.yul\":18068:18487   */\n      swap2\n      swap1\n      pop\n      jump\t// out\n        /* \"#utility.yul\":18493:18912   */\n    tag_117:\n        /* \"#utility.yul\":18659:18663   */\n      0x00\n        /* \"#utility.yul\":18697:18699   */\n      0x20\n        /* \"#utility.yul\":18686:18695   */\n      dup3\n        /* \"#utility.yul\":18682:18700   */\n      add\n        /* \"#utility.yul\":18674:18700   */\n      swap1\n      pop\n        /* \"#utility.yul\":18746:18755   */\n      dup2\n        /* \"#utility.yul\":18740:18744   */\n      dup2\n        /* \"#utility.yul\":18736:18756   */\n      sub\n        /* \"#utility.yul\":18732:18733   */\n      0x00\n        /* \"#utility.yul\":18721:18730   */\n      dup4\n        /* \"#utility.yul\":18717:18734   */\n      add\n        /* \"#utility.yul\":18710:18757   */\n      mstore\n        /* \"#utility.yul\":18774:18905   */\n      tag_430\n        /* \"#utility.yul\":18900:18904   */\n      dup2\n        /* \"#utility.yul\":18774:18905   */\n      tag_347\n      jump\t// in\n    tag_430:\n        /* \"#utility.yul\":18766:18905   */\n      swap1\n      pop\n        /* \"#utility.yul\":18493:18912   */\n      swap2\n      swap1\n      pop\n      jump\t// out\n        /* \"#utility.yul\":18918:19337   */\n    tag_198:\n        /* \"#utility.yul\":19084:19088   */\n      0x00\n        /* \"#utility.yul\":19122:19124   */\n      0x20\n        /* \"#utility.yul\":19111:19120   */\n      dup3\n        /* \"#utility.yul\":19107:19125   */\n      add\n        /* \"#utility.yul\":19099:19125   */\n      swap1\n      pop\n        /* \"#utility.yul\":19171:19180   */\n      dup2\n        /* \"#utility.yul\":19165:19169   */\n      dup2\n        /* \"#utility.yul\":19161:19181   */\n      sub\n        /* \"#utility.yul\":19157:19158   */\n      0x00\n        /* \"#utility.yul\":19146:19155   */\n      dup4\n        /* \"#utility.yul\":19142:19159   */\n      add\n        /* \"#utility.yul\":19135:19182   */\n      mstore\n        /* \"#utility.yul\":19199:19330   */\n      tag_432\n        /* \"#utility.yul\":19325:19329   */\n      dup2\n        /* \"#utility.yul\":19199:19330   */\n      tag_352\n      jump\t// in\n    tag_432:\n        /* \"#utility.yul\":19191:19330   */\n      swap1\n      pop\n        /* \"#utility.yul\":18918:19337   */\n      swap2\n      swap1\n      pop\n      jump\t// out\n        /* \"#utility.yul\":19343:19762   */\n    tag_165:\n        /* \"#utility.yul\":19509:19513   */\n      0x00\n        /* \"#utility.yul\":19547:19549   */\n      0x20\n        /* \"#utility.yul\":19536:19545   */\n      dup3\n        /* \"#utility.yul\":19532:19550   */\n      add\n        /* \"#utility.yul\":19524:19550   */\n      swap1\n      pop\n        /* \"#utility.yul\":19596:19605   */\n      dup2\n        /* \"#utility.yul\":19590:19594   */\n      dup2\n        /* \"#utility.yul\":19586:19606   */\n      sub\n        /* \"#utility.yul\":19582:19583   */\n      0x00\n        /* \"#utility.yul\":19571:19580   */\n      dup4\n        /* \"#utility.yul\":19567:19584   */\n      add\n        /* \"#utility.yul\":19560:19607   */\n      mstore\n        /* \"#utility.yul\":19624:19755   */\n      tag_434\n        /* \"#utility.yul\":19750:19754   */\n      dup2\n        /* \"#utility.yul\":19624:19755   */\n      tag_357\n      jump\t// in\n    tag_434:\n        /* \"#utility.yul\":19616:19755   */\n      swap1\n      pop\n        /* \"#utility.yul\":19343:19762   */\n      swap2\n      swap1\n      pop\n      jump\t// out\n        /* \"#utility.yul\":19768:20187   */\n    tag_145:\n        /* \"#utility.yul\":19934:19938   */\n      0x00\n        /* \"#utility.yul\":19972:19974   */\n      0x20\n        /* \"#utility.yul\":19961:19970   */\n      dup3\n        /* \"#utility.yul\":19957:19975   */\n      add\n        /* \"#utility.yul\":19949:19975   */\n      swap1\n      pop\n        /* \"#utility.yul\":20021:20030   */\n      dup2\n        /* \"#utility.yul\":20015:20019   */\n      dup2\n        /* \"#utility.yul\":20011:20031   */\n      sub\n        /* \"#utility.yul\":20007:20008   */\n      0x00\n        /* \"#utility.yul\":19996:20005   */\n      dup4\n        /* \"#utility.yul\":19992:20009   */\n      add\n        /* \"#utility.yul\":19985:20032   */\n      mstore\n        /* \"#utility.yul\":20049:20180   */\n      tag_436\n        /* \"#utility.yul\":20175:20179   */\n      dup2\n        /* \"#utility.yul\":20049:20180   */\n      tag_362\n      jump\t// in\n    tag_436:\n        /* \"#utility.yul\":20041:20180   */\n      swap1\n      pop\n        /* \"#utility.yul\":19768:20187   */\n      swap2\n      swap1\n      pop\n      jump\t// out\n        /* \"#utility.yul\":20193:20322   */\n    tag_217:\n        /* \"#utility.yul\":20227:20233   */\n      0x00\n        /* \"#utility.yul\":20254:20274   */\n      tag_438\n      tag_439\n      jump\t// in\n    tag_438:\n        /* \"#utility.yul\":20244:20274   */\n      swap1\n      pop\n        /* \"#utility.yul\":20283:20316   */\n      tag_440\n        /* \"#utility.yul\":20311:20315   */\n      dup3\n        /* \"#utility.yul\":20303:20309   */\n      dup3\n        /* \"#utility.yul\":20283:20316   */\n      tag_441\n      jump\t// in\n    tag_440:\n        /* \"#utility.yul\":20193:20322   */\n      swap2\n      swap1\n      pop\n      jump\t// out\n        /* \"#utility.yul\":20328:20403   */\n    tag_439:\n        /* \"#utility.yul\":20361:20367   */\n      0x00\n        /* \"#utility.yul\":20394:20396   */\n      0x40\n        /* \"#utility.yul\":20388:20397   */\n      mload\n        /* \"#utility.yul\":20378:20397   */\n      swap1\n      pop\n        /* \"#utility.yul\":20328:20403   */\n      swap1\n      jump\t// out\n        /* \"#utility.yul\":20409:20717   */\n    tag_216:\n        /* \"#utility.yul\":20471:20475   */\n      0x00\n        /* \"#utility.yul\":20561:20579   */\n      0xffffffffffffffff\n        /* \"#utility.yul\":20553:20559   */\n      dup3\n        /* \"#utility.yul\":20550:20580   */\n      gt\n        /* \"#utility.yul\":20547:20603   */\n      iszero\n      tag_444\n      jumpi\n        /* \"#utility.yul\":20583:20601   */\n      tag_445\n      tag_446\n      jump\t// in\n    tag_445:\n        /* \"#utility.yul\":20547:20603   */\n    tag_444:\n        /* \"#utility.yul\":20621:20650   */\n      tag_447\n        /* \"#utility.yul\":20643:20649   */\n      dup3\n        /* \"#utility.yul\":20621:20650   */\n      tag_306\n      jump\t// in\n    tag_447:\n        /* \"#utility.yul\":20613:20650   */\n      swap1\n      pop\n        /* \"#utility.yul\":20705:20709   */\n      0x20\n        /* \"#utility.yul\":20699:20703   */\n      dup2\n        /* \"#utility.yul\":20695:20710   */\n      add\n        /* \"#utility.yul\":20687:20710   */\n      swap1\n      pop\n        /* \"#utility.yul\":20409:20717   */\n      swap2\n      swap1\n      pop\n      jump\t// out\n        /* \"#utility.yul\":20723:20822   */\n    tag_300:\n        /* \"#utility.yul\":20775:20781   */\n      0x00\n        /* \"#utility.yul\":20809:20814   */\n      dup2\n        /* \"#utility.yul\":20803:20815   */\n      mload\n        /* \"#utility.yul\":20793:20815   */\n      swap1\n      pop\n        /* \"#utility.yul\":20723:20822   */\n      swap2\n      swap1\n      pop\n      jump\t// out\n        /* \"#utility.yul\":20828:20997   */\n    tag_302:\n        /* \"#utility.yul\":20912:20923   */\n      0x00\n        /* \"#utility.yul\":20946:20952   */\n      dup3\n        /* \"#utility.yul\":20941:20944   */\n      dup3\n        /* \"#utility.yul\":20934:20953   */\n      mstore\n        /* \"#utility.yul\":20986:20990   */\n      0x20\n        /* \"#utility.yul\":20981:20984   */\n      dup3\n        /* \"#utility.yul\":20977:20991   */\n      add\n        /* \"#utility.yul\":20962:20991   */\n      swap1\n      pop\n        /* \"#utility.yul\":20828:20997   */\n      swap3\n      swap2\n      pop\n      pop\n      jump\t// out\n        /* \"#utility.yul\":21003:21099   */\n    tag_288:\n        /* \"#utility.yul\":21040:21047   */\n      0x00\n        /* \"#utility.yul\":21069:21093   */\n      tag_451\n        /* \"#utility.yul\":21087:21092   */\n      dup3\n        /* \"#utility.yul\":21069:21093   */\n      tag_452\n      jump\t// in\n    tag_451:\n        /* \"#utility.yul\":21058:21093   */\n      swap1\n      pop\n        /* \"#utility.yul\":21003:21099   */\n      swap2\n      swap1\n      pop\n      jump\t// out\n        /* \"#utility.yul\":21105:21195   */\n    tag_292:\n        /* \"#utility.yul\":21139:21146   */\n      0x00\n        /* \"#utility.yul\":21182:21187   */\n      dup2\n        /* \"#utility.yul\":21175:21188   */\n      iszero\n        /* \"#utility.yul\":21168:21189   */\n      iszero\n        /* \"#utility.yul\":21157:21189   */\n      swap1\n      pop\n        /* \"#utility.yul\":21105:21195   */\n      swap2\n      swap1\n      pop\n      jump\t// out\n        /* \"#utility.yul\":21201:21328   */\n    tag_454:\n        /* \"#utility.yul\":21246:21253   */\n      0x00\n        /* \"#utility.yul\":21275:21280   */\n      dup2\n        /* \"#utility.yul\":21264:21280   */\n      swap1\n      pop\n        /* \"#utility.yul\":21281:21322   */\n      tag_456\n        /* \"#utility.yul\":21316:21321   */\n      dup3\n        /* \"#utility.yul\":21281:21322   */\n      tag_457\n      jump\t// in\n    tag_456:\n        /* \"#utility.yul\":21201:21328   */\n      swap2\n      swap1\n      pop\n      jump\t// out\n        /* \"#utility.yul\":21334:21423   */\n    tag_370:\n        /* \"#utility.yul\":21370:21377   */\n      0x00\n        /* \"#utility.yul\":21410:21416   */\n      0xffff\n        /* \"#utility.yul\":21403:21408   */\n      dup3\n        /* \"#utility.yul\":21399:21417   */\n      and\n        /* \"#utility.yul\":21388:21417   */\n      swap1\n      pop\n        /* \"#utility.yul\":21334:21423   */\n      swap2\n      swap1\n      pop\n      jump\t// out\n        /* \"#utility.yul\":21429:21555   */\n    tag_452:\n        /* \"#utility.yul\":21466:21473   */\n      0x00\n        /* \"#utility.yul\":21506:21548   */\n      0xffffffffffffffffffffffffffffffffffffffff\n        /* \"#utility.yul\":21499:21504   */\n      dup3\n        /* \"#utility.yul\":21495:21549   */\n      and\n        /* \"#utility.yul\":21484:21549   */\n      swap1\n      pop\n        /* \"#utility.yul\":21429:21555   */\n      swap2\n      swap1\n      pop\n      jump\t// out\n        /* \"#utility.yul\":21561:21638   */\n    tag_374:\n        /* \"#utility.yul\":21598:21605   */\n      0x00\n        /* \"#utility.yul\":21627:21632   */\n      dup2\n        /* \"#utility.yul\":21616:21632   */\n      swap1\n      pop\n        /* \"#utility.yul\":21561:21638   */\n      swap2\n      swap1\n      pop\n      jump\t// out\n        /* \"#utility.yul\":21644:21730   */\n    tag_378:\n        /* \"#utility.yul\":21679:21686   */\n      0x00\n        /* \"#utility.yul\":21719:21723   */\n      0xff\n        /* \"#utility.yul\":21712:21717   */\n      dup3\n        /* \"#utility.yul\":21708:21724   */\n      and\n        /* \"#utility.yul\":21697:21724   */\n      swap1\n      pop\n        /* \"#utility.yul\":21644:21730   */\n      swap2\n      swap1\n      pop\n      jump\t// out\n        /* \"#utility.yul\":21736:21863   */\n    tag_296:\n        /* \"#utility.yul\":21792:21801   */\n      0x00\n        /* \"#utility.yul\":21825:21857   */\n      tag_463\n        /* \"#utility.yul\":21851:21856   */\n      dup3\n        /* \"#utility.yul\":21825:21857   */\n      tag_454\n      jump\t// in\n    tag_463:\n        /* \"#utility.yul\":21812:21857   */\n      swap1\n      pop\n        /* \"#utility.yul\":21736:21863   */\n      swap2\n      swap1\n      pop\n      jump\t// out\n        /* \"#utility.yul\":21869:22023   */\n    tag_222:\n        /* \"#utility.yul\":21953:21959   */\n      dup3\n        /* \"#utility.yul\":21948:21951   */\n      dup2\n        /* \"#utility.yul\":21943:21946   */\n      dup4\n        /* \"#utility.yul\":21930:21960   */\n      calldatacopy\n        /* \"#utility.yul\":22015:22016   */\n      0x00\n        /* \"#utility.yul\":22006:22012   */\n      dup4\n        /* \"#utility.yul\":22001:22004   */\n      dup4\n        /* \"#utility.yul\":21997:22013   */\n      add\n        /* \"#utility.yul\":21990:22017   */\n      mstore\n        /* \"#utility.yul\":21869:22023   */\n      pop\n      pop\n      pop\n      jump\t// out\n        /* \"#utility.yul\":22029:22336   */\n    tag_304:\n        /* \"#utility.yul\":22097:22098   */\n      0x00\n        /* \"#utility.yul\":22107:22220   */\n    tag_466:\n        /* \"#utility.yul\":22121:22127   */\n      dup4\n        /* \"#utility.yul\":22118:22119   */\n      dup2\n        /* \"#utility.yul\":22115:22128   */\n      lt\n        /* \"#utility.yul\":22107:22220   */\n      iszero\n      tag_468\n      jumpi\n        /* \"#utility.yul\":22206:22207   */\n      dup1\n        /* \"#utility.yul\":22201:22204   */\n      dup3\n        /* \"#utility.yul\":22197:22208   */\n      add\n        /* \"#utility.yul\":22191:22209   */\n      mload\n        /* \"#utility.yul\":22187:22188   */\n      dup2\n        /* \"#utility.yul\":22182:22185   */\n      dup5\n        /* \"#utility.yul\":22178:22189   */\n      add\n        /* \"#utility.yul\":22171:22210   */\n      mstore\n        /* \"#utility.yul\":22143:22145   */\n      0x20\n        /* \"#utility.yul\":22140:22141   */\n      dup2\n        /* \"#utility.yul\":22136:22146   */\n      add\n        /* \"#utility.yul\":22131:22146   */\n      swap1\n      pop\n        /* \"#utility.yul\":22107:22220   */\n      jump(tag_466)\n    tag_468:\n        /* \"#utility.yul\":22238:22244   */\n      dup4\n        /* \"#utility.yul\":22235:22236   */\n      dup2\n        /* \"#utility.yul\":22232:22245   */\n      gt\n        /* \"#utility.yul\":22229:22330   */\n      iszero\n      tag_469\n      jumpi\n        /* \"#utility.yul\":22318:22319   */\n      0x00\n        /* \"#utility.yul\":22309:22315   */\n      dup5\n        /* \"#utility.yul\":22304:22307   */\n      dup5\n        /* \"#utility.yul\":22300:22316   */\n      add\n        /* \"#utility.yul\":22293:22320   */\n      mstore\n        /* \"#utility.yul\":22229:22330   */\n    tag_469:\n        /* \"#utility.yul\":22078:22336   */\n      pop\n        /* \"#utility.yul\":22029:22336   */\n      pop\n      pop\n      pop\n      jump\t// out\n        /* \"#utility.yul\":22342:22662   */\n    tag_105:\n        /* \"#utility.yul\":22386:22392   */\n      0x00\n        /* \"#utility.yul\":22423:22424   */\n      0x02\n        /* \"#utility.yul\":22417:22421   */\n      dup3\n        /* \"#utility.yul\":22413:22425   */\n      div\n        /* \"#utility.yul\":22403:22425   */\n      swap1\n      pop\n        /* \"#utility.yul\":22470:22471   */\n      0x01\n        /* \"#utility.yul\":22464:22468   */\n      dup3\n        /* \"#utility.yul\":22460:22472   */\n      and\n        /* \"#utility.yul\":22491:22509   */\n      dup1\n        /* \"#utility.yul\":22481:22562   */\n      tag_471\n      jumpi\n        /* \"#utility.yul\":22547:22551   */\n      0x7f\n        /* \"#utility.yul\":22539:22545   */\n      dup3\n        /* \"#utility.yul\":22535:22552   */\n      and\n        /* \"#utility.yul\":22525:22552   */\n      swap2\n      pop\n        /* \"#utility.yul\":22481:22562   */\n    tag_471:\n        /* \"#utility.yul\":22609:22611   */\n      0x20\n        /* \"#utility.yul\":22601:22607   */\n      dup3\n        /* \"#utility.yul\":22598:22612   */\n      lt\n        /* \"#utility.yul\":22578:22596   */\n      dup2\n        /* \"#utility.yul\":22575:22613   */\n      eq\n        /* \"#utility.yul\":22572:22656   */\n      iszero\n      tag_472\n      jumpi\n        /* \"#utility.yul\":22628:22646   */\n      tag_473\n      tag_474\n      jump\t// in\n    tag_473:\n        /* \"#utility.yul\":22572:22656   */\n    tag_472:\n        /* \"#utility.yul\":22393:22662   */\n      pop\n        /* \"#utility.yul\":22342:22662   */\n      swap2\n      swap1\n      pop\n      jump\t// out\n        /* \"#utility.yul\":22668:22949   */\n    tag_441:\n        /* \"#utility.yul\":22751:22778   */\n      tag_476\n        /* \"#utility.yul\":22773:22777   */\n      dup3\n        /* \"#utility.yul\":22751:22778   */\n      tag_306\n      jump\t// in\n    tag_476:\n        /* \"#utility.yul\":22743:22749   */\n      dup2\n        /* \"#utility.yul\":22739:22779   */\n      add\n        /* \"#utility.yul\":22881:22887   */\n      dup2\n        /* \"#utility.yul\":22869:22879   */\n      dup2\n        /* \"#utility.yul\":22866:22888   */\n      lt\n        /* \"#utility.yul\":22845:22863   */\n      0xffffffffffffffff\n        /* \"#utility.yul\":22833:22843   */\n      dup3\n        /* \"#utility.yul\":22830:22864   */\n      gt\n        /* \"#utility.yul\":22827:22889   */\n      or\n        /* \"#utility.yul\":22824:22912   */\n      iszero\n      tag_477\n      jumpi\n        /* \"#utility.yul\":22892:22910   */\n      tag_478\n      tag_446\n      jump\t// in\n    tag_478:\n        /* \"#utility.yul\":22824:22912   */\n    tag_477:\n        /* \"#utility.yul\":22932:22942   */\n      dup1\n        /* \"#utility.yul\":22928:22930   */\n      0x40\n        /* \"#utility.yul\":22921:22943   */\n      mstore\n        /* \"#utility.yul\":22711:22949   */\n      pop\n        /* \"#utility.yul\":22668:22949   */\n      pop\n      pop\n      jump\t// out\n        /* \"#utility.yul\":22955:23135   */\n    tag_122:\n        /* \"#utility.yul\":23003:23080   */\n      0x4e487b7100000000000000000000000000000000000000000000000000000000\n        /* \"#utility.yul\":23000:23001   */\n      0x00\n        /* \"#utility.yul\":22993:23081   */\n      mstore\n        /* \"#utility.yul\":23100:23104   */\n      0x21\n        /* \"#utility.yul\":23097:23098   */\n      0x04\n        /* \"#utility.yul\":23090:23105   */\n      mstore\n        /* \"#utility.yul\":23124:23128   */\n      0x24\n        /* \"#utility.yul\":23121:23122   */\n      0x00\n        /* \"#utility.yul\":23114:23129   */\n      revert\n        /* \"#utility.yul\":23141:23321   */\n    tag_474:\n        /* \"#utility.yul\":23189:23266   */\n      0x4e487b7100000000000000000000000000000000000000000000000000000000\n        /* \"#utility.yul\":23186:23187   */\n      0x00\n        /* \"#utility.yul\":23179:23267   */\n      mstore\n        /* \"#utility.yul\":23286:23290   */\n      0x22\n        /* \"#utility.yul\":23283:23284   */\n      0x04\n        /* \"#utility.yul\":23276:23291   */\n      mstore\n        /* \"#utility.yul\":23310:23314   */\n      0x24\n        /* \"#utility.yul\":23307:23308   */\n      0x00\n        /* \"#utility.yul\":23300:23315   */\n      revert\n        /* \"#utility.yul\":23327:23507   */\n    tag_446:\n        /* \"#utility.yul\":23375:23452   */\n      0x4e487b7100000000000000000000000000000000000000000000000000000000\n        /* \"#utility.yul\":23372:23373   */\n      0x00\n        /* \"#utility.yul\":23365:23453   */\n      mstore\n        /* \"#utility.yul\":23472:23476   */\n      0x41\n        /* \"#utility.yul\":23469:23470   */\n      0x04\n        /* \"#utility.yul\":23462:23477   */\n      mstore\n        /* \"#utility.yul\":23496:23500   */\n      0x24\n        /* \"#utility.yul\":23493:23494   */\n      0x00\n        /* \"#utility.yul\":23486:23501   */\n      revert\n        /* \"#utility.yul\":23513:23630   */\n    tag_235:\n        /* \"#utility.yul\":23622:23623   */\n      0x00\n        /* \"#utility.yul\":23619:23620   */\n      dup1\n        /* \"#utility.yul\":23612:23624   */\n      revert\n        /* \"#utility.yul\":23636:23753   */\n    tag_220:\n        /* \"#utility.yul\":23745:23746   */\n      0x00\n        /* \"#utility.yul\":23742:23743   */\n      dup1\n        /* \"#utility.yul\":23735:23747   */\n      revert\n        /* \"#utility.yul\":23759:23876   */\n    tag_261:\n        /* \"#utility.yul\":23868:23869   */\n      0x00\n        /* \"#utility.yul\":23865:23866   */\n      dup1\n        /* \"#utility.yul\":23858:23870   */\n      revert\n        /* \"#utility.yul\":23882:23999   */\n    tag_252:\n        /* \"#utility.yul\":23991:23992   */\n      0x00\n        /* \"#utility.yul\":23988:23989   */\n      dup1\n        /* \"#utility.yul\":23981:23993   */\n      revert\n        /* \"#utility.yul\":24005:24107   */\n    tag_306:\n        /* \"#utility.yul\":24046:24052   */\n      0x00\n        /* \"#utility.yul\":24097:24099   */\n      0x1f\n        /* \"#utility.yul\":24093:24100   */\n      not\n        /* \"#utility.yul\":24088:24090   */\n      0x1f\n        /* \"#utility.yul\":24081:24086   */\n      dup4\n        /* \"#utility.yul\":24077:24091   */\n      add\n        /* \"#utility.yul\":24073:24101   */\n      and\n        /* \"#utility.yul\":24063:24101   */\n      swap1\n      pop\n        /* \"#utility.yul\":24005:24107   */\n      swap2\n      swap1\n      pop\n      jump\t// out\n        /* \"#utility.yul\":24113:24294   */\n    tag_311:\n        /* \"#utility.yul\":24253:24286   */\n      0x53616465636520594f4b2062752069736c656d69207961706162696c69722e00\n        /* \"#utility.yul\":24249:24250   */\n      0x00\n        /* \"#utility.yul\":24241:24247   */\n      dup3\n        /* \"#utility.yul\":24237:24251   */\n      add\n        /* \"#utility.yul\":24230:24287   */\n      mstore\n        /* \"#utility.yul\":24113:24294   */\n      pop\n      jump\t// out\n        /* \"#utility.yul\":24300:24474   */\n    tag_316:\n        /* \"#utility.yul\":24440:24466   */\n      0x4b616d75204b7572756d75205a6174656e204d65766375740000000000000000\n        /* \"#utility.yul\":24436:24437   */\n      0x00\n        /* \"#utility.yul\":24428:24434   */\n      dup3\n        /* \"#utility.yul\":24424:24438   */\n      add\n        /* \"#utility.yul\":24417:24467   */\n      mstore\n        /* \"#utility.yul\":24300:24474   */\n      pop\n      jump\t// out\n        /* \"#utility.yul\":24480:24648   */\n    tag_321:\n        /* \"#utility.yul\":24620:24640   */\n      0x4669726d61205a6174656e204d65766375740000000000000000000000000000\n        /* \"#utility.yul\":24616:24617   */\n      0x00\n        /* \"#utility.yul\":24608:24614   */\n      dup3\n        /* \"#utility.yul\":24604:24618   */\n      add\n        /* \"#utility.yul\":24597:24641   */\n      mstore\n        /* \"#utility.yul\":24480:24648   */\n      pop\n      jump\t// out\n        /* \"#utility.yul\":24654:24834   */\n    tag_326:\n        /* \"#utility.yul\":24794:24826   */\n      0x5361646563652043422062752069736c656d69207961706162696c69722e0000\n        /* \"#utility.yul\":24790:24791   */\n      0x00\n        /* \"#utility.yul\":24782:24788   */\n      dup3\n        /* \"#utility.yul\":24778:24792   */\n      add\n        /* \"#utility.yul\":24771:24827   */\n      mstore\n        /* \"#utility.yul\":24654:24834   */\n      pop\n      jump\t// out\n        /* \"#utility.yul\":24840:25020   */\n    tag_331:\n        /* \"#utility.yul\":24980:25012   */\n      0x536572746966696b61204d65726b657a69205a6174656e204d65766375740000\n        /* \"#utility.yul\":24976:24977   */\n      0x00\n        /* \"#utility.yul\":24968:24974   */\n      dup3\n        /* \"#utility.yul\":24964:24978   */\n      add\n        /* \"#utility.yul\":24957:25013   */\n      mstore\n        /* \"#utility.yul\":24840:25020   */\n      pop\n      jump\t// out\n        /* \"#utility.yul\":25026:25247   */\n    tag_336:\n        /* \"#utility.yul\":25166:25200   */\n      0x536976696c20546f706c756d204b7572756c757375205a6174656e204d657663\n        /* \"#utility.yul\":25162:25163   */\n      0x00\n        /* \"#utility.yul\":25154:25160   */\n      dup3\n        /* \"#utility.yul\":25150:25164   */\n      add\n        /* \"#utility.yul\":25143:25201   */\n      mstore\n        /* \"#utility.yul\":25235:25239   */\n      0x7574000000000000000000000000000000000000000000000000000000000000\n        /* \"#utility.yul\":25230:25232   */\n      0x20\n        /* \"#utility.yul\":25222:25228   */\n      dup3\n        /* \"#utility.yul\":25218:25233   */\n      add\n        /* \"#utility.yul\":25211:25240   */\n      mstore\n        /* \"#utility.yul\":25026:25247   */\n      pop\n      jump\t// out\n        /* \"#utility.yul\":25253:25426   */\n    tag_341:\n        /* \"#utility.yul\":25393:25418   */\n      0x556e6976657273697465205a6174656e204d6576637574000000000000000000\n        /* \"#utility.yul\":25389:25390   */\n      0x00\n        /* \"#utility.yul\":25381:25387   */\n      dup3\n        /* \"#utility.yul\":25377:25391   */\n      add\n        /* \"#utility.yul\":25370:25419   */\n      mstore\n        /* \"#utility.yul\":25253:25426   */\n      pop\n      jump\t// out\n        /* \"#utility.yul\":25432:25657   */\n    tag_346:\n        /* \"#utility.yul\":25572:25606   */\n      0x53616465636520556e69766572736974652062752069736c656d692079617061\n        /* \"#utility.yul\":25568:25569   */\n      0x00\n        /* \"#utility.yul\":25560:25566   */\n      dup3\n        /* \"#utility.yul\":25556:25570   */\n      add\n        /* \"#utility.yul\":25549:25607   */\n      mstore\n        /* \"#utility.yul\":25641:25649   */\n      0x62696c69722e0000000000000000000000000000000000000000000000000000\n        /* \"#utility.yul\":25636:25638   */\n      0x20\n        /* \"#utility.yul\":25628:25634   */\n      dup3\n        /* \"#utility.yul\":25624:25639   */\n      add\n        /* \"#utility.yul\":25617:25650   */\n      mstore\n        /* \"#utility.yul\":25432:25657   */\n      pop\n      jump\t// out\n        /* \"#utility.yul\":25663:25837   */\n    tag_351:\n        /* \"#utility.yul\":25803:25829   */\n      0x416b6164656d697379656e205a6174656e204d65766375740000000000000000\n        /* \"#utility.yul\":25799:25800   */\n      0x00\n        /* \"#utility.yul\":25791:25797   */\n      dup3\n        /* \"#utility.yul\":25787:25801   */\n      add\n        /* \"#utility.yul\":25780:25830   */\n      mstore\n        /* \"#utility.yul\":25663:25837   */\n      pop\n      jump\t// out\n        /* \"#utility.yul\":25843:26016   */\n    tag_356:\n        /* \"#utility.yul\":25983:26008   */\n      0x4b616d75204b75726d75205a6174656e204d6576637574000000000000000000\n        /* \"#utility.yul\":25979:25980   */\n      0x00\n        /* \"#utility.yul\":25971:25977   */\n      dup3\n        /* \"#utility.yul\":25967:25981   */\n      add\n        /* \"#utility.yul\":25960:26009   */\n      mstore\n        /* \"#utility.yul\":25843:26016   */\n      pop\n      jump\t// out\n        /* \"#utility.yul\":26022:26204   */\n    tag_361:\n        /* \"#utility.yul\":26162:26196   */\n      0x53616465636520544f42422062752069736c656d69207961706162696c69722e\n        /* \"#utility.yul\":26158:26159   */\n      0x00\n        /* \"#utility.yul\":26150:26156   */\n      dup3\n        /* \"#utility.yul\":26146:26160   */\n      add\n        /* \"#utility.yul\":26139:26197   */\n      mstore\n        /* \"#utility.yul\":26022:26204   */\n      pop\n      jump\t// out\n        /* \"#utility.yul\":26210:26392   */\n    tag_366:\n        /* \"#utility.yul\":26350:26384   */\n      0x42752069736c656d6920736164656365204b757273207961706162696c69722e\n        /* \"#utility.yul\":26346:26347   */\n      0x00\n        /* \"#utility.yul\":26338:26344   */\n      dup3\n        /* \"#utility.yul\":26334:26348   */\n      add\n        /* \"#utility.yul\":26327:26385   */\n      mstore\n        /* \"#utility.yul\":26210:26392   */\n      pop\n      jump\t// out\n        /* \"#utility.yul\":26398:26511   */\n    tag_457:\n        /* \"#utility.yul\":26479:26480   */\n      0x04\n        /* \"#utility.yul\":26472:26477   */\n      dup2\n        /* \"#utility.yul\":26469:26481   */\n      lt\n        /* \"#utility.yul\":26459:26505   */\n      tag_500\n      jumpi\n        /* \"#utility.yul\":26485:26503   */\n      tag_501\n      tag_122\n      jump\t// in\n    tag_501:\n        /* \"#utility.yul\":26459:26505   */\n    tag_500:\n        /* \"#utility.yul\":26398:26511   */\n      pop\n      jump\t// out\n        /* \"#utility.yul\":26517:26639   */\n    tag_226:\n        /* \"#utility.yul\":26590:26614   */\n      tag_503\n        /* \"#utility.yul\":26608:26613   */\n      dup2\n        /* \"#utility.yul\":26590:26614   */\n      tag_288\n      jump\t// in\n    tag_503:\n        /* \"#utility.yul\":26583:26588   */\n      dup2\n        /* \"#utility.yul\":26580:26615   */\n      eq\n        /* \"#utility.yul\":26570:26633   */\n      tag_504\n      jumpi\n        /* \"#utility.yul\":26629:26630   */\n      0x00\n        /* \"#utility.yul\":26626:26627   */\n      dup1\n        /* \"#utility.yul\":26619:26631   */\n      revert\n        /* \"#utility.yul\":26570:26633   */\n    tag_504:\n        /* \"#utility.yul\":26517:26639   */\n      pop\n      jump\t// out\n        /* \"#utility.yul\":26645:26752   */\n    tag_230:\n        /* \"#utility.yul\":26726:26727   */\n      0x04\n        /* \"#utility.yul\":26719:26724   */\n      dup2\n        /* \"#utility.yul\":26716:26728   */\n      lt\n        /* \"#utility.yul\":26706:26746   */\n      tag_506\n      jumpi\n        /* \"#utility.yul\":26742:26743   */\n      0x00\n        /* \"#utility.yul\":26739:26740   */\n      dup1\n        /* \"#utility.yul\":26732:26744   */\n      revert\n        /* \"#utility.yul\":26706:26746   */\n    tag_506:\n        /* \"#utility.yul\":26645:26752   */\n      pop\n      jump\t// out\n        /* \"#utility.yul\":26758:26878   */\n    tag_240:\n        /* \"#utility.yul\":26830:26853   */\n      tag_508\n        /* \"#utility.yul\":26847:26852   */\n      dup2\n        /* \"#utility.yul\":26830:26853   */\n      tag_370\n      jump\t// in\n    tag_508:\n        /* \"#utility.yul\":26823:26828   */\n      dup2\n        /* \"#utility.yul\":26820:26854   */\n      eq\n        /* \"#utility.yul\":26810:26872   */\n      tag_509\n      jumpi\n        /* \"#utility.yul\":26868:26869   */\n      0x00\n        /* \"#utility.yul\":26865:26866   */\n      dup1\n        /* \"#utility.yul\":26858:26870   */\n      revert\n        /* \"#utility.yul\":26810:26872   */\n    tag_509:\n        /* \"#utility.yul\":26758:26878   */\n      pop\n      jump\t// out\n        /* \"#utility.yul\":26884:27006   */\n    tag_244:\n        /* \"#utility.yul\":26957:26981   */\n      tag_511\n        /* \"#utility.yul\":26975:26980   */\n      dup2\n        /* \"#utility.yul\":26957:26981   */\n      tag_374\n      jump\t// in\n    tag_511:\n        /* \"#utility.yul\":26950:26955   */\n      dup2\n        /* \"#utility.yul\":26947:26982   */\n      eq\n        /* \"#utility.yul\":26937:27000   */\n      tag_512\n      jumpi\n        /* \"#utility.yul\":26996:26997   */\n      0x00\n        /* \"#utility.yul\":26993:26994   */\n      dup1\n        /* \"#utility.yul\":26986:26998   */\n      revert\n        /* \"#utility.yul\":26937:27000   */\n    tag_512:\n        /* \"#utility.yul\":26884:27006   */\n      pop\n      jump\t// out\n        /* \"#utility.yul\":27012:27130   */\n    tag_248:\n        /* \"#utility.yul\":27083:27105   */\n      tag_514\n        /* \"#utility.yul\":27099:27104   */\n      dup2\n        /* \"#utility.yul\":27083:27105   */\n      tag_378\n      jump\t// in\n    tag_514:\n        /* \"#utility.yul\":27076:27081   */\n      dup2\n        /* \"#utility.yul\":27073:27106   */\n      eq\n        /* \"#utility.yul\":27063:27124   */\n      tag_515\n      jumpi\n        /* \"#utility.yul\":27120:27121   */\n      0x00\n        /* \"#utility.yul\":27117:27118   */\n      dup1\n        /* \"#utility.yul\":27110:27122   */\n      revert\n        /* \"#utility.yul\":27063:27124   */\n    tag_515:\n        /* \"#utility.yul\":27012:27130   */\n      pop\n      jump\t// out\n\n    auxdata: 0xa2646970667358221220dcb3bd840c4c64214471ac4ef4b79379b47381a72e9afc245fee64e1f6fe283a64736f6c63430008070033\n}\n",
				"bytecode": {
					"linkReferences": {},
					"object": "60806040523480156200001157600080fd5b5060405162002cd238038062002cd2833981810160405281019062000037919062000119565b826000806101000a81548173ffffffffffffffffffffffffffffffffffffffff021916908373ffffffffffffffffffffffffffffffffffffffff16021790555081600160006101000a81548173ffffffffffffffffffffffffffffffffffffffff021916908373ffffffffffffffffffffffffffffffffffffffff16021790555080600260006101000a81548173ffffffffffffffffffffffffffffffffffffffff021916908373ffffffffffffffffffffffffffffffffffffffff160217905550505050620001c8565b6000815190506200011381620001ae565b92915050565b600080600060608486031215620001355762000134620001a9565b5b6000620001458682870162000102565b9350506020620001588682870162000102565b92505060406200016b8682870162000102565b9150509250925092565b6000620001828262000189565b9050919050565b600073ffffffffffffffffffffffffffffffffffffffff82169050919050565b600080fd5b620001b98162000175565b8114620001c557600080fd5b50565b612afa80620001d86000396000f3fe608060405234801561001057600080fd5b50600436106100f45760003560e01c80634622485311610097578063ba479b7e11610066578063ba479b7e146102b2578063cbc92809146102e7578063d25aab8514610317578063f63c649f14610333576100f4565b806346224853146102165780637d0fa287146102325780639a8c9119146102645780639dc3011414610296576100f4565b80631c23f0e1116100d35780631c23f0e114610163578063282666971461017f578063356b1f1e146101b157806339987f94146101e3576100f4565b80621d54ab146100f957806319023bf3146101155780631916e13914610131575b600080fd5b610113600480360381019061010e9190611f88565b61034f565b005b61012f600480360381019061012a9190611f88565b6105ba565b005b61014b60048036038101906101469190611e13565b610827565b60405161015a939291906123b1565b60405180910390f35b61017d60048036038101906101789190611e40565b6108f3565b005b61019960048036038101906101949190611e13565b610c2b565b6040516101a8939291906123b1565b60405180910390f35b6101cb60048036038101906101c69190611e13565b610cf7565b6040516101da939291906123b1565b60405180910390f35b6101fd60048036038101906101f89190611e13565b610dc3565b60405161020d94939291906123ef565b60405180910390f35b610230600480360381019061022b9190611f88565b610e95565b005b61024c60048036038101906102479190611e13565b6111af565b60405161025b939291906123b1565b60405180910390f35b61027e60048036038101906102799190611e13565b61127b565b60405161028d939291906123b1565b60405180910390f35b6102b060048036038101906102ab9190611f88565b611347565b005b6102cc60048036038101906102c79190611e13565b6115b4565b6040516102de96959493929190612342565b60405180910390f35b61030160048036038101906102fc9190611e13565b611748565b60405161030e9190612327565b60405180910390f35b610331600480360381019061032c9190611f05565b611773565b005b61034d60048036038101906103489190611f88565b611a2a565b005b60008054906101000a900473ffffffffffffffffffffffffffffffffffffffff1673ffffffffffffffffffffffffffffffffffffffff163373ffffffffffffffffffffffffffffffffffffffff16146103dd576040517f08c379a00000000000000000000000000000000000000000000000000000000081526004016103d49061243b565b60405180910390fd5b600460008473ffffffffffffffffffffffffffffffffffffffff1673ffffffffffffffffffffffffffffffffffffffff16815260200190815260200160002060000160009054906101000a900460ff161561046d576040517f08c379a0000000000000000000000000000000000000000000000000000000008152600401610464906124fb565b60405180910390fd5b6001600460008573ffffffffffffffffffffffffffffffffffffffff1673ffffffffffffffffffffffffffffffffffffffff16815260200190815260200160002060000160006101000a81548160ff02191690831515021790555081600460008573ffffffffffffffffffffffffffffffffffffffff1673ffffffffffffffffffffffffffffffffffffffff168152602001908152602001600020600101908051906020019061051e929190611c97565b5080600460008573ffffffffffffffffffffffffffffffffffffffff1673ffffffffffffffffffffffffffffffffffffffff16815260200190815260200160002060020160006101000a81548160ff021916908360ff1602179055507f750ae9c195d9b95b8c17bf0fa25801932d5a28c4871f4571af70581bc15f5bfe8383836040516105ad939291906122e9565b60405180910390a1505050565b600260009054906101000a900473ffffffffffffffffffffffffffffffffffffffff1673ffffffffffffffffffffffffffffffffffffffff163373ffffffffffffffffffffffffffffffffffffffff161461064a576040517f08c379a00000000000000000000000000000000000000000000000000000000081526004016106419061249b565b60405180910390fd5b600960008473ffffffffffffffffffffffffffffffffffffffff1673ffffffffffffffffffffffffffffffffffffffff16815260200190815260200160002060000160009054906101000a900460ff16156106da576040517f08c379a00000000000000000000000000000000000000000000000000000000081526004016106d1906124db565b60405180910390fd5b6001600960008573ffffffffffffffffffffffffffffffffffffffff1673ffffffffffffffffffffffffffffffffffffffff16815260200190815260200160002060000160006101000a81548160ff02191690831515021790555081600960008573ffffffffffffffffffffffffffffffffffffffff1673ffffffffffffffffffffffffffffffffffffffff168152602001908152602001600020600101908051906020019061078b929190611c97565b5080600960008573ffffffffffffffffffffffffffffffffffffffff1673ffffffffffffffffffffffffffffffffffffffff16815260200190815260200160002060020160006101000a81548160ff021916908360ff1602179055507f1993679d861f13477b3e16ff3b01c1c9e471e0f6f2e30a363662c257f720745083838360405161081a939291906122e9565b60405180910390a1505050565b60076020528060005260406000206000915090508060000160009054906101000a900460ff169080600101805461085d906126f7565b80601f0160208091040260200160405190810160405280929190818152602001828054610889906126f7565b80156108d65780601f106108ab576101008083540402835291602001916108d6565b820191906000526020600020905b8154815290600101906020018083116108b957829003601f168201915b5050505050908060020160009054906101000a900460ff16905083565b600460003373ffffffffffffffffffffffffffffffffffffffff1673ffffffffffffffffffffffffffffffffffffffff16815260200190815260200160002060000160009054906101000a900460ff16610982576040517f08c379a00000000000000000000000000000000000000000000000000000000081526004016109799061251b565b60405180910390fd5b600560008773ffffffffffffffffffffffffffffffffffffffff1673ffffffffffffffffffffffffffffffffffffffff16815260200190815260200160002060000160009054906101000a900460ff1615610a12576040517f08c379a0000000000000000000000000000000000000000000000000000000008152600401610a099061253b565b60405180910390fd5b6001600560008873ffffffffffffffffffffffffffffffffffffffff1673ffffffffffffffffffffffffffffffffffffffff16815260200190815260200160002060000160006101000a81548160ff02191690831515021790555083600560008873ffffffffffffffffffffffffffffffffffffffff1673ffffffffffffffffffffffffffffffffffffffff1681526020019081526020016000206001019080519060200190610ac3929190611c97565b5082600560008873ffffffffffffffffffffffffffffffffffffffff1673ffffffffffffffffffffffffffffffffffffffff1681526020019081526020016000206002019080519060200190610b1a929190611c97565b5081600560008873ffffffffffffffffffffffffffffffffffffffff1673ffffffffffffffffffffffffffffffffffffffff16815260200190815260200160002060000160156101000a81548161ffff021916908361ffff16021790555080600560008873ffffffffffffffffffffffffffffffffffffffff1673ffffffffffffffffffffffffffffffffffffffff16815260200190815260200160002060000160176101000a81548160ff02191690836003811115610bdd57610bdc61275a565b5b02179055507fc9efd466d9a1950ad2164252edda662048bca360d86fe9602a80d3dadfed1754868686868686604051610c1b9695949392919061222e565b60405180910390a1505050505050565b60046020528060005260406000206000915090508060000160009054906101000a900460ff1690806001018054610c61906126f7565b80601f0160208091040260200160405190810160405280929190818152602001828054610c8d906126f7565b8015610cda5780601f10610caf57610100808354040283529160200191610cda565b820191906000526020600020905b815481529060010190602001808311610cbd57829003601f168201915b5050505050908060020160009054906101000a900460ff16905083565b600a6020528060005260406000206000915090508060000160009054906101000a900460ff1690806001018054610d2d906126f7565b80601f0160208091040260200160405190810160405280929190818152602001828054610d59906126f7565b8015610da65780601f10610d7b57610100808354040283529160200191610da6565b820191906000526020600020905b815481529060010190602001808311610d8957829003601f168201915b5050505050908060020160009054906101000a900460ff16905083565b60066020528060005260406000206000915090508060000160009054906101000a900460ff16908060000160019054906101000a900460ff1690806001015490806002018054610e12906126f7565b80601f0160208091040260200160405190810160405280929190818152602001828054610e3e906126f7565b8015610e8b5780601f10610e6057610100808354040283529160200191610e8b565b820191906000526020600020905b815481529060010190602001808311610e6e57829003601f168201915b5050505050905084565b600460003373ffffffffffffffffffffffffffffffffffffffff1673ffffffffffffffffffffffffffffffffffffffff16815260200190815260200160002060000160009054906101000a900460ff1680610f3c5750600660003373ffffffffffffffffffffffffffffffffffffffff1673ffffffffffffffffffffffffffffffffffffffff16815260200190815260200160002060000160009054906101000a900460ff165b80610f935750600860003373ffffffffffffffffffffffffffffffffffffffff1673ffffffffffffffffffffffffffffffffffffffff16815260200190815260200160002060000160009054906101000a900460ff165b610fd2576040517f08c379a0000000000000000000000000000000000000000000000000000000008152600401610fc99061259b565b60405180910390fd5b600760008473ffffffffffffffffffffffffffffffffffffffff1673ffffffffffffffffffffffffffffffffffffffff16815260200190815260200160002060000160009054906101000a900460ff1615611062576040517f08c379a00000000000000000000000000000000000000000000000000000000081526004016110599061245b565b60405180910390fd5b6001600760008573ffffffffffffffffffffffffffffffffffffffff1673ffffffffffffffffffffffffffffffffffffffff16815260200190815260200160002060000160006101000a81548160ff02191690831515021790555081600760008573ffffffffffffffffffffffffffffffffffffffff1673ffffffffffffffffffffffffffffffffffffffff1681526020019081526020016000206001019080519060200190611113929190611c97565b5080600760008573ffffffffffffffffffffffffffffffffffffffff1673ffffffffffffffffffffffffffffffffffffffff16815260200190815260200160002060020160006101000a81548160ff021916908360ff1602179055507f6bb7b94bfdc5d1cac19e058d529aff5df791333f0bb6164d9647d8915812fb1f8383836040516111a2939291906122e9565b60405180910390a1505050565b60086020528060005260406000206000915090508060000160009054906101000a900460ff16908060010180546111e5906126f7565b80601f0160208091040260200160405190810160405280929190818152602001828054611211906126f7565b801561125e5780601f106112335761010080835404028352916020019161125e565b820191906000526020600020905b81548152906001019060200180831161124157829003601f168201915b5050505050908060020160009054906101000a900460ff16905083565b60096020528060005260406000206000915090508060000160009054906101000a900460ff16908060010180546112b1906126f7565b80601f01602080910402602001604051908101604052809291908181526020018280546112dd906126f7565b801561132a5780601f106112ff5761010080835404028352916020019161132a565b820191906000526020600020905b81548152906001019060200180831161130d57829003601f168201915b5050505050908060020160009054906101000a900460ff16905083565b600160009054906101000a900473ffffffffffffffffffffffffffffffffffffffff1673ffffffffffffffffffffffffffffffffffffffff163373ffffffffffffffffffffffffffffffffffffffff16146113d7576040517f08c379a00000000000000000000000000000000000000000000000000000000081526004016113ce9061257b565b60405180910390fd5b600a60008473ffffffffffffffffffffffffffffffffffffffff1673ffffffffffffffffffffffffffffffffffffffff16815260200190815260200160002060000160009054906101000a900460ff1615611467576040517f08c379a000000000000000000000000000000000000000000000000000000000815260040161145e906124bb565b60405180910390fd5b6001600a60008573ffffffffffffffffffffffffffffffffffffffff1673ffffffffffffffffffffffffffffffffffffffff16815260200190815260200160002060000160006101000a81548160ff02191690831515021790555081600a60008573ffffffffffffffffffffffffffffffffffffffff1673ffffffffffffffffffffffffffffffffffffffff1681526020019081526020016000206001019080519060200190611518929190611c97565b5080600a60008573ffffffffffffffffffffffffffffffffffffffff1673ffffffffffffffffffffffffffffffffffffffff16815260200190815260200160002060020160006101000a81548160ff021916908360ff1602179055507f08f8201cceb68e4cb53475bb7a54a85f719008aee80f1291dba111a7406b20738383836040516115a7939291906122e9565b60405180910390a1505050565b60056020528060005260406000206000915090508060000160009054906101000a900460ff16908060000160019054906101000a900473ffffffffffffffffffffffffffffffffffffffff16908060000160159054906101000a900461ffff16908060000160179054906101000a900460ff1690806001018054611637906126f7565b80601f0160208091040260200160405190810160405280929190818152602001828054611663906126f7565b80156116b05780601f10611685576101008083540402835291602001916116b0565b820191906000526020600020905b81548152906001019060200180831161169357829003601f168201915b5050505050908060020180546116c5906126f7565b80601f01602080910402602001604051908101604052809291908181526020018280546116f1906126f7565b801561173e5780601f106117135761010080835404028352916020019161173e565b820191906000526020600020905b81548152906001019060200180831161172157829003601f168201915b5050505050905086565b60036020528060005260406000206000915090508060000160009054906101000a900460ff16905081565b600160009054906101000a900473ffffffffffffffffffffffffffffffffffffffff1673ffffffffffffffffffffffffffffffffffffffff163373ffffffffffffffffffffffffffffffffffffffff1614611803576040517f08c379a00000000000000000000000000000000000000000000000000000000081526004016117fa9061257b565b60405180910390fd5b600660008573ffffffffffffffffffffffffffffffffffffffff1673ffffffffffffffffffffffffffffffffffffffff16815260200190815260200160002060000160009054906101000a900460ff1615611893576040517f08c379a000000000000000000000000000000000000000000000000000000000815260040161188a9061247b565b60405180910390fd5b6001600660008673ffffffffffffffffffffffffffffffffffffffff1673ffffffffffffffffffffffffffffffffffffffff16815260200190815260200160002060000160006101000a81548160ff02191690831515021790555082600660008673ffffffffffffffffffffffffffffffffffffffff1673ffffffffffffffffffffffffffffffffffffffff1681526020019081526020016000206002019080519060200190611944929190611c97565b5080600660008673ffffffffffffffffffffffffffffffffffffffff1673ffffffffffffffffffffffffffffffffffffffff16815260200190815260200160002060000160016101000a81548160ff021916908360ff16021790555081600660008673ffffffffffffffffffffffffffffffffffffffff1673ffffffffffffffffffffffffffffffffffffffff168152602001908152602001600020600101819055507f4c80d824213be57abdcc652faafea948bed864ebf9677d2a9dcb5efa217e88d684848484604051611a1c949392919061229d565b60405180910390a150505050565b600260009054906101000a900473ffffffffffffffffffffffffffffffffffffffff1673ffffffffffffffffffffffffffffffffffffffff163373ffffffffffffffffffffffffffffffffffffffff1614611aba576040517f08c379a0000000000000000000000000000000000000000000000000000000008152600401611ab19061249b565b60405180910390fd5b600860008473ffffffffffffffffffffffffffffffffffffffff1673ffffffffffffffffffffffffffffffffffffffff16815260200190815260200160002060000160009054906101000a900460ff1615611b4a576040517f08c379a0000000000000000000000000000000000000000000000000000000008152600401611b419061255b565b60405180910390fd5b6001600860008573ffffffffffffffffffffffffffffffffffffffff1673ffffffffffffffffffffffffffffffffffffffff16815260200190815260200160002060000160006101000a81548160ff02191690831515021790555081600860008573ffffffffffffffffffffffffffffffffffffffff1673ffffffffffffffffffffffffffffffffffffffff1681526020019081526020016000206001019080519060200190611bfb929190611c97565b5080600860008573ffffffffffffffffffffffffffffffffffffffff1673ffffffffffffffffffffffffffffffffffffffff16815260200190815260200160002060020160006101000a81548160ff021916908360ff1602179055507f3ed49d581db34ca478f2e99aeae4b5f44d7efd3db61bf20bc6d9212bf34f4aef838383604051611c8a939291906122e9565b60405180910390a1505050565b828054611ca3906126f7565b90600052602060002090601f016020900481019282611cc55760008555611d0c565b82601f10611cde57805160ff1916838001178555611d0c565b82800160010185558215611d0c579182015b82811115611d0b578251825591602001919060010190611cf0565b5b509050611d199190611d1d565b5090565b5b80821115611d36576000816000905550600101611d1e565b5090565b6000611d4d611d48846125e0565b6125bb565b905082815260208101848484011115611d6957611d686127ec565b5b611d748482856126b5565b509392505050565b600081359050611d8b81612a58565b92915050565b600081359050611da081612a6f565b92915050565b600082601f830112611dbb57611dba6127e7565b5b8135611dcb848260208601611d3a565b91505092915050565b600081359050611de381612a7f565b92915050565b600081359050611df881612a96565b92915050565b600081359050611e0d81612aad565b92915050565b600060208284031215611e2957611e286127f6565b5b6000611e3784828501611d7c565b91505092915050565b60008060008060008060c08789031215611e5d57611e5c6127f6565b5b6000611e6b89828a01611d7c565b9650506020611e7c89828a01611d7c565b955050604087013567ffffffffffffffff811115611e9d57611e9c6127f1565b5b611ea989828a01611da6565b945050606087013567ffffffffffffffff811115611eca57611ec96127f1565b5b611ed689828a01611da6565b9350506080611ee789828a01611dd4565b92505060a0611ef889828a01611d91565b9150509295509295509295565b60008060008060808587031215611f1f57611f1e6127f6565b5b6000611f2d87828801611d7c565b945050602085013567ffffffffffffffff811115611f4e57611f4d6127f1565b5b611f5a87828801611da6565b9350506040611f6b87828801611de9565b9250506060611f7c87828801611dfe565b91505092959194509250565b600080600060608486031215611fa157611fa06127f6565b5b6000611faf86828701611d7c565b935050602084013567ffffffffffffffff811115611fd057611fcf6127f1565b5b611fdc86828701611da6565b9250506040611fed86828701611dfe565b9150509250925092565b6120008161262d565b82525050565b61200f8161263f565b82525050565b61201e816126a3565b82525050565b600061202f82612611565b612039818561261c565b93506120498185602086016126c4565b612052816127fb565b840191505092915050565b600061206a601f8361261c565b91506120758261280c565b602082019050919050565b600061208d60188361261c565b915061209882612835565b602082019050919050565b60006120b060128361261c565b91506120bb8261285e565b602082019050919050565b60006120d3601e8361261c565b91506120de82612887565b602082019050919050565b60006120f6601e8361261c565b9150612101826128b0565b602082019050919050565b600061211960228361261c565b9150612124826128d9565b604082019050919050565b600061213c60178361261c565b915061214782612928565b602082019050919050565b600061215f60268361261c565b915061216a82612951565b604082019050919050565b600061218260188361261c565b915061218d826129a0565b602082019050919050565b60006121a560178361261c565b91506121b0826129c9565b602082019050919050565b60006121c860208361261c565b91506121d3826129f2565b602082019050919050565b60006121eb60208361261c565b91506121f682612a1b565b602082019050919050565b61220a8161265e565b82525050565b6122198161268c565b82525050565b61222881612696565b82525050565b600060c0820190506122436000830189611ff7565b6122506020830188611ff7565b81810360408301526122628187612024565b905081810360608301526122768186612024565b90506122856080830185612201565b61229260a0830184612015565b979650505050505050565b60006080820190506122b26000830187611ff7565b81810360208301526122c48186612024565b90506122d36040830185612210565b6122e0606083018461221f565b95945050505050565b60006060820190506122fe6000830186611ff7565b81810360208301526123108185612024565b905061231f604083018461221f565b949350505050565b600060208201905061233c6000830184612006565b92915050565b600060c0820190506123576000830189612006565b6123646020830188611ff7565b6123716040830187612201565b61237e6060830186612015565b81810360808301526123908185612024565b905081810360a08301526123a48184612024565b9050979650505050505050565b60006060820190506123c66000830186612006565b81810360208301526123d88185612024565b90506123e7604083018461221f565b949350505050565b60006080820190506124046000830187612006565b612411602083018661221f565b61241e6040830185612210565b81810360608301526124308184612024565b905095945050505050565b600060208201905081810360008301526124548161205d565b9050919050565b6000602082019050818103600083015261247481612080565b9050919050565b60006020820190508181036000830152612494816120a3565b9050919050565b600060208201905081810360008301526124b4816120c6565b9050919050565b600060208201905081810360008301526124d4816120e9565b9050919050565b600060208201905081810360008301526124f48161210c565b9050919050565b600060208201905081810360008301526125148161212f565b9050919050565b6000602082019050818103600083015261253481612152565b9050919050565b6000602082019050818103600083015261255481612175565b9050919050565b6000602082019050818103600083015261257481612198565b9050919050565b60006020820190508181036000830152612594816121bb565b9050919050565b600060208201905081810360008301526125b4816121de565b9050919050565b60006125c56125d6565b90506125d18282612729565b919050565b6000604051905090565b600067ffffffffffffffff8211156125fb576125fa6127b8565b5b612604826127fb565b9050602081019050919050565b600081519050919050565b600082825260208201905092915050565b60006126388261266c565b9050919050565b60008115159050919050565b600081905061265982612a44565b919050565b600061ffff82169050919050565b600073ffffffffffffffffffffffffffffffffffffffff82169050919050565b6000819050919050565b600060ff82169050919050565b60006126ae8261264b565b9050919050565b82818337600083830152505050565b60005b838110156126e25780820151818401526020810190506126c7565b838111156126f1576000848401525b50505050565b6000600282049050600182168061270f57607f821691505b6020821081141561272357612722612789565b5b50919050565b612732826127fb565b810181811067ffffffffffffffff82111715612751576127506127b8565b5b80604052505050565b7f4e487b7100000000000000000000000000000000000000000000000000000000600052602160045260246000fd5b7f4e487b7100000000000000000000000000000000000000000000000000000000600052602260045260246000fd5b7f4e487b7100000000000000000000000000000000000000000000000000000000600052604160045260246000fd5b600080fd5b600080fd5b600080fd5b600080fd5b6000601f19601f8301169050919050565b7f53616465636520594f4b2062752069736c656d69207961706162696c69722e00600082015250565b7f4b616d75204b7572756d75205a6174656e204d65766375740000000000000000600082015250565b7f4669726d61205a6174656e204d65766375740000000000000000000000000000600082015250565b7f5361646563652043422062752069736c656d69207961706162696c69722e0000600082015250565b7f536572746966696b61204d65726b657a69205a6174656e204d65766375740000600082015250565b7f536976696c20546f706c756d204b7572756c757375205a6174656e204d65766360008201527f7574000000000000000000000000000000000000000000000000000000000000602082015250565b7f556e6976657273697465205a6174656e204d6576637574000000000000000000600082015250565b7f53616465636520556e69766572736974652062752069736c656d69207961706160008201527f62696c69722e0000000000000000000000000000000000000000000000000000602082015250565b7f416b6164656d697379656e205a6174656e204d65766375740000000000000000600082015250565b7f4b616d75204b75726d75205a6174656e204d6576637574000000000000000000600082015250565b7f53616465636520544f42422062752069736c656d69207961706162696c69722e600082015250565b7f42752069736c656d6920736164656365204b757273207961706162696c69722e600082015250565b60048110612a5557612a5461275a565b5b50565b612a618161262d565b8114612a6c57600080fd5b50565b60048110612a7c57600080fd5b50565b612a888161265e565b8114612a9357600080fd5b50565b612a9f8161268c565b8114612aaa57600080fd5b50565b612ab681612696565b8114612ac157600080fd5b5056fea2646970667358221220dcb3bd840c4c64214471ac4ef4b79379b47381a72e9afc245fee64e1f6fe283a64736f6c63430008070033",
					"opcodes": "PUSH1 0x80 PUSH1 0x40 MSTORE CALLVALUE DUP1 ISZERO PUSH3 0x11 JUMPI PUSH1 0x0 DUP1 REVERT JUMPDEST POP PUSH1 0x40 MLOAD PUSH3 0x2CD2 CODESIZE SUB DUP1 PUSH3 0x2CD2 DUP4 CODECOPY DUP2 DUP2 ADD PUSH1 0x40 MSTORE DUP2 ADD SWAP1 PUSH3 0x37 SWAP2 SWAP1 PUSH3 0x119 JUMP JUMPDEST DUP3 PUSH1 0x0 DUP1 PUSH2 0x100 EXP DUP2 SLOAD DUP2 PUSH20 0xFFFFFFFFFFFFFFFFFFFFFFFFFFFFFFFFFFFFFFFF MUL NOT AND SWAP1 DUP4 PUSH20 0xFFFFFFFFFFFFFFFFFFFFFFFFFFFFFFFFFFFFFFFF AND MUL OR SWAP1 SSTORE POP DUP2 PUSH1 0x1 PUSH1 0x0 PUSH2 0x100 EXP DUP2 SLOAD DUP2 PUSH20 0xFFFFFFFFFFFFFFFFFFFFFFFFFFFFFFFFFFFFFFFF MUL NOT AND SWAP1 DUP4 PUSH20 0xFFFFFFFFFFFFFFFFFFFFFFFFFFFFFFFFFFFFFFFF AND MUL OR SWAP1 SSTORE POP DUP1 PUSH1 0x2 PUSH1 0x0 PUSH2 0x100 EXP DUP2 SLOAD DUP2 PUSH20 0xFFFFFFFFFFFFFFFFFFFFFFFFFFFFFFFFFFFFFFFF MUL NOT AND SWAP1 DUP4 PUSH20 0xFFFFFFFFFFFFFFFFFFFFFFFFFFFFFFFFFFFFFFFF AND MUL OR SWAP1 SSTORE POP POP POP POP PUSH3 0x1C8 JUMP JUMPDEST PUSH1 0x0 DUP2 MLOAD SWAP1 POP PUSH3 0x113 DUP2 PUSH3 0x1AE JUMP JUMPDEST SWAP3 SWAP2 POP POP JUMP JUMPDEST PUSH1 0x0 DUP1 PUSH1 0x0 PUSH1 0x60 DUP5 DUP7 SUB SLT ISZERO PUSH3 0x135 JUMPI PUSH3 0x134 PUSH3 0x1A9 JUMP JUMPDEST JUMPDEST PUSH1 0x0 PUSH3 0x145 DUP7 DUP3 DUP8 ADD PUSH3 0x102 JUMP JUMPDEST SWAP4 POP POP PUSH1 0x20 PUSH3 0x158 DUP7 DUP3 DUP8 ADD PUSH3 0x102 JUMP JUMPDEST SWAP3 POP POP PUSH1 0x40 PUSH3 0x16B DUP7 DUP3 DUP8 ADD PUSH3 0x102 JUMP JUMPDEST SWAP2 POP POP SWAP3 POP SWAP3 POP SWAP3 JUMP JUMPDEST PUSH1 0x0 PUSH3 0x182 DUP3 PUSH3 0x189 JUMP JUMPDEST SWAP1 POP SWAP2 SWAP1 POP JUMP JUMPDEST PUSH1 0x0 PUSH20 0xFFFFFFFFFFFFFFFFFFFFFFFFFFFFFFFFFFFFFFFF DUP3 AND SWAP1 POP SWAP2 SWAP1 POP JUMP JUMPDEST PUSH1 0x0 DUP1 REVERT JUMPDEST PUSH3 0x1B9 DUP2 PUSH3 0x175 JUMP JUMPDEST DUP2 EQ PUSH3 0x1C5 JUMPI PUSH1 0x0 DUP1 REVERT JUMPDEST POP JUMP JUMPDEST PUSH2 0x2AFA DUP1 PUSH3 0x1D8 PUSH1 0x0 CODECOPY PUSH1 0x0 RETURN INVALID PUSH1 0x80 PUSH1 0x40 MSTORE CALLVALUE DUP1 ISZERO PUSH2 0x10 JUMPI PUSH1 0x0 DUP1 REVERT JUMPDEST POP PUSH1 0x4 CALLDATASIZE LT PUSH2 0xF4 JUMPI PUSH1 0x0 CALLDATALOAD PUSH1 0xE0 SHR DUP1 PUSH4 0x46224853 GT PUSH2 0x97 JUMPI DUP1 PUSH4 0xBA479B7E GT PUSH2 0x66 JUMPI DUP1 PUSH4 0xBA479B7E EQ PUSH2 0x2B2 JUMPI DUP1 PUSH4 0xCBC92809 EQ PUSH2 0x2E7 JUMPI DUP1 PUSH4 0xD25AAB85 EQ PUSH2 0x317 JUMPI DUP1 PUSH4 0xF63C649F EQ PUSH2 0x333 JUMPI PUSH2 0xF4 JUMP JUMPDEST DUP1 PUSH4 0x46224853 EQ PUSH2 0x216 JUMPI DUP1 PUSH4 0x7D0FA287 EQ PUSH2 0x232 JUMPI DUP1 PUSH4 0x9A8C9119 EQ PUSH2 0x264 JUMPI DUP1 PUSH4 0x9DC30114 EQ PUSH2 0x296 JUMPI PUSH2 0xF4 JUMP JUMPDEST DUP1 PUSH4 0x1C23F0E1 GT PUSH2 0xD3 JUMPI DUP1 PUSH4 0x1C23F0E1 EQ PUSH2 0x163 JUMPI DUP1 PUSH4 0x28266697 EQ PUSH2 0x17F JUMPI DUP1 PUSH4 0x356B1F1E EQ PUSH2 0x1B1 JUMPI DUP1 PUSH4 0x39987F94 EQ PUSH2 0x1E3 JUMPI PUSH2 0xF4 JUMP JUMPDEST DUP1 PUSH3 0x1D54AB EQ PUSH2 0xF9 JUMPI DUP1 PUSH4 0x19023BF3 EQ PUSH2 0x115 JUMPI DUP1 PUSH4 0x1916E139 EQ PUSH2 0x131 JUMPI JUMPDEST PUSH1 0x0 DUP1 REVERT JUMPDEST PUSH2 0x113 PUSH1 0x4 DUP1 CALLDATASIZE SUB DUP2 ADD SWAP1 PUSH2 0x10E SWAP2 SWAP1 PUSH2 0x1F88 JUMP JUMPDEST PUSH2 0x34F JUMP JUMPDEST STOP JUMPDEST PUSH2 0x12F PUSH1 0x4 DUP1 CALLDATASIZE SUB DUP2 ADD SWAP1 PUSH2 0x12A SWAP2 SWAP1 PUSH2 0x1F88 JUMP JUMPDEST PUSH2 0x5BA JUMP JUMPDEST STOP JUMPDEST PUSH2 0x14B PUSH1 0x4 DUP1 CALLDATASIZE SUB DUP2 ADD SWAP1 PUSH2 0x146 SWAP2 SWAP1 PUSH2 0x1E13 JUMP JUMPDEST PUSH2 0x827 JUMP JUMPDEST PUSH1 0x40 MLOAD PUSH2 0x15A SWAP4 SWAP3 SWAP2 SWAP1 PUSH2 0x23B1 JUMP JUMPDEST PUSH1 0x40 MLOAD DUP1 SWAP2 SUB SWAP1 RETURN JUMPDEST PUSH2 0x17D PUSH1 0x4 DUP1 CALLDATASIZE SUB DUP2 ADD SWAP1 PUSH2 0x178 SWAP2 SWAP1 PUSH2 0x1E40 JUMP JUMPDEST PUSH2 0x8F3 JUMP JUMPDEST STOP JUMPDEST PUSH2 0x199 PUSH1 0x4 DUP1 CALLDATASIZE SUB DUP2 ADD SWAP1 PUSH2 0x194 SWAP2 SWAP1 PUSH2 0x1E13 JUMP JUMPDEST PUSH2 0xC2B JUMP JUMPDEST PUSH1 0x40 MLOAD PUSH2 0x1A8 SWAP4 SWAP3 SWAP2 SWAP1 PUSH2 0x23B1 JUMP JUMPDEST PUSH1 0x40 MLOAD DUP1 SWAP2 SUB SWAP1 RETURN JUMPDEST PUSH2 0x1CB PUSH1 0x4 DUP1 CALLDATASIZE SUB DUP2 ADD SWAP1 PUSH2 0x1C6 SWAP2 SWAP1 PUSH2 0x1E13 JUMP JUMPDEST PUSH2 0xCF7 JUMP JUMPDEST PUSH1 0x40 MLOAD PUSH2 0x1DA SWAP4 SWAP3 SWAP2 SWAP1 PUSH2 0x23B1 JUMP JUMPDEST PUSH1 0x40 MLOAD DUP1 SWAP2 SUB SWAP1 RETURN JUMPDEST PUSH2 0x1FD PUSH1 0x4 DUP1 CALLDATASIZE SUB DUP2 ADD SWAP1 PUSH2 0x1F8 SWAP2 SWAP1 PUSH2 0x1E13 JUMP JUMPDEST PUSH2 0xDC3 JUMP JUMPDEST PUSH1 0x40 MLOAD PUSH2 0x20D SWAP5 SWAP4 SWAP3 SWAP2 SWAP1 PUSH2 0x23EF JUMP JUMPDEST PUSH1 0x40 MLOAD DUP1 SWAP2 SUB SWAP1 RETURN JUMPDEST PUSH2 0x230 PUSH1 0x4 DUP1 CALLDATASIZE SUB DUP2 ADD SWAP1 PUSH2 0x22B SWAP2 SWAP1 PUSH2 0x1F88 JUMP JUMPDEST PUSH2 0xE95 JUMP JUMPDEST STOP JUMPDEST PUSH2 0x24C PUSH1 0x4 DUP1 CALLDATASIZE SUB DUP2 ADD SWAP1 PUSH2 0x247 SWAP2 SWAP1 PUSH2 0x1E13 JUMP JUMPDEST PUSH2 0x11AF JUMP JUMPDEST PUSH1 0x40 MLOAD PUSH2 0x25B SWAP4 SWAP3 SWAP2 SWAP1 PUSH2 0x23B1 JUMP JUMPDEST PUSH1 0x40 MLOAD DUP1 SWAP2 SUB SWAP1 RETURN JUMPDEST PUSH2 0x27E PUSH1 0x4 DUP1 CALLDATASIZE SUB DUP2 ADD SWAP1 PUSH2 0x279 SWAP2 SWAP1 PUSH2 0x1E13 JUMP JUMPDEST PUSH2 0x127B JUMP JUMPDEST PUSH1 0x40 MLOAD PUSH2 0x28D SWAP4 SWAP3 SWAP2 SWAP1 PUSH2 0x23B1 JUMP JUMPDEST PUSH1 0x40 MLOAD DUP1 SWAP2 SUB SWAP1 RETURN JUMPDEST PUSH2 0x2B0 PUSH1 0x4 DUP1 CALLDATASIZE SUB DUP2 ADD SWAP1 PUSH2 0x2AB SWAP2 SWAP1 PUSH2 0x1F88 JUMP JUMPDEST PUSH2 0x1347 JUMP JUMPDEST STOP JUMPDEST PUSH2 0x2CC PUSH1 0x4 DUP1 CALLDATASIZE SUB DUP2 ADD SWAP1 PUSH2 0x2C7 SWAP2 SWAP1 PUSH2 0x1E13 JUMP JUMPDEST PUSH2 0x15B4 JUMP JUMPDEST PUSH1 0x40 MLOAD PUSH2 0x2DE SWAP7 SWAP6 SWAP5 SWAP4 SWAP3 SWAP2 SWAP1 PUSH2 0x2342 JUMP JUMPDEST PUSH1 0x40 MLOAD DUP1 SWAP2 SUB SWAP1 RETURN JUMPDEST PUSH2 0x301 PUSH1 0x4 DUP1 CALLDATASIZE SUB DUP2 ADD SWAP1 PUSH2 0x2FC SWAP2 SWAP1 PUSH2 0x1E13 JUMP JUMPDEST PUSH2 0x1748 JUMP JUMPDEST PUSH1 0x40 MLOAD PUSH2 0x30E SWAP2 SWAP1 PUSH2 0x2327 JUMP JUMPDEST PUSH1 0x40 MLOAD DUP1 SWAP2 SUB SWAP1 RETURN JUMPDEST PUSH2 0x331 PUSH1 0x4 DUP1 CALLDATASIZE SUB DUP2 ADD SWAP1 PUSH2 0x32C SWAP2 SWAP1 PUSH2 0x1F05 JUMP JUMPDEST PUSH2 0x1773 JUMP JUMPDEST STOP JUMPDEST PUSH2 0x34D PUSH1 0x4 DUP1 CALLDATASIZE SUB DUP2 ADD SWAP1 PUSH2 0x348 SWAP2 SWAP1 PUSH2 0x1F88 JUMP JUMPDEST PUSH2 0x1A2A JUMP JUMPDEST STOP JUMPDEST PUSH1 0x0 DUP1 SLOAD SWAP1 PUSH2 0x100 EXP SWAP1 DIV PUSH20 0xFFFFFFFFFFFFFFFFFFFFFFFFFFFFFFFFFFFFFFFF AND PUSH20 0xFFFFFFFFFFFFFFFFFFFFFFFFFFFFFFFFFFFFFFFF AND CALLER PUSH20 0xFFFFFFFFFFFFFFFFFFFFFFFFFFFFFFFFFFFFFFFF AND EQ PUSH2 0x3DD JUMPI PUSH1 0x40 MLOAD PUSH32 0x8C379A000000000000000000000000000000000000000000000000000000000 DUP2 MSTORE PUSH1 0x4 ADD PUSH2 0x3D4 SWAP1 PUSH2 0x243B JUMP JUMPDEST PUSH1 0x40 MLOAD DUP1 SWAP2 SUB SWAP1 REVERT JUMPDEST PUSH1 0x4 PUSH1 0x0 DUP5 PUSH20 0xFFFFFFFFFFFFFFFFFFFFFFFFFFFFFFFFFFFFFFFF AND PUSH20 0xFFFFFFFFFFFFFFFFFFFFFFFFFFFFFFFFFFFFFFFF AND DUP2 MSTORE PUSH1 0x20 ADD SWAP1 DUP2 MSTORE PUSH1 0x20 ADD PUSH1 0x0 KECCAK256 PUSH1 0x0 ADD PUSH1 0x0 SWAP1 SLOAD SWAP1 PUSH2 0x100 EXP SWAP1 DIV PUSH1 0xFF AND ISZERO PUSH2 0x46D JUMPI PUSH1 0x40 MLOAD PUSH32 0x8C379A000000000000000000000000000000000000000000000000000000000 DUP2 MSTORE PUSH1 0x4 ADD PUSH2 0x464 SWAP1 PUSH2 0x24FB JUMP JUMPDEST PUSH1 0x40 MLOAD DUP1 SWAP2 SUB SWAP1 REVERT JUMPDEST PUSH1 0x1 PUSH1 0x4 PUSH1 0x0 DUP6 PUSH20 0xFFFFFFFFFFFFFFFFFFFFFFFFFFFFFFFFFFFFFFFF AND PUSH20 0xFFFFFFFFFFFFFFFFFFFFFFFFFFFFFFFFFFFFFFFF AND DUP2 MSTORE PUSH1 0x20 ADD SWAP1 DUP2 MSTORE PUSH1 0x20 ADD PUSH1 0x0 KECCAK256 PUSH1 0x0 ADD PUSH1 0x0 PUSH2 0x100 EXP DUP2 SLOAD DUP2 PUSH1 0xFF MUL NOT AND SWAP1 DUP4 ISZERO ISZERO MUL OR SWAP1 SSTORE POP DUP2 PUSH1 0x4 PUSH1 0x0 DUP6 PUSH20 0xFFFFFFFFFFFFFFFFFFFFFFFFFFFFFFFFFFFFFFFF AND PUSH20 0xFFFFFFFFFFFFFFFFFFFFFFFFFFFFFFFFFFFFFFFF AND DUP2 MSTORE PUSH1 0x20 ADD SWAP1 DUP2 MSTORE PUSH1 0x20 ADD PUSH1 0x0 KECCAK256 PUSH1 0x1 ADD SWAP1 DUP1 MLOAD SWAP1 PUSH1 0x20 ADD SWAP1 PUSH2 0x51E SWAP3 SWAP2 SWAP1 PUSH2 0x1C97 JUMP JUMPDEST POP DUP1 PUSH1 0x4 PUSH1 0x0 DUP6 PUSH20 0xFFFFFFFFFFFFFFFFFFFFFFFFFFFFFFFFFFFFFFFF AND PUSH20 0xFFFFFFFFFFFFFFFFFFFFFFFFFFFFFFFFFFFFFFFF AND DUP2 MSTORE PUSH1 0x20 ADD SWAP1 DUP2 MSTORE PUSH1 0x20 ADD PUSH1 0x0 KECCAK256 PUSH1 0x2 ADD PUSH1 0x0 PUSH2 0x100 EXP DUP2 SLOAD DUP2 PUSH1 0xFF MUL NOT AND SWAP1 DUP4 PUSH1 0xFF AND MUL OR SWAP1 SSTORE POP PUSH32 0x750AE9C195D9B95B8C17BF0FA25801932D5A28C4871F4571AF70581BC15F5BFE DUP4 DUP4 DUP4 PUSH1 0x40 MLOAD PUSH2 0x5AD SWAP4 SWAP3 SWAP2 SWAP1 PUSH2 0x22E9 JUMP JUMPDEST PUSH1 0x40 MLOAD DUP1 SWAP2 SUB SWAP1 LOG1 POP POP POP JUMP JUMPDEST PUSH1 0x2 PUSH1 0x0 SWAP1 SLOAD SWAP1 PUSH2 0x100 EXP SWAP1 DIV PUSH20 0xFFFFFFFFFFFFFFFFFFFFFFFFFFFFFFFFFFFFFFFF AND PUSH20 0xFFFFFFFFFFFFFFFFFFFFFFFFFFFFFFFFFFFFFFFF AND CALLER PUSH20 0xFFFFFFFFFFFFFFFFFFFFFFFFFFFFFFFFFFFFFFFF AND EQ PUSH2 0x64A JUMPI PUSH1 0x40 MLOAD PUSH32 0x8C379A000000000000000000000000000000000000000000000000000000000 DUP2 MSTORE PUSH1 0x4 ADD PUSH2 0x641 SWAP1 PUSH2 0x249B JUMP JUMPDEST PUSH1 0x40 MLOAD DUP1 SWAP2 SUB SWAP1 REVERT JUMPDEST PUSH1 0x9 PUSH1 0x0 DUP5 PUSH20 0xFFFFFFFFFFFFFFFFFFFFFFFFFFFFFFFFFFFFFFFF AND PUSH20 0xFFFFFFFFFFFFFFFFFFFFFFFFFFFFFFFFFFFFFFFF AND DUP2 MSTORE PUSH1 0x20 ADD SWAP1 DUP2 MSTORE PUSH1 0x20 ADD PUSH1 0x0 KECCAK256 PUSH1 0x0 ADD PUSH1 0x0 SWAP1 SLOAD SWAP1 PUSH2 0x100 EXP SWAP1 DIV PUSH1 0xFF AND ISZERO PUSH2 0x6DA JUMPI PUSH1 0x40 MLOAD PUSH32 0x8C379A000000000000000000000000000000000000000000000000000000000 DUP2 MSTORE PUSH1 0x4 ADD PUSH2 0x6D1 SWAP1 PUSH2 0x24DB JUMP JUMPDEST PUSH1 0x40 MLOAD DUP1 SWAP2 SUB SWAP1 REVERT JUMPDEST PUSH1 0x1 PUSH1 0x9 PUSH1 0x0 DUP6 PUSH20 0xFFFFFFFFFFFFFFFFFFFFFFFFFFFFFFFFFFFFFFFF AND PUSH20 0xFFFFFFFFFFFFFFFFFFFFFFFFFFFFFFFFFFFFFFFF AND DUP2 MSTORE PUSH1 0x20 ADD SWAP1 DUP2 MSTORE PUSH1 0x20 ADD PUSH1 0x0 KECCAK256 PUSH1 0x0 ADD PUSH1 0x0 PUSH2 0x100 EXP DUP2 SLOAD DUP2 PUSH1 0xFF MUL NOT AND SWAP1 DUP4 ISZERO ISZERO MUL OR SWAP1 SSTORE POP DUP2 PUSH1 0x9 PUSH1 0x0 DUP6 PUSH20 0xFFFFFFFFFFFFFFFFFFFFFFFFFFFFFFFFFFFFFFFF AND PUSH20 0xFFFFFFFFFFFFFFFFFFFFFFFFFFFFFFFFFFFFFFFF AND DUP2 MSTORE PUSH1 0x20 ADD SWAP1 DUP2 MSTORE PUSH1 0x20 ADD PUSH1 0x0 KECCAK256 PUSH1 0x1 ADD SWAP1 DUP1 MLOAD SWAP1 PUSH1 0x20 ADD SWAP1 PUSH2 0x78B SWAP3 SWAP2 SWAP1 PUSH2 0x1C97 JUMP JUMPDEST POP DUP1 PUSH1 0x9 PUSH1 0x0 DUP6 PUSH20 0xFFFFFFFFFFFFFFFFFFFFFFFFFFFFFFFFFFFFFFFF AND PUSH20 0xFFFFFFFFFFFFFFFFFFFFFFFFFFFFFFFFFFFFFFFF AND DUP2 MSTORE PUSH1 0x20 ADD SWAP1 DUP2 MSTORE PUSH1 0x20 ADD PUSH1 0x0 KECCAK256 PUSH1 0x2 ADD PUSH1 0x0 PUSH2 0x100 EXP DUP2 SLOAD DUP2 PUSH1 0xFF MUL NOT AND SWAP1 DUP4 PUSH1 0xFF AND MUL OR SWAP1 SSTORE POP PUSH32 0x1993679D861F13477B3E16FF3B01C1C9E471E0F6F2E30A363662C257F7207450 DUP4 DUP4 DUP4 PUSH1 0x40 MLOAD PUSH2 0x81A SWAP4 SWAP3 SWAP2 SWAP1 PUSH2 0x22E9 JUMP JUMPDEST PUSH1 0x40 MLOAD DUP1 SWAP2 SUB SWAP1 LOG1 POP POP POP JUMP JUMPDEST PUSH1 0x7 PUSH1 0x20 MSTORE DUP1 PUSH1 0x0 MSTORE PUSH1 0x40 PUSH1 0x0 KECCAK256 PUSH1 0x0 SWAP2 POP SWAP1 POP DUP1 PUSH1 0x0 ADD PUSH1 0x0 SWAP1 SLOAD SWAP1 PUSH2 0x100 EXP SWAP1 DIV PUSH1 0xFF AND SWAP1 DUP1 PUSH1 0x1 ADD DUP1 SLOAD PUSH2 0x85D SWAP1 PUSH2 0x26F7 JUMP JUMPDEST DUP1 PUSH1 0x1F ADD PUSH1 0x20 DUP1 SWAP2 DIV MUL PUSH1 0x20 ADD PUSH1 0x40 MLOAD SWAP1 DUP2 ADD PUSH1 0x40 MSTORE DUP1 SWAP3 SWAP2 SWAP1 DUP2 DUP2 MSTORE PUSH1 0x20 ADD DUP3 DUP1 SLOAD PUSH2 0x889 SWAP1 PUSH2 0x26F7 JUMP JUMPDEST DUP1 ISZERO PUSH2 0x8D6 JUMPI DUP1 PUSH1 0x1F LT PUSH2 0x8AB JUMPI PUSH2 0x100 DUP1 DUP4 SLOAD DIV MUL DUP4 MSTORE SWAP2 PUSH1 0x20 ADD SWAP2 PUSH2 0x8D6 JUMP JUMPDEST DUP3 ADD SWAP2 SWAP1 PUSH1 0x0 MSTORE PUSH1 0x20 PUSH1 0x0 KECCAK256 SWAP1 JUMPDEST DUP2 SLOAD DUP2 MSTORE SWAP1 PUSH1 0x1 ADD SWAP1 PUSH1 0x20 ADD DUP1 DUP4 GT PUSH2 0x8B9 JUMPI DUP3 SWAP1 SUB PUSH1 0x1F AND DUP3 ADD SWAP2 JUMPDEST POP POP POP POP POP SWAP1 DUP1 PUSH1 0x2 ADD PUSH1 0x0 SWAP1 SLOAD SWAP1 PUSH2 0x100 EXP SWAP1 DIV PUSH1 0xFF AND SWAP1 POP DUP4 JUMP JUMPDEST PUSH1 0x4 PUSH1 0x0 CALLER PUSH20 0xFFFFFFFFFFFFFFFFFFFFFFFFFFFFFFFFFFFFFFFF AND PUSH20 0xFFFFFFFFFFFFFFFFFFFFFFFFFFFFFFFFFFFFFFFF AND DUP2 MSTORE PUSH1 0x20 ADD SWAP1 DUP2 MSTORE PUSH1 0x20 ADD PUSH1 0x0 KECCAK256 PUSH1 0x0 ADD PUSH1 0x0 SWAP1 SLOAD SWAP1 PUSH2 0x100 EXP SWAP1 DIV PUSH1 0xFF AND PUSH2 0x982 JUMPI PUSH1 0x40 MLOAD PUSH32 0x8C379A000000000000000000000000000000000000000000000000000000000 DUP2 MSTORE PUSH1 0x4 ADD PUSH2 0x979 SWAP1 PUSH2 0x251B JUMP JUMPDEST PUSH1 0x40 MLOAD DUP1 SWAP2 SUB SWAP1 REVERT JUMPDEST PUSH1 0x5 PUSH1 0x0 DUP8 PUSH20 0xFFFFFFFFFFFFFFFFFFFFFFFFFFFFFFFFFFFFFFFF AND PUSH20 0xFFFFFFFFFFFFFFFFFFFFFFFFFFFFFFFFFFFFFFFF AND DUP2 MSTORE PUSH1 0x20 ADD SWAP1 DUP2 MSTORE PUSH1 0x20 ADD PUSH1 0x0 KECCAK256 PUSH1 0x0 ADD PUSH1 0x0 SWAP1 SLOAD SWAP1 PUSH2 0x100 EXP SWAP1 DIV PUSH1 0xFF AND ISZERO PUSH2 0xA12 JUMPI PUSH1 0x40 MLOAD PUSH32 0x8C379A000000000000000000000000000000000000000000000000000000000 DUP2 MSTORE PUSH1 0x4 ADD PUSH2 0xA09 SWAP1 PUSH2 0x253B JUMP JUMPDEST PUSH1 0x40 MLOAD DUP1 SWAP2 SUB SWAP1 REVERT JUMPDEST PUSH1 0x1 PUSH1 0x5 PUSH1 0x0 DUP9 PUSH20 0xFFFFFFFFFFFFFFFFFFFFFFFFFFFFFFFFFFFFFFFF AND PUSH20 0xFFFFFFFFFFFFFFFFFFFFFFFFFFFFFFFFFFFFFFFF AND DUP2 MSTORE PUSH1 0x20 ADD SWAP1 DUP2 MSTORE PUSH1 0x20 ADD PUSH1 0x0 KECCAK256 PUSH1 0x0 ADD PUSH1 0x0 PUSH2 0x100 EXP DUP2 SLOAD DUP2 PUSH1 0xFF MUL NOT AND SWAP1 DUP4 ISZERO ISZERO MUL OR SWAP1 SSTORE POP DUP4 PUSH1 0x5 PUSH1 0x0 DUP9 PUSH20 0xFFFFFFFFFFFFFFFFFFFFFFFFFFFFFFFFFFFFFFFF AND PUSH20 0xFFFFFFFFFFFFFFFFFFFFFFFFFFFFFFFFFFFFFFFF AND DUP2 MSTORE PUSH1 0x20 ADD SWAP1 DUP2 MSTORE PUSH1 0x20 ADD PUSH1 0x0 KECCAK256 PUSH1 0x1 ADD SWAP1 DUP1 MLOAD SWAP1 PUSH1 0x20 ADD SWAP1 PUSH2 0xAC3 SWAP3 SWAP2 SWAP1 PUSH2 0x1C97 JUMP JUMPDEST POP DUP3 PUSH1 0x5 PUSH1 0x0 DUP9 PUSH20 0xFFFFFFFFFFFFFFFFFFFFFFFFFFFFFFFFFFFFFFFF AND PUSH20 0xFFFFFFFFFFFFFFFFFFFFFFFFFFFFFFFFFFFFFFFF AND DUP2 MSTORE PUSH1 0x20 ADD SWAP1 DUP2 MSTORE PUSH1 0x20 ADD PUSH1 0x0 KECCAK256 PUSH1 0x2 ADD SWAP1 DUP1 MLOAD SWAP1 PUSH1 0x20 ADD SWAP1 PUSH2 0xB1A SWAP3 SWAP2 SWAP1 PUSH2 0x1C97 JUMP JUMPDEST POP DUP2 PUSH1 0x5 PUSH1 0x0 DUP9 PUSH20 0xFFFFFFFFFFFFFFFFFFFFFFFFFFFFFFFFFFFFFFFF AND PUSH20 0xFFFFFFFFFFFFFFFFFFFFFFFFFFFFFFFFFFFFFFFF AND DUP2 MSTORE PUSH1 0x20 ADD SWAP1 DUP2 MSTORE PUSH1 0x20 ADD PUSH1 0x0 KECCAK256 PUSH1 0x0 ADD PUSH1 0x15 PUSH2 0x100 EXP DUP2 SLOAD DUP2 PUSH2 0xFFFF MUL NOT AND SWAP1 DUP4 PUSH2 0xFFFF AND MUL OR SWAP1 SSTORE POP DUP1 PUSH1 0x5 PUSH1 0x0 DUP9 PUSH20 0xFFFFFFFFFFFFFFFFFFFFFFFFFFFFFFFFFFFFFFFF AND PUSH20 0xFFFFFFFFFFFFFFFFFFFFFFFFFFFFFFFFFFFFFFFF AND DUP2 MSTORE PUSH1 0x20 ADD SWAP1 DUP2 MSTORE PUSH1 0x20 ADD PUSH1 0x0 KECCAK256 PUSH1 0x0 ADD PUSH1 0x17 PUSH2 0x100 EXP DUP2 SLOAD DUP2 PUSH1 0xFF MUL NOT AND SWAP1 DUP4 PUSH1 0x3 DUP2 GT ISZERO PUSH2 0xBDD JUMPI PUSH2 0xBDC PUSH2 0x275A JUMP JUMPDEST JUMPDEST MUL OR SWAP1 SSTORE POP PUSH32 0xC9EFD466D9A1950AD2164252EDDA662048BCA360D86FE9602A80D3DADFED1754 DUP7 DUP7 DUP7 DUP7 DUP7 DUP7 PUSH1 0x40 MLOAD PUSH2 0xC1B SWAP7 SWAP6 SWAP5 SWAP4 SWAP3 SWAP2 SWAP1 PUSH2 0x222E JUMP JUMPDEST PUSH1 0x40 MLOAD DUP1 SWAP2 SUB SWAP1 LOG1 POP POP POP POP POP POP JUMP JUMPDEST PUSH1 0x4 PUSH1 0x20 MSTORE DUP1 PUSH1 0x0 MSTORE PUSH1 0x40 PUSH1 0x0 KECCAK256 PUSH1 0x0 SWAP2 POP SWAP1 POP DUP1 PUSH1 0x0 ADD PUSH1 0x0 SWAP1 SLOAD SWAP1 PUSH2 0x100 EXP SWAP1 DIV PUSH1 0xFF AND SWAP1 DUP1 PUSH1 0x1 ADD DUP1 SLOAD PUSH2 0xC61 SWAP1 PUSH2 0x26F7 JUMP JUMPDEST DUP1 PUSH1 0x1F ADD PUSH1 0x20 DUP1 SWAP2 DIV MUL PUSH1 0x20 ADD PUSH1 0x40 MLOAD SWAP1 DUP2 ADD PUSH1 0x40 MSTORE DUP1 SWAP3 SWAP2 SWAP1 DUP2 DUP2 MSTORE PUSH1 0x20 ADD DUP3 DUP1 SLOAD PUSH2 0xC8D SWAP1 PUSH2 0x26F7 JUMP JUMPDEST DUP1 ISZERO PUSH2 0xCDA JUMPI DUP1 PUSH1 0x1F LT PUSH2 0xCAF JUMPI PUSH2 0x100 DUP1 DUP4 SLOAD DIV MUL DUP4 MSTORE SWAP2 PUSH1 0x20 ADD SWAP2 PUSH2 0xCDA JUMP JUMPDEST DUP3 ADD SWAP2 SWAP1 PUSH1 0x0 MSTORE PUSH1 0x20 PUSH1 0x0 KECCAK256 SWAP1 JUMPDEST DUP2 SLOAD DUP2 MSTORE SWAP1 PUSH1 0x1 ADD SWAP1 PUSH1 0x20 ADD DUP1 DUP4 GT PUSH2 0xCBD JUMPI DUP3 SWAP1 SUB PUSH1 0x1F AND DUP3 ADD SWAP2 JUMPDEST POP POP POP POP POP SWAP1 DUP1 PUSH1 0x2 ADD PUSH1 0x0 SWAP1 SLOAD SWAP1 PUSH2 0x100 EXP SWAP1 DIV PUSH1 0xFF AND SWAP1 POP DUP4 JUMP JUMPDEST PUSH1 0xA PUSH1 0x20 MSTORE DUP1 PUSH1 0x0 MSTORE PUSH1 0x40 PUSH1 0x0 KECCAK256 PUSH1 0x0 SWAP2 POP SWAP1 POP DUP1 PUSH1 0x0 ADD PUSH1 0x0 SWAP1 SLOAD SWAP1 PUSH2 0x100 EXP SWAP1 DIV PUSH1 0xFF AND SWAP1 DUP1 PUSH1 0x1 ADD DUP1 SLOAD PUSH2 0xD2D SWAP1 PUSH2 0x26F7 JUMP JUMPDEST DUP1 PUSH1 0x1F ADD PUSH1 0x20 DUP1 SWAP2 DIV MUL PUSH1 0x20 ADD PUSH1 0x40 MLOAD SWAP1 DUP2 ADD PUSH1 0x40 MSTORE DUP1 SWAP3 SWAP2 SWAP1 DUP2 DUP2 MSTORE PUSH1 0x20 ADD DUP3 DUP1 SLOAD PUSH2 0xD59 SWAP1 PUSH2 0x26F7 JUMP JUMPDEST DUP1 ISZERO PUSH2 0xDA6 JUMPI DUP1 PUSH1 0x1F LT PUSH2 0xD7B JUMPI PUSH2 0x100 DUP1 DUP4 SLOAD DIV MUL DUP4 MSTORE SWAP2 PUSH1 0x20 ADD SWAP2 PUSH2 0xDA6 JUMP JUMPDEST DUP3 ADD SWAP2 SWAP1 PUSH1 0x0 MSTORE PUSH1 0x20 PUSH1 0x0 KECCAK256 SWAP1 JUMPDEST DUP2 SLOAD DUP2 MSTORE SWAP1 PUSH1 0x1 ADD SWAP1 PUSH1 0x20 ADD DUP1 DUP4 GT PUSH2 0xD89 JUMPI DUP3 SWAP1 SUB PUSH1 0x1F AND DUP3 ADD SWAP2 JUMPDEST POP POP POP POP POP SWAP1 DUP1 PUSH1 0x2 ADD PUSH1 0x0 SWAP1 SLOAD SWAP1 PUSH2 0x100 EXP SWAP1 DIV PUSH1 0xFF AND SWAP1 POP DUP4 JUMP JUMPDEST PUSH1 0x6 PUSH1 0x20 MSTORE DUP1 PUSH1 0x0 MSTORE PUSH1 0x40 PUSH1 0x0 KECCAK256 PUSH1 0x0 SWAP2 POP SWAP1 POP DUP1 PUSH1 0x0 ADD PUSH1 0x0 SWAP1 SLOAD SWAP1 PUSH2 0x100 EXP SWAP1 DIV PUSH1 0xFF AND SWAP1 DUP1 PUSH1 0x0 ADD PUSH1 0x1 SWAP1 SLOAD SWAP1 PUSH2 0x100 EXP SWAP1 DIV PUSH1 0xFF AND SWAP1 DUP1 PUSH1 0x1 ADD SLOAD SWAP1 DUP1 PUSH1 0x2 ADD DUP1 SLOAD PUSH2 0xE12 SWAP1 PUSH2 0x26F7 JUMP JUMPDEST DUP1 PUSH1 0x1F ADD PUSH1 0x20 DUP1 SWAP2 DIV MUL PUSH1 0x20 ADD PUSH1 0x40 MLOAD SWAP1 DUP2 ADD PUSH1 0x40 MSTORE DUP1 SWAP3 SWAP2 SWAP1 DUP2 DUP2 MSTORE PUSH1 0x20 ADD DUP3 DUP1 SLOAD PUSH2 0xE3E SWAP1 PUSH2 0x26F7 JUMP JUMPDEST DUP1 ISZERO PUSH2 0xE8B JUMPI DUP1 PUSH1 0x1F LT PUSH2 0xE60 JUMPI PUSH2 0x100 DUP1 DUP4 SLOAD DIV MUL DUP4 MSTORE SWAP2 PUSH1 0x20 ADD SWAP2 PUSH2 0xE8B JUMP JUMPDEST DUP3 ADD SWAP2 SWAP1 PUSH1 0x0 MSTORE PUSH1 0x20 PUSH1 0x0 KECCAK256 SWAP1 JUMPDEST DUP2 SLOAD DUP2 MSTORE SWAP1 PUSH1 0x1 ADD SWAP1 PUSH1 0x20 ADD DUP1 DUP4 GT PUSH2 0xE6E JUMPI DUP3 SWAP1 SUB PUSH1 0x1F AND DUP3 ADD SWAP2 JUMPDEST POP POP POP POP POP SWAP1 POP DUP5 JUMP JUMPDEST PUSH1 0x4 PUSH1 0x0 CALLER PUSH20 0xFFFFFFFFFFFFFFFFFFFFFFFFFFFFFFFFFFFFFFFF AND PUSH20 0xFFFFFFFFFFFFFFFFFFFFFFFFFFFFFFFFFFFFFFFF AND DUP2 MSTORE PUSH1 0x20 ADD SWAP1 DUP2 MSTORE PUSH1 0x20 ADD PUSH1 0x0 KECCAK256 PUSH1 0x0 ADD PUSH1 0x0 SWAP1 SLOAD SWAP1 PUSH2 0x100 EXP SWAP1 DIV PUSH1 0xFF AND DUP1 PUSH2 0xF3C JUMPI POP PUSH1 0x6 PUSH1 0x0 CALLER PUSH20 0xFFFFFFFFFFFFFFFFFFFFFFFFFFFFFFFFFFFFFFFF AND PUSH20 0xFFFFFFFFFFFFFFFFFFFFFFFFFFFFFFFFFFFFFFFF AND DUP2 MSTORE PUSH1 0x20 ADD SWAP1 DUP2 MSTORE PUSH1 0x20 ADD PUSH1 0x0 KECCAK256 PUSH1 0x0 ADD PUSH1 0x0 SWAP1 SLOAD SWAP1 PUSH2 0x100 EXP SWAP1 DIV PUSH1 0xFF AND JUMPDEST DUP1 PUSH2 0xF93 JUMPI POP PUSH1 0x8 PUSH1 0x0 CALLER PUSH20 0xFFFFFFFFFFFFFFFFFFFFFFFFFFFFFFFFFFFFFFFF AND PUSH20 0xFFFFFFFFFFFFFFFFFFFFFFFFFFFFFFFFFFFFFFFF AND DUP2 MSTORE PUSH1 0x20 ADD SWAP1 DUP2 MSTORE PUSH1 0x20 ADD PUSH1 0x0 KECCAK256 PUSH1 0x0 ADD PUSH1 0x0 SWAP1 SLOAD SWAP1 PUSH2 0x100 EXP SWAP1 DIV PUSH1 0xFF AND JUMPDEST PUSH2 0xFD2 JUMPI PUSH1 0x40 MLOAD PUSH32 0x8C379A000000000000000000000000000000000000000000000000000000000 DUP2 MSTORE PUSH1 0x4 ADD PUSH2 0xFC9 SWAP1 PUSH2 0x259B JUMP JUMPDEST PUSH1 0x40 MLOAD DUP1 SWAP2 SUB SWAP1 REVERT JUMPDEST PUSH1 0x7 PUSH1 0x0 DUP5 PUSH20 0xFFFFFFFFFFFFFFFFFFFFFFFFFFFFFFFFFFFFFFFF AND PUSH20 0xFFFFFFFFFFFFFFFFFFFFFFFFFFFFFFFFFFFFFFFF AND DUP2 MSTORE PUSH1 0x20 ADD SWAP1 DUP2 MSTORE PUSH1 0x20 ADD PUSH1 0x0 KECCAK256 PUSH1 0x0 ADD PUSH1 0x0 SWAP1 SLOAD SWAP1 PUSH2 0x100 EXP SWAP1 DIV PUSH1 0xFF AND ISZERO PUSH2 0x1062 JUMPI PUSH1 0x40 MLOAD PUSH32 0x8C379A000000000000000000000000000000000000000000000000000000000 DUP2 MSTORE PUSH1 0x4 ADD PUSH2 0x1059 SWAP1 PUSH2 0x245B JUMP JUMPDEST PUSH1 0x40 MLOAD DUP1 SWAP2 SUB SWAP1 REVERT JUMPDEST PUSH1 0x1 PUSH1 0x7 PUSH1 0x0 DUP6 PUSH20 0xFFFFFFFFFFFFFFFFFFFFFFFFFFFFFFFFFFFFFFFF AND PUSH20 0xFFFFFFFFFFFFFFFFFFFFFFFFFFFFFFFFFFFFFFFF AND DUP2 MSTORE PUSH1 0x20 ADD SWAP1 DUP2 MSTORE PUSH1 0x20 ADD PUSH1 0x0 KECCAK256 PUSH1 0x0 ADD PUSH1 0x0 PUSH2 0x100 EXP DUP2 SLOAD DUP2 PUSH1 0xFF MUL NOT AND SWAP1 DUP4 ISZERO ISZERO MUL OR SWAP1 SSTORE POP DUP2 PUSH1 0x7 PUSH1 0x0 DUP6 PUSH20 0xFFFFFFFFFFFFFFFFFFFFFFFFFFFFFFFFFFFFFFFF AND PUSH20 0xFFFFFFFFFFFFFFFFFFFFFFFFFFFFFFFFFFFFFFFF AND DUP2 MSTORE PUSH1 0x20 ADD SWAP1 DUP2 MSTORE PUSH1 0x20 ADD PUSH1 0x0 KECCAK256 PUSH1 0x1 ADD SWAP1 DUP1 MLOAD SWAP1 PUSH1 0x20 ADD SWAP1 PUSH2 0x1113 SWAP3 SWAP2 SWAP1 PUSH2 0x1C97 JUMP JUMPDEST POP DUP1 PUSH1 0x7 PUSH1 0x0 DUP6 PUSH20 0xFFFFFFFFFFFFFFFFFFFFFFFFFFFFFFFFFFFFFFFF AND PUSH20 0xFFFFFFFFFFFFFFFFFFFFFFFFFFFFFFFFFFFFFFFF AND DUP2 MSTORE PUSH1 0x20 ADD SWAP1 DUP2 MSTORE PUSH1 0x20 ADD PUSH1 0x0 KECCAK256 PUSH1 0x2 ADD PUSH1 0x0 PUSH2 0x100 EXP DUP2 SLOAD DUP2 PUSH1 0xFF MUL NOT AND SWAP1 DUP4 PUSH1 0xFF AND MUL OR SWAP1 SSTORE POP PUSH32 0x6BB7B94BFDC5D1CAC19E058D529AFF5DF791333F0BB6164D9647D8915812FB1F DUP4 DUP4 DUP4 PUSH1 0x40 MLOAD PUSH2 0x11A2 SWAP4 SWAP3 SWAP2 SWAP1 PUSH2 0x22E9 JUMP JUMPDEST PUSH1 0x40 MLOAD DUP1 SWAP2 SUB SWAP1 LOG1 POP POP POP JUMP JUMPDEST PUSH1 0x8 PUSH1 0x20 MSTORE DUP1 PUSH1 0x0 MSTORE PUSH1 0x40 PUSH1 0x0 KECCAK256 PUSH1 0x0 SWAP2 POP SWAP1 POP DUP1 PUSH1 0x0 ADD PUSH1 0x0 SWAP1 SLOAD SWAP1 PUSH2 0x100 EXP SWAP1 DIV PUSH1 0xFF AND SWAP1 DUP1 PUSH1 0x1 ADD DUP1 SLOAD PUSH2 0x11E5 SWAP1 PUSH2 0x26F7 JUMP JUMPDEST DUP1 PUSH1 0x1F ADD PUSH1 0x20 DUP1 SWAP2 DIV MUL PUSH1 0x20 ADD PUSH1 0x40 MLOAD SWAP1 DUP2 ADD PUSH1 0x40 MSTORE DUP1 SWAP3 SWAP2 SWAP1 DUP2 DUP2 MSTORE PUSH1 0x20 ADD DUP3 DUP1 SLOAD PUSH2 0x1211 SWAP1 PUSH2 0x26F7 JUMP JUMPDEST DUP1 ISZERO PUSH2 0x125E JUMPI DUP1 PUSH1 0x1F LT PUSH2 0x1233 JUMPI PUSH2 0x100 DUP1 DUP4 SLOAD DIV MUL DUP4 MSTORE SWAP2 PUSH1 0x20 ADD SWAP2 PUSH2 0x125E JUMP JUMPDEST DUP3 ADD SWAP2 SWAP1 PUSH1 0x0 MSTORE PUSH1 0x20 PUSH1 0x0 KECCAK256 SWAP1 JUMPDEST DUP2 SLOAD DUP2 MSTORE SWAP1 PUSH1 0x1 ADD SWAP1 PUSH1 0x20 ADD DUP1 DUP4 GT PUSH2 0x1241 JUMPI DUP3 SWAP1 SUB PUSH1 0x1F AND DUP3 ADD SWAP2 JUMPDEST POP POP POP POP POP SWAP1 DUP1 PUSH1 0x2 ADD PUSH1 0x0 SWAP1 SLOAD SWAP1 PUSH2 0x100 EXP SWAP1 DIV PUSH1 0xFF AND SWAP1 POP DUP4 JUMP JUMPDEST PUSH1 0x9 PUSH1 0x20 MSTORE DUP1 PUSH1 0x0 MSTORE PUSH1 0x40 PUSH1 0x0 KECCAK256 PUSH1 0x0 SWAP2 POP SWAP1 POP DUP1 PUSH1 0x0 ADD PUSH1 0x0 SWAP1 SLOAD SWAP1 PUSH2 0x100 EXP SWAP1 DIV PUSH1 0xFF AND SWAP1 DUP1 PUSH1 0x1 ADD DUP1 SLOAD PUSH2 0x12B1 SWAP1 PUSH2 0x26F7 JUMP JUMPDEST DUP1 PUSH1 0x1F ADD PUSH1 0x20 DUP1 SWAP2 DIV MUL PUSH1 0x20 ADD PUSH1 0x40 MLOAD SWAP1 DUP2 ADD PUSH1 0x40 MSTORE DUP1 SWAP3 SWAP2 SWAP1 DUP2 DUP2 MSTORE PUSH1 0x20 ADD DUP3 DUP1 SLOAD PUSH2 0x12DD SWAP1 PUSH2 0x26F7 JUMP JUMPDEST DUP1 ISZERO PUSH2 0x132A JUMPI DUP1 PUSH1 0x1F LT PUSH2 0x12FF JUMPI PUSH2 0x100 DUP1 DUP4 SLOAD DIV MUL DUP4 MSTORE SWAP2 PUSH1 0x20 ADD SWAP2 PUSH2 0x132A JUMP JUMPDEST DUP3 ADD SWAP2 SWAP1 PUSH1 0x0 MSTORE PUSH1 0x20 PUSH1 0x0 KECCAK256 SWAP1 JUMPDEST DUP2 SLOAD DUP2 MSTORE SWAP1 PUSH1 0x1 ADD SWAP1 PUSH1 0x20 ADD DUP1 DUP4 GT PUSH2 0x130D JUMPI DUP3 SWAP1 SUB PUSH1 0x1F AND DUP3 ADD SWAP2 JUMPDEST POP POP POP POP POP SWAP1 DUP1 PUSH1 0x2 ADD PUSH1 0x0 SWAP1 SLOAD SWAP1 PUSH2 0x100 EXP SWAP1 DIV PUSH1 0xFF AND SWAP1 POP DUP4 JUMP JUMPDEST PUSH1 0x1 PUSH1 0x0 SWAP1 SLOAD SWAP1 PUSH2 0x100 EXP SWAP1 DIV PUSH20 0xFFFFFFFFFFFFFFFFFFFFFFFFFFFFFFFFFFFFFFFF AND PUSH20 0xFFFFFFFFFFFFFFFFFFFFFFFFFFFFFFFFFFFFFFFF AND CALLER PUSH20 0xFFFFFFFFFFFFFFFFFFFFFFFFFFFFFFFFFFFFFFFF AND EQ PUSH2 0x13D7 JUMPI PUSH1 0x40 MLOAD PUSH32 0x8C379A000000000000000000000000000000000000000000000000000000000 DUP2 MSTORE PUSH1 0x4 ADD PUSH2 0x13CE SWAP1 PUSH2 0x257B JUMP JUMPDEST PUSH1 0x40 MLOAD DUP1 SWAP2 SUB SWAP1 REVERT JUMPDEST PUSH1 0xA PUSH1 0x0 DUP5 PUSH20 0xFFFFFFFFFFFFFFFFFFFFFFFFFFFFFFFFFFFFFFFF AND PUSH20 0xFFFFFFFFFFFFFFFFFFFFFFFFFFFFFFFFFFFFFFFF AND DUP2 MSTORE PUSH1 0x20 ADD SWAP1 DUP2 MSTORE PUSH1 0x20 ADD PUSH1 0x0 KECCAK256 PUSH1 0x0 ADD PUSH1 0x0 SWAP1 SLOAD SWAP1 PUSH2 0x100 EXP SWAP1 DIV PUSH1 0xFF AND ISZERO PUSH2 0x1467 JUMPI PUSH1 0x40 MLOAD PUSH32 0x8C379A000000000000000000000000000000000000000000000000000000000 DUP2 MSTORE PUSH1 0x4 ADD PUSH2 0x145E SWAP1 PUSH2 0x24BB JUMP JUMPDEST PUSH1 0x40 MLOAD DUP1 SWAP2 SUB SWAP1 REVERT JUMPDEST PUSH1 0x1 PUSH1 0xA PUSH1 0x0 DUP6 PUSH20 0xFFFFFFFFFFFFFFFFFFFFFFFFFFFFFFFFFFFFFFFF AND PUSH20 0xFFFFFFFFFFFFFFFFFFFFFFFFFFFFFFFFFFFFFFFF AND DUP2 MSTORE PUSH1 0x20 ADD SWAP1 DUP2 MSTORE PUSH1 0x20 ADD PUSH1 0x0 KECCAK256 PUSH1 0x0 ADD PUSH1 0x0 PUSH2 0x100 EXP DUP2 SLOAD DUP2 PUSH1 0xFF MUL NOT AND SWAP1 DUP4 ISZERO ISZERO MUL OR SWAP1 SSTORE POP DUP2 PUSH1 0xA PUSH1 0x0 DUP6 PUSH20 0xFFFFFFFFFFFFFFFFFFFFFFFFFFFFFFFFFFFFFFFF AND PUSH20 0xFFFFFFFFFFFFFFFFFFFFFFFFFFFFFFFFFFFFFFFF AND DUP2 MSTORE PUSH1 0x20 ADD SWAP1 DUP2 MSTORE PUSH1 0x20 ADD PUSH1 0x0 KECCAK256 PUSH1 0x1 ADD SWAP1 DUP1 MLOAD SWAP1 PUSH1 0x20 ADD SWAP1 PUSH2 0x1518 SWAP3 SWAP2 SWAP1 PUSH2 0x1C97 JUMP JUMPDEST POP DUP1 PUSH1 0xA PUSH1 0x0 DUP6 PUSH20 0xFFFFFFFFFFFFFFFFFFFFFFFFFFFFFFFFFFFFFFFF AND PUSH20 0xFFFFFFFFFFFFFFFFFFFFFFFFFFFFFFFFFFFFFFFF AND DUP2 MSTORE PUSH1 0x20 ADD SWAP1 DUP2 MSTORE PUSH1 0x20 ADD PUSH1 0x0 KECCAK256 PUSH1 0x2 ADD PUSH1 0x0 PUSH2 0x100 EXP DUP2 SLOAD DUP2 PUSH1 0xFF MUL NOT AND SWAP1 DUP4 PUSH1 0xFF AND MUL OR SWAP1 SSTORE POP PUSH32 0x8F8201CCEB68E4CB53475BB7A54A85F719008AEE80F1291DBA111A7406B2073 DUP4 DUP4 DUP4 PUSH1 0x40 MLOAD PUSH2 0x15A7 SWAP4 SWAP3 SWAP2 SWAP1 PUSH2 0x22E9 JUMP JUMPDEST PUSH1 0x40 MLOAD DUP1 SWAP2 SUB SWAP1 LOG1 POP POP POP JUMP JUMPDEST PUSH1 0x5 PUSH1 0x20 MSTORE DUP1 PUSH1 0x0 MSTORE PUSH1 0x40 PUSH1 0x0 KECCAK256 PUSH1 0x0 SWAP2 POP SWAP1 POP DUP1 PUSH1 0x0 ADD PUSH1 0x0 SWAP1 SLOAD SWAP1 PUSH2 0x100 EXP SWAP1 DIV PUSH1 0xFF AND SWAP1 DUP1 PUSH1 0x0 ADD PUSH1 0x1 SWAP1 SLOAD SWAP1 PUSH2 0x100 EXP SWAP1 DIV PUSH20 0xFFFFFFFFFFFFFFFFFFFFFFFFFFFFFFFFFFFFFFFF AND SWAP1 DUP1 PUSH1 0x0 ADD PUSH1 0x15 SWAP1 SLOAD SWAP1 PUSH2 0x100 EXP SWAP1 DIV PUSH2 0xFFFF AND SWAP1 DUP1 PUSH1 0x0 ADD PUSH1 0x17 SWAP1 SLOAD SWAP1 PUSH2 0x100 EXP SWAP1 DIV PUSH1 0xFF AND SWAP1 DUP1 PUSH1 0x1 ADD DUP1 SLOAD PUSH2 0x1637 SWAP1 PUSH2 0x26F7 JUMP JUMPDEST DUP1 PUSH1 0x1F ADD PUSH1 0x20 DUP1 SWAP2 DIV MUL PUSH1 0x20 ADD PUSH1 0x40 MLOAD SWAP1 DUP2 ADD PUSH1 0x40 MSTORE DUP1 SWAP3 SWAP2 SWAP1 DUP2 DUP2 MSTORE PUSH1 0x20 ADD DUP3 DUP1 SLOAD PUSH2 0x1663 SWAP1 PUSH2 0x26F7 JUMP JUMPDEST DUP1 ISZERO PUSH2 0x16B0 JUMPI DUP1 PUSH1 0x1F LT PUSH2 0x1685 JUMPI PUSH2 0x100 DUP1 DUP4 SLOAD DIV MUL DUP4 MSTORE SWAP2 PUSH1 0x20 ADD SWAP2 PUSH2 0x16B0 JUMP JUMPDEST DUP3 ADD SWAP2 SWAP1 PUSH1 0x0 MSTORE PUSH1 0x20 PUSH1 0x0 KECCAK256 SWAP1 JUMPDEST DUP2 SLOAD DUP2 MSTORE SWAP1 PUSH1 0x1 ADD SWAP1 PUSH1 0x20 ADD DUP1 DUP4 GT PUSH2 0x1693 JUMPI DUP3 SWAP1 SUB PUSH1 0x1F AND DUP3 ADD SWAP2 JUMPDEST POP POP POP POP POP SWAP1 DUP1 PUSH1 0x2 ADD DUP1 SLOAD PUSH2 0x16C5 SWAP1 PUSH2 0x26F7 JUMP JUMPDEST DUP1 PUSH1 0x1F ADD PUSH1 0x20 DUP1 SWAP2 DIV MUL PUSH1 0x20 ADD PUSH1 0x40 MLOAD SWAP1 DUP2 ADD PUSH1 0x40 MSTORE DUP1 SWAP3 SWAP2 SWAP1 DUP2 DUP2 MSTORE PUSH1 0x20 ADD DUP3 DUP1 SLOAD PUSH2 0x16F1 SWAP1 PUSH2 0x26F7 JUMP JUMPDEST DUP1 ISZERO PUSH2 0x173E JUMPI DUP1 PUSH1 0x1F LT PUSH2 0x1713 JUMPI PUSH2 0x100 DUP1 DUP4 SLOAD DIV MUL DUP4 MSTORE SWAP2 PUSH1 0x20 ADD SWAP2 PUSH2 0x173E JUMP JUMPDEST DUP3 ADD SWAP2 SWAP1 PUSH1 0x0 MSTORE PUSH1 0x20 PUSH1 0x0 KECCAK256 SWAP1 JUMPDEST DUP2 SLOAD DUP2 MSTORE SWAP1 PUSH1 0x1 ADD SWAP1 PUSH1 0x20 ADD DUP1 DUP4 GT PUSH2 0x1721 JUMPI DUP3 SWAP1 SUB PUSH1 0x1F AND DUP3 ADD SWAP2 JUMPDEST POP POP POP POP POP SWAP1 POP DUP7 JUMP JUMPDEST PUSH1 0x3 PUSH1 0x20 MSTORE DUP1 PUSH1 0x0 MSTORE PUSH1 0x40 PUSH1 0x0 KECCAK256 PUSH1 0x0 SWAP2 POP SWAP1 POP DUP1 PUSH1 0x0 ADD PUSH1 0x0 SWAP1 SLOAD SWAP1 PUSH2 0x100 EXP SWAP1 DIV PUSH1 0xFF AND SWAP1 POP DUP2 JUMP JUMPDEST PUSH1 0x1 PUSH1 0x0 SWAP1 SLOAD SWAP1 PUSH2 0x100 EXP SWAP1 DIV PUSH20 0xFFFFFFFFFFFFFFFFFFFFFFFFFFFFFFFFFFFFFFFF AND PUSH20 0xFFFFFFFFFFFFFFFFFFFFFFFFFFFFFFFFFFFFFFFF AND CALLER PUSH20 0xFFFFFFFFFFFFFFFFFFFFFFFFFFFFFFFFFFFFFFFF AND EQ PUSH2 0x1803 JUMPI PUSH1 0x40 MLOAD PUSH32 0x8C379A000000000000000000000000000000000000000000000000000000000 DUP2 MSTORE PUSH1 0x4 ADD PUSH2 0x17FA SWAP1 PUSH2 0x257B JUMP JUMPDEST PUSH1 0x40 MLOAD DUP1 SWAP2 SUB SWAP1 REVERT JUMPDEST PUSH1 0x6 PUSH1 0x0 DUP6 PUSH20 0xFFFFFFFFFFFFFFFFFFFFFFFFFFFFFFFFFFFFFFFF AND PUSH20 0xFFFFFFFFFFFFFFFFFFFFFFFFFFFFFFFFFFFFFFFF AND DUP2 MSTORE PUSH1 0x20 ADD SWAP1 DUP2 MSTORE PUSH1 0x20 ADD PUSH1 0x0 KECCAK256 PUSH1 0x0 ADD PUSH1 0x0 SWAP1 SLOAD SWAP1 PUSH2 0x100 EXP SWAP1 DIV PUSH1 0xFF AND ISZERO PUSH2 0x1893 JUMPI PUSH1 0x40 MLOAD PUSH32 0x8C379A000000000000000000000000000000000000000000000000000000000 DUP2 MSTORE PUSH1 0x4 ADD PUSH2 0x188A SWAP1 PUSH2 0x247B JUMP JUMPDEST PUSH1 0x40 MLOAD DUP1 SWAP2 SUB SWAP1 REVERT JUMPDEST PUSH1 0x1 PUSH1 0x6 PUSH1 0x0 DUP7 PUSH20 0xFFFFFFFFFFFFFFFFFFFFFFFFFFFFFFFFFFFFFFFF AND PUSH20 0xFFFFFFFFFFFFFFFFFFFFFFFFFFFFFFFFFFFFFFFF AND DUP2 MSTORE PUSH1 0x20 ADD SWAP1 DUP2 MSTORE PUSH1 0x20 ADD PUSH1 0x0 KECCAK256 PUSH1 0x0 ADD PUSH1 0x0 PUSH2 0x100 EXP DUP2 SLOAD DUP2 PUSH1 0xFF MUL NOT AND SWAP1 DUP4 ISZERO ISZERO MUL OR SWAP1 SSTORE POP DUP3 PUSH1 0x6 PUSH1 0x0 DUP7 PUSH20 0xFFFFFFFFFFFFFFFFFFFFFFFFFFFFFFFFFFFFFFFF AND PUSH20 0xFFFFFFFFFFFFFFFFFFFFFFFFFFFFFFFFFFFFFFFF AND DUP2 MSTORE PUSH1 0x20 ADD SWAP1 DUP2 MSTORE PUSH1 0x20 ADD PUSH1 0x0 KECCAK256 PUSH1 0x2 ADD SWAP1 DUP1 MLOAD SWAP1 PUSH1 0x20 ADD SWAP1 PUSH2 0x1944 SWAP3 SWAP2 SWAP1 PUSH2 0x1C97 JUMP JUMPDEST POP DUP1 PUSH1 0x6 PUSH1 0x0 DUP7 PUSH20 0xFFFFFFFFFFFFFFFFFFFFFFFFFFFFFFFFFFFFFFFF AND PUSH20 0xFFFFFFFFFFFFFFFFFFFFFFFFFFFFFFFFFFFFFFFF AND DUP2 MSTORE PUSH1 0x20 ADD SWAP1 DUP2 MSTORE PUSH1 0x20 ADD PUSH1 0x0 KECCAK256 PUSH1 0x0 ADD PUSH1 0x1 PUSH2 0x100 EXP DUP2 SLOAD DUP2 PUSH1 0xFF MUL NOT AND SWAP1 DUP4 PUSH1 0xFF AND MUL OR SWAP1 SSTORE POP DUP2 PUSH1 0x6 PUSH1 0x0 DUP7 PUSH20 0xFFFFFFFFFFFFFFFFFFFFFFFFFFFFFFFFFFFFFFFF AND PUSH20 0xFFFFFFFFFFFFFFFFFFFFFFFFFFFFFFFFFFFFFFFF AND DUP2 MSTORE PUSH1 0x20 ADD SWAP1 DUP2 MSTORE PUSH1 0x20 ADD PUSH1 0x0 KECCAK256 PUSH1 0x1 ADD DUP2 SWAP1 SSTORE POP PUSH32 0x4C80D824213BE57ABDCC652FAAFEA948BED864EBF9677D2A9DCB5EFA217E88D6 DUP5 DUP5 DUP5 DUP5 PUSH1 0x40 MLOAD PUSH2 0x1A1C SWAP5 SWAP4 SWAP3 SWAP2 SWAP1 PUSH2 0x229D JUMP JUMPDEST PUSH1 0x40 MLOAD DUP1 SWAP2 SUB SWAP1 LOG1 POP POP POP POP JUMP JUMPDEST PUSH1 0x2 PUSH1 0x0 SWAP1 SLOAD SWAP1 PUSH2 0x100 EXP SWAP1 DIV PUSH20 0xFFFFFFFFFFFFFFFFFFFFFFFFFFFFFFFFFFFFFFFF AND PUSH20 0xFFFFFFFFFFFFFFFFFFFFFFFFFFFFFFFFFFFFFFFF AND CALLER PUSH20 0xFFFFFFFFFFFFFFFFFFFFFFFFFFFFFFFFFFFFFFFF AND EQ PUSH2 0x1ABA JUMPI PUSH1 0x40 MLOAD PUSH32 0x8C379A000000000000000000000000000000000000000000000000000000000 DUP2 MSTORE PUSH1 0x4 ADD PUSH2 0x1AB1 SWAP1 PUSH2 0x249B JUMP JUMPDEST PUSH1 0x40 MLOAD DUP1 SWAP2 SUB SWAP1 REVERT JUMPDEST PUSH1 0x8 PUSH1 0x0 DUP5 PUSH20 0xFFFFFFFFFFFFFFFFFFFFFFFFFFFFFFFFFFFFFFFF AND PUSH20 0xFFFFFFFFFFFFFFFFFFFFFFFFFFFFFFFFFFFFFFFF AND DUP2 MSTORE PUSH1 0x20 ADD SWAP1 DUP2 MSTORE PUSH1 0x20 ADD PUSH1 0x0 KECCAK256 PUSH1 0x0 ADD PUSH1 0x0 SWAP1 SLOAD SWAP1 PUSH2 0x100 EXP SWAP1 DIV PUSH1 0xFF AND ISZERO PUSH2 0x1B4A JUMPI PUSH1 0x40 MLOAD PUSH32 0x8C379A000000000000000000000000000000000000000000000000000000000 DUP2 MSTORE PUSH1 0x4 ADD PUSH2 0x1B41 SWAP1 PUSH2 0x255B JUMP JUMPDEST PUSH1 0x40 MLOAD DUP1 SWAP2 SUB SWAP1 REVERT JUMPDEST PUSH1 0x1 PUSH1 0x8 PUSH1 0x0 DUP6 PUSH20 0xFFFFFFFFFFFFFFFFFFFFFFFFFFFFFFFFFFFFFFFF AND PUSH20 0xFFFFFFFFFFFFFFFFFFFFFFFFFFFFFFFFFFFFFFFF AND DUP2 MSTORE PUSH1 0x20 ADD SWAP1 DUP2 MSTORE PUSH1 0x20 ADD PUSH1 0x0 KECCAK256 PUSH1 0x0 ADD PUSH1 0x0 PUSH2 0x100 EXP DUP2 SLOAD DUP2 PUSH1 0xFF MUL NOT AND SWAP1 DUP4 ISZERO ISZERO MUL OR SWAP1 SSTORE POP DUP2 PUSH1 0x8 PUSH1 0x0 DUP6 PUSH20 0xFFFFFFFFFFFFFFFFFFFFFFFFFFFFFFFFFFFFFFFF AND PUSH20 0xFFFFFFFFFFFFFFFFFFFFFFFFFFFFFFFFFFFFFFFF AND DUP2 MSTORE PUSH1 0x20 ADD SWAP1 DUP2 MSTORE PUSH1 0x20 ADD PUSH1 0x0 KECCAK256 PUSH1 0x1 ADD SWAP1 DUP1 MLOAD SWAP1 PUSH1 0x20 ADD SWAP1 PUSH2 0x1BFB SWAP3 SWAP2 SWAP1 PUSH2 0x1C97 JUMP JUMPDEST POP DUP1 PUSH1 0x8 PUSH1 0x0 DUP6 PUSH20 0xFFFFFFFFFFFFFFFFFFFFFFFFFFFFFFFFFFFFFFFF AND PUSH20 0xFFFFFFFFFFFFFFFFFFFFFFFFFFFFFFFFFFFFFFFF AND DUP2 MSTORE PUSH1 0x20 ADD SWAP1 DUP2 MSTORE PUSH1 0x20 ADD PUSH1 0x0 KECCAK256 PUSH1 0x2 ADD PUSH1 0x0 PUSH2 0x100 EXP DUP2 SLOAD DUP2 PUSH1 0xFF MUL NOT AND SWAP1 DUP4 PUSH1 0xFF AND MUL OR SWAP1 SSTORE POP PUSH32 0x3ED49D581DB34CA478F2E99AEAE4B5F44D7EFD3DB61BF20BC6D9212BF34F4AEF DUP4 DUP4 DUP4 PUSH1 0x40 MLOAD PUSH2 0x1C8A SWAP4 SWAP3 SWAP2 SWAP1 PUSH2 0x22E9 JUMP JUMPDEST PUSH1 0x40 MLOAD DUP1 SWAP2 SUB SWAP1 LOG1 POP POP POP JUMP JUMPDEST DUP3 DUP1 SLOAD PUSH2 0x1CA3 SWAP1 PUSH2 0x26F7 JUMP JUMPDEST SWAP1 PUSH1 0x0 MSTORE PUSH1 0x20 PUSH1 0x0 KECCAK256 SWAP1 PUSH1 0x1F ADD PUSH1 0x20 SWAP1 DIV DUP2 ADD SWAP3 DUP3 PUSH2 0x1CC5 JUMPI PUSH1 0x0 DUP6 SSTORE PUSH2 0x1D0C JUMP JUMPDEST DUP3 PUSH1 0x1F LT PUSH2 0x1CDE JUMPI DUP1 MLOAD PUSH1 0xFF NOT AND DUP4 DUP1 ADD OR DUP6 SSTORE PUSH2 0x1D0C JUMP JUMPDEST DUP3 DUP1 ADD PUSH1 0x1 ADD DUP6 SSTORE DUP3 ISZERO PUSH2 0x1D0C JUMPI SWAP2 DUP3 ADD JUMPDEST DUP3 DUP2 GT ISZERO PUSH2 0x1D0B JUMPI DUP3 MLOAD DUP3 SSTORE SWAP2 PUSH1 0x20 ADD SWAP2 SWAP1 PUSH1 0x1 ADD SWAP1 PUSH2 0x1CF0 JUMP JUMPDEST JUMPDEST POP SWAP1 POP PUSH2 0x1D19 SWAP2 SWAP1 PUSH2 0x1D1D JUMP JUMPDEST POP SWAP1 JUMP JUMPDEST JUMPDEST DUP1 DUP3 GT ISZERO PUSH2 0x1D36 JUMPI PUSH1 0x0 DUP2 PUSH1 0x0 SWAP1 SSTORE POP PUSH1 0x1 ADD PUSH2 0x1D1E JUMP JUMPDEST POP SWAP1 JUMP JUMPDEST PUSH1 0x0 PUSH2 0x1D4D PUSH2 0x1D48 DUP5 PUSH2 0x25E0 JUMP JUMPDEST PUSH2 0x25BB JUMP JUMPDEST SWAP1 POP DUP3 DUP2 MSTORE PUSH1 0x20 DUP2 ADD DUP5 DUP5 DUP5 ADD GT ISZERO PUSH2 0x1D69 JUMPI PUSH2 0x1D68 PUSH2 0x27EC JUMP JUMPDEST JUMPDEST PUSH2 0x1D74 DUP5 DUP3 DUP6 PUSH2 0x26B5 JUMP JUMPDEST POP SWAP4 SWAP3 POP POP POP JUMP JUMPDEST PUSH1 0x0 DUP2 CALLDATALOAD SWAP1 POP PUSH2 0x1D8B DUP2 PUSH2 0x2A58 JUMP JUMPDEST SWAP3 SWAP2 POP POP JUMP JUMPDEST PUSH1 0x0 DUP2 CALLDATALOAD SWAP1 POP PUSH2 0x1DA0 DUP2 PUSH2 0x2A6F JUMP JUMPDEST SWAP3 SWAP2 POP POP JUMP JUMPDEST PUSH1 0x0 DUP3 PUSH1 0x1F DUP4 ADD SLT PUSH2 0x1DBB JUMPI PUSH2 0x1DBA PUSH2 0x27E7 JUMP JUMPDEST JUMPDEST DUP2 CALLDATALOAD PUSH2 0x1DCB DUP5 DUP3 PUSH1 0x20 DUP7 ADD PUSH2 0x1D3A JUMP JUMPDEST SWAP2 POP POP SWAP3 SWAP2 POP POP JUMP JUMPDEST PUSH1 0x0 DUP2 CALLDATALOAD SWAP1 POP PUSH2 0x1DE3 DUP2 PUSH2 0x2A7F JUMP JUMPDEST SWAP3 SWAP2 POP POP JUMP JUMPDEST PUSH1 0x0 DUP2 CALLDATALOAD SWAP1 POP PUSH2 0x1DF8 DUP2 PUSH2 0x2A96 JUMP JUMPDEST SWAP3 SWAP2 POP POP JUMP JUMPDEST PUSH1 0x0 DUP2 CALLDATALOAD SWAP1 POP PUSH2 0x1E0D DUP2 PUSH2 0x2AAD JUMP JUMPDEST SWAP3 SWAP2 POP POP JUMP JUMPDEST PUSH1 0x0 PUSH1 0x20 DUP3 DUP5 SUB SLT ISZERO PUSH2 0x1E29 JUMPI PUSH2 0x1E28 PUSH2 0x27F6 JUMP JUMPDEST JUMPDEST PUSH1 0x0 PUSH2 0x1E37 DUP5 DUP3 DUP6 ADD PUSH2 0x1D7C JUMP JUMPDEST SWAP2 POP POP SWAP3 SWAP2 POP POP JUMP JUMPDEST PUSH1 0x0 DUP1 PUSH1 0x0 DUP1 PUSH1 0x0 DUP1 PUSH1 0xC0 DUP8 DUP10 SUB SLT ISZERO PUSH2 0x1E5D JUMPI PUSH2 0x1E5C PUSH2 0x27F6 JUMP JUMPDEST JUMPDEST PUSH1 0x0 PUSH2 0x1E6B DUP10 DUP3 DUP11 ADD PUSH2 0x1D7C JUMP JUMPDEST SWAP7 POP POP PUSH1 0x20 PUSH2 0x1E7C DUP10 DUP3 DUP11 ADD PUSH2 0x1D7C JUMP JUMPDEST SWAP6 POP POP PUSH1 0x40 DUP8 ADD CALLDATALOAD PUSH8 0xFFFFFFFFFFFFFFFF DUP2 GT ISZERO PUSH2 0x1E9D JUMPI PUSH2 0x1E9C PUSH2 0x27F1 JUMP JUMPDEST JUMPDEST PUSH2 0x1EA9 DUP10 DUP3 DUP11 ADD PUSH2 0x1DA6 JUMP JUMPDEST SWAP5 POP POP PUSH1 0x60 DUP8 ADD CALLDATALOAD PUSH8 0xFFFFFFFFFFFFFFFF DUP2 GT ISZERO PUSH2 0x1ECA JUMPI PUSH2 0x1EC9 PUSH2 0x27F1 JUMP JUMPDEST JUMPDEST PUSH2 0x1ED6 DUP10 DUP3 DUP11 ADD PUSH2 0x1DA6 JUMP JUMPDEST SWAP4 POP POP PUSH1 0x80 PUSH2 0x1EE7 DUP10 DUP3 DUP11 ADD PUSH2 0x1DD4 JUMP JUMPDEST SWAP3 POP POP PUSH1 0xA0 PUSH2 0x1EF8 DUP10 DUP3 DUP11 ADD PUSH2 0x1D91 JUMP JUMPDEST SWAP2 POP POP SWAP3 SWAP6 POP SWAP3 SWAP6 POP SWAP3 SWAP6 JUMP JUMPDEST PUSH1 0x0 DUP1 PUSH1 0x0 DUP1 PUSH1 0x80 DUP6 DUP8 SUB SLT ISZERO PUSH2 0x1F1F JUMPI PUSH2 0x1F1E PUSH2 0x27F6 JUMP JUMPDEST JUMPDEST PUSH1 0x0 PUSH2 0x1F2D DUP8 DUP3 DUP9 ADD PUSH2 0x1D7C JUMP JUMPDEST SWAP5 POP POP PUSH1 0x20 DUP6 ADD CALLDATALOAD PUSH8 0xFFFFFFFFFFFFFFFF DUP2 GT ISZERO PUSH2 0x1F4E JUMPI PUSH2 0x1F4D PUSH2 0x27F1 JUMP JUMPDEST JUMPDEST PUSH2 0x1F5A DUP8 DUP3 DUP9 ADD PUSH2 0x1DA6 JUMP JUMPDEST SWAP4 POP POP PUSH1 0x40 PUSH2 0x1F6B DUP8 DUP3 DUP9 ADD PUSH2 0x1DE9 JUMP JUMPDEST SWAP3 POP POP PUSH1 0x60 PUSH2 0x1F7C DUP8 DUP3 DUP9 ADD PUSH2 0x1DFE JUMP JUMPDEST SWAP2 POP POP SWAP3 SWAP6 SWAP2 SWAP5 POP SWAP3 POP JUMP JUMPDEST PUSH1 0x0 DUP1 PUSH1 0x0 PUSH1 0x60 DUP5 DUP7 SUB SLT ISZERO PUSH2 0x1FA1 JUMPI PUSH2 0x1FA0 PUSH2 0x27F6 JUMP JUMPDEST JUMPDEST PUSH1 0x0 PUSH2 0x1FAF DUP7 DUP3 DUP8 ADD PUSH2 0x1D7C JUMP JUMPDEST SWAP4 POP POP PUSH1 0x20 DUP5 ADD CALLDATALOAD PUSH8 0xFFFFFFFFFFFFFFFF DUP2 GT ISZERO PUSH2 0x1FD0 JUMPI PUSH2 0x1FCF PUSH2 0x27F1 JUMP JUMPDEST JUMPDEST PUSH2 0x1FDC DUP7 DUP3 DUP8 ADD PUSH2 0x1DA6 JUMP JUMPDEST SWAP3 POP POP PUSH1 0x40 PUSH2 0x1FED DUP7 DUP3 DUP8 ADD PUSH2 0x1DFE JUMP JUMPDEST SWAP2 POP POP SWAP3 POP SWAP3 POP SWAP3 JUMP JUMPDEST PUSH2 0x2000 DUP2 PUSH2 0x262D JUMP JUMPDEST DUP3 MSTORE POP POP JUMP JUMPDEST PUSH2 0x200F DUP2 PUSH2 0x263F JUMP JUMPDEST DUP3 MSTORE POP POP JUMP JUMPDEST PUSH2 0x201E DUP2 PUSH2 0x26A3 JUMP JUMPDEST DUP3 MSTORE POP POP JUMP JUMPDEST PUSH1 0x0 PUSH2 0x202F DUP3 PUSH2 0x2611 JUMP JUMPDEST PUSH2 0x2039 DUP2 DUP6 PUSH2 0x261C JUMP JUMPDEST SWAP4 POP PUSH2 0x2049 DUP2 DUP6 PUSH1 0x20 DUP7 ADD PUSH2 0x26C4 JUMP JUMPDEST PUSH2 0x2052 DUP2 PUSH2 0x27FB JUMP JUMPDEST DUP5 ADD SWAP2 POP POP SWAP3 SWAP2 POP POP JUMP JUMPDEST PUSH1 0x0 PUSH2 0x206A PUSH1 0x1F DUP4 PUSH2 0x261C JUMP JUMPDEST SWAP2 POP PUSH2 0x2075 DUP3 PUSH2 0x280C JUMP JUMPDEST PUSH1 0x20 DUP3 ADD SWAP1 POP SWAP2 SWAP1 POP JUMP JUMPDEST PUSH1 0x0 PUSH2 0x208D PUSH1 0x18 DUP4 PUSH2 0x261C JUMP JUMPDEST SWAP2 POP PUSH2 0x2098 DUP3 PUSH2 0x2835 JUMP JUMPDEST PUSH1 0x20 DUP3 ADD SWAP1 POP SWAP2 SWAP1 POP JUMP JUMPDEST PUSH1 0x0 PUSH2 0x20B0 PUSH1 0x12 DUP4 PUSH2 0x261C JUMP JUMPDEST SWAP2 POP PUSH2 0x20BB DUP3 PUSH2 0x285E JUMP JUMPDEST PUSH1 0x20 DUP3 ADD SWAP1 POP SWAP2 SWAP1 POP JUMP JUMPDEST PUSH1 0x0 PUSH2 0x20D3 PUSH1 0x1E DUP4 PUSH2 0x261C JUMP JUMPDEST SWAP2 POP PUSH2 0x20DE DUP3 PUSH2 0x2887 JUMP JUMPDEST PUSH1 0x20 DUP3 ADD SWAP1 POP SWAP2 SWAP1 POP JUMP JUMPDEST PUSH1 0x0 PUSH2 0x20F6 PUSH1 0x1E DUP4 PUSH2 0x261C JUMP JUMPDEST SWAP2 POP PUSH2 0x2101 DUP3 PUSH2 0x28B0 JUMP JUMPDEST PUSH1 0x20 DUP3 ADD SWAP1 POP SWAP2 SWAP1 POP JUMP JUMPDEST PUSH1 0x0 PUSH2 0x2119 PUSH1 0x22 DUP4 PUSH2 0x261C JUMP JUMPDEST SWAP2 POP PUSH2 0x2124 DUP3 PUSH2 0x28D9 JUMP JUMPDEST PUSH1 0x40 DUP3 ADD SWAP1 POP SWAP2 SWAP1 POP JUMP JUMPDEST PUSH1 0x0 PUSH2 0x213C PUSH1 0x17 DUP4 PUSH2 0x261C JUMP JUMPDEST SWAP2 POP PUSH2 0x2147 DUP3 PUSH2 0x2928 JUMP JUMPDEST PUSH1 0x20 DUP3 ADD SWAP1 POP SWAP2 SWAP1 POP JUMP JUMPDEST PUSH1 0x0 PUSH2 0x215F PUSH1 0x26 DUP4 PUSH2 0x261C JUMP JUMPDEST SWAP2 POP PUSH2 0x216A DUP3 PUSH2 0x2951 JUMP JUMPDEST PUSH1 0x40 DUP3 ADD SWAP1 POP SWAP2 SWAP1 POP JUMP JUMPDEST PUSH1 0x0 PUSH2 0x2182 PUSH1 0x18 DUP4 PUSH2 0x261C JUMP JUMPDEST SWAP2 POP PUSH2 0x218D DUP3 PUSH2 0x29A0 JUMP JUMPDEST PUSH1 0x20 DUP3 ADD SWAP1 POP SWAP2 SWAP1 POP JUMP JUMPDEST PUSH1 0x0 PUSH2 0x21A5 PUSH1 0x17 DUP4 PUSH2 0x261C JUMP JUMPDEST SWAP2 POP PUSH2 0x21B0 DUP3 PUSH2 0x29C9 JUMP JUMPDEST PUSH1 0x20 DUP3 ADD SWAP1 POP SWAP2 SWAP1 POP JUMP JUMPDEST PUSH1 0x0 PUSH2 0x21C8 PUSH1 0x20 DUP4 PUSH2 0x261C JUMP JUMPDEST SWAP2 POP PUSH2 0x21D3 DUP3 PUSH2 0x29F2 JUMP JUMPDEST PUSH1 0x20 DUP3 ADD SWAP1 POP SWAP2 SWAP1 POP JUMP JUMPDEST PUSH1 0x0 PUSH2 0x21EB PUSH1 0x20 DUP4 PUSH2 0x261C JUMP JUMPDEST SWAP2 POP PUSH2 0x21F6 DUP3 PUSH2 0x2A1B JUMP JUMPDEST PUSH1 0x20 DUP3 ADD SWAP1 POP SWAP2 SWAP1 POP JUMP JUMPDEST PUSH2 0x220A DUP2 PUSH2 0x265E JUMP JUMPDEST DUP3 MSTORE POP POP JUMP JUMPDEST PUSH2 0x2219 DUP2 PUSH2 0x268C JUMP JUMPDEST DUP3 MSTORE POP POP JUMP JUMPDEST PUSH2 0x2228 DUP2 PUSH2 0x2696 JUMP JUMPDEST DUP3 MSTORE POP POP JUMP JUMPDEST PUSH1 0x0 PUSH1 0xC0 DUP3 ADD SWAP1 POP PUSH2 0x2243 PUSH1 0x0 DUP4 ADD DUP10 PUSH2 0x1FF7 JUMP JUMPDEST PUSH2 0x2250 PUSH1 0x20 DUP4 ADD DUP9 PUSH2 0x1FF7 JUMP JUMPDEST DUP2 DUP2 SUB PUSH1 0x40 DUP4 ADD MSTORE PUSH2 0x2262 DUP2 DUP8 PUSH2 0x2024 JUMP JUMPDEST SWAP1 POP DUP2 DUP2 SUB PUSH1 0x60 DUP4 ADD MSTORE PUSH2 0x2276 DUP2 DUP7 PUSH2 0x2024 JUMP JUMPDEST SWAP1 POP PUSH2 0x2285 PUSH1 0x80 DUP4 ADD DUP6 PUSH2 0x2201 JUMP JUMPDEST PUSH2 0x2292 PUSH1 0xA0 DUP4 ADD DUP5 PUSH2 0x2015 JUMP JUMPDEST SWAP8 SWAP7 POP POP POP POP POP POP POP JUMP JUMPDEST PUSH1 0x0 PUSH1 0x80 DUP3 ADD SWAP1 POP PUSH2 0x22B2 PUSH1 0x0 DUP4 ADD DUP8 PUSH2 0x1FF7 JUMP JUMPDEST DUP2 DUP2 SUB PUSH1 0x20 DUP4 ADD MSTORE PUSH2 0x22C4 DUP2 DUP7 PUSH2 0x2024 JUMP JUMPDEST SWAP1 POP PUSH2 0x22D3 PUSH1 0x40 DUP4 ADD DUP6 PUSH2 0x2210 JUMP JUMPDEST PUSH2 0x22E0 PUSH1 0x60 DUP4 ADD DUP5 PUSH2 0x221F JUMP JUMPDEST SWAP6 SWAP5 POP POP POP POP POP JUMP JUMPDEST PUSH1 0x0 PUSH1 0x60 DUP3 ADD SWAP1 POP PUSH2 0x22FE PUSH1 0x0 DUP4 ADD DUP7 PUSH2 0x1FF7 JUMP JUMPDEST DUP2 DUP2 SUB PUSH1 0x20 DUP4 ADD MSTORE PUSH2 0x2310 DUP2 DUP6 PUSH2 0x2024 JUMP JUMPDEST SWAP1 POP PUSH2 0x231F PUSH1 0x40 DUP4 ADD DUP5 PUSH2 0x221F JUMP JUMPDEST SWAP5 SWAP4 POP POP POP POP JUMP JUMPDEST PUSH1 0x0 PUSH1 0x20 DUP3 ADD SWAP1 POP PUSH2 0x233C PUSH1 0x0 DUP4 ADD DUP5 PUSH2 0x2006 JUMP JUMPDEST SWAP3 SWAP2 POP POP JUMP JUMPDEST PUSH1 0x0 PUSH1 0xC0 DUP3 ADD SWAP1 POP PUSH2 0x2357 PUSH1 0x0 DUP4 ADD DUP10 PUSH2 0x2006 JUMP JUMPDEST PUSH2 0x2364 PUSH1 0x20 DUP4 ADD DUP9 PUSH2 0x1FF7 JUMP JUMPDEST PUSH2 0x2371 PUSH1 0x40 DUP4 ADD DUP8 PUSH2 0x2201 JUMP JUMPDEST PUSH2 0x237E PUSH1 0x60 DUP4 ADD DUP7 PUSH2 0x2015 JUMP JUMPDEST DUP2 DUP2 SUB PUSH1 0x80 DUP4 ADD MSTORE PUSH2 0x2390 DUP2 DUP6 PUSH2 0x2024 JUMP JUMPDEST SWAP1 POP DUP2 DUP2 SUB PUSH1 0xA0 DUP4 ADD MSTORE PUSH2 0x23A4 DUP2 DUP5 PUSH2 0x2024 JUMP JUMPDEST SWAP1 POP SWAP8 SWAP7 POP POP POP POP POP POP POP JUMP JUMPDEST PUSH1 0x0 PUSH1 0x60 DUP3 ADD SWAP1 POP PUSH2 0x23C6 PUSH1 0x0 DUP4 ADD DUP7 PUSH2 0x2006 JUMP JUMPDEST DUP2 DUP2 SUB PUSH1 0x20 DUP4 ADD MSTORE PUSH2 0x23D8 DUP2 DUP6 PUSH2 0x2024 JUMP JUMPDEST SWAP1 POP PUSH2 0x23E7 PUSH1 0x40 DUP4 ADD DUP5 PUSH2 0x221F JUMP JUMPDEST SWAP5 SWAP4 POP POP POP POP JUMP JUMPDEST PUSH1 0x0 PUSH1 0x80 DUP3 ADD SWAP1 POP PUSH2 0x2404 PUSH1 0x0 DUP4 ADD DUP8 PUSH2 0x2006 JUMP JUMPDEST PUSH2 0x2411 PUSH1 0x20 DUP4 ADD DUP7 PUSH2 0x221F JUMP JUMPDEST PUSH2 0x241E PUSH1 0x40 DUP4 ADD DUP6 PUSH2 0x2210 JUMP JUMPDEST DUP2 DUP2 SUB PUSH1 0x60 DUP4 ADD MSTORE PUSH2 0x2430 DUP2 DUP5 PUSH2 0x2024 JUMP JUMPDEST SWAP1 POP SWAP6 SWAP5 POP POP POP POP POP JUMP JUMPDEST PUSH1 0x0 PUSH1 0x20 DUP3 ADD SWAP1 POP DUP2 DUP2 SUB PUSH1 0x0 DUP4 ADD MSTORE PUSH2 0x2454 DUP2 PUSH2 0x205D JUMP JUMPDEST SWAP1 POP SWAP2 SWAP1 POP JUMP JUMPDEST PUSH1 0x0 PUSH1 0x20 DUP3 ADD SWAP1 POP DUP2 DUP2 SUB PUSH1 0x0 DUP4 ADD MSTORE PUSH2 0x2474 DUP2 PUSH2 0x2080 JUMP JUMPDEST SWAP1 POP SWAP2 SWAP1 POP JUMP JUMPDEST PUSH1 0x0 PUSH1 0x20 DUP3 ADD SWAP1 POP DUP2 DUP2 SUB PUSH1 0x0 DUP4 ADD MSTORE PUSH2 0x2494 DUP2 PUSH2 0x20A3 JUMP JUMPDEST SWAP1 POP SWAP2 SWAP1 POP JUMP JUMPDEST PUSH1 0x0 PUSH1 0x20 DUP3 ADD SWAP1 POP DUP2 DUP2 SUB PUSH1 0x0 DUP4 ADD MSTORE PUSH2 0x24B4 DUP2 PUSH2 0x20C6 JUMP JUMPDEST SWAP1 POP SWAP2 SWAP1 POP JUMP JUMPDEST PUSH1 0x0 PUSH1 0x20 DUP3 ADD SWAP1 POP DUP2 DUP2 SUB PUSH1 0x0 DUP4 ADD MSTORE PUSH2 0x24D4 DUP2 PUSH2 0x20E9 JUMP JUMPDEST SWAP1 POP SWAP2 SWAP1 POP JUMP JUMPDEST PUSH1 0x0 PUSH1 0x20 DUP3 ADD SWAP1 POP DUP2 DUP2 SUB PUSH1 0x0 DUP4 ADD MSTORE PUSH2 0x24F4 DUP2 PUSH2 0x210C JUMP JUMPDEST SWAP1 POP SWAP2 SWAP1 POP JUMP JUMPDEST PUSH1 0x0 PUSH1 0x20 DUP3 ADD SWAP1 POP DUP2 DUP2 SUB PUSH1 0x0 DUP4 ADD MSTORE PUSH2 0x2514 DUP2 PUSH2 0x212F JUMP JUMPDEST SWAP1 POP SWAP2 SWAP1 POP JUMP JUMPDEST PUSH1 0x0 PUSH1 0x20 DUP3 ADD SWAP1 POP DUP2 DUP2 SUB PUSH1 0x0 DUP4 ADD MSTORE PUSH2 0x2534 DUP2 PUSH2 0x2152 JUMP JUMPDEST SWAP1 POP SWAP2 SWAP1 POP JUMP JUMPDEST PUSH1 0x0 PUSH1 0x20 DUP3 ADD SWAP1 POP DUP2 DUP2 SUB PUSH1 0x0 DUP4 ADD MSTORE PUSH2 0x2554 DUP2 PUSH2 0x2175 JUMP JUMPDEST SWAP1 POP SWAP2 SWAP1 POP JUMP JUMPDEST PUSH1 0x0 PUSH1 0x20 DUP3 ADD SWAP1 POP DUP2 DUP2 SUB PUSH1 0x0 DUP4 ADD MSTORE PUSH2 0x2574 DUP2 PUSH2 0x2198 JUMP JUMPDEST SWAP1 POP SWAP2 SWAP1 POP JUMP JUMPDEST PUSH1 0x0 PUSH1 0x20 DUP3 ADD SWAP1 POP DUP2 DUP2 SUB PUSH1 0x0 DUP4 ADD MSTORE PUSH2 0x2594 DUP2 PUSH2 0x21BB JUMP JUMPDEST SWAP1 POP SWAP2 SWAP1 POP JUMP JUMPDEST PUSH1 0x0 PUSH1 0x20 DUP3 ADD SWAP1 POP DUP2 DUP2 SUB PUSH1 0x0 DUP4 ADD MSTORE PUSH2 0x25B4 DUP2 PUSH2 0x21DE JUMP JUMPDEST SWAP1 POP SWAP2 SWAP1 POP JUMP JUMPDEST PUSH1 0x0 PUSH2 0x25C5 PUSH2 0x25D6 JUMP JUMPDEST SWAP1 POP PUSH2 0x25D1 DUP3 DUP3 PUSH2 0x2729 JUMP JUMPDEST SWAP2 SWAP1 POP JUMP JUMPDEST PUSH1 0x0 PUSH1 0x40 MLOAD SWAP1 POP SWAP1 JUMP JUMPDEST PUSH1 0x0 PUSH8 0xFFFFFFFFFFFFFFFF DUP3 GT ISZERO PUSH2 0x25FB JUMPI PUSH2 0x25FA PUSH2 0x27B8 JUMP JUMPDEST JUMPDEST PUSH2 0x2604 DUP3 PUSH2 0x27FB JUMP JUMPDEST SWAP1 POP PUSH1 0x20 DUP2 ADD SWAP1 POP SWAP2 SWAP1 POP JUMP JUMPDEST PUSH1 0x0 DUP2 MLOAD SWAP1 POP SWAP2 SWAP1 POP JUMP JUMPDEST PUSH1 0x0 DUP3 DUP3 MSTORE PUSH1 0x20 DUP3 ADD SWAP1 POP SWAP3 SWAP2 POP POP JUMP JUMPDEST PUSH1 0x0 PUSH2 0x2638 DUP3 PUSH2 0x266C JUMP JUMPDEST SWAP1 POP SWAP2 SWAP1 POP JUMP JUMPDEST PUSH1 0x0 DUP2 ISZERO ISZERO SWAP1 POP SWAP2 SWAP1 POP JUMP JUMPDEST PUSH1 0x0 DUP2 SWAP1 POP PUSH2 0x2659 DUP3 PUSH2 0x2A44 JUMP JUMPDEST SWAP2 SWAP1 POP JUMP JUMPDEST PUSH1 0x0 PUSH2 0xFFFF DUP3 AND SWAP1 POP SWAP2 SWAP1 POP JUMP JUMPDEST PUSH1 0x0 PUSH20 0xFFFFFFFFFFFFFFFFFFFFFFFFFFFFFFFFFFFFFFFF DUP3 AND SWAP1 POP SWAP2 SWAP1 POP JUMP JUMPDEST PUSH1 0x0 DUP2 SWAP1 POP SWAP2 SWAP1 POP JUMP JUMPDEST PUSH1 0x0 PUSH1 0xFF DUP3 AND SWAP1 POP SWAP2 SWAP1 POP JUMP JUMPDEST PUSH1 0x0 PUSH2 0x26AE DUP3 PUSH2 0x264B JUMP JUMPDEST SWAP1 POP SWAP2 SWAP1 POP JUMP JUMPDEST DUP3 DUP2 DUP4 CALLDATACOPY PUSH1 0x0 DUP4 DUP4 ADD MSTORE POP POP POP JUMP JUMPDEST PUSH1 0x0 JUMPDEST DUP4 DUP2 LT ISZERO PUSH2 0x26E2 JUMPI DUP1 DUP3 ADD MLOAD DUP2 DUP5 ADD MSTORE PUSH1 0x20 DUP2 ADD SWAP1 POP PUSH2 0x26C7 JUMP JUMPDEST DUP4 DUP2 GT ISZERO PUSH2 0x26F1 JUMPI PUSH1 0x0 DUP5 DUP5 ADD MSTORE JUMPDEST POP POP POP POP JUMP JUMPDEST PUSH1 0x0 PUSH1 0x2 DUP3 DIV SWAP1 POP PUSH1 0x1 DUP3 AND DUP1 PUSH2 0x270F JUMPI PUSH1 0x7F DUP3 AND SWAP2 POP JUMPDEST PUSH1 0x20 DUP3 LT DUP2 EQ ISZERO PUSH2 0x2723 JUMPI PUSH2 0x2722 PUSH2 0x2789 JUMP JUMPDEST JUMPDEST POP SWAP2 SWAP1 POP JUMP JUMPDEST PUSH2 0x2732 DUP3 PUSH2 0x27FB JUMP JUMPDEST DUP2 ADD DUP2 DUP2 LT PUSH8 0xFFFFFFFFFFFFFFFF DUP3 GT OR ISZERO PUSH2 0x2751 JUMPI PUSH2 0x2750 PUSH2 0x27B8 JUMP JUMPDEST JUMPDEST DUP1 PUSH1 0x40 MSTORE POP POP POP JUMP JUMPDEST PUSH32 0x4E487B7100000000000000000000000000000000000000000000000000000000 PUSH1 0x0 MSTORE PUSH1 0x21 PUSH1 0x4 MSTORE PUSH1 0x24 PUSH1 0x0 REVERT JUMPDEST PUSH32 0x4E487B7100000000000000000000000000000000000000000000000000000000 PUSH1 0x0 MSTORE PUSH1 0x22 PUSH1 0x4 MSTORE PUSH1 0x24 PUSH1 0x0 REVERT JUMPDEST PUSH32 0x4E487B7100000000000000000000000000000000000000000000000000000000 PUSH1 0x0 MSTORE PUSH1 0x41 PUSH1 0x4 MSTORE PUSH1 0x24 PUSH1 0x0 REVERT JUMPDEST PUSH1 0x0 DUP1 REVERT JUMPDEST PUSH1 0x0 DUP1 REVERT JUMPDEST PUSH1 0x0 DUP1 REVERT JUMPDEST PUSH1 0x0 DUP1 REVERT JUMPDEST PUSH1 0x0 PUSH1 0x1F NOT PUSH1 0x1F DUP4 ADD AND SWAP1 POP SWAP2 SWAP1 POP JUMP JUMPDEST PUSH32 0x53616465636520594F4B2062752069736C656D69207961706162696C69722E00 PUSH1 0x0 DUP3 ADD MSTORE POP JUMP JUMPDEST PUSH32 0x4B616D75204B7572756D75205A6174656E204D65766375740000000000000000 PUSH1 0x0 DUP3 ADD MSTORE POP JUMP JUMPDEST PUSH32 0x4669726D61205A6174656E204D65766375740000000000000000000000000000 PUSH1 0x0 DUP3 ADD MSTORE POP JUMP JUMPDEST PUSH32 0x5361646563652043422062752069736C656D69207961706162696C69722E0000 PUSH1 0x0 DUP3 ADD MSTORE POP JUMP JUMPDEST PUSH32 0x536572746966696B61204D65726B657A69205A6174656E204D65766375740000 PUSH1 0x0 DUP3 ADD MSTORE POP JUMP JUMPDEST PUSH32 0x536976696C20546F706C756D204B7572756C757375205A6174656E204D657663 PUSH1 0x0 DUP3 ADD MSTORE PUSH32 0x7574000000000000000000000000000000000000000000000000000000000000 PUSH1 0x20 DUP3 ADD MSTORE POP JUMP JUMPDEST PUSH32 0x556E6976657273697465205A6174656E204D6576637574000000000000000000 PUSH1 0x0 DUP3 ADD MSTORE POP JUMP JUMPDEST PUSH32 0x53616465636520556E69766572736974652062752069736C656D692079617061 PUSH1 0x0 DUP3 ADD MSTORE PUSH32 0x62696C69722E0000000000000000000000000000000000000000000000000000 PUSH1 0x20 DUP3 ADD MSTORE POP JUMP JUMPDEST PUSH32 0x416B6164656D697379656E205A6174656E204D65766375740000000000000000 PUSH1 0x0 DUP3 ADD MSTORE POP JUMP JUMPDEST PUSH32 0x4B616D75204B75726D75205A6174656E204D6576637574000000000000000000 PUSH1 0x0 DUP3 ADD MSTORE POP JUMP JUMPDEST PUSH32 0x53616465636520544F42422062752069736C656D69207961706162696C69722E PUSH1 0x0 DUP3 ADD MSTORE POP JUMP JUMPDEST PUSH32 0x42752069736C656D6920736164656365204B757273207961706162696C69722E PUSH1 0x0 DUP3 ADD MSTORE POP JUMP JUMPDEST PUSH1 0x4 DUP2 LT PUSH2 0x2A55 JUMPI PUSH2 0x2A54 PUSH2 0x275A JUMP JUMPDEST JUMPDEST POP JUMP JUMPDEST PUSH2 0x2A61 DUP2 PUSH2 0x262D JUMP JUMPDEST DUP2 EQ PUSH2 0x2A6C JUMPI PUSH1 0x0 DUP1 REVERT JUMPDEST POP JUMP JUMPDEST PUSH1 0x4 DUP2 LT PUSH2 0x2A7C JUMPI PUSH1 0x0 DUP1 REVERT JUMPDEST POP JUMP JUMPDEST PUSH2 0x2A88 DUP2 PUSH2 0x265E JUMP JUMPDEST DUP2 EQ PUSH2 0x2A93 JUMPI PUSH1 0x0 DUP1 REVERT JUMPDEST POP JUMP JUMPDEST PUSH2 0x2A9F DUP2 PUSH2 0x268C JUMP JUMPDEST DUP2 EQ PUSH2 0x2AAA JUMPI PUSH1 0x0 DUP1 REVERT JUMPDEST POP JUMP JUMPDEST PUSH2 0x2AB6 DUP2 PUSH2 0x2696 JUMP JUMPDEST DUP2 EQ PUSH2 0x2AC1 JUMPI PUSH1 0x0 DUP1 REVERT JUMPDEST POP JUMP INVALID LOG2 PUSH5 0x6970667358 0x22 SLT KECCAK256 0xDC 0xB3 0xBD DUP5 0xC 0x4C PUSH5 0x214471AC4E DELEGATECALL 0xB7 SWAP4 PUSH26 0xB47381A72E9AFC245FEE64E1F6FE283A64736F6C634300080700 CALLER "
				},
				"gasEstimates": {
					"creation": {
						"codeDepositCost": "2200400",
						"executionCost": "infinite",
						"totalCost": "infinite"
					},
					"external": {
						"akademisyenler(address)": "infinite",
						"ekleAkademisyen(address,address,string,string,uint16,uint8)": "infinite",
						"ekleFirma(address,string,uint256,uint8)": "infinite",
						"ekleKamuKurumu(address,string,uint8)": "infinite",
						"ekleKurs(address,string,uint8)": "infinite",
						"ekleSTK(address,string,uint8)": "infinite",
						"ekleSertifikaMerkezi(address,string,uint8)": "infinite",
						"ekleUniversite(address,string,uint8)": "infinite",
						"firmalar(address)": "infinite",
						"kamuKurumlari(address)": "infinite",
						"kisiler(address)": "2914",
						"kurslar(address)": "infinite",
						"sertifikaMerkezleri(address)": "infinite",
						"stklar(address)": "infinite",
						"universiteler(address)": "infinite"
					}
				},
				"methodIdentifiers": {
					"akademisyenler(address)": "ba479b7e",
					"ekleAkademisyen(address,address,string,string,uint16,uint8)": "1c23f0e1",
					"ekleFirma(address,string,uint256,uint8)": "d25aab85",
					"ekleKamuKurumu(address,string,uint8)": "f63c649f",
					"ekleKurs(address,string,uint8)": "46224853",
					"ekleSTK(address,string,uint8)": "19023bf3",
					"ekleSertifikaMerkezi(address,string,uint8)": "9dc30114",
					"ekleUniversite(address,string,uint8)": "001d54ab",
					"firmalar(address)": "39987f94",
					"kamuKurumlari(address)": "7d0fa287",
					"kisiler(address)": "cbc92809",
					"kurslar(address)": "1916e139",
					"sertifikaMerkezleri(address)": "356b1f1e",
					"stklar(address)": "9a8c9119",
					"universiteler(address)": "28266697"
				}
			},
			"storageLayout": {
				"storage": [
					{
						"astId": 3,
						"contract": "contracts/Registration.sol:Registration",
						"label": "YOK",
						"offset": 0,
						"slot": "0",
						"type": "t_address"
					},
					{
						"astId": 5,
						"contract": "contracts/Registration.sol:Registration",
						"label": "TOBB",
						"offset": 0,
						"slot": "1",
						"type": "t_address"
					},
					{
						"astId": 7,
						"contract": "contracts/Registration.sol:Registration",
						"label": "CB",
						"offset": 0,
						"slot": "2",
						"type": "t_address"
					},
					{
						"astId": 199,
						"contract": "contracts/Registration.sol:Registration",
						"label": "kisiler",
						"offset": 0,
						"slot": "3",
						"type": "t_mapping(t_address,t_struct(Kisi)10_storage)"
					},
					{
						"astId": 204,
						"contract": "contracts/Registration.sol:Registration",
						"label": "universiteler",
						"offset": 0,
						"slot": "4",
						"type": "t_mapping(t_address,t_struct(Universite)17_storage)"
					},
					{
						"astId": 209,
						"contract": "contracts/Registration.sol:Registration",
						"label": "akademisyenler",
						"offset": 0,
						"slot": "5",
						"type": "t_mapping(t_address,t_struct(Akademisyen)31_storage)"
					},
					{
						"astId": 214,
						"contract": "contracts/Registration.sol:Registration",
						"label": "firmalar",
						"offset": 0,
						"slot": "6",
						"type": "t_mapping(t_address,t_struct(Firma)51_storage)"
					},
					{
						"astId": 219,
						"contract": "contracts/Registration.sol:Registration",
						"label": "kurslar",
						"offset": 0,
						"slot": "7",
						"type": "t_mapping(t_address,t_struct(Kurs)79_storage)"
					},
					{
						"astId": 224,
						"contract": "contracts/Registration.sol:Registration",
						"label": "kamuKurumlari",
						"offset": 0,
						"slot": "8",
						"type": "t_mapping(t_address,t_struct(KamuKurumu)58_storage)"
					},
					{
						"astId": 229,
						"contract": "contracts/Registration.sol:Registration",
						"label": "stklar",
						"offset": 0,
						"slot": "9",
						"type": "t_mapping(t_address,t_struct(STK)65_storage)"
					},
					{
						"astId": 234,
						"contract": "contracts/Registration.sol:Registration",
						"label": "sertifikaMerkezleri",
						"offset": 0,
						"slot": "10",
						"type": "t_mapping(t_address,t_struct(SertifikaMerkezi)72_storage)"
					}
				],
				"types": {
					"t_address": {
						"encoding": "inplace",
						"label": "address",
						"numberOfBytes": "20"
					},
					"t_bool": {
						"encoding": "inplace",
						"label": "bool",
						"numberOfBytes": "1"
					},
					"t_enum(Unvan)36": {
						"encoding": "inplace",
						"label": "enum BaseContract.Unvan",
						"numberOfBytes": "1"
					},
					"t_mapping(t_address,t_struct(Akademisyen)31_storage)": {
						"encoding": "mapping",
						"key": "t_address",
						"label": "mapping(address => struct BaseContract.Akademisyen)",
						"numberOfBytes": "32",
						"value": "t_struct(Akademisyen)31_storage"
					},
					"t_mapping(t_address,t_struct(Firma)51_storage)": {
						"encoding": "mapping",
						"key": "t_address",
						"label": "mapping(address => struct BaseContract.Firma)",
						"numberOfBytes": "32",
						"value": "t_struct(Firma)51_storage"
					},
					"t_mapping(t_address,t_struct(KamuKurumu)58_storage)": {
						"encoding": "mapping",
						"key": "t_address",
						"label": "mapping(address => struct BaseContract.KamuKurumu)",
						"numberOfBytes": "32",
						"value": "t_struct(KamuKurumu)58_storage"
					},
					"t_mapping(t_address,t_struct(Kisi)10_storage)": {
						"encoding": "mapping",
						"key": "t_address",
						"label": "mapping(address => struct BaseContract.Kisi)",
						"numberOfBytes": "32",
						"value": "t_struct(Kisi)10_storage"
					},
					"t_mapping(t_address,t_struct(Kurs)79_storage)": {
						"encoding": "mapping",
						"key": "t_address",
						"label": "mapping(address => struct BaseContract.Kurs)",
						"numberOfBytes": "32",
						"value": "t_struct(Kurs)79_storage"
					},
					"t_mapping(t_address,t_struct(STK)65_storage)": {
						"encoding": "mapping",
						"key": "t_address",
						"label": "mapping(address => struct BaseContract.STK)",
						"numberOfBytes": "32",
						"value": "t_struct(STK)65_storage"
					},
					"t_mapping(t_address,t_struct(SertifikaMerkezi)72_storage)": {
						"encoding": "mapping",
						"key": "t_address",
						"label": "mapping(address => struct BaseContract.SertifikaMerkezi)",
						"numberOfBytes": "32",
						"value": "t_struct(SertifikaMerkezi)72_storage"
					},
					"t_mapping(t_address,t_struct(Universite)17_storage)": {
						"encoding": "mapping",
						"key": "t_address",
						"label": "mapping(address => struct BaseContract.Universite)",
						"numberOfBytes": "32",
						"value": "t_struct(Universite)17_storage"
					},
					"t_string_storage": {
						"encoding": "bytes",
						"label": "string",
						"numberOfBytes": "32"
					},
					"t_struct(Akademisyen)31_storage": {
						"encoding": "inplace",
						"label": "struct BaseContract.Akademisyen",
						"members": [
							{
								"astId": 19,
								"contract": "contracts/Registration.sol:Registration",
								"label": "durum",
								"offset": 0,
								"slot": "0",
								"type": "t_bool"
							},
							{
								"astId": 21,
								"contract": "contracts/Registration.sol:Registration",
								"label": "universite",
								"offset": 1,
								"slot": "0",
								"type": "t_address"
							},
							{
								"astId": 23,
								"contract": "contracts/Registration.sol:Registration",
								"label": "bolum",
								"offset": 21,
								"slot": "0",
								"type": "t_uint16"
							},
							{
								"astId": 26,
								"contract": "contracts/Registration.sol:Registration",
								"label": "unvan",
								"offset": 23,
								"slot": "0",
								"type": "t_enum(Unvan)36"
							},
							{
								"astId": 28,
								"contract": "contracts/Registration.sol:Registration",
								"label": "ad",
								"offset": 0,
								"slot": "1",
								"type": "t_string_storage"
							},
							{
								"astId": 30,
								"contract": "contracts/Registration.sol:Registration",
								"label": "soyad",
								"offset": 0,
								"slot": "2",
								"type": "t_string_storage"
							}
						],
						"numberOfBytes": "96"
					},
					"t_struct(Firma)51_storage": {
						"encoding": "inplace",
						"label": "struct BaseContract.Firma",
						"members": [
							{
								"astId": 44,
								"contract": "contracts/Registration.sol:Registration",
								"label": "durum",
								"offset": 0,
								"slot": "0",
								"type": "t_bool"
							},
							{
								"astId": 46,
								"contract": "contracts/Registration.sol:Registration",
								"label": "ulke",
								"offset": 1,
								"slot": "0",
								"type": "t_uint8"
							},
							{
								"astId": 48,
								"contract": "contracts/Registration.sol:Registration",
								"label": "vergiNo",
								"offset": 0,
								"slot": "1",
								"type": "t_uint256"
							},
							{
								"astId": 50,
								"contract": "contracts/Registration.sol:Registration",
								"label": "isim",
								"offset": 0,
								"slot": "2",
								"type": "t_string_storage"
							}
						],
						"numberOfBytes": "96"
					},
					"t_struct(KamuKurumu)58_storage": {
						"encoding": "inplace",
						"label": "struct BaseContract.KamuKurumu",
						"members": [
							{
								"astId": 53,
								"contract": "contracts/Registration.sol:Registration",
								"label": "durum",
								"offset": 0,
								"slot": "0",
								"type": "t_bool"
							},
							{
								"astId": 55,
								"contract": "contracts/Registration.sol:Registration",
								"label": "isim",
								"offset": 0,
								"slot": "1",
								"type": "t_string_storage"
							},
							{
								"astId": 57,
								"contract": "contracts/Registration.sol:Registration",
								"label": "ulke",
								"offset": 0,
								"slot": "2",
								"type": "t_uint8"
							}
						],
						"numberOfBytes": "96"
					},
					"t_struct(Kisi)10_storage": {
						"encoding": "inplace",
						"label": "struct BaseContract.Kisi",
						"members": [
							{
								"astId": 9,
								"contract": "contracts/Registration.sol:Registration",
								"label": "durum",
								"offset": 0,
								"slot": "0",
								"type": "t_bool"
							}
						],
						"numberOfBytes": "32"
					},
					"t_struct(Kurs)79_storage": {
						"encoding": "inplace",
						"label": "struct BaseContract.Kurs",
						"members": [
							{
								"astId": 74,
								"contract": "contracts/Registration.sol:Registration",
								"label": "durum",
								"offset": 0,
								"slot": "0",
								"type": "t_bool"
							},
							{
								"astId": 76,
								"contract": "contracts/Registration.sol:Registration",
								"label": "isim",
								"offset": 0,
								"slot": "1",
								"type": "t_string_storage"
							},
							{
								"astId": 78,
								"contract": "contracts/Registration.sol:Registration",
								"label": "ulke",
								"offset": 0,
								"slot": "2",
								"type": "t_uint8"
							}
						],
						"numberOfBytes": "96"
					},
					"t_struct(STK)65_storage": {
						"encoding": "inplace",
						"label": "struct BaseContract.STK",
						"members": [
							{
								"astId": 60,
								"contract": "contracts/Registration.sol:Registration",
								"label": "durum",
								"offset": 0,
								"slot": "0",
								"type": "t_bool"
							},
							{
								"astId": 62,
								"contract": "contracts/Registration.sol:Registration",
								"label": "isim",
								"offset": 0,
								"slot": "1",
								"type": "t_string_storage"
							},
							{
								"astId": 64,
								"contract": "contracts/Registration.sol:Registration",
								"label": "ulke",
								"offset": 0,
								"slot": "2",
								"type": "t_uint8"
							}
						],
						"numberOfBytes": "96"
					},
					"t_struct(SertifikaMerkezi)72_storage": {
						"encoding": "inplace",
						"label": "struct BaseContract.SertifikaMerkezi",
						"members": [
							{
								"astId": 67,
								"contract": "contracts/Registration.sol:Registration",
								"label": "durum",
								"offset": 0,
								"slot": "0",
								"type": "t_bool"
							},
							{
								"astId": 69,
								"contract": "contracts/Registration.sol:Registration",
								"label": "isim",
								"offset": 0,
								"slot": "1",
								"type": "t_string_storage"
							},
							{
								"astId": 71,
								"contract": "contracts/Registration.sol:Registration",
								"label": "ulke",
								"offset": 0,
								"slot": "2",
								"type": "t_uint8"
							}
						],
						"numberOfBytes": "96"
					},
					"t_struct(Universite)17_storage": {
						"encoding": "inplace",
						"label": "struct BaseContract.Universite",
						"members": [
							{
								"astId": 12,
								"contract": "contracts/Registration.sol:Registration",
								"label": "durum",
								"offset": 0,
								"slot": "0",
								"type": "t_bool"
							},
							{
								"astId": 14,
								"contract": "contracts/Registration.sol:Registration",
								"label": "isim",
								"offset": 0,
								"slot": "1",
								"type": "t_string_storage"
							},
							{
								"astId": 16,
								"contract": "contracts/Registration.sol:Registration",
								"label": "ulke",
								"offset": 0,
								"slot": "2",
								"type": "t_uint8"
							}
						],
						"numberOfBytes": "96"
					},
					"t_uint16": {
						"encoding": "inplace",
						"label": "uint16",
						"numberOfBytes": "2"
					},
					"t_uint256": {
						"encoding": "inplace",
						"label": "uint256",
						"numberOfBytes": "32"
					},
					"t_uint8": {
						"encoding": "inplace",
						"label": "uint8",
						"numberOfBytes": "1"
					}
				}
			},
			"userdoc": {
				"kind": "user",
				"methods": {},
				"version": 1
			}
		}
	}
}