{
	"contracts/BaseContract.sol": {
		"BaseContract": {
			"abi": [
				{
					"inputs": [],
					"name": "YOK",
					"outputs": [
						{
							"internalType": "address",
							"name": "",
							"type": "address"
						}
					],
					"stateMutability": "view",
					"type": "function"
				},
				{
					"inputs": [
						{
							"internalType": "address",
							"name": "",
							"type": "address"
						}
					],
					"name": "akademisyenler",
					"outputs": [
						{
							"internalType": "bool",
							"name": "durum",
							"type": "bool"
						},
						{
							"internalType": "address",
							"name": "universite",
							"type": "address"
						},
						{
							"internalType": "uint16",
							"name": "bolum",
							"type": "uint16"
						},
						{
							"internalType": "enum BaseContract.Unvan",
							"name": "unvan",
							"type": "uint8"
						},
						{
							"internalType": "string",
							"name": "ad",
							"type": "string"
						},
						{
							"internalType": "string",
							"name": "soyad",
							"type": "string"
						}
					],
					"stateMutability": "view",
					"type": "function"
				},
				{
					"inputs": [
						{
							"internalType": "uint32",
							"name": "",
							"type": "uint32"
						}
					],
					"name": "diller",
					"outputs": [
						{
							"internalType": "uint32",
							"name": "id",
							"type": "uint32"
						},
						{
							"internalType": "string",
							"name": "isim",
							"type": "string"
						}
					],
					"stateMutability": "view",
					"type": "function"
				},
				{
					"inputs": [
						{
							"internalType": "address",
							"name": "_firmaAdres",
							"type": "address"
						},
						{
							"internalType": "string",
							"name": "_isim",
							"type": "string"
						},
						{
							"internalType": "uint256",
							"name": "_vergiNo",
							"type": "uint256"
						},
						{
							"internalType": "uint8",
							"name": "_ulke",
							"type": "uint8"
						}
					],
					"name": "ekleFirma",
					"outputs": [],
					"stateMutability": "nonpayable",
					"type": "function"
				},
				{
					"inputs": [
						{
							"internalType": "address",
							"name": "_kamuKurumuAdres",
							"type": "address"
						},
						{
							"internalType": "string",
							"name": "_isim",
							"type": "string"
						},
						{
							"internalType": "uint8",
							"name": "_ulke",
							"type": "uint8"
						}
					],
					"name": "ekleKamuKurumu",
					"outputs": [],
					"stateMutability": "nonpayable",
					"type": "function"
				},
				{
					"inputs": [
						{
							"internalType": "address",
							"name": "_kisiAdres",
							"type": "address"
						}
					],
					"name": "ekleKisi",
					"outputs": [],
					"stateMutability": "nonpayable",
					"type": "function"
				},
				{
					"inputs": [
						{
							"internalType": "address",
							"name": "_kursAdres",
							"type": "address"
						},
						{
							"internalType": "string",
							"name": "_isim",
							"type": "string"
						},
						{
							"internalType": "uint8",
							"name": "_ulke",
							"type": "uint8"
						}
					],
					"name": "ekleKurs",
					"outputs": [],
					"stateMutability": "nonpayable",
					"type": "function"
				},
				{
					"inputs": [
						{
							"internalType": "address",
							"name": "_stkAdres",
							"type": "address"
						},
						{
							"internalType": "string",
							"name": "_isim",
							"type": "string"
						},
						{
							"internalType": "uint8",
							"name": "_ulke",
							"type": "uint8"
						}
					],
					"name": "ekleSTK",
					"outputs": [],
					"stateMutability": "nonpayable",
					"type": "function"
				},
				{
					"inputs": [
						{
							"internalType": "address",
							"name": "_smAdres",
							"type": "address"
						},
						{
							"internalType": "string",
							"name": "_isim",
							"type": "string"
						},
						{
							"internalType": "uint8",
							"name": "_ulke",
							"type": "uint8"
						}
					],
					"name": "ekleSertifikaMerkezi",
					"outputs": [],
					"stateMutability": "nonpayable",
					"type": "function"
				},
				{
					"inputs": [
						{
							"internalType": "address",
							"name": "_universiteAdres",
							"type": "address"
						},
						{
							"internalType": "string",
							"name": "_isim",
							"type": "string"
						},
						{
							"internalType": "uint8",
							"name": "_ulke",
							"type": "uint8"
						}
					],
					"name": "ekleUniversite",
					"outputs": [],
					"stateMutability": "nonpayable",
					"type": "function"
				},
				{
					"inputs": [
						{
							"internalType": "address",
							"name": "",
							"type": "address"
						}
					],
					"name": "firmalar",
					"outputs": [
						{
							"internalType": "bool",
							"name": "durum",
							"type": "bool"
						},
						{
							"internalType": "uint8",
							"name": "ulke",
							"type": "uint8"
						},
						{
							"internalType": "uint256",
							"name": "vergiNo",
							"type": "uint256"
						},
						{
							"internalType": "string",
							"name": "isim",
							"type": "string"
						}
					],
					"stateMutability": "view",
					"type": "function"
				},
				{
					"inputs": [],
					"name": "getYOK",
					"outputs": [
						{
							"internalType": "address",
							"name": "",
							"type": "address"
						}
					],
					"stateMutability": "view",
					"type": "function"
				},
				{
					"inputs": [
						{
							"internalType": "address",
							"name": "_address",
							"type": "address"
						}
					],
					"name": "isCB",
					"outputs": [
						{
							"internalType": "bool",
							"name": "",
							"type": "bool"
						}
					],
					"stateMutability": "view",
					"type": "function"
				},
				{
					"inputs": [
						{
							"internalType": "address",
							"name": "_address",
							"type": "address"
						}
					],
					"name": "isFirma",
					"outputs": [
						{
							"internalType": "bool",
							"name": "",
							"type": "bool"
						}
					],
					"stateMutability": "view",
					"type": "function"
				},
				{
					"inputs": [
						{
							"internalType": "address",
							"name": "_address",
							"type": "address"
						}
					],
					"name": "isKamuKurumu",
					"outputs": [
						{
							"internalType": "bool",
							"name": "",
							"type": "bool"
						}
					],
					"stateMutability": "view",
					"type": "function"
				},
				{
					"inputs": [
						{
							"internalType": "address",
							"name": "_address",
							"type": "address"
						}
					],
					"name": "isKisi",
					"outputs": [
						{
							"internalType": "bool",
							"name": "",
							"type": "bool"
						}
					],
					"stateMutability": "view",
					"type": "function"
				},
				{
					"inputs": [
						{
							"internalType": "address",
							"name": "_address",
							"type": "address"
						}
					],
					"name": "isKurs",
					"outputs": [
						{
							"internalType": "bool",
							"name": "",
							"type": "bool"
						}
					],
					"stateMutability": "view",
					"type": "function"
				},
				{
					"inputs": [
						{
							"internalType": "address",
							"name": "_address",
							"type": "address"
						}
					],
					"name": "isSTK",
					"outputs": [
						{
							"internalType": "bool",
							"name": "",
							"type": "bool"
						}
					],
					"stateMutability": "view",
					"type": "function"
				},
				{
					"inputs": [
						{
							"internalType": "address",
							"name": "_address",
							"type": "address"
						}
					],
					"name": "isSertifikaMerkezi",
					"outputs": [
						{
							"internalType": "bool",
							"name": "",
							"type": "bool"
						}
					],
					"stateMutability": "view",
					"type": "function"
				},
				{
					"inputs": [
						{
							"internalType": "address",
							"name": "_address",
							"type": "address"
						}
					],
					"name": "isTOBB",
					"outputs": [
						{
							"internalType": "bool",
							"name": "",
							"type": "bool"
						}
					],
					"stateMutability": "view",
					"type": "function"
				},
				{
					"inputs": [
						{
							"internalType": "address",
							"name": "_address",
							"type": "address"
						}
					],
					"name": "isUniversite",
					"outputs": [
						{
							"internalType": "bool",
							"name": "",
							"type": "bool"
						}
					],
					"stateMutability": "view",
					"type": "function"
				},
				{
					"inputs": [
						{
							"internalType": "address",
							"name": "_address",
							"type": "address"
						}
					],
					"name": "isYOK",
					"outputs": [
						{
							"internalType": "bool",
							"name": "",
							"type": "bool"
						}
					],
					"stateMutability": "view",
					"type": "function"
				},
				{
					"inputs": [
						{
							"internalType": "address",
							"name": "",
							"type": "address"
						}
					],
					"name": "kamuKurumlari",
					"outputs": [
						{
							"internalType": "bool",
							"name": "durum",
							"type": "bool"
						},
						{
							"internalType": "string",
							"name": "isim",
							"type": "string"
						},
						{
							"internalType": "uint8",
							"name": "ulke",
							"type": "uint8"
						}
					],
					"stateMutability": "view",
					"type": "function"
				},
				{
					"inputs": [
						{
							"internalType": "address",
							"name": "",
							"type": "address"
						}
					],
					"name": "kisiler",
					"outputs": [
						{
							"internalType": "bool",
							"name": "durum",
							"type": "bool"
						}
					],
					"stateMutability": "view",
					"type": "function"
				},
				{
					"inputs": [
						{
							"internalType": "address",
							"name": "",
							"type": "address"
						}
					],
					"name": "kurslar",
					"outputs": [
						{
							"internalType": "bool",
							"name": "durum",
							"type": "bool"
						},
						{
							"internalType": "string",
							"name": "isim",
							"type": "string"
						},
						{
							"internalType": "uint8",
							"name": "ulke",
							"type": "uint8"
						}
					],
					"stateMutability": "view",
					"type": "function"
				},
				{
					"inputs": [
						{
							"internalType": "address",
							"name": "_yok",
							"type": "address"
						},
						{
							"internalType": "address",
							"name": "_tobb",
							"type": "address"
						},
						{
							"internalType": "address",
							"name": "_cb",
							"type": "address"
						}
					],
					"name": "paydasTanimla",
					"outputs": [],
					"stateMutability": "nonpayable",
					"type": "function"
				},
				{
					"inputs": [
						{
							"internalType": "address",
							"name": "",
							"type": "address"
						}
					],
					"name": "sertifikaMerkezleri",
					"outputs": [
						{
							"internalType": "bool",
							"name": "durum",
							"type": "bool"
						},
						{
							"internalType": "string",
							"name": "isim",
							"type": "string"
						},
						{
							"internalType": "uint8",
							"name": "ulke",
							"type": "uint8"
						}
					],
					"stateMutability": "view",
					"type": "function"
				},
				{
					"inputs": [
						{
							"internalType": "address",
							"name": "",
							"type": "address"
						}
					],
					"name": "stklar",
					"outputs": [
						{
							"internalType": "bool",
							"name": "durum",
							"type": "bool"
						},
						{
							"internalType": "string",
							"name": "isim",
							"type": "string"
						},
						{
							"internalType": "uint8",
							"name": "ulke",
							"type": "uint8"
						}
					],
					"stateMutability": "view",
					"type": "function"
				},
				{
					"inputs": [
						{
							"internalType": "address",
							"name": "",
							"type": "address"
						}
					],
					"name": "universiteler",
					"outputs": [
						{
							"internalType": "bool",
							"name": "durum",
							"type": "bool"
						},
						{
							"internalType": "string",
							"name": "isim",
							"type": "string"
						},
						{
							"internalType": "uint8",
							"name": "ulke",
							"type": "uint8"
						}
					],
					"stateMutability": "view",
					"type": "function"
				}
			],
			"devdoc": {
				"kind": "dev",
				"methods": {},
				"version": 1
			},
			"evm": {
				"assembly": "    /* \"contracts/BaseContract.sol\":70:8022  contract BaseContract{\r... */\n  mstore(0x40, 0x80)\n  callvalue\n  dup1\n  iszero\n  tag_1\n  jumpi\n  0x00\n  dup1\n  revert\ntag_1:\n  pop\n  dataSize(sub_0)\n  dup1\n  dataOffset(sub_0)\n  0x00\n  codecopy\n  0x00\n  return\nstop\n\nsub_0: assembly {\n        /* \"contracts/BaseContract.sol\":70:8022  contract BaseContract{\r... */\n      mstore(0x40, 0x80)\n      callvalue\n      dup1\n      iszero\n      tag_1\n      jumpi\n      0x00\n      dup1\n      revert\n    tag_1:\n      pop\n      jumpi(tag_2, lt(calldatasize, 0x04))\n      shr(0xe0, calldataload(0x00))\n      dup1\n      0x7d0fa287\n      gt\n      tag_32\n      jumpi\n      dup1\n      0xcbc92809\n      gt\n      tag_33\n      jumpi\n      dup1\n      0xe5130508\n      gt\n      tag_34\n      jumpi\n      dup1\n      0xe5130508\n      eq\n      tag_28\n      jumpi\n      dup1\n      0xf0040eb9\n      eq\n      tag_29\n      jumpi\n      dup1\n      0xf54acc65\n      eq\n      tag_30\n      jumpi\n      dup1\n      0xf63c649f\n      eq\n      tag_31\n      jumpi\n      jump(tag_2)\n    tag_34:\n      dup1\n      0xcbc92809\n      eq\n      tag_24\n      jumpi\n      dup1\n      0xd25aab85\n      eq\n      tag_25\n      jumpi\n      dup1\n      0xd7396414\n      eq\n      tag_26\n      jumpi\n      dup1\n      0xe24047ca\n      eq\n      tag_27\n      jumpi\n      jump(tag_2)\n    tag_33:\n      dup1\n      0x9dc30114\n      gt\n      tag_35\n      jumpi\n      dup1\n      0x9dc30114\n      eq\n      tag_20\n      jumpi\n      dup1\n      0xa4e7ae05\n      eq\n      tag_21\n      jumpi\n      dup1\n      0xb98ccefd\n      eq\n      tag_22\n      jumpi\n      dup1\n      0xba479b7e\n      eq\n      tag_23\n      jumpi\n      jump(tag_2)\n    tag_35:\n      dup1\n      0x7d0fa287\n      eq\n      tag_17\n      jumpi\n      dup1\n      0x8c848885\n      eq\n      tag_18\n      jumpi\n      dup1\n      0x9a8c9119\n      eq\n      tag_19\n      jumpi\n      jump(tag_2)\n    tag_32:\n      dup1\n      0x2d087d70\n      gt\n      tag_36\n      jumpi\n      dup1\n      0x39987f94\n      gt\n      tag_37\n      jumpi\n      dup1\n      0x39987f94\n      eq\n      tag_13\n      jumpi\n      dup1\n      0x46224853\n      eq\n      tag_14\n      jumpi\n      dup1\n      0x514e03c7\n      eq\n      tag_15\n      jumpi\n      dup1\n      0x71af892d\n      eq\n      tag_16\n      jumpi\n      jump(tag_2)\n    tag_37:\n      dup1\n      0x2d087d70\n      eq\n      tag_10\n      jumpi\n      dup1\n      0x356b1f1e\n      eq\n      tag_11\n      jumpi\n      dup1\n      0x36fd2633\n      eq\n      tag_12\n      jumpi\n      jump(tag_2)\n    tag_36:\n      dup1\n      0x139884ec\n      gt\n      tag_38\n      jumpi\n      dup1\n      0x139884ec\n      eq\n      tag_6\n      jumpi\n      dup1\n      0x19023bf3\n      eq\n      tag_7\n      jumpi\n      dup1\n      0x1916e139\n      eq\n      tag_8\n      jumpi\n      dup1\n      0x28266697\n      eq\n      tag_9\n      jumpi\n      jump(tag_2)\n    tag_38:\n      dup1\n      0x1d54ab\n      eq\n      tag_3\n      jumpi\n      dup1\n      0x024eb6bc\n      eq\n      tag_4\n      jumpi\n      dup1\n      0x03c3abc4\n      eq\n      tag_5\n      jumpi\n    tag_2:\n      0x00\n      dup1\n      revert\n        /* \"contracts/BaseContract.sol\":5278:5666  function ekleUniversite(address _universiteAdres,string memory _isim, uint8 _ulke)  public  {\r... */\n    tag_3:\n      tag_39\n      0x04\n      dup1\n      calldatasize\n      sub\n      dup2\n      add\n      swap1\n      tag_40\n      swap2\n      swap1\n      tag_41\n      jump\t// in\n    tag_40:\n      tag_42\n      jump\t// in\n    tag_39:\n      stop\n        /* \"contracts/BaseContract.sol\":4435:4543  function isKurs(address _address) public view returns(bool){\r... */\n    tag_4:\n      tag_43\n      0x04\n      dup1\n      calldatasize\n      sub\n      dup2\n      add\n      swap1\n      tag_44\n      swap2\n      swap1\n      tag_45\n      jump\t// in\n    tag_44:\n      tag_46\n      jump\t// in\n    tag_43:\n      mload(0x40)\n      tag_47\n      swap2\n      swap1\n      tag_48\n      jump\t// in\n    tag_47:\n      mload(0x40)\n      dup1\n      swap2\n      sub\n      swap1\n      return\n        /* \"contracts/BaseContract.sol\":154:222  function getYOK() public view returns   (address)\r... */\n    tag_5:\n      tag_49\n      tag_50\n      jump\t// in\n    tag_49:\n      mload(0x40)\n      tag_51\n      swap2\n      swap1\n      tag_52\n      jump\t// in\n    tag_51:\n      mload(0x40)\n      dup1\n      swap2\n      sub\n      swap1\n      return\n        /* \"contracts/BaseContract.sol\":3721:3820  function isTOBB(address _address) public view returns(bool){\r... */\n    tag_6:\n      tag_53\n      0x04\n      dup1\n      calldatasize\n      sub\n      dup2\n      add\n      swap1\n      tag_54\n      swap2\n      swap1\n      tag_45\n      jump\t// in\n    tag_54:\n      tag_55\n      jump\t// in\n    tag_53:\n      mload(0x40)\n      tag_56\n      swap2\n      swap1\n      tag_48\n      jump\t// in\n    tag_56:\n      mload(0x40)\n      dup1\n      swap2\n      sub\n      swap1\n      return\n        /* \"contracts/BaseContract.sol\":7047:7390  function ekleSTK(address _stkAdres,string memory _isim, uint8 _ulke) \r... */\n    tag_7:\n      tag_57\n      0x04\n      dup1\n      calldatasize\n      sub\n      dup2\n      add\n      swap1\n      tag_58\n      swap2\n      swap1\n      tag_41\n      jump\t// in\n    tag_58:\n      tag_59\n      jump\t// in\n    tag_57:\n      stop\n        /* \"contracts/BaseContract.sol\":5014:5052  mapping(address=>Kurs) public  kurslar */\n    tag_8:\n      tag_60\n      0x04\n      dup1\n      calldatasize\n      sub\n      dup2\n      add\n      swap1\n      tag_61\n      swap2\n      swap1\n      tag_45\n      jump\t// in\n    tag_61:\n      tag_62\n      jump\t// in\n    tag_60:\n      mload(0x40)\n      tag_63\n      swap4\n      swap3\n      swap2\n      swap1\n      tag_64\n      jump\t// in\n    tag_63:\n      mload(0x40)\n      dup1\n      swap2\n      sub\n      swap1\n      return\n        /* \"contracts/BaseContract.sol\":4853:4902  mapping(address=>Universite) public universiteler */\n    tag_9:\n      tag_65\n      0x04\n      dup1\n      calldatasize\n      sub\n      dup2\n      add\n      swap1\n      tag_66\n      swap2\n      swap1\n      tag_45\n      jump\t// in\n    tag_66:\n      tag_67\n      jump\t// in\n    tag_65:\n      mload(0x40)\n      tag_68\n      swap4\n      swap3\n      swap2\n      swap1\n      tag_64\n      jump\t// in\n    tag_68:\n      mload(0x40)\n      dup1\n      swap2\n      sub\n      swap1\n      return\n        /* \"contracts/BaseContract.sol\":4313:4423  function isFirma(address _address) public view returns(bool){\r... */\n    tag_10:\n      tag_69\n      0x04\n      dup1\n      calldatasize\n      sub\n      dup2\n      add\n      swap1\n      tag_70\n      swap2\n      swap1\n      tag_45\n      jump\t// in\n    tag_70:\n      tag_71\n      jump\t// in\n    tag_69:\n      mload(0x40)\n      tag_72\n      swap2\n      swap1\n      tag_48\n      jump\t// in\n    tag_72:\n      mload(0x40)\n      dup1\n      swap2\n      sub\n      swap1\n      return\n        /* \"contracts/BaseContract.sol\":5157:5218  mapping(address=>SertifikaMerkezi) public sertifikaMerkezleri */\n    tag_11:\n      tag_73\n      0x04\n      dup1\n      calldatasize\n      sub\n      dup2\n      add\n      swap1\n      tag_74\n      swap2\n      swap1\n      tag_45\n      jump\t// in\n    tag_74:\n      tag_75\n      jump\t// in\n    tag_73:\n      mload(0x40)\n      tag_76\n      swap4\n      swap3\n      swap2\n      swap1\n      tag_64\n      jump\t// in\n    tag_76:\n      mload(0x40)\n      dup1\n      swap2\n      sub\n      swap1\n      return\n        /* \"contracts/BaseContract.sol\":7886:8019  function paydasTanimla(address _yok, address _tobb, address _cb)  public  {\r... */\n    tag_12:\n      tag_77\n      0x04\n      dup1\n      calldatasize\n      sub\n      dup2\n      add\n      swap1\n      tag_78\n      swap2\n      swap1\n      tag_79\n      jump\t// in\n    tag_78:\n      tag_80\n      jump\t// in\n    tag_77:\n      stop\n        /* \"contracts/BaseContract.sol\":4967:5007  mapping(address=>Firma) public  firmalar */\n    tag_13:\n      tag_81\n      0x04\n      dup1\n      calldatasize\n      sub\n      dup2\n      add\n      swap1\n      tag_82\n      swap2\n      swap1\n      tag_45\n      jump\t// in\n    tag_82:\n      tag_83\n      jump\t// in\n    tag_81:\n      mload(0x40)\n      tag_84\n      swap5\n      swap4\n      swap3\n      swap2\n      swap1\n      tag_85\n      jump\t// in\n    tag_84:\n      mload(0x40)\n      dup1\n      swap2\n      sub\n      swap1\n      return\n        /* \"contracts/BaseContract.sol\":6696:7040  function ekleKurs(address _kursAdres,string memory _isim, uint8 _ulke) \r... */\n    tag_14:\n      tag_86\n      0x04\n      dup1\n      calldatasize\n      sub\n      dup2\n      add\n      swap1\n      tag_87\n      swap2\n      swap1\n      tag_41\n      jump\t// in\n    tag_87:\n      tag_88\n      jump\t// in\n    tag_86:\n      stop\n        /* \"contracts/BaseContract.sol\":4185:4305  function isKamuKurumu(address _address) public view returns(bool){\r... */\n    tag_15:\n      tag_89\n      0x04\n      dup1\n      calldatasize\n      sub\n      dup2\n      add\n      swap1\n      tag_90\n      swap2\n      swap1\n      tag_45\n      jump\t// in\n    tag_90:\n      tag_91\n      jump\t// in\n    tag_89:\n      mload(0x40)\n      tag_92\n      swap2\n      swap1\n      tag_48\n      jump\t// in\n    tag_92:\n      mload(0x40)\n      dup1\n      swap2\n      sub\n      swap1\n      return\n        /* \"contracts/BaseContract.sol\":99:117  address public YOK */\n    tag_16:\n      tag_93\n      tag_94\n      jump\t// in\n    tag_93:\n      mload(0x40)\n      tag_95\n      swap2\n      swap1\n      tag_52\n      jump\t// in\n    tag_95:\n      mload(0x40)\n      dup1\n      swap2\n      sub\n      swap1\n      return\n        /* \"contracts/BaseContract.sol\":5059:5108  mapping(address=>KamuKurumu) public kamuKurumlari */\n    tag_17:\n      tag_96\n      0x04\n      dup1\n      calldatasize\n      sub\n      dup2\n      add\n      swap1\n      tag_97\n      swap2\n      swap1\n      tag_45\n      jump\t// in\n    tag_97:\n      tag_98\n      jump\t// in\n    tag_96:\n      mload(0x40)\n      tag_99\n      swap4\n      swap3\n      swap2\n      swap1\n      tag_64\n      jump\t// in\n    tag_99:\n      mload(0x40)\n      dup1\n      swap2\n      sub\n      swap1\n      return\n        /* \"contracts/BaseContract.sol\":4551:4657  function isSTK(address _address) public view returns(bool){\r... */\n    tag_18:\n      tag_100\n      0x04\n      dup1\n      calldatasize\n      sub\n      dup2\n      add\n      swap1\n      tag_101\n      swap2\n      swap1\n      tag_45\n      jump\t// in\n    tag_101:\n      tag_102\n      jump\t// in\n    tag_100:\n      mload(0x40)\n      tag_103\n      swap2\n      swap1\n      tag_48\n      jump\t// in\n    tag_103:\n      mload(0x40)\n      dup1\n      swap2\n      sub\n      swap1\n      return\n        /* \"contracts/BaseContract.sol\":5115:5150  mapping(address=>STK) public stklar */\n    tag_19:\n      tag_104\n      0x04\n      dup1\n      calldatasize\n      sub\n      dup2\n      add\n      swap1\n      tag_105\n      swap2\n      swap1\n      tag_45\n      jump\t// in\n    tag_105:\n      tag_106\n      jump\t// in\n    tag_104:\n      mload(0x40)\n      tag_107\n      swap4\n      swap3\n      swap2\n      swap1\n      tag_64\n      jump\t// in\n    tag_107:\n      mload(0x40)\n      dup1\n      swap2\n      sub\n      swap1\n      return\n        /* \"contracts/BaseContract.sol\":7397:7880  function ekleSertifikaMerkezi(address _smAdres,string memory _isim, uint8 _ulke) \r... */\n    tag_20:\n      tag_108\n      0x04\n      dup1\n      calldatasize\n      sub\n      dup2\n      add\n      swap1\n      tag_109\n      swap2\n      swap1\n      tag_41\n      jump\t// in\n    tag_109:\n      tag_110\n      jump\t// in\n    tag_108:\n      stop\n        /* \"contracts/BaseContract.sol\":5225:5266  mapping(uint32=>YabanciDil) public diller */\n    tag_21:\n      tag_111\n      0x04\n      dup1\n      calldatasize\n      sub\n      dup2\n      add\n      swap1\n      tag_112\n      swap2\n      swap1\n      tag_113\n      jump\t// in\n    tag_112:\n      tag_114\n      jump\t// in\n    tag_111:\n      mload(0x40)\n      tag_115\n      swap3\n      swap2\n      swap1\n      tag_116\n      jump\t// in\n    tag_115:\n      mload(0x40)\n      dup1\n      swap2\n      sub\n      swap1\n      return\n        /* \"contracts/BaseContract.sol\":4065:4173  function isKisi(address _address) public view returns(bool){\r... */\n    tag_22:\n      tag_117\n      0x04\n      dup1\n      calldatasize\n      sub\n      dup2\n      add\n      swap1\n      tag_118\n      swap2\n      swap1\n      tag_45\n      jump\t// in\n    tag_118:\n      tag_119\n      jump\t// in\n    tag_117:\n      mload(0x40)\n      tag_120\n      swap2\n      swap1\n      tag_48\n      jump\t// in\n    tag_120:\n      mload(0x40)\n      dup1\n      swap2\n      sub\n      swap1\n      return\n        /* \"contracts/BaseContract.sol\":4909:4960  mapping(address=>Akademisyen) public akademisyenler */\n    tag_23:\n      tag_121\n      0x04\n      dup1\n      calldatasize\n      sub\n      dup2\n      add\n      swap1\n      tag_122\n      swap2\n      swap1\n      tag_45\n      jump\t// in\n    tag_122:\n      tag_123\n      jump\t// in\n    tag_121:\n      mload(0x40)\n      tag_124\n      swap7\n      swap6\n      swap5\n      swap4\n      swap3\n      swap2\n      swap1\n      tag_125\n      jump\t// in\n    tag_124:\n      mload(0x40)\n      dup1\n      swap2\n      sub\n      swap1\n      return\n        /* \"contracts/BaseContract.sol\":4809:4846  mapping(address=>Kisi) public kisiler */\n    tag_24:\n      tag_126\n      0x04\n      dup1\n      calldatasize\n      sub\n      dup2\n      add\n      swap1\n      tag_127\n      swap2\n      swap1\n      tag_45\n      jump\t// in\n    tag_127:\n      tag_128\n      jump\t// in\n    tag_126:\n      mload(0x40)\n      tag_129\n      swap2\n      swap1\n      tag_48\n      jump\t// in\n    tag_129:\n      mload(0x40)\n      dup1\n      swap2\n      sub\n      swap1\n      return\n        /* \"contracts/BaseContract.sol\":5880:6279  function ekleFirma(address _firmaAdres,string memory _isim, uint _vergiNo,uint8 _ulke) \r... */\n    tag_25:\n      tag_130\n      0x04\n      dup1\n      calldatasize\n      sub\n      dup2\n      add\n      swap1\n      tag_131\n      swap2\n      swap1\n      tag_132\n      jump\t// in\n    tag_131:\n      tag_133\n      jump\t// in\n    tag_130:\n      stop\n        /* \"contracts/BaseContract.sol\":3616:3713  function isYOK(address _address) public view returns(bool){\r... */\n    tag_26:\n      tag_134\n      0x04\n      dup1\n      calldatasize\n      sub\n      dup2\n      add\n      swap1\n      tag_135\n      swap2\n      swap1\n      tag_45\n      jump\t// in\n    tag_135:\n      tag_136\n      jump\t// in\n    tag_134:\n      mload(0x40)\n      tag_137\n      swap2\n      swap1\n      tag_48\n      jump\t// in\n    tag_137:\n      mload(0x40)\n      dup1\n      swap2\n      sub\n      swap1\n      return\n        /* \"contracts/BaseContract.sol\":4669:4801  function isSertifikaMerkezi(address _address) public view returns(bool){\r... */\n    tag_27:\n      tag_138\n      0x04\n      dup1\n      calldatasize\n      sub\n      dup2\n      add\n      swap1\n      tag_139\n      swap2\n      swap1\n      tag_45\n      jump\t// in\n    tag_139:\n      tag_140\n      jump\t// in\n    tag_138:\n      mload(0x40)\n      tag_141\n      swap2\n      swap1\n      tag_48\n      jump\t// in\n    tag_141:\n      mload(0x40)\n      dup1\n      swap2\n      sub\n      swap1\n      return\n        /* \"contracts/BaseContract.sol\":3832:3927  function isCB(address _address) public view returns(bool){\r... */\n    tag_28:\n      tag_142\n      0x04\n      dup1\n      calldatasize\n      sub\n      dup2\n      add\n      swap1\n      tag_143\n      swap2\n      swap1\n      tag_45\n      jump\t// in\n    tag_143:\n      tag_144\n      jump\t// in\n    tag_142:\n      mload(0x40)\n      tag_145\n      swap2\n      swap1\n      tag_48\n      jump\t// in\n    tag_145:\n      mload(0x40)\n      dup1\n      swap2\n      sub\n      swap1\n      return\n        /* \"contracts/BaseContract.sol\":3937:4057  function isUniversite(address _address) public view returns(bool){\r... */\n    tag_29:\n      tag_146\n      0x04\n      dup1\n      calldatasize\n      sub\n      dup2\n      add\n      swap1\n      tag_147\n      swap2\n      swap1\n      tag_45\n      jump\t// in\n    tag_147:\n      tag_148\n      jump\t// in\n    tag_146:\n      mload(0x40)\n      tag_149\n      swap2\n      swap1\n      tag_48\n      jump\t// in\n    tag_149:\n      mload(0x40)\n      dup1\n      swap2\n      sub\n      swap1\n      return\n        /* \"contracts/BaseContract.sol\":5673:5872  function ekleKisi(address _kisiAdres)  public{\r... */\n    tag_30:\n      tag_150\n      0x04\n      dup1\n      calldatasize\n      sub\n      dup2\n      add\n      swap1\n      tag_151\n      swap2\n      swap1\n      tag_45\n      jump\t// in\n    tag_151:\n      tag_152\n      jump\t// in\n    tag_150:\n      stop\n        /* \"contracts/BaseContract.sol\":6286:6689  function ekleKamuKurumu(address _kamuKurumuAdres,string memory _isim, uint8 _ulke) \r... */\n    tag_31:\n      tag_153\n      0x04\n      dup1\n      calldatasize\n      sub\n      dup2\n      add\n      swap1\n      tag_154\n      swap2\n      swap1\n      tag_41\n      jump\t// in\n    tag_154:\n      tag_155\n      jump\t// in\n    tag_153:\n      stop\n        /* \"contracts/BaseContract.sol\":5278:5666  function ekleUniversite(address _universiteAdres,string memory _isim, uint8 _ulke)  public  {\r... */\n    tag_42:\n        /* \"contracts/BaseContract.sol\":5390:5420  isUniversite(_universiteAdres) */\n      tag_157\n        /* \"contracts/BaseContract.sol\":5403:5419  _universiteAdres */\n      dup4\n        /* \"contracts/BaseContract.sol\":5390:5402  isUniversite */\n      tag_148\n        /* \"contracts/BaseContract.sol\":5390:5420  isUniversite(_universiteAdres) */\n      jump\t// in\n    tag_157:\n        /* \"contracts/BaseContract.sol\":5389:5420  !isUniversite(_universiteAdres) */\n      iszero\n        /* \"contracts/BaseContract.sol\":5381:5475  require(!isUniversite(_universiteAdres),\r... */\n      tag_158\n      jumpi\n      mload(0x40)\n      0x08c379a000000000000000000000000000000000000000000000000000000000\n      dup2\n      mstore\n      0x04\n      add\n      tag_159\n      swap1\n      tag_160\n      jump\t// in\n    tag_159:\n      mload(0x40)\n      dup1\n      swap2\n      sub\n      swap1\n      revert\n    tag_158:\n        /* \"contracts/BaseContract.sol\":5537:5541  true */\n      0x01\n        /* \"contracts/BaseContract.sol\":5499:5512  universiteler */\n      0x04\n        /* \"contracts/BaseContract.sol\":5499:5530  universiteler[_universiteAdres] */\n      0x00\n        /* \"contracts/BaseContract.sol\":5513:5529  _universiteAdres */\n      dup6\n        /* \"contracts/BaseContract.sol\":5499:5530  universiteler[_universiteAdres] */\n      0xffffffffffffffffffffffffffffffffffffffff\n      and\n      0xffffffffffffffffffffffffffffffffffffffff\n      and\n      dup2\n      mstore\n      0x20\n      add\n      swap1\n      dup2\n      mstore\n      0x20\n      add\n      0x00\n      keccak256\n        /* \"contracts/BaseContract.sol\":5499:5536  universiteler[_universiteAdres].durum */\n      0x00\n      add\n      0x00\n        /* \"contracts/BaseContract.sol\":5499:5541  universiteler[_universiteAdres].durum=true */\n      0x0100\n      exp\n      dup2\n      sload\n      dup2\n      0xff\n      mul\n      not\n      and\n      swap1\n      dup4\n      iszero\n      iszero\n      mul\n      or\n      swap1\n      sstore\n      pop\n        /* \"contracts/BaseContract.sol\":5589:5594  _isim */\n      dup2\n        /* \"contracts/BaseContract.sol\":5552:5565  universiteler */\n      0x04\n        /* \"contracts/BaseContract.sol\":5552:5583  universiteler[_universiteAdres] */\n      0x00\n        /* \"contracts/BaseContract.sol\":5566:5582  _universiteAdres */\n      dup6\n        /* \"contracts/BaseContract.sol\":5552:5583  universiteler[_universiteAdres] */\n      0xffffffffffffffffffffffffffffffffffffffff\n      and\n      0xffffffffffffffffffffffffffffffffffffffff\n      and\n      dup2\n      mstore\n      0x20\n      add\n      swap1\n      dup2\n      mstore\n      0x20\n      add\n      0x00\n      keccak256\n        /* \"contracts/BaseContract.sol\":5552:5588  universiteler[_universiteAdres].isim */\n      0x01\n      add\n        /* \"contracts/BaseContract.sol\":5552:5594  universiteler[_universiteAdres].isim=_isim */\n      swap1\n      dup1\n      mload\n      swap1\n      0x20\n      add\n      swap1\n      tag_161\n      swap3\n      swap2\n      swap1\n      tag_162\n      jump\t// in\n    tag_161:\n      pop\n        /* \"contracts/BaseContract.sol\":5642:5647  _ulke */\n      dup1\n        /* \"contracts/BaseContract.sol\":5605:5618  universiteler */\n      0x04\n        /* \"contracts/BaseContract.sol\":5605:5636  universiteler[_universiteAdres] */\n      0x00\n        /* \"contracts/BaseContract.sol\":5619:5635  _universiteAdres */\n      dup6\n        /* \"contracts/BaseContract.sol\":5605:5636  universiteler[_universiteAdres] */\n      0xffffffffffffffffffffffffffffffffffffffff\n      and\n      0xffffffffffffffffffffffffffffffffffffffff\n      and\n      dup2\n      mstore\n      0x20\n      add\n      swap1\n      dup2\n      mstore\n      0x20\n      add\n      0x00\n      keccak256\n        /* \"contracts/BaseContract.sol\":5605:5641  universiteler[_universiteAdres].ulke */\n      0x02\n      add\n      0x00\n        /* \"contracts/BaseContract.sol\":5605:5647  universiteler[_universiteAdres].ulke=_ulke */\n      0x0100\n      exp\n      dup2\n      sload\n      dup2\n      0xff\n      mul\n      not\n      and\n      swap1\n      dup4\n      0xff\n      and\n      mul\n      or\n      swap1\n      sstore\n      pop\n        /* \"contracts/BaseContract.sol\":5278:5666  function ekleUniversite(address _universiteAdres,string memory _isim, uint8 _ulke)  public  {\r... */\n      pop\n      pop\n      pop\n      jump\t// out\n        /* \"contracts/BaseContract.sol\":4435:4543  function isKurs(address _address) public view returns(bool){\r... */\n    tag_46:\n        /* \"contracts/BaseContract.sol\":4489:4493  bool */\n      0x00\n        /* \"contracts/BaseContract.sol\":4512:4519  kurslar */\n      0x07\n        /* \"contracts/BaseContract.sol\":4512:4529  kurslar[_address] */\n      0x00\n        /* \"contracts/BaseContract.sol\":4520:4528  _address */\n      dup4\n        /* \"contracts/BaseContract.sol\":4512:4529  kurslar[_address] */\n      0xffffffffffffffffffffffffffffffffffffffff\n      and\n      0xffffffffffffffffffffffffffffffffffffffff\n      and\n      dup2\n      mstore\n      0x20\n      add\n      swap1\n      dup2\n      mstore\n      0x20\n      add\n      0x00\n      keccak256\n        /* \"contracts/BaseContract.sol\":4512:4535  kurslar[_address].durum */\n      0x00\n      add\n      0x00\n      swap1\n      sload\n      swap1\n      0x0100\n      exp\n      swap1\n      div\n      0xff\n      and\n        /* \"contracts/BaseContract.sol\":4505:4535  return kurslar[_address].durum */\n      swap1\n      pop\n        /* \"contracts/BaseContract.sol\":4435:4543  function isKurs(address _address) public view returns(bool){\r... */\n      swap2\n      swap1\n      pop\n      jump\t// out\n        /* \"contracts/BaseContract.sol\":154:222  function getYOK() public view returns   (address)\r... */\n    tag_50:\n        /* \"contracts/BaseContract.sol\":195:202  address */\n      0x00\n        /* \"contracts/BaseContract.sol\":215:218  YOK */\n      dup1\n      0x00\n      swap1\n      sload\n      swap1\n      0x0100\n      exp\n      swap1\n      div\n      0xffffffffffffffffffffffffffffffffffffffff\n      and\n        /* \"contracts/BaseContract.sol\":208:218  return YOK */\n      swap1\n      pop\n        /* \"contracts/BaseContract.sol\":154:222  function getYOK() public view returns   (address)\r... */\n      swap1\n      jump\t// out\n        /* \"contracts/BaseContract.sol\":3721:3820  function isTOBB(address _address) public view returns(bool){\r... */\n    tag_55:\n        /* \"contracts/BaseContract.sol\":3775:3779  bool */\n      0x00\n        /* \"contracts/BaseContract.sol\":3804:3812  _address */\n      dup2\n        /* \"contracts/BaseContract.sol\":3798:3812  TOBB==_address */\n      0xffffffffffffffffffffffffffffffffffffffff\n      and\n        /* \"contracts/BaseContract.sol\":3798:3802  TOBB */\n      0x01\n      0x00\n      swap1\n      sload\n      swap1\n      0x0100\n      exp\n      swap1\n      div\n      0xffffffffffffffffffffffffffffffffffffffff\n      and\n        /* \"contracts/BaseContract.sol\":3798:3812  TOBB==_address */\n      0xffffffffffffffffffffffffffffffffffffffff\n      and\n      eq\n        /* \"contracts/BaseContract.sol\":3791:3812  return TOBB==_address */\n      swap1\n      pop\n        /* \"contracts/BaseContract.sol\":3721:3820  function isTOBB(address _address) public view returns(bool){\r... */\n      swap2\n      swap1\n      pop\n      jump\t// out\n        /* \"contracts/BaseContract.sol\":7047:7390  function ekleSTK(address _stkAdres,string memory _isim, uint8 _ulke) \r... */\n    tag_59:\n        /* \"contracts/BaseContract.sol\":7150:7166  isSTK(_stkAdres) */\n      tag_167\n        /* \"contracts/BaseContract.sol\":7156:7165  _stkAdres */\n      dup4\n        /* \"contracts/BaseContract.sol\":7150:7155  isSTK */\n      tag_102\n        /* \"contracts/BaseContract.sol\":7150:7166  isSTK(_stkAdres) */\n      jump\t// in\n    tag_167:\n        /* \"contracts/BaseContract.sol\":7149:7166  !isSTK(_stkAdres) */\n      iszero\n        /* \"contracts/BaseContract.sol\":7141:7232  require(!isSTK(_stkAdres),\r... */\n      tag_168\n      jumpi\n      mload(0x40)\n      0x08c379a000000000000000000000000000000000000000000000000000000000\n      dup2\n      mstore\n      0x04\n      add\n      tag_169\n      swap1\n      tag_170\n      jump\t// in\n    tag_169:\n      mload(0x40)\n      dup1\n      swap2\n      sub\n      swap1\n      revert\n    tag_168:\n        /* \"contracts/BaseContract.sol\":7281:7285  true */\n      0x01\n        /* \"contracts/BaseContract.sol\":7257:7263  stklar */\n      0x09\n        /* \"contracts/BaseContract.sol\":7257:7274  stklar[_stkAdres] */\n      0x00\n        /* \"contracts/BaseContract.sol\":7264:7273  _stkAdres */\n      dup6\n        /* \"contracts/BaseContract.sol\":7257:7274  stklar[_stkAdres] */\n      0xffffffffffffffffffffffffffffffffffffffff\n      and\n      0xffffffffffffffffffffffffffffffffffffffff\n      and\n      dup2\n      mstore\n      0x20\n      add\n      swap1\n      dup2\n      mstore\n      0x20\n      add\n      0x00\n      keccak256\n        /* \"contracts/BaseContract.sol\":7257:7280  stklar[_stkAdres].durum */\n      0x00\n      add\n      0x00\n        /* \"contracts/BaseContract.sol\":7257:7285  stklar[_stkAdres].durum=true */\n      0x0100\n      exp\n      dup2\n      sload\n      dup2\n      0xff\n      mul\n      not\n      and\n      swap1\n      dup4\n      iszero\n      iszero\n      mul\n      or\n      swap1\n      sstore\n      pop\n        /* \"contracts/BaseContract.sol\":7319:7324  _isim */\n      dup2\n        /* \"contracts/BaseContract.sol\":7296:7302  stklar */\n      0x09\n        /* \"contracts/BaseContract.sol\":7296:7313  stklar[_stkAdres] */\n      0x00\n        /* \"contracts/BaseContract.sol\":7303:7312  _stkAdres */\n      dup6\n        /* \"contracts/BaseContract.sol\":7296:7313  stklar[_stkAdres] */\n      0xffffffffffffffffffffffffffffffffffffffff\n      and\n      0xffffffffffffffffffffffffffffffffffffffff\n      and\n      dup2\n      mstore\n      0x20\n      add\n      swap1\n      dup2\n      mstore\n      0x20\n      add\n      0x00\n      keccak256\n        /* \"contracts/BaseContract.sol\":7296:7318  stklar[_stkAdres].isim */\n      0x01\n      add\n        /* \"contracts/BaseContract.sol\":7296:7324  stklar[_stkAdres].isim=_isim */\n      swap1\n      dup1\n      mload\n      swap1\n      0x20\n      add\n      swap1\n      tag_171\n      swap3\n      swap2\n      swap1\n      tag_162\n      jump\t// in\n    tag_171:\n      pop\n        /* \"contracts/BaseContract.sol\":7358:7363  _ulke */\n      dup1\n        /* \"contracts/BaseContract.sol\":7335:7341  stklar */\n      0x09\n        /* \"contracts/BaseContract.sol\":7335:7352  stklar[_stkAdres] */\n      0x00\n        /* \"contracts/BaseContract.sol\":7342:7351  _stkAdres */\n      dup6\n        /* \"contracts/BaseContract.sol\":7335:7352  stklar[_stkAdres] */\n      0xffffffffffffffffffffffffffffffffffffffff\n      and\n      0xffffffffffffffffffffffffffffffffffffffff\n      and\n      dup2\n      mstore\n      0x20\n      add\n      swap1\n      dup2\n      mstore\n      0x20\n      add\n      0x00\n      keccak256\n        /* \"contracts/BaseContract.sol\":7335:7357  stklar[_stkAdres].ulke */\n      0x02\n      add\n      0x00\n        /* \"contracts/BaseContract.sol\":7335:7363  stklar[_stkAdres].ulke=_ulke */\n      0x0100\n      exp\n      dup2\n      sload\n      dup2\n      0xff\n      mul\n      not\n      and\n      swap1\n      dup4\n      0xff\n      and\n      mul\n      or\n      swap1\n      sstore\n      pop\n        /* \"contracts/BaseContract.sol\":7047:7390  function ekleSTK(address _stkAdres,string memory _isim, uint8 _ulke) \r... */\n      pop\n      pop\n      pop\n      jump\t// out\n        /* \"contracts/BaseContract.sol\":5014:5052  mapping(address=>Kurs) public  kurslar */\n    tag_62:\n      mstore(0x20, 0x07)\n      dup1\n      0x00\n      mstore\n      keccak256(0x00, 0x40)\n      0x00\n      swap2\n      pop\n      swap1\n      pop\n      dup1\n      0x00\n      add\n      0x00\n      swap1\n      sload\n      swap1\n      0x0100\n      exp\n      swap1\n      div\n      0xff\n      and\n      swap1\n      dup1\n      0x01\n      add\n      dup1\n      sload\n      tag_172\n      swap1\n      tag_173\n      jump\t// in\n    tag_172:\n      dup1\n      0x1f\n      add\n      0x20\n      dup1\n      swap2\n      div\n      mul\n      0x20\n      add\n      mload(0x40)\n      swap1\n      dup2\n      add\n      0x40\n      mstore\n      dup1\n      swap3\n      swap2\n      swap1\n      dup2\n      dup2\n      mstore\n      0x20\n      add\n      dup3\n      dup1\n      sload\n      tag_174\n      swap1\n      tag_173\n      jump\t// in\n    tag_174:\n      dup1\n      iszero\n      tag_175\n      jumpi\n      dup1\n      0x1f\n      lt\n      tag_176\n      jumpi\n      0x0100\n      dup1\n      dup4\n      sload\n      div\n      mul\n      dup4\n      mstore\n      swap2\n      0x20\n      add\n      swap2\n      jump(tag_175)\n    tag_176:\n      dup3\n      add\n      swap2\n      swap1\n      0x00\n      mstore\n      keccak256(0x00, 0x20)\n      swap1\n    tag_177:\n      dup2\n      sload\n      dup2\n      mstore\n      swap1\n      0x01\n      add\n      swap1\n      0x20\n      add\n      dup1\n      dup4\n      gt\n      tag_177\n      jumpi\n      dup3\n      swap1\n      sub\n      0x1f\n      and\n      dup3\n      add\n      swap2\n    tag_175:\n      pop\n      pop\n      pop\n      pop\n      pop\n      swap1\n      dup1\n      0x02\n      add\n      0x00\n      swap1\n      sload\n      swap1\n      0x0100\n      exp\n      swap1\n      div\n      0xff\n      and\n      swap1\n      pop\n      dup4\n      jump\t// out\n        /* \"contracts/BaseContract.sol\":4853:4902  mapping(address=>Universite) public universiteler */\n    tag_67:\n      mstore(0x20, 0x04)\n      dup1\n      0x00\n      mstore\n      keccak256(0x00, 0x40)\n      0x00\n      swap2\n      pop\n      swap1\n      pop\n      dup1\n      0x00\n      add\n      0x00\n      swap1\n      sload\n      swap1\n      0x0100\n      exp\n      swap1\n      div\n      0xff\n      and\n      swap1\n      dup1\n      0x01\n      add\n      dup1\n      sload\n      tag_178\n      swap1\n      tag_173\n      jump\t// in\n    tag_178:\n      dup1\n      0x1f\n      add\n      0x20\n      dup1\n      swap2\n      div\n      mul\n      0x20\n      add\n      mload(0x40)\n      swap1\n      dup2\n      add\n      0x40\n      mstore\n      dup1\n      swap3\n      swap2\n      swap1\n      dup2\n      dup2\n      mstore\n      0x20\n      add\n      dup3\n      dup1\n      sload\n      tag_179\n      swap1\n      tag_173\n      jump\t// in\n    tag_179:\n      dup1\n      iszero\n      tag_180\n      jumpi\n      dup1\n      0x1f\n      lt\n      tag_181\n      jumpi\n      0x0100\n      dup1\n      dup4\n      sload\n      div\n      mul\n      dup4\n      mstore\n      swap2\n      0x20\n      add\n      swap2\n      jump(tag_180)\n    tag_181:\n      dup3\n      add\n      swap2\n      swap1\n      0x00\n      mstore\n      keccak256(0x00, 0x20)\n      swap1\n    tag_182:\n      dup2\n      sload\n      dup2\n      mstore\n      swap1\n      0x01\n      add\n      swap1\n      0x20\n      add\n      dup1\n      dup4\n      gt\n      tag_182\n      jumpi\n      dup3\n      swap1\n      sub\n      0x1f\n      and\n      dup3\n      add\n      swap2\n    tag_180:\n      pop\n      pop\n      pop\n      pop\n      pop\n      swap1\n      dup1\n      0x02\n      add\n      0x00\n      swap1\n      sload\n      swap1\n      0x0100\n      exp\n      swap1\n      div\n      0xff\n      and\n      swap1\n      pop\n      dup4\n      jump\t// out\n        /* \"contracts/BaseContract.sol\":4313:4423  function isFirma(address _address) public view returns(bool){\r... */\n    tag_71:\n        /* \"contracts/BaseContract.sol\":4368:4372  bool */\n      0x00\n        /* \"contracts/BaseContract.sol\":4391:4399  firmalar */\n      0x06\n        /* \"contracts/BaseContract.sol\":4391:4409  firmalar[_address] */\n      0x00\n        /* \"contracts/BaseContract.sol\":4400:4408  _address */\n      dup4\n        /* \"contracts/BaseContract.sol\":4391:4409  firmalar[_address] */\n      0xffffffffffffffffffffffffffffffffffffffff\n      and\n      0xffffffffffffffffffffffffffffffffffffffff\n      and\n      dup2\n      mstore\n      0x20\n      add\n      swap1\n      dup2\n      mstore\n      0x20\n      add\n      0x00\n      keccak256\n        /* \"contracts/BaseContract.sol\":4391:4415  firmalar[_address].durum */\n      0x00\n      add\n      0x00\n      swap1\n      sload\n      swap1\n      0x0100\n      exp\n      swap1\n      div\n      0xff\n      and\n        /* \"contracts/BaseContract.sol\":4384:4415  return firmalar[_address].durum */\n      swap1\n      pop\n        /* \"contracts/BaseContract.sol\":4313:4423  function isFirma(address _address) public view returns(bool){\r... */\n      swap2\n      swap1\n      pop\n      jump\t// out\n        /* \"contracts/BaseContract.sol\":5157:5218  mapping(address=>SertifikaMerkezi) public sertifikaMerkezleri */\n    tag_75:\n      mstore(0x20, 0x0a)\n      dup1\n      0x00\n      mstore\n      keccak256(0x00, 0x40)\n      0x00\n      swap2\n      pop\n      swap1\n      pop\n      dup1\n      0x00\n      add\n      0x00\n      swap1\n      sload\n      swap1\n      0x0100\n      exp\n      swap1\n      div\n      0xff\n      and\n      swap1\n      dup1\n      0x01\n      add\n      dup1\n      sload\n      tag_184\n      swap1\n      tag_173\n      jump\t// in\n    tag_184:\n      dup1\n      0x1f\n      add\n      0x20\n      dup1\n      swap2\n      div\n      mul\n      0x20\n      add\n      mload(0x40)\n      swap1\n      dup2\n      add\n      0x40\n      mstore\n      dup1\n      swap3\n      swap2\n      swap1\n      dup2\n      dup2\n      mstore\n      0x20\n      add\n      dup3\n      dup1\n      sload\n      tag_185\n      swap1\n      tag_173\n      jump\t// in\n    tag_185:\n      dup1\n      iszero\n      tag_186\n      jumpi\n      dup1\n      0x1f\n      lt\n      tag_187\n      jumpi\n      0x0100\n      dup1\n      dup4\n      sload\n      div\n      mul\n      dup4\n      mstore\n      swap2\n      0x20\n      add\n      swap2\n      jump(tag_186)\n    tag_187:\n      dup3\n      add\n      swap2\n      swap1\n      0x00\n      mstore\n      keccak256(0x00, 0x20)\n      swap1\n    tag_188:\n      dup2\n      sload\n      dup2\n      mstore\n      swap1\n      0x01\n      add\n      swap1\n      0x20\n      add\n      dup1\n      dup4\n      gt\n      tag_188\n      jumpi\n      dup3\n      swap1\n      sub\n      0x1f\n      and\n      dup3\n      add\n      swap2\n    tag_186:\n      pop\n      pop\n      pop\n      pop\n      pop\n      swap1\n      dup1\n      0x02\n      add\n      0x00\n      swap1\n      sload\n      swap1\n      0x0100\n      exp\n      swap1\n      div\n      0xff\n      and\n      swap1\n      pop\n      dup4\n      jump\t// out\n        /* \"contracts/BaseContract.sol\":7886:8019  function paydasTanimla(address _yok, address _tobb, address _cb)  public  {\r... */\n    tag_80:\n        /* \"contracts/BaseContract.sol\":7973:7977  _yok */\n      dup3\n        /* \"contracts/BaseContract.sol\":7969:7972  YOK */\n      0x00\n      dup1\n        /* \"contracts/BaseContract.sol\":7969:7977  YOK=_yok */\n      0x0100\n      exp\n      dup2\n      sload\n      dup2\n      0xffffffffffffffffffffffffffffffffffffffff\n      mul\n      not\n      and\n      swap1\n      dup4\n      0xffffffffffffffffffffffffffffffffffffffff\n      and\n      mul\n      or\n      swap1\n      sstore\n      pop\n        /* \"contracts/BaseContract.sol\":7991:7996  _tobb */\n      dup2\n        /* \"contracts/BaseContract.sol\":7986:7990  TOBB */\n      0x01\n      0x00\n        /* \"contracts/BaseContract.sol\":7986:7996  TOBB=_tobb */\n      0x0100\n      exp\n      dup2\n      sload\n      dup2\n      0xffffffffffffffffffffffffffffffffffffffff\n      mul\n      not\n      and\n      swap1\n      dup4\n      0xffffffffffffffffffffffffffffffffffffffff\n      and\n      mul\n      or\n      swap1\n      sstore\n      pop\n        /* \"contracts/BaseContract.sol\":8008:8011  _cb */\n      dup1\n        /* \"contracts/BaseContract.sol\":8005:8007  CB */\n      0x02\n      0x00\n        /* \"contracts/BaseContract.sol\":8005:8011  CB=_cb */\n      0x0100\n      exp\n      dup2\n      sload\n      dup2\n      0xffffffffffffffffffffffffffffffffffffffff\n      mul\n      not\n      and\n      swap1\n      dup4\n      0xffffffffffffffffffffffffffffffffffffffff\n      and\n      mul\n      or\n      swap1\n      sstore\n      pop\n        /* \"contracts/BaseContract.sol\":7886:8019  function paydasTanimla(address _yok, address _tobb, address _cb)  public  {\r... */\n      pop\n      pop\n      pop\n      jump\t// out\n        /* \"contracts/BaseContract.sol\":4967:5007  mapping(address=>Firma) public  firmalar */\n    tag_83:\n      mstore(0x20, 0x06)\n      dup1\n      0x00\n      mstore\n      keccak256(0x00, 0x40)\n      0x00\n      swap2\n      pop\n      swap1\n      pop\n      dup1\n      0x00\n      add\n      0x00\n      swap1\n      sload\n      swap1\n      0x0100\n      exp\n      swap1\n      div\n      0xff\n      and\n      swap1\n      dup1\n      0x00\n      add\n      0x01\n      swap1\n      sload\n      swap1\n      0x0100\n      exp\n      swap1\n      div\n      0xff\n      and\n      swap1\n      dup1\n      0x01\n      add\n      sload\n      swap1\n      dup1\n      0x02\n      add\n      dup1\n      sload\n      tag_190\n      swap1\n      tag_173\n      jump\t// in\n    tag_190:\n      dup1\n      0x1f\n      add\n      0x20\n      dup1\n      swap2\n      div\n      mul\n      0x20\n      add\n      mload(0x40)\n      swap1\n      dup2\n      add\n      0x40\n      mstore\n      dup1\n      swap3\n      swap2\n      swap1\n      dup2\n      dup2\n      mstore\n      0x20\n      add\n      dup3\n      dup1\n      sload\n      tag_191\n      swap1\n      tag_173\n      jump\t// in\n    tag_191:\n      dup1\n      iszero\n      tag_192\n      jumpi\n      dup1\n      0x1f\n      lt\n      tag_193\n      jumpi\n      0x0100\n      dup1\n      dup4\n      sload\n      div\n      mul\n      dup4\n      mstore\n      swap2\n      0x20\n      add\n      swap2\n      jump(tag_192)\n    tag_193:\n      dup3\n      add\n      swap2\n      swap1\n      0x00\n      mstore\n      keccak256(0x00, 0x20)\n      swap1\n    tag_194:\n      dup2\n      sload\n      dup2\n      mstore\n      swap1\n      0x01\n      add\n      swap1\n      0x20\n      add\n      dup1\n      dup4\n      gt\n      tag_194\n      jumpi\n      dup3\n      swap1\n      sub\n      0x1f\n      and\n      dup3\n      add\n      swap2\n    tag_192:\n      pop\n      pop\n      pop\n      pop\n      pop\n      swap1\n      pop\n      dup5\n      jump\t// out\n        /* \"contracts/BaseContract.sol\":6696:7040  function ekleKurs(address _kursAdres,string memory _isim, uint8 _ulke) \r... */\n    tag_88:\n        /* \"contracts/BaseContract.sol\":6801:6819  isKurs(_kursAdres) */\n      tag_196\n        /* \"contracts/BaseContract.sol\":6808:6818  _kursAdres */\n      dup4\n        /* \"contracts/BaseContract.sol\":6801:6807  isKurs */\n      tag_46\n        /* \"contracts/BaseContract.sol\":6801:6819  isKurs(_kursAdres) */\n      jump\t// in\n    tag_196:\n        /* \"contracts/BaseContract.sol\":6800:6819  !isKurs(_kursAdres) */\n      iszero\n        /* \"contracts/BaseContract.sol\":6792:6876  require(!isKurs(_kursAdres),\r... */\n      tag_197\n      jumpi\n      mload(0x40)\n      0x08c379a000000000000000000000000000000000000000000000000000000000\n      dup2\n      mstore\n      0x04\n      add\n      tag_198\n      swap1\n      tag_199\n      jump\t// in\n    tag_198:\n      mload(0x40)\n      dup1\n      swap2\n      sub\n      swap1\n      revert\n    tag_197:\n        /* \"contracts/BaseContract.sol\":6927:6931  true */\n      0x01\n        /* \"contracts/BaseContract.sol\":6901:6908  kurslar */\n      0x07\n        /* \"contracts/BaseContract.sol\":6901:6920  kurslar[_kursAdres] */\n      0x00\n        /* \"contracts/BaseContract.sol\":6909:6919  _kursAdres */\n      dup6\n        /* \"contracts/BaseContract.sol\":6901:6920  kurslar[_kursAdres] */\n      0xffffffffffffffffffffffffffffffffffffffff\n      and\n      0xffffffffffffffffffffffffffffffffffffffff\n      and\n      dup2\n      mstore\n      0x20\n      add\n      swap1\n      dup2\n      mstore\n      0x20\n      add\n      0x00\n      keccak256\n        /* \"contracts/BaseContract.sol\":6901:6926  kurslar[_kursAdres].durum */\n      0x00\n      add\n      0x00\n        /* \"contracts/BaseContract.sol\":6901:6931  kurslar[_kursAdres].durum=true */\n      0x0100\n      exp\n      dup2\n      sload\n      dup2\n      0xff\n      mul\n      not\n      and\n      swap1\n      dup4\n      iszero\n      iszero\n      mul\n      or\n      swap1\n      sstore\n      pop\n        /* \"contracts/BaseContract.sol\":6967:6972  _isim */\n      dup2\n        /* \"contracts/BaseContract.sol\":6942:6949  kurslar */\n      0x07\n        /* \"contracts/BaseContract.sol\":6942:6961  kurslar[_kursAdres] */\n      0x00\n        /* \"contracts/BaseContract.sol\":6950:6960  _kursAdres */\n      dup6\n        /* \"contracts/BaseContract.sol\":6942:6961  kurslar[_kursAdres] */\n      0xffffffffffffffffffffffffffffffffffffffff\n      and\n      0xffffffffffffffffffffffffffffffffffffffff\n      and\n      dup2\n      mstore\n      0x20\n      add\n      swap1\n      dup2\n      mstore\n      0x20\n      add\n      0x00\n      keccak256\n        /* \"contracts/BaseContract.sol\":6942:6966  kurslar[_kursAdres].isim */\n      0x01\n      add\n        /* \"contracts/BaseContract.sol\":6942:6972  kurslar[_kursAdres].isim=_isim */\n      swap1\n      dup1\n      mload\n      swap1\n      0x20\n      add\n      swap1\n      tag_200\n      swap3\n      swap2\n      swap1\n      tag_162\n      jump\t// in\n    tag_200:\n      pop\n        /* \"contracts/BaseContract.sol\":7008:7013  _ulke */\n      dup1\n        /* \"contracts/BaseContract.sol\":6983:6990  kurslar */\n      0x07\n        /* \"contracts/BaseContract.sol\":6983:7002  kurslar[_kursAdres] */\n      0x00\n        /* \"contracts/BaseContract.sol\":6991:7001  _kursAdres */\n      dup6\n        /* \"contracts/BaseContract.sol\":6983:7002  kurslar[_kursAdres] */\n      0xffffffffffffffffffffffffffffffffffffffff\n      and\n      0xffffffffffffffffffffffffffffffffffffffff\n      and\n      dup2\n      mstore\n      0x20\n      add\n      swap1\n      dup2\n      mstore\n      0x20\n      add\n      0x00\n      keccak256\n        /* \"contracts/BaseContract.sol\":6983:7007  kurslar[_kursAdres].ulke */\n      0x02\n      add\n      0x00\n        /* \"contracts/BaseContract.sol\":6983:7013  kurslar[_kursAdres].ulke=_ulke */\n      0x0100\n      exp\n      dup2\n      sload\n      dup2\n      0xff\n      mul\n      not\n      and\n      swap1\n      dup4\n      0xff\n      and\n      mul\n      or\n      swap1\n      sstore\n      pop\n        /* \"contracts/BaseContract.sol\":6696:7040  function ekleKurs(address _kursAdres,string memory _isim, uint8 _ulke) \r... */\n      pop\n      pop\n      pop\n      jump\t// out\n        /* \"contracts/BaseContract.sol\":4185:4305  function isKamuKurumu(address _address) public view returns(bool){\r... */\n    tag_91:\n        /* \"contracts/BaseContract.sol\":4245:4249  bool */\n      0x00\n        /* \"contracts/BaseContract.sol\":4268:4281  kamuKurumlari */\n      0x08\n        /* \"contracts/BaseContract.sol\":4268:4291  kamuKurumlari[_address] */\n      0x00\n        /* \"contracts/BaseContract.sol\":4282:4290  _address */\n      dup4\n        /* \"contracts/BaseContract.sol\":4268:4291  kamuKurumlari[_address] */\n      0xffffffffffffffffffffffffffffffffffffffff\n      and\n      0xffffffffffffffffffffffffffffffffffffffff\n      and\n      dup2\n      mstore\n      0x20\n      add\n      swap1\n      dup2\n      mstore\n      0x20\n      add\n      0x00\n      keccak256\n        /* \"contracts/BaseContract.sol\":4268:4297  kamuKurumlari[_address].durum */\n      0x00\n      add\n      0x00\n      swap1\n      sload\n      swap1\n      0x0100\n      exp\n      swap1\n      div\n      0xff\n      and\n        /* \"contracts/BaseContract.sol\":4261:4297  return kamuKurumlari[_address].durum */\n      swap1\n      pop\n        /* \"contracts/BaseContract.sol\":4185:4305  function isKamuKurumu(address _address) public view returns(bool){\r... */\n      swap2\n      swap1\n      pop\n      jump\t// out\n        /* \"contracts/BaseContract.sol\":99:117  address public YOK */\n    tag_94:\n      0x00\n      dup1\n      sload\n      swap1\n      0x0100\n      exp\n      swap1\n      div\n      0xffffffffffffffffffffffffffffffffffffffff\n      and\n      dup2\n      jump\t// out\n        /* \"contracts/BaseContract.sol\":5059:5108  mapping(address=>KamuKurumu) public kamuKurumlari */\n    tag_98:\n      mstore(0x20, 0x08)\n      dup1\n      0x00\n      mstore\n      keccak256(0x00, 0x40)\n      0x00\n      swap2\n      pop\n      swap1\n      pop\n      dup1\n      0x00\n      add\n      0x00\n      swap1\n      sload\n      swap1\n      0x0100\n      exp\n      swap1\n      div\n      0xff\n      and\n      swap1\n      dup1\n      0x01\n      add\n      dup1\n      sload\n      tag_202\n      swap1\n      tag_173\n      jump\t// in\n    tag_202:\n      dup1\n      0x1f\n      add\n      0x20\n      dup1\n      swap2\n      div\n      mul\n      0x20\n      add\n      mload(0x40)\n      swap1\n      dup2\n      add\n      0x40\n      mstore\n      dup1\n      swap3\n      swap2\n      swap1\n      dup2\n      dup2\n      mstore\n      0x20\n      add\n      dup3\n      dup1\n      sload\n      tag_203\n      swap1\n      tag_173\n      jump\t// in\n    tag_203:\n      dup1\n      iszero\n      tag_204\n      jumpi\n      dup1\n      0x1f\n      lt\n      tag_205\n      jumpi\n      0x0100\n      dup1\n      dup4\n      sload\n      div\n      mul\n      dup4\n      mstore\n      swap2\n      0x20\n      add\n      swap2\n      jump(tag_204)\n    tag_205:\n      dup3\n      add\n      swap2\n      swap1\n      0x00\n      mstore\n      keccak256(0x00, 0x20)\n      swap1\n    tag_206:\n      dup2\n      sload\n      dup2\n      mstore\n      swap1\n      0x01\n      add\n      swap1\n      0x20\n      add\n      dup1\n      dup4\n      gt\n      tag_206\n      jumpi\n      dup3\n      swap1\n      sub\n      0x1f\n      and\n      dup3\n      add\n      swap2\n    tag_204:\n      pop\n      pop\n      pop\n      pop\n      pop\n      swap1\n      dup1\n      0x02\n      add\n      0x00\n      swap1\n      sload\n      swap1\n      0x0100\n      exp\n      swap1\n      div\n      0xff\n      and\n      swap1\n      pop\n      dup4\n      jump\t// out\n        /* \"contracts/BaseContract.sol\":4551:4657  function isSTK(address _address) public view returns(bool){\r... */\n    tag_102:\n        /* \"contracts/BaseContract.sol\":4604:4608  bool */\n      0x00\n        /* \"contracts/BaseContract.sol\":4627:4633  stklar */\n      0x09\n        /* \"contracts/BaseContract.sol\":4627:4643  stklar[_address] */\n      0x00\n        /* \"contracts/BaseContract.sol\":4634:4642  _address */\n      dup4\n        /* \"contracts/BaseContract.sol\":4627:4643  stklar[_address] */\n      0xffffffffffffffffffffffffffffffffffffffff\n      and\n      0xffffffffffffffffffffffffffffffffffffffff\n      and\n      dup2\n      mstore\n      0x20\n      add\n      swap1\n      dup2\n      mstore\n      0x20\n      add\n      0x00\n      keccak256\n        /* \"contracts/BaseContract.sol\":4627:4649  stklar[_address].durum */\n      0x00\n      add\n      0x00\n      swap1\n      sload\n      swap1\n      0x0100\n      exp\n      swap1\n      div\n      0xff\n      and\n        /* \"contracts/BaseContract.sol\":4620:4649  return stklar[_address].durum */\n      swap1\n      pop\n        /* \"contracts/BaseContract.sol\":4551:4657  function isSTK(address _address) public view returns(bool){\r... */\n      swap2\n      swap1\n      pop\n      jump\t// out\n        /* \"contracts/BaseContract.sol\":5115:5150  mapping(address=>STK) public stklar */\n    tag_106:\n      mstore(0x20, 0x09)\n      dup1\n      0x00\n      mstore\n      keccak256(0x00, 0x40)\n      0x00\n      swap2\n      pop\n      swap1\n      pop\n      dup1\n      0x00\n      add\n      0x00\n      swap1\n      sload\n      swap1\n      0x0100\n      exp\n      swap1\n      div\n      0xff\n      and\n      swap1\n      dup1\n      0x01\n      add\n      dup1\n      sload\n      tag_208\n      swap1\n      tag_173\n      jump\t// in\n    tag_208:\n      dup1\n      0x1f\n      add\n      0x20\n      dup1\n      swap2\n      div\n      mul\n      0x20\n      add\n      mload(0x40)\n      swap1\n      dup2\n      add\n      0x40\n      mstore\n      dup1\n      swap3\n      swap2\n      swap1\n      dup2\n      dup2\n      mstore\n      0x20\n      add\n      dup3\n      dup1\n      sload\n      tag_209\n      swap1\n      tag_173\n      jump\t// in\n    tag_209:\n      dup1\n      iszero\n      tag_210\n      jumpi\n      dup1\n      0x1f\n      lt\n      tag_211\n      jumpi\n      0x0100\n      dup1\n      dup4\n      sload\n      div\n      mul\n      dup4\n      mstore\n      swap2\n      0x20\n      add\n      swap2\n      jump(tag_210)\n    tag_211:\n      dup3\n      add\n      swap2\n      swap1\n      0x00\n      mstore\n      keccak256(0x00, 0x20)\n      swap1\n    tag_212:\n      dup2\n      sload\n      dup2\n      mstore\n      swap1\n      0x01\n      add\n      swap1\n      0x20\n      add\n      dup1\n      dup4\n      gt\n      tag_212\n      jumpi\n      dup3\n      swap1\n      sub\n      0x1f\n      and\n      dup3\n      add\n      swap2\n    tag_210:\n      pop\n      pop\n      pop\n      pop\n      pop\n      swap1\n      dup1\n      0x02\n      add\n      0x00\n      swap1\n      sload\n      swap1\n      0x0100\n      exp\n      swap1\n      div\n      0xff\n      and\n      swap1\n      pop\n      dup4\n      jump\t// out\n        /* \"contracts/BaseContract.sol\":7397:7880  function ekleSertifikaMerkezi(address _smAdres,string memory _isim, uint8 _ulke) \r... */\n    tag_110:\n        /* \"contracts/BaseContract.sol\":7512:7540  isSertifikaMerkezi(_smAdres) */\n      tag_214\n        /* \"contracts/BaseContract.sol\":7531:7539  _smAdres */\n      dup4\n        /* \"contracts/BaseContract.sol\":7512:7530  isSertifikaMerkezi */\n      tag_140\n        /* \"contracts/BaseContract.sol\":7512:7540  isSertifikaMerkezi(_smAdres) */\n      jump\t// in\n    tag_214:\n        /* \"contracts/BaseContract.sol\":7511:7540  !isSertifikaMerkezi(_smAdres) */\n      iszero\n        /* \"contracts/BaseContract.sol\":7503:7602  require(!isSertifikaMerkezi(_smAdres),\r... */\n      tag_215\n      jumpi\n      mload(0x40)\n      0x08c379a000000000000000000000000000000000000000000000000000000000\n      dup2\n      mstore\n      0x04\n      add\n      tag_216\n      swap1\n      tag_217\n      jump\t// in\n    tag_216:\n      mload(0x40)\n      dup1\n      swap2\n      sub\n      swap1\n      revert\n    tag_215:\n        /* \"contracts/BaseContract.sol\":7740:7744  true */\n      0x01\n        /* \"contracts/BaseContract.sol\":7704:7723  sertifikaMerkezleri */\n      0x0a\n        /* \"contracts/BaseContract.sol\":7704:7733  sertifikaMerkezleri[_smAdres] */\n      0x00\n        /* \"contracts/BaseContract.sol\":7724:7732  _smAdres */\n      dup6\n        /* \"contracts/BaseContract.sol\":7704:7733  sertifikaMerkezleri[_smAdres] */\n      0xffffffffffffffffffffffffffffffffffffffff\n      and\n      0xffffffffffffffffffffffffffffffffffffffff\n      and\n      dup2\n      mstore\n      0x20\n      add\n      swap1\n      dup2\n      mstore\n      0x20\n      add\n      0x00\n      keccak256\n        /* \"contracts/BaseContract.sol\":7704:7739  sertifikaMerkezleri[_smAdres].durum */\n      0x00\n      add\n      0x00\n        /* \"contracts/BaseContract.sol\":7704:7744  sertifikaMerkezleri[_smAdres].durum=true */\n      0x0100\n      exp\n      dup2\n      sload\n      dup2\n      0xff\n      mul\n      not\n      and\n      swap1\n      dup4\n      iszero\n      iszero\n      mul\n      or\n      swap1\n      sstore\n      pop\n        /* \"contracts/BaseContract.sol\":7790:7795  _isim */\n      dup2\n        /* \"contracts/BaseContract.sol\":7755:7774  sertifikaMerkezleri */\n      0x0a\n        /* \"contracts/BaseContract.sol\":7755:7784  sertifikaMerkezleri[_smAdres] */\n      0x00\n        /* \"contracts/BaseContract.sol\":7775:7783  _smAdres */\n      dup6\n        /* \"contracts/BaseContract.sol\":7755:7784  sertifikaMerkezleri[_smAdres] */\n      0xffffffffffffffffffffffffffffffffffffffff\n      and\n      0xffffffffffffffffffffffffffffffffffffffff\n      and\n      dup2\n      mstore\n      0x20\n      add\n      swap1\n      dup2\n      mstore\n      0x20\n      add\n      0x00\n      keccak256\n        /* \"contracts/BaseContract.sol\":7755:7789  sertifikaMerkezleri[_smAdres].isim */\n      0x01\n      add\n        /* \"contracts/BaseContract.sol\":7755:7795  sertifikaMerkezleri[_smAdres].isim=_isim */\n      swap1\n      dup1\n      mload\n      swap1\n      0x20\n      add\n      swap1\n      tag_218\n      swap3\n      swap2\n      swap1\n      tag_162\n      jump\t// in\n    tag_218:\n      pop\n        /* \"contracts/BaseContract.sol\":7841:7846  _ulke */\n      dup1\n        /* \"contracts/BaseContract.sol\":7806:7825  sertifikaMerkezleri */\n      0x0a\n        /* \"contracts/BaseContract.sol\":7806:7835  sertifikaMerkezleri[_smAdres] */\n      0x00\n        /* \"contracts/BaseContract.sol\":7826:7834  _smAdres */\n      dup6\n        /* \"contracts/BaseContract.sol\":7806:7835  sertifikaMerkezleri[_smAdres] */\n      0xffffffffffffffffffffffffffffffffffffffff\n      and\n      0xffffffffffffffffffffffffffffffffffffffff\n      and\n      dup2\n      mstore\n      0x20\n      add\n      swap1\n      dup2\n      mstore\n      0x20\n      add\n      0x00\n      keccak256\n        /* \"contracts/BaseContract.sol\":7806:7840  sertifikaMerkezleri[_smAdres].ulke */\n      0x02\n      add\n      0x00\n        /* \"contracts/BaseContract.sol\":7806:7846  sertifikaMerkezleri[_smAdres].ulke=_ulke */\n      0x0100\n      exp\n      dup2\n      sload\n      dup2\n      0xff\n      mul\n      not\n      and\n      swap1\n      dup4\n      0xff\n      and\n      mul\n      or\n      swap1\n      sstore\n      pop\n        /* \"contracts/BaseContract.sol\":7397:7880  function ekleSertifikaMerkezi(address _smAdres,string memory _isim, uint8 _ulke) \r... */\n      pop\n      pop\n      pop\n      jump\t// out\n        /* \"contracts/BaseContract.sol\":5225:5266  mapping(uint32=>YabanciDil) public diller */\n    tag_114:\n      mstore(0x20, 0x0b)\n      dup1\n      0x00\n      mstore\n      keccak256(0x00, 0x40)\n      0x00\n      swap2\n      pop\n      swap1\n      pop\n      dup1\n      0x00\n      add\n      0x00\n      swap1\n      sload\n      swap1\n      0x0100\n      exp\n      swap1\n      div\n      0xffffffff\n      and\n      swap1\n      dup1\n      0x01\n      add\n      dup1\n      sload\n      tag_219\n      swap1\n      tag_173\n      jump\t// in\n    tag_219:\n      dup1\n      0x1f\n      add\n      0x20\n      dup1\n      swap2\n      div\n      mul\n      0x20\n      add\n      mload(0x40)\n      swap1\n      dup2\n      add\n      0x40\n      mstore\n      dup1\n      swap3\n      swap2\n      swap1\n      dup2\n      dup2\n      mstore\n      0x20\n      add\n      dup3\n      dup1\n      sload\n      tag_220\n      swap1\n      tag_173\n      jump\t// in\n    tag_220:\n      dup1\n      iszero\n      tag_221\n      jumpi\n      dup1\n      0x1f\n      lt\n      tag_222\n      jumpi\n      0x0100\n      dup1\n      dup4\n      sload\n      div\n      mul\n      dup4\n      mstore\n      swap2\n      0x20\n      add\n      swap2\n      jump(tag_221)\n    tag_222:\n      dup3\n      add\n      swap2\n      swap1\n      0x00\n      mstore\n      keccak256(0x00, 0x20)\n      swap1\n    tag_223:\n      dup2\n      sload\n      dup2\n      mstore\n      swap1\n      0x01\n      add\n      swap1\n      0x20\n      add\n      dup1\n      dup4\n      gt\n      tag_223\n      jumpi\n      dup3\n      swap1\n      sub\n      0x1f\n      and\n      dup3\n      add\n      swap2\n    tag_221:\n      pop\n      pop\n      pop\n      pop\n      pop\n      swap1\n      pop\n      dup3\n      jump\t// out\n        /* \"contracts/BaseContract.sol\":4065:4173  function isKisi(address _address) public view returns(bool){\r... */\n    tag_119:\n        /* \"contracts/BaseContract.sol\":4119:4123  bool */\n      0x00\n        /* \"contracts/BaseContract.sol\":4142:4149  kisiler */\n      0x03\n        /* \"contracts/BaseContract.sol\":4142:4159  kisiler[_address] */\n      0x00\n        /* \"contracts/BaseContract.sol\":4150:4158  _address */\n      dup4\n        /* \"contracts/BaseContract.sol\":4142:4159  kisiler[_address] */\n      0xffffffffffffffffffffffffffffffffffffffff\n      and\n      0xffffffffffffffffffffffffffffffffffffffff\n      and\n      dup2\n      mstore\n      0x20\n      add\n      swap1\n      dup2\n      mstore\n      0x20\n      add\n      0x00\n      keccak256\n        /* \"contracts/BaseContract.sol\":4142:4165  kisiler[_address].durum */\n      0x00\n      add\n      0x00\n      swap1\n      sload\n      swap1\n      0x0100\n      exp\n      swap1\n      div\n      0xff\n      and\n        /* \"contracts/BaseContract.sol\":4135:4165  return kisiler[_address].durum */\n      swap1\n      pop\n        /* \"contracts/BaseContract.sol\":4065:4173  function isKisi(address _address) public view returns(bool){\r... */\n      swap2\n      swap1\n      pop\n      jump\t// out\n        /* \"contracts/BaseContract.sol\":4909:4960  mapping(address=>Akademisyen) public akademisyenler */\n    tag_123:\n      mstore(0x20, 0x05)\n      dup1\n      0x00\n      mstore\n      keccak256(0x00, 0x40)\n      0x00\n      swap2\n      pop\n      swap1\n      pop\n      dup1\n      0x00\n      add\n      0x00\n      swap1\n      sload\n      swap1\n      0x0100\n      exp\n      swap1\n      div\n      0xff\n      and\n      swap1\n      dup1\n      0x00\n      add\n      0x01\n      swap1\n      sload\n      swap1\n      0x0100\n      exp\n      swap1\n      div\n      0xffffffffffffffffffffffffffffffffffffffff\n      and\n      swap1\n      dup1\n      0x00\n      add\n      0x15\n      swap1\n      sload\n      swap1\n      0x0100\n      exp\n      swap1\n      div\n      0xffff\n      and\n      swap1\n      dup1\n      0x00\n      add\n      0x17\n      swap1\n      sload\n      swap1\n      0x0100\n      exp\n      swap1\n      div\n      0xff\n      and\n      swap1\n      dup1\n      0x01\n      add\n      dup1\n      sload\n      tag_225\n      swap1\n      tag_173\n      jump\t// in\n    tag_225:\n      dup1\n      0x1f\n      add\n      0x20\n      dup1\n      swap2\n      div\n      mul\n      0x20\n      add\n      mload(0x40)\n      swap1\n      dup2\n      add\n      0x40\n      mstore\n      dup1\n      swap3\n      swap2\n      swap1\n      dup2\n      dup2\n      mstore\n      0x20\n      add\n      dup3\n      dup1\n      sload\n      tag_226\n      swap1\n      tag_173\n      jump\t// in\n    tag_226:\n      dup1\n      iszero\n      tag_227\n      jumpi\n      dup1\n      0x1f\n      lt\n      tag_228\n      jumpi\n      0x0100\n      dup1\n      dup4\n      sload\n      div\n      mul\n      dup4\n      mstore\n      swap2\n      0x20\n      add\n      swap2\n      jump(tag_227)\n    tag_228:\n      dup3\n      add\n      swap2\n      swap1\n      0x00\n      mstore\n      keccak256(0x00, 0x20)\n      swap1\n    tag_229:\n      dup2\n      sload\n      dup2\n      mstore\n      swap1\n      0x01\n      add\n      swap1\n      0x20\n      add\n      dup1\n      dup4\n      gt\n      tag_229\n      jumpi\n      dup3\n      swap1\n      sub\n      0x1f\n      and\n      dup3\n      add\n      swap2\n    tag_227:\n      pop\n      pop\n      pop\n      pop\n      pop\n      swap1\n      dup1\n      0x02\n      add\n      dup1\n      sload\n      tag_230\n      swap1\n      tag_173\n      jump\t// in\n    tag_230:\n      dup1\n      0x1f\n      add\n      0x20\n      dup1\n      swap2\n      div\n      mul\n      0x20\n      add\n      mload(0x40)\n      swap1\n      dup2\n      add\n      0x40\n      mstore\n      dup1\n      swap3\n      swap2\n      swap1\n      dup2\n      dup2\n      mstore\n      0x20\n      add\n      dup3\n      dup1\n      sload\n      tag_231\n      swap1\n      tag_173\n      jump\t// in\n    tag_231:\n      dup1\n      iszero\n      tag_232\n      jumpi\n      dup1\n      0x1f\n      lt\n      tag_233\n      jumpi\n      0x0100\n      dup1\n      dup4\n      sload\n      div\n      mul\n      dup4\n      mstore\n      swap2\n      0x20\n      add\n      swap2\n      jump(tag_232)\n    tag_233:\n      dup3\n      add\n      swap2\n      swap1\n      0x00\n      mstore\n      keccak256(0x00, 0x20)\n      swap1\n    tag_234:\n      dup2\n      sload\n      dup2\n      mstore\n      swap1\n      0x01\n      add\n      swap1\n      0x20\n      add\n      dup1\n      dup4\n      gt\n      tag_234\n      jumpi\n      dup3\n      swap1\n      sub\n      0x1f\n      and\n      dup3\n      add\n      swap2\n    tag_232:\n      pop\n      pop\n      pop\n      pop\n      pop\n      swap1\n      pop\n      dup7\n      jump\t// out\n        /* \"contracts/BaseContract.sol\":4809:4846  mapping(address=>Kisi) public kisiler */\n    tag_128:\n      mstore(0x20, 0x03)\n      dup1\n      0x00\n      mstore\n      keccak256(0x00, 0x40)\n      0x00\n      swap2\n      pop\n      swap1\n      pop\n      dup1\n      0x00\n      add\n      0x00\n      swap1\n      sload\n      swap1\n      0x0100\n      exp\n      swap1\n      div\n      0xff\n      and\n      swap1\n      pop\n      dup2\n      jump\t// out\n        /* \"contracts/BaseContract.sol\":5880:6279  function ekleFirma(address _firmaAdres,string memory _isim, uint _vergiNo,uint8 _ulke) \r... */\n    tag_133:\n        /* \"contracts/BaseContract.sol\":5998:6018  isFirma(_firmaAdres) */\n      tag_236\n        /* \"contracts/BaseContract.sol\":6006:6017  _firmaAdres */\n      dup5\n        /* \"contracts/BaseContract.sol\":5998:6005  isFirma */\n      tag_71\n        /* \"contracts/BaseContract.sol\":5998:6018  isFirma(_firmaAdres) */\n      jump\t// in\n    tag_236:\n        /* \"contracts/BaseContract.sol\":5997:6018  !isFirma(_firmaAdres) */\n      iszero\n        /* \"contracts/BaseContract.sol\":5989:6068  require(!isFirma(_firmaAdres),\r... */\n      tag_237\n      jumpi\n      mload(0x40)\n      0x08c379a000000000000000000000000000000000000000000000000000000000\n      dup2\n      mstore\n      0x04\n      add\n      tag_238\n      swap1\n      tag_239\n      jump\t// in\n    tag_238:\n      mload(0x40)\n      dup1\n      swap2\n      sub\n      swap1\n      revert\n    tag_237:\n        /* \"contracts/BaseContract.sol\":6121:6125  true */\n      0x01\n        /* \"contracts/BaseContract.sol\":6093:6101  firmalar */\n      0x06\n        /* \"contracts/BaseContract.sol\":6093:6114  firmalar[_firmaAdres] */\n      0x00\n        /* \"contracts/BaseContract.sol\":6102:6113  _firmaAdres */\n      dup7\n        /* \"contracts/BaseContract.sol\":6093:6114  firmalar[_firmaAdres] */\n      0xffffffffffffffffffffffffffffffffffffffff\n      and\n      0xffffffffffffffffffffffffffffffffffffffff\n      and\n      dup2\n      mstore\n      0x20\n      add\n      swap1\n      dup2\n      mstore\n      0x20\n      add\n      0x00\n      keccak256\n        /* \"contracts/BaseContract.sol\":6093:6120  firmalar[_firmaAdres].durum */\n      0x00\n      add\n      0x00\n        /* \"contracts/BaseContract.sol\":6093:6125  firmalar[_firmaAdres].durum=true */\n      0x0100\n      exp\n      dup2\n      sload\n      dup2\n      0xff\n      mul\n      not\n      and\n      swap1\n      dup4\n      iszero\n      iszero\n      mul\n      or\n      swap1\n      sstore\n      pop\n        /* \"contracts/BaseContract.sol\":6163:6168  _isim */\n      dup3\n        /* \"contracts/BaseContract.sol\":6136:6144  firmalar */\n      0x06\n        /* \"contracts/BaseContract.sol\":6136:6157  firmalar[_firmaAdres] */\n      0x00\n        /* \"contracts/BaseContract.sol\":6145:6156  _firmaAdres */\n      dup7\n        /* \"contracts/BaseContract.sol\":6136:6157  firmalar[_firmaAdres] */\n      0xffffffffffffffffffffffffffffffffffffffff\n      and\n      0xffffffffffffffffffffffffffffffffffffffff\n      and\n      dup2\n      mstore\n      0x20\n      add\n      swap1\n      dup2\n      mstore\n      0x20\n      add\n      0x00\n      keccak256\n        /* \"contracts/BaseContract.sol\":6136:6162  firmalar[_firmaAdres].isim */\n      0x02\n      add\n        /* \"contracts/BaseContract.sol\":6136:6168  firmalar[_firmaAdres].isim=_isim */\n      swap1\n      dup1\n      mload\n      swap1\n      0x20\n      add\n      swap1\n      tag_240\n      swap3\n      swap2\n      swap1\n      tag_162\n      jump\t// in\n    tag_240:\n      pop\n        /* \"contracts/BaseContract.sol\":6206:6211  _ulke */\n      dup1\n        /* \"contracts/BaseContract.sol\":6179:6187  firmalar */\n      0x06\n        /* \"contracts/BaseContract.sol\":6179:6200  firmalar[_firmaAdres] */\n      0x00\n        /* \"contracts/BaseContract.sol\":6188:6199  _firmaAdres */\n      dup7\n        /* \"contracts/BaseContract.sol\":6179:6200  firmalar[_firmaAdres] */\n      0xffffffffffffffffffffffffffffffffffffffff\n      and\n      0xffffffffffffffffffffffffffffffffffffffff\n      and\n      dup2\n      mstore\n      0x20\n      add\n      swap1\n      dup2\n      mstore\n      0x20\n      add\n      0x00\n      keccak256\n        /* \"contracts/BaseContract.sol\":6179:6205  firmalar[_firmaAdres].ulke */\n      0x00\n      add\n      0x01\n        /* \"contracts/BaseContract.sol\":6179:6211  firmalar[_firmaAdres].ulke=_ulke */\n      0x0100\n      exp\n      dup2\n      sload\n      dup2\n      0xff\n      mul\n      not\n      and\n      swap1\n      dup4\n      0xff\n      and\n      mul\n      or\n      swap1\n      sstore\n      pop\n        /* \"contracts/BaseContract.sol\":6252:6260  _vergiNo */\n      dup2\n        /* \"contracts/BaseContract.sol\":6222:6230  firmalar */\n      0x06\n        /* \"contracts/BaseContract.sol\":6222:6243  firmalar[_firmaAdres] */\n      0x00\n        /* \"contracts/BaseContract.sol\":6231:6242  _firmaAdres */\n      dup7\n        /* \"contracts/BaseContract.sol\":6222:6243  firmalar[_firmaAdres] */\n      0xffffffffffffffffffffffffffffffffffffffff\n      and\n      0xffffffffffffffffffffffffffffffffffffffff\n      and\n      dup2\n      mstore\n      0x20\n      add\n      swap1\n      dup2\n      mstore\n      0x20\n      add\n      0x00\n      keccak256\n        /* \"contracts/BaseContract.sol\":6222:6251  firmalar[_firmaAdres].vergiNo */\n      0x01\n      add\n        /* \"contracts/BaseContract.sol\":6222:6260  firmalar[_firmaAdres].vergiNo=_vergiNo */\n      dup2\n      swap1\n      sstore\n      pop\n        /* \"contracts/BaseContract.sol\":5880:6279  function ekleFirma(address _firmaAdres,string memory _isim, uint _vergiNo,uint8 _ulke) \r... */\n      pop\n      pop\n      pop\n      pop\n      jump\t// out\n        /* \"contracts/BaseContract.sol\":3616:3713  function isYOK(address _address) public view returns(bool){\r... */\n    tag_136:\n        /* \"contracts/BaseContract.sol\":3669:3673  bool */\n      0x00\n        /* \"contracts/BaseContract.sol\":3697:3705  _address */\n      dup2\n        /* \"contracts/BaseContract.sol\":3692:3705  YOK==_address */\n      0xffffffffffffffffffffffffffffffffffffffff\n      and\n        /* \"contracts/BaseContract.sol\":3692:3695  YOK */\n      0x00\n      dup1\n      sload\n      swap1\n      0x0100\n      exp\n      swap1\n      div\n      0xffffffffffffffffffffffffffffffffffffffff\n      and\n        /* \"contracts/BaseContract.sol\":3692:3705  YOK==_address */\n      0xffffffffffffffffffffffffffffffffffffffff\n      and\n      eq\n        /* \"contracts/BaseContract.sol\":3685:3705  return YOK==_address */\n      swap1\n      pop\n        /* \"contracts/BaseContract.sol\":3616:3713  function isYOK(address _address) public view returns(bool){\r... */\n      swap2\n      swap1\n      pop\n      jump\t// out\n        /* \"contracts/BaseContract.sol\":4669:4801  function isSertifikaMerkezi(address _address) public view returns(bool){\r... */\n    tag_140:\n        /* \"contracts/BaseContract.sol\":4735:4739  bool */\n      0x00\n        /* \"contracts/BaseContract.sol\":4758:4777  sertifikaMerkezleri */\n      0x0a\n        /* \"contracts/BaseContract.sol\":4758:4787  sertifikaMerkezleri[_address] */\n      0x00\n        /* \"contracts/BaseContract.sol\":4778:4786  _address */\n      dup4\n        /* \"contracts/BaseContract.sol\":4758:4787  sertifikaMerkezleri[_address] */\n      0xffffffffffffffffffffffffffffffffffffffff\n      and\n      0xffffffffffffffffffffffffffffffffffffffff\n      and\n      dup2\n      mstore\n      0x20\n      add\n      swap1\n      dup2\n      mstore\n      0x20\n      add\n      0x00\n      keccak256\n        /* \"contracts/BaseContract.sol\":4758:4793  sertifikaMerkezleri[_address].durum */\n      0x00\n      add\n      0x00\n      swap1\n      sload\n      swap1\n      0x0100\n      exp\n      swap1\n      div\n      0xff\n      and\n        /* \"contracts/BaseContract.sol\":4751:4793  return sertifikaMerkezleri[_address].durum */\n      swap1\n      pop\n        /* \"contracts/BaseContract.sol\":4669:4801  function isSertifikaMerkezi(address _address) public view returns(bool){\r... */\n      swap2\n      swap1\n      pop\n      jump\t// out\n        /* \"contracts/BaseContract.sol\":3832:3927  function isCB(address _address) public view returns(bool){\r... */\n    tag_144:\n        /* \"contracts/BaseContract.sol\":3884:3888  bool */\n      0x00\n        /* \"contracts/BaseContract.sol\":3911:3919  _address */\n      dup2\n        /* \"contracts/BaseContract.sol\":3907:3919  CB==_address */\n      0xffffffffffffffffffffffffffffffffffffffff\n      and\n        /* \"contracts/BaseContract.sol\":3907:3909  CB */\n      0x02\n      0x00\n      swap1\n      sload\n      swap1\n      0x0100\n      exp\n      swap1\n      div\n      0xffffffffffffffffffffffffffffffffffffffff\n      and\n        /* \"contracts/BaseContract.sol\":3907:3919  CB==_address */\n      0xffffffffffffffffffffffffffffffffffffffff\n      and\n      eq\n        /* \"contracts/BaseContract.sol\":3900:3919  return CB==_address */\n      swap1\n      pop\n        /* \"contracts/BaseContract.sol\":3832:3927  function isCB(address _address) public view returns(bool){\r... */\n      swap2\n      swap1\n      pop\n      jump\t// out\n        /* \"contracts/BaseContract.sol\":3937:4057  function isUniversite(address _address) public view returns(bool){\r... */\n    tag_148:\n        /* \"contracts/BaseContract.sol\":3997:4001  bool */\n      0x00\n        /* \"contracts/BaseContract.sol\":4020:4033  universiteler */\n      0x04\n        /* \"contracts/BaseContract.sol\":4020:4043  universiteler[_address] */\n      0x00\n        /* \"contracts/BaseContract.sol\":4034:4042  _address */\n      dup4\n        /* \"contracts/BaseContract.sol\":4020:4043  universiteler[_address] */\n      0xffffffffffffffffffffffffffffffffffffffff\n      and\n      0xffffffffffffffffffffffffffffffffffffffff\n      and\n      dup2\n      mstore\n      0x20\n      add\n      swap1\n      dup2\n      mstore\n      0x20\n      add\n      0x00\n      keccak256\n        /* \"contracts/BaseContract.sol\":4020:4049  universiteler[_address].durum */\n      0x00\n      add\n      0x00\n      swap1\n      sload\n      swap1\n      0x0100\n      exp\n      swap1\n      div\n      0xff\n      and\n        /* \"contracts/BaseContract.sol\":4013:4049  return universiteler[_address].durum */\n      swap1\n      pop\n        /* \"contracts/BaseContract.sol\":3937:4057  function isUniversite(address _address) public view returns(bool){\r... */\n      swap2\n      swap1\n      pop\n      jump\t// out\n        /* \"contracts/BaseContract.sol\":5673:5872  function ekleKisi(address _kisiAdres)  public{\r... */\n    tag_152:\n        /* \"contracts/BaseContract.sol\":5738:5756  isKisi(_kisiAdres) */\n      tag_246\n        /* \"contracts/BaseContract.sol\":5745:5755  _kisiAdres */\n      dup2\n        /* \"contracts/BaseContract.sol\":5738:5744  isKisi */\n      tag_119\n        /* \"contracts/BaseContract.sol\":5738:5756  isKisi(_kisiAdres) */\n      jump\t// in\n    tag_246:\n        /* \"contracts/BaseContract.sol\":5737:5756  !isKisi(_kisiAdres) */\n      iszero\n        /* \"contracts/BaseContract.sol\":5729:5805  require(!isKisi(_kisiAdres),\r... */\n      tag_247\n      jumpi\n      mload(0x40)\n      0x08c379a000000000000000000000000000000000000000000000000000000000\n      dup2\n      mstore\n      0x04\n      add\n      tag_248\n      swap1\n      tag_249\n      jump\t// in\n    tag_248:\n      mload(0x40)\n      dup1\n      swap2\n      sub\n      swap1\n      revert\n    tag_247:\n        /* \"contracts/BaseContract.sol\":5850:5854  true */\n      0x01\n        /* \"contracts/BaseContract.sol\":5824:5831  kisiler */\n      0x03\n        /* \"contracts/BaseContract.sol\":5824:5843  kisiler[_kisiAdres] */\n      0x00\n        /* \"contracts/BaseContract.sol\":5832:5842  _kisiAdres */\n      dup4\n        /* \"contracts/BaseContract.sol\":5824:5843  kisiler[_kisiAdres] */\n      0xffffffffffffffffffffffffffffffffffffffff\n      and\n      0xffffffffffffffffffffffffffffffffffffffff\n      and\n      dup2\n      mstore\n      0x20\n      add\n      swap1\n      dup2\n      mstore\n      0x20\n      add\n      0x00\n      keccak256\n        /* \"contracts/BaseContract.sol\":5824:5849  kisiler[_kisiAdres].durum */\n      0x00\n      add\n      0x00\n        /* \"contracts/BaseContract.sol\":5824:5854  kisiler[_kisiAdres].durum=true */\n      0x0100\n      exp\n      dup2\n      sload\n      dup2\n      0xff\n      mul\n      not\n      and\n      swap1\n      dup4\n      iszero\n      iszero\n      mul\n      or\n      swap1\n      sstore\n      pop\n        /* \"contracts/BaseContract.sol\":5673:5872  function ekleKisi(address _kisiAdres)  public{\r... */\n      pop\n      jump\t// out\n        /* \"contracts/BaseContract.sol\":6286:6689  function ekleKamuKurumu(address _kamuKurumuAdres,string memory _isim, uint8 _ulke) \r... */\n    tag_155:\n        /* \"contracts/BaseContract.sol\":6403:6433  isKamuKurumu(_kamuKurumuAdres) */\n      tag_251\n        /* \"contracts/BaseContract.sol\":6416:6432  _kamuKurumuAdres */\n      dup4\n        /* \"contracts/BaseContract.sol\":6403:6415  isKamuKurumu */\n      tag_91\n        /* \"contracts/BaseContract.sol\":6403:6433  isKamuKurumu(_kamuKurumuAdres) */\n      jump\t// in\n    tag_251:\n        /* \"contracts/BaseContract.sol\":6402:6433  !isKamuKurumu(_kamuKurumuAdres) */\n      iszero\n        /* \"contracts/BaseContract.sol\":6394:6488  require(!isKamuKurumu(_kamuKurumuAdres),\r... */\n      tag_252\n      jumpi\n      mload(0x40)\n      0x08c379a000000000000000000000000000000000000000000000000000000000\n      dup2\n      mstore\n      0x04\n      add\n      tag_253\n      swap1\n      tag_254\n      jump\t// in\n    tag_253:\n      mload(0x40)\n      dup1\n      swap2\n      sub\n      swap1\n      revert\n    tag_252:\n        /* \"contracts/BaseContract.sol\":6551:6555  true */\n      0x01\n        /* \"contracts/BaseContract.sol\":6513:6526  kamuKurumlari */\n      0x08\n        /* \"contracts/BaseContract.sol\":6513:6544  kamuKurumlari[_kamuKurumuAdres] */\n      0x00\n        /* \"contracts/BaseContract.sol\":6527:6543  _kamuKurumuAdres */\n      dup6\n        /* \"contracts/BaseContract.sol\":6513:6544  kamuKurumlari[_kamuKurumuAdres] */\n      0xffffffffffffffffffffffffffffffffffffffff\n      and\n      0xffffffffffffffffffffffffffffffffffffffff\n      and\n      dup2\n      mstore\n      0x20\n      add\n      swap1\n      dup2\n      mstore\n      0x20\n      add\n      0x00\n      keccak256\n        /* \"contracts/BaseContract.sol\":6513:6550  kamuKurumlari[_kamuKurumuAdres].durum */\n      0x00\n      add\n      0x00\n        /* \"contracts/BaseContract.sol\":6513:6555  kamuKurumlari[_kamuKurumuAdres].durum=true */\n      0x0100\n      exp\n      dup2\n      sload\n      dup2\n      0xff\n      mul\n      not\n      and\n      swap1\n      dup4\n      iszero\n      iszero\n      mul\n      or\n      swap1\n      sstore\n      pop\n        /* \"contracts/BaseContract.sol\":6603:6608  _isim */\n      dup2\n        /* \"contracts/BaseContract.sol\":6566:6579  kamuKurumlari */\n      0x08\n        /* \"contracts/BaseContract.sol\":6566:6597  kamuKurumlari[_kamuKurumuAdres] */\n      0x00\n        /* \"contracts/BaseContract.sol\":6580:6596  _kamuKurumuAdres */\n      dup6\n        /* \"contracts/BaseContract.sol\":6566:6597  kamuKurumlari[_kamuKurumuAdres] */\n      0xffffffffffffffffffffffffffffffffffffffff\n      and\n      0xffffffffffffffffffffffffffffffffffffffff\n      and\n      dup2\n      mstore\n      0x20\n      add\n      swap1\n      dup2\n      mstore\n      0x20\n      add\n      0x00\n      keccak256\n        /* \"contracts/BaseContract.sol\":6566:6602  kamuKurumlari[_kamuKurumuAdres].isim */\n      0x01\n      add\n        /* \"contracts/BaseContract.sol\":6566:6608  kamuKurumlari[_kamuKurumuAdres].isim=_isim */\n      swap1\n      dup1\n      mload\n      swap1\n      0x20\n      add\n      swap1\n      tag_255\n      swap3\n      swap2\n      swap1\n      tag_162\n      jump\t// in\n    tag_255:\n      pop\n        /* \"contracts/BaseContract.sol\":6656:6661  _ulke */\n      dup1\n        /* \"contracts/BaseContract.sol\":6619:6632  kamuKurumlari */\n      0x08\n        /* \"contracts/BaseContract.sol\":6619:6650  kamuKurumlari[_kamuKurumuAdres] */\n      0x00\n        /* \"contracts/BaseContract.sol\":6633:6649  _kamuKurumuAdres */\n      dup6\n        /* \"contracts/BaseContract.sol\":6619:6650  kamuKurumlari[_kamuKurumuAdres] */\n      0xffffffffffffffffffffffffffffffffffffffff\n      and\n      0xffffffffffffffffffffffffffffffffffffffff\n      and\n      dup2\n      mstore\n      0x20\n      add\n      swap1\n      dup2\n      mstore\n      0x20\n      add\n      0x00\n      keccak256\n        /* \"contracts/BaseContract.sol\":6619:6655  kamuKurumlari[_kamuKurumuAdres].ulke */\n      0x02\n      add\n      0x00\n        /* \"contracts/BaseContract.sol\":6619:6661  kamuKurumlari[_kamuKurumuAdres].ulke=_ulke */\n      0x0100\n      exp\n      dup2\n      sload\n      dup2\n      0xff\n      mul\n      not\n      and\n      swap1\n      dup4\n      0xff\n      and\n      mul\n      or\n      swap1\n      sstore\n      pop\n        /* \"contracts/BaseContract.sol\":6286:6689  function ekleKamuKurumu(address _kamuKurumuAdres,string memory _isim, uint8 _ulke) \r... */\n      pop\n      pop\n      pop\n      jump\t// out\n    tag_162:\n      dup3\n      dup1\n      sload\n      tag_256\n      swap1\n      tag_173\n      jump\t// in\n    tag_256:\n      swap1\n      0x00\n      mstore\n      keccak256(0x00, 0x20)\n      swap1\n      0x1f\n      add\n      0x20\n      swap1\n      div\n      dup2\n      add\n      swap3\n      dup3\n      tag_258\n      jumpi\n      0x00\n      dup6\n      sstore\n      jump(tag_257)\n    tag_258:\n      dup3\n      0x1f\n      lt\n      tag_259\n      jumpi\n      dup1\n      mload\n      not(0xff)\n      and\n      dup4\n      dup1\n      add\n      or\n      dup6\n      sstore\n      jump(tag_257)\n    tag_259:\n      dup3\n      dup1\n      add\n      0x01\n      add\n      dup6\n      sstore\n      dup3\n      iszero\n      tag_257\n      jumpi\n      swap2\n      dup3\n      add\n    tag_260:\n      dup3\n      dup2\n      gt\n      iszero\n      tag_261\n      jumpi\n      dup3\n      mload\n      dup3\n      sstore\n      swap2\n      0x20\n      add\n      swap2\n      swap1\n      0x01\n      add\n      swap1\n      jump(tag_260)\n    tag_261:\n    tag_257:\n      pop\n      swap1\n      pop\n      tag_262\n      swap2\n      swap1\n      tag_263\n      jump\t// in\n    tag_262:\n      pop\n      swap1\n      jump\t// out\n    tag_263:\n    tag_264:\n      dup1\n      dup3\n      gt\n      iszero\n      tag_265\n      jumpi\n      0x00\n      dup2\n      0x00\n      swap1\n      sstore\n      pop\n      0x01\n      add\n      jump(tag_264)\n    tag_265:\n      pop\n      swap1\n      jump\t// out\n        /* \"#utility.yul\":7:419   */\n    tag_267:\n        /* \"#utility.yul\":85:90   */\n      0x00\n        /* \"#utility.yul\":110:176   */\n      tag_269\n        /* \"#utility.yul\":126:175   */\n      tag_270\n        /* \"#utility.yul\":168:174   */\n      dup5\n        /* \"#utility.yul\":126:175   */\n      tag_271\n      jump\t// in\n    tag_270:\n        /* \"#utility.yul\":110:176   */\n      tag_272\n      jump\t// in\n    tag_269:\n        /* \"#utility.yul\":101:176   */\n      swap1\n      pop\n        /* \"#utility.yul\":199:205   */\n      dup3\n        /* \"#utility.yul\":192:197   */\n      dup2\n        /* \"#utility.yul\":185:206   */\n      mstore\n        /* \"#utility.yul\":237:241   */\n      0x20\n        /* \"#utility.yul\":230:235   */\n      dup2\n        /* \"#utility.yul\":226:242   */\n      add\n        /* \"#utility.yul\":275:278   */\n      dup5\n        /* \"#utility.yul\":266:272   */\n      dup5\n        /* \"#utility.yul\":261:264   */\n      dup5\n        /* \"#utility.yul\":257:273   */\n      add\n        /* \"#utility.yul\":254:279   */\n      gt\n        /* \"#utility.yul\":251:363   */\n      iszero\n      tag_273\n      jumpi\n        /* \"#utility.yul\":282:361   */\n      tag_274\n      tag_275\n      jump\t// in\n    tag_274:\n        /* \"#utility.yul\":251:363   */\n    tag_273:\n        /* \"#utility.yul\":372:413   */\n      tag_276\n        /* \"#utility.yul\":406:412   */\n      dup5\n        /* \"#utility.yul\":401:404   */\n      dup3\n        /* \"#utility.yul\":396:399   */\n      dup6\n        /* \"#utility.yul\":372:413   */\n      tag_277\n      jump\t// in\n    tag_276:\n        /* \"#utility.yul\":91:419   */\n      pop\n        /* \"#utility.yul\":7:419   */\n      swap4\n      swap3\n      pop\n      pop\n      pop\n      jump\t// out\n        /* \"#utility.yul\":425:564   */\n    tag_278:\n        /* \"#utility.yul\":471:476   */\n      0x00\n        /* \"#utility.yul\":509:515   */\n      dup2\n        /* \"#utility.yul\":496:516   */\n      calldataload\n        /* \"#utility.yul\":487:516   */\n      swap1\n      pop\n        /* \"#utility.yul\":525:558   */\n      tag_280\n        /* \"#utility.yul\":552:557   */\n      dup2\n        /* \"#utility.yul\":525:558   */\n      tag_281\n      jump\t// in\n    tag_280:\n        /* \"#utility.yul\":425:564   */\n      swap3\n      swap2\n      pop\n      pop\n      jump\t// out\n        /* \"#utility.yul\":584:924   */\n    tag_282:\n        /* \"#utility.yul\":640:645   */\n      0x00\n        /* \"#utility.yul\":689:692   */\n      dup3\n        /* \"#utility.yul\":682:686   */\n      0x1f\n        /* \"#utility.yul\":674:680   */\n      dup4\n        /* \"#utility.yul\":670:687   */\n      add\n        /* \"#utility.yul\":666:693   */\n      slt\n        /* \"#utility.yul\":656:778   */\n      tag_284\n      jumpi\n        /* \"#utility.yul\":697:776   */\n      tag_285\n      tag_286\n      jump\t// in\n    tag_285:\n        /* \"#utility.yul\":656:778   */\n    tag_284:\n        /* \"#utility.yul\":814:820   */\n      dup2\n        /* \"#utility.yul\":801:821   */\n      calldataload\n        /* \"#utility.yul\":839:918   */\n      tag_287\n        /* \"#utility.yul\":914:917   */\n      dup5\n        /* \"#utility.yul\":906:912   */\n      dup3\n        /* \"#utility.yul\":899:903   */\n      0x20\n        /* \"#utility.yul\":891:897   */\n      dup7\n        /* \"#utility.yul\":887:904   */\n      add\n        /* \"#utility.yul\":839:918   */\n      tag_267\n      jump\t// in\n    tag_287:\n        /* \"#utility.yul\":830:918   */\n      swap2\n      pop\n        /* \"#utility.yul\":646:924   */\n      pop\n        /* \"#utility.yul\":584:924   */\n      swap3\n      swap2\n      pop\n      pop\n      jump\t// out\n        /* \"#utility.yul\":930:1069   */\n    tag_288:\n        /* \"#utility.yul\":976:981   */\n      0x00\n        /* \"#utility.yul\":1014:1020   */\n      dup2\n        /* \"#utility.yul\":1001:1021   */\n      calldataload\n        /* \"#utility.yul\":992:1021   */\n      swap1\n      pop\n        /* \"#utility.yul\":1030:1063   */\n      tag_290\n        /* \"#utility.yul\":1057:1062   */\n      dup2\n        /* \"#utility.yul\":1030:1063   */\n      tag_291\n      jump\t// in\n    tag_290:\n        /* \"#utility.yul\":930:1069   */\n      swap3\n      swap2\n      pop\n      pop\n      jump\t// out\n        /* \"#utility.yul\":1075:1212   */\n    tag_292:\n        /* \"#utility.yul\":1120:1125   */\n      0x00\n        /* \"#utility.yul\":1158:1164   */\n      dup2\n        /* \"#utility.yul\":1145:1165   */\n      calldataload\n        /* \"#utility.yul\":1136:1165   */\n      swap1\n      pop\n        /* \"#utility.yul\":1174:1206   */\n      tag_294\n        /* \"#utility.yul\":1200:1205   */\n      dup2\n        /* \"#utility.yul\":1174:1206   */\n      tag_295\n      jump\t// in\n    tag_294:\n        /* \"#utility.yul\":1075:1212   */\n      swap3\n      swap2\n      pop\n      pop\n      jump\t// out\n        /* \"#utility.yul\":1218:1353   */\n    tag_296:\n        /* \"#utility.yul\":1262:1267   */\n      0x00\n        /* \"#utility.yul\":1300:1306   */\n      dup2\n        /* \"#utility.yul\":1287:1307   */\n      calldataload\n        /* \"#utility.yul\":1278:1307   */\n      swap1\n      pop\n        /* \"#utility.yul\":1316:1347   */\n      tag_298\n        /* \"#utility.yul\":1341:1346   */\n      dup2\n        /* \"#utility.yul\":1316:1347   */\n      tag_299\n      jump\t// in\n    tag_298:\n        /* \"#utility.yul\":1218:1353   */\n      swap3\n      swap2\n      pop\n      pop\n      jump\t// out\n        /* \"#utility.yul\":1359:1688   */\n    tag_45:\n        /* \"#utility.yul\":1418:1424   */\n      0x00\n        /* \"#utility.yul\":1467:1469   */\n      0x20\n        /* \"#utility.yul\":1455:1464   */\n      dup3\n        /* \"#utility.yul\":1446:1453   */\n      dup5\n        /* \"#utility.yul\":1442:1465   */\n      sub\n        /* \"#utility.yul\":1438:1470   */\n      slt\n        /* \"#utility.yul\":1435:1554   */\n      iszero\n      tag_301\n      jumpi\n        /* \"#utility.yul\":1473:1552   */\n      tag_302\n      tag_303\n      jump\t// in\n    tag_302:\n        /* \"#utility.yul\":1435:1554   */\n    tag_301:\n        /* \"#utility.yul\":1593:1594   */\n      0x00\n        /* \"#utility.yul\":1618:1671   */\n      tag_304\n        /* \"#utility.yul\":1663:1670   */\n      dup5\n        /* \"#utility.yul\":1654:1660   */\n      dup3\n        /* \"#utility.yul\":1643:1652   */\n      dup6\n        /* \"#utility.yul\":1639:1661   */\n      add\n        /* \"#utility.yul\":1618:1671   */\n      tag_278\n      jump\t// in\n    tag_304:\n        /* \"#utility.yul\":1608:1671   */\n      swap2\n      pop\n        /* \"#utility.yul\":1564:1681   */\n      pop\n        /* \"#utility.yul\":1359:1688   */\n      swap3\n      swap2\n      pop\n      pop\n      jump\t// out\n        /* \"#utility.yul\":1694:2313   */\n    tag_79:\n        /* \"#utility.yul\":1771:1777   */\n      0x00\n        /* \"#utility.yul\":1779:1785   */\n      dup1\n        /* \"#utility.yul\":1787:1793   */\n      0x00\n        /* \"#utility.yul\":1836:1838   */\n      0x60\n        /* \"#utility.yul\":1824:1833   */\n      dup5\n        /* \"#utility.yul\":1815:1822   */\n      dup7\n        /* \"#utility.yul\":1811:1834   */\n      sub\n        /* \"#utility.yul\":1807:1839   */\n      slt\n        /* \"#utility.yul\":1804:1923   */\n      iszero\n      tag_306\n      jumpi\n        /* \"#utility.yul\":1842:1921   */\n      tag_307\n      tag_303\n      jump\t// in\n    tag_307:\n        /* \"#utility.yul\":1804:1923   */\n    tag_306:\n        /* \"#utility.yul\":1962:1963   */\n      0x00\n        /* \"#utility.yul\":1987:2040   */\n      tag_308\n        /* \"#utility.yul\":2032:2039   */\n      dup7\n        /* \"#utility.yul\":2023:2029   */\n      dup3\n        /* \"#utility.yul\":2012:2021   */\n      dup8\n        /* \"#utility.yul\":2008:2030   */\n      add\n        /* \"#utility.yul\":1987:2040   */\n      tag_278\n      jump\t// in\n    tag_308:\n        /* \"#utility.yul\":1977:2040   */\n      swap4\n      pop\n        /* \"#utility.yul\":1933:2050   */\n      pop\n        /* \"#utility.yul\":2089:2091   */\n      0x20\n        /* \"#utility.yul\":2115:2168   */\n      tag_309\n        /* \"#utility.yul\":2160:2167   */\n      dup7\n        /* \"#utility.yul\":2151:2157   */\n      dup3\n        /* \"#utility.yul\":2140:2149   */\n      dup8\n        /* \"#utility.yul\":2136:2158   */\n      add\n        /* \"#utility.yul\":2115:2168   */\n      tag_278\n      jump\t// in\n    tag_309:\n        /* \"#utility.yul\":2105:2168   */\n      swap3\n      pop\n        /* \"#utility.yul\":2060:2178   */\n      pop\n        /* \"#utility.yul\":2217:2219   */\n      0x40\n        /* \"#utility.yul\":2243:2296   */\n      tag_310\n        /* \"#utility.yul\":2288:2295   */\n      dup7\n        /* \"#utility.yul\":2279:2285   */\n      dup3\n        /* \"#utility.yul\":2268:2277   */\n      dup8\n        /* \"#utility.yul\":2264:2286   */\n      add\n        /* \"#utility.yul\":2243:2296   */\n      tag_278\n      jump\t// in\n    tag_310:\n        /* \"#utility.yul\":2233:2296   */\n      swap2\n      pop\n        /* \"#utility.yul\":2188:2306   */\n      pop\n        /* \"#utility.yul\":1694:2313   */\n      swap3\n      pop\n      swap3\n      pop\n      swap3\n      jump\t// out\n        /* \"#utility.yul\":2319:3260   */\n    tag_132:\n        /* \"#utility.yul\":2413:2419   */\n      0x00\n        /* \"#utility.yul\":2421:2427   */\n      dup1\n        /* \"#utility.yul\":2429:2435   */\n      0x00\n        /* \"#utility.yul\":2437:2443   */\n      dup1\n        /* \"#utility.yul\":2486:2489   */\n      0x80\n        /* \"#utility.yul\":2474:2483   */\n      dup6\n        /* \"#utility.yul\":2465:2472   */\n      dup8\n        /* \"#utility.yul\":2461:2484   */\n      sub\n        /* \"#utility.yul\":2457:2490   */\n      slt\n        /* \"#utility.yul\":2454:2574   */\n      iszero\n      tag_312\n      jumpi\n        /* \"#utility.yul\":2493:2572   */\n      tag_313\n      tag_303\n      jump\t// in\n    tag_313:\n        /* \"#utility.yul\":2454:2574   */\n    tag_312:\n        /* \"#utility.yul\":2613:2614   */\n      0x00\n        /* \"#utility.yul\":2638:2691   */\n      tag_314\n        /* \"#utility.yul\":2683:2690   */\n      dup8\n        /* \"#utility.yul\":2674:2680   */\n      dup3\n        /* \"#utility.yul\":2663:2672   */\n      dup9\n        /* \"#utility.yul\":2659:2681   */\n      add\n        /* \"#utility.yul\":2638:2691   */\n      tag_278\n      jump\t// in\n    tag_314:\n        /* \"#utility.yul\":2628:2691   */\n      swap5\n      pop\n        /* \"#utility.yul\":2584:2701   */\n      pop\n        /* \"#utility.yul\":2768:2770   */\n      0x20\n        /* \"#utility.yul\":2757:2766   */\n      dup6\n        /* \"#utility.yul\":2753:2771   */\n      add\n        /* \"#utility.yul\":2740:2772   */\n      calldataload\n        /* \"#utility.yul\":2799:2817   */\n      0xffffffffffffffff\n        /* \"#utility.yul\":2791:2797   */\n      dup2\n        /* \"#utility.yul\":2788:2818   */\n      gt\n        /* \"#utility.yul\":2785:2902   */\n      iszero\n      tag_315\n      jumpi\n        /* \"#utility.yul\":2821:2900   */\n      tag_316\n      tag_317\n      jump\t// in\n    tag_316:\n        /* \"#utility.yul\":2785:2902   */\n    tag_315:\n        /* \"#utility.yul\":2926:2989   */\n      tag_318\n        /* \"#utility.yul\":2981:2988   */\n      dup8\n        /* \"#utility.yul\":2972:2978   */\n      dup3\n        /* \"#utility.yul\":2961:2970   */\n      dup9\n        /* \"#utility.yul\":2957:2979   */\n      add\n        /* \"#utility.yul\":2926:2989   */\n      tag_282\n      jump\t// in\n    tag_318:\n        /* \"#utility.yul\":2916:2989   */\n      swap4\n      pop\n        /* \"#utility.yul\":2711:2999   */\n      pop\n        /* \"#utility.yul\":3038:3040   */\n      0x40\n        /* \"#utility.yul\":3064:3117   */\n      tag_319\n        /* \"#utility.yul\":3109:3116   */\n      dup8\n        /* \"#utility.yul\":3100:3106   */\n      dup3\n        /* \"#utility.yul\":3089:3098   */\n      dup9\n        /* \"#utility.yul\":3085:3107   */\n      add\n        /* \"#utility.yul\":3064:3117   */\n      tag_288\n      jump\t// in\n    tag_319:\n        /* \"#utility.yul\":3054:3117   */\n      swap3\n      pop\n        /* \"#utility.yul\":3009:3127   */\n      pop\n        /* \"#utility.yul\":3166:3168   */\n      0x60\n        /* \"#utility.yul\":3192:3243   */\n      tag_320\n        /* \"#utility.yul\":3235:3242   */\n      dup8\n        /* \"#utility.yul\":3226:3232   */\n      dup3\n        /* \"#utility.yul\":3215:3224   */\n      dup9\n        /* \"#utility.yul\":3211:3233   */\n      add\n        /* \"#utility.yul\":3192:3243   */\n      tag_296\n      jump\t// in\n    tag_320:\n        /* \"#utility.yul\":3182:3243   */\n      swap2\n      pop\n        /* \"#utility.yul\":3137:3253   */\n      pop\n        /* \"#utility.yul\":2319:3260   */\n      swap3\n      swap6\n      swap2\n      swap5\n      pop\n      swap3\n      pop\n      jump\t// out\n        /* \"#utility.yul\":3266:4061   */\n    tag_41:\n        /* \"#utility.yul\":3351:3357   */\n      0x00\n        /* \"#utility.yul\":3359:3365   */\n      dup1\n        /* \"#utility.yul\":3367:3373   */\n      0x00\n        /* \"#utility.yul\":3416:3418   */\n      0x60\n        /* \"#utility.yul\":3404:3413   */\n      dup5\n        /* \"#utility.yul\":3395:3402   */\n      dup7\n        /* \"#utility.yul\":3391:3414   */\n      sub\n        /* \"#utility.yul\":3387:3419   */\n      slt\n        /* \"#utility.yul\":3384:3503   */\n      iszero\n      tag_322\n      jumpi\n        /* \"#utility.yul\":3422:3501   */\n      tag_323\n      tag_303\n      jump\t// in\n    tag_323:\n        /* \"#utility.yul\":3384:3503   */\n    tag_322:\n        /* \"#utility.yul\":3542:3543   */\n      0x00\n        /* \"#utility.yul\":3567:3620   */\n      tag_324\n        /* \"#utility.yul\":3612:3619   */\n      dup7\n        /* \"#utility.yul\":3603:3609   */\n      dup3\n        /* \"#utility.yul\":3592:3601   */\n      dup8\n        /* \"#utility.yul\":3588:3610   */\n      add\n        /* \"#utility.yul\":3567:3620   */\n      tag_278\n      jump\t// in\n    tag_324:\n        /* \"#utility.yul\":3557:3620   */\n      swap4\n      pop\n        /* \"#utility.yul\":3513:3630   */\n      pop\n        /* \"#utility.yul\":3697:3699   */\n      0x20\n        /* \"#utility.yul\":3686:3695   */\n      dup5\n        /* \"#utility.yul\":3682:3700   */\n      add\n        /* \"#utility.yul\":3669:3701   */\n      calldataload\n        /* \"#utility.yul\":3728:3746   */\n      0xffffffffffffffff\n        /* \"#utility.yul\":3720:3726   */\n      dup2\n        /* \"#utility.yul\":3717:3747   */\n      gt\n        /* \"#utility.yul\":3714:3831   */\n      iszero\n      tag_325\n      jumpi\n        /* \"#utility.yul\":3750:3829   */\n      tag_326\n      tag_317\n      jump\t// in\n    tag_326:\n        /* \"#utility.yul\":3714:3831   */\n    tag_325:\n        /* \"#utility.yul\":3855:3918   */\n      tag_327\n        /* \"#utility.yul\":3910:3917   */\n      dup7\n        /* \"#utility.yul\":3901:3907   */\n      dup3\n        /* \"#utility.yul\":3890:3899   */\n      dup8\n        /* \"#utility.yul\":3886:3908   */\n      add\n        /* \"#utility.yul\":3855:3918   */\n      tag_282\n      jump\t// in\n    tag_327:\n        /* \"#utility.yul\":3845:3918   */\n      swap3\n      pop\n        /* \"#utility.yul\":3640:3928   */\n      pop\n        /* \"#utility.yul\":3967:3969   */\n      0x40\n        /* \"#utility.yul\":3993:4044   */\n      tag_328\n        /* \"#utility.yul\":4036:4043   */\n      dup7\n        /* \"#utility.yul\":4027:4033   */\n      dup3\n        /* \"#utility.yul\":4016:4025   */\n      dup8\n        /* \"#utility.yul\":4012:4034   */\n      add\n        /* \"#utility.yul\":3993:4044   */\n      tag_296\n      jump\t// in\n    tag_328:\n        /* \"#utility.yul\":3983:4044   */\n      swap2\n      pop\n        /* \"#utility.yul\":3938:4054   */\n      pop\n        /* \"#utility.yul\":3266:4061   */\n      swap3\n      pop\n      swap3\n      pop\n      swap3\n      jump\t// out\n        /* \"#utility.yul\":4067:4394   */\n    tag_113:\n        /* \"#utility.yul\":4125:4131   */\n      0x00\n        /* \"#utility.yul\":4174:4176   */\n      0x20\n        /* \"#utility.yul\":4162:4171   */\n      dup3\n        /* \"#utility.yul\":4153:4160   */\n      dup5\n        /* \"#utility.yul\":4149:4172   */\n      sub\n        /* \"#utility.yul\":4145:4177   */\n      slt\n        /* \"#utility.yul\":4142:4261   */\n      iszero\n      tag_330\n      jumpi\n        /* \"#utility.yul\":4180:4259   */\n      tag_331\n      tag_303\n      jump\t// in\n    tag_331:\n        /* \"#utility.yul\":4142:4261   */\n    tag_330:\n        /* \"#utility.yul\":4300:4301   */\n      0x00\n        /* \"#utility.yul\":4325:4377   */\n      tag_332\n        /* \"#utility.yul\":4369:4376   */\n      dup5\n        /* \"#utility.yul\":4360:4366   */\n      dup3\n        /* \"#utility.yul\":4349:4358   */\n      dup6\n        /* \"#utility.yul\":4345:4367   */\n      add\n        /* \"#utility.yul\":4325:4377   */\n      tag_292\n      jump\t// in\n    tag_332:\n        /* \"#utility.yul\":4315:4377   */\n      swap2\n      pop\n        /* \"#utility.yul\":4271:4387   */\n      pop\n        /* \"#utility.yul\":4067:4394   */\n      swap3\n      swap2\n      pop\n      pop\n      jump\t// out\n        /* \"#utility.yul\":4400:4518   */\n    tag_333:\n        /* \"#utility.yul\":4487:4511   */\n      tag_335\n        /* \"#utility.yul\":4505:4510   */\n      dup2\n        /* \"#utility.yul\":4487:4511   */\n      tag_336\n      jump\t// in\n    tag_335:\n        /* \"#utility.yul\":4482:4485   */\n      dup3\n        /* \"#utility.yul\":4475:4512   */\n      mstore\n        /* \"#utility.yul\":4400:4518   */\n      pop\n      pop\n      jump\t// out\n        /* \"#utility.yul\":4524:4633   */\n    tag_337:\n        /* \"#utility.yul\":4605:4626   */\n      tag_339\n        /* \"#utility.yul\":4620:4625   */\n      dup2\n        /* \"#utility.yul\":4605:4626   */\n      tag_340\n      jump\t// in\n    tag_339:\n        /* \"#utility.yul\":4600:4603   */\n      dup3\n        /* \"#utility.yul\":4593:4627   */\n      mstore\n        /* \"#utility.yul\":4524:4633   */\n      pop\n      pop\n      jump\t// out\n        /* \"#utility.yul\":4639:4782   */\n    tag_341:\n        /* \"#utility.yul\":4732:4775   */\n      tag_343\n        /* \"#utility.yul\":4769:4774   */\n      dup2\n        /* \"#utility.yul\":4732:4775   */\n      tag_344\n      jump\t// in\n    tag_343:\n        /* \"#utility.yul\":4727:4730   */\n      dup3\n        /* \"#utility.yul\":4720:4776   */\n      mstore\n        /* \"#utility.yul\":4639:4782   */\n      pop\n      pop\n      jump\t// out\n        /* \"#utility.yul\":4788:5152   */\n    tag_345:\n        /* \"#utility.yul\":4876:4879   */\n      0x00\n        /* \"#utility.yul\":4904:4943   */\n      tag_347\n        /* \"#utility.yul\":4937:4942   */\n      dup3\n        /* \"#utility.yul\":4904:4943   */\n      tag_348\n      jump\t// in\n    tag_347:\n        /* \"#utility.yul\":4959:5030   */\n      tag_349\n        /* \"#utility.yul\":5023:5029   */\n      dup2\n        /* \"#utility.yul\":5018:5021   */\n      dup6\n        /* \"#utility.yul\":4959:5030   */\n      tag_350\n      jump\t// in\n    tag_349:\n        /* \"#utility.yul\":4952:5030   */\n      swap4\n      pop\n        /* \"#utility.yul\":5039:5091   */\n      tag_351\n        /* \"#utility.yul\":5084:5090   */\n      dup2\n        /* \"#utility.yul\":5079:5082   */\n      dup6\n        /* \"#utility.yul\":5072:5076   */\n      0x20\n        /* \"#utility.yul\":5065:5070   */\n      dup7\n        /* \"#utility.yul\":5061:5077   */\n      add\n        /* \"#utility.yul\":5039:5091   */\n      tag_352\n      jump\t// in\n    tag_351:\n        /* \"#utility.yul\":5116:5145   */\n      tag_353\n        /* \"#utility.yul\":5138:5144   */\n      dup2\n        /* \"#utility.yul\":5116:5145   */\n      tag_354\n      jump\t// in\n    tag_353:\n        /* \"#utility.yul\":5111:5114   */\n      dup5\n        /* \"#utility.yul\":5107:5146   */\n      add\n        /* \"#utility.yul\":5100:5146   */\n      swap2\n      pop\n        /* \"#utility.yul\":4880:5152   */\n      pop\n        /* \"#utility.yul\":4788:5152   */\n      swap3\n      swap2\n      pop\n      pop\n      jump\t// out\n        /* \"#utility.yul\":5158:5524   */\n    tag_355:\n        /* \"#utility.yul\":5300:5303   */\n      0x00\n        /* \"#utility.yul\":5321:5388   */\n      tag_357\n        /* \"#utility.yul\":5385:5387   */\n      0x19\n        /* \"#utility.yul\":5380:5383   */\n      dup4\n        /* \"#utility.yul\":5321:5388   */\n      tag_350\n      jump\t// in\n    tag_357:\n        /* \"#utility.yul\":5314:5388   */\n      swap2\n      pop\n        /* \"#utility.yul\":5397:5490   */\n      tag_358\n        /* \"#utility.yul\":5486:5489   */\n      dup3\n        /* \"#utility.yul\":5397:5490   */\n      tag_359\n      jump\t// in\n    tag_358:\n        /* \"#utility.yul\":5515:5517   */\n      0x20\n        /* \"#utility.yul\":5510:5513   */\n      dup3\n        /* \"#utility.yul\":5506:5518   */\n      add\n        /* \"#utility.yul\":5499:5518   */\n      swap1\n      pop\n        /* \"#utility.yul\":5158:5524   */\n      swap2\n      swap1\n      pop\n      jump\t// out\n        /* \"#utility.yul\":5530:5896   */\n    tag_360:\n        /* \"#utility.yul\":5672:5675   */\n      0x00\n        /* \"#utility.yul\":5693:5760   */\n      tag_362\n        /* \"#utility.yul\":5757:5759   */\n      0x12\n        /* \"#utility.yul\":5752:5755   */\n      dup4\n        /* \"#utility.yul\":5693:5760   */\n      tag_350\n      jump\t// in\n    tag_362:\n        /* \"#utility.yul\":5686:5760   */\n      swap2\n      pop\n        /* \"#utility.yul\":5769:5862   */\n      tag_363\n        /* \"#utility.yul\":5858:5861   */\n      dup3\n        /* \"#utility.yul\":5769:5862   */\n      tag_364\n      jump\t// in\n    tag_363:\n        /* \"#utility.yul\":5887:5889   */\n      0x20\n        /* \"#utility.yul\":5882:5885   */\n      dup3\n        /* \"#utility.yul\":5878:5890   */\n      add\n        /* \"#utility.yul\":5871:5890   */\n      swap1\n      pop\n        /* \"#utility.yul\":5530:5896   */\n      swap2\n      swap1\n      pop\n      jump\t// out\n        /* \"#utility.yul\":5902:6268   */\n    tag_365:\n        /* \"#utility.yul\":6044:6047   */\n      0x00\n        /* \"#utility.yul\":6065:6132   */\n      tag_367\n        /* \"#utility.yul\":6129:6131   */\n      0x1e\n        /* \"#utility.yul\":6124:6127   */\n      dup4\n        /* \"#utility.yul\":6065:6132   */\n      tag_350\n      jump\t// in\n    tag_367:\n        /* \"#utility.yul\":6058:6132   */\n      swap2\n      pop\n        /* \"#utility.yul\":6141:6234   */\n      tag_368\n        /* \"#utility.yul\":6230:6233   */\n      dup3\n        /* \"#utility.yul\":6141:6234   */\n      tag_369\n      jump\t// in\n    tag_368:\n        /* \"#utility.yul\":6259:6261   */\n      0x20\n        /* \"#utility.yul\":6254:6257   */\n      dup3\n        /* \"#utility.yul\":6250:6262   */\n      add\n        /* \"#utility.yul\":6243:6262   */\n      swap1\n      pop\n        /* \"#utility.yul\":5902:6268   */\n      swap2\n      swap1\n      pop\n      jump\t// out\n        /* \"#utility.yul\":6274:6640   */\n    tag_370:\n        /* \"#utility.yul\":6416:6419   */\n      0x00\n        /* \"#utility.yul\":6437:6504   */\n      tag_372\n        /* \"#utility.yul\":6501:6503   */\n      0x22\n        /* \"#utility.yul\":6496:6499   */\n      dup4\n        /* \"#utility.yul\":6437:6504   */\n      tag_350\n      jump\t// in\n    tag_372:\n        /* \"#utility.yul\":6430:6504   */\n      swap2\n      pop\n        /* \"#utility.yul\":6513:6606   */\n      tag_373\n        /* \"#utility.yul\":6602:6605   */\n      dup3\n        /* \"#utility.yul\":6513:6606   */\n      tag_374\n      jump\t// in\n    tag_373:\n        /* \"#utility.yul\":6631:6633   */\n      0x40\n        /* \"#utility.yul\":6626:6629   */\n      dup3\n        /* \"#utility.yul\":6622:6634   */\n      add\n        /* \"#utility.yul\":6615:6634   */\n      swap1\n      pop\n        /* \"#utility.yul\":6274:6640   */\n      swap2\n      swap1\n      pop\n      jump\t// out\n        /* \"#utility.yul\":6646:7012   */\n    tag_375:\n        /* \"#utility.yul\":6788:6791   */\n      0x00\n        /* \"#utility.yul\":6809:6876   */\n      tag_377\n        /* \"#utility.yul\":6873:6875   */\n      0x17\n        /* \"#utility.yul\":6868:6871   */\n      dup4\n        /* \"#utility.yul\":6809:6876   */\n      tag_350\n      jump\t// in\n    tag_377:\n        /* \"#utility.yul\":6802:6876   */\n      swap2\n      pop\n        /* \"#utility.yul\":6885:6978   */\n      tag_378\n        /* \"#utility.yul\":6974:6977   */\n      dup3\n        /* \"#utility.yul\":6885:6978   */\n      tag_379\n      jump\t// in\n    tag_378:\n        /* \"#utility.yul\":7003:7005   */\n      0x20\n        /* \"#utility.yul\":6998:7001   */\n      dup3\n        /* \"#utility.yul\":6994:7006   */\n      add\n        /* \"#utility.yul\":6987:7006   */\n      swap1\n      pop\n        /* \"#utility.yul\":6646:7012   */\n      swap2\n      swap1\n      pop\n      jump\t// out\n        /* \"#utility.yul\":7018:7384   */\n    tag_380:\n        /* \"#utility.yul\":7160:7163   */\n      0x00\n        /* \"#utility.yul\":7181:7248   */\n      tag_382\n        /* \"#utility.yul\":7245:7247   */\n      0x11\n        /* \"#utility.yul\":7240:7243   */\n      dup4\n        /* \"#utility.yul\":7181:7248   */\n      tag_350\n      jump\t// in\n    tag_382:\n        /* \"#utility.yul\":7174:7248   */\n      swap2\n      pop\n        /* \"#utility.yul\":7257:7350   */\n      tag_383\n        /* \"#utility.yul\":7346:7349   */\n      dup3\n        /* \"#utility.yul\":7257:7350   */\n      tag_384\n      jump\t// in\n    tag_383:\n        /* \"#utility.yul\":7375:7377   */\n      0x20\n        /* \"#utility.yul\":7370:7373   */\n      dup3\n        /* \"#utility.yul\":7366:7378   */\n      add\n        /* \"#utility.yul\":7359:7378   */\n      swap1\n      pop\n        /* \"#utility.yul\":7018:7384   */\n      swap2\n      swap1\n      pop\n      jump\t// out\n        /* \"#utility.yul\":7390:7756   */\n    tag_385:\n        /* \"#utility.yul\":7532:7535   */\n      0x00\n        /* \"#utility.yul\":7553:7620   */\n      tag_387\n        /* \"#utility.yul\":7617:7619   */\n      0x17\n        /* \"#utility.yul\":7612:7615   */\n      dup4\n        /* \"#utility.yul\":7553:7620   */\n      tag_350\n      jump\t// in\n    tag_387:\n        /* \"#utility.yul\":7546:7620   */\n      swap2\n      pop\n        /* \"#utility.yul\":7629:7722   */\n      tag_388\n        /* \"#utility.yul\":7718:7721   */\n      dup3\n        /* \"#utility.yul\":7629:7722   */\n      tag_389\n      jump\t// in\n    tag_388:\n        /* \"#utility.yul\":7747:7749   */\n      0x20\n        /* \"#utility.yul\":7742:7745   */\n      dup3\n        /* \"#utility.yul\":7738:7750   */\n      add\n        /* \"#utility.yul\":7731:7750   */\n      swap1\n      pop\n        /* \"#utility.yul\":7390:7756   */\n      swap2\n      swap1\n      pop\n      jump\t// out\n        /* \"#utility.yul\":7762:7877   */\n    tag_390:\n        /* \"#utility.yul\":7847:7870   */\n      tag_392\n        /* \"#utility.yul\":7864:7869   */\n      dup2\n        /* \"#utility.yul\":7847:7870   */\n      tag_393\n      jump\t// in\n    tag_392:\n        /* \"#utility.yul\":7842:7845   */\n      dup3\n        /* \"#utility.yul\":7835:7871   */\n      mstore\n        /* \"#utility.yul\":7762:7877   */\n      pop\n      pop\n      jump\t// out\n        /* \"#utility.yul\":7883:8001   */\n    tag_394:\n        /* \"#utility.yul\":7970:7994   */\n      tag_396\n        /* \"#utility.yul\":7988:7993   */\n      dup2\n        /* \"#utility.yul\":7970:7994   */\n      tag_397\n      jump\t// in\n    tag_396:\n        /* \"#utility.yul\":7965:7968   */\n      dup3\n        /* \"#utility.yul\":7958:7995   */\n      mstore\n        /* \"#utility.yul\":7883:8001   */\n      pop\n      pop\n      jump\t// out\n        /* \"#utility.yul\":8007:8122   */\n    tag_398:\n        /* \"#utility.yul\":8092:8115   */\n      tag_400\n        /* \"#utility.yul\":8109:8114   */\n      dup2\n        /* \"#utility.yul\":8092:8115   */\n      tag_401\n      jump\t// in\n    tag_400:\n        /* \"#utility.yul\":8087:8090   */\n      dup3\n        /* \"#utility.yul\":8080:8116   */\n      mstore\n        /* \"#utility.yul\":8007:8122   */\n      pop\n      pop\n      jump\t// out\n        /* \"#utility.yul\":8128:8240   */\n    tag_402:\n        /* \"#utility.yul\":8211:8233   */\n      tag_404\n        /* \"#utility.yul\":8227:8232   */\n      dup2\n        /* \"#utility.yul\":8211:8233   */\n      tag_405\n      jump\t// in\n    tag_404:\n        /* \"#utility.yul\":8206:8209   */\n      dup3\n        /* \"#utility.yul\":8199:8234   */\n      mstore\n        /* \"#utility.yul\":8128:8240   */\n      pop\n      pop\n      jump\t// out\n        /* \"#utility.yul\":8246:8468   */\n    tag_52:\n        /* \"#utility.yul\":8339:8343   */\n      0x00\n        /* \"#utility.yul\":8377:8379   */\n      0x20\n        /* \"#utility.yul\":8366:8375   */\n      dup3\n        /* \"#utility.yul\":8362:8380   */\n      add\n        /* \"#utility.yul\":8354:8380   */\n      swap1\n      pop\n        /* \"#utility.yul\":8390:8461   */\n      tag_407\n        /* \"#utility.yul\":8458:8459   */\n      0x00\n        /* \"#utility.yul\":8447:8456   */\n      dup4\n        /* \"#utility.yul\":8443:8460   */\n      add\n        /* \"#utility.yul\":8434:8440   */\n      dup5\n        /* \"#utility.yul\":8390:8461   */\n      tag_333\n      jump\t// in\n    tag_407:\n        /* \"#utility.yul\":8246:8468   */\n      swap3\n      swap2\n      pop\n      pop\n      jump\t// out\n        /* \"#utility.yul\":8474:8684   */\n    tag_48:\n        /* \"#utility.yul\":8561:8565   */\n      0x00\n        /* \"#utility.yul\":8599:8601   */\n      0x20\n        /* \"#utility.yul\":8588:8597   */\n      dup3\n        /* \"#utility.yul\":8584:8602   */\n      add\n        /* \"#utility.yul\":8576:8602   */\n      swap1\n      pop\n        /* \"#utility.yul\":8612:8677   */\n      tag_409\n        /* \"#utility.yul\":8674:8675   */\n      0x00\n        /* \"#utility.yul\":8663:8672   */\n      dup4\n        /* \"#utility.yul\":8659:8676   */\n      add\n        /* \"#utility.yul\":8650:8656   */\n      dup5\n        /* \"#utility.yul\":8612:8677   */\n      tag_337\n      jump\t// in\n    tag_409:\n        /* \"#utility.yul\":8474:8684   */\n      swap3\n      swap2\n      pop\n      pop\n      jump\t// out\n        /* \"#utility.yul\":8690:9643   */\n    tag_125:\n        /* \"#utility.yul\":8961:8965   */\n      0x00\n        /* \"#utility.yul\":8999:9002   */\n      0xc0\n        /* \"#utility.yul\":8988:8997   */\n      dup3\n        /* \"#utility.yul\":8984:9003   */\n      add\n        /* \"#utility.yul\":8976:9003   */\n      swap1\n      pop\n        /* \"#utility.yul\":9013:9078   */\n      tag_411\n        /* \"#utility.yul\":9075:9076   */\n      0x00\n        /* \"#utility.yul\":9064:9073   */\n      dup4\n        /* \"#utility.yul\":9060:9077   */\n      add\n        /* \"#utility.yul\":9051:9057   */\n      dup10\n        /* \"#utility.yul\":9013:9078   */\n      tag_337\n      jump\t// in\n    tag_411:\n        /* \"#utility.yul\":9088:9160   */\n      tag_412\n        /* \"#utility.yul\":9156:9158   */\n      0x20\n        /* \"#utility.yul\":9145:9154   */\n      dup4\n        /* \"#utility.yul\":9141:9159   */\n      add\n        /* \"#utility.yul\":9132:9138   */\n      dup9\n        /* \"#utility.yul\":9088:9160   */\n      tag_333\n      jump\t// in\n    tag_412:\n        /* \"#utility.yul\":9170:9240   */\n      tag_413\n        /* \"#utility.yul\":9236:9238   */\n      0x40\n        /* \"#utility.yul\":9225:9234   */\n      dup4\n        /* \"#utility.yul\":9221:9239   */\n      add\n        /* \"#utility.yul\":9212:9218   */\n      dup8\n        /* \"#utility.yul\":9170:9240   */\n      tag_390\n      jump\t// in\n    tag_413:\n        /* \"#utility.yul\":9250:9328   */\n      tag_414\n        /* \"#utility.yul\":9324:9326   */\n      0x60\n        /* \"#utility.yul\":9313:9322   */\n      dup4\n        /* \"#utility.yul\":9309:9327   */\n      add\n        /* \"#utility.yul\":9300:9306   */\n      dup7\n        /* \"#utility.yul\":9250:9328   */\n      tag_341\n      jump\t// in\n    tag_414:\n        /* \"#utility.yul\":9376:9385   */\n      dup2\n        /* \"#utility.yul\":9370:9374   */\n      dup2\n        /* \"#utility.yul\":9366:9386   */\n      sub\n        /* \"#utility.yul\":9360:9363   */\n      0x80\n        /* \"#utility.yul\":9349:9358   */\n      dup4\n        /* \"#utility.yul\":9345:9364   */\n      add\n        /* \"#utility.yul\":9338:9387   */\n      mstore\n        /* \"#utility.yul\":9404:9482   */\n      tag_415\n        /* \"#utility.yul\":9477:9481   */\n      dup2\n        /* \"#utility.yul\":9468:9474   */\n      dup6\n        /* \"#utility.yul\":9404:9482   */\n      tag_345\n      jump\t// in\n    tag_415:\n        /* \"#utility.yul\":9396:9482   */\n      swap1\n      pop\n        /* \"#utility.yul\":9530:9539   */\n      dup2\n        /* \"#utility.yul\":9524:9528   */\n      dup2\n        /* \"#utility.yul\":9520:9540   */\n      sub\n        /* \"#utility.yul\":9514:9517   */\n      0xa0\n        /* \"#utility.yul\":9503:9512   */\n      dup4\n        /* \"#utility.yul\":9499:9518   */\n      add\n        /* \"#utility.yul\":9492:9541   */\n      mstore\n        /* \"#utility.yul\":9558:9636   */\n      tag_416\n        /* \"#utility.yul\":9631:9635   */\n      dup2\n        /* \"#utility.yul\":9622:9628   */\n      dup5\n        /* \"#utility.yul\":9558:9636   */\n      tag_345\n      jump\t// in\n    tag_416:\n        /* \"#utility.yul\":9550:9636   */\n      swap1\n      pop\n        /* \"#utility.yul\":8690:9643   */\n      swap8\n      swap7\n      pop\n      pop\n      pop\n      pop\n      pop\n      pop\n      pop\n      jump\t// out\n        /* \"#utility.yul\":9649:10162   */\n    tag_64:\n        /* \"#utility.yul\":9808:9812   */\n      0x00\n        /* \"#utility.yul\":9846:9848   */\n      0x60\n        /* \"#utility.yul\":9835:9844   */\n      dup3\n        /* \"#utility.yul\":9831:9849   */\n      add\n        /* \"#utility.yul\":9823:9849   */\n      swap1\n      pop\n        /* \"#utility.yul\":9859:9924   */\n      tag_418\n        /* \"#utility.yul\":9921:9922   */\n      0x00\n        /* \"#utility.yul\":9910:9919   */\n      dup4\n        /* \"#utility.yul\":9906:9923   */\n      add\n        /* \"#utility.yul\":9897:9903   */\n      dup7\n        /* \"#utility.yul\":9859:9924   */\n      tag_337\n      jump\t// in\n    tag_418:\n        /* \"#utility.yul\":9971:9980   */\n      dup2\n        /* \"#utility.yul\":9965:9969   */\n      dup2\n        /* \"#utility.yul\":9961:9981   */\n      sub\n        /* \"#utility.yul\":9956:9958   */\n      0x20\n        /* \"#utility.yul\":9945:9954   */\n      dup4\n        /* \"#utility.yul\":9941:9959   */\n      add\n        /* \"#utility.yul\":9934:9982   */\n      mstore\n        /* \"#utility.yul\":9999:10077   */\n      tag_419\n        /* \"#utility.yul\":10072:10076   */\n      dup2\n        /* \"#utility.yul\":10063:10069   */\n      dup6\n        /* \"#utility.yul\":9999:10077   */\n      tag_345\n      jump\t// in\n    tag_419:\n        /* \"#utility.yul\":9991:10077   */\n      swap1\n      pop\n        /* \"#utility.yul\":10087:10155   */\n      tag_420\n        /* \"#utility.yul\":10151:10153   */\n      0x40\n        /* \"#utility.yul\":10140:10149   */\n      dup4\n        /* \"#utility.yul\":10136:10154   */\n      add\n        /* \"#utility.yul\":10127:10133   */\n      dup5\n        /* \"#utility.yul\":10087:10155   */\n      tag_402\n      jump\t// in\n    tag_420:\n        /* \"#utility.yul\":9649:10162   */\n      swap5\n      swap4\n      pop\n      pop\n      pop\n      pop\n      jump\t// out\n        /* \"#utility.yul\":10168:10792   */\n    tag_85:\n        /* \"#utility.yul\":10355:10359   */\n      0x00\n        /* \"#utility.yul\":10393:10396   */\n      0x80\n        /* \"#utility.yul\":10382:10391   */\n      dup3\n        /* \"#utility.yul\":10378:10397   */\n      add\n        /* \"#utility.yul\":10370:10397   */\n      swap1\n      pop\n        /* \"#utility.yul\":10407:10472   */\n      tag_422\n        /* \"#utility.yul\":10469:10470   */\n      0x00\n        /* \"#utility.yul\":10458:10467   */\n      dup4\n        /* \"#utility.yul\":10454:10471   */\n      add\n        /* \"#utility.yul\":10445:10451   */\n      dup8\n        /* \"#utility.yul\":10407:10472   */\n      tag_337\n      jump\t// in\n    tag_422:\n        /* \"#utility.yul\":10482:10550   */\n      tag_423\n        /* \"#utility.yul\":10546:10548   */\n      0x20\n        /* \"#utility.yul\":10535:10544   */\n      dup4\n        /* \"#utility.yul\":10531:10549   */\n      add\n        /* \"#utility.yul\":10522:10528   */\n      dup7\n        /* \"#utility.yul\":10482:10550   */\n      tag_402\n      jump\t// in\n    tag_423:\n        /* \"#utility.yul\":10560:10632   */\n      tag_424\n        /* \"#utility.yul\":10628:10630   */\n      0x40\n        /* \"#utility.yul\":10617:10626   */\n      dup4\n        /* \"#utility.yul\":10613:10631   */\n      add\n        /* \"#utility.yul\":10604:10610   */\n      dup6\n        /* \"#utility.yul\":10560:10632   */\n      tag_394\n      jump\t// in\n    tag_424:\n        /* \"#utility.yul\":10679:10688   */\n      dup2\n        /* \"#utility.yul\":10673:10677   */\n      dup2\n        /* \"#utility.yul\":10669:10689   */\n      sub\n        /* \"#utility.yul\":10664:10666   */\n      0x60\n        /* \"#utility.yul\":10653:10662   */\n      dup4\n        /* \"#utility.yul\":10649:10667   */\n      add\n        /* \"#utility.yul\":10642:10690   */\n      mstore\n        /* \"#utility.yul\":10707:10785   */\n      tag_425\n        /* \"#utility.yul\":10780:10784   */\n      dup2\n        /* \"#utility.yul\":10771:10777   */\n      dup5\n        /* \"#utility.yul\":10707:10785   */\n      tag_345\n      jump\t// in\n    tag_425:\n        /* \"#utility.yul\":10699:10785   */\n      swap1\n      pop\n        /* \"#utility.yul\":10168:10792   */\n      swap6\n      swap5\n      pop\n      pop\n      pop\n      pop\n      pop\n      jump\t// out\n        /* \"#utility.yul\":10798:11217   */\n    tag_199:\n        /* \"#utility.yul\":10964:10968   */\n      0x00\n        /* \"#utility.yul\":11002:11004   */\n      0x20\n        /* \"#utility.yul\":10991:11000   */\n      dup3\n        /* \"#utility.yul\":10987:11005   */\n      add\n        /* \"#utility.yul\":10979:11005   */\n      swap1\n      pop\n        /* \"#utility.yul\":11051:11060   */\n      dup2\n        /* \"#utility.yul\":11045:11049   */\n      dup2\n        /* \"#utility.yul\":11041:11061   */\n      sub\n        /* \"#utility.yul\":11037:11038   */\n      0x00\n        /* \"#utility.yul\":11026:11035   */\n      dup4\n        /* \"#utility.yul\":11022:11039   */\n      add\n        /* \"#utility.yul\":11015:11062   */\n      mstore\n        /* \"#utility.yul\":11079:11210   */\n      tag_427\n        /* \"#utility.yul\":11205:11209   */\n      dup2\n        /* \"#utility.yul\":11079:11210   */\n      tag_355\n      jump\t// in\n    tag_427:\n        /* \"#utility.yul\":11071:11210   */\n      swap1\n      pop\n        /* \"#utility.yul\":10798:11217   */\n      swap2\n      swap1\n      pop\n      jump\t// out\n        /* \"#utility.yul\":11223:11642   */\n    tag_239:\n        /* \"#utility.yul\":11389:11393   */\n      0x00\n        /* \"#utility.yul\":11427:11429   */\n      0x20\n        /* \"#utility.yul\":11416:11425   */\n      dup3\n        /* \"#utility.yul\":11412:11430   */\n      add\n        /* \"#utility.yul\":11404:11430   */\n      swap1\n      pop\n        /* \"#utility.yul\":11476:11485   */\n      dup2\n        /* \"#utility.yul\":11470:11474   */\n      dup2\n        /* \"#utility.yul\":11466:11486   */\n      sub\n        /* \"#utility.yul\":11462:11463   */\n      0x00\n        /* \"#utility.yul\":11451:11460   */\n      dup4\n        /* \"#utility.yul\":11447:11464   */\n      add\n        /* \"#utility.yul\":11440:11487   */\n      mstore\n        /* \"#utility.yul\":11504:11635   */\n      tag_429\n        /* \"#utility.yul\":11630:11634   */\n      dup2\n        /* \"#utility.yul\":11504:11635   */\n      tag_360\n      jump\t// in\n    tag_429:\n        /* \"#utility.yul\":11496:11635   */\n      swap1\n      pop\n        /* \"#utility.yul\":11223:11642   */\n      swap2\n      swap1\n      pop\n      jump\t// out\n        /* \"#utility.yul\":11648:12067   */\n    tag_217:\n        /* \"#utility.yul\":11814:11818   */\n      0x00\n        /* \"#utility.yul\":11852:11854   */\n      0x20\n        /* \"#utility.yul\":11841:11850   */\n      dup3\n        /* \"#utility.yul\":11837:11855   */\n      add\n        /* \"#utility.yul\":11829:11855   */\n      swap1\n      pop\n        /* \"#utility.yul\":11901:11910   */\n      dup2\n        /* \"#utility.yul\":11895:11899   */\n      dup2\n        /* \"#utility.yul\":11891:11911   */\n      sub\n        /* \"#utility.yul\":11887:11888   */\n      0x00\n        /* \"#utility.yul\":11876:11885   */\n      dup4\n        /* \"#utility.yul\":11872:11889   */\n      add\n        /* \"#utility.yul\":11865:11912   */\n      mstore\n        /* \"#utility.yul\":11929:12060   */\n      tag_431\n        /* \"#utility.yul\":12055:12059   */\n      dup2\n        /* \"#utility.yul\":11929:12060   */\n      tag_365\n      jump\t// in\n    tag_431:\n        /* \"#utility.yul\":11921:12060   */\n      swap1\n      pop\n        /* \"#utility.yul\":11648:12067   */\n      swap2\n      swap1\n      pop\n      jump\t// out\n        /* \"#utility.yul\":12073:12492   */\n    tag_170:\n        /* \"#utility.yul\":12239:12243   */\n      0x00\n        /* \"#utility.yul\":12277:12279   */\n      0x20\n        /* \"#utility.yul\":12266:12275   */\n      dup3\n        /* \"#utility.yul\":12262:12280   */\n      add\n        /* \"#utility.yul\":12254:12280   */\n      swap1\n      pop\n        /* \"#utility.yul\":12326:12335   */\n      dup2\n        /* \"#utility.yul\":12320:12324   */\n      dup2\n        /* \"#utility.yul\":12316:12336   */\n      sub\n        /* \"#utility.yul\":12312:12313   */\n      0x00\n        /* \"#utility.yul\":12301:12310   */\n      dup4\n        /* \"#utility.yul\":12297:12314   */\n      add\n        /* \"#utility.yul\":12290:12337   */\n      mstore\n        /* \"#utility.yul\":12354:12485   */\n      tag_433\n        /* \"#utility.yul\":12480:12484   */\n      dup2\n        /* \"#utility.yul\":12354:12485   */\n      tag_370\n      jump\t// in\n    tag_433:\n        /* \"#utility.yul\":12346:12485   */\n      swap1\n      pop\n        /* \"#utility.yul\":12073:12492   */\n      swap2\n      swap1\n      pop\n      jump\t// out\n        /* \"#utility.yul\":12498:12917   */\n    tag_160:\n        /* \"#utility.yul\":12664:12668   */\n      0x00\n        /* \"#utility.yul\":12702:12704   */\n      0x20\n        /* \"#utility.yul\":12691:12700   */\n      dup3\n        /* \"#utility.yul\":12687:12705   */\n      add\n        /* \"#utility.yul\":12679:12705   */\n      swap1\n      pop\n        /* \"#utility.yul\":12751:12760   */\n      dup2\n        /* \"#utility.yul\":12745:12749   */\n      dup2\n        /* \"#utility.yul\":12741:12761   */\n      sub\n        /* \"#utility.yul\":12737:12738   */\n      0x00\n        /* \"#utility.yul\":12726:12735   */\n      dup4\n        /* \"#utility.yul\":12722:12739   */\n      add\n        /* \"#utility.yul\":12715:12762   */\n      mstore\n        /* \"#utility.yul\":12779:12910   */\n      tag_435\n        /* \"#utility.yul\":12905:12909   */\n      dup2\n        /* \"#utility.yul\":12779:12910   */\n      tag_375\n      jump\t// in\n    tag_435:\n        /* \"#utility.yul\":12771:12910   */\n      swap1\n      pop\n        /* \"#utility.yul\":12498:12917   */\n      swap2\n      swap1\n      pop\n      jump\t// out\n        /* \"#utility.yul\":12923:13342   */\n    tag_249:\n        /* \"#utility.yul\":13089:13093   */\n      0x00\n        /* \"#utility.yul\":13127:13129   */\n      0x20\n        /* \"#utility.yul\":13116:13125   */\n      dup3\n        /* \"#utility.yul\":13112:13130   */\n      add\n        /* \"#utility.yul\":13104:13130   */\n      swap1\n      pop\n        /* \"#utility.yul\":13176:13185   */\n      dup2\n        /* \"#utility.yul\":13170:13174   */\n      dup2\n        /* \"#utility.yul\":13166:13186   */\n      sub\n        /* \"#utility.yul\":13162:13163   */\n      0x00\n        /* \"#utility.yul\":13151:13160   */\n      dup4\n        /* \"#utility.yul\":13147:13164   */\n      add\n        /* \"#utility.yul\":13140:13187   */\n      mstore\n        /* \"#utility.yul\":13204:13335   */\n      tag_437\n        /* \"#utility.yul\":13330:13334   */\n      dup2\n        /* \"#utility.yul\":13204:13335   */\n      tag_380\n      jump\t// in\n    tag_437:\n        /* \"#utility.yul\":13196:13335   */\n      swap1\n      pop\n        /* \"#utility.yul\":12923:13342   */\n      swap2\n      swap1\n      pop\n      jump\t// out\n        /* \"#utility.yul\":13348:13767   */\n    tag_254:\n        /* \"#utility.yul\":13514:13518   */\n      0x00\n        /* \"#utility.yul\":13552:13554   */\n      0x20\n        /* \"#utility.yul\":13541:13550   */\n      dup3\n        /* \"#utility.yul\":13537:13555   */\n      add\n        /* \"#utility.yul\":13529:13555   */\n      swap1\n      pop\n        /* \"#utility.yul\":13601:13610   */\n      dup2\n        /* \"#utility.yul\":13595:13599   */\n      dup2\n        /* \"#utility.yul\":13591:13611   */\n      sub\n        /* \"#utility.yul\":13587:13588   */\n      0x00\n        /* \"#utility.yul\":13576:13585   */\n      dup4\n        /* \"#utility.yul\":13572:13589   */\n      add\n        /* \"#utility.yul\":13565:13612   */\n      mstore\n        /* \"#utility.yul\":13629:13760   */\n      tag_439\n        /* \"#utility.yul\":13755:13759   */\n      dup2\n        /* \"#utility.yul\":13629:13760   */\n      tag_385\n      jump\t// in\n    tag_439:\n        /* \"#utility.yul\":13621:13760   */\n      swap1\n      pop\n        /* \"#utility.yul\":13348:13767   */\n      swap2\n      swap1\n      pop\n      jump\t// out\n        /* \"#utility.yul\":13773:14192   */\n    tag_116:\n        /* \"#utility.yul\":13912:13916   */\n      0x00\n        /* \"#utility.yul\":13950:13952   */\n      0x40\n        /* \"#utility.yul\":13939:13948   */\n      dup3\n        /* \"#utility.yul\":13935:13953   */\n      add\n        /* \"#utility.yul\":13927:13953   */\n      swap1\n      pop\n        /* \"#utility.yul\":13963:14032   */\n      tag_441\n        /* \"#utility.yul\":14029:14030   */\n      0x00\n        /* \"#utility.yul\":14018:14027   */\n      dup4\n        /* \"#utility.yul\":14014:14031   */\n      add\n        /* \"#utility.yul\":14005:14011   */\n      dup6\n        /* \"#utility.yul\":13963:14032   */\n      tag_398\n      jump\t// in\n    tag_441:\n        /* \"#utility.yul\":14079:14088   */\n      dup2\n        /* \"#utility.yul\":14073:14077   */\n      dup2\n        /* \"#utility.yul\":14069:14089   */\n      sub\n        /* \"#utility.yul\":14064:14066   */\n      0x20\n        /* \"#utility.yul\":14053:14062   */\n      dup4\n        /* \"#utility.yul\":14049:14067   */\n      add\n        /* \"#utility.yul\":14042:14090   */\n      mstore\n        /* \"#utility.yul\":14107:14185   */\n      tag_442\n        /* \"#utility.yul\":14180:14184   */\n      dup2\n        /* \"#utility.yul\":14171:14177   */\n      dup5\n        /* \"#utility.yul\":14107:14185   */\n      tag_345\n      jump\t// in\n    tag_442:\n        /* \"#utility.yul\":14099:14185   */\n      swap1\n      pop\n        /* \"#utility.yul\":13773:14192   */\n      swap4\n      swap3\n      pop\n      pop\n      pop\n      jump\t// out\n        /* \"#utility.yul\":14198:14327   */\n    tag_272:\n        /* \"#utility.yul\":14232:14238   */\n      0x00\n        /* \"#utility.yul\":14259:14279   */\n      tag_444\n      tag_445\n      jump\t// in\n    tag_444:\n        /* \"#utility.yul\":14249:14279   */\n      swap1\n      pop\n        /* \"#utility.yul\":14288:14321   */\n      tag_446\n        /* \"#utility.yul\":14316:14320   */\n      dup3\n        /* \"#utility.yul\":14308:14314   */\n      dup3\n        /* \"#utility.yul\":14288:14321   */\n      tag_447\n      jump\t// in\n    tag_446:\n        /* \"#utility.yul\":14198:14327   */\n      swap2\n      swap1\n      pop\n      jump\t// out\n        /* \"#utility.yul\":14333:14408   */\n    tag_445:\n        /* \"#utility.yul\":14366:14372   */\n      0x00\n        /* \"#utility.yul\":14399:14401   */\n      0x40\n        /* \"#utility.yul\":14393:14402   */\n      mload\n        /* \"#utility.yul\":14383:14402   */\n      swap1\n      pop\n        /* \"#utility.yul\":14333:14408   */\n      swap1\n      jump\t// out\n        /* \"#utility.yul\":14414:14722   */\n    tag_271:\n        /* \"#utility.yul\":14476:14480   */\n      0x00\n        /* \"#utility.yul\":14566:14584   */\n      0xffffffffffffffff\n        /* \"#utility.yul\":14558:14564   */\n      dup3\n        /* \"#utility.yul\":14555:14585   */\n      gt\n        /* \"#utility.yul\":14552:14608   */\n      iszero\n      tag_450\n      jumpi\n        /* \"#utility.yul\":14588:14606   */\n      tag_451\n      tag_452\n      jump\t// in\n    tag_451:\n        /* \"#utility.yul\":14552:14608   */\n    tag_450:\n        /* \"#utility.yul\":14626:14655   */\n      tag_453\n        /* \"#utility.yul\":14648:14654   */\n      dup3\n        /* \"#utility.yul\":14626:14655   */\n      tag_354\n      jump\t// in\n    tag_453:\n        /* \"#utility.yul\":14618:14655   */\n      swap1\n      pop\n        /* \"#utility.yul\":14710:14714   */\n      0x20\n        /* \"#utility.yul\":14704:14708   */\n      dup2\n        /* \"#utility.yul\":14700:14715   */\n      add\n        /* \"#utility.yul\":14692:14715   */\n      swap1\n      pop\n        /* \"#utility.yul\":14414:14722   */\n      swap2\n      swap1\n      pop\n      jump\t// out\n        /* \"#utility.yul\":14728:14827   */\n    tag_348:\n        /* \"#utility.yul\":14780:14786   */\n      0x00\n        /* \"#utility.yul\":14814:14819   */\n      dup2\n        /* \"#utility.yul\":14808:14820   */\n      mload\n        /* \"#utility.yul\":14798:14820   */\n      swap1\n      pop\n        /* \"#utility.yul\":14728:14827   */\n      swap2\n      swap1\n      pop\n      jump\t// out\n        /* \"#utility.yul\":14833:15002   */\n    tag_350:\n        /* \"#utility.yul\":14917:14928   */\n      0x00\n        /* \"#utility.yul\":14951:14957   */\n      dup3\n        /* \"#utility.yul\":14946:14949   */\n      dup3\n        /* \"#utility.yul\":14939:14958   */\n      mstore\n        /* \"#utility.yul\":14991:14995   */\n      0x20\n        /* \"#utility.yul\":14986:14989   */\n      dup3\n        /* \"#utility.yul\":14982:14996   */\n      add\n        /* \"#utility.yul\":14967:14996   */\n      swap1\n      pop\n        /* \"#utility.yul\":14833:15002   */\n      swap3\n      swap2\n      pop\n      pop\n      jump\t// out\n        /* \"#utility.yul\":15008:15104   */\n    tag_336:\n        /* \"#utility.yul\":15045:15052   */\n      0x00\n        /* \"#utility.yul\":15074:15098   */\n      tag_457\n        /* \"#utility.yul\":15092:15097   */\n      dup3\n        /* \"#utility.yul\":15074:15098   */\n      tag_458\n      jump\t// in\n    tag_457:\n        /* \"#utility.yul\":15063:15098   */\n      swap1\n      pop\n        /* \"#utility.yul\":15008:15104   */\n      swap2\n      swap1\n      pop\n      jump\t// out\n        /* \"#utility.yul\":15110:15200   */\n    tag_340:\n        /* \"#utility.yul\":15144:15151   */\n      0x00\n        /* \"#utility.yul\":15187:15192   */\n      dup2\n        /* \"#utility.yul\":15180:15193   */\n      iszero\n        /* \"#utility.yul\":15173:15194   */\n      iszero\n        /* \"#utility.yul\":15162:15194   */\n      swap1\n      pop\n        /* \"#utility.yul\":15110:15200   */\n      swap2\n      swap1\n      pop\n      jump\t// out\n        /* \"#utility.yul\":15206:15333   */\n    tag_460:\n        /* \"#utility.yul\":15251:15258   */\n      0x00\n        /* \"#utility.yul\":15280:15285   */\n      dup2\n        /* \"#utility.yul\":15269:15285   */\n      swap1\n      pop\n        /* \"#utility.yul\":15286:15327   */\n      tag_462\n        /* \"#utility.yul\":15321:15326   */\n      dup3\n        /* \"#utility.yul\":15286:15327   */\n      tag_463\n      jump\t// in\n    tag_462:\n        /* \"#utility.yul\":15206:15333   */\n      swap2\n      swap1\n      pop\n      jump\t// out\n        /* \"#utility.yul\":15339:15428   */\n    tag_393:\n        /* \"#utility.yul\":15375:15382   */\n      0x00\n        /* \"#utility.yul\":15415:15421   */\n      0xffff\n        /* \"#utility.yul\":15408:15413   */\n      dup3\n        /* \"#utility.yul\":15404:15422   */\n      and\n        /* \"#utility.yul\":15393:15422   */\n      swap1\n      pop\n        /* \"#utility.yul\":15339:15428   */\n      swap2\n      swap1\n      pop\n      jump\t// out\n        /* \"#utility.yul\":15434:15560   */\n    tag_458:\n        /* \"#utility.yul\":15471:15478   */\n      0x00\n        /* \"#utility.yul\":15511:15553   */\n      0xffffffffffffffffffffffffffffffffffffffff\n        /* \"#utility.yul\":15504:15509   */\n      dup3\n        /* \"#utility.yul\":15500:15554   */\n      and\n        /* \"#utility.yul\":15489:15554   */\n      swap1\n      pop\n        /* \"#utility.yul\":15434:15560   */\n      swap2\n      swap1\n      pop\n      jump\t// out\n        /* \"#utility.yul\":15566:15643   */\n    tag_397:\n        /* \"#utility.yul\":15603:15610   */\n      0x00\n        /* \"#utility.yul\":15632:15637   */\n      dup2\n        /* \"#utility.yul\":15621:15637   */\n      swap1\n      pop\n        /* \"#utility.yul\":15566:15643   */\n      swap2\n      swap1\n      pop\n      jump\t// out\n        /* \"#utility.yul\":15649:15742   */\n    tag_401:\n        /* \"#utility.yul\":15685:15692   */\n      0x00\n        /* \"#utility.yul\":15725:15735   */\n      0xffffffff\n        /* \"#utility.yul\":15718:15723   */\n      dup3\n        /* \"#utility.yul\":15714:15736   */\n      and\n        /* \"#utility.yul\":15703:15736   */\n      swap1\n      pop\n        /* \"#utility.yul\":15649:15742   */\n      swap2\n      swap1\n      pop\n      jump\t// out\n        /* \"#utility.yul\":15748:15834   */\n    tag_405:\n        /* \"#utility.yul\":15783:15790   */\n      0x00\n        /* \"#utility.yul\":15823:15827   */\n      0xff\n        /* \"#utility.yul\":15816:15821   */\n      dup3\n        /* \"#utility.yul\":15812:15828   */\n      and\n        /* \"#utility.yul\":15801:15828   */\n      swap1\n      pop\n        /* \"#utility.yul\":15748:15834   */\n      swap2\n      swap1\n      pop\n      jump\t// out\n        /* \"#utility.yul\":15840:15967   */\n    tag_344:\n        /* \"#utility.yul\":15896:15905   */\n      0x00\n        /* \"#utility.yul\":15929:15961   */\n      tag_470\n        /* \"#utility.yul\":15955:15960   */\n      dup3\n        /* \"#utility.yul\":15929:15961   */\n      tag_460\n      jump\t// in\n    tag_470:\n        /* \"#utility.yul\":15916:15961   */\n      swap1\n      pop\n        /* \"#utility.yul\":15840:15967   */\n      swap2\n      swap1\n      pop\n      jump\t// out\n        /* \"#utility.yul\":15973:16127   */\n    tag_277:\n        /* \"#utility.yul\":16057:16063   */\n      dup3\n        /* \"#utility.yul\":16052:16055   */\n      dup2\n        /* \"#utility.yul\":16047:16050   */\n      dup4\n        /* \"#utility.yul\":16034:16064   */\n      calldatacopy\n        /* \"#utility.yul\":16119:16120   */\n      0x00\n        /* \"#utility.yul\":16110:16116   */\n      dup4\n        /* \"#utility.yul\":16105:16108   */\n      dup4\n        /* \"#utility.yul\":16101:16117   */\n      add\n        /* \"#utility.yul\":16094:16121   */\n      mstore\n        /* \"#utility.yul\":15973:16127   */\n      pop\n      pop\n      pop\n      jump\t// out\n        /* \"#utility.yul\":16133:16440   */\n    tag_352:\n        /* \"#utility.yul\":16201:16202   */\n      0x00\n        /* \"#utility.yul\":16211:16324   */\n    tag_473:\n        /* \"#utility.yul\":16225:16231   */\n      dup4\n        /* \"#utility.yul\":16222:16223   */\n      dup2\n        /* \"#utility.yul\":16219:16232   */\n      lt\n        /* \"#utility.yul\":16211:16324   */\n      iszero\n      tag_475\n      jumpi\n        /* \"#utility.yul\":16310:16311   */\n      dup1\n        /* \"#utility.yul\":16305:16308   */\n      dup3\n        /* \"#utility.yul\":16301:16312   */\n      add\n        /* \"#utility.yul\":16295:16313   */\n      mload\n        /* \"#utility.yul\":16291:16292   */\n      dup2\n        /* \"#utility.yul\":16286:16289   */\n      dup5\n        /* \"#utility.yul\":16282:16293   */\n      add\n        /* \"#utility.yul\":16275:16314   */\n      mstore\n        /* \"#utility.yul\":16247:16249   */\n      0x20\n        /* \"#utility.yul\":16244:16245   */\n      dup2\n        /* \"#utility.yul\":16240:16250   */\n      add\n        /* \"#utility.yul\":16235:16250   */\n      swap1\n      pop\n        /* \"#utility.yul\":16211:16324   */\n      jump(tag_473)\n    tag_475:\n        /* \"#utility.yul\":16342:16348   */\n      dup4\n        /* \"#utility.yul\":16339:16340   */\n      dup2\n        /* \"#utility.yul\":16336:16349   */\n      gt\n        /* \"#utility.yul\":16333:16434   */\n      iszero\n      tag_476\n      jumpi\n        /* \"#utility.yul\":16422:16423   */\n      0x00\n        /* \"#utility.yul\":16413:16419   */\n      dup5\n        /* \"#utility.yul\":16408:16411   */\n      dup5\n        /* \"#utility.yul\":16404:16420   */\n      add\n        /* \"#utility.yul\":16397:16424   */\n      mstore\n        /* \"#utility.yul\":16333:16434   */\n    tag_476:\n        /* \"#utility.yul\":16182:16440   */\n      pop\n        /* \"#utility.yul\":16133:16440   */\n      pop\n      pop\n      pop\n      jump\t// out\n        /* \"#utility.yul\":16446:16766   */\n    tag_173:\n        /* \"#utility.yul\":16490:16496   */\n      0x00\n        /* \"#utility.yul\":16527:16528   */\n      0x02\n        /* \"#utility.yul\":16521:16525   */\n      dup3\n        /* \"#utility.yul\":16517:16529   */\n      div\n        /* \"#utility.yul\":16507:16529   */\n      swap1\n      pop\n        /* \"#utility.yul\":16574:16575   */\n      0x01\n        /* \"#utility.yul\":16568:16572   */\n      dup3\n        /* \"#utility.yul\":16564:16576   */\n      and\n        /* \"#utility.yul\":16595:16613   */\n      dup1\n        /* \"#utility.yul\":16585:16666   */\n      tag_478\n      jumpi\n        /* \"#utility.yul\":16651:16655   */\n      0x7f\n        /* \"#utility.yul\":16643:16649   */\n      dup3\n        /* \"#utility.yul\":16639:16656   */\n      and\n        /* \"#utility.yul\":16629:16656   */\n      swap2\n      pop\n        /* \"#utility.yul\":16585:16666   */\n    tag_478:\n        /* \"#utility.yul\":16713:16715   */\n      0x20\n        /* \"#utility.yul\":16705:16711   */\n      dup3\n        /* \"#utility.yul\":16702:16716   */\n      lt\n        /* \"#utility.yul\":16682:16700   */\n      dup2\n        /* \"#utility.yul\":16679:16717   */\n      eq\n        /* \"#utility.yul\":16676:16760   */\n      iszero\n      tag_479\n      jumpi\n        /* \"#utility.yul\":16732:16750   */\n      tag_480\n      tag_481\n      jump\t// in\n    tag_480:\n        /* \"#utility.yul\":16676:16760   */\n    tag_479:\n        /* \"#utility.yul\":16497:16766   */\n      pop\n        /* \"#utility.yul\":16446:16766   */\n      swap2\n      swap1\n      pop\n      jump\t// out\n        /* \"#utility.yul\":16772:17053   */\n    tag_447:\n        /* \"#utility.yul\":16855:16882   */\n      tag_483\n        /* \"#utility.yul\":16877:16881   */\n      dup3\n        /* \"#utility.yul\":16855:16882   */\n      tag_354\n      jump\t// in\n    tag_483:\n        /* \"#utility.yul\":16847:16853   */\n      dup2\n        /* \"#utility.yul\":16843:16883   */\n      add\n        /* \"#utility.yul\":16985:16991   */\n      dup2\n        /* \"#utility.yul\":16973:16983   */\n      dup2\n        /* \"#utility.yul\":16970:16992   */\n      lt\n        /* \"#utility.yul\":16949:16967   */\n      0xffffffffffffffff\n        /* \"#utility.yul\":16937:16947   */\n      dup3\n        /* \"#utility.yul\":16934:16968   */\n      gt\n        /* \"#utility.yul\":16931:16993   */\n      or\n        /* \"#utility.yul\":16928:17016   */\n      iszero\n      tag_484\n      jumpi\n        /* \"#utility.yul\":16996:17014   */\n      tag_485\n      tag_452\n      jump\t// in\n    tag_485:\n        /* \"#utility.yul\":16928:17016   */\n    tag_484:\n        /* \"#utility.yul\":17036:17046   */\n      dup1\n        /* \"#utility.yul\":17032:17034   */\n      0x40\n        /* \"#utility.yul\":17025:17047   */\n      mstore\n        /* \"#utility.yul\":16815:17053   */\n      pop\n        /* \"#utility.yul\":16772:17053   */\n      pop\n      pop\n      jump\t// out\n        /* \"#utility.yul\":17059:17239   */\n    tag_486:\n        /* \"#utility.yul\":17107:17184   */\n      0x4e487b7100000000000000000000000000000000000000000000000000000000\n        /* \"#utility.yul\":17104:17105   */\n      0x00\n        /* \"#utility.yul\":17097:17185   */\n      mstore\n        /* \"#utility.yul\":17204:17208   */\n      0x21\n        /* \"#utility.yul\":17201:17202   */\n      0x04\n        /* \"#utility.yul\":17194:17209   */\n      mstore\n        /* \"#utility.yul\":17228:17232   */\n      0x24\n        /* \"#utility.yul\":17225:17226   */\n      0x00\n        /* \"#utility.yul\":17218:17233   */\n      revert\n        /* \"#utility.yul\":17245:17425   */\n    tag_481:\n        /* \"#utility.yul\":17293:17370   */\n      0x4e487b7100000000000000000000000000000000000000000000000000000000\n        /* \"#utility.yul\":17290:17291   */\n      0x00\n        /* \"#utility.yul\":17283:17371   */\n      mstore\n        /* \"#utility.yul\":17390:17394   */\n      0x22\n        /* \"#utility.yul\":17387:17388   */\n      0x04\n        /* \"#utility.yul\":17380:17395   */\n      mstore\n        /* \"#utility.yul\":17414:17418   */\n      0x24\n        /* \"#utility.yul\":17411:17412   */\n      0x00\n        /* \"#utility.yul\":17404:17419   */\n      revert\n        /* \"#utility.yul\":17431:17611   */\n    tag_452:\n        /* \"#utility.yul\":17479:17556   */\n      0x4e487b7100000000000000000000000000000000000000000000000000000000\n        /* \"#utility.yul\":17476:17477   */\n      0x00\n        /* \"#utility.yul\":17469:17557   */\n      mstore\n        /* \"#utility.yul\":17576:17580   */\n      0x41\n        /* \"#utility.yul\":17573:17574   */\n      0x04\n        /* \"#utility.yul\":17566:17581   */\n      mstore\n        /* \"#utility.yul\":17600:17604   */\n      0x24\n        /* \"#utility.yul\":17597:17598   */\n      0x00\n        /* \"#utility.yul\":17590:17605   */\n      revert\n        /* \"#utility.yul\":17617:17734   */\n    tag_286:\n        /* \"#utility.yul\":17726:17727   */\n      0x00\n        /* \"#utility.yul\":17723:17724   */\n      dup1\n        /* \"#utility.yul\":17716:17728   */\n      revert\n        /* \"#utility.yul\":17740:17857   */\n    tag_275:\n        /* \"#utility.yul\":17849:17850   */\n      0x00\n        /* \"#utility.yul\":17846:17847   */\n      dup1\n        /* \"#utility.yul\":17839:17851   */\n      revert\n        /* \"#utility.yul\":17863:17980   */\n    tag_317:\n        /* \"#utility.yul\":17972:17973   */\n      0x00\n        /* \"#utility.yul\":17969:17970   */\n      dup1\n        /* \"#utility.yul\":17962:17974   */\n      revert\n        /* \"#utility.yul\":17986:18103   */\n    tag_303:\n        /* \"#utility.yul\":18095:18096   */\n      0x00\n        /* \"#utility.yul\":18092:18093   */\n      dup1\n        /* \"#utility.yul\":18085:18097   */\n      revert\n        /* \"#utility.yul\":18109:18211   */\n    tag_354:\n        /* \"#utility.yul\":18150:18156   */\n      0x00\n        /* \"#utility.yul\":18201:18203   */\n      0x1f\n        /* \"#utility.yul\":18197:18204   */\n      not\n        /* \"#utility.yul\":18192:18194   */\n      0x1f\n        /* \"#utility.yul\":18185:18190   */\n      dup4\n        /* \"#utility.yul\":18181:18195   */\n      add\n        /* \"#utility.yul\":18177:18205   */\n      and\n        /* \"#utility.yul\":18167:18205   */\n      swap1\n      pop\n        /* \"#utility.yul\":18109:18211   */\n      swap2\n      swap1\n      pop\n      jump\t// out\n        /* \"#utility.yul\":18217:18392   */\n    tag_359:\n        /* \"#utility.yul\":18357:18384   */\n      0x4b757273204d65726b657a69205a6174656e204d657663757400000000000000\n        /* \"#utility.yul\":18353:18354   */\n      0x00\n        /* \"#utility.yul\":18345:18351   */\n      dup3\n        /* \"#utility.yul\":18341:18355   */\n      add\n        /* \"#utility.yul\":18334:18385   */\n      mstore\n        /* \"#utility.yul\":18217:18392   */\n      pop\n      jump\t// out\n        /* \"#utility.yul\":18398:18566   */\n    tag_364:\n        /* \"#utility.yul\":18538:18558   */\n      0x4669726d61205a6174656e204d65766375740000000000000000000000000000\n        /* \"#utility.yul\":18534:18535   */\n      0x00\n        /* \"#utility.yul\":18526:18532   */\n      dup3\n        /* \"#utility.yul\":18522:18536   */\n      add\n        /* \"#utility.yul\":18515:18559   */\n      mstore\n        /* \"#utility.yul\":18398:18566   */\n      pop\n      jump\t// out\n        /* \"#utility.yul\":18572:18752   */\n    tag_369:\n        /* \"#utility.yul\":18712:18744   */\n      0x536572746966696b61204d65726b657a69205a6174656e204d65766375740000\n        /* \"#utility.yul\":18708:18709   */\n      0x00\n        /* \"#utility.yul\":18700:18706   */\n      dup3\n        /* \"#utility.yul\":18696:18710   */\n      add\n        /* \"#utility.yul\":18689:18745   */\n      mstore\n        /* \"#utility.yul\":18572:18752   */\n      pop\n      jump\t// out\n        /* \"#utility.yul\":18758:18979   */\n    tag_374:\n        /* \"#utility.yul\":18898:18932   */\n      0x536976696c20546f706c756d204b7572756c757375205a6174656e204d657663\n        /* \"#utility.yul\":18894:18895   */\n      0x00\n        /* \"#utility.yul\":18886:18892   */\n      dup3\n        /* \"#utility.yul\":18882:18896   */\n      add\n        /* \"#utility.yul\":18875:18933   */\n      mstore\n        /* \"#utility.yul\":18967:18971   */\n      0x7574000000000000000000000000000000000000000000000000000000000000\n        /* \"#utility.yul\":18962:18964   */\n      0x20\n        /* \"#utility.yul\":18954:18960   */\n      dup3\n        /* \"#utility.yul\":18950:18965   */\n      add\n        /* \"#utility.yul\":18943:18972   */\n      mstore\n        /* \"#utility.yul\":18758:18979   */\n      pop\n      jump\t// out\n        /* \"#utility.yul\":18985:19158   */\n    tag_379:\n        /* \"#utility.yul\":19125:19150   */\n      0x556e6976657273697465205a6174656e204d6576637574000000000000000000\n        /* \"#utility.yul\":19121:19122   */\n      0x00\n        /* \"#utility.yul\":19113:19119   */\n      dup3\n        /* \"#utility.yul\":19109:19123   */\n      add\n        /* \"#utility.yul\":19102:19151   */\n      mstore\n        /* \"#utility.yul\":18985:19158   */\n      pop\n      jump\t// out\n        /* \"#utility.yul\":19164:19331   */\n    tag_384:\n        /* \"#utility.yul\":19304:19323   */\n      0x4b697369205a6174656e204d6576637574000000000000000000000000000000\n        /* \"#utility.yul\":19300:19301   */\n      0x00\n        /* \"#utility.yul\":19292:19298   */\n      dup3\n        /* \"#utility.yul\":19288:19302   */\n      add\n        /* \"#utility.yul\":19281:19324   */\n      mstore\n        /* \"#utility.yul\":19164:19331   */\n      pop\n      jump\t// out\n        /* \"#utility.yul\":19337:19510   */\n    tag_389:\n        /* \"#utility.yul\":19477:19502   */\n      0x4b616d75204b75726d75205a6174656e204d6576637574000000000000000000\n        /* \"#utility.yul\":19473:19474   */\n      0x00\n        /* \"#utility.yul\":19465:19471   */\n      dup3\n        /* \"#utility.yul\":19461:19475   */\n      add\n        /* \"#utility.yul\":19454:19503   */\n      mstore\n        /* \"#utility.yul\":19337:19510   */\n      pop\n      jump\t// out\n        /* \"#utility.yul\":19516:19629   */\n    tag_463:\n        /* \"#utility.yul\":19597:19598   */\n      0x04\n        /* \"#utility.yul\":19590:19595   */\n      dup2\n        /* \"#utility.yul\":19587:19599   */\n      lt\n        /* \"#utility.yul\":19577:19623   */\n      tag_503\n      jumpi\n        /* \"#utility.yul\":19603:19621   */\n      tag_504\n      tag_486\n      jump\t// in\n    tag_504:\n        /* \"#utility.yul\":19577:19623   */\n    tag_503:\n        /* \"#utility.yul\":19516:19629   */\n      pop\n      jump\t// out\n        /* \"#utility.yul\":19635:19757   */\n    tag_281:\n        /* \"#utility.yul\":19708:19732   */\n      tag_506\n        /* \"#utility.yul\":19726:19731   */\n      dup2\n        /* \"#utility.yul\":19708:19732   */\n      tag_336\n      jump\t// in\n    tag_506:\n        /* \"#utility.yul\":19701:19706   */\n      dup2\n        /* \"#utility.yul\":19698:19733   */\n      eq\n        /* \"#utility.yul\":19688:19751   */\n      tag_507\n      jumpi\n        /* \"#utility.yul\":19747:19748   */\n      0x00\n        /* \"#utility.yul\":19744:19745   */\n      dup1\n        /* \"#utility.yul\":19737:19749   */\n      revert\n        /* \"#utility.yul\":19688:19751   */\n    tag_507:\n        /* \"#utility.yul\":19635:19757   */\n      pop\n      jump\t// out\n        /* \"#utility.yul\":19763:19885   */\n    tag_291:\n        /* \"#utility.yul\":19836:19860   */\n      tag_509\n        /* \"#utility.yul\":19854:19859   */\n      dup2\n        /* \"#utility.yul\":19836:19860   */\n      tag_397\n      jump\t// in\n    tag_509:\n        /* \"#utility.yul\":19829:19834   */\n      dup2\n        /* \"#utility.yul\":19826:19861   */\n      eq\n        /* \"#utility.yul\":19816:19879   */\n      tag_510\n      jumpi\n        /* \"#utility.yul\":19875:19876   */\n      0x00\n        /* \"#utility.yul\":19872:19873   */\n      dup1\n        /* \"#utility.yul\":19865:19877   */\n      revert\n        /* \"#utility.yul\":19816:19879   */\n    tag_510:\n        /* \"#utility.yul\":19763:19885   */\n      pop\n      jump\t// out\n        /* \"#utility.yul\":19891:20011   */\n    tag_295:\n        /* \"#utility.yul\":19963:19986   */\n      tag_512\n        /* \"#utility.yul\":19980:19985   */\n      dup2\n        /* \"#utility.yul\":19963:19986   */\n      tag_401\n      jump\t// in\n    tag_512:\n        /* \"#utility.yul\":19956:19961   */\n      dup2\n        /* \"#utility.yul\":19953:19987   */\n      eq\n        /* \"#utility.yul\":19943:20005   */\n      tag_513\n      jumpi\n        /* \"#utility.yul\":20001:20002   */\n      0x00\n        /* \"#utility.yul\":19998:19999   */\n      dup1\n        /* \"#utility.yul\":19991:20003   */\n      revert\n        /* \"#utility.yul\":19943:20005   */\n    tag_513:\n        /* \"#utility.yul\":19891:20011   */\n      pop\n      jump\t// out\n        /* \"#utility.yul\":20017:20135   */\n    tag_299:\n        /* \"#utility.yul\":20088:20110   */\n      tag_515\n        /* \"#utility.yul\":20104:20109   */\n      dup2\n        /* \"#utility.yul\":20088:20110   */\n      tag_405\n      jump\t// in\n    tag_515:\n        /* \"#utility.yul\":20081:20086   */\n      dup2\n        /* \"#utility.yul\":20078:20111   */\n      eq\n        /* \"#utility.yul\":20068:20129   */\n      tag_516\n      jumpi\n        /* \"#utility.yul\":20125:20126   */\n      0x00\n        /* \"#utility.yul\":20122:20123   */\n      dup1\n        /* \"#utility.yul\":20115:20127   */\n      revert\n        /* \"#utility.yul\":20068:20129   */\n    tag_516:\n        /* \"#utility.yul\":20017:20135   */\n      pop\n      jump\t// out\n\n    auxdata: 0xa26469706673582212209b2137f9313525af430aa10c231cd39399b03a24bb23508d23923b7a8cef937d64736f6c63430008070033\n}\n",
				"bytecode": {
					"linkReferences": {},
					"object": "608060405234801561001057600080fd5b506126a3806100206000396000f3fe608060405234801561001057600080fd5b50600436106101ce5760003560e01c80637d0fa28711610104578063cbc92809116100a2578063e513050811610071578063e5130508146105fa578063f0040eb91461062a578063f54acc651461065a578063f63c649f14610676576101ce565b8063cbc928091461054e578063d25aab851461057e578063d73964141461059a578063e24047ca146105ca576101ce565b80639dc30114116100de5780639dc301141461049c578063a4e7ae05146104b8578063b98ccefd146104e9578063ba479b7e14610519576101ce565b80637d0fa287146104085780638c8488851461043a5780639a8c91191461046a576101ce565b80632d087d701161017157806339987f941161014b57806339987f941461036b578063462248531461039e578063514e03c7146103ba57806371af892d146103ea576101ce565b80632d087d70146102ed578063356b1f1e1461031d57806336fd26331461034f576101ce565b8063139884ec116101ad578063139884ec1461023d57806319023bf31461026d5780631916e1391461028957806328266697146102bb576101ce565b80621d54ab146101d3578063024eb6bc146101ef57806303c3abc41461021f575b600080fd5b6101ed60048036038101906101e89190611de5565b610692565b005b61020960048036038101906102049190611ce2565b6107ed565b6040516102169190612033565b60405180910390f35b610227610846565b6040516102349190612018565b60405180910390f35b61025760048036038101906102529190611ce2565b61086f565b6040516102649190612033565b60405180910390f35b61028760048036038101906102829190611de5565b6108c9565b005b6102a3600480360381019061029e9190611ce2565b610a24565b6040516102b2939291906120bd565b60405180910390f35b6102d560048036038101906102d09190611ce2565b610af0565b6040516102e4939291906120bd565b60405180910390f35b61030760048036038101906103029190611ce2565b610bbc565b6040516103149190612033565b60405180910390f35b61033760048036038101906103329190611ce2565b610c15565b604051610346939291906120bd565b60405180910390f35b61036960048036038101906103649190611d0f565b610ce1565b005b61038560048036038101906103809190611ce2565b610da8565b60405161039594939291906120fb565b60405180910390f35b6103b860048036038101906103b39190611de5565b610e7a565b005b6103d460048036038101906103cf9190611ce2565b610fd5565b6040516103e19190612033565b60405180910390f35b6103f261102e565b6040516103ff9190612018565b60405180910390f35b610422600480360381019061041d9190611ce2565b611052565b604051610431939291906120bd565b60405180910390f35b610454600480360381019061044f9190611ce2565b61111e565b6040516104619190612033565b60405180910390f35b610484600480360381019061047f9190611ce2565b611177565b604051610493939291906120bd565b60405180910390f35b6104b660048036038101906104b19190611de5565b611243565b005b6104d260048036038101906104cd9190611e54565b61139e565b6040516104e0929190612227565b60405180910390f35b61050360048036038101906104fe9190611ce2565b61145a565b6040516105109190612033565b60405180910390f35b610533600480360381019061052e9190611ce2565b6114b3565b6040516105459695949392919061204e565b60405180910390f35b61056860048036038101906105639190611ce2565b611647565b6040516105759190612033565b60405180910390f35b61059860048036038101906105939190611d62565b611672565b005b6105b460048036038101906105af9190611ce2565b611815565b6040516105c19190612033565b60405180910390f35b6105e460048036038101906105df9190611ce2565b61186d565b6040516105f19190612033565b60405180910390f35b610614600480360381019061060f9190611ce2565b6118c6565b6040516106219190612033565b60405180910390f35b610644600480360381019061063f9190611ce2565b611920565b6040516106519190612033565b60405180910390f35b610674600480360381019061066f9190611ce2565b611979565b005b610690600480360381019061068b9190611de5565b611a20565b005b61069b83611920565b156106db576040517f08c379a00000000000000000000000000000000000000000000000000000000081526004016106d2906121c7565b60405180910390fd5b6001600460008573ffffffffffffffffffffffffffffffffffffffff1673ffffffffffffffffffffffffffffffffffffffff16815260200190815260200160002060000160006101000a81548160ff02191690831515021790555081600460008573ffffffffffffffffffffffffffffffffffffffff1673ffffffffffffffffffffffffffffffffffffffff168152602001908152602001600020600101908051906020019061078c929190611b7b565b5080600460008573ffffffffffffffffffffffffffffffffffffffff1673ffffffffffffffffffffffffffffffffffffffff16815260200190815260200160002060020160006101000a81548160ff021916908360ff160217905550505050565b6000600760008373ffffffffffffffffffffffffffffffffffffffff1673ffffffffffffffffffffffffffffffffffffffff16815260200190815260200160002060000160009054906101000a900460ff169050919050565b60008060009054906101000a900473ffffffffffffffffffffffffffffffffffffffff16905090565b60008173ffffffffffffffffffffffffffffffffffffffff16600160009054906101000a900473ffffffffffffffffffffffffffffffffffffffff1673ffffffffffffffffffffffffffffffffffffffff16149050919050565b6108d28361111e565b15610912576040517f08c379a0000000000000000000000000000000000000000000000000000000008152600401610909906121a7565b60405180910390fd5b6001600960008573ffffffffffffffffffffffffffffffffffffffff1673ffffffffffffffffffffffffffffffffffffffff16815260200190815260200160002060000160006101000a81548160ff02191690831515021790555081600960008573ffffffffffffffffffffffffffffffffffffffff1673ffffffffffffffffffffffffffffffffffffffff16815260200190815260200160002060010190805190602001906109c3929190611b7b565b5080600960008573ffffffffffffffffffffffffffffffffffffffff1673ffffffffffffffffffffffffffffffffffffffff16815260200190815260200160002060020160006101000a81548160ff021916908360ff160217905550505050565b60076020528060005260406000206000915090508060000160009054906101000a900460ff1690806001018054610a5a906123a3565b80601f0160208091040260200160405190810160405280929190818152602001828054610a86906123a3565b8015610ad35780601f10610aa857610100808354040283529160200191610ad3565b820191906000526020600020905b815481529060010190602001808311610ab657829003601f168201915b5050505050908060020160009054906101000a900460ff16905083565b60046020528060005260406000206000915090508060000160009054906101000a900460ff1690806001018054610b26906123a3565b80601f0160208091040260200160405190810160405280929190818152602001828054610b52906123a3565b8015610b9f5780601f10610b7457610100808354040283529160200191610b9f565b820191906000526020600020905b815481529060010190602001808311610b8257829003601f168201915b5050505050908060020160009054906101000a900460ff16905083565b6000600660008373ffffffffffffffffffffffffffffffffffffffff1673ffffffffffffffffffffffffffffffffffffffff16815260200190815260200160002060000160009054906101000a900460ff169050919050565b600a6020528060005260406000206000915090508060000160009054906101000a900460ff1690806001018054610c4b906123a3565b80601f0160208091040260200160405190810160405280929190818152602001828054610c77906123a3565b8015610cc45780601f10610c9957610100808354040283529160200191610cc4565b820191906000526020600020905b815481529060010190602001808311610ca757829003601f168201915b5050505050908060020160009054906101000a900460ff16905083565b826000806101000a81548173ffffffffffffffffffffffffffffffffffffffff021916908373ffffffffffffffffffffffffffffffffffffffff16021790555081600160006101000a81548173ffffffffffffffffffffffffffffffffffffffff021916908373ffffffffffffffffffffffffffffffffffffffff16021790555080600260006101000a81548173ffffffffffffffffffffffffffffffffffffffff021916908373ffffffffffffffffffffffffffffffffffffffff160217905550505050565b60066020528060005260406000206000915090508060000160009054906101000a900460ff16908060000160019054906101000a900460ff1690806001015490806002018054610df7906123a3565b80601f0160208091040260200160405190810160405280929190818152602001828054610e23906123a3565b8015610e705780601f10610e4557610100808354040283529160200191610e70565b820191906000526020600020905b815481529060010190602001808311610e5357829003601f168201915b5050505050905084565b610e83836107ed565b15610ec3576040517f08c379a0000000000000000000000000000000000000000000000000000000008152600401610eba90612147565b60405180910390fd5b6001600760008573ffffffffffffffffffffffffffffffffffffffff1673ffffffffffffffffffffffffffffffffffffffff16815260200190815260200160002060000160006101000a81548160ff02191690831515021790555081600760008573ffffffffffffffffffffffffffffffffffffffff1673ffffffffffffffffffffffffffffffffffffffff1681526020019081526020016000206001019080519060200190610f74929190611b7b565b5080600760008573ffffffffffffffffffffffffffffffffffffffff1673ffffffffffffffffffffffffffffffffffffffff16815260200190815260200160002060020160006101000a81548160ff021916908360ff160217905550505050565b6000600860008373ffffffffffffffffffffffffffffffffffffffff1673ffffffffffffffffffffffffffffffffffffffff16815260200190815260200160002060000160009054906101000a900460ff169050919050565b60008054906101000a900473ffffffffffffffffffffffffffffffffffffffff1681565b60086020528060005260406000206000915090508060000160009054906101000a900460ff1690806001018054611088906123a3565b80601f01602080910402602001604051908101604052809291908181526020018280546110b4906123a3565b80156111015780601f106110d657610100808354040283529160200191611101565b820191906000526020600020905b8154815290600101906020018083116110e457829003601f168201915b5050505050908060020160009054906101000a900460ff16905083565b6000600960008373ffffffffffffffffffffffffffffffffffffffff1673ffffffffffffffffffffffffffffffffffffffff16815260200190815260200160002060000160009054906101000a900460ff169050919050565b60096020528060005260406000206000915090508060000160009054906101000a900460ff16908060010180546111ad906123a3565b80601f01602080910402602001604051908101604052809291908181526020018280546111d9906123a3565b80156112265780601f106111fb57610100808354040283529160200191611226565b820191906000526020600020905b81548152906001019060200180831161120957829003601f168201915b5050505050908060020160009054906101000a900460ff16905083565b61124c8361186d565b1561128c576040517f08c379a000000000000000000000000000000000000000000000000000000000815260040161128390612187565b60405180910390fd5b6001600a60008573ffffffffffffffffffffffffffffffffffffffff1673ffffffffffffffffffffffffffffffffffffffff16815260200190815260200160002060000160006101000a81548160ff02191690831515021790555081600a60008573ffffffffffffffffffffffffffffffffffffffff1673ffffffffffffffffffffffffffffffffffffffff168152602001908152602001600020600101908051906020019061133d929190611b7b565b5080600a60008573ffffffffffffffffffffffffffffffffffffffff1673ffffffffffffffffffffffffffffffffffffffff16815260200190815260200160002060020160006101000a81548160ff021916908360ff160217905550505050565b600b6020528060005260406000206000915090508060000160009054906101000a900463ffffffff16908060010180546113d7906123a3565b80601f0160208091040260200160405190810160405280929190818152602001828054611403906123a3565b80156114505780601f1061142557610100808354040283529160200191611450565b820191906000526020600020905b81548152906001019060200180831161143357829003601f168201915b5050505050905082565b6000600360008373ffffffffffffffffffffffffffffffffffffffff1673ffffffffffffffffffffffffffffffffffffffff16815260200190815260200160002060000160009054906101000a900460ff169050919050565b60056020528060005260406000206000915090508060000160009054906101000a900460ff16908060000160019054906101000a900473ffffffffffffffffffffffffffffffffffffffff16908060000160159054906101000a900461ffff16908060000160179054906101000a900460ff1690806001018054611536906123a3565b80601f0160208091040260200160405190810160405280929190818152602001828054611562906123a3565b80156115af5780601f10611584576101008083540402835291602001916115af565b820191906000526020600020905b81548152906001019060200180831161159257829003601f168201915b5050505050908060020180546115c4906123a3565b80601f01602080910402602001604051908101604052809291908181526020018280546115f0906123a3565b801561163d5780601f106116125761010080835404028352916020019161163d565b820191906000526020600020905b81548152906001019060200180831161162057829003601f168201915b5050505050905086565b60036020528060005260406000206000915090508060000160009054906101000a900460ff16905081565b61167b84610bbc565b156116bb576040517f08c379a00000000000000000000000000000000000000000000000000000000081526004016116b290612167565b60405180910390fd5b6001600660008673ffffffffffffffffffffffffffffffffffffffff1673ffffffffffffffffffffffffffffffffffffffff16815260200190815260200160002060000160006101000a81548160ff02191690831515021790555082600660008673ffffffffffffffffffffffffffffffffffffffff1673ffffffffffffffffffffffffffffffffffffffff168152602001908152602001600020600201908051906020019061176c929190611b7b565b5080600660008673ffffffffffffffffffffffffffffffffffffffff1673ffffffffffffffffffffffffffffffffffffffff16815260200190815260200160002060000160016101000a81548160ff021916908360ff16021790555081600660008673ffffffffffffffffffffffffffffffffffffffff1673ffffffffffffffffffffffffffffffffffffffff1681526020019081526020016000206001018190555050505050565b60008173ffffffffffffffffffffffffffffffffffffffff1660008054906101000a900473ffffffffffffffffffffffffffffffffffffffff1673ffffffffffffffffffffffffffffffffffffffff16149050919050565b6000600a60008373ffffffffffffffffffffffffffffffffffffffff1673ffffffffffffffffffffffffffffffffffffffff16815260200190815260200160002060000160009054906101000a900460ff169050919050565b60008173ffffffffffffffffffffffffffffffffffffffff16600260009054906101000a900473ffffffffffffffffffffffffffffffffffffffff1673ffffffffffffffffffffffffffffffffffffffff16149050919050565b6000600460008373ffffffffffffffffffffffffffffffffffffffff1673ffffffffffffffffffffffffffffffffffffffff16815260200190815260200160002060000160009054906101000a900460ff169050919050565b6119828161145a565b156119c2576040517f08c379a00000000000000000000000000000000000000000000000000000000081526004016119b9906121e7565b60405180910390fd5b6001600360008373ffffffffffffffffffffffffffffffffffffffff1673ffffffffffffffffffffffffffffffffffffffff16815260200190815260200160002060000160006101000a81548160ff02191690831515021790555050565b611a2983610fd5565b15611a69576040517f08c379a0000000000000000000000000000000000000000000000000000000008152600401611a6090612207565b60405180910390fd5b6001600860008573ffffffffffffffffffffffffffffffffffffffff1673ffffffffffffffffffffffffffffffffffffffff16815260200190815260200160002060000160006101000a81548160ff02191690831515021790555081600860008573ffffffffffffffffffffffffffffffffffffffff1673ffffffffffffffffffffffffffffffffffffffff1681526020019081526020016000206001019080519060200190611b1a929190611b7b565b5080600860008573ffffffffffffffffffffffffffffffffffffffff1673ffffffffffffffffffffffffffffffffffffffff16815260200190815260200160002060020160006101000a81548160ff021916908360ff160217905550505050565b828054611b87906123a3565b90600052602060002090601f016020900481019282611ba95760008555611bf0565b82601f10611bc257805160ff1916838001178555611bf0565b82800160010185558215611bf0579182015b82811115611bef578251825591602001919060010190611bd4565b5b509050611bfd9190611c01565b5090565b5b80821115611c1a576000816000905550600101611c02565b5090565b6000611c31611c2c8461227c565b612257565b905082815260208101848484011115611c4d57611c4c612498565b5b611c58848285612361565b509392505050565b600081359050611c6f81612611565b92915050565b600082601f830112611c8a57611c89612493565b5b8135611c9a848260208601611c1e565b91505092915050565b600081359050611cb281612628565b92915050565b600081359050611cc78161263f565b92915050565b600081359050611cdc81612656565b92915050565b600060208284031215611cf857611cf76124a2565b5b6000611d0684828501611c60565b91505092915050565b600080600060608486031215611d2857611d276124a2565b5b6000611d3686828701611c60565b9350506020611d4786828701611c60565b9250506040611d5886828701611c60565b9150509250925092565b60008060008060808587031215611d7c57611d7b6124a2565b5b6000611d8a87828801611c60565b945050602085013567ffffffffffffffff811115611dab57611daa61249d565b5b611db787828801611c75565b9350506040611dc887828801611ca3565b9250506060611dd987828801611ccd565b91505092959194509250565b600080600060608486031215611dfe57611dfd6124a2565b5b6000611e0c86828701611c60565b935050602084013567ffffffffffffffff811115611e2d57611e2c61249d565b5b611e3986828701611c75565b9250506040611e4a86828701611ccd565b9150509250925092565b600060208284031215611e6a57611e696124a2565b5b6000611e7884828501611cb8565b91505092915050565b611e8a816122c9565b82525050565b611e99816122db565b82525050565b611ea88161234f565b82525050565b6000611eb9826122ad565b611ec381856122b8565b9350611ed3818560208601612370565b611edc816124a7565b840191505092915050565b6000611ef46019836122b8565b9150611eff826124b8565b602082019050919050565b6000611f176012836122b8565b9150611f22826124e1565b602082019050919050565b6000611f3a601e836122b8565b9150611f458261250a565b602082019050919050565b6000611f5d6022836122b8565b9150611f6882612533565b604082019050919050565b6000611f806017836122b8565b9150611f8b82612582565b602082019050919050565b6000611fa36011836122b8565b9150611fae826125ab565b602082019050919050565b6000611fc66017836122b8565b9150611fd1826125d4565b602082019050919050565b611fe5816122fa565b82525050565b611ff481612328565b82525050565b61200381612332565b82525050565b61201281612342565b82525050565b600060208201905061202d6000830184611e81565b92915050565b60006020820190506120486000830184611e90565b92915050565b600060c0820190506120636000830189611e90565b6120706020830188611e81565b61207d6040830187611fdc565b61208a6060830186611e9f565b818103608083015261209c8185611eae565b905081810360a08301526120b08184611eae565b9050979650505050505050565b60006060820190506120d26000830186611e90565b81810360208301526120e48185611eae565b90506120f36040830184612009565b949350505050565b60006080820190506121106000830187611e90565b61211d6020830186612009565b61212a6040830185611feb565b818103606083015261213c8184611eae565b905095945050505050565b6000602082019050818103600083015261216081611ee7565b9050919050565b6000602082019050818103600083015261218081611f0a565b9050919050565b600060208201905081810360008301526121a081611f2d565b9050919050565b600060208201905081810360008301526121c081611f50565b9050919050565b600060208201905081810360008301526121e081611f73565b9050919050565b6000602082019050818103600083015261220081611f96565b9050919050565b6000602082019050818103600083015261222081611fb9565b9050919050565b600060408201905061223c6000830185611ffa565b818103602083015261224e8184611eae565b90509392505050565b6000612261612272565b905061226d82826123d5565b919050565b6000604051905090565b600067ffffffffffffffff82111561229757612296612464565b5b6122a0826124a7565b9050602081019050919050565b600081519050919050565b600082825260208201905092915050565b60006122d482612308565b9050919050565b60008115159050919050565b60008190506122f5826125fd565b919050565b600061ffff82169050919050565b600073ffffffffffffffffffffffffffffffffffffffff82169050919050565b6000819050919050565b600063ffffffff82169050919050565b600060ff82169050919050565b600061235a826122e7565b9050919050565b82818337600083830152505050565b60005b8381101561238e578082015181840152602081019050612373565b8381111561239d576000848401525b50505050565b600060028204905060018216806123bb57607f821691505b602082108114156123cf576123ce612435565b5b50919050565b6123de826124a7565b810181811067ffffffffffffffff821117156123fd576123fc612464565b5b80604052505050565b7f4e487b7100000000000000000000000000000000000000000000000000000000600052602160045260246000fd5b7f4e487b7100000000000000000000000000000000000000000000000000000000600052602260045260246000fd5b7f4e487b7100000000000000000000000000000000000000000000000000000000600052604160045260246000fd5b600080fd5b600080fd5b600080fd5b600080fd5b6000601f19601f8301169050919050565b7f4b757273204d65726b657a69205a6174656e204d657663757400000000000000600082015250565b7f4669726d61205a6174656e204d65766375740000000000000000000000000000600082015250565b7f536572746966696b61204d65726b657a69205a6174656e204d65766375740000600082015250565b7f536976696c20546f706c756d204b7572756c757375205a6174656e204d65766360008201527f7574000000000000000000000000000000000000000000000000000000000000602082015250565b7f556e6976657273697465205a6174656e204d6576637574000000000000000000600082015250565b7f4b697369205a6174656e204d6576637574000000000000000000000000000000600082015250565b7f4b616d75204b75726d75205a6174656e204d6576637574000000000000000000600082015250565b6004811061260e5761260d612406565b5b50565b61261a816122c9565b811461262557600080fd5b50565b61263181612328565b811461263c57600080fd5b50565b61264881612332565b811461265357600080fd5b50565b61265f81612342565b811461266a57600080fd5b5056fea26469706673582212209b2137f9313525af430aa10c231cd39399b03a24bb23508d23923b7a8cef937d64736f6c63430008070033",
					"opcodes": "PUSH1 0x80 PUSH1 0x40 MSTORE CALLVALUE DUP1 ISZERO PUSH2 0x10 JUMPI PUSH1 0x0 DUP1 REVERT JUMPDEST POP PUSH2 0x26A3 DUP1 PUSH2 0x20 PUSH1 0x0 CODECOPY PUSH1 0x0 RETURN INVALID PUSH1 0x80 PUSH1 0x40 MSTORE CALLVALUE DUP1 ISZERO PUSH2 0x10 JUMPI PUSH1 0x0 DUP1 REVERT JUMPDEST POP PUSH1 0x4 CALLDATASIZE LT PUSH2 0x1CE JUMPI PUSH1 0x0 CALLDATALOAD PUSH1 0xE0 SHR DUP1 PUSH4 0x7D0FA287 GT PUSH2 0x104 JUMPI DUP1 PUSH4 0xCBC92809 GT PUSH2 0xA2 JUMPI DUP1 PUSH4 0xE5130508 GT PUSH2 0x71 JUMPI DUP1 PUSH4 0xE5130508 EQ PUSH2 0x5FA JUMPI DUP1 PUSH4 0xF0040EB9 EQ PUSH2 0x62A JUMPI DUP1 PUSH4 0xF54ACC65 EQ PUSH2 0x65A JUMPI DUP1 PUSH4 0xF63C649F EQ PUSH2 0x676 JUMPI PUSH2 0x1CE JUMP JUMPDEST DUP1 PUSH4 0xCBC92809 EQ PUSH2 0x54E JUMPI DUP1 PUSH4 0xD25AAB85 EQ PUSH2 0x57E JUMPI DUP1 PUSH4 0xD7396414 EQ PUSH2 0x59A JUMPI DUP1 PUSH4 0xE24047CA EQ PUSH2 0x5CA JUMPI PUSH2 0x1CE JUMP JUMPDEST DUP1 PUSH4 0x9DC30114 GT PUSH2 0xDE JUMPI DUP1 PUSH4 0x9DC30114 EQ PUSH2 0x49C JUMPI DUP1 PUSH4 0xA4E7AE05 EQ PUSH2 0x4B8 JUMPI DUP1 PUSH4 0xB98CCEFD EQ PUSH2 0x4E9 JUMPI DUP1 PUSH4 0xBA479B7E EQ PUSH2 0x519 JUMPI PUSH2 0x1CE JUMP JUMPDEST DUP1 PUSH4 0x7D0FA287 EQ PUSH2 0x408 JUMPI DUP1 PUSH4 0x8C848885 EQ PUSH2 0x43A JUMPI DUP1 PUSH4 0x9A8C9119 EQ PUSH2 0x46A JUMPI PUSH2 0x1CE JUMP JUMPDEST DUP1 PUSH4 0x2D087D70 GT PUSH2 0x171 JUMPI DUP1 PUSH4 0x39987F94 GT PUSH2 0x14B JUMPI DUP1 PUSH4 0x39987F94 EQ PUSH2 0x36B JUMPI DUP1 PUSH4 0x46224853 EQ PUSH2 0x39E JUMPI DUP1 PUSH4 0x514E03C7 EQ PUSH2 0x3BA JUMPI DUP1 PUSH4 0x71AF892D EQ PUSH2 0x3EA JUMPI PUSH2 0x1CE JUMP JUMPDEST DUP1 PUSH4 0x2D087D70 EQ PUSH2 0x2ED JUMPI DUP1 PUSH4 0x356B1F1E EQ PUSH2 0x31D JUMPI DUP1 PUSH4 0x36FD2633 EQ PUSH2 0x34F JUMPI PUSH2 0x1CE JUMP JUMPDEST DUP1 PUSH4 0x139884EC GT PUSH2 0x1AD JUMPI DUP1 PUSH4 0x139884EC EQ PUSH2 0x23D JUMPI DUP1 PUSH4 0x19023BF3 EQ PUSH2 0x26D JUMPI DUP1 PUSH4 0x1916E139 EQ PUSH2 0x289 JUMPI DUP1 PUSH4 0x28266697 EQ PUSH2 0x2BB JUMPI PUSH2 0x1CE JUMP JUMPDEST DUP1 PUSH3 0x1D54AB EQ PUSH2 0x1D3 JUMPI DUP1 PUSH4 0x24EB6BC EQ PUSH2 0x1EF JUMPI DUP1 PUSH4 0x3C3ABC4 EQ PUSH2 0x21F JUMPI JUMPDEST PUSH1 0x0 DUP1 REVERT JUMPDEST PUSH2 0x1ED PUSH1 0x4 DUP1 CALLDATASIZE SUB DUP2 ADD SWAP1 PUSH2 0x1E8 SWAP2 SWAP1 PUSH2 0x1DE5 JUMP JUMPDEST PUSH2 0x692 JUMP JUMPDEST STOP JUMPDEST PUSH2 0x209 PUSH1 0x4 DUP1 CALLDATASIZE SUB DUP2 ADD SWAP1 PUSH2 0x204 SWAP2 SWAP1 PUSH2 0x1CE2 JUMP JUMPDEST PUSH2 0x7ED JUMP JUMPDEST PUSH1 0x40 MLOAD PUSH2 0x216 SWAP2 SWAP1 PUSH2 0x2033 JUMP JUMPDEST PUSH1 0x40 MLOAD DUP1 SWAP2 SUB SWAP1 RETURN JUMPDEST PUSH2 0x227 PUSH2 0x846 JUMP JUMPDEST PUSH1 0x40 MLOAD PUSH2 0x234 SWAP2 SWAP1 PUSH2 0x2018 JUMP JUMPDEST PUSH1 0x40 MLOAD DUP1 SWAP2 SUB SWAP1 RETURN JUMPDEST PUSH2 0x257 PUSH1 0x4 DUP1 CALLDATASIZE SUB DUP2 ADD SWAP1 PUSH2 0x252 SWAP2 SWAP1 PUSH2 0x1CE2 JUMP JUMPDEST PUSH2 0x86F JUMP JUMPDEST PUSH1 0x40 MLOAD PUSH2 0x264 SWAP2 SWAP1 PUSH2 0x2033 JUMP JUMPDEST PUSH1 0x40 MLOAD DUP1 SWAP2 SUB SWAP1 RETURN JUMPDEST PUSH2 0x287 PUSH1 0x4 DUP1 CALLDATASIZE SUB DUP2 ADD SWAP1 PUSH2 0x282 SWAP2 SWAP1 PUSH2 0x1DE5 JUMP JUMPDEST PUSH2 0x8C9 JUMP JUMPDEST STOP JUMPDEST PUSH2 0x2A3 PUSH1 0x4 DUP1 CALLDATASIZE SUB DUP2 ADD SWAP1 PUSH2 0x29E SWAP2 SWAP1 PUSH2 0x1CE2 JUMP JUMPDEST PUSH2 0xA24 JUMP JUMPDEST PUSH1 0x40 MLOAD PUSH2 0x2B2 SWAP4 SWAP3 SWAP2 SWAP1 PUSH2 0x20BD JUMP JUMPDEST PUSH1 0x40 MLOAD DUP1 SWAP2 SUB SWAP1 RETURN JUMPDEST PUSH2 0x2D5 PUSH1 0x4 DUP1 CALLDATASIZE SUB DUP2 ADD SWAP1 PUSH2 0x2D0 SWAP2 SWAP1 PUSH2 0x1CE2 JUMP JUMPDEST PUSH2 0xAF0 JUMP JUMPDEST PUSH1 0x40 MLOAD PUSH2 0x2E4 SWAP4 SWAP3 SWAP2 SWAP1 PUSH2 0x20BD JUMP JUMPDEST PUSH1 0x40 MLOAD DUP1 SWAP2 SUB SWAP1 RETURN JUMPDEST PUSH2 0x307 PUSH1 0x4 DUP1 CALLDATASIZE SUB DUP2 ADD SWAP1 PUSH2 0x302 SWAP2 SWAP1 PUSH2 0x1CE2 JUMP JUMPDEST PUSH2 0xBBC JUMP JUMPDEST PUSH1 0x40 MLOAD PUSH2 0x314 SWAP2 SWAP1 PUSH2 0x2033 JUMP JUMPDEST PUSH1 0x40 MLOAD DUP1 SWAP2 SUB SWAP1 RETURN JUMPDEST PUSH2 0x337 PUSH1 0x4 DUP1 CALLDATASIZE SUB DUP2 ADD SWAP1 PUSH2 0x332 SWAP2 SWAP1 PUSH2 0x1CE2 JUMP JUMPDEST PUSH2 0xC15 JUMP JUMPDEST PUSH1 0x40 MLOAD PUSH2 0x346 SWAP4 SWAP3 SWAP2 SWAP1 PUSH2 0x20BD JUMP JUMPDEST PUSH1 0x40 MLOAD DUP1 SWAP2 SUB SWAP1 RETURN JUMPDEST PUSH2 0x369 PUSH1 0x4 DUP1 CALLDATASIZE SUB DUP2 ADD SWAP1 PUSH2 0x364 SWAP2 SWAP1 PUSH2 0x1D0F JUMP JUMPDEST PUSH2 0xCE1 JUMP JUMPDEST STOP JUMPDEST PUSH2 0x385 PUSH1 0x4 DUP1 CALLDATASIZE SUB DUP2 ADD SWAP1 PUSH2 0x380 SWAP2 SWAP1 PUSH2 0x1CE2 JUMP JUMPDEST PUSH2 0xDA8 JUMP JUMPDEST PUSH1 0x40 MLOAD PUSH2 0x395 SWAP5 SWAP4 SWAP3 SWAP2 SWAP1 PUSH2 0x20FB JUMP JUMPDEST PUSH1 0x40 MLOAD DUP1 SWAP2 SUB SWAP1 RETURN JUMPDEST PUSH2 0x3B8 PUSH1 0x4 DUP1 CALLDATASIZE SUB DUP2 ADD SWAP1 PUSH2 0x3B3 SWAP2 SWAP1 PUSH2 0x1DE5 JUMP JUMPDEST PUSH2 0xE7A JUMP JUMPDEST STOP JUMPDEST PUSH2 0x3D4 PUSH1 0x4 DUP1 CALLDATASIZE SUB DUP2 ADD SWAP1 PUSH2 0x3CF SWAP2 SWAP1 PUSH2 0x1CE2 JUMP JUMPDEST PUSH2 0xFD5 JUMP JUMPDEST PUSH1 0x40 MLOAD PUSH2 0x3E1 SWAP2 SWAP1 PUSH2 0x2033 JUMP JUMPDEST PUSH1 0x40 MLOAD DUP1 SWAP2 SUB SWAP1 RETURN JUMPDEST PUSH2 0x3F2 PUSH2 0x102E JUMP JUMPDEST PUSH1 0x40 MLOAD PUSH2 0x3FF SWAP2 SWAP1 PUSH2 0x2018 JUMP JUMPDEST PUSH1 0x40 MLOAD DUP1 SWAP2 SUB SWAP1 RETURN JUMPDEST PUSH2 0x422 PUSH1 0x4 DUP1 CALLDATASIZE SUB DUP2 ADD SWAP1 PUSH2 0x41D SWAP2 SWAP1 PUSH2 0x1CE2 JUMP JUMPDEST PUSH2 0x1052 JUMP JUMPDEST PUSH1 0x40 MLOAD PUSH2 0x431 SWAP4 SWAP3 SWAP2 SWAP1 PUSH2 0x20BD JUMP JUMPDEST PUSH1 0x40 MLOAD DUP1 SWAP2 SUB SWAP1 RETURN JUMPDEST PUSH2 0x454 PUSH1 0x4 DUP1 CALLDATASIZE SUB DUP2 ADD SWAP1 PUSH2 0x44F SWAP2 SWAP1 PUSH2 0x1CE2 JUMP JUMPDEST PUSH2 0x111E JUMP JUMPDEST PUSH1 0x40 MLOAD PUSH2 0x461 SWAP2 SWAP1 PUSH2 0x2033 JUMP JUMPDEST PUSH1 0x40 MLOAD DUP1 SWAP2 SUB SWAP1 RETURN JUMPDEST PUSH2 0x484 PUSH1 0x4 DUP1 CALLDATASIZE SUB DUP2 ADD SWAP1 PUSH2 0x47F SWAP2 SWAP1 PUSH2 0x1CE2 JUMP JUMPDEST PUSH2 0x1177 JUMP JUMPDEST PUSH1 0x40 MLOAD PUSH2 0x493 SWAP4 SWAP3 SWAP2 SWAP1 PUSH2 0x20BD JUMP JUMPDEST PUSH1 0x40 MLOAD DUP1 SWAP2 SUB SWAP1 RETURN JUMPDEST PUSH2 0x4B6 PUSH1 0x4 DUP1 CALLDATASIZE SUB DUP2 ADD SWAP1 PUSH2 0x4B1 SWAP2 SWAP1 PUSH2 0x1DE5 JUMP JUMPDEST PUSH2 0x1243 JUMP JUMPDEST STOP JUMPDEST PUSH2 0x4D2 PUSH1 0x4 DUP1 CALLDATASIZE SUB DUP2 ADD SWAP1 PUSH2 0x4CD SWAP2 SWAP1 PUSH2 0x1E54 JUMP JUMPDEST PUSH2 0x139E JUMP JUMPDEST PUSH1 0x40 MLOAD PUSH2 0x4E0 SWAP3 SWAP2 SWAP1 PUSH2 0x2227 JUMP JUMPDEST PUSH1 0x40 MLOAD DUP1 SWAP2 SUB SWAP1 RETURN JUMPDEST PUSH2 0x503 PUSH1 0x4 DUP1 CALLDATASIZE SUB DUP2 ADD SWAP1 PUSH2 0x4FE SWAP2 SWAP1 PUSH2 0x1CE2 JUMP JUMPDEST PUSH2 0x145A JUMP JUMPDEST PUSH1 0x40 MLOAD PUSH2 0x510 SWAP2 SWAP1 PUSH2 0x2033 JUMP JUMPDEST PUSH1 0x40 MLOAD DUP1 SWAP2 SUB SWAP1 RETURN JUMPDEST PUSH2 0x533 PUSH1 0x4 DUP1 CALLDATASIZE SUB DUP2 ADD SWAP1 PUSH2 0x52E SWAP2 SWAP1 PUSH2 0x1CE2 JUMP JUMPDEST PUSH2 0x14B3 JUMP JUMPDEST PUSH1 0x40 MLOAD PUSH2 0x545 SWAP7 SWAP6 SWAP5 SWAP4 SWAP3 SWAP2 SWAP1 PUSH2 0x204E JUMP JUMPDEST PUSH1 0x40 MLOAD DUP1 SWAP2 SUB SWAP1 RETURN JUMPDEST PUSH2 0x568 PUSH1 0x4 DUP1 CALLDATASIZE SUB DUP2 ADD SWAP1 PUSH2 0x563 SWAP2 SWAP1 PUSH2 0x1CE2 JUMP JUMPDEST PUSH2 0x1647 JUMP JUMPDEST PUSH1 0x40 MLOAD PUSH2 0x575 SWAP2 SWAP1 PUSH2 0x2033 JUMP JUMPDEST PUSH1 0x40 MLOAD DUP1 SWAP2 SUB SWAP1 RETURN JUMPDEST PUSH2 0x598 PUSH1 0x4 DUP1 CALLDATASIZE SUB DUP2 ADD SWAP1 PUSH2 0x593 SWAP2 SWAP1 PUSH2 0x1D62 JUMP JUMPDEST PUSH2 0x1672 JUMP JUMPDEST STOP JUMPDEST PUSH2 0x5B4 PUSH1 0x4 DUP1 CALLDATASIZE SUB DUP2 ADD SWAP1 PUSH2 0x5AF SWAP2 SWAP1 PUSH2 0x1CE2 JUMP JUMPDEST PUSH2 0x1815 JUMP JUMPDEST PUSH1 0x40 MLOAD PUSH2 0x5C1 SWAP2 SWAP1 PUSH2 0x2033 JUMP JUMPDEST PUSH1 0x40 MLOAD DUP1 SWAP2 SUB SWAP1 RETURN JUMPDEST PUSH2 0x5E4 PUSH1 0x4 DUP1 CALLDATASIZE SUB DUP2 ADD SWAP1 PUSH2 0x5DF SWAP2 SWAP1 PUSH2 0x1CE2 JUMP JUMPDEST PUSH2 0x186D JUMP JUMPDEST PUSH1 0x40 MLOAD PUSH2 0x5F1 SWAP2 SWAP1 PUSH2 0x2033 JUMP JUMPDEST PUSH1 0x40 MLOAD DUP1 SWAP2 SUB SWAP1 RETURN JUMPDEST PUSH2 0x614 PUSH1 0x4 DUP1 CALLDATASIZE SUB DUP2 ADD SWAP1 PUSH2 0x60F SWAP2 SWAP1 PUSH2 0x1CE2 JUMP JUMPDEST PUSH2 0x18C6 JUMP JUMPDEST PUSH1 0x40 MLOAD PUSH2 0x621 SWAP2 SWAP1 PUSH2 0x2033 JUMP JUMPDEST PUSH1 0x40 MLOAD DUP1 SWAP2 SUB SWAP1 RETURN JUMPDEST PUSH2 0x644 PUSH1 0x4 DUP1 CALLDATASIZE SUB DUP2 ADD SWAP1 PUSH2 0x63F SWAP2 SWAP1 PUSH2 0x1CE2 JUMP JUMPDEST PUSH2 0x1920 JUMP JUMPDEST PUSH1 0x40 MLOAD PUSH2 0x651 SWAP2 SWAP1 PUSH2 0x2033 JUMP JUMPDEST PUSH1 0x40 MLOAD DUP1 SWAP2 SUB SWAP1 RETURN JUMPDEST PUSH2 0x674 PUSH1 0x4 DUP1 CALLDATASIZE SUB DUP2 ADD SWAP1 PUSH2 0x66F SWAP2 SWAP1 PUSH2 0x1CE2 JUMP JUMPDEST PUSH2 0x1979 JUMP JUMPDEST STOP JUMPDEST PUSH2 0x690 PUSH1 0x4 DUP1 CALLDATASIZE SUB DUP2 ADD SWAP1 PUSH2 0x68B SWAP2 SWAP1 PUSH2 0x1DE5 JUMP JUMPDEST PUSH2 0x1A20 JUMP JUMPDEST STOP JUMPDEST PUSH2 0x69B DUP4 PUSH2 0x1920 JUMP JUMPDEST ISZERO PUSH2 0x6DB JUMPI PUSH1 0x40 MLOAD PUSH32 0x8C379A000000000000000000000000000000000000000000000000000000000 DUP2 MSTORE PUSH1 0x4 ADD PUSH2 0x6D2 SWAP1 PUSH2 0x21C7 JUMP JUMPDEST PUSH1 0x40 MLOAD DUP1 SWAP2 SUB SWAP1 REVERT JUMPDEST PUSH1 0x1 PUSH1 0x4 PUSH1 0x0 DUP6 PUSH20 0xFFFFFFFFFFFFFFFFFFFFFFFFFFFFFFFFFFFFFFFF AND PUSH20 0xFFFFFFFFFFFFFFFFFFFFFFFFFFFFFFFFFFFFFFFF AND DUP2 MSTORE PUSH1 0x20 ADD SWAP1 DUP2 MSTORE PUSH1 0x20 ADD PUSH1 0x0 KECCAK256 PUSH1 0x0 ADD PUSH1 0x0 PUSH2 0x100 EXP DUP2 SLOAD DUP2 PUSH1 0xFF MUL NOT AND SWAP1 DUP4 ISZERO ISZERO MUL OR SWAP1 SSTORE POP DUP2 PUSH1 0x4 PUSH1 0x0 DUP6 PUSH20 0xFFFFFFFFFFFFFFFFFFFFFFFFFFFFFFFFFFFFFFFF AND PUSH20 0xFFFFFFFFFFFFFFFFFFFFFFFFFFFFFFFFFFFFFFFF AND DUP2 MSTORE PUSH1 0x20 ADD SWAP1 DUP2 MSTORE PUSH1 0x20 ADD PUSH1 0x0 KECCAK256 PUSH1 0x1 ADD SWAP1 DUP1 MLOAD SWAP1 PUSH1 0x20 ADD SWAP1 PUSH2 0x78C SWAP3 SWAP2 SWAP1 PUSH2 0x1B7B JUMP JUMPDEST POP DUP1 PUSH1 0x4 PUSH1 0x0 DUP6 PUSH20 0xFFFFFFFFFFFFFFFFFFFFFFFFFFFFFFFFFFFFFFFF AND PUSH20 0xFFFFFFFFFFFFFFFFFFFFFFFFFFFFFFFFFFFFFFFF AND DUP2 MSTORE PUSH1 0x20 ADD SWAP1 DUP2 MSTORE PUSH1 0x20 ADD PUSH1 0x0 KECCAK256 PUSH1 0x2 ADD PUSH1 0x0 PUSH2 0x100 EXP DUP2 SLOAD DUP2 PUSH1 0xFF MUL NOT AND SWAP1 DUP4 PUSH1 0xFF AND MUL OR SWAP1 SSTORE POP POP POP POP JUMP JUMPDEST PUSH1 0x0 PUSH1 0x7 PUSH1 0x0 DUP4 PUSH20 0xFFFFFFFFFFFFFFFFFFFFFFFFFFFFFFFFFFFFFFFF AND PUSH20 0xFFFFFFFFFFFFFFFFFFFFFFFFFFFFFFFFFFFFFFFF AND DUP2 MSTORE PUSH1 0x20 ADD SWAP1 DUP2 MSTORE PUSH1 0x20 ADD PUSH1 0x0 KECCAK256 PUSH1 0x0 ADD PUSH1 0x0 SWAP1 SLOAD SWAP1 PUSH2 0x100 EXP SWAP1 DIV PUSH1 0xFF AND SWAP1 POP SWAP2 SWAP1 POP JUMP JUMPDEST PUSH1 0x0 DUP1 PUSH1 0x0 SWAP1 SLOAD SWAP1 PUSH2 0x100 EXP SWAP1 DIV PUSH20 0xFFFFFFFFFFFFFFFFFFFFFFFFFFFFFFFFFFFFFFFF AND SWAP1 POP SWAP1 JUMP JUMPDEST PUSH1 0x0 DUP2 PUSH20 0xFFFFFFFFFFFFFFFFFFFFFFFFFFFFFFFFFFFFFFFF AND PUSH1 0x1 PUSH1 0x0 SWAP1 SLOAD SWAP1 PUSH2 0x100 EXP SWAP1 DIV PUSH20 0xFFFFFFFFFFFFFFFFFFFFFFFFFFFFFFFFFFFFFFFF AND PUSH20 0xFFFFFFFFFFFFFFFFFFFFFFFFFFFFFFFFFFFFFFFF AND EQ SWAP1 POP SWAP2 SWAP1 POP JUMP JUMPDEST PUSH2 0x8D2 DUP4 PUSH2 0x111E JUMP JUMPDEST ISZERO PUSH2 0x912 JUMPI PUSH1 0x40 MLOAD PUSH32 0x8C379A000000000000000000000000000000000000000000000000000000000 DUP2 MSTORE PUSH1 0x4 ADD PUSH2 0x909 SWAP1 PUSH2 0x21A7 JUMP JUMPDEST PUSH1 0x40 MLOAD DUP1 SWAP2 SUB SWAP1 REVERT JUMPDEST PUSH1 0x1 PUSH1 0x9 PUSH1 0x0 DUP6 PUSH20 0xFFFFFFFFFFFFFFFFFFFFFFFFFFFFFFFFFFFFFFFF AND PUSH20 0xFFFFFFFFFFFFFFFFFFFFFFFFFFFFFFFFFFFFFFFF AND DUP2 MSTORE PUSH1 0x20 ADD SWAP1 DUP2 MSTORE PUSH1 0x20 ADD PUSH1 0x0 KECCAK256 PUSH1 0x0 ADD PUSH1 0x0 PUSH2 0x100 EXP DUP2 SLOAD DUP2 PUSH1 0xFF MUL NOT AND SWAP1 DUP4 ISZERO ISZERO MUL OR SWAP1 SSTORE POP DUP2 PUSH1 0x9 PUSH1 0x0 DUP6 PUSH20 0xFFFFFFFFFFFFFFFFFFFFFFFFFFFFFFFFFFFFFFFF AND PUSH20 0xFFFFFFFFFFFFFFFFFFFFFFFFFFFFFFFFFFFFFFFF AND DUP2 MSTORE PUSH1 0x20 ADD SWAP1 DUP2 MSTORE PUSH1 0x20 ADD PUSH1 0x0 KECCAK256 PUSH1 0x1 ADD SWAP1 DUP1 MLOAD SWAP1 PUSH1 0x20 ADD SWAP1 PUSH2 0x9C3 SWAP3 SWAP2 SWAP1 PUSH2 0x1B7B JUMP JUMPDEST POP DUP1 PUSH1 0x9 PUSH1 0x0 DUP6 PUSH20 0xFFFFFFFFFFFFFFFFFFFFFFFFFFFFFFFFFFFFFFFF AND PUSH20 0xFFFFFFFFFFFFFFFFFFFFFFFFFFFFFFFFFFFFFFFF AND DUP2 MSTORE PUSH1 0x20 ADD SWAP1 DUP2 MSTORE PUSH1 0x20 ADD PUSH1 0x0 KECCAK256 PUSH1 0x2 ADD PUSH1 0x0 PUSH2 0x100 EXP DUP2 SLOAD DUP2 PUSH1 0xFF MUL NOT AND SWAP1 DUP4 PUSH1 0xFF AND MUL OR SWAP1 SSTORE POP POP POP POP JUMP JUMPDEST PUSH1 0x7 PUSH1 0x20 MSTORE DUP1 PUSH1 0x0 MSTORE PUSH1 0x40 PUSH1 0x0 KECCAK256 PUSH1 0x0 SWAP2 POP SWAP1 POP DUP1 PUSH1 0x0 ADD PUSH1 0x0 SWAP1 SLOAD SWAP1 PUSH2 0x100 EXP SWAP1 DIV PUSH1 0xFF AND SWAP1 DUP1 PUSH1 0x1 ADD DUP1 SLOAD PUSH2 0xA5A SWAP1 PUSH2 0x23A3 JUMP JUMPDEST DUP1 PUSH1 0x1F ADD PUSH1 0x20 DUP1 SWAP2 DIV MUL PUSH1 0x20 ADD PUSH1 0x40 MLOAD SWAP1 DUP2 ADD PUSH1 0x40 MSTORE DUP1 SWAP3 SWAP2 SWAP1 DUP2 DUP2 MSTORE PUSH1 0x20 ADD DUP3 DUP1 SLOAD PUSH2 0xA86 SWAP1 PUSH2 0x23A3 JUMP JUMPDEST DUP1 ISZERO PUSH2 0xAD3 JUMPI DUP1 PUSH1 0x1F LT PUSH2 0xAA8 JUMPI PUSH2 0x100 DUP1 DUP4 SLOAD DIV MUL DUP4 MSTORE SWAP2 PUSH1 0x20 ADD SWAP2 PUSH2 0xAD3 JUMP JUMPDEST DUP3 ADD SWAP2 SWAP1 PUSH1 0x0 MSTORE PUSH1 0x20 PUSH1 0x0 KECCAK256 SWAP1 JUMPDEST DUP2 SLOAD DUP2 MSTORE SWAP1 PUSH1 0x1 ADD SWAP1 PUSH1 0x20 ADD DUP1 DUP4 GT PUSH2 0xAB6 JUMPI DUP3 SWAP1 SUB PUSH1 0x1F AND DUP3 ADD SWAP2 JUMPDEST POP POP POP POP POP SWAP1 DUP1 PUSH1 0x2 ADD PUSH1 0x0 SWAP1 SLOAD SWAP1 PUSH2 0x100 EXP SWAP1 DIV PUSH1 0xFF AND SWAP1 POP DUP4 JUMP JUMPDEST PUSH1 0x4 PUSH1 0x20 MSTORE DUP1 PUSH1 0x0 MSTORE PUSH1 0x40 PUSH1 0x0 KECCAK256 PUSH1 0x0 SWAP2 POP SWAP1 POP DUP1 PUSH1 0x0 ADD PUSH1 0x0 SWAP1 SLOAD SWAP1 PUSH2 0x100 EXP SWAP1 DIV PUSH1 0xFF AND SWAP1 DUP1 PUSH1 0x1 ADD DUP1 SLOAD PUSH2 0xB26 SWAP1 PUSH2 0x23A3 JUMP JUMPDEST DUP1 PUSH1 0x1F ADD PUSH1 0x20 DUP1 SWAP2 DIV MUL PUSH1 0x20 ADD PUSH1 0x40 MLOAD SWAP1 DUP2 ADD PUSH1 0x40 MSTORE DUP1 SWAP3 SWAP2 SWAP1 DUP2 DUP2 MSTORE PUSH1 0x20 ADD DUP3 DUP1 SLOAD PUSH2 0xB52 SWAP1 PUSH2 0x23A3 JUMP JUMPDEST DUP1 ISZERO PUSH2 0xB9F JUMPI DUP1 PUSH1 0x1F LT PUSH2 0xB74 JUMPI PUSH2 0x100 DUP1 DUP4 SLOAD DIV MUL DUP4 MSTORE SWAP2 PUSH1 0x20 ADD SWAP2 PUSH2 0xB9F JUMP JUMPDEST DUP3 ADD SWAP2 SWAP1 PUSH1 0x0 MSTORE PUSH1 0x20 PUSH1 0x0 KECCAK256 SWAP1 JUMPDEST DUP2 SLOAD DUP2 MSTORE SWAP1 PUSH1 0x1 ADD SWAP1 PUSH1 0x20 ADD DUP1 DUP4 GT PUSH2 0xB82 JUMPI DUP3 SWAP1 SUB PUSH1 0x1F AND DUP3 ADD SWAP2 JUMPDEST POP POP POP POP POP SWAP1 DUP1 PUSH1 0x2 ADD PUSH1 0x0 SWAP1 SLOAD SWAP1 PUSH2 0x100 EXP SWAP1 DIV PUSH1 0xFF AND SWAP1 POP DUP4 JUMP JUMPDEST PUSH1 0x0 PUSH1 0x6 PUSH1 0x0 DUP4 PUSH20 0xFFFFFFFFFFFFFFFFFFFFFFFFFFFFFFFFFFFFFFFF AND PUSH20 0xFFFFFFFFFFFFFFFFFFFFFFFFFFFFFFFFFFFFFFFF AND DUP2 MSTORE PUSH1 0x20 ADD SWAP1 DUP2 MSTORE PUSH1 0x20 ADD PUSH1 0x0 KECCAK256 PUSH1 0x0 ADD PUSH1 0x0 SWAP1 SLOAD SWAP1 PUSH2 0x100 EXP SWAP1 DIV PUSH1 0xFF AND SWAP1 POP SWAP2 SWAP1 POP JUMP JUMPDEST PUSH1 0xA PUSH1 0x20 MSTORE DUP1 PUSH1 0x0 MSTORE PUSH1 0x40 PUSH1 0x0 KECCAK256 PUSH1 0x0 SWAP2 POP SWAP1 POP DUP1 PUSH1 0x0 ADD PUSH1 0x0 SWAP1 SLOAD SWAP1 PUSH2 0x100 EXP SWAP1 DIV PUSH1 0xFF AND SWAP1 DUP1 PUSH1 0x1 ADD DUP1 SLOAD PUSH2 0xC4B SWAP1 PUSH2 0x23A3 JUMP JUMPDEST DUP1 PUSH1 0x1F ADD PUSH1 0x20 DUP1 SWAP2 DIV MUL PUSH1 0x20 ADD PUSH1 0x40 MLOAD SWAP1 DUP2 ADD PUSH1 0x40 MSTORE DUP1 SWAP3 SWAP2 SWAP1 DUP2 DUP2 MSTORE PUSH1 0x20 ADD DUP3 DUP1 SLOAD PUSH2 0xC77 SWAP1 PUSH2 0x23A3 JUMP JUMPDEST DUP1 ISZERO PUSH2 0xCC4 JUMPI DUP1 PUSH1 0x1F LT PUSH2 0xC99 JUMPI PUSH2 0x100 DUP1 DUP4 SLOAD DIV MUL DUP4 MSTORE SWAP2 PUSH1 0x20 ADD SWAP2 PUSH2 0xCC4 JUMP JUMPDEST DUP3 ADD SWAP2 SWAP1 PUSH1 0x0 MSTORE PUSH1 0x20 PUSH1 0x0 KECCAK256 SWAP1 JUMPDEST DUP2 SLOAD DUP2 MSTORE SWAP1 PUSH1 0x1 ADD SWAP1 PUSH1 0x20 ADD DUP1 DUP4 GT PUSH2 0xCA7 JUMPI DUP3 SWAP1 SUB PUSH1 0x1F AND DUP3 ADD SWAP2 JUMPDEST POP POP POP POP POP SWAP1 DUP1 PUSH1 0x2 ADD PUSH1 0x0 SWAP1 SLOAD SWAP1 PUSH2 0x100 EXP SWAP1 DIV PUSH1 0xFF AND SWAP1 POP DUP4 JUMP JUMPDEST DUP3 PUSH1 0x0 DUP1 PUSH2 0x100 EXP DUP2 SLOAD DUP2 PUSH20 0xFFFFFFFFFFFFFFFFFFFFFFFFFFFFFFFFFFFFFFFF MUL NOT AND SWAP1 DUP4 PUSH20 0xFFFFFFFFFFFFFFFFFFFFFFFFFFFFFFFFFFFFFFFF AND MUL OR SWAP1 SSTORE POP DUP2 PUSH1 0x1 PUSH1 0x0 PUSH2 0x100 EXP DUP2 SLOAD DUP2 PUSH20 0xFFFFFFFFFFFFFFFFFFFFFFFFFFFFFFFFFFFFFFFF MUL NOT AND SWAP1 DUP4 PUSH20 0xFFFFFFFFFFFFFFFFFFFFFFFFFFFFFFFFFFFFFFFF AND MUL OR SWAP1 SSTORE POP DUP1 PUSH1 0x2 PUSH1 0x0 PUSH2 0x100 EXP DUP2 SLOAD DUP2 PUSH20 0xFFFFFFFFFFFFFFFFFFFFFFFFFFFFFFFFFFFFFFFF MUL NOT AND SWAP1 DUP4 PUSH20 0xFFFFFFFFFFFFFFFFFFFFFFFFFFFFFFFFFFFFFFFF AND MUL OR SWAP1 SSTORE POP POP POP POP JUMP JUMPDEST PUSH1 0x6 PUSH1 0x20 MSTORE DUP1 PUSH1 0x0 MSTORE PUSH1 0x40 PUSH1 0x0 KECCAK256 PUSH1 0x0 SWAP2 POP SWAP1 POP DUP1 PUSH1 0x0 ADD PUSH1 0x0 SWAP1 SLOAD SWAP1 PUSH2 0x100 EXP SWAP1 DIV PUSH1 0xFF AND SWAP1 DUP1 PUSH1 0x0 ADD PUSH1 0x1 SWAP1 SLOAD SWAP1 PUSH2 0x100 EXP SWAP1 DIV PUSH1 0xFF AND SWAP1 DUP1 PUSH1 0x1 ADD SLOAD SWAP1 DUP1 PUSH1 0x2 ADD DUP1 SLOAD PUSH2 0xDF7 SWAP1 PUSH2 0x23A3 JUMP JUMPDEST DUP1 PUSH1 0x1F ADD PUSH1 0x20 DUP1 SWAP2 DIV MUL PUSH1 0x20 ADD PUSH1 0x40 MLOAD SWAP1 DUP2 ADD PUSH1 0x40 MSTORE DUP1 SWAP3 SWAP2 SWAP1 DUP2 DUP2 MSTORE PUSH1 0x20 ADD DUP3 DUP1 SLOAD PUSH2 0xE23 SWAP1 PUSH2 0x23A3 JUMP JUMPDEST DUP1 ISZERO PUSH2 0xE70 JUMPI DUP1 PUSH1 0x1F LT PUSH2 0xE45 JUMPI PUSH2 0x100 DUP1 DUP4 SLOAD DIV MUL DUP4 MSTORE SWAP2 PUSH1 0x20 ADD SWAP2 PUSH2 0xE70 JUMP JUMPDEST DUP3 ADD SWAP2 SWAP1 PUSH1 0x0 MSTORE PUSH1 0x20 PUSH1 0x0 KECCAK256 SWAP1 JUMPDEST DUP2 SLOAD DUP2 MSTORE SWAP1 PUSH1 0x1 ADD SWAP1 PUSH1 0x20 ADD DUP1 DUP4 GT PUSH2 0xE53 JUMPI DUP3 SWAP1 SUB PUSH1 0x1F AND DUP3 ADD SWAP2 JUMPDEST POP POP POP POP POP SWAP1 POP DUP5 JUMP JUMPDEST PUSH2 0xE83 DUP4 PUSH2 0x7ED JUMP JUMPDEST ISZERO PUSH2 0xEC3 JUMPI PUSH1 0x40 MLOAD PUSH32 0x8C379A000000000000000000000000000000000000000000000000000000000 DUP2 MSTORE PUSH1 0x4 ADD PUSH2 0xEBA SWAP1 PUSH2 0x2147 JUMP JUMPDEST PUSH1 0x40 MLOAD DUP1 SWAP2 SUB SWAP1 REVERT JUMPDEST PUSH1 0x1 PUSH1 0x7 PUSH1 0x0 DUP6 PUSH20 0xFFFFFFFFFFFFFFFFFFFFFFFFFFFFFFFFFFFFFFFF AND PUSH20 0xFFFFFFFFFFFFFFFFFFFFFFFFFFFFFFFFFFFFFFFF AND DUP2 MSTORE PUSH1 0x20 ADD SWAP1 DUP2 MSTORE PUSH1 0x20 ADD PUSH1 0x0 KECCAK256 PUSH1 0x0 ADD PUSH1 0x0 PUSH2 0x100 EXP DUP2 SLOAD DUP2 PUSH1 0xFF MUL NOT AND SWAP1 DUP4 ISZERO ISZERO MUL OR SWAP1 SSTORE POP DUP2 PUSH1 0x7 PUSH1 0x0 DUP6 PUSH20 0xFFFFFFFFFFFFFFFFFFFFFFFFFFFFFFFFFFFFFFFF AND PUSH20 0xFFFFFFFFFFFFFFFFFFFFFFFFFFFFFFFFFFFFFFFF AND DUP2 MSTORE PUSH1 0x20 ADD SWAP1 DUP2 MSTORE PUSH1 0x20 ADD PUSH1 0x0 KECCAK256 PUSH1 0x1 ADD SWAP1 DUP1 MLOAD SWAP1 PUSH1 0x20 ADD SWAP1 PUSH2 0xF74 SWAP3 SWAP2 SWAP1 PUSH2 0x1B7B JUMP JUMPDEST POP DUP1 PUSH1 0x7 PUSH1 0x0 DUP6 PUSH20 0xFFFFFFFFFFFFFFFFFFFFFFFFFFFFFFFFFFFFFFFF AND PUSH20 0xFFFFFFFFFFFFFFFFFFFFFFFFFFFFFFFFFFFFFFFF AND DUP2 MSTORE PUSH1 0x20 ADD SWAP1 DUP2 MSTORE PUSH1 0x20 ADD PUSH1 0x0 KECCAK256 PUSH1 0x2 ADD PUSH1 0x0 PUSH2 0x100 EXP DUP2 SLOAD DUP2 PUSH1 0xFF MUL NOT AND SWAP1 DUP4 PUSH1 0xFF AND MUL OR SWAP1 SSTORE POP POP POP POP JUMP JUMPDEST PUSH1 0x0 PUSH1 0x8 PUSH1 0x0 DUP4 PUSH20 0xFFFFFFFFFFFFFFFFFFFFFFFFFFFFFFFFFFFFFFFF AND PUSH20 0xFFFFFFFFFFFFFFFFFFFFFFFFFFFFFFFFFFFFFFFF AND DUP2 MSTORE PUSH1 0x20 ADD SWAP1 DUP2 MSTORE PUSH1 0x20 ADD PUSH1 0x0 KECCAK256 PUSH1 0x0 ADD PUSH1 0x0 SWAP1 SLOAD SWAP1 PUSH2 0x100 EXP SWAP1 DIV PUSH1 0xFF AND SWAP1 POP SWAP2 SWAP1 POP JUMP JUMPDEST PUSH1 0x0 DUP1 SLOAD SWAP1 PUSH2 0x100 EXP SWAP1 DIV PUSH20 0xFFFFFFFFFFFFFFFFFFFFFFFFFFFFFFFFFFFFFFFF AND DUP2 JUMP JUMPDEST PUSH1 0x8 PUSH1 0x20 MSTORE DUP1 PUSH1 0x0 MSTORE PUSH1 0x40 PUSH1 0x0 KECCAK256 PUSH1 0x0 SWAP2 POP SWAP1 POP DUP1 PUSH1 0x0 ADD PUSH1 0x0 SWAP1 SLOAD SWAP1 PUSH2 0x100 EXP SWAP1 DIV PUSH1 0xFF AND SWAP1 DUP1 PUSH1 0x1 ADD DUP1 SLOAD PUSH2 0x1088 SWAP1 PUSH2 0x23A3 JUMP JUMPDEST DUP1 PUSH1 0x1F ADD PUSH1 0x20 DUP1 SWAP2 DIV MUL PUSH1 0x20 ADD PUSH1 0x40 MLOAD SWAP1 DUP2 ADD PUSH1 0x40 MSTORE DUP1 SWAP3 SWAP2 SWAP1 DUP2 DUP2 MSTORE PUSH1 0x20 ADD DUP3 DUP1 SLOAD PUSH2 0x10B4 SWAP1 PUSH2 0x23A3 JUMP JUMPDEST DUP1 ISZERO PUSH2 0x1101 JUMPI DUP1 PUSH1 0x1F LT PUSH2 0x10D6 JUMPI PUSH2 0x100 DUP1 DUP4 SLOAD DIV MUL DUP4 MSTORE SWAP2 PUSH1 0x20 ADD SWAP2 PUSH2 0x1101 JUMP JUMPDEST DUP3 ADD SWAP2 SWAP1 PUSH1 0x0 MSTORE PUSH1 0x20 PUSH1 0x0 KECCAK256 SWAP1 JUMPDEST DUP2 SLOAD DUP2 MSTORE SWAP1 PUSH1 0x1 ADD SWAP1 PUSH1 0x20 ADD DUP1 DUP4 GT PUSH2 0x10E4 JUMPI DUP3 SWAP1 SUB PUSH1 0x1F AND DUP3 ADD SWAP2 JUMPDEST POP POP POP POP POP SWAP1 DUP1 PUSH1 0x2 ADD PUSH1 0x0 SWAP1 SLOAD SWAP1 PUSH2 0x100 EXP SWAP1 DIV PUSH1 0xFF AND SWAP1 POP DUP4 JUMP JUMPDEST PUSH1 0x0 PUSH1 0x9 PUSH1 0x0 DUP4 PUSH20 0xFFFFFFFFFFFFFFFFFFFFFFFFFFFFFFFFFFFFFFFF AND PUSH20 0xFFFFFFFFFFFFFFFFFFFFFFFFFFFFFFFFFFFFFFFF AND DUP2 MSTORE PUSH1 0x20 ADD SWAP1 DUP2 MSTORE PUSH1 0x20 ADD PUSH1 0x0 KECCAK256 PUSH1 0x0 ADD PUSH1 0x0 SWAP1 SLOAD SWAP1 PUSH2 0x100 EXP SWAP1 DIV PUSH1 0xFF AND SWAP1 POP SWAP2 SWAP1 POP JUMP JUMPDEST PUSH1 0x9 PUSH1 0x20 MSTORE DUP1 PUSH1 0x0 MSTORE PUSH1 0x40 PUSH1 0x0 KECCAK256 PUSH1 0x0 SWAP2 POP SWAP1 POP DUP1 PUSH1 0x0 ADD PUSH1 0x0 SWAP1 SLOAD SWAP1 PUSH2 0x100 EXP SWAP1 DIV PUSH1 0xFF AND SWAP1 DUP1 PUSH1 0x1 ADD DUP1 SLOAD PUSH2 0x11AD SWAP1 PUSH2 0x23A3 JUMP JUMPDEST DUP1 PUSH1 0x1F ADD PUSH1 0x20 DUP1 SWAP2 DIV MUL PUSH1 0x20 ADD PUSH1 0x40 MLOAD SWAP1 DUP2 ADD PUSH1 0x40 MSTORE DUP1 SWAP3 SWAP2 SWAP1 DUP2 DUP2 MSTORE PUSH1 0x20 ADD DUP3 DUP1 SLOAD PUSH2 0x11D9 SWAP1 PUSH2 0x23A3 JUMP JUMPDEST DUP1 ISZERO PUSH2 0x1226 JUMPI DUP1 PUSH1 0x1F LT PUSH2 0x11FB JUMPI PUSH2 0x100 DUP1 DUP4 SLOAD DIV MUL DUP4 MSTORE SWAP2 PUSH1 0x20 ADD SWAP2 PUSH2 0x1226 JUMP JUMPDEST DUP3 ADD SWAP2 SWAP1 PUSH1 0x0 MSTORE PUSH1 0x20 PUSH1 0x0 KECCAK256 SWAP1 JUMPDEST DUP2 SLOAD DUP2 MSTORE SWAP1 PUSH1 0x1 ADD SWAP1 PUSH1 0x20 ADD DUP1 DUP4 GT PUSH2 0x1209 JUMPI DUP3 SWAP1 SUB PUSH1 0x1F AND DUP3 ADD SWAP2 JUMPDEST POP POP POP POP POP SWAP1 DUP1 PUSH1 0x2 ADD PUSH1 0x0 SWAP1 SLOAD SWAP1 PUSH2 0x100 EXP SWAP1 DIV PUSH1 0xFF AND SWAP1 POP DUP4 JUMP JUMPDEST PUSH2 0x124C DUP4 PUSH2 0x186D JUMP JUMPDEST ISZERO PUSH2 0x128C JUMPI PUSH1 0x40 MLOAD PUSH32 0x8C379A000000000000000000000000000000000000000000000000000000000 DUP2 MSTORE PUSH1 0x4 ADD PUSH2 0x1283 SWAP1 PUSH2 0x2187 JUMP JUMPDEST PUSH1 0x40 MLOAD DUP1 SWAP2 SUB SWAP1 REVERT JUMPDEST PUSH1 0x1 PUSH1 0xA PUSH1 0x0 DUP6 PUSH20 0xFFFFFFFFFFFFFFFFFFFFFFFFFFFFFFFFFFFFFFFF AND PUSH20 0xFFFFFFFFFFFFFFFFFFFFFFFFFFFFFFFFFFFFFFFF AND DUP2 MSTORE PUSH1 0x20 ADD SWAP1 DUP2 MSTORE PUSH1 0x20 ADD PUSH1 0x0 KECCAK256 PUSH1 0x0 ADD PUSH1 0x0 PUSH2 0x100 EXP DUP2 SLOAD DUP2 PUSH1 0xFF MUL NOT AND SWAP1 DUP4 ISZERO ISZERO MUL OR SWAP1 SSTORE POP DUP2 PUSH1 0xA PUSH1 0x0 DUP6 PUSH20 0xFFFFFFFFFFFFFFFFFFFFFFFFFFFFFFFFFFFFFFFF AND PUSH20 0xFFFFFFFFFFFFFFFFFFFFFFFFFFFFFFFFFFFFFFFF AND DUP2 MSTORE PUSH1 0x20 ADD SWAP1 DUP2 MSTORE PUSH1 0x20 ADD PUSH1 0x0 KECCAK256 PUSH1 0x1 ADD SWAP1 DUP1 MLOAD SWAP1 PUSH1 0x20 ADD SWAP1 PUSH2 0x133D SWAP3 SWAP2 SWAP1 PUSH2 0x1B7B JUMP JUMPDEST POP DUP1 PUSH1 0xA PUSH1 0x0 DUP6 PUSH20 0xFFFFFFFFFFFFFFFFFFFFFFFFFFFFFFFFFFFFFFFF AND PUSH20 0xFFFFFFFFFFFFFFFFFFFFFFFFFFFFFFFFFFFFFFFF AND DUP2 MSTORE PUSH1 0x20 ADD SWAP1 DUP2 MSTORE PUSH1 0x20 ADD PUSH1 0x0 KECCAK256 PUSH1 0x2 ADD PUSH1 0x0 PUSH2 0x100 EXP DUP2 SLOAD DUP2 PUSH1 0xFF MUL NOT AND SWAP1 DUP4 PUSH1 0xFF AND MUL OR SWAP1 SSTORE POP POP POP POP JUMP JUMPDEST PUSH1 0xB PUSH1 0x20 MSTORE DUP1 PUSH1 0x0 MSTORE PUSH1 0x40 PUSH1 0x0 KECCAK256 PUSH1 0x0 SWAP2 POP SWAP1 POP DUP1 PUSH1 0x0 ADD PUSH1 0x0 SWAP1 SLOAD SWAP1 PUSH2 0x100 EXP SWAP1 DIV PUSH4 0xFFFFFFFF AND SWAP1 DUP1 PUSH1 0x1 ADD DUP1 SLOAD PUSH2 0x13D7 SWAP1 PUSH2 0x23A3 JUMP JUMPDEST DUP1 PUSH1 0x1F ADD PUSH1 0x20 DUP1 SWAP2 DIV MUL PUSH1 0x20 ADD PUSH1 0x40 MLOAD SWAP1 DUP2 ADD PUSH1 0x40 MSTORE DUP1 SWAP3 SWAP2 SWAP1 DUP2 DUP2 MSTORE PUSH1 0x20 ADD DUP3 DUP1 SLOAD PUSH2 0x1403 SWAP1 PUSH2 0x23A3 JUMP JUMPDEST DUP1 ISZERO PUSH2 0x1450 JUMPI DUP1 PUSH1 0x1F LT PUSH2 0x1425 JUMPI PUSH2 0x100 DUP1 DUP4 SLOAD DIV MUL DUP4 MSTORE SWAP2 PUSH1 0x20 ADD SWAP2 PUSH2 0x1450 JUMP JUMPDEST DUP3 ADD SWAP2 SWAP1 PUSH1 0x0 MSTORE PUSH1 0x20 PUSH1 0x0 KECCAK256 SWAP1 JUMPDEST DUP2 SLOAD DUP2 MSTORE SWAP1 PUSH1 0x1 ADD SWAP1 PUSH1 0x20 ADD DUP1 DUP4 GT PUSH2 0x1433 JUMPI DUP3 SWAP1 SUB PUSH1 0x1F AND DUP3 ADD SWAP2 JUMPDEST POP POP POP POP POP SWAP1 POP DUP3 JUMP JUMPDEST PUSH1 0x0 PUSH1 0x3 PUSH1 0x0 DUP4 PUSH20 0xFFFFFFFFFFFFFFFFFFFFFFFFFFFFFFFFFFFFFFFF AND PUSH20 0xFFFFFFFFFFFFFFFFFFFFFFFFFFFFFFFFFFFFFFFF AND DUP2 MSTORE PUSH1 0x20 ADD SWAP1 DUP2 MSTORE PUSH1 0x20 ADD PUSH1 0x0 KECCAK256 PUSH1 0x0 ADD PUSH1 0x0 SWAP1 SLOAD SWAP1 PUSH2 0x100 EXP SWAP1 DIV PUSH1 0xFF AND SWAP1 POP SWAP2 SWAP1 POP JUMP JUMPDEST PUSH1 0x5 PUSH1 0x20 MSTORE DUP1 PUSH1 0x0 MSTORE PUSH1 0x40 PUSH1 0x0 KECCAK256 PUSH1 0x0 SWAP2 POP SWAP1 POP DUP1 PUSH1 0x0 ADD PUSH1 0x0 SWAP1 SLOAD SWAP1 PUSH2 0x100 EXP SWAP1 DIV PUSH1 0xFF AND SWAP1 DUP1 PUSH1 0x0 ADD PUSH1 0x1 SWAP1 SLOAD SWAP1 PUSH2 0x100 EXP SWAP1 DIV PUSH20 0xFFFFFFFFFFFFFFFFFFFFFFFFFFFFFFFFFFFFFFFF AND SWAP1 DUP1 PUSH1 0x0 ADD PUSH1 0x15 SWAP1 SLOAD SWAP1 PUSH2 0x100 EXP SWAP1 DIV PUSH2 0xFFFF AND SWAP1 DUP1 PUSH1 0x0 ADD PUSH1 0x17 SWAP1 SLOAD SWAP1 PUSH2 0x100 EXP SWAP1 DIV PUSH1 0xFF AND SWAP1 DUP1 PUSH1 0x1 ADD DUP1 SLOAD PUSH2 0x1536 SWAP1 PUSH2 0x23A3 JUMP JUMPDEST DUP1 PUSH1 0x1F ADD PUSH1 0x20 DUP1 SWAP2 DIV MUL PUSH1 0x20 ADD PUSH1 0x40 MLOAD SWAP1 DUP2 ADD PUSH1 0x40 MSTORE DUP1 SWAP3 SWAP2 SWAP1 DUP2 DUP2 MSTORE PUSH1 0x20 ADD DUP3 DUP1 SLOAD PUSH2 0x1562 SWAP1 PUSH2 0x23A3 JUMP JUMPDEST DUP1 ISZERO PUSH2 0x15AF JUMPI DUP1 PUSH1 0x1F LT PUSH2 0x1584 JUMPI PUSH2 0x100 DUP1 DUP4 SLOAD DIV MUL DUP4 MSTORE SWAP2 PUSH1 0x20 ADD SWAP2 PUSH2 0x15AF JUMP JUMPDEST DUP3 ADD SWAP2 SWAP1 PUSH1 0x0 MSTORE PUSH1 0x20 PUSH1 0x0 KECCAK256 SWAP1 JUMPDEST DUP2 SLOAD DUP2 MSTORE SWAP1 PUSH1 0x1 ADD SWAP1 PUSH1 0x20 ADD DUP1 DUP4 GT PUSH2 0x1592 JUMPI DUP3 SWAP1 SUB PUSH1 0x1F AND DUP3 ADD SWAP2 JUMPDEST POP POP POP POP POP SWAP1 DUP1 PUSH1 0x2 ADD DUP1 SLOAD PUSH2 0x15C4 SWAP1 PUSH2 0x23A3 JUMP JUMPDEST DUP1 PUSH1 0x1F ADD PUSH1 0x20 DUP1 SWAP2 DIV MUL PUSH1 0x20 ADD PUSH1 0x40 MLOAD SWAP1 DUP2 ADD PUSH1 0x40 MSTORE DUP1 SWAP3 SWAP2 SWAP1 DUP2 DUP2 MSTORE PUSH1 0x20 ADD DUP3 DUP1 SLOAD PUSH2 0x15F0 SWAP1 PUSH2 0x23A3 JUMP JUMPDEST DUP1 ISZERO PUSH2 0x163D JUMPI DUP1 PUSH1 0x1F LT PUSH2 0x1612 JUMPI PUSH2 0x100 DUP1 DUP4 SLOAD DIV MUL DUP4 MSTORE SWAP2 PUSH1 0x20 ADD SWAP2 PUSH2 0x163D JUMP JUMPDEST DUP3 ADD SWAP2 SWAP1 PUSH1 0x0 MSTORE PUSH1 0x20 PUSH1 0x0 KECCAK256 SWAP1 JUMPDEST DUP2 SLOAD DUP2 MSTORE SWAP1 PUSH1 0x1 ADD SWAP1 PUSH1 0x20 ADD DUP1 DUP4 GT PUSH2 0x1620 JUMPI DUP3 SWAP1 SUB PUSH1 0x1F AND DUP3 ADD SWAP2 JUMPDEST POP POP POP POP POP SWAP1 POP DUP7 JUMP JUMPDEST PUSH1 0x3 PUSH1 0x20 MSTORE DUP1 PUSH1 0x0 MSTORE PUSH1 0x40 PUSH1 0x0 KECCAK256 PUSH1 0x0 SWAP2 POP SWAP1 POP DUP1 PUSH1 0x0 ADD PUSH1 0x0 SWAP1 SLOAD SWAP1 PUSH2 0x100 EXP SWAP1 DIV PUSH1 0xFF AND SWAP1 POP DUP2 JUMP JUMPDEST PUSH2 0x167B DUP5 PUSH2 0xBBC JUMP JUMPDEST ISZERO PUSH2 0x16BB JUMPI PUSH1 0x40 MLOAD PUSH32 0x8C379A000000000000000000000000000000000000000000000000000000000 DUP2 MSTORE PUSH1 0x4 ADD PUSH2 0x16B2 SWAP1 PUSH2 0x2167 JUMP JUMPDEST PUSH1 0x40 MLOAD DUP1 SWAP2 SUB SWAP1 REVERT JUMPDEST PUSH1 0x1 PUSH1 0x6 PUSH1 0x0 DUP7 PUSH20 0xFFFFFFFFFFFFFFFFFFFFFFFFFFFFFFFFFFFFFFFF AND PUSH20 0xFFFFFFFFFFFFFFFFFFFFFFFFFFFFFFFFFFFFFFFF AND DUP2 MSTORE PUSH1 0x20 ADD SWAP1 DUP2 MSTORE PUSH1 0x20 ADD PUSH1 0x0 KECCAK256 PUSH1 0x0 ADD PUSH1 0x0 PUSH2 0x100 EXP DUP2 SLOAD DUP2 PUSH1 0xFF MUL NOT AND SWAP1 DUP4 ISZERO ISZERO MUL OR SWAP1 SSTORE POP DUP3 PUSH1 0x6 PUSH1 0x0 DUP7 PUSH20 0xFFFFFFFFFFFFFFFFFFFFFFFFFFFFFFFFFFFFFFFF AND PUSH20 0xFFFFFFFFFFFFFFFFFFFFFFFFFFFFFFFFFFFFFFFF AND DUP2 MSTORE PUSH1 0x20 ADD SWAP1 DUP2 MSTORE PUSH1 0x20 ADD PUSH1 0x0 KECCAK256 PUSH1 0x2 ADD SWAP1 DUP1 MLOAD SWAP1 PUSH1 0x20 ADD SWAP1 PUSH2 0x176C SWAP3 SWAP2 SWAP1 PUSH2 0x1B7B JUMP JUMPDEST POP DUP1 PUSH1 0x6 PUSH1 0x0 DUP7 PUSH20 0xFFFFFFFFFFFFFFFFFFFFFFFFFFFFFFFFFFFFFFFF AND PUSH20 0xFFFFFFFFFFFFFFFFFFFFFFFFFFFFFFFFFFFFFFFF AND DUP2 MSTORE PUSH1 0x20 ADD SWAP1 DUP2 MSTORE PUSH1 0x20 ADD PUSH1 0x0 KECCAK256 PUSH1 0x0 ADD PUSH1 0x1 PUSH2 0x100 EXP DUP2 SLOAD DUP2 PUSH1 0xFF MUL NOT AND SWAP1 DUP4 PUSH1 0xFF AND MUL OR SWAP1 SSTORE POP DUP2 PUSH1 0x6 PUSH1 0x0 DUP7 PUSH20 0xFFFFFFFFFFFFFFFFFFFFFFFFFFFFFFFFFFFFFFFF AND PUSH20 0xFFFFFFFFFFFFFFFFFFFFFFFFFFFFFFFFFFFFFFFF AND DUP2 MSTORE PUSH1 0x20 ADD SWAP1 DUP2 MSTORE PUSH1 0x20 ADD PUSH1 0x0 KECCAK256 PUSH1 0x1 ADD DUP2 SWAP1 SSTORE POP POP POP POP POP JUMP JUMPDEST PUSH1 0x0 DUP2 PUSH20 0xFFFFFFFFFFFFFFFFFFFFFFFFFFFFFFFFFFFFFFFF AND PUSH1 0x0 DUP1 SLOAD SWAP1 PUSH2 0x100 EXP SWAP1 DIV PUSH20 0xFFFFFFFFFFFFFFFFFFFFFFFFFFFFFFFFFFFFFFFF AND PUSH20 0xFFFFFFFFFFFFFFFFFFFFFFFFFFFFFFFFFFFFFFFF AND EQ SWAP1 POP SWAP2 SWAP1 POP JUMP JUMPDEST PUSH1 0x0 PUSH1 0xA PUSH1 0x0 DUP4 PUSH20 0xFFFFFFFFFFFFFFFFFFFFFFFFFFFFFFFFFFFFFFFF AND PUSH20 0xFFFFFFFFFFFFFFFFFFFFFFFFFFFFFFFFFFFFFFFF AND DUP2 MSTORE PUSH1 0x20 ADD SWAP1 DUP2 MSTORE PUSH1 0x20 ADD PUSH1 0x0 KECCAK256 PUSH1 0x0 ADD PUSH1 0x0 SWAP1 SLOAD SWAP1 PUSH2 0x100 EXP SWAP1 DIV PUSH1 0xFF AND SWAP1 POP SWAP2 SWAP1 POP JUMP JUMPDEST PUSH1 0x0 DUP2 PUSH20 0xFFFFFFFFFFFFFFFFFFFFFFFFFFFFFFFFFFFFFFFF AND PUSH1 0x2 PUSH1 0x0 SWAP1 SLOAD SWAP1 PUSH2 0x100 EXP SWAP1 DIV PUSH20 0xFFFFFFFFFFFFFFFFFFFFFFFFFFFFFFFFFFFFFFFF AND PUSH20 0xFFFFFFFFFFFFFFFFFFFFFFFFFFFFFFFFFFFFFFFF AND EQ SWAP1 POP SWAP2 SWAP1 POP JUMP JUMPDEST PUSH1 0x0 PUSH1 0x4 PUSH1 0x0 DUP4 PUSH20 0xFFFFFFFFFFFFFFFFFFFFFFFFFFFFFFFFFFFFFFFF AND PUSH20 0xFFFFFFFFFFFFFFFFFFFFFFFFFFFFFFFFFFFFFFFF AND DUP2 MSTORE PUSH1 0x20 ADD SWAP1 DUP2 MSTORE PUSH1 0x20 ADD PUSH1 0x0 KECCAK256 PUSH1 0x0 ADD PUSH1 0x0 SWAP1 SLOAD SWAP1 PUSH2 0x100 EXP SWAP1 DIV PUSH1 0xFF AND SWAP1 POP SWAP2 SWAP1 POP JUMP JUMPDEST PUSH2 0x1982 DUP2 PUSH2 0x145A JUMP JUMPDEST ISZERO PUSH2 0x19C2 JUMPI PUSH1 0x40 MLOAD PUSH32 0x8C379A000000000000000000000000000000000000000000000000000000000 DUP2 MSTORE PUSH1 0x4 ADD PUSH2 0x19B9 SWAP1 PUSH2 0x21E7 JUMP JUMPDEST PUSH1 0x40 MLOAD DUP1 SWAP2 SUB SWAP1 REVERT JUMPDEST PUSH1 0x1 PUSH1 0x3 PUSH1 0x0 DUP4 PUSH20 0xFFFFFFFFFFFFFFFFFFFFFFFFFFFFFFFFFFFFFFFF AND PUSH20 0xFFFFFFFFFFFFFFFFFFFFFFFFFFFFFFFFFFFFFFFF AND DUP2 MSTORE PUSH1 0x20 ADD SWAP1 DUP2 MSTORE PUSH1 0x20 ADD PUSH1 0x0 KECCAK256 PUSH1 0x0 ADD PUSH1 0x0 PUSH2 0x100 EXP DUP2 SLOAD DUP2 PUSH1 0xFF MUL NOT AND SWAP1 DUP4 ISZERO ISZERO MUL OR SWAP1 SSTORE POP POP JUMP JUMPDEST PUSH2 0x1A29 DUP4 PUSH2 0xFD5 JUMP JUMPDEST ISZERO PUSH2 0x1A69 JUMPI PUSH1 0x40 MLOAD PUSH32 0x8C379A000000000000000000000000000000000000000000000000000000000 DUP2 MSTORE PUSH1 0x4 ADD PUSH2 0x1A60 SWAP1 PUSH2 0x2207 JUMP JUMPDEST PUSH1 0x40 MLOAD DUP1 SWAP2 SUB SWAP1 REVERT JUMPDEST PUSH1 0x1 PUSH1 0x8 PUSH1 0x0 DUP6 PUSH20 0xFFFFFFFFFFFFFFFFFFFFFFFFFFFFFFFFFFFFFFFF AND PUSH20 0xFFFFFFFFFFFFFFFFFFFFFFFFFFFFFFFFFFFFFFFF AND DUP2 MSTORE PUSH1 0x20 ADD SWAP1 DUP2 MSTORE PUSH1 0x20 ADD PUSH1 0x0 KECCAK256 PUSH1 0x0 ADD PUSH1 0x0 PUSH2 0x100 EXP DUP2 SLOAD DUP2 PUSH1 0xFF MUL NOT AND SWAP1 DUP4 ISZERO ISZERO MUL OR SWAP1 SSTORE POP DUP2 PUSH1 0x8 PUSH1 0x0 DUP6 PUSH20 0xFFFFFFFFFFFFFFFFFFFFFFFFFFFFFFFFFFFFFFFF AND PUSH20 0xFFFFFFFFFFFFFFFFFFFFFFFFFFFFFFFFFFFFFFFF AND DUP2 MSTORE PUSH1 0x20 ADD SWAP1 DUP2 MSTORE PUSH1 0x20 ADD PUSH1 0x0 KECCAK256 PUSH1 0x1 ADD SWAP1 DUP1 MLOAD SWAP1 PUSH1 0x20 ADD SWAP1 PUSH2 0x1B1A SWAP3 SWAP2 SWAP1 PUSH2 0x1B7B JUMP JUMPDEST POP DUP1 PUSH1 0x8 PUSH1 0x0 DUP6 PUSH20 0xFFFFFFFFFFFFFFFFFFFFFFFFFFFFFFFFFFFFFFFF AND PUSH20 0xFFFFFFFFFFFFFFFFFFFFFFFFFFFFFFFFFFFFFFFF AND DUP2 MSTORE PUSH1 0x20 ADD SWAP1 DUP2 MSTORE PUSH1 0x20 ADD PUSH1 0x0 KECCAK256 PUSH1 0x2 ADD PUSH1 0x0 PUSH2 0x100 EXP DUP2 SLOAD DUP2 PUSH1 0xFF MUL NOT AND SWAP1 DUP4 PUSH1 0xFF AND MUL OR SWAP1 SSTORE POP POP POP POP JUMP JUMPDEST DUP3 DUP1 SLOAD PUSH2 0x1B87 SWAP1 PUSH2 0x23A3 JUMP JUMPDEST SWAP1 PUSH1 0x0 MSTORE PUSH1 0x20 PUSH1 0x0 KECCAK256 SWAP1 PUSH1 0x1F ADD PUSH1 0x20 SWAP1 DIV DUP2 ADD SWAP3 DUP3 PUSH2 0x1BA9 JUMPI PUSH1 0x0 DUP6 SSTORE PUSH2 0x1BF0 JUMP JUMPDEST DUP3 PUSH1 0x1F LT PUSH2 0x1BC2 JUMPI DUP1 MLOAD PUSH1 0xFF NOT AND DUP4 DUP1 ADD OR DUP6 SSTORE PUSH2 0x1BF0 JUMP JUMPDEST DUP3 DUP1 ADD PUSH1 0x1 ADD DUP6 SSTORE DUP3 ISZERO PUSH2 0x1BF0 JUMPI SWAP2 DUP3 ADD JUMPDEST DUP3 DUP2 GT ISZERO PUSH2 0x1BEF JUMPI DUP3 MLOAD DUP3 SSTORE SWAP2 PUSH1 0x20 ADD SWAP2 SWAP1 PUSH1 0x1 ADD SWAP1 PUSH2 0x1BD4 JUMP JUMPDEST JUMPDEST POP SWAP1 POP PUSH2 0x1BFD SWAP2 SWAP1 PUSH2 0x1C01 JUMP JUMPDEST POP SWAP1 JUMP JUMPDEST JUMPDEST DUP1 DUP3 GT ISZERO PUSH2 0x1C1A JUMPI PUSH1 0x0 DUP2 PUSH1 0x0 SWAP1 SSTORE POP PUSH1 0x1 ADD PUSH2 0x1C02 JUMP JUMPDEST POP SWAP1 JUMP JUMPDEST PUSH1 0x0 PUSH2 0x1C31 PUSH2 0x1C2C DUP5 PUSH2 0x227C JUMP JUMPDEST PUSH2 0x2257 JUMP JUMPDEST SWAP1 POP DUP3 DUP2 MSTORE PUSH1 0x20 DUP2 ADD DUP5 DUP5 DUP5 ADD GT ISZERO PUSH2 0x1C4D JUMPI PUSH2 0x1C4C PUSH2 0x2498 JUMP JUMPDEST JUMPDEST PUSH2 0x1C58 DUP5 DUP3 DUP6 PUSH2 0x2361 JUMP JUMPDEST POP SWAP4 SWAP3 POP POP POP JUMP JUMPDEST PUSH1 0x0 DUP2 CALLDATALOAD SWAP1 POP PUSH2 0x1C6F DUP2 PUSH2 0x2611 JUMP JUMPDEST SWAP3 SWAP2 POP POP JUMP JUMPDEST PUSH1 0x0 DUP3 PUSH1 0x1F DUP4 ADD SLT PUSH2 0x1C8A JUMPI PUSH2 0x1C89 PUSH2 0x2493 JUMP JUMPDEST JUMPDEST DUP2 CALLDATALOAD PUSH2 0x1C9A DUP5 DUP3 PUSH1 0x20 DUP7 ADD PUSH2 0x1C1E JUMP JUMPDEST SWAP2 POP POP SWAP3 SWAP2 POP POP JUMP JUMPDEST PUSH1 0x0 DUP2 CALLDATALOAD SWAP1 POP PUSH2 0x1CB2 DUP2 PUSH2 0x2628 JUMP JUMPDEST SWAP3 SWAP2 POP POP JUMP JUMPDEST PUSH1 0x0 DUP2 CALLDATALOAD SWAP1 POP PUSH2 0x1CC7 DUP2 PUSH2 0x263F JUMP JUMPDEST SWAP3 SWAP2 POP POP JUMP JUMPDEST PUSH1 0x0 DUP2 CALLDATALOAD SWAP1 POP PUSH2 0x1CDC DUP2 PUSH2 0x2656 JUMP JUMPDEST SWAP3 SWAP2 POP POP JUMP JUMPDEST PUSH1 0x0 PUSH1 0x20 DUP3 DUP5 SUB SLT ISZERO PUSH2 0x1CF8 JUMPI PUSH2 0x1CF7 PUSH2 0x24A2 JUMP JUMPDEST JUMPDEST PUSH1 0x0 PUSH2 0x1D06 DUP5 DUP3 DUP6 ADD PUSH2 0x1C60 JUMP JUMPDEST SWAP2 POP POP SWAP3 SWAP2 POP POP JUMP JUMPDEST PUSH1 0x0 DUP1 PUSH1 0x0 PUSH1 0x60 DUP5 DUP7 SUB SLT ISZERO PUSH2 0x1D28 JUMPI PUSH2 0x1D27 PUSH2 0x24A2 JUMP JUMPDEST JUMPDEST PUSH1 0x0 PUSH2 0x1D36 DUP7 DUP3 DUP8 ADD PUSH2 0x1C60 JUMP JUMPDEST SWAP4 POP POP PUSH1 0x20 PUSH2 0x1D47 DUP7 DUP3 DUP8 ADD PUSH2 0x1C60 JUMP JUMPDEST SWAP3 POP POP PUSH1 0x40 PUSH2 0x1D58 DUP7 DUP3 DUP8 ADD PUSH2 0x1C60 JUMP JUMPDEST SWAP2 POP POP SWAP3 POP SWAP3 POP SWAP3 JUMP JUMPDEST PUSH1 0x0 DUP1 PUSH1 0x0 DUP1 PUSH1 0x80 DUP6 DUP8 SUB SLT ISZERO PUSH2 0x1D7C JUMPI PUSH2 0x1D7B PUSH2 0x24A2 JUMP JUMPDEST JUMPDEST PUSH1 0x0 PUSH2 0x1D8A DUP8 DUP3 DUP9 ADD PUSH2 0x1C60 JUMP JUMPDEST SWAP5 POP POP PUSH1 0x20 DUP6 ADD CALLDATALOAD PUSH8 0xFFFFFFFFFFFFFFFF DUP2 GT ISZERO PUSH2 0x1DAB JUMPI PUSH2 0x1DAA PUSH2 0x249D JUMP JUMPDEST JUMPDEST PUSH2 0x1DB7 DUP8 DUP3 DUP9 ADD PUSH2 0x1C75 JUMP JUMPDEST SWAP4 POP POP PUSH1 0x40 PUSH2 0x1DC8 DUP8 DUP3 DUP9 ADD PUSH2 0x1CA3 JUMP JUMPDEST SWAP3 POP POP PUSH1 0x60 PUSH2 0x1DD9 DUP8 DUP3 DUP9 ADD PUSH2 0x1CCD JUMP JUMPDEST SWAP2 POP POP SWAP3 SWAP6 SWAP2 SWAP5 POP SWAP3 POP JUMP JUMPDEST PUSH1 0x0 DUP1 PUSH1 0x0 PUSH1 0x60 DUP5 DUP7 SUB SLT ISZERO PUSH2 0x1DFE JUMPI PUSH2 0x1DFD PUSH2 0x24A2 JUMP JUMPDEST JUMPDEST PUSH1 0x0 PUSH2 0x1E0C DUP7 DUP3 DUP8 ADD PUSH2 0x1C60 JUMP JUMPDEST SWAP4 POP POP PUSH1 0x20 DUP5 ADD CALLDATALOAD PUSH8 0xFFFFFFFFFFFFFFFF DUP2 GT ISZERO PUSH2 0x1E2D JUMPI PUSH2 0x1E2C PUSH2 0x249D JUMP JUMPDEST JUMPDEST PUSH2 0x1E39 DUP7 DUP3 DUP8 ADD PUSH2 0x1C75 JUMP JUMPDEST SWAP3 POP POP PUSH1 0x40 PUSH2 0x1E4A DUP7 DUP3 DUP8 ADD PUSH2 0x1CCD JUMP JUMPDEST SWAP2 POP POP SWAP3 POP SWAP3 POP SWAP3 JUMP JUMPDEST PUSH1 0x0 PUSH1 0x20 DUP3 DUP5 SUB SLT ISZERO PUSH2 0x1E6A JUMPI PUSH2 0x1E69 PUSH2 0x24A2 JUMP JUMPDEST JUMPDEST PUSH1 0x0 PUSH2 0x1E78 DUP5 DUP3 DUP6 ADD PUSH2 0x1CB8 JUMP JUMPDEST SWAP2 POP POP SWAP3 SWAP2 POP POP JUMP JUMPDEST PUSH2 0x1E8A DUP2 PUSH2 0x22C9 JUMP JUMPDEST DUP3 MSTORE POP POP JUMP JUMPDEST PUSH2 0x1E99 DUP2 PUSH2 0x22DB JUMP JUMPDEST DUP3 MSTORE POP POP JUMP JUMPDEST PUSH2 0x1EA8 DUP2 PUSH2 0x234F JUMP JUMPDEST DUP3 MSTORE POP POP JUMP JUMPDEST PUSH1 0x0 PUSH2 0x1EB9 DUP3 PUSH2 0x22AD JUMP JUMPDEST PUSH2 0x1EC3 DUP2 DUP6 PUSH2 0x22B8 JUMP JUMPDEST SWAP4 POP PUSH2 0x1ED3 DUP2 DUP6 PUSH1 0x20 DUP7 ADD PUSH2 0x2370 JUMP JUMPDEST PUSH2 0x1EDC DUP2 PUSH2 0x24A7 JUMP JUMPDEST DUP5 ADD SWAP2 POP POP SWAP3 SWAP2 POP POP JUMP JUMPDEST PUSH1 0x0 PUSH2 0x1EF4 PUSH1 0x19 DUP4 PUSH2 0x22B8 JUMP JUMPDEST SWAP2 POP PUSH2 0x1EFF DUP3 PUSH2 0x24B8 JUMP JUMPDEST PUSH1 0x20 DUP3 ADD SWAP1 POP SWAP2 SWAP1 POP JUMP JUMPDEST PUSH1 0x0 PUSH2 0x1F17 PUSH1 0x12 DUP4 PUSH2 0x22B8 JUMP JUMPDEST SWAP2 POP PUSH2 0x1F22 DUP3 PUSH2 0x24E1 JUMP JUMPDEST PUSH1 0x20 DUP3 ADD SWAP1 POP SWAP2 SWAP1 POP JUMP JUMPDEST PUSH1 0x0 PUSH2 0x1F3A PUSH1 0x1E DUP4 PUSH2 0x22B8 JUMP JUMPDEST SWAP2 POP PUSH2 0x1F45 DUP3 PUSH2 0x250A JUMP JUMPDEST PUSH1 0x20 DUP3 ADD SWAP1 POP SWAP2 SWAP1 POP JUMP JUMPDEST PUSH1 0x0 PUSH2 0x1F5D PUSH1 0x22 DUP4 PUSH2 0x22B8 JUMP JUMPDEST SWAP2 POP PUSH2 0x1F68 DUP3 PUSH2 0x2533 JUMP JUMPDEST PUSH1 0x40 DUP3 ADD SWAP1 POP SWAP2 SWAP1 POP JUMP JUMPDEST PUSH1 0x0 PUSH2 0x1F80 PUSH1 0x17 DUP4 PUSH2 0x22B8 JUMP JUMPDEST SWAP2 POP PUSH2 0x1F8B DUP3 PUSH2 0x2582 JUMP JUMPDEST PUSH1 0x20 DUP3 ADD SWAP1 POP SWAP2 SWAP1 POP JUMP JUMPDEST PUSH1 0x0 PUSH2 0x1FA3 PUSH1 0x11 DUP4 PUSH2 0x22B8 JUMP JUMPDEST SWAP2 POP PUSH2 0x1FAE DUP3 PUSH2 0x25AB JUMP JUMPDEST PUSH1 0x20 DUP3 ADD SWAP1 POP SWAP2 SWAP1 POP JUMP JUMPDEST PUSH1 0x0 PUSH2 0x1FC6 PUSH1 0x17 DUP4 PUSH2 0x22B8 JUMP JUMPDEST SWAP2 POP PUSH2 0x1FD1 DUP3 PUSH2 0x25D4 JUMP JUMPDEST PUSH1 0x20 DUP3 ADD SWAP1 POP SWAP2 SWAP1 POP JUMP JUMPDEST PUSH2 0x1FE5 DUP2 PUSH2 0x22FA JUMP JUMPDEST DUP3 MSTORE POP POP JUMP JUMPDEST PUSH2 0x1FF4 DUP2 PUSH2 0x2328 JUMP JUMPDEST DUP3 MSTORE POP POP JUMP JUMPDEST PUSH2 0x2003 DUP2 PUSH2 0x2332 JUMP JUMPDEST DUP3 MSTORE POP POP JUMP JUMPDEST PUSH2 0x2012 DUP2 PUSH2 0x2342 JUMP JUMPDEST DUP3 MSTORE POP POP JUMP JUMPDEST PUSH1 0x0 PUSH1 0x20 DUP3 ADD SWAP1 POP PUSH2 0x202D PUSH1 0x0 DUP4 ADD DUP5 PUSH2 0x1E81 JUMP JUMPDEST SWAP3 SWAP2 POP POP JUMP JUMPDEST PUSH1 0x0 PUSH1 0x20 DUP3 ADD SWAP1 POP PUSH2 0x2048 PUSH1 0x0 DUP4 ADD DUP5 PUSH2 0x1E90 JUMP JUMPDEST SWAP3 SWAP2 POP POP JUMP JUMPDEST PUSH1 0x0 PUSH1 0xC0 DUP3 ADD SWAP1 POP PUSH2 0x2063 PUSH1 0x0 DUP4 ADD DUP10 PUSH2 0x1E90 JUMP JUMPDEST PUSH2 0x2070 PUSH1 0x20 DUP4 ADD DUP9 PUSH2 0x1E81 JUMP JUMPDEST PUSH2 0x207D PUSH1 0x40 DUP4 ADD DUP8 PUSH2 0x1FDC JUMP JUMPDEST PUSH2 0x208A PUSH1 0x60 DUP4 ADD DUP7 PUSH2 0x1E9F JUMP JUMPDEST DUP2 DUP2 SUB PUSH1 0x80 DUP4 ADD MSTORE PUSH2 0x209C DUP2 DUP6 PUSH2 0x1EAE JUMP JUMPDEST SWAP1 POP DUP2 DUP2 SUB PUSH1 0xA0 DUP4 ADD MSTORE PUSH2 0x20B0 DUP2 DUP5 PUSH2 0x1EAE JUMP JUMPDEST SWAP1 POP SWAP8 SWAP7 POP POP POP POP POP POP POP JUMP JUMPDEST PUSH1 0x0 PUSH1 0x60 DUP3 ADD SWAP1 POP PUSH2 0x20D2 PUSH1 0x0 DUP4 ADD DUP7 PUSH2 0x1E90 JUMP JUMPDEST DUP2 DUP2 SUB PUSH1 0x20 DUP4 ADD MSTORE PUSH2 0x20E4 DUP2 DUP6 PUSH2 0x1EAE JUMP JUMPDEST SWAP1 POP PUSH2 0x20F3 PUSH1 0x40 DUP4 ADD DUP5 PUSH2 0x2009 JUMP JUMPDEST SWAP5 SWAP4 POP POP POP POP JUMP JUMPDEST PUSH1 0x0 PUSH1 0x80 DUP3 ADD SWAP1 POP PUSH2 0x2110 PUSH1 0x0 DUP4 ADD DUP8 PUSH2 0x1E90 JUMP JUMPDEST PUSH2 0x211D PUSH1 0x20 DUP4 ADD DUP7 PUSH2 0x2009 JUMP JUMPDEST PUSH2 0x212A PUSH1 0x40 DUP4 ADD DUP6 PUSH2 0x1FEB JUMP JUMPDEST DUP2 DUP2 SUB PUSH1 0x60 DUP4 ADD MSTORE PUSH2 0x213C DUP2 DUP5 PUSH2 0x1EAE JUMP JUMPDEST SWAP1 POP SWAP6 SWAP5 POP POP POP POP POP JUMP JUMPDEST PUSH1 0x0 PUSH1 0x20 DUP3 ADD SWAP1 POP DUP2 DUP2 SUB PUSH1 0x0 DUP4 ADD MSTORE PUSH2 0x2160 DUP2 PUSH2 0x1EE7 JUMP JUMPDEST SWAP1 POP SWAP2 SWAP1 POP JUMP JUMPDEST PUSH1 0x0 PUSH1 0x20 DUP3 ADD SWAP1 POP DUP2 DUP2 SUB PUSH1 0x0 DUP4 ADD MSTORE PUSH2 0x2180 DUP2 PUSH2 0x1F0A JUMP JUMPDEST SWAP1 POP SWAP2 SWAP1 POP JUMP JUMPDEST PUSH1 0x0 PUSH1 0x20 DUP3 ADD SWAP1 POP DUP2 DUP2 SUB PUSH1 0x0 DUP4 ADD MSTORE PUSH2 0x21A0 DUP2 PUSH2 0x1F2D JUMP JUMPDEST SWAP1 POP SWAP2 SWAP1 POP JUMP JUMPDEST PUSH1 0x0 PUSH1 0x20 DUP3 ADD SWAP1 POP DUP2 DUP2 SUB PUSH1 0x0 DUP4 ADD MSTORE PUSH2 0x21C0 DUP2 PUSH2 0x1F50 JUMP JUMPDEST SWAP1 POP SWAP2 SWAP1 POP JUMP JUMPDEST PUSH1 0x0 PUSH1 0x20 DUP3 ADD SWAP1 POP DUP2 DUP2 SUB PUSH1 0x0 DUP4 ADD MSTORE PUSH2 0x21E0 DUP2 PUSH2 0x1F73 JUMP JUMPDEST SWAP1 POP SWAP2 SWAP1 POP JUMP JUMPDEST PUSH1 0x0 PUSH1 0x20 DUP3 ADD SWAP1 POP DUP2 DUP2 SUB PUSH1 0x0 DUP4 ADD MSTORE PUSH2 0x2200 DUP2 PUSH2 0x1F96 JUMP JUMPDEST SWAP1 POP SWAP2 SWAP1 POP JUMP JUMPDEST PUSH1 0x0 PUSH1 0x20 DUP3 ADD SWAP1 POP DUP2 DUP2 SUB PUSH1 0x0 DUP4 ADD MSTORE PUSH2 0x2220 DUP2 PUSH2 0x1FB9 JUMP JUMPDEST SWAP1 POP SWAP2 SWAP1 POP JUMP JUMPDEST PUSH1 0x0 PUSH1 0x40 DUP3 ADD SWAP1 POP PUSH2 0x223C PUSH1 0x0 DUP4 ADD DUP6 PUSH2 0x1FFA JUMP JUMPDEST DUP2 DUP2 SUB PUSH1 0x20 DUP4 ADD MSTORE PUSH2 0x224E DUP2 DUP5 PUSH2 0x1EAE JUMP JUMPDEST SWAP1 POP SWAP4 SWAP3 POP POP POP JUMP JUMPDEST PUSH1 0x0 PUSH2 0x2261 PUSH2 0x2272 JUMP JUMPDEST SWAP1 POP PUSH2 0x226D DUP3 DUP3 PUSH2 0x23D5 JUMP JUMPDEST SWAP2 SWAP1 POP JUMP JUMPDEST PUSH1 0x0 PUSH1 0x40 MLOAD SWAP1 POP SWAP1 JUMP JUMPDEST PUSH1 0x0 PUSH8 0xFFFFFFFFFFFFFFFF DUP3 GT ISZERO PUSH2 0x2297 JUMPI PUSH2 0x2296 PUSH2 0x2464 JUMP JUMPDEST JUMPDEST PUSH2 0x22A0 DUP3 PUSH2 0x24A7 JUMP JUMPDEST SWAP1 POP PUSH1 0x20 DUP2 ADD SWAP1 POP SWAP2 SWAP1 POP JUMP JUMPDEST PUSH1 0x0 DUP2 MLOAD SWAP1 POP SWAP2 SWAP1 POP JUMP JUMPDEST PUSH1 0x0 DUP3 DUP3 MSTORE PUSH1 0x20 DUP3 ADD SWAP1 POP SWAP3 SWAP2 POP POP JUMP JUMPDEST PUSH1 0x0 PUSH2 0x22D4 DUP3 PUSH2 0x2308 JUMP JUMPDEST SWAP1 POP SWAP2 SWAP1 POP JUMP JUMPDEST PUSH1 0x0 DUP2 ISZERO ISZERO SWAP1 POP SWAP2 SWAP1 POP JUMP JUMPDEST PUSH1 0x0 DUP2 SWAP1 POP PUSH2 0x22F5 DUP3 PUSH2 0x25FD JUMP JUMPDEST SWAP2 SWAP1 POP JUMP JUMPDEST PUSH1 0x0 PUSH2 0xFFFF DUP3 AND SWAP1 POP SWAP2 SWAP1 POP JUMP JUMPDEST PUSH1 0x0 PUSH20 0xFFFFFFFFFFFFFFFFFFFFFFFFFFFFFFFFFFFFFFFF DUP3 AND SWAP1 POP SWAP2 SWAP1 POP JUMP JUMPDEST PUSH1 0x0 DUP2 SWAP1 POP SWAP2 SWAP1 POP JUMP JUMPDEST PUSH1 0x0 PUSH4 0xFFFFFFFF DUP3 AND SWAP1 POP SWAP2 SWAP1 POP JUMP JUMPDEST PUSH1 0x0 PUSH1 0xFF DUP3 AND SWAP1 POP SWAP2 SWAP1 POP JUMP JUMPDEST PUSH1 0x0 PUSH2 0x235A DUP3 PUSH2 0x22E7 JUMP JUMPDEST SWAP1 POP SWAP2 SWAP1 POP JUMP JUMPDEST DUP3 DUP2 DUP4 CALLDATACOPY PUSH1 0x0 DUP4 DUP4 ADD MSTORE POP POP POP JUMP JUMPDEST PUSH1 0x0 JUMPDEST DUP4 DUP2 LT ISZERO PUSH2 0x238E JUMPI DUP1 DUP3 ADD MLOAD DUP2 DUP5 ADD MSTORE PUSH1 0x20 DUP2 ADD SWAP1 POP PUSH2 0x2373 JUMP JUMPDEST DUP4 DUP2 GT ISZERO PUSH2 0x239D JUMPI PUSH1 0x0 DUP5 DUP5 ADD MSTORE JUMPDEST POP POP POP POP JUMP JUMPDEST PUSH1 0x0 PUSH1 0x2 DUP3 DIV SWAP1 POP PUSH1 0x1 DUP3 AND DUP1 PUSH2 0x23BB JUMPI PUSH1 0x7F DUP3 AND SWAP2 POP JUMPDEST PUSH1 0x20 DUP3 LT DUP2 EQ ISZERO PUSH2 0x23CF JUMPI PUSH2 0x23CE PUSH2 0x2435 JUMP JUMPDEST JUMPDEST POP SWAP2 SWAP1 POP JUMP JUMPDEST PUSH2 0x23DE DUP3 PUSH2 0x24A7 JUMP JUMPDEST DUP2 ADD DUP2 DUP2 LT PUSH8 0xFFFFFFFFFFFFFFFF DUP3 GT OR ISZERO PUSH2 0x23FD JUMPI PUSH2 0x23FC PUSH2 0x2464 JUMP JUMPDEST JUMPDEST DUP1 PUSH1 0x40 MSTORE POP POP POP JUMP JUMPDEST PUSH32 0x4E487B7100000000000000000000000000000000000000000000000000000000 PUSH1 0x0 MSTORE PUSH1 0x21 PUSH1 0x4 MSTORE PUSH1 0x24 PUSH1 0x0 REVERT JUMPDEST PUSH32 0x4E487B7100000000000000000000000000000000000000000000000000000000 PUSH1 0x0 MSTORE PUSH1 0x22 PUSH1 0x4 MSTORE PUSH1 0x24 PUSH1 0x0 REVERT JUMPDEST PUSH32 0x4E487B7100000000000000000000000000000000000000000000000000000000 PUSH1 0x0 MSTORE PUSH1 0x41 PUSH1 0x4 MSTORE PUSH1 0x24 PUSH1 0x0 REVERT JUMPDEST PUSH1 0x0 DUP1 REVERT JUMPDEST PUSH1 0x0 DUP1 REVERT JUMPDEST PUSH1 0x0 DUP1 REVERT JUMPDEST PUSH1 0x0 DUP1 REVERT JUMPDEST PUSH1 0x0 PUSH1 0x1F NOT PUSH1 0x1F DUP4 ADD AND SWAP1 POP SWAP2 SWAP1 POP JUMP JUMPDEST PUSH32 0x4B757273204D65726B657A69205A6174656E204D657663757400000000000000 PUSH1 0x0 DUP3 ADD MSTORE POP JUMP JUMPDEST PUSH32 0x4669726D61205A6174656E204D65766375740000000000000000000000000000 PUSH1 0x0 DUP3 ADD MSTORE POP JUMP JUMPDEST PUSH32 0x536572746966696B61204D65726B657A69205A6174656E204D65766375740000 PUSH1 0x0 DUP3 ADD MSTORE POP JUMP JUMPDEST PUSH32 0x536976696C20546F706C756D204B7572756C757375205A6174656E204D657663 PUSH1 0x0 DUP3 ADD MSTORE PUSH32 0x7574000000000000000000000000000000000000000000000000000000000000 PUSH1 0x20 DUP3 ADD MSTORE POP JUMP JUMPDEST PUSH32 0x556E6976657273697465205A6174656E204D6576637574000000000000000000 PUSH1 0x0 DUP3 ADD MSTORE POP JUMP JUMPDEST PUSH32 0x4B697369205A6174656E204D6576637574000000000000000000000000000000 PUSH1 0x0 DUP3 ADD MSTORE POP JUMP JUMPDEST PUSH32 0x4B616D75204B75726D75205A6174656E204D6576637574000000000000000000 PUSH1 0x0 DUP3 ADD MSTORE POP JUMP JUMPDEST PUSH1 0x4 DUP2 LT PUSH2 0x260E JUMPI PUSH2 0x260D PUSH2 0x2406 JUMP JUMPDEST JUMPDEST POP JUMP JUMPDEST PUSH2 0x261A DUP2 PUSH2 0x22C9 JUMP JUMPDEST DUP2 EQ PUSH2 0x2625 JUMPI PUSH1 0x0 DUP1 REVERT JUMPDEST POP JUMP JUMPDEST PUSH2 0x2631 DUP2 PUSH2 0x2328 JUMP JUMPDEST DUP2 EQ PUSH2 0x263C JUMPI PUSH1 0x0 DUP1 REVERT JUMPDEST POP JUMP JUMPDEST PUSH2 0x2648 DUP2 PUSH2 0x2332 JUMP JUMPDEST DUP2 EQ PUSH2 0x2653 JUMPI PUSH1 0x0 DUP1 REVERT JUMPDEST POP JUMP JUMPDEST PUSH2 0x265F DUP2 PUSH2 0x2342 JUMP JUMPDEST DUP2 EQ PUSH2 0x266A JUMPI PUSH1 0x0 DUP1 REVERT JUMPDEST POP JUMP INVALID LOG2 PUSH5 0x6970667358 0x22 SLT KECCAK256 SWAP12 0x21 CALLDATACOPY 0xF9 BALANCE CALLDATALOAD 0x25 0xAF NUMBER EXP LOG1 0xC 0x23 SHR 0xD3 SWAP4 SWAP10 0xB0 GASPRICE 0x24 0xBB 0x23 POP DUP14 0x23 SWAP3 EXTCODESIZE PUSH27 0x8CEF937D64736F6C63430008070033000000000000000000000000 "
				},
				"gasEstimates": {
					"creation": {
						"codeDepositCost": "1978200",
						"executionCost": "2098",
						"totalCost": "1980298"
					},
					"external": {
						"YOK()": "2622",
						"akademisyenler(address)": "infinite",
						"diller(uint32)": "infinite",
						"ekleFirma(address,string,uint256,uint8)": "infinite",
						"ekleKamuKurumu(address,string,uint8)": "infinite",
						"ekleKisi(address)": "27201",
						"ekleKurs(address,string,uint8)": "infinite",
						"ekleSTK(address,string,uint8)": "infinite",
						"ekleSertifikaMerkezi(address,string,uint8)": "infinite",
						"ekleUniversite(address,string,uint8)": "infinite",
						"firmalar(address)": "infinite",
						"getYOK()": "2613",
						"isCB(address)": "2855",
						"isFirma(address)": "2935",
						"isKamuKurumu(address)": "2978",
						"isKisi(address)": "2978",
						"isKurs(address)": "2958",
						"isSTK(address)": "2957",
						"isSertifikaMerkezi(address)": "3000",
						"isTOBB(address)": "2857",
						"isUniversite(address)": "2955",
						"isYOK(address)": "2897",
						"kamuKurumlari(address)": "infinite",
						"kisiler(address)": "2915",
						"kurslar(address)": "infinite",
						"paydasTanimla(address,address,address)": "infinite",
						"sertifikaMerkezleri(address)": "infinite",
						"stklar(address)": "infinite",
						"universiteler(address)": "infinite"
					}
				},
				"methodIdentifiers": {
					"YOK()": "71af892d",
					"akademisyenler(address)": "ba479b7e",
					"diller(uint32)": "a4e7ae05",
					"ekleFirma(address,string,uint256,uint8)": "d25aab85",
					"ekleKamuKurumu(address,string,uint8)": "f63c649f",
					"ekleKisi(address)": "f54acc65",
					"ekleKurs(address,string,uint8)": "46224853",
					"ekleSTK(address,string,uint8)": "19023bf3",
					"ekleSertifikaMerkezi(address,string,uint8)": "9dc30114",
					"ekleUniversite(address,string,uint8)": "001d54ab",
					"firmalar(address)": "39987f94",
					"getYOK()": "03c3abc4",
					"isCB(address)": "e5130508",
					"isFirma(address)": "2d087d70",
					"isKamuKurumu(address)": "514e03c7",
					"isKisi(address)": "b98ccefd",
					"isKurs(address)": "024eb6bc",
					"isSTK(address)": "8c848885",
					"isSertifikaMerkezi(address)": "e24047ca",
					"isTOBB(address)": "139884ec",
					"isUniversite(address)": "f0040eb9",
					"isYOK(address)": "d7396414",
					"kamuKurumlari(address)": "7d0fa287",
					"kisiler(address)": "cbc92809",
					"kurslar(address)": "1916e139",
					"paydasTanimla(address,address,address)": "36fd2633",
					"sertifikaMerkezleri(address)": "356b1f1e",
					"stklar(address)": "9a8c9119",
					"universiteler(address)": "28266697"
				}
			},
			"storageLayout": {
				"storage": [
					{
						"astId": 3,
						"contract": "contracts/BaseContract.sol:BaseContract",
						"label": "YOK",
						"offset": 0,
						"slot": "0",
						"type": "t_address"
					},
					{
						"astId": 5,
						"contract": "contracts/BaseContract.sol:BaseContract",
						"label": "TOBB",
						"offset": 0,
						"slot": "1",
						"type": "t_address"
					},
					{
						"astId": 7,
						"contract": "contracts/BaseContract.sol:BaseContract",
						"label": "CB",
						"offset": 0,
						"slot": "2",
						"type": "t_address"
					},
					{
						"astId": 398,
						"contract": "contracts/BaseContract.sol:BaseContract",
						"label": "kisiler",
						"offset": 0,
						"slot": "3",
						"type": "t_mapping(t_address,t_struct(Kisi)18_storage)"
					},
					{
						"astId": 403,
						"contract": "contracts/BaseContract.sol:BaseContract",
						"label": "universiteler",
						"offset": 0,
						"slot": "4",
						"type": "t_mapping(t_address,t_struct(Universite)51_storage)"
					},
					{
						"astId": 408,
						"contract": "contracts/BaseContract.sol:BaseContract",
						"label": "akademisyenler",
						"offset": 0,
						"slot": "5",
						"type": "t_mapping(t_address,t_struct(Akademisyen)65_storage)"
					},
					{
						"astId": 413,
						"contract": "contracts/BaseContract.sol:BaseContract",
						"label": "firmalar",
						"offset": 0,
						"slot": "6",
						"type": "t_mapping(t_address,t_struct(Firma)105_storage)"
					},
					{
						"astId": 418,
						"contract": "contracts/BaseContract.sol:BaseContract",
						"label": "kurslar",
						"offset": 0,
						"slot": "7",
						"type": "t_mapping(t_address,t_struct(Kurs)133_storage)"
					},
					{
						"astId": 423,
						"contract": "contracts/BaseContract.sol:BaseContract",
						"label": "kamuKurumlari",
						"offset": 0,
						"slot": "8",
						"type": "t_mapping(t_address,t_struct(KamuKurumu)112_storage)"
					},
					{
						"astId": 428,
						"contract": "contracts/BaseContract.sol:BaseContract",
						"label": "stklar",
						"offset": 0,
						"slot": "9",
						"type": "t_mapping(t_address,t_struct(STK)119_storage)"
					},
					{
						"astId": 433,
						"contract": "contracts/BaseContract.sol:BaseContract",
						"label": "sertifikaMerkezleri",
						"offset": 0,
						"slot": "10",
						"type": "t_mapping(t_address,t_struct(SertifikaMerkezi)126_storage)"
					},
					{
						"astId": 438,
						"contract": "contracts/BaseContract.sol:BaseContract",
						"label": "diller",
						"offset": 0,
						"slot": "11",
						"type": "t_mapping(t_uint32,t_struct(YabanciDil)138_storage)"
					}
				],
				"types": {
					"t_address": {
						"encoding": "inplace",
						"label": "address",
						"numberOfBytes": "20"
					},
					"t_bool": {
						"encoding": "inplace",
						"label": "bool",
						"numberOfBytes": "1"
					},
					"t_enum(Unvan)70": {
						"encoding": "inplace",
						"label": "enum BaseContract.Unvan",
						"numberOfBytes": "1"
					},
					"t_mapping(t_address,t_struct(Akademisyen)65_storage)": {
						"encoding": "mapping",
						"key": "t_address",
						"label": "mapping(address => struct BaseContract.Akademisyen)",
						"numberOfBytes": "32",
						"value": "t_struct(Akademisyen)65_storage"
					},
					"t_mapping(t_address,t_struct(Firma)105_storage)": {
						"encoding": "mapping",
						"key": "t_address",
						"label": "mapping(address => struct BaseContract.Firma)",
						"numberOfBytes": "32",
						"value": "t_struct(Firma)105_storage"
					},
					"t_mapping(t_address,t_struct(KamuKurumu)112_storage)": {
						"encoding": "mapping",
						"key": "t_address",
						"label": "mapping(address => struct BaseContract.KamuKurumu)",
						"numberOfBytes": "32",
						"value": "t_struct(KamuKurumu)112_storage"
					},
					"t_mapping(t_address,t_struct(Kisi)18_storage)": {
						"encoding": "mapping",
						"key": "t_address",
						"label": "mapping(address => struct BaseContract.Kisi)",
						"numberOfBytes": "32",
						"value": "t_struct(Kisi)18_storage"
					},
					"t_mapping(t_address,t_struct(Kurs)133_storage)": {
						"encoding": "mapping",
						"key": "t_address",
						"label": "mapping(address => struct BaseContract.Kurs)",
						"numberOfBytes": "32",
						"value": "t_struct(Kurs)133_storage"
					},
					"t_mapping(t_address,t_struct(STK)119_storage)": {
						"encoding": "mapping",
						"key": "t_address",
						"label": "mapping(address => struct BaseContract.STK)",
						"numberOfBytes": "32",
						"value": "t_struct(STK)119_storage"
					},
					"t_mapping(t_address,t_struct(SertifikaMerkezi)126_storage)": {
						"encoding": "mapping",
						"key": "t_address",
						"label": "mapping(address => struct BaseContract.SertifikaMerkezi)",
						"numberOfBytes": "32",
						"value": "t_struct(SertifikaMerkezi)126_storage"
					},
					"t_mapping(t_address,t_struct(Universite)51_storage)": {
						"encoding": "mapping",
						"key": "t_address",
						"label": "mapping(address => struct BaseContract.Universite)",
						"numberOfBytes": "32",
						"value": "t_struct(Universite)51_storage"
					},
					"t_mapping(t_uint32,t_struct(YabanciDil)138_storage)": {
						"encoding": "mapping",
						"key": "t_uint32",
						"label": "mapping(uint32 => struct BaseContract.YabanciDil)",
						"numberOfBytes": "32",
						"value": "t_struct(YabanciDil)138_storage"
					},
					"t_string_storage": {
						"encoding": "bytes",
						"label": "string",
						"numberOfBytes": "32"
					},
					"t_struct(Akademisyen)65_storage": {
						"encoding": "inplace",
						"label": "struct BaseContract.Akademisyen",
						"members": [
							{
								"astId": 53,
								"contract": "contracts/BaseContract.sol:BaseContract",
								"label": "durum",
								"offset": 0,
								"slot": "0",
								"type": "t_bool"
							},
							{
								"astId": 55,
								"contract": "contracts/BaseContract.sol:BaseContract",
								"label": "universite",
								"offset": 1,
								"slot": "0",
								"type": "t_address"
							},
							{
								"astId": 57,
								"contract": "contracts/BaseContract.sol:BaseContract",
								"label": "bolum",
								"offset": 21,
								"slot": "0",
								"type": "t_uint16"
							},
							{
								"astId": 60,
								"contract": "contracts/BaseContract.sol:BaseContract",
								"label": "unvan",
								"offset": 23,
								"slot": "0",
								"type": "t_enum(Unvan)70"
							},
							{
								"astId": 62,
								"contract": "contracts/BaseContract.sol:BaseContract",
								"label": "ad",
								"offset": 0,
								"slot": "1",
								"type": "t_string_storage"
							},
							{
								"astId": 64,
								"contract": "contracts/BaseContract.sol:BaseContract",
								"label": "soyad",
								"offset": 0,
								"slot": "2",
								"type": "t_string_storage"
							}
						],
						"numberOfBytes": "96"
					},
					"t_struct(Firma)105_storage": {
						"encoding": "inplace",
						"label": "struct BaseContract.Firma",
						"members": [
							{
								"astId": 98,
								"contract": "contracts/BaseContract.sol:BaseContract",
								"label": "durum",
								"offset": 0,
								"slot": "0",
								"type": "t_bool"
							},
							{
								"astId": 100,
								"contract": "contracts/BaseContract.sol:BaseContract",
								"label": "ulke",
								"offset": 1,
								"slot": "0",
								"type": "t_uint8"
							},
							{
								"astId": 102,
								"contract": "contracts/BaseContract.sol:BaseContract",
								"label": "vergiNo",
								"offset": 0,
								"slot": "1",
								"type": "t_uint256"
							},
							{
								"astId": 104,
								"contract": "contracts/BaseContract.sol:BaseContract",
								"label": "isim",
								"offset": 0,
								"slot": "2",
								"type": "t_string_storage"
							}
						],
						"numberOfBytes": "96"
					},
					"t_struct(KamuKurumu)112_storage": {
						"encoding": "inplace",
						"label": "struct BaseContract.KamuKurumu",
						"members": [
							{
								"astId": 107,
								"contract": "contracts/BaseContract.sol:BaseContract",
								"label": "durum",
								"offset": 0,
								"slot": "0",
								"type": "t_bool"
							},
							{
								"astId": 109,
								"contract": "contracts/BaseContract.sol:BaseContract",
								"label": "isim",
								"offset": 0,
								"slot": "1",
								"type": "t_string_storage"
							},
							{
								"astId": 111,
								"contract": "contracts/BaseContract.sol:BaseContract",
								"label": "ulke",
								"offset": 0,
								"slot": "2",
								"type": "t_uint8"
							}
						],
						"numberOfBytes": "96"
					},
					"t_struct(Kisi)18_storage": {
						"encoding": "inplace",
						"label": "struct BaseContract.Kisi",
						"members": [
							{
								"astId": 17,
								"contract": "contracts/BaseContract.sol:BaseContract",
								"label": "durum",
								"offset": 0,
								"slot": "0",
								"type": "t_bool"
							}
						],
						"numberOfBytes": "32"
					},
					"t_struct(Kurs)133_storage": {
						"encoding": "inplace",
						"label": "struct BaseContract.Kurs",
						"members": [
							{
								"astId": 128,
								"contract": "contracts/BaseContract.sol:BaseContract",
								"label": "durum",
								"offset": 0,
								"slot": "0",
								"type": "t_bool"
							},
							{
								"astId": 130,
								"contract": "contracts/BaseContract.sol:BaseContract",
								"label": "isim",
								"offset": 0,
								"slot": "1",
								"type": "t_string_storage"
							},
							{
								"astId": 132,
								"contract": "contracts/BaseContract.sol:BaseContract",
								"label": "ulke",
								"offset": 0,
								"slot": "2",
								"type": "t_uint8"
							}
						],
						"numberOfBytes": "96"
					},
					"t_struct(STK)119_storage": {
						"encoding": "inplace",
						"label": "struct BaseContract.STK",
						"members": [
							{
								"astId": 114,
								"contract": "contracts/BaseContract.sol:BaseContract",
								"label": "durum",
								"offset": 0,
								"slot": "0",
								"type": "t_bool"
							},
							{
								"astId": 116,
								"contract": "contracts/BaseContract.sol:BaseContract",
								"label": "isim",
								"offset": 0,
								"slot": "1",
								"type": "t_string_storage"
							},
							{
								"astId": 118,
								"contract": "contracts/BaseContract.sol:BaseContract",
								"label": "ulke",
								"offset": 0,
								"slot": "2",
								"type": "t_uint8"
							}
						],
						"numberOfBytes": "96"
					},
					"t_struct(SertifikaMerkezi)126_storage": {
						"encoding": "inplace",
						"label": "struct BaseContract.SertifikaMerkezi",
						"members": [
							{
								"astId": 121,
								"contract": "contracts/BaseContract.sol:BaseContract",
								"label": "durum",
								"offset": 0,
								"slot": "0",
								"type": "t_bool"
							},
							{
								"astId": 123,
								"contract": "contracts/BaseContract.sol:BaseContract",
								"label": "isim",
								"offset": 0,
								"slot": "1",
								"type": "t_string_storage"
							},
							{
								"astId": 125,
								"contract": "contracts/BaseContract.sol:BaseContract",
								"label": "ulke",
								"offset": 0,
								"slot": "2",
								"type": "t_uint8"
							}
						],
						"numberOfBytes": "96"
					},
					"t_struct(Universite)51_storage": {
						"encoding": "inplace",
						"label": "struct BaseContract.Universite",
						"members": [
							{
								"astId": 46,
								"contract": "contracts/BaseContract.sol:BaseContract",
								"label": "durum",
								"offset": 0,
								"slot": "0",
								"type": "t_bool"
							},
							{
								"astId": 48,
								"contract": "contracts/BaseContract.sol:BaseContract",
								"label": "isim",
								"offset": 0,
								"slot": "1",
								"type": "t_string_storage"
							},
							{
								"astId": 50,
								"contract": "contracts/BaseContract.sol:BaseContract",
								"label": "ulke",
								"offset": 0,
								"slot": "2",
								"type": "t_uint8"
							}
						],
						"numberOfBytes": "96"
					},
					"t_struct(YabanciDil)138_storage": {
						"encoding": "inplace",
						"label": "struct BaseContract.YabanciDil",
						"members": [
							{
								"astId": 135,
								"contract": "contracts/BaseContract.sol:BaseContract",
								"label": "id",
								"offset": 0,
								"slot": "0",
								"type": "t_uint32"
							},
							{
								"astId": 137,
								"contract": "contracts/BaseContract.sol:BaseContract",
								"label": "isim",
								"offset": 0,
								"slot": "1",
								"type": "t_string_storage"
							}
						],
						"numberOfBytes": "64"
					},
					"t_uint16": {
						"encoding": "inplace",
						"label": "uint16",
						"numberOfBytes": "2"
					},
					"t_uint256": {
						"encoding": "inplace",
						"label": "uint256",
						"numberOfBytes": "32"
					},
					"t_uint32": {
						"encoding": "inplace",
						"label": "uint32",
						"numberOfBytes": "4"
					},
					"t_uint8": {
						"encoding": "inplace",
						"label": "uint8",
						"numberOfBytes": "1"
					}
				}
			},
			"userdoc": {
				"kind": "user",
				"methods": {},
				"version": 1
			}
		}
	}
}