{
	"contracts/BaseContract.sol": {
		"BaseContract": {
			"abi": [
				{
					"inputs": [
						{
							"internalType": "address",
							"name": "",
							"type": "address"
						}
					],
					"name": "akademisyenler",
					"outputs": [
						{
							"internalType": "bool",
							"name": "durum",
							"type": "bool"
						},
						{
							"internalType": "address",
							"name": "universite",
							"type": "address"
						},
						{
							"internalType": "uint16",
							"name": "bolum",
							"type": "uint16"
						},
						{
							"internalType": "enum BaseContract.Unvan",
							"name": "unvan",
							"type": "uint8"
						},
						{
							"internalType": "bytes32",
							"name": "name",
							"type": "bytes32"
						},
						{
							"internalType": "bytes32",
							"name": "surname",
							"type": "bytes32"
						}
					],
					"stateMutability": "view",
					"type": "function"
				},
				{
					"inputs": [
						{
							"internalType": "address",
							"name": "",
							"type": "address"
						}
					],
					"name": "firmalar",
					"outputs": [
						{
							"internalType": "bool",
							"name": "durum",
							"type": "bool"
						},
						{
							"internalType": "bytes32",
							"name": "ulke",
							"type": "bytes32"
						},
						{
							"internalType": "uint256",
							"name": "vergiNo",
							"type": "uint256"
						},
						{
							"internalType": "bytes32",
							"name": "isim",
							"type": "bytes32"
						}
					],
					"stateMutability": "view",
					"type": "function"
				},
				{
					"inputs": [
						{
							"internalType": "address",
							"name": "",
							"type": "address"
						}
					],
					"name": "kamuKurumlari",
					"outputs": [
						{
							"internalType": "bool",
							"name": "durum",
							"type": "bool"
						},
						{
							"internalType": "bytes32",
							"name": "isim",
							"type": "bytes32"
						},
						{
							"internalType": "bytes32",
							"name": "ulke",
							"type": "bytes32"
						}
					],
					"stateMutability": "view",
					"type": "function"
				},
				{
					"inputs": [
						{
							"internalType": "address",
							"name": "",
							"type": "address"
						}
					],
					"name": "kisiler",
					"outputs": [
						{
							"internalType": "bool",
							"name": "durum",
							"type": "bool"
						}
					],
					"stateMutability": "view",
					"type": "function"
				},
				{
					"inputs": [
						{
							"internalType": "address",
							"name": "",
							"type": "address"
						}
					],
					"name": "kurslar",
					"outputs": [
						{
							"internalType": "bool",
							"name": "durum",
							"type": "bool"
						},
						{
							"internalType": "bytes32",
							"name": "isim",
							"type": "bytes32"
						},
						{
							"internalType": "bytes32",
							"name": "ulke",
							"type": "bytes32"
						}
					],
					"stateMutability": "view",
					"type": "function"
				},
				{
					"inputs": [
						{
							"internalType": "address",
							"name": "",
							"type": "address"
						}
					],
					"name": "sertifikaMerkezleri",
					"outputs": [
						{
							"internalType": "bool",
							"name": "durum",
							"type": "bool"
						},
						{
							"internalType": "bytes32",
							"name": "isim",
							"type": "bytes32"
						},
						{
							"internalType": "bytes32",
							"name": "ulke",
							"type": "bytes32"
						}
					],
					"stateMutability": "view",
					"type": "function"
				},
				{
					"inputs": [
						{
							"internalType": "address",
							"name": "",
							"type": "address"
						}
					],
					"name": "stklar",
					"outputs": [
						{
							"internalType": "bool",
							"name": "durum",
							"type": "bool"
						},
						{
							"internalType": "bytes32",
							"name": "isim",
							"type": "bytes32"
						},
						{
							"internalType": "bytes32",
							"name": "ulke",
							"type": "bytes32"
						}
					],
					"stateMutability": "view",
					"type": "function"
				},
				{
					"inputs": [
						{
							"internalType": "address",
							"name": "",
							"type": "address"
						}
					],
					"name": "universiteler",
					"outputs": [
						{
							"internalType": "bool",
							"name": "durum",
							"type": "bool"
						},
						{
							"internalType": "bytes32",
							"name": "isim",
							"type": "bytes32"
						},
						{
							"internalType": "uint8",
							"name": "ulke",
							"type": "uint8"
						}
					],
					"stateMutability": "view",
					"type": "function"
				}
			],
			"devdoc": {
				"kind": "dev",
				"methods": {},
				"version": 1
			},
			"evm": {
				"assembly": "    /* \"contracts/BaseContract.sol\":70:2883  contract BaseContract{\r... */\n  mstore(0x40, 0x80)\n  callvalue\n  dup1\n  iszero\n  tag_1\n  jumpi\n  0x00\n  dup1\n  revert\ntag_1:\n  pop\n  dataSize(sub_0)\n  dup1\n  dataOffset(sub_0)\n  0x00\n  codecopy\n  0x00\n  return\nstop\n\nsub_0: assembly {\n        /* \"contracts/BaseContract.sol\":70:2883  contract BaseContract{\r... */\n      mstore(0x40, 0x80)\n      callvalue\n      dup1\n      iszero\n      tag_1\n      jumpi\n      0x00\n      dup1\n      revert\n    tag_1:\n      pop\n      jumpi(tag_2, lt(calldatasize, 0x04))\n      shr(0xe0, calldataload(0x00))\n      dup1\n      0x7d0fa287\n      gt\n      tag_11\n      jumpi\n      dup1\n      0x7d0fa287\n      eq\n      tag_7\n      jumpi\n      dup1\n      0x9a8c9119\n      eq\n      tag_8\n      jumpi\n      dup1\n      0xba479b7e\n      eq\n      tag_9\n      jumpi\n      dup1\n      0xcbc92809\n      eq\n      tag_10\n      jumpi\n      jump(tag_2)\n    tag_11:\n      dup1\n      0x1916e139\n      eq\n      tag_3\n      jumpi\n      dup1\n      0x28266697\n      eq\n      tag_4\n      jumpi\n      dup1\n      0x356b1f1e\n      eq\n      tag_5\n      jumpi\n      dup1\n      0x39987f94\n      eq\n      tag_6\n      jumpi\n    tag_2:\n      0x00\n      dup1\n      revert\n        /* \"contracts/BaseContract.sol\":2675:2713  mapping(address=>Kurs) public  kurslar */\n    tag_3:\n      tag_12\n      0x04\n      dup1\n      calldatasize\n      sub\n      dup2\n      add\n      swap1\n      tag_13\n      swap2\n      swap1\n      tag_14\n      jump\t// in\n    tag_13:\n      tag_15\n      jump\t// in\n    tag_12:\n      mload(0x40)\n      tag_16\n      swap4\n      swap3\n      swap2\n      swap1\n      tag_17\n      jump\t// in\n    tag_16:\n      mload(0x40)\n      dup1\n      swap2\n      sub\n      swap1\n      return\n        /* \"contracts/BaseContract.sol\":2514:2563  mapping(address=>Universite) public universiteler */\n    tag_4:\n      tag_18\n      0x04\n      dup1\n      calldatasize\n      sub\n      dup2\n      add\n      swap1\n      tag_19\n      swap2\n      swap1\n      tag_14\n      jump\t// in\n    tag_19:\n      tag_20\n      jump\t// in\n    tag_18:\n      mload(0x40)\n      tag_21\n      swap4\n      swap3\n      swap2\n      swap1\n      tag_22\n      jump\t// in\n    tag_21:\n      mload(0x40)\n      dup1\n      swap2\n      sub\n      swap1\n      return\n        /* \"contracts/BaseContract.sol\":2818:2879  mapping(address=>SertifikaMerkezi) public sertifikaMerkezleri */\n    tag_5:\n      tag_23\n      0x04\n      dup1\n      calldatasize\n      sub\n      dup2\n      add\n      swap1\n      tag_24\n      swap2\n      swap1\n      tag_14\n      jump\t// in\n    tag_24:\n      tag_25\n      jump\t// in\n    tag_23:\n      mload(0x40)\n      tag_26\n      swap4\n      swap3\n      swap2\n      swap1\n      tag_17\n      jump\t// in\n    tag_26:\n      mload(0x40)\n      dup1\n      swap2\n      sub\n      swap1\n      return\n        /* \"contracts/BaseContract.sol\":2628:2668  mapping(address=>Firma) public  firmalar */\n    tag_6:\n      tag_27\n      0x04\n      dup1\n      calldatasize\n      sub\n      dup2\n      add\n      swap1\n      tag_28\n      swap2\n      swap1\n      tag_14\n      jump\t// in\n    tag_28:\n      tag_29\n      jump\t// in\n    tag_27:\n      mload(0x40)\n      tag_30\n      swap5\n      swap4\n      swap3\n      swap2\n      swap1\n      tag_31\n      jump\t// in\n    tag_30:\n      mload(0x40)\n      dup1\n      swap2\n      sub\n      swap1\n      return\n        /* \"contracts/BaseContract.sol\":2720:2769  mapping(address=>KamuKurumu) public kamuKurumlari */\n    tag_7:\n      tag_32\n      0x04\n      dup1\n      calldatasize\n      sub\n      dup2\n      add\n      swap1\n      tag_33\n      swap2\n      swap1\n      tag_14\n      jump\t// in\n    tag_33:\n      tag_34\n      jump\t// in\n    tag_32:\n      mload(0x40)\n      tag_35\n      swap4\n      swap3\n      swap2\n      swap1\n      tag_17\n      jump\t// in\n    tag_35:\n      mload(0x40)\n      dup1\n      swap2\n      sub\n      swap1\n      return\n        /* \"contracts/BaseContract.sol\":2776:2811  mapping(address=>STK) public stklar */\n    tag_8:\n      tag_36\n      0x04\n      dup1\n      calldatasize\n      sub\n      dup2\n      add\n      swap1\n      tag_37\n      swap2\n      swap1\n      tag_14\n      jump\t// in\n    tag_37:\n      tag_38\n      jump\t// in\n    tag_36:\n      mload(0x40)\n      tag_39\n      swap4\n      swap3\n      swap2\n      swap1\n      tag_17\n      jump\t// in\n    tag_39:\n      mload(0x40)\n      dup1\n      swap2\n      sub\n      swap1\n      return\n        /* \"contracts/BaseContract.sol\":2570:2621  mapping(address=>Akademisyen) public akademisyenler */\n    tag_9:\n      tag_40\n      0x04\n      dup1\n      calldatasize\n      sub\n      dup2\n      add\n      swap1\n      tag_41\n      swap2\n      swap1\n      tag_14\n      jump\t// in\n    tag_41:\n      tag_42\n      jump\t// in\n    tag_40:\n      mload(0x40)\n      tag_43\n      swap7\n      swap6\n      swap5\n      swap4\n      swap3\n      swap2\n      swap1\n      tag_44\n      jump\t// in\n    tag_43:\n      mload(0x40)\n      dup1\n      swap2\n      sub\n      swap1\n      return\n        /* \"contracts/BaseContract.sol\":2470:2507  mapping(address=>Kisi) public kisiler */\n    tag_10:\n      tag_45\n      0x04\n      dup1\n      calldatasize\n      sub\n      dup2\n      add\n      swap1\n      tag_46\n      swap2\n      swap1\n      tag_14\n      jump\t// in\n    tag_46:\n      tag_47\n      jump\t// in\n    tag_45:\n      mload(0x40)\n      tag_48\n      swap2\n      swap1\n      tag_49\n      jump\t// in\n    tag_48:\n      mload(0x40)\n      dup1\n      swap2\n      sub\n      swap1\n      return\n        /* \"contracts/BaseContract.sol\":2675:2713  mapping(address=>Kurs) public  kurslar */\n    tag_15:\n      mstore(0x20, 0x07)\n      dup1\n      0x00\n      mstore\n      keccak256(0x00, 0x40)\n      0x00\n      swap2\n      pop\n      swap1\n      pop\n      dup1\n      0x00\n      add\n      0x00\n      swap1\n      sload\n      swap1\n      0x0100\n      exp\n      swap1\n      div\n      0xff\n      and\n      swap1\n      dup1\n      0x01\n      add\n      sload\n      swap1\n      dup1\n      0x02\n      add\n      sload\n      swap1\n      pop\n      dup4\n      jump\t// out\n        /* \"contracts/BaseContract.sol\":2514:2563  mapping(address=>Universite) public universiteler */\n    tag_20:\n      mstore(0x20, 0x04)\n      dup1\n      0x00\n      mstore\n      keccak256(0x00, 0x40)\n      0x00\n      swap2\n      pop\n      swap1\n      pop\n      dup1\n      0x00\n      add\n      0x00\n      swap1\n      sload\n      swap1\n      0x0100\n      exp\n      swap1\n      div\n      0xff\n      and\n      swap1\n      dup1\n      0x01\n      add\n      sload\n      swap1\n      dup1\n      0x02\n      add\n      0x00\n      swap1\n      sload\n      swap1\n      0x0100\n      exp\n      swap1\n      div\n      0xff\n      and\n      swap1\n      pop\n      dup4\n      jump\t// out\n        /* \"contracts/BaseContract.sol\":2818:2879  mapping(address=>SertifikaMerkezi) public sertifikaMerkezleri */\n    tag_25:\n      mstore(0x20, 0x0a)\n      dup1\n      0x00\n      mstore\n      keccak256(0x00, 0x40)\n      0x00\n      swap2\n      pop\n      swap1\n      pop\n      dup1\n      0x00\n      add\n      0x00\n      swap1\n      sload\n      swap1\n      0x0100\n      exp\n      swap1\n      div\n      0xff\n      and\n      swap1\n      dup1\n      0x01\n      add\n      sload\n      swap1\n      dup1\n      0x02\n      add\n      sload\n      swap1\n      pop\n      dup4\n      jump\t// out\n        /* \"contracts/BaseContract.sol\":2628:2668  mapping(address=>Firma) public  firmalar */\n    tag_29:\n      mstore(0x20, 0x06)\n      dup1\n      0x00\n      mstore\n      keccak256(0x00, 0x40)\n      0x00\n      swap2\n      pop\n      swap1\n      pop\n      dup1\n      0x00\n      add\n      0x00\n      swap1\n      sload\n      swap1\n      0x0100\n      exp\n      swap1\n      div\n      0xff\n      and\n      swap1\n      dup1\n      0x01\n      add\n      sload\n      swap1\n      dup1\n      0x02\n      add\n      sload\n      swap1\n      dup1\n      0x03\n      add\n      sload\n      swap1\n      pop\n      dup5\n      jump\t// out\n        /* \"contracts/BaseContract.sol\":2720:2769  mapping(address=>KamuKurumu) public kamuKurumlari */\n    tag_34:\n      mstore(0x20, 0x08)\n      dup1\n      0x00\n      mstore\n      keccak256(0x00, 0x40)\n      0x00\n      swap2\n      pop\n      swap1\n      pop\n      dup1\n      0x00\n      add\n      0x00\n      swap1\n      sload\n      swap1\n      0x0100\n      exp\n      swap1\n      div\n      0xff\n      and\n      swap1\n      dup1\n      0x01\n      add\n      sload\n      swap1\n      dup1\n      0x02\n      add\n      sload\n      swap1\n      pop\n      dup4\n      jump\t// out\n        /* \"contracts/BaseContract.sol\":2776:2811  mapping(address=>STK) public stklar */\n    tag_38:\n      mstore(0x20, 0x09)\n      dup1\n      0x00\n      mstore\n      keccak256(0x00, 0x40)\n      0x00\n      swap2\n      pop\n      swap1\n      pop\n      dup1\n      0x00\n      add\n      0x00\n      swap1\n      sload\n      swap1\n      0x0100\n      exp\n      swap1\n      div\n      0xff\n      and\n      swap1\n      dup1\n      0x01\n      add\n      sload\n      swap1\n      dup1\n      0x02\n      add\n      sload\n      swap1\n      pop\n      dup4\n      jump\t// out\n        /* \"contracts/BaseContract.sol\":2570:2621  mapping(address=>Akademisyen) public akademisyenler */\n    tag_42:\n      mstore(0x20, 0x05)\n      dup1\n      0x00\n      mstore\n      keccak256(0x00, 0x40)\n      0x00\n      swap2\n      pop\n      swap1\n      pop\n      dup1\n      0x00\n      add\n      0x00\n      swap1\n      sload\n      swap1\n      0x0100\n      exp\n      swap1\n      div\n      0xff\n      and\n      swap1\n      dup1\n      0x00\n      add\n      0x01\n      swap1\n      sload\n      swap1\n      0x0100\n      exp\n      swap1\n      div\n      0xffffffffffffffffffffffffffffffffffffffff\n      and\n      swap1\n      dup1\n      0x00\n      add\n      0x15\n      swap1\n      sload\n      swap1\n      0x0100\n      exp\n      swap1\n      div\n      0xffff\n      and\n      swap1\n      dup1\n      0x00\n      add\n      0x17\n      swap1\n      sload\n      swap1\n      0x0100\n      exp\n      swap1\n      div\n      0xff\n      and\n      swap1\n      dup1\n      0x01\n      add\n      sload\n      swap1\n      dup1\n      0x02\n      add\n      sload\n      swap1\n      pop\n      dup7\n      jump\t// out\n        /* \"contracts/BaseContract.sol\":2470:2507  mapping(address=>Kisi) public kisiler */\n    tag_47:\n      mstore(0x20, 0x03)\n      dup1\n      0x00\n      mstore\n      keccak256(0x00, 0x40)\n      0x00\n      swap2\n      pop\n      swap1\n      pop\n      dup1\n      0x00\n      add\n      0x00\n      swap1\n      sload\n      swap1\n      0x0100\n      exp\n      swap1\n      div\n      0xff\n      and\n      swap1\n      pop\n      dup2\n      jump\t// out\n        /* \"#utility.yul\":7:146   */\n    tag_51:\n        /* \"#utility.yul\":53:58   */\n      0x00\n        /* \"#utility.yul\":91:97   */\n      dup2\n        /* \"#utility.yul\":78:98   */\n      calldataload\n        /* \"#utility.yul\":69:98   */\n      swap1\n      pop\n        /* \"#utility.yul\":107:140   */\n      tag_53\n        /* \"#utility.yul\":134:139   */\n      dup2\n        /* \"#utility.yul\":107:140   */\n      tag_54\n      jump\t// in\n    tag_53:\n        /* \"#utility.yul\":7:146   */\n      swap3\n      swap2\n      pop\n      pop\n      jump\t// out\n        /* \"#utility.yul\":152:481   */\n    tag_14:\n        /* \"#utility.yul\":211:217   */\n      0x00\n        /* \"#utility.yul\":260:262   */\n      0x20\n        /* \"#utility.yul\":248:257   */\n      dup3\n        /* \"#utility.yul\":239:246   */\n      dup5\n        /* \"#utility.yul\":235:258   */\n      sub\n        /* \"#utility.yul\":231:263   */\n      slt\n        /* \"#utility.yul\":228:347   */\n      iszero\n      tag_56\n      jumpi\n        /* \"#utility.yul\":266:345   */\n      tag_57\n      tag_58\n      jump\t// in\n    tag_57:\n        /* \"#utility.yul\":228:347   */\n    tag_56:\n        /* \"#utility.yul\":386:387   */\n      0x00\n        /* \"#utility.yul\":411:464   */\n      tag_59\n        /* \"#utility.yul\":456:463   */\n      dup5\n        /* \"#utility.yul\":447:453   */\n      dup3\n        /* \"#utility.yul\":436:445   */\n      dup6\n        /* \"#utility.yul\":432:454   */\n      add\n        /* \"#utility.yul\":411:464   */\n      tag_51\n      jump\t// in\n    tag_59:\n        /* \"#utility.yul\":401:464   */\n      swap2\n      pop\n        /* \"#utility.yul\":357:474   */\n      pop\n        /* \"#utility.yul\":152:481   */\n      swap3\n      swap2\n      pop\n      pop\n      jump\t// out\n        /* \"#utility.yul\":487:605   */\n    tag_60:\n        /* \"#utility.yul\":574:598   */\n      tag_62\n        /* \"#utility.yul\":592:597   */\n      dup2\n        /* \"#utility.yul\":574:598   */\n      tag_63\n      jump\t// in\n    tag_62:\n        /* \"#utility.yul\":569:572   */\n      dup3\n        /* \"#utility.yul\":562:599   */\n      mstore\n        /* \"#utility.yul\":487:605   */\n      pop\n      pop\n      jump\t// out\n        /* \"#utility.yul\":611:720   */\n    tag_64:\n        /* \"#utility.yul\":692:713   */\n      tag_66\n        /* \"#utility.yul\":707:712   */\n      dup2\n        /* \"#utility.yul\":692:713   */\n      tag_67\n      jump\t// in\n    tag_66:\n        /* \"#utility.yul\":687:690   */\n      dup3\n        /* \"#utility.yul\":680:714   */\n      mstore\n        /* \"#utility.yul\":611:720   */\n      pop\n      pop\n      jump\t// out\n        /* \"#utility.yul\":726:844   */\n    tag_68:\n        /* \"#utility.yul\":813:837   */\n      tag_70\n        /* \"#utility.yul\":831:836   */\n      dup2\n        /* \"#utility.yul\":813:837   */\n      tag_71\n      jump\t// in\n    tag_70:\n        /* \"#utility.yul\":808:811   */\n      dup3\n        /* \"#utility.yul\":801:838   */\n      mstore\n        /* \"#utility.yul\":726:844   */\n      pop\n      pop\n      jump\t// out\n        /* \"#utility.yul\":850:993   */\n    tag_72:\n        /* \"#utility.yul\":943:986   */\n      tag_74\n        /* \"#utility.yul\":980:985   */\n      dup2\n        /* \"#utility.yul\":943:986   */\n      tag_75\n      jump\t// in\n    tag_74:\n        /* \"#utility.yul\":938:941   */\n      dup3\n        /* \"#utility.yul\":931:987   */\n      mstore\n        /* \"#utility.yul\":850:993   */\n      pop\n      pop\n      jump\t// out\n        /* \"#utility.yul\":999:1114   */\n    tag_76:\n        /* \"#utility.yul\":1084:1107   */\n      tag_78\n        /* \"#utility.yul\":1101:1106   */\n      dup2\n        /* \"#utility.yul\":1084:1107   */\n      tag_79\n      jump\t// in\n    tag_78:\n        /* \"#utility.yul\":1079:1082   */\n      dup3\n        /* \"#utility.yul\":1072:1108   */\n      mstore\n        /* \"#utility.yul\":999:1114   */\n      pop\n      pop\n      jump\t// out\n        /* \"#utility.yul\":1120:1238   */\n    tag_80:\n        /* \"#utility.yul\":1207:1231   */\n      tag_82\n        /* \"#utility.yul\":1225:1230   */\n      dup2\n        /* \"#utility.yul\":1207:1231   */\n      tag_83\n      jump\t// in\n    tag_82:\n        /* \"#utility.yul\":1202:1205   */\n      dup3\n        /* \"#utility.yul\":1195:1232   */\n      mstore\n        /* \"#utility.yul\":1120:1238   */\n      pop\n      pop\n      jump\t// out\n        /* \"#utility.yul\":1244:1356   */\n    tag_84:\n        /* \"#utility.yul\":1327:1349   */\n      tag_86\n        /* \"#utility.yul\":1343:1348   */\n      dup2\n        /* \"#utility.yul\":1327:1349   */\n      tag_87\n      jump\t// in\n    tag_86:\n        /* \"#utility.yul\":1322:1325   */\n      dup3\n        /* \"#utility.yul\":1315:1350   */\n      mstore\n        /* \"#utility.yul\":1244:1356   */\n      pop\n      pop\n      jump\t// out\n        /* \"#utility.yul\":1362:1572   */\n    tag_49:\n        /* \"#utility.yul\":1449:1453   */\n      0x00\n        /* \"#utility.yul\":1487:1489   */\n      0x20\n        /* \"#utility.yul\":1476:1485   */\n      dup3\n        /* \"#utility.yul\":1472:1490   */\n      add\n        /* \"#utility.yul\":1464:1490   */\n      swap1\n      pop\n        /* \"#utility.yul\":1500:1565   */\n      tag_89\n        /* \"#utility.yul\":1562:1563   */\n      0x00\n        /* \"#utility.yul\":1551:1560   */\n      dup4\n        /* \"#utility.yul\":1547:1564   */\n      add\n        /* \"#utility.yul\":1538:1544   */\n      dup5\n        /* \"#utility.yul\":1500:1565   */\n      tag_64\n      jump\t// in\n    tag_89:\n        /* \"#utility.yul\":1362:1572   */\n      swap3\n      swap2\n      pop\n      pop\n      jump\t// out\n        /* \"#utility.yul\":1578:2349   */\n    tag_44:\n        /* \"#utility.yul\":1809:1813   */\n      0x00\n        /* \"#utility.yul\":1847:1850   */\n      0xc0\n        /* \"#utility.yul\":1836:1845   */\n      dup3\n        /* \"#utility.yul\":1832:1851   */\n      add\n        /* \"#utility.yul\":1824:1851   */\n      swap1\n      pop\n        /* \"#utility.yul\":1861:1926   */\n      tag_91\n        /* \"#utility.yul\":1923:1924   */\n      0x00\n        /* \"#utility.yul\":1912:1921   */\n      dup4\n        /* \"#utility.yul\":1908:1925   */\n      add\n        /* \"#utility.yul\":1899:1905   */\n      dup10\n        /* \"#utility.yul\":1861:1926   */\n      tag_64\n      jump\t// in\n    tag_91:\n        /* \"#utility.yul\":1936:2008   */\n      tag_92\n        /* \"#utility.yul\":2004:2006   */\n      0x20\n        /* \"#utility.yul\":1993:2002   */\n      dup4\n        /* \"#utility.yul\":1989:2007   */\n      add\n        /* \"#utility.yul\":1980:1986   */\n      dup9\n        /* \"#utility.yul\":1936:2008   */\n      tag_60\n      jump\t// in\n    tag_92:\n        /* \"#utility.yul\":2018:2088   */\n      tag_93\n        /* \"#utility.yul\":2084:2086   */\n      0x40\n        /* \"#utility.yul\":2073:2082   */\n      dup4\n        /* \"#utility.yul\":2069:2087   */\n      add\n        /* \"#utility.yul\":2060:2066   */\n      dup8\n        /* \"#utility.yul\":2018:2088   */\n      tag_76\n      jump\t// in\n    tag_93:\n        /* \"#utility.yul\":2098:2176   */\n      tag_94\n        /* \"#utility.yul\":2172:2174   */\n      0x60\n        /* \"#utility.yul\":2161:2170   */\n      dup4\n        /* \"#utility.yul\":2157:2175   */\n      add\n        /* \"#utility.yul\":2148:2154   */\n      dup7\n        /* \"#utility.yul\":2098:2176   */\n      tag_72\n      jump\t// in\n    tag_94:\n        /* \"#utility.yul\":2186:2259   */\n      tag_95\n        /* \"#utility.yul\":2254:2257   */\n      0x80\n        /* \"#utility.yul\":2243:2252   */\n      dup4\n        /* \"#utility.yul\":2239:2258   */\n      add\n        /* \"#utility.yul\":2230:2236   */\n      dup6\n        /* \"#utility.yul\":2186:2259   */\n      tag_68\n      jump\t// in\n    tag_95:\n        /* \"#utility.yul\":2269:2342   */\n      tag_96\n        /* \"#utility.yul\":2337:2340   */\n      0xa0\n        /* \"#utility.yul\":2326:2335   */\n      dup4\n        /* \"#utility.yul\":2322:2341   */\n      add\n        /* \"#utility.yul\":2313:2319   */\n      dup5\n        /* \"#utility.yul\":2269:2342   */\n      tag_68\n      jump\t// in\n    tag_96:\n        /* \"#utility.yul\":1578:2349   */\n      swap8\n      swap7\n      pop\n      pop\n      pop\n      pop\n      pop\n      pop\n      pop\n      jump\t// out\n        /* \"#utility.yul\":2355:2785   */\n    tag_17:\n        /* \"#utility.yul\":2498:2502   */\n      0x00\n        /* \"#utility.yul\":2536:2538   */\n      0x60\n        /* \"#utility.yul\":2525:2534   */\n      dup3\n        /* \"#utility.yul\":2521:2539   */\n      add\n        /* \"#utility.yul\":2513:2539   */\n      swap1\n      pop\n        /* \"#utility.yul\":2549:2614   */\n      tag_98\n        /* \"#utility.yul\":2611:2612   */\n      0x00\n        /* \"#utility.yul\":2600:2609   */\n      dup4\n        /* \"#utility.yul\":2596:2613   */\n      add\n        /* \"#utility.yul\":2587:2593   */\n      dup7\n        /* \"#utility.yul\":2549:2614   */\n      tag_64\n      jump\t// in\n    tag_98:\n        /* \"#utility.yul\":2624:2696   */\n      tag_99\n        /* \"#utility.yul\":2692:2694   */\n      0x20\n        /* \"#utility.yul\":2681:2690   */\n      dup4\n        /* \"#utility.yul\":2677:2695   */\n      add\n        /* \"#utility.yul\":2668:2674   */\n      dup6\n        /* \"#utility.yul\":2624:2696   */\n      tag_68\n      jump\t// in\n    tag_99:\n        /* \"#utility.yul\":2706:2778   */\n      tag_100\n        /* \"#utility.yul\":2774:2776   */\n      0x40\n        /* \"#utility.yul\":2763:2772   */\n      dup4\n        /* \"#utility.yul\":2759:2777   */\n      add\n        /* \"#utility.yul\":2750:2756   */\n      dup5\n        /* \"#utility.yul\":2706:2778   */\n      tag_68\n      jump\t// in\n    tag_100:\n        /* \"#utility.yul\":2355:2785   */\n      swap5\n      swap4\n      pop\n      pop\n      pop\n      pop\n      jump\t// out\n        /* \"#utility.yul\":2791:3332   */\n    tag_31:\n        /* \"#utility.yul\":2962:2966   */\n      0x00\n        /* \"#utility.yul\":3000:3003   */\n      0x80\n        /* \"#utility.yul\":2989:2998   */\n      dup3\n        /* \"#utility.yul\":2985:3004   */\n      add\n        /* \"#utility.yul\":2977:3004   */\n      swap1\n      pop\n        /* \"#utility.yul\":3014:3079   */\n      tag_102\n        /* \"#utility.yul\":3076:3077   */\n      0x00\n        /* \"#utility.yul\":3065:3074   */\n      dup4\n        /* \"#utility.yul\":3061:3078   */\n      add\n        /* \"#utility.yul\":3052:3058   */\n      dup8\n        /* \"#utility.yul\":3014:3079   */\n      tag_64\n      jump\t// in\n    tag_102:\n        /* \"#utility.yul\":3089:3161   */\n      tag_103\n        /* \"#utility.yul\":3157:3159   */\n      0x20\n        /* \"#utility.yul\":3146:3155   */\n      dup4\n        /* \"#utility.yul\":3142:3160   */\n      add\n        /* \"#utility.yul\":3133:3139   */\n      dup7\n        /* \"#utility.yul\":3089:3161   */\n      tag_68\n      jump\t// in\n    tag_103:\n        /* \"#utility.yul\":3171:3243   */\n      tag_104\n        /* \"#utility.yul\":3239:3241   */\n      0x40\n        /* \"#utility.yul\":3228:3237   */\n      dup4\n        /* \"#utility.yul\":3224:3242   */\n      add\n        /* \"#utility.yul\":3215:3221   */\n      dup6\n        /* \"#utility.yul\":3171:3243   */\n      tag_80\n      jump\t// in\n    tag_104:\n        /* \"#utility.yul\":3253:3325   */\n      tag_105\n        /* \"#utility.yul\":3321:3323   */\n      0x60\n        /* \"#utility.yul\":3310:3319   */\n      dup4\n        /* \"#utility.yul\":3306:3324   */\n      add\n        /* \"#utility.yul\":3297:3303   */\n      dup5\n        /* \"#utility.yul\":3253:3325   */\n      tag_68\n      jump\t// in\n    tag_105:\n        /* \"#utility.yul\":2791:3332   */\n      swap6\n      swap5\n      pop\n      pop\n      pop\n      pop\n      pop\n      jump\t// out\n        /* \"#utility.yul\":3338:3760   */\n    tag_22:\n        /* \"#utility.yul\":3477:3481   */\n      0x00\n        /* \"#utility.yul\":3515:3517   */\n      0x60\n        /* \"#utility.yul\":3504:3513   */\n      dup3\n        /* \"#utility.yul\":3500:3518   */\n      add\n        /* \"#utility.yul\":3492:3518   */\n      swap1\n      pop\n        /* \"#utility.yul\":3528:3593   */\n      tag_107\n        /* \"#utility.yul\":3590:3591   */\n      0x00\n        /* \"#utility.yul\":3579:3588   */\n      dup4\n        /* \"#utility.yul\":3575:3592   */\n      add\n        /* \"#utility.yul\":3566:3572   */\n      dup7\n        /* \"#utility.yul\":3528:3593   */\n      tag_64\n      jump\t// in\n    tag_107:\n        /* \"#utility.yul\":3603:3675   */\n      tag_108\n        /* \"#utility.yul\":3671:3673   */\n      0x20\n        /* \"#utility.yul\":3660:3669   */\n      dup4\n        /* \"#utility.yul\":3656:3674   */\n      add\n        /* \"#utility.yul\":3647:3653   */\n      dup6\n        /* \"#utility.yul\":3603:3675   */\n      tag_68\n      jump\t// in\n    tag_108:\n        /* \"#utility.yul\":3685:3753   */\n      tag_109\n        /* \"#utility.yul\":3749:3751   */\n      0x40\n        /* \"#utility.yul\":3738:3747   */\n      dup4\n        /* \"#utility.yul\":3734:3752   */\n      add\n        /* \"#utility.yul\":3725:3731   */\n      dup5\n        /* \"#utility.yul\":3685:3753   */\n      tag_84\n      jump\t// in\n    tag_109:\n        /* \"#utility.yul\":3338:3760   */\n      swap5\n      swap4\n      pop\n      pop\n      pop\n      pop\n      jump\t// out\n        /* \"#utility.yul\":3847:3943   */\n    tag_63:\n        /* \"#utility.yul\":3884:3891   */\n      0x00\n        /* \"#utility.yul\":3913:3937   */\n      tag_113\n        /* \"#utility.yul\":3931:3936   */\n      dup3\n        /* \"#utility.yul\":3913:3937   */\n      tag_114\n      jump\t// in\n    tag_113:\n        /* \"#utility.yul\":3902:3937   */\n      swap1\n      pop\n        /* \"#utility.yul\":3847:3943   */\n      swap2\n      swap1\n      pop\n      jump\t// out\n        /* \"#utility.yul\":3949:4039   */\n    tag_67:\n        /* \"#utility.yul\":3983:3990   */\n      0x00\n        /* \"#utility.yul\":4026:4031   */\n      dup2\n        /* \"#utility.yul\":4019:4032   */\n      iszero\n        /* \"#utility.yul\":4012:4033   */\n      iszero\n        /* \"#utility.yul\":4001:4033   */\n      swap1\n      pop\n        /* \"#utility.yul\":3949:4039   */\n      swap2\n      swap1\n      pop\n      jump\t// out\n        /* \"#utility.yul\":4045:4122   */\n    tag_71:\n        /* \"#utility.yul\":4082:4089   */\n      0x00\n        /* \"#utility.yul\":4111:4116   */\n      dup2\n        /* \"#utility.yul\":4100:4116   */\n      swap1\n      pop\n        /* \"#utility.yul\":4045:4122   */\n      swap2\n      swap1\n      pop\n      jump\t// out\n        /* \"#utility.yul\":4128:4255   */\n    tag_117:\n        /* \"#utility.yul\":4173:4180   */\n      0x00\n        /* \"#utility.yul\":4202:4207   */\n      dup2\n        /* \"#utility.yul\":4191:4207   */\n      swap1\n      pop\n        /* \"#utility.yul\":4208:4249   */\n      tag_119\n        /* \"#utility.yul\":4243:4248   */\n      dup3\n        /* \"#utility.yul\":4208:4249   */\n      tag_120\n      jump\t// in\n    tag_119:\n        /* \"#utility.yul\":4128:4255   */\n      swap2\n      swap1\n      pop\n      jump\t// out\n        /* \"#utility.yul\":4261:4350   */\n    tag_79:\n        /* \"#utility.yul\":4297:4304   */\n      0x00\n        /* \"#utility.yul\":4337:4343   */\n      0xffff\n        /* \"#utility.yul\":4330:4335   */\n      dup3\n        /* \"#utility.yul\":4326:4344   */\n      and\n        /* \"#utility.yul\":4315:4344   */\n      swap1\n      pop\n        /* \"#utility.yul\":4261:4350   */\n      swap2\n      swap1\n      pop\n      jump\t// out\n        /* \"#utility.yul\":4356:4482   */\n    tag_114:\n        /* \"#utility.yul\":4393:4400   */\n      0x00\n        /* \"#utility.yul\":4433:4475   */\n      0xffffffffffffffffffffffffffffffffffffffff\n        /* \"#utility.yul\":4426:4431   */\n      dup3\n        /* \"#utility.yul\":4422:4476   */\n      and\n        /* \"#utility.yul\":4411:4476   */\n      swap1\n      pop\n        /* \"#utility.yul\":4356:4482   */\n      swap2\n      swap1\n      pop\n      jump\t// out\n        /* \"#utility.yul\":4488:4565   */\n    tag_83:\n        /* \"#utility.yul\":4525:4532   */\n      0x00\n        /* \"#utility.yul\":4554:4559   */\n      dup2\n        /* \"#utility.yul\":4543:4559   */\n      swap1\n      pop\n        /* \"#utility.yul\":4488:4565   */\n      swap2\n      swap1\n      pop\n      jump\t// out\n        /* \"#utility.yul\":4571:4657   */\n    tag_87:\n        /* \"#utility.yul\":4606:4613   */\n      0x00\n        /* \"#utility.yul\":4646:4650   */\n      0xff\n        /* \"#utility.yul\":4639:4644   */\n      dup3\n        /* \"#utility.yul\":4635:4651   */\n      and\n        /* \"#utility.yul\":4624:4651   */\n      swap1\n      pop\n        /* \"#utility.yul\":4571:4657   */\n      swap2\n      swap1\n      pop\n      jump\t// out\n        /* \"#utility.yul\":4663:4790   */\n    tag_75:\n        /* \"#utility.yul\":4719:4728   */\n      0x00\n        /* \"#utility.yul\":4752:4784   */\n      tag_126\n        /* \"#utility.yul\":4778:4783   */\n      dup3\n        /* \"#utility.yul\":4752:4784   */\n      tag_117\n      jump\t// in\n    tag_126:\n        /* \"#utility.yul\":4739:4784   */\n      swap1\n      pop\n        /* \"#utility.yul\":4663:4790   */\n      swap2\n      swap1\n      pop\n      jump\t// out\n        /* \"#utility.yul\":4796:4976   */\n    tag_127:\n        /* \"#utility.yul\":4844:4921   */\n      0x4e487b7100000000000000000000000000000000000000000000000000000000\n        /* \"#utility.yul\":4841:4842   */\n      0x00\n        /* \"#utility.yul\":4834:4922   */\n      mstore\n        /* \"#utility.yul\":4941:4945   */\n      0x21\n        /* \"#utility.yul\":4938:4939   */\n      0x04\n        /* \"#utility.yul\":4931:4946   */\n      mstore\n        /* \"#utility.yul\":4965:4969   */\n      0x24\n        /* \"#utility.yul\":4962:4963   */\n      0x00\n        /* \"#utility.yul\":4955:4970   */\n      revert\n        /* \"#utility.yul\":5105:5222   */\n    tag_58:\n        /* \"#utility.yul\":5214:5215   */\n      0x00\n        /* \"#utility.yul\":5211:5212   */\n      dup1\n        /* \"#utility.yul\":5204:5216   */\n      revert\n        /* \"#utility.yul\":5228:5341   */\n    tag_120:\n        /* \"#utility.yul\":5309:5310   */\n      0x04\n        /* \"#utility.yul\":5302:5307   */\n      dup2\n        /* \"#utility.yul\":5299:5311   */\n      lt\n        /* \"#utility.yul\":5289:5335   */\n      tag_133\n      jumpi\n        /* \"#utility.yul\":5315:5333   */\n      tag_134\n      tag_127\n      jump\t// in\n    tag_134:\n        /* \"#utility.yul\":5289:5335   */\n    tag_133:\n        /* \"#utility.yul\":5228:5341   */\n      pop\n      jump\t// out\n        /* \"#utility.yul\":5347:5469   */\n    tag_54:\n        /* \"#utility.yul\":5420:5444   */\n      tag_136\n        /* \"#utility.yul\":5438:5443   */\n      dup2\n        /* \"#utility.yul\":5420:5444   */\n      tag_63\n      jump\t// in\n    tag_136:\n        /* \"#utility.yul\":5413:5418   */\n      dup2\n        /* \"#utility.yul\":5410:5445   */\n      eq\n        /* \"#utility.yul\":5400:5463   */\n      tag_137\n      jumpi\n        /* \"#utility.yul\":5459:5460   */\n      0x00\n        /* \"#utility.yul\":5456:5457   */\n      dup1\n        /* \"#utility.yul\":5449:5461   */\n      revert\n        /* \"#utility.yul\":5400:5463   */\n    tag_137:\n        /* \"#utility.yul\":5347:5469   */\n      pop\n      jump\t// out\n\n    auxdata: 0xa26469706673582212202f663dedfbd0956fb615e53591f443a8ef1f69a2a99ec8f019749926658a4c9964736f6c63430008070033\n}\n",
				"bytecode": {
					"linkReferences": {},
					"object": "608060405234801561001057600080fd5b5061072c806100206000396000f3fe608060405234801561001057600080fd5b50600436106100885760003560e01c80637d0fa2871161005b5780637d0fa287146101565780639a8c911914610188578063ba479b7e146101ba578063cbc92809146101ef57610088565b80631916e1391461008d57806328266697146100bf578063356b1f1e146100f157806339987f9414610123575b600080fd5b6100a760048036038101906100a29190610440565b61021f565b6040516100b693929190610552565b60405180910390f35b6100d960048036038101906100d49190610440565b610256565b6040516100e8939291906105ce565b60405180910390f35b61010b60048036038101906101069190610440565b61029a565b60405161011a93929190610552565b60405180910390f35b61013d60048036038101906101389190610440565b6102d1565b60405161014d9493929190610589565b60405180910390f35b610170600480360381019061016b9190610440565b61030e565b60405161017f93929190610552565b60405180910390f35b6101a2600480360381019061019d9190610440565b610345565b6040516101b193929190610552565b60405180910390f35b6101d460048036038101906101cf9190610440565b61037c565b6040516101e6969594939291906104f1565b60405180910390f35b61020960048036038101906102049190610440565b610400565b60405161021691906104d6565b60405180910390f35b60076020528060005260406000206000915090508060000160009054906101000a900460ff16908060010154908060020154905083565b60046020528060005260406000206000915090508060000160009054906101000a900460ff16908060010154908060020160009054906101000a900460ff16905083565b600a6020528060005260406000206000915090508060000160009054906101000a900460ff16908060010154908060020154905083565b60066020528060005260406000206000915090508060000160009054906101000a900460ff16908060010154908060020154908060030154905084565b60086020528060005260406000206000915090508060000160009054906101000a900460ff16908060010154908060020154905083565b60096020528060005260406000206000915090508060000160009054906101000a900460ff16908060010154908060020154905083565b60056020528060005260406000206000915090508060000160009054906101000a900460ff16908060000160019054906101000a900473ffffffffffffffffffffffffffffffffffffffff16908060000160159054906101000a900461ffff16908060000160179054906101000a900460ff16908060010154908060020154905086565b60036020528060005260406000206000915090508060000160009054906101000a900460ff16905081565b60008135905061043a816106df565b92915050565b600060208284031215610456576104556106c6565b5b60006104648482850161042b565b91505092915050565b61047681610605565b82525050565b61048581610617565b82525050565b61049481610623565b82525050565b6104a381610685565b82525050565b6104b281610640565b82525050565b6104c18161066e565b82525050565b6104d081610678565b82525050565b60006020820190506104eb600083018461047c565b92915050565b600060c082019050610506600083018961047c565b610513602083018861046d565b61052060408301876104a9565b61052d606083018661049a565b61053a608083018561048b565b61054760a083018461048b565b979650505050505050565b6000606082019050610567600083018661047c565b610574602083018561048b565b610581604083018461048b565b949350505050565b600060808201905061059e600083018761047c565b6105ab602083018661048b565b6105b860408301856104b8565b6105c5606083018461048b565b95945050505050565b60006060820190506105e3600083018661047c565b6105f0602083018561048b565b6105fd60408301846104c7565b949350505050565b60006106108261064e565b9050919050565b60008115159050919050565b6000819050919050565b600081905061063b826106cb565b919050565b600061ffff82169050919050565b600073ffffffffffffffffffffffffffffffffffffffff82169050919050565b6000819050919050565b600060ff82169050919050565b60006106908261062d565b9050919050565b7f4e487b7100000000000000000000000000000000000000000000000000000000600052602160045260246000fd5b600080fd5b600481106106dc576106db610697565b5b50565b6106e881610605565b81146106f357600080fd5b5056fea26469706673582212202f663dedfbd0956fb615e53591f443a8ef1f69a2a99ec8f019749926658a4c9964736f6c63430008070033",
					"opcodes": "PUSH1 0x80 PUSH1 0x40 MSTORE CALLVALUE DUP1 ISZERO PUSH2 0x10 JUMPI PUSH1 0x0 DUP1 REVERT JUMPDEST POP PUSH2 0x72C DUP1 PUSH2 0x20 PUSH1 0x0 CODECOPY PUSH1 0x0 RETURN INVALID PUSH1 0x80 PUSH1 0x40 MSTORE CALLVALUE DUP1 ISZERO PUSH2 0x10 JUMPI PUSH1 0x0 DUP1 REVERT JUMPDEST POP PUSH1 0x4 CALLDATASIZE LT PUSH2 0x88 JUMPI PUSH1 0x0 CALLDATALOAD PUSH1 0xE0 SHR DUP1 PUSH4 0x7D0FA287 GT PUSH2 0x5B JUMPI DUP1 PUSH4 0x7D0FA287 EQ PUSH2 0x156 JUMPI DUP1 PUSH4 0x9A8C9119 EQ PUSH2 0x188 JUMPI DUP1 PUSH4 0xBA479B7E EQ PUSH2 0x1BA JUMPI DUP1 PUSH4 0xCBC92809 EQ PUSH2 0x1EF JUMPI PUSH2 0x88 JUMP JUMPDEST DUP1 PUSH4 0x1916E139 EQ PUSH2 0x8D JUMPI DUP1 PUSH4 0x28266697 EQ PUSH2 0xBF JUMPI DUP1 PUSH4 0x356B1F1E EQ PUSH2 0xF1 JUMPI DUP1 PUSH4 0x39987F94 EQ PUSH2 0x123 JUMPI JUMPDEST PUSH1 0x0 DUP1 REVERT JUMPDEST PUSH2 0xA7 PUSH1 0x4 DUP1 CALLDATASIZE SUB DUP2 ADD SWAP1 PUSH2 0xA2 SWAP2 SWAP1 PUSH2 0x440 JUMP JUMPDEST PUSH2 0x21F JUMP JUMPDEST PUSH1 0x40 MLOAD PUSH2 0xB6 SWAP4 SWAP3 SWAP2 SWAP1 PUSH2 0x552 JUMP JUMPDEST PUSH1 0x40 MLOAD DUP1 SWAP2 SUB SWAP1 RETURN JUMPDEST PUSH2 0xD9 PUSH1 0x4 DUP1 CALLDATASIZE SUB DUP2 ADD SWAP1 PUSH2 0xD4 SWAP2 SWAP1 PUSH2 0x440 JUMP JUMPDEST PUSH2 0x256 JUMP JUMPDEST PUSH1 0x40 MLOAD PUSH2 0xE8 SWAP4 SWAP3 SWAP2 SWAP1 PUSH2 0x5CE JUMP JUMPDEST PUSH1 0x40 MLOAD DUP1 SWAP2 SUB SWAP1 RETURN JUMPDEST PUSH2 0x10B PUSH1 0x4 DUP1 CALLDATASIZE SUB DUP2 ADD SWAP1 PUSH2 0x106 SWAP2 SWAP1 PUSH2 0x440 JUMP JUMPDEST PUSH2 0x29A JUMP JUMPDEST PUSH1 0x40 MLOAD PUSH2 0x11A SWAP4 SWAP3 SWAP2 SWAP1 PUSH2 0x552 JUMP JUMPDEST PUSH1 0x40 MLOAD DUP1 SWAP2 SUB SWAP1 RETURN JUMPDEST PUSH2 0x13D PUSH1 0x4 DUP1 CALLDATASIZE SUB DUP2 ADD SWAP1 PUSH2 0x138 SWAP2 SWAP1 PUSH2 0x440 JUMP JUMPDEST PUSH2 0x2D1 JUMP JUMPDEST PUSH1 0x40 MLOAD PUSH2 0x14D SWAP5 SWAP4 SWAP3 SWAP2 SWAP1 PUSH2 0x589 JUMP JUMPDEST PUSH1 0x40 MLOAD DUP1 SWAP2 SUB SWAP1 RETURN JUMPDEST PUSH2 0x170 PUSH1 0x4 DUP1 CALLDATASIZE SUB DUP2 ADD SWAP1 PUSH2 0x16B SWAP2 SWAP1 PUSH2 0x440 JUMP JUMPDEST PUSH2 0x30E JUMP JUMPDEST PUSH1 0x40 MLOAD PUSH2 0x17F SWAP4 SWAP3 SWAP2 SWAP1 PUSH2 0x552 JUMP JUMPDEST PUSH1 0x40 MLOAD DUP1 SWAP2 SUB SWAP1 RETURN JUMPDEST PUSH2 0x1A2 PUSH1 0x4 DUP1 CALLDATASIZE SUB DUP2 ADD SWAP1 PUSH2 0x19D SWAP2 SWAP1 PUSH2 0x440 JUMP JUMPDEST PUSH2 0x345 JUMP JUMPDEST PUSH1 0x40 MLOAD PUSH2 0x1B1 SWAP4 SWAP3 SWAP2 SWAP1 PUSH2 0x552 JUMP JUMPDEST PUSH1 0x40 MLOAD DUP1 SWAP2 SUB SWAP1 RETURN JUMPDEST PUSH2 0x1D4 PUSH1 0x4 DUP1 CALLDATASIZE SUB DUP2 ADD SWAP1 PUSH2 0x1CF SWAP2 SWAP1 PUSH2 0x440 JUMP JUMPDEST PUSH2 0x37C JUMP JUMPDEST PUSH1 0x40 MLOAD PUSH2 0x1E6 SWAP7 SWAP6 SWAP5 SWAP4 SWAP3 SWAP2 SWAP1 PUSH2 0x4F1 JUMP JUMPDEST PUSH1 0x40 MLOAD DUP1 SWAP2 SUB SWAP1 RETURN JUMPDEST PUSH2 0x209 PUSH1 0x4 DUP1 CALLDATASIZE SUB DUP2 ADD SWAP1 PUSH2 0x204 SWAP2 SWAP1 PUSH2 0x440 JUMP JUMPDEST PUSH2 0x400 JUMP JUMPDEST PUSH1 0x40 MLOAD PUSH2 0x216 SWAP2 SWAP1 PUSH2 0x4D6 JUMP JUMPDEST PUSH1 0x40 MLOAD DUP1 SWAP2 SUB SWAP1 RETURN JUMPDEST PUSH1 0x7 PUSH1 0x20 MSTORE DUP1 PUSH1 0x0 MSTORE PUSH1 0x40 PUSH1 0x0 KECCAK256 PUSH1 0x0 SWAP2 POP SWAP1 POP DUP1 PUSH1 0x0 ADD PUSH1 0x0 SWAP1 SLOAD SWAP1 PUSH2 0x100 EXP SWAP1 DIV PUSH1 0xFF AND SWAP1 DUP1 PUSH1 0x1 ADD SLOAD SWAP1 DUP1 PUSH1 0x2 ADD SLOAD SWAP1 POP DUP4 JUMP JUMPDEST PUSH1 0x4 PUSH1 0x20 MSTORE DUP1 PUSH1 0x0 MSTORE PUSH1 0x40 PUSH1 0x0 KECCAK256 PUSH1 0x0 SWAP2 POP SWAP1 POP DUP1 PUSH1 0x0 ADD PUSH1 0x0 SWAP1 SLOAD SWAP1 PUSH2 0x100 EXP SWAP1 DIV PUSH1 0xFF AND SWAP1 DUP1 PUSH1 0x1 ADD SLOAD SWAP1 DUP1 PUSH1 0x2 ADD PUSH1 0x0 SWAP1 SLOAD SWAP1 PUSH2 0x100 EXP SWAP1 DIV PUSH1 0xFF AND SWAP1 POP DUP4 JUMP JUMPDEST PUSH1 0xA PUSH1 0x20 MSTORE DUP1 PUSH1 0x0 MSTORE PUSH1 0x40 PUSH1 0x0 KECCAK256 PUSH1 0x0 SWAP2 POP SWAP1 POP DUP1 PUSH1 0x0 ADD PUSH1 0x0 SWAP1 SLOAD SWAP1 PUSH2 0x100 EXP SWAP1 DIV PUSH1 0xFF AND SWAP1 DUP1 PUSH1 0x1 ADD SLOAD SWAP1 DUP1 PUSH1 0x2 ADD SLOAD SWAP1 POP DUP4 JUMP JUMPDEST PUSH1 0x6 PUSH1 0x20 MSTORE DUP1 PUSH1 0x0 MSTORE PUSH1 0x40 PUSH1 0x0 KECCAK256 PUSH1 0x0 SWAP2 POP SWAP1 POP DUP1 PUSH1 0x0 ADD PUSH1 0x0 SWAP1 SLOAD SWAP1 PUSH2 0x100 EXP SWAP1 DIV PUSH1 0xFF AND SWAP1 DUP1 PUSH1 0x1 ADD SLOAD SWAP1 DUP1 PUSH1 0x2 ADD SLOAD SWAP1 DUP1 PUSH1 0x3 ADD SLOAD SWAP1 POP DUP5 JUMP JUMPDEST PUSH1 0x8 PUSH1 0x20 MSTORE DUP1 PUSH1 0x0 MSTORE PUSH1 0x40 PUSH1 0x0 KECCAK256 PUSH1 0x0 SWAP2 POP SWAP1 POP DUP1 PUSH1 0x0 ADD PUSH1 0x0 SWAP1 SLOAD SWAP1 PUSH2 0x100 EXP SWAP1 DIV PUSH1 0xFF AND SWAP1 DUP1 PUSH1 0x1 ADD SLOAD SWAP1 DUP1 PUSH1 0x2 ADD SLOAD SWAP1 POP DUP4 JUMP JUMPDEST PUSH1 0x9 PUSH1 0x20 MSTORE DUP1 PUSH1 0x0 MSTORE PUSH1 0x40 PUSH1 0x0 KECCAK256 PUSH1 0x0 SWAP2 POP SWAP1 POP DUP1 PUSH1 0x0 ADD PUSH1 0x0 SWAP1 SLOAD SWAP1 PUSH2 0x100 EXP SWAP1 DIV PUSH1 0xFF AND SWAP1 DUP1 PUSH1 0x1 ADD SLOAD SWAP1 DUP1 PUSH1 0x2 ADD SLOAD SWAP1 POP DUP4 JUMP JUMPDEST PUSH1 0x5 PUSH1 0x20 MSTORE DUP1 PUSH1 0x0 MSTORE PUSH1 0x40 PUSH1 0x0 KECCAK256 PUSH1 0x0 SWAP2 POP SWAP1 POP DUP1 PUSH1 0x0 ADD PUSH1 0x0 SWAP1 SLOAD SWAP1 PUSH2 0x100 EXP SWAP1 DIV PUSH1 0xFF AND SWAP1 DUP1 PUSH1 0x0 ADD PUSH1 0x1 SWAP1 SLOAD SWAP1 PUSH2 0x100 EXP SWAP1 DIV PUSH20 0xFFFFFFFFFFFFFFFFFFFFFFFFFFFFFFFFFFFFFFFF AND SWAP1 DUP1 PUSH1 0x0 ADD PUSH1 0x15 SWAP1 SLOAD SWAP1 PUSH2 0x100 EXP SWAP1 DIV PUSH2 0xFFFF AND SWAP1 DUP1 PUSH1 0x0 ADD PUSH1 0x17 SWAP1 SLOAD SWAP1 PUSH2 0x100 EXP SWAP1 DIV PUSH1 0xFF AND SWAP1 DUP1 PUSH1 0x1 ADD SLOAD SWAP1 DUP1 PUSH1 0x2 ADD SLOAD SWAP1 POP DUP7 JUMP JUMPDEST PUSH1 0x3 PUSH1 0x20 MSTORE DUP1 PUSH1 0x0 MSTORE PUSH1 0x40 PUSH1 0x0 KECCAK256 PUSH1 0x0 SWAP2 POP SWAP1 POP DUP1 PUSH1 0x0 ADD PUSH1 0x0 SWAP1 SLOAD SWAP1 PUSH2 0x100 EXP SWAP1 DIV PUSH1 0xFF AND SWAP1 POP DUP2 JUMP JUMPDEST PUSH1 0x0 DUP2 CALLDATALOAD SWAP1 POP PUSH2 0x43A DUP2 PUSH2 0x6DF JUMP JUMPDEST SWAP3 SWAP2 POP POP JUMP JUMPDEST PUSH1 0x0 PUSH1 0x20 DUP3 DUP5 SUB SLT ISZERO PUSH2 0x456 JUMPI PUSH2 0x455 PUSH2 0x6C6 JUMP JUMPDEST JUMPDEST PUSH1 0x0 PUSH2 0x464 DUP5 DUP3 DUP6 ADD PUSH2 0x42B JUMP JUMPDEST SWAP2 POP POP SWAP3 SWAP2 POP POP JUMP JUMPDEST PUSH2 0x476 DUP2 PUSH2 0x605 JUMP JUMPDEST DUP3 MSTORE POP POP JUMP JUMPDEST PUSH2 0x485 DUP2 PUSH2 0x617 JUMP JUMPDEST DUP3 MSTORE POP POP JUMP JUMPDEST PUSH2 0x494 DUP2 PUSH2 0x623 JUMP JUMPDEST DUP3 MSTORE POP POP JUMP JUMPDEST PUSH2 0x4A3 DUP2 PUSH2 0x685 JUMP JUMPDEST DUP3 MSTORE POP POP JUMP JUMPDEST PUSH2 0x4B2 DUP2 PUSH2 0x640 JUMP JUMPDEST DUP3 MSTORE POP POP JUMP JUMPDEST PUSH2 0x4C1 DUP2 PUSH2 0x66E JUMP JUMPDEST DUP3 MSTORE POP POP JUMP JUMPDEST PUSH2 0x4D0 DUP2 PUSH2 0x678 JUMP JUMPDEST DUP3 MSTORE POP POP JUMP JUMPDEST PUSH1 0x0 PUSH1 0x20 DUP3 ADD SWAP1 POP PUSH2 0x4EB PUSH1 0x0 DUP4 ADD DUP5 PUSH2 0x47C JUMP JUMPDEST SWAP3 SWAP2 POP POP JUMP JUMPDEST PUSH1 0x0 PUSH1 0xC0 DUP3 ADD SWAP1 POP PUSH2 0x506 PUSH1 0x0 DUP4 ADD DUP10 PUSH2 0x47C JUMP JUMPDEST PUSH2 0x513 PUSH1 0x20 DUP4 ADD DUP9 PUSH2 0x46D JUMP JUMPDEST PUSH2 0x520 PUSH1 0x40 DUP4 ADD DUP8 PUSH2 0x4A9 JUMP JUMPDEST PUSH2 0x52D PUSH1 0x60 DUP4 ADD DUP7 PUSH2 0x49A JUMP JUMPDEST PUSH2 0x53A PUSH1 0x80 DUP4 ADD DUP6 PUSH2 0x48B JUMP JUMPDEST PUSH2 0x547 PUSH1 0xA0 DUP4 ADD DUP5 PUSH2 0x48B JUMP JUMPDEST SWAP8 SWAP7 POP POP POP POP POP POP POP JUMP JUMPDEST PUSH1 0x0 PUSH1 0x60 DUP3 ADD SWAP1 POP PUSH2 0x567 PUSH1 0x0 DUP4 ADD DUP7 PUSH2 0x47C JUMP JUMPDEST PUSH2 0x574 PUSH1 0x20 DUP4 ADD DUP6 PUSH2 0x48B JUMP JUMPDEST PUSH2 0x581 PUSH1 0x40 DUP4 ADD DUP5 PUSH2 0x48B JUMP JUMPDEST SWAP5 SWAP4 POP POP POP POP JUMP JUMPDEST PUSH1 0x0 PUSH1 0x80 DUP3 ADD SWAP1 POP PUSH2 0x59E PUSH1 0x0 DUP4 ADD DUP8 PUSH2 0x47C JUMP JUMPDEST PUSH2 0x5AB PUSH1 0x20 DUP4 ADD DUP7 PUSH2 0x48B JUMP JUMPDEST PUSH2 0x5B8 PUSH1 0x40 DUP4 ADD DUP6 PUSH2 0x4B8 JUMP JUMPDEST PUSH2 0x5C5 PUSH1 0x60 DUP4 ADD DUP5 PUSH2 0x48B JUMP JUMPDEST SWAP6 SWAP5 POP POP POP POP POP JUMP JUMPDEST PUSH1 0x0 PUSH1 0x60 DUP3 ADD SWAP1 POP PUSH2 0x5E3 PUSH1 0x0 DUP4 ADD DUP7 PUSH2 0x47C JUMP JUMPDEST PUSH2 0x5F0 PUSH1 0x20 DUP4 ADD DUP6 PUSH2 0x48B JUMP JUMPDEST PUSH2 0x5FD PUSH1 0x40 DUP4 ADD DUP5 PUSH2 0x4C7 JUMP JUMPDEST SWAP5 SWAP4 POP POP POP POP JUMP JUMPDEST PUSH1 0x0 PUSH2 0x610 DUP3 PUSH2 0x64E JUMP JUMPDEST SWAP1 POP SWAP2 SWAP1 POP JUMP JUMPDEST PUSH1 0x0 DUP2 ISZERO ISZERO SWAP1 POP SWAP2 SWAP1 POP JUMP JUMPDEST PUSH1 0x0 DUP2 SWAP1 POP SWAP2 SWAP1 POP JUMP JUMPDEST PUSH1 0x0 DUP2 SWAP1 POP PUSH2 0x63B DUP3 PUSH2 0x6CB JUMP JUMPDEST SWAP2 SWAP1 POP JUMP JUMPDEST PUSH1 0x0 PUSH2 0xFFFF DUP3 AND SWAP1 POP SWAP2 SWAP1 POP JUMP JUMPDEST PUSH1 0x0 PUSH20 0xFFFFFFFFFFFFFFFFFFFFFFFFFFFFFFFFFFFFFFFF DUP3 AND SWAP1 POP SWAP2 SWAP1 POP JUMP JUMPDEST PUSH1 0x0 DUP2 SWAP1 POP SWAP2 SWAP1 POP JUMP JUMPDEST PUSH1 0x0 PUSH1 0xFF DUP3 AND SWAP1 POP SWAP2 SWAP1 POP JUMP JUMPDEST PUSH1 0x0 PUSH2 0x690 DUP3 PUSH2 0x62D JUMP JUMPDEST SWAP1 POP SWAP2 SWAP1 POP JUMP JUMPDEST PUSH32 0x4E487B7100000000000000000000000000000000000000000000000000000000 PUSH1 0x0 MSTORE PUSH1 0x21 PUSH1 0x4 MSTORE PUSH1 0x24 PUSH1 0x0 REVERT JUMPDEST PUSH1 0x0 DUP1 REVERT JUMPDEST PUSH1 0x4 DUP2 LT PUSH2 0x6DC JUMPI PUSH2 0x6DB PUSH2 0x697 JUMP JUMPDEST JUMPDEST POP JUMP JUMPDEST PUSH2 0x6E8 DUP2 PUSH2 0x605 JUMP JUMPDEST DUP2 EQ PUSH2 0x6F3 JUMPI PUSH1 0x0 DUP1 REVERT JUMPDEST POP JUMP INVALID LOG2 PUSH5 0x6970667358 0x22 SLT KECCAK256 0x2F PUSH7 0x3DEDFBD0956FB6 ISZERO 0xE5 CALLDATALOAD SWAP2 DELEGATECALL NUMBER 0xA8 0xEF 0x1F PUSH10 0xA2A99EC8F01974992665 DUP11 0x4C SWAP10 PUSH5 0x736F6C6343 STOP ADDMOD SMOD STOP CALLER "
				},
				"gasEstimates": {
					"creation": {
						"codeDepositCost": "367200",
						"executionCost": "405",
						"totalCost": "367605"
					},
					"external": {
						"akademisyenler(address)": "infinite",
						"firmalar(address)": "infinite",
						"kamuKurumlari(address)": "infinite",
						"kisiler(address)": "2936",
						"kurslar(address)": "infinite",
						"sertifikaMerkezleri(address)": "infinite",
						"stklar(address)": "infinite",
						"universiteler(address)": "7359"
					}
				},
				"methodIdentifiers": {
					"akademisyenler(address)": "ba479b7e",
					"firmalar(address)": "39987f94",
					"kamuKurumlari(address)": "7d0fa287",
					"kisiler(address)": "cbc92809",
					"kurslar(address)": "1916e139",
					"sertifikaMerkezleri(address)": "356b1f1e",
					"stklar(address)": "9a8c9119",
					"universiteler(address)": "28266697"
				}
			},
			"storageLayout": {
				"storage": [
					{
						"astId": 3,
						"contract": "contracts/BaseContract.sol:BaseContract",
						"label": "YOK",
						"offset": 0,
						"slot": "0",
						"type": "t_address"
					},
					{
						"astId": 5,
						"contract": "contracts/BaseContract.sol:BaseContract",
						"label": "TOBB",
						"offset": 0,
						"slot": "1",
						"type": "t_address"
					},
					{
						"astId": 7,
						"contract": "contracts/BaseContract.sol:BaseContract",
						"label": "CB",
						"offset": 0,
						"slot": "2",
						"type": "t_address"
					},
					{
						"astId": 199,
						"contract": "contracts/BaseContract.sol:BaseContract",
						"label": "kisiler",
						"offset": 0,
						"slot": "3",
						"type": "t_mapping(t_address,t_struct(Kisi)10_storage)"
					},
					{
						"astId": 204,
						"contract": "contracts/BaseContract.sol:BaseContract",
						"label": "universiteler",
						"offset": 0,
						"slot": "4",
						"type": "t_mapping(t_address,t_struct(Universite)17_storage)"
					},
					{
						"astId": 209,
						"contract": "contracts/BaseContract.sol:BaseContract",
						"label": "akademisyenler",
						"offset": 0,
						"slot": "5",
						"type": "t_mapping(t_address,t_struct(Akademisyen)31_storage)"
					},
					{
						"astId": 214,
						"contract": "contracts/BaseContract.sol:BaseContract",
						"label": "firmalar",
						"offset": 0,
						"slot": "6",
						"type": "t_mapping(t_address,t_struct(Firma)51_storage)"
					},
					{
						"astId": 219,
						"contract": "contracts/BaseContract.sol:BaseContract",
						"label": "kurslar",
						"offset": 0,
						"slot": "7",
						"type": "t_mapping(t_address,t_struct(Kurs)79_storage)"
					},
					{
						"astId": 224,
						"contract": "contracts/BaseContract.sol:BaseContract",
						"label": "kamuKurumlari",
						"offset": 0,
						"slot": "8",
						"type": "t_mapping(t_address,t_struct(KamuKurumu)58_storage)"
					},
					{
						"astId": 229,
						"contract": "contracts/BaseContract.sol:BaseContract",
						"label": "stklar",
						"offset": 0,
						"slot": "9",
						"type": "t_mapping(t_address,t_struct(STK)65_storage)"
					},
					{
						"astId": 234,
						"contract": "contracts/BaseContract.sol:BaseContract",
						"label": "sertifikaMerkezleri",
						"offset": 0,
						"slot": "10",
						"type": "t_mapping(t_address,t_struct(SertifikaMerkezi)72_storage)"
					}
				],
				"types": {
					"t_address": {
						"encoding": "inplace",
						"label": "address",
						"numberOfBytes": "20"
					},
					"t_bool": {
						"encoding": "inplace",
						"label": "bool",
						"numberOfBytes": "1"
					},
					"t_bytes32": {
						"encoding": "inplace",
						"label": "bytes32",
						"numberOfBytes": "32"
					},
					"t_enum(Unvan)36": {
						"encoding": "inplace",
						"label": "enum BaseContract.Unvan",
						"numberOfBytes": "1"
					},
					"t_mapping(t_address,t_struct(Akademisyen)31_storage)": {
						"encoding": "mapping",
						"key": "t_address",
						"label": "mapping(address => struct BaseContract.Akademisyen)",
						"numberOfBytes": "32",
						"value": "t_struct(Akademisyen)31_storage"
					},
					"t_mapping(t_address,t_struct(Firma)51_storage)": {
						"encoding": "mapping",
						"key": "t_address",
						"label": "mapping(address => struct BaseContract.Firma)",
						"numberOfBytes": "32",
						"value": "t_struct(Firma)51_storage"
					},
					"t_mapping(t_address,t_struct(KamuKurumu)58_storage)": {
						"encoding": "mapping",
						"key": "t_address",
						"label": "mapping(address => struct BaseContract.KamuKurumu)",
						"numberOfBytes": "32",
						"value": "t_struct(KamuKurumu)58_storage"
					},
					"t_mapping(t_address,t_struct(Kisi)10_storage)": {
						"encoding": "mapping",
						"key": "t_address",
						"label": "mapping(address => struct BaseContract.Kisi)",
						"numberOfBytes": "32",
						"value": "t_struct(Kisi)10_storage"
					},
					"t_mapping(t_address,t_struct(Kurs)79_storage)": {
						"encoding": "mapping",
						"key": "t_address",
						"label": "mapping(address => struct BaseContract.Kurs)",
						"numberOfBytes": "32",
						"value": "t_struct(Kurs)79_storage"
					},
					"t_mapping(t_address,t_struct(STK)65_storage)": {
						"encoding": "mapping",
						"key": "t_address",
						"label": "mapping(address => struct BaseContract.STK)",
						"numberOfBytes": "32",
						"value": "t_struct(STK)65_storage"
					},
					"t_mapping(t_address,t_struct(SertifikaMerkezi)72_storage)": {
						"encoding": "mapping",
						"key": "t_address",
						"label": "mapping(address => struct BaseContract.SertifikaMerkezi)",
						"numberOfBytes": "32",
						"value": "t_struct(SertifikaMerkezi)72_storage"
					},
					"t_mapping(t_address,t_struct(Universite)17_storage)": {
						"encoding": "mapping",
						"key": "t_address",
						"label": "mapping(address => struct BaseContract.Universite)",
						"numberOfBytes": "32",
						"value": "t_struct(Universite)17_storage"
					},
					"t_struct(Akademisyen)31_storage": {
						"encoding": "inplace",
						"label": "struct BaseContract.Akademisyen",
						"members": [
							{
								"astId": 19,
								"contract": "contracts/BaseContract.sol:BaseContract",
								"label": "durum",
								"offset": 0,
								"slot": "0",
								"type": "t_bool"
							},
							{
								"astId": 21,
								"contract": "contracts/BaseContract.sol:BaseContract",
								"label": "universite",
								"offset": 1,
								"slot": "0",
								"type": "t_address"
							},
							{
								"astId": 23,
								"contract": "contracts/BaseContract.sol:BaseContract",
								"label": "bolum",
								"offset": 21,
								"slot": "0",
								"type": "t_uint16"
							},
							{
								"astId": 26,
								"contract": "contracts/BaseContract.sol:BaseContract",
								"label": "unvan",
								"offset": 23,
								"slot": "0",
								"type": "t_enum(Unvan)36"
							},
							{
								"astId": 28,
								"contract": "contracts/BaseContract.sol:BaseContract",
								"label": "name",
								"offset": 0,
								"slot": "1",
								"type": "t_bytes32"
							},
							{
								"astId": 30,
								"contract": "contracts/BaseContract.sol:BaseContract",
								"label": "surname",
								"offset": 0,
								"slot": "2",
								"type": "t_bytes32"
							}
						],
						"numberOfBytes": "96"
					},
					"t_struct(Firma)51_storage": {
						"encoding": "inplace",
						"label": "struct BaseContract.Firma",
						"members": [
							{
								"astId": 44,
								"contract": "contracts/BaseContract.sol:BaseContract",
								"label": "durum",
								"offset": 0,
								"slot": "0",
								"type": "t_bool"
							},
							{
								"astId": 46,
								"contract": "contracts/BaseContract.sol:BaseContract",
								"label": "ulke",
								"offset": 0,
								"slot": "1",
								"type": "t_bytes32"
							},
							{
								"astId": 48,
								"contract": "contracts/BaseContract.sol:BaseContract",
								"label": "vergiNo",
								"offset": 0,
								"slot": "2",
								"type": "t_uint256"
							},
							{
								"astId": 50,
								"contract": "contracts/BaseContract.sol:BaseContract",
								"label": "isim",
								"offset": 0,
								"slot": "3",
								"type": "t_bytes32"
							}
						],
						"numberOfBytes": "128"
					},
					"t_struct(KamuKurumu)58_storage": {
						"encoding": "inplace",
						"label": "struct BaseContract.KamuKurumu",
						"members": [
							{
								"astId": 53,
								"contract": "contracts/BaseContract.sol:BaseContract",
								"label": "durum",
								"offset": 0,
								"slot": "0",
								"type": "t_bool"
							},
							{
								"astId": 55,
								"contract": "contracts/BaseContract.sol:BaseContract",
								"label": "isim",
								"offset": 0,
								"slot": "1",
								"type": "t_bytes32"
							},
							{
								"astId": 57,
								"contract": "contracts/BaseContract.sol:BaseContract",
								"label": "ulke",
								"offset": 0,
								"slot": "2",
								"type": "t_bytes32"
							}
						],
						"numberOfBytes": "96"
					},
					"t_struct(Kisi)10_storage": {
						"encoding": "inplace",
						"label": "struct BaseContract.Kisi",
						"members": [
							{
								"astId": 9,
								"contract": "contracts/BaseContract.sol:BaseContract",
								"label": "durum",
								"offset": 0,
								"slot": "0",
								"type": "t_bool"
							}
						],
						"numberOfBytes": "32"
					},
					"t_struct(Kurs)79_storage": {
						"encoding": "inplace",
						"label": "struct BaseContract.Kurs",
						"members": [
							{
								"astId": 74,
								"contract": "contracts/BaseContract.sol:BaseContract",
								"label": "durum",
								"offset": 0,
								"slot": "0",
								"type": "t_bool"
							},
							{
								"astId": 76,
								"contract": "contracts/BaseContract.sol:BaseContract",
								"label": "isim",
								"offset": 0,
								"slot": "1",
								"type": "t_bytes32"
							},
							{
								"astId": 78,
								"contract": "contracts/BaseContract.sol:BaseContract",
								"label": "ulke",
								"offset": 0,
								"slot": "2",
								"type": "t_bytes32"
							}
						],
						"numberOfBytes": "96"
					},
					"t_struct(STK)65_storage": {
						"encoding": "inplace",
						"label": "struct BaseContract.STK",
						"members": [
							{
								"astId": 60,
								"contract": "contracts/BaseContract.sol:BaseContract",
								"label": "durum",
								"offset": 0,
								"slot": "0",
								"type": "t_bool"
							},
							{
								"astId": 62,
								"contract": "contracts/BaseContract.sol:BaseContract",
								"label": "isim",
								"offset": 0,
								"slot": "1",
								"type": "t_bytes32"
							},
							{
								"astId": 64,
								"contract": "contracts/BaseContract.sol:BaseContract",
								"label": "ulke",
								"offset": 0,
								"slot": "2",
								"type": "t_bytes32"
							}
						],
						"numberOfBytes": "96"
					},
					"t_struct(SertifikaMerkezi)72_storage": {
						"encoding": "inplace",
						"label": "struct BaseContract.SertifikaMerkezi",
						"members": [
							{
								"astId": 67,
								"contract": "contracts/BaseContract.sol:BaseContract",
								"label": "durum",
								"offset": 0,
								"slot": "0",
								"type": "t_bool"
							},
							{
								"astId": 69,
								"contract": "contracts/BaseContract.sol:BaseContract",
								"label": "isim",
								"offset": 0,
								"slot": "1",
								"type": "t_bytes32"
							},
							{
								"astId": 71,
								"contract": "contracts/BaseContract.sol:BaseContract",
								"label": "ulke",
								"offset": 0,
								"slot": "2",
								"type": "t_bytes32"
							}
						],
						"numberOfBytes": "96"
					},
					"t_struct(Universite)17_storage": {
						"encoding": "inplace",
						"label": "struct BaseContract.Universite",
						"members": [
							{
								"astId": 12,
								"contract": "contracts/BaseContract.sol:BaseContract",
								"label": "durum",
								"offset": 0,
								"slot": "0",
								"type": "t_bool"
							},
							{
								"astId": 14,
								"contract": "contracts/BaseContract.sol:BaseContract",
								"label": "isim",
								"offset": 0,
								"slot": "1",
								"type": "t_bytes32"
							},
							{
								"astId": 16,
								"contract": "contracts/BaseContract.sol:BaseContract",
								"label": "ulke",
								"offset": 0,
								"slot": "2",
								"type": "t_uint8"
							}
						],
						"numberOfBytes": "96"
					},
					"t_uint16": {
						"encoding": "inplace",
						"label": "uint16",
						"numberOfBytes": "2"
					},
					"t_uint256": {
						"encoding": "inplace",
						"label": "uint256",
						"numberOfBytes": "32"
					},
					"t_uint8": {
						"encoding": "inplace",
						"label": "uint8",
						"numberOfBytes": "1"
					}
				}
			},
			"userdoc": {
				"kind": "user",
				"methods": {},
				"version": 1
			}
		}
	}
}