{
	"contracts/EgitimBilgileri.sol": {
		"EgitimBilgileri": {
			"abi": [
				{
					"anonymous": false,
					"inputs": [
						{
							"indexed": false,
							"internalType": "uint256",
							"name": "id",
							"type": "uint256"
						},
						{
							"indexed": false,
							"internalType": "address",
							"name": "_universite",
							"type": "address"
						},
						{
							"indexed": false,
							"internalType": "uint256",
							"name": "basTarih",
							"type": "uint256"
						},
						{
							"indexed": false,
							"internalType": "uint256",
							"name": "bitTarih",
							"type": "uint256"
						}
					],
					"name": "EgitimBilgiEklendiLog",
					"type": "event"
				},
				{
					"anonymous": false,
					"inputs": [
						{
							"indexed": false,
							"internalType": "uint256",
							"name": "id",
							"type": "uint256"
						},
						{
							"indexed": false,
							"internalType": "address",
							"name": "_universite",
							"type": "address"
						},
						{
							"indexed": false,
							"internalType": "uint256",
							"name": "basTarih",
							"type": "uint256"
						},
						{
							"indexed": false,
							"internalType": "uint256",
							"name": "bitTarih",
							"type": "uint256"
						}
					],
					"name": "EgitimBilgiGuncellendiLog",
					"type": "event"
				},
				{
					"anonymous": false,
					"inputs": [
						{
							"indexed": false,
							"internalType": "uint256",
							"name": "id",
							"type": "uint256"
						},
						{
							"indexed": false,
							"internalType": "address",
							"name": "_universite",
							"type": "address"
						},
						{
							"indexed": false,
							"internalType": "uint256",
							"name": "basTarih",
							"type": "uint256"
						},
						{
							"indexed": false,
							"internalType": "uint256",
							"name": "bitTarih",
							"type": "uint256"
						}
					],
					"name": "EgitimBilgiTalepEdildiLog",
					"type": "event"
				},
				{
					"inputs": [
						{
							"internalType": "address",
							"name": "",
							"type": "address"
						}
					],
					"name": "akademisyenler",
					"outputs": [
						{
							"internalType": "bool",
							"name": "durum",
							"type": "bool"
						},
						{
							"internalType": "address",
							"name": "universite",
							"type": "address"
						},
						{
							"internalType": "uint16",
							"name": "bolum",
							"type": "uint16"
						},
						{
							"internalType": "enum BaseContract.Unvan",
							"name": "unvan",
							"type": "uint8"
						},
						{
							"internalType": "string",
							"name": "ad",
							"type": "string"
						},
						{
							"internalType": "string",
							"name": "soyad",
							"type": "string"
						}
					],
					"stateMutability": "view",
					"type": "function"
				},
				{
					"inputs": [
						{
							"internalType": "uint32",
							"name": "",
							"type": "uint32"
						}
					],
					"name": "diller",
					"outputs": [
						{
							"internalType": "uint32",
							"name": "id",
							"type": "uint32"
						},
						{
							"internalType": "string",
							"name": "isim",
							"type": "string"
						}
					],
					"stateMutability": "view",
					"type": "function"
				},
				{
					"inputs": [
						{
							"internalType": "address",
							"name": "",
							"type": "address"
						},
						{
							"internalType": "uint256",
							"name": "",
							"type": "uint256"
						}
					],
					"name": "egitimBilgileri",
					"outputs": [
						{
							"internalType": "uint256",
							"name": "id",
							"type": "uint256"
						},
						{
							"internalType": "address",
							"name": "talepEdilenKurum",
							"type": "address"
						},
						{
							"internalType": "enum BaseContract.EgitimDurumu",
							"name": "egitimDurumu",
							"type": "uint8"
						},
						{
							"internalType": "uint256",
							"name": "basTarih",
							"type": "uint256"
						},
						{
							"internalType": "uint256",
							"name": "bitTarih",
							"type": "uint256"
						},
						{
							"internalType": "string",
							"name": "diplomaBelge",
							"type": "string"
						},
						{
							"internalType": "string",
							"name": "transcriptBelge",
							"type": "string"
						},
						{
							"internalType": "address",
							"name": "universite",
							"type": "address"
						},
						{
							"internalType": "uint16",
							"name": "fakulte",
							"type": "uint16"
						},
						{
							"internalType": "uint16",
							"name": "bolum",
							"type": "uint16"
						},
						{
							"internalType": "enum BaseContract.OgretimTipi",
							"name": "ogretimTipi",
							"type": "uint8"
						},
						{
							"components": [
								{
									"internalType": "uint256",
									"name": "zaman",
									"type": "uint256"
								},
								{
									"internalType": "address",
									"name": "adres",
									"type": "address"
								},
								{
									"internalType": "enum BaseContract.OnayDurum",
									"name": "durum",
									"type": "uint8"
								}
							],
							"internalType": "struct BaseContract.Onay",
							"name": "onayBilgi",
							"type": "tuple"
						}
					],
					"stateMutability": "view",
					"type": "function"
				},
				{
					"inputs": [
						{
							"internalType": "address",
							"name": "",
							"type": "address"
						}
					],
					"name": "firmalar",
					"outputs": [
						{
							"internalType": "bool",
							"name": "durum",
							"type": "bool"
						},
						{
							"internalType": "uint8",
							"name": "ulke",
							"type": "uint8"
						},
						{
							"internalType": "uint256",
							"name": "vergiNo",
							"type": "uint256"
						},
						{
							"internalType": "string",
							"name": "isim",
							"type": "string"
						}
					],
					"stateMutability": "view",
					"type": "function"
				},
				{
					"inputs": [],
					"name": "id",
					"outputs": [
						{
							"internalType": "uint256",
							"name": "",
							"type": "uint256"
						}
					],
					"stateMutability": "view",
					"type": "function"
				},
				{
					"inputs": [
						{
							"internalType": "address",
							"name": "",
							"type": "address"
						}
					],
					"name": "kamuKurumlari",
					"outputs": [
						{
							"internalType": "bool",
							"name": "durum",
							"type": "bool"
						},
						{
							"internalType": "string",
							"name": "isim",
							"type": "string"
						},
						{
							"internalType": "uint8",
							"name": "ulke",
							"type": "uint8"
						}
					],
					"stateMutability": "view",
					"type": "function"
				},
				{
					"inputs": [
						{
							"internalType": "address",
							"name": "",
							"type": "address"
						}
					],
					"name": "kisiler",
					"outputs": [
						{
							"internalType": "bool",
							"name": "durum",
							"type": "bool"
						}
					],
					"stateMutability": "view",
					"type": "function"
				},
				{
					"inputs": [
						{
							"internalType": "address",
							"name": "",
							"type": "address"
						}
					],
					"name": "kurslar",
					"outputs": [
						{
							"internalType": "bool",
							"name": "durum",
							"type": "bool"
						},
						{
							"internalType": "string",
							"name": "isim",
							"type": "string"
						},
						{
							"internalType": "uint8",
							"name": "ulke",
							"type": "uint8"
						}
					],
					"stateMutability": "view",
					"type": "function"
				},
				{
					"inputs": [
						{
							"internalType": "address",
							"name": "",
							"type": "address"
						}
					],
					"name": "sertifikaMerkezleri",
					"outputs": [
						{
							"internalType": "bool",
							"name": "durum",
							"type": "bool"
						},
						{
							"internalType": "string",
							"name": "isim",
							"type": "string"
						},
						{
							"internalType": "uint8",
							"name": "ulke",
							"type": "uint8"
						}
					],
					"stateMutability": "view",
					"type": "function"
				},
				{
					"inputs": [
						{
							"internalType": "address",
							"name": "",
							"type": "address"
						}
					],
					"name": "stklar",
					"outputs": [
						{
							"internalType": "bool",
							"name": "durum",
							"type": "bool"
						},
						{
							"internalType": "string",
							"name": "isim",
							"type": "string"
						},
						{
							"internalType": "uint8",
							"name": "ulke",
							"type": "uint8"
						}
					],
					"stateMutability": "view",
					"type": "function"
				},
				{
					"inputs": [
						{
							"internalType": "address",
							"name": "",
							"type": "address"
						}
					],
					"name": "universiteler",
					"outputs": [
						{
							"internalType": "bool",
							"name": "durum",
							"type": "bool"
						},
						{
							"internalType": "string",
							"name": "isim",
							"type": "string"
						},
						{
							"internalType": "uint8",
							"name": "ulke",
							"type": "uint8"
						}
					],
					"stateMutability": "view",
					"type": "function"
				}
			],
			"devdoc": {
				"kind": "dev",
				"methods": {},
				"version": 1
			},
			"evm": {
				"assembly": "    /* \"contracts/EgitimBilgileri.sol\":137:6222  contract EgitimBilgileri is BaseContract{\r... */\n  mstore(0x40, 0x80)\n  callvalue\n  dup1\n  iszero\n  tag_1\n  jumpi\n  0x00\n  dup1\n  revert\ntag_1:\n  pop\n  dataSize(sub_0)\n  dup1\n  dataOffset(sub_0)\n  0x00\n  codecopy\n  0x00\n  return\nstop\n\nsub_0: assembly {\n        /* \"contracts/EgitimBilgileri.sol\":137:6222  contract EgitimBilgileri is BaseContract{\r... */\n      mstore(0x40, 0x80)\n      callvalue\n      dup1\n      iszero\n      tag_1\n      jumpi\n      0x00\n      dup1\n      revert\n    tag_1:\n      pop\n      jumpi(tag_2, lt(calldatasize, 0x04))\n      shr(0xe0, calldataload(0x00))\n      dup1\n      0x7d0fa287\n      gt\n      tag_14\n      jumpi\n      dup1\n      0x7d0fa287\n      eq\n      tag_8\n      jumpi\n      dup1\n      0x9a8c9119\n      eq\n      tag_9\n      jumpi\n      dup1\n      0xa4e7ae05\n      eq\n      tag_10\n      jumpi\n      dup1\n      0xaf640d0f\n      eq\n      tag_11\n      jumpi\n      dup1\n      0xba479b7e\n      eq\n      tag_12\n      jumpi\n      dup1\n      0xcbc92809\n      eq\n      tag_13\n      jumpi\n      jump(tag_2)\n    tag_14:\n      dup1\n      0x1916e139\n      eq\n      tag_3\n      jumpi\n      dup1\n      0x28266697\n      eq\n      tag_4\n      jumpi\n      dup1\n      0x2fe34736\n      eq\n      tag_5\n      jumpi\n      dup1\n      0x356b1f1e\n      eq\n      tag_6\n      jumpi\n      dup1\n      0x39987f94\n      eq\n      tag_7\n      jumpi\n    tag_2:\n      0x00\n      dup1\n      revert\n        /* \"contracts/BaseContract.sol\":3565:3603  mapping(address=>Kurs) public  kurslar */\n    tag_3:\n      tag_15\n      0x04\n      dup1\n      calldatasize\n      sub\n      dup2\n      add\n      swap1\n      tag_16\n      swap2\n      swap1\n      tag_17\n      jump\t// in\n    tag_16:\n      tag_18\n      jump\t// in\n    tag_15:\n      mload(0x40)\n      tag_19\n      swap4\n      swap3\n      swap2\n      swap1\n      tag_20\n      jump\t// in\n    tag_19:\n      mload(0x40)\n      dup1\n      swap2\n      sub\n      swap1\n      return\n        /* \"contracts/BaseContract.sol\":3404:3453  mapping(address=>Universite) public universiteler */\n    tag_4:\n      tag_21\n      0x04\n      dup1\n      calldatasize\n      sub\n      dup2\n      add\n      swap1\n      tag_22\n      swap2\n      swap1\n      tag_17\n      jump\t// in\n    tag_22:\n      tag_23\n      jump\t// in\n    tag_21:\n      mload(0x40)\n      tag_24\n      swap4\n      swap3\n      swap2\n      swap1\n      tag_20\n      jump\t// in\n    tag_24:\n      mload(0x40)\n      dup1\n      swap2\n      sub\n      swap1\n      return\n        /* \"contracts/EgitimBilgileri.sol\":736:803  mapping(address=>mapping(uint=>EgitimBilgi)) public egitimBilgileri */\n    tag_5:\n      tag_25\n      0x04\n      dup1\n      calldatasize\n      sub\n      dup2\n      add\n      swap1\n      tag_26\n      swap2\n      swap1\n      tag_27\n      jump\t// in\n    tag_26:\n      tag_28\n      jump\t// in\n    tag_25:\n      mload(0x40)\n      tag_29\n      swap13\n      swap12\n      swap11\n      swap10\n      swap9\n      swap8\n      swap7\n      swap6\n      swap5\n      swap4\n      swap3\n      swap2\n      swap1\n      tag_30\n      jump\t// in\n    tag_29:\n      mload(0x40)\n      dup1\n      swap2\n      sub\n      swap1\n      return\n        /* \"contracts/BaseContract.sol\":3708:3769  mapping(address=>SertifikaMerkezi) public sertifikaMerkezleri */\n    tag_6:\n      tag_31\n      0x04\n      dup1\n      calldatasize\n      sub\n      dup2\n      add\n      swap1\n      tag_32\n      swap2\n      swap1\n      tag_17\n      jump\t// in\n    tag_32:\n      tag_33\n      jump\t// in\n    tag_31:\n      mload(0x40)\n      tag_34\n      swap4\n      swap3\n      swap2\n      swap1\n      tag_20\n      jump\t// in\n    tag_34:\n      mload(0x40)\n      dup1\n      swap2\n      sub\n      swap1\n      return\n        /* \"contracts/BaseContract.sol\":3518:3558  mapping(address=>Firma) public  firmalar */\n    tag_7:\n      tag_35\n      0x04\n      dup1\n      calldatasize\n      sub\n      dup2\n      add\n      swap1\n      tag_36\n      swap2\n      swap1\n      tag_17\n      jump\t// in\n    tag_36:\n      tag_37\n      jump\t// in\n    tag_35:\n      mload(0x40)\n      tag_38\n      swap5\n      swap4\n      swap3\n      swap2\n      swap1\n      tag_39\n      jump\t// in\n    tag_38:\n      mload(0x40)\n      dup1\n      swap2\n      sub\n      swap1\n      return\n        /* \"contracts/BaseContract.sol\":3610:3659  mapping(address=>KamuKurumu) public kamuKurumlari */\n    tag_8:\n      tag_40\n      0x04\n      dup1\n      calldatasize\n      sub\n      dup2\n      add\n      swap1\n      tag_41\n      swap2\n      swap1\n      tag_17\n      jump\t// in\n    tag_41:\n      tag_42\n      jump\t// in\n    tag_40:\n      mload(0x40)\n      tag_43\n      swap4\n      swap3\n      swap2\n      swap1\n      tag_20\n      jump\t// in\n    tag_43:\n      mload(0x40)\n      dup1\n      swap2\n      sub\n      swap1\n      return\n        /* \"contracts/BaseContract.sol\":3666:3701  mapping(address=>STK) public stklar */\n    tag_9:\n      tag_44\n      0x04\n      dup1\n      calldatasize\n      sub\n      dup2\n      add\n      swap1\n      tag_45\n      swap2\n      swap1\n      tag_17\n      jump\t// in\n    tag_45:\n      tag_46\n      jump\t// in\n    tag_44:\n      mload(0x40)\n      tag_47\n      swap4\n      swap3\n      swap2\n      swap1\n      tag_20\n      jump\t// in\n    tag_47:\n      mload(0x40)\n      dup1\n      swap2\n      sub\n      swap1\n      return\n        /* \"contracts/BaseContract.sol\":3777:3818  mapping(uint32=>YabanciDil) public diller */\n    tag_10:\n      tag_48\n      0x04\n      dup1\n      calldatasize\n      sub\n      dup2\n      add\n      swap1\n      tag_49\n      swap2\n      swap1\n      tag_50\n      jump\t// in\n    tag_49:\n      tag_51\n      jump\t// in\n    tag_48:\n      mload(0x40)\n      tag_52\n      swap3\n      swap2\n      swap1\n      tag_53\n      jump\t// in\n    tag_52:\n      mload(0x40)\n      dup1\n      swap2\n      sub\n      swap1\n      return\n        /* \"contracts/EgitimBilgileri.sol\":184:198  uint public id */\n    tag_11:\n      tag_54\n      tag_55\n      jump\t// in\n    tag_54:\n      mload(0x40)\n      tag_56\n      swap2\n      swap1\n      tag_57\n      jump\t// in\n    tag_56:\n      mload(0x40)\n      dup1\n      swap2\n      sub\n      swap1\n      return\n        /* \"contracts/BaseContract.sol\":3460:3511  mapping(address=>Akademisyen) public akademisyenler */\n    tag_12:\n      tag_58\n      0x04\n      dup1\n      calldatasize\n      sub\n      dup2\n      add\n      swap1\n      tag_59\n      swap2\n      swap1\n      tag_17\n      jump\t// in\n    tag_59:\n      tag_60\n      jump\t// in\n    tag_58:\n      mload(0x40)\n      tag_61\n      swap7\n      swap6\n      swap5\n      swap4\n      swap3\n      swap2\n      swap1\n      tag_62\n      jump\t// in\n    tag_61:\n      mload(0x40)\n      dup1\n      swap2\n      sub\n      swap1\n      return\n        /* \"contracts/BaseContract.sol\":3360:3397  mapping(address=>Kisi) public kisiler */\n    tag_13:\n      tag_63\n      0x04\n      dup1\n      calldatasize\n      sub\n      dup2\n      add\n      swap1\n      tag_64\n      swap2\n      swap1\n      tag_17\n      jump\t// in\n    tag_64:\n      tag_65\n      jump\t// in\n    tag_63:\n      mload(0x40)\n      tag_66\n      swap2\n      swap1\n      tag_67\n      jump\t// in\n    tag_66:\n      mload(0x40)\n      dup1\n      swap2\n      sub\n      swap1\n      return\n        /* \"contracts/BaseContract.sol\":3565:3603  mapping(address=>Kurs) public  kurslar */\n    tag_18:\n      mstore(0x20, 0x07)\n      dup1\n      0x00\n      mstore\n      keccak256(0x00, 0x40)\n      0x00\n      swap2\n      pop\n      swap1\n      pop\n      dup1\n      0x00\n      add\n      0x00\n      swap1\n      sload\n      swap1\n      0x0100\n      exp\n      swap1\n      div\n      0xff\n      and\n      swap1\n      dup1\n      0x01\n      add\n      dup1\n      sload\n      tag_68\n      swap1\n      tag_69\n      jump\t// in\n    tag_68:\n      dup1\n      0x1f\n      add\n      0x20\n      dup1\n      swap2\n      div\n      mul\n      0x20\n      add\n      mload(0x40)\n      swap1\n      dup2\n      add\n      0x40\n      mstore\n      dup1\n      swap3\n      swap2\n      swap1\n      dup2\n      dup2\n      mstore\n      0x20\n      add\n      dup3\n      dup1\n      sload\n      tag_70\n      swap1\n      tag_69\n      jump\t// in\n    tag_70:\n      dup1\n      iszero\n      tag_71\n      jumpi\n      dup1\n      0x1f\n      lt\n      tag_72\n      jumpi\n      0x0100\n      dup1\n      dup4\n      sload\n      div\n      mul\n      dup4\n      mstore\n      swap2\n      0x20\n      add\n      swap2\n      jump(tag_71)\n    tag_72:\n      dup3\n      add\n      swap2\n      swap1\n      0x00\n      mstore\n      keccak256(0x00, 0x20)\n      swap1\n    tag_73:\n      dup2\n      sload\n      dup2\n      mstore\n      swap1\n      0x01\n      add\n      swap1\n      0x20\n      add\n      dup1\n      dup4\n      gt\n      tag_73\n      jumpi\n      dup3\n      swap1\n      sub\n      0x1f\n      and\n      dup3\n      add\n      swap2\n    tag_71:\n      pop\n      pop\n      pop\n      pop\n      pop\n      swap1\n      dup1\n      0x02\n      add\n      0x00\n      swap1\n      sload\n      swap1\n      0x0100\n      exp\n      swap1\n      div\n      0xff\n      and\n      swap1\n      pop\n      dup4\n      jump\t// out\n        /* \"contracts/BaseContract.sol\":3404:3453  mapping(address=>Universite) public universiteler */\n    tag_23:\n      mstore(0x20, 0x04)\n      dup1\n      0x00\n      mstore\n      keccak256(0x00, 0x40)\n      0x00\n      swap2\n      pop\n      swap1\n      pop\n      dup1\n      0x00\n      add\n      0x00\n      swap1\n      sload\n      swap1\n      0x0100\n      exp\n      swap1\n      div\n      0xff\n      and\n      swap1\n      dup1\n      0x01\n      add\n      dup1\n      sload\n      tag_74\n      swap1\n      tag_69\n      jump\t// in\n    tag_74:\n      dup1\n      0x1f\n      add\n      0x20\n      dup1\n      swap2\n      div\n      mul\n      0x20\n      add\n      mload(0x40)\n      swap1\n      dup2\n      add\n      0x40\n      mstore\n      dup1\n      swap3\n      swap2\n      swap1\n      dup2\n      dup2\n      mstore\n      0x20\n      add\n      dup3\n      dup1\n      sload\n      tag_75\n      swap1\n      tag_69\n      jump\t// in\n    tag_75:\n      dup1\n      iszero\n      tag_76\n      jumpi\n      dup1\n      0x1f\n      lt\n      tag_77\n      jumpi\n      0x0100\n      dup1\n      dup4\n      sload\n      div\n      mul\n      dup4\n      mstore\n      swap2\n      0x20\n      add\n      swap2\n      jump(tag_76)\n    tag_77:\n      dup3\n      add\n      swap2\n      swap1\n      0x00\n      mstore\n      keccak256(0x00, 0x20)\n      swap1\n    tag_78:\n      dup2\n      sload\n      dup2\n      mstore\n      swap1\n      0x01\n      add\n      swap1\n      0x20\n      add\n      dup1\n      dup4\n      gt\n      tag_78\n      jumpi\n      dup3\n      swap1\n      sub\n      0x1f\n      and\n      dup3\n      add\n      swap2\n    tag_76:\n      pop\n      pop\n      pop\n      pop\n      pop\n      swap1\n      dup1\n      0x02\n      add\n      0x00\n      swap1\n      sload\n      swap1\n      0x0100\n      exp\n      swap1\n      div\n      0xff\n      and\n      swap1\n      pop\n      dup4\n      jump\t// out\n        /* \"contracts/EgitimBilgileri.sol\":736:803  mapping(address=>mapping(uint=>EgitimBilgi)) public egitimBilgileri */\n    tag_28:\n      mstore(0x20, 0x0d)\n      dup2\n      0x00\n      mstore\n      mstore(0x20, keccak256(0x00, 0x40))\n      dup1\n      0x00\n      mstore\n      keccak256(0x00, 0x40)\n      0x00\n      swap2\n      pop\n      swap2\n      pop\n      pop\n      dup1\n      0x00\n      add\n      sload\n      swap1\n      dup1\n      0x01\n      add\n      0x00\n      swap1\n      sload\n      swap1\n      0x0100\n      exp\n      swap1\n      div\n      0xffffffffffffffffffffffffffffffffffffffff\n      and\n      swap1\n      dup1\n      0x01\n      add\n      0x14\n      swap1\n      sload\n      swap1\n      0x0100\n      exp\n      swap1\n      div\n      0xff\n      and\n      swap1\n      dup1\n      0x02\n      add\n      sload\n      swap1\n      dup1\n      0x03\n      add\n      sload\n      swap1\n      dup1\n      0x04\n      add\n      dup1\n      sload\n      tag_79\n      swap1\n      tag_69\n      jump\t// in\n    tag_79:\n      dup1\n      0x1f\n      add\n      0x20\n      dup1\n      swap2\n      div\n      mul\n      0x20\n      add\n      mload(0x40)\n      swap1\n      dup2\n      add\n      0x40\n      mstore\n      dup1\n      swap3\n      swap2\n      swap1\n      dup2\n      dup2\n      mstore\n      0x20\n      add\n      dup3\n      dup1\n      sload\n      tag_80\n      swap1\n      tag_69\n      jump\t// in\n    tag_80:\n      dup1\n      iszero\n      tag_81\n      jumpi\n      dup1\n      0x1f\n      lt\n      tag_82\n      jumpi\n      0x0100\n      dup1\n      dup4\n      sload\n      div\n      mul\n      dup4\n      mstore\n      swap2\n      0x20\n      add\n      swap2\n      jump(tag_81)\n    tag_82:\n      dup3\n      add\n      swap2\n      swap1\n      0x00\n      mstore\n      keccak256(0x00, 0x20)\n      swap1\n    tag_83:\n      dup2\n      sload\n      dup2\n      mstore\n      swap1\n      0x01\n      add\n      swap1\n      0x20\n      add\n      dup1\n      dup4\n      gt\n      tag_83\n      jumpi\n      dup3\n      swap1\n      sub\n      0x1f\n      and\n      dup3\n      add\n      swap2\n    tag_81:\n      pop\n      pop\n      pop\n      pop\n      pop\n      swap1\n      dup1\n      0x05\n      add\n      dup1\n      sload\n      tag_84\n      swap1\n      tag_69\n      jump\t// in\n    tag_84:\n      dup1\n      0x1f\n      add\n      0x20\n      dup1\n      swap2\n      div\n      mul\n      0x20\n      add\n      mload(0x40)\n      swap1\n      dup2\n      add\n      0x40\n      mstore\n      dup1\n      swap3\n      swap2\n      swap1\n      dup2\n      dup2\n      mstore\n      0x20\n      add\n      dup3\n      dup1\n      sload\n      tag_85\n      swap1\n      tag_69\n      jump\t// in\n    tag_85:\n      dup1\n      iszero\n      tag_86\n      jumpi\n      dup1\n      0x1f\n      lt\n      tag_87\n      jumpi\n      0x0100\n      dup1\n      dup4\n      sload\n      div\n      mul\n      dup4\n      mstore\n      swap2\n      0x20\n      add\n      swap2\n      jump(tag_86)\n    tag_87:\n      dup3\n      add\n      swap2\n      swap1\n      0x00\n      mstore\n      keccak256(0x00, 0x20)\n      swap1\n    tag_88:\n      dup2\n      sload\n      dup2\n      mstore\n      swap1\n      0x01\n      add\n      swap1\n      0x20\n      add\n      dup1\n      dup4\n      gt\n      tag_88\n      jumpi\n      dup3\n      swap1\n      sub\n      0x1f\n      and\n      dup3\n      add\n      swap2\n    tag_86:\n      pop\n      pop\n      pop\n      pop\n      pop\n      swap1\n      dup1\n      0x06\n      add\n      0x00\n      swap1\n      sload\n      swap1\n      0x0100\n      exp\n      swap1\n      div\n      0xffffffffffffffffffffffffffffffffffffffff\n      and\n      swap1\n      dup1\n      0x06\n      add\n      0x14\n      swap1\n      sload\n      swap1\n      0x0100\n      exp\n      swap1\n      div\n      0xffff\n      and\n      swap1\n      dup1\n      0x06\n      add\n      0x16\n      swap1\n      sload\n      swap1\n      0x0100\n      exp\n      swap1\n      div\n      0xffff\n      and\n      swap1\n      dup1\n      0x06\n      add\n      0x18\n      swap1\n      sload\n      swap1\n      0x0100\n      exp\n      swap1\n      div\n      0xff\n      and\n      swap1\n      dup1\n      0x07\n      add\n      mload(0x40)\n      dup1\n      0x60\n      add\n      0x40\n      mstore\n      swap1\n      dup2\n      0x00\n      dup3\n      add\n      sload\n      dup2\n      mstore\n      0x20\n      add\n      0x01\n      dup3\n      add\n      0x00\n      swap1\n      sload\n      swap1\n      0x0100\n      exp\n      swap1\n      div\n      0xffffffffffffffffffffffffffffffffffffffff\n      and\n      0xffffffffffffffffffffffffffffffffffffffff\n      and\n      0xffffffffffffffffffffffffffffffffffffffff\n      and\n      dup2\n      mstore\n      0x20\n      add\n      0x01\n      dup3\n      add\n      0x14\n      swap1\n      sload\n      swap1\n      0x0100\n      exp\n      swap1\n      div\n      0xff\n      and\n      0x02\n      dup2\n      gt\n      iszero\n      tag_89\n      jumpi\n      tag_90\n      tag_91\n      jump\t// in\n    tag_90:\n    tag_89:\n      0x02\n      dup2\n      gt\n      iszero\n      tag_92\n      jumpi\n      tag_93\n      tag_91\n      jump\t// in\n    tag_93:\n    tag_92:\n      dup2\n      mstore\n      pop\n      pop\n      swap1\n      pop\n      dup13\n      jump\t// out\n        /* \"contracts/BaseContract.sol\":3708:3769  mapping(address=>SertifikaMerkezi) public sertifikaMerkezleri */\n    tag_33:\n      mstore(0x20, 0x0a)\n      dup1\n      0x00\n      mstore\n      keccak256(0x00, 0x40)\n      0x00\n      swap2\n      pop\n      swap1\n      pop\n      dup1\n      0x00\n      add\n      0x00\n      swap1\n      sload\n      swap1\n      0x0100\n      exp\n      swap1\n      div\n      0xff\n      and\n      swap1\n      dup1\n      0x01\n      add\n      dup1\n      sload\n      tag_94\n      swap1\n      tag_69\n      jump\t// in\n    tag_94:\n      dup1\n      0x1f\n      add\n      0x20\n      dup1\n      swap2\n      div\n      mul\n      0x20\n      add\n      mload(0x40)\n      swap1\n      dup2\n      add\n      0x40\n      mstore\n      dup1\n      swap3\n      swap2\n      swap1\n      dup2\n      dup2\n      mstore\n      0x20\n      add\n      dup3\n      dup1\n      sload\n      tag_95\n      swap1\n      tag_69\n      jump\t// in\n    tag_95:\n      dup1\n      iszero\n      tag_96\n      jumpi\n      dup1\n      0x1f\n      lt\n      tag_97\n      jumpi\n      0x0100\n      dup1\n      dup4\n      sload\n      div\n      mul\n      dup4\n      mstore\n      swap2\n      0x20\n      add\n      swap2\n      jump(tag_96)\n    tag_97:\n      dup3\n      add\n      swap2\n      swap1\n      0x00\n      mstore\n      keccak256(0x00, 0x20)\n      swap1\n    tag_98:\n      dup2\n      sload\n      dup2\n      mstore\n      swap1\n      0x01\n      add\n      swap1\n      0x20\n      add\n      dup1\n      dup4\n      gt\n      tag_98\n      jumpi\n      dup3\n      swap1\n      sub\n      0x1f\n      and\n      dup3\n      add\n      swap2\n    tag_96:\n      pop\n      pop\n      pop\n      pop\n      pop\n      swap1\n      dup1\n      0x02\n      add\n      0x00\n      swap1\n      sload\n      swap1\n      0x0100\n      exp\n      swap1\n      div\n      0xff\n      and\n      swap1\n      pop\n      dup4\n      jump\t// out\n        /* \"contracts/BaseContract.sol\":3518:3558  mapping(address=>Firma) public  firmalar */\n    tag_37:\n      mstore(0x20, 0x06)\n      dup1\n      0x00\n      mstore\n      keccak256(0x00, 0x40)\n      0x00\n      swap2\n      pop\n      swap1\n      pop\n      dup1\n      0x00\n      add\n      0x00\n      swap1\n      sload\n      swap1\n      0x0100\n      exp\n      swap1\n      div\n      0xff\n      and\n      swap1\n      dup1\n      0x00\n      add\n      0x01\n      swap1\n      sload\n      swap1\n      0x0100\n      exp\n      swap1\n      div\n      0xff\n      and\n      swap1\n      dup1\n      0x01\n      add\n      sload\n      swap1\n      dup1\n      0x02\n      add\n      dup1\n      sload\n      tag_99\n      swap1\n      tag_69\n      jump\t// in\n    tag_99:\n      dup1\n      0x1f\n      add\n      0x20\n      dup1\n      swap2\n      div\n      mul\n      0x20\n      add\n      mload(0x40)\n      swap1\n      dup2\n      add\n      0x40\n      mstore\n      dup1\n      swap3\n      swap2\n      swap1\n      dup2\n      dup2\n      mstore\n      0x20\n      add\n      dup3\n      dup1\n      sload\n      tag_100\n      swap1\n      tag_69\n      jump\t// in\n    tag_100:\n      dup1\n      iszero\n      tag_101\n      jumpi\n      dup1\n      0x1f\n      lt\n      tag_102\n      jumpi\n      0x0100\n      dup1\n      dup4\n      sload\n      div\n      mul\n      dup4\n      mstore\n      swap2\n      0x20\n      add\n      swap2\n      jump(tag_101)\n    tag_102:\n      dup3\n      add\n      swap2\n      swap1\n      0x00\n      mstore\n      keccak256(0x00, 0x20)\n      swap1\n    tag_103:\n      dup2\n      sload\n      dup2\n      mstore\n      swap1\n      0x01\n      add\n      swap1\n      0x20\n      add\n      dup1\n      dup4\n      gt\n      tag_103\n      jumpi\n      dup3\n      swap1\n      sub\n      0x1f\n      and\n      dup3\n      add\n      swap2\n    tag_101:\n      pop\n      pop\n      pop\n      pop\n      pop\n      swap1\n      pop\n      dup5\n      jump\t// out\n        /* \"contracts/BaseContract.sol\":3610:3659  mapping(address=>KamuKurumu) public kamuKurumlari */\n    tag_42:\n      mstore(0x20, 0x08)\n      dup1\n      0x00\n      mstore\n      keccak256(0x00, 0x40)\n      0x00\n      swap2\n      pop\n      swap1\n      pop\n      dup1\n      0x00\n      add\n      0x00\n      swap1\n      sload\n      swap1\n      0x0100\n      exp\n      swap1\n      div\n      0xff\n      and\n      swap1\n      dup1\n      0x01\n      add\n      dup1\n      sload\n      tag_104\n      swap1\n      tag_69\n      jump\t// in\n    tag_104:\n      dup1\n      0x1f\n      add\n      0x20\n      dup1\n      swap2\n      div\n      mul\n      0x20\n      add\n      mload(0x40)\n      swap1\n      dup2\n      add\n      0x40\n      mstore\n      dup1\n      swap3\n      swap2\n      swap1\n      dup2\n      dup2\n      mstore\n      0x20\n      add\n      dup3\n      dup1\n      sload\n      tag_105\n      swap1\n      tag_69\n      jump\t// in\n    tag_105:\n      dup1\n      iszero\n      tag_106\n      jumpi\n      dup1\n      0x1f\n      lt\n      tag_107\n      jumpi\n      0x0100\n      dup1\n      dup4\n      sload\n      div\n      mul\n      dup4\n      mstore\n      swap2\n      0x20\n      add\n      swap2\n      jump(tag_106)\n    tag_107:\n      dup3\n      add\n      swap2\n      swap1\n      0x00\n      mstore\n      keccak256(0x00, 0x20)\n      swap1\n    tag_108:\n      dup2\n      sload\n      dup2\n      mstore\n      swap1\n      0x01\n      add\n      swap1\n      0x20\n      add\n      dup1\n      dup4\n      gt\n      tag_108\n      jumpi\n      dup3\n      swap1\n      sub\n      0x1f\n      and\n      dup3\n      add\n      swap2\n    tag_106:\n      pop\n      pop\n      pop\n      pop\n      pop\n      swap1\n      dup1\n      0x02\n      add\n      0x00\n      swap1\n      sload\n      swap1\n      0x0100\n      exp\n      swap1\n      div\n      0xff\n      and\n      swap1\n      pop\n      dup4\n      jump\t// out\n        /* \"contracts/BaseContract.sol\":3666:3701  mapping(address=>STK) public stklar */\n    tag_46:\n      mstore(0x20, 0x09)\n      dup1\n      0x00\n      mstore\n      keccak256(0x00, 0x40)\n      0x00\n      swap2\n      pop\n      swap1\n      pop\n      dup1\n      0x00\n      add\n      0x00\n      swap1\n      sload\n      swap1\n      0x0100\n      exp\n      swap1\n      div\n      0xff\n      and\n      swap1\n      dup1\n      0x01\n      add\n      dup1\n      sload\n      tag_109\n      swap1\n      tag_69\n      jump\t// in\n    tag_109:\n      dup1\n      0x1f\n      add\n      0x20\n      dup1\n      swap2\n      div\n      mul\n      0x20\n      add\n      mload(0x40)\n      swap1\n      dup2\n      add\n      0x40\n      mstore\n      dup1\n      swap3\n      swap2\n      swap1\n      dup2\n      dup2\n      mstore\n      0x20\n      add\n      dup3\n      dup1\n      sload\n      tag_110\n      swap1\n      tag_69\n      jump\t// in\n    tag_110:\n      dup1\n      iszero\n      tag_111\n      jumpi\n      dup1\n      0x1f\n      lt\n      tag_112\n      jumpi\n      0x0100\n      dup1\n      dup4\n      sload\n      div\n      mul\n      dup4\n      mstore\n      swap2\n      0x20\n      add\n      swap2\n      jump(tag_111)\n    tag_112:\n      dup3\n      add\n      swap2\n      swap1\n      0x00\n      mstore\n      keccak256(0x00, 0x20)\n      swap1\n    tag_113:\n      dup2\n      sload\n      dup2\n      mstore\n      swap1\n      0x01\n      add\n      swap1\n      0x20\n      add\n      dup1\n      dup4\n      gt\n      tag_113\n      jumpi\n      dup3\n      swap1\n      sub\n      0x1f\n      and\n      dup3\n      add\n      swap2\n    tag_111:\n      pop\n      pop\n      pop\n      pop\n      pop\n      swap1\n      dup1\n      0x02\n      add\n      0x00\n      swap1\n      sload\n      swap1\n      0x0100\n      exp\n      swap1\n      div\n      0xff\n      and\n      swap1\n      pop\n      dup4\n      jump\t// out\n        /* \"contracts/BaseContract.sol\":3777:3818  mapping(uint32=>YabanciDil) public diller */\n    tag_51:\n      mstore(0x20, 0x0b)\n      dup1\n      0x00\n      mstore\n      keccak256(0x00, 0x40)\n      0x00\n      swap2\n      pop\n      swap1\n      pop\n      dup1\n      0x00\n      add\n      0x00\n      swap1\n      sload\n      swap1\n      0x0100\n      exp\n      swap1\n      div\n      0xffffffff\n      and\n      swap1\n      dup1\n      0x01\n      add\n      dup1\n      sload\n      tag_114\n      swap1\n      tag_69\n      jump\t// in\n    tag_114:\n      dup1\n      0x1f\n      add\n      0x20\n      dup1\n      swap2\n      div\n      mul\n      0x20\n      add\n      mload(0x40)\n      swap1\n      dup2\n      add\n      0x40\n      mstore\n      dup1\n      swap3\n      swap2\n      swap1\n      dup2\n      dup2\n      mstore\n      0x20\n      add\n      dup3\n      dup1\n      sload\n      tag_115\n      swap1\n      tag_69\n      jump\t// in\n    tag_115:\n      dup1\n      iszero\n      tag_116\n      jumpi\n      dup1\n      0x1f\n      lt\n      tag_117\n      jumpi\n      0x0100\n      dup1\n      dup4\n      sload\n      div\n      mul\n      dup4\n      mstore\n      swap2\n      0x20\n      add\n      swap2\n      jump(tag_116)\n    tag_117:\n      dup3\n      add\n      swap2\n      swap1\n      0x00\n      mstore\n      keccak256(0x00, 0x20)\n      swap1\n    tag_118:\n      dup2\n      sload\n      dup2\n      mstore\n      swap1\n      0x01\n      add\n      swap1\n      0x20\n      add\n      dup1\n      dup4\n      gt\n      tag_118\n      jumpi\n      dup3\n      swap1\n      sub\n      0x1f\n      and\n      dup3\n      add\n      swap2\n    tag_116:\n      pop\n      pop\n      pop\n      pop\n      pop\n      swap1\n      pop\n      dup3\n      jump\t// out\n        /* \"contracts/EgitimBilgileri.sol\":184:198  uint public id */\n    tag_55:\n      sload(0x0c)\n      dup2\n      jump\t// out\n        /* \"contracts/BaseContract.sol\":3460:3511  mapping(address=>Akademisyen) public akademisyenler */\n    tag_60:\n      mstore(0x20, 0x05)\n      dup1\n      0x00\n      mstore\n      keccak256(0x00, 0x40)\n      0x00\n      swap2\n      pop\n      swap1\n      pop\n      dup1\n      0x00\n      add\n      0x00\n      swap1\n      sload\n      swap1\n      0x0100\n      exp\n      swap1\n      div\n      0xff\n      and\n      swap1\n      dup1\n      0x00\n      add\n      0x01\n      swap1\n      sload\n      swap1\n      0x0100\n      exp\n      swap1\n      div\n      0xffffffffffffffffffffffffffffffffffffffff\n      and\n      swap1\n      dup1\n      0x00\n      add\n      0x15\n      swap1\n      sload\n      swap1\n      0x0100\n      exp\n      swap1\n      div\n      0xffff\n      and\n      swap1\n      dup1\n      0x00\n      add\n      0x17\n      swap1\n      sload\n      swap1\n      0x0100\n      exp\n      swap1\n      div\n      0xff\n      and\n      swap1\n      dup1\n      0x01\n      add\n      dup1\n      sload\n      tag_119\n      swap1\n      tag_69\n      jump\t// in\n    tag_119:\n      dup1\n      0x1f\n      add\n      0x20\n      dup1\n      swap2\n      div\n      mul\n      0x20\n      add\n      mload(0x40)\n      swap1\n      dup2\n      add\n      0x40\n      mstore\n      dup1\n      swap3\n      swap2\n      swap1\n      dup2\n      dup2\n      mstore\n      0x20\n      add\n      dup3\n      dup1\n      sload\n      tag_120\n      swap1\n      tag_69\n      jump\t// in\n    tag_120:\n      dup1\n      iszero\n      tag_121\n      jumpi\n      dup1\n      0x1f\n      lt\n      tag_122\n      jumpi\n      0x0100\n      dup1\n      dup4\n      sload\n      div\n      mul\n      dup4\n      mstore\n      swap2\n      0x20\n      add\n      swap2\n      jump(tag_121)\n    tag_122:\n      dup3\n      add\n      swap2\n      swap1\n      0x00\n      mstore\n      keccak256(0x00, 0x20)\n      swap1\n    tag_123:\n      dup2\n      sload\n      dup2\n      mstore\n      swap1\n      0x01\n      add\n      swap1\n      0x20\n      add\n      dup1\n      dup4\n      gt\n      tag_123\n      jumpi\n      dup3\n      swap1\n      sub\n      0x1f\n      and\n      dup3\n      add\n      swap2\n    tag_121:\n      pop\n      pop\n      pop\n      pop\n      pop\n      swap1\n      dup1\n      0x02\n      add\n      dup1\n      sload\n      tag_124\n      swap1\n      tag_69\n      jump\t// in\n    tag_124:\n      dup1\n      0x1f\n      add\n      0x20\n      dup1\n      swap2\n      div\n      mul\n      0x20\n      add\n      mload(0x40)\n      swap1\n      dup2\n      add\n      0x40\n      mstore\n      dup1\n      swap3\n      swap2\n      swap1\n      dup2\n      dup2\n      mstore\n      0x20\n      add\n      dup3\n      dup1\n      sload\n      tag_125\n      swap1\n      tag_69\n      jump\t// in\n    tag_125:\n      dup1\n      iszero\n      tag_126\n      jumpi\n      dup1\n      0x1f\n      lt\n      tag_127\n      jumpi\n      0x0100\n      dup1\n      dup4\n      sload\n      div\n      mul\n      dup4\n      mstore\n      swap2\n      0x20\n      add\n      swap2\n      jump(tag_126)\n    tag_127:\n      dup3\n      add\n      swap2\n      swap1\n      0x00\n      mstore\n      keccak256(0x00, 0x20)\n      swap1\n    tag_128:\n      dup2\n      sload\n      dup2\n      mstore\n      swap1\n      0x01\n      add\n      swap1\n      0x20\n      add\n      dup1\n      dup4\n      gt\n      tag_128\n      jumpi\n      dup3\n      swap1\n      sub\n      0x1f\n      and\n      dup3\n      add\n      swap2\n    tag_126:\n      pop\n      pop\n      pop\n      pop\n      pop\n      swap1\n      pop\n      dup7\n      jump\t// out\n        /* \"contracts/BaseContract.sol\":3360:3397  mapping(address=>Kisi) public kisiler */\n    tag_65:\n      mstore(0x20, 0x03)\n      dup1\n      0x00\n      mstore\n      keccak256(0x00, 0x40)\n      0x00\n      swap2\n      pop\n      swap1\n      pop\n      dup1\n      0x00\n      add\n      0x00\n      swap1\n      sload\n      swap1\n      0x0100\n      exp\n      swap1\n      div\n      0xff\n      and\n      swap1\n      pop\n      dup2\n      jump\t// out\n        /* \"#utility.yul\":7:146   */\n    tag_130:\n        /* \"#utility.yul\":53:58   */\n      0x00\n        /* \"#utility.yul\":91:97   */\n      dup2\n        /* \"#utility.yul\":78:98   */\n      calldataload\n        /* \"#utility.yul\":69:98   */\n      swap1\n      pop\n        /* \"#utility.yul\":107:140   */\n      tag_132\n        /* \"#utility.yul\":134:139   */\n      dup2\n        /* \"#utility.yul\":107:140   */\n      tag_133\n      jump\t// in\n    tag_132:\n        /* \"#utility.yul\":7:146   */\n      swap3\n      swap2\n      pop\n      pop\n      jump\t// out\n        /* \"#utility.yul\":152:291   */\n    tag_134:\n        /* \"#utility.yul\":198:203   */\n      0x00\n        /* \"#utility.yul\":236:242   */\n      dup2\n        /* \"#utility.yul\":223:243   */\n      calldataload\n        /* \"#utility.yul\":214:243   */\n      swap1\n      pop\n        /* \"#utility.yul\":252:285   */\n      tag_136\n        /* \"#utility.yul\":279:284   */\n      dup2\n        /* \"#utility.yul\":252:285   */\n      tag_137\n      jump\t// in\n    tag_136:\n        /* \"#utility.yul\":152:291   */\n      swap3\n      swap2\n      pop\n      pop\n      jump\t// out\n        /* \"#utility.yul\":297:434   */\n    tag_138:\n        /* \"#utility.yul\":342:347   */\n      0x00\n        /* \"#utility.yul\":380:386   */\n      dup2\n        /* \"#utility.yul\":367:387   */\n      calldataload\n        /* \"#utility.yul\":358:387   */\n      swap1\n      pop\n        /* \"#utility.yul\":396:428   */\n      tag_140\n        /* \"#utility.yul\":422:427   */\n      dup2\n        /* \"#utility.yul\":396:428   */\n      tag_141\n      jump\t// in\n    tag_140:\n        /* \"#utility.yul\":297:434   */\n      swap3\n      swap2\n      pop\n      pop\n      jump\t// out\n        /* \"#utility.yul\":440:769   */\n    tag_17:\n        /* \"#utility.yul\":499:505   */\n      0x00\n        /* \"#utility.yul\":548:550   */\n      0x20\n        /* \"#utility.yul\":536:545   */\n      dup3\n        /* \"#utility.yul\":527:534   */\n      dup5\n        /* \"#utility.yul\":523:546   */\n      sub\n        /* \"#utility.yul\":519:551   */\n      slt\n        /* \"#utility.yul\":516:635   */\n      iszero\n      tag_143\n      jumpi\n        /* \"#utility.yul\":554:633   */\n      tag_144\n      tag_145\n      jump\t// in\n    tag_144:\n        /* \"#utility.yul\":516:635   */\n    tag_143:\n        /* \"#utility.yul\":674:675   */\n      0x00\n        /* \"#utility.yul\":699:752   */\n      tag_146\n        /* \"#utility.yul\":744:751   */\n      dup5\n        /* \"#utility.yul\":735:741   */\n      dup3\n        /* \"#utility.yul\":724:733   */\n      dup6\n        /* \"#utility.yul\":720:742   */\n      add\n        /* \"#utility.yul\":699:752   */\n      tag_130\n      jump\t// in\n    tag_146:\n        /* \"#utility.yul\":689:752   */\n      swap2\n      pop\n        /* \"#utility.yul\":645:762   */\n      pop\n        /* \"#utility.yul\":440:769   */\n      swap3\n      swap2\n      pop\n      pop\n      jump\t// out\n        /* \"#utility.yul\":775:1249   */\n    tag_27:\n        /* \"#utility.yul\":843:849   */\n      0x00\n        /* \"#utility.yul\":851:857   */\n      dup1\n        /* \"#utility.yul\":900:902   */\n      0x40\n        /* \"#utility.yul\":888:897   */\n      dup4\n        /* \"#utility.yul\":879:886   */\n      dup6\n        /* \"#utility.yul\":875:898   */\n      sub\n        /* \"#utility.yul\":871:903   */\n      slt\n        /* \"#utility.yul\":868:987   */\n      iszero\n      tag_148\n      jumpi\n        /* \"#utility.yul\":906:985   */\n      tag_149\n      tag_145\n      jump\t// in\n    tag_149:\n        /* \"#utility.yul\":868:987   */\n    tag_148:\n        /* \"#utility.yul\":1026:1027   */\n      0x00\n        /* \"#utility.yul\":1051:1104   */\n      tag_150\n        /* \"#utility.yul\":1096:1103   */\n      dup6\n        /* \"#utility.yul\":1087:1093   */\n      dup3\n        /* \"#utility.yul\":1076:1085   */\n      dup7\n        /* \"#utility.yul\":1072:1094   */\n      add\n        /* \"#utility.yul\":1051:1104   */\n      tag_130\n      jump\t// in\n    tag_150:\n        /* \"#utility.yul\":1041:1104   */\n      swap3\n      pop\n        /* \"#utility.yul\":997:1114   */\n      pop\n        /* \"#utility.yul\":1153:1155   */\n      0x20\n        /* \"#utility.yul\":1179:1232   */\n      tag_151\n        /* \"#utility.yul\":1224:1231   */\n      dup6\n        /* \"#utility.yul\":1215:1221   */\n      dup3\n        /* \"#utility.yul\":1204:1213   */\n      dup7\n        /* \"#utility.yul\":1200:1222   */\n      add\n        /* \"#utility.yul\":1179:1232   */\n      tag_134\n      jump\t// in\n    tag_151:\n        /* \"#utility.yul\":1169:1232   */\n      swap2\n      pop\n        /* \"#utility.yul\":1124:1242   */\n      pop\n        /* \"#utility.yul\":775:1249   */\n      swap3\n      pop\n      swap3\n      swap1\n      pop\n      jump\t// out\n        /* \"#utility.yul\":1255:1582   */\n    tag_50:\n        /* \"#utility.yul\":1313:1319   */\n      0x00\n        /* \"#utility.yul\":1362:1364   */\n      0x20\n        /* \"#utility.yul\":1350:1359   */\n      dup3\n        /* \"#utility.yul\":1341:1348   */\n      dup5\n        /* \"#utility.yul\":1337:1360   */\n      sub\n        /* \"#utility.yul\":1333:1365   */\n      slt\n        /* \"#utility.yul\":1330:1449   */\n      iszero\n      tag_153\n      jumpi\n        /* \"#utility.yul\":1368:1447   */\n      tag_154\n      tag_145\n      jump\t// in\n    tag_154:\n        /* \"#utility.yul\":1330:1449   */\n    tag_153:\n        /* \"#utility.yul\":1488:1489   */\n      0x00\n        /* \"#utility.yul\":1513:1565   */\n      tag_155\n        /* \"#utility.yul\":1557:1564   */\n      dup5\n        /* \"#utility.yul\":1548:1554   */\n      dup3\n        /* \"#utility.yul\":1537:1546   */\n      dup6\n        /* \"#utility.yul\":1533:1555   */\n      add\n        /* \"#utility.yul\":1513:1565   */\n      tag_138\n      jump\t// in\n    tag_155:\n        /* \"#utility.yul\":1503:1565   */\n      swap2\n      pop\n        /* \"#utility.yul\":1459:1575   */\n      pop\n        /* \"#utility.yul\":1255:1582   */\n      swap3\n      swap2\n      pop\n      pop\n      jump\t// out\n        /* \"#utility.yul\":1588:1696   */\n    tag_156:\n        /* \"#utility.yul\":1665:1689   */\n      tag_158\n        /* \"#utility.yul\":1683:1688   */\n      dup2\n        /* \"#utility.yul\":1665:1689   */\n      tag_159\n      jump\t// in\n    tag_158:\n        /* \"#utility.yul\":1660:1663   */\n      dup3\n        /* \"#utility.yul\":1653:1690   */\n      mstore\n        /* \"#utility.yul\":1588:1696   */\n      pop\n      pop\n      jump\t// out\n        /* \"#utility.yul\":1702:1820   */\n    tag_160:\n        /* \"#utility.yul\":1789:1813   */\n      tag_162\n        /* \"#utility.yul\":1807:1812   */\n      dup2\n        /* \"#utility.yul\":1789:1813   */\n      tag_159\n      jump\t// in\n    tag_162:\n        /* \"#utility.yul\":1784:1787   */\n      dup3\n        /* \"#utility.yul\":1777:1814   */\n      mstore\n        /* \"#utility.yul\":1702:1820   */\n      pop\n      pop\n      jump\t// out\n        /* \"#utility.yul\":1826:1935   */\n    tag_163:\n        /* \"#utility.yul\":1907:1928   */\n      tag_165\n        /* \"#utility.yul\":1922:1927   */\n      dup2\n        /* \"#utility.yul\":1907:1928   */\n      tag_166\n      jump\t// in\n    tag_165:\n        /* \"#utility.yul\":1902:1905   */\n      dup3\n        /* \"#utility.yul\":1895:1929   */\n      mstore\n        /* \"#utility.yul\":1826:1935   */\n      pop\n      pop\n      jump\t// out\n        /* \"#utility.yul\":1941:2098   */\n    tag_167:\n        /* \"#utility.yul\":2041:2091   */\n      tag_169\n        /* \"#utility.yul\":2085:2090   */\n      dup2\n        /* \"#utility.yul\":2041:2091   */\n      tag_170\n      jump\t// in\n    tag_169:\n        /* \"#utility.yul\":2036:2039   */\n      dup3\n        /* \"#utility.yul\":2029:2092   */\n      mstore\n        /* \"#utility.yul\":1941:2098   */\n      pop\n      pop\n      jump\t// out\n        /* \"#utility.yul\":2104:2259   */\n    tag_171:\n        /* \"#utility.yul\":2203:2252   */\n      tag_173\n        /* \"#utility.yul\":2246:2251   */\n      dup2\n        /* \"#utility.yul\":2203:2252   */\n      tag_174\n      jump\t// in\n    tag_173:\n        /* \"#utility.yul\":2198:2201   */\n      dup3\n        /* \"#utility.yul\":2191:2253   */\n      mstore\n        /* \"#utility.yul\":2104:2259   */\n      pop\n      pop\n      jump\t// out\n        /* \"#utility.yul\":2265:2406   */\n    tag_175:\n        /* \"#utility.yul\":2352:2399   */\n      tag_177\n        /* \"#utility.yul\":2393:2398   */\n      dup2\n        /* \"#utility.yul\":2352:2399   */\n      tag_178\n      jump\t// in\n    tag_177:\n        /* \"#utility.yul\":2347:2350   */\n      dup3\n        /* \"#utility.yul\":2340:2400   */\n      mstore\n        /* \"#utility.yul\":2265:2406   */\n      pop\n      pop\n      jump\t// out\n        /* \"#utility.yul\":2412:2555   */\n    tag_179:\n        /* \"#utility.yul\":2505:2548   */\n      tag_181\n        /* \"#utility.yul\":2542:2547   */\n      dup2\n        /* \"#utility.yul\":2505:2548   */\n      tag_182\n      jump\t// in\n    tag_181:\n        /* \"#utility.yul\":2500:2503   */\n      dup3\n        /* \"#utility.yul\":2493:2549   */\n      mstore\n        /* \"#utility.yul\":2412:2555   */\n      pop\n      pop\n      jump\t// out\n        /* \"#utility.yul\":2561:2925   */\n    tag_183:\n        /* \"#utility.yul\":2649:2652   */\n      0x00\n        /* \"#utility.yul\":2677:2716   */\n      tag_185\n        /* \"#utility.yul\":2710:2715   */\n      dup3\n        /* \"#utility.yul\":2677:2716   */\n      tag_186\n      jump\t// in\n    tag_185:\n        /* \"#utility.yul\":2732:2803   */\n      tag_187\n        /* \"#utility.yul\":2796:2802   */\n      dup2\n        /* \"#utility.yul\":2791:2794   */\n      dup6\n        /* \"#utility.yul\":2732:2803   */\n      tag_188\n      jump\t// in\n    tag_187:\n        /* \"#utility.yul\":2725:2803   */\n      swap4\n      pop\n        /* \"#utility.yul\":2812:2864   */\n      tag_189\n        /* \"#utility.yul\":2857:2863   */\n      dup2\n        /* \"#utility.yul\":2852:2855   */\n      dup6\n        /* \"#utility.yul\":2845:2849   */\n      0x20\n        /* \"#utility.yul\":2838:2843   */\n      dup7\n        /* \"#utility.yul\":2834:2850   */\n      add\n        /* \"#utility.yul\":2812:2864   */\n      tag_190\n      jump\t// in\n    tag_189:\n        /* \"#utility.yul\":2889:2918   */\n      tag_191\n        /* \"#utility.yul\":2911:2917   */\n      dup2\n        /* \"#utility.yul\":2889:2918   */\n      tag_192\n      jump\t// in\n    tag_191:\n        /* \"#utility.yul\":2884:2887   */\n      dup5\n        /* \"#utility.yul\":2880:2919   */\n      add\n        /* \"#utility.yul\":2873:2919   */\n      swap2\n      pop\n        /* \"#utility.yul\":2653:2925   */\n      pop\n        /* \"#utility.yul\":2561:2925   */\n      swap3\n      swap2\n      pop\n      pop\n      jump\t// out\n        /* \"#utility.yul\":2991:3675   */\n    tag_193:\n        /* \"#utility.yul\":3128:3132   */\n      0x60\n        /* \"#utility.yul\":3123:3126   */\n      dup3\n        /* \"#utility.yul\":3119:3133   */\n      add\n        /* \"#utility.yul\":3216:3220   */\n      0x00\n        /* \"#utility.yul\":3209:3214   */\n      dup3\n        /* \"#utility.yul\":3205:3221   */\n      add\n        /* \"#utility.yul\":3199:3222   */\n      mload\n        /* \"#utility.yul\":3235:3298   */\n      tag_195\n        /* \"#utility.yul\":3292:3296   */\n      0x00\n        /* \"#utility.yul\":3287:3290   */\n      dup6\n        /* \"#utility.yul\":3283:3297   */\n      add\n        /* \"#utility.yul\":3269:3281   */\n      dup3\n        /* \"#utility.yul\":3235:3298   */\n      tag_196\n      jump\t// in\n    tag_195:\n        /* \"#utility.yul\":3143:3308   */\n      pop\n        /* \"#utility.yul\":3391:3395   */\n      0x20\n        /* \"#utility.yul\":3384:3389   */\n      dup3\n        /* \"#utility.yul\":3380:3396   */\n      add\n        /* \"#utility.yul\":3374:3397   */\n      mload\n        /* \"#utility.yul\":3410:3473   */\n      tag_197\n        /* \"#utility.yul\":3467:3471   */\n      0x20\n        /* \"#utility.yul\":3462:3465   */\n      dup6\n        /* \"#utility.yul\":3458:3472   */\n      add\n        /* \"#utility.yul\":3444:3456   */\n      dup3\n        /* \"#utility.yul\":3410:3473   */\n      tag_156\n      jump\t// in\n    tag_197:\n        /* \"#utility.yul\":3318:3483   */\n      pop\n        /* \"#utility.yul\":3566:3570   */\n      0x40\n        /* \"#utility.yul\":3559:3564   */\n      dup3\n        /* \"#utility.yul\":3555:3571   */\n      add\n        /* \"#utility.yul\":3549:3572   */\n      mload\n        /* \"#utility.yul\":3585:3658   */\n      tag_198\n        /* \"#utility.yul\":3652:3656   */\n      0x40\n        /* \"#utility.yul\":3647:3650   */\n      dup6\n        /* \"#utility.yul\":3643:3657   */\n      add\n        /* \"#utility.yul\":3629:3641   */\n      dup3\n        /* \"#utility.yul\":3585:3658   */\n      tag_175\n      jump\t// in\n    tag_198:\n        /* \"#utility.yul\":3493:3668   */\n      pop\n        /* \"#utility.yul\":3097:3675   */\n      pop\n        /* \"#utility.yul\":2991:3675   */\n      pop\n      pop\n      jump\t// out\n        /* \"#utility.yul\":3681:3796   */\n    tag_199:\n        /* \"#utility.yul\":3766:3789   */\n      tag_201\n        /* \"#utility.yul\":3783:3788   */\n      dup2\n        /* \"#utility.yul\":3766:3789   */\n      tag_202\n      jump\t// in\n    tag_201:\n        /* \"#utility.yul\":3761:3764   */\n      dup3\n        /* \"#utility.yul\":3754:3790   */\n      mstore\n        /* \"#utility.yul\":3681:3796   */\n      pop\n      pop\n      jump\t// out\n        /* \"#utility.yul\":3802:3910   */\n    tag_196:\n        /* \"#utility.yul\":3879:3903   */\n      tag_204\n        /* \"#utility.yul\":3897:3902   */\n      dup2\n        /* \"#utility.yul\":3879:3903   */\n      tag_205\n      jump\t// in\n    tag_204:\n        /* \"#utility.yul\":3874:3877   */\n      dup3\n        /* \"#utility.yul\":3867:3904   */\n      mstore\n        /* \"#utility.yul\":3802:3910   */\n      pop\n      pop\n      jump\t// out\n        /* \"#utility.yul\":3916:4034   */\n    tag_206:\n        /* \"#utility.yul\":4003:4027   */\n      tag_208\n        /* \"#utility.yul\":4021:4026   */\n      dup2\n        /* \"#utility.yul\":4003:4027   */\n      tag_205\n      jump\t// in\n    tag_208:\n        /* \"#utility.yul\":3998:4001   */\n      dup3\n        /* \"#utility.yul\":3991:4028   */\n      mstore\n        /* \"#utility.yul\":3916:4034   */\n      pop\n      pop\n      jump\t// out\n        /* \"#utility.yul\":4040:4155   */\n    tag_209:\n        /* \"#utility.yul\":4125:4148   */\n      tag_211\n        /* \"#utility.yul\":4142:4147   */\n      dup2\n        /* \"#utility.yul\":4125:4148   */\n      tag_212\n      jump\t// in\n    tag_211:\n        /* \"#utility.yul\":4120:4123   */\n      dup3\n        /* \"#utility.yul\":4113:4149   */\n      mstore\n        /* \"#utility.yul\":4040:4155   */\n      pop\n      pop\n      jump\t// out\n        /* \"#utility.yul\":4161:4273   */\n    tag_213:\n        /* \"#utility.yul\":4244:4266   */\n      tag_215\n        /* \"#utility.yul\":4260:4265   */\n      dup2\n        /* \"#utility.yul\":4244:4266   */\n      tag_216\n      jump\t// in\n    tag_215:\n        /* \"#utility.yul\":4239:4242   */\n      dup3\n        /* \"#utility.yul\":4232:4267   */\n      mstore\n        /* \"#utility.yul\":4161:4273   */\n      pop\n      pop\n      jump\t// out\n        /* \"#utility.yul\":4279:4489   */\n    tag_67:\n        /* \"#utility.yul\":4366:4370   */\n      0x00\n        /* \"#utility.yul\":4404:4406   */\n      0x20\n        /* \"#utility.yul\":4393:4402   */\n      dup3\n        /* \"#utility.yul\":4389:4407   */\n      add\n        /* \"#utility.yul\":4381:4407   */\n      swap1\n      pop\n        /* \"#utility.yul\":4417:4482   */\n      tag_218\n        /* \"#utility.yul\":4479:4480   */\n      0x00\n        /* \"#utility.yul\":4468:4477   */\n      dup4\n        /* \"#utility.yul\":4464:4481   */\n      add\n        /* \"#utility.yul\":4455:4461   */\n      dup5\n        /* \"#utility.yul\":4417:4482   */\n      tag_163\n      jump\t// in\n    tag_218:\n        /* \"#utility.yul\":4279:4489   */\n      swap3\n      swap2\n      pop\n      pop\n      jump\t// out\n        /* \"#utility.yul\":4495:5448   */\n    tag_62:\n        /* \"#utility.yul\":4766:4770   */\n      0x00\n        /* \"#utility.yul\":4804:4807   */\n      0xc0\n        /* \"#utility.yul\":4793:4802   */\n      dup3\n        /* \"#utility.yul\":4789:4808   */\n      add\n        /* \"#utility.yul\":4781:4808   */\n      swap1\n      pop\n        /* \"#utility.yul\":4818:4883   */\n      tag_220\n        /* \"#utility.yul\":4880:4881   */\n      0x00\n        /* \"#utility.yul\":4869:4878   */\n      dup4\n        /* \"#utility.yul\":4865:4882   */\n      add\n        /* \"#utility.yul\":4856:4862   */\n      dup10\n        /* \"#utility.yul\":4818:4883   */\n      tag_163\n      jump\t// in\n    tag_220:\n        /* \"#utility.yul\":4893:4965   */\n      tag_221\n        /* \"#utility.yul\":4961:4963   */\n      0x20\n        /* \"#utility.yul\":4950:4959   */\n      dup4\n        /* \"#utility.yul\":4946:4964   */\n      add\n        /* \"#utility.yul\":4937:4943   */\n      dup9\n        /* \"#utility.yul\":4893:4965   */\n      tag_160\n      jump\t// in\n    tag_221:\n        /* \"#utility.yul\":4975:5045   */\n      tag_222\n        /* \"#utility.yul\":5041:5043   */\n      0x40\n        /* \"#utility.yul\":5030:5039   */\n      dup4\n        /* \"#utility.yul\":5026:5044   */\n      add\n        /* \"#utility.yul\":5017:5023   */\n      dup8\n        /* \"#utility.yul\":4975:5045   */\n      tag_199\n      jump\t// in\n    tag_222:\n        /* \"#utility.yul\":5055:5133   */\n      tag_223\n        /* \"#utility.yul\":5129:5131   */\n      0x60\n        /* \"#utility.yul\":5118:5127   */\n      dup4\n        /* \"#utility.yul\":5114:5132   */\n      add\n        /* \"#utility.yul\":5105:5111   */\n      dup7\n        /* \"#utility.yul\":5055:5133   */\n      tag_179\n      jump\t// in\n    tag_223:\n        /* \"#utility.yul\":5181:5190   */\n      dup2\n        /* \"#utility.yul\":5175:5179   */\n      dup2\n        /* \"#utility.yul\":5171:5191   */\n      sub\n        /* \"#utility.yul\":5165:5168   */\n      0x80\n        /* \"#utility.yul\":5154:5163   */\n      dup4\n        /* \"#utility.yul\":5150:5169   */\n      add\n        /* \"#utility.yul\":5143:5192   */\n      mstore\n        /* \"#utility.yul\":5209:5287   */\n      tag_224\n        /* \"#utility.yul\":5282:5286   */\n      dup2\n        /* \"#utility.yul\":5273:5279   */\n      dup6\n        /* \"#utility.yul\":5209:5287   */\n      tag_183\n      jump\t// in\n    tag_224:\n        /* \"#utility.yul\":5201:5287   */\n      swap1\n      pop\n        /* \"#utility.yul\":5335:5344   */\n      dup2\n        /* \"#utility.yul\":5329:5333   */\n      dup2\n        /* \"#utility.yul\":5325:5345   */\n      sub\n        /* \"#utility.yul\":5319:5322   */\n      0xa0\n        /* \"#utility.yul\":5308:5317   */\n      dup4\n        /* \"#utility.yul\":5304:5323   */\n      add\n        /* \"#utility.yul\":5297:5346   */\n      mstore\n        /* \"#utility.yul\":5363:5441   */\n      tag_225\n        /* \"#utility.yul\":5436:5440   */\n      dup2\n        /* \"#utility.yul\":5427:5433   */\n      dup5\n        /* \"#utility.yul\":5363:5441   */\n      tag_183\n      jump\t// in\n    tag_225:\n        /* \"#utility.yul\":5355:5441   */\n      swap1\n      pop\n        /* \"#utility.yul\":4495:5448   */\n      swap8\n      swap7\n      pop\n      pop\n      pop\n      pop\n      pop\n      pop\n      pop\n      jump\t// out\n        /* \"#utility.yul\":5454:5967   */\n    tag_20:\n        /* \"#utility.yul\":5613:5617   */\n      0x00\n        /* \"#utility.yul\":5651:5653   */\n      0x60\n        /* \"#utility.yul\":5640:5649   */\n      dup3\n        /* \"#utility.yul\":5636:5654   */\n      add\n        /* \"#utility.yul\":5628:5654   */\n      swap1\n      pop\n        /* \"#utility.yul\":5664:5729   */\n      tag_227\n        /* \"#utility.yul\":5726:5727   */\n      0x00\n        /* \"#utility.yul\":5715:5724   */\n      dup4\n        /* \"#utility.yul\":5711:5728   */\n      add\n        /* \"#utility.yul\":5702:5708   */\n      dup7\n        /* \"#utility.yul\":5664:5729   */\n      tag_163\n      jump\t// in\n    tag_227:\n        /* \"#utility.yul\":5776:5785   */\n      dup2\n        /* \"#utility.yul\":5770:5774   */\n      dup2\n        /* \"#utility.yul\":5766:5786   */\n      sub\n        /* \"#utility.yul\":5761:5763   */\n      0x20\n        /* \"#utility.yul\":5750:5759   */\n      dup4\n        /* \"#utility.yul\":5746:5764   */\n      add\n        /* \"#utility.yul\":5739:5787   */\n      mstore\n        /* \"#utility.yul\":5804:5882   */\n      tag_228\n        /* \"#utility.yul\":5877:5881   */\n      dup2\n        /* \"#utility.yul\":5868:5874   */\n      dup6\n        /* \"#utility.yul\":5804:5882   */\n      tag_183\n      jump\t// in\n    tag_228:\n        /* \"#utility.yul\":5796:5882   */\n      swap1\n      pop\n        /* \"#utility.yul\":5892:5960   */\n      tag_229\n        /* \"#utility.yul\":5956:5958   */\n      0x40\n        /* \"#utility.yul\":5945:5954   */\n      dup4\n        /* \"#utility.yul\":5941:5959   */\n      add\n        /* \"#utility.yul\":5932:5938   */\n      dup5\n        /* \"#utility.yul\":5892:5960   */\n      tag_213\n      jump\t// in\n    tag_229:\n        /* \"#utility.yul\":5454:5967   */\n      swap5\n      swap4\n      pop\n      pop\n      pop\n      pop\n      jump\t// out\n        /* \"#utility.yul\":5973:6597   */\n    tag_39:\n        /* \"#utility.yul\":6160:6164   */\n      0x00\n        /* \"#utility.yul\":6198:6201   */\n      0x80\n        /* \"#utility.yul\":6187:6196   */\n      dup3\n        /* \"#utility.yul\":6183:6202   */\n      add\n        /* \"#utility.yul\":6175:6202   */\n      swap1\n      pop\n        /* \"#utility.yul\":6212:6277   */\n      tag_231\n        /* \"#utility.yul\":6274:6275   */\n      0x00\n        /* \"#utility.yul\":6263:6272   */\n      dup4\n        /* \"#utility.yul\":6259:6276   */\n      add\n        /* \"#utility.yul\":6250:6256   */\n      dup8\n        /* \"#utility.yul\":6212:6277   */\n      tag_163\n      jump\t// in\n    tag_231:\n        /* \"#utility.yul\":6287:6355   */\n      tag_232\n        /* \"#utility.yul\":6351:6353   */\n      0x20\n        /* \"#utility.yul\":6340:6349   */\n      dup4\n        /* \"#utility.yul\":6336:6354   */\n      add\n        /* \"#utility.yul\":6327:6333   */\n      dup7\n        /* \"#utility.yul\":6287:6355   */\n      tag_213\n      jump\t// in\n    tag_232:\n        /* \"#utility.yul\":6365:6437   */\n      tag_233\n        /* \"#utility.yul\":6433:6435   */\n      0x40\n        /* \"#utility.yul\":6422:6431   */\n      dup4\n        /* \"#utility.yul\":6418:6436   */\n      add\n        /* \"#utility.yul\":6409:6415   */\n      dup6\n        /* \"#utility.yul\":6365:6437   */\n      tag_206\n      jump\t// in\n    tag_233:\n        /* \"#utility.yul\":6484:6493   */\n      dup2\n        /* \"#utility.yul\":6478:6482   */\n      dup2\n        /* \"#utility.yul\":6474:6494   */\n      sub\n        /* \"#utility.yul\":6469:6471   */\n      0x60\n        /* \"#utility.yul\":6458:6467   */\n      dup4\n        /* \"#utility.yul\":6454:6472   */\n      add\n        /* \"#utility.yul\":6447:6495   */\n      mstore\n        /* \"#utility.yul\":6512:6590   */\n      tag_234\n        /* \"#utility.yul\":6585:6589   */\n      dup2\n        /* \"#utility.yul\":6576:6582   */\n      dup5\n        /* \"#utility.yul\":6512:6590   */\n      tag_183\n      jump\t// in\n    tag_234:\n        /* \"#utility.yul\":6504:6590   */\n      swap1\n      pop\n        /* \"#utility.yul\":5973:6597   */\n      swap6\n      swap5\n      pop\n      pop\n      pop\n      pop\n      pop\n      jump\t// out\n        /* \"#utility.yul\":6603:6825   */\n    tag_57:\n        /* \"#utility.yul\":6696:6700   */\n      0x00\n        /* \"#utility.yul\":6734:6736   */\n      0x20\n        /* \"#utility.yul\":6723:6732   */\n      dup3\n        /* \"#utility.yul\":6719:6737   */\n      add\n        /* \"#utility.yul\":6711:6737   */\n      swap1\n      pop\n        /* \"#utility.yul\":6747:6818   */\n      tag_236\n        /* \"#utility.yul\":6815:6816   */\n      0x00\n        /* \"#utility.yul\":6804:6813   */\n      dup4\n        /* \"#utility.yul\":6800:6817   */\n      add\n        /* \"#utility.yul\":6791:6797   */\n      dup5\n        /* \"#utility.yul\":6747:6818   */\n      tag_206\n      jump\t// in\n    tag_236:\n        /* \"#utility.yul\":6603:6825   */\n      swap3\n      swap2\n      pop\n      pop\n      jump\t// out\n        /* \"#utility.yul\":6831:8580   */\n    tag_30:\n        /* \"#utility.yul\":7335:7339   */\n      0x00\n        /* \"#utility.yul\":7373:7376   */\n      0x01c0\n        /* \"#utility.yul\":7362:7371   */\n      dup3\n        /* \"#utility.yul\":7358:7377   */\n      add\n        /* \"#utility.yul\":7350:7377   */\n      swap1\n      pop\n        /* \"#utility.yul\":7387:7458   */\n      tag_238\n        /* \"#utility.yul\":7455:7456   */\n      0x00\n        /* \"#utility.yul\":7444:7453   */\n      dup4\n        /* \"#utility.yul\":7440:7457   */\n      add\n        /* \"#utility.yul\":7431:7437   */\n      dup16\n        /* \"#utility.yul\":7387:7458   */\n      tag_206\n      jump\t// in\n    tag_238:\n        /* \"#utility.yul\":7468:7540   */\n      tag_239\n        /* \"#utility.yul\":7536:7538   */\n      0x20\n        /* \"#utility.yul\":7525:7534   */\n      dup4\n        /* \"#utility.yul\":7521:7539   */\n      add\n        /* \"#utility.yul\":7512:7518   */\n      dup15\n        /* \"#utility.yul\":7468:7540   */\n      tag_160\n      jump\t// in\n    tag_239:\n        /* \"#utility.yul\":7550:7635   */\n      tag_240\n        /* \"#utility.yul\":7631:7633   */\n      0x40\n        /* \"#utility.yul\":7620:7629   */\n      dup4\n        /* \"#utility.yul\":7616:7634   */\n      add\n        /* \"#utility.yul\":7607:7613   */\n      dup14\n        /* \"#utility.yul\":7550:7635   */\n      tag_167\n      jump\t// in\n    tag_240:\n        /* \"#utility.yul\":7645:7717   */\n      tag_241\n        /* \"#utility.yul\":7713:7715   */\n      0x60\n        /* \"#utility.yul\":7702:7711   */\n      dup4\n        /* \"#utility.yul\":7698:7716   */\n      add\n        /* \"#utility.yul\":7689:7695   */\n      dup13\n        /* \"#utility.yul\":7645:7717   */\n      tag_206\n      jump\t// in\n    tag_241:\n        /* \"#utility.yul\":7727:7800   */\n      tag_242\n        /* \"#utility.yul\":7795:7798   */\n      0x80\n        /* \"#utility.yul\":7784:7793   */\n      dup4\n        /* \"#utility.yul\":7780:7799   */\n      add\n        /* \"#utility.yul\":7771:7777   */\n      dup12\n        /* \"#utility.yul\":7727:7800   */\n      tag_206\n      jump\t// in\n    tag_242:\n        /* \"#utility.yul\":7848:7857   */\n      dup2\n        /* \"#utility.yul\":7842:7846   */\n      dup2\n        /* \"#utility.yul\":7838:7858   */\n      sub\n        /* \"#utility.yul\":7832:7835   */\n      0xa0\n        /* \"#utility.yul\":7821:7830   */\n      dup4\n        /* \"#utility.yul\":7817:7836   */\n      add\n        /* \"#utility.yul\":7810:7859   */\n      mstore\n        /* \"#utility.yul\":7876:7954   */\n      tag_243\n        /* \"#utility.yul\":7949:7953   */\n      dup2\n        /* \"#utility.yul\":7940:7946   */\n      dup11\n        /* \"#utility.yul\":7876:7954   */\n      tag_183\n      jump\t// in\n    tag_243:\n        /* \"#utility.yul\":7868:7954   */\n      swap1\n      pop\n        /* \"#utility.yul\":8002:8011   */\n      dup2\n        /* \"#utility.yul\":7996:8000   */\n      dup2\n        /* \"#utility.yul\":7992:8012   */\n      sub\n        /* \"#utility.yul\":7986:7989   */\n      0xc0\n        /* \"#utility.yul\":7975:7984   */\n      dup4\n        /* \"#utility.yul\":7971:7990   */\n      add\n        /* \"#utility.yul\":7964:8013   */\n      mstore\n        /* \"#utility.yul\":8030:8108   */\n      tag_244\n        /* \"#utility.yul\":8103:8107   */\n      dup2\n        /* \"#utility.yul\":8094:8100   */\n      dup10\n        /* \"#utility.yul\":8030:8108   */\n      tag_183\n      jump\t// in\n    tag_244:\n        /* \"#utility.yul\":8022:8108   */\n      swap1\n      pop\n        /* \"#utility.yul\":8118:8191   */\n      tag_245\n        /* \"#utility.yul\":8186:8189   */\n      0xe0\n        /* \"#utility.yul\":8175:8184   */\n      dup4\n        /* \"#utility.yul\":8171:8190   */\n      add\n        /* \"#utility.yul\":8162:8168   */\n      dup9\n        /* \"#utility.yul\":8118:8191   */\n      tag_160\n      jump\t// in\n    tag_245:\n        /* \"#utility.yul\":8201:8272   */\n      tag_246\n        /* \"#utility.yul\":8267:8270   */\n      0x0100\n        /* \"#utility.yul\":8256:8265   */\n      dup4\n        /* \"#utility.yul\":8252:8271   */\n      add\n        /* \"#utility.yul\":8243:8249   */\n      dup8\n        /* \"#utility.yul\":8201:8272   */\n      tag_199\n      jump\t// in\n    tag_246:\n        /* \"#utility.yul\":8282:8353   */\n      tag_247\n        /* \"#utility.yul\":8348:8351   */\n      0x0120\n        /* \"#utility.yul\":8337:8346   */\n      dup4\n        /* \"#utility.yul\":8333:8352   */\n      add\n        /* \"#utility.yul\":8324:8330   */\n      dup7\n        /* \"#utility.yul\":8282:8353   */\n      tag_199\n      jump\t// in\n    tag_247:\n        /* \"#utility.yul\":8363:8449   */\n      tag_248\n        /* \"#utility.yul\":8444:8447   */\n      0x0140\n        /* \"#utility.yul\":8433:8442   */\n      dup4\n        /* \"#utility.yul\":8429:8448   */\n      add\n        /* \"#utility.yul\":8419:8426   */\n      dup6\n        /* \"#utility.yul\":8363:8449   */\n      tag_171\n      jump\t// in\n    tag_248:\n        /* \"#utility.yul\":8459:8573   */\n      tag_249\n        /* \"#utility.yul\":8568:8571   */\n      0x0160\n        /* \"#utility.yul\":8557:8566   */\n      dup4\n        /* \"#utility.yul\":8553:8572   */\n      add\n        /* \"#utility.yul\":8543:8550   */\n      dup5\n        /* \"#utility.yul\":8459:8573   */\n      tag_193\n      jump\t// in\n    tag_249:\n        /* \"#utility.yul\":6831:8580   */\n      swap14\n      swap13\n      pop\n      pop\n      pop\n      pop\n      pop\n      pop\n      pop\n      pop\n      pop\n      pop\n      pop\n      pop\n      pop\n      jump\t// out\n        /* \"#utility.yul\":8586:9005   */\n    tag_53:\n        /* \"#utility.yul\":8725:8729   */\n      0x00\n        /* \"#utility.yul\":8763:8765   */\n      0x40\n        /* \"#utility.yul\":8752:8761   */\n      dup3\n        /* \"#utility.yul\":8748:8766   */\n      add\n        /* \"#utility.yul\":8740:8766   */\n      swap1\n      pop\n        /* \"#utility.yul\":8776:8845   */\n      tag_251\n        /* \"#utility.yul\":8842:8843   */\n      0x00\n        /* \"#utility.yul\":8831:8840   */\n      dup4\n        /* \"#utility.yul\":8827:8844   */\n      add\n        /* \"#utility.yul\":8818:8824   */\n      dup6\n        /* \"#utility.yul\":8776:8845   */\n      tag_209\n      jump\t// in\n    tag_251:\n        /* \"#utility.yul\":8892:8901   */\n      dup2\n        /* \"#utility.yul\":8886:8890   */\n      dup2\n        /* \"#utility.yul\":8882:8902   */\n      sub\n        /* \"#utility.yul\":8877:8879   */\n      0x20\n        /* \"#utility.yul\":8866:8875   */\n      dup4\n        /* \"#utility.yul\":8862:8880   */\n      add\n        /* \"#utility.yul\":8855:8903   */\n      mstore\n        /* \"#utility.yul\":8920:8998   */\n      tag_252\n        /* \"#utility.yul\":8993:8997   */\n      dup2\n        /* \"#utility.yul\":8984:8990   */\n      dup5\n        /* \"#utility.yul\":8920:8998   */\n      tag_183\n      jump\t// in\n    tag_252:\n        /* \"#utility.yul\":8912:8998   */\n      swap1\n      pop\n        /* \"#utility.yul\":8586:9005   */\n      swap4\n      swap3\n      pop\n      pop\n      pop\n      jump\t// out\n        /* \"#utility.yul\":9092:9191   */\n    tag_186:\n        /* \"#utility.yul\":9144:9150   */\n      0x00\n        /* \"#utility.yul\":9178:9183   */\n      dup2\n        /* \"#utility.yul\":9172:9184   */\n      mload\n        /* \"#utility.yul\":9162:9184   */\n      swap1\n      pop\n        /* \"#utility.yul\":9092:9191   */\n      swap2\n      swap1\n      pop\n      jump\t// out\n        /* \"#utility.yul\":9197:9366   */\n    tag_188:\n        /* \"#utility.yul\":9281:9292   */\n      0x00\n        /* \"#utility.yul\":9315:9321   */\n      dup3\n        /* \"#utility.yul\":9310:9313   */\n      dup3\n        /* \"#utility.yul\":9303:9322   */\n      mstore\n        /* \"#utility.yul\":9355:9359   */\n      0x20\n        /* \"#utility.yul\":9350:9353   */\n      dup3\n        /* \"#utility.yul\":9346:9360   */\n      add\n        /* \"#utility.yul\":9331:9360   */\n      swap1\n      pop\n        /* \"#utility.yul\":9197:9366   */\n      swap3\n      swap2\n      pop\n      pop\n      jump\t// out\n        /* \"#utility.yul\":9372:9468   */\n    tag_159:\n        /* \"#utility.yul\":9409:9416   */\n      0x00\n        /* \"#utility.yul\":9438:9462   */\n      tag_258\n        /* \"#utility.yul\":9456:9461   */\n      dup3\n        /* \"#utility.yul\":9438:9462   */\n      tag_259\n      jump\t// in\n    tag_258:\n        /* \"#utility.yul\":9427:9462   */\n      swap1\n      pop\n        /* \"#utility.yul\":9372:9468   */\n      swap2\n      swap1\n      pop\n      jump\t// out\n        /* \"#utility.yul\":9474:9564   */\n    tag_166:\n        /* \"#utility.yul\":9508:9515   */\n      0x00\n        /* \"#utility.yul\":9551:9556   */\n      dup2\n        /* \"#utility.yul\":9544:9557   */\n      iszero\n        /* \"#utility.yul\":9537:9558   */\n      iszero\n        /* \"#utility.yul\":9526:9558   */\n      swap1\n      pop\n        /* \"#utility.yul\":9474:9564   */\n      swap2\n      swap1\n      pop\n      jump\t// out\n        /* \"#utility.yul\":9570:9711   */\n    tag_261:\n        /* \"#utility.yul\":9622:9629   */\n      0x00\n        /* \"#utility.yul\":9651:9656   */\n      dup2\n        /* \"#utility.yul\":9640:9656   */\n      swap1\n      pop\n        /* \"#utility.yul\":9657:9705   */\n      tag_263\n        /* \"#utility.yul\":9699:9704   */\n      dup3\n        /* \"#utility.yul\":9657:9705   */\n      tag_264\n      jump\t// in\n    tag_263:\n        /* \"#utility.yul\":9570:9711   */\n      swap2\n      swap1\n      pop\n      jump\t// out\n        /* \"#utility.yul\":9717:9856   */\n    tag_265:\n        /* \"#utility.yul\":9768:9775   */\n      0x00\n        /* \"#utility.yul\":9797:9802   */\n      dup2\n        /* \"#utility.yul\":9786:9802   */\n      swap1\n      pop\n        /* \"#utility.yul\":9803:9850   */\n      tag_267\n        /* \"#utility.yul\":9844:9849   */\n      dup3\n        /* \"#utility.yul\":9803:9850   */\n      tag_268\n      jump\t// in\n    tag_267:\n        /* \"#utility.yul\":9717:9856   */\n      swap2\n      swap1\n      pop\n      jump\t// out\n        /* \"#utility.yul\":9862:9997   */\n    tag_269:\n        /* \"#utility.yul\":9911:9918   */\n      0x00\n        /* \"#utility.yul\":9940:9945   */\n      dup2\n        /* \"#utility.yul\":9929:9945   */\n      swap1\n      pop\n        /* \"#utility.yul\":9946:9991   */\n      tag_271\n        /* \"#utility.yul\":9985:9990   */\n      dup3\n        /* \"#utility.yul\":9946:9991   */\n      tag_272\n      jump\t// in\n    tag_271:\n        /* \"#utility.yul\":9862:9997   */\n      swap2\n      swap1\n      pop\n      jump\t// out\n        /* \"#utility.yul\":10003:10130   */\n    tag_273:\n        /* \"#utility.yul\":10048:10055   */\n      0x00\n        /* \"#utility.yul\":10077:10082   */\n      dup2\n        /* \"#utility.yul\":10066:10082   */\n      swap1\n      pop\n        /* \"#utility.yul\":10083:10124   */\n      tag_275\n        /* \"#utility.yul\":10118:10123   */\n      dup3\n        /* \"#utility.yul\":10083:10124   */\n      tag_276\n      jump\t// in\n    tag_275:\n        /* \"#utility.yul\":10003:10130   */\n      swap2\n      swap1\n      pop\n      jump\t// out\n        /* \"#utility.yul\":10136:10225   */\n    tag_202:\n        /* \"#utility.yul\":10172:10179   */\n      0x00\n        /* \"#utility.yul\":10212:10218   */\n      0xffff\n        /* \"#utility.yul\":10205:10210   */\n      dup3\n        /* \"#utility.yul\":10201:10219   */\n      and\n        /* \"#utility.yul\":10190:10219   */\n      swap1\n      pop\n        /* \"#utility.yul\":10136:10225   */\n      swap2\n      swap1\n      pop\n      jump\t// out\n        /* \"#utility.yul\":10231:10357   */\n    tag_259:\n        /* \"#utility.yul\":10268:10275   */\n      0x00\n        /* \"#utility.yul\":10308:10350   */\n      0xffffffffffffffffffffffffffffffffffffffff\n        /* \"#utility.yul\":10301:10306   */\n      dup3\n        /* \"#utility.yul\":10297:10351   */\n      and\n        /* \"#utility.yul\":10286:10351   */\n      swap1\n      pop\n        /* \"#utility.yul\":10231:10357   */\n      swap2\n      swap1\n      pop\n      jump\t// out\n        /* \"#utility.yul\":10363:10440   */\n    tag_205:\n        /* \"#utility.yul\":10400:10407   */\n      0x00\n        /* \"#utility.yul\":10429:10434   */\n      dup2\n        /* \"#utility.yul\":10418:10434   */\n      swap1\n      pop\n        /* \"#utility.yul\":10363:10440   */\n      swap2\n      swap1\n      pop\n      jump\t// out\n        /* \"#utility.yul\":10446:10539   */\n    tag_212:\n        /* \"#utility.yul\":10482:10489   */\n      0x00\n        /* \"#utility.yul\":10522:10532   */\n      0xffffffff\n        /* \"#utility.yul\":10515:10520   */\n      dup3\n        /* \"#utility.yul\":10511:10533   */\n      and\n        /* \"#utility.yul\":10500:10533   */\n      swap1\n      pop\n        /* \"#utility.yul\":10446:10539   */\n      swap2\n      swap1\n      pop\n      jump\t// out\n        /* \"#utility.yul\":10545:10631   */\n    tag_216:\n        /* \"#utility.yul\":10580:10587   */\n      0x00\n        /* \"#utility.yul\":10620:10624   */\n      0xff\n        /* \"#utility.yul\":10613:10618   */\n      dup3\n        /* \"#utility.yul\":10609:10625   */\n      and\n        /* \"#utility.yul\":10598:10625   */\n      swap1\n      pop\n        /* \"#utility.yul\":10545:10631   */\n      swap2\n      swap1\n      pop\n      jump\t// out\n        /* \"#utility.yul\":10637:10778   */\n    tag_170:\n        /* \"#utility.yul\":10700:10709   */\n      0x00\n        /* \"#utility.yul\":10733:10772   */\n      tag_283\n        /* \"#utility.yul\":10766:10771   */\n      dup3\n        /* \"#utility.yul\":10733:10772   */\n      tag_261\n      jump\t// in\n    tag_283:\n        /* \"#utility.yul\":10720:10772   */\n      swap1\n      pop\n        /* \"#utility.yul\":10637:10778   */\n      swap2\n      swap1\n      pop\n      jump\t// out\n        /* \"#utility.yul\":10784:10923   */\n    tag_174:\n        /* \"#utility.yul\":10846:10855   */\n      0x00\n        /* \"#utility.yul\":10879:10917   */\n      tag_285\n        /* \"#utility.yul\":10911:10916   */\n      dup3\n        /* \"#utility.yul\":10879:10917   */\n      tag_265\n      jump\t// in\n    tag_285:\n        /* \"#utility.yul\":10866:10917   */\n      swap1\n      pop\n        /* \"#utility.yul\":10784:10923   */\n      swap2\n      swap1\n      pop\n      jump\t// out\n        /* \"#utility.yul\":10929:11064   */\n    tag_178:\n        /* \"#utility.yul\":10989:10998   */\n      0x00\n        /* \"#utility.yul\":11022:11058   */\n      tag_287\n        /* \"#utility.yul\":11052:11057   */\n      dup3\n        /* \"#utility.yul\":11022:11058   */\n      tag_269\n      jump\t// in\n    tag_287:\n        /* \"#utility.yul\":11009:11058   */\n      swap1\n      pop\n        /* \"#utility.yul\":10929:11064   */\n      swap2\n      swap1\n      pop\n      jump\t// out\n        /* \"#utility.yul\":11070:11197   */\n    tag_182:\n        /* \"#utility.yul\":11126:11135   */\n      0x00\n        /* \"#utility.yul\":11159:11191   */\n      tag_289\n        /* \"#utility.yul\":11185:11190   */\n      dup3\n        /* \"#utility.yul\":11159:11191   */\n      tag_273\n      jump\t// in\n    tag_289:\n        /* \"#utility.yul\":11146:11191   */\n      swap1\n      pop\n        /* \"#utility.yul\":11070:11197   */\n      swap2\n      swap1\n      pop\n      jump\t// out\n        /* \"#utility.yul\":11203:11510   */\n    tag_190:\n        /* \"#utility.yul\":11271:11272   */\n      0x00\n        /* \"#utility.yul\":11281:11394   */\n    tag_291:\n        /* \"#utility.yul\":11295:11301   */\n      dup4\n        /* \"#utility.yul\":11292:11293   */\n      dup2\n        /* \"#utility.yul\":11289:11302   */\n      lt\n        /* \"#utility.yul\":11281:11394   */\n      iszero\n      tag_293\n      jumpi\n        /* \"#utility.yul\":11380:11381   */\n      dup1\n        /* \"#utility.yul\":11375:11378   */\n      dup3\n        /* \"#utility.yul\":11371:11382   */\n      add\n        /* \"#utility.yul\":11365:11383   */\n      mload\n        /* \"#utility.yul\":11361:11362   */\n      dup2\n        /* \"#utility.yul\":11356:11359   */\n      dup5\n        /* \"#utility.yul\":11352:11363   */\n      add\n        /* \"#utility.yul\":11345:11384   */\n      mstore\n        /* \"#utility.yul\":11317:11319   */\n      0x20\n        /* \"#utility.yul\":11314:11315   */\n      dup2\n        /* \"#utility.yul\":11310:11320   */\n      add\n        /* \"#utility.yul\":11305:11320   */\n      swap1\n      pop\n        /* \"#utility.yul\":11281:11394   */\n      jump(tag_291)\n    tag_293:\n        /* \"#utility.yul\":11412:11418   */\n      dup4\n        /* \"#utility.yul\":11409:11410   */\n      dup2\n        /* \"#utility.yul\":11406:11419   */\n      gt\n        /* \"#utility.yul\":11403:11504   */\n      iszero\n      tag_294\n      jumpi\n        /* \"#utility.yul\":11492:11493   */\n      0x00\n        /* \"#utility.yul\":11483:11489   */\n      dup5\n        /* \"#utility.yul\":11478:11481   */\n      dup5\n        /* \"#utility.yul\":11474:11490   */\n      add\n        /* \"#utility.yul\":11467:11494   */\n      mstore\n        /* \"#utility.yul\":11403:11504   */\n    tag_294:\n        /* \"#utility.yul\":11252:11510   */\n      pop\n        /* \"#utility.yul\":11203:11510   */\n      pop\n      pop\n      pop\n      jump\t// out\n        /* \"#utility.yul\":11516:11836   */\n    tag_69:\n        /* \"#utility.yul\":11560:11566   */\n      0x00\n        /* \"#utility.yul\":11597:11598   */\n      0x02\n        /* \"#utility.yul\":11591:11595   */\n      dup3\n        /* \"#utility.yul\":11587:11599   */\n      div\n        /* \"#utility.yul\":11577:11599   */\n      swap1\n      pop\n        /* \"#utility.yul\":11644:11645   */\n      0x01\n        /* \"#utility.yul\":11638:11642   */\n      dup3\n        /* \"#utility.yul\":11634:11646   */\n      and\n        /* \"#utility.yul\":11665:11683   */\n      dup1\n        /* \"#utility.yul\":11655:11736   */\n      tag_296\n      jumpi\n        /* \"#utility.yul\":11721:11725   */\n      0x7f\n        /* \"#utility.yul\":11713:11719   */\n      dup3\n        /* \"#utility.yul\":11709:11726   */\n      and\n        /* \"#utility.yul\":11699:11726   */\n      swap2\n      pop\n        /* \"#utility.yul\":11655:11736   */\n    tag_296:\n        /* \"#utility.yul\":11783:11785   */\n      0x20\n        /* \"#utility.yul\":11775:11781   */\n      dup3\n        /* \"#utility.yul\":11772:11786   */\n      lt\n        /* \"#utility.yul\":11752:11770   */\n      dup2\n        /* \"#utility.yul\":11749:11787   */\n      eq\n        /* \"#utility.yul\":11746:11830   */\n      iszero\n      tag_297\n      jumpi\n        /* \"#utility.yul\":11802:11820   */\n      tag_298\n      tag_299\n      jump\t// in\n    tag_298:\n        /* \"#utility.yul\":11746:11830   */\n    tag_297:\n        /* \"#utility.yul\":11567:11836   */\n      pop\n        /* \"#utility.yul\":11516:11836   */\n      swap2\n      swap1\n      pop\n      jump\t// out\n        /* \"#utility.yul\":11842:12022   */\n    tag_91:\n        /* \"#utility.yul\":11890:11967   */\n      0x4e487b7100000000000000000000000000000000000000000000000000000000\n        /* \"#utility.yul\":11887:11888   */\n      0x00\n        /* \"#utility.yul\":11880:11968   */\n      mstore\n        /* \"#utility.yul\":11987:11991   */\n      0x21\n        /* \"#utility.yul\":11984:11985   */\n      0x04\n        /* \"#utility.yul\":11977:11992   */\n      mstore\n        /* \"#utility.yul\":12011:12015   */\n      0x24\n        /* \"#utility.yul\":12008:12009   */\n      0x00\n        /* \"#utility.yul\":12001:12016   */\n      revert\n        /* \"#utility.yul\":12028:12208   */\n    tag_299:\n        /* \"#utility.yul\":12076:12153   */\n      0x4e487b7100000000000000000000000000000000000000000000000000000000\n        /* \"#utility.yul\":12073:12074   */\n      0x00\n        /* \"#utility.yul\":12066:12154   */\n      mstore\n        /* \"#utility.yul\":12173:12177   */\n      0x22\n        /* \"#utility.yul\":12170:12171   */\n      0x04\n        /* \"#utility.yul\":12163:12178   */\n      mstore\n        /* \"#utility.yul\":12197:12201   */\n      0x24\n        /* \"#utility.yul\":12194:12195   */\n      0x00\n        /* \"#utility.yul\":12187:12202   */\n      revert\n        /* \"#utility.yul\":12337:12454   */\n    tag_145:\n        /* \"#utility.yul\":12446:12447   */\n      0x00\n        /* \"#utility.yul\":12443:12444   */\n      dup1\n        /* \"#utility.yul\":12436:12448   */\n      revert\n        /* \"#utility.yul\":12460:12562   */\n    tag_192:\n        /* \"#utility.yul\":12501:12507   */\n      0x00\n        /* \"#utility.yul\":12552:12554   */\n      0x1f\n        /* \"#utility.yul\":12548:12555   */\n      not\n        /* \"#utility.yul\":12543:12545   */\n      0x1f\n        /* \"#utility.yul\":12536:12541   */\n      dup4\n        /* \"#utility.yul\":12532:12546   */\n      add\n        /* \"#utility.yul\":12528:12556   */\n      and\n        /* \"#utility.yul\":12518:12556   */\n      swap1\n      pop\n        /* \"#utility.yul\":12460:12562   */\n      swap2\n      swap1\n      pop\n      jump\t// out\n        /* \"#utility.yul\":12568:12688   */\n    tag_264:\n        /* \"#utility.yul\":12656:12657   */\n      0x04\n        /* \"#utility.yul\":12649:12654   */\n      dup2\n        /* \"#utility.yul\":12646:12658   */\n      lt\n        /* \"#utility.yul\":12636:12682   */\n      tag_307\n      jumpi\n        /* \"#utility.yul\":12662:12680   */\n      tag_308\n      tag_91\n      jump\t// in\n    tag_308:\n        /* \"#utility.yul\":12636:12682   */\n    tag_307:\n        /* \"#utility.yul\":12568:12688   */\n      pop\n      jump\t// out\n        /* \"#utility.yul\":12694:12813   */\n    tag_268:\n        /* \"#utility.yul\":12781:12782   */\n      0x04\n        /* \"#utility.yul\":12774:12779   */\n      dup2\n        /* \"#utility.yul\":12771:12783   */\n      lt\n        /* \"#utility.yul\":12761:12807   */\n      tag_310\n      jumpi\n        /* \"#utility.yul\":12787:12805   */\n      tag_311\n      tag_91\n      jump\t// in\n    tag_311:\n        /* \"#utility.yul\":12761:12807   */\n    tag_310:\n        /* \"#utility.yul\":12694:12813   */\n      pop\n      jump\t// out\n        /* \"#utility.yul\":12819:12936   */\n    tag_272:\n        /* \"#utility.yul\":12904:12905   */\n      0x03\n        /* \"#utility.yul\":12897:12902   */\n      dup2\n        /* \"#utility.yul\":12894:12906   */\n      lt\n        /* \"#utility.yul\":12884:12930   */\n      tag_313\n      jumpi\n        /* \"#utility.yul\":12910:12928   */\n      tag_314\n      tag_91\n      jump\t// in\n    tag_314:\n        /* \"#utility.yul\":12884:12930   */\n    tag_313:\n        /* \"#utility.yul\":12819:12936   */\n      pop\n      jump\t// out\n        /* \"#utility.yul\":12942:13055   */\n    tag_276:\n        /* \"#utility.yul\":13023:13024   */\n      0x04\n        /* \"#utility.yul\":13016:13021   */\n      dup2\n        /* \"#utility.yul\":13013:13025   */\n      lt\n        /* \"#utility.yul\":13003:13049   */\n      tag_316\n      jumpi\n        /* \"#utility.yul\":13029:13047   */\n      tag_317\n      tag_91\n      jump\t// in\n    tag_317:\n        /* \"#utility.yul\":13003:13049   */\n    tag_316:\n        /* \"#utility.yul\":12942:13055   */\n      pop\n      jump\t// out\n        /* \"#utility.yul\":13061:13183   */\n    tag_133:\n        /* \"#utility.yul\":13134:13158   */\n      tag_319\n        /* \"#utility.yul\":13152:13157   */\n      dup2\n        /* \"#utility.yul\":13134:13158   */\n      tag_159\n      jump\t// in\n    tag_319:\n        /* \"#utility.yul\":13127:13132   */\n      dup2\n        /* \"#utility.yul\":13124:13159   */\n      eq\n        /* \"#utility.yul\":13114:13177   */\n      tag_320\n      jumpi\n        /* \"#utility.yul\":13173:13174   */\n      0x00\n        /* \"#utility.yul\":13170:13171   */\n      dup1\n        /* \"#utility.yul\":13163:13175   */\n      revert\n        /* \"#utility.yul\":13114:13177   */\n    tag_320:\n        /* \"#utility.yul\":13061:13183   */\n      pop\n      jump\t// out\n        /* \"#utility.yul\":13189:13311   */\n    tag_137:\n        /* \"#utility.yul\":13262:13286   */\n      tag_322\n        /* \"#utility.yul\":13280:13285   */\n      dup2\n        /* \"#utility.yul\":13262:13286   */\n      tag_205\n      jump\t// in\n    tag_322:\n        /* \"#utility.yul\":13255:13260   */\n      dup2\n        /* \"#utility.yul\":13252:13287   */\n      eq\n        /* \"#utility.yul\":13242:13305   */\n      tag_323\n      jumpi\n        /* \"#utility.yul\":13301:13302   */\n      0x00\n        /* \"#utility.yul\":13298:13299   */\n      dup1\n        /* \"#utility.yul\":13291:13303   */\n      revert\n        /* \"#utility.yul\":13242:13305   */\n    tag_323:\n        /* \"#utility.yul\":13189:13311   */\n      pop\n      jump\t// out\n        /* \"#utility.yul\":13317:13437   */\n    tag_141:\n        /* \"#utility.yul\":13389:13412   */\n      tag_325\n        /* \"#utility.yul\":13406:13411   */\n      dup2\n        /* \"#utility.yul\":13389:13412   */\n      tag_212\n      jump\t// in\n    tag_325:\n        /* \"#utility.yul\":13382:13387   */\n      dup2\n        /* \"#utility.yul\":13379:13413   */\n      eq\n        /* \"#utility.yul\":13369:13431   */\n      tag_326\n      jumpi\n        /* \"#utility.yul\":13427:13428   */\n      0x00\n        /* \"#utility.yul\":13424:13425   */\n      dup1\n        /* \"#utility.yul\":13417:13429   */\n      revert\n        /* \"#utility.yul\":13369:13431   */\n    tag_326:\n        /* \"#utility.yul\":13317:13437   */\n      pop\n      jump\t// out\n\n    auxdata: 0xa264697066735822122057c6c06e48120618394fca82a0e1251ded96dd43777584f516bc7ac7a8e451ff64736f6c63430008070033\n}\n",
				"bytecode": {
					"linkReferences": {},
					"object": "608060405234801561001057600080fd5b506113a7806100206000396000f3fe608060405234801561001057600080fd5b50600436106100a95760003560e01c80637d0fa287116100715780637d0fa287146101b25780639a8c9119146101e4578063a4e7ae0514610216578063af640d0f14610247578063ba479b7e14610265578063cbc928091461029a576100a9565b80631916e139146100ae57806328266697146100e05780632fe3473614610112578063356b1f1e1461014d57806339987f941461017f575b600080fd5b6100c860048036038101906100c39190610cf0565b6102ca565b6040516100d793929190610f43565b60405180910390f35b6100fa60048036038101906100f59190610cf0565b610396565b60405161010993929190610f43565b60405180910390f35b61012c60048036038101906101279190610d1d565b610462565b6040516101449c9b9a99989796959493929190610fe8565b60405180910390f35b61016760048036038101906101629190610cf0565b6106fa565b60405161017693929190610f43565b60405180910390f35b61019960048036038101906101949190610cf0565b6107c6565b6040516101a99493929190610f81565b60405180910390f35b6101cc60048036038101906101c79190610cf0565b610898565b6040516101db93929190610f43565b60405180910390f35b6101fe60048036038101906101f99190610cf0565b610964565b60405161020d93929190610f43565b60405180910390f35b610230600480360381019061022b9190610d5d565b610a30565b60405161023e9291906110b0565b60405180910390f35b61024f610aec565b60405161025c9190610fcd565b60405180910390f35b61027f600480360381019061027a9190610cf0565b610af2565b60405161029196959493929190610ed4565b60405180910390f35b6102b460048036038101906102af9190610cf0565b610c86565b6040516102c19190610eb9565b60405180910390f35b60076020528060005260406000206000915090508060000160009054906101000a900460ff169080600101805461030090611236565b80601f016020809104026020016040519081016040528092919081815260200182805461032c90611236565b80156103795780601f1061034e57610100808354040283529160200191610379565b820191906000526020600020905b81548152906001019060200180831161035c57829003601f168201915b5050505050908060020160009054906101000a900460ff16905083565b60046020528060005260406000206000915090508060000160009054906101000a900460ff16908060010180546103cc90611236565b80601f01602080910402602001604051908101604052809291908181526020018280546103f890611236565b80156104455780601f1061041a57610100808354040283529160200191610445565b820191906000526020600020905b81548152906001019060200180831161042857829003601f168201915b5050505050908060020160009054906101000a900460ff16905083565b600d602052816000526040600020602052806000526040600020600091509150508060000154908060010160009054906101000a900473ffffffffffffffffffffffffffffffffffffffff16908060010160149054906101000a900460ff16908060020154908060030154908060040180546104dd90611236565b80601f016020809104026020016040519081016040528092919081815260200182805461050990611236565b80156105565780601f1061052b57610100808354040283529160200191610556565b820191906000526020600020905b81548152906001019060200180831161053957829003601f168201915b50505050509080600501805461056b90611236565b80601f016020809104026020016040519081016040528092919081815260200182805461059790611236565b80156105e45780601f106105b9576101008083540402835291602001916105e4565b820191906000526020600020905b8154815290600101906020018083116105c757829003601f168201915b5050505050908060060160009054906101000a900473ffffffffffffffffffffffffffffffffffffffff16908060060160149054906101000a900461ffff16908060060160169054906101000a900461ffff16908060060160189054906101000a900460ff169080600701604051806060016040529081600082015481526020016001820160009054906101000a900473ffffffffffffffffffffffffffffffffffffffff1673ffffffffffffffffffffffffffffffffffffffff1673ffffffffffffffffffffffffffffffffffffffff1681526020016001820160149054906101000a900460ff1660028111156106df576106de611268565b5b60028111156106f1576106f0611268565b5b8152505090508c565b600a6020528060005260406000206000915090508060000160009054906101000a900460ff169080600101805461073090611236565b80601f016020809104026020016040519081016040528092919081815260200182805461075c90611236565b80156107a95780601f1061077e576101008083540402835291602001916107a9565b820191906000526020600020905b81548152906001019060200180831161078c57829003601f168201915b5050505050908060020160009054906101000a900460ff16905083565b60066020528060005260406000206000915090508060000160009054906101000a900460ff16908060000160019054906101000a900460ff169080600101549080600201805461081590611236565b80601f016020809104026020016040519081016040528092919081815260200182805461084190611236565b801561088e5780601f106108635761010080835404028352916020019161088e565b820191906000526020600020905b81548152906001019060200180831161087157829003601f168201915b5050505050905084565b60086020528060005260406000206000915090508060000160009054906101000a900460ff16908060010180546108ce90611236565b80601f01602080910402602001604051908101604052809291908181526020018280546108fa90611236565b80156109475780601f1061091c57610100808354040283529160200191610947565b820191906000526020600020905b81548152906001019060200180831161092a57829003601f168201915b5050505050908060020160009054906101000a900460ff16905083565b60096020528060005260406000206000915090508060000160009054906101000a900460ff169080600101805461099a90611236565b80601f01602080910402602001604051908101604052809291908181526020018280546109c690611236565b8015610a135780601f106109e857610100808354040283529160200191610a13565b820191906000526020600020905b8154815290600101906020018083116109f657829003601f168201915b5050505050908060020160009054906101000a900460ff16905083565b600b6020528060005260406000206000915090508060000160009054906101000a900463ffffffff1690806001018054610a6990611236565b80601f0160208091040260200160405190810160405280929190818152602001828054610a9590611236565b8015610ae25780601f10610ab757610100808354040283529160200191610ae2565b820191906000526020600020905b815481529060010190602001808311610ac557829003601f168201915b5050505050905082565b600c5481565b60056020528060005260406000206000915090508060000160009054906101000a900460ff16908060000160019054906101000a900473ffffffffffffffffffffffffffffffffffffffff16908060000160159054906101000a900461ffff16908060000160179054906101000a900460ff1690806001018054610b7590611236565b80601f0160208091040260200160405190810160405280929190818152602001828054610ba190611236565b8015610bee5780601f10610bc357610100808354040283529160200191610bee565b820191906000526020600020905b815481529060010190602001808311610bd157829003601f168201915b505050505090806002018054610c0390611236565b80601f0160208091040260200160405190810160405280929190818152602001828054610c2f90611236565b8015610c7c5780601f10610c5157610100808354040283529160200191610c7c565b820191906000526020600020905b815481529060010190602001808311610c5f57829003601f168201915b5050505050905086565b60036020528060005260406000206000915090508060000160009054906101000a900460ff16905081565b600081359050610cc08161132c565b92915050565b600081359050610cd581611343565b92915050565b600081359050610cea8161135a565b92915050565b600060208284031215610d0657610d056112c6565b5b6000610d1484828501610cb1565b91505092915050565b60008060408385031215610d3457610d336112c6565b5b6000610d4285828601610cb1565b9250506020610d5385828601610cc6565b9150509250929050565b600060208284031215610d7357610d726112c6565b5b6000610d8184828501610cdb565b91505092915050565b610d93816110fc565b82525050565b610da2816110fc565b82525050565b610db18161110e565b82525050565b610dc0816111bb565b82525050565b610dcf816111cd565b82525050565b610dde816111df565b82525050565b610ded816111f1565b82525050565b6000610dfe826110e0565b610e0881856110eb565b9350610e18818560208601611203565b610e21816112cb565b840191505092915050565b606082016000820151610e426000850182610e7d565b506020820151610e556020850182610d8a565b506040820151610e686040850182610dd5565b50505050565b610e7781611166565b82525050565b610e8681611194565b82525050565b610e9581611194565b82525050565b610ea48161119e565b82525050565b610eb3816111ae565b82525050565b6000602082019050610ece6000830184610da8565b92915050565b600060c082019050610ee96000830189610da8565b610ef66020830188610d99565b610f036040830187610e6e565b610f106060830186610de4565b8181036080830152610f228185610df3565b905081810360a0830152610f368184610df3565b9050979650505050505050565b6000606082019050610f586000830186610da8565b8181036020830152610f6a8185610df3565b9050610f796040830184610eaa565b949350505050565b6000608082019050610f966000830187610da8565b610fa36020830186610eaa565b610fb06040830185610e8c565b8181036060830152610fc28184610df3565b905095945050505050565b6000602082019050610fe26000830184610e8c565b92915050565b60006101c082019050610ffe600083018f610e8c565b61100b602083018e610d99565b611018604083018d610db7565b611025606083018c610e8c565b611032608083018b610e8c565b81810360a0830152611044818a610df3565b905081810360c08301526110588189610df3565b905061106760e0830188610d99565b611075610100830187610e6e565b611083610120830186610e6e565b611091610140830185610dc6565b61109f610160830184610e2c565b9d9c50505050505050505050505050565b60006040820190506110c56000830185610e9b565b81810360208301526110d78184610df3565b90509392505050565b600081519050919050565b600082825260208201905092915050565b600061110782611174565b9050919050565b60008115159050919050565b6000819050611128826112dc565b919050565b600081905061113b826112f0565b919050565b600081905061114e82611304565b919050565b600081905061116182611318565b919050565b600061ffff82169050919050565b600073ffffffffffffffffffffffffffffffffffffffff82169050919050565b6000819050919050565b600063ffffffff82169050919050565b600060ff82169050919050565b60006111c68261111a565b9050919050565b60006111d88261112d565b9050919050565b60006111ea82611140565b9050919050565b60006111fc82611153565b9050919050565b60005b83811015611221578082015181840152602081019050611206565b83811115611230576000848401525b50505050565b6000600282049050600182168061124e57607f821691505b6020821081141561126257611261611297565b5b50919050565b7f4e487b7100000000000000000000000000000000000000000000000000000000600052602160045260246000fd5b7f4e487b7100000000000000000000000000000000000000000000000000000000600052602260045260246000fd5b600080fd5b6000601f19601f8301169050919050565b600481106112ed576112ec611268565b5b50565b6004811061130157611300611268565b5b50565b6003811061131557611314611268565b5b50565b6004811061132957611328611268565b5b50565b611335816110fc565b811461134057600080fd5b50565b61134c81611194565b811461135757600080fd5b50565b6113638161119e565b811461136e57600080fd5b5056fea264697066735822122057c6c06e48120618394fca82a0e1251ded96dd43777584f516bc7ac7a8e451ff64736f6c63430008070033",
					"opcodes": "PUSH1 0x80 PUSH1 0x40 MSTORE CALLVALUE DUP1 ISZERO PUSH2 0x10 JUMPI PUSH1 0x0 DUP1 REVERT JUMPDEST POP PUSH2 0x13A7 DUP1 PUSH2 0x20 PUSH1 0x0 CODECOPY PUSH1 0x0 RETURN INVALID PUSH1 0x80 PUSH1 0x40 MSTORE CALLVALUE DUP1 ISZERO PUSH2 0x10 JUMPI PUSH1 0x0 DUP1 REVERT JUMPDEST POP PUSH1 0x4 CALLDATASIZE LT PUSH2 0xA9 JUMPI PUSH1 0x0 CALLDATALOAD PUSH1 0xE0 SHR DUP1 PUSH4 0x7D0FA287 GT PUSH2 0x71 JUMPI DUP1 PUSH4 0x7D0FA287 EQ PUSH2 0x1B2 JUMPI DUP1 PUSH4 0x9A8C9119 EQ PUSH2 0x1E4 JUMPI DUP1 PUSH4 0xA4E7AE05 EQ PUSH2 0x216 JUMPI DUP1 PUSH4 0xAF640D0F EQ PUSH2 0x247 JUMPI DUP1 PUSH4 0xBA479B7E EQ PUSH2 0x265 JUMPI DUP1 PUSH4 0xCBC92809 EQ PUSH2 0x29A JUMPI PUSH2 0xA9 JUMP JUMPDEST DUP1 PUSH4 0x1916E139 EQ PUSH2 0xAE JUMPI DUP1 PUSH4 0x28266697 EQ PUSH2 0xE0 JUMPI DUP1 PUSH4 0x2FE34736 EQ PUSH2 0x112 JUMPI DUP1 PUSH4 0x356B1F1E EQ PUSH2 0x14D JUMPI DUP1 PUSH4 0x39987F94 EQ PUSH2 0x17F JUMPI JUMPDEST PUSH1 0x0 DUP1 REVERT JUMPDEST PUSH2 0xC8 PUSH1 0x4 DUP1 CALLDATASIZE SUB DUP2 ADD SWAP1 PUSH2 0xC3 SWAP2 SWAP1 PUSH2 0xCF0 JUMP JUMPDEST PUSH2 0x2CA JUMP JUMPDEST PUSH1 0x40 MLOAD PUSH2 0xD7 SWAP4 SWAP3 SWAP2 SWAP1 PUSH2 0xF43 JUMP JUMPDEST PUSH1 0x40 MLOAD DUP1 SWAP2 SUB SWAP1 RETURN JUMPDEST PUSH2 0xFA PUSH1 0x4 DUP1 CALLDATASIZE SUB DUP2 ADD SWAP1 PUSH2 0xF5 SWAP2 SWAP1 PUSH2 0xCF0 JUMP JUMPDEST PUSH2 0x396 JUMP JUMPDEST PUSH1 0x40 MLOAD PUSH2 0x109 SWAP4 SWAP3 SWAP2 SWAP1 PUSH2 0xF43 JUMP JUMPDEST PUSH1 0x40 MLOAD DUP1 SWAP2 SUB SWAP1 RETURN JUMPDEST PUSH2 0x12C PUSH1 0x4 DUP1 CALLDATASIZE SUB DUP2 ADD SWAP1 PUSH2 0x127 SWAP2 SWAP1 PUSH2 0xD1D JUMP JUMPDEST PUSH2 0x462 JUMP JUMPDEST PUSH1 0x40 MLOAD PUSH2 0x144 SWAP13 SWAP12 SWAP11 SWAP10 SWAP9 SWAP8 SWAP7 SWAP6 SWAP5 SWAP4 SWAP3 SWAP2 SWAP1 PUSH2 0xFE8 JUMP JUMPDEST PUSH1 0x40 MLOAD DUP1 SWAP2 SUB SWAP1 RETURN JUMPDEST PUSH2 0x167 PUSH1 0x4 DUP1 CALLDATASIZE SUB DUP2 ADD SWAP1 PUSH2 0x162 SWAP2 SWAP1 PUSH2 0xCF0 JUMP JUMPDEST PUSH2 0x6FA JUMP JUMPDEST PUSH1 0x40 MLOAD PUSH2 0x176 SWAP4 SWAP3 SWAP2 SWAP1 PUSH2 0xF43 JUMP JUMPDEST PUSH1 0x40 MLOAD DUP1 SWAP2 SUB SWAP1 RETURN JUMPDEST PUSH2 0x199 PUSH1 0x4 DUP1 CALLDATASIZE SUB DUP2 ADD SWAP1 PUSH2 0x194 SWAP2 SWAP1 PUSH2 0xCF0 JUMP JUMPDEST PUSH2 0x7C6 JUMP JUMPDEST PUSH1 0x40 MLOAD PUSH2 0x1A9 SWAP5 SWAP4 SWAP3 SWAP2 SWAP1 PUSH2 0xF81 JUMP JUMPDEST PUSH1 0x40 MLOAD DUP1 SWAP2 SUB SWAP1 RETURN JUMPDEST PUSH2 0x1CC PUSH1 0x4 DUP1 CALLDATASIZE SUB DUP2 ADD SWAP1 PUSH2 0x1C7 SWAP2 SWAP1 PUSH2 0xCF0 JUMP JUMPDEST PUSH2 0x898 JUMP JUMPDEST PUSH1 0x40 MLOAD PUSH2 0x1DB SWAP4 SWAP3 SWAP2 SWAP1 PUSH2 0xF43 JUMP JUMPDEST PUSH1 0x40 MLOAD DUP1 SWAP2 SUB SWAP1 RETURN JUMPDEST PUSH2 0x1FE PUSH1 0x4 DUP1 CALLDATASIZE SUB DUP2 ADD SWAP1 PUSH2 0x1F9 SWAP2 SWAP1 PUSH2 0xCF0 JUMP JUMPDEST PUSH2 0x964 JUMP JUMPDEST PUSH1 0x40 MLOAD PUSH2 0x20D SWAP4 SWAP3 SWAP2 SWAP1 PUSH2 0xF43 JUMP JUMPDEST PUSH1 0x40 MLOAD DUP1 SWAP2 SUB SWAP1 RETURN JUMPDEST PUSH2 0x230 PUSH1 0x4 DUP1 CALLDATASIZE SUB DUP2 ADD SWAP1 PUSH2 0x22B SWAP2 SWAP1 PUSH2 0xD5D JUMP JUMPDEST PUSH2 0xA30 JUMP JUMPDEST PUSH1 0x40 MLOAD PUSH2 0x23E SWAP3 SWAP2 SWAP1 PUSH2 0x10B0 JUMP JUMPDEST PUSH1 0x40 MLOAD DUP1 SWAP2 SUB SWAP1 RETURN JUMPDEST PUSH2 0x24F PUSH2 0xAEC JUMP JUMPDEST PUSH1 0x40 MLOAD PUSH2 0x25C SWAP2 SWAP1 PUSH2 0xFCD JUMP JUMPDEST PUSH1 0x40 MLOAD DUP1 SWAP2 SUB SWAP1 RETURN JUMPDEST PUSH2 0x27F PUSH1 0x4 DUP1 CALLDATASIZE SUB DUP2 ADD SWAP1 PUSH2 0x27A SWAP2 SWAP1 PUSH2 0xCF0 JUMP JUMPDEST PUSH2 0xAF2 JUMP JUMPDEST PUSH1 0x40 MLOAD PUSH2 0x291 SWAP7 SWAP6 SWAP5 SWAP4 SWAP3 SWAP2 SWAP1 PUSH2 0xED4 JUMP JUMPDEST PUSH1 0x40 MLOAD DUP1 SWAP2 SUB SWAP1 RETURN JUMPDEST PUSH2 0x2B4 PUSH1 0x4 DUP1 CALLDATASIZE SUB DUP2 ADD SWAP1 PUSH2 0x2AF SWAP2 SWAP1 PUSH2 0xCF0 JUMP JUMPDEST PUSH2 0xC86 JUMP JUMPDEST PUSH1 0x40 MLOAD PUSH2 0x2C1 SWAP2 SWAP1 PUSH2 0xEB9 JUMP JUMPDEST PUSH1 0x40 MLOAD DUP1 SWAP2 SUB SWAP1 RETURN JUMPDEST PUSH1 0x7 PUSH1 0x20 MSTORE DUP1 PUSH1 0x0 MSTORE PUSH1 0x40 PUSH1 0x0 KECCAK256 PUSH1 0x0 SWAP2 POP SWAP1 POP DUP1 PUSH1 0x0 ADD PUSH1 0x0 SWAP1 SLOAD SWAP1 PUSH2 0x100 EXP SWAP1 DIV PUSH1 0xFF AND SWAP1 DUP1 PUSH1 0x1 ADD DUP1 SLOAD PUSH2 0x300 SWAP1 PUSH2 0x1236 JUMP JUMPDEST DUP1 PUSH1 0x1F ADD PUSH1 0x20 DUP1 SWAP2 DIV MUL PUSH1 0x20 ADD PUSH1 0x40 MLOAD SWAP1 DUP2 ADD PUSH1 0x40 MSTORE DUP1 SWAP3 SWAP2 SWAP1 DUP2 DUP2 MSTORE PUSH1 0x20 ADD DUP3 DUP1 SLOAD PUSH2 0x32C SWAP1 PUSH2 0x1236 JUMP JUMPDEST DUP1 ISZERO PUSH2 0x379 JUMPI DUP1 PUSH1 0x1F LT PUSH2 0x34E JUMPI PUSH2 0x100 DUP1 DUP4 SLOAD DIV MUL DUP4 MSTORE SWAP2 PUSH1 0x20 ADD SWAP2 PUSH2 0x379 JUMP JUMPDEST DUP3 ADD SWAP2 SWAP1 PUSH1 0x0 MSTORE PUSH1 0x20 PUSH1 0x0 KECCAK256 SWAP1 JUMPDEST DUP2 SLOAD DUP2 MSTORE SWAP1 PUSH1 0x1 ADD SWAP1 PUSH1 0x20 ADD DUP1 DUP4 GT PUSH2 0x35C JUMPI DUP3 SWAP1 SUB PUSH1 0x1F AND DUP3 ADD SWAP2 JUMPDEST POP POP POP POP POP SWAP1 DUP1 PUSH1 0x2 ADD PUSH1 0x0 SWAP1 SLOAD SWAP1 PUSH2 0x100 EXP SWAP1 DIV PUSH1 0xFF AND SWAP1 POP DUP4 JUMP JUMPDEST PUSH1 0x4 PUSH1 0x20 MSTORE DUP1 PUSH1 0x0 MSTORE PUSH1 0x40 PUSH1 0x0 KECCAK256 PUSH1 0x0 SWAP2 POP SWAP1 POP DUP1 PUSH1 0x0 ADD PUSH1 0x0 SWAP1 SLOAD SWAP1 PUSH2 0x100 EXP SWAP1 DIV PUSH1 0xFF AND SWAP1 DUP1 PUSH1 0x1 ADD DUP1 SLOAD PUSH2 0x3CC SWAP1 PUSH2 0x1236 JUMP JUMPDEST DUP1 PUSH1 0x1F ADD PUSH1 0x20 DUP1 SWAP2 DIV MUL PUSH1 0x20 ADD PUSH1 0x40 MLOAD SWAP1 DUP2 ADD PUSH1 0x40 MSTORE DUP1 SWAP3 SWAP2 SWAP1 DUP2 DUP2 MSTORE PUSH1 0x20 ADD DUP3 DUP1 SLOAD PUSH2 0x3F8 SWAP1 PUSH2 0x1236 JUMP JUMPDEST DUP1 ISZERO PUSH2 0x445 JUMPI DUP1 PUSH1 0x1F LT PUSH2 0x41A JUMPI PUSH2 0x100 DUP1 DUP4 SLOAD DIV MUL DUP4 MSTORE SWAP2 PUSH1 0x20 ADD SWAP2 PUSH2 0x445 JUMP JUMPDEST DUP3 ADD SWAP2 SWAP1 PUSH1 0x0 MSTORE PUSH1 0x20 PUSH1 0x0 KECCAK256 SWAP1 JUMPDEST DUP2 SLOAD DUP2 MSTORE SWAP1 PUSH1 0x1 ADD SWAP1 PUSH1 0x20 ADD DUP1 DUP4 GT PUSH2 0x428 JUMPI DUP3 SWAP1 SUB PUSH1 0x1F AND DUP3 ADD SWAP2 JUMPDEST POP POP POP POP POP SWAP1 DUP1 PUSH1 0x2 ADD PUSH1 0x0 SWAP1 SLOAD SWAP1 PUSH2 0x100 EXP SWAP1 DIV PUSH1 0xFF AND SWAP1 POP DUP4 JUMP JUMPDEST PUSH1 0xD PUSH1 0x20 MSTORE DUP2 PUSH1 0x0 MSTORE PUSH1 0x40 PUSH1 0x0 KECCAK256 PUSH1 0x20 MSTORE DUP1 PUSH1 0x0 MSTORE PUSH1 0x40 PUSH1 0x0 KECCAK256 PUSH1 0x0 SWAP2 POP SWAP2 POP POP DUP1 PUSH1 0x0 ADD SLOAD SWAP1 DUP1 PUSH1 0x1 ADD PUSH1 0x0 SWAP1 SLOAD SWAP1 PUSH2 0x100 EXP SWAP1 DIV PUSH20 0xFFFFFFFFFFFFFFFFFFFFFFFFFFFFFFFFFFFFFFFF AND SWAP1 DUP1 PUSH1 0x1 ADD PUSH1 0x14 SWAP1 SLOAD SWAP1 PUSH2 0x100 EXP SWAP1 DIV PUSH1 0xFF AND SWAP1 DUP1 PUSH1 0x2 ADD SLOAD SWAP1 DUP1 PUSH1 0x3 ADD SLOAD SWAP1 DUP1 PUSH1 0x4 ADD DUP1 SLOAD PUSH2 0x4DD SWAP1 PUSH2 0x1236 JUMP JUMPDEST DUP1 PUSH1 0x1F ADD PUSH1 0x20 DUP1 SWAP2 DIV MUL PUSH1 0x20 ADD PUSH1 0x40 MLOAD SWAP1 DUP2 ADD PUSH1 0x40 MSTORE DUP1 SWAP3 SWAP2 SWAP1 DUP2 DUP2 MSTORE PUSH1 0x20 ADD DUP3 DUP1 SLOAD PUSH2 0x509 SWAP1 PUSH2 0x1236 JUMP JUMPDEST DUP1 ISZERO PUSH2 0x556 JUMPI DUP1 PUSH1 0x1F LT PUSH2 0x52B JUMPI PUSH2 0x100 DUP1 DUP4 SLOAD DIV MUL DUP4 MSTORE SWAP2 PUSH1 0x20 ADD SWAP2 PUSH2 0x556 JUMP JUMPDEST DUP3 ADD SWAP2 SWAP1 PUSH1 0x0 MSTORE PUSH1 0x20 PUSH1 0x0 KECCAK256 SWAP1 JUMPDEST DUP2 SLOAD DUP2 MSTORE SWAP1 PUSH1 0x1 ADD SWAP1 PUSH1 0x20 ADD DUP1 DUP4 GT PUSH2 0x539 JUMPI DUP3 SWAP1 SUB PUSH1 0x1F AND DUP3 ADD SWAP2 JUMPDEST POP POP POP POP POP SWAP1 DUP1 PUSH1 0x5 ADD DUP1 SLOAD PUSH2 0x56B SWAP1 PUSH2 0x1236 JUMP JUMPDEST DUP1 PUSH1 0x1F ADD PUSH1 0x20 DUP1 SWAP2 DIV MUL PUSH1 0x20 ADD PUSH1 0x40 MLOAD SWAP1 DUP2 ADD PUSH1 0x40 MSTORE DUP1 SWAP3 SWAP2 SWAP1 DUP2 DUP2 MSTORE PUSH1 0x20 ADD DUP3 DUP1 SLOAD PUSH2 0x597 SWAP1 PUSH2 0x1236 JUMP JUMPDEST DUP1 ISZERO PUSH2 0x5E4 JUMPI DUP1 PUSH1 0x1F LT PUSH2 0x5B9 JUMPI PUSH2 0x100 DUP1 DUP4 SLOAD DIV MUL DUP4 MSTORE SWAP2 PUSH1 0x20 ADD SWAP2 PUSH2 0x5E4 JUMP JUMPDEST DUP3 ADD SWAP2 SWAP1 PUSH1 0x0 MSTORE PUSH1 0x20 PUSH1 0x0 KECCAK256 SWAP1 JUMPDEST DUP2 SLOAD DUP2 MSTORE SWAP1 PUSH1 0x1 ADD SWAP1 PUSH1 0x20 ADD DUP1 DUP4 GT PUSH2 0x5C7 JUMPI DUP3 SWAP1 SUB PUSH1 0x1F AND DUP3 ADD SWAP2 JUMPDEST POP POP POP POP POP SWAP1 DUP1 PUSH1 0x6 ADD PUSH1 0x0 SWAP1 SLOAD SWAP1 PUSH2 0x100 EXP SWAP1 DIV PUSH20 0xFFFFFFFFFFFFFFFFFFFFFFFFFFFFFFFFFFFFFFFF AND SWAP1 DUP1 PUSH1 0x6 ADD PUSH1 0x14 SWAP1 SLOAD SWAP1 PUSH2 0x100 EXP SWAP1 DIV PUSH2 0xFFFF AND SWAP1 DUP1 PUSH1 0x6 ADD PUSH1 0x16 SWAP1 SLOAD SWAP1 PUSH2 0x100 EXP SWAP1 DIV PUSH2 0xFFFF AND SWAP1 DUP1 PUSH1 0x6 ADD PUSH1 0x18 SWAP1 SLOAD SWAP1 PUSH2 0x100 EXP SWAP1 DIV PUSH1 0xFF AND SWAP1 DUP1 PUSH1 0x7 ADD PUSH1 0x40 MLOAD DUP1 PUSH1 0x60 ADD PUSH1 0x40 MSTORE SWAP1 DUP2 PUSH1 0x0 DUP3 ADD SLOAD DUP2 MSTORE PUSH1 0x20 ADD PUSH1 0x1 DUP3 ADD PUSH1 0x0 SWAP1 SLOAD SWAP1 PUSH2 0x100 EXP SWAP1 DIV PUSH20 0xFFFFFFFFFFFFFFFFFFFFFFFFFFFFFFFFFFFFFFFF AND PUSH20 0xFFFFFFFFFFFFFFFFFFFFFFFFFFFFFFFFFFFFFFFF AND PUSH20 0xFFFFFFFFFFFFFFFFFFFFFFFFFFFFFFFFFFFFFFFF AND DUP2 MSTORE PUSH1 0x20 ADD PUSH1 0x1 DUP3 ADD PUSH1 0x14 SWAP1 SLOAD SWAP1 PUSH2 0x100 EXP SWAP1 DIV PUSH1 0xFF AND PUSH1 0x2 DUP2 GT ISZERO PUSH2 0x6DF JUMPI PUSH2 0x6DE PUSH2 0x1268 JUMP JUMPDEST JUMPDEST PUSH1 0x2 DUP2 GT ISZERO PUSH2 0x6F1 JUMPI PUSH2 0x6F0 PUSH2 0x1268 JUMP JUMPDEST JUMPDEST DUP2 MSTORE POP POP SWAP1 POP DUP13 JUMP JUMPDEST PUSH1 0xA PUSH1 0x20 MSTORE DUP1 PUSH1 0x0 MSTORE PUSH1 0x40 PUSH1 0x0 KECCAK256 PUSH1 0x0 SWAP2 POP SWAP1 POP DUP1 PUSH1 0x0 ADD PUSH1 0x0 SWAP1 SLOAD SWAP1 PUSH2 0x100 EXP SWAP1 DIV PUSH1 0xFF AND SWAP1 DUP1 PUSH1 0x1 ADD DUP1 SLOAD PUSH2 0x730 SWAP1 PUSH2 0x1236 JUMP JUMPDEST DUP1 PUSH1 0x1F ADD PUSH1 0x20 DUP1 SWAP2 DIV MUL PUSH1 0x20 ADD PUSH1 0x40 MLOAD SWAP1 DUP2 ADD PUSH1 0x40 MSTORE DUP1 SWAP3 SWAP2 SWAP1 DUP2 DUP2 MSTORE PUSH1 0x20 ADD DUP3 DUP1 SLOAD PUSH2 0x75C SWAP1 PUSH2 0x1236 JUMP JUMPDEST DUP1 ISZERO PUSH2 0x7A9 JUMPI DUP1 PUSH1 0x1F LT PUSH2 0x77E JUMPI PUSH2 0x100 DUP1 DUP4 SLOAD DIV MUL DUP4 MSTORE SWAP2 PUSH1 0x20 ADD SWAP2 PUSH2 0x7A9 JUMP JUMPDEST DUP3 ADD SWAP2 SWAP1 PUSH1 0x0 MSTORE PUSH1 0x20 PUSH1 0x0 KECCAK256 SWAP1 JUMPDEST DUP2 SLOAD DUP2 MSTORE SWAP1 PUSH1 0x1 ADD SWAP1 PUSH1 0x20 ADD DUP1 DUP4 GT PUSH2 0x78C JUMPI DUP3 SWAP1 SUB PUSH1 0x1F AND DUP3 ADD SWAP2 JUMPDEST POP POP POP POP POP SWAP1 DUP1 PUSH1 0x2 ADD PUSH1 0x0 SWAP1 SLOAD SWAP1 PUSH2 0x100 EXP SWAP1 DIV PUSH1 0xFF AND SWAP1 POP DUP4 JUMP JUMPDEST PUSH1 0x6 PUSH1 0x20 MSTORE DUP1 PUSH1 0x0 MSTORE PUSH1 0x40 PUSH1 0x0 KECCAK256 PUSH1 0x0 SWAP2 POP SWAP1 POP DUP1 PUSH1 0x0 ADD PUSH1 0x0 SWAP1 SLOAD SWAP1 PUSH2 0x100 EXP SWAP1 DIV PUSH1 0xFF AND SWAP1 DUP1 PUSH1 0x0 ADD PUSH1 0x1 SWAP1 SLOAD SWAP1 PUSH2 0x100 EXP SWAP1 DIV PUSH1 0xFF AND SWAP1 DUP1 PUSH1 0x1 ADD SLOAD SWAP1 DUP1 PUSH1 0x2 ADD DUP1 SLOAD PUSH2 0x815 SWAP1 PUSH2 0x1236 JUMP JUMPDEST DUP1 PUSH1 0x1F ADD PUSH1 0x20 DUP1 SWAP2 DIV MUL PUSH1 0x20 ADD PUSH1 0x40 MLOAD SWAP1 DUP2 ADD PUSH1 0x40 MSTORE DUP1 SWAP3 SWAP2 SWAP1 DUP2 DUP2 MSTORE PUSH1 0x20 ADD DUP3 DUP1 SLOAD PUSH2 0x841 SWAP1 PUSH2 0x1236 JUMP JUMPDEST DUP1 ISZERO PUSH2 0x88E JUMPI DUP1 PUSH1 0x1F LT PUSH2 0x863 JUMPI PUSH2 0x100 DUP1 DUP4 SLOAD DIV MUL DUP4 MSTORE SWAP2 PUSH1 0x20 ADD SWAP2 PUSH2 0x88E JUMP JUMPDEST DUP3 ADD SWAP2 SWAP1 PUSH1 0x0 MSTORE PUSH1 0x20 PUSH1 0x0 KECCAK256 SWAP1 JUMPDEST DUP2 SLOAD DUP2 MSTORE SWAP1 PUSH1 0x1 ADD SWAP1 PUSH1 0x20 ADD DUP1 DUP4 GT PUSH2 0x871 JUMPI DUP3 SWAP1 SUB PUSH1 0x1F AND DUP3 ADD SWAP2 JUMPDEST POP POP POP POP POP SWAP1 POP DUP5 JUMP JUMPDEST PUSH1 0x8 PUSH1 0x20 MSTORE DUP1 PUSH1 0x0 MSTORE PUSH1 0x40 PUSH1 0x0 KECCAK256 PUSH1 0x0 SWAP2 POP SWAP1 POP DUP1 PUSH1 0x0 ADD PUSH1 0x0 SWAP1 SLOAD SWAP1 PUSH2 0x100 EXP SWAP1 DIV PUSH1 0xFF AND SWAP1 DUP1 PUSH1 0x1 ADD DUP1 SLOAD PUSH2 0x8CE SWAP1 PUSH2 0x1236 JUMP JUMPDEST DUP1 PUSH1 0x1F ADD PUSH1 0x20 DUP1 SWAP2 DIV MUL PUSH1 0x20 ADD PUSH1 0x40 MLOAD SWAP1 DUP2 ADD PUSH1 0x40 MSTORE DUP1 SWAP3 SWAP2 SWAP1 DUP2 DUP2 MSTORE PUSH1 0x20 ADD DUP3 DUP1 SLOAD PUSH2 0x8FA SWAP1 PUSH2 0x1236 JUMP JUMPDEST DUP1 ISZERO PUSH2 0x947 JUMPI DUP1 PUSH1 0x1F LT PUSH2 0x91C JUMPI PUSH2 0x100 DUP1 DUP4 SLOAD DIV MUL DUP4 MSTORE SWAP2 PUSH1 0x20 ADD SWAP2 PUSH2 0x947 JUMP JUMPDEST DUP3 ADD SWAP2 SWAP1 PUSH1 0x0 MSTORE PUSH1 0x20 PUSH1 0x0 KECCAK256 SWAP1 JUMPDEST DUP2 SLOAD DUP2 MSTORE SWAP1 PUSH1 0x1 ADD SWAP1 PUSH1 0x20 ADD DUP1 DUP4 GT PUSH2 0x92A JUMPI DUP3 SWAP1 SUB PUSH1 0x1F AND DUP3 ADD SWAP2 JUMPDEST POP POP POP POP POP SWAP1 DUP1 PUSH1 0x2 ADD PUSH1 0x0 SWAP1 SLOAD SWAP1 PUSH2 0x100 EXP SWAP1 DIV PUSH1 0xFF AND SWAP1 POP DUP4 JUMP JUMPDEST PUSH1 0x9 PUSH1 0x20 MSTORE DUP1 PUSH1 0x0 MSTORE PUSH1 0x40 PUSH1 0x0 KECCAK256 PUSH1 0x0 SWAP2 POP SWAP1 POP DUP1 PUSH1 0x0 ADD PUSH1 0x0 SWAP1 SLOAD SWAP1 PUSH2 0x100 EXP SWAP1 DIV PUSH1 0xFF AND SWAP1 DUP1 PUSH1 0x1 ADD DUP1 SLOAD PUSH2 0x99A SWAP1 PUSH2 0x1236 JUMP JUMPDEST DUP1 PUSH1 0x1F ADD PUSH1 0x20 DUP1 SWAP2 DIV MUL PUSH1 0x20 ADD PUSH1 0x40 MLOAD SWAP1 DUP2 ADD PUSH1 0x40 MSTORE DUP1 SWAP3 SWAP2 SWAP1 DUP2 DUP2 MSTORE PUSH1 0x20 ADD DUP3 DUP1 SLOAD PUSH2 0x9C6 SWAP1 PUSH2 0x1236 JUMP JUMPDEST DUP1 ISZERO PUSH2 0xA13 JUMPI DUP1 PUSH1 0x1F LT PUSH2 0x9E8 JUMPI PUSH2 0x100 DUP1 DUP4 SLOAD DIV MUL DUP4 MSTORE SWAP2 PUSH1 0x20 ADD SWAP2 PUSH2 0xA13 JUMP JUMPDEST DUP3 ADD SWAP2 SWAP1 PUSH1 0x0 MSTORE PUSH1 0x20 PUSH1 0x0 KECCAK256 SWAP1 JUMPDEST DUP2 SLOAD DUP2 MSTORE SWAP1 PUSH1 0x1 ADD SWAP1 PUSH1 0x20 ADD DUP1 DUP4 GT PUSH2 0x9F6 JUMPI DUP3 SWAP1 SUB PUSH1 0x1F AND DUP3 ADD SWAP2 JUMPDEST POP POP POP POP POP SWAP1 DUP1 PUSH1 0x2 ADD PUSH1 0x0 SWAP1 SLOAD SWAP1 PUSH2 0x100 EXP SWAP1 DIV PUSH1 0xFF AND SWAP1 POP DUP4 JUMP JUMPDEST PUSH1 0xB PUSH1 0x20 MSTORE DUP1 PUSH1 0x0 MSTORE PUSH1 0x40 PUSH1 0x0 KECCAK256 PUSH1 0x0 SWAP2 POP SWAP1 POP DUP1 PUSH1 0x0 ADD PUSH1 0x0 SWAP1 SLOAD SWAP1 PUSH2 0x100 EXP SWAP1 DIV PUSH4 0xFFFFFFFF AND SWAP1 DUP1 PUSH1 0x1 ADD DUP1 SLOAD PUSH2 0xA69 SWAP1 PUSH2 0x1236 JUMP JUMPDEST DUP1 PUSH1 0x1F ADD PUSH1 0x20 DUP1 SWAP2 DIV MUL PUSH1 0x20 ADD PUSH1 0x40 MLOAD SWAP1 DUP2 ADD PUSH1 0x40 MSTORE DUP1 SWAP3 SWAP2 SWAP1 DUP2 DUP2 MSTORE PUSH1 0x20 ADD DUP3 DUP1 SLOAD PUSH2 0xA95 SWAP1 PUSH2 0x1236 JUMP JUMPDEST DUP1 ISZERO PUSH2 0xAE2 JUMPI DUP1 PUSH1 0x1F LT PUSH2 0xAB7 JUMPI PUSH2 0x100 DUP1 DUP4 SLOAD DIV MUL DUP4 MSTORE SWAP2 PUSH1 0x20 ADD SWAP2 PUSH2 0xAE2 JUMP JUMPDEST DUP3 ADD SWAP2 SWAP1 PUSH1 0x0 MSTORE PUSH1 0x20 PUSH1 0x0 KECCAK256 SWAP1 JUMPDEST DUP2 SLOAD DUP2 MSTORE SWAP1 PUSH1 0x1 ADD SWAP1 PUSH1 0x20 ADD DUP1 DUP4 GT PUSH2 0xAC5 JUMPI DUP3 SWAP1 SUB PUSH1 0x1F AND DUP3 ADD SWAP2 JUMPDEST POP POP POP POP POP SWAP1 POP DUP3 JUMP JUMPDEST PUSH1 0xC SLOAD DUP2 JUMP JUMPDEST PUSH1 0x5 PUSH1 0x20 MSTORE DUP1 PUSH1 0x0 MSTORE PUSH1 0x40 PUSH1 0x0 KECCAK256 PUSH1 0x0 SWAP2 POP SWAP1 POP DUP1 PUSH1 0x0 ADD PUSH1 0x0 SWAP1 SLOAD SWAP1 PUSH2 0x100 EXP SWAP1 DIV PUSH1 0xFF AND SWAP1 DUP1 PUSH1 0x0 ADD PUSH1 0x1 SWAP1 SLOAD SWAP1 PUSH2 0x100 EXP SWAP1 DIV PUSH20 0xFFFFFFFFFFFFFFFFFFFFFFFFFFFFFFFFFFFFFFFF AND SWAP1 DUP1 PUSH1 0x0 ADD PUSH1 0x15 SWAP1 SLOAD SWAP1 PUSH2 0x100 EXP SWAP1 DIV PUSH2 0xFFFF AND SWAP1 DUP1 PUSH1 0x0 ADD PUSH1 0x17 SWAP1 SLOAD SWAP1 PUSH2 0x100 EXP SWAP1 DIV PUSH1 0xFF AND SWAP1 DUP1 PUSH1 0x1 ADD DUP1 SLOAD PUSH2 0xB75 SWAP1 PUSH2 0x1236 JUMP JUMPDEST DUP1 PUSH1 0x1F ADD PUSH1 0x20 DUP1 SWAP2 DIV MUL PUSH1 0x20 ADD PUSH1 0x40 MLOAD SWAP1 DUP2 ADD PUSH1 0x40 MSTORE DUP1 SWAP3 SWAP2 SWAP1 DUP2 DUP2 MSTORE PUSH1 0x20 ADD DUP3 DUP1 SLOAD PUSH2 0xBA1 SWAP1 PUSH2 0x1236 JUMP JUMPDEST DUP1 ISZERO PUSH2 0xBEE JUMPI DUP1 PUSH1 0x1F LT PUSH2 0xBC3 JUMPI PUSH2 0x100 DUP1 DUP4 SLOAD DIV MUL DUP4 MSTORE SWAP2 PUSH1 0x20 ADD SWAP2 PUSH2 0xBEE JUMP JUMPDEST DUP3 ADD SWAP2 SWAP1 PUSH1 0x0 MSTORE PUSH1 0x20 PUSH1 0x0 KECCAK256 SWAP1 JUMPDEST DUP2 SLOAD DUP2 MSTORE SWAP1 PUSH1 0x1 ADD SWAP1 PUSH1 0x20 ADD DUP1 DUP4 GT PUSH2 0xBD1 JUMPI DUP3 SWAP1 SUB PUSH1 0x1F AND DUP3 ADD SWAP2 JUMPDEST POP POP POP POP POP SWAP1 DUP1 PUSH1 0x2 ADD DUP1 SLOAD PUSH2 0xC03 SWAP1 PUSH2 0x1236 JUMP JUMPDEST DUP1 PUSH1 0x1F ADD PUSH1 0x20 DUP1 SWAP2 DIV MUL PUSH1 0x20 ADD PUSH1 0x40 MLOAD SWAP1 DUP2 ADD PUSH1 0x40 MSTORE DUP1 SWAP3 SWAP2 SWAP1 DUP2 DUP2 MSTORE PUSH1 0x20 ADD DUP3 DUP1 SLOAD PUSH2 0xC2F SWAP1 PUSH2 0x1236 JUMP JUMPDEST DUP1 ISZERO PUSH2 0xC7C JUMPI DUP1 PUSH1 0x1F LT PUSH2 0xC51 JUMPI PUSH2 0x100 DUP1 DUP4 SLOAD DIV MUL DUP4 MSTORE SWAP2 PUSH1 0x20 ADD SWAP2 PUSH2 0xC7C JUMP JUMPDEST DUP3 ADD SWAP2 SWAP1 PUSH1 0x0 MSTORE PUSH1 0x20 PUSH1 0x0 KECCAK256 SWAP1 JUMPDEST DUP2 SLOAD DUP2 MSTORE SWAP1 PUSH1 0x1 ADD SWAP1 PUSH1 0x20 ADD DUP1 DUP4 GT PUSH2 0xC5F JUMPI DUP3 SWAP1 SUB PUSH1 0x1F AND DUP3 ADD SWAP2 JUMPDEST POP POP POP POP POP SWAP1 POP DUP7 JUMP JUMPDEST PUSH1 0x3 PUSH1 0x20 MSTORE DUP1 PUSH1 0x0 MSTORE PUSH1 0x40 PUSH1 0x0 KECCAK256 PUSH1 0x0 SWAP2 POP SWAP1 POP DUP1 PUSH1 0x0 ADD PUSH1 0x0 SWAP1 SLOAD SWAP1 PUSH2 0x100 EXP SWAP1 DIV PUSH1 0xFF AND SWAP1 POP DUP2 JUMP JUMPDEST PUSH1 0x0 DUP2 CALLDATALOAD SWAP1 POP PUSH2 0xCC0 DUP2 PUSH2 0x132C JUMP JUMPDEST SWAP3 SWAP2 POP POP JUMP JUMPDEST PUSH1 0x0 DUP2 CALLDATALOAD SWAP1 POP PUSH2 0xCD5 DUP2 PUSH2 0x1343 JUMP JUMPDEST SWAP3 SWAP2 POP POP JUMP JUMPDEST PUSH1 0x0 DUP2 CALLDATALOAD SWAP1 POP PUSH2 0xCEA DUP2 PUSH2 0x135A JUMP JUMPDEST SWAP3 SWAP2 POP POP JUMP JUMPDEST PUSH1 0x0 PUSH1 0x20 DUP3 DUP5 SUB SLT ISZERO PUSH2 0xD06 JUMPI PUSH2 0xD05 PUSH2 0x12C6 JUMP JUMPDEST JUMPDEST PUSH1 0x0 PUSH2 0xD14 DUP5 DUP3 DUP6 ADD PUSH2 0xCB1 JUMP JUMPDEST SWAP2 POP POP SWAP3 SWAP2 POP POP JUMP JUMPDEST PUSH1 0x0 DUP1 PUSH1 0x40 DUP4 DUP6 SUB SLT ISZERO PUSH2 0xD34 JUMPI PUSH2 0xD33 PUSH2 0x12C6 JUMP JUMPDEST JUMPDEST PUSH1 0x0 PUSH2 0xD42 DUP6 DUP3 DUP7 ADD PUSH2 0xCB1 JUMP JUMPDEST SWAP3 POP POP PUSH1 0x20 PUSH2 0xD53 DUP6 DUP3 DUP7 ADD PUSH2 0xCC6 JUMP JUMPDEST SWAP2 POP POP SWAP3 POP SWAP3 SWAP1 POP JUMP JUMPDEST PUSH1 0x0 PUSH1 0x20 DUP3 DUP5 SUB SLT ISZERO PUSH2 0xD73 JUMPI PUSH2 0xD72 PUSH2 0x12C6 JUMP JUMPDEST JUMPDEST PUSH1 0x0 PUSH2 0xD81 DUP5 DUP3 DUP6 ADD PUSH2 0xCDB JUMP JUMPDEST SWAP2 POP POP SWAP3 SWAP2 POP POP JUMP JUMPDEST PUSH2 0xD93 DUP2 PUSH2 0x10FC JUMP JUMPDEST DUP3 MSTORE POP POP JUMP JUMPDEST PUSH2 0xDA2 DUP2 PUSH2 0x10FC JUMP JUMPDEST DUP3 MSTORE POP POP JUMP JUMPDEST PUSH2 0xDB1 DUP2 PUSH2 0x110E JUMP JUMPDEST DUP3 MSTORE POP POP JUMP JUMPDEST PUSH2 0xDC0 DUP2 PUSH2 0x11BB JUMP JUMPDEST DUP3 MSTORE POP POP JUMP JUMPDEST PUSH2 0xDCF DUP2 PUSH2 0x11CD JUMP JUMPDEST DUP3 MSTORE POP POP JUMP JUMPDEST PUSH2 0xDDE DUP2 PUSH2 0x11DF JUMP JUMPDEST DUP3 MSTORE POP POP JUMP JUMPDEST PUSH2 0xDED DUP2 PUSH2 0x11F1 JUMP JUMPDEST DUP3 MSTORE POP POP JUMP JUMPDEST PUSH1 0x0 PUSH2 0xDFE DUP3 PUSH2 0x10E0 JUMP JUMPDEST PUSH2 0xE08 DUP2 DUP6 PUSH2 0x10EB JUMP JUMPDEST SWAP4 POP PUSH2 0xE18 DUP2 DUP6 PUSH1 0x20 DUP7 ADD PUSH2 0x1203 JUMP JUMPDEST PUSH2 0xE21 DUP2 PUSH2 0x12CB JUMP JUMPDEST DUP5 ADD SWAP2 POP POP SWAP3 SWAP2 POP POP JUMP JUMPDEST PUSH1 0x60 DUP3 ADD PUSH1 0x0 DUP3 ADD MLOAD PUSH2 0xE42 PUSH1 0x0 DUP6 ADD DUP3 PUSH2 0xE7D JUMP JUMPDEST POP PUSH1 0x20 DUP3 ADD MLOAD PUSH2 0xE55 PUSH1 0x20 DUP6 ADD DUP3 PUSH2 0xD8A JUMP JUMPDEST POP PUSH1 0x40 DUP3 ADD MLOAD PUSH2 0xE68 PUSH1 0x40 DUP6 ADD DUP3 PUSH2 0xDD5 JUMP JUMPDEST POP POP POP POP JUMP JUMPDEST PUSH2 0xE77 DUP2 PUSH2 0x1166 JUMP JUMPDEST DUP3 MSTORE POP POP JUMP JUMPDEST PUSH2 0xE86 DUP2 PUSH2 0x1194 JUMP JUMPDEST DUP3 MSTORE POP POP JUMP JUMPDEST PUSH2 0xE95 DUP2 PUSH2 0x1194 JUMP JUMPDEST DUP3 MSTORE POP POP JUMP JUMPDEST PUSH2 0xEA4 DUP2 PUSH2 0x119E JUMP JUMPDEST DUP3 MSTORE POP POP JUMP JUMPDEST PUSH2 0xEB3 DUP2 PUSH2 0x11AE JUMP JUMPDEST DUP3 MSTORE POP POP JUMP JUMPDEST PUSH1 0x0 PUSH1 0x20 DUP3 ADD SWAP1 POP PUSH2 0xECE PUSH1 0x0 DUP4 ADD DUP5 PUSH2 0xDA8 JUMP JUMPDEST SWAP3 SWAP2 POP POP JUMP JUMPDEST PUSH1 0x0 PUSH1 0xC0 DUP3 ADD SWAP1 POP PUSH2 0xEE9 PUSH1 0x0 DUP4 ADD DUP10 PUSH2 0xDA8 JUMP JUMPDEST PUSH2 0xEF6 PUSH1 0x20 DUP4 ADD DUP9 PUSH2 0xD99 JUMP JUMPDEST PUSH2 0xF03 PUSH1 0x40 DUP4 ADD DUP8 PUSH2 0xE6E JUMP JUMPDEST PUSH2 0xF10 PUSH1 0x60 DUP4 ADD DUP7 PUSH2 0xDE4 JUMP JUMPDEST DUP2 DUP2 SUB PUSH1 0x80 DUP4 ADD MSTORE PUSH2 0xF22 DUP2 DUP6 PUSH2 0xDF3 JUMP JUMPDEST SWAP1 POP DUP2 DUP2 SUB PUSH1 0xA0 DUP4 ADD MSTORE PUSH2 0xF36 DUP2 DUP5 PUSH2 0xDF3 JUMP JUMPDEST SWAP1 POP SWAP8 SWAP7 POP POP POP POP POP POP POP JUMP JUMPDEST PUSH1 0x0 PUSH1 0x60 DUP3 ADD SWAP1 POP PUSH2 0xF58 PUSH1 0x0 DUP4 ADD DUP7 PUSH2 0xDA8 JUMP JUMPDEST DUP2 DUP2 SUB PUSH1 0x20 DUP4 ADD MSTORE PUSH2 0xF6A DUP2 DUP6 PUSH2 0xDF3 JUMP JUMPDEST SWAP1 POP PUSH2 0xF79 PUSH1 0x40 DUP4 ADD DUP5 PUSH2 0xEAA JUMP JUMPDEST SWAP5 SWAP4 POP POP POP POP JUMP JUMPDEST PUSH1 0x0 PUSH1 0x80 DUP3 ADD SWAP1 POP PUSH2 0xF96 PUSH1 0x0 DUP4 ADD DUP8 PUSH2 0xDA8 JUMP JUMPDEST PUSH2 0xFA3 PUSH1 0x20 DUP4 ADD DUP7 PUSH2 0xEAA JUMP JUMPDEST PUSH2 0xFB0 PUSH1 0x40 DUP4 ADD DUP6 PUSH2 0xE8C JUMP JUMPDEST DUP2 DUP2 SUB PUSH1 0x60 DUP4 ADD MSTORE PUSH2 0xFC2 DUP2 DUP5 PUSH2 0xDF3 JUMP JUMPDEST SWAP1 POP SWAP6 SWAP5 POP POP POP POP POP JUMP JUMPDEST PUSH1 0x0 PUSH1 0x20 DUP3 ADD SWAP1 POP PUSH2 0xFE2 PUSH1 0x0 DUP4 ADD DUP5 PUSH2 0xE8C JUMP JUMPDEST SWAP3 SWAP2 POP POP JUMP JUMPDEST PUSH1 0x0 PUSH2 0x1C0 DUP3 ADD SWAP1 POP PUSH2 0xFFE PUSH1 0x0 DUP4 ADD DUP16 PUSH2 0xE8C JUMP JUMPDEST PUSH2 0x100B PUSH1 0x20 DUP4 ADD DUP15 PUSH2 0xD99 JUMP JUMPDEST PUSH2 0x1018 PUSH1 0x40 DUP4 ADD DUP14 PUSH2 0xDB7 JUMP JUMPDEST PUSH2 0x1025 PUSH1 0x60 DUP4 ADD DUP13 PUSH2 0xE8C JUMP JUMPDEST PUSH2 0x1032 PUSH1 0x80 DUP4 ADD DUP12 PUSH2 0xE8C JUMP JUMPDEST DUP2 DUP2 SUB PUSH1 0xA0 DUP4 ADD MSTORE PUSH2 0x1044 DUP2 DUP11 PUSH2 0xDF3 JUMP JUMPDEST SWAP1 POP DUP2 DUP2 SUB PUSH1 0xC0 DUP4 ADD MSTORE PUSH2 0x1058 DUP2 DUP10 PUSH2 0xDF3 JUMP JUMPDEST SWAP1 POP PUSH2 0x1067 PUSH1 0xE0 DUP4 ADD DUP9 PUSH2 0xD99 JUMP JUMPDEST PUSH2 0x1075 PUSH2 0x100 DUP4 ADD DUP8 PUSH2 0xE6E JUMP JUMPDEST PUSH2 0x1083 PUSH2 0x120 DUP4 ADD DUP7 PUSH2 0xE6E JUMP JUMPDEST PUSH2 0x1091 PUSH2 0x140 DUP4 ADD DUP6 PUSH2 0xDC6 JUMP JUMPDEST PUSH2 0x109F PUSH2 0x160 DUP4 ADD DUP5 PUSH2 0xE2C JUMP JUMPDEST SWAP14 SWAP13 POP POP POP POP POP POP POP POP POP POP POP POP POP JUMP JUMPDEST PUSH1 0x0 PUSH1 0x40 DUP3 ADD SWAP1 POP PUSH2 0x10C5 PUSH1 0x0 DUP4 ADD DUP6 PUSH2 0xE9B JUMP JUMPDEST DUP2 DUP2 SUB PUSH1 0x20 DUP4 ADD MSTORE PUSH2 0x10D7 DUP2 DUP5 PUSH2 0xDF3 JUMP JUMPDEST SWAP1 POP SWAP4 SWAP3 POP POP POP JUMP JUMPDEST PUSH1 0x0 DUP2 MLOAD SWAP1 POP SWAP2 SWAP1 POP JUMP JUMPDEST PUSH1 0x0 DUP3 DUP3 MSTORE PUSH1 0x20 DUP3 ADD SWAP1 POP SWAP3 SWAP2 POP POP JUMP JUMPDEST PUSH1 0x0 PUSH2 0x1107 DUP3 PUSH2 0x1174 JUMP JUMPDEST SWAP1 POP SWAP2 SWAP1 POP JUMP JUMPDEST PUSH1 0x0 DUP2 ISZERO ISZERO SWAP1 POP SWAP2 SWAP1 POP JUMP JUMPDEST PUSH1 0x0 DUP2 SWAP1 POP PUSH2 0x1128 DUP3 PUSH2 0x12DC JUMP JUMPDEST SWAP2 SWAP1 POP JUMP JUMPDEST PUSH1 0x0 DUP2 SWAP1 POP PUSH2 0x113B DUP3 PUSH2 0x12F0 JUMP JUMPDEST SWAP2 SWAP1 POP JUMP JUMPDEST PUSH1 0x0 DUP2 SWAP1 POP PUSH2 0x114E DUP3 PUSH2 0x1304 JUMP JUMPDEST SWAP2 SWAP1 POP JUMP JUMPDEST PUSH1 0x0 DUP2 SWAP1 POP PUSH2 0x1161 DUP3 PUSH2 0x1318 JUMP JUMPDEST SWAP2 SWAP1 POP JUMP JUMPDEST PUSH1 0x0 PUSH2 0xFFFF DUP3 AND SWAP1 POP SWAP2 SWAP1 POP JUMP JUMPDEST PUSH1 0x0 PUSH20 0xFFFFFFFFFFFFFFFFFFFFFFFFFFFFFFFFFFFFFFFF DUP3 AND SWAP1 POP SWAP2 SWAP1 POP JUMP JUMPDEST PUSH1 0x0 DUP2 SWAP1 POP SWAP2 SWAP1 POP JUMP JUMPDEST PUSH1 0x0 PUSH4 0xFFFFFFFF DUP3 AND SWAP1 POP SWAP2 SWAP1 POP JUMP JUMPDEST PUSH1 0x0 PUSH1 0xFF DUP3 AND SWAP1 POP SWAP2 SWAP1 POP JUMP JUMPDEST PUSH1 0x0 PUSH2 0x11C6 DUP3 PUSH2 0x111A JUMP JUMPDEST SWAP1 POP SWAP2 SWAP1 POP JUMP JUMPDEST PUSH1 0x0 PUSH2 0x11D8 DUP3 PUSH2 0x112D JUMP JUMPDEST SWAP1 POP SWAP2 SWAP1 POP JUMP JUMPDEST PUSH1 0x0 PUSH2 0x11EA DUP3 PUSH2 0x1140 JUMP JUMPDEST SWAP1 POP SWAP2 SWAP1 POP JUMP JUMPDEST PUSH1 0x0 PUSH2 0x11FC DUP3 PUSH2 0x1153 JUMP JUMPDEST SWAP1 POP SWAP2 SWAP1 POP JUMP JUMPDEST PUSH1 0x0 JUMPDEST DUP4 DUP2 LT ISZERO PUSH2 0x1221 JUMPI DUP1 DUP3 ADD MLOAD DUP2 DUP5 ADD MSTORE PUSH1 0x20 DUP2 ADD SWAP1 POP PUSH2 0x1206 JUMP JUMPDEST DUP4 DUP2 GT ISZERO PUSH2 0x1230 JUMPI PUSH1 0x0 DUP5 DUP5 ADD MSTORE JUMPDEST POP POP POP POP JUMP JUMPDEST PUSH1 0x0 PUSH1 0x2 DUP3 DIV SWAP1 POP PUSH1 0x1 DUP3 AND DUP1 PUSH2 0x124E JUMPI PUSH1 0x7F DUP3 AND SWAP2 POP JUMPDEST PUSH1 0x20 DUP3 LT DUP2 EQ ISZERO PUSH2 0x1262 JUMPI PUSH2 0x1261 PUSH2 0x1297 JUMP JUMPDEST JUMPDEST POP SWAP2 SWAP1 POP JUMP JUMPDEST PUSH32 0x4E487B7100000000000000000000000000000000000000000000000000000000 PUSH1 0x0 MSTORE PUSH1 0x21 PUSH1 0x4 MSTORE PUSH1 0x24 PUSH1 0x0 REVERT JUMPDEST PUSH32 0x4E487B7100000000000000000000000000000000000000000000000000000000 PUSH1 0x0 MSTORE PUSH1 0x22 PUSH1 0x4 MSTORE PUSH1 0x24 PUSH1 0x0 REVERT JUMPDEST PUSH1 0x0 DUP1 REVERT JUMPDEST PUSH1 0x0 PUSH1 0x1F NOT PUSH1 0x1F DUP4 ADD AND SWAP1 POP SWAP2 SWAP1 POP JUMP JUMPDEST PUSH1 0x4 DUP2 LT PUSH2 0x12ED JUMPI PUSH2 0x12EC PUSH2 0x1268 JUMP JUMPDEST JUMPDEST POP JUMP JUMPDEST PUSH1 0x4 DUP2 LT PUSH2 0x1301 JUMPI PUSH2 0x1300 PUSH2 0x1268 JUMP JUMPDEST JUMPDEST POP JUMP JUMPDEST PUSH1 0x3 DUP2 LT PUSH2 0x1315 JUMPI PUSH2 0x1314 PUSH2 0x1268 JUMP JUMPDEST JUMPDEST POP JUMP JUMPDEST PUSH1 0x4 DUP2 LT PUSH2 0x1329 JUMPI PUSH2 0x1328 PUSH2 0x1268 JUMP JUMPDEST JUMPDEST POP JUMP JUMPDEST PUSH2 0x1335 DUP2 PUSH2 0x10FC JUMP JUMPDEST DUP2 EQ PUSH2 0x1340 JUMPI PUSH1 0x0 DUP1 REVERT JUMPDEST POP JUMP JUMPDEST PUSH2 0x134C DUP2 PUSH2 0x1194 JUMP JUMPDEST DUP2 EQ PUSH2 0x1357 JUMPI PUSH1 0x0 DUP1 REVERT JUMPDEST POP JUMP JUMPDEST PUSH2 0x1363 DUP2 PUSH2 0x119E JUMP JUMPDEST DUP2 EQ PUSH2 0x136E JUMPI PUSH1 0x0 DUP1 REVERT JUMPDEST POP JUMP INVALID LOG2 PUSH5 0x6970667358 0x22 SLT KECCAK256 JUMPI 0xC6 0xC0 PUSH15 0x48120618394FCA82A0E1251DED96DD NUMBER PUSH24 0x7584F516BC7AC7A8E451FF64736F6C634300080700330000 "
				},
				"gasEstimates": {
					"creation": {
						"codeDepositCost": "1006200",
						"executionCost": "1047",
						"totalCost": "1007247"
					},
					"external": {
						"akademisyenler(address)": "infinite",
						"diller(uint32)": "infinite",
						"egitimBilgileri(address,uint256)": "infinite",
						"firmalar(address)": "infinite",
						"id()": "2495",
						"kamuKurumlari(address)": "infinite",
						"kisiler(address)": "2980",
						"kurslar(address)": "infinite",
						"sertifikaMerkezleri(address)": "infinite",
						"stklar(address)": "infinite",
						"universiteler(address)": "infinite"
					},
					"internal": {
						"ekleEgitimBilgi(address,enum BaseContract.EgitimDurumu,uint256,uint256,string memory,string memory,address,uint16,uint16,enum BaseContract.OgretimTipi)": "infinite",
						"guncelleEgitimBilgi(address,uint256,enum BaseContract.EgitimDurumu,uint256,uint256,string memory,string memory,address,uint16,uint16,enum BaseContract.OgretimTipi)": "infinite",
						"talepEtEgitimBilgi(address,enum BaseContract.EgitimDurumu,uint256,uint256,string memory,string memory,address,uint16,uint16,enum BaseContract.OgretimTipi)": "infinite"
					}
				},
				"methodIdentifiers": {
					"akademisyenler(address)": "ba479b7e",
					"diller(uint32)": "a4e7ae05",
					"egitimBilgileri(address,uint256)": "2fe34736",
					"firmalar(address)": "39987f94",
					"id()": "af640d0f",
					"kamuKurumlari(address)": "7d0fa287",
					"kisiler(address)": "cbc92809",
					"kurslar(address)": "1916e139",
					"sertifikaMerkezleri(address)": "356b1f1e",
					"stklar(address)": "9a8c9119",
					"universiteler(address)": "28266697"
				}
			},
			"storageLayout": {
				"storage": [
					{
						"astId": 3,
						"contract": "contracts/EgitimBilgileri.sol:EgitimBilgileri",
						"label": "YOK",
						"offset": 0,
						"slot": "0",
						"type": "t_address"
					},
					{
						"astId": 5,
						"contract": "contracts/EgitimBilgileri.sol:EgitimBilgileri",
						"label": "TOBB",
						"offset": 0,
						"slot": "1",
						"type": "t_address"
					},
					{
						"astId": 7,
						"contract": "contracts/EgitimBilgileri.sol:EgitimBilgileri",
						"label": "CB",
						"offset": 0,
						"slot": "2",
						"type": "t_address"
					},
					{
						"astId": 259,
						"contract": "contracts/EgitimBilgileri.sol:EgitimBilgileri",
						"label": "kisiler",
						"offset": 0,
						"slot": "3",
						"type": "t_mapping(t_address,t_struct(Kisi)10_storage)"
					},
					{
						"astId": 264,
						"contract": "contracts/EgitimBilgileri.sol:EgitimBilgileri",
						"label": "universiteler",
						"offset": 0,
						"slot": "4",
						"type": "t_mapping(t_address,t_struct(Universite)39_storage)"
					},
					{
						"astId": 269,
						"contract": "contracts/EgitimBilgileri.sol:EgitimBilgileri",
						"label": "akademisyenler",
						"offset": 0,
						"slot": "5",
						"type": "t_mapping(t_address,t_struct(Akademisyen)53_storage)"
					},
					{
						"astId": 274,
						"contract": "contracts/EgitimBilgileri.sol:EgitimBilgileri",
						"label": "firmalar",
						"offset": 0,
						"slot": "6",
						"type": "t_mapping(t_address,t_struct(Firma)93_storage)"
					},
					{
						"astId": 279,
						"contract": "contracts/EgitimBilgileri.sol:EgitimBilgileri",
						"label": "kurslar",
						"offset": 0,
						"slot": "7",
						"type": "t_mapping(t_address,t_struct(Kurs)121_storage)"
					},
					{
						"astId": 284,
						"contract": "contracts/EgitimBilgileri.sol:EgitimBilgileri",
						"label": "kamuKurumlari",
						"offset": 0,
						"slot": "8",
						"type": "t_mapping(t_address,t_struct(KamuKurumu)100_storage)"
					},
					{
						"astId": 289,
						"contract": "contracts/EgitimBilgileri.sol:EgitimBilgileri",
						"label": "stklar",
						"offset": 0,
						"slot": "9",
						"type": "t_mapping(t_address,t_struct(STK)107_storage)"
					},
					{
						"astId": 294,
						"contract": "contracts/EgitimBilgileri.sol:EgitimBilgileri",
						"label": "sertifikaMerkezleri",
						"offset": 0,
						"slot": "10",
						"type": "t_mapping(t_address,t_struct(SertifikaMerkezi)114_storage)"
					},
					{
						"astId": 299,
						"contract": "contracts/EgitimBilgileri.sol:EgitimBilgileri",
						"label": "diller",
						"offset": 0,
						"slot": "11",
						"type": "t_mapping(t_uint32,t_struct(YabanciDil)126_storage)"
					},
					{
						"astId": 307,
						"contract": "contracts/EgitimBilgileri.sol:EgitimBilgileri",
						"label": "id",
						"offset": 0,
						"slot": "12",
						"type": "t_uint256"
					},
					{
						"astId": 342,
						"contract": "contracts/EgitimBilgileri.sol:EgitimBilgileri",
						"label": "egitimBilgileri",
						"offset": 0,
						"slot": "13",
						"type": "t_mapping(t_address,t_mapping(t_uint256,t_struct(EgitimBilgi)335_storage))"
					}
				],
				"types": {
					"t_address": {
						"encoding": "inplace",
						"label": "address",
						"numberOfBytes": "20"
					},
					"t_bool": {
						"encoding": "inplace",
						"label": "bool",
						"numberOfBytes": "1"
					},
					"t_enum(EgitimDurumu)15": {
						"encoding": "inplace",
						"label": "enum BaseContract.EgitimDurumu",
						"numberOfBytes": "1"
					},
					"t_enum(OgretimTipi)20": {
						"encoding": "inplace",
						"label": "enum BaseContract.OgretimTipi",
						"numberOfBytes": "1"
					},
					"t_enum(OnayDurum)32": {
						"encoding": "inplace",
						"label": "enum BaseContract.OnayDurum",
						"numberOfBytes": "1"
					},
					"t_enum(Unvan)58": {
						"encoding": "inplace",
						"label": "enum BaseContract.Unvan",
						"numberOfBytes": "1"
					},
					"t_mapping(t_address,t_mapping(t_uint256,t_struct(EgitimBilgi)335_storage))": {
						"encoding": "mapping",
						"key": "t_address",
						"label": "mapping(address => mapping(uint256 => struct EgitimBilgileri.EgitimBilgi))",
						"numberOfBytes": "32",
						"value": "t_mapping(t_uint256,t_struct(EgitimBilgi)335_storage)"
					},
					"t_mapping(t_address,t_struct(Akademisyen)53_storage)": {
						"encoding": "mapping",
						"key": "t_address",
						"label": "mapping(address => struct BaseContract.Akademisyen)",
						"numberOfBytes": "32",
						"value": "t_struct(Akademisyen)53_storage"
					},
					"t_mapping(t_address,t_struct(Firma)93_storage)": {
						"encoding": "mapping",
						"key": "t_address",
						"label": "mapping(address => struct BaseContract.Firma)",
						"numberOfBytes": "32",
						"value": "t_struct(Firma)93_storage"
					},
					"t_mapping(t_address,t_struct(KamuKurumu)100_storage)": {
						"encoding": "mapping",
						"key": "t_address",
						"label": "mapping(address => struct BaseContract.KamuKurumu)",
						"numberOfBytes": "32",
						"value": "t_struct(KamuKurumu)100_storage"
					},
					"t_mapping(t_address,t_struct(Kisi)10_storage)": {
						"encoding": "mapping",
						"key": "t_address",
						"label": "mapping(address => struct BaseContract.Kisi)",
						"numberOfBytes": "32",
						"value": "t_struct(Kisi)10_storage"
					},
					"t_mapping(t_address,t_struct(Kurs)121_storage)": {
						"encoding": "mapping",
						"key": "t_address",
						"label": "mapping(address => struct BaseContract.Kurs)",
						"numberOfBytes": "32",
						"value": "t_struct(Kurs)121_storage"
					},
					"t_mapping(t_address,t_struct(STK)107_storage)": {
						"encoding": "mapping",
						"key": "t_address",
						"label": "mapping(address => struct BaseContract.STK)",
						"numberOfBytes": "32",
						"value": "t_struct(STK)107_storage"
					},
					"t_mapping(t_address,t_struct(SertifikaMerkezi)114_storage)": {
						"encoding": "mapping",
						"key": "t_address",
						"label": "mapping(address => struct BaseContract.SertifikaMerkezi)",
						"numberOfBytes": "32",
						"value": "t_struct(SertifikaMerkezi)114_storage"
					},
					"t_mapping(t_address,t_struct(Universite)39_storage)": {
						"encoding": "mapping",
						"key": "t_address",
						"label": "mapping(address => struct BaseContract.Universite)",
						"numberOfBytes": "32",
						"value": "t_struct(Universite)39_storage"
					},
					"t_mapping(t_uint256,t_struct(EgitimBilgi)335_storage)": {
						"encoding": "mapping",
						"key": "t_uint256",
						"label": "mapping(uint256 => struct EgitimBilgileri.EgitimBilgi)",
						"numberOfBytes": "32",
						"value": "t_struct(EgitimBilgi)335_storage"
					},
					"t_mapping(t_uint32,t_struct(YabanciDil)126_storage)": {
						"encoding": "mapping",
						"key": "t_uint32",
						"label": "mapping(uint32 => struct BaseContract.YabanciDil)",
						"numberOfBytes": "32",
						"value": "t_struct(YabanciDil)126_storage"
					},
					"t_string_storage": {
						"encoding": "bytes",
						"label": "string",
						"numberOfBytes": "32"
					},
					"t_struct(Akademisyen)53_storage": {
						"encoding": "inplace",
						"label": "struct BaseContract.Akademisyen",
						"members": [
							{
								"astId": 41,
								"contract": "contracts/EgitimBilgileri.sol:EgitimBilgileri",
								"label": "durum",
								"offset": 0,
								"slot": "0",
								"type": "t_bool"
							},
							{
								"astId": 43,
								"contract": "contracts/EgitimBilgileri.sol:EgitimBilgileri",
								"label": "universite",
								"offset": 1,
								"slot": "0",
								"type": "t_address"
							},
							{
								"astId": 45,
								"contract": "contracts/EgitimBilgileri.sol:EgitimBilgileri",
								"label": "bolum",
								"offset": 21,
								"slot": "0",
								"type": "t_uint16"
							},
							{
								"astId": 48,
								"contract": "contracts/EgitimBilgileri.sol:EgitimBilgileri",
								"label": "unvan",
								"offset": 23,
								"slot": "0",
								"type": "t_enum(Unvan)58"
							},
							{
								"astId": 50,
								"contract": "contracts/EgitimBilgileri.sol:EgitimBilgileri",
								"label": "ad",
								"offset": 0,
								"slot": "1",
								"type": "t_string_storage"
							},
							{
								"astId": 52,
								"contract": "contracts/EgitimBilgileri.sol:EgitimBilgileri",
								"label": "soyad",
								"offset": 0,
								"slot": "2",
								"type": "t_string_storage"
							}
						],
						"numberOfBytes": "96"
					},
					"t_struct(EgitimBilgi)335_storage": {
						"encoding": "inplace",
						"label": "struct EgitimBilgileri.EgitimBilgi",
						"members": [
							{
								"astId": 309,
								"contract": "contracts/EgitimBilgileri.sol:EgitimBilgileri",
								"label": "id",
								"offset": 0,
								"slot": "0",
								"type": "t_uint256"
							},
							{
								"astId": 311,
								"contract": "contracts/EgitimBilgileri.sol:EgitimBilgileri",
								"label": "talepEdilenKurum",
								"offset": 0,
								"slot": "1",
								"type": "t_address"
							},
							{
								"astId": 314,
								"contract": "contracts/EgitimBilgileri.sol:EgitimBilgileri",
								"label": "egitimDurumu",
								"offset": 20,
								"slot": "1",
								"type": "t_enum(EgitimDurumu)15"
							},
							{
								"astId": 316,
								"contract": "contracts/EgitimBilgileri.sol:EgitimBilgileri",
								"label": "basTarih",
								"offset": 0,
								"slot": "2",
								"type": "t_uint256"
							},
							{
								"astId": 318,
								"contract": "contracts/EgitimBilgileri.sol:EgitimBilgileri",
								"label": "bitTarih",
								"offset": 0,
								"slot": "3",
								"type": "t_uint256"
							},
							{
								"astId": 320,
								"contract": "contracts/EgitimBilgileri.sol:EgitimBilgileri",
								"label": "diplomaBelge",
								"offset": 0,
								"slot": "4",
								"type": "t_string_storage"
							},
							{
								"astId": 322,
								"contract": "contracts/EgitimBilgileri.sol:EgitimBilgileri",
								"label": "transcriptBelge",
								"offset": 0,
								"slot": "5",
								"type": "t_string_storage"
							},
							{
								"astId": 324,
								"contract": "contracts/EgitimBilgileri.sol:EgitimBilgileri",
								"label": "universite",
								"offset": 0,
								"slot": "6",
								"type": "t_address"
							},
							{
								"astId": 326,
								"contract": "contracts/EgitimBilgileri.sol:EgitimBilgileri",
								"label": "fakulte",
								"offset": 20,
								"slot": "6",
								"type": "t_uint16"
							},
							{
								"astId": 328,
								"contract": "contracts/EgitimBilgileri.sol:EgitimBilgileri",
								"label": "bolum",
								"offset": 22,
								"slot": "6",
								"type": "t_uint16"
							},
							{
								"astId": 331,
								"contract": "contracts/EgitimBilgileri.sol:EgitimBilgileri",
								"label": "ogretimTipi",
								"offset": 24,
								"slot": "6",
								"type": "t_enum(OgretimTipi)20"
							},
							{
								"astId": 334,
								"contract": "contracts/EgitimBilgileri.sol:EgitimBilgileri",
								"label": "onayBilgi",
								"offset": 0,
								"slot": "7",
								"type": "t_struct(Onay)28_storage"
							}
						],
						"numberOfBytes": "288"
					},
					"t_struct(Firma)93_storage": {
						"encoding": "inplace",
						"label": "struct BaseContract.Firma",
						"members": [
							{
								"astId": 86,
								"contract": "contracts/EgitimBilgileri.sol:EgitimBilgileri",
								"label": "durum",
								"offset": 0,
								"slot": "0",
								"type": "t_bool"
							},
							{
								"astId": 88,
								"contract": "contracts/EgitimBilgileri.sol:EgitimBilgileri",
								"label": "ulke",
								"offset": 1,
								"slot": "0",
								"type": "t_uint8"
							},
							{
								"astId": 90,
								"contract": "contracts/EgitimBilgileri.sol:EgitimBilgileri",
								"label": "vergiNo",
								"offset": 0,
								"slot": "1",
								"type": "t_uint256"
							},
							{
								"astId": 92,
								"contract": "contracts/EgitimBilgileri.sol:EgitimBilgileri",
								"label": "isim",
								"offset": 0,
								"slot": "2",
								"type": "t_string_storage"
							}
						],
						"numberOfBytes": "96"
					},
					"t_struct(KamuKurumu)100_storage": {
						"encoding": "inplace",
						"label": "struct BaseContract.KamuKurumu",
						"members": [
							{
								"astId": 95,
								"contract": "contracts/EgitimBilgileri.sol:EgitimBilgileri",
								"label": "durum",
								"offset": 0,
								"slot": "0",
								"type": "t_bool"
							},
							{
								"astId": 97,
								"contract": "contracts/EgitimBilgileri.sol:EgitimBilgileri",
								"label": "isim",
								"offset": 0,
								"slot": "1",
								"type": "t_string_storage"
							},
							{
								"astId": 99,
								"contract": "contracts/EgitimBilgileri.sol:EgitimBilgileri",
								"label": "ulke",
								"offset": 0,
								"slot": "2",
								"type": "t_uint8"
							}
						],
						"numberOfBytes": "96"
					},
					"t_struct(Kisi)10_storage": {
						"encoding": "inplace",
						"label": "struct BaseContract.Kisi",
						"members": [
							{
								"astId": 9,
								"contract": "contracts/EgitimBilgileri.sol:EgitimBilgileri",
								"label": "durum",
								"offset": 0,
								"slot": "0",
								"type": "t_bool"
							}
						],
						"numberOfBytes": "32"
					},
					"t_struct(Kurs)121_storage": {
						"encoding": "inplace",
						"label": "struct BaseContract.Kurs",
						"members": [
							{
								"astId": 116,
								"contract": "contracts/EgitimBilgileri.sol:EgitimBilgileri",
								"label": "durum",
								"offset": 0,
								"slot": "0",
								"type": "t_bool"
							},
							{
								"astId": 118,
								"contract": "contracts/EgitimBilgileri.sol:EgitimBilgileri",
								"label": "isim",
								"offset": 0,
								"slot": "1",
								"type": "t_string_storage"
							},
							{
								"astId": 120,
								"contract": "contracts/EgitimBilgileri.sol:EgitimBilgileri",
								"label": "ulke",
								"offset": 0,
								"slot": "2",
								"type": "t_uint8"
							}
						],
						"numberOfBytes": "96"
					},
					"t_struct(Onay)28_storage": {
						"encoding": "inplace",
						"label": "struct BaseContract.Onay",
						"members": [
							{
								"astId": 22,
								"contract": "contracts/EgitimBilgileri.sol:EgitimBilgileri",
								"label": "zaman",
								"offset": 0,
								"slot": "0",
								"type": "t_uint256"
							},
							{
								"astId": 24,
								"contract": "contracts/EgitimBilgileri.sol:EgitimBilgileri",
								"label": "adres",
								"offset": 0,
								"slot": "1",
								"type": "t_address"
							},
							{
								"astId": 27,
								"contract": "contracts/EgitimBilgileri.sol:EgitimBilgileri",
								"label": "durum",
								"offset": 20,
								"slot": "1",
								"type": "t_enum(OnayDurum)32"
							}
						],
						"numberOfBytes": "64"
					},
					"t_struct(STK)107_storage": {
						"encoding": "inplace",
						"label": "struct BaseContract.STK",
						"members": [
							{
								"astId": 102,
								"contract": "contracts/EgitimBilgileri.sol:EgitimBilgileri",
								"label": "durum",
								"offset": 0,
								"slot": "0",
								"type": "t_bool"
							},
							{
								"astId": 104,
								"contract": "contracts/EgitimBilgileri.sol:EgitimBilgileri",
								"label": "isim",
								"offset": 0,
								"slot": "1",
								"type": "t_string_storage"
							},
							{
								"astId": 106,
								"contract": "contracts/EgitimBilgileri.sol:EgitimBilgileri",
								"label": "ulke",
								"offset": 0,
								"slot": "2",
								"type": "t_uint8"
							}
						],
						"numberOfBytes": "96"
					},
					"t_struct(SertifikaMerkezi)114_storage": {
						"encoding": "inplace",
						"label": "struct BaseContract.SertifikaMerkezi",
						"members": [
							{
								"astId": 109,
								"contract": "contracts/EgitimBilgileri.sol:EgitimBilgileri",
								"label": "durum",
								"offset": 0,
								"slot": "0",
								"type": "t_bool"
							},
							{
								"astId": 111,
								"contract": "contracts/EgitimBilgileri.sol:EgitimBilgileri",
								"label": "isim",
								"offset": 0,
								"slot": "1",
								"type": "t_string_storage"
							},
							{
								"astId": 113,
								"contract": "contracts/EgitimBilgileri.sol:EgitimBilgileri",
								"label": "ulke",
								"offset": 0,
								"slot": "2",
								"type": "t_uint8"
							}
						],
						"numberOfBytes": "96"
					},
					"t_struct(Universite)39_storage": {
						"encoding": "inplace",
						"label": "struct BaseContract.Universite",
						"members": [
							{
								"astId": 34,
								"contract": "contracts/EgitimBilgileri.sol:EgitimBilgileri",
								"label": "durum",
								"offset": 0,
								"slot": "0",
								"type": "t_bool"
							},
							{
								"astId": 36,
								"contract": "contracts/EgitimBilgileri.sol:EgitimBilgileri",
								"label": "isim",
								"offset": 0,
								"slot": "1",
								"type": "t_string_storage"
							},
							{
								"astId": 38,
								"contract": "contracts/EgitimBilgileri.sol:EgitimBilgileri",
								"label": "ulke",
								"offset": 0,
								"slot": "2",
								"type": "t_uint8"
							}
						],
						"numberOfBytes": "96"
					},
					"t_struct(YabanciDil)126_storage": {
						"encoding": "inplace",
						"label": "struct BaseContract.YabanciDil",
						"members": [
							{
								"astId": 123,
								"contract": "contracts/EgitimBilgileri.sol:EgitimBilgileri",
								"label": "id",
								"offset": 0,
								"slot": "0",
								"type": "t_uint32"
							},
							{
								"astId": 125,
								"contract": "contracts/EgitimBilgileri.sol:EgitimBilgileri",
								"label": "isim",
								"offset": 0,
								"slot": "1",
								"type": "t_string_storage"
							}
						],
						"numberOfBytes": "64"
					},
					"t_uint16": {
						"encoding": "inplace",
						"label": "uint16",
						"numberOfBytes": "2"
					},
					"t_uint256": {
						"encoding": "inplace",
						"label": "uint256",
						"numberOfBytes": "32"
					},
					"t_uint32": {
						"encoding": "inplace",
						"label": "uint32",
						"numberOfBytes": "4"
					},
					"t_uint8": {
						"encoding": "inplace",
						"label": "uint8",
						"numberOfBytes": "1"
					}
				}
			},
			"userdoc": {
				"kind": "user",
				"methods": {},
				"version": 1
			}
		}
	}
}