{
	"contracts/EgitimBilgileri.sol": {
		"EgitimBilgileri": {
			"abi": [
				{
					"anonymous": false,
					"inputs": [
						{
							"indexed": false,
							"internalType": "address",
							"name": "_academicianAddress",
							"type": "address"
						},
						{
							"indexed": false,
							"internalType": "address",
							"name": "_universityAddress",
							"type": "address"
						},
						{
							"indexed": false,
							"internalType": "bytes32",
							"name": "_name",
							"type": "bytes32"
						},
						{
							"indexed": false,
							"internalType": "bytes32",
							"name": "_surname",
							"type": "bytes32"
						},
						{
							"indexed": false,
							"internalType": "uint16",
							"name": "_bolum",
							"type": "uint16"
						},
						{
							"indexed": false,
							"internalType": "enum EgitimBilgileri.Unvan",
							"name": "_unvan",
							"type": "uint8"
						}
					],
					"name": "AcademicianRegisteredLog",
					"type": "event"
				},
				{
					"anonymous": false,
					"inputs": [
						{
							"indexed": false,
							"internalType": "address",
							"name": "_universityAddress",
							"type": "address"
						},
						{
							"indexed": false,
							"internalType": "bytes32",
							"name": "_name",
							"type": "bytes32"
						},
						{
							"indexed": false,
							"internalType": "uint8",
							"name": "_country",
							"type": "uint8"
						}
					],
					"name": "UniversityRegisteredLog",
					"type": "event"
				},
				{
					"inputs": [
						{
							"internalType": "address",
							"name": "",
							"type": "address"
						}
					],
					"name": "academicians",
					"outputs": [
						{
							"internalType": "bool",
							"name": "durum",
							"type": "bool"
						},
						{
							"internalType": "address",
							"name": "universite",
							"type": "address"
						},
						{
							"internalType": "uint16",
							"name": "bolum",
							"type": "uint16"
						},
						{
							"internalType": "enum EgitimBilgileri.Unvan",
							"name": "unvan",
							"type": "uint8"
						},
						{
							"internalType": "bytes32",
							"name": "name",
							"type": "bytes32"
						},
						{
							"internalType": "bytes32",
							"name": "surname",
							"type": "bytes32"
						}
					],
					"stateMutability": "view",
					"type": "function"
				},
				{
					"inputs": [
						{
							"internalType": "address",
							"name": "_academicianAddress",
							"type": "address"
						},
						{
							"internalType": "address",
							"name": "_universityAddress",
							"type": "address"
						},
						{
							"internalType": "bytes32",
							"name": "_name",
							"type": "bytes32"
						},
						{
							"internalType": "bytes32",
							"name": "_surname",
							"type": "bytes32"
						},
						{
							"internalType": "uint16",
							"name": "_bolum",
							"type": "uint16"
						},
						{
							"internalType": "enum EgitimBilgileri.Unvan",
							"name": "_unvan",
							"type": "uint8"
						}
					],
					"name": "addAcademician",
					"outputs": [],
					"stateMutability": "nonpayable",
					"type": "function"
				},
				{
					"inputs": [
						{
							"internalType": "address",
							"name": "_universityAddress",
							"type": "address"
						},
						{
							"internalType": "bytes32",
							"name": "_isim",
							"type": "bytes32"
						},
						{
							"internalType": "uint8",
							"name": "_ulke",
							"type": "uint8"
						}
					],
					"name": "addUniversite",
					"outputs": [],
					"stateMutability": "nonpayable",
					"type": "function"
				},
				{
					"inputs": [
						{
							"internalType": "address",
							"name": "_address",
							"type": "address"
						}
					],
					"name": "isAcademician",
					"outputs": [
						{
							"internalType": "bool",
							"name": "",
							"type": "bool"
						}
					],
					"stateMutability": "view",
					"type": "function"
				},
				{
					"inputs": [
						{
							"internalType": "address",
							"name": "_address",
							"type": "address"
						}
					],
					"name": "isUniversity",
					"outputs": [
						{
							"internalType": "bool",
							"name": "",
							"type": "bool"
						}
					],
					"stateMutability": "view",
					"type": "function"
				},
				{
					"inputs": [
						{
							"internalType": "address",
							"name": "",
							"type": "address"
						}
					],
					"name": "universities",
					"outputs": [
						{
							"internalType": "bool",
							"name": "durum",
							"type": "bool"
						},
						{
							"internalType": "bytes32",
							"name": "isim",
							"type": "bytes32"
						},
						{
							"internalType": "uint8",
							"name": "ulke",
							"type": "uint8"
						}
					],
					"stateMutability": "view",
					"type": "function"
				}
			],
			"devdoc": {
				"kind": "dev",
				"methods": {},
				"version": 1
			},
			"evm": {
				"assembly": "    /* \"contracts/EgitimBilgileri.sol\":70:2448  contract EgitimBilgileri{\r... */\n  mstore(0x40, 0x80)\n  callvalue\n  dup1\n  iszero\n  tag_1\n  jumpi\n  0x00\n  dup1\n  revert\ntag_1:\n  pop\n  dataSize(sub_0)\n  dup1\n  dataOffset(sub_0)\n  0x00\n  codecopy\n  0x00\n  return\nstop\n\nsub_0: assembly {\n        /* \"contracts/EgitimBilgileri.sol\":70:2448  contract EgitimBilgileri{\r... */\n      mstore(0x40, 0x80)\n      callvalue\n      dup1\n      iszero\n      tag_1\n      jumpi\n      0x00\n      dup1\n      revert\n    tag_1:\n      pop\n      jumpi(tag_2, lt(calldatasize, 0x04))\n      shr(0xe0, calldataload(0x00))\n      dup1\n      0x67fa4091\n      eq\n      tag_3\n      jumpi\n      dup1\n      0x709e85ab\n      eq\n      tag_4\n      jumpi\n      dup1\n      0x9eaad92a\n      eq\n      tag_5\n      jumpi\n      dup1\n      0xb9730cde\n      eq\n      tag_6\n      jumpi\n      dup1\n      0xc689be00\n      eq\n      tag_7\n      jumpi\n      dup1\n      0xf0995560\n      eq\n      tag_8\n      jumpi\n    tag_2:\n      0x00\n      dup1\n      revert\n        /* \"contracts/EgitimBilgileri.sol\":2056:2445  function addAcademician (address _academicianAddress,address _universityAddress, bytes32 _name, bytes32 _surname,uint16 _bolum, Unvan _unvan) public {\r... */\n    tag_3:\n      tag_9\n      0x04\n      dup1\n      calldatasize\n      sub\n      dup2\n      add\n      swap1\n      tag_10\n      swap2\n      swap1\n      tag_11\n      jump\t// in\n    tag_10:\n      tag_12\n      jump\t// in\n    tag_9:\n      stop\n        /* \"contracts/EgitimBilgileri.sol\":1659:1778  function isAcademician(address _address) public view returns(bool){\r... */\n    tag_4:\n      tag_13\n      0x04\n      dup1\n      calldatasize\n      sub\n      dup2\n      add\n      swap1\n      tag_14\n      swap2\n      swap1\n      tag_15\n      jump\t// in\n    tag_14:\n      tag_16\n      jump\t// in\n    tag_13:\n      mload(0x40)\n      tag_17\n      swap2\n      swap1\n      tag_18\n      jump\t// in\n    tag_17:\n      mload(0x40)\n      dup1\n      swap2\n      sub\n      swap1\n      return\n        /* \"contracts/EgitimBilgileri.sol\":1476:1525  mapping(address=>Akademisyen) public academicians */\n    tag_5:\n      tag_19\n      0x04\n      dup1\n      calldatasize\n      sub\n      dup2\n      add\n      swap1\n      tag_20\n      swap2\n      swap1\n      tag_15\n      jump\t// in\n    tag_20:\n      tag_21\n      jump\t// in\n    tag_19:\n      mload(0x40)\n      tag_22\n      swap7\n      swap6\n      swap5\n      swap4\n      swap3\n      swap2\n      swap1\n      tag_23\n      jump\t// in\n    tag_22:\n      mload(0x40)\n      dup1\n      swap2\n      sub\n      swap1\n      return\n        /* \"contracts/EgitimBilgileri.sol\":1532:1651  function isUniversity(address _address) public view returns(bool){\r... */\n    tag_6:\n      tag_24\n      0x04\n      dup1\n      calldatasize\n      sub\n      dup2\n      add\n      swap1\n      tag_25\n      swap2\n      swap1\n      tag_15\n      jump\t// in\n    tag_25:\n      tag_26\n      jump\t// in\n    tag_24:\n      mload(0x40)\n      tag_27\n      swap2\n      swap1\n      tag_18\n      jump\t// in\n    tag_27:\n      mload(0x40)\n      dup1\n      swap2\n      sub\n      swap1\n      return\n        /* \"contracts/EgitimBilgileri.sol\":1784:2044  function addUniversite (address _universityAddress, bytes32 _isim, uint8 _ulke) public {\r... */\n    tag_7:\n      tag_28\n      0x04\n      dup1\n      calldatasize\n      sub\n      dup2\n      add\n      swap1\n      tag_29\n      swap2\n      swap1\n      tag_30\n      jump\t// in\n    tag_29:\n      tag_31\n      jump\t// in\n    tag_28:\n      stop\n        /* \"contracts/EgitimBilgileri.sol\":1420:1468  mapping(address=>Universite) public universities */\n    tag_8:\n      tag_32\n      0x04\n      dup1\n      calldatasize\n      sub\n      dup2\n      add\n      swap1\n      tag_33\n      swap2\n      swap1\n      tag_15\n      jump\t// in\n    tag_33:\n      tag_34\n      jump\t// in\n    tag_32:\n      mload(0x40)\n      tag_35\n      swap4\n      swap3\n      swap2\n      swap1\n      tag_36\n      jump\t// in\n    tag_35:\n      mload(0x40)\n      dup1\n      swap2\n      sub\n      swap1\n      return\n        /* \"contracts/EgitimBilgileri.sol\":2056:2445  function addAcademician (address _academicianAddress,address _universityAddress, bytes32 _name, bytes32 _surname,uint16 _bolum, Unvan _unvan) public {\r... */\n    tag_12:\n        /* \"contracts/EgitimBilgileri.sol\":2251:2317  Akademisyen(true,_universityAddress,_bolum,_unvan,_name, _surname) */\n      mload(0x40)\n      dup1\n      0xc0\n      add\n      0x40\n      mstore\n      dup1\n        /* \"contracts/EgitimBilgileri.sol\":2263:2267  true */\n      0x01\n        /* \"contracts/EgitimBilgileri.sol\":2251:2317  Akademisyen(true,_universityAddress,_bolum,_unvan,_name, _surname) */\n      iszero\n      iszero\n      dup2\n      mstore\n      0x20\n      add\n        /* \"contracts/EgitimBilgileri.sol\":2268:2286  _universityAddress */\n      dup7\n        /* \"contracts/EgitimBilgileri.sol\":2251:2317  Akademisyen(true,_universityAddress,_bolum,_unvan,_name, _surname) */\n      0xffffffffffffffffffffffffffffffffffffffff\n      and\n      dup2\n      mstore\n      0x20\n      add\n        /* \"contracts/EgitimBilgileri.sol\":2287:2293  _bolum */\n      dup4\n        /* \"contracts/EgitimBilgileri.sol\":2251:2317  Akademisyen(true,_universityAddress,_bolum,_unvan,_name, _surname) */\n      0xffff\n      and\n      dup2\n      mstore\n      0x20\n      add\n        /* \"contracts/EgitimBilgileri.sol\":2294:2300  _unvan */\n      dup3\n        /* \"contracts/EgitimBilgileri.sol\":2251:2317  Akademisyen(true,_universityAddress,_bolum,_unvan,_name, _surname) */\n      0x03\n      dup2\n      gt\n      iszero\n      tag_38\n      jumpi\n      tag_39\n      tag_40\n      jump\t// in\n    tag_39:\n    tag_38:\n      dup2\n      mstore\n      0x20\n      add\n        /* \"contracts/EgitimBilgileri.sol\":2301:2306  _name */\n      dup6\n        /* \"contracts/EgitimBilgileri.sol\":2251:2317  Akademisyen(true,_universityAddress,_bolum,_unvan,_name, _surname) */\n      dup2\n      mstore\n      0x20\n      add\n        /* \"contracts/EgitimBilgileri.sol\":2308:2316  _surname */\n      dup5\n        /* \"contracts/EgitimBilgileri.sol\":2251:2317  Akademisyen(true,_universityAddress,_bolum,_unvan,_name, _surname) */\n      dup2\n      mstore\n      pop\n        /* \"contracts/EgitimBilgileri.sol\":2216:2228  academicians */\n      0x01\n        /* \"contracts/EgitimBilgileri.sol\":2216:2248  academicians[_universityAddress] */\n      0x00\n        /* \"contracts/EgitimBilgileri.sol\":2229:2247  _universityAddress */\n      dup8\n        /* \"contracts/EgitimBilgileri.sol\":2216:2248  academicians[_universityAddress] */\n      0xffffffffffffffffffffffffffffffffffffffff\n      and\n      0xffffffffffffffffffffffffffffffffffffffff\n      and\n      dup2\n      mstore\n      0x20\n      add\n      swap1\n      dup2\n      mstore\n      0x20\n      add\n      0x00\n      keccak256\n        /* \"contracts/EgitimBilgileri.sol\":2216:2317  academicians[_universityAddress] = Akademisyen(true,_universityAddress,_bolum,_unvan,_name, _surname) */\n      0x00\n      dup3\n      add\n      mload\n      dup2\n      0x00\n      add\n      exp(0x0100, 0x00)\n      dup2\n      sload\n      dup2\n      0xff\n      mul\n      not\n      and\n      swap1\n      dup4\n      iszero\n      iszero\n      mul\n      or\n      swap1\n      sstore\n      pop\n      0x20\n      dup3\n      add\n      mload\n      dup2\n      0x00\n      add\n      exp(0x0100, 0x01)\n      dup2\n      sload\n      dup2\n      0xffffffffffffffffffffffffffffffffffffffff\n      mul\n      not\n      and\n      swap1\n      dup4\n      0xffffffffffffffffffffffffffffffffffffffff\n      and\n      mul\n      or\n      swap1\n      sstore\n      pop\n      0x40\n      dup3\n      add\n      mload\n      dup2\n      0x00\n      add\n      exp(0x0100, 0x15)\n      dup2\n      sload\n      dup2\n      0xffff\n      mul\n      not\n      and\n      swap1\n      dup4\n      0xffff\n      and\n      mul\n      or\n      swap1\n      sstore\n      pop\n      0x60\n      dup3\n      add\n      mload\n      dup2\n      0x00\n      add\n      exp(0x0100, 0x17)\n      dup2\n      sload\n      dup2\n      0xff\n      mul\n      not\n      and\n      swap1\n      dup4\n      0x03\n      dup2\n      gt\n      iszero\n      tag_41\n      jumpi\n      tag_42\n      tag_40\n      jump\t// in\n    tag_42:\n    tag_41:\n      mul\n      or\n      swap1\n      sstore\n      pop\n      0x80\n      dup3\n      add\n      mload\n      dup2\n      0x01\n      add\n      sstore\n      0xa0\n      dup3\n      add\n      mload\n      dup2\n      0x02\n      add\n      sstore\n      swap1\n      pop\n      pop\n        /* \"contracts/EgitimBilgileri.sol\":2336:2437  AcademicianRegisteredLog( _academicianAddress,_universityAddress,  _name,  _surname,  _bolum, _unvan) */\n      0x6dc1a0a09ba153309beebf5a586e7e93c5db73de8c26a7bdffa23337cedcf3e3\n        /* \"contracts/EgitimBilgileri.sol\":2362:2381  _academicianAddress */\n      dup7\n        /* \"contracts/EgitimBilgileri.sol\":2382:2400  _universityAddress */\n      dup7\n        /* \"contracts/EgitimBilgileri.sol\":2403:2408  _name */\n      dup7\n        /* \"contracts/EgitimBilgileri.sol\":2411:2419  _surname */\n      dup7\n        /* \"contracts/EgitimBilgileri.sol\":2422:2428  _bolum */\n      dup7\n        /* \"contracts/EgitimBilgileri.sol\":2430:2436  _unvan */\n      dup7\n        /* \"contracts/EgitimBilgileri.sol\":2336:2437  AcademicianRegisteredLog( _academicianAddress,_universityAddress,  _name,  _surname,  _bolum, _unvan) */\n      mload(0x40)\n      tag_43\n      swap7\n      swap6\n      swap5\n      swap4\n      swap3\n      swap2\n      swap1\n      tag_44\n      jump\t// in\n    tag_43:\n      mload(0x40)\n      dup1\n      swap2\n      sub\n      swap1\n      log1\n        /* \"contracts/EgitimBilgileri.sol\":2056:2445  function addAcademician (address _academicianAddress,address _universityAddress, bytes32 _name, bytes32 _surname,uint16 _bolum, Unvan _unvan) public {\r... */\n      pop\n      pop\n      pop\n      pop\n      pop\n      pop\n      jump\t// out\n        /* \"contracts/EgitimBilgileri.sol\":1659:1778  function isAcademician(address _address) public view returns(bool){\r... */\n    tag_16:\n        /* \"contracts/EgitimBilgileri.sol\":1720:1724  bool */\n      0x00\n        /* \"contracts/EgitimBilgileri.sol\":1743:1755  academicians */\n      0x01\n        /* \"contracts/EgitimBilgileri.sol\":1743:1765  academicians[_address] */\n      0x00\n        /* \"contracts/EgitimBilgileri.sol\":1756:1764  _address */\n      dup4\n        /* \"contracts/EgitimBilgileri.sol\":1743:1765  academicians[_address] */\n      0xffffffffffffffffffffffffffffffffffffffff\n      and\n      0xffffffffffffffffffffffffffffffffffffffff\n      and\n      dup2\n      mstore\n      0x20\n      add\n      swap1\n      dup2\n      mstore\n      0x20\n      add\n      0x00\n      keccak256\n        /* \"contracts/EgitimBilgileri.sol\":1743:1771  academicians[_address].durum */\n      0x00\n      add\n      0x00\n      swap1\n      sload\n      swap1\n      0x0100\n      exp\n      swap1\n      div\n      0xff\n      and\n        /* \"contracts/EgitimBilgileri.sol\":1736:1771  return academicians[_address].durum */\n      swap1\n      pop\n        /* \"contracts/EgitimBilgileri.sol\":1659:1778  function isAcademician(address _address) public view returns(bool){\r... */\n      swap2\n      swap1\n      pop\n      jump\t// out\n        /* \"contracts/EgitimBilgileri.sol\":1476:1525  mapping(address=>Akademisyen) public academicians */\n    tag_21:\n      mstore(0x20, 0x01)\n      dup1\n      0x00\n      mstore\n      keccak256(0x00, 0x40)\n      0x00\n      swap2\n      pop\n      swap1\n      pop\n      dup1\n      0x00\n      add\n      0x00\n      swap1\n      sload\n      swap1\n      0x0100\n      exp\n      swap1\n      div\n      0xff\n      and\n      swap1\n      dup1\n      0x00\n      add\n      0x01\n      swap1\n      sload\n      swap1\n      0x0100\n      exp\n      swap1\n      div\n      0xffffffffffffffffffffffffffffffffffffffff\n      and\n      swap1\n      dup1\n      0x00\n      add\n      0x15\n      swap1\n      sload\n      swap1\n      0x0100\n      exp\n      swap1\n      div\n      0xffff\n      and\n      swap1\n      dup1\n      0x00\n      add\n      0x17\n      swap1\n      sload\n      swap1\n      0x0100\n      exp\n      swap1\n      div\n      0xff\n      and\n      swap1\n      dup1\n      0x01\n      add\n      sload\n      swap1\n      dup1\n      0x02\n      add\n      sload\n      swap1\n      pop\n      dup7\n      jump\t// out\n        /* \"contracts/EgitimBilgileri.sol\":1532:1651  function isUniversity(address _address) public view returns(bool){\r... */\n    tag_26:\n        /* \"contracts/EgitimBilgileri.sol\":1592:1596  bool */\n      0x00\n        /* \"contracts/EgitimBilgileri.sol\":1615:1627  universities */\n      dup1\n        /* \"contracts/EgitimBilgileri.sol\":1615:1637  universities[_address] */\n      0x00\n        /* \"contracts/EgitimBilgileri.sol\":1628:1636  _address */\n      dup4\n        /* \"contracts/EgitimBilgileri.sol\":1615:1637  universities[_address] */\n      0xffffffffffffffffffffffffffffffffffffffff\n      and\n      0xffffffffffffffffffffffffffffffffffffffff\n      and\n      dup2\n      mstore\n      0x20\n      add\n      swap1\n      dup2\n      mstore\n      0x20\n      add\n      0x00\n      keccak256\n        /* \"contracts/EgitimBilgileri.sol\":1615:1643  universities[_address].durum */\n      0x00\n      add\n      0x00\n      swap1\n      sload\n      swap1\n      0x0100\n      exp\n      swap1\n      div\n      0xff\n      and\n        /* \"contracts/EgitimBilgileri.sol\":1608:1643  return universities[_address].durum */\n      swap1\n      pop\n        /* \"contracts/EgitimBilgileri.sol\":1532:1651  function isUniversity(address _address) public view returns(bool){\r... */\n      swap2\n      swap1\n      pop\n      jump\t// out\n        /* \"contracts/EgitimBilgileri.sol\":1784:2044  function addUniversite (address _universityAddress, bytes32 _isim, uint8 _ulke) public {\r... */\n    tag_31:\n        /* \"contracts/EgitimBilgileri.sol\":1917:1946  Universite(true,_isim, _ulke) */\n      mload(0x40)\n      dup1\n      0x60\n      add\n      0x40\n      mstore\n      dup1\n        /* \"contracts/EgitimBilgileri.sol\":1928:1932  true */\n      0x01\n        /* \"contracts/EgitimBilgileri.sol\":1917:1946  Universite(true,_isim, _ulke) */\n      iszero\n      iszero\n      dup2\n      mstore\n      0x20\n      add\n        /* \"contracts/EgitimBilgileri.sol\":1933:1938  _isim */\n      dup4\n        /* \"contracts/EgitimBilgileri.sol\":1917:1946  Universite(true,_isim, _ulke) */\n      dup2\n      mstore\n      0x20\n      add\n        /* \"contracts/EgitimBilgileri.sol\":1940:1945  _ulke */\n      dup3\n        /* \"contracts/EgitimBilgileri.sol\":1917:1946  Universite(true,_isim, _ulke) */\n      0xff\n      and\n      dup2\n      mstore\n      pop\n        /* \"contracts/EgitimBilgileri.sol\":1882:1894  universities */\n      0x00\n        /* \"contracts/EgitimBilgileri.sol\":1882:1914  universities[_universityAddress] */\n      dup1\n        /* \"contracts/EgitimBilgileri.sol\":1895:1913  _universityAddress */\n      dup6\n        /* \"contracts/EgitimBilgileri.sol\":1882:1914  universities[_universityAddress] */\n      0xffffffffffffffffffffffffffffffffffffffff\n      and\n      0xffffffffffffffffffffffffffffffffffffffff\n      and\n      dup2\n      mstore\n      0x20\n      add\n      swap1\n      dup2\n      mstore\n      0x20\n      add\n      0x00\n      keccak256\n        /* \"contracts/EgitimBilgileri.sol\":1882:1946  universities[_universityAddress] = Universite(true,_isim, _ulke) */\n      0x00\n      dup3\n      add\n      mload\n      dup2\n      0x00\n      add\n      exp(0x0100, 0x00)\n      dup2\n      sload\n      dup2\n      0xff\n      mul\n      not\n      and\n      swap1\n      dup4\n      iszero\n      iszero\n      mul\n      or\n      swap1\n      sstore\n      pop\n      0x20\n      dup3\n      add\n      mload\n      dup2\n      0x01\n      add\n      sstore\n      0x40\n      dup3\n      add\n      mload\n      dup2\n      0x02\n      add\n      exp(0x0100, 0x00)\n      dup2\n      sload\n      dup2\n      0xff\n      mul\n      not\n      and\n      swap1\n      dup4\n      0xff\n      and\n      mul\n      or\n      swap1\n      sstore\n      pop\n      swap1\n      pop\n      pop\n        /* \"contracts/EgitimBilgileri.sol\":1966:2024  UniversityRegisteredLog( _universityAddress, _isim, _ulke) */\n      0xd4a11ef767db8b7fcdab86ce7e33abe922cc29ede58d5de7c01b94d06f9354f7\n        /* \"contracts/EgitimBilgileri.sol\":1991:2009  _universityAddress */\n      dup4\n        /* \"contracts/EgitimBilgileri.sol\":2011:2016  _isim */\n      dup4\n        /* \"contracts/EgitimBilgileri.sol\":2018:2023  _ulke */\n      dup4\n        /* \"contracts/EgitimBilgileri.sol\":1966:2024  UniversityRegisteredLog( _universityAddress, _isim, _ulke) */\n      mload(0x40)\n      tag_48\n      swap4\n      swap3\n      swap2\n      swap1\n      tag_49\n      jump\t// in\n    tag_48:\n      mload(0x40)\n      dup1\n      swap2\n      sub\n      swap1\n      log1\n        /* \"contracts/EgitimBilgileri.sol\":1784:2044  function addUniversite (address _universityAddress, bytes32 _isim, uint8 _ulke) public {\r... */\n      pop\n      pop\n      pop\n      jump\t// out\n        /* \"contracts/EgitimBilgileri.sol\":1420:1468  mapping(address=>Universite) public universities */\n    tag_34:\n      mstore(0x20, 0x00)\n      dup1\n      0x00\n      mstore\n      keccak256(0x00, 0x40)\n      0x00\n      swap2\n      pop\n      swap1\n      pop\n      dup1\n      0x00\n      add\n      0x00\n      swap1\n      sload\n      swap1\n      0x0100\n      exp\n      swap1\n      div\n      0xff\n      and\n      swap1\n      dup1\n      0x01\n      add\n      sload\n      swap1\n      dup1\n      0x02\n      add\n      0x00\n      swap1\n      sload\n      swap1\n      0x0100\n      exp\n      swap1\n      div\n      0xff\n      and\n      swap1\n      pop\n      dup4\n      jump\t// out\n        /* \"#utility.yul\":7:146   */\n    tag_51:\n        /* \"#utility.yul\":53:58   */\n      0x00\n        /* \"#utility.yul\":91:97   */\n      dup2\n        /* \"#utility.yul\":78:98   */\n      calldataload\n        /* \"#utility.yul\":69:98   */\n      swap1\n      pop\n        /* \"#utility.yul\":107:140   */\n      tag_53\n        /* \"#utility.yul\":134:139   */\n      dup2\n        /* \"#utility.yul\":107:140   */\n      tag_54\n      jump\t// in\n    tag_53:\n        /* \"#utility.yul\":7:146   */\n      swap3\n      swap2\n      pop\n      pop\n      jump\t// out\n        /* \"#utility.yul\":152:291   */\n    tag_55:\n        /* \"#utility.yul\":198:203   */\n      0x00\n        /* \"#utility.yul\":236:242   */\n      dup2\n        /* \"#utility.yul\":223:243   */\n      calldataload\n        /* \"#utility.yul\":214:243   */\n      swap1\n      pop\n        /* \"#utility.yul\":252:285   */\n      tag_57\n        /* \"#utility.yul\":279:284   */\n      dup2\n        /* \"#utility.yul\":252:285   */\n      tag_58\n      jump\t// in\n    tag_57:\n        /* \"#utility.yul\":152:291   */\n      swap3\n      swap2\n      pop\n      pop\n      jump\t// out\n        /* \"#utility.yul\":297:452   */\n    tag_59:\n        /* \"#utility.yul\":351:356   */\n      0x00\n        /* \"#utility.yul\":389:395   */\n      dup2\n        /* \"#utility.yul\":376:396   */\n      calldataload\n        /* \"#utility.yul\":367:396   */\n      swap1\n      pop\n        /* \"#utility.yul\":405:446   */\n      tag_61\n        /* \"#utility.yul\":440:445   */\n      dup2\n        /* \"#utility.yul\":405:446   */\n      tag_62\n      jump\t// in\n    tag_61:\n        /* \"#utility.yul\":297:452   */\n      swap3\n      swap2\n      pop\n      pop\n      jump\t// out\n        /* \"#utility.yul\":458:595   */\n    tag_63:\n        /* \"#utility.yul\":503:508   */\n      0x00\n        /* \"#utility.yul\":541:547   */\n      dup2\n        /* \"#utility.yul\":528:548   */\n      calldataload\n        /* \"#utility.yul\":519:548   */\n      swap1\n      pop\n        /* \"#utility.yul\":557:589   */\n      tag_65\n        /* \"#utility.yul\":583:588   */\n      dup2\n        /* \"#utility.yul\":557:589   */\n      tag_66\n      jump\t// in\n    tag_65:\n        /* \"#utility.yul\":458:595   */\n      swap3\n      swap2\n      pop\n      pop\n      jump\t// out\n        /* \"#utility.yul\":601:736   */\n    tag_67:\n        /* \"#utility.yul\":645:650   */\n      0x00\n        /* \"#utility.yul\":683:689   */\n      dup2\n        /* \"#utility.yul\":670:690   */\n      calldataload\n        /* \"#utility.yul\":661:690   */\n      swap1\n      pop\n        /* \"#utility.yul\":699:730   */\n      tag_69\n        /* \"#utility.yul\":724:729   */\n      dup2\n        /* \"#utility.yul\":699:730   */\n      tag_70\n      jump\t// in\n    tag_69:\n        /* \"#utility.yul\":601:736   */\n      swap3\n      swap2\n      pop\n      pop\n      jump\t// out\n        /* \"#utility.yul\":742:1071   */\n    tag_15:\n        /* \"#utility.yul\":801:807   */\n      0x00\n        /* \"#utility.yul\":850:852   */\n      0x20\n        /* \"#utility.yul\":838:847   */\n      dup3\n        /* \"#utility.yul\":829:836   */\n      dup5\n        /* \"#utility.yul\":825:848   */\n      sub\n        /* \"#utility.yul\":821:853   */\n      slt\n        /* \"#utility.yul\":818:937   */\n      iszero\n      tag_72\n      jumpi\n        /* \"#utility.yul\":856:935   */\n      tag_73\n      tag_74\n      jump\t// in\n    tag_73:\n        /* \"#utility.yul\":818:937   */\n    tag_72:\n        /* \"#utility.yul\":976:977   */\n      0x00\n        /* \"#utility.yul\":1001:1054   */\n      tag_75\n        /* \"#utility.yul\":1046:1053   */\n      dup5\n        /* \"#utility.yul\":1037:1043   */\n      dup3\n        /* \"#utility.yul\":1026:1035   */\n      dup6\n        /* \"#utility.yul\":1022:1044   */\n      add\n        /* \"#utility.yul\":1001:1054   */\n      tag_51\n      jump\t// in\n    tag_75:\n        /* \"#utility.yul\":991:1054   */\n      swap2\n      pop\n        /* \"#utility.yul\":947:1064   */\n      pop\n        /* \"#utility.yul\":742:1071   */\n      swap3\n      swap2\n      pop\n      pop\n      jump\t// out\n        /* \"#utility.yul\":1077:2148   */\n    tag_11:\n        /* \"#utility.yul\":1188:1194   */\n      0x00\n        /* \"#utility.yul\":1196:1202   */\n      dup1\n        /* \"#utility.yul\":1204:1210   */\n      0x00\n        /* \"#utility.yul\":1212:1218   */\n      dup1\n        /* \"#utility.yul\":1220:1226   */\n      0x00\n        /* \"#utility.yul\":1228:1234   */\n      dup1\n        /* \"#utility.yul\":1277:1280   */\n      0xc0\n        /* \"#utility.yul\":1265:1274   */\n      dup8\n        /* \"#utility.yul\":1256:1263   */\n      dup10\n        /* \"#utility.yul\":1252:1275   */\n      sub\n        /* \"#utility.yul\":1248:1281   */\n      slt\n        /* \"#utility.yul\":1245:1365   */\n      iszero\n      tag_77\n      jumpi\n        /* \"#utility.yul\":1284:1363   */\n      tag_78\n      tag_74\n      jump\t// in\n    tag_78:\n        /* \"#utility.yul\":1245:1365   */\n    tag_77:\n        /* \"#utility.yul\":1404:1405   */\n      0x00\n        /* \"#utility.yul\":1429:1482   */\n      tag_79\n        /* \"#utility.yul\":1474:1481   */\n      dup10\n        /* \"#utility.yul\":1465:1471   */\n      dup3\n        /* \"#utility.yul\":1454:1463   */\n      dup11\n        /* \"#utility.yul\":1450:1472   */\n      add\n        /* \"#utility.yul\":1429:1482   */\n      tag_51\n      jump\t// in\n    tag_79:\n        /* \"#utility.yul\":1419:1482   */\n      swap7\n      pop\n        /* \"#utility.yul\":1375:1492   */\n      pop\n        /* \"#utility.yul\":1531:1533   */\n      0x20\n        /* \"#utility.yul\":1557:1610   */\n      tag_80\n        /* \"#utility.yul\":1602:1609   */\n      dup10\n        /* \"#utility.yul\":1593:1599   */\n      dup3\n        /* \"#utility.yul\":1582:1591   */\n      dup11\n        /* \"#utility.yul\":1578:1600   */\n      add\n        /* \"#utility.yul\":1557:1610   */\n      tag_51\n      jump\t// in\n    tag_80:\n        /* \"#utility.yul\":1547:1610   */\n      swap6\n      pop\n        /* \"#utility.yul\":1502:1620   */\n      pop\n        /* \"#utility.yul\":1659:1661   */\n      0x40\n        /* \"#utility.yul\":1685:1738   */\n      tag_81\n        /* \"#utility.yul\":1730:1737   */\n      dup10\n        /* \"#utility.yul\":1721:1727   */\n      dup3\n        /* \"#utility.yul\":1710:1719   */\n      dup11\n        /* \"#utility.yul\":1706:1728   */\n      add\n        /* \"#utility.yul\":1685:1738   */\n      tag_55\n      jump\t// in\n    tag_81:\n        /* \"#utility.yul\":1675:1738   */\n      swap5\n      pop\n        /* \"#utility.yul\":1630:1748   */\n      pop\n        /* \"#utility.yul\":1787:1789   */\n      0x60\n        /* \"#utility.yul\":1813:1866   */\n      tag_82\n        /* \"#utility.yul\":1858:1865   */\n      dup10\n        /* \"#utility.yul\":1849:1855   */\n      dup3\n        /* \"#utility.yul\":1838:1847   */\n      dup11\n        /* \"#utility.yul\":1834:1856   */\n      add\n        /* \"#utility.yul\":1813:1866   */\n      tag_55\n      jump\t// in\n    tag_82:\n        /* \"#utility.yul\":1803:1866   */\n      swap4\n      pop\n        /* \"#utility.yul\":1758:1876   */\n      pop\n        /* \"#utility.yul\":1915:1918   */\n      0x80\n        /* \"#utility.yul\":1942:1994   */\n      tag_83\n        /* \"#utility.yul\":1986:1993   */\n      dup10\n        /* \"#utility.yul\":1977:1983   */\n      dup3\n        /* \"#utility.yul\":1966:1975   */\n      dup11\n        /* \"#utility.yul\":1962:1984   */\n      add\n        /* \"#utility.yul\":1942:1994   */\n      tag_63\n      jump\t// in\n    tag_83:\n        /* \"#utility.yul\":1932:1994   */\n      swap3\n      pop\n        /* \"#utility.yul\":1886:2004   */\n      pop\n        /* \"#utility.yul\":2043:2046   */\n      0xa0\n        /* \"#utility.yul\":2070:2131   */\n      tag_84\n        /* \"#utility.yul\":2123:2130   */\n      dup10\n        /* \"#utility.yul\":2114:2120   */\n      dup3\n        /* \"#utility.yul\":2103:2112   */\n      dup11\n        /* \"#utility.yul\":2099:2121   */\n      add\n        /* \"#utility.yul\":2070:2131   */\n      tag_59\n      jump\t// in\n    tag_84:\n        /* \"#utility.yul\":2060:2131   */\n      swap2\n      pop\n        /* \"#utility.yul\":2014:2141   */\n      pop\n        /* \"#utility.yul\":1077:2148   */\n      swap3\n      swap6\n      pop\n      swap3\n      swap6\n      pop\n      swap3\n      swap6\n      jump\t// out\n        /* \"#utility.yul\":2154:2769   */\n    tag_30:\n        /* \"#utility.yul\":2229:2235   */\n      0x00\n        /* \"#utility.yul\":2237:2243   */\n      dup1\n        /* \"#utility.yul\":2245:2251   */\n      0x00\n        /* \"#utility.yul\":2294:2296   */\n      0x60\n        /* \"#utility.yul\":2282:2291   */\n      dup5\n        /* \"#utility.yul\":2273:2280   */\n      dup7\n        /* \"#utility.yul\":2269:2292   */\n      sub\n        /* \"#utility.yul\":2265:2297   */\n      slt\n        /* \"#utility.yul\":2262:2381   */\n      iszero\n      tag_86\n      jumpi\n        /* \"#utility.yul\":2300:2379   */\n      tag_87\n      tag_74\n      jump\t// in\n    tag_87:\n        /* \"#utility.yul\":2262:2381   */\n    tag_86:\n        /* \"#utility.yul\":2420:2421   */\n      0x00\n        /* \"#utility.yul\":2445:2498   */\n      tag_88\n        /* \"#utility.yul\":2490:2497   */\n      dup7\n        /* \"#utility.yul\":2481:2487   */\n      dup3\n        /* \"#utility.yul\":2470:2479   */\n      dup8\n        /* \"#utility.yul\":2466:2488   */\n      add\n        /* \"#utility.yul\":2445:2498   */\n      tag_51\n      jump\t// in\n    tag_88:\n        /* \"#utility.yul\":2435:2498   */\n      swap4\n      pop\n        /* \"#utility.yul\":2391:2508   */\n      pop\n        /* \"#utility.yul\":2547:2549   */\n      0x20\n        /* \"#utility.yul\":2573:2626   */\n      tag_89\n        /* \"#utility.yul\":2618:2625   */\n      dup7\n        /* \"#utility.yul\":2609:2615   */\n      dup3\n        /* \"#utility.yul\":2598:2607   */\n      dup8\n        /* \"#utility.yul\":2594:2616   */\n      add\n        /* \"#utility.yul\":2573:2626   */\n      tag_55\n      jump\t// in\n    tag_89:\n        /* \"#utility.yul\":2563:2626   */\n      swap3\n      pop\n        /* \"#utility.yul\":2518:2636   */\n      pop\n        /* \"#utility.yul\":2675:2677   */\n      0x40\n        /* \"#utility.yul\":2701:2752   */\n      tag_90\n        /* \"#utility.yul\":2744:2751   */\n      dup7\n        /* \"#utility.yul\":2735:2741   */\n      dup3\n        /* \"#utility.yul\":2724:2733   */\n      dup8\n        /* \"#utility.yul\":2720:2742   */\n      add\n        /* \"#utility.yul\":2701:2752   */\n      tag_67\n      jump\t// in\n    tag_90:\n        /* \"#utility.yul\":2691:2752   */\n      swap2\n      pop\n        /* \"#utility.yul\":2646:2762   */\n      pop\n        /* \"#utility.yul\":2154:2769   */\n      swap3\n      pop\n      swap3\n      pop\n      swap3\n      jump\t// out\n        /* \"#utility.yul\":2775:2893   */\n    tag_91:\n        /* \"#utility.yul\":2862:2886   */\n      tag_93\n        /* \"#utility.yul\":2880:2885   */\n      dup2\n        /* \"#utility.yul\":2862:2886   */\n      tag_94\n      jump\t// in\n    tag_93:\n        /* \"#utility.yul\":2857:2860   */\n      dup3\n        /* \"#utility.yul\":2850:2887   */\n      mstore\n        /* \"#utility.yul\":2775:2893   */\n      pop\n      pop\n      jump\t// out\n        /* \"#utility.yul\":2899:3008   */\n    tag_95:\n        /* \"#utility.yul\":2980:3001   */\n      tag_97\n        /* \"#utility.yul\":2995:3000   */\n      dup2\n        /* \"#utility.yul\":2980:3001   */\n      tag_98\n      jump\t// in\n    tag_97:\n        /* \"#utility.yul\":2975:2978   */\n      dup3\n        /* \"#utility.yul\":2968:3002   */\n      mstore\n        /* \"#utility.yul\":2899:3008   */\n      pop\n      pop\n      jump\t// out\n        /* \"#utility.yul\":3014:3132   */\n    tag_99:\n        /* \"#utility.yul\":3101:3125   */\n      tag_101\n        /* \"#utility.yul\":3119:3124   */\n      dup2\n        /* \"#utility.yul\":3101:3125   */\n      tag_102\n      jump\t// in\n    tag_101:\n        /* \"#utility.yul\":3096:3099   */\n      dup3\n        /* \"#utility.yul\":3089:3126   */\n      mstore\n        /* \"#utility.yul\":3014:3132   */\n      pop\n      pop\n      jump\t// out\n        /* \"#utility.yul\":3138:3281   */\n    tag_103:\n        /* \"#utility.yul\":3231:3274   */\n      tag_105\n        /* \"#utility.yul\":3268:3273   */\n      dup2\n        /* \"#utility.yul\":3231:3274   */\n      tag_106\n      jump\t// in\n    tag_105:\n        /* \"#utility.yul\":3226:3229   */\n      dup3\n        /* \"#utility.yul\":3219:3275   */\n      mstore\n        /* \"#utility.yul\":3138:3281   */\n      pop\n      pop\n      jump\t// out\n        /* \"#utility.yul\":3287:3402   */\n    tag_107:\n        /* \"#utility.yul\":3372:3395   */\n      tag_109\n        /* \"#utility.yul\":3389:3394   */\n      dup2\n        /* \"#utility.yul\":3372:3395   */\n      tag_110\n      jump\t// in\n    tag_109:\n        /* \"#utility.yul\":3367:3370   */\n      dup3\n        /* \"#utility.yul\":3360:3396   */\n      mstore\n        /* \"#utility.yul\":3287:3402   */\n      pop\n      pop\n      jump\t// out\n        /* \"#utility.yul\":3408:3520   */\n    tag_111:\n        /* \"#utility.yul\":3491:3513   */\n      tag_113\n        /* \"#utility.yul\":3507:3512   */\n      dup2\n        /* \"#utility.yul\":3491:3513   */\n      tag_114\n      jump\t// in\n    tag_113:\n        /* \"#utility.yul\":3486:3489   */\n      dup3\n        /* \"#utility.yul\":3479:3514   */\n      mstore\n        /* \"#utility.yul\":3408:3520   */\n      pop\n      pop\n      jump\t// out\n        /* \"#utility.yul\":3526:4309   */\n    tag_44:\n        /* \"#utility.yul\":3763:3767   */\n      0x00\n        /* \"#utility.yul\":3801:3804   */\n      0xc0\n        /* \"#utility.yul\":3790:3799   */\n      dup3\n        /* \"#utility.yul\":3786:3805   */\n      add\n        /* \"#utility.yul\":3778:3805   */\n      swap1\n      pop\n        /* \"#utility.yul\":3815:3886   */\n      tag_116\n        /* \"#utility.yul\":3883:3884   */\n      0x00\n        /* \"#utility.yul\":3872:3881   */\n      dup4\n        /* \"#utility.yul\":3868:3885   */\n      add\n        /* \"#utility.yul\":3859:3865   */\n      dup10\n        /* \"#utility.yul\":3815:3886   */\n      tag_91\n      jump\t// in\n    tag_116:\n        /* \"#utility.yul\":3896:3968   */\n      tag_117\n        /* \"#utility.yul\":3964:3966   */\n      0x20\n        /* \"#utility.yul\":3953:3962   */\n      dup4\n        /* \"#utility.yul\":3949:3967   */\n      add\n        /* \"#utility.yul\":3940:3946   */\n      dup9\n        /* \"#utility.yul\":3896:3968   */\n      tag_91\n      jump\t// in\n    tag_117:\n        /* \"#utility.yul\":3978:4050   */\n      tag_118\n        /* \"#utility.yul\":4046:4048   */\n      0x40\n        /* \"#utility.yul\":4035:4044   */\n      dup4\n        /* \"#utility.yul\":4031:4049   */\n      add\n        /* \"#utility.yul\":4022:4028   */\n      dup8\n        /* \"#utility.yul\":3978:4050   */\n      tag_99\n      jump\t// in\n    tag_118:\n        /* \"#utility.yul\":4060:4132   */\n      tag_119\n        /* \"#utility.yul\":4128:4130   */\n      0x60\n        /* \"#utility.yul\":4117:4126   */\n      dup4\n        /* \"#utility.yul\":4113:4131   */\n      add\n        /* \"#utility.yul\":4104:4110   */\n      dup7\n        /* \"#utility.yul\":4060:4132   */\n      tag_99\n      jump\t// in\n    tag_119:\n        /* \"#utility.yul\":4142:4213   */\n      tag_120\n        /* \"#utility.yul\":4208:4211   */\n      0x80\n        /* \"#utility.yul\":4197:4206   */\n      dup4\n        /* \"#utility.yul\":4193:4212   */\n      add\n        /* \"#utility.yul\":4184:4190   */\n      dup6\n        /* \"#utility.yul\":4142:4213   */\n      tag_107\n      jump\t// in\n    tag_120:\n        /* \"#utility.yul\":4223:4302   */\n      tag_121\n        /* \"#utility.yul\":4297:4300   */\n      0xa0\n        /* \"#utility.yul\":4286:4295   */\n      dup4\n        /* \"#utility.yul\":4282:4301   */\n      add\n        /* \"#utility.yul\":4273:4279   */\n      dup5\n        /* \"#utility.yul\":4223:4302   */\n      tag_103\n      jump\t// in\n    tag_121:\n        /* \"#utility.yul\":3526:4309   */\n      swap8\n      swap7\n      pop\n      pop\n      pop\n      pop\n      pop\n      pop\n      pop\n      jump\t// out\n        /* \"#utility.yul\":4315:4749   */\n    tag_49:\n        /* \"#utility.yul\":4460:4464   */\n      0x00\n        /* \"#utility.yul\":4498:4500   */\n      0x60\n        /* \"#utility.yul\":4487:4496   */\n      dup3\n        /* \"#utility.yul\":4483:4501   */\n      add\n        /* \"#utility.yul\":4475:4501   */\n      swap1\n      pop\n        /* \"#utility.yul\":4511:4582   */\n      tag_123\n        /* \"#utility.yul\":4579:4580   */\n      0x00\n        /* \"#utility.yul\":4568:4577   */\n      dup4\n        /* \"#utility.yul\":4564:4581   */\n      add\n        /* \"#utility.yul\":4555:4561   */\n      dup7\n        /* \"#utility.yul\":4511:4582   */\n      tag_91\n      jump\t// in\n    tag_123:\n        /* \"#utility.yul\":4592:4664   */\n      tag_124\n        /* \"#utility.yul\":4660:4662   */\n      0x20\n        /* \"#utility.yul\":4649:4658   */\n      dup4\n        /* \"#utility.yul\":4645:4663   */\n      add\n        /* \"#utility.yul\":4636:4642   */\n      dup6\n        /* \"#utility.yul\":4592:4664   */\n      tag_99\n      jump\t// in\n    tag_124:\n        /* \"#utility.yul\":4674:4742   */\n      tag_125\n        /* \"#utility.yul\":4738:4740   */\n      0x40\n        /* \"#utility.yul\":4727:4736   */\n      dup4\n        /* \"#utility.yul\":4723:4741   */\n      add\n        /* \"#utility.yul\":4714:4720   */\n      dup5\n        /* \"#utility.yul\":4674:4742   */\n      tag_111\n      jump\t// in\n    tag_125:\n        /* \"#utility.yul\":4315:4749   */\n      swap5\n      swap4\n      pop\n      pop\n      pop\n      pop\n      jump\t// out\n        /* \"#utility.yul\":4755:4965   */\n    tag_18:\n        /* \"#utility.yul\":4842:4846   */\n      0x00\n        /* \"#utility.yul\":4880:4882   */\n      0x20\n        /* \"#utility.yul\":4869:4878   */\n      dup3\n        /* \"#utility.yul\":4865:4883   */\n      add\n        /* \"#utility.yul\":4857:4883   */\n      swap1\n      pop\n        /* \"#utility.yul\":4893:4958   */\n      tag_127\n        /* \"#utility.yul\":4955:4956   */\n      0x00\n        /* \"#utility.yul\":4944:4953   */\n      dup4\n        /* \"#utility.yul\":4940:4957   */\n      add\n        /* \"#utility.yul\":4931:4937   */\n      dup5\n        /* \"#utility.yul\":4893:4958   */\n      tag_95\n      jump\t// in\n    tag_127:\n        /* \"#utility.yul\":4755:4965   */\n      swap3\n      swap2\n      pop\n      pop\n      jump\t// out\n        /* \"#utility.yul\":4971:5742   */\n    tag_23:\n        /* \"#utility.yul\":5202:5206   */\n      0x00\n        /* \"#utility.yul\":5240:5243   */\n      0xc0\n        /* \"#utility.yul\":5229:5238   */\n      dup3\n        /* \"#utility.yul\":5225:5244   */\n      add\n        /* \"#utility.yul\":5217:5244   */\n      swap1\n      pop\n        /* \"#utility.yul\":5254:5319   */\n      tag_129\n        /* \"#utility.yul\":5316:5317   */\n      0x00\n        /* \"#utility.yul\":5305:5314   */\n      dup4\n        /* \"#utility.yul\":5301:5318   */\n      add\n        /* \"#utility.yul\":5292:5298   */\n      dup10\n        /* \"#utility.yul\":5254:5319   */\n      tag_95\n      jump\t// in\n    tag_129:\n        /* \"#utility.yul\":5329:5401   */\n      tag_130\n        /* \"#utility.yul\":5397:5399   */\n      0x20\n        /* \"#utility.yul\":5386:5395   */\n      dup4\n        /* \"#utility.yul\":5382:5400   */\n      add\n        /* \"#utility.yul\":5373:5379   */\n      dup9\n        /* \"#utility.yul\":5329:5401   */\n      tag_91\n      jump\t// in\n    tag_130:\n        /* \"#utility.yul\":5411:5481   */\n      tag_131\n        /* \"#utility.yul\":5477:5479   */\n      0x40\n        /* \"#utility.yul\":5466:5475   */\n      dup4\n        /* \"#utility.yul\":5462:5480   */\n      add\n        /* \"#utility.yul\":5453:5459   */\n      dup8\n        /* \"#utility.yul\":5411:5481   */\n      tag_107\n      jump\t// in\n    tag_131:\n        /* \"#utility.yul\":5491:5569   */\n      tag_132\n        /* \"#utility.yul\":5565:5567   */\n      0x60\n        /* \"#utility.yul\":5554:5563   */\n      dup4\n        /* \"#utility.yul\":5550:5568   */\n      add\n        /* \"#utility.yul\":5541:5547   */\n      dup7\n        /* \"#utility.yul\":5491:5569   */\n      tag_103\n      jump\t// in\n    tag_132:\n        /* \"#utility.yul\":5579:5652   */\n      tag_133\n        /* \"#utility.yul\":5647:5650   */\n      0x80\n        /* \"#utility.yul\":5636:5645   */\n      dup4\n        /* \"#utility.yul\":5632:5651   */\n      add\n        /* \"#utility.yul\":5623:5629   */\n      dup6\n        /* \"#utility.yul\":5579:5652   */\n      tag_99\n      jump\t// in\n    tag_133:\n        /* \"#utility.yul\":5662:5735   */\n      tag_134\n        /* \"#utility.yul\":5730:5733   */\n      0xa0\n        /* \"#utility.yul\":5719:5728   */\n      dup4\n        /* \"#utility.yul\":5715:5734   */\n      add\n        /* \"#utility.yul\":5706:5712   */\n      dup5\n        /* \"#utility.yul\":5662:5735   */\n      tag_99\n      jump\t// in\n    tag_134:\n        /* \"#utility.yul\":4971:5742   */\n      swap8\n      swap7\n      pop\n      pop\n      pop\n      pop\n      pop\n      pop\n      pop\n      jump\t// out\n        /* \"#utility.yul\":5748:6170   */\n    tag_36:\n        /* \"#utility.yul\":5887:5891   */\n      0x00\n        /* \"#utility.yul\":5925:5927   */\n      0x60\n        /* \"#utility.yul\":5914:5923   */\n      dup3\n        /* \"#utility.yul\":5910:5928   */\n      add\n        /* \"#utility.yul\":5902:5928   */\n      swap1\n      pop\n        /* \"#utility.yul\":5938:6003   */\n      tag_136\n        /* \"#utility.yul\":6000:6001   */\n      0x00\n        /* \"#utility.yul\":5989:5998   */\n      dup4\n        /* \"#utility.yul\":5985:6002   */\n      add\n        /* \"#utility.yul\":5976:5982   */\n      dup7\n        /* \"#utility.yul\":5938:6003   */\n      tag_95\n      jump\t// in\n    tag_136:\n        /* \"#utility.yul\":6013:6085   */\n      tag_137\n        /* \"#utility.yul\":6081:6083   */\n      0x20\n        /* \"#utility.yul\":6070:6079   */\n      dup4\n        /* \"#utility.yul\":6066:6084   */\n      add\n        /* \"#utility.yul\":6057:6063   */\n      dup6\n        /* \"#utility.yul\":6013:6085   */\n      tag_99\n      jump\t// in\n    tag_137:\n        /* \"#utility.yul\":6095:6163   */\n      tag_138\n        /* \"#utility.yul\":6159:6161   */\n      0x40\n        /* \"#utility.yul\":6148:6157   */\n      dup4\n        /* \"#utility.yul\":6144:6162   */\n      add\n        /* \"#utility.yul\":6135:6141   */\n      dup5\n        /* \"#utility.yul\":6095:6163   */\n      tag_111\n      jump\t// in\n    tag_138:\n        /* \"#utility.yul\":5748:6170   */\n      swap5\n      swap4\n      pop\n      pop\n      pop\n      pop\n      jump\t// out\n        /* \"#utility.yul\":6257:6353   */\n    tag_94:\n        /* \"#utility.yul\":6294:6301   */\n      0x00\n        /* \"#utility.yul\":6323:6347   */\n      tag_142\n        /* \"#utility.yul\":6341:6346   */\n      dup3\n        /* \"#utility.yul\":6323:6347   */\n      tag_143\n      jump\t// in\n    tag_142:\n        /* \"#utility.yul\":6312:6347   */\n      swap1\n      pop\n        /* \"#utility.yul\":6257:6353   */\n      swap2\n      swap1\n      pop\n      jump\t// out\n        /* \"#utility.yul\":6359:6449   */\n    tag_98:\n        /* \"#utility.yul\":6393:6400   */\n      0x00\n        /* \"#utility.yul\":6436:6441   */\n      dup2\n        /* \"#utility.yul\":6429:6442   */\n      iszero\n        /* \"#utility.yul\":6422:6443   */\n      iszero\n        /* \"#utility.yul\":6411:6443   */\n      swap1\n      pop\n        /* \"#utility.yul\":6359:6449   */\n      swap2\n      swap1\n      pop\n      jump\t// out\n        /* \"#utility.yul\":6455:6532   */\n    tag_102:\n        /* \"#utility.yul\":6492:6499   */\n      0x00\n        /* \"#utility.yul\":6521:6526   */\n      dup2\n        /* \"#utility.yul\":6510:6526   */\n      swap1\n      pop\n        /* \"#utility.yul\":6455:6532   */\n      swap2\n      swap1\n      pop\n      jump\t// out\n        /* \"#utility.yul\":6538:6665   */\n    tag_146:\n        /* \"#utility.yul\":6583:6590   */\n      0x00\n        /* \"#utility.yul\":6612:6617   */\n      dup2\n        /* \"#utility.yul\":6601:6617   */\n      swap1\n      pop\n        /* \"#utility.yul\":6618:6659   */\n      tag_148\n        /* \"#utility.yul\":6653:6658   */\n      dup3\n        /* \"#utility.yul\":6618:6659   */\n      tag_149\n      jump\t// in\n    tag_148:\n        /* \"#utility.yul\":6538:6665   */\n      swap2\n      swap1\n      pop\n      jump\t// out\n        /* \"#utility.yul\":6671:6760   */\n    tag_110:\n        /* \"#utility.yul\":6707:6714   */\n      0x00\n        /* \"#utility.yul\":6747:6753   */\n      0xffff\n        /* \"#utility.yul\":6740:6745   */\n      dup3\n        /* \"#utility.yul\":6736:6754   */\n      and\n        /* \"#utility.yul\":6725:6754   */\n      swap1\n      pop\n        /* \"#utility.yul\":6671:6760   */\n      swap2\n      swap1\n      pop\n      jump\t// out\n        /* \"#utility.yul\":6766:6892   */\n    tag_143:\n        /* \"#utility.yul\":6803:6810   */\n      0x00\n        /* \"#utility.yul\":6843:6885   */\n      0xffffffffffffffffffffffffffffffffffffffff\n        /* \"#utility.yul\":6836:6841   */\n      dup3\n        /* \"#utility.yul\":6832:6886   */\n      and\n        /* \"#utility.yul\":6821:6886   */\n      swap1\n      pop\n        /* \"#utility.yul\":6766:6892   */\n      swap2\n      swap1\n      pop\n      jump\t// out\n        /* \"#utility.yul\":6898:6984   */\n    tag_114:\n        /* \"#utility.yul\":6933:6940   */\n      0x00\n        /* \"#utility.yul\":6973:6977   */\n      0xff\n        /* \"#utility.yul\":6966:6971   */\n      dup3\n        /* \"#utility.yul\":6962:6978   */\n      and\n        /* \"#utility.yul\":6951:6978   */\n      swap1\n      pop\n        /* \"#utility.yul\":6898:6984   */\n      swap2\n      swap1\n      pop\n      jump\t// out\n        /* \"#utility.yul\":6990:7117   */\n    tag_106:\n        /* \"#utility.yul\":7046:7055   */\n      0x00\n        /* \"#utility.yul\":7079:7111   */\n      tag_154\n        /* \"#utility.yul\":7105:7110   */\n      dup3\n        /* \"#utility.yul\":7079:7111   */\n      tag_146\n      jump\t// in\n    tag_154:\n        /* \"#utility.yul\":7066:7111   */\n      swap1\n      pop\n        /* \"#utility.yul\":6990:7117   */\n      swap2\n      swap1\n      pop\n      jump\t// out\n        /* \"#utility.yul\":7123:7303   */\n    tag_40:\n        /* \"#utility.yul\":7171:7248   */\n      0x4e487b7100000000000000000000000000000000000000000000000000000000\n        /* \"#utility.yul\":7168:7169   */\n      0x00\n        /* \"#utility.yul\":7161:7249   */\n      mstore\n        /* \"#utility.yul\":7268:7272   */\n      0x21\n        /* \"#utility.yul\":7265:7266   */\n      0x04\n        /* \"#utility.yul\":7258:7273   */\n      mstore\n        /* \"#utility.yul\":7292:7296   */\n      0x24\n        /* \"#utility.yul\":7289:7290   */\n      0x00\n        /* \"#utility.yul\":7282:7297   */\n      revert\n        /* \"#utility.yul\":7432:7549   */\n    tag_74:\n        /* \"#utility.yul\":7541:7542   */\n      0x00\n        /* \"#utility.yul\":7538:7539   */\n      dup1\n        /* \"#utility.yul\":7531:7543   */\n      revert\n        /* \"#utility.yul\":7555:7668   */\n    tag_149:\n        /* \"#utility.yul\":7636:7637   */\n      0x04\n        /* \"#utility.yul\":7629:7634   */\n      dup2\n        /* \"#utility.yul\":7626:7638   */\n      lt\n        /* \"#utility.yul\":7616:7662   */\n      tag_160\n      jumpi\n        /* \"#utility.yul\":7642:7660   */\n      tag_161\n      tag_40\n      jump\t// in\n    tag_161:\n        /* \"#utility.yul\":7616:7662   */\n    tag_160:\n        /* \"#utility.yul\":7555:7668   */\n      pop\n      jump\t// out\n        /* \"#utility.yul\":7674:7796   */\n    tag_54:\n        /* \"#utility.yul\":7747:7771   */\n      tag_163\n        /* \"#utility.yul\":7765:7770   */\n      dup2\n        /* \"#utility.yul\":7747:7771   */\n      tag_94\n      jump\t// in\n    tag_163:\n        /* \"#utility.yul\":7740:7745   */\n      dup2\n        /* \"#utility.yul\":7737:7772   */\n      eq\n        /* \"#utility.yul\":7727:7790   */\n      tag_164\n      jumpi\n        /* \"#utility.yul\":7786:7787   */\n      0x00\n        /* \"#utility.yul\":7783:7784   */\n      dup1\n        /* \"#utility.yul\":7776:7788   */\n      revert\n        /* \"#utility.yul\":7727:7790   */\n    tag_164:\n        /* \"#utility.yul\":7674:7796   */\n      pop\n      jump\t// out\n        /* \"#utility.yul\":7802:7924   */\n    tag_58:\n        /* \"#utility.yul\":7875:7899   */\n      tag_166\n        /* \"#utility.yul\":7893:7898   */\n      dup2\n        /* \"#utility.yul\":7875:7899   */\n      tag_102\n      jump\t// in\n    tag_166:\n        /* \"#utility.yul\":7868:7873   */\n      dup2\n        /* \"#utility.yul\":7865:7900   */\n      eq\n        /* \"#utility.yul\":7855:7918   */\n      tag_167\n      jumpi\n        /* \"#utility.yul\":7914:7915   */\n      0x00\n        /* \"#utility.yul\":7911:7912   */\n      dup1\n        /* \"#utility.yul\":7904:7916   */\n      revert\n        /* \"#utility.yul\":7855:7918   */\n    tag_167:\n        /* \"#utility.yul\":7802:7924   */\n      pop\n      jump\t// out\n        /* \"#utility.yul\":7930:8037   */\n    tag_62:\n        /* \"#utility.yul\":8011:8012   */\n      0x04\n        /* \"#utility.yul\":8004:8009   */\n      dup2\n        /* \"#utility.yul\":8001:8013   */\n      lt\n        /* \"#utility.yul\":7991:8031   */\n      tag_169\n      jumpi\n        /* \"#utility.yul\":8027:8028   */\n      0x00\n        /* \"#utility.yul\":8024:8025   */\n      dup1\n        /* \"#utility.yul\":8017:8029   */\n      revert\n        /* \"#utility.yul\":7991:8031   */\n    tag_169:\n        /* \"#utility.yul\":7930:8037   */\n      pop\n      jump\t// out\n        /* \"#utility.yul\":8043:8163   */\n    tag_66:\n        /* \"#utility.yul\":8115:8138   */\n      tag_171\n        /* \"#utility.yul\":8132:8137   */\n      dup2\n        /* \"#utility.yul\":8115:8138   */\n      tag_110\n      jump\t// in\n    tag_171:\n        /* \"#utility.yul\":8108:8113   */\n      dup2\n        /* \"#utility.yul\":8105:8139   */\n      eq\n        /* \"#utility.yul\":8095:8157   */\n      tag_172\n      jumpi\n        /* \"#utility.yul\":8153:8154   */\n      0x00\n        /* \"#utility.yul\":8150:8151   */\n      dup1\n        /* \"#utility.yul\":8143:8155   */\n      revert\n        /* \"#utility.yul\":8095:8157   */\n    tag_172:\n        /* \"#utility.yul\":8043:8163   */\n      pop\n      jump\t// out\n        /* \"#utility.yul\":8169:8287   */\n    tag_70:\n        /* \"#utility.yul\":8240:8262   */\n      tag_174\n        /* \"#utility.yul\":8256:8261   */\n      dup2\n        /* \"#utility.yul\":8240:8262   */\n      tag_114\n      jump\t// in\n    tag_174:\n        /* \"#utility.yul\":8233:8238   */\n      dup2\n        /* \"#utility.yul\":8230:8263   */\n      eq\n        /* \"#utility.yul\":8220:8281   */\n      tag_175\n      jumpi\n        /* \"#utility.yul\":8277:8278   */\n      0x00\n        /* \"#utility.yul\":8274:8275   */\n      dup1\n        /* \"#utility.yul\":8267:8279   */\n      revert\n        /* \"#utility.yul\":8220:8281   */\n    tag_175:\n        /* \"#utility.yul\":8169:8287   */\n      pop\n      jump\t// out\n\n    auxdata: 0xa26469706673582212202ad41e1b97d82065c5646a44b2052c9ca6a5c3e27a9f14f9f02c23f9d052051164736f6c63430008070033\n}\n",
				"bytecode": {
					"linkReferences": {},
					"object": "608060405234801561001057600080fd5b50610a0e806100206000396000f3fe608060405234801561001057600080fd5b50600436106100625760003560e01c806367fa409114610067578063709e85ab146100835780639eaad92a146100b3578063b9730cde146100e8578063c689be0014610118578063f099556014610134575b600080fd5b610081600480360381019061007c9190610617565b610166565b005b61009d600480360381019061009891906105ea565b61031b565b6040516100aa91906107e9565b60405180910390f35b6100cd60048036038101906100c891906105ea565b610374565b6040516100df96959493929190610804565b60405180910390f35b61010260048036038101906100fd91906105ea565b6103f8565b60405161010f91906107e9565b60405180910390f35b610132600480360381019061012d91906106a4565b610450565b005b61014e600480360381019061014991906105ea565b61053d565b60405161015d93929190610865565b60405180910390f35b6040518060c001604052806001151581526020018673ffffffffffffffffffffffffffffffffffffffff1681526020018361ffff1681526020018260038111156101b3576101b2610924565b5b815260200185815260200184815250600160008773ffffffffffffffffffffffffffffffffffffffff1673ffffffffffffffffffffffffffffffffffffffff16815260200190815260200160002060008201518160000160006101000a81548160ff02191690831515021790555060208201518160000160016101000a81548173ffffffffffffffffffffffffffffffffffffffff021916908373ffffffffffffffffffffffffffffffffffffffff16021790555060408201518160000160156101000a81548161ffff021916908361ffff16021790555060608201518160000160176101000a81548160ff021916908360038111156102b6576102b5610924565b5b02179055506080820151816001015560a082015181600201559050507f6dc1a0a09ba153309beebf5a586e7e93c5db73de8c26a7bdffa23337cedcf3e386868686868660405161030b96959493929190610751565b60405180910390a1505050505050565b6000600160008373ffffffffffffffffffffffffffffffffffffffff1673ffffffffffffffffffffffffffffffffffffffff16815260200190815260200160002060000160009054906101000a900460ff169050919050565b60016020528060005260406000206000915090508060000160009054906101000a900460ff16908060000160019054906101000a900473ffffffffffffffffffffffffffffffffffffffff16908060000160159054906101000a900461ffff16908060000160179054906101000a900460ff16908060010154908060020154905086565b60008060008373ffffffffffffffffffffffffffffffffffffffff1673ffffffffffffffffffffffffffffffffffffffff16815260200190815260200160002060000160009054906101000a900460ff169050919050565b60405180606001604052806001151581526020018381526020018260ff168152506000808573ffffffffffffffffffffffffffffffffffffffff1673ffffffffffffffffffffffffffffffffffffffff16815260200190815260200160002060008201518160000160006101000a81548160ff0219169083151502179055506020820151816001015560408201518160020160006101000a81548160ff021916908360ff1602179055509050507fd4a11ef767db8b7fcdab86ce7e33abe922cc29ede58d5de7c01b94d06f9354f7838383604051610530939291906107b2565b60405180910390a1505050565b60006020528060005260406000206000915090508060000160009054906101000a900460ff16908060010154908060020160009054906101000a900460ff16905083565b6000813590506105908161096c565b92915050565b6000813590506105a581610983565b92915050565b6000813590506105ba8161099a565b92915050565b6000813590506105cf816109aa565b92915050565b6000813590506105e4816109c1565b92915050565b600060208284031215610600576105ff610953565b5b600061060e84828501610581565b91505092915050565b60008060008060008060c0878903121561063457610633610953565b5b600061064289828a01610581565b965050602061065389828a01610581565b955050604061066489828a01610596565b945050606061067589828a01610596565b935050608061068689828a016105c0565b92505060a061069789828a016105ab565b9150509295509295509295565b6000806000606084860312156106bd576106bc610953565b5b60006106cb86828701610581565b93505060206106dc86828701610596565b92505060406106ed868287016105d5565b9150509250925092565b6107008161089c565b82525050565b61070f816108ae565b82525050565b61071e816108ba565b82525050565b61072d81610912565b82525050565b61073c816108d7565b82525050565b61074b81610905565b82525050565b600060c08201905061076660008301896106f7565b61077360208301886106f7565b6107806040830187610715565b61078d6060830186610715565b61079a6080830185610733565b6107a760a0830184610724565b979650505050505050565b60006060820190506107c760008301866106f7565b6107d46020830185610715565b6107e16040830184610742565b949350505050565b60006020820190506107fe6000830184610706565b92915050565b600060c0820190506108196000830189610706565b61082660208301886106f7565b6108336040830187610733565b6108406060830186610724565b61084d6080830185610715565b61085a60a0830184610715565b979650505050505050565b600060608201905061087a6000830186610706565b6108876020830185610715565b6108946040830184610742565b949350505050565b60006108a7826108e5565b9050919050565b60008115159050919050565b6000819050919050565b60008190506108d282610958565b919050565b600061ffff82169050919050565b600073ffffffffffffffffffffffffffffffffffffffff82169050919050565b600060ff82169050919050565b600061091d826108c4565b9050919050565b7f4e487b7100000000000000000000000000000000000000000000000000000000600052602160045260246000fd5b600080fd5b6004811061096957610968610924565b5b50565b6109758161089c565b811461098057600080fd5b50565b61098c816108ba565b811461099757600080fd5b50565b600481106109a757600080fd5b50565b6109b3816108d7565b81146109be57600080fd5b50565b6109ca81610905565b81146109d557600080fd5b5056fea26469706673582212202ad41e1b97d82065c5646a44b2052c9ca6a5c3e27a9f14f9f02c23f9d052051164736f6c63430008070033",
					"opcodes": "PUSH1 0x80 PUSH1 0x40 MSTORE CALLVALUE DUP1 ISZERO PUSH2 0x10 JUMPI PUSH1 0x0 DUP1 REVERT JUMPDEST POP PUSH2 0xA0E DUP1 PUSH2 0x20 PUSH1 0x0 CODECOPY PUSH1 0x0 RETURN INVALID PUSH1 0x80 PUSH1 0x40 MSTORE CALLVALUE DUP1 ISZERO PUSH2 0x10 JUMPI PUSH1 0x0 DUP1 REVERT JUMPDEST POP PUSH1 0x4 CALLDATASIZE LT PUSH2 0x62 JUMPI PUSH1 0x0 CALLDATALOAD PUSH1 0xE0 SHR DUP1 PUSH4 0x67FA4091 EQ PUSH2 0x67 JUMPI DUP1 PUSH4 0x709E85AB EQ PUSH2 0x83 JUMPI DUP1 PUSH4 0x9EAAD92A EQ PUSH2 0xB3 JUMPI DUP1 PUSH4 0xB9730CDE EQ PUSH2 0xE8 JUMPI DUP1 PUSH4 0xC689BE00 EQ PUSH2 0x118 JUMPI DUP1 PUSH4 0xF0995560 EQ PUSH2 0x134 JUMPI JUMPDEST PUSH1 0x0 DUP1 REVERT JUMPDEST PUSH2 0x81 PUSH1 0x4 DUP1 CALLDATASIZE SUB DUP2 ADD SWAP1 PUSH2 0x7C SWAP2 SWAP1 PUSH2 0x617 JUMP JUMPDEST PUSH2 0x166 JUMP JUMPDEST STOP JUMPDEST PUSH2 0x9D PUSH1 0x4 DUP1 CALLDATASIZE SUB DUP2 ADD SWAP1 PUSH2 0x98 SWAP2 SWAP1 PUSH2 0x5EA JUMP JUMPDEST PUSH2 0x31B JUMP JUMPDEST PUSH1 0x40 MLOAD PUSH2 0xAA SWAP2 SWAP1 PUSH2 0x7E9 JUMP JUMPDEST PUSH1 0x40 MLOAD DUP1 SWAP2 SUB SWAP1 RETURN JUMPDEST PUSH2 0xCD PUSH1 0x4 DUP1 CALLDATASIZE SUB DUP2 ADD SWAP1 PUSH2 0xC8 SWAP2 SWAP1 PUSH2 0x5EA JUMP JUMPDEST PUSH2 0x374 JUMP JUMPDEST PUSH1 0x40 MLOAD PUSH2 0xDF SWAP7 SWAP6 SWAP5 SWAP4 SWAP3 SWAP2 SWAP1 PUSH2 0x804 JUMP JUMPDEST PUSH1 0x40 MLOAD DUP1 SWAP2 SUB SWAP1 RETURN JUMPDEST PUSH2 0x102 PUSH1 0x4 DUP1 CALLDATASIZE SUB DUP2 ADD SWAP1 PUSH2 0xFD SWAP2 SWAP1 PUSH2 0x5EA JUMP JUMPDEST PUSH2 0x3F8 JUMP JUMPDEST PUSH1 0x40 MLOAD PUSH2 0x10F SWAP2 SWAP1 PUSH2 0x7E9 JUMP JUMPDEST PUSH1 0x40 MLOAD DUP1 SWAP2 SUB SWAP1 RETURN JUMPDEST PUSH2 0x132 PUSH1 0x4 DUP1 CALLDATASIZE SUB DUP2 ADD SWAP1 PUSH2 0x12D SWAP2 SWAP1 PUSH2 0x6A4 JUMP JUMPDEST PUSH2 0x450 JUMP JUMPDEST STOP JUMPDEST PUSH2 0x14E PUSH1 0x4 DUP1 CALLDATASIZE SUB DUP2 ADD SWAP1 PUSH2 0x149 SWAP2 SWAP1 PUSH2 0x5EA JUMP JUMPDEST PUSH2 0x53D JUMP JUMPDEST PUSH1 0x40 MLOAD PUSH2 0x15D SWAP4 SWAP3 SWAP2 SWAP1 PUSH2 0x865 JUMP JUMPDEST PUSH1 0x40 MLOAD DUP1 SWAP2 SUB SWAP1 RETURN JUMPDEST PUSH1 0x40 MLOAD DUP1 PUSH1 0xC0 ADD PUSH1 0x40 MSTORE DUP1 PUSH1 0x1 ISZERO ISZERO DUP2 MSTORE PUSH1 0x20 ADD DUP7 PUSH20 0xFFFFFFFFFFFFFFFFFFFFFFFFFFFFFFFFFFFFFFFF AND DUP2 MSTORE PUSH1 0x20 ADD DUP4 PUSH2 0xFFFF AND DUP2 MSTORE PUSH1 0x20 ADD DUP3 PUSH1 0x3 DUP2 GT ISZERO PUSH2 0x1B3 JUMPI PUSH2 0x1B2 PUSH2 0x924 JUMP JUMPDEST JUMPDEST DUP2 MSTORE PUSH1 0x20 ADD DUP6 DUP2 MSTORE PUSH1 0x20 ADD DUP5 DUP2 MSTORE POP PUSH1 0x1 PUSH1 0x0 DUP8 PUSH20 0xFFFFFFFFFFFFFFFFFFFFFFFFFFFFFFFFFFFFFFFF AND PUSH20 0xFFFFFFFFFFFFFFFFFFFFFFFFFFFFFFFFFFFFFFFF AND DUP2 MSTORE PUSH1 0x20 ADD SWAP1 DUP2 MSTORE PUSH1 0x20 ADD PUSH1 0x0 KECCAK256 PUSH1 0x0 DUP3 ADD MLOAD DUP2 PUSH1 0x0 ADD PUSH1 0x0 PUSH2 0x100 EXP DUP2 SLOAD DUP2 PUSH1 0xFF MUL NOT AND SWAP1 DUP4 ISZERO ISZERO MUL OR SWAP1 SSTORE POP PUSH1 0x20 DUP3 ADD MLOAD DUP2 PUSH1 0x0 ADD PUSH1 0x1 PUSH2 0x100 EXP DUP2 SLOAD DUP2 PUSH20 0xFFFFFFFFFFFFFFFFFFFFFFFFFFFFFFFFFFFFFFFF MUL NOT AND SWAP1 DUP4 PUSH20 0xFFFFFFFFFFFFFFFFFFFFFFFFFFFFFFFFFFFFFFFF AND MUL OR SWAP1 SSTORE POP PUSH1 0x40 DUP3 ADD MLOAD DUP2 PUSH1 0x0 ADD PUSH1 0x15 PUSH2 0x100 EXP DUP2 SLOAD DUP2 PUSH2 0xFFFF MUL NOT AND SWAP1 DUP4 PUSH2 0xFFFF AND MUL OR SWAP1 SSTORE POP PUSH1 0x60 DUP3 ADD MLOAD DUP2 PUSH1 0x0 ADD PUSH1 0x17 PUSH2 0x100 EXP DUP2 SLOAD DUP2 PUSH1 0xFF MUL NOT AND SWAP1 DUP4 PUSH1 0x3 DUP2 GT ISZERO PUSH2 0x2B6 JUMPI PUSH2 0x2B5 PUSH2 0x924 JUMP JUMPDEST JUMPDEST MUL OR SWAP1 SSTORE POP PUSH1 0x80 DUP3 ADD MLOAD DUP2 PUSH1 0x1 ADD SSTORE PUSH1 0xA0 DUP3 ADD MLOAD DUP2 PUSH1 0x2 ADD SSTORE SWAP1 POP POP PUSH32 0x6DC1A0A09BA153309BEEBF5A586E7E93C5DB73DE8C26A7BDFFA23337CEDCF3E3 DUP7 DUP7 DUP7 DUP7 DUP7 DUP7 PUSH1 0x40 MLOAD PUSH2 0x30B SWAP7 SWAP6 SWAP5 SWAP4 SWAP3 SWAP2 SWAP1 PUSH2 0x751 JUMP JUMPDEST PUSH1 0x40 MLOAD DUP1 SWAP2 SUB SWAP1 LOG1 POP POP POP POP POP POP JUMP JUMPDEST PUSH1 0x0 PUSH1 0x1 PUSH1 0x0 DUP4 PUSH20 0xFFFFFFFFFFFFFFFFFFFFFFFFFFFFFFFFFFFFFFFF AND PUSH20 0xFFFFFFFFFFFFFFFFFFFFFFFFFFFFFFFFFFFFFFFF AND DUP2 MSTORE PUSH1 0x20 ADD SWAP1 DUP2 MSTORE PUSH1 0x20 ADD PUSH1 0x0 KECCAK256 PUSH1 0x0 ADD PUSH1 0x0 SWAP1 SLOAD SWAP1 PUSH2 0x100 EXP SWAP1 DIV PUSH1 0xFF AND SWAP1 POP SWAP2 SWAP1 POP JUMP JUMPDEST PUSH1 0x1 PUSH1 0x20 MSTORE DUP1 PUSH1 0x0 MSTORE PUSH1 0x40 PUSH1 0x0 KECCAK256 PUSH1 0x0 SWAP2 POP SWAP1 POP DUP1 PUSH1 0x0 ADD PUSH1 0x0 SWAP1 SLOAD SWAP1 PUSH2 0x100 EXP SWAP1 DIV PUSH1 0xFF AND SWAP1 DUP1 PUSH1 0x0 ADD PUSH1 0x1 SWAP1 SLOAD SWAP1 PUSH2 0x100 EXP SWAP1 DIV PUSH20 0xFFFFFFFFFFFFFFFFFFFFFFFFFFFFFFFFFFFFFFFF AND SWAP1 DUP1 PUSH1 0x0 ADD PUSH1 0x15 SWAP1 SLOAD SWAP1 PUSH2 0x100 EXP SWAP1 DIV PUSH2 0xFFFF AND SWAP1 DUP1 PUSH1 0x0 ADD PUSH1 0x17 SWAP1 SLOAD SWAP1 PUSH2 0x100 EXP SWAP1 DIV PUSH1 0xFF AND SWAP1 DUP1 PUSH1 0x1 ADD SLOAD SWAP1 DUP1 PUSH1 0x2 ADD SLOAD SWAP1 POP DUP7 JUMP JUMPDEST PUSH1 0x0 DUP1 PUSH1 0x0 DUP4 PUSH20 0xFFFFFFFFFFFFFFFFFFFFFFFFFFFFFFFFFFFFFFFF AND PUSH20 0xFFFFFFFFFFFFFFFFFFFFFFFFFFFFFFFFFFFFFFFF AND DUP2 MSTORE PUSH1 0x20 ADD SWAP1 DUP2 MSTORE PUSH1 0x20 ADD PUSH1 0x0 KECCAK256 PUSH1 0x0 ADD PUSH1 0x0 SWAP1 SLOAD SWAP1 PUSH2 0x100 EXP SWAP1 DIV PUSH1 0xFF AND SWAP1 POP SWAP2 SWAP1 POP JUMP JUMPDEST PUSH1 0x40 MLOAD DUP1 PUSH1 0x60 ADD PUSH1 0x40 MSTORE DUP1 PUSH1 0x1 ISZERO ISZERO DUP2 MSTORE PUSH1 0x20 ADD DUP4 DUP2 MSTORE PUSH1 0x20 ADD DUP3 PUSH1 0xFF AND DUP2 MSTORE POP PUSH1 0x0 DUP1 DUP6 PUSH20 0xFFFFFFFFFFFFFFFFFFFFFFFFFFFFFFFFFFFFFFFF AND PUSH20 0xFFFFFFFFFFFFFFFFFFFFFFFFFFFFFFFFFFFFFFFF AND DUP2 MSTORE PUSH1 0x20 ADD SWAP1 DUP2 MSTORE PUSH1 0x20 ADD PUSH1 0x0 KECCAK256 PUSH1 0x0 DUP3 ADD MLOAD DUP2 PUSH1 0x0 ADD PUSH1 0x0 PUSH2 0x100 EXP DUP2 SLOAD DUP2 PUSH1 0xFF MUL NOT AND SWAP1 DUP4 ISZERO ISZERO MUL OR SWAP1 SSTORE POP PUSH1 0x20 DUP3 ADD MLOAD DUP2 PUSH1 0x1 ADD SSTORE PUSH1 0x40 DUP3 ADD MLOAD DUP2 PUSH1 0x2 ADD PUSH1 0x0 PUSH2 0x100 EXP DUP2 SLOAD DUP2 PUSH1 0xFF MUL NOT AND SWAP1 DUP4 PUSH1 0xFF AND MUL OR SWAP1 SSTORE POP SWAP1 POP POP PUSH32 0xD4A11EF767DB8B7FCDAB86CE7E33ABE922CC29EDE58D5DE7C01B94D06F9354F7 DUP4 DUP4 DUP4 PUSH1 0x40 MLOAD PUSH2 0x530 SWAP4 SWAP3 SWAP2 SWAP1 PUSH2 0x7B2 JUMP JUMPDEST PUSH1 0x40 MLOAD DUP1 SWAP2 SUB SWAP1 LOG1 POP POP POP JUMP JUMPDEST PUSH1 0x0 PUSH1 0x20 MSTORE DUP1 PUSH1 0x0 MSTORE PUSH1 0x40 PUSH1 0x0 KECCAK256 PUSH1 0x0 SWAP2 POP SWAP1 POP DUP1 PUSH1 0x0 ADD PUSH1 0x0 SWAP1 SLOAD SWAP1 PUSH2 0x100 EXP SWAP1 DIV PUSH1 0xFF AND SWAP1 DUP1 PUSH1 0x1 ADD SLOAD SWAP1 DUP1 PUSH1 0x2 ADD PUSH1 0x0 SWAP1 SLOAD SWAP1 PUSH2 0x100 EXP SWAP1 DIV PUSH1 0xFF AND SWAP1 POP DUP4 JUMP JUMPDEST PUSH1 0x0 DUP2 CALLDATALOAD SWAP1 POP PUSH2 0x590 DUP2 PUSH2 0x96C JUMP JUMPDEST SWAP3 SWAP2 POP POP JUMP JUMPDEST PUSH1 0x0 DUP2 CALLDATALOAD SWAP1 POP PUSH2 0x5A5 DUP2 PUSH2 0x983 JUMP JUMPDEST SWAP3 SWAP2 POP POP JUMP JUMPDEST PUSH1 0x0 DUP2 CALLDATALOAD SWAP1 POP PUSH2 0x5BA DUP2 PUSH2 0x99A JUMP JUMPDEST SWAP3 SWAP2 POP POP JUMP JUMPDEST PUSH1 0x0 DUP2 CALLDATALOAD SWAP1 POP PUSH2 0x5CF DUP2 PUSH2 0x9AA JUMP JUMPDEST SWAP3 SWAP2 POP POP JUMP JUMPDEST PUSH1 0x0 DUP2 CALLDATALOAD SWAP1 POP PUSH2 0x5E4 DUP2 PUSH2 0x9C1 JUMP JUMPDEST SWAP3 SWAP2 POP POP JUMP JUMPDEST PUSH1 0x0 PUSH1 0x20 DUP3 DUP5 SUB SLT ISZERO PUSH2 0x600 JUMPI PUSH2 0x5FF PUSH2 0x953 JUMP JUMPDEST JUMPDEST PUSH1 0x0 PUSH2 0x60E DUP5 DUP3 DUP6 ADD PUSH2 0x581 JUMP JUMPDEST SWAP2 POP POP SWAP3 SWAP2 POP POP JUMP JUMPDEST PUSH1 0x0 DUP1 PUSH1 0x0 DUP1 PUSH1 0x0 DUP1 PUSH1 0xC0 DUP8 DUP10 SUB SLT ISZERO PUSH2 0x634 JUMPI PUSH2 0x633 PUSH2 0x953 JUMP JUMPDEST JUMPDEST PUSH1 0x0 PUSH2 0x642 DUP10 DUP3 DUP11 ADD PUSH2 0x581 JUMP JUMPDEST SWAP7 POP POP PUSH1 0x20 PUSH2 0x653 DUP10 DUP3 DUP11 ADD PUSH2 0x581 JUMP JUMPDEST SWAP6 POP POP PUSH1 0x40 PUSH2 0x664 DUP10 DUP3 DUP11 ADD PUSH2 0x596 JUMP JUMPDEST SWAP5 POP POP PUSH1 0x60 PUSH2 0x675 DUP10 DUP3 DUP11 ADD PUSH2 0x596 JUMP JUMPDEST SWAP4 POP POP PUSH1 0x80 PUSH2 0x686 DUP10 DUP3 DUP11 ADD PUSH2 0x5C0 JUMP JUMPDEST SWAP3 POP POP PUSH1 0xA0 PUSH2 0x697 DUP10 DUP3 DUP11 ADD PUSH2 0x5AB JUMP JUMPDEST SWAP2 POP POP SWAP3 SWAP6 POP SWAP3 SWAP6 POP SWAP3 SWAP6 JUMP JUMPDEST PUSH1 0x0 DUP1 PUSH1 0x0 PUSH1 0x60 DUP5 DUP7 SUB SLT ISZERO PUSH2 0x6BD JUMPI PUSH2 0x6BC PUSH2 0x953 JUMP JUMPDEST JUMPDEST PUSH1 0x0 PUSH2 0x6CB DUP7 DUP3 DUP8 ADD PUSH2 0x581 JUMP JUMPDEST SWAP4 POP POP PUSH1 0x20 PUSH2 0x6DC DUP7 DUP3 DUP8 ADD PUSH2 0x596 JUMP JUMPDEST SWAP3 POP POP PUSH1 0x40 PUSH2 0x6ED DUP7 DUP3 DUP8 ADD PUSH2 0x5D5 JUMP JUMPDEST SWAP2 POP POP SWAP3 POP SWAP3 POP SWAP3 JUMP JUMPDEST PUSH2 0x700 DUP2 PUSH2 0x89C JUMP JUMPDEST DUP3 MSTORE POP POP JUMP JUMPDEST PUSH2 0x70F DUP2 PUSH2 0x8AE JUMP JUMPDEST DUP3 MSTORE POP POP JUMP JUMPDEST PUSH2 0x71E DUP2 PUSH2 0x8BA JUMP JUMPDEST DUP3 MSTORE POP POP JUMP JUMPDEST PUSH2 0x72D DUP2 PUSH2 0x912 JUMP JUMPDEST DUP3 MSTORE POP POP JUMP JUMPDEST PUSH2 0x73C DUP2 PUSH2 0x8D7 JUMP JUMPDEST DUP3 MSTORE POP POP JUMP JUMPDEST PUSH2 0x74B DUP2 PUSH2 0x905 JUMP JUMPDEST DUP3 MSTORE POP POP JUMP JUMPDEST PUSH1 0x0 PUSH1 0xC0 DUP3 ADD SWAP1 POP PUSH2 0x766 PUSH1 0x0 DUP4 ADD DUP10 PUSH2 0x6F7 JUMP JUMPDEST PUSH2 0x773 PUSH1 0x20 DUP4 ADD DUP9 PUSH2 0x6F7 JUMP JUMPDEST PUSH2 0x780 PUSH1 0x40 DUP4 ADD DUP8 PUSH2 0x715 JUMP JUMPDEST PUSH2 0x78D PUSH1 0x60 DUP4 ADD DUP7 PUSH2 0x715 JUMP JUMPDEST PUSH2 0x79A PUSH1 0x80 DUP4 ADD DUP6 PUSH2 0x733 JUMP JUMPDEST PUSH2 0x7A7 PUSH1 0xA0 DUP4 ADD DUP5 PUSH2 0x724 JUMP JUMPDEST SWAP8 SWAP7 POP POP POP POP POP POP POP JUMP JUMPDEST PUSH1 0x0 PUSH1 0x60 DUP3 ADD SWAP1 POP PUSH2 0x7C7 PUSH1 0x0 DUP4 ADD DUP7 PUSH2 0x6F7 JUMP JUMPDEST PUSH2 0x7D4 PUSH1 0x20 DUP4 ADD DUP6 PUSH2 0x715 JUMP JUMPDEST PUSH2 0x7E1 PUSH1 0x40 DUP4 ADD DUP5 PUSH2 0x742 JUMP JUMPDEST SWAP5 SWAP4 POP POP POP POP JUMP JUMPDEST PUSH1 0x0 PUSH1 0x20 DUP3 ADD SWAP1 POP PUSH2 0x7FE PUSH1 0x0 DUP4 ADD DUP5 PUSH2 0x706 JUMP JUMPDEST SWAP3 SWAP2 POP POP JUMP JUMPDEST PUSH1 0x0 PUSH1 0xC0 DUP3 ADD SWAP1 POP PUSH2 0x819 PUSH1 0x0 DUP4 ADD DUP10 PUSH2 0x706 JUMP JUMPDEST PUSH2 0x826 PUSH1 0x20 DUP4 ADD DUP9 PUSH2 0x6F7 JUMP JUMPDEST PUSH2 0x833 PUSH1 0x40 DUP4 ADD DUP8 PUSH2 0x733 JUMP JUMPDEST PUSH2 0x840 PUSH1 0x60 DUP4 ADD DUP7 PUSH2 0x724 JUMP JUMPDEST PUSH2 0x84D PUSH1 0x80 DUP4 ADD DUP6 PUSH2 0x715 JUMP JUMPDEST PUSH2 0x85A PUSH1 0xA0 DUP4 ADD DUP5 PUSH2 0x715 JUMP JUMPDEST SWAP8 SWAP7 POP POP POP POP POP POP POP JUMP JUMPDEST PUSH1 0x0 PUSH1 0x60 DUP3 ADD SWAP1 POP PUSH2 0x87A PUSH1 0x0 DUP4 ADD DUP7 PUSH2 0x706 JUMP JUMPDEST PUSH2 0x887 PUSH1 0x20 DUP4 ADD DUP6 PUSH2 0x715 JUMP JUMPDEST PUSH2 0x894 PUSH1 0x40 DUP4 ADD DUP5 PUSH2 0x742 JUMP JUMPDEST SWAP5 SWAP4 POP POP POP POP JUMP JUMPDEST PUSH1 0x0 PUSH2 0x8A7 DUP3 PUSH2 0x8E5 JUMP JUMPDEST SWAP1 POP SWAP2 SWAP1 POP JUMP JUMPDEST PUSH1 0x0 DUP2 ISZERO ISZERO SWAP1 POP SWAP2 SWAP1 POP JUMP JUMPDEST PUSH1 0x0 DUP2 SWAP1 POP SWAP2 SWAP1 POP JUMP JUMPDEST PUSH1 0x0 DUP2 SWAP1 POP PUSH2 0x8D2 DUP3 PUSH2 0x958 JUMP JUMPDEST SWAP2 SWAP1 POP JUMP JUMPDEST PUSH1 0x0 PUSH2 0xFFFF DUP3 AND SWAP1 POP SWAP2 SWAP1 POP JUMP JUMPDEST PUSH1 0x0 PUSH20 0xFFFFFFFFFFFFFFFFFFFFFFFFFFFFFFFFFFFFFFFF DUP3 AND SWAP1 POP SWAP2 SWAP1 POP JUMP JUMPDEST PUSH1 0x0 PUSH1 0xFF DUP3 AND SWAP1 POP SWAP2 SWAP1 POP JUMP JUMPDEST PUSH1 0x0 PUSH2 0x91D DUP3 PUSH2 0x8C4 JUMP JUMPDEST SWAP1 POP SWAP2 SWAP1 POP JUMP JUMPDEST PUSH32 0x4E487B7100000000000000000000000000000000000000000000000000000000 PUSH1 0x0 MSTORE PUSH1 0x21 PUSH1 0x4 MSTORE PUSH1 0x24 PUSH1 0x0 REVERT JUMPDEST PUSH1 0x0 DUP1 REVERT JUMPDEST PUSH1 0x4 DUP2 LT PUSH2 0x969 JUMPI PUSH2 0x968 PUSH2 0x924 JUMP JUMPDEST JUMPDEST POP JUMP JUMPDEST PUSH2 0x975 DUP2 PUSH2 0x89C JUMP JUMPDEST DUP2 EQ PUSH2 0x980 JUMPI PUSH1 0x0 DUP1 REVERT JUMPDEST POP JUMP JUMPDEST PUSH2 0x98C DUP2 PUSH2 0x8BA JUMP JUMPDEST DUP2 EQ PUSH2 0x997 JUMPI PUSH1 0x0 DUP1 REVERT JUMPDEST POP JUMP JUMPDEST PUSH1 0x4 DUP2 LT PUSH2 0x9A7 JUMPI PUSH1 0x0 DUP1 REVERT JUMPDEST POP JUMP JUMPDEST PUSH2 0x9B3 DUP2 PUSH2 0x8D7 JUMP JUMPDEST DUP2 EQ PUSH2 0x9BE JUMPI PUSH1 0x0 DUP1 REVERT JUMPDEST POP JUMP JUMPDEST PUSH2 0x9CA DUP2 PUSH2 0x905 JUMP JUMPDEST DUP2 EQ PUSH2 0x9D5 JUMPI PUSH1 0x0 DUP1 REVERT JUMPDEST POP JUMP INVALID LOG2 PUSH5 0x6970667358 0x22 SLT KECCAK256 0x2A 0xD4 0x1E SHL SWAP8 0xD8 KECCAK256 PUSH6 0xC5646A44B205 0x2C SWAP13 0xA6 0xA5 0xC3 0xE2 PUSH27 0x9F14F9F02C23F9D052051164736F6C634300080700330000000000 "
				},
				"gasEstimates": {
					"creation": {
						"codeDepositCost": "514800",
						"executionCost": "549",
						"totalCost": "515349"
					},
					"external": {
						"academicians(address)": "infinite",
						"addAcademician(address,address,bytes32,bytes32,uint16,uint8)": "infinite",
						"addUniversite(address,bytes32,uint8)": "infinite",
						"isAcademician(address)": "2889",
						"isUniversity(address)": "2933",
						"universities(address)": "7424"
					}
				},
				"methodIdentifiers": {
					"academicians(address)": "9eaad92a",
					"addAcademician(address,address,bytes32,bytes32,uint16,uint8)": "67fa4091",
					"addUniversite(address,bytes32,uint8)": "c689be00",
					"isAcademician(address)": "709e85ab",
					"isUniversity(address)": "b9730cde",
					"universities(address)": "f0995560"
				}
			},
			"storageLayout": {
				"storage": [
					{
						"astId": 94,
						"contract": "contracts/EgitimBilgileri.sol:EgitimBilgileri",
						"label": "universities",
						"offset": 0,
						"slot": "0",
						"type": "t_mapping(t_address,t_struct(Universite)70_storage)"
					},
					{
						"astId": 99,
						"contract": "contracts/EgitimBilgileri.sol:EgitimBilgileri",
						"label": "academicians",
						"offset": 0,
						"slot": "1",
						"type": "t_mapping(t_address,t_struct(Akademisyen)84_storage)"
					}
				],
				"types": {
					"t_address": {
						"encoding": "inplace",
						"label": "address",
						"numberOfBytes": "20"
					},
					"t_bool": {
						"encoding": "inplace",
						"label": "bool",
						"numberOfBytes": "1"
					},
					"t_bytes32": {
						"encoding": "inplace",
						"label": "bytes32",
						"numberOfBytes": "32"
					},
					"t_enum(Unvan)89": {
						"encoding": "inplace",
						"label": "enum EgitimBilgileri.Unvan",
						"numberOfBytes": "1"
					},
					"t_mapping(t_address,t_struct(Akademisyen)84_storage)": {
						"encoding": "mapping",
						"key": "t_address",
						"label": "mapping(address => struct EgitimBilgileri.Akademisyen)",
						"numberOfBytes": "32",
						"value": "t_struct(Akademisyen)84_storage"
					},
					"t_mapping(t_address,t_struct(Universite)70_storage)": {
						"encoding": "mapping",
						"key": "t_address",
						"label": "mapping(address => struct EgitimBilgileri.Universite)",
						"numberOfBytes": "32",
						"value": "t_struct(Universite)70_storage"
					},
					"t_struct(Akademisyen)84_storage": {
						"encoding": "inplace",
						"label": "struct EgitimBilgileri.Akademisyen",
						"members": [
							{
								"astId": 72,
								"contract": "contracts/EgitimBilgileri.sol:EgitimBilgileri",
								"label": "durum",
								"offset": 0,
								"slot": "0",
								"type": "t_bool"
							},
							{
								"astId": 74,
								"contract": "contracts/EgitimBilgileri.sol:EgitimBilgileri",
								"label": "universite",
								"offset": 1,
								"slot": "0",
								"type": "t_address"
							},
							{
								"astId": 76,
								"contract": "contracts/EgitimBilgileri.sol:EgitimBilgileri",
								"label": "bolum",
								"offset": 21,
								"slot": "0",
								"type": "t_uint16"
							},
							{
								"astId": 79,
								"contract": "contracts/EgitimBilgileri.sol:EgitimBilgileri",
								"label": "unvan",
								"offset": 23,
								"slot": "0",
								"type": "t_enum(Unvan)89"
							},
							{
								"astId": 81,
								"contract": "contracts/EgitimBilgileri.sol:EgitimBilgileri",
								"label": "name",
								"offset": 0,
								"slot": "1",
								"type": "t_bytes32"
							},
							{
								"astId": 83,
								"contract": "contracts/EgitimBilgileri.sol:EgitimBilgileri",
								"label": "surname",
								"offset": 0,
								"slot": "2",
								"type": "t_bytes32"
							}
						],
						"numberOfBytes": "96"
					},
					"t_struct(Universite)70_storage": {
						"encoding": "inplace",
						"label": "struct EgitimBilgileri.Universite",
						"members": [
							{
								"astId": 65,
								"contract": "contracts/EgitimBilgileri.sol:EgitimBilgileri",
								"label": "durum",
								"offset": 0,
								"slot": "0",
								"type": "t_bool"
							},
							{
								"astId": 67,
								"contract": "contracts/EgitimBilgileri.sol:EgitimBilgileri",
								"label": "isim",
								"offset": 0,
								"slot": "1",
								"type": "t_bytes32"
							},
							{
								"astId": 69,
								"contract": "contracts/EgitimBilgileri.sol:EgitimBilgileri",
								"label": "ulke",
								"offset": 0,
								"slot": "2",
								"type": "t_uint8"
							}
						],
						"numberOfBytes": "96"
					},
					"t_uint16": {
						"encoding": "inplace",
						"label": "uint16",
						"numberOfBytes": "2"
					},
					"t_uint8": {
						"encoding": "inplace",
						"label": "uint8",
						"numberOfBytes": "1"
					}
				}
			},
			"userdoc": {
				"kind": "user",
				"methods": {},
				"version": 1
			}
		}
	}
}