{
	"contracts/EgitimBilgileri.sol": {
		"EgitimBilgileri": {
			"abi": [
				{
					"anonymous": false,
					"inputs": [
						{
							"indexed": false,
							"internalType": "uint256",
							"name": "id",
							"type": "uint256"
						},
						{
							"indexed": false,
							"internalType": "address",
							"name": "_universite",
							"type": "address"
						},
						{
							"indexed": false,
							"internalType": "uint256",
							"name": "basTarih",
							"type": "uint256"
						},
						{
							"indexed": false,
							"internalType": "uint256",
							"name": "bitTarih",
							"type": "uint256"
						}
					],
					"name": "EgitimBilgiEklendiLog",
					"type": "event"
				},
				{
					"anonymous": false,
					"inputs": [
						{
							"indexed": false,
							"internalType": "uint256",
							"name": "id",
							"type": "uint256"
						},
						{
							"indexed": false,
							"internalType": "address",
							"name": "_universite",
							"type": "address"
						},
						{
							"indexed": false,
							"internalType": "uint256",
							"name": "basTarih",
							"type": "uint256"
						},
						{
							"indexed": false,
							"internalType": "uint256",
							"name": "bitTarih",
							"type": "uint256"
						}
					],
					"name": "EgitimBilgiGuncellendiLog",
					"type": "event"
				},
				{
					"inputs": [
						{
							"internalType": "address",
							"name": "",
							"type": "address"
						}
					],
					"name": "akademisyenler",
					"outputs": [
						{
							"internalType": "bool",
							"name": "durum",
							"type": "bool"
						},
						{
							"internalType": "address",
							"name": "universite",
							"type": "address"
						},
						{
							"internalType": "uint16",
							"name": "bolum",
							"type": "uint16"
						},
						{
							"internalType": "enum BaseContract.Unvan",
							"name": "unvan",
							"type": "uint8"
						},
						{
							"internalType": "string",
							"name": "ad",
							"type": "string"
						},
						{
							"internalType": "string",
							"name": "soyad",
							"type": "string"
						}
					],
					"stateMutability": "view",
					"type": "function"
				},
				{
					"inputs": [
						{
							"internalType": "uint32",
							"name": "",
							"type": "uint32"
						}
					],
					"name": "diller",
					"outputs": [
						{
							"internalType": "uint32",
							"name": "id",
							"type": "uint32"
						},
						{
							"internalType": "string",
							"name": "isim",
							"type": "string"
						}
					],
					"stateMutability": "view",
					"type": "function"
				},
				{
					"inputs": [
						{
							"internalType": "address",
							"name": "",
							"type": "address"
						},
						{
							"internalType": "uint256",
							"name": "",
							"type": "uint256"
						}
					],
					"name": "egitimBilgileri",
					"outputs": [
						{
							"internalType": "uint256",
							"name": "id",
							"type": "uint256"
						},
						{
							"internalType": "enum EgitimBilgileri.EgitimDurumu",
							"name": "egitimDurumu",
							"type": "uint8"
						},
						{
							"internalType": "uint256",
							"name": "basTarih",
							"type": "uint256"
						},
						{
							"internalType": "uint256",
							"name": "bitTarih",
							"type": "uint256"
						},
						{
							"internalType": "uint8",
							"name": "diplomaNotu",
							"type": "uint8"
						},
						{
							"internalType": "bytes32",
							"name": "diplomaBelge",
							"type": "bytes32"
						},
						{
							"internalType": "bytes32",
							"name": "transcriptBelge",
							"type": "bytes32"
						},
						{
							"internalType": "address",
							"name": "universite",
							"type": "address"
						},
						{
							"internalType": "uint16",
							"name": "fakulte",
							"type": "uint16"
						},
						{
							"internalType": "uint16",
							"name": "bolum",
							"type": "uint16"
						},
						{
							"internalType": "enum EgitimBilgileri.OgretimTipi",
							"name": "ogretimTipi",
							"type": "uint8"
						},
						{
							"internalType": "uint32",
							"name": "ogretimDili",
							"type": "uint32"
						}
					],
					"stateMutability": "view",
					"type": "function"
				},
				{
					"inputs": [
						{
							"internalType": "address",
							"name": "_kisiAddress",
							"type": "address"
						},
						{
							"components": [
								{
									"internalType": "uint256",
									"name": "id",
									"type": "uint256"
								},
								{
									"internalType": "enum EgitimBilgileri.EgitimDurumu",
									"name": "egitimDurumu",
									"type": "uint8"
								},
								{
									"internalType": "uint256",
									"name": "basTarih",
									"type": "uint256"
								},
								{
									"internalType": "uint256",
									"name": "bitTarih",
									"type": "uint256"
								},
								{
									"internalType": "uint8",
									"name": "diplomaNotu",
									"type": "uint8"
								},
								{
									"internalType": "bytes32",
									"name": "diplomaBelge",
									"type": "bytes32"
								},
								{
									"internalType": "bytes32",
									"name": "transcriptBelge",
									"type": "bytes32"
								},
								{
									"internalType": "address",
									"name": "universite",
									"type": "address"
								},
								{
									"internalType": "uint16",
									"name": "fakulte",
									"type": "uint16"
								},
								{
									"internalType": "uint16",
									"name": "bolum",
									"type": "uint16"
								},
								{
									"internalType": "enum EgitimBilgileri.OgretimTipi",
									"name": "ogretimTipi",
									"type": "uint8"
								},
								{
									"internalType": "uint32",
									"name": "ogretimDili",
									"type": "uint32"
								}
							],
							"internalType": "struct EgitimBilgileri.EgitimBilgi",
							"name": "_egitimBilgi",
							"type": "tuple"
						}
					],
					"name": "ekleEgitimBilgi",
					"outputs": [],
					"stateMutability": "nonpayable",
					"type": "function"
				},
				{
					"inputs": [
						{
							"internalType": "address",
							"name": "",
							"type": "address"
						}
					],
					"name": "firmalar",
					"outputs": [
						{
							"internalType": "bool",
							"name": "durum",
							"type": "bool"
						},
						{
							"internalType": "uint8",
							"name": "ulke",
							"type": "uint8"
						},
						{
							"internalType": "uint256",
							"name": "vergiNo",
							"type": "uint256"
						},
						{
							"internalType": "string",
							"name": "isim",
							"type": "string"
						}
					],
					"stateMutability": "view",
					"type": "function"
				},
				{
					"inputs": [
						{
							"internalType": "address",
							"name": "_kisiAddress",
							"type": "address"
						},
						{
							"components": [
								{
									"internalType": "uint256",
									"name": "id",
									"type": "uint256"
								},
								{
									"internalType": "enum EgitimBilgileri.EgitimDurumu",
									"name": "egitimDurumu",
									"type": "uint8"
								},
								{
									"internalType": "uint256",
									"name": "basTarih",
									"type": "uint256"
								},
								{
									"internalType": "uint256",
									"name": "bitTarih",
									"type": "uint256"
								},
								{
									"internalType": "uint8",
									"name": "diplomaNotu",
									"type": "uint8"
								},
								{
									"internalType": "bytes32",
									"name": "diplomaBelge",
									"type": "bytes32"
								},
								{
									"internalType": "bytes32",
									"name": "transcriptBelge",
									"type": "bytes32"
								},
								{
									"internalType": "address",
									"name": "universite",
									"type": "address"
								},
								{
									"internalType": "uint16",
									"name": "fakulte",
									"type": "uint16"
								},
								{
									"internalType": "uint16",
									"name": "bolum",
									"type": "uint16"
								},
								{
									"internalType": "enum EgitimBilgileri.OgretimTipi",
									"name": "ogretimTipi",
									"type": "uint8"
								},
								{
									"internalType": "uint32",
									"name": "ogretimDili",
									"type": "uint32"
								}
							],
							"internalType": "struct EgitimBilgileri.EgitimBilgi",
							"name": "_egitimBilgi",
							"type": "tuple"
						}
					],
					"name": "guncelleEgitimBilgi",
					"outputs": [
						{
							"internalType": "uint256",
							"name": "",
							"type": "uint256"
						}
					],
					"stateMutability": "nonpayable",
					"type": "function"
				},
				{
					"inputs": [],
					"name": "id",
					"outputs": [
						{
							"internalType": "uint256",
							"name": "",
							"type": "uint256"
						}
					],
					"stateMutability": "view",
					"type": "function"
				},
				{
					"inputs": [
						{
							"internalType": "address",
							"name": "",
							"type": "address"
						}
					],
					"name": "kamuKurumlari",
					"outputs": [
						{
							"internalType": "bool",
							"name": "durum",
							"type": "bool"
						},
						{
							"internalType": "string",
							"name": "isim",
							"type": "string"
						},
						{
							"internalType": "uint8",
							"name": "ulke",
							"type": "uint8"
						}
					],
					"stateMutability": "view",
					"type": "function"
				},
				{
					"inputs": [
						{
							"internalType": "address",
							"name": "",
							"type": "address"
						}
					],
					"name": "kisiler",
					"outputs": [
						{
							"internalType": "bool",
							"name": "durum",
							"type": "bool"
						}
					],
					"stateMutability": "view",
					"type": "function"
				},
				{
					"inputs": [
						{
							"internalType": "address",
							"name": "",
							"type": "address"
						}
					],
					"name": "kurslar",
					"outputs": [
						{
							"internalType": "bool",
							"name": "durum",
							"type": "bool"
						},
						{
							"internalType": "string",
							"name": "isim",
							"type": "string"
						},
						{
							"internalType": "uint8",
							"name": "ulke",
							"type": "uint8"
						}
					],
					"stateMutability": "view",
					"type": "function"
				},
				{
					"inputs": [
						{
							"internalType": "address",
							"name": "",
							"type": "address"
						}
					],
					"name": "sertifikaMerkezleri",
					"outputs": [
						{
							"internalType": "bool",
							"name": "durum",
							"type": "bool"
						},
						{
							"internalType": "string",
							"name": "isim",
							"type": "string"
						},
						{
							"internalType": "uint8",
							"name": "ulke",
							"type": "uint8"
						}
					],
					"stateMutability": "view",
					"type": "function"
				},
				{
					"inputs": [
						{
							"internalType": "address",
							"name": "",
							"type": "address"
						}
					],
					"name": "stklar",
					"outputs": [
						{
							"internalType": "bool",
							"name": "durum",
							"type": "bool"
						},
						{
							"internalType": "string",
							"name": "isim",
							"type": "string"
						},
						{
							"internalType": "uint8",
							"name": "ulke",
							"type": "uint8"
						}
					],
					"stateMutability": "view",
					"type": "function"
				},
				{
					"inputs": [
						{
							"internalType": "address",
							"name": "",
							"type": "address"
						}
					],
					"name": "universiteler",
					"outputs": [
						{
							"internalType": "bool",
							"name": "durum",
							"type": "bool"
						},
						{
							"internalType": "string",
							"name": "isim",
							"type": "string"
						},
						{
							"internalType": "uint8",
							"name": "ulke",
							"type": "uint8"
						}
					],
					"stateMutability": "view",
					"type": "function"
				}
			],
			"devdoc": {
				"kind": "dev",
				"methods": {},
				"version": 1
			},
			"evm": {
				"assembly": "    /* \"contracts/EgitimBilgileri.sol\":137:4394  contract EgitimBilgileri is BaseContract{\r... */\n  mstore(0x40, 0x80)\n  callvalue\n  dup1\n  iszero\n  tag_1\n  jumpi\n  0x00\n  dup1\n  revert\ntag_1:\n  pop\n  dataSize(sub_0)\n  dup1\n  dataOffset(sub_0)\n  0x00\n  codecopy\n  0x00\n  return\nstop\n\nsub_0: assembly {\n        /* \"contracts/EgitimBilgileri.sol\":137:4394  contract EgitimBilgileri is BaseContract{\r... */\n      mstore(0x40, 0x80)\n      callvalue\n      dup1\n      iszero\n      tag_1\n      jumpi\n      0x00\n      dup1\n      revert\n    tag_1:\n      pop\n      jumpi(tag_2, lt(calldatasize, 0x04))\n      shr(0xe0, calldataload(0x00))\n      dup1\n      0x7d0fa287\n      gt\n      tag_16\n      jumpi\n      dup1\n      0xa4e7ae05\n      gt\n      tag_17\n      jumpi\n      dup1\n      0xa4e7ae05\n      eq\n      tag_12\n      jumpi\n      dup1\n      0xaf640d0f\n      eq\n      tag_13\n      jumpi\n      dup1\n      0xba479b7e\n      eq\n      tag_14\n      jumpi\n      dup1\n      0xcbc92809\n      eq\n      tag_15\n      jumpi\n      jump(tag_2)\n    tag_17:\n      dup1\n      0x7d0fa287\n      eq\n      tag_9\n      jumpi\n      dup1\n      0x80fc1fd4\n      eq\n      tag_10\n      jumpi\n      dup1\n      0x9a8c9119\n      eq\n      tag_11\n      jumpi\n      jump(tag_2)\n    tag_16:\n      dup1\n      0x1916e139\n      eq\n      tag_3\n      jumpi\n      dup1\n      0x28266697\n      eq\n      tag_4\n      jumpi\n      dup1\n      0x2fe34736\n      eq\n      tag_5\n      jumpi\n      dup1\n      0x356b1f1e\n      eq\n      tag_6\n      jumpi\n      dup1\n      0x39987f94\n      eq\n      tag_7\n      jumpi\n      dup1\n      0x43d33527\n      eq\n      tag_8\n      jumpi\n    tag_2:\n      0x00\n      dup1\n      revert\n        /* \"contracts/BaseContract.sol\":2731:2769  mapping(address=>Kurs) public  kurslar */\n    tag_3:\n      tag_18\n      0x04\n      dup1\n      calldatasize\n      sub\n      dup2\n      add\n      swap1\n      tag_19\n      swap2\n      swap1\n      tag_20\n      jump\t// in\n    tag_19:\n      tag_21\n      jump\t// in\n    tag_18:\n      mload(0x40)\n      tag_22\n      swap4\n      swap3\n      swap2\n      swap1\n      tag_23\n      jump\t// in\n    tag_22:\n      mload(0x40)\n      dup1\n      swap2\n      sub\n      swap1\n      return\n        /* \"contracts/BaseContract.sol\":2570:2619  mapping(address=>Universite) public universiteler */\n    tag_4:\n      tag_24\n      0x04\n      dup1\n      calldatasize\n      sub\n      dup2\n      add\n      swap1\n      tag_25\n      swap2\n      swap1\n      tag_20\n      jump\t// in\n    tag_25:\n      tag_26\n      jump\t// in\n    tag_24:\n      mload(0x40)\n      tag_27\n      swap4\n      swap3\n      swap2\n      swap1\n      tag_23\n      jump\t// in\n    tag_27:\n      mload(0x40)\n      dup1\n      swap2\n      sub\n      swap1\n      return\n        /* \"contracts/EgitimBilgileri.sol\":944:1011  mapping(address=>mapping(uint=>EgitimBilgi)) public egitimBilgileri */\n    tag_5:\n      tag_28\n      0x04\n      dup1\n      calldatasize\n      sub\n      dup2\n      add\n      swap1\n      tag_29\n      swap2\n      swap1\n      tag_30\n      jump\t// in\n    tag_29:\n      tag_31\n      jump\t// in\n    tag_28:\n      mload(0x40)\n      tag_32\n      swap13\n      swap12\n      swap11\n      swap10\n      swap9\n      swap8\n      swap7\n      swap6\n      swap5\n      swap4\n      swap3\n      swap2\n      swap1\n      tag_33\n      jump\t// in\n    tag_32:\n      mload(0x40)\n      dup1\n      swap2\n      sub\n      swap1\n      return\n        /* \"contracts/BaseContract.sol\":2874:2935  mapping(address=>SertifikaMerkezi) public sertifikaMerkezleri */\n    tag_6:\n      tag_34\n      0x04\n      dup1\n      calldatasize\n      sub\n      dup2\n      add\n      swap1\n      tag_35\n      swap2\n      swap1\n      tag_20\n      jump\t// in\n    tag_35:\n      tag_36\n      jump\t// in\n    tag_34:\n      mload(0x40)\n      tag_37\n      swap4\n      swap3\n      swap2\n      swap1\n      tag_23\n      jump\t// in\n    tag_37:\n      mload(0x40)\n      dup1\n      swap2\n      sub\n      swap1\n      return\n        /* \"contracts/BaseContract.sol\":2684:2724  mapping(address=>Firma) public  firmalar */\n    tag_7:\n      tag_38\n      0x04\n      dup1\n      calldatasize\n      sub\n      dup2\n      add\n      swap1\n      tag_39\n      swap2\n      swap1\n      tag_20\n      jump\t// in\n    tag_39:\n      tag_40\n      jump\t// in\n    tag_38:\n      mload(0x40)\n      tag_41\n      swap5\n      swap4\n      swap3\n      swap2\n      swap1\n      tag_42\n      jump\t// in\n    tag_41:\n      mload(0x40)\n      dup1\n      swap2\n      sub\n      swap1\n      return\n        /* \"contracts/EgitimBilgileri.sol\":1239:2720  function ekleEgitimBilgi(address _kisiAddress, EgitimBilgi memory _egitimBilgi)  public sadeceUniversite{\r... */\n    tag_8:\n      tag_43\n      0x04\n      dup1\n      calldatasize\n      sub\n      dup2\n      add\n      swap1\n      tag_44\n      swap2\n      swap1\n      tag_45\n      jump\t// in\n    tag_44:\n      tag_46\n      jump\t// in\n    tag_43:\n      stop\n        /* \"contracts/BaseContract.sol\":2776:2825  mapping(address=>KamuKurumu) public kamuKurumlari */\n    tag_9:\n      tag_47\n      0x04\n      dup1\n      calldatasize\n      sub\n      dup2\n      add\n      swap1\n      tag_48\n      swap2\n      swap1\n      tag_20\n      jump\t// in\n    tag_48:\n      tag_49\n      jump\t// in\n    tag_47:\n      mload(0x40)\n      tag_50\n      swap4\n      swap3\n      swap2\n      swap1\n      tag_23\n      jump\t// in\n    tag_50:\n      mload(0x40)\n      dup1\n      swap2\n      sub\n      swap1\n      return\n        /* \"contracts/EgitimBilgileri.sol\":2729:4384  function guncelleEgitimBilgi(address _kisiAddress, EgitimBilgi memory _egitimBilgi)  public sadeceUniversite returns(uint){\r... */\n    tag_10:\n      tag_51\n      0x04\n      dup1\n      calldatasize\n      sub\n      dup2\n      add\n      swap1\n      tag_52\n      swap2\n      swap1\n      tag_45\n      jump\t// in\n    tag_52:\n      tag_53\n      jump\t// in\n    tag_51:\n      mload(0x40)\n      tag_54\n      swap2\n      swap1\n      tag_55\n      jump\t// in\n    tag_54:\n      mload(0x40)\n      dup1\n      swap2\n      sub\n      swap1\n      return\n        /* \"contracts/BaseContract.sol\":2832:2867  mapping(address=>STK) public stklar */\n    tag_11:\n      tag_56\n      0x04\n      dup1\n      calldatasize\n      sub\n      dup2\n      add\n      swap1\n      tag_57\n      swap2\n      swap1\n      tag_20\n      jump\t// in\n    tag_57:\n      tag_58\n      jump\t// in\n    tag_56:\n      mload(0x40)\n      tag_59\n      swap4\n      swap3\n      swap2\n      swap1\n      tag_23\n      jump\t// in\n    tag_59:\n      mload(0x40)\n      dup1\n      swap2\n      sub\n      swap1\n      return\n        /* \"contracts/BaseContract.sol\":2945:2986  mapping(uint32=>YabanciDil) public diller */\n    tag_12:\n      tag_60\n      0x04\n      dup1\n      calldatasize\n      sub\n      dup2\n      add\n      swap1\n      tag_61\n      swap2\n      swap1\n      tag_62\n      jump\t// in\n    tag_61:\n      tag_63\n      jump\t// in\n    tag_60:\n      mload(0x40)\n      tag_64\n      swap3\n      swap2\n      swap1\n      tag_65\n      jump\t// in\n    tag_64:\n      mload(0x40)\n      dup1\n      swap2\n      sub\n      swap1\n      return\n        /* \"contracts/EgitimBilgileri.sol\":182:196  uint public id */\n    tag_13:\n      tag_66\n      tag_67\n      jump\t// in\n    tag_66:\n      mload(0x40)\n      tag_68\n      swap2\n      swap1\n      tag_55\n      jump\t// in\n    tag_68:\n      mload(0x40)\n      dup1\n      swap2\n      sub\n      swap1\n      return\n        /* \"contracts/BaseContract.sol\":2626:2677  mapping(address=>Akademisyen) public akademisyenler */\n    tag_14:\n      tag_69\n      0x04\n      dup1\n      calldatasize\n      sub\n      dup2\n      add\n      swap1\n      tag_70\n      swap2\n      swap1\n      tag_20\n      jump\t// in\n    tag_70:\n      tag_71\n      jump\t// in\n    tag_69:\n      mload(0x40)\n      tag_72\n      swap7\n      swap6\n      swap5\n      swap4\n      swap3\n      swap2\n      swap1\n      tag_73\n      jump\t// in\n    tag_72:\n      mload(0x40)\n      dup1\n      swap2\n      sub\n      swap1\n      return\n        /* \"contracts/BaseContract.sol\":2526:2563  mapping(address=>Kisi) public kisiler */\n    tag_15:\n      tag_74\n      0x04\n      dup1\n      calldatasize\n      sub\n      dup2\n      add\n      swap1\n      tag_75\n      swap2\n      swap1\n      tag_20\n      jump\t// in\n    tag_75:\n      tag_76\n      jump\t// in\n    tag_74:\n      mload(0x40)\n      tag_77\n      swap2\n      swap1\n      tag_78\n      jump\t// in\n    tag_77:\n      mload(0x40)\n      dup1\n      swap2\n      sub\n      swap1\n      return\n        /* \"contracts/BaseContract.sol\":2731:2769  mapping(address=>Kurs) public  kurslar */\n    tag_21:\n      mstore(0x20, 0x07)\n      dup1\n      0x00\n      mstore\n      keccak256(0x00, 0x40)\n      0x00\n      swap2\n      pop\n      swap1\n      pop\n      dup1\n      0x00\n      add\n      0x00\n      swap1\n      sload\n      swap1\n      0x0100\n      exp\n      swap1\n      div\n      0xff\n      and\n      swap1\n      dup1\n      0x01\n      add\n      dup1\n      sload\n      tag_79\n      swap1\n      tag_80\n      jump\t// in\n    tag_79:\n      dup1\n      0x1f\n      add\n      0x20\n      dup1\n      swap2\n      div\n      mul\n      0x20\n      add\n      mload(0x40)\n      swap1\n      dup2\n      add\n      0x40\n      mstore\n      dup1\n      swap3\n      swap2\n      swap1\n      dup2\n      dup2\n      mstore\n      0x20\n      add\n      dup3\n      dup1\n      sload\n      tag_81\n      swap1\n      tag_80\n      jump\t// in\n    tag_81:\n      dup1\n      iszero\n      tag_82\n      jumpi\n      dup1\n      0x1f\n      lt\n      tag_83\n      jumpi\n      0x0100\n      dup1\n      dup4\n      sload\n      div\n      mul\n      dup4\n      mstore\n      swap2\n      0x20\n      add\n      swap2\n      jump(tag_82)\n    tag_83:\n      dup3\n      add\n      swap2\n      swap1\n      0x00\n      mstore\n      keccak256(0x00, 0x20)\n      swap1\n    tag_84:\n      dup2\n      sload\n      dup2\n      mstore\n      swap1\n      0x01\n      add\n      swap1\n      0x20\n      add\n      dup1\n      dup4\n      gt\n      tag_84\n      jumpi\n      dup3\n      swap1\n      sub\n      0x1f\n      and\n      dup3\n      add\n      swap2\n    tag_82:\n      pop\n      pop\n      pop\n      pop\n      pop\n      swap1\n      dup1\n      0x02\n      add\n      0x00\n      swap1\n      sload\n      swap1\n      0x0100\n      exp\n      swap1\n      div\n      0xff\n      and\n      swap1\n      pop\n      dup4\n      jump\t// out\n        /* \"contracts/BaseContract.sol\":2570:2619  mapping(address=>Universite) public universiteler */\n    tag_26:\n      mstore(0x20, 0x04)\n      dup1\n      0x00\n      mstore\n      keccak256(0x00, 0x40)\n      0x00\n      swap2\n      pop\n      swap1\n      pop\n      dup1\n      0x00\n      add\n      0x00\n      swap1\n      sload\n      swap1\n      0x0100\n      exp\n      swap1\n      div\n      0xff\n      and\n      swap1\n      dup1\n      0x01\n      add\n      dup1\n      sload\n      tag_85\n      swap1\n      tag_80\n      jump\t// in\n    tag_85:\n      dup1\n      0x1f\n      add\n      0x20\n      dup1\n      swap2\n      div\n      mul\n      0x20\n      add\n      mload(0x40)\n      swap1\n      dup2\n      add\n      0x40\n      mstore\n      dup1\n      swap3\n      swap2\n      swap1\n      dup2\n      dup2\n      mstore\n      0x20\n      add\n      dup3\n      dup1\n      sload\n      tag_86\n      swap1\n      tag_80\n      jump\t// in\n    tag_86:\n      dup1\n      iszero\n      tag_87\n      jumpi\n      dup1\n      0x1f\n      lt\n      tag_88\n      jumpi\n      0x0100\n      dup1\n      dup4\n      sload\n      div\n      mul\n      dup4\n      mstore\n      swap2\n      0x20\n      add\n      swap2\n      jump(tag_87)\n    tag_88:\n      dup3\n      add\n      swap2\n      swap1\n      0x00\n      mstore\n      keccak256(0x00, 0x20)\n      swap1\n    tag_89:\n      dup2\n      sload\n      dup2\n      mstore\n      swap1\n      0x01\n      add\n      swap1\n      0x20\n      add\n      dup1\n      dup4\n      gt\n      tag_89\n      jumpi\n      dup3\n      swap1\n      sub\n      0x1f\n      and\n      dup3\n      add\n      swap2\n    tag_87:\n      pop\n      pop\n      pop\n      pop\n      pop\n      swap1\n      dup1\n      0x02\n      add\n      0x00\n      swap1\n      sload\n      swap1\n      0x0100\n      exp\n      swap1\n      div\n      0xff\n      and\n      swap1\n      pop\n      dup4\n      jump\t// out\n        /* \"contracts/EgitimBilgileri.sol\":944:1011  mapping(address=>mapping(uint=>EgitimBilgi)) public egitimBilgileri */\n    tag_31:\n      mstore(0x20, 0x0d)\n      dup2\n      0x00\n      mstore\n      mstore(0x20, keccak256(0x00, 0x40))\n      dup1\n      0x00\n      mstore\n      keccak256(0x00, 0x40)\n      0x00\n      swap2\n      pop\n      swap2\n      pop\n      pop\n      dup1\n      0x00\n      add\n      sload\n      swap1\n      dup1\n      0x01\n      add\n      0x00\n      swap1\n      sload\n      swap1\n      0x0100\n      exp\n      swap1\n      div\n      0xff\n      and\n      swap1\n      dup1\n      0x02\n      add\n      sload\n      swap1\n      dup1\n      0x03\n      add\n      sload\n      swap1\n      dup1\n      0x04\n      add\n      0x00\n      swap1\n      sload\n      swap1\n      0x0100\n      exp\n      swap1\n      div\n      0xff\n      and\n      swap1\n      dup1\n      0x05\n      add\n      sload\n      swap1\n      dup1\n      0x06\n      add\n      sload\n      swap1\n      dup1\n      0x07\n      add\n      0x00\n      swap1\n      sload\n      swap1\n      0x0100\n      exp\n      swap1\n      div\n      0xffffffffffffffffffffffffffffffffffffffff\n      and\n      swap1\n      dup1\n      0x07\n      add\n      0x14\n      swap1\n      sload\n      swap1\n      0x0100\n      exp\n      swap1\n      div\n      0xffff\n      and\n      swap1\n      dup1\n      0x07\n      add\n      0x16\n      swap1\n      sload\n      swap1\n      0x0100\n      exp\n      swap1\n      div\n      0xffff\n      and\n      swap1\n      dup1\n      0x07\n      add\n      0x18\n      swap1\n      sload\n      swap1\n      0x0100\n      exp\n      swap1\n      div\n      0xff\n      and\n      swap1\n      dup1\n      0x07\n      add\n      0x19\n      swap1\n      sload\n      swap1\n      0x0100\n      exp\n      swap1\n      div\n      0xffffffff\n      and\n      swap1\n      pop\n      dup13\n      jump\t// out\n        /* \"contracts/BaseContract.sol\":2874:2935  mapping(address=>SertifikaMerkezi) public sertifikaMerkezleri */\n    tag_36:\n      mstore(0x20, 0x0a)\n      dup1\n      0x00\n      mstore\n      keccak256(0x00, 0x40)\n      0x00\n      swap2\n      pop\n      swap1\n      pop\n      dup1\n      0x00\n      add\n      0x00\n      swap1\n      sload\n      swap1\n      0x0100\n      exp\n      swap1\n      div\n      0xff\n      and\n      swap1\n      dup1\n      0x01\n      add\n      dup1\n      sload\n      tag_90\n      swap1\n      tag_80\n      jump\t// in\n    tag_90:\n      dup1\n      0x1f\n      add\n      0x20\n      dup1\n      swap2\n      div\n      mul\n      0x20\n      add\n      mload(0x40)\n      swap1\n      dup2\n      add\n      0x40\n      mstore\n      dup1\n      swap3\n      swap2\n      swap1\n      dup2\n      dup2\n      mstore\n      0x20\n      add\n      dup3\n      dup1\n      sload\n      tag_91\n      swap1\n      tag_80\n      jump\t// in\n    tag_91:\n      dup1\n      iszero\n      tag_92\n      jumpi\n      dup1\n      0x1f\n      lt\n      tag_93\n      jumpi\n      0x0100\n      dup1\n      dup4\n      sload\n      div\n      mul\n      dup4\n      mstore\n      swap2\n      0x20\n      add\n      swap2\n      jump(tag_92)\n    tag_93:\n      dup3\n      add\n      swap2\n      swap1\n      0x00\n      mstore\n      keccak256(0x00, 0x20)\n      swap1\n    tag_94:\n      dup2\n      sload\n      dup2\n      mstore\n      swap1\n      0x01\n      add\n      swap1\n      0x20\n      add\n      dup1\n      dup4\n      gt\n      tag_94\n      jumpi\n      dup3\n      swap1\n      sub\n      0x1f\n      and\n      dup3\n      add\n      swap2\n    tag_92:\n      pop\n      pop\n      pop\n      pop\n      pop\n      swap1\n      dup1\n      0x02\n      add\n      0x00\n      swap1\n      sload\n      swap1\n      0x0100\n      exp\n      swap1\n      div\n      0xff\n      and\n      swap1\n      pop\n      dup4\n      jump\t// out\n        /* \"contracts/BaseContract.sol\":2684:2724  mapping(address=>Firma) public  firmalar */\n    tag_40:\n      mstore(0x20, 0x06)\n      dup1\n      0x00\n      mstore\n      keccak256(0x00, 0x40)\n      0x00\n      swap2\n      pop\n      swap1\n      pop\n      dup1\n      0x00\n      add\n      0x00\n      swap1\n      sload\n      swap1\n      0x0100\n      exp\n      swap1\n      div\n      0xff\n      and\n      swap1\n      dup1\n      0x00\n      add\n      0x01\n      swap1\n      sload\n      swap1\n      0x0100\n      exp\n      swap1\n      div\n      0xff\n      and\n      swap1\n      dup1\n      0x01\n      add\n      sload\n      swap1\n      dup1\n      0x02\n      add\n      dup1\n      sload\n      tag_95\n      swap1\n      tag_80\n      jump\t// in\n    tag_95:\n      dup1\n      0x1f\n      add\n      0x20\n      dup1\n      swap2\n      div\n      mul\n      0x20\n      add\n      mload(0x40)\n      swap1\n      dup2\n      add\n      0x40\n      mstore\n      dup1\n      swap3\n      swap2\n      swap1\n      dup2\n      dup2\n      mstore\n      0x20\n      add\n      dup3\n      dup1\n      sload\n      tag_96\n      swap1\n      tag_80\n      jump\t// in\n    tag_96:\n      dup1\n      iszero\n      tag_97\n      jumpi\n      dup1\n      0x1f\n      lt\n      tag_98\n      jumpi\n      0x0100\n      dup1\n      dup4\n      sload\n      div\n      mul\n      dup4\n      mstore\n      swap2\n      0x20\n      add\n      swap2\n      jump(tag_97)\n    tag_98:\n      dup3\n      add\n      swap2\n      swap1\n      0x00\n      mstore\n      keccak256(0x00, 0x20)\n      swap1\n    tag_99:\n      dup2\n      sload\n      dup2\n      mstore\n      swap1\n      0x01\n      add\n      swap1\n      0x20\n      add\n      dup1\n      dup4\n      gt\n      tag_99\n      jumpi\n      dup3\n      swap1\n      sub\n      0x1f\n      and\n      dup3\n      add\n      swap2\n    tag_97:\n      pop\n      pop\n      pop\n      pop\n      pop\n      swap1\n      pop\n      dup5\n      jump\t// out\n        /* \"contracts/EgitimBilgileri.sol\":1239:2720  function ekleEgitimBilgi(address _kisiAddress, EgitimBilgi memory _egitimBilgi)  public sadeceUniversite{\r... */\n    tag_46:\n        /* \"contracts/BaseContract.sol\":1720:1733  universiteler */\n      0x04\n        /* \"contracts/BaseContract.sol\":1720:1745  universiteler[msg.sender] */\n      0x00\n        /* \"contracts/BaseContract.sol\":1734:1744  msg.sender */\n      caller\n        /* \"contracts/BaseContract.sol\":1720:1745  universiteler[msg.sender] */\n      0xffffffffffffffffffffffffffffffffffffffff\n      and\n      0xffffffffffffffffffffffffffffffffffffffff\n      and\n      dup2\n      mstore\n      0x20\n      add\n      swap1\n      dup2\n      mstore\n      0x20\n      add\n      0x00\n      keccak256\n        /* \"contracts/BaseContract.sol\":1720:1751  universiteler[msg.sender].durum */\n      0x00\n      add\n      0x00\n      swap1\n      sload\n      swap1\n      0x0100\n      exp\n      swap1\n      div\n      0xff\n      and\n        /* \"contracts/BaseContract.sol\":1712:1809  require(universiteler[msg.sender].durum,\r... */\n      tag_101\n      jumpi\n      mload(0x40)\n      0x08c379a000000000000000000000000000000000000000000000000000000000\n      dup2\n      mstore\n      0x04\n      add\n      tag_102\n      swap1\n      tag_103\n      jump\t// in\n    tag_102:\n      mload(0x40)\n      dup1\n      swap2\n      sub\n      swap1\n      revert\n    tag_101:\n        /* \"contracts/EgitimBilgileri.sol\":1367:1374  kisiler */\n      0x03\n        /* \"contracts/EgitimBilgileri.sol\":1367:1388  kisiler[_kisiAddress] */\n      0x00\n        /* \"contracts/EgitimBilgileri.sol\":1375:1387  _kisiAddress */\n      dup4\n        /* \"contracts/EgitimBilgileri.sol\":1367:1388  kisiler[_kisiAddress] */\n      0xffffffffffffffffffffffffffffffffffffffff\n      and\n      0xffffffffffffffffffffffffffffffffffffffff\n      and\n      dup2\n      mstore\n      0x20\n      add\n      swap1\n      dup2\n      mstore\n      0x20\n      add\n      0x00\n      keccak256\n        /* \"contracts/EgitimBilgileri.sol\":1367:1394  kisiler[_kisiAddress].durum */\n      0x00\n      add\n      0x00\n      swap1\n      sload\n      swap1\n      0x0100\n      exp\n      swap1\n      div\n      0xff\n      and\n        /* \"contracts/EgitimBilgileri.sol\":1359:1416  require(kisiler[_kisiAddress].durum,\"Student not exists\") */\n      tag_105\n      jumpi\n      mload(0x40)\n      0x08c379a000000000000000000000000000000000000000000000000000000000\n      dup2\n      mstore\n      0x04\n      add\n      tag_106\n      swap1\n      tag_107\n      jump\t// in\n    tag_106:\n      mload(0x40)\n      dup1\n      swap2\n      sub\n      swap1\n      revert\n    tag_105:\n        /* \"contracts/EgitimBilgileri.sol\":1432:1443  uint yeniId */\n      0x00\n        /* \"contracts/EgitimBilgileri.sol\":1444:1446  id */\n      0x0c\n      0x00\n        /* \"contracts/EgitimBilgileri.sol\":1444:1448  id++ */\n      dup2\n      sload\n      dup1\n      swap3\n      swap2\n      swap1\n      tag_108\n      swap1\n      tag_109\n      jump\t// in\n    tag_108:\n      swap2\n      swap1\n      pop\n      sstore\n        /* \"contracts/EgitimBilgileri.sol\":1432:1448  uint yeniId=id++ */\n      swap1\n      pop\n        /* \"contracts/EgitimBilgileri.sol\":1515:1527  _egitimBilgi */\n      dup2\n        /* \"contracts/EgitimBilgileri.sol\":1515:1540  _egitimBilgi.egitimDurumu */\n      0x20\n      add\n      mload\n        /* \"contracts/EgitimBilgileri.sol\":1464:1479  egitimBilgileri */\n      0x0d\n        /* \"contracts/EgitimBilgileri.sol\":1464:1493  egitimBilgileri[_kisiAddress] */\n      0x00\n        /* \"contracts/EgitimBilgileri.sol\":1480:1492  _kisiAddress */\n      dup6\n        /* \"contracts/EgitimBilgileri.sol\":1464:1493  egitimBilgileri[_kisiAddress] */\n      0xffffffffffffffffffffffffffffffffffffffff\n      and\n      0xffffffffffffffffffffffffffffffffffffffff\n      and\n      dup2\n      mstore\n      0x20\n      add\n      swap1\n      dup2\n      mstore\n      0x20\n      add\n      0x00\n      keccak256\n        /* \"contracts/EgitimBilgileri.sol\":1464:1501  egitimBilgileri[_kisiAddress][yeniId] */\n      0x00\n        /* \"contracts/EgitimBilgileri.sol\":1494:1500  yeniId */\n      dup4\n        /* \"contracts/EgitimBilgileri.sol\":1464:1501  egitimBilgileri[_kisiAddress][yeniId] */\n      dup2\n      mstore\n      0x20\n      add\n      swap1\n      dup2\n      mstore\n      0x20\n      add\n      0x00\n      keccak256\n        /* \"contracts/EgitimBilgileri.sol\":1464:1514  egitimBilgileri[_kisiAddress][yeniId].egitimDurumu */\n      0x01\n      add\n      0x00\n        /* \"contracts/EgitimBilgileri.sol\":1464:1540  egitimBilgileri[_kisiAddress][yeniId].egitimDurumu=_egitimBilgi.egitimDurumu */\n      0x0100\n      exp\n      dup2\n      sload\n      dup2\n      0xff\n      mul\n      not\n      and\n      swap1\n      dup4\n      0x03\n      dup2\n      gt\n      iszero\n      tag_110\n      jumpi\n      tag_111\n      tag_112\n      jump\t// in\n    tag_111:\n    tag_110:\n      mul\n      or\n      swap1\n      sstore\n      pop\n        /* \"contracts/EgitimBilgileri.sol\":1603:1615  _egitimBilgi */\n      dup2\n        /* \"contracts/EgitimBilgileri.sol\":1603:1624  _egitimBilgi.basTarih */\n      0x40\n      add\n      mload\n        /* \"contracts/EgitimBilgileri.sol\":1556:1571  egitimBilgileri */\n      0x0d\n        /* \"contracts/EgitimBilgileri.sol\":1556:1585  egitimBilgileri[_kisiAddress] */\n      0x00\n        /* \"contracts/EgitimBilgileri.sol\":1572:1584  _kisiAddress */\n      dup6\n        /* \"contracts/EgitimBilgileri.sol\":1556:1585  egitimBilgileri[_kisiAddress] */\n      0xffffffffffffffffffffffffffffffffffffffff\n      and\n      0xffffffffffffffffffffffffffffffffffffffff\n      and\n      dup2\n      mstore\n      0x20\n      add\n      swap1\n      dup2\n      mstore\n      0x20\n      add\n      0x00\n      keccak256\n        /* \"contracts/EgitimBilgileri.sol\":1556:1593  egitimBilgileri[_kisiAddress][yeniId] */\n      0x00\n        /* \"contracts/EgitimBilgileri.sol\":1586:1592  yeniId */\n      dup4\n        /* \"contracts/EgitimBilgileri.sol\":1556:1593  egitimBilgileri[_kisiAddress][yeniId] */\n      dup2\n      mstore\n      0x20\n      add\n      swap1\n      dup2\n      mstore\n      0x20\n      add\n      0x00\n      keccak256\n        /* \"contracts/EgitimBilgileri.sol\":1556:1602  egitimBilgileri[_kisiAddress][yeniId].basTarih */\n      0x02\n      add\n        /* \"contracts/EgitimBilgileri.sol\":1556:1624  egitimBilgileri[_kisiAddress][yeniId].basTarih=_egitimBilgi.basTarih */\n      dup2\n      swap1\n      sstore\n      pop\n        /* \"contracts/EgitimBilgileri.sol\":1687:1699  _egitimBilgi */\n      dup2\n        /* \"contracts/EgitimBilgileri.sol\":1687:1708  _egitimBilgi.bitTarih */\n      0x60\n      add\n      mload\n        /* \"contracts/EgitimBilgileri.sol\":1640:1655  egitimBilgileri */\n      0x0d\n        /* \"contracts/EgitimBilgileri.sol\":1640:1669  egitimBilgileri[_kisiAddress] */\n      0x00\n        /* \"contracts/EgitimBilgileri.sol\":1656:1668  _kisiAddress */\n      dup6\n        /* \"contracts/EgitimBilgileri.sol\":1640:1669  egitimBilgileri[_kisiAddress] */\n      0xffffffffffffffffffffffffffffffffffffffff\n      and\n      0xffffffffffffffffffffffffffffffffffffffff\n      and\n      dup2\n      mstore\n      0x20\n      add\n      swap1\n      dup2\n      mstore\n      0x20\n      add\n      0x00\n      keccak256\n        /* \"contracts/EgitimBilgileri.sol\":1640:1677  egitimBilgileri[_kisiAddress][yeniId] */\n      0x00\n        /* \"contracts/EgitimBilgileri.sol\":1670:1676  yeniId */\n      dup4\n        /* \"contracts/EgitimBilgileri.sol\":1640:1677  egitimBilgileri[_kisiAddress][yeniId] */\n      dup2\n      mstore\n      0x20\n      add\n      swap1\n      dup2\n      mstore\n      0x20\n      add\n      0x00\n      keccak256\n        /* \"contracts/EgitimBilgileri.sol\":1640:1686  egitimBilgileri[_kisiAddress][yeniId].bitTarih */\n      0x03\n      add\n        /* \"contracts/EgitimBilgileri.sol\":1640:1708  egitimBilgileri[_kisiAddress][yeniId].bitTarih=_egitimBilgi.bitTarih */\n      dup2\n      swap1\n      sstore\n      pop\n        /* \"contracts/EgitimBilgileri.sol\":1774:1786  _egitimBilgi */\n      dup2\n        /* \"contracts/EgitimBilgileri.sol\":1774:1798  _egitimBilgi.diplomaNotu */\n      0x80\n      add\n      mload\n        /* \"contracts/EgitimBilgileri.sol\":1724:1739  egitimBilgileri */\n      0x0d\n        /* \"contracts/EgitimBilgileri.sol\":1724:1753  egitimBilgileri[_kisiAddress] */\n      0x00\n        /* \"contracts/EgitimBilgileri.sol\":1740:1752  _kisiAddress */\n      dup6\n        /* \"contracts/EgitimBilgileri.sol\":1724:1753  egitimBilgileri[_kisiAddress] */\n      0xffffffffffffffffffffffffffffffffffffffff\n      and\n      0xffffffffffffffffffffffffffffffffffffffff\n      and\n      dup2\n      mstore\n      0x20\n      add\n      swap1\n      dup2\n      mstore\n      0x20\n      add\n      0x00\n      keccak256\n        /* \"contracts/EgitimBilgileri.sol\":1724:1761  egitimBilgileri[_kisiAddress][yeniId] */\n      0x00\n        /* \"contracts/EgitimBilgileri.sol\":1754:1760  yeniId */\n      dup4\n        /* \"contracts/EgitimBilgileri.sol\":1724:1761  egitimBilgileri[_kisiAddress][yeniId] */\n      dup2\n      mstore\n      0x20\n      add\n      swap1\n      dup2\n      mstore\n      0x20\n      add\n      0x00\n      keccak256\n        /* \"contracts/EgitimBilgileri.sol\":1724:1773  egitimBilgileri[_kisiAddress][yeniId].diplomaNotu */\n      0x04\n      add\n      0x00\n        /* \"contracts/EgitimBilgileri.sol\":1724:1798  egitimBilgileri[_kisiAddress][yeniId].diplomaNotu=_egitimBilgi.diplomaNotu */\n      0x0100\n      exp\n      dup2\n      sload\n      dup2\n      0xff\n      mul\n      not\n      and\n      swap1\n      dup4\n      0xff\n      and\n      mul\n      or\n      swap1\n      sstore\n      pop\n        /* \"contracts/EgitimBilgileri.sol\":1865:1877  _egitimBilgi */\n      dup2\n        /* \"contracts/EgitimBilgileri.sol\":1865:1890  _egitimBilgi.diplomaBelge */\n      0xa0\n      add\n      mload\n        /* \"contracts/EgitimBilgileri.sol\":1814:1829  egitimBilgileri */\n      0x0d\n        /* \"contracts/EgitimBilgileri.sol\":1814:1843  egitimBilgileri[_kisiAddress] */\n      0x00\n        /* \"contracts/EgitimBilgileri.sol\":1830:1842  _kisiAddress */\n      dup6\n        /* \"contracts/EgitimBilgileri.sol\":1814:1843  egitimBilgileri[_kisiAddress] */\n      0xffffffffffffffffffffffffffffffffffffffff\n      and\n      0xffffffffffffffffffffffffffffffffffffffff\n      and\n      dup2\n      mstore\n      0x20\n      add\n      swap1\n      dup2\n      mstore\n      0x20\n      add\n      0x00\n      keccak256\n        /* \"contracts/EgitimBilgileri.sol\":1814:1851  egitimBilgileri[_kisiAddress][yeniId] */\n      0x00\n        /* \"contracts/EgitimBilgileri.sol\":1844:1850  yeniId */\n      dup4\n        /* \"contracts/EgitimBilgileri.sol\":1814:1851  egitimBilgileri[_kisiAddress][yeniId] */\n      dup2\n      mstore\n      0x20\n      add\n      swap1\n      dup2\n      mstore\n      0x20\n      add\n      0x00\n      keccak256\n        /* \"contracts/EgitimBilgileri.sol\":1814:1864  egitimBilgileri[_kisiAddress][yeniId].diplomaBelge */\n      0x05\n      add\n        /* \"contracts/EgitimBilgileri.sol\":1814:1890  egitimBilgileri[_kisiAddress][yeniId].diplomaBelge=_egitimBilgi.diplomaBelge */\n      dup2\n      swap1\n      sstore\n      pop\n        /* \"contracts/EgitimBilgileri.sol\":1960:1972  _egitimBilgi */\n      dup2\n        /* \"contracts/EgitimBilgileri.sol\":1960:1988  _egitimBilgi.transcriptBelge */\n      0xc0\n      add\n      mload\n        /* \"contracts/EgitimBilgileri.sol\":1906:1921  egitimBilgileri */\n      0x0d\n        /* \"contracts/EgitimBilgileri.sol\":1906:1935  egitimBilgileri[_kisiAddress] */\n      0x00\n        /* \"contracts/EgitimBilgileri.sol\":1922:1934  _kisiAddress */\n      dup6\n        /* \"contracts/EgitimBilgileri.sol\":1906:1935  egitimBilgileri[_kisiAddress] */\n      0xffffffffffffffffffffffffffffffffffffffff\n      and\n      0xffffffffffffffffffffffffffffffffffffffff\n      and\n      dup2\n      mstore\n      0x20\n      add\n      swap1\n      dup2\n      mstore\n      0x20\n      add\n      0x00\n      keccak256\n        /* \"contracts/EgitimBilgileri.sol\":1906:1943  egitimBilgileri[_kisiAddress][yeniId] */\n      0x00\n        /* \"contracts/EgitimBilgileri.sol\":1936:1942  yeniId */\n      dup4\n        /* \"contracts/EgitimBilgileri.sol\":1906:1943  egitimBilgileri[_kisiAddress][yeniId] */\n      dup2\n      mstore\n      0x20\n      add\n      swap1\n      dup2\n      mstore\n      0x20\n      add\n      0x00\n      keccak256\n        /* \"contracts/EgitimBilgileri.sol\":1906:1959  egitimBilgileri[_kisiAddress][yeniId].transcriptBelge */\n      0x06\n      add\n        /* \"contracts/EgitimBilgileri.sol\":1906:1988  egitimBilgileri[_kisiAddress][yeniId].transcriptBelge=_egitimBilgi.transcriptBelge */\n      dup2\n      swap1\n      sstore\n      pop\n        /* \"contracts/EgitimBilgileri.sol\":2053:2065  _egitimBilgi */\n      dup2\n        /* \"contracts/EgitimBilgileri.sol\":2053:2076  _egitimBilgi.universite */\n      0xe0\n      add\n      mload\n        /* \"contracts/EgitimBilgileri.sol\":2004:2019  egitimBilgileri */\n      0x0d\n        /* \"contracts/EgitimBilgileri.sol\":2004:2033  egitimBilgileri[_kisiAddress] */\n      0x00\n        /* \"contracts/EgitimBilgileri.sol\":2020:2032  _kisiAddress */\n      dup6\n        /* \"contracts/EgitimBilgileri.sol\":2004:2033  egitimBilgileri[_kisiAddress] */\n      0xffffffffffffffffffffffffffffffffffffffff\n      and\n      0xffffffffffffffffffffffffffffffffffffffff\n      and\n      dup2\n      mstore\n      0x20\n      add\n      swap1\n      dup2\n      mstore\n      0x20\n      add\n      0x00\n      keccak256\n        /* \"contracts/EgitimBilgileri.sol\":2004:2041  egitimBilgileri[_kisiAddress][yeniId] */\n      0x00\n        /* \"contracts/EgitimBilgileri.sol\":2034:2040  yeniId */\n      dup4\n        /* \"contracts/EgitimBilgileri.sol\":2004:2041  egitimBilgileri[_kisiAddress][yeniId] */\n      dup2\n      mstore\n      0x20\n      add\n      swap1\n      dup2\n      mstore\n      0x20\n      add\n      0x00\n      keccak256\n        /* \"contracts/EgitimBilgileri.sol\":2004:2052  egitimBilgileri[_kisiAddress][yeniId].universite */\n      0x07\n      add\n      0x00\n        /* \"contracts/EgitimBilgileri.sol\":2004:2076  egitimBilgileri[_kisiAddress][yeniId].universite=_egitimBilgi.universite */\n      0x0100\n      exp\n      dup2\n      sload\n      dup2\n      0xffffffffffffffffffffffffffffffffffffffff\n      mul\n      not\n      and\n      swap1\n      dup4\n      0xffffffffffffffffffffffffffffffffffffffff\n      and\n      mul\n      or\n      swap1\n      sstore\n      pop\n        /* \"contracts/EgitimBilgileri.sol\":2138:2150  _egitimBilgi */\n      dup2\n        /* \"contracts/EgitimBilgileri.sol\":2138:2158  _egitimBilgi.fakulte */\n      0x0100\n      add\n      mload\n        /* \"contracts/EgitimBilgileri.sol\":2092:2107  egitimBilgileri */\n      0x0d\n        /* \"contracts/EgitimBilgileri.sol\":2092:2121  egitimBilgileri[_kisiAddress] */\n      0x00\n        /* \"contracts/EgitimBilgileri.sol\":2108:2120  _kisiAddress */\n      dup6\n        /* \"contracts/EgitimBilgileri.sol\":2092:2121  egitimBilgileri[_kisiAddress] */\n      0xffffffffffffffffffffffffffffffffffffffff\n      and\n      0xffffffffffffffffffffffffffffffffffffffff\n      and\n      dup2\n      mstore\n      0x20\n      add\n      swap1\n      dup2\n      mstore\n      0x20\n      add\n      0x00\n      keccak256\n        /* \"contracts/EgitimBilgileri.sol\":2092:2129  egitimBilgileri[_kisiAddress][yeniId] */\n      0x00\n        /* \"contracts/EgitimBilgileri.sol\":2122:2128  yeniId */\n      dup4\n        /* \"contracts/EgitimBilgileri.sol\":2092:2129  egitimBilgileri[_kisiAddress][yeniId] */\n      dup2\n      mstore\n      0x20\n      add\n      swap1\n      dup2\n      mstore\n      0x20\n      add\n      0x00\n      keccak256\n        /* \"contracts/EgitimBilgileri.sol\":2092:2137  egitimBilgileri[_kisiAddress][yeniId].fakulte */\n      0x07\n      add\n      0x14\n        /* \"contracts/EgitimBilgileri.sol\":2092:2158  egitimBilgileri[_kisiAddress][yeniId].fakulte=_egitimBilgi.fakulte */\n      0x0100\n      exp\n      dup2\n      sload\n      dup2\n      0xffff\n      mul\n      not\n      and\n      swap1\n      dup4\n      0xffff\n      and\n      mul\n      or\n      swap1\n      sstore\n      pop\n        /* \"contracts/EgitimBilgileri.sol\":2218:2230  _egitimBilgi */\n      dup2\n        /* \"contracts/EgitimBilgileri.sol\":2218:2236  _egitimBilgi.bolum */\n      0x0120\n      add\n      mload\n        /* \"contracts/EgitimBilgileri.sol\":2174:2189  egitimBilgileri */\n      0x0d\n        /* \"contracts/EgitimBilgileri.sol\":2174:2203  egitimBilgileri[_kisiAddress] */\n      0x00\n        /* \"contracts/EgitimBilgileri.sol\":2190:2202  _kisiAddress */\n      dup6\n        /* \"contracts/EgitimBilgileri.sol\":2174:2203  egitimBilgileri[_kisiAddress] */\n      0xffffffffffffffffffffffffffffffffffffffff\n      and\n      0xffffffffffffffffffffffffffffffffffffffff\n      and\n      dup2\n      mstore\n      0x20\n      add\n      swap1\n      dup2\n      mstore\n      0x20\n      add\n      0x00\n      keccak256\n        /* \"contracts/EgitimBilgileri.sol\":2174:2211  egitimBilgileri[_kisiAddress][yeniId] */\n      0x00\n        /* \"contracts/EgitimBilgileri.sol\":2204:2210  yeniId */\n      dup4\n        /* \"contracts/EgitimBilgileri.sol\":2174:2211  egitimBilgileri[_kisiAddress][yeniId] */\n      dup2\n      mstore\n      0x20\n      add\n      swap1\n      dup2\n      mstore\n      0x20\n      add\n      0x00\n      keccak256\n        /* \"contracts/EgitimBilgileri.sol\":2174:2217  egitimBilgileri[_kisiAddress][yeniId].bolum */\n      0x07\n      add\n      0x16\n        /* \"contracts/EgitimBilgileri.sol\":2174:2236  egitimBilgileri[_kisiAddress][yeniId].bolum=_egitimBilgi.bolum */\n      0x0100\n      exp\n      dup2\n      sload\n      dup2\n      0xffff\n      mul\n      not\n      and\n      swap1\n      dup4\n      0xffff\n      and\n      mul\n      or\n      swap1\n      sstore\n      pop\n        /* \"contracts/EgitimBilgileri.sol\":2302:2314  _egitimBilgi */\n      dup2\n        /* \"contracts/EgitimBilgileri.sol\":2302:2326  _egitimBilgi.ogretimTipi */\n      0x0140\n      add\n      mload\n        /* \"contracts/EgitimBilgileri.sol\":2252:2267  egitimBilgileri */\n      0x0d\n        /* \"contracts/EgitimBilgileri.sol\":2252:2281  egitimBilgileri[_kisiAddress] */\n      0x00\n        /* \"contracts/EgitimBilgileri.sol\":2268:2280  _kisiAddress */\n      dup6\n        /* \"contracts/EgitimBilgileri.sol\":2252:2281  egitimBilgileri[_kisiAddress] */\n      0xffffffffffffffffffffffffffffffffffffffff\n      and\n      0xffffffffffffffffffffffffffffffffffffffff\n      and\n      dup2\n      mstore\n      0x20\n      add\n      swap1\n      dup2\n      mstore\n      0x20\n      add\n      0x00\n      keccak256\n        /* \"contracts/EgitimBilgileri.sol\":2252:2289  egitimBilgileri[_kisiAddress][yeniId] */\n      0x00\n        /* \"contracts/EgitimBilgileri.sol\":2282:2288  yeniId */\n      dup4\n        /* \"contracts/EgitimBilgileri.sol\":2252:2289  egitimBilgileri[_kisiAddress][yeniId] */\n      dup2\n      mstore\n      0x20\n      add\n      swap1\n      dup2\n      mstore\n      0x20\n      add\n      0x00\n      keccak256\n        /* \"contracts/EgitimBilgileri.sol\":2252:2301  egitimBilgileri[_kisiAddress][yeniId].ogretimTipi */\n      0x07\n      add\n      0x18\n        /* \"contracts/EgitimBilgileri.sol\":2252:2326  egitimBilgileri[_kisiAddress][yeniId].ogretimTipi=_egitimBilgi.ogretimTipi */\n      0x0100\n      exp\n      dup2\n      sload\n      dup2\n      0xff\n      mul\n      not\n      and\n      swap1\n      dup4\n      0x03\n      dup2\n      gt\n      iszero\n      tag_113\n      jumpi\n      tag_114\n      tag_112\n      jump\t// in\n    tag_114:\n    tag_113:\n      mul\n      or\n      swap1\n      sstore\n      pop\n        /* \"contracts/EgitimBilgileri.sol\":2392:2404  _egitimBilgi */\n      dup2\n        /* \"contracts/EgitimBilgileri.sol\":2392:2416  _egitimBilgi.ogretimDili */\n      0x0160\n      add\n      mload\n        /* \"contracts/EgitimBilgileri.sol\":2342:2357  egitimBilgileri */\n      0x0d\n        /* \"contracts/EgitimBilgileri.sol\":2342:2371  egitimBilgileri[_kisiAddress] */\n      0x00\n        /* \"contracts/EgitimBilgileri.sol\":2358:2370  _kisiAddress */\n      dup6\n        /* \"contracts/EgitimBilgileri.sol\":2342:2371  egitimBilgileri[_kisiAddress] */\n      0xffffffffffffffffffffffffffffffffffffffff\n      and\n      0xffffffffffffffffffffffffffffffffffffffff\n      and\n      dup2\n      mstore\n      0x20\n      add\n      swap1\n      dup2\n      mstore\n      0x20\n      add\n      0x00\n      keccak256\n        /* \"contracts/EgitimBilgileri.sol\":2342:2379  egitimBilgileri[_kisiAddress][yeniId] */\n      0x00\n        /* \"contracts/EgitimBilgileri.sol\":2372:2378  yeniId */\n      dup4\n        /* \"contracts/EgitimBilgileri.sol\":2342:2379  egitimBilgileri[_kisiAddress][yeniId] */\n      dup2\n      mstore\n      0x20\n      add\n      swap1\n      dup2\n      mstore\n      0x20\n      add\n      0x00\n      keccak256\n        /* \"contracts/EgitimBilgileri.sol\":2342:2391  egitimBilgileri[_kisiAddress][yeniId].ogretimDili */\n      0x07\n      add\n      0x19\n        /* \"contracts/EgitimBilgileri.sol\":2342:2416  egitimBilgileri[_kisiAddress][yeniId].ogretimDili=_egitimBilgi.ogretimDili */\n      0x0100\n      exp\n      dup2\n      sload\n      dup2\n      0xffffffff\n      mul\n      not\n      and\n      swap1\n      dup4\n      0xffffffff\n      and\n      mul\n      or\n      swap1\n      sstore\n      pop\n        /* \"contracts/EgitimBilgileri.sol\":2612:2712  EgitimBilgiEklendiLog( yeniId, _egitimBilgi.universite,_egitimBilgi.basTarih, _egitimBilgi.bitTarih) */\n      0x9cbca7384fc1faed2b0399bc0f183e39f1de460a603e21db7ece2d0870ff424c\n        /* \"contracts/EgitimBilgileri.sol\":2635:2641  yeniId */\n      dup2\n        /* \"contracts/EgitimBilgileri.sol\":2643:2655  _egitimBilgi */\n      dup4\n        /* \"contracts/EgitimBilgileri.sol\":2643:2666  _egitimBilgi.universite */\n      0xe0\n      add\n      mload\n        /* \"contracts/EgitimBilgileri.sol\":2667:2679  _egitimBilgi */\n      dup5\n        /* \"contracts/EgitimBilgileri.sol\":2667:2688  _egitimBilgi.basTarih */\n      0x40\n      add\n      mload\n        /* \"contracts/EgitimBilgileri.sol\":2690:2702  _egitimBilgi */\n      dup6\n        /* \"contracts/EgitimBilgileri.sol\":2690:2711  _egitimBilgi.bitTarih */\n      0x60\n      add\n      mload\n        /* \"contracts/EgitimBilgileri.sol\":2612:2712  EgitimBilgiEklendiLog( yeniId, _egitimBilgi.universite,_egitimBilgi.basTarih, _egitimBilgi.bitTarih) */\n      mload(0x40)\n      tag_115\n      swap5\n      swap4\n      swap3\n      swap2\n      swap1\n      tag_116\n      jump\t// in\n    tag_115:\n      mload(0x40)\n      dup1\n      swap2\n      sub\n      swap1\n      log1\n        /* \"contracts/EgitimBilgileri.sol\":1343:2720  {\r... */\n      pop\n        /* \"contracts/EgitimBilgileri.sol\":1239:2720  function ekleEgitimBilgi(address _kisiAddress, EgitimBilgi memory _egitimBilgi)  public sadeceUniversite{\r... */\n      pop\n      pop\n      jump\t// out\n        /* \"contracts/BaseContract.sol\":2776:2825  mapping(address=>KamuKurumu) public kamuKurumlari */\n    tag_49:\n      mstore(0x20, 0x08)\n      dup1\n      0x00\n      mstore\n      keccak256(0x00, 0x40)\n      0x00\n      swap2\n      pop\n      swap1\n      pop\n      dup1\n      0x00\n      add\n      0x00\n      swap1\n      sload\n      swap1\n      0x0100\n      exp\n      swap1\n      div\n      0xff\n      and\n      swap1\n      dup1\n      0x01\n      add\n      dup1\n      sload\n      tag_117\n      swap1\n      tag_80\n      jump\t// in\n    tag_117:\n      dup1\n      0x1f\n      add\n      0x20\n      dup1\n      swap2\n      div\n      mul\n      0x20\n      add\n      mload(0x40)\n      swap1\n      dup2\n      add\n      0x40\n      mstore\n      dup1\n      swap3\n      swap2\n      swap1\n      dup2\n      dup2\n      mstore\n      0x20\n      add\n      dup3\n      dup1\n      sload\n      tag_118\n      swap1\n      tag_80\n      jump\t// in\n    tag_118:\n      dup1\n      iszero\n      tag_119\n      jumpi\n      dup1\n      0x1f\n      lt\n      tag_120\n      jumpi\n      0x0100\n      dup1\n      dup4\n      sload\n      div\n      mul\n      dup4\n      mstore\n      swap2\n      0x20\n      add\n      swap2\n      jump(tag_119)\n    tag_120:\n      dup3\n      add\n      swap2\n      swap1\n      0x00\n      mstore\n      keccak256(0x00, 0x20)\n      swap1\n    tag_121:\n      dup2\n      sload\n      dup2\n      mstore\n      swap1\n      0x01\n      add\n      swap1\n      0x20\n      add\n      dup1\n      dup4\n      gt\n      tag_121\n      jumpi\n      dup3\n      swap1\n      sub\n      0x1f\n      and\n      dup3\n      add\n      swap2\n    tag_119:\n      pop\n      pop\n      pop\n      pop\n      pop\n      swap1\n      dup1\n      0x02\n      add\n      0x00\n      swap1\n      sload\n      swap1\n      0x0100\n      exp\n      swap1\n      div\n      0xff\n      and\n      swap1\n      pop\n      dup4\n      jump\t// out\n        /* \"contracts/EgitimBilgileri.sol\":2729:4384  function guncelleEgitimBilgi(address _kisiAddress, EgitimBilgi memory _egitimBilgi)  public sadeceUniversite returns(uint){\r... */\n    tag_53:\n        /* \"contracts/EgitimBilgileri.sol\":2846:2850  uint */\n      0x00\n        /* \"contracts/BaseContract.sol\":1720:1733  universiteler */\n      0x04\n        /* \"contracts/BaseContract.sol\":1720:1745  universiteler[msg.sender] */\n      0x00\n        /* \"contracts/BaseContract.sol\":1734:1744  msg.sender */\n      caller\n        /* \"contracts/BaseContract.sol\":1720:1745  universiteler[msg.sender] */\n      0xffffffffffffffffffffffffffffffffffffffff\n      and\n      0xffffffffffffffffffffffffffffffffffffffff\n      and\n      dup2\n      mstore\n      0x20\n      add\n      swap1\n      dup2\n      mstore\n      0x20\n      add\n      0x00\n      keccak256\n        /* \"contracts/BaseContract.sol\":1720:1751  universiteler[msg.sender].durum */\n      0x00\n      add\n      0x00\n      swap1\n      sload\n      swap1\n      0x0100\n      exp\n      swap1\n      div\n      0xff\n      and\n        /* \"contracts/BaseContract.sol\":1712:1809  require(universiteler[msg.sender].durum,\r... */\n      tag_123\n      jumpi\n      mload(0x40)\n      0x08c379a000000000000000000000000000000000000000000000000000000000\n      dup2\n      mstore\n      0x04\n      add\n      tag_124\n      swap1\n      tag_103\n      jump\t// in\n    tag_124:\n      mload(0x40)\n      dup1\n      swap2\n      sub\n      swap1\n      revert\n    tag_123:\n        /* \"contracts/EgitimBilgileri.sol\":2875:2882  kisiler */\n      0x03\n        /* \"contracts/EgitimBilgileri.sol\":2875:2896  kisiler[_kisiAddress] */\n      0x00\n        /* \"contracts/EgitimBilgileri.sol\":2883:2895  _kisiAddress */\n      dup5\n        /* \"contracts/EgitimBilgileri.sol\":2875:2896  kisiler[_kisiAddress] */\n      0xffffffffffffffffffffffffffffffffffffffff\n      and\n      0xffffffffffffffffffffffffffffffffffffffff\n      and\n      dup2\n      mstore\n      0x20\n      add\n      swap1\n      dup2\n      mstore\n      0x20\n      add\n      0x00\n      keccak256\n        /* \"contracts/EgitimBilgileri.sol\":2875:2902  kisiler[_kisiAddress].durum */\n      0x00\n      add\n      0x00\n      swap1\n      sload\n      swap1\n      0x0100\n      exp\n      swap1\n      div\n      0xff\n      and\n        /* \"contracts/EgitimBilgileri.sol\":2867:2924  require(kisiler[_kisiAddress].durum,\"Student not exists\") */\n      tag_126\n      jumpi\n      mload(0x40)\n      0x08c379a000000000000000000000000000000000000000000000000000000000\n      dup2\n      mstore\n      0x04\n      add\n      tag_127\n      swap1\n      tag_107\n      jump\t// in\n    tag_127:\n      mload(0x40)\n      dup1\n      swap2\n      sub\n      swap1\n      revert\n    tag_126:\n        /* \"contracts/EgitimBilgileri.sol\":3015:3027  _egitimBilgi */\n      dup2\n        /* \"contracts/EgitimBilgileri.sol\":3015:3040  _egitimBilgi.egitimDurumu */\n      0x20\n      add\n      mload\n        /* \"contracts/EgitimBilgileri.sol\":2955:2970  egitimBilgileri */\n      0x0d\n        /* \"contracts/EgitimBilgileri.sol\":2955:2984  egitimBilgileri[_kisiAddress] */\n      0x00\n        /* \"contracts/EgitimBilgileri.sol\":2971:2983  _kisiAddress */\n      dup6\n        /* \"contracts/EgitimBilgileri.sol\":2955:2984  egitimBilgileri[_kisiAddress] */\n      0xffffffffffffffffffffffffffffffffffffffff\n      and\n      0xffffffffffffffffffffffffffffffffffffffff\n      and\n      dup2\n      mstore\n      0x20\n      add\n      swap1\n      dup2\n      mstore\n      0x20\n      add\n      0x00\n      keccak256\n        /* \"contracts/EgitimBilgileri.sol\":2955:3001  egitimBilgileri[_kisiAddress][_egitimBilgi.id] */\n      0x00\n        /* \"contracts/EgitimBilgileri.sol\":2985:2997  _egitimBilgi */\n      dup5\n        /* \"contracts/EgitimBilgileri.sol\":2985:3000  _egitimBilgi.id */\n      0x00\n      add\n      mload\n        /* \"contracts/EgitimBilgileri.sol\":2955:3001  egitimBilgileri[_kisiAddress][_egitimBilgi.id] */\n      dup2\n      mstore\n      0x20\n      add\n      swap1\n      dup2\n      mstore\n      0x20\n      add\n      0x00\n      keccak256\n        /* \"contracts/EgitimBilgileri.sol\":2955:3014  egitimBilgileri[_kisiAddress][_egitimBilgi.id].egitimDurumu */\n      0x01\n      add\n      0x00\n        /* \"contracts/EgitimBilgileri.sol\":2955:3040  egitimBilgileri[_kisiAddress][_egitimBilgi.id].egitimDurumu=_egitimBilgi.egitimDurumu */\n      0x0100\n      exp\n      dup2\n      sload\n      dup2\n      0xff\n      mul\n      not\n      and\n      swap1\n      dup4\n      0x03\n      dup2\n      gt\n      iszero\n      tag_128\n      jumpi\n      tag_129\n      tag_112\n      jump\t// in\n    tag_129:\n    tag_128:\n      mul\n      or\n      swap1\n      sstore\n      pop\n        /* \"contracts/EgitimBilgileri.sol\":3112:3124  _egitimBilgi */\n      dup2\n        /* \"contracts/EgitimBilgileri.sol\":3112:3133  _egitimBilgi.basTarih */\n      0x40\n      add\n      mload\n        /* \"contracts/EgitimBilgileri.sol\":3056:3071  egitimBilgileri */\n      0x0d\n        /* \"contracts/EgitimBilgileri.sol\":3056:3085  egitimBilgileri[_kisiAddress] */\n      0x00\n        /* \"contracts/EgitimBilgileri.sol\":3072:3084  _kisiAddress */\n      dup6\n        /* \"contracts/EgitimBilgileri.sol\":3056:3085  egitimBilgileri[_kisiAddress] */\n      0xffffffffffffffffffffffffffffffffffffffff\n      and\n      0xffffffffffffffffffffffffffffffffffffffff\n      and\n      dup2\n      mstore\n      0x20\n      add\n      swap1\n      dup2\n      mstore\n      0x20\n      add\n      0x00\n      keccak256\n        /* \"contracts/EgitimBilgileri.sol\":3056:3102  egitimBilgileri[_kisiAddress][_egitimBilgi.id] */\n      0x00\n        /* \"contracts/EgitimBilgileri.sol\":3086:3098  _egitimBilgi */\n      dup5\n        /* \"contracts/EgitimBilgileri.sol\":3086:3101  _egitimBilgi.id */\n      0x00\n      add\n      mload\n        /* \"contracts/EgitimBilgileri.sol\":3056:3102  egitimBilgileri[_kisiAddress][_egitimBilgi.id] */\n      dup2\n      mstore\n      0x20\n      add\n      swap1\n      dup2\n      mstore\n      0x20\n      add\n      0x00\n      keccak256\n        /* \"contracts/EgitimBilgileri.sol\":3056:3111  egitimBilgileri[_kisiAddress][_egitimBilgi.id].basTarih */\n      0x02\n      add\n        /* \"contracts/EgitimBilgileri.sol\":3056:3133  egitimBilgileri[_kisiAddress][_egitimBilgi.id].basTarih=_egitimBilgi.basTarih */\n      dup2\n      swap1\n      sstore\n      pop\n        /* \"contracts/EgitimBilgileri.sol\":3205:3217  _egitimBilgi */\n      dup2\n        /* \"contracts/EgitimBilgileri.sol\":3205:3226  _egitimBilgi.bitTarih */\n      0x60\n      add\n      mload\n        /* \"contracts/EgitimBilgileri.sol\":3149:3164  egitimBilgileri */\n      0x0d\n        /* \"contracts/EgitimBilgileri.sol\":3149:3178  egitimBilgileri[_kisiAddress] */\n      0x00\n        /* \"contracts/EgitimBilgileri.sol\":3165:3177  _kisiAddress */\n      dup6\n        /* \"contracts/EgitimBilgileri.sol\":3149:3178  egitimBilgileri[_kisiAddress] */\n      0xffffffffffffffffffffffffffffffffffffffff\n      and\n      0xffffffffffffffffffffffffffffffffffffffff\n      and\n      dup2\n      mstore\n      0x20\n      add\n      swap1\n      dup2\n      mstore\n      0x20\n      add\n      0x00\n      keccak256\n        /* \"contracts/EgitimBilgileri.sol\":3149:3195  egitimBilgileri[_kisiAddress][_egitimBilgi.id] */\n      0x00\n        /* \"contracts/EgitimBilgileri.sol\":3179:3191  _egitimBilgi */\n      dup5\n        /* \"contracts/EgitimBilgileri.sol\":3179:3194  _egitimBilgi.id */\n      0x00\n      add\n      mload\n        /* \"contracts/EgitimBilgileri.sol\":3149:3195  egitimBilgileri[_kisiAddress][_egitimBilgi.id] */\n      dup2\n      mstore\n      0x20\n      add\n      swap1\n      dup2\n      mstore\n      0x20\n      add\n      0x00\n      keccak256\n        /* \"contracts/EgitimBilgileri.sol\":3149:3204  egitimBilgileri[_kisiAddress][_egitimBilgi.id].bitTarih */\n      0x03\n      add\n        /* \"contracts/EgitimBilgileri.sol\":3149:3226  egitimBilgileri[_kisiAddress][_egitimBilgi.id].bitTarih=_egitimBilgi.bitTarih */\n      dup2\n      swap1\n      sstore\n      pop\n        /* \"contracts/EgitimBilgileri.sol\":3301:3313  _egitimBilgi */\n      dup2\n        /* \"contracts/EgitimBilgileri.sol\":3301:3325  _egitimBilgi.diplomaNotu */\n      0x80\n      add\n      mload\n        /* \"contracts/EgitimBilgileri.sol\":3242:3257  egitimBilgileri */\n      0x0d\n        /* \"contracts/EgitimBilgileri.sol\":3242:3271  egitimBilgileri[_kisiAddress] */\n      0x00\n        /* \"contracts/EgitimBilgileri.sol\":3258:3270  _kisiAddress */\n      dup6\n        /* \"contracts/EgitimBilgileri.sol\":3242:3271  egitimBilgileri[_kisiAddress] */\n      0xffffffffffffffffffffffffffffffffffffffff\n      and\n      0xffffffffffffffffffffffffffffffffffffffff\n      and\n      dup2\n      mstore\n      0x20\n      add\n      swap1\n      dup2\n      mstore\n      0x20\n      add\n      0x00\n      keccak256\n        /* \"contracts/EgitimBilgileri.sol\":3242:3288  egitimBilgileri[_kisiAddress][_egitimBilgi.id] */\n      0x00\n        /* \"contracts/EgitimBilgileri.sol\":3272:3284  _egitimBilgi */\n      dup5\n        /* \"contracts/EgitimBilgileri.sol\":3272:3287  _egitimBilgi.id */\n      0x00\n      add\n      mload\n        /* \"contracts/EgitimBilgileri.sol\":3242:3288  egitimBilgileri[_kisiAddress][_egitimBilgi.id] */\n      dup2\n      mstore\n      0x20\n      add\n      swap1\n      dup2\n      mstore\n      0x20\n      add\n      0x00\n      keccak256\n        /* \"contracts/EgitimBilgileri.sol\":3242:3300  egitimBilgileri[_kisiAddress][_egitimBilgi.id].diplomaNotu */\n      0x04\n      add\n      0x00\n        /* \"contracts/EgitimBilgileri.sol\":3242:3325  egitimBilgileri[_kisiAddress][_egitimBilgi.id].diplomaNotu=_egitimBilgi.diplomaNotu */\n      0x0100\n      exp\n      dup2\n      sload\n      dup2\n      0xff\n      mul\n      not\n      and\n      swap1\n      dup4\n      0xff\n      and\n      mul\n      or\n      swap1\n      sstore\n      pop\n        /* \"contracts/EgitimBilgileri.sol\":3401:3413  _egitimBilgi */\n      dup2\n        /* \"contracts/EgitimBilgileri.sol\":3401:3426  _egitimBilgi.diplomaBelge */\n      0xa0\n      add\n      mload\n        /* \"contracts/EgitimBilgileri.sol\":3341:3356  egitimBilgileri */\n      0x0d\n        /* \"contracts/EgitimBilgileri.sol\":3341:3370  egitimBilgileri[_kisiAddress] */\n      0x00\n        /* \"contracts/EgitimBilgileri.sol\":3357:3369  _kisiAddress */\n      dup6\n        /* \"contracts/EgitimBilgileri.sol\":3341:3370  egitimBilgileri[_kisiAddress] */\n      0xffffffffffffffffffffffffffffffffffffffff\n      and\n      0xffffffffffffffffffffffffffffffffffffffff\n      and\n      dup2\n      mstore\n      0x20\n      add\n      swap1\n      dup2\n      mstore\n      0x20\n      add\n      0x00\n      keccak256\n        /* \"contracts/EgitimBilgileri.sol\":3341:3387  egitimBilgileri[_kisiAddress][_egitimBilgi.id] */\n      0x00\n        /* \"contracts/EgitimBilgileri.sol\":3371:3383  _egitimBilgi */\n      dup5\n        /* \"contracts/EgitimBilgileri.sol\":3371:3386  _egitimBilgi.id */\n      0x00\n      add\n      mload\n        /* \"contracts/EgitimBilgileri.sol\":3341:3387  egitimBilgileri[_kisiAddress][_egitimBilgi.id] */\n      dup2\n      mstore\n      0x20\n      add\n      swap1\n      dup2\n      mstore\n      0x20\n      add\n      0x00\n      keccak256\n        /* \"contracts/EgitimBilgileri.sol\":3341:3400  egitimBilgileri[_kisiAddress][_egitimBilgi.id].diplomaBelge */\n      0x05\n      add\n        /* \"contracts/EgitimBilgileri.sol\":3341:3426  egitimBilgileri[_kisiAddress][_egitimBilgi.id].diplomaBelge=_egitimBilgi.diplomaBelge */\n      dup2\n      swap1\n      sstore\n      pop\n        /* \"contracts/EgitimBilgileri.sol\":3505:3517  _egitimBilgi */\n      dup2\n        /* \"contracts/EgitimBilgileri.sol\":3505:3533  _egitimBilgi.transcriptBelge */\n      0xc0\n      add\n      mload\n        /* \"contracts/EgitimBilgileri.sol\":3442:3457  egitimBilgileri */\n      0x0d\n        /* \"contracts/EgitimBilgileri.sol\":3442:3471  egitimBilgileri[_kisiAddress] */\n      0x00\n        /* \"contracts/EgitimBilgileri.sol\":3458:3470  _kisiAddress */\n      dup6\n        /* \"contracts/EgitimBilgileri.sol\":3442:3471  egitimBilgileri[_kisiAddress] */\n      0xffffffffffffffffffffffffffffffffffffffff\n      and\n      0xffffffffffffffffffffffffffffffffffffffff\n      and\n      dup2\n      mstore\n      0x20\n      add\n      swap1\n      dup2\n      mstore\n      0x20\n      add\n      0x00\n      keccak256\n        /* \"contracts/EgitimBilgileri.sol\":3442:3488  egitimBilgileri[_kisiAddress][_egitimBilgi.id] */\n      0x00\n        /* \"contracts/EgitimBilgileri.sol\":3472:3484  _egitimBilgi */\n      dup5\n        /* \"contracts/EgitimBilgileri.sol\":3472:3487  _egitimBilgi.id */\n      0x00\n      add\n      mload\n        /* \"contracts/EgitimBilgileri.sol\":3442:3488  egitimBilgileri[_kisiAddress][_egitimBilgi.id] */\n      dup2\n      mstore\n      0x20\n      add\n      swap1\n      dup2\n      mstore\n      0x20\n      add\n      0x00\n      keccak256\n        /* \"contracts/EgitimBilgileri.sol\":3442:3504  egitimBilgileri[_kisiAddress][_egitimBilgi.id].transcriptBelge */\n      0x06\n      add\n        /* \"contracts/EgitimBilgileri.sol\":3442:3533  egitimBilgileri[_kisiAddress][_egitimBilgi.id].transcriptBelge=_egitimBilgi.transcriptBelge */\n      dup2\n      swap1\n      sstore\n      pop\n        /* \"contracts/EgitimBilgileri.sol\":3607:3619  _egitimBilgi */\n      dup2\n        /* \"contracts/EgitimBilgileri.sol\":3607:3630  _egitimBilgi.universite */\n      0xe0\n      add\n      mload\n        /* \"contracts/EgitimBilgileri.sol\":3549:3564  egitimBilgileri */\n      0x0d\n        /* \"contracts/EgitimBilgileri.sol\":3549:3578  egitimBilgileri[_kisiAddress] */\n      0x00\n        /* \"contracts/EgitimBilgileri.sol\":3565:3577  _kisiAddress */\n      dup6\n        /* \"contracts/EgitimBilgileri.sol\":3549:3578  egitimBilgileri[_kisiAddress] */\n      0xffffffffffffffffffffffffffffffffffffffff\n      and\n      0xffffffffffffffffffffffffffffffffffffffff\n      and\n      dup2\n      mstore\n      0x20\n      add\n      swap1\n      dup2\n      mstore\n      0x20\n      add\n      0x00\n      keccak256\n        /* \"contracts/EgitimBilgileri.sol\":3549:3595  egitimBilgileri[_kisiAddress][_egitimBilgi.id] */\n      0x00\n        /* \"contracts/EgitimBilgileri.sol\":3579:3591  _egitimBilgi */\n      dup5\n        /* \"contracts/EgitimBilgileri.sol\":3579:3594  _egitimBilgi.id */\n      0x00\n      add\n      mload\n        /* \"contracts/EgitimBilgileri.sol\":3549:3595  egitimBilgileri[_kisiAddress][_egitimBilgi.id] */\n      dup2\n      mstore\n      0x20\n      add\n      swap1\n      dup2\n      mstore\n      0x20\n      add\n      0x00\n      keccak256\n        /* \"contracts/EgitimBilgileri.sol\":3549:3606  egitimBilgileri[_kisiAddress][_egitimBilgi.id].universite */\n      0x07\n      add\n      0x00\n        /* \"contracts/EgitimBilgileri.sol\":3549:3630  egitimBilgileri[_kisiAddress][_egitimBilgi.id].universite=_egitimBilgi.universite */\n      0x0100\n      exp\n      dup2\n      sload\n      dup2\n      0xffffffffffffffffffffffffffffffffffffffff\n      mul\n      not\n      and\n      swap1\n      dup4\n      0xffffffffffffffffffffffffffffffffffffffff\n      and\n      mul\n      or\n      swap1\n      sstore\n      pop\n        /* \"contracts/EgitimBilgileri.sol\":3701:3713  _egitimBilgi */\n      dup2\n        /* \"contracts/EgitimBilgileri.sol\":3701:3721  _egitimBilgi.fakulte */\n      0x0100\n      add\n      mload\n        /* \"contracts/EgitimBilgileri.sol\":3646:3661  egitimBilgileri */\n      0x0d\n        /* \"contracts/EgitimBilgileri.sol\":3646:3675  egitimBilgileri[_kisiAddress] */\n      0x00\n        /* \"contracts/EgitimBilgileri.sol\":3662:3674  _kisiAddress */\n      dup6\n        /* \"contracts/EgitimBilgileri.sol\":3646:3675  egitimBilgileri[_kisiAddress] */\n      0xffffffffffffffffffffffffffffffffffffffff\n      and\n      0xffffffffffffffffffffffffffffffffffffffff\n      and\n      dup2\n      mstore\n      0x20\n      add\n      swap1\n      dup2\n      mstore\n      0x20\n      add\n      0x00\n      keccak256\n        /* \"contracts/EgitimBilgileri.sol\":3646:3692  egitimBilgileri[_kisiAddress][_egitimBilgi.id] */\n      0x00\n        /* \"contracts/EgitimBilgileri.sol\":3676:3688  _egitimBilgi */\n      dup5\n        /* \"contracts/EgitimBilgileri.sol\":3676:3691  _egitimBilgi.id */\n      0x00\n      add\n      mload\n        /* \"contracts/EgitimBilgileri.sol\":3646:3692  egitimBilgileri[_kisiAddress][_egitimBilgi.id] */\n      dup2\n      mstore\n      0x20\n      add\n      swap1\n      dup2\n      mstore\n      0x20\n      add\n      0x00\n      keccak256\n        /* \"contracts/EgitimBilgileri.sol\":3646:3700  egitimBilgileri[_kisiAddress][_egitimBilgi.id].fakulte */\n      0x07\n      add\n      0x14\n        /* \"contracts/EgitimBilgileri.sol\":3646:3721  egitimBilgileri[_kisiAddress][_egitimBilgi.id].fakulte=_egitimBilgi.fakulte */\n      0x0100\n      exp\n      dup2\n      sload\n      dup2\n      0xffff\n      mul\n      not\n      and\n      swap1\n      dup4\n      0xffff\n      and\n      mul\n      or\n      swap1\n      sstore\n      pop\n        /* \"contracts/EgitimBilgileri.sol\":3790:3802  _egitimBilgi */\n      dup2\n        /* \"contracts/EgitimBilgileri.sol\":3790:3808  _egitimBilgi.bolum */\n      0x0120\n      add\n      mload\n        /* \"contracts/EgitimBilgileri.sol\":3737:3752  egitimBilgileri */\n      0x0d\n        /* \"contracts/EgitimBilgileri.sol\":3737:3766  egitimBilgileri[_kisiAddress] */\n      0x00\n        /* \"contracts/EgitimBilgileri.sol\":3753:3765  _kisiAddress */\n      dup6\n        /* \"contracts/EgitimBilgileri.sol\":3737:3766  egitimBilgileri[_kisiAddress] */\n      0xffffffffffffffffffffffffffffffffffffffff\n      and\n      0xffffffffffffffffffffffffffffffffffffffff\n      and\n      dup2\n      mstore\n      0x20\n      add\n      swap1\n      dup2\n      mstore\n      0x20\n      add\n      0x00\n      keccak256\n        /* \"contracts/EgitimBilgileri.sol\":3737:3783  egitimBilgileri[_kisiAddress][_egitimBilgi.id] */\n      0x00\n        /* \"contracts/EgitimBilgileri.sol\":3767:3779  _egitimBilgi */\n      dup5\n        /* \"contracts/EgitimBilgileri.sol\":3767:3782  _egitimBilgi.id */\n      0x00\n      add\n      mload\n        /* \"contracts/EgitimBilgileri.sol\":3737:3783  egitimBilgileri[_kisiAddress][_egitimBilgi.id] */\n      dup2\n      mstore\n      0x20\n      add\n      swap1\n      dup2\n      mstore\n      0x20\n      add\n      0x00\n      keccak256\n        /* \"contracts/EgitimBilgileri.sol\":3737:3789  egitimBilgileri[_kisiAddress][_egitimBilgi.id].bolum */\n      0x07\n      add\n      0x16\n        /* \"contracts/EgitimBilgileri.sol\":3737:3808  egitimBilgileri[_kisiAddress][_egitimBilgi.id].bolum=_egitimBilgi.bolum */\n      0x0100\n      exp\n      dup2\n      sload\n      dup2\n      0xffff\n      mul\n      not\n      and\n      swap1\n      dup4\n      0xffff\n      and\n      mul\n      or\n      swap1\n      sstore\n      pop\n        /* \"contracts/EgitimBilgileri.sol\":3883:3895  _egitimBilgi */\n      dup2\n        /* \"contracts/EgitimBilgileri.sol\":3883:3907  _egitimBilgi.ogretimTipi */\n      0x0140\n      add\n      mload\n        /* \"contracts/EgitimBilgileri.sol\":3824:3839  egitimBilgileri */\n      0x0d\n        /* \"contracts/EgitimBilgileri.sol\":3824:3853  egitimBilgileri[_kisiAddress] */\n      0x00\n        /* \"contracts/EgitimBilgileri.sol\":3840:3852  _kisiAddress */\n      dup6\n        /* \"contracts/EgitimBilgileri.sol\":3824:3853  egitimBilgileri[_kisiAddress] */\n      0xffffffffffffffffffffffffffffffffffffffff\n      and\n      0xffffffffffffffffffffffffffffffffffffffff\n      and\n      dup2\n      mstore\n      0x20\n      add\n      swap1\n      dup2\n      mstore\n      0x20\n      add\n      0x00\n      keccak256\n        /* \"contracts/EgitimBilgileri.sol\":3824:3870  egitimBilgileri[_kisiAddress][_egitimBilgi.id] */\n      0x00\n        /* \"contracts/EgitimBilgileri.sol\":3854:3866  _egitimBilgi */\n      dup5\n        /* \"contracts/EgitimBilgileri.sol\":3854:3869  _egitimBilgi.id */\n      0x00\n      add\n      mload\n        /* \"contracts/EgitimBilgileri.sol\":3824:3870  egitimBilgileri[_kisiAddress][_egitimBilgi.id] */\n      dup2\n      mstore\n      0x20\n      add\n      swap1\n      dup2\n      mstore\n      0x20\n      add\n      0x00\n      keccak256\n        /* \"contracts/EgitimBilgileri.sol\":3824:3882  egitimBilgileri[_kisiAddress][_egitimBilgi.id].ogretimTipi */\n      0x07\n      add\n      0x18\n        /* \"contracts/EgitimBilgileri.sol\":3824:3907  egitimBilgileri[_kisiAddress][_egitimBilgi.id].ogretimTipi=_egitimBilgi.ogretimTipi */\n      0x0100\n      exp\n      dup2\n      sload\n      dup2\n      0xff\n      mul\n      not\n      and\n      swap1\n      dup4\n      0x03\n      dup2\n      gt\n      iszero\n      tag_130\n      jumpi\n      tag_131\n      tag_112\n      jump\t// in\n    tag_131:\n    tag_130:\n      mul\n      or\n      swap1\n      sstore\n      pop\n        /* \"contracts/EgitimBilgileri.sol\":3982:3994  _egitimBilgi */\n      dup2\n        /* \"contracts/EgitimBilgileri.sol\":3982:4006  _egitimBilgi.ogretimDili */\n      0x0160\n      add\n      mload\n        /* \"contracts/EgitimBilgileri.sol\":3923:3938  egitimBilgileri */\n      0x0d\n        /* \"contracts/EgitimBilgileri.sol\":3923:3952  egitimBilgileri[_kisiAddress] */\n      0x00\n        /* \"contracts/EgitimBilgileri.sol\":3939:3951  _kisiAddress */\n      dup6\n        /* \"contracts/EgitimBilgileri.sol\":3923:3952  egitimBilgileri[_kisiAddress] */\n      0xffffffffffffffffffffffffffffffffffffffff\n      and\n      0xffffffffffffffffffffffffffffffffffffffff\n      and\n      dup2\n      mstore\n      0x20\n      add\n      swap1\n      dup2\n      mstore\n      0x20\n      add\n      0x00\n      keccak256\n        /* \"contracts/EgitimBilgileri.sol\":3923:3969  egitimBilgileri[_kisiAddress][_egitimBilgi.id] */\n      0x00\n        /* \"contracts/EgitimBilgileri.sol\":3953:3965  _egitimBilgi */\n      dup5\n        /* \"contracts/EgitimBilgileri.sol\":3953:3968  _egitimBilgi.id */\n      0x00\n      add\n      mload\n        /* \"contracts/EgitimBilgileri.sol\":3923:3969  egitimBilgileri[_kisiAddress][_egitimBilgi.id] */\n      dup2\n      mstore\n      0x20\n      add\n      swap1\n      dup2\n      mstore\n      0x20\n      add\n      0x00\n      keccak256\n        /* \"contracts/EgitimBilgileri.sol\":3923:3981  egitimBilgileri[_kisiAddress][_egitimBilgi.id].ogretimDili */\n      0x07\n      add\n      0x19\n        /* \"contracts/EgitimBilgileri.sol\":3923:4006  egitimBilgileri[_kisiAddress][_egitimBilgi.id].ogretimDili=_egitimBilgi.ogretimDili */\n      0x0100\n      exp\n      dup2\n      sload\n      dup2\n      0xffffffff\n      mul\n      not\n      and\n      swap1\n      dup4\n      0xffffffff\n      and\n      mul\n      or\n      swap1\n      sstore\n      pop\n        /* \"contracts/EgitimBilgileri.sol\":4220:4333  EgitimBilgiGuncellendiLog( _egitimBilgi.id, _egitimBilgi.universite,_egitimBilgi.basTarih, _egitimBilgi.bitTarih) */\n      0xda3dfe1e38b971a57856d9249b86e9f15ecfc0162ea2e6f03c643ba44feec989\n        /* \"contracts/EgitimBilgileri.sol\":4247:4259  _egitimBilgi */\n      dup3\n        /* \"contracts/EgitimBilgileri.sol\":4247:4262  _egitimBilgi.id */\n      0x00\n      add\n      mload\n        /* \"contracts/EgitimBilgileri.sol\":4264:4276  _egitimBilgi */\n      dup4\n        /* \"contracts/EgitimBilgileri.sol\":4264:4287  _egitimBilgi.universite */\n      0xe0\n      add\n      mload\n        /* \"contracts/EgitimBilgileri.sol\":4288:4300  _egitimBilgi */\n      dup5\n        /* \"contracts/EgitimBilgileri.sol\":4288:4309  _egitimBilgi.basTarih */\n      0x40\n      add\n      mload\n        /* \"contracts/EgitimBilgileri.sol\":4311:4323  _egitimBilgi */\n      dup6\n        /* \"contracts/EgitimBilgileri.sol\":4311:4332  _egitimBilgi.bitTarih */\n      0x60\n      add\n      mload\n        /* \"contracts/EgitimBilgileri.sol\":4220:4333  EgitimBilgiGuncellendiLog( _egitimBilgi.id, _egitimBilgi.universite,_egitimBilgi.basTarih, _egitimBilgi.bitTarih) */\n      mload(0x40)\n      tag_132\n      swap5\n      swap4\n      swap3\n      swap2\n      swap1\n      tag_116\n      jump\t// in\n    tag_132:\n      mload(0x40)\n      dup1\n      swap2\n      sub\n      swap1\n      log1\n        /* \"contracts/EgitimBilgileri.sol\":4359:4371  _egitimBilgi */\n      dup2\n        /* \"contracts/EgitimBilgileri.sol\":4359:4374  _egitimBilgi.id */\n      0x00\n      add\n      mload\n        /* \"contracts/EgitimBilgileri.sol\":4349:4374  return    _egitimBilgi.id */\n      swap1\n      pop\n        /* \"contracts/EgitimBilgileri.sol\":2729:4384  function guncelleEgitimBilgi(address _kisiAddress, EgitimBilgi memory _egitimBilgi)  public sadeceUniversite returns(uint){\r... */\n      swap3\n      swap2\n      pop\n      pop\n      jump\t// out\n        /* \"contracts/BaseContract.sol\":2832:2867  mapping(address=>STK) public stklar */\n    tag_58:\n      mstore(0x20, 0x09)\n      dup1\n      0x00\n      mstore\n      keccak256(0x00, 0x40)\n      0x00\n      swap2\n      pop\n      swap1\n      pop\n      dup1\n      0x00\n      add\n      0x00\n      swap1\n      sload\n      swap1\n      0x0100\n      exp\n      swap1\n      div\n      0xff\n      and\n      swap1\n      dup1\n      0x01\n      add\n      dup1\n      sload\n      tag_133\n      swap1\n      tag_80\n      jump\t// in\n    tag_133:\n      dup1\n      0x1f\n      add\n      0x20\n      dup1\n      swap2\n      div\n      mul\n      0x20\n      add\n      mload(0x40)\n      swap1\n      dup2\n      add\n      0x40\n      mstore\n      dup1\n      swap3\n      swap2\n      swap1\n      dup2\n      dup2\n      mstore\n      0x20\n      add\n      dup3\n      dup1\n      sload\n      tag_134\n      swap1\n      tag_80\n      jump\t// in\n    tag_134:\n      dup1\n      iszero\n      tag_135\n      jumpi\n      dup1\n      0x1f\n      lt\n      tag_136\n      jumpi\n      0x0100\n      dup1\n      dup4\n      sload\n      div\n      mul\n      dup4\n      mstore\n      swap2\n      0x20\n      add\n      swap2\n      jump(tag_135)\n    tag_136:\n      dup3\n      add\n      swap2\n      swap1\n      0x00\n      mstore\n      keccak256(0x00, 0x20)\n      swap1\n    tag_137:\n      dup2\n      sload\n      dup2\n      mstore\n      swap1\n      0x01\n      add\n      swap1\n      0x20\n      add\n      dup1\n      dup4\n      gt\n      tag_137\n      jumpi\n      dup3\n      swap1\n      sub\n      0x1f\n      and\n      dup3\n      add\n      swap2\n    tag_135:\n      pop\n      pop\n      pop\n      pop\n      pop\n      swap1\n      dup1\n      0x02\n      add\n      0x00\n      swap1\n      sload\n      swap1\n      0x0100\n      exp\n      swap1\n      div\n      0xff\n      and\n      swap1\n      pop\n      dup4\n      jump\t// out\n        /* \"contracts/BaseContract.sol\":2945:2986  mapping(uint32=>YabanciDil) public diller */\n    tag_63:\n      mstore(0x20, 0x0b)\n      dup1\n      0x00\n      mstore\n      keccak256(0x00, 0x40)\n      0x00\n      swap2\n      pop\n      swap1\n      pop\n      dup1\n      0x00\n      add\n      0x00\n      swap1\n      sload\n      swap1\n      0x0100\n      exp\n      swap1\n      div\n      0xffffffff\n      and\n      swap1\n      dup1\n      0x01\n      add\n      dup1\n      sload\n      tag_138\n      swap1\n      tag_80\n      jump\t// in\n    tag_138:\n      dup1\n      0x1f\n      add\n      0x20\n      dup1\n      swap2\n      div\n      mul\n      0x20\n      add\n      mload(0x40)\n      swap1\n      dup2\n      add\n      0x40\n      mstore\n      dup1\n      swap3\n      swap2\n      swap1\n      dup2\n      dup2\n      mstore\n      0x20\n      add\n      dup3\n      dup1\n      sload\n      tag_139\n      swap1\n      tag_80\n      jump\t// in\n    tag_139:\n      dup1\n      iszero\n      tag_140\n      jumpi\n      dup1\n      0x1f\n      lt\n      tag_141\n      jumpi\n      0x0100\n      dup1\n      dup4\n      sload\n      div\n      mul\n      dup4\n      mstore\n      swap2\n      0x20\n      add\n      swap2\n      jump(tag_140)\n    tag_141:\n      dup3\n      add\n      swap2\n      swap1\n      0x00\n      mstore\n      keccak256(0x00, 0x20)\n      swap1\n    tag_142:\n      dup2\n      sload\n      dup2\n      mstore\n      swap1\n      0x01\n      add\n      swap1\n      0x20\n      add\n      dup1\n      dup4\n      gt\n      tag_142\n      jumpi\n      dup3\n      swap1\n      sub\n      0x1f\n      and\n      dup3\n      add\n      swap2\n    tag_140:\n      pop\n      pop\n      pop\n      pop\n      pop\n      swap1\n      pop\n      dup3\n      jump\t// out\n        /* \"contracts/EgitimBilgileri.sol\":182:196  uint public id */\n    tag_67:\n      sload(0x0c)\n      dup2\n      jump\t// out\n        /* \"contracts/BaseContract.sol\":2626:2677  mapping(address=>Akademisyen) public akademisyenler */\n    tag_71:\n      mstore(0x20, 0x05)\n      dup1\n      0x00\n      mstore\n      keccak256(0x00, 0x40)\n      0x00\n      swap2\n      pop\n      swap1\n      pop\n      dup1\n      0x00\n      add\n      0x00\n      swap1\n      sload\n      swap1\n      0x0100\n      exp\n      swap1\n      div\n      0xff\n      and\n      swap1\n      dup1\n      0x00\n      add\n      0x01\n      swap1\n      sload\n      swap1\n      0x0100\n      exp\n      swap1\n      div\n      0xffffffffffffffffffffffffffffffffffffffff\n      and\n      swap1\n      dup1\n      0x00\n      add\n      0x15\n      swap1\n      sload\n      swap1\n      0x0100\n      exp\n      swap1\n      div\n      0xffff\n      and\n      swap1\n      dup1\n      0x00\n      add\n      0x17\n      swap1\n      sload\n      swap1\n      0x0100\n      exp\n      swap1\n      div\n      0xff\n      and\n      swap1\n      dup1\n      0x01\n      add\n      dup1\n      sload\n      tag_143\n      swap1\n      tag_80\n      jump\t// in\n    tag_143:\n      dup1\n      0x1f\n      add\n      0x20\n      dup1\n      swap2\n      div\n      mul\n      0x20\n      add\n      mload(0x40)\n      swap1\n      dup2\n      add\n      0x40\n      mstore\n      dup1\n      swap3\n      swap2\n      swap1\n      dup2\n      dup2\n      mstore\n      0x20\n      add\n      dup3\n      dup1\n      sload\n      tag_144\n      swap1\n      tag_80\n      jump\t// in\n    tag_144:\n      dup1\n      iszero\n      tag_145\n      jumpi\n      dup1\n      0x1f\n      lt\n      tag_146\n      jumpi\n      0x0100\n      dup1\n      dup4\n      sload\n      div\n      mul\n      dup4\n      mstore\n      swap2\n      0x20\n      add\n      swap2\n      jump(tag_145)\n    tag_146:\n      dup3\n      add\n      swap2\n      swap1\n      0x00\n      mstore\n      keccak256(0x00, 0x20)\n      swap1\n    tag_147:\n      dup2\n      sload\n      dup2\n      mstore\n      swap1\n      0x01\n      add\n      swap1\n      0x20\n      add\n      dup1\n      dup4\n      gt\n      tag_147\n      jumpi\n      dup3\n      swap1\n      sub\n      0x1f\n      and\n      dup3\n      add\n      swap2\n    tag_145:\n      pop\n      pop\n      pop\n      pop\n      pop\n      swap1\n      dup1\n      0x02\n      add\n      dup1\n      sload\n      tag_148\n      swap1\n      tag_80\n      jump\t// in\n    tag_148:\n      dup1\n      0x1f\n      add\n      0x20\n      dup1\n      swap2\n      div\n      mul\n      0x20\n      add\n      mload(0x40)\n      swap1\n      dup2\n      add\n      0x40\n      mstore\n      dup1\n      swap3\n      swap2\n      swap1\n      dup2\n      dup2\n      mstore\n      0x20\n      add\n      dup3\n      dup1\n      sload\n      tag_149\n      swap1\n      tag_80\n      jump\t// in\n    tag_149:\n      dup1\n      iszero\n      tag_150\n      jumpi\n      dup1\n      0x1f\n      lt\n      tag_151\n      jumpi\n      0x0100\n      dup1\n      dup4\n      sload\n      div\n      mul\n      dup4\n      mstore\n      swap2\n      0x20\n      add\n      swap2\n      jump(tag_150)\n    tag_151:\n      dup3\n      add\n      swap2\n      swap1\n      0x00\n      mstore\n      keccak256(0x00, 0x20)\n      swap1\n    tag_152:\n      dup2\n      sload\n      dup2\n      mstore\n      swap1\n      0x01\n      add\n      swap1\n      0x20\n      add\n      dup1\n      dup4\n      gt\n      tag_152\n      jumpi\n      dup3\n      swap1\n      sub\n      0x1f\n      and\n      dup3\n      add\n      swap2\n    tag_150:\n      pop\n      pop\n      pop\n      pop\n      pop\n      swap1\n      pop\n      dup7\n      jump\t// out\n        /* \"contracts/BaseContract.sol\":2526:2563  mapping(address=>Kisi) public kisiler */\n    tag_76:\n      mstore(0x20, 0x03)\n      dup1\n      0x00\n      mstore\n      keccak256(0x00, 0x40)\n      0x00\n      swap2\n      pop\n      swap1\n      pop\n      dup1\n      0x00\n      add\n      0x00\n      swap1\n      sload\n      swap1\n      0x0100\n      exp\n      swap1\n      div\n      0xff\n      and\n      swap1\n      pop\n      dup2\n      jump\t// out\n        /* \"#utility.yul\":7:146   */\n    tag_154:\n        /* \"#utility.yul\":53:58   */\n      0x00\n        /* \"#utility.yul\":91:97   */\n      dup2\n        /* \"#utility.yul\":78:98   */\n      calldataload\n        /* \"#utility.yul\":69:98   */\n      swap1\n      pop\n        /* \"#utility.yul\":107:140   */\n      tag_156\n        /* \"#utility.yul\":134:139   */\n      dup2\n        /* \"#utility.yul\":107:140   */\n      tag_157\n      jump\t// in\n    tag_156:\n        /* \"#utility.yul\":7:146   */\n      swap3\n      swap2\n      pop\n      pop\n      jump\t// out\n        /* \"#utility.yul\":152:291   */\n    tag_158:\n        /* \"#utility.yul\":198:203   */\n      0x00\n        /* \"#utility.yul\":236:242   */\n      dup2\n        /* \"#utility.yul\":223:243   */\n      calldataload\n        /* \"#utility.yul\":214:243   */\n      swap1\n      pop\n        /* \"#utility.yul\":252:285   */\n      tag_160\n        /* \"#utility.yul\":279:284   */\n      dup2\n        /* \"#utility.yul\":252:285   */\n      tag_161\n      jump\t// in\n    tag_160:\n        /* \"#utility.yul\":152:291   */\n      swap3\n      swap2\n      pop\n      pop\n      jump\t// out\n        /* \"#utility.yul\":297:468   */\n    tag_162:\n        /* \"#utility.yul\":359:364   */\n      0x00\n        /* \"#utility.yul\":397:403   */\n      dup2\n        /* \"#utility.yul\":384:404   */\n      calldataload\n        /* \"#utility.yul\":375:404   */\n      swap1\n      pop\n        /* \"#utility.yul\":413:462   */\n      tag_164\n        /* \"#utility.yul\":456:461   */\n      dup2\n        /* \"#utility.yul\":413:462   */\n      tag_165\n      jump\t// in\n    tag_164:\n        /* \"#utility.yul\":297:468   */\n      swap3\n      swap2\n      pop\n      pop\n      jump\t// out\n        /* \"#utility.yul\":474:643   */\n    tag_166:\n        /* \"#utility.yul\":535:540   */\n      0x00\n        /* \"#utility.yul\":573:579   */\n      dup2\n        /* \"#utility.yul\":560:580   */\n      calldataload\n        /* \"#utility.yul\":551:580   */\n      swap1\n      pop\n        /* \"#utility.yul\":589:637   */\n      tag_168\n        /* \"#utility.yul\":631:636   */\n      dup2\n        /* \"#utility.yul\":589:637   */\n      tag_169\n      jump\t// in\n    tag_168:\n        /* \"#utility.yul\":474:643   */\n      swap3\n      swap2\n      pop\n      pop\n      jump\t// out\n        /* \"#utility.yul\":691:2988   */\n    tag_170:\n        /* \"#utility.yul\":768:773   */\n      0x00\n        /* \"#utility.yul\":812:818   */\n      0x0180\n        /* \"#utility.yul\":800:809   */\n      dup3\n        /* \"#utility.yul\":795:798   */\n      dup5\n        /* \"#utility.yul\":791:810   */\n      sub\n        /* \"#utility.yul\":787:819   */\n      slt\n        /* \"#utility.yul\":784:903   */\n      iszero\n      tag_172\n      jumpi\n        /* \"#utility.yul\":822:901   */\n      tag_173\n      tag_174\n      jump\t// in\n    tag_173:\n        /* \"#utility.yul\":784:903   */\n    tag_172:\n        /* \"#utility.yul\":921:944   */\n      tag_175\n        /* \"#utility.yul\":937:943   */\n      0x0180\n        /* \"#utility.yul\":921:944   */\n      tag_176\n      jump\t// in\n    tag_175:\n        /* \"#utility.yul\":912:944   */\n      swap1\n      pop\n        /* \"#utility.yul\":1001:1002   */\n      0x00\n        /* \"#utility.yul\":1041:1090   */\n      tag_177\n        /* \"#utility.yul\":1086:1089   */\n      dup5\n        /* \"#utility.yul\":1077:1083   */\n      dup3\n        /* \"#utility.yul\":1066:1075   */\n      dup6\n        /* \"#utility.yul\":1062:1084   */\n      add\n        /* \"#utility.yul\":1041:1090   */\n      tag_178\n      jump\t// in\n    tag_177:\n        /* \"#utility.yul\":1034:1038   */\n      0x00\n        /* \"#utility.yul\":1027:1032   */\n      dup4\n        /* \"#utility.yul\":1023:1039   */\n      add\n        /* \"#utility.yul\":1016:1091   */\n      mstore\n        /* \"#utility.yul\":954:1102   */\n      pop\n        /* \"#utility.yul\":1169:1171   */\n      0x20\n        /* \"#utility.yul\":1210:1275   */\n      tag_179\n        /* \"#utility.yul\":1271:1274   */\n      dup5\n        /* \"#utility.yul\":1262:1268   */\n      dup3\n        /* \"#utility.yul\":1251:1260   */\n      dup6\n        /* \"#utility.yul\":1247:1269   */\n      add\n        /* \"#utility.yul\":1210:1275   */\n      tag_162\n      jump\t// in\n    tag_179:\n        /* \"#utility.yul\":1203:1207   */\n      0x20\n        /* \"#utility.yul\":1196:1201   */\n      dup4\n        /* \"#utility.yul\":1192:1208   */\n      add\n        /* \"#utility.yul\":1185:1276   */\n      mstore\n        /* \"#utility.yul\":1112:1287   */\n      pop\n        /* \"#utility.yul\":1350:1352   */\n      0x40\n        /* \"#utility.yul\":1391:1440   */\n      tag_180\n        /* \"#utility.yul\":1436:1439   */\n      dup5\n        /* \"#utility.yul\":1427:1433   */\n      dup3\n        /* \"#utility.yul\":1416:1425   */\n      dup6\n        /* \"#utility.yul\":1412:1434   */\n      add\n        /* \"#utility.yul\":1391:1440   */\n      tag_178\n      jump\t// in\n    tag_180:\n        /* \"#utility.yul\":1384:1388   */\n      0x40\n        /* \"#utility.yul\":1377:1382   */\n      dup4\n        /* \"#utility.yul\":1373:1389   */\n      add\n        /* \"#utility.yul\":1366:1441   */\n      mstore\n        /* \"#utility.yul\":1297:1452   */\n      pop\n        /* \"#utility.yul\":1515:1517   */\n      0x60\n        /* \"#utility.yul\":1556:1605   */\n      tag_181\n        /* \"#utility.yul\":1601:1604   */\n      dup5\n        /* \"#utility.yul\":1592:1598   */\n      dup3\n        /* \"#utility.yul\":1581:1590   */\n      dup6\n        /* \"#utility.yul\":1577:1599   */\n      add\n        /* \"#utility.yul\":1556:1605   */\n      tag_178\n      jump\t// in\n    tag_181:\n        /* \"#utility.yul\":1549:1553   */\n      0x60\n        /* \"#utility.yul\":1542:1547   */\n      dup4\n        /* \"#utility.yul\":1538:1554   */\n      add\n        /* \"#utility.yul\":1531:1606   */\n      mstore\n        /* \"#utility.yul\":1462:1617   */\n      pop\n        /* \"#utility.yul\":1683:1686   */\n      0x80\n        /* \"#utility.yul\":1725:1772   */\n      tag_182\n        /* \"#utility.yul\":1768:1771   */\n      dup5\n        /* \"#utility.yul\":1759:1765   */\n      dup3\n        /* \"#utility.yul\":1748:1757   */\n      dup6\n        /* \"#utility.yul\":1744:1766   */\n      add\n        /* \"#utility.yul\":1725:1772   */\n      tag_183\n      jump\t// in\n    tag_182:\n        /* \"#utility.yul\":1718:1722   */\n      0x80\n        /* \"#utility.yul\":1711:1716   */\n      dup4\n        /* \"#utility.yul\":1707:1723   */\n      add\n        /* \"#utility.yul\":1700:1773   */\n      mstore\n        /* \"#utility.yul\":1627:1784   */\n      pop\n        /* \"#utility.yul\":1851:1854   */\n      0xa0\n        /* \"#utility.yul\":1893:1942   */\n      tag_184\n        /* \"#utility.yul\":1938:1941   */\n      dup5\n        /* \"#utility.yul\":1929:1935   */\n      dup3\n        /* \"#utility.yul\":1918:1927   */\n      dup6\n        /* \"#utility.yul\":1914:1936   */\n      add\n        /* \"#utility.yul\":1893:1942   */\n      tag_158\n      jump\t// in\n    tag_184:\n        /* \"#utility.yul\":1886:1890   */\n      0xa0\n        /* \"#utility.yul\":1879:1884   */\n      dup4\n        /* \"#utility.yul\":1875:1891   */\n      add\n        /* \"#utility.yul\":1868:1943   */\n      mstore\n        /* \"#utility.yul\":1794:1954   */\n      pop\n        /* \"#utility.yul\":2024:2027   */\n      0xc0\n        /* \"#utility.yul\":2066:2115   */\n      tag_185\n        /* \"#utility.yul\":2111:2114   */\n      dup5\n        /* \"#utility.yul\":2102:2108   */\n      dup3\n        /* \"#utility.yul\":2091:2100   */\n      dup6\n        /* \"#utility.yul\":2087:2109   */\n      add\n        /* \"#utility.yul\":2066:2115   */\n      tag_158\n      jump\t// in\n    tag_185:\n        /* \"#utility.yul\":2059:2063   */\n      0xc0\n        /* \"#utility.yul\":2052:2057   */\n      dup4\n        /* \"#utility.yul\":2048:2064   */\n      add\n        /* \"#utility.yul\":2041:2116   */\n      mstore\n        /* \"#utility.yul\":1964:2127   */\n      pop\n        /* \"#utility.yul\":2192:2195   */\n      0xe0\n        /* \"#utility.yul\":2234:2283   */\n      tag_186\n        /* \"#utility.yul\":2279:2282   */\n      dup5\n        /* \"#utility.yul\":2270:2276   */\n      dup3\n        /* \"#utility.yul\":2259:2268   */\n      dup6\n        /* \"#utility.yul\":2255:2277   */\n      add\n        /* \"#utility.yul\":2234:2283   */\n      tag_154\n      jump\t// in\n    tag_186:\n        /* \"#utility.yul\":2227:2231   */\n      0xe0\n        /* \"#utility.yul\":2220:2225   */\n      dup4\n        /* \"#utility.yul\":2216:2232   */\n      add\n        /* \"#utility.yul\":2209:2284   */\n      mstore\n        /* \"#utility.yul\":2137:2295   */\n      pop\n        /* \"#utility.yul\":2357:2360   */\n      0x0100\n        /* \"#utility.yul\":2401:2449   */\n      tag_187\n        /* \"#utility.yul\":2445:2448   */\n      dup5\n        /* \"#utility.yul\":2436:2442   */\n      dup3\n        /* \"#utility.yul\":2425:2434   */\n      dup6\n        /* \"#utility.yul\":2421:2443   */\n      add\n        /* \"#utility.yul\":2401:2449   */\n      tag_188\n      jump\t// in\n    tag_187:\n        /* \"#utility.yul\":2392:2398   */\n      0x0100\n        /* \"#utility.yul\":2385:2390   */\n      dup4\n        /* \"#utility.yul\":2381:2399   */\n      add\n        /* \"#utility.yul\":2374:2450   */\n      mstore\n        /* \"#utility.yul\":2305:2461   */\n      pop\n        /* \"#utility.yul\":2521:2524   */\n      0x0120\n        /* \"#utility.yul\":2565:2613   */\n      tag_189\n        /* \"#utility.yul\":2609:2612   */\n      dup5\n        /* \"#utility.yul\":2600:2606   */\n      dup3\n        /* \"#utility.yul\":2589:2598   */\n      dup6\n        /* \"#utility.yul\":2585:2607   */\n      add\n        /* \"#utility.yul\":2565:2613   */\n      tag_188\n      jump\t// in\n    tag_189:\n        /* \"#utility.yul\":2556:2562   */\n      0x0120\n        /* \"#utility.yul\":2549:2554   */\n      dup4\n        /* \"#utility.yul\":2545:2563   */\n      add\n        /* \"#utility.yul\":2538:2614   */\n      mstore\n        /* \"#utility.yul\":2471:2625   */\n      pop\n        /* \"#utility.yul\":2691:2694   */\n      0x0140\n        /* \"#utility.yul\":2735:2799   */\n      tag_190\n        /* \"#utility.yul\":2795:2798   */\n      dup5\n        /* \"#utility.yul\":2786:2792   */\n      dup3\n        /* \"#utility.yul\":2775:2784   */\n      dup6\n        /* \"#utility.yul\":2771:2793   */\n      add\n        /* \"#utility.yul\":2735:2799   */\n      tag_166\n      jump\t// in\n    tag_190:\n        /* \"#utility.yul\":2726:2732   */\n      0x0140\n        /* \"#utility.yul\":2719:2724   */\n      dup4\n        /* \"#utility.yul\":2715:2733   */\n      add\n        /* \"#utility.yul\":2708:2800   */\n      mstore\n        /* \"#utility.yul\":2635:2811   */\n      pop\n        /* \"#utility.yul\":2877:2880   */\n      0x0160\n        /* \"#utility.yul\":2921:2969   */\n      tag_191\n        /* \"#utility.yul\":2965:2968   */\n      dup5\n        /* \"#utility.yul\":2956:2962   */\n      dup3\n        /* \"#utility.yul\":2945:2954   */\n      dup6\n        /* \"#utility.yul\":2941:2963   */\n      add\n        /* \"#utility.yul\":2921:2969   */\n      tag_192\n      jump\t// in\n    tag_191:\n        /* \"#utility.yul\":2912:2918   */\n      0x0160\n        /* \"#utility.yul\":2905:2910   */\n      dup4\n        /* \"#utility.yul\":2901:2919   */\n      add\n        /* \"#utility.yul\":2894:2970   */\n      mstore\n        /* \"#utility.yul\":2821:2981   */\n      pop\n        /* \"#utility.yul\":691:2988   */\n      swap3\n      swap2\n      pop\n      pop\n      jump\t// out\n        /* \"#utility.yul\":2994:3131   */\n    tag_188:\n        /* \"#utility.yul\":3039:3044   */\n      0x00\n        /* \"#utility.yul\":3077:3083   */\n      dup2\n        /* \"#utility.yul\":3064:3084   */\n      calldataload\n        /* \"#utility.yul\":3055:3084   */\n      swap1\n      pop\n        /* \"#utility.yul\":3093:3125   */\n      tag_194\n        /* \"#utility.yul\":3119:3124   */\n      dup2\n        /* \"#utility.yul\":3093:3125   */\n      tag_195\n      jump\t// in\n    tag_194:\n        /* \"#utility.yul\":2994:3131   */\n      swap3\n      swap2\n      pop\n      pop\n      jump\t// out\n        /* \"#utility.yul\":3137:3276   */\n    tag_178:\n        /* \"#utility.yul\":3183:3188   */\n      0x00\n        /* \"#utility.yul\":3221:3227   */\n      dup2\n        /* \"#utility.yul\":3208:3228   */\n      calldataload\n        /* \"#utility.yul\":3199:3228   */\n      swap1\n      pop\n        /* \"#utility.yul\":3237:3270   */\n      tag_197\n        /* \"#utility.yul\":3264:3269   */\n      dup2\n        /* \"#utility.yul\":3237:3270   */\n      tag_198\n      jump\t// in\n    tag_197:\n        /* \"#utility.yul\":3137:3276   */\n      swap3\n      swap2\n      pop\n      pop\n      jump\t// out\n        /* \"#utility.yul\":3282:3419   */\n    tag_192:\n        /* \"#utility.yul\":3327:3332   */\n      0x00\n        /* \"#utility.yul\":3365:3371   */\n      dup2\n        /* \"#utility.yul\":3352:3372   */\n      calldataload\n        /* \"#utility.yul\":3343:3372   */\n      swap1\n      pop\n        /* \"#utility.yul\":3381:3413   */\n      tag_200\n        /* \"#utility.yul\":3407:3412   */\n      dup2\n        /* \"#utility.yul\":3381:3413   */\n      tag_201\n      jump\t// in\n    tag_200:\n        /* \"#utility.yul\":3282:3419   */\n      swap3\n      swap2\n      pop\n      pop\n      jump\t// out\n        /* \"#utility.yul\":3425:3560   */\n    tag_183:\n        /* \"#utility.yul\":3469:3474   */\n      0x00\n        /* \"#utility.yul\":3507:3513   */\n      dup2\n        /* \"#utility.yul\":3494:3514   */\n      calldataload\n        /* \"#utility.yul\":3485:3514   */\n      swap1\n      pop\n        /* \"#utility.yul\":3523:3554   */\n      tag_203\n        /* \"#utility.yul\":3548:3553   */\n      dup2\n        /* \"#utility.yul\":3523:3554   */\n      tag_204\n      jump\t// in\n    tag_203:\n        /* \"#utility.yul\":3425:3560   */\n      swap3\n      swap2\n      pop\n      pop\n      jump\t// out\n        /* \"#utility.yul\":3566:3895   */\n    tag_20:\n        /* \"#utility.yul\":3625:3631   */\n      0x00\n        /* \"#utility.yul\":3674:3676   */\n      0x20\n        /* \"#utility.yul\":3662:3671   */\n      dup3\n        /* \"#utility.yul\":3653:3660   */\n      dup5\n        /* \"#utility.yul\":3649:3672   */\n      sub\n        /* \"#utility.yul\":3645:3677   */\n      slt\n        /* \"#utility.yul\":3642:3761   */\n      iszero\n      tag_206\n      jumpi\n        /* \"#utility.yul\":3680:3759   */\n      tag_207\n      tag_208\n      jump\t// in\n    tag_207:\n        /* \"#utility.yul\":3642:3761   */\n    tag_206:\n        /* \"#utility.yul\":3800:3801   */\n      0x00\n        /* \"#utility.yul\":3825:3878   */\n      tag_209\n        /* \"#utility.yul\":3870:3877   */\n      dup5\n        /* \"#utility.yul\":3861:3867   */\n      dup3\n        /* \"#utility.yul\":3850:3859   */\n      dup6\n        /* \"#utility.yul\":3846:3868   */\n      add\n        /* \"#utility.yul\":3825:3878   */\n      tag_154\n      jump\t// in\n    tag_209:\n        /* \"#utility.yul\":3815:3878   */\n      swap2\n      pop\n        /* \"#utility.yul\":3771:3888   */\n      pop\n        /* \"#utility.yul\":3566:3895   */\n      swap3\n      swap2\n      pop\n      pop\n      jump\t// out\n        /* \"#utility.yul\":3901:4432   */\n    tag_45:\n        /* \"#utility.yul\":3997:4003   */\n      0x00\n        /* \"#utility.yul\":4005:4011   */\n      dup1\n        /* \"#utility.yul\":4054:4057   */\n      0x01a0\n        /* \"#utility.yul\":4042:4051   */\n      dup4\n        /* \"#utility.yul\":4033:4040   */\n      dup6\n        /* \"#utility.yul\":4029:4052   */\n      sub\n        /* \"#utility.yul\":4025:4058   */\n      slt\n        /* \"#utility.yul\":4022:4142   */\n      iszero\n      tag_211\n      jumpi\n        /* \"#utility.yul\":4061:4140   */\n      tag_212\n      tag_208\n      jump\t// in\n    tag_212:\n        /* \"#utility.yul\":4022:4142   */\n    tag_211:\n        /* \"#utility.yul\":4181:4182   */\n      0x00\n        /* \"#utility.yul\":4206:4259   */\n      tag_213\n        /* \"#utility.yul\":4251:4258   */\n      dup6\n        /* \"#utility.yul\":4242:4248   */\n      dup3\n        /* \"#utility.yul\":4231:4240   */\n      dup7\n        /* \"#utility.yul\":4227:4249   */\n      add\n        /* \"#utility.yul\":4206:4259   */\n      tag_154\n      jump\t// in\n    tag_213:\n        /* \"#utility.yul\":4196:4259   */\n      swap3\n      pop\n        /* \"#utility.yul\":4152:4269   */\n      pop\n        /* \"#utility.yul\":4308:4310   */\n      0x20\n        /* \"#utility.yul\":4334:4415   */\n      tag_214\n        /* \"#utility.yul\":4407:4414   */\n      dup6\n        /* \"#utility.yul\":4398:4404   */\n      dup3\n        /* \"#utility.yul\":4387:4396   */\n      dup7\n        /* \"#utility.yul\":4383:4405   */\n      add\n        /* \"#utility.yul\":4334:4415   */\n      tag_170\n      jump\t// in\n    tag_214:\n        /* \"#utility.yul\":4324:4415   */\n      swap2\n      pop\n        /* \"#utility.yul\":4279:4425   */\n      pop\n        /* \"#utility.yul\":3901:4432   */\n      swap3\n      pop\n      swap3\n      swap1\n      pop\n      jump\t// out\n        /* \"#utility.yul\":4438:4912   */\n    tag_30:\n        /* \"#utility.yul\":4506:4512   */\n      0x00\n        /* \"#utility.yul\":4514:4520   */\n      dup1\n        /* \"#utility.yul\":4563:4565   */\n      0x40\n        /* \"#utility.yul\":4551:4560   */\n      dup4\n        /* \"#utility.yul\":4542:4549   */\n      dup6\n        /* \"#utility.yul\":4538:4561   */\n      sub\n        /* \"#utility.yul\":4534:4566   */\n      slt\n        /* \"#utility.yul\":4531:4650   */\n      iszero\n      tag_216\n      jumpi\n        /* \"#utility.yul\":4569:4648   */\n      tag_217\n      tag_208\n      jump\t// in\n    tag_217:\n        /* \"#utility.yul\":4531:4650   */\n    tag_216:\n        /* \"#utility.yul\":4689:4690   */\n      0x00\n        /* \"#utility.yul\":4714:4767   */\n      tag_218\n        /* \"#utility.yul\":4759:4766   */\n      dup6\n        /* \"#utility.yul\":4750:4756   */\n      dup3\n        /* \"#utility.yul\":4739:4748   */\n      dup7\n        /* \"#utility.yul\":4735:4757   */\n      add\n        /* \"#utility.yul\":4714:4767   */\n      tag_154\n      jump\t// in\n    tag_218:\n        /* \"#utility.yul\":4704:4767   */\n      swap3\n      pop\n        /* \"#utility.yul\":4660:4777   */\n      pop\n        /* \"#utility.yul\":4816:4818   */\n      0x20\n        /* \"#utility.yul\":4842:4895   */\n      tag_219\n        /* \"#utility.yul\":4887:4894   */\n      dup6\n        /* \"#utility.yul\":4878:4884   */\n      dup3\n        /* \"#utility.yul\":4867:4876   */\n      dup7\n        /* \"#utility.yul\":4863:4885   */\n      add\n        /* \"#utility.yul\":4842:4895   */\n      tag_178\n      jump\t// in\n    tag_219:\n        /* \"#utility.yul\":4832:4895   */\n      swap2\n      pop\n        /* \"#utility.yul\":4787:4905   */\n      pop\n        /* \"#utility.yul\":4438:4912   */\n      swap3\n      pop\n      swap3\n      swap1\n      pop\n      jump\t// out\n        /* \"#utility.yul\":4918:5245   */\n    tag_62:\n        /* \"#utility.yul\":4976:4982   */\n      0x00\n        /* \"#utility.yul\":5025:5027   */\n      0x20\n        /* \"#utility.yul\":5013:5022   */\n      dup3\n        /* \"#utility.yul\":5004:5011   */\n      dup5\n        /* \"#utility.yul\":5000:5023   */\n      sub\n        /* \"#utility.yul\":4996:5028   */\n      slt\n        /* \"#utility.yul\":4993:5112   */\n      iszero\n      tag_221\n      jumpi\n        /* \"#utility.yul\":5031:5110   */\n      tag_222\n      tag_208\n      jump\t// in\n    tag_222:\n        /* \"#utility.yul\":4993:5112   */\n    tag_221:\n        /* \"#utility.yul\":5151:5152   */\n      0x00\n        /* \"#utility.yul\":5176:5228   */\n      tag_223\n        /* \"#utility.yul\":5220:5227   */\n      dup5\n        /* \"#utility.yul\":5211:5217   */\n      dup3\n        /* \"#utility.yul\":5200:5209   */\n      dup6\n        /* \"#utility.yul\":5196:5218   */\n      add\n        /* \"#utility.yul\":5176:5228   */\n      tag_192\n      jump\t// in\n    tag_223:\n        /* \"#utility.yul\":5166:5228   */\n      swap2\n      pop\n        /* \"#utility.yul\":5122:5238   */\n      pop\n        /* \"#utility.yul\":4918:5245   */\n      swap3\n      swap2\n      pop\n      pop\n      jump\t// out\n        /* \"#utility.yul\":5251:5369   */\n    tag_224:\n        /* \"#utility.yul\":5338:5362   */\n      tag_226\n        /* \"#utility.yul\":5356:5361   */\n      dup2\n        /* \"#utility.yul\":5338:5362   */\n      tag_227\n      jump\t// in\n    tag_226:\n        /* \"#utility.yul\":5333:5336   */\n      dup3\n        /* \"#utility.yul\":5326:5363   */\n      mstore\n        /* \"#utility.yul\":5251:5369   */\n      pop\n      pop\n      jump\t// out\n        /* \"#utility.yul\":5375:5484   */\n    tag_228:\n        /* \"#utility.yul\":5456:5477   */\n      tag_230\n        /* \"#utility.yul\":5471:5476   */\n      dup2\n        /* \"#utility.yul\":5456:5477   */\n      tag_231\n      jump\t// in\n    tag_230:\n        /* \"#utility.yul\":5451:5454   */\n      dup3\n        /* \"#utility.yul\":5444:5478   */\n      mstore\n        /* \"#utility.yul\":5375:5484   */\n      pop\n      pop\n      jump\t// out\n        /* \"#utility.yul\":5490:5608   */\n    tag_232:\n        /* \"#utility.yul\":5577:5601   */\n      tag_234\n        /* \"#utility.yul\":5595:5600   */\n      dup2\n        /* \"#utility.yul\":5577:5601   */\n      tag_235\n      jump\t// in\n    tag_234:\n        /* \"#utility.yul\":5572:5575   */\n      dup3\n        /* \"#utility.yul\":5565:5602   */\n      mstore\n        /* \"#utility.yul\":5490:5608   */\n      pop\n      pop\n      jump\t// out\n        /* \"#utility.yul\":5614:5773   */\n    tag_236:\n        /* \"#utility.yul\":5715:5766   */\n      tag_238\n        /* \"#utility.yul\":5760:5765   */\n      dup2\n        /* \"#utility.yul\":5715:5766   */\n      tag_239\n      jump\t// in\n    tag_238:\n        /* \"#utility.yul\":5710:5713   */\n      dup3\n        /* \"#utility.yul\":5703:5767   */\n      mstore\n        /* \"#utility.yul\":5614:5773   */\n      pop\n      pop\n      jump\t// out\n        /* \"#utility.yul\":5779:5936   */\n    tag_240:\n        /* \"#utility.yul\":5879:5929   */\n      tag_242\n        /* \"#utility.yul\":5923:5928   */\n      dup2\n        /* \"#utility.yul\":5879:5929   */\n      tag_243\n      jump\t// in\n    tag_242:\n        /* \"#utility.yul\":5874:5877   */\n      dup3\n        /* \"#utility.yul\":5867:5930   */\n      mstore\n        /* \"#utility.yul\":5779:5936   */\n      pop\n      pop\n      jump\t// out\n        /* \"#utility.yul\":5942:6085   */\n    tag_244:\n        /* \"#utility.yul\":6035:6078   */\n      tag_246\n        /* \"#utility.yul\":6072:6077   */\n      dup2\n        /* \"#utility.yul\":6035:6078   */\n      tag_247\n      jump\t// in\n    tag_246:\n        /* \"#utility.yul\":6030:6033   */\n      dup3\n        /* \"#utility.yul\":6023:6079   */\n      mstore\n        /* \"#utility.yul\":5942:6085   */\n      pop\n      pop\n      jump\t// out\n        /* \"#utility.yul\":6091:6455   */\n    tag_248:\n        /* \"#utility.yul\":6179:6182   */\n      0x00\n        /* \"#utility.yul\":6207:6246   */\n      tag_250\n        /* \"#utility.yul\":6240:6245   */\n      dup3\n        /* \"#utility.yul\":6207:6246   */\n      tag_251\n      jump\t// in\n    tag_250:\n        /* \"#utility.yul\":6262:6333   */\n      tag_252\n        /* \"#utility.yul\":6326:6332   */\n      dup2\n        /* \"#utility.yul\":6321:6324   */\n      dup6\n        /* \"#utility.yul\":6262:6333   */\n      tag_253\n      jump\t// in\n    tag_252:\n        /* \"#utility.yul\":6255:6333   */\n      swap4\n      pop\n        /* \"#utility.yul\":6342:6394   */\n      tag_254\n        /* \"#utility.yul\":6387:6393   */\n      dup2\n        /* \"#utility.yul\":6382:6385   */\n      dup6\n        /* \"#utility.yul\":6375:6379   */\n      0x20\n        /* \"#utility.yul\":6368:6373   */\n      dup7\n        /* \"#utility.yul\":6364:6380   */\n      add\n        /* \"#utility.yul\":6342:6394   */\n      tag_255\n      jump\t// in\n    tag_254:\n        /* \"#utility.yul\":6419:6448   */\n      tag_256\n        /* \"#utility.yul\":6441:6447   */\n      dup2\n        /* \"#utility.yul\":6419:6448   */\n      tag_257\n      jump\t// in\n    tag_256:\n        /* \"#utility.yul\":6414:6417   */\n      dup5\n        /* \"#utility.yul\":6410:6449   */\n      add\n        /* \"#utility.yul\":6403:6449   */\n      swap2\n      pop\n        /* \"#utility.yul\":6183:6455   */\n      pop\n        /* \"#utility.yul\":6091:6455   */\n      swap3\n      swap2\n      pop\n      pop\n      jump\t// out\n        /* \"#utility.yul\":6461:6827   */\n    tag_258:\n        /* \"#utility.yul\":6603:6606   */\n      0x00\n        /* \"#utility.yul\":6624:6691   */\n      tag_260\n        /* \"#utility.yul\":6688:6690   */\n      0x26\n        /* \"#utility.yul\":6683:6686   */\n      dup4\n        /* \"#utility.yul\":6624:6691   */\n      tag_253\n      jump\t// in\n    tag_260:\n        /* \"#utility.yul\":6617:6691   */\n      swap2\n      pop\n        /* \"#utility.yul\":6700:6793   */\n      tag_261\n        /* \"#utility.yul\":6789:6792   */\n      dup3\n        /* \"#utility.yul\":6700:6793   */\n      tag_262\n      jump\t// in\n    tag_261:\n        /* \"#utility.yul\":6818:6820   */\n      0x40\n        /* \"#utility.yul\":6813:6816   */\n      dup3\n        /* \"#utility.yul\":6809:6821   */\n      add\n        /* \"#utility.yul\":6802:6821   */\n      swap1\n      pop\n        /* \"#utility.yul\":6461:6827   */\n      swap2\n      swap1\n      pop\n      jump\t// out\n        /* \"#utility.yul\":6833:7199   */\n    tag_263:\n        /* \"#utility.yul\":6975:6978   */\n      0x00\n        /* \"#utility.yul\":6996:7063   */\n      tag_265\n        /* \"#utility.yul\":7060:7062   */\n      0x12\n        /* \"#utility.yul\":7055:7058   */\n      dup4\n        /* \"#utility.yul\":6996:7063   */\n      tag_253\n      jump\t// in\n    tag_265:\n        /* \"#utility.yul\":6989:7063   */\n      swap2\n      pop\n        /* \"#utility.yul\":7072:7165   */\n      tag_266\n        /* \"#utility.yul\":7161:7164   */\n      dup3\n        /* \"#utility.yul\":7072:7165   */\n      tag_267\n      jump\t// in\n    tag_266:\n        /* \"#utility.yul\":7190:7192   */\n      0x20\n        /* \"#utility.yul\":7185:7188   */\n      dup3\n        /* \"#utility.yul\":7181:7193   */\n      add\n        /* \"#utility.yul\":7174:7193   */\n      swap1\n      pop\n        /* \"#utility.yul\":6833:7199   */\n      swap2\n      swap1\n      pop\n      jump\t// out\n        /* \"#utility.yul\":7205:7320   */\n    tag_268:\n        /* \"#utility.yul\":7290:7313   */\n      tag_270\n        /* \"#utility.yul\":7307:7312   */\n      dup2\n        /* \"#utility.yul\":7290:7313   */\n      tag_271\n      jump\t// in\n    tag_270:\n        /* \"#utility.yul\":7285:7288   */\n      dup3\n        /* \"#utility.yul\":7278:7314   */\n      mstore\n        /* \"#utility.yul\":7205:7320   */\n      pop\n      pop\n      jump\t// out\n        /* \"#utility.yul\":7326:7444   */\n    tag_272:\n        /* \"#utility.yul\":7413:7437   */\n      tag_274\n        /* \"#utility.yul\":7431:7436   */\n      dup2\n        /* \"#utility.yul\":7413:7437   */\n      tag_275\n      jump\t// in\n    tag_274:\n        /* \"#utility.yul\":7408:7411   */\n      dup3\n        /* \"#utility.yul\":7401:7438   */\n      mstore\n        /* \"#utility.yul\":7326:7444   */\n      pop\n      pop\n      jump\t// out\n        /* \"#utility.yul\":7450:7565   */\n    tag_276:\n        /* \"#utility.yul\":7535:7558   */\n      tag_278\n        /* \"#utility.yul\":7552:7557   */\n      dup2\n        /* \"#utility.yul\":7535:7558   */\n      tag_279\n      jump\t// in\n    tag_278:\n        /* \"#utility.yul\":7530:7533   */\n      dup3\n        /* \"#utility.yul\":7523:7559   */\n      mstore\n        /* \"#utility.yul\":7450:7565   */\n      pop\n      pop\n      jump\t// out\n        /* \"#utility.yul\":7571:7683   */\n    tag_280:\n        /* \"#utility.yul\":7654:7676   */\n      tag_282\n        /* \"#utility.yul\":7670:7675   */\n      dup2\n        /* \"#utility.yul\":7654:7676   */\n      tag_283\n      jump\t// in\n    tag_282:\n        /* \"#utility.yul\":7649:7652   */\n      dup3\n        /* \"#utility.yul\":7642:7677   */\n      mstore\n        /* \"#utility.yul\":7571:7683   */\n      pop\n      pop\n      jump\t// out\n        /* \"#utility.yul\":7689:7899   */\n    tag_78:\n        /* \"#utility.yul\":7776:7780   */\n      0x00\n        /* \"#utility.yul\":7814:7816   */\n      0x20\n        /* \"#utility.yul\":7803:7812   */\n      dup3\n        /* \"#utility.yul\":7799:7817   */\n      add\n        /* \"#utility.yul\":7791:7817   */\n      swap1\n      pop\n        /* \"#utility.yul\":7827:7892   */\n      tag_285\n        /* \"#utility.yul\":7889:7890   */\n      0x00\n        /* \"#utility.yul\":7878:7887   */\n      dup4\n        /* \"#utility.yul\":7874:7891   */\n      add\n        /* \"#utility.yul\":7865:7871   */\n      dup5\n        /* \"#utility.yul\":7827:7892   */\n      tag_228\n      jump\t// in\n    tag_285:\n        /* \"#utility.yul\":7689:7899   */\n      swap3\n      swap2\n      pop\n      pop\n      jump\t// out\n        /* \"#utility.yul\":7905:8858   */\n    tag_73:\n        /* \"#utility.yul\":8176:8180   */\n      0x00\n        /* \"#utility.yul\":8214:8217   */\n      0xc0\n        /* \"#utility.yul\":8203:8212   */\n      dup3\n        /* \"#utility.yul\":8199:8218   */\n      add\n        /* \"#utility.yul\":8191:8218   */\n      swap1\n      pop\n        /* \"#utility.yul\":8228:8293   */\n      tag_287\n        /* \"#utility.yul\":8290:8291   */\n      0x00\n        /* \"#utility.yul\":8279:8288   */\n      dup4\n        /* \"#utility.yul\":8275:8292   */\n      add\n        /* \"#utility.yul\":8266:8272   */\n      dup10\n        /* \"#utility.yul\":8228:8293   */\n      tag_228\n      jump\t// in\n    tag_287:\n        /* \"#utility.yul\":8303:8375   */\n      tag_288\n        /* \"#utility.yul\":8371:8373   */\n      0x20\n        /* \"#utility.yul\":8360:8369   */\n      dup4\n        /* \"#utility.yul\":8356:8374   */\n      add\n        /* \"#utility.yul\":8347:8353   */\n      dup9\n        /* \"#utility.yul\":8303:8375   */\n      tag_224\n      jump\t// in\n    tag_288:\n        /* \"#utility.yul\":8385:8455   */\n      tag_289\n        /* \"#utility.yul\":8451:8453   */\n      0x40\n        /* \"#utility.yul\":8440:8449   */\n      dup4\n        /* \"#utility.yul\":8436:8454   */\n      add\n        /* \"#utility.yul\":8427:8433   */\n      dup8\n        /* \"#utility.yul\":8385:8455   */\n      tag_268\n      jump\t// in\n    tag_289:\n        /* \"#utility.yul\":8465:8543   */\n      tag_290\n        /* \"#utility.yul\":8539:8541   */\n      0x60\n        /* \"#utility.yul\":8528:8537   */\n      dup4\n        /* \"#utility.yul\":8524:8542   */\n      add\n        /* \"#utility.yul\":8515:8521   */\n      dup7\n        /* \"#utility.yul\":8465:8543   */\n      tag_244\n      jump\t// in\n    tag_290:\n        /* \"#utility.yul\":8591:8600   */\n      dup2\n        /* \"#utility.yul\":8585:8589   */\n      dup2\n        /* \"#utility.yul\":8581:8601   */\n      sub\n        /* \"#utility.yul\":8575:8578   */\n      0x80\n        /* \"#utility.yul\":8564:8573   */\n      dup4\n        /* \"#utility.yul\":8560:8579   */\n      add\n        /* \"#utility.yul\":8553:8602   */\n      mstore\n        /* \"#utility.yul\":8619:8697   */\n      tag_291\n        /* \"#utility.yul\":8692:8696   */\n      dup2\n        /* \"#utility.yul\":8683:8689   */\n      dup6\n        /* \"#utility.yul\":8619:8697   */\n      tag_248\n      jump\t// in\n    tag_291:\n        /* \"#utility.yul\":8611:8697   */\n      swap1\n      pop\n        /* \"#utility.yul\":8745:8754   */\n      dup2\n        /* \"#utility.yul\":8739:8743   */\n      dup2\n        /* \"#utility.yul\":8735:8755   */\n      sub\n        /* \"#utility.yul\":8729:8732   */\n      0xa0\n        /* \"#utility.yul\":8718:8727   */\n      dup4\n        /* \"#utility.yul\":8714:8733   */\n      add\n        /* \"#utility.yul\":8707:8756   */\n      mstore\n        /* \"#utility.yul\":8773:8851   */\n      tag_292\n        /* \"#utility.yul\":8846:8850   */\n      dup2\n        /* \"#utility.yul\":8837:8843   */\n      dup5\n        /* \"#utility.yul\":8773:8851   */\n      tag_248\n      jump\t// in\n    tag_292:\n        /* \"#utility.yul\":8765:8851   */\n      swap1\n      pop\n        /* \"#utility.yul\":7905:8858   */\n      swap8\n      swap7\n      pop\n      pop\n      pop\n      pop\n      pop\n      pop\n      pop\n      jump\t// out\n        /* \"#utility.yul\":8864:9377   */\n    tag_23:\n        /* \"#utility.yul\":9023:9027   */\n      0x00\n        /* \"#utility.yul\":9061:9063   */\n      0x60\n        /* \"#utility.yul\":9050:9059   */\n      dup3\n        /* \"#utility.yul\":9046:9064   */\n      add\n        /* \"#utility.yul\":9038:9064   */\n      swap1\n      pop\n        /* \"#utility.yul\":9074:9139   */\n      tag_294\n        /* \"#utility.yul\":9136:9137   */\n      0x00\n        /* \"#utility.yul\":9125:9134   */\n      dup4\n        /* \"#utility.yul\":9121:9138   */\n      add\n        /* \"#utility.yul\":9112:9118   */\n      dup7\n        /* \"#utility.yul\":9074:9139   */\n      tag_228\n      jump\t// in\n    tag_294:\n        /* \"#utility.yul\":9186:9195   */\n      dup2\n        /* \"#utility.yul\":9180:9184   */\n      dup2\n        /* \"#utility.yul\":9176:9196   */\n      sub\n        /* \"#utility.yul\":9171:9173   */\n      0x20\n        /* \"#utility.yul\":9160:9169   */\n      dup4\n        /* \"#utility.yul\":9156:9174   */\n      add\n        /* \"#utility.yul\":9149:9197   */\n      mstore\n        /* \"#utility.yul\":9214:9292   */\n      tag_295\n        /* \"#utility.yul\":9287:9291   */\n      dup2\n        /* \"#utility.yul\":9278:9284   */\n      dup6\n        /* \"#utility.yul\":9214:9292   */\n      tag_248\n      jump\t// in\n    tag_295:\n        /* \"#utility.yul\":9206:9292   */\n      swap1\n      pop\n        /* \"#utility.yul\":9302:9370   */\n      tag_296\n        /* \"#utility.yul\":9366:9368   */\n      0x40\n        /* \"#utility.yul\":9355:9364   */\n      dup4\n        /* \"#utility.yul\":9351:9369   */\n      add\n        /* \"#utility.yul\":9342:9348   */\n      dup5\n        /* \"#utility.yul\":9302:9370   */\n      tag_280\n      jump\t// in\n    tag_296:\n        /* \"#utility.yul\":8864:9377   */\n      swap5\n      swap4\n      pop\n      pop\n      pop\n      pop\n      jump\t// out\n        /* \"#utility.yul\":9383:10007   */\n    tag_42:\n        /* \"#utility.yul\":9570:9574   */\n      0x00\n        /* \"#utility.yul\":9608:9611   */\n      0x80\n        /* \"#utility.yul\":9597:9606   */\n      dup3\n        /* \"#utility.yul\":9593:9612   */\n      add\n        /* \"#utility.yul\":9585:9612   */\n      swap1\n      pop\n        /* \"#utility.yul\":9622:9687   */\n      tag_298\n        /* \"#utility.yul\":9684:9685   */\n      0x00\n        /* \"#utility.yul\":9673:9682   */\n      dup4\n        /* \"#utility.yul\":9669:9686   */\n      add\n        /* \"#utility.yul\":9660:9666   */\n      dup8\n        /* \"#utility.yul\":9622:9687   */\n      tag_228\n      jump\t// in\n    tag_298:\n        /* \"#utility.yul\":9697:9765   */\n      tag_299\n        /* \"#utility.yul\":9761:9763   */\n      0x20\n        /* \"#utility.yul\":9750:9759   */\n      dup4\n        /* \"#utility.yul\":9746:9764   */\n      add\n        /* \"#utility.yul\":9737:9743   */\n      dup7\n        /* \"#utility.yul\":9697:9765   */\n      tag_280\n      jump\t// in\n    tag_299:\n        /* \"#utility.yul\":9775:9847   */\n      tag_300\n        /* \"#utility.yul\":9843:9845   */\n      0x40\n        /* \"#utility.yul\":9832:9841   */\n      dup4\n        /* \"#utility.yul\":9828:9846   */\n      add\n        /* \"#utility.yul\":9819:9825   */\n      dup6\n        /* \"#utility.yul\":9775:9847   */\n      tag_272\n      jump\t// in\n    tag_300:\n        /* \"#utility.yul\":9894:9903   */\n      dup2\n        /* \"#utility.yul\":9888:9892   */\n      dup2\n        /* \"#utility.yul\":9884:9904   */\n      sub\n        /* \"#utility.yul\":9879:9881   */\n      0x60\n        /* \"#utility.yul\":9868:9877   */\n      dup4\n        /* \"#utility.yul\":9864:9882   */\n      add\n        /* \"#utility.yul\":9857:9905   */\n      mstore\n        /* \"#utility.yul\":9922:10000   */\n      tag_301\n        /* \"#utility.yul\":9995:9999   */\n      dup2\n        /* \"#utility.yul\":9986:9992   */\n      dup5\n        /* \"#utility.yul\":9922:10000   */\n      tag_248\n      jump\t// in\n    tag_301:\n        /* \"#utility.yul\":9914:10000   */\n      swap1\n      pop\n        /* \"#utility.yul\":9383:10007   */\n      swap6\n      swap5\n      pop\n      pop\n      pop\n      pop\n      pop\n      jump\t// out\n        /* \"#utility.yul\":10013:10432   */\n    tag_103:\n        /* \"#utility.yul\":10179:10183   */\n      0x00\n        /* \"#utility.yul\":10217:10219   */\n      0x20\n        /* \"#utility.yul\":10206:10215   */\n      dup3\n        /* \"#utility.yul\":10202:10220   */\n      add\n        /* \"#utility.yul\":10194:10220   */\n      swap1\n      pop\n        /* \"#utility.yul\":10266:10275   */\n      dup2\n        /* \"#utility.yul\":10260:10264   */\n      dup2\n        /* \"#utility.yul\":10256:10276   */\n      sub\n        /* \"#utility.yul\":10252:10253   */\n      0x00\n        /* \"#utility.yul\":10241:10250   */\n      dup4\n        /* \"#utility.yul\":10237:10254   */\n      add\n        /* \"#utility.yul\":10230:10277   */\n      mstore\n        /* \"#utility.yul\":10294:10425   */\n      tag_303\n        /* \"#utility.yul\":10420:10424   */\n      dup2\n        /* \"#utility.yul\":10294:10425   */\n      tag_258\n      jump\t// in\n    tag_303:\n        /* \"#utility.yul\":10286:10425   */\n      swap1\n      pop\n        /* \"#utility.yul\":10013:10432   */\n      swap2\n      swap1\n      pop\n      jump\t// out\n        /* \"#utility.yul\":10438:10857   */\n    tag_107:\n        /* \"#utility.yul\":10604:10608   */\n      0x00\n        /* \"#utility.yul\":10642:10644   */\n      0x20\n        /* \"#utility.yul\":10631:10640   */\n      dup3\n        /* \"#utility.yul\":10627:10645   */\n      add\n        /* \"#utility.yul\":10619:10645   */\n      swap1\n      pop\n        /* \"#utility.yul\":10691:10700   */\n      dup2\n        /* \"#utility.yul\":10685:10689   */\n      dup2\n        /* \"#utility.yul\":10681:10701   */\n      sub\n        /* \"#utility.yul\":10677:10678   */\n      0x00\n        /* \"#utility.yul\":10666:10675   */\n      dup4\n        /* \"#utility.yul\":10662:10679   */\n      add\n        /* \"#utility.yul\":10655:10702   */\n      mstore\n        /* \"#utility.yul\":10719:10850   */\n      tag_305\n        /* \"#utility.yul\":10845:10849   */\n      dup2\n        /* \"#utility.yul\":10719:10850   */\n      tag_263\n      jump\t// in\n    tag_305:\n        /* \"#utility.yul\":10711:10850   */\n      swap1\n      pop\n        /* \"#utility.yul\":10438:10857   */\n      swap2\n      swap1\n      pop\n      jump\t// out\n        /* \"#utility.yul\":10863:11085   */\n    tag_55:\n        /* \"#utility.yul\":10956:10960   */\n      0x00\n        /* \"#utility.yul\":10994:10996   */\n      0x20\n        /* \"#utility.yul\":10983:10992   */\n      dup3\n        /* \"#utility.yul\":10979:10997   */\n      add\n        /* \"#utility.yul\":10971:10997   */\n      swap1\n      pop\n        /* \"#utility.yul\":11007:11078   */\n      tag_307\n        /* \"#utility.yul\":11075:11076   */\n      0x00\n        /* \"#utility.yul\":11064:11073   */\n      dup4\n        /* \"#utility.yul\":11060:11077   */\n      add\n        /* \"#utility.yul\":11051:11057   */\n      dup5\n        /* \"#utility.yul\":11007:11078   */\n      tag_272\n      jump\t// in\n    tag_307:\n        /* \"#utility.yul\":10863:11085   */\n      swap3\n      swap2\n      pop\n      pop\n      jump\t// out\n        /* \"#utility.yul\":11091:11644   */\n    tag_116:\n        /* \"#utility.yul\":11268:11272   */\n      0x00\n        /* \"#utility.yul\":11306:11309   */\n      0x80\n        /* \"#utility.yul\":11295:11304   */\n      dup3\n        /* \"#utility.yul\":11291:11310   */\n      add\n        /* \"#utility.yul\":11283:11310   */\n      swap1\n      pop\n        /* \"#utility.yul\":11320:11391   */\n      tag_309\n        /* \"#utility.yul\":11388:11389   */\n      0x00\n        /* \"#utility.yul\":11377:11386   */\n      dup4\n        /* \"#utility.yul\":11373:11390   */\n      add\n        /* \"#utility.yul\":11364:11370   */\n      dup8\n        /* \"#utility.yul\":11320:11391   */\n      tag_272\n      jump\t// in\n    tag_309:\n        /* \"#utility.yul\":11401:11473   */\n      tag_310\n        /* \"#utility.yul\":11469:11471   */\n      0x20\n        /* \"#utility.yul\":11458:11467   */\n      dup4\n        /* \"#utility.yul\":11454:11472   */\n      add\n        /* \"#utility.yul\":11445:11451   */\n      dup7\n        /* \"#utility.yul\":11401:11473   */\n      tag_224\n      jump\t// in\n    tag_310:\n        /* \"#utility.yul\":11483:11555   */\n      tag_311\n        /* \"#utility.yul\":11551:11553   */\n      0x40\n        /* \"#utility.yul\":11540:11549   */\n      dup4\n        /* \"#utility.yul\":11536:11554   */\n      add\n        /* \"#utility.yul\":11527:11533   */\n      dup6\n        /* \"#utility.yul\":11483:11555   */\n      tag_272\n      jump\t// in\n    tag_311:\n        /* \"#utility.yul\":11565:11637   */\n      tag_312\n        /* \"#utility.yul\":11633:11635   */\n      0x60\n        /* \"#utility.yul\":11622:11631   */\n      dup4\n        /* \"#utility.yul\":11618:11636   */\n      add\n        /* \"#utility.yul\":11609:11615   */\n      dup5\n        /* \"#utility.yul\":11565:11637   */\n      tag_272\n      jump\t// in\n    tag_312:\n        /* \"#utility.yul\":11091:11644   */\n      swap6\n      swap5\n      pop\n      pop\n      pop\n      pop\n      pop\n      jump\t// out\n        /* \"#utility.yul\":11650:13129   */\n    tag_33:\n        /* \"#utility.yul\":12070:12074   */\n      0x00\n        /* \"#utility.yul\":12108:12111   */\n      0x0180\n        /* \"#utility.yul\":12097:12106   */\n      dup3\n        /* \"#utility.yul\":12093:12112   */\n      add\n        /* \"#utility.yul\":12085:12112   */\n      swap1\n      pop\n        /* \"#utility.yul\":12122:12193   */\n      tag_314\n        /* \"#utility.yul\":12190:12191   */\n      0x00\n        /* \"#utility.yul\":12179:12188   */\n      dup4\n        /* \"#utility.yul\":12175:12192   */\n      add\n        /* \"#utility.yul\":12166:12172   */\n      dup16\n        /* \"#utility.yul\":12122:12193   */\n      tag_272\n      jump\t// in\n    tag_314:\n        /* \"#utility.yul\":12203:12289   */\n      tag_315\n        /* \"#utility.yul\":12285:12287   */\n      0x20\n        /* \"#utility.yul\":12274:12283   */\n      dup4\n        /* \"#utility.yul\":12270:12288   */\n      add\n        /* \"#utility.yul\":12261:12267   */\n      dup15\n        /* \"#utility.yul\":12203:12289   */\n      tag_236\n      jump\t// in\n    tag_315:\n        /* \"#utility.yul\":12299:12371   */\n      tag_316\n        /* \"#utility.yul\":12367:12369   */\n      0x40\n        /* \"#utility.yul\":12356:12365   */\n      dup4\n        /* \"#utility.yul\":12352:12370   */\n      add\n        /* \"#utility.yul\":12343:12349   */\n      dup14\n        /* \"#utility.yul\":12299:12371   */\n      tag_272\n      jump\t// in\n    tag_316:\n        /* \"#utility.yul\":12381:12453   */\n      tag_317\n        /* \"#utility.yul\":12449:12451   */\n      0x60\n        /* \"#utility.yul\":12438:12447   */\n      dup4\n        /* \"#utility.yul\":12434:12452   */\n      add\n        /* \"#utility.yul\":12425:12431   */\n      dup13\n        /* \"#utility.yul\":12381:12453   */\n      tag_272\n      jump\t// in\n    tag_317:\n        /* \"#utility.yul\":12463:12532   */\n      tag_318\n        /* \"#utility.yul\":12527:12530   */\n      0x80\n        /* \"#utility.yul\":12516:12525   */\n      dup4\n        /* \"#utility.yul\":12512:12531   */\n      add\n        /* \"#utility.yul\":12503:12509   */\n      dup12\n        /* \"#utility.yul\":12463:12532   */\n      tag_280\n      jump\t// in\n    tag_318:\n        /* \"#utility.yul\":12542:12615   */\n      tag_319\n        /* \"#utility.yul\":12610:12613   */\n      0xa0\n        /* \"#utility.yul\":12599:12608   */\n      dup4\n        /* \"#utility.yul\":12595:12614   */\n      add\n        /* \"#utility.yul\":12586:12592   */\n      dup11\n        /* \"#utility.yul\":12542:12615   */\n      tag_232\n      jump\t// in\n    tag_319:\n        /* \"#utility.yul\":12625:12698   */\n      tag_320\n        /* \"#utility.yul\":12693:12696   */\n      0xc0\n        /* \"#utility.yul\":12682:12691   */\n      dup4\n        /* \"#utility.yul\":12678:12697   */\n      add\n        /* \"#utility.yul\":12669:12675   */\n      dup10\n        /* \"#utility.yul\":12625:12698   */\n      tag_232\n      jump\t// in\n    tag_320:\n        /* \"#utility.yul\":12708:12781   */\n      tag_321\n        /* \"#utility.yul\":12776:12779   */\n      0xe0\n        /* \"#utility.yul\":12765:12774   */\n      dup4\n        /* \"#utility.yul\":12761:12780   */\n      add\n        /* \"#utility.yul\":12752:12758   */\n      dup9\n        /* \"#utility.yul\":12708:12781   */\n      tag_224\n      jump\t// in\n    tag_321:\n        /* \"#utility.yul\":12791:12862   */\n      tag_322\n        /* \"#utility.yul\":12857:12860   */\n      0x0100\n        /* \"#utility.yul\":12846:12855   */\n      dup4\n        /* \"#utility.yul\":12842:12861   */\n      add\n        /* \"#utility.yul\":12833:12839   */\n      dup8\n        /* \"#utility.yul\":12791:12862   */\n      tag_268\n      jump\t// in\n    tag_322:\n        /* \"#utility.yul\":12872:12943   */\n      tag_323\n        /* \"#utility.yul\":12938:12941   */\n      0x0120\n        /* \"#utility.yul\":12927:12936   */\n      dup4\n        /* \"#utility.yul\":12923:12942   */\n      add\n        /* \"#utility.yul\":12914:12920   */\n      dup7\n        /* \"#utility.yul\":12872:12943   */\n      tag_268\n      jump\t// in\n    tag_323:\n        /* \"#utility.yul\":12953:13040   */\n      tag_324\n        /* \"#utility.yul\":13035:13038   */\n      0x0140\n        /* \"#utility.yul\":13024:13033   */\n      dup4\n        /* \"#utility.yul\":13020:13039   */\n      add\n        /* \"#utility.yul\":13010:13017   */\n      dup6\n        /* \"#utility.yul\":12953:13040   */\n      tag_240\n      jump\t// in\n    tag_324:\n        /* \"#utility.yul\":13050:13122   */\n      tag_325\n        /* \"#utility.yul\":13117:13120   */\n      0x0160\n        /* \"#utility.yul\":13106:13115   */\n      dup4\n        /* \"#utility.yul\":13102:13121   */\n      add\n        /* \"#utility.yul\":13092:13099   */\n      dup5\n        /* \"#utility.yul\":13050:13122   */\n      tag_276\n      jump\t// in\n    tag_325:\n        /* \"#utility.yul\":11650:13129   */\n      swap14\n      swap13\n      pop\n      pop\n      pop\n      pop\n      pop\n      pop\n      pop\n      pop\n      pop\n      pop\n      pop\n      pop\n      pop\n      jump\t// out\n        /* \"#utility.yul\":13135:13554   */\n    tag_65:\n        /* \"#utility.yul\":13274:13278   */\n      0x00\n        /* \"#utility.yul\":13312:13314   */\n      0x40\n        /* \"#utility.yul\":13301:13310   */\n      dup3\n        /* \"#utility.yul\":13297:13315   */\n      add\n        /* \"#utility.yul\":13289:13315   */\n      swap1\n      pop\n        /* \"#utility.yul\":13325:13394   */\n      tag_327\n        /* \"#utility.yul\":13391:13392   */\n      0x00\n        /* \"#utility.yul\":13380:13389   */\n      dup4\n        /* \"#utility.yul\":13376:13393   */\n      add\n        /* \"#utility.yul\":13367:13373   */\n      dup6\n        /* \"#utility.yul\":13325:13394   */\n      tag_276\n      jump\t// in\n    tag_327:\n        /* \"#utility.yul\":13441:13450   */\n      dup2\n        /* \"#utility.yul\":13435:13439   */\n      dup2\n        /* \"#utility.yul\":13431:13451   */\n      sub\n        /* \"#utility.yul\":13426:13428   */\n      0x20\n        /* \"#utility.yul\":13415:13424   */\n      dup4\n        /* \"#utility.yul\":13411:13429   */\n      add\n        /* \"#utility.yul\":13404:13452   */\n      mstore\n        /* \"#utility.yul\":13469:13547   */\n      tag_328\n        /* \"#utility.yul\":13542:13546   */\n      dup2\n        /* \"#utility.yul\":13533:13539   */\n      dup5\n        /* \"#utility.yul\":13469:13547   */\n      tag_248\n      jump\t// in\n    tag_328:\n        /* \"#utility.yul\":13461:13547   */\n      swap1\n      pop\n        /* \"#utility.yul\":13135:13554   */\n      swap4\n      swap3\n      pop\n      pop\n      pop\n      jump\t// out\n        /* \"#utility.yul\":13560:13689   */\n    tag_176:\n        /* \"#utility.yul\":13594:13600   */\n      0x00\n        /* \"#utility.yul\":13621:13641   */\n      tag_330\n      tag_331\n      jump\t// in\n    tag_330:\n        /* \"#utility.yul\":13611:13641   */\n      swap1\n      pop\n        /* \"#utility.yul\":13650:13683   */\n      tag_332\n        /* \"#utility.yul\":13678:13682   */\n      dup3\n        /* \"#utility.yul\":13670:13676   */\n      dup3\n        /* \"#utility.yul\":13650:13683   */\n      tag_333\n      jump\t// in\n    tag_332:\n        /* \"#utility.yul\":13560:13689   */\n      swap2\n      swap1\n      pop\n      jump\t// out\n        /* \"#utility.yul\":13695:13770   */\n    tag_331:\n        /* \"#utility.yul\":13728:13734   */\n      0x00\n        /* \"#utility.yul\":13761:13763   */\n      0x40\n        /* \"#utility.yul\":13755:13764   */\n      mload\n        /* \"#utility.yul\":13745:13764   */\n      swap1\n      pop\n        /* \"#utility.yul\":13695:13770   */\n      swap1\n      jump\t// out\n        /* \"#utility.yul\":13776:13875   */\n    tag_251:\n        /* \"#utility.yul\":13828:13834   */\n      0x00\n        /* \"#utility.yul\":13862:13867   */\n      dup2\n        /* \"#utility.yul\":13856:13868   */\n      mload\n        /* \"#utility.yul\":13846:13868   */\n      swap1\n      pop\n        /* \"#utility.yul\":13776:13875   */\n      swap2\n      swap1\n      pop\n      jump\t// out\n        /* \"#utility.yul\":13881:14050   */\n    tag_253:\n        /* \"#utility.yul\":13965:13976   */\n      0x00\n        /* \"#utility.yul\":13999:14005   */\n      dup3\n        /* \"#utility.yul\":13994:13997   */\n      dup3\n        /* \"#utility.yul\":13987:14006   */\n      mstore\n        /* \"#utility.yul\":14039:14043   */\n      0x20\n        /* \"#utility.yul\":14034:14037   */\n      dup3\n        /* \"#utility.yul\":14030:14044   */\n      add\n        /* \"#utility.yul\":14015:14044   */\n      swap1\n      pop\n        /* \"#utility.yul\":13881:14050   */\n      swap3\n      swap2\n      pop\n      pop\n      jump\t// out\n        /* \"#utility.yul\":14056:14152   */\n    tag_227:\n        /* \"#utility.yul\":14093:14100   */\n      0x00\n        /* \"#utility.yul\":14122:14146   */\n      tag_338\n        /* \"#utility.yul\":14140:14145   */\n      dup3\n        /* \"#utility.yul\":14122:14146   */\n      tag_339\n      jump\t// in\n    tag_338:\n        /* \"#utility.yul\":14111:14146   */\n      swap1\n      pop\n        /* \"#utility.yul\":14056:14152   */\n      swap2\n      swap1\n      pop\n      jump\t// out\n        /* \"#utility.yul\":14158:14248   */\n    tag_231:\n        /* \"#utility.yul\":14192:14199   */\n      0x00\n        /* \"#utility.yul\":14235:14240   */\n      dup2\n        /* \"#utility.yul\":14228:14241   */\n      iszero\n        /* \"#utility.yul\":14221:14242   */\n      iszero\n        /* \"#utility.yul\":14210:14242   */\n      swap1\n      pop\n        /* \"#utility.yul\":14158:14248   */\n      swap2\n      swap1\n      pop\n      jump\t// out\n        /* \"#utility.yul\":14254:14331   */\n    tag_235:\n        /* \"#utility.yul\":14291:14298   */\n      0x00\n        /* \"#utility.yul\":14320:14325   */\n      dup2\n        /* \"#utility.yul\":14309:14325   */\n      swap1\n      pop\n        /* \"#utility.yul\":14254:14331   */\n      swap2\n      swap1\n      pop\n      jump\t// out\n        /* \"#utility.yul\":14337:14480   */\n    tag_342:\n        /* \"#utility.yul\":14390:14397   */\n      0x00\n        /* \"#utility.yul\":14419:14424   */\n      dup2\n        /* \"#utility.yul\":14408:14424   */\n      swap1\n      pop\n        /* \"#utility.yul\":14425:14474   */\n      tag_344\n        /* \"#utility.yul\":14468:14473   */\n      dup3\n        /* \"#utility.yul\":14425:14474   */\n      tag_345\n      jump\t// in\n    tag_344:\n        /* \"#utility.yul\":14337:14480   */\n      swap2\n      swap1\n      pop\n      jump\t// out\n        /* \"#utility.yul\":14486:14627   */\n    tag_346:\n        /* \"#utility.yul\":14538:14545   */\n      0x00\n        /* \"#utility.yul\":14567:14572   */\n      dup2\n        /* \"#utility.yul\":14556:14572   */\n      swap1\n      pop\n        /* \"#utility.yul\":14573:14621   */\n      tag_348\n        /* \"#utility.yul\":14615:14620   */\n      dup3\n        /* \"#utility.yul\":14573:14621   */\n      tag_349\n      jump\t// in\n    tag_348:\n        /* \"#utility.yul\":14486:14627   */\n      swap2\n      swap1\n      pop\n      jump\t// out\n        /* \"#utility.yul\":14633:14760   */\n    tag_350:\n        /* \"#utility.yul\":14678:14685   */\n      0x00\n        /* \"#utility.yul\":14707:14712   */\n      dup2\n        /* \"#utility.yul\":14696:14712   */\n      swap1\n      pop\n        /* \"#utility.yul\":14713:14754   */\n      tag_352\n        /* \"#utility.yul\":14748:14753   */\n      dup3\n        /* \"#utility.yul\":14713:14754   */\n      tag_353\n      jump\t// in\n    tag_352:\n        /* \"#utility.yul\":14633:14760   */\n      swap2\n      swap1\n      pop\n      jump\t// out\n        /* \"#utility.yul\":14766:14855   */\n    tag_271:\n        /* \"#utility.yul\":14802:14809   */\n      0x00\n        /* \"#utility.yul\":14842:14848   */\n      0xffff\n        /* \"#utility.yul\":14835:14840   */\n      dup3\n        /* \"#utility.yul\":14831:14849   */\n      and\n        /* \"#utility.yul\":14820:14849   */\n      swap1\n      pop\n        /* \"#utility.yul\":14766:14855   */\n      swap2\n      swap1\n      pop\n      jump\t// out\n        /* \"#utility.yul\":14861:14987   */\n    tag_339:\n        /* \"#utility.yul\":14898:14905   */\n      0x00\n        /* \"#utility.yul\":14938:14980   */\n      0xffffffffffffffffffffffffffffffffffffffff\n        /* \"#utility.yul\":14931:14936   */\n      dup3\n        /* \"#utility.yul\":14927:14981   */\n      and\n        /* \"#utility.yul\":14916:14981   */\n      swap1\n      pop\n        /* \"#utility.yul\":14861:14987   */\n      swap2\n      swap1\n      pop\n      jump\t// out\n        /* \"#utility.yul\":14993:15070   */\n    tag_275:\n        /* \"#utility.yul\":15030:15037   */\n      0x00\n        /* \"#utility.yul\":15059:15064   */\n      dup2\n        /* \"#utility.yul\":15048:15064   */\n      swap1\n      pop\n        /* \"#utility.yul\":14993:15070   */\n      swap2\n      swap1\n      pop\n      jump\t// out\n        /* \"#utility.yul\":15076:15169   */\n    tag_279:\n        /* \"#utility.yul\":15112:15119   */\n      0x00\n        /* \"#utility.yul\":15152:15162   */\n      0xffffffff\n        /* \"#utility.yul\":15145:15150   */\n      dup3\n        /* \"#utility.yul\":15141:15163   */\n      and\n        /* \"#utility.yul\":15130:15163   */\n      swap1\n      pop\n        /* \"#utility.yul\":15076:15169   */\n      swap2\n      swap1\n      pop\n      jump\t// out\n        /* \"#utility.yul\":15175:15261   */\n    tag_283:\n        /* \"#utility.yul\":15210:15217   */\n      0x00\n        /* \"#utility.yul\":15250:15254   */\n      0xff\n        /* \"#utility.yul\":15243:15248   */\n      dup3\n        /* \"#utility.yul\":15239:15255   */\n      and\n        /* \"#utility.yul\":15228:15255   */\n      swap1\n      pop\n        /* \"#utility.yul\":15175:15261   */\n      swap2\n      swap1\n      pop\n      jump\t// out\n        /* \"#utility.yul\":15267:15410   */\n    tag_239:\n        /* \"#utility.yul\":15331:15340   */\n      0x00\n        /* \"#utility.yul\":15364:15404   */\n      tag_360\n        /* \"#utility.yul\":15398:15403   */\n      dup3\n        /* \"#utility.yul\":15364:15404   */\n      tag_342\n      jump\t// in\n    tag_360:\n        /* \"#utility.yul\":15351:15404   */\n      swap1\n      pop\n        /* \"#utility.yul\":15267:15410   */\n      swap2\n      swap1\n      pop\n      jump\t// out\n        /* \"#utility.yul\":15416:15557   */\n    tag_243:\n        /* \"#utility.yul\":15479:15488   */\n      0x00\n        /* \"#utility.yul\":15512:15551   */\n      tag_362\n        /* \"#utility.yul\":15545:15550   */\n      dup3\n        /* \"#utility.yul\":15512:15551   */\n      tag_346\n      jump\t// in\n    tag_362:\n        /* \"#utility.yul\":15499:15551   */\n      swap1\n      pop\n        /* \"#utility.yul\":15416:15557   */\n      swap2\n      swap1\n      pop\n      jump\t// out\n        /* \"#utility.yul\":15563:15690   */\n    tag_247:\n        /* \"#utility.yul\":15619:15628   */\n      0x00\n        /* \"#utility.yul\":15652:15684   */\n      tag_364\n        /* \"#utility.yul\":15678:15683   */\n      dup3\n        /* \"#utility.yul\":15652:15684   */\n      tag_350\n      jump\t// in\n    tag_364:\n        /* \"#utility.yul\":15639:15684   */\n      swap1\n      pop\n        /* \"#utility.yul\":15563:15690   */\n      swap2\n      swap1\n      pop\n      jump\t// out\n        /* \"#utility.yul\":15696:16003   */\n    tag_255:\n        /* \"#utility.yul\":15764:15765   */\n      0x00\n        /* \"#utility.yul\":15774:15887   */\n    tag_366:\n        /* \"#utility.yul\":15788:15794   */\n      dup4\n        /* \"#utility.yul\":15785:15786   */\n      dup2\n        /* \"#utility.yul\":15782:15795   */\n      lt\n        /* \"#utility.yul\":15774:15887   */\n      iszero\n      tag_368\n      jumpi\n        /* \"#utility.yul\":15873:15874   */\n      dup1\n        /* \"#utility.yul\":15868:15871   */\n      dup3\n        /* \"#utility.yul\":15864:15875   */\n      add\n        /* \"#utility.yul\":15858:15876   */\n      mload\n        /* \"#utility.yul\":15854:15855   */\n      dup2\n        /* \"#utility.yul\":15849:15852   */\n      dup5\n        /* \"#utility.yul\":15845:15856   */\n      add\n        /* \"#utility.yul\":15838:15877   */\n      mstore\n        /* \"#utility.yul\":15810:15812   */\n      0x20\n        /* \"#utility.yul\":15807:15808   */\n      dup2\n        /* \"#utility.yul\":15803:15813   */\n      add\n        /* \"#utility.yul\":15798:15813   */\n      swap1\n      pop\n        /* \"#utility.yul\":15774:15887   */\n      jump(tag_366)\n    tag_368:\n        /* \"#utility.yul\":15905:15911   */\n      dup4\n        /* \"#utility.yul\":15902:15903   */\n      dup2\n        /* \"#utility.yul\":15899:15912   */\n      gt\n        /* \"#utility.yul\":15896:15997   */\n      iszero\n      tag_369\n      jumpi\n        /* \"#utility.yul\":15985:15986   */\n      0x00\n        /* \"#utility.yul\":15976:15982   */\n      dup5\n        /* \"#utility.yul\":15971:15974   */\n      dup5\n        /* \"#utility.yul\":15967:15983   */\n      add\n        /* \"#utility.yul\":15960:15987   */\n      mstore\n        /* \"#utility.yul\":15896:15997   */\n    tag_369:\n        /* \"#utility.yul\":15745:16003   */\n      pop\n        /* \"#utility.yul\":15696:16003   */\n      pop\n      pop\n      pop\n      jump\t// out\n        /* \"#utility.yul\":16009:16329   */\n    tag_80:\n        /* \"#utility.yul\":16053:16059   */\n      0x00\n        /* \"#utility.yul\":16090:16091   */\n      0x02\n        /* \"#utility.yul\":16084:16088   */\n      dup3\n        /* \"#utility.yul\":16080:16092   */\n      div\n        /* \"#utility.yul\":16070:16092   */\n      swap1\n      pop\n        /* \"#utility.yul\":16137:16138   */\n      0x01\n        /* \"#utility.yul\":16131:16135   */\n      dup3\n        /* \"#utility.yul\":16127:16139   */\n      and\n        /* \"#utility.yul\":16158:16176   */\n      dup1\n        /* \"#utility.yul\":16148:16229   */\n      tag_371\n      jumpi\n        /* \"#utility.yul\":16214:16218   */\n      0x7f\n        /* \"#utility.yul\":16206:16212   */\n      dup3\n        /* \"#utility.yul\":16202:16219   */\n      and\n        /* \"#utility.yul\":16192:16219   */\n      swap2\n      pop\n        /* \"#utility.yul\":16148:16229   */\n    tag_371:\n        /* \"#utility.yul\":16276:16278   */\n      0x20\n        /* \"#utility.yul\":16268:16274   */\n      dup3\n        /* \"#utility.yul\":16265:16279   */\n      lt\n        /* \"#utility.yul\":16245:16263   */\n      dup2\n        /* \"#utility.yul\":16242:16280   */\n      eq\n        /* \"#utility.yul\":16239:16323   */\n      iszero\n      tag_372\n      jumpi\n        /* \"#utility.yul\":16295:16313   */\n      tag_373\n      tag_374\n      jump\t// in\n    tag_373:\n        /* \"#utility.yul\":16239:16323   */\n    tag_372:\n        /* \"#utility.yul\":16060:16329   */\n      pop\n        /* \"#utility.yul\":16009:16329   */\n      swap2\n      swap1\n      pop\n      jump\t// out\n        /* \"#utility.yul\":16335:16616   */\n    tag_333:\n        /* \"#utility.yul\":16418:16445   */\n      tag_376\n        /* \"#utility.yul\":16440:16444   */\n      dup3\n        /* \"#utility.yul\":16418:16445   */\n      tag_257\n      jump\t// in\n    tag_376:\n        /* \"#utility.yul\":16410:16416   */\n      dup2\n        /* \"#utility.yul\":16406:16446   */\n      add\n        /* \"#utility.yul\":16548:16554   */\n      dup2\n        /* \"#utility.yul\":16536:16546   */\n      dup2\n        /* \"#utility.yul\":16533:16555   */\n      lt\n        /* \"#utility.yul\":16512:16530   */\n      0xffffffffffffffff\n        /* \"#utility.yul\":16500:16510   */\n      dup3\n        /* \"#utility.yul\":16497:16531   */\n      gt\n        /* \"#utility.yul\":16494:16556   */\n      or\n        /* \"#utility.yul\":16491:16579   */\n      iszero\n      tag_377\n      jumpi\n        /* \"#utility.yul\":16559:16577   */\n      tag_378\n      tag_379\n      jump\t// in\n    tag_378:\n        /* \"#utility.yul\":16491:16579   */\n    tag_377:\n        /* \"#utility.yul\":16599:16609   */\n      dup1\n        /* \"#utility.yul\":16595:16597   */\n      0x40\n        /* \"#utility.yul\":16588:16610   */\n      mstore\n        /* \"#utility.yul\":16378:16616   */\n      pop\n        /* \"#utility.yul\":16335:16616   */\n      pop\n      pop\n      jump\t// out\n        /* \"#utility.yul\":16622:16855   */\n    tag_109:\n        /* \"#utility.yul\":16661:16664   */\n      0x00\n        /* \"#utility.yul\":16684:16708   */\n      tag_381\n        /* \"#utility.yul\":16702:16707   */\n      dup3\n        /* \"#utility.yul\":16684:16708   */\n      tag_275\n      jump\t// in\n    tag_381:\n        /* \"#utility.yul\":16675:16708   */\n      swap2\n      pop\n        /* \"#utility.yul\":16730:16796   */\n      0xffffffffffffffffffffffffffffffffffffffffffffffffffffffffffffffff\n        /* \"#utility.yul\":16723:16728   */\n      dup3\n        /* \"#utility.yul\":16720:16797   */\n      eq\n        /* \"#utility.yul\":16717:16820   */\n      iszero\n      tag_382\n      jumpi\n        /* \"#utility.yul\":16800:16818   */\n      tag_383\n      tag_384\n      jump\t// in\n    tag_383:\n        /* \"#utility.yul\":16717:16820   */\n    tag_382:\n        /* \"#utility.yul\":16847:16848   */\n      0x01\n        /* \"#utility.yul\":16840:16845   */\n      dup3\n        /* \"#utility.yul\":16836:16849   */\n      add\n        /* \"#utility.yul\":16829:16849   */\n      swap1\n      pop\n        /* \"#utility.yul\":16622:16855   */\n      swap2\n      swap1\n      pop\n      jump\t// out\n        /* \"#utility.yul\":16861:17041   */\n    tag_384:\n        /* \"#utility.yul\":16909:16986   */\n      0x4e487b7100000000000000000000000000000000000000000000000000000000\n        /* \"#utility.yul\":16906:16907   */\n      0x00\n        /* \"#utility.yul\":16899:16987   */\n      mstore\n        /* \"#utility.yul\":17006:17010   */\n      0x11\n        /* \"#utility.yul\":17003:17004   */\n      0x04\n        /* \"#utility.yul\":16996:17011   */\n      mstore\n        /* \"#utility.yul\":17030:17034   */\n      0x24\n        /* \"#utility.yul\":17027:17028   */\n      0x00\n        /* \"#utility.yul\":17020:17035   */\n      revert\n        /* \"#utility.yul\":17047:17227   */\n    tag_112:\n        /* \"#utility.yul\":17095:17172   */\n      0x4e487b7100000000000000000000000000000000000000000000000000000000\n        /* \"#utility.yul\":17092:17093   */\n      0x00\n        /* \"#utility.yul\":17085:17173   */\n      mstore\n        /* \"#utility.yul\":17192:17196   */\n      0x21\n        /* \"#utility.yul\":17189:17190   */\n      0x04\n        /* \"#utility.yul\":17182:17197   */\n      mstore\n        /* \"#utility.yul\":17216:17220   */\n      0x24\n        /* \"#utility.yul\":17213:17214   */\n      0x00\n        /* \"#utility.yul\":17206:17221   */\n      revert\n        /* \"#utility.yul\":17233:17413   */\n    tag_374:\n        /* \"#utility.yul\":17281:17358   */\n      0x4e487b7100000000000000000000000000000000000000000000000000000000\n        /* \"#utility.yul\":17278:17279   */\n      0x00\n        /* \"#utility.yul\":17271:17359   */\n      mstore\n        /* \"#utility.yul\":17378:17382   */\n      0x22\n        /* \"#utility.yul\":17375:17376   */\n      0x04\n        /* \"#utility.yul\":17368:17383   */\n      mstore\n        /* \"#utility.yul\":17402:17406   */\n      0x24\n        /* \"#utility.yul\":17399:17400   */\n      0x00\n        /* \"#utility.yul\":17392:17407   */\n      revert\n        /* \"#utility.yul\":17419:17599   */\n    tag_379:\n        /* \"#utility.yul\":17467:17544   */\n      0x4e487b7100000000000000000000000000000000000000000000000000000000\n        /* \"#utility.yul\":17464:17465   */\n      0x00\n        /* \"#utility.yul\":17457:17545   */\n      mstore\n        /* \"#utility.yul\":17564:17568   */\n      0x41\n        /* \"#utility.yul\":17561:17562   */\n      0x04\n        /* \"#utility.yul\":17554:17569   */\n      mstore\n        /* \"#utility.yul\":17588:17592   */\n      0x24\n        /* \"#utility.yul\":17585:17586   */\n      0x00\n        /* \"#utility.yul\":17578:17593   */\n      revert\n        /* \"#utility.yul\":17605:17722   */\n    tag_174:\n        /* \"#utility.yul\":17714:17715   */\n      0x00\n        /* \"#utility.yul\":17711:17712   */\n      dup1\n        /* \"#utility.yul\":17704:17716   */\n      revert\n        /* \"#utility.yul\":17974:18091   */\n    tag_208:\n        /* \"#utility.yul\":18083:18084   */\n      0x00\n        /* \"#utility.yul\":18080:18081   */\n      dup1\n        /* \"#utility.yul\":18073:18085   */\n      revert\n        /* \"#utility.yul\":18097:18199   */\n    tag_257:\n        /* \"#utility.yul\":18138:18144   */\n      0x00\n        /* \"#utility.yul\":18189:18191   */\n      0x1f\n        /* \"#utility.yul\":18185:18192   */\n      not\n        /* \"#utility.yul\":18180:18182   */\n      0x1f\n        /* \"#utility.yul\":18173:18178   */\n      dup4\n        /* \"#utility.yul\":18169:18183   */\n      add\n        /* \"#utility.yul\":18165:18193   */\n      and\n        /* \"#utility.yul\":18155:18193   */\n      swap1\n      pop\n        /* \"#utility.yul\":18097:18199   */\n      swap2\n      swap1\n      pop\n      jump\t// out\n        /* \"#utility.yul\":18205:18430   */\n    tag_262:\n        /* \"#utility.yul\":18345:18379   */\n      0x53616465636520556e69766572736974652062752069736c656d692079617061\n        /* \"#utility.yul\":18341:18342   */\n      0x00\n        /* \"#utility.yul\":18333:18339   */\n      dup3\n        /* \"#utility.yul\":18329:18343   */\n      add\n        /* \"#utility.yul\":18322:18380   */\n      mstore\n        /* \"#utility.yul\":18414:18422   */\n      0x62696c69722e0000000000000000000000000000000000000000000000000000\n        /* \"#utility.yul\":18409:18411   */\n      0x20\n        /* \"#utility.yul\":18401:18407   */\n      dup3\n        /* \"#utility.yul\":18397:18412   */\n      add\n        /* \"#utility.yul\":18390:18423   */\n      mstore\n        /* \"#utility.yul\":18205:18430   */\n      pop\n      jump\t// out\n        /* \"#utility.yul\":18436:18604   */\n    tag_267:\n        /* \"#utility.yul\":18576:18596   */\n      0x53747564656e74206e6f74206578697374730000000000000000000000000000\n        /* \"#utility.yul\":18572:18573   */\n      0x00\n        /* \"#utility.yul\":18564:18570   */\n      dup3\n        /* \"#utility.yul\":18560:18574   */\n      add\n        /* \"#utility.yul\":18553:18597   */\n      mstore\n        /* \"#utility.yul\":18436:18604   */\n      pop\n      jump\t// out\n        /* \"#utility.yul\":18610:18731   */\n    tag_345:\n        /* \"#utility.yul\":18699:18700   */\n      0x04\n        /* \"#utility.yul\":18692:18697   */\n      dup2\n        /* \"#utility.yul\":18689:18701   */\n      lt\n        /* \"#utility.yul\":18679:18725   */\n      tag_399\n      jumpi\n        /* \"#utility.yul\":18705:18723   */\n      tag_400\n      tag_112\n      jump\t// in\n    tag_400:\n        /* \"#utility.yul\":18679:18725   */\n    tag_399:\n        /* \"#utility.yul\":18610:18731   */\n      pop\n      jump\t// out\n        /* \"#utility.yul\":18737:18857   */\n    tag_349:\n        /* \"#utility.yul\":18825:18826   */\n      0x04\n        /* \"#utility.yul\":18818:18823   */\n      dup2\n        /* \"#utility.yul\":18815:18827   */\n      lt\n        /* \"#utility.yul\":18805:18851   */\n      tag_402\n      jumpi\n        /* \"#utility.yul\":18831:18849   */\n      tag_403\n      tag_112\n      jump\t// in\n    tag_403:\n        /* \"#utility.yul\":18805:18851   */\n    tag_402:\n        /* \"#utility.yul\":18737:18857   */\n      pop\n      jump\t// out\n        /* \"#utility.yul\":18863:18976   */\n    tag_353:\n        /* \"#utility.yul\":18944:18945   */\n      0x04\n        /* \"#utility.yul\":18937:18942   */\n      dup2\n        /* \"#utility.yul\":18934:18946   */\n      lt\n        /* \"#utility.yul\":18924:18970   */\n      tag_405\n      jumpi\n        /* \"#utility.yul\":18950:18968   */\n      tag_406\n      tag_112\n      jump\t// in\n    tag_406:\n        /* \"#utility.yul\":18924:18970   */\n    tag_405:\n        /* \"#utility.yul\":18863:18976   */\n      pop\n      jump\t// out\n        /* \"#utility.yul\":18982:19104   */\n    tag_157:\n        /* \"#utility.yul\":19055:19079   */\n      tag_408\n        /* \"#utility.yul\":19073:19078   */\n      dup2\n        /* \"#utility.yul\":19055:19079   */\n      tag_227\n      jump\t// in\n    tag_408:\n        /* \"#utility.yul\":19048:19053   */\n      dup2\n        /* \"#utility.yul\":19045:19080   */\n      eq\n        /* \"#utility.yul\":19035:19098   */\n      tag_409\n      jumpi\n        /* \"#utility.yul\":19094:19095   */\n      0x00\n        /* \"#utility.yul\":19091:19092   */\n      dup1\n        /* \"#utility.yul\":19084:19096   */\n      revert\n        /* \"#utility.yul\":19035:19098   */\n    tag_409:\n        /* \"#utility.yul\":18982:19104   */\n      pop\n      jump\t// out\n        /* \"#utility.yul\":19110:19232   */\n    tag_161:\n        /* \"#utility.yul\":19183:19207   */\n      tag_411\n        /* \"#utility.yul\":19201:19206   */\n      dup2\n        /* \"#utility.yul\":19183:19207   */\n      tag_235\n      jump\t// in\n    tag_411:\n        /* \"#utility.yul\":19176:19181   */\n      dup2\n        /* \"#utility.yul\":19173:19208   */\n      eq\n        /* \"#utility.yul\":19163:19226   */\n      tag_412\n      jumpi\n        /* \"#utility.yul\":19222:19223   */\n      0x00\n        /* \"#utility.yul\":19219:19220   */\n      dup1\n        /* \"#utility.yul\":19212:19224   */\n      revert\n        /* \"#utility.yul\":19163:19226   */\n    tag_412:\n        /* \"#utility.yul\":19110:19232   */\n      pop\n      jump\t// out\n        /* \"#utility.yul\":19238:19353   */\n    tag_165:\n        /* \"#utility.yul\":19327:19328   */\n      0x04\n        /* \"#utility.yul\":19320:19325   */\n      dup2\n        /* \"#utility.yul\":19317:19329   */\n      lt\n        /* \"#utility.yul\":19307:19347   */\n      tag_414\n      jumpi\n        /* \"#utility.yul\":19343:19344   */\n      0x00\n        /* \"#utility.yul\":19340:19341   */\n      dup1\n        /* \"#utility.yul\":19333:19345   */\n      revert\n        /* \"#utility.yul\":19307:19347   */\n    tag_414:\n        /* \"#utility.yul\":19238:19353   */\n      pop\n      jump\t// out\n        /* \"#utility.yul\":19359:19473   */\n    tag_169:\n        /* \"#utility.yul\":19447:19448   */\n      0x04\n        /* \"#utility.yul\":19440:19445   */\n      dup2\n        /* \"#utility.yul\":19437:19449   */\n      lt\n        /* \"#utility.yul\":19427:19467   */\n      tag_416\n      jumpi\n        /* \"#utility.yul\":19463:19464   */\n      0x00\n        /* \"#utility.yul\":19460:19461   */\n      dup1\n        /* \"#utility.yul\":19453:19465   */\n      revert\n        /* \"#utility.yul\":19427:19467   */\n    tag_416:\n        /* \"#utility.yul\":19359:19473   */\n      pop\n      jump\t// out\n        /* \"#utility.yul\":19479:19599   */\n    tag_195:\n        /* \"#utility.yul\":19551:19574   */\n      tag_418\n        /* \"#utility.yul\":19568:19573   */\n      dup2\n        /* \"#utility.yul\":19551:19574   */\n      tag_271\n      jump\t// in\n    tag_418:\n        /* \"#utility.yul\":19544:19549   */\n      dup2\n        /* \"#utility.yul\":19541:19575   */\n      eq\n        /* \"#utility.yul\":19531:19593   */\n      tag_419\n      jumpi\n        /* \"#utility.yul\":19589:19590   */\n      0x00\n        /* \"#utility.yul\":19586:19587   */\n      dup1\n        /* \"#utility.yul\":19579:19591   */\n      revert\n        /* \"#utility.yul\":19531:19593   */\n    tag_419:\n        /* \"#utility.yul\":19479:19599   */\n      pop\n      jump\t// out\n        /* \"#utility.yul\":19605:19727   */\n    tag_198:\n        /* \"#utility.yul\":19678:19702   */\n      tag_421\n        /* \"#utility.yul\":19696:19701   */\n      dup2\n        /* \"#utility.yul\":19678:19702   */\n      tag_275\n      jump\t// in\n    tag_421:\n        /* \"#utility.yul\":19671:19676   */\n      dup2\n        /* \"#utility.yul\":19668:19703   */\n      eq\n        /* \"#utility.yul\":19658:19721   */\n      tag_422\n      jumpi\n        /* \"#utility.yul\":19717:19718   */\n      0x00\n        /* \"#utility.yul\":19714:19715   */\n      dup1\n        /* \"#utility.yul\":19707:19719   */\n      revert\n        /* \"#utility.yul\":19658:19721   */\n    tag_422:\n        /* \"#utility.yul\":19605:19727   */\n      pop\n      jump\t// out\n        /* \"#utility.yul\":19733:19853   */\n    tag_201:\n        /* \"#utility.yul\":19805:19828   */\n      tag_424\n        /* \"#utility.yul\":19822:19827   */\n      dup2\n        /* \"#utility.yul\":19805:19828   */\n      tag_279\n      jump\t// in\n    tag_424:\n        /* \"#utility.yul\":19798:19803   */\n      dup2\n        /* \"#utility.yul\":19795:19829   */\n      eq\n        /* \"#utility.yul\":19785:19847   */\n      tag_425\n      jumpi\n        /* \"#utility.yul\":19843:19844   */\n      0x00\n        /* \"#utility.yul\":19840:19841   */\n      dup1\n        /* \"#utility.yul\":19833:19845   */\n      revert\n        /* \"#utility.yul\":19785:19847   */\n    tag_425:\n        /* \"#utility.yul\":19733:19853   */\n      pop\n      jump\t// out\n        /* \"#utility.yul\":19859:19977   */\n    tag_204:\n        /* \"#utility.yul\":19930:19952   */\n      tag_427\n        /* \"#utility.yul\":19946:19951   */\n      dup2\n        /* \"#utility.yul\":19930:19952   */\n      tag_283\n      jump\t// in\n    tag_427:\n        /* \"#utility.yul\":19923:19928   */\n      dup2\n        /* \"#utility.yul\":19920:19953   */\n      eq\n        /* \"#utility.yul\":19910:19971   */\n      tag_428\n      jumpi\n        /* \"#utility.yul\":19967:19968   */\n      0x00\n        /* \"#utility.yul\":19964:19965   */\n      dup1\n        /* \"#utility.yul\":19957:19969   */\n      revert\n        /* \"#utility.yul\":19910:19971   */\n    tag_428:\n        /* \"#utility.yul\":19859:19977   */\n      pop\n      jump\t// out\n\n    auxdata: 0xa2646970667358221220f3520b96ebe86b2404faa90de2374ef75f083fff393232ea1133a97729988e2864736f6c63430008070033\n}\n",
				"bytecode": {
					"linkReferences": {},
					"object": "608060405234801561001057600080fd5b5061230b806100206000396000f3fe608060405234801561001057600080fd5b50600436106100cf5760003560e01c80637d0fa2871161008c578063a4e7ae0511610066578063a4e7ae0514610288578063af640d0f146102b9578063ba479b7e146102d7578063cbc928091461030c576100cf565b80637d0fa287146101f457806380fc1fd4146102265780639a8c911914610256576100cf565b80631916e139146100d457806328266697146101065780632fe3473614610138578063356b1f1e1461017357806339987f94146101a557806343d33527146101d8575b600080fd5b6100ee60048036038101906100e99190611a06565b61033c565b6040516100fd93929190611c80565b60405180910390f35b610120600480360381019061011b9190611a06565b610408565b60405161012f93929190611c80565b60405180910390f35b610152600480360381019061014d9190611a74565b6104d4565b60405161016a9c9b9a99989796959493929190611daa565b60405180910390f35b61018d60048036038101906101889190611a06565b6105b4565b60405161019c93929190611c80565b60405180910390f35b6101bf60048036038101906101ba9190611a06565b610680565b6040516101cf9493929190611cbe565b60405180910390f35b6101f260048036038101906101ed9190611a33565b610752565b005b61020e60048036038101906102099190611a06565b610dab565b60405161021d93929190611c80565b60405180910390f35b610240600480360381019061023b9190611a33565b610e77565b60405161024d9190611d4a565b60405180910390f35b610270600480360381019061026b9190611a06565b6114ef565b60405161027f93929190611c80565b60405180910390f35b6102a2600480360381019061029d9190611ab4565b6115bb565b6040516102b0929190611e64565b60405180910390f35b6102c1611677565b6040516102ce9190611d4a565b60405180910390f35b6102f160048036038101906102ec9190611a06565b61167d565b60405161030396959493929190611c11565b60405180910390f35b61032660048036038101906103219190611a06565b611811565b6040516103339190611bf6565b60405180910390f35b60076020528060005260406000206000915090508060000160009054906101000a900460ff169080600101805461037290611ff4565b80601f016020809104026020016040519081016040528092919081815260200182805461039e90611ff4565b80156103eb5780601f106103c0576101008083540402835291602001916103eb565b820191906000526020600020905b8154815290600101906020018083116103ce57829003601f168201915b5050505050908060020160009054906101000a900460ff16905083565b60046020528060005260406000206000915090508060000160009054906101000a900460ff169080600101805461043e90611ff4565b80601f016020809104026020016040519081016040528092919081815260200182805461046a90611ff4565b80156104b75780601f1061048c576101008083540402835291602001916104b7565b820191906000526020600020905b81548152906001019060200180831161049a57829003601f168201915b5050505050908060020160009054906101000a900460ff16905083565b600d602052816000526040600020602052806000526040600020600091509150508060000154908060010160009054906101000a900460ff16908060020154908060030154908060040160009054906101000a900460ff16908060050154908060060154908060070160009054906101000a900473ffffffffffffffffffffffffffffffffffffffff16908060070160149054906101000a900461ffff16908060070160169054906101000a900461ffff16908060070160189054906101000a900460ff16908060070160199054906101000a900463ffffffff1690508c565b600a6020528060005260406000206000915090508060000160009054906101000a900460ff16908060010180546105ea90611ff4565b80601f016020809104026020016040519081016040528092919081815260200182805461061690611ff4565b80156106635780601f1061063857610100808354040283529160200191610663565b820191906000526020600020905b81548152906001019060200180831161064657829003601f168201915b5050505050908060020160009054906101000a900460ff16905083565b60066020528060005260406000206000915090508060000160009054906101000a900460ff16908060000160019054906101000a900460ff16908060010154908060020180546106cf90611ff4565b80601f01602080910402602001604051908101604052809291908181526020018280546106fb90611ff4565b80156107485780601f1061071d57610100808354040283529160200191610748565b820191906000526020600020905b81548152906001019060200180831161072b57829003601f168201915b5050505050905084565b600460003373ffffffffffffffffffffffffffffffffffffffff1673ffffffffffffffffffffffffffffffffffffffff16815260200190815260200160002060000160009054906101000a900460ff166107e1576040517f08c379a00000000000000000000000000000000000000000000000000000000081526004016107d890611d0a565b60405180910390fd5b600360008373ffffffffffffffffffffffffffffffffffffffff1673ffffffffffffffffffffffffffffffffffffffff16815260200190815260200160002060000160009054906101000a900460ff16610870576040517f08c379a000000000000000000000000000000000000000000000000000000000815260040161086790611d2a565b60405180910390fd5b6000600c600081548092919061088590612057565b9190505590508160200151600d60008573ffffffffffffffffffffffffffffffffffffffff1673ffffffffffffffffffffffffffffffffffffffff168152602001908152602001600020600083815260200190815260200160002060010160006101000a81548160ff02191690836003811115610905576109046120cf565b5b02179055508160400151600d60008573ffffffffffffffffffffffffffffffffffffffff1673ffffffffffffffffffffffffffffffffffffffff1681526020019081526020016000206000838152602001908152602001600020600201819055508160600151600d60008573ffffffffffffffffffffffffffffffffffffffff1673ffffffffffffffffffffffffffffffffffffffff1681526020019081526020016000206000838152602001908152602001600020600301819055508160800151600d60008573ffffffffffffffffffffffffffffffffffffffff1673ffffffffffffffffffffffffffffffffffffffff168152602001908152602001600020600083815260200190815260200160002060040160006101000a81548160ff021916908360ff1602179055508160a00151600d60008573ffffffffffffffffffffffffffffffffffffffff1673ffffffffffffffffffffffffffffffffffffffff1681526020019081526020016000206000838152602001908152602001600020600501819055508160c00151600d60008573ffffffffffffffffffffffffffffffffffffffff1673ffffffffffffffffffffffffffffffffffffffff1681526020019081526020016000206000838152602001908152602001600020600601819055508160e00151600d60008573ffffffffffffffffffffffffffffffffffffffff1673ffffffffffffffffffffffffffffffffffffffff168152602001908152602001600020600083815260200190815260200160002060070160006101000a81548173ffffffffffffffffffffffffffffffffffffffff021916908373ffffffffffffffffffffffffffffffffffffffff160217905550816101000151600d60008573ffffffffffffffffffffffffffffffffffffffff1673ffffffffffffffffffffffffffffffffffffffff168152602001908152602001600020600083815260200190815260200160002060070160146101000a81548161ffff021916908361ffff160217905550816101200151600d60008573ffffffffffffffffffffffffffffffffffffffff1673ffffffffffffffffffffffffffffffffffffffff168152602001908152602001600020600083815260200190815260200160002060070160166101000a81548161ffff021916908361ffff160217905550816101400151600d60008573ffffffffffffffffffffffffffffffffffffffff1673ffffffffffffffffffffffffffffffffffffffff168152602001908152602001600020600083815260200190815260200160002060070160186101000a81548160ff02191690836003811115610ce157610ce06120cf565b5b0217905550816101600151600d60008573ffffffffffffffffffffffffffffffffffffffff1673ffffffffffffffffffffffffffffffffffffffff168152602001908152602001600020600083815260200190815260200160002060070160196101000a81548163ffffffff021916908363ffffffff1602179055507f9cbca7384fc1faed2b0399bc0f183e39f1de460a603e21db7ece2d0870ff424c818360e0015184604001518560600151604051610d9e9493929190611d65565b60405180910390a1505050565b60086020528060005260406000206000915090508060000160009054906101000a900460ff1690806001018054610de190611ff4565b80601f0160208091040260200160405190810160405280929190818152602001828054610e0d90611ff4565b8015610e5a5780601f10610e2f57610100808354040283529160200191610e5a565b820191906000526020600020905b815481529060010190602001808311610e3d57829003601f168201915b5050505050908060020160009054906101000a900460ff16905083565b6000600460003373ffffffffffffffffffffffffffffffffffffffff1673ffffffffffffffffffffffffffffffffffffffff16815260200190815260200160002060000160009054906101000a900460ff16610f08576040517f08c379a0000000000000000000000000000000000000000000000000000000008152600401610eff90611d0a565b60405180910390fd5b600360008473ffffffffffffffffffffffffffffffffffffffff1673ffffffffffffffffffffffffffffffffffffffff16815260200190815260200160002060000160009054906101000a900460ff16610f97576040517f08c379a0000000000000000000000000000000000000000000000000000000008152600401610f8e90611d2a565b60405180910390fd5b8160200151600d60008573ffffffffffffffffffffffffffffffffffffffff1673ffffffffffffffffffffffffffffffffffffffff16815260200190815260200160002060008460000151815260200190815260200160002060010160006101000a81548160ff02191690836003811115611015576110146120cf565b5b02179055508160400151600d60008573ffffffffffffffffffffffffffffffffffffffff1673ffffffffffffffffffffffffffffffffffffffff168152602001908152602001600020600084600001518152602001908152602001600020600201819055508160600151600d60008573ffffffffffffffffffffffffffffffffffffffff1673ffffffffffffffffffffffffffffffffffffffff168152602001908152602001600020600084600001518152602001908152602001600020600301819055508160800151600d60008573ffffffffffffffffffffffffffffffffffffffff1673ffffffffffffffffffffffffffffffffffffffff16815260200190815260200160002060008460000151815260200190815260200160002060040160006101000a81548160ff021916908360ff1602179055508160a00151600d60008573ffffffffffffffffffffffffffffffffffffffff1673ffffffffffffffffffffffffffffffffffffffff168152602001908152602001600020600084600001518152602001908152602001600020600501819055508160c00151600d60008573ffffffffffffffffffffffffffffffffffffffff1673ffffffffffffffffffffffffffffffffffffffff168152602001908152602001600020600084600001518152602001908152602001600020600601819055508160e00151600d60008573ffffffffffffffffffffffffffffffffffffffff1673ffffffffffffffffffffffffffffffffffffffff16815260200190815260200160002060008460000151815260200190815260200160002060070160006101000a81548173ffffffffffffffffffffffffffffffffffffffff021916908373ffffffffffffffffffffffffffffffffffffffff160217905550816101000151600d60008573ffffffffffffffffffffffffffffffffffffffff1673ffffffffffffffffffffffffffffffffffffffff16815260200190815260200160002060008460000151815260200190815260200160002060070160146101000a81548161ffff021916908361ffff160217905550816101200151600d60008573ffffffffffffffffffffffffffffffffffffffff1673ffffffffffffffffffffffffffffffffffffffff16815260200190815260200160002060008460000151815260200190815260200160002060070160166101000a81548161ffff021916908361ffff160217905550816101400151600d60008573ffffffffffffffffffffffffffffffffffffffff1673ffffffffffffffffffffffffffffffffffffffff16815260200190815260200160002060008460000151815260200190815260200160002060070160186101000a81548160ff02191690836003811115611415576114146120cf565b5b0217905550816101600151600d60008573ffffffffffffffffffffffffffffffffffffffff1673ffffffffffffffffffffffffffffffffffffffff16815260200190815260200160002060008460000151815260200190815260200160002060070160196101000a81548163ffffffff021916908363ffffffff1602179055507fda3dfe1e38b971a57856d9249b86e9f15ecfc0162ea2e6f03c643ba44feec98982600001518360e00151846040015185606001516040516114da9493929190611d65565b60405180910390a18160000151905092915050565b60096020528060005260406000206000915090508060000160009054906101000a900460ff169080600101805461152590611ff4565b80601f016020809104026020016040519081016040528092919081815260200182805461155190611ff4565b801561159e5780601f106115735761010080835404028352916020019161159e565b820191906000526020600020905b81548152906001019060200180831161158157829003601f168201915b5050505050908060020160009054906101000a900460ff16905083565b600b6020528060005260406000206000915090508060000160009054906101000a900463ffffffff16908060010180546115f490611ff4565b80601f016020809104026020016040519081016040528092919081815260200182805461162090611ff4565b801561166d5780601f106116425761010080835404028352916020019161166d565b820191906000526020600020905b81548152906001019060200180831161165057829003601f168201915b5050505050905082565b600c5481565b60056020528060005260406000206000915090508060000160009054906101000a900460ff16908060000160019054906101000a900473ffffffffffffffffffffffffffffffffffffffff16908060000160159054906101000a900461ffff16908060000160179054906101000a900460ff169080600101805461170090611ff4565b80601f016020809104026020016040519081016040528092919081815260200182805461172c90611ff4565b80156117795780601f1061174e57610100808354040283529160200191611779565b820191906000526020600020905b81548152906001019060200180831161175c57829003601f168201915b50505050509080600201805461178e90611ff4565b80601f01602080910402602001604051908101604052809291908181526020018280546117ba90611ff4565b80156118075780601f106117dc57610100808354040283529160200191611807565b820191906000526020600020905b8154815290600101906020018083116117ea57829003601f168201915b5050505050905086565b60036020528060005260406000206000915090508060000160009054906101000a900460ff16905081565b60008135905061184b8161222b565b92915050565b60008135905061186081612242565b92915050565b60008135905061187581612259565b92915050565b60008135905061188a81612269565b92915050565b600061018082840312156118a7576118a661215c565b5b6118b2610180611e94565b905060006118c2848285016119c7565b60008301525060206118d684828501611866565b60208301525060406118ea848285016119c7565b60408301525060606118fe848285016119c7565b6060830152506080611912848285016119f1565b60808301525060a061192684828501611851565b60a08301525060c061193a84828501611851565b60c08301525060e061194e8482850161183c565b60e083015250610100611963848285016119b2565b61010083015250610120611979848285016119b2565b6101208301525061014061198f8482850161187b565b610140830152506101606119a5848285016119dc565b6101608301525092915050565b6000813590506119c181612279565b92915050565b6000813590506119d681612290565b92915050565b6000813590506119eb816122a7565b92915050565b600081359050611a00816122be565b92915050565b600060208284031215611a1c57611a1b612161565b5b6000611a2a8482850161183c565b91505092915050565b6000806101a08385031215611a4b57611a4a612161565b5b6000611a598582860161183c565b9250506020611a6a85828601611890565b9150509250929050565b60008060408385031215611a8b57611a8a612161565b5b6000611a998582860161183c565b9250506020611aaa858286016119c7565b9150509250929050565b600060208284031215611aca57611ac9612161565b5b6000611ad8848285016119dc565b91505092915050565b611aea81611ed5565b82525050565b611af981611ee7565b82525050565b611b0881611ef3565b82525050565b611b1781611f8b565b82525050565b611b2681611f9d565b82525050565b611b3581611faf565b82525050565b6000611b4682611eb9565b611b508185611ec4565b9350611b60818560208601611fc1565b611b6981612166565b840191505092915050565b6000611b81602683611ec4565b9150611b8c82612177565b604082019050919050565b6000611ba4601283611ec4565b9150611baf826121c6565b602082019050919050565b611bc381611f36565b82525050565b611bd281611f64565b82525050565b611be181611f6e565b82525050565b611bf081611f7e565b82525050565b6000602082019050611c0b6000830184611af0565b92915050565b600060c082019050611c266000830189611af0565b611c336020830188611ae1565b611c406040830187611bba565b611c4d6060830186611b2c565b8181036080830152611c5f8185611b3b565b905081810360a0830152611c738184611b3b565b9050979650505050505050565b6000606082019050611c956000830186611af0565b8181036020830152611ca78185611b3b565b9050611cb66040830184611be7565b949350505050565b6000608082019050611cd36000830187611af0565b611ce06020830186611be7565b611ced6040830185611bc9565b8181036060830152611cff8184611b3b565b905095945050505050565b60006020820190508181036000830152611d2381611b74565b9050919050565b60006020820190508181036000830152611d4381611b97565b9050919050565b6000602082019050611d5f6000830184611bc9565b92915050565b6000608082019050611d7a6000830187611bc9565b611d876020830186611ae1565b611d946040830185611bc9565b611da16060830184611bc9565b95945050505050565b600061018082019050611dc0600083018f611bc9565b611dcd602083018e611b0e565b611dda604083018d611bc9565b611de7606083018c611bc9565b611df4608083018b611be7565b611e0160a083018a611aff565b611e0e60c0830189611aff565b611e1b60e0830188611ae1565b611e29610100830187611bba565b611e37610120830186611bba565b611e45610140830185611b1d565b611e53610160830184611bd8565b9d9c50505050505050505050505050565b6000604082019050611e796000830185611bd8565b8181036020830152611e8b8184611b3b565b90509392505050565b6000611e9e611eaf565b9050611eaa8282612026565b919050565b6000604051905090565b600081519050919050565b600082825260208201905092915050565b6000611ee082611f44565b9050919050565b60008115159050919050565b6000819050919050565b6000819050611f0b826121ef565b919050565b6000819050611f1e82612203565b919050565b6000819050611f3182612217565b919050565b600061ffff82169050919050565b600073ffffffffffffffffffffffffffffffffffffffff82169050919050565b6000819050919050565b600063ffffffff82169050919050565b600060ff82169050919050565b6000611f9682611efd565b9050919050565b6000611fa882611f10565b9050919050565b6000611fba82611f23565b9050919050565b60005b83811015611fdf578082015181840152602081019050611fc4565b83811115611fee576000848401525b50505050565b6000600282049050600182168061200c57607f821691505b602082108114156120205761201f6120fe565b5b50919050565b61202f82612166565b810181811067ffffffffffffffff8211171561204e5761204d61212d565b5b80604052505050565b600061206282611f64565b91507fffffffffffffffffffffffffffffffffffffffffffffffffffffffffffffffff821415612095576120946120a0565b5b600182019050919050565b7f4e487b7100000000000000000000000000000000000000000000000000000000600052601160045260246000fd5b7f4e487b7100000000000000000000000000000000000000000000000000000000600052602160045260246000fd5b7f4e487b7100000000000000000000000000000000000000000000000000000000600052602260045260246000fd5b7f4e487b7100000000000000000000000000000000000000000000000000000000600052604160045260246000fd5b600080fd5b600080fd5b6000601f19601f8301169050919050565b7f53616465636520556e69766572736974652062752069736c656d69207961706160008201527f62696c69722e0000000000000000000000000000000000000000000000000000602082015250565b7f53747564656e74206e6f74206578697374730000000000000000000000000000600082015250565b60048110612200576121ff6120cf565b5b50565b60048110612214576122136120cf565b5b50565b60048110612228576122276120cf565b5b50565b61223481611ed5565b811461223f57600080fd5b50565b61224b81611ef3565b811461225657600080fd5b50565b6004811061226657600080fd5b50565b6004811061227657600080fd5b50565b61228281611f36565b811461228d57600080fd5b50565b61229981611f64565b81146122a457600080fd5b50565b6122b081611f6e565b81146122bb57600080fd5b50565b6122c781611f7e565b81146122d257600080fd5b5056fea2646970667358221220f3520b96ebe86b2404faa90de2374ef75f083fff393232ea1133a97729988e2864736f6c63430008070033",
					"opcodes": "PUSH1 0x80 PUSH1 0x40 MSTORE CALLVALUE DUP1 ISZERO PUSH2 0x10 JUMPI PUSH1 0x0 DUP1 REVERT JUMPDEST POP PUSH2 0x230B DUP1 PUSH2 0x20 PUSH1 0x0 CODECOPY PUSH1 0x0 RETURN INVALID PUSH1 0x80 PUSH1 0x40 MSTORE CALLVALUE DUP1 ISZERO PUSH2 0x10 JUMPI PUSH1 0x0 DUP1 REVERT JUMPDEST POP PUSH1 0x4 CALLDATASIZE LT PUSH2 0xCF JUMPI PUSH1 0x0 CALLDATALOAD PUSH1 0xE0 SHR DUP1 PUSH4 0x7D0FA287 GT PUSH2 0x8C JUMPI DUP1 PUSH4 0xA4E7AE05 GT PUSH2 0x66 JUMPI DUP1 PUSH4 0xA4E7AE05 EQ PUSH2 0x288 JUMPI DUP1 PUSH4 0xAF640D0F EQ PUSH2 0x2B9 JUMPI DUP1 PUSH4 0xBA479B7E EQ PUSH2 0x2D7 JUMPI DUP1 PUSH4 0xCBC92809 EQ PUSH2 0x30C JUMPI PUSH2 0xCF JUMP JUMPDEST DUP1 PUSH4 0x7D0FA287 EQ PUSH2 0x1F4 JUMPI DUP1 PUSH4 0x80FC1FD4 EQ PUSH2 0x226 JUMPI DUP1 PUSH4 0x9A8C9119 EQ PUSH2 0x256 JUMPI PUSH2 0xCF JUMP JUMPDEST DUP1 PUSH4 0x1916E139 EQ PUSH2 0xD4 JUMPI DUP1 PUSH4 0x28266697 EQ PUSH2 0x106 JUMPI DUP1 PUSH4 0x2FE34736 EQ PUSH2 0x138 JUMPI DUP1 PUSH4 0x356B1F1E EQ PUSH2 0x173 JUMPI DUP1 PUSH4 0x39987F94 EQ PUSH2 0x1A5 JUMPI DUP1 PUSH4 0x43D33527 EQ PUSH2 0x1D8 JUMPI JUMPDEST PUSH1 0x0 DUP1 REVERT JUMPDEST PUSH2 0xEE PUSH1 0x4 DUP1 CALLDATASIZE SUB DUP2 ADD SWAP1 PUSH2 0xE9 SWAP2 SWAP1 PUSH2 0x1A06 JUMP JUMPDEST PUSH2 0x33C JUMP JUMPDEST PUSH1 0x40 MLOAD PUSH2 0xFD SWAP4 SWAP3 SWAP2 SWAP1 PUSH2 0x1C80 JUMP JUMPDEST PUSH1 0x40 MLOAD DUP1 SWAP2 SUB SWAP1 RETURN JUMPDEST PUSH2 0x120 PUSH1 0x4 DUP1 CALLDATASIZE SUB DUP2 ADD SWAP1 PUSH2 0x11B SWAP2 SWAP1 PUSH2 0x1A06 JUMP JUMPDEST PUSH2 0x408 JUMP JUMPDEST PUSH1 0x40 MLOAD PUSH2 0x12F SWAP4 SWAP3 SWAP2 SWAP1 PUSH2 0x1C80 JUMP JUMPDEST PUSH1 0x40 MLOAD DUP1 SWAP2 SUB SWAP1 RETURN JUMPDEST PUSH2 0x152 PUSH1 0x4 DUP1 CALLDATASIZE SUB DUP2 ADD SWAP1 PUSH2 0x14D SWAP2 SWAP1 PUSH2 0x1A74 JUMP JUMPDEST PUSH2 0x4D4 JUMP JUMPDEST PUSH1 0x40 MLOAD PUSH2 0x16A SWAP13 SWAP12 SWAP11 SWAP10 SWAP9 SWAP8 SWAP7 SWAP6 SWAP5 SWAP4 SWAP3 SWAP2 SWAP1 PUSH2 0x1DAA JUMP JUMPDEST PUSH1 0x40 MLOAD DUP1 SWAP2 SUB SWAP1 RETURN JUMPDEST PUSH2 0x18D PUSH1 0x4 DUP1 CALLDATASIZE SUB DUP2 ADD SWAP1 PUSH2 0x188 SWAP2 SWAP1 PUSH2 0x1A06 JUMP JUMPDEST PUSH2 0x5B4 JUMP JUMPDEST PUSH1 0x40 MLOAD PUSH2 0x19C SWAP4 SWAP3 SWAP2 SWAP1 PUSH2 0x1C80 JUMP JUMPDEST PUSH1 0x40 MLOAD DUP1 SWAP2 SUB SWAP1 RETURN JUMPDEST PUSH2 0x1BF PUSH1 0x4 DUP1 CALLDATASIZE SUB DUP2 ADD SWAP1 PUSH2 0x1BA SWAP2 SWAP1 PUSH2 0x1A06 JUMP JUMPDEST PUSH2 0x680 JUMP JUMPDEST PUSH1 0x40 MLOAD PUSH2 0x1CF SWAP5 SWAP4 SWAP3 SWAP2 SWAP1 PUSH2 0x1CBE JUMP JUMPDEST PUSH1 0x40 MLOAD DUP1 SWAP2 SUB SWAP1 RETURN JUMPDEST PUSH2 0x1F2 PUSH1 0x4 DUP1 CALLDATASIZE SUB DUP2 ADD SWAP1 PUSH2 0x1ED SWAP2 SWAP1 PUSH2 0x1A33 JUMP JUMPDEST PUSH2 0x752 JUMP JUMPDEST STOP JUMPDEST PUSH2 0x20E PUSH1 0x4 DUP1 CALLDATASIZE SUB DUP2 ADD SWAP1 PUSH2 0x209 SWAP2 SWAP1 PUSH2 0x1A06 JUMP JUMPDEST PUSH2 0xDAB JUMP JUMPDEST PUSH1 0x40 MLOAD PUSH2 0x21D SWAP4 SWAP3 SWAP2 SWAP1 PUSH2 0x1C80 JUMP JUMPDEST PUSH1 0x40 MLOAD DUP1 SWAP2 SUB SWAP1 RETURN JUMPDEST PUSH2 0x240 PUSH1 0x4 DUP1 CALLDATASIZE SUB DUP2 ADD SWAP1 PUSH2 0x23B SWAP2 SWAP1 PUSH2 0x1A33 JUMP JUMPDEST PUSH2 0xE77 JUMP JUMPDEST PUSH1 0x40 MLOAD PUSH2 0x24D SWAP2 SWAP1 PUSH2 0x1D4A JUMP JUMPDEST PUSH1 0x40 MLOAD DUP1 SWAP2 SUB SWAP1 RETURN JUMPDEST PUSH2 0x270 PUSH1 0x4 DUP1 CALLDATASIZE SUB DUP2 ADD SWAP1 PUSH2 0x26B SWAP2 SWAP1 PUSH2 0x1A06 JUMP JUMPDEST PUSH2 0x14EF JUMP JUMPDEST PUSH1 0x40 MLOAD PUSH2 0x27F SWAP4 SWAP3 SWAP2 SWAP1 PUSH2 0x1C80 JUMP JUMPDEST PUSH1 0x40 MLOAD DUP1 SWAP2 SUB SWAP1 RETURN JUMPDEST PUSH2 0x2A2 PUSH1 0x4 DUP1 CALLDATASIZE SUB DUP2 ADD SWAP1 PUSH2 0x29D SWAP2 SWAP1 PUSH2 0x1AB4 JUMP JUMPDEST PUSH2 0x15BB JUMP JUMPDEST PUSH1 0x40 MLOAD PUSH2 0x2B0 SWAP3 SWAP2 SWAP1 PUSH2 0x1E64 JUMP JUMPDEST PUSH1 0x40 MLOAD DUP1 SWAP2 SUB SWAP1 RETURN JUMPDEST PUSH2 0x2C1 PUSH2 0x1677 JUMP JUMPDEST PUSH1 0x40 MLOAD PUSH2 0x2CE SWAP2 SWAP1 PUSH2 0x1D4A JUMP JUMPDEST PUSH1 0x40 MLOAD DUP1 SWAP2 SUB SWAP1 RETURN JUMPDEST PUSH2 0x2F1 PUSH1 0x4 DUP1 CALLDATASIZE SUB DUP2 ADD SWAP1 PUSH2 0x2EC SWAP2 SWAP1 PUSH2 0x1A06 JUMP JUMPDEST PUSH2 0x167D JUMP JUMPDEST PUSH1 0x40 MLOAD PUSH2 0x303 SWAP7 SWAP6 SWAP5 SWAP4 SWAP3 SWAP2 SWAP1 PUSH2 0x1C11 JUMP JUMPDEST PUSH1 0x40 MLOAD DUP1 SWAP2 SUB SWAP1 RETURN JUMPDEST PUSH2 0x326 PUSH1 0x4 DUP1 CALLDATASIZE SUB DUP2 ADD SWAP1 PUSH2 0x321 SWAP2 SWAP1 PUSH2 0x1A06 JUMP JUMPDEST PUSH2 0x1811 JUMP JUMPDEST PUSH1 0x40 MLOAD PUSH2 0x333 SWAP2 SWAP1 PUSH2 0x1BF6 JUMP JUMPDEST PUSH1 0x40 MLOAD DUP1 SWAP2 SUB SWAP1 RETURN JUMPDEST PUSH1 0x7 PUSH1 0x20 MSTORE DUP1 PUSH1 0x0 MSTORE PUSH1 0x40 PUSH1 0x0 KECCAK256 PUSH1 0x0 SWAP2 POP SWAP1 POP DUP1 PUSH1 0x0 ADD PUSH1 0x0 SWAP1 SLOAD SWAP1 PUSH2 0x100 EXP SWAP1 DIV PUSH1 0xFF AND SWAP1 DUP1 PUSH1 0x1 ADD DUP1 SLOAD PUSH2 0x372 SWAP1 PUSH2 0x1FF4 JUMP JUMPDEST DUP1 PUSH1 0x1F ADD PUSH1 0x20 DUP1 SWAP2 DIV MUL PUSH1 0x20 ADD PUSH1 0x40 MLOAD SWAP1 DUP2 ADD PUSH1 0x40 MSTORE DUP1 SWAP3 SWAP2 SWAP1 DUP2 DUP2 MSTORE PUSH1 0x20 ADD DUP3 DUP1 SLOAD PUSH2 0x39E SWAP1 PUSH2 0x1FF4 JUMP JUMPDEST DUP1 ISZERO PUSH2 0x3EB JUMPI DUP1 PUSH1 0x1F LT PUSH2 0x3C0 JUMPI PUSH2 0x100 DUP1 DUP4 SLOAD DIV MUL DUP4 MSTORE SWAP2 PUSH1 0x20 ADD SWAP2 PUSH2 0x3EB JUMP JUMPDEST DUP3 ADD SWAP2 SWAP1 PUSH1 0x0 MSTORE PUSH1 0x20 PUSH1 0x0 KECCAK256 SWAP1 JUMPDEST DUP2 SLOAD DUP2 MSTORE SWAP1 PUSH1 0x1 ADD SWAP1 PUSH1 0x20 ADD DUP1 DUP4 GT PUSH2 0x3CE JUMPI DUP3 SWAP1 SUB PUSH1 0x1F AND DUP3 ADD SWAP2 JUMPDEST POP POP POP POP POP SWAP1 DUP1 PUSH1 0x2 ADD PUSH1 0x0 SWAP1 SLOAD SWAP1 PUSH2 0x100 EXP SWAP1 DIV PUSH1 0xFF AND SWAP1 POP DUP4 JUMP JUMPDEST PUSH1 0x4 PUSH1 0x20 MSTORE DUP1 PUSH1 0x0 MSTORE PUSH1 0x40 PUSH1 0x0 KECCAK256 PUSH1 0x0 SWAP2 POP SWAP1 POP DUP1 PUSH1 0x0 ADD PUSH1 0x0 SWAP1 SLOAD SWAP1 PUSH2 0x100 EXP SWAP1 DIV PUSH1 0xFF AND SWAP1 DUP1 PUSH1 0x1 ADD DUP1 SLOAD PUSH2 0x43E SWAP1 PUSH2 0x1FF4 JUMP JUMPDEST DUP1 PUSH1 0x1F ADD PUSH1 0x20 DUP1 SWAP2 DIV MUL PUSH1 0x20 ADD PUSH1 0x40 MLOAD SWAP1 DUP2 ADD PUSH1 0x40 MSTORE DUP1 SWAP3 SWAP2 SWAP1 DUP2 DUP2 MSTORE PUSH1 0x20 ADD DUP3 DUP1 SLOAD PUSH2 0x46A SWAP1 PUSH2 0x1FF4 JUMP JUMPDEST DUP1 ISZERO PUSH2 0x4B7 JUMPI DUP1 PUSH1 0x1F LT PUSH2 0x48C JUMPI PUSH2 0x100 DUP1 DUP4 SLOAD DIV MUL DUP4 MSTORE SWAP2 PUSH1 0x20 ADD SWAP2 PUSH2 0x4B7 JUMP JUMPDEST DUP3 ADD SWAP2 SWAP1 PUSH1 0x0 MSTORE PUSH1 0x20 PUSH1 0x0 KECCAK256 SWAP1 JUMPDEST DUP2 SLOAD DUP2 MSTORE SWAP1 PUSH1 0x1 ADD SWAP1 PUSH1 0x20 ADD DUP1 DUP4 GT PUSH2 0x49A JUMPI DUP3 SWAP1 SUB PUSH1 0x1F AND DUP3 ADD SWAP2 JUMPDEST POP POP POP POP POP SWAP1 DUP1 PUSH1 0x2 ADD PUSH1 0x0 SWAP1 SLOAD SWAP1 PUSH2 0x100 EXP SWAP1 DIV PUSH1 0xFF AND SWAP1 POP DUP4 JUMP JUMPDEST PUSH1 0xD PUSH1 0x20 MSTORE DUP2 PUSH1 0x0 MSTORE PUSH1 0x40 PUSH1 0x0 KECCAK256 PUSH1 0x20 MSTORE DUP1 PUSH1 0x0 MSTORE PUSH1 0x40 PUSH1 0x0 KECCAK256 PUSH1 0x0 SWAP2 POP SWAP2 POP POP DUP1 PUSH1 0x0 ADD SLOAD SWAP1 DUP1 PUSH1 0x1 ADD PUSH1 0x0 SWAP1 SLOAD SWAP1 PUSH2 0x100 EXP SWAP1 DIV PUSH1 0xFF AND SWAP1 DUP1 PUSH1 0x2 ADD SLOAD SWAP1 DUP1 PUSH1 0x3 ADD SLOAD SWAP1 DUP1 PUSH1 0x4 ADD PUSH1 0x0 SWAP1 SLOAD SWAP1 PUSH2 0x100 EXP SWAP1 DIV PUSH1 0xFF AND SWAP1 DUP1 PUSH1 0x5 ADD SLOAD SWAP1 DUP1 PUSH1 0x6 ADD SLOAD SWAP1 DUP1 PUSH1 0x7 ADD PUSH1 0x0 SWAP1 SLOAD SWAP1 PUSH2 0x100 EXP SWAP1 DIV PUSH20 0xFFFFFFFFFFFFFFFFFFFFFFFFFFFFFFFFFFFFFFFF AND SWAP1 DUP1 PUSH1 0x7 ADD PUSH1 0x14 SWAP1 SLOAD SWAP1 PUSH2 0x100 EXP SWAP1 DIV PUSH2 0xFFFF AND SWAP1 DUP1 PUSH1 0x7 ADD PUSH1 0x16 SWAP1 SLOAD SWAP1 PUSH2 0x100 EXP SWAP1 DIV PUSH2 0xFFFF AND SWAP1 DUP1 PUSH1 0x7 ADD PUSH1 0x18 SWAP1 SLOAD SWAP1 PUSH2 0x100 EXP SWAP1 DIV PUSH1 0xFF AND SWAP1 DUP1 PUSH1 0x7 ADD PUSH1 0x19 SWAP1 SLOAD SWAP1 PUSH2 0x100 EXP SWAP1 DIV PUSH4 0xFFFFFFFF AND SWAP1 POP DUP13 JUMP JUMPDEST PUSH1 0xA PUSH1 0x20 MSTORE DUP1 PUSH1 0x0 MSTORE PUSH1 0x40 PUSH1 0x0 KECCAK256 PUSH1 0x0 SWAP2 POP SWAP1 POP DUP1 PUSH1 0x0 ADD PUSH1 0x0 SWAP1 SLOAD SWAP1 PUSH2 0x100 EXP SWAP1 DIV PUSH1 0xFF AND SWAP1 DUP1 PUSH1 0x1 ADD DUP1 SLOAD PUSH2 0x5EA SWAP1 PUSH2 0x1FF4 JUMP JUMPDEST DUP1 PUSH1 0x1F ADD PUSH1 0x20 DUP1 SWAP2 DIV MUL PUSH1 0x20 ADD PUSH1 0x40 MLOAD SWAP1 DUP2 ADD PUSH1 0x40 MSTORE DUP1 SWAP3 SWAP2 SWAP1 DUP2 DUP2 MSTORE PUSH1 0x20 ADD DUP3 DUP1 SLOAD PUSH2 0x616 SWAP1 PUSH2 0x1FF4 JUMP JUMPDEST DUP1 ISZERO PUSH2 0x663 JUMPI DUP1 PUSH1 0x1F LT PUSH2 0x638 JUMPI PUSH2 0x100 DUP1 DUP4 SLOAD DIV MUL DUP4 MSTORE SWAP2 PUSH1 0x20 ADD SWAP2 PUSH2 0x663 JUMP JUMPDEST DUP3 ADD SWAP2 SWAP1 PUSH1 0x0 MSTORE PUSH1 0x20 PUSH1 0x0 KECCAK256 SWAP1 JUMPDEST DUP2 SLOAD DUP2 MSTORE SWAP1 PUSH1 0x1 ADD SWAP1 PUSH1 0x20 ADD DUP1 DUP4 GT PUSH2 0x646 JUMPI DUP3 SWAP1 SUB PUSH1 0x1F AND DUP3 ADD SWAP2 JUMPDEST POP POP POP POP POP SWAP1 DUP1 PUSH1 0x2 ADD PUSH1 0x0 SWAP1 SLOAD SWAP1 PUSH2 0x100 EXP SWAP1 DIV PUSH1 0xFF AND SWAP1 POP DUP4 JUMP JUMPDEST PUSH1 0x6 PUSH1 0x20 MSTORE DUP1 PUSH1 0x0 MSTORE PUSH1 0x40 PUSH1 0x0 KECCAK256 PUSH1 0x0 SWAP2 POP SWAP1 POP DUP1 PUSH1 0x0 ADD PUSH1 0x0 SWAP1 SLOAD SWAP1 PUSH2 0x100 EXP SWAP1 DIV PUSH1 0xFF AND SWAP1 DUP1 PUSH1 0x0 ADD PUSH1 0x1 SWAP1 SLOAD SWAP1 PUSH2 0x100 EXP SWAP1 DIV PUSH1 0xFF AND SWAP1 DUP1 PUSH1 0x1 ADD SLOAD SWAP1 DUP1 PUSH1 0x2 ADD DUP1 SLOAD PUSH2 0x6CF SWAP1 PUSH2 0x1FF4 JUMP JUMPDEST DUP1 PUSH1 0x1F ADD PUSH1 0x20 DUP1 SWAP2 DIV MUL PUSH1 0x20 ADD PUSH1 0x40 MLOAD SWAP1 DUP2 ADD PUSH1 0x40 MSTORE DUP1 SWAP3 SWAP2 SWAP1 DUP2 DUP2 MSTORE PUSH1 0x20 ADD DUP3 DUP1 SLOAD PUSH2 0x6FB SWAP1 PUSH2 0x1FF4 JUMP JUMPDEST DUP1 ISZERO PUSH2 0x748 JUMPI DUP1 PUSH1 0x1F LT PUSH2 0x71D JUMPI PUSH2 0x100 DUP1 DUP4 SLOAD DIV MUL DUP4 MSTORE SWAP2 PUSH1 0x20 ADD SWAP2 PUSH2 0x748 JUMP JUMPDEST DUP3 ADD SWAP2 SWAP1 PUSH1 0x0 MSTORE PUSH1 0x20 PUSH1 0x0 KECCAK256 SWAP1 JUMPDEST DUP2 SLOAD DUP2 MSTORE SWAP1 PUSH1 0x1 ADD SWAP1 PUSH1 0x20 ADD DUP1 DUP4 GT PUSH2 0x72B JUMPI DUP3 SWAP1 SUB PUSH1 0x1F AND DUP3 ADD SWAP2 JUMPDEST POP POP POP POP POP SWAP1 POP DUP5 JUMP JUMPDEST PUSH1 0x4 PUSH1 0x0 CALLER PUSH20 0xFFFFFFFFFFFFFFFFFFFFFFFFFFFFFFFFFFFFFFFF AND PUSH20 0xFFFFFFFFFFFFFFFFFFFFFFFFFFFFFFFFFFFFFFFF AND DUP2 MSTORE PUSH1 0x20 ADD SWAP1 DUP2 MSTORE PUSH1 0x20 ADD PUSH1 0x0 KECCAK256 PUSH1 0x0 ADD PUSH1 0x0 SWAP1 SLOAD SWAP1 PUSH2 0x100 EXP SWAP1 DIV PUSH1 0xFF AND PUSH2 0x7E1 JUMPI PUSH1 0x40 MLOAD PUSH32 0x8C379A000000000000000000000000000000000000000000000000000000000 DUP2 MSTORE PUSH1 0x4 ADD PUSH2 0x7D8 SWAP1 PUSH2 0x1D0A JUMP JUMPDEST PUSH1 0x40 MLOAD DUP1 SWAP2 SUB SWAP1 REVERT JUMPDEST PUSH1 0x3 PUSH1 0x0 DUP4 PUSH20 0xFFFFFFFFFFFFFFFFFFFFFFFFFFFFFFFFFFFFFFFF AND PUSH20 0xFFFFFFFFFFFFFFFFFFFFFFFFFFFFFFFFFFFFFFFF AND DUP2 MSTORE PUSH1 0x20 ADD SWAP1 DUP2 MSTORE PUSH1 0x20 ADD PUSH1 0x0 KECCAK256 PUSH1 0x0 ADD PUSH1 0x0 SWAP1 SLOAD SWAP1 PUSH2 0x100 EXP SWAP1 DIV PUSH1 0xFF AND PUSH2 0x870 JUMPI PUSH1 0x40 MLOAD PUSH32 0x8C379A000000000000000000000000000000000000000000000000000000000 DUP2 MSTORE PUSH1 0x4 ADD PUSH2 0x867 SWAP1 PUSH2 0x1D2A JUMP JUMPDEST PUSH1 0x40 MLOAD DUP1 SWAP2 SUB SWAP1 REVERT JUMPDEST PUSH1 0x0 PUSH1 0xC PUSH1 0x0 DUP2 SLOAD DUP1 SWAP3 SWAP2 SWAP1 PUSH2 0x885 SWAP1 PUSH2 0x2057 JUMP JUMPDEST SWAP2 SWAP1 POP SSTORE SWAP1 POP DUP2 PUSH1 0x20 ADD MLOAD PUSH1 0xD PUSH1 0x0 DUP6 PUSH20 0xFFFFFFFFFFFFFFFFFFFFFFFFFFFFFFFFFFFFFFFF AND PUSH20 0xFFFFFFFFFFFFFFFFFFFFFFFFFFFFFFFFFFFFFFFF AND DUP2 MSTORE PUSH1 0x20 ADD SWAP1 DUP2 MSTORE PUSH1 0x20 ADD PUSH1 0x0 KECCAK256 PUSH1 0x0 DUP4 DUP2 MSTORE PUSH1 0x20 ADD SWAP1 DUP2 MSTORE PUSH1 0x20 ADD PUSH1 0x0 KECCAK256 PUSH1 0x1 ADD PUSH1 0x0 PUSH2 0x100 EXP DUP2 SLOAD DUP2 PUSH1 0xFF MUL NOT AND SWAP1 DUP4 PUSH1 0x3 DUP2 GT ISZERO PUSH2 0x905 JUMPI PUSH2 0x904 PUSH2 0x20CF JUMP JUMPDEST JUMPDEST MUL OR SWAP1 SSTORE POP DUP2 PUSH1 0x40 ADD MLOAD PUSH1 0xD PUSH1 0x0 DUP6 PUSH20 0xFFFFFFFFFFFFFFFFFFFFFFFFFFFFFFFFFFFFFFFF AND PUSH20 0xFFFFFFFFFFFFFFFFFFFFFFFFFFFFFFFFFFFFFFFF AND DUP2 MSTORE PUSH1 0x20 ADD SWAP1 DUP2 MSTORE PUSH1 0x20 ADD PUSH1 0x0 KECCAK256 PUSH1 0x0 DUP4 DUP2 MSTORE PUSH1 0x20 ADD SWAP1 DUP2 MSTORE PUSH1 0x20 ADD PUSH1 0x0 KECCAK256 PUSH1 0x2 ADD DUP2 SWAP1 SSTORE POP DUP2 PUSH1 0x60 ADD MLOAD PUSH1 0xD PUSH1 0x0 DUP6 PUSH20 0xFFFFFFFFFFFFFFFFFFFFFFFFFFFFFFFFFFFFFFFF AND PUSH20 0xFFFFFFFFFFFFFFFFFFFFFFFFFFFFFFFFFFFFFFFF AND DUP2 MSTORE PUSH1 0x20 ADD SWAP1 DUP2 MSTORE PUSH1 0x20 ADD PUSH1 0x0 KECCAK256 PUSH1 0x0 DUP4 DUP2 MSTORE PUSH1 0x20 ADD SWAP1 DUP2 MSTORE PUSH1 0x20 ADD PUSH1 0x0 KECCAK256 PUSH1 0x3 ADD DUP2 SWAP1 SSTORE POP DUP2 PUSH1 0x80 ADD MLOAD PUSH1 0xD PUSH1 0x0 DUP6 PUSH20 0xFFFFFFFFFFFFFFFFFFFFFFFFFFFFFFFFFFFFFFFF AND PUSH20 0xFFFFFFFFFFFFFFFFFFFFFFFFFFFFFFFFFFFFFFFF AND DUP2 MSTORE PUSH1 0x20 ADD SWAP1 DUP2 MSTORE PUSH1 0x20 ADD PUSH1 0x0 KECCAK256 PUSH1 0x0 DUP4 DUP2 MSTORE PUSH1 0x20 ADD SWAP1 DUP2 MSTORE PUSH1 0x20 ADD PUSH1 0x0 KECCAK256 PUSH1 0x4 ADD PUSH1 0x0 PUSH2 0x100 EXP DUP2 SLOAD DUP2 PUSH1 0xFF MUL NOT AND SWAP1 DUP4 PUSH1 0xFF AND MUL OR SWAP1 SSTORE POP DUP2 PUSH1 0xA0 ADD MLOAD PUSH1 0xD PUSH1 0x0 DUP6 PUSH20 0xFFFFFFFFFFFFFFFFFFFFFFFFFFFFFFFFFFFFFFFF AND PUSH20 0xFFFFFFFFFFFFFFFFFFFFFFFFFFFFFFFFFFFFFFFF AND DUP2 MSTORE PUSH1 0x20 ADD SWAP1 DUP2 MSTORE PUSH1 0x20 ADD PUSH1 0x0 KECCAK256 PUSH1 0x0 DUP4 DUP2 MSTORE PUSH1 0x20 ADD SWAP1 DUP2 MSTORE PUSH1 0x20 ADD PUSH1 0x0 KECCAK256 PUSH1 0x5 ADD DUP2 SWAP1 SSTORE POP DUP2 PUSH1 0xC0 ADD MLOAD PUSH1 0xD PUSH1 0x0 DUP6 PUSH20 0xFFFFFFFFFFFFFFFFFFFFFFFFFFFFFFFFFFFFFFFF AND PUSH20 0xFFFFFFFFFFFFFFFFFFFFFFFFFFFFFFFFFFFFFFFF AND DUP2 MSTORE PUSH1 0x20 ADD SWAP1 DUP2 MSTORE PUSH1 0x20 ADD PUSH1 0x0 KECCAK256 PUSH1 0x0 DUP4 DUP2 MSTORE PUSH1 0x20 ADD SWAP1 DUP2 MSTORE PUSH1 0x20 ADD PUSH1 0x0 KECCAK256 PUSH1 0x6 ADD DUP2 SWAP1 SSTORE POP DUP2 PUSH1 0xE0 ADD MLOAD PUSH1 0xD PUSH1 0x0 DUP6 PUSH20 0xFFFFFFFFFFFFFFFFFFFFFFFFFFFFFFFFFFFFFFFF AND PUSH20 0xFFFFFFFFFFFFFFFFFFFFFFFFFFFFFFFFFFFFFFFF AND DUP2 MSTORE PUSH1 0x20 ADD SWAP1 DUP2 MSTORE PUSH1 0x20 ADD PUSH1 0x0 KECCAK256 PUSH1 0x0 DUP4 DUP2 MSTORE PUSH1 0x20 ADD SWAP1 DUP2 MSTORE PUSH1 0x20 ADD PUSH1 0x0 KECCAK256 PUSH1 0x7 ADD PUSH1 0x0 PUSH2 0x100 EXP DUP2 SLOAD DUP2 PUSH20 0xFFFFFFFFFFFFFFFFFFFFFFFFFFFFFFFFFFFFFFFF MUL NOT AND SWAP1 DUP4 PUSH20 0xFFFFFFFFFFFFFFFFFFFFFFFFFFFFFFFFFFFFFFFF AND MUL OR SWAP1 SSTORE POP DUP2 PUSH2 0x100 ADD MLOAD PUSH1 0xD PUSH1 0x0 DUP6 PUSH20 0xFFFFFFFFFFFFFFFFFFFFFFFFFFFFFFFFFFFFFFFF AND PUSH20 0xFFFFFFFFFFFFFFFFFFFFFFFFFFFFFFFFFFFFFFFF AND DUP2 MSTORE PUSH1 0x20 ADD SWAP1 DUP2 MSTORE PUSH1 0x20 ADD PUSH1 0x0 KECCAK256 PUSH1 0x0 DUP4 DUP2 MSTORE PUSH1 0x20 ADD SWAP1 DUP2 MSTORE PUSH1 0x20 ADD PUSH1 0x0 KECCAK256 PUSH1 0x7 ADD PUSH1 0x14 PUSH2 0x100 EXP DUP2 SLOAD DUP2 PUSH2 0xFFFF MUL NOT AND SWAP1 DUP4 PUSH2 0xFFFF AND MUL OR SWAP1 SSTORE POP DUP2 PUSH2 0x120 ADD MLOAD PUSH1 0xD PUSH1 0x0 DUP6 PUSH20 0xFFFFFFFFFFFFFFFFFFFFFFFFFFFFFFFFFFFFFFFF AND PUSH20 0xFFFFFFFFFFFFFFFFFFFFFFFFFFFFFFFFFFFFFFFF AND DUP2 MSTORE PUSH1 0x20 ADD SWAP1 DUP2 MSTORE PUSH1 0x20 ADD PUSH1 0x0 KECCAK256 PUSH1 0x0 DUP4 DUP2 MSTORE PUSH1 0x20 ADD SWAP1 DUP2 MSTORE PUSH1 0x20 ADD PUSH1 0x0 KECCAK256 PUSH1 0x7 ADD PUSH1 0x16 PUSH2 0x100 EXP DUP2 SLOAD DUP2 PUSH2 0xFFFF MUL NOT AND SWAP1 DUP4 PUSH2 0xFFFF AND MUL OR SWAP1 SSTORE POP DUP2 PUSH2 0x140 ADD MLOAD PUSH1 0xD PUSH1 0x0 DUP6 PUSH20 0xFFFFFFFFFFFFFFFFFFFFFFFFFFFFFFFFFFFFFFFF AND PUSH20 0xFFFFFFFFFFFFFFFFFFFFFFFFFFFFFFFFFFFFFFFF AND DUP2 MSTORE PUSH1 0x20 ADD SWAP1 DUP2 MSTORE PUSH1 0x20 ADD PUSH1 0x0 KECCAK256 PUSH1 0x0 DUP4 DUP2 MSTORE PUSH1 0x20 ADD SWAP1 DUP2 MSTORE PUSH1 0x20 ADD PUSH1 0x0 KECCAK256 PUSH1 0x7 ADD PUSH1 0x18 PUSH2 0x100 EXP DUP2 SLOAD DUP2 PUSH1 0xFF MUL NOT AND SWAP1 DUP4 PUSH1 0x3 DUP2 GT ISZERO PUSH2 0xCE1 JUMPI PUSH2 0xCE0 PUSH2 0x20CF JUMP JUMPDEST JUMPDEST MUL OR SWAP1 SSTORE POP DUP2 PUSH2 0x160 ADD MLOAD PUSH1 0xD PUSH1 0x0 DUP6 PUSH20 0xFFFFFFFFFFFFFFFFFFFFFFFFFFFFFFFFFFFFFFFF AND PUSH20 0xFFFFFFFFFFFFFFFFFFFFFFFFFFFFFFFFFFFFFFFF AND DUP2 MSTORE PUSH1 0x20 ADD SWAP1 DUP2 MSTORE PUSH1 0x20 ADD PUSH1 0x0 KECCAK256 PUSH1 0x0 DUP4 DUP2 MSTORE PUSH1 0x20 ADD SWAP1 DUP2 MSTORE PUSH1 0x20 ADD PUSH1 0x0 KECCAK256 PUSH1 0x7 ADD PUSH1 0x19 PUSH2 0x100 EXP DUP2 SLOAD DUP2 PUSH4 0xFFFFFFFF MUL NOT AND SWAP1 DUP4 PUSH4 0xFFFFFFFF AND MUL OR SWAP1 SSTORE POP PUSH32 0x9CBCA7384FC1FAED2B0399BC0F183E39F1DE460A603E21DB7ECE2D0870FF424C DUP2 DUP4 PUSH1 0xE0 ADD MLOAD DUP5 PUSH1 0x40 ADD MLOAD DUP6 PUSH1 0x60 ADD MLOAD PUSH1 0x40 MLOAD PUSH2 0xD9E SWAP5 SWAP4 SWAP3 SWAP2 SWAP1 PUSH2 0x1D65 JUMP JUMPDEST PUSH1 0x40 MLOAD DUP1 SWAP2 SUB SWAP1 LOG1 POP POP POP JUMP JUMPDEST PUSH1 0x8 PUSH1 0x20 MSTORE DUP1 PUSH1 0x0 MSTORE PUSH1 0x40 PUSH1 0x0 KECCAK256 PUSH1 0x0 SWAP2 POP SWAP1 POP DUP1 PUSH1 0x0 ADD PUSH1 0x0 SWAP1 SLOAD SWAP1 PUSH2 0x100 EXP SWAP1 DIV PUSH1 0xFF AND SWAP1 DUP1 PUSH1 0x1 ADD DUP1 SLOAD PUSH2 0xDE1 SWAP1 PUSH2 0x1FF4 JUMP JUMPDEST DUP1 PUSH1 0x1F ADD PUSH1 0x20 DUP1 SWAP2 DIV MUL PUSH1 0x20 ADD PUSH1 0x40 MLOAD SWAP1 DUP2 ADD PUSH1 0x40 MSTORE DUP1 SWAP3 SWAP2 SWAP1 DUP2 DUP2 MSTORE PUSH1 0x20 ADD DUP3 DUP1 SLOAD PUSH2 0xE0D SWAP1 PUSH2 0x1FF4 JUMP JUMPDEST DUP1 ISZERO PUSH2 0xE5A JUMPI DUP1 PUSH1 0x1F LT PUSH2 0xE2F JUMPI PUSH2 0x100 DUP1 DUP4 SLOAD DIV MUL DUP4 MSTORE SWAP2 PUSH1 0x20 ADD SWAP2 PUSH2 0xE5A JUMP JUMPDEST DUP3 ADD SWAP2 SWAP1 PUSH1 0x0 MSTORE PUSH1 0x20 PUSH1 0x0 KECCAK256 SWAP1 JUMPDEST DUP2 SLOAD DUP2 MSTORE SWAP1 PUSH1 0x1 ADD SWAP1 PUSH1 0x20 ADD DUP1 DUP4 GT PUSH2 0xE3D JUMPI DUP3 SWAP1 SUB PUSH1 0x1F AND DUP3 ADD SWAP2 JUMPDEST POP POP POP POP POP SWAP1 DUP1 PUSH1 0x2 ADD PUSH1 0x0 SWAP1 SLOAD SWAP1 PUSH2 0x100 EXP SWAP1 DIV PUSH1 0xFF AND SWAP1 POP DUP4 JUMP JUMPDEST PUSH1 0x0 PUSH1 0x4 PUSH1 0x0 CALLER PUSH20 0xFFFFFFFFFFFFFFFFFFFFFFFFFFFFFFFFFFFFFFFF AND PUSH20 0xFFFFFFFFFFFFFFFFFFFFFFFFFFFFFFFFFFFFFFFF AND DUP2 MSTORE PUSH1 0x20 ADD SWAP1 DUP2 MSTORE PUSH1 0x20 ADD PUSH1 0x0 KECCAK256 PUSH1 0x0 ADD PUSH1 0x0 SWAP1 SLOAD SWAP1 PUSH2 0x100 EXP SWAP1 DIV PUSH1 0xFF AND PUSH2 0xF08 JUMPI PUSH1 0x40 MLOAD PUSH32 0x8C379A000000000000000000000000000000000000000000000000000000000 DUP2 MSTORE PUSH1 0x4 ADD PUSH2 0xEFF SWAP1 PUSH2 0x1D0A JUMP JUMPDEST PUSH1 0x40 MLOAD DUP1 SWAP2 SUB SWAP1 REVERT JUMPDEST PUSH1 0x3 PUSH1 0x0 DUP5 PUSH20 0xFFFFFFFFFFFFFFFFFFFFFFFFFFFFFFFFFFFFFFFF AND PUSH20 0xFFFFFFFFFFFFFFFFFFFFFFFFFFFFFFFFFFFFFFFF AND DUP2 MSTORE PUSH1 0x20 ADD SWAP1 DUP2 MSTORE PUSH1 0x20 ADD PUSH1 0x0 KECCAK256 PUSH1 0x0 ADD PUSH1 0x0 SWAP1 SLOAD SWAP1 PUSH2 0x100 EXP SWAP1 DIV PUSH1 0xFF AND PUSH2 0xF97 JUMPI PUSH1 0x40 MLOAD PUSH32 0x8C379A000000000000000000000000000000000000000000000000000000000 DUP2 MSTORE PUSH1 0x4 ADD PUSH2 0xF8E SWAP1 PUSH2 0x1D2A JUMP JUMPDEST PUSH1 0x40 MLOAD DUP1 SWAP2 SUB SWAP1 REVERT JUMPDEST DUP2 PUSH1 0x20 ADD MLOAD PUSH1 0xD PUSH1 0x0 DUP6 PUSH20 0xFFFFFFFFFFFFFFFFFFFFFFFFFFFFFFFFFFFFFFFF AND PUSH20 0xFFFFFFFFFFFFFFFFFFFFFFFFFFFFFFFFFFFFFFFF AND DUP2 MSTORE PUSH1 0x20 ADD SWAP1 DUP2 MSTORE PUSH1 0x20 ADD PUSH1 0x0 KECCAK256 PUSH1 0x0 DUP5 PUSH1 0x0 ADD MLOAD DUP2 MSTORE PUSH1 0x20 ADD SWAP1 DUP2 MSTORE PUSH1 0x20 ADD PUSH1 0x0 KECCAK256 PUSH1 0x1 ADD PUSH1 0x0 PUSH2 0x100 EXP DUP2 SLOAD DUP2 PUSH1 0xFF MUL NOT AND SWAP1 DUP4 PUSH1 0x3 DUP2 GT ISZERO PUSH2 0x1015 JUMPI PUSH2 0x1014 PUSH2 0x20CF JUMP JUMPDEST JUMPDEST MUL OR SWAP1 SSTORE POP DUP2 PUSH1 0x40 ADD MLOAD PUSH1 0xD PUSH1 0x0 DUP6 PUSH20 0xFFFFFFFFFFFFFFFFFFFFFFFFFFFFFFFFFFFFFFFF AND PUSH20 0xFFFFFFFFFFFFFFFFFFFFFFFFFFFFFFFFFFFFFFFF AND DUP2 MSTORE PUSH1 0x20 ADD SWAP1 DUP2 MSTORE PUSH1 0x20 ADD PUSH1 0x0 KECCAK256 PUSH1 0x0 DUP5 PUSH1 0x0 ADD MLOAD DUP2 MSTORE PUSH1 0x20 ADD SWAP1 DUP2 MSTORE PUSH1 0x20 ADD PUSH1 0x0 KECCAK256 PUSH1 0x2 ADD DUP2 SWAP1 SSTORE POP DUP2 PUSH1 0x60 ADD MLOAD PUSH1 0xD PUSH1 0x0 DUP6 PUSH20 0xFFFFFFFFFFFFFFFFFFFFFFFFFFFFFFFFFFFFFFFF AND PUSH20 0xFFFFFFFFFFFFFFFFFFFFFFFFFFFFFFFFFFFFFFFF AND DUP2 MSTORE PUSH1 0x20 ADD SWAP1 DUP2 MSTORE PUSH1 0x20 ADD PUSH1 0x0 KECCAK256 PUSH1 0x0 DUP5 PUSH1 0x0 ADD MLOAD DUP2 MSTORE PUSH1 0x20 ADD SWAP1 DUP2 MSTORE PUSH1 0x20 ADD PUSH1 0x0 KECCAK256 PUSH1 0x3 ADD DUP2 SWAP1 SSTORE POP DUP2 PUSH1 0x80 ADD MLOAD PUSH1 0xD PUSH1 0x0 DUP6 PUSH20 0xFFFFFFFFFFFFFFFFFFFFFFFFFFFFFFFFFFFFFFFF AND PUSH20 0xFFFFFFFFFFFFFFFFFFFFFFFFFFFFFFFFFFFFFFFF AND DUP2 MSTORE PUSH1 0x20 ADD SWAP1 DUP2 MSTORE PUSH1 0x20 ADD PUSH1 0x0 KECCAK256 PUSH1 0x0 DUP5 PUSH1 0x0 ADD MLOAD DUP2 MSTORE PUSH1 0x20 ADD SWAP1 DUP2 MSTORE PUSH1 0x20 ADD PUSH1 0x0 KECCAK256 PUSH1 0x4 ADD PUSH1 0x0 PUSH2 0x100 EXP DUP2 SLOAD DUP2 PUSH1 0xFF MUL NOT AND SWAP1 DUP4 PUSH1 0xFF AND MUL OR SWAP1 SSTORE POP DUP2 PUSH1 0xA0 ADD MLOAD PUSH1 0xD PUSH1 0x0 DUP6 PUSH20 0xFFFFFFFFFFFFFFFFFFFFFFFFFFFFFFFFFFFFFFFF AND PUSH20 0xFFFFFFFFFFFFFFFFFFFFFFFFFFFFFFFFFFFFFFFF AND DUP2 MSTORE PUSH1 0x20 ADD SWAP1 DUP2 MSTORE PUSH1 0x20 ADD PUSH1 0x0 KECCAK256 PUSH1 0x0 DUP5 PUSH1 0x0 ADD MLOAD DUP2 MSTORE PUSH1 0x20 ADD SWAP1 DUP2 MSTORE PUSH1 0x20 ADD PUSH1 0x0 KECCAK256 PUSH1 0x5 ADD DUP2 SWAP1 SSTORE POP DUP2 PUSH1 0xC0 ADD MLOAD PUSH1 0xD PUSH1 0x0 DUP6 PUSH20 0xFFFFFFFFFFFFFFFFFFFFFFFFFFFFFFFFFFFFFFFF AND PUSH20 0xFFFFFFFFFFFFFFFFFFFFFFFFFFFFFFFFFFFFFFFF AND DUP2 MSTORE PUSH1 0x20 ADD SWAP1 DUP2 MSTORE PUSH1 0x20 ADD PUSH1 0x0 KECCAK256 PUSH1 0x0 DUP5 PUSH1 0x0 ADD MLOAD DUP2 MSTORE PUSH1 0x20 ADD SWAP1 DUP2 MSTORE PUSH1 0x20 ADD PUSH1 0x0 KECCAK256 PUSH1 0x6 ADD DUP2 SWAP1 SSTORE POP DUP2 PUSH1 0xE0 ADD MLOAD PUSH1 0xD PUSH1 0x0 DUP6 PUSH20 0xFFFFFFFFFFFFFFFFFFFFFFFFFFFFFFFFFFFFFFFF AND PUSH20 0xFFFFFFFFFFFFFFFFFFFFFFFFFFFFFFFFFFFFFFFF AND DUP2 MSTORE PUSH1 0x20 ADD SWAP1 DUP2 MSTORE PUSH1 0x20 ADD PUSH1 0x0 KECCAK256 PUSH1 0x0 DUP5 PUSH1 0x0 ADD MLOAD DUP2 MSTORE PUSH1 0x20 ADD SWAP1 DUP2 MSTORE PUSH1 0x20 ADD PUSH1 0x0 KECCAK256 PUSH1 0x7 ADD PUSH1 0x0 PUSH2 0x100 EXP DUP2 SLOAD DUP2 PUSH20 0xFFFFFFFFFFFFFFFFFFFFFFFFFFFFFFFFFFFFFFFF MUL NOT AND SWAP1 DUP4 PUSH20 0xFFFFFFFFFFFFFFFFFFFFFFFFFFFFFFFFFFFFFFFF AND MUL OR SWAP1 SSTORE POP DUP2 PUSH2 0x100 ADD MLOAD PUSH1 0xD PUSH1 0x0 DUP6 PUSH20 0xFFFFFFFFFFFFFFFFFFFFFFFFFFFFFFFFFFFFFFFF AND PUSH20 0xFFFFFFFFFFFFFFFFFFFFFFFFFFFFFFFFFFFFFFFF AND DUP2 MSTORE PUSH1 0x20 ADD SWAP1 DUP2 MSTORE PUSH1 0x20 ADD PUSH1 0x0 KECCAK256 PUSH1 0x0 DUP5 PUSH1 0x0 ADD MLOAD DUP2 MSTORE PUSH1 0x20 ADD SWAP1 DUP2 MSTORE PUSH1 0x20 ADD PUSH1 0x0 KECCAK256 PUSH1 0x7 ADD PUSH1 0x14 PUSH2 0x100 EXP DUP2 SLOAD DUP2 PUSH2 0xFFFF MUL NOT AND SWAP1 DUP4 PUSH2 0xFFFF AND MUL OR SWAP1 SSTORE POP DUP2 PUSH2 0x120 ADD MLOAD PUSH1 0xD PUSH1 0x0 DUP6 PUSH20 0xFFFFFFFFFFFFFFFFFFFFFFFFFFFFFFFFFFFFFFFF AND PUSH20 0xFFFFFFFFFFFFFFFFFFFFFFFFFFFFFFFFFFFFFFFF AND DUP2 MSTORE PUSH1 0x20 ADD SWAP1 DUP2 MSTORE PUSH1 0x20 ADD PUSH1 0x0 KECCAK256 PUSH1 0x0 DUP5 PUSH1 0x0 ADD MLOAD DUP2 MSTORE PUSH1 0x20 ADD SWAP1 DUP2 MSTORE PUSH1 0x20 ADD PUSH1 0x0 KECCAK256 PUSH1 0x7 ADD PUSH1 0x16 PUSH2 0x100 EXP DUP2 SLOAD DUP2 PUSH2 0xFFFF MUL NOT AND SWAP1 DUP4 PUSH2 0xFFFF AND MUL OR SWAP1 SSTORE POP DUP2 PUSH2 0x140 ADD MLOAD PUSH1 0xD PUSH1 0x0 DUP6 PUSH20 0xFFFFFFFFFFFFFFFFFFFFFFFFFFFFFFFFFFFFFFFF AND PUSH20 0xFFFFFFFFFFFFFFFFFFFFFFFFFFFFFFFFFFFFFFFF AND DUP2 MSTORE PUSH1 0x20 ADD SWAP1 DUP2 MSTORE PUSH1 0x20 ADD PUSH1 0x0 KECCAK256 PUSH1 0x0 DUP5 PUSH1 0x0 ADD MLOAD DUP2 MSTORE PUSH1 0x20 ADD SWAP1 DUP2 MSTORE PUSH1 0x20 ADD PUSH1 0x0 KECCAK256 PUSH1 0x7 ADD PUSH1 0x18 PUSH2 0x100 EXP DUP2 SLOAD DUP2 PUSH1 0xFF MUL NOT AND SWAP1 DUP4 PUSH1 0x3 DUP2 GT ISZERO PUSH2 0x1415 JUMPI PUSH2 0x1414 PUSH2 0x20CF JUMP JUMPDEST JUMPDEST MUL OR SWAP1 SSTORE POP DUP2 PUSH2 0x160 ADD MLOAD PUSH1 0xD PUSH1 0x0 DUP6 PUSH20 0xFFFFFFFFFFFFFFFFFFFFFFFFFFFFFFFFFFFFFFFF AND PUSH20 0xFFFFFFFFFFFFFFFFFFFFFFFFFFFFFFFFFFFFFFFF AND DUP2 MSTORE PUSH1 0x20 ADD SWAP1 DUP2 MSTORE PUSH1 0x20 ADD PUSH1 0x0 KECCAK256 PUSH1 0x0 DUP5 PUSH1 0x0 ADD MLOAD DUP2 MSTORE PUSH1 0x20 ADD SWAP1 DUP2 MSTORE PUSH1 0x20 ADD PUSH1 0x0 KECCAK256 PUSH1 0x7 ADD PUSH1 0x19 PUSH2 0x100 EXP DUP2 SLOAD DUP2 PUSH4 0xFFFFFFFF MUL NOT AND SWAP1 DUP4 PUSH4 0xFFFFFFFF AND MUL OR SWAP1 SSTORE POP PUSH32 0xDA3DFE1E38B971A57856D9249B86E9F15ECFC0162EA2E6F03C643BA44FEEC989 DUP3 PUSH1 0x0 ADD MLOAD DUP4 PUSH1 0xE0 ADD MLOAD DUP5 PUSH1 0x40 ADD MLOAD DUP6 PUSH1 0x60 ADD MLOAD PUSH1 0x40 MLOAD PUSH2 0x14DA SWAP5 SWAP4 SWAP3 SWAP2 SWAP1 PUSH2 0x1D65 JUMP JUMPDEST PUSH1 0x40 MLOAD DUP1 SWAP2 SUB SWAP1 LOG1 DUP2 PUSH1 0x0 ADD MLOAD SWAP1 POP SWAP3 SWAP2 POP POP JUMP JUMPDEST PUSH1 0x9 PUSH1 0x20 MSTORE DUP1 PUSH1 0x0 MSTORE PUSH1 0x40 PUSH1 0x0 KECCAK256 PUSH1 0x0 SWAP2 POP SWAP1 POP DUP1 PUSH1 0x0 ADD PUSH1 0x0 SWAP1 SLOAD SWAP1 PUSH2 0x100 EXP SWAP1 DIV PUSH1 0xFF AND SWAP1 DUP1 PUSH1 0x1 ADD DUP1 SLOAD PUSH2 0x1525 SWAP1 PUSH2 0x1FF4 JUMP JUMPDEST DUP1 PUSH1 0x1F ADD PUSH1 0x20 DUP1 SWAP2 DIV MUL PUSH1 0x20 ADD PUSH1 0x40 MLOAD SWAP1 DUP2 ADD PUSH1 0x40 MSTORE DUP1 SWAP3 SWAP2 SWAP1 DUP2 DUP2 MSTORE PUSH1 0x20 ADD DUP3 DUP1 SLOAD PUSH2 0x1551 SWAP1 PUSH2 0x1FF4 JUMP JUMPDEST DUP1 ISZERO PUSH2 0x159E JUMPI DUP1 PUSH1 0x1F LT PUSH2 0x1573 JUMPI PUSH2 0x100 DUP1 DUP4 SLOAD DIV MUL DUP4 MSTORE SWAP2 PUSH1 0x20 ADD SWAP2 PUSH2 0x159E JUMP JUMPDEST DUP3 ADD SWAP2 SWAP1 PUSH1 0x0 MSTORE PUSH1 0x20 PUSH1 0x0 KECCAK256 SWAP1 JUMPDEST DUP2 SLOAD DUP2 MSTORE SWAP1 PUSH1 0x1 ADD SWAP1 PUSH1 0x20 ADD DUP1 DUP4 GT PUSH2 0x1581 JUMPI DUP3 SWAP1 SUB PUSH1 0x1F AND DUP3 ADD SWAP2 JUMPDEST POP POP POP POP POP SWAP1 DUP1 PUSH1 0x2 ADD PUSH1 0x0 SWAP1 SLOAD SWAP1 PUSH2 0x100 EXP SWAP1 DIV PUSH1 0xFF AND SWAP1 POP DUP4 JUMP JUMPDEST PUSH1 0xB PUSH1 0x20 MSTORE DUP1 PUSH1 0x0 MSTORE PUSH1 0x40 PUSH1 0x0 KECCAK256 PUSH1 0x0 SWAP2 POP SWAP1 POP DUP1 PUSH1 0x0 ADD PUSH1 0x0 SWAP1 SLOAD SWAP1 PUSH2 0x100 EXP SWAP1 DIV PUSH4 0xFFFFFFFF AND SWAP1 DUP1 PUSH1 0x1 ADD DUP1 SLOAD PUSH2 0x15F4 SWAP1 PUSH2 0x1FF4 JUMP JUMPDEST DUP1 PUSH1 0x1F ADD PUSH1 0x20 DUP1 SWAP2 DIV MUL PUSH1 0x20 ADD PUSH1 0x40 MLOAD SWAP1 DUP2 ADD PUSH1 0x40 MSTORE DUP1 SWAP3 SWAP2 SWAP1 DUP2 DUP2 MSTORE PUSH1 0x20 ADD DUP3 DUP1 SLOAD PUSH2 0x1620 SWAP1 PUSH2 0x1FF4 JUMP JUMPDEST DUP1 ISZERO PUSH2 0x166D JUMPI DUP1 PUSH1 0x1F LT PUSH2 0x1642 JUMPI PUSH2 0x100 DUP1 DUP4 SLOAD DIV MUL DUP4 MSTORE SWAP2 PUSH1 0x20 ADD SWAP2 PUSH2 0x166D JUMP JUMPDEST DUP3 ADD SWAP2 SWAP1 PUSH1 0x0 MSTORE PUSH1 0x20 PUSH1 0x0 KECCAK256 SWAP1 JUMPDEST DUP2 SLOAD DUP2 MSTORE SWAP1 PUSH1 0x1 ADD SWAP1 PUSH1 0x20 ADD DUP1 DUP4 GT PUSH2 0x1650 JUMPI DUP3 SWAP1 SUB PUSH1 0x1F AND DUP3 ADD SWAP2 JUMPDEST POP POP POP POP POP SWAP1 POP DUP3 JUMP JUMPDEST PUSH1 0xC SLOAD DUP2 JUMP JUMPDEST PUSH1 0x5 PUSH1 0x20 MSTORE DUP1 PUSH1 0x0 MSTORE PUSH1 0x40 PUSH1 0x0 KECCAK256 PUSH1 0x0 SWAP2 POP SWAP1 POP DUP1 PUSH1 0x0 ADD PUSH1 0x0 SWAP1 SLOAD SWAP1 PUSH2 0x100 EXP SWAP1 DIV PUSH1 0xFF AND SWAP1 DUP1 PUSH1 0x0 ADD PUSH1 0x1 SWAP1 SLOAD SWAP1 PUSH2 0x100 EXP SWAP1 DIV PUSH20 0xFFFFFFFFFFFFFFFFFFFFFFFFFFFFFFFFFFFFFFFF AND SWAP1 DUP1 PUSH1 0x0 ADD PUSH1 0x15 SWAP1 SLOAD SWAP1 PUSH2 0x100 EXP SWAP1 DIV PUSH2 0xFFFF AND SWAP1 DUP1 PUSH1 0x0 ADD PUSH1 0x17 SWAP1 SLOAD SWAP1 PUSH2 0x100 EXP SWAP1 DIV PUSH1 0xFF AND SWAP1 DUP1 PUSH1 0x1 ADD DUP1 SLOAD PUSH2 0x1700 SWAP1 PUSH2 0x1FF4 JUMP JUMPDEST DUP1 PUSH1 0x1F ADD PUSH1 0x20 DUP1 SWAP2 DIV MUL PUSH1 0x20 ADD PUSH1 0x40 MLOAD SWAP1 DUP2 ADD PUSH1 0x40 MSTORE DUP1 SWAP3 SWAP2 SWAP1 DUP2 DUP2 MSTORE PUSH1 0x20 ADD DUP3 DUP1 SLOAD PUSH2 0x172C SWAP1 PUSH2 0x1FF4 JUMP JUMPDEST DUP1 ISZERO PUSH2 0x1779 JUMPI DUP1 PUSH1 0x1F LT PUSH2 0x174E JUMPI PUSH2 0x100 DUP1 DUP4 SLOAD DIV MUL DUP4 MSTORE SWAP2 PUSH1 0x20 ADD SWAP2 PUSH2 0x1779 JUMP JUMPDEST DUP3 ADD SWAP2 SWAP1 PUSH1 0x0 MSTORE PUSH1 0x20 PUSH1 0x0 KECCAK256 SWAP1 JUMPDEST DUP2 SLOAD DUP2 MSTORE SWAP1 PUSH1 0x1 ADD SWAP1 PUSH1 0x20 ADD DUP1 DUP4 GT PUSH2 0x175C JUMPI DUP3 SWAP1 SUB PUSH1 0x1F AND DUP3 ADD SWAP2 JUMPDEST POP POP POP POP POP SWAP1 DUP1 PUSH1 0x2 ADD DUP1 SLOAD PUSH2 0x178E SWAP1 PUSH2 0x1FF4 JUMP JUMPDEST DUP1 PUSH1 0x1F ADD PUSH1 0x20 DUP1 SWAP2 DIV MUL PUSH1 0x20 ADD PUSH1 0x40 MLOAD SWAP1 DUP2 ADD PUSH1 0x40 MSTORE DUP1 SWAP3 SWAP2 SWAP1 DUP2 DUP2 MSTORE PUSH1 0x20 ADD DUP3 DUP1 SLOAD PUSH2 0x17BA SWAP1 PUSH2 0x1FF4 JUMP JUMPDEST DUP1 ISZERO PUSH2 0x1807 JUMPI DUP1 PUSH1 0x1F LT PUSH2 0x17DC JUMPI PUSH2 0x100 DUP1 DUP4 SLOAD DIV MUL DUP4 MSTORE SWAP2 PUSH1 0x20 ADD SWAP2 PUSH2 0x1807 JUMP JUMPDEST DUP3 ADD SWAP2 SWAP1 PUSH1 0x0 MSTORE PUSH1 0x20 PUSH1 0x0 KECCAK256 SWAP1 JUMPDEST DUP2 SLOAD DUP2 MSTORE SWAP1 PUSH1 0x1 ADD SWAP1 PUSH1 0x20 ADD DUP1 DUP4 GT PUSH2 0x17EA JUMPI DUP3 SWAP1 SUB PUSH1 0x1F AND DUP3 ADD SWAP2 JUMPDEST POP POP POP POP POP SWAP1 POP DUP7 JUMP JUMPDEST PUSH1 0x3 PUSH1 0x20 MSTORE DUP1 PUSH1 0x0 MSTORE PUSH1 0x40 PUSH1 0x0 KECCAK256 PUSH1 0x0 SWAP2 POP SWAP1 POP DUP1 PUSH1 0x0 ADD PUSH1 0x0 SWAP1 SLOAD SWAP1 PUSH2 0x100 EXP SWAP1 DIV PUSH1 0xFF AND SWAP1 POP DUP2 JUMP JUMPDEST PUSH1 0x0 DUP2 CALLDATALOAD SWAP1 POP PUSH2 0x184B DUP2 PUSH2 0x222B JUMP JUMPDEST SWAP3 SWAP2 POP POP JUMP JUMPDEST PUSH1 0x0 DUP2 CALLDATALOAD SWAP1 POP PUSH2 0x1860 DUP2 PUSH2 0x2242 JUMP JUMPDEST SWAP3 SWAP2 POP POP JUMP JUMPDEST PUSH1 0x0 DUP2 CALLDATALOAD SWAP1 POP PUSH2 0x1875 DUP2 PUSH2 0x2259 JUMP JUMPDEST SWAP3 SWAP2 POP POP JUMP JUMPDEST PUSH1 0x0 DUP2 CALLDATALOAD SWAP1 POP PUSH2 0x188A DUP2 PUSH2 0x2269 JUMP JUMPDEST SWAP3 SWAP2 POP POP JUMP JUMPDEST PUSH1 0x0 PUSH2 0x180 DUP3 DUP5 SUB SLT ISZERO PUSH2 0x18A7 JUMPI PUSH2 0x18A6 PUSH2 0x215C JUMP JUMPDEST JUMPDEST PUSH2 0x18B2 PUSH2 0x180 PUSH2 0x1E94 JUMP JUMPDEST SWAP1 POP PUSH1 0x0 PUSH2 0x18C2 DUP5 DUP3 DUP6 ADD PUSH2 0x19C7 JUMP JUMPDEST PUSH1 0x0 DUP4 ADD MSTORE POP PUSH1 0x20 PUSH2 0x18D6 DUP5 DUP3 DUP6 ADD PUSH2 0x1866 JUMP JUMPDEST PUSH1 0x20 DUP4 ADD MSTORE POP PUSH1 0x40 PUSH2 0x18EA DUP5 DUP3 DUP6 ADD PUSH2 0x19C7 JUMP JUMPDEST PUSH1 0x40 DUP4 ADD MSTORE POP PUSH1 0x60 PUSH2 0x18FE DUP5 DUP3 DUP6 ADD PUSH2 0x19C7 JUMP JUMPDEST PUSH1 0x60 DUP4 ADD MSTORE POP PUSH1 0x80 PUSH2 0x1912 DUP5 DUP3 DUP6 ADD PUSH2 0x19F1 JUMP JUMPDEST PUSH1 0x80 DUP4 ADD MSTORE POP PUSH1 0xA0 PUSH2 0x1926 DUP5 DUP3 DUP6 ADD PUSH2 0x1851 JUMP JUMPDEST PUSH1 0xA0 DUP4 ADD MSTORE POP PUSH1 0xC0 PUSH2 0x193A DUP5 DUP3 DUP6 ADD PUSH2 0x1851 JUMP JUMPDEST PUSH1 0xC0 DUP4 ADD MSTORE POP PUSH1 0xE0 PUSH2 0x194E DUP5 DUP3 DUP6 ADD PUSH2 0x183C JUMP JUMPDEST PUSH1 0xE0 DUP4 ADD MSTORE POP PUSH2 0x100 PUSH2 0x1963 DUP5 DUP3 DUP6 ADD PUSH2 0x19B2 JUMP JUMPDEST PUSH2 0x100 DUP4 ADD MSTORE POP PUSH2 0x120 PUSH2 0x1979 DUP5 DUP3 DUP6 ADD PUSH2 0x19B2 JUMP JUMPDEST PUSH2 0x120 DUP4 ADD MSTORE POP PUSH2 0x140 PUSH2 0x198F DUP5 DUP3 DUP6 ADD PUSH2 0x187B JUMP JUMPDEST PUSH2 0x140 DUP4 ADD MSTORE POP PUSH2 0x160 PUSH2 0x19A5 DUP5 DUP3 DUP6 ADD PUSH2 0x19DC JUMP JUMPDEST PUSH2 0x160 DUP4 ADD MSTORE POP SWAP3 SWAP2 POP POP JUMP JUMPDEST PUSH1 0x0 DUP2 CALLDATALOAD SWAP1 POP PUSH2 0x19C1 DUP2 PUSH2 0x2279 JUMP JUMPDEST SWAP3 SWAP2 POP POP JUMP JUMPDEST PUSH1 0x0 DUP2 CALLDATALOAD SWAP1 POP PUSH2 0x19D6 DUP2 PUSH2 0x2290 JUMP JUMPDEST SWAP3 SWAP2 POP POP JUMP JUMPDEST PUSH1 0x0 DUP2 CALLDATALOAD SWAP1 POP PUSH2 0x19EB DUP2 PUSH2 0x22A7 JUMP JUMPDEST SWAP3 SWAP2 POP POP JUMP JUMPDEST PUSH1 0x0 DUP2 CALLDATALOAD SWAP1 POP PUSH2 0x1A00 DUP2 PUSH2 0x22BE JUMP JUMPDEST SWAP3 SWAP2 POP POP JUMP JUMPDEST PUSH1 0x0 PUSH1 0x20 DUP3 DUP5 SUB SLT ISZERO PUSH2 0x1A1C JUMPI PUSH2 0x1A1B PUSH2 0x2161 JUMP JUMPDEST JUMPDEST PUSH1 0x0 PUSH2 0x1A2A DUP5 DUP3 DUP6 ADD PUSH2 0x183C JUMP JUMPDEST SWAP2 POP POP SWAP3 SWAP2 POP POP JUMP JUMPDEST PUSH1 0x0 DUP1 PUSH2 0x1A0 DUP4 DUP6 SUB SLT ISZERO PUSH2 0x1A4B JUMPI PUSH2 0x1A4A PUSH2 0x2161 JUMP JUMPDEST JUMPDEST PUSH1 0x0 PUSH2 0x1A59 DUP6 DUP3 DUP7 ADD PUSH2 0x183C JUMP JUMPDEST SWAP3 POP POP PUSH1 0x20 PUSH2 0x1A6A DUP6 DUP3 DUP7 ADD PUSH2 0x1890 JUMP JUMPDEST SWAP2 POP POP SWAP3 POP SWAP3 SWAP1 POP JUMP JUMPDEST PUSH1 0x0 DUP1 PUSH1 0x40 DUP4 DUP6 SUB SLT ISZERO PUSH2 0x1A8B JUMPI PUSH2 0x1A8A PUSH2 0x2161 JUMP JUMPDEST JUMPDEST PUSH1 0x0 PUSH2 0x1A99 DUP6 DUP3 DUP7 ADD PUSH2 0x183C JUMP JUMPDEST SWAP3 POP POP PUSH1 0x20 PUSH2 0x1AAA DUP6 DUP3 DUP7 ADD PUSH2 0x19C7 JUMP JUMPDEST SWAP2 POP POP SWAP3 POP SWAP3 SWAP1 POP JUMP JUMPDEST PUSH1 0x0 PUSH1 0x20 DUP3 DUP5 SUB SLT ISZERO PUSH2 0x1ACA JUMPI PUSH2 0x1AC9 PUSH2 0x2161 JUMP JUMPDEST JUMPDEST PUSH1 0x0 PUSH2 0x1AD8 DUP5 DUP3 DUP6 ADD PUSH2 0x19DC JUMP JUMPDEST SWAP2 POP POP SWAP3 SWAP2 POP POP JUMP JUMPDEST PUSH2 0x1AEA DUP2 PUSH2 0x1ED5 JUMP JUMPDEST DUP3 MSTORE POP POP JUMP JUMPDEST PUSH2 0x1AF9 DUP2 PUSH2 0x1EE7 JUMP JUMPDEST DUP3 MSTORE POP POP JUMP JUMPDEST PUSH2 0x1B08 DUP2 PUSH2 0x1EF3 JUMP JUMPDEST DUP3 MSTORE POP POP JUMP JUMPDEST PUSH2 0x1B17 DUP2 PUSH2 0x1F8B JUMP JUMPDEST DUP3 MSTORE POP POP JUMP JUMPDEST PUSH2 0x1B26 DUP2 PUSH2 0x1F9D JUMP JUMPDEST DUP3 MSTORE POP POP JUMP JUMPDEST PUSH2 0x1B35 DUP2 PUSH2 0x1FAF JUMP JUMPDEST DUP3 MSTORE POP POP JUMP JUMPDEST PUSH1 0x0 PUSH2 0x1B46 DUP3 PUSH2 0x1EB9 JUMP JUMPDEST PUSH2 0x1B50 DUP2 DUP6 PUSH2 0x1EC4 JUMP JUMPDEST SWAP4 POP PUSH2 0x1B60 DUP2 DUP6 PUSH1 0x20 DUP7 ADD PUSH2 0x1FC1 JUMP JUMPDEST PUSH2 0x1B69 DUP2 PUSH2 0x2166 JUMP JUMPDEST DUP5 ADD SWAP2 POP POP SWAP3 SWAP2 POP POP JUMP JUMPDEST PUSH1 0x0 PUSH2 0x1B81 PUSH1 0x26 DUP4 PUSH2 0x1EC4 JUMP JUMPDEST SWAP2 POP PUSH2 0x1B8C DUP3 PUSH2 0x2177 JUMP JUMPDEST PUSH1 0x40 DUP3 ADD SWAP1 POP SWAP2 SWAP1 POP JUMP JUMPDEST PUSH1 0x0 PUSH2 0x1BA4 PUSH1 0x12 DUP4 PUSH2 0x1EC4 JUMP JUMPDEST SWAP2 POP PUSH2 0x1BAF DUP3 PUSH2 0x21C6 JUMP JUMPDEST PUSH1 0x20 DUP3 ADD SWAP1 POP SWAP2 SWAP1 POP JUMP JUMPDEST PUSH2 0x1BC3 DUP2 PUSH2 0x1F36 JUMP JUMPDEST DUP3 MSTORE POP POP JUMP JUMPDEST PUSH2 0x1BD2 DUP2 PUSH2 0x1F64 JUMP JUMPDEST DUP3 MSTORE POP POP JUMP JUMPDEST PUSH2 0x1BE1 DUP2 PUSH2 0x1F6E JUMP JUMPDEST DUP3 MSTORE POP POP JUMP JUMPDEST PUSH2 0x1BF0 DUP2 PUSH2 0x1F7E JUMP JUMPDEST DUP3 MSTORE POP POP JUMP JUMPDEST PUSH1 0x0 PUSH1 0x20 DUP3 ADD SWAP1 POP PUSH2 0x1C0B PUSH1 0x0 DUP4 ADD DUP5 PUSH2 0x1AF0 JUMP JUMPDEST SWAP3 SWAP2 POP POP JUMP JUMPDEST PUSH1 0x0 PUSH1 0xC0 DUP3 ADD SWAP1 POP PUSH2 0x1C26 PUSH1 0x0 DUP4 ADD DUP10 PUSH2 0x1AF0 JUMP JUMPDEST PUSH2 0x1C33 PUSH1 0x20 DUP4 ADD DUP9 PUSH2 0x1AE1 JUMP JUMPDEST PUSH2 0x1C40 PUSH1 0x40 DUP4 ADD DUP8 PUSH2 0x1BBA JUMP JUMPDEST PUSH2 0x1C4D PUSH1 0x60 DUP4 ADD DUP7 PUSH2 0x1B2C JUMP JUMPDEST DUP2 DUP2 SUB PUSH1 0x80 DUP4 ADD MSTORE PUSH2 0x1C5F DUP2 DUP6 PUSH2 0x1B3B JUMP JUMPDEST SWAP1 POP DUP2 DUP2 SUB PUSH1 0xA0 DUP4 ADD MSTORE PUSH2 0x1C73 DUP2 DUP5 PUSH2 0x1B3B JUMP JUMPDEST SWAP1 POP SWAP8 SWAP7 POP POP POP POP POP POP POP JUMP JUMPDEST PUSH1 0x0 PUSH1 0x60 DUP3 ADD SWAP1 POP PUSH2 0x1C95 PUSH1 0x0 DUP4 ADD DUP7 PUSH2 0x1AF0 JUMP JUMPDEST DUP2 DUP2 SUB PUSH1 0x20 DUP4 ADD MSTORE PUSH2 0x1CA7 DUP2 DUP6 PUSH2 0x1B3B JUMP JUMPDEST SWAP1 POP PUSH2 0x1CB6 PUSH1 0x40 DUP4 ADD DUP5 PUSH2 0x1BE7 JUMP JUMPDEST SWAP5 SWAP4 POP POP POP POP JUMP JUMPDEST PUSH1 0x0 PUSH1 0x80 DUP3 ADD SWAP1 POP PUSH2 0x1CD3 PUSH1 0x0 DUP4 ADD DUP8 PUSH2 0x1AF0 JUMP JUMPDEST PUSH2 0x1CE0 PUSH1 0x20 DUP4 ADD DUP7 PUSH2 0x1BE7 JUMP JUMPDEST PUSH2 0x1CED PUSH1 0x40 DUP4 ADD DUP6 PUSH2 0x1BC9 JUMP JUMPDEST DUP2 DUP2 SUB PUSH1 0x60 DUP4 ADD MSTORE PUSH2 0x1CFF DUP2 DUP5 PUSH2 0x1B3B JUMP JUMPDEST SWAP1 POP SWAP6 SWAP5 POP POP POP POP POP JUMP JUMPDEST PUSH1 0x0 PUSH1 0x20 DUP3 ADD SWAP1 POP DUP2 DUP2 SUB PUSH1 0x0 DUP4 ADD MSTORE PUSH2 0x1D23 DUP2 PUSH2 0x1B74 JUMP JUMPDEST SWAP1 POP SWAP2 SWAP1 POP JUMP JUMPDEST PUSH1 0x0 PUSH1 0x20 DUP3 ADD SWAP1 POP DUP2 DUP2 SUB PUSH1 0x0 DUP4 ADD MSTORE PUSH2 0x1D43 DUP2 PUSH2 0x1B97 JUMP JUMPDEST SWAP1 POP SWAP2 SWAP1 POP JUMP JUMPDEST PUSH1 0x0 PUSH1 0x20 DUP3 ADD SWAP1 POP PUSH2 0x1D5F PUSH1 0x0 DUP4 ADD DUP5 PUSH2 0x1BC9 JUMP JUMPDEST SWAP3 SWAP2 POP POP JUMP JUMPDEST PUSH1 0x0 PUSH1 0x80 DUP3 ADD SWAP1 POP PUSH2 0x1D7A PUSH1 0x0 DUP4 ADD DUP8 PUSH2 0x1BC9 JUMP JUMPDEST PUSH2 0x1D87 PUSH1 0x20 DUP4 ADD DUP7 PUSH2 0x1AE1 JUMP JUMPDEST PUSH2 0x1D94 PUSH1 0x40 DUP4 ADD DUP6 PUSH2 0x1BC9 JUMP JUMPDEST PUSH2 0x1DA1 PUSH1 0x60 DUP4 ADD DUP5 PUSH2 0x1BC9 JUMP JUMPDEST SWAP6 SWAP5 POP POP POP POP POP JUMP JUMPDEST PUSH1 0x0 PUSH2 0x180 DUP3 ADD SWAP1 POP PUSH2 0x1DC0 PUSH1 0x0 DUP4 ADD DUP16 PUSH2 0x1BC9 JUMP JUMPDEST PUSH2 0x1DCD PUSH1 0x20 DUP4 ADD DUP15 PUSH2 0x1B0E JUMP JUMPDEST PUSH2 0x1DDA PUSH1 0x40 DUP4 ADD DUP14 PUSH2 0x1BC9 JUMP JUMPDEST PUSH2 0x1DE7 PUSH1 0x60 DUP4 ADD DUP13 PUSH2 0x1BC9 JUMP JUMPDEST PUSH2 0x1DF4 PUSH1 0x80 DUP4 ADD DUP12 PUSH2 0x1BE7 JUMP JUMPDEST PUSH2 0x1E01 PUSH1 0xA0 DUP4 ADD DUP11 PUSH2 0x1AFF JUMP JUMPDEST PUSH2 0x1E0E PUSH1 0xC0 DUP4 ADD DUP10 PUSH2 0x1AFF JUMP JUMPDEST PUSH2 0x1E1B PUSH1 0xE0 DUP4 ADD DUP9 PUSH2 0x1AE1 JUMP JUMPDEST PUSH2 0x1E29 PUSH2 0x100 DUP4 ADD DUP8 PUSH2 0x1BBA JUMP JUMPDEST PUSH2 0x1E37 PUSH2 0x120 DUP4 ADD DUP7 PUSH2 0x1BBA JUMP JUMPDEST PUSH2 0x1E45 PUSH2 0x140 DUP4 ADD DUP6 PUSH2 0x1B1D JUMP JUMPDEST PUSH2 0x1E53 PUSH2 0x160 DUP4 ADD DUP5 PUSH2 0x1BD8 JUMP JUMPDEST SWAP14 SWAP13 POP POP POP POP POP POP POP POP POP POP POP POP POP JUMP JUMPDEST PUSH1 0x0 PUSH1 0x40 DUP3 ADD SWAP1 POP PUSH2 0x1E79 PUSH1 0x0 DUP4 ADD DUP6 PUSH2 0x1BD8 JUMP JUMPDEST DUP2 DUP2 SUB PUSH1 0x20 DUP4 ADD MSTORE PUSH2 0x1E8B DUP2 DUP5 PUSH2 0x1B3B JUMP JUMPDEST SWAP1 POP SWAP4 SWAP3 POP POP POP JUMP JUMPDEST PUSH1 0x0 PUSH2 0x1E9E PUSH2 0x1EAF JUMP JUMPDEST SWAP1 POP PUSH2 0x1EAA DUP3 DUP3 PUSH2 0x2026 JUMP JUMPDEST SWAP2 SWAP1 POP JUMP JUMPDEST PUSH1 0x0 PUSH1 0x40 MLOAD SWAP1 POP SWAP1 JUMP JUMPDEST PUSH1 0x0 DUP2 MLOAD SWAP1 POP SWAP2 SWAP1 POP JUMP JUMPDEST PUSH1 0x0 DUP3 DUP3 MSTORE PUSH1 0x20 DUP3 ADD SWAP1 POP SWAP3 SWAP2 POP POP JUMP JUMPDEST PUSH1 0x0 PUSH2 0x1EE0 DUP3 PUSH2 0x1F44 JUMP JUMPDEST SWAP1 POP SWAP2 SWAP1 POP JUMP JUMPDEST PUSH1 0x0 DUP2 ISZERO ISZERO SWAP1 POP SWAP2 SWAP1 POP JUMP JUMPDEST PUSH1 0x0 DUP2 SWAP1 POP SWAP2 SWAP1 POP JUMP JUMPDEST PUSH1 0x0 DUP2 SWAP1 POP PUSH2 0x1F0B DUP3 PUSH2 0x21EF JUMP JUMPDEST SWAP2 SWAP1 POP JUMP JUMPDEST PUSH1 0x0 DUP2 SWAP1 POP PUSH2 0x1F1E DUP3 PUSH2 0x2203 JUMP JUMPDEST SWAP2 SWAP1 POP JUMP JUMPDEST PUSH1 0x0 DUP2 SWAP1 POP PUSH2 0x1F31 DUP3 PUSH2 0x2217 JUMP JUMPDEST SWAP2 SWAP1 POP JUMP JUMPDEST PUSH1 0x0 PUSH2 0xFFFF DUP3 AND SWAP1 POP SWAP2 SWAP1 POP JUMP JUMPDEST PUSH1 0x0 PUSH20 0xFFFFFFFFFFFFFFFFFFFFFFFFFFFFFFFFFFFFFFFF DUP3 AND SWAP1 POP SWAP2 SWAP1 POP JUMP JUMPDEST PUSH1 0x0 DUP2 SWAP1 POP SWAP2 SWAP1 POP JUMP JUMPDEST PUSH1 0x0 PUSH4 0xFFFFFFFF DUP3 AND SWAP1 POP SWAP2 SWAP1 POP JUMP JUMPDEST PUSH1 0x0 PUSH1 0xFF DUP3 AND SWAP1 POP SWAP2 SWAP1 POP JUMP JUMPDEST PUSH1 0x0 PUSH2 0x1F96 DUP3 PUSH2 0x1EFD JUMP JUMPDEST SWAP1 POP SWAP2 SWAP1 POP JUMP JUMPDEST PUSH1 0x0 PUSH2 0x1FA8 DUP3 PUSH2 0x1F10 JUMP JUMPDEST SWAP1 POP SWAP2 SWAP1 POP JUMP JUMPDEST PUSH1 0x0 PUSH2 0x1FBA DUP3 PUSH2 0x1F23 JUMP JUMPDEST SWAP1 POP SWAP2 SWAP1 POP JUMP JUMPDEST PUSH1 0x0 JUMPDEST DUP4 DUP2 LT ISZERO PUSH2 0x1FDF JUMPI DUP1 DUP3 ADD MLOAD DUP2 DUP5 ADD MSTORE PUSH1 0x20 DUP2 ADD SWAP1 POP PUSH2 0x1FC4 JUMP JUMPDEST DUP4 DUP2 GT ISZERO PUSH2 0x1FEE JUMPI PUSH1 0x0 DUP5 DUP5 ADD MSTORE JUMPDEST POP POP POP POP JUMP JUMPDEST PUSH1 0x0 PUSH1 0x2 DUP3 DIV SWAP1 POP PUSH1 0x1 DUP3 AND DUP1 PUSH2 0x200C JUMPI PUSH1 0x7F DUP3 AND SWAP2 POP JUMPDEST PUSH1 0x20 DUP3 LT DUP2 EQ ISZERO PUSH2 0x2020 JUMPI PUSH2 0x201F PUSH2 0x20FE JUMP JUMPDEST JUMPDEST POP SWAP2 SWAP1 POP JUMP JUMPDEST PUSH2 0x202F DUP3 PUSH2 0x2166 JUMP JUMPDEST DUP2 ADD DUP2 DUP2 LT PUSH8 0xFFFFFFFFFFFFFFFF DUP3 GT OR ISZERO PUSH2 0x204E JUMPI PUSH2 0x204D PUSH2 0x212D JUMP JUMPDEST JUMPDEST DUP1 PUSH1 0x40 MSTORE POP POP POP JUMP JUMPDEST PUSH1 0x0 PUSH2 0x2062 DUP3 PUSH2 0x1F64 JUMP JUMPDEST SWAP2 POP PUSH32 0xFFFFFFFFFFFFFFFFFFFFFFFFFFFFFFFFFFFFFFFFFFFFFFFFFFFFFFFFFFFFFFFF DUP3 EQ ISZERO PUSH2 0x2095 JUMPI PUSH2 0x2094 PUSH2 0x20A0 JUMP JUMPDEST JUMPDEST PUSH1 0x1 DUP3 ADD SWAP1 POP SWAP2 SWAP1 POP JUMP JUMPDEST PUSH32 0x4E487B7100000000000000000000000000000000000000000000000000000000 PUSH1 0x0 MSTORE PUSH1 0x11 PUSH1 0x4 MSTORE PUSH1 0x24 PUSH1 0x0 REVERT JUMPDEST PUSH32 0x4E487B7100000000000000000000000000000000000000000000000000000000 PUSH1 0x0 MSTORE PUSH1 0x21 PUSH1 0x4 MSTORE PUSH1 0x24 PUSH1 0x0 REVERT JUMPDEST PUSH32 0x4E487B7100000000000000000000000000000000000000000000000000000000 PUSH1 0x0 MSTORE PUSH1 0x22 PUSH1 0x4 MSTORE PUSH1 0x24 PUSH1 0x0 REVERT JUMPDEST PUSH32 0x4E487B7100000000000000000000000000000000000000000000000000000000 PUSH1 0x0 MSTORE PUSH1 0x41 PUSH1 0x4 MSTORE PUSH1 0x24 PUSH1 0x0 REVERT JUMPDEST PUSH1 0x0 DUP1 REVERT JUMPDEST PUSH1 0x0 DUP1 REVERT JUMPDEST PUSH1 0x0 PUSH1 0x1F NOT PUSH1 0x1F DUP4 ADD AND SWAP1 POP SWAP2 SWAP1 POP JUMP JUMPDEST PUSH32 0x53616465636520556E69766572736974652062752069736C656D692079617061 PUSH1 0x0 DUP3 ADD MSTORE PUSH32 0x62696C69722E0000000000000000000000000000000000000000000000000000 PUSH1 0x20 DUP3 ADD MSTORE POP JUMP JUMPDEST PUSH32 0x53747564656E74206E6F74206578697374730000000000000000000000000000 PUSH1 0x0 DUP3 ADD MSTORE POP JUMP JUMPDEST PUSH1 0x4 DUP2 LT PUSH2 0x2200 JUMPI PUSH2 0x21FF PUSH2 0x20CF JUMP JUMPDEST JUMPDEST POP JUMP JUMPDEST PUSH1 0x4 DUP2 LT PUSH2 0x2214 JUMPI PUSH2 0x2213 PUSH2 0x20CF JUMP JUMPDEST JUMPDEST POP JUMP JUMPDEST PUSH1 0x4 DUP2 LT PUSH2 0x2228 JUMPI PUSH2 0x2227 PUSH2 0x20CF JUMP JUMPDEST JUMPDEST POP JUMP JUMPDEST PUSH2 0x2234 DUP2 PUSH2 0x1ED5 JUMP JUMPDEST DUP2 EQ PUSH2 0x223F JUMPI PUSH1 0x0 DUP1 REVERT JUMPDEST POP JUMP JUMPDEST PUSH2 0x224B DUP2 PUSH2 0x1EF3 JUMP JUMPDEST DUP2 EQ PUSH2 0x2256 JUMPI PUSH1 0x0 DUP1 REVERT JUMPDEST POP JUMP JUMPDEST PUSH1 0x4 DUP2 LT PUSH2 0x2266 JUMPI PUSH1 0x0 DUP1 REVERT JUMPDEST POP JUMP JUMPDEST PUSH1 0x4 DUP2 LT PUSH2 0x2276 JUMPI PUSH1 0x0 DUP1 REVERT JUMPDEST POP JUMP JUMPDEST PUSH2 0x2282 DUP2 PUSH2 0x1F36 JUMP JUMPDEST DUP2 EQ PUSH2 0x228D JUMPI PUSH1 0x0 DUP1 REVERT JUMPDEST POP JUMP JUMPDEST PUSH2 0x2299 DUP2 PUSH2 0x1F64 JUMP JUMPDEST DUP2 EQ PUSH2 0x22A4 JUMPI PUSH1 0x0 DUP1 REVERT JUMPDEST POP JUMP JUMPDEST PUSH2 0x22B0 DUP2 PUSH2 0x1F6E JUMP JUMPDEST DUP2 EQ PUSH2 0x22BB JUMPI PUSH1 0x0 DUP1 REVERT JUMPDEST POP JUMP JUMPDEST PUSH2 0x22C7 DUP2 PUSH2 0x1F7E JUMP JUMPDEST DUP2 EQ PUSH2 0x22D2 JUMPI PUSH1 0x0 DUP1 REVERT JUMPDEST POP JUMP INVALID LOG2 PUSH5 0x6970667358 0x22 SLT KECCAK256 RETURN MSTORE SIGNEXTEND SWAP7 0xEB 0xE8 PUSH12 0x2404FAA90DE2374EF75F083F SELFDESTRUCT CODECOPY ORIGIN ORIGIN 0xEA GT CALLER 0xA9 PUSH24 0x29988E2864736F6C63430008070033000000000000000000 "
				},
				"gasEstimates": {
					"creation": {
						"codeDepositCost": "1794200",
						"executionCost": "1891",
						"totalCost": "1796091"
					},
					"external": {
						"akademisyenler(address)": "infinite",
						"diller(uint32)": "infinite",
						"egitimBilgileri(address,uint256)": "infinite",
						"ekleEgitimBilgi(address,(uint256,uint8,uint256,uint256,uint8,bytes32,bytes32,address,uint16,uint16,uint8,uint32))": "infinite",
						"firmalar(address)": "infinite",
						"guncelleEgitimBilgi(address,(uint256,uint8,uint256,uint256,uint8,bytes32,bytes32,address,uint16,uint16,uint8,uint32))": "infinite",
						"id()": "2473",
						"kamuKurumlari(address)": "infinite",
						"kisiler(address)": "2958",
						"kurslar(address)": "infinite",
						"sertifikaMerkezleri(address)": "infinite",
						"stklar(address)": "infinite",
						"universiteler(address)": "infinite"
					}
				},
				"methodIdentifiers": {
					"akademisyenler(address)": "ba479b7e",
					"diller(uint32)": "a4e7ae05",
					"egitimBilgileri(address,uint256)": "2fe34736",
					"ekleEgitimBilgi(address,(uint256,uint8,uint256,uint256,uint8,bytes32,bytes32,address,uint16,uint16,uint8,uint32))": "43d33527",
					"firmalar(address)": "39987f94",
					"guncelleEgitimBilgi(address,(uint256,uint8,uint256,uint256,uint8,bytes32,bytes32,address,uint16,uint16,uint8,uint32))": "80fc1fd4",
					"id()": "af640d0f",
					"kamuKurumlari(address)": "7d0fa287",
					"kisiler(address)": "cbc92809",
					"kurslar(address)": "1916e139",
					"sertifikaMerkezleri(address)": "356b1f1e",
					"stklar(address)": "9a8c9119",
					"universiteler(address)": "28266697"
				}
			},
			"storageLayout": {
				"storage": [
					{
						"astId": 3,
						"contract": "contracts/EgitimBilgileri.sol:EgitimBilgileri",
						"label": "YOK",
						"offset": 0,
						"slot": "0",
						"type": "t_address"
					},
					{
						"astId": 5,
						"contract": "contracts/EgitimBilgileri.sol:EgitimBilgileri",
						"label": "TOBB",
						"offset": 0,
						"slot": "1",
						"type": "t_address"
					},
					{
						"astId": 7,
						"contract": "contracts/EgitimBilgileri.sol:EgitimBilgileri",
						"label": "CB",
						"offset": 0,
						"slot": "2",
						"type": "t_address"
					},
					{
						"astId": 204,
						"contract": "contracts/EgitimBilgileri.sol:EgitimBilgileri",
						"label": "kisiler",
						"offset": 0,
						"slot": "3",
						"type": "t_mapping(t_address,t_struct(Kisi)10_storage)"
					},
					{
						"astId": 209,
						"contract": "contracts/EgitimBilgileri.sol:EgitimBilgileri",
						"label": "universiteler",
						"offset": 0,
						"slot": "4",
						"type": "t_mapping(t_address,t_struct(Universite)17_storage)"
					},
					{
						"astId": 214,
						"contract": "contracts/EgitimBilgileri.sol:EgitimBilgileri",
						"label": "akademisyenler",
						"offset": 0,
						"slot": "5",
						"type": "t_mapping(t_address,t_struct(Akademisyen)31_storage)"
					},
					{
						"astId": 219,
						"contract": "contracts/EgitimBilgileri.sol:EgitimBilgileri",
						"label": "firmalar",
						"offset": 0,
						"slot": "6",
						"type": "t_mapping(t_address,t_struct(Firma)51_storage)"
					},
					{
						"astId": 224,
						"contract": "contracts/EgitimBilgileri.sol:EgitimBilgileri",
						"label": "kurslar",
						"offset": 0,
						"slot": "7",
						"type": "t_mapping(t_address,t_struct(Kurs)79_storage)"
					},
					{
						"astId": 229,
						"contract": "contracts/EgitimBilgileri.sol:EgitimBilgileri",
						"label": "kamuKurumlari",
						"offset": 0,
						"slot": "8",
						"type": "t_mapping(t_address,t_struct(KamuKurumu)58_storage)"
					},
					{
						"astId": 234,
						"contract": "contracts/EgitimBilgileri.sol:EgitimBilgileri",
						"label": "stklar",
						"offset": 0,
						"slot": "9",
						"type": "t_mapping(t_address,t_struct(STK)65_storage)"
					},
					{
						"astId": 239,
						"contract": "contracts/EgitimBilgileri.sol:EgitimBilgileri",
						"label": "sertifikaMerkezleri",
						"offset": 0,
						"slot": "10",
						"type": "t_mapping(t_address,t_struct(SertifikaMerkezi)72_storage)"
					},
					{
						"astId": 244,
						"contract": "contracts/EgitimBilgileri.sol:EgitimBilgileri",
						"label": "diller",
						"offset": 0,
						"slot": "11",
						"type": "t_mapping(t_uint32,t_struct(YabanciDil)84_storage)"
					},
					{
						"astId": 252,
						"contract": "contracts/EgitimBilgileri.sol:EgitimBilgileri",
						"label": "id",
						"offset": 0,
						"slot": "12",
						"type": "t_uint256"
					},
					{
						"astId": 296,
						"contract": "contracts/EgitimBilgileri.sol:EgitimBilgileri",
						"label": "egitimBilgileri",
						"offset": 0,
						"slot": "13",
						"type": "t_mapping(t_address,t_mapping(t_uint256,t_struct(EgitimBilgi)279_storage))"
					}
				],
				"types": {
					"t_address": {
						"encoding": "inplace",
						"label": "address",
						"numberOfBytes": "20"
					},
					"t_bool": {
						"encoding": "inplace",
						"label": "bool",
						"numberOfBytes": "1"
					},
					"t_bytes32": {
						"encoding": "inplace",
						"label": "bytes32",
						"numberOfBytes": "32"
					},
					"t_enum(EgitimDurumu)284": {
						"encoding": "inplace",
						"label": "enum EgitimBilgileri.EgitimDurumu",
						"numberOfBytes": "1"
					},
					"t_enum(OgretimTipi)289": {
						"encoding": "inplace",
						"label": "enum EgitimBilgileri.OgretimTipi",
						"numberOfBytes": "1"
					},
					"t_enum(Unvan)36": {
						"encoding": "inplace",
						"label": "enum BaseContract.Unvan",
						"numberOfBytes": "1"
					},
					"t_mapping(t_address,t_mapping(t_uint256,t_struct(EgitimBilgi)279_storage))": {
						"encoding": "mapping",
						"key": "t_address",
						"label": "mapping(address => mapping(uint256 => struct EgitimBilgileri.EgitimBilgi))",
						"numberOfBytes": "32",
						"value": "t_mapping(t_uint256,t_struct(EgitimBilgi)279_storage)"
					},
					"t_mapping(t_address,t_struct(Akademisyen)31_storage)": {
						"encoding": "mapping",
						"key": "t_address",
						"label": "mapping(address => struct BaseContract.Akademisyen)",
						"numberOfBytes": "32",
						"value": "t_struct(Akademisyen)31_storage"
					},
					"t_mapping(t_address,t_struct(Firma)51_storage)": {
						"encoding": "mapping",
						"key": "t_address",
						"label": "mapping(address => struct BaseContract.Firma)",
						"numberOfBytes": "32",
						"value": "t_struct(Firma)51_storage"
					},
					"t_mapping(t_address,t_struct(KamuKurumu)58_storage)": {
						"encoding": "mapping",
						"key": "t_address",
						"label": "mapping(address => struct BaseContract.KamuKurumu)",
						"numberOfBytes": "32",
						"value": "t_struct(KamuKurumu)58_storage"
					},
					"t_mapping(t_address,t_struct(Kisi)10_storage)": {
						"encoding": "mapping",
						"key": "t_address",
						"label": "mapping(address => struct BaseContract.Kisi)",
						"numberOfBytes": "32",
						"value": "t_struct(Kisi)10_storage"
					},
					"t_mapping(t_address,t_struct(Kurs)79_storage)": {
						"encoding": "mapping",
						"key": "t_address",
						"label": "mapping(address => struct BaseContract.Kurs)",
						"numberOfBytes": "32",
						"value": "t_struct(Kurs)79_storage"
					},
					"t_mapping(t_address,t_struct(STK)65_storage)": {
						"encoding": "mapping",
						"key": "t_address",
						"label": "mapping(address => struct BaseContract.STK)",
						"numberOfBytes": "32",
						"value": "t_struct(STK)65_storage"
					},
					"t_mapping(t_address,t_struct(SertifikaMerkezi)72_storage)": {
						"encoding": "mapping",
						"key": "t_address",
						"label": "mapping(address => struct BaseContract.SertifikaMerkezi)",
						"numberOfBytes": "32",
						"value": "t_struct(SertifikaMerkezi)72_storage"
					},
					"t_mapping(t_address,t_struct(Universite)17_storage)": {
						"encoding": "mapping",
						"key": "t_address",
						"label": "mapping(address => struct BaseContract.Universite)",
						"numberOfBytes": "32",
						"value": "t_struct(Universite)17_storage"
					},
					"t_mapping(t_uint256,t_struct(EgitimBilgi)279_storage)": {
						"encoding": "mapping",
						"key": "t_uint256",
						"label": "mapping(uint256 => struct EgitimBilgileri.EgitimBilgi)",
						"numberOfBytes": "32",
						"value": "t_struct(EgitimBilgi)279_storage"
					},
					"t_mapping(t_uint32,t_struct(YabanciDil)84_storage)": {
						"encoding": "mapping",
						"key": "t_uint32",
						"label": "mapping(uint32 => struct BaseContract.YabanciDil)",
						"numberOfBytes": "32",
						"value": "t_struct(YabanciDil)84_storage"
					},
					"t_string_storage": {
						"encoding": "bytes",
						"label": "string",
						"numberOfBytes": "32"
					},
					"t_struct(Akademisyen)31_storage": {
						"encoding": "inplace",
						"label": "struct BaseContract.Akademisyen",
						"members": [
							{
								"astId": 19,
								"contract": "contracts/EgitimBilgileri.sol:EgitimBilgileri",
								"label": "durum",
								"offset": 0,
								"slot": "0",
								"type": "t_bool"
							},
							{
								"astId": 21,
								"contract": "contracts/EgitimBilgileri.sol:EgitimBilgileri",
								"label": "universite",
								"offset": 1,
								"slot": "0",
								"type": "t_address"
							},
							{
								"astId": 23,
								"contract": "contracts/EgitimBilgileri.sol:EgitimBilgileri",
								"label": "bolum",
								"offset": 21,
								"slot": "0",
								"type": "t_uint16"
							},
							{
								"astId": 26,
								"contract": "contracts/EgitimBilgileri.sol:EgitimBilgileri",
								"label": "unvan",
								"offset": 23,
								"slot": "0",
								"type": "t_enum(Unvan)36"
							},
							{
								"astId": 28,
								"contract": "contracts/EgitimBilgileri.sol:EgitimBilgileri",
								"label": "ad",
								"offset": 0,
								"slot": "1",
								"type": "t_string_storage"
							},
							{
								"astId": 30,
								"contract": "contracts/EgitimBilgileri.sol:EgitimBilgileri",
								"label": "soyad",
								"offset": 0,
								"slot": "2",
								"type": "t_string_storage"
							}
						],
						"numberOfBytes": "96"
					},
					"t_struct(EgitimBilgi)279_storage": {
						"encoding": "inplace",
						"label": "struct EgitimBilgileri.EgitimBilgi",
						"members": [
							{
								"astId": 254,
								"contract": "contracts/EgitimBilgileri.sol:EgitimBilgileri",
								"label": "id",
								"offset": 0,
								"slot": "0",
								"type": "t_uint256"
							},
							{
								"astId": 257,
								"contract": "contracts/EgitimBilgileri.sol:EgitimBilgileri",
								"label": "egitimDurumu",
								"offset": 0,
								"slot": "1",
								"type": "t_enum(EgitimDurumu)284"
							},
							{
								"astId": 259,
								"contract": "contracts/EgitimBilgileri.sol:EgitimBilgileri",
								"label": "basTarih",
								"offset": 0,
								"slot": "2",
								"type": "t_uint256"
							},
							{
								"astId": 261,
								"contract": "contracts/EgitimBilgileri.sol:EgitimBilgileri",
								"label": "bitTarih",
								"offset": 0,
								"slot": "3",
								"type": "t_uint256"
							},
							{
								"astId": 263,
								"contract": "contracts/EgitimBilgileri.sol:EgitimBilgileri",
								"label": "diplomaNotu",
								"offset": 0,
								"slot": "4",
								"type": "t_uint8"
							},
							{
								"astId": 265,
								"contract": "contracts/EgitimBilgileri.sol:EgitimBilgileri",
								"label": "diplomaBelge",
								"offset": 0,
								"slot": "5",
								"type": "t_bytes32"
							},
							{
								"astId": 267,
								"contract": "contracts/EgitimBilgileri.sol:EgitimBilgileri",
								"label": "transcriptBelge",
								"offset": 0,
								"slot": "6",
								"type": "t_bytes32"
							},
							{
								"astId": 269,
								"contract": "contracts/EgitimBilgileri.sol:EgitimBilgileri",
								"label": "universite",
								"offset": 0,
								"slot": "7",
								"type": "t_address"
							},
							{
								"astId": 271,
								"contract": "contracts/EgitimBilgileri.sol:EgitimBilgileri",
								"label": "fakulte",
								"offset": 20,
								"slot": "7",
								"type": "t_uint16"
							},
							{
								"astId": 273,
								"contract": "contracts/EgitimBilgileri.sol:EgitimBilgileri",
								"label": "bolum",
								"offset": 22,
								"slot": "7",
								"type": "t_uint16"
							},
							{
								"astId": 276,
								"contract": "contracts/EgitimBilgileri.sol:EgitimBilgileri",
								"label": "ogretimTipi",
								"offset": 24,
								"slot": "7",
								"type": "t_enum(OgretimTipi)289"
							},
							{
								"astId": 278,
								"contract": "contracts/EgitimBilgileri.sol:EgitimBilgileri",
								"label": "ogretimDili",
								"offset": 25,
								"slot": "7",
								"type": "t_uint32"
							}
						],
						"numberOfBytes": "256"
					},
					"t_struct(Firma)51_storage": {
						"encoding": "inplace",
						"label": "struct BaseContract.Firma",
						"members": [
							{
								"astId": 44,
								"contract": "contracts/EgitimBilgileri.sol:EgitimBilgileri",
								"label": "durum",
								"offset": 0,
								"slot": "0",
								"type": "t_bool"
							},
							{
								"astId": 46,
								"contract": "contracts/EgitimBilgileri.sol:EgitimBilgileri",
								"label": "ulke",
								"offset": 1,
								"slot": "0",
								"type": "t_uint8"
							},
							{
								"astId": 48,
								"contract": "contracts/EgitimBilgileri.sol:EgitimBilgileri",
								"label": "vergiNo",
								"offset": 0,
								"slot": "1",
								"type": "t_uint256"
							},
							{
								"astId": 50,
								"contract": "contracts/EgitimBilgileri.sol:EgitimBilgileri",
								"label": "isim",
								"offset": 0,
								"slot": "2",
								"type": "t_string_storage"
							}
						],
						"numberOfBytes": "96"
					},
					"t_struct(KamuKurumu)58_storage": {
						"encoding": "inplace",
						"label": "struct BaseContract.KamuKurumu",
						"members": [
							{
								"astId": 53,
								"contract": "contracts/EgitimBilgileri.sol:EgitimBilgileri",
								"label": "durum",
								"offset": 0,
								"slot": "0",
								"type": "t_bool"
							},
							{
								"astId": 55,
								"contract": "contracts/EgitimBilgileri.sol:EgitimBilgileri",
								"label": "isim",
								"offset": 0,
								"slot": "1",
								"type": "t_string_storage"
							},
							{
								"astId": 57,
								"contract": "contracts/EgitimBilgileri.sol:EgitimBilgileri",
								"label": "ulke",
								"offset": 0,
								"slot": "2",
								"type": "t_uint8"
							}
						],
						"numberOfBytes": "96"
					},
					"t_struct(Kisi)10_storage": {
						"encoding": "inplace",
						"label": "struct BaseContract.Kisi",
						"members": [
							{
								"astId": 9,
								"contract": "contracts/EgitimBilgileri.sol:EgitimBilgileri",
								"label": "durum",
								"offset": 0,
								"slot": "0",
								"type": "t_bool"
							}
						],
						"numberOfBytes": "32"
					},
					"t_struct(Kurs)79_storage": {
						"encoding": "inplace",
						"label": "struct BaseContract.Kurs",
						"members": [
							{
								"astId": 74,
								"contract": "contracts/EgitimBilgileri.sol:EgitimBilgileri",
								"label": "durum",
								"offset": 0,
								"slot": "0",
								"type": "t_bool"
							},
							{
								"astId": 76,
								"contract": "contracts/EgitimBilgileri.sol:EgitimBilgileri",
								"label": "isim",
								"offset": 0,
								"slot": "1",
								"type": "t_string_storage"
							},
							{
								"astId": 78,
								"contract": "contracts/EgitimBilgileri.sol:EgitimBilgileri",
								"label": "ulke",
								"offset": 0,
								"slot": "2",
								"type": "t_uint8"
							}
						],
						"numberOfBytes": "96"
					},
					"t_struct(STK)65_storage": {
						"encoding": "inplace",
						"label": "struct BaseContract.STK",
						"members": [
							{
								"astId": 60,
								"contract": "contracts/EgitimBilgileri.sol:EgitimBilgileri",
								"label": "durum",
								"offset": 0,
								"slot": "0",
								"type": "t_bool"
							},
							{
								"astId": 62,
								"contract": "contracts/EgitimBilgileri.sol:EgitimBilgileri",
								"label": "isim",
								"offset": 0,
								"slot": "1",
								"type": "t_string_storage"
							},
							{
								"astId": 64,
								"contract": "contracts/EgitimBilgileri.sol:EgitimBilgileri",
								"label": "ulke",
								"offset": 0,
								"slot": "2",
								"type": "t_uint8"
							}
						],
						"numberOfBytes": "96"
					},
					"t_struct(SertifikaMerkezi)72_storage": {
						"encoding": "inplace",
						"label": "struct BaseContract.SertifikaMerkezi",
						"members": [
							{
								"astId": 67,
								"contract": "contracts/EgitimBilgileri.sol:EgitimBilgileri",
								"label": "durum",
								"offset": 0,
								"slot": "0",
								"type": "t_bool"
							},
							{
								"astId": 69,
								"contract": "contracts/EgitimBilgileri.sol:EgitimBilgileri",
								"label": "isim",
								"offset": 0,
								"slot": "1",
								"type": "t_string_storage"
							},
							{
								"astId": 71,
								"contract": "contracts/EgitimBilgileri.sol:EgitimBilgileri",
								"label": "ulke",
								"offset": 0,
								"slot": "2",
								"type": "t_uint8"
							}
						],
						"numberOfBytes": "96"
					},
					"t_struct(Universite)17_storage": {
						"encoding": "inplace",
						"label": "struct BaseContract.Universite",
						"members": [
							{
								"astId": 12,
								"contract": "contracts/EgitimBilgileri.sol:EgitimBilgileri",
								"label": "durum",
								"offset": 0,
								"slot": "0",
								"type": "t_bool"
							},
							{
								"astId": 14,
								"contract": "contracts/EgitimBilgileri.sol:EgitimBilgileri",
								"label": "isim",
								"offset": 0,
								"slot": "1",
								"type": "t_string_storage"
							},
							{
								"astId": 16,
								"contract": "contracts/EgitimBilgileri.sol:EgitimBilgileri",
								"label": "ulke",
								"offset": 0,
								"slot": "2",
								"type": "t_uint8"
							}
						],
						"numberOfBytes": "96"
					},
					"t_struct(YabanciDil)84_storage": {
						"encoding": "inplace",
						"label": "struct BaseContract.YabanciDil",
						"members": [
							{
								"astId": 81,
								"contract": "contracts/EgitimBilgileri.sol:EgitimBilgileri",
								"label": "id",
								"offset": 0,
								"slot": "0",
								"type": "t_uint32"
							},
							{
								"astId": 83,
								"contract": "contracts/EgitimBilgileri.sol:EgitimBilgileri",
								"label": "isim",
								"offset": 0,
								"slot": "1",
								"type": "t_string_storage"
							}
						],
						"numberOfBytes": "64"
					},
					"t_uint16": {
						"encoding": "inplace",
						"label": "uint16",
						"numberOfBytes": "2"
					},
					"t_uint256": {
						"encoding": "inplace",
						"label": "uint256",
						"numberOfBytes": "32"
					},
					"t_uint32": {
						"encoding": "inplace",
						"label": "uint32",
						"numberOfBytes": "4"
					},
					"t_uint8": {
						"encoding": "inplace",
						"label": "uint8",
						"numberOfBytes": "1"
					}
				}
			},
			"userdoc": {
				"kind": "user",
				"methods": {},
				"version": 1
			}
		}
	}
}