{
	"contracts/CalismaBilgileri.sol": {
		"CalismaBilgileri": {
			"abi": [
				{
					"anonymous": false,
					"inputs": [
						{
							"indexed": false,
							"internalType": "address",
							"name": "_kisiAdres",
							"type": "address"
						},
						{
							"indexed": false,
							"internalType": "address",
							"name": "_kurumAdres",
							"type": "address"
						},
						{
							"indexed": false,
							"internalType": "uint256",
							"name": "_pozisyon",
							"type": "uint256"
						},
						{
							"indexed": false,
							"internalType": "uint256",
							"name": "_sektor",
							"type": "uint256"
						}
					],
					"name": "CalismaBilgiEklendiLog",
					"type": "event"
				},
				{
					"anonymous": false,
					"inputs": [
						{
							"indexed": false,
							"internalType": "address",
							"name": "_kisiAdres",
							"type": "address"
						},
						{
							"indexed": false,
							"internalType": "address",
							"name": "_kurumAdres",
							"type": "address"
						},
						{
							"indexed": false,
							"internalType": "uint256",
							"name": "_pozisyon",
							"type": "uint256"
						},
						{
							"indexed": false,
							"internalType": "uint256",
							"name": "_sektor",
							"type": "uint256"
						}
					],
					"name": "CalismaBilgiGuncellendiLog",
					"type": "event"
				},
				{
					"inputs": [
						{
							"internalType": "address",
							"name": "",
							"type": "address"
						}
					],
					"name": "akademisyenler",
					"outputs": [
						{
							"internalType": "bool",
							"name": "durum",
							"type": "bool"
						},
						{
							"internalType": "address",
							"name": "universite",
							"type": "address"
						},
						{
							"internalType": "uint16",
							"name": "bolum",
							"type": "uint16"
						},
						{
							"internalType": "enum BaseContract.Unvan",
							"name": "unvan",
							"type": "uint8"
						},
						{
							"internalType": "string",
							"name": "ad",
							"type": "string"
						},
						{
							"internalType": "string",
							"name": "soyad",
							"type": "string"
						}
					],
					"stateMutability": "view",
					"type": "function"
				},
				{
					"inputs": [
						{
							"internalType": "address",
							"name": "",
							"type": "address"
						},
						{
							"internalType": "uint256",
							"name": "",
							"type": "uint256"
						}
					],
					"name": "calismaBilgileri",
					"outputs": [
						{
							"internalType": "uint256",
							"name": "id",
							"type": "uint256"
						},
						{
							"internalType": "address",
							"name": "kurumAdres",
							"type": "address"
						},
						{
							"internalType": "uint32",
							"name": "pozisyon",
							"type": "uint32"
						},
						{
							"internalType": "uint8",
							"name": "sektor",
							"type": "uint8"
						},
						{
							"internalType": "enum CalismaBilgileri.CalismaTipi",
							"name": "calismaTipi",
							"type": "uint8"
						},
						{
							"internalType": "string",
							"name": "isAciklama",
							"type": "string"
						},
						{
							"internalType": "uint256",
							"name": "basTarih",
							"type": "uint256"
						},
						{
							"internalType": "uint256",
							"name": "bitTarih",
							"type": "uint256"
						},
						{
							"internalType": "uint8",
							"name": "ulke",
							"type": "uint8"
						},
						{
							"internalType": "uint32",
							"name": "sehir",
							"type": "uint32"
						},
						{
							"components": [
								{
									"internalType": "uint256",
									"name": "zaman",
									"type": "uint256"
								},
								{
									"internalType": "address",
									"name": "adres",
									"type": "address"
								},
								{
									"internalType": "enum BaseContract.OnayDurum",
									"name": "durum",
									"type": "uint8"
								}
							],
							"internalType": "struct BaseContract.Onay",
							"name": "onayBilgi",
							"type": "tuple"
						}
					],
					"stateMutability": "view",
					"type": "function"
				},
				{
					"inputs": [
						{
							"internalType": "uint32",
							"name": "",
							"type": "uint32"
						}
					],
					"name": "diller",
					"outputs": [
						{
							"internalType": "uint32",
							"name": "id",
							"type": "uint32"
						},
						{
							"internalType": "string",
							"name": "isim",
							"type": "string"
						}
					],
					"stateMutability": "view",
					"type": "function"
				},
				{
					"inputs": [
						{
							"internalType": "address",
							"name": "_kisiAddress",
							"type": "address"
						},
						{
							"internalType": "address",
							"name": "kurumAdres",
							"type": "address"
						},
						{
							"internalType": "uint32",
							"name": "pozisyon",
							"type": "uint32"
						},
						{
							"internalType": "uint8",
							"name": "sektor",
							"type": "uint8"
						},
						{
							"internalType": "enum CalismaBilgileri.CalismaTipi",
							"name": "calismaTipi",
							"type": "uint8"
						},
						{
							"internalType": "string",
							"name": "isAciklama",
							"type": "string"
						},
						{
							"internalType": "uint256",
							"name": "basTarih",
							"type": "uint256"
						},
						{
							"internalType": "uint256",
							"name": "bitTarih",
							"type": "uint256"
						},
						{
							"internalType": "uint8",
							"name": "ulke",
							"type": "uint8"
						},
						{
							"internalType": "uint32",
							"name": "sehir",
							"type": "uint32"
						}
					],
					"name": "ekleCalismaBilgi",
					"outputs": [],
					"stateMutability": "nonpayable",
					"type": "function"
				},
				{
					"inputs": [
						{
							"internalType": "address",
							"name": "",
							"type": "address"
						}
					],
					"name": "firmalar",
					"outputs": [
						{
							"internalType": "bool",
							"name": "durum",
							"type": "bool"
						},
						{
							"internalType": "uint8",
							"name": "ulke",
							"type": "uint8"
						},
						{
							"internalType": "uint256",
							"name": "vergiNo",
							"type": "uint256"
						},
						{
							"internalType": "string",
							"name": "isim",
							"type": "string"
						}
					],
					"stateMutability": "view",
					"type": "function"
				},
				{
					"inputs": [
						{
							"internalType": "address",
							"name": "_kisiAddress",
							"type": "address"
						},
						{
							"internalType": "uint256",
							"name": "_calismaBilgiId",
							"type": "uint256"
						},
						{
							"internalType": "address",
							"name": "kurumAdres",
							"type": "address"
						},
						{
							"internalType": "uint32",
							"name": "pozisyon",
							"type": "uint32"
						},
						{
							"internalType": "uint8",
							"name": "sektor",
							"type": "uint8"
						},
						{
							"internalType": "enum CalismaBilgileri.CalismaTipi",
							"name": "calismaTipi",
							"type": "uint8"
						},
						{
							"internalType": "string",
							"name": "isAciklama",
							"type": "string"
						},
						{
							"internalType": "uint256",
							"name": "basTarih",
							"type": "uint256"
						},
						{
							"internalType": "uint256",
							"name": "bitTarih",
							"type": "uint256"
						},
						{
							"internalType": "uint8",
							"name": "ulke",
							"type": "uint8"
						},
						{
							"internalType": "uint32",
							"name": "sehir",
							"type": "uint32"
						}
					],
					"name": "guncelleCalismaBilgi",
					"outputs": [
						{
							"internalType": "uint256",
							"name": "",
							"type": "uint256"
						}
					],
					"stateMutability": "nonpayable",
					"type": "function"
				},
				{
					"inputs": [],
					"name": "id",
					"outputs": [
						{
							"internalType": "uint256",
							"name": "",
							"type": "uint256"
						}
					],
					"stateMutability": "view",
					"type": "function"
				},
				{
					"inputs": [
						{
							"internalType": "address",
							"name": "",
							"type": "address"
						}
					],
					"name": "kamuKurumlari",
					"outputs": [
						{
							"internalType": "bool",
							"name": "durum",
							"type": "bool"
						},
						{
							"internalType": "string",
							"name": "isim",
							"type": "string"
						},
						{
							"internalType": "uint8",
							"name": "ulke",
							"type": "uint8"
						}
					],
					"stateMutability": "view",
					"type": "function"
				},
				{
					"inputs": [
						{
							"internalType": "address",
							"name": "",
							"type": "address"
						}
					],
					"name": "kisiler",
					"outputs": [
						{
							"internalType": "bool",
							"name": "durum",
							"type": "bool"
						}
					],
					"stateMutability": "view",
					"type": "function"
				},
				{
					"inputs": [
						{
							"internalType": "address",
							"name": "",
							"type": "address"
						}
					],
					"name": "kurslar",
					"outputs": [
						{
							"internalType": "bool",
							"name": "durum",
							"type": "bool"
						},
						{
							"internalType": "string",
							"name": "isim",
							"type": "string"
						},
						{
							"internalType": "uint8",
							"name": "ulke",
							"type": "uint8"
						}
					],
					"stateMutability": "view",
					"type": "function"
				},
				{
					"inputs": [
						{
							"internalType": "address",
							"name": "",
							"type": "address"
						}
					],
					"name": "sertifikaMerkezleri",
					"outputs": [
						{
							"internalType": "bool",
							"name": "durum",
							"type": "bool"
						},
						{
							"internalType": "string",
							"name": "isim",
							"type": "string"
						},
						{
							"internalType": "uint8",
							"name": "ulke",
							"type": "uint8"
						}
					],
					"stateMutability": "view",
					"type": "function"
				},
				{
					"inputs": [
						{
							"internalType": "address",
							"name": "",
							"type": "address"
						}
					],
					"name": "stklar",
					"outputs": [
						{
							"internalType": "bool",
							"name": "durum",
							"type": "bool"
						},
						{
							"internalType": "string",
							"name": "isim",
							"type": "string"
						},
						{
							"internalType": "uint8",
							"name": "ulke",
							"type": "uint8"
						}
					],
					"stateMutability": "view",
					"type": "function"
				},
				{
					"inputs": [
						{
							"internalType": "address",
							"name": "",
							"type": "address"
						}
					],
					"name": "universiteler",
					"outputs": [
						{
							"internalType": "bool",
							"name": "durum",
							"type": "bool"
						},
						{
							"internalType": "string",
							"name": "isim",
							"type": "string"
						},
						{
							"internalType": "uint8",
							"name": "ulke",
							"type": "uint8"
						}
					],
					"stateMutability": "view",
					"type": "function"
				}
			],
			"devdoc": {
				"kind": "dev",
				"methods": {},
				"version": 1
			},
			"evm": {
				"assembly": "    /* \"contracts/CalismaBilgileri.sol\":137:3913  contract CalismaBilgileri is BaseContract{\r... */\n  mstore(0x40, 0x80)\n  callvalue\n  dup1\n  iszero\n  tag_1\n  jumpi\n  0x00\n  dup1\n  revert\ntag_1:\n  pop\n  dataSize(sub_0)\n  dup1\n  dataOffset(sub_0)\n  0x00\n  codecopy\n  0x00\n  return\nstop\n\nsub_0: assembly {\n        /* \"contracts/CalismaBilgileri.sol\":137:3913  contract CalismaBilgileri is BaseContract{\r... */\n      mstore(0x40, 0x80)\n      callvalue\n      dup1\n      iszero\n      tag_1\n      jumpi\n      0x00\n      dup1\n      revert\n    tag_1:\n      pop\n      jumpi(tag_2, lt(calldatasize, 0x04))\n      shr(0xe0, calldataload(0x00))\n      dup1\n      0x7d0fa287\n      gt\n      tag_16\n      jumpi\n      dup1\n      0xaf640d0f\n      gt\n      tag_17\n      jumpi\n      dup1\n      0xaf640d0f\n      eq\n      tag_12\n      jumpi\n      dup1\n      0xb34b5539\n      eq\n      tag_13\n      jumpi\n      dup1\n      0xba479b7e\n      eq\n      tag_14\n      jumpi\n      dup1\n      0xcbc92809\n      eq\n      tag_15\n      jumpi\n      jump(tag_2)\n    tag_17:\n      dup1\n      0x7d0fa287\n      eq\n      tag_9\n      jumpi\n      dup1\n      0x9a8c9119\n      eq\n      tag_10\n      jumpi\n      dup1\n      0xa4e7ae05\n      eq\n      tag_11\n      jumpi\n      jump(tag_2)\n    tag_16:\n      dup1\n      0x0fb0b1b2\n      eq\n      tag_3\n      jumpi\n      dup1\n      0x1916e139\n      eq\n      tag_4\n      jumpi\n      dup1\n      0x28266697\n      eq\n      tag_5\n      jumpi\n      dup1\n      0x356b1f1e\n      eq\n      tag_6\n      jumpi\n      dup1\n      0x39987f94\n      eq\n      tag_7\n      jumpi\n      dup1\n      0x7b6524fe\n      eq\n      tag_8\n      jumpi\n    tag_2:\n      0x00\n      dup1\n      revert\n        /* \"contracts/CalismaBilgileri.sol\":669:738  mapping(address=>mapping(uint=>CalismaBilgi)) public calismaBilgileri */\n    tag_3:\n      tag_18\n      0x04\n      dup1\n      calldatasize\n      sub\n      dup2\n      add\n      swap1\n      tag_19\n      swap2\n      swap1\n      tag_20\n      jump\t// in\n    tag_19:\n      tag_21\n      jump\t// in\n    tag_18:\n      mload(0x40)\n      tag_22\n      swap12\n      swap11\n      swap10\n      swap9\n      swap8\n      swap7\n      swap6\n      swap5\n      swap4\n      swap3\n      swap2\n      swap1\n      tag_23\n      jump\t// in\n    tag_22:\n      mload(0x40)\n      dup1\n      swap2\n      sub\n      swap1\n      return\n        /* \"contracts/BaseContract.sol\":3151:3189  mapping(address=>Kurs) public  kurslar */\n    tag_4:\n      tag_24\n      0x04\n      dup1\n      calldatasize\n      sub\n      dup2\n      add\n      swap1\n      tag_25\n      swap2\n      swap1\n      tag_26\n      jump\t// in\n    tag_25:\n      tag_27\n      jump\t// in\n    tag_24:\n      mload(0x40)\n      tag_28\n      swap4\n      swap3\n      swap2\n      swap1\n      tag_29\n      jump\t// in\n    tag_28:\n      mload(0x40)\n      dup1\n      swap2\n      sub\n      swap1\n      return\n        /* \"contracts/BaseContract.sol\":2990:3039  mapping(address=>Universite) public universiteler */\n    tag_5:\n      tag_30\n      0x04\n      dup1\n      calldatasize\n      sub\n      dup2\n      add\n      swap1\n      tag_31\n      swap2\n      swap1\n      tag_26\n      jump\t// in\n    tag_31:\n      tag_32\n      jump\t// in\n    tag_30:\n      mload(0x40)\n      tag_33\n      swap4\n      swap3\n      swap2\n      swap1\n      tag_29\n      jump\t// in\n    tag_33:\n      mload(0x40)\n      dup1\n      swap2\n      sub\n      swap1\n      return\n        /* \"contracts/BaseContract.sol\":3294:3355  mapping(address=>SertifikaMerkezi) public sertifikaMerkezleri */\n    tag_6:\n      tag_34\n      0x04\n      dup1\n      calldatasize\n      sub\n      dup2\n      add\n      swap1\n      tag_35\n      swap2\n      swap1\n      tag_26\n      jump\t// in\n    tag_35:\n      tag_36\n      jump\t// in\n    tag_34:\n      mload(0x40)\n      tag_37\n      swap4\n      swap3\n      swap2\n      swap1\n      tag_29\n      jump\t// in\n    tag_37:\n      mload(0x40)\n      dup1\n      swap2\n      sub\n      swap1\n      return\n        /* \"contracts/BaseContract.sol\":3104:3144  mapping(address=>Firma) public  firmalar */\n    tag_7:\n      tag_38\n      0x04\n      dup1\n      calldatasize\n      sub\n      dup2\n      add\n      swap1\n      tag_39\n      swap2\n      swap1\n      tag_26\n      jump\t// in\n    tag_39:\n      tag_40\n      jump\t// in\n    tag_38:\n      mload(0x40)\n      tag_41\n      swap5\n      swap4\n      swap3\n      swap2\n      swap1\n      tag_42\n      jump\t// in\n    tag_41:\n      mload(0x40)\n      dup1\n      swap2\n      sub\n      swap1\n      return\n        /* \"contracts/CalismaBilgileri.sol\":2364:3903  function guncelleCalismaBilgi(address _kisiAddress, uint _calismaBilgiId, address kurumAdres, uint32 pozisyon, uint8 sektor, CalismaTipi calismaTipi, string memory isAciklama, uint basTarih, uint bitTarih, uint8 ulke, uint32 sehir)  public sadece_Uni_Firma_Kamu returns(uint){\r... */\n    tag_8:\n      tag_43\n      0x04\n      dup1\n      calldatasize\n      sub\n      dup2\n      add\n      swap1\n      tag_44\n      swap2\n      swap1\n      tag_45\n      jump\t// in\n    tag_44:\n      tag_46\n      jump\t// in\n    tag_43:\n      mload(0x40)\n      tag_47\n      swap2\n      swap1\n      tag_48\n      jump\t// in\n    tag_47:\n      mload(0x40)\n      dup1\n      swap2\n      sub\n      swap1\n      return\n        /* \"contracts/BaseContract.sol\":3196:3245  mapping(address=>KamuKurumu) public kamuKurumlari */\n    tag_9:\n      tag_49\n      0x04\n      dup1\n      calldatasize\n      sub\n      dup2\n      add\n      swap1\n      tag_50\n      swap2\n      swap1\n      tag_26\n      jump\t// in\n    tag_50:\n      tag_51\n      jump\t// in\n    tag_49:\n      mload(0x40)\n      tag_52\n      swap4\n      swap3\n      swap2\n      swap1\n      tag_29\n      jump\t// in\n    tag_52:\n      mload(0x40)\n      dup1\n      swap2\n      sub\n      swap1\n      return\n        /* \"contracts/BaseContract.sol\":3252:3287  mapping(address=>STK) public stklar */\n    tag_10:\n      tag_53\n      0x04\n      dup1\n      calldatasize\n      sub\n      dup2\n      add\n      swap1\n      tag_54\n      swap2\n      swap1\n      tag_26\n      jump\t// in\n    tag_54:\n      tag_55\n      jump\t// in\n    tag_53:\n      mload(0x40)\n      tag_56\n      swap4\n      swap3\n      swap2\n      swap1\n      tag_29\n      jump\t// in\n    tag_56:\n      mload(0x40)\n      dup1\n      swap2\n      sub\n      swap1\n      return\n        /* \"contracts/BaseContract.sol\":3365:3406  mapping(uint32=>YabanciDil) public diller */\n    tag_11:\n      tag_57\n      0x04\n      dup1\n      calldatasize\n      sub\n      dup2\n      add\n      swap1\n      tag_58\n      swap2\n      swap1\n      tag_59\n      jump\t// in\n    tag_58:\n      tag_60\n      jump\t// in\n    tag_57:\n      mload(0x40)\n      tag_61\n      swap3\n      swap2\n      swap1\n      tag_62\n      jump\t// in\n    tag_61:\n      mload(0x40)\n      dup1\n      swap2\n      sub\n      swap1\n      return\n        /* \"contracts/CalismaBilgileri.sol\":183:197  uint public id */\n    tag_12:\n      tag_63\n      tag_64\n      jump\t// in\n    tag_63:\n      mload(0x40)\n      tag_65\n      swap2\n      swap1\n      tag_48\n      jump\t// in\n    tag_65:\n      mload(0x40)\n      dup1\n      swap2\n      sub\n      swap1\n      return\n        /* \"contracts/CalismaBilgileri.sol\":993:2355  function ekleCalismaBilgi(address _kisiAddress, address kurumAdres, uint32 pozisyon, uint8 sektor, CalismaTipi calismaTipi, string memory isAciklama, uint basTarih, uint bitTarih, uint8 ulke, uint32 sehir)  public sadece_Uni_Firma_Kamu{\r... */\n    tag_13:\n      tag_66\n      0x04\n      dup1\n      calldatasize\n      sub\n      dup2\n      add\n      swap1\n      tag_67\n      swap2\n      swap1\n      tag_68\n      jump\t// in\n    tag_67:\n      tag_69\n      jump\t// in\n    tag_66:\n      stop\n        /* \"contracts/BaseContract.sol\":3046:3097  mapping(address=>Akademisyen) public akademisyenler */\n    tag_14:\n      tag_70\n      0x04\n      dup1\n      calldatasize\n      sub\n      dup2\n      add\n      swap1\n      tag_71\n      swap2\n      swap1\n      tag_26\n      jump\t// in\n    tag_71:\n      tag_72\n      jump\t// in\n    tag_70:\n      mload(0x40)\n      tag_73\n      swap7\n      swap6\n      swap5\n      swap4\n      swap3\n      swap2\n      swap1\n      tag_74\n      jump\t// in\n    tag_73:\n      mload(0x40)\n      dup1\n      swap2\n      sub\n      swap1\n      return\n        /* \"contracts/BaseContract.sol\":2946:2983  mapping(address=>Kisi) public kisiler */\n    tag_15:\n      tag_75\n      0x04\n      dup1\n      calldatasize\n      sub\n      dup2\n      add\n      swap1\n      tag_76\n      swap2\n      swap1\n      tag_26\n      jump\t// in\n    tag_76:\n      tag_77\n      jump\t// in\n    tag_75:\n      mload(0x40)\n      tag_78\n      swap2\n      swap1\n      tag_79\n      jump\t// in\n    tag_78:\n      mload(0x40)\n      dup1\n      swap2\n      sub\n      swap1\n      return\n        /* \"contracts/CalismaBilgileri.sol\":669:738  mapping(address=>mapping(uint=>CalismaBilgi)) public calismaBilgileri */\n    tag_21:\n      mstore(0x20, 0x0d)\n      dup2\n      0x00\n      mstore\n      mstore(0x20, keccak256(0x00, 0x40))\n      dup1\n      0x00\n      mstore\n      keccak256(0x00, 0x40)\n      0x00\n      swap2\n      pop\n      swap2\n      pop\n      pop\n      dup1\n      0x00\n      add\n      sload\n      swap1\n      dup1\n      0x01\n      add\n      0x00\n      swap1\n      sload\n      swap1\n      0x0100\n      exp\n      swap1\n      div\n      0xffffffffffffffffffffffffffffffffffffffff\n      and\n      swap1\n      dup1\n      0x01\n      add\n      0x14\n      swap1\n      sload\n      swap1\n      0x0100\n      exp\n      swap1\n      div\n      0xffffffff\n      and\n      swap1\n      dup1\n      0x01\n      add\n      0x18\n      swap1\n      sload\n      swap1\n      0x0100\n      exp\n      swap1\n      div\n      0xff\n      and\n      swap1\n      dup1\n      0x01\n      add\n      0x19\n      swap1\n      sload\n      swap1\n      0x0100\n      exp\n      swap1\n      div\n      0xff\n      and\n      swap1\n      dup1\n      0x02\n      add\n      dup1\n      sload\n      tag_80\n      swap1\n      tag_81\n      jump\t// in\n    tag_80:\n      dup1\n      0x1f\n      add\n      0x20\n      dup1\n      swap2\n      div\n      mul\n      0x20\n      add\n      mload(0x40)\n      swap1\n      dup2\n      add\n      0x40\n      mstore\n      dup1\n      swap3\n      swap2\n      swap1\n      dup2\n      dup2\n      mstore\n      0x20\n      add\n      dup3\n      dup1\n      sload\n      tag_82\n      swap1\n      tag_81\n      jump\t// in\n    tag_82:\n      dup1\n      iszero\n      tag_83\n      jumpi\n      dup1\n      0x1f\n      lt\n      tag_84\n      jumpi\n      0x0100\n      dup1\n      dup4\n      sload\n      div\n      mul\n      dup4\n      mstore\n      swap2\n      0x20\n      add\n      swap2\n      jump(tag_83)\n    tag_84:\n      dup3\n      add\n      swap2\n      swap1\n      0x00\n      mstore\n      keccak256(0x00, 0x20)\n      swap1\n    tag_85:\n      dup2\n      sload\n      dup2\n      mstore\n      swap1\n      0x01\n      add\n      swap1\n      0x20\n      add\n      dup1\n      dup4\n      gt\n      tag_85\n      jumpi\n      dup3\n      swap1\n      sub\n      0x1f\n      and\n      dup3\n      add\n      swap2\n    tag_83:\n      pop\n      pop\n      pop\n      pop\n      pop\n      swap1\n      dup1\n      0x03\n      add\n      sload\n      swap1\n      dup1\n      0x04\n      add\n      sload\n      swap1\n      dup1\n      0x05\n      add\n      0x00\n      swap1\n      sload\n      swap1\n      0x0100\n      exp\n      swap1\n      div\n      0xff\n      and\n      swap1\n      dup1\n      0x05\n      add\n      0x01\n      swap1\n      sload\n      swap1\n      0x0100\n      exp\n      swap1\n      div\n      0xffffffff\n      and\n      swap1\n      dup1\n      0x06\n      add\n      mload(0x40)\n      dup1\n      0x60\n      add\n      0x40\n      mstore\n      swap1\n      dup2\n      0x00\n      dup3\n      add\n      sload\n      dup2\n      mstore\n      0x20\n      add\n      0x01\n      dup3\n      add\n      0x00\n      swap1\n      sload\n      swap1\n      0x0100\n      exp\n      swap1\n      div\n      0xffffffffffffffffffffffffffffffffffffffff\n      and\n      0xffffffffffffffffffffffffffffffffffffffff\n      and\n      0xffffffffffffffffffffffffffffffffffffffff\n      and\n      dup2\n      mstore\n      0x20\n      add\n      0x01\n      dup3\n      add\n      0x14\n      swap1\n      sload\n      swap1\n      0x0100\n      exp\n      swap1\n      div\n      0xff\n      and\n      0x02\n      dup2\n      gt\n      iszero\n      tag_86\n      jumpi\n      tag_87\n      tag_88\n      jump\t// in\n    tag_87:\n    tag_86:\n      0x02\n      dup2\n      gt\n      iszero\n      tag_89\n      jumpi\n      tag_90\n      tag_88\n      jump\t// in\n    tag_90:\n    tag_89:\n      dup2\n      mstore\n      pop\n      pop\n      swap1\n      pop\n      dup12\n      jump\t// out\n        /* \"contracts/BaseContract.sol\":3151:3189  mapping(address=>Kurs) public  kurslar */\n    tag_27:\n      mstore(0x20, 0x07)\n      dup1\n      0x00\n      mstore\n      keccak256(0x00, 0x40)\n      0x00\n      swap2\n      pop\n      swap1\n      pop\n      dup1\n      0x00\n      add\n      0x00\n      swap1\n      sload\n      swap1\n      0x0100\n      exp\n      swap1\n      div\n      0xff\n      and\n      swap1\n      dup1\n      0x01\n      add\n      dup1\n      sload\n      tag_91\n      swap1\n      tag_81\n      jump\t// in\n    tag_91:\n      dup1\n      0x1f\n      add\n      0x20\n      dup1\n      swap2\n      div\n      mul\n      0x20\n      add\n      mload(0x40)\n      swap1\n      dup2\n      add\n      0x40\n      mstore\n      dup1\n      swap3\n      swap2\n      swap1\n      dup2\n      dup2\n      mstore\n      0x20\n      add\n      dup3\n      dup1\n      sload\n      tag_92\n      swap1\n      tag_81\n      jump\t// in\n    tag_92:\n      dup1\n      iszero\n      tag_93\n      jumpi\n      dup1\n      0x1f\n      lt\n      tag_94\n      jumpi\n      0x0100\n      dup1\n      dup4\n      sload\n      div\n      mul\n      dup4\n      mstore\n      swap2\n      0x20\n      add\n      swap2\n      jump(tag_93)\n    tag_94:\n      dup3\n      add\n      swap2\n      swap1\n      0x00\n      mstore\n      keccak256(0x00, 0x20)\n      swap1\n    tag_95:\n      dup2\n      sload\n      dup2\n      mstore\n      swap1\n      0x01\n      add\n      swap1\n      0x20\n      add\n      dup1\n      dup4\n      gt\n      tag_95\n      jumpi\n      dup3\n      swap1\n      sub\n      0x1f\n      and\n      dup3\n      add\n      swap2\n    tag_93:\n      pop\n      pop\n      pop\n      pop\n      pop\n      swap1\n      dup1\n      0x02\n      add\n      0x00\n      swap1\n      sload\n      swap1\n      0x0100\n      exp\n      swap1\n      div\n      0xff\n      and\n      swap1\n      pop\n      dup4\n      jump\t// out\n        /* \"contracts/BaseContract.sol\":2990:3039  mapping(address=>Universite) public universiteler */\n    tag_32:\n      mstore(0x20, 0x04)\n      dup1\n      0x00\n      mstore\n      keccak256(0x00, 0x40)\n      0x00\n      swap2\n      pop\n      swap1\n      pop\n      dup1\n      0x00\n      add\n      0x00\n      swap1\n      sload\n      swap1\n      0x0100\n      exp\n      swap1\n      div\n      0xff\n      and\n      swap1\n      dup1\n      0x01\n      add\n      dup1\n      sload\n      tag_96\n      swap1\n      tag_81\n      jump\t// in\n    tag_96:\n      dup1\n      0x1f\n      add\n      0x20\n      dup1\n      swap2\n      div\n      mul\n      0x20\n      add\n      mload(0x40)\n      swap1\n      dup2\n      add\n      0x40\n      mstore\n      dup1\n      swap3\n      swap2\n      swap1\n      dup2\n      dup2\n      mstore\n      0x20\n      add\n      dup3\n      dup1\n      sload\n      tag_97\n      swap1\n      tag_81\n      jump\t// in\n    tag_97:\n      dup1\n      iszero\n      tag_98\n      jumpi\n      dup1\n      0x1f\n      lt\n      tag_99\n      jumpi\n      0x0100\n      dup1\n      dup4\n      sload\n      div\n      mul\n      dup4\n      mstore\n      swap2\n      0x20\n      add\n      swap2\n      jump(tag_98)\n    tag_99:\n      dup3\n      add\n      swap2\n      swap1\n      0x00\n      mstore\n      keccak256(0x00, 0x20)\n      swap1\n    tag_100:\n      dup2\n      sload\n      dup2\n      mstore\n      swap1\n      0x01\n      add\n      swap1\n      0x20\n      add\n      dup1\n      dup4\n      gt\n      tag_100\n      jumpi\n      dup3\n      swap1\n      sub\n      0x1f\n      and\n      dup3\n      add\n      swap2\n    tag_98:\n      pop\n      pop\n      pop\n      pop\n      pop\n      swap1\n      dup1\n      0x02\n      add\n      0x00\n      swap1\n      sload\n      swap1\n      0x0100\n      exp\n      swap1\n      div\n      0xff\n      and\n      swap1\n      pop\n      dup4\n      jump\t// out\n        /* \"contracts/BaseContract.sol\":3294:3355  mapping(address=>SertifikaMerkezi) public sertifikaMerkezleri */\n    tag_36:\n      mstore(0x20, 0x0a)\n      dup1\n      0x00\n      mstore\n      keccak256(0x00, 0x40)\n      0x00\n      swap2\n      pop\n      swap1\n      pop\n      dup1\n      0x00\n      add\n      0x00\n      swap1\n      sload\n      swap1\n      0x0100\n      exp\n      swap1\n      div\n      0xff\n      and\n      swap1\n      dup1\n      0x01\n      add\n      dup1\n      sload\n      tag_101\n      swap1\n      tag_81\n      jump\t// in\n    tag_101:\n      dup1\n      0x1f\n      add\n      0x20\n      dup1\n      swap2\n      div\n      mul\n      0x20\n      add\n      mload(0x40)\n      swap1\n      dup2\n      add\n      0x40\n      mstore\n      dup1\n      swap3\n      swap2\n      swap1\n      dup2\n      dup2\n      mstore\n      0x20\n      add\n      dup3\n      dup1\n      sload\n      tag_102\n      swap1\n      tag_81\n      jump\t// in\n    tag_102:\n      dup1\n      iszero\n      tag_103\n      jumpi\n      dup1\n      0x1f\n      lt\n      tag_104\n      jumpi\n      0x0100\n      dup1\n      dup4\n      sload\n      div\n      mul\n      dup4\n      mstore\n      swap2\n      0x20\n      add\n      swap2\n      jump(tag_103)\n    tag_104:\n      dup3\n      add\n      swap2\n      swap1\n      0x00\n      mstore\n      keccak256(0x00, 0x20)\n      swap1\n    tag_105:\n      dup2\n      sload\n      dup2\n      mstore\n      swap1\n      0x01\n      add\n      swap1\n      0x20\n      add\n      dup1\n      dup4\n      gt\n      tag_105\n      jumpi\n      dup3\n      swap1\n      sub\n      0x1f\n      and\n      dup3\n      add\n      swap2\n    tag_103:\n      pop\n      pop\n      pop\n      pop\n      pop\n      swap1\n      dup1\n      0x02\n      add\n      0x00\n      swap1\n      sload\n      swap1\n      0x0100\n      exp\n      swap1\n      div\n      0xff\n      and\n      swap1\n      pop\n      dup4\n      jump\t// out\n        /* \"contracts/BaseContract.sol\":3104:3144  mapping(address=>Firma) public  firmalar */\n    tag_40:\n      mstore(0x20, 0x06)\n      dup1\n      0x00\n      mstore\n      keccak256(0x00, 0x40)\n      0x00\n      swap2\n      pop\n      swap1\n      pop\n      dup1\n      0x00\n      add\n      0x00\n      swap1\n      sload\n      swap1\n      0x0100\n      exp\n      swap1\n      div\n      0xff\n      and\n      swap1\n      dup1\n      0x00\n      add\n      0x01\n      swap1\n      sload\n      swap1\n      0x0100\n      exp\n      swap1\n      div\n      0xff\n      and\n      swap1\n      dup1\n      0x01\n      add\n      sload\n      swap1\n      dup1\n      0x02\n      add\n      dup1\n      sload\n      tag_106\n      swap1\n      tag_81\n      jump\t// in\n    tag_106:\n      dup1\n      0x1f\n      add\n      0x20\n      dup1\n      swap2\n      div\n      mul\n      0x20\n      add\n      mload(0x40)\n      swap1\n      dup2\n      add\n      0x40\n      mstore\n      dup1\n      swap3\n      swap2\n      swap1\n      dup2\n      dup2\n      mstore\n      0x20\n      add\n      dup3\n      dup1\n      sload\n      tag_107\n      swap1\n      tag_81\n      jump\t// in\n    tag_107:\n      dup1\n      iszero\n      tag_108\n      jumpi\n      dup1\n      0x1f\n      lt\n      tag_109\n      jumpi\n      0x0100\n      dup1\n      dup4\n      sload\n      div\n      mul\n      dup4\n      mstore\n      swap2\n      0x20\n      add\n      swap2\n      jump(tag_108)\n    tag_109:\n      dup3\n      add\n      swap2\n      swap1\n      0x00\n      mstore\n      keccak256(0x00, 0x20)\n      swap1\n    tag_110:\n      dup2\n      sload\n      dup2\n      mstore\n      swap1\n      0x01\n      add\n      swap1\n      0x20\n      add\n      dup1\n      dup4\n      gt\n      tag_110\n      jumpi\n      dup3\n      swap1\n      sub\n      0x1f\n      and\n      dup3\n      add\n      swap2\n    tag_108:\n      pop\n      pop\n      pop\n      pop\n      pop\n      swap1\n      pop\n      dup5\n      jump\t// out\n        /* \"contracts/CalismaBilgileri.sol\":2364:3903  function guncelleCalismaBilgi(address _kisiAddress, uint _calismaBilgiId, address kurumAdres, uint32 pozisyon, uint8 sektor, CalismaTipi calismaTipi, string memory isAciklama, uint basTarih, uint bitTarih, uint8 ulke, uint32 sehir)  public sadece_Uni_Firma_Kamu returns(uint){\r... */\n    tag_46:\n        /* \"contracts/CalismaBilgileri.sol\":2634:2638  uint */\n      0x00\n        /* \"contracts/BaseContract.sol\":2617:2630  universiteler */\n      0x04\n        /* \"contracts/BaseContract.sol\":2617:2642  universiteler[msg.sender] */\n      0x00\n        /* \"contracts/BaseContract.sol\":2631:2641  msg.sender */\n      caller\n        /* \"contracts/BaseContract.sol\":2617:2642  universiteler[msg.sender] */\n      0xffffffffffffffffffffffffffffffffffffffff\n      and\n      0xffffffffffffffffffffffffffffffffffffffff\n      and\n      dup2\n      mstore\n      0x20\n      add\n      swap1\n      dup2\n      mstore\n      0x20\n      add\n      0x00\n      keccak256\n        /* \"contracts/BaseContract.sol\":2617:2648  universiteler[msg.sender].durum */\n      0x00\n      add\n      0x00\n      swap1\n      sload\n      swap1\n      0x0100\n      exp\n      swap1\n      div\n      0xff\n      and\n        /* \"contracts/BaseContract.sol\":2617:2676  universiteler[msg.sender].durum||firmalar[msg.sender].durum */\n      dup1\n      tag_112\n      jumpi\n      pop\n        /* \"contracts/BaseContract.sol\":2650:2658  firmalar */\n      0x06\n        /* \"contracts/BaseContract.sol\":2650:2670  firmalar[msg.sender] */\n      0x00\n        /* \"contracts/BaseContract.sol\":2659:2669  msg.sender */\n      caller\n        /* \"contracts/BaseContract.sol\":2650:2670  firmalar[msg.sender] */\n      0xffffffffffffffffffffffffffffffffffffffff\n      and\n      0xffffffffffffffffffffffffffffffffffffffff\n      and\n      dup2\n      mstore\n      0x20\n      add\n      swap1\n      dup2\n      mstore\n      0x20\n      add\n      0x00\n      keccak256\n        /* \"contracts/BaseContract.sol\":2650:2676  firmalar[msg.sender].durum */\n      0x00\n      add\n      0x00\n      swap1\n      sload\n      swap1\n      0x0100\n      exp\n      swap1\n      div\n      0xff\n      and\n        /* \"contracts/BaseContract.sol\":2617:2676  universiteler[msg.sender].durum||firmalar[msg.sender].durum */\n    tag_112:\n        /* \"contracts/BaseContract.sol\":2617:2709  universiteler[msg.sender].durum||firmalar[msg.sender].durum||kamuKurumlari[msg.sender].durum */\n      dup1\n      tag_113\n      jumpi\n      pop\n        /* \"contracts/BaseContract.sol\":2678:2691  kamuKurumlari */\n      0x08\n        /* \"contracts/BaseContract.sol\":2678:2703  kamuKurumlari[msg.sender] */\n      0x00\n        /* \"contracts/BaseContract.sol\":2692:2702  msg.sender */\n      caller\n        /* \"contracts/BaseContract.sol\":2678:2703  kamuKurumlari[msg.sender] */\n      0xffffffffffffffffffffffffffffffffffffffff\n      and\n      0xffffffffffffffffffffffffffffffffffffffff\n      and\n      dup2\n      mstore\n      0x20\n      add\n      swap1\n      dup2\n      mstore\n      0x20\n      add\n      0x00\n      keccak256\n        /* \"contracts/BaseContract.sol\":2678:2709  kamuKurumlari[msg.sender].durum */\n      0x00\n      add\n      0x00\n      swap1\n      sload\n      swap1\n      0x0100\n      exp\n      swap1\n      div\n      0xff\n      and\n        /* \"contracts/BaseContract.sol\":2617:2709  universiteler[msg.sender].durum||firmalar[msg.sender].durum||kamuKurumlari[msg.sender].durum */\n    tag_113:\n        /* \"contracts/BaseContract.sol\":2609:2761  require(universiteler[msg.sender].durum||firmalar[msg.sender].durum||kamuKurumlari[msg.sender].durum,\r... */\n      tag_114\n      jumpi\n      mload(0x40)\n      0x08c379a000000000000000000000000000000000000000000000000000000000\n      dup2\n      mstore\n      0x04\n      add\n      tag_115\n      swap1\n      tag_116\n      jump\t// in\n    tag_115:\n      mload(0x40)\n      dup1\n      swap2\n      sub\n      swap1\n      revert\n    tag_114:\n        /* \"contracts/CalismaBilgileri.sol\":2663:2670  kisiler */\n      0x03\n        /* \"contracts/CalismaBilgileri.sol\":2663:2684  kisiler[_kisiAddress] */\n      0x00\n        /* \"contracts/CalismaBilgileri.sol\":2671:2683  _kisiAddress */\n      dup14\n        /* \"contracts/CalismaBilgileri.sol\":2663:2684  kisiler[_kisiAddress] */\n      0xffffffffffffffffffffffffffffffffffffffff\n      and\n      0xffffffffffffffffffffffffffffffffffffffff\n      and\n      dup2\n      mstore\n      0x20\n      add\n      swap1\n      dup2\n      mstore\n      0x20\n      add\n      0x00\n      keccak256\n        /* \"contracts/CalismaBilgileri.sol\":2663:2690  kisiler[_kisiAddress].durum */\n      0x00\n      add\n      0x00\n      swap1\n      sload\n      swap1\n      0x0100\n      exp\n      swap1\n      div\n      0xff\n      and\n        /* \"contracts/CalismaBilgileri.sol\":2655:2712  require(kisiler[_kisiAddress].durum,\"Student not exists\") */\n      tag_118\n      jumpi\n      mload(0x40)\n      0x08c379a000000000000000000000000000000000000000000000000000000000\n      dup2\n      mstore\n      0x04\n      add\n      tag_119\n      swap1\n      tag_120\n      jump\t// in\n    tag_119:\n      mload(0x40)\n      dup1\n      swap2\n      sub\n      swap1\n      revert\n    tag_118:\n        /* \"contracts/CalismaBilgileri.sol\":2802:2812  kurumAdres */\n      dup10\n        /* \"contracts/CalismaBilgileri.sol\":2743:2759  calismaBilgileri */\n      0x0d\n        /* \"contracts/CalismaBilgileri.sol\":2743:2773  calismaBilgileri[_kisiAddress] */\n      0x00\n        /* \"contracts/CalismaBilgileri.sol\":2760:2772  _kisiAddress */\n      dup15\n        /* \"contracts/CalismaBilgileri.sol\":2743:2773  calismaBilgileri[_kisiAddress] */\n      0xffffffffffffffffffffffffffffffffffffffff\n      and\n      0xffffffffffffffffffffffffffffffffffffffff\n      and\n      dup2\n      mstore\n      0x20\n      add\n      swap1\n      dup2\n      mstore\n      0x20\n      add\n      0x00\n      keccak256\n        /* \"contracts/CalismaBilgileri.sol\":2743:2790  calismaBilgileri[_kisiAddress][_calismaBilgiId] */\n      0x00\n        /* \"contracts/CalismaBilgileri.sol\":2774:2789  _calismaBilgiId */\n      dup14\n        /* \"contracts/CalismaBilgileri.sol\":2743:2790  calismaBilgileri[_kisiAddress][_calismaBilgiId] */\n      dup2\n      mstore\n      0x20\n      add\n      swap1\n      dup2\n      mstore\n      0x20\n      add\n      0x00\n      keccak256\n        /* \"contracts/CalismaBilgileri.sol\":2743:2801  calismaBilgileri[_kisiAddress][_calismaBilgiId].kurumAdres */\n      0x01\n      add\n      0x00\n        /* \"contracts/CalismaBilgileri.sol\":2743:2812  calismaBilgileri[_kisiAddress][_calismaBilgiId].kurumAdres=kurumAdres */\n      0x0100\n      exp\n      dup2\n      sload\n      dup2\n      0xffffffffffffffffffffffffffffffffffffffff\n      mul\n      not\n      and\n      swap1\n      dup4\n      0xffffffffffffffffffffffffffffffffffffffff\n      and\n      mul\n      or\n      swap1\n      sstore\n      pop\n        /* \"contracts/CalismaBilgileri.sol\":2885:2893  pozisyon */\n      dup9\n        /* \"contracts/CalismaBilgileri.sol\":2828:2844  calismaBilgileri */\n      0x0d\n        /* \"contracts/CalismaBilgileri.sol\":2828:2858  calismaBilgileri[_kisiAddress] */\n      0x00\n        /* \"contracts/CalismaBilgileri.sol\":2845:2857  _kisiAddress */\n      dup15\n        /* \"contracts/CalismaBilgileri.sol\":2828:2858  calismaBilgileri[_kisiAddress] */\n      0xffffffffffffffffffffffffffffffffffffffff\n      and\n      0xffffffffffffffffffffffffffffffffffffffff\n      and\n      dup2\n      mstore\n      0x20\n      add\n      swap1\n      dup2\n      mstore\n      0x20\n      add\n      0x00\n      keccak256\n        /* \"contracts/CalismaBilgileri.sol\":2828:2875  calismaBilgileri[_kisiAddress][_calismaBilgiId] */\n      0x00\n        /* \"contracts/CalismaBilgileri.sol\":2859:2874  _calismaBilgiId */\n      dup14\n        /* \"contracts/CalismaBilgileri.sol\":2828:2875  calismaBilgileri[_kisiAddress][_calismaBilgiId] */\n      dup2\n      mstore\n      0x20\n      add\n      swap1\n      dup2\n      mstore\n      0x20\n      add\n      0x00\n      keccak256\n        /* \"contracts/CalismaBilgileri.sol\":2828:2884  calismaBilgileri[_kisiAddress][_calismaBilgiId].pozisyon */\n      0x01\n      add\n      0x14\n        /* \"contracts/CalismaBilgileri.sol\":2828:2893  calismaBilgileri[_kisiAddress][_calismaBilgiId].pozisyon=pozisyon */\n      0x0100\n      exp\n      dup2\n      sload\n      dup2\n      0xffffffff\n      mul\n      not\n      and\n      swap1\n      dup4\n      0xffffffff\n      and\n      mul\n      or\n      swap1\n      sstore\n      pop\n        /* \"contracts/CalismaBilgileri.sol\":2964:2970  sektor */\n      dup8\n        /* \"contracts/CalismaBilgileri.sol\":2909:2925  calismaBilgileri */\n      0x0d\n        /* \"contracts/CalismaBilgileri.sol\":2909:2939  calismaBilgileri[_kisiAddress] */\n      0x00\n        /* \"contracts/CalismaBilgileri.sol\":2926:2938  _kisiAddress */\n      dup15\n        /* \"contracts/CalismaBilgileri.sol\":2909:2939  calismaBilgileri[_kisiAddress] */\n      0xffffffffffffffffffffffffffffffffffffffff\n      and\n      0xffffffffffffffffffffffffffffffffffffffff\n      and\n      dup2\n      mstore\n      0x20\n      add\n      swap1\n      dup2\n      mstore\n      0x20\n      add\n      0x00\n      keccak256\n        /* \"contracts/CalismaBilgileri.sol\":2909:2956  calismaBilgileri[_kisiAddress][_calismaBilgiId] */\n      0x00\n        /* \"contracts/CalismaBilgileri.sol\":2940:2955  _calismaBilgiId */\n      dup14\n        /* \"contracts/CalismaBilgileri.sol\":2909:2956  calismaBilgileri[_kisiAddress][_calismaBilgiId] */\n      dup2\n      mstore\n      0x20\n      add\n      swap1\n      dup2\n      mstore\n      0x20\n      add\n      0x00\n      keccak256\n        /* \"contracts/CalismaBilgileri.sol\":2909:2963  calismaBilgileri[_kisiAddress][_calismaBilgiId].sektor */\n      0x01\n      add\n      0x18\n        /* \"contracts/CalismaBilgileri.sol\":2909:2970  calismaBilgileri[_kisiAddress][_calismaBilgiId].sektor=sektor */\n      0x0100\n      exp\n      dup2\n      sload\n      dup2\n      0xff\n      mul\n      not\n      and\n      swap1\n      dup4\n      0xff\n      and\n      mul\n      or\n      swap1\n      sstore\n      pop\n        /* \"contracts/CalismaBilgileri.sol\":3046:3057  calismaTipi */\n      dup7\n        /* \"contracts/CalismaBilgileri.sol\":2986:3002  calismaBilgileri */\n      0x0d\n        /* \"contracts/CalismaBilgileri.sol\":2986:3016  calismaBilgileri[_kisiAddress] */\n      0x00\n        /* \"contracts/CalismaBilgileri.sol\":3003:3015  _kisiAddress */\n      dup15\n        /* \"contracts/CalismaBilgileri.sol\":2986:3016  calismaBilgileri[_kisiAddress] */\n      0xffffffffffffffffffffffffffffffffffffffff\n      and\n      0xffffffffffffffffffffffffffffffffffffffff\n      and\n      dup2\n      mstore\n      0x20\n      add\n      swap1\n      dup2\n      mstore\n      0x20\n      add\n      0x00\n      keccak256\n        /* \"contracts/CalismaBilgileri.sol\":2986:3033  calismaBilgileri[_kisiAddress][_calismaBilgiId] */\n      0x00\n        /* \"contracts/CalismaBilgileri.sol\":3017:3032  _calismaBilgiId */\n      dup14\n        /* \"contracts/CalismaBilgileri.sol\":2986:3033  calismaBilgileri[_kisiAddress][_calismaBilgiId] */\n      dup2\n      mstore\n      0x20\n      add\n      swap1\n      dup2\n      mstore\n      0x20\n      add\n      0x00\n      keccak256\n        /* \"contracts/CalismaBilgileri.sol\":2986:3045  calismaBilgileri[_kisiAddress][_calismaBilgiId].calismaTipi */\n      0x01\n      add\n      0x19\n        /* \"contracts/CalismaBilgileri.sol\":2986:3057  calismaBilgileri[_kisiAddress][_calismaBilgiId].calismaTipi=calismaTipi */\n      0x0100\n      exp\n      dup2\n      sload\n      dup2\n      0xff\n      mul\n      not\n      and\n      swap1\n      dup4\n      0x02\n      dup2\n      gt\n      iszero\n      tag_121\n      jumpi\n      tag_122\n      tag_88\n      jump\t// in\n    tag_122:\n    tag_121:\n      mul\n      or\n      swap1\n      sstore\n      pop\n        /* \"contracts/CalismaBilgileri.sol\":3132:3142  isAciklama */\n      dup6\n        /* \"contracts/CalismaBilgileri.sol\":3073:3089  calismaBilgileri */\n      0x0d\n        /* \"contracts/CalismaBilgileri.sol\":3073:3103  calismaBilgileri[_kisiAddress] */\n      0x00\n        /* \"contracts/CalismaBilgileri.sol\":3090:3102  _kisiAddress */\n      dup15\n        /* \"contracts/CalismaBilgileri.sol\":3073:3103  calismaBilgileri[_kisiAddress] */\n      0xffffffffffffffffffffffffffffffffffffffff\n      and\n      0xffffffffffffffffffffffffffffffffffffffff\n      and\n      dup2\n      mstore\n      0x20\n      add\n      swap1\n      dup2\n      mstore\n      0x20\n      add\n      0x00\n      keccak256\n        /* \"contracts/CalismaBilgileri.sol\":3073:3120  calismaBilgileri[_kisiAddress][_calismaBilgiId] */\n      0x00\n        /* \"contracts/CalismaBilgileri.sol\":3104:3119  _calismaBilgiId */\n      dup14\n        /* \"contracts/CalismaBilgileri.sol\":3073:3120  calismaBilgileri[_kisiAddress][_calismaBilgiId] */\n      dup2\n      mstore\n      0x20\n      add\n      swap1\n      dup2\n      mstore\n      0x20\n      add\n      0x00\n      keccak256\n        /* \"contracts/CalismaBilgileri.sol\":3073:3131  calismaBilgileri[_kisiAddress][_calismaBilgiId].isAciklama */\n      0x02\n      add\n        /* \"contracts/CalismaBilgileri.sol\":3073:3142  calismaBilgileri[_kisiAddress][_calismaBilgiId].isAciklama=isAciklama */\n      swap1\n      dup1\n      mload\n      swap1\n      0x20\n      add\n      swap1\n      tag_123\n      swap3\n      swap2\n      swap1\n      tag_124\n      jump\t// in\n    tag_123:\n      pop\n        /* \"contracts/CalismaBilgileri.sol\":3215:3223  basTarih */\n      dup5\n        /* \"contracts/CalismaBilgileri.sol\":3158:3174  calismaBilgileri */\n      0x0d\n        /* \"contracts/CalismaBilgileri.sol\":3158:3188  calismaBilgileri[_kisiAddress] */\n      0x00\n        /* \"contracts/CalismaBilgileri.sol\":3175:3187  _kisiAddress */\n      dup15\n        /* \"contracts/CalismaBilgileri.sol\":3158:3188  calismaBilgileri[_kisiAddress] */\n      0xffffffffffffffffffffffffffffffffffffffff\n      and\n      0xffffffffffffffffffffffffffffffffffffffff\n      and\n      dup2\n      mstore\n      0x20\n      add\n      swap1\n      dup2\n      mstore\n      0x20\n      add\n      0x00\n      keccak256\n        /* \"contracts/CalismaBilgileri.sol\":3158:3205  calismaBilgileri[_kisiAddress][_calismaBilgiId] */\n      0x00\n        /* \"contracts/CalismaBilgileri.sol\":3189:3204  _calismaBilgiId */\n      dup14\n        /* \"contracts/CalismaBilgileri.sol\":3158:3205  calismaBilgileri[_kisiAddress][_calismaBilgiId] */\n      dup2\n      mstore\n      0x20\n      add\n      swap1\n      dup2\n      mstore\n      0x20\n      add\n      0x00\n      keccak256\n        /* \"contracts/CalismaBilgileri.sol\":3158:3214  calismaBilgileri[_kisiAddress][_calismaBilgiId].basTarih */\n      0x03\n      add\n        /* \"contracts/CalismaBilgileri.sol\":3158:3223  calismaBilgileri[_kisiAddress][_calismaBilgiId].basTarih=basTarih */\n      dup2\n      swap1\n      sstore\n      pop\n        /* \"contracts/CalismaBilgileri.sol\":3296:3304  bitTarih */\n      dup4\n        /* \"contracts/CalismaBilgileri.sol\":3239:3255  calismaBilgileri */\n      0x0d\n        /* \"contracts/CalismaBilgileri.sol\":3239:3269  calismaBilgileri[_kisiAddress] */\n      0x00\n        /* \"contracts/CalismaBilgileri.sol\":3256:3268  _kisiAddress */\n      dup15\n        /* \"contracts/CalismaBilgileri.sol\":3239:3269  calismaBilgileri[_kisiAddress] */\n      0xffffffffffffffffffffffffffffffffffffffff\n      and\n      0xffffffffffffffffffffffffffffffffffffffff\n      and\n      dup2\n      mstore\n      0x20\n      add\n      swap1\n      dup2\n      mstore\n      0x20\n      add\n      0x00\n      keccak256\n        /* \"contracts/CalismaBilgileri.sol\":3239:3286  calismaBilgileri[_kisiAddress][_calismaBilgiId] */\n      0x00\n        /* \"contracts/CalismaBilgileri.sol\":3270:3285  _calismaBilgiId */\n      dup14\n        /* \"contracts/CalismaBilgileri.sol\":3239:3286  calismaBilgileri[_kisiAddress][_calismaBilgiId] */\n      dup2\n      mstore\n      0x20\n      add\n      swap1\n      dup2\n      mstore\n      0x20\n      add\n      0x00\n      keccak256\n        /* \"contracts/CalismaBilgileri.sol\":3239:3295  calismaBilgileri[_kisiAddress][_calismaBilgiId].bitTarih */\n      0x04\n      add\n        /* \"contracts/CalismaBilgileri.sol\":3239:3304  calismaBilgileri[_kisiAddress][_calismaBilgiId].bitTarih=bitTarih */\n      dup2\n      swap1\n      sstore\n      pop\n        /* \"contracts/CalismaBilgileri.sol\":3373:3377  ulke */\n      dup3\n        /* \"contracts/CalismaBilgileri.sol\":3320:3336  calismaBilgileri */\n      0x0d\n        /* \"contracts/CalismaBilgileri.sol\":3320:3350  calismaBilgileri[_kisiAddress] */\n      0x00\n        /* \"contracts/CalismaBilgileri.sol\":3337:3349  _kisiAddress */\n      dup15\n        /* \"contracts/CalismaBilgileri.sol\":3320:3350  calismaBilgileri[_kisiAddress] */\n      0xffffffffffffffffffffffffffffffffffffffff\n      and\n      0xffffffffffffffffffffffffffffffffffffffff\n      and\n      dup2\n      mstore\n      0x20\n      add\n      swap1\n      dup2\n      mstore\n      0x20\n      add\n      0x00\n      keccak256\n        /* \"contracts/CalismaBilgileri.sol\":3320:3367  calismaBilgileri[_kisiAddress][_calismaBilgiId] */\n      0x00\n        /* \"contracts/CalismaBilgileri.sol\":3351:3366  _calismaBilgiId */\n      dup14\n        /* \"contracts/CalismaBilgileri.sol\":3320:3367  calismaBilgileri[_kisiAddress][_calismaBilgiId] */\n      dup2\n      mstore\n      0x20\n      add\n      swap1\n      dup2\n      mstore\n      0x20\n      add\n      0x00\n      keccak256\n        /* \"contracts/CalismaBilgileri.sol\":3320:3372  calismaBilgileri[_kisiAddress][_calismaBilgiId].ulke */\n      0x05\n      add\n      0x00\n        /* \"contracts/CalismaBilgileri.sol\":3320:3377  calismaBilgileri[_kisiAddress][_calismaBilgiId].ulke=ulke */\n      0x0100\n      exp\n      dup2\n      sload\n      dup2\n      0xff\n      mul\n      not\n      and\n      swap1\n      dup4\n      0xff\n      and\n      mul\n      or\n      swap1\n      sstore\n      pop\n        /* \"contracts/CalismaBilgileri.sol\":3447:3453  sektor */\n      dup8\n        /* \"contracts/CalismaBilgileri.sol\":3393:3453  calismaBilgileri[_kisiAddress][_calismaBilgiId].sehir=sektor */\n      0xff\n      and\n        /* \"contracts/CalismaBilgileri.sol\":3393:3409  calismaBilgileri */\n      0x0d\n        /* \"contracts/CalismaBilgileri.sol\":3393:3423  calismaBilgileri[_kisiAddress] */\n      0x00\n        /* \"contracts/CalismaBilgileri.sol\":3410:3422  _kisiAddress */\n      dup15\n        /* \"contracts/CalismaBilgileri.sol\":3393:3423  calismaBilgileri[_kisiAddress] */\n      0xffffffffffffffffffffffffffffffffffffffff\n      and\n      0xffffffffffffffffffffffffffffffffffffffff\n      and\n      dup2\n      mstore\n      0x20\n      add\n      swap1\n      dup2\n      mstore\n      0x20\n      add\n      0x00\n      keccak256\n        /* \"contracts/CalismaBilgileri.sol\":3393:3440  calismaBilgileri[_kisiAddress][_calismaBilgiId] */\n      0x00\n        /* \"contracts/CalismaBilgileri.sol\":3424:3439  _calismaBilgiId */\n      dup14\n        /* \"contracts/CalismaBilgileri.sol\":3393:3440  calismaBilgileri[_kisiAddress][_calismaBilgiId] */\n      dup2\n      mstore\n      0x20\n      add\n      swap1\n      dup2\n      mstore\n      0x20\n      add\n      0x00\n      keccak256\n        /* \"contracts/CalismaBilgileri.sol\":3393:3446  calismaBilgileri[_kisiAddress][_calismaBilgiId].sehir */\n      0x05\n      add\n      0x01\n        /* \"contracts/CalismaBilgileri.sol\":3393:3453  calismaBilgileri[_kisiAddress][_calismaBilgiId].sehir=sektor */\n      0x0100\n      exp\n      dup2\n      sload\n      dup2\n      0xffffffff\n      mul\n      not\n      and\n      swap1\n      dup4\n      0xffffffff\n      and\n      mul\n      or\n      swap1\n      sstore\n      pop\n        /* \"contracts/CalismaBilgileri.sol\":3536:3551  block.timestamp */\n      timestamp\n        /* \"contracts/CalismaBilgileri.sol\":3472:3488  calismaBilgileri */\n      0x0d\n        /* \"contracts/CalismaBilgileri.sol\":3472:3502  calismaBilgileri[_kisiAddress] */\n      0x00\n        /* \"contracts/CalismaBilgileri.sol\":3489:3501  _kisiAddress */\n      dup15\n        /* \"contracts/CalismaBilgileri.sol\":3472:3502  calismaBilgileri[_kisiAddress] */\n      0xffffffffffffffffffffffffffffffffffffffff\n      and\n      0xffffffffffffffffffffffffffffffffffffffff\n      and\n      dup2\n      mstore\n      0x20\n      add\n      swap1\n      dup2\n      mstore\n      0x20\n      add\n      0x00\n      keccak256\n        /* \"contracts/CalismaBilgileri.sol\":3472:3519  calismaBilgileri[_kisiAddress][_calismaBilgiId] */\n      0x00\n        /* \"contracts/CalismaBilgileri.sol\":3503:3518  _calismaBilgiId */\n      dup14\n        /* \"contracts/CalismaBilgileri.sol\":3472:3519  calismaBilgileri[_kisiAddress][_calismaBilgiId] */\n      dup2\n      mstore\n      0x20\n      add\n      swap1\n      dup2\n      mstore\n      0x20\n      add\n      0x00\n      keccak256\n        /* \"contracts/CalismaBilgileri.sol\":3472:3529  calismaBilgileri[_kisiAddress][_calismaBilgiId].onayBilgi */\n      0x06\n      add\n        /* \"contracts/CalismaBilgileri.sol\":3472:3535  calismaBilgileri[_kisiAddress][_calismaBilgiId].onayBilgi.zaman */\n      0x00\n      add\n        /* \"contracts/CalismaBilgileri.sol\":3472:3551  calismaBilgileri[_kisiAddress][_calismaBilgiId].onayBilgi.zaman=block.timestamp */\n      dup2\n      swap1\n      sstore\n      pop\n        /* \"contracts/CalismaBilgileri.sol\":3635:3654  OnayDurum.Onaylandi */\n      0x01\n        /* \"contracts/CalismaBilgileri.sol\":3571:3587  calismaBilgileri */\n      0x0d\n        /* \"contracts/CalismaBilgileri.sol\":3571:3601  calismaBilgileri[_kisiAddress] */\n      0x00\n        /* \"contracts/CalismaBilgileri.sol\":3588:3600  _kisiAddress */\n      dup15\n        /* \"contracts/CalismaBilgileri.sol\":3571:3601  calismaBilgileri[_kisiAddress] */\n      0xffffffffffffffffffffffffffffffffffffffff\n      and\n      0xffffffffffffffffffffffffffffffffffffffff\n      and\n      dup2\n      mstore\n      0x20\n      add\n      swap1\n      dup2\n      mstore\n      0x20\n      add\n      0x00\n      keccak256\n        /* \"contracts/CalismaBilgileri.sol\":3571:3618  calismaBilgileri[_kisiAddress][_calismaBilgiId] */\n      0x00\n        /* \"contracts/CalismaBilgileri.sol\":3602:3617  _calismaBilgiId */\n      dup14\n        /* \"contracts/CalismaBilgileri.sol\":3571:3618  calismaBilgileri[_kisiAddress][_calismaBilgiId] */\n      dup2\n      mstore\n      0x20\n      add\n      swap1\n      dup2\n      mstore\n      0x20\n      add\n      0x00\n      keccak256\n        /* \"contracts/CalismaBilgileri.sol\":3571:3628  calismaBilgileri[_kisiAddress][_calismaBilgiId].onayBilgi */\n      0x06\n      add\n        /* \"contracts/CalismaBilgileri.sol\":3571:3634  calismaBilgileri[_kisiAddress][_calismaBilgiId].onayBilgi.durum */\n      0x01\n      add\n      0x14\n        /* \"contracts/CalismaBilgileri.sol\":3571:3654  calismaBilgileri[_kisiAddress][_calismaBilgiId].onayBilgi.durum=OnayDurum.Onaylandi */\n      0x0100\n      exp\n      dup2\n      sload\n      dup2\n      0xff\n      mul\n      not\n      and\n      swap1\n      dup4\n      0x02\n      dup2\n      gt\n      iszero\n      tag_125\n      jumpi\n      tag_126\n      tag_88\n      jump\t// in\n    tag_126:\n    tag_125:\n      mul\n      or\n      swap1\n      sstore\n      pop\n        /* \"contracts/CalismaBilgileri.sol\":3740:3750  msg.sender */\n      caller\n        /* \"contracts/CalismaBilgileri.sol\":3676:3692  calismaBilgileri */\n      0x0d\n        /* \"contracts/CalismaBilgileri.sol\":3676:3706  calismaBilgileri[_kisiAddress] */\n      0x00\n        /* \"contracts/CalismaBilgileri.sol\":3693:3705  _kisiAddress */\n      dup15\n        /* \"contracts/CalismaBilgileri.sol\":3676:3706  calismaBilgileri[_kisiAddress] */\n      0xffffffffffffffffffffffffffffffffffffffff\n      and\n      0xffffffffffffffffffffffffffffffffffffffff\n      and\n      dup2\n      mstore\n      0x20\n      add\n      swap1\n      dup2\n      mstore\n      0x20\n      add\n      0x00\n      keccak256\n        /* \"contracts/CalismaBilgileri.sol\":3676:3723  calismaBilgileri[_kisiAddress][_calismaBilgiId] */\n      0x00\n        /* \"contracts/CalismaBilgileri.sol\":3707:3722  _calismaBilgiId */\n      dup14\n        /* \"contracts/CalismaBilgileri.sol\":3676:3723  calismaBilgileri[_kisiAddress][_calismaBilgiId] */\n      dup2\n      mstore\n      0x20\n      add\n      swap1\n      dup2\n      mstore\n      0x20\n      add\n      0x00\n      keccak256\n        /* \"contracts/CalismaBilgileri.sol\":3676:3733  calismaBilgileri[_kisiAddress][_calismaBilgiId].onayBilgi */\n      0x06\n      add\n        /* \"contracts/CalismaBilgileri.sol\":3676:3739  calismaBilgileri[_kisiAddress][_calismaBilgiId].onayBilgi.adres */\n      0x01\n      add\n      0x00\n        /* \"contracts/CalismaBilgileri.sol\":3676:3750  calismaBilgileri[_kisiAddress][_calismaBilgiId].onayBilgi.adres=msg.sender */\n      0x0100\n      exp\n      dup2\n      sload\n      dup2\n      0xffffffffffffffffffffffffffffffffffffffff\n      mul\n      not\n      and\n      swap1\n      dup4\n      0xffffffffffffffffffffffffffffffffffffffff\n      and\n      mul\n      or\n      swap1\n      sstore\n      pop\n        /* \"contracts/CalismaBilgileri.sol\":3784:3855  CalismaBilgiGuncellendiLog( _kisiAddress, kurumAdres, pozisyon, sektor) */\n      0x97a8618b4c3e1bbef6226b887ae721d63d275f7a7d596ba44e9ef2fb1309cce0\n        /* \"contracts/CalismaBilgileri.sol\":3812:3824  _kisiAddress */\n      dup13\n        /* \"contracts/CalismaBilgileri.sol\":3826:3836  kurumAdres */\n      dup12\n        /* \"contracts/CalismaBilgileri.sol\":3838:3846  pozisyon */\n      dup12\n        /* \"contracts/CalismaBilgileri.sol\":3848:3854  sektor */\n      dup12\n        /* \"contracts/CalismaBilgileri.sol\":3784:3855  CalismaBilgiGuncellendiLog( _kisiAddress, kurumAdres, pozisyon, sektor) */\n      mload(0x40)\n      tag_127\n      swap5\n      swap4\n      swap3\n      swap2\n      swap1\n      tag_128\n      jump\t// in\n    tag_127:\n      mload(0x40)\n      dup1\n      swap2\n      sub\n      swap1\n      log1\n        /* \"contracts/CalismaBilgileri.sol\":3878:3893  _calismaBilgiId */\n      dup11\n        /* \"contracts/CalismaBilgileri.sol\":3871:3893  return _calismaBilgiId */\n      swap1\n      pop\n        /* \"contracts/CalismaBilgileri.sol\":2364:3903  function guncelleCalismaBilgi(address _kisiAddress, uint _calismaBilgiId, address kurumAdres, uint32 pozisyon, uint8 sektor, CalismaTipi calismaTipi, string memory isAciklama, uint basTarih, uint bitTarih, uint8 ulke, uint32 sehir)  public sadece_Uni_Firma_Kamu returns(uint){\r... */\n      swap12\n      swap11\n      pop\n      pop\n      pop\n      pop\n      pop\n      pop\n      pop\n      pop\n      pop\n      pop\n      pop\n      jump\t// out\n        /* \"contracts/BaseContract.sol\":3196:3245  mapping(address=>KamuKurumu) public kamuKurumlari */\n    tag_51:\n      mstore(0x20, 0x08)\n      dup1\n      0x00\n      mstore\n      keccak256(0x00, 0x40)\n      0x00\n      swap2\n      pop\n      swap1\n      pop\n      dup1\n      0x00\n      add\n      0x00\n      swap1\n      sload\n      swap1\n      0x0100\n      exp\n      swap1\n      div\n      0xff\n      and\n      swap1\n      dup1\n      0x01\n      add\n      dup1\n      sload\n      tag_129\n      swap1\n      tag_81\n      jump\t// in\n    tag_129:\n      dup1\n      0x1f\n      add\n      0x20\n      dup1\n      swap2\n      div\n      mul\n      0x20\n      add\n      mload(0x40)\n      swap1\n      dup2\n      add\n      0x40\n      mstore\n      dup1\n      swap3\n      swap2\n      swap1\n      dup2\n      dup2\n      mstore\n      0x20\n      add\n      dup3\n      dup1\n      sload\n      tag_130\n      swap1\n      tag_81\n      jump\t// in\n    tag_130:\n      dup1\n      iszero\n      tag_131\n      jumpi\n      dup1\n      0x1f\n      lt\n      tag_132\n      jumpi\n      0x0100\n      dup1\n      dup4\n      sload\n      div\n      mul\n      dup4\n      mstore\n      swap2\n      0x20\n      add\n      swap2\n      jump(tag_131)\n    tag_132:\n      dup3\n      add\n      swap2\n      swap1\n      0x00\n      mstore\n      keccak256(0x00, 0x20)\n      swap1\n    tag_133:\n      dup2\n      sload\n      dup2\n      mstore\n      swap1\n      0x01\n      add\n      swap1\n      0x20\n      add\n      dup1\n      dup4\n      gt\n      tag_133\n      jumpi\n      dup3\n      swap1\n      sub\n      0x1f\n      and\n      dup3\n      add\n      swap2\n    tag_131:\n      pop\n      pop\n      pop\n      pop\n      pop\n      swap1\n      dup1\n      0x02\n      add\n      0x00\n      swap1\n      sload\n      swap1\n      0x0100\n      exp\n      swap1\n      div\n      0xff\n      and\n      swap1\n      pop\n      dup4\n      jump\t// out\n        /* \"contracts/BaseContract.sol\":3252:3287  mapping(address=>STK) public stklar */\n    tag_55:\n      mstore(0x20, 0x09)\n      dup1\n      0x00\n      mstore\n      keccak256(0x00, 0x40)\n      0x00\n      swap2\n      pop\n      swap1\n      pop\n      dup1\n      0x00\n      add\n      0x00\n      swap1\n      sload\n      swap1\n      0x0100\n      exp\n      swap1\n      div\n      0xff\n      and\n      swap1\n      dup1\n      0x01\n      add\n      dup1\n      sload\n      tag_134\n      swap1\n      tag_81\n      jump\t// in\n    tag_134:\n      dup1\n      0x1f\n      add\n      0x20\n      dup1\n      swap2\n      div\n      mul\n      0x20\n      add\n      mload(0x40)\n      swap1\n      dup2\n      add\n      0x40\n      mstore\n      dup1\n      swap3\n      swap2\n      swap1\n      dup2\n      dup2\n      mstore\n      0x20\n      add\n      dup3\n      dup1\n      sload\n      tag_135\n      swap1\n      tag_81\n      jump\t// in\n    tag_135:\n      dup1\n      iszero\n      tag_136\n      jumpi\n      dup1\n      0x1f\n      lt\n      tag_137\n      jumpi\n      0x0100\n      dup1\n      dup4\n      sload\n      div\n      mul\n      dup4\n      mstore\n      swap2\n      0x20\n      add\n      swap2\n      jump(tag_136)\n    tag_137:\n      dup3\n      add\n      swap2\n      swap1\n      0x00\n      mstore\n      keccak256(0x00, 0x20)\n      swap1\n    tag_138:\n      dup2\n      sload\n      dup2\n      mstore\n      swap1\n      0x01\n      add\n      swap1\n      0x20\n      add\n      dup1\n      dup4\n      gt\n      tag_138\n      jumpi\n      dup3\n      swap1\n      sub\n      0x1f\n      and\n      dup3\n      add\n      swap2\n    tag_136:\n      pop\n      pop\n      pop\n      pop\n      pop\n      swap1\n      dup1\n      0x02\n      add\n      0x00\n      swap1\n      sload\n      swap1\n      0x0100\n      exp\n      swap1\n      div\n      0xff\n      and\n      swap1\n      pop\n      dup4\n      jump\t// out\n        /* \"contracts/BaseContract.sol\":3365:3406  mapping(uint32=>YabanciDil) public diller */\n    tag_60:\n      mstore(0x20, 0x0b)\n      dup1\n      0x00\n      mstore\n      keccak256(0x00, 0x40)\n      0x00\n      swap2\n      pop\n      swap1\n      pop\n      dup1\n      0x00\n      add\n      0x00\n      swap1\n      sload\n      swap1\n      0x0100\n      exp\n      swap1\n      div\n      0xffffffff\n      and\n      swap1\n      dup1\n      0x01\n      add\n      dup1\n      sload\n      tag_139\n      swap1\n      tag_81\n      jump\t// in\n    tag_139:\n      dup1\n      0x1f\n      add\n      0x20\n      dup1\n      swap2\n      div\n      mul\n      0x20\n      add\n      mload(0x40)\n      swap1\n      dup2\n      add\n      0x40\n      mstore\n      dup1\n      swap3\n      swap2\n      swap1\n      dup2\n      dup2\n      mstore\n      0x20\n      add\n      dup3\n      dup1\n      sload\n      tag_140\n      swap1\n      tag_81\n      jump\t// in\n    tag_140:\n      dup1\n      iszero\n      tag_141\n      jumpi\n      dup1\n      0x1f\n      lt\n      tag_142\n      jumpi\n      0x0100\n      dup1\n      dup4\n      sload\n      div\n      mul\n      dup4\n      mstore\n      swap2\n      0x20\n      add\n      swap2\n      jump(tag_141)\n    tag_142:\n      dup3\n      add\n      swap2\n      swap1\n      0x00\n      mstore\n      keccak256(0x00, 0x20)\n      swap1\n    tag_143:\n      dup2\n      sload\n      dup2\n      mstore\n      swap1\n      0x01\n      add\n      swap1\n      0x20\n      add\n      dup1\n      dup4\n      gt\n      tag_143\n      jumpi\n      dup3\n      swap1\n      sub\n      0x1f\n      and\n      dup3\n      add\n      swap2\n    tag_141:\n      pop\n      pop\n      pop\n      pop\n      pop\n      swap1\n      pop\n      dup3\n      jump\t// out\n        /* \"contracts/CalismaBilgileri.sol\":183:197  uint public id */\n    tag_64:\n      sload(0x0c)\n      dup2\n      jump\t// out\n        /* \"contracts/CalismaBilgileri.sol\":993:2355  function ekleCalismaBilgi(address _kisiAddress, address kurumAdres, uint32 pozisyon, uint8 sektor, CalismaTipi calismaTipi, string memory isAciklama, uint basTarih, uint bitTarih, uint8 ulke, uint32 sehir)  public sadece_Uni_Firma_Kamu{\r... */\n    tag_69:\n        /* \"contracts/BaseContract.sol\":2617:2630  universiteler */\n      0x04\n        /* \"contracts/BaseContract.sol\":2617:2642  universiteler[msg.sender] */\n      0x00\n        /* \"contracts/BaseContract.sol\":2631:2641  msg.sender */\n      caller\n        /* \"contracts/BaseContract.sol\":2617:2642  universiteler[msg.sender] */\n      0xffffffffffffffffffffffffffffffffffffffff\n      and\n      0xffffffffffffffffffffffffffffffffffffffff\n      and\n      dup2\n      mstore\n      0x20\n      add\n      swap1\n      dup2\n      mstore\n      0x20\n      add\n      0x00\n      keccak256\n        /* \"contracts/BaseContract.sol\":2617:2648  universiteler[msg.sender].durum */\n      0x00\n      add\n      0x00\n      swap1\n      sload\n      swap1\n      0x0100\n      exp\n      swap1\n      div\n      0xff\n      and\n        /* \"contracts/BaseContract.sol\":2617:2676  universiteler[msg.sender].durum||firmalar[msg.sender].durum */\n      dup1\n      tag_145\n      jumpi\n      pop\n        /* \"contracts/BaseContract.sol\":2650:2658  firmalar */\n      0x06\n        /* \"contracts/BaseContract.sol\":2650:2670  firmalar[msg.sender] */\n      0x00\n        /* \"contracts/BaseContract.sol\":2659:2669  msg.sender */\n      caller\n        /* \"contracts/BaseContract.sol\":2650:2670  firmalar[msg.sender] */\n      0xffffffffffffffffffffffffffffffffffffffff\n      and\n      0xffffffffffffffffffffffffffffffffffffffff\n      and\n      dup2\n      mstore\n      0x20\n      add\n      swap1\n      dup2\n      mstore\n      0x20\n      add\n      0x00\n      keccak256\n        /* \"contracts/BaseContract.sol\":2650:2676  firmalar[msg.sender].durum */\n      0x00\n      add\n      0x00\n      swap1\n      sload\n      swap1\n      0x0100\n      exp\n      swap1\n      div\n      0xff\n      and\n        /* \"contracts/BaseContract.sol\":2617:2676  universiteler[msg.sender].durum||firmalar[msg.sender].durum */\n    tag_145:\n        /* \"contracts/BaseContract.sol\":2617:2709  universiteler[msg.sender].durum||firmalar[msg.sender].durum||kamuKurumlari[msg.sender].durum */\n      dup1\n      tag_146\n      jumpi\n      pop\n        /* \"contracts/BaseContract.sol\":2678:2691  kamuKurumlari */\n      0x08\n        /* \"contracts/BaseContract.sol\":2678:2703  kamuKurumlari[msg.sender] */\n      0x00\n        /* \"contracts/BaseContract.sol\":2692:2702  msg.sender */\n      caller\n        /* \"contracts/BaseContract.sol\":2678:2703  kamuKurumlari[msg.sender] */\n      0xffffffffffffffffffffffffffffffffffffffff\n      and\n      0xffffffffffffffffffffffffffffffffffffffff\n      and\n      dup2\n      mstore\n      0x20\n      add\n      swap1\n      dup2\n      mstore\n      0x20\n      add\n      0x00\n      keccak256\n        /* \"contracts/BaseContract.sol\":2678:2709  kamuKurumlari[msg.sender].durum */\n      0x00\n      add\n      0x00\n      swap1\n      sload\n      swap1\n      0x0100\n      exp\n      swap1\n      div\n      0xff\n      and\n        /* \"contracts/BaseContract.sol\":2617:2709  universiteler[msg.sender].durum||firmalar[msg.sender].durum||kamuKurumlari[msg.sender].durum */\n    tag_146:\n        /* \"contracts/BaseContract.sol\":2609:2761  require(universiteler[msg.sender].durum||firmalar[msg.sender].durum||kamuKurumlari[msg.sender].durum,\r... */\n      tag_147\n      jumpi\n      mload(0x40)\n      0x08c379a000000000000000000000000000000000000000000000000000000000\n      dup2\n      mstore\n      0x04\n      add\n      tag_148\n      swap1\n      tag_116\n      jump\t// in\n    tag_148:\n      mload(0x40)\n      dup1\n      swap2\n      sub\n      swap1\n      revert\n    tag_147:\n        /* \"contracts/CalismaBilgileri.sol\":1252:1259  kisiler */\n      0x03\n        /* \"contracts/CalismaBilgileri.sol\":1252:1273  kisiler[_kisiAddress] */\n      0x00\n        /* \"contracts/CalismaBilgileri.sol\":1260:1272  _kisiAddress */\n      dup12\n        /* \"contracts/CalismaBilgileri.sol\":1252:1273  kisiler[_kisiAddress] */\n      0xffffffffffffffffffffffffffffffffffffffff\n      and\n      0xffffffffffffffffffffffffffffffffffffffff\n      and\n      dup2\n      mstore\n      0x20\n      add\n      swap1\n      dup2\n      mstore\n      0x20\n      add\n      0x00\n      keccak256\n        /* \"contracts/CalismaBilgileri.sol\":1252:1279  kisiler[_kisiAddress].durum */\n      0x00\n      add\n      0x00\n      swap1\n      sload\n      swap1\n      0x0100\n      exp\n      swap1\n      div\n      0xff\n      and\n        /* \"contracts/CalismaBilgileri.sol\":1244:1301  require(kisiler[_kisiAddress].durum,\"Student not exists\") */\n      tag_150\n      jumpi\n      mload(0x40)\n      0x08c379a000000000000000000000000000000000000000000000000000000000\n      dup2\n      mstore\n      0x04\n      add\n      tag_151\n      swap1\n      tag_120\n      jump\t// in\n    tag_151:\n      mload(0x40)\n      dup1\n      swap2\n      sub\n      swap1\n      revert\n    tag_150:\n        /* \"contracts/CalismaBilgileri.sol\":1317:1328  uint yeniId */\n      0x00\n        /* \"contracts/CalismaBilgileri.sol\":1329:1331  id */\n      0x0c\n      0x00\n        /* \"contracts/CalismaBilgileri.sol\":1329:1333  id++ */\n      dup2\n      sload\n      dup1\n      swap3\n      swap2\n      swap1\n      tag_152\n      swap1\n      tag_153\n      jump\t// in\n    tag_152:\n      swap2\n      swap1\n      pop\n      sstore\n        /* \"contracts/CalismaBilgileri.sol\":1317:1333  uint yeniId=id++ */\n      swap1\n      pop\n        /* \"contracts/CalismaBilgileri.sol\":1399:1409  kurumAdres */\n      dup10\n        /* \"contracts/CalismaBilgileri.sol\":1349:1365  calismaBilgileri */\n      0x0d\n        /* \"contracts/CalismaBilgileri.sol\":1349:1379  calismaBilgileri[_kisiAddress] */\n      0x00\n        /* \"contracts/CalismaBilgileri.sol\":1366:1378  _kisiAddress */\n      dup14\n        /* \"contracts/CalismaBilgileri.sol\":1349:1379  calismaBilgileri[_kisiAddress] */\n      0xffffffffffffffffffffffffffffffffffffffff\n      and\n      0xffffffffffffffffffffffffffffffffffffffff\n      and\n      dup2\n      mstore\n      0x20\n      add\n      swap1\n      dup2\n      mstore\n      0x20\n      add\n      0x00\n      keccak256\n        /* \"contracts/CalismaBilgileri.sol\":1349:1387  calismaBilgileri[_kisiAddress][yeniId] */\n      0x00\n        /* \"contracts/CalismaBilgileri.sol\":1380:1386  yeniId */\n      dup4\n        /* \"contracts/CalismaBilgileri.sol\":1349:1387  calismaBilgileri[_kisiAddress][yeniId] */\n      dup2\n      mstore\n      0x20\n      add\n      swap1\n      dup2\n      mstore\n      0x20\n      add\n      0x00\n      keccak256\n        /* \"contracts/CalismaBilgileri.sol\":1349:1398  calismaBilgileri[_kisiAddress][yeniId].kurumAdres */\n      0x01\n      add\n      0x00\n        /* \"contracts/CalismaBilgileri.sol\":1349:1409  calismaBilgileri[_kisiAddress][yeniId].kurumAdres=kurumAdres */\n      0x0100\n      exp\n      dup2\n      sload\n      dup2\n      0xffffffffffffffffffffffffffffffffffffffff\n      mul\n      not\n      and\n      swap1\n      dup4\n      0xffffffffffffffffffffffffffffffffffffffff\n      and\n      mul\n      or\n      swap1\n      sstore\n      pop\n        /* \"contracts/CalismaBilgileri.sol\":1473:1481  pozisyon */\n      dup9\n        /* \"contracts/CalismaBilgileri.sol\":1425:1441  calismaBilgileri */\n      0x0d\n        /* \"contracts/CalismaBilgileri.sol\":1425:1455  calismaBilgileri[_kisiAddress] */\n      0x00\n        /* \"contracts/CalismaBilgileri.sol\":1442:1454  _kisiAddress */\n      dup14\n        /* \"contracts/CalismaBilgileri.sol\":1425:1455  calismaBilgileri[_kisiAddress] */\n      0xffffffffffffffffffffffffffffffffffffffff\n      and\n      0xffffffffffffffffffffffffffffffffffffffff\n      and\n      dup2\n      mstore\n      0x20\n      add\n      swap1\n      dup2\n      mstore\n      0x20\n      add\n      0x00\n      keccak256\n        /* \"contracts/CalismaBilgileri.sol\":1425:1463  calismaBilgileri[_kisiAddress][yeniId] */\n      0x00\n        /* \"contracts/CalismaBilgileri.sol\":1456:1462  yeniId */\n      dup4\n        /* \"contracts/CalismaBilgileri.sol\":1425:1463  calismaBilgileri[_kisiAddress][yeniId] */\n      dup2\n      mstore\n      0x20\n      add\n      swap1\n      dup2\n      mstore\n      0x20\n      add\n      0x00\n      keccak256\n        /* \"contracts/CalismaBilgileri.sol\":1425:1472  calismaBilgileri[_kisiAddress][yeniId].pozisyon */\n      0x01\n      add\n      0x14\n        /* \"contracts/CalismaBilgileri.sol\":1425:1481  calismaBilgileri[_kisiAddress][yeniId].pozisyon=pozisyon */\n      0x0100\n      exp\n      dup2\n      sload\n      dup2\n      0xffffffff\n      mul\n      not\n      and\n      swap1\n      dup4\n      0xffffffff\n      and\n      mul\n      or\n      swap1\n      sstore\n      pop\n        /* \"contracts/CalismaBilgileri.sol\":1543:1549  sektor */\n      dup8\n        /* \"contracts/CalismaBilgileri.sol\":1497:1513  calismaBilgileri */\n      0x0d\n        /* \"contracts/CalismaBilgileri.sol\":1497:1527  calismaBilgileri[_kisiAddress] */\n      0x00\n        /* \"contracts/CalismaBilgileri.sol\":1514:1526  _kisiAddress */\n      dup14\n        /* \"contracts/CalismaBilgileri.sol\":1497:1527  calismaBilgileri[_kisiAddress] */\n      0xffffffffffffffffffffffffffffffffffffffff\n      and\n      0xffffffffffffffffffffffffffffffffffffffff\n      and\n      dup2\n      mstore\n      0x20\n      add\n      swap1\n      dup2\n      mstore\n      0x20\n      add\n      0x00\n      keccak256\n        /* \"contracts/CalismaBilgileri.sol\":1497:1535  calismaBilgileri[_kisiAddress][yeniId] */\n      0x00\n        /* \"contracts/CalismaBilgileri.sol\":1528:1534  yeniId */\n      dup4\n        /* \"contracts/CalismaBilgileri.sol\":1497:1535  calismaBilgileri[_kisiAddress][yeniId] */\n      dup2\n      mstore\n      0x20\n      add\n      swap1\n      dup2\n      mstore\n      0x20\n      add\n      0x00\n      keccak256\n        /* \"contracts/CalismaBilgileri.sol\":1497:1542  calismaBilgileri[_kisiAddress][yeniId].sektor */\n      0x01\n      add\n      0x18\n        /* \"contracts/CalismaBilgileri.sol\":1497:1549  calismaBilgileri[_kisiAddress][yeniId].sektor=sektor */\n      0x0100\n      exp\n      dup2\n      sload\n      dup2\n      0xff\n      mul\n      not\n      and\n      swap1\n      dup4\n      0xff\n      and\n      mul\n      or\n      swap1\n      sstore\n      pop\n        /* \"contracts/CalismaBilgileri.sol\":1616:1627  calismaTipi */\n      dup7\n        /* \"contracts/CalismaBilgileri.sol\":1565:1581  calismaBilgileri */\n      0x0d\n        /* \"contracts/CalismaBilgileri.sol\":1565:1595  calismaBilgileri[_kisiAddress] */\n      0x00\n        /* \"contracts/CalismaBilgileri.sol\":1582:1594  _kisiAddress */\n      dup14\n        /* \"contracts/CalismaBilgileri.sol\":1565:1595  calismaBilgileri[_kisiAddress] */\n      0xffffffffffffffffffffffffffffffffffffffff\n      and\n      0xffffffffffffffffffffffffffffffffffffffff\n      and\n      dup2\n      mstore\n      0x20\n      add\n      swap1\n      dup2\n      mstore\n      0x20\n      add\n      0x00\n      keccak256\n        /* \"contracts/CalismaBilgileri.sol\":1565:1603  calismaBilgileri[_kisiAddress][yeniId] */\n      0x00\n        /* \"contracts/CalismaBilgileri.sol\":1596:1602  yeniId */\n      dup4\n        /* \"contracts/CalismaBilgileri.sol\":1565:1603  calismaBilgileri[_kisiAddress][yeniId] */\n      dup2\n      mstore\n      0x20\n      add\n      swap1\n      dup2\n      mstore\n      0x20\n      add\n      0x00\n      keccak256\n        /* \"contracts/CalismaBilgileri.sol\":1565:1615  calismaBilgileri[_kisiAddress][yeniId].calismaTipi */\n      0x01\n      add\n      0x19\n        /* \"contracts/CalismaBilgileri.sol\":1565:1627  calismaBilgileri[_kisiAddress][yeniId].calismaTipi=calismaTipi */\n      0x0100\n      exp\n      dup2\n      sload\n      dup2\n      0xff\n      mul\n      not\n      and\n      swap1\n      dup4\n      0x02\n      dup2\n      gt\n      iszero\n      tag_154\n      jumpi\n      tag_155\n      tag_88\n      jump\t// in\n    tag_155:\n    tag_154:\n      mul\n      or\n      swap1\n      sstore\n      pop\n        /* \"contracts/CalismaBilgileri.sol\":1693:1703  isAciklama */\n      dup6\n        /* \"contracts/CalismaBilgileri.sol\":1643:1659  calismaBilgileri */\n      0x0d\n        /* \"contracts/CalismaBilgileri.sol\":1643:1673  calismaBilgileri[_kisiAddress] */\n      0x00\n        /* \"contracts/CalismaBilgileri.sol\":1660:1672  _kisiAddress */\n      dup14\n        /* \"contracts/CalismaBilgileri.sol\":1643:1673  calismaBilgileri[_kisiAddress] */\n      0xffffffffffffffffffffffffffffffffffffffff\n      and\n      0xffffffffffffffffffffffffffffffffffffffff\n      and\n      dup2\n      mstore\n      0x20\n      add\n      swap1\n      dup2\n      mstore\n      0x20\n      add\n      0x00\n      keccak256\n        /* \"contracts/CalismaBilgileri.sol\":1643:1681  calismaBilgileri[_kisiAddress][yeniId] */\n      0x00\n        /* \"contracts/CalismaBilgileri.sol\":1674:1680  yeniId */\n      dup4\n        /* \"contracts/CalismaBilgileri.sol\":1643:1681  calismaBilgileri[_kisiAddress][yeniId] */\n      dup2\n      mstore\n      0x20\n      add\n      swap1\n      dup2\n      mstore\n      0x20\n      add\n      0x00\n      keccak256\n        /* \"contracts/CalismaBilgileri.sol\":1643:1692  calismaBilgileri[_kisiAddress][yeniId].isAciklama */\n      0x02\n      add\n        /* \"contracts/CalismaBilgileri.sol\":1643:1703  calismaBilgileri[_kisiAddress][yeniId].isAciklama=isAciklama */\n      swap1\n      dup1\n      mload\n      swap1\n      0x20\n      add\n      swap1\n      tag_156\n      swap3\n      swap2\n      swap1\n      tag_124\n      jump\t// in\n    tag_156:\n      pop\n        /* \"contracts/CalismaBilgileri.sol\":1767:1775  basTarih */\n      dup5\n        /* \"contracts/CalismaBilgileri.sol\":1719:1735  calismaBilgileri */\n      0x0d\n        /* \"contracts/CalismaBilgileri.sol\":1719:1749  calismaBilgileri[_kisiAddress] */\n      0x00\n        /* \"contracts/CalismaBilgileri.sol\":1736:1748  _kisiAddress */\n      dup14\n        /* \"contracts/CalismaBilgileri.sol\":1719:1749  calismaBilgileri[_kisiAddress] */\n      0xffffffffffffffffffffffffffffffffffffffff\n      and\n      0xffffffffffffffffffffffffffffffffffffffff\n      and\n      dup2\n      mstore\n      0x20\n      add\n      swap1\n      dup2\n      mstore\n      0x20\n      add\n      0x00\n      keccak256\n        /* \"contracts/CalismaBilgileri.sol\":1719:1757  calismaBilgileri[_kisiAddress][yeniId] */\n      0x00\n        /* \"contracts/CalismaBilgileri.sol\":1750:1756  yeniId */\n      dup4\n        /* \"contracts/CalismaBilgileri.sol\":1719:1757  calismaBilgileri[_kisiAddress][yeniId] */\n      dup2\n      mstore\n      0x20\n      add\n      swap1\n      dup2\n      mstore\n      0x20\n      add\n      0x00\n      keccak256\n        /* \"contracts/CalismaBilgileri.sol\":1719:1766  calismaBilgileri[_kisiAddress][yeniId].basTarih */\n      0x03\n      add\n        /* \"contracts/CalismaBilgileri.sol\":1719:1775  calismaBilgileri[_kisiAddress][yeniId].basTarih=basTarih */\n      dup2\n      swap1\n      sstore\n      pop\n        /* \"contracts/CalismaBilgileri.sol\":1839:1847  bitTarih */\n      dup4\n        /* \"contracts/CalismaBilgileri.sol\":1791:1807  calismaBilgileri */\n      0x0d\n        /* \"contracts/CalismaBilgileri.sol\":1791:1821  calismaBilgileri[_kisiAddress] */\n      0x00\n        /* \"contracts/CalismaBilgileri.sol\":1808:1820  _kisiAddress */\n      dup14\n        /* \"contracts/CalismaBilgileri.sol\":1791:1821  calismaBilgileri[_kisiAddress] */\n      0xffffffffffffffffffffffffffffffffffffffff\n      and\n      0xffffffffffffffffffffffffffffffffffffffff\n      and\n      dup2\n      mstore\n      0x20\n      add\n      swap1\n      dup2\n      mstore\n      0x20\n      add\n      0x00\n      keccak256\n        /* \"contracts/CalismaBilgileri.sol\":1791:1829  calismaBilgileri[_kisiAddress][yeniId] */\n      0x00\n        /* \"contracts/CalismaBilgileri.sol\":1822:1828  yeniId */\n      dup4\n        /* \"contracts/CalismaBilgileri.sol\":1791:1829  calismaBilgileri[_kisiAddress][yeniId] */\n      dup2\n      mstore\n      0x20\n      add\n      swap1\n      dup2\n      mstore\n      0x20\n      add\n      0x00\n      keccak256\n        /* \"contracts/CalismaBilgileri.sol\":1791:1838  calismaBilgileri[_kisiAddress][yeniId].bitTarih */\n      0x04\n      add\n        /* \"contracts/CalismaBilgileri.sol\":1791:1847  calismaBilgileri[_kisiAddress][yeniId].bitTarih=bitTarih */\n      dup2\n      swap1\n      sstore\n      pop\n        /* \"contracts/CalismaBilgileri.sol\":1907:1911  ulke */\n      dup3\n        /* \"contracts/CalismaBilgileri.sol\":1863:1879  calismaBilgileri */\n      0x0d\n        /* \"contracts/CalismaBilgileri.sol\":1863:1893  calismaBilgileri[_kisiAddress] */\n      0x00\n        /* \"contracts/CalismaBilgileri.sol\":1880:1892  _kisiAddress */\n      dup14\n        /* \"contracts/CalismaBilgileri.sol\":1863:1893  calismaBilgileri[_kisiAddress] */\n      0xffffffffffffffffffffffffffffffffffffffff\n      and\n      0xffffffffffffffffffffffffffffffffffffffff\n      and\n      dup2\n      mstore\n      0x20\n      add\n      swap1\n      dup2\n      mstore\n      0x20\n      add\n      0x00\n      keccak256\n        /* \"contracts/CalismaBilgileri.sol\":1863:1901  calismaBilgileri[_kisiAddress][yeniId] */\n      0x00\n        /* \"contracts/CalismaBilgileri.sol\":1894:1900  yeniId */\n      dup4\n        /* \"contracts/CalismaBilgileri.sol\":1863:1901  calismaBilgileri[_kisiAddress][yeniId] */\n      dup2\n      mstore\n      0x20\n      add\n      swap1\n      dup2\n      mstore\n      0x20\n      add\n      0x00\n      keccak256\n        /* \"contracts/CalismaBilgileri.sol\":1863:1906  calismaBilgileri[_kisiAddress][yeniId].ulke */\n      0x05\n      add\n      0x00\n        /* \"contracts/CalismaBilgileri.sol\":1863:1911  calismaBilgileri[_kisiAddress][yeniId].ulke=ulke */\n      0x0100\n      exp\n      dup2\n      sload\n      dup2\n      0xff\n      mul\n      not\n      and\n      swap1\n      dup4\n      0xff\n      and\n      mul\n      or\n      swap1\n      sstore\n      pop\n        /* \"contracts/CalismaBilgileri.sol\":1972:1978  sektor */\n      dup8\n        /* \"contracts/CalismaBilgileri.sol\":1927:1978  calismaBilgileri[_kisiAddress][yeniId].sehir=sektor */\n      0xff\n      and\n        /* \"contracts/CalismaBilgileri.sol\":1927:1943  calismaBilgileri */\n      0x0d\n        /* \"contracts/CalismaBilgileri.sol\":1927:1957  calismaBilgileri[_kisiAddress] */\n      0x00\n        /* \"contracts/CalismaBilgileri.sol\":1944:1956  _kisiAddress */\n      dup14\n        /* \"contracts/CalismaBilgileri.sol\":1927:1957  calismaBilgileri[_kisiAddress] */\n      0xffffffffffffffffffffffffffffffffffffffff\n      and\n      0xffffffffffffffffffffffffffffffffffffffff\n      and\n      dup2\n      mstore\n      0x20\n      add\n      swap1\n      dup2\n      mstore\n      0x20\n      add\n      0x00\n      keccak256\n        /* \"contracts/CalismaBilgileri.sol\":1927:1965  calismaBilgileri[_kisiAddress][yeniId] */\n      0x00\n        /* \"contracts/CalismaBilgileri.sol\":1958:1964  yeniId */\n      dup4\n        /* \"contracts/CalismaBilgileri.sol\":1927:1965  calismaBilgileri[_kisiAddress][yeniId] */\n      dup2\n      mstore\n      0x20\n      add\n      swap1\n      dup2\n      mstore\n      0x20\n      add\n      0x00\n      keccak256\n        /* \"contracts/CalismaBilgileri.sol\":1927:1971  calismaBilgileri[_kisiAddress][yeniId].sehir */\n      0x05\n      add\n      0x01\n        /* \"contracts/CalismaBilgileri.sol\":1927:1978  calismaBilgileri[_kisiAddress][yeniId].sehir=sektor */\n      0x0100\n      exp\n      dup2\n      sload\n      dup2\n      0xffffffff\n      mul\n      not\n      and\n      swap1\n      dup4\n      0xffffffff\n      and\n      mul\n      or\n      swap1\n      sstore\n      pop\n        /* \"contracts/CalismaBilgileri.sol\":2051:2066  block.timestamp */\n      timestamp\n        /* \"contracts/CalismaBilgileri.sol\":1996:2012  calismaBilgileri */\n      0x0d\n        /* \"contracts/CalismaBilgileri.sol\":1996:2026  calismaBilgileri[_kisiAddress] */\n      0x00\n        /* \"contracts/CalismaBilgileri.sol\":2013:2025  _kisiAddress */\n      dup14\n        /* \"contracts/CalismaBilgileri.sol\":1996:2026  calismaBilgileri[_kisiAddress] */\n      0xffffffffffffffffffffffffffffffffffffffff\n      and\n      0xffffffffffffffffffffffffffffffffffffffff\n      and\n      dup2\n      mstore\n      0x20\n      add\n      swap1\n      dup2\n      mstore\n      0x20\n      add\n      0x00\n      keccak256\n        /* \"contracts/CalismaBilgileri.sol\":1996:2034  calismaBilgileri[_kisiAddress][yeniId] */\n      0x00\n        /* \"contracts/CalismaBilgileri.sol\":2027:2033  yeniId */\n      dup4\n        /* \"contracts/CalismaBilgileri.sol\":1996:2034  calismaBilgileri[_kisiAddress][yeniId] */\n      dup2\n      mstore\n      0x20\n      add\n      swap1\n      dup2\n      mstore\n      0x20\n      add\n      0x00\n      keccak256\n        /* \"contracts/CalismaBilgileri.sol\":1996:2044  calismaBilgileri[_kisiAddress][yeniId].onayBilgi */\n      0x06\n      add\n        /* \"contracts/CalismaBilgileri.sol\":1996:2050  calismaBilgileri[_kisiAddress][yeniId].onayBilgi.zaman */\n      0x00\n      add\n        /* \"contracts/CalismaBilgileri.sol\":1996:2066  calismaBilgileri[_kisiAddress][yeniId].onayBilgi.zaman=block.timestamp */\n      dup2\n      swap1\n      sstore\n      pop\n        /* \"contracts/CalismaBilgileri.sol\":2141:2160  OnayDurum.Onaylandi */\n      0x01\n        /* \"contracts/CalismaBilgileri.sol\":2086:2102  calismaBilgileri */\n      0x0d\n        /* \"contracts/CalismaBilgileri.sol\":2086:2116  calismaBilgileri[_kisiAddress] */\n      0x00\n        /* \"contracts/CalismaBilgileri.sol\":2103:2115  _kisiAddress */\n      dup14\n        /* \"contracts/CalismaBilgileri.sol\":2086:2116  calismaBilgileri[_kisiAddress] */\n      0xffffffffffffffffffffffffffffffffffffffff\n      and\n      0xffffffffffffffffffffffffffffffffffffffff\n      and\n      dup2\n      mstore\n      0x20\n      add\n      swap1\n      dup2\n      mstore\n      0x20\n      add\n      0x00\n      keccak256\n        /* \"contracts/CalismaBilgileri.sol\":2086:2124  calismaBilgileri[_kisiAddress][yeniId] */\n      0x00\n        /* \"contracts/CalismaBilgileri.sol\":2117:2123  yeniId */\n      dup4\n        /* \"contracts/CalismaBilgileri.sol\":2086:2124  calismaBilgileri[_kisiAddress][yeniId] */\n      dup2\n      mstore\n      0x20\n      add\n      swap1\n      dup2\n      mstore\n      0x20\n      add\n      0x00\n      keccak256\n        /* \"contracts/CalismaBilgileri.sol\":2086:2134  calismaBilgileri[_kisiAddress][yeniId].onayBilgi */\n      0x06\n      add\n        /* \"contracts/CalismaBilgileri.sol\":2086:2140  calismaBilgileri[_kisiAddress][yeniId].onayBilgi.durum */\n      0x01\n      add\n      0x14\n        /* \"contracts/CalismaBilgileri.sol\":2086:2160  calismaBilgileri[_kisiAddress][yeniId].onayBilgi.durum=OnayDurum.Onaylandi */\n      0x0100\n      exp\n      dup2\n      sload\n      dup2\n      0xff\n      mul\n      not\n      and\n      swap1\n      dup4\n      0x02\n      dup2\n      gt\n      iszero\n      tag_157\n      jumpi\n      tag_158\n      tag_88\n      jump\t// in\n    tag_158:\n    tag_157:\n      mul\n      or\n      swap1\n      sstore\n      pop\n        /* \"contracts/CalismaBilgileri.sol\":2237:2247  msg.sender */\n      caller\n        /* \"contracts/CalismaBilgileri.sol\":2182:2198  calismaBilgileri */\n      0x0d\n        /* \"contracts/CalismaBilgileri.sol\":2182:2212  calismaBilgileri[_kisiAddress] */\n      0x00\n        /* \"contracts/CalismaBilgileri.sol\":2199:2211  _kisiAddress */\n      dup14\n        /* \"contracts/CalismaBilgileri.sol\":2182:2212  calismaBilgileri[_kisiAddress] */\n      0xffffffffffffffffffffffffffffffffffffffff\n      and\n      0xffffffffffffffffffffffffffffffffffffffff\n      and\n      dup2\n      mstore\n      0x20\n      add\n      swap1\n      dup2\n      mstore\n      0x20\n      add\n      0x00\n      keccak256\n        /* \"contracts/CalismaBilgileri.sol\":2182:2220  calismaBilgileri[_kisiAddress][yeniId] */\n      0x00\n        /* \"contracts/CalismaBilgileri.sol\":2213:2219  yeniId */\n      dup4\n        /* \"contracts/CalismaBilgileri.sol\":2182:2220  calismaBilgileri[_kisiAddress][yeniId] */\n      dup2\n      mstore\n      0x20\n      add\n      swap1\n      dup2\n      mstore\n      0x20\n      add\n      0x00\n      keccak256\n        /* \"contracts/CalismaBilgileri.sol\":2182:2230  calismaBilgileri[_kisiAddress][yeniId].onayBilgi */\n      0x06\n      add\n        /* \"contracts/CalismaBilgileri.sol\":2182:2236  calismaBilgileri[_kisiAddress][yeniId].onayBilgi.adres */\n      0x01\n      add\n      0x00\n        /* \"contracts/CalismaBilgileri.sol\":2182:2247  calismaBilgileri[_kisiAddress][yeniId].onayBilgi.adres=msg.sender */\n      0x0100\n      exp\n      dup2\n      sload\n      dup2\n      0xffffffffffffffffffffffffffffffffffffffff\n      mul\n      not\n      and\n      swap1\n      dup4\n      0xffffffffffffffffffffffffffffffffffffffff\n      and\n      mul\n      or\n      swap1\n      sstore\n      pop\n        /* \"contracts/CalismaBilgileri.sol\":2281:2347  CalismaBilgiEklendiLog( _kisiAddress, kurumAdres,pozisyon, sektor) */\n      0xae2424f93616cc7fc3303332cdda5353231f2dc90a87b1e0b507a25e53ac0135\n        /* \"contracts/CalismaBilgileri.sol\":2305:2317  _kisiAddress */\n      dup12\n        /* \"contracts/CalismaBilgileri.sol\":2319:2329  kurumAdres */\n      dup12\n        /* \"contracts/CalismaBilgileri.sol\":2330:2338  pozisyon */\n      dup12\n        /* \"contracts/CalismaBilgileri.sol\":2340:2346  sektor */\n      dup12\n        /* \"contracts/CalismaBilgileri.sol\":2281:2347  CalismaBilgiEklendiLog( _kisiAddress, kurumAdres,pozisyon, sektor) */\n      mload(0x40)\n      tag_159\n      swap5\n      swap4\n      swap3\n      swap2\n      swap1\n      tag_128\n      jump\t// in\n    tag_159:\n      mload(0x40)\n      dup1\n      swap2\n      sub\n      swap1\n      log1\n        /* \"contracts/CalismaBilgileri.sol\":1228:2355  {\r... */\n      pop\n        /* \"contracts/CalismaBilgileri.sol\":993:2355  function ekleCalismaBilgi(address _kisiAddress, address kurumAdres, uint32 pozisyon, uint8 sektor, CalismaTipi calismaTipi, string memory isAciklama, uint basTarih, uint bitTarih, uint8 ulke, uint32 sehir)  public sadece_Uni_Firma_Kamu{\r... */\n      pop\n      pop\n      pop\n      pop\n      pop\n      pop\n      pop\n      pop\n      pop\n      pop\n      jump\t// out\n        /* \"contracts/BaseContract.sol\":3046:3097  mapping(address=>Akademisyen) public akademisyenler */\n    tag_72:\n      mstore(0x20, 0x05)\n      dup1\n      0x00\n      mstore\n      keccak256(0x00, 0x40)\n      0x00\n      swap2\n      pop\n      swap1\n      pop\n      dup1\n      0x00\n      add\n      0x00\n      swap1\n      sload\n      swap1\n      0x0100\n      exp\n      swap1\n      div\n      0xff\n      and\n      swap1\n      dup1\n      0x00\n      add\n      0x01\n      swap1\n      sload\n      swap1\n      0x0100\n      exp\n      swap1\n      div\n      0xffffffffffffffffffffffffffffffffffffffff\n      and\n      swap1\n      dup1\n      0x00\n      add\n      0x15\n      swap1\n      sload\n      swap1\n      0x0100\n      exp\n      swap1\n      div\n      0xffff\n      and\n      swap1\n      dup1\n      0x00\n      add\n      0x17\n      swap1\n      sload\n      swap1\n      0x0100\n      exp\n      swap1\n      div\n      0xff\n      and\n      swap1\n      dup1\n      0x01\n      add\n      dup1\n      sload\n      tag_160\n      swap1\n      tag_81\n      jump\t// in\n    tag_160:\n      dup1\n      0x1f\n      add\n      0x20\n      dup1\n      swap2\n      div\n      mul\n      0x20\n      add\n      mload(0x40)\n      swap1\n      dup2\n      add\n      0x40\n      mstore\n      dup1\n      swap3\n      swap2\n      swap1\n      dup2\n      dup2\n      mstore\n      0x20\n      add\n      dup3\n      dup1\n      sload\n      tag_161\n      swap1\n      tag_81\n      jump\t// in\n    tag_161:\n      dup1\n      iszero\n      tag_162\n      jumpi\n      dup1\n      0x1f\n      lt\n      tag_163\n      jumpi\n      0x0100\n      dup1\n      dup4\n      sload\n      div\n      mul\n      dup4\n      mstore\n      swap2\n      0x20\n      add\n      swap2\n      jump(tag_162)\n    tag_163:\n      dup3\n      add\n      swap2\n      swap1\n      0x00\n      mstore\n      keccak256(0x00, 0x20)\n      swap1\n    tag_164:\n      dup2\n      sload\n      dup2\n      mstore\n      swap1\n      0x01\n      add\n      swap1\n      0x20\n      add\n      dup1\n      dup4\n      gt\n      tag_164\n      jumpi\n      dup3\n      swap1\n      sub\n      0x1f\n      and\n      dup3\n      add\n      swap2\n    tag_162:\n      pop\n      pop\n      pop\n      pop\n      pop\n      swap1\n      dup1\n      0x02\n      add\n      dup1\n      sload\n      tag_165\n      swap1\n      tag_81\n      jump\t// in\n    tag_165:\n      dup1\n      0x1f\n      add\n      0x20\n      dup1\n      swap2\n      div\n      mul\n      0x20\n      add\n      mload(0x40)\n      swap1\n      dup2\n      add\n      0x40\n      mstore\n      dup1\n      swap3\n      swap2\n      swap1\n      dup2\n      dup2\n      mstore\n      0x20\n      add\n      dup3\n      dup1\n      sload\n      tag_166\n      swap1\n      tag_81\n      jump\t// in\n    tag_166:\n      dup1\n      iszero\n      tag_167\n      jumpi\n      dup1\n      0x1f\n      lt\n      tag_168\n      jumpi\n      0x0100\n      dup1\n      dup4\n      sload\n      div\n      mul\n      dup4\n      mstore\n      swap2\n      0x20\n      add\n      swap2\n      jump(tag_167)\n    tag_168:\n      dup3\n      add\n      swap2\n      swap1\n      0x00\n      mstore\n      keccak256(0x00, 0x20)\n      swap1\n    tag_169:\n      dup2\n      sload\n      dup2\n      mstore\n      swap1\n      0x01\n      add\n      swap1\n      0x20\n      add\n      dup1\n      dup4\n      gt\n      tag_169\n      jumpi\n      dup3\n      swap1\n      sub\n      0x1f\n      and\n      dup3\n      add\n      swap2\n    tag_167:\n      pop\n      pop\n      pop\n      pop\n      pop\n      swap1\n      pop\n      dup7\n      jump\t// out\n        /* \"contracts/BaseContract.sol\":2946:2983  mapping(address=>Kisi) public kisiler */\n    tag_77:\n      mstore(0x20, 0x03)\n      dup1\n      0x00\n      mstore\n      keccak256(0x00, 0x40)\n      0x00\n      swap2\n      pop\n      swap1\n      pop\n      dup1\n      0x00\n      add\n      0x00\n      swap1\n      sload\n      swap1\n      0x0100\n      exp\n      swap1\n      div\n      0xff\n      and\n      swap1\n      pop\n      dup2\n      jump\t// out\n    tag_124:\n      dup3\n      dup1\n      sload\n      tag_170\n      swap1\n      tag_81\n      jump\t// in\n    tag_170:\n      swap1\n      0x00\n      mstore\n      keccak256(0x00, 0x20)\n      swap1\n      0x1f\n      add\n      0x20\n      swap1\n      div\n      dup2\n      add\n      swap3\n      dup3\n      tag_172\n      jumpi\n      0x00\n      dup6\n      sstore\n      jump(tag_171)\n    tag_172:\n      dup3\n      0x1f\n      lt\n      tag_173\n      jumpi\n      dup1\n      mload\n      not(0xff)\n      and\n      dup4\n      dup1\n      add\n      or\n      dup6\n      sstore\n      jump(tag_171)\n    tag_173:\n      dup3\n      dup1\n      add\n      0x01\n      add\n      dup6\n      sstore\n      dup3\n      iszero\n      tag_171\n      jumpi\n      swap2\n      dup3\n      add\n    tag_174:\n      dup3\n      dup2\n      gt\n      iszero\n      tag_175\n      jumpi\n      dup3\n      mload\n      dup3\n      sstore\n      swap2\n      0x20\n      add\n      swap2\n      swap1\n      0x01\n      add\n      swap1\n      jump(tag_174)\n    tag_175:\n    tag_171:\n      pop\n      swap1\n      pop\n      tag_176\n      swap2\n      swap1\n      tag_177\n      jump\t// in\n    tag_176:\n      pop\n      swap1\n      jump\t// out\n    tag_177:\n    tag_178:\n      dup1\n      dup3\n      gt\n      iszero\n      tag_179\n      jumpi\n      0x00\n      dup2\n      0x00\n      swap1\n      sstore\n      pop\n      0x01\n      add\n      jump(tag_178)\n    tag_179:\n      pop\n      swap1\n      jump\t// out\n        /* \"#utility.yul\":7:419   */\n    tag_181:\n        /* \"#utility.yul\":85:90   */\n      0x00\n        /* \"#utility.yul\":110:176   */\n      tag_183\n        /* \"#utility.yul\":126:175   */\n      tag_184\n        /* \"#utility.yul\":168:174   */\n      dup5\n        /* \"#utility.yul\":126:175   */\n      tag_185\n      jump\t// in\n    tag_184:\n        /* \"#utility.yul\":110:176   */\n      tag_186\n      jump\t// in\n    tag_183:\n        /* \"#utility.yul\":101:176   */\n      swap1\n      pop\n        /* \"#utility.yul\":199:205   */\n      dup3\n        /* \"#utility.yul\":192:197   */\n      dup2\n        /* \"#utility.yul\":185:206   */\n      mstore\n        /* \"#utility.yul\":237:241   */\n      0x20\n        /* \"#utility.yul\":230:235   */\n      dup2\n        /* \"#utility.yul\":226:242   */\n      add\n        /* \"#utility.yul\":275:278   */\n      dup5\n        /* \"#utility.yul\":266:272   */\n      dup5\n        /* \"#utility.yul\":261:264   */\n      dup5\n        /* \"#utility.yul\":257:273   */\n      add\n        /* \"#utility.yul\":254:279   */\n      gt\n        /* \"#utility.yul\":251:363   */\n      iszero\n      tag_187\n      jumpi\n        /* \"#utility.yul\":282:361   */\n      tag_188\n      tag_189\n      jump\t// in\n    tag_188:\n        /* \"#utility.yul\":251:363   */\n    tag_187:\n        /* \"#utility.yul\":372:413   */\n      tag_190\n        /* \"#utility.yul\":406:412   */\n      dup5\n        /* \"#utility.yul\":401:404   */\n      dup3\n        /* \"#utility.yul\":396:399   */\n      dup6\n        /* \"#utility.yul\":372:413   */\n      tag_191\n      jump\t// in\n    tag_190:\n        /* \"#utility.yul\":91:419   */\n      pop\n        /* \"#utility.yul\":7:419   */\n      swap4\n      swap3\n      pop\n      pop\n      pop\n      jump\t// out\n        /* \"#utility.yul\":425:564   */\n    tag_192:\n        /* \"#utility.yul\":471:476   */\n      0x00\n        /* \"#utility.yul\":509:515   */\n      dup2\n        /* \"#utility.yul\":496:516   */\n      calldataload\n        /* \"#utility.yul\":487:516   */\n      swap1\n      pop\n        /* \"#utility.yul\":525:558   */\n      tag_194\n        /* \"#utility.yul\":552:557   */\n      dup2\n        /* \"#utility.yul\":525:558   */\n      tag_195\n      jump\t// in\n    tag_194:\n        /* \"#utility.yul\":425:564   */\n      swap3\n      swap2\n      pop\n      pop\n      jump\t// out\n        /* \"#utility.yul\":570:739   */\n    tag_196:\n        /* \"#utility.yul\":631:636   */\n      0x00\n        /* \"#utility.yul\":669:675   */\n      dup2\n        /* \"#utility.yul\":656:676   */\n      calldataload\n        /* \"#utility.yul\":647:676   */\n      swap1\n      pop\n        /* \"#utility.yul\":685:733   */\n      tag_198\n        /* \"#utility.yul\":727:732   */\n      dup2\n        /* \"#utility.yul\":685:733   */\n      tag_199\n      jump\t// in\n    tag_198:\n        /* \"#utility.yul\":570:739   */\n      swap3\n      swap2\n      pop\n      pop\n      jump\t// out\n        /* \"#utility.yul\":759:1099   */\n    tag_200:\n        /* \"#utility.yul\":815:820   */\n      0x00\n        /* \"#utility.yul\":864:867   */\n      dup3\n        /* \"#utility.yul\":857:861   */\n      0x1f\n        /* \"#utility.yul\":849:855   */\n      dup4\n        /* \"#utility.yul\":845:862   */\n      add\n        /* \"#utility.yul\":841:868   */\n      slt\n        /* \"#utility.yul\":831:953   */\n      tag_202\n      jumpi\n        /* \"#utility.yul\":872:951   */\n      tag_203\n      tag_204\n      jump\t// in\n    tag_203:\n        /* \"#utility.yul\":831:953   */\n    tag_202:\n        /* \"#utility.yul\":989:995   */\n      dup2\n        /* \"#utility.yul\":976:996   */\n      calldataload\n        /* \"#utility.yul\":1014:1093   */\n      tag_205\n        /* \"#utility.yul\":1089:1092   */\n      dup5\n        /* \"#utility.yul\":1081:1087   */\n      dup3\n        /* \"#utility.yul\":1074:1078   */\n      0x20\n        /* \"#utility.yul\":1066:1072   */\n      dup7\n        /* \"#utility.yul\":1062:1079   */\n      add\n        /* \"#utility.yul\":1014:1093   */\n      tag_181\n      jump\t// in\n    tag_205:\n        /* \"#utility.yul\":1005:1093   */\n      swap2\n      pop\n        /* \"#utility.yul\":821:1099   */\n      pop\n        /* \"#utility.yul\":759:1099   */\n      swap3\n      swap2\n      pop\n      pop\n      jump\t// out\n        /* \"#utility.yul\":1105:1244   */\n    tag_206:\n        /* \"#utility.yul\":1151:1156   */\n      0x00\n        /* \"#utility.yul\":1189:1195   */\n      dup2\n        /* \"#utility.yul\":1176:1196   */\n      calldataload\n        /* \"#utility.yul\":1167:1196   */\n      swap1\n      pop\n        /* \"#utility.yul\":1205:1238   */\n      tag_208\n        /* \"#utility.yul\":1232:1237   */\n      dup2\n        /* \"#utility.yul\":1205:1238   */\n      tag_209\n      jump\t// in\n    tag_208:\n        /* \"#utility.yul\":1105:1244   */\n      swap3\n      swap2\n      pop\n      pop\n      jump\t// out\n        /* \"#utility.yul\":1250:1387   */\n    tag_210:\n        /* \"#utility.yul\":1295:1300   */\n      0x00\n        /* \"#utility.yul\":1333:1339   */\n      dup2\n        /* \"#utility.yul\":1320:1340   */\n      calldataload\n        /* \"#utility.yul\":1311:1340   */\n      swap1\n      pop\n        /* \"#utility.yul\":1349:1381   */\n      tag_212\n        /* \"#utility.yul\":1375:1380   */\n      dup2\n        /* \"#utility.yul\":1349:1381   */\n      tag_213\n      jump\t// in\n    tag_212:\n        /* \"#utility.yul\":1250:1387   */\n      swap3\n      swap2\n      pop\n      pop\n      jump\t// out\n        /* \"#utility.yul\":1393:1528   */\n    tag_214:\n        /* \"#utility.yul\":1437:1442   */\n      0x00\n        /* \"#utility.yul\":1475:1481   */\n      dup2\n        /* \"#utility.yul\":1462:1482   */\n      calldataload\n        /* \"#utility.yul\":1453:1482   */\n      swap1\n      pop\n        /* \"#utility.yul\":1491:1522   */\n      tag_216\n        /* \"#utility.yul\":1516:1521   */\n      dup2\n        /* \"#utility.yul\":1491:1522   */\n      tag_217\n      jump\t// in\n    tag_216:\n        /* \"#utility.yul\":1393:1528   */\n      swap3\n      swap2\n      pop\n      pop\n      jump\t// out\n        /* \"#utility.yul\":1534:1863   */\n    tag_26:\n        /* \"#utility.yul\":1593:1599   */\n      0x00\n        /* \"#utility.yul\":1642:1644   */\n      0x20\n        /* \"#utility.yul\":1630:1639   */\n      dup3\n        /* \"#utility.yul\":1621:1628   */\n      dup5\n        /* \"#utility.yul\":1617:1640   */\n      sub\n        /* \"#utility.yul\":1613:1645   */\n      slt\n        /* \"#utility.yul\":1610:1729   */\n      iszero\n      tag_219\n      jumpi\n        /* \"#utility.yul\":1648:1727   */\n      tag_220\n      tag_221\n      jump\t// in\n    tag_220:\n        /* \"#utility.yul\":1610:1729   */\n    tag_219:\n        /* \"#utility.yul\":1768:1769   */\n      0x00\n        /* \"#utility.yul\":1793:1846   */\n      tag_222\n        /* \"#utility.yul\":1838:1845   */\n      dup5\n        /* \"#utility.yul\":1829:1835   */\n      dup3\n        /* \"#utility.yul\":1818:1827   */\n      dup6\n        /* \"#utility.yul\":1814:1836   */\n      add\n        /* \"#utility.yul\":1793:1846   */\n      tag_192\n      jump\t// in\n    tag_222:\n        /* \"#utility.yul\":1783:1846   */\n      swap2\n      pop\n        /* \"#utility.yul\":1739:1856   */\n      pop\n        /* \"#utility.yul\":1534:1863   */\n      swap3\n      swap2\n      pop\n      pop\n      jump\t// out\n        /* \"#utility.yul\":1869:3708   */\n    tag_68:\n        /* \"#utility.yul\":2028:2034   */\n      0x00\n        /* \"#utility.yul\":2036:2042   */\n      dup1\n        /* \"#utility.yul\":2044:2050   */\n      0x00\n        /* \"#utility.yul\":2052:2058   */\n      dup1\n        /* \"#utility.yul\":2060:2066   */\n      0x00\n        /* \"#utility.yul\":2068:2074   */\n      dup1\n        /* \"#utility.yul\":2076:2082   */\n      0x00\n        /* \"#utility.yul\":2084:2090   */\n      dup1\n        /* \"#utility.yul\":2092:2098   */\n      0x00\n        /* \"#utility.yul\":2100:2106   */\n      dup1\n        /* \"#utility.yul\":2149:2152   */\n      0x0140\n        /* \"#utility.yul\":2137:2146   */\n      dup12\n        /* \"#utility.yul\":2128:2135   */\n      dup14\n        /* \"#utility.yul\":2124:2147   */\n      sub\n        /* \"#utility.yul\":2120:2153   */\n      slt\n        /* \"#utility.yul\":2117:2237   */\n      iszero\n      tag_224\n      jumpi\n        /* \"#utility.yul\":2156:2235   */\n      tag_225\n      tag_221\n      jump\t// in\n    tag_225:\n        /* \"#utility.yul\":2117:2237   */\n    tag_224:\n        /* \"#utility.yul\":2276:2277   */\n      0x00\n        /* \"#utility.yul\":2301:2354   */\n      tag_226\n        /* \"#utility.yul\":2346:2353   */\n      dup14\n        /* \"#utility.yul\":2337:2343   */\n      dup3\n        /* \"#utility.yul\":2326:2335   */\n      dup15\n        /* \"#utility.yul\":2322:2344   */\n      add\n        /* \"#utility.yul\":2301:2354   */\n      tag_192\n      jump\t// in\n    tag_226:\n        /* \"#utility.yul\":2291:2354   */\n      swap11\n      pop\n        /* \"#utility.yul\":2247:2364   */\n      pop\n        /* \"#utility.yul\":2403:2405   */\n      0x20\n        /* \"#utility.yul\":2429:2482   */\n      tag_227\n        /* \"#utility.yul\":2474:2481   */\n      dup14\n        /* \"#utility.yul\":2465:2471   */\n      dup3\n        /* \"#utility.yul\":2454:2463   */\n      dup15\n        /* \"#utility.yul\":2450:2472   */\n      add\n        /* \"#utility.yul\":2429:2482   */\n      tag_192\n      jump\t// in\n    tag_227:\n        /* \"#utility.yul\":2419:2482   */\n      swap10\n      pop\n        /* \"#utility.yul\":2374:2492   */\n      pop\n        /* \"#utility.yul\":2531:2533   */\n      0x40\n        /* \"#utility.yul\":2557:2609   */\n      tag_228\n        /* \"#utility.yul\":2601:2608   */\n      dup14\n        /* \"#utility.yul\":2592:2598   */\n      dup3\n        /* \"#utility.yul\":2581:2590   */\n      dup15\n        /* \"#utility.yul\":2577:2599   */\n      add\n        /* \"#utility.yul\":2557:2609   */\n      tag_210\n      jump\t// in\n    tag_228:\n        /* \"#utility.yul\":2547:2609   */\n      swap9\n      pop\n        /* \"#utility.yul\":2502:2619   */\n      pop\n        /* \"#utility.yul\":2658:2660   */\n      0x60\n        /* \"#utility.yul\":2684:2735   */\n      tag_229\n        /* \"#utility.yul\":2727:2734   */\n      dup14\n        /* \"#utility.yul\":2718:2724   */\n      dup3\n        /* \"#utility.yul\":2707:2716   */\n      dup15\n        /* \"#utility.yul\":2703:2725   */\n      add\n        /* \"#utility.yul\":2684:2735   */\n      tag_214\n      jump\t// in\n    tag_229:\n        /* \"#utility.yul\":2674:2735   */\n      swap8\n      pop\n        /* \"#utility.yul\":2629:2745   */\n      pop\n        /* \"#utility.yul\":2784:2787   */\n      0x80\n        /* \"#utility.yul\":2811:2879   */\n      tag_230\n        /* \"#utility.yul\":2871:2878   */\n      dup14\n        /* \"#utility.yul\":2862:2868   */\n      dup3\n        /* \"#utility.yul\":2851:2860   */\n      dup15\n        /* \"#utility.yul\":2847:2869   */\n      add\n        /* \"#utility.yul\":2811:2879   */\n      tag_196\n      jump\t// in\n    tag_230:\n        /* \"#utility.yul\":2801:2879   */\n      swap7\n      pop\n        /* \"#utility.yul\":2755:2889   */\n      pop\n        /* \"#utility.yul\":2956:2959   */\n      0xa0\n        /* \"#utility.yul\":2945:2954   */\n      dup12\n        /* \"#utility.yul\":2941:2960   */\n      add\n        /* \"#utility.yul\":2928:2961   */\n      calldataload\n        /* \"#utility.yul\":2988:3006   */\n      0xffffffffffffffff\n        /* \"#utility.yul\":2980:2986   */\n      dup2\n        /* \"#utility.yul\":2977:3007   */\n      gt\n        /* \"#utility.yul\":2974:3091   */\n      iszero\n      tag_231\n      jumpi\n        /* \"#utility.yul\":3010:3089   */\n      tag_232\n      tag_233\n      jump\t// in\n    tag_232:\n        /* \"#utility.yul\":2974:3091   */\n    tag_231:\n        /* \"#utility.yul\":3115:3178   */\n      tag_234\n        /* \"#utility.yul\":3170:3177   */\n      dup14\n        /* \"#utility.yul\":3161:3167   */\n      dup3\n        /* \"#utility.yul\":3150:3159   */\n      dup15\n        /* \"#utility.yul\":3146:3168   */\n      add\n        /* \"#utility.yul\":3115:3178   */\n      tag_200\n      jump\t// in\n    tag_234:\n        /* \"#utility.yul\":3105:3178   */\n      swap6\n      pop\n        /* \"#utility.yul\":2899:3188   */\n      pop\n        /* \"#utility.yul\":3227:3230   */\n      0xc0\n        /* \"#utility.yul\":3254:3307   */\n      tag_235\n        /* \"#utility.yul\":3299:3306   */\n      dup14\n        /* \"#utility.yul\":3290:3296   */\n      dup3\n        /* \"#utility.yul\":3279:3288   */\n      dup15\n        /* \"#utility.yul\":3275:3297   */\n      add\n        /* \"#utility.yul\":3254:3307   */\n      tag_206\n      jump\t// in\n    tag_235:\n        /* \"#utility.yul\":3244:3307   */\n      swap5\n      pop\n        /* \"#utility.yul\":3198:3317   */\n      pop\n        /* \"#utility.yul\":3356:3359   */\n      0xe0\n        /* \"#utility.yul\":3383:3436   */\n      tag_236\n        /* \"#utility.yul\":3428:3435   */\n      dup14\n        /* \"#utility.yul\":3419:3425   */\n      dup3\n        /* \"#utility.yul\":3408:3417   */\n      dup15\n        /* \"#utility.yul\":3404:3426   */\n      add\n        /* \"#utility.yul\":3383:3436   */\n      tag_206\n      jump\t// in\n    tag_236:\n        /* \"#utility.yul\":3373:3436   */\n      swap4\n      pop\n        /* \"#utility.yul\":3327:3446   */\n      pop\n        /* \"#utility.yul\":3485:3488   */\n      0x0100\n        /* \"#utility.yul\":3512:3563   */\n      tag_237\n        /* \"#utility.yul\":3555:3562   */\n      dup14\n        /* \"#utility.yul\":3546:3552   */\n      dup3\n        /* \"#utility.yul\":3535:3544   */\n      dup15\n        /* \"#utility.yul\":3531:3553   */\n      add\n        /* \"#utility.yul\":3512:3563   */\n      tag_214\n      jump\t// in\n    tag_237:\n        /* \"#utility.yul\":3502:3563   */\n      swap3\n      pop\n        /* \"#utility.yul\":3456:3573   */\n      pop\n        /* \"#utility.yul\":3612:3615   */\n      0x0120\n        /* \"#utility.yul\":3639:3691   */\n      tag_238\n        /* \"#utility.yul\":3683:3690   */\n      dup14\n        /* \"#utility.yul\":3674:3680   */\n      dup3\n        /* \"#utility.yul\":3663:3672   */\n      dup15\n        /* \"#utility.yul\":3659:3681   */\n      add\n        /* \"#utility.yul\":3639:3691   */\n      tag_210\n      jump\t// in\n    tag_238:\n        /* \"#utility.yul\":3629:3691   */\n      swap2\n      pop\n        /* \"#utility.yul\":3583:3701   */\n      pop\n        /* \"#utility.yul\":1869:3708   */\n      swap3\n      swap6\n      swap9\n      swap12\n      swap2\n      swap5\n      swap8\n      swap11\n      pop\n      swap3\n      swap6\n      swap9\n      pop\n      jump\t// out\n        /* \"#utility.yul\":3714:4188   */\n    tag_20:\n        /* \"#utility.yul\":3782:3788   */\n      0x00\n        /* \"#utility.yul\":3790:3796   */\n      dup1\n        /* \"#utility.yul\":3839:3841   */\n      0x40\n        /* \"#utility.yul\":3827:3836   */\n      dup4\n        /* \"#utility.yul\":3818:3825   */\n      dup6\n        /* \"#utility.yul\":3814:3837   */\n      sub\n        /* \"#utility.yul\":3810:3842   */\n      slt\n        /* \"#utility.yul\":3807:3926   */\n      iszero\n      tag_240\n      jumpi\n        /* \"#utility.yul\":3845:3924   */\n      tag_241\n      tag_221\n      jump\t// in\n    tag_241:\n        /* \"#utility.yul\":3807:3926   */\n    tag_240:\n        /* \"#utility.yul\":3965:3966   */\n      0x00\n        /* \"#utility.yul\":3990:4043   */\n      tag_242\n        /* \"#utility.yul\":4035:4042   */\n      dup6\n        /* \"#utility.yul\":4026:4032   */\n      dup3\n        /* \"#utility.yul\":4015:4024   */\n      dup7\n        /* \"#utility.yul\":4011:4033   */\n      add\n        /* \"#utility.yul\":3990:4043   */\n      tag_192\n      jump\t// in\n    tag_242:\n        /* \"#utility.yul\":3980:4043   */\n      swap3\n      pop\n        /* \"#utility.yul\":3936:4053   */\n      pop\n        /* \"#utility.yul\":4092:4094   */\n      0x20\n        /* \"#utility.yul\":4118:4171   */\n      tag_243\n        /* \"#utility.yul\":4163:4170   */\n      dup6\n        /* \"#utility.yul\":4154:4160   */\n      dup3\n        /* \"#utility.yul\":4143:4152   */\n      dup7\n        /* \"#utility.yul\":4139:4161   */\n      add\n        /* \"#utility.yul\":4118:4171   */\n      tag_206\n      jump\t// in\n    tag_243:\n        /* \"#utility.yul\":4108:4171   */\n      swap2\n      pop\n        /* \"#utility.yul\":4063:4181   */\n      pop\n        /* \"#utility.yul\":3714:4188   */\n      swap3\n      pop\n      swap3\n      swap1\n      pop\n      jump\t// out\n        /* \"#utility.yul\":4194:6181   */\n    tag_45:\n        /* \"#utility.yul\":4362:4368   */\n      0x00\n        /* \"#utility.yul\":4370:4376   */\n      dup1\n        /* \"#utility.yul\":4378:4384   */\n      0x00\n        /* \"#utility.yul\":4386:4392   */\n      dup1\n        /* \"#utility.yul\":4394:4400   */\n      0x00\n        /* \"#utility.yul\":4402:4408   */\n      dup1\n        /* \"#utility.yul\":4410:4416   */\n      0x00\n        /* \"#utility.yul\":4418:4424   */\n      dup1\n        /* \"#utility.yul\":4426:4432   */\n      0x00\n        /* \"#utility.yul\":4434:4440   */\n      dup1\n        /* \"#utility.yul\":4442:4449   */\n      0x00\n        /* \"#utility.yul\":4492:4495   */\n      0x0160\n        /* \"#utility.yul\":4480:4489   */\n      dup13\n        /* \"#utility.yul\":4471:4478   */\n      dup15\n        /* \"#utility.yul\":4467:4490   */\n      sub\n        /* \"#utility.yul\":4463:4496   */\n      slt\n        /* \"#utility.yul\":4460:4580   */\n      iszero\n      tag_245\n      jumpi\n        /* \"#utility.yul\":4499:4578   */\n      tag_246\n      tag_221\n      jump\t// in\n    tag_246:\n        /* \"#utility.yul\":4460:4580   */\n    tag_245:\n        /* \"#utility.yul\":4619:4620   */\n      0x00\n        /* \"#utility.yul\":4644:4697   */\n      tag_247\n        /* \"#utility.yul\":4689:4696   */\n      dup15\n        /* \"#utility.yul\":4680:4686   */\n      dup3\n        /* \"#utility.yul\":4669:4678   */\n      dup16\n        /* \"#utility.yul\":4665:4687   */\n      add\n        /* \"#utility.yul\":4644:4697   */\n      tag_192\n      jump\t// in\n    tag_247:\n        /* \"#utility.yul\":4634:4697   */\n      swap12\n      pop\n        /* \"#utility.yul\":4590:4707   */\n      pop\n        /* \"#utility.yul\":4746:4748   */\n      0x20\n        /* \"#utility.yul\":4772:4825   */\n      tag_248\n        /* \"#utility.yul\":4817:4824   */\n      dup15\n        /* \"#utility.yul\":4808:4814   */\n      dup3\n        /* \"#utility.yul\":4797:4806   */\n      dup16\n        /* \"#utility.yul\":4793:4815   */\n      add\n        /* \"#utility.yul\":4772:4825   */\n      tag_206\n      jump\t// in\n    tag_248:\n        /* \"#utility.yul\":4762:4825   */\n      swap11\n      pop\n        /* \"#utility.yul\":4717:4835   */\n      pop\n        /* \"#utility.yul\":4874:4876   */\n      0x40\n        /* \"#utility.yul\":4900:4953   */\n      tag_249\n        /* \"#utility.yul\":4945:4952   */\n      dup15\n        /* \"#utility.yul\":4936:4942   */\n      dup3\n        /* \"#utility.yul\":4925:4934   */\n      dup16\n        /* \"#utility.yul\":4921:4943   */\n      add\n        /* \"#utility.yul\":4900:4953   */\n      tag_192\n      jump\t// in\n    tag_249:\n        /* \"#utility.yul\":4890:4953   */\n      swap10\n      pop\n        /* \"#utility.yul\":4845:4963   */\n      pop\n        /* \"#utility.yul\":5002:5004   */\n      0x60\n        /* \"#utility.yul\":5028:5080   */\n      tag_250\n        /* \"#utility.yul\":5072:5079   */\n      dup15\n        /* \"#utility.yul\":5063:5069   */\n      dup3\n        /* \"#utility.yul\":5052:5061   */\n      dup16\n        /* \"#utility.yul\":5048:5070   */\n      add\n        /* \"#utility.yul\":5028:5080   */\n      tag_210\n      jump\t// in\n    tag_250:\n        /* \"#utility.yul\":5018:5080   */\n      swap9\n      pop\n        /* \"#utility.yul\":4973:5090   */\n      pop\n        /* \"#utility.yul\":5129:5132   */\n      0x80\n        /* \"#utility.yul\":5156:5207   */\n      tag_251\n        /* \"#utility.yul\":5199:5206   */\n      dup15\n        /* \"#utility.yul\":5190:5196   */\n      dup3\n        /* \"#utility.yul\":5179:5188   */\n      dup16\n        /* \"#utility.yul\":5175:5197   */\n      add\n        /* \"#utility.yul\":5156:5207   */\n      tag_214\n      jump\t// in\n    tag_251:\n        /* \"#utility.yul\":5146:5207   */\n      swap8\n      pop\n        /* \"#utility.yul\":5100:5217   */\n      pop\n        /* \"#utility.yul\":5256:5259   */\n      0xa0\n        /* \"#utility.yul\":5283:5351   */\n      tag_252\n        /* \"#utility.yul\":5343:5350   */\n      dup15\n        /* \"#utility.yul\":5334:5340   */\n      dup3\n        /* \"#utility.yul\":5323:5332   */\n      dup16\n        /* \"#utility.yul\":5319:5341   */\n      add\n        /* \"#utility.yul\":5283:5351   */\n      tag_196\n      jump\t// in\n    tag_252:\n        /* \"#utility.yul\":5273:5351   */\n      swap7\n      pop\n        /* \"#utility.yul\":5227:5361   */\n      pop\n        /* \"#utility.yul\":5428:5431   */\n      0xc0\n        /* \"#utility.yul\":5417:5426   */\n      dup13\n        /* \"#utility.yul\":5413:5432   */\n      add\n        /* \"#utility.yul\":5400:5433   */\n      calldataload\n        /* \"#utility.yul\":5460:5478   */\n      0xffffffffffffffff\n        /* \"#utility.yul\":5452:5458   */\n      dup2\n        /* \"#utility.yul\":5449:5479   */\n      gt\n        /* \"#utility.yul\":5446:5563   */\n      iszero\n      tag_253\n      jumpi\n        /* \"#utility.yul\":5482:5561   */\n      tag_254\n      tag_233\n      jump\t// in\n    tag_254:\n        /* \"#utility.yul\":5446:5563   */\n    tag_253:\n        /* \"#utility.yul\":5587:5650   */\n      tag_255\n        /* \"#utility.yul\":5642:5649   */\n      dup15\n        /* \"#utility.yul\":5633:5639   */\n      dup3\n        /* \"#utility.yul\":5622:5631   */\n      dup16\n        /* \"#utility.yul\":5618:5640   */\n      add\n        /* \"#utility.yul\":5587:5650   */\n      tag_200\n      jump\t// in\n    tag_255:\n        /* \"#utility.yul\":5577:5650   */\n      swap6\n      pop\n        /* \"#utility.yul\":5371:5660   */\n      pop\n        /* \"#utility.yul\":5699:5702   */\n      0xe0\n        /* \"#utility.yul\":5726:5779   */\n      tag_256\n        /* \"#utility.yul\":5771:5778   */\n      dup15\n        /* \"#utility.yul\":5762:5768   */\n      dup3\n        /* \"#utility.yul\":5751:5760   */\n      dup16\n        /* \"#utility.yul\":5747:5769   */\n      add\n        /* \"#utility.yul\":5726:5779   */\n      tag_206\n      jump\t// in\n    tag_256:\n        /* \"#utility.yul\":5716:5779   */\n      swap5\n      pop\n        /* \"#utility.yul\":5670:5789   */\n      pop\n        /* \"#utility.yul\":5828:5831   */\n      0x0100\n        /* \"#utility.yul\":5855:5908   */\n      tag_257\n        /* \"#utility.yul\":5900:5907   */\n      dup15\n        /* \"#utility.yul\":5891:5897   */\n      dup3\n        /* \"#utility.yul\":5880:5889   */\n      dup16\n        /* \"#utility.yul\":5876:5898   */\n      add\n        /* \"#utility.yul\":5855:5908   */\n      tag_206\n      jump\t// in\n    tag_257:\n        /* \"#utility.yul\":5845:5908   */\n      swap4\n      pop\n        /* \"#utility.yul\":5799:5918   */\n      pop\n        /* \"#utility.yul\":5957:5960   */\n      0x0120\n        /* \"#utility.yul\":5984:6035   */\n      tag_258\n        /* \"#utility.yul\":6027:6034   */\n      dup15\n        /* \"#utility.yul\":6018:6024   */\n      dup3\n        /* \"#utility.yul\":6007:6016   */\n      dup16\n        /* \"#utility.yul\":6003:6025   */\n      add\n        /* \"#utility.yul\":5984:6035   */\n      tag_214\n      jump\t// in\n    tag_258:\n        /* \"#utility.yul\":5974:6035   */\n      swap3\n      pop\n        /* \"#utility.yul\":5928:6045   */\n      pop\n        /* \"#utility.yul\":6084:6087   */\n      0x0140\n        /* \"#utility.yul\":6112:6164   */\n      tag_259\n        /* \"#utility.yul\":6156:6163   */\n      dup15\n        /* \"#utility.yul\":6147:6153   */\n      dup3\n        /* \"#utility.yul\":6136:6145   */\n      dup16\n        /* \"#utility.yul\":6132:6154   */\n      add\n        /* \"#utility.yul\":6112:6164   */\n      tag_210\n      jump\t// in\n    tag_259:\n        /* \"#utility.yul\":6101:6164   */\n      swap2\n      pop\n        /* \"#utility.yul\":6055:6174   */\n      pop\n        /* \"#utility.yul\":4194:6181   */\n      swap3\n      swap6\n      swap9\n      swap12\n      pop\n      swap3\n      swap6\n      swap9\n      swap12\n      swap1\n      swap4\n      swap7\n      swap10\n      pop\n      jump\t// out\n        /* \"#utility.yul\":6187:6514   */\n    tag_59:\n        /* \"#utility.yul\":6245:6251   */\n      0x00\n        /* \"#utility.yul\":6294:6296   */\n      0x20\n        /* \"#utility.yul\":6282:6291   */\n      dup3\n        /* \"#utility.yul\":6273:6280   */\n      dup5\n        /* \"#utility.yul\":6269:6292   */\n      sub\n        /* \"#utility.yul\":6265:6297   */\n      slt\n        /* \"#utility.yul\":6262:6381   */\n      iszero\n      tag_261\n      jumpi\n        /* \"#utility.yul\":6300:6379   */\n      tag_262\n      tag_221\n      jump\t// in\n    tag_262:\n        /* \"#utility.yul\":6262:6381   */\n    tag_261:\n        /* \"#utility.yul\":6420:6421   */\n      0x00\n        /* \"#utility.yul\":6445:6497   */\n      tag_263\n        /* \"#utility.yul\":6489:6496   */\n      dup5\n        /* \"#utility.yul\":6480:6486   */\n      dup3\n        /* \"#utility.yul\":6469:6478   */\n      dup6\n        /* \"#utility.yul\":6465:6487   */\n      add\n        /* \"#utility.yul\":6445:6497   */\n      tag_210\n      jump\t// in\n    tag_263:\n        /* \"#utility.yul\":6435:6497   */\n      swap2\n      pop\n        /* \"#utility.yul\":6391:6507   */\n      pop\n        /* \"#utility.yul\":6187:6514   */\n      swap3\n      swap2\n      pop\n      pop\n      jump\t// out\n        /* \"#utility.yul\":6520:6628   */\n    tag_264:\n        /* \"#utility.yul\":6597:6621   */\n      tag_266\n        /* \"#utility.yul\":6615:6620   */\n      dup2\n        /* \"#utility.yul\":6597:6621   */\n      tag_267\n      jump\t// in\n    tag_266:\n        /* \"#utility.yul\":6592:6595   */\n      dup3\n        /* \"#utility.yul\":6585:6622   */\n      mstore\n        /* \"#utility.yul\":6520:6628   */\n      pop\n      pop\n      jump\t// out\n        /* \"#utility.yul\":6634:6752   */\n    tag_268:\n        /* \"#utility.yul\":6721:6745   */\n      tag_270\n        /* \"#utility.yul\":6739:6744   */\n      dup2\n        /* \"#utility.yul\":6721:6745   */\n      tag_267\n      jump\t// in\n    tag_270:\n        /* \"#utility.yul\":6716:6719   */\n      dup3\n        /* \"#utility.yul\":6709:6746   */\n      mstore\n        /* \"#utility.yul\":6634:6752   */\n      pop\n      pop\n      jump\t// out\n        /* \"#utility.yul\":6758:6867   */\n    tag_271:\n        /* \"#utility.yul\":6839:6860   */\n      tag_273\n        /* \"#utility.yul\":6854:6859   */\n      dup2\n        /* \"#utility.yul\":6839:6860   */\n      tag_274\n      jump\t// in\n    tag_273:\n        /* \"#utility.yul\":6834:6837   */\n      dup3\n        /* \"#utility.yul\":6827:6861   */\n      mstore\n        /* \"#utility.yul\":6758:6867   */\n      pop\n      pop\n      jump\t// out\n        /* \"#utility.yul\":6873:7030   */\n    tag_275:\n        /* \"#utility.yul\":6973:7023   */\n      tag_277\n        /* \"#utility.yul\":7017:7022   */\n      dup2\n        /* \"#utility.yul\":6973:7023   */\n      tag_278\n      jump\t// in\n    tag_277:\n        /* \"#utility.yul\":6968:6971   */\n      dup3\n        /* \"#utility.yul\":6961:7024   */\n      mstore\n        /* \"#utility.yul\":6873:7030   */\n      pop\n      pop\n      jump\t// out\n        /* \"#utility.yul\":7036:7177   */\n    tag_279:\n        /* \"#utility.yul\":7123:7170   */\n      tag_281\n        /* \"#utility.yul\":7164:7169   */\n      dup2\n        /* \"#utility.yul\":7123:7170   */\n      tag_282\n      jump\t// in\n    tag_281:\n        /* \"#utility.yul\":7118:7121   */\n      dup3\n        /* \"#utility.yul\":7111:7171   */\n      mstore\n        /* \"#utility.yul\":7036:7177   */\n      pop\n      pop\n      jump\t// out\n        /* \"#utility.yul\":7183:7326   */\n    tag_283:\n        /* \"#utility.yul\":7276:7319   */\n      tag_285\n        /* \"#utility.yul\":7313:7318   */\n      dup2\n        /* \"#utility.yul\":7276:7319   */\n      tag_286\n      jump\t// in\n    tag_285:\n        /* \"#utility.yul\":7271:7274   */\n      dup3\n        /* \"#utility.yul\":7264:7320   */\n      mstore\n        /* \"#utility.yul\":7183:7326   */\n      pop\n      pop\n      jump\t// out\n        /* \"#utility.yul\":7332:7696   */\n    tag_287:\n        /* \"#utility.yul\":7420:7423   */\n      0x00\n        /* \"#utility.yul\":7448:7487   */\n      tag_289\n        /* \"#utility.yul\":7481:7486   */\n      dup3\n        /* \"#utility.yul\":7448:7487   */\n      tag_290\n      jump\t// in\n    tag_289:\n        /* \"#utility.yul\":7503:7574   */\n      tag_291\n        /* \"#utility.yul\":7567:7573   */\n      dup2\n        /* \"#utility.yul\":7562:7565   */\n      dup6\n        /* \"#utility.yul\":7503:7574   */\n      tag_292\n      jump\t// in\n    tag_291:\n        /* \"#utility.yul\":7496:7574   */\n      swap4\n      pop\n        /* \"#utility.yul\":7583:7635   */\n      tag_293\n        /* \"#utility.yul\":7628:7634   */\n      dup2\n        /* \"#utility.yul\":7623:7626   */\n      dup6\n        /* \"#utility.yul\":7616:7620   */\n      0x20\n        /* \"#utility.yul\":7609:7614   */\n      dup7\n        /* \"#utility.yul\":7605:7621   */\n      add\n        /* \"#utility.yul\":7583:7635   */\n      tag_294\n      jump\t// in\n    tag_293:\n        /* \"#utility.yul\":7660:7689   */\n      tag_295\n        /* \"#utility.yul\":7682:7688   */\n      dup2\n        /* \"#utility.yul\":7660:7689   */\n      tag_296\n      jump\t// in\n    tag_295:\n        /* \"#utility.yul\":7655:7658   */\n      dup5\n        /* \"#utility.yul\":7651:7690   */\n      add\n        /* \"#utility.yul\":7644:7690   */\n      swap2\n      pop\n        /* \"#utility.yul\":7424:7696   */\n      pop\n        /* \"#utility.yul\":7332:7696   */\n      swap3\n      swap2\n      pop\n      pop\n      jump\t// out\n        /* \"#utility.yul\":7702:8068   */\n    tag_297:\n        /* \"#utility.yul\":7844:7847   */\n      0x00\n        /* \"#utility.yul\":7865:7932   */\n      tag_299\n        /* \"#utility.yul\":7929:7931   */\n      0x12\n        /* \"#utility.yul\":7924:7927   */\n      dup4\n        /* \"#utility.yul\":7865:7932   */\n      tag_292\n      jump\t// in\n    tag_299:\n        /* \"#utility.yul\":7858:7932   */\n      swap2\n      pop\n        /* \"#utility.yul\":7941:8034   */\n      tag_300\n        /* \"#utility.yul\":8030:8033   */\n      dup3\n        /* \"#utility.yul\":7941:8034   */\n      tag_301\n      jump\t// in\n    tag_300:\n        /* \"#utility.yul\":8059:8061   */\n      0x20\n        /* \"#utility.yul\":8054:8057   */\n      dup3\n        /* \"#utility.yul\":8050:8062   */\n      add\n        /* \"#utility.yul\":8043:8062   */\n      swap1\n      pop\n        /* \"#utility.yul\":7702:8068   */\n      swap2\n      swap1\n      pop\n      jump\t// out\n        /* \"#utility.yul\":8074:8440   */\n    tag_302:\n        /* \"#utility.yul\":8216:8219   */\n      0x00\n        /* \"#utility.yul\":8237:8304   */\n      tag_304\n        /* \"#utility.yul\":8301:8303   */\n      0x20\n        /* \"#utility.yul\":8296:8299   */\n      dup4\n        /* \"#utility.yul\":8237:8304   */\n      tag_292\n      jump\t// in\n    tag_304:\n        /* \"#utility.yul\":8230:8304   */\n      swap2\n      pop\n        /* \"#utility.yul\":8313:8406   */\n      tag_305\n        /* \"#utility.yul\":8402:8405   */\n      dup3\n        /* \"#utility.yul\":8313:8406   */\n      tag_306\n      jump\t// in\n    tag_305:\n        /* \"#utility.yul\":8431:8433   */\n      0x20\n        /* \"#utility.yul\":8426:8429   */\n      dup3\n        /* \"#utility.yul\":8422:8434   */\n      add\n        /* \"#utility.yul\":8415:8434   */\n      swap1\n      pop\n        /* \"#utility.yul\":8074:8440   */\n      swap2\n      swap1\n      pop\n      jump\t// out\n        /* \"#utility.yul\":8506:9190   */\n    tag_307:\n        /* \"#utility.yul\":8643:8647   */\n      0x60\n        /* \"#utility.yul\":8638:8641   */\n      dup3\n        /* \"#utility.yul\":8634:8648   */\n      add\n        /* \"#utility.yul\":8731:8735   */\n      0x00\n        /* \"#utility.yul\":8724:8729   */\n      dup3\n        /* \"#utility.yul\":8720:8736   */\n      add\n        /* \"#utility.yul\":8714:8737   */\n      mload\n        /* \"#utility.yul\":8750:8813   */\n      tag_309\n        /* \"#utility.yul\":8807:8811   */\n      0x00\n        /* \"#utility.yul\":8802:8805   */\n      dup6\n        /* \"#utility.yul\":8798:8812   */\n      add\n        /* \"#utility.yul\":8784:8796   */\n      dup3\n        /* \"#utility.yul\":8750:8813   */\n      tag_310\n      jump\t// in\n    tag_309:\n        /* \"#utility.yul\":8658:8823   */\n      pop\n        /* \"#utility.yul\":8906:8910   */\n      0x20\n        /* \"#utility.yul\":8899:8904   */\n      dup3\n        /* \"#utility.yul\":8895:8911   */\n      add\n        /* \"#utility.yul\":8889:8912   */\n      mload\n        /* \"#utility.yul\":8925:8988   */\n      tag_311\n        /* \"#utility.yul\":8982:8986   */\n      0x20\n        /* \"#utility.yul\":8977:8980   */\n      dup6\n        /* \"#utility.yul\":8973:8987   */\n      add\n        /* \"#utility.yul\":8959:8971   */\n      dup3\n        /* \"#utility.yul\":8925:8988   */\n      tag_264\n      jump\t// in\n    tag_311:\n        /* \"#utility.yul\":8833:8998   */\n      pop\n        /* \"#utility.yul\":9081:9085   */\n      0x40\n        /* \"#utility.yul\":9074:9079   */\n      dup3\n        /* \"#utility.yul\":9070:9086   */\n      add\n        /* \"#utility.yul\":9064:9087   */\n      mload\n        /* \"#utility.yul\":9100:9173   */\n      tag_312\n        /* \"#utility.yul\":9167:9171   */\n      0x40\n        /* \"#utility.yul\":9162:9165   */\n      dup6\n        /* \"#utility.yul\":9158:9172   */\n      add\n        /* \"#utility.yul\":9144:9156   */\n      dup3\n        /* \"#utility.yul\":9100:9173   */\n      tag_279\n      jump\t// in\n    tag_312:\n        /* \"#utility.yul\":9008:9183   */\n      pop\n        /* \"#utility.yul\":8612:9190   */\n      pop\n        /* \"#utility.yul\":8506:9190   */\n      pop\n      pop\n      jump\t// out\n        /* \"#utility.yul\":9196:9311   */\n    tag_313:\n        /* \"#utility.yul\":9281:9304   */\n      tag_315\n        /* \"#utility.yul\":9298:9303   */\n      dup2\n        /* \"#utility.yul\":9281:9304   */\n      tag_316\n      jump\t// in\n    tag_315:\n        /* \"#utility.yul\":9276:9279   */\n      dup3\n        /* \"#utility.yul\":9269:9305   */\n      mstore\n        /* \"#utility.yul\":9196:9311   */\n      pop\n      pop\n      jump\t// out\n        /* \"#utility.yul\":9317:9425   */\n    tag_310:\n        /* \"#utility.yul\":9394:9418   */\n      tag_318\n        /* \"#utility.yul\":9412:9417   */\n      dup2\n        /* \"#utility.yul\":9394:9418   */\n      tag_319\n      jump\t// in\n    tag_318:\n        /* \"#utility.yul\":9389:9392   */\n      dup3\n        /* \"#utility.yul\":9382:9419   */\n      mstore\n        /* \"#utility.yul\":9317:9425   */\n      pop\n      pop\n      jump\t// out\n        /* \"#utility.yul\":9431:9549   */\n    tag_320:\n        /* \"#utility.yul\":9518:9542   */\n      tag_322\n        /* \"#utility.yul\":9536:9541   */\n      dup2\n        /* \"#utility.yul\":9518:9542   */\n      tag_319\n      jump\t// in\n    tag_322:\n        /* \"#utility.yul\":9513:9516   */\n      dup3\n        /* \"#utility.yul\":9506:9543   */\n      mstore\n        /* \"#utility.yul\":9431:9549   */\n      pop\n      pop\n      jump\t// out\n        /* \"#utility.yul\":9555:9684   */\n    tag_323:\n        /* \"#utility.yul\":9641:9677   */\n      tag_325\n        /* \"#utility.yul\":9671:9676   */\n      dup2\n        /* \"#utility.yul\":9641:9677   */\n      tag_326\n      jump\t// in\n    tag_325:\n        /* \"#utility.yul\":9636:9639   */\n      dup3\n        /* \"#utility.yul\":9629:9678   */\n      mstore\n        /* \"#utility.yul\":9555:9684   */\n      pop\n      pop\n      jump\t// out\n        /* \"#utility.yul\":9690:9805   */\n    tag_327:\n        /* \"#utility.yul\":9775:9798   */\n      tag_329\n        /* \"#utility.yul\":9792:9797   */\n      dup2\n        /* \"#utility.yul\":9775:9798   */\n      tag_330\n      jump\t// in\n    tag_329:\n        /* \"#utility.yul\":9770:9773   */\n      dup3\n        /* \"#utility.yul\":9763:9799   */\n      mstore\n        /* \"#utility.yul\":9690:9805   */\n      pop\n      pop\n      jump\t// out\n        /* \"#utility.yul\":9811:9938   */\n    tag_331:\n        /* \"#utility.yul\":9896:9931   */\n      tag_333\n        /* \"#utility.yul\":9925:9930   */\n      dup2\n        /* \"#utility.yul\":9896:9931   */\n      tag_334\n      jump\t// in\n    tag_333:\n        /* \"#utility.yul\":9891:9894   */\n      dup3\n        /* \"#utility.yul\":9884:9932   */\n      mstore\n        /* \"#utility.yul\":9811:9938   */\n      pop\n      pop\n      jump\t// out\n        /* \"#utility.yul\":9944:10056   */\n    tag_335:\n        /* \"#utility.yul\":10027:10049   */\n      tag_337\n        /* \"#utility.yul\":10043:10048   */\n      dup2\n        /* \"#utility.yul\":10027:10049   */\n      tag_338\n      jump\t// in\n    tag_337:\n        /* \"#utility.yul\":10022:10025   */\n      dup3\n        /* \"#utility.yul\":10015:10050   */\n      mstore\n        /* \"#utility.yul\":9944:10056   */\n      pop\n      pop\n      jump\t// out\n        /* \"#utility.yul\":10062:10609   */\n    tag_128:\n        /* \"#utility.yul\":10236:10240   */\n      0x00\n        /* \"#utility.yul\":10274:10277   */\n      0x80\n        /* \"#utility.yul\":10263:10272   */\n      dup3\n        /* \"#utility.yul\":10259:10278   */\n      add\n        /* \"#utility.yul\":10251:10278   */\n      swap1\n      pop\n        /* \"#utility.yul\":10288:10359   */\n      tag_340\n        /* \"#utility.yul\":10356:10357   */\n      0x00\n        /* \"#utility.yul\":10345:10354   */\n      dup4\n        /* \"#utility.yul\":10341:10358   */\n      add\n        /* \"#utility.yul\":10332:10338   */\n      dup8\n        /* \"#utility.yul\":10288:10359   */\n      tag_268\n      jump\t// in\n    tag_340:\n        /* \"#utility.yul\":10369:10441   */\n      tag_341\n        /* \"#utility.yul\":10437:10439   */\n      0x20\n        /* \"#utility.yul\":10426:10435   */\n      dup4\n        /* \"#utility.yul\":10422:10440   */\n      add\n        /* \"#utility.yul\":10413:10419   */\n      dup7\n        /* \"#utility.yul\":10369:10441   */\n      tag_268\n      jump\t// in\n    tag_341:\n        /* \"#utility.yul\":10451:10522   */\n      tag_342\n        /* \"#utility.yul\":10518:10520   */\n      0x40\n        /* \"#utility.yul\":10507:10516   */\n      dup4\n        /* \"#utility.yul\":10503:10521   */\n      add\n        /* \"#utility.yul\":10494:10500   */\n      dup6\n        /* \"#utility.yul\":10451:10522   */\n      tag_323\n      jump\t// in\n    tag_342:\n        /* \"#utility.yul\":10532:10602   */\n      tag_343\n        /* \"#utility.yul\":10598:10600   */\n      0x60\n        /* \"#utility.yul\":10587:10596   */\n      dup4\n        /* \"#utility.yul\":10583:10601   */\n      add\n        /* \"#utility.yul\":10574:10580   */\n      dup5\n        /* \"#utility.yul\":10532:10602   */\n      tag_331\n      jump\t// in\n    tag_343:\n        /* \"#utility.yul\":10062:10609   */\n      swap6\n      swap5\n      pop\n      pop\n      pop\n      pop\n      pop\n      jump\t// out\n        /* \"#utility.yul\":10615:10825   */\n    tag_79:\n        /* \"#utility.yul\":10702:10706   */\n      0x00\n        /* \"#utility.yul\":10740:10742   */\n      0x20\n        /* \"#utility.yul\":10729:10738   */\n      dup3\n        /* \"#utility.yul\":10725:10743   */\n      add\n        /* \"#utility.yul\":10717:10743   */\n      swap1\n      pop\n        /* \"#utility.yul\":10753:10818   */\n      tag_345\n        /* \"#utility.yul\":10815:10816   */\n      0x00\n        /* \"#utility.yul\":10804:10813   */\n      dup4\n        /* \"#utility.yul\":10800:10817   */\n      add\n        /* \"#utility.yul\":10791:10797   */\n      dup5\n        /* \"#utility.yul\":10753:10818   */\n      tag_271\n      jump\t// in\n    tag_345:\n        /* \"#utility.yul\":10615:10825   */\n      swap3\n      swap2\n      pop\n      pop\n      jump\t// out\n        /* \"#utility.yul\":10831:11784   */\n    tag_74:\n        /* \"#utility.yul\":11102:11106   */\n      0x00\n        /* \"#utility.yul\":11140:11143   */\n      0xc0\n        /* \"#utility.yul\":11129:11138   */\n      dup3\n        /* \"#utility.yul\":11125:11144   */\n      add\n        /* \"#utility.yul\":11117:11144   */\n      swap1\n      pop\n        /* \"#utility.yul\":11154:11219   */\n      tag_347\n        /* \"#utility.yul\":11216:11217   */\n      0x00\n        /* \"#utility.yul\":11205:11214   */\n      dup4\n        /* \"#utility.yul\":11201:11218   */\n      add\n        /* \"#utility.yul\":11192:11198   */\n      dup10\n        /* \"#utility.yul\":11154:11219   */\n      tag_271\n      jump\t// in\n    tag_347:\n        /* \"#utility.yul\":11229:11301   */\n      tag_348\n        /* \"#utility.yul\":11297:11299   */\n      0x20\n        /* \"#utility.yul\":11286:11295   */\n      dup4\n        /* \"#utility.yul\":11282:11300   */\n      add\n        /* \"#utility.yul\":11273:11279   */\n      dup9\n        /* \"#utility.yul\":11229:11301   */\n      tag_268\n      jump\t// in\n    tag_348:\n        /* \"#utility.yul\":11311:11381   */\n      tag_349\n        /* \"#utility.yul\":11377:11379   */\n      0x40\n        /* \"#utility.yul\":11366:11375   */\n      dup4\n        /* \"#utility.yul\":11362:11380   */\n      add\n        /* \"#utility.yul\":11353:11359   */\n      dup8\n        /* \"#utility.yul\":11311:11381   */\n      tag_313\n      jump\t// in\n    tag_349:\n        /* \"#utility.yul\":11391:11469   */\n      tag_350\n        /* \"#utility.yul\":11465:11467   */\n      0x60\n        /* \"#utility.yul\":11454:11463   */\n      dup4\n        /* \"#utility.yul\":11450:11468   */\n      add\n        /* \"#utility.yul\":11441:11447   */\n      dup7\n        /* \"#utility.yul\":11391:11469   */\n      tag_283\n      jump\t// in\n    tag_350:\n        /* \"#utility.yul\":11517:11526   */\n      dup2\n        /* \"#utility.yul\":11511:11515   */\n      dup2\n        /* \"#utility.yul\":11507:11527   */\n      sub\n        /* \"#utility.yul\":11501:11504   */\n      0x80\n        /* \"#utility.yul\":11490:11499   */\n      dup4\n        /* \"#utility.yul\":11486:11505   */\n      add\n        /* \"#utility.yul\":11479:11528   */\n      mstore\n        /* \"#utility.yul\":11545:11623   */\n      tag_351\n        /* \"#utility.yul\":11618:11622   */\n      dup2\n        /* \"#utility.yul\":11609:11615   */\n      dup6\n        /* \"#utility.yul\":11545:11623   */\n      tag_287\n      jump\t// in\n    tag_351:\n        /* \"#utility.yul\":11537:11623   */\n      swap1\n      pop\n        /* \"#utility.yul\":11671:11680   */\n      dup2\n        /* \"#utility.yul\":11665:11669   */\n      dup2\n        /* \"#utility.yul\":11661:11681   */\n      sub\n        /* \"#utility.yul\":11655:11658   */\n      0xa0\n        /* \"#utility.yul\":11644:11653   */\n      dup4\n        /* \"#utility.yul\":11640:11659   */\n      add\n        /* \"#utility.yul\":11633:11682   */\n      mstore\n        /* \"#utility.yul\":11699:11777   */\n      tag_352\n        /* \"#utility.yul\":11772:11776   */\n      dup2\n        /* \"#utility.yul\":11763:11769   */\n      dup5\n        /* \"#utility.yul\":11699:11777   */\n      tag_287\n      jump\t// in\n    tag_352:\n        /* \"#utility.yul\":11691:11777   */\n      swap1\n      pop\n        /* \"#utility.yul\":10831:11784   */\n      swap8\n      swap7\n      pop\n      pop\n      pop\n      pop\n      pop\n      pop\n      pop\n      jump\t// out\n        /* \"#utility.yul\":11790:12303   */\n    tag_29:\n        /* \"#utility.yul\":11949:11953   */\n      0x00\n        /* \"#utility.yul\":11987:11989   */\n      0x60\n        /* \"#utility.yul\":11976:11985   */\n      dup3\n        /* \"#utility.yul\":11972:11990   */\n      add\n        /* \"#utility.yul\":11964:11990   */\n      swap1\n      pop\n        /* \"#utility.yul\":12000:12065   */\n      tag_354\n        /* \"#utility.yul\":12062:12063   */\n      0x00\n        /* \"#utility.yul\":12051:12060   */\n      dup4\n        /* \"#utility.yul\":12047:12064   */\n      add\n        /* \"#utility.yul\":12038:12044   */\n      dup7\n        /* \"#utility.yul\":12000:12065   */\n      tag_271\n      jump\t// in\n    tag_354:\n        /* \"#utility.yul\":12112:12121   */\n      dup2\n        /* \"#utility.yul\":12106:12110   */\n      dup2\n        /* \"#utility.yul\":12102:12122   */\n      sub\n        /* \"#utility.yul\":12097:12099   */\n      0x20\n        /* \"#utility.yul\":12086:12095   */\n      dup4\n        /* \"#utility.yul\":12082:12100   */\n      add\n        /* \"#utility.yul\":12075:12123   */\n      mstore\n        /* \"#utility.yul\":12140:12218   */\n      tag_355\n        /* \"#utility.yul\":12213:12217   */\n      dup2\n        /* \"#utility.yul\":12204:12210   */\n      dup6\n        /* \"#utility.yul\":12140:12218   */\n      tag_287\n      jump\t// in\n    tag_355:\n        /* \"#utility.yul\":12132:12218   */\n      swap1\n      pop\n        /* \"#utility.yul\":12228:12296   */\n      tag_356\n        /* \"#utility.yul\":12292:12294   */\n      0x40\n        /* \"#utility.yul\":12281:12290   */\n      dup4\n        /* \"#utility.yul\":12277:12295   */\n      add\n        /* \"#utility.yul\":12268:12274   */\n      dup5\n        /* \"#utility.yul\":12228:12296   */\n      tag_335\n      jump\t// in\n    tag_356:\n        /* \"#utility.yul\":11790:12303   */\n      swap5\n      swap4\n      pop\n      pop\n      pop\n      pop\n      jump\t// out\n        /* \"#utility.yul\":12309:12933   */\n    tag_42:\n        /* \"#utility.yul\":12496:12500   */\n      0x00\n        /* \"#utility.yul\":12534:12537   */\n      0x80\n        /* \"#utility.yul\":12523:12532   */\n      dup3\n        /* \"#utility.yul\":12519:12538   */\n      add\n        /* \"#utility.yul\":12511:12538   */\n      swap1\n      pop\n        /* \"#utility.yul\":12548:12613   */\n      tag_358\n        /* \"#utility.yul\":12610:12611   */\n      0x00\n        /* \"#utility.yul\":12599:12608   */\n      dup4\n        /* \"#utility.yul\":12595:12612   */\n      add\n        /* \"#utility.yul\":12586:12592   */\n      dup8\n        /* \"#utility.yul\":12548:12613   */\n      tag_271\n      jump\t// in\n    tag_358:\n        /* \"#utility.yul\":12623:12691   */\n      tag_359\n        /* \"#utility.yul\":12687:12689   */\n      0x20\n        /* \"#utility.yul\":12676:12685   */\n      dup4\n        /* \"#utility.yul\":12672:12690   */\n      add\n        /* \"#utility.yul\":12663:12669   */\n      dup7\n        /* \"#utility.yul\":12623:12691   */\n      tag_335\n      jump\t// in\n    tag_359:\n        /* \"#utility.yul\":12701:12773   */\n      tag_360\n        /* \"#utility.yul\":12769:12771   */\n      0x40\n        /* \"#utility.yul\":12758:12767   */\n      dup4\n        /* \"#utility.yul\":12754:12772   */\n      add\n        /* \"#utility.yul\":12745:12751   */\n      dup6\n        /* \"#utility.yul\":12701:12773   */\n      tag_320\n      jump\t// in\n    tag_360:\n        /* \"#utility.yul\":12820:12829   */\n      dup2\n        /* \"#utility.yul\":12814:12818   */\n      dup2\n        /* \"#utility.yul\":12810:12830   */\n      sub\n        /* \"#utility.yul\":12805:12807   */\n      0x60\n        /* \"#utility.yul\":12794:12803   */\n      dup4\n        /* \"#utility.yul\":12790:12808   */\n      add\n        /* \"#utility.yul\":12783:12831   */\n      mstore\n        /* \"#utility.yul\":12848:12926   */\n      tag_361\n        /* \"#utility.yul\":12921:12925   */\n      dup2\n        /* \"#utility.yul\":12912:12918   */\n      dup5\n        /* \"#utility.yul\":12848:12926   */\n      tag_287\n      jump\t// in\n    tag_361:\n        /* \"#utility.yul\":12840:12926   */\n      swap1\n      pop\n        /* \"#utility.yul\":12309:12933   */\n      swap6\n      swap5\n      pop\n      pop\n      pop\n      pop\n      pop\n      jump\t// out\n        /* \"#utility.yul\":12939:13358   */\n    tag_120:\n        /* \"#utility.yul\":13105:13109   */\n      0x00\n        /* \"#utility.yul\":13143:13145   */\n      0x20\n        /* \"#utility.yul\":13132:13141   */\n      dup3\n        /* \"#utility.yul\":13128:13146   */\n      add\n        /* \"#utility.yul\":13120:13146   */\n      swap1\n      pop\n        /* \"#utility.yul\":13192:13201   */\n      dup2\n        /* \"#utility.yul\":13186:13190   */\n      dup2\n        /* \"#utility.yul\":13182:13202   */\n      sub\n        /* \"#utility.yul\":13178:13179   */\n      0x00\n        /* \"#utility.yul\":13167:13176   */\n      dup4\n        /* \"#utility.yul\":13163:13180   */\n      add\n        /* \"#utility.yul\":13156:13203   */\n      mstore\n        /* \"#utility.yul\":13220:13351   */\n      tag_363\n        /* \"#utility.yul\":13346:13350   */\n      dup2\n        /* \"#utility.yul\":13220:13351   */\n      tag_297\n      jump\t// in\n    tag_363:\n        /* \"#utility.yul\":13212:13351   */\n      swap1\n      pop\n        /* \"#utility.yul\":12939:13358   */\n      swap2\n      swap1\n      pop\n      jump\t// out\n        /* \"#utility.yul\":13364:13783   */\n    tag_116:\n        /* \"#utility.yul\":13530:13534   */\n      0x00\n        /* \"#utility.yul\":13568:13570   */\n      0x20\n        /* \"#utility.yul\":13557:13566   */\n      dup3\n        /* \"#utility.yul\":13553:13571   */\n      add\n        /* \"#utility.yul\":13545:13571   */\n      swap1\n      pop\n        /* \"#utility.yul\":13617:13626   */\n      dup2\n        /* \"#utility.yul\":13611:13615   */\n      dup2\n        /* \"#utility.yul\":13607:13627   */\n      sub\n        /* \"#utility.yul\":13603:13604   */\n      0x00\n        /* \"#utility.yul\":13592:13601   */\n      dup4\n        /* \"#utility.yul\":13588:13605   */\n      add\n        /* \"#utility.yul\":13581:13628   */\n      mstore\n        /* \"#utility.yul\":13645:13776   */\n      tag_365\n        /* \"#utility.yul\":13771:13775   */\n      dup2\n        /* \"#utility.yul\":13645:13776   */\n      tag_302\n      jump\t// in\n    tag_365:\n        /* \"#utility.yul\":13637:13776   */\n      swap1\n      pop\n        /* \"#utility.yul\":13364:13783   */\n      swap2\n      swap1\n      pop\n      jump\t// out\n        /* \"#utility.yul\":13789:14011   */\n    tag_48:\n        /* \"#utility.yul\":13882:13886   */\n      0x00\n        /* \"#utility.yul\":13920:13922   */\n      0x20\n        /* \"#utility.yul\":13909:13918   */\n      dup3\n        /* \"#utility.yul\":13905:13923   */\n      add\n        /* \"#utility.yul\":13897:13923   */\n      swap1\n      pop\n        /* \"#utility.yul\":13933:14004   */\n      tag_367\n        /* \"#utility.yul\":14001:14002   */\n      0x00\n        /* \"#utility.yul\":13990:13999   */\n      dup4\n        /* \"#utility.yul\":13986:14003   */\n      add\n        /* \"#utility.yul\":13977:13983   */\n      dup5\n        /* \"#utility.yul\":13933:14004   */\n      tag_320\n      jump\t// in\n    tag_367:\n        /* \"#utility.yul\":13789:14011   */\n      swap3\n      swap2\n      pop\n      pop\n      jump\t// out\n        /* \"#utility.yul\":14017:15522   */\n    tag_23:\n        /* \"#utility.yul\":14452:14456   */\n      0x00\n        /* \"#utility.yul\":14490:14493   */\n      0x01a0\n        /* \"#utility.yul\":14479:14488   */\n      dup3\n        /* \"#utility.yul\":14475:14494   */\n      add\n        /* \"#utility.yul\":14467:14494   */\n      swap1\n      pop\n        /* \"#utility.yul\":14504:14575   */\n      tag_369\n        /* \"#utility.yul\":14572:14573   */\n      0x00\n        /* \"#utility.yul\":14561:14570   */\n      dup4\n        /* \"#utility.yul\":14557:14574   */\n      add\n        /* \"#utility.yul\":14548:14554   */\n      dup15\n        /* \"#utility.yul\":14504:14575   */\n      tag_320\n      jump\t// in\n    tag_369:\n        /* \"#utility.yul\":14585:14657   */\n      tag_370\n        /* \"#utility.yul\":14653:14655   */\n      0x20\n        /* \"#utility.yul\":14642:14651   */\n      dup4\n        /* \"#utility.yul\":14638:14656   */\n      add\n        /* \"#utility.yul\":14629:14635   */\n      dup14\n        /* \"#utility.yul\":14585:14657   */\n      tag_268\n      jump\t// in\n    tag_370:\n        /* \"#utility.yul\":14667:14737   */\n      tag_371\n        /* \"#utility.yul\":14733:14735   */\n      0x40\n        /* \"#utility.yul\":14722:14731   */\n      dup4\n        /* \"#utility.yul\":14718:14736   */\n      add\n        /* \"#utility.yul\":14709:14715   */\n      dup13\n        /* \"#utility.yul\":14667:14737   */\n      tag_327\n      jump\t// in\n    tag_371:\n        /* \"#utility.yul\":14747:14815   */\n      tag_372\n        /* \"#utility.yul\":14811:14813   */\n      0x60\n        /* \"#utility.yul\":14800:14809   */\n      dup4\n        /* \"#utility.yul\":14796:14814   */\n      add\n        /* \"#utility.yul\":14787:14793   */\n      dup12\n        /* \"#utility.yul\":14747:14815   */\n      tag_335\n      jump\t// in\n    tag_372:\n        /* \"#utility.yul\":14825:14911   */\n      tag_373\n        /* \"#utility.yul\":14906:14909   */\n      0x80\n        /* \"#utility.yul\":14895:14904   */\n      dup4\n        /* \"#utility.yul\":14891:14910   */\n      add\n        /* \"#utility.yul\":14882:14888   */\n      dup11\n        /* \"#utility.yul\":14825:14911   */\n      tag_275\n      jump\t// in\n    tag_373:\n        /* \"#utility.yul\":14959:14968   */\n      dup2\n        /* \"#utility.yul\":14953:14957   */\n      dup2\n        /* \"#utility.yul\":14949:14969   */\n      sub\n        /* \"#utility.yul\":14943:14946   */\n      0xa0\n        /* \"#utility.yul\":14932:14941   */\n      dup4\n        /* \"#utility.yul\":14928:14947   */\n      add\n        /* \"#utility.yul\":14921:14970   */\n      mstore\n        /* \"#utility.yul\":14987:15065   */\n      tag_374\n        /* \"#utility.yul\":15060:15064   */\n      dup2\n        /* \"#utility.yul\":15051:15057   */\n      dup10\n        /* \"#utility.yul\":14987:15065   */\n      tag_287\n      jump\t// in\n    tag_374:\n        /* \"#utility.yul\":14979:15065   */\n      swap1\n      pop\n        /* \"#utility.yul\":15075:15148   */\n      tag_375\n        /* \"#utility.yul\":15143:15146   */\n      0xc0\n        /* \"#utility.yul\":15132:15141   */\n      dup4\n        /* \"#utility.yul\":15128:15147   */\n      add\n        /* \"#utility.yul\":15119:15125   */\n      dup9\n        /* \"#utility.yul\":15075:15148   */\n      tag_320\n      jump\t// in\n    tag_375:\n        /* \"#utility.yul\":15158:15231   */\n      tag_376\n        /* \"#utility.yul\":15226:15229   */\n      0xe0\n        /* \"#utility.yul\":15215:15224   */\n      dup4\n        /* \"#utility.yul\":15211:15230   */\n      add\n        /* \"#utility.yul\":15202:15208   */\n      dup8\n        /* \"#utility.yul\":15158:15231   */\n      tag_320\n      jump\t// in\n    tag_376:\n        /* \"#utility.yul\":15241:15310   */\n      tag_377\n        /* \"#utility.yul\":15305:15308   */\n      0x0100\n        /* \"#utility.yul\":15294:15303   */\n      dup4\n        /* \"#utility.yul\":15290:15309   */\n      add\n        /* \"#utility.yul\":15281:15287   */\n      dup7\n        /* \"#utility.yul\":15241:15310   */\n      tag_335\n      jump\t// in\n    tag_377:\n        /* \"#utility.yul\":15320:15391   */\n      tag_378\n        /* \"#utility.yul\":15386:15389   */\n      0x0120\n        /* \"#utility.yul\":15375:15384   */\n      dup4\n        /* \"#utility.yul\":15371:15390   */\n      add\n        /* \"#utility.yul\":15362:15368   */\n      dup6\n        /* \"#utility.yul\":15320:15391   */\n      tag_327\n      jump\t// in\n    tag_378:\n        /* \"#utility.yul\":15401:15515   */\n      tag_379\n        /* \"#utility.yul\":15510:15513   */\n      0x0140\n        /* \"#utility.yul\":15499:15508   */\n      dup4\n        /* \"#utility.yul\":15495:15514   */\n      add\n        /* \"#utility.yul\":15485:15492   */\n      dup5\n        /* \"#utility.yul\":15401:15515   */\n      tag_307\n      jump\t// in\n    tag_379:\n        /* \"#utility.yul\":14017:15522   */\n      swap13\n      swap12\n      pop\n      pop\n      pop\n      pop\n      pop\n      pop\n      pop\n      pop\n      pop\n      pop\n      pop\n      pop\n      jump\t// out\n        /* \"#utility.yul\":15528:15947   */\n    tag_62:\n        /* \"#utility.yul\":15667:15671   */\n      0x00\n        /* \"#utility.yul\":15705:15707   */\n      0x40\n        /* \"#utility.yul\":15694:15703   */\n      dup3\n        /* \"#utility.yul\":15690:15708   */\n      add\n        /* \"#utility.yul\":15682:15708   */\n      swap1\n      pop\n        /* \"#utility.yul\":15718:15787   */\n      tag_381\n        /* \"#utility.yul\":15784:15785   */\n      0x00\n        /* \"#utility.yul\":15773:15782   */\n      dup4\n        /* \"#utility.yul\":15769:15786   */\n      add\n        /* \"#utility.yul\":15760:15766   */\n      dup6\n        /* \"#utility.yul\":15718:15787   */\n      tag_327\n      jump\t// in\n    tag_381:\n        /* \"#utility.yul\":15834:15843   */\n      dup2\n        /* \"#utility.yul\":15828:15832   */\n      dup2\n        /* \"#utility.yul\":15824:15844   */\n      sub\n        /* \"#utility.yul\":15819:15821   */\n      0x20\n        /* \"#utility.yul\":15808:15817   */\n      dup4\n        /* \"#utility.yul\":15804:15822   */\n      add\n        /* \"#utility.yul\":15797:15845   */\n      mstore\n        /* \"#utility.yul\":15862:15940   */\n      tag_382\n        /* \"#utility.yul\":15935:15939   */\n      dup2\n        /* \"#utility.yul\":15926:15932   */\n      dup5\n        /* \"#utility.yul\":15862:15940   */\n      tag_287\n      jump\t// in\n    tag_382:\n        /* \"#utility.yul\":15854:15940   */\n      swap1\n      pop\n        /* \"#utility.yul\":15528:15947   */\n      swap4\n      swap3\n      pop\n      pop\n      pop\n      jump\t// out\n        /* \"#utility.yul\":15953:16082   */\n    tag_186:\n        /* \"#utility.yul\":15987:15993   */\n      0x00\n        /* \"#utility.yul\":16014:16034   */\n      tag_384\n      tag_385\n      jump\t// in\n    tag_384:\n        /* \"#utility.yul\":16004:16034   */\n      swap1\n      pop\n        /* \"#utility.yul\":16043:16076   */\n      tag_386\n        /* \"#utility.yul\":16071:16075   */\n      dup3\n        /* \"#utility.yul\":16063:16069   */\n      dup3\n        /* \"#utility.yul\":16043:16076   */\n      tag_387\n      jump\t// in\n    tag_386:\n        /* \"#utility.yul\":15953:16082   */\n      swap2\n      swap1\n      pop\n      jump\t// out\n        /* \"#utility.yul\":16088:16163   */\n    tag_385:\n        /* \"#utility.yul\":16121:16127   */\n      0x00\n        /* \"#utility.yul\":16154:16156   */\n      0x40\n        /* \"#utility.yul\":16148:16157   */\n      mload\n        /* \"#utility.yul\":16138:16157   */\n      swap1\n      pop\n        /* \"#utility.yul\":16088:16163   */\n      swap1\n      jump\t// out\n        /* \"#utility.yul\":16169:16477   */\n    tag_185:\n        /* \"#utility.yul\":16231:16235   */\n      0x00\n        /* \"#utility.yul\":16321:16339   */\n      0xffffffffffffffff\n        /* \"#utility.yul\":16313:16319   */\n      dup3\n        /* \"#utility.yul\":16310:16340   */\n      gt\n        /* \"#utility.yul\":16307:16363   */\n      iszero\n      tag_390\n      jumpi\n        /* \"#utility.yul\":16343:16361   */\n      tag_391\n      tag_392\n      jump\t// in\n    tag_391:\n        /* \"#utility.yul\":16307:16363   */\n    tag_390:\n        /* \"#utility.yul\":16381:16410   */\n      tag_393\n        /* \"#utility.yul\":16403:16409   */\n      dup3\n        /* \"#utility.yul\":16381:16410   */\n      tag_296\n      jump\t// in\n    tag_393:\n        /* \"#utility.yul\":16373:16410   */\n      swap1\n      pop\n        /* \"#utility.yul\":16465:16469   */\n      0x20\n        /* \"#utility.yul\":16459:16463   */\n      dup2\n        /* \"#utility.yul\":16455:16470   */\n      add\n        /* \"#utility.yul\":16447:16470   */\n      swap1\n      pop\n        /* \"#utility.yul\":16169:16477   */\n      swap2\n      swap1\n      pop\n      jump\t// out\n        /* \"#utility.yul\":16483:16582   */\n    tag_290:\n        /* \"#utility.yul\":16535:16541   */\n      0x00\n        /* \"#utility.yul\":16569:16574   */\n      dup2\n        /* \"#utility.yul\":16563:16575   */\n      mload\n        /* \"#utility.yul\":16553:16575   */\n      swap1\n      pop\n        /* \"#utility.yul\":16483:16582   */\n      swap2\n      swap1\n      pop\n      jump\t// out\n        /* \"#utility.yul\":16588:16757   */\n    tag_292:\n        /* \"#utility.yul\":16672:16683   */\n      0x00\n        /* \"#utility.yul\":16706:16712   */\n      dup3\n        /* \"#utility.yul\":16701:16704   */\n      dup3\n        /* \"#utility.yul\":16694:16713   */\n      mstore\n        /* \"#utility.yul\":16746:16750   */\n      0x20\n        /* \"#utility.yul\":16741:16744   */\n      dup3\n        /* \"#utility.yul\":16737:16751   */\n      add\n        /* \"#utility.yul\":16722:16751   */\n      swap1\n      pop\n        /* \"#utility.yul\":16588:16757   */\n      swap3\n      swap2\n      pop\n      pop\n      jump\t// out\n        /* \"#utility.yul\":16763:16859   */\n    tag_267:\n        /* \"#utility.yul\":16800:16807   */\n      0x00\n        /* \"#utility.yul\":16829:16853   */\n      tag_397\n        /* \"#utility.yul\":16847:16852   */\n      dup3\n        /* \"#utility.yul\":16829:16853   */\n      tag_398\n      jump\t// in\n    tag_397:\n        /* \"#utility.yul\":16818:16853   */\n      swap1\n      pop\n        /* \"#utility.yul\":16763:16859   */\n      swap2\n      swap1\n      pop\n      jump\t// out\n        /* \"#utility.yul\":16865:16955   */\n    tag_274:\n        /* \"#utility.yul\":16899:16906   */\n      0x00\n        /* \"#utility.yul\":16942:16947   */\n      dup2\n        /* \"#utility.yul\":16935:16948   */\n      iszero\n        /* \"#utility.yul\":16928:16949   */\n      iszero\n        /* \"#utility.yul\":16917:16949   */\n      swap1\n      pop\n        /* \"#utility.yul\":16865:16955   */\n      swap2\n      swap1\n      pop\n      jump\t// out\n        /* \"#utility.yul\":16961:17102   */\n    tag_400:\n        /* \"#utility.yul\":17013:17020   */\n      0x00\n        /* \"#utility.yul\":17042:17047   */\n      dup2\n        /* \"#utility.yul\":17031:17047   */\n      swap1\n      pop\n        /* \"#utility.yul\":17048:17096   */\n      tag_402\n        /* \"#utility.yul\":17090:17095   */\n      dup3\n        /* \"#utility.yul\":17048:17096   */\n      tag_403\n      jump\t// in\n    tag_402:\n        /* \"#utility.yul\":16961:17102   */\n      swap2\n      swap1\n      pop\n      jump\t// out\n        /* \"#utility.yul\":17108:17243   */\n    tag_404:\n        /* \"#utility.yul\":17157:17164   */\n      0x00\n        /* \"#utility.yul\":17186:17191   */\n      dup2\n        /* \"#utility.yul\":17175:17191   */\n      swap1\n      pop\n        /* \"#utility.yul\":17192:17237   */\n      tag_406\n        /* \"#utility.yul\":17231:17236   */\n      dup3\n        /* \"#utility.yul\":17192:17237   */\n      tag_407\n      jump\t// in\n    tag_406:\n        /* \"#utility.yul\":17108:17243   */\n      swap2\n      swap1\n      pop\n      jump\t// out\n        /* \"#utility.yul\":17249:17376   */\n    tag_408:\n        /* \"#utility.yul\":17294:17301   */\n      0x00\n        /* \"#utility.yul\":17323:17328   */\n      dup2\n        /* \"#utility.yul\":17312:17328   */\n      swap1\n      pop\n        /* \"#utility.yul\":17329:17370   */\n      tag_410\n        /* \"#utility.yul\":17364:17369   */\n      dup3\n        /* \"#utility.yul\":17329:17370   */\n      tag_411\n      jump\t// in\n    tag_410:\n        /* \"#utility.yul\":17249:17376   */\n      swap2\n      swap1\n      pop\n      jump\t// out\n        /* \"#utility.yul\":17382:17471   */\n    tag_316:\n        /* \"#utility.yul\":17418:17425   */\n      0x00\n        /* \"#utility.yul\":17458:17464   */\n      0xffff\n        /* \"#utility.yul\":17451:17456   */\n      dup3\n        /* \"#utility.yul\":17447:17465   */\n      and\n        /* \"#utility.yul\":17436:17465   */\n      swap1\n      pop\n        /* \"#utility.yul\":17382:17471   */\n      swap2\n      swap1\n      pop\n      jump\t// out\n        /* \"#utility.yul\":17477:17603   */\n    tag_398:\n        /* \"#utility.yul\":17514:17521   */\n      0x00\n        /* \"#utility.yul\":17554:17596   */\n      0xffffffffffffffffffffffffffffffffffffffff\n        /* \"#utility.yul\":17547:17552   */\n      dup3\n        /* \"#utility.yul\":17543:17597   */\n      and\n        /* \"#utility.yul\":17532:17597   */\n      swap1\n      pop\n        /* \"#utility.yul\":17477:17603   */\n      swap2\n      swap1\n      pop\n      jump\t// out\n        /* \"#utility.yul\":17609:17686   */\n    tag_319:\n        /* \"#utility.yul\":17646:17653   */\n      0x00\n        /* \"#utility.yul\":17675:17680   */\n      dup2\n        /* \"#utility.yul\":17664:17680   */\n      swap1\n      pop\n        /* \"#utility.yul\":17609:17686   */\n      swap2\n      swap1\n      pop\n      jump\t// out\n        /* \"#utility.yul\":17692:17785   */\n    tag_330:\n        /* \"#utility.yul\":17728:17735   */\n      0x00\n        /* \"#utility.yul\":17768:17778   */\n      0xffffffff\n        /* \"#utility.yul\":17761:17766   */\n      dup3\n        /* \"#utility.yul\":17757:17779   */\n      and\n        /* \"#utility.yul\":17746:17779   */\n      swap1\n      pop\n        /* \"#utility.yul\":17692:17785   */\n      swap2\n      swap1\n      pop\n      jump\t// out\n        /* \"#utility.yul\":17791:17877   */\n    tag_338:\n        /* \"#utility.yul\":17826:17833   */\n      0x00\n        /* \"#utility.yul\":17866:17870   */\n      0xff\n        /* \"#utility.yul\":17859:17864   */\n      dup3\n        /* \"#utility.yul\":17855:17871   */\n      and\n        /* \"#utility.yul\":17844:17871   */\n      swap1\n      pop\n        /* \"#utility.yul\":17791:17877   */\n      swap2\n      swap1\n      pop\n      jump\t// out\n        /* \"#utility.yul\":17883:18024   */\n    tag_278:\n        /* \"#utility.yul\":17946:17955   */\n      0x00\n        /* \"#utility.yul\":17979:18018   */\n      tag_418\n        /* \"#utility.yul\":18012:18017   */\n      dup3\n        /* \"#utility.yul\":17979:18018   */\n      tag_400\n      jump\t// in\n    tag_418:\n        /* \"#utility.yul\":17966:18018   */\n      swap1\n      pop\n        /* \"#utility.yul\":17883:18024   */\n      swap2\n      swap1\n      pop\n      jump\t// out\n        /* \"#utility.yul\":18030:18165   */\n    tag_282:\n        /* \"#utility.yul\":18090:18099   */\n      0x00\n        /* \"#utility.yul\":18123:18159   */\n      tag_420\n        /* \"#utility.yul\":18153:18158   */\n      dup3\n        /* \"#utility.yul\":18123:18159   */\n      tag_404\n      jump\t// in\n    tag_420:\n        /* \"#utility.yul\":18110:18159   */\n      swap1\n      pop\n        /* \"#utility.yul\":18030:18165   */\n      swap2\n      swap1\n      pop\n      jump\t// out\n        /* \"#utility.yul\":18171:18298   */\n    tag_286:\n        /* \"#utility.yul\":18227:18236   */\n      0x00\n        /* \"#utility.yul\":18260:18292   */\n      tag_422\n        /* \"#utility.yul\":18286:18291   */\n      dup3\n        /* \"#utility.yul\":18260:18292   */\n      tag_408\n      jump\t// in\n    tag_422:\n        /* \"#utility.yul\":18247:18292   */\n      swap1\n      pop\n        /* \"#utility.yul\":18171:18298   */\n      swap2\n      swap1\n      pop\n      jump\t// out\n        /* \"#utility.yul\":18304:18415   */\n    tag_326:\n        /* \"#utility.yul\":18353:18362   */\n      0x00\n        /* \"#utility.yul\":18386:18409   */\n      tag_424\n        /* \"#utility.yul\":18403:18408   */\n      dup3\n        /* \"#utility.yul\":18386:18409   */\n      tag_330\n      jump\t// in\n    tag_424:\n        /* \"#utility.yul\":18373:18409   */\n      swap1\n      pop\n        /* \"#utility.yul\":18304:18415   */\n      swap2\n      swap1\n      pop\n      jump\t// out\n        /* \"#utility.yul\":18421:18530   */\n    tag_334:\n        /* \"#utility.yul\":18469:18478   */\n      0x00\n        /* \"#utility.yul\":18502:18524   */\n      tag_426\n        /* \"#utility.yul\":18518:18523   */\n      dup3\n        /* \"#utility.yul\":18502:18524   */\n      tag_338\n      jump\t// in\n    tag_426:\n        /* \"#utility.yul\":18489:18524   */\n      swap1\n      pop\n        /* \"#utility.yul\":18421:18530   */\n      swap2\n      swap1\n      pop\n      jump\t// out\n        /* \"#utility.yul\":18536:18690   */\n    tag_191:\n        /* \"#utility.yul\":18620:18626   */\n      dup3\n        /* \"#utility.yul\":18615:18618   */\n      dup2\n        /* \"#utility.yul\":18610:18613   */\n      dup4\n        /* \"#utility.yul\":18597:18627   */\n      calldatacopy\n        /* \"#utility.yul\":18682:18683   */\n      0x00\n        /* \"#utility.yul\":18673:18679   */\n      dup4\n        /* \"#utility.yul\":18668:18671   */\n      dup4\n        /* \"#utility.yul\":18664:18680   */\n      add\n        /* \"#utility.yul\":18657:18684   */\n      mstore\n        /* \"#utility.yul\":18536:18690   */\n      pop\n      pop\n      pop\n      jump\t// out\n        /* \"#utility.yul\":18696:19003   */\n    tag_294:\n        /* \"#utility.yul\":18764:18765   */\n      0x00\n        /* \"#utility.yul\":18774:18887   */\n    tag_429:\n        /* \"#utility.yul\":18788:18794   */\n      dup4\n        /* \"#utility.yul\":18785:18786   */\n      dup2\n        /* \"#utility.yul\":18782:18795   */\n      lt\n        /* \"#utility.yul\":18774:18887   */\n      iszero\n      tag_431\n      jumpi\n        /* \"#utility.yul\":18873:18874   */\n      dup1\n        /* \"#utility.yul\":18868:18871   */\n      dup3\n        /* \"#utility.yul\":18864:18875   */\n      add\n        /* \"#utility.yul\":18858:18876   */\n      mload\n        /* \"#utility.yul\":18854:18855   */\n      dup2\n        /* \"#utility.yul\":18849:18852   */\n      dup5\n        /* \"#utility.yul\":18845:18856   */\n      add\n        /* \"#utility.yul\":18838:18877   */\n      mstore\n        /* \"#utility.yul\":18810:18812   */\n      0x20\n        /* \"#utility.yul\":18807:18808   */\n      dup2\n        /* \"#utility.yul\":18803:18813   */\n      add\n        /* \"#utility.yul\":18798:18813   */\n      swap1\n      pop\n        /* \"#utility.yul\":18774:18887   */\n      jump(tag_429)\n    tag_431:\n        /* \"#utility.yul\":18905:18911   */\n      dup4\n        /* \"#utility.yul\":18902:18903   */\n      dup2\n        /* \"#utility.yul\":18899:18912   */\n      gt\n        /* \"#utility.yul\":18896:18997   */\n      iszero\n      tag_432\n      jumpi\n        /* \"#utility.yul\":18985:18986   */\n      0x00\n        /* \"#utility.yul\":18976:18982   */\n      dup5\n        /* \"#utility.yul\":18971:18974   */\n      dup5\n        /* \"#utility.yul\":18967:18983   */\n      add\n        /* \"#utility.yul\":18960:18987   */\n      mstore\n        /* \"#utility.yul\":18896:18997   */\n    tag_432:\n        /* \"#utility.yul\":18745:19003   */\n      pop\n        /* \"#utility.yul\":18696:19003   */\n      pop\n      pop\n      pop\n      jump\t// out\n        /* \"#utility.yul\":19009:19329   */\n    tag_81:\n        /* \"#utility.yul\":19053:19059   */\n      0x00\n        /* \"#utility.yul\":19090:19091   */\n      0x02\n        /* \"#utility.yul\":19084:19088   */\n      dup3\n        /* \"#utility.yul\":19080:19092   */\n      div\n        /* \"#utility.yul\":19070:19092   */\n      swap1\n      pop\n        /* \"#utility.yul\":19137:19138   */\n      0x01\n        /* \"#utility.yul\":19131:19135   */\n      dup3\n        /* \"#utility.yul\":19127:19139   */\n      and\n        /* \"#utility.yul\":19158:19176   */\n      dup1\n        /* \"#utility.yul\":19148:19229   */\n      tag_434\n      jumpi\n        /* \"#utility.yul\":19214:19218   */\n      0x7f\n        /* \"#utility.yul\":19206:19212   */\n      dup3\n        /* \"#utility.yul\":19202:19219   */\n      and\n        /* \"#utility.yul\":19192:19219   */\n      swap2\n      pop\n        /* \"#utility.yul\":19148:19229   */\n    tag_434:\n        /* \"#utility.yul\":19276:19278   */\n      0x20\n        /* \"#utility.yul\":19268:19274   */\n      dup3\n        /* \"#utility.yul\":19265:19279   */\n      lt\n        /* \"#utility.yul\":19245:19263   */\n      dup2\n        /* \"#utility.yul\":19242:19280   */\n      eq\n        /* \"#utility.yul\":19239:19323   */\n      iszero\n      tag_435\n      jumpi\n        /* \"#utility.yul\":19295:19313   */\n      tag_436\n      tag_437\n      jump\t// in\n    tag_436:\n        /* \"#utility.yul\":19239:19323   */\n    tag_435:\n        /* \"#utility.yul\":19060:19329   */\n      pop\n        /* \"#utility.yul\":19009:19329   */\n      swap2\n      swap1\n      pop\n      jump\t// out\n        /* \"#utility.yul\":19335:19616   */\n    tag_387:\n        /* \"#utility.yul\":19418:19445   */\n      tag_439\n        /* \"#utility.yul\":19440:19444   */\n      dup3\n        /* \"#utility.yul\":19418:19445   */\n      tag_296\n      jump\t// in\n    tag_439:\n        /* \"#utility.yul\":19410:19416   */\n      dup2\n        /* \"#utility.yul\":19406:19446   */\n      add\n        /* \"#utility.yul\":19548:19554   */\n      dup2\n        /* \"#utility.yul\":19536:19546   */\n      dup2\n        /* \"#utility.yul\":19533:19555   */\n      lt\n        /* \"#utility.yul\":19512:19530   */\n      0xffffffffffffffff\n        /* \"#utility.yul\":19500:19510   */\n      dup3\n        /* \"#utility.yul\":19497:19531   */\n      gt\n        /* \"#utility.yul\":19494:19556   */\n      or\n        /* \"#utility.yul\":19491:19579   */\n      iszero\n      tag_440\n      jumpi\n        /* \"#utility.yul\":19559:19577   */\n      tag_441\n      tag_392\n      jump\t// in\n    tag_441:\n        /* \"#utility.yul\":19491:19579   */\n    tag_440:\n        /* \"#utility.yul\":19599:19609   */\n      dup1\n        /* \"#utility.yul\":19595:19597   */\n      0x40\n        /* \"#utility.yul\":19588:19610   */\n      mstore\n        /* \"#utility.yul\":19378:19616   */\n      pop\n        /* \"#utility.yul\":19335:19616   */\n      pop\n      pop\n      jump\t// out\n        /* \"#utility.yul\":19622:19855   */\n    tag_153:\n        /* \"#utility.yul\":19661:19664   */\n      0x00\n        /* \"#utility.yul\":19684:19708   */\n      tag_443\n        /* \"#utility.yul\":19702:19707   */\n      dup3\n        /* \"#utility.yul\":19684:19708   */\n      tag_319\n      jump\t// in\n    tag_443:\n        /* \"#utility.yul\":19675:19708   */\n      swap2\n      pop\n        /* \"#utility.yul\":19730:19796   */\n      0xffffffffffffffffffffffffffffffffffffffffffffffffffffffffffffffff\n        /* \"#utility.yul\":19723:19728   */\n      dup3\n        /* \"#utility.yul\":19720:19797   */\n      eq\n        /* \"#utility.yul\":19717:19820   */\n      iszero\n      tag_444\n      jumpi\n        /* \"#utility.yul\":19800:19818   */\n      tag_445\n      tag_446\n      jump\t// in\n    tag_445:\n        /* \"#utility.yul\":19717:19820   */\n    tag_444:\n        /* \"#utility.yul\":19847:19848   */\n      0x01\n        /* \"#utility.yul\":19840:19845   */\n      dup3\n        /* \"#utility.yul\":19836:19849   */\n      add\n        /* \"#utility.yul\":19829:19849   */\n      swap1\n      pop\n        /* \"#utility.yul\":19622:19855   */\n      swap2\n      swap1\n      pop\n      jump\t// out\n        /* \"#utility.yul\":19861:20041   */\n    tag_446:\n        /* \"#utility.yul\":19909:19986   */\n      0x4e487b7100000000000000000000000000000000000000000000000000000000\n        /* \"#utility.yul\":19906:19907   */\n      0x00\n        /* \"#utility.yul\":19899:19987   */\n      mstore\n        /* \"#utility.yul\":20006:20010   */\n      0x11\n        /* \"#utility.yul\":20003:20004   */\n      0x04\n        /* \"#utility.yul\":19996:20011   */\n      mstore\n        /* \"#utility.yul\":20030:20034   */\n      0x24\n        /* \"#utility.yul\":20027:20028   */\n      0x00\n        /* \"#utility.yul\":20020:20035   */\n      revert\n        /* \"#utility.yul\":20047:20227   */\n    tag_88:\n        /* \"#utility.yul\":20095:20172   */\n      0x4e487b7100000000000000000000000000000000000000000000000000000000\n        /* \"#utility.yul\":20092:20093   */\n      0x00\n        /* \"#utility.yul\":20085:20173   */\n      mstore\n        /* \"#utility.yul\":20192:20196   */\n      0x21\n        /* \"#utility.yul\":20189:20190   */\n      0x04\n        /* \"#utility.yul\":20182:20197   */\n      mstore\n        /* \"#utility.yul\":20216:20220   */\n      0x24\n        /* \"#utility.yul\":20213:20214   */\n      0x00\n        /* \"#utility.yul\":20206:20221   */\n      revert\n        /* \"#utility.yul\":20233:20413   */\n    tag_437:\n        /* \"#utility.yul\":20281:20358   */\n      0x4e487b7100000000000000000000000000000000000000000000000000000000\n        /* \"#utility.yul\":20278:20279   */\n      0x00\n        /* \"#utility.yul\":20271:20359   */\n      mstore\n        /* \"#utility.yul\":20378:20382   */\n      0x22\n        /* \"#utility.yul\":20375:20376   */\n      0x04\n        /* \"#utility.yul\":20368:20383   */\n      mstore\n        /* \"#utility.yul\":20402:20406   */\n      0x24\n        /* \"#utility.yul\":20399:20400   */\n      0x00\n        /* \"#utility.yul\":20392:20407   */\n      revert\n        /* \"#utility.yul\":20419:20599   */\n    tag_392:\n        /* \"#utility.yul\":20467:20544   */\n      0x4e487b7100000000000000000000000000000000000000000000000000000000\n        /* \"#utility.yul\":20464:20465   */\n      0x00\n        /* \"#utility.yul\":20457:20545   */\n      mstore\n        /* \"#utility.yul\":20564:20568   */\n      0x41\n        /* \"#utility.yul\":20561:20562   */\n      0x04\n        /* \"#utility.yul\":20554:20569   */\n      mstore\n        /* \"#utility.yul\":20588:20592   */\n      0x24\n        /* \"#utility.yul\":20585:20586   */\n      0x00\n        /* \"#utility.yul\":20578:20593   */\n      revert\n        /* \"#utility.yul\":20605:20722   */\n    tag_204:\n        /* \"#utility.yul\":20714:20715   */\n      0x00\n        /* \"#utility.yul\":20711:20712   */\n      dup1\n        /* \"#utility.yul\":20704:20716   */\n      revert\n        /* \"#utility.yul\":20728:20845   */\n    tag_189:\n        /* \"#utility.yul\":20837:20838   */\n      0x00\n        /* \"#utility.yul\":20834:20835   */\n      dup1\n        /* \"#utility.yul\":20827:20839   */\n      revert\n        /* \"#utility.yul\":20851:20968   */\n    tag_233:\n        /* \"#utility.yul\":20960:20961   */\n      0x00\n        /* \"#utility.yul\":20957:20958   */\n      dup1\n        /* \"#utility.yul\":20950:20962   */\n      revert\n        /* \"#utility.yul\":20974:21091   */\n    tag_221:\n        /* \"#utility.yul\":21083:21084   */\n      0x00\n        /* \"#utility.yul\":21080:21081   */\n      dup1\n        /* \"#utility.yul\":21073:21085   */\n      revert\n        /* \"#utility.yul\":21097:21199   */\n    tag_296:\n        /* \"#utility.yul\":21138:21144   */\n      0x00\n        /* \"#utility.yul\":21189:21191   */\n      0x1f\n        /* \"#utility.yul\":21185:21192   */\n      not\n        /* \"#utility.yul\":21180:21182   */\n      0x1f\n        /* \"#utility.yul\":21173:21178   */\n      dup4\n        /* \"#utility.yul\":21169:21183   */\n      add\n        /* \"#utility.yul\":21165:21193   */\n      and\n        /* \"#utility.yul\":21155:21193   */\n      swap1\n      pop\n        /* \"#utility.yul\":21097:21199   */\n      swap2\n      swap1\n      pop\n      jump\t// out\n        /* \"#utility.yul\":21205:21373   */\n    tag_301:\n        /* \"#utility.yul\":21345:21365   */\n      0x53747564656e74206e6f74206578697374730000000000000000000000000000\n        /* \"#utility.yul\":21341:21342   */\n      0x00\n        /* \"#utility.yul\":21333:21339   */\n      dup3\n        /* \"#utility.yul\":21329:21343   */\n      add\n        /* \"#utility.yul\":21322:21366   */\n      mstore\n        /* \"#utility.yul\":21205:21373   */\n      pop\n      jump\t// out\n        /* \"#utility.yul\":21379:21561   */\n    tag_306:\n        /* \"#utility.yul\":21519:21553   */\n      0x42752069736c656d6920736164656365204b757273207961706162696c69722e\n        /* \"#utility.yul\":21515:21516   */\n      0x00\n        /* \"#utility.yul\":21507:21513   */\n      dup3\n        /* \"#utility.yul\":21503:21517   */\n      add\n        /* \"#utility.yul\":21496:21554   */\n      mstore\n        /* \"#utility.yul\":21379:21561   */\n      pop\n      jump\t// out\n        /* \"#utility.yul\":21567:21687   */\n    tag_403:\n        /* \"#utility.yul\":21655:21656   */\n      0x03\n        /* \"#utility.yul\":21648:21653   */\n      dup2\n        /* \"#utility.yul\":21645:21657   */\n      lt\n        /* \"#utility.yul\":21635:21681   */\n      tag_459\n      jumpi\n        /* \"#utility.yul\":21661:21679   */\n      tag_460\n      tag_88\n      jump\t// in\n    tag_460:\n        /* \"#utility.yul\":21635:21681   */\n    tag_459:\n        /* \"#utility.yul\":21567:21687   */\n      pop\n      jump\t// out\n        /* \"#utility.yul\":21693:21810   */\n    tag_407:\n        /* \"#utility.yul\":21778:21779   */\n      0x03\n        /* \"#utility.yul\":21771:21776   */\n      dup2\n        /* \"#utility.yul\":21768:21780   */\n      lt\n        /* \"#utility.yul\":21758:21804   */\n      tag_462\n      jumpi\n        /* \"#utility.yul\":21784:21802   */\n      tag_463\n      tag_88\n      jump\t// in\n    tag_463:\n        /* \"#utility.yul\":21758:21804   */\n    tag_462:\n        /* \"#utility.yul\":21693:21810   */\n      pop\n      jump\t// out\n        /* \"#utility.yul\":21816:21929   */\n    tag_411:\n        /* \"#utility.yul\":21897:21898   */\n      0x04\n        /* \"#utility.yul\":21890:21895   */\n      dup2\n        /* \"#utility.yul\":21887:21899   */\n      lt\n        /* \"#utility.yul\":21877:21923   */\n      tag_465\n      jumpi\n        /* \"#utility.yul\":21903:21921   */\n      tag_466\n      tag_88\n      jump\t// in\n    tag_466:\n        /* \"#utility.yul\":21877:21923   */\n    tag_465:\n        /* \"#utility.yul\":21816:21929   */\n      pop\n      jump\t// out\n        /* \"#utility.yul\":21935:22057   */\n    tag_195:\n        /* \"#utility.yul\":22008:22032   */\n      tag_468\n        /* \"#utility.yul\":22026:22031   */\n      dup2\n        /* \"#utility.yul\":22008:22032   */\n      tag_267\n      jump\t// in\n    tag_468:\n        /* \"#utility.yul\":22001:22006   */\n      dup2\n        /* \"#utility.yul\":21998:22033   */\n      eq\n        /* \"#utility.yul\":21988:22051   */\n      tag_469\n      jumpi\n        /* \"#utility.yul\":22047:22048   */\n      0x00\n        /* \"#utility.yul\":22044:22045   */\n      dup1\n        /* \"#utility.yul\":22037:22049   */\n      revert\n        /* \"#utility.yul\":21988:22051   */\n    tag_469:\n        /* \"#utility.yul\":21935:22057   */\n      pop\n      jump\t// out\n        /* \"#utility.yul\":22063:22177   */\n    tag_199:\n        /* \"#utility.yul\":22151:22152   */\n      0x03\n        /* \"#utility.yul\":22144:22149   */\n      dup2\n        /* \"#utility.yul\":22141:22153   */\n      lt\n        /* \"#utility.yul\":22131:22171   */\n      tag_471\n      jumpi\n        /* \"#utility.yul\":22167:22168   */\n      0x00\n        /* \"#utility.yul\":22164:22165   */\n      dup1\n        /* \"#utility.yul\":22157:22169   */\n      revert\n        /* \"#utility.yul\":22131:22171   */\n    tag_471:\n        /* \"#utility.yul\":22063:22177   */\n      pop\n      jump\t// out\n        /* \"#utility.yul\":22183:22305   */\n    tag_209:\n        /* \"#utility.yul\":22256:22280   */\n      tag_473\n        /* \"#utility.yul\":22274:22279   */\n      dup2\n        /* \"#utility.yul\":22256:22280   */\n      tag_319\n      jump\t// in\n    tag_473:\n        /* \"#utility.yul\":22249:22254   */\n      dup2\n        /* \"#utility.yul\":22246:22281   */\n      eq\n        /* \"#utility.yul\":22236:22299   */\n      tag_474\n      jumpi\n        /* \"#utility.yul\":22295:22296   */\n      0x00\n        /* \"#utility.yul\":22292:22293   */\n      dup1\n        /* \"#utility.yul\":22285:22297   */\n      revert\n        /* \"#utility.yul\":22236:22299   */\n    tag_474:\n        /* \"#utility.yul\":22183:22305   */\n      pop\n      jump\t// out\n        /* \"#utility.yul\":22311:22431   */\n    tag_213:\n        /* \"#utility.yul\":22383:22406   */\n      tag_476\n        /* \"#utility.yul\":22400:22405   */\n      dup2\n        /* \"#utility.yul\":22383:22406   */\n      tag_330\n      jump\t// in\n    tag_476:\n        /* \"#utility.yul\":22376:22381   */\n      dup2\n        /* \"#utility.yul\":22373:22407   */\n      eq\n        /* \"#utility.yul\":22363:22425   */\n      tag_477\n      jumpi\n        /* \"#utility.yul\":22421:22422   */\n      0x00\n        /* \"#utility.yul\":22418:22419   */\n      dup1\n        /* \"#utility.yul\":22411:22423   */\n      revert\n        /* \"#utility.yul\":22363:22425   */\n    tag_477:\n        /* \"#utility.yul\":22311:22431   */\n      pop\n      jump\t// out\n        /* \"#utility.yul\":22437:22555   */\n    tag_217:\n        /* \"#utility.yul\":22508:22530   */\n      tag_479\n        /* \"#utility.yul\":22524:22529   */\n      dup2\n        /* \"#utility.yul\":22508:22530   */\n      tag_338\n      jump\t// in\n    tag_479:\n        /* \"#utility.yul\":22501:22506   */\n      dup2\n        /* \"#utility.yul\":22498:22531   */\n      eq\n        /* \"#utility.yul\":22488:22549   */\n      tag_480\n      jumpi\n        /* \"#utility.yul\":22545:22546   */\n      0x00\n        /* \"#utility.yul\":22542:22543   */\n      dup1\n        /* \"#utility.yul\":22535:22547   */\n      revert\n        /* \"#utility.yul\":22488:22549   */\n    tag_480:\n        /* \"#utility.yul\":22437:22555   */\n      pop\n      jump\t// out\n\n    auxdata: 0xa2646970667358221220d98334e9a193cf7cdce5338ae6098c9febc910b7cc84bcd17c51a3f810b9718c64736f6c63430008070033\n}\n",
				"bytecode": {
					"linkReferences": {},
					"object": "608060405234801561001057600080fd5b5061282b806100206000396000f3fe608060405234801561001057600080fd5b50600436106100cf5760003560e01c80637d0fa2871161008c578063af640d0f11610066578063af640d0f1461029c578063b34b5539146102ba578063ba479b7e146102d6578063cbc928091461030b576100cf565b80637d0fa287146102075780639a8c911914610239578063a4e7ae051461026b576100cf565b80630fb0b1b2146100d45780631916e1391461010e5780632826669714610140578063356b1f1e1461017257806339987f94146101a45780637b6524fe146101d7575b600080fd5b6100ee60048036038101906100e99190611e1d565b61033b565b6040516101059b9a999897969594939291906122d2565b60405180910390f35b61012860048036038101906101239190611cf5565b610536565b604051610137939291906121ed565b60405180910390f35b61015a60048036038101906101559190611cf5565b610602565b604051610169939291906121ed565b60405180910390f35b61018c60048036038101906101879190611cf5565b6106ce565b60405161019b939291906121ed565b60405180910390f35b6101be60048036038101906101b99190611cf5565b61079a565b6040516101ce949392919061222b565b60405180910390f35b6101f160048036038101906101ec9190611e5d565b61086c565b6040516101fe91906122b7565b60405180910390f35b610221600480360381019061021c9190611cf5565b610fdc565b604051610230939291906121ed565b60405180910390f35b610253600480360381019061024e9190611cf5565b6110a8565b604051610262939291906121ed565b60405180910390f35b61028560048036038101906102809190611f6d565b611174565b604051610293929190612384565b60405180910390f35b6102a4611230565b6040516102b191906122b7565b60405180910390f35b6102d460048036038101906102cf9190611d22565b611236565b005b6102f060048036038101906102eb9190611cf5565b6119ba565b6040516103029695949392919061217e565b60405180910390f35b61032560048036038101906103209190611cf5565b611b4e565b6040516103329190612163565b60405180910390f35b600d602052816000526040600020602052806000526040600020600091509150508060000154908060010160009054906101000a900473ffffffffffffffffffffffffffffffffffffffff16908060010160149054906101000a900463ffffffff16908060010160189054906101000a900460ff16908060010160199054906101000a900460ff16908060020180546103d39061256e565b80601f01602080910402602001604051908101604052809291908181526020018280546103ff9061256e565b801561044c5780601f106104215761010080835404028352916020019161044c565b820191906000526020600020905b81548152906001019060200180831161042f57829003601f168201915b5050505050908060030154908060040154908060050160009054906101000a900460ff16908060050160019054906101000a900463ffffffff169080600601604051806060016040529081600082015481526020016001820160009054906101000a900473ffffffffffffffffffffffffffffffffffffffff1673ffffffffffffffffffffffffffffffffffffffff1673ffffffffffffffffffffffffffffffffffffffff1681526020016001820160149054906101000a900460ff16600281111561051b5761051a612649565b5b600281111561052d5761052c612649565b5b8152505090508b565b60076020528060005260406000206000915090508060000160009054906101000a900460ff169080600101805461056c9061256e565b80601f01602080910402602001604051908101604052809291908181526020018280546105989061256e565b80156105e55780601f106105ba576101008083540402835291602001916105e5565b820191906000526020600020905b8154815290600101906020018083116105c857829003601f168201915b5050505050908060020160009054906101000a900460ff16905083565b60046020528060005260406000206000915090508060000160009054906101000a900460ff16908060010180546106389061256e565b80601f01602080910402602001604051908101604052809291908181526020018280546106649061256e565b80156106b15780601f10610686576101008083540402835291602001916106b1565b820191906000526020600020905b81548152906001019060200180831161069457829003601f168201915b5050505050908060020160009054906101000a900460ff16905083565b600a6020528060005260406000206000915090508060000160009054906101000a900460ff16908060010180546107049061256e565b80601f01602080910402602001604051908101604052809291908181526020018280546107309061256e565b801561077d5780601f106107525761010080835404028352916020019161077d565b820191906000526020600020905b81548152906001019060200180831161076057829003601f168201915b5050505050908060020160009054906101000a900460ff16905083565b60066020528060005260406000206000915090508060000160009054906101000a900460ff16908060000160019054906101000a900460ff16908060010154908060020180546107e99061256e565b80601f01602080910402602001604051908101604052809291908181526020018280546108159061256e565b80156108625780601f1061083757610100808354040283529160200191610862565b820191906000526020600020905b81548152906001019060200180831161084557829003601f168201915b5050505050905084565b6000600460003373ffffffffffffffffffffffffffffffffffffffff1673ffffffffffffffffffffffffffffffffffffffff16815260200190815260200160002060000160009054906101000a900460ff16806109155750600660003373ffffffffffffffffffffffffffffffffffffffff1673ffffffffffffffffffffffffffffffffffffffff16815260200190815260200160002060000160009054906101000a900460ff165b8061096c5750600860003373ffffffffffffffffffffffffffffffffffffffff1673ffffffffffffffffffffffffffffffffffffffff16815260200190815260200160002060000160009054906101000a900460ff165b6109ab576040517f08c379a00000000000000000000000000000000000000000000000000000000081526004016109a290612297565b60405180910390fd5b600360008d73ffffffffffffffffffffffffffffffffffffffff1673ffffffffffffffffffffffffffffffffffffffff16815260200190815260200160002060000160009054906101000a900460ff16610a3a576040517f08c379a0000000000000000000000000000000000000000000000000000000008152600401610a3190612277565b60405180910390fd5b89600d60008e73ffffffffffffffffffffffffffffffffffffffff1673ffffffffffffffffffffffffffffffffffffffff16815260200190815260200160002060008d815260200190815260200160002060010160006101000a81548173ffffffffffffffffffffffffffffffffffffffff021916908373ffffffffffffffffffffffffffffffffffffffff16021790555088600d60008e73ffffffffffffffffffffffffffffffffffffffff1673ffffffffffffffffffffffffffffffffffffffff16815260200190815260200160002060008d815260200190815260200160002060010160146101000a81548163ffffffff021916908363ffffffff16021790555087600d60008e73ffffffffffffffffffffffffffffffffffffffff1673ffffffffffffffffffffffffffffffffffffffff16815260200190815260200160002060008d815260200190815260200160002060010160186101000a81548160ff021916908360ff16021790555086600d60008e73ffffffffffffffffffffffffffffffffffffffff1673ffffffffffffffffffffffffffffffffffffffff16815260200190815260200160002060008d815260200190815260200160002060010160196101000a81548160ff02191690836002811115610c2057610c1f612649565b5b021790555085600d60008e73ffffffffffffffffffffffffffffffffffffffff1673ffffffffffffffffffffffffffffffffffffffff16815260200190815260200160002060008d81526020019081526020016000206002019080519060200190610c8c929190611b79565b5084600d60008e73ffffffffffffffffffffffffffffffffffffffff1673ffffffffffffffffffffffffffffffffffffffff16815260200190815260200160002060008d81526020019081526020016000206003018190555083600d60008e73ffffffffffffffffffffffffffffffffffffffff1673ffffffffffffffffffffffffffffffffffffffff16815260200190815260200160002060008d81526020019081526020016000206004018190555082600d60008e73ffffffffffffffffffffffffffffffffffffffff1673ffffffffffffffffffffffffffffffffffffffff16815260200190815260200160002060008d815260200190815260200160002060050160006101000a81548160ff021916908360ff1602179055508760ff16600d60008e73ffffffffffffffffffffffffffffffffffffffff1673ffffffffffffffffffffffffffffffffffffffff16815260200190815260200160002060008d815260200190815260200160002060050160016101000a81548163ffffffff021916908363ffffffff16021790555042600d60008e73ffffffffffffffffffffffffffffffffffffffff1673ffffffffffffffffffffffffffffffffffffffff16815260200190815260200160002060008d8152602001908152602001600020600601600001819055506001600d60008e73ffffffffffffffffffffffffffffffffffffffff1673ffffffffffffffffffffffffffffffffffffffff16815260200190815260200160002060008d815260200190815260200160002060060160010160146101000a81548160ff02191690836002811115610ef357610ef2612649565b5b021790555033600d60008e73ffffffffffffffffffffffffffffffffffffffff1673ffffffffffffffffffffffffffffffffffffffff16815260200190815260200160002060008d815260200190815260200160002060060160010160006101000a81548173ffffffffffffffffffffffffffffffffffffffff021916908373ffffffffffffffffffffffffffffffffffffffff1602179055507f97a8618b4c3e1bbef6226b887ae721d63d275f7a7d596ba44e9ef2fb1309cce08c8b8b8b604051610fc2949392919061211e565b60405180910390a18a90509b9a5050505050505050505050565b60086020528060005260406000206000915090508060000160009054906101000a900460ff16908060010180546110129061256e565b80601f016020809104026020016040519081016040528092919081815260200182805461103e9061256e565b801561108b5780601f106110605761010080835404028352916020019161108b565b820191906000526020600020905b81548152906001019060200180831161106e57829003601f168201915b5050505050908060020160009054906101000a900460ff16905083565b60096020528060005260406000206000915090508060000160009054906101000a900460ff16908060010180546110de9061256e565b80601f016020809104026020016040519081016040528092919081815260200182805461110a9061256e565b80156111575780601f1061112c57610100808354040283529160200191611157565b820191906000526020600020905b81548152906001019060200180831161113a57829003601f168201915b5050505050908060020160009054906101000a900460ff16905083565b600b6020528060005260406000206000915090508060000160009054906101000a900463ffffffff16908060010180546111ad9061256e565b80601f01602080910402602001604051908101604052809291908181526020018280546111d99061256e565b80156112265780601f106111fb57610100808354040283529160200191611226565b820191906000526020600020905b81548152906001019060200180831161120957829003601f168201915b5050505050905082565b600c5481565b600460003373ffffffffffffffffffffffffffffffffffffffff1673ffffffffffffffffffffffffffffffffffffffff16815260200190815260200160002060000160009054906101000a900460ff16806112dd5750600660003373ffffffffffffffffffffffffffffffffffffffff1673ffffffffffffffffffffffffffffffffffffffff16815260200190815260200160002060000160009054906101000a900460ff165b806113345750600860003373ffffffffffffffffffffffffffffffffffffffff1673ffffffffffffffffffffffffffffffffffffffff16815260200190815260200160002060000160009054906101000a900460ff165b611373576040517f08c379a000000000000000000000000000000000000000000000000000000000815260040161136a90612297565b60405180910390fd5b600360008b73ffffffffffffffffffffffffffffffffffffffff1673ffffffffffffffffffffffffffffffffffffffff16815260200190815260200160002060000160009054906101000a900460ff16611402576040517f08c379a00000000000000000000000000000000000000000000000000000000081526004016113f990612277565b60405180910390fd5b6000600c6000815480929190611417906125d1565b91905055905089600d60008d73ffffffffffffffffffffffffffffffffffffffff1673ffffffffffffffffffffffffffffffffffffffff168152602001908152602001600020600083815260200190815260200160002060010160006101000a81548173ffffffffffffffffffffffffffffffffffffffff021916908373ffffffffffffffffffffffffffffffffffffffff16021790555088600d60008d73ffffffffffffffffffffffffffffffffffffffff1673ffffffffffffffffffffffffffffffffffffffff168152602001908152602001600020600083815260200190815260200160002060010160146101000a81548163ffffffff021916908363ffffffff16021790555087600d60008d73ffffffffffffffffffffffffffffffffffffffff1673ffffffffffffffffffffffffffffffffffffffff168152602001908152602001600020600083815260200190815260200160002060010160186101000a81548160ff021916908360ff16021790555086600d60008d73ffffffffffffffffffffffffffffffffffffffff1673ffffffffffffffffffffffffffffffffffffffff168152602001908152602001600020600083815260200190815260200160002060010160196101000a81548160ff0219169083600281111561160357611602612649565b5b021790555085600d60008d73ffffffffffffffffffffffffffffffffffffffff1673ffffffffffffffffffffffffffffffffffffffff1681526020019081526020016000206000838152602001908152602001600020600201908051906020019061166f929190611b79565b5084600d60008d73ffffffffffffffffffffffffffffffffffffffff1673ffffffffffffffffffffffffffffffffffffffff16815260200190815260200160002060008381526020019081526020016000206003018190555083600d60008d73ffffffffffffffffffffffffffffffffffffffff1673ffffffffffffffffffffffffffffffffffffffff16815260200190815260200160002060008381526020019081526020016000206004018190555082600d60008d73ffffffffffffffffffffffffffffffffffffffff1673ffffffffffffffffffffffffffffffffffffffff168152602001908152602001600020600083815260200190815260200160002060050160006101000a81548160ff021916908360ff1602179055508760ff16600d60008d73ffffffffffffffffffffffffffffffffffffffff1673ffffffffffffffffffffffffffffffffffffffff168152602001908152602001600020600083815260200190815260200160002060050160016101000a81548163ffffffff021916908363ffffffff16021790555042600d60008d73ffffffffffffffffffffffffffffffffffffffff1673ffffffffffffffffffffffffffffffffffffffff1681526020019081526020016000206000838152602001908152602001600020600601600001819055506001600d60008d73ffffffffffffffffffffffffffffffffffffffff1673ffffffffffffffffffffffffffffffffffffffff168152602001908152602001600020600083815260200190815260200160002060060160010160146101000a81548160ff021916908360028111156118d6576118d5612649565b5b021790555033600d60008d73ffffffffffffffffffffffffffffffffffffffff1673ffffffffffffffffffffffffffffffffffffffff168152602001908152602001600020600083815260200190815260200160002060060160010160006101000a81548173ffffffffffffffffffffffffffffffffffffffff021916908373ffffffffffffffffffffffffffffffffffffffff1602179055507fae2424f93616cc7fc3303332cdda5353231f2dc90a87b1e0b507a25e53ac01358b8b8b8b6040516119a5949392919061211e565b60405180910390a15050505050505050505050565b60056020528060005260406000206000915090508060000160009054906101000a900460ff16908060000160019054906101000a900473ffffffffffffffffffffffffffffffffffffffff16908060000160159054906101000a900461ffff16908060000160179054906101000a900460ff1690806001018054611a3d9061256e565b80601f0160208091040260200160405190810160405280929190818152602001828054611a699061256e565b8015611ab65780601f10611a8b57610100808354040283529160200191611ab6565b820191906000526020600020905b815481529060010190602001808311611a9957829003601f168201915b505050505090806002018054611acb9061256e565b80601f0160208091040260200160405190810160405280929190818152602001828054611af79061256e565b8015611b445780601f10611b1957610100808354040283529160200191611b44565b820191906000526020600020905b815481529060010190602001808311611b2757829003601f168201915b5050505050905086565b60036020528060005260406000206000915090508060000160009054906101000a900460ff16905081565b828054611b859061256e565b90600052602060002090601f016020900481019282611ba75760008555611bee565b82601f10611bc057805160ff1916838001178555611bee565b82800160010185558215611bee579182015b82811115611bed578251825591602001919060010190611bd2565b5b509050611bfb9190611bff565b5090565b5b80821115611c18576000816000905550600101611c00565b5090565b6000611c2f611c2a846123d9565b6123b4565b905082815260208101848484011115611c4b57611c4a6126db565b5b611c5684828561252c565b509392505050565b600081359050611c6d81612789565b92915050565b600081359050611c82816127a0565b92915050565b600082601f830112611c9d57611c9c6126d6565b5b8135611cad848260208601611c1c565b91505092915050565b600081359050611cc5816127b0565b92915050565b600081359050611cda816127c7565b92915050565b600081359050611cef816127de565b92915050565b600060208284031215611d0b57611d0a6126e5565b5b6000611d1984828501611c5e565b91505092915050565b6000806000806000806000806000806101408b8d031215611d4657611d456126e5565b5b6000611d548d828e01611c5e565b9a50506020611d658d828e01611c5e565b9950506040611d768d828e01611ccb565b9850506060611d878d828e01611ce0565b9750506080611d988d828e01611c73565b96505060a08b013567ffffffffffffffff811115611db957611db86126e0565b5b611dc58d828e01611c88565b95505060c0611dd68d828e01611cb6565b94505060e0611de78d828e01611cb6565b935050610100611df98d828e01611ce0565b925050610120611e0b8d828e01611ccb565b9150509295989b9194979a5092959850565b60008060408385031215611e3457611e336126e5565b5b6000611e4285828601611c5e565b9250506020611e5385828601611cb6565b9150509250929050565b60008060008060008060008060008060006101608c8e031215611e8357611e826126e5565b5b6000611e918e828f01611c5e565b9b50506020611ea28e828f01611cb6565b9a50506040611eb38e828f01611c5e565b9950506060611ec48e828f01611ccb565b9850506080611ed58e828f01611ce0565b97505060a0611ee68e828f01611c73565b96505060c08c013567ffffffffffffffff811115611f0757611f066126e0565b5b611f138e828f01611c88565b95505060e0611f248e828f01611cb6565b945050610100611f368e828f01611cb6565b935050610120611f488e828f01611ce0565b925050610140611f5a8e828f01611ccb565b9150509295989b509295989b9093969950565b600060208284031215611f8357611f826126e5565b5b6000611f9184828501611ccb565b91505092915050565b611fa381612426565b82525050565b611fb281612426565b82525050565b611fc181612438565b82525050565b611fd0816124d2565b82525050565b611fdf816124e4565b82525050565b611fee816124f6565b82525050565b6000611fff8261240a565b6120098185612415565b935061201981856020860161253b565b612022816126ea565b840191505092915050565b600061203a601283612415565b9150612045826126fb565b602082019050919050565b600061205d602083612415565b915061206882612724565b602082019050919050565b60608201600082015161208960008501826120c4565b50602082015161209c6020850182611f9a565b5060408201516120af6040850182611fd6565b50505050565b6120be8161247d565b82525050565b6120cd816124ab565b82525050565b6120dc816124ab565b82525050565b6120eb81612508565b82525050565b6120fa816124b5565b82525050565b6121098161251a565b82525050565b612118816124c5565b82525050565b60006080820190506121336000830187611fa9565b6121406020830186611fa9565b61214d60408301856120e2565b61215a6060830184612100565b95945050505050565b60006020820190506121786000830184611fb8565b92915050565b600060c0820190506121936000830189611fb8565b6121a06020830188611fa9565b6121ad60408301876120b5565b6121ba6060830186611fe5565b81810360808301526121cc8185611ff4565b905081810360a08301526121e08184611ff4565b9050979650505050505050565b60006060820190506122026000830186611fb8565b81810360208301526122148185611ff4565b9050612223604083018461210f565b949350505050565b60006080820190506122406000830187611fb8565b61224d602083018661210f565b61225a60408301856120d3565b818103606083015261226c8184611ff4565b905095945050505050565b600060208201905081810360008301526122908161202d565b9050919050565b600060208201905081810360008301526122b081612050565b9050919050565b60006020820190506122cc60008301846120d3565b92915050565b60006101a0820190506122e8600083018e6120d3565b6122f5602083018d611fa9565b612302604083018c6120f1565b61230f606083018b61210f565b61231c608083018a611fc7565b81810360a083015261232e8189611ff4565b905061233d60c08301886120d3565b61234a60e08301876120d3565b61235861010083018661210f565b6123666101208301856120f1565b612374610140830184612073565b9c9b505050505050505050505050565b600060408201905061239960008301856120f1565b81810360208301526123ab8184611ff4565b90509392505050565b60006123be6123cf565b90506123ca82826125a0565b919050565b6000604051905090565b600067ffffffffffffffff8211156123f4576123f36126a7565b5b6123fd826126ea565b9050602081019050919050565b600081519050919050565b600082825260208201905092915050565b60006124318261248b565b9050919050565b60008115159050919050565b60008190506124528261274d565b919050565b600081905061246582612761565b919050565b600081905061247882612775565b919050565b600061ffff82169050919050565b600073ffffffffffffffffffffffffffffffffffffffff82169050919050565b6000819050919050565b600063ffffffff82169050919050565b600060ff82169050919050565b60006124dd82612444565b9050919050565b60006124ef82612457565b9050919050565b60006125018261246a565b9050919050565b6000612513826124b5565b9050919050565b6000612525826124c5565b9050919050565b82818337600083830152505050565b60005b8381101561255957808201518184015260208101905061253e565b83811115612568576000848401525b50505050565b6000600282049050600182168061258657607f821691505b6020821081141561259a57612599612678565b5b50919050565b6125a9826126ea565b810181811067ffffffffffffffff821117156125c8576125c76126a7565b5b80604052505050565b60006125dc826124ab565b91507fffffffffffffffffffffffffffffffffffffffffffffffffffffffffffffffff82141561260f5761260e61261a565b5b600182019050919050565b7f4e487b7100000000000000000000000000000000000000000000000000000000600052601160045260246000fd5b7f4e487b7100000000000000000000000000000000000000000000000000000000600052602160045260246000fd5b7f4e487b7100000000000000000000000000000000000000000000000000000000600052602260045260246000fd5b7f4e487b7100000000000000000000000000000000000000000000000000000000600052604160045260246000fd5b600080fd5b600080fd5b600080fd5b600080fd5b6000601f19601f8301169050919050565b7f53747564656e74206e6f74206578697374730000000000000000000000000000600082015250565b7f42752069736c656d6920736164656365204b757273207961706162696c69722e600082015250565b6003811061275e5761275d612649565b5b50565b6003811061277257612771612649565b5b50565b6004811061278657612785612649565b5b50565b61279281612426565b811461279d57600080fd5b50565b600381106127ad57600080fd5b50565b6127b9816124ab565b81146127c457600080fd5b50565b6127d0816124b5565b81146127db57600080fd5b50565b6127e7816124c5565b81146127f257600080fd5b5056fea2646970667358221220d98334e9a193cf7cdce5338ae6098c9febc910b7cc84bcd17c51a3f810b9718c64736f6c63430008070033",
					"opcodes": "PUSH1 0x80 PUSH1 0x40 MSTORE CALLVALUE DUP1 ISZERO PUSH2 0x10 JUMPI PUSH1 0x0 DUP1 REVERT JUMPDEST POP PUSH2 0x282B DUP1 PUSH2 0x20 PUSH1 0x0 CODECOPY PUSH1 0x0 RETURN INVALID PUSH1 0x80 PUSH1 0x40 MSTORE CALLVALUE DUP1 ISZERO PUSH2 0x10 JUMPI PUSH1 0x0 DUP1 REVERT JUMPDEST POP PUSH1 0x4 CALLDATASIZE LT PUSH2 0xCF JUMPI PUSH1 0x0 CALLDATALOAD PUSH1 0xE0 SHR DUP1 PUSH4 0x7D0FA287 GT PUSH2 0x8C JUMPI DUP1 PUSH4 0xAF640D0F GT PUSH2 0x66 JUMPI DUP1 PUSH4 0xAF640D0F EQ PUSH2 0x29C JUMPI DUP1 PUSH4 0xB34B5539 EQ PUSH2 0x2BA JUMPI DUP1 PUSH4 0xBA479B7E EQ PUSH2 0x2D6 JUMPI DUP1 PUSH4 0xCBC92809 EQ PUSH2 0x30B JUMPI PUSH2 0xCF JUMP JUMPDEST DUP1 PUSH4 0x7D0FA287 EQ PUSH2 0x207 JUMPI DUP1 PUSH4 0x9A8C9119 EQ PUSH2 0x239 JUMPI DUP1 PUSH4 0xA4E7AE05 EQ PUSH2 0x26B JUMPI PUSH2 0xCF JUMP JUMPDEST DUP1 PUSH4 0xFB0B1B2 EQ PUSH2 0xD4 JUMPI DUP1 PUSH4 0x1916E139 EQ PUSH2 0x10E JUMPI DUP1 PUSH4 0x28266697 EQ PUSH2 0x140 JUMPI DUP1 PUSH4 0x356B1F1E EQ PUSH2 0x172 JUMPI DUP1 PUSH4 0x39987F94 EQ PUSH2 0x1A4 JUMPI DUP1 PUSH4 0x7B6524FE EQ PUSH2 0x1D7 JUMPI JUMPDEST PUSH1 0x0 DUP1 REVERT JUMPDEST PUSH2 0xEE PUSH1 0x4 DUP1 CALLDATASIZE SUB DUP2 ADD SWAP1 PUSH2 0xE9 SWAP2 SWAP1 PUSH2 0x1E1D JUMP JUMPDEST PUSH2 0x33B JUMP JUMPDEST PUSH1 0x40 MLOAD PUSH2 0x105 SWAP12 SWAP11 SWAP10 SWAP9 SWAP8 SWAP7 SWAP6 SWAP5 SWAP4 SWAP3 SWAP2 SWAP1 PUSH2 0x22D2 JUMP JUMPDEST PUSH1 0x40 MLOAD DUP1 SWAP2 SUB SWAP1 RETURN JUMPDEST PUSH2 0x128 PUSH1 0x4 DUP1 CALLDATASIZE SUB DUP2 ADD SWAP1 PUSH2 0x123 SWAP2 SWAP1 PUSH2 0x1CF5 JUMP JUMPDEST PUSH2 0x536 JUMP JUMPDEST PUSH1 0x40 MLOAD PUSH2 0x137 SWAP4 SWAP3 SWAP2 SWAP1 PUSH2 0x21ED JUMP JUMPDEST PUSH1 0x40 MLOAD DUP1 SWAP2 SUB SWAP1 RETURN JUMPDEST PUSH2 0x15A PUSH1 0x4 DUP1 CALLDATASIZE SUB DUP2 ADD SWAP1 PUSH2 0x155 SWAP2 SWAP1 PUSH2 0x1CF5 JUMP JUMPDEST PUSH2 0x602 JUMP JUMPDEST PUSH1 0x40 MLOAD PUSH2 0x169 SWAP4 SWAP3 SWAP2 SWAP1 PUSH2 0x21ED JUMP JUMPDEST PUSH1 0x40 MLOAD DUP1 SWAP2 SUB SWAP1 RETURN JUMPDEST PUSH2 0x18C PUSH1 0x4 DUP1 CALLDATASIZE SUB DUP2 ADD SWAP1 PUSH2 0x187 SWAP2 SWAP1 PUSH2 0x1CF5 JUMP JUMPDEST PUSH2 0x6CE JUMP JUMPDEST PUSH1 0x40 MLOAD PUSH2 0x19B SWAP4 SWAP3 SWAP2 SWAP1 PUSH2 0x21ED JUMP JUMPDEST PUSH1 0x40 MLOAD DUP1 SWAP2 SUB SWAP1 RETURN JUMPDEST PUSH2 0x1BE PUSH1 0x4 DUP1 CALLDATASIZE SUB DUP2 ADD SWAP1 PUSH2 0x1B9 SWAP2 SWAP1 PUSH2 0x1CF5 JUMP JUMPDEST PUSH2 0x79A JUMP JUMPDEST PUSH1 0x40 MLOAD PUSH2 0x1CE SWAP5 SWAP4 SWAP3 SWAP2 SWAP1 PUSH2 0x222B JUMP JUMPDEST PUSH1 0x40 MLOAD DUP1 SWAP2 SUB SWAP1 RETURN JUMPDEST PUSH2 0x1F1 PUSH1 0x4 DUP1 CALLDATASIZE SUB DUP2 ADD SWAP1 PUSH2 0x1EC SWAP2 SWAP1 PUSH2 0x1E5D JUMP JUMPDEST PUSH2 0x86C JUMP JUMPDEST PUSH1 0x40 MLOAD PUSH2 0x1FE SWAP2 SWAP1 PUSH2 0x22B7 JUMP JUMPDEST PUSH1 0x40 MLOAD DUP1 SWAP2 SUB SWAP1 RETURN JUMPDEST PUSH2 0x221 PUSH1 0x4 DUP1 CALLDATASIZE SUB DUP2 ADD SWAP1 PUSH2 0x21C SWAP2 SWAP1 PUSH2 0x1CF5 JUMP JUMPDEST PUSH2 0xFDC JUMP JUMPDEST PUSH1 0x40 MLOAD PUSH2 0x230 SWAP4 SWAP3 SWAP2 SWAP1 PUSH2 0x21ED JUMP JUMPDEST PUSH1 0x40 MLOAD DUP1 SWAP2 SUB SWAP1 RETURN JUMPDEST PUSH2 0x253 PUSH1 0x4 DUP1 CALLDATASIZE SUB DUP2 ADD SWAP1 PUSH2 0x24E SWAP2 SWAP1 PUSH2 0x1CF5 JUMP JUMPDEST PUSH2 0x10A8 JUMP JUMPDEST PUSH1 0x40 MLOAD PUSH2 0x262 SWAP4 SWAP3 SWAP2 SWAP1 PUSH2 0x21ED JUMP JUMPDEST PUSH1 0x40 MLOAD DUP1 SWAP2 SUB SWAP1 RETURN JUMPDEST PUSH2 0x285 PUSH1 0x4 DUP1 CALLDATASIZE SUB DUP2 ADD SWAP1 PUSH2 0x280 SWAP2 SWAP1 PUSH2 0x1F6D JUMP JUMPDEST PUSH2 0x1174 JUMP JUMPDEST PUSH1 0x40 MLOAD PUSH2 0x293 SWAP3 SWAP2 SWAP1 PUSH2 0x2384 JUMP JUMPDEST PUSH1 0x40 MLOAD DUP1 SWAP2 SUB SWAP1 RETURN JUMPDEST PUSH2 0x2A4 PUSH2 0x1230 JUMP JUMPDEST PUSH1 0x40 MLOAD PUSH2 0x2B1 SWAP2 SWAP1 PUSH2 0x22B7 JUMP JUMPDEST PUSH1 0x40 MLOAD DUP1 SWAP2 SUB SWAP1 RETURN JUMPDEST PUSH2 0x2D4 PUSH1 0x4 DUP1 CALLDATASIZE SUB DUP2 ADD SWAP1 PUSH2 0x2CF SWAP2 SWAP1 PUSH2 0x1D22 JUMP JUMPDEST PUSH2 0x1236 JUMP JUMPDEST STOP JUMPDEST PUSH2 0x2F0 PUSH1 0x4 DUP1 CALLDATASIZE SUB DUP2 ADD SWAP1 PUSH2 0x2EB SWAP2 SWAP1 PUSH2 0x1CF5 JUMP JUMPDEST PUSH2 0x19BA JUMP JUMPDEST PUSH1 0x40 MLOAD PUSH2 0x302 SWAP7 SWAP6 SWAP5 SWAP4 SWAP3 SWAP2 SWAP1 PUSH2 0x217E JUMP JUMPDEST PUSH1 0x40 MLOAD DUP1 SWAP2 SUB SWAP1 RETURN JUMPDEST PUSH2 0x325 PUSH1 0x4 DUP1 CALLDATASIZE SUB DUP2 ADD SWAP1 PUSH2 0x320 SWAP2 SWAP1 PUSH2 0x1CF5 JUMP JUMPDEST PUSH2 0x1B4E JUMP JUMPDEST PUSH1 0x40 MLOAD PUSH2 0x332 SWAP2 SWAP1 PUSH2 0x2163 JUMP JUMPDEST PUSH1 0x40 MLOAD DUP1 SWAP2 SUB SWAP1 RETURN JUMPDEST PUSH1 0xD PUSH1 0x20 MSTORE DUP2 PUSH1 0x0 MSTORE PUSH1 0x40 PUSH1 0x0 KECCAK256 PUSH1 0x20 MSTORE DUP1 PUSH1 0x0 MSTORE PUSH1 0x40 PUSH1 0x0 KECCAK256 PUSH1 0x0 SWAP2 POP SWAP2 POP POP DUP1 PUSH1 0x0 ADD SLOAD SWAP1 DUP1 PUSH1 0x1 ADD PUSH1 0x0 SWAP1 SLOAD SWAP1 PUSH2 0x100 EXP SWAP1 DIV PUSH20 0xFFFFFFFFFFFFFFFFFFFFFFFFFFFFFFFFFFFFFFFF AND SWAP1 DUP1 PUSH1 0x1 ADD PUSH1 0x14 SWAP1 SLOAD SWAP1 PUSH2 0x100 EXP SWAP1 DIV PUSH4 0xFFFFFFFF AND SWAP1 DUP1 PUSH1 0x1 ADD PUSH1 0x18 SWAP1 SLOAD SWAP1 PUSH2 0x100 EXP SWAP1 DIV PUSH1 0xFF AND SWAP1 DUP1 PUSH1 0x1 ADD PUSH1 0x19 SWAP1 SLOAD SWAP1 PUSH2 0x100 EXP SWAP1 DIV PUSH1 0xFF AND SWAP1 DUP1 PUSH1 0x2 ADD DUP1 SLOAD PUSH2 0x3D3 SWAP1 PUSH2 0x256E JUMP JUMPDEST DUP1 PUSH1 0x1F ADD PUSH1 0x20 DUP1 SWAP2 DIV MUL PUSH1 0x20 ADD PUSH1 0x40 MLOAD SWAP1 DUP2 ADD PUSH1 0x40 MSTORE DUP1 SWAP3 SWAP2 SWAP1 DUP2 DUP2 MSTORE PUSH1 0x20 ADD DUP3 DUP1 SLOAD PUSH2 0x3FF SWAP1 PUSH2 0x256E JUMP JUMPDEST DUP1 ISZERO PUSH2 0x44C JUMPI DUP1 PUSH1 0x1F LT PUSH2 0x421 JUMPI PUSH2 0x100 DUP1 DUP4 SLOAD DIV MUL DUP4 MSTORE SWAP2 PUSH1 0x20 ADD SWAP2 PUSH2 0x44C JUMP JUMPDEST DUP3 ADD SWAP2 SWAP1 PUSH1 0x0 MSTORE PUSH1 0x20 PUSH1 0x0 KECCAK256 SWAP1 JUMPDEST DUP2 SLOAD DUP2 MSTORE SWAP1 PUSH1 0x1 ADD SWAP1 PUSH1 0x20 ADD DUP1 DUP4 GT PUSH2 0x42F JUMPI DUP3 SWAP1 SUB PUSH1 0x1F AND DUP3 ADD SWAP2 JUMPDEST POP POP POP POP POP SWAP1 DUP1 PUSH1 0x3 ADD SLOAD SWAP1 DUP1 PUSH1 0x4 ADD SLOAD SWAP1 DUP1 PUSH1 0x5 ADD PUSH1 0x0 SWAP1 SLOAD SWAP1 PUSH2 0x100 EXP SWAP1 DIV PUSH1 0xFF AND SWAP1 DUP1 PUSH1 0x5 ADD PUSH1 0x1 SWAP1 SLOAD SWAP1 PUSH2 0x100 EXP SWAP1 DIV PUSH4 0xFFFFFFFF AND SWAP1 DUP1 PUSH1 0x6 ADD PUSH1 0x40 MLOAD DUP1 PUSH1 0x60 ADD PUSH1 0x40 MSTORE SWAP1 DUP2 PUSH1 0x0 DUP3 ADD SLOAD DUP2 MSTORE PUSH1 0x20 ADD PUSH1 0x1 DUP3 ADD PUSH1 0x0 SWAP1 SLOAD SWAP1 PUSH2 0x100 EXP SWAP1 DIV PUSH20 0xFFFFFFFFFFFFFFFFFFFFFFFFFFFFFFFFFFFFFFFF AND PUSH20 0xFFFFFFFFFFFFFFFFFFFFFFFFFFFFFFFFFFFFFFFF AND PUSH20 0xFFFFFFFFFFFFFFFFFFFFFFFFFFFFFFFFFFFFFFFF AND DUP2 MSTORE PUSH1 0x20 ADD PUSH1 0x1 DUP3 ADD PUSH1 0x14 SWAP1 SLOAD SWAP1 PUSH2 0x100 EXP SWAP1 DIV PUSH1 0xFF AND PUSH1 0x2 DUP2 GT ISZERO PUSH2 0x51B JUMPI PUSH2 0x51A PUSH2 0x2649 JUMP JUMPDEST JUMPDEST PUSH1 0x2 DUP2 GT ISZERO PUSH2 0x52D JUMPI PUSH2 0x52C PUSH2 0x2649 JUMP JUMPDEST JUMPDEST DUP2 MSTORE POP POP SWAP1 POP DUP12 JUMP JUMPDEST PUSH1 0x7 PUSH1 0x20 MSTORE DUP1 PUSH1 0x0 MSTORE PUSH1 0x40 PUSH1 0x0 KECCAK256 PUSH1 0x0 SWAP2 POP SWAP1 POP DUP1 PUSH1 0x0 ADD PUSH1 0x0 SWAP1 SLOAD SWAP1 PUSH2 0x100 EXP SWAP1 DIV PUSH1 0xFF AND SWAP1 DUP1 PUSH1 0x1 ADD DUP1 SLOAD PUSH2 0x56C SWAP1 PUSH2 0x256E JUMP JUMPDEST DUP1 PUSH1 0x1F ADD PUSH1 0x20 DUP1 SWAP2 DIV MUL PUSH1 0x20 ADD PUSH1 0x40 MLOAD SWAP1 DUP2 ADD PUSH1 0x40 MSTORE DUP1 SWAP3 SWAP2 SWAP1 DUP2 DUP2 MSTORE PUSH1 0x20 ADD DUP3 DUP1 SLOAD PUSH2 0x598 SWAP1 PUSH2 0x256E JUMP JUMPDEST DUP1 ISZERO PUSH2 0x5E5 JUMPI DUP1 PUSH1 0x1F LT PUSH2 0x5BA JUMPI PUSH2 0x100 DUP1 DUP4 SLOAD DIV MUL DUP4 MSTORE SWAP2 PUSH1 0x20 ADD SWAP2 PUSH2 0x5E5 JUMP JUMPDEST DUP3 ADD SWAP2 SWAP1 PUSH1 0x0 MSTORE PUSH1 0x20 PUSH1 0x0 KECCAK256 SWAP1 JUMPDEST DUP2 SLOAD DUP2 MSTORE SWAP1 PUSH1 0x1 ADD SWAP1 PUSH1 0x20 ADD DUP1 DUP4 GT PUSH2 0x5C8 JUMPI DUP3 SWAP1 SUB PUSH1 0x1F AND DUP3 ADD SWAP2 JUMPDEST POP POP POP POP POP SWAP1 DUP1 PUSH1 0x2 ADD PUSH1 0x0 SWAP1 SLOAD SWAP1 PUSH2 0x100 EXP SWAP1 DIV PUSH1 0xFF AND SWAP1 POP DUP4 JUMP JUMPDEST PUSH1 0x4 PUSH1 0x20 MSTORE DUP1 PUSH1 0x0 MSTORE PUSH1 0x40 PUSH1 0x0 KECCAK256 PUSH1 0x0 SWAP2 POP SWAP1 POP DUP1 PUSH1 0x0 ADD PUSH1 0x0 SWAP1 SLOAD SWAP1 PUSH2 0x100 EXP SWAP1 DIV PUSH1 0xFF AND SWAP1 DUP1 PUSH1 0x1 ADD DUP1 SLOAD PUSH2 0x638 SWAP1 PUSH2 0x256E JUMP JUMPDEST DUP1 PUSH1 0x1F ADD PUSH1 0x20 DUP1 SWAP2 DIV MUL PUSH1 0x20 ADD PUSH1 0x40 MLOAD SWAP1 DUP2 ADD PUSH1 0x40 MSTORE DUP1 SWAP3 SWAP2 SWAP1 DUP2 DUP2 MSTORE PUSH1 0x20 ADD DUP3 DUP1 SLOAD PUSH2 0x664 SWAP1 PUSH2 0x256E JUMP JUMPDEST DUP1 ISZERO PUSH2 0x6B1 JUMPI DUP1 PUSH1 0x1F LT PUSH2 0x686 JUMPI PUSH2 0x100 DUP1 DUP4 SLOAD DIV MUL DUP4 MSTORE SWAP2 PUSH1 0x20 ADD SWAP2 PUSH2 0x6B1 JUMP JUMPDEST DUP3 ADD SWAP2 SWAP1 PUSH1 0x0 MSTORE PUSH1 0x20 PUSH1 0x0 KECCAK256 SWAP1 JUMPDEST DUP2 SLOAD DUP2 MSTORE SWAP1 PUSH1 0x1 ADD SWAP1 PUSH1 0x20 ADD DUP1 DUP4 GT PUSH2 0x694 JUMPI DUP3 SWAP1 SUB PUSH1 0x1F AND DUP3 ADD SWAP2 JUMPDEST POP POP POP POP POP SWAP1 DUP1 PUSH1 0x2 ADD PUSH1 0x0 SWAP1 SLOAD SWAP1 PUSH2 0x100 EXP SWAP1 DIV PUSH1 0xFF AND SWAP1 POP DUP4 JUMP JUMPDEST PUSH1 0xA PUSH1 0x20 MSTORE DUP1 PUSH1 0x0 MSTORE PUSH1 0x40 PUSH1 0x0 KECCAK256 PUSH1 0x0 SWAP2 POP SWAP1 POP DUP1 PUSH1 0x0 ADD PUSH1 0x0 SWAP1 SLOAD SWAP1 PUSH2 0x100 EXP SWAP1 DIV PUSH1 0xFF AND SWAP1 DUP1 PUSH1 0x1 ADD DUP1 SLOAD PUSH2 0x704 SWAP1 PUSH2 0x256E JUMP JUMPDEST DUP1 PUSH1 0x1F ADD PUSH1 0x20 DUP1 SWAP2 DIV MUL PUSH1 0x20 ADD PUSH1 0x40 MLOAD SWAP1 DUP2 ADD PUSH1 0x40 MSTORE DUP1 SWAP3 SWAP2 SWAP1 DUP2 DUP2 MSTORE PUSH1 0x20 ADD DUP3 DUP1 SLOAD PUSH2 0x730 SWAP1 PUSH2 0x256E JUMP JUMPDEST DUP1 ISZERO PUSH2 0x77D JUMPI DUP1 PUSH1 0x1F LT PUSH2 0x752 JUMPI PUSH2 0x100 DUP1 DUP4 SLOAD DIV MUL DUP4 MSTORE SWAP2 PUSH1 0x20 ADD SWAP2 PUSH2 0x77D JUMP JUMPDEST DUP3 ADD SWAP2 SWAP1 PUSH1 0x0 MSTORE PUSH1 0x20 PUSH1 0x0 KECCAK256 SWAP1 JUMPDEST DUP2 SLOAD DUP2 MSTORE SWAP1 PUSH1 0x1 ADD SWAP1 PUSH1 0x20 ADD DUP1 DUP4 GT PUSH2 0x760 JUMPI DUP3 SWAP1 SUB PUSH1 0x1F AND DUP3 ADD SWAP2 JUMPDEST POP POP POP POP POP SWAP1 DUP1 PUSH1 0x2 ADD PUSH1 0x0 SWAP1 SLOAD SWAP1 PUSH2 0x100 EXP SWAP1 DIV PUSH1 0xFF AND SWAP1 POP DUP4 JUMP JUMPDEST PUSH1 0x6 PUSH1 0x20 MSTORE DUP1 PUSH1 0x0 MSTORE PUSH1 0x40 PUSH1 0x0 KECCAK256 PUSH1 0x0 SWAP2 POP SWAP1 POP DUP1 PUSH1 0x0 ADD PUSH1 0x0 SWAP1 SLOAD SWAP1 PUSH2 0x100 EXP SWAP1 DIV PUSH1 0xFF AND SWAP1 DUP1 PUSH1 0x0 ADD PUSH1 0x1 SWAP1 SLOAD SWAP1 PUSH2 0x100 EXP SWAP1 DIV PUSH1 0xFF AND SWAP1 DUP1 PUSH1 0x1 ADD SLOAD SWAP1 DUP1 PUSH1 0x2 ADD DUP1 SLOAD PUSH2 0x7E9 SWAP1 PUSH2 0x256E JUMP JUMPDEST DUP1 PUSH1 0x1F ADD PUSH1 0x20 DUP1 SWAP2 DIV MUL PUSH1 0x20 ADD PUSH1 0x40 MLOAD SWAP1 DUP2 ADD PUSH1 0x40 MSTORE DUP1 SWAP3 SWAP2 SWAP1 DUP2 DUP2 MSTORE PUSH1 0x20 ADD DUP3 DUP1 SLOAD PUSH2 0x815 SWAP1 PUSH2 0x256E JUMP JUMPDEST DUP1 ISZERO PUSH2 0x862 JUMPI DUP1 PUSH1 0x1F LT PUSH2 0x837 JUMPI PUSH2 0x100 DUP1 DUP4 SLOAD DIV MUL DUP4 MSTORE SWAP2 PUSH1 0x20 ADD SWAP2 PUSH2 0x862 JUMP JUMPDEST DUP3 ADD SWAP2 SWAP1 PUSH1 0x0 MSTORE PUSH1 0x20 PUSH1 0x0 KECCAK256 SWAP1 JUMPDEST DUP2 SLOAD DUP2 MSTORE SWAP1 PUSH1 0x1 ADD SWAP1 PUSH1 0x20 ADD DUP1 DUP4 GT PUSH2 0x845 JUMPI DUP3 SWAP1 SUB PUSH1 0x1F AND DUP3 ADD SWAP2 JUMPDEST POP POP POP POP POP SWAP1 POP DUP5 JUMP JUMPDEST PUSH1 0x0 PUSH1 0x4 PUSH1 0x0 CALLER PUSH20 0xFFFFFFFFFFFFFFFFFFFFFFFFFFFFFFFFFFFFFFFF AND PUSH20 0xFFFFFFFFFFFFFFFFFFFFFFFFFFFFFFFFFFFFFFFF AND DUP2 MSTORE PUSH1 0x20 ADD SWAP1 DUP2 MSTORE PUSH1 0x20 ADD PUSH1 0x0 KECCAK256 PUSH1 0x0 ADD PUSH1 0x0 SWAP1 SLOAD SWAP1 PUSH2 0x100 EXP SWAP1 DIV PUSH1 0xFF AND DUP1 PUSH2 0x915 JUMPI POP PUSH1 0x6 PUSH1 0x0 CALLER PUSH20 0xFFFFFFFFFFFFFFFFFFFFFFFFFFFFFFFFFFFFFFFF AND PUSH20 0xFFFFFFFFFFFFFFFFFFFFFFFFFFFFFFFFFFFFFFFF AND DUP2 MSTORE PUSH1 0x20 ADD SWAP1 DUP2 MSTORE PUSH1 0x20 ADD PUSH1 0x0 KECCAK256 PUSH1 0x0 ADD PUSH1 0x0 SWAP1 SLOAD SWAP1 PUSH2 0x100 EXP SWAP1 DIV PUSH1 0xFF AND JUMPDEST DUP1 PUSH2 0x96C JUMPI POP PUSH1 0x8 PUSH1 0x0 CALLER PUSH20 0xFFFFFFFFFFFFFFFFFFFFFFFFFFFFFFFFFFFFFFFF AND PUSH20 0xFFFFFFFFFFFFFFFFFFFFFFFFFFFFFFFFFFFFFFFF AND DUP2 MSTORE PUSH1 0x20 ADD SWAP1 DUP2 MSTORE PUSH1 0x20 ADD PUSH1 0x0 KECCAK256 PUSH1 0x0 ADD PUSH1 0x0 SWAP1 SLOAD SWAP1 PUSH2 0x100 EXP SWAP1 DIV PUSH1 0xFF AND JUMPDEST PUSH2 0x9AB JUMPI PUSH1 0x40 MLOAD PUSH32 0x8C379A000000000000000000000000000000000000000000000000000000000 DUP2 MSTORE PUSH1 0x4 ADD PUSH2 0x9A2 SWAP1 PUSH2 0x2297 JUMP JUMPDEST PUSH1 0x40 MLOAD DUP1 SWAP2 SUB SWAP1 REVERT JUMPDEST PUSH1 0x3 PUSH1 0x0 DUP14 PUSH20 0xFFFFFFFFFFFFFFFFFFFFFFFFFFFFFFFFFFFFFFFF AND PUSH20 0xFFFFFFFFFFFFFFFFFFFFFFFFFFFFFFFFFFFFFFFF AND DUP2 MSTORE PUSH1 0x20 ADD SWAP1 DUP2 MSTORE PUSH1 0x20 ADD PUSH1 0x0 KECCAK256 PUSH1 0x0 ADD PUSH1 0x0 SWAP1 SLOAD SWAP1 PUSH2 0x100 EXP SWAP1 DIV PUSH1 0xFF AND PUSH2 0xA3A JUMPI PUSH1 0x40 MLOAD PUSH32 0x8C379A000000000000000000000000000000000000000000000000000000000 DUP2 MSTORE PUSH1 0x4 ADD PUSH2 0xA31 SWAP1 PUSH2 0x2277 JUMP JUMPDEST PUSH1 0x40 MLOAD DUP1 SWAP2 SUB SWAP1 REVERT JUMPDEST DUP10 PUSH1 0xD PUSH1 0x0 DUP15 PUSH20 0xFFFFFFFFFFFFFFFFFFFFFFFFFFFFFFFFFFFFFFFF AND PUSH20 0xFFFFFFFFFFFFFFFFFFFFFFFFFFFFFFFFFFFFFFFF AND DUP2 MSTORE PUSH1 0x20 ADD SWAP1 DUP2 MSTORE PUSH1 0x20 ADD PUSH1 0x0 KECCAK256 PUSH1 0x0 DUP14 DUP2 MSTORE PUSH1 0x20 ADD SWAP1 DUP2 MSTORE PUSH1 0x20 ADD PUSH1 0x0 KECCAK256 PUSH1 0x1 ADD PUSH1 0x0 PUSH2 0x100 EXP DUP2 SLOAD DUP2 PUSH20 0xFFFFFFFFFFFFFFFFFFFFFFFFFFFFFFFFFFFFFFFF MUL NOT AND SWAP1 DUP4 PUSH20 0xFFFFFFFFFFFFFFFFFFFFFFFFFFFFFFFFFFFFFFFF AND MUL OR SWAP1 SSTORE POP DUP9 PUSH1 0xD PUSH1 0x0 DUP15 PUSH20 0xFFFFFFFFFFFFFFFFFFFFFFFFFFFFFFFFFFFFFFFF AND PUSH20 0xFFFFFFFFFFFFFFFFFFFFFFFFFFFFFFFFFFFFFFFF AND DUP2 MSTORE PUSH1 0x20 ADD SWAP1 DUP2 MSTORE PUSH1 0x20 ADD PUSH1 0x0 KECCAK256 PUSH1 0x0 DUP14 DUP2 MSTORE PUSH1 0x20 ADD SWAP1 DUP2 MSTORE PUSH1 0x20 ADD PUSH1 0x0 KECCAK256 PUSH1 0x1 ADD PUSH1 0x14 PUSH2 0x100 EXP DUP2 SLOAD DUP2 PUSH4 0xFFFFFFFF MUL NOT AND SWAP1 DUP4 PUSH4 0xFFFFFFFF AND MUL OR SWAP1 SSTORE POP DUP8 PUSH1 0xD PUSH1 0x0 DUP15 PUSH20 0xFFFFFFFFFFFFFFFFFFFFFFFFFFFFFFFFFFFFFFFF AND PUSH20 0xFFFFFFFFFFFFFFFFFFFFFFFFFFFFFFFFFFFFFFFF AND DUP2 MSTORE PUSH1 0x20 ADD SWAP1 DUP2 MSTORE PUSH1 0x20 ADD PUSH1 0x0 KECCAK256 PUSH1 0x0 DUP14 DUP2 MSTORE PUSH1 0x20 ADD SWAP1 DUP2 MSTORE PUSH1 0x20 ADD PUSH1 0x0 KECCAK256 PUSH1 0x1 ADD PUSH1 0x18 PUSH2 0x100 EXP DUP2 SLOAD DUP2 PUSH1 0xFF MUL NOT AND SWAP1 DUP4 PUSH1 0xFF AND MUL OR SWAP1 SSTORE POP DUP7 PUSH1 0xD PUSH1 0x0 DUP15 PUSH20 0xFFFFFFFFFFFFFFFFFFFFFFFFFFFFFFFFFFFFFFFF AND PUSH20 0xFFFFFFFFFFFFFFFFFFFFFFFFFFFFFFFFFFFFFFFF AND DUP2 MSTORE PUSH1 0x20 ADD SWAP1 DUP2 MSTORE PUSH1 0x20 ADD PUSH1 0x0 KECCAK256 PUSH1 0x0 DUP14 DUP2 MSTORE PUSH1 0x20 ADD SWAP1 DUP2 MSTORE PUSH1 0x20 ADD PUSH1 0x0 KECCAK256 PUSH1 0x1 ADD PUSH1 0x19 PUSH2 0x100 EXP DUP2 SLOAD DUP2 PUSH1 0xFF MUL NOT AND SWAP1 DUP4 PUSH1 0x2 DUP2 GT ISZERO PUSH2 0xC20 JUMPI PUSH2 0xC1F PUSH2 0x2649 JUMP JUMPDEST JUMPDEST MUL OR SWAP1 SSTORE POP DUP6 PUSH1 0xD PUSH1 0x0 DUP15 PUSH20 0xFFFFFFFFFFFFFFFFFFFFFFFFFFFFFFFFFFFFFFFF AND PUSH20 0xFFFFFFFFFFFFFFFFFFFFFFFFFFFFFFFFFFFFFFFF AND DUP2 MSTORE PUSH1 0x20 ADD SWAP1 DUP2 MSTORE PUSH1 0x20 ADD PUSH1 0x0 KECCAK256 PUSH1 0x0 DUP14 DUP2 MSTORE PUSH1 0x20 ADD SWAP1 DUP2 MSTORE PUSH1 0x20 ADD PUSH1 0x0 KECCAK256 PUSH1 0x2 ADD SWAP1 DUP1 MLOAD SWAP1 PUSH1 0x20 ADD SWAP1 PUSH2 0xC8C SWAP3 SWAP2 SWAP1 PUSH2 0x1B79 JUMP JUMPDEST POP DUP5 PUSH1 0xD PUSH1 0x0 DUP15 PUSH20 0xFFFFFFFFFFFFFFFFFFFFFFFFFFFFFFFFFFFFFFFF AND PUSH20 0xFFFFFFFFFFFFFFFFFFFFFFFFFFFFFFFFFFFFFFFF AND DUP2 MSTORE PUSH1 0x20 ADD SWAP1 DUP2 MSTORE PUSH1 0x20 ADD PUSH1 0x0 KECCAK256 PUSH1 0x0 DUP14 DUP2 MSTORE PUSH1 0x20 ADD SWAP1 DUP2 MSTORE PUSH1 0x20 ADD PUSH1 0x0 KECCAK256 PUSH1 0x3 ADD DUP2 SWAP1 SSTORE POP DUP4 PUSH1 0xD PUSH1 0x0 DUP15 PUSH20 0xFFFFFFFFFFFFFFFFFFFFFFFFFFFFFFFFFFFFFFFF AND PUSH20 0xFFFFFFFFFFFFFFFFFFFFFFFFFFFFFFFFFFFFFFFF AND DUP2 MSTORE PUSH1 0x20 ADD SWAP1 DUP2 MSTORE PUSH1 0x20 ADD PUSH1 0x0 KECCAK256 PUSH1 0x0 DUP14 DUP2 MSTORE PUSH1 0x20 ADD SWAP1 DUP2 MSTORE PUSH1 0x20 ADD PUSH1 0x0 KECCAK256 PUSH1 0x4 ADD DUP2 SWAP1 SSTORE POP DUP3 PUSH1 0xD PUSH1 0x0 DUP15 PUSH20 0xFFFFFFFFFFFFFFFFFFFFFFFFFFFFFFFFFFFFFFFF AND PUSH20 0xFFFFFFFFFFFFFFFFFFFFFFFFFFFFFFFFFFFFFFFF AND DUP2 MSTORE PUSH1 0x20 ADD SWAP1 DUP2 MSTORE PUSH1 0x20 ADD PUSH1 0x0 KECCAK256 PUSH1 0x0 DUP14 DUP2 MSTORE PUSH1 0x20 ADD SWAP1 DUP2 MSTORE PUSH1 0x20 ADD PUSH1 0x0 KECCAK256 PUSH1 0x5 ADD PUSH1 0x0 PUSH2 0x100 EXP DUP2 SLOAD DUP2 PUSH1 0xFF MUL NOT AND SWAP1 DUP4 PUSH1 0xFF AND MUL OR SWAP1 SSTORE POP DUP8 PUSH1 0xFF AND PUSH1 0xD PUSH1 0x0 DUP15 PUSH20 0xFFFFFFFFFFFFFFFFFFFFFFFFFFFFFFFFFFFFFFFF AND PUSH20 0xFFFFFFFFFFFFFFFFFFFFFFFFFFFFFFFFFFFFFFFF AND DUP2 MSTORE PUSH1 0x20 ADD SWAP1 DUP2 MSTORE PUSH1 0x20 ADD PUSH1 0x0 KECCAK256 PUSH1 0x0 DUP14 DUP2 MSTORE PUSH1 0x20 ADD SWAP1 DUP2 MSTORE PUSH1 0x20 ADD PUSH1 0x0 KECCAK256 PUSH1 0x5 ADD PUSH1 0x1 PUSH2 0x100 EXP DUP2 SLOAD DUP2 PUSH4 0xFFFFFFFF MUL NOT AND SWAP1 DUP4 PUSH4 0xFFFFFFFF AND MUL OR SWAP1 SSTORE POP TIMESTAMP PUSH1 0xD PUSH1 0x0 DUP15 PUSH20 0xFFFFFFFFFFFFFFFFFFFFFFFFFFFFFFFFFFFFFFFF AND PUSH20 0xFFFFFFFFFFFFFFFFFFFFFFFFFFFFFFFFFFFFFFFF AND DUP2 MSTORE PUSH1 0x20 ADD SWAP1 DUP2 MSTORE PUSH1 0x20 ADD PUSH1 0x0 KECCAK256 PUSH1 0x0 DUP14 DUP2 MSTORE PUSH1 0x20 ADD SWAP1 DUP2 MSTORE PUSH1 0x20 ADD PUSH1 0x0 KECCAK256 PUSH1 0x6 ADD PUSH1 0x0 ADD DUP2 SWAP1 SSTORE POP PUSH1 0x1 PUSH1 0xD PUSH1 0x0 DUP15 PUSH20 0xFFFFFFFFFFFFFFFFFFFFFFFFFFFFFFFFFFFFFFFF AND PUSH20 0xFFFFFFFFFFFFFFFFFFFFFFFFFFFFFFFFFFFFFFFF AND DUP2 MSTORE PUSH1 0x20 ADD SWAP1 DUP2 MSTORE PUSH1 0x20 ADD PUSH1 0x0 KECCAK256 PUSH1 0x0 DUP14 DUP2 MSTORE PUSH1 0x20 ADD SWAP1 DUP2 MSTORE PUSH1 0x20 ADD PUSH1 0x0 KECCAK256 PUSH1 0x6 ADD PUSH1 0x1 ADD PUSH1 0x14 PUSH2 0x100 EXP DUP2 SLOAD DUP2 PUSH1 0xFF MUL NOT AND SWAP1 DUP4 PUSH1 0x2 DUP2 GT ISZERO PUSH2 0xEF3 JUMPI PUSH2 0xEF2 PUSH2 0x2649 JUMP JUMPDEST JUMPDEST MUL OR SWAP1 SSTORE POP CALLER PUSH1 0xD PUSH1 0x0 DUP15 PUSH20 0xFFFFFFFFFFFFFFFFFFFFFFFFFFFFFFFFFFFFFFFF AND PUSH20 0xFFFFFFFFFFFFFFFFFFFFFFFFFFFFFFFFFFFFFFFF AND DUP2 MSTORE PUSH1 0x20 ADD SWAP1 DUP2 MSTORE PUSH1 0x20 ADD PUSH1 0x0 KECCAK256 PUSH1 0x0 DUP14 DUP2 MSTORE PUSH1 0x20 ADD SWAP1 DUP2 MSTORE PUSH1 0x20 ADD PUSH1 0x0 KECCAK256 PUSH1 0x6 ADD PUSH1 0x1 ADD PUSH1 0x0 PUSH2 0x100 EXP DUP2 SLOAD DUP2 PUSH20 0xFFFFFFFFFFFFFFFFFFFFFFFFFFFFFFFFFFFFFFFF MUL NOT AND SWAP1 DUP4 PUSH20 0xFFFFFFFFFFFFFFFFFFFFFFFFFFFFFFFFFFFFFFFF AND MUL OR SWAP1 SSTORE POP PUSH32 0x97A8618B4C3E1BBEF6226B887AE721D63D275F7A7D596BA44E9EF2FB1309CCE0 DUP13 DUP12 DUP12 DUP12 PUSH1 0x40 MLOAD PUSH2 0xFC2 SWAP5 SWAP4 SWAP3 SWAP2 SWAP1 PUSH2 0x211E JUMP JUMPDEST PUSH1 0x40 MLOAD DUP1 SWAP2 SUB SWAP1 LOG1 DUP11 SWAP1 POP SWAP12 SWAP11 POP POP POP POP POP POP POP POP POP POP POP JUMP JUMPDEST PUSH1 0x8 PUSH1 0x20 MSTORE DUP1 PUSH1 0x0 MSTORE PUSH1 0x40 PUSH1 0x0 KECCAK256 PUSH1 0x0 SWAP2 POP SWAP1 POP DUP1 PUSH1 0x0 ADD PUSH1 0x0 SWAP1 SLOAD SWAP1 PUSH2 0x100 EXP SWAP1 DIV PUSH1 0xFF AND SWAP1 DUP1 PUSH1 0x1 ADD DUP1 SLOAD PUSH2 0x1012 SWAP1 PUSH2 0x256E JUMP JUMPDEST DUP1 PUSH1 0x1F ADD PUSH1 0x20 DUP1 SWAP2 DIV MUL PUSH1 0x20 ADD PUSH1 0x40 MLOAD SWAP1 DUP2 ADD PUSH1 0x40 MSTORE DUP1 SWAP3 SWAP2 SWAP1 DUP2 DUP2 MSTORE PUSH1 0x20 ADD DUP3 DUP1 SLOAD PUSH2 0x103E SWAP1 PUSH2 0x256E JUMP JUMPDEST DUP1 ISZERO PUSH2 0x108B JUMPI DUP1 PUSH1 0x1F LT PUSH2 0x1060 JUMPI PUSH2 0x100 DUP1 DUP4 SLOAD DIV MUL DUP4 MSTORE SWAP2 PUSH1 0x20 ADD SWAP2 PUSH2 0x108B JUMP JUMPDEST DUP3 ADD SWAP2 SWAP1 PUSH1 0x0 MSTORE PUSH1 0x20 PUSH1 0x0 KECCAK256 SWAP1 JUMPDEST DUP2 SLOAD DUP2 MSTORE SWAP1 PUSH1 0x1 ADD SWAP1 PUSH1 0x20 ADD DUP1 DUP4 GT PUSH2 0x106E JUMPI DUP3 SWAP1 SUB PUSH1 0x1F AND DUP3 ADD SWAP2 JUMPDEST POP POP POP POP POP SWAP1 DUP1 PUSH1 0x2 ADD PUSH1 0x0 SWAP1 SLOAD SWAP1 PUSH2 0x100 EXP SWAP1 DIV PUSH1 0xFF AND SWAP1 POP DUP4 JUMP JUMPDEST PUSH1 0x9 PUSH1 0x20 MSTORE DUP1 PUSH1 0x0 MSTORE PUSH1 0x40 PUSH1 0x0 KECCAK256 PUSH1 0x0 SWAP2 POP SWAP1 POP DUP1 PUSH1 0x0 ADD PUSH1 0x0 SWAP1 SLOAD SWAP1 PUSH2 0x100 EXP SWAP1 DIV PUSH1 0xFF AND SWAP1 DUP1 PUSH1 0x1 ADD DUP1 SLOAD PUSH2 0x10DE SWAP1 PUSH2 0x256E JUMP JUMPDEST DUP1 PUSH1 0x1F ADD PUSH1 0x20 DUP1 SWAP2 DIV MUL PUSH1 0x20 ADD PUSH1 0x40 MLOAD SWAP1 DUP2 ADD PUSH1 0x40 MSTORE DUP1 SWAP3 SWAP2 SWAP1 DUP2 DUP2 MSTORE PUSH1 0x20 ADD DUP3 DUP1 SLOAD PUSH2 0x110A SWAP1 PUSH2 0x256E JUMP JUMPDEST DUP1 ISZERO PUSH2 0x1157 JUMPI DUP1 PUSH1 0x1F LT PUSH2 0x112C JUMPI PUSH2 0x100 DUP1 DUP4 SLOAD DIV MUL DUP4 MSTORE SWAP2 PUSH1 0x20 ADD SWAP2 PUSH2 0x1157 JUMP JUMPDEST DUP3 ADD SWAP2 SWAP1 PUSH1 0x0 MSTORE PUSH1 0x20 PUSH1 0x0 KECCAK256 SWAP1 JUMPDEST DUP2 SLOAD DUP2 MSTORE SWAP1 PUSH1 0x1 ADD SWAP1 PUSH1 0x20 ADD DUP1 DUP4 GT PUSH2 0x113A JUMPI DUP3 SWAP1 SUB PUSH1 0x1F AND DUP3 ADD SWAP2 JUMPDEST POP POP POP POP POP SWAP1 DUP1 PUSH1 0x2 ADD PUSH1 0x0 SWAP1 SLOAD SWAP1 PUSH2 0x100 EXP SWAP1 DIV PUSH1 0xFF AND SWAP1 POP DUP4 JUMP JUMPDEST PUSH1 0xB PUSH1 0x20 MSTORE DUP1 PUSH1 0x0 MSTORE PUSH1 0x40 PUSH1 0x0 KECCAK256 PUSH1 0x0 SWAP2 POP SWAP1 POP DUP1 PUSH1 0x0 ADD PUSH1 0x0 SWAP1 SLOAD SWAP1 PUSH2 0x100 EXP SWAP1 DIV PUSH4 0xFFFFFFFF AND SWAP1 DUP1 PUSH1 0x1 ADD DUP1 SLOAD PUSH2 0x11AD SWAP1 PUSH2 0x256E JUMP JUMPDEST DUP1 PUSH1 0x1F ADD PUSH1 0x20 DUP1 SWAP2 DIV MUL PUSH1 0x20 ADD PUSH1 0x40 MLOAD SWAP1 DUP2 ADD PUSH1 0x40 MSTORE DUP1 SWAP3 SWAP2 SWAP1 DUP2 DUP2 MSTORE PUSH1 0x20 ADD DUP3 DUP1 SLOAD PUSH2 0x11D9 SWAP1 PUSH2 0x256E JUMP JUMPDEST DUP1 ISZERO PUSH2 0x1226 JUMPI DUP1 PUSH1 0x1F LT PUSH2 0x11FB JUMPI PUSH2 0x100 DUP1 DUP4 SLOAD DIV MUL DUP4 MSTORE SWAP2 PUSH1 0x20 ADD SWAP2 PUSH2 0x1226 JUMP JUMPDEST DUP3 ADD SWAP2 SWAP1 PUSH1 0x0 MSTORE PUSH1 0x20 PUSH1 0x0 KECCAK256 SWAP1 JUMPDEST DUP2 SLOAD DUP2 MSTORE SWAP1 PUSH1 0x1 ADD SWAP1 PUSH1 0x20 ADD DUP1 DUP4 GT PUSH2 0x1209 JUMPI DUP3 SWAP1 SUB PUSH1 0x1F AND DUP3 ADD SWAP2 JUMPDEST POP POP POP POP POP SWAP1 POP DUP3 JUMP JUMPDEST PUSH1 0xC SLOAD DUP2 JUMP JUMPDEST PUSH1 0x4 PUSH1 0x0 CALLER PUSH20 0xFFFFFFFFFFFFFFFFFFFFFFFFFFFFFFFFFFFFFFFF AND PUSH20 0xFFFFFFFFFFFFFFFFFFFFFFFFFFFFFFFFFFFFFFFF AND DUP2 MSTORE PUSH1 0x20 ADD SWAP1 DUP2 MSTORE PUSH1 0x20 ADD PUSH1 0x0 KECCAK256 PUSH1 0x0 ADD PUSH1 0x0 SWAP1 SLOAD SWAP1 PUSH2 0x100 EXP SWAP1 DIV PUSH1 0xFF AND DUP1 PUSH2 0x12DD JUMPI POP PUSH1 0x6 PUSH1 0x0 CALLER PUSH20 0xFFFFFFFFFFFFFFFFFFFFFFFFFFFFFFFFFFFFFFFF AND PUSH20 0xFFFFFFFFFFFFFFFFFFFFFFFFFFFFFFFFFFFFFFFF AND DUP2 MSTORE PUSH1 0x20 ADD SWAP1 DUP2 MSTORE PUSH1 0x20 ADD PUSH1 0x0 KECCAK256 PUSH1 0x0 ADD PUSH1 0x0 SWAP1 SLOAD SWAP1 PUSH2 0x100 EXP SWAP1 DIV PUSH1 0xFF AND JUMPDEST DUP1 PUSH2 0x1334 JUMPI POP PUSH1 0x8 PUSH1 0x0 CALLER PUSH20 0xFFFFFFFFFFFFFFFFFFFFFFFFFFFFFFFFFFFFFFFF AND PUSH20 0xFFFFFFFFFFFFFFFFFFFFFFFFFFFFFFFFFFFFFFFF AND DUP2 MSTORE PUSH1 0x20 ADD SWAP1 DUP2 MSTORE PUSH1 0x20 ADD PUSH1 0x0 KECCAK256 PUSH1 0x0 ADD PUSH1 0x0 SWAP1 SLOAD SWAP1 PUSH2 0x100 EXP SWAP1 DIV PUSH1 0xFF AND JUMPDEST PUSH2 0x1373 JUMPI PUSH1 0x40 MLOAD PUSH32 0x8C379A000000000000000000000000000000000000000000000000000000000 DUP2 MSTORE PUSH1 0x4 ADD PUSH2 0x136A SWAP1 PUSH2 0x2297 JUMP JUMPDEST PUSH1 0x40 MLOAD DUP1 SWAP2 SUB SWAP1 REVERT JUMPDEST PUSH1 0x3 PUSH1 0x0 DUP12 PUSH20 0xFFFFFFFFFFFFFFFFFFFFFFFFFFFFFFFFFFFFFFFF AND PUSH20 0xFFFFFFFFFFFFFFFFFFFFFFFFFFFFFFFFFFFFFFFF AND DUP2 MSTORE PUSH1 0x20 ADD SWAP1 DUP2 MSTORE PUSH1 0x20 ADD PUSH1 0x0 KECCAK256 PUSH1 0x0 ADD PUSH1 0x0 SWAP1 SLOAD SWAP1 PUSH2 0x100 EXP SWAP1 DIV PUSH1 0xFF AND PUSH2 0x1402 JUMPI PUSH1 0x40 MLOAD PUSH32 0x8C379A000000000000000000000000000000000000000000000000000000000 DUP2 MSTORE PUSH1 0x4 ADD PUSH2 0x13F9 SWAP1 PUSH2 0x2277 JUMP JUMPDEST PUSH1 0x40 MLOAD DUP1 SWAP2 SUB SWAP1 REVERT JUMPDEST PUSH1 0x0 PUSH1 0xC PUSH1 0x0 DUP2 SLOAD DUP1 SWAP3 SWAP2 SWAP1 PUSH2 0x1417 SWAP1 PUSH2 0x25D1 JUMP JUMPDEST SWAP2 SWAP1 POP SSTORE SWAP1 POP DUP10 PUSH1 0xD PUSH1 0x0 DUP14 PUSH20 0xFFFFFFFFFFFFFFFFFFFFFFFFFFFFFFFFFFFFFFFF AND PUSH20 0xFFFFFFFFFFFFFFFFFFFFFFFFFFFFFFFFFFFFFFFF AND DUP2 MSTORE PUSH1 0x20 ADD SWAP1 DUP2 MSTORE PUSH1 0x20 ADD PUSH1 0x0 KECCAK256 PUSH1 0x0 DUP4 DUP2 MSTORE PUSH1 0x20 ADD SWAP1 DUP2 MSTORE PUSH1 0x20 ADD PUSH1 0x0 KECCAK256 PUSH1 0x1 ADD PUSH1 0x0 PUSH2 0x100 EXP DUP2 SLOAD DUP2 PUSH20 0xFFFFFFFFFFFFFFFFFFFFFFFFFFFFFFFFFFFFFFFF MUL NOT AND SWAP1 DUP4 PUSH20 0xFFFFFFFFFFFFFFFFFFFFFFFFFFFFFFFFFFFFFFFF AND MUL OR SWAP1 SSTORE POP DUP9 PUSH1 0xD PUSH1 0x0 DUP14 PUSH20 0xFFFFFFFFFFFFFFFFFFFFFFFFFFFFFFFFFFFFFFFF AND PUSH20 0xFFFFFFFFFFFFFFFFFFFFFFFFFFFFFFFFFFFFFFFF AND DUP2 MSTORE PUSH1 0x20 ADD SWAP1 DUP2 MSTORE PUSH1 0x20 ADD PUSH1 0x0 KECCAK256 PUSH1 0x0 DUP4 DUP2 MSTORE PUSH1 0x20 ADD SWAP1 DUP2 MSTORE PUSH1 0x20 ADD PUSH1 0x0 KECCAK256 PUSH1 0x1 ADD PUSH1 0x14 PUSH2 0x100 EXP DUP2 SLOAD DUP2 PUSH4 0xFFFFFFFF MUL NOT AND SWAP1 DUP4 PUSH4 0xFFFFFFFF AND MUL OR SWAP1 SSTORE POP DUP8 PUSH1 0xD PUSH1 0x0 DUP14 PUSH20 0xFFFFFFFFFFFFFFFFFFFFFFFFFFFFFFFFFFFFFFFF AND PUSH20 0xFFFFFFFFFFFFFFFFFFFFFFFFFFFFFFFFFFFFFFFF AND DUP2 MSTORE PUSH1 0x20 ADD SWAP1 DUP2 MSTORE PUSH1 0x20 ADD PUSH1 0x0 KECCAK256 PUSH1 0x0 DUP4 DUP2 MSTORE PUSH1 0x20 ADD SWAP1 DUP2 MSTORE PUSH1 0x20 ADD PUSH1 0x0 KECCAK256 PUSH1 0x1 ADD PUSH1 0x18 PUSH2 0x100 EXP DUP2 SLOAD DUP2 PUSH1 0xFF MUL NOT AND SWAP1 DUP4 PUSH1 0xFF AND MUL OR SWAP1 SSTORE POP DUP7 PUSH1 0xD PUSH1 0x0 DUP14 PUSH20 0xFFFFFFFFFFFFFFFFFFFFFFFFFFFFFFFFFFFFFFFF AND PUSH20 0xFFFFFFFFFFFFFFFFFFFFFFFFFFFFFFFFFFFFFFFF AND DUP2 MSTORE PUSH1 0x20 ADD SWAP1 DUP2 MSTORE PUSH1 0x20 ADD PUSH1 0x0 KECCAK256 PUSH1 0x0 DUP4 DUP2 MSTORE PUSH1 0x20 ADD SWAP1 DUP2 MSTORE PUSH1 0x20 ADD PUSH1 0x0 KECCAK256 PUSH1 0x1 ADD PUSH1 0x19 PUSH2 0x100 EXP DUP2 SLOAD DUP2 PUSH1 0xFF MUL NOT AND SWAP1 DUP4 PUSH1 0x2 DUP2 GT ISZERO PUSH2 0x1603 JUMPI PUSH2 0x1602 PUSH2 0x2649 JUMP JUMPDEST JUMPDEST MUL OR SWAP1 SSTORE POP DUP6 PUSH1 0xD PUSH1 0x0 DUP14 PUSH20 0xFFFFFFFFFFFFFFFFFFFFFFFFFFFFFFFFFFFFFFFF AND PUSH20 0xFFFFFFFFFFFFFFFFFFFFFFFFFFFFFFFFFFFFFFFF AND DUP2 MSTORE PUSH1 0x20 ADD SWAP1 DUP2 MSTORE PUSH1 0x20 ADD PUSH1 0x0 KECCAK256 PUSH1 0x0 DUP4 DUP2 MSTORE PUSH1 0x20 ADD SWAP1 DUP2 MSTORE PUSH1 0x20 ADD PUSH1 0x0 KECCAK256 PUSH1 0x2 ADD SWAP1 DUP1 MLOAD SWAP1 PUSH1 0x20 ADD SWAP1 PUSH2 0x166F SWAP3 SWAP2 SWAP1 PUSH2 0x1B79 JUMP JUMPDEST POP DUP5 PUSH1 0xD PUSH1 0x0 DUP14 PUSH20 0xFFFFFFFFFFFFFFFFFFFFFFFFFFFFFFFFFFFFFFFF AND PUSH20 0xFFFFFFFFFFFFFFFFFFFFFFFFFFFFFFFFFFFFFFFF AND DUP2 MSTORE PUSH1 0x20 ADD SWAP1 DUP2 MSTORE PUSH1 0x20 ADD PUSH1 0x0 KECCAK256 PUSH1 0x0 DUP4 DUP2 MSTORE PUSH1 0x20 ADD SWAP1 DUP2 MSTORE PUSH1 0x20 ADD PUSH1 0x0 KECCAK256 PUSH1 0x3 ADD DUP2 SWAP1 SSTORE POP DUP4 PUSH1 0xD PUSH1 0x0 DUP14 PUSH20 0xFFFFFFFFFFFFFFFFFFFFFFFFFFFFFFFFFFFFFFFF AND PUSH20 0xFFFFFFFFFFFFFFFFFFFFFFFFFFFFFFFFFFFFFFFF AND DUP2 MSTORE PUSH1 0x20 ADD SWAP1 DUP2 MSTORE PUSH1 0x20 ADD PUSH1 0x0 KECCAK256 PUSH1 0x0 DUP4 DUP2 MSTORE PUSH1 0x20 ADD SWAP1 DUP2 MSTORE PUSH1 0x20 ADD PUSH1 0x0 KECCAK256 PUSH1 0x4 ADD DUP2 SWAP1 SSTORE POP DUP3 PUSH1 0xD PUSH1 0x0 DUP14 PUSH20 0xFFFFFFFFFFFFFFFFFFFFFFFFFFFFFFFFFFFFFFFF AND PUSH20 0xFFFFFFFFFFFFFFFFFFFFFFFFFFFFFFFFFFFFFFFF AND DUP2 MSTORE PUSH1 0x20 ADD SWAP1 DUP2 MSTORE PUSH1 0x20 ADD PUSH1 0x0 KECCAK256 PUSH1 0x0 DUP4 DUP2 MSTORE PUSH1 0x20 ADD SWAP1 DUP2 MSTORE PUSH1 0x20 ADD PUSH1 0x0 KECCAK256 PUSH1 0x5 ADD PUSH1 0x0 PUSH2 0x100 EXP DUP2 SLOAD DUP2 PUSH1 0xFF MUL NOT AND SWAP1 DUP4 PUSH1 0xFF AND MUL OR SWAP1 SSTORE POP DUP8 PUSH1 0xFF AND PUSH1 0xD PUSH1 0x0 DUP14 PUSH20 0xFFFFFFFFFFFFFFFFFFFFFFFFFFFFFFFFFFFFFFFF AND PUSH20 0xFFFFFFFFFFFFFFFFFFFFFFFFFFFFFFFFFFFFFFFF AND DUP2 MSTORE PUSH1 0x20 ADD SWAP1 DUP2 MSTORE PUSH1 0x20 ADD PUSH1 0x0 KECCAK256 PUSH1 0x0 DUP4 DUP2 MSTORE PUSH1 0x20 ADD SWAP1 DUP2 MSTORE PUSH1 0x20 ADD PUSH1 0x0 KECCAK256 PUSH1 0x5 ADD PUSH1 0x1 PUSH2 0x100 EXP DUP2 SLOAD DUP2 PUSH4 0xFFFFFFFF MUL NOT AND SWAP1 DUP4 PUSH4 0xFFFFFFFF AND MUL OR SWAP1 SSTORE POP TIMESTAMP PUSH1 0xD PUSH1 0x0 DUP14 PUSH20 0xFFFFFFFFFFFFFFFFFFFFFFFFFFFFFFFFFFFFFFFF AND PUSH20 0xFFFFFFFFFFFFFFFFFFFFFFFFFFFFFFFFFFFFFFFF AND DUP2 MSTORE PUSH1 0x20 ADD SWAP1 DUP2 MSTORE PUSH1 0x20 ADD PUSH1 0x0 KECCAK256 PUSH1 0x0 DUP4 DUP2 MSTORE PUSH1 0x20 ADD SWAP1 DUP2 MSTORE PUSH1 0x20 ADD PUSH1 0x0 KECCAK256 PUSH1 0x6 ADD PUSH1 0x0 ADD DUP2 SWAP1 SSTORE POP PUSH1 0x1 PUSH1 0xD PUSH1 0x0 DUP14 PUSH20 0xFFFFFFFFFFFFFFFFFFFFFFFFFFFFFFFFFFFFFFFF AND PUSH20 0xFFFFFFFFFFFFFFFFFFFFFFFFFFFFFFFFFFFFFFFF AND DUP2 MSTORE PUSH1 0x20 ADD SWAP1 DUP2 MSTORE PUSH1 0x20 ADD PUSH1 0x0 KECCAK256 PUSH1 0x0 DUP4 DUP2 MSTORE PUSH1 0x20 ADD SWAP1 DUP2 MSTORE PUSH1 0x20 ADD PUSH1 0x0 KECCAK256 PUSH1 0x6 ADD PUSH1 0x1 ADD PUSH1 0x14 PUSH2 0x100 EXP DUP2 SLOAD DUP2 PUSH1 0xFF MUL NOT AND SWAP1 DUP4 PUSH1 0x2 DUP2 GT ISZERO PUSH2 0x18D6 JUMPI PUSH2 0x18D5 PUSH2 0x2649 JUMP JUMPDEST JUMPDEST MUL OR SWAP1 SSTORE POP CALLER PUSH1 0xD PUSH1 0x0 DUP14 PUSH20 0xFFFFFFFFFFFFFFFFFFFFFFFFFFFFFFFFFFFFFFFF AND PUSH20 0xFFFFFFFFFFFFFFFFFFFFFFFFFFFFFFFFFFFFFFFF AND DUP2 MSTORE PUSH1 0x20 ADD SWAP1 DUP2 MSTORE PUSH1 0x20 ADD PUSH1 0x0 KECCAK256 PUSH1 0x0 DUP4 DUP2 MSTORE PUSH1 0x20 ADD SWAP1 DUP2 MSTORE PUSH1 0x20 ADD PUSH1 0x0 KECCAK256 PUSH1 0x6 ADD PUSH1 0x1 ADD PUSH1 0x0 PUSH2 0x100 EXP DUP2 SLOAD DUP2 PUSH20 0xFFFFFFFFFFFFFFFFFFFFFFFFFFFFFFFFFFFFFFFF MUL NOT AND SWAP1 DUP4 PUSH20 0xFFFFFFFFFFFFFFFFFFFFFFFFFFFFFFFFFFFFFFFF AND MUL OR SWAP1 SSTORE POP PUSH32 0xAE2424F93616CC7FC3303332CDDA5353231F2DC90A87B1E0B507A25E53AC0135 DUP12 DUP12 DUP12 DUP12 PUSH1 0x40 MLOAD PUSH2 0x19A5 SWAP5 SWAP4 SWAP3 SWAP2 SWAP1 PUSH2 0x211E JUMP JUMPDEST PUSH1 0x40 MLOAD DUP1 SWAP2 SUB SWAP1 LOG1 POP POP POP POP POP POP POP POP POP POP POP JUMP JUMPDEST PUSH1 0x5 PUSH1 0x20 MSTORE DUP1 PUSH1 0x0 MSTORE PUSH1 0x40 PUSH1 0x0 KECCAK256 PUSH1 0x0 SWAP2 POP SWAP1 POP DUP1 PUSH1 0x0 ADD PUSH1 0x0 SWAP1 SLOAD SWAP1 PUSH2 0x100 EXP SWAP1 DIV PUSH1 0xFF AND SWAP1 DUP1 PUSH1 0x0 ADD PUSH1 0x1 SWAP1 SLOAD SWAP1 PUSH2 0x100 EXP SWAP1 DIV PUSH20 0xFFFFFFFFFFFFFFFFFFFFFFFFFFFFFFFFFFFFFFFF AND SWAP1 DUP1 PUSH1 0x0 ADD PUSH1 0x15 SWAP1 SLOAD SWAP1 PUSH2 0x100 EXP SWAP1 DIV PUSH2 0xFFFF AND SWAP1 DUP1 PUSH1 0x0 ADD PUSH1 0x17 SWAP1 SLOAD SWAP1 PUSH2 0x100 EXP SWAP1 DIV PUSH1 0xFF AND SWAP1 DUP1 PUSH1 0x1 ADD DUP1 SLOAD PUSH2 0x1A3D SWAP1 PUSH2 0x256E JUMP JUMPDEST DUP1 PUSH1 0x1F ADD PUSH1 0x20 DUP1 SWAP2 DIV MUL PUSH1 0x20 ADD PUSH1 0x40 MLOAD SWAP1 DUP2 ADD PUSH1 0x40 MSTORE DUP1 SWAP3 SWAP2 SWAP1 DUP2 DUP2 MSTORE PUSH1 0x20 ADD DUP3 DUP1 SLOAD PUSH2 0x1A69 SWAP1 PUSH2 0x256E JUMP JUMPDEST DUP1 ISZERO PUSH2 0x1AB6 JUMPI DUP1 PUSH1 0x1F LT PUSH2 0x1A8B JUMPI PUSH2 0x100 DUP1 DUP4 SLOAD DIV MUL DUP4 MSTORE SWAP2 PUSH1 0x20 ADD SWAP2 PUSH2 0x1AB6 JUMP JUMPDEST DUP3 ADD SWAP2 SWAP1 PUSH1 0x0 MSTORE PUSH1 0x20 PUSH1 0x0 KECCAK256 SWAP1 JUMPDEST DUP2 SLOAD DUP2 MSTORE SWAP1 PUSH1 0x1 ADD SWAP1 PUSH1 0x20 ADD DUP1 DUP4 GT PUSH2 0x1A99 JUMPI DUP3 SWAP1 SUB PUSH1 0x1F AND DUP3 ADD SWAP2 JUMPDEST POP POP POP POP POP SWAP1 DUP1 PUSH1 0x2 ADD DUP1 SLOAD PUSH2 0x1ACB SWAP1 PUSH2 0x256E JUMP JUMPDEST DUP1 PUSH1 0x1F ADD PUSH1 0x20 DUP1 SWAP2 DIV MUL PUSH1 0x20 ADD PUSH1 0x40 MLOAD SWAP1 DUP2 ADD PUSH1 0x40 MSTORE DUP1 SWAP3 SWAP2 SWAP1 DUP2 DUP2 MSTORE PUSH1 0x20 ADD DUP3 DUP1 SLOAD PUSH2 0x1AF7 SWAP1 PUSH2 0x256E JUMP JUMPDEST DUP1 ISZERO PUSH2 0x1B44 JUMPI DUP1 PUSH1 0x1F LT PUSH2 0x1B19 JUMPI PUSH2 0x100 DUP1 DUP4 SLOAD DIV MUL DUP4 MSTORE SWAP2 PUSH1 0x20 ADD SWAP2 PUSH2 0x1B44 JUMP JUMPDEST DUP3 ADD SWAP2 SWAP1 PUSH1 0x0 MSTORE PUSH1 0x20 PUSH1 0x0 KECCAK256 SWAP1 JUMPDEST DUP2 SLOAD DUP2 MSTORE SWAP1 PUSH1 0x1 ADD SWAP1 PUSH1 0x20 ADD DUP1 DUP4 GT PUSH2 0x1B27 JUMPI DUP3 SWAP1 SUB PUSH1 0x1F AND DUP3 ADD SWAP2 JUMPDEST POP POP POP POP POP SWAP1 POP DUP7 JUMP JUMPDEST PUSH1 0x3 PUSH1 0x20 MSTORE DUP1 PUSH1 0x0 MSTORE PUSH1 0x40 PUSH1 0x0 KECCAK256 PUSH1 0x0 SWAP2 POP SWAP1 POP DUP1 PUSH1 0x0 ADD PUSH1 0x0 SWAP1 SLOAD SWAP1 PUSH2 0x100 EXP SWAP1 DIV PUSH1 0xFF AND SWAP1 POP DUP2 JUMP JUMPDEST DUP3 DUP1 SLOAD PUSH2 0x1B85 SWAP1 PUSH2 0x256E JUMP JUMPDEST SWAP1 PUSH1 0x0 MSTORE PUSH1 0x20 PUSH1 0x0 KECCAK256 SWAP1 PUSH1 0x1F ADD PUSH1 0x20 SWAP1 DIV DUP2 ADD SWAP3 DUP3 PUSH2 0x1BA7 JUMPI PUSH1 0x0 DUP6 SSTORE PUSH2 0x1BEE JUMP JUMPDEST DUP3 PUSH1 0x1F LT PUSH2 0x1BC0 JUMPI DUP1 MLOAD PUSH1 0xFF NOT AND DUP4 DUP1 ADD OR DUP6 SSTORE PUSH2 0x1BEE JUMP JUMPDEST DUP3 DUP1 ADD PUSH1 0x1 ADD DUP6 SSTORE DUP3 ISZERO PUSH2 0x1BEE JUMPI SWAP2 DUP3 ADD JUMPDEST DUP3 DUP2 GT ISZERO PUSH2 0x1BED JUMPI DUP3 MLOAD DUP3 SSTORE SWAP2 PUSH1 0x20 ADD SWAP2 SWAP1 PUSH1 0x1 ADD SWAP1 PUSH2 0x1BD2 JUMP JUMPDEST JUMPDEST POP SWAP1 POP PUSH2 0x1BFB SWAP2 SWAP1 PUSH2 0x1BFF JUMP JUMPDEST POP SWAP1 JUMP JUMPDEST JUMPDEST DUP1 DUP3 GT ISZERO PUSH2 0x1C18 JUMPI PUSH1 0x0 DUP2 PUSH1 0x0 SWAP1 SSTORE POP PUSH1 0x1 ADD PUSH2 0x1C00 JUMP JUMPDEST POP SWAP1 JUMP JUMPDEST PUSH1 0x0 PUSH2 0x1C2F PUSH2 0x1C2A DUP5 PUSH2 0x23D9 JUMP JUMPDEST PUSH2 0x23B4 JUMP JUMPDEST SWAP1 POP DUP3 DUP2 MSTORE PUSH1 0x20 DUP2 ADD DUP5 DUP5 DUP5 ADD GT ISZERO PUSH2 0x1C4B JUMPI PUSH2 0x1C4A PUSH2 0x26DB JUMP JUMPDEST JUMPDEST PUSH2 0x1C56 DUP5 DUP3 DUP6 PUSH2 0x252C JUMP JUMPDEST POP SWAP4 SWAP3 POP POP POP JUMP JUMPDEST PUSH1 0x0 DUP2 CALLDATALOAD SWAP1 POP PUSH2 0x1C6D DUP2 PUSH2 0x2789 JUMP JUMPDEST SWAP3 SWAP2 POP POP JUMP JUMPDEST PUSH1 0x0 DUP2 CALLDATALOAD SWAP1 POP PUSH2 0x1C82 DUP2 PUSH2 0x27A0 JUMP JUMPDEST SWAP3 SWAP2 POP POP JUMP JUMPDEST PUSH1 0x0 DUP3 PUSH1 0x1F DUP4 ADD SLT PUSH2 0x1C9D JUMPI PUSH2 0x1C9C PUSH2 0x26D6 JUMP JUMPDEST JUMPDEST DUP2 CALLDATALOAD PUSH2 0x1CAD DUP5 DUP3 PUSH1 0x20 DUP7 ADD PUSH2 0x1C1C JUMP JUMPDEST SWAP2 POP POP SWAP3 SWAP2 POP POP JUMP JUMPDEST PUSH1 0x0 DUP2 CALLDATALOAD SWAP1 POP PUSH2 0x1CC5 DUP2 PUSH2 0x27B0 JUMP JUMPDEST SWAP3 SWAP2 POP POP JUMP JUMPDEST PUSH1 0x0 DUP2 CALLDATALOAD SWAP1 POP PUSH2 0x1CDA DUP2 PUSH2 0x27C7 JUMP JUMPDEST SWAP3 SWAP2 POP POP JUMP JUMPDEST PUSH1 0x0 DUP2 CALLDATALOAD SWAP1 POP PUSH2 0x1CEF DUP2 PUSH2 0x27DE JUMP JUMPDEST SWAP3 SWAP2 POP POP JUMP JUMPDEST PUSH1 0x0 PUSH1 0x20 DUP3 DUP5 SUB SLT ISZERO PUSH2 0x1D0B JUMPI PUSH2 0x1D0A PUSH2 0x26E5 JUMP JUMPDEST JUMPDEST PUSH1 0x0 PUSH2 0x1D19 DUP5 DUP3 DUP6 ADD PUSH2 0x1C5E JUMP JUMPDEST SWAP2 POP POP SWAP3 SWAP2 POP POP JUMP JUMPDEST PUSH1 0x0 DUP1 PUSH1 0x0 DUP1 PUSH1 0x0 DUP1 PUSH1 0x0 DUP1 PUSH1 0x0 DUP1 PUSH2 0x140 DUP12 DUP14 SUB SLT ISZERO PUSH2 0x1D46 JUMPI PUSH2 0x1D45 PUSH2 0x26E5 JUMP JUMPDEST JUMPDEST PUSH1 0x0 PUSH2 0x1D54 DUP14 DUP3 DUP15 ADD PUSH2 0x1C5E JUMP JUMPDEST SWAP11 POP POP PUSH1 0x20 PUSH2 0x1D65 DUP14 DUP3 DUP15 ADD PUSH2 0x1C5E JUMP JUMPDEST SWAP10 POP POP PUSH1 0x40 PUSH2 0x1D76 DUP14 DUP3 DUP15 ADD PUSH2 0x1CCB JUMP JUMPDEST SWAP9 POP POP PUSH1 0x60 PUSH2 0x1D87 DUP14 DUP3 DUP15 ADD PUSH2 0x1CE0 JUMP JUMPDEST SWAP8 POP POP PUSH1 0x80 PUSH2 0x1D98 DUP14 DUP3 DUP15 ADD PUSH2 0x1C73 JUMP JUMPDEST SWAP7 POP POP PUSH1 0xA0 DUP12 ADD CALLDATALOAD PUSH8 0xFFFFFFFFFFFFFFFF DUP2 GT ISZERO PUSH2 0x1DB9 JUMPI PUSH2 0x1DB8 PUSH2 0x26E0 JUMP JUMPDEST JUMPDEST PUSH2 0x1DC5 DUP14 DUP3 DUP15 ADD PUSH2 0x1C88 JUMP JUMPDEST SWAP6 POP POP PUSH1 0xC0 PUSH2 0x1DD6 DUP14 DUP3 DUP15 ADD PUSH2 0x1CB6 JUMP JUMPDEST SWAP5 POP POP PUSH1 0xE0 PUSH2 0x1DE7 DUP14 DUP3 DUP15 ADD PUSH2 0x1CB6 JUMP JUMPDEST SWAP4 POP POP PUSH2 0x100 PUSH2 0x1DF9 DUP14 DUP3 DUP15 ADD PUSH2 0x1CE0 JUMP JUMPDEST SWAP3 POP POP PUSH2 0x120 PUSH2 0x1E0B DUP14 DUP3 DUP15 ADD PUSH2 0x1CCB JUMP JUMPDEST SWAP2 POP POP SWAP3 SWAP6 SWAP9 SWAP12 SWAP2 SWAP5 SWAP8 SWAP11 POP SWAP3 SWAP6 SWAP9 POP JUMP JUMPDEST PUSH1 0x0 DUP1 PUSH1 0x40 DUP4 DUP6 SUB SLT ISZERO PUSH2 0x1E34 JUMPI PUSH2 0x1E33 PUSH2 0x26E5 JUMP JUMPDEST JUMPDEST PUSH1 0x0 PUSH2 0x1E42 DUP6 DUP3 DUP7 ADD PUSH2 0x1C5E JUMP JUMPDEST SWAP3 POP POP PUSH1 0x20 PUSH2 0x1E53 DUP6 DUP3 DUP7 ADD PUSH2 0x1CB6 JUMP JUMPDEST SWAP2 POP POP SWAP3 POP SWAP3 SWAP1 POP JUMP JUMPDEST PUSH1 0x0 DUP1 PUSH1 0x0 DUP1 PUSH1 0x0 DUP1 PUSH1 0x0 DUP1 PUSH1 0x0 DUP1 PUSH1 0x0 PUSH2 0x160 DUP13 DUP15 SUB SLT ISZERO PUSH2 0x1E83 JUMPI PUSH2 0x1E82 PUSH2 0x26E5 JUMP JUMPDEST JUMPDEST PUSH1 0x0 PUSH2 0x1E91 DUP15 DUP3 DUP16 ADD PUSH2 0x1C5E JUMP JUMPDEST SWAP12 POP POP PUSH1 0x20 PUSH2 0x1EA2 DUP15 DUP3 DUP16 ADD PUSH2 0x1CB6 JUMP JUMPDEST SWAP11 POP POP PUSH1 0x40 PUSH2 0x1EB3 DUP15 DUP3 DUP16 ADD PUSH2 0x1C5E JUMP JUMPDEST SWAP10 POP POP PUSH1 0x60 PUSH2 0x1EC4 DUP15 DUP3 DUP16 ADD PUSH2 0x1CCB JUMP JUMPDEST SWAP9 POP POP PUSH1 0x80 PUSH2 0x1ED5 DUP15 DUP3 DUP16 ADD PUSH2 0x1CE0 JUMP JUMPDEST SWAP8 POP POP PUSH1 0xA0 PUSH2 0x1EE6 DUP15 DUP3 DUP16 ADD PUSH2 0x1C73 JUMP JUMPDEST SWAP7 POP POP PUSH1 0xC0 DUP13 ADD CALLDATALOAD PUSH8 0xFFFFFFFFFFFFFFFF DUP2 GT ISZERO PUSH2 0x1F07 JUMPI PUSH2 0x1F06 PUSH2 0x26E0 JUMP JUMPDEST JUMPDEST PUSH2 0x1F13 DUP15 DUP3 DUP16 ADD PUSH2 0x1C88 JUMP JUMPDEST SWAP6 POP POP PUSH1 0xE0 PUSH2 0x1F24 DUP15 DUP3 DUP16 ADD PUSH2 0x1CB6 JUMP JUMPDEST SWAP5 POP POP PUSH2 0x100 PUSH2 0x1F36 DUP15 DUP3 DUP16 ADD PUSH2 0x1CB6 JUMP JUMPDEST SWAP4 POP POP PUSH2 0x120 PUSH2 0x1F48 DUP15 DUP3 DUP16 ADD PUSH2 0x1CE0 JUMP JUMPDEST SWAP3 POP POP PUSH2 0x140 PUSH2 0x1F5A DUP15 DUP3 DUP16 ADD PUSH2 0x1CCB JUMP JUMPDEST SWAP2 POP POP SWAP3 SWAP6 SWAP9 SWAP12 POP SWAP3 SWAP6 SWAP9 SWAP12 SWAP1 SWAP4 SWAP7 SWAP10 POP JUMP JUMPDEST PUSH1 0x0 PUSH1 0x20 DUP3 DUP5 SUB SLT ISZERO PUSH2 0x1F83 JUMPI PUSH2 0x1F82 PUSH2 0x26E5 JUMP JUMPDEST JUMPDEST PUSH1 0x0 PUSH2 0x1F91 DUP5 DUP3 DUP6 ADD PUSH2 0x1CCB JUMP JUMPDEST SWAP2 POP POP SWAP3 SWAP2 POP POP JUMP JUMPDEST PUSH2 0x1FA3 DUP2 PUSH2 0x2426 JUMP JUMPDEST DUP3 MSTORE POP POP JUMP JUMPDEST PUSH2 0x1FB2 DUP2 PUSH2 0x2426 JUMP JUMPDEST DUP3 MSTORE POP POP JUMP JUMPDEST PUSH2 0x1FC1 DUP2 PUSH2 0x2438 JUMP JUMPDEST DUP3 MSTORE POP POP JUMP JUMPDEST PUSH2 0x1FD0 DUP2 PUSH2 0x24D2 JUMP JUMPDEST DUP3 MSTORE POP POP JUMP JUMPDEST PUSH2 0x1FDF DUP2 PUSH2 0x24E4 JUMP JUMPDEST DUP3 MSTORE POP POP JUMP JUMPDEST PUSH2 0x1FEE DUP2 PUSH2 0x24F6 JUMP JUMPDEST DUP3 MSTORE POP POP JUMP JUMPDEST PUSH1 0x0 PUSH2 0x1FFF DUP3 PUSH2 0x240A JUMP JUMPDEST PUSH2 0x2009 DUP2 DUP6 PUSH2 0x2415 JUMP JUMPDEST SWAP4 POP PUSH2 0x2019 DUP2 DUP6 PUSH1 0x20 DUP7 ADD PUSH2 0x253B JUMP JUMPDEST PUSH2 0x2022 DUP2 PUSH2 0x26EA JUMP JUMPDEST DUP5 ADD SWAP2 POP POP SWAP3 SWAP2 POP POP JUMP JUMPDEST PUSH1 0x0 PUSH2 0x203A PUSH1 0x12 DUP4 PUSH2 0x2415 JUMP JUMPDEST SWAP2 POP PUSH2 0x2045 DUP3 PUSH2 0x26FB JUMP JUMPDEST PUSH1 0x20 DUP3 ADD SWAP1 POP SWAP2 SWAP1 POP JUMP JUMPDEST PUSH1 0x0 PUSH2 0x205D PUSH1 0x20 DUP4 PUSH2 0x2415 JUMP JUMPDEST SWAP2 POP PUSH2 0x2068 DUP3 PUSH2 0x2724 JUMP JUMPDEST PUSH1 0x20 DUP3 ADD SWAP1 POP SWAP2 SWAP1 POP JUMP JUMPDEST PUSH1 0x60 DUP3 ADD PUSH1 0x0 DUP3 ADD MLOAD PUSH2 0x2089 PUSH1 0x0 DUP6 ADD DUP3 PUSH2 0x20C4 JUMP JUMPDEST POP PUSH1 0x20 DUP3 ADD MLOAD PUSH2 0x209C PUSH1 0x20 DUP6 ADD DUP3 PUSH2 0x1F9A JUMP JUMPDEST POP PUSH1 0x40 DUP3 ADD MLOAD PUSH2 0x20AF PUSH1 0x40 DUP6 ADD DUP3 PUSH2 0x1FD6 JUMP JUMPDEST POP POP POP POP JUMP JUMPDEST PUSH2 0x20BE DUP2 PUSH2 0x247D JUMP JUMPDEST DUP3 MSTORE POP POP JUMP JUMPDEST PUSH2 0x20CD DUP2 PUSH2 0x24AB JUMP JUMPDEST DUP3 MSTORE POP POP JUMP JUMPDEST PUSH2 0x20DC DUP2 PUSH2 0x24AB JUMP JUMPDEST DUP3 MSTORE POP POP JUMP JUMPDEST PUSH2 0x20EB DUP2 PUSH2 0x2508 JUMP JUMPDEST DUP3 MSTORE POP POP JUMP JUMPDEST PUSH2 0x20FA DUP2 PUSH2 0x24B5 JUMP JUMPDEST DUP3 MSTORE POP POP JUMP JUMPDEST PUSH2 0x2109 DUP2 PUSH2 0x251A JUMP JUMPDEST DUP3 MSTORE POP POP JUMP JUMPDEST PUSH2 0x2118 DUP2 PUSH2 0x24C5 JUMP JUMPDEST DUP3 MSTORE POP POP JUMP JUMPDEST PUSH1 0x0 PUSH1 0x80 DUP3 ADD SWAP1 POP PUSH2 0x2133 PUSH1 0x0 DUP4 ADD DUP8 PUSH2 0x1FA9 JUMP JUMPDEST PUSH2 0x2140 PUSH1 0x20 DUP4 ADD DUP7 PUSH2 0x1FA9 JUMP JUMPDEST PUSH2 0x214D PUSH1 0x40 DUP4 ADD DUP6 PUSH2 0x20E2 JUMP JUMPDEST PUSH2 0x215A PUSH1 0x60 DUP4 ADD DUP5 PUSH2 0x2100 JUMP JUMPDEST SWAP6 SWAP5 POP POP POP POP POP JUMP JUMPDEST PUSH1 0x0 PUSH1 0x20 DUP3 ADD SWAP1 POP PUSH2 0x2178 PUSH1 0x0 DUP4 ADD DUP5 PUSH2 0x1FB8 JUMP JUMPDEST SWAP3 SWAP2 POP POP JUMP JUMPDEST PUSH1 0x0 PUSH1 0xC0 DUP3 ADD SWAP1 POP PUSH2 0x2193 PUSH1 0x0 DUP4 ADD DUP10 PUSH2 0x1FB8 JUMP JUMPDEST PUSH2 0x21A0 PUSH1 0x20 DUP4 ADD DUP9 PUSH2 0x1FA9 JUMP JUMPDEST PUSH2 0x21AD PUSH1 0x40 DUP4 ADD DUP8 PUSH2 0x20B5 JUMP JUMPDEST PUSH2 0x21BA PUSH1 0x60 DUP4 ADD DUP7 PUSH2 0x1FE5 JUMP JUMPDEST DUP2 DUP2 SUB PUSH1 0x80 DUP4 ADD MSTORE PUSH2 0x21CC DUP2 DUP6 PUSH2 0x1FF4 JUMP JUMPDEST SWAP1 POP DUP2 DUP2 SUB PUSH1 0xA0 DUP4 ADD MSTORE PUSH2 0x21E0 DUP2 DUP5 PUSH2 0x1FF4 JUMP JUMPDEST SWAP1 POP SWAP8 SWAP7 POP POP POP POP POP POP POP JUMP JUMPDEST PUSH1 0x0 PUSH1 0x60 DUP3 ADD SWAP1 POP PUSH2 0x2202 PUSH1 0x0 DUP4 ADD DUP7 PUSH2 0x1FB8 JUMP JUMPDEST DUP2 DUP2 SUB PUSH1 0x20 DUP4 ADD MSTORE PUSH2 0x2214 DUP2 DUP6 PUSH2 0x1FF4 JUMP JUMPDEST SWAP1 POP PUSH2 0x2223 PUSH1 0x40 DUP4 ADD DUP5 PUSH2 0x210F JUMP JUMPDEST SWAP5 SWAP4 POP POP POP POP JUMP JUMPDEST PUSH1 0x0 PUSH1 0x80 DUP3 ADD SWAP1 POP PUSH2 0x2240 PUSH1 0x0 DUP4 ADD DUP8 PUSH2 0x1FB8 JUMP JUMPDEST PUSH2 0x224D PUSH1 0x20 DUP4 ADD DUP7 PUSH2 0x210F JUMP JUMPDEST PUSH2 0x225A PUSH1 0x40 DUP4 ADD DUP6 PUSH2 0x20D3 JUMP JUMPDEST DUP2 DUP2 SUB PUSH1 0x60 DUP4 ADD MSTORE PUSH2 0x226C DUP2 DUP5 PUSH2 0x1FF4 JUMP JUMPDEST SWAP1 POP SWAP6 SWAP5 POP POP POP POP POP JUMP JUMPDEST PUSH1 0x0 PUSH1 0x20 DUP3 ADD SWAP1 POP DUP2 DUP2 SUB PUSH1 0x0 DUP4 ADD MSTORE PUSH2 0x2290 DUP2 PUSH2 0x202D JUMP JUMPDEST SWAP1 POP SWAP2 SWAP1 POP JUMP JUMPDEST PUSH1 0x0 PUSH1 0x20 DUP3 ADD SWAP1 POP DUP2 DUP2 SUB PUSH1 0x0 DUP4 ADD MSTORE PUSH2 0x22B0 DUP2 PUSH2 0x2050 JUMP JUMPDEST SWAP1 POP SWAP2 SWAP1 POP JUMP JUMPDEST PUSH1 0x0 PUSH1 0x20 DUP3 ADD SWAP1 POP PUSH2 0x22CC PUSH1 0x0 DUP4 ADD DUP5 PUSH2 0x20D3 JUMP JUMPDEST SWAP3 SWAP2 POP POP JUMP JUMPDEST PUSH1 0x0 PUSH2 0x1A0 DUP3 ADD SWAP1 POP PUSH2 0x22E8 PUSH1 0x0 DUP4 ADD DUP15 PUSH2 0x20D3 JUMP JUMPDEST PUSH2 0x22F5 PUSH1 0x20 DUP4 ADD DUP14 PUSH2 0x1FA9 JUMP JUMPDEST PUSH2 0x2302 PUSH1 0x40 DUP4 ADD DUP13 PUSH2 0x20F1 JUMP JUMPDEST PUSH2 0x230F PUSH1 0x60 DUP4 ADD DUP12 PUSH2 0x210F JUMP JUMPDEST PUSH2 0x231C PUSH1 0x80 DUP4 ADD DUP11 PUSH2 0x1FC7 JUMP JUMPDEST DUP2 DUP2 SUB PUSH1 0xA0 DUP4 ADD MSTORE PUSH2 0x232E DUP2 DUP10 PUSH2 0x1FF4 JUMP JUMPDEST SWAP1 POP PUSH2 0x233D PUSH1 0xC0 DUP4 ADD DUP9 PUSH2 0x20D3 JUMP JUMPDEST PUSH2 0x234A PUSH1 0xE0 DUP4 ADD DUP8 PUSH2 0x20D3 JUMP JUMPDEST PUSH2 0x2358 PUSH2 0x100 DUP4 ADD DUP7 PUSH2 0x210F JUMP JUMPDEST PUSH2 0x2366 PUSH2 0x120 DUP4 ADD DUP6 PUSH2 0x20F1 JUMP JUMPDEST PUSH2 0x2374 PUSH2 0x140 DUP4 ADD DUP5 PUSH2 0x2073 JUMP JUMPDEST SWAP13 SWAP12 POP POP POP POP POP POP POP POP POP POP POP POP JUMP JUMPDEST PUSH1 0x0 PUSH1 0x40 DUP3 ADD SWAP1 POP PUSH2 0x2399 PUSH1 0x0 DUP4 ADD DUP6 PUSH2 0x20F1 JUMP JUMPDEST DUP2 DUP2 SUB PUSH1 0x20 DUP4 ADD MSTORE PUSH2 0x23AB DUP2 DUP5 PUSH2 0x1FF4 JUMP JUMPDEST SWAP1 POP SWAP4 SWAP3 POP POP POP JUMP JUMPDEST PUSH1 0x0 PUSH2 0x23BE PUSH2 0x23CF JUMP JUMPDEST SWAP1 POP PUSH2 0x23CA DUP3 DUP3 PUSH2 0x25A0 JUMP JUMPDEST SWAP2 SWAP1 POP JUMP JUMPDEST PUSH1 0x0 PUSH1 0x40 MLOAD SWAP1 POP SWAP1 JUMP JUMPDEST PUSH1 0x0 PUSH8 0xFFFFFFFFFFFFFFFF DUP3 GT ISZERO PUSH2 0x23F4 JUMPI PUSH2 0x23F3 PUSH2 0x26A7 JUMP JUMPDEST JUMPDEST PUSH2 0x23FD DUP3 PUSH2 0x26EA JUMP JUMPDEST SWAP1 POP PUSH1 0x20 DUP2 ADD SWAP1 POP SWAP2 SWAP1 POP JUMP JUMPDEST PUSH1 0x0 DUP2 MLOAD SWAP1 POP SWAP2 SWAP1 POP JUMP JUMPDEST PUSH1 0x0 DUP3 DUP3 MSTORE PUSH1 0x20 DUP3 ADD SWAP1 POP SWAP3 SWAP2 POP POP JUMP JUMPDEST PUSH1 0x0 PUSH2 0x2431 DUP3 PUSH2 0x248B JUMP JUMPDEST SWAP1 POP SWAP2 SWAP1 POP JUMP JUMPDEST PUSH1 0x0 DUP2 ISZERO ISZERO SWAP1 POP SWAP2 SWAP1 POP JUMP JUMPDEST PUSH1 0x0 DUP2 SWAP1 POP PUSH2 0x2452 DUP3 PUSH2 0x274D JUMP JUMPDEST SWAP2 SWAP1 POP JUMP JUMPDEST PUSH1 0x0 DUP2 SWAP1 POP PUSH2 0x2465 DUP3 PUSH2 0x2761 JUMP JUMPDEST SWAP2 SWAP1 POP JUMP JUMPDEST PUSH1 0x0 DUP2 SWAP1 POP PUSH2 0x2478 DUP3 PUSH2 0x2775 JUMP JUMPDEST SWAP2 SWAP1 POP JUMP JUMPDEST PUSH1 0x0 PUSH2 0xFFFF DUP3 AND SWAP1 POP SWAP2 SWAP1 POP JUMP JUMPDEST PUSH1 0x0 PUSH20 0xFFFFFFFFFFFFFFFFFFFFFFFFFFFFFFFFFFFFFFFF DUP3 AND SWAP1 POP SWAP2 SWAP1 POP JUMP JUMPDEST PUSH1 0x0 DUP2 SWAP1 POP SWAP2 SWAP1 POP JUMP JUMPDEST PUSH1 0x0 PUSH4 0xFFFFFFFF DUP3 AND SWAP1 POP SWAP2 SWAP1 POP JUMP JUMPDEST PUSH1 0x0 PUSH1 0xFF DUP3 AND SWAP1 POP SWAP2 SWAP1 POP JUMP JUMPDEST PUSH1 0x0 PUSH2 0x24DD DUP3 PUSH2 0x2444 JUMP JUMPDEST SWAP1 POP SWAP2 SWAP1 POP JUMP JUMPDEST PUSH1 0x0 PUSH2 0x24EF DUP3 PUSH2 0x2457 JUMP JUMPDEST SWAP1 POP SWAP2 SWAP1 POP JUMP JUMPDEST PUSH1 0x0 PUSH2 0x2501 DUP3 PUSH2 0x246A JUMP JUMPDEST SWAP1 POP SWAP2 SWAP1 POP JUMP JUMPDEST PUSH1 0x0 PUSH2 0x2513 DUP3 PUSH2 0x24B5 JUMP JUMPDEST SWAP1 POP SWAP2 SWAP1 POP JUMP JUMPDEST PUSH1 0x0 PUSH2 0x2525 DUP3 PUSH2 0x24C5 JUMP JUMPDEST SWAP1 POP SWAP2 SWAP1 POP JUMP JUMPDEST DUP3 DUP2 DUP4 CALLDATACOPY PUSH1 0x0 DUP4 DUP4 ADD MSTORE POP POP POP JUMP JUMPDEST PUSH1 0x0 JUMPDEST DUP4 DUP2 LT ISZERO PUSH2 0x2559 JUMPI DUP1 DUP3 ADD MLOAD DUP2 DUP5 ADD MSTORE PUSH1 0x20 DUP2 ADD SWAP1 POP PUSH2 0x253E JUMP JUMPDEST DUP4 DUP2 GT ISZERO PUSH2 0x2568 JUMPI PUSH1 0x0 DUP5 DUP5 ADD MSTORE JUMPDEST POP POP POP POP JUMP JUMPDEST PUSH1 0x0 PUSH1 0x2 DUP3 DIV SWAP1 POP PUSH1 0x1 DUP3 AND DUP1 PUSH2 0x2586 JUMPI PUSH1 0x7F DUP3 AND SWAP2 POP JUMPDEST PUSH1 0x20 DUP3 LT DUP2 EQ ISZERO PUSH2 0x259A JUMPI PUSH2 0x2599 PUSH2 0x2678 JUMP JUMPDEST JUMPDEST POP SWAP2 SWAP1 POP JUMP JUMPDEST PUSH2 0x25A9 DUP3 PUSH2 0x26EA JUMP JUMPDEST DUP2 ADD DUP2 DUP2 LT PUSH8 0xFFFFFFFFFFFFFFFF DUP3 GT OR ISZERO PUSH2 0x25C8 JUMPI PUSH2 0x25C7 PUSH2 0x26A7 JUMP JUMPDEST JUMPDEST DUP1 PUSH1 0x40 MSTORE POP POP POP JUMP JUMPDEST PUSH1 0x0 PUSH2 0x25DC DUP3 PUSH2 0x24AB JUMP JUMPDEST SWAP2 POP PUSH32 0xFFFFFFFFFFFFFFFFFFFFFFFFFFFFFFFFFFFFFFFFFFFFFFFFFFFFFFFFFFFFFFFF DUP3 EQ ISZERO PUSH2 0x260F JUMPI PUSH2 0x260E PUSH2 0x261A JUMP JUMPDEST JUMPDEST PUSH1 0x1 DUP3 ADD SWAP1 POP SWAP2 SWAP1 POP JUMP JUMPDEST PUSH32 0x4E487B7100000000000000000000000000000000000000000000000000000000 PUSH1 0x0 MSTORE PUSH1 0x11 PUSH1 0x4 MSTORE PUSH1 0x24 PUSH1 0x0 REVERT JUMPDEST PUSH32 0x4E487B7100000000000000000000000000000000000000000000000000000000 PUSH1 0x0 MSTORE PUSH1 0x21 PUSH1 0x4 MSTORE PUSH1 0x24 PUSH1 0x0 REVERT JUMPDEST PUSH32 0x4E487B7100000000000000000000000000000000000000000000000000000000 PUSH1 0x0 MSTORE PUSH1 0x22 PUSH1 0x4 MSTORE PUSH1 0x24 PUSH1 0x0 REVERT JUMPDEST PUSH32 0x4E487B7100000000000000000000000000000000000000000000000000000000 PUSH1 0x0 MSTORE PUSH1 0x41 PUSH1 0x4 MSTORE PUSH1 0x24 PUSH1 0x0 REVERT JUMPDEST PUSH1 0x0 DUP1 REVERT JUMPDEST PUSH1 0x0 DUP1 REVERT JUMPDEST PUSH1 0x0 DUP1 REVERT JUMPDEST PUSH1 0x0 DUP1 REVERT JUMPDEST PUSH1 0x0 PUSH1 0x1F NOT PUSH1 0x1F DUP4 ADD AND SWAP1 POP SWAP2 SWAP1 POP JUMP JUMPDEST PUSH32 0x53747564656E74206E6F74206578697374730000000000000000000000000000 PUSH1 0x0 DUP3 ADD MSTORE POP JUMP JUMPDEST PUSH32 0x42752069736C656D6920736164656365204B757273207961706162696C69722E PUSH1 0x0 DUP3 ADD MSTORE POP JUMP JUMPDEST PUSH1 0x3 DUP2 LT PUSH2 0x275E JUMPI PUSH2 0x275D PUSH2 0x2649 JUMP JUMPDEST JUMPDEST POP JUMP JUMPDEST PUSH1 0x3 DUP2 LT PUSH2 0x2772 JUMPI PUSH2 0x2771 PUSH2 0x2649 JUMP JUMPDEST JUMPDEST POP JUMP JUMPDEST PUSH1 0x4 DUP2 LT PUSH2 0x2786 JUMPI PUSH2 0x2785 PUSH2 0x2649 JUMP JUMPDEST JUMPDEST POP JUMP JUMPDEST PUSH2 0x2792 DUP2 PUSH2 0x2426 JUMP JUMPDEST DUP2 EQ PUSH2 0x279D JUMPI PUSH1 0x0 DUP1 REVERT JUMPDEST POP JUMP JUMPDEST PUSH1 0x3 DUP2 LT PUSH2 0x27AD JUMPI PUSH1 0x0 DUP1 REVERT JUMPDEST POP JUMP JUMPDEST PUSH2 0x27B9 DUP2 PUSH2 0x24AB JUMP JUMPDEST DUP2 EQ PUSH2 0x27C4 JUMPI PUSH1 0x0 DUP1 REVERT JUMPDEST POP JUMP JUMPDEST PUSH2 0x27D0 DUP2 PUSH2 0x24B5 JUMP JUMPDEST DUP2 EQ PUSH2 0x27DB JUMPI PUSH1 0x0 DUP1 REVERT JUMPDEST POP JUMP JUMPDEST PUSH2 0x27E7 DUP2 PUSH2 0x24C5 JUMP JUMPDEST DUP2 EQ PUSH2 0x27F2 JUMPI PUSH1 0x0 DUP1 REVERT JUMPDEST POP JUMP INVALID LOG2 PUSH5 0x6970667358 0x22 SLT KECCAK256 0xD9 DUP4 CALLVALUE 0xE9 LOG1 SWAP4 0xCF PUSH29 0xDCE5338AE6098C9FEBC910B7CC84BCD17C51A3F810B9718C64736F6C63 NUMBER STOP ADDMOD SMOD STOP CALLER "
				},
				"gasEstimates": {
					"creation": {
						"codeDepositCost": "2056600",
						"executionCost": "2185",
						"totalCost": "2058785"
					},
					"external": {
						"akademisyenler(address)": "infinite",
						"calismaBilgileri(address,uint256)": "infinite",
						"diller(uint32)": "infinite",
						"ekleCalismaBilgi(address,address,uint32,uint8,uint8,string,uint256,uint256,uint8,uint32)": "infinite",
						"firmalar(address)": "infinite",
						"guncelleCalismaBilgi(address,uint256,address,uint32,uint8,uint8,string,uint256,uint256,uint8,uint32)": "infinite",
						"id()": "2451",
						"kamuKurumlari(address)": "infinite",
						"kisiler(address)": "2958",
						"kurslar(address)": "infinite",
						"sertifikaMerkezleri(address)": "infinite",
						"stklar(address)": "infinite",
						"universiteler(address)": "infinite"
					}
				},
				"methodIdentifiers": {
					"akademisyenler(address)": "ba479b7e",
					"calismaBilgileri(address,uint256)": "0fb0b1b2",
					"diller(uint32)": "a4e7ae05",
					"ekleCalismaBilgi(address,address,uint32,uint8,uint8,string,uint256,uint256,uint8,uint32)": "b34b5539",
					"firmalar(address)": "39987f94",
					"guncelleCalismaBilgi(address,uint256,address,uint32,uint8,uint8,string,uint256,uint256,uint8,uint32)": "7b6524fe",
					"id()": "af640d0f",
					"kamuKurumlari(address)": "7d0fa287",
					"kisiler(address)": "cbc92809",
					"kurslar(address)": "1916e139",
					"sertifikaMerkezleri(address)": "356b1f1e",
					"stklar(address)": "9a8c9119",
					"universiteler(address)": "28266697"
				}
			},
			"storageLayout": {
				"storage": [
					{
						"astId": 3,
						"contract": "contracts/CalismaBilgileri.sol:CalismaBilgileri",
						"label": "YOK",
						"offset": 0,
						"slot": "0",
						"type": "t_address"
					},
					{
						"astId": 5,
						"contract": "contracts/CalismaBilgileri.sol:CalismaBilgileri",
						"label": "TOBB",
						"offset": 0,
						"slot": "1",
						"type": "t_address"
					},
					{
						"astId": 7,
						"contract": "contracts/CalismaBilgileri.sol:CalismaBilgileri",
						"label": "CB",
						"offset": 0,
						"slot": "2",
						"type": "t_address"
					},
					{
						"astId": 236,
						"contract": "contracts/CalismaBilgileri.sol:CalismaBilgileri",
						"label": "kisiler",
						"offset": 0,
						"slot": "3",
						"type": "t_mapping(t_address,t_struct(Kisi)10_storage)"
					},
					{
						"astId": 241,
						"contract": "contracts/CalismaBilgileri.sol:CalismaBilgileri",
						"label": "universiteler",
						"offset": 0,
						"slot": "4",
						"type": "t_mapping(t_address,t_struct(Universite)29_storage)"
					},
					{
						"astId": 246,
						"contract": "contracts/CalismaBilgileri.sol:CalismaBilgileri",
						"label": "akademisyenler",
						"offset": 0,
						"slot": "5",
						"type": "t_mapping(t_address,t_struct(Akademisyen)43_storage)"
					},
					{
						"astId": 251,
						"contract": "contracts/CalismaBilgileri.sol:CalismaBilgileri",
						"label": "firmalar",
						"offset": 0,
						"slot": "6",
						"type": "t_mapping(t_address,t_struct(Firma)83_storage)"
					},
					{
						"astId": 256,
						"contract": "contracts/CalismaBilgileri.sol:CalismaBilgileri",
						"label": "kurslar",
						"offset": 0,
						"slot": "7",
						"type": "t_mapping(t_address,t_struct(Kurs)111_storage)"
					},
					{
						"astId": 261,
						"contract": "contracts/CalismaBilgileri.sol:CalismaBilgileri",
						"label": "kamuKurumlari",
						"offset": 0,
						"slot": "8",
						"type": "t_mapping(t_address,t_struct(KamuKurumu)90_storage)"
					},
					{
						"astId": 266,
						"contract": "contracts/CalismaBilgileri.sol:CalismaBilgileri",
						"label": "stklar",
						"offset": 0,
						"slot": "9",
						"type": "t_mapping(t_address,t_struct(STK)97_storage)"
					},
					{
						"astId": 271,
						"contract": "contracts/CalismaBilgileri.sol:CalismaBilgileri",
						"label": "sertifikaMerkezleri",
						"offset": 0,
						"slot": "10",
						"type": "t_mapping(t_address,t_struct(SertifikaMerkezi)104_storage)"
					},
					{
						"astId": 276,
						"contract": "contracts/CalismaBilgileri.sol:CalismaBilgileri",
						"label": "diller",
						"offset": 0,
						"slot": "11",
						"type": "t_mapping(t_uint32,t_struct(YabanciDil)116_storage)"
					},
					{
						"astId": 284,
						"contract": "contracts/CalismaBilgileri.sol:CalismaBilgileri",
						"label": "id",
						"offset": 0,
						"slot": "12",
						"type": "t_uint256"
					},
					{
						"astId": 320,
						"contract": "contracts/CalismaBilgileri.sol:CalismaBilgileri",
						"label": "calismaBilgileri",
						"offset": 0,
						"slot": "13",
						"type": "t_mapping(t_address,t_mapping(t_uint256,t_struct(CalismaBilgi)309_storage))"
					}
				],
				"types": {
					"t_address": {
						"encoding": "inplace",
						"label": "address",
						"numberOfBytes": "20"
					},
					"t_bool": {
						"encoding": "inplace",
						"label": "bool",
						"numberOfBytes": "1"
					},
					"t_enum(CalismaTipi)313": {
						"encoding": "inplace",
						"label": "enum CalismaBilgileri.CalismaTipi",
						"numberOfBytes": "1"
					},
					"t_enum(OnayDurum)22": {
						"encoding": "inplace",
						"label": "enum BaseContract.OnayDurum",
						"numberOfBytes": "1"
					},
					"t_enum(Unvan)48": {
						"encoding": "inplace",
						"label": "enum BaseContract.Unvan",
						"numberOfBytes": "1"
					},
					"t_mapping(t_address,t_mapping(t_uint256,t_struct(CalismaBilgi)309_storage))": {
						"encoding": "mapping",
						"key": "t_address",
						"label": "mapping(address => mapping(uint256 => struct CalismaBilgileri.CalismaBilgi))",
						"numberOfBytes": "32",
						"value": "t_mapping(t_uint256,t_struct(CalismaBilgi)309_storage)"
					},
					"t_mapping(t_address,t_struct(Akademisyen)43_storage)": {
						"encoding": "mapping",
						"key": "t_address",
						"label": "mapping(address => struct BaseContract.Akademisyen)",
						"numberOfBytes": "32",
						"value": "t_struct(Akademisyen)43_storage"
					},
					"t_mapping(t_address,t_struct(Firma)83_storage)": {
						"encoding": "mapping",
						"key": "t_address",
						"label": "mapping(address => struct BaseContract.Firma)",
						"numberOfBytes": "32",
						"value": "t_struct(Firma)83_storage"
					},
					"t_mapping(t_address,t_struct(KamuKurumu)90_storage)": {
						"encoding": "mapping",
						"key": "t_address",
						"label": "mapping(address => struct BaseContract.KamuKurumu)",
						"numberOfBytes": "32",
						"value": "t_struct(KamuKurumu)90_storage"
					},
					"t_mapping(t_address,t_struct(Kisi)10_storage)": {
						"encoding": "mapping",
						"key": "t_address",
						"label": "mapping(address => struct BaseContract.Kisi)",
						"numberOfBytes": "32",
						"value": "t_struct(Kisi)10_storage"
					},
					"t_mapping(t_address,t_struct(Kurs)111_storage)": {
						"encoding": "mapping",
						"key": "t_address",
						"label": "mapping(address => struct BaseContract.Kurs)",
						"numberOfBytes": "32",
						"value": "t_struct(Kurs)111_storage"
					},
					"t_mapping(t_address,t_struct(STK)97_storage)": {
						"encoding": "mapping",
						"key": "t_address",
						"label": "mapping(address => struct BaseContract.STK)",
						"numberOfBytes": "32",
						"value": "t_struct(STK)97_storage"
					},
					"t_mapping(t_address,t_struct(SertifikaMerkezi)104_storage)": {
						"encoding": "mapping",
						"key": "t_address",
						"label": "mapping(address => struct BaseContract.SertifikaMerkezi)",
						"numberOfBytes": "32",
						"value": "t_struct(SertifikaMerkezi)104_storage"
					},
					"t_mapping(t_address,t_struct(Universite)29_storage)": {
						"encoding": "mapping",
						"key": "t_address",
						"label": "mapping(address => struct BaseContract.Universite)",
						"numberOfBytes": "32",
						"value": "t_struct(Universite)29_storage"
					},
					"t_mapping(t_uint256,t_struct(CalismaBilgi)309_storage)": {
						"encoding": "mapping",
						"key": "t_uint256",
						"label": "mapping(uint256 => struct CalismaBilgileri.CalismaBilgi)",
						"numberOfBytes": "32",
						"value": "t_struct(CalismaBilgi)309_storage"
					},
					"t_mapping(t_uint32,t_struct(YabanciDil)116_storage)": {
						"encoding": "mapping",
						"key": "t_uint32",
						"label": "mapping(uint32 => struct BaseContract.YabanciDil)",
						"numberOfBytes": "32",
						"value": "t_struct(YabanciDil)116_storage"
					},
					"t_string_storage": {
						"encoding": "bytes",
						"label": "string",
						"numberOfBytes": "32"
					},
					"t_struct(Akademisyen)43_storage": {
						"encoding": "inplace",
						"label": "struct BaseContract.Akademisyen",
						"members": [
							{
								"astId": 31,
								"contract": "contracts/CalismaBilgileri.sol:CalismaBilgileri",
								"label": "durum",
								"offset": 0,
								"slot": "0",
								"type": "t_bool"
							},
							{
								"astId": 33,
								"contract": "contracts/CalismaBilgileri.sol:CalismaBilgileri",
								"label": "universite",
								"offset": 1,
								"slot": "0",
								"type": "t_address"
							},
							{
								"astId": 35,
								"contract": "contracts/CalismaBilgileri.sol:CalismaBilgileri",
								"label": "bolum",
								"offset": 21,
								"slot": "0",
								"type": "t_uint16"
							},
							{
								"astId": 38,
								"contract": "contracts/CalismaBilgileri.sol:CalismaBilgileri",
								"label": "unvan",
								"offset": 23,
								"slot": "0",
								"type": "t_enum(Unvan)48"
							},
							{
								"astId": 40,
								"contract": "contracts/CalismaBilgileri.sol:CalismaBilgileri",
								"label": "ad",
								"offset": 0,
								"slot": "1",
								"type": "t_string_storage"
							},
							{
								"astId": 42,
								"contract": "contracts/CalismaBilgileri.sol:CalismaBilgileri",
								"label": "soyad",
								"offset": 0,
								"slot": "2",
								"type": "t_string_storage"
							}
						],
						"numberOfBytes": "96"
					},
					"t_struct(CalismaBilgi)309_storage": {
						"encoding": "inplace",
						"label": "struct CalismaBilgileri.CalismaBilgi",
						"members": [
							{
								"astId": 286,
								"contract": "contracts/CalismaBilgileri.sol:CalismaBilgileri",
								"label": "id",
								"offset": 0,
								"slot": "0",
								"type": "t_uint256"
							},
							{
								"astId": 288,
								"contract": "contracts/CalismaBilgileri.sol:CalismaBilgileri",
								"label": "kurumAdres",
								"offset": 0,
								"slot": "1",
								"type": "t_address"
							},
							{
								"astId": 290,
								"contract": "contracts/CalismaBilgileri.sol:CalismaBilgileri",
								"label": "pozisyon",
								"offset": 20,
								"slot": "1",
								"type": "t_uint32"
							},
							{
								"astId": 292,
								"contract": "contracts/CalismaBilgileri.sol:CalismaBilgileri",
								"label": "sektor",
								"offset": 24,
								"slot": "1",
								"type": "t_uint8"
							},
							{
								"astId": 295,
								"contract": "contracts/CalismaBilgileri.sol:CalismaBilgileri",
								"label": "calismaTipi",
								"offset": 25,
								"slot": "1",
								"type": "t_enum(CalismaTipi)313"
							},
							{
								"astId": 297,
								"contract": "contracts/CalismaBilgileri.sol:CalismaBilgileri",
								"label": "isAciklama",
								"offset": 0,
								"slot": "2",
								"type": "t_string_storage"
							},
							{
								"astId": 299,
								"contract": "contracts/CalismaBilgileri.sol:CalismaBilgileri",
								"label": "basTarih",
								"offset": 0,
								"slot": "3",
								"type": "t_uint256"
							},
							{
								"astId": 301,
								"contract": "contracts/CalismaBilgileri.sol:CalismaBilgileri",
								"label": "bitTarih",
								"offset": 0,
								"slot": "4",
								"type": "t_uint256"
							},
							{
								"astId": 303,
								"contract": "contracts/CalismaBilgileri.sol:CalismaBilgileri",
								"label": "ulke",
								"offset": 0,
								"slot": "5",
								"type": "t_uint8"
							},
							{
								"astId": 305,
								"contract": "contracts/CalismaBilgileri.sol:CalismaBilgileri",
								"label": "sehir",
								"offset": 1,
								"slot": "5",
								"type": "t_uint32"
							},
							{
								"astId": 308,
								"contract": "contracts/CalismaBilgileri.sol:CalismaBilgileri",
								"label": "onayBilgi",
								"offset": 0,
								"slot": "6",
								"type": "t_struct(Onay)18_storage"
							}
						],
						"numberOfBytes": "256"
					},
					"t_struct(Firma)83_storage": {
						"encoding": "inplace",
						"label": "struct BaseContract.Firma",
						"members": [
							{
								"astId": 76,
								"contract": "contracts/CalismaBilgileri.sol:CalismaBilgileri",
								"label": "durum",
								"offset": 0,
								"slot": "0",
								"type": "t_bool"
							},
							{
								"astId": 78,
								"contract": "contracts/CalismaBilgileri.sol:CalismaBilgileri",
								"label": "ulke",
								"offset": 1,
								"slot": "0",
								"type": "t_uint8"
							},
							{
								"astId": 80,
								"contract": "contracts/CalismaBilgileri.sol:CalismaBilgileri",
								"label": "vergiNo",
								"offset": 0,
								"slot": "1",
								"type": "t_uint256"
							},
							{
								"astId": 82,
								"contract": "contracts/CalismaBilgileri.sol:CalismaBilgileri",
								"label": "isim",
								"offset": 0,
								"slot": "2",
								"type": "t_string_storage"
							}
						],
						"numberOfBytes": "96"
					},
					"t_struct(KamuKurumu)90_storage": {
						"encoding": "inplace",
						"label": "struct BaseContract.KamuKurumu",
						"members": [
							{
								"astId": 85,
								"contract": "contracts/CalismaBilgileri.sol:CalismaBilgileri",
								"label": "durum",
								"offset": 0,
								"slot": "0",
								"type": "t_bool"
							},
							{
								"astId": 87,
								"contract": "contracts/CalismaBilgileri.sol:CalismaBilgileri",
								"label": "isim",
								"offset": 0,
								"slot": "1",
								"type": "t_string_storage"
							},
							{
								"astId": 89,
								"contract": "contracts/CalismaBilgileri.sol:CalismaBilgileri",
								"label": "ulke",
								"offset": 0,
								"slot": "2",
								"type": "t_uint8"
							}
						],
						"numberOfBytes": "96"
					},
					"t_struct(Kisi)10_storage": {
						"encoding": "inplace",
						"label": "struct BaseContract.Kisi",
						"members": [
							{
								"astId": 9,
								"contract": "contracts/CalismaBilgileri.sol:CalismaBilgileri",
								"label": "durum",
								"offset": 0,
								"slot": "0",
								"type": "t_bool"
							}
						],
						"numberOfBytes": "32"
					},
					"t_struct(Kurs)111_storage": {
						"encoding": "inplace",
						"label": "struct BaseContract.Kurs",
						"members": [
							{
								"astId": 106,
								"contract": "contracts/CalismaBilgileri.sol:CalismaBilgileri",
								"label": "durum",
								"offset": 0,
								"slot": "0",
								"type": "t_bool"
							},
							{
								"astId": 108,
								"contract": "contracts/CalismaBilgileri.sol:CalismaBilgileri",
								"label": "isim",
								"offset": 0,
								"slot": "1",
								"type": "t_string_storage"
							},
							{
								"astId": 110,
								"contract": "contracts/CalismaBilgileri.sol:CalismaBilgileri",
								"label": "ulke",
								"offset": 0,
								"slot": "2",
								"type": "t_uint8"
							}
						],
						"numberOfBytes": "96"
					},
					"t_struct(Onay)18_storage": {
						"encoding": "inplace",
						"label": "struct BaseContract.Onay",
						"members": [
							{
								"astId": 12,
								"contract": "contracts/CalismaBilgileri.sol:CalismaBilgileri",
								"label": "zaman",
								"offset": 0,
								"slot": "0",
								"type": "t_uint256"
							},
							{
								"astId": 14,
								"contract": "contracts/CalismaBilgileri.sol:CalismaBilgileri",
								"label": "adres",
								"offset": 0,
								"slot": "1",
								"type": "t_address"
							},
							{
								"astId": 17,
								"contract": "contracts/CalismaBilgileri.sol:CalismaBilgileri",
								"label": "durum",
								"offset": 20,
								"slot": "1",
								"type": "t_enum(OnayDurum)22"
							}
						],
						"numberOfBytes": "64"
					},
					"t_struct(STK)97_storage": {
						"encoding": "inplace",
						"label": "struct BaseContract.STK",
						"members": [
							{
								"astId": 92,
								"contract": "contracts/CalismaBilgileri.sol:CalismaBilgileri",
								"label": "durum",
								"offset": 0,
								"slot": "0",
								"type": "t_bool"
							},
							{
								"astId": 94,
								"contract": "contracts/CalismaBilgileri.sol:CalismaBilgileri",
								"label": "isim",
								"offset": 0,
								"slot": "1",
								"type": "t_string_storage"
							},
							{
								"astId": 96,
								"contract": "contracts/CalismaBilgileri.sol:CalismaBilgileri",
								"label": "ulke",
								"offset": 0,
								"slot": "2",
								"type": "t_uint8"
							}
						],
						"numberOfBytes": "96"
					},
					"t_struct(SertifikaMerkezi)104_storage": {
						"encoding": "inplace",
						"label": "struct BaseContract.SertifikaMerkezi",
						"members": [
							{
								"astId": 99,
								"contract": "contracts/CalismaBilgileri.sol:CalismaBilgileri",
								"label": "durum",
								"offset": 0,
								"slot": "0",
								"type": "t_bool"
							},
							{
								"astId": 101,
								"contract": "contracts/CalismaBilgileri.sol:CalismaBilgileri",
								"label": "isim",
								"offset": 0,
								"slot": "1",
								"type": "t_string_storage"
							},
							{
								"astId": 103,
								"contract": "contracts/CalismaBilgileri.sol:CalismaBilgileri",
								"label": "ulke",
								"offset": 0,
								"slot": "2",
								"type": "t_uint8"
							}
						],
						"numberOfBytes": "96"
					},
					"t_struct(Universite)29_storage": {
						"encoding": "inplace",
						"label": "struct BaseContract.Universite",
						"members": [
							{
								"astId": 24,
								"contract": "contracts/CalismaBilgileri.sol:CalismaBilgileri",
								"label": "durum",
								"offset": 0,
								"slot": "0",
								"type": "t_bool"
							},
							{
								"astId": 26,
								"contract": "contracts/CalismaBilgileri.sol:CalismaBilgileri",
								"label": "isim",
								"offset": 0,
								"slot": "1",
								"type": "t_string_storage"
							},
							{
								"astId": 28,
								"contract": "contracts/CalismaBilgileri.sol:CalismaBilgileri",
								"label": "ulke",
								"offset": 0,
								"slot": "2",
								"type": "t_uint8"
							}
						],
						"numberOfBytes": "96"
					},
					"t_struct(YabanciDil)116_storage": {
						"encoding": "inplace",
						"label": "struct BaseContract.YabanciDil",
						"members": [
							{
								"astId": 113,
								"contract": "contracts/CalismaBilgileri.sol:CalismaBilgileri",
								"label": "id",
								"offset": 0,
								"slot": "0",
								"type": "t_uint32"
							},
							{
								"astId": 115,
								"contract": "contracts/CalismaBilgileri.sol:CalismaBilgileri",
								"label": "isim",
								"offset": 0,
								"slot": "1",
								"type": "t_string_storage"
							}
						],
						"numberOfBytes": "64"
					},
					"t_uint16": {
						"encoding": "inplace",
						"label": "uint16",
						"numberOfBytes": "2"
					},
					"t_uint256": {
						"encoding": "inplace",
						"label": "uint256",
						"numberOfBytes": "32"
					},
					"t_uint32": {
						"encoding": "inplace",
						"label": "uint32",
						"numberOfBytes": "4"
					},
					"t_uint8": {
						"encoding": "inplace",
						"label": "uint8",
						"numberOfBytes": "1"
					}
				}
			},
			"userdoc": {
				"kind": "user",
				"methods": {},
				"version": 1
			}
		}
	}
}