{
	"contracts/BaseContract.sol": {
		"BaseContract": {
			"abi": [
				{
					"inputs": [],
					"name": "YOK",
					"outputs": [
						{
							"internalType": "address",
							"name": "",
							"type": "address"
						}
					],
					"stateMutability": "view",
					"type": "function"
				},
				{
					"inputs": [
						{
							"internalType": "address",
							"name": "",
							"type": "address"
						}
					],
					"name": "akademisyenler",
					"outputs": [
						{
							"internalType": "bool",
							"name": "durum",
							"type": "bool"
						},
						{
							"internalType": "address",
							"name": "universite",
							"type": "address"
						},
						{
							"internalType": "uint16",
							"name": "bolum",
							"type": "uint16"
						},
						{
							"internalType": "enum BaseContract.Unvan",
							"name": "unvan",
							"type": "uint8"
						},
						{
							"internalType": "string",
							"name": "ad",
							"type": "string"
						},
						{
							"internalType": "string",
							"name": "soyad",
							"type": "string"
						}
					],
					"stateMutability": "view",
					"type": "function"
				},
				{
					"inputs": [
						{
							"internalType": "uint32",
							"name": "",
							"type": "uint32"
						}
					],
					"name": "diller",
					"outputs": [
						{
							"internalType": "uint32",
							"name": "id",
							"type": "uint32"
						},
						{
							"internalType": "string",
							"name": "isim",
							"type": "string"
						}
					],
					"stateMutability": "view",
					"type": "function"
				},
				{
					"inputs": [
						{
							"internalType": "address",
							"name": "_firmaAdres",
							"type": "address"
						},
						{
							"internalType": "string",
							"name": "_isim",
							"type": "string"
						},
						{
							"internalType": "uint256",
							"name": "_vergiNo",
							"type": "uint256"
						},
						{
							"internalType": "uint8",
							"name": "_ulke",
							"type": "uint8"
						}
					],
					"name": "ekleFirma",
					"outputs": [],
					"stateMutability": "nonpayable",
					"type": "function"
				},
				{
					"inputs": [
						{
							"internalType": "address",
							"name": "_kamuKurumuAdres",
							"type": "address"
						},
						{
							"internalType": "string",
							"name": "_isim",
							"type": "string"
						},
						{
							"internalType": "uint8",
							"name": "_ulke",
							"type": "uint8"
						}
					],
					"name": "ekleKamuKurumu",
					"outputs": [],
					"stateMutability": "nonpayable",
					"type": "function"
				},
				{
					"inputs": [
						{
							"internalType": "address",
							"name": "_kisiAdres",
							"type": "address"
						}
					],
					"name": "ekleKisi",
					"outputs": [],
					"stateMutability": "nonpayable",
					"type": "function"
				},
				{
					"inputs": [
						{
							"internalType": "address",
							"name": "_kursAdres",
							"type": "address"
						},
						{
							"internalType": "string",
							"name": "_isim",
							"type": "string"
						},
						{
							"internalType": "uint8",
							"name": "_ulke",
							"type": "uint8"
						}
					],
					"name": "ekleKurs",
					"outputs": [],
					"stateMutability": "nonpayable",
					"type": "function"
				},
				{
					"inputs": [
						{
							"internalType": "address",
							"name": "_stkAdres",
							"type": "address"
						},
						{
							"internalType": "string",
							"name": "_isim",
							"type": "string"
						},
						{
							"internalType": "uint8",
							"name": "_ulke",
							"type": "uint8"
						}
					],
					"name": "ekleSTK",
					"outputs": [],
					"stateMutability": "nonpayable",
					"type": "function"
				},
				{
					"inputs": [
						{
							"internalType": "address",
							"name": "_smAdres",
							"type": "address"
						},
						{
							"internalType": "string",
							"name": "_isim",
							"type": "string"
						},
						{
							"internalType": "uint8",
							"name": "_ulke",
							"type": "uint8"
						}
					],
					"name": "ekleSertifikaMerkezi",
					"outputs": [],
					"stateMutability": "nonpayable",
					"type": "function"
				},
				{
					"inputs": [
						{
							"internalType": "address",
							"name": "_universiteAdres",
							"type": "address"
						},
						{
							"internalType": "string",
							"name": "_isim",
							"type": "string"
						},
						{
							"internalType": "uint8",
							"name": "_ulke",
							"type": "uint8"
						}
					],
					"name": "ekleUniversite",
					"outputs": [],
					"stateMutability": "nonpayable",
					"type": "function"
				},
				{
					"inputs": [
						{
							"internalType": "uint256",
							"name": "",
							"type": "uint256"
						}
					],
					"name": "firmaAdresleri",
					"outputs": [
						{
							"internalType": "address",
							"name": "",
							"type": "address"
						}
					],
					"stateMutability": "view",
					"type": "function"
				},
				{
					"inputs": [
						{
							"internalType": "address",
							"name": "",
							"type": "address"
						}
					],
					"name": "firmalar",
					"outputs": [
						{
							"internalType": "bool",
							"name": "durum",
							"type": "bool"
						},
						{
							"internalType": "uint8",
							"name": "ulke",
							"type": "uint8"
						},
						{
							"internalType": "uint256",
							"name": "vergiNo",
							"type": "uint256"
						},
						{
							"internalType": "string",
							"name": "isim",
							"type": "string"
						}
					],
					"stateMutability": "view",
					"type": "function"
				},
				{
					"inputs": [],
					"name": "getFirmaListesi",
					"outputs": [
						{
							"components": [
								{
									"internalType": "bool",
									"name": "durum",
									"type": "bool"
								},
								{
									"internalType": "uint8",
									"name": "ulke",
									"type": "uint8"
								},
								{
									"internalType": "uint256",
									"name": "vergiNo",
									"type": "uint256"
								},
								{
									"internalType": "string",
									"name": "isim",
									"type": "string"
								}
							],
							"internalType": "struct BaseContract.Firma[]",
							"name": "",
							"type": "tuple[]"
						}
					],
					"stateMutability": "view",
					"type": "function"
				},
				{
					"inputs": [],
					"name": "getKamuKurumuListesi",
					"outputs": [
						{
							"components": [
								{
									"internalType": "bool",
									"name": "durum",
									"type": "bool"
								},
								{
									"internalType": "string",
									"name": "isim",
									"type": "string"
								},
								{
									"internalType": "uint8",
									"name": "ulke",
									"type": "uint8"
								}
							],
							"internalType": "struct BaseContract.KamuKurumu[]",
							"name": "",
							"type": "tuple[]"
						}
					],
					"stateMutability": "view",
					"type": "function"
				},
				{
					"inputs": [],
					"name": "getKursListesi",
					"outputs": [
						{
							"components": [
								{
									"internalType": "bool",
									"name": "durum",
									"type": "bool"
								},
								{
									"internalType": "string",
									"name": "isim",
									"type": "string"
								},
								{
									"internalType": "uint8",
									"name": "ulke",
									"type": "uint8"
								}
							],
							"internalType": "struct BaseContract.Kurs[]",
							"name": "",
							"type": "tuple[]"
						}
					],
					"stateMutability": "view",
					"type": "function"
				},
				{
					"inputs": [],
					"name": "getSmListesi",
					"outputs": [
						{
							"components": [
								{
									"internalType": "bool",
									"name": "durum",
									"type": "bool"
								},
								{
									"internalType": "string",
									"name": "isim",
									"type": "string"
								},
								{
									"internalType": "uint8",
									"name": "ulke",
									"type": "uint8"
								}
							],
							"internalType": "struct BaseContract.SertifikaMerkezi[]",
							"name": "",
							"type": "tuple[]"
						}
					],
					"stateMutability": "view",
					"type": "function"
				},
				{
					"inputs": [],
					"name": "getStkListesi",
					"outputs": [
						{
							"components": [
								{
									"internalType": "bool",
									"name": "durum",
									"type": "bool"
								},
								{
									"internalType": "string",
									"name": "isim",
									"type": "string"
								},
								{
									"internalType": "uint8",
									"name": "ulke",
									"type": "uint8"
								}
							],
							"internalType": "struct BaseContract.STK[]",
							"name": "",
							"type": "tuple[]"
						}
					],
					"stateMutability": "view",
					"type": "function"
				},
				{
					"inputs": [],
					"name": "getUniversiteListesi",
					"outputs": [
						{
							"components": [
								{
									"internalType": "bool",
									"name": "durum",
									"type": "bool"
								},
								{
									"internalType": "string",
									"name": "isim",
									"type": "string"
								},
								{
									"internalType": "uint8",
									"name": "ulke",
									"type": "uint8"
								}
							],
							"internalType": "struct BaseContract.Universite[]",
							"name": "",
							"type": "tuple[]"
						}
					],
					"stateMutability": "view",
					"type": "function"
				},
				{
					"inputs": [
						{
							"internalType": "address",
							"name": "_firmaAdres",
							"type": "address"
						},
						{
							"internalType": "string",
							"name": "_isim",
							"type": "string"
						},
						{
							"internalType": "uint256",
							"name": "_vergiNo",
							"type": "uint256"
						},
						{
							"internalType": "uint8",
							"name": "_ulke",
							"type": "uint8"
						}
					],
					"name": "guncelleFirma",
					"outputs": [],
					"stateMutability": "nonpayable",
					"type": "function"
				},
				{
					"inputs": [
						{
							"internalType": "address",
							"name": "_kamuKurumuAdres",
							"type": "address"
						},
						{
							"internalType": "string",
							"name": "_isim",
							"type": "string"
						},
						{
							"internalType": "uint8",
							"name": "_ulke",
							"type": "uint8"
						}
					],
					"name": "guncelleKamuKurumu",
					"outputs": [],
					"stateMutability": "nonpayable",
					"type": "function"
				},
				{
					"inputs": [
						{
							"internalType": "address",
							"name": "_kisiAdres",
							"type": "address"
						},
						{
							"internalType": "bool",
							"name": "_durum",
							"type": "bool"
						}
					],
					"name": "guncelleKisi",
					"outputs": [],
					"stateMutability": "nonpayable",
					"type": "function"
				},
				{
					"inputs": [
						{
							"internalType": "address",
							"name": "_kursAdres",
							"type": "address"
						},
						{
							"internalType": "string",
							"name": "_isim",
							"type": "string"
						},
						{
							"internalType": "uint8",
							"name": "_ulke",
							"type": "uint8"
						}
					],
					"name": "guncelleKurs",
					"outputs": [],
					"stateMutability": "nonpayable",
					"type": "function"
				},
				{
					"inputs": [
						{
							"internalType": "address",
							"name": "_stkAdres",
							"type": "address"
						},
						{
							"internalType": "string",
							"name": "_isim",
							"type": "string"
						},
						{
							"internalType": "uint8",
							"name": "_ulke",
							"type": "uint8"
						}
					],
					"name": "guncelleSTK",
					"outputs": [],
					"stateMutability": "nonpayable",
					"type": "function"
				},
				{
					"inputs": [
						{
							"internalType": "address",
							"name": "_smAdres",
							"type": "address"
						},
						{
							"internalType": "string",
							"name": "_isim",
							"type": "string"
						},
						{
							"internalType": "uint8",
							"name": "_ulke",
							"type": "uint8"
						}
					],
					"name": "guncelleSertifikaMerkezi",
					"outputs": [],
					"stateMutability": "nonpayable",
					"type": "function"
				},
				{
					"inputs": [
						{
							"internalType": "address",
							"name": "_universiteAdres",
							"type": "address"
						},
						{
							"internalType": "string",
							"name": "_isim",
							"type": "string"
						},
						{
							"internalType": "uint8",
							"name": "_ulke",
							"type": "uint8"
						}
					],
					"name": "guncelleUniversite",
					"outputs": [],
					"stateMutability": "nonpayable",
					"type": "function"
				},
				{
					"inputs": [
						{
							"internalType": "address",
							"name": "_address",
							"type": "address"
						}
					],
					"name": "isCB",
					"outputs": [
						{
							"internalType": "bool",
							"name": "",
							"type": "bool"
						}
					],
					"stateMutability": "view",
					"type": "function"
				},
				{
					"inputs": [
						{
							"internalType": "address",
							"name": "_address",
							"type": "address"
						}
					],
					"name": "isFirma",
					"outputs": [
						{
							"internalType": "bool",
							"name": "",
							"type": "bool"
						}
					],
					"stateMutability": "view",
					"type": "function"
				},
				{
					"inputs": [
						{
							"internalType": "address",
							"name": "_address",
							"type": "address"
						}
					],
					"name": "isKamuKurumu",
					"outputs": [
						{
							"internalType": "bool",
							"name": "",
							"type": "bool"
						}
					],
					"stateMutability": "view",
					"type": "function"
				},
				{
					"inputs": [
						{
							"internalType": "address",
							"name": "_address",
							"type": "address"
						}
					],
					"name": "isKisi",
					"outputs": [
						{
							"internalType": "bool",
							"name": "",
							"type": "bool"
						}
					],
					"stateMutability": "view",
					"type": "function"
				},
				{
					"inputs": [
						{
							"internalType": "address",
							"name": "_address",
							"type": "address"
						}
					],
					"name": "isKurs",
					"outputs": [
						{
							"internalType": "bool",
							"name": "",
							"type": "bool"
						}
					],
					"stateMutability": "view",
					"type": "function"
				},
				{
					"inputs": [
						{
							"internalType": "address",
							"name": "_address",
							"type": "address"
						}
					],
					"name": "isSTK",
					"outputs": [
						{
							"internalType": "bool",
							"name": "",
							"type": "bool"
						}
					],
					"stateMutability": "view",
					"type": "function"
				},
				{
					"inputs": [
						{
							"internalType": "address",
							"name": "_address",
							"type": "address"
						}
					],
					"name": "isSertifikaMerkezi",
					"outputs": [
						{
							"internalType": "bool",
							"name": "",
							"type": "bool"
						}
					],
					"stateMutability": "view",
					"type": "function"
				},
				{
					"inputs": [
						{
							"internalType": "address",
							"name": "_address",
							"type": "address"
						}
					],
					"name": "isTOBB",
					"outputs": [
						{
							"internalType": "bool",
							"name": "",
							"type": "bool"
						}
					],
					"stateMutability": "view",
					"type": "function"
				},
				{
					"inputs": [
						{
							"internalType": "address",
							"name": "_address",
							"type": "address"
						}
					],
					"name": "isUniversite",
					"outputs": [
						{
							"internalType": "bool",
							"name": "",
							"type": "bool"
						}
					],
					"stateMutability": "view",
					"type": "function"
				},
				{
					"inputs": [
						{
							"internalType": "address",
							"name": "_address",
							"type": "address"
						}
					],
					"name": "isYOK",
					"outputs": [
						{
							"internalType": "bool",
							"name": "",
							"type": "bool"
						}
					],
					"stateMutability": "view",
					"type": "function"
				},
				{
					"inputs": [
						{
							"internalType": "uint256",
							"name": "",
							"type": "uint256"
						}
					],
					"name": "kamuKurumAdresleri",
					"outputs": [
						{
							"internalType": "address",
							"name": "",
							"type": "address"
						}
					],
					"stateMutability": "view",
					"type": "function"
				},
				{
					"inputs": [
						{
							"internalType": "address",
							"name": "",
							"type": "address"
						}
					],
					"name": "kamuKurumlari",
					"outputs": [
						{
							"internalType": "bool",
							"name": "durum",
							"type": "bool"
						},
						{
							"internalType": "string",
							"name": "isim",
							"type": "string"
						},
						{
							"internalType": "uint8",
							"name": "ulke",
							"type": "uint8"
						}
					],
					"stateMutability": "view",
					"type": "function"
				},
				{
					"inputs": [
						{
							"internalType": "uint256",
							"name": "",
							"type": "uint256"
						}
					],
					"name": "kisiAdresleri",
					"outputs": [
						{
							"internalType": "address",
							"name": "",
							"type": "address"
						}
					],
					"stateMutability": "view",
					"type": "function"
				},
				{
					"inputs": [
						{
							"internalType": "address",
							"name": "",
							"type": "address"
						}
					],
					"name": "kisiler",
					"outputs": [
						{
							"internalType": "bool",
							"name": "durum",
							"type": "bool"
						}
					],
					"stateMutability": "view",
					"type": "function"
				},
				{
					"inputs": [
						{
							"internalType": "uint256",
							"name": "",
							"type": "uint256"
						}
					],
					"name": "kursAdresleri",
					"outputs": [
						{
							"internalType": "address",
							"name": "",
							"type": "address"
						}
					],
					"stateMutability": "view",
					"type": "function"
				},
				{
					"inputs": [
						{
							"internalType": "address",
							"name": "",
							"type": "address"
						}
					],
					"name": "kurslar",
					"outputs": [
						{
							"internalType": "bool",
							"name": "durum",
							"type": "bool"
						},
						{
							"internalType": "string",
							"name": "isim",
							"type": "string"
						},
						{
							"internalType": "uint8",
							"name": "ulke",
							"type": "uint8"
						}
					],
					"stateMutability": "view",
					"type": "function"
				},
				{
					"inputs": [
						{
							"internalType": "address",
							"name": "_yok",
							"type": "address"
						},
						{
							"internalType": "address",
							"name": "_tobb",
							"type": "address"
						},
						{
							"internalType": "address",
							"name": "_cb",
							"type": "address"
						}
					],
					"name": "paydasTanimla",
					"outputs": [],
					"stateMutability": "nonpayable",
					"type": "function"
				},
				{
					"inputs": [
						{
							"internalType": "address",
							"name": "",
							"type": "address"
						}
					],
					"name": "sertifikaMerkezleri",
					"outputs": [
						{
							"internalType": "bool",
							"name": "durum",
							"type": "bool"
						},
						{
							"internalType": "string",
							"name": "isim",
							"type": "string"
						},
						{
							"internalType": "uint8",
							"name": "ulke",
							"type": "uint8"
						}
					],
					"stateMutability": "view",
					"type": "function"
				},
				{
					"inputs": [
						{
							"internalType": "address",
							"name": "_firmaAdres",
							"type": "address"
						}
					],
					"name": "silFirma",
					"outputs": [],
					"stateMutability": "nonpayable",
					"type": "function"
				},
				{
					"inputs": [
						{
							"internalType": "address",
							"name": "_kamuKurumuAdres",
							"type": "address"
						}
					],
					"name": "silKamuKurumu",
					"outputs": [],
					"stateMutability": "nonpayable",
					"type": "function"
				},
				{
					"inputs": [
						{
							"internalType": "address",
							"name": "_kisiAdres",
							"type": "address"
						}
					],
					"name": "silKisi",
					"outputs": [],
					"stateMutability": "nonpayable",
					"type": "function"
				},
				{
					"inputs": [
						{
							"internalType": "address",
							"name": "_kursAdres",
							"type": "address"
						}
					],
					"name": "silKurs",
					"outputs": [],
					"stateMutability": "nonpayable",
					"type": "function"
				},
				{
					"inputs": [
						{
							"internalType": "address",
							"name": "_stkAdres",
							"type": "address"
						}
					],
					"name": "silSTK",
					"outputs": [],
					"stateMutability": "nonpayable",
					"type": "function"
				},
				{
					"inputs": [
						{
							"internalType": "address",
							"name": "_smAdres",
							"type": "address"
						}
					],
					"name": "silSertifikaMerkezi",
					"outputs": [],
					"stateMutability": "nonpayable",
					"type": "function"
				},
				{
					"inputs": [
						{
							"internalType": "address",
							"name": "_universiteAdres",
							"type": "address"
						}
					],
					"name": "silUniversite",
					"outputs": [],
					"stateMutability": "nonpayable",
					"type": "function"
				},
				{
					"inputs": [
						{
							"internalType": "uint256",
							"name": "",
							"type": "uint256"
						}
					],
					"name": "smAdresleri",
					"outputs": [
						{
							"internalType": "address",
							"name": "",
							"type": "address"
						}
					],
					"stateMutability": "view",
					"type": "function"
				},
				{
					"inputs": [
						{
							"internalType": "uint256",
							"name": "",
							"type": "uint256"
						}
					],
					"name": "stkAdresleri",
					"outputs": [
						{
							"internalType": "address",
							"name": "",
							"type": "address"
						}
					],
					"stateMutability": "view",
					"type": "function"
				},
				{
					"inputs": [
						{
							"internalType": "address",
							"name": "",
							"type": "address"
						}
					],
					"name": "stklar",
					"outputs": [
						{
							"internalType": "bool",
							"name": "durum",
							"type": "bool"
						},
						{
							"internalType": "string",
							"name": "isim",
							"type": "string"
						},
						{
							"internalType": "uint8",
							"name": "ulke",
							"type": "uint8"
						}
					],
					"stateMutability": "view",
					"type": "function"
				},
				{
					"inputs": [
						{
							"internalType": "uint256",
							"name": "",
							"type": "uint256"
						}
					],
					"name": "universiteAdresleri",
					"outputs": [
						{
							"internalType": "address",
							"name": "",
							"type": "address"
						}
					],
					"stateMutability": "view",
					"type": "function"
				},
				{
					"inputs": [
						{
							"internalType": "address",
							"name": "",
							"type": "address"
						}
					],
					"name": "universiteler",
					"outputs": [
						{
							"internalType": "bool",
							"name": "durum",
							"type": "bool"
						},
						{
							"internalType": "string",
							"name": "isim",
							"type": "string"
						},
						{
							"internalType": "uint8",
							"name": "ulke",
							"type": "uint8"
						}
					],
					"stateMutability": "view",
					"type": "function"
				}
			],
			"devdoc": {
				"kind": "dev",
				"methods": {},
				"version": 1
			},
			"evm": {
				"assembly": "    /* \"contracts/BaseContract.sol\":72:14192  contract BaseContract {\r... */\n  mstore(0x40, 0x80)\n  callvalue\n  dup1\n  iszero\n  tag_1\n  jumpi\n  0x00\n  dup1\n  revert\ntag_1:\n  pop\n  dataSize(sub_0)\n  dup1\n  dataOffset(sub_0)\n  0x00\n  codecopy\n  0x00\n  return\nstop\n\nsub_0: assembly {\n        /* \"contracts/BaseContract.sol\":72:14192  contract BaseContract {\r... */\n      mstore(0x40, 0x80)\n      callvalue\n      dup1\n      iszero\n      tag_1\n      jumpi\n      0x00\n      dup1\n      revert\n    tag_1:\n      pop\n      jumpi(tag_2, lt(calldatasize, 0x04))\n      shr(0xe0, calldataload(0x00))\n      dup1\n      0xa29879c0\n      gt\n      tag_58\n      jumpi\n      dup1\n      0xd5f6d56c\n      gt\n      tag_59\n      jumpi\n      dup1\n      0xe8abb184\n      gt\n      tag_60\n      jumpi\n      dup1\n      0xf1981850\n      gt\n      tag_61\n      jumpi\n      dup1\n      0xf1981850\n      eq\n      tag_54\n      jumpi\n      dup1\n      0xf54acc65\n      eq\n      tag_55\n      jumpi\n      dup1\n      0xf63c649f\n      eq\n      tag_56\n      jumpi\n      dup1\n      0xfd738e6d\n      eq\n      tag_57\n      jumpi\n      jump(tag_2)\n    tag_61:\n      dup1\n      0xe8abb184\n      eq\n      tag_51\n      jumpi\n      dup1\n      0xf0040eb9\n      eq\n      tag_52\n      jumpi\n      dup1\n      0xf1403851\n      eq\n      tag_53\n      jumpi\n      jump(tag_2)\n    tag_60:\n      dup1\n      0xd7909777\n      gt\n      tag_62\n      jumpi\n      dup1\n      0xd7909777\n      eq\n      tag_47\n      jumpi\n      dup1\n      0xd88d8c12\n      eq\n      tag_48\n      jumpi\n      dup1\n      0xe24047ca\n      eq\n      tag_49\n      jumpi\n      dup1\n      0xe5130508\n      eq\n      tag_50\n      jumpi\n      jump(tag_2)\n    tag_62:\n      dup1\n      0xd5f6d56c\n      eq\n      tag_44\n      jumpi\n      dup1\n      0xd71ed8b1\n      eq\n      tag_45\n      jumpi\n      dup1\n      0xd7396414\n      eq\n      tag_46\n      jumpi\n      jump(tag_2)\n    tag_59:\n      dup1\n      0xba479b7e\n      gt\n      tag_63\n      jumpi\n      dup1\n      0xcbc92809\n      gt\n      tag_64\n      jumpi\n      dup1\n      0xcbc92809\n      eq\n      tag_40\n      jumpi\n      dup1\n      0xd0d6b7a3\n      eq\n      tag_41\n      jumpi\n      dup1\n      0xd25aab85\n      eq\n      tag_42\n      jumpi\n      dup1\n      0xd508602d\n      eq\n      tag_43\n      jumpi\n      jump(tag_2)\n    tag_64:\n      dup1\n      0xba479b7e\n      eq\n      tag_37\n      jumpi\n      dup1\n      0xbd35a506\n      eq\n      tag_38\n      jumpi\n      dup1\n      0xc6da8cfe\n      eq\n      tag_39\n      jumpi\n      jump(tag_2)\n    tag_63:\n      dup1\n      0xafb61b1e\n      gt\n      tag_65\n      jumpi\n      dup1\n      0xafb61b1e\n      eq\n      tag_33\n      jumpi\n      dup1\n      0xb07b0e5a\n      eq\n      tag_34\n      jumpi\n      dup1\n      0xb2a825bb\n      eq\n      tag_35\n      jumpi\n      dup1\n      0xb98ccefd\n      eq\n      tag_36\n      jumpi\n      jump(tag_2)\n    tag_65:\n      dup1\n      0xa29879c0\n      eq\n      tag_30\n      jumpi\n      dup1\n      0xa4e7ae05\n      eq\n      tag_31\n      jumpi\n      dup1\n      0xa81dc179\n      eq\n      tag_32\n      jumpi\n      jump(tag_2)\n    tag_58:\n      dup1\n      0x36fd2633\n      gt\n      tag_66\n      jumpi\n      dup1\n      0x7d0fa287\n      gt\n      tag_67\n      jumpi\n      dup1\n      0x91e9528a\n      gt\n      tag_68\n      jumpi\n      dup1\n      0x91e9528a\n      eq\n      tag_26\n      jumpi\n      dup1\n      0x9a8c9119\n      eq\n      tag_27\n      jumpi\n      dup1\n      0x9bfc4dbd\n      eq\n      tag_28\n      jumpi\n      dup1\n      0x9dc30114\n      eq\n      tag_29\n      jumpi\n      jump(tag_2)\n    tag_68:\n      dup1\n      0x7d0fa287\n      eq\n      tag_23\n      jumpi\n      dup1\n      0x871db892\n      eq\n      tag_24\n      jumpi\n      dup1\n      0x8c848885\n      eq\n      tag_25\n      jumpi\n      jump(tag_2)\n    tag_67:\n      dup1\n      0x50d2a060\n      gt\n      tag_69\n      jumpi\n      dup1\n      0x50d2a060\n      eq\n      tag_19\n      jumpi\n      dup1\n      0x514e03c7\n      eq\n      tag_20\n      jumpi\n      dup1\n      0x548fa620\n      eq\n      tag_21\n      jumpi\n      dup1\n      0x71af892d\n      eq\n      tag_22\n      jumpi\n      jump(tag_2)\n    tag_69:\n      dup1\n      0x36fd2633\n      eq\n      tag_16\n      jumpi\n      dup1\n      0x39987f94\n      eq\n      tag_17\n      jumpi\n      dup1\n      0x46224853\n      eq\n      tag_18\n      jumpi\n      jump(tag_2)\n    tag_66:\n      dup1\n      0x19023bf3\n      gt\n      tag_70\n      jumpi\n      dup1\n      0x1f145f47\n      gt\n      tag_71\n      jumpi\n      dup1\n      0x1f145f47\n      eq\n      tag_12\n      jumpi\n      dup1\n      0x28266697\n      eq\n      tag_13\n      jumpi\n      dup1\n      0x2d087d70\n      eq\n      tag_14\n      jumpi\n      dup1\n      0x356b1f1e\n      eq\n      tag_15\n      jumpi\n      jump(tag_2)\n    tag_71:\n      dup1\n      0x19023bf3\n      eq\n      tag_9\n      jumpi\n      dup1\n      0x1916e139\n      eq\n      tag_10\n      jumpi\n      dup1\n      0x1d595580\n      eq\n      tag_11\n      jumpi\n      jump(tag_2)\n    tag_70:\n      dup1\n      0x1d54ab\n      eq\n      tag_3\n      jumpi\n      dup1\n      0x024eb6bc\n      eq\n      tag_4\n      jumpi\n      dup1\n      0x0a33e3eb\n      eq\n      tag_5\n      jumpi\n      dup1\n      0x0b877ca7\n      eq\n      tag_6\n      jumpi\n      dup1\n      0x139884ec\n      eq\n      tag_7\n      jumpi\n      dup1\n      0x150596f4\n      eq\n      tag_8\n      jumpi\n    tag_2:\n      0x00\n      dup1\n      revert\n        /* \"contracts/BaseContract.sol\":5575:5997  function ekleUniversite(address _universiteAdres, string memory _isim, uint8 _ulke) public {\r... */\n    tag_3:\n      tag_72\n      0x04\n      dup1\n      calldatasize\n      sub\n      dup2\n      add\n      swap1\n      tag_73\n      swap2\n      swap1\n      tag_74\n      jump\t// in\n    tag_73:\n      tag_75\n      jump\t// in\n    tag_72:\n      stop\n        /* \"contracts/BaseContract.sol\":4440:4549  function isKurs(address _address) public view returns (bool){\r... */\n    tag_4:\n      tag_76\n      0x04\n      dup1\n      calldatasize\n      sub\n      dup2\n      add\n      swap1\n      tag_77\n      swap2\n      swap1\n      tag_78\n      jump\t// in\n    tag_77:\n      tag_79\n      jump\t// in\n    tag_76:\n      mload(0x40)\n      tag_80\n      swap2\n      swap1\n      tag_81\n      jump\t// in\n    tag_80:\n      mload(0x40)\n      dup1\n      swap2\n      sub\n      swap1\n      return\n        /* \"contracts/BaseContract.sol\":5460:5495  address[] public kamuKurumAdresleri */\n    tag_5:\n      tag_82\n      0x04\n      dup1\n      calldatasize\n      sub\n      dup2\n      add\n      swap1\n      tag_83\n      swap2\n      swap1\n      tag_84\n      jump\t// in\n    tag_83:\n      tag_85\n      jump\t// in\n    tag_82:\n      mload(0x40)\n      tag_86\n      swap2\n      swap1\n      tag_87\n      jump\t// in\n    tag_86:\n      mload(0x40)\n      dup1\n      swap2\n      sub\n      swap1\n      return\n        /* \"contracts/BaseContract.sol\":5538:5566  address[] public smAdresleri */\n    tag_6:\n      tag_88\n      0x04\n      dup1\n      calldatasize\n      sub\n      dup2\n      add\n      swap1\n      tag_89\n      swap2\n      swap1\n      tag_84\n      jump\t// in\n    tag_89:\n      tag_90\n      jump\t// in\n    tag_88:\n      mload(0x40)\n      tag_91\n      swap2\n      swap1\n      tag_87\n      jump\t// in\n    tag_91:\n      mload(0x40)\n      dup1\n      swap2\n      sub\n      swap1\n      return\n        /* \"contracts/BaseContract.sol\":3730:3832  function isTOBB(address _address) public view returns (bool){\r... */\n    tag_7:\n      tag_92\n      0x04\n      dup1\n      calldatasize\n      sub\n      dup2\n      add\n      swap1\n      tag_93\n      swap2\n      swap1\n      tag_78\n      jump\t// in\n    tag_93:\n      tag_94\n      jump\t// in\n    tag_92:\n      mload(0x40)\n      tag_95\n      swap2\n      swap1\n      tag_81\n      jump\t// in\n    tag_95:\n      mload(0x40)\n      dup1\n      swap2\n      sub\n      swap1\n      return\n        /* \"contracts/BaseContract.sol\":10778:11154  function guncelleKamuKurumu(address _kamuKurumuAdres, string memory _isim, uint8 _ulke)\r... */\n    tag_8:\n      tag_96\n      0x04\n      dup1\n      calldatasize\n      sub\n      dup2\n      add\n      swap1\n      tag_97\n      swap2\n      swap1\n      tag_74\n      jump\t// in\n    tag_97:\n      tag_98\n      jump\t// in\n    tag_96:\n      stop\n        /* \"contracts/BaseContract.sol\":12283:12637  function ekleSTK(address _stkAdres, string memory _isim, uint8 _ulke)\r... */\n    tag_9:\n      tag_99\n      0x04\n      dup1\n      calldatasize\n      sub\n      dup2\n      add\n      swap1\n      tag_100\n      swap2\n      swap1\n      tag_74\n      jump\t// in\n    tag_100:\n      tag_101\n      jump\t// in\n    tag_99:\n      stop\n        /* \"contracts/BaseContract.sol\":5026:5066  mapping(address => Kurs) public  kurslar */\n    tag_10:\n      tag_102\n      0x04\n      dup1\n      calldatasize\n      sub\n      dup2\n      add\n      swap1\n      tag_103\n      swap2\n      swap1\n      tag_78\n      jump\t// in\n    tag_103:\n      tag_104\n      jump\t// in\n    tag_102:\n      mload(0x40)\n      tag_105\n      swap4\n      swap3\n      swap2\n      swap1\n      tag_106\n      jump\t// in\n    tag_105:\n      mload(0x40)\n      dup1\n      swap2\n      sub\n      swap1\n      return\n        /* \"contracts/BaseContract.sol\":10146:10335  function silFirma(address _firmaAdres)\r... */\n    tag_11:\n      tag_107\n      0x04\n      dup1\n      calldatasize\n      sub\n      dup2\n      add\n      swap1\n      tag_108\n      swap2\n      swap1\n      tag_78\n      jump\t// in\n    tag_108:\n      tag_109\n      jump\t// in\n    tag_107:\n      stop\n        /* \"contracts/BaseContract.sol\":5342:5378  address[] public universiteAdresleri */\n    tag_12:\n      tag_110\n      0x04\n      dup1\n      calldatasize\n      sub\n      dup2\n      add\n      swap1\n      tag_111\n      swap2\n      swap1\n      tag_84\n      jump\t// in\n    tag_111:\n      tag_112\n      jump\t// in\n    tag_110:\n      mload(0x40)\n      tag_113\n      swap2\n      swap1\n      tag_87\n      jump\t// in\n    tag_113:\n      mload(0x40)\n      dup1\n      swap2\n      sub\n      swap1\n      return\n        /* \"contracts/BaseContract.sol\":4859:4910  mapping(address => Universite) public universiteler */\n    tag_13:\n      tag_114\n      0x04\n      dup1\n      calldatasize\n      sub\n      dup2\n      add\n      swap1\n      tag_115\n      swap2\n      swap1\n      tag_78\n      jump\t// in\n    tag_115:\n      tag_116\n      jump\t// in\n    tag_114:\n      mload(0x40)\n      tag_117\n      swap4\n      swap3\n      swap2\n      swap1\n      tag_106\n      jump\t// in\n    tag_117:\n      mload(0x40)\n      dup1\n      swap2\n      sub\n      swap1\n      return\n        /* \"contracts/BaseContract.sol\":4321:4432  function isFirma(address _address) public view returns (bool){\r... */\n    tag_14:\n      tag_118\n      0x04\n      dup1\n      calldatasize\n      sub\n      dup2\n      add\n      swap1\n      tag_119\n      swap2\n      swap1\n      tag_78\n      jump\t// in\n    tag_119:\n      tag_120\n      jump\t// in\n    tag_118:\n      mload(0x40)\n      tag_121\n      swap2\n      swap1\n      tag_81\n      jump\t// in\n    tag_121:\n      mload(0x40)\n      dup1\n      swap2\n      sub\n      swap1\n      return\n        /* \"contracts/BaseContract.sol\":5175:5238  mapping(address => SertifikaMerkezi) public sertifikaMerkezleri */\n    tag_15:\n      tag_122\n      0x04\n      dup1\n      calldatasize\n      sub\n      dup2\n      add\n      swap1\n      tag_123\n      swap2\n      swap1\n      tag_78\n      jump\t// in\n    tag_123:\n      tag_124\n      jump\t// in\n    tag_122:\n      mload(0x40)\n      tag_125\n      swap4\n      swap3\n      swap2\n      swap1\n      tag_106\n      jump\t// in\n    tag_125:\n      mload(0x40)\n      dup1\n      swap2\n      sub\n      swap1\n      return\n        /* \"contracts/BaseContract.sol\":164:307  function paydasTanimla(address _yok, address _tobb, address _cb) public {\r... */\n    tag_16:\n      tag_126\n      0x04\n      dup1\n      calldatasize\n      sub\n      dup2\n      add\n      swap1\n      tag_127\n      swap2\n      swap1\n      tag_128\n      jump\t// in\n    tag_127:\n      tag_129\n      jump\t// in\n    tag_126:\n      stop\n        /* \"contracts/BaseContract.sol\":4977:5019  mapping(address => Firma) public  firmalar */\n    tag_17:\n      tag_130\n      0x04\n      dup1\n      calldatasize\n      sub\n      dup2\n      add\n      swap1\n      tag_131\n      swap2\n      swap1\n      tag_78\n      jump\t// in\n    tag_131:\n      tag_132\n      jump\t// in\n    tag_130:\n      mload(0x40)\n      tag_133\n      swap5\n      swap4\n      swap3\n      swap2\n      swap1\n      tag_134\n      jump\t// in\n    tag_133:\n      mload(0x40)\n      dup1\n      swap2\n      sub\n      swap1\n      return\n        /* \"contracts/BaseContract.sol\":11391:11748  function ekleKurs(address _kursAdres, string memory _isim, uint8 _ulke)\r... */\n    tag_18:\n      tag_135\n      0x04\n      dup1\n      calldatasize\n      sub\n      dup2\n      add\n      swap1\n      tag_136\n      swap2\n      swap1\n      tag_74\n      jump\t// in\n    tag_136:\n      tag_137\n      jump\t// in\n    tag_135:\n      stop\n        /* \"contracts/BaseContract.sol\":11162:11383  function silKamuKurumu(address _kamuKurumuAdres)\r... */\n    tag_19:\n      tag_138\n      0x04\n      dup1\n      calldatasize\n      sub\n      dup2\n      add\n      swap1\n      tag_139\n      swap2\n      swap1\n      tag_78\n      jump\t// in\n    tag_139:\n      tag_140\n      jump\t// in\n    tag_138:\n      stop\n        /* \"contracts/BaseContract.sol\":4192:4313  function isKamuKurumu(address _address) public view returns (bool){\r... */\n    tag_20:\n      tag_141\n      0x04\n      dup1\n      calldatasize\n      sub\n      dup2\n      add\n      swap1\n      tag_142\n      swap2\n      swap1\n      tag_78\n      jump\t// in\n    tag_142:\n      tag_143\n      jump\t// in\n    tag_141:\n      mload(0x40)\n      tag_144\n      swap2\n      swap1\n      tag_81\n      jump\t// in\n    tag_144:\n      mload(0x40)\n      dup1\n      swap2\n      sub\n      swap1\n      return\n        /* \"contracts/BaseContract.sol\":13966:14187  function silSertifikaMerkezi(address _smAdres)\r... */\n    tag_21:\n      tag_145\n      0x04\n      dup1\n      calldatasize\n      sub\n      dup2\n      add\n      swap1\n      tag_146\n      swap2\n      swap1\n      tag_78\n      jump\t// in\n    tag_146:\n      tag_147\n      jump\t// in\n    tag_145:\n      stop\n        /* \"contracts/BaseContract.sol\":101:119  address public YOK */\n    tag_22:\n      tag_148\n      tag_149\n      jump\t// in\n    tag_148:\n      mload(0x40)\n      tag_150\n      swap2\n      swap1\n      tag_87\n      jump\t// in\n    tag_150:\n      mload(0x40)\n      dup1\n      swap2\n      sub\n      swap1\n      return\n        /* \"contracts/BaseContract.sol\":5073:5124  mapping(address => KamuKurumu) public kamuKurumlari */\n    tag_23:\n      tag_151\n      0x04\n      dup1\n      calldatasize\n      sub\n      dup2\n      add\n      swap1\n      tag_152\n      swap2\n      swap1\n      tag_78\n      jump\t// in\n    tag_152:\n      tag_153\n      jump\t// in\n    tag_151:\n      mload(0x40)\n      tag_154\n      swap4\n      swap3\n      swap2\n      swap1\n      tag_106\n      jump\t// in\n    tag_154:\n      mload(0x40)\n      dup1\n      swap2\n      sub\n      swap1\n      return\n        /* \"contracts/BaseContract.sol\":6615:6975  function getUniversiteListesi() public view returns(Universite[] memory){\r... */\n    tag_24:\n      tag_155\n      tag_156\n      jump\t// in\n    tag_155:\n      mload(0x40)\n      tag_157\n      swap2\n      swap1\n      tag_158\n      jump\t// in\n    tag_157:\n      mload(0x40)\n      dup1\n      swap2\n      sub\n      swap1\n      return\n        /* \"contracts/BaseContract.sol\":4557:4664  function isSTK(address _address) public view returns (bool){\r... */\n    tag_25:\n      tag_159\n      0x04\n      dup1\n      calldatasize\n      sub\n      dup2\n      add\n      swap1\n      tag_160\n      swap2\n      swap1\n      tag_78\n      jump\t// in\n    tag_160:\n      tag_161\n      jump\t// in\n    tag_159:\n      mload(0x40)\n      tag_162\n      swap2\n      swap1\n      tag_81\n      jump\t// in\n    tag_162:\n      mload(0x40)\n      dup1\n      swap2\n      sub\n      swap1\n      return\n        /* \"contracts/BaseContract.sol\":12645:12963  function guncelleSTK(address _stkAdres, string memory _isim, uint8 _ulke)\r... */\n    tag_26:\n      tag_163\n      0x04\n      dup1\n      calldatasize\n      sub\n      dup2\n      add\n      swap1\n      tag_164\n      swap2\n      swap1\n      tag_74\n      jump\t// in\n    tag_164:\n      tag_165\n      jump\t// in\n    tag_163:\n      stop\n        /* \"contracts/BaseContract.sol\":5131:5168  mapping(address => STK) public stklar */\n    tag_27:\n      tag_166\n      0x04\n      dup1\n      calldatasize\n      sub\n      dup2\n      add\n      swap1\n      tag_167\n      swap2\n      swap1\n      tag_78\n      jump\t// in\n    tag_167:\n      tag_168\n      jump\t// in\n    tag_166:\n      mload(0x40)\n      tag_169\n      swap4\n      swap3\n      swap2\n      swap1\n      tag_106\n      jump\t// in\n    tag_169:\n      mload(0x40)\n      dup1\n      swap2\n      sub\n      swap1\n      return\n        /* \"contracts/BaseContract.sol\":6387:6606  function silUniversite(address _universiteAdres) public {\r... */\n    tag_28:\n      tag_170\n      0x04\n      dup1\n      calldatasize\n      sub\n      dup2\n      add\n      swap1\n      tag_171\n      swap2\n      swap1\n      tag_78\n      jump\t// in\n    tag_171:\n      tag_172\n      jump\t// in\n    tag_170:\n      stop\n        /* \"contracts/BaseContract.sol\":13168:13576  function ekleSertifikaMerkezi(address _smAdres, string memory _isim, uint8 _ulke)\r... */\n    tag_29:\n      tag_173\n      0x04\n      dup1\n      calldatasize\n      sub\n      dup2\n      add\n      swap1\n      tag_174\n      swap2\n      swap1\n      tag_74\n      jump\t// in\n    tag_174:\n      tag_175\n      jump\t// in\n    tag_173:\n      stop\n        /* \"contracts/BaseContract.sol\":7687:7991  function getStkListesi() public view returns(STK[] memory){\r... */\n    tag_30:\n      tag_176\n      tag_177\n      jump\t// in\n    tag_176:\n      mload(0x40)\n      tag_178\n      swap2\n      swap1\n      tag_179\n      jump\t// in\n    tag_178:\n      mload(0x40)\n      dup1\n      swap2\n      sub\n      swap1\n      return\n        /* \"contracts/BaseContract.sol\":5251:5294  mapping(uint32 => YabanciDil) public diller */\n    tag_31:\n      tag_180\n      0x04\n      dup1\n      calldatasize\n      sub\n      dup2\n      add\n      swap1\n      tag_181\n      swap2\n      swap1\n      tag_182\n      jump\t// in\n    tag_181:\n      tag_183\n      jump\t// in\n    tag_180:\n      mload(0x40)\n      tag_184\n      swap3\n      swap2\n      swap1\n      tag_185\n      jump\t// in\n    tag_184:\n      mload(0x40)\n      dup1\n      swap2\n      sub\n      swap1\n      return\n        /* \"contracts/BaseContract.sol\":9748:10138  function guncelleFirma(address _firmaAdres, string memory _isim, uint _vergiNo, uint8 _ulke)\r... */\n    tag_32:\n      tag_186\n      0x04\n      dup1\n      calldatasize\n      sub\n      dup2\n      add\n      swap1\n      tag_187\n      swap2\n      swap1\n      tag_188\n      jump\t// in\n    tag_187:\n      tag_189\n      jump\t// in\n    tag_186:\n      stop\n        /* \"contracts/BaseContract.sol\":12085:12275  function silKurs(address _kursAdres)\r... */\n    tag_33:\n      tag_190\n      0x04\n      dup1\n      calldatasize\n      sub\n      dup2\n      add\n      swap1\n      tag_191\n      swap2\n      swap1\n      tag_78\n      jump\t// in\n    tag_191:\n      tag_192\n      jump\t// in\n    tag_190:\n      stop\n        /* \"contracts/BaseContract.sol\":5385:5416  address[] public firmaAdresleri */\n    tag_34:\n      tag_193\n      0x04\n      dup1\n      calldatasize\n      sub\n      dup2\n      add\n      swap1\n      tag_194\n      swap2\n      swap1\n      tag_84\n      jump\t// in\n    tag_194:\n      tag_195\n      jump\t// in\n    tag_193:\n      mload(0x40)\n      tag_196\n      swap2\n      swap1\n      tag_87\n      jump\t// in\n    tag_196:\n      mload(0x40)\n      dup1\n      swap2\n      sub\n      swap1\n      return\n        /* \"contracts/BaseContract.sol\":13584:13958  function guncelleSertifikaMerkezi(address _smAdres, string memory _isim, uint8 _ulke)\r... */\n    tag_35:\n      tag_197\n      0x04\n      dup1\n      calldatasize\n      sub\n      dup2\n      add\n      swap1\n      tag_198\n      swap2\n      swap1\n      tag_74\n      jump\t// in\n    tag_198:\n      tag_199\n      jump\t// in\n    tag_197:\n      stop\n        /* \"contracts/BaseContract.sol\":4075:4184  function isKisi(address _address) public view returns (bool){\r... */\n    tag_36:\n      tag_200\n      0x04\n      dup1\n      calldatasize\n      sub\n      dup2\n      add\n      swap1\n      tag_201\n      swap2\n      swap1\n      tag_78\n      jump\t// in\n    tag_201:\n      tag_202\n      jump\t// in\n    tag_200:\n      mload(0x40)\n      tag_203\n      swap2\n      swap1\n      tag_81\n      jump\t// in\n    tag_203:\n      mload(0x40)\n      dup1\n      swap2\n      sub\n      swap1\n      return\n        /* \"contracts/BaseContract.sol\":4917:4970  mapping(address => Akademisyen) public akademisyenler */\n    tag_37:\n      tag_204\n      0x04\n      dup1\n      calldatasize\n      sub\n      dup2\n      add\n      swap1\n      tag_205\n      swap2\n      swap1\n      tag_78\n      jump\t// in\n    tag_205:\n      tag_206\n      jump\t// in\n    tag_204:\n      mload(0x40)\n      tag_207\n      swap7\n      swap6\n      swap5\n      swap4\n      swap3\n      swap2\n      swap1\n      tag_208\n      jump\t// in\n    tag_207:\n      mload(0x40)\n      dup1\n      swap2\n      sub\n      swap1\n      return\n        /* \"contracts/BaseContract.sol\":9125:9302  function silKisi(address _kisiAdres) public {\r... */\n    tag_38:\n      tag_209\n      0x04\n      dup1\n      calldatasize\n      sub\n      dup2\n      add\n      swap1\n      tag_210\n      swap2\n      swap1\n      tag_78\n      jump\t// in\n    tag_210:\n      tag_211\n      jump\t// in\n    tag_209:\n      stop\n        /* \"contracts/BaseContract.sol\":6005:6379  function guncelleUniversite(address _universiteAdres, string memory _isim, uint8 _ulke) public {\r... */\n    tag_39:\n      tag_212\n      0x04\n      dup1\n      calldatasize\n      sub\n      dup2\n      add\n      swap1\n      tag_213\n      swap2\n      swap1\n      tag_74\n      jump\t// in\n    tag_213:\n      tag_214\n      jump\t// in\n    tag_212:\n      stop\n        /* \"contracts/BaseContract.sol\":4813:4852  mapping(address => Kisi) public kisiler */\n    tag_40:\n      tag_215\n      0x04\n      dup1\n      calldatasize\n      sub\n      dup2\n      add\n      swap1\n      tag_216\n      swap2\n      swap1\n      tag_78\n      jump\t// in\n    tag_216:\n      tag_217\n      jump\t// in\n    tag_215:\n      mload(0x40)\n      tag_218\n      swap2\n      swap1\n      tag_81\n      jump\t// in\n    tag_218:\n      mload(0x40)\n      dup1\n      swap2\n      sub\n      swap1\n      return\n        /* \"contracts/BaseContract.sol\":8360:8672  function getKursListesi() public view returns(Kurs[] memory){\r... */\n    tag_41:\n      tag_219\n      tag_220\n      jump\t// in\n    tag_219:\n      mload(0x40)\n      tag_221\n      swap2\n      swap1\n      tag_222\n      jump\t// in\n    tag_221:\n      mload(0x40)\n      dup1\n      swap2\n      sub\n      swap1\n      return\n        /* \"contracts/BaseContract.sol\":9312:9740  function ekleFirma(address _firmaAdres, string memory _isim, uint _vergiNo, uint8 _ulke)\r... */\n    tag_42:\n      tag_223\n      0x04\n      dup1\n      calldatasize\n      sub\n      dup2\n      add\n      swap1\n      tag_224\n      swap2\n      swap1\n      tag_188\n      jump\t// in\n    tag_224:\n      tag_225\n      jump\t// in\n    tag_223:\n      stop\n        /* \"contracts/BaseContract.sol\":7360:7680  function getFirmaListesi() public view returns(Firma[] memory){\r... */\n    tag_43:\n      tag_226\n      tag_227\n      jump\t// in\n    tag_226:\n      mload(0x40)\n      tag_228\n      swap2\n      swap1\n      tag_229\n      jump\t// in\n    tag_228:\n      mload(0x40)\n      dup1\n      swap2\n      sub\n      swap1\n      return\n        /* \"contracts/BaseContract.sol\":11756:12077  function guncelleKurs(address _kursAdres, string memory _isim, uint8 _ulke)\r... */\n    tag_44:\n      tag_230\n      0x04\n      dup1\n      calldatasize\n      sub\n      dup2\n      add\n      swap1\n      tag_231\n      swap2\n      swap1\n      tag_74\n      jump\t// in\n    tag_231:\n      tag_232\n      jump\t// in\n    tag_230:\n      stop\n        /* \"contracts/BaseContract.sol\":6983:7351  function getKamuKurumuListesi() public view sadeceCB returns(KamuKurumu[] memory)  {\r... */\n    tag_45:\n      tag_233\n      tag_234\n      jump\t// in\n    tag_233:\n      mload(0x40)\n      tag_235\n      swap2\n      swap1\n      tag_236\n      jump\t// in\n    tag_235:\n      mload(0x40)\n      dup1\n      swap2\n      sub\n      swap1\n      return\n        /* \"contracts/BaseContract.sol\":3622:3722  function isYOK(address _address) public view returns (bool){\r... */\n    tag_46:\n      tag_237\n      0x04\n      dup1\n      calldatasize\n      sub\n      dup2\n      add\n      swap1\n      tag_238\n      swap2\n      swap1\n      tag_78\n      jump\t// in\n    tag_238:\n      tag_239\n      jump\t// in\n    tag_237:\n      mload(0x40)\n      tag_240\n      swap2\n      swap1\n      tag_81\n      jump\t// in\n    tag_240:\n      mload(0x40)\n      dup1\n      swap2\n      sub\n      swap1\n      return\n        /* \"contracts/BaseContract.sol\":5502:5531  address[] public stkAdresleri */\n    tag_47:\n      tag_241\n      0x04\n      dup1\n      calldatasize\n      sub\n      dup2\n      add\n      swap1\n      tag_242\n      swap2\n      swap1\n      tag_84\n      jump\t// in\n    tag_242:\n      tag_243\n      jump\t// in\n    tag_241:\n      mload(0x40)\n      tag_244\n      swap2\n      swap1\n      tag_87\n      jump\t// in\n    tag_244:\n      mload(0x40)\n      dup1\n      swap2\n      sub\n      swap1\n      return\n        /* \"contracts/BaseContract.sol\":12971:13160  function silSTK(address _stkAdres)\r... */\n    tag_48:\n      tag_245\n      0x04\n      dup1\n      calldatasize\n      sub\n      dup2\n      add\n      swap1\n      tag_246\n      swap2\n      swap1\n      tag_78\n      jump\t// in\n    tag_246:\n      tag_247\n      jump\t// in\n    tag_245:\n      stop\n        /* \"contracts/BaseContract.sol\":4672:4805  function isSertifikaMerkezi(address _address) public view returns (bool){\r... */\n    tag_49:\n      tag_248\n      0x04\n      dup1\n      calldatasize\n      sub\n      dup2\n      add\n      swap1\n      tag_249\n      swap2\n      swap1\n      tag_78\n      jump\t// in\n    tag_249:\n      tag_250\n      jump\t// in\n    tag_248:\n      mload(0x40)\n      tag_251\n      swap2\n      swap1\n      tag_81\n      jump\t// in\n    tag_251:\n      mload(0x40)\n      dup1\n      swap2\n      sub\n      swap1\n      return\n        /* \"contracts/BaseContract.sol\":3840:3938  function isCB(address _address) public view returns (bool){\r... */\n    tag_50:\n      tag_252\n      0x04\n      dup1\n      calldatasize\n      sub\n      dup2\n      add\n      swap1\n      tag_253\n      swap2\n      swap1\n      tag_78\n      jump\t// in\n    tag_253:\n      tag_254\n      jump\t// in\n    tag_252:\n      mload(0x40)\n      tag_255\n      swap2\n      swap1\n      tag_81\n      jump\t// in\n    tag_255:\n      mload(0x40)\n      dup1\n      swap2\n      sub\n      swap1\n      return\n        /* \"contracts/BaseContract.sol\":5423:5453  address[] public kursAdresleri */\n    tag_51:\n      tag_256\n      0x04\n      dup1\n      calldatasize\n      sub\n      dup2\n      add\n      swap1\n      tag_257\n      swap2\n      swap1\n      tag_84\n      jump\t// in\n    tag_257:\n      tag_258\n      jump\t// in\n    tag_256:\n      mload(0x40)\n      tag_259\n      swap2\n      swap1\n      tag_87\n      jump\t// in\n    tag_259:\n      mload(0x40)\n      dup1\n      swap2\n      sub\n      swap1\n      return\n        /* \"contracts/BaseContract.sol\":3946:4067  function isUniversite(address _address) public view returns (bool){\r... */\n    tag_52:\n      tag_260\n      0x04\n      dup1\n      calldatasize\n      sub\n      dup2\n      add\n      swap1\n      tag_261\n      swap2\n      swap1\n      tag_78\n      jump\t// in\n    tag_261:\n      tag_262\n      jump\t// in\n    tag_260:\n      mload(0x40)\n      tag_263\n      swap2\n      swap1\n      tag_81\n      jump\t// in\n    tag_263:\n      mload(0x40)\n      dup1\n      swap2\n      sub\n      swap1\n      return\n        /* \"contracts/BaseContract.sol\":5303:5333  address[] public kisiAdresleri */\n    tag_53:\n      tag_264\n      0x04\n      dup1\n      calldatasize\n      sub\n      dup2\n      add\n      swap1\n      tag_265\n      swap2\n      swap1\n      tag_84\n      jump\t// in\n    tag_265:\n      tag_266\n      jump\t// in\n    tag_264:\n      mload(0x40)\n      tag_267\n      swap2\n      swap1\n      tag_87\n      jump\t// in\n    tag_267:\n      mload(0x40)\n      dup1\n      swap2\n      sub\n      swap1\n      return\n        /* \"contracts/BaseContract.sol\":8914:9117  function guncelleKisi(address _kisiAdres, bool _durum) public {\r... */\n    tag_54:\n      tag_268\n      0x04\n      dup1\n      calldatasize\n      sub\n      dup2\n      add\n      swap1\n      tag_269\n      swap2\n      swap1\n      tag_270\n      jump\t// in\n    tag_269:\n      tag_271\n      jump\t// in\n    tag_268:\n      stop\n        /* \"contracts/BaseContract.sol\":8682:8906  function ekleKisi(address _kisiAdres) public {\r... */\n    tag_55:\n      tag_272\n      0x04\n      dup1\n      calldatasize\n      sub\n      dup2\n      add\n      swap1\n      tag_273\n      swap2\n      swap1\n      tag_78\n      jump\t// in\n    tag_273:\n      tag_274\n      jump\t// in\n    tag_272:\n      stop\n        /* \"contracts/BaseContract.sol\":10343:10770  function ekleKamuKurumu(address _kamuKurumuAdres, string memory _isim, uint8 _ulke)\r... */\n    tag_56:\n      tag_275\n      0x04\n      dup1\n      calldatasize\n      sub\n      dup2\n      add\n      swap1\n      tag_276\n      swap2\n      swap1\n      tag_74\n      jump\t// in\n    tag_276:\n      tag_277\n      jump\t// in\n    tag_275:\n      stop\n        /* \"contracts/BaseContract.sol\":7998:8350  function getSmListesi() public view returns(SertifikaMerkezi[] memory){\r... */\n    tag_57:\n      tag_278\n      tag_279\n      jump\t// in\n    tag_278:\n      mload(0x40)\n      tag_280\n      swap2\n      swap1\n      tag_281\n      jump\t// in\n    tag_280:\n      mload(0x40)\n      dup1\n      swap2\n      sub\n      swap1\n      return\n        /* \"contracts/BaseContract.sol\":5575:5997  function ekleUniversite(address _universiteAdres, string memory _isim, uint8 _ulke) public {\r... */\n    tag_75:\n        /* \"contracts/BaseContract.sol\":5686:5716  isUniversite(_universiteAdres) */\n      tag_283\n        /* \"contracts/BaseContract.sol\":5699:5715  _universiteAdres */\n      dup4\n        /* \"contracts/BaseContract.sol\":5686:5698  isUniversite */\n      tag_262\n        /* \"contracts/BaseContract.sol\":5686:5716  isUniversite(_universiteAdres) */\n      jump\t// in\n    tag_283:\n        /* \"contracts/BaseContract.sol\":5685:5716  !isUniversite(_universiteAdres) */\n      iszero\n        /* \"contracts/BaseContract.sol\":5677:5767  require(!isUniversite(_universiteAdres),\r... */\n      tag_284\n      jumpi\n      mload(0x40)\n      0x08c379a000000000000000000000000000000000000000000000000000000000\n      dup2\n      mstore\n      0x04\n      add\n      tag_285\n      swap1\n      tag_286\n      jump\t// in\n    tag_285:\n      mload(0x40)\n      dup1\n      swap2\n      sub\n      swap1\n      revert\n    tag_284:\n        /* \"contracts/BaseContract.sol\":5820:5824  true */\n      0x01\n        /* \"contracts/BaseContract.sol\":5780:5793  universiteler */\n      0x04\n        /* \"contracts/BaseContract.sol\":5780:5811  universiteler[_universiteAdres] */\n      0x00\n        /* \"contracts/BaseContract.sol\":5794:5810  _universiteAdres */\n      dup6\n        /* \"contracts/BaseContract.sol\":5780:5811  universiteler[_universiteAdres] */\n      0xffffffffffffffffffffffffffffffffffffffff\n      and\n      0xffffffffffffffffffffffffffffffffffffffff\n      and\n      dup2\n      mstore\n      0x20\n      add\n      swap1\n      dup2\n      mstore\n      0x20\n      add\n      0x00\n      keccak256\n        /* \"contracts/BaseContract.sol\":5780:5817  universiteler[_universiteAdres].durum */\n      0x00\n      add\n      0x00\n        /* \"contracts/BaseContract.sol\":5780:5824  universiteler[_universiteAdres].durum = true */\n      0x0100\n      exp\n      dup2\n      sload\n      dup2\n      0xff\n      mul\n      not\n      and\n      swap1\n      dup4\n      iszero\n      iszero\n      mul\n      or\n      swap1\n      sstore\n      pop\n        /* \"contracts/BaseContract.sol\":5874:5879  _isim */\n      dup2\n        /* \"contracts/BaseContract.sol\":5835:5848  universiteler */\n      0x04\n        /* \"contracts/BaseContract.sol\":5835:5866  universiteler[_universiteAdres] */\n      0x00\n        /* \"contracts/BaseContract.sol\":5849:5865  _universiteAdres */\n      dup6\n        /* \"contracts/BaseContract.sol\":5835:5866  universiteler[_universiteAdres] */\n      0xffffffffffffffffffffffffffffffffffffffff\n      and\n      0xffffffffffffffffffffffffffffffffffffffff\n      and\n      dup2\n      mstore\n      0x20\n      add\n      swap1\n      dup2\n      mstore\n      0x20\n      add\n      0x00\n      keccak256\n        /* \"contracts/BaseContract.sol\":5835:5871  universiteler[_universiteAdres].isim */\n      0x01\n      add\n        /* \"contracts/BaseContract.sol\":5835:5879  universiteler[_universiteAdres].isim = _isim */\n      swap1\n      dup1\n      mload\n      swap1\n      0x20\n      add\n      swap1\n      tag_287\n      swap3\n      swap2\n      swap1\n      tag_288\n      jump\t// in\n    tag_287:\n      pop\n        /* \"contracts/BaseContract.sol\":5929:5934  _ulke */\n      dup1\n        /* \"contracts/BaseContract.sol\":5890:5903  universiteler */\n      0x04\n        /* \"contracts/BaseContract.sol\":5890:5921  universiteler[_universiteAdres] */\n      0x00\n        /* \"contracts/BaseContract.sol\":5904:5920  _universiteAdres */\n      dup6\n        /* \"contracts/BaseContract.sol\":5890:5921  universiteler[_universiteAdres] */\n      0xffffffffffffffffffffffffffffffffffffffff\n      and\n      0xffffffffffffffffffffffffffffffffffffffff\n      and\n      dup2\n      mstore\n      0x20\n      add\n      swap1\n      dup2\n      mstore\n      0x20\n      add\n      0x00\n      keccak256\n        /* \"contracts/BaseContract.sol\":5890:5926  universiteler[_universiteAdres].ulke */\n      0x02\n      add\n      0x00\n        /* \"contracts/BaseContract.sol\":5890:5934  universiteler[_universiteAdres].ulke = _ulke */\n      0x0100\n      exp\n      dup2\n      sload\n      dup2\n      0xff\n      mul\n      not\n      and\n      swap1\n      dup4\n      0xff\n      and\n      mul\n      or\n      swap1\n      sstore\n      pop\n        /* \"contracts/BaseContract.sol\":5945:5964  universiteAdresleri */\n      0x0d\n        /* \"contracts/BaseContract.sol\":5970:5986  _universiteAdres */\n      dup4\n        /* \"contracts/BaseContract.sol\":5945:5987  universiteAdresleri.push(_universiteAdres) */\n      swap1\n      dup1\n      0x01\n      dup2\n      sload\n      add\n      dup1\n      dup3\n      sstore\n      dup1\n      swap2\n      pop\n      pop\n      0x01\n      swap1\n      sub\n      swap1\n      0x00\n      mstore\n      keccak256(0x00, 0x20)\n      add\n      0x00\n      swap1\n      swap2\n      swap1\n      swap2\n      swap1\n      swap2\n      0x0100\n      exp\n      dup2\n      sload\n      dup2\n      0xffffffffffffffffffffffffffffffffffffffff\n      mul\n      not\n      and\n      swap1\n      dup4\n      0xffffffffffffffffffffffffffffffffffffffff\n      and\n      mul\n      or\n      swap1\n      sstore\n      pop\n        /* \"contracts/BaseContract.sol\":5575:5997  function ekleUniversite(address _universiteAdres, string memory _isim, uint8 _ulke) public {\r... */\n      pop\n      pop\n      pop\n      jump\t// out\n        /* \"contracts/BaseContract.sol\":4440:4549  function isKurs(address _address) public view returns (bool){\r... */\n    tag_79:\n        /* \"contracts/BaseContract.sol\":4495:4499  bool */\n      0x00\n        /* \"contracts/BaseContract.sol\":4518:4525  kurslar */\n      0x07\n        /* \"contracts/BaseContract.sol\":4518:4535  kurslar[_address] */\n      0x00\n        /* \"contracts/BaseContract.sol\":4526:4534  _address */\n      dup4\n        /* \"contracts/BaseContract.sol\":4518:4535  kurslar[_address] */\n      0xffffffffffffffffffffffffffffffffffffffff\n      and\n      0xffffffffffffffffffffffffffffffffffffffff\n      and\n      dup2\n      mstore\n      0x20\n      add\n      swap1\n      dup2\n      mstore\n      0x20\n      add\n      0x00\n      keccak256\n        /* \"contracts/BaseContract.sol\":4518:4541  kurslar[_address].durum */\n      0x00\n      add\n      0x00\n      swap1\n      sload\n      swap1\n      0x0100\n      exp\n      swap1\n      div\n      0xff\n      and\n        /* \"contracts/BaseContract.sol\":4511:4541  return kurslar[_address].durum */\n      swap1\n      pop\n        /* \"contracts/BaseContract.sol\":4440:4549  function isKurs(address _address) public view returns (bool){\r... */\n      swap2\n      swap1\n      pop\n      jump\t// out\n        /* \"contracts/BaseContract.sol\":5460:5495  address[] public kamuKurumAdresleri */\n    tag_85:\n      0x10\n      dup2\n      dup2\n      sload\n      dup2\n      lt\n      tag_291\n      jumpi\n      0x00\n      dup1\n      revert\n    tag_291:\n      swap1\n      0x00\n      mstore\n      keccak256(0x00, 0x20)\n      add\n      0x00\n      swap2\n      pop\n      sload\n      swap1\n      0x0100\n      exp\n      swap1\n      div\n      0xffffffffffffffffffffffffffffffffffffffff\n      and\n      dup2\n      jump\t// out\n        /* \"contracts/BaseContract.sol\":5538:5566  address[] public smAdresleri */\n    tag_90:\n      0x12\n      dup2\n      dup2\n      sload\n      dup2\n      lt\n      tag_293\n      jumpi\n      0x00\n      dup1\n      revert\n    tag_293:\n      swap1\n      0x00\n      mstore\n      keccak256(0x00, 0x20)\n      add\n      0x00\n      swap2\n      pop\n      sload\n      swap1\n      0x0100\n      exp\n      swap1\n      div\n      0xffffffffffffffffffffffffffffffffffffffff\n      and\n      dup2\n      jump\t// out\n        /* \"contracts/BaseContract.sol\":3730:3832  function isTOBB(address _address) public view returns (bool){\r... */\n    tag_94:\n        /* \"contracts/BaseContract.sol\":3785:3789  bool */\n      0x00\n        /* \"contracts/BaseContract.sol\":3816:3824  _address */\n      dup2\n        /* \"contracts/BaseContract.sol\":3808:3824  TOBB == _address */\n      0xffffffffffffffffffffffffffffffffffffffff\n      and\n        /* \"contracts/BaseContract.sol\":3808:3812  TOBB */\n      0x01\n      0x00\n      swap1\n      sload\n      swap1\n      0x0100\n      exp\n      swap1\n      div\n      0xffffffffffffffffffffffffffffffffffffffff\n      and\n        /* \"contracts/BaseContract.sol\":3808:3824  TOBB == _address */\n      0xffffffffffffffffffffffffffffffffffffffff\n      and\n      eq\n        /* \"contracts/BaseContract.sol\":3801:3824  return TOBB == _address */\n      swap1\n      pop\n        /* \"contracts/BaseContract.sol\":3730:3832  function isTOBB(address _address) public view returns (bool){\r... */\n      swap2\n      swap1\n      pop\n      jump\t// out\n        /* \"contracts/BaseContract.sol\":10778:11154  function guncelleKamuKurumu(address _kamuKurumuAdres, string memory _isim, uint8 _ulke)\r... */\n    tag_98:\n        /* \"contracts/BaseContract.sol\":10897:10927  isKamuKurumu(_kamuKurumuAdres) */\n      tag_297\n        /* \"contracts/BaseContract.sol\":10910:10926  _kamuKurumuAdres */\n      dup4\n        /* \"contracts/BaseContract.sol\":10897:10909  isKamuKurumu */\n      tag_143\n        /* \"contracts/BaseContract.sol\":10897:10927  isKamuKurumu(_kamuKurumuAdres) */\n      jump\t// in\n    tag_297:\n        /* \"contracts/BaseContract.sol\":10889:10979  require(isKamuKurumu(_kamuKurumuAdres),\r... */\n      tag_298\n      jumpi\n      mload(0x40)\n      0x08c379a000000000000000000000000000000000000000000000000000000000\n      dup2\n      mstore\n      0x04\n      add\n      tag_299\n      swap1\n      tag_300\n      jump\t// in\n    tag_299:\n      mload(0x40)\n      dup1\n      swap2\n      sub\n      swap1\n      revert\n    tag_298:\n        /* \"contracts/BaseContract.sol\":11032:11036  true */\n      0x01\n        /* \"contracts/BaseContract.sol\":10992:11005  kamuKurumlari */\n      0x08\n        /* \"contracts/BaseContract.sol\":10992:11023  kamuKurumlari[_kamuKurumuAdres] */\n      0x00\n        /* \"contracts/BaseContract.sol\":11006:11022  _kamuKurumuAdres */\n      dup6\n        /* \"contracts/BaseContract.sol\":10992:11023  kamuKurumlari[_kamuKurumuAdres] */\n      0xffffffffffffffffffffffffffffffffffffffff\n      and\n      0xffffffffffffffffffffffffffffffffffffffff\n      and\n      dup2\n      mstore\n      0x20\n      add\n      swap1\n      dup2\n      mstore\n      0x20\n      add\n      0x00\n      keccak256\n        /* \"contracts/BaseContract.sol\":10992:11029  kamuKurumlari[_kamuKurumuAdres].durum */\n      0x00\n      add\n      0x00\n        /* \"contracts/BaseContract.sol\":10992:11036  kamuKurumlari[_kamuKurumuAdres].durum = true */\n      0x0100\n      exp\n      dup2\n      sload\n      dup2\n      0xff\n      mul\n      not\n      and\n      swap1\n      dup4\n      iszero\n      iszero\n      mul\n      or\n      swap1\n      sstore\n      pop\n        /* \"contracts/BaseContract.sol\":11086:11091  _isim */\n      dup2\n        /* \"contracts/BaseContract.sol\":11047:11060  kamuKurumlari */\n      0x08\n        /* \"contracts/BaseContract.sol\":11047:11078  kamuKurumlari[_kamuKurumuAdres] */\n      0x00\n        /* \"contracts/BaseContract.sol\":11061:11077  _kamuKurumuAdres */\n      dup6\n        /* \"contracts/BaseContract.sol\":11047:11078  kamuKurumlari[_kamuKurumuAdres] */\n      0xffffffffffffffffffffffffffffffffffffffff\n      and\n      0xffffffffffffffffffffffffffffffffffffffff\n      and\n      dup2\n      mstore\n      0x20\n      add\n      swap1\n      dup2\n      mstore\n      0x20\n      add\n      0x00\n      keccak256\n        /* \"contracts/BaseContract.sol\":11047:11083  kamuKurumlari[_kamuKurumuAdres].isim */\n      0x01\n      add\n        /* \"contracts/BaseContract.sol\":11047:11091  kamuKurumlari[_kamuKurumuAdres].isim = _isim */\n      swap1\n      dup1\n      mload\n      swap1\n      0x20\n      add\n      swap1\n      tag_301\n      swap3\n      swap2\n      swap1\n      tag_288\n      jump\t// in\n    tag_301:\n      pop\n        /* \"contracts/BaseContract.sol\":11141:11146  _ulke */\n      dup1\n        /* \"contracts/BaseContract.sol\":11102:11115  kamuKurumlari */\n      0x08\n        /* \"contracts/BaseContract.sol\":11102:11133  kamuKurumlari[_kamuKurumuAdres] */\n      0x00\n        /* \"contracts/BaseContract.sol\":11116:11132  _kamuKurumuAdres */\n      dup6\n        /* \"contracts/BaseContract.sol\":11102:11133  kamuKurumlari[_kamuKurumuAdres] */\n      0xffffffffffffffffffffffffffffffffffffffff\n      and\n      0xffffffffffffffffffffffffffffffffffffffff\n      and\n      dup2\n      mstore\n      0x20\n      add\n      swap1\n      dup2\n      mstore\n      0x20\n      add\n      0x00\n      keccak256\n        /* \"contracts/BaseContract.sol\":11102:11138  kamuKurumlari[_kamuKurumuAdres].ulke */\n      0x02\n      add\n      0x00\n        /* \"contracts/BaseContract.sol\":11102:11146  kamuKurumlari[_kamuKurumuAdres].ulke = _ulke */\n      0x0100\n      exp\n      dup2\n      sload\n      dup2\n      0xff\n      mul\n      not\n      and\n      swap1\n      dup4\n      0xff\n      and\n      mul\n      or\n      swap1\n      sstore\n      pop\n        /* \"contracts/BaseContract.sol\":10778:11154  function guncelleKamuKurumu(address _kamuKurumuAdres, string memory _isim, uint8 _ulke)\r... */\n      pop\n      pop\n      pop\n      jump\t// out\n        /* \"contracts/BaseContract.sol\":12283:12637  function ekleSTK(address _stkAdres, string memory _isim, uint8 _ulke)\r... */\n    tag_101:\n        /* \"contracts/BaseContract.sol\":12385:12401  isSTK(_stkAdres) */\n      tag_303\n        /* \"contracts/BaseContract.sol\":12391:12400  _stkAdres */\n      dup4\n        /* \"contracts/BaseContract.sol\":12385:12390  isSTK */\n      tag_161\n        /* \"contracts/BaseContract.sol\":12385:12401  isSTK(_stkAdres) */\n      jump\t// in\n    tag_303:\n        /* \"contracts/BaseContract.sol\":12384:12401  !isSTK(_stkAdres) */\n      iszero\n        /* \"contracts/BaseContract.sol\":12376:12463  require(!isSTK(_stkAdres),\r... */\n      tag_304\n      jumpi\n      mload(0x40)\n      0x08c379a000000000000000000000000000000000000000000000000000000000\n      dup2\n      mstore\n      0x04\n      add\n      tag_305\n      swap1\n      tag_306\n      jump\t// in\n    tag_305:\n      mload(0x40)\n      dup1\n      swap2\n      sub\n      swap1\n      revert\n    tag_304:\n        /* \"contracts/BaseContract.sol\":12502:12506  true */\n      0x01\n        /* \"contracts/BaseContract.sol\":12476:12482  stklar */\n      0x09\n        /* \"contracts/BaseContract.sol\":12476:12493  stklar[_stkAdres] */\n      0x00\n        /* \"contracts/BaseContract.sol\":12483:12492  _stkAdres */\n      dup6\n        /* \"contracts/BaseContract.sol\":12476:12493  stklar[_stkAdres] */\n      0xffffffffffffffffffffffffffffffffffffffff\n      and\n      0xffffffffffffffffffffffffffffffffffffffff\n      and\n      dup2\n      mstore\n      0x20\n      add\n      swap1\n      dup2\n      mstore\n      0x20\n      add\n      0x00\n      keccak256\n        /* \"contracts/BaseContract.sol\":12476:12499  stklar[_stkAdres].durum */\n      0x00\n      add\n      0x00\n        /* \"contracts/BaseContract.sol\":12476:12506  stklar[_stkAdres].durum = true */\n      0x0100\n      exp\n      dup2\n      sload\n      dup2\n      0xff\n      mul\n      not\n      and\n      swap1\n      dup4\n      iszero\n      iszero\n      mul\n      or\n      swap1\n      sstore\n      pop\n        /* \"contracts/BaseContract.sol\":12542:12547  _isim */\n      dup2\n        /* \"contracts/BaseContract.sol\":12517:12523  stklar */\n      0x09\n        /* \"contracts/BaseContract.sol\":12517:12534  stklar[_stkAdres] */\n      0x00\n        /* \"contracts/BaseContract.sol\":12524:12533  _stkAdres */\n      dup6\n        /* \"contracts/BaseContract.sol\":12517:12534  stklar[_stkAdres] */\n      0xffffffffffffffffffffffffffffffffffffffff\n      and\n      0xffffffffffffffffffffffffffffffffffffffff\n      and\n      dup2\n      mstore\n      0x20\n      add\n      swap1\n      dup2\n      mstore\n      0x20\n      add\n      0x00\n      keccak256\n        /* \"contracts/BaseContract.sol\":12517:12539  stklar[_stkAdres].isim */\n      0x01\n      add\n        /* \"contracts/BaseContract.sol\":12517:12547  stklar[_stkAdres].isim = _isim */\n      swap1\n      dup1\n      mload\n      swap1\n      0x20\n      add\n      swap1\n      tag_307\n      swap3\n      swap2\n      swap1\n      tag_288\n      jump\t// in\n    tag_307:\n      pop\n        /* \"contracts/BaseContract.sol\":12583:12588  _ulke */\n      dup1\n        /* \"contracts/BaseContract.sol\":12558:12564  stklar */\n      0x09\n        /* \"contracts/BaseContract.sol\":12558:12575  stklar[_stkAdres] */\n      0x00\n        /* \"contracts/BaseContract.sol\":12565:12574  _stkAdres */\n      dup6\n        /* \"contracts/BaseContract.sol\":12558:12575  stklar[_stkAdres] */\n      0xffffffffffffffffffffffffffffffffffffffff\n      and\n      0xffffffffffffffffffffffffffffffffffffffff\n      and\n      dup2\n      mstore\n      0x20\n      add\n      swap1\n      dup2\n      mstore\n      0x20\n      add\n      0x00\n      keccak256\n        /* \"contracts/BaseContract.sol\":12558:12580  stklar[_stkAdres].ulke */\n      0x02\n      add\n      0x00\n        /* \"contracts/BaseContract.sol\":12558:12588  stklar[_stkAdres].ulke = _ulke */\n      0x0100\n      exp\n      dup2\n      sload\n      dup2\n      0xff\n      mul\n      not\n      and\n      swap1\n      dup4\n      0xff\n      and\n      mul\n      or\n      swap1\n      sstore\n      pop\n        /* \"contracts/BaseContract.sol\":12599:12611  stkAdresleri */\n      0x11\n        /* \"contracts/BaseContract.sol\":12617:12626  _stkAdres */\n      dup4\n        /* \"contracts/BaseContract.sol\":12599:12627  stkAdresleri.push(_stkAdres) */\n      swap1\n      dup1\n      0x01\n      dup2\n      sload\n      add\n      dup1\n      dup3\n      sstore\n      dup1\n      swap2\n      pop\n      pop\n      0x01\n      swap1\n      sub\n      swap1\n      0x00\n      mstore\n      keccak256(0x00, 0x20)\n      add\n      0x00\n      swap1\n      swap2\n      swap1\n      swap2\n      swap1\n      swap2\n      0x0100\n      exp\n      dup2\n      sload\n      dup2\n      0xffffffffffffffffffffffffffffffffffffffff\n      mul\n      not\n      and\n      swap1\n      dup4\n      0xffffffffffffffffffffffffffffffffffffffff\n      and\n      mul\n      or\n      swap1\n      sstore\n      pop\n        /* \"contracts/BaseContract.sol\":12283:12637  function ekleSTK(address _stkAdres, string memory _isim, uint8 _ulke)\r... */\n      pop\n      pop\n      pop\n      jump\t// out\n        /* \"contracts/BaseContract.sol\":5026:5066  mapping(address => Kurs) public  kurslar */\n    tag_104:\n      mstore(0x20, 0x07)\n      dup1\n      0x00\n      mstore\n      keccak256(0x00, 0x40)\n      0x00\n      swap2\n      pop\n      swap1\n      pop\n      dup1\n      0x00\n      add\n      0x00\n      swap1\n      sload\n      swap1\n      0x0100\n      exp\n      swap1\n      div\n      0xff\n      and\n      swap1\n      dup1\n      0x01\n      add\n      dup1\n      sload\n      tag_309\n      swap1\n      tag_310\n      jump\t// in\n    tag_309:\n      dup1\n      0x1f\n      add\n      0x20\n      dup1\n      swap2\n      div\n      mul\n      0x20\n      add\n      mload(0x40)\n      swap1\n      dup2\n      add\n      0x40\n      mstore\n      dup1\n      swap3\n      swap2\n      swap1\n      dup2\n      dup2\n      mstore\n      0x20\n      add\n      dup3\n      dup1\n      sload\n      tag_311\n      swap1\n      tag_310\n      jump\t// in\n    tag_311:\n      dup1\n      iszero\n      tag_312\n      jumpi\n      dup1\n      0x1f\n      lt\n      tag_313\n      jumpi\n      0x0100\n      dup1\n      dup4\n      sload\n      div\n      mul\n      dup4\n      mstore\n      swap2\n      0x20\n      add\n      swap2\n      jump(tag_312)\n    tag_313:\n      dup3\n      add\n      swap2\n      swap1\n      0x00\n      mstore\n      keccak256(0x00, 0x20)\n      swap1\n    tag_314:\n      dup2\n      sload\n      dup2\n      mstore\n      swap1\n      0x01\n      add\n      swap1\n      0x20\n      add\n      dup1\n      dup4\n      gt\n      tag_314\n      jumpi\n      dup3\n      swap1\n      sub\n      0x1f\n      and\n      dup3\n      add\n      swap2\n    tag_312:\n      pop\n      pop\n      pop\n      pop\n      pop\n      swap1\n      dup1\n      0x02\n      add\n      0x00\n      swap1\n      sload\n      swap1\n      0x0100\n      exp\n      swap1\n      div\n      0xff\n      and\n      swap1\n      pop\n      dup4\n      jump\t// out\n        /* \"contracts/BaseContract.sol\":10146:10335  function silFirma(address _firmaAdres)\r... */\n    tag_109:\n        /* \"contracts/BaseContract.sol\":10216:10236  isFirma(_firmaAdres) */\n      tag_316\n        /* \"contracts/BaseContract.sol\":10224:10235  _firmaAdres */\n      dup2\n        /* \"contracts/BaseContract.sol\":10216:10223  isFirma */\n      tag_120\n        /* \"contracts/BaseContract.sol\":10216:10236  isFirma(_firmaAdres) */\n      jump\t// in\n    tag_316:\n        /* \"contracts/BaseContract.sol\":10208:10282  require(isFirma(_firmaAdres),\r... */\n      tag_317\n      jumpi\n      mload(0x40)\n      0x08c379a000000000000000000000000000000000000000000000000000000000\n      dup2\n      mstore\n      0x04\n      add\n      tag_318\n      swap1\n      tag_319\n      jump\t// in\n    tag_318:\n      mload(0x40)\n      dup1\n      swap2\n      sub\n      swap1\n      revert\n    tag_317:\n        /* \"contracts/BaseContract.sol\":10302:10310  firmalar */\n      0x06\n        /* \"contracts/BaseContract.sol\":10302:10323  firmalar[_firmaAdres] */\n      0x00\n        /* \"contracts/BaseContract.sol\":10311:10322  _firmaAdres */\n      dup3\n        /* \"contracts/BaseContract.sol\":10302:10323  firmalar[_firmaAdres] */\n      0xffffffffffffffffffffffffffffffffffffffff\n      and\n      0xffffffffffffffffffffffffffffffffffffffff\n      and\n      dup2\n      mstore\n      0x20\n      add\n      swap1\n      dup2\n      mstore\n      0x20\n      add\n      0x00\n      keccak256\n      0x00\n        /* \"contracts/BaseContract.sol\":10295:10323  delete firmalar[_firmaAdres] */\n      dup1\n      dup3\n      add\n      exp(0x0100, 0x00)\n      dup2\n      sload\n      swap1\n      0xff\n      mul\n      not\n      and\n      swap1\n      sstore\n      0x00\n      dup3\n      add\n      exp(0x0100, 0x01)\n      dup2\n      sload\n      swap1\n      0xff\n      mul\n      not\n      and\n      swap1\n      sstore\n      0x01\n      dup3\n      add\n      0x00\n      swap1\n      sstore\n      0x02\n      dup3\n      add\n      0x00\n      tag_320\n      swap2\n      swap1\n      tag_321\n      jump\t// in\n    tag_320:\n      pop\n      pop\n        /* \"contracts/BaseContract.sol\":10146:10335  function silFirma(address _firmaAdres)\r... */\n      pop\n      jump\t// out\n        /* \"contracts/BaseContract.sol\":5342:5378  address[] public universiteAdresleri */\n    tag_112:\n      0x0d\n      dup2\n      dup2\n      sload\n      dup2\n      lt\n      tag_322\n      jumpi\n      0x00\n      dup1\n      revert\n    tag_322:\n      swap1\n      0x00\n      mstore\n      keccak256(0x00, 0x20)\n      add\n      0x00\n      swap2\n      pop\n      sload\n      swap1\n      0x0100\n      exp\n      swap1\n      div\n      0xffffffffffffffffffffffffffffffffffffffff\n      and\n      dup2\n      jump\t// out\n        /* \"contracts/BaseContract.sol\":4859:4910  mapping(address => Universite) public universiteler */\n    tag_116:\n      mstore(0x20, 0x04)\n      dup1\n      0x00\n      mstore\n      keccak256(0x00, 0x40)\n      0x00\n      swap2\n      pop\n      swap1\n      pop\n      dup1\n      0x00\n      add\n      0x00\n      swap1\n      sload\n      swap1\n      0x0100\n      exp\n      swap1\n      div\n      0xff\n      and\n      swap1\n      dup1\n      0x01\n      add\n      dup1\n      sload\n      tag_324\n      swap1\n      tag_310\n      jump\t// in\n    tag_324:\n      dup1\n      0x1f\n      add\n      0x20\n      dup1\n      swap2\n      div\n      mul\n      0x20\n      add\n      mload(0x40)\n      swap1\n      dup2\n      add\n      0x40\n      mstore\n      dup1\n      swap3\n      swap2\n      swap1\n      dup2\n      dup2\n      mstore\n      0x20\n      add\n      dup3\n      dup1\n      sload\n      tag_325\n      swap1\n      tag_310\n      jump\t// in\n    tag_325:\n      dup1\n      iszero\n      tag_326\n      jumpi\n      dup1\n      0x1f\n      lt\n      tag_327\n      jumpi\n      0x0100\n      dup1\n      dup4\n      sload\n      div\n      mul\n      dup4\n      mstore\n      swap2\n      0x20\n      add\n      swap2\n      jump(tag_326)\n    tag_327:\n      dup3\n      add\n      swap2\n      swap1\n      0x00\n      mstore\n      keccak256(0x00, 0x20)\n      swap1\n    tag_328:\n      dup2\n      sload\n      dup2\n      mstore\n      swap1\n      0x01\n      add\n      swap1\n      0x20\n      add\n      dup1\n      dup4\n      gt\n      tag_328\n      jumpi\n      dup3\n      swap1\n      sub\n      0x1f\n      and\n      dup3\n      add\n      swap2\n    tag_326:\n      pop\n      pop\n      pop\n      pop\n      pop\n      swap1\n      dup1\n      0x02\n      add\n      0x00\n      swap1\n      sload\n      swap1\n      0x0100\n      exp\n      swap1\n      div\n      0xff\n      and\n      swap1\n      pop\n      dup4\n      jump\t// out\n        /* \"contracts/BaseContract.sol\":4321:4432  function isFirma(address _address) public view returns (bool){\r... */\n    tag_120:\n        /* \"contracts/BaseContract.sol\":4377:4381  bool */\n      0x00\n        /* \"contracts/BaseContract.sol\":4400:4408  firmalar */\n      0x06\n        /* \"contracts/BaseContract.sol\":4400:4418  firmalar[_address] */\n      0x00\n        /* \"contracts/BaseContract.sol\":4409:4417  _address */\n      dup4\n        /* \"contracts/BaseContract.sol\":4400:4418  firmalar[_address] */\n      0xffffffffffffffffffffffffffffffffffffffff\n      and\n      0xffffffffffffffffffffffffffffffffffffffff\n      and\n      dup2\n      mstore\n      0x20\n      add\n      swap1\n      dup2\n      mstore\n      0x20\n      add\n      0x00\n      keccak256\n        /* \"contracts/BaseContract.sol\":4400:4424  firmalar[_address].durum */\n      0x00\n      add\n      0x00\n      swap1\n      sload\n      swap1\n      0x0100\n      exp\n      swap1\n      div\n      0xff\n      and\n        /* \"contracts/BaseContract.sol\":4393:4424  return firmalar[_address].durum */\n      swap1\n      pop\n        /* \"contracts/BaseContract.sol\":4321:4432  function isFirma(address _address) public view returns (bool){\r... */\n      swap2\n      swap1\n      pop\n      jump\t// out\n        /* \"contracts/BaseContract.sol\":5175:5238  mapping(address => SertifikaMerkezi) public sertifikaMerkezleri */\n    tag_124:\n      mstore(0x20, 0x0a)\n      dup1\n      0x00\n      mstore\n      keccak256(0x00, 0x40)\n      0x00\n      swap2\n      pop\n      swap1\n      pop\n      dup1\n      0x00\n      add\n      0x00\n      swap1\n      sload\n      swap1\n      0x0100\n      exp\n      swap1\n      div\n      0xff\n      and\n      swap1\n      dup1\n      0x01\n      add\n      dup1\n      sload\n      tag_330\n      swap1\n      tag_310\n      jump\t// in\n    tag_330:\n      dup1\n      0x1f\n      add\n      0x20\n      dup1\n      swap2\n      div\n      mul\n      0x20\n      add\n      mload(0x40)\n      swap1\n      dup2\n      add\n      0x40\n      mstore\n      dup1\n      swap3\n      swap2\n      swap1\n      dup2\n      dup2\n      mstore\n      0x20\n      add\n      dup3\n      dup1\n      sload\n      tag_331\n      swap1\n      tag_310\n      jump\t// in\n    tag_331:\n      dup1\n      iszero\n      tag_332\n      jumpi\n      dup1\n      0x1f\n      lt\n      tag_333\n      jumpi\n      0x0100\n      dup1\n      dup4\n      sload\n      div\n      mul\n      dup4\n      mstore\n      swap2\n      0x20\n      add\n      swap2\n      jump(tag_332)\n    tag_333:\n      dup3\n      add\n      swap2\n      swap1\n      0x00\n      mstore\n      keccak256(0x00, 0x20)\n      swap1\n    tag_334:\n      dup2\n      sload\n      dup2\n      mstore\n      swap1\n      0x01\n      add\n      swap1\n      0x20\n      add\n      dup1\n      dup4\n      gt\n      tag_334\n      jumpi\n      dup3\n      swap1\n      sub\n      0x1f\n      and\n      dup3\n      add\n      swap2\n    tag_332:\n      pop\n      pop\n      pop\n      pop\n      pop\n      swap1\n      dup1\n      0x02\n      add\n      0x00\n      swap1\n      sload\n      swap1\n      0x0100\n      exp\n      swap1\n      div\n      0xff\n      and\n      swap1\n      pop\n      dup4\n      jump\t// out\n        /* \"contracts/BaseContract.sol\":164:307  function paydasTanimla(address _yok, address _tobb, address _cb) public {\r... */\n    tag_129:\n        /* \"contracts/BaseContract.sol\":253:257  _yok */\n      dup3\n        /* \"contracts/BaseContract.sol\":247:250  YOK */\n      0x00\n      dup1\n        /* \"contracts/BaseContract.sol\":247:257  YOK = _yok */\n      0x0100\n      exp\n      dup2\n      sload\n      dup2\n      0xffffffffffffffffffffffffffffffffffffffff\n      mul\n      not\n      and\n      swap1\n      dup4\n      0xffffffffffffffffffffffffffffffffffffffff\n      and\n      mul\n      or\n      swap1\n      sstore\n      pop\n        /* \"contracts/BaseContract.sol\":275:280  _tobb */\n      dup2\n        /* \"contracts/BaseContract.sol\":268:272  TOBB */\n      0x01\n      0x00\n        /* \"contracts/BaseContract.sol\":268:280  TOBB = _tobb */\n      0x0100\n      exp\n      dup2\n      sload\n      dup2\n      0xffffffffffffffffffffffffffffffffffffffff\n      mul\n      not\n      and\n      swap1\n      dup4\n      0xffffffffffffffffffffffffffffffffffffffff\n      and\n      mul\n      or\n      swap1\n      sstore\n      pop\n        /* \"contracts/BaseContract.sol\":296:299  _cb */\n      dup1\n        /* \"contracts/BaseContract.sol\":291:293  CB */\n      0x02\n      0x00\n        /* \"contracts/BaseContract.sol\":291:299  CB = _cb */\n      0x0100\n      exp\n      dup2\n      sload\n      dup2\n      0xffffffffffffffffffffffffffffffffffffffff\n      mul\n      not\n      and\n      swap1\n      dup4\n      0xffffffffffffffffffffffffffffffffffffffff\n      and\n      mul\n      or\n      swap1\n      sstore\n      pop\n        /* \"contracts/BaseContract.sol\":164:307  function paydasTanimla(address _yok, address _tobb, address _cb) public {\r... */\n      pop\n      pop\n      pop\n      jump\t// out\n        /* \"contracts/BaseContract.sol\":4977:5019  mapping(address => Firma) public  firmalar */\n    tag_132:\n      mstore(0x20, 0x06)\n      dup1\n      0x00\n      mstore\n      keccak256(0x00, 0x40)\n      0x00\n      swap2\n      pop\n      swap1\n      pop\n      dup1\n      0x00\n      add\n      0x00\n      swap1\n      sload\n      swap1\n      0x0100\n      exp\n      swap1\n      div\n      0xff\n      and\n      swap1\n      dup1\n      0x00\n      add\n      0x01\n      swap1\n      sload\n      swap1\n      0x0100\n      exp\n      swap1\n      div\n      0xff\n      and\n      swap1\n      dup1\n      0x01\n      add\n      sload\n      swap1\n      dup1\n      0x02\n      add\n      dup1\n      sload\n      tag_336\n      swap1\n      tag_310\n      jump\t// in\n    tag_336:\n      dup1\n      0x1f\n      add\n      0x20\n      dup1\n      swap2\n      div\n      mul\n      0x20\n      add\n      mload(0x40)\n      swap1\n      dup2\n      add\n      0x40\n      mstore\n      dup1\n      swap3\n      swap2\n      swap1\n      dup2\n      dup2\n      mstore\n      0x20\n      add\n      dup3\n      dup1\n      sload\n      tag_337\n      swap1\n      tag_310\n      jump\t// in\n    tag_337:\n      dup1\n      iszero\n      tag_338\n      jumpi\n      dup1\n      0x1f\n      lt\n      tag_339\n      jumpi\n      0x0100\n      dup1\n      dup4\n      sload\n      div\n      mul\n      dup4\n      mstore\n      swap2\n      0x20\n      add\n      swap2\n      jump(tag_338)\n    tag_339:\n      dup3\n      add\n      swap2\n      swap1\n      0x00\n      mstore\n      keccak256(0x00, 0x20)\n      swap1\n    tag_340:\n      dup2\n      sload\n      dup2\n      mstore\n      swap1\n      0x01\n      add\n      swap1\n      0x20\n      add\n      dup1\n      dup4\n      gt\n      tag_340\n      jumpi\n      dup3\n      swap1\n      sub\n      0x1f\n      and\n      dup3\n      add\n      swap2\n    tag_338:\n      pop\n      pop\n      pop\n      pop\n      pop\n      swap1\n      pop\n      dup5\n      jump\t// out\n        /* \"contracts/BaseContract.sol\":11391:11748  function ekleKurs(address _kursAdres, string memory _isim, uint8 _ulke)\r... */\n    tag_137:\n        /* \"contracts/BaseContract.sol\":11495:11513  isKurs(_kursAdres) */\n      tag_342\n        /* \"contracts/BaseContract.sol\":11502:11512  _kursAdres */\n      dup4\n        /* \"contracts/BaseContract.sol\":11495:11501  isKurs */\n      tag_79\n        /* \"contracts/BaseContract.sol\":11495:11513  isKurs(_kursAdres) */\n      jump\t// in\n    tag_342:\n        /* \"contracts/BaseContract.sol\":11494:11513  !isKurs(_kursAdres) */\n      iszero\n        /* \"contracts/BaseContract.sol\":11486:11566  require(!isKurs(_kursAdres),\r... */\n      tag_343\n      jumpi\n      mload(0x40)\n      0x08c379a000000000000000000000000000000000000000000000000000000000\n      dup2\n      mstore\n      0x04\n      add\n      tag_344\n      swap1\n      tag_345\n      jump\t// in\n    tag_344:\n      mload(0x40)\n      dup1\n      swap2\n      sub\n      swap1\n      revert\n    tag_343:\n        /* \"contracts/BaseContract.sol\":11607:11611  true */\n      0x01\n        /* \"contracts/BaseContract.sol\":11579:11586  kurslar */\n      0x07\n        /* \"contracts/BaseContract.sol\":11579:11598  kurslar[_kursAdres] */\n      0x00\n        /* \"contracts/BaseContract.sol\":11587:11597  _kursAdres */\n      dup6\n        /* \"contracts/BaseContract.sol\":11579:11598  kurslar[_kursAdres] */\n      0xffffffffffffffffffffffffffffffffffffffff\n      and\n      0xffffffffffffffffffffffffffffffffffffffff\n      and\n      dup2\n      mstore\n      0x20\n      add\n      swap1\n      dup2\n      mstore\n      0x20\n      add\n      0x00\n      keccak256\n        /* \"contracts/BaseContract.sol\":11579:11604  kurslar[_kursAdres].durum */\n      0x00\n      add\n      0x00\n        /* \"contracts/BaseContract.sol\":11579:11611  kurslar[_kursAdres].durum = true */\n      0x0100\n      exp\n      dup2\n      sload\n      dup2\n      0xff\n      mul\n      not\n      and\n      swap1\n      dup4\n      iszero\n      iszero\n      mul\n      or\n      swap1\n      sstore\n      pop\n        /* \"contracts/BaseContract.sol\":11649:11654  _isim */\n      dup2\n        /* \"contracts/BaseContract.sol\":11622:11629  kurslar */\n      0x07\n        /* \"contracts/BaseContract.sol\":11622:11641  kurslar[_kursAdres] */\n      0x00\n        /* \"contracts/BaseContract.sol\":11630:11640  _kursAdres */\n      dup6\n        /* \"contracts/BaseContract.sol\":11622:11641  kurslar[_kursAdres] */\n      0xffffffffffffffffffffffffffffffffffffffff\n      and\n      0xffffffffffffffffffffffffffffffffffffffff\n      and\n      dup2\n      mstore\n      0x20\n      add\n      swap1\n      dup2\n      mstore\n      0x20\n      add\n      0x00\n      keccak256\n        /* \"contracts/BaseContract.sol\":11622:11646  kurslar[_kursAdres].isim */\n      0x01\n      add\n        /* \"contracts/BaseContract.sol\":11622:11654  kurslar[_kursAdres].isim = _isim */\n      swap1\n      dup1\n      mload\n      swap1\n      0x20\n      add\n      swap1\n      tag_346\n      swap3\n      swap2\n      swap1\n      tag_288\n      jump\t// in\n    tag_346:\n      pop\n        /* \"contracts/BaseContract.sol\":11692:11697  _ulke */\n      dup1\n        /* \"contracts/BaseContract.sol\":11665:11672  kurslar */\n      0x07\n        /* \"contracts/BaseContract.sol\":11665:11684  kurslar[_kursAdres] */\n      0x00\n        /* \"contracts/BaseContract.sol\":11673:11683  _kursAdres */\n      dup6\n        /* \"contracts/BaseContract.sol\":11665:11684  kurslar[_kursAdres] */\n      0xffffffffffffffffffffffffffffffffffffffff\n      and\n      0xffffffffffffffffffffffffffffffffffffffff\n      and\n      dup2\n      mstore\n      0x20\n      add\n      swap1\n      dup2\n      mstore\n      0x20\n      add\n      0x00\n      keccak256\n        /* \"contracts/BaseContract.sol\":11665:11689  kurslar[_kursAdres].ulke */\n      0x02\n      add\n      0x00\n        /* \"contracts/BaseContract.sol\":11665:11697  kurslar[_kursAdres].ulke = _ulke */\n      0x0100\n      exp\n      dup2\n      sload\n      dup2\n      0xff\n      mul\n      not\n      and\n      swap1\n      dup4\n      0xff\n      and\n      mul\n      or\n      swap1\n      sstore\n      pop\n        /* \"contracts/BaseContract.sol\":11708:11721  kursAdresleri */\n      0x0f\n        /* \"contracts/BaseContract.sol\":11727:11737  _kursAdres */\n      dup4\n        /* \"contracts/BaseContract.sol\":11708:11738  kursAdresleri.push(_kursAdres) */\n      swap1\n      dup1\n      0x01\n      dup2\n      sload\n      add\n      dup1\n      dup3\n      sstore\n      dup1\n      swap2\n      pop\n      pop\n      0x01\n      swap1\n      sub\n      swap1\n      0x00\n      mstore\n      keccak256(0x00, 0x20)\n      add\n      0x00\n      swap1\n      swap2\n      swap1\n      swap2\n      swap1\n      swap2\n      0x0100\n      exp\n      dup2\n      sload\n      dup2\n      0xffffffffffffffffffffffffffffffffffffffff\n      mul\n      not\n      and\n      swap1\n      dup4\n      0xffffffffffffffffffffffffffffffffffffffff\n      and\n      mul\n      or\n      swap1\n      sstore\n      pop\n        /* \"contracts/BaseContract.sol\":11391:11748  function ekleKurs(address _kursAdres, string memory _isim, uint8 _ulke)\r... */\n      pop\n      pop\n      pop\n      jump\t// out\n        /* \"contracts/BaseContract.sol\":11162:11383  function silKamuKurumu(address _kamuKurumuAdres)\r... */\n    tag_140:\n        /* \"contracts/BaseContract.sol\":11242:11272  isKamuKurumu(_kamuKurumuAdres) */\n      tag_349\n        /* \"contracts/BaseContract.sol\":11255:11271  _kamuKurumuAdres */\n      dup2\n        /* \"contracts/BaseContract.sol\":11242:11254  isKamuKurumu */\n      tag_143\n        /* \"contracts/BaseContract.sol\":11242:11272  isKamuKurumu(_kamuKurumuAdres) */\n      jump\t// in\n    tag_349:\n        /* \"contracts/BaseContract.sol\":11234:11324  require(isKamuKurumu(_kamuKurumuAdres),\r... */\n      tag_350\n      jumpi\n      mload(0x40)\n      0x08c379a000000000000000000000000000000000000000000000000000000000\n      dup2\n      mstore\n      0x04\n      add\n      tag_351\n      swap1\n      tag_300\n      jump\t// in\n    tag_351:\n      mload(0x40)\n      dup1\n      swap2\n      sub\n      swap1\n      revert\n    tag_350:\n        /* \"contracts/BaseContract.sol\":11344:11357  kamuKurumlari */\n      0x08\n        /* \"contracts/BaseContract.sol\":11344:11375  kamuKurumlari[_kamuKurumuAdres] */\n      0x00\n        /* \"contracts/BaseContract.sol\":11358:11374  _kamuKurumuAdres */\n      dup3\n        /* \"contracts/BaseContract.sol\":11344:11375  kamuKurumlari[_kamuKurumuAdres] */\n      0xffffffffffffffffffffffffffffffffffffffff\n      and\n      0xffffffffffffffffffffffffffffffffffffffff\n      and\n      dup2\n      mstore\n      0x20\n      add\n      swap1\n      dup2\n      mstore\n      0x20\n      add\n      0x00\n      keccak256\n      0x00\n        /* \"contracts/BaseContract.sol\":11337:11375  delete kamuKurumlari[_kamuKurumuAdres] */\n      dup1\n      dup3\n      add\n      exp(0x0100, 0x00)\n      dup2\n      sload\n      swap1\n      0xff\n      mul\n      not\n      and\n      swap1\n      sstore\n      0x01\n      dup3\n      add\n      0x00\n      tag_352\n      swap2\n      swap1\n      tag_321\n      jump\t// in\n    tag_352:\n      0x02\n      dup3\n      add\n      exp(0x0100, 0x00)\n      dup2\n      sload\n      swap1\n      0xff\n      mul\n      not\n      and\n      swap1\n      sstore\n      pop\n      pop\n        /* \"contracts/BaseContract.sol\":11162:11383  function silKamuKurumu(address _kamuKurumuAdres)\r... */\n      pop\n      jump\t// out\n        /* \"contracts/BaseContract.sol\":4192:4313  function isKamuKurumu(address _address) public view returns (bool){\r... */\n    tag_143:\n        /* \"contracts/BaseContract.sol\":4253:4257  bool */\n      0x00\n        /* \"contracts/BaseContract.sol\":4276:4289  kamuKurumlari */\n      0x08\n        /* \"contracts/BaseContract.sol\":4276:4299  kamuKurumlari[_address] */\n      0x00\n        /* \"contracts/BaseContract.sol\":4290:4298  _address */\n      dup4\n        /* \"contracts/BaseContract.sol\":4276:4299  kamuKurumlari[_address] */\n      0xffffffffffffffffffffffffffffffffffffffff\n      and\n      0xffffffffffffffffffffffffffffffffffffffff\n      and\n      dup2\n      mstore\n      0x20\n      add\n      swap1\n      dup2\n      mstore\n      0x20\n      add\n      0x00\n      keccak256\n        /* \"contracts/BaseContract.sol\":4276:4305  kamuKurumlari[_address].durum */\n      0x00\n      add\n      0x00\n      swap1\n      sload\n      swap1\n      0x0100\n      exp\n      swap1\n      div\n      0xff\n      and\n        /* \"contracts/BaseContract.sol\":4269:4305  return kamuKurumlari[_address].durum */\n      swap1\n      pop\n        /* \"contracts/BaseContract.sol\":4192:4313  function isKamuKurumu(address _address) public view returns (bool){\r... */\n      swap2\n      swap1\n      pop\n      jump\t// out\n        /* \"contracts/BaseContract.sol\":13966:14187  function silSertifikaMerkezi(address _smAdres)\r... */\n    tag_147:\n        /* \"contracts/BaseContract.sol\":14044:14072  isSertifikaMerkezi(_smAdres) */\n      tag_355\n        /* \"contracts/BaseContract.sol\":14063:14071  _smAdres */\n      dup2\n        /* \"contracts/BaseContract.sol\":14044:14062  isSertifikaMerkezi */\n      tag_250\n        /* \"contracts/BaseContract.sol\":14044:14072  isSertifikaMerkezi(_smAdres) */\n      jump\t// in\n    tag_355:\n        /* \"contracts/BaseContract.sol\":14036:14130  require(isSertifikaMerkezi(_smAdres),\r... */\n      tag_356\n      jumpi\n      mload(0x40)\n      0x08c379a000000000000000000000000000000000000000000000000000000000\n      dup2\n      mstore\n      0x04\n      add\n      tag_357\n      swap1\n      tag_358\n      jump\t// in\n    tag_357:\n      mload(0x40)\n      dup1\n      swap2\n      sub\n      swap1\n      revert\n    tag_356:\n        /* \"contracts/BaseContract.sol\":14148:14167  sertifikaMerkezleri */\n      0x0a\n        /* \"contracts/BaseContract.sol\":14148:14177  sertifikaMerkezleri[_smAdres] */\n      0x00\n        /* \"contracts/BaseContract.sol\":14168:14176  _smAdres */\n      dup3\n        /* \"contracts/BaseContract.sol\":14148:14177  sertifikaMerkezleri[_smAdres] */\n      0xffffffffffffffffffffffffffffffffffffffff\n      and\n      0xffffffffffffffffffffffffffffffffffffffff\n      and\n      dup2\n      mstore\n      0x20\n      add\n      swap1\n      dup2\n      mstore\n      0x20\n      add\n      0x00\n      keccak256\n      0x00\n        /* \"contracts/BaseContract.sol\":14141:14177  delete sertifikaMerkezleri[_smAdres] */\n      dup1\n      dup3\n      add\n      exp(0x0100, 0x00)\n      dup2\n      sload\n      swap1\n      0xff\n      mul\n      not\n      and\n      swap1\n      sstore\n      0x01\n      dup3\n      add\n      0x00\n      tag_359\n      swap2\n      swap1\n      tag_321\n      jump\t// in\n    tag_359:\n      0x02\n      dup3\n      add\n      exp(0x0100, 0x00)\n      dup2\n      sload\n      swap1\n      0xff\n      mul\n      not\n      and\n      swap1\n      sstore\n      pop\n      pop\n        /* \"contracts/BaseContract.sol\":13966:14187  function silSertifikaMerkezi(address _smAdres)\r... */\n      pop\n      jump\t// out\n        /* \"contracts/BaseContract.sol\":101:119  address public YOK */\n    tag_149:\n      0x00\n      dup1\n      sload\n      swap1\n      0x0100\n      exp\n      swap1\n      div\n      0xffffffffffffffffffffffffffffffffffffffff\n      and\n      dup2\n      jump\t// out\n        /* \"contracts/BaseContract.sol\":5073:5124  mapping(address => KamuKurumu) public kamuKurumlari */\n    tag_153:\n      mstore(0x20, 0x08)\n      dup1\n      0x00\n      mstore\n      keccak256(0x00, 0x40)\n      0x00\n      swap2\n      pop\n      swap1\n      pop\n      dup1\n      0x00\n      add\n      0x00\n      swap1\n      sload\n      swap1\n      0x0100\n      exp\n      swap1\n      div\n      0xff\n      and\n      swap1\n      dup1\n      0x01\n      add\n      dup1\n      sload\n      tag_360\n      swap1\n      tag_310\n      jump\t// in\n    tag_360:\n      dup1\n      0x1f\n      add\n      0x20\n      dup1\n      swap2\n      div\n      mul\n      0x20\n      add\n      mload(0x40)\n      swap1\n      dup2\n      add\n      0x40\n      mstore\n      dup1\n      swap3\n      swap2\n      swap1\n      dup2\n      dup2\n      mstore\n      0x20\n      add\n      dup3\n      dup1\n      sload\n      tag_361\n      swap1\n      tag_310\n      jump\t// in\n    tag_361:\n      dup1\n      iszero\n      tag_362\n      jumpi\n      dup1\n      0x1f\n      lt\n      tag_363\n      jumpi\n      0x0100\n      dup1\n      dup4\n      sload\n      div\n      mul\n      dup4\n      mstore\n      swap2\n      0x20\n      add\n      swap2\n      jump(tag_362)\n    tag_363:\n      dup3\n      add\n      swap2\n      swap1\n      0x00\n      mstore\n      keccak256(0x00, 0x20)\n      swap1\n    tag_364:\n      dup2\n      sload\n      dup2\n      mstore\n      swap1\n      0x01\n      add\n      swap1\n      0x20\n      add\n      dup1\n      dup4\n      gt\n      tag_364\n      jumpi\n      dup3\n      swap1\n      sub\n      0x1f\n      and\n      dup3\n      add\n      swap2\n    tag_362:\n      pop\n      pop\n      pop\n      pop\n      pop\n      swap1\n      dup1\n      0x02\n      add\n      0x00\n      swap1\n      sload\n      swap1\n      0x0100\n      exp\n      swap1\n      div\n      0xff\n      and\n      swap1\n      pop\n      dup4\n      jump\t// out\n        /* \"contracts/BaseContract.sol\":6615:6975  function getUniversiteListesi() public view returns(Universite[] memory){\r... */\n    tag_156:\n        /* \"contracts/BaseContract.sol\":6667:6686  Universite[] memory */\n      0x60\n        /* \"contracts/BaseContract.sol\":6706:6733  Universite [] memory result */\n      0x00\n        /* \"contracts/BaseContract.sol\":6753:6772  universiteAdresleri */\n      0x0d\n        /* \"contracts/BaseContract.sol\":6753:6779  universiteAdresleri.length */\n      dup1\n      sload\n      swap1\n      pop\n        /* \"contracts/BaseContract.sol\":6736:6780  new Universite[](universiteAdresleri.length) */\n      0xffffffffffffffff\n      dup2\n      gt\n      iszero\n      tag_366\n      jumpi\n      tag_367\n      tag_368\n      jump\t// in\n    tag_367:\n    tag_366:\n      mload(0x40)\n      swap1\n      dup1\n      dup3\n      mstore\n      dup1\n      0x20\n      mul\n      0x20\n      add\n      dup3\n      add\n      0x40\n      mstore\n      dup1\n      iszero\n      tag_369\n      jumpi\n      dup2\n      0x20\n      add\n    tag_370:\n      tag_371\n      tag_372\n      jump\t// in\n    tag_371:\n      dup2\n      mstore\n      0x20\n      add\n      swap1\n      0x01\n      swap1\n      sub\n      swap1\n      dup2\n      tag_370\n      jumpi\n      swap1\n      pop\n    tag_369:\n      pop\n        /* \"contracts/BaseContract.sol\":6706:6780  Universite [] memory result = new Universite[](universiteAdresleri.length) */\n      swap1\n      pop\n        /* \"contracts/BaseContract.sol\":6791:6801  uint index */\n      0x00\n        /* \"contracts/BaseContract.sol\":6818:6824  uint i */\n      dup1\n        /* \"contracts/BaseContract.sol\":6814:6944  for(uint i = 0; i< universiteAdresleri.length; i++){\r... */\n    tag_373:\n        /* \"contracts/BaseContract.sol\":6833:6852  universiteAdresleri */\n      0x0d\n        /* \"contracts/BaseContract.sol\":6833:6859  universiteAdresleri.length */\n      dup1\n      sload\n      swap1\n      pop\n        /* \"contracts/BaseContract.sol\":6830:6831  i */\n      dup2\n        /* \"contracts/BaseContract.sol\":6830:6859  i< universiteAdresleri.length */\n      lt\n        /* \"contracts/BaseContract.sol\":6814:6944  for(uint i = 0; i< universiteAdresleri.length; i++){\r... */\n      iszero\n      tag_374\n      jumpi\n        /* \"contracts/BaseContract.sol\":6895:6908  universiteler */\n      0x04\n        /* \"contracts/BaseContract.sol\":6895:6932  universiteler[universiteAdresleri[i]] */\n      0x00\n        /* \"contracts/BaseContract.sol\":6909:6928  universiteAdresleri */\n      0x0d\n        /* \"contracts/BaseContract.sol\":6929:6930  i */\n      dup4\n        /* \"contracts/BaseContract.sol\":6909:6931  universiteAdresleri[i] */\n      dup2\n      sload\n      dup2\n      lt\n      tag_376\n      jumpi\n      tag_377\n      tag_378\n      jump\t// in\n    tag_377:\n    tag_376:\n      swap1\n      0x00\n      mstore\n      keccak256(0x00, 0x20)\n      add\n      0x00\n      swap1\n      sload\n      swap1\n      0x0100\n      exp\n      swap1\n      div\n      0xffffffffffffffffffffffffffffffffffffffff\n      and\n        /* \"contracts/BaseContract.sol\":6895:6932  universiteler[universiteAdresleri[i]] */\n      0xffffffffffffffffffffffffffffffffffffffff\n      and\n      0xffffffffffffffffffffffffffffffffffffffff\n      and\n      dup2\n      mstore\n      0x20\n      add\n      swap1\n      dup2\n      mstore\n      0x20\n      add\n      0x00\n      keccak256\n        /* \"contracts/BaseContract.sol\":6879:6932  result[index++]=universiteler[universiteAdresleri[i]] */\n      mload(0x40)\n      dup1\n      0x60\n      add\n      0x40\n      mstore\n      swap1\n      dup2\n      0x00\n      dup3\n      add\n      0x00\n      swap1\n      sload\n      swap1\n      0x0100\n      exp\n      swap1\n      div\n      0xff\n      and\n      iszero\n      iszero\n      iszero\n      iszero\n      dup2\n      mstore\n      0x20\n      add\n      0x01\n      dup3\n      add\n      dup1\n      sload\n      tag_380\n      swap1\n      tag_310\n      jump\t// in\n    tag_380:\n      dup1\n      0x1f\n      add\n      0x20\n      dup1\n      swap2\n      div\n      mul\n      0x20\n      add\n      mload(0x40)\n      swap1\n      dup2\n      add\n      0x40\n      mstore\n      dup1\n      swap3\n      swap2\n      swap1\n      dup2\n      dup2\n      mstore\n      0x20\n      add\n      dup3\n      dup1\n      sload\n      tag_381\n      swap1\n      tag_310\n      jump\t// in\n    tag_381:\n      dup1\n      iszero\n      tag_382\n      jumpi\n      dup1\n      0x1f\n      lt\n      tag_383\n      jumpi\n      0x0100\n      dup1\n      dup4\n      sload\n      div\n      mul\n      dup4\n      mstore\n      swap2\n      0x20\n      add\n      swap2\n      jump(tag_382)\n    tag_383:\n      dup3\n      add\n      swap2\n      swap1\n      0x00\n      mstore\n      keccak256(0x00, 0x20)\n      swap1\n    tag_384:\n      dup2\n      sload\n      dup2\n      mstore\n      swap1\n      0x01\n      add\n      swap1\n      0x20\n      add\n      dup1\n      dup4\n      gt\n      tag_384\n      jumpi\n      dup3\n      swap1\n      sub\n      0x1f\n      and\n      dup3\n      add\n      swap2\n    tag_382:\n      pop\n      pop\n      pop\n      pop\n      pop\n      dup2\n      mstore\n      0x20\n      add\n      0x02\n      dup3\n      add\n      0x00\n      swap1\n      sload\n      swap1\n      0x0100\n      exp\n      swap1\n      div\n      0xff\n      and\n      0xff\n      and\n      0xff\n      and\n      dup2\n      mstore\n      pop\n      pop\n        /* \"contracts/BaseContract.sol\":6879:6885  result */\n      dup4\n        /* \"contracts/BaseContract.sol\":6886:6893  index++ */\n      dup4\n      dup1\n      tag_385\n      swap1\n      tag_386\n      jump\t// in\n    tag_385:\n      swap5\n      pop\n        /* \"contracts/BaseContract.sol\":6879:6894  result[index++] */\n      dup2\n      mload\n      dup2\n      lt\n      tag_387\n      jumpi\n      tag_388\n      tag_378\n      jump\t// in\n    tag_388:\n    tag_387:\n      0x20\n      mul\n      0x20\n      add\n      add\n        /* \"contracts/BaseContract.sol\":6879:6932  result[index++]=universiteler[universiteAdresleri[i]] */\n      dup2\n      swap1\n      mstore\n      pop\n        /* \"contracts/BaseContract.sol\":6861:6864  i++ */\n      dup1\n      dup1\n      tag_389\n      swap1\n      tag_386\n      jump\t// in\n    tag_389:\n      swap2\n      pop\n      pop\n        /* \"contracts/BaseContract.sol\":6814:6944  for(uint i = 0; i< universiteAdresleri.length; i++){\r... */\n      jump(tag_373)\n    tag_374:\n      pop\n        /* \"contracts/BaseContract.sol\":6961:6967  result */\n      dup2\n        /* \"contracts/BaseContract.sol\":6954:6967  return result */\n      swap3\n      pop\n      pop\n      pop\n        /* \"contracts/BaseContract.sol\":6615:6975  function getUniversiteListesi() public view returns(Universite[] memory){\r... */\n      swap1\n      jump\t// out\n        /* \"contracts/BaseContract.sol\":4557:4664  function isSTK(address _address) public view returns (bool){\r... */\n    tag_161:\n        /* \"contracts/BaseContract.sol\":4611:4615  bool */\n      0x00\n        /* \"contracts/BaseContract.sol\":4634:4640  stklar */\n      0x09\n        /* \"contracts/BaseContract.sol\":4634:4650  stklar[_address] */\n      0x00\n        /* \"contracts/BaseContract.sol\":4641:4649  _address */\n      dup4\n        /* \"contracts/BaseContract.sol\":4634:4650  stklar[_address] */\n      0xffffffffffffffffffffffffffffffffffffffff\n      and\n      0xffffffffffffffffffffffffffffffffffffffff\n      and\n      dup2\n      mstore\n      0x20\n      add\n      swap1\n      dup2\n      mstore\n      0x20\n      add\n      0x00\n      keccak256\n        /* \"contracts/BaseContract.sol\":4634:4656  stklar[_address].durum */\n      0x00\n      add\n      0x00\n      swap1\n      sload\n      swap1\n      0x0100\n      exp\n      swap1\n      div\n      0xff\n      and\n        /* \"contracts/BaseContract.sol\":4627:4656  return stklar[_address].durum */\n      swap1\n      pop\n        /* \"contracts/BaseContract.sol\":4557:4664  function isSTK(address _address) public view returns (bool){\r... */\n      swap2\n      swap1\n      pop\n      jump\t// out\n        /* \"contracts/BaseContract.sol\":12645:12963  function guncelleSTK(address _stkAdres, string memory _isim, uint8 _ulke)\r... */\n    tag_165:\n        /* \"contracts/BaseContract.sol\":12750:12766  isSTK(_stkAdres) */\n      tag_392\n        /* \"contracts/BaseContract.sol\":12756:12765  _stkAdres */\n      dup4\n        /* \"contracts/BaseContract.sol\":12750:12755  isSTK */\n      tag_161\n        /* \"contracts/BaseContract.sol\":12750:12766  isSTK(_stkAdres) */\n      jump\t// in\n    tag_392:\n        /* \"contracts/BaseContract.sol\":12742:12828  require(isSTK(_stkAdres),\r... */\n      tag_393\n      jumpi\n      mload(0x40)\n      0x08c379a000000000000000000000000000000000000000000000000000000000\n      dup2\n      mstore\n      0x04\n      add\n      tag_394\n      swap1\n      tag_395\n      jump\t// in\n    tag_394:\n      mload(0x40)\n      dup1\n      swap2\n      sub\n      swap1\n      revert\n    tag_393:\n        /* \"contracts/BaseContract.sol\":12867:12871  true */\n      0x01\n        /* \"contracts/BaseContract.sol\":12841:12847  stklar */\n      0x09\n        /* \"contracts/BaseContract.sol\":12841:12858  stklar[_stkAdres] */\n      0x00\n        /* \"contracts/BaseContract.sol\":12848:12857  _stkAdres */\n      dup6\n        /* \"contracts/BaseContract.sol\":12841:12858  stklar[_stkAdres] */\n      0xffffffffffffffffffffffffffffffffffffffff\n      and\n      0xffffffffffffffffffffffffffffffffffffffff\n      and\n      dup2\n      mstore\n      0x20\n      add\n      swap1\n      dup2\n      mstore\n      0x20\n      add\n      0x00\n      keccak256\n        /* \"contracts/BaseContract.sol\":12841:12864  stklar[_stkAdres].durum */\n      0x00\n      add\n      0x00\n        /* \"contracts/BaseContract.sol\":12841:12871  stklar[_stkAdres].durum = true */\n      0x0100\n      exp\n      dup2\n      sload\n      dup2\n      0xff\n      mul\n      not\n      and\n      swap1\n      dup4\n      iszero\n      iszero\n      mul\n      or\n      swap1\n      sstore\n      pop\n        /* \"contracts/BaseContract.sol\":12907:12912  _isim */\n      dup2\n        /* \"contracts/BaseContract.sol\":12882:12888  stklar */\n      0x09\n        /* \"contracts/BaseContract.sol\":12882:12899  stklar[_stkAdres] */\n      0x00\n        /* \"contracts/BaseContract.sol\":12889:12898  _stkAdres */\n      dup6\n        /* \"contracts/BaseContract.sol\":12882:12899  stklar[_stkAdres] */\n      0xffffffffffffffffffffffffffffffffffffffff\n      and\n      0xffffffffffffffffffffffffffffffffffffffff\n      and\n      dup2\n      mstore\n      0x20\n      add\n      swap1\n      dup2\n      mstore\n      0x20\n      add\n      0x00\n      keccak256\n        /* \"contracts/BaseContract.sol\":12882:12904  stklar[_stkAdres].isim */\n      0x01\n      add\n        /* \"contracts/BaseContract.sol\":12882:12912  stklar[_stkAdres].isim = _isim */\n      swap1\n      dup1\n      mload\n      swap1\n      0x20\n      add\n      swap1\n      tag_396\n      swap3\n      swap2\n      swap1\n      tag_288\n      jump\t// in\n    tag_396:\n      pop\n        /* \"contracts/BaseContract.sol\":12948:12953  _ulke */\n      dup1\n        /* \"contracts/BaseContract.sol\":12923:12929  stklar */\n      0x09\n        /* \"contracts/BaseContract.sol\":12923:12940  stklar[_stkAdres] */\n      0x00\n        /* \"contracts/BaseContract.sol\":12930:12939  _stkAdres */\n      dup6\n        /* \"contracts/BaseContract.sol\":12923:12940  stklar[_stkAdres] */\n      0xffffffffffffffffffffffffffffffffffffffff\n      and\n      0xffffffffffffffffffffffffffffffffffffffff\n      and\n      dup2\n      mstore\n      0x20\n      add\n      swap1\n      dup2\n      mstore\n      0x20\n      add\n      0x00\n      keccak256\n        /* \"contracts/BaseContract.sol\":12923:12945  stklar[_stkAdres].ulke */\n      0x02\n      add\n      0x00\n        /* \"contracts/BaseContract.sol\":12923:12953  stklar[_stkAdres].ulke = _ulke */\n      0x0100\n      exp\n      dup2\n      sload\n      dup2\n      0xff\n      mul\n      not\n      and\n      swap1\n      dup4\n      0xff\n      and\n      mul\n      or\n      swap1\n      sstore\n      pop\n        /* \"contracts/BaseContract.sol\":12645:12963  function guncelleSTK(address _stkAdres, string memory _isim, uint8 _ulke)\r... */\n      pop\n      pop\n      pop\n      jump\t// out\n        /* \"contracts/BaseContract.sol\":5131:5168  mapping(address => STK) public stklar */\n    tag_168:\n      mstore(0x20, 0x09)\n      dup1\n      0x00\n      mstore\n      keccak256(0x00, 0x40)\n      0x00\n      swap2\n      pop\n      swap1\n      pop\n      dup1\n      0x00\n      add\n      0x00\n      swap1\n      sload\n      swap1\n      0x0100\n      exp\n      swap1\n      div\n      0xff\n      and\n      swap1\n      dup1\n      0x01\n      add\n      dup1\n      sload\n      tag_397\n      swap1\n      tag_310\n      jump\t// in\n    tag_397:\n      dup1\n      0x1f\n      add\n      0x20\n      dup1\n      swap2\n      div\n      mul\n      0x20\n      add\n      mload(0x40)\n      swap1\n      dup2\n      add\n      0x40\n      mstore\n      dup1\n      swap3\n      swap2\n      swap1\n      dup2\n      dup2\n      mstore\n      0x20\n      add\n      dup3\n      dup1\n      sload\n      tag_398\n      swap1\n      tag_310\n      jump\t// in\n    tag_398:\n      dup1\n      iszero\n      tag_399\n      jumpi\n      dup1\n      0x1f\n      lt\n      tag_400\n      jumpi\n      0x0100\n      dup1\n      dup4\n      sload\n      div\n      mul\n      dup4\n      mstore\n      swap2\n      0x20\n      add\n      swap2\n      jump(tag_399)\n    tag_400:\n      dup3\n      add\n      swap2\n      swap1\n      0x00\n      mstore\n      keccak256(0x00, 0x20)\n      swap1\n    tag_401:\n      dup2\n      sload\n      dup2\n      mstore\n      swap1\n      0x01\n      add\n      swap1\n      0x20\n      add\n      dup1\n      dup4\n      gt\n      tag_401\n      jumpi\n      dup3\n      swap1\n      sub\n      0x1f\n      and\n      dup3\n      add\n      swap2\n    tag_399:\n      pop\n      pop\n      pop\n      pop\n      pop\n      swap1\n      dup1\n      0x02\n      add\n      0x00\n      swap1\n      sload\n      swap1\n      0x0100\n      exp\n      swap1\n      div\n      0xff\n      and\n      swap1\n      pop\n      dup4\n      jump\t// out\n        /* \"contracts/BaseContract.sol\":6387:6606  function silUniversite(address _universiteAdres) public {\r... */\n    tag_172:\n        /* \"contracts/BaseContract.sol\":6462:6492  isUniversite(_universiteAdres) */\n      tag_403\n        /* \"contracts/BaseContract.sol\":6475:6491  _universiteAdres */\n      dup2\n        /* \"contracts/BaseContract.sol\":6462:6474  isUniversite */\n      tag_262\n        /* \"contracts/BaseContract.sol\":6462:6492  isUniversite(_universiteAdres) */\n      jump\t// in\n    tag_403:\n        /* \"contracts/BaseContract.sol\":6454:6543  require(isUniversite(_universiteAdres),\r... */\n      tag_404\n      jumpi\n      mload(0x40)\n      0x08c379a000000000000000000000000000000000000000000000000000000000\n      dup2\n      mstore\n      0x04\n      add\n      tag_405\n      swap1\n      tag_286\n      jump\t// in\n    tag_405:\n      mload(0x40)\n      dup1\n      swap2\n      sub\n      swap1\n      revert\n    tag_404:\n        /* \"contracts/BaseContract.sol\":6563:6576  universiteler */\n      0x04\n        /* \"contracts/BaseContract.sol\":6563:6594  universiteler[_universiteAdres] */\n      0x00\n        /* \"contracts/BaseContract.sol\":6577:6593  _universiteAdres */\n      dup3\n        /* \"contracts/BaseContract.sol\":6563:6594  universiteler[_universiteAdres] */\n      0xffffffffffffffffffffffffffffffffffffffff\n      and\n      0xffffffffffffffffffffffffffffffffffffffff\n      and\n      dup2\n      mstore\n      0x20\n      add\n      swap1\n      dup2\n      mstore\n      0x20\n      add\n      0x00\n      keccak256\n      0x00\n        /* \"contracts/BaseContract.sol\":6556:6594  delete universiteler[_universiteAdres] */\n      dup1\n      dup3\n      add\n      exp(0x0100, 0x00)\n      dup2\n      sload\n      swap1\n      0xff\n      mul\n      not\n      and\n      swap1\n      sstore\n      0x01\n      dup3\n      add\n      0x00\n      tag_406\n      swap2\n      swap1\n      tag_321\n      jump\t// in\n    tag_406:\n      0x02\n      dup3\n      add\n      exp(0x0100, 0x00)\n      dup2\n      sload\n      swap1\n      0xff\n      mul\n      not\n      and\n      swap1\n      sstore\n      pop\n      pop\n        /* \"contracts/BaseContract.sol\":6387:6606  function silUniversite(address _universiteAdres) public {\r... */\n      pop\n      jump\t// out\n        /* \"contracts/BaseContract.sol\":13168:13576  function ekleSertifikaMerkezi(address _smAdres, string memory _isim, uint8 _ulke)\r... */\n    tag_175:\n        /* \"contracts/BaseContract.sol\":13282:13310  isSertifikaMerkezi(_smAdres) */\n      tag_408\n        /* \"contracts/BaseContract.sol\":13301:13309  _smAdres */\n      dup4\n        /* \"contracts/BaseContract.sol\":13282:13300  isSertifikaMerkezi */\n      tag_250\n        /* \"contracts/BaseContract.sol\":13282:13310  isSertifikaMerkezi(_smAdres) */\n      jump\t// in\n    tag_408:\n        /* \"contracts/BaseContract.sol\":13281:13310  !isSertifikaMerkezi(_smAdres) */\n      iszero\n        /* \"contracts/BaseContract.sol\":13273:13368  require(!isSertifikaMerkezi(_smAdres),\r... */\n      tag_409\n      jumpi\n      mload(0x40)\n      0x08c379a000000000000000000000000000000000000000000000000000000000\n      dup2\n      mstore\n      0x04\n      add\n      tag_410\n      swap1\n      tag_411\n      jump\t// in\n    tag_410:\n      mload(0x40)\n      dup1\n      swap2\n      sub\n      swap1\n      revert\n    tag_409:\n        /* \"contracts/BaseContract.sol\":13421:13425  true */\n      0x01\n        /* \"contracts/BaseContract.sol\":13383:13402  sertifikaMerkezleri */\n      0x0a\n        /* \"contracts/BaseContract.sol\":13383:13412  sertifikaMerkezleri[_smAdres] */\n      0x00\n        /* \"contracts/BaseContract.sol\":13403:13411  _smAdres */\n      dup6\n        /* \"contracts/BaseContract.sol\":13383:13412  sertifikaMerkezleri[_smAdres] */\n      0xffffffffffffffffffffffffffffffffffffffff\n      and\n      0xffffffffffffffffffffffffffffffffffffffff\n      and\n      dup2\n      mstore\n      0x20\n      add\n      swap1\n      dup2\n      mstore\n      0x20\n      add\n      0x00\n      keccak256\n        /* \"contracts/BaseContract.sol\":13383:13418  sertifikaMerkezleri[_smAdres].durum */\n      0x00\n      add\n      0x00\n        /* \"contracts/BaseContract.sol\":13383:13425  sertifikaMerkezleri[_smAdres].durum = true */\n      0x0100\n      exp\n      dup2\n      sload\n      dup2\n      0xff\n      mul\n      not\n      and\n      swap1\n      dup4\n      iszero\n      iszero\n      mul\n      or\n      swap1\n      sstore\n      pop\n        /* \"contracts/BaseContract.sol\":13473:13478  _isim */\n      dup2\n        /* \"contracts/BaseContract.sol\":13436:13455  sertifikaMerkezleri */\n      0x0a\n        /* \"contracts/BaseContract.sol\":13436:13465  sertifikaMerkezleri[_smAdres] */\n      0x00\n        /* \"contracts/BaseContract.sol\":13456:13464  _smAdres */\n      dup6\n        /* \"contracts/BaseContract.sol\":13436:13465  sertifikaMerkezleri[_smAdres] */\n      0xffffffffffffffffffffffffffffffffffffffff\n      and\n      0xffffffffffffffffffffffffffffffffffffffff\n      and\n      dup2\n      mstore\n      0x20\n      add\n      swap1\n      dup2\n      mstore\n      0x20\n      add\n      0x00\n      keccak256\n        /* \"contracts/BaseContract.sol\":13436:13470  sertifikaMerkezleri[_smAdres].isim */\n      0x01\n      add\n        /* \"contracts/BaseContract.sol\":13436:13478  sertifikaMerkezleri[_smAdres].isim = _isim */\n      swap1\n      dup1\n      mload\n      swap1\n      0x20\n      add\n      swap1\n      tag_412\n      swap3\n      swap2\n      swap1\n      tag_288\n      jump\t// in\n    tag_412:\n      pop\n        /* \"contracts/BaseContract.sol\":13526:13531  _ulke */\n      dup1\n        /* \"contracts/BaseContract.sol\":13489:13508  sertifikaMerkezleri */\n      0x0a\n        /* \"contracts/BaseContract.sol\":13489:13518  sertifikaMerkezleri[_smAdres] */\n      0x00\n        /* \"contracts/BaseContract.sol\":13509:13517  _smAdres */\n      dup6\n        /* \"contracts/BaseContract.sol\":13489:13518  sertifikaMerkezleri[_smAdres] */\n      0xffffffffffffffffffffffffffffffffffffffff\n      and\n      0xffffffffffffffffffffffffffffffffffffffff\n      and\n      dup2\n      mstore\n      0x20\n      add\n      swap1\n      dup2\n      mstore\n      0x20\n      add\n      0x00\n      keccak256\n        /* \"contracts/BaseContract.sol\":13489:13523  sertifikaMerkezleri[_smAdres].ulke */\n      0x02\n      add\n      0x00\n        /* \"contracts/BaseContract.sol\":13489:13531  sertifikaMerkezleri[_smAdres].ulke = _ulke */\n      0x0100\n      exp\n      dup2\n      sload\n      dup2\n      0xff\n      mul\n      not\n      and\n      swap1\n      dup4\n      0xff\n      and\n      mul\n      or\n      swap1\n      sstore\n      pop\n        /* \"contracts/BaseContract.sol\":13542:13553  smAdresleri */\n      0x12\n        /* \"contracts/BaseContract.sol\":13559:13567  _smAdres */\n      dup4\n        /* \"contracts/BaseContract.sol\":13542:13568  smAdresleri.push(_smAdres) */\n      swap1\n      dup1\n      0x01\n      dup2\n      sload\n      add\n      dup1\n      dup3\n      sstore\n      dup1\n      swap2\n      pop\n      pop\n      0x01\n      swap1\n      sub\n      swap1\n      0x00\n      mstore\n      keccak256(0x00, 0x20)\n      add\n      0x00\n      swap1\n      swap2\n      swap1\n      swap2\n      swap1\n      swap2\n      0x0100\n      exp\n      dup2\n      sload\n      dup2\n      0xffffffffffffffffffffffffffffffffffffffff\n      mul\n      not\n      and\n      swap1\n      dup4\n      0xffffffffffffffffffffffffffffffffffffffff\n      and\n      mul\n      or\n      swap1\n      sstore\n      pop\n        /* \"contracts/BaseContract.sol\":13168:13576  function ekleSertifikaMerkezi(address _smAdres, string memory _isim, uint8 _ulke)\r... */\n      pop\n      pop\n      pop\n      jump\t// out\n        /* \"contracts/BaseContract.sol\":7687:7991  function getStkListesi() public view returns(STK[] memory){\r... */\n    tag_177:\n        /* \"contracts/BaseContract.sol\":7732:7744  STK[] memory */\n      0x60\n        /* \"contracts/BaseContract.sol\":7764:7784  STK [] memory result */\n      0x00\n        /* \"contracts/BaseContract.sol\":7797:7809  stkAdresleri */\n      0x11\n        /* \"contracts/BaseContract.sol\":7797:7816  stkAdresleri.length */\n      dup1\n      sload\n      swap1\n      pop\n        /* \"contracts/BaseContract.sol\":7787:7817  new STK[](stkAdresleri.length) */\n      0xffffffffffffffff\n      dup2\n      gt\n      iszero\n      tag_415\n      jumpi\n      tag_416\n      tag_368\n      jump\t// in\n    tag_416:\n    tag_415:\n      mload(0x40)\n      swap1\n      dup1\n      dup3\n      mstore\n      dup1\n      0x20\n      mul\n      0x20\n      add\n      dup3\n      add\n      0x40\n      mstore\n      dup1\n      iszero\n      tag_417\n      jumpi\n      dup2\n      0x20\n      add\n    tag_418:\n      tag_419\n      tag_420\n      jump\t// in\n    tag_419:\n      dup2\n      mstore\n      0x20\n      add\n      swap1\n      0x01\n      swap1\n      sub\n      swap1\n      dup2\n      tag_418\n      jumpi\n      swap1\n      pop\n    tag_417:\n      pop\n        /* \"contracts/BaseContract.sol\":7764:7817  STK [] memory result = new STK[](stkAdresleri.length) */\n      swap1\n      pop\n        /* \"contracts/BaseContract.sol\":7828:7838  uint index */\n      0x00\n        /* \"contracts/BaseContract.sol\":7855:7861  uint i */\n      dup1\n        /* \"contracts/BaseContract.sol\":7851:7960  for(uint i = 0; i< stkAdresleri.length; i++){\r... */\n    tag_421:\n        /* \"contracts/BaseContract.sol\":7870:7882  stkAdresleri */\n      0x11\n        /* \"contracts/BaseContract.sol\":7870:7889  stkAdresleri.length */\n      dup1\n      sload\n      swap1\n      pop\n        /* \"contracts/BaseContract.sol\":7867:7868  i */\n      dup2\n        /* \"contracts/BaseContract.sol\":7867:7889  i< stkAdresleri.length */\n      lt\n        /* \"contracts/BaseContract.sol\":7851:7960  for(uint i = 0; i< stkAdresleri.length; i++){\r... */\n      iszero\n      tag_422\n      jumpi\n        /* \"contracts/BaseContract.sol\":7925:7931  stklar */\n      0x09\n        /* \"contracts/BaseContract.sol\":7925:7948  stklar[stkAdresleri[i]] */\n      0x00\n        /* \"contracts/BaseContract.sol\":7932:7944  stkAdresleri */\n      0x11\n        /* \"contracts/BaseContract.sol\":7945:7946  i */\n      dup4\n        /* \"contracts/BaseContract.sol\":7932:7947  stkAdresleri[i] */\n      dup2\n      sload\n      dup2\n      lt\n      tag_424\n      jumpi\n      tag_425\n      tag_378\n      jump\t// in\n    tag_425:\n    tag_424:\n      swap1\n      0x00\n      mstore\n      keccak256(0x00, 0x20)\n      add\n      0x00\n      swap1\n      sload\n      swap1\n      0x0100\n      exp\n      swap1\n      div\n      0xffffffffffffffffffffffffffffffffffffffff\n      and\n        /* \"contracts/BaseContract.sol\":7925:7948  stklar[stkAdresleri[i]] */\n      0xffffffffffffffffffffffffffffffffffffffff\n      and\n      0xffffffffffffffffffffffffffffffffffffffff\n      and\n      dup2\n      mstore\n      0x20\n      add\n      swap1\n      dup2\n      mstore\n      0x20\n      add\n      0x00\n      keccak256\n        /* \"contracts/BaseContract.sol\":7909:7948  result[index++]=stklar[stkAdresleri[i]] */\n      mload(0x40)\n      dup1\n      0x60\n      add\n      0x40\n      mstore\n      swap1\n      dup2\n      0x00\n      dup3\n      add\n      0x00\n      swap1\n      sload\n      swap1\n      0x0100\n      exp\n      swap1\n      div\n      0xff\n      and\n      iszero\n      iszero\n      iszero\n      iszero\n      dup2\n      mstore\n      0x20\n      add\n      0x01\n      dup3\n      add\n      dup1\n      sload\n      tag_427\n      swap1\n      tag_310\n      jump\t// in\n    tag_427:\n      dup1\n      0x1f\n      add\n      0x20\n      dup1\n      swap2\n      div\n      mul\n      0x20\n      add\n      mload(0x40)\n      swap1\n      dup2\n      add\n      0x40\n      mstore\n      dup1\n      swap3\n      swap2\n      swap1\n      dup2\n      dup2\n      mstore\n      0x20\n      add\n      dup3\n      dup1\n      sload\n      tag_428\n      swap1\n      tag_310\n      jump\t// in\n    tag_428:\n      dup1\n      iszero\n      tag_429\n      jumpi\n      dup1\n      0x1f\n      lt\n      tag_430\n      jumpi\n      0x0100\n      dup1\n      dup4\n      sload\n      div\n      mul\n      dup4\n      mstore\n      swap2\n      0x20\n      add\n      swap2\n      jump(tag_429)\n    tag_430:\n      dup3\n      add\n      swap2\n      swap1\n      0x00\n      mstore\n      keccak256(0x00, 0x20)\n      swap1\n    tag_431:\n      dup2\n      sload\n      dup2\n      mstore\n      swap1\n      0x01\n      add\n      swap1\n      0x20\n      add\n      dup1\n      dup4\n      gt\n      tag_431\n      jumpi\n      dup3\n      swap1\n      sub\n      0x1f\n      and\n      dup3\n      add\n      swap2\n    tag_429:\n      pop\n      pop\n      pop\n      pop\n      pop\n      dup2\n      mstore\n      0x20\n      add\n      0x02\n      dup3\n      add\n      0x00\n      swap1\n      sload\n      swap1\n      0x0100\n      exp\n      swap1\n      div\n      0xff\n      and\n      0xff\n      and\n      0xff\n      and\n      dup2\n      mstore\n      pop\n      pop\n        /* \"contracts/BaseContract.sol\":7909:7915  result */\n      dup4\n        /* \"contracts/BaseContract.sol\":7916:7923  index++ */\n      dup4\n      dup1\n      tag_432\n      swap1\n      tag_386\n      jump\t// in\n    tag_432:\n      swap5\n      pop\n        /* \"contracts/BaseContract.sol\":7909:7924  result[index++] */\n      dup2\n      mload\n      dup2\n      lt\n      tag_433\n      jumpi\n      tag_434\n      tag_378\n      jump\t// in\n    tag_434:\n    tag_433:\n      0x20\n      mul\n      0x20\n      add\n      add\n        /* \"contracts/BaseContract.sol\":7909:7948  result[index++]=stklar[stkAdresleri[i]] */\n      dup2\n      swap1\n      mstore\n      pop\n        /* \"contracts/BaseContract.sol\":7891:7894  i++ */\n      dup1\n      dup1\n      tag_435\n      swap1\n      tag_386\n      jump\t// in\n    tag_435:\n      swap2\n      pop\n      pop\n        /* \"contracts/BaseContract.sol\":7851:7960  for(uint i = 0; i< stkAdresleri.length; i++){\r... */\n      jump(tag_421)\n    tag_422:\n      pop\n        /* \"contracts/BaseContract.sol\":7977:7983  result */\n      dup2\n        /* \"contracts/BaseContract.sol\":7970:7983  return result */\n      swap3\n      pop\n      pop\n      pop\n        /* \"contracts/BaseContract.sol\":7687:7991  function getStkListesi() public view returns(STK[] memory){\r... */\n      swap1\n      jump\t// out\n        /* \"contracts/BaseContract.sol\":5251:5294  mapping(uint32 => YabanciDil) public diller */\n    tag_183:\n      mstore(0x20, 0x0b)\n      dup1\n      0x00\n      mstore\n      keccak256(0x00, 0x40)\n      0x00\n      swap2\n      pop\n      swap1\n      pop\n      dup1\n      0x00\n      add\n      0x00\n      swap1\n      sload\n      swap1\n      0x0100\n      exp\n      swap1\n      div\n      0xffffffff\n      and\n      swap1\n      dup1\n      0x01\n      add\n      dup1\n      sload\n      tag_436\n      swap1\n      tag_310\n      jump\t// in\n    tag_436:\n      dup1\n      0x1f\n      add\n      0x20\n      dup1\n      swap2\n      div\n      mul\n      0x20\n      add\n      mload(0x40)\n      swap1\n      dup2\n      add\n      0x40\n      mstore\n      dup1\n      swap3\n      swap2\n      swap1\n      dup2\n      dup2\n      mstore\n      0x20\n      add\n      dup3\n      dup1\n      sload\n      tag_437\n      swap1\n      tag_310\n      jump\t// in\n    tag_437:\n      dup1\n      iszero\n      tag_438\n      jumpi\n      dup1\n      0x1f\n      lt\n      tag_439\n      jumpi\n      0x0100\n      dup1\n      dup4\n      sload\n      div\n      mul\n      dup4\n      mstore\n      swap2\n      0x20\n      add\n      swap2\n      jump(tag_438)\n    tag_439:\n      dup3\n      add\n      swap2\n      swap1\n      0x00\n      mstore\n      keccak256(0x00, 0x20)\n      swap1\n    tag_440:\n      dup2\n      sload\n      dup2\n      mstore\n      swap1\n      0x01\n      add\n      swap1\n      0x20\n      add\n      dup1\n      dup4\n      gt\n      tag_440\n      jumpi\n      dup3\n      swap1\n      sub\n      0x1f\n      and\n      dup3\n      add\n      swap2\n    tag_438:\n      pop\n      pop\n      pop\n      pop\n      pop\n      swap1\n      pop\n      dup3\n      jump\t// out\n        /* \"contracts/BaseContract.sol\":9748:10138  function guncelleFirma(address _firmaAdres, string memory _isim, uint _vergiNo, uint8 _ulke)\r... */\n    tag_189:\n        /* \"contracts/BaseContract.sol\":9872:9892  isFirma(_firmaAdres) */\n      tag_442\n        /* \"contracts/BaseContract.sol\":9880:9891  _firmaAdres */\n      dup5\n        /* \"contracts/BaseContract.sol\":9872:9879  isFirma */\n      tag_120\n        /* \"contracts/BaseContract.sol\":9872:9892  isFirma(_firmaAdres) */\n      jump\t// in\n    tag_442:\n        /* \"contracts/BaseContract.sol\":9864:9938  require(isFirma(_firmaAdres),\r... */\n      tag_443\n      jumpi\n      mload(0x40)\n      0x08c379a000000000000000000000000000000000000000000000000000000000\n      dup2\n      mstore\n      0x04\n      add\n      tag_444\n      swap1\n      tag_319\n      jump\t// in\n    tag_444:\n      mload(0x40)\n      dup1\n      swap2\n      sub\n      swap1\n      revert\n    tag_443:\n        /* \"contracts/BaseContract.sol\":9981:9985  true */\n      0x01\n        /* \"contracts/BaseContract.sol\":9951:9959  firmalar */\n      0x06\n        /* \"contracts/BaseContract.sol\":9951:9972  firmalar[_firmaAdres] */\n      0x00\n        /* \"contracts/BaseContract.sol\":9960:9971  _firmaAdres */\n      dup7\n        /* \"contracts/BaseContract.sol\":9951:9972  firmalar[_firmaAdres] */\n      0xffffffffffffffffffffffffffffffffffffffff\n      and\n      0xffffffffffffffffffffffffffffffffffffffff\n      and\n      dup2\n      mstore\n      0x20\n      add\n      swap1\n      dup2\n      mstore\n      0x20\n      add\n      0x00\n      keccak256\n        /* \"contracts/BaseContract.sol\":9951:9978  firmalar[_firmaAdres].durum */\n      0x00\n      add\n      0x00\n        /* \"contracts/BaseContract.sol\":9951:9985  firmalar[_firmaAdres].durum = true */\n      0x0100\n      exp\n      dup2\n      sload\n      dup2\n      0xff\n      mul\n      not\n      and\n      swap1\n      dup4\n      iszero\n      iszero\n      mul\n      or\n      swap1\n      sstore\n      pop\n        /* \"contracts/BaseContract.sol\":10025:10030  _isim */\n      dup3\n        /* \"contracts/BaseContract.sol\":9996:10004  firmalar */\n      0x06\n        /* \"contracts/BaseContract.sol\":9996:10017  firmalar[_firmaAdres] */\n      0x00\n        /* \"contracts/BaseContract.sol\":10005:10016  _firmaAdres */\n      dup7\n        /* \"contracts/BaseContract.sol\":9996:10017  firmalar[_firmaAdres] */\n      0xffffffffffffffffffffffffffffffffffffffff\n      and\n      0xffffffffffffffffffffffffffffffffffffffff\n      and\n      dup2\n      mstore\n      0x20\n      add\n      swap1\n      dup2\n      mstore\n      0x20\n      add\n      0x00\n      keccak256\n        /* \"contracts/BaseContract.sol\":9996:10022  firmalar[_firmaAdres].isim */\n      0x02\n      add\n        /* \"contracts/BaseContract.sol\":9996:10030  firmalar[_firmaAdres].isim = _isim */\n      swap1\n      dup1\n      mload\n      swap1\n      0x20\n      add\n      swap1\n      tag_445\n      swap3\n      swap2\n      swap1\n      tag_288\n      jump\t// in\n    tag_445:\n      pop\n        /* \"contracts/BaseContract.sol\":10070:10075  _ulke */\n      dup1\n        /* \"contracts/BaseContract.sol\":10041:10049  firmalar */\n      0x06\n        /* \"contracts/BaseContract.sol\":10041:10062  firmalar[_firmaAdres] */\n      0x00\n        /* \"contracts/BaseContract.sol\":10050:10061  _firmaAdres */\n      dup7\n        /* \"contracts/BaseContract.sol\":10041:10062  firmalar[_firmaAdres] */\n      0xffffffffffffffffffffffffffffffffffffffff\n      and\n      0xffffffffffffffffffffffffffffffffffffffff\n      and\n      dup2\n      mstore\n      0x20\n      add\n      swap1\n      dup2\n      mstore\n      0x20\n      add\n      0x00\n      keccak256\n        /* \"contracts/BaseContract.sol\":10041:10067  firmalar[_firmaAdres].ulke */\n      0x00\n      add\n      0x01\n        /* \"contracts/BaseContract.sol\":10041:10075  firmalar[_firmaAdres].ulke = _ulke */\n      0x0100\n      exp\n      dup2\n      sload\n      dup2\n      0xff\n      mul\n      not\n      and\n      swap1\n      dup4\n      0xff\n      and\n      mul\n      or\n      swap1\n      sstore\n      pop\n        /* \"contracts/BaseContract.sol\":10118:10126  _vergiNo */\n      dup2\n        /* \"contracts/BaseContract.sol\":10086:10094  firmalar */\n      0x06\n        /* \"contracts/BaseContract.sol\":10086:10107  firmalar[_firmaAdres] */\n      0x00\n        /* \"contracts/BaseContract.sol\":10095:10106  _firmaAdres */\n      dup7\n        /* \"contracts/BaseContract.sol\":10086:10107  firmalar[_firmaAdres] */\n      0xffffffffffffffffffffffffffffffffffffffff\n      and\n      0xffffffffffffffffffffffffffffffffffffffff\n      and\n      dup2\n      mstore\n      0x20\n      add\n      swap1\n      dup2\n      mstore\n      0x20\n      add\n      0x00\n      keccak256\n        /* \"contracts/BaseContract.sol\":10086:10115  firmalar[_firmaAdres].vergiNo */\n      0x01\n      add\n        /* \"contracts/BaseContract.sol\":10086:10126  firmalar[_firmaAdres].vergiNo = _vergiNo */\n      dup2\n      swap1\n      sstore\n      pop\n        /* \"contracts/BaseContract.sol\":9748:10138  function guncelleFirma(address _firmaAdres, string memory _isim, uint _vergiNo, uint8 _ulke)\r... */\n      pop\n      pop\n      pop\n      pop\n      jump\t// out\n        /* \"contracts/BaseContract.sol\":12085:12275  function silKurs(address _kursAdres)\r... */\n    tag_192:\n        /* \"contracts/BaseContract.sol\":12153:12171  isKurs(_kursAdres) */\n      tag_447\n        /* \"contracts/BaseContract.sol\":12160:12170  _kursAdres */\n      dup2\n        /* \"contracts/BaseContract.sol\":12153:12159  isKurs */\n      tag_79\n        /* \"contracts/BaseContract.sol\":12153:12171  isKurs(_kursAdres) */\n      jump\t// in\n    tag_447:\n        /* \"contracts/BaseContract.sol\":12145:12224  require(isKurs(_kursAdres),\r... */\n      tag_448\n      jumpi\n      mload(0x40)\n      0x08c379a000000000000000000000000000000000000000000000000000000000\n      dup2\n      mstore\n      0x04\n      add\n      tag_449\n      swap1\n      tag_450\n      jump\t// in\n    tag_449:\n      mload(0x40)\n      dup1\n      swap2\n      sub\n      swap1\n      revert\n    tag_448:\n        /* \"contracts/BaseContract.sol\":12244:12251  kurslar */\n      0x07\n        /* \"contracts/BaseContract.sol\":12244:12263  kurslar[_kursAdres] */\n      0x00\n        /* \"contracts/BaseContract.sol\":12252:12262  _kursAdres */\n      dup3\n        /* \"contracts/BaseContract.sol\":12244:12263  kurslar[_kursAdres] */\n      0xffffffffffffffffffffffffffffffffffffffff\n      and\n      0xffffffffffffffffffffffffffffffffffffffff\n      and\n      dup2\n      mstore\n      0x20\n      add\n      swap1\n      dup2\n      mstore\n      0x20\n      add\n      0x00\n      keccak256\n      0x00\n        /* \"contracts/BaseContract.sol\":12237:12263  delete kurslar[_kursAdres] */\n      dup1\n      dup3\n      add\n      exp(0x0100, 0x00)\n      dup2\n      sload\n      swap1\n      0xff\n      mul\n      not\n      and\n      swap1\n      sstore\n      0x01\n      dup3\n      add\n      0x00\n      tag_451\n      swap2\n      swap1\n      tag_321\n      jump\t// in\n    tag_451:\n      0x02\n      dup3\n      add\n      exp(0x0100, 0x00)\n      dup2\n      sload\n      swap1\n      0xff\n      mul\n      not\n      and\n      swap1\n      sstore\n      pop\n      pop\n        /* \"contracts/BaseContract.sol\":12085:12275  function silKurs(address _kursAdres)\r... */\n      pop\n      jump\t// out\n        /* \"contracts/BaseContract.sol\":5385:5416  address[] public firmaAdresleri */\n    tag_195:\n      0x0e\n      dup2\n      dup2\n      sload\n      dup2\n      lt\n      tag_452\n      jumpi\n      0x00\n      dup1\n      revert\n    tag_452:\n      swap1\n      0x00\n      mstore\n      keccak256(0x00, 0x20)\n      add\n      0x00\n      swap2\n      pop\n      sload\n      swap1\n      0x0100\n      exp\n      swap1\n      div\n      0xffffffffffffffffffffffffffffffffffffffff\n      and\n      dup2\n      jump\t// out\n        /* \"contracts/BaseContract.sol\":13584:13958  function guncelleSertifikaMerkezi(address _smAdres, string memory _isim, uint8 _ulke)\r... */\n    tag_199:\n        /* \"contracts/BaseContract.sol\":13701:13729  isSertifikaMerkezi(_smAdres) */\n      tag_455\n        /* \"contracts/BaseContract.sol\":13720:13728  _smAdres */\n      dup4\n        /* \"contracts/BaseContract.sol\":13701:13719  isSertifikaMerkezi */\n      tag_250\n        /* \"contracts/BaseContract.sol\":13701:13729  isSertifikaMerkezi(_smAdres) */\n      jump\t// in\n    tag_455:\n        /* \"contracts/BaseContract.sol\":13693:13787  require(isSertifikaMerkezi(_smAdres),\r... */\n      tag_456\n      jumpi\n      mload(0x40)\n      0x08c379a000000000000000000000000000000000000000000000000000000000\n      dup2\n      mstore\n      0x04\n      add\n      tag_457\n      swap1\n      tag_358\n      jump\t// in\n    tag_457:\n      mload(0x40)\n      dup1\n      swap2\n      sub\n      swap1\n      revert\n    tag_456:\n        /* \"contracts/BaseContract.sol\":13838:13842  true */\n      0x01\n        /* \"contracts/BaseContract.sol\":13800:13819  sertifikaMerkezleri */\n      0x0a\n        /* \"contracts/BaseContract.sol\":13800:13829  sertifikaMerkezleri[_smAdres] */\n      0x00\n        /* \"contracts/BaseContract.sol\":13820:13828  _smAdres */\n      dup6\n        /* \"contracts/BaseContract.sol\":13800:13829  sertifikaMerkezleri[_smAdres] */\n      0xffffffffffffffffffffffffffffffffffffffff\n      and\n      0xffffffffffffffffffffffffffffffffffffffff\n      and\n      dup2\n      mstore\n      0x20\n      add\n      swap1\n      dup2\n      mstore\n      0x20\n      add\n      0x00\n      keccak256\n        /* \"contracts/BaseContract.sol\":13800:13835  sertifikaMerkezleri[_smAdres].durum */\n      0x00\n      add\n      0x00\n        /* \"contracts/BaseContract.sol\":13800:13842  sertifikaMerkezleri[_smAdres].durum = true */\n      0x0100\n      exp\n      dup2\n      sload\n      dup2\n      0xff\n      mul\n      not\n      and\n      swap1\n      dup4\n      iszero\n      iszero\n      mul\n      or\n      swap1\n      sstore\n      pop\n        /* \"contracts/BaseContract.sol\":13890:13895  _isim */\n      dup2\n        /* \"contracts/BaseContract.sol\":13853:13872  sertifikaMerkezleri */\n      0x0a\n        /* \"contracts/BaseContract.sol\":13853:13882  sertifikaMerkezleri[_smAdres] */\n      0x00\n        /* \"contracts/BaseContract.sol\":13873:13881  _smAdres */\n      dup6\n        /* \"contracts/BaseContract.sol\":13853:13882  sertifikaMerkezleri[_smAdres] */\n      0xffffffffffffffffffffffffffffffffffffffff\n      and\n      0xffffffffffffffffffffffffffffffffffffffff\n      and\n      dup2\n      mstore\n      0x20\n      add\n      swap1\n      dup2\n      mstore\n      0x20\n      add\n      0x00\n      keccak256\n        /* \"contracts/BaseContract.sol\":13853:13887  sertifikaMerkezleri[_smAdres].isim */\n      0x01\n      add\n        /* \"contracts/BaseContract.sol\":13853:13895  sertifikaMerkezleri[_smAdres].isim = _isim */\n      swap1\n      dup1\n      mload\n      swap1\n      0x20\n      add\n      swap1\n      tag_458\n      swap3\n      swap2\n      swap1\n      tag_288\n      jump\t// in\n    tag_458:\n      pop\n        /* \"contracts/BaseContract.sol\":13943:13948  _ulke */\n      dup1\n        /* \"contracts/BaseContract.sol\":13906:13925  sertifikaMerkezleri */\n      0x0a\n        /* \"contracts/BaseContract.sol\":13906:13935  sertifikaMerkezleri[_smAdres] */\n      0x00\n        /* \"contracts/BaseContract.sol\":13926:13934  _smAdres */\n      dup6\n        /* \"contracts/BaseContract.sol\":13906:13935  sertifikaMerkezleri[_smAdres] */\n      0xffffffffffffffffffffffffffffffffffffffff\n      and\n      0xffffffffffffffffffffffffffffffffffffffff\n      and\n      dup2\n      mstore\n      0x20\n      add\n      swap1\n      dup2\n      mstore\n      0x20\n      add\n      0x00\n      keccak256\n        /* \"contracts/BaseContract.sol\":13906:13940  sertifikaMerkezleri[_smAdres].ulke */\n      0x02\n      add\n      0x00\n        /* \"contracts/BaseContract.sol\":13906:13948  sertifikaMerkezleri[_smAdres].ulke = _ulke */\n      0x0100\n      exp\n      dup2\n      sload\n      dup2\n      0xff\n      mul\n      not\n      and\n      swap1\n      dup4\n      0xff\n      and\n      mul\n      or\n      swap1\n      sstore\n      pop\n        /* \"contracts/BaseContract.sol\":13584:13958  function guncelleSertifikaMerkezi(address _smAdres, string memory _isim, uint8 _ulke)\r... */\n      pop\n      pop\n      pop\n      jump\t// out\n        /* \"contracts/BaseContract.sol\":4075:4184  function isKisi(address _address) public view returns (bool){\r... */\n    tag_202:\n        /* \"contracts/BaseContract.sol\":4130:4134  bool */\n      0x00\n        /* \"contracts/BaseContract.sol\":4153:4160  kisiler */\n      0x03\n        /* \"contracts/BaseContract.sol\":4153:4170  kisiler[_address] */\n      0x00\n        /* \"contracts/BaseContract.sol\":4161:4169  _address */\n      dup4\n        /* \"contracts/BaseContract.sol\":4153:4170  kisiler[_address] */\n      0xffffffffffffffffffffffffffffffffffffffff\n      and\n      0xffffffffffffffffffffffffffffffffffffffff\n      and\n      dup2\n      mstore\n      0x20\n      add\n      swap1\n      dup2\n      mstore\n      0x20\n      add\n      0x00\n      keccak256\n        /* \"contracts/BaseContract.sol\":4153:4176  kisiler[_address].durum */\n      0x00\n      add\n      0x00\n      swap1\n      sload\n      swap1\n      0x0100\n      exp\n      swap1\n      div\n      0xff\n      and\n        /* \"contracts/BaseContract.sol\":4146:4176  return kisiler[_address].durum */\n      swap1\n      pop\n        /* \"contracts/BaseContract.sol\":4075:4184  function isKisi(address _address) public view returns (bool){\r... */\n      swap2\n      swap1\n      pop\n      jump\t// out\n        /* \"contracts/BaseContract.sol\":4917:4970  mapping(address => Akademisyen) public akademisyenler */\n    tag_206:\n      mstore(0x20, 0x05)\n      dup1\n      0x00\n      mstore\n      keccak256(0x00, 0x40)\n      0x00\n      swap2\n      pop\n      swap1\n      pop\n      dup1\n      0x00\n      add\n      0x00\n      swap1\n      sload\n      swap1\n      0x0100\n      exp\n      swap1\n      div\n      0xff\n      and\n      swap1\n      dup1\n      0x00\n      add\n      0x01\n      swap1\n      sload\n      swap1\n      0x0100\n      exp\n      swap1\n      div\n      0xffffffffffffffffffffffffffffffffffffffff\n      and\n      swap1\n      dup1\n      0x00\n      add\n      0x15\n      swap1\n      sload\n      swap1\n      0x0100\n      exp\n      swap1\n      div\n      0xffff\n      and\n      swap1\n      dup1\n      0x00\n      add\n      0x17\n      swap1\n      sload\n      swap1\n      0x0100\n      exp\n      swap1\n      div\n      0xff\n      and\n      swap1\n      dup1\n      0x01\n      add\n      dup1\n      sload\n      tag_460\n      swap1\n      tag_310\n      jump\t// in\n    tag_460:\n      dup1\n      0x1f\n      add\n      0x20\n      dup1\n      swap2\n      div\n      mul\n      0x20\n      add\n      mload(0x40)\n      swap1\n      dup2\n      add\n      0x40\n      mstore\n      dup1\n      swap3\n      swap2\n      swap1\n      dup2\n      dup2\n      mstore\n      0x20\n      add\n      dup3\n      dup1\n      sload\n      tag_461\n      swap1\n      tag_310\n      jump\t// in\n    tag_461:\n      dup1\n      iszero\n      tag_462\n      jumpi\n      dup1\n      0x1f\n      lt\n      tag_463\n      jumpi\n      0x0100\n      dup1\n      dup4\n      sload\n      div\n      mul\n      dup4\n      mstore\n      swap2\n      0x20\n      add\n      swap2\n      jump(tag_462)\n    tag_463:\n      dup3\n      add\n      swap2\n      swap1\n      0x00\n      mstore\n      keccak256(0x00, 0x20)\n      swap1\n    tag_464:\n      dup2\n      sload\n      dup2\n      mstore\n      swap1\n      0x01\n      add\n      swap1\n      0x20\n      add\n      dup1\n      dup4\n      gt\n      tag_464\n      jumpi\n      dup3\n      swap1\n      sub\n      0x1f\n      and\n      dup3\n      add\n      swap2\n    tag_462:\n      pop\n      pop\n      pop\n      pop\n      pop\n      swap1\n      dup1\n      0x02\n      add\n      dup1\n      sload\n      tag_465\n      swap1\n      tag_310\n      jump\t// in\n    tag_465:\n      dup1\n      0x1f\n      add\n      0x20\n      dup1\n      swap2\n      div\n      mul\n      0x20\n      add\n      mload(0x40)\n      swap1\n      dup2\n      add\n      0x40\n      mstore\n      dup1\n      swap3\n      swap2\n      swap1\n      dup2\n      dup2\n      mstore\n      0x20\n      add\n      dup3\n      dup1\n      sload\n      tag_466\n      swap1\n      tag_310\n      jump\t// in\n    tag_466:\n      dup1\n      iszero\n      tag_467\n      jumpi\n      dup1\n      0x1f\n      lt\n      tag_468\n      jumpi\n      0x0100\n      dup1\n      dup4\n      sload\n      div\n      mul\n      dup4\n      mstore\n      swap2\n      0x20\n      add\n      swap2\n      jump(tag_467)\n    tag_468:\n      dup3\n      add\n      swap2\n      swap1\n      0x00\n      mstore\n      keccak256(0x00, 0x20)\n      swap1\n    tag_469:\n      dup2\n      sload\n      dup2\n      mstore\n      swap1\n      0x01\n      add\n      swap1\n      0x20\n      add\n      dup1\n      dup4\n      gt\n      tag_469\n      jumpi\n      dup3\n      swap1\n      sub\n      0x1f\n      and\n      dup3\n      add\n      swap2\n    tag_467:\n      pop\n      pop\n      pop\n      pop\n      pop\n      swap1\n      pop\n      dup7\n      jump\t// out\n        /* \"contracts/BaseContract.sol\":9125:9302  function silKisi(address _kisiAdres) public {\r... */\n    tag_211:\n        /* \"contracts/BaseContract.sol\":9188:9206  isKisi(_kisiAdres) */\n      tag_471\n        /* \"contracts/BaseContract.sol\":9195:9205  _kisiAdres */\n      dup2\n        /* \"contracts/BaseContract.sol\":9188:9194  isKisi */\n      tag_202\n        /* \"contracts/BaseContract.sol\":9188:9206  isKisi(_kisiAdres) */\n      jump\t// in\n    tag_471:\n        /* \"contracts/BaseContract.sol\":9180:9251  require(isKisi(_kisiAdres),\r... */\n      tag_472\n      jumpi\n      mload(0x40)\n      0x08c379a000000000000000000000000000000000000000000000000000000000\n      dup2\n      mstore\n      0x04\n      add\n      tag_473\n      swap1\n      tag_474\n      jump\t// in\n    tag_473:\n      mload(0x40)\n      dup1\n      swap2\n      sub\n      swap1\n      revert\n    tag_472:\n        /* \"contracts/BaseContract.sol\":9271:9278  kisiler */\n      0x03\n        /* \"contracts/BaseContract.sol\":9271:9290  kisiler[_kisiAdres] */\n      0x00\n        /* \"contracts/BaseContract.sol\":9279:9289  _kisiAdres */\n      dup3\n        /* \"contracts/BaseContract.sol\":9271:9290  kisiler[_kisiAdres] */\n      0xffffffffffffffffffffffffffffffffffffffff\n      and\n      0xffffffffffffffffffffffffffffffffffffffff\n      and\n      dup2\n      mstore\n      0x20\n      add\n      swap1\n      dup2\n      mstore\n      0x20\n      add\n      0x00\n      keccak256\n      0x00\n        /* \"contracts/BaseContract.sol\":9264:9290  delete kisiler[_kisiAdres] */\n      dup1\n      dup3\n      add\n      exp(0x0100, 0x00)\n      dup2\n      sload\n      swap1\n      0xff\n      mul\n      not\n      and\n      swap1\n      sstore\n      pop\n      pop\n        /* \"contracts/BaseContract.sol\":9125:9302  function silKisi(address _kisiAdres) public {\r... */\n      pop\n      jump\t// out\n        /* \"contracts/BaseContract.sol\":6005:6379  function guncelleUniversite(address _universiteAdres, string memory _isim, uint8 _ulke) public {\r... */\n    tag_214:\n        /* \"contracts/BaseContract.sol\":6119:6149  isUniversite(_universiteAdres) */\n      tag_476\n        /* \"contracts/BaseContract.sol\":6132:6148  _universiteAdres */\n      dup4\n        /* \"contracts/BaseContract.sol\":6119:6131  isUniversite */\n      tag_262\n        /* \"contracts/BaseContract.sol\":6119:6149  isUniversite(_universiteAdres) */\n      jump\t// in\n    tag_476:\n        /* \"contracts/BaseContract.sol\":6111:6200  require(isUniversite(_universiteAdres),\r... */\n      tag_477\n      jumpi\n      mload(0x40)\n      0x08c379a000000000000000000000000000000000000000000000000000000000\n      dup2\n      mstore\n      0x04\n      add\n      tag_478\n      swap1\n      tag_479\n      jump\t// in\n    tag_478:\n      mload(0x40)\n      dup1\n      swap2\n      sub\n      swap1\n      revert\n    tag_477:\n        /* \"contracts/BaseContract.sol\":6253:6257  true */\n      0x01\n        /* \"contracts/BaseContract.sol\":6213:6226  universiteler */\n      0x04\n        /* \"contracts/BaseContract.sol\":6213:6244  universiteler[_universiteAdres] */\n      0x00\n        /* \"contracts/BaseContract.sol\":6227:6243  _universiteAdres */\n      dup6\n        /* \"contracts/BaseContract.sol\":6213:6244  universiteler[_universiteAdres] */\n      0xffffffffffffffffffffffffffffffffffffffff\n      and\n      0xffffffffffffffffffffffffffffffffffffffff\n      and\n      dup2\n      mstore\n      0x20\n      add\n      swap1\n      dup2\n      mstore\n      0x20\n      add\n      0x00\n      keccak256\n        /* \"contracts/BaseContract.sol\":6213:6250  universiteler[_universiteAdres].durum */\n      0x00\n      add\n      0x00\n        /* \"contracts/BaseContract.sol\":6213:6257  universiteler[_universiteAdres].durum = true */\n      0x0100\n      exp\n      dup2\n      sload\n      dup2\n      0xff\n      mul\n      not\n      and\n      swap1\n      dup4\n      iszero\n      iszero\n      mul\n      or\n      swap1\n      sstore\n      pop\n        /* \"contracts/BaseContract.sol\":6307:6312  _isim */\n      dup2\n        /* \"contracts/BaseContract.sol\":6268:6281  universiteler */\n      0x04\n        /* \"contracts/BaseContract.sol\":6268:6299  universiteler[_universiteAdres] */\n      0x00\n        /* \"contracts/BaseContract.sol\":6282:6298  _universiteAdres */\n      dup6\n        /* \"contracts/BaseContract.sol\":6268:6299  universiteler[_universiteAdres] */\n      0xffffffffffffffffffffffffffffffffffffffff\n      and\n      0xffffffffffffffffffffffffffffffffffffffff\n      and\n      dup2\n      mstore\n      0x20\n      add\n      swap1\n      dup2\n      mstore\n      0x20\n      add\n      0x00\n      keccak256\n        /* \"contracts/BaseContract.sol\":6268:6304  universiteler[_universiteAdres].isim */\n      0x01\n      add\n        /* \"contracts/BaseContract.sol\":6268:6312  universiteler[_universiteAdres].isim = _isim */\n      swap1\n      dup1\n      mload\n      swap1\n      0x20\n      add\n      swap1\n      tag_480\n      swap3\n      swap2\n      swap1\n      tag_288\n      jump\t// in\n    tag_480:\n      pop\n        /* \"contracts/BaseContract.sol\":6362:6367  _ulke */\n      dup1\n        /* \"contracts/BaseContract.sol\":6323:6336  universiteler */\n      0x04\n        /* \"contracts/BaseContract.sol\":6323:6354  universiteler[_universiteAdres] */\n      0x00\n        /* \"contracts/BaseContract.sol\":6337:6353  _universiteAdres */\n      dup6\n        /* \"contracts/BaseContract.sol\":6323:6354  universiteler[_universiteAdres] */\n      0xffffffffffffffffffffffffffffffffffffffff\n      and\n      0xffffffffffffffffffffffffffffffffffffffff\n      and\n      dup2\n      mstore\n      0x20\n      add\n      swap1\n      dup2\n      mstore\n      0x20\n      add\n      0x00\n      keccak256\n        /* \"contracts/BaseContract.sol\":6323:6359  universiteler[_universiteAdres].ulke */\n      0x02\n      add\n      0x00\n        /* \"contracts/BaseContract.sol\":6323:6367  universiteler[_universiteAdres].ulke = _ulke */\n      0x0100\n      exp\n      dup2\n      sload\n      dup2\n      0xff\n      mul\n      not\n      and\n      swap1\n      dup4\n      0xff\n      and\n      mul\n      or\n      swap1\n      sstore\n      pop\n        /* \"contracts/BaseContract.sol\":6005:6379  function guncelleUniversite(address _universiteAdres, string memory _isim, uint8 _ulke) public {\r... */\n      pop\n      pop\n      pop\n      jump\t// out\n        /* \"contracts/BaseContract.sol\":4813:4852  mapping(address => Kisi) public kisiler */\n    tag_217:\n      mstore(0x20, 0x03)\n      dup1\n      0x00\n      mstore\n      keccak256(0x00, 0x40)\n      0x00\n      swap2\n      pop\n      swap1\n      pop\n      dup1\n      0x00\n      add\n      0x00\n      swap1\n      sload\n      swap1\n      0x0100\n      exp\n      swap1\n      div\n      0xff\n      and\n      swap1\n      pop\n      dup2\n      jump\t// out\n        /* \"contracts/BaseContract.sol\":8360:8672  function getKursListesi() public view returns(Kurs[] memory){\r... */\n    tag_220:\n        /* \"contracts/BaseContract.sol\":8406:8419  Kurs[] memory */\n      0x60\n        /* \"contracts/BaseContract.sol\":8439:8460  Kurs [] memory result */\n      0x00\n        /* \"contracts/BaseContract.sol\":8474:8487  kursAdresleri */\n      0x0f\n        /* \"contracts/BaseContract.sol\":8474:8494  kursAdresleri.length */\n      dup1\n      sload\n      swap1\n      pop\n        /* \"contracts/BaseContract.sol\":8463:8495  new Kurs[](kursAdresleri.length) */\n      0xffffffffffffffff\n      dup2\n      gt\n      iszero\n      tag_482\n      jumpi\n      tag_483\n      tag_368\n      jump\t// in\n    tag_483:\n    tag_482:\n      mload(0x40)\n      swap1\n      dup1\n      dup3\n      mstore\n      dup1\n      0x20\n      mul\n      0x20\n      add\n      dup3\n      add\n      0x40\n      mstore\n      dup1\n      iszero\n      tag_484\n      jumpi\n      dup2\n      0x20\n      add\n    tag_485:\n      tag_486\n      tag_487\n      jump\t// in\n    tag_486:\n      dup2\n      mstore\n      0x20\n      add\n      swap1\n      0x01\n      swap1\n      sub\n      swap1\n      dup2\n      tag_485\n      jumpi\n      swap1\n      pop\n    tag_484:\n      pop\n        /* \"contracts/BaseContract.sol\":8439:8495  Kurs [] memory result = new Kurs[](kursAdresleri.length) */\n      swap1\n      pop\n        /* \"contracts/BaseContract.sol\":8506:8516  uint index */\n      0x00\n        /* \"contracts/BaseContract.sol\":8533:8539  uint i */\n      dup1\n        /* \"contracts/BaseContract.sol\":8529:8641  for(uint i = 0; i< kursAdresleri.length; i++){\r... */\n    tag_488:\n        /* \"contracts/BaseContract.sol\":8548:8561  kursAdresleri */\n      0x0f\n        /* \"contracts/BaseContract.sol\":8548:8568  kursAdresleri.length */\n      dup1\n      sload\n      swap1\n      pop\n        /* \"contracts/BaseContract.sol\":8545:8546  i */\n      dup2\n        /* \"contracts/BaseContract.sol\":8545:8568  i< kursAdresleri.length */\n      lt\n        /* \"contracts/BaseContract.sol\":8529:8641  for(uint i = 0; i< kursAdresleri.length; i++){\r... */\n      iszero\n      tag_489\n      jumpi\n        /* \"contracts/BaseContract.sol\":8604:8611  kurslar */\n      0x07\n        /* \"contracts/BaseContract.sol\":8604:8629  kurslar[kursAdresleri[i]] */\n      0x00\n        /* \"contracts/BaseContract.sol\":8612:8625  kursAdresleri */\n      0x0f\n        /* \"contracts/BaseContract.sol\":8626:8627  i */\n      dup4\n        /* \"contracts/BaseContract.sol\":8612:8628  kursAdresleri[i] */\n      dup2\n      sload\n      dup2\n      lt\n      tag_491\n      jumpi\n      tag_492\n      tag_378\n      jump\t// in\n    tag_492:\n    tag_491:\n      swap1\n      0x00\n      mstore\n      keccak256(0x00, 0x20)\n      add\n      0x00\n      swap1\n      sload\n      swap1\n      0x0100\n      exp\n      swap1\n      div\n      0xffffffffffffffffffffffffffffffffffffffff\n      and\n        /* \"contracts/BaseContract.sol\":8604:8629  kurslar[kursAdresleri[i]] */\n      0xffffffffffffffffffffffffffffffffffffffff\n      and\n      0xffffffffffffffffffffffffffffffffffffffff\n      and\n      dup2\n      mstore\n      0x20\n      add\n      swap1\n      dup2\n      mstore\n      0x20\n      add\n      0x00\n      keccak256\n        /* \"contracts/BaseContract.sol\":8588:8629  result[index++]=kurslar[kursAdresleri[i]] */\n      mload(0x40)\n      dup1\n      0x60\n      add\n      0x40\n      mstore\n      swap1\n      dup2\n      0x00\n      dup3\n      add\n      0x00\n      swap1\n      sload\n      swap1\n      0x0100\n      exp\n      swap1\n      div\n      0xff\n      and\n      iszero\n      iszero\n      iszero\n      iszero\n      dup2\n      mstore\n      0x20\n      add\n      0x01\n      dup3\n      add\n      dup1\n      sload\n      tag_494\n      swap1\n      tag_310\n      jump\t// in\n    tag_494:\n      dup1\n      0x1f\n      add\n      0x20\n      dup1\n      swap2\n      div\n      mul\n      0x20\n      add\n      mload(0x40)\n      swap1\n      dup2\n      add\n      0x40\n      mstore\n      dup1\n      swap3\n      swap2\n      swap1\n      dup2\n      dup2\n      mstore\n      0x20\n      add\n      dup3\n      dup1\n      sload\n      tag_495\n      swap1\n      tag_310\n      jump\t// in\n    tag_495:\n      dup1\n      iszero\n      tag_496\n      jumpi\n      dup1\n      0x1f\n      lt\n      tag_497\n      jumpi\n      0x0100\n      dup1\n      dup4\n      sload\n      div\n      mul\n      dup4\n      mstore\n      swap2\n      0x20\n      add\n      swap2\n      jump(tag_496)\n    tag_497:\n      dup3\n      add\n      swap2\n      swap1\n      0x00\n      mstore\n      keccak256(0x00, 0x20)\n      swap1\n    tag_498:\n      dup2\n      sload\n      dup2\n      mstore\n      swap1\n      0x01\n      add\n      swap1\n      0x20\n      add\n      dup1\n      dup4\n      gt\n      tag_498\n      jumpi\n      dup3\n      swap1\n      sub\n      0x1f\n      and\n      dup3\n      add\n      swap2\n    tag_496:\n      pop\n      pop\n      pop\n      pop\n      pop\n      dup2\n      mstore\n      0x20\n      add\n      0x02\n      dup3\n      add\n      0x00\n      swap1\n      sload\n      swap1\n      0x0100\n      exp\n      swap1\n      div\n      0xff\n      and\n      0xff\n      and\n      0xff\n      and\n      dup2\n      mstore\n      pop\n      pop\n        /* \"contracts/BaseContract.sol\":8588:8594  result */\n      dup4\n        /* \"contracts/BaseContract.sol\":8595:8602  index++ */\n      dup4\n      dup1\n      tag_499\n      swap1\n      tag_386\n      jump\t// in\n    tag_499:\n      swap5\n      pop\n        /* \"contracts/BaseContract.sol\":8588:8603  result[index++] */\n      dup2\n      mload\n      dup2\n      lt\n      tag_500\n      jumpi\n      tag_501\n      tag_378\n      jump\t// in\n    tag_501:\n    tag_500:\n      0x20\n      mul\n      0x20\n      add\n      add\n        /* \"contracts/BaseContract.sol\":8588:8629  result[index++]=kurslar[kursAdresleri[i]] */\n      dup2\n      swap1\n      mstore\n      pop\n        /* \"contracts/BaseContract.sol\":8570:8573  i++ */\n      dup1\n      dup1\n      tag_502\n      swap1\n      tag_386\n      jump\t// in\n    tag_502:\n      swap2\n      pop\n      pop\n        /* \"contracts/BaseContract.sol\":8529:8641  for(uint i = 0; i< kursAdresleri.length; i++){\r... */\n      jump(tag_488)\n    tag_489:\n      pop\n        /* \"contracts/BaseContract.sol\":8658:8664  result */\n      dup2\n        /* \"contracts/BaseContract.sol\":8651:8664  return result */\n      swap3\n      pop\n      pop\n      pop\n        /* \"contracts/BaseContract.sol\":8360:8672  function getKursListesi() public view returns(Kurs[] memory){\r... */\n      swap1\n      jump\t// out\n        /* \"contracts/BaseContract.sol\":9312:9740  function ekleFirma(address _firmaAdres, string memory _isim, uint _vergiNo, uint8 _ulke)\r... */\n    tag_225:\n        /* \"contracts/BaseContract.sol\":9433:9453  isFirma(_firmaAdres) */\n      tag_504\n        /* \"contracts/BaseContract.sol\":9441:9452  _firmaAdres */\n      dup5\n        /* \"contracts/BaseContract.sol\":9433:9440  isFirma */\n      tag_120\n        /* \"contracts/BaseContract.sol\":9433:9453  isFirma(_firmaAdres) */\n      jump\t// in\n    tag_504:\n        /* \"contracts/BaseContract.sol\":9432:9453  !isFirma(_firmaAdres) */\n      iszero\n        /* \"contracts/BaseContract.sol\":9424:9499  require(!isFirma(_firmaAdres),\r... */\n      tag_505\n      jumpi\n      mload(0x40)\n      0x08c379a000000000000000000000000000000000000000000000000000000000\n      dup2\n      mstore\n      0x04\n      add\n      tag_506\n      swap1\n      tag_507\n      jump\t// in\n    tag_506:\n      mload(0x40)\n      dup1\n      swap2\n      sub\n      swap1\n      revert\n    tag_505:\n        /* \"contracts/BaseContract.sol\":9542:9546  true */\n      0x01\n        /* \"contracts/BaseContract.sol\":9512:9520  firmalar */\n      0x06\n        /* \"contracts/BaseContract.sol\":9512:9533  firmalar[_firmaAdres] */\n      0x00\n        /* \"contracts/BaseContract.sol\":9521:9532  _firmaAdres */\n      dup7\n        /* \"contracts/BaseContract.sol\":9512:9533  firmalar[_firmaAdres] */\n      0xffffffffffffffffffffffffffffffffffffffff\n      and\n      0xffffffffffffffffffffffffffffffffffffffff\n      and\n      dup2\n      mstore\n      0x20\n      add\n      swap1\n      dup2\n      mstore\n      0x20\n      add\n      0x00\n      keccak256\n        /* \"contracts/BaseContract.sol\":9512:9539  firmalar[_firmaAdres].durum */\n      0x00\n      add\n      0x00\n        /* \"contracts/BaseContract.sol\":9512:9546  firmalar[_firmaAdres].durum = true */\n      0x0100\n      exp\n      dup2\n      sload\n      dup2\n      0xff\n      mul\n      not\n      and\n      swap1\n      dup4\n      iszero\n      iszero\n      mul\n      or\n      swap1\n      sstore\n      pop\n        /* \"contracts/BaseContract.sol\":9586:9591  _isim */\n      dup3\n        /* \"contracts/BaseContract.sol\":9557:9565  firmalar */\n      0x06\n        /* \"contracts/BaseContract.sol\":9557:9578  firmalar[_firmaAdres] */\n      0x00\n        /* \"contracts/BaseContract.sol\":9566:9577  _firmaAdres */\n      dup7\n        /* \"contracts/BaseContract.sol\":9557:9578  firmalar[_firmaAdres] */\n      0xffffffffffffffffffffffffffffffffffffffff\n      and\n      0xffffffffffffffffffffffffffffffffffffffff\n      and\n      dup2\n      mstore\n      0x20\n      add\n      swap1\n      dup2\n      mstore\n      0x20\n      add\n      0x00\n      keccak256\n        /* \"contracts/BaseContract.sol\":9557:9583  firmalar[_firmaAdres].isim */\n      0x02\n      add\n        /* \"contracts/BaseContract.sol\":9557:9591  firmalar[_firmaAdres].isim = _isim */\n      swap1\n      dup1\n      mload\n      swap1\n      0x20\n      add\n      swap1\n      tag_508\n      swap3\n      swap2\n      swap1\n      tag_288\n      jump\t// in\n    tag_508:\n      pop\n        /* \"contracts/BaseContract.sol\":9631:9636  _ulke */\n      dup1\n        /* \"contracts/BaseContract.sol\":9602:9610  firmalar */\n      0x06\n        /* \"contracts/BaseContract.sol\":9602:9623  firmalar[_firmaAdres] */\n      0x00\n        /* \"contracts/BaseContract.sol\":9611:9622  _firmaAdres */\n      dup7\n        /* \"contracts/BaseContract.sol\":9602:9623  firmalar[_firmaAdres] */\n      0xffffffffffffffffffffffffffffffffffffffff\n      and\n      0xffffffffffffffffffffffffffffffffffffffff\n      and\n      dup2\n      mstore\n      0x20\n      add\n      swap1\n      dup2\n      mstore\n      0x20\n      add\n      0x00\n      keccak256\n        /* \"contracts/BaseContract.sol\":9602:9628  firmalar[_firmaAdres].ulke */\n      0x00\n      add\n      0x01\n        /* \"contracts/BaseContract.sol\":9602:9636  firmalar[_firmaAdres].ulke = _ulke */\n      0x0100\n      exp\n      dup2\n      sload\n      dup2\n      0xff\n      mul\n      not\n      and\n      swap1\n      dup4\n      0xff\n      and\n      mul\n      or\n      swap1\n      sstore\n      pop\n        /* \"contracts/BaseContract.sol\":9679:9687  _vergiNo */\n      dup2\n        /* \"contracts/BaseContract.sol\":9647:9655  firmalar */\n      0x06\n        /* \"contracts/BaseContract.sol\":9647:9668  firmalar[_firmaAdres] */\n      0x00\n        /* \"contracts/BaseContract.sol\":9656:9667  _firmaAdres */\n      dup7\n        /* \"contracts/BaseContract.sol\":9647:9668  firmalar[_firmaAdres] */\n      0xffffffffffffffffffffffffffffffffffffffff\n      and\n      0xffffffffffffffffffffffffffffffffffffffff\n      and\n      dup2\n      mstore\n      0x20\n      add\n      swap1\n      dup2\n      mstore\n      0x20\n      add\n      0x00\n      keccak256\n        /* \"contracts/BaseContract.sol\":9647:9676  firmalar[_firmaAdres].vergiNo */\n      0x01\n      add\n        /* \"contracts/BaseContract.sol\":9647:9687  firmalar[_firmaAdres].vergiNo = _vergiNo */\n      dup2\n      swap1\n      sstore\n      pop\n        /* \"contracts/BaseContract.sol\":9698:9712  firmaAdresleri */\n      0x0e\n        /* \"contracts/BaseContract.sol\":9718:9729  _firmaAdres */\n      dup5\n        /* \"contracts/BaseContract.sol\":9698:9730  firmaAdresleri.push(_firmaAdres) */\n      swap1\n      dup1\n      0x01\n      dup2\n      sload\n      add\n      dup1\n      dup3\n      sstore\n      dup1\n      swap2\n      pop\n      pop\n      0x01\n      swap1\n      sub\n      swap1\n      0x00\n      mstore\n      keccak256(0x00, 0x20)\n      add\n      0x00\n      swap1\n      swap2\n      swap1\n      swap2\n      swap1\n      swap2\n      0x0100\n      exp\n      dup2\n      sload\n      dup2\n      0xffffffffffffffffffffffffffffffffffffffff\n      mul\n      not\n      and\n      swap1\n      dup4\n      0xffffffffffffffffffffffffffffffffffffffff\n      and\n      mul\n      or\n      swap1\n      sstore\n      pop\n        /* \"contracts/BaseContract.sol\":9312:9740  function ekleFirma(address _firmaAdres, string memory _isim, uint _vergiNo, uint8 _ulke)\r... */\n      pop\n      pop\n      pop\n      pop\n      jump\t// out\n        /* \"contracts/BaseContract.sol\":7360:7680  function getFirmaListesi() public view returns(Firma[] memory){\r... */\n    tag_227:\n        /* \"contracts/BaseContract.sol\":7407:7421  Firma[] memory */\n      0x60\n        /* \"contracts/BaseContract.sol\":7441:7463  Firma [] memory result */\n      0x00\n        /* \"contracts/BaseContract.sol\":7478:7492  firmaAdresleri */\n      0x0e\n        /* \"contracts/BaseContract.sol\":7478:7499  firmaAdresleri.length */\n      dup1\n      sload\n      swap1\n      pop\n        /* \"contracts/BaseContract.sol\":7466:7500  new Firma[](firmaAdresleri.length) */\n      0xffffffffffffffff\n      dup2\n      gt\n      iszero\n      tag_511\n      jumpi\n      tag_512\n      tag_368\n      jump\t// in\n    tag_512:\n    tag_511:\n      mload(0x40)\n      swap1\n      dup1\n      dup3\n      mstore\n      dup1\n      0x20\n      mul\n      0x20\n      add\n      dup3\n      add\n      0x40\n      mstore\n      dup1\n      iszero\n      tag_513\n      jumpi\n      dup2\n      0x20\n      add\n    tag_514:\n      tag_515\n      tag_516\n      jump\t// in\n    tag_515:\n      dup2\n      mstore\n      0x20\n      add\n      swap1\n      0x01\n      swap1\n      sub\n      swap1\n      dup2\n      tag_514\n      jumpi\n      swap1\n      pop\n    tag_513:\n      pop\n        /* \"contracts/BaseContract.sol\":7441:7500  Firma [] memory result = new Firma[](firmaAdresleri.length) */\n      swap1\n      pop\n        /* \"contracts/BaseContract.sol\":7511:7521  uint index */\n      0x00\n        /* \"contracts/BaseContract.sol\":7538:7544  uint i */\n      dup1\n        /* \"contracts/BaseContract.sol\":7534:7649  for(uint i = 0; i< firmaAdresleri.length; i++){\r... */\n    tag_517:\n        /* \"contracts/BaseContract.sol\":7553:7567  firmaAdresleri */\n      0x0e\n        /* \"contracts/BaseContract.sol\":7553:7574  firmaAdresleri.length */\n      dup1\n      sload\n      swap1\n      pop\n        /* \"contracts/BaseContract.sol\":7550:7551  i */\n      dup2\n        /* \"contracts/BaseContract.sol\":7550:7574  i< firmaAdresleri.length */\n      lt\n        /* \"contracts/BaseContract.sol\":7534:7649  for(uint i = 0; i< firmaAdresleri.length; i++){\r... */\n      iszero\n      tag_518\n      jumpi\n        /* \"contracts/BaseContract.sol\":7610:7618  firmalar */\n      0x06\n        /* \"contracts/BaseContract.sol\":7610:7637  firmalar[firmaAdresleri[i]] */\n      0x00\n        /* \"contracts/BaseContract.sol\":7619:7633  firmaAdresleri */\n      0x0e\n        /* \"contracts/BaseContract.sol\":7634:7635  i */\n      dup4\n        /* \"contracts/BaseContract.sol\":7619:7636  firmaAdresleri[i] */\n      dup2\n      sload\n      dup2\n      lt\n      tag_520\n      jumpi\n      tag_521\n      tag_378\n      jump\t// in\n    tag_521:\n    tag_520:\n      swap1\n      0x00\n      mstore\n      keccak256(0x00, 0x20)\n      add\n      0x00\n      swap1\n      sload\n      swap1\n      0x0100\n      exp\n      swap1\n      div\n      0xffffffffffffffffffffffffffffffffffffffff\n      and\n        /* \"contracts/BaseContract.sol\":7610:7637  firmalar[firmaAdresleri[i]] */\n      0xffffffffffffffffffffffffffffffffffffffff\n      and\n      0xffffffffffffffffffffffffffffffffffffffff\n      and\n      dup2\n      mstore\n      0x20\n      add\n      swap1\n      dup2\n      mstore\n      0x20\n      add\n      0x00\n      keccak256\n        /* \"contracts/BaseContract.sol\":7594:7637  result[index++]=firmalar[firmaAdresleri[i]] */\n      mload(0x40)\n      dup1\n      0x80\n      add\n      0x40\n      mstore\n      swap1\n      dup2\n      0x00\n      dup3\n      add\n      0x00\n      swap1\n      sload\n      swap1\n      0x0100\n      exp\n      swap1\n      div\n      0xff\n      and\n      iszero\n      iszero\n      iszero\n      iszero\n      dup2\n      mstore\n      0x20\n      add\n      0x00\n      dup3\n      add\n      0x01\n      swap1\n      sload\n      swap1\n      0x0100\n      exp\n      swap1\n      div\n      0xff\n      and\n      0xff\n      and\n      0xff\n      and\n      dup2\n      mstore\n      0x20\n      add\n      0x01\n      dup3\n      add\n      sload\n      dup2\n      mstore\n      0x20\n      add\n      0x02\n      dup3\n      add\n      dup1\n      sload\n      tag_523\n      swap1\n      tag_310\n      jump\t// in\n    tag_523:\n      dup1\n      0x1f\n      add\n      0x20\n      dup1\n      swap2\n      div\n      mul\n      0x20\n      add\n      mload(0x40)\n      swap1\n      dup2\n      add\n      0x40\n      mstore\n      dup1\n      swap3\n      swap2\n      swap1\n      dup2\n      dup2\n      mstore\n      0x20\n      add\n      dup3\n      dup1\n      sload\n      tag_524\n      swap1\n      tag_310\n      jump\t// in\n    tag_524:\n      dup1\n      iszero\n      tag_525\n      jumpi\n      dup1\n      0x1f\n      lt\n      tag_526\n      jumpi\n      0x0100\n      dup1\n      dup4\n      sload\n      div\n      mul\n      dup4\n      mstore\n      swap2\n      0x20\n      add\n      swap2\n      jump(tag_525)\n    tag_526:\n      dup3\n      add\n      swap2\n      swap1\n      0x00\n      mstore\n      keccak256(0x00, 0x20)\n      swap1\n    tag_527:\n      dup2\n      sload\n      dup2\n      mstore\n      swap1\n      0x01\n      add\n      swap1\n      0x20\n      add\n      dup1\n      dup4\n      gt\n      tag_527\n      jumpi\n      dup3\n      swap1\n      sub\n      0x1f\n      and\n      dup3\n      add\n      swap2\n    tag_525:\n      pop\n      pop\n      pop\n      pop\n      pop\n      dup2\n      mstore\n      pop\n      pop\n        /* \"contracts/BaseContract.sol\":7594:7600  result */\n      dup4\n        /* \"contracts/BaseContract.sol\":7601:7608  index++ */\n      dup4\n      dup1\n      tag_528\n      swap1\n      tag_386\n      jump\t// in\n    tag_528:\n      swap5\n      pop\n        /* \"contracts/BaseContract.sol\":7594:7609  result[index++] */\n      dup2\n      mload\n      dup2\n      lt\n      tag_529\n      jumpi\n      tag_530\n      tag_378\n      jump\t// in\n    tag_530:\n    tag_529:\n      0x20\n      mul\n      0x20\n      add\n      add\n        /* \"contracts/BaseContract.sol\":7594:7637  result[index++]=firmalar[firmaAdresleri[i]] */\n      dup2\n      swap1\n      mstore\n      pop\n        /* \"contracts/BaseContract.sol\":7576:7579  i++ */\n      dup1\n      dup1\n      tag_531\n      swap1\n      tag_386\n      jump\t// in\n    tag_531:\n      swap2\n      pop\n      pop\n        /* \"contracts/BaseContract.sol\":7534:7649  for(uint i = 0; i< firmaAdresleri.length; i++){\r... */\n      jump(tag_517)\n    tag_518:\n      pop\n        /* \"contracts/BaseContract.sol\":7666:7672  result */\n      dup2\n        /* \"contracts/BaseContract.sol\":7659:7672  return result */\n      swap3\n      pop\n      pop\n      pop\n        /* \"contracts/BaseContract.sol\":7360:7680  function getFirmaListesi() public view returns(Firma[] memory){\r... */\n      swap1\n      jump\t// out\n        /* \"contracts/BaseContract.sol\":11756:12077  function guncelleKurs(address _kursAdres, string memory _isim, uint8 _ulke)\r... */\n    tag_232:\n        /* \"contracts/BaseContract.sol\":11863:11881  isKurs(_kursAdres) */\n      tag_533\n        /* \"contracts/BaseContract.sol\":11870:11880  _kursAdres */\n      dup4\n        /* \"contracts/BaseContract.sol\":11863:11869  isKurs */\n      tag_79\n        /* \"contracts/BaseContract.sol\":11863:11881  isKurs(_kursAdres) */\n      jump\t// in\n    tag_533:\n        /* \"contracts/BaseContract.sol\":11855:11934  require(isKurs(_kursAdres),\r... */\n      tag_534\n      jumpi\n      mload(0x40)\n      0x08c379a000000000000000000000000000000000000000000000000000000000\n      dup2\n      mstore\n      0x04\n      add\n      tag_535\n      swap1\n      tag_450\n      jump\t// in\n    tag_535:\n      mload(0x40)\n      dup1\n      swap2\n      sub\n      swap1\n      revert\n    tag_534:\n        /* \"contracts/BaseContract.sol\":11975:11979  true */\n      0x01\n        /* \"contracts/BaseContract.sol\":11947:11954  kurslar */\n      0x07\n        /* \"contracts/BaseContract.sol\":11947:11966  kurslar[_kursAdres] */\n      0x00\n        /* \"contracts/BaseContract.sol\":11955:11965  _kursAdres */\n      dup6\n        /* \"contracts/BaseContract.sol\":11947:11966  kurslar[_kursAdres] */\n      0xffffffffffffffffffffffffffffffffffffffff\n      and\n      0xffffffffffffffffffffffffffffffffffffffff\n      and\n      dup2\n      mstore\n      0x20\n      add\n      swap1\n      dup2\n      mstore\n      0x20\n      add\n      0x00\n      keccak256\n        /* \"contracts/BaseContract.sol\":11947:11972  kurslar[_kursAdres].durum */\n      0x00\n      add\n      0x00\n        /* \"contracts/BaseContract.sol\":11947:11979  kurslar[_kursAdres].durum = true */\n      0x0100\n      exp\n      dup2\n      sload\n      dup2\n      0xff\n      mul\n      not\n      and\n      swap1\n      dup4\n      iszero\n      iszero\n      mul\n      or\n      swap1\n      sstore\n      pop\n        /* \"contracts/BaseContract.sol\":12017:12022  _isim */\n      dup2\n        /* \"contracts/BaseContract.sol\":11990:11997  kurslar */\n      0x07\n        /* \"contracts/BaseContract.sol\":11990:12009  kurslar[_kursAdres] */\n      0x00\n        /* \"contracts/BaseContract.sol\":11998:12008  _kursAdres */\n      dup6\n        /* \"contracts/BaseContract.sol\":11990:12009  kurslar[_kursAdres] */\n      0xffffffffffffffffffffffffffffffffffffffff\n      and\n      0xffffffffffffffffffffffffffffffffffffffff\n      and\n      dup2\n      mstore\n      0x20\n      add\n      swap1\n      dup2\n      mstore\n      0x20\n      add\n      0x00\n      keccak256\n        /* \"contracts/BaseContract.sol\":11990:12014  kurslar[_kursAdres].isim */\n      0x01\n      add\n        /* \"contracts/BaseContract.sol\":11990:12022  kurslar[_kursAdres].isim = _isim */\n      swap1\n      dup1\n      mload\n      swap1\n      0x20\n      add\n      swap1\n      tag_536\n      swap3\n      swap2\n      swap1\n      tag_288\n      jump\t// in\n    tag_536:\n      pop\n        /* \"contracts/BaseContract.sol\":12060:12065  _ulke */\n      dup1\n        /* \"contracts/BaseContract.sol\":12033:12040  kurslar */\n      0x07\n        /* \"contracts/BaseContract.sol\":12033:12052  kurslar[_kursAdres] */\n      0x00\n        /* \"contracts/BaseContract.sol\":12041:12051  _kursAdres */\n      dup6\n        /* \"contracts/BaseContract.sol\":12033:12052  kurslar[_kursAdres] */\n      0xffffffffffffffffffffffffffffffffffffffff\n      and\n      0xffffffffffffffffffffffffffffffffffffffff\n      and\n      dup2\n      mstore\n      0x20\n      add\n      swap1\n      dup2\n      mstore\n      0x20\n      add\n      0x00\n      keccak256\n        /* \"contracts/BaseContract.sol\":12033:12057  kurslar[_kursAdres].ulke */\n      0x02\n      add\n      0x00\n        /* \"contracts/BaseContract.sol\":12033:12065  kurslar[_kursAdres].ulke = _ulke */\n      0x0100\n      exp\n      dup2\n      sload\n      dup2\n      0xff\n      mul\n      not\n      and\n      swap1\n      dup4\n      0xff\n      and\n      mul\n      or\n      swap1\n      sstore\n      pop\n        /* \"contracts/BaseContract.sol\":11756:12077  function guncelleKurs(address _kursAdres, string memory _isim, uint8 _ulke)\r... */\n      pop\n      pop\n      pop\n      jump\t// out\n        /* \"contracts/BaseContract.sol\":6983:7351  function getKamuKurumuListesi() public view sadeceCB returns(KamuKurumu[] memory)  {\r... */\n    tag_234:\n        /* \"contracts/BaseContract.sol\":7044:7063  KamuKurumu[] memory */\n      0x60\n        /* \"contracts/BaseContract.sol\":2449:2451  CB */\n      0x02\n      0x00\n      swap1\n      sload\n      swap1\n      0x0100\n      exp\n      swap1\n      div\n      0xffffffffffffffffffffffffffffffffffffffff\n      and\n        /* \"contracts/BaseContract.sol\":2435:2451  msg.sender == CB */\n      0xffffffffffffffffffffffffffffffffffffffff\n      and\n        /* \"contracts/BaseContract.sol\":2435:2445  msg.sender */\n      caller\n        /* \"contracts/BaseContract.sol\":2435:2451  msg.sender == CB */\n      0xffffffffffffffffffffffffffffffffffffffff\n      and\n      eq\n        /* \"contracts/BaseContract.sol\":2427:2509  require(msg.sender == CB,\r... */\n      tag_538\n      jumpi\n      mload(0x40)\n      0x08c379a000000000000000000000000000000000000000000000000000000000\n      dup2\n      mstore\n      0x04\n      add\n      tag_539\n      swap1\n      tag_540\n      jump\t// in\n    tag_539:\n      mload(0x40)\n      dup1\n      swap2\n      sub\n      swap1\n      revert\n    tag_538:\n        /* \"contracts/BaseContract.sol\":7085:7112  KamuKurumu [] memory result */\n      0x00\n        /* \"contracts/BaseContract.sol\":7132:7150  kamuKurumAdresleri */\n      0x10\n        /* \"contracts/BaseContract.sol\":7132:7157  kamuKurumAdresleri.length */\n      dup1\n      sload\n      swap1\n      pop\n        /* \"contracts/BaseContract.sol\":7115:7158  new KamuKurumu[](kamuKurumAdresleri.length) */\n      0xffffffffffffffff\n      dup2\n      gt\n      iszero\n      tag_542\n      jumpi\n      tag_543\n      tag_368\n      jump\t// in\n    tag_543:\n    tag_542:\n      mload(0x40)\n      swap1\n      dup1\n      dup3\n      mstore\n      dup1\n      0x20\n      mul\n      0x20\n      add\n      dup3\n      add\n      0x40\n      mstore\n      dup1\n      iszero\n      tag_544\n      jumpi\n      dup2\n      0x20\n      add\n    tag_545:\n      tag_546\n      tag_547\n      jump\t// in\n    tag_546:\n      dup2\n      mstore\n      0x20\n      add\n      swap1\n      0x01\n      swap1\n      sub\n      swap1\n      dup2\n      tag_545\n      jumpi\n      swap1\n      pop\n    tag_544:\n      pop\n        /* \"contracts/BaseContract.sol\":7085:7158  KamuKurumu [] memory result = new KamuKurumu[](kamuKurumAdresleri.length) */\n      swap1\n      pop\n        /* \"contracts/BaseContract.sol\":7169:7179  uint index */\n      0x00\n        /* \"contracts/BaseContract.sol\":7196:7202  uint i */\n      dup1\n        /* \"contracts/BaseContract.sol\":7192:7320  for(uint i = 0; i< kamuKurumAdresleri.length; i++){\r... */\n    tag_548:\n        /* \"contracts/BaseContract.sol\":7211:7229  kamuKurumAdresleri */\n      0x10\n        /* \"contracts/BaseContract.sol\":7211:7236  kamuKurumAdresleri.length */\n      dup1\n      sload\n      swap1\n      pop\n        /* \"contracts/BaseContract.sol\":7208:7209  i */\n      dup2\n        /* \"contracts/BaseContract.sol\":7208:7236  i< kamuKurumAdresleri.length */\n      lt\n        /* \"contracts/BaseContract.sol\":7192:7320  for(uint i = 0; i< kamuKurumAdresleri.length; i++){\r... */\n      iszero\n      tag_549\n      jumpi\n        /* \"contracts/BaseContract.sol\":7272:7285  kamuKurumlari */\n      0x08\n        /* \"contracts/BaseContract.sol\":7272:7308  kamuKurumlari[kamuKurumAdresleri[i]] */\n      0x00\n        /* \"contracts/BaseContract.sol\":7286:7304  kamuKurumAdresleri */\n      0x10\n        /* \"contracts/BaseContract.sol\":7305:7306  i */\n      dup4\n        /* \"contracts/BaseContract.sol\":7286:7307  kamuKurumAdresleri[i] */\n      dup2\n      sload\n      dup2\n      lt\n      tag_551\n      jumpi\n      tag_552\n      tag_378\n      jump\t// in\n    tag_552:\n    tag_551:\n      swap1\n      0x00\n      mstore\n      keccak256(0x00, 0x20)\n      add\n      0x00\n      swap1\n      sload\n      swap1\n      0x0100\n      exp\n      swap1\n      div\n      0xffffffffffffffffffffffffffffffffffffffff\n      and\n        /* \"contracts/BaseContract.sol\":7272:7308  kamuKurumlari[kamuKurumAdresleri[i]] */\n      0xffffffffffffffffffffffffffffffffffffffff\n      and\n      0xffffffffffffffffffffffffffffffffffffffff\n      and\n      dup2\n      mstore\n      0x20\n      add\n      swap1\n      dup2\n      mstore\n      0x20\n      add\n      0x00\n      keccak256\n        /* \"contracts/BaseContract.sol\":7256:7308  result[index++]=kamuKurumlari[kamuKurumAdresleri[i]] */\n      mload(0x40)\n      dup1\n      0x60\n      add\n      0x40\n      mstore\n      swap1\n      dup2\n      0x00\n      dup3\n      add\n      0x00\n      swap1\n      sload\n      swap1\n      0x0100\n      exp\n      swap1\n      div\n      0xff\n      and\n      iszero\n      iszero\n      iszero\n      iszero\n      dup2\n      mstore\n      0x20\n      add\n      0x01\n      dup3\n      add\n      dup1\n      sload\n      tag_554\n      swap1\n      tag_310\n      jump\t// in\n    tag_554:\n      dup1\n      0x1f\n      add\n      0x20\n      dup1\n      swap2\n      div\n      mul\n      0x20\n      add\n      mload(0x40)\n      swap1\n      dup2\n      add\n      0x40\n      mstore\n      dup1\n      swap3\n      swap2\n      swap1\n      dup2\n      dup2\n      mstore\n      0x20\n      add\n      dup3\n      dup1\n      sload\n      tag_555\n      swap1\n      tag_310\n      jump\t// in\n    tag_555:\n      dup1\n      iszero\n      tag_556\n      jumpi\n      dup1\n      0x1f\n      lt\n      tag_557\n      jumpi\n      0x0100\n      dup1\n      dup4\n      sload\n      div\n      mul\n      dup4\n      mstore\n      swap2\n      0x20\n      add\n      swap2\n      jump(tag_556)\n    tag_557:\n      dup3\n      add\n      swap2\n      swap1\n      0x00\n      mstore\n      keccak256(0x00, 0x20)\n      swap1\n    tag_558:\n      dup2\n      sload\n      dup2\n      mstore\n      swap1\n      0x01\n      add\n      swap1\n      0x20\n      add\n      dup1\n      dup4\n      gt\n      tag_558\n      jumpi\n      dup3\n      swap1\n      sub\n      0x1f\n      and\n      dup3\n      add\n      swap2\n    tag_556:\n      pop\n      pop\n      pop\n      pop\n      pop\n      dup2\n      mstore\n      0x20\n      add\n      0x02\n      dup3\n      add\n      0x00\n      swap1\n      sload\n      swap1\n      0x0100\n      exp\n      swap1\n      div\n      0xff\n      and\n      0xff\n      and\n      0xff\n      and\n      dup2\n      mstore\n      pop\n      pop\n        /* \"contracts/BaseContract.sol\":7256:7262  result */\n      dup4\n        /* \"contracts/BaseContract.sol\":7263:7270  index++ */\n      dup4\n      dup1\n      tag_559\n      swap1\n      tag_386\n      jump\t// in\n    tag_559:\n      swap5\n      pop\n        /* \"contracts/BaseContract.sol\":7256:7271  result[index++] */\n      dup2\n      mload\n      dup2\n      lt\n      tag_560\n      jumpi\n      tag_561\n      tag_378\n      jump\t// in\n    tag_561:\n    tag_560:\n      0x20\n      mul\n      0x20\n      add\n      add\n        /* \"contracts/BaseContract.sol\":7256:7308  result[index++]=kamuKurumlari[kamuKurumAdresleri[i]] */\n      dup2\n      swap1\n      mstore\n      pop\n        /* \"contracts/BaseContract.sol\":7238:7241  i++ */\n      dup1\n      dup1\n      tag_562\n      swap1\n      tag_386\n      jump\t// in\n    tag_562:\n      swap2\n      pop\n      pop\n        /* \"contracts/BaseContract.sol\":7192:7320  for(uint i = 0; i< kamuKurumAdresleri.length; i++){\r... */\n      jump(tag_548)\n    tag_549:\n      pop\n        /* \"contracts/BaseContract.sol\":7337:7343  result */\n      dup2\n        /* \"contracts/BaseContract.sol\":7330:7343  return result */\n      swap3\n      pop\n      pop\n      pop\n        /* \"contracts/BaseContract.sol\":6983:7351  function getKamuKurumuListesi() public view sadeceCB returns(KamuKurumu[] memory)  {\r... */\n      swap1\n      jump\t// out\n        /* \"contracts/BaseContract.sol\":3622:3722  function isYOK(address _address) public view returns (bool){\r... */\n    tag_239:\n        /* \"contracts/BaseContract.sol\":3676:3680  bool */\n      0x00\n        /* \"contracts/BaseContract.sol\":3706:3714  _address */\n      dup2\n        /* \"contracts/BaseContract.sol\":3699:3714  YOK == _address */\n      0xffffffffffffffffffffffffffffffffffffffff\n      and\n        /* \"contracts/BaseContract.sol\":3699:3702  YOK */\n      0x00\n      dup1\n      sload\n      swap1\n      0x0100\n      exp\n      swap1\n      div\n      0xffffffffffffffffffffffffffffffffffffffff\n      and\n        /* \"contracts/BaseContract.sol\":3699:3714  YOK == _address */\n      0xffffffffffffffffffffffffffffffffffffffff\n      and\n      eq\n        /* \"contracts/BaseContract.sol\":3692:3714  return YOK == _address */\n      swap1\n      pop\n        /* \"contracts/BaseContract.sol\":3622:3722  function isYOK(address _address) public view returns (bool){\r... */\n      swap2\n      swap1\n      pop\n      jump\t// out\n        /* \"contracts/BaseContract.sol\":5502:5531  address[] public stkAdresleri */\n    tag_243:\n      0x11\n      dup2\n      dup2\n      sload\n      dup2\n      lt\n      tag_564\n      jumpi\n      0x00\n      dup1\n      revert\n    tag_564:\n      swap1\n      0x00\n      mstore\n      keccak256(0x00, 0x20)\n      add\n      0x00\n      swap2\n      pop\n      sload\n      swap1\n      0x0100\n      exp\n      swap1\n      div\n      0xffffffffffffffffffffffffffffffffffffffff\n      and\n      dup2\n      jump\t// out\n        /* \"contracts/BaseContract.sol\":12971:13160  function silSTK(address _stkAdres)\r... */\n    tag_247:\n        /* \"contracts/BaseContract.sol\":13037:13053  isSTK(_stkAdres) */\n      tag_567\n        /* \"contracts/BaseContract.sol\":13043:13052  _stkAdres */\n      dup2\n        /* \"contracts/BaseContract.sol\":13037:13042  isSTK */\n      tag_161\n        /* \"contracts/BaseContract.sol\":13037:13053  isSTK(_stkAdres) */\n      jump\t// in\n    tag_567:\n        /* \"contracts/BaseContract.sol\":13029:13115  require(isSTK(_stkAdres),\r... */\n      tag_568\n      jumpi\n      mload(0x40)\n      0x08c379a000000000000000000000000000000000000000000000000000000000\n      dup2\n      mstore\n      0x04\n      add\n      tag_569\n      swap1\n      tag_395\n      jump\t// in\n    tag_569:\n      mload(0x40)\n      dup1\n      swap2\n      sub\n      swap1\n      revert\n    tag_568:\n        /* \"contracts/BaseContract.sol\":13133:13139  stklar */\n      0x09\n        /* \"contracts/BaseContract.sol\":13133:13150  stklar[_stkAdres] */\n      0x00\n        /* \"contracts/BaseContract.sol\":13140:13149  _stkAdres */\n      dup3\n        /* \"contracts/BaseContract.sol\":13133:13150  stklar[_stkAdres] */\n      0xffffffffffffffffffffffffffffffffffffffff\n      and\n      0xffffffffffffffffffffffffffffffffffffffff\n      and\n      dup2\n      mstore\n      0x20\n      add\n      swap1\n      dup2\n      mstore\n      0x20\n      add\n      0x00\n      keccak256\n      0x00\n        /* \"contracts/BaseContract.sol\":13126:13150  delete stklar[_stkAdres] */\n      dup1\n      dup3\n      add\n      exp(0x0100, 0x00)\n      dup2\n      sload\n      swap1\n      0xff\n      mul\n      not\n      and\n      swap1\n      sstore\n      0x01\n      dup3\n      add\n      0x00\n      tag_570\n      swap2\n      swap1\n      tag_321\n      jump\t// in\n    tag_570:\n      0x02\n      dup3\n      add\n      exp(0x0100, 0x00)\n      dup2\n      sload\n      swap1\n      0xff\n      mul\n      not\n      and\n      swap1\n      sstore\n      pop\n      pop\n        /* \"contracts/BaseContract.sol\":12971:13160  function silSTK(address _stkAdres)\r... */\n      pop\n      jump\t// out\n        /* \"contracts/BaseContract.sol\":4672:4805  function isSertifikaMerkezi(address _address) public view returns (bool){\r... */\n    tag_250:\n        /* \"contracts/BaseContract.sol\":4739:4743  bool */\n      0x00\n        /* \"contracts/BaseContract.sol\":4762:4781  sertifikaMerkezleri */\n      0x0a\n        /* \"contracts/BaseContract.sol\":4762:4791  sertifikaMerkezleri[_address] */\n      0x00\n        /* \"contracts/BaseContract.sol\":4782:4790  _address */\n      dup4\n        /* \"contracts/BaseContract.sol\":4762:4791  sertifikaMerkezleri[_address] */\n      0xffffffffffffffffffffffffffffffffffffffff\n      and\n      0xffffffffffffffffffffffffffffffffffffffff\n      and\n      dup2\n      mstore\n      0x20\n      add\n      swap1\n      dup2\n      mstore\n      0x20\n      add\n      0x00\n      keccak256\n        /* \"contracts/BaseContract.sol\":4762:4797  sertifikaMerkezleri[_address].durum */\n      0x00\n      add\n      0x00\n      swap1\n      sload\n      swap1\n      0x0100\n      exp\n      swap1\n      div\n      0xff\n      and\n        /* \"contracts/BaseContract.sol\":4755:4797  return sertifikaMerkezleri[_address].durum */\n      swap1\n      pop\n        /* \"contracts/BaseContract.sol\":4672:4805  function isSertifikaMerkezi(address _address) public view returns (bool){\r... */\n      swap2\n      swap1\n      pop\n      jump\t// out\n        /* \"contracts/BaseContract.sol\":3840:3938  function isCB(address _address) public view returns (bool){\r... */\n    tag_254:\n        /* \"contracts/BaseContract.sol\":3893:3897  bool */\n      0x00\n        /* \"contracts/BaseContract.sol\":3922:3930  _address */\n      dup2\n        /* \"contracts/BaseContract.sol\":3916:3930  CB == _address */\n      0xffffffffffffffffffffffffffffffffffffffff\n      and\n        /* \"contracts/BaseContract.sol\":3916:3918  CB */\n      0x02\n      0x00\n      swap1\n      sload\n      swap1\n      0x0100\n      exp\n      swap1\n      div\n      0xffffffffffffffffffffffffffffffffffffffff\n      and\n        /* \"contracts/BaseContract.sol\":3916:3930  CB == _address */\n      0xffffffffffffffffffffffffffffffffffffffff\n      and\n      eq\n        /* \"contracts/BaseContract.sol\":3909:3930  return CB == _address */\n      swap1\n      pop\n        /* \"contracts/BaseContract.sol\":3840:3938  function isCB(address _address) public view returns (bool){\r... */\n      swap2\n      swap1\n      pop\n      jump\t// out\n        /* \"contracts/BaseContract.sol\":5423:5453  address[] public kursAdresleri */\n    tag_258:\n      0x0f\n      dup2\n      dup2\n      sload\n      dup2\n      lt\n      tag_573\n      jumpi\n      0x00\n      dup1\n      revert\n    tag_573:\n      swap1\n      0x00\n      mstore\n      keccak256(0x00, 0x20)\n      add\n      0x00\n      swap2\n      pop\n      sload\n      swap1\n      0x0100\n      exp\n      swap1\n      div\n      0xffffffffffffffffffffffffffffffffffffffff\n      and\n      dup2\n      jump\t// out\n        /* \"contracts/BaseContract.sol\":3946:4067  function isUniversite(address _address) public view returns (bool){\r... */\n    tag_262:\n        /* \"contracts/BaseContract.sol\":4007:4011  bool */\n      0x00\n        /* \"contracts/BaseContract.sol\":4030:4043  universiteler */\n      0x04\n        /* \"contracts/BaseContract.sol\":4030:4053  universiteler[_address] */\n      0x00\n        /* \"contracts/BaseContract.sol\":4044:4052  _address */\n      dup4\n        /* \"contracts/BaseContract.sol\":4030:4053  universiteler[_address] */\n      0xffffffffffffffffffffffffffffffffffffffff\n      and\n      0xffffffffffffffffffffffffffffffffffffffff\n      and\n      dup2\n      mstore\n      0x20\n      add\n      swap1\n      dup2\n      mstore\n      0x20\n      add\n      0x00\n      keccak256\n        /* \"contracts/BaseContract.sol\":4030:4059  universiteler[_address].durum */\n      0x00\n      add\n      0x00\n      swap1\n      sload\n      swap1\n      0x0100\n      exp\n      swap1\n      div\n      0xff\n      and\n        /* \"contracts/BaseContract.sol\":4023:4059  return universiteler[_address].durum */\n      swap1\n      pop\n        /* \"contracts/BaseContract.sol\":3946:4067  function isUniversite(address _address) public view returns (bool){\r... */\n      swap2\n      swap1\n      pop\n      jump\t// out\n        /* \"contracts/BaseContract.sol\":5303:5333  address[] public kisiAdresleri */\n    tag_266:\n      0x0c\n      dup2\n      dup2\n      sload\n      dup2\n      lt\n      tag_576\n      jumpi\n      0x00\n      dup1\n      revert\n    tag_576:\n      swap1\n      0x00\n      mstore\n      keccak256(0x00, 0x20)\n      add\n      0x00\n      swap2\n      pop\n      sload\n      swap1\n      0x0100\n      exp\n      swap1\n      div\n      0xffffffffffffffffffffffffffffffffffffffff\n      and\n      dup2\n      jump\t// out\n        /* \"contracts/BaseContract.sol\":8914:9117  function guncelleKisi(address _kisiAdres, bool _durum) public {\r... */\n    tag_271:\n        /* \"contracts/BaseContract.sol\":8995:9013  isKisi(_kisiAdres) */\n      tag_579\n        /* \"contracts/BaseContract.sol\":9002:9012  _kisiAdres */\n      dup3\n        /* \"contracts/BaseContract.sol\":8995:9001  isKisi */\n      tag_202\n        /* \"contracts/BaseContract.sol\":8995:9013  isKisi(_kisiAdres) */\n      jump\t// in\n    tag_579:\n        /* \"contracts/BaseContract.sol\":8987:9058  require(isKisi(_kisiAdres),\r... */\n      tag_580\n      jumpi\n      mload(0x40)\n      0x08c379a000000000000000000000000000000000000000000000000000000000\n      dup2\n      mstore\n      0x04\n      add\n      tag_581\n      swap1\n      tag_474\n      jump\t// in\n    tag_581:\n      mload(0x40)\n      dup1\n      swap2\n      sub\n      swap1\n      revert\n    tag_580:\n        /* \"contracts/BaseContract.sol\":9099:9105  _durum */\n      dup1\n        /* \"contracts/BaseContract.sol\":9071:9078  kisiler */\n      0x03\n        /* \"contracts/BaseContract.sol\":9071:9090  kisiler[_kisiAdres] */\n      0x00\n        /* \"contracts/BaseContract.sol\":9079:9089  _kisiAdres */\n      dup5\n        /* \"contracts/BaseContract.sol\":9071:9090  kisiler[_kisiAdres] */\n      0xffffffffffffffffffffffffffffffffffffffff\n      and\n      0xffffffffffffffffffffffffffffffffffffffff\n      and\n      dup2\n      mstore\n      0x20\n      add\n      swap1\n      dup2\n      mstore\n      0x20\n      add\n      0x00\n      keccak256\n        /* \"contracts/BaseContract.sol\":9071:9096  kisiler[_kisiAdres].durum */\n      0x00\n      add\n      0x00\n        /* \"contracts/BaseContract.sol\":9071:9105  kisiler[_kisiAdres].durum = _durum */\n      0x0100\n      exp\n      dup2\n      sload\n      dup2\n      0xff\n      mul\n      not\n      and\n      swap1\n      dup4\n      iszero\n      iszero\n      mul\n      or\n      swap1\n      sstore\n      pop\n        /* \"contracts/BaseContract.sol\":8914:9117  function guncelleKisi(address _kisiAdres, bool _durum) public {\r... */\n      pop\n      pop\n      jump\t// out\n        /* \"contracts/BaseContract.sol\":8682:8906  function ekleKisi(address _kisiAdres) public {\r... */\n    tag_274:\n        /* \"contracts/BaseContract.sol\":8747:8765  isKisi(_kisiAdres) */\n      tag_583\n        /* \"contracts/BaseContract.sol\":8754:8764  _kisiAdres */\n      dup2\n        /* \"contracts/BaseContract.sol\":8747:8753  isKisi */\n      tag_202\n        /* \"contracts/BaseContract.sol\":8747:8765  isKisi(_kisiAdres) */\n      jump\t// in\n    tag_583:\n        /* \"contracts/BaseContract.sol\":8746:8765  !isKisi(_kisiAdres) */\n      iszero\n        /* \"contracts/BaseContract.sol\":8738:8810  require(!isKisi(_kisiAdres),\r... */\n      tag_584\n      jumpi\n      mload(0x40)\n      0x08c379a000000000000000000000000000000000000000000000000000000000\n      dup2\n      mstore\n      0x04\n      add\n      tag_585\n      swap1\n      tag_586\n      jump\t// in\n    tag_585:\n      mload(0x40)\n      dup1\n      swap2\n      sub\n      swap1\n      revert\n    tag_584:\n        /* \"contracts/BaseContract.sol\":8851:8855  true */\n      0x01\n        /* \"contracts/BaseContract.sol\":8823:8830  kisiler */\n      0x03\n        /* \"contracts/BaseContract.sol\":8823:8842  kisiler[_kisiAdres] */\n      0x00\n        /* \"contracts/BaseContract.sol\":8831:8841  _kisiAdres */\n      dup4\n        /* \"contracts/BaseContract.sol\":8823:8842  kisiler[_kisiAdres] */\n      0xffffffffffffffffffffffffffffffffffffffff\n      and\n      0xffffffffffffffffffffffffffffffffffffffff\n      and\n      dup2\n      mstore\n      0x20\n      add\n      swap1\n      dup2\n      mstore\n      0x20\n      add\n      0x00\n      keccak256\n        /* \"contracts/BaseContract.sol\":8823:8848  kisiler[_kisiAdres].durum */\n      0x00\n      add\n      0x00\n        /* \"contracts/BaseContract.sol\":8823:8855  kisiler[_kisiAdres].durum = true */\n      0x0100\n      exp\n      dup2\n      sload\n      dup2\n      0xff\n      mul\n      not\n      and\n      swap1\n      dup4\n      iszero\n      iszero\n      mul\n      or\n      swap1\n      sstore\n      pop\n        /* \"contracts/BaseContract.sol\":8866:8879  kisiAdresleri */\n      0x0c\n        /* \"contracts/BaseContract.sol\":8885:8895  _kisiAdres */\n      dup2\n        /* \"contracts/BaseContract.sol\":8866:8896  kisiAdresleri.push(_kisiAdres) */\n      swap1\n      dup1\n      0x01\n      dup2\n      sload\n      add\n      dup1\n      dup3\n      sstore\n      dup1\n      swap2\n      pop\n      pop\n      0x01\n      swap1\n      sub\n      swap1\n      0x00\n      mstore\n      keccak256(0x00, 0x20)\n      add\n      0x00\n      swap1\n      swap2\n      swap1\n      swap2\n      swap1\n      swap2\n      0x0100\n      exp\n      dup2\n      sload\n      dup2\n      0xffffffffffffffffffffffffffffffffffffffff\n      mul\n      not\n      and\n      swap1\n      dup4\n      0xffffffffffffffffffffffffffffffffffffffff\n      and\n      mul\n      or\n      swap1\n      sstore\n      pop\n        /* \"contracts/BaseContract.sol\":8682:8906  function ekleKisi(address _kisiAdres) public {\r... */\n      pop\n      jump\t// out\n        /* \"contracts/BaseContract.sol\":10343:10770  function ekleKamuKurumu(address _kamuKurumuAdres, string memory _isim, uint8 _ulke)\r... */\n    tag_277:\n        /* \"contracts/BaseContract.sol\":10459:10489  isKamuKurumu(_kamuKurumuAdres) */\n      tag_589\n        /* \"contracts/BaseContract.sol\":10472:10488  _kamuKurumuAdres */\n      dup4\n        /* \"contracts/BaseContract.sol\":10459:10471  isKamuKurumu */\n      tag_143\n        /* \"contracts/BaseContract.sol\":10459:10489  isKamuKurumu(_kamuKurumuAdres) */\n      jump\t// in\n    tag_589:\n        /* \"contracts/BaseContract.sol\":10458:10489  !isKamuKurumu(_kamuKurumuAdres) */\n      iszero\n        /* \"contracts/BaseContract.sol\":10450:10541  require(!isKamuKurumu(_kamuKurumuAdres),\r... */\n      tag_590\n      jumpi\n      mload(0x40)\n      0x08c379a000000000000000000000000000000000000000000000000000000000\n      dup2\n      mstore\n      0x04\n      add\n      tag_591\n      swap1\n      tag_592\n      jump\t// in\n    tag_591:\n      mload(0x40)\n      dup1\n      swap2\n      sub\n      swap1\n      revert\n    tag_590:\n        /* \"contracts/BaseContract.sol\":10594:10598  true */\n      0x01\n        /* \"contracts/BaseContract.sol\":10554:10567  kamuKurumlari */\n      0x08\n        /* \"contracts/BaseContract.sol\":10554:10585  kamuKurumlari[_kamuKurumuAdres] */\n      0x00\n        /* \"contracts/BaseContract.sol\":10568:10584  _kamuKurumuAdres */\n      dup6\n        /* \"contracts/BaseContract.sol\":10554:10585  kamuKurumlari[_kamuKurumuAdres] */\n      0xffffffffffffffffffffffffffffffffffffffff\n      and\n      0xffffffffffffffffffffffffffffffffffffffff\n      and\n      dup2\n      mstore\n      0x20\n      add\n      swap1\n      dup2\n      mstore\n      0x20\n      add\n      0x00\n      keccak256\n        /* \"contracts/BaseContract.sol\":10554:10591  kamuKurumlari[_kamuKurumuAdres].durum */\n      0x00\n      add\n      0x00\n        /* \"contracts/BaseContract.sol\":10554:10598  kamuKurumlari[_kamuKurumuAdres].durum = true */\n      0x0100\n      exp\n      dup2\n      sload\n      dup2\n      0xff\n      mul\n      not\n      and\n      swap1\n      dup4\n      iszero\n      iszero\n      mul\n      or\n      swap1\n      sstore\n      pop\n        /* \"contracts/BaseContract.sol\":10648:10653  _isim */\n      dup2\n        /* \"contracts/BaseContract.sol\":10609:10622  kamuKurumlari */\n      0x08\n        /* \"contracts/BaseContract.sol\":10609:10640  kamuKurumlari[_kamuKurumuAdres] */\n      0x00\n        /* \"contracts/BaseContract.sol\":10623:10639  _kamuKurumuAdres */\n      dup6\n        /* \"contracts/BaseContract.sol\":10609:10640  kamuKurumlari[_kamuKurumuAdres] */\n      0xffffffffffffffffffffffffffffffffffffffff\n      and\n      0xffffffffffffffffffffffffffffffffffffffff\n      and\n      dup2\n      mstore\n      0x20\n      add\n      swap1\n      dup2\n      mstore\n      0x20\n      add\n      0x00\n      keccak256\n        /* \"contracts/BaseContract.sol\":10609:10645  kamuKurumlari[_kamuKurumuAdres].isim */\n      0x01\n      add\n        /* \"contracts/BaseContract.sol\":10609:10653  kamuKurumlari[_kamuKurumuAdres].isim = _isim */\n      swap1\n      dup1\n      mload\n      swap1\n      0x20\n      add\n      swap1\n      tag_593\n      swap3\n      swap2\n      swap1\n      tag_288\n      jump\t// in\n    tag_593:\n      pop\n        /* \"contracts/BaseContract.sol\":10703:10708  _ulke */\n      dup1\n        /* \"contracts/BaseContract.sol\":10664:10677  kamuKurumlari */\n      0x08\n        /* \"contracts/BaseContract.sol\":10664:10695  kamuKurumlari[_kamuKurumuAdres] */\n      0x00\n        /* \"contracts/BaseContract.sol\":10678:10694  _kamuKurumuAdres */\n      dup6\n        /* \"contracts/BaseContract.sol\":10664:10695  kamuKurumlari[_kamuKurumuAdres] */\n      0xffffffffffffffffffffffffffffffffffffffff\n      and\n      0xffffffffffffffffffffffffffffffffffffffff\n      and\n      dup2\n      mstore\n      0x20\n      add\n      swap1\n      dup2\n      mstore\n      0x20\n      add\n      0x00\n      keccak256\n        /* \"contracts/BaseContract.sol\":10664:10700  kamuKurumlari[_kamuKurumuAdres].ulke */\n      0x02\n      add\n      0x00\n        /* \"contracts/BaseContract.sol\":10664:10708  kamuKurumlari[_kamuKurumuAdres].ulke = _ulke */\n      0x0100\n      exp\n      dup2\n      sload\n      dup2\n      0xff\n      mul\n      not\n      and\n      swap1\n      dup4\n      0xff\n      and\n      mul\n      or\n      swap1\n      sstore\n      pop\n        /* \"contracts/BaseContract.sol\":10719:10737  kamuKurumAdresleri */\n      0x10\n        /* \"contracts/BaseContract.sol\":10743:10759  _kamuKurumuAdres */\n      dup4\n        /* \"contracts/BaseContract.sol\":10719:10760  kamuKurumAdresleri.push(_kamuKurumuAdres) */\n      swap1\n      dup1\n      0x01\n      dup2\n      sload\n      add\n      dup1\n      dup3\n      sstore\n      dup1\n      swap2\n      pop\n      pop\n      0x01\n      swap1\n      sub\n      swap1\n      0x00\n      mstore\n      keccak256(0x00, 0x20)\n      add\n      0x00\n      swap1\n      swap2\n      swap1\n      swap2\n      swap1\n      swap2\n      0x0100\n      exp\n      dup2\n      sload\n      dup2\n      0xffffffffffffffffffffffffffffffffffffffff\n      mul\n      not\n      and\n      swap1\n      dup4\n      0xffffffffffffffffffffffffffffffffffffffff\n      and\n      mul\n      or\n      swap1\n      sstore\n      pop\n        /* \"contracts/BaseContract.sol\":10343:10770  function ekleKamuKurumu(address _kamuKurumuAdres, string memory _isim, uint8 _ulke)\r... */\n      pop\n      pop\n      pop\n      jump\t// out\n        /* \"contracts/BaseContract.sol\":7998:8350  function getSmListesi() public view returns(SertifikaMerkezi[] memory){\r... */\n    tag_279:\n        /* \"contracts/BaseContract.sol\":8042:8067  SertifikaMerkezi[] memory */\n      0x60\n        /* \"contracts/BaseContract.sol\":8087:8120  SertifikaMerkezi [] memory result */\n      0x00\n        /* \"contracts/BaseContract.sol\":8146:8157  smAdresleri */\n      0x12\n        /* \"contracts/BaseContract.sol\":8146:8164  smAdresleri.length */\n      dup1\n      sload\n      swap1\n      pop\n        /* \"contracts/BaseContract.sol\":8123:8165  new SertifikaMerkezi[](smAdresleri.length) */\n      0xffffffffffffffff\n      dup2\n      gt\n      iszero\n      tag_596\n      jumpi\n      tag_597\n      tag_368\n      jump\t// in\n    tag_597:\n    tag_596:\n      mload(0x40)\n      swap1\n      dup1\n      dup3\n      mstore\n      dup1\n      0x20\n      mul\n      0x20\n      add\n      dup3\n      add\n      0x40\n      mstore\n      dup1\n      iszero\n      tag_598\n      jumpi\n      dup2\n      0x20\n      add\n    tag_599:\n      tag_600\n      tag_601\n      jump\t// in\n    tag_600:\n      dup2\n      mstore\n      0x20\n      add\n      swap1\n      0x01\n      swap1\n      sub\n      swap1\n      dup2\n      tag_599\n      jumpi\n      swap1\n      pop\n    tag_598:\n      pop\n        /* \"contracts/BaseContract.sol\":8087:8165  SertifikaMerkezi [] memory result = new SertifikaMerkezi[](smAdresleri.length) */\n      swap1\n      pop\n        /* \"contracts/BaseContract.sol\":8176:8186  uint index */\n      0x00\n        /* \"contracts/BaseContract.sol\":8203:8209  uint i */\n      dup1\n        /* \"contracts/BaseContract.sol\":8199:8319  for(uint i = 0; i< smAdresleri.length; i++){\r... */\n    tag_602:\n        /* \"contracts/BaseContract.sol\":8218:8229  smAdresleri */\n      0x12\n        /* \"contracts/BaseContract.sol\":8218:8236  smAdresleri.length */\n      dup1\n      sload\n      swap1\n      pop\n        /* \"contracts/BaseContract.sol\":8215:8216  i */\n      dup2\n        /* \"contracts/BaseContract.sol\":8215:8236  i< smAdresleri.length */\n      lt\n        /* \"contracts/BaseContract.sol\":8199:8319  for(uint i = 0; i< smAdresleri.length; i++){\r... */\n      iszero\n      tag_603\n      jumpi\n        /* \"contracts/BaseContract.sol\":8272:8291  sertifikaMerkezleri */\n      0x0a\n        /* \"contracts/BaseContract.sol\":8272:8307  sertifikaMerkezleri[smAdresleri[i]] */\n      0x00\n        /* \"contracts/BaseContract.sol\":8292:8303  smAdresleri */\n      0x12\n        /* \"contracts/BaseContract.sol\":8304:8305  i */\n      dup4\n        /* \"contracts/BaseContract.sol\":8292:8306  smAdresleri[i] */\n      dup2\n      sload\n      dup2\n      lt\n      tag_605\n      jumpi\n      tag_606\n      tag_378\n      jump\t// in\n    tag_606:\n    tag_605:\n      swap1\n      0x00\n      mstore\n      keccak256(0x00, 0x20)\n      add\n      0x00\n      swap1\n      sload\n      swap1\n      0x0100\n      exp\n      swap1\n      div\n      0xffffffffffffffffffffffffffffffffffffffff\n      and\n        /* \"contracts/BaseContract.sol\":8272:8307  sertifikaMerkezleri[smAdresleri[i]] */\n      0xffffffffffffffffffffffffffffffffffffffff\n      and\n      0xffffffffffffffffffffffffffffffffffffffff\n      and\n      dup2\n      mstore\n      0x20\n      add\n      swap1\n      dup2\n      mstore\n      0x20\n      add\n      0x00\n      keccak256\n        /* \"contracts/BaseContract.sol\":8256:8307  result[index++]=sertifikaMerkezleri[smAdresleri[i]] */\n      mload(0x40)\n      dup1\n      0x60\n      add\n      0x40\n      mstore\n      swap1\n      dup2\n      0x00\n      dup3\n      add\n      0x00\n      swap1\n      sload\n      swap1\n      0x0100\n      exp\n      swap1\n      div\n      0xff\n      and\n      iszero\n      iszero\n      iszero\n      iszero\n      dup2\n      mstore\n      0x20\n      add\n      0x01\n      dup3\n      add\n      dup1\n      sload\n      tag_608\n      swap1\n      tag_310\n      jump\t// in\n    tag_608:\n      dup1\n      0x1f\n      add\n      0x20\n      dup1\n      swap2\n      div\n      mul\n      0x20\n      add\n      mload(0x40)\n      swap1\n      dup2\n      add\n      0x40\n      mstore\n      dup1\n      swap3\n      swap2\n      swap1\n      dup2\n      dup2\n      mstore\n      0x20\n      add\n      dup3\n      dup1\n      sload\n      tag_609\n      swap1\n      tag_310\n      jump\t// in\n    tag_609:\n      dup1\n      iszero\n      tag_610\n      jumpi\n      dup1\n      0x1f\n      lt\n      tag_611\n      jumpi\n      0x0100\n      dup1\n      dup4\n      sload\n      div\n      mul\n      dup4\n      mstore\n      swap2\n      0x20\n      add\n      swap2\n      jump(tag_610)\n    tag_611:\n      dup3\n      add\n      swap2\n      swap1\n      0x00\n      mstore\n      keccak256(0x00, 0x20)\n      swap1\n    tag_612:\n      dup2\n      sload\n      dup2\n      mstore\n      swap1\n      0x01\n      add\n      swap1\n      0x20\n      add\n      dup1\n      dup4\n      gt\n      tag_612\n      jumpi\n      dup3\n      swap1\n      sub\n      0x1f\n      and\n      dup3\n      add\n      swap2\n    tag_610:\n      pop\n      pop\n      pop\n      pop\n      pop\n      dup2\n      mstore\n      0x20\n      add\n      0x02\n      dup3\n      add\n      0x00\n      swap1\n      sload\n      swap1\n      0x0100\n      exp\n      swap1\n      div\n      0xff\n      and\n      0xff\n      and\n      0xff\n      and\n      dup2\n      mstore\n      pop\n      pop\n        /* \"contracts/BaseContract.sol\":8256:8262  result */\n      dup4\n        /* \"contracts/BaseContract.sol\":8263:8270  index++ */\n      dup4\n      dup1\n      tag_613\n      swap1\n      tag_386\n      jump\t// in\n    tag_613:\n      swap5\n      pop\n        /* \"contracts/BaseContract.sol\":8256:8271  result[index++] */\n      dup2\n      mload\n      dup2\n      lt\n      tag_614\n      jumpi\n      tag_615\n      tag_378\n      jump\t// in\n    tag_615:\n    tag_614:\n      0x20\n      mul\n      0x20\n      add\n      add\n        /* \"contracts/BaseContract.sol\":8256:8307  result[index++]=sertifikaMerkezleri[smAdresleri[i]] */\n      dup2\n      swap1\n      mstore\n      pop\n        /* \"contracts/BaseContract.sol\":8238:8241  i++ */\n      dup1\n      dup1\n      tag_616\n      swap1\n      tag_386\n      jump\t// in\n    tag_616:\n      swap2\n      pop\n      pop\n        /* \"contracts/BaseContract.sol\":8199:8319  for(uint i = 0; i< smAdresleri.length; i++){\r... */\n      jump(tag_602)\n    tag_603:\n      pop\n        /* \"contracts/BaseContract.sol\":8336:8342  result */\n      dup2\n        /* \"contracts/BaseContract.sol\":8329:8342  return result */\n      swap3\n      pop\n      pop\n      pop\n        /* \"contracts/BaseContract.sol\":7998:8350  function getSmListesi() public view returns(SertifikaMerkezi[] memory){\r... */\n      swap1\n      jump\t// out\n    tag_288:\n      dup3\n      dup1\n      sload\n      tag_617\n      swap1\n      tag_310\n      jump\t// in\n    tag_617:\n      swap1\n      0x00\n      mstore\n      keccak256(0x00, 0x20)\n      swap1\n      0x1f\n      add\n      0x20\n      swap1\n      div\n      dup2\n      add\n      swap3\n      dup3\n      tag_619\n      jumpi\n      0x00\n      dup6\n      sstore\n      jump(tag_618)\n    tag_619:\n      dup3\n      0x1f\n      lt\n      tag_620\n      jumpi\n      dup1\n      mload\n      not(0xff)\n      and\n      dup4\n      dup1\n      add\n      or\n      dup6\n      sstore\n      jump(tag_618)\n    tag_620:\n      dup3\n      dup1\n      add\n      0x01\n      add\n      dup6\n      sstore\n      dup3\n      iszero\n      tag_618\n      jumpi\n      swap2\n      dup3\n      add\n    tag_621:\n      dup3\n      dup2\n      gt\n      iszero\n      tag_622\n      jumpi\n      dup3\n      mload\n      dup3\n      sstore\n      swap2\n      0x20\n      add\n      swap2\n      swap1\n      0x01\n      add\n      swap1\n      jump(tag_621)\n    tag_622:\n    tag_618:\n      pop\n      swap1\n      pop\n      tag_623\n      swap2\n      swap1\n      tag_624\n      jump\t// in\n    tag_623:\n      pop\n      swap1\n      jump\t// out\n    tag_321:\n      pop\n      dup1\n      sload\n      tag_625\n      swap1\n      tag_310\n      jump\t// in\n    tag_625:\n      0x00\n      dup3\n      sstore\n      dup1\n      0x1f\n      lt\n      tag_627\n      jumpi\n      pop\n      jump(tag_626)\n    tag_627:\n      0x1f\n      add\n      0x20\n      swap1\n      div\n      swap1\n      0x00\n      mstore\n      keccak256(0x00, 0x20)\n      swap1\n      dup2\n      add\n      swap1\n      tag_628\n      swap2\n      swap1\n      tag_624\n      jump\t// in\n    tag_628:\n    tag_626:\n      pop\n      jump\t// out\n    tag_372:\n      mload(0x40)\n      dup1\n      0x60\n      add\n      0x40\n      mstore\n      dup1\n      iszero(iszero(0x00))\n      dup2\n      mstore\n      0x20\n      add\n      0x60\n      dup2\n      mstore\n      0x20\n      add\n      and(0xff, 0x00)\n      dup2\n      mstore\n      pop\n      swap1\n      jump\t// out\n    tag_420:\n      mload(0x40)\n      dup1\n      0x60\n      add\n      0x40\n      mstore\n      dup1\n      iszero(iszero(0x00))\n      dup2\n      mstore\n      0x20\n      add\n      0x60\n      dup2\n      mstore\n      0x20\n      add\n      and(0xff, 0x00)\n      dup2\n      mstore\n      pop\n      swap1\n      jump\t// out\n    tag_487:\n      mload(0x40)\n      dup1\n      0x60\n      add\n      0x40\n      mstore\n      dup1\n      iszero(iszero(0x00))\n      dup2\n      mstore\n      0x20\n      add\n      0x60\n      dup2\n      mstore\n      0x20\n      add\n      and(0xff, 0x00)\n      dup2\n      mstore\n      pop\n      swap1\n      jump\t// out\n    tag_516:\n      mload(0x40)\n      dup1\n      0x80\n      add\n      0x40\n      mstore\n      dup1\n      iszero(iszero(0x00))\n      dup2\n      mstore\n      0x20\n      add\n      and(0xff, 0x00)\n      dup2\n      mstore\n      0x20\n      add\n      0x00\n      dup2\n      mstore\n      0x20\n      add\n      0x60\n      dup2\n      mstore\n      pop\n      swap1\n      jump\t// out\n    tag_547:\n      mload(0x40)\n      dup1\n      0x60\n      add\n      0x40\n      mstore\n      dup1\n      iszero(iszero(0x00))\n      dup2\n      mstore\n      0x20\n      add\n      0x60\n      dup2\n      mstore\n      0x20\n      add\n      and(0xff, 0x00)\n      dup2\n      mstore\n      pop\n      swap1\n      jump\t// out\n    tag_601:\n      mload(0x40)\n      dup1\n      0x60\n      add\n      0x40\n      mstore\n      dup1\n      iszero(iszero(0x00))\n      dup2\n      mstore\n      0x20\n      add\n      0x60\n      dup2\n      mstore\n      0x20\n      add\n      and(0xff, 0x00)\n      dup2\n      mstore\n      pop\n      swap1\n      jump\t// out\n    tag_624:\n    tag_629:\n      dup1\n      dup3\n      gt\n      iszero\n      tag_630\n      jumpi\n      0x00\n      dup2\n      0x00\n      swap1\n      sstore\n      pop\n      0x01\n      add\n      jump(tag_629)\n    tag_630:\n      pop\n      swap1\n      jump\t// out\n        /* \"#utility.yul\":7:419   */\n    tag_632:\n        /* \"#utility.yul\":85:90   */\n      0x00\n        /* \"#utility.yul\":110:176   */\n      tag_634\n        /* \"#utility.yul\":126:175   */\n      tag_635\n        /* \"#utility.yul\":168:174   */\n      dup5\n        /* \"#utility.yul\":126:175   */\n      tag_636\n      jump\t// in\n    tag_635:\n        /* \"#utility.yul\":110:176   */\n      tag_637\n      jump\t// in\n    tag_634:\n        /* \"#utility.yul\":101:176   */\n      swap1\n      pop\n        /* \"#utility.yul\":199:205   */\n      dup3\n        /* \"#utility.yul\":192:197   */\n      dup2\n        /* \"#utility.yul\":185:206   */\n      mstore\n        /* \"#utility.yul\":237:241   */\n      0x20\n        /* \"#utility.yul\":230:235   */\n      dup2\n        /* \"#utility.yul\":226:242   */\n      add\n        /* \"#utility.yul\":275:278   */\n      dup5\n        /* \"#utility.yul\":266:272   */\n      dup5\n        /* \"#utility.yul\":261:264   */\n      dup5\n        /* \"#utility.yul\":257:273   */\n      add\n        /* \"#utility.yul\":254:279   */\n      gt\n        /* \"#utility.yul\":251:363   */\n      iszero\n      tag_638\n      jumpi\n        /* \"#utility.yul\":282:361   */\n      tag_639\n      tag_640\n      jump\t// in\n    tag_639:\n        /* \"#utility.yul\":251:363   */\n    tag_638:\n        /* \"#utility.yul\":372:413   */\n      tag_641\n        /* \"#utility.yul\":406:412   */\n      dup5\n        /* \"#utility.yul\":401:404   */\n      dup3\n        /* \"#utility.yul\":396:399   */\n      dup6\n        /* \"#utility.yul\":372:413   */\n      tag_642\n      jump\t// in\n    tag_641:\n        /* \"#utility.yul\":91:419   */\n      pop\n        /* \"#utility.yul\":7:419   */\n      swap4\n      swap3\n      pop\n      pop\n      pop\n      jump\t// out\n        /* \"#utility.yul\":425:564   */\n    tag_643:\n        /* \"#utility.yul\":471:476   */\n      0x00\n        /* \"#utility.yul\":509:515   */\n      dup2\n        /* \"#utility.yul\":496:516   */\n      calldataload\n        /* \"#utility.yul\":487:516   */\n      swap1\n      pop\n        /* \"#utility.yul\":525:558   */\n      tag_645\n        /* \"#utility.yul\":552:557   */\n      dup2\n        /* \"#utility.yul\":525:558   */\n      tag_646\n      jump\t// in\n    tag_645:\n        /* \"#utility.yul\":425:564   */\n      swap3\n      swap2\n      pop\n      pop\n      jump\t// out\n        /* \"#utility.yul\":570:703   */\n    tag_647:\n        /* \"#utility.yul\":613:618   */\n      0x00\n        /* \"#utility.yul\":651:657   */\n      dup2\n        /* \"#utility.yul\":638:658   */\n      calldataload\n        /* \"#utility.yul\":629:658   */\n      swap1\n      pop\n        /* \"#utility.yul\":667:697   */\n      tag_649\n        /* \"#utility.yul\":691:696   */\n      dup2\n        /* \"#utility.yul\":667:697   */\n      tag_650\n      jump\t// in\n    tag_649:\n        /* \"#utility.yul\":570:703   */\n      swap3\n      swap2\n      pop\n      pop\n      jump\t// out\n        /* \"#utility.yul\":723:1063   */\n    tag_651:\n        /* \"#utility.yul\":779:784   */\n      0x00\n        /* \"#utility.yul\":828:831   */\n      dup3\n        /* \"#utility.yul\":821:825   */\n      0x1f\n        /* \"#utility.yul\":813:819   */\n      dup4\n        /* \"#utility.yul\":809:826   */\n      add\n        /* \"#utility.yul\":805:832   */\n      slt\n        /* \"#utility.yul\":795:917   */\n      tag_653\n      jumpi\n        /* \"#utility.yul\":836:915   */\n      tag_654\n      tag_655\n      jump\t// in\n    tag_654:\n        /* \"#utility.yul\":795:917   */\n    tag_653:\n        /* \"#utility.yul\":953:959   */\n      dup2\n        /* \"#utility.yul\":940:960   */\n      calldataload\n        /* \"#utility.yul\":978:1057   */\n      tag_656\n        /* \"#utility.yul\":1053:1056   */\n      dup5\n        /* \"#utility.yul\":1045:1051   */\n      dup3\n        /* \"#utility.yul\":1038:1042   */\n      0x20\n        /* \"#utility.yul\":1030:1036   */\n      dup7\n        /* \"#utility.yul\":1026:1043   */\n      add\n        /* \"#utility.yul\":978:1057   */\n      tag_632\n      jump\t// in\n    tag_656:\n        /* \"#utility.yul\":969:1057   */\n      swap2\n      pop\n        /* \"#utility.yul\":785:1063   */\n      pop\n        /* \"#utility.yul\":723:1063   */\n      swap3\n      swap2\n      pop\n      pop\n      jump\t// out\n        /* \"#utility.yul\":1069:1208   */\n    tag_657:\n        /* \"#utility.yul\":1115:1120   */\n      0x00\n        /* \"#utility.yul\":1153:1159   */\n      dup2\n        /* \"#utility.yul\":1140:1160   */\n      calldataload\n        /* \"#utility.yul\":1131:1160   */\n      swap1\n      pop\n        /* \"#utility.yul\":1169:1202   */\n      tag_659\n        /* \"#utility.yul\":1196:1201   */\n      dup2\n        /* \"#utility.yul\":1169:1202   */\n      tag_660\n      jump\t// in\n    tag_659:\n        /* \"#utility.yul\":1069:1208   */\n      swap3\n      swap2\n      pop\n      pop\n      jump\t// out\n        /* \"#utility.yul\":1214:1351   */\n    tag_661:\n        /* \"#utility.yul\":1259:1264   */\n      0x00\n        /* \"#utility.yul\":1297:1303   */\n      dup2\n        /* \"#utility.yul\":1284:1304   */\n      calldataload\n        /* \"#utility.yul\":1275:1304   */\n      swap1\n      pop\n        /* \"#utility.yul\":1313:1345   */\n      tag_663\n        /* \"#utility.yul\":1339:1344   */\n      dup2\n        /* \"#utility.yul\":1313:1345   */\n      tag_664\n      jump\t// in\n    tag_663:\n        /* \"#utility.yul\":1214:1351   */\n      swap3\n      swap2\n      pop\n      pop\n      jump\t// out\n        /* \"#utility.yul\":1357:1492   */\n    tag_665:\n        /* \"#utility.yul\":1401:1406   */\n      0x00\n        /* \"#utility.yul\":1439:1445   */\n      dup2\n        /* \"#utility.yul\":1426:1446   */\n      calldataload\n        /* \"#utility.yul\":1417:1446   */\n      swap1\n      pop\n        /* \"#utility.yul\":1455:1486   */\n      tag_667\n        /* \"#utility.yul\":1480:1485   */\n      dup2\n        /* \"#utility.yul\":1455:1486   */\n      tag_668\n      jump\t// in\n    tag_667:\n        /* \"#utility.yul\":1357:1492   */\n      swap3\n      swap2\n      pop\n      pop\n      jump\t// out\n        /* \"#utility.yul\":1498:1827   */\n    tag_78:\n        /* \"#utility.yul\":1557:1563   */\n      0x00\n        /* \"#utility.yul\":1606:1608   */\n      0x20\n        /* \"#utility.yul\":1594:1603   */\n      dup3\n        /* \"#utility.yul\":1585:1592   */\n      dup5\n        /* \"#utility.yul\":1581:1604   */\n      sub\n        /* \"#utility.yul\":1577:1609   */\n      slt\n        /* \"#utility.yul\":1574:1693   */\n      iszero\n      tag_670\n      jumpi\n        /* \"#utility.yul\":1612:1691   */\n      tag_671\n      tag_672\n      jump\t// in\n    tag_671:\n        /* \"#utility.yul\":1574:1693   */\n    tag_670:\n        /* \"#utility.yul\":1732:1733   */\n      0x00\n        /* \"#utility.yul\":1757:1810   */\n      tag_673\n        /* \"#utility.yul\":1802:1809   */\n      dup5\n        /* \"#utility.yul\":1793:1799   */\n      dup3\n        /* \"#utility.yul\":1782:1791   */\n      dup6\n        /* \"#utility.yul\":1778:1800   */\n      add\n        /* \"#utility.yul\":1757:1810   */\n      tag_643\n      jump\t// in\n    tag_673:\n        /* \"#utility.yul\":1747:1810   */\n      swap2\n      pop\n        /* \"#utility.yul\":1703:1820   */\n      pop\n        /* \"#utility.yul\":1498:1827   */\n      swap3\n      swap2\n      pop\n      pop\n      jump\t// out\n        /* \"#utility.yul\":1833:2452   */\n    tag_128:\n        /* \"#utility.yul\":1910:1916   */\n      0x00\n        /* \"#utility.yul\":1918:1924   */\n      dup1\n        /* \"#utility.yul\":1926:1932   */\n      0x00\n        /* \"#utility.yul\":1975:1977   */\n      0x60\n        /* \"#utility.yul\":1963:1972   */\n      dup5\n        /* \"#utility.yul\":1954:1961   */\n      dup7\n        /* \"#utility.yul\":1950:1973   */\n      sub\n        /* \"#utility.yul\":1946:1978   */\n      slt\n        /* \"#utility.yul\":1943:2062   */\n      iszero\n      tag_675\n      jumpi\n        /* \"#utility.yul\":1981:2060   */\n      tag_676\n      tag_672\n      jump\t// in\n    tag_676:\n        /* \"#utility.yul\":1943:2062   */\n    tag_675:\n        /* \"#utility.yul\":2101:2102   */\n      0x00\n        /* \"#utility.yul\":2126:2179   */\n      tag_677\n        /* \"#utility.yul\":2171:2178   */\n      dup7\n        /* \"#utility.yul\":2162:2168   */\n      dup3\n        /* \"#utility.yul\":2151:2160   */\n      dup8\n        /* \"#utility.yul\":2147:2169   */\n      add\n        /* \"#utility.yul\":2126:2179   */\n      tag_643\n      jump\t// in\n    tag_677:\n        /* \"#utility.yul\":2116:2179   */\n      swap4\n      pop\n        /* \"#utility.yul\":2072:2189   */\n      pop\n        /* \"#utility.yul\":2228:2230   */\n      0x20\n        /* \"#utility.yul\":2254:2307   */\n      tag_678\n        /* \"#utility.yul\":2299:2306   */\n      dup7\n        /* \"#utility.yul\":2290:2296   */\n      dup3\n        /* \"#utility.yul\":2279:2288   */\n      dup8\n        /* \"#utility.yul\":2275:2297   */\n      add\n        /* \"#utility.yul\":2254:2307   */\n      tag_643\n      jump\t// in\n    tag_678:\n        /* \"#utility.yul\":2244:2307   */\n      swap3\n      pop\n        /* \"#utility.yul\":2199:2317   */\n      pop\n        /* \"#utility.yul\":2356:2358   */\n      0x40\n        /* \"#utility.yul\":2382:2435   */\n      tag_679\n        /* \"#utility.yul\":2427:2434   */\n      dup7\n        /* \"#utility.yul\":2418:2424   */\n      dup3\n        /* \"#utility.yul\":2407:2416   */\n      dup8\n        /* \"#utility.yul\":2403:2425   */\n      add\n        /* \"#utility.yul\":2382:2435   */\n      tag_643\n      jump\t// in\n    tag_679:\n        /* \"#utility.yul\":2372:2435   */\n      swap2\n      pop\n        /* \"#utility.yul\":2327:2445   */\n      pop\n        /* \"#utility.yul\":1833:2452   */\n      swap3\n      pop\n      swap3\n      pop\n      swap3\n      jump\t// out\n        /* \"#utility.yul\":2458:2926   */\n    tag_270:\n        /* \"#utility.yul\":2523:2529   */\n      0x00\n        /* \"#utility.yul\":2531:2537   */\n      dup1\n        /* \"#utility.yul\":2580:2582   */\n      0x40\n        /* \"#utility.yul\":2568:2577   */\n      dup4\n        /* \"#utility.yul\":2559:2566   */\n      dup6\n        /* \"#utility.yul\":2555:2578   */\n      sub\n        /* \"#utility.yul\":2551:2583   */\n      slt\n        /* \"#utility.yul\":2548:2667   */\n      iszero\n      tag_681\n      jumpi\n        /* \"#utility.yul\":2586:2665   */\n      tag_682\n      tag_672\n      jump\t// in\n    tag_682:\n        /* \"#utility.yul\":2548:2667   */\n    tag_681:\n        /* \"#utility.yul\":2706:2707   */\n      0x00\n        /* \"#utility.yul\":2731:2784   */\n      tag_683\n        /* \"#utility.yul\":2776:2783   */\n      dup6\n        /* \"#utility.yul\":2767:2773   */\n      dup3\n        /* \"#utility.yul\":2756:2765   */\n      dup7\n        /* \"#utility.yul\":2752:2774   */\n      add\n        /* \"#utility.yul\":2731:2784   */\n      tag_643\n      jump\t// in\n    tag_683:\n        /* \"#utility.yul\":2721:2784   */\n      swap3\n      pop\n        /* \"#utility.yul\":2677:2794   */\n      pop\n        /* \"#utility.yul\":2833:2835   */\n      0x20\n        /* \"#utility.yul\":2859:2909   */\n      tag_684\n        /* \"#utility.yul\":2901:2908   */\n      dup6\n        /* \"#utility.yul\":2892:2898   */\n      dup3\n        /* \"#utility.yul\":2881:2890   */\n      dup7\n        /* \"#utility.yul\":2877:2899   */\n      add\n        /* \"#utility.yul\":2859:2909   */\n      tag_647\n      jump\t// in\n    tag_684:\n        /* \"#utility.yul\":2849:2909   */\n      swap2\n      pop\n        /* \"#utility.yul\":2804:2919   */\n      pop\n        /* \"#utility.yul\":2458:2926   */\n      swap3\n      pop\n      swap3\n      swap1\n      pop\n      jump\t// out\n        /* \"#utility.yul\":2932:3873   */\n    tag_188:\n        /* \"#utility.yul\":3026:3032   */\n      0x00\n        /* \"#utility.yul\":3034:3040   */\n      dup1\n        /* \"#utility.yul\":3042:3048   */\n      0x00\n        /* \"#utility.yul\":3050:3056   */\n      dup1\n        /* \"#utility.yul\":3099:3102   */\n      0x80\n        /* \"#utility.yul\":3087:3096   */\n      dup6\n        /* \"#utility.yul\":3078:3085   */\n      dup8\n        /* \"#utility.yul\":3074:3097   */\n      sub\n        /* \"#utility.yul\":3070:3103   */\n      slt\n        /* \"#utility.yul\":3067:3187   */\n      iszero\n      tag_686\n      jumpi\n        /* \"#utility.yul\":3106:3185   */\n      tag_687\n      tag_672\n      jump\t// in\n    tag_687:\n        /* \"#utility.yul\":3067:3187   */\n    tag_686:\n        /* \"#utility.yul\":3226:3227   */\n      0x00\n        /* \"#utility.yul\":3251:3304   */\n      tag_688\n        /* \"#utility.yul\":3296:3303   */\n      dup8\n        /* \"#utility.yul\":3287:3293   */\n      dup3\n        /* \"#utility.yul\":3276:3285   */\n      dup9\n        /* \"#utility.yul\":3272:3294   */\n      add\n        /* \"#utility.yul\":3251:3304   */\n      tag_643\n      jump\t// in\n    tag_688:\n        /* \"#utility.yul\":3241:3304   */\n      swap5\n      pop\n        /* \"#utility.yul\":3197:3314   */\n      pop\n        /* \"#utility.yul\":3381:3383   */\n      0x20\n        /* \"#utility.yul\":3370:3379   */\n      dup6\n        /* \"#utility.yul\":3366:3384   */\n      add\n        /* \"#utility.yul\":3353:3385   */\n      calldataload\n        /* \"#utility.yul\":3412:3430   */\n      0xffffffffffffffff\n        /* \"#utility.yul\":3404:3410   */\n      dup2\n        /* \"#utility.yul\":3401:3431   */\n      gt\n        /* \"#utility.yul\":3398:3515   */\n      iszero\n      tag_689\n      jumpi\n        /* \"#utility.yul\":3434:3513   */\n      tag_690\n      tag_691\n      jump\t// in\n    tag_690:\n        /* \"#utility.yul\":3398:3515   */\n    tag_689:\n        /* \"#utility.yul\":3539:3602   */\n      tag_692\n        /* \"#utility.yul\":3594:3601   */\n      dup8\n        /* \"#utility.yul\":3585:3591   */\n      dup3\n        /* \"#utility.yul\":3574:3583   */\n      dup9\n        /* \"#utility.yul\":3570:3592   */\n      add\n        /* \"#utility.yul\":3539:3602   */\n      tag_651\n      jump\t// in\n    tag_692:\n        /* \"#utility.yul\":3529:3602   */\n      swap4\n      pop\n        /* \"#utility.yul\":3324:3612   */\n      pop\n        /* \"#utility.yul\":3651:3653   */\n      0x40\n        /* \"#utility.yul\":3677:3730   */\n      tag_693\n        /* \"#utility.yul\":3722:3729   */\n      dup8\n        /* \"#utility.yul\":3713:3719   */\n      dup3\n        /* \"#utility.yul\":3702:3711   */\n      dup9\n        /* \"#utility.yul\":3698:3720   */\n      add\n        /* \"#utility.yul\":3677:3730   */\n      tag_657\n      jump\t// in\n    tag_693:\n        /* \"#utility.yul\":3667:3730   */\n      swap3\n      pop\n        /* \"#utility.yul\":3622:3740   */\n      pop\n        /* \"#utility.yul\":3779:3781   */\n      0x60\n        /* \"#utility.yul\":3805:3856   */\n      tag_694\n        /* \"#utility.yul\":3848:3855   */\n      dup8\n        /* \"#utility.yul\":3839:3845   */\n      dup3\n        /* \"#utility.yul\":3828:3837   */\n      dup9\n        /* \"#utility.yul\":3824:3846   */\n      add\n        /* \"#utility.yul\":3805:3856   */\n      tag_665\n      jump\t// in\n    tag_694:\n        /* \"#utility.yul\":3795:3856   */\n      swap2\n      pop\n        /* \"#utility.yul\":3750:3866   */\n      pop\n        /* \"#utility.yul\":2932:3873   */\n      swap3\n      swap6\n      swap2\n      swap5\n      pop\n      swap3\n      pop\n      jump\t// out\n        /* \"#utility.yul\":3879:4674   */\n    tag_74:\n        /* \"#utility.yul\":3964:3970   */\n      0x00\n        /* \"#utility.yul\":3972:3978   */\n      dup1\n        /* \"#utility.yul\":3980:3986   */\n      0x00\n        /* \"#utility.yul\":4029:4031   */\n      0x60\n        /* \"#utility.yul\":4017:4026   */\n      dup5\n        /* \"#utility.yul\":4008:4015   */\n      dup7\n        /* \"#utility.yul\":4004:4027   */\n      sub\n        /* \"#utility.yul\":4000:4032   */\n      slt\n        /* \"#utility.yul\":3997:4116   */\n      iszero\n      tag_696\n      jumpi\n        /* \"#utility.yul\":4035:4114   */\n      tag_697\n      tag_672\n      jump\t// in\n    tag_697:\n        /* \"#utility.yul\":3997:4116   */\n    tag_696:\n        /* \"#utility.yul\":4155:4156   */\n      0x00\n        /* \"#utility.yul\":4180:4233   */\n      tag_698\n        /* \"#utility.yul\":4225:4232   */\n      dup7\n        /* \"#utility.yul\":4216:4222   */\n      dup3\n        /* \"#utility.yul\":4205:4214   */\n      dup8\n        /* \"#utility.yul\":4201:4223   */\n      add\n        /* \"#utility.yul\":4180:4233   */\n      tag_643\n      jump\t// in\n    tag_698:\n        /* \"#utility.yul\":4170:4233   */\n      swap4\n      pop\n        /* \"#utility.yul\":4126:4243   */\n      pop\n        /* \"#utility.yul\":4310:4312   */\n      0x20\n        /* \"#utility.yul\":4299:4308   */\n      dup5\n        /* \"#utility.yul\":4295:4313   */\n      add\n        /* \"#utility.yul\":4282:4314   */\n      calldataload\n        /* \"#utility.yul\":4341:4359   */\n      0xffffffffffffffff\n        /* \"#utility.yul\":4333:4339   */\n      dup2\n        /* \"#utility.yul\":4330:4360   */\n      gt\n        /* \"#utility.yul\":4327:4444   */\n      iszero\n      tag_699\n      jumpi\n        /* \"#utility.yul\":4363:4442   */\n      tag_700\n      tag_691\n      jump\t// in\n    tag_700:\n        /* \"#utility.yul\":4327:4444   */\n    tag_699:\n        /* \"#utility.yul\":4468:4531   */\n      tag_701\n        /* \"#utility.yul\":4523:4530   */\n      dup7\n        /* \"#utility.yul\":4514:4520   */\n      dup3\n        /* \"#utility.yul\":4503:4512   */\n      dup8\n        /* \"#utility.yul\":4499:4521   */\n      add\n        /* \"#utility.yul\":4468:4531   */\n      tag_651\n      jump\t// in\n    tag_701:\n        /* \"#utility.yul\":4458:4531   */\n      swap3\n      pop\n        /* \"#utility.yul\":4253:4541   */\n      pop\n        /* \"#utility.yul\":4580:4582   */\n      0x40\n        /* \"#utility.yul\":4606:4657   */\n      tag_702\n        /* \"#utility.yul\":4649:4656   */\n      dup7\n        /* \"#utility.yul\":4640:4646   */\n      dup3\n        /* \"#utility.yul\":4629:4638   */\n      dup8\n        /* \"#utility.yul\":4625:4647   */\n      add\n        /* \"#utility.yul\":4606:4657   */\n      tag_665\n      jump\t// in\n    tag_702:\n        /* \"#utility.yul\":4596:4657   */\n      swap2\n      pop\n        /* \"#utility.yul\":4551:4667   */\n      pop\n        /* \"#utility.yul\":3879:4674   */\n      swap3\n      pop\n      swap3\n      pop\n      swap3\n      jump\t// out\n        /* \"#utility.yul\":4680:5009   */\n    tag_84:\n        /* \"#utility.yul\":4739:4745   */\n      0x00\n        /* \"#utility.yul\":4788:4790   */\n      0x20\n        /* \"#utility.yul\":4776:4785   */\n      dup3\n        /* \"#utility.yul\":4767:4774   */\n      dup5\n        /* \"#utility.yul\":4763:4786   */\n      sub\n        /* \"#utility.yul\":4759:4791   */\n      slt\n        /* \"#utility.yul\":4756:4875   */\n      iszero\n      tag_704\n      jumpi\n        /* \"#utility.yul\":4794:4873   */\n      tag_705\n      tag_672\n      jump\t// in\n    tag_705:\n        /* \"#utility.yul\":4756:4875   */\n    tag_704:\n        /* \"#utility.yul\":4914:4915   */\n      0x00\n        /* \"#utility.yul\":4939:4992   */\n      tag_706\n        /* \"#utility.yul\":4984:4991   */\n      dup5\n        /* \"#utility.yul\":4975:4981   */\n      dup3\n        /* \"#utility.yul\":4964:4973   */\n      dup6\n        /* \"#utility.yul\":4960:4982   */\n      add\n        /* \"#utility.yul\":4939:4992   */\n      tag_657\n      jump\t// in\n    tag_706:\n        /* \"#utility.yul\":4929:4992   */\n      swap2\n      pop\n        /* \"#utility.yul\":4885:5002   */\n      pop\n        /* \"#utility.yul\":4680:5009   */\n      swap3\n      swap2\n      pop\n      pop\n      jump\t// out\n        /* \"#utility.yul\":5015:5342   */\n    tag_182:\n        /* \"#utility.yul\":5073:5079   */\n      0x00\n        /* \"#utility.yul\":5122:5124   */\n      0x20\n        /* \"#utility.yul\":5110:5119   */\n      dup3\n        /* \"#utility.yul\":5101:5108   */\n      dup5\n        /* \"#utility.yul\":5097:5120   */\n      sub\n        /* \"#utility.yul\":5093:5125   */\n      slt\n        /* \"#utility.yul\":5090:5209   */\n      iszero\n      tag_708\n      jumpi\n        /* \"#utility.yul\":5128:5207   */\n      tag_709\n      tag_672\n      jump\t// in\n    tag_709:\n        /* \"#utility.yul\":5090:5209   */\n    tag_708:\n        /* \"#utility.yul\":5248:5249   */\n      0x00\n        /* \"#utility.yul\":5273:5325   */\n      tag_710\n        /* \"#utility.yul\":5317:5324   */\n      dup5\n        /* \"#utility.yul\":5308:5314   */\n      dup3\n        /* \"#utility.yul\":5297:5306   */\n      dup6\n        /* \"#utility.yul\":5293:5315   */\n      add\n        /* \"#utility.yul\":5273:5325   */\n      tag_661\n      jump\t// in\n    tag_710:\n        /* \"#utility.yul\":5263:5325   */\n      swap2\n      pop\n        /* \"#utility.yul\":5219:5335   */\n      pop\n        /* \"#utility.yul\":5015:5342   */\n      swap3\n      swap2\n      pop\n      pop\n      jump\t// out\n        /* \"#utility.yul\":5348:5592   */\n    tag_711:\n        /* \"#utility.yul\":5461:5471   */\n      0x00\n        /* \"#utility.yul\":5496:5586   */\n      tag_713\n        /* \"#utility.yul\":5582:5585   */\n      dup4\n        /* \"#utility.yul\":5574:5580   */\n      dup4\n        /* \"#utility.yul\":5496:5586   */\n      tag_714\n      jump\t// in\n    tag_713:\n        /* \"#utility.yul\":5482:5586   */\n      swap1\n      pop\n        /* \"#utility.yul\":5348:5592   */\n      swap3\n      swap2\n      pop\n      pop\n      jump\t// out\n        /* \"#utility.yul\":5598:5862   */\n    tag_715:\n        /* \"#utility.yul\":5721:5731   */\n      0x00\n        /* \"#utility.yul\":5756:5856   */\n      tag_717\n        /* \"#utility.yul\":5852:5855   */\n      dup4\n        /* \"#utility.yul\":5844:5850   */\n      dup4\n        /* \"#utility.yul\":5756:5856   */\n      tag_718\n      jump\t// in\n    tag_717:\n        /* \"#utility.yul\":5742:5856   */\n      swap1\n      pop\n        /* \"#utility.yul\":5598:5862   */\n      swap3\n      swap2\n      pop\n      pop\n      jump\t// out\n        /* \"#utility.yul\":5868:6108   */\n    tag_719:\n        /* \"#utility.yul\":5979:5989   */\n      0x00\n        /* \"#utility.yul\":6014:6102   */\n      tag_721\n        /* \"#utility.yul\":6098:6101   */\n      dup4\n        /* \"#utility.yul\":6090:6096   */\n      dup4\n        /* \"#utility.yul\":6014:6102   */\n      tag_722\n      jump\t// in\n    tag_721:\n        /* \"#utility.yul\":6000:6102   */\n      swap1\n      pop\n        /* \"#utility.yul\":5868:6108   */\n      swap3\n      swap2\n      pop\n      pop\n      jump\t// out\n        /* \"#utility.yul\":6114:6350   */\n    tag_723:\n        /* \"#utility.yul\":6223:6233   */\n      0x00\n        /* \"#utility.yul\":6258:6344   */\n      tag_725\n        /* \"#utility.yul\":6340:6343   */\n      dup4\n        /* \"#utility.yul\":6332:6338   */\n      dup4\n        /* \"#utility.yul\":6258:6344   */\n      tag_726\n      jump\t// in\n    tag_725:\n        /* \"#utility.yul\":6244:6344   */\n      swap1\n      pop\n        /* \"#utility.yul\":6114:6350   */\n      swap3\n      swap2\n      pop\n      pop\n      jump\t// out\n        /* \"#utility.yul\":6356:6644   */\n    tag_727:\n        /* \"#utility.yul\":6491:6501   */\n      0x00\n        /* \"#utility.yul\":6526:6638   */\n      tag_729\n        /* \"#utility.yul\":6634:6637   */\n      dup4\n        /* \"#utility.yul\":6626:6632   */\n      dup4\n        /* \"#utility.yul\":6526:6638   */\n      tag_730\n      jump\t// in\n    tag_729:\n        /* \"#utility.yul\":6512:6638   */\n      swap1\n      pop\n        /* \"#utility.yul\":6356:6644   */\n      swap3\n      swap2\n      pop\n      pop\n      jump\t// out\n        /* \"#utility.yul\":6650:6910   */\n    tag_731:\n        /* \"#utility.yul\":6771:6781   */\n      0x00\n        /* \"#utility.yul\":6806:6904   */\n      tag_733\n        /* \"#utility.yul\":6900:6903   */\n      dup4\n        /* \"#utility.yul\":6892:6898   */\n      dup4\n        /* \"#utility.yul\":6806:6904   */\n      tag_734\n      jump\t// in\n    tag_733:\n        /* \"#utility.yul\":6792:6904   */\n      swap1\n      pop\n        /* \"#utility.yul\":6650:6910   */\n      swap3\n      swap2\n      pop\n      pop\n      jump\t// out\n        /* \"#utility.yul\":6916:7034   */\n    tag_735:\n        /* \"#utility.yul\":7003:7027   */\n      tag_737\n        /* \"#utility.yul\":7021:7026   */\n      dup2\n        /* \"#utility.yul\":7003:7027   */\n      tag_738\n      jump\t// in\n    tag_737:\n        /* \"#utility.yul\":6998:7001   */\n      dup3\n        /* \"#utility.yul\":6991:7028   */\n      mstore\n        /* \"#utility.yul\":6916:7034   */\n      pop\n      pop\n      jump\t// out\n        /* \"#utility.yul\":7106:8193   */\n    tag_739:\n        /* \"#utility.yul\":7269:7272   */\n      0x00\n        /* \"#utility.yul\":7298:7374   */\n      tag_741\n        /* \"#utility.yul\":7368:7373   */\n      dup3\n        /* \"#utility.yul\":7298:7374   */\n      tag_742\n      jump\t// in\n    tag_741:\n        /* \"#utility.yul\":7390:7498   */\n      tag_743\n        /* \"#utility.yul\":7491:7497   */\n      dup2\n        /* \"#utility.yul\":7486:7489   */\n      dup6\n        /* \"#utility.yul\":7390:7498   */\n      tag_744\n      jump\t// in\n    tag_743:\n        /* \"#utility.yul\":7383:7498   */\n      swap4\n      pop\n        /* \"#utility.yul\":7524:7527   */\n      dup4\n        /* \"#utility.yul\":7569:7573   */\n      0x20\n        /* \"#utility.yul\":7561:7567   */\n      dup3\n        /* \"#utility.yul\":7557:7574   */\n      mul\n        /* \"#utility.yul\":7552:7555   */\n      dup6\n        /* \"#utility.yul\":7548:7575   */\n      add\n        /* \"#utility.yul\":7599:7677   */\n      tag_745\n        /* \"#utility.yul\":7671:7676   */\n      dup6\n        /* \"#utility.yul\":7599:7677   */\n      tag_746\n      jump\t// in\n    tag_745:\n        /* \"#utility.yul\":7700:7707   */\n      dup1\n        /* \"#utility.yul\":7731:7732   */\n      0x00\n        /* \"#utility.yul\":7716:8148   */\n    tag_747:\n        /* \"#utility.yul\":7741:7747   */\n      dup6\n        /* \"#utility.yul\":7738:7739   */\n      dup2\n        /* \"#utility.yul\":7735:7748   */\n      lt\n        /* \"#utility.yul\":7716:8148   */\n      iszero\n      tag_749\n      jumpi\n        /* \"#utility.yul\":7812:7821   */\n      dup5\n        /* \"#utility.yul\":7806:7810   */\n      dup5\n        /* \"#utility.yul\":7802:7822   */\n      sub\n        /* \"#utility.yul\":7797:7800   */\n      dup10\n        /* \"#utility.yul\":7790:7823   */\n      mstore\n        /* \"#utility.yul\":7863:7869   */\n      dup2\n        /* \"#utility.yul\":7857:7870   */\n      mload\n        /* \"#utility.yul\":7891:7999   */\n      tag_750\n        /* \"#utility.yul\":7994:7998   */\n      dup6\n        /* \"#utility.yul\":7979:7992   */\n      dup3\n        /* \"#utility.yul\":7891:7999   */\n      tag_711\n      jump\t// in\n    tag_750:\n        /* \"#utility.yul\":7883:7999   */\n      swap5\n      pop\n        /* \"#utility.yul\":8022:8104   */\n      tag_751\n        /* \"#utility.yul\":8097:8103   */\n      dup4\n        /* \"#utility.yul\":8022:8104   */\n      tag_752\n      jump\t// in\n    tag_751:\n        /* \"#utility.yul\":8012:8104   */\n      swap3\n      pop\n        /* \"#utility.yul\":8133:8137   */\n      0x20\n        /* \"#utility.yul\":8128:8131   */\n      dup11\n        /* \"#utility.yul\":8124:8138   */\n      add\n        /* \"#utility.yul\":8117:8138   */\n      swap10\n      pop\n        /* \"#utility.yul\":7776:8148   */\n      pop\n        /* \"#utility.yul\":7763:7764   */\n      0x01\n        /* \"#utility.yul\":7760:7761   */\n      dup2\n        /* \"#utility.yul\":7756:7765   */\n      add\n        /* \"#utility.yul\":7751:7765   */\n      swap1\n      pop\n        /* \"#utility.yul\":7716:8148   */\n      jump(tag_747)\n    tag_749:\n        /* \"#utility.yul\":7720:7734   */\n      pop\n        /* \"#utility.yul\":8164:8168   */\n      dup3\n        /* \"#utility.yul\":8157:8168   */\n      swap8\n      pop\n        /* \"#utility.yul\":8184:8187   */\n      dup8\n        /* \"#utility.yul\":8177:8187   */\n      swap6\n      pop\n        /* \"#utility.yul\":7274:8193   */\n      pop\n      pop\n      pop\n      pop\n      pop\n        /* \"#utility.yul\":7106:8193   */\n      swap3\n      swap2\n      pop\n      pop\n      jump\t// out\n        /* \"#utility.yul\":8275:9402   */\n    tag_753:\n        /* \"#utility.yul\":8448:8451   */\n      0x00\n        /* \"#utility.yul\":8477:8558   */\n      tag_755\n        /* \"#utility.yul\":8552:8557   */\n      dup3\n        /* \"#utility.yul\":8477:8558   */\n      tag_756\n      jump\t// in\n    tag_755:\n        /* \"#utility.yul\":8574:8687   */\n      tag_757\n        /* \"#utility.yul\":8680:8686   */\n      dup2\n        /* \"#utility.yul\":8675:8678   */\n      dup6\n        /* \"#utility.yul\":8574:8687   */\n      tag_758\n      jump\t// in\n    tag_757:\n        /* \"#utility.yul\":8567:8687   */\n      swap4\n      pop\n        /* \"#utility.yul\":8713:8716   */\n      dup4\n        /* \"#utility.yul\":8758:8762   */\n      0x20\n        /* \"#utility.yul\":8750:8756   */\n      dup3\n        /* \"#utility.yul\":8746:8763   */\n      mul\n        /* \"#utility.yul\":8741:8744   */\n      dup6\n        /* \"#utility.yul\":8737:8764   */\n      add\n        /* \"#utility.yul\":8788:8871   */\n      tag_759\n        /* \"#utility.yul\":8865:8870   */\n      dup6\n        /* \"#utility.yul\":8788:8871   */\n      tag_760\n      jump\t// in\n    tag_759:\n        /* \"#utility.yul\":8894:8901   */\n      dup1\n        /* \"#utility.yul\":8925:8926   */\n      0x00\n        /* \"#utility.yul\":8910:9357   */\n    tag_761:\n        /* \"#utility.yul\":8935:8941   */\n      dup6\n        /* \"#utility.yul\":8932:8933   */\n      dup2\n        /* \"#utility.yul\":8929:8942   */\n      lt\n        /* \"#utility.yul\":8910:9357   */\n      iszero\n      tag_763\n      jumpi\n        /* \"#utility.yul\":9006:9015   */\n      dup5\n        /* \"#utility.yul\":9000:9004   */\n      dup5\n        /* \"#utility.yul\":8996:9016   */\n      sub\n        /* \"#utility.yul\":8991:8994   */\n      dup10\n        /* \"#utility.yul\":8984:9017   */\n      mstore\n        /* \"#utility.yul\":9057:9063   */\n      dup2\n        /* \"#utility.yul\":9051:9064   */\n      mload\n        /* \"#utility.yul\":9085:9203   */\n      tag_764\n        /* \"#utility.yul\":9198:9202   */\n      dup6\n        /* \"#utility.yul\":9183:9196   */\n      dup3\n        /* \"#utility.yul\":9085:9203   */\n      tag_715\n      jump\t// in\n    tag_764:\n        /* \"#utility.yul\":9077:9203   */\n      swap5\n      pop\n        /* \"#utility.yul\":9226:9313   */\n      tag_765\n        /* \"#utility.yul\":9306:9312   */\n      dup4\n        /* \"#utility.yul\":9226:9313   */\n      tag_766\n      jump\t// in\n    tag_765:\n        /* \"#utility.yul\":9216:9313   */\n      swap3\n      pop\n        /* \"#utility.yul\":9342:9346   */\n      0x20\n        /* \"#utility.yul\":9337:9340   */\n      dup11\n        /* \"#utility.yul\":9333:9347   */\n      add\n        /* \"#utility.yul\":9326:9347   */\n      swap10\n      pop\n        /* \"#utility.yul\":8970:9357   */\n      pop\n        /* \"#utility.yul\":8957:8958   */\n      0x01\n        /* \"#utility.yul\":8954:8955   */\n      dup2\n        /* \"#utility.yul\":8950:8959   */\n      add\n        /* \"#utility.yul\":8945:8959   */\n      swap1\n      pop\n        /* \"#utility.yul\":8910:9357   */\n      jump(tag_761)\n    tag_763:\n        /* \"#utility.yul\":8914:8928   */\n      pop\n        /* \"#utility.yul\":9373:9377   */\n      dup3\n        /* \"#utility.yul\":9366:9377   */\n      swap8\n      pop\n        /* \"#utility.yul\":9393:9396   */\n      dup8\n        /* \"#utility.yul\":9386:9396   */\n      swap6\n      pop\n        /* \"#utility.yul\":8453:9402   */\n      pop\n      pop\n      pop\n      pop\n      pop\n        /* \"#utility.yul\":8275:9402   */\n      swap3\n      swap2\n      pop\n      pop\n      jump\t// out\n        /* \"#utility.yul\":9472:10551   */\n    tag_767:\n        /* \"#utility.yul\":9633:9636   */\n      0x00\n        /* \"#utility.yul\":9662:9737   */\n      tag_769\n        /* \"#utility.yul\":9731:9736   */\n      dup3\n        /* \"#utility.yul\":9662:9737   */\n      tag_770\n      jump\t// in\n    tag_769:\n        /* \"#utility.yul\":9753:9860   */\n      tag_771\n        /* \"#utility.yul\":9853:9859   */\n      dup2\n        /* \"#utility.yul\":9848:9851   */\n      dup6\n        /* \"#utility.yul\":9753:9860   */\n      tag_772\n      jump\t// in\n    tag_771:\n        /* \"#utility.yul\":9746:9860   */\n      swap4\n      pop\n        /* \"#utility.yul\":9886:9889   */\n      dup4\n        /* \"#utility.yul\":9931:9935   */\n      0x20\n        /* \"#utility.yul\":9923:9929   */\n      dup3\n        /* \"#utility.yul\":9919:9936   */\n      mul\n        /* \"#utility.yul\":9914:9917   */\n      dup6\n        /* \"#utility.yul\":9910:9937   */\n      add\n        /* \"#utility.yul\":9961:10038   */\n      tag_773\n        /* \"#utility.yul\":10032:10037   */\n      dup6\n        /* \"#utility.yul\":9961:10038   */\n      tag_774\n      jump\t// in\n    tag_773:\n        /* \"#utility.yul\":10061:10068   */\n      dup1\n        /* \"#utility.yul\":10092:10093   */\n      0x00\n        /* \"#utility.yul\":10077:10506   */\n    tag_775:\n        /* \"#utility.yul\":10102:10108   */\n      dup6\n        /* \"#utility.yul\":10099:10100   */\n      dup2\n        /* \"#utility.yul\":10096:10109   */\n      lt\n        /* \"#utility.yul\":10077:10506   */\n      iszero\n      tag_777\n      jumpi\n        /* \"#utility.yul\":10173:10182   */\n      dup5\n        /* \"#utility.yul\":10167:10171   */\n      dup5\n        /* \"#utility.yul\":10163:10183   */\n      sub\n        /* \"#utility.yul\":10158:10161   */\n      dup10\n        /* \"#utility.yul\":10151:10184   */\n      mstore\n        /* \"#utility.yul\":10224:10230   */\n      dup2\n        /* \"#utility.yul\":10218:10231   */\n      mload\n        /* \"#utility.yul\":10252:10358   */\n      tag_778\n        /* \"#utility.yul\":10353:10357   */\n      dup6\n        /* \"#utility.yul\":10338:10351   */\n      dup3\n        /* \"#utility.yul\":10252:10358   */\n      tag_719\n      jump\t// in\n    tag_778:\n        /* \"#utility.yul\":10244:10358   */\n      swap5\n      pop\n        /* \"#utility.yul\":10381:10462   */\n      tag_779\n        /* \"#utility.yul\":10455:10461   */\n      dup4\n        /* \"#utility.yul\":10381:10462   */\n      tag_780\n      jump\t// in\n    tag_779:\n        /* \"#utility.yul\":10371:10462   */\n      swap3\n      pop\n        /* \"#utility.yul\":10491:10495   */\n      0x20\n        /* \"#utility.yul\":10486:10489   */\n      dup11\n        /* \"#utility.yul\":10482:10496   */\n      add\n        /* \"#utility.yul\":10475:10496   */\n      swap10\n      pop\n        /* \"#utility.yul\":10137:10506   */\n      pop\n        /* \"#utility.yul\":10124:10125   */\n      0x01\n        /* \"#utility.yul\":10121:10122   */\n      dup2\n        /* \"#utility.yul\":10117:10126   */\n      add\n        /* \"#utility.yul\":10112:10126   */\n      swap1\n      pop\n        /* \"#utility.yul\":10077:10506   */\n      jump(tag_775)\n    tag_777:\n        /* \"#utility.yul\":10081:10095   */\n      pop\n        /* \"#utility.yul\":10522:10526   */\n      dup3\n        /* \"#utility.yul\":10515:10526   */\n      swap8\n      pop\n        /* \"#utility.yul\":10542:10545   */\n      dup8\n        /* \"#utility.yul\":10535:10545   */\n      swap6\n      pop\n        /* \"#utility.yul\":9638:10551   */\n      pop\n      pop\n      pop\n      pop\n      pop\n        /* \"#utility.yul\":9472:10551   */\n      swap3\n      swap2\n      pop\n      pop\n      jump\t// out\n        /* \"#utility.yul\":10619:11690   */\n    tag_781:\n        /* \"#utility.yul\":10778:10781   */\n      0x00\n        /* \"#utility.yul\":10807:10881   */\n      tag_783\n        /* \"#utility.yul\":10875:10880   */\n      dup3\n        /* \"#utility.yul\":10807:10881   */\n      tag_784\n      jump\t// in\n    tag_783:\n        /* \"#utility.yul\":10897:11003   */\n      tag_785\n        /* \"#utility.yul\":10996:11002   */\n      dup2\n        /* \"#utility.yul\":10991:10994   */\n      dup6\n        /* \"#utility.yul\":10897:11003   */\n      tag_786\n      jump\t// in\n    tag_785:\n        /* \"#utility.yul\":10890:11003   */\n      swap4\n      pop\n        /* \"#utility.yul\":11029:11032   */\n      dup4\n        /* \"#utility.yul\":11074:11078   */\n      0x20\n        /* \"#utility.yul\":11066:11072   */\n      dup3\n        /* \"#utility.yul\":11062:11079   */\n      mul\n        /* \"#utility.yul\":11057:11060   */\n      dup6\n        /* \"#utility.yul\":11053:11080   */\n      add\n        /* \"#utility.yul\":11104:11180   */\n      tag_787\n        /* \"#utility.yul\":11174:11179   */\n      dup6\n        /* \"#utility.yul\":11104:11180   */\n      tag_788\n      jump\t// in\n    tag_787:\n        /* \"#utility.yul\":11203:11210   */\n      dup1\n        /* \"#utility.yul\":11234:11235   */\n      0x00\n        /* \"#utility.yul\":11219:11645   */\n    tag_789:\n        /* \"#utility.yul\":11244:11250   */\n      dup6\n        /* \"#utility.yul\":11241:11242   */\n      dup2\n        /* \"#utility.yul\":11238:11251   */\n      lt\n        /* \"#utility.yul\":11219:11645   */\n      iszero\n      tag_791\n      jumpi\n        /* \"#utility.yul\":11315:11324   */\n      dup5\n        /* \"#utility.yul\":11309:11313   */\n      dup5\n        /* \"#utility.yul\":11305:11325   */\n      sub\n        /* \"#utility.yul\":11300:11303   */\n      dup10\n        /* \"#utility.yul\":11293:11326   */\n      mstore\n        /* \"#utility.yul\":11366:11372   */\n      dup2\n        /* \"#utility.yul\":11360:11373   */\n      mload\n        /* \"#utility.yul\":11394:11498   */\n      tag_792\n        /* \"#utility.yul\":11493:11497   */\n      dup6\n        /* \"#utility.yul\":11478:11491   */\n      dup3\n        /* \"#utility.yul\":11394:11498   */\n      tag_723\n      jump\t// in\n    tag_792:\n        /* \"#utility.yul\":11386:11498   */\n      swap5\n      pop\n        /* \"#utility.yul\":11521:11601   */\n      tag_793\n        /* \"#utility.yul\":11594:11600   */\n      dup4\n        /* \"#utility.yul\":11521:11601   */\n      tag_794\n      jump\t// in\n    tag_793:\n        /* \"#utility.yul\":11511:11601   */\n      swap3\n      pop\n        /* \"#utility.yul\":11630:11634   */\n      0x20\n        /* \"#utility.yul\":11625:11628   */\n      dup11\n        /* \"#utility.yul\":11621:11635   */\n      add\n        /* \"#utility.yul\":11614:11635   */\n      swap10\n      pop\n        /* \"#utility.yul\":11279:11645   */\n      pop\n        /* \"#utility.yul\":11266:11267   */\n      0x01\n        /* \"#utility.yul\":11263:11264   */\n      dup2\n        /* \"#utility.yul\":11259:11268   */\n      add\n        /* \"#utility.yul\":11254:11268   */\n      swap1\n      pop\n        /* \"#utility.yul\":11219:11645   */\n      jump(tag_789)\n    tag_791:\n        /* \"#utility.yul\":11223:11237   */\n      pop\n        /* \"#utility.yul\":11661:11665   */\n      dup3\n        /* \"#utility.yul\":11654:11665   */\n      swap8\n      pop\n        /* \"#utility.yul\":11681:11684   */\n      dup8\n        /* \"#utility.yul\":11674:11684   */\n      swap6\n      pop\n        /* \"#utility.yul\":10783:11690   */\n      pop\n      pop\n      pop\n      pop\n      pop\n        /* \"#utility.yul\":10619:11690   */\n      swap3\n      swap2\n      pop\n      pop\n      jump\t// out\n        /* \"#utility.yul\":11784:12959   */\n    tag_795:\n        /* \"#utility.yul\":11969:11972   */\n      0x00\n        /* \"#utility.yul\":11998:12085   */\n      tag_797\n        /* \"#utility.yul\":12079:12084   */\n      dup3\n        /* \"#utility.yul\":11998:12085   */\n      tag_798\n      jump\t// in\n    tag_797:\n        /* \"#utility.yul\":12101:12220   */\n      tag_799\n        /* \"#utility.yul\":12213:12219   */\n      dup2\n        /* \"#utility.yul\":12208:12211   */\n      dup6\n        /* \"#utility.yul\":12101:12220   */\n      tag_800\n      jump\t// in\n    tag_799:\n        /* \"#utility.yul\":12094:12220   */\n      swap4\n      pop\n        /* \"#utility.yul\":12246:12249   */\n      dup4\n        /* \"#utility.yul\":12291:12295   */\n      0x20\n        /* \"#utility.yul\":12283:12289   */\n      dup3\n        /* \"#utility.yul\":12279:12296   */\n      mul\n        /* \"#utility.yul\":12274:12277   */\n      dup6\n        /* \"#utility.yul\":12270:12297   */\n      add\n        /* \"#utility.yul\":12321:12410   */\n      tag_801\n        /* \"#utility.yul\":12404:12409   */\n      dup6\n        /* \"#utility.yul\":12321:12410   */\n      tag_802\n      jump\t// in\n    tag_801:\n        /* \"#utility.yul\":12433:12440   */\n      dup1\n        /* \"#utility.yul\":12464:12465   */\n      0x00\n        /* \"#utility.yul\":12449:12914   */\n    tag_803:\n        /* \"#utility.yul\":12474:12480   */\n      dup6\n        /* \"#utility.yul\":12471:12472   */\n      dup2\n        /* \"#utility.yul\":12468:12481   */\n      lt\n        /* \"#utility.yul\":12449:12914   */\n      iszero\n      tag_805\n      jumpi\n        /* \"#utility.yul\":12545:12554   */\n      dup5\n        /* \"#utility.yul\":12539:12543   */\n      dup5\n        /* \"#utility.yul\":12535:12555   */\n      sub\n        /* \"#utility.yul\":12530:12533   */\n      dup10\n        /* \"#utility.yul\":12523:12556   */\n      mstore\n        /* \"#utility.yul\":12596:12602   */\n      dup2\n        /* \"#utility.yul\":12590:12603   */\n      mload\n        /* \"#utility.yul\":12624:12754   */\n      tag_806\n        /* \"#utility.yul\":12749:12753   */\n      dup6\n        /* \"#utility.yul\":12734:12747   */\n      dup3\n        /* \"#utility.yul\":12624:12754   */\n      tag_727\n      jump\t// in\n    tag_806:\n        /* \"#utility.yul\":12616:12754   */\n      swap5\n      pop\n        /* \"#utility.yul\":12777:12870   */\n      tag_807\n        /* \"#utility.yul\":12863:12869   */\n      dup4\n        /* \"#utility.yul\":12777:12870   */\n      tag_808\n      jump\t// in\n    tag_807:\n        /* \"#utility.yul\":12767:12870   */\n      swap3\n      pop\n        /* \"#utility.yul\":12899:12903   */\n      0x20\n        /* \"#utility.yul\":12894:12897   */\n      dup11\n        /* \"#utility.yul\":12890:12904   */\n      add\n        /* \"#utility.yul\":12883:12904   */\n      swap10\n      pop\n        /* \"#utility.yul\":12509:12914   */\n      pop\n        /* \"#utility.yul\":12496:12497   */\n      0x01\n        /* \"#utility.yul\":12493:12494   */\n      dup2\n        /* \"#utility.yul\":12489:12498   */\n      add\n        /* \"#utility.yul\":12484:12498   */\n      swap1\n      pop\n        /* \"#utility.yul\":12449:12914   */\n      jump(tag_803)\n    tag_805:\n        /* \"#utility.yul\":12453:12467   */\n      pop\n        /* \"#utility.yul\":12930:12934   */\n      dup3\n        /* \"#utility.yul\":12923:12934   */\n      swap8\n      pop\n        /* \"#utility.yul\":12950:12953   */\n      dup8\n        /* \"#utility.yul\":12943:12953   */\n      swap6\n      pop\n        /* \"#utility.yul\":11974:12959   */\n      pop\n      pop\n      pop\n      pop\n      pop\n        /* \"#utility.yul\":11784:12959   */\n      swap3\n      swap2\n      pop\n      pop\n      jump\t// out\n        /* \"#utility.yul\":13041:14160   */\n    tag_809:\n        /* \"#utility.yul\":13212:13215   */\n      0x00\n        /* \"#utility.yul\":13241:13321   */\n      tag_811\n        /* \"#utility.yul\":13315:13320   */\n      dup3\n        /* \"#utility.yul\":13241:13321   */\n      tag_812\n      jump\t// in\n    tag_811:\n        /* \"#utility.yul\":13337:13449   */\n      tag_813\n        /* \"#utility.yul\":13442:13448   */\n      dup2\n        /* \"#utility.yul\":13437:13440   */\n      dup6\n        /* \"#utility.yul\":13337:13449   */\n      tag_814\n      jump\t// in\n    tag_813:\n        /* \"#utility.yul\":13330:13449   */\n      swap4\n      pop\n        /* \"#utility.yul\":13475:13478   */\n      dup4\n        /* \"#utility.yul\":13520:13524   */\n      0x20\n        /* \"#utility.yul\":13512:13518   */\n      dup3\n        /* \"#utility.yul\":13508:13525   */\n      mul\n        /* \"#utility.yul\":13503:13506   */\n      dup6\n        /* \"#utility.yul\":13499:13526   */\n      add\n        /* \"#utility.yul\":13550:13632   */\n      tag_815\n        /* \"#utility.yul\":13626:13631   */\n      dup6\n        /* \"#utility.yul\":13550:13632   */\n      tag_816\n      jump\t// in\n    tag_815:\n        /* \"#utility.yul\":13655:13662   */\n      dup1\n        /* \"#utility.yul\":13686:13687   */\n      0x00\n        /* \"#utility.yul\":13671:14115   */\n    tag_817:\n        /* \"#utility.yul\":13696:13702   */\n      dup6\n        /* \"#utility.yul\":13693:13694   */\n      dup2\n        /* \"#utility.yul\":13690:13703   */\n      lt\n        /* \"#utility.yul\":13671:14115   */\n      iszero\n      tag_819\n      jumpi\n        /* \"#utility.yul\":13767:13776   */\n      dup5\n        /* \"#utility.yul\":13761:13765   */\n      dup5\n        /* \"#utility.yul\":13757:13777   */\n      sub\n        /* \"#utility.yul\":13752:13755   */\n      dup10\n        /* \"#utility.yul\":13745:13778   */\n      mstore\n        /* \"#utility.yul\":13818:13824   */\n      dup2\n        /* \"#utility.yul\":13812:13825   */\n      mload\n        /* \"#utility.yul\":13846:13962   */\n      tag_820\n        /* \"#utility.yul\":13957:13961   */\n      dup6\n        /* \"#utility.yul\":13942:13955   */\n      dup3\n        /* \"#utility.yul\":13846:13962   */\n      tag_731\n      jump\t// in\n    tag_820:\n        /* \"#utility.yul\":13838:13962   */\n      swap5\n      pop\n        /* \"#utility.yul\":13985:14071   */\n      tag_821\n        /* \"#utility.yul\":14064:14070   */\n      dup4\n        /* \"#utility.yul\":13985:14071   */\n      tag_822\n      jump\t// in\n    tag_821:\n        /* \"#utility.yul\":13975:14071   */\n      swap3\n      pop\n        /* \"#utility.yul\":14100:14104   */\n      0x20\n        /* \"#utility.yul\":14095:14098   */\n      dup11\n        /* \"#utility.yul\":14091:14105   */\n      add\n        /* \"#utility.yul\":14084:14105   */\n      swap10\n      pop\n        /* \"#utility.yul\":13731:14115   */\n      pop\n        /* \"#utility.yul\":13718:13719   */\n      0x01\n        /* \"#utility.yul\":13715:13716   */\n      dup2\n        /* \"#utility.yul\":13711:13720   */\n      add\n        /* \"#utility.yul\":13706:13720   */\n      swap1\n      pop\n        /* \"#utility.yul\":13671:14115   */\n      jump(tag_817)\n    tag_819:\n        /* \"#utility.yul\":13675:13689   */\n      pop\n        /* \"#utility.yul\":14131:14135   */\n      dup3\n        /* \"#utility.yul\":14124:14135   */\n      swap8\n      pop\n        /* \"#utility.yul\":14151:14154   */\n      dup8\n        /* \"#utility.yul\":14144:14154   */\n      swap6\n      pop\n        /* \"#utility.yul\":13217:14160   */\n      pop\n      pop\n      pop\n      pop\n      pop\n        /* \"#utility.yul\":13041:14160   */\n      swap3\n      swap2\n      pop\n      pop\n      jump\t// out\n        /* \"#utility.yul\":14166:14265   */\n    tag_823:\n        /* \"#utility.yul\":14237:14258   */\n      tag_825\n        /* \"#utility.yul\":14252:14257   */\n      dup2\n        /* \"#utility.yul\":14237:14258   */\n      tag_826\n      jump\t// in\n    tag_825:\n        /* \"#utility.yul\":14232:14235   */\n      dup3\n        /* \"#utility.yul\":14225:14259   */\n      mstore\n        /* \"#utility.yul\":14166:14265   */\n      pop\n      pop\n      jump\t// out\n        /* \"#utility.yul\":14271:14380   */\n    tag_827:\n        /* \"#utility.yul\":14352:14373   */\n      tag_829\n        /* \"#utility.yul\":14367:14372   */\n      dup2\n        /* \"#utility.yul\":14352:14373   */\n      tag_826\n      jump\t// in\n    tag_829:\n        /* \"#utility.yul\":14347:14350   */\n      dup3\n        /* \"#utility.yul\":14340:14374   */\n      mstore\n        /* \"#utility.yul\":14271:14380   */\n      pop\n      pop\n      jump\t// out\n        /* \"#utility.yul\":14386:14529   */\n    tag_830:\n        /* \"#utility.yul\":14479:14522   */\n      tag_832\n        /* \"#utility.yul\":14516:14521   */\n      dup2\n        /* \"#utility.yul\":14479:14522   */\n      tag_833\n      jump\t// in\n    tag_832:\n        /* \"#utility.yul\":14474:14477   */\n      dup3\n        /* \"#utility.yul\":14467:14523   */\n      mstore\n        /* \"#utility.yul\":14386:14529   */\n      pop\n      pop\n      jump\t// out\n        /* \"#utility.yul\":14535:14879   */\n    tag_834:\n        /* \"#utility.yul\":14613:14616   */\n      0x00\n        /* \"#utility.yul\":14641:14680   */\n      tag_836\n        /* \"#utility.yul\":14674:14679   */\n      dup3\n        /* \"#utility.yul\":14641:14680   */\n      tag_837\n      jump\t// in\n    tag_836:\n        /* \"#utility.yul\":14696:14757   */\n      tag_838\n        /* \"#utility.yul\":14750:14756   */\n      dup2\n        /* \"#utility.yul\":14745:14748   */\n      dup6\n        /* \"#utility.yul\":14696:14757   */\n      tag_839\n      jump\t// in\n    tag_838:\n        /* \"#utility.yul\":14689:14757   */\n      swap4\n      pop\n        /* \"#utility.yul\":14766:14818   */\n      tag_840\n        /* \"#utility.yul\":14811:14817   */\n      dup2\n        /* \"#utility.yul\":14806:14809   */\n      dup6\n        /* \"#utility.yul\":14799:14803   */\n      0x20\n        /* \"#utility.yul\":14792:14797   */\n      dup7\n        /* \"#utility.yul\":14788:14804   */\n      add\n        /* \"#utility.yul\":14766:14818   */\n      tag_841\n      jump\t// in\n    tag_840:\n        /* \"#utility.yul\":14843:14872   */\n      tag_842\n        /* \"#utility.yul\":14865:14871   */\n      dup2\n        /* \"#utility.yul\":14843:14872   */\n      tag_843\n      jump\t// in\n    tag_842:\n        /* \"#utility.yul\":14838:14841   */\n      dup5\n        /* \"#utility.yul\":14834:14873   */\n      add\n        /* \"#utility.yul\":14827:14873   */\n      swap2\n      pop\n        /* \"#utility.yul\":14617:14879   */\n      pop\n        /* \"#utility.yul\":14535:14879   */\n      swap3\n      swap2\n      pop\n      pop\n      jump\t// out\n        /* \"#utility.yul\":14885:15249   */\n    tag_844:\n        /* \"#utility.yul\":14973:14976   */\n      0x00\n        /* \"#utility.yul\":15001:15040   */\n      tag_846\n        /* \"#utility.yul\":15034:15039   */\n      dup3\n        /* \"#utility.yul\":15001:15040   */\n      tag_837\n      jump\t// in\n    tag_846:\n        /* \"#utility.yul\":15056:15127   */\n      tag_847\n        /* \"#utility.yul\":15120:15126   */\n      dup2\n        /* \"#utility.yul\":15115:15118   */\n      dup6\n        /* \"#utility.yul\":15056:15127   */\n      tag_848\n      jump\t// in\n    tag_847:\n        /* \"#utility.yul\":15049:15127   */\n      swap4\n      pop\n        /* \"#utility.yul\":15136:15188   */\n      tag_849\n        /* \"#utility.yul\":15181:15187   */\n      dup2\n        /* \"#utility.yul\":15176:15179   */\n      dup6\n        /* \"#utility.yul\":15169:15173   */\n      0x20\n        /* \"#utility.yul\":15162:15167   */\n      dup7\n        /* \"#utility.yul\":15158:15174   */\n      add\n        /* \"#utility.yul\":15136:15188   */\n      tag_841\n      jump\t// in\n    tag_849:\n        /* \"#utility.yul\":15213:15242   */\n      tag_850\n        /* \"#utility.yul\":15235:15241   */\n      dup2\n        /* \"#utility.yul\":15213:15242   */\n      tag_843\n      jump\t// in\n    tag_850:\n        /* \"#utility.yul\":15208:15211   */\n      dup5\n        /* \"#utility.yul\":15204:15243   */\n      add\n        /* \"#utility.yul\":15197:15243   */\n      swap2\n      pop\n        /* \"#utility.yul\":14977:15249   */\n      pop\n        /* \"#utility.yul\":14885:15249   */\n      swap3\n      swap2\n      pop\n      pop\n      jump\t// out\n        /* \"#utility.yul\":15255:15621   */\n    tag_851:\n        /* \"#utility.yul\":15397:15400   */\n      0x00\n        /* \"#utility.yul\":15418:15485   */\n      tag_853\n        /* \"#utility.yul\":15482:15484   */\n      0x19\n        /* \"#utility.yul\":15477:15480   */\n      dup4\n        /* \"#utility.yul\":15418:15485   */\n      tag_848\n      jump\t// in\n    tag_853:\n        /* \"#utility.yul\":15411:15485   */\n      swap2\n      pop\n        /* \"#utility.yul\":15494:15587   */\n      tag_854\n        /* \"#utility.yul\":15583:15586   */\n      dup3\n        /* \"#utility.yul\":15494:15587   */\n      tag_855\n      jump\t// in\n    tag_854:\n        /* \"#utility.yul\":15612:15614   */\n      0x20\n        /* \"#utility.yul\":15607:15610   */\n      dup3\n        /* \"#utility.yul\":15603:15615   */\n      add\n        /* \"#utility.yul\":15596:15615   */\n      swap1\n      pop\n        /* \"#utility.yul\":15255:15621   */\n      swap2\n      swap1\n      pop\n      jump\t// out\n        /* \"#utility.yul\":15627:15993   */\n    tag_856:\n        /* \"#utility.yul\":15769:15772   */\n      0x00\n        /* \"#utility.yul\":15790:15857   */\n      tag_858\n        /* \"#utility.yul\":15854:15856   */\n      0x17\n        /* \"#utility.yul\":15849:15852   */\n      dup4\n        /* \"#utility.yul\":15790:15857   */\n      tag_848\n      jump\t// in\n    tag_858:\n        /* \"#utility.yul\":15783:15857   */\n      swap2\n      pop\n        /* \"#utility.yul\":15866:15959   */\n      tag_859\n        /* \"#utility.yul\":15955:15958   */\n      dup3\n        /* \"#utility.yul\":15866:15959   */\n      tag_860\n      jump\t// in\n    tag_859:\n        /* \"#utility.yul\":15984:15986   */\n      0x20\n        /* \"#utility.yul\":15979:15982   */\n      dup3\n        /* \"#utility.yul\":15975:15987   */\n      add\n        /* \"#utility.yul\":15968:15987   */\n      swap1\n      pop\n        /* \"#utility.yul\":15627:15993   */\n      swap2\n      swap1\n      pop\n      jump\t// out\n        /* \"#utility.yul\":15999:16365   */\n    tag_861:\n        /* \"#utility.yul\":16141:16144   */\n      0x00\n        /* \"#utility.yul\":16162:16229   */\n      tag_863\n        /* \"#utility.yul\":16226:16228   */\n      0x11\n        /* \"#utility.yul\":16221:16224   */\n      dup4\n        /* \"#utility.yul\":16162:16229   */\n      tag_848\n      jump\t// in\n    tag_863:\n        /* \"#utility.yul\":16155:16229   */\n      swap2\n      pop\n        /* \"#utility.yul\":16238:16331   */\n      tag_864\n        /* \"#utility.yul\":16327:16330   */\n      dup3\n        /* \"#utility.yul\":16238:16331   */\n      tag_865\n      jump\t// in\n    tag_864:\n        /* \"#utility.yul\":16356:16358   */\n      0x20\n        /* \"#utility.yul\":16351:16354   */\n      dup3\n        /* \"#utility.yul\":16347:16359   */\n      add\n        /* \"#utility.yul\":16340:16359   */\n      swap1\n      pop\n        /* \"#utility.yul\":15999:16365   */\n      swap2\n      swap1\n      pop\n      jump\t// out\n        /* \"#utility.yul\":16371:16737   */\n    tag_866:\n        /* \"#utility.yul\":16513:16516   */\n      0x00\n        /* \"#utility.yul\":16534:16601   */\n      tag_868\n        /* \"#utility.yul\":16598:16600   */\n      0x18\n        /* \"#utility.yul\":16593:16596   */\n      dup4\n        /* \"#utility.yul\":16534:16601   */\n      tag_848\n      jump\t// in\n    tag_868:\n        /* \"#utility.yul\":16527:16601   */\n      swap2\n      pop\n        /* \"#utility.yul\":16610:16703   */\n      tag_869\n        /* \"#utility.yul\":16699:16702   */\n      dup3\n        /* \"#utility.yul\":16610:16703   */\n      tag_870\n      jump\t// in\n    tag_869:\n        /* \"#utility.yul\":16728:16730   */\n      0x20\n        /* \"#utility.yul\":16723:16726   */\n      dup3\n        /* \"#utility.yul\":16719:16731   */\n      add\n        /* \"#utility.yul\":16712:16731   */\n      swap1\n      pop\n        /* \"#utility.yul\":16371:16737   */\n      swap2\n      swap1\n      pop\n      jump\t// out\n        /* \"#utility.yul\":16743:17109   */\n    tag_871:\n        /* \"#utility.yul\":16885:16888   */\n      0x00\n        /* \"#utility.yul\":16906:16973   */\n      tag_873\n        /* \"#utility.yul\":16970:16972   */\n      0x12\n        /* \"#utility.yul\":16965:16968   */\n      dup4\n        /* \"#utility.yul\":16906:16973   */\n      tag_848\n      jump\t// in\n    tag_873:\n        /* \"#utility.yul\":16899:16973   */\n      swap2\n      pop\n        /* \"#utility.yul\":16982:17075   */\n      tag_874\n        /* \"#utility.yul\":17071:17074   */\n      dup3\n        /* \"#utility.yul\":16982:17075   */\n      tag_875\n      jump\t// in\n    tag_874:\n        /* \"#utility.yul\":17100:17102   */\n      0x20\n        /* \"#utility.yul\":17095:17098   */\n      dup3\n        /* \"#utility.yul\":17091:17103   */\n      add\n        /* \"#utility.yul\":17084:17103   */\n      swap1\n      pop\n        /* \"#utility.yul\":16743:17109   */\n      swap2\n      swap1\n      pop\n      jump\t// out\n        /* \"#utility.yul\":17115:17481   */\n    tag_876:\n        /* \"#utility.yul\":17257:17260   */\n      0x00\n        /* \"#utility.yul\":17278:17345   */\n      tag_878\n        /* \"#utility.yul\":17342:17344   */\n      0x1e\n        /* \"#utility.yul\":17337:17340   */\n      dup4\n        /* \"#utility.yul\":17278:17345   */\n      tag_848\n      jump\t// in\n    tag_878:\n        /* \"#utility.yul\":17271:17345   */\n      swap2\n      pop\n        /* \"#utility.yul\":17354:17447   */\n      tag_879\n        /* \"#utility.yul\":17443:17446   */\n      dup3\n        /* \"#utility.yul\":17354:17447   */\n      tag_880\n      jump\t// in\n    tag_879:\n        /* \"#utility.yul\":17472:17474   */\n      0x20\n        /* \"#utility.yul\":17467:17470   */\n      dup3\n        /* \"#utility.yul\":17463:17475   */\n      add\n        /* \"#utility.yul\":17456:17475   */\n      swap1\n      pop\n        /* \"#utility.yul\":17115:17481   */\n      swap2\n      swap1\n      pop\n      jump\t// out\n        /* \"#utility.yul\":17487:17853   */\n    tag_881:\n        /* \"#utility.yul\":17629:17632   */\n      0x00\n        /* \"#utility.yul\":17650:17717   */\n      tag_883\n        /* \"#utility.yul\":17714:17716   */\n      0x1e\n        /* \"#utility.yul\":17709:17712   */\n      dup4\n        /* \"#utility.yul\":17650:17717   */\n      tag_848\n      jump\t// in\n    tag_883:\n        /* \"#utility.yul\":17643:17717   */\n      swap2\n      pop\n        /* \"#utility.yul\":17726:17819   */\n      tag_884\n        /* \"#utility.yul\":17815:17818   */\n      dup3\n        /* \"#utility.yul\":17726:17819   */\n      tag_885\n      jump\t// in\n    tag_884:\n        /* \"#utility.yul\":17844:17846   */\n      0x20\n        /* \"#utility.yul\":17839:17842   */\n      dup3\n        /* \"#utility.yul\":17835:17847   */\n      add\n        /* \"#utility.yul\":17828:17847   */\n      swap1\n      pop\n        /* \"#utility.yul\":17487:17853   */\n      swap2\n      swap1\n      pop\n      jump\t// out\n        /* \"#utility.yul\":17859:18225   */\n    tag_886:\n        /* \"#utility.yul\":18001:18004   */\n      0x00\n        /* \"#utility.yul\":18022:18089   */\n      tag_888\n        /* \"#utility.yul\":18086:18088   */\n      0x22\n        /* \"#utility.yul\":18081:18084   */\n      dup4\n        /* \"#utility.yul\":18022:18089   */\n      tag_848\n      jump\t// in\n    tag_888:\n        /* \"#utility.yul\":18015:18089   */\n      swap2\n      pop\n        /* \"#utility.yul\":18098:18191   */\n      tag_889\n        /* \"#utility.yul\":18187:18190   */\n      dup3\n        /* \"#utility.yul\":18098:18191   */\n      tag_890\n      jump\t// in\n    tag_889:\n        /* \"#utility.yul\":18216:18218   */\n      0x40\n        /* \"#utility.yul\":18211:18214   */\n      dup3\n        /* \"#utility.yul\":18207:18219   */\n      add\n        /* \"#utility.yul\":18200:18219   */\n      swap1\n      pop\n        /* \"#utility.yul\":17859:18225   */\n      swap2\n      swap1\n      pop\n      jump\t// out\n        /* \"#utility.yul\":18231:18597   */\n    tag_891:\n        /* \"#utility.yul\":18373:18376   */\n      0x00\n        /* \"#utility.yul\":18394:18461   */\n      tag_893\n        /* \"#utility.yul\":18458:18460   */\n      0x22\n        /* \"#utility.yul\":18453:18456   */\n      dup4\n        /* \"#utility.yul\":18394:18461   */\n      tag_848\n      jump\t// in\n    tag_893:\n        /* \"#utility.yul\":18387:18461   */\n      swap2\n      pop\n        /* \"#utility.yul\":18470:18563   */\n      tag_894\n        /* \"#utility.yul\":18559:18562   */\n      dup3\n        /* \"#utility.yul\":18470:18563   */\n      tag_895\n      jump\t// in\n    tag_894:\n        /* \"#utility.yul\":18588:18590   */\n      0x40\n        /* \"#utility.yul\":18583:18586   */\n      dup3\n        /* \"#utility.yul\":18579:18591   */\n      add\n        /* \"#utility.yul\":18572:18591   */\n      swap1\n      pop\n        /* \"#utility.yul\":18231:18597   */\n      swap2\n      swap1\n      pop\n      jump\t// out\n        /* \"#utility.yul\":18603:18969   */\n    tag_896:\n        /* \"#utility.yul\":18745:18748   */\n      0x00\n        /* \"#utility.yul\":18766:18833   */\n      tag_898\n        /* \"#utility.yul\":18830:18832   */\n      0x17\n        /* \"#utility.yul\":18825:18828   */\n      dup4\n        /* \"#utility.yul\":18766:18833   */\n      tag_848\n      jump\t// in\n    tag_898:\n        /* \"#utility.yul\":18759:18833   */\n      swap2\n      pop\n        /* \"#utility.yul\":18842:18935   */\n      tag_899\n        /* \"#utility.yul\":18931:18934   */\n      dup3\n        /* \"#utility.yul\":18842:18935   */\n      tag_900\n      jump\t// in\n    tag_899:\n        /* \"#utility.yul\":18960:18962   */\n      0x20\n        /* \"#utility.yul\":18955:18958   */\n      dup3\n        /* \"#utility.yul\":18951:18963   */\n      add\n        /* \"#utility.yul\":18944:18963   */\n      swap1\n      pop\n        /* \"#utility.yul\":18603:18969   */\n      swap2\n      swap1\n      pop\n      jump\t// out\n        /* \"#utility.yul\":18975:19341   */\n    tag_901:\n        /* \"#utility.yul\":19117:19120   */\n      0x00\n        /* \"#utility.yul\":19138:19205   */\n      tag_903\n        /* \"#utility.yul\":19202:19204   */\n      0x1e\n        /* \"#utility.yul\":19197:19200   */\n      dup4\n        /* \"#utility.yul\":19138:19205   */\n      tag_848\n      jump\t// in\n    tag_903:\n        /* \"#utility.yul\":19131:19205   */\n      swap2\n      pop\n        /* \"#utility.yul\":19214:19307   */\n      tag_904\n        /* \"#utility.yul\":19303:19306   */\n      dup3\n        /* \"#utility.yul\":19214:19307   */\n      tag_905\n      jump\t// in\n    tag_904:\n        /* \"#utility.yul\":19332:19334   */\n      0x20\n        /* \"#utility.yul\":19327:19330   */\n      dup3\n        /* \"#utility.yul\":19323:19335   */\n      add\n        /* \"#utility.yul\":19316:19335   */\n      swap1\n      pop\n        /* \"#utility.yul\":18975:19341   */\n      swap2\n      swap1\n      pop\n      jump\t// out\n        /* \"#utility.yul\":19347:19713   */\n    tag_906:\n        /* \"#utility.yul\":19489:19492   */\n      0x00\n        /* \"#utility.yul\":19510:19577   */\n      tag_908\n        /* \"#utility.yul\":19574:19576   */\n      0x11\n        /* \"#utility.yul\":19569:19572   */\n      dup4\n        /* \"#utility.yul\":19510:19577   */\n      tag_848\n      jump\t// in\n    tag_908:\n        /* \"#utility.yul\":19503:19577   */\n      swap2\n      pop\n        /* \"#utility.yul\":19586:19679   */\n      tag_909\n        /* \"#utility.yul\":19675:19678   */\n      dup3\n        /* \"#utility.yul\":19586:19679   */\n      tag_910\n      jump\t// in\n    tag_909:\n        /* \"#utility.yul\":19704:19706   */\n      0x20\n        /* \"#utility.yul\":19699:19702   */\n      dup3\n        /* \"#utility.yul\":19695:19707   */\n      add\n        /* \"#utility.yul\":19688:19707   */\n      swap1\n      pop\n        /* \"#utility.yul\":19347:19713   */\n      swap2\n      swap1\n      pop\n      jump\t// out\n        /* \"#utility.yul\":19719:20085   */\n    tag_911:\n        /* \"#utility.yul\":19861:19864   */\n      0x00\n        /* \"#utility.yul\":19882:19949   */\n      tag_913\n        /* \"#utility.yul\":19946:19948   */\n      0x18\n        /* \"#utility.yul\":19941:19944   */\n      dup4\n        /* \"#utility.yul\":19882:19949   */\n      tag_848\n      jump\t// in\n    tag_913:\n        /* \"#utility.yul\":19875:19949   */\n      swap2\n      pop\n        /* \"#utility.yul\":19958:20051   */\n      tag_914\n        /* \"#utility.yul\":20047:20050   */\n      dup3\n        /* \"#utility.yul\":19958:20051   */\n      tag_915\n      jump\t// in\n    tag_914:\n        /* \"#utility.yul\":20076:20078   */\n      0x20\n        /* \"#utility.yul\":20071:20074   */\n      dup3\n        /* \"#utility.yul\":20067:20079   */\n      add\n        /* \"#utility.yul\":20060:20079   */\n      swap1\n      pop\n        /* \"#utility.yul\":19719:20085   */\n      swap2\n      swap1\n      pop\n      jump\t// out\n        /* \"#utility.yul\":20091:20457   */\n    tag_916:\n        /* \"#utility.yul\":20233:20236   */\n      0x00\n        /* \"#utility.yul\":20254:20321   */\n      tag_918\n        /* \"#utility.yul\":20318:20320   */\n      0x12\n        /* \"#utility.yul\":20313:20316   */\n      dup4\n        /* \"#utility.yul\":20254:20321   */\n      tag_848\n      jump\t// in\n    tag_918:\n        /* \"#utility.yul\":20247:20321   */\n      swap2\n      pop\n        /* \"#utility.yul\":20330:20423   */\n      tag_919\n        /* \"#utility.yul\":20419:20422   */\n      dup3\n        /* \"#utility.yul\":20330:20423   */\n      tag_920\n      jump\t// in\n    tag_919:\n        /* \"#utility.yul\":20448:20450   */\n      0x20\n        /* \"#utility.yul\":20443:20446   */\n      dup3\n        /* \"#utility.yul\":20439:20451   */\n      add\n        /* \"#utility.yul\":20432:20451   */\n      swap1\n      pop\n        /* \"#utility.yul\":20091:20457   */\n      swap2\n      swap1\n      pop\n      jump\t// out\n        /* \"#utility.yul\":20463:20829   */\n    tag_921:\n        /* \"#utility.yul\":20605:20608   */\n      0x00\n        /* \"#utility.yul\":20626:20693   */\n      tag_923\n        /* \"#utility.yul\":20690:20692   */\n      0x19\n        /* \"#utility.yul\":20685:20688   */\n      dup4\n        /* \"#utility.yul\":20626:20693   */\n      tag_848\n      jump\t// in\n    tag_923:\n        /* \"#utility.yul\":20619:20693   */\n      swap2\n      pop\n        /* \"#utility.yul\":20702:20795   */\n      tag_924\n        /* \"#utility.yul\":20791:20794   */\n      dup3\n        /* \"#utility.yul\":20702:20795   */\n      tag_925\n      jump\t// in\n    tag_924:\n        /* \"#utility.yul\":20820:20822   */\n      0x20\n        /* \"#utility.yul\":20815:20818   */\n      dup3\n        /* \"#utility.yul\":20811:20823   */\n      add\n        /* \"#utility.yul\":20804:20823   */\n      swap1\n      pop\n        /* \"#utility.yul\":20463:20829   */\n      swap2\n      swap1\n      pop\n      jump\t// out\n        /* \"#utility.yul\":20897:21829   */\n    tag_714:\n        /* \"#utility.yul\":21000:21003   */\n      0x00\n        /* \"#utility.yul\":21036:21040   */\n      0x80\n        /* \"#utility.yul\":21031:21034   */\n      dup4\n        /* \"#utility.yul\":21027:21041   */\n      add\n        /* \"#utility.yul\":21124:21128   */\n      0x00\n        /* \"#utility.yul\":21117:21122   */\n      dup4\n        /* \"#utility.yul\":21113:21129   */\n      add\n        /* \"#utility.yul\":21107:21130   */\n      mload\n        /* \"#utility.yul\":21143:21200   */\n      tag_927\n        /* \"#utility.yul\":21194:21198   */\n      0x00\n        /* \"#utility.yul\":21189:21192   */\n      dup7\n        /* \"#utility.yul\":21185:21199   */\n      add\n        /* \"#utility.yul\":21171:21183   */\n      dup3\n        /* \"#utility.yul\":21143:21200   */\n      tag_823\n      jump\t// in\n    tag_927:\n        /* \"#utility.yul\":21051:21210   */\n      pop\n        /* \"#utility.yul\":21292:21296   */\n      0x20\n        /* \"#utility.yul\":21285:21290   */\n      dup4\n        /* \"#utility.yul\":21281:21297   */\n      add\n        /* \"#utility.yul\":21275:21298   */\n      mload\n        /* \"#utility.yul\":21311:21370   */\n      tag_928\n        /* \"#utility.yul\":21364:21368   */\n      0x20\n        /* \"#utility.yul\":21359:21362   */\n      dup7\n        /* \"#utility.yul\":21355:21369   */\n      add\n        /* \"#utility.yul\":21341:21353   */\n      dup3\n        /* \"#utility.yul\":21311:21370   */\n      tag_929\n      jump\t// in\n    tag_928:\n        /* \"#utility.yul\":21220:21380   */\n      pop\n        /* \"#utility.yul\":21465:21469   */\n      0x40\n        /* \"#utility.yul\":21458:21463   */\n      dup4\n        /* \"#utility.yul\":21454:21470   */\n      add\n        /* \"#utility.yul\":21448:21471   */\n      mload\n        /* \"#utility.yul\":21484:21547   */\n      tag_930\n        /* \"#utility.yul\":21541:21545   */\n      0x40\n        /* \"#utility.yul\":21536:21539   */\n      dup7\n        /* \"#utility.yul\":21532:21546   */\n      add\n        /* \"#utility.yul\":21518:21530   */\n      dup3\n        /* \"#utility.yul\":21484:21547   */\n      tag_931\n      jump\t// in\n    tag_930:\n        /* \"#utility.yul\":21390:21557   */\n      pop\n        /* \"#utility.yul\":21639:21643   */\n      0x60\n        /* \"#utility.yul\":21632:21637   */\n      dup4\n        /* \"#utility.yul\":21628:21644   */\n      add\n        /* \"#utility.yul\":21622:21645   */\n      mload\n        /* \"#utility.yul\":21692:21695   */\n      dup5\n        /* \"#utility.yul\":21686:21690   */\n      dup3\n        /* \"#utility.yul\":21682:21696   */\n      sub\n        /* \"#utility.yul\":21675:21679   */\n      0x60\n        /* \"#utility.yul\":21670:21673   */\n      dup7\n        /* \"#utility.yul\":21666:21680   */\n      add\n        /* \"#utility.yul\":21659:21697   */\n      mstore\n        /* \"#utility.yul\":21718:21791   */\n      tag_932\n        /* \"#utility.yul\":21786:21790   */\n      dup3\n        /* \"#utility.yul\":21772:21784   */\n      dup3\n        /* \"#utility.yul\":21718:21791   */\n      tag_834\n      jump\t// in\n    tag_932:\n        /* \"#utility.yul\":21710:21791   */\n      swap2\n      pop\n        /* \"#utility.yul\":21567:21802   */\n      pop\n        /* \"#utility.yul\":21819:21823   */\n      dup1\n        /* \"#utility.yul\":21812:21823   */\n      swap2\n      pop\n        /* \"#utility.yul\":21005:21829   */\n      pop\n        /* \"#utility.yul\":20897:21829   */\n      swap3\n      swap2\n      pop\n      pop\n      jump\t// out\n        /* \"#utility.yul\":21907:22672   */\n    tag_718:\n        /* \"#utility.yul\":22020:22023   */\n      0x00\n        /* \"#utility.yul\":22056:22060   */\n      0x60\n        /* \"#utility.yul\":22051:22054   */\n      dup4\n        /* \"#utility.yul\":22047:22061   */\n      add\n        /* \"#utility.yul\":22144:22148   */\n      0x00\n        /* \"#utility.yul\":22137:22142   */\n      dup4\n        /* \"#utility.yul\":22133:22149   */\n      add\n        /* \"#utility.yul\":22127:22150   */\n      mload\n        /* \"#utility.yul\":22163:22220   */\n      tag_934\n        /* \"#utility.yul\":22214:22218   */\n      0x00\n        /* \"#utility.yul\":22209:22212   */\n      dup7\n        /* \"#utility.yul\":22205:22219   */\n      add\n        /* \"#utility.yul\":22191:22203   */\n      dup3\n        /* \"#utility.yul\":22163:22220   */\n      tag_823\n      jump\t// in\n    tag_934:\n        /* \"#utility.yul\":22071:22230   */\n      pop\n        /* \"#utility.yul\":22312:22316   */\n      0x20\n        /* \"#utility.yul\":22305:22310   */\n      dup4\n        /* \"#utility.yul\":22301:22317   */\n      add\n        /* \"#utility.yul\":22295:22318   */\n      mload\n        /* \"#utility.yul\":22365:22368   */\n      dup5\n        /* \"#utility.yul\":22359:22363   */\n      dup3\n        /* \"#utility.yul\":22355:22369   */\n      sub\n        /* \"#utility.yul\":22348:22352   */\n      0x20\n        /* \"#utility.yul\":22343:22346   */\n      dup7\n        /* \"#utility.yul\":22339:22353   */\n      add\n        /* \"#utility.yul\":22332:22370   */\n      mstore\n        /* \"#utility.yul\":22391:22464   */\n      tag_935\n        /* \"#utility.yul\":22459:22463   */\n      dup3\n        /* \"#utility.yul\":22445:22457   */\n      dup3\n        /* \"#utility.yul\":22391:22464   */\n      tag_834\n      jump\t// in\n    tag_935:\n        /* \"#utility.yul\":22383:22464   */\n      swap2\n      pop\n        /* \"#utility.yul\":22240:22475   */\n      pop\n        /* \"#utility.yul\":22557:22561   */\n      0x40\n        /* \"#utility.yul\":22550:22555   */\n      dup4\n        /* \"#utility.yul\":22546:22562   */\n      add\n        /* \"#utility.yul\":22540:22563   */\n      mload\n        /* \"#utility.yul\":22576:22635   */\n      tag_936\n        /* \"#utility.yul\":22629:22633   */\n      0x40\n        /* \"#utility.yul\":22624:22627   */\n      dup7\n        /* \"#utility.yul\":22620:22634   */\n      add\n        /* \"#utility.yul\":22606:22618   */\n      dup3\n        /* \"#utility.yul\":22576:22635   */\n      tag_929\n      jump\t// in\n    tag_936:\n        /* \"#utility.yul\":22485:22645   */\n      pop\n        /* \"#utility.yul\":22662:22666   */\n      dup1\n        /* \"#utility.yul\":22655:22666   */\n      swap2\n      pop\n        /* \"#utility.yul\":22025:22672   */\n      pop\n        /* \"#utility.yul\":21907:22672   */\n      swap3\n      swap2\n      pop\n      pop\n      jump\t// out\n        /* \"#utility.yul\":22738:23491   */\n    tag_722:\n        /* \"#utility.yul\":22839:22842   */\n      0x00\n        /* \"#utility.yul\":22875:22879   */\n      0x60\n        /* \"#utility.yul\":22870:22873   */\n      dup4\n        /* \"#utility.yul\":22866:22880   */\n      add\n        /* \"#utility.yul\":22963:22967   */\n      0x00\n        /* \"#utility.yul\":22956:22961   */\n      dup4\n        /* \"#utility.yul\":22952:22968   */\n      add\n        /* \"#utility.yul\":22946:22969   */\n      mload\n        /* \"#utility.yul\":22982:23039   */\n      tag_938\n        /* \"#utility.yul\":23033:23037   */\n      0x00\n        /* \"#utility.yul\":23028:23031   */\n      dup7\n        /* \"#utility.yul\":23024:23038   */\n      add\n        /* \"#utility.yul\":23010:23022   */\n      dup3\n        /* \"#utility.yul\":22982:23039   */\n      tag_823\n      jump\t// in\n    tag_938:\n        /* \"#utility.yul\":22890:23049   */\n      pop\n        /* \"#utility.yul\":23131:23135   */\n      0x20\n        /* \"#utility.yul\":23124:23129   */\n      dup4\n        /* \"#utility.yul\":23120:23136   */\n      add\n        /* \"#utility.yul\":23114:23137   */\n      mload\n        /* \"#utility.yul\":23184:23187   */\n      dup5\n        /* \"#utility.yul\":23178:23182   */\n      dup3\n        /* \"#utility.yul\":23174:23188   */\n      sub\n        /* \"#utility.yul\":23167:23171   */\n      0x20\n        /* \"#utility.yul\":23162:23165   */\n      dup7\n        /* \"#utility.yul\":23158:23172   */\n      add\n        /* \"#utility.yul\":23151:23189   */\n      mstore\n        /* \"#utility.yul\":23210:23283   */\n      tag_939\n        /* \"#utility.yul\":23278:23282   */\n      dup3\n        /* \"#utility.yul\":23264:23276   */\n      dup3\n        /* \"#utility.yul\":23210:23283   */\n      tag_834\n      jump\t// in\n    tag_939:\n        /* \"#utility.yul\":23202:23283   */\n      swap2\n      pop\n        /* \"#utility.yul\":23059:23294   */\n      pop\n        /* \"#utility.yul\":23376:23380   */\n      0x40\n        /* \"#utility.yul\":23369:23374   */\n      dup4\n        /* \"#utility.yul\":23365:23381   */\n      add\n        /* \"#utility.yul\":23359:23382   */\n      mload\n        /* \"#utility.yul\":23395:23454   */\n      tag_940\n        /* \"#utility.yul\":23448:23452   */\n      0x40\n        /* \"#utility.yul\":23443:23446   */\n      dup7\n        /* \"#utility.yul\":23439:23453   */\n      add\n        /* \"#utility.yul\":23425:23437   */\n      dup3\n        /* \"#utility.yul\":23395:23454   */\n      tag_929\n      jump\t// in\n    tag_940:\n        /* \"#utility.yul\":23304:23464   */\n      pop\n        /* \"#utility.yul\":23481:23485   */\n      dup1\n        /* \"#utility.yul\":23474:23485   */\n      swap2\n      pop\n        /* \"#utility.yul\":22844:23491   */\n      pop\n        /* \"#utility.yul\":22738:23491   */\n      swap3\n      swap2\n      pop\n      pop\n      jump\t// out\n        /* \"#utility.yul\":23555:24306   */\n    tag_726:\n        /* \"#utility.yul\":23654:23657   */\n      0x00\n        /* \"#utility.yul\":23690:23694   */\n      0x60\n        /* \"#utility.yul\":23685:23688   */\n      dup4\n        /* \"#utility.yul\":23681:23695   */\n      add\n        /* \"#utility.yul\":23778:23782   */\n      0x00\n        /* \"#utility.yul\":23771:23776   */\n      dup4\n        /* \"#utility.yul\":23767:23783   */\n      add\n        /* \"#utility.yul\":23761:23784   */\n      mload\n        /* \"#utility.yul\":23797:23854   */\n      tag_942\n        /* \"#utility.yul\":23848:23852   */\n      0x00\n        /* \"#utility.yul\":23843:23846   */\n      dup7\n        /* \"#utility.yul\":23839:23853   */\n      add\n        /* \"#utility.yul\":23825:23837   */\n      dup3\n        /* \"#utility.yul\":23797:23854   */\n      tag_823\n      jump\t// in\n    tag_942:\n        /* \"#utility.yul\":23705:23864   */\n      pop\n        /* \"#utility.yul\":23946:23950   */\n      0x20\n        /* \"#utility.yul\":23939:23944   */\n      dup4\n        /* \"#utility.yul\":23935:23951   */\n      add\n        /* \"#utility.yul\":23929:23952   */\n      mload\n        /* \"#utility.yul\":23999:24002   */\n      dup5\n        /* \"#utility.yul\":23993:23997   */\n      dup3\n        /* \"#utility.yul\":23989:24003   */\n      sub\n        /* \"#utility.yul\":23982:23986   */\n      0x20\n        /* \"#utility.yul\":23977:23980   */\n      dup7\n        /* \"#utility.yul\":23973:23987   */\n      add\n        /* \"#utility.yul\":23966:24004   */\n      mstore\n        /* \"#utility.yul\":24025:24098   */\n      tag_943\n        /* \"#utility.yul\":24093:24097   */\n      dup3\n        /* \"#utility.yul\":24079:24091   */\n      dup3\n        /* \"#utility.yul\":24025:24098   */\n      tag_834\n      jump\t// in\n    tag_943:\n        /* \"#utility.yul\":24017:24098   */\n      swap2\n      pop\n        /* \"#utility.yul\":23874:24109   */\n      pop\n        /* \"#utility.yul\":24191:24195   */\n      0x40\n        /* \"#utility.yul\":24184:24189   */\n      dup4\n        /* \"#utility.yul\":24180:24196   */\n      add\n        /* \"#utility.yul\":24174:24197   */\n      mload\n        /* \"#utility.yul\":24210:24269   */\n      tag_944\n        /* \"#utility.yul\":24263:24267   */\n      0x40\n        /* \"#utility.yul\":24258:24261   */\n      dup7\n        /* \"#utility.yul\":24254:24268   */\n      add\n        /* \"#utility.yul\":24240:24252   */\n      dup3\n        /* \"#utility.yul\":24210:24269   */\n      tag_929\n      jump\t// in\n    tag_944:\n        /* \"#utility.yul\":24119:24279   */\n      pop\n        /* \"#utility.yul\":24296:24300   */\n      dup1\n        /* \"#utility.yul\":24289:24300   */\n      swap2\n      pop\n        /* \"#utility.yul\":23659:24306   */\n      pop\n        /* \"#utility.yul\":23555:24306   */\n      swap3\n      swap2\n      pop\n      pop\n      jump\t// out\n        /* \"#utility.yul\":24396:25173   */\n    tag_730:\n        /* \"#utility.yul\":24521:24524   */\n      0x00\n        /* \"#utility.yul\":24557:24561   */\n      0x60\n        /* \"#utility.yul\":24552:24555   */\n      dup4\n        /* \"#utility.yul\":24548:24562   */\n      add\n        /* \"#utility.yul\":24645:24649   */\n      0x00\n        /* \"#utility.yul\":24638:24643   */\n      dup4\n        /* \"#utility.yul\":24634:24650   */\n      add\n        /* \"#utility.yul\":24628:24651   */\n      mload\n        /* \"#utility.yul\":24664:24721   */\n      tag_946\n        /* \"#utility.yul\":24715:24719   */\n      0x00\n        /* \"#utility.yul\":24710:24713   */\n      dup7\n        /* \"#utility.yul\":24706:24720   */\n      add\n        /* \"#utility.yul\":24692:24704   */\n      dup3\n        /* \"#utility.yul\":24664:24721   */\n      tag_823\n      jump\t// in\n    tag_946:\n        /* \"#utility.yul\":24572:24731   */\n      pop\n        /* \"#utility.yul\":24813:24817   */\n      0x20\n        /* \"#utility.yul\":24806:24811   */\n      dup4\n        /* \"#utility.yul\":24802:24818   */\n      add\n        /* \"#utility.yul\":24796:24819   */\n      mload\n        /* \"#utility.yul\":24866:24869   */\n      dup5\n        /* \"#utility.yul\":24860:24864   */\n      dup3\n        /* \"#utility.yul\":24856:24870   */\n      sub\n        /* \"#utility.yul\":24849:24853   */\n      0x20\n        /* \"#utility.yul\":24844:24847   */\n      dup7\n        /* \"#utility.yul\":24840:24854   */\n      add\n        /* \"#utility.yul\":24833:24871   */\n      mstore\n        /* \"#utility.yul\":24892:24965   */\n      tag_947\n        /* \"#utility.yul\":24960:24964   */\n      dup3\n        /* \"#utility.yul\":24946:24958   */\n      dup3\n        /* \"#utility.yul\":24892:24965   */\n      tag_834\n      jump\t// in\n    tag_947:\n        /* \"#utility.yul\":24884:24965   */\n      swap2\n      pop\n        /* \"#utility.yul\":24741:24976   */\n      pop\n        /* \"#utility.yul\":25058:25062   */\n      0x40\n        /* \"#utility.yul\":25051:25056   */\n      dup4\n        /* \"#utility.yul\":25047:25063   */\n      add\n        /* \"#utility.yul\":25041:25064   */\n      mload\n        /* \"#utility.yul\":25077:25136   */\n      tag_948\n        /* \"#utility.yul\":25130:25134   */\n      0x40\n        /* \"#utility.yul\":25125:25128   */\n      dup7\n        /* \"#utility.yul\":25121:25135   */\n      add\n        /* \"#utility.yul\":25107:25119   */\n      dup3\n        /* \"#utility.yul\":25077:25136   */\n      tag_929\n      jump\t// in\n    tag_948:\n        /* \"#utility.yul\":24986:25146   */\n      pop\n        /* \"#utility.yul\":25163:25167   */\n      dup1\n        /* \"#utility.yul\":25156:25167   */\n      swap2\n      pop\n        /* \"#utility.yul\":24526:25173   */\n      pop\n        /* \"#utility.yul\":24396:25173   */\n      swap3\n      swap2\n      pop\n      pop\n      jump\t// out\n        /* \"#utility.yul\":25251:26014   */\n    tag_734:\n        /* \"#utility.yul\":25362:25365   */\n      0x00\n        /* \"#utility.yul\":25398:25402   */\n      0x60\n        /* \"#utility.yul\":25393:25396   */\n      dup4\n        /* \"#utility.yul\":25389:25403   */\n      add\n        /* \"#utility.yul\":25486:25490   */\n      0x00\n        /* \"#utility.yul\":25479:25484   */\n      dup4\n        /* \"#utility.yul\":25475:25491   */\n      add\n        /* \"#utility.yul\":25469:25492   */\n      mload\n        /* \"#utility.yul\":25505:25562   */\n      tag_950\n        /* \"#utility.yul\":25556:25560   */\n      0x00\n        /* \"#utility.yul\":25551:25554   */\n      dup7\n        /* \"#utility.yul\":25547:25561   */\n      add\n        /* \"#utility.yul\":25533:25545   */\n      dup3\n        /* \"#utility.yul\":25505:25562   */\n      tag_823\n      jump\t// in\n    tag_950:\n        /* \"#utility.yul\":25413:25572   */\n      pop\n        /* \"#utility.yul\":25654:25658   */\n      0x20\n        /* \"#utility.yul\":25647:25652   */\n      dup4\n        /* \"#utility.yul\":25643:25659   */\n      add\n        /* \"#utility.yul\":25637:25660   */\n      mload\n        /* \"#utility.yul\":25707:25710   */\n      dup5\n        /* \"#utility.yul\":25701:25705   */\n      dup3\n        /* \"#utility.yul\":25697:25711   */\n      sub\n        /* \"#utility.yul\":25690:25694   */\n      0x20\n        /* \"#utility.yul\":25685:25688   */\n      dup7\n        /* \"#utility.yul\":25681:25695   */\n      add\n        /* \"#utility.yul\":25674:25712   */\n      mstore\n        /* \"#utility.yul\":25733:25806   */\n      tag_951\n        /* \"#utility.yul\":25801:25805   */\n      dup3\n        /* \"#utility.yul\":25787:25799   */\n      dup3\n        /* \"#utility.yul\":25733:25806   */\n      tag_834\n      jump\t// in\n    tag_951:\n        /* \"#utility.yul\":25725:25806   */\n      swap2\n      pop\n        /* \"#utility.yul\":25582:25817   */\n      pop\n        /* \"#utility.yul\":25899:25903   */\n      0x40\n        /* \"#utility.yul\":25892:25897   */\n      dup4\n        /* \"#utility.yul\":25888:25904   */\n      add\n        /* \"#utility.yul\":25882:25905   */\n      mload\n        /* \"#utility.yul\":25918:25977   */\n      tag_952\n        /* \"#utility.yul\":25971:25975   */\n      0x40\n        /* \"#utility.yul\":25966:25969   */\n      dup7\n        /* \"#utility.yul\":25962:25976   */\n      add\n        /* \"#utility.yul\":25948:25960   */\n      dup3\n        /* \"#utility.yul\":25918:25977   */\n      tag_929\n      jump\t// in\n    tag_952:\n        /* \"#utility.yul\":25827:25987   */\n      pop\n        /* \"#utility.yul\":26004:26008   */\n      dup1\n        /* \"#utility.yul\":25997:26008   */\n      swap2\n      pop\n        /* \"#utility.yul\":25367:26014   */\n      pop\n        /* \"#utility.yul\":25251:26014   */\n      swap3\n      swap2\n      pop\n      pop\n      jump\t// out\n        /* \"#utility.yul\":26020:26135   */\n    tag_953:\n        /* \"#utility.yul\":26105:26128   */\n      tag_955\n        /* \"#utility.yul\":26122:26127   */\n      dup2\n        /* \"#utility.yul\":26105:26128   */\n      tag_956\n      jump\t// in\n    tag_955:\n        /* \"#utility.yul\":26100:26103   */\n      dup3\n        /* \"#utility.yul\":26093:26129   */\n      mstore\n        /* \"#utility.yul\":26020:26135   */\n      pop\n      pop\n      jump\t// out\n        /* \"#utility.yul\":26141:26249   */\n    tag_931:\n        /* \"#utility.yul\":26218:26242   */\n      tag_958\n        /* \"#utility.yul\":26236:26241   */\n      dup2\n        /* \"#utility.yul\":26218:26242   */\n      tag_959\n      jump\t// in\n    tag_958:\n        /* \"#utility.yul\":26213:26216   */\n      dup3\n        /* \"#utility.yul\":26206:26243   */\n      mstore\n        /* \"#utility.yul\":26141:26249   */\n      pop\n      pop\n      jump\t// out\n        /* \"#utility.yul\":26255:26373   */\n    tag_960:\n        /* \"#utility.yul\":26342:26366   */\n      tag_962\n        /* \"#utility.yul\":26360:26365   */\n      dup2\n        /* \"#utility.yul\":26342:26366   */\n      tag_959\n      jump\t// in\n    tag_962:\n        /* \"#utility.yul\":26337:26340   */\n      dup3\n        /* \"#utility.yul\":26330:26367   */\n      mstore\n        /* \"#utility.yul\":26255:26373   */\n      pop\n      pop\n      jump\t// out\n        /* \"#utility.yul\":26379:26494   */\n    tag_963:\n        /* \"#utility.yul\":26464:26487   */\n      tag_965\n        /* \"#utility.yul\":26481:26486   */\n      dup2\n        /* \"#utility.yul\":26464:26487   */\n      tag_966\n      jump\t// in\n    tag_965:\n        /* \"#utility.yul\":26459:26462   */\n      dup3\n        /* \"#utility.yul\":26452:26488   */\n      mstore\n        /* \"#utility.yul\":26379:26494   */\n      pop\n      pop\n      jump\t// out\n        /* \"#utility.yul\":26500:26602   */\n    tag_929:\n        /* \"#utility.yul\":26573:26595   */\n      tag_968\n        /* \"#utility.yul\":26589:26594   */\n      dup2\n        /* \"#utility.yul\":26573:26595   */\n      tag_969\n      jump\t// in\n    tag_968:\n        /* \"#utility.yul\":26568:26571   */\n      dup3\n        /* \"#utility.yul\":26561:26596   */\n      mstore\n        /* \"#utility.yul\":26500:26602   */\n      pop\n      pop\n      jump\t// out\n        /* \"#utility.yul\":26608:26720   */\n    tag_970:\n        /* \"#utility.yul\":26691:26713   */\n      tag_972\n        /* \"#utility.yul\":26707:26712   */\n      dup2\n        /* \"#utility.yul\":26691:26713   */\n      tag_969\n      jump\t// in\n    tag_972:\n        /* \"#utility.yul\":26686:26689   */\n      dup3\n        /* \"#utility.yul\":26679:26714   */\n      mstore\n        /* \"#utility.yul\":26608:26720   */\n      pop\n      pop\n      jump\t// out\n        /* \"#utility.yul\":26726:26948   */\n    tag_87:\n        /* \"#utility.yul\":26819:26823   */\n      0x00\n        /* \"#utility.yul\":26857:26859   */\n      0x20\n        /* \"#utility.yul\":26846:26855   */\n      dup3\n        /* \"#utility.yul\":26842:26860   */\n      add\n        /* \"#utility.yul\":26834:26860   */\n      swap1\n      pop\n        /* \"#utility.yul\":26870:26941   */\n      tag_974\n        /* \"#utility.yul\":26938:26939   */\n      0x00\n        /* \"#utility.yul\":26927:26936   */\n      dup4\n        /* \"#utility.yul\":26923:26940   */\n      add\n        /* \"#utility.yul\":26914:26920   */\n      dup5\n        /* \"#utility.yul\":26870:26941   */\n      tag_735\n      jump\t// in\n    tag_974:\n        /* \"#utility.yul\":26726:26948   */\n      swap3\n      swap2\n      pop\n      pop\n      jump\t// out\n        /* \"#utility.yul\":26954:27415   */\n    tag_229:\n        /* \"#utility.yul\":27141:27145   */\n      0x00\n        /* \"#utility.yul\":27179:27181   */\n      0x20\n        /* \"#utility.yul\":27168:27177   */\n      dup3\n        /* \"#utility.yul\":27164:27182   */\n      add\n        /* \"#utility.yul\":27156:27182   */\n      swap1\n      pop\n        /* \"#utility.yul\":27228:27237   */\n      dup2\n        /* \"#utility.yul\":27222:27226   */\n      dup2\n        /* \"#utility.yul\":27218:27238   */\n      sub\n        /* \"#utility.yul\":27214:27215   */\n      0x00\n        /* \"#utility.yul\":27203:27212   */\n      dup4\n        /* \"#utility.yul\":27199:27216   */\n      add\n        /* \"#utility.yul\":27192:27239   */\n      mstore\n        /* \"#utility.yul\":27256:27408   */\n      tag_976\n        /* \"#utility.yul\":27403:27407   */\n      dup2\n        /* \"#utility.yul\":27394:27400   */\n      dup5\n        /* \"#utility.yul\":27256:27408   */\n      tag_739\n      jump\t// in\n    tag_976:\n        /* \"#utility.yul\":27248:27408   */\n      swap1\n      pop\n        /* \"#utility.yul\":26954:27415   */\n      swap3\n      swap2\n      pop\n      pop\n      jump\t// out\n        /* \"#utility.yul\":27421:27902   */\n    tag_236:\n        /* \"#utility.yul\":27618:27622   */\n      0x00\n        /* \"#utility.yul\":27656:27658   */\n      0x20\n        /* \"#utility.yul\":27645:27654   */\n      dup3\n        /* \"#utility.yul\":27641:27659   */\n      add\n        /* \"#utility.yul\":27633:27659   */\n      swap1\n      pop\n        /* \"#utility.yul\":27705:27714   */\n      dup2\n        /* \"#utility.yul\":27699:27703   */\n      dup2\n        /* \"#utility.yul\":27695:27715   */\n      sub\n        /* \"#utility.yul\":27691:27692   */\n      0x00\n        /* \"#utility.yul\":27680:27689   */\n      dup4\n        /* \"#utility.yul\":27676:27693   */\n      add\n        /* \"#utility.yul\":27669:27716   */\n      mstore\n        /* \"#utility.yul\":27733:27895   */\n      tag_978\n        /* \"#utility.yul\":27890:27894   */\n      dup2\n        /* \"#utility.yul\":27881:27887   */\n      dup5\n        /* \"#utility.yul\":27733:27895   */\n      tag_753\n      jump\t// in\n    tag_978:\n        /* \"#utility.yul\":27725:27895   */\n      swap1\n      pop\n        /* \"#utility.yul\":27421:27902   */\n      swap3\n      swap2\n      pop\n      pop\n      jump\t// out\n        /* \"#utility.yul\":27908:28365   */\n    tag_222:\n        /* \"#utility.yul\":28093:28097   */\n      0x00\n        /* \"#utility.yul\":28131:28133   */\n      0x20\n        /* \"#utility.yul\":28120:28129   */\n      dup3\n        /* \"#utility.yul\":28116:28134   */\n      add\n        /* \"#utility.yul\":28108:28134   */\n      swap1\n      pop\n        /* \"#utility.yul\":28180:28189   */\n      dup2\n        /* \"#utility.yul\":28174:28178   */\n      dup2\n        /* \"#utility.yul\":28170:28190   */\n      sub\n        /* \"#utility.yul\":28166:28167   */\n      0x00\n        /* \"#utility.yul\":28155:28164   */\n      dup4\n        /* \"#utility.yul\":28151:28168   */\n      add\n        /* \"#utility.yul\":28144:28191   */\n      mstore\n        /* \"#utility.yul\":28208:28358   */\n      tag_980\n        /* \"#utility.yul\":28353:28357   */\n      dup2\n        /* \"#utility.yul\":28344:28350   */\n      dup5\n        /* \"#utility.yul\":28208:28358   */\n      tag_767\n      jump\t// in\n    tag_980:\n        /* \"#utility.yul\":28200:28358   */\n      swap1\n      pop\n        /* \"#utility.yul\":27908:28365   */\n      swap3\n      swap2\n      pop\n      pop\n      jump\t// out\n        /* \"#utility.yul\":28371:28824   */\n    tag_179:\n        /* \"#utility.yul\":28554:28558   */\n      0x00\n        /* \"#utility.yul\":28592:28594   */\n      0x20\n        /* \"#utility.yul\":28581:28590   */\n      dup3\n        /* \"#utility.yul\":28577:28595   */\n      add\n        /* \"#utility.yul\":28569:28595   */\n      swap1\n      pop\n        /* \"#utility.yul\":28641:28650   */\n      dup2\n        /* \"#utility.yul\":28635:28639   */\n      dup2\n        /* \"#utility.yul\":28631:28651   */\n      sub\n        /* \"#utility.yul\":28627:28628   */\n      0x00\n        /* \"#utility.yul\":28616:28625   */\n      dup4\n        /* \"#utility.yul\":28612:28629   */\n      add\n        /* \"#utility.yul\":28605:28652   */\n      mstore\n        /* \"#utility.yul\":28669:28817   */\n      tag_982\n        /* \"#utility.yul\":28812:28816   */\n      dup2\n        /* \"#utility.yul\":28803:28809   */\n      dup5\n        /* \"#utility.yul\":28669:28817   */\n      tag_781\n      jump\t// in\n    tag_982:\n        /* \"#utility.yul\":28661:28817   */\n      swap1\n      pop\n        /* \"#utility.yul\":28371:28824   */\n      swap3\n      swap2\n      pop\n      pop\n      jump\t// out\n        /* \"#utility.yul\":28830:29335   */\n    tag_281:\n        /* \"#utility.yul\":29039:29043   */\n      0x00\n        /* \"#utility.yul\":29077:29079   */\n      0x20\n        /* \"#utility.yul\":29066:29075   */\n      dup3\n        /* \"#utility.yul\":29062:29080   */\n      add\n        /* \"#utility.yul\":29054:29080   */\n      swap1\n      pop\n        /* \"#utility.yul\":29126:29135   */\n      dup2\n        /* \"#utility.yul\":29120:29124   */\n      dup2\n        /* \"#utility.yul\":29116:29136   */\n      sub\n        /* \"#utility.yul\":29112:29113   */\n      0x00\n        /* \"#utility.yul\":29101:29110   */\n      dup4\n        /* \"#utility.yul\":29097:29114   */\n      add\n        /* \"#utility.yul\":29090:29137   */\n      mstore\n        /* \"#utility.yul\":29154:29328   */\n      tag_984\n        /* \"#utility.yul\":29323:29327   */\n      dup2\n        /* \"#utility.yul\":29314:29320   */\n      dup5\n        /* \"#utility.yul\":29154:29328   */\n      tag_795\n      jump\t// in\n    tag_984:\n        /* \"#utility.yul\":29146:29328   */\n      swap1\n      pop\n        /* \"#utility.yul\":28830:29335   */\n      swap3\n      swap2\n      pop\n      pop\n      jump\t// out\n        /* \"#utility.yul\":29341:29818   */\n    tag_158:\n        /* \"#utility.yul\":29536:29540   */\n      0x00\n        /* \"#utility.yul\":29574:29576   */\n      0x20\n        /* \"#utility.yul\":29563:29572   */\n      dup3\n        /* \"#utility.yul\":29559:29577   */\n      add\n        /* \"#utility.yul\":29551:29577   */\n      swap1\n      pop\n        /* \"#utility.yul\":29623:29632   */\n      dup2\n        /* \"#utility.yul\":29617:29621   */\n      dup2\n        /* \"#utility.yul\":29613:29633   */\n      sub\n        /* \"#utility.yul\":29609:29610   */\n      0x00\n        /* \"#utility.yul\":29598:29607   */\n      dup4\n        /* \"#utility.yul\":29594:29611   */\n      add\n        /* \"#utility.yul\":29587:29634   */\n      mstore\n        /* \"#utility.yul\":29651:29811   */\n      tag_986\n        /* \"#utility.yul\":29806:29810   */\n      dup2\n        /* \"#utility.yul\":29797:29803   */\n      dup5\n        /* \"#utility.yul\":29651:29811   */\n      tag_809\n      jump\t// in\n    tag_986:\n        /* \"#utility.yul\":29643:29811   */\n      swap1\n      pop\n        /* \"#utility.yul\":29341:29818   */\n      swap3\n      swap2\n      pop\n      pop\n      jump\t// out\n        /* \"#utility.yul\":29824:30034   */\n    tag_81:\n        /* \"#utility.yul\":29911:29915   */\n      0x00\n        /* \"#utility.yul\":29949:29951   */\n      0x20\n        /* \"#utility.yul\":29938:29947   */\n      dup3\n        /* \"#utility.yul\":29934:29952   */\n      add\n        /* \"#utility.yul\":29926:29952   */\n      swap1\n      pop\n        /* \"#utility.yul\":29962:30027   */\n      tag_988\n        /* \"#utility.yul\":30024:30025   */\n      0x00\n        /* \"#utility.yul\":30013:30022   */\n      dup4\n        /* \"#utility.yul\":30009:30026   */\n      add\n        /* \"#utility.yul\":30000:30006   */\n      dup5\n        /* \"#utility.yul\":29962:30027   */\n      tag_827\n      jump\t// in\n    tag_988:\n        /* \"#utility.yul\":29824:30034   */\n      swap3\n      swap2\n      pop\n      pop\n      jump\t// out\n        /* \"#utility.yul\":30040:30993   */\n    tag_208:\n        /* \"#utility.yul\":30311:30315   */\n      0x00\n        /* \"#utility.yul\":30349:30352   */\n      0xc0\n        /* \"#utility.yul\":30338:30347   */\n      dup3\n        /* \"#utility.yul\":30334:30353   */\n      add\n        /* \"#utility.yul\":30326:30353   */\n      swap1\n      pop\n        /* \"#utility.yul\":30363:30428   */\n      tag_990\n        /* \"#utility.yul\":30425:30426   */\n      0x00\n        /* \"#utility.yul\":30414:30423   */\n      dup4\n        /* \"#utility.yul\":30410:30427   */\n      add\n        /* \"#utility.yul\":30401:30407   */\n      dup10\n        /* \"#utility.yul\":30363:30428   */\n      tag_827\n      jump\t// in\n    tag_990:\n        /* \"#utility.yul\":30438:30510   */\n      tag_991\n        /* \"#utility.yul\":30506:30508   */\n      0x20\n        /* \"#utility.yul\":30495:30504   */\n      dup4\n        /* \"#utility.yul\":30491:30509   */\n      add\n        /* \"#utility.yul\":30482:30488   */\n      dup9\n        /* \"#utility.yul\":30438:30510   */\n      tag_735\n      jump\t// in\n    tag_991:\n        /* \"#utility.yul\":30520:30590   */\n      tag_992\n        /* \"#utility.yul\":30586:30588   */\n      0x40\n        /* \"#utility.yul\":30575:30584   */\n      dup4\n        /* \"#utility.yul\":30571:30589   */\n      add\n        /* \"#utility.yul\":30562:30568   */\n      dup8\n        /* \"#utility.yul\":30520:30590   */\n      tag_953\n      jump\t// in\n    tag_992:\n        /* \"#utility.yul\":30600:30678   */\n      tag_993\n        /* \"#utility.yul\":30674:30676   */\n      0x60\n        /* \"#utility.yul\":30663:30672   */\n      dup4\n        /* \"#utility.yul\":30659:30677   */\n      add\n        /* \"#utility.yul\":30650:30656   */\n      dup7\n        /* \"#utility.yul\":30600:30678   */\n      tag_830\n      jump\t// in\n    tag_993:\n        /* \"#utility.yul\":30726:30735   */\n      dup2\n        /* \"#utility.yul\":30720:30724   */\n      dup2\n        /* \"#utility.yul\":30716:30736   */\n      sub\n        /* \"#utility.yul\":30710:30713   */\n      0x80\n        /* \"#utility.yul\":30699:30708   */\n      dup4\n        /* \"#utility.yul\":30695:30714   */\n      add\n        /* \"#utility.yul\":30688:30737   */\n      mstore\n        /* \"#utility.yul\":30754:30832   */\n      tag_994\n        /* \"#utility.yul\":30827:30831   */\n      dup2\n        /* \"#utility.yul\":30818:30824   */\n      dup6\n        /* \"#utility.yul\":30754:30832   */\n      tag_844\n      jump\t// in\n    tag_994:\n        /* \"#utility.yul\":30746:30832   */\n      swap1\n      pop\n        /* \"#utility.yul\":30880:30889   */\n      dup2\n        /* \"#utility.yul\":30874:30878   */\n      dup2\n        /* \"#utility.yul\":30870:30890   */\n      sub\n        /* \"#utility.yul\":30864:30867   */\n      0xa0\n        /* \"#utility.yul\":30853:30862   */\n      dup4\n        /* \"#utility.yul\":30849:30868   */\n      add\n        /* \"#utility.yul\":30842:30891   */\n      mstore\n        /* \"#utility.yul\":30908:30986   */\n      tag_995\n        /* \"#utility.yul\":30981:30985   */\n      dup2\n        /* \"#utility.yul\":30972:30978   */\n      dup5\n        /* \"#utility.yul\":30908:30986   */\n      tag_844\n      jump\t// in\n    tag_995:\n        /* \"#utility.yul\":30900:30986   */\n      swap1\n      pop\n        /* \"#utility.yul\":30040:30993   */\n      swap8\n      swap7\n      pop\n      pop\n      pop\n      pop\n      pop\n      pop\n      pop\n      jump\t// out\n        /* \"#utility.yul\":30999:31512   */\n    tag_106:\n        /* \"#utility.yul\":31158:31162   */\n      0x00\n        /* \"#utility.yul\":31196:31198   */\n      0x60\n        /* \"#utility.yul\":31185:31194   */\n      dup3\n        /* \"#utility.yul\":31181:31199   */\n      add\n        /* \"#utility.yul\":31173:31199   */\n      swap1\n      pop\n        /* \"#utility.yul\":31209:31274   */\n      tag_997\n        /* \"#utility.yul\":31271:31272   */\n      0x00\n        /* \"#utility.yul\":31260:31269   */\n      dup4\n        /* \"#utility.yul\":31256:31273   */\n      add\n        /* \"#utility.yul\":31247:31253   */\n      dup7\n        /* \"#utility.yul\":31209:31274   */\n      tag_827\n      jump\t// in\n    tag_997:\n        /* \"#utility.yul\":31321:31330   */\n      dup2\n        /* \"#utility.yul\":31315:31319   */\n      dup2\n        /* \"#utility.yul\":31311:31331   */\n      sub\n        /* \"#utility.yul\":31306:31308   */\n      0x20\n        /* \"#utility.yul\":31295:31304   */\n      dup4\n        /* \"#utility.yul\":31291:31309   */\n      add\n        /* \"#utility.yul\":31284:31332   */\n      mstore\n        /* \"#utility.yul\":31349:31427   */\n      tag_998\n        /* \"#utility.yul\":31422:31426   */\n      dup2\n        /* \"#utility.yul\":31413:31419   */\n      dup6\n        /* \"#utility.yul\":31349:31427   */\n      tag_844\n      jump\t// in\n    tag_998:\n        /* \"#utility.yul\":31341:31427   */\n      swap1\n      pop\n        /* \"#utility.yul\":31437:31505   */\n      tag_999\n        /* \"#utility.yul\":31501:31503   */\n      0x40\n        /* \"#utility.yul\":31490:31499   */\n      dup4\n        /* \"#utility.yul\":31486:31504   */\n      add\n        /* \"#utility.yul\":31477:31483   */\n      dup5\n        /* \"#utility.yul\":31437:31505   */\n      tag_970\n      jump\t// in\n    tag_999:\n        /* \"#utility.yul\":30999:31512   */\n      swap5\n      swap4\n      pop\n      pop\n      pop\n      pop\n      jump\t// out\n        /* \"#utility.yul\":31518:32142   */\n    tag_134:\n        /* \"#utility.yul\":31705:31709   */\n      0x00\n        /* \"#utility.yul\":31743:31746   */\n      0x80\n        /* \"#utility.yul\":31732:31741   */\n      dup3\n        /* \"#utility.yul\":31728:31747   */\n      add\n        /* \"#utility.yul\":31720:31747   */\n      swap1\n      pop\n        /* \"#utility.yul\":31757:31822   */\n      tag_1001\n        /* \"#utility.yul\":31819:31820   */\n      0x00\n        /* \"#utility.yul\":31808:31817   */\n      dup4\n        /* \"#utility.yul\":31804:31821   */\n      add\n        /* \"#utility.yul\":31795:31801   */\n      dup8\n        /* \"#utility.yul\":31757:31822   */\n      tag_827\n      jump\t// in\n    tag_1001:\n        /* \"#utility.yul\":31832:31900   */\n      tag_1002\n        /* \"#utility.yul\":31896:31898   */\n      0x20\n        /* \"#utility.yul\":31885:31894   */\n      dup4\n        /* \"#utility.yul\":31881:31899   */\n      add\n        /* \"#utility.yul\":31872:31878   */\n      dup7\n        /* \"#utility.yul\":31832:31900   */\n      tag_970\n      jump\t// in\n    tag_1002:\n        /* \"#utility.yul\":31910:31982   */\n      tag_1003\n        /* \"#utility.yul\":31978:31980   */\n      0x40\n        /* \"#utility.yul\":31967:31976   */\n      dup4\n        /* \"#utility.yul\":31963:31981   */\n      add\n        /* \"#utility.yul\":31954:31960   */\n      dup6\n        /* \"#utility.yul\":31910:31982   */\n      tag_960\n      jump\t// in\n    tag_1003:\n        /* \"#utility.yul\":32029:32038   */\n      dup2\n        /* \"#utility.yul\":32023:32027   */\n      dup2\n        /* \"#utility.yul\":32019:32039   */\n      sub\n        /* \"#utility.yul\":32014:32016   */\n      0x60\n        /* \"#utility.yul\":32003:32012   */\n      dup4\n        /* \"#utility.yul\":31999:32017   */\n      add\n        /* \"#utility.yul\":31992:32040   */\n      mstore\n        /* \"#utility.yul\":32057:32135   */\n      tag_1004\n        /* \"#utility.yul\":32130:32134   */\n      dup2\n        /* \"#utility.yul\":32121:32127   */\n      dup5\n        /* \"#utility.yul\":32057:32135   */\n      tag_844\n      jump\t// in\n    tag_1004:\n        /* \"#utility.yul\":32049:32135   */\n      swap1\n      pop\n        /* \"#utility.yul\":31518:32142   */\n      swap6\n      swap5\n      pop\n      pop\n      pop\n      pop\n      pop\n      jump\t// out\n        /* \"#utility.yul\":32148:32567   */\n    tag_345:\n        /* \"#utility.yul\":32314:32318   */\n      0x00\n        /* \"#utility.yul\":32352:32354   */\n      0x20\n        /* \"#utility.yul\":32341:32350   */\n      dup3\n        /* \"#utility.yul\":32337:32355   */\n      add\n        /* \"#utility.yul\":32329:32355   */\n      swap1\n      pop\n        /* \"#utility.yul\":32401:32410   */\n      dup2\n        /* \"#utility.yul\":32395:32399   */\n      dup2\n        /* \"#utility.yul\":32391:32411   */\n      sub\n        /* \"#utility.yul\":32387:32388   */\n      0x00\n        /* \"#utility.yul\":32376:32385   */\n      dup4\n        /* \"#utility.yul\":32372:32389   */\n      add\n        /* \"#utility.yul\":32365:32412   */\n      mstore\n        /* \"#utility.yul\":32429:32560   */\n      tag_1006\n        /* \"#utility.yul\":32555:32559   */\n      dup2\n        /* \"#utility.yul\":32429:32560   */\n      tag_851\n      jump\t// in\n    tag_1006:\n        /* \"#utility.yul\":32421:32560   */\n      swap1\n      pop\n        /* \"#utility.yul\":32148:32567   */\n      swap2\n      swap1\n      pop\n      jump\t// out\n        /* \"#utility.yul\":32573:32992   */\n    tag_479:\n        /* \"#utility.yul\":32739:32743   */\n      0x00\n        /* \"#utility.yul\":32777:32779   */\n      0x20\n        /* \"#utility.yul\":32766:32775   */\n      dup3\n        /* \"#utility.yul\":32762:32780   */\n      add\n        /* \"#utility.yul\":32754:32780   */\n      swap1\n      pop\n        /* \"#utility.yul\":32826:32835   */\n      dup2\n        /* \"#utility.yul\":32820:32824   */\n      dup2\n        /* \"#utility.yul\":32816:32836   */\n      sub\n        /* \"#utility.yul\":32812:32813   */\n      0x00\n        /* \"#utility.yul\":32801:32810   */\n      dup4\n        /* \"#utility.yul\":32797:32814   */\n      add\n        /* \"#utility.yul\":32790:32837   */\n      mstore\n        /* \"#utility.yul\":32854:32985   */\n      tag_1008\n        /* \"#utility.yul\":32980:32984   */\n      dup2\n        /* \"#utility.yul\":32854:32985   */\n      tag_856\n      jump\t// in\n    tag_1008:\n        /* \"#utility.yul\":32846:32985   */\n      swap1\n      pop\n        /* \"#utility.yul\":32573:32992   */\n      swap2\n      swap1\n      pop\n      jump\t// out\n        /* \"#utility.yul\":32998:33417   */\n    tag_474:\n        /* \"#utility.yul\":33164:33168   */\n      0x00\n        /* \"#utility.yul\":33202:33204   */\n      0x20\n        /* \"#utility.yul\":33191:33200   */\n      dup3\n        /* \"#utility.yul\":33187:33205   */\n      add\n        /* \"#utility.yul\":33179:33205   */\n      swap1\n      pop\n        /* \"#utility.yul\":33251:33260   */\n      dup2\n        /* \"#utility.yul\":33245:33249   */\n      dup2\n        /* \"#utility.yul\":33241:33261   */\n      sub\n        /* \"#utility.yul\":33237:33238   */\n      0x00\n        /* \"#utility.yul\":33226:33235   */\n      dup4\n        /* \"#utility.yul\":33222:33239   */\n      add\n        /* \"#utility.yul\":33215:33262   */\n      mstore\n        /* \"#utility.yul\":33279:33410   */\n      tag_1010\n        /* \"#utility.yul\":33405:33409   */\n      dup2\n        /* \"#utility.yul\":33279:33410   */\n      tag_861\n      jump\t// in\n    tag_1010:\n        /* \"#utility.yul\":33271:33410   */\n      swap1\n      pop\n        /* \"#utility.yul\":32998:33417   */\n      swap2\n      swap1\n      pop\n      jump\t// out\n        /* \"#utility.yul\":33423:33842   */\n    tag_592:\n        /* \"#utility.yul\":33589:33593   */\n      0x00\n        /* \"#utility.yul\":33627:33629   */\n      0x20\n        /* \"#utility.yul\":33616:33625   */\n      dup3\n        /* \"#utility.yul\":33612:33630   */\n      add\n        /* \"#utility.yul\":33604:33630   */\n      swap1\n      pop\n        /* \"#utility.yul\":33676:33685   */\n      dup2\n        /* \"#utility.yul\":33670:33674   */\n      dup2\n        /* \"#utility.yul\":33666:33686   */\n      sub\n        /* \"#utility.yul\":33662:33663   */\n      0x00\n        /* \"#utility.yul\":33651:33660   */\n      dup4\n        /* \"#utility.yul\":33647:33664   */\n      add\n        /* \"#utility.yul\":33640:33687   */\n      mstore\n        /* \"#utility.yul\":33704:33835   */\n      tag_1012\n        /* \"#utility.yul\":33830:33834   */\n      dup2\n        /* \"#utility.yul\":33704:33835   */\n      tag_866\n      jump\t// in\n    tag_1012:\n        /* \"#utility.yul\":33696:33835   */\n      swap1\n      pop\n        /* \"#utility.yul\":33423:33842   */\n      swap2\n      swap1\n      pop\n      jump\t// out\n        /* \"#utility.yul\":33848:34267   */\n    tag_507:\n        /* \"#utility.yul\":34014:34018   */\n      0x00\n        /* \"#utility.yul\":34052:34054   */\n      0x20\n        /* \"#utility.yul\":34041:34050   */\n      dup3\n        /* \"#utility.yul\":34037:34055   */\n      add\n        /* \"#utility.yul\":34029:34055   */\n      swap1\n      pop\n        /* \"#utility.yul\":34101:34110   */\n      dup2\n        /* \"#utility.yul\":34095:34099   */\n      dup2\n        /* \"#utility.yul\":34091:34111   */\n      sub\n        /* \"#utility.yul\":34087:34088   */\n      0x00\n        /* \"#utility.yul\":34076:34085   */\n      dup4\n        /* \"#utility.yul\":34072:34089   */\n      add\n        /* \"#utility.yul\":34065:34112   */\n      mstore\n        /* \"#utility.yul\":34129:34260   */\n      tag_1014\n        /* \"#utility.yul\":34255:34259   */\n      dup2\n        /* \"#utility.yul\":34129:34260   */\n      tag_871\n      jump\t// in\n    tag_1014:\n        /* \"#utility.yul\":34121:34260   */\n      swap1\n      pop\n        /* \"#utility.yul\":33848:34267   */\n      swap2\n      swap1\n      pop\n      jump\t// out\n        /* \"#utility.yul\":34273:34692   */\n    tag_540:\n        /* \"#utility.yul\":34439:34443   */\n      0x00\n        /* \"#utility.yul\":34477:34479   */\n      0x20\n        /* \"#utility.yul\":34466:34475   */\n      dup3\n        /* \"#utility.yul\":34462:34480   */\n      add\n        /* \"#utility.yul\":34454:34480   */\n      swap1\n      pop\n        /* \"#utility.yul\":34526:34535   */\n      dup2\n        /* \"#utility.yul\":34520:34524   */\n      dup2\n        /* \"#utility.yul\":34516:34536   */\n      sub\n        /* \"#utility.yul\":34512:34513   */\n      0x00\n        /* \"#utility.yul\":34501:34510   */\n      dup4\n        /* \"#utility.yul\":34497:34514   */\n      add\n        /* \"#utility.yul\":34490:34537   */\n      mstore\n        /* \"#utility.yul\":34554:34685   */\n      tag_1016\n        /* \"#utility.yul\":34680:34684   */\n      dup2\n        /* \"#utility.yul\":34554:34685   */\n      tag_876\n      jump\t// in\n    tag_1016:\n        /* \"#utility.yul\":34546:34685   */\n      swap1\n      pop\n        /* \"#utility.yul\":34273:34692   */\n      swap2\n      swap1\n      pop\n      jump\t// out\n        /* \"#utility.yul\":34698:35117   */\n    tag_411:\n        /* \"#utility.yul\":34864:34868   */\n      0x00\n        /* \"#utility.yul\":34902:34904   */\n      0x20\n        /* \"#utility.yul\":34891:34900   */\n      dup3\n        /* \"#utility.yul\":34887:34905   */\n      add\n        /* \"#utility.yul\":34879:34905   */\n      swap1\n      pop\n        /* \"#utility.yul\":34951:34960   */\n      dup2\n        /* \"#utility.yul\":34945:34949   */\n      dup2\n        /* \"#utility.yul\":34941:34961   */\n      sub\n        /* \"#utility.yul\":34937:34938   */\n      0x00\n        /* \"#utility.yul\":34926:34935   */\n      dup4\n        /* \"#utility.yul\":34922:34939   */\n      add\n        /* \"#utility.yul\":34915:34962   */\n      mstore\n        /* \"#utility.yul\":34979:35110   */\n      tag_1018\n        /* \"#utility.yul\":35105:35109   */\n      dup2\n        /* \"#utility.yul\":34979:35110   */\n      tag_881\n      jump\t// in\n    tag_1018:\n        /* \"#utility.yul\":34971:35110   */\n      swap1\n      pop\n        /* \"#utility.yul\":34698:35117   */\n      swap2\n      swap1\n      pop\n      jump\t// out\n        /* \"#utility.yul\":35123:35542   */\n    tag_395:\n        /* \"#utility.yul\":35289:35293   */\n      0x00\n        /* \"#utility.yul\":35327:35329   */\n      0x20\n        /* \"#utility.yul\":35316:35325   */\n      dup3\n        /* \"#utility.yul\":35312:35330   */\n      add\n        /* \"#utility.yul\":35304:35330   */\n      swap1\n      pop\n        /* \"#utility.yul\":35376:35385   */\n      dup2\n        /* \"#utility.yul\":35370:35374   */\n      dup2\n        /* \"#utility.yul\":35366:35386   */\n      sub\n        /* \"#utility.yul\":35362:35363   */\n      0x00\n        /* \"#utility.yul\":35351:35360   */\n      dup4\n        /* \"#utility.yul\":35347:35364   */\n      add\n        /* \"#utility.yul\":35340:35387   */\n      mstore\n        /* \"#utility.yul\":35404:35535   */\n      tag_1020\n        /* \"#utility.yul\":35530:35534   */\n      dup2\n        /* \"#utility.yul\":35404:35535   */\n      tag_886\n      jump\t// in\n    tag_1020:\n        /* \"#utility.yul\":35396:35535   */\n      swap1\n      pop\n        /* \"#utility.yul\":35123:35542   */\n      swap2\n      swap1\n      pop\n      jump\t// out\n        /* \"#utility.yul\":35548:35967   */\n    tag_306:\n        /* \"#utility.yul\":35714:35718   */\n      0x00\n        /* \"#utility.yul\":35752:35754   */\n      0x20\n        /* \"#utility.yul\":35741:35750   */\n      dup3\n        /* \"#utility.yul\":35737:35755   */\n      add\n        /* \"#utility.yul\":35729:35755   */\n      swap1\n      pop\n        /* \"#utility.yul\":35801:35810   */\n      dup2\n        /* \"#utility.yul\":35795:35799   */\n      dup2\n        /* \"#utility.yul\":35791:35811   */\n      sub\n        /* \"#utility.yul\":35787:35788   */\n      0x00\n        /* \"#utility.yul\":35776:35785   */\n      dup4\n        /* \"#utility.yul\":35772:35789   */\n      add\n        /* \"#utility.yul\":35765:35812   */\n      mstore\n        /* \"#utility.yul\":35829:35960   */\n      tag_1022\n        /* \"#utility.yul\":35955:35959   */\n      dup2\n        /* \"#utility.yul\":35829:35960   */\n      tag_891\n      jump\t// in\n    tag_1022:\n        /* \"#utility.yul\":35821:35960   */\n      swap1\n      pop\n        /* \"#utility.yul\":35548:35967   */\n      swap2\n      swap1\n      pop\n      jump\t// out\n        /* \"#utility.yul\":35973:36392   */\n    tag_286:\n        /* \"#utility.yul\":36139:36143   */\n      0x00\n        /* \"#utility.yul\":36177:36179   */\n      0x20\n        /* \"#utility.yul\":36166:36175   */\n      dup3\n        /* \"#utility.yul\":36162:36180   */\n      add\n        /* \"#utility.yul\":36154:36180   */\n      swap1\n      pop\n        /* \"#utility.yul\":36226:36235   */\n      dup2\n        /* \"#utility.yul\":36220:36224   */\n      dup2\n        /* \"#utility.yul\":36216:36236   */\n      sub\n        /* \"#utility.yul\":36212:36213   */\n      0x00\n        /* \"#utility.yul\":36201:36210   */\n      dup4\n        /* \"#utility.yul\":36197:36214   */\n      add\n        /* \"#utility.yul\":36190:36237   */\n      mstore\n        /* \"#utility.yul\":36254:36385   */\n      tag_1024\n        /* \"#utility.yul\":36380:36384   */\n      dup2\n        /* \"#utility.yul\":36254:36385   */\n      tag_896\n      jump\t// in\n    tag_1024:\n        /* \"#utility.yul\":36246:36385   */\n      swap1\n      pop\n        /* \"#utility.yul\":35973:36392   */\n      swap2\n      swap1\n      pop\n      jump\t// out\n        /* \"#utility.yul\":36398:36817   */\n    tag_358:\n        /* \"#utility.yul\":36564:36568   */\n      0x00\n        /* \"#utility.yul\":36602:36604   */\n      0x20\n        /* \"#utility.yul\":36591:36600   */\n      dup3\n        /* \"#utility.yul\":36587:36605   */\n      add\n        /* \"#utility.yul\":36579:36605   */\n      swap1\n      pop\n        /* \"#utility.yul\":36651:36660   */\n      dup2\n        /* \"#utility.yul\":36645:36649   */\n      dup2\n        /* \"#utility.yul\":36641:36661   */\n      sub\n        /* \"#utility.yul\":36637:36638   */\n      0x00\n        /* \"#utility.yul\":36626:36635   */\n      dup4\n        /* \"#utility.yul\":36622:36639   */\n      add\n        /* \"#utility.yul\":36615:36662   */\n      mstore\n        /* \"#utility.yul\":36679:36810   */\n      tag_1026\n        /* \"#utility.yul\":36805:36809   */\n      dup2\n        /* \"#utility.yul\":36679:36810   */\n      tag_901\n      jump\t// in\n    tag_1026:\n        /* \"#utility.yul\":36671:36810   */\n      swap1\n      pop\n        /* \"#utility.yul\":36398:36817   */\n      swap2\n      swap1\n      pop\n      jump\t// out\n        /* \"#utility.yul\":36823:37242   */\n    tag_586:\n        /* \"#utility.yul\":36989:36993   */\n      0x00\n        /* \"#utility.yul\":37027:37029   */\n      0x20\n        /* \"#utility.yul\":37016:37025   */\n      dup3\n        /* \"#utility.yul\":37012:37030   */\n      add\n        /* \"#utility.yul\":37004:37030   */\n      swap1\n      pop\n        /* \"#utility.yul\":37076:37085   */\n      dup2\n        /* \"#utility.yul\":37070:37074   */\n      dup2\n        /* \"#utility.yul\":37066:37086   */\n      sub\n        /* \"#utility.yul\":37062:37063   */\n      0x00\n        /* \"#utility.yul\":37051:37060   */\n      dup4\n        /* \"#utility.yul\":37047:37064   */\n      add\n        /* \"#utility.yul\":37040:37087   */\n      mstore\n        /* \"#utility.yul\":37104:37235   */\n      tag_1028\n        /* \"#utility.yul\":37230:37234   */\n      dup2\n        /* \"#utility.yul\":37104:37235   */\n      tag_906\n      jump\t// in\n    tag_1028:\n        /* \"#utility.yul\":37096:37235   */\n      swap1\n      pop\n        /* \"#utility.yul\":36823:37242   */\n      swap2\n      swap1\n      pop\n      jump\t// out\n        /* \"#utility.yul\":37248:37667   */\n    tag_300:\n        /* \"#utility.yul\":37414:37418   */\n      0x00\n        /* \"#utility.yul\":37452:37454   */\n      0x20\n        /* \"#utility.yul\":37441:37450   */\n      dup3\n        /* \"#utility.yul\":37437:37455   */\n      add\n        /* \"#utility.yul\":37429:37455   */\n      swap1\n      pop\n        /* \"#utility.yul\":37501:37510   */\n      dup2\n        /* \"#utility.yul\":37495:37499   */\n      dup2\n        /* \"#utility.yul\":37491:37511   */\n      sub\n        /* \"#utility.yul\":37487:37488   */\n      0x00\n        /* \"#utility.yul\":37476:37485   */\n      dup4\n        /* \"#utility.yul\":37472:37489   */\n      add\n        /* \"#utility.yul\":37465:37512   */\n      mstore\n        /* \"#utility.yul\":37529:37660   */\n      tag_1030\n        /* \"#utility.yul\":37655:37659   */\n      dup2\n        /* \"#utility.yul\":37529:37660   */\n      tag_911\n      jump\t// in\n    tag_1030:\n        /* \"#utility.yul\":37521:37660   */\n      swap1\n      pop\n        /* \"#utility.yul\":37248:37667   */\n      swap2\n      swap1\n      pop\n      jump\t// out\n        /* \"#utility.yul\":37673:38092   */\n    tag_319:\n        /* \"#utility.yul\":37839:37843   */\n      0x00\n        /* \"#utility.yul\":37877:37879   */\n      0x20\n        /* \"#utility.yul\":37866:37875   */\n      dup3\n        /* \"#utility.yul\":37862:37880   */\n      add\n        /* \"#utility.yul\":37854:37880   */\n      swap1\n      pop\n        /* \"#utility.yul\":37926:37935   */\n      dup2\n        /* \"#utility.yul\":37920:37924   */\n      dup2\n        /* \"#utility.yul\":37916:37936   */\n      sub\n        /* \"#utility.yul\":37912:37913   */\n      0x00\n        /* \"#utility.yul\":37901:37910   */\n      dup4\n        /* \"#utility.yul\":37897:37914   */\n      add\n        /* \"#utility.yul\":37890:37937   */\n      mstore\n        /* \"#utility.yul\":37954:38085   */\n      tag_1032\n        /* \"#utility.yul\":38080:38084   */\n      dup2\n        /* \"#utility.yul\":37954:38085   */\n      tag_916\n      jump\t// in\n    tag_1032:\n        /* \"#utility.yul\":37946:38085   */\n      swap1\n      pop\n        /* \"#utility.yul\":37673:38092   */\n      swap2\n      swap1\n      pop\n      jump\t// out\n        /* \"#utility.yul\":38098:38517   */\n    tag_450:\n        /* \"#utility.yul\":38264:38268   */\n      0x00\n        /* \"#utility.yul\":38302:38304   */\n      0x20\n        /* \"#utility.yul\":38291:38300   */\n      dup3\n        /* \"#utility.yul\":38287:38305   */\n      add\n        /* \"#utility.yul\":38279:38305   */\n      swap1\n      pop\n        /* \"#utility.yul\":38351:38360   */\n      dup2\n        /* \"#utility.yul\":38345:38349   */\n      dup2\n        /* \"#utility.yul\":38341:38361   */\n      sub\n        /* \"#utility.yul\":38337:38338   */\n      0x00\n        /* \"#utility.yul\":38326:38335   */\n      dup4\n        /* \"#utility.yul\":38322:38339   */\n      add\n        /* \"#utility.yul\":38315:38362   */\n      mstore\n        /* \"#utility.yul\":38379:38510   */\n      tag_1034\n        /* \"#utility.yul\":38505:38509   */\n      dup2\n        /* \"#utility.yul\":38379:38510   */\n      tag_921\n      jump\t// in\n    tag_1034:\n        /* \"#utility.yul\":38371:38510   */\n      swap1\n      pop\n        /* \"#utility.yul\":38098:38517   */\n      swap2\n      swap1\n      pop\n      jump\t// out\n        /* \"#utility.yul\":38523:38942   */\n    tag_185:\n        /* \"#utility.yul\":38662:38666   */\n      0x00\n        /* \"#utility.yul\":38700:38702   */\n      0x40\n        /* \"#utility.yul\":38689:38698   */\n      dup3\n        /* \"#utility.yul\":38685:38703   */\n      add\n        /* \"#utility.yul\":38677:38703   */\n      swap1\n      pop\n        /* \"#utility.yul\":38713:38782   */\n      tag_1036\n        /* \"#utility.yul\":38779:38780   */\n      0x00\n        /* \"#utility.yul\":38768:38777   */\n      dup4\n        /* \"#utility.yul\":38764:38781   */\n      add\n        /* \"#utility.yul\":38755:38761   */\n      dup6\n        /* \"#utility.yul\":38713:38782   */\n      tag_963\n      jump\t// in\n    tag_1036:\n        /* \"#utility.yul\":38829:38838   */\n      dup2\n        /* \"#utility.yul\":38823:38827   */\n      dup2\n        /* \"#utility.yul\":38819:38839   */\n      sub\n        /* \"#utility.yul\":38814:38816   */\n      0x20\n        /* \"#utility.yul\":38803:38812   */\n      dup4\n        /* \"#utility.yul\":38799:38817   */\n      add\n        /* \"#utility.yul\":38792:38840   */\n      mstore\n        /* \"#utility.yul\":38857:38935   */\n      tag_1037\n        /* \"#utility.yul\":38930:38934   */\n      dup2\n        /* \"#utility.yul\":38921:38927   */\n      dup5\n        /* \"#utility.yul\":38857:38935   */\n      tag_844\n      jump\t// in\n    tag_1037:\n        /* \"#utility.yul\":38849:38935   */\n      swap1\n      pop\n        /* \"#utility.yul\":38523:38942   */\n      swap4\n      swap3\n      pop\n      pop\n      pop\n      jump\t// out\n        /* \"#utility.yul\":38948:39077   */\n    tag_637:\n        /* \"#utility.yul\":38982:38988   */\n      0x00\n        /* \"#utility.yul\":39009:39029   */\n      tag_1039\n      tag_1040\n      jump\t// in\n    tag_1039:\n        /* \"#utility.yul\":38999:39029   */\n      swap1\n      pop\n        /* \"#utility.yul\":39038:39071   */\n      tag_1041\n        /* \"#utility.yul\":39066:39070   */\n      dup3\n        /* \"#utility.yul\":39058:39064   */\n      dup3\n        /* \"#utility.yul\":39038:39071   */\n      tag_1042\n      jump\t// in\n    tag_1041:\n        /* \"#utility.yul\":38948:39077   */\n      swap2\n      swap1\n      pop\n      jump\t// out\n        /* \"#utility.yul\":39083:39158   */\n    tag_1040:\n        /* \"#utility.yul\":39116:39122   */\n      0x00\n        /* \"#utility.yul\":39149:39151   */\n      0x40\n        /* \"#utility.yul\":39143:39152   */\n      mload\n        /* \"#utility.yul\":39133:39152   */\n      swap1\n      pop\n        /* \"#utility.yul\":39083:39158   */\n      swap1\n      jump\t// out\n        /* \"#utility.yul\":39164:39472   */\n    tag_636:\n        /* \"#utility.yul\":39226:39230   */\n      0x00\n        /* \"#utility.yul\":39316:39334   */\n      0xffffffffffffffff\n        /* \"#utility.yul\":39308:39314   */\n      dup3\n        /* \"#utility.yul\":39305:39335   */\n      gt\n        /* \"#utility.yul\":39302:39358   */\n      iszero\n      tag_1045\n      jumpi\n        /* \"#utility.yul\":39338:39356   */\n      tag_1046\n      tag_368\n      jump\t// in\n    tag_1046:\n        /* \"#utility.yul\":39302:39358   */\n    tag_1045:\n        /* \"#utility.yul\":39376:39405   */\n      tag_1047\n        /* \"#utility.yul\":39398:39404   */\n      dup3\n        /* \"#utility.yul\":39376:39405   */\n      tag_843\n      jump\t// in\n    tag_1047:\n        /* \"#utility.yul\":39368:39405   */\n      swap1\n      pop\n        /* \"#utility.yul\":39460:39464   */\n      0x20\n        /* \"#utility.yul\":39454:39458   */\n      dup2\n        /* \"#utility.yul\":39450:39465   */\n      add\n        /* \"#utility.yul\":39442:39465   */\n      swap1\n      pop\n        /* \"#utility.yul\":39164:39472   */\n      swap2\n      swap1\n      pop\n      jump\t// out\n        /* \"#utility.yul\":39478:39632   */\n    tag_746:\n        /* \"#utility.yul\":39567:39571   */\n      0x00\n        /* \"#utility.yul\":39590:39593   */\n      dup2\n        /* \"#utility.yul\":39582:39593   */\n      swap1\n      pop\n        /* \"#utility.yul\":39620:39624   */\n      0x20\n        /* \"#utility.yul\":39615:39618   */\n      dup3\n        /* \"#utility.yul\":39611:39625   */\n      add\n        /* \"#utility.yul\":39603:39625   */\n      swap1\n      pop\n        /* \"#utility.yul\":39478:39632   */\n      swap2\n      swap1\n      pop\n      jump\t// out\n        /* \"#utility.yul\":39638:39797   */\n    tag_760:\n        /* \"#utility.yul\":39732:39736   */\n      0x00\n        /* \"#utility.yul\":39755:39758   */\n      dup2\n        /* \"#utility.yul\":39747:39758   */\n      swap1\n      pop\n        /* \"#utility.yul\":39785:39789   */\n      0x20\n        /* \"#utility.yul\":39780:39783   */\n      dup3\n        /* \"#utility.yul\":39776:39790   */\n      add\n        /* \"#utility.yul\":39768:39790   */\n      swap1\n      pop\n        /* \"#utility.yul\":39638:39797   */\n      swap2\n      swap1\n      pop\n      jump\t// out\n        /* \"#utility.yul\":39803:39956   */\n    tag_774:\n        /* \"#utility.yul\":39891:39895   */\n      0x00\n        /* \"#utility.yul\":39914:39917   */\n      dup2\n        /* \"#utility.yul\":39906:39917   */\n      swap1\n      pop\n        /* \"#utility.yul\":39944:39948   */\n      0x20\n        /* \"#utility.yul\":39939:39942   */\n      dup3\n        /* \"#utility.yul\":39935:39949   */\n      add\n        /* \"#utility.yul\":39927:39949   */\n      swap1\n      pop\n        /* \"#utility.yul\":39803:39956   */\n      swap2\n      swap1\n      pop\n      jump\t// out\n        /* \"#utility.yul\":39962:40114   */\n    tag_788:\n        /* \"#utility.yul\":40049:40053   */\n      0x00\n        /* \"#utility.yul\":40072:40075   */\n      dup2\n        /* \"#utility.yul\":40064:40075   */\n      swap1\n      pop\n        /* \"#utility.yul\":40102:40106   */\n      0x20\n        /* \"#utility.yul\":40097:40100   */\n      dup3\n        /* \"#utility.yul\":40093:40107   */\n      add\n        /* \"#utility.yul\":40085:40107   */\n      swap1\n      pop\n        /* \"#utility.yul\":39962:40114   */\n      swap2\n      swap1\n      pop\n      jump\t// out\n        /* \"#utility.yul\":40120:40285   */\n    tag_802:\n        /* \"#utility.yul\":40220:40224   */\n      0x00\n        /* \"#utility.yul\":40243:40246   */\n      dup2\n        /* \"#utility.yul\":40235:40246   */\n      swap1\n      pop\n        /* \"#utility.yul\":40273:40277   */\n      0x20\n        /* \"#utility.yul\":40268:40271   */\n      dup3\n        /* \"#utility.yul\":40264:40278   */\n      add\n        /* \"#utility.yul\":40256:40278   */\n      swap1\n      pop\n        /* \"#utility.yul\":40120:40285   */\n      swap2\n      swap1\n      pop\n      jump\t// out\n        /* \"#utility.yul\":40291:40449   */\n    tag_816:\n        /* \"#utility.yul\":40384:40388   */\n      0x00\n        /* \"#utility.yul\":40407:40410   */\n      dup2\n        /* \"#utility.yul\":40399:40410   */\n      swap1\n      pop\n        /* \"#utility.yul\":40437:40441   */\n      0x20\n        /* \"#utility.yul\":40432:40435   */\n      dup3\n        /* \"#utility.yul\":40428:40442   */\n      add\n        /* \"#utility.yul\":40420:40442   */\n      swap1\n      pop\n        /* \"#utility.yul\":40291:40449   */\n      swap2\n      swap1\n      pop\n      jump\t// out\n        /* \"#utility.yul\":40455:40591   */\n    tag_742:\n        /* \"#utility.yul\":40544:40550   */\n      0x00\n        /* \"#utility.yul\":40578:40583   */\n      dup2\n        /* \"#utility.yul\":40572:40584   */\n      mload\n        /* \"#utility.yul\":40562:40584   */\n      swap1\n      pop\n        /* \"#utility.yul\":40455:40591   */\n      swap2\n      swap1\n      pop\n      jump\t// out\n        /* \"#utility.yul\":40597:40738   */\n    tag_756:\n        /* \"#utility.yul\":40691:40697   */\n      0x00\n        /* \"#utility.yul\":40725:40730   */\n      dup2\n        /* \"#utility.yul\":40719:40731   */\n      mload\n        /* \"#utility.yul\":40709:40731   */\n      swap1\n      pop\n        /* \"#utility.yul\":40597:40738   */\n      swap2\n      swap1\n      pop\n      jump\t// out\n        /* \"#utility.yul\":40744:40879   */\n    tag_770:\n        /* \"#utility.yul\":40832:40838   */\n      0x00\n        /* \"#utility.yul\":40866:40871   */\n      dup2\n        /* \"#utility.yul\":40860:40872   */\n      mload\n        /* \"#utility.yul\":40850:40872   */\n      swap1\n      pop\n        /* \"#utility.yul\":40744:40879   */\n      swap2\n      swap1\n      pop\n      jump\t// out\n        /* \"#utility.yul\":40885:41019   */\n    tag_784:\n        /* \"#utility.yul\":40972:40978   */\n      0x00\n        /* \"#utility.yul\":41006:41011   */\n      dup2\n        /* \"#utility.yul\":41000:41012   */\n      mload\n        /* \"#utility.yul\":40990:41012   */\n      swap1\n      pop\n        /* \"#utility.yul\":40885:41019   */\n      swap2\n      swap1\n      pop\n      jump\t// out\n        /* \"#utility.yul\":41025:41172   */\n    tag_798:\n        /* \"#utility.yul\":41125:41131   */\n      0x00\n        /* \"#utility.yul\":41159:41164   */\n      dup2\n        /* \"#utility.yul\":41153:41165   */\n      mload\n        /* \"#utility.yul\":41143:41165   */\n      swap1\n      pop\n        /* \"#utility.yul\":41025:41172   */\n      swap2\n      swap1\n      pop\n      jump\t// out\n        /* \"#utility.yul\":41178:41318   */\n    tag_812:\n        /* \"#utility.yul\":41271:41277   */\n      0x00\n        /* \"#utility.yul\":41305:41310   */\n      dup2\n        /* \"#utility.yul\":41299:41311   */\n      mload\n        /* \"#utility.yul\":41289:41311   */\n      swap1\n      pop\n        /* \"#utility.yul\":41178:41318   */\n      swap2\n      swap1\n      pop\n      jump\t// out\n        /* \"#utility.yul\":41324:41423   */\n    tag_837:\n        /* \"#utility.yul\":41376:41382   */\n      0x00\n        /* \"#utility.yul\":41410:41415   */\n      dup2\n        /* \"#utility.yul\":41404:41416   */\n      mload\n        /* \"#utility.yul\":41394:41416   */\n      swap1\n      pop\n        /* \"#utility.yul\":41324:41423   */\n      swap2\n      swap1\n      pop\n      jump\t// out\n        /* \"#utility.yul\":41429:41564   */\n    tag_752:\n        /* \"#utility.yul\":41521:41525   */\n      0x00\n        /* \"#utility.yul\":41553:41557   */\n      0x20\n        /* \"#utility.yul\":41548:41551   */\n      dup3\n        /* \"#utility.yul\":41544:41558   */\n      add\n        /* \"#utility.yul\":41536:41558   */\n      swap1\n      pop\n        /* \"#utility.yul\":41429:41564   */\n      swap2\n      swap1\n      pop\n      jump\t// out\n        /* \"#utility.yul\":41570:41710   */\n    tag_766:\n        /* \"#utility.yul\":41667:41671   */\n      0x00\n        /* \"#utility.yul\":41699:41703   */\n      0x20\n        /* \"#utility.yul\":41694:41697   */\n      dup3\n        /* \"#utility.yul\":41690:41704   */\n      add\n        /* \"#utility.yul\":41682:41704   */\n      swap1\n      pop\n        /* \"#utility.yul\":41570:41710   */\n      swap2\n      swap1\n      pop\n      jump\t// out\n        /* \"#utility.yul\":41716:41850   */\n    tag_780:\n        /* \"#utility.yul\":41807:41811   */\n      0x00\n        /* \"#utility.yul\":41839:41843   */\n      0x20\n        /* \"#utility.yul\":41834:41837   */\n      dup3\n        /* \"#utility.yul\":41830:41844   */\n      add\n        /* \"#utility.yul\":41822:41844   */\n      swap1\n      pop\n        /* \"#utility.yul\":41716:41850   */\n      swap2\n      swap1\n      pop\n      jump\t// out\n        /* \"#utility.yul\":41856:41989   */\n    tag_794:\n        /* \"#utility.yul\":41946:41950   */\n      0x00\n        /* \"#utility.yul\":41978:41982   */\n      0x20\n        /* \"#utility.yul\":41973:41976   */\n      dup3\n        /* \"#utility.yul\":41969:41983   */\n      add\n        /* \"#utility.yul\":41961:41983   */\n      swap1\n      pop\n        /* \"#utility.yul\":41856:41989   */\n      swap2\n      swap1\n      pop\n      jump\t// out\n        /* \"#utility.yul\":41995:42141   */\n    tag_808:\n        /* \"#utility.yul\":42098:42102   */\n      0x00\n        /* \"#utility.yul\":42130:42134   */\n      0x20\n        /* \"#utility.yul\":42125:42128   */\n      dup3\n        /* \"#utility.yul\":42121:42135   */\n      add\n        /* \"#utility.yul\":42113:42135   */\n      swap1\n      pop\n        /* \"#utility.yul\":41995:42141   */\n      swap2\n      swap1\n      pop\n      jump\t// out\n        /* \"#utility.yul\":42147:42286   */\n    tag_822:\n        /* \"#utility.yul\":42243:42247   */\n      0x00\n        /* \"#utility.yul\":42275:42279   */\n      0x20\n        /* \"#utility.yul\":42270:42273   */\n      dup3\n        /* \"#utility.yul\":42266:42280   */\n      add\n        /* \"#utility.yul\":42258:42280   */\n      swap1\n      pop\n        /* \"#utility.yul\":42147:42286   */\n      swap2\n      swap1\n      pop\n      jump\t// out\n        /* \"#utility.yul\":42292:42498   */\n    tag_744:\n        /* \"#utility.yul\":42413:42424   */\n      0x00\n        /* \"#utility.yul\":42447:42453   */\n      dup3\n        /* \"#utility.yul\":42442:42445   */\n      dup3\n        /* \"#utility.yul\":42435:42454   */\n      mstore\n        /* \"#utility.yul\":42487:42491   */\n      0x20\n        /* \"#utility.yul\":42482:42485   */\n      dup3\n        /* \"#utility.yul\":42478:42492   */\n      add\n        /* \"#utility.yul\":42463:42492   */\n      swap1\n      pop\n        /* \"#utility.yul\":42292:42498   */\n      swap3\n      swap2\n      pop\n      pop\n      jump\t// out\n        /* \"#utility.yul\":42504:42715   */\n    tag_758:\n        /* \"#utility.yul\":42630:42641   */\n      0x00\n        /* \"#utility.yul\":42664:42670   */\n      dup3\n        /* \"#utility.yul\":42659:42662   */\n      dup3\n        /* \"#utility.yul\":42652:42671   */\n      mstore\n        /* \"#utility.yul\":42704:42708   */\n      0x20\n        /* \"#utility.yul\":42699:42702   */\n      dup3\n        /* \"#utility.yul\":42695:42709   */\n      add\n        /* \"#utility.yul\":42680:42709   */\n      swap1\n      pop\n        /* \"#utility.yul\":42504:42715   */\n      swap3\n      swap2\n      pop\n      pop\n      jump\t// out\n        /* \"#utility.yul\":42721:42926   */\n    tag_772:\n        /* \"#utility.yul\":42841:42852   */\n      0x00\n        /* \"#utility.yul\":42875:42881   */\n      dup3\n        /* \"#utility.yul\":42870:42873   */\n      dup3\n        /* \"#utility.yul\":42863:42882   */\n      mstore\n        /* \"#utility.yul\":42915:42919   */\n      0x20\n        /* \"#utility.yul\":42910:42913   */\n      dup3\n        /* \"#utility.yul\":42906:42920   */\n      add\n        /* \"#utility.yul\":42891:42920   */\n      swap1\n      pop\n        /* \"#utility.yul\":42721:42926   */\n      swap3\n      swap2\n      pop\n      pop\n      jump\t// out\n        /* \"#utility.yul\":42932:43136   */\n    tag_786:\n        /* \"#utility.yul\":43051:43062   */\n      0x00\n        /* \"#utility.yul\":43085:43091   */\n      dup3\n        /* \"#utility.yul\":43080:43083   */\n      dup3\n        /* \"#utility.yul\":43073:43092   */\n      mstore\n        /* \"#utility.yul\":43125:43129   */\n      0x20\n        /* \"#utility.yul\":43120:43123   */\n      dup3\n        /* \"#utility.yul\":43116:43130   */\n      add\n        /* \"#utility.yul\":43101:43130   */\n      swap1\n      pop\n        /* \"#utility.yul\":42932:43136   */\n      swap3\n      swap2\n      pop\n      pop\n      jump\t// out\n        /* \"#utility.yul\":43142:43359   */\n    tag_800:\n        /* \"#utility.yul\":43274:43285   */\n      0x00\n        /* \"#utility.yul\":43308:43314   */\n      dup3\n        /* \"#utility.yul\":43303:43306   */\n      dup3\n        /* \"#utility.yul\":43296:43315   */\n      mstore\n        /* \"#utility.yul\":43348:43352   */\n      0x20\n        /* \"#utility.yul\":43343:43346   */\n      dup3\n        /* \"#utility.yul\":43339:43353   */\n      add\n        /* \"#utility.yul\":43324:43353   */\n      swap1\n      pop\n        /* \"#utility.yul\":43142:43359   */\n      swap3\n      swap2\n      pop\n      pop\n      jump\t// out\n        /* \"#utility.yul\":43365:43575   */\n    tag_814:\n        /* \"#utility.yul\":43490:43501   */\n      0x00\n        /* \"#utility.yul\":43524:43530   */\n      dup3\n        /* \"#utility.yul\":43519:43522   */\n      dup3\n        /* \"#utility.yul\":43512:43531   */\n      mstore\n        /* \"#utility.yul\":43564:43568   */\n      0x20\n        /* \"#utility.yul\":43559:43562   */\n      dup3\n        /* \"#utility.yul\":43555:43569   */\n      add\n        /* \"#utility.yul\":43540:43569   */\n      swap1\n      pop\n        /* \"#utility.yul\":43365:43575   */\n      swap3\n      swap2\n      pop\n      pop\n      jump\t// out\n        /* \"#utility.yul\":43581:43740   */\n    tag_839:\n        /* \"#utility.yul\":43655:43666   */\n      0x00\n        /* \"#utility.yul\":43689:43695   */\n      dup3\n        /* \"#utility.yul\":43684:43687   */\n      dup3\n        /* \"#utility.yul\":43677:43696   */\n      mstore\n        /* \"#utility.yul\":43729:43733   */\n      0x20\n        /* \"#utility.yul\":43724:43727   */\n      dup3\n        /* \"#utility.yul\":43720:43734   */\n      add\n        /* \"#utility.yul\":43705:43734   */\n      swap1\n      pop\n        /* \"#utility.yul\":43581:43740   */\n      swap3\n      swap2\n      pop\n      pop\n      jump\t// out\n        /* \"#utility.yul\":43746:43915   */\n    tag_848:\n        /* \"#utility.yul\":43830:43841   */\n      0x00\n        /* \"#utility.yul\":43864:43870   */\n      dup3\n        /* \"#utility.yul\":43859:43862   */\n      dup3\n        /* \"#utility.yul\":43852:43871   */\n      mstore\n        /* \"#utility.yul\":43904:43908   */\n      0x20\n        /* \"#utility.yul\":43899:43902   */\n      dup3\n        /* \"#utility.yul\":43895:43909   */\n      add\n        /* \"#utility.yul\":43880:43909   */\n      swap1\n      pop\n        /* \"#utility.yul\":43746:43915   */\n      swap3\n      swap2\n      pop\n      pop\n      jump\t// out\n        /* \"#utility.yul\":43921:44017   */\n    tag_738:\n        /* \"#utility.yul\":43958:43965   */\n      0x00\n        /* \"#utility.yul\":43987:44011   */\n      tag_1076\n        /* \"#utility.yul\":44005:44010   */\n      dup3\n        /* \"#utility.yul\":43987:44011   */\n      tag_1077\n      jump\t// in\n    tag_1076:\n        /* \"#utility.yul\":43976:44011   */\n      swap1\n      pop\n        /* \"#utility.yul\":43921:44017   */\n      swap2\n      swap1\n      pop\n      jump\t// out\n        /* \"#utility.yul\":44023:44113   */\n    tag_826:\n        /* \"#utility.yul\":44057:44064   */\n      0x00\n        /* \"#utility.yul\":44100:44105   */\n      dup2\n        /* \"#utility.yul\":44093:44106   */\n      iszero\n        /* \"#utility.yul\":44086:44107   */\n      iszero\n        /* \"#utility.yul\":44075:44107   */\n      swap1\n      pop\n        /* \"#utility.yul\":44023:44113   */\n      swap2\n      swap1\n      pop\n      jump\t// out\n        /* \"#utility.yul\":44119:44246   */\n    tag_1079:\n        /* \"#utility.yul\":44164:44171   */\n      0x00\n        /* \"#utility.yul\":44193:44198   */\n      dup2\n        /* \"#utility.yul\":44182:44198   */\n      swap1\n      pop\n        /* \"#utility.yul\":44199:44240   */\n      tag_1081\n        /* \"#utility.yul\":44234:44239   */\n      dup3\n        /* \"#utility.yul\":44199:44240   */\n      tag_1082\n      jump\t// in\n    tag_1081:\n        /* \"#utility.yul\":44119:44246   */\n      swap2\n      swap1\n      pop\n      jump\t// out\n        /* \"#utility.yul\":44252:44341   */\n    tag_956:\n        /* \"#utility.yul\":44288:44295   */\n      0x00\n        /* \"#utility.yul\":44328:44334   */\n      0xffff\n        /* \"#utility.yul\":44321:44326   */\n      dup3\n        /* \"#utility.yul\":44317:44335   */\n      and\n        /* \"#utility.yul\":44306:44335   */\n      swap1\n      pop\n        /* \"#utility.yul\":44252:44341   */\n      swap2\n      swap1\n      pop\n      jump\t// out\n        /* \"#utility.yul\":44347:44473   */\n    tag_1077:\n        /* \"#utility.yul\":44384:44391   */\n      0x00\n        /* \"#utility.yul\":44424:44466   */\n      0xffffffffffffffffffffffffffffffffffffffff\n        /* \"#utility.yul\":44417:44422   */\n      dup3\n        /* \"#utility.yul\":44413:44467   */\n      and\n        /* \"#utility.yul\":44402:44467   */\n      swap1\n      pop\n        /* \"#utility.yul\":44347:44473   */\n      swap2\n      swap1\n      pop\n      jump\t// out\n        /* \"#utility.yul\":44479:44556   */\n    tag_959:\n        /* \"#utility.yul\":44516:44523   */\n      0x00\n        /* \"#utility.yul\":44545:44550   */\n      dup2\n        /* \"#utility.yul\":44534:44550   */\n      swap1\n      pop\n        /* \"#utility.yul\":44479:44556   */\n      swap2\n      swap1\n      pop\n      jump\t// out\n        /* \"#utility.yul\":44562:44655   */\n    tag_966:\n        /* \"#utility.yul\":44598:44605   */\n      0x00\n        /* \"#utility.yul\":44638:44648   */\n      0xffffffff\n        /* \"#utility.yul\":44631:44636   */\n      dup3\n        /* \"#utility.yul\":44627:44649   */\n      and\n        /* \"#utility.yul\":44616:44649   */\n      swap1\n      pop\n        /* \"#utility.yul\":44562:44655   */\n      swap2\n      swap1\n      pop\n      jump\t// out\n        /* \"#utility.yul\":44661:44747   */\n    tag_969:\n        /* \"#utility.yul\":44696:44703   */\n      0x00\n        /* \"#utility.yul\":44736:44740   */\n      0xff\n        /* \"#utility.yul\":44729:44734   */\n      dup3\n        /* \"#utility.yul\":44725:44741   */\n      and\n        /* \"#utility.yul\":44714:44741   */\n      swap1\n      pop\n        /* \"#utility.yul\":44661:44747   */\n      swap2\n      swap1\n      pop\n      jump\t// out\n        /* \"#utility.yul\":44753:44880   */\n    tag_833:\n        /* \"#utility.yul\":44809:44818   */\n      0x00\n        /* \"#utility.yul\":44842:44874   */\n      tag_1089\n        /* \"#utility.yul\":44868:44873   */\n      dup3\n        /* \"#utility.yul\":44842:44874   */\n      tag_1079\n      jump\t// in\n    tag_1089:\n        /* \"#utility.yul\":44829:44874   */\n      swap1\n      pop\n        /* \"#utility.yul\":44753:44880   */\n      swap2\n      swap1\n      pop\n      jump\t// out\n        /* \"#utility.yul\":44886:45040   */\n    tag_642:\n        /* \"#utility.yul\":44970:44976   */\n      dup3\n        /* \"#utility.yul\":44965:44968   */\n      dup2\n        /* \"#utility.yul\":44960:44963   */\n      dup4\n        /* \"#utility.yul\":44947:44977   */\n      calldatacopy\n        /* \"#utility.yul\":45032:45033   */\n      0x00\n        /* \"#utility.yul\":45023:45029   */\n      dup4\n        /* \"#utility.yul\":45018:45021   */\n      dup4\n        /* \"#utility.yul\":45014:45030   */\n      add\n        /* \"#utility.yul\":45007:45034   */\n      mstore\n        /* \"#utility.yul\":44886:45040   */\n      pop\n      pop\n      pop\n      jump\t// out\n        /* \"#utility.yul\":45046:45353   */\n    tag_841:\n        /* \"#utility.yul\":45114:45115   */\n      0x00\n        /* \"#utility.yul\":45124:45237   */\n    tag_1092:\n        /* \"#utility.yul\":45138:45144   */\n      dup4\n        /* \"#utility.yul\":45135:45136   */\n      dup2\n        /* \"#utility.yul\":45132:45145   */\n      lt\n        /* \"#utility.yul\":45124:45237   */\n      iszero\n      tag_1094\n      jumpi\n        /* \"#utility.yul\":45223:45224   */\n      dup1\n        /* \"#utility.yul\":45218:45221   */\n      dup3\n        /* \"#utility.yul\":45214:45225   */\n      add\n        /* \"#utility.yul\":45208:45226   */\n      mload\n        /* \"#utility.yul\":45204:45205   */\n      dup2\n        /* \"#utility.yul\":45199:45202   */\n      dup5\n        /* \"#utility.yul\":45195:45206   */\n      add\n        /* \"#utility.yul\":45188:45227   */\n      mstore\n        /* \"#utility.yul\":45160:45162   */\n      0x20\n        /* \"#utility.yul\":45157:45158   */\n      dup2\n        /* \"#utility.yul\":45153:45163   */\n      add\n        /* \"#utility.yul\":45148:45163   */\n      swap1\n      pop\n        /* \"#utility.yul\":45124:45237   */\n      jump(tag_1092)\n    tag_1094:\n        /* \"#utility.yul\":45255:45261   */\n      dup4\n        /* \"#utility.yul\":45252:45253   */\n      dup2\n        /* \"#utility.yul\":45249:45262   */\n      gt\n        /* \"#utility.yul\":45246:45347   */\n      iszero\n      tag_1095\n      jumpi\n        /* \"#utility.yul\":45335:45336   */\n      0x00\n        /* \"#utility.yul\":45326:45332   */\n      dup5\n        /* \"#utility.yul\":45321:45324   */\n      dup5\n        /* \"#utility.yul\":45317:45333   */\n      add\n        /* \"#utility.yul\":45310:45337   */\n      mstore\n        /* \"#utility.yul\":45246:45347   */\n    tag_1095:\n        /* \"#utility.yul\":45095:45353   */\n      pop\n        /* \"#utility.yul\":45046:45353   */\n      pop\n      pop\n      pop\n      jump\t// out\n        /* \"#utility.yul\":45359:45679   */\n    tag_310:\n        /* \"#utility.yul\":45403:45409   */\n      0x00\n        /* \"#utility.yul\":45440:45441   */\n      0x02\n        /* \"#utility.yul\":45434:45438   */\n      dup3\n        /* \"#utility.yul\":45430:45442   */\n      div\n        /* \"#utility.yul\":45420:45442   */\n      swap1\n      pop\n        /* \"#utility.yul\":45487:45488   */\n      0x01\n        /* \"#utility.yul\":45481:45485   */\n      dup3\n        /* \"#utility.yul\":45477:45489   */\n      and\n        /* \"#utility.yul\":45508:45526   */\n      dup1\n        /* \"#utility.yul\":45498:45579   */\n      tag_1097\n      jumpi\n        /* \"#utility.yul\":45564:45568   */\n      0x7f\n        /* \"#utility.yul\":45556:45562   */\n      dup3\n        /* \"#utility.yul\":45552:45569   */\n      and\n        /* \"#utility.yul\":45542:45569   */\n      swap2\n      pop\n        /* \"#utility.yul\":45498:45579   */\n    tag_1097:\n        /* \"#utility.yul\":45626:45628   */\n      0x20\n        /* \"#utility.yul\":45618:45624   */\n      dup3\n        /* \"#utility.yul\":45615:45629   */\n      lt\n        /* \"#utility.yul\":45595:45613   */\n      dup2\n        /* \"#utility.yul\":45592:45630   */\n      eq\n        /* \"#utility.yul\":45589:45673   */\n      iszero\n      tag_1098\n      jumpi\n        /* \"#utility.yul\":45645:45663   */\n      tag_1099\n      tag_1100\n      jump\t// in\n    tag_1099:\n        /* \"#utility.yul\":45589:45673   */\n    tag_1098:\n        /* \"#utility.yul\":45410:45679   */\n      pop\n        /* \"#utility.yul\":45359:45679   */\n      swap2\n      swap1\n      pop\n      jump\t// out\n        /* \"#utility.yul\":45685:45966   */\n    tag_1042:\n        /* \"#utility.yul\":45768:45795   */\n      tag_1102\n        /* \"#utility.yul\":45790:45794   */\n      dup3\n        /* \"#utility.yul\":45768:45795   */\n      tag_843\n      jump\t// in\n    tag_1102:\n        /* \"#utility.yul\":45760:45766   */\n      dup2\n        /* \"#utility.yul\":45756:45796   */\n      add\n        /* \"#utility.yul\":45898:45904   */\n      dup2\n        /* \"#utility.yul\":45886:45896   */\n      dup2\n        /* \"#utility.yul\":45883:45905   */\n      lt\n        /* \"#utility.yul\":45862:45880   */\n      0xffffffffffffffff\n        /* \"#utility.yul\":45850:45860   */\n      dup3\n        /* \"#utility.yul\":45847:45881   */\n      gt\n        /* \"#utility.yul\":45844:45906   */\n      or\n        /* \"#utility.yul\":45841:45929   */\n      iszero\n      tag_1103\n      jumpi\n        /* \"#utility.yul\":45909:45927   */\n      tag_1104\n      tag_368\n      jump\t// in\n    tag_1104:\n        /* \"#utility.yul\":45841:45929   */\n    tag_1103:\n        /* \"#utility.yul\":45949:45959   */\n      dup1\n        /* \"#utility.yul\":45945:45947   */\n      0x40\n        /* \"#utility.yul\":45938:45960   */\n      mstore\n        /* \"#utility.yul\":45728:45966   */\n      pop\n        /* \"#utility.yul\":45685:45966   */\n      pop\n      pop\n      jump\t// out\n        /* \"#utility.yul\":45972:46205   */\n    tag_386:\n        /* \"#utility.yul\":46011:46014   */\n      0x00\n        /* \"#utility.yul\":46034:46058   */\n      tag_1106\n        /* \"#utility.yul\":46052:46057   */\n      dup3\n        /* \"#utility.yul\":46034:46058   */\n      tag_959\n      jump\t// in\n    tag_1106:\n        /* \"#utility.yul\":46025:46058   */\n      swap2\n      pop\n        /* \"#utility.yul\":46080:46146   */\n      0xffffffffffffffffffffffffffffffffffffffffffffffffffffffffffffffff\n        /* \"#utility.yul\":46073:46078   */\n      dup3\n        /* \"#utility.yul\":46070:46147   */\n      eq\n        /* \"#utility.yul\":46067:46170   */\n      iszero\n      tag_1107\n      jumpi\n        /* \"#utility.yul\":46150:46168   */\n      tag_1108\n      tag_1109\n      jump\t// in\n    tag_1108:\n        /* \"#utility.yul\":46067:46170   */\n    tag_1107:\n        /* \"#utility.yul\":46197:46198   */\n      0x01\n        /* \"#utility.yul\":46190:46195   */\n      dup3\n        /* \"#utility.yul\":46186:46199   */\n      add\n        /* \"#utility.yul\":46179:46199   */\n      swap1\n      pop\n        /* \"#utility.yul\":45972:46205   */\n      swap2\n      swap1\n      pop\n      jump\t// out\n        /* \"#utility.yul\":46211:46391   */\n    tag_1109:\n        /* \"#utility.yul\":46259:46336   */\n      0x4e487b7100000000000000000000000000000000000000000000000000000000\n        /* \"#utility.yul\":46256:46257   */\n      0x00\n        /* \"#utility.yul\":46249:46337   */\n      mstore\n        /* \"#utility.yul\":46356:46360   */\n      0x11\n        /* \"#utility.yul\":46353:46354   */\n      0x04\n        /* \"#utility.yul\":46346:46361   */\n      mstore\n        /* \"#utility.yul\":46380:46384   */\n      0x24\n        /* \"#utility.yul\":46377:46378   */\n      0x00\n        /* \"#utility.yul\":46370:46385   */\n      revert\n        /* \"#utility.yul\":46397:46577   */\n    tag_1111:\n        /* \"#utility.yul\":46445:46522   */\n      0x4e487b7100000000000000000000000000000000000000000000000000000000\n        /* \"#utility.yul\":46442:46443   */\n      0x00\n        /* \"#utility.yul\":46435:46523   */\n      mstore\n        /* \"#utility.yul\":46542:46546   */\n      0x21\n        /* \"#utility.yul\":46539:46540   */\n      0x04\n        /* \"#utility.yul\":46532:46547   */\n      mstore\n        /* \"#utility.yul\":46566:46570   */\n      0x24\n        /* \"#utility.yul\":46563:46564   */\n      0x00\n        /* \"#utility.yul\":46556:46571   */\n      revert\n        /* \"#utility.yul\":46583:46763   */\n    tag_1100:\n        /* \"#utility.yul\":46631:46708   */\n      0x4e487b7100000000000000000000000000000000000000000000000000000000\n        /* \"#utility.yul\":46628:46629   */\n      0x00\n        /* \"#utility.yul\":46621:46709   */\n      mstore\n        /* \"#utility.yul\":46728:46732   */\n      0x22\n        /* \"#utility.yul\":46725:46726   */\n      0x04\n        /* \"#utility.yul\":46718:46733   */\n      mstore\n        /* \"#utility.yul\":46752:46756   */\n      0x24\n        /* \"#utility.yul\":46749:46750   */\n      0x00\n        /* \"#utility.yul\":46742:46757   */\n      revert\n        /* \"#utility.yul\":46769:46949   */\n    tag_378:\n        /* \"#utility.yul\":46817:46894   */\n      0x4e487b7100000000000000000000000000000000000000000000000000000000\n        /* \"#utility.yul\":46814:46815   */\n      0x00\n        /* \"#utility.yul\":46807:46895   */\n      mstore\n        /* \"#utility.yul\":46914:46918   */\n      0x32\n        /* \"#utility.yul\":46911:46912   */\n      0x04\n        /* \"#utility.yul\":46904:46919   */\n      mstore\n        /* \"#utility.yul\":46938:46942   */\n      0x24\n        /* \"#utility.yul\":46935:46936   */\n      0x00\n        /* \"#utility.yul\":46928:46943   */\n      revert\n        /* \"#utility.yul\":46955:47135   */\n    tag_368:\n        /* \"#utility.yul\":47003:47080   */\n      0x4e487b7100000000000000000000000000000000000000000000000000000000\n        /* \"#utility.yul\":47000:47001   */\n      0x00\n        /* \"#utility.yul\":46993:47081   */\n      mstore\n        /* \"#utility.yul\":47100:47104   */\n      0x41\n        /* \"#utility.yul\":47097:47098   */\n      0x04\n        /* \"#utility.yul\":47090:47105   */\n      mstore\n        /* \"#utility.yul\":47124:47128   */\n      0x24\n        /* \"#utility.yul\":47121:47122   */\n      0x00\n        /* \"#utility.yul\":47114:47129   */\n      revert\n        /* \"#utility.yul\":47141:47258   */\n    tag_655:\n        /* \"#utility.yul\":47250:47251   */\n      0x00\n        /* \"#utility.yul\":47247:47248   */\n      dup1\n        /* \"#utility.yul\":47240:47252   */\n      revert\n        /* \"#utility.yul\":47264:47381   */\n    tag_640:\n        /* \"#utility.yul\":47373:47374   */\n      0x00\n        /* \"#utility.yul\":47370:47371   */\n      dup1\n        /* \"#utility.yul\":47363:47375   */\n      revert\n        /* \"#utility.yul\":47387:47504   */\n    tag_691:\n        /* \"#utility.yul\":47496:47497   */\n      0x00\n        /* \"#utility.yul\":47493:47494   */\n      dup1\n        /* \"#utility.yul\":47486:47498   */\n      revert\n        /* \"#utility.yul\":47510:47627   */\n    tag_672:\n        /* \"#utility.yul\":47619:47620   */\n      0x00\n        /* \"#utility.yul\":47616:47617   */\n      dup1\n        /* \"#utility.yul\":47609:47621   */\n      revert\n        /* \"#utility.yul\":47633:47735   */\n    tag_843:\n        /* \"#utility.yul\":47674:47680   */\n      0x00\n        /* \"#utility.yul\":47725:47727   */\n      0x1f\n        /* \"#utility.yul\":47721:47728   */\n      not\n        /* \"#utility.yul\":47716:47718   */\n      0x1f\n        /* \"#utility.yul\":47709:47714   */\n      dup4\n        /* \"#utility.yul\":47705:47719   */\n      add\n        /* \"#utility.yul\":47701:47729   */\n      and\n        /* \"#utility.yul\":47691:47729   */\n      swap1\n      pop\n        /* \"#utility.yul\":47633:47735   */\n      swap2\n      swap1\n      pop\n      jump\t// out\n        /* \"#utility.yul\":47741:47916   */\n    tag_855:\n        /* \"#utility.yul\":47881:47908   */\n      0x4b757273204d65726b657a69205a6174656e204d657663757400000000000000\n        /* \"#utility.yul\":47877:47878   */\n      0x00\n        /* \"#utility.yul\":47869:47875   */\n      dup3\n        /* \"#utility.yul\":47865:47879   */\n      add\n        /* \"#utility.yul\":47858:47909   */\n      mstore\n        /* \"#utility.yul\":47741:47916   */\n      pop\n      jump\t// out\n        /* \"#utility.yul\":47922:48095   */\n    tag_860:\n        /* \"#utility.yul\":48062:48087   */\n      0x556e6976657273697465204d657663757420446567696c000000000000000000\n        /* \"#utility.yul\":48058:48059   */\n      0x00\n        /* \"#utility.yul\":48050:48056   */\n      dup3\n        /* \"#utility.yul\":48046:48060   */\n      add\n        /* \"#utility.yul\":48039:48088   */\n      mstore\n        /* \"#utility.yul\":47922:48095   */\n      pop\n      jump\t// out\n        /* \"#utility.yul\":48101:48268   */\n    tag_865:\n        /* \"#utility.yul\":48241:48260   */\n      0x4b697369204d657663757420446567696c000000000000000000000000000000\n        /* \"#utility.yul\":48237:48238   */\n      0x00\n        /* \"#utility.yul\":48229:48235   */\n      dup3\n        /* \"#utility.yul\":48225:48239   */\n      add\n        /* \"#utility.yul\":48218:48261   */\n      mstore\n        /* \"#utility.yul\":48101:48268   */\n      pop\n      jump\t// out\n        /* \"#utility.yul\":48274:48448   */\n    tag_870:\n        /* \"#utility.yul\":48414:48440   */\n      0x4b616d75204b7572756d75205a6174656e204d65766375740000000000000000\n        /* \"#utility.yul\":48410:48411   */\n      0x00\n        /* \"#utility.yul\":48402:48408   */\n      dup3\n        /* \"#utility.yul\":48398:48412   */\n      add\n        /* \"#utility.yul\":48391:48441   */\n      mstore\n        /* \"#utility.yul\":48274:48448   */\n      pop\n      jump\t// out\n        /* \"#utility.yul\":48454:48622   */\n    tag_875:\n        /* \"#utility.yul\":48594:48614   */\n      0x4669726d61205a6174656e204d65766375740000000000000000000000000000\n        /* \"#utility.yul\":48590:48591   */\n      0x00\n        /* \"#utility.yul\":48582:48588   */\n      dup3\n        /* \"#utility.yul\":48578:48592   */\n      add\n        /* \"#utility.yul\":48571:48615   */\n      mstore\n        /* \"#utility.yul\":48454:48622   */\n      pop\n      jump\t// out\n        /* \"#utility.yul\":48628:48808   */\n    tag_880:\n        /* \"#utility.yul\":48768:48800   */\n      0x5361646563652043422062752069736c656d69207961706162696c69722e0000\n        /* \"#utility.yul\":48764:48765   */\n      0x00\n        /* \"#utility.yul\":48756:48762   */\n      dup3\n        /* \"#utility.yul\":48752:48766   */\n      add\n        /* \"#utility.yul\":48745:48801   */\n      mstore\n        /* \"#utility.yul\":48628:48808   */\n      pop\n      jump\t// out\n        /* \"#utility.yul\":48814:48994   */\n    tag_885:\n        /* \"#utility.yul\":48954:48986   */\n      0x536572746966696b61204d65726b657a69205a6174656e204d65766375740000\n        /* \"#utility.yul\":48950:48951   */\n      0x00\n        /* \"#utility.yul\":48942:48948   */\n      dup3\n        /* \"#utility.yul\":48938:48952   */\n      add\n        /* \"#utility.yul\":48931:48987   */\n      mstore\n        /* \"#utility.yul\":48814:48994   */\n      pop\n      jump\t// out\n        /* \"#utility.yul\":49000:49221   */\n    tag_890:\n        /* \"#utility.yul\":49140:49174   */\n      0x536976696c20546f706c756d204b7572756c757375204d657663757420446567\n        /* \"#utility.yul\":49136:49137   */\n      0x00\n        /* \"#utility.yul\":49128:49134   */\n      dup3\n        /* \"#utility.yul\":49124:49138   */\n      add\n        /* \"#utility.yul\":49117:49175   */\n      mstore\n        /* \"#utility.yul\":49209:49213   */\n      0x696c000000000000000000000000000000000000000000000000000000000000\n        /* \"#utility.yul\":49204:49206   */\n      0x20\n        /* \"#utility.yul\":49196:49202   */\n      dup3\n        /* \"#utility.yul\":49192:49207   */\n      add\n        /* \"#utility.yul\":49185:49214   */\n      mstore\n        /* \"#utility.yul\":49000:49221   */\n      pop\n      jump\t// out\n        /* \"#utility.yul\":49227:49448   */\n    tag_895:\n        /* \"#utility.yul\":49367:49401   */\n      0x536976696c20546f706c756d204b7572756c757375205a6174656e204d657663\n        /* \"#utility.yul\":49363:49364   */\n      0x00\n        /* \"#utility.yul\":49355:49361   */\n      dup3\n        /* \"#utility.yul\":49351:49365   */\n      add\n        /* \"#utility.yul\":49344:49402   */\n      mstore\n        /* \"#utility.yul\":49436:49440   */\n      0x7574000000000000000000000000000000000000000000000000000000000000\n        /* \"#utility.yul\":49431:49433   */\n      0x20\n        /* \"#utility.yul\":49423:49429   */\n      dup3\n        /* \"#utility.yul\":49419:49434   */\n      add\n        /* \"#utility.yul\":49412:49441   */\n      mstore\n        /* \"#utility.yul\":49227:49448   */\n      pop\n      jump\t// out\n        /* \"#utility.yul\":49454:49627   */\n    tag_900:\n        /* \"#utility.yul\":49594:49619   */\n      0x556e6976657273697465205a6174656e204d6576637574000000000000000000\n        /* \"#utility.yul\":49590:49591   */\n      0x00\n        /* \"#utility.yul\":49582:49588   */\n      dup3\n        /* \"#utility.yul\":49578:49592   */\n      add\n        /* \"#utility.yul\":49571:49620   */\n      mstore\n        /* \"#utility.yul\":49454:49627   */\n      pop\n      jump\t// out\n        /* \"#utility.yul\":49633:49813   */\n    tag_905:\n        /* \"#utility.yul\":49773:49805   */\n      0x536572746966696b61204d65726b657a69204d657663757420446567696c0000\n        /* \"#utility.yul\":49769:49770   */\n      0x00\n        /* \"#utility.yul\":49761:49767   */\n      dup3\n        /* \"#utility.yul\":49757:49771   */\n      add\n        /* \"#utility.yul\":49750:49806   */\n      mstore\n        /* \"#utility.yul\":49633:49813   */\n      pop\n      jump\t// out\n        /* \"#utility.yul\":49819:49986   */\n    tag_910:\n        /* \"#utility.yul\":49959:49978   */\n      0x4b697369205a6174656e204d6576637574000000000000000000000000000000\n        /* \"#utility.yul\":49955:49956   */\n      0x00\n        /* \"#utility.yul\":49947:49953   */\n      dup3\n        /* \"#utility.yul\":49943:49957   */\n      add\n        /* \"#utility.yul\":49936:49979   */\n      mstore\n        /* \"#utility.yul\":49819:49986   */\n      pop\n      jump\t// out\n        /* \"#utility.yul\":49992:50166   */\n    tag_915:\n        /* \"#utility.yul\":50132:50158   */\n      0x4b616d75204b7572756d75204d657663757420446567696c0000000000000000\n        /* \"#utility.yul\":50128:50129   */\n      0x00\n        /* \"#utility.yul\":50120:50126   */\n      dup3\n        /* \"#utility.yul\":50116:50130   */\n      add\n        /* \"#utility.yul\":50109:50159   */\n      mstore\n        /* \"#utility.yul\":49992:50166   */\n      pop\n      jump\t// out\n        /* \"#utility.yul\":50172:50340   */\n    tag_920:\n        /* \"#utility.yul\":50312:50332   */\n      0x4669726d61204d657663757420446567696c0000000000000000000000000000\n        /* \"#utility.yul\":50308:50309   */\n      0x00\n        /* \"#utility.yul\":50300:50306   */\n      dup3\n        /* \"#utility.yul\":50296:50310   */\n      add\n        /* \"#utility.yul\":50289:50333   */\n      mstore\n        /* \"#utility.yul\":50172:50340   */\n      pop\n      jump\t// out\n        /* \"#utility.yul\":50346:50521   */\n    tag_925:\n        /* \"#utility.yul\":50486:50513   */\n      0x4b757273204d65726b657a69204d657663757420446567696c00000000000000\n        /* \"#utility.yul\":50482:50483   */\n      0x00\n        /* \"#utility.yul\":50474:50480   */\n      dup3\n        /* \"#utility.yul\":50470:50484   */\n      add\n        /* \"#utility.yul\":50463:50514   */\n      mstore\n        /* \"#utility.yul\":50346:50521   */\n      pop\n      jump\t// out\n        /* \"#utility.yul\":50527:50640   */\n    tag_1082:\n        /* \"#utility.yul\":50608:50609   */\n      0x04\n        /* \"#utility.yul\":50601:50606   */\n      dup2\n        /* \"#utility.yul\":50598:50610   */\n      lt\n        /* \"#utility.yul\":50588:50634   */\n      tag_1137\n      jumpi\n        /* \"#utility.yul\":50614:50632   */\n      tag_1138\n      tag_1111\n      jump\t// in\n    tag_1138:\n        /* \"#utility.yul\":50588:50634   */\n    tag_1137:\n        /* \"#utility.yul\":50527:50640   */\n      pop\n      jump\t// out\n        /* \"#utility.yul\":50646:50768   */\n    tag_646:\n        /* \"#utility.yul\":50719:50743   */\n      tag_1140\n        /* \"#utility.yul\":50737:50742   */\n      dup2\n        /* \"#utility.yul\":50719:50743   */\n      tag_738\n      jump\t// in\n    tag_1140:\n        /* \"#utility.yul\":50712:50717   */\n      dup2\n        /* \"#utility.yul\":50709:50744   */\n      eq\n        /* \"#utility.yul\":50699:50762   */\n      tag_1141\n      jumpi\n        /* \"#utility.yul\":50758:50759   */\n      0x00\n        /* \"#utility.yul\":50755:50756   */\n      dup1\n        /* \"#utility.yul\":50748:50760   */\n      revert\n        /* \"#utility.yul\":50699:50762   */\n    tag_1141:\n        /* \"#utility.yul\":50646:50768   */\n      pop\n      jump\t// out\n        /* \"#utility.yul\":50774:50890   */\n    tag_650:\n        /* \"#utility.yul\":50844:50865   */\n      tag_1143\n        /* \"#utility.yul\":50859:50864   */\n      dup2\n        /* \"#utility.yul\":50844:50865   */\n      tag_826\n      jump\t// in\n    tag_1143:\n        /* \"#utility.yul\":50837:50842   */\n      dup2\n        /* \"#utility.yul\":50834:50866   */\n      eq\n        /* \"#utility.yul\":50824:50884   */\n      tag_1144\n      jumpi\n        /* \"#utility.yul\":50880:50881   */\n      0x00\n        /* \"#utility.yul\":50877:50878   */\n      dup1\n        /* \"#utility.yul\":50870:50882   */\n      revert\n        /* \"#utility.yul\":50824:50884   */\n    tag_1144:\n        /* \"#utility.yul\":50774:50890   */\n      pop\n      jump\t// out\n        /* \"#utility.yul\":50896:51018   */\n    tag_660:\n        /* \"#utility.yul\":50969:50993   */\n      tag_1146\n        /* \"#utility.yul\":50987:50992   */\n      dup2\n        /* \"#utility.yul\":50969:50993   */\n      tag_959\n      jump\t// in\n    tag_1146:\n        /* \"#utility.yul\":50962:50967   */\n      dup2\n        /* \"#utility.yul\":50959:50994   */\n      eq\n        /* \"#utility.yul\":50949:51012   */\n      tag_1147\n      jumpi\n        /* \"#utility.yul\":51008:51009   */\n      0x00\n        /* \"#utility.yul\":51005:51006   */\n      dup1\n        /* \"#utility.yul\":50998:51010   */\n      revert\n        /* \"#utility.yul\":50949:51012   */\n    tag_1147:\n        /* \"#utility.yul\":50896:51018   */\n      pop\n      jump\t// out\n        /* \"#utility.yul\":51024:51144   */\n    tag_664:\n        /* \"#utility.yul\":51096:51119   */\n      tag_1149\n        /* \"#utility.yul\":51113:51118   */\n      dup2\n        /* \"#utility.yul\":51096:51119   */\n      tag_966\n      jump\t// in\n    tag_1149:\n        /* \"#utility.yul\":51089:51094   */\n      dup2\n        /* \"#utility.yul\":51086:51120   */\n      eq\n        /* \"#utility.yul\":51076:51138   */\n      tag_1150\n      jumpi\n        /* \"#utility.yul\":51134:51135   */\n      0x00\n        /* \"#utility.yul\":51131:51132   */\n      dup1\n        /* \"#utility.yul\":51124:51136   */\n      revert\n        /* \"#utility.yul\":51076:51138   */\n    tag_1150:\n        /* \"#utility.yul\":51024:51144   */\n      pop\n      jump\t// out\n        /* \"#utility.yul\":51150:51268   */\n    tag_668:\n        /* \"#utility.yul\":51221:51243   */\n      tag_1152\n        /* \"#utility.yul\":51237:51242   */\n      dup2\n        /* \"#utility.yul\":51221:51243   */\n      tag_969\n      jump\t// in\n    tag_1152:\n        /* \"#utility.yul\":51214:51219   */\n      dup2\n        /* \"#utility.yul\":51211:51244   */\n      eq\n        /* \"#utility.yul\":51201:51262   */\n      tag_1153\n      jumpi\n        /* \"#utility.yul\":51258:51259   */\n      0x00\n        /* \"#utility.yul\":51255:51256   */\n      dup1\n        /* \"#utility.yul\":51248:51260   */\n      revert\n        /* \"#utility.yul\":51201:51262   */\n    tag_1153:\n        /* \"#utility.yul\":51150:51268   */\n      pop\n      jump\t// out\n\n    auxdata: 0xa26469706673582212204d9fc862766780b510bae73e141b528c8a665698e768bd2a7d874644f1b6b0f764736f6c63430008070033\n}\n",
				"bytecode": {
					"linkReferences": {},
					"object": "608060405234801561001057600080fd5b506158b280620000216000396000f3fe608060405234801561001057600080fd5b506004361061035c5760003560e01c8063a29879c0116101d3578063d5f6d56c11610104578063e8abb184116100a2578063f19818501161007c578063f198185014610b1c578063f54acc6514610b38578063f63c649f14610b54578063fd738e6d14610b705761035c565b8063e8abb18414610a8c578063f0040eb914610abc578063f140385114610aec5761035c565b8063d7909777116100de578063d7909777146109e0578063d88d8c1214610a10578063e24047ca14610a2c578063e513050814610a5c5761035c565b8063d5f6d56c14610976578063d71ed8b114610992578063d7396414146109b05761035c565b8063ba479b7e11610171578063cbc928091161014b578063cbc92809146108ee578063d0d6b7a31461091e578063d25aab851461093c578063d508602d146109585761035c565b8063ba479b7e14610881578063bd35a506146108b6578063c6da8cfe146108d25761035c565b8063afb61b1e116101ad578063afb61b1e146107e9578063b07b0e5a14610805578063b2a825bb14610835578063b98ccefd146108515761035c565b8063a29879c01461077e578063a4e7ae051461079c578063a81dc179146107cd5761035c565b806336fd2633116102ad5780637d0fa2871161024b57806391e9528a1161022557806391e9528a146106f85780639a8c9119146107145780639bfc4dbd146107465780639dc30114146107625761035c565b80637d0fa28714610678578063871db892146106aa5780638c848885146106c85761035c565b806350d2a0601161028757806350d2a060146105f2578063514e03c71461060e578063548fa6201461063e57806371af892d1461065a5761035c565b806336fd26331461058757806339987f94146105a357806346224853146105d65761035c565b806319023bf31161031a5780631f145f47116102f45780631f145f47146104c357806328266697146104f35780632d087d7014610525578063356b1f1e146105555761035c565b806319023bf3146104595780631916e139146104755780631d595580146104a75761035c565b80621d54ab14610361578063024eb6bc1461037d5780630a33e3eb146103ad5780630b877ca7146103dd578063139884ec1461040d578063150596f41461043d575b600080fd5b61037b600480360381019061037691906143c1565b610b8e565b005b6103976004803603810190610392919061427e565b610d4c565b6040516103a49190614daf565b60405180910390f35b6103c760048036038101906103c29190614430565b610da5565b6040516103d49190614cc8565b60405180910390f35b6103f760048036038101906103f29190614430565b610de4565b6040516104049190614cc8565b60405180910390f35b6104276004803603810190610422919061427e565b610e23565b6040516104349190614daf565b60405180910390f35b610457600480360381019061045291906143c1565b610e7d565b005b610473600480360381019061046e91906143c1565b610fd7565b005b61048f600480360381019061048a919061427e565b611195565b60405161049e93929190614e39565b60405180910390f35b6104c160048036038101906104bc919061427e565b611261565b005b6104dd60048036038101906104d89190614430565b61132e565b6040516104ea9190614cc8565b60405180910390f35b61050d6004803603810190610508919061427e565b61136d565b60405161051c93929190614e39565b60405180910390f35b61053f600480360381019061053a919061427e565b611439565b60405161054c9190614daf565b60405180910390f35b61056f600480360381019061056a919061427e565b611492565b60405161057e93929190614e39565b60405180910390f35b6105a1600480360381019061059c91906142ab565b61155e565b005b6105bd60048036038101906105b8919061427e565b611625565b6040516105cd9493929190614e77565b60405180910390f35b6105f060048036038101906105eb91906143c1565b6116f7565b005b61060c6004803603810190610607919061427e565b6118b5565b005b6106286004803603810190610623919061427e565b61197a565b6040516106359190614daf565b60405180910390f35b6106586004803603810190610653919061427e565b6119d3565b005b610662611a98565b60405161066f9190614cc8565b60405180910390f35b610692600480360381019061068d919061427e565b611abc565b6040516106a193929190614e39565b60405180910390f35b6106b2611b88565b6040516106bf9190614d8d565b60405180910390f35b6106e260048036038101906106dd919061427e565b611d90565b6040516106ef9190614daf565b60405180910390f35b610712600480360381019061070d91906143c1565b611de9565b005b61072e6004803603810190610729919061427e565b611f43565b60405161073d93929190614e39565b60405180910390f35b610760600480360381019061075b919061427e565b61200f565b005b61077c600480360381019061077791906143c1565b6120d4565b005b610786612292565b6040516107939190614d49565b60405180910390f35b6107b660048036038101906107b1919061445d565b61249a565b6040516107c49291906150a3565b60405180910390f35b6107e760048036038101906107e2919061433e565b612556565b005b61080360048036038101906107fe919061427e565b6126f8565b005b61081f600480360381019061081a9190614430565b6127bd565b60405161082c9190614cc8565b60405180910390f35b61084f600480360381019061084a91906143c1565b6127fc565b005b61086b6004803603810190610866919061427e565b612956565b6040516108789190614daf565b60405180910390f35b61089b6004803603810190610896919061427e565b6129af565b6040516108ad96959493929190614dca565b60405180910390f35b6108d060048036038101906108cb919061427e565b612b43565b005b6108ec60048036038101906108e791906143c1565b612be4565b005b6109086004803603810190610903919061427e565b612d3e565b6040516109159190614daf565b60405180910390f35b610926612d69565b6040516109339190614d27565b60405180910390f35b6109566004803603810190610951919061433e565b612f71565b005b610960613177565b60405161096d9190614ce3565b60405180910390f35b610990600480360381019061098b91906143c1565b613389565b005b61099a6134e3565b6040516109a79190614d05565b60405180910390f35b6109ca60048036038101906109c5919061427e565b61377b565b6040516109d79190614daf565b60405180910390f35b6109fa60048036038101906109f59190614430565b6137d3565b604051610a079190614cc8565b60405180910390f35b610a2a6004803603810190610a25919061427e565b613812565b005b610a466004803603810190610a41919061427e565b6138d7565b604051610a539190614daf565b60405180910390f35b610a766004803603810190610a71919061427e565b613930565b604051610a839190614daf565b60405180910390f35b610aa66004803603810190610aa19190614430565b61398a565b604051610ab39190614cc8565b60405180910390f35b610ad66004803603810190610ad1919061427e565b6139c9565b604051610ae39190614daf565b60405180910390f35b610b066004803603810190610b019190614430565b613a22565b604051610b139190614cc8565b60405180910390f35b610b366004803603810190610b3191906142fe565b613a61565b005b610b526004803603810190610b4d919061427e565b613b07565b005b610b6e6004803603810190610b6991906143c1565b613c11565b005b610b78613dcf565b604051610b859190614d6b565b60405180910390f35b610b97836139c9565b15610bd7576040517f08c379a0000000000000000000000000000000000000000000000000000000008152600401610bce90614fe3565b60405180910390fd5b6001600460008573ffffffffffffffffffffffffffffffffffffffff1673ffffffffffffffffffffffffffffffffffffffff16815260200190815260200160002060000160006101000a81548160ff02191690831515021790555081600460008573ffffffffffffffffffffffffffffffffffffffff1673ffffffffffffffffffffffffffffffffffffffff1681526020019081526020016000206001019080519060200190610c88929190613fd7565b5080600460008573ffffffffffffffffffffffffffffffffffffffff1673ffffffffffffffffffffffffffffffffffffffff16815260200190815260200160002060020160006101000a81548160ff021916908360ff160217905550600d839080600181540180825580915050600190039060005260206000200160009091909190916101000a81548173ffffffffffffffffffffffffffffffffffffffff021916908373ffffffffffffffffffffffffffffffffffffffff160217905550505050565b6000600760008373ffffffffffffffffffffffffffffffffffffffff1673ffffffffffffffffffffffffffffffffffffffff16815260200190815260200160002060000160009054906101000a900460ff169050919050565b60108181548110610db557600080fd5b906000526020600020016000915054906101000a900473ffffffffffffffffffffffffffffffffffffffff1681565b60128181548110610df457600080fd5b906000526020600020016000915054906101000a900473ffffffffffffffffffffffffffffffffffffffff1681565b60008173ffffffffffffffffffffffffffffffffffffffff16600160009054906101000a900473ffffffffffffffffffffffffffffffffffffffff1673ffffffffffffffffffffffffffffffffffffffff16149050919050565b610e868361197a565b610ec5576040517f08c379a0000000000000000000000000000000000000000000000000000000008152600401610ebc90615043565b60405180910390fd5b6001600860008573ffffffffffffffffffffffffffffffffffffffff1673ffffffffffffffffffffffffffffffffffffffff16815260200190815260200160002060000160006101000a81548160ff02191690831515021790555081600860008573ffffffffffffffffffffffffffffffffffffffff1673ffffffffffffffffffffffffffffffffffffffff1681526020019081526020016000206001019080519060200190610f76929190613fd7565b5080600860008573ffffffffffffffffffffffffffffffffffffffff1673ffffffffffffffffffffffffffffffffffffffff16815260200190815260200160002060020160006101000a81548160ff021916908360ff160217905550505050565b610fe083611d90565b15611020576040517f08c379a000000000000000000000000000000000000000000000000000000000815260040161101790614fc3565b60405180910390fd5b6001600960008573ffffffffffffffffffffffffffffffffffffffff1673ffffffffffffffffffffffffffffffffffffffff16815260200190815260200160002060000160006101000a81548160ff02191690831515021790555081600960008573ffffffffffffffffffffffffffffffffffffffff1673ffffffffffffffffffffffffffffffffffffffff16815260200190815260200160002060010190805190602001906110d1929190613fd7565b5080600960008573ffffffffffffffffffffffffffffffffffffffff1673ffffffffffffffffffffffffffffffffffffffff16815260200190815260200160002060020160006101000a81548160ff021916908360ff1602179055506011839080600181540180825580915050600190039060005260206000200160009091909190916101000a81548173ffffffffffffffffffffffffffffffffffffffff021916908373ffffffffffffffffffffffffffffffffffffffff160217905550505050565b60076020528060005260406000206000915090508060000160009054906101000a900460ff16908060010180546111cb90615386565b80601f01602080910402602001604051908101604052809291908181526020018280546111f790615386565b80156112445780601f1061121957610100808354040283529160200191611244565b820191906000526020600020905b81548152906001019060200180831161122757829003601f168201915b5050505050908060020160009054906101000a900460ff16905083565b61126a81611439565b6112a9576040517f08c379a00000000000000000000000000000000000000000000000000000000081526004016112a090615063565b60405180910390fd5b600660008273ffffffffffffffffffffffffffffffffffffffff1673ffffffffffffffffffffffffffffffffffffffff168152602001908152602001600020600080820160006101000a81549060ff02191690556000820160016101000a81549060ff02191690556001820160009055600282016000611329919061405d565b505050565b600d818154811061133e57600080fd5b906000526020600020016000915054906101000a900473ffffffffffffffffffffffffffffffffffffffff1681565b60046020528060005260406000206000915090508060000160009054906101000a900460ff16908060010180546113a390615386565b80601f01602080910402602001604051908101604052809291908181526020018280546113cf90615386565b801561141c5780601f106113f15761010080835404028352916020019161141c565b820191906000526020600020905b8154815290600101906020018083116113ff57829003601f168201915b5050505050908060020160009054906101000a900460ff16905083565b6000600660008373ffffffffffffffffffffffffffffffffffffffff1673ffffffffffffffffffffffffffffffffffffffff16815260200190815260200160002060000160009054906101000a900460ff169050919050565b600a6020528060005260406000206000915090508060000160009054906101000a900460ff16908060010180546114c890615386565b80601f01602080910402602001604051908101604052809291908181526020018280546114f490615386565b80156115415780601f1061151657610100808354040283529160200191611541565b820191906000526020600020905b81548152906001019060200180831161152457829003601f168201915b5050505050908060020160009054906101000a900460ff16905083565b826000806101000a81548173ffffffffffffffffffffffffffffffffffffffff021916908373ffffffffffffffffffffffffffffffffffffffff16021790555081600160006101000a81548173ffffffffffffffffffffffffffffffffffffffff021916908373ffffffffffffffffffffffffffffffffffffffff16021790555080600260006101000a81548173ffffffffffffffffffffffffffffffffffffffff021916908373ffffffffffffffffffffffffffffffffffffffff160217905550505050565b60066020528060005260406000206000915090508060000160009054906101000a900460ff16908060000160019054906101000a900460ff169080600101549080600201805461167490615386565b80601f01602080910402602001604051908101604052809291908181526020018280546116a090615386565b80156116ed5780601f106116c2576101008083540402835291602001916116ed565b820191906000526020600020905b8154815290600101906020018083116116d057829003601f168201915b5050505050905084565b61170083610d4c565b15611740576040517f08c379a000000000000000000000000000000000000000000000000000000000815260040161173790614ec3565b60405180910390fd5b6001600760008573ffffffffffffffffffffffffffffffffffffffff1673ffffffffffffffffffffffffffffffffffffffff16815260200190815260200160002060000160006101000a81548160ff02191690831515021790555081600760008573ffffffffffffffffffffffffffffffffffffffff1673ffffffffffffffffffffffffffffffffffffffff16815260200190815260200160002060010190805190602001906117f1929190613fd7565b5080600760008573ffffffffffffffffffffffffffffffffffffffff1673ffffffffffffffffffffffffffffffffffffffff16815260200190815260200160002060020160006101000a81548160ff021916908360ff160217905550600f839080600181540180825580915050600190039060005260206000200160009091909190916101000a81548173ffffffffffffffffffffffffffffffffffffffff021916908373ffffffffffffffffffffffffffffffffffffffff160217905550505050565b6118be8161197a565b6118fd576040517f08c379a00000000000000000000000000000000000000000000000000000000081526004016118f490615043565b60405180910390fd5b600860008273ffffffffffffffffffffffffffffffffffffffff1673ffffffffffffffffffffffffffffffffffffffff168152602001908152602001600020600080820160006101000a81549060ff0219169055600182016000611961919061405d565b6002820160006101000a81549060ff0219169055505050565b6000600860008373ffffffffffffffffffffffffffffffffffffffff1673ffffffffffffffffffffffffffffffffffffffff16815260200190815260200160002060000160009054906101000a900460ff169050919050565b6119dc816138d7565b611a1b576040517f08c379a0000000000000000000000000000000000000000000000000000000008152600401611a1290615003565b60405180910390fd5b600a60008273ffffffffffffffffffffffffffffffffffffffff1673ffffffffffffffffffffffffffffffffffffffff168152602001908152602001600020600080820160006101000a81549060ff0219169055600182016000611a7f919061405d565b6002820160006101000a81549060ff0219169055505050565b60008054906101000a900473ffffffffffffffffffffffffffffffffffffffff1681565b60086020528060005260406000206000915090508060000160009054906101000a900460ff1690806001018054611af290615386565b80601f0160208091040260200160405190810160405280929190818152602001828054611b1e90615386565b8015611b6b5780601f10611b4057610100808354040283529160200191611b6b565b820191906000526020600020905b815481529060010190602001808311611b4e57829003601f168201915b5050505050908060020160009054906101000a900460ff16905083565b60606000600d8054905067ffffffffffffffff811115611bab57611baa6154ee565b5b604051908082528060200260200182016040528015611be457816020015b611bd161409d565b815260200190600190039081611bc95790505b5090506000805b600d80549050811015611d875760046000600d8381548110611c1057611c0f6154bf565b5b9060005260206000200160009054906101000a900473ffffffffffffffffffffffffffffffffffffffff1673ffffffffffffffffffffffffffffffffffffffff1673ffffffffffffffffffffffffffffffffffffffff1681526020019081526020016000206040518060600160405290816000820160009054906101000a900460ff16151515158152602001600182018054611cab90615386565b80601f0160208091040260200160405190810160405280929190818152602001828054611cd790615386565b8015611d245780601f10611cf957610100808354040283529160200191611d24565b820191906000526020600020905b815481529060010190602001808311611d0757829003601f168201915b505050505081526020016002820160009054906101000a900460ff1660ff1660ff1681525050838380611d56906153e9565b945081518110611d6957611d686154bf565b5b60200260200101819052508080611d7f906153e9565b915050611beb565b50819250505090565b6000600960008373ffffffffffffffffffffffffffffffffffffffff1673ffffffffffffffffffffffffffffffffffffffff16815260200190815260200160002060000160009054906101000a900460ff169050919050565b611df283611d90565b611e31576040517f08c379a0000000000000000000000000000000000000000000000000000000008152600401611e2890614fa3565b60405180910390fd5b6001600960008573ffffffffffffffffffffffffffffffffffffffff1673ffffffffffffffffffffffffffffffffffffffff16815260200190815260200160002060000160006101000a81548160ff02191690831515021790555081600960008573ffffffffffffffffffffffffffffffffffffffff1673ffffffffffffffffffffffffffffffffffffffff1681526020019081526020016000206001019080519060200190611ee2929190613fd7565b5080600960008573ffffffffffffffffffffffffffffffffffffffff1673ffffffffffffffffffffffffffffffffffffffff16815260200190815260200160002060020160006101000a81548160ff021916908360ff160217905550505050565b60096020528060005260406000206000915090508060000160009054906101000a900460ff1690806001018054611f7990615386565b80601f0160208091040260200160405190810160405280929190818152602001828054611fa590615386565b8015611ff25780601f10611fc757610100808354040283529160200191611ff2565b820191906000526020600020905b815481529060010190602001808311611fd557829003601f168201915b5050505050908060020160009054906101000a900460ff16905083565b612018816139c9565b612057576040517f08c379a000000000000000000000000000000000000000000000000000000000815260040161204e90614fe3565b60405180910390fd5b600460008273ffffffffffffffffffffffffffffffffffffffff1673ffffffffffffffffffffffffffffffffffffffff168152602001908152602001600020600080820160006101000a81549060ff02191690556001820160006120bb919061405d565b6002820160006101000a81549060ff0219169055505050565b6120dd836138d7565b1561211d576040517f08c379a000000000000000000000000000000000000000000000000000000000815260040161211490614f83565b60405180910390fd5b6001600a60008573ffffffffffffffffffffffffffffffffffffffff1673ffffffffffffffffffffffffffffffffffffffff16815260200190815260200160002060000160006101000a81548160ff02191690831515021790555081600a60008573ffffffffffffffffffffffffffffffffffffffff1673ffffffffffffffffffffffffffffffffffffffff16815260200190815260200160002060010190805190602001906121ce929190613fd7565b5080600a60008573ffffffffffffffffffffffffffffffffffffffff1673ffffffffffffffffffffffffffffffffffffffff16815260200190815260200160002060020160006101000a81548160ff021916908360ff1602179055506012839080600181540180825580915050600190039060005260206000200160009091909190916101000a81548173ffffffffffffffffffffffffffffffffffffffff021916908373ffffffffffffffffffffffffffffffffffffffff160217905550505050565b6060600060118054905067ffffffffffffffff8111156122b5576122b46154ee565b5b6040519080825280602002602001820160405280156122ee57816020015b6122db6140c3565b8152602001906001900390816122d35790505b5090506000805b60118054905081101561249157600960006011838154811061231a576123196154bf565b5b9060005260206000200160009054906101000a900473ffffffffffffffffffffffffffffffffffffffff1673ffffffffffffffffffffffffffffffffffffffff1673ffffffffffffffffffffffffffffffffffffffff1681526020019081526020016000206040518060600160405290816000820160009054906101000a900460ff161515151581526020016001820180546123b590615386565b80601f01602080910402602001604051908101604052809291908181526020018280546123e190615386565b801561242e5780601f106124035761010080835404028352916020019161242e565b820191906000526020600020905b81548152906001019060200180831161241157829003601f168201915b505050505081526020016002820160009054906101000a900460ff1660ff1660ff1681525050838380612460906153e9565b945081518110612473576124726154bf565b5b60200260200101819052508080612489906153e9565b9150506122f5565b50819250505090565b600b6020528060005260406000206000915090508060000160009054906101000a900463ffffffff16908060010180546124d390615386565b80601f01602080910402602001604051908101604052809291908181526020018280546124ff90615386565b801561254c5780601f106125215761010080835404028352916020019161254c565b820191906000526020600020905b81548152906001019060200180831161252f57829003601f168201915b5050505050905082565b61255f84611439565b61259e576040517f08c379a000000000000000000000000000000000000000000000000000000000815260040161259590615063565b60405180910390fd5b6001600660008673ffffffffffffffffffffffffffffffffffffffff1673ffffffffffffffffffffffffffffffffffffffff16815260200190815260200160002060000160006101000a81548160ff02191690831515021790555082600660008673ffffffffffffffffffffffffffffffffffffffff1673ffffffffffffffffffffffffffffffffffffffff168152602001908152602001600020600201908051906020019061264f929190613fd7565b5080600660008673ffffffffffffffffffffffffffffffffffffffff1673ffffffffffffffffffffffffffffffffffffffff16815260200190815260200160002060000160016101000a81548160ff021916908360ff16021790555081600660008673ffffffffffffffffffffffffffffffffffffffff1673ffffffffffffffffffffffffffffffffffffffff1681526020019081526020016000206001018190555050505050565b61270181610d4c565b612740576040517f08c379a000000000000000000000000000000000000000000000000000000000815260040161273790615083565b60405180910390fd5b600760008273ffffffffffffffffffffffffffffffffffffffff1673ffffffffffffffffffffffffffffffffffffffff168152602001908152602001600020600080820160006101000a81549060ff02191690556001820160006127a4919061405d565b6002820160006101000a81549060ff0219169055505050565b600e81815481106127cd57600080fd5b906000526020600020016000915054906101000a900473ffffffffffffffffffffffffffffffffffffffff1681565b612805836138d7565b612844576040517f08c379a000000000000000000000000000000000000000000000000000000000815260040161283b90615003565b60405180910390fd5b6001600a60008573ffffffffffffffffffffffffffffffffffffffff1673ffffffffffffffffffffffffffffffffffffffff16815260200190815260200160002060000160006101000a81548160ff02191690831515021790555081600a60008573ffffffffffffffffffffffffffffffffffffffff1673ffffffffffffffffffffffffffffffffffffffff16815260200190815260200160002060010190805190602001906128f5929190613fd7565b5080600a60008573ffffffffffffffffffffffffffffffffffffffff1673ffffffffffffffffffffffffffffffffffffffff16815260200190815260200160002060020160006101000a81548160ff021916908360ff160217905550505050565b6000600360008373ffffffffffffffffffffffffffffffffffffffff1673ffffffffffffffffffffffffffffffffffffffff16815260200190815260200160002060000160009054906101000a900460ff169050919050565b60056020528060005260406000206000915090508060000160009054906101000a900460ff16908060000160019054906101000a900473ffffffffffffffffffffffffffffffffffffffff16908060000160159054906101000a900461ffff16908060000160179054906101000a900460ff1690806001018054612a3290615386565b80601f0160208091040260200160405190810160405280929190818152602001828054612a5e90615386565b8015612aab5780601f10612a8057610100808354040283529160200191612aab565b820191906000526020600020905b815481529060010190602001808311612a8e57829003601f168201915b505050505090806002018054612ac090615386565b80601f0160208091040260200160405190810160405280929190818152602001828054612aec90615386565b8015612b395780601f10612b0e57610100808354040283529160200191612b39565b820191906000526020600020905b815481529060010190602001808311612b1c57829003601f168201915b5050505050905086565b612b4c81612956565b612b8b576040517f08c379a0000000000000000000000000000000000000000000000000000000008152600401612b8290614f03565b60405180910390fd5b600360008273ffffffffffffffffffffffffffffffffffffffff1673ffffffffffffffffffffffffffffffffffffffff168152602001908152602001600020600080820160006101000a81549060ff0219169055505050565b612bed836139c9565b612c2c576040517f08c379a0000000000000000000000000000000000000000000000000000000008152600401612c2390614ee3565b60405180910390fd5b6001600460008573ffffffffffffffffffffffffffffffffffffffff1673ffffffffffffffffffffffffffffffffffffffff16815260200190815260200160002060000160006101000a81548160ff02191690831515021790555081600460008573ffffffffffffffffffffffffffffffffffffffff1673ffffffffffffffffffffffffffffffffffffffff1681526020019081526020016000206001019080519060200190612cdd929190613fd7565b5080600460008573ffffffffffffffffffffffffffffffffffffffff1673ffffffffffffffffffffffffffffffffffffffff16815260200190815260200160002060020160006101000a81548160ff021916908360ff160217905550505050565b60036020528060005260406000206000915090508060000160009054906101000a900460ff16905081565b60606000600f8054905067ffffffffffffffff811115612d8c57612d8b6154ee565b5b604051908082528060200260200182016040528015612dc557816020015b612db26140e9565b815260200190600190039081612daa5790505b5090506000805b600f80549050811015612f685760076000600f8381548110612df157612df06154bf565b5b9060005260206000200160009054906101000a900473ffffffffffffffffffffffffffffffffffffffff1673ffffffffffffffffffffffffffffffffffffffff1673ffffffffffffffffffffffffffffffffffffffff1681526020019081526020016000206040518060600160405290816000820160009054906101000a900460ff16151515158152602001600182018054612e8c90615386565b80601f0160208091040260200160405190810160405280929190818152602001828054612eb890615386565b8015612f055780601f10612eda57610100808354040283529160200191612f05565b820191906000526020600020905b815481529060010190602001808311612ee857829003601f168201915b505050505081526020016002820160009054906101000a900460ff1660ff1660ff1681525050838380612f37906153e9565b945081518110612f4a57612f496154bf565b5b60200260200101819052508080612f60906153e9565b915050612dcc565b50819250505090565b612f7a84611439565b15612fba576040517f08c379a0000000000000000000000000000000000000000000000000000000008152600401612fb190614f43565b60405180910390fd5b6001600660008673ffffffffffffffffffffffffffffffffffffffff1673ffffffffffffffffffffffffffffffffffffffff16815260200190815260200160002060000160006101000a81548160ff02191690831515021790555082600660008673ffffffffffffffffffffffffffffffffffffffff1673ffffffffffffffffffffffffffffffffffffffff168152602001908152602001600020600201908051906020019061306b929190613fd7565b5080600660008673ffffffffffffffffffffffffffffffffffffffff1673ffffffffffffffffffffffffffffffffffffffff16815260200190815260200160002060000160016101000a81548160ff021916908360ff16021790555081600660008673ffffffffffffffffffffffffffffffffffffffff1673ffffffffffffffffffffffffffffffffffffffff16815260200190815260200160002060010181905550600e849080600181540180825580915050600190039060005260206000200160009091909190916101000a81548173ffffffffffffffffffffffffffffffffffffffff021916908373ffffffffffffffffffffffffffffffffffffffff16021790555050505050565b60606000600e8054905067ffffffffffffffff81111561319a576131996154ee565b5b6040519080825280602002602001820160405280156131d357816020015b6131c061410f565b8152602001906001900390816131b85790505b5090506000805b600e805490508110156133805760066000600e83815481106131ff576131fe6154bf565b5b9060005260206000200160009054906101000a900473ffffffffffffffffffffffffffffffffffffffff1673ffffffffffffffffffffffffffffffffffffffff1673ffffffffffffffffffffffffffffffffffffffff1681526020019081526020016000206040518060800160405290816000820160009054906101000a900460ff161515151581526020016000820160019054906101000a900460ff1660ff1660ff168152602001600182015481526020016002820180546132c190615386565b80601f01602080910402602001604051908101604052809291908181526020018280546132ed90615386565b801561333a5780601f1061330f5761010080835404028352916020019161333a565b820191906000526020600020905b81548152906001019060200180831161331d57829003601f168201915b50505050508152505083838061334f906153e9565b945081518110613362576133616154bf565b5b60200260200101819052508080613378906153e9565b9150506131da565b50819250505090565b61339283610d4c565b6133d1576040517f08c379a00000000000000000000000000000000000000000000000000000000081526004016133c890615083565b60405180910390fd5b6001600760008573ffffffffffffffffffffffffffffffffffffffff1673ffffffffffffffffffffffffffffffffffffffff16815260200190815260200160002060000160006101000a81548160ff02191690831515021790555081600760008573ffffffffffffffffffffffffffffffffffffffff1673ffffffffffffffffffffffffffffffffffffffff1681526020019081526020016000206001019080519060200190613482929190613fd7565b5080600760008573ffffffffffffffffffffffffffffffffffffffff1673ffffffffffffffffffffffffffffffffffffffff16815260200190815260200160002060020160006101000a81548160ff021916908360ff160217905550505050565b6060600260009054906101000a900473ffffffffffffffffffffffffffffffffffffffff1673ffffffffffffffffffffffffffffffffffffffff163373ffffffffffffffffffffffffffffffffffffffff1614613575576040517f08c379a000000000000000000000000000000000000000000000000000000000815260040161356c90614f63565b60405180910390fd5b600060108054905067ffffffffffffffff811115613596576135956154ee565b5b6040519080825280602002602001820160405280156135cf57816020015b6135bc61413c565b8152602001906001900390816135b45790505b5090506000805b6010805490508110156137725760086000601083815481106135fb576135fa6154bf565b5b9060005260206000200160009054906101000a900473ffffffffffffffffffffffffffffffffffffffff1673ffffffffffffffffffffffffffffffffffffffff1673ffffffffffffffffffffffffffffffffffffffff1681526020019081526020016000206040518060600160405290816000820160009054906101000a900460ff1615151515815260200160018201805461369690615386565b80601f01602080910402602001604051908101604052809291908181526020018280546136c290615386565b801561370f5780601f106136e45761010080835404028352916020019161370f565b820191906000526020600020905b8154815290600101906020018083116136f257829003601f168201915b505050505081526020016002820160009054906101000a900460ff1660ff1660ff1681525050838380613741906153e9565b945081518110613754576137536154bf565b5b6020026020010181905250808061376a906153e9565b9150506135d6565b50819250505090565b60008173ffffffffffffffffffffffffffffffffffffffff1660008054906101000a900473ffffffffffffffffffffffffffffffffffffffff1673ffffffffffffffffffffffffffffffffffffffff16149050919050565b601181815481106137e357600080fd5b906000526020600020016000915054906101000a900473ffffffffffffffffffffffffffffffffffffffff1681565b61381b81611d90565b61385a576040517f08c379a000000000000000000000000000000000000000000000000000000000815260040161385190614fa3565b60405180910390fd5b600960008273ffffffffffffffffffffffffffffffffffffffff1673ffffffffffffffffffffffffffffffffffffffff168152602001908152602001600020600080820160006101000a81549060ff02191690556001820160006138be919061405d565b6002820160006101000a81549060ff0219169055505050565b6000600a60008373ffffffffffffffffffffffffffffffffffffffff1673ffffffffffffffffffffffffffffffffffffffff16815260200190815260200160002060000160009054906101000a900460ff169050919050565b60008173ffffffffffffffffffffffffffffffffffffffff16600260009054906101000a900473ffffffffffffffffffffffffffffffffffffffff1673ffffffffffffffffffffffffffffffffffffffff16149050919050565b600f818154811061399a57600080fd5b906000526020600020016000915054906101000a900473ffffffffffffffffffffffffffffffffffffffff1681565b6000600460008373ffffffffffffffffffffffffffffffffffffffff1673ffffffffffffffffffffffffffffffffffffffff16815260200190815260200160002060000160009054906101000a900460ff169050919050565b600c8181548110613a3257600080fd5b906000526020600020016000915054906101000a900473ffffffffffffffffffffffffffffffffffffffff1681565b613a6a82612956565b613aa9576040517f08c379a0000000000000000000000000000000000000000000000000000000008152600401613aa090614f03565b60405180910390fd5b80600360008473ffffffffffffffffffffffffffffffffffffffff1673ffffffffffffffffffffffffffffffffffffffff16815260200190815260200160002060000160006101000a81548160ff0219169083151502179055505050565b613b1081612956565b15613b50576040517f08c379a0000000000000000000000000000000000000000000000000000000008152600401613b4790615023565b60405180910390fd5b6001600360008373ffffffffffffffffffffffffffffffffffffffff1673ffffffffffffffffffffffffffffffffffffffff16815260200190815260200160002060000160006101000a81548160ff021916908315150217905550600c819080600181540180825580915050600190039060005260206000200160009091909190916101000a81548173ffffffffffffffffffffffffffffffffffffffff021916908373ffffffffffffffffffffffffffffffffffffffff16021790555050565b613c1a8361197a565b15613c5a576040517f08c379a0000000000000000000000000000000000000000000000000000000008152600401613c5190614f23565b60405180910390fd5b6001600860008573ffffffffffffffffffffffffffffffffffffffff1673ffffffffffffffffffffffffffffffffffffffff16815260200190815260200160002060000160006101000a81548160ff02191690831515021790555081600860008573ffffffffffffffffffffffffffffffffffffffff1673ffffffffffffffffffffffffffffffffffffffff1681526020019081526020016000206001019080519060200190613d0b929190613fd7565b5080600860008573ffffffffffffffffffffffffffffffffffffffff1673ffffffffffffffffffffffffffffffffffffffff16815260200190815260200160002060020160006101000a81548160ff021916908360ff1602179055506010839080600181540180825580915050600190039060005260206000200160009091909190916101000a81548173ffffffffffffffffffffffffffffffffffffffff021916908373ffffffffffffffffffffffffffffffffffffffff160217905550505050565b6060600060128054905067ffffffffffffffff811115613df257613df16154ee565b5b604051908082528060200260200182016040528015613e2b57816020015b613e18614162565b815260200190600190039081613e105790505b5090506000805b601280549050811015613fce57600a600060128381548110613e5757613e566154bf565b5b9060005260206000200160009054906101000a900473ffffffffffffffffffffffffffffffffffffffff1673ffffffffffffffffffffffffffffffffffffffff1673ffffffffffffffffffffffffffffffffffffffff1681526020019081526020016000206040518060600160405290816000820160009054906101000a900460ff16151515158152602001600182018054613ef290615386565b80601f0160208091040260200160405190810160405280929190818152602001828054613f1e90615386565b8015613f6b5780601f10613f4057610100808354040283529160200191613f6b565b820191906000526020600020905b815481529060010190602001808311613f4e57829003601f168201915b505050505081526020016002820160009054906101000a900460ff1660ff1660ff1681525050838380613f9d906153e9565b945081518110613fb057613faf6154bf565b5b60200260200101819052508080613fc6906153e9565b915050613e32565b50819250505090565b828054613fe390615386565b90600052602060002090601f016020900481019282614005576000855561404c565b82601f1061401e57805160ff191683800117855561404c565b8280016001018555821561404c579182015b8281111561404b578251825591602001919060010190614030565b5b5090506140599190614188565b5090565b50805461406990615386565b6000825580601f1061407b575061409a565b601f0160209004906000526020600020908101906140999190614188565b5b50565b604051806060016040528060001515815260200160608152602001600060ff1681525090565b604051806060016040528060001515815260200160608152602001600060ff1681525090565b604051806060016040528060001515815260200160608152602001600060ff1681525090565b6040518060800160405280600015158152602001600060ff16815260200160008152602001606081525090565b604051806060016040528060001515815260200160608152602001600060ff1681525090565b604051806060016040528060001515815260200160608152602001600060ff1681525090565b5b808211156141a1576000816000905550600101614189565b5090565b60006141b86141b3846150f8565b6150d3565b9050828152602081018484840111156141d4576141d3615522565b5b6141df848285615344565b509392505050565b6000813590506141f681615809565b92915050565b60008135905061420b81615820565b92915050565b600082601f8301126142265761422561551d565b5b81356142368482602086016141a5565b91505092915050565b60008135905061424e81615837565b92915050565b6000813590506142638161584e565b92915050565b60008135905061427881615865565b92915050565b6000602082840312156142945761429361552c565b5b60006142a2848285016141e7565b91505092915050565b6000806000606084860312156142c4576142c361552c565b5b60006142d2868287016141e7565b93505060206142e3868287016141e7565b92505060406142f4868287016141e7565b9150509250925092565b600080604083850312156143155761431461552c565b5b6000614323858286016141e7565b9250506020614334858286016141fc565b9150509250929050565b600080600080608085870312156143585761435761552c565b5b6000614366878288016141e7565b945050602085013567ffffffffffffffff81111561438757614386615527565b5b61439387828801614211565b93505060406143a48782880161423f565b92505060606143b587828801614269565b91505092959194509250565b6000806000606084860312156143da576143d961552c565b5b60006143e8868287016141e7565b935050602084013567ffffffffffffffff81111561440957614408615527565b5b61441586828701614211565b925050604061442686828701614269565b9150509250925092565b6000602082840312156144465761444561552c565b5b60006144548482850161423f565b91505092915050565b6000602082840312156144735761447261552c565b5b600061448184828501614254565b91505092915050565b60006144968383614a7b565b905092915050565b60006144aa8383614ade565b905092915050565b60006144be8383614b2e565b905092915050565b60006144d28383614b7e565b905092915050565b60006144e68383614bce565b905092915050565b60006144fa8383614c1e565b905092915050565b61450b816152ac565b82525050565b600061451c82615189565b6145268185615224565b93508360208202850161453885615129565b8060005b858110156145745784840389528151614555858261448a565b9450614560836151d6565b925060208a0199505060018101905061453c565b50829750879550505050505092915050565b600061459182615194565b61459b8185615235565b9350836020820285016145ad85615139565b8060005b858110156145e957848403895281516145ca858261449e565b94506145d5836151e3565b925060208a019950506001810190506145b1565b50829750879550505050505092915050565b60006146068261519f565b6146108185615246565b93508360208202850161462285615149565b8060005b8581101561465e578484038952815161463f85826144b2565b945061464a836151f0565b925060208a01995050600181019050614626565b50829750879550505050505092915050565b600061467b826151aa565b6146858185615257565b93508360208202850161469785615159565b8060005b858110156146d357848403895281516146b485826144c6565b94506146bf836151fd565b925060208a0199505060018101905061469b565b50829750879550505050505092915050565b60006146f0826151b5565b6146fa8185615268565b93508360208202850161470c85615169565b8060005b85811015614748578484038952815161472985826144da565b94506147348361520a565b925060208a01995050600181019050614710565b50829750879550505050505092915050565b6000614765826151c0565b61476f8185615279565b93508360208202850161478185615179565b8060005b858110156147bd578484038952815161479e85826144ee565b94506147a983615217565b925060208a01995050600181019050614785565b50829750879550505050505092915050565b6147d8816152be565b82525050565b6147e7816152be565b82525050565b6147f681615332565b82525050565b6000614807826151cb565b614811818561528a565b9350614821818560208601615353565b61482a81615531565b840191505092915050565b6000614840826151cb565b61484a818561529b565b935061485a818560208601615353565b61486381615531565b840191505092915050565b600061487b60198361529b565b915061488682615542565b602082019050919050565b600061489e60178361529b565b91506148a98261556b565b602082019050919050565b60006148c160118361529b565b91506148cc82615594565b602082019050919050565b60006148e460188361529b565b91506148ef826155bd565b602082019050919050565b600061490760128361529b565b9150614912826155e6565b602082019050919050565b600061492a601e8361529b565b91506149358261560f565b602082019050919050565b600061494d601e8361529b565b915061495882615638565b602082019050919050565b600061497060228361529b565b915061497b82615661565b604082019050919050565b600061499360228361529b565b915061499e826156b0565b604082019050919050565b60006149b660178361529b565b91506149c1826156ff565b602082019050919050565b60006149d9601e8361529b565b91506149e482615728565b602082019050919050565b60006149fc60118361529b565b9150614a0782615751565b602082019050919050565b6000614a1f60188361529b565b9150614a2a8261577a565b602082019050919050565b6000614a4260128361529b565b9150614a4d826157a3565b602082019050919050565b6000614a6560198361529b565b9150614a70826157cc565b602082019050919050565b6000608083016000830151614a9360008601826147cf565b506020830151614aa66020860182614caa565b506040830151614ab96040860182614c7d565b5060608301518482036060860152614ad182826147fc565b9150508091505092915050565b6000606083016000830151614af660008601826147cf565b5060208301518482036020860152614b0e82826147fc565b9150506040830151614b236040860182614caa565b508091505092915050565b6000606083016000830151614b4660008601826147cf565b5060208301518482036020860152614b5e82826147fc565b9150506040830151614b736040860182614caa565b508091505092915050565b6000606083016000830151614b9660008601826147cf565b5060208301518482036020860152614bae82826147fc565b9150506040830151614bc36040860182614caa565b508091505092915050565b6000606083016000830151614be660008601826147cf565b5060208301518482036020860152614bfe82826147fc565b9150506040830151614c136040860182614caa565b508091505092915050565b6000606083016000830151614c3660008601826147cf565b5060208301518482036020860152614c4e82826147fc565b9150506040830151614c636040860182614caa565b508091505092915050565b614c77816152dd565b82525050565b614c868161530b565b82525050565b614c958161530b565b82525050565b614ca481615315565b82525050565b614cb381615325565b82525050565b614cc281615325565b82525050565b6000602082019050614cdd6000830184614502565b92915050565b60006020820190508181036000830152614cfd8184614511565b905092915050565b60006020820190508181036000830152614d1f8184614586565b905092915050565b60006020820190508181036000830152614d4181846145fb565b905092915050565b60006020820190508181036000830152614d638184614670565b905092915050565b60006020820190508181036000830152614d8581846146e5565b905092915050565b60006020820190508181036000830152614da7818461475a565b905092915050565b6000602082019050614dc460008301846147de565b92915050565b600060c082019050614ddf60008301896147de565b614dec6020830188614502565b614df96040830187614c6e565b614e0660608301866147ed565b8181036080830152614e188185614835565b905081810360a0830152614e2c8184614835565b9050979650505050505050565b6000606082019050614e4e60008301866147de565b8181036020830152614e608185614835565b9050614e6f6040830184614cb9565b949350505050565b6000608082019050614e8c60008301876147de565b614e996020830186614cb9565b614ea66040830185614c8c565b8181036060830152614eb88184614835565b905095945050505050565b60006020820190508181036000830152614edc8161486e565b9050919050565b60006020820190508181036000830152614efc81614891565b9050919050565b60006020820190508181036000830152614f1c816148b4565b9050919050565b60006020820190508181036000830152614f3c816148d7565b9050919050565b60006020820190508181036000830152614f5c816148fa565b9050919050565b60006020820190508181036000830152614f7c8161491d565b9050919050565b60006020820190508181036000830152614f9c81614940565b9050919050565b60006020820190508181036000830152614fbc81614963565b9050919050565b60006020820190508181036000830152614fdc81614986565b9050919050565b60006020820190508181036000830152614ffc816149a9565b9050919050565b6000602082019050818103600083015261501c816149cc565b9050919050565b6000602082019050818103600083015261503c816149ef565b9050919050565b6000602082019050818103600083015261505c81614a12565b9050919050565b6000602082019050818103600083015261507c81614a35565b9050919050565b6000602082019050818103600083015261509c81614a58565b9050919050565b60006040820190506150b86000830185614c9b565b81810360208301526150ca8184614835565b90509392505050565b60006150dd6150ee565b90506150e982826153b8565b919050565b6000604051905090565b600067ffffffffffffffff821115615113576151126154ee565b5b61511c82615531565b9050602081019050919050565b6000819050602082019050919050565b6000819050602082019050919050565b6000819050602082019050919050565b6000819050602082019050919050565b6000819050602082019050919050565b6000819050602082019050919050565b600081519050919050565b600081519050919050565b600081519050919050565b600081519050919050565b600081519050919050565b600081519050919050565b600081519050919050565b6000602082019050919050565b6000602082019050919050565b6000602082019050919050565b6000602082019050919050565b6000602082019050919050565b6000602082019050919050565b600082825260208201905092915050565b600082825260208201905092915050565b600082825260208201905092915050565b600082825260208201905092915050565b600082825260208201905092915050565b600082825260208201905092915050565b600082825260208201905092915050565b600082825260208201905092915050565b60006152b7826152eb565b9050919050565b60008115159050919050565b60008190506152d8826157f5565b919050565b600061ffff82169050919050565b600073ffffffffffffffffffffffffffffffffffffffff82169050919050565b6000819050919050565b600063ffffffff82169050919050565b600060ff82169050919050565b600061533d826152ca565b9050919050565b82818337600083830152505050565b60005b83811015615371578082015181840152602081019050615356565b83811115615380576000848401525b50505050565b6000600282049050600182168061539e57607f821691505b602082108114156153b2576153b1615490565b5b50919050565b6153c182615531565b810181811067ffffffffffffffff821117156153e0576153df6154ee565b5b80604052505050565b60006153f48261530b565b91507fffffffffffffffffffffffffffffffffffffffffffffffffffffffffffffffff82141561542757615426615432565b5b600182019050919050565b7f4e487b7100000000000000000000000000000000000000000000000000000000600052601160045260246000fd5b7f4e487b7100000000000000000000000000000000000000000000000000000000600052602160045260246000fd5b7f4e487b7100000000000000000000000000000000000000000000000000000000600052602260045260246000fd5b7f4e487b7100000000000000000000000000000000000000000000000000000000600052603260045260246000fd5b7f4e487b7100000000000000000000000000000000000000000000000000000000600052604160045260246000fd5b600080fd5b600080fd5b600080fd5b600080fd5b6000601f19601f8301169050919050565b7f4b757273204d65726b657a69205a6174656e204d657663757400000000000000600082015250565b7f556e6976657273697465204d657663757420446567696c000000000000000000600082015250565b7f4b697369204d657663757420446567696c000000000000000000000000000000600082015250565b7f4b616d75204b7572756d75205a6174656e204d65766375740000000000000000600082015250565b7f4669726d61205a6174656e204d65766375740000000000000000000000000000600082015250565b7f5361646563652043422062752069736c656d69207961706162696c69722e0000600082015250565b7f536572746966696b61204d65726b657a69205a6174656e204d65766375740000600082015250565b7f536976696c20546f706c756d204b7572756c757375204d65766375742044656760008201527f696c000000000000000000000000000000000000000000000000000000000000602082015250565b7f536976696c20546f706c756d204b7572756c757375205a6174656e204d65766360008201527f7574000000000000000000000000000000000000000000000000000000000000602082015250565b7f556e6976657273697465205a6174656e204d6576637574000000000000000000600082015250565b7f536572746966696b61204d65726b657a69204d657663757420446567696c0000600082015250565b7f4b697369205a6174656e204d6576637574000000000000000000000000000000600082015250565b7f4b616d75204b7572756d75204d657663757420446567696c0000000000000000600082015250565b7f4669726d61204d657663757420446567696c0000000000000000000000000000600082015250565b7f4b757273204d65726b657a69204d657663757420446567696c00000000000000600082015250565b6004811061580657615805615461565b5b50565b615812816152ac565b811461581d57600080fd5b50565b615829816152be565b811461583457600080fd5b50565b6158408161530b565b811461584b57600080fd5b50565b61585781615315565b811461586257600080fd5b50565b61586e81615325565b811461587957600080fd5b5056fea26469706673582212204d9fc862766780b510bae73e141b528c8a665698e768bd2a7d874644f1b6b0f764736f6c63430008070033",
					"opcodes": "PUSH1 0x80 PUSH1 0x40 MSTORE CALLVALUE DUP1 ISZERO PUSH2 0x10 JUMPI PUSH1 0x0 DUP1 REVERT JUMPDEST POP PUSH2 0x58B2 DUP1 PUSH3 0x21 PUSH1 0x0 CODECOPY PUSH1 0x0 RETURN INVALID PUSH1 0x80 PUSH1 0x40 MSTORE CALLVALUE DUP1 ISZERO PUSH2 0x10 JUMPI PUSH1 0x0 DUP1 REVERT JUMPDEST POP PUSH1 0x4 CALLDATASIZE LT PUSH2 0x35C JUMPI PUSH1 0x0 CALLDATALOAD PUSH1 0xE0 SHR DUP1 PUSH4 0xA29879C0 GT PUSH2 0x1D3 JUMPI DUP1 PUSH4 0xD5F6D56C GT PUSH2 0x104 JUMPI DUP1 PUSH4 0xE8ABB184 GT PUSH2 0xA2 JUMPI DUP1 PUSH4 0xF1981850 GT PUSH2 0x7C JUMPI DUP1 PUSH4 0xF1981850 EQ PUSH2 0xB1C JUMPI DUP1 PUSH4 0xF54ACC65 EQ PUSH2 0xB38 JUMPI DUP1 PUSH4 0xF63C649F EQ PUSH2 0xB54 JUMPI DUP1 PUSH4 0xFD738E6D EQ PUSH2 0xB70 JUMPI PUSH2 0x35C JUMP JUMPDEST DUP1 PUSH4 0xE8ABB184 EQ PUSH2 0xA8C JUMPI DUP1 PUSH4 0xF0040EB9 EQ PUSH2 0xABC JUMPI DUP1 PUSH4 0xF1403851 EQ PUSH2 0xAEC JUMPI PUSH2 0x35C JUMP JUMPDEST DUP1 PUSH4 0xD7909777 GT PUSH2 0xDE JUMPI DUP1 PUSH4 0xD7909777 EQ PUSH2 0x9E0 JUMPI DUP1 PUSH4 0xD88D8C12 EQ PUSH2 0xA10 JUMPI DUP1 PUSH4 0xE24047CA EQ PUSH2 0xA2C JUMPI DUP1 PUSH4 0xE5130508 EQ PUSH2 0xA5C JUMPI PUSH2 0x35C JUMP JUMPDEST DUP1 PUSH4 0xD5F6D56C EQ PUSH2 0x976 JUMPI DUP1 PUSH4 0xD71ED8B1 EQ PUSH2 0x992 JUMPI DUP1 PUSH4 0xD7396414 EQ PUSH2 0x9B0 JUMPI PUSH2 0x35C JUMP JUMPDEST DUP1 PUSH4 0xBA479B7E GT PUSH2 0x171 JUMPI DUP1 PUSH4 0xCBC92809 GT PUSH2 0x14B JUMPI DUP1 PUSH4 0xCBC92809 EQ PUSH2 0x8EE JUMPI DUP1 PUSH4 0xD0D6B7A3 EQ PUSH2 0x91E JUMPI DUP1 PUSH4 0xD25AAB85 EQ PUSH2 0x93C JUMPI DUP1 PUSH4 0xD508602D EQ PUSH2 0x958 JUMPI PUSH2 0x35C JUMP JUMPDEST DUP1 PUSH4 0xBA479B7E EQ PUSH2 0x881 JUMPI DUP1 PUSH4 0xBD35A506 EQ PUSH2 0x8B6 JUMPI DUP1 PUSH4 0xC6DA8CFE EQ PUSH2 0x8D2 JUMPI PUSH2 0x35C JUMP JUMPDEST DUP1 PUSH4 0xAFB61B1E GT PUSH2 0x1AD JUMPI DUP1 PUSH4 0xAFB61B1E EQ PUSH2 0x7E9 JUMPI DUP1 PUSH4 0xB07B0E5A EQ PUSH2 0x805 JUMPI DUP1 PUSH4 0xB2A825BB EQ PUSH2 0x835 JUMPI DUP1 PUSH4 0xB98CCEFD EQ PUSH2 0x851 JUMPI PUSH2 0x35C JUMP JUMPDEST DUP1 PUSH4 0xA29879C0 EQ PUSH2 0x77E JUMPI DUP1 PUSH4 0xA4E7AE05 EQ PUSH2 0x79C JUMPI DUP1 PUSH4 0xA81DC179 EQ PUSH2 0x7CD JUMPI PUSH2 0x35C JUMP JUMPDEST DUP1 PUSH4 0x36FD2633 GT PUSH2 0x2AD JUMPI DUP1 PUSH4 0x7D0FA287 GT PUSH2 0x24B JUMPI DUP1 PUSH4 0x91E9528A GT PUSH2 0x225 JUMPI DUP1 PUSH4 0x91E9528A EQ PUSH2 0x6F8 JUMPI DUP1 PUSH4 0x9A8C9119 EQ PUSH2 0x714 JUMPI DUP1 PUSH4 0x9BFC4DBD EQ PUSH2 0x746 JUMPI DUP1 PUSH4 0x9DC30114 EQ PUSH2 0x762 JUMPI PUSH2 0x35C JUMP JUMPDEST DUP1 PUSH4 0x7D0FA287 EQ PUSH2 0x678 JUMPI DUP1 PUSH4 0x871DB892 EQ PUSH2 0x6AA JUMPI DUP1 PUSH4 0x8C848885 EQ PUSH2 0x6C8 JUMPI PUSH2 0x35C JUMP JUMPDEST DUP1 PUSH4 0x50D2A060 GT PUSH2 0x287 JUMPI DUP1 PUSH4 0x50D2A060 EQ PUSH2 0x5F2 JUMPI DUP1 PUSH4 0x514E03C7 EQ PUSH2 0x60E JUMPI DUP1 PUSH4 0x548FA620 EQ PUSH2 0x63E JUMPI DUP1 PUSH4 0x71AF892D EQ PUSH2 0x65A JUMPI PUSH2 0x35C JUMP JUMPDEST DUP1 PUSH4 0x36FD2633 EQ PUSH2 0x587 JUMPI DUP1 PUSH4 0x39987F94 EQ PUSH2 0x5A3 JUMPI DUP1 PUSH4 0x46224853 EQ PUSH2 0x5D6 JUMPI PUSH2 0x35C JUMP JUMPDEST DUP1 PUSH4 0x19023BF3 GT PUSH2 0x31A JUMPI DUP1 PUSH4 0x1F145F47 GT PUSH2 0x2F4 JUMPI DUP1 PUSH4 0x1F145F47 EQ PUSH2 0x4C3 JUMPI DUP1 PUSH4 0x28266697 EQ PUSH2 0x4F3 JUMPI DUP1 PUSH4 0x2D087D70 EQ PUSH2 0x525 JUMPI DUP1 PUSH4 0x356B1F1E EQ PUSH2 0x555 JUMPI PUSH2 0x35C JUMP JUMPDEST DUP1 PUSH4 0x19023BF3 EQ PUSH2 0x459 JUMPI DUP1 PUSH4 0x1916E139 EQ PUSH2 0x475 JUMPI DUP1 PUSH4 0x1D595580 EQ PUSH2 0x4A7 JUMPI PUSH2 0x35C JUMP JUMPDEST DUP1 PUSH3 0x1D54AB EQ PUSH2 0x361 JUMPI DUP1 PUSH4 0x24EB6BC EQ PUSH2 0x37D JUMPI DUP1 PUSH4 0xA33E3EB EQ PUSH2 0x3AD JUMPI DUP1 PUSH4 0xB877CA7 EQ PUSH2 0x3DD JUMPI DUP1 PUSH4 0x139884EC EQ PUSH2 0x40D JUMPI DUP1 PUSH4 0x150596F4 EQ PUSH2 0x43D JUMPI JUMPDEST PUSH1 0x0 DUP1 REVERT JUMPDEST PUSH2 0x37B PUSH1 0x4 DUP1 CALLDATASIZE SUB DUP2 ADD SWAP1 PUSH2 0x376 SWAP2 SWAP1 PUSH2 0x43C1 JUMP JUMPDEST PUSH2 0xB8E JUMP JUMPDEST STOP JUMPDEST PUSH2 0x397 PUSH1 0x4 DUP1 CALLDATASIZE SUB DUP2 ADD SWAP1 PUSH2 0x392 SWAP2 SWAP1 PUSH2 0x427E JUMP JUMPDEST PUSH2 0xD4C JUMP JUMPDEST PUSH1 0x40 MLOAD PUSH2 0x3A4 SWAP2 SWAP1 PUSH2 0x4DAF JUMP JUMPDEST PUSH1 0x40 MLOAD DUP1 SWAP2 SUB SWAP1 RETURN JUMPDEST PUSH2 0x3C7 PUSH1 0x4 DUP1 CALLDATASIZE SUB DUP2 ADD SWAP1 PUSH2 0x3C2 SWAP2 SWAP1 PUSH2 0x4430 JUMP JUMPDEST PUSH2 0xDA5 JUMP JUMPDEST PUSH1 0x40 MLOAD PUSH2 0x3D4 SWAP2 SWAP1 PUSH2 0x4CC8 JUMP JUMPDEST PUSH1 0x40 MLOAD DUP1 SWAP2 SUB SWAP1 RETURN JUMPDEST PUSH2 0x3F7 PUSH1 0x4 DUP1 CALLDATASIZE SUB DUP2 ADD SWAP1 PUSH2 0x3F2 SWAP2 SWAP1 PUSH2 0x4430 JUMP JUMPDEST PUSH2 0xDE4 JUMP JUMPDEST PUSH1 0x40 MLOAD PUSH2 0x404 SWAP2 SWAP1 PUSH2 0x4CC8 JUMP JUMPDEST PUSH1 0x40 MLOAD DUP1 SWAP2 SUB SWAP1 RETURN JUMPDEST PUSH2 0x427 PUSH1 0x4 DUP1 CALLDATASIZE SUB DUP2 ADD SWAP1 PUSH2 0x422 SWAP2 SWAP1 PUSH2 0x427E JUMP JUMPDEST PUSH2 0xE23 JUMP JUMPDEST PUSH1 0x40 MLOAD PUSH2 0x434 SWAP2 SWAP1 PUSH2 0x4DAF JUMP JUMPDEST PUSH1 0x40 MLOAD DUP1 SWAP2 SUB SWAP1 RETURN JUMPDEST PUSH2 0x457 PUSH1 0x4 DUP1 CALLDATASIZE SUB DUP2 ADD SWAP1 PUSH2 0x452 SWAP2 SWAP1 PUSH2 0x43C1 JUMP JUMPDEST PUSH2 0xE7D JUMP JUMPDEST STOP JUMPDEST PUSH2 0x473 PUSH1 0x4 DUP1 CALLDATASIZE SUB DUP2 ADD SWAP1 PUSH2 0x46E SWAP2 SWAP1 PUSH2 0x43C1 JUMP JUMPDEST PUSH2 0xFD7 JUMP JUMPDEST STOP JUMPDEST PUSH2 0x48F PUSH1 0x4 DUP1 CALLDATASIZE SUB DUP2 ADD SWAP1 PUSH2 0x48A SWAP2 SWAP1 PUSH2 0x427E JUMP JUMPDEST PUSH2 0x1195 JUMP JUMPDEST PUSH1 0x40 MLOAD PUSH2 0x49E SWAP4 SWAP3 SWAP2 SWAP1 PUSH2 0x4E39 JUMP JUMPDEST PUSH1 0x40 MLOAD DUP1 SWAP2 SUB SWAP1 RETURN JUMPDEST PUSH2 0x4C1 PUSH1 0x4 DUP1 CALLDATASIZE SUB DUP2 ADD SWAP1 PUSH2 0x4BC SWAP2 SWAP1 PUSH2 0x427E JUMP JUMPDEST PUSH2 0x1261 JUMP JUMPDEST STOP JUMPDEST PUSH2 0x4DD PUSH1 0x4 DUP1 CALLDATASIZE SUB DUP2 ADD SWAP1 PUSH2 0x4D8 SWAP2 SWAP1 PUSH2 0x4430 JUMP JUMPDEST PUSH2 0x132E JUMP JUMPDEST PUSH1 0x40 MLOAD PUSH2 0x4EA SWAP2 SWAP1 PUSH2 0x4CC8 JUMP JUMPDEST PUSH1 0x40 MLOAD DUP1 SWAP2 SUB SWAP1 RETURN JUMPDEST PUSH2 0x50D PUSH1 0x4 DUP1 CALLDATASIZE SUB DUP2 ADD SWAP1 PUSH2 0x508 SWAP2 SWAP1 PUSH2 0x427E JUMP JUMPDEST PUSH2 0x136D JUMP JUMPDEST PUSH1 0x40 MLOAD PUSH2 0x51C SWAP4 SWAP3 SWAP2 SWAP1 PUSH2 0x4E39 JUMP JUMPDEST PUSH1 0x40 MLOAD DUP1 SWAP2 SUB SWAP1 RETURN JUMPDEST PUSH2 0x53F PUSH1 0x4 DUP1 CALLDATASIZE SUB DUP2 ADD SWAP1 PUSH2 0x53A SWAP2 SWAP1 PUSH2 0x427E JUMP JUMPDEST PUSH2 0x1439 JUMP JUMPDEST PUSH1 0x40 MLOAD PUSH2 0x54C SWAP2 SWAP1 PUSH2 0x4DAF JUMP JUMPDEST PUSH1 0x40 MLOAD DUP1 SWAP2 SUB SWAP1 RETURN JUMPDEST PUSH2 0x56F PUSH1 0x4 DUP1 CALLDATASIZE SUB DUP2 ADD SWAP1 PUSH2 0x56A SWAP2 SWAP1 PUSH2 0x427E JUMP JUMPDEST PUSH2 0x1492 JUMP JUMPDEST PUSH1 0x40 MLOAD PUSH2 0x57E SWAP4 SWAP3 SWAP2 SWAP1 PUSH2 0x4E39 JUMP JUMPDEST PUSH1 0x40 MLOAD DUP1 SWAP2 SUB SWAP1 RETURN JUMPDEST PUSH2 0x5A1 PUSH1 0x4 DUP1 CALLDATASIZE SUB DUP2 ADD SWAP1 PUSH2 0x59C SWAP2 SWAP1 PUSH2 0x42AB JUMP JUMPDEST PUSH2 0x155E JUMP JUMPDEST STOP JUMPDEST PUSH2 0x5BD PUSH1 0x4 DUP1 CALLDATASIZE SUB DUP2 ADD SWAP1 PUSH2 0x5B8 SWAP2 SWAP1 PUSH2 0x427E JUMP JUMPDEST PUSH2 0x1625 JUMP JUMPDEST PUSH1 0x40 MLOAD PUSH2 0x5CD SWAP5 SWAP4 SWAP3 SWAP2 SWAP1 PUSH2 0x4E77 JUMP JUMPDEST PUSH1 0x40 MLOAD DUP1 SWAP2 SUB SWAP1 RETURN JUMPDEST PUSH2 0x5F0 PUSH1 0x4 DUP1 CALLDATASIZE SUB DUP2 ADD SWAP1 PUSH2 0x5EB SWAP2 SWAP1 PUSH2 0x43C1 JUMP JUMPDEST PUSH2 0x16F7 JUMP JUMPDEST STOP JUMPDEST PUSH2 0x60C PUSH1 0x4 DUP1 CALLDATASIZE SUB DUP2 ADD SWAP1 PUSH2 0x607 SWAP2 SWAP1 PUSH2 0x427E JUMP JUMPDEST PUSH2 0x18B5 JUMP JUMPDEST STOP JUMPDEST PUSH2 0x628 PUSH1 0x4 DUP1 CALLDATASIZE SUB DUP2 ADD SWAP1 PUSH2 0x623 SWAP2 SWAP1 PUSH2 0x427E JUMP JUMPDEST PUSH2 0x197A JUMP JUMPDEST PUSH1 0x40 MLOAD PUSH2 0x635 SWAP2 SWAP1 PUSH2 0x4DAF JUMP JUMPDEST PUSH1 0x40 MLOAD DUP1 SWAP2 SUB SWAP1 RETURN JUMPDEST PUSH2 0x658 PUSH1 0x4 DUP1 CALLDATASIZE SUB DUP2 ADD SWAP1 PUSH2 0x653 SWAP2 SWAP1 PUSH2 0x427E JUMP JUMPDEST PUSH2 0x19D3 JUMP JUMPDEST STOP JUMPDEST PUSH2 0x662 PUSH2 0x1A98 JUMP JUMPDEST PUSH1 0x40 MLOAD PUSH2 0x66F SWAP2 SWAP1 PUSH2 0x4CC8 JUMP JUMPDEST PUSH1 0x40 MLOAD DUP1 SWAP2 SUB SWAP1 RETURN JUMPDEST PUSH2 0x692 PUSH1 0x4 DUP1 CALLDATASIZE SUB DUP2 ADD SWAP1 PUSH2 0x68D SWAP2 SWAP1 PUSH2 0x427E JUMP JUMPDEST PUSH2 0x1ABC JUMP JUMPDEST PUSH1 0x40 MLOAD PUSH2 0x6A1 SWAP4 SWAP3 SWAP2 SWAP1 PUSH2 0x4E39 JUMP JUMPDEST PUSH1 0x40 MLOAD DUP1 SWAP2 SUB SWAP1 RETURN JUMPDEST PUSH2 0x6B2 PUSH2 0x1B88 JUMP JUMPDEST PUSH1 0x40 MLOAD PUSH2 0x6BF SWAP2 SWAP1 PUSH2 0x4D8D JUMP JUMPDEST PUSH1 0x40 MLOAD DUP1 SWAP2 SUB SWAP1 RETURN JUMPDEST PUSH2 0x6E2 PUSH1 0x4 DUP1 CALLDATASIZE SUB DUP2 ADD SWAP1 PUSH2 0x6DD SWAP2 SWAP1 PUSH2 0x427E JUMP JUMPDEST PUSH2 0x1D90 JUMP JUMPDEST PUSH1 0x40 MLOAD PUSH2 0x6EF SWAP2 SWAP1 PUSH2 0x4DAF JUMP JUMPDEST PUSH1 0x40 MLOAD DUP1 SWAP2 SUB SWAP1 RETURN JUMPDEST PUSH2 0x712 PUSH1 0x4 DUP1 CALLDATASIZE SUB DUP2 ADD SWAP1 PUSH2 0x70D SWAP2 SWAP1 PUSH2 0x43C1 JUMP JUMPDEST PUSH2 0x1DE9 JUMP JUMPDEST STOP JUMPDEST PUSH2 0x72E PUSH1 0x4 DUP1 CALLDATASIZE SUB DUP2 ADD SWAP1 PUSH2 0x729 SWAP2 SWAP1 PUSH2 0x427E JUMP JUMPDEST PUSH2 0x1F43 JUMP JUMPDEST PUSH1 0x40 MLOAD PUSH2 0x73D SWAP4 SWAP3 SWAP2 SWAP1 PUSH2 0x4E39 JUMP JUMPDEST PUSH1 0x40 MLOAD DUP1 SWAP2 SUB SWAP1 RETURN JUMPDEST PUSH2 0x760 PUSH1 0x4 DUP1 CALLDATASIZE SUB DUP2 ADD SWAP1 PUSH2 0x75B SWAP2 SWAP1 PUSH2 0x427E JUMP JUMPDEST PUSH2 0x200F JUMP JUMPDEST STOP JUMPDEST PUSH2 0x77C PUSH1 0x4 DUP1 CALLDATASIZE SUB DUP2 ADD SWAP1 PUSH2 0x777 SWAP2 SWAP1 PUSH2 0x43C1 JUMP JUMPDEST PUSH2 0x20D4 JUMP JUMPDEST STOP JUMPDEST PUSH2 0x786 PUSH2 0x2292 JUMP JUMPDEST PUSH1 0x40 MLOAD PUSH2 0x793 SWAP2 SWAP1 PUSH2 0x4D49 JUMP JUMPDEST PUSH1 0x40 MLOAD DUP1 SWAP2 SUB SWAP1 RETURN JUMPDEST PUSH2 0x7B6 PUSH1 0x4 DUP1 CALLDATASIZE SUB DUP2 ADD SWAP1 PUSH2 0x7B1 SWAP2 SWAP1 PUSH2 0x445D JUMP JUMPDEST PUSH2 0x249A JUMP JUMPDEST PUSH1 0x40 MLOAD PUSH2 0x7C4 SWAP3 SWAP2 SWAP1 PUSH2 0x50A3 JUMP JUMPDEST PUSH1 0x40 MLOAD DUP1 SWAP2 SUB SWAP1 RETURN JUMPDEST PUSH2 0x7E7 PUSH1 0x4 DUP1 CALLDATASIZE SUB DUP2 ADD SWAP1 PUSH2 0x7E2 SWAP2 SWAP1 PUSH2 0x433E JUMP JUMPDEST PUSH2 0x2556 JUMP JUMPDEST STOP JUMPDEST PUSH2 0x803 PUSH1 0x4 DUP1 CALLDATASIZE SUB DUP2 ADD SWAP1 PUSH2 0x7FE SWAP2 SWAP1 PUSH2 0x427E JUMP JUMPDEST PUSH2 0x26F8 JUMP JUMPDEST STOP JUMPDEST PUSH2 0x81F PUSH1 0x4 DUP1 CALLDATASIZE SUB DUP2 ADD SWAP1 PUSH2 0x81A SWAP2 SWAP1 PUSH2 0x4430 JUMP JUMPDEST PUSH2 0x27BD JUMP JUMPDEST PUSH1 0x40 MLOAD PUSH2 0x82C SWAP2 SWAP1 PUSH2 0x4CC8 JUMP JUMPDEST PUSH1 0x40 MLOAD DUP1 SWAP2 SUB SWAP1 RETURN JUMPDEST PUSH2 0x84F PUSH1 0x4 DUP1 CALLDATASIZE SUB DUP2 ADD SWAP1 PUSH2 0x84A SWAP2 SWAP1 PUSH2 0x43C1 JUMP JUMPDEST PUSH2 0x27FC JUMP JUMPDEST STOP JUMPDEST PUSH2 0x86B PUSH1 0x4 DUP1 CALLDATASIZE SUB DUP2 ADD SWAP1 PUSH2 0x866 SWAP2 SWAP1 PUSH2 0x427E JUMP JUMPDEST PUSH2 0x2956 JUMP JUMPDEST PUSH1 0x40 MLOAD PUSH2 0x878 SWAP2 SWAP1 PUSH2 0x4DAF JUMP JUMPDEST PUSH1 0x40 MLOAD DUP1 SWAP2 SUB SWAP1 RETURN JUMPDEST PUSH2 0x89B PUSH1 0x4 DUP1 CALLDATASIZE SUB DUP2 ADD SWAP1 PUSH2 0x896 SWAP2 SWAP1 PUSH2 0x427E JUMP JUMPDEST PUSH2 0x29AF JUMP JUMPDEST PUSH1 0x40 MLOAD PUSH2 0x8AD SWAP7 SWAP6 SWAP5 SWAP4 SWAP3 SWAP2 SWAP1 PUSH2 0x4DCA JUMP JUMPDEST PUSH1 0x40 MLOAD DUP1 SWAP2 SUB SWAP1 RETURN JUMPDEST PUSH2 0x8D0 PUSH1 0x4 DUP1 CALLDATASIZE SUB DUP2 ADD SWAP1 PUSH2 0x8CB SWAP2 SWAP1 PUSH2 0x427E JUMP JUMPDEST PUSH2 0x2B43 JUMP JUMPDEST STOP JUMPDEST PUSH2 0x8EC PUSH1 0x4 DUP1 CALLDATASIZE SUB DUP2 ADD SWAP1 PUSH2 0x8E7 SWAP2 SWAP1 PUSH2 0x43C1 JUMP JUMPDEST PUSH2 0x2BE4 JUMP JUMPDEST STOP JUMPDEST PUSH2 0x908 PUSH1 0x4 DUP1 CALLDATASIZE SUB DUP2 ADD SWAP1 PUSH2 0x903 SWAP2 SWAP1 PUSH2 0x427E JUMP JUMPDEST PUSH2 0x2D3E JUMP JUMPDEST PUSH1 0x40 MLOAD PUSH2 0x915 SWAP2 SWAP1 PUSH2 0x4DAF JUMP JUMPDEST PUSH1 0x40 MLOAD DUP1 SWAP2 SUB SWAP1 RETURN JUMPDEST PUSH2 0x926 PUSH2 0x2D69 JUMP JUMPDEST PUSH1 0x40 MLOAD PUSH2 0x933 SWAP2 SWAP1 PUSH2 0x4D27 JUMP JUMPDEST PUSH1 0x40 MLOAD DUP1 SWAP2 SUB SWAP1 RETURN JUMPDEST PUSH2 0x956 PUSH1 0x4 DUP1 CALLDATASIZE SUB DUP2 ADD SWAP1 PUSH2 0x951 SWAP2 SWAP1 PUSH2 0x433E JUMP JUMPDEST PUSH2 0x2F71 JUMP JUMPDEST STOP JUMPDEST PUSH2 0x960 PUSH2 0x3177 JUMP JUMPDEST PUSH1 0x40 MLOAD PUSH2 0x96D SWAP2 SWAP1 PUSH2 0x4CE3 JUMP JUMPDEST PUSH1 0x40 MLOAD DUP1 SWAP2 SUB SWAP1 RETURN JUMPDEST PUSH2 0x990 PUSH1 0x4 DUP1 CALLDATASIZE SUB DUP2 ADD SWAP1 PUSH2 0x98B SWAP2 SWAP1 PUSH2 0x43C1 JUMP JUMPDEST PUSH2 0x3389 JUMP JUMPDEST STOP JUMPDEST PUSH2 0x99A PUSH2 0x34E3 JUMP JUMPDEST PUSH1 0x40 MLOAD PUSH2 0x9A7 SWAP2 SWAP1 PUSH2 0x4D05 JUMP JUMPDEST PUSH1 0x40 MLOAD DUP1 SWAP2 SUB SWAP1 RETURN JUMPDEST PUSH2 0x9CA PUSH1 0x4 DUP1 CALLDATASIZE SUB DUP2 ADD SWAP1 PUSH2 0x9C5 SWAP2 SWAP1 PUSH2 0x427E JUMP JUMPDEST PUSH2 0x377B JUMP JUMPDEST PUSH1 0x40 MLOAD PUSH2 0x9D7 SWAP2 SWAP1 PUSH2 0x4DAF JUMP JUMPDEST PUSH1 0x40 MLOAD DUP1 SWAP2 SUB SWAP1 RETURN JUMPDEST PUSH2 0x9FA PUSH1 0x4 DUP1 CALLDATASIZE SUB DUP2 ADD SWAP1 PUSH2 0x9F5 SWAP2 SWAP1 PUSH2 0x4430 JUMP JUMPDEST PUSH2 0x37D3 JUMP JUMPDEST PUSH1 0x40 MLOAD PUSH2 0xA07 SWAP2 SWAP1 PUSH2 0x4CC8 JUMP JUMPDEST PUSH1 0x40 MLOAD DUP1 SWAP2 SUB SWAP1 RETURN JUMPDEST PUSH2 0xA2A PUSH1 0x4 DUP1 CALLDATASIZE SUB DUP2 ADD SWAP1 PUSH2 0xA25 SWAP2 SWAP1 PUSH2 0x427E JUMP JUMPDEST PUSH2 0x3812 JUMP JUMPDEST STOP JUMPDEST PUSH2 0xA46 PUSH1 0x4 DUP1 CALLDATASIZE SUB DUP2 ADD SWAP1 PUSH2 0xA41 SWAP2 SWAP1 PUSH2 0x427E JUMP JUMPDEST PUSH2 0x38D7 JUMP JUMPDEST PUSH1 0x40 MLOAD PUSH2 0xA53 SWAP2 SWAP1 PUSH2 0x4DAF JUMP JUMPDEST PUSH1 0x40 MLOAD DUP1 SWAP2 SUB SWAP1 RETURN JUMPDEST PUSH2 0xA76 PUSH1 0x4 DUP1 CALLDATASIZE SUB DUP2 ADD SWAP1 PUSH2 0xA71 SWAP2 SWAP1 PUSH2 0x427E JUMP JUMPDEST PUSH2 0x3930 JUMP JUMPDEST PUSH1 0x40 MLOAD PUSH2 0xA83 SWAP2 SWAP1 PUSH2 0x4DAF JUMP JUMPDEST PUSH1 0x40 MLOAD DUP1 SWAP2 SUB SWAP1 RETURN JUMPDEST PUSH2 0xAA6 PUSH1 0x4 DUP1 CALLDATASIZE SUB DUP2 ADD SWAP1 PUSH2 0xAA1 SWAP2 SWAP1 PUSH2 0x4430 JUMP JUMPDEST PUSH2 0x398A JUMP JUMPDEST PUSH1 0x40 MLOAD PUSH2 0xAB3 SWAP2 SWAP1 PUSH2 0x4CC8 JUMP JUMPDEST PUSH1 0x40 MLOAD DUP1 SWAP2 SUB SWAP1 RETURN JUMPDEST PUSH2 0xAD6 PUSH1 0x4 DUP1 CALLDATASIZE SUB DUP2 ADD SWAP1 PUSH2 0xAD1 SWAP2 SWAP1 PUSH2 0x427E JUMP JUMPDEST PUSH2 0x39C9 JUMP JUMPDEST PUSH1 0x40 MLOAD PUSH2 0xAE3 SWAP2 SWAP1 PUSH2 0x4DAF JUMP JUMPDEST PUSH1 0x40 MLOAD DUP1 SWAP2 SUB SWAP1 RETURN JUMPDEST PUSH2 0xB06 PUSH1 0x4 DUP1 CALLDATASIZE SUB DUP2 ADD SWAP1 PUSH2 0xB01 SWAP2 SWAP1 PUSH2 0x4430 JUMP JUMPDEST PUSH2 0x3A22 JUMP JUMPDEST PUSH1 0x40 MLOAD PUSH2 0xB13 SWAP2 SWAP1 PUSH2 0x4CC8 JUMP JUMPDEST PUSH1 0x40 MLOAD DUP1 SWAP2 SUB SWAP1 RETURN JUMPDEST PUSH2 0xB36 PUSH1 0x4 DUP1 CALLDATASIZE SUB DUP2 ADD SWAP1 PUSH2 0xB31 SWAP2 SWAP1 PUSH2 0x42FE JUMP JUMPDEST PUSH2 0x3A61 JUMP JUMPDEST STOP JUMPDEST PUSH2 0xB52 PUSH1 0x4 DUP1 CALLDATASIZE SUB DUP2 ADD SWAP1 PUSH2 0xB4D SWAP2 SWAP1 PUSH2 0x427E JUMP JUMPDEST PUSH2 0x3B07 JUMP JUMPDEST STOP JUMPDEST PUSH2 0xB6E PUSH1 0x4 DUP1 CALLDATASIZE SUB DUP2 ADD SWAP1 PUSH2 0xB69 SWAP2 SWAP1 PUSH2 0x43C1 JUMP JUMPDEST PUSH2 0x3C11 JUMP JUMPDEST STOP JUMPDEST PUSH2 0xB78 PUSH2 0x3DCF JUMP JUMPDEST PUSH1 0x40 MLOAD PUSH2 0xB85 SWAP2 SWAP1 PUSH2 0x4D6B JUMP JUMPDEST PUSH1 0x40 MLOAD DUP1 SWAP2 SUB SWAP1 RETURN JUMPDEST PUSH2 0xB97 DUP4 PUSH2 0x39C9 JUMP JUMPDEST ISZERO PUSH2 0xBD7 JUMPI PUSH1 0x40 MLOAD PUSH32 0x8C379A000000000000000000000000000000000000000000000000000000000 DUP2 MSTORE PUSH1 0x4 ADD PUSH2 0xBCE SWAP1 PUSH2 0x4FE3 JUMP JUMPDEST PUSH1 0x40 MLOAD DUP1 SWAP2 SUB SWAP1 REVERT JUMPDEST PUSH1 0x1 PUSH1 0x4 PUSH1 0x0 DUP6 PUSH20 0xFFFFFFFFFFFFFFFFFFFFFFFFFFFFFFFFFFFFFFFF AND PUSH20 0xFFFFFFFFFFFFFFFFFFFFFFFFFFFFFFFFFFFFFFFF AND DUP2 MSTORE PUSH1 0x20 ADD SWAP1 DUP2 MSTORE PUSH1 0x20 ADD PUSH1 0x0 KECCAK256 PUSH1 0x0 ADD PUSH1 0x0 PUSH2 0x100 EXP DUP2 SLOAD DUP2 PUSH1 0xFF MUL NOT AND SWAP1 DUP4 ISZERO ISZERO MUL OR SWAP1 SSTORE POP DUP2 PUSH1 0x4 PUSH1 0x0 DUP6 PUSH20 0xFFFFFFFFFFFFFFFFFFFFFFFFFFFFFFFFFFFFFFFF AND PUSH20 0xFFFFFFFFFFFFFFFFFFFFFFFFFFFFFFFFFFFFFFFF AND DUP2 MSTORE PUSH1 0x20 ADD SWAP1 DUP2 MSTORE PUSH1 0x20 ADD PUSH1 0x0 KECCAK256 PUSH1 0x1 ADD SWAP1 DUP1 MLOAD SWAP1 PUSH1 0x20 ADD SWAP1 PUSH2 0xC88 SWAP3 SWAP2 SWAP1 PUSH2 0x3FD7 JUMP JUMPDEST POP DUP1 PUSH1 0x4 PUSH1 0x0 DUP6 PUSH20 0xFFFFFFFFFFFFFFFFFFFFFFFFFFFFFFFFFFFFFFFF AND PUSH20 0xFFFFFFFFFFFFFFFFFFFFFFFFFFFFFFFFFFFFFFFF AND DUP2 MSTORE PUSH1 0x20 ADD SWAP1 DUP2 MSTORE PUSH1 0x20 ADD PUSH1 0x0 KECCAK256 PUSH1 0x2 ADD PUSH1 0x0 PUSH2 0x100 EXP DUP2 SLOAD DUP2 PUSH1 0xFF MUL NOT AND SWAP1 DUP4 PUSH1 0xFF AND MUL OR SWAP1 SSTORE POP PUSH1 0xD DUP4 SWAP1 DUP1 PUSH1 0x1 DUP2 SLOAD ADD DUP1 DUP3 SSTORE DUP1 SWAP2 POP POP PUSH1 0x1 SWAP1 SUB SWAP1 PUSH1 0x0 MSTORE PUSH1 0x20 PUSH1 0x0 KECCAK256 ADD PUSH1 0x0 SWAP1 SWAP2 SWAP1 SWAP2 SWAP1 SWAP2 PUSH2 0x100 EXP DUP2 SLOAD DUP2 PUSH20 0xFFFFFFFFFFFFFFFFFFFFFFFFFFFFFFFFFFFFFFFF MUL NOT AND SWAP1 DUP4 PUSH20 0xFFFFFFFFFFFFFFFFFFFFFFFFFFFFFFFFFFFFFFFF AND MUL OR SWAP1 SSTORE POP POP POP POP JUMP JUMPDEST PUSH1 0x0 PUSH1 0x7 PUSH1 0x0 DUP4 PUSH20 0xFFFFFFFFFFFFFFFFFFFFFFFFFFFFFFFFFFFFFFFF AND PUSH20 0xFFFFFFFFFFFFFFFFFFFFFFFFFFFFFFFFFFFFFFFF AND DUP2 MSTORE PUSH1 0x20 ADD SWAP1 DUP2 MSTORE PUSH1 0x20 ADD PUSH1 0x0 KECCAK256 PUSH1 0x0 ADD PUSH1 0x0 SWAP1 SLOAD SWAP1 PUSH2 0x100 EXP SWAP1 DIV PUSH1 0xFF AND SWAP1 POP SWAP2 SWAP1 POP JUMP JUMPDEST PUSH1 0x10 DUP2 DUP2 SLOAD DUP2 LT PUSH2 0xDB5 JUMPI PUSH1 0x0 DUP1 REVERT JUMPDEST SWAP1 PUSH1 0x0 MSTORE PUSH1 0x20 PUSH1 0x0 KECCAK256 ADD PUSH1 0x0 SWAP2 POP SLOAD SWAP1 PUSH2 0x100 EXP SWAP1 DIV PUSH20 0xFFFFFFFFFFFFFFFFFFFFFFFFFFFFFFFFFFFFFFFF AND DUP2 JUMP JUMPDEST PUSH1 0x12 DUP2 DUP2 SLOAD DUP2 LT PUSH2 0xDF4 JUMPI PUSH1 0x0 DUP1 REVERT JUMPDEST SWAP1 PUSH1 0x0 MSTORE PUSH1 0x20 PUSH1 0x0 KECCAK256 ADD PUSH1 0x0 SWAP2 POP SLOAD SWAP1 PUSH2 0x100 EXP SWAP1 DIV PUSH20 0xFFFFFFFFFFFFFFFFFFFFFFFFFFFFFFFFFFFFFFFF AND DUP2 JUMP JUMPDEST PUSH1 0x0 DUP2 PUSH20 0xFFFFFFFFFFFFFFFFFFFFFFFFFFFFFFFFFFFFFFFF AND PUSH1 0x1 PUSH1 0x0 SWAP1 SLOAD SWAP1 PUSH2 0x100 EXP SWAP1 DIV PUSH20 0xFFFFFFFFFFFFFFFFFFFFFFFFFFFFFFFFFFFFFFFF AND PUSH20 0xFFFFFFFFFFFFFFFFFFFFFFFFFFFFFFFFFFFFFFFF AND EQ SWAP1 POP SWAP2 SWAP1 POP JUMP JUMPDEST PUSH2 0xE86 DUP4 PUSH2 0x197A JUMP JUMPDEST PUSH2 0xEC5 JUMPI PUSH1 0x40 MLOAD PUSH32 0x8C379A000000000000000000000000000000000000000000000000000000000 DUP2 MSTORE PUSH1 0x4 ADD PUSH2 0xEBC SWAP1 PUSH2 0x5043 JUMP JUMPDEST PUSH1 0x40 MLOAD DUP1 SWAP2 SUB SWAP1 REVERT JUMPDEST PUSH1 0x1 PUSH1 0x8 PUSH1 0x0 DUP6 PUSH20 0xFFFFFFFFFFFFFFFFFFFFFFFFFFFFFFFFFFFFFFFF AND PUSH20 0xFFFFFFFFFFFFFFFFFFFFFFFFFFFFFFFFFFFFFFFF AND DUP2 MSTORE PUSH1 0x20 ADD SWAP1 DUP2 MSTORE PUSH1 0x20 ADD PUSH1 0x0 KECCAK256 PUSH1 0x0 ADD PUSH1 0x0 PUSH2 0x100 EXP DUP2 SLOAD DUP2 PUSH1 0xFF MUL NOT AND SWAP1 DUP4 ISZERO ISZERO MUL OR SWAP1 SSTORE POP DUP2 PUSH1 0x8 PUSH1 0x0 DUP6 PUSH20 0xFFFFFFFFFFFFFFFFFFFFFFFFFFFFFFFFFFFFFFFF AND PUSH20 0xFFFFFFFFFFFFFFFFFFFFFFFFFFFFFFFFFFFFFFFF AND DUP2 MSTORE PUSH1 0x20 ADD SWAP1 DUP2 MSTORE PUSH1 0x20 ADD PUSH1 0x0 KECCAK256 PUSH1 0x1 ADD SWAP1 DUP1 MLOAD SWAP1 PUSH1 0x20 ADD SWAP1 PUSH2 0xF76 SWAP3 SWAP2 SWAP1 PUSH2 0x3FD7 JUMP JUMPDEST POP DUP1 PUSH1 0x8 PUSH1 0x0 DUP6 PUSH20 0xFFFFFFFFFFFFFFFFFFFFFFFFFFFFFFFFFFFFFFFF AND PUSH20 0xFFFFFFFFFFFFFFFFFFFFFFFFFFFFFFFFFFFFFFFF AND DUP2 MSTORE PUSH1 0x20 ADD SWAP1 DUP2 MSTORE PUSH1 0x20 ADD PUSH1 0x0 KECCAK256 PUSH1 0x2 ADD PUSH1 0x0 PUSH2 0x100 EXP DUP2 SLOAD DUP2 PUSH1 0xFF MUL NOT AND SWAP1 DUP4 PUSH1 0xFF AND MUL OR SWAP1 SSTORE POP POP POP POP JUMP JUMPDEST PUSH2 0xFE0 DUP4 PUSH2 0x1D90 JUMP JUMPDEST ISZERO PUSH2 0x1020 JUMPI PUSH1 0x40 MLOAD PUSH32 0x8C379A000000000000000000000000000000000000000000000000000000000 DUP2 MSTORE PUSH1 0x4 ADD PUSH2 0x1017 SWAP1 PUSH2 0x4FC3 JUMP JUMPDEST PUSH1 0x40 MLOAD DUP1 SWAP2 SUB SWAP1 REVERT JUMPDEST PUSH1 0x1 PUSH1 0x9 PUSH1 0x0 DUP6 PUSH20 0xFFFFFFFFFFFFFFFFFFFFFFFFFFFFFFFFFFFFFFFF AND PUSH20 0xFFFFFFFFFFFFFFFFFFFFFFFFFFFFFFFFFFFFFFFF AND DUP2 MSTORE PUSH1 0x20 ADD SWAP1 DUP2 MSTORE PUSH1 0x20 ADD PUSH1 0x0 KECCAK256 PUSH1 0x0 ADD PUSH1 0x0 PUSH2 0x100 EXP DUP2 SLOAD DUP2 PUSH1 0xFF MUL NOT AND SWAP1 DUP4 ISZERO ISZERO MUL OR SWAP1 SSTORE POP DUP2 PUSH1 0x9 PUSH1 0x0 DUP6 PUSH20 0xFFFFFFFFFFFFFFFFFFFFFFFFFFFFFFFFFFFFFFFF AND PUSH20 0xFFFFFFFFFFFFFFFFFFFFFFFFFFFFFFFFFFFFFFFF AND DUP2 MSTORE PUSH1 0x20 ADD SWAP1 DUP2 MSTORE PUSH1 0x20 ADD PUSH1 0x0 KECCAK256 PUSH1 0x1 ADD SWAP1 DUP1 MLOAD SWAP1 PUSH1 0x20 ADD SWAP1 PUSH2 0x10D1 SWAP3 SWAP2 SWAP1 PUSH2 0x3FD7 JUMP JUMPDEST POP DUP1 PUSH1 0x9 PUSH1 0x0 DUP6 PUSH20 0xFFFFFFFFFFFFFFFFFFFFFFFFFFFFFFFFFFFFFFFF AND PUSH20 0xFFFFFFFFFFFFFFFFFFFFFFFFFFFFFFFFFFFFFFFF AND DUP2 MSTORE PUSH1 0x20 ADD SWAP1 DUP2 MSTORE PUSH1 0x20 ADD PUSH1 0x0 KECCAK256 PUSH1 0x2 ADD PUSH1 0x0 PUSH2 0x100 EXP DUP2 SLOAD DUP2 PUSH1 0xFF MUL NOT AND SWAP1 DUP4 PUSH1 0xFF AND MUL OR SWAP1 SSTORE POP PUSH1 0x11 DUP4 SWAP1 DUP1 PUSH1 0x1 DUP2 SLOAD ADD DUP1 DUP3 SSTORE DUP1 SWAP2 POP POP PUSH1 0x1 SWAP1 SUB SWAP1 PUSH1 0x0 MSTORE PUSH1 0x20 PUSH1 0x0 KECCAK256 ADD PUSH1 0x0 SWAP1 SWAP2 SWAP1 SWAP2 SWAP1 SWAP2 PUSH2 0x100 EXP DUP2 SLOAD DUP2 PUSH20 0xFFFFFFFFFFFFFFFFFFFFFFFFFFFFFFFFFFFFFFFF MUL NOT AND SWAP1 DUP4 PUSH20 0xFFFFFFFFFFFFFFFFFFFFFFFFFFFFFFFFFFFFFFFF AND MUL OR SWAP1 SSTORE POP POP POP POP JUMP JUMPDEST PUSH1 0x7 PUSH1 0x20 MSTORE DUP1 PUSH1 0x0 MSTORE PUSH1 0x40 PUSH1 0x0 KECCAK256 PUSH1 0x0 SWAP2 POP SWAP1 POP DUP1 PUSH1 0x0 ADD PUSH1 0x0 SWAP1 SLOAD SWAP1 PUSH2 0x100 EXP SWAP1 DIV PUSH1 0xFF AND SWAP1 DUP1 PUSH1 0x1 ADD DUP1 SLOAD PUSH2 0x11CB SWAP1 PUSH2 0x5386 JUMP JUMPDEST DUP1 PUSH1 0x1F ADD PUSH1 0x20 DUP1 SWAP2 DIV MUL PUSH1 0x20 ADD PUSH1 0x40 MLOAD SWAP1 DUP2 ADD PUSH1 0x40 MSTORE DUP1 SWAP3 SWAP2 SWAP1 DUP2 DUP2 MSTORE PUSH1 0x20 ADD DUP3 DUP1 SLOAD PUSH2 0x11F7 SWAP1 PUSH2 0x5386 JUMP JUMPDEST DUP1 ISZERO PUSH2 0x1244 JUMPI DUP1 PUSH1 0x1F LT PUSH2 0x1219 JUMPI PUSH2 0x100 DUP1 DUP4 SLOAD DIV MUL DUP4 MSTORE SWAP2 PUSH1 0x20 ADD SWAP2 PUSH2 0x1244 JUMP JUMPDEST DUP3 ADD SWAP2 SWAP1 PUSH1 0x0 MSTORE PUSH1 0x20 PUSH1 0x0 KECCAK256 SWAP1 JUMPDEST DUP2 SLOAD DUP2 MSTORE SWAP1 PUSH1 0x1 ADD SWAP1 PUSH1 0x20 ADD DUP1 DUP4 GT PUSH2 0x1227 JUMPI DUP3 SWAP1 SUB PUSH1 0x1F AND DUP3 ADD SWAP2 JUMPDEST POP POP POP POP POP SWAP1 DUP1 PUSH1 0x2 ADD PUSH1 0x0 SWAP1 SLOAD SWAP1 PUSH2 0x100 EXP SWAP1 DIV PUSH1 0xFF AND SWAP1 POP DUP4 JUMP JUMPDEST PUSH2 0x126A DUP2 PUSH2 0x1439 JUMP JUMPDEST PUSH2 0x12A9 JUMPI PUSH1 0x40 MLOAD PUSH32 0x8C379A000000000000000000000000000000000000000000000000000000000 DUP2 MSTORE PUSH1 0x4 ADD PUSH2 0x12A0 SWAP1 PUSH2 0x5063 JUMP JUMPDEST PUSH1 0x40 MLOAD DUP1 SWAP2 SUB SWAP1 REVERT JUMPDEST PUSH1 0x6 PUSH1 0x0 DUP3 PUSH20 0xFFFFFFFFFFFFFFFFFFFFFFFFFFFFFFFFFFFFFFFF AND PUSH20 0xFFFFFFFFFFFFFFFFFFFFFFFFFFFFFFFFFFFFFFFF AND DUP2 MSTORE PUSH1 0x20 ADD SWAP1 DUP2 MSTORE PUSH1 0x20 ADD PUSH1 0x0 KECCAK256 PUSH1 0x0 DUP1 DUP3 ADD PUSH1 0x0 PUSH2 0x100 EXP DUP2 SLOAD SWAP1 PUSH1 0xFF MUL NOT AND SWAP1 SSTORE PUSH1 0x0 DUP3 ADD PUSH1 0x1 PUSH2 0x100 EXP DUP2 SLOAD SWAP1 PUSH1 0xFF MUL NOT AND SWAP1 SSTORE PUSH1 0x1 DUP3 ADD PUSH1 0x0 SWAP1 SSTORE PUSH1 0x2 DUP3 ADD PUSH1 0x0 PUSH2 0x1329 SWAP2 SWAP1 PUSH2 0x405D JUMP JUMPDEST POP POP POP JUMP JUMPDEST PUSH1 0xD DUP2 DUP2 SLOAD DUP2 LT PUSH2 0x133E JUMPI PUSH1 0x0 DUP1 REVERT JUMPDEST SWAP1 PUSH1 0x0 MSTORE PUSH1 0x20 PUSH1 0x0 KECCAK256 ADD PUSH1 0x0 SWAP2 POP SLOAD SWAP1 PUSH2 0x100 EXP SWAP1 DIV PUSH20 0xFFFFFFFFFFFFFFFFFFFFFFFFFFFFFFFFFFFFFFFF AND DUP2 JUMP JUMPDEST PUSH1 0x4 PUSH1 0x20 MSTORE DUP1 PUSH1 0x0 MSTORE PUSH1 0x40 PUSH1 0x0 KECCAK256 PUSH1 0x0 SWAP2 POP SWAP1 POP DUP1 PUSH1 0x0 ADD PUSH1 0x0 SWAP1 SLOAD SWAP1 PUSH2 0x100 EXP SWAP1 DIV PUSH1 0xFF AND SWAP1 DUP1 PUSH1 0x1 ADD DUP1 SLOAD PUSH2 0x13A3 SWAP1 PUSH2 0x5386 JUMP JUMPDEST DUP1 PUSH1 0x1F ADD PUSH1 0x20 DUP1 SWAP2 DIV MUL PUSH1 0x20 ADD PUSH1 0x40 MLOAD SWAP1 DUP2 ADD PUSH1 0x40 MSTORE DUP1 SWAP3 SWAP2 SWAP1 DUP2 DUP2 MSTORE PUSH1 0x20 ADD DUP3 DUP1 SLOAD PUSH2 0x13CF SWAP1 PUSH2 0x5386 JUMP JUMPDEST DUP1 ISZERO PUSH2 0x141C JUMPI DUP1 PUSH1 0x1F LT PUSH2 0x13F1 JUMPI PUSH2 0x100 DUP1 DUP4 SLOAD DIV MUL DUP4 MSTORE SWAP2 PUSH1 0x20 ADD SWAP2 PUSH2 0x141C JUMP JUMPDEST DUP3 ADD SWAP2 SWAP1 PUSH1 0x0 MSTORE PUSH1 0x20 PUSH1 0x0 KECCAK256 SWAP1 JUMPDEST DUP2 SLOAD DUP2 MSTORE SWAP1 PUSH1 0x1 ADD SWAP1 PUSH1 0x20 ADD DUP1 DUP4 GT PUSH2 0x13FF JUMPI DUP3 SWAP1 SUB PUSH1 0x1F AND DUP3 ADD SWAP2 JUMPDEST POP POP POP POP POP SWAP1 DUP1 PUSH1 0x2 ADD PUSH1 0x0 SWAP1 SLOAD SWAP1 PUSH2 0x100 EXP SWAP1 DIV PUSH1 0xFF AND SWAP1 POP DUP4 JUMP JUMPDEST PUSH1 0x0 PUSH1 0x6 PUSH1 0x0 DUP4 PUSH20 0xFFFFFFFFFFFFFFFFFFFFFFFFFFFFFFFFFFFFFFFF AND PUSH20 0xFFFFFFFFFFFFFFFFFFFFFFFFFFFFFFFFFFFFFFFF AND DUP2 MSTORE PUSH1 0x20 ADD SWAP1 DUP2 MSTORE PUSH1 0x20 ADD PUSH1 0x0 KECCAK256 PUSH1 0x0 ADD PUSH1 0x0 SWAP1 SLOAD SWAP1 PUSH2 0x100 EXP SWAP1 DIV PUSH1 0xFF AND SWAP1 POP SWAP2 SWAP1 POP JUMP JUMPDEST PUSH1 0xA PUSH1 0x20 MSTORE DUP1 PUSH1 0x0 MSTORE PUSH1 0x40 PUSH1 0x0 KECCAK256 PUSH1 0x0 SWAP2 POP SWAP1 POP DUP1 PUSH1 0x0 ADD PUSH1 0x0 SWAP1 SLOAD SWAP1 PUSH2 0x100 EXP SWAP1 DIV PUSH1 0xFF AND SWAP1 DUP1 PUSH1 0x1 ADD DUP1 SLOAD PUSH2 0x14C8 SWAP1 PUSH2 0x5386 JUMP JUMPDEST DUP1 PUSH1 0x1F ADD PUSH1 0x20 DUP1 SWAP2 DIV MUL PUSH1 0x20 ADD PUSH1 0x40 MLOAD SWAP1 DUP2 ADD PUSH1 0x40 MSTORE DUP1 SWAP3 SWAP2 SWAP1 DUP2 DUP2 MSTORE PUSH1 0x20 ADD DUP3 DUP1 SLOAD PUSH2 0x14F4 SWAP1 PUSH2 0x5386 JUMP JUMPDEST DUP1 ISZERO PUSH2 0x1541 JUMPI DUP1 PUSH1 0x1F LT PUSH2 0x1516 JUMPI PUSH2 0x100 DUP1 DUP4 SLOAD DIV MUL DUP4 MSTORE SWAP2 PUSH1 0x20 ADD SWAP2 PUSH2 0x1541 JUMP JUMPDEST DUP3 ADD SWAP2 SWAP1 PUSH1 0x0 MSTORE PUSH1 0x20 PUSH1 0x0 KECCAK256 SWAP1 JUMPDEST DUP2 SLOAD DUP2 MSTORE SWAP1 PUSH1 0x1 ADD SWAP1 PUSH1 0x20 ADD DUP1 DUP4 GT PUSH2 0x1524 JUMPI DUP3 SWAP1 SUB PUSH1 0x1F AND DUP3 ADD SWAP2 JUMPDEST POP POP POP POP POP SWAP1 DUP1 PUSH1 0x2 ADD PUSH1 0x0 SWAP1 SLOAD SWAP1 PUSH2 0x100 EXP SWAP1 DIV PUSH1 0xFF AND SWAP1 POP DUP4 JUMP JUMPDEST DUP3 PUSH1 0x0 DUP1 PUSH2 0x100 EXP DUP2 SLOAD DUP2 PUSH20 0xFFFFFFFFFFFFFFFFFFFFFFFFFFFFFFFFFFFFFFFF MUL NOT AND SWAP1 DUP4 PUSH20 0xFFFFFFFFFFFFFFFFFFFFFFFFFFFFFFFFFFFFFFFF AND MUL OR SWAP1 SSTORE POP DUP2 PUSH1 0x1 PUSH1 0x0 PUSH2 0x100 EXP DUP2 SLOAD DUP2 PUSH20 0xFFFFFFFFFFFFFFFFFFFFFFFFFFFFFFFFFFFFFFFF MUL NOT AND SWAP1 DUP4 PUSH20 0xFFFFFFFFFFFFFFFFFFFFFFFFFFFFFFFFFFFFFFFF AND MUL OR SWAP1 SSTORE POP DUP1 PUSH1 0x2 PUSH1 0x0 PUSH2 0x100 EXP DUP2 SLOAD DUP2 PUSH20 0xFFFFFFFFFFFFFFFFFFFFFFFFFFFFFFFFFFFFFFFF MUL NOT AND SWAP1 DUP4 PUSH20 0xFFFFFFFFFFFFFFFFFFFFFFFFFFFFFFFFFFFFFFFF AND MUL OR SWAP1 SSTORE POP POP POP POP JUMP JUMPDEST PUSH1 0x6 PUSH1 0x20 MSTORE DUP1 PUSH1 0x0 MSTORE PUSH1 0x40 PUSH1 0x0 KECCAK256 PUSH1 0x0 SWAP2 POP SWAP1 POP DUP1 PUSH1 0x0 ADD PUSH1 0x0 SWAP1 SLOAD SWAP1 PUSH2 0x100 EXP SWAP1 DIV PUSH1 0xFF AND SWAP1 DUP1 PUSH1 0x0 ADD PUSH1 0x1 SWAP1 SLOAD SWAP1 PUSH2 0x100 EXP SWAP1 DIV PUSH1 0xFF AND SWAP1 DUP1 PUSH1 0x1 ADD SLOAD SWAP1 DUP1 PUSH1 0x2 ADD DUP1 SLOAD PUSH2 0x1674 SWAP1 PUSH2 0x5386 JUMP JUMPDEST DUP1 PUSH1 0x1F ADD PUSH1 0x20 DUP1 SWAP2 DIV MUL PUSH1 0x20 ADD PUSH1 0x40 MLOAD SWAP1 DUP2 ADD PUSH1 0x40 MSTORE DUP1 SWAP3 SWAP2 SWAP1 DUP2 DUP2 MSTORE PUSH1 0x20 ADD DUP3 DUP1 SLOAD PUSH2 0x16A0 SWAP1 PUSH2 0x5386 JUMP JUMPDEST DUP1 ISZERO PUSH2 0x16ED JUMPI DUP1 PUSH1 0x1F LT PUSH2 0x16C2 JUMPI PUSH2 0x100 DUP1 DUP4 SLOAD DIV MUL DUP4 MSTORE SWAP2 PUSH1 0x20 ADD SWAP2 PUSH2 0x16ED JUMP JUMPDEST DUP3 ADD SWAP2 SWAP1 PUSH1 0x0 MSTORE PUSH1 0x20 PUSH1 0x0 KECCAK256 SWAP1 JUMPDEST DUP2 SLOAD DUP2 MSTORE SWAP1 PUSH1 0x1 ADD SWAP1 PUSH1 0x20 ADD DUP1 DUP4 GT PUSH2 0x16D0 JUMPI DUP3 SWAP1 SUB PUSH1 0x1F AND DUP3 ADD SWAP2 JUMPDEST POP POP POP POP POP SWAP1 POP DUP5 JUMP JUMPDEST PUSH2 0x1700 DUP4 PUSH2 0xD4C JUMP JUMPDEST ISZERO PUSH2 0x1740 JUMPI PUSH1 0x40 MLOAD PUSH32 0x8C379A000000000000000000000000000000000000000000000000000000000 DUP2 MSTORE PUSH1 0x4 ADD PUSH2 0x1737 SWAP1 PUSH2 0x4EC3 JUMP JUMPDEST PUSH1 0x40 MLOAD DUP1 SWAP2 SUB SWAP1 REVERT JUMPDEST PUSH1 0x1 PUSH1 0x7 PUSH1 0x0 DUP6 PUSH20 0xFFFFFFFFFFFFFFFFFFFFFFFFFFFFFFFFFFFFFFFF AND PUSH20 0xFFFFFFFFFFFFFFFFFFFFFFFFFFFFFFFFFFFFFFFF AND DUP2 MSTORE PUSH1 0x20 ADD SWAP1 DUP2 MSTORE PUSH1 0x20 ADD PUSH1 0x0 KECCAK256 PUSH1 0x0 ADD PUSH1 0x0 PUSH2 0x100 EXP DUP2 SLOAD DUP2 PUSH1 0xFF MUL NOT AND SWAP1 DUP4 ISZERO ISZERO MUL OR SWAP1 SSTORE POP DUP2 PUSH1 0x7 PUSH1 0x0 DUP6 PUSH20 0xFFFFFFFFFFFFFFFFFFFFFFFFFFFFFFFFFFFFFFFF AND PUSH20 0xFFFFFFFFFFFFFFFFFFFFFFFFFFFFFFFFFFFFFFFF AND DUP2 MSTORE PUSH1 0x20 ADD SWAP1 DUP2 MSTORE PUSH1 0x20 ADD PUSH1 0x0 KECCAK256 PUSH1 0x1 ADD SWAP1 DUP1 MLOAD SWAP1 PUSH1 0x20 ADD SWAP1 PUSH2 0x17F1 SWAP3 SWAP2 SWAP1 PUSH2 0x3FD7 JUMP JUMPDEST POP DUP1 PUSH1 0x7 PUSH1 0x0 DUP6 PUSH20 0xFFFFFFFFFFFFFFFFFFFFFFFFFFFFFFFFFFFFFFFF AND PUSH20 0xFFFFFFFFFFFFFFFFFFFFFFFFFFFFFFFFFFFFFFFF AND DUP2 MSTORE PUSH1 0x20 ADD SWAP1 DUP2 MSTORE PUSH1 0x20 ADD PUSH1 0x0 KECCAK256 PUSH1 0x2 ADD PUSH1 0x0 PUSH2 0x100 EXP DUP2 SLOAD DUP2 PUSH1 0xFF MUL NOT AND SWAP1 DUP4 PUSH1 0xFF AND MUL OR SWAP1 SSTORE POP PUSH1 0xF DUP4 SWAP1 DUP1 PUSH1 0x1 DUP2 SLOAD ADD DUP1 DUP3 SSTORE DUP1 SWAP2 POP POP PUSH1 0x1 SWAP1 SUB SWAP1 PUSH1 0x0 MSTORE PUSH1 0x20 PUSH1 0x0 KECCAK256 ADD PUSH1 0x0 SWAP1 SWAP2 SWAP1 SWAP2 SWAP1 SWAP2 PUSH2 0x100 EXP DUP2 SLOAD DUP2 PUSH20 0xFFFFFFFFFFFFFFFFFFFFFFFFFFFFFFFFFFFFFFFF MUL NOT AND SWAP1 DUP4 PUSH20 0xFFFFFFFFFFFFFFFFFFFFFFFFFFFFFFFFFFFFFFFF AND MUL OR SWAP1 SSTORE POP POP POP POP JUMP JUMPDEST PUSH2 0x18BE DUP2 PUSH2 0x197A JUMP JUMPDEST PUSH2 0x18FD JUMPI PUSH1 0x40 MLOAD PUSH32 0x8C379A000000000000000000000000000000000000000000000000000000000 DUP2 MSTORE PUSH1 0x4 ADD PUSH2 0x18F4 SWAP1 PUSH2 0x5043 JUMP JUMPDEST PUSH1 0x40 MLOAD DUP1 SWAP2 SUB SWAP1 REVERT JUMPDEST PUSH1 0x8 PUSH1 0x0 DUP3 PUSH20 0xFFFFFFFFFFFFFFFFFFFFFFFFFFFFFFFFFFFFFFFF AND PUSH20 0xFFFFFFFFFFFFFFFFFFFFFFFFFFFFFFFFFFFFFFFF AND DUP2 MSTORE PUSH1 0x20 ADD SWAP1 DUP2 MSTORE PUSH1 0x20 ADD PUSH1 0x0 KECCAK256 PUSH1 0x0 DUP1 DUP3 ADD PUSH1 0x0 PUSH2 0x100 EXP DUP2 SLOAD SWAP1 PUSH1 0xFF MUL NOT AND SWAP1 SSTORE PUSH1 0x1 DUP3 ADD PUSH1 0x0 PUSH2 0x1961 SWAP2 SWAP1 PUSH2 0x405D JUMP JUMPDEST PUSH1 0x2 DUP3 ADD PUSH1 0x0 PUSH2 0x100 EXP DUP2 SLOAD SWAP1 PUSH1 0xFF MUL NOT AND SWAP1 SSTORE POP POP POP JUMP JUMPDEST PUSH1 0x0 PUSH1 0x8 PUSH1 0x0 DUP4 PUSH20 0xFFFFFFFFFFFFFFFFFFFFFFFFFFFFFFFFFFFFFFFF AND PUSH20 0xFFFFFFFFFFFFFFFFFFFFFFFFFFFFFFFFFFFFFFFF AND DUP2 MSTORE PUSH1 0x20 ADD SWAP1 DUP2 MSTORE PUSH1 0x20 ADD PUSH1 0x0 KECCAK256 PUSH1 0x0 ADD PUSH1 0x0 SWAP1 SLOAD SWAP1 PUSH2 0x100 EXP SWAP1 DIV PUSH1 0xFF AND SWAP1 POP SWAP2 SWAP1 POP JUMP JUMPDEST PUSH2 0x19DC DUP2 PUSH2 0x38D7 JUMP JUMPDEST PUSH2 0x1A1B JUMPI PUSH1 0x40 MLOAD PUSH32 0x8C379A000000000000000000000000000000000000000000000000000000000 DUP2 MSTORE PUSH1 0x4 ADD PUSH2 0x1A12 SWAP1 PUSH2 0x5003 JUMP JUMPDEST PUSH1 0x40 MLOAD DUP1 SWAP2 SUB SWAP1 REVERT JUMPDEST PUSH1 0xA PUSH1 0x0 DUP3 PUSH20 0xFFFFFFFFFFFFFFFFFFFFFFFFFFFFFFFFFFFFFFFF AND PUSH20 0xFFFFFFFFFFFFFFFFFFFFFFFFFFFFFFFFFFFFFFFF AND DUP2 MSTORE PUSH1 0x20 ADD SWAP1 DUP2 MSTORE PUSH1 0x20 ADD PUSH1 0x0 KECCAK256 PUSH1 0x0 DUP1 DUP3 ADD PUSH1 0x0 PUSH2 0x100 EXP DUP2 SLOAD SWAP1 PUSH1 0xFF MUL NOT AND SWAP1 SSTORE PUSH1 0x1 DUP3 ADD PUSH1 0x0 PUSH2 0x1A7F SWAP2 SWAP1 PUSH2 0x405D JUMP JUMPDEST PUSH1 0x2 DUP3 ADD PUSH1 0x0 PUSH2 0x100 EXP DUP2 SLOAD SWAP1 PUSH1 0xFF MUL NOT AND SWAP1 SSTORE POP POP POP JUMP JUMPDEST PUSH1 0x0 DUP1 SLOAD SWAP1 PUSH2 0x100 EXP SWAP1 DIV PUSH20 0xFFFFFFFFFFFFFFFFFFFFFFFFFFFFFFFFFFFFFFFF AND DUP2 JUMP JUMPDEST PUSH1 0x8 PUSH1 0x20 MSTORE DUP1 PUSH1 0x0 MSTORE PUSH1 0x40 PUSH1 0x0 KECCAK256 PUSH1 0x0 SWAP2 POP SWAP1 POP DUP1 PUSH1 0x0 ADD PUSH1 0x0 SWAP1 SLOAD SWAP1 PUSH2 0x100 EXP SWAP1 DIV PUSH1 0xFF AND SWAP1 DUP1 PUSH1 0x1 ADD DUP1 SLOAD PUSH2 0x1AF2 SWAP1 PUSH2 0x5386 JUMP JUMPDEST DUP1 PUSH1 0x1F ADD PUSH1 0x20 DUP1 SWAP2 DIV MUL PUSH1 0x20 ADD PUSH1 0x40 MLOAD SWAP1 DUP2 ADD PUSH1 0x40 MSTORE DUP1 SWAP3 SWAP2 SWAP1 DUP2 DUP2 MSTORE PUSH1 0x20 ADD DUP3 DUP1 SLOAD PUSH2 0x1B1E SWAP1 PUSH2 0x5386 JUMP JUMPDEST DUP1 ISZERO PUSH2 0x1B6B JUMPI DUP1 PUSH1 0x1F LT PUSH2 0x1B40 JUMPI PUSH2 0x100 DUP1 DUP4 SLOAD DIV MUL DUP4 MSTORE SWAP2 PUSH1 0x20 ADD SWAP2 PUSH2 0x1B6B JUMP JUMPDEST DUP3 ADD SWAP2 SWAP1 PUSH1 0x0 MSTORE PUSH1 0x20 PUSH1 0x0 KECCAK256 SWAP1 JUMPDEST DUP2 SLOAD DUP2 MSTORE SWAP1 PUSH1 0x1 ADD SWAP1 PUSH1 0x20 ADD DUP1 DUP4 GT PUSH2 0x1B4E JUMPI DUP3 SWAP1 SUB PUSH1 0x1F AND DUP3 ADD SWAP2 JUMPDEST POP POP POP POP POP SWAP1 DUP1 PUSH1 0x2 ADD PUSH1 0x0 SWAP1 SLOAD SWAP1 PUSH2 0x100 EXP SWAP1 DIV PUSH1 0xFF AND SWAP1 POP DUP4 JUMP JUMPDEST PUSH1 0x60 PUSH1 0x0 PUSH1 0xD DUP1 SLOAD SWAP1 POP PUSH8 0xFFFFFFFFFFFFFFFF DUP2 GT ISZERO PUSH2 0x1BAB JUMPI PUSH2 0x1BAA PUSH2 0x54EE JUMP JUMPDEST JUMPDEST PUSH1 0x40 MLOAD SWAP1 DUP1 DUP3 MSTORE DUP1 PUSH1 0x20 MUL PUSH1 0x20 ADD DUP3 ADD PUSH1 0x40 MSTORE DUP1 ISZERO PUSH2 0x1BE4 JUMPI DUP2 PUSH1 0x20 ADD JUMPDEST PUSH2 0x1BD1 PUSH2 0x409D JUMP JUMPDEST DUP2 MSTORE PUSH1 0x20 ADD SWAP1 PUSH1 0x1 SWAP1 SUB SWAP1 DUP2 PUSH2 0x1BC9 JUMPI SWAP1 POP JUMPDEST POP SWAP1 POP PUSH1 0x0 DUP1 JUMPDEST PUSH1 0xD DUP1 SLOAD SWAP1 POP DUP2 LT ISZERO PUSH2 0x1D87 JUMPI PUSH1 0x4 PUSH1 0x0 PUSH1 0xD DUP4 DUP2 SLOAD DUP2 LT PUSH2 0x1C10 JUMPI PUSH2 0x1C0F PUSH2 0x54BF JUMP JUMPDEST JUMPDEST SWAP1 PUSH1 0x0 MSTORE PUSH1 0x20 PUSH1 0x0 KECCAK256 ADD PUSH1 0x0 SWAP1 SLOAD SWAP1 PUSH2 0x100 EXP SWAP1 DIV PUSH20 0xFFFFFFFFFFFFFFFFFFFFFFFFFFFFFFFFFFFFFFFF AND PUSH20 0xFFFFFFFFFFFFFFFFFFFFFFFFFFFFFFFFFFFFFFFF AND PUSH20 0xFFFFFFFFFFFFFFFFFFFFFFFFFFFFFFFFFFFFFFFF AND DUP2 MSTORE PUSH1 0x20 ADD SWAP1 DUP2 MSTORE PUSH1 0x20 ADD PUSH1 0x0 KECCAK256 PUSH1 0x40 MLOAD DUP1 PUSH1 0x60 ADD PUSH1 0x40 MSTORE SWAP1 DUP2 PUSH1 0x0 DUP3 ADD PUSH1 0x0 SWAP1 SLOAD SWAP1 PUSH2 0x100 EXP SWAP1 DIV PUSH1 0xFF AND ISZERO ISZERO ISZERO ISZERO DUP2 MSTORE PUSH1 0x20 ADD PUSH1 0x1 DUP3 ADD DUP1 SLOAD PUSH2 0x1CAB SWAP1 PUSH2 0x5386 JUMP JUMPDEST DUP1 PUSH1 0x1F ADD PUSH1 0x20 DUP1 SWAP2 DIV MUL PUSH1 0x20 ADD PUSH1 0x40 MLOAD SWAP1 DUP2 ADD PUSH1 0x40 MSTORE DUP1 SWAP3 SWAP2 SWAP1 DUP2 DUP2 MSTORE PUSH1 0x20 ADD DUP3 DUP1 SLOAD PUSH2 0x1CD7 SWAP1 PUSH2 0x5386 JUMP JUMPDEST DUP1 ISZERO PUSH2 0x1D24 JUMPI DUP1 PUSH1 0x1F LT PUSH2 0x1CF9 JUMPI PUSH2 0x100 DUP1 DUP4 SLOAD DIV MUL DUP4 MSTORE SWAP2 PUSH1 0x20 ADD SWAP2 PUSH2 0x1D24 JUMP JUMPDEST DUP3 ADD SWAP2 SWAP1 PUSH1 0x0 MSTORE PUSH1 0x20 PUSH1 0x0 KECCAK256 SWAP1 JUMPDEST DUP2 SLOAD DUP2 MSTORE SWAP1 PUSH1 0x1 ADD SWAP1 PUSH1 0x20 ADD DUP1 DUP4 GT PUSH2 0x1D07 JUMPI DUP3 SWAP1 SUB PUSH1 0x1F AND DUP3 ADD SWAP2 JUMPDEST POP POP POP POP POP DUP2 MSTORE PUSH1 0x20 ADD PUSH1 0x2 DUP3 ADD PUSH1 0x0 SWAP1 SLOAD SWAP1 PUSH2 0x100 EXP SWAP1 DIV PUSH1 0xFF AND PUSH1 0xFF AND PUSH1 0xFF AND DUP2 MSTORE POP POP DUP4 DUP4 DUP1 PUSH2 0x1D56 SWAP1 PUSH2 0x53E9 JUMP JUMPDEST SWAP5 POP DUP2 MLOAD DUP2 LT PUSH2 0x1D69 JUMPI PUSH2 0x1D68 PUSH2 0x54BF JUMP JUMPDEST JUMPDEST PUSH1 0x20 MUL PUSH1 0x20 ADD ADD DUP2 SWAP1 MSTORE POP DUP1 DUP1 PUSH2 0x1D7F SWAP1 PUSH2 0x53E9 JUMP JUMPDEST SWAP2 POP POP PUSH2 0x1BEB JUMP JUMPDEST POP DUP2 SWAP3 POP POP POP SWAP1 JUMP JUMPDEST PUSH1 0x0 PUSH1 0x9 PUSH1 0x0 DUP4 PUSH20 0xFFFFFFFFFFFFFFFFFFFFFFFFFFFFFFFFFFFFFFFF AND PUSH20 0xFFFFFFFFFFFFFFFFFFFFFFFFFFFFFFFFFFFFFFFF AND DUP2 MSTORE PUSH1 0x20 ADD SWAP1 DUP2 MSTORE PUSH1 0x20 ADD PUSH1 0x0 KECCAK256 PUSH1 0x0 ADD PUSH1 0x0 SWAP1 SLOAD SWAP1 PUSH2 0x100 EXP SWAP1 DIV PUSH1 0xFF AND SWAP1 POP SWAP2 SWAP1 POP JUMP JUMPDEST PUSH2 0x1DF2 DUP4 PUSH2 0x1D90 JUMP JUMPDEST PUSH2 0x1E31 JUMPI PUSH1 0x40 MLOAD PUSH32 0x8C379A000000000000000000000000000000000000000000000000000000000 DUP2 MSTORE PUSH1 0x4 ADD PUSH2 0x1E28 SWAP1 PUSH2 0x4FA3 JUMP JUMPDEST PUSH1 0x40 MLOAD DUP1 SWAP2 SUB SWAP1 REVERT JUMPDEST PUSH1 0x1 PUSH1 0x9 PUSH1 0x0 DUP6 PUSH20 0xFFFFFFFFFFFFFFFFFFFFFFFFFFFFFFFFFFFFFFFF AND PUSH20 0xFFFFFFFFFFFFFFFFFFFFFFFFFFFFFFFFFFFFFFFF AND DUP2 MSTORE PUSH1 0x20 ADD SWAP1 DUP2 MSTORE PUSH1 0x20 ADD PUSH1 0x0 KECCAK256 PUSH1 0x0 ADD PUSH1 0x0 PUSH2 0x100 EXP DUP2 SLOAD DUP2 PUSH1 0xFF MUL NOT AND SWAP1 DUP4 ISZERO ISZERO MUL OR SWAP1 SSTORE POP DUP2 PUSH1 0x9 PUSH1 0x0 DUP6 PUSH20 0xFFFFFFFFFFFFFFFFFFFFFFFFFFFFFFFFFFFFFFFF AND PUSH20 0xFFFFFFFFFFFFFFFFFFFFFFFFFFFFFFFFFFFFFFFF AND DUP2 MSTORE PUSH1 0x20 ADD SWAP1 DUP2 MSTORE PUSH1 0x20 ADD PUSH1 0x0 KECCAK256 PUSH1 0x1 ADD SWAP1 DUP1 MLOAD SWAP1 PUSH1 0x20 ADD SWAP1 PUSH2 0x1EE2 SWAP3 SWAP2 SWAP1 PUSH2 0x3FD7 JUMP JUMPDEST POP DUP1 PUSH1 0x9 PUSH1 0x0 DUP6 PUSH20 0xFFFFFFFFFFFFFFFFFFFFFFFFFFFFFFFFFFFFFFFF AND PUSH20 0xFFFFFFFFFFFFFFFFFFFFFFFFFFFFFFFFFFFFFFFF AND DUP2 MSTORE PUSH1 0x20 ADD SWAP1 DUP2 MSTORE PUSH1 0x20 ADD PUSH1 0x0 KECCAK256 PUSH1 0x2 ADD PUSH1 0x0 PUSH2 0x100 EXP DUP2 SLOAD DUP2 PUSH1 0xFF MUL NOT AND SWAP1 DUP4 PUSH1 0xFF AND MUL OR SWAP1 SSTORE POP POP POP POP JUMP JUMPDEST PUSH1 0x9 PUSH1 0x20 MSTORE DUP1 PUSH1 0x0 MSTORE PUSH1 0x40 PUSH1 0x0 KECCAK256 PUSH1 0x0 SWAP2 POP SWAP1 POP DUP1 PUSH1 0x0 ADD PUSH1 0x0 SWAP1 SLOAD SWAP1 PUSH2 0x100 EXP SWAP1 DIV PUSH1 0xFF AND SWAP1 DUP1 PUSH1 0x1 ADD DUP1 SLOAD PUSH2 0x1F79 SWAP1 PUSH2 0x5386 JUMP JUMPDEST DUP1 PUSH1 0x1F ADD PUSH1 0x20 DUP1 SWAP2 DIV MUL PUSH1 0x20 ADD PUSH1 0x40 MLOAD SWAP1 DUP2 ADD PUSH1 0x40 MSTORE DUP1 SWAP3 SWAP2 SWAP1 DUP2 DUP2 MSTORE PUSH1 0x20 ADD DUP3 DUP1 SLOAD PUSH2 0x1FA5 SWAP1 PUSH2 0x5386 JUMP JUMPDEST DUP1 ISZERO PUSH2 0x1FF2 JUMPI DUP1 PUSH1 0x1F LT PUSH2 0x1FC7 JUMPI PUSH2 0x100 DUP1 DUP4 SLOAD DIV MUL DUP4 MSTORE SWAP2 PUSH1 0x20 ADD SWAP2 PUSH2 0x1FF2 JUMP JUMPDEST DUP3 ADD SWAP2 SWAP1 PUSH1 0x0 MSTORE PUSH1 0x20 PUSH1 0x0 KECCAK256 SWAP1 JUMPDEST DUP2 SLOAD DUP2 MSTORE SWAP1 PUSH1 0x1 ADD SWAP1 PUSH1 0x20 ADD DUP1 DUP4 GT PUSH2 0x1FD5 JUMPI DUP3 SWAP1 SUB PUSH1 0x1F AND DUP3 ADD SWAP2 JUMPDEST POP POP POP POP POP SWAP1 DUP1 PUSH1 0x2 ADD PUSH1 0x0 SWAP1 SLOAD SWAP1 PUSH2 0x100 EXP SWAP1 DIV PUSH1 0xFF AND SWAP1 POP DUP4 JUMP JUMPDEST PUSH2 0x2018 DUP2 PUSH2 0x39C9 JUMP JUMPDEST PUSH2 0x2057 JUMPI PUSH1 0x40 MLOAD PUSH32 0x8C379A000000000000000000000000000000000000000000000000000000000 DUP2 MSTORE PUSH1 0x4 ADD PUSH2 0x204E SWAP1 PUSH2 0x4FE3 JUMP JUMPDEST PUSH1 0x40 MLOAD DUP1 SWAP2 SUB SWAP1 REVERT JUMPDEST PUSH1 0x4 PUSH1 0x0 DUP3 PUSH20 0xFFFFFFFFFFFFFFFFFFFFFFFFFFFFFFFFFFFFFFFF AND PUSH20 0xFFFFFFFFFFFFFFFFFFFFFFFFFFFFFFFFFFFFFFFF AND DUP2 MSTORE PUSH1 0x20 ADD SWAP1 DUP2 MSTORE PUSH1 0x20 ADD PUSH1 0x0 KECCAK256 PUSH1 0x0 DUP1 DUP3 ADD PUSH1 0x0 PUSH2 0x100 EXP DUP2 SLOAD SWAP1 PUSH1 0xFF MUL NOT AND SWAP1 SSTORE PUSH1 0x1 DUP3 ADD PUSH1 0x0 PUSH2 0x20BB SWAP2 SWAP1 PUSH2 0x405D JUMP JUMPDEST PUSH1 0x2 DUP3 ADD PUSH1 0x0 PUSH2 0x100 EXP DUP2 SLOAD SWAP1 PUSH1 0xFF MUL NOT AND SWAP1 SSTORE POP POP POP JUMP JUMPDEST PUSH2 0x20DD DUP4 PUSH2 0x38D7 JUMP JUMPDEST ISZERO PUSH2 0x211D JUMPI PUSH1 0x40 MLOAD PUSH32 0x8C379A000000000000000000000000000000000000000000000000000000000 DUP2 MSTORE PUSH1 0x4 ADD PUSH2 0x2114 SWAP1 PUSH2 0x4F83 JUMP JUMPDEST PUSH1 0x40 MLOAD DUP1 SWAP2 SUB SWAP1 REVERT JUMPDEST PUSH1 0x1 PUSH1 0xA PUSH1 0x0 DUP6 PUSH20 0xFFFFFFFFFFFFFFFFFFFFFFFFFFFFFFFFFFFFFFFF AND PUSH20 0xFFFFFFFFFFFFFFFFFFFFFFFFFFFFFFFFFFFFFFFF AND DUP2 MSTORE PUSH1 0x20 ADD SWAP1 DUP2 MSTORE PUSH1 0x20 ADD PUSH1 0x0 KECCAK256 PUSH1 0x0 ADD PUSH1 0x0 PUSH2 0x100 EXP DUP2 SLOAD DUP2 PUSH1 0xFF MUL NOT AND SWAP1 DUP4 ISZERO ISZERO MUL OR SWAP1 SSTORE POP DUP2 PUSH1 0xA PUSH1 0x0 DUP6 PUSH20 0xFFFFFFFFFFFFFFFFFFFFFFFFFFFFFFFFFFFFFFFF AND PUSH20 0xFFFFFFFFFFFFFFFFFFFFFFFFFFFFFFFFFFFFFFFF AND DUP2 MSTORE PUSH1 0x20 ADD SWAP1 DUP2 MSTORE PUSH1 0x20 ADD PUSH1 0x0 KECCAK256 PUSH1 0x1 ADD SWAP1 DUP1 MLOAD SWAP1 PUSH1 0x20 ADD SWAP1 PUSH2 0x21CE SWAP3 SWAP2 SWAP1 PUSH2 0x3FD7 JUMP JUMPDEST POP DUP1 PUSH1 0xA PUSH1 0x0 DUP6 PUSH20 0xFFFFFFFFFFFFFFFFFFFFFFFFFFFFFFFFFFFFFFFF AND PUSH20 0xFFFFFFFFFFFFFFFFFFFFFFFFFFFFFFFFFFFFFFFF AND DUP2 MSTORE PUSH1 0x20 ADD SWAP1 DUP2 MSTORE PUSH1 0x20 ADD PUSH1 0x0 KECCAK256 PUSH1 0x2 ADD PUSH1 0x0 PUSH2 0x100 EXP DUP2 SLOAD DUP2 PUSH1 0xFF MUL NOT AND SWAP1 DUP4 PUSH1 0xFF AND MUL OR SWAP1 SSTORE POP PUSH1 0x12 DUP4 SWAP1 DUP1 PUSH1 0x1 DUP2 SLOAD ADD DUP1 DUP3 SSTORE DUP1 SWAP2 POP POP PUSH1 0x1 SWAP1 SUB SWAP1 PUSH1 0x0 MSTORE PUSH1 0x20 PUSH1 0x0 KECCAK256 ADD PUSH1 0x0 SWAP1 SWAP2 SWAP1 SWAP2 SWAP1 SWAP2 PUSH2 0x100 EXP DUP2 SLOAD DUP2 PUSH20 0xFFFFFFFFFFFFFFFFFFFFFFFFFFFFFFFFFFFFFFFF MUL NOT AND SWAP1 DUP4 PUSH20 0xFFFFFFFFFFFFFFFFFFFFFFFFFFFFFFFFFFFFFFFF AND MUL OR SWAP1 SSTORE POP POP POP POP JUMP JUMPDEST PUSH1 0x60 PUSH1 0x0 PUSH1 0x11 DUP1 SLOAD SWAP1 POP PUSH8 0xFFFFFFFFFFFFFFFF DUP2 GT ISZERO PUSH2 0x22B5 JUMPI PUSH2 0x22B4 PUSH2 0x54EE JUMP JUMPDEST JUMPDEST PUSH1 0x40 MLOAD SWAP1 DUP1 DUP3 MSTORE DUP1 PUSH1 0x20 MUL PUSH1 0x20 ADD DUP3 ADD PUSH1 0x40 MSTORE DUP1 ISZERO PUSH2 0x22EE JUMPI DUP2 PUSH1 0x20 ADD JUMPDEST PUSH2 0x22DB PUSH2 0x40C3 JUMP JUMPDEST DUP2 MSTORE PUSH1 0x20 ADD SWAP1 PUSH1 0x1 SWAP1 SUB SWAP1 DUP2 PUSH2 0x22D3 JUMPI SWAP1 POP JUMPDEST POP SWAP1 POP PUSH1 0x0 DUP1 JUMPDEST PUSH1 0x11 DUP1 SLOAD SWAP1 POP DUP2 LT ISZERO PUSH2 0x2491 JUMPI PUSH1 0x9 PUSH1 0x0 PUSH1 0x11 DUP4 DUP2 SLOAD DUP2 LT PUSH2 0x231A JUMPI PUSH2 0x2319 PUSH2 0x54BF JUMP JUMPDEST JUMPDEST SWAP1 PUSH1 0x0 MSTORE PUSH1 0x20 PUSH1 0x0 KECCAK256 ADD PUSH1 0x0 SWAP1 SLOAD SWAP1 PUSH2 0x100 EXP SWAP1 DIV PUSH20 0xFFFFFFFFFFFFFFFFFFFFFFFFFFFFFFFFFFFFFFFF AND PUSH20 0xFFFFFFFFFFFFFFFFFFFFFFFFFFFFFFFFFFFFFFFF AND PUSH20 0xFFFFFFFFFFFFFFFFFFFFFFFFFFFFFFFFFFFFFFFF AND DUP2 MSTORE PUSH1 0x20 ADD SWAP1 DUP2 MSTORE PUSH1 0x20 ADD PUSH1 0x0 KECCAK256 PUSH1 0x40 MLOAD DUP1 PUSH1 0x60 ADD PUSH1 0x40 MSTORE SWAP1 DUP2 PUSH1 0x0 DUP3 ADD PUSH1 0x0 SWAP1 SLOAD SWAP1 PUSH2 0x100 EXP SWAP1 DIV PUSH1 0xFF AND ISZERO ISZERO ISZERO ISZERO DUP2 MSTORE PUSH1 0x20 ADD PUSH1 0x1 DUP3 ADD DUP1 SLOAD PUSH2 0x23B5 SWAP1 PUSH2 0x5386 JUMP JUMPDEST DUP1 PUSH1 0x1F ADD PUSH1 0x20 DUP1 SWAP2 DIV MUL PUSH1 0x20 ADD PUSH1 0x40 MLOAD SWAP1 DUP2 ADD PUSH1 0x40 MSTORE DUP1 SWAP3 SWAP2 SWAP1 DUP2 DUP2 MSTORE PUSH1 0x20 ADD DUP3 DUP1 SLOAD PUSH2 0x23E1 SWAP1 PUSH2 0x5386 JUMP JUMPDEST DUP1 ISZERO PUSH2 0x242E JUMPI DUP1 PUSH1 0x1F LT PUSH2 0x2403 JUMPI PUSH2 0x100 DUP1 DUP4 SLOAD DIV MUL DUP4 MSTORE SWAP2 PUSH1 0x20 ADD SWAP2 PUSH2 0x242E JUMP JUMPDEST DUP3 ADD SWAP2 SWAP1 PUSH1 0x0 MSTORE PUSH1 0x20 PUSH1 0x0 KECCAK256 SWAP1 JUMPDEST DUP2 SLOAD DUP2 MSTORE SWAP1 PUSH1 0x1 ADD SWAP1 PUSH1 0x20 ADD DUP1 DUP4 GT PUSH2 0x2411 JUMPI DUP3 SWAP1 SUB PUSH1 0x1F AND DUP3 ADD SWAP2 JUMPDEST POP POP POP POP POP DUP2 MSTORE PUSH1 0x20 ADD PUSH1 0x2 DUP3 ADD PUSH1 0x0 SWAP1 SLOAD SWAP1 PUSH2 0x100 EXP SWAP1 DIV PUSH1 0xFF AND PUSH1 0xFF AND PUSH1 0xFF AND DUP2 MSTORE POP POP DUP4 DUP4 DUP1 PUSH2 0x2460 SWAP1 PUSH2 0x53E9 JUMP JUMPDEST SWAP5 POP DUP2 MLOAD DUP2 LT PUSH2 0x2473 JUMPI PUSH2 0x2472 PUSH2 0x54BF JUMP JUMPDEST JUMPDEST PUSH1 0x20 MUL PUSH1 0x20 ADD ADD DUP2 SWAP1 MSTORE POP DUP1 DUP1 PUSH2 0x2489 SWAP1 PUSH2 0x53E9 JUMP JUMPDEST SWAP2 POP POP PUSH2 0x22F5 JUMP JUMPDEST POP DUP2 SWAP3 POP POP POP SWAP1 JUMP JUMPDEST PUSH1 0xB PUSH1 0x20 MSTORE DUP1 PUSH1 0x0 MSTORE PUSH1 0x40 PUSH1 0x0 KECCAK256 PUSH1 0x0 SWAP2 POP SWAP1 POP DUP1 PUSH1 0x0 ADD PUSH1 0x0 SWAP1 SLOAD SWAP1 PUSH2 0x100 EXP SWAP1 DIV PUSH4 0xFFFFFFFF AND SWAP1 DUP1 PUSH1 0x1 ADD DUP1 SLOAD PUSH2 0x24D3 SWAP1 PUSH2 0x5386 JUMP JUMPDEST DUP1 PUSH1 0x1F ADD PUSH1 0x20 DUP1 SWAP2 DIV MUL PUSH1 0x20 ADD PUSH1 0x40 MLOAD SWAP1 DUP2 ADD PUSH1 0x40 MSTORE DUP1 SWAP3 SWAP2 SWAP1 DUP2 DUP2 MSTORE PUSH1 0x20 ADD DUP3 DUP1 SLOAD PUSH2 0x24FF SWAP1 PUSH2 0x5386 JUMP JUMPDEST DUP1 ISZERO PUSH2 0x254C JUMPI DUP1 PUSH1 0x1F LT PUSH2 0x2521 JUMPI PUSH2 0x100 DUP1 DUP4 SLOAD DIV MUL DUP4 MSTORE SWAP2 PUSH1 0x20 ADD SWAP2 PUSH2 0x254C JUMP JUMPDEST DUP3 ADD SWAP2 SWAP1 PUSH1 0x0 MSTORE PUSH1 0x20 PUSH1 0x0 KECCAK256 SWAP1 JUMPDEST DUP2 SLOAD DUP2 MSTORE SWAP1 PUSH1 0x1 ADD SWAP1 PUSH1 0x20 ADD DUP1 DUP4 GT PUSH2 0x252F JUMPI DUP3 SWAP1 SUB PUSH1 0x1F AND DUP3 ADD SWAP2 JUMPDEST POP POP POP POP POP SWAP1 POP DUP3 JUMP JUMPDEST PUSH2 0x255F DUP5 PUSH2 0x1439 JUMP JUMPDEST PUSH2 0x259E JUMPI PUSH1 0x40 MLOAD PUSH32 0x8C379A000000000000000000000000000000000000000000000000000000000 DUP2 MSTORE PUSH1 0x4 ADD PUSH2 0x2595 SWAP1 PUSH2 0x5063 JUMP JUMPDEST PUSH1 0x40 MLOAD DUP1 SWAP2 SUB SWAP1 REVERT JUMPDEST PUSH1 0x1 PUSH1 0x6 PUSH1 0x0 DUP7 PUSH20 0xFFFFFFFFFFFFFFFFFFFFFFFFFFFFFFFFFFFFFFFF AND PUSH20 0xFFFFFFFFFFFFFFFFFFFFFFFFFFFFFFFFFFFFFFFF AND DUP2 MSTORE PUSH1 0x20 ADD SWAP1 DUP2 MSTORE PUSH1 0x20 ADD PUSH1 0x0 KECCAK256 PUSH1 0x0 ADD PUSH1 0x0 PUSH2 0x100 EXP DUP2 SLOAD DUP2 PUSH1 0xFF MUL NOT AND SWAP1 DUP4 ISZERO ISZERO MUL OR SWAP1 SSTORE POP DUP3 PUSH1 0x6 PUSH1 0x0 DUP7 PUSH20 0xFFFFFFFFFFFFFFFFFFFFFFFFFFFFFFFFFFFFFFFF AND PUSH20 0xFFFFFFFFFFFFFFFFFFFFFFFFFFFFFFFFFFFFFFFF AND DUP2 MSTORE PUSH1 0x20 ADD SWAP1 DUP2 MSTORE PUSH1 0x20 ADD PUSH1 0x0 KECCAK256 PUSH1 0x2 ADD SWAP1 DUP1 MLOAD SWAP1 PUSH1 0x20 ADD SWAP1 PUSH2 0x264F SWAP3 SWAP2 SWAP1 PUSH2 0x3FD7 JUMP JUMPDEST POP DUP1 PUSH1 0x6 PUSH1 0x0 DUP7 PUSH20 0xFFFFFFFFFFFFFFFFFFFFFFFFFFFFFFFFFFFFFFFF AND PUSH20 0xFFFFFFFFFFFFFFFFFFFFFFFFFFFFFFFFFFFFFFFF AND DUP2 MSTORE PUSH1 0x20 ADD SWAP1 DUP2 MSTORE PUSH1 0x20 ADD PUSH1 0x0 KECCAK256 PUSH1 0x0 ADD PUSH1 0x1 PUSH2 0x100 EXP DUP2 SLOAD DUP2 PUSH1 0xFF MUL NOT AND SWAP1 DUP4 PUSH1 0xFF AND MUL OR SWAP1 SSTORE POP DUP2 PUSH1 0x6 PUSH1 0x0 DUP7 PUSH20 0xFFFFFFFFFFFFFFFFFFFFFFFFFFFFFFFFFFFFFFFF AND PUSH20 0xFFFFFFFFFFFFFFFFFFFFFFFFFFFFFFFFFFFFFFFF AND DUP2 MSTORE PUSH1 0x20 ADD SWAP1 DUP2 MSTORE PUSH1 0x20 ADD PUSH1 0x0 KECCAK256 PUSH1 0x1 ADD DUP2 SWAP1 SSTORE POP POP POP POP POP JUMP JUMPDEST PUSH2 0x2701 DUP2 PUSH2 0xD4C JUMP JUMPDEST PUSH2 0x2740 JUMPI PUSH1 0x40 MLOAD PUSH32 0x8C379A000000000000000000000000000000000000000000000000000000000 DUP2 MSTORE PUSH1 0x4 ADD PUSH2 0x2737 SWAP1 PUSH2 0x5083 JUMP JUMPDEST PUSH1 0x40 MLOAD DUP1 SWAP2 SUB SWAP1 REVERT JUMPDEST PUSH1 0x7 PUSH1 0x0 DUP3 PUSH20 0xFFFFFFFFFFFFFFFFFFFFFFFFFFFFFFFFFFFFFFFF AND PUSH20 0xFFFFFFFFFFFFFFFFFFFFFFFFFFFFFFFFFFFFFFFF AND DUP2 MSTORE PUSH1 0x20 ADD SWAP1 DUP2 MSTORE PUSH1 0x20 ADD PUSH1 0x0 KECCAK256 PUSH1 0x0 DUP1 DUP3 ADD PUSH1 0x0 PUSH2 0x100 EXP DUP2 SLOAD SWAP1 PUSH1 0xFF MUL NOT AND SWAP1 SSTORE PUSH1 0x1 DUP3 ADD PUSH1 0x0 PUSH2 0x27A4 SWAP2 SWAP1 PUSH2 0x405D JUMP JUMPDEST PUSH1 0x2 DUP3 ADD PUSH1 0x0 PUSH2 0x100 EXP DUP2 SLOAD SWAP1 PUSH1 0xFF MUL NOT AND SWAP1 SSTORE POP POP POP JUMP JUMPDEST PUSH1 0xE DUP2 DUP2 SLOAD DUP2 LT PUSH2 0x27CD JUMPI PUSH1 0x0 DUP1 REVERT JUMPDEST SWAP1 PUSH1 0x0 MSTORE PUSH1 0x20 PUSH1 0x0 KECCAK256 ADD PUSH1 0x0 SWAP2 POP SLOAD SWAP1 PUSH2 0x100 EXP SWAP1 DIV PUSH20 0xFFFFFFFFFFFFFFFFFFFFFFFFFFFFFFFFFFFFFFFF AND DUP2 JUMP JUMPDEST PUSH2 0x2805 DUP4 PUSH2 0x38D7 JUMP JUMPDEST PUSH2 0x2844 JUMPI PUSH1 0x40 MLOAD PUSH32 0x8C379A000000000000000000000000000000000000000000000000000000000 DUP2 MSTORE PUSH1 0x4 ADD PUSH2 0x283B SWAP1 PUSH2 0x5003 JUMP JUMPDEST PUSH1 0x40 MLOAD DUP1 SWAP2 SUB SWAP1 REVERT JUMPDEST PUSH1 0x1 PUSH1 0xA PUSH1 0x0 DUP6 PUSH20 0xFFFFFFFFFFFFFFFFFFFFFFFFFFFFFFFFFFFFFFFF AND PUSH20 0xFFFFFFFFFFFFFFFFFFFFFFFFFFFFFFFFFFFFFFFF AND DUP2 MSTORE PUSH1 0x20 ADD SWAP1 DUP2 MSTORE PUSH1 0x20 ADD PUSH1 0x0 KECCAK256 PUSH1 0x0 ADD PUSH1 0x0 PUSH2 0x100 EXP DUP2 SLOAD DUP2 PUSH1 0xFF MUL NOT AND SWAP1 DUP4 ISZERO ISZERO MUL OR SWAP1 SSTORE POP DUP2 PUSH1 0xA PUSH1 0x0 DUP6 PUSH20 0xFFFFFFFFFFFFFFFFFFFFFFFFFFFFFFFFFFFFFFFF AND PUSH20 0xFFFFFFFFFFFFFFFFFFFFFFFFFFFFFFFFFFFFFFFF AND DUP2 MSTORE PUSH1 0x20 ADD SWAP1 DUP2 MSTORE PUSH1 0x20 ADD PUSH1 0x0 KECCAK256 PUSH1 0x1 ADD SWAP1 DUP1 MLOAD SWAP1 PUSH1 0x20 ADD SWAP1 PUSH2 0x28F5 SWAP3 SWAP2 SWAP1 PUSH2 0x3FD7 JUMP JUMPDEST POP DUP1 PUSH1 0xA PUSH1 0x0 DUP6 PUSH20 0xFFFFFFFFFFFFFFFFFFFFFFFFFFFFFFFFFFFFFFFF AND PUSH20 0xFFFFFFFFFFFFFFFFFFFFFFFFFFFFFFFFFFFFFFFF AND DUP2 MSTORE PUSH1 0x20 ADD SWAP1 DUP2 MSTORE PUSH1 0x20 ADD PUSH1 0x0 KECCAK256 PUSH1 0x2 ADD PUSH1 0x0 PUSH2 0x100 EXP DUP2 SLOAD DUP2 PUSH1 0xFF MUL NOT AND SWAP1 DUP4 PUSH1 0xFF AND MUL OR SWAP1 SSTORE POP POP POP POP JUMP JUMPDEST PUSH1 0x0 PUSH1 0x3 PUSH1 0x0 DUP4 PUSH20 0xFFFFFFFFFFFFFFFFFFFFFFFFFFFFFFFFFFFFFFFF AND PUSH20 0xFFFFFFFFFFFFFFFFFFFFFFFFFFFFFFFFFFFFFFFF AND DUP2 MSTORE PUSH1 0x20 ADD SWAP1 DUP2 MSTORE PUSH1 0x20 ADD PUSH1 0x0 KECCAK256 PUSH1 0x0 ADD PUSH1 0x0 SWAP1 SLOAD SWAP1 PUSH2 0x100 EXP SWAP1 DIV PUSH1 0xFF AND SWAP1 POP SWAP2 SWAP1 POP JUMP JUMPDEST PUSH1 0x5 PUSH1 0x20 MSTORE DUP1 PUSH1 0x0 MSTORE PUSH1 0x40 PUSH1 0x0 KECCAK256 PUSH1 0x0 SWAP2 POP SWAP1 POP DUP1 PUSH1 0x0 ADD PUSH1 0x0 SWAP1 SLOAD SWAP1 PUSH2 0x100 EXP SWAP1 DIV PUSH1 0xFF AND SWAP1 DUP1 PUSH1 0x0 ADD PUSH1 0x1 SWAP1 SLOAD SWAP1 PUSH2 0x100 EXP SWAP1 DIV PUSH20 0xFFFFFFFFFFFFFFFFFFFFFFFFFFFFFFFFFFFFFFFF AND SWAP1 DUP1 PUSH1 0x0 ADD PUSH1 0x15 SWAP1 SLOAD SWAP1 PUSH2 0x100 EXP SWAP1 DIV PUSH2 0xFFFF AND SWAP1 DUP1 PUSH1 0x0 ADD PUSH1 0x17 SWAP1 SLOAD SWAP1 PUSH2 0x100 EXP SWAP1 DIV PUSH1 0xFF AND SWAP1 DUP1 PUSH1 0x1 ADD DUP1 SLOAD PUSH2 0x2A32 SWAP1 PUSH2 0x5386 JUMP JUMPDEST DUP1 PUSH1 0x1F ADD PUSH1 0x20 DUP1 SWAP2 DIV MUL PUSH1 0x20 ADD PUSH1 0x40 MLOAD SWAP1 DUP2 ADD PUSH1 0x40 MSTORE DUP1 SWAP3 SWAP2 SWAP1 DUP2 DUP2 MSTORE PUSH1 0x20 ADD DUP3 DUP1 SLOAD PUSH2 0x2A5E SWAP1 PUSH2 0x5386 JUMP JUMPDEST DUP1 ISZERO PUSH2 0x2AAB JUMPI DUP1 PUSH1 0x1F LT PUSH2 0x2A80 JUMPI PUSH2 0x100 DUP1 DUP4 SLOAD DIV MUL DUP4 MSTORE SWAP2 PUSH1 0x20 ADD SWAP2 PUSH2 0x2AAB JUMP JUMPDEST DUP3 ADD SWAP2 SWAP1 PUSH1 0x0 MSTORE PUSH1 0x20 PUSH1 0x0 KECCAK256 SWAP1 JUMPDEST DUP2 SLOAD DUP2 MSTORE SWAP1 PUSH1 0x1 ADD SWAP1 PUSH1 0x20 ADD DUP1 DUP4 GT PUSH2 0x2A8E JUMPI DUP3 SWAP1 SUB PUSH1 0x1F AND DUP3 ADD SWAP2 JUMPDEST POP POP POP POP POP SWAP1 DUP1 PUSH1 0x2 ADD DUP1 SLOAD PUSH2 0x2AC0 SWAP1 PUSH2 0x5386 JUMP JUMPDEST DUP1 PUSH1 0x1F ADD PUSH1 0x20 DUP1 SWAP2 DIV MUL PUSH1 0x20 ADD PUSH1 0x40 MLOAD SWAP1 DUP2 ADD PUSH1 0x40 MSTORE DUP1 SWAP3 SWAP2 SWAP1 DUP2 DUP2 MSTORE PUSH1 0x20 ADD DUP3 DUP1 SLOAD PUSH2 0x2AEC SWAP1 PUSH2 0x5386 JUMP JUMPDEST DUP1 ISZERO PUSH2 0x2B39 JUMPI DUP1 PUSH1 0x1F LT PUSH2 0x2B0E JUMPI PUSH2 0x100 DUP1 DUP4 SLOAD DIV MUL DUP4 MSTORE SWAP2 PUSH1 0x20 ADD SWAP2 PUSH2 0x2B39 JUMP JUMPDEST DUP3 ADD SWAP2 SWAP1 PUSH1 0x0 MSTORE PUSH1 0x20 PUSH1 0x0 KECCAK256 SWAP1 JUMPDEST DUP2 SLOAD DUP2 MSTORE SWAP1 PUSH1 0x1 ADD SWAP1 PUSH1 0x20 ADD DUP1 DUP4 GT PUSH2 0x2B1C JUMPI DUP3 SWAP1 SUB PUSH1 0x1F AND DUP3 ADD SWAP2 JUMPDEST POP POP POP POP POP SWAP1 POP DUP7 JUMP JUMPDEST PUSH2 0x2B4C DUP2 PUSH2 0x2956 JUMP JUMPDEST PUSH2 0x2B8B JUMPI PUSH1 0x40 MLOAD PUSH32 0x8C379A000000000000000000000000000000000000000000000000000000000 DUP2 MSTORE PUSH1 0x4 ADD PUSH2 0x2B82 SWAP1 PUSH2 0x4F03 JUMP JUMPDEST PUSH1 0x40 MLOAD DUP1 SWAP2 SUB SWAP1 REVERT JUMPDEST PUSH1 0x3 PUSH1 0x0 DUP3 PUSH20 0xFFFFFFFFFFFFFFFFFFFFFFFFFFFFFFFFFFFFFFFF AND PUSH20 0xFFFFFFFFFFFFFFFFFFFFFFFFFFFFFFFFFFFFFFFF AND DUP2 MSTORE PUSH1 0x20 ADD SWAP1 DUP2 MSTORE PUSH1 0x20 ADD PUSH1 0x0 KECCAK256 PUSH1 0x0 DUP1 DUP3 ADD PUSH1 0x0 PUSH2 0x100 EXP DUP2 SLOAD SWAP1 PUSH1 0xFF MUL NOT AND SWAP1 SSTORE POP POP POP JUMP JUMPDEST PUSH2 0x2BED DUP4 PUSH2 0x39C9 JUMP JUMPDEST PUSH2 0x2C2C JUMPI PUSH1 0x40 MLOAD PUSH32 0x8C379A000000000000000000000000000000000000000000000000000000000 DUP2 MSTORE PUSH1 0x4 ADD PUSH2 0x2C23 SWAP1 PUSH2 0x4EE3 JUMP JUMPDEST PUSH1 0x40 MLOAD DUP1 SWAP2 SUB SWAP1 REVERT JUMPDEST PUSH1 0x1 PUSH1 0x4 PUSH1 0x0 DUP6 PUSH20 0xFFFFFFFFFFFFFFFFFFFFFFFFFFFFFFFFFFFFFFFF AND PUSH20 0xFFFFFFFFFFFFFFFFFFFFFFFFFFFFFFFFFFFFFFFF AND DUP2 MSTORE PUSH1 0x20 ADD SWAP1 DUP2 MSTORE PUSH1 0x20 ADD PUSH1 0x0 KECCAK256 PUSH1 0x0 ADD PUSH1 0x0 PUSH2 0x100 EXP DUP2 SLOAD DUP2 PUSH1 0xFF MUL NOT AND SWAP1 DUP4 ISZERO ISZERO MUL OR SWAP1 SSTORE POP DUP2 PUSH1 0x4 PUSH1 0x0 DUP6 PUSH20 0xFFFFFFFFFFFFFFFFFFFFFFFFFFFFFFFFFFFFFFFF AND PUSH20 0xFFFFFFFFFFFFFFFFFFFFFFFFFFFFFFFFFFFFFFFF AND DUP2 MSTORE PUSH1 0x20 ADD SWAP1 DUP2 MSTORE PUSH1 0x20 ADD PUSH1 0x0 KECCAK256 PUSH1 0x1 ADD SWAP1 DUP1 MLOAD SWAP1 PUSH1 0x20 ADD SWAP1 PUSH2 0x2CDD SWAP3 SWAP2 SWAP1 PUSH2 0x3FD7 JUMP JUMPDEST POP DUP1 PUSH1 0x4 PUSH1 0x0 DUP6 PUSH20 0xFFFFFFFFFFFFFFFFFFFFFFFFFFFFFFFFFFFFFFFF AND PUSH20 0xFFFFFFFFFFFFFFFFFFFFFFFFFFFFFFFFFFFFFFFF AND DUP2 MSTORE PUSH1 0x20 ADD SWAP1 DUP2 MSTORE PUSH1 0x20 ADD PUSH1 0x0 KECCAK256 PUSH1 0x2 ADD PUSH1 0x0 PUSH2 0x100 EXP DUP2 SLOAD DUP2 PUSH1 0xFF MUL NOT AND SWAP1 DUP4 PUSH1 0xFF AND MUL OR SWAP1 SSTORE POP POP POP POP JUMP JUMPDEST PUSH1 0x3 PUSH1 0x20 MSTORE DUP1 PUSH1 0x0 MSTORE PUSH1 0x40 PUSH1 0x0 KECCAK256 PUSH1 0x0 SWAP2 POP SWAP1 POP DUP1 PUSH1 0x0 ADD PUSH1 0x0 SWAP1 SLOAD SWAP1 PUSH2 0x100 EXP SWAP1 DIV PUSH1 0xFF AND SWAP1 POP DUP2 JUMP JUMPDEST PUSH1 0x60 PUSH1 0x0 PUSH1 0xF DUP1 SLOAD SWAP1 POP PUSH8 0xFFFFFFFFFFFFFFFF DUP2 GT ISZERO PUSH2 0x2D8C JUMPI PUSH2 0x2D8B PUSH2 0x54EE JUMP JUMPDEST JUMPDEST PUSH1 0x40 MLOAD SWAP1 DUP1 DUP3 MSTORE DUP1 PUSH1 0x20 MUL PUSH1 0x20 ADD DUP3 ADD PUSH1 0x40 MSTORE DUP1 ISZERO PUSH2 0x2DC5 JUMPI DUP2 PUSH1 0x20 ADD JUMPDEST PUSH2 0x2DB2 PUSH2 0x40E9 JUMP JUMPDEST DUP2 MSTORE PUSH1 0x20 ADD SWAP1 PUSH1 0x1 SWAP1 SUB SWAP1 DUP2 PUSH2 0x2DAA JUMPI SWAP1 POP JUMPDEST POP SWAP1 POP PUSH1 0x0 DUP1 JUMPDEST PUSH1 0xF DUP1 SLOAD SWAP1 POP DUP2 LT ISZERO PUSH2 0x2F68 JUMPI PUSH1 0x7 PUSH1 0x0 PUSH1 0xF DUP4 DUP2 SLOAD DUP2 LT PUSH2 0x2DF1 JUMPI PUSH2 0x2DF0 PUSH2 0x54BF JUMP JUMPDEST JUMPDEST SWAP1 PUSH1 0x0 MSTORE PUSH1 0x20 PUSH1 0x0 KECCAK256 ADD PUSH1 0x0 SWAP1 SLOAD SWAP1 PUSH2 0x100 EXP SWAP1 DIV PUSH20 0xFFFFFFFFFFFFFFFFFFFFFFFFFFFFFFFFFFFFFFFF AND PUSH20 0xFFFFFFFFFFFFFFFFFFFFFFFFFFFFFFFFFFFFFFFF AND PUSH20 0xFFFFFFFFFFFFFFFFFFFFFFFFFFFFFFFFFFFFFFFF AND DUP2 MSTORE PUSH1 0x20 ADD SWAP1 DUP2 MSTORE PUSH1 0x20 ADD PUSH1 0x0 KECCAK256 PUSH1 0x40 MLOAD DUP1 PUSH1 0x60 ADD PUSH1 0x40 MSTORE SWAP1 DUP2 PUSH1 0x0 DUP3 ADD PUSH1 0x0 SWAP1 SLOAD SWAP1 PUSH2 0x100 EXP SWAP1 DIV PUSH1 0xFF AND ISZERO ISZERO ISZERO ISZERO DUP2 MSTORE PUSH1 0x20 ADD PUSH1 0x1 DUP3 ADD DUP1 SLOAD PUSH2 0x2E8C SWAP1 PUSH2 0x5386 JUMP JUMPDEST DUP1 PUSH1 0x1F ADD PUSH1 0x20 DUP1 SWAP2 DIV MUL PUSH1 0x20 ADD PUSH1 0x40 MLOAD SWAP1 DUP2 ADD PUSH1 0x40 MSTORE DUP1 SWAP3 SWAP2 SWAP1 DUP2 DUP2 MSTORE PUSH1 0x20 ADD DUP3 DUP1 SLOAD PUSH2 0x2EB8 SWAP1 PUSH2 0x5386 JUMP JUMPDEST DUP1 ISZERO PUSH2 0x2F05 JUMPI DUP1 PUSH1 0x1F LT PUSH2 0x2EDA JUMPI PUSH2 0x100 DUP1 DUP4 SLOAD DIV MUL DUP4 MSTORE SWAP2 PUSH1 0x20 ADD SWAP2 PUSH2 0x2F05 JUMP JUMPDEST DUP3 ADD SWAP2 SWAP1 PUSH1 0x0 MSTORE PUSH1 0x20 PUSH1 0x0 KECCAK256 SWAP1 JUMPDEST DUP2 SLOAD DUP2 MSTORE SWAP1 PUSH1 0x1 ADD SWAP1 PUSH1 0x20 ADD DUP1 DUP4 GT PUSH2 0x2EE8 JUMPI DUP3 SWAP1 SUB PUSH1 0x1F AND DUP3 ADD SWAP2 JUMPDEST POP POP POP POP POP DUP2 MSTORE PUSH1 0x20 ADD PUSH1 0x2 DUP3 ADD PUSH1 0x0 SWAP1 SLOAD SWAP1 PUSH2 0x100 EXP SWAP1 DIV PUSH1 0xFF AND PUSH1 0xFF AND PUSH1 0xFF AND DUP2 MSTORE POP POP DUP4 DUP4 DUP1 PUSH2 0x2F37 SWAP1 PUSH2 0x53E9 JUMP JUMPDEST SWAP5 POP DUP2 MLOAD DUP2 LT PUSH2 0x2F4A JUMPI PUSH2 0x2F49 PUSH2 0x54BF JUMP JUMPDEST JUMPDEST PUSH1 0x20 MUL PUSH1 0x20 ADD ADD DUP2 SWAP1 MSTORE POP DUP1 DUP1 PUSH2 0x2F60 SWAP1 PUSH2 0x53E9 JUMP JUMPDEST SWAP2 POP POP PUSH2 0x2DCC JUMP JUMPDEST POP DUP2 SWAP3 POP POP POP SWAP1 JUMP JUMPDEST PUSH2 0x2F7A DUP5 PUSH2 0x1439 JUMP JUMPDEST ISZERO PUSH2 0x2FBA JUMPI PUSH1 0x40 MLOAD PUSH32 0x8C379A000000000000000000000000000000000000000000000000000000000 DUP2 MSTORE PUSH1 0x4 ADD PUSH2 0x2FB1 SWAP1 PUSH2 0x4F43 JUMP JUMPDEST PUSH1 0x40 MLOAD DUP1 SWAP2 SUB SWAP1 REVERT JUMPDEST PUSH1 0x1 PUSH1 0x6 PUSH1 0x0 DUP7 PUSH20 0xFFFFFFFFFFFFFFFFFFFFFFFFFFFFFFFFFFFFFFFF AND PUSH20 0xFFFFFFFFFFFFFFFFFFFFFFFFFFFFFFFFFFFFFFFF AND DUP2 MSTORE PUSH1 0x20 ADD SWAP1 DUP2 MSTORE PUSH1 0x20 ADD PUSH1 0x0 KECCAK256 PUSH1 0x0 ADD PUSH1 0x0 PUSH2 0x100 EXP DUP2 SLOAD DUP2 PUSH1 0xFF MUL NOT AND SWAP1 DUP4 ISZERO ISZERO MUL OR SWAP1 SSTORE POP DUP3 PUSH1 0x6 PUSH1 0x0 DUP7 PUSH20 0xFFFFFFFFFFFFFFFFFFFFFFFFFFFFFFFFFFFFFFFF AND PUSH20 0xFFFFFFFFFFFFFFFFFFFFFFFFFFFFFFFFFFFFFFFF AND DUP2 MSTORE PUSH1 0x20 ADD SWAP1 DUP2 MSTORE PUSH1 0x20 ADD PUSH1 0x0 KECCAK256 PUSH1 0x2 ADD SWAP1 DUP1 MLOAD SWAP1 PUSH1 0x20 ADD SWAP1 PUSH2 0x306B SWAP3 SWAP2 SWAP1 PUSH2 0x3FD7 JUMP JUMPDEST POP DUP1 PUSH1 0x6 PUSH1 0x0 DUP7 PUSH20 0xFFFFFFFFFFFFFFFFFFFFFFFFFFFFFFFFFFFFFFFF AND PUSH20 0xFFFFFFFFFFFFFFFFFFFFFFFFFFFFFFFFFFFFFFFF AND DUP2 MSTORE PUSH1 0x20 ADD SWAP1 DUP2 MSTORE PUSH1 0x20 ADD PUSH1 0x0 KECCAK256 PUSH1 0x0 ADD PUSH1 0x1 PUSH2 0x100 EXP DUP2 SLOAD DUP2 PUSH1 0xFF MUL NOT AND SWAP1 DUP4 PUSH1 0xFF AND MUL OR SWAP1 SSTORE POP DUP2 PUSH1 0x6 PUSH1 0x0 DUP7 PUSH20 0xFFFFFFFFFFFFFFFFFFFFFFFFFFFFFFFFFFFFFFFF AND PUSH20 0xFFFFFFFFFFFFFFFFFFFFFFFFFFFFFFFFFFFFFFFF AND DUP2 MSTORE PUSH1 0x20 ADD SWAP1 DUP2 MSTORE PUSH1 0x20 ADD PUSH1 0x0 KECCAK256 PUSH1 0x1 ADD DUP2 SWAP1 SSTORE POP PUSH1 0xE DUP5 SWAP1 DUP1 PUSH1 0x1 DUP2 SLOAD ADD DUP1 DUP3 SSTORE DUP1 SWAP2 POP POP PUSH1 0x1 SWAP1 SUB SWAP1 PUSH1 0x0 MSTORE PUSH1 0x20 PUSH1 0x0 KECCAK256 ADD PUSH1 0x0 SWAP1 SWAP2 SWAP1 SWAP2 SWAP1 SWAP2 PUSH2 0x100 EXP DUP2 SLOAD DUP2 PUSH20 0xFFFFFFFFFFFFFFFFFFFFFFFFFFFFFFFFFFFFFFFF MUL NOT AND SWAP1 DUP4 PUSH20 0xFFFFFFFFFFFFFFFFFFFFFFFFFFFFFFFFFFFFFFFF AND MUL OR SWAP1 SSTORE POP POP POP POP POP JUMP JUMPDEST PUSH1 0x60 PUSH1 0x0 PUSH1 0xE DUP1 SLOAD SWAP1 POP PUSH8 0xFFFFFFFFFFFFFFFF DUP2 GT ISZERO PUSH2 0x319A JUMPI PUSH2 0x3199 PUSH2 0x54EE JUMP JUMPDEST JUMPDEST PUSH1 0x40 MLOAD SWAP1 DUP1 DUP3 MSTORE DUP1 PUSH1 0x20 MUL PUSH1 0x20 ADD DUP3 ADD PUSH1 0x40 MSTORE DUP1 ISZERO PUSH2 0x31D3 JUMPI DUP2 PUSH1 0x20 ADD JUMPDEST PUSH2 0x31C0 PUSH2 0x410F JUMP JUMPDEST DUP2 MSTORE PUSH1 0x20 ADD SWAP1 PUSH1 0x1 SWAP1 SUB SWAP1 DUP2 PUSH2 0x31B8 JUMPI SWAP1 POP JUMPDEST POP SWAP1 POP PUSH1 0x0 DUP1 JUMPDEST PUSH1 0xE DUP1 SLOAD SWAP1 POP DUP2 LT ISZERO PUSH2 0x3380 JUMPI PUSH1 0x6 PUSH1 0x0 PUSH1 0xE DUP4 DUP2 SLOAD DUP2 LT PUSH2 0x31FF JUMPI PUSH2 0x31FE PUSH2 0x54BF JUMP JUMPDEST JUMPDEST SWAP1 PUSH1 0x0 MSTORE PUSH1 0x20 PUSH1 0x0 KECCAK256 ADD PUSH1 0x0 SWAP1 SLOAD SWAP1 PUSH2 0x100 EXP SWAP1 DIV PUSH20 0xFFFFFFFFFFFFFFFFFFFFFFFFFFFFFFFFFFFFFFFF AND PUSH20 0xFFFFFFFFFFFFFFFFFFFFFFFFFFFFFFFFFFFFFFFF AND PUSH20 0xFFFFFFFFFFFFFFFFFFFFFFFFFFFFFFFFFFFFFFFF AND DUP2 MSTORE PUSH1 0x20 ADD SWAP1 DUP2 MSTORE PUSH1 0x20 ADD PUSH1 0x0 KECCAK256 PUSH1 0x40 MLOAD DUP1 PUSH1 0x80 ADD PUSH1 0x40 MSTORE SWAP1 DUP2 PUSH1 0x0 DUP3 ADD PUSH1 0x0 SWAP1 SLOAD SWAP1 PUSH2 0x100 EXP SWAP1 DIV PUSH1 0xFF AND ISZERO ISZERO ISZERO ISZERO DUP2 MSTORE PUSH1 0x20 ADD PUSH1 0x0 DUP3 ADD PUSH1 0x1 SWAP1 SLOAD SWAP1 PUSH2 0x100 EXP SWAP1 DIV PUSH1 0xFF AND PUSH1 0xFF AND PUSH1 0xFF AND DUP2 MSTORE PUSH1 0x20 ADD PUSH1 0x1 DUP3 ADD SLOAD DUP2 MSTORE PUSH1 0x20 ADD PUSH1 0x2 DUP3 ADD DUP1 SLOAD PUSH2 0x32C1 SWAP1 PUSH2 0x5386 JUMP JUMPDEST DUP1 PUSH1 0x1F ADD PUSH1 0x20 DUP1 SWAP2 DIV MUL PUSH1 0x20 ADD PUSH1 0x40 MLOAD SWAP1 DUP2 ADD PUSH1 0x40 MSTORE DUP1 SWAP3 SWAP2 SWAP1 DUP2 DUP2 MSTORE PUSH1 0x20 ADD DUP3 DUP1 SLOAD PUSH2 0x32ED SWAP1 PUSH2 0x5386 JUMP JUMPDEST DUP1 ISZERO PUSH2 0x333A JUMPI DUP1 PUSH1 0x1F LT PUSH2 0x330F JUMPI PUSH2 0x100 DUP1 DUP4 SLOAD DIV MUL DUP4 MSTORE SWAP2 PUSH1 0x20 ADD SWAP2 PUSH2 0x333A JUMP JUMPDEST DUP3 ADD SWAP2 SWAP1 PUSH1 0x0 MSTORE PUSH1 0x20 PUSH1 0x0 KECCAK256 SWAP1 JUMPDEST DUP2 SLOAD DUP2 MSTORE SWAP1 PUSH1 0x1 ADD SWAP1 PUSH1 0x20 ADD DUP1 DUP4 GT PUSH2 0x331D JUMPI DUP3 SWAP1 SUB PUSH1 0x1F AND DUP3 ADD SWAP2 JUMPDEST POP POP POP POP POP DUP2 MSTORE POP POP DUP4 DUP4 DUP1 PUSH2 0x334F SWAP1 PUSH2 0x53E9 JUMP JUMPDEST SWAP5 POP DUP2 MLOAD DUP2 LT PUSH2 0x3362 JUMPI PUSH2 0x3361 PUSH2 0x54BF JUMP JUMPDEST JUMPDEST PUSH1 0x20 MUL PUSH1 0x20 ADD ADD DUP2 SWAP1 MSTORE POP DUP1 DUP1 PUSH2 0x3378 SWAP1 PUSH2 0x53E9 JUMP JUMPDEST SWAP2 POP POP PUSH2 0x31DA JUMP JUMPDEST POP DUP2 SWAP3 POP POP POP SWAP1 JUMP JUMPDEST PUSH2 0x3392 DUP4 PUSH2 0xD4C JUMP JUMPDEST PUSH2 0x33D1 JUMPI PUSH1 0x40 MLOAD PUSH32 0x8C379A000000000000000000000000000000000000000000000000000000000 DUP2 MSTORE PUSH1 0x4 ADD PUSH2 0x33C8 SWAP1 PUSH2 0x5083 JUMP JUMPDEST PUSH1 0x40 MLOAD DUP1 SWAP2 SUB SWAP1 REVERT JUMPDEST PUSH1 0x1 PUSH1 0x7 PUSH1 0x0 DUP6 PUSH20 0xFFFFFFFFFFFFFFFFFFFFFFFFFFFFFFFFFFFFFFFF AND PUSH20 0xFFFFFFFFFFFFFFFFFFFFFFFFFFFFFFFFFFFFFFFF AND DUP2 MSTORE PUSH1 0x20 ADD SWAP1 DUP2 MSTORE PUSH1 0x20 ADD PUSH1 0x0 KECCAK256 PUSH1 0x0 ADD PUSH1 0x0 PUSH2 0x100 EXP DUP2 SLOAD DUP2 PUSH1 0xFF MUL NOT AND SWAP1 DUP4 ISZERO ISZERO MUL OR SWAP1 SSTORE POP DUP2 PUSH1 0x7 PUSH1 0x0 DUP6 PUSH20 0xFFFFFFFFFFFFFFFFFFFFFFFFFFFFFFFFFFFFFFFF AND PUSH20 0xFFFFFFFFFFFFFFFFFFFFFFFFFFFFFFFFFFFFFFFF AND DUP2 MSTORE PUSH1 0x20 ADD SWAP1 DUP2 MSTORE PUSH1 0x20 ADD PUSH1 0x0 KECCAK256 PUSH1 0x1 ADD SWAP1 DUP1 MLOAD SWAP1 PUSH1 0x20 ADD SWAP1 PUSH2 0x3482 SWAP3 SWAP2 SWAP1 PUSH2 0x3FD7 JUMP JUMPDEST POP DUP1 PUSH1 0x7 PUSH1 0x0 DUP6 PUSH20 0xFFFFFFFFFFFFFFFFFFFFFFFFFFFFFFFFFFFFFFFF AND PUSH20 0xFFFFFFFFFFFFFFFFFFFFFFFFFFFFFFFFFFFFFFFF AND DUP2 MSTORE PUSH1 0x20 ADD SWAP1 DUP2 MSTORE PUSH1 0x20 ADD PUSH1 0x0 KECCAK256 PUSH1 0x2 ADD PUSH1 0x0 PUSH2 0x100 EXP DUP2 SLOAD DUP2 PUSH1 0xFF MUL NOT AND SWAP1 DUP4 PUSH1 0xFF AND MUL OR SWAP1 SSTORE POP POP POP POP JUMP JUMPDEST PUSH1 0x60 PUSH1 0x2 PUSH1 0x0 SWAP1 SLOAD SWAP1 PUSH2 0x100 EXP SWAP1 DIV PUSH20 0xFFFFFFFFFFFFFFFFFFFFFFFFFFFFFFFFFFFFFFFF AND PUSH20 0xFFFFFFFFFFFFFFFFFFFFFFFFFFFFFFFFFFFFFFFF AND CALLER PUSH20 0xFFFFFFFFFFFFFFFFFFFFFFFFFFFFFFFFFFFFFFFF AND EQ PUSH2 0x3575 JUMPI PUSH1 0x40 MLOAD PUSH32 0x8C379A000000000000000000000000000000000000000000000000000000000 DUP2 MSTORE PUSH1 0x4 ADD PUSH2 0x356C SWAP1 PUSH2 0x4F63 JUMP JUMPDEST PUSH1 0x40 MLOAD DUP1 SWAP2 SUB SWAP1 REVERT JUMPDEST PUSH1 0x0 PUSH1 0x10 DUP1 SLOAD SWAP1 POP PUSH8 0xFFFFFFFFFFFFFFFF DUP2 GT ISZERO PUSH2 0x3596 JUMPI PUSH2 0x3595 PUSH2 0x54EE JUMP JUMPDEST JUMPDEST PUSH1 0x40 MLOAD SWAP1 DUP1 DUP3 MSTORE DUP1 PUSH1 0x20 MUL PUSH1 0x20 ADD DUP3 ADD PUSH1 0x40 MSTORE DUP1 ISZERO PUSH2 0x35CF JUMPI DUP2 PUSH1 0x20 ADD JUMPDEST PUSH2 0x35BC PUSH2 0x413C JUMP JUMPDEST DUP2 MSTORE PUSH1 0x20 ADD SWAP1 PUSH1 0x1 SWAP1 SUB SWAP1 DUP2 PUSH2 0x35B4 JUMPI SWAP1 POP JUMPDEST POP SWAP1 POP PUSH1 0x0 DUP1 JUMPDEST PUSH1 0x10 DUP1 SLOAD SWAP1 POP DUP2 LT ISZERO PUSH2 0x3772 JUMPI PUSH1 0x8 PUSH1 0x0 PUSH1 0x10 DUP4 DUP2 SLOAD DUP2 LT PUSH2 0x35FB JUMPI PUSH2 0x35FA PUSH2 0x54BF JUMP JUMPDEST JUMPDEST SWAP1 PUSH1 0x0 MSTORE PUSH1 0x20 PUSH1 0x0 KECCAK256 ADD PUSH1 0x0 SWAP1 SLOAD SWAP1 PUSH2 0x100 EXP SWAP1 DIV PUSH20 0xFFFFFFFFFFFFFFFFFFFFFFFFFFFFFFFFFFFFFFFF AND PUSH20 0xFFFFFFFFFFFFFFFFFFFFFFFFFFFFFFFFFFFFFFFF AND PUSH20 0xFFFFFFFFFFFFFFFFFFFFFFFFFFFFFFFFFFFFFFFF AND DUP2 MSTORE PUSH1 0x20 ADD SWAP1 DUP2 MSTORE PUSH1 0x20 ADD PUSH1 0x0 KECCAK256 PUSH1 0x40 MLOAD DUP1 PUSH1 0x60 ADD PUSH1 0x40 MSTORE SWAP1 DUP2 PUSH1 0x0 DUP3 ADD PUSH1 0x0 SWAP1 SLOAD SWAP1 PUSH2 0x100 EXP SWAP1 DIV PUSH1 0xFF AND ISZERO ISZERO ISZERO ISZERO DUP2 MSTORE PUSH1 0x20 ADD PUSH1 0x1 DUP3 ADD DUP1 SLOAD PUSH2 0x3696 SWAP1 PUSH2 0x5386 JUMP JUMPDEST DUP1 PUSH1 0x1F ADD PUSH1 0x20 DUP1 SWAP2 DIV MUL PUSH1 0x20 ADD PUSH1 0x40 MLOAD SWAP1 DUP2 ADD PUSH1 0x40 MSTORE DUP1 SWAP3 SWAP2 SWAP1 DUP2 DUP2 MSTORE PUSH1 0x20 ADD DUP3 DUP1 SLOAD PUSH2 0x36C2 SWAP1 PUSH2 0x5386 JUMP JUMPDEST DUP1 ISZERO PUSH2 0x370F JUMPI DUP1 PUSH1 0x1F LT PUSH2 0x36E4 JUMPI PUSH2 0x100 DUP1 DUP4 SLOAD DIV MUL DUP4 MSTORE SWAP2 PUSH1 0x20 ADD SWAP2 PUSH2 0x370F JUMP JUMPDEST DUP3 ADD SWAP2 SWAP1 PUSH1 0x0 MSTORE PUSH1 0x20 PUSH1 0x0 KECCAK256 SWAP1 JUMPDEST DUP2 SLOAD DUP2 MSTORE SWAP1 PUSH1 0x1 ADD SWAP1 PUSH1 0x20 ADD DUP1 DUP4 GT PUSH2 0x36F2 JUMPI DUP3 SWAP1 SUB PUSH1 0x1F AND DUP3 ADD SWAP2 JUMPDEST POP POP POP POP POP DUP2 MSTORE PUSH1 0x20 ADD PUSH1 0x2 DUP3 ADD PUSH1 0x0 SWAP1 SLOAD SWAP1 PUSH2 0x100 EXP SWAP1 DIV PUSH1 0xFF AND PUSH1 0xFF AND PUSH1 0xFF AND DUP2 MSTORE POP POP DUP4 DUP4 DUP1 PUSH2 0x3741 SWAP1 PUSH2 0x53E9 JUMP JUMPDEST SWAP5 POP DUP2 MLOAD DUP2 LT PUSH2 0x3754 JUMPI PUSH2 0x3753 PUSH2 0x54BF JUMP JUMPDEST JUMPDEST PUSH1 0x20 MUL PUSH1 0x20 ADD ADD DUP2 SWAP1 MSTORE POP DUP1 DUP1 PUSH2 0x376A SWAP1 PUSH2 0x53E9 JUMP JUMPDEST SWAP2 POP POP PUSH2 0x35D6 JUMP JUMPDEST POP DUP2 SWAP3 POP POP POP SWAP1 JUMP JUMPDEST PUSH1 0x0 DUP2 PUSH20 0xFFFFFFFFFFFFFFFFFFFFFFFFFFFFFFFFFFFFFFFF AND PUSH1 0x0 DUP1 SLOAD SWAP1 PUSH2 0x100 EXP SWAP1 DIV PUSH20 0xFFFFFFFFFFFFFFFFFFFFFFFFFFFFFFFFFFFFFFFF AND PUSH20 0xFFFFFFFFFFFFFFFFFFFFFFFFFFFFFFFFFFFFFFFF AND EQ SWAP1 POP SWAP2 SWAP1 POP JUMP JUMPDEST PUSH1 0x11 DUP2 DUP2 SLOAD DUP2 LT PUSH2 0x37E3 JUMPI PUSH1 0x0 DUP1 REVERT JUMPDEST SWAP1 PUSH1 0x0 MSTORE PUSH1 0x20 PUSH1 0x0 KECCAK256 ADD PUSH1 0x0 SWAP2 POP SLOAD SWAP1 PUSH2 0x100 EXP SWAP1 DIV PUSH20 0xFFFFFFFFFFFFFFFFFFFFFFFFFFFFFFFFFFFFFFFF AND DUP2 JUMP JUMPDEST PUSH2 0x381B DUP2 PUSH2 0x1D90 JUMP JUMPDEST PUSH2 0x385A JUMPI PUSH1 0x40 MLOAD PUSH32 0x8C379A000000000000000000000000000000000000000000000000000000000 DUP2 MSTORE PUSH1 0x4 ADD PUSH2 0x3851 SWAP1 PUSH2 0x4FA3 JUMP JUMPDEST PUSH1 0x40 MLOAD DUP1 SWAP2 SUB SWAP1 REVERT JUMPDEST PUSH1 0x9 PUSH1 0x0 DUP3 PUSH20 0xFFFFFFFFFFFFFFFFFFFFFFFFFFFFFFFFFFFFFFFF AND PUSH20 0xFFFFFFFFFFFFFFFFFFFFFFFFFFFFFFFFFFFFFFFF AND DUP2 MSTORE PUSH1 0x20 ADD SWAP1 DUP2 MSTORE PUSH1 0x20 ADD PUSH1 0x0 KECCAK256 PUSH1 0x0 DUP1 DUP3 ADD PUSH1 0x0 PUSH2 0x100 EXP DUP2 SLOAD SWAP1 PUSH1 0xFF MUL NOT AND SWAP1 SSTORE PUSH1 0x1 DUP3 ADD PUSH1 0x0 PUSH2 0x38BE SWAP2 SWAP1 PUSH2 0x405D JUMP JUMPDEST PUSH1 0x2 DUP3 ADD PUSH1 0x0 PUSH2 0x100 EXP DUP2 SLOAD SWAP1 PUSH1 0xFF MUL NOT AND SWAP1 SSTORE POP POP POP JUMP JUMPDEST PUSH1 0x0 PUSH1 0xA PUSH1 0x0 DUP4 PUSH20 0xFFFFFFFFFFFFFFFFFFFFFFFFFFFFFFFFFFFFFFFF AND PUSH20 0xFFFFFFFFFFFFFFFFFFFFFFFFFFFFFFFFFFFFFFFF AND DUP2 MSTORE PUSH1 0x20 ADD SWAP1 DUP2 MSTORE PUSH1 0x20 ADD PUSH1 0x0 KECCAK256 PUSH1 0x0 ADD PUSH1 0x0 SWAP1 SLOAD SWAP1 PUSH2 0x100 EXP SWAP1 DIV PUSH1 0xFF AND SWAP1 POP SWAP2 SWAP1 POP JUMP JUMPDEST PUSH1 0x0 DUP2 PUSH20 0xFFFFFFFFFFFFFFFFFFFFFFFFFFFFFFFFFFFFFFFF AND PUSH1 0x2 PUSH1 0x0 SWAP1 SLOAD SWAP1 PUSH2 0x100 EXP SWAP1 DIV PUSH20 0xFFFFFFFFFFFFFFFFFFFFFFFFFFFFFFFFFFFFFFFF AND PUSH20 0xFFFFFFFFFFFFFFFFFFFFFFFFFFFFFFFFFFFFFFFF AND EQ SWAP1 POP SWAP2 SWAP1 POP JUMP JUMPDEST PUSH1 0xF DUP2 DUP2 SLOAD DUP2 LT PUSH2 0x399A JUMPI PUSH1 0x0 DUP1 REVERT JUMPDEST SWAP1 PUSH1 0x0 MSTORE PUSH1 0x20 PUSH1 0x0 KECCAK256 ADD PUSH1 0x0 SWAP2 POP SLOAD SWAP1 PUSH2 0x100 EXP SWAP1 DIV PUSH20 0xFFFFFFFFFFFFFFFFFFFFFFFFFFFFFFFFFFFFFFFF AND DUP2 JUMP JUMPDEST PUSH1 0x0 PUSH1 0x4 PUSH1 0x0 DUP4 PUSH20 0xFFFFFFFFFFFFFFFFFFFFFFFFFFFFFFFFFFFFFFFF AND PUSH20 0xFFFFFFFFFFFFFFFFFFFFFFFFFFFFFFFFFFFFFFFF AND DUP2 MSTORE PUSH1 0x20 ADD SWAP1 DUP2 MSTORE PUSH1 0x20 ADD PUSH1 0x0 KECCAK256 PUSH1 0x0 ADD PUSH1 0x0 SWAP1 SLOAD SWAP1 PUSH2 0x100 EXP SWAP1 DIV PUSH1 0xFF AND SWAP1 POP SWAP2 SWAP1 POP JUMP JUMPDEST PUSH1 0xC DUP2 DUP2 SLOAD DUP2 LT PUSH2 0x3A32 JUMPI PUSH1 0x0 DUP1 REVERT JUMPDEST SWAP1 PUSH1 0x0 MSTORE PUSH1 0x20 PUSH1 0x0 KECCAK256 ADD PUSH1 0x0 SWAP2 POP SLOAD SWAP1 PUSH2 0x100 EXP SWAP1 DIV PUSH20 0xFFFFFFFFFFFFFFFFFFFFFFFFFFFFFFFFFFFFFFFF AND DUP2 JUMP JUMPDEST PUSH2 0x3A6A DUP3 PUSH2 0x2956 JUMP JUMPDEST PUSH2 0x3AA9 JUMPI PUSH1 0x40 MLOAD PUSH32 0x8C379A000000000000000000000000000000000000000000000000000000000 DUP2 MSTORE PUSH1 0x4 ADD PUSH2 0x3AA0 SWAP1 PUSH2 0x4F03 JUMP JUMPDEST PUSH1 0x40 MLOAD DUP1 SWAP2 SUB SWAP1 REVERT JUMPDEST DUP1 PUSH1 0x3 PUSH1 0x0 DUP5 PUSH20 0xFFFFFFFFFFFFFFFFFFFFFFFFFFFFFFFFFFFFFFFF AND PUSH20 0xFFFFFFFFFFFFFFFFFFFFFFFFFFFFFFFFFFFFFFFF AND DUP2 MSTORE PUSH1 0x20 ADD SWAP1 DUP2 MSTORE PUSH1 0x20 ADD PUSH1 0x0 KECCAK256 PUSH1 0x0 ADD PUSH1 0x0 PUSH2 0x100 EXP DUP2 SLOAD DUP2 PUSH1 0xFF MUL NOT AND SWAP1 DUP4 ISZERO ISZERO MUL OR SWAP1 SSTORE POP POP POP JUMP JUMPDEST PUSH2 0x3B10 DUP2 PUSH2 0x2956 JUMP JUMPDEST ISZERO PUSH2 0x3B50 JUMPI PUSH1 0x40 MLOAD PUSH32 0x8C379A000000000000000000000000000000000000000000000000000000000 DUP2 MSTORE PUSH1 0x4 ADD PUSH2 0x3B47 SWAP1 PUSH2 0x5023 JUMP JUMPDEST PUSH1 0x40 MLOAD DUP1 SWAP2 SUB SWAP1 REVERT JUMPDEST PUSH1 0x1 PUSH1 0x3 PUSH1 0x0 DUP4 PUSH20 0xFFFFFFFFFFFFFFFFFFFFFFFFFFFFFFFFFFFFFFFF AND PUSH20 0xFFFFFFFFFFFFFFFFFFFFFFFFFFFFFFFFFFFFFFFF AND DUP2 MSTORE PUSH1 0x20 ADD SWAP1 DUP2 MSTORE PUSH1 0x20 ADD PUSH1 0x0 KECCAK256 PUSH1 0x0 ADD PUSH1 0x0 PUSH2 0x100 EXP DUP2 SLOAD DUP2 PUSH1 0xFF MUL NOT AND SWAP1 DUP4 ISZERO ISZERO MUL OR SWAP1 SSTORE POP PUSH1 0xC DUP2 SWAP1 DUP1 PUSH1 0x1 DUP2 SLOAD ADD DUP1 DUP3 SSTORE DUP1 SWAP2 POP POP PUSH1 0x1 SWAP1 SUB SWAP1 PUSH1 0x0 MSTORE PUSH1 0x20 PUSH1 0x0 KECCAK256 ADD PUSH1 0x0 SWAP1 SWAP2 SWAP1 SWAP2 SWAP1 SWAP2 PUSH2 0x100 EXP DUP2 SLOAD DUP2 PUSH20 0xFFFFFFFFFFFFFFFFFFFFFFFFFFFFFFFFFFFFFFFF MUL NOT AND SWAP1 DUP4 PUSH20 0xFFFFFFFFFFFFFFFFFFFFFFFFFFFFFFFFFFFFFFFF AND MUL OR SWAP1 SSTORE POP POP JUMP JUMPDEST PUSH2 0x3C1A DUP4 PUSH2 0x197A JUMP JUMPDEST ISZERO PUSH2 0x3C5A JUMPI PUSH1 0x40 MLOAD PUSH32 0x8C379A000000000000000000000000000000000000000000000000000000000 DUP2 MSTORE PUSH1 0x4 ADD PUSH2 0x3C51 SWAP1 PUSH2 0x4F23 JUMP JUMPDEST PUSH1 0x40 MLOAD DUP1 SWAP2 SUB SWAP1 REVERT JUMPDEST PUSH1 0x1 PUSH1 0x8 PUSH1 0x0 DUP6 PUSH20 0xFFFFFFFFFFFFFFFFFFFFFFFFFFFFFFFFFFFFFFFF AND PUSH20 0xFFFFFFFFFFFFFFFFFFFFFFFFFFFFFFFFFFFFFFFF AND DUP2 MSTORE PUSH1 0x20 ADD SWAP1 DUP2 MSTORE PUSH1 0x20 ADD PUSH1 0x0 KECCAK256 PUSH1 0x0 ADD PUSH1 0x0 PUSH2 0x100 EXP DUP2 SLOAD DUP2 PUSH1 0xFF MUL NOT AND SWAP1 DUP4 ISZERO ISZERO MUL OR SWAP1 SSTORE POP DUP2 PUSH1 0x8 PUSH1 0x0 DUP6 PUSH20 0xFFFFFFFFFFFFFFFFFFFFFFFFFFFFFFFFFFFFFFFF AND PUSH20 0xFFFFFFFFFFFFFFFFFFFFFFFFFFFFFFFFFFFFFFFF AND DUP2 MSTORE PUSH1 0x20 ADD SWAP1 DUP2 MSTORE PUSH1 0x20 ADD PUSH1 0x0 KECCAK256 PUSH1 0x1 ADD SWAP1 DUP1 MLOAD SWAP1 PUSH1 0x20 ADD SWAP1 PUSH2 0x3D0B SWAP3 SWAP2 SWAP1 PUSH2 0x3FD7 JUMP JUMPDEST POP DUP1 PUSH1 0x8 PUSH1 0x0 DUP6 PUSH20 0xFFFFFFFFFFFFFFFFFFFFFFFFFFFFFFFFFFFFFFFF AND PUSH20 0xFFFFFFFFFFFFFFFFFFFFFFFFFFFFFFFFFFFFFFFF AND DUP2 MSTORE PUSH1 0x20 ADD SWAP1 DUP2 MSTORE PUSH1 0x20 ADD PUSH1 0x0 KECCAK256 PUSH1 0x2 ADD PUSH1 0x0 PUSH2 0x100 EXP DUP2 SLOAD DUP2 PUSH1 0xFF MUL NOT AND SWAP1 DUP4 PUSH1 0xFF AND MUL OR SWAP1 SSTORE POP PUSH1 0x10 DUP4 SWAP1 DUP1 PUSH1 0x1 DUP2 SLOAD ADD DUP1 DUP3 SSTORE DUP1 SWAP2 POP POP PUSH1 0x1 SWAP1 SUB SWAP1 PUSH1 0x0 MSTORE PUSH1 0x20 PUSH1 0x0 KECCAK256 ADD PUSH1 0x0 SWAP1 SWAP2 SWAP1 SWAP2 SWAP1 SWAP2 PUSH2 0x100 EXP DUP2 SLOAD DUP2 PUSH20 0xFFFFFFFFFFFFFFFFFFFFFFFFFFFFFFFFFFFFFFFF MUL NOT AND SWAP1 DUP4 PUSH20 0xFFFFFFFFFFFFFFFFFFFFFFFFFFFFFFFFFFFFFFFF AND MUL OR SWAP1 SSTORE POP POP POP POP JUMP JUMPDEST PUSH1 0x60 PUSH1 0x0 PUSH1 0x12 DUP1 SLOAD SWAP1 POP PUSH8 0xFFFFFFFFFFFFFFFF DUP2 GT ISZERO PUSH2 0x3DF2 JUMPI PUSH2 0x3DF1 PUSH2 0x54EE JUMP JUMPDEST JUMPDEST PUSH1 0x40 MLOAD SWAP1 DUP1 DUP3 MSTORE DUP1 PUSH1 0x20 MUL PUSH1 0x20 ADD DUP3 ADD PUSH1 0x40 MSTORE DUP1 ISZERO PUSH2 0x3E2B JUMPI DUP2 PUSH1 0x20 ADD JUMPDEST PUSH2 0x3E18 PUSH2 0x4162 JUMP JUMPDEST DUP2 MSTORE PUSH1 0x20 ADD SWAP1 PUSH1 0x1 SWAP1 SUB SWAP1 DUP2 PUSH2 0x3E10 JUMPI SWAP1 POP JUMPDEST POP SWAP1 POP PUSH1 0x0 DUP1 JUMPDEST PUSH1 0x12 DUP1 SLOAD SWAP1 POP DUP2 LT ISZERO PUSH2 0x3FCE JUMPI PUSH1 0xA PUSH1 0x0 PUSH1 0x12 DUP4 DUP2 SLOAD DUP2 LT PUSH2 0x3E57 JUMPI PUSH2 0x3E56 PUSH2 0x54BF JUMP JUMPDEST JUMPDEST SWAP1 PUSH1 0x0 MSTORE PUSH1 0x20 PUSH1 0x0 KECCAK256 ADD PUSH1 0x0 SWAP1 SLOAD SWAP1 PUSH2 0x100 EXP SWAP1 DIV PUSH20 0xFFFFFFFFFFFFFFFFFFFFFFFFFFFFFFFFFFFFFFFF AND PUSH20 0xFFFFFFFFFFFFFFFFFFFFFFFFFFFFFFFFFFFFFFFF AND PUSH20 0xFFFFFFFFFFFFFFFFFFFFFFFFFFFFFFFFFFFFFFFF AND DUP2 MSTORE PUSH1 0x20 ADD SWAP1 DUP2 MSTORE PUSH1 0x20 ADD PUSH1 0x0 KECCAK256 PUSH1 0x40 MLOAD DUP1 PUSH1 0x60 ADD PUSH1 0x40 MSTORE SWAP1 DUP2 PUSH1 0x0 DUP3 ADD PUSH1 0x0 SWAP1 SLOAD SWAP1 PUSH2 0x100 EXP SWAP1 DIV PUSH1 0xFF AND ISZERO ISZERO ISZERO ISZERO DUP2 MSTORE PUSH1 0x20 ADD PUSH1 0x1 DUP3 ADD DUP1 SLOAD PUSH2 0x3EF2 SWAP1 PUSH2 0x5386 JUMP JUMPDEST DUP1 PUSH1 0x1F ADD PUSH1 0x20 DUP1 SWAP2 DIV MUL PUSH1 0x20 ADD PUSH1 0x40 MLOAD SWAP1 DUP2 ADD PUSH1 0x40 MSTORE DUP1 SWAP3 SWAP2 SWAP1 DUP2 DUP2 MSTORE PUSH1 0x20 ADD DUP3 DUP1 SLOAD PUSH2 0x3F1E SWAP1 PUSH2 0x5386 JUMP JUMPDEST DUP1 ISZERO PUSH2 0x3F6B JUMPI DUP1 PUSH1 0x1F LT PUSH2 0x3F40 JUMPI PUSH2 0x100 DUP1 DUP4 SLOAD DIV MUL DUP4 MSTORE SWAP2 PUSH1 0x20 ADD SWAP2 PUSH2 0x3F6B JUMP JUMPDEST DUP3 ADD SWAP2 SWAP1 PUSH1 0x0 MSTORE PUSH1 0x20 PUSH1 0x0 KECCAK256 SWAP1 JUMPDEST DUP2 SLOAD DUP2 MSTORE SWAP1 PUSH1 0x1 ADD SWAP1 PUSH1 0x20 ADD DUP1 DUP4 GT PUSH2 0x3F4E JUMPI DUP3 SWAP1 SUB PUSH1 0x1F AND DUP3 ADD SWAP2 JUMPDEST POP POP POP POP POP DUP2 MSTORE PUSH1 0x20 ADD PUSH1 0x2 DUP3 ADD PUSH1 0x0 SWAP1 SLOAD SWAP1 PUSH2 0x100 EXP SWAP1 DIV PUSH1 0xFF AND PUSH1 0xFF AND PUSH1 0xFF AND DUP2 MSTORE POP POP DUP4 DUP4 DUP1 PUSH2 0x3F9D SWAP1 PUSH2 0x53E9 JUMP JUMPDEST SWAP5 POP DUP2 MLOAD DUP2 LT PUSH2 0x3FB0 JUMPI PUSH2 0x3FAF PUSH2 0x54BF JUMP JUMPDEST JUMPDEST PUSH1 0x20 MUL PUSH1 0x20 ADD ADD DUP2 SWAP1 MSTORE POP DUP1 DUP1 PUSH2 0x3FC6 SWAP1 PUSH2 0x53E9 JUMP JUMPDEST SWAP2 POP POP PUSH2 0x3E32 JUMP JUMPDEST POP DUP2 SWAP3 POP POP POP SWAP1 JUMP JUMPDEST DUP3 DUP1 SLOAD PUSH2 0x3FE3 SWAP1 PUSH2 0x5386 JUMP JUMPDEST SWAP1 PUSH1 0x0 MSTORE PUSH1 0x20 PUSH1 0x0 KECCAK256 SWAP1 PUSH1 0x1F ADD PUSH1 0x20 SWAP1 DIV DUP2 ADD SWAP3 DUP3 PUSH2 0x4005 JUMPI PUSH1 0x0 DUP6 SSTORE PUSH2 0x404C JUMP JUMPDEST DUP3 PUSH1 0x1F LT PUSH2 0x401E JUMPI DUP1 MLOAD PUSH1 0xFF NOT AND DUP4 DUP1 ADD OR DUP6 SSTORE PUSH2 0x404C JUMP JUMPDEST DUP3 DUP1 ADD PUSH1 0x1 ADD DUP6 SSTORE DUP3 ISZERO PUSH2 0x404C JUMPI SWAP2 DUP3 ADD JUMPDEST DUP3 DUP2 GT ISZERO PUSH2 0x404B JUMPI DUP3 MLOAD DUP3 SSTORE SWAP2 PUSH1 0x20 ADD SWAP2 SWAP1 PUSH1 0x1 ADD SWAP1 PUSH2 0x4030 JUMP JUMPDEST JUMPDEST POP SWAP1 POP PUSH2 0x4059 SWAP2 SWAP1 PUSH2 0x4188 JUMP JUMPDEST POP SWAP1 JUMP JUMPDEST POP DUP1 SLOAD PUSH2 0x4069 SWAP1 PUSH2 0x5386 JUMP JUMPDEST PUSH1 0x0 DUP3 SSTORE DUP1 PUSH1 0x1F LT PUSH2 0x407B JUMPI POP PUSH2 0x409A JUMP JUMPDEST PUSH1 0x1F ADD PUSH1 0x20 SWAP1 DIV SWAP1 PUSH1 0x0 MSTORE PUSH1 0x20 PUSH1 0x0 KECCAK256 SWAP1 DUP2 ADD SWAP1 PUSH2 0x4099 SWAP2 SWAP1 PUSH2 0x4188 JUMP JUMPDEST JUMPDEST POP JUMP JUMPDEST PUSH1 0x40 MLOAD DUP1 PUSH1 0x60 ADD PUSH1 0x40 MSTORE DUP1 PUSH1 0x0 ISZERO ISZERO DUP2 MSTORE PUSH1 0x20 ADD PUSH1 0x60 DUP2 MSTORE PUSH1 0x20 ADD PUSH1 0x0 PUSH1 0xFF AND DUP2 MSTORE POP SWAP1 JUMP JUMPDEST PUSH1 0x40 MLOAD DUP1 PUSH1 0x60 ADD PUSH1 0x40 MSTORE DUP1 PUSH1 0x0 ISZERO ISZERO DUP2 MSTORE PUSH1 0x20 ADD PUSH1 0x60 DUP2 MSTORE PUSH1 0x20 ADD PUSH1 0x0 PUSH1 0xFF AND DUP2 MSTORE POP SWAP1 JUMP JUMPDEST PUSH1 0x40 MLOAD DUP1 PUSH1 0x60 ADD PUSH1 0x40 MSTORE DUP1 PUSH1 0x0 ISZERO ISZERO DUP2 MSTORE PUSH1 0x20 ADD PUSH1 0x60 DUP2 MSTORE PUSH1 0x20 ADD PUSH1 0x0 PUSH1 0xFF AND DUP2 MSTORE POP SWAP1 JUMP JUMPDEST PUSH1 0x40 MLOAD DUP1 PUSH1 0x80 ADD PUSH1 0x40 MSTORE DUP1 PUSH1 0x0 ISZERO ISZERO DUP2 MSTORE PUSH1 0x20 ADD PUSH1 0x0 PUSH1 0xFF AND DUP2 MSTORE PUSH1 0x20 ADD PUSH1 0x0 DUP2 MSTORE PUSH1 0x20 ADD PUSH1 0x60 DUP2 MSTORE POP SWAP1 JUMP JUMPDEST PUSH1 0x40 MLOAD DUP1 PUSH1 0x60 ADD PUSH1 0x40 MSTORE DUP1 PUSH1 0x0 ISZERO ISZERO DUP2 MSTORE PUSH1 0x20 ADD PUSH1 0x60 DUP2 MSTORE PUSH1 0x20 ADD PUSH1 0x0 PUSH1 0xFF AND DUP2 MSTORE POP SWAP1 JUMP JUMPDEST PUSH1 0x40 MLOAD DUP1 PUSH1 0x60 ADD PUSH1 0x40 MSTORE DUP1 PUSH1 0x0 ISZERO ISZERO DUP2 MSTORE PUSH1 0x20 ADD PUSH1 0x60 DUP2 MSTORE PUSH1 0x20 ADD PUSH1 0x0 PUSH1 0xFF AND DUP2 MSTORE POP SWAP1 JUMP JUMPDEST JUMPDEST DUP1 DUP3 GT ISZERO PUSH2 0x41A1 JUMPI PUSH1 0x0 DUP2 PUSH1 0x0 SWAP1 SSTORE POP PUSH1 0x1 ADD PUSH2 0x4189 JUMP JUMPDEST POP SWAP1 JUMP JUMPDEST PUSH1 0x0 PUSH2 0x41B8 PUSH2 0x41B3 DUP5 PUSH2 0x50F8 JUMP JUMPDEST PUSH2 0x50D3 JUMP JUMPDEST SWAP1 POP DUP3 DUP2 MSTORE PUSH1 0x20 DUP2 ADD DUP5 DUP5 DUP5 ADD GT ISZERO PUSH2 0x41D4 JUMPI PUSH2 0x41D3 PUSH2 0x5522 JUMP JUMPDEST JUMPDEST PUSH2 0x41DF DUP5 DUP3 DUP6 PUSH2 0x5344 JUMP JUMPDEST POP SWAP4 SWAP3 POP POP POP JUMP JUMPDEST PUSH1 0x0 DUP2 CALLDATALOAD SWAP1 POP PUSH2 0x41F6 DUP2 PUSH2 0x5809 JUMP JUMPDEST SWAP3 SWAP2 POP POP JUMP JUMPDEST PUSH1 0x0 DUP2 CALLDATALOAD SWAP1 POP PUSH2 0x420B DUP2 PUSH2 0x5820 JUMP JUMPDEST SWAP3 SWAP2 POP POP JUMP JUMPDEST PUSH1 0x0 DUP3 PUSH1 0x1F DUP4 ADD SLT PUSH2 0x4226 JUMPI PUSH2 0x4225 PUSH2 0x551D JUMP JUMPDEST JUMPDEST DUP2 CALLDATALOAD PUSH2 0x4236 DUP5 DUP3 PUSH1 0x20 DUP7 ADD PUSH2 0x41A5 JUMP JUMPDEST SWAP2 POP POP SWAP3 SWAP2 POP POP JUMP JUMPDEST PUSH1 0x0 DUP2 CALLDATALOAD SWAP1 POP PUSH2 0x424E DUP2 PUSH2 0x5837 JUMP JUMPDEST SWAP3 SWAP2 POP POP JUMP JUMPDEST PUSH1 0x0 DUP2 CALLDATALOAD SWAP1 POP PUSH2 0x4263 DUP2 PUSH2 0x584E JUMP JUMPDEST SWAP3 SWAP2 POP POP JUMP JUMPDEST PUSH1 0x0 DUP2 CALLDATALOAD SWAP1 POP PUSH2 0x4278 DUP2 PUSH2 0x5865 JUMP JUMPDEST SWAP3 SWAP2 POP POP JUMP JUMPDEST PUSH1 0x0 PUSH1 0x20 DUP3 DUP5 SUB SLT ISZERO PUSH2 0x4294 JUMPI PUSH2 0x4293 PUSH2 0x552C JUMP JUMPDEST JUMPDEST PUSH1 0x0 PUSH2 0x42A2 DUP5 DUP3 DUP6 ADD PUSH2 0x41E7 JUMP JUMPDEST SWAP2 POP POP SWAP3 SWAP2 POP POP JUMP JUMPDEST PUSH1 0x0 DUP1 PUSH1 0x0 PUSH1 0x60 DUP5 DUP7 SUB SLT ISZERO PUSH2 0x42C4 JUMPI PUSH2 0x42C3 PUSH2 0x552C JUMP JUMPDEST JUMPDEST PUSH1 0x0 PUSH2 0x42D2 DUP7 DUP3 DUP8 ADD PUSH2 0x41E7 JUMP JUMPDEST SWAP4 POP POP PUSH1 0x20 PUSH2 0x42E3 DUP7 DUP3 DUP8 ADD PUSH2 0x41E7 JUMP JUMPDEST SWAP3 POP POP PUSH1 0x40 PUSH2 0x42F4 DUP7 DUP3 DUP8 ADD PUSH2 0x41E7 JUMP JUMPDEST SWAP2 POP POP SWAP3 POP SWAP3 POP SWAP3 JUMP JUMPDEST PUSH1 0x0 DUP1 PUSH1 0x40 DUP4 DUP6 SUB SLT ISZERO PUSH2 0x4315 JUMPI PUSH2 0x4314 PUSH2 0x552C JUMP JUMPDEST JUMPDEST PUSH1 0x0 PUSH2 0x4323 DUP6 DUP3 DUP7 ADD PUSH2 0x41E7 JUMP JUMPDEST SWAP3 POP POP PUSH1 0x20 PUSH2 0x4334 DUP6 DUP3 DUP7 ADD PUSH2 0x41FC JUMP JUMPDEST SWAP2 POP POP SWAP3 POP SWAP3 SWAP1 POP JUMP JUMPDEST PUSH1 0x0 DUP1 PUSH1 0x0 DUP1 PUSH1 0x80 DUP6 DUP8 SUB SLT ISZERO PUSH2 0x4358 JUMPI PUSH2 0x4357 PUSH2 0x552C JUMP JUMPDEST JUMPDEST PUSH1 0x0 PUSH2 0x4366 DUP8 DUP3 DUP9 ADD PUSH2 0x41E7 JUMP JUMPDEST SWAP5 POP POP PUSH1 0x20 DUP6 ADD CALLDATALOAD PUSH8 0xFFFFFFFFFFFFFFFF DUP2 GT ISZERO PUSH2 0x4387 JUMPI PUSH2 0x4386 PUSH2 0x5527 JUMP JUMPDEST JUMPDEST PUSH2 0x4393 DUP8 DUP3 DUP9 ADD PUSH2 0x4211 JUMP JUMPDEST SWAP4 POP POP PUSH1 0x40 PUSH2 0x43A4 DUP8 DUP3 DUP9 ADD PUSH2 0x423F JUMP JUMPDEST SWAP3 POP POP PUSH1 0x60 PUSH2 0x43B5 DUP8 DUP3 DUP9 ADD PUSH2 0x4269 JUMP JUMPDEST SWAP2 POP POP SWAP3 SWAP6 SWAP2 SWAP5 POP SWAP3 POP JUMP JUMPDEST PUSH1 0x0 DUP1 PUSH1 0x0 PUSH1 0x60 DUP5 DUP7 SUB SLT ISZERO PUSH2 0x43DA JUMPI PUSH2 0x43D9 PUSH2 0x552C JUMP JUMPDEST JUMPDEST PUSH1 0x0 PUSH2 0x43E8 DUP7 DUP3 DUP8 ADD PUSH2 0x41E7 JUMP JUMPDEST SWAP4 POP POP PUSH1 0x20 DUP5 ADD CALLDATALOAD PUSH8 0xFFFFFFFFFFFFFFFF DUP2 GT ISZERO PUSH2 0x4409 JUMPI PUSH2 0x4408 PUSH2 0x5527 JUMP JUMPDEST JUMPDEST PUSH2 0x4415 DUP7 DUP3 DUP8 ADD PUSH2 0x4211 JUMP JUMPDEST SWAP3 POP POP PUSH1 0x40 PUSH2 0x4426 DUP7 DUP3 DUP8 ADD PUSH2 0x4269 JUMP JUMPDEST SWAP2 POP POP SWAP3 POP SWAP3 POP SWAP3 JUMP JUMPDEST PUSH1 0x0 PUSH1 0x20 DUP3 DUP5 SUB SLT ISZERO PUSH2 0x4446 JUMPI PUSH2 0x4445 PUSH2 0x552C JUMP JUMPDEST JUMPDEST PUSH1 0x0 PUSH2 0x4454 DUP5 DUP3 DUP6 ADD PUSH2 0x423F JUMP JUMPDEST SWAP2 POP POP SWAP3 SWAP2 POP POP JUMP JUMPDEST PUSH1 0x0 PUSH1 0x20 DUP3 DUP5 SUB SLT ISZERO PUSH2 0x4473 JUMPI PUSH2 0x4472 PUSH2 0x552C JUMP JUMPDEST JUMPDEST PUSH1 0x0 PUSH2 0x4481 DUP5 DUP3 DUP6 ADD PUSH2 0x4254 JUMP JUMPDEST SWAP2 POP POP SWAP3 SWAP2 POP POP JUMP JUMPDEST PUSH1 0x0 PUSH2 0x4496 DUP4 DUP4 PUSH2 0x4A7B JUMP JUMPDEST SWAP1 POP SWAP3 SWAP2 POP POP JUMP JUMPDEST PUSH1 0x0 PUSH2 0x44AA DUP4 DUP4 PUSH2 0x4ADE JUMP JUMPDEST SWAP1 POP SWAP3 SWAP2 POP POP JUMP JUMPDEST PUSH1 0x0 PUSH2 0x44BE DUP4 DUP4 PUSH2 0x4B2E JUMP JUMPDEST SWAP1 POP SWAP3 SWAP2 POP POP JUMP JUMPDEST PUSH1 0x0 PUSH2 0x44D2 DUP4 DUP4 PUSH2 0x4B7E JUMP JUMPDEST SWAP1 POP SWAP3 SWAP2 POP POP JUMP JUMPDEST PUSH1 0x0 PUSH2 0x44E6 DUP4 DUP4 PUSH2 0x4BCE JUMP JUMPDEST SWAP1 POP SWAP3 SWAP2 POP POP JUMP JUMPDEST PUSH1 0x0 PUSH2 0x44FA DUP4 DUP4 PUSH2 0x4C1E JUMP JUMPDEST SWAP1 POP SWAP3 SWAP2 POP POP JUMP JUMPDEST PUSH2 0x450B DUP2 PUSH2 0x52AC JUMP JUMPDEST DUP3 MSTORE POP POP JUMP JUMPDEST PUSH1 0x0 PUSH2 0x451C DUP3 PUSH2 0x5189 JUMP JUMPDEST PUSH2 0x4526 DUP2 DUP6 PUSH2 0x5224 JUMP JUMPDEST SWAP4 POP DUP4 PUSH1 0x20 DUP3 MUL DUP6 ADD PUSH2 0x4538 DUP6 PUSH2 0x5129 JUMP JUMPDEST DUP1 PUSH1 0x0 JUMPDEST DUP6 DUP2 LT ISZERO PUSH2 0x4574 JUMPI DUP5 DUP5 SUB DUP10 MSTORE DUP2 MLOAD PUSH2 0x4555 DUP6 DUP3 PUSH2 0x448A JUMP JUMPDEST SWAP5 POP PUSH2 0x4560 DUP4 PUSH2 0x51D6 JUMP JUMPDEST SWAP3 POP PUSH1 0x20 DUP11 ADD SWAP10 POP POP PUSH1 0x1 DUP2 ADD SWAP1 POP PUSH2 0x453C JUMP JUMPDEST POP DUP3 SWAP8 POP DUP8 SWAP6 POP POP POP POP POP POP SWAP3 SWAP2 POP POP JUMP JUMPDEST PUSH1 0x0 PUSH2 0x4591 DUP3 PUSH2 0x5194 JUMP JUMPDEST PUSH2 0x459B DUP2 DUP6 PUSH2 0x5235 JUMP JUMPDEST SWAP4 POP DUP4 PUSH1 0x20 DUP3 MUL DUP6 ADD PUSH2 0x45AD DUP6 PUSH2 0x5139 JUMP JUMPDEST DUP1 PUSH1 0x0 JUMPDEST DUP6 DUP2 LT ISZERO PUSH2 0x45E9 JUMPI DUP5 DUP5 SUB DUP10 MSTORE DUP2 MLOAD PUSH2 0x45CA DUP6 DUP3 PUSH2 0x449E JUMP JUMPDEST SWAP5 POP PUSH2 0x45D5 DUP4 PUSH2 0x51E3 JUMP JUMPDEST SWAP3 POP PUSH1 0x20 DUP11 ADD SWAP10 POP POP PUSH1 0x1 DUP2 ADD SWAP1 POP PUSH2 0x45B1 JUMP JUMPDEST POP DUP3 SWAP8 POP DUP8 SWAP6 POP POP POP POP POP POP SWAP3 SWAP2 POP POP JUMP JUMPDEST PUSH1 0x0 PUSH2 0x4606 DUP3 PUSH2 0x519F JUMP JUMPDEST PUSH2 0x4610 DUP2 DUP6 PUSH2 0x5246 JUMP JUMPDEST SWAP4 POP DUP4 PUSH1 0x20 DUP3 MUL DUP6 ADD PUSH2 0x4622 DUP6 PUSH2 0x5149 JUMP JUMPDEST DUP1 PUSH1 0x0 JUMPDEST DUP6 DUP2 LT ISZERO PUSH2 0x465E JUMPI DUP5 DUP5 SUB DUP10 MSTORE DUP2 MLOAD PUSH2 0x463F DUP6 DUP3 PUSH2 0x44B2 JUMP JUMPDEST SWAP5 POP PUSH2 0x464A DUP4 PUSH2 0x51F0 JUMP JUMPDEST SWAP3 POP PUSH1 0x20 DUP11 ADD SWAP10 POP POP PUSH1 0x1 DUP2 ADD SWAP1 POP PUSH2 0x4626 JUMP JUMPDEST POP DUP3 SWAP8 POP DUP8 SWAP6 POP POP POP POP POP POP SWAP3 SWAP2 POP POP JUMP JUMPDEST PUSH1 0x0 PUSH2 0x467B DUP3 PUSH2 0x51AA JUMP JUMPDEST PUSH2 0x4685 DUP2 DUP6 PUSH2 0x5257 JUMP JUMPDEST SWAP4 POP DUP4 PUSH1 0x20 DUP3 MUL DUP6 ADD PUSH2 0x4697 DUP6 PUSH2 0x5159 JUMP JUMPDEST DUP1 PUSH1 0x0 JUMPDEST DUP6 DUP2 LT ISZERO PUSH2 0x46D3 JUMPI DUP5 DUP5 SUB DUP10 MSTORE DUP2 MLOAD PUSH2 0x46B4 DUP6 DUP3 PUSH2 0x44C6 JUMP JUMPDEST SWAP5 POP PUSH2 0x46BF DUP4 PUSH2 0x51FD JUMP JUMPDEST SWAP3 POP PUSH1 0x20 DUP11 ADD SWAP10 POP POP PUSH1 0x1 DUP2 ADD SWAP1 POP PUSH2 0x469B JUMP JUMPDEST POP DUP3 SWAP8 POP DUP8 SWAP6 POP POP POP POP POP POP SWAP3 SWAP2 POP POP JUMP JUMPDEST PUSH1 0x0 PUSH2 0x46F0 DUP3 PUSH2 0x51B5 JUMP JUMPDEST PUSH2 0x46FA DUP2 DUP6 PUSH2 0x5268 JUMP JUMPDEST SWAP4 POP DUP4 PUSH1 0x20 DUP3 MUL DUP6 ADD PUSH2 0x470C DUP6 PUSH2 0x5169 JUMP JUMPDEST DUP1 PUSH1 0x0 JUMPDEST DUP6 DUP2 LT ISZERO PUSH2 0x4748 JUMPI DUP5 DUP5 SUB DUP10 MSTORE DUP2 MLOAD PUSH2 0x4729 DUP6 DUP3 PUSH2 0x44DA JUMP JUMPDEST SWAP5 POP PUSH2 0x4734 DUP4 PUSH2 0x520A JUMP JUMPDEST SWAP3 POP PUSH1 0x20 DUP11 ADD SWAP10 POP POP PUSH1 0x1 DUP2 ADD SWAP1 POP PUSH2 0x4710 JUMP JUMPDEST POP DUP3 SWAP8 POP DUP8 SWAP6 POP POP POP POP POP POP SWAP3 SWAP2 POP POP JUMP JUMPDEST PUSH1 0x0 PUSH2 0x4765 DUP3 PUSH2 0x51C0 JUMP JUMPDEST PUSH2 0x476F DUP2 DUP6 PUSH2 0x5279 JUMP JUMPDEST SWAP4 POP DUP4 PUSH1 0x20 DUP3 MUL DUP6 ADD PUSH2 0x4781 DUP6 PUSH2 0x5179 JUMP JUMPDEST DUP1 PUSH1 0x0 JUMPDEST DUP6 DUP2 LT ISZERO PUSH2 0x47BD JUMPI DUP5 DUP5 SUB DUP10 MSTORE DUP2 MLOAD PUSH2 0x479E DUP6 DUP3 PUSH2 0x44EE JUMP JUMPDEST SWAP5 POP PUSH2 0x47A9 DUP4 PUSH2 0x5217 JUMP JUMPDEST SWAP3 POP PUSH1 0x20 DUP11 ADD SWAP10 POP POP PUSH1 0x1 DUP2 ADD SWAP1 POP PUSH2 0x4785 JUMP JUMPDEST POP DUP3 SWAP8 POP DUP8 SWAP6 POP POP POP POP POP POP SWAP3 SWAP2 POP POP JUMP JUMPDEST PUSH2 0x47D8 DUP2 PUSH2 0x52BE JUMP JUMPDEST DUP3 MSTORE POP POP JUMP JUMPDEST PUSH2 0x47E7 DUP2 PUSH2 0x52BE JUMP JUMPDEST DUP3 MSTORE POP POP JUMP JUMPDEST PUSH2 0x47F6 DUP2 PUSH2 0x5332 JUMP JUMPDEST DUP3 MSTORE POP POP JUMP JUMPDEST PUSH1 0x0 PUSH2 0x4807 DUP3 PUSH2 0x51CB JUMP JUMPDEST PUSH2 0x4811 DUP2 DUP6 PUSH2 0x528A JUMP JUMPDEST SWAP4 POP PUSH2 0x4821 DUP2 DUP6 PUSH1 0x20 DUP7 ADD PUSH2 0x5353 JUMP JUMPDEST PUSH2 0x482A DUP2 PUSH2 0x5531 JUMP JUMPDEST DUP5 ADD SWAP2 POP POP SWAP3 SWAP2 POP POP JUMP JUMPDEST PUSH1 0x0 PUSH2 0x4840 DUP3 PUSH2 0x51CB JUMP JUMPDEST PUSH2 0x484A DUP2 DUP6 PUSH2 0x529B JUMP JUMPDEST SWAP4 POP PUSH2 0x485A DUP2 DUP6 PUSH1 0x20 DUP7 ADD PUSH2 0x5353 JUMP JUMPDEST PUSH2 0x4863 DUP2 PUSH2 0x5531 JUMP JUMPDEST DUP5 ADD SWAP2 POP POP SWAP3 SWAP2 POP POP JUMP JUMPDEST PUSH1 0x0 PUSH2 0x487B PUSH1 0x19 DUP4 PUSH2 0x529B JUMP JUMPDEST SWAP2 POP PUSH2 0x4886 DUP3 PUSH2 0x5542 JUMP JUMPDEST PUSH1 0x20 DUP3 ADD SWAP1 POP SWAP2 SWAP1 POP JUMP JUMPDEST PUSH1 0x0 PUSH2 0x489E PUSH1 0x17 DUP4 PUSH2 0x529B JUMP JUMPDEST SWAP2 POP PUSH2 0x48A9 DUP3 PUSH2 0x556B JUMP JUMPDEST PUSH1 0x20 DUP3 ADD SWAP1 POP SWAP2 SWAP1 POP JUMP JUMPDEST PUSH1 0x0 PUSH2 0x48C1 PUSH1 0x11 DUP4 PUSH2 0x529B JUMP JUMPDEST SWAP2 POP PUSH2 0x48CC DUP3 PUSH2 0x5594 JUMP JUMPDEST PUSH1 0x20 DUP3 ADD SWAP1 POP SWAP2 SWAP1 POP JUMP JUMPDEST PUSH1 0x0 PUSH2 0x48E4 PUSH1 0x18 DUP4 PUSH2 0x529B JUMP JUMPDEST SWAP2 POP PUSH2 0x48EF DUP3 PUSH2 0x55BD JUMP JUMPDEST PUSH1 0x20 DUP3 ADD SWAP1 POP SWAP2 SWAP1 POP JUMP JUMPDEST PUSH1 0x0 PUSH2 0x4907 PUSH1 0x12 DUP4 PUSH2 0x529B JUMP JUMPDEST SWAP2 POP PUSH2 0x4912 DUP3 PUSH2 0x55E6 JUMP JUMPDEST PUSH1 0x20 DUP3 ADD SWAP1 POP SWAP2 SWAP1 POP JUMP JUMPDEST PUSH1 0x0 PUSH2 0x492A PUSH1 0x1E DUP4 PUSH2 0x529B JUMP JUMPDEST SWAP2 POP PUSH2 0x4935 DUP3 PUSH2 0x560F JUMP JUMPDEST PUSH1 0x20 DUP3 ADD SWAP1 POP SWAP2 SWAP1 POP JUMP JUMPDEST PUSH1 0x0 PUSH2 0x494D PUSH1 0x1E DUP4 PUSH2 0x529B JUMP JUMPDEST SWAP2 POP PUSH2 0x4958 DUP3 PUSH2 0x5638 JUMP JUMPDEST PUSH1 0x20 DUP3 ADD SWAP1 POP SWAP2 SWAP1 POP JUMP JUMPDEST PUSH1 0x0 PUSH2 0x4970 PUSH1 0x22 DUP4 PUSH2 0x529B JUMP JUMPDEST SWAP2 POP PUSH2 0x497B DUP3 PUSH2 0x5661 JUMP JUMPDEST PUSH1 0x40 DUP3 ADD SWAP1 POP SWAP2 SWAP1 POP JUMP JUMPDEST PUSH1 0x0 PUSH2 0x4993 PUSH1 0x22 DUP4 PUSH2 0x529B JUMP JUMPDEST SWAP2 POP PUSH2 0x499E DUP3 PUSH2 0x56B0 JUMP JUMPDEST PUSH1 0x40 DUP3 ADD SWAP1 POP SWAP2 SWAP1 POP JUMP JUMPDEST PUSH1 0x0 PUSH2 0x49B6 PUSH1 0x17 DUP4 PUSH2 0x529B JUMP JUMPDEST SWAP2 POP PUSH2 0x49C1 DUP3 PUSH2 0x56FF JUMP JUMPDEST PUSH1 0x20 DUP3 ADD SWAP1 POP SWAP2 SWAP1 POP JUMP JUMPDEST PUSH1 0x0 PUSH2 0x49D9 PUSH1 0x1E DUP4 PUSH2 0x529B JUMP JUMPDEST SWAP2 POP PUSH2 0x49E4 DUP3 PUSH2 0x5728 JUMP JUMPDEST PUSH1 0x20 DUP3 ADD SWAP1 POP SWAP2 SWAP1 POP JUMP JUMPDEST PUSH1 0x0 PUSH2 0x49FC PUSH1 0x11 DUP4 PUSH2 0x529B JUMP JUMPDEST SWAP2 POP PUSH2 0x4A07 DUP3 PUSH2 0x5751 JUMP JUMPDEST PUSH1 0x20 DUP3 ADD SWAP1 POP SWAP2 SWAP1 POP JUMP JUMPDEST PUSH1 0x0 PUSH2 0x4A1F PUSH1 0x18 DUP4 PUSH2 0x529B JUMP JUMPDEST SWAP2 POP PUSH2 0x4A2A DUP3 PUSH2 0x577A JUMP JUMPDEST PUSH1 0x20 DUP3 ADD SWAP1 POP SWAP2 SWAP1 POP JUMP JUMPDEST PUSH1 0x0 PUSH2 0x4A42 PUSH1 0x12 DUP4 PUSH2 0x529B JUMP JUMPDEST SWAP2 POP PUSH2 0x4A4D DUP3 PUSH2 0x57A3 JUMP JUMPDEST PUSH1 0x20 DUP3 ADD SWAP1 POP SWAP2 SWAP1 POP JUMP JUMPDEST PUSH1 0x0 PUSH2 0x4A65 PUSH1 0x19 DUP4 PUSH2 0x529B JUMP JUMPDEST SWAP2 POP PUSH2 0x4A70 DUP3 PUSH2 0x57CC JUMP JUMPDEST PUSH1 0x20 DUP3 ADD SWAP1 POP SWAP2 SWAP1 POP JUMP JUMPDEST PUSH1 0x0 PUSH1 0x80 DUP4 ADD PUSH1 0x0 DUP4 ADD MLOAD PUSH2 0x4A93 PUSH1 0x0 DUP7 ADD DUP3 PUSH2 0x47CF JUMP JUMPDEST POP PUSH1 0x20 DUP4 ADD MLOAD PUSH2 0x4AA6 PUSH1 0x20 DUP7 ADD DUP3 PUSH2 0x4CAA JUMP JUMPDEST POP PUSH1 0x40 DUP4 ADD MLOAD PUSH2 0x4AB9 PUSH1 0x40 DUP7 ADD DUP3 PUSH2 0x4C7D JUMP JUMPDEST POP PUSH1 0x60 DUP4 ADD MLOAD DUP5 DUP3 SUB PUSH1 0x60 DUP7 ADD MSTORE PUSH2 0x4AD1 DUP3 DUP3 PUSH2 0x47FC JUMP JUMPDEST SWAP2 POP POP DUP1 SWAP2 POP POP SWAP3 SWAP2 POP POP JUMP JUMPDEST PUSH1 0x0 PUSH1 0x60 DUP4 ADD PUSH1 0x0 DUP4 ADD MLOAD PUSH2 0x4AF6 PUSH1 0x0 DUP7 ADD DUP3 PUSH2 0x47CF JUMP JUMPDEST POP PUSH1 0x20 DUP4 ADD MLOAD DUP5 DUP3 SUB PUSH1 0x20 DUP7 ADD MSTORE PUSH2 0x4B0E DUP3 DUP3 PUSH2 0x47FC JUMP JUMPDEST SWAP2 POP POP PUSH1 0x40 DUP4 ADD MLOAD PUSH2 0x4B23 PUSH1 0x40 DUP7 ADD DUP3 PUSH2 0x4CAA JUMP JUMPDEST POP DUP1 SWAP2 POP POP SWAP3 SWAP2 POP POP JUMP JUMPDEST PUSH1 0x0 PUSH1 0x60 DUP4 ADD PUSH1 0x0 DUP4 ADD MLOAD PUSH2 0x4B46 PUSH1 0x0 DUP7 ADD DUP3 PUSH2 0x47CF JUMP JUMPDEST POP PUSH1 0x20 DUP4 ADD MLOAD DUP5 DUP3 SUB PUSH1 0x20 DUP7 ADD MSTORE PUSH2 0x4B5E DUP3 DUP3 PUSH2 0x47FC JUMP JUMPDEST SWAP2 POP POP PUSH1 0x40 DUP4 ADD MLOAD PUSH2 0x4B73 PUSH1 0x40 DUP7 ADD DUP3 PUSH2 0x4CAA JUMP JUMPDEST POP DUP1 SWAP2 POP POP SWAP3 SWAP2 POP POP JUMP JUMPDEST PUSH1 0x0 PUSH1 0x60 DUP4 ADD PUSH1 0x0 DUP4 ADD MLOAD PUSH2 0x4B96 PUSH1 0x0 DUP7 ADD DUP3 PUSH2 0x47CF JUMP JUMPDEST POP PUSH1 0x20 DUP4 ADD MLOAD DUP5 DUP3 SUB PUSH1 0x20 DUP7 ADD MSTORE PUSH2 0x4BAE DUP3 DUP3 PUSH2 0x47FC JUMP JUMPDEST SWAP2 POP POP PUSH1 0x40 DUP4 ADD MLOAD PUSH2 0x4BC3 PUSH1 0x40 DUP7 ADD DUP3 PUSH2 0x4CAA JUMP JUMPDEST POP DUP1 SWAP2 POP POP SWAP3 SWAP2 POP POP JUMP JUMPDEST PUSH1 0x0 PUSH1 0x60 DUP4 ADD PUSH1 0x0 DUP4 ADD MLOAD PUSH2 0x4BE6 PUSH1 0x0 DUP7 ADD DUP3 PUSH2 0x47CF JUMP JUMPDEST POP PUSH1 0x20 DUP4 ADD MLOAD DUP5 DUP3 SUB PUSH1 0x20 DUP7 ADD MSTORE PUSH2 0x4BFE DUP3 DUP3 PUSH2 0x47FC JUMP JUMPDEST SWAP2 POP POP PUSH1 0x40 DUP4 ADD MLOAD PUSH2 0x4C13 PUSH1 0x40 DUP7 ADD DUP3 PUSH2 0x4CAA JUMP JUMPDEST POP DUP1 SWAP2 POP POP SWAP3 SWAP2 POP POP JUMP JUMPDEST PUSH1 0x0 PUSH1 0x60 DUP4 ADD PUSH1 0x0 DUP4 ADD MLOAD PUSH2 0x4C36 PUSH1 0x0 DUP7 ADD DUP3 PUSH2 0x47CF JUMP JUMPDEST POP PUSH1 0x20 DUP4 ADD MLOAD DUP5 DUP3 SUB PUSH1 0x20 DUP7 ADD MSTORE PUSH2 0x4C4E DUP3 DUP3 PUSH2 0x47FC JUMP JUMPDEST SWAP2 POP POP PUSH1 0x40 DUP4 ADD MLOAD PUSH2 0x4C63 PUSH1 0x40 DUP7 ADD DUP3 PUSH2 0x4CAA JUMP JUMPDEST POP DUP1 SWAP2 POP POP SWAP3 SWAP2 POP POP JUMP JUMPDEST PUSH2 0x4C77 DUP2 PUSH2 0x52DD JUMP JUMPDEST DUP3 MSTORE POP POP JUMP JUMPDEST PUSH2 0x4C86 DUP2 PUSH2 0x530B JUMP JUMPDEST DUP3 MSTORE POP POP JUMP JUMPDEST PUSH2 0x4C95 DUP2 PUSH2 0x530B JUMP JUMPDEST DUP3 MSTORE POP POP JUMP JUMPDEST PUSH2 0x4CA4 DUP2 PUSH2 0x5315 JUMP JUMPDEST DUP3 MSTORE POP POP JUMP JUMPDEST PUSH2 0x4CB3 DUP2 PUSH2 0x5325 JUMP JUMPDEST DUP3 MSTORE POP POP JUMP JUMPDEST PUSH2 0x4CC2 DUP2 PUSH2 0x5325 JUMP JUMPDEST DUP3 MSTORE POP POP JUMP JUMPDEST PUSH1 0x0 PUSH1 0x20 DUP3 ADD SWAP1 POP PUSH2 0x4CDD PUSH1 0x0 DUP4 ADD DUP5 PUSH2 0x4502 JUMP JUMPDEST SWAP3 SWAP2 POP POP JUMP JUMPDEST PUSH1 0x0 PUSH1 0x20 DUP3 ADD SWAP1 POP DUP2 DUP2 SUB PUSH1 0x0 DUP4 ADD MSTORE PUSH2 0x4CFD DUP2 DUP5 PUSH2 0x4511 JUMP JUMPDEST SWAP1 POP SWAP3 SWAP2 POP POP JUMP JUMPDEST PUSH1 0x0 PUSH1 0x20 DUP3 ADD SWAP1 POP DUP2 DUP2 SUB PUSH1 0x0 DUP4 ADD MSTORE PUSH2 0x4D1F DUP2 DUP5 PUSH2 0x4586 JUMP JUMPDEST SWAP1 POP SWAP3 SWAP2 POP POP JUMP JUMPDEST PUSH1 0x0 PUSH1 0x20 DUP3 ADD SWAP1 POP DUP2 DUP2 SUB PUSH1 0x0 DUP4 ADD MSTORE PUSH2 0x4D41 DUP2 DUP5 PUSH2 0x45FB JUMP JUMPDEST SWAP1 POP SWAP3 SWAP2 POP POP JUMP JUMPDEST PUSH1 0x0 PUSH1 0x20 DUP3 ADD SWAP1 POP DUP2 DUP2 SUB PUSH1 0x0 DUP4 ADD MSTORE PUSH2 0x4D63 DUP2 DUP5 PUSH2 0x4670 JUMP JUMPDEST SWAP1 POP SWAP3 SWAP2 POP POP JUMP JUMPDEST PUSH1 0x0 PUSH1 0x20 DUP3 ADD SWAP1 POP DUP2 DUP2 SUB PUSH1 0x0 DUP4 ADD MSTORE PUSH2 0x4D85 DUP2 DUP5 PUSH2 0x46E5 JUMP JUMPDEST SWAP1 POP SWAP3 SWAP2 POP POP JUMP JUMPDEST PUSH1 0x0 PUSH1 0x20 DUP3 ADD SWAP1 POP DUP2 DUP2 SUB PUSH1 0x0 DUP4 ADD MSTORE PUSH2 0x4DA7 DUP2 DUP5 PUSH2 0x475A JUMP JUMPDEST SWAP1 POP SWAP3 SWAP2 POP POP JUMP JUMPDEST PUSH1 0x0 PUSH1 0x20 DUP3 ADD SWAP1 POP PUSH2 0x4DC4 PUSH1 0x0 DUP4 ADD DUP5 PUSH2 0x47DE JUMP JUMPDEST SWAP3 SWAP2 POP POP JUMP JUMPDEST PUSH1 0x0 PUSH1 0xC0 DUP3 ADD SWAP1 POP PUSH2 0x4DDF PUSH1 0x0 DUP4 ADD DUP10 PUSH2 0x47DE JUMP JUMPDEST PUSH2 0x4DEC PUSH1 0x20 DUP4 ADD DUP9 PUSH2 0x4502 JUMP JUMPDEST PUSH2 0x4DF9 PUSH1 0x40 DUP4 ADD DUP8 PUSH2 0x4C6E JUMP JUMPDEST PUSH2 0x4E06 PUSH1 0x60 DUP4 ADD DUP7 PUSH2 0x47ED JUMP JUMPDEST DUP2 DUP2 SUB PUSH1 0x80 DUP4 ADD MSTORE PUSH2 0x4E18 DUP2 DUP6 PUSH2 0x4835 JUMP JUMPDEST SWAP1 POP DUP2 DUP2 SUB PUSH1 0xA0 DUP4 ADD MSTORE PUSH2 0x4E2C DUP2 DUP5 PUSH2 0x4835 JUMP JUMPDEST SWAP1 POP SWAP8 SWAP7 POP POP POP POP POP POP POP JUMP JUMPDEST PUSH1 0x0 PUSH1 0x60 DUP3 ADD SWAP1 POP PUSH2 0x4E4E PUSH1 0x0 DUP4 ADD DUP7 PUSH2 0x47DE JUMP JUMPDEST DUP2 DUP2 SUB PUSH1 0x20 DUP4 ADD MSTORE PUSH2 0x4E60 DUP2 DUP6 PUSH2 0x4835 JUMP JUMPDEST SWAP1 POP PUSH2 0x4E6F PUSH1 0x40 DUP4 ADD DUP5 PUSH2 0x4CB9 JUMP JUMPDEST SWAP5 SWAP4 POP POP POP POP JUMP JUMPDEST PUSH1 0x0 PUSH1 0x80 DUP3 ADD SWAP1 POP PUSH2 0x4E8C PUSH1 0x0 DUP4 ADD DUP8 PUSH2 0x47DE JUMP JUMPDEST PUSH2 0x4E99 PUSH1 0x20 DUP4 ADD DUP7 PUSH2 0x4CB9 JUMP JUMPDEST PUSH2 0x4EA6 PUSH1 0x40 DUP4 ADD DUP6 PUSH2 0x4C8C JUMP JUMPDEST DUP2 DUP2 SUB PUSH1 0x60 DUP4 ADD MSTORE PUSH2 0x4EB8 DUP2 DUP5 PUSH2 0x4835 JUMP JUMPDEST SWAP1 POP SWAP6 SWAP5 POP POP POP POP POP JUMP JUMPDEST PUSH1 0x0 PUSH1 0x20 DUP3 ADD SWAP1 POP DUP2 DUP2 SUB PUSH1 0x0 DUP4 ADD MSTORE PUSH2 0x4EDC DUP2 PUSH2 0x486E JUMP JUMPDEST SWAP1 POP SWAP2 SWAP1 POP JUMP JUMPDEST PUSH1 0x0 PUSH1 0x20 DUP3 ADD SWAP1 POP DUP2 DUP2 SUB PUSH1 0x0 DUP4 ADD MSTORE PUSH2 0x4EFC DUP2 PUSH2 0x4891 JUMP JUMPDEST SWAP1 POP SWAP2 SWAP1 POP JUMP JUMPDEST PUSH1 0x0 PUSH1 0x20 DUP3 ADD SWAP1 POP DUP2 DUP2 SUB PUSH1 0x0 DUP4 ADD MSTORE PUSH2 0x4F1C DUP2 PUSH2 0x48B4 JUMP JUMPDEST SWAP1 POP SWAP2 SWAP1 POP JUMP JUMPDEST PUSH1 0x0 PUSH1 0x20 DUP3 ADD SWAP1 POP DUP2 DUP2 SUB PUSH1 0x0 DUP4 ADD MSTORE PUSH2 0x4F3C DUP2 PUSH2 0x48D7 JUMP JUMPDEST SWAP1 POP SWAP2 SWAP1 POP JUMP JUMPDEST PUSH1 0x0 PUSH1 0x20 DUP3 ADD SWAP1 POP DUP2 DUP2 SUB PUSH1 0x0 DUP4 ADD MSTORE PUSH2 0x4F5C DUP2 PUSH2 0x48FA JUMP JUMPDEST SWAP1 POP SWAP2 SWAP1 POP JUMP JUMPDEST PUSH1 0x0 PUSH1 0x20 DUP3 ADD SWAP1 POP DUP2 DUP2 SUB PUSH1 0x0 DUP4 ADD MSTORE PUSH2 0x4F7C DUP2 PUSH2 0x491D JUMP JUMPDEST SWAP1 POP SWAP2 SWAP1 POP JUMP JUMPDEST PUSH1 0x0 PUSH1 0x20 DUP3 ADD SWAP1 POP DUP2 DUP2 SUB PUSH1 0x0 DUP4 ADD MSTORE PUSH2 0x4F9C DUP2 PUSH2 0x4940 JUMP JUMPDEST SWAP1 POP SWAP2 SWAP1 POP JUMP JUMPDEST PUSH1 0x0 PUSH1 0x20 DUP3 ADD SWAP1 POP DUP2 DUP2 SUB PUSH1 0x0 DUP4 ADD MSTORE PUSH2 0x4FBC DUP2 PUSH2 0x4963 JUMP JUMPDEST SWAP1 POP SWAP2 SWAP1 POP JUMP JUMPDEST PUSH1 0x0 PUSH1 0x20 DUP3 ADD SWAP1 POP DUP2 DUP2 SUB PUSH1 0x0 DUP4 ADD MSTORE PUSH2 0x4FDC DUP2 PUSH2 0x4986 JUMP JUMPDEST SWAP1 POP SWAP2 SWAP1 POP JUMP JUMPDEST PUSH1 0x0 PUSH1 0x20 DUP3 ADD SWAP1 POP DUP2 DUP2 SUB PUSH1 0x0 DUP4 ADD MSTORE PUSH2 0x4FFC DUP2 PUSH2 0x49A9 JUMP JUMPDEST SWAP1 POP SWAP2 SWAP1 POP JUMP JUMPDEST PUSH1 0x0 PUSH1 0x20 DUP3 ADD SWAP1 POP DUP2 DUP2 SUB PUSH1 0x0 DUP4 ADD MSTORE PUSH2 0x501C DUP2 PUSH2 0x49CC JUMP JUMPDEST SWAP1 POP SWAP2 SWAP1 POP JUMP JUMPDEST PUSH1 0x0 PUSH1 0x20 DUP3 ADD SWAP1 POP DUP2 DUP2 SUB PUSH1 0x0 DUP4 ADD MSTORE PUSH2 0x503C DUP2 PUSH2 0x49EF JUMP JUMPDEST SWAP1 POP SWAP2 SWAP1 POP JUMP JUMPDEST PUSH1 0x0 PUSH1 0x20 DUP3 ADD SWAP1 POP DUP2 DUP2 SUB PUSH1 0x0 DUP4 ADD MSTORE PUSH2 0x505C DUP2 PUSH2 0x4A12 JUMP JUMPDEST SWAP1 POP SWAP2 SWAP1 POP JUMP JUMPDEST PUSH1 0x0 PUSH1 0x20 DUP3 ADD SWAP1 POP DUP2 DUP2 SUB PUSH1 0x0 DUP4 ADD MSTORE PUSH2 0x507C DUP2 PUSH2 0x4A35 JUMP JUMPDEST SWAP1 POP SWAP2 SWAP1 POP JUMP JUMPDEST PUSH1 0x0 PUSH1 0x20 DUP3 ADD SWAP1 POP DUP2 DUP2 SUB PUSH1 0x0 DUP4 ADD MSTORE PUSH2 0x509C DUP2 PUSH2 0x4A58 JUMP JUMPDEST SWAP1 POP SWAP2 SWAP1 POP JUMP JUMPDEST PUSH1 0x0 PUSH1 0x40 DUP3 ADD SWAP1 POP PUSH2 0x50B8 PUSH1 0x0 DUP4 ADD DUP6 PUSH2 0x4C9B JUMP JUMPDEST DUP2 DUP2 SUB PUSH1 0x20 DUP4 ADD MSTORE PUSH2 0x50CA DUP2 DUP5 PUSH2 0x4835 JUMP JUMPDEST SWAP1 POP SWAP4 SWAP3 POP POP POP JUMP JUMPDEST PUSH1 0x0 PUSH2 0x50DD PUSH2 0x50EE JUMP JUMPDEST SWAP1 POP PUSH2 0x50E9 DUP3 DUP3 PUSH2 0x53B8 JUMP JUMPDEST SWAP2 SWAP1 POP JUMP JUMPDEST PUSH1 0x0 PUSH1 0x40 MLOAD SWAP1 POP SWAP1 JUMP JUMPDEST PUSH1 0x0 PUSH8 0xFFFFFFFFFFFFFFFF DUP3 GT ISZERO PUSH2 0x5113 JUMPI PUSH2 0x5112 PUSH2 0x54EE JUMP JUMPDEST JUMPDEST PUSH2 0x511C DUP3 PUSH2 0x5531 JUMP JUMPDEST SWAP1 POP PUSH1 0x20 DUP2 ADD SWAP1 POP SWAP2 SWAP1 POP JUMP JUMPDEST PUSH1 0x0 DUP2 SWAP1 POP PUSH1 0x20 DUP3 ADD SWAP1 POP SWAP2 SWAP1 POP JUMP JUMPDEST PUSH1 0x0 DUP2 SWAP1 POP PUSH1 0x20 DUP3 ADD SWAP1 POP SWAP2 SWAP1 POP JUMP JUMPDEST PUSH1 0x0 DUP2 SWAP1 POP PUSH1 0x20 DUP3 ADD SWAP1 POP SWAP2 SWAP1 POP JUMP JUMPDEST PUSH1 0x0 DUP2 SWAP1 POP PUSH1 0x20 DUP3 ADD SWAP1 POP SWAP2 SWAP1 POP JUMP JUMPDEST PUSH1 0x0 DUP2 SWAP1 POP PUSH1 0x20 DUP3 ADD SWAP1 POP SWAP2 SWAP1 POP JUMP JUMPDEST PUSH1 0x0 DUP2 SWAP1 POP PUSH1 0x20 DUP3 ADD SWAP1 POP SWAP2 SWAP1 POP JUMP JUMPDEST PUSH1 0x0 DUP2 MLOAD SWAP1 POP SWAP2 SWAP1 POP JUMP JUMPDEST PUSH1 0x0 DUP2 MLOAD SWAP1 POP SWAP2 SWAP1 POP JUMP JUMPDEST PUSH1 0x0 DUP2 MLOAD SWAP1 POP SWAP2 SWAP1 POP JUMP JUMPDEST PUSH1 0x0 DUP2 MLOAD SWAP1 POP SWAP2 SWAP1 POP JUMP JUMPDEST PUSH1 0x0 DUP2 MLOAD SWAP1 POP SWAP2 SWAP1 POP JUMP JUMPDEST PUSH1 0x0 DUP2 MLOAD SWAP1 POP SWAP2 SWAP1 POP JUMP JUMPDEST PUSH1 0x0 DUP2 MLOAD SWAP1 POP SWAP2 SWAP1 POP JUMP JUMPDEST PUSH1 0x0 PUSH1 0x20 DUP3 ADD SWAP1 POP SWAP2 SWAP1 POP JUMP JUMPDEST PUSH1 0x0 PUSH1 0x20 DUP3 ADD SWAP1 POP SWAP2 SWAP1 POP JUMP JUMPDEST PUSH1 0x0 PUSH1 0x20 DUP3 ADD SWAP1 POP SWAP2 SWAP1 POP JUMP JUMPDEST PUSH1 0x0 PUSH1 0x20 DUP3 ADD SWAP1 POP SWAP2 SWAP1 POP JUMP JUMPDEST PUSH1 0x0 PUSH1 0x20 DUP3 ADD SWAP1 POP SWAP2 SWAP1 POP JUMP JUMPDEST PUSH1 0x0 PUSH1 0x20 DUP3 ADD SWAP1 POP SWAP2 SWAP1 POP JUMP JUMPDEST PUSH1 0x0 DUP3 DUP3 MSTORE PUSH1 0x20 DUP3 ADD SWAP1 POP SWAP3 SWAP2 POP POP JUMP JUMPDEST PUSH1 0x0 DUP3 DUP3 MSTORE PUSH1 0x20 DUP3 ADD SWAP1 POP SWAP3 SWAP2 POP POP JUMP JUMPDEST PUSH1 0x0 DUP3 DUP3 MSTORE PUSH1 0x20 DUP3 ADD SWAP1 POP SWAP3 SWAP2 POP POP JUMP JUMPDEST PUSH1 0x0 DUP3 DUP3 MSTORE PUSH1 0x20 DUP3 ADD SWAP1 POP SWAP3 SWAP2 POP POP JUMP JUMPDEST PUSH1 0x0 DUP3 DUP3 MSTORE PUSH1 0x20 DUP3 ADD SWAP1 POP SWAP3 SWAP2 POP POP JUMP JUMPDEST PUSH1 0x0 DUP3 DUP3 MSTORE PUSH1 0x20 DUP3 ADD SWAP1 POP SWAP3 SWAP2 POP POP JUMP JUMPDEST PUSH1 0x0 DUP3 DUP3 MSTORE PUSH1 0x20 DUP3 ADD SWAP1 POP SWAP3 SWAP2 POP POP JUMP JUMPDEST PUSH1 0x0 DUP3 DUP3 MSTORE PUSH1 0x20 DUP3 ADD SWAP1 POP SWAP3 SWAP2 POP POP JUMP JUMPDEST PUSH1 0x0 PUSH2 0x52B7 DUP3 PUSH2 0x52EB JUMP JUMPDEST SWAP1 POP SWAP2 SWAP1 POP JUMP JUMPDEST PUSH1 0x0 DUP2 ISZERO ISZERO SWAP1 POP SWAP2 SWAP1 POP JUMP JUMPDEST PUSH1 0x0 DUP2 SWAP1 POP PUSH2 0x52D8 DUP3 PUSH2 0x57F5 JUMP JUMPDEST SWAP2 SWAP1 POP JUMP JUMPDEST PUSH1 0x0 PUSH2 0xFFFF DUP3 AND SWAP1 POP SWAP2 SWAP1 POP JUMP JUMPDEST PUSH1 0x0 PUSH20 0xFFFFFFFFFFFFFFFFFFFFFFFFFFFFFFFFFFFFFFFF DUP3 AND SWAP1 POP SWAP2 SWAP1 POP JUMP JUMPDEST PUSH1 0x0 DUP2 SWAP1 POP SWAP2 SWAP1 POP JUMP JUMPDEST PUSH1 0x0 PUSH4 0xFFFFFFFF DUP3 AND SWAP1 POP SWAP2 SWAP1 POP JUMP JUMPDEST PUSH1 0x0 PUSH1 0xFF DUP3 AND SWAP1 POP SWAP2 SWAP1 POP JUMP JUMPDEST PUSH1 0x0 PUSH2 0x533D DUP3 PUSH2 0x52CA JUMP JUMPDEST SWAP1 POP SWAP2 SWAP1 POP JUMP JUMPDEST DUP3 DUP2 DUP4 CALLDATACOPY PUSH1 0x0 DUP4 DUP4 ADD MSTORE POP POP POP JUMP JUMPDEST PUSH1 0x0 JUMPDEST DUP4 DUP2 LT ISZERO PUSH2 0x5371 JUMPI DUP1 DUP3 ADD MLOAD DUP2 DUP5 ADD MSTORE PUSH1 0x20 DUP2 ADD SWAP1 POP PUSH2 0x5356 JUMP JUMPDEST DUP4 DUP2 GT ISZERO PUSH2 0x5380 JUMPI PUSH1 0x0 DUP5 DUP5 ADD MSTORE JUMPDEST POP POP POP POP JUMP JUMPDEST PUSH1 0x0 PUSH1 0x2 DUP3 DIV SWAP1 POP PUSH1 0x1 DUP3 AND DUP1 PUSH2 0x539E JUMPI PUSH1 0x7F DUP3 AND SWAP2 POP JUMPDEST PUSH1 0x20 DUP3 LT DUP2 EQ ISZERO PUSH2 0x53B2 JUMPI PUSH2 0x53B1 PUSH2 0x5490 JUMP JUMPDEST JUMPDEST POP SWAP2 SWAP1 POP JUMP JUMPDEST PUSH2 0x53C1 DUP3 PUSH2 0x5531 JUMP JUMPDEST DUP2 ADD DUP2 DUP2 LT PUSH8 0xFFFFFFFFFFFFFFFF DUP3 GT OR ISZERO PUSH2 0x53E0 JUMPI PUSH2 0x53DF PUSH2 0x54EE JUMP JUMPDEST JUMPDEST DUP1 PUSH1 0x40 MSTORE POP POP POP JUMP JUMPDEST PUSH1 0x0 PUSH2 0x53F4 DUP3 PUSH2 0x530B JUMP JUMPDEST SWAP2 POP PUSH32 0xFFFFFFFFFFFFFFFFFFFFFFFFFFFFFFFFFFFFFFFFFFFFFFFFFFFFFFFFFFFFFFFF DUP3 EQ ISZERO PUSH2 0x5427 JUMPI PUSH2 0x5426 PUSH2 0x5432 JUMP JUMPDEST JUMPDEST PUSH1 0x1 DUP3 ADD SWAP1 POP SWAP2 SWAP1 POP JUMP JUMPDEST PUSH32 0x4E487B7100000000000000000000000000000000000000000000000000000000 PUSH1 0x0 MSTORE PUSH1 0x11 PUSH1 0x4 MSTORE PUSH1 0x24 PUSH1 0x0 REVERT JUMPDEST PUSH32 0x4E487B7100000000000000000000000000000000000000000000000000000000 PUSH1 0x0 MSTORE PUSH1 0x21 PUSH1 0x4 MSTORE PUSH1 0x24 PUSH1 0x0 REVERT JUMPDEST PUSH32 0x4E487B7100000000000000000000000000000000000000000000000000000000 PUSH1 0x0 MSTORE PUSH1 0x22 PUSH1 0x4 MSTORE PUSH1 0x24 PUSH1 0x0 REVERT JUMPDEST PUSH32 0x4E487B7100000000000000000000000000000000000000000000000000000000 PUSH1 0x0 MSTORE PUSH1 0x32 PUSH1 0x4 MSTORE PUSH1 0x24 PUSH1 0x0 REVERT JUMPDEST PUSH32 0x4E487B7100000000000000000000000000000000000000000000000000000000 PUSH1 0x0 MSTORE PUSH1 0x41 PUSH1 0x4 MSTORE PUSH1 0x24 PUSH1 0x0 REVERT JUMPDEST PUSH1 0x0 DUP1 REVERT JUMPDEST PUSH1 0x0 DUP1 REVERT JUMPDEST PUSH1 0x0 DUP1 REVERT JUMPDEST PUSH1 0x0 DUP1 REVERT JUMPDEST PUSH1 0x0 PUSH1 0x1F NOT PUSH1 0x1F DUP4 ADD AND SWAP1 POP SWAP2 SWAP1 POP JUMP JUMPDEST PUSH32 0x4B757273204D65726B657A69205A6174656E204D657663757400000000000000 PUSH1 0x0 DUP3 ADD MSTORE POP JUMP JUMPDEST PUSH32 0x556E6976657273697465204D657663757420446567696C000000000000000000 PUSH1 0x0 DUP3 ADD MSTORE POP JUMP JUMPDEST PUSH32 0x4B697369204D657663757420446567696C000000000000000000000000000000 PUSH1 0x0 DUP3 ADD MSTORE POP JUMP JUMPDEST PUSH32 0x4B616D75204B7572756D75205A6174656E204D65766375740000000000000000 PUSH1 0x0 DUP3 ADD MSTORE POP JUMP JUMPDEST PUSH32 0x4669726D61205A6174656E204D65766375740000000000000000000000000000 PUSH1 0x0 DUP3 ADD MSTORE POP JUMP JUMPDEST PUSH32 0x5361646563652043422062752069736C656D69207961706162696C69722E0000 PUSH1 0x0 DUP3 ADD MSTORE POP JUMP JUMPDEST PUSH32 0x536572746966696B61204D65726B657A69205A6174656E204D65766375740000 PUSH1 0x0 DUP3 ADD MSTORE POP JUMP JUMPDEST PUSH32 0x536976696C20546F706C756D204B7572756C757375204D657663757420446567 PUSH1 0x0 DUP3 ADD MSTORE PUSH32 0x696C000000000000000000000000000000000000000000000000000000000000 PUSH1 0x20 DUP3 ADD MSTORE POP JUMP JUMPDEST PUSH32 0x536976696C20546F706C756D204B7572756C757375205A6174656E204D657663 PUSH1 0x0 DUP3 ADD MSTORE PUSH32 0x7574000000000000000000000000000000000000000000000000000000000000 PUSH1 0x20 DUP3 ADD MSTORE POP JUMP JUMPDEST PUSH32 0x556E6976657273697465205A6174656E204D6576637574000000000000000000 PUSH1 0x0 DUP3 ADD MSTORE POP JUMP JUMPDEST PUSH32 0x536572746966696B61204D65726B657A69204D657663757420446567696C0000 PUSH1 0x0 DUP3 ADD MSTORE POP JUMP JUMPDEST PUSH32 0x4B697369205A6174656E204D6576637574000000000000000000000000000000 PUSH1 0x0 DUP3 ADD MSTORE POP JUMP JUMPDEST PUSH32 0x4B616D75204B7572756D75204D657663757420446567696C0000000000000000 PUSH1 0x0 DUP3 ADD MSTORE POP JUMP JUMPDEST PUSH32 0x4669726D61204D657663757420446567696C0000000000000000000000000000 PUSH1 0x0 DUP3 ADD MSTORE POP JUMP JUMPDEST PUSH32 0x4B757273204D65726B657A69204D657663757420446567696C00000000000000 PUSH1 0x0 DUP3 ADD MSTORE POP JUMP JUMPDEST PUSH1 0x4 DUP2 LT PUSH2 0x5806 JUMPI PUSH2 0x5805 PUSH2 0x5461 JUMP JUMPDEST JUMPDEST POP JUMP JUMPDEST PUSH2 0x5812 DUP2 PUSH2 0x52AC JUMP JUMPDEST DUP2 EQ PUSH2 0x581D JUMPI PUSH1 0x0 DUP1 REVERT JUMPDEST POP JUMP JUMPDEST PUSH2 0x5829 DUP2 PUSH2 0x52BE JUMP JUMPDEST DUP2 EQ PUSH2 0x5834 JUMPI PUSH1 0x0 DUP1 REVERT JUMPDEST POP JUMP JUMPDEST PUSH2 0x5840 DUP2 PUSH2 0x530B JUMP JUMPDEST DUP2 EQ PUSH2 0x584B JUMPI PUSH1 0x0 DUP1 REVERT JUMPDEST POP JUMP JUMPDEST PUSH2 0x5857 DUP2 PUSH2 0x5315 JUMP JUMPDEST DUP2 EQ PUSH2 0x5862 JUMPI PUSH1 0x0 DUP1 REVERT JUMPDEST POP JUMP JUMPDEST PUSH2 0x586E DUP2 PUSH2 0x5325 JUMP JUMPDEST DUP2 EQ PUSH2 0x5879 JUMPI PUSH1 0x0 DUP1 REVERT JUMPDEST POP JUMP INVALID LOG2 PUSH5 0x6970667358 0x22 SLT KECCAK256 0x4D SWAP16 0xC8 PUSH3 0x766780 0xB5 LT 0xBA 0xE7 RETURNDATACOPY EQ SHL MSTORE DUP13 DUP11 PUSH7 0x5698E768BD2A7D DUP8 CHAINID DIFFICULTY CALL 0xB6 0xB0 0xF7 PUSH5 0x736F6C6343 STOP ADDMOD SMOD STOP CALLER "
				},
				"gasEstimates": {
					"creation": {
						"codeDepositCost": "4541200",
						"executionCost": "5295",
						"totalCost": "4546495"
					},
					"external": {
						"YOK()": "2645",
						"akademisyenler(address)": "infinite",
						"diller(uint32)": "infinite",
						"ekleFirma(address,string,uint256,uint8)": "infinite",
						"ekleKamuKurumu(address,string,uint8)": "infinite",
						"ekleKisi(address)": "75780",
						"ekleKurs(address,string,uint8)": "infinite",
						"ekleSTK(address,string,uint8)": "infinite",
						"ekleSertifikaMerkezi(address,string,uint8)": "infinite",
						"ekleUniversite(address,string,uint8)": "infinite",
						"firmaAdresleri(uint256)": "5046",
						"firmalar(address)": "infinite",
						"getFirmaListesi()": "infinite",
						"getKamuKurumuListesi()": "infinite",
						"getKursListesi()": "infinite",
						"getSmListesi()": "infinite",
						"getStkListesi()": "infinite",
						"getUniversiteListesi()": "infinite",
						"guncelleFirma(address,string,uint256,uint8)": "infinite",
						"guncelleKamuKurumu(address,string,uint8)": "infinite",
						"guncelleKisi(address,bool)": "27355",
						"guncelleKurs(address,string,uint8)": "infinite",
						"guncelleSTK(address,string,uint8)": "infinite",
						"guncelleSertifikaMerkezi(address,string,uint8)": "infinite",
						"guncelleUniversite(address,string,uint8)": "infinite",
						"isCB(address)": "2944",
						"isFirma(address)": "3001",
						"isKamuKurumu(address)": "2979",
						"isKisi(address)": "3023",
						"isKurs(address)": "2958",
						"isSTK(address)": "3001",
						"isSertifikaMerkezi(address)": "3000",
						"isTOBB(address)": "2946",
						"isUniversite(address)": "2978",
						"isYOK(address)": "2920",
						"kamuKurumAdresleri(uint256)": "5047",
						"kamuKurumlari(address)": "infinite",
						"kisiAdresleri(uint256)": "5067",
						"kisiler(address)": "2937",
						"kursAdresleri(uint256)": "5023",
						"kurslar(address)": "infinite",
						"paydasTanimla(address,address,address)": "infinite",
						"sertifikaMerkezleri(address)": "infinite",
						"silFirma(address)": "infinite",
						"silKamuKurumu(address)": "infinite",
						"silKisi(address)": "27185",
						"silKurs(address)": "infinite",
						"silSTK(address)": "infinite",
						"silSertifikaMerkezi(address)": "infinite",
						"silUniversite(address)": "infinite",
						"smAdresleri(uint256)": "5069",
						"stkAdresleri(uint256)": "5023",
						"stklar(address)": "infinite",
						"universiteAdresleri(uint256)": "5024",
						"universiteler(address)": "infinite"
					}
				},
				"methodIdentifiers": {
					"YOK()": "71af892d",
					"akademisyenler(address)": "ba479b7e",
					"diller(uint32)": "a4e7ae05",
					"ekleFirma(address,string,uint256,uint8)": "d25aab85",
					"ekleKamuKurumu(address,string,uint8)": "f63c649f",
					"ekleKisi(address)": "f54acc65",
					"ekleKurs(address,string,uint8)": "46224853",
					"ekleSTK(address,string,uint8)": "19023bf3",
					"ekleSertifikaMerkezi(address,string,uint8)": "9dc30114",
					"ekleUniversite(address,string,uint8)": "001d54ab",
					"firmaAdresleri(uint256)": "b07b0e5a",
					"firmalar(address)": "39987f94",
					"getFirmaListesi()": "d508602d",
					"getKamuKurumuListesi()": "d71ed8b1",
					"getKursListesi()": "d0d6b7a3",
					"getSmListesi()": "fd738e6d",
					"getStkListesi()": "a29879c0",
					"getUniversiteListesi()": "871db892",
					"guncelleFirma(address,string,uint256,uint8)": "a81dc179",
					"guncelleKamuKurumu(address,string,uint8)": "150596f4",
					"guncelleKisi(address,bool)": "f1981850",
					"guncelleKurs(address,string,uint8)": "d5f6d56c",
					"guncelleSTK(address,string,uint8)": "91e9528a",
					"guncelleSertifikaMerkezi(address,string,uint8)": "b2a825bb",
					"guncelleUniversite(address,string,uint8)": "c6da8cfe",
					"isCB(address)": "e5130508",
					"isFirma(address)": "2d087d70",
					"isKamuKurumu(address)": "514e03c7",
					"isKisi(address)": "b98ccefd",
					"isKurs(address)": "024eb6bc",
					"isSTK(address)": "8c848885",
					"isSertifikaMerkezi(address)": "e24047ca",
					"isTOBB(address)": "139884ec",
					"isUniversite(address)": "f0040eb9",
					"isYOK(address)": "d7396414",
					"kamuKurumAdresleri(uint256)": "0a33e3eb",
					"kamuKurumlari(address)": "7d0fa287",
					"kisiAdresleri(uint256)": "f1403851",
					"kisiler(address)": "cbc92809",
					"kursAdresleri(uint256)": "e8abb184",
					"kurslar(address)": "1916e139",
					"paydasTanimla(address,address,address)": "36fd2633",
					"sertifikaMerkezleri(address)": "356b1f1e",
					"silFirma(address)": "1d595580",
					"silKamuKurumu(address)": "50d2a060",
					"silKisi(address)": "bd35a506",
					"silKurs(address)": "afb61b1e",
					"silSTK(address)": "d88d8c12",
					"silSertifikaMerkezi(address)": "548fa620",
					"silUniversite(address)": "9bfc4dbd",
					"smAdresleri(uint256)": "0b877ca7",
					"stkAdresleri(uint256)": "d7909777",
					"stklar(address)": "9a8c9119",
					"universiteAdresleri(uint256)": "1f145f47",
					"universiteler(address)": "28266697"
				}
			},
			"storageLayout": {
				"storage": [
					{
						"astId": 3,
						"contract": "contracts/BaseContract.sol:BaseContract",
						"label": "YOK",
						"offset": 0,
						"slot": "0",
						"type": "t_address"
					},
					{
						"astId": 5,
						"contract": "contracts/BaseContract.sol:BaseContract",
						"label": "TOBB",
						"offset": 0,
						"slot": "1",
						"type": "t_address"
					},
					{
						"astId": 7,
						"contract": "contracts/BaseContract.sol:BaseContract",
						"label": "CB",
						"offset": 0,
						"slot": "2",
						"type": "t_address"
					},
					{
						"astId": 412,
						"contract": "contracts/BaseContract.sol:BaseContract",
						"label": "kisiler",
						"offset": 0,
						"slot": "3",
						"type": "t_mapping(t_address,t_struct(Kisi)32_storage)"
					},
					{
						"astId": 417,
						"contract": "contracts/BaseContract.sol:BaseContract",
						"label": "universiteler",
						"offset": 0,
						"slot": "4",
						"type": "t_mapping(t_address,t_struct(Universite)65_storage)"
					},
					{
						"astId": 422,
						"contract": "contracts/BaseContract.sol:BaseContract",
						"label": "akademisyenler",
						"offset": 0,
						"slot": "5",
						"type": "t_mapping(t_address,t_struct(Akademisyen)79_storage)"
					},
					{
						"astId": 427,
						"contract": "contracts/BaseContract.sol:BaseContract",
						"label": "firmalar",
						"offset": 0,
						"slot": "6",
						"type": "t_mapping(t_address,t_struct(Firma)119_storage)"
					},
					{
						"astId": 432,
						"contract": "contracts/BaseContract.sol:BaseContract",
						"label": "kurslar",
						"offset": 0,
						"slot": "7",
						"type": "t_mapping(t_address,t_struct(Kurs)147_storage)"
					},
					{
						"astId": 437,
						"contract": "contracts/BaseContract.sol:BaseContract",
						"label": "kamuKurumlari",
						"offset": 0,
						"slot": "8",
						"type": "t_mapping(t_address,t_struct(KamuKurumu)126_storage)"
					},
					{
						"astId": 442,
						"contract": "contracts/BaseContract.sol:BaseContract",
						"label": "stklar",
						"offset": 0,
						"slot": "9",
						"type": "t_mapping(t_address,t_struct(STK)133_storage)"
					},
					{
						"astId": 447,
						"contract": "contracts/BaseContract.sol:BaseContract",
						"label": "sertifikaMerkezleri",
						"offset": 0,
						"slot": "10",
						"type": "t_mapping(t_address,t_struct(SertifikaMerkezi)140_storage)"
					},
					{
						"astId": 452,
						"contract": "contracts/BaseContract.sol:BaseContract",
						"label": "diller",
						"offset": 0,
						"slot": "11",
						"type": "t_mapping(t_uint32,t_struct(YabanciDil)152_storage)"
					},
					{
						"astId": 455,
						"contract": "contracts/BaseContract.sol:BaseContract",
						"label": "kisiAdresleri",
						"offset": 0,
						"slot": "12",
						"type": "t_array(t_address)dyn_storage"
					},
					{
						"astId": 458,
						"contract": "contracts/BaseContract.sol:BaseContract",
						"label": "universiteAdresleri",
						"offset": 0,
						"slot": "13",
						"type": "t_array(t_address)dyn_storage"
					},
					{
						"astId": 461,
						"contract": "contracts/BaseContract.sol:BaseContract",
						"label": "firmaAdresleri",
						"offset": 0,
						"slot": "14",
						"type": "t_array(t_address)dyn_storage"
					},
					{
						"astId": 464,
						"contract": "contracts/BaseContract.sol:BaseContract",
						"label": "kursAdresleri",
						"offset": 0,
						"slot": "15",
						"type": "t_array(t_address)dyn_storage"
					},
					{
						"astId": 467,
						"contract": "contracts/BaseContract.sol:BaseContract",
						"label": "kamuKurumAdresleri",
						"offset": 0,
						"slot": "16",
						"type": "t_array(t_address)dyn_storage"
					},
					{
						"astId": 470,
						"contract": "contracts/BaseContract.sol:BaseContract",
						"label": "stkAdresleri",
						"offset": 0,
						"slot": "17",
						"type": "t_array(t_address)dyn_storage"
					},
					{
						"astId": 473,
						"contract": "contracts/BaseContract.sol:BaseContract",
						"label": "smAdresleri",
						"offset": 0,
						"slot": "18",
						"type": "t_array(t_address)dyn_storage"
					}
				],
				"types": {
					"t_address": {
						"encoding": "inplace",
						"label": "address",
						"numberOfBytes": "20"
					},
					"t_array(t_address)dyn_storage": {
						"base": "t_address",
						"encoding": "dynamic_array",
						"label": "address[]",
						"numberOfBytes": "32"
					},
					"t_bool": {
						"encoding": "inplace",
						"label": "bool",
						"numberOfBytes": "1"
					},
					"t_enum(Unvan)84": {
						"encoding": "inplace",
						"label": "enum BaseContract.Unvan",
						"numberOfBytes": "1"
					},
					"t_mapping(t_address,t_struct(Akademisyen)79_storage)": {
						"encoding": "mapping",
						"key": "t_address",
						"label": "mapping(address => struct BaseContract.Akademisyen)",
						"numberOfBytes": "32",
						"value": "t_struct(Akademisyen)79_storage"
					},
					"t_mapping(t_address,t_struct(Firma)119_storage)": {
						"encoding": "mapping",
						"key": "t_address",
						"label": "mapping(address => struct BaseContract.Firma)",
						"numberOfBytes": "32",
						"value": "t_struct(Firma)119_storage"
					},
					"t_mapping(t_address,t_struct(KamuKurumu)126_storage)": {
						"encoding": "mapping",
						"key": "t_address",
						"label": "mapping(address => struct BaseContract.KamuKurumu)",
						"numberOfBytes": "32",
						"value": "t_struct(KamuKurumu)126_storage"
					},
					"t_mapping(t_address,t_struct(Kisi)32_storage)": {
						"encoding": "mapping",
						"key": "t_address",
						"label": "mapping(address => struct BaseContract.Kisi)",
						"numberOfBytes": "32",
						"value": "t_struct(Kisi)32_storage"
					},
					"t_mapping(t_address,t_struct(Kurs)147_storage)": {
						"encoding": "mapping",
						"key": "t_address",
						"label": "mapping(address => struct BaseContract.Kurs)",
						"numberOfBytes": "32",
						"value": "t_struct(Kurs)147_storage"
					},
					"t_mapping(t_address,t_struct(STK)133_storage)": {
						"encoding": "mapping",
						"key": "t_address",
						"label": "mapping(address => struct BaseContract.STK)",
						"numberOfBytes": "32",
						"value": "t_struct(STK)133_storage"
					},
					"t_mapping(t_address,t_struct(SertifikaMerkezi)140_storage)": {
						"encoding": "mapping",
						"key": "t_address",
						"label": "mapping(address => struct BaseContract.SertifikaMerkezi)",
						"numberOfBytes": "32",
						"value": "t_struct(SertifikaMerkezi)140_storage"
					},
					"t_mapping(t_address,t_struct(Universite)65_storage)": {
						"encoding": "mapping",
						"key": "t_address",
						"label": "mapping(address => struct BaseContract.Universite)",
						"numberOfBytes": "32",
						"value": "t_struct(Universite)65_storage"
					},
					"t_mapping(t_uint32,t_struct(YabanciDil)152_storage)": {
						"encoding": "mapping",
						"key": "t_uint32",
						"label": "mapping(uint32 => struct BaseContract.YabanciDil)",
						"numberOfBytes": "32",
						"value": "t_struct(YabanciDil)152_storage"
					},
					"t_string_storage": {
						"encoding": "bytes",
						"label": "string",
						"numberOfBytes": "32"
					},
					"t_struct(Akademisyen)79_storage": {
						"encoding": "inplace",
						"label": "struct BaseContract.Akademisyen",
						"members": [
							{
								"astId": 67,
								"contract": "contracts/BaseContract.sol:BaseContract",
								"label": "durum",
								"offset": 0,
								"slot": "0",
								"type": "t_bool"
							},
							{
								"astId": 69,
								"contract": "contracts/BaseContract.sol:BaseContract",
								"label": "universite",
								"offset": 1,
								"slot": "0",
								"type": "t_address"
							},
							{
								"astId": 71,
								"contract": "contracts/BaseContract.sol:BaseContract",
								"label": "bolum",
								"offset": 21,
								"slot": "0",
								"type": "t_uint16"
							},
							{
								"astId": 74,
								"contract": "contracts/BaseContract.sol:BaseContract",
								"label": "unvan",
								"offset": 23,
								"slot": "0",
								"type": "t_enum(Unvan)84"
							},
							{
								"astId": 76,
								"contract": "contracts/BaseContract.sol:BaseContract",
								"label": "ad",
								"offset": 0,
								"slot": "1",
								"type": "t_string_storage"
							},
							{
								"astId": 78,
								"contract": "contracts/BaseContract.sol:BaseContract",
								"label": "soyad",
								"offset": 0,
								"slot": "2",
								"type": "t_string_storage"
							}
						],
						"numberOfBytes": "96"
					},
					"t_struct(Firma)119_storage": {
						"encoding": "inplace",
						"label": "struct BaseContract.Firma",
						"members": [
							{
								"astId": 112,
								"contract": "contracts/BaseContract.sol:BaseContract",
								"label": "durum",
								"offset": 0,
								"slot": "0",
								"type": "t_bool"
							},
							{
								"astId": 114,
								"contract": "contracts/BaseContract.sol:BaseContract",
								"label": "ulke",
								"offset": 1,
								"slot": "0",
								"type": "t_uint8"
							},
							{
								"astId": 116,
								"contract": "contracts/BaseContract.sol:BaseContract",
								"label": "vergiNo",
								"offset": 0,
								"slot": "1",
								"type": "t_uint256"
							},
							{
								"astId": 118,
								"contract": "contracts/BaseContract.sol:BaseContract",
								"label": "isim",
								"offset": 0,
								"slot": "2",
								"type": "t_string_storage"
							}
						],
						"numberOfBytes": "96"
					},
					"t_struct(KamuKurumu)126_storage": {
						"encoding": "inplace",
						"label": "struct BaseContract.KamuKurumu",
						"members": [
							{
								"astId": 121,
								"contract": "contracts/BaseContract.sol:BaseContract",
								"label": "durum",
								"offset": 0,
								"slot": "0",
								"type": "t_bool"
							},
							{
								"astId": 123,
								"contract": "contracts/BaseContract.sol:BaseContract",
								"label": "isim",
								"offset": 0,
								"slot": "1",
								"type": "t_string_storage"
							},
							{
								"astId": 125,
								"contract": "contracts/BaseContract.sol:BaseContract",
								"label": "ulke",
								"offset": 0,
								"slot": "2",
								"type": "t_uint8"
							}
						],
						"numberOfBytes": "96"
					},
					"t_struct(Kisi)32_storage": {
						"encoding": "inplace",
						"label": "struct BaseContract.Kisi",
						"members": [
							{
								"astId": 31,
								"contract": "contracts/BaseContract.sol:BaseContract",
								"label": "durum",
								"offset": 0,
								"slot": "0",
								"type": "t_bool"
							}
						],
						"numberOfBytes": "32"
					},
					"t_struct(Kurs)147_storage": {
						"encoding": "inplace",
						"label": "struct BaseContract.Kurs",
						"members": [
							{
								"astId": 142,
								"contract": "contracts/BaseContract.sol:BaseContract",
								"label": "durum",
								"offset": 0,
								"slot": "0",
								"type": "t_bool"
							},
							{
								"astId": 144,
								"contract": "contracts/BaseContract.sol:BaseContract",
								"label": "isim",
								"offset": 0,
								"slot": "1",
								"type": "t_string_storage"
							},
							{
								"astId": 146,
								"contract": "contracts/BaseContract.sol:BaseContract",
								"label": "ulke",
								"offset": 0,
								"slot": "2",
								"type": "t_uint8"
							}
						],
						"numberOfBytes": "96"
					},
					"t_struct(STK)133_storage": {
						"encoding": "inplace",
						"label": "struct BaseContract.STK",
						"members": [
							{
								"astId": 128,
								"contract": "contracts/BaseContract.sol:BaseContract",
								"label": "durum",
								"offset": 0,
								"slot": "0",
								"type": "t_bool"
							},
							{
								"astId": 130,
								"contract": "contracts/BaseContract.sol:BaseContract",
								"label": "isim",
								"offset": 0,
								"slot": "1",
								"type": "t_string_storage"
							},
							{
								"astId": 132,
								"contract": "contracts/BaseContract.sol:BaseContract",
								"label": "ulke",
								"offset": 0,
								"slot": "2",
								"type": "t_uint8"
							}
						],
						"numberOfBytes": "96"
					},
					"t_struct(SertifikaMerkezi)140_storage": {
						"encoding": "inplace",
						"label": "struct BaseContract.SertifikaMerkezi",
						"members": [
							{
								"astId": 135,
								"contract": "contracts/BaseContract.sol:BaseContract",
								"label": "durum",
								"offset": 0,
								"slot": "0",
								"type": "t_bool"
							},
							{
								"astId": 137,
								"contract": "contracts/BaseContract.sol:BaseContract",
								"label": "isim",
								"offset": 0,
								"slot": "1",
								"type": "t_string_storage"
							},
							{
								"astId": 139,
								"contract": "contracts/BaseContract.sol:BaseContract",
								"label": "ulke",
								"offset": 0,
								"slot": "2",
								"type": "t_uint8"
							}
						],
						"numberOfBytes": "96"
					},
					"t_struct(Universite)65_storage": {
						"encoding": "inplace",
						"label": "struct BaseContract.Universite",
						"members": [
							{
								"astId": 60,
								"contract": "contracts/BaseContract.sol:BaseContract",
								"label": "durum",
								"offset": 0,
								"slot": "0",
								"type": "t_bool"
							},
							{
								"astId": 62,
								"contract": "contracts/BaseContract.sol:BaseContract",
								"label": "isim",
								"offset": 0,
								"slot": "1",
								"type": "t_string_storage"
							},
							{
								"astId": 64,
								"contract": "contracts/BaseContract.sol:BaseContract",
								"label": "ulke",
								"offset": 0,
								"slot": "2",
								"type": "t_uint8"
							}
						],
						"numberOfBytes": "96"
					},
					"t_struct(YabanciDil)152_storage": {
						"encoding": "inplace",
						"label": "struct BaseContract.YabanciDil",
						"members": [
							{
								"astId": 149,
								"contract": "contracts/BaseContract.sol:BaseContract",
								"label": "id",
								"offset": 0,
								"slot": "0",
								"type": "t_uint32"
							},
							{
								"astId": 151,
								"contract": "contracts/BaseContract.sol:BaseContract",
								"label": "isim",
								"offset": 0,
								"slot": "1",
								"type": "t_string_storage"
							}
						],
						"numberOfBytes": "64"
					},
					"t_uint16": {
						"encoding": "inplace",
						"label": "uint16",
						"numberOfBytes": "2"
					},
					"t_uint256": {
						"encoding": "inplace",
						"label": "uint256",
						"numberOfBytes": "32"
					},
					"t_uint32": {
						"encoding": "inplace",
						"label": "uint32",
						"numberOfBytes": "4"
					},
					"t_uint8": {
						"encoding": "inplace",
						"label": "uint8",
						"numberOfBytes": "1"
					}
				}
			},
			"userdoc": {
				"kind": "user",
				"methods": {},
				"version": 1
			}
		}
	}
}