{
	"contracts/KursBilgileri.sol": {
		"KursBilgileri": {
			"abi": [
				{
					"anonymous": false,
					"inputs": [
						{
							"indexed": false,
							"internalType": "address",
							"name": "_kisiAddress",
							"type": "address"
						},
						{
							"indexed": false,
							"internalType": "uint256",
							"name": "_basTarih",
							"type": "uint256"
						},
						{
							"indexed": false,
							"internalType": "uint256",
							"name": "_bitTarih",
							"type": "uint256"
						},
						{
							"indexed": false,
							"internalType": "uint8",
							"name": "_sure",
							"type": "uint8"
						}
					],
					"name": "KursEklendiLog",
					"type": "event"
				},
				{
					"anonymous": false,
					"inputs": [
						{
							"indexed": false,
							"internalType": "address",
							"name": "_kisiAddress",
							"type": "address"
						},
						{
							"indexed": false,
							"internalType": "uint256",
							"name": "_basTarih",
							"type": "uint256"
						},
						{
							"indexed": false,
							"internalType": "uint256",
							"name": "_bitTarih",
							"type": "uint256"
						},
						{
							"indexed": false,
							"internalType": "uint8",
							"name": "_sure",
							"type": "uint8"
						}
					],
					"name": "KursGuncellendiLog",
					"type": "event"
				},
				{
					"anonymous": false,
					"inputs": [
						{
							"indexed": false,
							"internalType": "address",
							"name": "_talepEdilenKurum",
							"type": "address"
						},
						{
							"indexed": false,
							"internalType": "uint256",
							"name": "_basTarih",
							"type": "uint256"
						},
						{
							"indexed": false,
							"internalType": "uint256",
							"name": "_bitTarih",
							"type": "uint256"
						},
						{
							"indexed": false,
							"internalType": "uint8",
							"name": "_sure",
							"type": "uint8"
						}
					],
					"name": "KursTalepEdildiLog",
					"type": "event"
				},
				{
					"inputs": [
						{
							"internalType": "address",
							"name": "",
							"type": "address"
						}
					],
					"name": "akademisyenler",
					"outputs": [
						{
							"internalType": "bool",
							"name": "durum",
							"type": "bool"
						},
						{
							"internalType": "address",
							"name": "universite",
							"type": "address"
						},
						{
							"internalType": "uint16",
							"name": "bolum",
							"type": "uint16"
						},
						{
							"internalType": "enum BaseContract.Unvan",
							"name": "unvan",
							"type": "uint8"
						},
						{
							"internalType": "string",
							"name": "ad",
							"type": "string"
						},
						{
							"internalType": "string",
							"name": "soyad",
							"type": "string"
						}
					],
					"stateMutability": "view",
					"type": "function"
				},
				{
					"inputs": [
						{
							"internalType": "uint32",
							"name": "",
							"type": "uint32"
						}
					],
					"name": "diller",
					"outputs": [
						{
							"internalType": "uint32",
							"name": "id",
							"type": "uint32"
						},
						{
							"internalType": "string",
							"name": "isim",
							"type": "string"
						}
					],
					"stateMutability": "view",
					"type": "function"
				},
				{
					"inputs": [
						{
							"internalType": "address",
							"name": "_kisiAddress",
							"type": "address"
						},
						{
							"internalType": "uint256",
							"name": "basTarih",
							"type": "uint256"
						},
						{
							"internalType": "uint256",
							"name": "bitTarih",
							"type": "uint256"
						},
						{
							"internalType": "uint8",
							"name": "sure",
							"type": "uint8"
						},
						{
							"internalType": "string",
							"name": "egitimAdi",
							"type": "string"
						}
					],
					"name": "ekleKursBilgi",
					"outputs": [],
					"stateMutability": "nonpayable",
					"type": "function"
				},
				{
					"inputs": [
						{
							"internalType": "address",
							"name": "",
							"type": "address"
						}
					],
					"name": "firmalar",
					"outputs": [
						{
							"internalType": "bool",
							"name": "durum",
							"type": "bool"
						},
						{
							"internalType": "uint8",
							"name": "ulke",
							"type": "uint8"
						},
						{
							"internalType": "uint256",
							"name": "vergiNo",
							"type": "uint256"
						},
						{
							"internalType": "string",
							"name": "isim",
							"type": "string"
						}
					],
					"stateMutability": "view",
					"type": "function"
				},
				{
					"inputs": [
						{
							"internalType": "address",
							"name": "_kisiAddress",
							"type": "address"
						},
						{
							"internalType": "uint256",
							"name": "_kursBilgiId",
							"type": "uint256"
						},
						{
							"internalType": "uint256",
							"name": "basTarih",
							"type": "uint256"
						},
						{
							"internalType": "uint256",
							"name": "bitTarih",
							"type": "uint256"
						},
						{
							"internalType": "uint8",
							"name": "sure",
							"type": "uint8"
						},
						{
							"internalType": "string",
							"name": "egitimAdi",
							"type": "string"
						}
					],
					"name": "guncelleKursBilgi",
					"outputs": [
						{
							"internalType": "uint256",
							"name": "",
							"type": "uint256"
						}
					],
					"stateMutability": "nonpayable",
					"type": "function"
				},
				{
					"inputs": [],
					"name": "id",
					"outputs": [
						{
							"internalType": "uint256",
							"name": "",
							"type": "uint256"
						}
					],
					"stateMutability": "view",
					"type": "function"
				},
				{
					"inputs": [
						{
							"internalType": "address",
							"name": "",
							"type": "address"
						}
					],
					"name": "kamuKurumlari",
					"outputs": [
						{
							"internalType": "bool",
							"name": "durum",
							"type": "bool"
						},
						{
							"internalType": "string",
							"name": "isim",
							"type": "string"
						},
						{
							"internalType": "uint8",
							"name": "ulke",
							"type": "uint8"
						}
					],
					"stateMutability": "view",
					"type": "function"
				},
				{
					"inputs": [
						{
							"internalType": "address",
							"name": "",
							"type": "address"
						}
					],
					"name": "kisiler",
					"outputs": [
						{
							"internalType": "bool",
							"name": "durum",
							"type": "bool"
						}
					],
					"stateMutability": "view",
					"type": "function"
				},
				{
					"inputs": [
						{
							"internalType": "address",
							"name": "",
							"type": "address"
						},
						{
							"internalType": "uint256",
							"name": "",
							"type": "uint256"
						}
					],
					"name": "kursBilgiListesi",
					"outputs": [
						{
							"internalType": "uint256",
							"name": "id",
							"type": "uint256"
						},
						{
							"internalType": "address",
							"name": "talepEdilenKurum",
							"type": "address"
						},
						{
							"internalType": "uint256",
							"name": "basTarih",
							"type": "uint256"
						},
						{
							"internalType": "uint256",
							"name": "bitTarih",
							"type": "uint256"
						},
						{
							"internalType": "uint8",
							"name": "sure",
							"type": "uint8"
						},
						{
							"internalType": "string",
							"name": "egitimAdi",
							"type": "string"
						},
						{
							"components": [
								{
									"internalType": "uint256",
									"name": "zaman",
									"type": "uint256"
								},
								{
									"internalType": "address",
									"name": "adres",
									"type": "address"
								},
								{
									"internalType": "enum BaseContract.OnayDurum",
									"name": "durum",
									"type": "uint8"
								}
							],
							"internalType": "struct BaseContract.Onay",
							"name": "onayBilgi",
							"type": "tuple"
						}
					],
					"stateMutability": "view",
					"type": "function"
				},
				{
					"inputs": [
						{
							"internalType": "address",
							"name": "",
							"type": "address"
						}
					],
					"name": "kurslar",
					"outputs": [
						{
							"internalType": "bool",
							"name": "durum",
							"type": "bool"
						},
						{
							"internalType": "string",
							"name": "isim",
							"type": "string"
						},
						{
							"internalType": "uint8",
							"name": "ulke",
							"type": "uint8"
						}
					],
					"stateMutability": "view",
					"type": "function"
				},
				{
					"inputs": [
						{
							"internalType": "address",
							"name": "",
							"type": "address"
						}
					],
					"name": "sertifikaMerkezleri",
					"outputs": [
						{
							"internalType": "bool",
							"name": "durum",
							"type": "bool"
						},
						{
							"internalType": "string",
							"name": "isim",
							"type": "string"
						},
						{
							"internalType": "uint8",
							"name": "ulke",
							"type": "uint8"
						}
					],
					"stateMutability": "view",
					"type": "function"
				},
				{
					"inputs": [
						{
							"internalType": "address",
							"name": "",
							"type": "address"
						}
					],
					"name": "stklar",
					"outputs": [
						{
							"internalType": "bool",
							"name": "durum",
							"type": "bool"
						},
						{
							"internalType": "string",
							"name": "isim",
							"type": "string"
						},
						{
							"internalType": "uint8",
							"name": "ulke",
							"type": "uint8"
						}
					],
					"stateMutability": "view",
					"type": "function"
				},
				{
					"inputs": [
						{
							"internalType": "address",
							"name": "_talepEdilenKurum",
							"type": "address"
						},
						{
							"internalType": "address",
							"name": "kursAdres",
							"type": "address"
						},
						{
							"internalType": "uint256",
							"name": "basTarih",
							"type": "uint256"
						},
						{
							"internalType": "uint256",
							"name": "bitTarih",
							"type": "uint256"
						},
						{
							"internalType": "uint8",
							"name": "sure",
							"type": "uint8"
						},
						{
							"internalType": "string",
							"name": "egitimAdi",
							"type": "string"
						}
					],
					"name": "talepEtKursBilgi",
					"outputs": [],
					"stateMutability": "nonpayable",
					"type": "function"
				},
				{
					"inputs": [
						{
							"internalType": "address",
							"name": "",
							"type": "address"
						}
					],
					"name": "universiteler",
					"outputs": [
						{
							"internalType": "bool",
							"name": "durum",
							"type": "bool"
						},
						{
							"internalType": "string",
							"name": "isim",
							"type": "string"
						},
						{
							"internalType": "uint8",
							"name": "ulke",
							"type": "uint8"
						}
					],
					"stateMutability": "view",
					"type": "function"
				}
			],
			"devdoc": {
				"kind": "dev",
				"methods": {},
				"version": 1
			},
			"evm": {
				"assembly": "    /* \"contracts/KursBilgileri.sol\":104:3615  contract KursBilgileri is BaseContract{\r... */\n  mstore(0x40, 0x80)\n  callvalue\n  dup1\n  iszero\n  tag_1\n  jumpi\n  0x00\n  dup1\n  revert\ntag_1:\n  pop\n  dataSize(sub_0)\n  dup1\n  dataOffset(sub_0)\n  0x00\n  codecopy\n  0x00\n  return\nstop\n\nsub_0: assembly {\n        /* \"contracts/KursBilgileri.sol\":104:3615  contract KursBilgileri is BaseContract{\r... */\n      mstore(0x40, 0x80)\n      callvalue\n      dup1\n      iszero\n      tag_1\n      jumpi\n      0x00\n      dup1\n      revert\n    tag_1:\n      pop\n      jumpi(tag_2, lt(calldatasize, 0x04))\n      shr(0xe0, calldataload(0x00))\n      dup1\n      0x7d0fa287\n      gt\n      tag_17\n      jumpi\n      dup1\n      0xaf640d0f\n      gt\n      tag_18\n      jumpi\n      dup1\n      0xaf640d0f\n      eq\n      tag_13\n      jumpi\n      dup1\n      0xba479b7e\n      eq\n      tag_14\n      jumpi\n      dup1\n      0xcbc92809\n      eq\n      tag_15\n      jumpi\n      dup1\n      0xd5070f43\n      eq\n      tag_16\n      jumpi\n      jump(tag_2)\n    tag_18:\n      dup1\n      0x7d0fa287\n      eq\n      tag_10\n      jumpi\n      dup1\n      0x9a8c9119\n      eq\n      tag_11\n      jumpi\n      dup1\n      0xa4e7ae05\n      eq\n      tag_12\n      jumpi\n      jump(tag_2)\n    tag_17:\n      dup1\n      0x356b1f1e\n      gt\n      tag_19\n      jumpi\n      dup1\n      0x356b1f1e\n      eq\n      tag_6\n      jumpi\n      dup1\n      0x39987f94\n      eq\n      tag_7\n      jumpi\n      dup1\n      0x5637b6a5\n      eq\n      tag_8\n      jumpi\n      dup1\n      0x6dac86de\n      eq\n      tag_9\n      jumpi\n      jump(tag_2)\n    tag_19:\n      dup1\n      0x1916e139\n      eq\n      tag_3\n      jumpi\n      dup1\n      0x1957b59f\n      eq\n      tag_4\n      jumpi\n      dup1\n      0x28266697\n      eq\n      tag_5\n      jumpi\n    tag_2:\n      0x00\n      dup1\n      revert\n        /* \"contracts/BaseContract.sol\":3293:3331  mapping(address=>Kurs) public  kurslar */\n    tag_3:\n      tag_20\n      0x04\n      dup1\n      calldatasize\n      sub\n      dup2\n      add\n      swap1\n      tag_21\n      swap2\n      swap1\n      tag_22\n      jump\t// in\n    tag_21:\n      tag_23\n      jump\t// in\n    tag_20:\n      mload(0x40)\n      tag_24\n      swap4\n      swap3\n      swap2\n      swap1\n      tag_25\n      jump\t// in\n    tag_24:\n      mload(0x40)\n      dup1\n      swap2\n      sub\n      swap1\n      return\n        /* \"contracts/KursBilgileri.sol\":1655:2643  function guncelleKursBilgi(address _kisiAddress, uint _kursBilgiId, uint basTarih, uint bitTarih, uint8 sure, string memory egitimAdi) public sadeceKurs returns(uint){\r... */\n    tag_4:\n      tag_26\n      0x04\n      dup1\n      calldatasize\n      sub\n      dup2\n      add\n      swap1\n      tag_27\n      swap2\n      swap1\n      tag_28\n      jump\t// in\n    tag_27:\n      tag_29\n      jump\t// in\n    tag_26:\n      mload(0x40)\n      tag_30\n      swap2\n      swap1\n      tag_31\n      jump\t// in\n    tag_30:\n      mload(0x40)\n      dup1\n      swap2\n      sub\n      swap1\n      return\n        /* \"contracts/BaseContract.sol\":3132:3181  mapping(address=>Universite) public universiteler */\n    tag_5:\n      tag_32\n      0x04\n      dup1\n      calldatasize\n      sub\n      dup2\n      add\n      swap1\n      tag_33\n      swap2\n      swap1\n      tag_22\n      jump\t// in\n    tag_33:\n      tag_34\n      jump\t// in\n    tag_32:\n      mload(0x40)\n      tag_35\n      swap4\n      swap3\n      swap2\n      swap1\n      tag_25\n      jump\t// in\n    tag_35:\n      mload(0x40)\n      dup1\n      swap2\n      sub\n      swap1\n      return\n        /* \"contracts/BaseContract.sol\":3436:3497  mapping(address=>SertifikaMerkezi) public sertifikaMerkezleri */\n    tag_6:\n      tag_36\n      0x04\n      dup1\n      calldatasize\n      sub\n      dup2\n      add\n      swap1\n      tag_37\n      swap2\n      swap1\n      tag_22\n      jump\t// in\n    tag_37:\n      tag_38\n      jump\t// in\n    tag_36:\n      mload(0x40)\n      tag_39\n      swap4\n      swap3\n      swap2\n      swap1\n      tag_25\n      jump\t// in\n    tag_39:\n      mload(0x40)\n      dup1\n      swap2\n      sub\n      swap1\n      return\n        /* \"contracts/BaseContract.sol\":3246:3286  mapping(address=>Firma) public  firmalar */\n    tag_7:\n      tag_40\n      0x04\n      dup1\n      calldatasize\n      sub\n      dup2\n      add\n      swap1\n      tag_41\n      swap2\n      swap1\n      tag_22\n      jump\t// in\n    tag_41:\n      tag_42\n      jump\t// in\n    tag_40:\n      mload(0x40)\n      tag_43\n      swap5\n      swap4\n      swap3\n      swap2\n      swap1\n      tag_44\n      jump\t// in\n    tag_43:\n      mload(0x40)\n      dup1\n      swap2\n      sub\n      swap1\n      return\n        /* \"contracts/KursBilgileri.sol\":2647:3608  function talepEtKursBilgi(address _talepEdilenKurum, address kursAdres, uint basTarih, uint bitTarih, uint8 sure, string memory egitimAdi) public sadeceKurs{\r... */\n    tag_8:\n      tag_45\n      0x04\n      dup1\n      calldatasize\n      sub\n      dup2\n      add\n      swap1\n      tag_46\n      swap2\n      swap1\n      tag_47\n      jump\t// in\n    tag_46:\n      tag_48\n      jump\t// in\n    tag_45:\n      stop\n        /* \"contracts/KursBilgileri.sol\":782:1643  function ekleKursBilgi(address _kisiAddress,  uint basTarih, uint bitTarih, uint8 sure, string memory egitimAdi) public sadeceKurs{\r... */\n    tag_9:\n      tag_49\n      0x04\n      dup1\n      calldatasize\n      sub\n      dup2\n      add\n      swap1\n      tag_50\n      swap2\n      swap1\n      tag_51\n      jump\t// in\n    tag_50:\n      tag_52\n      jump\t// in\n    tag_49:\n      stop\n        /* \"contracts/BaseContract.sol\":3338:3387  mapping(address=>KamuKurumu) public kamuKurumlari */\n    tag_10:\n      tag_53\n      0x04\n      dup1\n      calldatasize\n      sub\n      dup2\n      add\n      swap1\n      tag_54\n      swap2\n      swap1\n      tag_22\n      jump\t// in\n    tag_54:\n      tag_55\n      jump\t// in\n    tag_53:\n      mload(0x40)\n      tag_56\n      swap4\n      swap3\n      swap2\n      swap1\n      tag_25\n      jump\t// in\n    tag_56:\n      mload(0x40)\n      dup1\n      swap2\n      sub\n      swap1\n      return\n        /* \"contracts/BaseContract.sol\":3394:3429  mapping(address=>STK) public stklar */\n    tag_11:\n      tag_57\n      0x04\n      dup1\n      calldatasize\n      sub\n      dup2\n      add\n      swap1\n      tag_58\n      swap2\n      swap1\n      tag_22\n      jump\t// in\n    tag_58:\n      tag_59\n      jump\t// in\n    tag_57:\n      mload(0x40)\n      tag_60\n      swap4\n      swap3\n      swap2\n      swap1\n      tag_25\n      jump\t// in\n    tag_60:\n      mload(0x40)\n      dup1\n      swap2\n      sub\n      swap1\n      return\n        /* \"contracts/BaseContract.sol\":3505:3546  mapping(uint32=>YabanciDil) public diller */\n    tag_12:\n      tag_61\n      0x04\n      dup1\n      calldatasize\n      sub\n      dup2\n      add\n      swap1\n      tag_62\n      swap2\n      swap1\n      tag_63\n      jump\t// in\n    tag_62:\n      tag_64\n      jump\t// in\n    tag_61:\n      mload(0x40)\n      tag_65\n      swap3\n      swap2\n      swap1\n      tag_66\n      jump\t// in\n    tag_65:\n      mload(0x40)\n      dup1\n      swap2\n      sub\n      swap1\n      return\n        /* \"contracts/KursBilgileri.sol\":147:161  uint public id */\n    tag_13:\n      tag_67\n      tag_68\n      jump\t// in\n    tag_67:\n      mload(0x40)\n      tag_69\n      swap2\n      swap1\n      tag_31\n      jump\t// in\n    tag_69:\n      mload(0x40)\n      dup1\n      swap2\n      sub\n      swap1\n      return\n        /* \"contracts/BaseContract.sol\":3188:3239  mapping(address=>Akademisyen) public akademisyenler */\n    tag_14:\n      tag_70\n      0x04\n      dup1\n      calldatasize\n      sub\n      dup2\n      add\n      swap1\n      tag_71\n      swap2\n      swap1\n      tag_22\n      jump\t// in\n    tag_71:\n      tag_72\n      jump\t// in\n    tag_70:\n      mload(0x40)\n      tag_73\n      swap7\n      swap6\n      swap5\n      swap4\n      swap3\n      swap2\n      swap1\n      tag_74\n      jump\t// in\n    tag_73:\n      mload(0x40)\n      dup1\n      swap2\n      sub\n      swap1\n      return\n        /* \"contracts/BaseContract.sol\":3088:3125  mapping(address=>Kisi) public kisiler */\n    tag_15:\n      tag_75\n      0x04\n      dup1\n      calldatasize\n      sub\n      dup2\n      add\n      swap1\n      tag_76\n      swap2\n      swap1\n      tag_22\n      jump\t// in\n    tag_76:\n      tag_77\n      jump\t// in\n    tag_75:\n      mload(0x40)\n      tag_78\n      swap2\n      swap1\n      tag_79\n      jump\t// in\n    tag_78:\n      mload(0x40)\n      dup1\n      swap2\n      sub\n      swap1\n      return\n        /* \"contracts/KursBilgileri.sol\":390:456  mapping(address=>mapping(uint=>KursBilgi)) public kursBilgiListesi */\n    tag_16:\n      tag_80\n      0x04\n      dup1\n      calldatasize\n      sub\n      dup2\n      add\n      swap1\n      tag_81\n      swap2\n      swap1\n      tag_82\n      jump\t// in\n    tag_81:\n      tag_83\n      jump\t// in\n    tag_80:\n      mload(0x40)\n      tag_84\n      swap8\n      swap7\n      swap6\n      swap5\n      swap4\n      swap3\n      swap2\n      swap1\n      tag_85\n      jump\t// in\n    tag_84:\n      mload(0x40)\n      dup1\n      swap2\n      sub\n      swap1\n      return\n        /* \"contracts/BaseContract.sol\":3293:3331  mapping(address=>Kurs) public  kurslar */\n    tag_23:\n      mstore(0x20, 0x07)\n      dup1\n      0x00\n      mstore\n      keccak256(0x00, 0x40)\n      0x00\n      swap2\n      pop\n      swap1\n      pop\n      dup1\n      0x00\n      add\n      0x00\n      swap1\n      sload\n      swap1\n      0x0100\n      exp\n      swap1\n      div\n      0xff\n      and\n      swap1\n      dup1\n      0x01\n      add\n      dup1\n      sload\n      tag_86\n      swap1\n      tag_87\n      jump\t// in\n    tag_86:\n      dup1\n      0x1f\n      add\n      0x20\n      dup1\n      swap2\n      div\n      mul\n      0x20\n      add\n      mload(0x40)\n      swap1\n      dup2\n      add\n      0x40\n      mstore\n      dup1\n      swap3\n      swap2\n      swap1\n      dup2\n      dup2\n      mstore\n      0x20\n      add\n      dup3\n      dup1\n      sload\n      tag_88\n      swap1\n      tag_87\n      jump\t// in\n    tag_88:\n      dup1\n      iszero\n      tag_89\n      jumpi\n      dup1\n      0x1f\n      lt\n      tag_90\n      jumpi\n      0x0100\n      dup1\n      dup4\n      sload\n      div\n      mul\n      dup4\n      mstore\n      swap2\n      0x20\n      add\n      swap2\n      jump(tag_89)\n    tag_90:\n      dup3\n      add\n      swap2\n      swap1\n      0x00\n      mstore\n      keccak256(0x00, 0x20)\n      swap1\n    tag_91:\n      dup2\n      sload\n      dup2\n      mstore\n      swap1\n      0x01\n      add\n      swap1\n      0x20\n      add\n      dup1\n      dup4\n      gt\n      tag_91\n      jumpi\n      dup3\n      swap1\n      sub\n      0x1f\n      and\n      dup3\n      add\n      swap2\n    tag_89:\n      pop\n      pop\n      pop\n      pop\n      pop\n      swap1\n      dup1\n      0x02\n      add\n      0x00\n      swap1\n      sload\n      swap1\n      0x0100\n      exp\n      swap1\n      div\n      0xff\n      and\n      swap1\n      pop\n      dup4\n      jump\t// out\n        /* \"contracts/KursBilgileri.sol\":1655:2643  function guncelleKursBilgi(address _kisiAddress, uint _kursBilgiId, uint basTarih, uint bitTarih, uint8 sure, string memory egitimAdi) public sadeceKurs returns(uint){\r... */\n    tag_29:\n        /* \"contracts/KursBilgileri.sol\":1816:1820  uint */\n      0x00\n        /* \"contracts/BaseContract.sol\":2424:2431  kurslar */\n      0x07\n        /* \"contracts/BaseContract.sol\":2424:2443  kurslar[msg.sender] */\n      0x00\n        /* \"contracts/BaseContract.sol\":2432:2442  msg.sender */\n      caller\n        /* \"contracts/BaseContract.sol\":2424:2443  kurslar[msg.sender] */\n      0xffffffffffffffffffffffffffffffffffffffff\n      and\n      0xffffffffffffffffffffffffffffffffffffffff\n      and\n      dup2\n      mstore\n      0x20\n      add\n      swap1\n      dup2\n      mstore\n      0x20\n      add\n      0x00\n      keccak256\n        /* \"contracts/BaseContract.sol\":2424:2449  kurslar[msg.sender].durum */\n      0x00\n      add\n      0x00\n      swap1\n      sload\n      swap1\n      0x0100\n      exp\n      swap1\n      div\n      0xff\n      and\n        /* \"contracts/BaseContract.sol\":2416:2501  require(kurslar[msg.sender].durum,\r... */\n      tag_93\n      jumpi\n      mload(0x40)\n      0x08c379a000000000000000000000000000000000000000000000000000000000\n      dup2\n      mstore\n      0x04\n      add\n      tag_94\n      swap1\n      tag_95\n      jump\t// in\n    tag_94:\n      mload(0x40)\n      dup1\n      swap2\n      sub\n      swap1\n      revert\n    tag_93:\n        /* \"contracts/KursBilgileri.sol\":1848:1855  kisiler */\n      0x03\n        /* \"contracts/KursBilgileri.sol\":1848:1869  kisiler[_kisiAddress] */\n      0x00\n        /* \"contracts/KursBilgileri.sol\":1856:1868  _kisiAddress */\n      dup9\n        /* \"contracts/KursBilgileri.sol\":1848:1869  kisiler[_kisiAddress] */\n      0xffffffffffffffffffffffffffffffffffffffff\n      and\n      0xffffffffffffffffffffffffffffffffffffffff\n      and\n      dup2\n      mstore\n      0x20\n      add\n      swap1\n      dup2\n      mstore\n      0x20\n      add\n      0x00\n      keccak256\n        /* \"contracts/KursBilgileri.sol\":1848:1875  kisiler[_kisiAddress].durum */\n      0x00\n      add\n      0x00\n      swap1\n      sload\n      swap1\n      0x0100\n      exp\n      swap1\n      div\n      0xff\n      and\n        /* \"contracts/KursBilgileri.sol\":1840:1896  require(kisiler[_kisiAddress].durum,\"Kisi mevcut degil\") */\n      tag_97\n      jumpi\n      mload(0x40)\n      0x08c379a000000000000000000000000000000000000000000000000000000000\n      dup2\n      mstore\n      0x04\n      add\n      tag_98\n      swap1\n      tag_99\n      jump\t// in\n    tag_98:\n      mload(0x40)\n      dup1\n      swap2\n      sub\n      swap1\n      revert\n    tag_97:\n        /* \"contracts/KursBilgileri.sol\":1986:1994  basTarih */\n      dup5\n        /* \"contracts/KursBilgileri.sol\":1932:1948  kursBilgiListesi */\n      0x0d\n        /* \"contracts/KursBilgileri.sol\":1932:1962  kursBilgiListesi[_kisiAddress] */\n      0x00\n        /* \"contracts/KursBilgileri.sol\":1949:1961  _kisiAddress */\n      dup10\n        /* \"contracts/KursBilgileri.sol\":1932:1962  kursBilgiListesi[_kisiAddress] */\n      0xffffffffffffffffffffffffffffffffffffffff\n      and\n      0xffffffffffffffffffffffffffffffffffffffff\n      and\n      dup2\n      mstore\n      0x20\n      add\n      swap1\n      dup2\n      mstore\n      0x20\n      add\n      0x00\n      keccak256\n        /* \"contracts/KursBilgileri.sol\":1932:1976  kursBilgiListesi[_kisiAddress][_kursBilgiId] */\n      0x00\n        /* \"contracts/KursBilgileri.sol\":1963:1975  _kursBilgiId */\n      dup9\n        /* \"contracts/KursBilgileri.sol\":1932:1976  kursBilgiListesi[_kisiAddress][_kursBilgiId] */\n      dup2\n      mstore\n      0x20\n      add\n      swap1\n      dup2\n      mstore\n      0x20\n      add\n      0x00\n      keccak256\n        /* \"contracts/KursBilgileri.sol\":1932:1985  kursBilgiListesi[_kisiAddress][_kursBilgiId].basTarih */\n      0x02\n      add\n        /* \"contracts/KursBilgileri.sol\":1932:1994  kursBilgiListesi[_kisiAddress][_kursBilgiId].basTarih=basTarih */\n      dup2\n      swap1\n      sstore\n      pop\n        /* \"contracts/KursBilgileri.sol\":2064:2072  bitTarih */\n      dup4\n        /* \"contracts/KursBilgileri.sol\":2010:2026  kursBilgiListesi */\n      0x0d\n        /* \"contracts/KursBilgileri.sol\":2010:2040  kursBilgiListesi[_kisiAddress] */\n      0x00\n        /* \"contracts/KursBilgileri.sol\":2027:2039  _kisiAddress */\n      dup10\n        /* \"contracts/KursBilgileri.sol\":2010:2040  kursBilgiListesi[_kisiAddress] */\n      0xffffffffffffffffffffffffffffffffffffffff\n      and\n      0xffffffffffffffffffffffffffffffffffffffff\n      and\n      dup2\n      mstore\n      0x20\n      add\n      swap1\n      dup2\n      mstore\n      0x20\n      add\n      0x00\n      keccak256\n        /* \"contracts/KursBilgileri.sol\":2010:2054  kursBilgiListesi[_kisiAddress][_kursBilgiId] */\n      0x00\n        /* \"contracts/KursBilgileri.sol\":2041:2053  _kursBilgiId */\n      dup9\n        /* \"contracts/KursBilgileri.sol\":2010:2054  kursBilgiListesi[_kisiAddress][_kursBilgiId] */\n      dup2\n      mstore\n      0x20\n      add\n      swap1\n      dup2\n      mstore\n      0x20\n      add\n      0x00\n      keccak256\n        /* \"contracts/KursBilgileri.sol\":2010:2063  kursBilgiListesi[_kisiAddress][_kursBilgiId].bitTarih */\n      0x03\n      add\n        /* \"contracts/KursBilgileri.sol\":2010:2072  kursBilgiListesi[_kisiAddress][_kursBilgiId].bitTarih=bitTarih */\n      dup2\n      swap1\n      sstore\n      pop\n        /* \"contracts/KursBilgileri.sol\":2138:2142  sure */\n      dup3\n        /* \"contracts/KursBilgileri.sol\":2088:2104  kursBilgiListesi */\n      0x0d\n        /* \"contracts/KursBilgileri.sol\":2088:2118  kursBilgiListesi[_kisiAddress] */\n      0x00\n        /* \"contracts/KursBilgileri.sol\":2105:2117  _kisiAddress */\n      dup10\n        /* \"contracts/KursBilgileri.sol\":2088:2118  kursBilgiListesi[_kisiAddress] */\n      0xffffffffffffffffffffffffffffffffffffffff\n      and\n      0xffffffffffffffffffffffffffffffffffffffff\n      and\n      dup2\n      mstore\n      0x20\n      add\n      swap1\n      dup2\n      mstore\n      0x20\n      add\n      0x00\n      keccak256\n        /* \"contracts/KursBilgileri.sol\":2088:2132  kursBilgiListesi[_kisiAddress][_kursBilgiId] */\n      0x00\n        /* \"contracts/KursBilgileri.sol\":2119:2131  _kursBilgiId */\n      dup9\n        /* \"contracts/KursBilgileri.sol\":2088:2132  kursBilgiListesi[_kisiAddress][_kursBilgiId] */\n      dup2\n      mstore\n      0x20\n      add\n      swap1\n      dup2\n      mstore\n      0x20\n      add\n      0x00\n      keccak256\n        /* \"contracts/KursBilgileri.sol\":2088:2137  kursBilgiListesi[_kisiAddress][_kursBilgiId].sure */\n      0x04\n      add\n      0x00\n        /* \"contracts/KursBilgileri.sol\":2088:2142  kursBilgiListesi[_kisiAddress][_kursBilgiId].sure=sure */\n      0x0100\n      exp\n      dup2\n      sload\n      dup2\n      0xff\n      mul\n      not\n      and\n      swap1\n      dup4\n      0xff\n      and\n      mul\n      or\n      swap1\n      sstore\n      pop\n        /* \"contracts/KursBilgileri.sol\":2213:2222  egitimAdi */\n      dup2\n        /* \"contracts/KursBilgileri.sol\":2158:2174  kursBilgiListesi */\n      0x0d\n        /* \"contracts/KursBilgileri.sol\":2158:2188  kursBilgiListesi[_kisiAddress] */\n      0x00\n        /* \"contracts/KursBilgileri.sol\":2175:2187  _kisiAddress */\n      dup10\n        /* \"contracts/KursBilgileri.sol\":2158:2188  kursBilgiListesi[_kisiAddress] */\n      0xffffffffffffffffffffffffffffffffffffffff\n      and\n      0xffffffffffffffffffffffffffffffffffffffff\n      and\n      dup2\n      mstore\n      0x20\n      add\n      swap1\n      dup2\n      mstore\n      0x20\n      add\n      0x00\n      keccak256\n        /* \"contracts/KursBilgileri.sol\":2158:2202  kursBilgiListesi[_kisiAddress][_kursBilgiId] */\n      0x00\n        /* \"contracts/KursBilgileri.sol\":2189:2201  _kursBilgiId */\n      dup9\n        /* \"contracts/KursBilgileri.sol\":2158:2202  kursBilgiListesi[_kisiAddress][_kursBilgiId] */\n      dup2\n      mstore\n      0x20\n      add\n      swap1\n      dup2\n      mstore\n      0x20\n      add\n      0x00\n      keccak256\n        /* \"contracts/KursBilgileri.sol\":2158:2212  kursBilgiListesi[_kisiAddress][_kursBilgiId].egitimAdi */\n      0x05\n      add\n        /* \"contracts/KursBilgileri.sol\":2158:2222  kursBilgiListesi[_kisiAddress][_kursBilgiId].egitimAdi=egitimAdi */\n      swap1\n      dup1\n      mload\n      swap1\n      0x20\n      add\n      swap1\n      tag_100\n      swap3\n      swap2\n      swap1\n      tag_101\n      jump\t// in\n    tag_100:\n      pop\n        /* \"contracts/KursBilgileri.sol\":2308:2327  OnayDurum.Onaylandi */\n      0x01\n        /* \"contracts/KursBilgileri.sol\":2247:2263  kursBilgiListesi */\n      0x0d\n        /* \"contracts/KursBilgileri.sol\":2247:2277  kursBilgiListesi[_kisiAddress] */\n      0x00\n        /* \"contracts/KursBilgileri.sol\":2264:2276  _kisiAddress */\n      dup10\n        /* \"contracts/KursBilgileri.sol\":2247:2277  kursBilgiListesi[_kisiAddress] */\n      0xffffffffffffffffffffffffffffffffffffffff\n      and\n      0xffffffffffffffffffffffffffffffffffffffff\n      and\n      dup2\n      mstore\n      0x20\n      add\n      swap1\n      dup2\n      mstore\n      0x20\n      add\n      0x00\n      keccak256\n        /* \"contracts/KursBilgileri.sol\":2247:2291  kursBilgiListesi[_kisiAddress][_kursBilgiId] */\n      0x00\n        /* \"contracts/KursBilgileri.sol\":2278:2290  _kursBilgiId */\n      dup9\n        /* \"contracts/KursBilgileri.sol\":2247:2291  kursBilgiListesi[_kisiAddress][_kursBilgiId] */\n      dup2\n      mstore\n      0x20\n      add\n      swap1\n      dup2\n      mstore\n      0x20\n      add\n      0x00\n      keccak256\n        /* \"contracts/KursBilgileri.sol\":2247:2301  kursBilgiListesi[_kisiAddress][_kursBilgiId].onayBilgi */\n      0x06\n      add\n        /* \"contracts/KursBilgileri.sol\":2247:2307  kursBilgiListesi[_kisiAddress][_kursBilgiId].onayBilgi.durum */\n      0x01\n      add\n      0x14\n        /* \"contracts/KursBilgileri.sol\":2247:2327  kursBilgiListesi[_kisiAddress][_kursBilgiId].onayBilgi.durum=OnayDurum.Onaylandi */\n      0x0100\n      exp\n      dup2\n      sload\n      dup2\n      0xff\n      mul\n      not\n      and\n      swap1\n      dup4\n      0x02\n      dup2\n      gt\n      iszero\n      tag_102\n      jumpi\n      tag_103\n      tag_104\n      jump\t// in\n    tag_103:\n    tag_102:\n      mul\n      or\n      swap1\n      sstore\n      pop\n        /* \"contracts/KursBilgileri.sol\":2404:2419  block.timestamp */\n      timestamp\n        /* \"contracts/KursBilgileri.sol\":2343:2359  kursBilgiListesi */\n      0x0d\n        /* \"contracts/KursBilgileri.sol\":2343:2373  kursBilgiListesi[_kisiAddress] */\n      0x00\n        /* \"contracts/KursBilgileri.sol\":2360:2372  _kisiAddress */\n      dup10\n        /* \"contracts/KursBilgileri.sol\":2343:2373  kursBilgiListesi[_kisiAddress] */\n      0xffffffffffffffffffffffffffffffffffffffff\n      and\n      0xffffffffffffffffffffffffffffffffffffffff\n      and\n      dup2\n      mstore\n      0x20\n      add\n      swap1\n      dup2\n      mstore\n      0x20\n      add\n      0x00\n      keccak256\n        /* \"contracts/KursBilgileri.sol\":2343:2387  kursBilgiListesi[_kisiAddress][_kursBilgiId] */\n      0x00\n        /* \"contracts/KursBilgileri.sol\":2374:2386  _kursBilgiId */\n      dup9\n        /* \"contracts/KursBilgileri.sol\":2343:2387  kursBilgiListesi[_kisiAddress][_kursBilgiId] */\n      dup2\n      mstore\n      0x20\n      add\n      swap1\n      dup2\n      mstore\n      0x20\n      add\n      0x00\n      keccak256\n        /* \"contracts/KursBilgileri.sol\":2343:2397  kursBilgiListesi[_kisiAddress][_kursBilgiId].onayBilgi */\n      0x06\n      add\n        /* \"contracts/KursBilgileri.sol\":2343:2403  kursBilgiListesi[_kisiAddress][_kursBilgiId].onayBilgi.zaman */\n      0x00\n      add\n        /* \"contracts/KursBilgileri.sol\":2343:2419  kursBilgiListesi[_kisiAddress][_kursBilgiId].onayBilgi.zaman=block.timestamp */\n      dup2\n      swap1\n      sstore\n      pop\n        /* \"contracts/KursBilgileri.sol\":2496:2506  msg.sender */\n      caller\n        /* \"contracts/KursBilgileri.sol\":2435:2451  kursBilgiListesi */\n      0x0d\n        /* \"contracts/KursBilgileri.sol\":2435:2465  kursBilgiListesi[_kisiAddress] */\n      0x00\n        /* \"contracts/KursBilgileri.sol\":2452:2464  _kisiAddress */\n      dup10\n        /* \"contracts/KursBilgileri.sol\":2435:2465  kursBilgiListesi[_kisiAddress] */\n      0xffffffffffffffffffffffffffffffffffffffff\n      and\n      0xffffffffffffffffffffffffffffffffffffffff\n      and\n      dup2\n      mstore\n      0x20\n      add\n      swap1\n      dup2\n      mstore\n      0x20\n      add\n      0x00\n      keccak256\n        /* \"contracts/KursBilgileri.sol\":2435:2479  kursBilgiListesi[_kisiAddress][_kursBilgiId] */\n      0x00\n        /* \"contracts/KursBilgileri.sol\":2466:2478  _kursBilgiId */\n      dup9\n        /* \"contracts/KursBilgileri.sol\":2435:2479  kursBilgiListesi[_kisiAddress][_kursBilgiId] */\n      dup2\n      mstore\n      0x20\n      add\n      swap1\n      dup2\n      mstore\n      0x20\n      add\n      0x00\n      keccak256\n        /* \"contracts/KursBilgileri.sol\":2435:2489  kursBilgiListesi[_kisiAddress][_kursBilgiId].onayBilgi */\n      0x06\n      add\n        /* \"contracts/KursBilgileri.sol\":2435:2495  kursBilgiListesi[_kisiAddress][_kursBilgiId].onayBilgi.adres */\n      0x01\n      add\n      0x00\n        /* \"contracts/KursBilgileri.sol\":2435:2506  kursBilgiListesi[_kisiAddress][_kursBilgiId].onayBilgi.adres=msg.sender */\n      0x0100\n      exp\n      dup2\n      sload\n      dup2\n      0xffffffffffffffffffffffffffffffffffffffff\n      mul\n      not\n      and\n      swap1\n      dup4\n      0xffffffffffffffffffffffffffffffffffffffff\n      and\n      mul\n      or\n      swap1\n      sstore\n      pop\n        /* \"contracts/KursBilgileri.sol\":2530:2588  KursGuncellendiLog(_kisiAddress, basTarih, bitTarih, sure) */\n      0x5b7688c1644640dbb13a9ad41480f887d3ac1d5c306de6d9fc69e11fe7095562\n        /* \"contracts/KursBilgileri.sol\":2549:2561  _kisiAddress */\n      dup8\n        /* \"contracts/KursBilgileri.sol\":2563:2571  basTarih */\n      dup7\n        /* \"contracts/KursBilgileri.sol\":2573:2581  bitTarih */\n      dup7\n        /* \"contracts/KursBilgileri.sol\":2583:2587  sure */\n      dup7\n        /* \"contracts/KursBilgileri.sol\":2530:2588  KursGuncellendiLog(_kisiAddress, basTarih, bitTarih, sure) */\n      mload(0x40)\n      tag_105\n      swap5\n      swap4\n      swap3\n      swap2\n      swap1\n      tag_106\n      jump\t// in\n    tag_105:\n      mload(0x40)\n      dup1\n      swap2\n      sub\n      swap1\n      log1\n        /* \"contracts/KursBilgileri.sol\":2617:2629  _kursBilgiId */\n      dup6\n        /* \"contracts/KursBilgileri.sol\":2607:2629  return    _kursBilgiId */\n      swap1\n      pop\n        /* \"contracts/KursBilgileri.sol\":1655:2643  function guncelleKursBilgi(address _kisiAddress, uint _kursBilgiId, uint basTarih, uint bitTarih, uint8 sure, string memory egitimAdi) public sadeceKurs returns(uint){\r... */\n      swap7\n      swap6\n      pop\n      pop\n      pop\n      pop\n      pop\n      pop\n      jump\t// out\n        /* \"contracts/BaseContract.sol\":3132:3181  mapping(address=>Universite) public universiteler */\n    tag_34:\n      mstore(0x20, 0x04)\n      dup1\n      0x00\n      mstore\n      keccak256(0x00, 0x40)\n      0x00\n      swap2\n      pop\n      swap1\n      pop\n      dup1\n      0x00\n      add\n      0x00\n      swap1\n      sload\n      swap1\n      0x0100\n      exp\n      swap1\n      div\n      0xff\n      and\n      swap1\n      dup1\n      0x01\n      add\n      dup1\n      sload\n      tag_107\n      swap1\n      tag_87\n      jump\t// in\n    tag_107:\n      dup1\n      0x1f\n      add\n      0x20\n      dup1\n      swap2\n      div\n      mul\n      0x20\n      add\n      mload(0x40)\n      swap1\n      dup2\n      add\n      0x40\n      mstore\n      dup1\n      swap3\n      swap2\n      swap1\n      dup2\n      dup2\n      mstore\n      0x20\n      add\n      dup3\n      dup1\n      sload\n      tag_108\n      swap1\n      tag_87\n      jump\t// in\n    tag_108:\n      dup1\n      iszero\n      tag_109\n      jumpi\n      dup1\n      0x1f\n      lt\n      tag_110\n      jumpi\n      0x0100\n      dup1\n      dup4\n      sload\n      div\n      mul\n      dup4\n      mstore\n      swap2\n      0x20\n      add\n      swap2\n      jump(tag_109)\n    tag_110:\n      dup3\n      add\n      swap2\n      swap1\n      0x00\n      mstore\n      keccak256(0x00, 0x20)\n      swap1\n    tag_111:\n      dup2\n      sload\n      dup2\n      mstore\n      swap1\n      0x01\n      add\n      swap1\n      0x20\n      add\n      dup1\n      dup4\n      gt\n      tag_111\n      jumpi\n      dup3\n      swap1\n      sub\n      0x1f\n      and\n      dup3\n      add\n      swap2\n    tag_109:\n      pop\n      pop\n      pop\n      pop\n      pop\n      swap1\n      dup1\n      0x02\n      add\n      0x00\n      swap1\n      sload\n      swap1\n      0x0100\n      exp\n      swap1\n      div\n      0xff\n      and\n      swap1\n      pop\n      dup4\n      jump\t// out\n        /* \"contracts/BaseContract.sol\":3436:3497  mapping(address=>SertifikaMerkezi) public sertifikaMerkezleri */\n    tag_38:\n      mstore(0x20, 0x0a)\n      dup1\n      0x00\n      mstore\n      keccak256(0x00, 0x40)\n      0x00\n      swap2\n      pop\n      swap1\n      pop\n      dup1\n      0x00\n      add\n      0x00\n      swap1\n      sload\n      swap1\n      0x0100\n      exp\n      swap1\n      div\n      0xff\n      and\n      swap1\n      dup1\n      0x01\n      add\n      dup1\n      sload\n      tag_112\n      swap1\n      tag_87\n      jump\t// in\n    tag_112:\n      dup1\n      0x1f\n      add\n      0x20\n      dup1\n      swap2\n      div\n      mul\n      0x20\n      add\n      mload(0x40)\n      swap1\n      dup2\n      add\n      0x40\n      mstore\n      dup1\n      swap3\n      swap2\n      swap1\n      dup2\n      dup2\n      mstore\n      0x20\n      add\n      dup3\n      dup1\n      sload\n      tag_113\n      swap1\n      tag_87\n      jump\t// in\n    tag_113:\n      dup1\n      iszero\n      tag_114\n      jumpi\n      dup1\n      0x1f\n      lt\n      tag_115\n      jumpi\n      0x0100\n      dup1\n      dup4\n      sload\n      div\n      mul\n      dup4\n      mstore\n      swap2\n      0x20\n      add\n      swap2\n      jump(tag_114)\n    tag_115:\n      dup3\n      add\n      swap2\n      swap1\n      0x00\n      mstore\n      keccak256(0x00, 0x20)\n      swap1\n    tag_116:\n      dup2\n      sload\n      dup2\n      mstore\n      swap1\n      0x01\n      add\n      swap1\n      0x20\n      add\n      dup1\n      dup4\n      gt\n      tag_116\n      jumpi\n      dup3\n      swap1\n      sub\n      0x1f\n      and\n      dup3\n      add\n      swap2\n    tag_114:\n      pop\n      pop\n      pop\n      pop\n      pop\n      swap1\n      dup1\n      0x02\n      add\n      0x00\n      swap1\n      sload\n      swap1\n      0x0100\n      exp\n      swap1\n      div\n      0xff\n      and\n      swap1\n      pop\n      dup4\n      jump\t// out\n        /* \"contracts/BaseContract.sol\":3246:3286  mapping(address=>Firma) public  firmalar */\n    tag_42:\n      mstore(0x20, 0x06)\n      dup1\n      0x00\n      mstore\n      keccak256(0x00, 0x40)\n      0x00\n      swap2\n      pop\n      swap1\n      pop\n      dup1\n      0x00\n      add\n      0x00\n      swap1\n      sload\n      swap1\n      0x0100\n      exp\n      swap1\n      div\n      0xff\n      and\n      swap1\n      dup1\n      0x00\n      add\n      0x01\n      swap1\n      sload\n      swap1\n      0x0100\n      exp\n      swap1\n      div\n      0xff\n      and\n      swap1\n      dup1\n      0x01\n      add\n      sload\n      swap1\n      dup1\n      0x02\n      add\n      dup1\n      sload\n      tag_117\n      swap1\n      tag_87\n      jump\t// in\n    tag_117:\n      dup1\n      0x1f\n      add\n      0x20\n      dup1\n      swap2\n      div\n      mul\n      0x20\n      add\n      mload(0x40)\n      swap1\n      dup2\n      add\n      0x40\n      mstore\n      dup1\n      swap3\n      swap2\n      swap1\n      dup2\n      dup2\n      mstore\n      0x20\n      add\n      dup3\n      dup1\n      sload\n      tag_118\n      swap1\n      tag_87\n      jump\t// in\n    tag_118:\n      dup1\n      iszero\n      tag_119\n      jumpi\n      dup1\n      0x1f\n      lt\n      tag_120\n      jumpi\n      0x0100\n      dup1\n      dup4\n      sload\n      div\n      mul\n      dup4\n      mstore\n      swap2\n      0x20\n      add\n      swap2\n      jump(tag_119)\n    tag_120:\n      dup3\n      add\n      swap2\n      swap1\n      0x00\n      mstore\n      keccak256(0x00, 0x20)\n      swap1\n    tag_121:\n      dup2\n      sload\n      dup2\n      mstore\n      swap1\n      0x01\n      add\n      swap1\n      0x20\n      add\n      dup1\n      dup4\n      gt\n      tag_121\n      jumpi\n      dup3\n      swap1\n      sub\n      0x1f\n      and\n      dup3\n      add\n      swap2\n    tag_119:\n      pop\n      pop\n      pop\n      pop\n      pop\n      swap1\n      pop\n      dup5\n      jump\t// out\n        /* \"contracts/KursBilgileri.sol\":2647:3608  function talepEtKursBilgi(address _talepEdilenKurum, address kursAdres, uint basTarih, uint bitTarih, uint8 sure, string memory egitimAdi) public sadeceKurs{\r... */\n    tag_48:\n        /* \"contracts/BaseContract.sol\":2424:2431  kurslar */\n      0x07\n        /* \"contracts/BaseContract.sol\":2424:2443  kurslar[msg.sender] */\n      0x00\n        /* \"contracts/BaseContract.sol\":2432:2442  msg.sender */\n      caller\n        /* \"contracts/BaseContract.sol\":2424:2443  kurslar[msg.sender] */\n      0xffffffffffffffffffffffffffffffffffffffff\n      and\n      0xffffffffffffffffffffffffffffffffffffffff\n      and\n      dup2\n      mstore\n      0x20\n      add\n      swap1\n      dup2\n      mstore\n      0x20\n      add\n      0x00\n      keccak256\n        /* \"contracts/BaseContract.sol\":2424:2449  kurslar[msg.sender].durum */\n      0x00\n      add\n      0x00\n      swap1\n      sload\n      swap1\n      0x0100\n      exp\n      swap1\n      div\n      0xff\n      and\n        /* \"contracts/BaseContract.sol\":2416:2501  require(kurslar[msg.sender].durum,\r... */\n      tag_123\n      jumpi\n      mload(0x40)\n      0x08c379a000000000000000000000000000000000000000000000000000000000\n      dup2\n      mstore\n      0x04\n      add\n      tag_124\n      swap1\n      tag_95\n      jump\t// in\n    tag_124:\n      mload(0x40)\n      dup1\n      swap2\n      sub\n      swap1\n      revert\n    tag_123:\n        /* \"contracts/KursBilgileri.sol\":2827:2834  kisiler */\n      0x03\n        /* \"contracts/KursBilgileri.sol\":2827:2846  kisiler[msg.sender] */\n      0x00\n        /* \"contracts/KursBilgileri.sol\":2835:2845  msg.sender */\n      caller\n        /* \"contracts/KursBilgileri.sol\":2827:2846  kisiler[msg.sender] */\n      0xffffffffffffffffffffffffffffffffffffffff\n      and\n      0xffffffffffffffffffffffffffffffffffffffff\n      and\n      dup2\n      mstore\n      0x20\n      add\n      swap1\n      dup2\n      mstore\n      0x20\n      add\n      0x00\n      keccak256\n        /* \"contracts/KursBilgileri.sol\":2827:2852  kisiler[msg.sender].durum */\n      0x00\n      add\n      0x00\n      swap1\n      sload\n      swap1\n      0x0100\n      exp\n      swap1\n      div\n      0xff\n      and\n        /* \"contracts/KursBilgileri.sol\":2819:2873  require(kisiler[msg.sender].durum,\"Kisi mevcut degil\") */\n      tag_126\n      jumpi\n      mload(0x40)\n      0x08c379a000000000000000000000000000000000000000000000000000000000\n      dup2\n      mstore\n      0x04\n      add\n      tag_127\n      swap1\n      tag_99\n      jump\t// in\n    tag_127:\n      mload(0x40)\n      dup1\n      swap2\n      sub\n      swap1\n      revert\n    tag_126:\n        /* \"contracts/KursBilgileri.sol\":2889:2900  uint yeniId */\n      0x00\n        /* \"contracts/KursBilgileri.sol\":2901:2903  id */\n      0x0c\n      0x00\n        /* \"contracts/KursBilgileri.sol\":2901:2905  id++ */\n      dup2\n      sload\n      dup1\n      swap3\n      swap2\n      swap1\n      tag_128\n      swap1\n      tag_129\n      jump\t// in\n    tag_128:\n      swap2\n      swap1\n      pop\n      sstore\n        /* \"contracts/KursBilgileri.sol\":2889:2905  uint yeniId=id++ */\n      swap1\n      pop\n        /* \"contracts/KursBilgileri.sol\":2975:2992  _talepEdilenKurum */\n      dup7\n        /* \"contracts/KursBilgileri.sol\":2921:2937  kursBilgiListesi */\n      0x0d\n        /* \"contracts/KursBilgileri.sol\":2921:2949  kursBilgiListesi[msg.sender] */\n      0x00\n        /* \"contracts/KursBilgileri.sol\":2938:2948  msg.sender */\n      caller\n        /* \"contracts/KursBilgileri.sol\":2921:2949  kursBilgiListesi[msg.sender] */\n      0xffffffffffffffffffffffffffffffffffffffff\n      and\n      0xffffffffffffffffffffffffffffffffffffffff\n      and\n      dup2\n      mstore\n      0x20\n      add\n      swap1\n      dup2\n      mstore\n      0x20\n      add\n      0x00\n      keccak256\n        /* \"contracts/KursBilgileri.sol\":2921:2957  kursBilgiListesi[msg.sender][yeniId] */\n      0x00\n        /* \"contracts/KursBilgileri.sol\":2950:2956  yeniId */\n      dup4\n        /* \"contracts/KursBilgileri.sol\":2921:2957  kursBilgiListesi[msg.sender][yeniId] */\n      dup2\n      mstore\n      0x20\n      add\n      swap1\n      dup2\n      mstore\n      0x20\n      add\n      0x00\n      keccak256\n        /* \"contracts/KursBilgileri.sol\":2921:2974  kursBilgiListesi[msg.sender][yeniId].talepEdilenKurum */\n      0x01\n      add\n      0x00\n        /* \"contracts/KursBilgileri.sol\":2921:2992  kursBilgiListesi[msg.sender][yeniId].talepEdilenKurum=_talepEdilenKurum */\n      0x0100\n      exp\n      dup2\n      sload\n      dup2\n      0xffffffffffffffffffffffffffffffffffffffff\n      mul\n      not\n      and\n      swap1\n      dup4\n      0xffffffffffffffffffffffffffffffffffffffff\n      and\n      mul\n      or\n      swap1\n      sstore\n      pop\n        /* \"contracts/KursBilgileri.sol\":3054:3062  basTarih */\n      dup5\n        /* \"contracts/KursBilgileri.sol\":3008:3024  kursBilgiListesi */\n      0x0d\n        /* \"contracts/KursBilgileri.sol\":3008:3036  kursBilgiListesi[msg.sender] */\n      0x00\n        /* \"contracts/KursBilgileri.sol\":3025:3035  msg.sender */\n      caller\n        /* \"contracts/KursBilgileri.sol\":3008:3036  kursBilgiListesi[msg.sender] */\n      0xffffffffffffffffffffffffffffffffffffffff\n      and\n      0xffffffffffffffffffffffffffffffffffffffff\n      and\n      dup2\n      mstore\n      0x20\n      add\n      swap1\n      dup2\n      mstore\n      0x20\n      add\n      0x00\n      keccak256\n        /* \"contracts/KursBilgileri.sol\":3008:3044  kursBilgiListesi[msg.sender][yeniId] */\n      0x00\n        /* \"contracts/KursBilgileri.sol\":3037:3043  yeniId */\n      dup4\n        /* \"contracts/KursBilgileri.sol\":3008:3044  kursBilgiListesi[msg.sender][yeniId] */\n      dup2\n      mstore\n      0x20\n      add\n      swap1\n      dup2\n      mstore\n      0x20\n      add\n      0x00\n      keccak256\n        /* \"contracts/KursBilgileri.sol\":3008:3053  kursBilgiListesi[msg.sender][yeniId].basTarih */\n      0x02\n      add\n        /* \"contracts/KursBilgileri.sol\":3008:3062  kursBilgiListesi[msg.sender][yeniId].basTarih=basTarih */\n      dup2\n      swap1\n      sstore\n      pop\n        /* \"contracts/KursBilgileri.sol\":3124:3132  bitTarih */\n      dup4\n        /* \"contracts/KursBilgileri.sol\":3078:3094  kursBilgiListesi */\n      0x0d\n        /* \"contracts/KursBilgileri.sol\":3078:3106  kursBilgiListesi[msg.sender] */\n      0x00\n        /* \"contracts/KursBilgileri.sol\":3095:3105  msg.sender */\n      caller\n        /* \"contracts/KursBilgileri.sol\":3078:3106  kursBilgiListesi[msg.sender] */\n      0xffffffffffffffffffffffffffffffffffffffff\n      and\n      0xffffffffffffffffffffffffffffffffffffffff\n      and\n      dup2\n      mstore\n      0x20\n      add\n      swap1\n      dup2\n      mstore\n      0x20\n      add\n      0x00\n      keccak256\n        /* \"contracts/KursBilgileri.sol\":3078:3114  kursBilgiListesi[msg.sender][yeniId] */\n      0x00\n        /* \"contracts/KursBilgileri.sol\":3107:3113  yeniId */\n      dup4\n        /* \"contracts/KursBilgileri.sol\":3078:3114  kursBilgiListesi[msg.sender][yeniId] */\n      dup2\n      mstore\n      0x20\n      add\n      swap1\n      dup2\n      mstore\n      0x20\n      add\n      0x00\n      keccak256\n        /* \"contracts/KursBilgileri.sol\":3078:3123  kursBilgiListesi[msg.sender][yeniId].bitTarih */\n      0x03\n      add\n        /* \"contracts/KursBilgileri.sol\":3078:3132  kursBilgiListesi[msg.sender][yeniId].bitTarih=bitTarih */\n      dup2\n      swap1\n      sstore\n      pop\n        /* \"contracts/KursBilgileri.sol\":3190:3194  sure */\n      dup3\n        /* \"contracts/KursBilgileri.sol\":3148:3164  kursBilgiListesi */\n      0x0d\n        /* \"contracts/KursBilgileri.sol\":3148:3176  kursBilgiListesi[msg.sender] */\n      0x00\n        /* \"contracts/KursBilgileri.sol\":3165:3175  msg.sender */\n      caller\n        /* \"contracts/KursBilgileri.sol\":3148:3176  kursBilgiListesi[msg.sender] */\n      0xffffffffffffffffffffffffffffffffffffffff\n      and\n      0xffffffffffffffffffffffffffffffffffffffff\n      and\n      dup2\n      mstore\n      0x20\n      add\n      swap1\n      dup2\n      mstore\n      0x20\n      add\n      0x00\n      keccak256\n        /* \"contracts/KursBilgileri.sol\":3148:3184  kursBilgiListesi[msg.sender][yeniId] */\n      0x00\n        /* \"contracts/KursBilgileri.sol\":3177:3183  yeniId */\n      dup4\n        /* \"contracts/KursBilgileri.sol\":3148:3184  kursBilgiListesi[msg.sender][yeniId] */\n      dup2\n      mstore\n      0x20\n      add\n      swap1\n      dup2\n      mstore\n      0x20\n      add\n      0x00\n      keccak256\n        /* \"contracts/KursBilgileri.sol\":3148:3189  kursBilgiListesi[msg.sender][yeniId].sure */\n      0x04\n      add\n      0x00\n        /* \"contracts/KursBilgileri.sol\":3148:3194  kursBilgiListesi[msg.sender][yeniId].sure=sure */\n      0x0100\n      exp\n      dup2\n      sload\n      dup2\n      0xff\n      mul\n      not\n      and\n      swap1\n      dup4\n      0xff\n      and\n      mul\n      or\n      swap1\n      sstore\n      pop\n        /* \"contracts/KursBilgileri.sol\":3257:3266  egitimAdi */\n      dup2\n        /* \"contracts/KursBilgileri.sol\":3210:3226  kursBilgiListesi */\n      0x0d\n        /* \"contracts/KursBilgileri.sol\":3210:3238  kursBilgiListesi[msg.sender] */\n      0x00\n        /* \"contracts/KursBilgileri.sol\":3227:3237  msg.sender */\n      caller\n        /* \"contracts/KursBilgileri.sol\":3210:3238  kursBilgiListesi[msg.sender] */\n      0xffffffffffffffffffffffffffffffffffffffff\n      and\n      0xffffffffffffffffffffffffffffffffffffffff\n      and\n      dup2\n      mstore\n      0x20\n      add\n      swap1\n      dup2\n      mstore\n      0x20\n      add\n      0x00\n      keccak256\n        /* \"contracts/KursBilgileri.sol\":3210:3246  kursBilgiListesi[msg.sender][yeniId] */\n      0x00\n        /* \"contracts/KursBilgileri.sol\":3239:3245  yeniId */\n      dup4\n        /* \"contracts/KursBilgileri.sol\":3210:3246  kursBilgiListesi[msg.sender][yeniId] */\n      dup2\n      mstore\n      0x20\n      add\n      swap1\n      dup2\n      mstore\n      0x20\n      add\n      0x00\n      keccak256\n        /* \"contracts/KursBilgileri.sol\":3210:3256  kursBilgiListesi[msg.sender][yeniId].egitimAdi */\n      0x05\n      add\n        /* \"contracts/KursBilgileri.sol\":3210:3266  kursBilgiListesi[msg.sender][yeniId].egitimAdi=egitimAdi */\n      swap1\n      dup1\n      mload\n      swap1\n      0x20\n      add\n      swap1\n      tag_130\n      swap3\n      swap2\n      swap1\n      tag_101\n      jump\t// in\n    tag_130:\n      pop\n        /* \"contracts/KursBilgileri.sol\":3335:3354  OnayDurum.Onaylandi */\n      0x01\n        /* \"contracts/KursBilgileri.sol\":3282:3298  kursBilgiListesi */\n      0x0d\n        /* \"contracts/KursBilgileri.sol\":3282:3310  kursBilgiListesi[msg.sender] */\n      0x00\n        /* \"contracts/KursBilgileri.sol\":3299:3309  msg.sender */\n      caller\n        /* \"contracts/KursBilgileri.sol\":3282:3310  kursBilgiListesi[msg.sender] */\n      0xffffffffffffffffffffffffffffffffffffffff\n      and\n      0xffffffffffffffffffffffffffffffffffffffff\n      and\n      dup2\n      mstore\n      0x20\n      add\n      swap1\n      dup2\n      mstore\n      0x20\n      add\n      0x00\n      keccak256\n        /* \"contracts/KursBilgileri.sol\":3282:3318  kursBilgiListesi[msg.sender][yeniId] */\n      0x00\n        /* \"contracts/KursBilgileri.sol\":3311:3317  yeniId */\n      dup4\n        /* \"contracts/KursBilgileri.sol\":3282:3318  kursBilgiListesi[msg.sender][yeniId] */\n      dup2\n      mstore\n      0x20\n      add\n      swap1\n      dup2\n      mstore\n      0x20\n      add\n      0x00\n      keccak256\n        /* \"contracts/KursBilgileri.sol\":3282:3328  kursBilgiListesi[msg.sender][yeniId].onayBilgi */\n      0x06\n      add\n        /* \"contracts/KursBilgileri.sol\":3282:3334  kursBilgiListesi[msg.sender][yeniId].onayBilgi.durum */\n      0x01\n      add\n      0x14\n        /* \"contracts/KursBilgileri.sol\":3282:3354  kursBilgiListesi[msg.sender][yeniId].onayBilgi.durum=OnayDurum.Onaylandi */\n      0x0100\n      exp\n      dup2\n      sload\n      dup2\n      0xff\n      mul\n      not\n      and\n      swap1\n      dup4\n      0x02\n      dup2\n      gt\n      iszero\n      tag_131\n      jumpi\n      tag_132\n      tag_104\n      jump\t// in\n    tag_132:\n    tag_131:\n      mul\n      or\n      swap1\n      sstore\n      pop\n        /* \"contracts/KursBilgileri.sol\":3423:3438  block.timestamp */\n      timestamp\n        /* \"contracts/KursBilgileri.sol\":3370:3386  kursBilgiListesi */\n      0x0d\n        /* \"contracts/KursBilgileri.sol\":3370:3398  kursBilgiListesi[msg.sender] */\n      0x00\n        /* \"contracts/KursBilgileri.sol\":3387:3397  msg.sender */\n      caller\n        /* \"contracts/KursBilgileri.sol\":3370:3398  kursBilgiListesi[msg.sender] */\n      0xffffffffffffffffffffffffffffffffffffffff\n      and\n      0xffffffffffffffffffffffffffffffffffffffff\n      and\n      dup2\n      mstore\n      0x20\n      add\n      swap1\n      dup2\n      mstore\n      0x20\n      add\n      0x00\n      keccak256\n        /* \"contracts/KursBilgileri.sol\":3370:3406  kursBilgiListesi[msg.sender][yeniId] */\n      0x00\n        /* \"contracts/KursBilgileri.sol\":3399:3405  yeniId */\n      dup4\n        /* \"contracts/KursBilgileri.sol\":3370:3406  kursBilgiListesi[msg.sender][yeniId] */\n      dup2\n      mstore\n      0x20\n      add\n      swap1\n      dup2\n      mstore\n      0x20\n      add\n      0x00\n      keccak256\n        /* \"contracts/KursBilgileri.sol\":3370:3416  kursBilgiListesi[msg.sender][yeniId].onayBilgi */\n      0x06\n      add\n        /* \"contracts/KursBilgileri.sol\":3370:3422  kursBilgiListesi[msg.sender][yeniId].onayBilgi.zaman */\n      0x00\n      add\n        /* \"contracts/KursBilgileri.sol\":3370:3438  kursBilgiListesi[msg.sender][yeniId].onayBilgi.zaman=block.timestamp */\n      dup2\n      swap1\n      sstore\n      pop\n        /* \"contracts/KursBilgileri.sol\":3507:3517  msg.sender */\n      caller\n        /* \"contracts/KursBilgileri.sol\":3454:3470  kursBilgiListesi */\n      0x0d\n        /* \"contracts/KursBilgileri.sol\":3454:3482  kursBilgiListesi[msg.sender] */\n      0x00\n        /* \"contracts/KursBilgileri.sol\":3471:3481  msg.sender */\n      caller\n        /* \"contracts/KursBilgileri.sol\":3454:3482  kursBilgiListesi[msg.sender] */\n      0xffffffffffffffffffffffffffffffffffffffff\n      and\n      0xffffffffffffffffffffffffffffffffffffffff\n      and\n      dup2\n      mstore\n      0x20\n      add\n      swap1\n      dup2\n      mstore\n      0x20\n      add\n      0x00\n      keccak256\n        /* \"contracts/KursBilgileri.sol\":3454:3490  kursBilgiListesi[msg.sender][yeniId] */\n      0x00\n        /* \"contracts/KursBilgileri.sol\":3483:3489  yeniId */\n      dup4\n        /* \"contracts/KursBilgileri.sol\":3454:3490  kursBilgiListesi[msg.sender][yeniId] */\n      dup2\n      mstore\n      0x20\n      add\n      swap1\n      dup2\n      mstore\n      0x20\n      add\n      0x00\n      keccak256\n        /* \"contracts/KursBilgileri.sol\":3454:3500  kursBilgiListesi[msg.sender][yeniId].onayBilgi */\n      0x06\n      add\n        /* \"contracts/KursBilgileri.sol\":3454:3506  kursBilgiListesi[msg.sender][yeniId].onayBilgi.adres */\n      0x01\n      add\n      0x00\n        /* \"contracts/KursBilgileri.sol\":3454:3517  kursBilgiListesi[msg.sender][yeniId].onayBilgi.adres=msg.sender */\n      0x0100\n      exp\n      dup2\n      sload\n      dup2\n      0xffffffffffffffffffffffffffffffffffffffff\n      mul\n      not\n      and\n      swap1\n      dup4\n      0xffffffffffffffffffffffffffffffffffffffff\n      and\n      mul\n      or\n      swap1\n      sstore\n      pop\n        /* \"contracts/KursBilgileri.sol\":3537:3596  KursEklendiLog(_talepEdilenKurum, basTarih, bitTarih, sure) */\n      0xceeb2cb6b3cfcd4203736ec1a776bc065e4ff58f126ddc27b185fe94e5e2ff9e\n        /* \"contracts/KursBilgileri.sol\":3552:3569  _talepEdilenKurum */\n      dup8\n        /* \"contracts/KursBilgileri.sol\":3571:3579  basTarih */\n      dup7\n        /* \"contracts/KursBilgileri.sol\":3581:3589  bitTarih */\n      dup7\n        /* \"contracts/KursBilgileri.sol\":3591:3595  sure */\n      dup7\n        /* \"contracts/KursBilgileri.sol\":3537:3596  KursEklendiLog(_talepEdilenKurum, basTarih, bitTarih, sure) */\n      mload(0x40)\n      tag_133\n      swap5\n      swap4\n      swap3\n      swap2\n      swap1\n      tag_106\n      jump\t// in\n    tag_133:\n      mload(0x40)\n      dup1\n      swap2\n      sub\n      swap1\n      log1\n        /* \"contracts/KursBilgileri.sol\":2803:3608  {\r... */\n      pop\n        /* \"contracts/KursBilgileri.sol\":2647:3608  function talepEtKursBilgi(address _talepEdilenKurum, address kursAdres, uint basTarih, uint bitTarih, uint8 sure, string memory egitimAdi) public sadeceKurs{\r... */\n      pop\n      pop\n      pop\n      pop\n      pop\n      pop\n      jump\t// out\n        /* \"contracts/KursBilgileri.sol\":782:1643  function ekleKursBilgi(address _kisiAddress,  uint basTarih, uint bitTarih, uint8 sure, string memory egitimAdi) public sadeceKurs{\r... */\n    tag_52:\n        /* \"contracts/BaseContract.sol\":2424:2431  kurslar */\n      0x07\n        /* \"contracts/BaseContract.sol\":2424:2443  kurslar[msg.sender] */\n      0x00\n        /* \"contracts/BaseContract.sol\":2432:2442  msg.sender */\n      caller\n        /* \"contracts/BaseContract.sol\":2424:2443  kurslar[msg.sender] */\n      0xffffffffffffffffffffffffffffffffffffffff\n      and\n      0xffffffffffffffffffffffffffffffffffffffff\n      and\n      dup2\n      mstore\n      0x20\n      add\n      swap1\n      dup2\n      mstore\n      0x20\n      add\n      0x00\n      keccak256\n        /* \"contracts/BaseContract.sol\":2424:2449  kurslar[msg.sender].durum */\n      0x00\n      add\n      0x00\n      swap1\n      sload\n      swap1\n      0x0100\n      exp\n      swap1\n      div\n      0xff\n      and\n        /* \"contracts/BaseContract.sol\":2416:2501  require(kurslar[msg.sender].durum,\r... */\n      tag_135\n      jumpi\n      mload(0x40)\n      0x08c379a000000000000000000000000000000000000000000000000000000000\n      dup2\n      mstore\n      0x04\n      add\n      tag_136\n      swap1\n      tag_95\n      jump\t// in\n    tag_136:\n      mload(0x40)\n      dup1\n      swap2\n      sub\n      swap1\n      revert\n    tag_135:\n        /* \"contracts/KursBilgileri.sol\":936:943  kisiler */\n      0x03\n        /* \"contracts/KursBilgileri.sol\":936:957  kisiler[_kisiAddress] */\n      0x00\n        /* \"contracts/KursBilgileri.sol\":944:956  _kisiAddress */\n      dup7\n        /* \"contracts/KursBilgileri.sol\":936:957  kisiler[_kisiAddress] */\n      0xffffffffffffffffffffffffffffffffffffffff\n      and\n      0xffffffffffffffffffffffffffffffffffffffff\n      and\n      dup2\n      mstore\n      0x20\n      add\n      swap1\n      dup2\n      mstore\n      0x20\n      add\n      0x00\n      keccak256\n        /* \"contracts/KursBilgileri.sol\":936:963  kisiler[_kisiAddress].durum */\n      0x00\n      add\n      0x00\n      swap1\n      sload\n      swap1\n      0x0100\n      exp\n      swap1\n      div\n      0xff\n      and\n        /* \"contracts/KursBilgileri.sol\":928:984  require(kisiler[_kisiAddress].durum,\"Kisi mevcut degil\") */\n      tag_138\n      jumpi\n      mload(0x40)\n      0x08c379a000000000000000000000000000000000000000000000000000000000\n      dup2\n      mstore\n      0x04\n      add\n      tag_139\n      swap1\n      tag_99\n      jump\t// in\n    tag_139:\n      mload(0x40)\n      dup1\n      swap2\n      sub\n      swap1\n      revert\n    tag_138:\n        /* \"contracts/KursBilgileri.sol\":1000:1011  uint yeniId */\n      0x00\n        /* \"contracts/KursBilgileri.sol\":1012:1014  id */\n      0x0c\n      0x00\n        /* \"contracts/KursBilgileri.sol\":1012:1016  id++ */\n      dup2\n      sload\n      dup1\n      swap3\n      swap2\n      swap1\n      tag_140\n      swap1\n      tag_129\n      jump\t// in\n    tag_140:\n      swap2\n      swap1\n      pop\n      sstore\n        /* \"contracts/KursBilgileri.sol\":1000:1016  uint yeniId=id++ */\n      swap1\n      pop\n        /* \"contracts/KursBilgileri.sol\":1082:1090  basTarih */\n      dup5\n        /* \"contracts/KursBilgileri.sol\":1034:1050  kursBilgiListesi */\n      0x0d\n        /* \"contracts/KursBilgileri.sol\":1034:1064  kursBilgiListesi[_kisiAddress] */\n      0x00\n        /* \"contracts/KursBilgileri.sol\":1051:1063  _kisiAddress */\n      dup9\n        /* \"contracts/KursBilgileri.sol\":1034:1064  kursBilgiListesi[_kisiAddress] */\n      0xffffffffffffffffffffffffffffffffffffffff\n      and\n      0xffffffffffffffffffffffffffffffffffffffff\n      and\n      dup2\n      mstore\n      0x20\n      add\n      swap1\n      dup2\n      mstore\n      0x20\n      add\n      0x00\n      keccak256\n        /* \"contracts/KursBilgileri.sol\":1034:1072  kursBilgiListesi[_kisiAddress][yeniId] */\n      0x00\n        /* \"contracts/KursBilgileri.sol\":1065:1071  yeniId */\n      dup4\n        /* \"contracts/KursBilgileri.sol\":1034:1072  kursBilgiListesi[_kisiAddress][yeniId] */\n      dup2\n      mstore\n      0x20\n      add\n      swap1\n      dup2\n      mstore\n      0x20\n      add\n      0x00\n      keccak256\n        /* \"contracts/KursBilgileri.sol\":1034:1081  kursBilgiListesi[_kisiAddress][yeniId].basTarih */\n      0x02\n      add\n        /* \"contracts/KursBilgileri.sol\":1034:1090  kursBilgiListesi[_kisiAddress][yeniId].basTarih=basTarih */\n      dup2\n      swap1\n      sstore\n      pop\n        /* \"contracts/KursBilgileri.sol\":1154:1162  bitTarih */\n      dup4\n        /* \"contracts/KursBilgileri.sol\":1106:1122  kursBilgiListesi */\n      0x0d\n        /* \"contracts/KursBilgileri.sol\":1106:1136  kursBilgiListesi[_kisiAddress] */\n      0x00\n        /* \"contracts/KursBilgileri.sol\":1123:1135  _kisiAddress */\n      dup9\n        /* \"contracts/KursBilgileri.sol\":1106:1136  kursBilgiListesi[_kisiAddress] */\n      0xffffffffffffffffffffffffffffffffffffffff\n      and\n      0xffffffffffffffffffffffffffffffffffffffff\n      and\n      dup2\n      mstore\n      0x20\n      add\n      swap1\n      dup2\n      mstore\n      0x20\n      add\n      0x00\n      keccak256\n        /* \"contracts/KursBilgileri.sol\":1106:1144  kursBilgiListesi[_kisiAddress][yeniId] */\n      0x00\n        /* \"contracts/KursBilgileri.sol\":1137:1143  yeniId */\n      dup4\n        /* \"contracts/KursBilgileri.sol\":1106:1144  kursBilgiListesi[_kisiAddress][yeniId] */\n      dup2\n      mstore\n      0x20\n      add\n      swap1\n      dup2\n      mstore\n      0x20\n      add\n      0x00\n      keccak256\n        /* \"contracts/KursBilgileri.sol\":1106:1153  kursBilgiListesi[_kisiAddress][yeniId].bitTarih */\n      0x03\n      add\n        /* \"contracts/KursBilgileri.sol\":1106:1162  kursBilgiListesi[_kisiAddress][yeniId].bitTarih=bitTarih */\n      dup2\n      swap1\n      sstore\n      pop\n        /* \"contracts/KursBilgileri.sol\":1222:1226  sure */\n      dup3\n        /* \"contracts/KursBilgileri.sol\":1178:1194  kursBilgiListesi */\n      0x0d\n        /* \"contracts/KursBilgileri.sol\":1178:1208  kursBilgiListesi[_kisiAddress] */\n      0x00\n        /* \"contracts/KursBilgileri.sol\":1195:1207  _kisiAddress */\n      dup9\n        /* \"contracts/KursBilgileri.sol\":1178:1208  kursBilgiListesi[_kisiAddress] */\n      0xffffffffffffffffffffffffffffffffffffffff\n      and\n      0xffffffffffffffffffffffffffffffffffffffff\n      and\n      dup2\n      mstore\n      0x20\n      add\n      swap1\n      dup2\n      mstore\n      0x20\n      add\n      0x00\n      keccak256\n        /* \"contracts/KursBilgileri.sol\":1178:1216  kursBilgiListesi[_kisiAddress][yeniId] */\n      0x00\n        /* \"contracts/KursBilgileri.sol\":1209:1215  yeniId */\n      dup4\n        /* \"contracts/KursBilgileri.sol\":1178:1216  kursBilgiListesi[_kisiAddress][yeniId] */\n      dup2\n      mstore\n      0x20\n      add\n      swap1\n      dup2\n      mstore\n      0x20\n      add\n      0x00\n      keccak256\n        /* \"contracts/KursBilgileri.sol\":1178:1221  kursBilgiListesi[_kisiAddress][yeniId].sure */\n      0x04\n      add\n      0x00\n        /* \"contracts/KursBilgileri.sol\":1178:1226  kursBilgiListesi[_kisiAddress][yeniId].sure=sure */\n      0x0100\n      exp\n      dup2\n      sload\n      dup2\n      0xff\n      mul\n      not\n      and\n      swap1\n      dup4\n      0xff\n      and\n      mul\n      or\n      swap1\n      sstore\n      pop\n        /* \"contracts/KursBilgileri.sol\":1291:1300  egitimAdi */\n      dup2\n        /* \"contracts/KursBilgileri.sol\":1242:1258  kursBilgiListesi */\n      0x0d\n        /* \"contracts/KursBilgileri.sol\":1242:1272  kursBilgiListesi[_kisiAddress] */\n      0x00\n        /* \"contracts/KursBilgileri.sol\":1259:1271  _kisiAddress */\n      dup9\n        /* \"contracts/KursBilgileri.sol\":1242:1272  kursBilgiListesi[_kisiAddress] */\n      0xffffffffffffffffffffffffffffffffffffffff\n      and\n      0xffffffffffffffffffffffffffffffffffffffff\n      and\n      dup2\n      mstore\n      0x20\n      add\n      swap1\n      dup2\n      mstore\n      0x20\n      add\n      0x00\n      keccak256\n        /* \"contracts/KursBilgileri.sol\":1242:1280  kursBilgiListesi[_kisiAddress][yeniId] */\n      0x00\n        /* \"contracts/KursBilgileri.sol\":1273:1279  yeniId */\n      dup4\n        /* \"contracts/KursBilgileri.sol\":1242:1280  kursBilgiListesi[_kisiAddress][yeniId] */\n      dup2\n      mstore\n      0x20\n      add\n      swap1\n      dup2\n      mstore\n      0x20\n      add\n      0x00\n      keccak256\n        /* \"contracts/KursBilgileri.sol\":1242:1290  kursBilgiListesi[_kisiAddress][yeniId].egitimAdi */\n      0x05\n      add\n        /* \"contracts/KursBilgileri.sol\":1242:1300  kursBilgiListesi[_kisiAddress][yeniId].egitimAdi=egitimAdi */\n      swap1\n      dup1\n      mload\n      swap1\n      0x20\n      add\n      swap1\n      tag_141\n      swap3\n      swap2\n      swap1\n      tag_101\n      jump\t// in\n    tag_141:\n      pop\n        /* \"contracts/KursBilgileri.sol\":1371:1390  OnayDurum.Onaylandi */\n      0x01\n        /* \"contracts/KursBilgileri.sol\":1316:1332  kursBilgiListesi */\n      0x0d\n        /* \"contracts/KursBilgileri.sol\":1316:1346  kursBilgiListesi[_kisiAddress] */\n      0x00\n        /* \"contracts/KursBilgileri.sol\":1333:1345  _kisiAddress */\n      dup9\n        /* \"contracts/KursBilgileri.sol\":1316:1346  kursBilgiListesi[_kisiAddress] */\n      0xffffffffffffffffffffffffffffffffffffffff\n      and\n      0xffffffffffffffffffffffffffffffffffffffff\n      and\n      dup2\n      mstore\n      0x20\n      add\n      swap1\n      dup2\n      mstore\n      0x20\n      add\n      0x00\n      keccak256\n        /* \"contracts/KursBilgileri.sol\":1316:1354  kursBilgiListesi[_kisiAddress][yeniId] */\n      0x00\n        /* \"contracts/KursBilgileri.sol\":1347:1353  yeniId */\n      dup4\n        /* \"contracts/KursBilgileri.sol\":1316:1354  kursBilgiListesi[_kisiAddress][yeniId] */\n      dup2\n      mstore\n      0x20\n      add\n      swap1\n      dup2\n      mstore\n      0x20\n      add\n      0x00\n      keccak256\n        /* \"contracts/KursBilgileri.sol\":1316:1364  kursBilgiListesi[_kisiAddress][yeniId].onayBilgi */\n      0x06\n      add\n        /* \"contracts/KursBilgileri.sol\":1316:1370  kursBilgiListesi[_kisiAddress][yeniId].onayBilgi.durum */\n      0x01\n      add\n      0x14\n        /* \"contracts/KursBilgileri.sol\":1316:1390  kursBilgiListesi[_kisiAddress][yeniId].onayBilgi.durum=OnayDurum.Onaylandi */\n      0x0100\n      exp\n      dup2\n      sload\n      dup2\n      0xff\n      mul\n      not\n      and\n      swap1\n      dup4\n      0x02\n      dup2\n      gt\n      iszero\n      tag_142\n      jumpi\n      tag_143\n      tag_104\n      jump\t// in\n    tag_143:\n    tag_142:\n      mul\n      or\n      swap1\n      sstore\n      pop\n        /* \"contracts/KursBilgileri.sol\":1461:1476  block.timestamp */\n      timestamp\n        /* \"contracts/KursBilgileri.sol\":1406:1422  kursBilgiListesi */\n      0x0d\n        /* \"contracts/KursBilgileri.sol\":1406:1436  kursBilgiListesi[_kisiAddress] */\n      0x00\n        /* \"contracts/KursBilgileri.sol\":1423:1435  _kisiAddress */\n      dup9\n        /* \"contracts/KursBilgileri.sol\":1406:1436  kursBilgiListesi[_kisiAddress] */\n      0xffffffffffffffffffffffffffffffffffffffff\n      and\n      0xffffffffffffffffffffffffffffffffffffffff\n      and\n      dup2\n      mstore\n      0x20\n      add\n      swap1\n      dup2\n      mstore\n      0x20\n      add\n      0x00\n      keccak256\n        /* \"contracts/KursBilgileri.sol\":1406:1444  kursBilgiListesi[_kisiAddress][yeniId] */\n      0x00\n        /* \"contracts/KursBilgileri.sol\":1437:1443  yeniId */\n      dup4\n        /* \"contracts/KursBilgileri.sol\":1406:1444  kursBilgiListesi[_kisiAddress][yeniId] */\n      dup2\n      mstore\n      0x20\n      add\n      swap1\n      dup2\n      mstore\n      0x20\n      add\n      0x00\n      keccak256\n        /* \"contracts/KursBilgileri.sol\":1406:1454  kursBilgiListesi[_kisiAddress][yeniId].onayBilgi */\n      0x06\n      add\n        /* \"contracts/KursBilgileri.sol\":1406:1460  kursBilgiListesi[_kisiAddress][yeniId].onayBilgi.zaman */\n      0x00\n      add\n        /* \"contracts/KursBilgileri.sol\":1406:1476  kursBilgiListesi[_kisiAddress][yeniId].onayBilgi.zaman=block.timestamp */\n      dup2\n      swap1\n      sstore\n      pop\n        /* \"contracts/KursBilgileri.sol\":1547:1557  msg.sender */\n      caller\n        /* \"contracts/KursBilgileri.sol\":1492:1508  kursBilgiListesi */\n      0x0d\n        /* \"contracts/KursBilgileri.sol\":1492:1522  kursBilgiListesi[_kisiAddress] */\n      0x00\n        /* \"contracts/KursBilgileri.sol\":1509:1521  _kisiAddress */\n      dup9\n        /* \"contracts/KursBilgileri.sol\":1492:1522  kursBilgiListesi[_kisiAddress] */\n      0xffffffffffffffffffffffffffffffffffffffff\n      and\n      0xffffffffffffffffffffffffffffffffffffffff\n      and\n      dup2\n      mstore\n      0x20\n      add\n      swap1\n      dup2\n      mstore\n      0x20\n      add\n      0x00\n      keccak256\n        /* \"contracts/KursBilgileri.sol\":1492:1530  kursBilgiListesi[_kisiAddress][yeniId] */\n      0x00\n        /* \"contracts/KursBilgileri.sol\":1523:1529  yeniId */\n      dup4\n        /* \"contracts/KursBilgileri.sol\":1492:1530  kursBilgiListesi[_kisiAddress][yeniId] */\n      dup2\n      mstore\n      0x20\n      add\n      swap1\n      dup2\n      mstore\n      0x20\n      add\n      0x00\n      keccak256\n        /* \"contracts/KursBilgileri.sol\":1492:1540  kursBilgiListesi[_kisiAddress][yeniId].onayBilgi */\n      0x06\n      add\n        /* \"contracts/KursBilgileri.sol\":1492:1546  kursBilgiListesi[_kisiAddress][yeniId].onayBilgi.adres */\n      0x01\n      add\n      0x00\n        /* \"contracts/KursBilgileri.sol\":1492:1557  kursBilgiListesi[_kisiAddress][yeniId].onayBilgi.adres=msg.sender */\n      0x0100\n      exp\n      dup2\n      sload\n      dup2\n      0xffffffffffffffffffffffffffffffffffffffff\n      mul\n      not\n      and\n      swap1\n      dup4\n      0xffffffffffffffffffffffffffffffffffffffff\n      and\n      mul\n      or\n      swap1\n      sstore\n      pop\n        /* \"contracts/KursBilgileri.sol\":1577:1631  KursEklendiLog(_kisiAddress, basTarih, bitTarih, sure) */\n      0xceeb2cb6b3cfcd4203736ec1a776bc065e4ff58f126ddc27b185fe94e5e2ff9e\n        /* \"contracts/KursBilgileri.sol\":1592:1604  _kisiAddress */\n      dup7\n        /* \"contracts/KursBilgileri.sol\":1606:1614  basTarih */\n      dup7\n        /* \"contracts/KursBilgileri.sol\":1616:1624  bitTarih */\n      dup7\n        /* \"contracts/KursBilgileri.sol\":1626:1630  sure */\n      dup7\n        /* \"contracts/KursBilgileri.sol\":1577:1631  KursEklendiLog(_kisiAddress, basTarih, bitTarih, sure) */\n      mload(0x40)\n      tag_144\n      swap5\n      swap4\n      swap3\n      swap2\n      swap1\n      tag_106\n      jump\t// in\n    tag_144:\n      mload(0x40)\n      dup1\n      swap2\n      sub\n      swap1\n      log1\n        /* \"contracts/KursBilgileri.sol\":912:1643  {\r... */\n      pop\n        /* \"contracts/KursBilgileri.sol\":782:1643  function ekleKursBilgi(address _kisiAddress,  uint basTarih, uint bitTarih, uint8 sure, string memory egitimAdi) public sadeceKurs{\r... */\n      pop\n      pop\n      pop\n      pop\n      pop\n      jump\t// out\n        /* \"contracts/BaseContract.sol\":3338:3387  mapping(address=>KamuKurumu) public kamuKurumlari */\n    tag_55:\n      mstore(0x20, 0x08)\n      dup1\n      0x00\n      mstore\n      keccak256(0x00, 0x40)\n      0x00\n      swap2\n      pop\n      swap1\n      pop\n      dup1\n      0x00\n      add\n      0x00\n      swap1\n      sload\n      swap1\n      0x0100\n      exp\n      swap1\n      div\n      0xff\n      and\n      swap1\n      dup1\n      0x01\n      add\n      dup1\n      sload\n      tag_145\n      swap1\n      tag_87\n      jump\t// in\n    tag_145:\n      dup1\n      0x1f\n      add\n      0x20\n      dup1\n      swap2\n      div\n      mul\n      0x20\n      add\n      mload(0x40)\n      swap1\n      dup2\n      add\n      0x40\n      mstore\n      dup1\n      swap3\n      swap2\n      swap1\n      dup2\n      dup2\n      mstore\n      0x20\n      add\n      dup3\n      dup1\n      sload\n      tag_146\n      swap1\n      tag_87\n      jump\t// in\n    tag_146:\n      dup1\n      iszero\n      tag_147\n      jumpi\n      dup1\n      0x1f\n      lt\n      tag_148\n      jumpi\n      0x0100\n      dup1\n      dup4\n      sload\n      div\n      mul\n      dup4\n      mstore\n      swap2\n      0x20\n      add\n      swap2\n      jump(tag_147)\n    tag_148:\n      dup3\n      add\n      swap2\n      swap1\n      0x00\n      mstore\n      keccak256(0x00, 0x20)\n      swap1\n    tag_149:\n      dup2\n      sload\n      dup2\n      mstore\n      swap1\n      0x01\n      add\n      swap1\n      0x20\n      add\n      dup1\n      dup4\n      gt\n      tag_149\n      jumpi\n      dup3\n      swap1\n      sub\n      0x1f\n      and\n      dup3\n      add\n      swap2\n    tag_147:\n      pop\n      pop\n      pop\n      pop\n      pop\n      swap1\n      dup1\n      0x02\n      add\n      0x00\n      swap1\n      sload\n      swap1\n      0x0100\n      exp\n      swap1\n      div\n      0xff\n      and\n      swap1\n      pop\n      dup4\n      jump\t// out\n        /* \"contracts/BaseContract.sol\":3394:3429  mapping(address=>STK) public stklar */\n    tag_59:\n      mstore(0x20, 0x09)\n      dup1\n      0x00\n      mstore\n      keccak256(0x00, 0x40)\n      0x00\n      swap2\n      pop\n      swap1\n      pop\n      dup1\n      0x00\n      add\n      0x00\n      swap1\n      sload\n      swap1\n      0x0100\n      exp\n      swap1\n      div\n      0xff\n      and\n      swap1\n      dup1\n      0x01\n      add\n      dup1\n      sload\n      tag_150\n      swap1\n      tag_87\n      jump\t// in\n    tag_150:\n      dup1\n      0x1f\n      add\n      0x20\n      dup1\n      swap2\n      div\n      mul\n      0x20\n      add\n      mload(0x40)\n      swap1\n      dup2\n      add\n      0x40\n      mstore\n      dup1\n      swap3\n      swap2\n      swap1\n      dup2\n      dup2\n      mstore\n      0x20\n      add\n      dup3\n      dup1\n      sload\n      tag_151\n      swap1\n      tag_87\n      jump\t// in\n    tag_151:\n      dup1\n      iszero\n      tag_152\n      jumpi\n      dup1\n      0x1f\n      lt\n      tag_153\n      jumpi\n      0x0100\n      dup1\n      dup4\n      sload\n      div\n      mul\n      dup4\n      mstore\n      swap2\n      0x20\n      add\n      swap2\n      jump(tag_152)\n    tag_153:\n      dup3\n      add\n      swap2\n      swap1\n      0x00\n      mstore\n      keccak256(0x00, 0x20)\n      swap1\n    tag_154:\n      dup2\n      sload\n      dup2\n      mstore\n      swap1\n      0x01\n      add\n      swap1\n      0x20\n      add\n      dup1\n      dup4\n      gt\n      tag_154\n      jumpi\n      dup3\n      swap1\n      sub\n      0x1f\n      and\n      dup3\n      add\n      swap2\n    tag_152:\n      pop\n      pop\n      pop\n      pop\n      pop\n      swap1\n      dup1\n      0x02\n      add\n      0x00\n      swap1\n      sload\n      swap1\n      0x0100\n      exp\n      swap1\n      div\n      0xff\n      and\n      swap1\n      pop\n      dup4\n      jump\t// out\n        /* \"contracts/BaseContract.sol\":3505:3546  mapping(uint32=>YabanciDil) public diller */\n    tag_64:\n      mstore(0x20, 0x0b)\n      dup1\n      0x00\n      mstore\n      keccak256(0x00, 0x40)\n      0x00\n      swap2\n      pop\n      swap1\n      pop\n      dup1\n      0x00\n      add\n      0x00\n      swap1\n      sload\n      swap1\n      0x0100\n      exp\n      swap1\n      div\n      0xffffffff\n      and\n      swap1\n      dup1\n      0x01\n      add\n      dup1\n      sload\n      tag_155\n      swap1\n      tag_87\n      jump\t// in\n    tag_155:\n      dup1\n      0x1f\n      add\n      0x20\n      dup1\n      swap2\n      div\n      mul\n      0x20\n      add\n      mload(0x40)\n      swap1\n      dup2\n      add\n      0x40\n      mstore\n      dup1\n      swap3\n      swap2\n      swap1\n      dup2\n      dup2\n      mstore\n      0x20\n      add\n      dup3\n      dup1\n      sload\n      tag_156\n      swap1\n      tag_87\n      jump\t// in\n    tag_156:\n      dup1\n      iszero\n      tag_157\n      jumpi\n      dup1\n      0x1f\n      lt\n      tag_158\n      jumpi\n      0x0100\n      dup1\n      dup4\n      sload\n      div\n      mul\n      dup4\n      mstore\n      swap2\n      0x20\n      add\n      swap2\n      jump(tag_157)\n    tag_158:\n      dup3\n      add\n      swap2\n      swap1\n      0x00\n      mstore\n      keccak256(0x00, 0x20)\n      swap1\n    tag_159:\n      dup2\n      sload\n      dup2\n      mstore\n      swap1\n      0x01\n      add\n      swap1\n      0x20\n      add\n      dup1\n      dup4\n      gt\n      tag_159\n      jumpi\n      dup3\n      swap1\n      sub\n      0x1f\n      and\n      dup3\n      add\n      swap2\n    tag_157:\n      pop\n      pop\n      pop\n      pop\n      pop\n      swap1\n      pop\n      dup3\n      jump\t// out\n        /* \"contracts/KursBilgileri.sol\":147:161  uint public id */\n    tag_68:\n      sload(0x0c)\n      dup2\n      jump\t// out\n        /* \"contracts/BaseContract.sol\":3188:3239  mapping(address=>Akademisyen) public akademisyenler */\n    tag_72:\n      mstore(0x20, 0x05)\n      dup1\n      0x00\n      mstore\n      keccak256(0x00, 0x40)\n      0x00\n      swap2\n      pop\n      swap1\n      pop\n      dup1\n      0x00\n      add\n      0x00\n      swap1\n      sload\n      swap1\n      0x0100\n      exp\n      swap1\n      div\n      0xff\n      and\n      swap1\n      dup1\n      0x00\n      add\n      0x01\n      swap1\n      sload\n      swap1\n      0x0100\n      exp\n      swap1\n      div\n      0xffffffffffffffffffffffffffffffffffffffff\n      and\n      swap1\n      dup1\n      0x00\n      add\n      0x15\n      swap1\n      sload\n      swap1\n      0x0100\n      exp\n      swap1\n      div\n      0xffff\n      and\n      swap1\n      dup1\n      0x00\n      add\n      0x17\n      swap1\n      sload\n      swap1\n      0x0100\n      exp\n      swap1\n      div\n      0xff\n      and\n      swap1\n      dup1\n      0x01\n      add\n      dup1\n      sload\n      tag_160\n      swap1\n      tag_87\n      jump\t// in\n    tag_160:\n      dup1\n      0x1f\n      add\n      0x20\n      dup1\n      swap2\n      div\n      mul\n      0x20\n      add\n      mload(0x40)\n      swap1\n      dup2\n      add\n      0x40\n      mstore\n      dup1\n      swap3\n      swap2\n      swap1\n      dup2\n      dup2\n      mstore\n      0x20\n      add\n      dup3\n      dup1\n      sload\n      tag_161\n      swap1\n      tag_87\n      jump\t// in\n    tag_161:\n      dup1\n      iszero\n      tag_162\n      jumpi\n      dup1\n      0x1f\n      lt\n      tag_163\n      jumpi\n      0x0100\n      dup1\n      dup4\n      sload\n      div\n      mul\n      dup4\n      mstore\n      swap2\n      0x20\n      add\n      swap2\n      jump(tag_162)\n    tag_163:\n      dup3\n      add\n      swap2\n      swap1\n      0x00\n      mstore\n      keccak256(0x00, 0x20)\n      swap1\n    tag_164:\n      dup2\n      sload\n      dup2\n      mstore\n      swap1\n      0x01\n      add\n      swap1\n      0x20\n      add\n      dup1\n      dup4\n      gt\n      tag_164\n      jumpi\n      dup3\n      swap1\n      sub\n      0x1f\n      and\n      dup3\n      add\n      swap2\n    tag_162:\n      pop\n      pop\n      pop\n      pop\n      pop\n      swap1\n      dup1\n      0x02\n      add\n      dup1\n      sload\n      tag_165\n      swap1\n      tag_87\n      jump\t// in\n    tag_165:\n      dup1\n      0x1f\n      add\n      0x20\n      dup1\n      swap2\n      div\n      mul\n      0x20\n      add\n      mload(0x40)\n      swap1\n      dup2\n      add\n      0x40\n      mstore\n      dup1\n      swap3\n      swap2\n      swap1\n      dup2\n      dup2\n      mstore\n      0x20\n      add\n      dup3\n      dup1\n      sload\n      tag_166\n      swap1\n      tag_87\n      jump\t// in\n    tag_166:\n      dup1\n      iszero\n      tag_167\n      jumpi\n      dup1\n      0x1f\n      lt\n      tag_168\n      jumpi\n      0x0100\n      dup1\n      dup4\n      sload\n      div\n      mul\n      dup4\n      mstore\n      swap2\n      0x20\n      add\n      swap2\n      jump(tag_167)\n    tag_168:\n      dup3\n      add\n      swap2\n      swap1\n      0x00\n      mstore\n      keccak256(0x00, 0x20)\n      swap1\n    tag_169:\n      dup2\n      sload\n      dup2\n      mstore\n      swap1\n      0x01\n      add\n      swap1\n      0x20\n      add\n      dup1\n      dup4\n      gt\n      tag_169\n      jumpi\n      dup3\n      swap1\n      sub\n      0x1f\n      and\n      dup3\n      add\n      swap2\n    tag_167:\n      pop\n      pop\n      pop\n      pop\n      pop\n      swap1\n      pop\n      dup7\n      jump\t// out\n        /* \"contracts/BaseContract.sol\":3088:3125  mapping(address=>Kisi) public kisiler */\n    tag_77:\n      mstore(0x20, 0x03)\n      dup1\n      0x00\n      mstore\n      keccak256(0x00, 0x40)\n      0x00\n      swap2\n      pop\n      swap1\n      pop\n      dup1\n      0x00\n      add\n      0x00\n      swap1\n      sload\n      swap1\n      0x0100\n      exp\n      swap1\n      div\n      0xff\n      and\n      swap1\n      pop\n      dup2\n      jump\t// out\n        /* \"contracts/KursBilgileri.sol\":390:456  mapping(address=>mapping(uint=>KursBilgi)) public kursBilgiListesi */\n    tag_83:\n      mstore(0x20, 0x0d)\n      dup2\n      0x00\n      mstore\n      mstore(0x20, keccak256(0x00, 0x40))\n      dup1\n      0x00\n      mstore\n      keccak256(0x00, 0x40)\n      0x00\n      swap2\n      pop\n      swap2\n      pop\n      pop\n      dup1\n      0x00\n      add\n      sload\n      swap1\n      dup1\n      0x01\n      add\n      0x00\n      swap1\n      sload\n      swap1\n      0x0100\n      exp\n      swap1\n      div\n      0xffffffffffffffffffffffffffffffffffffffff\n      and\n      swap1\n      dup1\n      0x02\n      add\n      sload\n      swap1\n      dup1\n      0x03\n      add\n      sload\n      swap1\n      dup1\n      0x04\n      add\n      0x00\n      swap1\n      sload\n      swap1\n      0x0100\n      exp\n      swap1\n      div\n      0xff\n      and\n      swap1\n      dup1\n      0x05\n      add\n      dup1\n      sload\n      tag_170\n      swap1\n      tag_87\n      jump\t// in\n    tag_170:\n      dup1\n      0x1f\n      add\n      0x20\n      dup1\n      swap2\n      div\n      mul\n      0x20\n      add\n      mload(0x40)\n      swap1\n      dup2\n      add\n      0x40\n      mstore\n      dup1\n      swap3\n      swap2\n      swap1\n      dup2\n      dup2\n      mstore\n      0x20\n      add\n      dup3\n      dup1\n      sload\n      tag_171\n      swap1\n      tag_87\n      jump\t// in\n    tag_171:\n      dup1\n      iszero\n      tag_172\n      jumpi\n      dup1\n      0x1f\n      lt\n      tag_173\n      jumpi\n      0x0100\n      dup1\n      dup4\n      sload\n      div\n      mul\n      dup4\n      mstore\n      swap2\n      0x20\n      add\n      swap2\n      jump(tag_172)\n    tag_173:\n      dup3\n      add\n      swap2\n      swap1\n      0x00\n      mstore\n      keccak256(0x00, 0x20)\n      swap1\n    tag_174:\n      dup2\n      sload\n      dup2\n      mstore\n      swap1\n      0x01\n      add\n      swap1\n      0x20\n      add\n      dup1\n      dup4\n      gt\n      tag_174\n      jumpi\n      dup3\n      swap1\n      sub\n      0x1f\n      and\n      dup3\n      add\n      swap2\n    tag_172:\n      pop\n      pop\n      pop\n      pop\n      pop\n      swap1\n      dup1\n      0x06\n      add\n      mload(0x40)\n      dup1\n      0x60\n      add\n      0x40\n      mstore\n      swap1\n      dup2\n      0x00\n      dup3\n      add\n      sload\n      dup2\n      mstore\n      0x20\n      add\n      0x01\n      dup3\n      add\n      0x00\n      swap1\n      sload\n      swap1\n      0x0100\n      exp\n      swap1\n      div\n      0xffffffffffffffffffffffffffffffffffffffff\n      and\n      0xffffffffffffffffffffffffffffffffffffffff\n      and\n      0xffffffffffffffffffffffffffffffffffffffff\n      and\n      dup2\n      mstore\n      0x20\n      add\n      0x01\n      dup3\n      add\n      0x14\n      swap1\n      sload\n      swap1\n      0x0100\n      exp\n      swap1\n      div\n      0xff\n      and\n      0x02\n      dup2\n      gt\n      iszero\n      tag_175\n      jumpi\n      tag_176\n      tag_104\n      jump\t// in\n    tag_176:\n    tag_175:\n      0x02\n      dup2\n      gt\n      iszero\n      tag_177\n      jumpi\n      tag_178\n      tag_104\n      jump\t// in\n    tag_178:\n    tag_177:\n      dup2\n      mstore\n      pop\n      pop\n      swap1\n      pop\n      dup8\n      jump\t// out\n    tag_101:\n      dup3\n      dup1\n      sload\n      tag_179\n      swap1\n      tag_87\n      jump\t// in\n    tag_179:\n      swap1\n      0x00\n      mstore\n      keccak256(0x00, 0x20)\n      swap1\n      0x1f\n      add\n      0x20\n      swap1\n      div\n      dup2\n      add\n      swap3\n      dup3\n      tag_181\n      jumpi\n      0x00\n      dup6\n      sstore\n      jump(tag_180)\n    tag_181:\n      dup3\n      0x1f\n      lt\n      tag_182\n      jumpi\n      dup1\n      mload\n      not(0xff)\n      and\n      dup4\n      dup1\n      add\n      or\n      dup6\n      sstore\n      jump(tag_180)\n    tag_182:\n      dup3\n      dup1\n      add\n      0x01\n      add\n      dup6\n      sstore\n      dup3\n      iszero\n      tag_180\n      jumpi\n      swap2\n      dup3\n      add\n    tag_183:\n      dup3\n      dup2\n      gt\n      iszero\n      tag_184\n      jumpi\n      dup3\n      mload\n      dup3\n      sstore\n      swap2\n      0x20\n      add\n      swap2\n      swap1\n      0x01\n      add\n      swap1\n      jump(tag_183)\n    tag_184:\n    tag_180:\n      pop\n      swap1\n      pop\n      tag_185\n      swap2\n      swap1\n      tag_186\n      jump\t// in\n    tag_185:\n      pop\n      swap1\n      jump\t// out\n    tag_186:\n    tag_187:\n      dup1\n      dup3\n      gt\n      iszero\n      tag_188\n      jumpi\n      0x00\n      dup2\n      0x00\n      swap1\n      sstore\n      pop\n      0x01\n      add\n      jump(tag_187)\n    tag_188:\n      pop\n      swap1\n      jump\t// out\n        /* \"#utility.yul\":7:419   */\n    tag_190:\n        /* \"#utility.yul\":85:90   */\n      0x00\n        /* \"#utility.yul\":110:176   */\n      tag_192\n        /* \"#utility.yul\":126:175   */\n      tag_193\n        /* \"#utility.yul\":168:174   */\n      dup5\n        /* \"#utility.yul\":126:175   */\n      tag_194\n      jump\t// in\n    tag_193:\n        /* \"#utility.yul\":110:176   */\n      tag_195\n      jump\t// in\n    tag_192:\n        /* \"#utility.yul\":101:176   */\n      swap1\n      pop\n        /* \"#utility.yul\":199:205   */\n      dup3\n        /* \"#utility.yul\":192:197   */\n      dup2\n        /* \"#utility.yul\":185:206   */\n      mstore\n        /* \"#utility.yul\":237:241   */\n      0x20\n        /* \"#utility.yul\":230:235   */\n      dup2\n        /* \"#utility.yul\":226:242   */\n      add\n        /* \"#utility.yul\":275:278   */\n      dup5\n        /* \"#utility.yul\":266:272   */\n      dup5\n        /* \"#utility.yul\":261:264   */\n      dup5\n        /* \"#utility.yul\":257:273   */\n      add\n        /* \"#utility.yul\":254:279   */\n      gt\n        /* \"#utility.yul\":251:363   */\n      iszero\n      tag_196\n      jumpi\n        /* \"#utility.yul\":282:361   */\n      tag_197\n      tag_198\n      jump\t// in\n    tag_197:\n        /* \"#utility.yul\":251:363   */\n    tag_196:\n        /* \"#utility.yul\":372:413   */\n      tag_199\n        /* \"#utility.yul\":406:412   */\n      dup5\n        /* \"#utility.yul\":401:404   */\n      dup3\n        /* \"#utility.yul\":396:399   */\n      dup6\n        /* \"#utility.yul\":372:413   */\n      tag_200\n      jump\t// in\n    tag_199:\n        /* \"#utility.yul\":91:419   */\n      pop\n        /* \"#utility.yul\":7:419   */\n      swap4\n      swap3\n      pop\n      pop\n      pop\n      jump\t// out\n        /* \"#utility.yul\":425:564   */\n    tag_201:\n        /* \"#utility.yul\":471:476   */\n      0x00\n        /* \"#utility.yul\":509:515   */\n      dup2\n        /* \"#utility.yul\":496:516   */\n      calldataload\n        /* \"#utility.yul\":487:516   */\n      swap1\n      pop\n        /* \"#utility.yul\":525:558   */\n      tag_203\n        /* \"#utility.yul\":552:557   */\n      dup2\n        /* \"#utility.yul\":525:558   */\n      tag_204\n      jump\t// in\n    tag_203:\n        /* \"#utility.yul\":425:564   */\n      swap3\n      swap2\n      pop\n      pop\n      jump\t// out\n        /* \"#utility.yul\":584:924   */\n    tag_205:\n        /* \"#utility.yul\":640:645   */\n      0x00\n        /* \"#utility.yul\":689:692   */\n      dup3\n        /* \"#utility.yul\":682:686   */\n      0x1f\n        /* \"#utility.yul\":674:680   */\n      dup4\n        /* \"#utility.yul\":670:687   */\n      add\n        /* \"#utility.yul\":666:693   */\n      slt\n        /* \"#utility.yul\":656:778   */\n      tag_207\n      jumpi\n        /* \"#utility.yul\":697:776   */\n      tag_208\n      tag_209\n      jump\t// in\n    tag_208:\n        /* \"#utility.yul\":656:778   */\n    tag_207:\n        /* \"#utility.yul\":814:820   */\n      dup2\n        /* \"#utility.yul\":801:821   */\n      calldataload\n        /* \"#utility.yul\":839:918   */\n      tag_210\n        /* \"#utility.yul\":914:917   */\n      dup5\n        /* \"#utility.yul\":906:912   */\n      dup3\n        /* \"#utility.yul\":899:903   */\n      0x20\n        /* \"#utility.yul\":891:897   */\n      dup7\n        /* \"#utility.yul\":887:904   */\n      add\n        /* \"#utility.yul\":839:918   */\n      tag_190\n      jump\t// in\n    tag_210:\n        /* \"#utility.yul\":830:918   */\n      swap2\n      pop\n        /* \"#utility.yul\":646:924   */\n      pop\n        /* \"#utility.yul\":584:924   */\n      swap3\n      swap2\n      pop\n      pop\n      jump\t// out\n        /* \"#utility.yul\":930:1069   */\n    tag_211:\n        /* \"#utility.yul\":976:981   */\n      0x00\n        /* \"#utility.yul\":1014:1020   */\n      dup2\n        /* \"#utility.yul\":1001:1021   */\n      calldataload\n        /* \"#utility.yul\":992:1021   */\n      swap1\n      pop\n        /* \"#utility.yul\":1030:1063   */\n      tag_213\n        /* \"#utility.yul\":1057:1062   */\n      dup2\n        /* \"#utility.yul\":1030:1063   */\n      tag_214\n      jump\t// in\n    tag_213:\n        /* \"#utility.yul\":930:1069   */\n      swap3\n      swap2\n      pop\n      pop\n      jump\t// out\n        /* \"#utility.yul\":1075:1212   */\n    tag_215:\n        /* \"#utility.yul\":1120:1125   */\n      0x00\n        /* \"#utility.yul\":1158:1164   */\n      dup2\n        /* \"#utility.yul\":1145:1165   */\n      calldataload\n        /* \"#utility.yul\":1136:1165   */\n      swap1\n      pop\n        /* \"#utility.yul\":1174:1206   */\n      tag_217\n        /* \"#utility.yul\":1200:1205   */\n      dup2\n        /* \"#utility.yul\":1174:1206   */\n      tag_218\n      jump\t// in\n    tag_217:\n        /* \"#utility.yul\":1075:1212   */\n      swap3\n      swap2\n      pop\n      pop\n      jump\t// out\n        /* \"#utility.yul\":1218:1353   */\n    tag_219:\n        /* \"#utility.yul\":1262:1267   */\n      0x00\n        /* \"#utility.yul\":1300:1306   */\n      dup2\n        /* \"#utility.yul\":1287:1307   */\n      calldataload\n        /* \"#utility.yul\":1278:1307   */\n      swap1\n      pop\n        /* \"#utility.yul\":1316:1347   */\n      tag_221\n        /* \"#utility.yul\":1341:1346   */\n      dup2\n        /* \"#utility.yul\":1316:1347   */\n      tag_222\n      jump\t// in\n    tag_221:\n        /* \"#utility.yul\":1218:1353   */\n      swap3\n      swap2\n      pop\n      pop\n      jump\t// out\n        /* \"#utility.yul\":1359:1688   */\n    tag_22:\n        /* \"#utility.yul\":1418:1424   */\n      0x00\n        /* \"#utility.yul\":1467:1469   */\n      0x20\n        /* \"#utility.yul\":1455:1464   */\n      dup3\n        /* \"#utility.yul\":1446:1453   */\n      dup5\n        /* \"#utility.yul\":1442:1465   */\n      sub\n        /* \"#utility.yul\":1438:1470   */\n      slt\n        /* \"#utility.yul\":1435:1554   */\n      iszero\n      tag_224\n      jumpi\n        /* \"#utility.yul\":1473:1552   */\n      tag_225\n      tag_226\n      jump\t// in\n    tag_225:\n        /* \"#utility.yul\":1435:1554   */\n    tag_224:\n        /* \"#utility.yul\":1593:1594   */\n      0x00\n        /* \"#utility.yul\":1618:1671   */\n      tag_227\n        /* \"#utility.yul\":1663:1670   */\n      dup5\n        /* \"#utility.yul\":1654:1660   */\n      dup3\n        /* \"#utility.yul\":1643:1652   */\n      dup6\n        /* \"#utility.yul\":1639:1661   */\n      add\n        /* \"#utility.yul\":1618:1671   */\n      tag_201\n      jump\t// in\n    tag_227:\n        /* \"#utility.yul\":1608:1671   */\n      swap2\n      pop\n        /* \"#utility.yul\":1564:1681   */\n      pop\n        /* \"#utility.yul\":1359:1688   */\n      swap3\n      swap2\n      pop\n      pop\n      jump\t// out\n        /* \"#utility.yul\":1694:2927   */\n    tag_47:\n        /* \"#utility.yul\":1806:1812   */\n      0x00\n        /* \"#utility.yul\":1814:1820   */\n      dup1\n        /* \"#utility.yul\":1822:1828   */\n      0x00\n        /* \"#utility.yul\":1830:1836   */\n      dup1\n        /* \"#utility.yul\":1838:1844   */\n      0x00\n        /* \"#utility.yul\":1846:1852   */\n      dup1\n        /* \"#utility.yul\":1895:1898   */\n      0xc0\n        /* \"#utility.yul\":1883:1892   */\n      dup8\n        /* \"#utility.yul\":1874:1881   */\n      dup10\n        /* \"#utility.yul\":1870:1893   */\n      sub\n        /* \"#utility.yul\":1866:1899   */\n      slt\n        /* \"#utility.yul\":1863:1983   */\n      iszero\n      tag_229\n      jumpi\n        /* \"#utility.yul\":1902:1981   */\n      tag_230\n      tag_226\n      jump\t// in\n    tag_230:\n        /* \"#utility.yul\":1863:1983   */\n    tag_229:\n        /* \"#utility.yul\":2022:2023   */\n      0x00\n        /* \"#utility.yul\":2047:2100   */\n      tag_231\n        /* \"#utility.yul\":2092:2099   */\n      dup10\n        /* \"#utility.yul\":2083:2089   */\n      dup3\n        /* \"#utility.yul\":2072:2081   */\n      dup11\n        /* \"#utility.yul\":2068:2090   */\n      add\n        /* \"#utility.yul\":2047:2100   */\n      tag_201\n      jump\t// in\n    tag_231:\n        /* \"#utility.yul\":2037:2100   */\n      swap7\n      pop\n        /* \"#utility.yul\":1993:2110   */\n      pop\n        /* \"#utility.yul\":2149:2151   */\n      0x20\n        /* \"#utility.yul\":2175:2228   */\n      tag_232\n        /* \"#utility.yul\":2220:2227   */\n      dup10\n        /* \"#utility.yul\":2211:2217   */\n      dup3\n        /* \"#utility.yul\":2200:2209   */\n      dup11\n        /* \"#utility.yul\":2196:2218   */\n      add\n        /* \"#utility.yul\":2175:2228   */\n      tag_201\n      jump\t// in\n    tag_232:\n        /* \"#utility.yul\":2165:2228   */\n      swap6\n      pop\n        /* \"#utility.yul\":2120:2238   */\n      pop\n        /* \"#utility.yul\":2277:2279   */\n      0x40\n        /* \"#utility.yul\":2303:2356   */\n      tag_233\n        /* \"#utility.yul\":2348:2355   */\n      dup10\n        /* \"#utility.yul\":2339:2345   */\n      dup3\n        /* \"#utility.yul\":2328:2337   */\n      dup11\n        /* \"#utility.yul\":2324:2346   */\n      add\n        /* \"#utility.yul\":2303:2356   */\n      tag_211\n      jump\t// in\n    tag_233:\n        /* \"#utility.yul\":2293:2356   */\n      swap5\n      pop\n        /* \"#utility.yul\":2248:2366   */\n      pop\n        /* \"#utility.yul\":2405:2407   */\n      0x60\n        /* \"#utility.yul\":2431:2484   */\n      tag_234\n        /* \"#utility.yul\":2476:2483   */\n      dup10\n        /* \"#utility.yul\":2467:2473   */\n      dup3\n        /* \"#utility.yul\":2456:2465   */\n      dup11\n        /* \"#utility.yul\":2452:2474   */\n      add\n        /* \"#utility.yul\":2431:2484   */\n      tag_211\n      jump\t// in\n    tag_234:\n        /* \"#utility.yul\":2421:2484   */\n      swap4\n      pop\n        /* \"#utility.yul\":2376:2494   */\n      pop\n        /* \"#utility.yul\":2533:2536   */\n      0x80\n        /* \"#utility.yul\":2560:2611   */\n      tag_235\n        /* \"#utility.yul\":2603:2610   */\n      dup10\n        /* \"#utility.yul\":2594:2600   */\n      dup3\n        /* \"#utility.yul\":2583:2592   */\n      dup11\n        /* \"#utility.yul\":2579:2601   */\n      add\n        /* \"#utility.yul\":2560:2611   */\n      tag_219\n      jump\t// in\n    tag_235:\n        /* \"#utility.yul\":2550:2611   */\n      swap3\n      pop\n        /* \"#utility.yul\":2504:2621   */\n      pop\n        /* \"#utility.yul\":2688:2691   */\n      0xa0\n        /* \"#utility.yul\":2677:2686   */\n      dup8\n        /* \"#utility.yul\":2673:2692   */\n      add\n        /* \"#utility.yul\":2660:2693   */\n      calldataload\n        /* \"#utility.yul\":2720:2738   */\n      0xffffffffffffffff\n        /* \"#utility.yul\":2712:2718   */\n      dup2\n        /* \"#utility.yul\":2709:2739   */\n      gt\n        /* \"#utility.yul\":2706:2823   */\n      iszero\n      tag_236\n      jumpi\n        /* \"#utility.yul\":2742:2821   */\n      tag_237\n      tag_238\n      jump\t// in\n    tag_237:\n        /* \"#utility.yul\":2706:2823   */\n    tag_236:\n        /* \"#utility.yul\":2847:2910   */\n      tag_239\n        /* \"#utility.yul\":2902:2909   */\n      dup10\n        /* \"#utility.yul\":2893:2899   */\n      dup3\n        /* \"#utility.yul\":2882:2891   */\n      dup11\n        /* \"#utility.yul\":2878:2900   */\n      add\n        /* \"#utility.yul\":2847:2910   */\n      tag_205\n      jump\t// in\n    tag_239:\n        /* \"#utility.yul\":2837:2910   */\n      swap2\n      pop\n        /* \"#utility.yul\":2631:2920   */\n      pop\n        /* \"#utility.yul\":1694:2927   */\n      swap3\n      swap6\n      pop\n      swap3\n      swap6\n      pop\n      swap3\n      swap6\n      jump\t// out\n        /* \"#utility.yul\":2933:3407   */\n    tag_82:\n        /* \"#utility.yul\":3001:3007   */\n      0x00\n        /* \"#utility.yul\":3009:3015   */\n      dup1\n        /* \"#utility.yul\":3058:3060   */\n      0x40\n        /* \"#utility.yul\":3046:3055   */\n      dup4\n        /* \"#utility.yul\":3037:3044   */\n      dup6\n        /* \"#utility.yul\":3033:3056   */\n      sub\n        /* \"#utility.yul\":3029:3061   */\n      slt\n        /* \"#utility.yul\":3026:3145   */\n      iszero\n      tag_241\n      jumpi\n        /* \"#utility.yul\":3064:3143   */\n      tag_242\n      tag_226\n      jump\t// in\n    tag_242:\n        /* \"#utility.yul\":3026:3145   */\n    tag_241:\n        /* \"#utility.yul\":3184:3185   */\n      0x00\n        /* \"#utility.yul\":3209:3262   */\n      tag_243\n        /* \"#utility.yul\":3254:3261   */\n      dup6\n        /* \"#utility.yul\":3245:3251   */\n      dup3\n        /* \"#utility.yul\":3234:3243   */\n      dup7\n        /* \"#utility.yul\":3230:3252   */\n      add\n        /* \"#utility.yul\":3209:3262   */\n      tag_201\n      jump\t// in\n    tag_243:\n        /* \"#utility.yul\":3199:3262   */\n      swap3\n      pop\n        /* \"#utility.yul\":3155:3272   */\n      pop\n        /* \"#utility.yul\":3311:3313   */\n      0x20\n        /* \"#utility.yul\":3337:3390   */\n      tag_244\n        /* \"#utility.yul\":3382:3389   */\n      dup6\n        /* \"#utility.yul\":3373:3379   */\n      dup3\n        /* \"#utility.yul\":3362:3371   */\n      dup7\n        /* \"#utility.yul\":3358:3380   */\n      add\n        /* \"#utility.yul\":3337:3390   */\n      tag_211\n      jump\t// in\n    tag_244:\n        /* \"#utility.yul\":3327:3390   */\n      swap2\n      pop\n        /* \"#utility.yul\":3282:3400   */\n      pop\n        /* \"#utility.yul\":2933:3407   */\n      swap3\n      pop\n      swap3\n      swap1\n      pop\n      jump\t// out\n        /* \"#utility.yul\":3413:4646   */\n    tag_28:\n        /* \"#utility.yul\":3525:3531   */\n      0x00\n        /* \"#utility.yul\":3533:3539   */\n      dup1\n        /* \"#utility.yul\":3541:3547   */\n      0x00\n        /* \"#utility.yul\":3549:3555   */\n      dup1\n        /* \"#utility.yul\":3557:3563   */\n      0x00\n        /* \"#utility.yul\":3565:3571   */\n      dup1\n        /* \"#utility.yul\":3614:3617   */\n      0xc0\n        /* \"#utility.yul\":3602:3611   */\n      dup8\n        /* \"#utility.yul\":3593:3600   */\n      dup10\n        /* \"#utility.yul\":3589:3612   */\n      sub\n        /* \"#utility.yul\":3585:3618   */\n      slt\n        /* \"#utility.yul\":3582:3702   */\n      iszero\n      tag_246\n      jumpi\n        /* \"#utility.yul\":3621:3700   */\n      tag_247\n      tag_226\n      jump\t// in\n    tag_247:\n        /* \"#utility.yul\":3582:3702   */\n    tag_246:\n        /* \"#utility.yul\":3741:3742   */\n      0x00\n        /* \"#utility.yul\":3766:3819   */\n      tag_248\n        /* \"#utility.yul\":3811:3818   */\n      dup10\n        /* \"#utility.yul\":3802:3808   */\n      dup3\n        /* \"#utility.yul\":3791:3800   */\n      dup11\n        /* \"#utility.yul\":3787:3809   */\n      add\n        /* \"#utility.yul\":3766:3819   */\n      tag_201\n      jump\t// in\n    tag_248:\n        /* \"#utility.yul\":3756:3819   */\n      swap7\n      pop\n        /* \"#utility.yul\":3712:3829   */\n      pop\n        /* \"#utility.yul\":3868:3870   */\n      0x20\n        /* \"#utility.yul\":3894:3947   */\n      tag_249\n        /* \"#utility.yul\":3939:3946   */\n      dup10\n        /* \"#utility.yul\":3930:3936   */\n      dup3\n        /* \"#utility.yul\":3919:3928   */\n      dup11\n        /* \"#utility.yul\":3915:3937   */\n      add\n        /* \"#utility.yul\":3894:3947   */\n      tag_211\n      jump\t// in\n    tag_249:\n        /* \"#utility.yul\":3884:3947   */\n      swap6\n      pop\n        /* \"#utility.yul\":3839:3957   */\n      pop\n        /* \"#utility.yul\":3996:3998   */\n      0x40\n        /* \"#utility.yul\":4022:4075   */\n      tag_250\n        /* \"#utility.yul\":4067:4074   */\n      dup10\n        /* \"#utility.yul\":4058:4064   */\n      dup3\n        /* \"#utility.yul\":4047:4056   */\n      dup11\n        /* \"#utility.yul\":4043:4065   */\n      add\n        /* \"#utility.yul\":4022:4075   */\n      tag_211\n      jump\t// in\n    tag_250:\n        /* \"#utility.yul\":4012:4075   */\n      swap5\n      pop\n        /* \"#utility.yul\":3967:4085   */\n      pop\n        /* \"#utility.yul\":4124:4126   */\n      0x60\n        /* \"#utility.yul\":4150:4203   */\n      tag_251\n        /* \"#utility.yul\":4195:4202   */\n      dup10\n        /* \"#utility.yul\":4186:4192   */\n      dup3\n        /* \"#utility.yul\":4175:4184   */\n      dup11\n        /* \"#utility.yul\":4171:4193   */\n      add\n        /* \"#utility.yul\":4150:4203   */\n      tag_211\n      jump\t// in\n    tag_251:\n        /* \"#utility.yul\":4140:4203   */\n      swap4\n      pop\n        /* \"#utility.yul\":4095:4213   */\n      pop\n        /* \"#utility.yul\":4252:4255   */\n      0x80\n        /* \"#utility.yul\":4279:4330   */\n      tag_252\n        /* \"#utility.yul\":4322:4329   */\n      dup10\n        /* \"#utility.yul\":4313:4319   */\n      dup3\n        /* \"#utility.yul\":4302:4311   */\n      dup11\n        /* \"#utility.yul\":4298:4320   */\n      add\n        /* \"#utility.yul\":4279:4330   */\n      tag_219\n      jump\t// in\n    tag_252:\n        /* \"#utility.yul\":4269:4330   */\n      swap3\n      pop\n        /* \"#utility.yul\":4223:4340   */\n      pop\n        /* \"#utility.yul\":4407:4410   */\n      0xa0\n        /* \"#utility.yul\":4396:4405   */\n      dup8\n        /* \"#utility.yul\":4392:4411   */\n      add\n        /* \"#utility.yul\":4379:4412   */\n      calldataload\n        /* \"#utility.yul\":4439:4457   */\n      0xffffffffffffffff\n        /* \"#utility.yul\":4431:4437   */\n      dup2\n        /* \"#utility.yul\":4428:4458   */\n      gt\n        /* \"#utility.yul\":4425:4542   */\n      iszero\n      tag_253\n      jumpi\n        /* \"#utility.yul\":4461:4540   */\n      tag_254\n      tag_238\n      jump\t// in\n    tag_254:\n        /* \"#utility.yul\":4425:4542   */\n    tag_253:\n        /* \"#utility.yul\":4566:4629   */\n      tag_255\n        /* \"#utility.yul\":4621:4628   */\n      dup10\n        /* \"#utility.yul\":4612:4618   */\n      dup3\n        /* \"#utility.yul\":4601:4610   */\n      dup11\n        /* \"#utility.yul\":4597:4619   */\n      add\n        /* \"#utility.yul\":4566:4629   */\n      tag_205\n      jump\t// in\n    tag_255:\n        /* \"#utility.yul\":4556:4629   */\n      swap2\n      pop\n        /* \"#utility.yul\":4350:4639   */\n      pop\n        /* \"#utility.yul\":3413:4646   */\n      swap3\n      swap6\n      pop\n      swap3\n      swap6\n      pop\n      swap3\n      swap6\n      jump\t// out\n        /* \"#utility.yul\":4652:5739   */\n    tag_51:\n        /* \"#utility.yul\":4755:4761   */\n      0x00\n        /* \"#utility.yul\":4763:4769   */\n      dup1\n        /* \"#utility.yul\":4771:4777   */\n      0x00\n        /* \"#utility.yul\":4779:4785   */\n      dup1\n        /* \"#utility.yul\":4787:4793   */\n      0x00\n        /* \"#utility.yul\":4836:4839   */\n      0xa0\n        /* \"#utility.yul\":4824:4833   */\n      dup7\n        /* \"#utility.yul\":4815:4822   */\n      dup9\n        /* \"#utility.yul\":4811:4834   */\n      sub\n        /* \"#utility.yul\":4807:4840   */\n      slt\n        /* \"#utility.yul\":4804:4924   */\n      iszero\n      tag_257\n      jumpi\n        /* \"#utility.yul\":4843:4922   */\n      tag_258\n      tag_226\n      jump\t// in\n    tag_258:\n        /* \"#utility.yul\":4804:4924   */\n    tag_257:\n        /* \"#utility.yul\":4963:4964   */\n      0x00\n        /* \"#utility.yul\":4988:5041   */\n      tag_259\n        /* \"#utility.yul\":5033:5040   */\n      dup9\n        /* \"#utility.yul\":5024:5030   */\n      dup3\n        /* \"#utility.yul\":5013:5022   */\n      dup10\n        /* \"#utility.yul\":5009:5031   */\n      add\n        /* \"#utility.yul\":4988:5041   */\n      tag_201\n      jump\t// in\n    tag_259:\n        /* \"#utility.yul\":4978:5041   */\n      swap6\n      pop\n        /* \"#utility.yul\":4934:5051   */\n      pop\n        /* \"#utility.yul\":5090:5092   */\n      0x20\n        /* \"#utility.yul\":5116:5169   */\n      tag_260\n        /* \"#utility.yul\":5161:5168   */\n      dup9\n        /* \"#utility.yul\":5152:5158   */\n      dup3\n        /* \"#utility.yul\":5141:5150   */\n      dup10\n        /* \"#utility.yul\":5137:5159   */\n      add\n        /* \"#utility.yul\":5116:5169   */\n      tag_211\n      jump\t// in\n    tag_260:\n        /* \"#utility.yul\":5106:5169   */\n      swap5\n      pop\n        /* \"#utility.yul\":5061:5179   */\n      pop\n        /* \"#utility.yul\":5218:5220   */\n      0x40\n        /* \"#utility.yul\":5244:5297   */\n      tag_261\n        /* \"#utility.yul\":5289:5296   */\n      dup9\n        /* \"#utility.yul\":5280:5286   */\n      dup3\n        /* \"#utility.yul\":5269:5278   */\n      dup10\n        /* \"#utility.yul\":5265:5287   */\n      add\n        /* \"#utility.yul\":5244:5297   */\n      tag_211\n      jump\t// in\n    tag_261:\n        /* \"#utility.yul\":5234:5297   */\n      swap4\n      pop\n        /* \"#utility.yul\":5189:5307   */\n      pop\n        /* \"#utility.yul\":5346:5348   */\n      0x60\n        /* \"#utility.yul\":5372:5423   */\n      tag_262\n        /* \"#utility.yul\":5415:5422   */\n      dup9\n        /* \"#utility.yul\":5406:5412   */\n      dup3\n        /* \"#utility.yul\":5395:5404   */\n      dup10\n        /* \"#utility.yul\":5391:5413   */\n      add\n        /* \"#utility.yul\":5372:5423   */\n      tag_219\n      jump\t// in\n    tag_262:\n        /* \"#utility.yul\":5362:5423   */\n      swap3\n      pop\n        /* \"#utility.yul\":5317:5433   */\n      pop\n        /* \"#utility.yul\":5500:5503   */\n      0x80\n        /* \"#utility.yul\":5489:5498   */\n      dup7\n        /* \"#utility.yul\":5485:5504   */\n      add\n        /* \"#utility.yul\":5472:5505   */\n      calldataload\n        /* \"#utility.yul\":5532:5550   */\n      0xffffffffffffffff\n        /* \"#utility.yul\":5524:5530   */\n      dup2\n        /* \"#utility.yul\":5521:5551   */\n      gt\n        /* \"#utility.yul\":5518:5635   */\n      iszero\n      tag_263\n      jumpi\n        /* \"#utility.yul\":5554:5633   */\n      tag_264\n      tag_238\n      jump\t// in\n    tag_264:\n        /* \"#utility.yul\":5518:5635   */\n    tag_263:\n        /* \"#utility.yul\":5659:5722   */\n      tag_265\n        /* \"#utility.yul\":5714:5721   */\n      dup9\n        /* \"#utility.yul\":5705:5711   */\n      dup3\n        /* \"#utility.yul\":5694:5703   */\n      dup10\n        /* \"#utility.yul\":5690:5712   */\n      add\n        /* \"#utility.yul\":5659:5722   */\n      tag_205\n      jump\t// in\n    tag_265:\n        /* \"#utility.yul\":5649:5722   */\n      swap2\n      pop\n        /* \"#utility.yul\":5443:5732   */\n      pop\n        /* \"#utility.yul\":4652:5739   */\n      swap3\n      swap6\n      pop\n      swap3\n      swap6\n      swap1\n      swap4\n      pop\n      jump\t// out\n        /* \"#utility.yul\":5745:6072   */\n    tag_63:\n        /* \"#utility.yul\":5803:5809   */\n      0x00\n        /* \"#utility.yul\":5852:5854   */\n      0x20\n        /* \"#utility.yul\":5840:5849   */\n      dup3\n        /* \"#utility.yul\":5831:5838   */\n      dup5\n        /* \"#utility.yul\":5827:5850   */\n      sub\n        /* \"#utility.yul\":5823:5855   */\n      slt\n        /* \"#utility.yul\":5820:5939   */\n      iszero\n      tag_267\n      jumpi\n        /* \"#utility.yul\":5858:5937   */\n      tag_268\n      tag_226\n      jump\t// in\n    tag_268:\n        /* \"#utility.yul\":5820:5939   */\n    tag_267:\n        /* \"#utility.yul\":5978:5979   */\n      0x00\n        /* \"#utility.yul\":6003:6055   */\n      tag_269\n        /* \"#utility.yul\":6047:6054   */\n      dup5\n        /* \"#utility.yul\":6038:6044   */\n      dup3\n        /* \"#utility.yul\":6027:6036   */\n      dup6\n        /* \"#utility.yul\":6023:6045   */\n      add\n        /* \"#utility.yul\":6003:6055   */\n      tag_215\n      jump\t// in\n    tag_269:\n        /* \"#utility.yul\":5993:6055   */\n      swap2\n      pop\n        /* \"#utility.yul\":5949:6065   */\n      pop\n        /* \"#utility.yul\":5745:6072   */\n      swap3\n      swap2\n      pop\n      pop\n      jump\t// out\n        /* \"#utility.yul\":6078:6186   */\n    tag_270:\n        /* \"#utility.yul\":6155:6179   */\n      tag_272\n        /* \"#utility.yul\":6173:6178   */\n      dup2\n        /* \"#utility.yul\":6155:6179   */\n      tag_273\n      jump\t// in\n    tag_272:\n        /* \"#utility.yul\":6150:6153   */\n      dup3\n        /* \"#utility.yul\":6143:6180   */\n      mstore\n        /* \"#utility.yul\":6078:6186   */\n      pop\n      pop\n      jump\t// out\n        /* \"#utility.yul\":6192:6310   */\n    tag_274:\n        /* \"#utility.yul\":6279:6303   */\n      tag_276\n        /* \"#utility.yul\":6297:6302   */\n      dup2\n        /* \"#utility.yul\":6279:6303   */\n      tag_273\n      jump\t// in\n    tag_276:\n        /* \"#utility.yul\":6274:6277   */\n      dup3\n        /* \"#utility.yul\":6267:6304   */\n      mstore\n        /* \"#utility.yul\":6192:6310   */\n      pop\n      pop\n      jump\t// out\n        /* \"#utility.yul\":6316:6425   */\n    tag_277:\n        /* \"#utility.yul\":6397:6418   */\n      tag_279\n        /* \"#utility.yul\":6412:6417   */\n      dup2\n        /* \"#utility.yul\":6397:6418   */\n      tag_280\n      jump\t// in\n    tag_279:\n        /* \"#utility.yul\":6392:6395   */\n      dup3\n        /* \"#utility.yul\":6385:6419   */\n      mstore\n        /* \"#utility.yul\":6316:6425   */\n      pop\n      pop\n      jump\t// out\n        /* \"#utility.yul\":6431:6572   */\n    tag_281:\n        /* \"#utility.yul\":6518:6565   */\n      tag_283\n        /* \"#utility.yul\":6559:6564   */\n      dup2\n        /* \"#utility.yul\":6518:6565   */\n      tag_284\n      jump\t// in\n    tag_283:\n        /* \"#utility.yul\":6513:6516   */\n      dup3\n        /* \"#utility.yul\":6506:6566   */\n      mstore\n        /* \"#utility.yul\":6431:6572   */\n      pop\n      pop\n      jump\t// out\n        /* \"#utility.yul\":6578:6721   */\n    tag_285:\n        /* \"#utility.yul\":6671:6714   */\n      tag_287\n        /* \"#utility.yul\":6708:6713   */\n      dup2\n        /* \"#utility.yul\":6671:6714   */\n      tag_288\n      jump\t// in\n    tag_287:\n        /* \"#utility.yul\":6666:6669   */\n      dup3\n        /* \"#utility.yul\":6659:6715   */\n      mstore\n        /* \"#utility.yul\":6578:6721   */\n      pop\n      pop\n      jump\t// out\n        /* \"#utility.yul\":6727:7091   */\n    tag_289:\n        /* \"#utility.yul\":6815:6818   */\n      0x00\n        /* \"#utility.yul\":6843:6882   */\n      tag_291\n        /* \"#utility.yul\":6876:6881   */\n      dup3\n        /* \"#utility.yul\":6843:6882   */\n      tag_292\n      jump\t// in\n    tag_291:\n        /* \"#utility.yul\":6898:6969   */\n      tag_293\n        /* \"#utility.yul\":6962:6968   */\n      dup2\n        /* \"#utility.yul\":6957:6960   */\n      dup6\n        /* \"#utility.yul\":6898:6969   */\n      tag_294\n      jump\t// in\n    tag_293:\n        /* \"#utility.yul\":6891:6969   */\n      swap4\n      pop\n        /* \"#utility.yul\":6978:7030   */\n      tag_295\n        /* \"#utility.yul\":7023:7029   */\n      dup2\n        /* \"#utility.yul\":7018:7021   */\n      dup6\n        /* \"#utility.yul\":7011:7015   */\n      0x20\n        /* \"#utility.yul\":7004:7009   */\n      dup7\n        /* \"#utility.yul\":7000:7016   */\n      add\n        /* \"#utility.yul\":6978:7030   */\n      tag_296\n      jump\t// in\n    tag_295:\n        /* \"#utility.yul\":7055:7084   */\n      tag_297\n        /* \"#utility.yul\":7077:7083   */\n      dup2\n        /* \"#utility.yul\":7055:7084   */\n      tag_298\n      jump\t// in\n    tag_297:\n        /* \"#utility.yul\":7050:7053   */\n      dup5\n        /* \"#utility.yul\":7046:7085   */\n      add\n        /* \"#utility.yul\":7039:7085   */\n      swap2\n      pop\n        /* \"#utility.yul\":6819:7091   */\n      pop\n        /* \"#utility.yul\":6727:7091   */\n      swap3\n      swap2\n      pop\n      pop\n      jump\t// out\n        /* \"#utility.yul\":7097:7463   */\n    tag_299:\n        /* \"#utility.yul\":7239:7242   */\n      0x00\n        /* \"#utility.yul\":7260:7327   */\n      tag_301\n        /* \"#utility.yul\":7324:7326   */\n      0x11\n        /* \"#utility.yul\":7319:7322   */\n      dup4\n        /* \"#utility.yul\":7260:7327   */\n      tag_294\n      jump\t// in\n    tag_301:\n        /* \"#utility.yul\":7253:7327   */\n      swap2\n      pop\n        /* \"#utility.yul\":7336:7429   */\n      tag_302\n        /* \"#utility.yul\":7425:7428   */\n      dup3\n        /* \"#utility.yul\":7336:7429   */\n      tag_303\n      jump\t// in\n    tag_302:\n        /* \"#utility.yul\":7454:7456   */\n      0x20\n        /* \"#utility.yul\":7449:7452   */\n      dup3\n        /* \"#utility.yul\":7445:7457   */\n      add\n        /* \"#utility.yul\":7438:7457   */\n      swap1\n      pop\n        /* \"#utility.yul\":7097:7463   */\n      swap2\n      swap1\n      pop\n      jump\t// out\n        /* \"#utility.yul\":7469:7835   */\n    tag_304:\n        /* \"#utility.yul\":7611:7614   */\n      0x00\n        /* \"#utility.yul\":7632:7699   */\n      tag_306\n        /* \"#utility.yul\":7696:7698   */\n      0x20\n        /* \"#utility.yul\":7691:7694   */\n      dup4\n        /* \"#utility.yul\":7632:7699   */\n      tag_294\n      jump\t// in\n    tag_306:\n        /* \"#utility.yul\":7625:7699   */\n      swap2\n      pop\n        /* \"#utility.yul\":7708:7801   */\n      tag_307\n        /* \"#utility.yul\":7797:7800   */\n      dup3\n        /* \"#utility.yul\":7708:7801   */\n      tag_308\n      jump\t// in\n    tag_307:\n        /* \"#utility.yul\":7826:7828   */\n      0x20\n        /* \"#utility.yul\":7821:7824   */\n      dup3\n        /* \"#utility.yul\":7817:7829   */\n      add\n        /* \"#utility.yul\":7810:7829   */\n      swap1\n      pop\n        /* \"#utility.yul\":7469:7835   */\n      swap2\n      swap1\n      pop\n      jump\t// out\n        /* \"#utility.yul\":7901:8585   */\n    tag_309:\n        /* \"#utility.yul\":8038:8042   */\n      0x60\n        /* \"#utility.yul\":8033:8036   */\n      dup3\n        /* \"#utility.yul\":8029:8043   */\n      add\n        /* \"#utility.yul\":8126:8130   */\n      0x00\n        /* \"#utility.yul\":8119:8124   */\n      dup3\n        /* \"#utility.yul\":8115:8131   */\n      add\n        /* \"#utility.yul\":8109:8132   */\n      mload\n        /* \"#utility.yul\":8145:8208   */\n      tag_311\n        /* \"#utility.yul\":8202:8206   */\n      0x00\n        /* \"#utility.yul\":8197:8200   */\n      dup6\n        /* \"#utility.yul\":8193:8207   */\n      add\n        /* \"#utility.yul\":8179:8191   */\n      dup3\n        /* \"#utility.yul\":8145:8208   */\n      tag_312\n      jump\t// in\n    tag_311:\n        /* \"#utility.yul\":8053:8218   */\n      pop\n        /* \"#utility.yul\":8301:8305   */\n      0x20\n        /* \"#utility.yul\":8294:8299   */\n      dup3\n        /* \"#utility.yul\":8290:8306   */\n      add\n        /* \"#utility.yul\":8284:8307   */\n      mload\n        /* \"#utility.yul\":8320:8383   */\n      tag_313\n        /* \"#utility.yul\":8377:8381   */\n      0x20\n        /* \"#utility.yul\":8372:8375   */\n      dup6\n        /* \"#utility.yul\":8368:8382   */\n      add\n        /* \"#utility.yul\":8354:8366   */\n      dup3\n        /* \"#utility.yul\":8320:8383   */\n      tag_270\n      jump\t// in\n    tag_313:\n        /* \"#utility.yul\":8228:8393   */\n      pop\n        /* \"#utility.yul\":8476:8480   */\n      0x40\n        /* \"#utility.yul\":8469:8474   */\n      dup3\n        /* \"#utility.yul\":8465:8481   */\n      add\n        /* \"#utility.yul\":8459:8482   */\n      mload\n        /* \"#utility.yul\":8495:8568   */\n      tag_314\n        /* \"#utility.yul\":8562:8566   */\n      0x40\n        /* \"#utility.yul\":8557:8560   */\n      dup6\n        /* \"#utility.yul\":8553:8567   */\n      add\n        /* \"#utility.yul\":8539:8551   */\n      dup3\n        /* \"#utility.yul\":8495:8568   */\n      tag_281\n      jump\t// in\n    tag_314:\n        /* \"#utility.yul\":8403:8578   */\n      pop\n        /* \"#utility.yul\":8007:8585   */\n      pop\n        /* \"#utility.yul\":7901:8585   */\n      pop\n      pop\n      jump\t// out\n        /* \"#utility.yul\":8591:8706   */\n    tag_315:\n        /* \"#utility.yul\":8676:8699   */\n      tag_317\n        /* \"#utility.yul\":8693:8698   */\n      dup2\n        /* \"#utility.yul\":8676:8699   */\n      tag_318\n      jump\t// in\n    tag_317:\n        /* \"#utility.yul\":8671:8674   */\n      dup3\n        /* \"#utility.yul\":8664:8700   */\n      mstore\n        /* \"#utility.yul\":8591:8706   */\n      pop\n      pop\n      jump\t// out\n        /* \"#utility.yul\":8712:8820   */\n    tag_312:\n        /* \"#utility.yul\":8789:8813   */\n      tag_320\n        /* \"#utility.yul\":8807:8812   */\n      dup2\n        /* \"#utility.yul\":8789:8813   */\n      tag_321\n      jump\t// in\n    tag_320:\n        /* \"#utility.yul\":8784:8787   */\n      dup3\n        /* \"#utility.yul\":8777:8814   */\n      mstore\n        /* \"#utility.yul\":8712:8820   */\n      pop\n      pop\n      jump\t// out\n        /* \"#utility.yul\":8826:8944   */\n    tag_322:\n        /* \"#utility.yul\":8913:8937   */\n      tag_324\n        /* \"#utility.yul\":8931:8936   */\n      dup2\n        /* \"#utility.yul\":8913:8937   */\n      tag_321\n      jump\t// in\n    tag_324:\n        /* \"#utility.yul\":8908:8911   */\n      dup3\n        /* \"#utility.yul\":8901:8938   */\n      mstore\n        /* \"#utility.yul\":8826:8944   */\n      pop\n      pop\n      jump\t// out\n        /* \"#utility.yul\":8950:9065   */\n    tag_325:\n        /* \"#utility.yul\":9035:9058   */\n      tag_327\n        /* \"#utility.yul\":9052:9057   */\n      dup2\n        /* \"#utility.yul\":9035:9058   */\n      tag_328\n      jump\t// in\n    tag_327:\n        /* \"#utility.yul\":9030:9033   */\n      dup3\n        /* \"#utility.yul\":9023:9059   */\n      mstore\n        /* \"#utility.yul\":8950:9065   */\n      pop\n      pop\n      jump\t// out\n        /* \"#utility.yul\":9071:9183   */\n    tag_329:\n        /* \"#utility.yul\":9154:9176   */\n      tag_331\n        /* \"#utility.yul\":9170:9175   */\n      dup2\n        /* \"#utility.yul\":9154:9176   */\n      tag_332\n      jump\t// in\n    tag_331:\n        /* \"#utility.yul\":9149:9152   */\n      dup3\n        /* \"#utility.yul\":9142:9177   */\n      mstore\n        /* \"#utility.yul\":9071:9183   */\n      pop\n      pop\n      jump\t// out\n        /* \"#utility.yul\":9189:9734   */\n    tag_106:\n        /* \"#utility.yul\":9362:9366   */\n      0x00\n        /* \"#utility.yul\":9400:9403   */\n      0x80\n        /* \"#utility.yul\":9389:9398   */\n      dup3\n        /* \"#utility.yul\":9385:9404   */\n      add\n        /* \"#utility.yul\":9377:9404   */\n      swap1\n      pop\n        /* \"#utility.yul\":9414:9485   */\n      tag_334\n        /* \"#utility.yul\":9482:9483   */\n      0x00\n        /* \"#utility.yul\":9471:9480   */\n      dup4\n        /* \"#utility.yul\":9467:9484   */\n      add\n        /* \"#utility.yul\":9458:9464   */\n      dup8\n        /* \"#utility.yul\":9414:9485   */\n      tag_274\n      jump\t// in\n    tag_334:\n        /* \"#utility.yul\":9495:9567   */\n      tag_335\n        /* \"#utility.yul\":9563:9565   */\n      0x20\n        /* \"#utility.yul\":9552:9561   */\n      dup4\n        /* \"#utility.yul\":9548:9566   */\n      add\n        /* \"#utility.yul\":9539:9545   */\n      dup7\n        /* \"#utility.yul\":9495:9567   */\n      tag_322\n      jump\t// in\n    tag_335:\n        /* \"#utility.yul\":9577:9649   */\n      tag_336\n        /* \"#utility.yul\":9645:9647   */\n      0x40\n        /* \"#utility.yul\":9634:9643   */\n      dup4\n        /* \"#utility.yul\":9630:9648   */\n      add\n        /* \"#utility.yul\":9621:9627   */\n      dup6\n        /* \"#utility.yul\":9577:9649   */\n      tag_322\n      jump\t// in\n    tag_336:\n        /* \"#utility.yul\":9659:9727   */\n      tag_337\n        /* \"#utility.yul\":9723:9725   */\n      0x60\n        /* \"#utility.yul\":9712:9721   */\n      dup4\n        /* \"#utility.yul\":9708:9726   */\n      add\n        /* \"#utility.yul\":9699:9705   */\n      dup5\n        /* \"#utility.yul\":9659:9727   */\n      tag_329\n      jump\t// in\n    tag_337:\n        /* \"#utility.yul\":9189:9734   */\n      swap6\n      swap5\n      pop\n      pop\n      pop\n      pop\n      pop\n      jump\t// out\n        /* \"#utility.yul\":9740:9950   */\n    tag_79:\n        /* \"#utility.yul\":9827:9831   */\n      0x00\n        /* \"#utility.yul\":9865:9867   */\n      0x20\n        /* \"#utility.yul\":9854:9863   */\n      dup3\n        /* \"#utility.yul\":9850:9868   */\n      add\n        /* \"#utility.yul\":9842:9868   */\n      swap1\n      pop\n        /* \"#utility.yul\":9878:9943   */\n      tag_339\n        /* \"#utility.yul\":9940:9941   */\n      0x00\n        /* \"#utility.yul\":9929:9938   */\n      dup4\n        /* \"#utility.yul\":9925:9942   */\n      add\n        /* \"#utility.yul\":9916:9922   */\n      dup5\n        /* \"#utility.yul\":9878:9943   */\n      tag_277\n      jump\t// in\n    tag_339:\n        /* \"#utility.yul\":9740:9950   */\n      swap3\n      swap2\n      pop\n      pop\n      jump\t// out\n        /* \"#utility.yul\":9956:10909   */\n    tag_74:\n        /* \"#utility.yul\":10227:10231   */\n      0x00\n        /* \"#utility.yul\":10265:10268   */\n      0xc0\n        /* \"#utility.yul\":10254:10263   */\n      dup3\n        /* \"#utility.yul\":10250:10269   */\n      add\n        /* \"#utility.yul\":10242:10269   */\n      swap1\n      pop\n        /* \"#utility.yul\":10279:10344   */\n      tag_341\n        /* \"#utility.yul\":10341:10342   */\n      0x00\n        /* \"#utility.yul\":10330:10339   */\n      dup4\n        /* \"#utility.yul\":10326:10343   */\n      add\n        /* \"#utility.yul\":10317:10323   */\n      dup10\n        /* \"#utility.yul\":10279:10344   */\n      tag_277\n      jump\t// in\n    tag_341:\n        /* \"#utility.yul\":10354:10426   */\n      tag_342\n        /* \"#utility.yul\":10422:10424   */\n      0x20\n        /* \"#utility.yul\":10411:10420   */\n      dup4\n        /* \"#utility.yul\":10407:10425   */\n      add\n        /* \"#utility.yul\":10398:10404   */\n      dup9\n        /* \"#utility.yul\":10354:10426   */\n      tag_274\n      jump\t// in\n    tag_342:\n        /* \"#utility.yul\":10436:10506   */\n      tag_343\n        /* \"#utility.yul\":10502:10504   */\n      0x40\n        /* \"#utility.yul\":10491:10500   */\n      dup4\n        /* \"#utility.yul\":10487:10505   */\n      add\n        /* \"#utility.yul\":10478:10484   */\n      dup8\n        /* \"#utility.yul\":10436:10506   */\n      tag_315\n      jump\t// in\n    tag_343:\n        /* \"#utility.yul\":10516:10594   */\n      tag_344\n        /* \"#utility.yul\":10590:10592   */\n      0x60\n        /* \"#utility.yul\":10579:10588   */\n      dup4\n        /* \"#utility.yul\":10575:10593   */\n      add\n        /* \"#utility.yul\":10566:10572   */\n      dup7\n        /* \"#utility.yul\":10516:10594   */\n      tag_285\n      jump\t// in\n    tag_344:\n        /* \"#utility.yul\":10642:10651   */\n      dup2\n        /* \"#utility.yul\":10636:10640   */\n      dup2\n        /* \"#utility.yul\":10632:10652   */\n      sub\n        /* \"#utility.yul\":10626:10629   */\n      0x80\n        /* \"#utility.yul\":10615:10624   */\n      dup4\n        /* \"#utility.yul\":10611:10630   */\n      add\n        /* \"#utility.yul\":10604:10653   */\n      mstore\n        /* \"#utility.yul\":10670:10748   */\n      tag_345\n        /* \"#utility.yul\":10743:10747   */\n      dup2\n        /* \"#utility.yul\":10734:10740   */\n      dup6\n        /* \"#utility.yul\":10670:10748   */\n      tag_289\n      jump\t// in\n    tag_345:\n        /* \"#utility.yul\":10662:10748   */\n      swap1\n      pop\n        /* \"#utility.yul\":10796:10805   */\n      dup2\n        /* \"#utility.yul\":10790:10794   */\n      dup2\n        /* \"#utility.yul\":10786:10806   */\n      sub\n        /* \"#utility.yul\":10780:10783   */\n      0xa0\n        /* \"#utility.yul\":10769:10778   */\n      dup4\n        /* \"#utility.yul\":10765:10784   */\n      add\n        /* \"#utility.yul\":10758:10807   */\n      mstore\n        /* \"#utility.yul\":10824:10902   */\n      tag_346\n        /* \"#utility.yul\":10897:10901   */\n      dup2\n        /* \"#utility.yul\":10888:10894   */\n      dup5\n        /* \"#utility.yul\":10824:10902   */\n      tag_289\n      jump\t// in\n    tag_346:\n        /* \"#utility.yul\":10816:10902   */\n      swap1\n      pop\n        /* \"#utility.yul\":9956:10909   */\n      swap8\n      swap7\n      pop\n      pop\n      pop\n      pop\n      pop\n      pop\n      pop\n      jump\t// out\n        /* \"#utility.yul\":10915:11428   */\n    tag_25:\n        /* \"#utility.yul\":11074:11078   */\n      0x00\n        /* \"#utility.yul\":11112:11114   */\n      0x60\n        /* \"#utility.yul\":11101:11110   */\n      dup3\n        /* \"#utility.yul\":11097:11115   */\n      add\n        /* \"#utility.yul\":11089:11115   */\n      swap1\n      pop\n        /* \"#utility.yul\":11125:11190   */\n      tag_348\n        /* \"#utility.yul\":11187:11188   */\n      0x00\n        /* \"#utility.yul\":11176:11185   */\n      dup4\n        /* \"#utility.yul\":11172:11189   */\n      add\n        /* \"#utility.yul\":11163:11169   */\n      dup7\n        /* \"#utility.yul\":11125:11190   */\n      tag_277\n      jump\t// in\n    tag_348:\n        /* \"#utility.yul\":11237:11246   */\n      dup2\n        /* \"#utility.yul\":11231:11235   */\n      dup2\n        /* \"#utility.yul\":11227:11247   */\n      sub\n        /* \"#utility.yul\":11222:11224   */\n      0x20\n        /* \"#utility.yul\":11211:11220   */\n      dup4\n        /* \"#utility.yul\":11207:11225   */\n      add\n        /* \"#utility.yul\":11200:11248   */\n      mstore\n        /* \"#utility.yul\":11265:11343   */\n      tag_349\n        /* \"#utility.yul\":11338:11342   */\n      dup2\n        /* \"#utility.yul\":11329:11335   */\n      dup6\n        /* \"#utility.yul\":11265:11343   */\n      tag_289\n      jump\t// in\n    tag_349:\n        /* \"#utility.yul\":11257:11343   */\n      swap1\n      pop\n        /* \"#utility.yul\":11353:11421   */\n      tag_350\n        /* \"#utility.yul\":11417:11419   */\n      0x40\n        /* \"#utility.yul\":11406:11415   */\n      dup4\n        /* \"#utility.yul\":11402:11420   */\n      add\n        /* \"#utility.yul\":11393:11399   */\n      dup5\n        /* \"#utility.yul\":11353:11421   */\n      tag_329\n      jump\t// in\n    tag_350:\n        /* \"#utility.yul\":10915:11428   */\n      swap5\n      swap4\n      pop\n      pop\n      pop\n      pop\n      jump\t// out\n        /* \"#utility.yul\":11434:12058   */\n    tag_44:\n        /* \"#utility.yul\":11621:11625   */\n      0x00\n        /* \"#utility.yul\":11659:11662   */\n      0x80\n        /* \"#utility.yul\":11648:11657   */\n      dup3\n        /* \"#utility.yul\":11644:11663   */\n      add\n        /* \"#utility.yul\":11636:11663   */\n      swap1\n      pop\n        /* \"#utility.yul\":11673:11738   */\n      tag_352\n        /* \"#utility.yul\":11735:11736   */\n      0x00\n        /* \"#utility.yul\":11724:11733   */\n      dup4\n        /* \"#utility.yul\":11720:11737   */\n      add\n        /* \"#utility.yul\":11711:11717   */\n      dup8\n        /* \"#utility.yul\":11673:11738   */\n      tag_277\n      jump\t// in\n    tag_352:\n        /* \"#utility.yul\":11748:11816   */\n      tag_353\n        /* \"#utility.yul\":11812:11814   */\n      0x20\n        /* \"#utility.yul\":11801:11810   */\n      dup4\n        /* \"#utility.yul\":11797:11815   */\n      add\n        /* \"#utility.yul\":11788:11794   */\n      dup7\n        /* \"#utility.yul\":11748:11816   */\n      tag_329\n      jump\t// in\n    tag_353:\n        /* \"#utility.yul\":11826:11898   */\n      tag_354\n        /* \"#utility.yul\":11894:11896   */\n      0x40\n        /* \"#utility.yul\":11883:11892   */\n      dup4\n        /* \"#utility.yul\":11879:11897   */\n      add\n        /* \"#utility.yul\":11870:11876   */\n      dup6\n        /* \"#utility.yul\":11826:11898   */\n      tag_322\n      jump\t// in\n    tag_354:\n        /* \"#utility.yul\":11945:11954   */\n      dup2\n        /* \"#utility.yul\":11939:11943   */\n      dup2\n        /* \"#utility.yul\":11935:11955   */\n      sub\n        /* \"#utility.yul\":11930:11932   */\n      0x60\n        /* \"#utility.yul\":11919:11928   */\n      dup4\n        /* \"#utility.yul\":11915:11933   */\n      add\n        /* \"#utility.yul\":11908:11956   */\n      mstore\n        /* \"#utility.yul\":11973:12051   */\n      tag_355\n        /* \"#utility.yul\":12046:12050   */\n      dup2\n        /* \"#utility.yul\":12037:12043   */\n      dup5\n        /* \"#utility.yul\":11973:12051   */\n      tag_289\n      jump\t// in\n    tag_355:\n        /* \"#utility.yul\":11965:12051   */\n      swap1\n      pop\n        /* \"#utility.yul\":11434:12058   */\n      swap6\n      swap5\n      pop\n      pop\n      pop\n      pop\n      pop\n      jump\t// out\n        /* \"#utility.yul\":12064:12483   */\n    tag_99:\n        /* \"#utility.yul\":12230:12234   */\n      0x00\n        /* \"#utility.yul\":12268:12270   */\n      0x20\n        /* \"#utility.yul\":12257:12266   */\n      dup3\n        /* \"#utility.yul\":12253:12271   */\n      add\n        /* \"#utility.yul\":12245:12271   */\n      swap1\n      pop\n        /* \"#utility.yul\":12317:12326   */\n      dup2\n        /* \"#utility.yul\":12311:12315   */\n      dup2\n        /* \"#utility.yul\":12307:12327   */\n      sub\n        /* \"#utility.yul\":12303:12304   */\n      0x00\n        /* \"#utility.yul\":12292:12301   */\n      dup4\n        /* \"#utility.yul\":12288:12305   */\n      add\n        /* \"#utility.yul\":12281:12328   */\n      mstore\n        /* \"#utility.yul\":12345:12476   */\n      tag_357\n        /* \"#utility.yul\":12471:12475   */\n      dup2\n        /* \"#utility.yul\":12345:12476   */\n      tag_299\n      jump\t// in\n    tag_357:\n        /* \"#utility.yul\":12337:12476   */\n      swap1\n      pop\n        /* \"#utility.yul\":12064:12483   */\n      swap2\n      swap1\n      pop\n      jump\t// out\n        /* \"#utility.yul\":12489:12908   */\n    tag_95:\n        /* \"#utility.yul\":12655:12659   */\n      0x00\n        /* \"#utility.yul\":12693:12695   */\n      0x20\n        /* \"#utility.yul\":12682:12691   */\n      dup3\n        /* \"#utility.yul\":12678:12696   */\n      add\n        /* \"#utility.yul\":12670:12696   */\n      swap1\n      pop\n        /* \"#utility.yul\":12742:12751   */\n      dup2\n        /* \"#utility.yul\":12736:12740   */\n      dup2\n        /* \"#utility.yul\":12732:12752   */\n      sub\n        /* \"#utility.yul\":12728:12729   */\n      0x00\n        /* \"#utility.yul\":12717:12726   */\n      dup4\n        /* \"#utility.yul\":12713:12730   */\n      add\n        /* \"#utility.yul\":12706:12753   */\n      mstore\n        /* \"#utility.yul\":12770:12901   */\n      tag_359\n        /* \"#utility.yul\":12896:12900   */\n      dup2\n        /* \"#utility.yul\":12770:12901   */\n      tag_304\n      jump\t// in\n    tag_359:\n        /* \"#utility.yul\":12762:12901   */\n      swap1\n      pop\n        /* \"#utility.yul\":12489:12908   */\n      swap2\n      swap1\n      pop\n      jump\t// out\n        /* \"#utility.yul\":12914:13136   */\n    tag_31:\n        /* \"#utility.yul\":13007:13011   */\n      0x00\n        /* \"#utility.yul\":13045:13047   */\n      0x20\n        /* \"#utility.yul\":13034:13043   */\n      dup3\n        /* \"#utility.yul\":13030:13048   */\n      add\n        /* \"#utility.yul\":13022:13048   */\n      swap1\n      pop\n        /* \"#utility.yul\":13058:13129   */\n      tag_361\n        /* \"#utility.yul\":13126:13127   */\n      0x00\n        /* \"#utility.yul\":13115:13124   */\n      dup4\n        /* \"#utility.yul\":13111:13128   */\n      add\n        /* \"#utility.yul\":13102:13108   */\n      dup5\n        /* \"#utility.yul\":13058:13129   */\n      tag_322\n      jump\t// in\n    tag_361:\n        /* \"#utility.yul\":12914:13136   */\n      swap3\n      swap2\n      pop\n      pop\n      jump\t// out\n        /* \"#utility.yul\":13142:14191   */\n    tag_85:\n        /* \"#utility.yul\":13459:13463   */\n      0x00\n        /* \"#utility.yul\":13497:13500   */\n      0x0120\n        /* \"#utility.yul\":13486:13495   */\n      dup3\n        /* \"#utility.yul\":13482:13501   */\n      add\n        /* \"#utility.yul\":13474:13501   */\n      swap1\n      pop\n        /* \"#utility.yul\":13511:13582   */\n      tag_363\n        /* \"#utility.yul\":13579:13580   */\n      0x00\n        /* \"#utility.yul\":13568:13577   */\n      dup4\n        /* \"#utility.yul\":13564:13581   */\n      add\n        /* \"#utility.yul\":13555:13561   */\n      dup11\n        /* \"#utility.yul\":13511:13582   */\n      tag_322\n      jump\t// in\n    tag_363:\n        /* \"#utility.yul\":13592:13664   */\n      tag_364\n        /* \"#utility.yul\":13660:13662   */\n      0x20\n        /* \"#utility.yul\":13649:13658   */\n      dup4\n        /* \"#utility.yul\":13645:13663   */\n      add\n        /* \"#utility.yul\":13636:13642   */\n      dup10\n        /* \"#utility.yul\":13592:13664   */\n      tag_274\n      jump\t// in\n    tag_364:\n        /* \"#utility.yul\":13674:13746   */\n      tag_365\n        /* \"#utility.yul\":13742:13744   */\n      0x40\n        /* \"#utility.yul\":13731:13740   */\n      dup4\n        /* \"#utility.yul\":13727:13745   */\n      add\n        /* \"#utility.yul\":13718:13724   */\n      dup9\n        /* \"#utility.yul\":13674:13746   */\n      tag_322\n      jump\t// in\n    tag_365:\n        /* \"#utility.yul\":13756:13828   */\n      tag_366\n        /* \"#utility.yul\":13824:13826   */\n      0x60\n        /* \"#utility.yul\":13813:13822   */\n      dup4\n        /* \"#utility.yul\":13809:13827   */\n      add\n        /* \"#utility.yul\":13800:13806   */\n      dup8\n        /* \"#utility.yul\":13756:13828   */\n      tag_322\n      jump\t// in\n    tag_366:\n        /* \"#utility.yul\":13838:13907   */\n      tag_367\n        /* \"#utility.yul\":13902:13905   */\n      0x80\n        /* \"#utility.yul\":13891:13900   */\n      dup4\n        /* \"#utility.yul\":13887:13906   */\n      add\n        /* \"#utility.yul\":13878:13884   */\n      dup7\n        /* \"#utility.yul\":13838:13907   */\n      tag_329\n      jump\t// in\n    tag_367:\n        /* \"#utility.yul\":13955:13964   */\n      dup2\n        /* \"#utility.yul\":13949:13953   */\n      dup2\n        /* \"#utility.yul\":13945:13965   */\n      sub\n        /* \"#utility.yul\":13939:13942   */\n      0xa0\n        /* \"#utility.yul\":13928:13937   */\n      dup4\n        /* \"#utility.yul\":13924:13943   */\n      add\n        /* \"#utility.yul\":13917:13966   */\n      mstore\n        /* \"#utility.yul\":13983:14061   */\n      tag_368\n        /* \"#utility.yul\":14056:14060   */\n      dup2\n        /* \"#utility.yul\":14047:14053   */\n      dup6\n        /* \"#utility.yul\":13983:14061   */\n      tag_289\n      jump\t// in\n    tag_368:\n        /* \"#utility.yul\":13975:14061   */\n      swap1\n      pop\n        /* \"#utility.yul\":14071:14184   */\n      tag_369\n        /* \"#utility.yul\":14179:14182   */\n      0xc0\n        /* \"#utility.yul\":14168:14177   */\n      dup4\n        /* \"#utility.yul\":14164:14183   */\n      add\n        /* \"#utility.yul\":14155:14161   */\n      dup5\n        /* \"#utility.yul\":14071:14184   */\n      tag_309\n      jump\t// in\n    tag_369:\n        /* \"#utility.yul\":13142:14191   */\n      swap9\n      swap8\n      pop\n      pop\n      pop\n      pop\n      pop\n      pop\n      pop\n      pop\n      jump\t// out\n        /* \"#utility.yul\":14197:14616   */\n    tag_66:\n        /* \"#utility.yul\":14336:14340   */\n      0x00\n        /* \"#utility.yul\":14374:14376   */\n      0x40\n        /* \"#utility.yul\":14363:14372   */\n      dup3\n        /* \"#utility.yul\":14359:14377   */\n      add\n        /* \"#utility.yul\":14351:14377   */\n      swap1\n      pop\n        /* \"#utility.yul\":14387:14456   */\n      tag_371\n        /* \"#utility.yul\":14453:14454   */\n      0x00\n        /* \"#utility.yul\":14442:14451   */\n      dup4\n        /* \"#utility.yul\":14438:14455   */\n      add\n        /* \"#utility.yul\":14429:14435   */\n      dup6\n        /* \"#utility.yul\":14387:14456   */\n      tag_325\n      jump\t// in\n    tag_371:\n        /* \"#utility.yul\":14503:14512   */\n      dup2\n        /* \"#utility.yul\":14497:14501   */\n      dup2\n        /* \"#utility.yul\":14493:14513   */\n      sub\n        /* \"#utility.yul\":14488:14490   */\n      0x20\n        /* \"#utility.yul\":14477:14486   */\n      dup4\n        /* \"#utility.yul\":14473:14491   */\n      add\n        /* \"#utility.yul\":14466:14514   */\n      mstore\n        /* \"#utility.yul\":14531:14609   */\n      tag_372\n        /* \"#utility.yul\":14604:14608   */\n      dup2\n        /* \"#utility.yul\":14595:14601   */\n      dup5\n        /* \"#utility.yul\":14531:14609   */\n      tag_289\n      jump\t// in\n    tag_372:\n        /* \"#utility.yul\":14523:14609   */\n      swap1\n      pop\n        /* \"#utility.yul\":14197:14616   */\n      swap4\n      swap3\n      pop\n      pop\n      pop\n      jump\t// out\n        /* \"#utility.yul\":14622:14751   */\n    tag_195:\n        /* \"#utility.yul\":14656:14662   */\n      0x00\n        /* \"#utility.yul\":14683:14703   */\n      tag_374\n      tag_375\n      jump\t// in\n    tag_374:\n        /* \"#utility.yul\":14673:14703   */\n      swap1\n      pop\n        /* \"#utility.yul\":14712:14745   */\n      tag_376\n        /* \"#utility.yul\":14740:14744   */\n      dup3\n        /* \"#utility.yul\":14732:14738   */\n      dup3\n        /* \"#utility.yul\":14712:14745   */\n      tag_377\n      jump\t// in\n    tag_376:\n        /* \"#utility.yul\":14622:14751   */\n      swap2\n      swap1\n      pop\n      jump\t// out\n        /* \"#utility.yul\":14757:14832   */\n    tag_375:\n        /* \"#utility.yul\":14790:14796   */\n      0x00\n        /* \"#utility.yul\":14823:14825   */\n      0x40\n        /* \"#utility.yul\":14817:14826   */\n      mload\n        /* \"#utility.yul\":14807:14826   */\n      swap1\n      pop\n        /* \"#utility.yul\":14757:14832   */\n      swap1\n      jump\t// out\n        /* \"#utility.yul\":14838:15146   */\n    tag_194:\n        /* \"#utility.yul\":14900:14904   */\n      0x00\n        /* \"#utility.yul\":14990:15008   */\n      0xffffffffffffffff\n        /* \"#utility.yul\":14982:14988   */\n      dup3\n        /* \"#utility.yul\":14979:15009   */\n      gt\n        /* \"#utility.yul\":14976:15032   */\n      iszero\n      tag_380\n      jumpi\n        /* \"#utility.yul\":15012:15030   */\n      tag_381\n      tag_382\n      jump\t// in\n    tag_381:\n        /* \"#utility.yul\":14976:15032   */\n    tag_380:\n        /* \"#utility.yul\":15050:15079   */\n      tag_383\n        /* \"#utility.yul\":15072:15078   */\n      dup3\n        /* \"#utility.yul\":15050:15079   */\n      tag_298\n      jump\t// in\n    tag_383:\n        /* \"#utility.yul\":15042:15079   */\n      swap1\n      pop\n        /* \"#utility.yul\":15134:15138   */\n      0x20\n        /* \"#utility.yul\":15128:15132   */\n      dup2\n        /* \"#utility.yul\":15124:15139   */\n      add\n        /* \"#utility.yul\":15116:15139   */\n      swap1\n      pop\n        /* \"#utility.yul\":14838:15146   */\n      swap2\n      swap1\n      pop\n      jump\t// out\n        /* \"#utility.yul\":15152:15251   */\n    tag_292:\n        /* \"#utility.yul\":15204:15210   */\n      0x00\n        /* \"#utility.yul\":15238:15243   */\n      dup2\n        /* \"#utility.yul\":15232:15244   */\n      mload\n        /* \"#utility.yul\":15222:15244   */\n      swap1\n      pop\n        /* \"#utility.yul\":15152:15251   */\n      swap2\n      swap1\n      pop\n      jump\t// out\n        /* \"#utility.yul\":15257:15426   */\n    tag_294:\n        /* \"#utility.yul\":15341:15352   */\n      0x00\n        /* \"#utility.yul\":15375:15381   */\n      dup3\n        /* \"#utility.yul\":15370:15373   */\n      dup3\n        /* \"#utility.yul\":15363:15382   */\n      mstore\n        /* \"#utility.yul\":15415:15419   */\n      0x20\n        /* \"#utility.yul\":15410:15413   */\n      dup3\n        /* \"#utility.yul\":15406:15420   */\n      add\n        /* \"#utility.yul\":15391:15420   */\n      swap1\n      pop\n        /* \"#utility.yul\":15257:15426   */\n      swap3\n      swap2\n      pop\n      pop\n      jump\t// out\n        /* \"#utility.yul\":15432:15528   */\n    tag_273:\n        /* \"#utility.yul\":15469:15476   */\n      0x00\n        /* \"#utility.yul\":15498:15522   */\n      tag_387\n        /* \"#utility.yul\":15516:15521   */\n      dup3\n        /* \"#utility.yul\":15498:15522   */\n      tag_388\n      jump\t// in\n    tag_387:\n        /* \"#utility.yul\":15487:15522   */\n      swap1\n      pop\n        /* \"#utility.yul\":15432:15528   */\n      swap2\n      swap1\n      pop\n      jump\t// out\n        /* \"#utility.yul\":15534:15624   */\n    tag_280:\n        /* \"#utility.yul\":15568:15575   */\n      0x00\n        /* \"#utility.yul\":15611:15616   */\n      dup2\n        /* \"#utility.yul\":15604:15617   */\n      iszero\n        /* \"#utility.yul\":15597:15618   */\n      iszero\n        /* \"#utility.yul\":15586:15618   */\n      swap1\n      pop\n        /* \"#utility.yul\":15534:15624   */\n      swap2\n      swap1\n      pop\n      jump\t// out\n        /* \"#utility.yul\":15630:15765   */\n    tag_390:\n        /* \"#utility.yul\":15679:15686   */\n      0x00\n        /* \"#utility.yul\":15708:15713   */\n      dup2\n        /* \"#utility.yul\":15697:15713   */\n      swap1\n      pop\n        /* \"#utility.yul\":15714:15759   */\n      tag_392\n        /* \"#utility.yul\":15753:15758   */\n      dup3\n        /* \"#utility.yul\":15714:15759   */\n      tag_393\n      jump\t// in\n    tag_392:\n        /* \"#utility.yul\":15630:15765   */\n      swap2\n      swap1\n      pop\n      jump\t// out\n        /* \"#utility.yul\":15771:15898   */\n    tag_394:\n        /* \"#utility.yul\":15816:15823   */\n      0x00\n        /* \"#utility.yul\":15845:15850   */\n      dup2\n        /* \"#utility.yul\":15834:15850   */\n      swap1\n      pop\n        /* \"#utility.yul\":15851:15892   */\n      tag_396\n        /* \"#utility.yul\":15886:15891   */\n      dup3\n        /* \"#utility.yul\":15851:15892   */\n      tag_397\n      jump\t// in\n    tag_396:\n        /* \"#utility.yul\":15771:15898   */\n      swap2\n      swap1\n      pop\n      jump\t// out\n        /* \"#utility.yul\":15904:15993   */\n    tag_318:\n        /* \"#utility.yul\":15940:15947   */\n      0x00\n        /* \"#utility.yul\":15980:15986   */\n      0xffff\n        /* \"#utility.yul\":15973:15978   */\n      dup3\n        /* \"#utility.yul\":15969:15987   */\n      and\n        /* \"#utility.yul\":15958:15987   */\n      swap1\n      pop\n        /* \"#utility.yul\":15904:15993   */\n      swap2\n      swap1\n      pop\n      jump\t// out\n        /* \"#utility.yul\":15999:16125   */\n    tag_388:\n        /* \"#utility.yul\":16036:16043   */\n      0x00\n        /* \"#utility.yul\":16076:16118   */\n      0xffffffffffffffffffffffffffffffffffffffff\n        /* \"#utility.yul\":16069:16074   */\n      dup3\n        /* \"#utility.yul\":16065:16119   */\n      and\n        /* \"#utility.yul\":16054:16119   */\n      swap1\n      pop\n        /* \"#utility.yul\":15999:16125   */\n      swap2\n      swap1\n      pop\n      jump\t// out\n        /* \"#utility.yul\":16131:16208   */\n    tag_321:\n        /* \"#utility.yul\":16168:16175   */\n      0x00\n        /* \"#utility.yul\":16197:16202   */\n      dup2\n        /* \"#utility.yul\":16186:16202   */\n      swap1\n      pop\n        /* \"#utility.yul\":16131:16208   */\n      swap2\n      swap1\n      pop\n      jump\t// out\n        /* \"#utility.yul\":16214:16307   */\n    tag_328:\n        /* \"#utility.yul\":16250:16257   */\n      0x00\n        /* \"#utility.yul\":16290:16300   */\n      0xffffffff\n        /* \"#utility.yul\":16283:16288   */\n      dup3\n        /* \"#utility.yul\":16279:16301   */\n      and\n        /* \"#utility.yul\":16268:16301   */\n      swap1\n      pop\n        /* \"#utility.yul\":16214:16307   */\n      swap2\n      swap1\n      pop\n      jump\t// out\n        /* \"#utility.yul\":16313:16399   */\n    tag_332:\n        /* \"#utility.yul\":16348:16355   */\n      0x00\n        /* \"#utility.yul\":16388:16392   */\n      0xff\n        /* \"#utility.yul\":16381:16386   */\n      dup3\n        /* \"#utility.yul\":16377:16393   */\n      and\n        /* \"#utility.yul\":16366:16393   */\n      swap1\n      pop\n        /* \"#utility.yul\":16313:16399   */\n      swap2\n      swap1\n      pop\n      jump\t// out\n        /* \"#utility.yul\":16405:16540   */\n    tag_284:\n        /* \"#utility.yul\":16465:16474   */\n      0x00\n        /* \"#utility.yul\":16498:16534   */\n      tag_404\n        /* \"#utility.yul\":16528:16533   */\n      dup3\n        /* \"#utility.yul\":16498:16534   */\n      tag_390\n      jump\t// in\n    tag_404:\n        /* \"#utility.yul\":16485:16534   */\n      swap1\n      pop\n        /* \"#utility.yul\":16405:16540   */\n      swap2\n      swap1\n      pop\n      jump\t// out\n        /* \"#utility.yul\":16546:16673   */\n    tag_288:\n        /* \"#utility.yul\":16602:16611   */\n      0x00\n        /* \"#utility.yul\":16635:16667   */\n      tag_406\n        /* \"#utility.yul\":16661:16666   */\n      dup3\n        /* \"#utility.yul\":16635:16667   */\n      tag_394\n      jump\t// in\n    tag_406:\n        /* \"#utility.yul\":16622:16667   */\n      swap1\n      pop\n        /* \"#utility.yul\":16546:16673   */\n      swap2\n      swap1\n      pop\n      jump\t// out\n        /* \"#utility.yul\":16679:16833   */\n    tag_200:\n        /* \"#utility.yul\":16763:16769   */\n      dup3\n        /* \"#utility.yul\":16758:16761   */\n      dup2\n        /* \"#utility.yul\":16753:16756   */\n      dup4\n        /* \"#utility.yul\":16740:16770   */\n      calldatacopy\n        /* \"#utility.yul\":16825:16826   */\n      0x00\n        /* \"#utility.yul\":16816:16822   */\n      dup4\n        /* \"#utility.yul\":16811:16814   */\n      dup4\n        /* \"#utility.yul\":16807:16823   */\n      add\n        /* \"#utility.yul\":16800:16827   */\n      mstore\n        /* \"#utility.yul\":16679:16833   */\n      pop\n      pop\n      pop\n      jump\t// out\n        /* \"#utility.yul\":16839:17146   */\n    tag_296:\n        /* \"#utility.yul\":16907:16908   */\n      0x00\n        /* \"#utility.yul\":16917:17030   */\n    tag_409:\n        /* \"#utility.yul\":16931:16937   */\n      dup4\n        /* \"#utility.yul\":16928:16929   */\n      dup2\n        /* \"#utility.yul\":16925:16938   */\n      lt\n        /* \"#utility.yul\":16917:17030   */\n      iszero\n      tag_411\n      jumpi\n        /* \"#utility.yul\":17016:17017   */\n      dup1\n        /* \"#utility.yul\":17011:17014   */\n      dup3\n        /* \"#utility.yul\":17007:17018   */\n      add\n        /* \"#utility.yul\":17001:17019   */\n      mload\n        /* \"#utility.yul\":16997:16998   */\n      dup2\n        /* \"#utility.yul\":16992:16995   */\n      dup5\n        /* \"#utility.yul\":16988:16999   */\n      add\n        /* \"#utility.yul\":16981:17020   */\n      mstore\n        /* \"#utility.yul\":16953:16955   */\n      0x20\n        /* \"#utility.yul\":16950:16951   */\n      dup2\n        /* \"#utility.yul\":16946:16956   */\n      add\n        /* \"#utility.yul\":16941:16956   */\n      swap1\n      pop\n        /* \"#utility.yul\":16917:17030   */\n      jump(tag_409)\n    tag_411:\n        /* \"#utility.yul\":17048:17054   */\n      dup4\n        /* \"#utility.yul\":17045:17046   */\n      dup2\n        /* \"#utility.yul\":17042:17055   */\n      gt\n        /* \"#utility.yul\":17039:17140   */\n      iszero\n      tag_412\n      jumpi\n        /* \"#utility.yul\":17128:17129   */\n      0x00\n        /* \"#utility.yul\":17119:17125   */\n      dup5\n        /* \"#utility.yul\":17114:17117   */\n      dup5\n        /* \"#utility.yul\":17110:17126   */\n      add\n        /* \"#utility.yul\":17103:17130   */\n      mstore\n        /* \"#utility.yul\":17039:17140   */\n    tag_412:\n        /* \"#utility.yul\":16888:17146   */\n      pop\n        /* \"#utility.yul\":16839:17146   */\n      pop\n      pop\n      pop\n      jump\t// out\n        /* \"#utility.yul\":17152:17472   */\n    tag_87:\n        /* \"#utility.yul\":17196:17202   */\n      0x00\n        /* \"#utility.yul\":17233:17234   */\n      0x02\n        /* \"#utility.yul\":17227:17231   */\n      dup3\n        /* \"#utility.yul\":17223:17235   */\n      div\n        /* \"#utility.yul\":17213:17235   */\n      swap1\n      pop\n        /* \"#utility.yul\":17280:17281   */\n      0x01\n        /* \"#utility.yul\":17274:17278   */\n      dup3\n        /* \"#utility.yul\":17270:17282   */\n      and\n        /* \"#utility.yul\":17301:17319   */\n      dup1\n        /* \"#utility.yul\":17291:17372   */\n      tag_414\n      jumpi\n        /* \"#utility.yul\":17357:17361   */\n      0x7f\n        /* \"#utility.yul\":17349:17355   */\n      dup3\n        /* \"#utility.yul\":17345:17362   */\n      and\n        /* \"#utility.yul\":17335:17362   */\n      swap2\n      pop\n        /* \"#utility.yul\":17291:17372   */\n    tag_414:\n        /* \"#utility.yul\":17419:17421   */\n      0x20\n        /* \"#utility.yul\":17411:17417   */\n      dup3\n        /* \"#utility.yul\":17408:17422   */\n      lt\n        /* \"#utility.yul\":17388:17406   */\n      dup2\n        /* \"#utility.yul\":17385:17423   */\n      eq\n        /* \"#utility.yul\":17382:17466   */\n      iszero\n      tag_415\n      jumpi\n        /* \"#utility.yul\":17438:17456   */\n      tag_416\n      tag_417\n      jump\t// in\n    tag_416:\n        /* \"#utility.yul\":17382:17466   */\n    tag_415:\n        /* \"#utility.yul\":17203:17472   */\n      pop\n        /* \"#utility.yul\":17152:17472   */\n      swap2\n      swap1\n      pop\n      jump\t// out\n        /* \"#utility.yul\":17478:17759   */\n    tag_377:\n        /* \"#utility.yul\":17561:17588   */\n      tag_419\n        /* \"#utility.yul\":17583:17587   */\n      dup3\n        /* \"#utility.yul\":17561:17588   */\n      tag_298\n      jump\t// in\n    tag_419:\n        /* \"#utility.yul\":17553:17559   */\n      dup2\n        /* \"#utility.yul\":17549:17589   */\n      add\n        /* \"#utility.yul\":17691:17697   */\n      dup2\n        /* \"#utility.yul\":17679:17689   */\n      dup2\n        /* \"#utility.yul\":17676:17698   */\n      lt\n        /* \"#utility.yul\":17655:17673   */\n      0xffffffffffffffff\n        /* \"#utility.yul\":17643:17653   */\n      dup3\n        /* \"#utility.yul\":17640:17674   */\n      gt\n        /* \"#utility.yul\":17637:17699   */\n      or\n        /* \"#utility.yul\":17634:17722   */\n      iszero\n      tag_420\n      jumpi\n        /* \"#utility.yul\":17702:17720   */\n      tag_421\n      tag_382\n      jump\t// in\n    tag_421:\n        /* \"#utility.yul\":17634:17722   */\n    tag_420:\n        /* \"#utility.yul\":17742:17752   */\n      dup1\n        /* \"#utility.yul\":17738:17740   */\n      0x40\n        /* \"#utility.yul\":17731:17753   */\n      mstore\n        /* \"#utility.yul\":17521:17759   */\n      pop\n        /* \"#utility.yul\":17478:17759   */\n      pop\n      pop\n      jump\t// out\n        /* \"#utility.yul\":17765:17998   */\n    tag_129:\n        /* \"#utility.yul\":17804:17807   */\n      0x00\n        /* \"#utility.yul\":17827:17851   */\n      tag_423\n        /* \"#utility.yul\":17845:17850   */\n      dup3\n        /* \"#utility.yul\":17827:17851   */\n      tag_321\n      jump\t// in\n    tag_423:\n        /* \"#utility.yul\":17818:17851   */\n      swap2\n      pop\n        /* \"#utility.yul\":17873:17939   */\n      0xffffffffffffffffffffffffffffffffffffffffffffffffffffffffffffffff\n        /* \"#utility.yul\":17866:17871   */\n      dup3\n        /* \"#utility.yul\":17863:17940   */\n      eq\n        /* \"#utility.yul\":17860:17963   */\n      iszero\n      tag_424\n      jumpi\n        /* \"#utility.yul\":17943:17961   */\n      tag_425\n      tag_426\n      jump\t// in\n    tag_425:\n        /* \"#utility.yul\":17860:17963   */\n    tag_424:\n        /* \"#utility.yul\":17990:17991   */\n      0x01\n        /* \"#utility.yul\":17983:17988   */\n      dup3\n        /* \"#utility.yul\":17979:17992   */\n      add\n        /* \"#utility.yul\":17972:17992   */\n      swap1\n      pop\n        /* \"#utility.yul\":17765:17998   */\n      swap2\n      swap1\n      pop\n      jump\t// out\n        /* \"#utility.yul\":18004:18184   */\n    tag_426:\n        /* \"#utility.yul\":18052:18129   */\n      0x4e487b7100000000000000000000000000000000000000000000000000000000\n        /* \"#utility.yul\":18049:18050   */\n      0x00\n        /* \"#utility.yul\":18042:18130   */\n      mstore\n        /* \"#utility.yul\":18149:18153   */\n      0x11\n        /* \"#utility.yul\":18146:18147   */\n      0x04\n        /* \"#utility.yul\":18139:18154   */\n      mstore\n        /* \"#utility.yul\":18173:18177   */\n      0x24\n        /* \"#utility.yul\":18170:18171   */\n      0x00\n        /* \"#utility.yul\":18163:18178   */\n      revert\n        /* \"#utility.yul\":18190:18370   */\n    tag_104:\n        /* \"#utility.yul\":18238:18315   */\n      0x4e487b7100000000000000000000000000000000000000000000000000000000\n        /* \"#utility.yul\":18235:18236   */\n      0x00\n        /* \"#utility.yul\":18228:18316   */\n      mstore\n        /* \"#utility.yul\":18335:18339   */\n      0x21\n        /* \"#utility.yul\":18332:18333   */\n      0x04\n        /* \"#utility.yul\":18325:18340   */\n      mstore\n        /* \"#utility.yul\":18359:18363   */\n      0x24\n        /* \"#utility.yul\":18356:18357   */\n      0x00\n        /* \"#utility.yul\":18349:18364   */\n      revert\n        /* \"#utility.yul\":18376:18556   */\n    tag_417:\n        /* \"#utility.yul\":18424:18501   */\n      0x4e487b7100000000000000000000000000000000000000000000000000000000\n        /* \"#utility.yul\":18421:18422   */\n      0x00\n        /* \"#utility.yul\":18414:18502   */\n      mstore\n        /* \"#utility.yul\":18521:18525   */\n      0x22\n        /* \"#utility.yul\":18518:18519   */\n      0x04\n        /* \"#utility.yul\":18511:18526   */\n      mstore\n        /* \"#utility.yul\":18545:18549   */\n      0x24\n        /* \"#utility.yul\":18542:18543   */\n      0x00\n        /* \"#utility.yul\":18535:18550   */\n      revert\n        /* \"#utility.yul\":18562:18742   */\n    tag_382:\n        /* \"#utility.yul\":18610:18687   */\n      0x4e487b7100000000000000000000000000000000000000000000000000000000\n        /* \"#utility.yul\":18607:18608   */\n      0x00\n        /* \"#utility.yul\":18600:18688   */\n      mstore\n        /* \"#utility.yul\":18707:18711   */\n      0x41\n        /* \"#utility.yul\":18704:18705   */\n      0x04\n        /* \"#utility.yul\":18697:18712   */\n      mstore\n        /* \"#utility.yul\":18731:18735   */\n      0x24\n        /* \"#utility.yul\":18728:18729   */\n      0x00\n        /* \"#utility.yul\":18721:18736   */\n      revert\n        /* \"#utility.yul\":18748:18865   */\n    tag_209:\n        /* \"#utility.yul\":18857:18858   */\n      0x00\n        /* \"#utility.yul\":18854:18855   */\n      dup1\n        /* \"#utility.yul\":18847:18859   */\n      revert\n        /* \"#utility.yul\":18871:18988   */\n    tag_198:\n        /* \"#utility.yul\":18980:18981   */\n      0x00\n        /* \"#utility.yul\":18977:18978   */\n      dup1\n        /* \"#utility.yul\":18970:18982   */\n      revert\n        /* \"#utility.yul\":18994:19111   */\n    tag_238:\n        /* \"#utility.yul\":19103:19104   */\n      0x00\n        /* \"#utility.yul\":19100:19101   */\n      dup1\n        /* \"#utility.yul\":19093:19105   */\n      revert\n        /* \"#utility.yul\":19117:19234   */\n    tag_226:\n        /* \"#utility.yul\":19226:19227   */\n      0x00\n        /* \"#utility.yul\":19223:19224   */\n      dup1\n        /* \"#utility.yul\":19216:19228   */\n      revert\n        /* \"#utility.yul\":19240:19342   */\n    tag_298:\n        /* \"#utility.yul\":19281:19287   */\n      0x00\n        /* \"#utility.yul\":19332:19334   */\n      0x1f\n        /* \"#utility.yul\":19328:19335   */\n      not\n        /* \"#utility.yul\":19323:19325   */\n      0x1f\n        /* \"#utility.yul\":19316:19321   */\n      dup4\n        /* \"#utility.yul\":19312:19326   */\n      add\n        /* \"#utility.yul\":19308:19336   */\n      and\n        /* \"#utility.yul\":19298:19336   */\n      swap1\n      pop\n        /* \"#utility.yul\":19240:19342   */\n      swap2\n      swap1\n      pop\n      jump\t// out\n        /* \"#utility.yul\":19348:19515   */\n    tag_303:\n        /* \"#utility.yul\":19488:19507   */\n      0x4b697369206d657663757420646567696c000000000000000000000000000000\n        /* \"#utility.yul\":19484:19485   */\n      0x00\n        /* \"#utility.yul\":19476:19482   */\n      dup3\n        /* \"#utility.yul\":19472:19486   */\n      add\n        /* \"#utility.yul\":19465:19508   */\n      mstore\n        /* \"#utility.yul\":19348:19515   */\n      pop\n      jump\t// out\n        /* \"#utility.yul\":19521:19703   */\n    tag_308:\n        /* \"#utility.yul\":19661:19695   */\n      0x42752069736c656d6920736164656365204b757273207961706162696c69722e\n        /* \"#utility.yul\":19657:19658   */\n      0x00\n        /* \"#utility.yul\":19649:19655   */\n      dup3\n        /* \"#utility.yul\":19645:19659   */\n      add\n        /* \"#utility.yul\":19638:19696   */\n      mstore\n        /* \"#utility.yul\":19521:19703   */\n      pop\n      jump\t// out\n        /* \"#utility.yul\":19709:19826   */\n    tag_393:\n        /* \"#utility.yul\":19794:19795   */\n      0x03\n        /* \"#utility.yul\":19787:19792   */\n      dup2\n        /* \"#utility.yul\":19784:19796   */\n      lt\n        /* \"#utility.yul\":19774:19820   */\n      tag_439\n      jumpi\n        /* \"#utility.yul\":19800:19818   */\n      tag_440\n      tag_104\n      jump\t// in\n    tag_440:\n        /* \"#utility.yul\":19774:19820   */\n    tag_439:\n        /* \"#utility.yul\":19709:19826   */\n      pop\n      jump\t// out\n        /* \"#utility.yul\":19832:19945   */\n    tag_397:\n        /* \"#utility.yul\":19913:19914   */\n      0x04\n        /* \"#utility.yul\":19906:19911   */\n      dup2\n        /* \"#utility.yul\":19903:19915   */\n      lt\n        /* \"#utility.yul\":19893:19939   */\n      tag_442\n      jumpi\n        /* \"#utility.yul\":19919:19937   */\n      tag_443\n      tag_104\n      jump\t// in\n    tag_443:\n        /* \"#utility.yul\":19893:19939   */\n    tag_442:\n        /* \"#utility.yul\":19832:19945   */\n      pop\n      jump\t// out\n        /* \"#utility.yul\":19951:20073   */\n    tag_204:\n        /* \"#utility.yul\":20024:20048   */\n      tag_445\n        /* \"#utility.yul\":20042:20047   */\n      dup2\n        /* \"#utility.yul\":20024:20048   */\n      tag_273\n      jump\t// in\n    tag_445:\n        /* \"#utility.yul\":20017:20022   */\n      dup2\n        /* \"#utility.yul\":20014:20049   */\n      eq\n        /* \"#utility.yul\":20004:20067   */\n      tag_446\n      jumpi\n        /* \"#utility.yul\":20063:20064   */\n      0x00\n        /* \"#utility.yul\":20060:20061   */\n      dup1\n        /* \"#utility.yul\":20053:20065   */\n      revert\n        /* \"#utility.yul\":20004:20067   */\n    tag_446:\n        /* \"#utility.yul\":19951:20073   */\n      pop\n      jump\t// out\n        /* \"#utility.yul\":20079:20201   */\n    tag_214:\n        /* \"#utility.yul\":20152:20176   */\n      tag_448\n        /* \"#utility.yul\":20170:20175   */\n      dup2\n        /* \"#utility.yul\":20152:20176   */\n      tag_321\n      jump\t// in\n    tag_448:\n        /* \"#utility.yul\":20145:20150   */\n      dup2\n        /* \"#utility.yul\":20142:20177   */\n      eq\n        /* \"#utility.yul\":20132:20195   */\n      tag_449\n      jumpi\n        /* \"#utility.yul\":20191:20192   */\n      0x00\n        /* \"#utility.yul\":20188:20189   */\n      dup1\n        /* \"#utility.yul\":20181:20193   */\n      revert\n        /* \"#utility.yul\":20132:20195   */\n    tag_449:\n        /* \"#utility.yul\":20079:20201   */\n      pop\n      jump\t// out\n        /* \"#utility.yul\":20207:20327   */\n    tag_218:\n        /* \"#utility.yul\":20279:20302   */\n      tag_451\n        /* \"#utility.yul\":20296:20301   */\n      dup2\n        /* \"#utility.yul\":20279:20302   */\n      tag_328\n      jump\t// in\n    tag_451:\n        /* \"#utility.yul\":20272:20277   */\n      dup2\n        /* \"#utility.yul\":20269:20303   */\n      eq\n        /* \"#utility.yul\":20259:20321   */\n      tag_452\n      jumpi\n        /* \"#utility.yul\":20317:20318   */\n      0x00\n        /* \"#utility.yul\":20314:20315   */\n      dup1\n        /* \"#utility.yul\":20307:20319   */\n      revert\n        /* \"#utility.yul\":20259:20321   */\n    tag_452:\n        /* \"#utility.yul\":20207:20327   */\n      pop\n      jump\t// out\n        /* \"#utility.yul\":20333:20451   */\n    tag_222:\n        /* \"#utility.yul\":20404:20426   */\n      tag_454\n        /* \"#utility.yul\":20420:20425   */\n      dup2\n        /* \"#utility.yul\":20404:20426   */\n      tag_332\n      jump\t// in\n    tag_454:\n        /* \"#utility.yul\":20397:20402   */\n      dup2\n        /* \"#utility.yul\":20394:20427   */\n      eq\n        /* \"#utility.yul\":20384:20445   */\n      tag_455\n      jumpi\n        /* \"#utility.yul\":20441:20442   */\n      0x00\n        /* \"#utility.yul\":20438:20439   */\n      dup1\n        /* \"#utility.yul\":20431:20443   */\n      revert\n        /* \"#utility.yul\":20384:20445   */\n    tag_455:\n        /* \"#utility.yul\":20333:20451   */\n      pop\n      jump\t// out\n\n    auxdata: 0xa264697066735822122001924bd5555ab096f57e461cac0c45e6384ec3b65894c8f31b50bcd5254c86fa64736f6c63430008070033\n}\n",
				"bytecode": {
					"linkReferences": {},
					"object": "608060405234801561001057600080fd5b506125de806100206000396000f3fe608060405234801561001057600080fd5b50600436106100ea5760003560e01c80637d0fa2871161008c578063af640d0f11610066578063af640d0f146102b5578063ba479b7e146102d3578063cbc9280914610308578063d5070f4314610338576100ea565b80637d0fa287146102205780639a8c911914610252578063a4e7ae0514610284576100ea565b8063356b1f1e116100c8578063356b1f1e1461018357806339987f94146101b55780635637b6a5146101e85780636dac86de14610204576100ea565b80631916e139146100ef5780631957b59f146101215780632826669714610151575b600080fd5b61010960048036038101906101049190611b9f565b61036e565b60405161011893929190612048565b60405180910390f35b61013b60048036038101906101369190611cb5565b61043a565b6040516101489190612112565b60405180910390f35b61016b60048036038101906101669190611b9f565b610897565b60405161017a93929190612048565b60405180910390f35b61019d60048036038101906101989190611b9f565b610963565b6040516101ac93929190612048565b60405180910390f35b6101cf60048036038101906101ca9190611b9f565b610a2f565b6040516101df9493929190612086565b60405180910390f35b61020260048036038101906101fd9190611bcc565b610b01565b005b61021e60048036038101906102199190611d5e565b611005565b005b61023a60048036038101906102359190611b9f565b611476565b60405161024993929190612048565b60405180910390f35b61026c60048036038101906102679190611b9f565b611542565b60405161027b93929190612048565b60405180910390f35b61029e60048036038101906102999190611df5565b61160e565b6040516102ac9291906121a4565b60405180910390f35b6102bd6116ca565b6040516102ca9190612112565b60405180910390f35b6102ed60048036038101906102e89190611b9f565b6116d0565b6040516102ff96959493929190611fd9565b60405180910390f35b610322600480360381019061031d9190611b9f565b611864565b60405161032f9190611fbe565b60405180910390f35b610352600480360381019061034d9190611c75565b61188f565b604051610365979695949392919061212d565b60405180910390f35b60076020528060005260406000206000915090508060000160009054906101000a900460ff16908060010180546103a490612345565b80601f01602080910402602001604051908101604052809291908181526020018280546103d090612345565b801561041d5780601f106103f25761010080835404028352916020019161041d565b820191906000526020600020905b81548152906001019060200180831161040057829003601f168201915b5050505050908060020160009054906101000a900460ff16905083565b6000600760003373ffffffffffffffffffffffffffffffffffffffff1673ffffffffffffffffffffffffffffffffffffffff16815260200190815260200160002060000160009054906101000a900460ff166104cb576040517f08c379a00000000000000000000000000000000000000000000000000000000081526004016104c2906120f2565b60405180910390fd5b600360008873ffffffffffffffffffffffffffffffffffffffff1673ffffffffffffffffffffffffffffffffffffffff16815260200190815260200160002060000160009054906101000a900460ff1661055a576040517f08c379a0000000000000000000000000000000000000000000000000000000008152600401610551906120d2565b60405180910390fd5b84600d60008973ffffffffffffffffffffffffffffffffffffffff1673ffffffffffffffffffffffffffffffffffffffff16815260200190815260200160002060008881526020019081526020016000206002018190555083600d60008973ffffffffffffffffffffffffffffffffffffffff1673ffffffffffffffffffffffffffffffffffffffff16815260200190815260200160002060008881526020019081526020016000206003018190555082600d60008973ffffffffffffffffffffffffffffffffffffffff1673ffffffffffffffffffffffffffffffffffffffff168152602001908152602001600020600088815260200190815260200160002060040160006101000a81548160ff021916908360ff16021790555081600d60008973ffffffffffffffffffffffffffffffffffffffff1673ffffffffffffffffffffffffffffffffffffffff168152602001908152602001600020600088815260200190815260200160002060050190805190602001906106dd929190611a38565b506001600d60008973ffffffffffffffffffffffffffffffffffffffff1673ffffffffffffffffffffffffffffffffffffffff168152602001908152602001600020600088815260200190815260200160002060060160010160146101000a81548160ff0219169083600281111561075857610757612420565b5b021790555042600d60008973ffffffffffffffffffffffffffffffffffffffff1673ffffffffffffffffffffffffffffffffffffffff16815260200190815260200160002060008881526020019081526020016000206006016000018190555033600d60008973ffffffffffffffffffffffffffffffffffffffff1673ffffffffffffffffffffffffffffffffffffffff168152602001908152602001600020600088815260200190815260200160002060060160010160006101000a81548173ffffffffffffffffffffffffffffffffffffffff021916908373ffffffffffffffffffffffffffffffffffffffff1602179055507f5b7688c1644640dbb13a9ad41480f887d3ac1d5c306de6d9fc69e11fe7095562878686866040516108829493929190611f79565b60405180910390a18590509695505050505050565b60046020528060005260406000206000915090508060000160009054906101000a900460ff16908060010180546108cd90612345565b80601f01602080910402602001604051908101604052809291908181526020018280546108f990612345565b80156109465780601f1061091b57610100808354040283529160200191610946565b820191906000526020600020905b81548152906001019060200180831161092957829003601f168201915b5050505050908060020160009054906101000a900460ff16905083565b600a6020528060005260406000206000915090508060000160009054906101000a900460ff169080600101805461099990612345565b80601f01602080910402602001604051908101604052809291908181526020018280546109c590612345565b8015610a125780601f106109e757610100808354040283529160200191610a12565b820191906000526020600020905b8154815290600101906020018083116109f557829003601f168201915b5050505050908060020160009054906101000a900460ff16905083565b60066020528060005260406000206000915090508060000160009054906101000a900460ff16908060000160019054906101000a900460ff1690806001015490806002018054610a7e90612345565b80601f0160208091040260200160405190810160405280929190818152602001828054610aaa90612345565b8015610af75780601f10610acc57610100808354040283529160200191610af7565b820191906000526020600020905b815481529060010190602001808311610ada57829003601f168201915b5050505050905084565b600760003373ffffffffffffffffffffffffffffffffffffffff1673ffffffffffffffffffffffffffffffffffffffff16815260200190815260200160002060000160009054906101000a900460ff16610b90576040517f08c379a0000000000000000000000000000000000000000000000000000000008152600401610b87906120f2565b60405180910390fd5b600360003373ffffffffffffffffffffffffffffffffffffffff1673ffffffffffffffffffffffffffffffffffffffff16815260200190815260200160002060000160009054906101000a900460ff16610c1f576040517f08c379a0000000000000000000000000000000000000000000000000000000008152600401610c16906120d2565b60405180910390fd5b6000600c6000815480929190610c34906123a8565b91905055905086600d60003373ffffffffffffffffffffffffffffffffffffffff1673ffffffffffffffffffffffffffffffffffffffff168152602001908152602001600020600083815260200190815260200160002060010160006101000a81548173ffffffffffffffffffffffffffffffffffffffff021916908373ffffffffffffffffffffffffffffffffffffffff16021790555084600d60003373ffffffffffffffffffffffffffffffffffffffff1673ffffffffffffffffffffffffffffffffffffffff16815260200190815260200160002060008381526020019081526020016000206002018190555083600d60003373ffffffffffffffffffffffffffffffffffffffff1673ffffffffffffffffffffffffffffffffffffffff16815260200190815260200160002060008381526020019081526020016000206003018190555082600d60003373ffffffffffffffffffffffffffffffffffffffff1673ffffffffffffffffffffffffffffffffffffffff168152602001908152602001600020600083815260200190815260200160002060040160006101000a81548160ff021916908360ff16021790555081600d60003373ffffffffffffffffffffffffffffffffffffffff1673ffffffffffffffffffffffffffffffffffffffff16815260200190815260200160002060008381526020019081526020016000206005019080519060200190610e4f929190611a38565b506001600d60003373ffffffffffffffffffffffffffffffffffffffff1673ffffffffffffffffffffffffffffffffffffffff168152602001908152602001600020600083815260200190815260200160002060060160010160146101000a81548160ff02191690836002811115610eca57610ec9612420565b5b021790555042600d60003373ffffffffffffffffffffffffffffffffffffffff1673ffffffffffffffffffffffffffffffffffffffff16815260200190815260200160002060008381526020019081526020016000206006016000018190555033600d60003373ffffffffffffffffffffffffffffffffffffffff1673ffffffffffffffffffffffffffffffffffffffff168152602001908152602001600020600083815260200190815260200160002060060160010160006101000a81548173ffffffffffffffffffffffffffffffffffffffff021916908373ffffffffffffffffffffffffffffffffffffffff1602179055507fceeb2cb6b3cfcd4203736ec1a776bc065e4ff58f126ddc27b185fe94e5e2ff9e87868686604051610ff49493929190611f79565b60405180910390a150505050505050565b600760003373ffffffffffffffffffffffffffffffffffffffff1673ffffffffffffffffffffffffffffffffffffffff16815260200190815260200160002060000160009054906101000a900460ff16611094576040517f08c379a000000000000000000000000000000000000000000000000000000000815260040161108b906120f2565b60405180910390fd5b600360008673ffffffffffffffffffffffffffffffffffffffff1673ffffffffffffffffffffffffffffffffffffffff16815260200190815260200160002060000160009054906101000a900460ff16611123576040517f08c379a000000000000000000000000000000000000000000000000000000000815260040161111a906120d2565b60405180910390fd5b6000600c6000815480929190611138906123a8565b91905055905084600d60008873ffffffffffffffffffffffffffffffffffffffff1673ffffffffffffffffffffffffffffffffffffffff16815260200190815260200160002060008381526020019081526020016000206002018190555083600d60008873ffffffffffffffffffffffffffffffffffffffff1673ffffffffffffffffffffffffffffffffffffffff16815260200190815260200160002060008381526020019081526020016000206003018190555082600d60008873ffffffffffffffffffffffffffffffffffffffff1673ffffffffffffffffffffffffffffffffffffffff168152602001908152602001600020600083815260200190815260200160002060040160006101000a81548160ff021916908360ff16021790555081600d60008873ffffffffffffffffffffffffffffffffffffffff1673ffffffffffffffffffffffffffffffffffffffff168152602001908152602001600020600083815260200190815260200160002060050190805190602001906112c1929190611a38565b506001600d60008873ffffffffffffffffffffffffffffffffffffffff1673ffffffffffffffffffffffffffffffffffffffff168152602001908152602001600020600083815260200190815260200160002060060160010160146101000a81548160ff0219169083600281111561133c5761133b612420565b5b021790555042600d60008873ffffffffffffffffffffffffffffffffffffffff1673ffffffffffffffffffffffffffffffffffffffff16815260200190815260200160002060008381526020019081526020016000206006016000018190555033600d60008873ffffffffffffffffffffffffffffffffffffffff1673ffffffffffffffffffffffffffffffffffffffff168152602001908152602001600020600083815260200190815260200160002060060160010160006101000a81548173ffffffffffffffffffffffffffffffffffffffff021916908373ffffffffffffffffffffffffffffffffffffffff1602179055507fceeb2cb6b3cfcd4203736ec1a776bc065e4ff58f126ddc27b185fe94e5e2ff9e868686866040516114669493929190611f79565b60405180910390a1505050505050565b60086020528060005260406000206000915090508060000160009054906101000a900460ff16908060010180546114ac90612345565b80601f01602080910402602001604051908101604052809291908181526020018280546114d890612345565b80156115255780601f106114fa57610100808354040283529160200191611525565b820191906000526020600020905b81548152906001019060200180831161150857829003601f168201915b5050505050908060020160009054906101000a900460ff16905083565b60096020528060005260406000206000915090508060000160009054906101000a900460ff169080600101805461157890612345565b80601f01602080910402602001604051908101604052809291908181526020018280546115a490612345565b80156115f15780601f106115c6576101008083540402835291602001916115f1565b820191906000526020600020905b8154815290600101906020018083116115d457829003601f168201915b5050505050908060020160009054906101000a900460ff16905083565b600b6020528060005260406000206000915090508060000160009054906101000a900463ffffffff169080600101805461164790612345565b80601f016020809104026020016040519081016040528092919081815260200182805461167390612345565b80156116c05780601f10611695576101008083540402835291602001916116c0565b820191906000526020600020905b8154815290600101906020018083116116a357829003601f168201915b5050505050905082565b600c5481565b60056020528060005260406000206000915090508060000160009054906101000a900460ff16908060000160019054906101000a900473ffffffffffffffffffffffffffffffffffffffff16908060000160159054906101000a900461ffff16908060000160179054906101000a900460ff169080600101805461175390612345565b80601f016020809104026020016040519081016040528092919081815260200182805461177f90612345565b80156117cc5780601f106117a1576101008083540402835291602001916117cc565b820191906000526020600020905b8154815290600101906020018083116117af57829003601f168201915b5050505050908060020180546117e190612345565b80601f016020809104026020016040519081016040528092919081815260200182805461180d90612345565b801561185a5780601f1061182f5761010080835404028352916020019161185a565b820191906000526020600020905b81548152906001019060200180831161183d57829003601f168201915b5050505050905086565b60036020528060005260406000206000915090508060000160009054906101000a900460ff16905081565b600d602052816000526040600020602052806000526040600020600091509150508060000154908060010160009054906101000a900473ffffffffffffffffffffffffffffffffffffffff16908060020154908060030154908060040160009054906101000a900460ff169080600501805461190a90612345565b80601f016020809104026020016040519081016040528092919081815260200182805461193690612345565b80156119835780601f1061195857610100808354040283529160200191611983565b820191906000526020600020905b81548152906001019060200180831161196657829003601f168201915b50505050509080600601604051806060016040529081600082015481526020016001820160009054906101000a900473ffffffffffffffffffffffffffffffffffffffff1673ffffffffffffffffffffffffffffffffffffffff1673ffffffffffffffffffffffffffffffffffffffff1681526020016001820160149054906101000a900460ff166002811115611a1d57611a1c612420565b5b6002811115611a2f57611a2e612420565b5b81525050905087565b828054611a4490612345565b90600052602060002090601f016020900481019282611a665760008555611aad565b82601f10611a7f57805160ff1916838001178555611aad565b82800160010185558215611aad579182015b82811115611aac578251825591602001919060010190611a91565b5b509050611aba9190611abe565b5090565b5b80821115611ad7576000816000905550600101611abf565b5090565b6000611aee611ae9846121f9565b6121d4565b905082815260208101848484011115611b0a57611b096124b2565b5b611b15848285612303565b509392505050565b600081359050611b2c8161254c565b92915050565b600082601f830112611b4757611b466124ad565b5b8135611b57848260208601611adb565b91505092915050565b600081359050611b6f81612563565b92915050565b600081359050611b848161257a565b92915050565b600081359050611b9981612591565b92915050565b600060208284031215611bb557611bb46124bc565b5b6000611bc384828501611b1d565b91505092915050565b60008060008060008060c08789031215611be957611be86124bc565b5b6000611bf789828a01611b1d565b9650506020611c0889828a01611b1d565b9550506040611c1989828a01611b60565b9450506060611c2a89828a01611b60565b9350506080611c3b89828a01611b8a565b92505060a087013567ffffffffffffffff811115611c5c57611c5b6124b7565b5b611c6889828a01611b32565b9150509295509295509295565b60008060408385031215611c8c57611c8b6124bc565b5b6000611c9a85828601611b1d565b9250506020611cab85828601611b60565b9150509250929050565b60008060008060008060c08789031215611cd257611cd16124bc565b5b6000611ce089828a01611b1d565b9650506020611cf189828a01611b60565b9550506040611d0289828a01611b60565b9450506060611d1389828a01611b60565b9350506080611d2489828a01611b8a565b92505060a087013567ffffffffffffffff811115611d4557611d446124b7565b5b611d5189828a01611b32565b9150509295509295509295565b600080600080600060a08688031215611d7a57611d796124bc565b5b6000611d8888828901611b1d565b9550506020611d9988828901611b60565b9450506040611daa88828901611b60565b9350506060611dbb88828901611b8a565b925050608086013567ffffffffffffffff811115611ddc57611ddb6124b7565b5b611de888828901611b32565b9150509295509295909350565b600060208284031215611e0b57611e0a6124bc565b5b6000611e1984828501611b75565b91505092915050565b611e2b81612246565b82525050565b611e3a81612246565b82525050565b611e4981612258565b82525050565b611e58816122df565b82525050565b611e67816122f1565b82525050565b6000611e788261222a565b611e828185612235565b9350611e92818560208601612312565b611e9b816124c1565b840191505092915050565b6000611eb3601183612235565b9150611ebe826124d2565b602082019050919050565b6000611ed6602083612235565b9150611ee1826124fb565b602082019050919050565b606082016000820151611f026000850182611f3d565b506020820151611f156020850182611e22565b506040820151611f286040850182611e4f565b50505050565b611f378161228a565b82525050565b611f46816122b8565b82525050565b611f55816122b8565b82525050565b611f64816122c2565b82525050565b611f73816122d2565b82525050565b6000608082019050611f8e6000830187611e31565b611f9b6020830186611f4c565b611fa86040830185611f4c565b611fb56060830184611f6a565b95945050505050565b6000602082019050611fd36000830184611e40565b92915050565b600060c082019050611fee6000830189611e40565b611ffb6020830188611e31565b6120086040830187611f2e565b6120156060830186611e5e565b81810360808301526120278185611e6d565b905081810360a083015261203b8184611e6d565b9050979650505050505050565b600060608201905061205d6000830186611e40565b818103602083015261206f8185611e6d565b905061207e6040830184611f6a565b949350505050565b600060808201905061209b6000830187611e40565b6120a86020830186611f6a565b6120b56040830185611f4c565b81810360608301526120c78184611e6d565b905095945050505050565b600060208201905081810360008301526120eb81611ea6565b9050919050565b6000602082019050818103600083015261210b81611ec9565b9050919050565b60006020820190506121276000830184611f4c565b92915050565b600061012082019050612143600083018a611f4c565b6121506020830189611e31565b61215d6040830188611f4c565b61216a6060830187611f4c565b6121776080830186611f6a565b81810360a08301526121898185611e6d565b905061219860c0830184611eec565b98975050505050505050565b60006040820190506121b96000830185611f5b565b81810360208301526121cb8184611e6d565b90509392505050565b60006121de6121ef565b90506121ea8282612377565b919050565b6000604051905090565b600067ffffffffffffffff8211156122145761221361247e565b5b61221d826124c1565b9050602081019050919050565b600081519050919050565b600082825260208201905092915050565b600061225182612298565b9050919050565b60008115159050919050565b600081905061227282612524565b919050565b600081905061228582612538565b919050565b600061ffff82169050919050565b600073ffffffffffffffffffffffffffffffffffffffff82169050919050565b6000819050919050565b600063ffffffff82169050919050565b600060ff82169050919050565b60006122ea82612264565b9050919050565b60006122fc82612277565b9050919050565b82818337600083830152505050565b60005b83811015612330578082015181840152602081019050612315565b8381111561233f576000848401525b50505050565b6000600282049050600182168061235d57607f821691505b602082108114156123715761237061244f565b5b50919050565b612380826124c1565b810181811067ffffffffffffffff8211171561239f5761239e61247e565b5b80604052505050565b60006123b3826122b8565b91507fffffffffffffffffffffffffffffffffffffffffffffffffffffffffffffffff8214156123e6576123e56123f1565b5b600182019050919050565b7f4e487b7100000000000000000000000000000000000000000000000000000000600052601160045260246000fd5b7f4e487b7100000000000000000000000000000000000000000000000000000000600052602160045260246000fd5b7f4e487b7100000000000000000000000000000000000000000000000000000000600052602260045260246000fd5b7f4e487b7100000000000000000000000000000000000000000000000000000000600052604160045260246000fd5b600080fd5b600080fd5b600080fd5b600080fd5b6000601f19601f8301169050919050565b7f4b697369206d657663757420646567696c000000000000000000000000000000600082015250565b7f42752069736c656d6920736164656365204b757273207961706162696c69722e600082015250565b6003811061253557612534612420565b5b50565b6004811061254957612548612420565b5b50565b61255581612246565b811461256057600080fd5b50565b61256c816122b8565b811461257757600080fd5b50565b612583816122c2565b811461258e57600080fd5b50565b61259a816122d2565b81146125a557600080fd5b5056fea264697066735822122001924bd5555ab096f57e461cac0c45e6384ec3b65894c8f31b50bcd5254c86fa64736f6c63430008070033",
					"opcodes": "PUSH1 0x80 PUSH1 0x40 MSTORE CALLVALUE DUP1 ISZERO PUSH2 0x10 JUMPI PUSH1 0x0 DUP1 REVERT JUMPDEST POP PUSH2 0x25DE DUP1 PUSH2 0x20 PUSH1 0x0 CODECOPY PUSH1 0x0 RETURN INVALID PUSH1 0x80 PUSH1 0x40 MSTORE CALLVALUE DUP1 ISZERO PUSH2 0x10 JUMPI PUSH1 0x0 DUP1 REVERT JUMPDEST POP PUSH1 0x4 CALLDATASIZE LT PUSH2 0xEA JUMPI PUSH1 0x0 CALLDATALOAD PUSH1 0xE0 SHR DUP1 PUSH4 0x7D0FA287 GT PUSH2 0x8C JUMPI DUP1 PUSH4 0xAF640D0F GT PUSH2 0x66 JUMPI DUP1 PUSH4 0xAF640D0F EQ PUSH2 0x2B5 JUMPI DUP1 PUSH4 0xBA479B7E EQ PUSH2 0x2D3 JUMPI DUP1 PUSH4 0xCBC92809 EQ PUSH2 0x308 JUMPI DUP1 PUSH4 0xD5070F43 EQ PUSH2 0x338 JUMPI PUSH2 0xEA JUMP JUMPDEST DUP1 PUSH4 0x7D0FA287 EQ PUSH2 0x220 JUMPI DUP1 PUSH4 0x9A8C9119 EQ PUSH2 0x252 JUMPI DUP1 PUSH4 0xA4E7AE05 EQ PUSH2 0x284 JUMPI PUSH2 0xEA JUMP JUMPDEST DUP1 PUSH4 0x356B1F1E GT PUSH2 0xC8 JUMPI DUP1 PUSH4 0x356B1F1E EQ PUSH2 0x183 JUMPI DUP1 PUSH4 0x39987F94 EQ PUSH2 0x1B5 JUMPI DUP1 PUSH4 0x5637B6A5 EQ PUSH2 0x1E8 JUMPI DUP1 PUSH4 0x6DAC86DE EQ PUSH2 0x204 JUMPI PUSH2 0xEA JUMP JUMPDEST DUP1 PUSH4 0x1916E139 EQ PUSH2 0xEF JUMPI DUP1 PUSH4 0x1957B59F EQ PUSH2 0x121 JUMPI DUP1 PUSH4 0x28266697 EQ PUSH2 0x151 JUMPI JUMPDEST PUSH1 0x0 DUP1 REVERT JUMPDEST PUSH2 0x109 PUSH1 0x4 DUP1 CALLDATASIZE SUB DUP2 ADD SWAP1 PUSH2 0x104 SWAP2 SWAP1 PUSH2 0x1B9F JUMP JUMPDEST PUSH2 0x36E JUMP JUMPDEST PUSH1 0x40 MLOAD PUSH2 0x118 SWAP4 SWAP3 SWAP2 SWAP1 PUSH2 0x2048 JUMP JUMPDEST PUSH1 0x40 MLOAD DUP1 SWAP2 SUB SWAP1 RETURN JUMPDEST PUSH2 0x13B PUSH1 0x4 DUP1 CALLDATASIZE SUB DUP2 ADD SWAP1 PUSH2 0x136 SWAP2 SWAP1 PUSH2 0x1CB5 JUMP JUMPDEST PUSH2 0x43A JUMP JUMPDEST PUSH1 0x40 MLOAD PUSH2 0x148 SWAP2 SWAP1 PUSH2 0x2112 JUMP JUMPDEST PUSH1 0x40 MLOAD DUP1 SWAP2 SUB SWAP1 RETURN JUMPDEST PUSH2 0x16B PUSH1 0x4 DUP1 CALLDATASIZE SUB DUP2 ADD SWAP1 PUSH2 0x166 SWAP2 SWAP1 PUSH2 0x1B9F JUMP JUMPDEST PUSH2 0x897 JUMP JUMPDEST PUSH1 0x40 MLOAD PUSH2 0x17A SWAP4 SWAP3 SWAP2 SWAP1 PUSH2 0x2048 JUMP JUMPDEST PUSH1 0x40 MLOAD DUP1 SWAP2 SUB SWAP1 RETURN JUMPDEST PUSH2 0x19D PUSH1 0x4 DUP1 CALLDATASIZE SUB DUP2 ADD SWAP1 PUSH2 0x198 SWAP2 SWAP1 PUSH2 0x1B9F JUMP JUMPDEST PUSH2 0x963 JUMP JUMPDEST PUSH1 0x40 MLOAD PUSH2 0x1AC SWAP4 SWAP3 SWAP2 SWAP1 PUSH2 0x2048 JUMP JUMPDEST PUSH1 0x40 MLOAD DUP1 SWAP2 SUB SWAP1 RETURN JUMPDEST PUSH2 0x1CF PUSH1 0x4 DUP1 CALLDATASIZE SUB DUP2 ADD SWAP1 PUSH2 0x1CA SWAP2 SWAP1 PUSH2 0x1B9F JUMP JUMPDEST PUSH2 0xA2F JUMP JUMPDEST PUSH1 0x40 MLOAD PUSH2 0x1DF SWAP5 SWAP4 SWAP3 SWAP2 SWAP1 PUSH2 0x2086 JUMP JUMPDEST PUSH1 0x40 MLOAD DUP1 SWAP2 SUB SWAP1 RETURN JUMPDEST PUSH2 0x202 PUSH1 0x4 DUP1 CALLDATASIZE SUB DUP2 ADD SWAP1 PUSH2 0x1FD SWAP2 SWAP1 PUSH2 0x1BCC JUMP JUMPDEST PUSH2 0xB01 JUMP JUMPDEST STOP JUMPDEST PUSH2 0x21E PUSH1 0x4 DUP1 CALLDATASIZE SUB DUP2 ADD SWAP1 PUSH2 0x219 SWAP2 SWAP1 PUSH2 0x1D5E JUMP JUMPDEST PUSH2 0x1005 JUMP JUMPDEST STOP JUMPDEST PUSH2 0x23A PUSH1 0x4 DUP1 CALLDATASIZE SUB DUP2 ADD SWAP1 PUSH2 0x235 SWAP2 SWAP1 PUSH2 0x1B9F JUMP JUMPDEST PUSH2 0x1476 JUMP JUMPDEST PUSH1 0x40 MLOAD PUSH2 0x249 SWAP4 SWAP3 SWAP2 SWAP1 PUSH2 0x2048 JUMP JUMPDEST PUSH1 0x40 MLOAD DUP1 SWAP2 SUB SWAP1 RETURN JUMPDEST PUSH2 0x26C PUSH1 0x4 DUP1 CALLDATASIZE SUB DUP2 ADD SWAP1 PUSH2 0x267 SWAP2 SWAP1 PUSH2 0x1B9F JUMP JUMPDEST PUSH2 0x1542 JUMP JUMPDEST PUSH1 0x40 MLOAD PUSH2 0x27B SWAP4 SWAP3 SWAP2 SWAP1 PUSH2 0x2048 JUMP JUMPDEST PUSH1 0x40 MLOAD DUP1 SWAP2 SUB SWAP1 RETURN JUMPDEST PUSH2 0x29E PUSH1 0x4 DUP1 CALLDATASIZE SUB DUP2 ADD SWAP1 PUSH2 0x299 SWAP2 SWAP1 PUSH2 0x1DF5 JUMP JUMPDEST PUSH2 0x160E JUMP JUMPDEST PUSH1 0x40 MLOAD PUSH2 0x2AC SWAP3 SWAP2 SWAP1 PUSH2 0x21A4 JUMP JUMPDEST PUSH1 0x40 MLOAD DUP1 SWAP2 SUB SWAP1 RETURN JUMPDEST PUSH2 0x2BD PUSH2 0x16CA JUMP JUMPDEST PUSH1 0x40 MLOAD PUSH2 0x2CA SWAP2 SWAP1 PUSH2 0x2112 JUMP JUMPDEST PUSH1 0x40 MLOAD DUP1 SWAP2 SUB SWAP1 RETURN JUMPDEST PUSH2 0x2ED PUSH1 0x4 DUP1 CALLDATASIZE SUB DUP2 ADD SWAP1 PUSH2 0x2E8 SWAP2 SWAP1 PUSH2 0x1B9F JUMP JUMPDEST PUSH2 0x16D0 JUMP JUMPDEST PUSH1 0x40 MLOAD PUSH2 0x2FF SWAP7 SWAP6 SWAP5 SWAP4 SWAP3 SWAP2 SWAP1 PUSH2 0x1FD9 JUMP JUMPDEST PUSH1 0x40 MLOAD DUP1 SWAP2 SUB SWAP1 RETURN JUMPDEST PUSH2 0x322 PUSH1 0x4 DUP1 CALLDATASIZE SUB DUP2 ADD SWAP1 PUSH2 0x31D SWAP2 SWAP1 PUSH2 0x1B9F JUMP JUMPDEST PUSH2 0x1864 JUMP JUMPDEST PUSH1 0x40 MLOAD PUSH2 0x32F SWAP2 SWAP1 PUSH2 0x1FBE JUMP JUMPDEST PUSH1 0x40 MLOAD DUP1 SWAP2 SUB SWAP1 RETURN JUMPDEST PUSH2 0x352 PUSH1 0x4 DUP1 CALLDATASIZE SUB DUP2 ADD SWAP1 PUSH2 0x34D SWAP2 SWAP1 PUSH2 0x1C75 JUMP JUMPDEST PUSH2 0x188F JUMP JUMPDEST PUSH1 0x40 MLOAD PUSH2 0x365 SWAP8 SWAP7 SWAP6 SWAP5 SWAP4 SWAP3 SWAP2 SWAP1 PUSH2 0x212D JUMP JUMPDEST PUSH1 0x40 MLOAD DUP1 SWAP2 SUB SWAP1 RETURN JUMPDEST PUSH1 0x7 PUSH1 0x20 MSTORE DUP1 PUSH1 0x0 MSTORE PUSH1 0x40 PUSH1 0x0 KECCAK256 PUSH1 0x0 SWAP2 POP SWAP1 POP DUP1 PUSH1 0x0 ADD PUSH1 0x0 SWAP1 SLOAD SWAP1 PUSH2 0x100 EXP SWAP1 DIV PUSH1 0xFF AND SWAP1 DUP1 PUSH1 0x1 ADD DUP1 SLOAD PUSH2 0x3A4 SWAP1 PUSH2 0x2345 JUMP JUMPDEST DUP1 PUSH1 0x1F ADD PUSH1 0x20 DUP1 SWAP2 DIV MUL PUSH1 0x20 ADD PUSH1 0x40 MLOAD SWAP1 DUP2 ADD PUSH1 0x40 MSTORE DUP1 SWAP3 SWAP2 SWAP1 DUP2 DUP2 MSTORE PUSH1 0x20 ADD DUP3 DUP1 SLOAD PUSH2 0x3D0 SWAP1 PUSH2 0x2345 JUMP JUMPDEST DUP1 ISZERO PUSH2 0x41D JUMPI DUP1 PUSH1 0x1F LT PUSH2 0x3F2 JUMPI PUSH2 0x100 DUP1 DUP4 SLOAD DIV MUL DUP4 MSTORE SWAP2 PUSH1 0x20 ADD SWAP2 PUSH2 0x41D JUMP JUMPDEST DUP3 ADD SWAP2 SWAP1 PUSH1 0x0 MSTORE PUSH1 0x20 PUSH1 0x0 KECCAK256 SWAP1 JUMPDEST DUP2 SLOAD DUP2 MSTORE SWAP1 PUSH1 0x1 ADD SWAP1 PUSH1 0x20 ADD DUP1 DUP4 GT PUSH2 0x400 JUMPI DUP3 SWAP1 SUB PUSH1 0x1F AND DUP3 ADD SWAP2 JUMPDEST POP POP POP POP POP SWAP1 DUP1 PUSH1 0x2 ADD PUSH1 0x0 SWAP1 SLOAD SWAP1 PUSH2 0x100 EXP SWAP1 DIV PUSH1 0xFF AND SWAP1 POP DUP4 JUMP JUMPDEST PUSH1 0x0 PUSH1 0x7 PUSH1 0x0 CALLER PUSH20 0xFFFFFFFFFFFFFFFFFFFFFFFFFFFFFFFFFFFFFFFF AND PUSH20 0xFFFFFFFFFFFFFFFFFFFFFFFFFFFFFFFFFFFFFFFF AND DUP2 MSTORE PUSH1 0x20 ADD SWAP1 DUP2 MSTORE PUSH1 0x20 ADD PUSH1 0x0 KECCAK256 PUSH1 0x0 ADD PUSH1 0x0 SWAP1 SLOAD SWAP1 PUSH2 0x100 EXP SWAP1 DIV PUSH1 0xFF AND PUSH2 0x4CB JUMPI PUSH1 0x40 MLOAD PUSH32 0x8C379A000000000000000000000000000000000000000000000000000000000 DUP2 MSTORE PUSH1 0x4 ADD PUSH2 0x4C2 SWAP1 PUSH2 0x20F2 JUMP JUMPDEST PUSH1 0x40 MLOAD DUP1 SWAP2 SUB SWAP1 REVERT JUMPDEST PUSH1 0x3 PUSH1 0x0 DUP9 PUSH20 0xFFFFFFFFFFFFFFFFFFFFFFFFFFFFFFFFFFFFFFFF AND PUSH20 0xFFFFFFFFFFFFFFFFFFFFFFFFFFFFFFFFFFFFFFFF AND DUP2 MSTORE PUSH1 0x20 ADD SWAP1 DUP2 MSTORE PUSH1 0x20 ADD PUSH1 0x0 KECCAK256 PUSH1 0x0 ADD PUSH1 0x0 SWAP1 SLOAD SWAP1 PUSH2 0x100 EXP SWAP1 DIV PUSH1 0xFF AND PUSH2 0x55A JUMPI PUSH1 0x40 MLOAD PUSH32 0x8C379A000000000000000000000000000000000000000000000000000000000 DUP2 MSTORE PUSH1 0x4 ADD PUSH2 0x551 SWAP1 PUSH2 0x20D2 JUMP JUMPDEST PUSH1 0x40 MLOAD DUP1 SWAP2 SUB SWAP1 REVERT JUMPDEST DUP5 PUSH1 0xD PUSH1 0x0 DUP10 PUSH20 0xFFFFFFFFFFFFFFFFFFFFFFFFFFFFFFFFFFFFFFFF AND PUSH20 0xFFFFFFFFFFFFFFFFFFFFFFFFFFFFFFFFFFFFFFFF AND DUP2 MSTORE PUSH1 0x20 ADD SWAP1 DUP2 MSTORE PUSH1 0x20 ADD PUSH1 0x0 KECCAK256 PUSH1 0x0 DUP9 DUP2 MSTORE PUSH1 0x20 ADD SWAP1 DUP2 MSTORE PUSH1 0x20 ADD PUSH1 0x0 KECCAK256 PUSH1 0x2 ADD DUP2 SWAP1 SSTORE POP DUP4 PUSH1 0xD PUSH1 0x0 DUP10 PUSH20 0xFFFFFFFFFFFFFFFFFFFFFFFFFFFFFFFFFFFFFFFF AND PUSH20 0xFFFFFFFFFFFFFFFFFFFFFFFFFFFFFFFFFFFFFFFF AND DUP2 MSTORE PUSH1 0x20 ADD SWAP1 DUP2 MSTORE PUSH1 0x20 ADD PUSH1 0x0 KECCAK256 PUSH1 0x0 DUP9 DUP2 MSTORE PUSH1 0x20 ADD SWAP1 DUP2 MSTORE PUSH1 0x20 ADD PUSH1 0x0 KECCAK256 PUSH1 0x3 ADD DUP2 SWAP1 SSTORE POP DUP3 PUSH1 0xD PUSH1 0x0 DUP10 PUSH20 0xFFFFFFFFFFFFFFFFFFFFFFFFFFFFFFFFFFFFFFFF AND PUSH20 0xFFFFFFFFFFFFFFFFFFFFFFFFFFFFFFFFFFFFFFFF AND DUP2 MSTORE PUSH1 0x20 ADD SWAP1 DUP2 MSTORE PUSH1 0x20 ADD PUSH1 0x0 KECCAK256 PUSH1 0x0 DUP9 DUP2 MSTORE PUSH1 0x20 ADD SWAP1 DUP2 MSTORE PUSH1 0x20 ADD PUSH1 0x0 KECCAK256 PUSH1 0x4 ADD PUSH1 0x0 PUSH2 0x100 EXP DUP2 SLOAD DUP2 PUSH1 0xFF MUL NOT AND SWAP1 DUP4 PUSH1 0xFF AND MUL OR SWAP1 SSTORE POP DUP2 PUSH1 0xD PUSH1 0x0 DUP10 PUSH20 0xFFFFFFFFFFFFFFFFFFFFFFFFFFFFFFFFFFFFFFFF AND PUSH20 0xFFFFFFFFFFFFFFFFFFFFFFFFFFFFFFFFFFFFFFFF AND DUP2 MSTORE PUSH1 0x20 ADD SWAP1 DUP2 MSTORE PUSH1 0x20 ADD PUSH1 0x0 KECCAK256 PUSH1 0x0 DUP9 DUP2 MSTORE PUSH1 0x20 ADD SWAP1 DUP2 MSTORE PUSH1 0x20 ADD PUSH1 0x0 KECCAK256 PUSH1 0x5 ADD SWAP1 DUP1 MLOAD SWAP1 PUSH1 0x20 ADD SWAP1 PUSH2 0x6DD SWAP3 SWAP2 SWAP1 PUSH2 0x1A38 JUMP JUMPDEST POP PUSH1 0x1 PUSH1 0xD PUSH1 0x0 DUP10 PUSH20 0xFFFFFFFFFFFFFFFFFFFFFFFFFFFFFFFFFFFFFFFF AND PUSH20 0xFFFFFFFFFFFFFFFFFFFFFFFFFFFFFFFFFFFFFFFF AND DUP2 MSTORE PUSH1 0x20 ADD SWAP1 DUP2 MSTORE PUSH1 0x20 ADD PUSH1 0x0 KECCAK256 PUSH1 0x0 DUP9 DUP2 MSTORE PUSH1 0x20 ADD SWAP1 DUP2 MSTORE PUSH1 0x20 ADD PUSH1 0x0 KECCAK256 PUSH1 0x6 ADD PUSH1 0x1 ADD PUSH1 0x14 PUSH2 0x100 EXP DUP2 SLOAD DUP2 PUSH1 0xFF MUL NOT AND SWAP1 DUP4 PUSH1 0x2 DUP2 GT ISZERO PUSH2 0x758 JUMPI PUSH2 0x757 PUSH2 0x2420 JUMP JUMPDEST JUMPDEST MUL OR SWAP1 SSTORE POP TIMESTAMP PUSH1 0xD PUSH1 0x0 DUP10 PUSH20 0xFFFFFFFFFFFFFFFFFFFFFFFFFFFFFFFFFFFFFFFF AND PUSH20 0xFFFFFFFFFFFFFFFFFFFFFFFFFFFFFFFFFFFFFFFF AND DUP2 MSTORE PUSH1 0x20 ADD SWAP1 DUP2 MSTORE PUSH1 0x20 ADD PUSH1 0x0 KECCAK256 PUSH1 0x0 DUP9 DUP2 MSTORE PUSH1 0x20 ADD SWAP1 DUP2 MSTORE PUSH1 0x20 ADD PUSH1 0x0 KECCAK256 PUSH1 0x6 ADD PUSH1 0x0 ADD DUP2 SWAP1 SSTORE POP CALLER PUSH1 0xD PUSH1 0x0 DUP10 PUSH20 0xFFFFFFFFFFFFFFFFFFFFFFFFFFFFFFFFFFFFFFFF AND PUSH20 0xFFFFFFFFFFFFFFFFFFFFFFFFFFFFFFFFFFFFFFFF AND DUP2 MSTORE PUSH1 0x20 ADD SWAP1 DUP2 MSTORE PUSH1 0x20 ADD PUSH1 0x0 KECCAK256 PUSH1 0x0 DUP9 DUP2 MSTORE PUSH1 0x20 ADD SWAP1 DUP2 MSTORE PUSH1 0x20 ADD PUSH1 0x0 KECCAK256 PUSH1 0x6 ADD PUSH1 0x1 ADD PUSH1 0x0 PUSH2 0x100 EXP DUP2 SLOAD DUP2 PUSH20 0xFFFFFFFFFFFFFFFFFFFFFFFFFFFFFFFFFFFFFFFF MUL NOT AND SWAP1 DUP4 PUSH20 0xFFFFFFFFFFFFFFFFFFFFFFFFFFFFFFFFFFFFFFFF AND MUL OR SWAP1 SSTORE POP PUSH32 0x5B7688C1644640DBB13A9AD41480F887D3AC1D5C306DE6D9FC69E11FE7095562 DUP8 DUP7 DUP7 DUP7 PUSH1 0x40 MLOAD PUSH2 0x882 SWAP5 SWAP4 SWAP3 SWAP2 SWAP1 PUSH2 0x1F79 JUMP JUMPDEST PUSH1 0x40 MLOAD DUP1 SWAP2 SUB SWAP1 LOG1 DUP6 SWAP1 POP SWAP7 SWAP6 POP POP POP POP POP POP JUMP JUMPDEST PUSH1 0x4 PUSH1 0x20 MSTORE DUP1 PUSH1 0x0 MSTORE PUSH1 0x40 PUSH1 0x0 KECCAK256 PUSH1 0x0 SWAP2 POP SWAP1 POP DUP1 PUSH1 0x0 ADD PUSH1 0x0 SWAP1 SLOAD SWAP1 PUSH2 0x100 EXP SWAP1 DIV PUSH1 0xFF AND SWAP1 DUP1 PUSH1 0x1 ADD DUP1 SLOAD PUSH2 0x8CD SWAP1 PUSH2 0x2345 JUMP JUMPDEST DUP1 PUSH1 0x1F ADD PUSH1 0x20 DUP1 SWAP2 DIV MUL PUSH1 0x20 ADD PUSH1 0x40 MLOAD SWAP1 DUP2 ADD PUSH1 0x40 MSTORE DUP1 SWAP3 SWAP2 SWAP1 DUP2 DUP2 MSTORE PUSH1 0x20 ADD DUP3 DUP1 SLOAD PUSH2 0x8F9 SWAP1 PUSH2 0x2345 JUMP JUMPDEST DUP1 ISZERO PUSH2 0x946 JUMPI DUP1 PUSH1 0x1F LT PUSH2 0x91B JUMPI PUSH2 0x100 DUP1 DUP4 SLOAD DIV MUL DUP4 MSTORE SWAP2 PUSH1 0x20 ADD SWAP2 PUSH2 0x946 JUMP JUMPDEST DUP3 ADD SWAP2 SWAP1 PUSH1 0x0 MSTORE PUSH1 0x20 PUSH1 0x0 KECCAK256 SWAP1 JUMPDEST DUP2 SLOAD DUP2 MSTORE SWAP1 PUSH1 0x1 ADD SWAP1 PUSH1 0x20 ADD DUP1 DUP4 GT PUSH2 0x929 JUMPI DUP3 SWAP1 SUB PUSH1 0x1F AND DUP3 ADD SWAP2 JUMPDEST POP POP POP POP POP SWAP1 DUP1 PUSH1 0x2 ADD PUSH1 0x0 SWAP1 SLOAD SWAP1 PUSH2 0x100 EXP SWAP1 DIV PUSH1 0xFF AND SWAP1 POP DUP4 JUMP JUMPDEST PUSH1 0xA PUSH1 0x20 MSTORE DUP1 PUSH1 0x0 MSTORE PUSH1 0x40 PUSH1 0x0 KECCAK256 PUSH1 0x0 SWAP2 POP SWAP1 POP DUP1 PUSH1 0x0 ADD PUSH1 0x0 SWAP1 SLOAD SWAP1 PUSH2 0x100 EXP SWAP1 DIV PUSH1 0xFF AND SWAP1 DUP1 PUSH1 0x1 ADD DUP1 SLOAD PUSH2 0x999 SWAP1 PUSH2 0x2345 JUMP JUMPDEST DUP1 PUSH1 0x1F ADD PUSH1 0x20 DUP1 SWAP2 DIV MUL PUSH1 0x20 ADD PUSH1 0x40 MLOAD SWAP1 DUP2 ADD PUSH1 0x40 MSTORE DUP1 SWAP3 SWAP2 SWAP1 DUP2 DUP2 MSTORE PUSH1 0x20 ADD DUP3 DUP1 SLOAD PUSH2 0x9C5 SWAP1 PUSH2 0x2345 JUMP JUMPDEST DUP1 ISZERO PUSH2 0xA12 JUMPI DUP1 PUSH1 0x1F LT PUSH2 0x9E7 JUMPI PUSH2 0x100 DUP1 DUP4 SLOAD DIV MUL DUP4 MSTORE SWAP2 PUSH1 0x20 ADD SWAP2 PUSH2 0xA12 JUMP JUMPDEST DUP3 ADD SWAP2 SWAP1 PUSH1 0x0 MSTORE PUSH1 0x20 PUSH1 0x0 KECCAK256 SWAP1 JUMPDEST DUP2 SLOAD DUP2 MSTORE SWAP1 PUSH1 0x1 ADD SWAP1 PUSH1 0x20 ADD DUP1 DUP4 GT PUSH2 0x9F5 JUMPI DUP3 SWAP1 SUB PUSH1 0x1F AND DUP3 ADD SWAP2 JUMPDEST POP POP POP POP POP SWAP1 DUP1 PUSH1 0x2 ADD PUSH1 0x0 SWAP1 SLOAD SWAP1 PUSH2 0x100 EXP SWAP1 DIV PUSH1 0xFF AND SWAP1 POP DUP4 JUMP JUMPDEST PUSH1 0x6 PUSH1 0x20 MSTORE DUP1 PUSH1 0x0 MSTORE PUSH1 0x40 PUSH1 0x0 KECCAK256 PUSH1 0x0 SWAP2 POP SWAP1 POP DUP1 PUSH1 0x0 ADD PUSH1 0x0 SWAP1 SLOAD SWAP1 PUSH2 0x100 EXP SWAP1 DIV PUSH1 0xFF AND SWAP1 DUP1 PUSH1 0x0 ADD PUSH1 0x1 SWAP1 SLOAD SWAP1 PUSH2 0x100 EXP SWAP1 DIV PUSH1 0xFF AND SWAP1 DUP1 PUSH1 0x1 ADD SLOAD SWAP1 DUP1 PUSH1 0x2 ADD DUP1 SLOAD PUSH2 0xA7E SWAP1 PUSH2 0x2345 JUMP JUMPDEST DUP1 PUSH1 0x1F ADD PUSH1 0x20 DUP1 SWAP2 DIV MUL PUSH1 0x20 ADD PUSH1 0x40 MLOAD SWAP1 DUP2 ADD PUSH1 0x40 MSTORE DUP1 SWAP3 SWAP2 SWAP1 DUP2 DUP2 MSTORE PUSH1 0x20 ADD DUP3 DUP1 SLOAD PUSH2 0xAAA SWAP1 PUSH2 0x2345 JUMP JUMPDEST DUP1 ISZERO PUSH2 0xAF7 JUMPI DUP1 PUSH1 0x1F LT PUSH2 0xACC JUMPI PUSH2 0x100 DUP1 DUP4 SLOAD DIV MUL DUP4 MSTORE SWAP2 PUSH1 0x20 ADD SWAP2 PUSH2 0xAF7 JUMP JUMPDEST DUP3 ADD SWAP2 SWAP1 PUSH1 0x0 MSTORE PUSH1 0x20 PUSH1 0x0 KECCAK256 SWAP1 JUMPDEST DUP2 SLOAD DUP2 MSTORE SWAP1 PUSH1 0x1 ADD SWAP1 PUSH1 0x20 ADD DUP1 DUP4 GT PUSH2 0xADA JUMPI DUP3 SWAP1 SUB PUSH1 0x1F AND DUP3 ADD SWAP2 JUMPDEST POP POP POP POP POP SWAP1 POP DUP5 JUMP JUMPDEST PUSH1 0x7 PUSH1 0x0 CALLER PUSH20 0xFFFFFFFFFFFFFFFFFFFFFFFFFFFFFFFFFFFFFFFF AND PUSH20 0xFFFFFFFFFFFFFFFFFFFFFFFFFFFFFFFFFFFFFFFF AND DUP2 MSTORE PUSH1 0x20 ADD SWAP1 DUP2 MSTORE PUSH1 0x20 ADD PUSH1 0x0 KECCAK256 PUSH1 0x0 ADD PUSH1 0x0 SWAP1 SLOAD SWAP1 PUSH2 0x100 EXP SWAP1 DIV PUSH1 0xFF AND PUSH2 0xB90 JUMPI PUSH1 0x40 MLOAD PUSH32 0x8C379A000000000000000000000000000000000000000000000000000000000 DUP2 MSTORE PUSH1 0x4 ADD PUSH2 0xB87 SWAP1 PUSH2 0x20F2 JUMP JUMPDEST PUSH1 0x40 MLOAD DUP1 SWAP2 SUB SWAP1 REVERT JUMPDEST PUSH1 0x3 PUSH1 0x0 CALLER PUSH20 0xFFFFFFFFFFFFFFFFFFFFFFFFFFFFFFFFFFFFFFFF AND PUSH20 0xFFFFFFFFFFFFFFFFFFFFFFFFFFFFFFFFFFFFFFFF AND DUP2 MSTORE PUSH1 0x20 ADD SWAP1 DUP2 MSTORE PUSH1 0x20 ADD PUSH1 0x0 KECCAK256 PUSH1 0x0 ADD PUSH1 0x0 SWAP1 SLOAD SWAP1 PUSH2 0x100 EXP SWAP1 DIV PUSH1 0xFF AND PUSH2 0xC1F JUMPI PUSH1 0x40 MLOAD PUSH32 0x8C379A000000000000000000000000000000000000000000000000000000000 DUP2 MSTORE PUSH1 0x4 ADD PUSH2 0xC16 SWAP1 PUSH2 0x20D2 JUMP JUMPDEST PUSH1 0x40 MLOAD DUP1 SWAP2 SUB SWAP1 REVERT JUMPDEST PUSH1 0x0 PUSH1 0xC PUSH1 0x0 DUP2 SLOAD DUP1 SWAP3 SWAP2 SWAP1 PUSH2 0xC34 SWAP1 PUSH2 0x23A8 JUMP JUMPDEST SWAP2 SWAP1 POP SSTORE SWAP1 POP DUP7 PUSH1 0xD PUSH1 0x0 CALLER PUSH20 0xFFFFFFFFFFFFFFFFFFFFFFFFFFFFFFFFFFFFFFFF AND PUSH20 0xFFFFFFFFFFFFFFFFFFFFFFFFFFFFFFFFFFFFFFFF AND DUP2 MSTORE PUSH1 0x20 ADD SWAP1 DUP2 MSTORE PUSH1 0x20 ADD PUSH1 0x0 KECCAK256 PUSH1 0x0 DUP4 DUP2 MSTORE PUSH1 0x20 ADD SWAP1 DUP2 MSTORE PUSH1 0x20 ADD PUSH1 0x0 KECCAK256 PUSH1 0x1 ADD PUSH1 0x0 PUSH2 0x100 EXP DUP2 SLOAD DUP2 PUSH20 0xFFFFFFFFFFFFFFFFFFFFFFFFFFFFFFFFFFFFFFFF MUL NOT AND SWAP1 DUP4 PUSH20 0xFFFFFFFFFFFFFFFFFFFFFFFFFFFFFFFFFFFFFFFF AND MUL OR SWAP1 SSTORE POP DUP5 PUSH1 0xD PUSH1 0x0 CALLER PUSH20 0xFFFFFFFFFFFFFFFFFFFFFFFFFFFFFFFFFFFFFFFF AND PUSH20 0xFFFFFFFFFFFFFFFFFFFFFFFFFFFFFFFFFFFFFFFF AND DUP2 MSTORE PUSH1 0x20 ADD SWAP1 DUP2 MSTORE PUSH1 0x20 ADD PUSH1 0x0 KECCAK256 PUSH1 0x0 DUP4 DUP2 MSTORE PUSH1 0x20 ADD SWAP1 DUP2 MSTORE PUSH1 0x20 ADD PUSH1 0x0 KECCAK256 PUSH1 0x2 ADD DUP2 SWAP1 SSTORE POP DUP4 PUSH1 0xD PUSH1 0x0 CALLER PUSH20 0xFFFFFFFFFFFFFFFFFFFFFFFFFFFFFFFFFFFFFFFF AND PUSH20 0xFFFFFFFFFFFFFFFFFFFFFFFFFFFFFFFFFFFFFFFF AND DUP2 MSTORE PUSH1 0x20 ADD SWAP1 DUP2 MSTORE PUSH1 0x20 ADD PUSH1 0x0 KECCAK256 PUSH1 0x0 DUP4 DUP2 MSTORE PUSH1 0x20 ADD SWAP1 DUP2 MSTORE PUSH1 0x20 ADD PUSH1 0x0 KECCAK256 PUSH1 0x3 ADD DUP2 SWAP1 SSTORE POP DUP3 PUSH1 0xD PUSH1 0x0 CALLER PUSH20 0xFFFFFFFFFFFFFFFFFFFFFFFFFFFFFFFFFFFFFFFF AND PUSH20 0xFFFFFFFFFFFFFFFFFFFFFFFFFFFFFFFFFFFFFFFF AND DUP2 MSTORE PUSH1 0x20 ADD SWAP1 DUP2 MSTORE PUSH1 0x20 ADD PUSH1 0x0 KECCAK256 PUSH1 0x0 DUP4 DUP2 MSTORE PUSH1 0x20 ADD SWAP1 DUP2 MSTORE PUSH1 0x20 ADD PUSH1 0x0 KECCAK256 PUSH1 0x4 ADD PUSH1 0x0 PUSH2 0x100 EXP DUP2 SLOAD DUP2 PUSH1 0xFF MUL NOT AND SWAP1 DUP4 PUSH1 0xFF AND MUL OR SWAP1 SSTORE POP DUP2 PUSH1 0xD PUSH1 0x0 CALLER PUSH20 0xFFFFFFFFFFFFFFFFFFFFFFFFFFFFFFFFFFFFFFFF AND PUSH20 0xFFFFFFFFFFFFFFFFFFFFFFFFFFFFFFFFFFFFFFFF AND DUP2 MSTORE PUSH1 0x20 ADD SWAP1 DUP2 MSTORE PUSH1 0x20 ADD PUSH1 0x0 KECCAK256 PUSH1 0x0 DUP4 DUP2 MSTORE PUSH1 0x20 ADD SWAP1 DUP2 MSTORE PUSH1 0x20 ADD PUSH1 0x0 KECCAK256 PUSH1 0x5 ADD SWAP1 DUP1 MLOAD SWAP1 PUSH1 0x20 ADD SWAP1 PUSH2 0xE4F SWAP3 SWAP2 SWAP1 PUSH2 0x1A38 JUMP JUMPDEST POP PUSH1 0x1 PUSH1 0xD PUSH1 0x0 CALLER PUSH20 0xFFFFFFFFFFFFFFFFFFFFFFFFFFFFFFFFFFFFFFFF AND PUSH20 0xFFFFFFFFFFFFFFFFFFFFFFFFFFFFFFFFFFFFFFFF AND DUP2 MSTORE PUSH1 0x20 ADD SWAP1 DUP2 MSTORE PUSH1 0x20 ADD PUSH1 0x0 KECCAK256 PUSH1 0x0 DUP4 DUP2 MSTORE PUSH1 0x20 ADD SWAP1 DUP2 MSTORE PUSH1 0x20 ADD PUSH1 0x0 KECCAK256 PUSH1 0x6 ADD PUSH1 0x1 ADD PUSH1 0x14 PUSH2 0x100 EXP DUP2 SLOAD DUP2 PUSH1 0xFF MUL NOT AND SWAP1 DUP4 PUSH1 0x2 DUP2 GT ISZERO PUSH2 0xECA JUMPI PUSH2 0xEC9 PUSH2 0x2420 JUMP JUMPDEST JUMPDEST MUL OR SWAP1 SSTORE POP TIMESTAMP PUSH1 0xD PUSH1 0x0 CALLER PUSH20 0xFFFFFFFFFFFFFFFFFFFFFFFFFFFFFFFFFFFFFFFF AND PUSH20 0xFFFFFFFFFFFFFFFFFFFFFFFFFFFFFFFFFFFFFFFF AND DUP2 MSTORE PUSH1 0x20 ADD SWAP1 DUP2 MSTORE PUSH1 0x20 ADD PUSH1 0x0 KECCAK256 PUSH1 0x0 DUP4 DUP2 MSTORE PUSH1 0x20 ADD SWAP1 DUP2 MSTORE PUSH1 0x20 ADD PUSH1 0x0 KECCAK256 PUSH1 0x6 ADD PUSH1 0x0 ADD DUP2 SWAP1 SSTORE POP CALLER PUSH1 0xD PUSH1 0x0 CALLER PUSH20 0xFFFFFFFFFFFFFFFFFFFFFFFFFFFFFFFFFFFFFFFF AND PUSH20 0xFFFFFFFFFFFFFFFFFFFFFFFFFFFFFFFFFFFFFFFF AND DUP2 MSTORE PUSH1 0x20 ADD SWAP1 DUP2 MSTORE PUSH1 0x20 ADD PUSH1 0x0 KECCAK256 PUSH1 0x0 DUP4 DUP2 MSTORE PUSH1 0x20 ADD SWAP1 DUP2 MSTORE PUSH1 0x20 ADD PUSH1 0x0 KECCAK256 PUSH1 0x6 ADD PUSH1 0x1 ADD PUSH1 0x0 PUSH2 0x100 EXP DUP2 SLOAD DUP2 PUSH20 0xFFFFFFFFFFFFFFFFFFFFFFFFFFFFFFFFFFFFFFFF MUL NOT AND SWAP1 DUP4 PUSH20 0xFFFFFFFFFFFFFFFFFFFFFFFFFFFFFFFFFFFFFFFF AND MUL OR SWAP1 SSTORE POP PUSH32 0xCEEB2CB6B3CFCD4203736EC1A776BC065E4FF58F126DDC27B185FE94E5E2FF9E DUP8 DUP7 DUP7 DUP7 PUSH1 0x40 MLOAD PUSH2 0xFF4 SWAP5 SWAP4 SWAP3 SWAP2 SWAP1 PUSH2 0x1F79 JUMP JUMPDEST PUSH1 0x40 MLOAD DUP1 SWAP2 SUB SWAP1 LOG1 POP POP POP POP POP POP POP JUMP JUMPDEST PUSH1 0x7 PUSH1 0x0 CALLER PUSH20 0xFFFFFFFFFFFFFFFFFFFFFFFFFFFFFFFFFFFFFFFF AND PUSH20 0xFFFFFFFFFFFFFFFFFFFFFFFFFFFFFFFFFFFFFFFF AND DUP2 MSTORE PUSH1 0x20 ADD SWAP1 DUP2 MSTORE PUSH1 0x20 ADD PUSH1 0x0 KECCAK256 PUSH1 0x0 ADD PUSH1 0x0 SWAP1 SLOAD SWAP1 PUSH2 0x100 EXP SWAP1 DIV PUSH1 0xFF AND PUSH2 0x1094 JUMPI PUSH1 0x40 MLOAD PUSH32 0x8C379A000000000000000000000000000000000000000000000000000000000 DUP2 MSTORE PUSH1 0x4 ADD PUSH2 0x108B SWAP1 PUSH2 0x20F2 JUMP JUMPDEST PUSH1 0x40 MLOAD DUP1 SWAP2 SUB SWAP1 REVERT JUMPDEST PUSH1 0x3 PUSH1 0x0 DUP7 PUSH20 0xFFFFFFFFFFFFFFFFFFFFFFFFFFFFFFFFFFFFFFFF AND PUSH20 0xFFFFFFFFFFFFFFFFFFFFFFFFFFFFFFFFFFFFFFFF AND DUP2 MSTORE PUSH1 0x20 ADD SWAP1 DUP2 MSTORE PUSH1 0x20 ADD PUSH1 0x0 KECCAK256 PUSH1 0x0 ADD PUSH1 0x0 SWAP1 SLOAD SWAP1 PUSH2 0x100 EXP SWAP1 DIV PUSH1 0xFF AND PUSH2 0x1123 JUMPI PUSH1 0x40 MLOAD PUSH32 0x8C379A000000000000000000000000000000000000000000000000000000000 DUP2 MSTORE PUSH1 0x4 ADD PUSH2 0x111A SWAP1 PUSH2 0x20D2 JUMP JUMPDEST PUSH1 0x40 MLOAD DUP1 SWAP2 SUB SWAP1 REVERT JUMPDEST PUSH1 0x0 PUSH1 0xC PUSH1 0x0 DUP2 SLOAD DUP1 SWAP3 SWAP2 SWAP1 PUSH2 0x1138 SWAP1 PUSH2 0x23A8 JUMP JUMPDEST SWAP2 SWAP1 POP SSTORE SWAP1 POP DUP5 PUSH1 0xD PUSH1 0x0 DUP9 PUSH20 0xFFFFFFFFFFFFFFFFFFFFFFFFFFFFFFFFFFFFFFFF AND PUSH20 0xFFFFFFFFFFFFFFFFFFFFFFFFFFFFFFFFFFFFFFFF AND DUP2 MSTORE PUSH1 0x20 ADD SWAP1 DUP2 MSTORE PUSH1 0x20 ADD PUSH1 0x0 KECCAK256 PUSH1 0x0 DUP4 DUP2 MSTORE PUSH1 0x20 ADD SWAP1 DUP2 MSTORE PUSH1 0x20 ADD PUSH1 0x0 KECCAK256 PUSH1 0x2 ADD DUP2 SWAP1 SSTORE POP DUP4 PUSH1 0xD PUSH1 0x0 DUP9 PUSH20 0xFFFFFFFFFFFFFFFFFFFFFFFFFFFFFFFFFFFFFFFF AND PUSH20 0xFFFFFFFFFFFFFFFFFFFFFFFFFFFFFFFFFFFFFFFF AND DUP2 MSTORE PUSH1 0x20 ADD SWAP1 DUP2 MSTORE PUSH1 0x20 ADD PUSH1 0x0 KECCAK256 PUSH1 0x0 DUP4 DUP2 MSTORE PUSH1 0x20 ADD SWAP1 DUP2 MSTORE PUSH1 0x20 ADD PUSH1 0x0 KECCAK256 PUSH1 0x3 ADD DUP2 SWAP1 SSTORE POP DUP3 PUSH1 0xD PUSH1 0x0 DUP9 PUSH20 0xFFFFFFFFFFFFFFFFFFFFFFFFFFFFFFFFFFFFFFFF AND PUSH20 0xFFFFFFFFFFFFFFFFFFFFFFFFFFFFFFFFFFFFFFFF AND DUP2 MSTORE PUSH1 0x20 ADD SWAP1 DUP2 MSTORE PUSH1 0x20 ADD PUSH1 0x0 KECCAK256 PUSH1 0x0 DUP4 DUP2 MSTORE PUSH1 0x20 ADD SWAP1 DUP2 MSTORE PUSH1 0x20 ADD PUSH1 0x0 KECCAK256 PUSH1 0x4 ADD PUSH1 0x0 PUSH2 0x100 EXP DUP2 SLOAD DUP2 PUSH1 0xFF MUL NOT AND SWAP1 DUP4 PUSH1 0xFF AND MUL OR SWAP1 SSTORE POP DUP2 PUSH1 0xD PUSH1 0x0 DUP9 PUSH20 0xFFFFFFFFFFFFFFFFFFFFFFFFFFFFFFFFFFFFFFFF AND PUSH20 0xFFFFFFFFFFFFFFFFFFFFFFFFFFFFFFFFFFFFFFFF AND DUP2 MSTORE PUSH1 0x20 ADD SWAP1 DUP2 MSTORE PUSH1 0x20 ADD PUSH1 0x0 KECCAK256 PUSH1 0x0 DUP4 DUP2 MSTORE PUSH1 0x20 ADD SWAP1 DUP2 MSTORE PUSH1 0x20 ADD PUSH1 0x0 KECCAK256 PUSH1 0x5 ADD SWAP1 DUP1 MLOAD SWAP1 PUSH1 0x20 ADD SWAP1 PUSH2 0x12C1 SWAP3 SWAP2 SWAP1 PUSH2 0x1A38 JUMP JUMPDEST POP PUSH1 0x1 PUSH1 0xD PUSH1 0x0 DUP9 PUSH20 0xFFFFFFFFFFFFFFFFFFFFFFFFFFFFFFFFFFFFFFFF AND PUSH20 0xFFFFFFFFFFFFFFFFFFFFFFFFFFFFFFFFFFFFFFFF AND DUP2 MSTORE PUSH1 0x20 ADD SWAP1 DUP2 MSTORE PUSH1 0x20 ADD PUSH1 0x0 KECCAK256 PUSH1 0x0 DUP4 DUP2 MSTORE PUSH1 0x20 ADD SWAP1 DUP2 MSTORE PUSH1 0x20 ADD PUSH1 0x0 KECCAK256 PUSH1 0x6 ADD PUSH1 0x1 ADD PUSH1 0x14 PUSH2 0x100 EXP DUP2 SLOAD DUP2 PUSH1 0xFF MUL NOT AND SWAP1 DUP4 PUSH1 0x2 DUP2 GT ISZERO PUSH2 0x133C JUMPI PUSH2 0x133B PUSH2 0x2420 JUMP JUMPDEST JUMPDEST MUL OR SWAP1 SSTORE POP TIMESTAMP PUSH1 0xD PUSH1 0x0 DUP9 PUSH20 0xFFFFFFFFFFFFFFFFFFFFFFFFFFFFFFFFFFFFFFFF AND PUSH20 0xFFFFFFFFFFFFFFFFFFFFFFFFFFFFFFFFFFFFFFFF AND DUP2 MSTORE PUSH1 0x20 ADD SWAP1 DUP2 MSTORE PUSH1 0x20 ADD PUSH1 0x0 KECCAK256 PUSH1 0x0 DUP4 DUP2 MSTORE PUSH1 0x20 ADD SWAP1 DUP2 MSTORE PUSH1 0x20 ADD PUSH1 0x0 KECCAK256 PUSH1 0x6 ADD PUSH1 0x0 ADD DUP2 SWAP1 SSTORE POP CALLER PUSH1 0xD PUSH1 0x0 DUP9 PUSH20 0xFFFFFFFFFFFFFFFFFFFFFFFFFFFFFFFFFFFFFFFF AND PUSH20 0xFFFFFFFFFFFFFFFFFFFFFFFFFFFFFFFFFFFFFFFF AND DUP2 MSTORE PUSH1 0x20 ADD SWAP1 DUP2 MSTORE PUSH1 0x20 ADD PUSH1 0x0 KECCAK256 PUSH1 0x0 DUP4 DUP2 MSTORE PUSH1 0x20 ADD SWAP1 DUP2 MSTORE PUSH1 0x20 ADD PUSH1 0x0 KECCAK256 PUSH1 0x6 ADD PUSH1 0x1 ADD PUSH1 0x0 PUSH2 0x100 EXP DUP2 SLOAD DUP2 PUSH20 0xFFFFFFFFFFFFFFFFFFFFFFFFFFFFFFFFFFFFFFFF MUL NOT AND SWAP1 DUP4 PUSH20 0xFFFFFFFFFFFFFFFFFFFFFFFFFFFFFFFFFFFFFFFF AND MUL OR SWAP1 SSTORE POP PUSH32 0xCEEB2CB6B3CFCD4203736EC1A776BC065E4FF58F126DDC27B185FE94E5E2FF9E DUP7 DUP7 DUP7 DUP7 PUSH1 0x40 MLOAD PUSH2 0x1466 SWAP5 SWAP4 SWAP3 SWAP2 SWAP1 PUSH2 0x1F79 JUMP JUMPDEST PUSH1 0x40 MLOAD DUP1 SWAP2 SUB SWAP1 LOG1 POP POP POP POP POP POP JUMP JUMPDEST PUSH1 0x8 PUSH1 0x20 MSTORE DUP1 PUSH1 0x0 MSTORE PUSH1 0x40 PUSH1 0x0 KECCAK256 PUSH1 0x0 SWAP2 POP SWAP1 POP DUP1 PUSH1 0x0 ADD PUSH1 0x0 SWAP1 SLOAD SWAP1 PUSH2 0x100 EXP SWAP1 DIV PUSH1 0xFF AND SWAP1 DUP1 PUSH1 0x1 ADD DUP1 SLOAD PUSH2 0x14AC SWAP1 PUSH2 0x2345 JUMP JUMPDEST DUP1 PUSH1 0x1F ADD PUSH1 0x20 DUP1 SWAP2 DIV MUL PUSH1 0x20 ADD PUSH1 0x40 MLOAD SWAP1 DUP2 ADD PUSH1 0x40 MSTORE DUP1 SWAP3 SWAP2 SWAP1 DUP2 DUP2 MSTORE PUSH1 0x20 ADD DUP3 DUP1 SLOAD PUSH2 0x14D8 SWAP1 PUSH2 0x2345 JUMP JUMPDEST DUP1 ISZERO PUSH2 0x1525 JUMPI DUP1 PUSH1 0x1F LT PUSH2 0x14FA JUMPI PUSH2 0x100 DUP1 DUP4 SLOAD DIV MUL DUP4 MSTORE SWAP2 PUSH1 0x20 ADD SWAP2 PUSH2 0x1525 JUMP JUMPDEST DUP3 ADD SWAP2 SWAP1 PUSH1 0x0 MSTORE PUSH1 0x20 PUSH1 0x0 KECCAK256 SWAP1 JUMPDEST DUP2 SLOAD DUP2 MSTORE SWAP1 PUSH1 0x1 ADD SWAP1 PUSH1 0x20 ADD DUP1 DUP4 GT PUSH2 0x1508 JUMPI DUP3 SWAP1 SUB PUSH1 0x1F AND DUP3 ADD SWAP2 JUMPDEST POP POP POP POP POP SWAP1 DUP1 PUSH1 0x2 ADD PUSH1 0x0 SWAP1 SLOAD SWAP1 PUSH2 0x100 EXP SWAP1 DIV PUSH1 0xFF AND SWAP1 POP DUP4 JUMP JUMPDEST PUSH1 0x9 PUSH1 0x20 MSTORE DUP1 PUSH1 0x0 MSTORE PUSH1 0x40 PUSH1 0x0 KECCAK256 PUSH1 0x0 SWAP2 POP SWAP1 POP DUP1 PUSH1 0x0 ADD PUSH1 0x0 SWAP1 SLOAD SWAP1 PUSH2 0x100 EXP SWAP1 DIV PUSH1 0xFF AND SWAP1 DUP1 PUSH1 0x1 ADD DUP1 SLOAD PUSH2 0x1578 SWAP1 PUSH2 0x2345 JUMP JUMPDEST DUP1 PUSH1 0x1F ADD PUSH1 0x20 DUP1 SWAP2 DIV MUL PUSH1 0x20 ADD PUSH1 0x40 MLOAD SWAP1 DUP2 ADD PUSH1 0x40 MSTORE DUP1 SWAP3 SWAP2 SWAP1 DUP2 DUP2 MSTORE PUSH1 0x20 ADD DUP3 DUP1 SLOAD PUSH2 0x15A4 SWAP1 PUSH2 0x2345 JUMP JUMPDEST DUP1 ISZERO PUSH2 0x15F1 JUMPI DUP1 PUSH1 0x1F LT PUSH2 0x15C6 JUMPI PUSH2 0x100 DUP1 DUP4 SLOAD DIV MUL DUP4 MSTORE SWAP2 PUSH1 0x20 ADD SWAP2 PUSH2 0x15F1 JUMP JUMPDEST DUP3 ADD SWAP2 SWAP1 PUSH1 0x0 MSTORE PUSH1 0x20 PUSH1 0x0 KECCAK256 SWAP1 JUMPDEST DUP2 SLOAD DUP2 MSTORE SWAP1 PUSH1 0x1 ADD SWAP1 PUSH1 0x20 ADD DUP1 DUP4 GT PUSH2 0x15D4 JUMPI DUP3 SWAP1 SUB PUSH1 0x1F AND DUP3 ADD SWAP2 JUMPDEST POP POP POP POP POP SWAP1 DUP1 PUSH1 0x2 ADD PUSH1 0x0 SWAP1 SLOAD SWAP1 PUSH2 0x100 EXP SWAP1 DIV PUSH1 0xFF AND SWAP1 POP DUP4 JUMP JUMPDEST PUSH1 0xB PUSH1 0x20 MSTORE DUP1 PUSH1 0x0 MSTORE PUSH1 0x40 PUSH1 0x0 KECCAK256 PUSH1 0x0 SWAP2 POP SWAP1 POP DUP1 PUSH1 0x0 ADD PUSH1 0x0 SWAP1 SLOAD SWAP1 PUSH2 0x100 EXP SWAP1 DIV PUSH4 0xFFFFFFFF AND SWAP1 DUP1 PUSH1 0x1 ADD DUP1 SLOAD PUSH2 0x1647 SWAP1 PUSH2 0x2345 JUMP JUMPDEST DUP1 PUSH1 0x1F ADD PUSH1 0x20 DUP1 SWAP2 DIV MUL PUSH1 0x20 ADD PUSH1 0x40 MLOAD SWAP1 DUP2 ADD PUSH1 0x40 MSTORE DUP1 SWAP3 SWAP2 SWAP1 DUP2 DUP2 MSTORE PUSH1 0x20 ADD DUP3 DUP1 SLOAD PUSH2 0x1673 SWAP1 PUSH2 0x2345 JUMP JUMPDEST DUP1 ISZERO PUSH2 0x16C0 JUMPI DUP1 PUSH1 0x1F LT PUSH2 0x1695 JUMPI PUSH2 0x100 DUP1 DUP4 SLOAD DIV MUL DUP4 MSTORE SWAP2 PUSH1 0x20 ADD SWAP2 PUSH2 0x16C0 JUMP JUMPDEST DUP3 ADD SWAP2 SWAP1 PUSH1 0x0 MSTORE PUSH1 0x20 PUSH1 0x0 KECCAK256 SWAP1 JUMPDEST DUP2 SLOAD DUP2 MSTORE SWAP1 PUSH1 0x1 ADD SWAP1 PUSH1 0x20 ADD DUP1 DUP4 GT PUSH2 0x16A3 JUMPI DUP3 SWAP1 SUB PUSH1 0x1F AND DUP3 ADD SWAP2 JUMPDEST POP POP POP POP POP SWAP1 POP DUP3 JUMP JUMPDEST PUSH1 0xC SLOAD DUP2 JUMP JUMPDEST PUSH1 0x5 PUSH1 0x20 MSTORE DUP1 PUSH1 0x0 MSTORE PUSH1 0x40 PUSH1 0x0 KECCAK256 PUSH1 0x0 SWAP2 POP SWAP1 POP DUP1 PUSH1 0x0 ADD PUSH1 0x0 SWAP1 SLOAD SWAP1 PUSH2 0x100 EXP SWAP1 DIV PUSH1 0xFF AND SWAP1 DUP1 PUSH1 0x0 ADD PUSH1 0x1 SWAP1 SLOAD SWAP1 PUSH2 0x100 EXP SWAP1 DIV PUSH20 0xFFFFFFFFFFFFFFFFFFFFFFFFFFFFFFFFFFFFFFFF AND SWAP1 DUP1 PUSH1 0x0 ADD PUSH1 0x15 SWAP1 SLOAD SWAP1 PUSH2 0x100 EXP SWAP1 DIV PUSH2 0xFFFF AND SWAP1 DUP1 PUSH1 0x0 ADD PUSH1 0x17 SWAP1 SLOAD SWAP1 PUSH2 0x100 EXP SWAP1 DIV PUSH1 0xFF AND SWAP1 DUP1 PUSH1 0x1 ADD DUP1 SLOAD PUSH2 0x1753 SWAP1 PUSH2 0x2345 JUMP JUMPDEST DUP1 PUSH1 0x1F ADD PUSH1 0x20 DUP1 SWAP2 DIV MUL PUSH1 0x20 ADD PUSH1 0x40 MLOAD SWAP1 DUP2 ADD PUSH1 0x40 MSTORE DUP1 SWAP3 SWAP2 SWAP1 DUP2 DUP2 MSTORE PUSH1 0x20 ADD DUP3 DUP1 SLOAD PUSH2 0x177F SWAP1 PUSH2 0x2345 JUMP JUMPDEST DUP1 ISZERO PUSH2 0x17CC JUMPI DUP1 PUSH1 0x1F LT PUSH2 0x17A1 JUMPI PUSH2 0x100 DUP1 DUP4 SLOAD DIV MUL DUP4 MSTORE SWAP2 PUSH1 0x20 ADD SWAP2 PUSH2 0x17CC JUMP JUMPDEST DUP3 ADD SWAP2 SWAP1 PUSH1 0x0 MSTORE PUSH1 0x20 PUSH1 0x0 KECCAK256 SWAP1 JUMPDEST DUP2 SLOAD DUP2 MSTORE SWAP1 PUSH1 0x1 ADD SWAP1 PUSH1 0x20 ADD DUP1 DUP4 GT PUSH2 0x17AF JUMPI DUP3 SWAP1 SUB PUSH1 0x1F AND DUP3 ADD SWAP2 JUMPDEST POP POP POP POP POP SWAP1 DUP1 PUSH1 0x2 ADD DUP1 SLOAD PUSH2 0x17E1 SWAP1 PUSH2 0x2345 JUMP JUMPDEST DUP1 PUSH1 0x1F ADD PUSH1 0x20 DUP1 SWAP2 DIV MUL PUSH1 0x20 ADD PUSH1 0x40 MLOAD SWAP1 DUP2 ADD PUSH1 0x40 MSTORE DUP1 SWAP3 SWAP2 SWAP1 DUP2 DUP2 MSTORE PUSH1 0x20 ADD DUP3 DUP1 SLOAD PUSH2 0x180D SWAP1 PUSH2 0x2345 JUMP JUMPDEST DUP1 ISZERO PUSH2 0x185A JUMPI DUP1 PUSH1 0x1F LT PUSH2 0x182F JUMPI PUSH2 0x100 DUP1 DUP4 SLOAD DIV MUL DUP4 MSTORE SWAP2 PUSH1 0x20 ADD SWAP2 PUSH2 0x185A JUMP JUMPDEST DUP3 ADD SWAP2 SWAP1 PUSH1 0x0 MSTORE PUSH1 0x20 PUSH1 0x0 KECCAK256 SWAP1 JUMPDEST DUP2 SLOAD DUP2 MSTORE SWAP1 PUSH1 0x1 ADD SWAP1 PUSH1 0x20 ADD DUP1 DUP4 GT PUSH2 0x183D JUMPI DUP3 SWAP1 SUB PUSH1 0x1F AND DUP3 ADD SWAP2 JUMPDEST POP POP POP POP POP SWAP1 POP DUP7 JUMP JUMPDEST PUSH1 0x3 PUSH1 0x20 MSTORE DUP1 PUSH1 0x0 MSTORE PUSH1 0x40 PUSH1 0x0 KECCAK256 PUSH1 0x0 SWAP2 POP SWAP1 POP DUP1 PUSH1 0x0 ADD PUSH1 0x0 SWAP1 SLOAD SWAP1 PUSH2 0x100 EXP SWAP1 DIV PUSH1 0xFF AND SWAP1 POP DUP2 JUMP JUMPDEST PUSH1 0xD PUSH1 0x20 MSTORE DUP2 PUSH1 0x0 MSTORE PUSH1 0x40 PUSH1 0x0 KECCAK256 PUSH1 0x20 MSTORE DUP1 PUSH1 0x0 MSTORE PUSH1 0x40 PUSH1 0x0 KECCAK256 PUSH1 0x0 SWAP2 POP SWAP2 POP POP DUP1 PUSH1 0x0 ADD SLOAD SWAP1 DUP1 PUSH1 0x1 ADD PUSH1 0x0 SWAP1 SLOAD SWAP1 PUSH2 0x100 EXP SWAP1 DIV PUSH20 0xFFFFFFFFFFFFFFFFFFFFFFFFFFFFFFFFFFFFFFFF AND SWAP1 DUP1 PUSH1 0x2 ADD SLOAD SWAP1 DUP1 PUSH1 0x3 ADD SLOAD SWAP1 DUP1 PUSH1 0x4 ADD PUSH1 0x0 SWAP1 SLOAD SWAP1 PUSH2 0x100 EXP SWAP1 DIV PUSH1 0xFF AND SWAP1 DUP1 PUSH1 0x5 ADD DUP1 SLOAD PUSH2 0x190A SWAP1 PUSH2 0x2345 JUMP JUMPDEST DUP1 PUSH1 0x1F ADD PUSH1 0x20 DUP1 SWAP2 DIV MUL PUSH1 0x20 ADD PUSH1 0x40 MLOAD SWAP1 DUP2 ADD PUSH1 0x40 MSTORE DUP1 SWAP3 SWAP2 SWAP1 DUP2 DUP2 MSTORE PUSH1 0x20 ADD DUP3 DUP1 SLOAD PUSH2 0x1936 SWAP1 PUSH2 0x2345 JUMP JUMPDEST DUP1 ISZERO PUSH2 0x1983 JUMPI DUP1 PUSH1 0x1F LT PUSH2 0x1958 JUMPI PUSH2 0x100 DUP1 DUP4 SLOAD DIV MUL DUP4 MSTORE SWAP2 PUSH1 0x20 ADD SWAP2 PUSH2 0x1983 JUMP JUMPDEST DUP3 ADD SWAP2 SWAP1 PUSH1 0x0 MSTORE PUSH1 0x20 PUSH1 0x0 KECCAK256 SWAP1 JUMPDEST DUP2 SLOAD DUP2 MSTORE SWAP1 PUSH1 0x1 ADD SWAP1 PUSH1 0x20 ADD DUP1 DUP4 GT PUSH2 0x1966 JUMPI DUP3 SWAP1 SUB PUSH1 0x1F AND DUP3 ADD SWAP2 JUMPDEST POP POP POP POP POP SWAP1 DUP1 PUSH1 0x6 ADD PUSH1 0x40 MLOAD DUP1 PUSH1 0x60 ADD PUSH1 0x40 MSTORE SWAP1 DUP2 PUSH1 0x0 DUP3 ADD SLOAD DUP2 MSTORE PUSH1 0x20 ADD PUSH1 0x1 DUP3 ADD PUSH1 0x0 SWAP1 SLOAD SWAP1 PUSH2 0x100 EXP SWAP1 DIV PUSH20 0xFFFFFFFFFFFFFFFFFFFFFFFFFFFFFFFFFFFFFFFF AND PUSH20 0xFFFFFFFFFFFFFFFFFFFFFFFFFFFFFFFFFFFFFFFF AND PUSH20 0xFFFFFFFFFFFFFFFFFFFFFFFFFFFFFFFFFFFFFFFF AND DUP2 MSTORE PUSH1 0x20 ADD PUSH1 0x1 DUP3 ADD PUSH1 0x14 SWAP1 SLOAD SWAP1 PUSH2 0x100 EXP SWAP1 DIV PUSH1 0xFF AND PUSH1 0x2 DUP2 GT ISZERO PUSH2 0x1A1D JUMPI PUSH2 0x1A1C PUSH2 0x2420 JUMP JUMPDEST JUMPDEST PUSH1 0x2 DUP2 GT ISZERO PUSH2 0x1A2F JUMPI PUSH2 0x1A2E PUSH2 0x2420 JUMP JUMPDEST JUMPDEST DUP2 MSTORE POP POP SWAP1 POP DUP8 JUMP JUMPDEST DUP3 DUP1 SLOAD PUSH2 0x1A44 SWAP1 PUSH2 0x2345 JUMP JUMPDEST SWAP1 PUSH1 0x0 MSTORE PUSH1 0x20 PUSH1 0x0 KECCAK256 SWAP1 PUSH1 0x1F ADD PUSH1 0x20 SWAP1 DIV DUP2 ADD SWAP3 DUP3 PUSH2 0x1A66 JUMPI PUSH1 0x0 DUP6 SSTORE PUSH2 0x1AAD JUMP JUMPDEST DUP3 PUSH1 0x1F LT PUSH2 0x1A7F JUMPI DUP1 MLOAD PUSH1 0xFF NOT AND DUP4 DUP1 ADD OR DUP6 SSTORE PUSH2 0x1AAD JUMP JUMPDEST DUP3 DUP1 ADD PUSH1 0x1 ADD DUP6 SSTORE DUP3 ISZERO PUSH2 0x1AAD JUMPI SWAP2 DUP3 ADD JUMPDEST DUP3 DUP2 GT ISZERO PUSH2 0x1AAC JUMPI DUP3 MLOAD DUP3 SSTORE SWAP2 PUSH1 0x20 ADD SWAP2 SWAP1 PUSH1 0x1 ADD SWAP1 PUSH2 0x1A91 JUMP JUMPDEST JUMPDEST POP SWAP1 POP PUSH2 0x1ABA SWAP2 SWAP1 PUSH2 0x1ABE JUMP JUMPDEST POP SWAP1 JUMP JUMPDEST JUMPDEST DUP1 DUP3 GT ISZERO PUSH2 0x1AD7 JUMPI PUSH1 0x0 DUP2 PUSH1 0x0 SWAP1 SSTORE POP PUSH1 0x1 ADD PUSH2 0x1ABF JUMP JUMPDEST POP SWAP1 JUMP JUMPDEST PUSH1 0x0 PUSH2 0x1AEE PUSH2 0x1AE9 DUP5 PUSH2 0x21F9 JUMP JUMPDEST PUSH2 0x21D4 JUMP JUMPDEST SWAP1 POP DUP3 DUP2 MSTORE PUSH1 0x20 DUP2 ADD DUP5 DUP5 DUP5 ADD GT ISZERO PUSH2 0x1B0A JUMPI PUSH2 0x1B09 PUSH2 0x24B2 JUMP JUMPDEST JUMPDEST PUSH2 0x1B15 DUP5 DUP3 DUP6 PUSH2 0x2303 JUMP JUMPDEST POP SWAP4 SWAP3 POP POP POP JUMP JUMPDEST PUSH1 0x0 DUP2 CALLDATALOAD SWAP1 POP PUSH2 0x1B2C DUP2 PUSH2 0x254C JUMP JUMPDEST SWAP3 SWAP2 POP POP JUMP JUMPDEST PUSH1 0x0 DUP3 PUSH1 0x1F DUP4 ADD SLT PUSH2 0x1B47 JUMPI PUSH2 0x1B46 PUSH2 0x24AD JUMP JUMPDEST JUMPDEST DUP2 CALLDATALOAD PUSH2 0x1B57 DUP5 DUP3 PUSH1 0x20 DUP7 ADD PUSH2 0x1ADB JUMP JUMPDEST SWAP2 POP POP SWAP3 SWAP2 POP POP JUMP JUMPDEST PUSH1 0x0 DUP2 CALLDATALOAD SWAP1 POP PUSH2 0x1B6F DUP2 PUSH2 0x2563 JUMP JUMPDEST SWAP3 SWAP2 POP POP JUMP JUMPDEST PUSH1 0x0 DUP2 CALLDATALOAD SWAP1 POP PUSH2 0x1B84 DUP2 PUSH2 0x257A JUMP JUMPDEST SWAP3 SWAP2 POP POP JUMP JUMPDEST PUSH1 0x0 DUP2 CALLDATALOAD SWAP1 POP PUSH2 0x1B99 DUP2 PUSH2 0x2591 JUMP JUMPDEST SWAP3 SWAP2 POP POP JUMP JUMPDEST PUSH1 0x0 PUSH1 0x20 DUP3 DUP5 SUB SLT ISZERO PUSH2 0x1BB5 JUMPI PUSH2 0x1BB4 PUSH2 0x24BC JUMP JUMPDEST JUMPDEST PUSH1 0x0 PUSH2 0x1BC3 DUP5 DUP3 DUP6 ADD PUSH2 0x1B1D JUMP JUMPDEST SWAP2 POP POP SWAP3 SWAP2 POP POP JUMP JUMPDEST PUSH1 0x0 DUP1 PUSH1 0x0 DUP1 PUSH1 0x0 DUP1 PUSH1 0xC0 DUP8 DUP10 SUB SLT ISZERO PUSH2 0x1BE9 JUMPI PUSH2 0x1BE8 PUSH2 0x24BC JUMP JUMPDEST JUMPDEST PUSH1 0x0 PUSH2 0x1BF7 DUP10 DUP3 DUP11 ADD PUSH2 0x1B1D JUMP JUMPDEST SWAP7 POP POP PUSH1 0x20 PUSH2 0x1C08 DUP10 DUP3 DUP11 ADD PUSH2 0x1B1D JUMP JUMPDEST SWAP6 POP POP PUSH1 0x40 PUSH2 0x1C19 DUP10 DUP3 DUP11 ADD PUSH2 0x1B60 JUMP JUMPDEST SWAP5 POP POP PUSH1 0x60 PUSH2 0x1C2A DUP10 DUP3 DUP11 ADD PUSH2 0x1B60 JUMP JUMPDEST SWAP4 POP POP PUSH1 0x80 PUSH2 0x1C3B DUP10 DUP3 DUP11 ADD PUSH2 0x1B8A JUMP JUMPDEST SWAP3 POP POP PUSH1 0xA0 DUP8 ADD CALLDATALOAD PUSH8 0xFFFFFFFFFFFFFFFF DUP2 GT ISZERO PUSH2 0x1C5C JUMPI PUSH2 0x1C5B PUSH2 0x24B7 JUMP JUMPDEST JUMPDEST PUSH2 0x1C68 DUP10 DUP3 DUP11 ADD PUSH2 0x1B32 JUMP JUMPDEST SWAP2 POP POP SWAP3 SWAP6 POP SWAP3 SWAP6 POP SWAP3 SWAP6 JUMP JUMPDEST PUSH1 0x0 DUP1 PUSH1 0x40 DUP4 DUP6 SUB SLT ISZERO PUSH2 0x1C8C JUMPI PUSH2 0x1C8B PUSH2 0x24BC JUMP JUMPDEST JUMPDEST PUSH1 0x0 PUSH2 0x1C9A DUP6 DUP3 DUP7 ADD PUSH2 0x1B1D JUMP JUMPDEST SWAP3 POP POP PUSH1 0x20 PUSH2 0x1CAB DUP6 DUP3 DUP7 ADD PUSH2 0x1B60 JUMP JUMPDEST SWAP2 POP POP SWAP3 POP SWAP3 SWAP1 POP JUMP JUMPDEST PUSH1 0x0 DUP1 PUSH1 0x0 DUP1 PUSH1 0x0 DUP1 PUSH1 0xC0 DUP8 DUP10 SUB SLT ISZERO PUSH2 0x1CD2 JUMPI PUSH2 0x1CD1 PUSH2 0x24BC JUMP JUMPDEST JUMPDEST PUSH1 0x0 PUSH2 0x1CE0 DUP10 DUP3 DUP11 ADD PUSH2 0x1B1D JUMP JUMPDEST SWAP7 POP POP PUSH1 0x20 PUSH2 0x1CF1 DUP10 DUP3 DUP11 ADD PUSH2 0x1B60 JUMP JUMPDEST SWAP6 POP POP PUSH1 0x40 PUSH2 0x1D02 DUP10 DUP3 DUP11 ADD PUSH2 0x1B60 JUMP JUMPDEST SWAP5 POP POP PUSH1 0x60 PUSH2 0x1D13 DUP10 DUP3 DUP11 ADD PUSH2 0x1B60 JUMP JUMPDEST SWAP4 POP POP PUSH1 0x80 PUSH2 0x1D24 DUP10 DUP3 DUP11 ADD PUSH2 0x1B8A JUMP JUMPDEST SWAP3 POP POP PUSH1 0xA0 DUP8 ADD CALLDATALOAD PUSH8 0xFFFFFFFFFFFFFFFF DUP2 GT ISZERO PUSH2 0x1D45 JUMPI PUSH2 0x1D44 PUSH2 0x24B7 JUMP JUMPDEST JUMPDEST PUSH2 0x1D51 DUP10 DUP3 DUP11 ADD PUSH2 0x1B32 JUMP JUMPDEST SWAP2 POP POP SWAP3 SWAP6 POP SWAP3 SWAP6 POP SWAP3 SWAP6 JUMP JUMPDEST PUSH1 0x0 DUP1 PUSH1 0x0 DUP1 PUSH1 0x0 PUSH1 0xA0 DUP7 DUP9 SUB SLT ISZERO PUSH2 0x1D7A JUMPI PUSH2 0x1D79 PUSH2 0x24BC JUMP JUMPDEST JUMPDEST PUSH1 0x0 PUSH2 0x1D88 DUP9 DUP3 DUP10 ADD PUSH2 0x1B1D JUMP JUMPDEST SWAP6 POP POP PUSH1 0x20 PUSH2 0x1D99 DUP9 DUP3 DUP10 ADD PUSH2 0x1B60 JUMP JUMPDEST SWAP5 POP POP PUSH1 0x40 PUSH2 0x1DAA DUP9 DUP3 DUP10 ADD PUSH2 0x1B60 JUMP JUMPDEST SWAP4 POP POP PUSH1 0x60 PUSH2 0x1DBB DUP9 DUP3 DUP10 ADD PUSH2 0x1B8A JUMP JUMPDEST SWAP3 POP POP PUSH1 0x80 DUP7 ADD CALLDATALOAD PUSH8 0xFFFFFFFFFFFFFFFF DUP2 GT ISZERO PUSH2 0x1DDC JUMPI PUSH2 0x1DDB PUSH2 0x24B7 JUMP JUMPDEST JUMPDEST PUSH2 0x1DE8 DUP9 DUP3 DUP10 ADD PUSH2 0x1B32 JUMP JUMPDEST SWAP2 POP POP SWAP3 SWAP6 POP SWAP3 SWAP6 SWAP1 SWAP4 POP JUMP JUMPDEST PUSH1 0x0 PUSH1 0x20 DUP3 DUP5 SUB SLT ISZERO PUSH2 0x1E0B JUMPI PUSH2 0x1E0A PUSH2 0x24BC JUMP JUMPDEST JUMPDEST PUSH1 0x0 PUSH2 0x1E19 DUP5 DUP3 DUP6 ADD PUSH2 0x1B75 JUMP JUMPDEST SWAP2 POP POP SWAP3 SWAP2 POP POP JUMP JUMPDEST PUSH2 0x1E2B DUP2 PUSH2 0x2246 JUMP JUMPDEST DUP3 MSTORE POP POP JUMP JUMPDEST PUSH2 0x1E3A DUP2 PUSH2 0x2246 JUMP JUMPDEST DUP3 MSTORE POP POP JUMP JUMPDEST PUSH2 0x1E49 DUP2 PUSH2 0x2258 JUMP JUMPDEST DUP3 MSTORE POP POP JUMP JUMPDEST PUSH2 0x1E58 DUP2 PUSH2 0x22DF JUMP JUMPDEST DUP3 MSTORE POP POP JUMP JUMPDEST PUSH2 0x1E67 DUP2 PUSH2 0x22F1 JUMP JUMPDEST DUP3 MSTORE POP POP JUMP JUMPDEST PUSH1 0x0 PUSH2 0x1E78 DUP3 PUSH2 0x222A JUMP JUMPDEST PUSH2 0x1E82 DUP2 DUP6 PUSH2 0x2235 JUMP JUMPDEST SWAP4 POP PUSH2 0x1E92 DUP2 DUP6 PUSH1 0x20 DUP7 ADD PUSH2 0x2312 JUMP JUMPDEST PUSH2 0x1E9B DUP2 PUSH2 0x24C1 JUMP JUMPDEST DUP5 ADD SWAP2 POP POP SWAP3 SWAP2 POP POP JUMP JUMPDEST PUSH1 0x0 PUSH2 0x1EB3 PUSH1 0x11 DUP4 PUSH2 0x2235 JUMP JUMPDEST SWAP2 POP PUSH2 0x1EBE DUP3 PUSH2 0x24D2 JUMP JUMPDEST PUSH1 0x20 DUP3 ADD SWAP1 POP SWAP2 SWAP1 POP JUMP JUMPDEST PUSH1 0x0 PUSH2 0x1ED6 PUSH1 0x20 DUP4 PUSH2 0x2235 JUMP JUMPDEST SWAP2 POP PUSH2 0x1EE1 DUP3 PUSH2 0x24FB JUMP JUMPDEST PUSH1 0x20 DUP3 ADD SWAP1 POP SWAP2 SWAP1 POP JUMP JUMPDEST PUSH1 0x60 DUP3 ADD PUSH1 0x0 DUP3 ADD MLOAD PUSH2 0x1F02 PUSH1 0x0 DUP6 ADD DUP3 PUSH2 0x1F3D JUMP JUMPDEST POP PUSH1 0x20 DUP3 ADD MLOAD PUSH2 0x1F15 PUSH1 0x20 DUP6 ADD DUP3 PUSH2 0x1E22 JUMP JUMPDEST POP PUSH1 0x40 DUP3 ADD MLOAD PUSH2 0x1F28 PUSH1 0x40 DUP6 ADD DUP3 PUSH2 0x1E4F JUMP JUMPDEST POP POP POP POP JUMP JUMPDEST PUSH2 0x1F37 DUP2 PUSH2 0x228A JUMP JUMPDEST DUP3 MSTORE POP POP JUMP JUMPDEST PUSH2 0x1F46 DUP2 PUSH2 0x22B8 JUMP JUMPDEST DUP3 MSTORE POP POP JUMP JUMPDEST PUSH2 0x1F55 DUP2 PUSH2 0x22B8 JUMP JUMPDEST DUP3 MSTORE POP POP JUMP JUMPDEST PUSH2 0x1F64 DUP2 PUSH2 0x22C2 JUMP JUMPDEST DUP3 MSTORE POP POP JUMP JUMPDEST PUSH2 0x1F73 DUP2 PUSH2 0x22D2 JUMP JUMPDEST DUP3 MSTORE POP POP JUMP JUMPDEST PUSH1 0x0 PUSH1 0x80 DUP3 ADD SWAP1 POP PUSH2 0x1F8E PUSH1 0x0 DUP4 ADD DUP8 PUSH2 0x1E31 JUMP JUMPDEST PUSH2 0x1F9B PUSH1 0x20 DUP4 ADD DUP7 PUSH2 0x1F4C JUMP JUMPDEST PUSH2 0x1FA8 PUSH1 0x40 DUP4 ADD DUP6 PUSH2 0x1F4C JUMP JUMPDEST PUSH2 0x1FB5 PUSH1 0x60 DUP4 ADD DUP5 PUSH2 0x1F6A JUMP JUMPDEST SWAP6 SWAP5 POP POP POP POP POP JUMP JUMPDEST PUSH1 0x0 PUSH1 0x20 DUP3 ADD SWAP1 POP PUSH2 0x1FD3 PUSH1 0x0 DUP4 ADD DUP5 PUSH2 0x1E40 JUMP JUMPDEST SWAP3 SWAP2 POP POP JUMP JUMPDEST PUSH1 0x0 PUSH1 0xC0 DUP3 ADD SWAP1 POP PUSH2 0x1FEE PUSH1 0x0 DUP4 ADD DUP10 PUSH2 0x1E40 JUMP JUMPDEST PUSH2 0x1FFB PUSH1 0x20 DUP4 ADD DUP9 PUSH2 0x1E31 JUMP JUMPDEST PUSH2 0x2008 PUSH1 0x40 DUP4 ADD DUP8 PUSH2 0x1F2E JUMP JUMPDEST PUSH2 0x2015 PUSH1 0x60 DUP4 ADD DUP7 PUSH2 0x1E5E JUMP JUMPDEST DUP2 DUP2 SUB PUSH1 0x80 DUP4 ADD MSTORE PUSH2 0x2027 DUP2 DUP6 PUSH2 0x1E6D JUMP JUMPDEST SWAP1 POP DUP2 DUP2 SUB PUSH1 0xA0 DUP4 ADD MSTORE PUSH2 0x203B DUP2 DUP5 PUSH2 0x1E6D JUMP JUMPDEST SWAP1 POP SWAP8 SWAP7 POP POP POP POP POP POP POP JUMP JUMPDEST PUSH1 0x0 PUSH1 0x60 DUP3 ADD SWAP1 POP PUSH2 0x205D PUSH1 0x0 DUP4 ADD DUP7 PUSH2 0x1E40 JUMP JUMPDEST DUP2 DUP2 SUB PUSH1 0x20 DUP4 ADD MSTORE PUSH2 0x206F DUP2 DUP6 PUSH2 0x1E6D JUMP JUMPDEST SWAP1 POP PUSH2 0x207E PUSH1 0x40 DUP4 ADD DUP5 PUSH2 0x1F6A JUMP JUMPDEST SWAP5 SWAP4 POP POP POP POP JUMP JUMPDEST PUSH1 0x0 PUSH1 0x80 DUP3 ADD SWAP1 POP PUSH2 0x209B PUSH1 0x0 DUP4 ADD DUP8 PUSH2 0x1E40 JUMP JUMPDEST PUSH2 0x20A8 PUSH1 0x20 DUP4 ADD DUP7 PUSH2 0x1F6A JUMP JUMPDEST PUSH2 0x20B5 PUSH1 0x40 DUP4 ADD DUP6 PUSH2 0x1F4C JUMP JUMPDEST DUP2 DUP2 SUB PUSH1 0x60 DUP4 ADD MSTORE PUSH2 0x20C7 DUP2 DUP5 PUSH2 0x1E6D JUMP JUMPDEST SWAP1 POP SWAP6 SWAP5 POP POP POP POP POP JUMP JUMPDEST PUSH1 0x0 PUSH1 0x20 DUP3 ADD SWAP1 POP DUP2 DUP2 SUB PUSH1 0x0 DUP4 ADD MSTORE PUSH2 0x20EB DUP2 PUSH2 0x1EA6 JUMP JUMPDEST SWAP1 POP SWAP2 SWAP1 POP JUMP JUMPDEST PUSH1 0x0 PUSH1 0x20 DUP3 ADD SWAP1 POP DUP2 DUP2 SUB PUSH1 0x0 DUP4 ADD MSTORE PUSH2 0x210B DUP2 PUSH2 0x1EC9 JUMP JUMPDEST SWAP1 POP SWAP2 SWAP1 POP JUMP JUMPDEST PUSH1 0x0 PUSH1 0x20 DUP3 ADD SWAP1 POP PUSH2 0x2127 PUSH1 0x0 DUP4 ADD DUP5 PUSH2 0x1F4C JUMP JUMPDEST SWAP3 SWAP2 POP POP JUMP JUMPDEST PUSH1 0x0 PUSH2 0x120 DUP3 ADD SWAP1 POP PUSH2 0x2143 PUSH1 0x0 DUP4 ADD DUP11 PUSH2 0x1F4C JUMP JUMPDEST PUSH2 0x2150 PUSH1 0x20 DUP4 ADD DUP10 PUSH2 0x1E31 JUMP JUMPDEST PUSH2 0x215D PUSH1 0x40 DUP4 ADD DUP9 PUSH2 0x1F4C JUMP JUMPDEST PUSH2 0x216A PUSH1 0x60 DUP4 ADD DUP8 PUSH2 0x1F4C JUMP JUMPDEST PUSH2 0x2177 PUSH1 0x80 DUP4 ADD DUP7 PUSH2 0x1F6A JUMP JUMPDEST DUP2 DUP2 SUB PUSH1 0xA0 DUP4 ADD MSTORE PUSH2 0x2189 DUP2 DUP6 PUSH2 0x1E6D JUMP JUMPDEST SWAP1 POP PUSH2 0x2198 PUSH1 0xC0 DUP4 ADD DUP5 PUSH2 0x1EEC JUMP JUMPDEST SWAP9 SWAP8 POP POP POP POP POP POP POP POP JUMP JUMPDEST PUSH1 0x0 PUSH1 0x40 DUP3 ADD SWAP1 POP PUSH2 0x21B9 PUSH1 0x0 DUP4 ADD DUP6 PUSH2 0x1F5B JUMP JUMPDEST DUP2 DUP2 SUB PUSH1 0x20 DUP4 ADD MSTORE PUSH2 0x21CB DUP2 DUP5 PUSH2 0x1E6D JUMP JUMPDEST SWAP1 POP SWAP4 SWAP3 POP POP POP JUMP JUMPDEST PUSH1 0x0 PUSH2 0x21DE PUSH2 0x21EF JUMP JUMPDEST SWAP1 POP PUSH2 0x21EA DUP3 DUP3 PUSH2 0x2377 JUMP JUMPDEST SWAP2 SWAP1 POP JUMP JUMPDEST PUSH1 0x0 PUSH1 0x40 MLOAD SWAP1 POP SWAP1 JUMP JUMPDEST PUSH1 0x0 PUSH8 0xFFFFFFFFFFFFFFFF DUP3 GT ISZERO PUSH2 0x2214 JUMPI PUSH2 0x2213 PUSH2 0x247E JUMP JUMPDEST JUMPDEST PUSH2 0x221D DUP3 PUSH2 0x24C1 JUMP JUMPDEST SWAP1 POP PUSH1 0x20 DUP2 ADD SWAP1 POP SWAP2 SWAP1 POP JUMP JUMPDEST PUSH1 0x0 DUP2 MLOAD SWAP1 POP SWAP2 SWAP1 POP JUMP JUMPDEST PUSH1 0x0 DUP3 DUP3 MSTORE PUSH1 0x20 DUP3 ADD SWAP1 POP SWAP3 SWAP2 POP POP JUMP JUMPDEST PUSH1 0x0 PUSH2 0x2251 DUP3 PUSH2 0x2298 JUMP JUMPDEST SWAP1 POP SWAP2 SWAP1 POP JUMP JUMPDEST PUSH1 0x0 DUP2 ISZERO ISZERO SWAP1 POP SWAP2 SWAP1 POP JUMP JUMPDEST PUSH1 0x0 DUP2 SWAP1 POP PUSH2 0x2272 DUP3 PUSH2 0x2524 JUMP JUMPDEST SWAP2 SWAP1 POP JUMP JUMPDEST PUSH1 0x0 DUP2 SWAP1 POP PUSH2 0x2285 DUP3 PUSH2 0x2538 JUMP JUMPDEST SWAP2 SWAP1 POP JUMP JUMPDEST PUSH1 0x0 PUSH2 0xFFFF DUP3 AND SWAP1 POP SWAP2 SWAP1 POP JUMP JUMPDEST PUSH1 0x0 PUSH20 0xFFFFFFFFFFFFFFFFFFFFFFFFFFFFFFFFFFFFFFFF DUP3 AND SWAP1 POP SWAP2 SWAP1 POP JUMP JUMPDEST PUSH1 0x0 DUP2 SWAP1 POP SWAP2 SWAP1 POP JUMP JUMPDEST PUSH1 0x0 PUSH4 0xFFFFFFFF DUP3 AND SWAP1 POP SWAP2 SWAP1 POP JUMP JUMPDEST PUSH1 0x0 PUSH1 0xFF DUP3 AND SWAP1 POP SWAP2 SWAP1 POP JUMP JUMPDEST PUSH1 0x0 PUSH2 0x22EA DUP3 PUSH2 0x2264 JUMP JUMPDEST SWAP1 POP SWAP2 SWAP1 POP JUMP JUMPDEST PUSH1 0x0 PUSH2 0x22FC DUP3 PUSH2 0x2277 JUMP JUMPDEST SWAP1 POP SWAP2 SWAP1 POP JUMP JUMPDEST DUP3 DUP2 DUP4 CALLDATACOPY PUSH1 0x0 DUP4 DUP4 ADD MSTORE POP POP POP JUMP JUMPDEST PUSH1 0x0 JUMPDEST DUP4 DUP2 LT ISZERO PUSH2 0x2330 JUMPI DUP1 DUP3 ADD MLOAD DUP2 DUP5 ADD MSTORE PUSH1 0x20 DUP2 ADD SWAP1 POP PUSH2 0x2315 JUMP JUMPDEST DUP4 DUP2 GT ISZERO PUSH2 0x233F JUMPI PUSH1 0x0 DUP5 DUP5 ADD MSTORE JUMPDEST POP POP POP POP JUMP JUMPDEST PUSH1 0x0 PUSH1 0x2 DUP3 DIV SWAP1 POP PUSH1 0x1 DUP3 AND DUP1 PUSH2 0x235D JUMPI PUSH1 0x7F DUP3 AND SWAP2 POP JUMPDEST PUSH1 0x20 DUP3 LT DUP2 EQ ISZERO PUSH2 0x2371 JUMPI PUSH2 0x2370 PUSH2 0x244F JUMP JUMPDEST JUMPDEST POP SWAP2 SWAP1 POP JUMP JUMPDEST PUSH2 0x2380 DUP3 PUSH2 0x24C1 JUMP JUMPDEST DUP2 ADD DUP2 DUP2 LT PUSH8 0xFFFFFFFFFFFFFFFF DUP3 GT OR ISZERO PUSH2 0x239F JUMPI PUSH2 0x239E PUSH2 0x247E JUMP JUMPDEST JUMPDEST DUP1 PUSH1 0x40 MSTORE POP POP POP JUMP JUMPDEST PUSH1 0x0 PUSH2 0x23B3 DUP3 PUSH2 0x22B8 JUMP JUMPDEST SWAP2 POP PUSH32 0xFFFFFFFFFFFFFFFFFFFFFFFFFFFFFFFFFFFFFFFFFFFFFFFFFFFFFFFFFFFFFFFF DUP3 EQ ISZERO PUSH2 0x23E6 JUMPI PUSH2 0x23E5 PUSH2 0x23F1 JUMP JUMPDEST JUMPDEST PUSH1 0x1 DUP3 ADD SWAP1 POP SWAP2 SWAP1 POP JUMP JUMPDEST PUSH32 0x4E487B7100000000000000000000000000000000000000000000000000000000 PUSH1 0x0 MSTORE PUSH1 0x11 PUSH1 0x4 MSTORE PUSH1 0x24 PUSH1 0x0 REVERT JUMPDEST PUSH32 0x4E487B7100000000000000000000000000000000000000000000000000000000 PUSH1 0x0 MSTORE PUSH1 0x21 PUSH1 0x4 MSTORE PUSH1 0x24 PUSH1 0x0 REVERT JUMPDEST PUSH32 0x4E487B7100000000000000000000000000000000000000000000000000000000 PUSH1 0x0 MSTORE PUSH1 0x22 PUSH1 0x4 MSTORE PUSH1 0x24 PUSH1 0x0 REVERT JUMPDEST PUSH32 0x4E487B7100000000000000000000000000000000000000000000000000000000 PUSH1 0x0 MSTORE PUSH1 0x41 PUSH1 0x4 MSTORE PUSH1 0x24 PUSH1 0x0 REVERT JUMPDEST PUSH1 0x0 DUP1 REVERT JUMPDEST PUSH1 0x0 DUP1 REVERT JUMPDEST PUSH1 0x0 DUP1 REVERT JUMPDEST PUSH1 0x0 DUP1 REVERT JUMPDEST PUSH1 0x0 PUSH1 0x1F NOT PUSH1 0x1F DUP4 ADD AND SWAP1 POP SWAP2 SWAP1 POP JUMP JUMPDEST PUSH32 0x4B697369206D657663757420646567696C000000000000000000000000000000 PUSH1 0x0 DUP3 ADD MSTORE POP JUMP JUMPDEST PUSH32 0x42752069736C656D6920736164656365204B757273207961706162696C69722E PUSH1 0x0 DUP3 ADD MSTORE POP JUMP JUMPDEST PUSH1 0x3 DUP2 LT PUSH2 0x2535 JUMPI PUSH2 0x2534 PUSH2 0x2420 JUMP JUMPDEST JUMPDEST POP JUMP JUMPDEST PUSH1 0x4 DUP2 LT PUSH2 0x2549 JUMPI PUSH2 0x2548 PUSH2 0x2420 JUMP JUMPDEST JUMPDEST POP JUMP JUMPDEST PUSH2 0x2555 DUP2 PUSH2 0x2246 JUMP JUMPDEST DUP2 EQ PUSH2 0x2560 JUMPI PUSH1 0x0 DUP1 REVERT JUMPDEST POP JUMP JUMPDEST PUSH2 0x256C DUP2 PUSH2 0x22B8 JUMP JUMPDEST DUP2 EQ PUSH2 0x2577 JUMPI PUSH1 0x0 DUP1 REVERT JUMPDEST POP JUMP JUMPDEST PUSH2 0x2583 DUP2 PUSH2 0x22C2 JUMP JUMPDEST DUP2 EQ PUSH2 0x258E JUMPI PUSH1 0x0 DUP1 REVERT JUMPDEST POP JUMP JUMPDEST PUSH2 0x259A DUP2 PUSH2 0x22D2 JUMP JUMPDEST DUP2 EQ PUSH2 0x25A5 JUMPI PUSH1 0x0 DUP1 REVERT JUMPDEST POP JUMP INVALID LOG2 PUSH5 0x6970667358 0x22 SLT KECCAK256 ADD SWAP3 0x4B 0xD5 SSTORE GAS 0xB0 SWAP7 CREATE2 PUSH31 0x461CAC0C45E6384EC3B65894C8F31B50BCD5254C86FA64736F6C6343000807 STOP CALLER "
				},
				"gasEstimates": {
					"creation": {
						"codeDepositCost": "1938800",
						"executionCost": "2048",
						"totalCost": "1940848"
					},
					"external": {
						"akademisyenler(address)": "infinite",
						"diller(uint32)": "infinite",
						"ekleKursBilgi(address,uint256,uint256,uint8,string)": "infinite",
						"firmalar(address)": "infinite",
						"guncelleKursBilgi(address,uint256,uint256,uint256,uint8,string)": "infinite",
						"id()": "2451",
						"kamuKurumlari(address)": "infinite",
						"kisiler(address)": "2936",
						"kursBilgiListesi(address,uint256)": "infinite",
						"kurslar(address)": "infinite",
						"sertifikaMerkezleri(address)": "infinite",
						"stklar(address)": "infinite",
						"talepEtKursBilgi(address,address,uint256,uint256,uint8,string)": "infinite",
						"universiteler(address)": "infinite"
					}
				},
				"methodIdentifiers": {
					"akademisyenler(address)": "ba479b7e",
					"diller(uint32)": "a4e7ae05",
					"ekleKursBilgi(address,uint256,uint256,uint8,string)": "6dac86de",
					"firmalar(address)": "39987f94",
					"guncelleKursBilgi(address,uint256,uint256,uint256,uint8,string)": "1957b59f",
					"id()": "af640d0f",
					"kamuKurumlari(address)": "7d0fa287",
					"kisiler(address)": "cbc92809",
					"kursBilgiListesi(address,uint256)": "d5070f43",
					"kurslar(address)": "1916e139",
					"sertifikaMerkezleri(address)": "356b1f1e",
					"stklar(address)": "9a8c9119",
					"talepEtKursBilgi(address,address,uint256,uint256,uint8,string)": "5637b6a5",
					"universiteler(address)": "28266697"
				}
			},
			"storageLayout": {
				"storage": [
					{
						"astId": 3,
						"contract": "contracts/KursBilgileri.sol:KursBilgileri",
						"label": "YOK",
						"offset": 0,
						"slot": "0",
						"type": "t_address"
					},
					{
						"astId": 5,
						"contract": "contracts/KursBilgileri.sol:KursBilgileri",
						"label": "TOBB",
						"offset": 0,
						"slot": "1",
						"type": "t_address"
					},
					{
						"astId": 7,
						"contract": "contracts/KursBilgileri.sol:KursBilgileri",
						"label": "CB",
						"offset": 0,
						"slot": "2",
						"type": "t_address"
					},
					{
						"astId": 249,
						"contract": "contracts/KursBilgileri.sol:KursBilgileri",
						"label": "kisiler",
						"offset": 0,
						"slot": "3",
						"type": "t_mapping(t_address,t_struct(Kisi)10_storage)"
					},
					{
						"astId": 254,
						"contract": "contracts/KursBilgileri.sol:KursBilgileri",
						"label": "universiteler",
						"offset": 0,
						"slot": "4",
						"type": "t_mapping(t_address,t_struct(Universite)29_storage)"
					},
					{
						"astId": 259,
						"contract": "contracts/KursBilgileri.sol:KursBilgileri",
						"label": "akademisyenler",
						"offset": 0,
						"slot": "5",
						"type": "t_mapping(t_address,t_struct(Akademisyen)43_storage)"
					},
					{
						"astId": 264,
						"contract": "contracts/KursBilgileri.sol:KursBilgileri",
						"label": "firmalar",
						"offset": 0,
						"slot": "6",
						"type": "t_mapping(t_address,t_struct(Firma)83_storage)"
					},
					{
						"astId": 269,
						"contract": "contracts/KursBilgileri.sol:KursBilgileri",
						"label": "kurslar",
						"offset": 0,
						"slot": "7",
						"type": "t_mapping(t_address,t_struct(Kurs)111_storage)"
					},
					{
						"astId": 274,
						"contract": "contracts/KursBilgileri.sol:KursBilgileri",
						"label": "kamuKurumlari",
						"offset": 0,
						"slot": "8",
						"type": "t_mapping(t_address,t_struct(KamuKurumu)90_storage)"
					},
					{
						"astId": 279,
						"contract": "contracts/KursBilgileri.sol:KursBilgileri",
						"label": "stklar",
						"offset": 0,
						"slot": "9",
						"type": "t_mapping(t_address,t_struct(STK)97_storage)"
					},
					{
						"astId": 284,
						"contract": "contracts/KursBilgileri.sol:KursBilgileri",
						"label": "sertifikaMerkezleri",
						"offset": 0,
						"slot": "10",
						"type": "t_mapping(t_address,t_struct(SertifikaMerkezi)104_storage)"
					},
					{
						"astId": 289,
						"contract": "contracts/KursBilgileri.sol:KursBilgileri",
						"label": "diller",
						"offset": 0,
						"slot": "11",
						"type": "t_mapping(t_uint32,t_struct(YabanciDil)116_storage)"
					},
					{
						"astId": 297,
						"contract": "contracts/KursBilgileri.sol:KursBilgileri",
						"label": "id",
						"offset": 0,
						"slot": "12",
						"type": "t_uint256"
					},
					{
						"astId": 320,
						"contract": "contracts/KursBilgileri.sol:KursBilgileri",
						"label": "kursBilgiListesi",
						"offset": 0,
						"slot": "13",
						"type": "t_mapping(t_address,t_mapping(t_uint256,t_struct(KursBilgi)313_storage))"
					}
				],
				"types": {
					"t_address": {
						"encoding": "inplace",
						"label": "address",
						"numberOfBytes": "20"
					},
					"t_bool": {
						"encoding": "inplace",
						"label": "bool",
						"numberOfBytes": "1"
					},
					"t_enum(OnayDurum)22": {
						"encoding": "inplace",
						"label": "enum BaseContract.OnayDurum",
						"numberOfBytes": "1"
					},
					"t_enum(Unvan)48": {
						"encoding": "inplace",
						"label": "enum BaseContract.Unvan",
						"numberOfBytes": "1"
					},
					"t_mapping(t_address,t_mapping(t_uint256,t_struct(KursBilgi)313_storage))": {
						"encoding": "mapping",
						"key": "t_address",
						"label": "mapping(address => mapping(uint256 => struct KursBilgileri.KursBilgi))",
						"numberOfBytes": "32",
						"value": "t_mapping(t_uint256,t_struct(KursBilgi)313_storage)"
					},
					"t_mapping(t_address,t_struct(Akademisyen)43_storage)": {
						"encoding": "mapping",
						"key": "t_address",
						"label": "mapping(address => struct BaseContract.Akademisyen)",
						"numberOfBytes": "32",
						"value": "t_struct(Akademisyen)43_storage"
					},
					"t_mapping(t_address,t_struct(Firma)83_storage)": {
						"encoding": "mapping",
						"key": "t_address",
						"label": "mapping(address => struct BaseContract.Firma)",
						"numberOfBytes": "32",
						"value": "t_struct(Firma)83_storage"
					},
					"t_mapping(t_address,t_struct(KamuKurumu)90_storage)": {
						"encoding": "mapping",
						"key": "t_address",
						"label": "mapping(address => struct BaseContract.KamuKurumu)",
						"numberOfBytes": "32",
						"value": "t_struct(KamuKurumu)90_storage"
					},
					"t_mapping(t_address,t_struct(Kisi)10_storage)": {
						"encoding": "mapping",
						"key": "t_address",
						"label": "mapping(address => struct BaseContract.Kisi)",
						"numberOfBytes": "32",
						"value": "t_struct(Kisi)10_storage"
					},
					"t_mapping(t_address,t_struct(Kurs)111_storage)": {
						"encoding": "mapping",
						"key": "t_address",
						"label": "mapping(address => struct BaseContract.Kurs)",
						"numberOfBytes": "32",
						"value": "t_struct(Kurs)111_storage"
					},
					"t_mapping(t_address,t_struct(STK)97_storage)": {
						"encoding": "mapping",
						"key": "t_address",
						"label": "mapping(address => struct BaseContract.STK)",
						"numberOfBytes": "32",
						"value": "t_struct(STK)97_storage"
					},
					"t_mapping(t_address,t_struct(SertifikaMerkezi)104_storage)": {
						"encoding": "mapping",
						"key": "t_address",
						"label": "mapping(address => struct BaseContract.SertifikaMerkezi)",
						"numberOfBytes": "32",
						"value": "t_struct(SertifikaMerkezi)104_storage"
					},
					"t_mapping(t_address,t_struct(Universite)29_storage)": {
						"encoding": "mapping",
						"key": "t_address",
						"label": "mapping(address => struct BaseContract.Universite)",
						"numberOfBytes": "32",
						"value": "t_struct(Universite)29_storage"
					},
					"t_mapping(t_uint256,t_struct(KursBilgi)313_storage)": {
						"encoding": "mapping",
						"key": "t_uint256",
						"label": "mapping(uint256 => struct KursBilgileri.KursBilgi)",
						"numberOfBytes": "32",
						"value": "t_struct(KursBilgi)313_storage"
					},
					"t_mapping(t_uint32,t_struct(YabanciDil)116_storage)": {
						"encoding": "mapping",
						"key": "t_uint32",
						"label": "mapping(uint32 => struct BaseContract.YabanciDil)",
						"numberOfBytes": "32",
						"value": "t_struct(YabanciDil)116_storage"
					},
					"t_string_storage": {
						"encoding": "bytes",
						"label": "string",
						"numberOfBytes": "32"
					},
					"t_struct(Akademisyen)43_storage": {
						"encoding": "inplace",
						"label": "struct BaseContract.Akademisyen",
						"members": [
							{
								"astId": 31,
								"contract": "contracts/KursBilgileri.sol:KursBilgileri",
								"label": "durum",
								"offset": 0,
								"slot": "0",
								"type": "t_bool"
							},
							{
								"astId": 33,
								"contract": "contracts/KursBilgileri.sol:KursBilgileri",
								"label": "universite",
								"offset": 1,
								"slot": "0",
								"type": "t_address"
							},
							{
								"astId": 35,
								"contract": "contracts/KursBilgileri.sol:KursBilgileri",
								"label": "bolum",
								"offset": 21,
								"slot": "0",
								"type": "t_uint16"
							},
							{
								"astId": 38,
								"contract": "contracts/KursBilgileri.sol:KursBilgileri",
								"label": "unvan",
								"offset": 23,
								"slot": "0",
								"type": "t_enum(Unvan)48"
							},
							{
								"astId": 40,
								"contract": "contracts/KursBilgileri.sol:KursBilgileri",
								"label": "ad",
								"offset": 0,
								"slot": "1",
								"type": "t_string_storage"
							},
							{
								"astId": 42,
								"contract": "contracts/KursBilgileri.sol:KursBilgileri",
								"label": "soyad",
								"offset": 0,
								"slot": "2",
								"type": "t_string_storage"
							}
						],
						"numberOfBytes": "96"
					},
					"t_struct(Firma)83_storage": {
						"encoding": "inplace",
						"label": "struct BaseContract.Firma",
						"members": [
							{
								"astId": 76,
								"contract": "contracts/KursBilgileri.sol:KursBilgileri",
								"label": "durum",
								"offset": 0,
								"slot": "0",
								"type": "t_bool"
							},
							{
								"astId": 78,
								"contract": "contracts/KursBilgileri.sol:KursBilgileri",
								"label": "ulke",
								"offset": 1,
								"slot": "0",
								"type": "t_uint8"
							},
							{
								"astId": 80,
								"contract": "contracts/KursBilgileri.sol:KursBilgileri",
								"label": "vergiNo",
								"offset": 0,
								"slot": "1",
								"type": "t_uint256"
							},
							{
								"astId": 82,
								"contract": "contracts/KursBilgileri.sol:KursBilgileri",
								"label": "isim",
								"offset": 0,
								"slot": "2",
								"type": "t_string_storage"
							}
						],
						"numberOfBytes": "96"
					},
					"t_struct(KamuKurumu)90_storage": {
						"encoding": "inplace",
						"label": "struct BaseContract.KamuKurumu",
						"members": [
							{
								"astId": 85,
								"contract": "contracts/KursBilgileri.sol:KursBilgileri",
								"label": "durum",
								"offset": 0,
								"slot": "0",
								"type": "t_bool"
							},
							{
								"astId": 87,
								"contract": "contracts/KursBilgileri.sol:KursBilgileri",
								"label": "isim",
								"offset": 0,
								"slot": "1",
								"type": "t_string_storage"
							},
							{
								"astId": 89,
								"contract": "contracts/KursBilgileri.sol:KursBilgileri",
								"label": "ulke",
								"offset": 0,
								"slot": "2",
								"type": "t_uint8"
							}
						],
						"numberOfBytes": "96"
					},
					"t_struct(Kisi)10_storage": {
						"encoding": "inplace",
						"label": "struct BaseContract.Kisi",
						"members": [
							{
								"astId": 9,
								"contract": "contracts/KursBilgileri.sol:KursBilgileri",
								"label": "durum",
								"offset": 0,
								"slot": "0",
								"type": "t_bool"
							}
						],
						"numberOfBytes": "32"
					},
					"t_struct(Kurs)111_storage": {
						"encoding": "inplace",
						"label": "struct BaseContract.Kurs",
						"members": [
							{
								"astId": 106,
								"contract": "contracts/KursBilgileri.sol:KursBilgileri",
								"label": "durum",
								"offset": 0,
								"slot": "0",
								"type": "t_bool"
							},
							{
								"astId": 108,
								"contract": "contracts/KursBilgileri.sol:KursBilgileri",
								"label": "isim",
								"offset": 0,
								"slot": "1",
								"type": "t_string_storage"
							},
							{
								"astId": 110,
								"contract": "contracts/KursBilgileri.sol:KursBilgileri",
								"label": "ulke",
								"offset": 0,
								"slot": "2",
								"type": "t_uint8"
							}
						],
						"numberOfBytes": "96"
					},
					"t_struct(KursBilgi)313_storage": {
						"encoding": "inplace",
						"label": "struct KursBilgileri.KursBilgi",
						"members": [
							{
								"astId": 299,
								"contract": "contracts/KursBilgileri.sol:KursBilgileri",
								"label": "id",
								"offset": 0,
								"slot": "0",
								"type": "t_uint256"
							},
							{
								"astId": 301,
								"contract": "contracts/KursBilgileri.sol:KursBilgileri",
								"label": "talepEdilenKurum",
								"offset": 0,
								"slot": "1",
								"type": "t_address"
							},
							{
								"astId": 303,
								"contract": "contracts/KursBilgileri.sol:KursBilgileri",
								"label": "basTarih",
								"offset": 0,
								"slot": "2",
								"type": "t_uint256"
							},
							{
								"astId": 305,
								"contract": "contracts/KursBilgileri.sol:KursBilgileri",
								"label": "bitTarih",
								"offset": 0,
								"slot": "3",
								"type": "t_uint256"
							},
							{
								"astId": 307,
								"contract": "contracts/KursBilgileri.sol:KursBilgileri",
								"label": "sure",
								"offset": 0,
								"slot": "4",
								"type": "t_uint8"
							},
							{
								"astId": 309,
								"contract": "contracts/KursBilgileri.sol:KursBilgileri",
								"label": "egitimAdi",
								"offset": 0,
								"slot": "5",
								"type": "t_string_storage"
							},
							{
								"astId": 312,
								"contract": "contracts/KursBilgileri.sol:KursBilgileri",
								"label": "onayBilgi",
								"offset": 0,
								"slot": "6",
								"type": "t_struct(Onay)18_storage"
							}
						],
						"numberOfBytes": "256"
					},
					"t_struct(Onay)18_storage": {
						"encoding": "inplace",
						"label": "struct BaseContract.Onay",
						"members": [
							{
								"astId": 12,
								"contract": "contracts/KursBilgileri.sol:KursBilgileri",
								"label": "zaman",
								"offset": 0,
								"slot": "0",
								"type": "t_uint256"
							},
							{
								"astId": 14,
								"contract": "contracts/KursBilgileri.sol:KursBilgileri",
								"label": "adres",
								"offset": 0,
								"slot": "1",
								"type": "t_address"
							},
							{
								"astId": 17,
								"contract": "contracts/KursBilgileri.sol:KursBilgileri",
								"label": "durum",
								"offset": 20,
								"slot": "1",
								"type": "t_enum(OnayDurum)22"
							}
						],
						"numberOfBytes": "64"
					},
					"t_struct(STK)97_storage": {
						"encoding": "inplace",
						"label": "struct BaseContract.STK",
						"members": [
							{
								"astId": 92,
								"contract": "contracts/KursBilgileri.sol:KursBilgileri",
								"label": "durum",
								"offset": 0,
								"slot": "0",
								"type": "t_bool"
							},
							{
								"astId": 94,
								"contract": "contracts/KursBilgileri.sol:KursBilgileri",
								"label": "isim",
								"offset": 0,
								"slot": "1",
								"type": "t_string_storage"
							},
							{
								"astId": 96,
								"contract": "contracts/KursBilgileri.sol:KursBilgileri",
								"label": "ulke",
								"offset": 0,
								"slot": "2",
								"type": "t_uint8"
							}
						],
						"numberOfBytes": "96"
					},
					"t_struct(SertifikaMerkezi)104_storage": {
						"encoding": "inplace",
						"label": "struct BaseContract.SertifikaMerkezi",
						"members": [
							{
								"astId": 99,
								"contract": "contracts/KursBilgileri.sol:KursBilgileri",
								"label": "durum",
								"offset": 0,
								"slot": "0",
								"type": "t_bool"
							},
							{
								"astId": 101,
								"contract": "contracts/KursBilgileri.sol:KursBilgileri",
								"label": "isim",
								"offset": 0,
								"slot": "1",
								"type": "t_string_storage"
							},
							{
								"astId": 103,
								"contract": "contracts/KursBilgileri.sol:KursBilgileri",
								"label": "ulke",
								"offset": 0,
								"slot": "2",
								"type": "t_uint8"
							}
						],
						"numberOfBytes": "96"
					},
					"t_struct(Universite)29_storage": {
						"encoding": "inplace",
						"label": "struct BaseContract.Universite",
						"members": [
							{
								"astId": 24,
								"contract": "contracts/KursBilgileri.sol:KursBilgileri",
								"label": "durum",
								"offset": 0,
								"slot": "0",
								"type": "t_bool"
							},
							{
								"astId": 26,
								"contract": "contracts/KursBilgileri.sol:KursBilgileri",
								"label": "isim",
								"offset": 0,
								"slot": "1",
								"type": "t_string_storage"
							},
							{
								"astId": 28,
								"contract": "contracts/KursBilgileri.sol:KursBilgileri",
								"label": "ulke",
								"offset": 0,
								"slot": "2",
								"type": "t_uint8"
							}
						],
						"numberOfBytes": "96"
					},
					"t_struct(YabanciDil)116_storage": {
						"encoding": "inplace",
						"label": "struct BaseContract.YabanciDil",
						"members": [
							{
								"astId": 113,
								"contract": "contracts/KursBilgileri.sol:KursBilgileri",
								"label": "id",
								"offset": 0,
								"slot": "0",
								"type": "t_uint32"
							},
							{
								"astId": 115,
								"contract": "contracts/KursBilgileri.sol:KursBilgileri",
								"label": "isim",
								"offset": 0,
								"slot": "1",
								"type": "t_string_storage"
							}
						],
						"numberOfBytes": "64"
					},
					"t_uint16": {
						"encoding": "inplace",
						"label": "uint16",
						"numberOfBytes": "2"
					},
					"t_uint256": {
						"encoding": "inplace",
						"label": "uint256",
						"numberOfBytes": "32"
					},
					"t_uint32": {
						"encoding": "inplace",
						"label": "uint32",
						"numberOfBytes": "4"
					},
					"t_uint8": {
						"encoding": "inplace",
						"label": "uint8",
						"numberOfBytes": "1"
					}
				}
			},
			"userdoc": {
				"kind": "user",
				"methods": {},
				"version": 1
			}
		}
	}
}