{
	"contracts/Registration.sol": {
		"Registration": {
			"abi": [
				{
					"inputs": [
						{
							"internalType": "address",
							"name": "_baseContract",
							"type": "address"
						},
						{
							"internalType": "address",
							"name": "_yok",
							"type": "address"
						},
						{
							"internalType": "address",
							"name": "_tobb",
							"type": "address"
						},
						{
							"internalType": "address",
							"name": "_cb",
							"type": "address"
						}
					],
					"stateMutability": "nonpayable",
					"type": "constructor"
				},
				{
					"anonymous": false,
					"inputs": [
						{
							"indexed": false,
							"internalType": "address",
							"name": "_firmaAdres",
							"type": "address"
						},
						{
							"indexed": false,
							"internalType": "string",
							"name": "_isim",
							"type": "string"
						},
						{
							"indexed": false,
							"internalType": "uint256",
							"name": "_vergiNo",
							"type": "uint256"
						},
						{
							"indexed": false,
							"internalType": "uint8",
							"name": "_ulke",
							"type": "uint8"
						}
					],
					"name": "FirmaEkleLog",
					"type": "event"
				},
				{
					"anonymous": false,
					"inputs": [
						{
							"indexed": false,
							"internalType": "address",
							"name": "_kamuKurumuAdres",
							"type": "address"
						},
						{
							"indexed": false,
							"internalType": "string",
							"name": "_isim",
							"type": "string"
						},
						{
							"indexed": false,
							"internalType": "uint8",
							"name": "_ulke",
							"type": "uint8"
						}
					],
					"name": "KamuKurumuEkleLog",
					"type": "event"
				},
				{
					"anonymous": false,
					"inputs": [
						{
							"indexed": false,
							"internalType": "address",
							"name": "_kisiAdres",
							"type": "address"
						}
					],
					"name": "KisiLog",
					"type": "event"
				},
				{
					"anonymous": false,
					"inputs": [
						{
							"indexed": false,
							"internalType": "address",
							"name": "_kursAdres",
							"type": "address"
						},
						{
							"indexed": false,
							"internalType": "string",
							"name": "_isim",
							"type": "string"
						},
						{
							"indexed": false,
							"internalType": "uint8",
							"name": "_ulke",
							"type": "uint8"
						}
					],
					"name": "KursEkleLog",
					"type": "event"
				},
				{
					"anonymous": false,
					"inputs": [
						{
							"indexed": false,
							"internalType": "address",
							"name": "_stkAdres",
							"type": "address"
						},
						{
							"indexed": false,
							"internalType": "string",
							"name": "_isim",
							"type": "string"
						},
						{
							"indexed": false,
							"internalType": "uint8",
							"name": "_ulke",
							"type": "uint8"
						}
					],
					"name": "STKEkleLog",
					"type": "event"
				},
				{
					"anonymous": false,
					"inputs": [
						{
							"indexed": false,
							"internalType": "address",
							"name": "_smAdres",
							"type": "address"
						},
						{
							"indexed": false,
							"internalType": "string",
							"name": "_isim",
							"type": "string"
						},
						{
							"indexed": false,
							"internalType": "uint8",
							"name": "_ulke",
							"type": "uint8"
						}
					],
					"name": "SertifikaMerkeziEkleLog",
					"type": "event"
				},
				{
					"anonymous": false,
					"inputs": [
						{
							"indexed": false,
							"internalType": "address",
							"name": "_universiteAdres",
							"type": "address"
						},
						{
							"indexed": false,
							"internalType": "string",
							"name": "_isim",
							"type": "string"
						},
						{
							"indexed": false,
							"internalType": "uint8",
							"name": "_ulke",
							"type": "uint8"
						}
					],
					"name": "UniversiteKayitLog",
					"type": "event"
				},
				{
					"inputs": [],
					"name": "getYOK",
					"outputs": [],
					"stateMutability": "nonpayable",
					"type": "function"
				},
				{
					"inputs": [
						{
							"internalType": "address",
							"name": "_universiteAdres",
							"type": "address"
						},
						{
							"internalType": "string",
							"name": "_isim",
							"type": "string"
						},
						{
							"internalType": "uint8",
							"name": "_ulke",
							"type": "uint8"
						}
					],
					"name": "kaydetUniversite",
					"outputs": [],
					"stateMutability": "nonpayable",
					"type": "function"
				}
			],
			"devdoc": {
				"kind": "dev",
				"methods": {},
				"version": 1
			},
			"evm": {
				"assembly": "    /* \"contracts/Registration.sol\":102:3868  contract Registration {\r... */\n  mstore(0x40, 0x80)\n    /* \"contracts/Registration.sol\":683:871  constructor (address _baseContract,address _yok, address _tobb, address _cb){\r... */\n  callvalue\n  dup1\n  iszero\n  tag_1\n  jumpi\n  0x00\n  dup1\n  revert\ntag_1:\n  pop\n  mload(0x40)\n  sub(codesize, bytecodeSize)\n  dup1\n  bytecodeSize\n  dup4\n  codecopy\n  dup2\n  dup2\n  add\n  0x40\n  mstore\n  dup2\n  add\n  swap1\n  tag_2\n  swap2\n  swap1\n  tag_3\n  jump\t// in\ntag_2:\n    /* \"contracts/Registration.sol\":795:808  _baseContract */\n  dup4\n    /* \"contracts/Registration.sol\":769:781  baseContract */\n  0x00\n  dup1\n    /* \"contracts/Registration.sol\":769:809  baseContract=BaseContract(_baseContract) */\n  0x0100\n  exp\n  dup2\n  sload\n  dup2\n  0xffffffffffffffffffffffffffffffffffffffff\n  mul\n  not\n  and\n  swap1\n  dup4\n  0xffffffffffffffffffffffffffffffffffffffff\n  and\n  mul\n  or\n  swap1\n  sstore\n  pop\n    /* \"contracts/Registration.sol\":819:831  baseContract */\n  0x00\n  dup1\n  sload\n  swap1\n  0x0100\n  exp\n  swap1\n  div\n  0xffffffffffffffffffffffffffffffffffffffff\n  and\n    /* \"contracts/Registration.sol\":819:845  baseContract.paydasTanimla */\n  0xffffffffffffffffffffffffffffffffffffffff\n  and\n  0x36fd2633\n    /* \"contracts/Registration.sol\":846:850  _yok */\n  dup5\n    /* \"contracts/Registration.sol\":852:857  _tobb */\n  dup5\n    /* \"contracts/Registration.sol\":859:862  _cb */\n  dup5\n    /* \"contracts/Registration.sol\":819:863  baseContract.paydasTanimla(_yok, _tobb, _cb) */\n  mload(0x40)\n  dup5\n  0xffffffff\n  and\n  0xe0\n  shl\n  dup2\n  mstore\n  0x04\n  add\n  tag_6\n  swap4\n  swap3\n  swap2\n  swap1\n  tag_7\n  jump\t// in\ntag_6:\n  0x00\n  mload(0x40)\n  dup1\n  dup4\n  sub\n  dup2\n  0x00\n  dup8\n  dup1\n  extcodesize\n  iszero\n  dup1\n  iszero\n  tag_8\n  jumpi\n  0x00\n  dup1\n  revert\ntag_8:\n  pop\n  gas\n  call\n  iszero\n  dup1\n  iszero\n  tag_10\n  jumpi\n  returndatasize\n  0x00\n  dup1\n  returndatacopy\n  revert(0x00, returndatasize)\ntag_10:\n  pop\n  pop\n  pop\n  pop\n    /* \"contracts/Registration.sol\":683:871  constructor (address _baseContract,address _yok, address _tobb, address _cb){\r... */\n  pop\n  pop\n  pop\n  pop\n    /* \"contracts/Registration.sol\":102:3868  contract Registration {\r... */\n  jump(tag_11)\n    /* \"#utility.yul\":7:150   */\ntag_13:\n    /* \"#utility.yul\":64:69   */\n  0x00\n    /* \"#utility.yul\":95:101   */\n  dup2\n    /* \"#utility.yul\":89:102   */\n  mload\n    /* \"#utility.yul\":80:102   */\n  swap1\n  pop\n    /* \"#utility.yul\":111:144   */\n  tag_15\n    /* \"#utility.yul\":138:143   */\n  dup2\n    /* \"#utility.yul\":111:144   */\n  tag_16\n  jump\t// in\ntag_15:\n    /* \"#utility.yul\":7:150   */\n  swap3\n  swap2\n  pop\n  pop\n  jump\t// out\n    /* \"#utility.yul\":156:976   */\ntag_3:\n    /* \"#utility.yul\":253:259   */\n  0x00\n    /* \"#utility.yul\":261:267   */\n  dup1\n    /* \"#utility.yul\":269:275   */\n  0x00\n    /* \"#utility.yul\":277:283   */\n  dup1\n    /* \"#utility.yul\":326:329   */\n  0x80\n    /* \"#utility.yul\":314:323   */\n  dup6\n    /* \"#utility.yul\":305:312   */\n  dup8\n    /* \"#utility.yul\":301:324   */\n  sub\n    /* \"#utility.yul\":297:330   */\n  slt\n    /* \"#utility.yul\":294:414   */\n  iszero\n  tag_18\n  jumpi\n    /* \"#utility.yul\":333:412   */\n  tag_19\n  tag_20\n  jump\t// in\ntag_19:\n    /* \"#utility.yul\":294:414   */\ntag_18:\n    /* \"#utility.yul\":453:454   */\n  0x00\n    /* \"#utility.yul\":478:542   */\n  tag_21\n    /* \"#utility.yul\":534:541   */\n  dup8\n    /* \"#utility.yul\":525:531   */\n  dup3\n    /* \"#utility.yul\":514:523   */\n  dup9\n    /* \"#utility.yul\":510:532   */\n  add\n    /* \"#utility.yul\":478:542   */\n  tag_13\n  jump\t// in\ntag_21:\n    /* \"#utility.yul\":468:542   */\n  swap5\n  pop\n    /* \"#utility.yul\":424:552   */\n  pop\n    /* \"#utility.yul\":591:593   */\n  0x20\n    /* \"#utility.yul\":617:681   */\n  tag_22\n    /* \"#utility.yul\":673:680   */\n  dup8\n    /* \"#utility.yul\":664:670   */\n  dup3\n    /* \"#utility.yul\":653:662   */\n  dup9\n    /* \"#utility.yul\":649:671   */\n  add\n    /* \"#utility.yul\":617:681   */\n  tag_13\n  jump\t// in\ntag_22:\n    /* \"#utility.yul\":607:681   */\n  swap4\n  pop\n    /* \"#utility.yul\":562:691   */\n  pop\n    /* \"#utility.yul\":730:732   */\n  0x40\n    /* \"#utility.yul\":756:820   */\n  tag_23\n    /* \"#utility.yul\":812:819   */\n  dup8\n    /* \"#utility.yul\":803:809   */\n  dup3\n    /* \"#utility.yul\":792:801   */\n  dup9\n    /* \"#utility.yul\":788:810   */\n  add\n    /* \"#utility.yul\":756:820   */\n  tag_13\n  jump\t// in\ntag_23:\n    /* \"#utility.yul\":746:820   */\n  swap3\n  pop\n    /* \"#utility.yul\":701:830   */\n  pop\n    /* \"#utility.yul\":869:871   */\n  0x60\n    /* \"#utility.yul\":895:959   */\n  tag_24\n    /* \"#utility.yul\":951:958   */\n  dup8\n    /* \"#utility.yul\":942:948   */\n  dup3\n    /* \"#utility.yul\":931:940   */\n  dup9\n    /* \"#utility.yul\":927:949   */\n  add\n    /* \"#utility.yul\":895:959   */\n  tag_13\n  jump\t// in\ntag_24:\n    /* \"#utility.yul\":885:959   */\n  swap2\n  pop\n    /* \"#utility.yul\":840:969   */\n  pop\n    /* \"#utility.yul\":156:976   */\n  swap3\n  swap6\n  swap2\n  swap5\n  pop\n  swap3\n  pop\n  jump\t// out\n    /* \"#utility.yul\":982:1100   */\ntag_25:\n    /* \"#utility.yul\":1069:1093   */\n  tag_27\n    /* \"#utility.yul\":1087:1092   */\n  dup2\n    /* \"#utility.yul\":1069:1093   */\n  tag_28\n  jump\t// in\ntag_27:\n    /* \"#utility.yul\":1064:1067   */\n  dup3\n    /* \"#utility.yul\":1057:1094   */\n  mstore\n    /* \"#utility.yul\":982:1100   */\n  pop\n  pop\n  jump\t// out\n    /* \"#utility.yul\":1106:1548   */\ntag_7:\n    /* \"#utility.yul\":1255:1259   */\n  0x00\n    /* \"#utility.yul\":1293:1295   */\n  0x60\n    /* \"#utility.yul\":1282:1291   */\n  dup3\n    /* \"#utility.yul\":1278:1296   */\n  add\n    /* \"#utility.yul\":1270:1296   */\n  swap1\n  pop\n    /* \"#utility.yul\":1306:1377   */\n  tag_30\n    /* \"#utility.yul\":1374:1375   */\n  0x00\n    /* \"#utility.yul\":1363:1372   */\n  dup4\n    /* \"#utility.yul\":1359:1376   */\n  add\n    /* \"#utility.yul\":1350:1356   */\n  dup7\n    /* \"#utility.yul\":1306:1377   */\n  tag_25\n  jump\t// in\ntag_30:\n    /* \"#utility.yul\":1387:1459   */\n  tag_31\n    /* \"#utility.yul\":1455:1457   */\n  0x20\n    /* \"#utility.yul\":1444:1453   */\n  dup4\n    /* \"#utility.yul\":1440:1458   */\n  add\n    /* \"#utility.yul\":1431:1437   */\n  dup6\n    /* \"#utility.yul\":1387:1459   */\n  tag_25\n  jump\t// in\ntag_31:\n    /* \"#utility.yul\":1469:1541   */\n  tag_32\n    /* \"#utility.yul\":1537:1539   */\n  0x40\n    /* \"#utility.yul\":1526:1535   */\n  dup4\n    /* \"#utility.yul\":1522:1540   */\n  add\n    /* \"#utility.yul\":1513:1519   */\n  dup5\n    /* \"#utility.yul\":1469:1541   */\n  tag_25\n  jump\t// in\ntag_32:\n    /* \"#utility.yul\":1106:1548   */\n  swap5\n  swap4\n  pop\n  pop\n  pop\n  pop\n  jump\t// out\n    /* \"#utility.yul\":1635:1731   */\ntag_28:\n    /* \"#utility.yul\":1672:1679   */\n  0x00\n    /* \"#utility.yul\":1701:1725   */\n  tag_36\n    /* \"#utility.yul\":1719:1724   */\n  dup3\n    /* \"#utility.yul\":1701:1725   */\n  tag_37\n  jump\t// in\ntag_36:\n    /* \"#utility.yul\":1690:1725   */\n  swap1\n  pop\n    /* \"#utility.yul\":1635:1731   */\n  swap2\n  swap1\n  pop\n  jump\t// out\n    /* \"#utility.yul\":1737:1863   */\ntag_37:\n    /* \"#utility.yul\":1774:1781   */\n  0x00\n    /* \"#utility.yul\":1814:1856   */\n  0xffffffffffffffffffffffffffffffffffffffff\n    /* \"#utility.yul\":1807:1812   */\n  dup3\n    /* \"#utility.yul\":1803:1857   */\n  and\n    /* \"#utility.yul\":1792:1857   */\n  swap1\n  pop\n    /* \"#utility.yul\":1737:1863   */\n  swap2\n  swap1\n  pop\n  jump\t// out\n    /* \"#utility.yul\":1992:2109   */\ntag_20:\n    /* \"#utility.yul\":2101:2102   */\n  0x00\n    /* \"#utility.yul\":2098:2099   */\n  dup1\n    /* \"#utility.yul\":2091:2103   */\n  revert\n    /* \"#utility.yul\":2115:2237   */\ntag_16:\n    /* \"#utility.yul\":2188:2212   */\n  tag_43\n    /* \"#utility.yul\":2206:2211   */\n  dup2\n    /* \"#utility.yul\":2188:2212   */\n  tag_28\n  jump\t// in\ntag_43:\n    /* \"#utility.yul\":2181:2186   */\n  dup2\n    /* \"#utility.yul\":2178:2213   */\n  eq\n    /* \"#utility.yul\":2168:2231   */\n  tag_44\n  jumpi\n    /* \"#utility.yul\":2227:2228   */\n  0x00\n    /* \"#utility.yul\":2224:2225   */\n  dup1\n    /* \"#utility.yul\":2217:2229   */\n  revert\n    /* \"#utility.yul\":2168:2231   */\ntag_44:\n    /* \"#utility.yul\":2115:2237   */\n  pop\n  jump\t// out\n    /* \"contracts/Registration.sol\":102:3868  contract Registration {\r... */\ntag_11:\n  dataSize(sub_0)\n  dup1\n  dataOffset(sub_0)\n  0x00\n  codecopy\n  0x00\n  return\nstop\n\nsub_0: assembly {\n        /* \"contracts/Registration.sol\":102:3868  contract Registration {\r... */\n      mstore(0x40, 0x80)\n      callvalue\n      dup1\n      iszero\n      tag_1\n      jumpi\n      0x00\n      dup1\n      revert\n    tag_1:\n      pop\n      jumpi(tag_2, lt(calldatasize, 0x04))\n      shr(0xe0, calldataload(0x00))\n      dup1\n      0x03c3abc4\n      eq\n      tag_3\n      jumpi\n      dup1\n      0x13cb22c6\n      eq\n      tag_4\n      jumpi\n    tag_2:\n      0x00\n      dup1\n      revert\n        /* \"contracts/Registration.sol\":1121:1184  function getYOK()  public {\r... */\n    tag_3:\n      tag_5\n      tag_6\n      jump\t// in\n    tag_5:\n      stop\n        /* \"contracts/Registration.sol\":880:1112  function kaydetUniversite(address _universiteAdres,string memory _isim, uint8 _ulke)  public {\r... */\n    tag_4:\n      tag_7\n      0x04\n      dup1\n      calldatasize\n      sub\n      dup2\n      add\n      swap1\n      tag_8\n      swap2\n      swap1\n      tag_9\n      jump\t// in\n    tag_8:\n      tag_10\n      jump\t// in\n    tag_7:\n      stop\n        /* \"contracts/Registration.sol\":1121:1184  function getYOK()  public {\r... */\n    tag_6:\n        /* \"contracts/Registration.sol\":1155:1167  baseContract */\n      0x00\n      dup1\n      sload\n      swap1\n      0x0100\n      exp\n      swap1\n      div\n      0xffffffffffffffffffffffffffffffffffffffff\n      and\n        /* \"contracts/Registration.sol\":1155:1174  baseContract.getYOK */\n      0xffffffffffffffffffffffffffffffffffffffff\n      and\n      0x03c3abc4\n        /* \"contracts/Registration.sol\":1155:1176  baseContract.getYOK() */\n      mload(0x40)\n      dup2\n      0xffffffff\n      and\n      0xe0\n      shl\n      dup2\n      mstore\n      0x04\n      add\n      0x20\n      mload(0x40)\n      dup1\n      dup4\n      sub\n      dup2\n      dup7\n      dup1\n      extcodesize\n      iszero\n      dup1\n      iszero\n      tag_12\n      jumpi\n      0x00\n      dup1\n      revert\n    tag_12:\n      pop\n      gas\n      staticcall\n      iszero\n      dup1\n      iszero\n      tag_14\n      jumpi\n      returndatasize\n      0x00\n      dup1\n      returndatacopy\n      revert(0x00, returndatasize)\n    tag_14:\n      pop\n      pop\n      pop\n      pop\n      mload(0x40)\n      returndatasize\n      not(0x1f)\n      0x1f\n      dup3\n      add\n      and\n      dup3\n      add\n      dup1\n      0x40\n      mstore\n      pop\n      dup2\n      add\n      swap1\n      tag_15\n      swap2\n      swap1\n      tag_16\n      jump\t// in\n    tag_15:\n      pop\n        /* \"contracts/Registration.sol\":1121:1184  function getYOK()  public {\r... */\n      jump\t// out\n        /* \"contracts/Registration.sol\":880:1112  function kaydetUniversite(address _universiteAdres,string memory _isim, uint8 _ulke)  public {\r... */\n    tag_10:\n        /* \"contracts/Registration.sol\":981:993  baseContract */\n      0x00\n      dup1\n      sload\n      swap1\n      0x0100\n      exp\n      swap1\n      div\n      0xffffffffffffffffffffffffffffffffffffffff\n      and\n        /* \"contracts/Registration.sol\":981:1008  baseContract.ekleUniversite */\n      0xffffffffffffffffffffffffffffffffffffffff\n      and\n      0x1d54ab\n        /* \"contracts/Registration.sol\":1009:1025  _universiteAdres */\n      dup5\n        /* \"contracts/Registration.sol\":1027:1032  _isim */\n      dup5\n        /* \"contracts/Registration.sol\":1034:1039  _ulke */\n      dup5\n        /* \"contracts/Registration.sol\":981:1040  baseContract.ekleUniversite(_universiteAdres, _isim, _ulke) */\n      mload(0x40)\n      dup5\n      0xffffffff\n      and\n      0xe0\n      shl\n      dup2\n      mstore\n      0x04\n      add\n      tag_18\n      swap4\n      swap3\n      swap2\n      swap1\n      tag_19\n      jump\t// in\n    tag_18:\n      0x00\n      mload(0x40)\n      dup1\n      dup4\n      sub\n      dup2\n      0x00\n      dup8\n      dup1\n      extcodesize\n      iszero\n      dup1\n      iszero\n      tag_20\n      jumpi\n      0x00\n      dup1\n      revert\n    tag_20:\n      pop\n      gas\n      call\n      iszero\n      dup1\n      iszero\n      tag_22\n      jumpi\n      returndatasize\n      0x00\n      dup1\n      returndatacopy\n      revert(0x00, returndatasize)\n    tag_22:\n      pop\n      pop\n      pop\n      pop\n        /* \"contracts/Registration.sol\":1053:1104  UniversiteKayitLog( _universiteAdres, _isim, _ulke) */\n      0x750ae9c195d9b95b8c17bf0fa25801932d5a28c4871f4571af70581bc15f5bfe\n        /* \"contracts/Registration.sol\":1073:1089  _universiteAdres */\n      dup4\n        /* \"contracts/Registration.sol\":1091:1096  _isim */\n      dup4\n        /* \"contracts/Registration.sol\":1098:1103  _ulke */\n      dup4\n        /* \"contracts/Registration.sol\":1053:1104  UniversiteKayitLog( _universiteAdres, _isim, _ulke) */\n      mload(0x40)\n      tag_23\n      swap4\n      swap3\n      swap2\n      swap1\n      tag_19\n      jump\t// in\n    tag_23:\n      mload(0x40)\n      dup1\n      swap2\n      sub\n      swap1\n      log1\n        /* \"contracts/Registration.sol\":880:1112  function kaydetUniversite(address _universiteAdres,string memory _isim, uint8 _ulke)  public {\r... */\n      pop\n      pop\n      pop\n      jump\t// out\n        /* \"#utility.yul\":7:419   */\n    tag_25:\n        /* \"#utility.yul\":85:90   */\n      0x00\n        /* \"#utility.yul\":110:176   */\n      tag_27\n        /* \"#utility.yul\":126:175   */\n      tag_28\n        /* \"#utility.yul\":168:174   */\n      dup5\n        /* \"#utility.yul\":126:175   */\n      tag_29\n      jump\t// in\n    tag_28:\n        /* \"#utility.yul\":110:176   */\n      tag_30\n      jump\t// in\n    tag_27:\n        /* \"#utility.yul\":101:176   */\n      swap1\n      pop\n        /* \"#utility.yul\":199:205   */\n      dup3\n        /* \"#utility.yul\":192:197   */\n      dup2\n        /* \"#utility.yul\":185:206   */\n      mstore\n        /* \"#utility.yul\":237:241   */\n      0x20\n        /* \"#utility.yul\":230:235   */\n      dup2\n        /* \"#utility.yul\":226:242   */\n      add\n        /* \"#utility.yul\":275:278   */\n      dup5\n        /* \"#utility.yul\":266:272   */\n      dup5\n        /* \"#utility.yul\":261:264   */\n      dup5\n        /* \"#utility.yul\":257:273   */\n      add\n        /* \"#utility.yul\":254:279   */\n      gt\n        /* \"#utility.yul\":251:363   */\n      iszero\n      tag_31\n      jumpi\n        /* \"#utility.yul\":282:361   */\n      tag_32\n      tag_33\n      jump\t// in\n    tag_32:\n        /* \"#utility.yul\":251:363   */\n    tag_31:\n        /* \"#utility.yul\":372:413   */\n      tag_34\n        /* \"#utility.yul\":406:412   */\n      dup5\n        /* \"#utility.yul\":401:404   */\n      dup3\n        /* \"#utility.yul\":396:399   */\n      dup6\n        /* \"#utility.yul\":372:413   */\n      tag_35\n      jump\t// in\n    tag_34:\n        /* \"#utility.yul\":91:419   */\n      pop\n        /* \"#utility.yul\":7:419   */\n      swap4\n      swap3\n      pop\n      pop\n      pop\n      jump\t// out\n        /* \"#utility.yul\":425:564   */\n    tag_36:\n        /* \"#utility.yul\":471:476   */\n      0x00\n        /* \"#utility.yul\":509:515   */\n      dup2\n        /* \"#utility.yul\":496:516   */\n      calldataload\n        /* \"#utility.yul\":487:516   */\n      swap1\n      pop\n        /* \"#utility.yul\":525:558   */\n      tag_38\n        /* \"#utility.yul\":552:557   */\n      dup2\n        /* \"#utility.yul\":525:558   */\n      tag_39\n      jump\t// in\n    tag_38:\n        /* \"#utility.yul\":425:564   */\n      swap3\n      swap2\n      pop\n      pop\n      jump\t// out\n        /* \"#utility.yul\":570:713   */\n    tag_40:\n        /* \"#utility.yul\":627:632   */\n      0x00\n        /* \"#utility.yul\":658:664   */\n      dup2\n        /* \"#utility.yul\":652:665   */\n      mload\n        /* \"#utility.yul\":643:665   */\n      swap1\n      pop\n        /* \"#utility.yul\":674:707   */\n      tag_42\n        /* \"#utility.yul\":701:706   */\n      dup2\n        /* \"#utility.yul\":674:707   */\n      tag_39\n      jump\t// in\n    tag_42:\n        /* \"#utility.yul\":570:713   */\n      swap3\n      swap2\n      pop\n      pop\n      jump\t// out\n        /* \"#utility.yul\":733:1073   */\n    tag_43:\n        /* \"#utility.yul\":789:794   */\n      0x00\n        /* \"#utility.yul\":838:841   */\n      dup3\n        /* \"#utility.yul\":831:835   */\n      0x1f\n        /* \"#utility.yul\":823:829   */\n      dup4\n        /* \"#utility.yul\":819:836   */\n      add\n        /* \"#utility.yul\":815:842   */\n      slt\n        /* \"#utility.yul\":805:927   */\n      tag_45\n      jumpi\n        /* \"#utility.yul\":846:925   */\n      tag_46\n      tag_47\n      jump\t// in\n    tag_46:\n        /* \"#utility.yul\":805:927   */\n    tag_45:\n        /* \"#utility.yul\":963:969   */\n      dup2\n        /* \"#utility.yul\":950:970   */\n      calldataload\n        /* \"#utility.yul\":988:1067   */\n      tag_48\n        /* \"#utility.yul\":1063:1066   */\n      dup5\n        /* \"#utility.yul\":1055:1061   */\n      dup3\n        /* \"#utility.yul\":1048:1052   */\n      0x20\n        /* \"#utility.yul\":1040:1046   */\n      dup7\n        /* \"#utility.yul\":1036:1053   */\n      add\n        /* \"#utility.yul\":988:1067   */\n      tag_25\n      jump\t// in\n    tag_48:\n        /* \"#utility.yul\":979:1067   */\n      swap2\n      pop\n        /* \"#utility.yul\":795:1073   */\n      pop\n        /* \"#utility.yul\":733:1073   */\n      swap3\n      swap2\n      pop\n      pop\n      jump\t// out\n        /* \"#utility.yul\":1079:1214   */\n    tag_49:\n        /* \"#utility.yul\":1123:1128   */\n      0x00\n        /* \"#utility.yul\":1161:1167   */\n      dup2\n        /* \"#utility.yul\":1148:1168   */\n      calldataload\n        /* \"#utility.yul\":1139:1168   */\n      swap1\n      pop\n        /* \"#utility.yul\":1177:1208   */\n      tag_51\n        /* \"#utility.yul\":1202:1207   */\n      dup2\n        /* \"#utility.yul\":1177:1208   */\n      tag_52\n      jump\t// in\n    tag_51:\n        /* \"#utility.yul\":1079:1214   */\n      swap3\n      swap2\n      pop\n      pop\n      jump\t// out\n        /* \"#utility.yul\":1220:1571   */\n    tag_16:\n        /* \"#utility.yul\":1290:1296   */\n      0x00\n        /* \"#utility.yul\":1339:1341   */\n      0x20\n        /* \"#utility.yul\":1327:1336   */\n      dup3\n        /* \"#utility.yul\":1318:1325   */\n      dup5\n        /* \"#utility.yul\":1314:1337   */\n      sub\n        /* \"#utility.yul\":1310:1342   */\n      slt\n        /* \"#utility.yul\":1307:1426   */\n      iszero\n      tag_54\n      jumpi\n        /* \"#utility.yul\":1345:1424   */\n      tag_55\n      tag_56\n      jump\t// in\n    tag_55:\n        /* \"#utility.yul\":1307:1426   */\n    tag_54:\n        /* \"#utility.yul\":1465:1466   */\n      0x00\n        /* \"#utility.yul\":1490:1554   */\n      tag_57\n        /* \"#utility.yul\":1546:1553   */\n      dup5\n        /* \"#utility.yul\":1537:1543   */\n      dup3\n        /* \"#utility.yul\":1526:1535   */\n      dup6\n        /* \"#utility.yul\":1522:1544   */\n      add\n        /* \"#utility.yul\":1490:1554   */\n      tag_40\n      jump\t// in\n    tag_57:\n        /* \"#utility.yul\":1480:1554   */\n      swap2\n      pop\n        /* \"#utility.yul\":1436:1564   */\n      pop\n        /* \"#utility.yul\":1220:1571   */\n      swap3\n      swap2\n      pop\n      pop\n      jump\t// out\n        /* \"#utility.yul\":1577:2372   */\n    tag_9:\n        /* \"#utility.yul\":1662:1668   */\n      0x00\n        /* \"#utility.yul\":1670:1676   */\n      dup1\n        /* \"#utility.yul\":1678:1684   */\n      0x00\n        /* \"#utility.yul\":1727:1729   */\n      0x60\n        /* \"#utility.yul\":1715:1724   */\n      dup5\n        /* \"#utility.yul\":1706:1713   */\n      dup7\n        /* \"#utility.yul\":1702:1725   */\n      sub\n        /* \"#utility.yul\":1698:1730   */\n      slt\n        /* \"#utility.yul\":1695:1814   */\n      iszero\n      tag_59\n      jumpi\n        /* \"#utility.yul\":1733:1812   */\n      tag_60\n      tag_56\n      jump\t// in\n    tag_60:\n        /* \"#utility.yul\":1695:1814   */\n    tag_59:\n        /* \"#utility.yul\":1853:1854   */\n      0x00\n        /* \"#utility.yul\":1878:1931   */\n      tag_61\n        /* \"#utility.yul\":1923:1930   */\n      dup7\n        /* \"#utility.yul\":1914:1920   */\n      dup3\n        /* \"#utility.yul\":1903:1912   */\n      dup8\n        /* \"#utility.yul\":1899:1921   */\n      add\n        /* \"#utility.yul\":1878:1931   */\n      tag_36\n      jump\t// in\n    tag_61:\n        /* \"#utility.yul\":1868:1931   */\n      swap4\n      pop\n        /* \"#utility.yul\":1824:1941   */\n      pop\n        /* \"#utility.yul\":2008:2010   */\n      0x20\n        /* \"#utility.yul\":1997:2006   */\n      dup5\n        /* \"#utility.yul\":1993:2011   */\n      add\n        /* \"#utility.yul\":1980:2012   */\n      calldataload\n        /* \"#utility.yul\":2039:2057   */\n      0xffffffffffffffff\n        /* \"#utility.yul\":2031:2037   */\n      dup2\n        /* \"#utility.yul\":2028:2058   */\n      gt\n        /* \"#utility.yul\":2025:2142   */\n      iszero\n      tag_62\n      jumpi\n        /* \"#utility.yul\":2061:2140   */\n      tag_63\n      tag_64\n      jump\t// in\n    tag_63:\n        /* \"#utility.yul\":2025:2142   */\n    tag_62:\n        /* \"#utility.yul\":2166:2229   */\n      tag_65\n        /* \"#utility.yul\":2221:2228   */\n      dup7\n        /* \"#utility.yul\":2212:2218   */\n      dup3\n        /* \"#utility.yul\":2201:2210   */\n      dup8\n        /* \"#utility.yul\":2197:2219   */\n      add\n        /* \"#utility.yul\":2166:2229   */\n      tag_43\n      jump\t// in\n    tag_65:\n        /* \"#utility.yul\":2156:2229   */\n      swap3\n      pop\n        /* \"#utility.yul\":1951:2239   */\n      pop\n        /* \"#utility.yul\":2278:2280   */\n      0x40\n        /* \"#utility.yul\":2304:2355   */\n      tag_66\n        /* \"#utility.yul\":2347:2354   */\n      dup7\n        /* \"#utility.yul\":2338:2344   */\n      dup3\n        /* \"#utility.yul\":2327:2336   */\n      dup8\n        /* \"#utility.yul\":2323:2345   */\n      add\n        /* \"#utility.yul\":2304:2355   */\n      tag_49\n      jump\t// in\n    tag_66:\n        /* \"#utility.yul\":2294:2355   */\n      swap2\n      pop\n        /* \"#utility.yul\":2249:2365   */\n      pop\n        /* \"#utility.yul\":1577:2372   */\n      swap3\n      pop\n      swap3\n      pop\n      swap3\n      jump\t// out\n        /* \"#utility.yul\":2378:2496   */\n    tag_67:\n        /* \"#utility.yul\":2465:2489   */\n      tag_69\n        /* \"#utility.yul\":2483:2488   */\n      dup2\n        /* \"#utility.yul\":2465:2489   */\n      tag_70\n      jump\t// in\n    tag_69:\n        /* \"#utility.yul\":2460:2463   */\n      dup3\n        /* \"#utility.yul\":2453:2490   */\n      mstore\n        /* \"#utility.yul\":2378:2496   */\n      pop\n      pop\n      jump\t// out\n        /* \"#utility.yul\":2502:2866   */\n    tag_71:\n        /* \"#utility.yul\":2590:2593   */\n      0x00\n        /* \"#utility.yul\":2618:2657   */\n      tag_73\n        /* \"#utility.yul\":2651:2656   */\n      dup3\n        /* \"#utility.yul\":2618:2657   */\n      tag_74\n      jump\t// in\n    tag_73:\n        /* \"#utility.yul\":2673:2744   */\n      tag_75\n        /* \"#utility.yul\":2737:2743   */\n      dup2\n        /* \"#utility.yul\":2732:2735   */\n      dup6\n        /* \"#utility.yul\":2673:2744   */\n      tag_76\n      jump\t// in\n    tag_75:\n        /* \"#utility.yul\":2666:2744   */\n      swap4\n      pop\n        /* \"#utility.yul\":2753:2805   */\n      tag_77\n        /* \"#utility.yul\":2798:2804   */\n      dup2\n        /* \"#utility.yul\":2793:2796   */\n      dup6\n        /* \"#utility.yul\":2786:2790   */\n      0x20\n        /* \"#utility.yul\":2779:2784   */\n      dup7\n        /* \"#utility.yul\":2775:2791   */\n      add\n        /* \"#utility.yul\":2753:2805   */\n      tag_78\n      jump\t// in\n    tag_77:\n        /* \"#utility.yul\":2830:2859   */\n      tag_79\n        /* \"#utility.yul\":2852:2858   */\n      dup2\n        /* \"#utility.yul\":2830:2859   */\n      tag_80\n      jump\t// in\n    tag_79:\n        /* \"#utility.yul\":2825:2828   */\n      dup5\n        /* \"#utility.yul\":2821:2860   */\n      add\n        /* \"#utility.yul\":2814:2860   */\n      swap2\n      pop\n        /* \"#utility.yul\":2594:2866   */\n      pop\n        /* \"#utility.yul\":2502:2866   */\n      swap3\n      swap2\n      pop\n      pop\n      jump\t// out\n        /* \"#utility.yul\":2872:2984   */\n    tag_81:\n        /* \"#utility.yul\":2955:2977   */\n      tag_83\n        /* \"#utility.yul\":2971:2976   */\n      dup2\n        /* \"#utility.yul\":2955:2977   */\n      tag_84\n      jump\t// in\n    tag_83:\n        /* \"#utility.yul\":2950:2953   */\n      dup3\n        /* \"#utility.yul\":2943:2978   */\n      mstore\n        /* \"#utility.yul\":2872:2984   */\n      pop\n      pop\n      jump\t// out\n        /* \"#utility.yul\":2990:3515   */\n    tag_19:\n        /* \"#utility.yul\":3155:3159   */\n      0x00\n        /* \"#utility.yul\":3193:3195   */\n      0x60\n        /* \"#utility.yul\":3182:3191   */\n      dup3\n        /* \"#utility.yul\":3178:3196   */\n      add\n        /* \"#utility.yul\":3170:3196   */\n      swap1\n      pop\n        /* \"#utility.yul\":3206:3277   */\n      tag_86\n        /* \"#utility.yul\":3274:3275   */\n      0x00\n        /* \"#utility.yul\":3263:3272   */\n      dup4\n        /* \"#utility.yul\":3259:3276   */\n      add\n        /* \"#utility.yul\":3250:3256   */\n      dup7\n        /* \"#utility.yul\":3206:3277   */\n      tag_67\n      jump\t// in\n    tag_86:\n        /* \"#utility.yul\":3324:3333   */\n      dup2\n        /* \"#utility.yul\":3318:3322   */\n      dup2\n        /* \"#utility.yul\":3314:3334   */\n      sub\n        /* \"#utility.yul\":3309:3311   */\n      0x20\n        /* \"#utility.yul\":3298:3307   */\n      dup4\n        /* \"#utility.yul\":3294:3312   */\n      add\n        /* \"#utility.yul\":3287:3335   */\n      mstore\n        /* \"#utility.yul\":3352:3430   */\n      tag_87\n        /* \"#utility.yul\":3425:3429   */\n      dup2\n        /* \"#utility.yul\":3416:3422   */\n      dup6\n        /* \"#utility.yul\":3352:3430   */\n      tag_71\n      jump\t// in\n    tag_87:\n        /* \"#utility.yul\":3344:3430   */\n      swap1\n      pop\n        /* \"#utility.yul\":3440:3508   */\n      tag_88\n        /* \"#utility.yul\":3504:3506   */\n      0x40\n        /* \"#utility.yul\":3493:3502   */\n      dup4\n        /* \"#utility.yul\":3489:3507   */\n      add\n        /* \"#utility.yul\":3480:3486   */\n      dup5\n        /* \"#utility.yul\":3440:3508   */\n      tag_81\n      jump\t// in\n    tag_88:\n        /* \"#utility.yul\":2990:3515   */\n      swap5\n      swap4\n      pop\n      pop\n      pop\n      pop\n      jump\t// out\n        /* \"#utility.yul\":3521:3650   */\n    tag_30:\n        /* \"#utility.yul\":3555:3561   */\n      0x00\n        /* \"#utility.yul\":3582:3602   */\n      tag_90\n      tag_91\n      jump\t// in\n    tag_90:\n        /* \"#utility.yul\":3572:3602   */\n      swap1\n      pop\n        /* \"#utility.yul\":3611:3644   */\n      tag_92\n        /* \"#utility.yul\":3639:3643   */\n      dup3\n        /* \"#utility.yul\":3631:3637   */\n      dup3\n        /* \"#utility.yul\":3611:3644   */\n      tag_93\n      jump\t// in\n    tag_92:\n        /* \"#utility.yul\":3521:3650   */\n      swap2\n      swap1\n      pop\n      jump\t// out\n        /* \"#utility.yul\":3656:3731   */\n    tag_91:\n        /* \"#utility.yul\":3689:3695   */\n      0x00\n        /* \"#utility.yul\":3722:3724   */\n      0x40\n        /* \"#utility.yul\":3716:3725   */\n      mload\n        /* \"#utility.yul\":3706:3725   */\n      swap1\n      pop\n        /* \"#utility.yul\":3656:3731   */\n      swap1\n      jump\t// out\n        /* \"#utility.yul\":3737:4045   */\n    tag_29:\n        /* \"#utility.yul\":3799:3803   */\n      0x00\n        /* \"#utility.yul\":3889:3907   */\n      0xffffffffffffffff\n        /* \"#utility.yul\":3881:3887   */\n      dup3\n        /* \"#utility.yul\":3878:3908   */\n      gt\n        /* \"#utility.yul\":3875:3931   */\n      iszero\n      tag_96\n      jumpi\n        /* \"#utility.yul\":3911:3929   */\n      tag_97\n      tag_98\n      jump\t// in\n    tag_97:\n        /* \"#utility.yul\":3875:3931   */\n    tag_96:\n        /* \"#utility.yul\":3949:3978   */\n      tag_99\n        /* \"#utility.yul\":3971:3977   */\n      dup3\n        /* \"#utility.yul\":3949:3978   */\n      tag_80\n      jump\t// in\n    tag_99:\n        /* \"#utility.yul\":3941:3978   */\n      swap1\n      pop\n        /* \"#utility.yul\":4033:4037   */\n      0x20\n        /* \"#utility.yul\":4027:4031   */\n      dup2\n        /* \"#utility.yul\":4023:4038   */\n      add\n        /* \"#utility.yul\":4015:4038   */\n      swap1\n      pop\n        /* \"#utility.yul\":3737:4045   */\n      swap2\n      swap1\n      pop\n      jump\t// out\n        /* \"#utility.yul\":4051:4150   */\n    tag_74:\n        /* \"#utility.yul\":4103:4109   */\n      0x00\n        /* \"#utility.yul\":4137:4142   */\n      dup2\n        /* \"#utility.yul\":4131:4143   */\n      mload\n        /* \"#utility.yul\":4121:4143   */\n      swap1\n      pop\n        /* \"#utility.yul\":4051:4150   */\n      swap2\n      swap1\n      pop\n      jump\t// out\n        /* \"#utility.yul\":4156:4325   */\n    tag_76:\n        /* \"#utility.yul\":4240:4251   */\n      0x00\n        /* \"#utility.yul\":4274:4280   */\n      dup3\n        /* \"#utility.yul\":4269:4272   */\n      dup3\n        /* \"#utility.yul\":4262:4281   */\n      mstore\n        /* \"#utility.yul\":4314:4318   */\n      0x20\n        /* \"#utility.yul\":4309:4312   */\n      dup3\n        /* \"#utility.yul\":4305:4319   */\n      add\n        /* \"#utility.yul\":4290:4319   */\n      swap1\n      pop\n        /* \"#utility.yul\":4156:4325   */\n      swap3\n      swap2\n      pop\n      pop\n      jump\t// out\n        /* \"#utility.yul\":4331:4427   */\n    tag_70:\n        /* \"#utility.yul\":4368:4375   */\n      0x00\n        /* \"#utility.yul\":4397:4421   */\n      tag_103\n        /* \"#utility.yul\":4415:4420   */\n      dup3\n        /* \"#utility.yul\":4397:4421   */\n      tag_104\n      jump\t// in\n    tag_103:\n        /* \"#utility.yul\":4386:4421   */\n      swap1\n      pop\n        /* \"#utility.yul\":4331:4427   */\n      swap2\n      swap1\n      pop\n      jump\t// out\n        /* \"#utility.yul\":4433:4559   */\n    tag_104:\n        /* \"#utility.yul\":4470:4477   */\n      0x00\n        /* \"#utility.yul\":4510:4552   */\n      0xffffffffffffffffffffffffffffffffffffffff\n        /* \"#utility.yul\":4503:4508   */\n      dup3\n        /* \"#utility.yul\":4499:4553   */\n      and\n        /* \"#utility.yul\":4488:4553   */\n      swap1\n      pop\n        /* \"#utility.yul\":4433:4559   */\n      swap2\n      swap1\n      pop\n      jump\t// out\n        /* \"#utility.yul\":4565:4651   */\n    tag_84:\n        /* \"#utility.yul\":4600:4607   */\n      0x00\n        /* \"#utility.yul\":4640:4644   */\n      0xff\n        /* \"#utility.yul\":4633:4638   */\n      dup3\n        /* \"#utility.yul\":4629:4645   */\n      and\n        /* \"#utility.yul\":4618:4645   */\n      swap1\n      pop\n        /* \"#utility.yul\":4565:4651   */\n      swap2\n      swap1\n      pop\n      jump\t// out\n        /* \"#utility.yul\":4657:4811   */\n    tag_35:\n        /* \"#utility.yul\":4741:4747   */\n      dup3\n        /* \"#utility.yul\":4736:4739   */\n      dup2\n        /* \"#utility.yul\":4731:4734   */\n      dup4\n        /* \"#utility.yul\":4718:4748   */\n      calldatacopy\n        /* \"#utility.yul\":4803:4804   */\n      0x00\n        /* \"#utility.yul\":4794:4800   */\n      dup4\n        /* \"#utility.yul\":4789:4792   */\n      dup4\n        /* \"#utility.yul\":4785:4801   */\n      add\n        /* \"#utility.yul\":4778:4805   */\n      mstore\n        /* \"#utility.yul\":4657:4811   */\n      pop\n      pop\n      pop\n      jump\t// out\n        /* \"#utility.yul\":4817:5124   */\n    tag_78:\n        /* \"#utility.yul\":4885:4886   */\n      0x00\n        /* \"#utility.yul\":4895:5008   */\n    tag_109:\n        /* \"#utility.yul\":4909:4915   */\n      dup4\n        /* \"#utility.yul\":4906:4907   */\n      dup2\n        /* \"#utility.yul\":4903:4916   */\n      lt\n        /* \"#utility.yul\":4895:5008   */\n      iszero\n      tag_111\n      jumpi\n        /* \"#utility.yul\":4994:4995   */\n      dup1\n        /* \"#utility.yul\":4989:4992   */\n      dup3\n        /* \"#utility.yul\":4985:4996   */\n      add\n        /* \"#utility.yul\":4979:4997   */\n      mload\n        /* \"#utility.yul\":4975:4976   */\n      dup2\n        /* \"#utility.yul\":4970:4973   */\n      dup5\n        /* \"#utility.yul\":4966:4977   */\n      add\n        /* \"#utility.yul\":4959:4998   */\n      mstore\n        /* \"#utility.yul\":4931:4933   */\n      0x20\n        /* \"#utility.yul\":4928:4929   */\n      dup2\n        /* \"#utility.yul\":4924:4934   */\n      add\n        /* \"#utility.yul\":4919:4934   */\n      swap1\n      pop\n        /* \"#utility.yul\":4895:5008   */\n      jump(tag_109)\n    tag_111:\n        /* \"#utility.yul\":5026:5032   */\n      dup4\n        /* \"#utility.yul\":5023:5024   */\n      dup2\n        /* \"#utility.yul\":5020:5033   */\n      gt\n        /* \"#utility.yul\":5017:5118   */\n      iszero\n      tag_112\n      jumpi\n        /* \"#utility.yul\":5106:5107   */\n      0x00\n        /* \"#utility.yul\":5097:5103   */\n      dup5\n        /* \"#utility.yul\":5092:5095   */\n      dup5\n        /* \"#utility.yul\":5088:5104   */\n      add\n        /* \"#utility.yul\":5081:5108   */\n      mstore\n        /* \"#utility.yul\":5017:5118   */\n    tag_112:\n        /* \"#utility.yul\":4866:5124   */\n      pop\n        /* \"#utility.yul\":4817:5124   */\n      pop\n      pop\n      pop\n      jump\t// out\n        /* \"#utility.yul\":5130:5411   */\n    tag_93:\n        /* \"#utility.yul\":5213:5240   */\n      tag_114\n        /* \"#utility.yul\":5235:5239   */\n      dup3\n        /* \"#utility.yul\":5213:5240   */\n      tag_80\n      jump\t// in\n    tag_114:\n        /* \"#utility.yul\":5205:5211   */\n      dup2\n        /* \"#utility.yul\":5201:5241   */\n      add\n        /* \"#utility.yul\":5343:5349   */\n      dup2\n        /* \"#utility.yul\":5331:5341   */\n      dup2\n        /* \"#utility.yul\":5328:5350   */\n      lt\n        /* \"#utility.yul\":5307:5325   */\n      0xffffffffffffffff\n        /* \"#utility.yul\":5295:5305   */\n      dup3\n        /* \"#utility.yul\":5292:5326   */\n      gt\n        /* \"#utility.yul\":5289:5351   */\n      or\n        /* \"#utility.yul\":5286:5374   */\n      iszero\n      tag_115\n      jumpi\n        /* \"#utility.yul\":5354:5372   */\n      tag_116\n      tag_98\n      jump\t// in\n    tag_116:\n        /* \"#utility.yul\":5286:5374   */\n    tag_115:\n        /* \"#utility.yul\":5394:5404   */\n      dup1\n        /* \"#utility.yul\":5390:5392   */\n      0x40\n        /* \"#utility.yul\":5383:5405   */\n      mstore\n        /* \"#utility.yul\":5173:5411   */\n      pop\n        /* \"#utility.yul\":5130:5411   */\n      pop\n      pop\n      jump\t// out\n        /* \"#utility.yul\":5417:5597   */\n    tag_98:\n        /* \"#utility.yul\":5465:5542   */\n      0x4e487b7100000000000000000000000000000000000000000000000000000000\n        /* \"#utility.yul\":5462:5463   */\n      0x00\n        /* \"#utility.yul\":5455:5543   */\n      mstore\n        /* \"#utility.yul\":5562:5566   */\n      0x41\n        /* \"#utility.yul\":5559:5560   */\n      0x04\n        /* \"#utility.yul\":5552:5567   */\n      mstore\n        /* \"#utility.yul\":5586:5590   */\n      0x24\n        /* \"#utility.yul\":5583:5584   */\n      0x00\n        /* \"#utility.yul\":5576:5591   */\n      revert\n        /* \"#utility.yul\":5603:5720   */\n    tag_47:\n        /* \"#utility.yul\":5712:5713   */\n      0x00\n        /* \"#utility.yul\":5709:5710   */\n      dup1\n        /* \"#utility.yul\":5702:5714   */\n      revert\n        /* \"#utility.yul\":5726:5843   */\n    tag_33:\n        /* \"#utility.yul\":5835:5836   */\n      0x00\n        /* \"#utility.yul\":5832:5833   */\n      dup1\n        /* \"#utility.yul\":5825:5837   */\n      revert\n        /* \"#utility.yul\":5849:5966   */\n    tag_64:\n        /* \"#utility.yul\":5958:5959   */\n      0x00\n        /* \"#utility.yul\":5955:5956   */\n      dup1\n        /* \"#utility.yul\":5948:5960   */\n      revert\n        /* \"#utility.yul\":5972:6089   */\n    tag_56:\n        /* \"#utility.yul\":6081:6082   */\n      0x00\n        /* \"#utility.yul\":6078:6079   */\n      dup1\n        /* \"#utility.yul\":6071:6083   */\n      revert\n        /* \"#utility.yul\":6095:6197   */\n    tag_80:\n        /* \"#utility.yul\":6136:6142   */\n      0x00\n        /* \"#utility.yul\":6187:6189   */\n      0x1f\n        /* \"#utility.yul\":6183:6190   */\n      not\n        /* \"#utility.yul\":6178:6180   */\n      0x1f\n        /* \"#utility.yul\":6171:6176   */\n      dup4\n        /* \"#utility.yul\":6167:6181   */\n      add\n        /* \"#utility.yul\":6163:6191   */\n      and\n        /* \"#utility.yul\":6153:6191   */\n      swap1\n      pop\n        /* \"#utility.yul\":6095:6197   */\n      swap2\n      swap1\n      pop\n      jump\t// out\n        /* \"#utility.yul\":6203:6325   */\n    tag_39:\n        /* \"#utility.yul\":6276:6300   */\n      tag_124\n        /* \"#utility.yul\":6294:6299   */\n      dup2\n        /* \"#utility.yul\":6276:6300   */\n      tag_70\n      jump\t// in\n    tag_124:\n        /* \"#utility.yul\":6269:6274   */\n      dup2\n        /* \"#utility.yul\":6266:6301   */\n      eq\n        /* \"#utility.yul\":6256:6319   */\n      tag_125\n      jumpi\n        /* \"#utility.yul\":6315:6316   */\n      0x00\n        /* \"#utility.yul\":6312:6313   */\n      dup1\n        /* \"#utility.yul\":6305:6317   */\n      revert\n        /* \"#utility.yul\":6256:6319   */\n    tag_125:\n        /* \"#utility.yul\":6203:6325   */\n      pop\n      jump\t// out\n        /* \"#utility.yul\":6331:6449   */\n    tag_52:\n        /* \"#utility.yul\":6402:6424   */\n      tag_127\n        /* \"#utility.yul\":6418:6423   */\n      dup2\n        /* \"#utility.yul\":6402:6424   */\n      tag_84\n      jump\t// in\n    tag_127:\n        /* \"#utility.yul\":6395:6400   */\n      dup2\n        /* \"#utility.yul\":6392:6425   */\n      eq\n        /* \"#utility.yul\":6382:6443   */\n      tag_128\n      jumpi\n        /* \"#utility.yul\":6439:6440   */\n      0x00\n        /* \"#utility.yul\":6436:6437   */\n      dup1\n        /* \"#utility.yul\":6429:6441   */\n      revert\n        /* \"#utility.yul\":6382:6443   */\n    tag_128:\n        /* \"#utility.yul\":6331:6449   */\n      pop\n      jump\t// out\n\n    auxdata: 0xa26469706673582212206295f83ddb4cd4401e154f8f6198599bba0095e64de2f0a29254cf1c3ca3127b64736f6c63430008070033\n}\n",
				"bytecode": {
					"linkReferences": {},
					"object": "608060405234801561001057600080fd5b506040516107b53803806107b58339818101604052810190610032919061011f565b836000806101000a81548173ffffffffffffffffffffffffffffffffffffffff021916908373ffffffffffffffffffffffffffffffffffffffff16021790555060008054906101000a900473ffffffffffffffffffffffffffffffffffffffff1673ffffffffffffffffffffffffffffffffffffffff166336fd26338484846040518463ffffffff1660e01b81526004016100cf93929190610195565b600060405180830381600087803b1580156100e957600080fd5b505af11580156100fd573d6000803e3d6000fd5b505050505050505061021a565b60008151905061011981610203565b92915050565b60008060008060808587031215610139576101386101fe565b5b60006101478782880161010a565b94505060206101588782880161010a565b93505060406101698782880161010a565b925050606061017a8782880161010a565b91505092959194509250565b61018f816101cc565b82525050565b60006060820190506101aa6000830186610186565b6101b76020830185610186565b6101c46040830184610186565b949350505050565b60006101d7826101de565b9050919050565b600073ffffffffffffffffffffffffffffffffffffffff82169050919050565b600080fd5b61020c816101cc565b811461021757600080fd5b50565b61058c806102296000396000f3fe608060405234801561001057600080fd5b50600436106100365760003560e01c806303c3abc41461003b57806313cb22c614610045575b600080fd5b610043610061565b005b61005f600480360381019061005a91906102ac565b610102565b005b60008054906101000a900473ffffffffffffffffffffffffffffffffffffffff1673ffffffffffffffffffffffffffffffffffffffff166303c3abc46040518163ffffffff1660e01b815260040160206040518083038186803b1580156100c757600080fd5b505afa1580156100db573d6000803e3d6000fd5b505050506040513d601f19601f820116820180604052508101906100ff919061027f565b50565b60008054906101000a900473ffffffffffffffffffffffffffffffffffffffff1673ffffffffffffffffffffffffffffffffffffffff16621d54ab8484846040518463ffffffff1660e01b815260040161015e93929190610372565b600060405180830381600087803b15801561017857600080fd5b505af115801561018c573d6000803e3d6000fd5b505050507f750ae9c195d9b95b8c17bf0fa25801932d5a28c4871f4571af70581bc15f5bfe8383836040516101c393929190610372565b60405180910390a1505050565b60006101e36101de846103d5565b6103b0565b9050828152602081018484840111156101ff576101fe610508565b5b61020a848285610461565b509392505050565b60008135905061022181610528565b92915050565b60008151905061023681610528565b92915050565b600082601f83011261025157610250610503565b5b81356102618482602086016101d0565b91505092915050565b6000813590506102798161053f565b92915050565b60006020828403121561029557610294610512565b5b60006102a384828501610227565b91505092915050565b6000806000606084860312156102c5576102c4610512565b5b60006102d386828701610212565b935050602084013567ffffffffffffffff8111156102f4576102f361050d565b5b6103008682870161023c565b92505060406103118682870161026a565b9150509250925092565b61032481610422565b82525050565b600061033582610406565b61033f8185610411565b935061034f818560208601610470565b61035881610517565b840191505092915050565b61036c81610454565b82525050565b6000606082019050610387600083018661031b565b8181036020830152610399818561032a565b90506103a86040830184610363565b949350505050565b60006103ba6103cb565b90506103c682826104a3565b919050565b6000604051905090565b600067ffffffffffffffff8211156103f0576103ef6104d4565b5b6103f982610517565b9050602081019050919050565b600081519050919050565b600082825260208201905092915050565b600061042d82610434565b9050919050565b600073ffffffffffffffffffffffffffffffffffffffff82169050919050565b600060ff82169050919050565b82818337600083830152505050565b60005b8381101561048e578082015181840152602081019050610473565b8381111561049d576000848401525b50505050565b6104ac82610517565b810181811067ffffffffffffffff821117156104cb576104ca6104d4565b5b80604052505050565b7f4e487b7100000000000000000000000000000000000000000000000000000000600052604160045260246000fd5b600080fd5b600080fd5b600080fd5b600080fd5b6000601f19601f8301169050919050565b61053181610422565b811461053c57600080fd5b50565b61054881610454565b811461055357600080fd5b5056fea26469706673582212206295f83ddb4cd4401e154f8f6198599bba0095e64de2f0a29254cf1c3ca3127b64736f6c63430008070033",
					"opcodes": "PUSH1 0x80 PUSH1 0x40 MSTORE CALLVALUE DUP1 ISZERO PUSH2 0x10 JUMPI PUSH1 0x0 DUP1 REVERT JUMPDEST POP PUSH1 0x40 MLOAD PUSH2 0x7B5 CODESIZE SUB DUP1 PUSH2 0x7B5 DUP4 CODECOPY DUP2 DUP2 ADD PUSH1 0x40 MSTORE DUP2 ADD SWAP1 PUSH2 0x32 SWAP2 SWAP1 PUSH2 0x11F JUMP JUMPDEST DUP4 PUSH1 0x0 DUP1 PUSH2 0x100 EXP DUP2 SLOAD DUP2 PUSH20 0xFFFFFFFFFFFFFFFFFFFFFFFFFFFFFFFFFFFFFFFF MUL NOT AND SWAP1 DUP4 PUSH20 0xFFFFFFFFFFFFFFFFFFFFFFFFFFFFFFFFFFFFFFFF AND MUL OR SWAP1 SSTORE POP PUSH1 0x0 DUP1 SLOAD SWAP1 PUSH2 0x100 EXP SWAP1 DIV PUSH20 0xFFFFFFFFFFFFFFFFFFFFFFFFFFFFFFFFFFFFFFFF AND PUSH20 0xFFFFFFFFFFFFFFFFFFFFFFFFFFFFFFFFFFFFFFFF AND PUSH4 0x36FD2633 DUP5 DUP5 DUP5 PUSH1 0x40 MLOAD DUP5 PUSH4 0xFFFFFFFF AND PUSH1 0xE0 SHL DUP2 MSTORE PUSH1 0x4 ADD PUSH2 0xCF SWAP4 SWAP3 SWAP2 SWAP1 PUSH2 0x195 JUMP JUMPDEST PUSH1 0x0 PUSH1 0x40 MLOAD DUP1 DUP4 SUB DUP2 PUSH1 0x0 DUP8 DUP1 EXTCODESIZE ISZERO DUP1 ISZERO PUSH2 0xE9 JUMPI PUSH1 0x0 DUP1 REVERT JUMPDEST POP GAS CALL ISZERO DUP1 ISZERO PUSH2 0xFD JUMPI RETURNDATASIZE PUSH1 0x0 DUP1 RETURNDATACOPY RETURNDATASIZE PUSH1 0x0 REVERT JUMPDEST POP POP POP POP POP POP POP POP PUSH2 0x21A JUMP JUMPDEST PUSH1 0x0 DUP2 MLOAD SWAP1 POP PUSH2 0x119 DUP2 PUSH2 0x203 JUMP JUMPDEST SWAP3 SWAP2 POP POP JUMP JUMPDEST PUSH1 0x0 DUP1 PUSH1 0x0 DUP1 PUSH1 0x80 DUP6 DUP8 SUB SLT ISZERO PUSH2 0x139 JUMPI PUSH2 0x138 PUSH2 0x1FE JUMP JUMPDEST JUMPDEST PUSH1 0x0 PUSH2 0x147 DUP8 DUP3 DUP9 ADD PUSH2 0x10A JUMP JUMPDEST SWAP5 POP POP PUSH1 0x20 PUSH2 0x158 DUP8 DUP3 DUP9 ADD PUSH2 0x10A JUMP JUMPDEST SWAP4 POP POP PUSH1 0x40 PUSH2 0x169 DUP8 DUP3 DUP9 ADD PUSH2 0x10A JUMP JUMPDEST SWAP3 POP POP PUSH1 0x60 PUSH2 0x17A DUP8 DUP3 DUP9 ADD PUSH2 0x10A JUMP JUMPDEST SWAP2 POP POP SWAP3 SWAP6 SWAP2 SWAP5 POP SWAP3 POP JUMP JUMPDEST PUSH2 0x18F DUP2 PUSH2 0x1CC JUMP JUMPDEST DUP3 MSTORE POP POP JUMP JUMPDEST PUSH1 0x0 PUSH1 0x60 DUP3 ADD SWAP1 POP PUSH2 0x1AA PUSH1 0x0 DUP4 ADD DUP7 PUSH2 0x186 JUMP JUMPDEST PUSH2 0x1B7 PUSH1 0x20 DUP4 ADD DUP6 PUSH2 0x186 JUMP JUMPDEST PUSH2 0x1C4 PUSH1 0x40 DUP4 ADD DUP5 PUSH2 0x186 JUMP JUMPDEST SWAP5 SWAP4 POP POP POP POP JUMP JUMPDEST PUSH1 0x0 PUSH2 0x1D7 DUP3 PUSH2 0x1DE JUMP JUMPDEST SWAP1 POP SWAP2 SWAP1 POP JUMP JUMPDEST PUSH1 0x0 PUSH20 0xFFFFFFFFFFFFFFFFFFFFFFFFFFFFFFFFFFFFFFFF DUP3 AND SWAP1 POP SWAP2 SWAP1 POP JUMP JUMPDEST PUSH1 0x0 DUP1 REVERT JUMPDEST PUSH2 0x20C DUP2 PUSH2 0x1CC JUMP JUMPDEST DUP2 EQ PUSH2 0x217 JUMPI PUSH1 0x0 DUP1 REVERT JUMPDEST POP JUMP JUMPDEST PUSH2 0x58C DUP1 PUSH2 0x229 PUSH1 0x0 CODECOPY PUSH1 0x0 RETURN INVALID PUSH1 0x80 PUSH1 0x40 MSTORE CALLVALUE DUP1 ISZERO PUSH2 0x10 JUMPI PUSH1 0x0 DUP1 REVERT JUMPDEST POP PUSH1 0x4 CALLDATASIZE LT PUSH2 0x36 JUMPI PUSH1 0x0 CALLDATALOAD PUSH1 0xE0 SHR DUP1 PUSH4 0x3C3ABC4 EQ PUSH2 0x3B JUMPI DUP1 PUSH4 0x13CB22C6 EQ PUSH2 0x45 JUMPI JUMPDEST PUSH1 0x0 DUP1 REVERT JUMPDEST PUSH2 0x43 PUSH2 0x61 JUMP JUMPDEST STOP JUMPDEST PUSH2 0x5F PUSH1 0x4 DUP1 CALLDATASIZE SUB DUP2 ADD SWAP1 PUSH2 0x5A SWAP2 SWAP1 PUSH2 0x2AC JUMP JUMPDEST PUSH2 0x102 JUMP JUMPDEST STOP JUMPDEST PUSH1 0x0 DUP1 SLOAD SWAP1 PUSH2 0x100 EXP SWAP1 DIV PUSH20 0xFFFFFFFFFFFFFFFFFFFFFFFFFFFFFFFFFFFFFFFF AND PUSH20 0xFFFFFFFFFFFFFFFFFFFFFFFFFFFFFFFFFFFFFFFF AND PUSH4 0x3C3ABC4 PUSH1 0x40 MLOAD DUP2 PUSH4 0xFFFFFFFF AND PUSH1 0xE0 SHL DUP2 MSTORE PUSH1 0x4 ADD PUSH1 0x20 PUSH1 0x40 MLOAD DUP1 DUP4 SUB DUP2 DUP7 DUP1 EXTCODESIZE ISZERO DUP1 ISZERO PUSH2 0xC7 JUMPI PUSH1 0x0 DUP1 REVERT JUMPDEST POP GAS STATICCALL ISZERO DUP1 ISZERO PUSH2 0xDB JUMPI RETURNDATASIZE PUSH1 0x0 DUP1 RETURNDATACOPY RETURNDATASIZE PUSH1 0x0 REVERT JUMPDEST POP POP POP POP PUSH1 0x40 MLOAD RETURNDATASIZE PUSH1 0x1F NOT PUSH1 0x1F DUP3 ADD AND DUP3 ADD DUP1 PUSH1 0x40 MSTORE POP DUP2 ADD SWAP1 PUSH2 0xFF SWAP2 SWAP1 PUSH2 0x27F JUMP JUMPDEST POP JUMP JUMPDEST PUSH1 0x0 DUP1 SLOAD SWAP1 PUSH2 0x100 EXP SWAP1 DIV PUSH20 0xFFFFFFFFFFFFFFFFFFFFFFFFFFFFFFFFFFFFFFFF AND PUSH20 0xFFFFFFFFFFFFFFFFFFFFFFFFFFFFFFFFFFFFFFFF AND PUSH3 0x1D54AB DUP5 DUP5 DUP5 PUSH1 0x40 MLOAD DUP5 PUSH4 0xFFFFFFFF AND PUSH1 0xE0 SHL DUP2 MSTORE PUSH1 0x4 ADD PUSH2 0x15E SWAP4 SWAP3 SWAP2 SWAP1 PUSH2 0x372 JUMP JUMPDEST PUSH1 0x0 PUSH1 0x40 MLOAD DUP1 DUP4 SUB DUP2 PUSH1 0x0 DUP8 DUP1 EXTCODESIZE ISZERO DUP1 ISZERO PUSH2 0x178 JUMPI PUSH1 0x0 DUP1 REVERT JUMPDEST POP GAS CALL ISZERO DUP1 ISZERO PUSH2 0x18C JUMPI RETURNDATASIZE PUSH1 0x0 DUP1 RETURNDATACOPY RETURNDATASIZE PUSH1 0x0 REVERT JUMPDEST POP POP POP POP PUSH32 0x750AE9C195D9B95B8C17BF0FA25801932D5A28C4871F4571AF70581BC15F5BFE DUP4 DUP4 DUP4 PUSH1 0x40 MLOAD PUSH2 0x1C3 SWAP4 SWAP3 SWAP2 SWAP1 PUSH2 0x372 JUMP JUMPDEST PUSH1 0x40 MLOAD DUP1 SWAP2 SUB SWAP1 LOG1 POP POP POP JUMP JUMPDEST PUSH1 0x0 PUSH2 0x1E3 PUSH2 0x1DE DUP5 PUSH2 0x3D5 JUMP JUMPDEST PUSH2 0x3B0 JUMP JUMPDEST SWAP1 POP DUP3 DUP2 MSTORE PUSH1 0x20 DUP2 ADD DUP5 DUP5 DUP5 ADD GT ISZERO PUSH2 0x1FF JUMPI PUSH2 0x1FE PUSH2 0x508 JUMP JUMPDEST JUMPDEST PUSH2 0x20A DUP5 DUP3 DUP6 PUSH2 0x461 JUMP JUMPDEST POP SWAP4 SWAP3 POP POP POP JUMP JUMPDEST PUSH1 0x0 DUP2 CALLDATALOAD SWAP1 POP PUSH2 0x221 DUP2 PUSH2 0x528 JUMP JUMPDEST SWAP3 SWAP2 POP POP JUMP JUMPDEST PUSH1 0x0 DUP2 MLOAD SWAP1 POP PUSH2 0x236 DUP2 PUSH2 0x528 JUMP JUMPDEST SWAP3 SWAP2 POP POP JUMP JUMPDEST PUSH1 0x0 DUP3 PUSH1 0x1F DUP4 ADD SLT PUSH2 0x251 JUMPI PUSH2 0x250 PUSH2 0x503 JUMP JUMPDEST JUMPDEST DUP2 CALLDATALOAD PUSH2 0x261 DUP5 DUP3 PUSH1 0x20 DUP7 ADD PUSH2 0x1D0 JUMP JUMPDEST SWAP2 POP POP SWAP3 SWAP2 POP POP JUMP JUMPDEST PUSH1 0x0 DUP2 CALLDATALOAD SWAP1 POP PUSH2 0x279 DUP2 PUSH2 0x53F JUMP JUMPDEST SWAP3 SWAP2 POP POP JUMP JUMPDEST PUSH1 0x0 PUSH1 0x20 DUP3 DUP5 SUB SLT ISZERO PUSH2 0x295 JUMPI PUSH2 0x294 PUSH2 0x512 JUMP JUMPDEST JUMPDEST PUSH1 0x0 PUSH2 0x2A3 DUP5 DUP3 DUP6 ADD PUSH2 0x227 JUMP JUMPDEST SWAP2 POP POP SWAP3 SWAP2 POP POP JUMP JUMPDEST PUSH1 0x0 DUP1 PUSH1 0x0 PUSH1 0x60 DUP5 DUP7 SUB SLT ISZERO PUSH2 0x2C5 JUMPI PUSH2 0x2C4 PUSH2 0x512 JUMP JUMPDEST JUMPDEST PUSH1 0x0 PUSH2 0x2D3 DUP7 DUP3 DUP8 ADD PUSH2 0x212 JUMP JUMPDEST SWAP4 POP POP PUSH1 0x20 DUP5 ADD CALLDATALOAD PUSH8 0xFFFFFFFFFFFFFFFF DUP2 GT ISZERO PUSH2 0x2F4 JUMPI PUSH2 0x2F3 PUSH2 0x50D JUMP JUMPDEST JUMPDEST PUSH2 0x300 DUP7 DUP3 DUP8 ADD PUSH2 0x23C JUMP JUMPDEST SWAP3 POP POP PUSH1 0x40 PUSH2 0x311 DUP7 DUP3 DUP8 ADD PUSH2 0x26A JUMP JUMPDEST SWAP2 POP POP SWAP3 POP SWAP3 POP SWAP3 JUMP JUMPDEST PUSH2 0x324 DUP2 PUSH2 0x422 JUMP JUMPDEST DUP3 MSTORE POP POP JUMP JUMPDEST PUSH1 0x0 PUSH2 0x335 DUP3 PUSH2 0x406 JUMP JUMPDEST PUSH2 0x33F DUP2 DUP6 PUSH2 0x411 JUMP JUMPDEST SWAP4 POP PUSH2 0x34F DUP2 DUP6 PUSH1 0x20 DUP7 ADD PUSH2 0x470 JUMP JUMPDEST PUSH2 0x358 DUP2 PUSH2 0x517 JUMP JUMPDEST DUP5 ADD SWAP2 POP POP SWAP3 SWAP2 POP POP JUMP JUMPDEST PUSH2 0x36C DUP2 PUSH2 0x454 JUMP JUMPDEST DUP3 MSTORE POP POP JUMP JUMPDEST PUSH1 0x0 PUSH1 0x60 DUP3 ADD SWAP1 POP PUSH2 0x387 PUSH1 0x0 DUP4 ADD DUP7 PUSH2 0x31B JUMP JUMPDEST DUP2 DUP2 SUB PUSH1 0x20 DUP4 ADD MSTORE PUSH2 0x399 DUP2 DUP6 PUSH2 0x32A JUMP JUMPDEST SWAP1 POP PUSH2 0x3A8 PUSH1 0x40 DUP4 ADD DUP5 PUSH2 0x363 JUMP JUMPDEST SWAP5 SWAP4 POP POP POP POP JUMP JUMPDEST PUSH1 0x0 PUSH2 0x3BA PUSH2 0x3CB JUMP JUMPDEST SWAP1 POP PUSH2 0x3C6 DUP3 DUP3 PUSH2 0x4A3 JUMP JUMPDEST SWAP2 SWAP1 POP JUMP JUMPDEST PUSH1 0x0 PUSH1 0x40 MLOAD SWAP1 POP SWAP1 JUMP JUMPDEST PUSH1 0x0 PUSH8 0xFFFFFFFFFFFFFFFF DUP3 GT ISZERO PUSH2 0x3F0 JUMPI PUSH2 0x3EF PUSH2 0x4D4 JUMP JUMPDEST JUMPDEST PUSH2 0x3F9 DUP3 PUSH2 0x517 JUMP JUMPDEST SWAP1 POP PUSH1 0x20 DUP2 ADD SWAP1 POP SWAP2 SWAP1 POP JUMP JUMPDEST PUSH1 0x0 DUP2 MLOAD SWAP1 POP SWAP2 SWAP1 POP JUMP JUMPDEST PUSH1 0x0 DUP3 DUP3 MSTORE PUSH1 0x20 DUP3 ADD SWAP1 POP SWAP3 SWAP2 POP POP JUMP JUMPDEST PUSH1 0x0 PUSH2 0x42D DUP3 PUSH2 0x434 JUMP JUMPDEST SWAP1 POP SWAP2 SWAP1 POP JUMP JUMPDEST PUSH1 0x0 PUSH20 0xFFFFFFFFFFFFFFFFFFFFFFFFFFFFFFFFFFFFFFFF DUP3 AND SWAP1 POP SWAP2 SWAP1 POP JUMP JUMPDEST PUSH1 0x0 PUSH1 0xFF DUP3 AND SWAP1 POP SWAP2 SWAP1 POP JUMP JUMPDEST DUP3 DUP2 DUP4 CALLDATACOPY PUSH1 0x0 DUP4 DUP4 ADD MSTORE POP POP POP JUMP JUMPDEST PUSH1 0x0 JUMPDEST DUP4 DUP2 LT ISZERO PUSH2 0x48E JUMPI DUP1 DUP3 ADD MLOAD DUP2 DUP5 ADD MSTORE PUSH1 0x20 DUP2 ADD SWAP1 POP PUSH2 0x473 JUMP JUMPDEST DUP4 DUP2 GT ISZERO PUSH2 0x49D JUMPI PUSH1 0x0 DUP5 DUP5 ADD MSTORE JUMPDEST POP POP POP POP JUMP JUMPDEST PUSH2 0x4AC DUP3 PUSH2 0x517 JUMP JUMPDEST DUP2 ADD DUP2 DUP2 LT PUSH8 0xFFFFFFFFFFFFFFFF DUP3 GT OR ISZERO PUSH2 0x4CB JUMPI PUSH2 0x4CA PUSH2 0x4D4 JUMP JUMPDEST JUMPDEST DUP1 PUSH1 0x40 MSTORE POP POP POP JUMP JUMPDEST PUSH32 0x4E487B7100000000000000000000000000000000000000000000000000000000 PUSH1 0x0 MSTORE PUSH1 0x41 PUSH1 0x4 MSTORE PUSH1 0x24 PUSH1 0x0 REVERT JUMPDEST PUSH1 0x0 DUP1 REVERT JUMPDEST PUSH1 0x0 DUP1 REVERT JUMPDEST PUSH1 0x0 DUP1 REVERT JUMPDEST PUSH1 0x0 DUP1 REVERT JUMPDEST PUSH1 0x0 PUSH1 0x1F NOT PUSH1 0x1F DUP4 ADD AND SWAP1 POP SWAP2 SWAP1 POP JUMP JUMPDEST PUSH2 0x531 DUP2 PUSH2 0x422 JUMP JUMPDEST DUP2 EQ PUSH2 0x53C JUMPI PUSH1 0x0 DUP1 REVERT JUMPDEST POP JUMP JUMPDEST PUSH2 0x548 DUP2 PUSH2 0x454 JUMP JUMPDEST DUP2 EQ PUSH2 0x553 JUMPI PUSH1 0x0 DUP1 REVERT JUMPDEST POP JUMP INVALID LOG2 PUSH5 0x6970667358 0x22 SLT KECCAK256 PUSH3 0x95F83D 0xDB 0x4C 0xD4 BLOCKHASH 0x1E ISZERO 0x4F DUP16 PUSH2 0x9859 SWAP12 0xBA STOP SWAP6 0xE6 0x4D 0xE2 CREATE LOG2 SWAP3 SLOAD 0xCF SHR EXTCODECOPY LOG3 SLT PUSH28 0x64736F6C634300080700330000000000000000000000000000000000 "
				},
				"gasEstimates": {
					"creation": {
						"codeDepositCost": "284000",
						"executionCost": "infinite",
						"totalCost": "infinite"
					},
					"external": {
						"getYOK()": "infinite",
						"kaydetUniversite(address,string,uint8)": "infinite"
					}
				},
				"methodIdentifiers": {
					"getYOK()": "03c3abc4",
					"kaydetUniversite(address,string,uint8)": "13cb22c6"
				}
			},
			"storageLayout": {
				"storage": [
					{
						"astId": 472,
						"contract": "contracts/Registration.sol:Registration",
						"label": "baseContract",
						"offset": 0,
						"slot": "0",
						"type": "t_contract(BaseContract)466"
					}
				],
				"types": {
					"t_contract(BaseContract)466": {
						"encoding": "inplace",
						"label": "contract BaseContract",
						"numberOfBytes": "20"
					}
				}
			},
			"userdoc": {
				"kind": "user",
				"methods": {},
				"version": 1
			}
		}
	}
}