{
	"contracts/YabanciDilBilgileri.sol": {
		"YabanciDilBilgileri": {
			"abi": [
				{
					"anonymous": false,
					"inputs": [
						{
							"indexed": false,
							"internalType": "enum BaseContract.OnaylayanKurum",
							"name": "_onaylayanKurumTipi",
							"type": "uint8"
						},
						{
							"indexed": false,
							"internalType": "address",
							"name": "_onayKurum",
							"type": "address"
						},
						{
							"indexed": false,
							"internalType": "uint256",
							"name": "_basTarih",
							"type": "uint256"
						},
						{
							"indexed": false,
							"internalType": "uint256",
							"name": "_bitTarih",
							"type": "uint256"
						},
						{
							"indexed": false,
							"internalType": "enum EgitimBilgileri.OgretimTipi",
							"name": "_ogretimTipi",
							"type": "uint8"
						},
						{
							"indexed": false,
							"internalType": "uint32",
							"name": "_dilId",
							"type": "uint32"
						}
					],
					"name": "YabanciDilEklendiLog",
					"type": "event"
				},
				{
					"anonymous": false,
					"inputs": [
						{
							"indexed": false,
							"internalType": "enum BaseContract.OnaylayanKurum",
							"name": "_onaylayanKurumTipi",
							"type": "uint8"
						},
						{
							"indexed": false,
							"internalType": "address",
							"name": "_onayKurum",
							"type": "address"
						},
						{
							"indexed": false,
							"internalType": "uint256",
							"name": "_basTarih",
							"type": "uint256"
						},
						{
							"indexed": false,
							"internalType": "uint256",
							"name": "_bitTarih",
							"type": "uint256"
						},
						{
							"indexed": false,
							"internalType": "enum EgitimBilgileri.OgretimTipi",
							"name": "_ogretimTipi",
							"type": "uint8"
						},
						{
							"indexed": false,
							"internalType": "uint32",
							"name": "_dilId",
							"type": "uint32"
						}
					],
					"name": "YabanciDilGuncellendiLog",
					"type": "event"
				},
				{
					"inputs": [
						{
							"internalType": "address",
							"name": "",
							"type": "address"
						}
					],
					"name": "akademisyenler",
					"outputs": [
						{
							"internalType": "bool",
							"name": "durum",
							"type": "bool"
						},
						{
							"internalType": "address",
							"name": "universite",
							"type": "address"
						},
						{
							"internalType": "uint16",
							"name": "bolum",
							"type": "uint16"
						},
						{
							"internalType": "enum BaseContract.Unvan",
							"name": "unvan",
							"type": "uint8"
						},
						{
							"internalType": "string",
							"name": "ad",
							"type": "string"
						},
						{
							"internalType": "string",
							"name": "soyad",
							"type": "string"
						}
					],
					"stateMutability": "view",
					"type": "function"
				},
				{
					"inputs": [
						{
							"internalType": "uint32",
							"name": "",
							"type": "uint32"
						}
					],
					"name": "diller",
					"outputs": [
						{
							"internalType": "uint32",
							"name": "id",
							"type": "uint32"
						},
						{
							"internalType": "string",
							"name": "isim",
							"type": "string"
						}
					],
					"stateMutability": "view",
					"type": "function"
				},
				{
					"inputs": [
						{
							"internalType": "address",
							"name": "_kisiAddress",
							"type": "address"
						},
						{
							"components": [
								{
									"internalType": "uint256",
									"name": "id",
									"type": "uint256"
								},
								{
									"internalType": "enum BaseContract.OnaylayanKurum",
									"name": "onayKurumTipi",
									"type": "uint8"
								},
								{
									"internalType": "address",
									"name": "onayKurum",
									"type": "address"
								},
								{
									"internalType": "uint256",
									"name": "basTarih",
									"type": "uint256"
								},
								{
									"internalType": "uint256",
									"name": "bitTarih",
									"type": "uint256"
								},
								{
									"internalType": "enum EgitimBilgileri.OgretimTipi",
									"name": "ogretimTipi",
									"type": "uint8"
								},
								{
									"internalType": "uint32",
									"name": "dilId",
									"type": "uint32"
								}
							],
							"internalType": "struct YabanciDilBilgileri.YabanciDilBilgi",
							"name": "_ydBilgi",
							"type": "tuple"
						}
					],
					"name": "ekleYabanciDilBilgi",
					"outputs": [],
					"stateMutability": "nonpayable",
					"type": "function"
				},
				{
					"inputs": [
						{
							"internalType": "address",
							"name": "",
							"type": "address"
						}
					],
					"name": "firmalar",
					"outputs": [
						{
							"internalType": "bool",
							"name": "durum",
							"type": "bool"
						},
						{
							"internalType": "uint8",
							"name": "ulke",
							"type": "uint8"
						},
						{
							"internalType": "uint256",
							"name": "vergiNo",
							"type": "uint256"
						},
						{
							"internalType": "string",
							"name": "isim",
							"type": "string"
						}
					],
					"stateMutability": "view",
					"type": "function"
				},
				{
					"inputs": [
						{
							"internalType": "address",
							"name": "_kisiAddress",
							"type": "address"
						},
						{
							"components": [
								{
									"internalType": "uint256",
									"name": "id",
									"type": "uint256"
								},
								{
									"internalType": "enum BaseContract.OnaylayanKurum",
									"name": "onayKurumTipi",
									"type": "uint8"
								},
								{
									"internalType": "address",
									"name": "onayKurum",
									"type": "address"
								},
								{
									"internalType": "uint256",
									"name": "basTarih",
									"type": "uint256"
								},
								{
									"internalType": "uint256",
									"name": "bitTarih",
									"type": "uint256"
								},
								{
									"internalType": "enum EgitimBilgileri.OgretimTipi",
									"name": "ogretimTipi",
									"type": "uint8"
								},
								{
									"internalType": "uint32",
									"name": "dilId",
									"type": "uint32"
								}
							],
							"internalType": "struct YabanciDilBilgileri.YabanciDilBilgi",
							"name": "_ydBilgi",
							"type": "tuple"
						}
					],
					"name": "guncelleYabanciDilBilgi",
					"outputs": [
						{
							"internalType": "uint256",
							"name": "",
							"type": "uint256"
						}
					],
					"stateMutability": "nonpayable",
					"type": "function"
				},
				{
					"inputs": [],
					"name": "id",
					"outputs": [
						{
							"internalType": "uint256",
							"name": "",
							"type": "uint256"
						}
					],
					"stateMutability": "view",
					"type": "function"
				},
				{
					"inputs": [
						{
							"internalType": "address",
							"name": "",
							"type": "address"
						}
					],
					"name": "kamuKurumlari",
					"outputs": [
						{
							"internalType": "bool",
							"name": "durum",
							"type": "bool"
						},
						{
							"internalType": "string",
							"name": "isim",
							"type": "string"
						},
						{
							"internalType": "uint8",
							"name": "ulke",
							"type": "uint8"
						}
					],
					"stateMutability": "view",
					"type": "function"
				},
				{
					"inputs": [
						{
							"internalType": "address",
							"name": "",
							"type": "address"
						}
					],
					"name": "kisiler",
					"outputs": [
						{
							"internalType": "bool",
							"name": "durum",
							"type": "bool"
						}
					],
					"stateMutability": "view",
					"type": "function"
				},
				{
					"inputs": [
						{
							"internalType": "address",
							"name": "",
							"type": "address"
						}
					],
					"name": "kurslar",
					"outputs": [
						{
							"internalType": "bool",
							"name": "durum",
							"type": "bool"
						},
						{
							"internalType": "string",
							"name": "isim",
							"type": "string"
						},
						{
							"internalType": "uint8",
							"name": "ulke",
							"type": "uint8"
						}
					],
					"stateMutability": "view",
					"type": "function"
				},
				{
					"inputs": [
						{
							"internalType": "address",
							"name": "",
							"type": "address"
						}
					],
					"name": "sertifikaMerkezleri",
					"outputs": [
						{
							"internalType": "bool",
							"name": "durum",
							"type": "bool"
						},
						{
							"internalType": "string",
							"name": "isim",
							"type": "string"
						},
						{
							"internalType": "uint8",
							"name": "ulke",
							"type": "uint8"
						}
					],
					"stateMutability": "view",
					"type": "function"
				},
				{
					"inputs": [
						{
							"internalType": "address",
							"name": "",
							"type": "address"
						}
					],
					"name": "stklar",
					"outputs": [
						{
							"internalType": "bool",
							"name": "durum",
							"type": "bool"
						},
						{
							"internalType": "string",
							"name": "isim",
							"type": "string"
						},
						{
							"internalType": "uint8",
							"name": "ulke",
							"type": "uint8"
						}
					],
					"stateMutability": "view",
					"type": "function"
				},
				{
					"inputs": [
						{
							"internalType": "address",
							"name": "",
							"type": "address"
						}
					],
					"name": "universiteler",
					"outputs": [
						{
							"internalType": "bool",
							"name": "durum",
							"type": "bool"
						},
						{
							"internalType": "string",
							"name": "isim",
							"type": "string"
						},
						{
							"internalType": "uint8",
							"name": "ulke",
							"type": "uint8"
						}
					],
					"stateMutability": "view",
					"type": "function"
				},
				{
					"inputs": [
						{
							"internalType": "address",
							"name": "",
							"type": "address"
						},
						{
							"internalType": "uint256",
							"name": "",
							"type": "uint256"
						}
					],
					"name": "yabanciDilBilgiListesi",
					"outputs": [
						{
							"internalType": "uint256",
							"name": "id",
							"type": "uint256"
						},
						{
							"internalType": "enum BaseContract.OnaylayanKurum",
							"name": "onayKurumTipi",
							"type": "uint8"
						},
						{
							"internalType": "address",
							"name": "onayKurum",
							"type": "address"
						},
						{
							"internalType": "uint256",
							"name": "basTarih",
							"type": "uint256"
						},
						{
							"internalType": "uint256",
							"name": "bitTarih",
							"type": "uint256"
						},
						{
							"internalType": "enum EgitimBilgileri.OgretimTipi",
							"name": "ogretimTipi",
							"type": "uint8"
						},
						{
							"internalType": "uint32",
							"name": "dilId",
							"type": "uint32"
						}
					],
					"stateMutability": "view",
					"type": "function"
				}
			],
			"devdoc": {
				"kind": "dev",
				"methods": {},
				"version": 1
			},
			"evm": {
				"assembly": "    /* \"contracts/YabanciDilBilgileri.sol\":137:2944  contract YabanciDilBilgileri is BaseContract{\r... */\n  mstore(0x40, 0x80)\n  callvalue\n  dup1\n  iszero\n  tag_1\n  jumpi\n  0x00\n  dup1\n  revert\ntag_1:\n  pop\n  dataSize(sub_0)\n  dup1\n  dataOffset(sub_0)\n  0x00\n  codecopy\n  0x00\n  return\nstop\n\nsub_0: assembly {\n        /* \"contracts/YabanciDilBilgileri.sol\":137:2944  contract YabanciDilBilgileri is BaseContract{\r... */\n      mstore(0x40, 0x80)\n      callvalue\n      dup1\n      iszero\n      tag_1\n      jumpi\n      0x00\n      dup1\n      revert\n    tag_1:\n      pop\n      jumpi(tag_2, lt(calldatasize, 0x04))\n      shr(0xe0, calldataload(0x00))\n      dup1\n      0x7d0fa287\n      gt\n      tag_16\n      jumpi\n      dup1\n      0xaf640d0f\n      gt\n      tag_17\n      jumpi\n      dup1\n      0xaf640d0f\n      eq\n      tag_12\n      jumpi\n      dup1\n      0xba479b7e\n      eq\n      tag_13\n      jumpi\n      dup1\n      0xcbc92809\n      eq\n      tag_14\n      jumpi\n      dup1\n      0xcc9d368a\n      eq\n      tag_15\n      jumpi\n      jump(tag_2)\n    tag_17:\n      dup1\n      0x7d0fa287\n      eq\n      tag_9\n      jumpi\n      dup1\n      0x9a8c9119\n      eq\n      tag_10\n      jumpi\n      dup1\n      0xa4e7ae05\n      eq\n      tag_11\n      jumpi\n      jump(tag_2)\n    tag_16:\n      dup1\n      0x1916e139\n      eq\n      tag_3\n      jumpi\n      dup1\n      0x28266697\n      eq\n      tag_4\n      jumpi\n      dup1\n      0x356b1f1e\n      eq\n      tag_5\n      jumpi\n      dup1\n      0x39987f94\n      eq\n      tag_6\n      jumpi\n      dup1\n      0x64b2c66b\n      eq\n      tag_7\n      jumpi\n      dup1\n      0x70223e73\n      eq\n      tag_8\n      jumpi\n    tag_2:\n      0x00\n      dup1\n      revert\n        /* \"contracts/BaseContract.sol\":2731:2769  mapping(address=>Kurs) public  kurslar */\n    tag_3:\n      tag_18\n      0x04\n      dup1\n      calldatasize\n      sub\n      dup2\n      add\n      swap1\n      tag_19\n      swap2\n      swap1\n      tag_20\n      jump\t// in\n    tag_19:\n      tag_21\n      jump\t// in\n    tag_18:\n      mload(0x40)\n      tag_22\n      swap4\n      swap3\n      swap2\n      swap1\n      tag_23\n      jump\t// in\n    tag_22:\n      mload(0x40)\n      dup1\n      swap2\n      sub\n      swap1\n      return\n        /* \"contracts/BaseContract.sol\":2570:2619  mapping(address=>Universite) public universiteler */\n    tag_4:\n      tag_24\n      0x04\n      dup1\n      calldatasize\n      sub\n      dup2\n      add\n      swap1\n      tag_25\n      swap2\n      swap1\n      tag_20\n      jump\t// in\n    tag_25:\n      tag_26\n      jump\t// in\n    tag_24:\n      mload(0x40)\n      tag_27\n      swap4\n      swap3\n      swap2\n      swap1\n      tag_23\n      jump\t// in\n    tag_27:\n      mload(0x40)\n      dup1\n      swap2\n      sub\n      swap1\n      return\n        /* \"contracts/BaseContract.sol\":2874:2935  mapping(address=>SertifikaMerkezi) public sertifikaMerkezleri */\n    tag_5:\n      tag_28\n      0x04\n      dup1\n      calldatasize\n      sub\n      dup2\n      add\n      swap1\n      tag_29\n      swap2\n      swap1\n      tag_20\n      jump\t// in\n    tag_29:\n      tag_30\n      jump\t// in\n    tag_28:\n      mload(0x40)\n      tag_31\n      swap4\n      swap3\n      swap2\n      swap1\n      tag_23\n      jump\t// in\n    tag_31:\n      mload(0x40)\n      dup1\n      swap2\n      sub\n      swap1\n      return\n        /* \"contracts/BaseContract.sol\":2684:2724  mapping(address=>Firma) public  firmalar */\n    tag_6:\n      tag_32\n      0x04\n      dup1\n      calldatasize\n      sub\n      dup2\n      add\n      swap1\n      tag_33\n      swap2\n      swap1\n      tag_20\n      jump\t// in\n    tag_33:\n      tag_34\n      jump\t// in\n    tag_32:\n      mload(0x40)\n      tag_35\n      swap5\n      swap4\n      swap3\n      swap2\n      swap1\n      tag_36\n      jump\t// in\n    tag_35:\n      mload(0x40)\n      dup1\n      swap2\n      sub\n      swap1\n      return\n        /* \"contracts/YabanciDilBilgileri.sol\":478:556  mapping(address=>mapping(uint=>YabanciDilBilgi)) public yabanciDilBilgiListesi */\n    tag_7:\n      tag_37\n      0x04\n      dup1\n      calldatasize\n      sub\n      dup2\n      add\n      swap1\n      tag_38\n      swap2\n      swap1\n      tag_39\n      jump\t// in\n    tag_38:\n      tag_40\n      jump\t// in\n    tag_37:\n      mload(0x40)\n      tag_41\n      swap8\n      swap7\n      swap6\n      swap5\n      swap4\n      swap3\n      swap2\n      swap1\n      tag_42\n      jump\t// in\n    tag_41:\n      mload(0x40)\n      dup1\n      swap2\n      sub\n      swap1\n      return\n        /* \"contracts/YabanciDilBilgileri.sol\":938:1877  function ekleYabanciDilBilgi(address _kisiAddress, YabanciDilBilgi memory _ydBilgi)  public sadece_Uni_Firma_Kamu{\r... */\n    tag_8:\n      tag_43\n      0x04\n      dup1\n      calldatasize\n      sub\n      dup2\n      add\n      swap1\n      tag_44\n      swap2\n      swap1\n      tag_45\n      jump\t// in\n    tag_44:\n      tag_46\n      jump\t// in\n    tag_43:\n      stop\n        /* \"contracts/BaseContract.sol\":2776:2825  mapping(address=>KamuKurumu) public kamuKurumlari */\n    tag_9:\n      tag_47\n      0x04\n      dup1\n      calldatasize\n      sub\n      dup2\n      add\n      swap1\n      tag_48\n      swap2\n      swap1\n      tag_20\n      jump\t// in\n    tag_48:\n      tag_49\n      jump\t// in\n    tag_47:\n      mload(0x40)\n      tag_50\n      swap4\n      swap3\n      swap2\n      swap1\n      tag_23\n      jump\t// in\n    tag_50:\n      mload(0x40)\n      dup1\n      swap2\n      sub\n      swap1\n      return\n        /* \"contracts/BaseContract.sol\":2832:2867  mapping(address=>STK) public stklar */\n    tag_10:\n      tag_51\n      0x04\n      dup1\n      calldatasize\n      sub\n      dup2\n      add\n      swap1\n      tag_52\n      swap2\n      swap1\n      tag_20\n      jump\t// in\n    tag_52:\n      tag_53\n      jump\t// in\n    tag_51:\n      mload(0x40)\n      tag_54\n      swap4\n      swap3\n      swap2\n      swap1\n      tag_23\n      jump\t// in\n    tag_54:\n      mload(0x40)\n      dup1\n      swap2\n      sub\n      swap1\n      return\n        /* \"contracts/BaseContract.sol\":2945:2986  mapping(uint32=>YabanciDil) public diller */\n    tag_11:\n      tag_55\n      0x04\n      dup1\n      calldatasize\n      sub\n      dup2\n      add\n      swap1\n      tag_56\n      swap2\n      swap1\n      tag_57\n      jump\t// in\n    tag_56:\n      tag_58\n      jump\t// in\n    tag_55:\n      mload(0x40)\n      tag_59\n      swap3\n      swap2\n      swap1\n      tag_60\n      jump\t// in\n    tag_59:\n      mload(0x40)\n      dup1\n      swap2\n      sub\n      swap1\n      return\n        /* \"contracts/YabanciDilBilgileri.sol\":186:200  uint public id */\n    tag_12:\n      tag_61\n      tag_62\n      jump\t// in\n    tag_61:\n      mload(0x40)\n      tag_63\n      swap2\n      swap1\n      tag_64\n      jump\t// in\n    tag_63:\n      mload(0x40)\n      dup1\n      swap2\n      sub\n      swap1\n      return\n        /* \"contracts/BaseContract.sol\":2626:2677  mapping(address=>Akademisyen) public akademisyenler */\n    tag_13:\n      tag_65\n      0x04\n      dup1\n      calldatasize\n      sub\n      dup2\n      add\n      swap1\n      tag_66\n      swap2\n      swap1\n      tag_20\n      jump\t// in\n    tag_66:\n      tag_67\n      jump\t// in\n    tag_65:\n      mload(0x40)\n      tag_68\n      swap7\n      swap6\n      swap5\n      swap4\n      swap3\n      swap2\n      swap1\n      tag_69\n      jump\t// in\n    tag_68:\n      mload(0x40)\n      dup1\n      swap2\n      sub\n      swap1\n      return\n        /* \"contracts/BaseContract.sol\":2526:2563  mapping(address=>Kisi) public kisiler */\n    tag_14:\n      tag_70\n      0x04\n      dup1\n      calldatasize\n      sub\n      dup2\n      add\n      swap1\n      tag_71\n      swap2\n      swap1\n      tag_20\n      jump\t// in\n    tag_71:\n      tag_72\n      jump\t// in\n    tag_70:\n      mload(0x40)\n      tag_73\n      swap2\n      swap1\n      tag_74\n      jump\t// in\n    tag_73:\n      mload(0x40)\n      dup1\n      swap2\n      sub\n      swap1\n      return\n        /* \"contracts/YabanciDilBilgileri.sol\":1889:2935  function guncelleYabanciDilBilgi(address _kisiAddress, YabanciDilBilgi memory _ydBilgi)  public sadece_Uni_Firma_Kamu returns(uint){\r... */\n    tag_15:\n      tag_75\n      0x04\n      dup1\n      calldatasize\n      sub\n      dup2\n      add\n      swap1\n      tag_76\n      swap2\n      swap1\n      tag_45\n      jump\t// in\n    tag_76:\n      tag_77\n      jump\t// in\n    tag_75:\n      mload(0x40)\n      tag_78\n      swap2\n      swap1\n      tag_64\n      jump\t// in\n    tag_78:\n      mload(0x40)\n      dup1\n      swap2\n      sub\n      swap1\n      return\n        /* \"contracts/BaseContract.sol\":2731:2769  mapping(address=>Kurs) public  kurslar */\n    tag_21:\n      mstore(0x20, 0x07)\n      dup1\n      0x00\n      mstore\n      keccak256(0x00, 0x40)\n      0x00\n      swap2\n      pop\n      swap1\n      pop\n      dup1\n      0x00\n      add\n      0x00\n      swap1\n      sload\n      swap1\n      0x0100\n      exp\n      swap1\n      div\n      0xff\n      and\n      swap1\n      dup1\n      0x01\n      add\n      dup1\n      sload\n      tag_79\n      swap1\n      tag_80\n      jump\t// in\n    tag_79:\n      dup1\n      0x1f\n      add\n      0x20\n      dup1\n      swap2\n      div\n      mul\n      0x20\n      add\n      mload(0x40)\n      swap1\n      dup2\n      add\n      0x40\n      mstore\n      dup1\n      swap3\n      swap2\n      swap1\n      dup2\n      dup2\n      mstore\n      0x20\n      add\n      dup3\n      dup1\n      sload\n      tag_81\n      swap1\n      tag_80\n      jump\t// in\n    tag_81:\n      dup1\n      iszero\n      tag_82\n      jumpi\n      dup1\n      0x1f\n      lt\n      tag_83\n      jumpi\n      0x0100\n      dup1\n      dup4\n      sload\n      div\n      mul\n      dup4\n      mstore\n      swap2\n      0x20\n      add\n      swap2\n      jump(tag_82)\n    tag_83:\n      dup3\n      add\n      swap2\n      swap1\n      0x00\n      mstore\n      keccak256(0x00, 0x20)\n      swap1\n    tag_84:\n      dup2\n      sload\n      dup2\n      mstore\n      swap1\n      0x01\n      add\n      swap1\n      0x20\n      add\n      dup1\n      dup4\n      gt\n      tag_84\n      jumpi\n      dup3\n      swap1\n      sub\n      0x1f\n      and\n      dup3\n      add\n      swap2\n    tag_82:\n      pop\n      pop\n      pop\n      pop\n      pop\n      swap1\n      dup1\n      0x02\n      add\n      0x00\n      swap1\n      sload\n      swap1\n      0x0100\n      exp\n      swap1\n      div\n      0xff\n      and\n      swap1\n      pop\n      dup4\n      jump\t// out\n        /* \"contracts/BaseContract.sol\":2570:2619  mapping(address=>Universite) public universiteler */\n    tag_26:\n      mstore(0x20, 0x04)\n      dup1\n      0x00\n      mstore\n      keccak256(0x00, 0x40)\n      0x00\n      swap2\n      pop\n      swap1\n      pop\n      dup1\n      0x00\n      add\n      0x00\n      swap1\n      sload\n      swap1\n      0x0100\n      exp\n      swap1\n      div\n      0xff\n      and\n      swap1\n      dup1\n      0x01\n      add\n      dup1\n      sload\n      tag_85\n      swap1\n      tag_80\n      jump\t// in\n    tag_85:\n      dup1\n      0x1f\n      add\n      0x20\n      dup1\n      swap2\n      div\n      mul\n      0x20\n      add\n      mload(0x40)\n      swap1\n      dup2\n      add\n      0x40\n      mstore\n      dup1\n      swap3\n      swap2\n      swap1\n      dup2\n      dup2\n      mstore\n      0x20\n      add\n      dup3\n      dup1\n      sload\n      tag_86\n      swap1\n      tag_80\n      jump\t// in\n    tag_86:\n      dup1\n      iszero\n      tag_87\n      jumpi\n      dup1\n      0x1f\n      lt\n      tag_88\n      jumpi\n      0x0100\n      dup1\n      dup4\n      sload\n      div\n      mul\n      dup4\n      mstore\n      swap2\n      0x20\n      add\n      swap2\n      jump(tag_87)\n    tag_88:\n      dup3\n      add\n      swap2\n      swap1\n      0x00\n      mstore\n      keccak256(0x00, 0x20)\n      swap1\n    tag_89:\n      dup2\n      sload\n      dup2\n      mstore\n      swap1\n      0x01\n      add\n      swap1\n      0x20\n      add\n      dup1\n      dup4\n      gt\n      tag_89\n      jumpi\n      dup3\n      swap1\n      sub\n      0x1f\n      and\n      dup3\n      add\n      swap2\n    tag_87:\n      pop\n      pop\n      pop\n      pop\n      pop\n      swap1\n      dup1\n      0x02\n      add\n      0x00\n      swap1\n      sload\n      swap1\n      0x0100\n      exp\n      swap1\n      div\n      0xff\n      and\n      swap1\n      pop\n      dup4\n      jump\t// out\n        /* \"contracts/BaseContract.sol\":2874:2935  mapping(address=>SertifikaMerkezi) public sertifikaMerkezleri */\n    tag_30:\n      mstore(0x20, 0x0a)\n      dup1\n      0x00\n      mstore\n      keccak256(0x00, 0x40)\n      0x00\n      swap2\n      pop\n      swap1\n      pop\n      dup1\n      0x00\n      add\n      0x00\n      swap1\n      sload\n      swap1\n      0x0100\n      exp\n      swap1\n      div\n      0xff\n      and\n      swap1\n      dup1\n      0x01\n      add\n      dup1\n      sload\n      tag_90\n      swap1\n      tag_80\n      jump\t// in\n    tag_90:\n      dup1\n      0x1f\n      add\n      0x20\n      dup1\n      swap2\n      div\n      mul\n      0x20\n      add\n      mload(0x40)\n      swap1\n      dup2\n      add\n      0x40\n      mstore\n      dup1\n      swap3\n      swap2\n      swap1\n      dup2\n      dup2\n      mstore\n      0x20\n      add\n      dup3\n      dup1\n      sload\n      tag_91\n      swap1\n      tag_80\n      jump\t// in\n    tag_91:\n      dup1\n      iszero\n      tag_92\n      jumpi\n      dup1\n      0x1f\n      lt\n      tag_93\n      jumpi\n      0x0100\n      dup1\n      dup4\n      sload\n      div\n      mul\n      dup4\n      mstore\n      swap2\n      0x20\n      add\n      swap2\n      jump(tag_92)\n    tag_93:\n      dup3\n      add\n      swap2\n      swap1\n      0x00\n      mstore\n      keccak256(0x00, 0x20)\n      swap1\n    tag_94:\n      dup2\n      sload\n      dup2\n      mstore\n      swap1\n      0x01\n      add\n      swap1\n      0x20\n      add\n      dup1\n      dup4\n      gt\n      tag_94\n      jumpi\n      dup3\n      swap1\n      sub\n      0x1f\n      and\n      dup3\n      add\n      swap2\n    tag_92:\n      pop\n      pop\n      pop\n      pop\n      pop\n      swap1\n      dup1\n      0x02\n      add\n      0x00\n      swap1\n      sload\n      swap1\n      0x0100\n      exp\n      swap1\n      div\n      0xff\n      and\n      swap1\n      pop\n      dup4\n      jump\t// out\n        /* \"contracts/BaseContract.sol\":2684:2724  mapping(address=>Firma) public  firmalar */\n    tag_34:\n      mstore(0x20, 0x06)\n      dup1\n      0x00\n      mstore\n      keccak256(0x00, 0x40)\n      0x00\n      swap2\n      pop\n      swap1\n      pop\n      dup1\n      0x00\n      add\n      0x00\n      swap1\n      sload\n      swap1\n      0x0100\n      exp\n      swap1\n      div\n      0xff\n      and\n      swap1\n      dup1\n      0x00\n      add\n      0x01\n      swap1\n      sload\n      swap1\n      0x0100\n      exp\n      swap1\n      div\n      0xff\n      and\n      swap1\n      dup1\n      0x01\n      add\n      sload\n      swap1\n      dup1\n      0x02\n      add\n      dup1\n      sload\n      tag_95\n      swap1\n      tag_80\n      jump\t// in\n    tag_95:\n      dup1\n      0x1f\n      add\n      0x20\n      dup1\n      swap2\n      div\n      mul\n      0x20\n      add\n      mload(0x40)\n      swap1\n      dup2\n      add\n      0x40\n      mstore\n      dup1\n      swap3\n      swap2\n      swap1\n      dup2\n      dup2\n      mstore\n      0x20\n      add\n      dup3\n      dup1\n      sload\n      tag_96\n      swap1\n      tag_80\n      jump\t// in\n    tag_96:\n      dup1\n      iszero\n      tag_97\n      jumpi\n      dup1\n      0x1f\n      lt\n      tag_98\n      jumpi\n      0x0100\n      dup1\n      dup4\n      sload\n      div\n      mul\n      dup4\n      mstore\n      swap2\n      0x20\n      add\n      swap2\n      jump(tag_97)\n    tag_98:\n      dup3\n      add\n      swap2\n      swap1\n      0x00\n      mstore\n      keccak256(0x00, 0x20)\n      swap1\n    tag_99:\n      dup2\n      sload\n      dup2\n      mstore\n      swap1\n      0x01\n      add\n      swap1\n      0x20\n      add\n      dup1\n      dup4\n      gt\n      tag_99\n      jumpi\n      dup3\n      swap1\n      sub\n      0x1f\n      and\n      dup3\n      add\n      swap2\n    tag_97:\n      pop\n      pop\n      pop\n      pop\n      pop\n      swap1\n      pop\n      dup5\n      jump\t// out\n        /* \"contracts/YabanciDilBilgileri.sol\":478:556  mapping(address=>mapping(uint=>YabanciDilBilgi)) public yabanciDilBilgiListesi */\n    tag_40:\n      mstore(0x20, 0x0d)\n      dup2\n      0x00\n      mstore\n      mstore(0x20, keccak256(0x00, 0x40))\n      dup1\n      0x00\n      mstore\n      keccak256(0x00, 0x40)\n      0x00\n      swap2\n      pop\n      swap2\n      pop\n      pop\n      dup1\n      0x00\n      add\n      sload\n      swap1\n      dup1\n      0x01\n      add\n      0x00\n      swap1\n      sload\n      swap1\n      0x0100\n      exp\n      swap1\n      div\n      0xff\n      and\n      swap1\n      dup1\n      0x01\n      add\n      0x01\n      swap1\n      sload\n      swap1\n      0x0100\n      exp\n      swap1\n      div\n      0xffffffffffffffffffffffffffffffffffffffff\n      and\n      swap1\n      dup1\n      0x02\n      add\n      sload\n      swap1\n      dup1\n      0x03\n      add\n      sload\n      swap1\n      dup1\n      0x04\n      add\n      0x00\n      swap1\n      sload\n      swap1\n      0x0100\n      exp\n      swap1\n      div\n      0xff\n      and\n      swap1\n      dup1\n      0x04\n      add\n      0x01\n      swap1\n      sload\n      swap1\n      0x0100\n      exp\n      swap1\n      div\n      0xffffffff\n      and\n      swap1\n      pop\n      dup8\n      jump\t// out\n        /* \"contracts/YabanciDilBilgileri.sol\":938:1877  function ekleYabanciDilBilgi(address _kisiAddress, YabanciDilBilgi memory _ydBilgi)  public sadece_Uni_Firma_Kamu{\r... */\n    tag_46:\n        /* \"contracts/BaseContract.sol\":2197:2210  universiteler */\n      0x04\n        /* \"contracts/BaseContract.sol\":2197:2222  universiteler[msg.sender] */\n      0x00\n        /* \"contracts/BaseContract.sol\":2211:2221  msg.sender */\n      caller\n        /* \"contracts/BaseContract.sol\":2197:2222  universiteler[msg.sender] */\n      0xffffffffffffffffffffffffffffffffffffffff\n      and\n      0xffffffffffffffffffffffffffffffffffffffff\n      and\n      dup2\n      mstore\n      0x20\n      add\n      swap1\n      dup2\n      mstore\n      0x20\n      add\n      0x00\n      keccak256\n        /* \"contracts/BaseContract.sol\":2197:2228  universiteler[msg.sender].durum */\n      0x00\n      add\n      0x00\n      swap1\n      sload\n      swap1\n      0x0100\n      exp\n      swap1\n      div\n      0xff\n      and\n        /* \"contracts/BaseContract.sol\":2197:2256  universiteler[msg.sender].durum||firmalar[msg.sender].durum */\n      dup1\n      tag_101\n      jumpi\n      pop\n        /* \"contracts/BaseContract.sol\":2230:2238  firmalar */\n      0x06\n        /* \"contracts/BaseContract.sol\":2230:2250  firmalar[msg.sender] */\n      0x00\n        /* \"contracts/BaseContract.sol\":2239:2249  msg.sender */\n      caller\n        /* \"contracts/BaseContract.sol\":2230:2250  firmalar[msg.sender] */\n      0xffffffffffffffffffffffffffffffffffffffff\n      and\n      0xffffffffffffffffffffffffffffffffffffffff\n      and\n      dup2\n      mstore\n      0x20\n      add\n      swap1\n      dup2\n      mstore\n      0x20\n      add\n      0x00\n      keccak256\n        /* \"contracts/BaseContract.sol\":2230:2256  firmalar[msg.sender].durum */\n      0x00\n      add\n      0x00\n      swap1\n      sload\n      swap1\n      0x0100\n      exp\n      swap1\n      div\n      0xff\n      and\n        /* \"contracts/BaseContract.sol\":2197:2256  universiteler[msg.sender].durum||firmalar[msg.sender].durum */\n    tag_101:\n        /* \"contracts/BaseContract.sol\":2197:2289  universiteler[msg.sender].durum||firmalar[msg.sender].durum||kamuKurumlari[msg.sender].durum */\n      dup1\n      tag_102\n      jumpi\n      pop\n        /* \"contracts/BaseContract.sol\":2258:2271  kamuKurumlari */\n      0x08\n        /* \"contracts/BaseContract.sol\":2258:2283  kamuKurumlari[msg.sender] */\n      0x00\n        /* \"contracts/BaseContract.sol\":2272:2282  msg.sender */\n      caller\n        /* \"contracts/BaseContract.sol\":2258:2283  kamuKurumlari[msg.sender] */\n      0xffffffffffffffffffffffffffffffffffffffff\n      and\n      0xffffffffffffffffffffffffffffffffffffffff\n      and\n      dup2\n      mstore\n      0x20\n      add\n      swap1\n      dup2\n      mstore\n      0x20\n      add\n      0x00\n      keccak256\n        /* \"contracts/BaseContract.sol\":2258:2289  kamuKurumlari[msg.sender].durum */\n      0x00\n      add\n      0x00\n      swap1\n      sload\n      swap1\n      0x0100\n      exp\n      swap1\n      div\n      0xff\n      and\n        /* \"contracts/BaseContract.sol\":2197:2289  universiteler[msg.sender].durum||firmalar[msg.sender].durum||kamuKurumlari[msg.sender].durum */\n    tag_102:\n        /* \"contracts/BaseContract.sol\":2189:2341  require(universiteler[msg.sender].durum||firmalar[msg.sender].durum||kamuKurumlari[msg.sender].durum,\r... */\n      tag_103\n      jumpi\n      mload(0x40)\n      0x08c379a000000000000000000000000000000000000000000000000000000000\n      dup2\n      mstore\n      0x04\n      add\n      tag_104\n      swap1\n      tag_105\n      jump\t// in\n    tag_104:\n      mload(0x40)\n      dup1\n      swap2\n      sub\n      swap1\n      revert\n    tag_103:\n        /* \"contracts/YabanciDilBilgileri.sol\":1075:1082  kisiler */\n      0x03\n        /* \"contracts/YabanciDilBilgileri.sol\":1075:1096  kisiler[_kisiAddress] */\n      0x00\n        /* \"contracts/YabanciDilBilgileri.sol\":1083:1095  _kisiAddress */\n      dup4\n        /* \"contracts/YabanciDilBilgileri.sol\":1075:1096  kisiler[_kisiAddress] */\n      0xffffffffffffffffffffffffffffffffffffffff\n      and\n      0xffffffffffffffffffffffffffffffffffffffff\n      and\n      dup2\n      mstore\n      0x20\n      add\n      swap1\n      dup2\n      mstore\n      0x20\n      add\n      0x00\n      keccak256\n        /* \"contracts/YabanciDilBilgileri.sol\":1075:1102  kisiler[_kisiAddress].durum */\n      0x00\n      add\n      0x00\n      swap1\n      sload\n      swap1\n      0x0100\n      exp\n      swap1\n      div\n      0xff\n      and\n        /* \"contracts/YabanciDilBilgileri.sol\":1067:1123  require(kisiler[_kisiAddress].durum,\"Kisi mevcut degil\") */\n      tag_107\n      jumpi\n      mload(0x40)\n      0x08c379a000000000000000000000000000000000000000000000000000000000\n      dup2\n      mstore\n      0x04\n      add\n      tag_108\n      swap1\n      tag_109\n      jump\t// in\n    tag_108:\n      mload(0x40)\n      dup1\n      swap2\n      sub\n      swap1\n      revert\n    tag_107:\n        /* \"contracts/YabanciDilBilgileri.sol\":1139:1150  uint yeniId */\n      0x00\n        /* \"contracts/YabanciDilBilgileri.sol\":1151:1153  id */\n      0x0c\n      0x00\n        /* \"contracts/YabanciDilBilgileri.sol\":1151:1155  id++ */\n      dup2\n      sload\n      dup1\n      swap3\n      swap2\n      swap1\n      tag_110\n      swap1\n      tag_111\n      jump\t// in\n    tag_110:\n      swap2\n      swap1\n      pop\n      sstore\n        /* \"contracts/YabanciDilBilgileri.sol\":1139:1155  uint yeniId=id++ */\n      swap1\n      pop\n        /* \"contracts/YabanciDilBilgileri.sol\":1230:1238  _ydBilgi */\n      dup2\n        /* \"contracts/YabanciDilBilgileri.sol\":1230:1252  _ydBilgi.onayKurumTipi */\n      0x20\n      add\n      mload\n        /* \"contracts/YabanciDilBilgileri.sol\":1171:1193  yabanciDilBilgiListesi */\n      0x0d\n        /* \"contracts/YabanciDilBilgileri.sol\":1171:1207  yabanciDilBilgiListesi[_kisiAddress] */\n      0x00\n        /* \"contracts/YabanciDilBilgileri.sol\":1194:1206  _kisiAddress */\n      dup6\n        /* \"contracts/YabanciDilBilgileri.sol\":1171:1207  yabanciDilBilgiListesi[_kisiAddress] */\n      0xffffffffffffffffffffffffffffffffffffffff\n      and\n      0xffffffffffffffffffffffffffffffffffffffff\n      and\n      dup2\n      mstore\n      0x20\n      add\n      swap1\n      dup2\n      mstore\n      0x20\n      add\n      0x00\n      keccak256\n        /* \"contracts/YabanciDilBilgileri.sol\":1171:1215  yabanciDilBilgiListesi[_kisiAddress][yeniId] */\n      0x00\n        /* \"contracts/YabanciDilBilgileri.sol\":1208:1214  yeniId */\n      dup4\n        /* \"contracts/YabanciDilBilgileri.sol\":1171:1215  yabanciDilBilgiListesi[_kisiAddress][yeniId] */\n      dup2\n      mstore\n      0x20\n      add\n      swap1\n      dup2\n      mstore\n      0x20\n      add\n      0x00\n      keccak256\n        /* \"contracts/YabanciDilBilgileri.sol\":1171:1229  yabanciDilBilgiListesi[_kisiAddress][yeniId].onayKurumTipi */\n      0x01\n      add\n      0x00\n        /* \"contracts/YabanciDilBilgileri.sol\":1171:1252  yabanciDilBilgiListesi[_kisiAddress][yeniId].onayKurumTipi=_ydBilgi.onayKurumTipi */\n      0x0100\n      exp\n      dup2\n      sload\n      dup2\n      0xff\n      mul\n      not\n      and\n      swap1\n      dup4\n      0x04\n      dup2\n      gt\n      iszero\n      tag_112\n      jumpi\n      tag_113\n      tag_114\n      jump\t// in\n    tag_113:\n    tag_112:\n      mul\n      or\n      swap1\n      sstore\n      pop\n        /* \"contracts/YabanciDilBilgileri.sol\":1323:1331  _ydBilgi */\n      dup2\n        /* \"contracts/YabanciDilBilgileri.sol\":1323:1341  _ydBilgi.onayKurum */\n      0x40\n      add\n      mload\n        /* \"contracts/YabanciDilBilgileri.sol\":1268:1290  yabanciDilBilgiListesi */\n      0x0d\n        /* \"contracts/YabanciDilBilgileri.sol\":1268:1304  yabanciDilBilgiListesi[_kisiAddress] */\n      0x00\n        /* \"contracts/YabanciDilBilgileri.sol\":1291:1303  _kisiAddress */\n      dup6\n        /* \"contracts/YabanciDilBilgileri.sol\":1268:1304  yabanciDilBilgiListesi[_kisiAddress] */\n      0xffffffffffffffffffffffffffffffffffffffff\n      and\n      0xffffffffffffffffffffffffffffffffffffffff\n      and\n      dup2\n      mstore\n      0x20\n      add\n      swap1\n      dup2\n      mstore\n      0x20\n      add\n      0x00\n      keccak256\n        /* \"contracts/YabanciDilBilgileri.sol\":1268:1312  yabanciDilBilgiListesi[_kisiAddress][yeniId] */\n      0x00\n        /* \"contracts/YabanciDilBilgileri.sol\":1305:1311  yeniId */\n      dup4\n        /* \"contracts/YabanciDilBilgileri.sol\":1268:1312  yabanciDilBilgiListesi[_kisiAddress][yeniId] */\n      dup2\n      mstore\n      0x20\n      add\n      swap1\n      dup2\n      mstore\n      0x20\n      add\n      0x00\n      keccak256\n        /* \"contracts/YabanciDilBilgileri.sol\":1268:1322  yabanciDilBilgiListesi[_kisiAddress][yeniId].onayKurum */\n      0x01\n      add\n      0x01\n        /* \"contracts/YabanciDilBilgileri.sol\":1268:1341  yabanciDilBilgiListesi[_kisiAddress][yeniId].onayKurum=_ydBilgi.onayKurum */\n      0x0100\n      exp\n      dup2\n      sload\n      dup2\n      0xffffffffffffffffffffffffffffffffffffffff\n      mul\n      not\n      and\n      swap1\n      dup4\n      0xffffffffffffffffffffffffffffffffffffffff\n      and\n      mul\n      or\n      swap1\n      sstore\n      pop\n        /* \"contracts/YabanciDilBilgileri.sol\":1411:1419  _ydBilgi */\n      dup2\n        /* \"contracts/YabanciDilBilgileri.sol\":1411:1428  _ydBilgi.basTarih */\n      0x60\n      add\n      mload\n        /* \"contracts/YabanciDilBilgileri.sol\":1357:1379  yabanciDilBilgiListesi */\n      0x0d\n        /* \"contracts/YabanciDilBilgileri.sol\":1357:1393  yabanciDilBilgiListesi[_kisiAddress] */\n      0x00\n        /* \"contracts/YabanciDilBilgileri.sol\":1380:1392  _kisiAddress */\n      dup6\n        /* \"contracts/YabanciDilBilgileri.sol\":1357:1393  yabanciDilBilgiListesi[_kisiAddress] */\n      0xffffffffffffffffffffffffffffffffffffffff\n      and\n      0xffffffffffffffffffffffffffffffffffffffff\n      and\n      dup2\n      mstore\n      0x20\n      add\n      swap1\n      dup2\n      mstore\n      0x20\n      add\n      0x00\n      keccak256\n        /* \"contracts/YabanciDilBilgileri.sol\":1357:1401  yabanciDilBilgiListesi[_kisiAddress][yeniId] */\n      0x00\n        /* \"contracts/YabanciDilBilgileri.sol\":1394:1400  yeniId */\n      dup4\n        /* \"contracts/YabanciDilBilgileri.sol\":1357:1401  yabanciDilBilgiListesi[_kisiAddress][yeniId] */\n      dup2\n      mstore\n      0x20\n      add\n      swap1\n      dup2\n      mstore\n      0x20\n      add\n      0x00\n      keccak256\n        /* \"contracts/YabanciDilBilgileri.sol\":1357:1410  yabanciDilBilgiListesi[_kisiAddress][yeniId].basTarih */\n      0x02\n      add\n        /* \"contracts/YabanciDilBilgileri.sol\":1357:1428  yabanciDilBilgiListesi[_kisiAddress][yeniId].basTarih=_ydBilgi.basTarih */\n      dup2\n      swap1\n      sstore\n      pop\n        /* \"contracts/YabanciDilBilgileri.sol\":1498:1506  _ydBilgi */\n      dup2\n        /* \"contracts/YabanciDilBilgileri.sol\":1498:1515  _ydBilgi.bitTarih */\n      0x80\n      add\n      mload\n        /* \"contracts/YabanciDilBilgileri.sol\":1444:1466  yabanciDilBilgiListesi */\n      0x0d\n        /* \"contracts/YabanciDilBilgileri.sol\":1444:1480  yabanciDilBilgiListesi[_kisiAddress] */\n      0x00\n        /* \"contracts/YabanciDilBilgileri.sol\":1467:1479  _kisiAddress */\n      dup6\n        /* \"contracts/YabanciDilBilgileri.sol\":1444:1480  yabanciDilBilgiListesi[_kisiAddress] */\n      0xffffffffffffffffffffffffffffffffffffffff\n      and\n      0xffffffffffffffffffffffffffffffffffffffff\n      and\n      dup2\n      mstore\n      0x20\n      add\n      swap1\n      dup2\n      mstore\n      0x20\n      add\n      0x00\n      keccak256\n        /* \"contracts/YabanciDilBilgileri.sol\":1444:1488  yabanciDilBilgiListesi[_kisiAddress][yeniId] */\n      0x00\n        /* \"contracts/YabanciDilBilgileri.sol\":1481:1487  yeniId */\n      dup4\n        /* \"contracts/YabanciDilBilgileri.sol\":1444:1488  yabanciDilBilgiListesi[_kisiAddress][yeniId] */\n      dup2\n      mstore\n      0x20\n      add\n      swap1\n      dup2\n      mstore\n      0x20\n      add\n      0x00\n      keccak256\n        /* \"contracts/YabanciDilBilgileri.sol\":1444:1497  yabanciDilBilgiListesi[_kisiAddress][yeniId].bitTarih */\n      0x03\n      add\n        /* \"contracts/YabanciDilBilgileri.sol\":1444:1515  yabanciDilBilgiListesi[_kisiAddress][yeniId].bitTarih=_ydBilgi.bitTarih */\n      dup2\n      swap1\n      sstore\n      pop\n        /* \"contracts/YabanciDilBilgileri.sol\":1588:1596  _ydBilgi */\n      dup2\n        /* \"contracts/YabanciDilBilgileri.sol\":1588:1608  _ydBilgi.ogretimTipi */\n      0xa0\n      add\n      mload\n        /* \"contracts/YabanciDilBilgileri.sol\":1531:1553  yabanciDilBilgiListesi */\n      0x0d\n        /* \"contracts/YabanciDilBilgileri.sol\":1531:1567  yabanciDilBilgiListesi[_kisiAddress] */\n      0x00\n        /* \"contracts/YabanciDilBilgileri.sol\":1554:1566  _kisiAddress */\n      dup6\n        /* \"contracts/YabanciDilBilgileri.sol\":1531:1567  yabanciDilBilgiListesi[_kisiAddress] */\n      0xffffffffffffffffffffffffffffffffffffffff\n      and\n      0xffffffffffffffffffffffffffffffffffffffff\n      and\n      dup2\n      mstore\n      0x20\n      add\n      swap1\n      dup2\n      mstore\n      0x20\n      add\n      0x00\n      keccak256\n        /* \"contracts/YabanciDilBilgileri.sol\":1531:1575  yabanciDilBilgiListesi[_kisiAddress][yeniId] */\n      0x00\n        /* \"contracts/YabanciDilBilgileri.sol\":1568:1574  yeniId */\n      dup4\n        /* \"contracts/YabanciDilBilgileri.sol\":1531:1575  yabanciDilBilgiListesi[_kisiAddress][yeniId] */\n      dup2\n      mstore\n      0x20\n      add\n      swap1\n      dup2\n      mstore\n      0x20\n      add\n      0x00\n      keccak256\n        /* \"contracts/YabanciDilBilgileri.sol\":1531:1587  yabanciDilBilgiListesi[_kisiAddress][yeniId].ogretimTipi */\n      0x04\n      add\n      0x00\n        /* \"contracts/YabanciDilBilgileri.sol\":1531:1608  yabanciDilBilgiListesi[_kisiAddress][yeniId].ogretimTipi=_ydBilgi.ogretimTipi */\n      0x0100\n      exp\n      dup2\n      sload\n      dup2\n      0xff\n      mul\n      not\n      and\n      swap1\n      dup4\n      0x03\n      dup2\n      gt\n      iszero\n      tag_115\n      jumpi\n      tag_116\n      tag_114\n      jump\t// in\n    tag_116:\n    tag_115:\n      mul\n      or\n      swap1\n      sstore\n      pop\n        /* \"contracts/YabanciDilBilgileri.sol\":1675:1683  _ydBilgi */\n      dup2\n        /* \"contracts/YabanciDilBilgileri.sol\":1675:1689  _ydBilgi.dilId */\n      0xc0\n      add\n      mload\n        /* \"contracts/YabanciDilBilgileri.sol\":1624:1646  yabanciDilBilgiListesi */\n      0x0d\n        /* \"contracts/YabanciDilBilgileri.sol\":1624:1660  yabanciDilBilgiListesi[_kisiAddress] */\n      0x00\n        /* \"contracts/YabanciDilBilgileri.sol\":1647:1659  _kisiAddress */\n      dup6\n        /* \"contracts/YabanciDilBilgileri.sol\":1624:1660  yabanciDilBilgiListesi[_kisiAddress] */\n      0xffffffffffffffffffffffffffffffffffffffff\n      and\n      0xffffffffffffffffffffffffffffffffffffffff\n      and\n      dup2\n      mstore\n      0x20\n      add\n      swap1\n      dup2\n      mstore\n      0x20\n      add\n      0x00\n      keccak256\n        /* \"contracts/YabanciDilBilgileri.sol\":1624:1668  yabanciDilBilgiListesi[_kisiAddress][yeniId] */\n      0x00\n        /* \"contracts/YabanciDilBilgileri.sol\":1661:1667  yeniId */\n      dup4\n        /* \"contracts/YabanciDilBilgileri.sol\":1624:1668  yabanciDilBilgiListesi[_kisiAddress][yeniId] */\n      dup2\n      mstore\n      0x20\n      add\n      swap1\n      dup2\n      mstore\n      0x20\n      add\n      0x00\n      keccak256\n        /* \"contracts/YabanciDilBilgileri.sol\":1624:1674  yabanciDilBilgiListesi[_kisiAddress][yeniId].dilId */\n      0x04\n      add\n      0x01\n        /* \"contracts/YabanciDilBilgileri.sol\":1624:1689  yabanciDilBilgiListesi[_kisiAddress][yeniId].dilId=_ydBilgi.dilId */\n      0x0100\n      exp\n      dup2\n      sload\n      dup2\n      0xffffffff\n      mul\n      not\n      and\n      swap1\n      dup4\n      0xffffffff\n      and\n      mul\n      or\n      swap1\n      sstore\n      pop\n        /* \"contracts/YabanciDilBilgileri.sol\":1723:1865  YabanciDilEklendiLog(_ydBilgi.onayKurumTipi, _ydBilgi.onayKurum,  _ydBilgi.basTarih,  _ydBilgi.bitTarih, _ydBilgi.ogretimTipi, _ydBilgi.dilId) */\n      0x7ba1bbcf238bfcb5340d21d7c5589befed8cf4fd0b2a031a143aab22cf1d047b\n        /* \"contracts/YabanciDilBilgileri.sol\":1744:1752  _ydBilgi */\n      dup3\n        /* \"contracts/YabanciDilBilgileri.sol\":1744:1766  _ydBilgi.onayKurumTipi */\n      0x20\n      add\n      mload\n        /* \"contracts/YabanciDilBilgileri.sol\":1768:1776  _ydBilgi */\n      dup4\n        /* \"contracts/YabanciDilBilgileri.sol\":1768:1786  _ydBilgi.onayKurum */\n      0x40\n      add\n      mload\n        /* \"contracts/YabanciDilBilgileri.sol\":1789:1797  _ydBilgi */\n      dup5\n        /* \"contracts/YabanciDilBilgileri.sol\":1789:1806  _ydBilgi.basTarih */\n      0x60\n      add\n      mload\n        /* \"contracts/YabanciDilBilgileri.sol\":1809:1817  _ydBilgi */\n      dup6\n        /* \"contracts/YabanciDilBilgileri.sol\":1809:1826  _ydBilgi.bitTarih */\n      0x80\n      add\n      mload\n        /* \"contracts/YabanciDilBilgileri.sol\":1828:1836  _ydBilgi */\n      dup7\n        /* \"contracts/YabanciDilBilgileri.sol\":1828:1848  _ydBilgi.ogretimTipi */\n      0xa0\n      add\n      mload\n        /* \"contracts/YabanciDilBilgileri.sol\":1850:1858  _ydBilgi */\n      dup8\n        /* \"contracts/YabanciDilBilgileri.sol\":1850:1864  _ydBilgi.dilId */\n      0xc0\n      add\n      mload\n        /* \"contracts/YabanciDilBilgileri.sol\":1723:1865  YabanciDilEklendiLog(_ydBilgi.onayKurumTipi, _ydBilgi.onayKurum,  _ydBilgi.basTarih,  _ydBilgi.bitTarih, _ydBilgi.ogretimTipi, _ydBilgi.dilId) */\n      mload(0x40)\n      tag_117\n      swap7\n      swap6\n      swap5\n      swap4\n      swap3\n      swap2\n      swap1\n      tag_118\n      jump\t// in\n    tag_117:\n      mload(0x40)\n      dup1\n      swap2\n      sub\n      swap1\n      log1\n        /* \"contracts/YabanciDilBilgileri.sol\":1051:1877  {\r... */\n      pop\n        /* \"contracts/YabanciDilBilgileri.sol\":938:1877  function ekleYabanciDilBilgi(address _kisiAddress, YabanciDilBilgi memory _ydBilgi)  public sadece_Uni_Firma_Kamu{\r... */\n      pop\n      pop\n      jump\t// out\n        /* \"contracts/BaseContract.sol\":2776:2825  mapping(address=>KamuKurumu) public kamuKurumlari */\n    tag_49:\n      mstore(0x20, 0x08)\n      dup1\n      0x00\n      mstore\n      keccak256(0x00, 0x40)\n      0x00\n      swap2\n      pop\n      swap1\n      pop\n      dup1\n      0x00\n      add\n      0x00\n      swap1\n      sload\n      swap1\n      0x0100\n      exp\n      swap1\n      div\n      0xff\n      and\n      swap1\n      dup1\n      0x01\n      add\n      dup1\n      sload\n      tag_119\n      swap1\n      tag_80\n      jump\t// in\n    tag_119:\n      dup1\n      0x1f\n      add\n      0x20\n      dup1\n      swap2\n      div\n      mul\n      0x20\n      add\n      mload(0x40)\n      swap1\n      dup2\n      add\n      0x40\n      mstore\n      dup1\n      swap3\n      swap2\n      swap1\n      dup2\n      dup2\n      mstore\n      0x20\n      add\n      dup3\n      dup1\n      sload\n      tag_120\n      swap1\n      tag_80\n      jump\t// in\n    tag_120:\n      dup1\n      iszero\n      tag_121\n      jumpi\n      dup1\n      0x1f\n      lt\n      tag_122\n      jumpi\n      0x0100\n      dup1\n      dup4\n      sload\n      div\n      mul\n      dup4\n      mstore\n      swap2\n      0x20\n      add\n      swap2\n      jump(tag_121)\n    tag_122:\n      dup3\n      add\n      swap2\n      swap1\n      0x00\n      mstore\n      keccak256(0x00, 0x20)\n      swap1\n    tag_123:\n      dup2\n      sload\n      dup2\n      mstore\n      swap1\n      0x01\n      add\n      swap1\n      0x20\n      add\n      dup1\n      dup4\n      gt\n      tag_123\n      jumpi\n      dup3\n      swap1\n      sub\n      0x1f\n      and\n      dup3\n      add\n      swap2\n    tag_121:\n      pop\n      pop\n      pop\n      pop\n      pop\n      swap1\n      dup1\n      0x02\n      add\n      0x00\n      swap1\n      sload\n      swap1\n      0x0100\n      exp\n      swap1\n      div\n      0xff\n      and\n      swap1\n      pop\n      dup4\n      jump\t// out\n        /* \"contracts/BaseContract.sol\":2832:2867  mapping(address=>STK) public stklar */\n    tag_53:\n      mstore(0x20, 0x09)\n      dup1\n      0x00\n      mstore\n      keccak256(0x00, 0x40)\n      0x00\n      swap2\n      pop\n      swap1\n      pop\n      dup1\n      0x00\n      add\n      0x00\n      swap1\n      sload\n      swap1\n      0x0100\n      exp\n      swap1\n      div\n      0xff\n      and\n      swap1\n      dup1\n      0x01\n      add\n      dup1\n      sload\n      tag_124\n      swap1\n      tag_80\n      jump\t// in\n    tag_124:\n      dup1\n      0x1f\n      add\n      0x20\n      dup1\n      swap2\n      div\n      mul\n      0x20\n      add\n      mload(0x40)\n      swap1\n      dup2\n      add\n      0x40\n      mstore\n      dup1\n      swap3\n      swap2\n      swap1\n      dup2\n      dup2\n      mstore\n      0x20\n      add\n      dup3\n      dup1\n      sload\n      tag_125\n      swap1\n      tag_80\n      jump\t// in\n    tag_125:\n      dup1\n      iszero\n      tag_126\n      jumpi\n      dup1\n      0x1f\n      lt\n      tag_127\n      jumpi\n      0x0100\n      dup1\n      dup4\n      sload\n      div\n      mul\n      dup4\n      mstore\n      swap2\n      0x20\n      add\n      swap2\n      jump(tag_126)\n    tag_127:\n      dup3\n      add\n      swap2\n      swap1\n      0x00\n      mstore\n      keccak256(0x00, 0x20)\n      swap1\n    tag_128:\n      dup2\n      sload\n      dup2\n      mstore\n      swap1\n      0x01\n      add\n      swap1\n      0x20\n      add\n      dup1\n      dup4\n      gt\n      tag_128\n      jumpi\n      dup3\n      swap1\n      sub\n      0x1f\n      and\n      dup3\n      add\n      swap2\n    tag_126:\n      pop\n      pop\n      pop\n      pop\n      pop\n      swap1\n      dup1\n      0x02\n      add\n      0x00\n      swap1\n      sload\n      swap1\n      0x0100\n      exp\n      swap1\n      div\n      0xff\n      and\n      swap1\n      pop\n      dup4\n      jump\t// out\n        /* \"contracts/BaseContract.sol\":2945:2986  mapping(uint32=>YabanciDil) public diller */\n    tag_58:\n      mstore(0x20, 0x0b)\n      dup1\n      0x00\n      mstore\n      keccak256(0x00, 0x40)\n      0x00\n      swap2\n      pop\n      swap1\n      pop\n      dup1\n      0x00\n      add\n      0x00\n      swap1\n      sload\n      swap1\n      0x0100\n      exp\n      swap1\n      div\n      0xffffffff\n      and\n      swap1\n      dup1\n      0x01\n      add\n      dup1\n      sload\n      tag_129\n      swap1\n      tag_80\n      jump\t// in\n    tag_129:\n      dup1\n      0x1f\n      add\n      0x20\n      dup1\n      swap2\n      div\n      mul\n      0x20\n      add\n      mload(0x40)\n      swap1\n      dup2\n      add\n      0x40\n      mstore\n      dup1\n      swap3\n      swap2\n      swap1\n      dup2\n      dup2\n      mstore\n      0x20\n      add\n      dup3\n      dup1\n      sload\n      tag_130\n      swap1\n      tag_80\n      jump\t// in\n    tag_130:\n      dup1\n      iszero\n      tag_131\n      jumpi\n      dup1\n      0x1f\n      lt\n      tag_132\n      jumpi\n      0x0100\n      dup1\n      dup4\n      sload\n      div\n      mul\n      dup4\n      mstore\n      swap2\n      0x20\n      add\n      swap2\n      jump(tag_131)\n    tag_132:\n      dup3\n      add\n      swap2\n      swap1\n      0x00\n      mstore\n      keccak256(0x00, 0x20)\n      swap1\n    tag_133:\n      dup2\n      sload\n      dup2\n      mstore\n      swap1\n      0x01\n      add\n      swap1\n      0x20\n      add\n      dup1\n      dup4\n      gt\n      tag_133\n      jumpi\n      dup3\n      swap1\n      sub\n      0x1f\n      and\n      dup3\n      add\n      swap2\n    tag_131:\n      pop\n      pop\n      pop\n      pop\n      pop\n      swap1\n      pop\n      dup3\n      jump\t// out\n        /* \"contracts/YabanciDilBilgileri.sol\":186:200  uint public id */\n    tag_62:\n      sload(0x0c)\n      dup2\n      jump\t// out\n        /* \"contracts/BaseContract.sol\":2626:2677  mapping(address=>Akademisyen) public akademisyenler */\n    tag_67:\n      mstore(0x20, 0x05)\n      dup1\n      0x00\n      mstore\n      keccak256(0x00, 0x40)\n      0x00\n      swap2\n      pop\n      swap1\n      pop\n      dup1\n      0x00\n      add\n      0x00\n      swap1\n      sload\n      swap1\n      0x0100\n      exp\n      swap1\n      div\n      0xff\n      and\n      swap1\n      dup1\n      0x00\n      add\n      0x01\n      swap1\n      sload\n      swap1\n      0x0100\n      exp\n      swap1\n      div\n      0xffffffffffffffffffffffffffffffffffffffff\n      and\n      swap1\n      dup1\n      0x00\n      add\n      0x15\n      swap1\n      sload\n      swap1\n      0x0100\n      exp\n      swap1\n      div\n      0xffff\n      and\n      swap1\n      dup1\n      0x00\n      add\n      0x17\n      swap1\n      sload\n      swap1\n      0x0100\n      exp\n      swap1\n      div\n      0xff\n      and\n      swap1\n      dup1\n      0x01\n      add\n      dup1\n      sload\n      tag_134\n      swap1\n      tag_80\n      jump\t// in\n    tag_134:\n      dup1\n      0x1f\n      add\n      0x20\n      dup1\n      swap2\n      div\n      mul\n      0x20\n      add\n      mload(0x40)\n      swap1\n      dup2\n      add\n      0x40\n      mstore\n      dup1\n      swap3\n      swap2\n      swap1\n      dup2\n      dup2\n      mstore\n      0x20\n      add\n      dup3\n      dup1\n      sload\n      tag_135\n      swap1\n      tag_80\n      jump\t// in\n    tag_135:\n      dup1\n      iszero\n      tag_136\n      jumpi\n      dup1\n      0x1f\n      lt\n      tag_137\n      jumpi\n      0x0100\n      dup1\n      dup4\n      sload\n      div\n      mul\n      dup4\n      mstore\n      swap2\n      0x20\n      add\n      swap2\n      jump(tag_136)\n    tag_137:\n      dup3\n      add\n      swap2\n      swap1\n      0x00\n      mstore\n      keccak256(0x00, 0x20)\n      swap1\n    tag_138:\n      dup2\n      sload\n      dup2\n      mstore\n      swap1\n      0x01\n      add\n      swap1\n      0x20\n      add\n      dup1\n      dup4\n      gt\n      tag_138\n      jumpi\n      dup3\n      swap1\n      sub\n      0x1f\n      and\n      dup3\n      add\n      swap2\n    tag_136:\n      pop\n      pop\n      pop\n      pop\n      pop\n      swap1\n      dup1\n      0x02\n      add\n      dup1\n      sload\n      tag_139\n      swap1\n      tag_80\n      jump\t// in\n    tag_139:\n      dup1\n      0x1f\n      add\n      0x20\n      dup1\n      swap2\n      div\n      mul\n      0x20\n      add\n      mload(0x40)\n      swap1\n      dup2\n      add\n      0x40\n      mstore\n      dup1\n      swap3\n      swap2\n      swap1\n      dup2\n      dup2\n      mstore\n      0x20\n      add\n      dup3\n      dup1\n      sload\n      tag_140\n      swap1\n      tag_80\n      jump\t// in\n    tag_140:\n      dup1\n      iszero\n      tag_141\n      jumpi\n      dup1\n      0x1f\n      lt\n      tag_142\n      jumpi\n      0x0100\n      dup1\n      dup4\n      sload\n      div\n      mul\n      dup4\n      mstore\n      swap2\n      0x20\n      add\n      swap2\n      jump(tag_141)\n    tag_142:\n      dup3\n      add\n      swap2\n      swap1\n      0x00\n      mstore\n      keccak256(0x00, 0x20)\n      swap1\n    tag_143:\n      dup2\n      sload\n      dup2\n      mstore\n      swap1\n      0x01\n      add\n      swap1\n      0x20\n      add\n      dup1\n      dup4\n      gt\n      tag_143\n      jumpi\n      dup3\n      swap1\n      sub\n      0x1f\n      and\n      dup3\n      add\n      swap2\n    tag_141:\n      pop\n      pop\n      pop\n      pop\n      pop\n      swap1\n      pop\n      dup7\n      jump\t// out\n        /* \"contracts/BaseContract.sol\":2526:2563  mapping(address=>Kisi) public kisiler */\n    tag_72:\n      mstore(0x20, 0x03)\n      dup1\n      0x00\n      mstore\n      keccak256(0x00, 0x40)\n      0x00\n      swap2\n      pop\n      swap1\n      pop\n      dup1\n      0x00\n      add\n      0x00\n      swap1\n      sload\n      swap1\n      0x0100\n      exp\n      swap1\n      div\n      0xff\n      and\n      swap1\n      pop\n      dup2\n      jump\t// out\n        /* \"contracts/YabanciDilBilgileri.sol\":1889:2935  function guncelleYabanciDilBilgi(address _kisiAddress, YabanciDilBilgi memory _ydBilgi)  public sadece_Uni_Firma_Kamu returns(uint){\r... */\n    tag_77:\n        /* \"contracts/YabanciDilBilgileri.sol\":2015:2019  uint */\n      0x00\n        /* \"contracts/BaseContract.sol\":2197:2210  universiteler */\n      0x04\n        /* \"contracts/BaseContract.sol\":2197:2222  universiteler[msg.sender] */\n      0x00\n        /* \"contracts/BaseContract.sol\":2211:2221  msg.sender */\n      caller\n        /* \"contracts/BaseContract.sol\":2197:2222  universiteler[msg.sender] */\n      0xffffffffffffffffffffffffffffffffffffffff\n      and\n      0xffffffffffffffffffffffffffffffffffffffff\n      and\n      dup2\n      mstore\n      0x20\n      add\n      swap1\n      dup2\n      mstore\n      0x20\n      add\n      0x00\n      keccak256\n        /* \"contracts/BaseContract.sol\":2197:2228  universiteler[msg.sender].durum */\n      0x00\n      add\n      0x00\n      swap1\n      sload\n      swap1\n      0x0100\n      exp\n      swap1\n      div\n      0xff\n      and\n        /* \"contracts/BaseContract.sol\":2197:2256  universiteler[msg.sender].durum||firmalar[msg.sender].durum */\n      dup1\n      tag_145\n      jumpi\n      pop\n        /* \"contracts/BaseContract.sol\":2230:2238  firmalar */\n      0x06\n        /* \"contracts/BaseContract.sol\":2230:2250  firmalar[msg.sender] */\n      0x00\n        /* \"contracts/BaseContract.sol\":2239:2249  msg.sender */\n      caller\n        /* \"contracts/BaseContract.sol\":2230:2250  firmalar[msg.sender] */\n      0xffffffffffffffffffffffffffffffffffffffff\n      and\n      0xffffffffffffffffffffffffffffffffffffffff\n      and\n      dup2\n      mstore\n      0x20\n      add\n      swap1\n      dup2\n      mstore\n      0x20\n      add\n      0x00\n      keccak256\n        /* \"contracts/BaseContract.sol\":2230:2256  firmalar[msg.sender].durum */\n      0x00\n      add\n      0x00\n      swap1\n      sload\n      swap1\n      0x0100\n      exp\n      swap1\n      div\n      0xff\n      and\n        /* \"contracts/BaseContract.sol\":2197:2256  universiteler[msg.sender].durum||firmalar[msg.sender].durum */\n    tag_145:\n        /* \"contracts/BaseContract.sol\":2197:2289  universiteler[msg.sender].durum||firmalar[msg.sender].durum||kamuKurumlari[msg.sender].durum */\n      dup1\n      tag_146\n      jumpi\n      pop\n        /* \"contracts/BaseContract.sol\":2258:2271  kamuKurumlari */\n      0x08\n        /* \"contracts/BaseContract.sol\":2258:2283  kamuKurumlari[msg.sender] */\n      0x00\n        /* \"contracts/BaseContract.sol\":2272:2282  msg.sender */\n      caller\n        /* \"contracts/BaseContract.sol\":2258:2283  kamuKurumlari[msg.sender] */\n      0xffffffffffffffffffffffffffffffffffffffff\n      and\n      0xffffffffffffffffffffffffffffffffffffffff\n      and\n      dup2\n      mstore\n      0x20\n      add\n      swap1\n      dup2\n      mstore\n      0x20\n      add\n      0x00\n      keccak256\n        /* \"contracts/BaseContract.sol\":2258:2289  kamuKurumlari[msg.sender].durum */\n      0x00\n      add\n      0x00\n      swap1\n      sload\n      swap1\n      0x0100\n      exp\n      swap1\n      div\n      0xff\n      and\n        /* \"contracts/BaseContract.sol\":2197:2289  universiteler[msg.sender].durum||firmalar[msg.sender].durum||kamuKurumlari[msg.sender].durum */\n    tag_146:\n        /* \"contracts/BaseContract.sol\":2189:2341  require(universiteler[msg.sender].durum||firmalar[msg.sender].durum||kamuKurumlari[msg.sender].durum,\r... */\n      tag_147\n      jumpi\n      mload(0x40)\n      0x08c379a000000000000000000000000000000000000000000000000000000000\n      dup2\n      mstore\n      0x04\n      add\n      tag_148\n      swap1\n      tag_105\n      jump\t// in\n    tag_148:\n      mload(0x40)\n      dup1\n      swap2\n      sub\n      swap1\n      revert\n    tag_147:\n        /* \"contracts/YabanciDilBilgileri.sol\":2047:2054  kisiler */\n      0x03\n        /* \"contracts/YabanciDilBilgileri.sol\":2047:2068  kisiler[_kisiAddress] */\n      0x00\n        /* \"contracts/YabanciDilBilgileri.sol\":2055:2067  _kisiAddress */\n      dup5\n        /* \"contracts/YabanciDilBilgileri.sol\":2047:2068  kisiler[_kisiAddress] */\n      0xffffffffffffffffffffffffffffffffffffffff\n      and\n      0xffffffffffffffffffffffffffffffffffffffff\n      and\n      dup2\n      mstore\n      0x20\n      add\n      swap1\n      dup2\n      mstore\n      0x20\n      add\n      0x00\n      keccak256\n        /* \"contracts/YabanciDilBilgileri.sol\":2047:2074  kisiler[_kisiAddress].durum */\n      0x00\n      add\n      0x00\n      swap1\n      sload\n      swap1\n      0x0100\n      exp\n      swap1\n      div\n      0xff\n      and\n        /* \"contracts/YabanciDilBilgileri.sol\":2039:2095  require(kisiler[_kisiAddress].durum,\"Kisi mevcut degil\") */\n      tag_150\n      jumpi\n      mload(0x40)\n      0x08c379a000000000000000000000000000000000000000000000000000000000\n      dup2\n      mstore\n      0x04\n      add\n      tag_151\n      swap1\n      tag_109\n      jump\t// in\n    tag_151:\n      mload(0x40)\n      dup1\n      swap2\n      sub\n      swap1\n      revert\n    tag_150:\n        /* \"contracts/YabanciDilBilgileri.sol\":2196:2204  _ydBilgi */\n      dup2\n        /* \"contracts/YabanciDilBilgileri.sol\":2196:2218  _ydBilgi.onayKurumTipi */\n      0x20\n      add\n      mload\n        /* \"contracts/YabanciDilBilgileri.sol\":2132:2154  yabanciDilBilgiListesi */\n      0x0d\n        /* \"contracts/YabanciDilBilgileri.sol\":2132:2168  yabanciDilBilgiListesi[_kisiAddress] */\n      0x00\n        /* \"contracts/YabanciDilBilgileri.sol\":2155:2167  _kisiAddress */\n      dup6\n        /* \"contracts/YabanciDilBilgileri.sol\":2132:2168  yabanciDilBilgiListesi[_kisiAddress] */\n      0xffffffffffffffffffffffffffffffffffffffff\n      and\n      0xffffffffffffffffffffffffffffffffffffffff\n      and\n      dup2\n      mstore\n      0x20\n      add\n      swap1\n      dup2\n      mstore\n      0x20\n      add\n      0x00\n      keccak256\n        /* \"contracts/YabanciDilBilgileri.sol\":2132:2181  yabanciDilBilgiListesi[_kisiAddress][_ydBilgi.id] */\n      0x00\n        /* \"contracts/YabanciDilBilgileri.sol\":2169:2177  _ydBilgi */\n      dup5\n        /* \"contracts/YabanciDilBilgileri.sol\":2169:2180  _ydBilgi.id */\n      0x00\n      add\n      mload\n        /* \"contracts/YabanciDilBilgileri.sol\":2132:2181  yabanciDilBilgiListesi[_kisiAddress][_ydBilgi.id] */\n      dup2\n      mstore\n      0x20\n      add\n      swap1\n      dup2\n      mstore\n      0x20\n      add\n      0x00\n      keccak256\n        /* \"contracts/YabanciDilBilgileri.sol\":2132:2195  yabanciDilBilgiListesi[_kisiAddress][_ydBilgi.id].onayKurumTipi */\n      0x01\n      add\n      0x00\n        /* \"contracts/YabanciDilBilgileri.sol\":2132:2218  yabanciDilBilgiListesi[_kisiAddress][_ydBilgi.id].onayKurumTipi=_ydBilgi.onayKurumTipi */\n      0x0100\n      exp\n      dup2\n      sload\n      dup2\n      0xff\n      mul\n      not\n      and\n      swap1\n      dup4\n      0x04\n      dup2\n      gt\n      iszero\n      tag_152\n      jumpi\n      tag_153\n      tag_114\n      jump\t// in\n    tag_153:\n    tag_152:\n      mul\n      or\n      swap1\n      sstore\n      pop\n        /* \"contracts/YabanciDilBilgileri.sol\":2297:2305  _ydBilgi */\n      dup2\n        /* \"contracts/YabanciDilBilgileri.sol\":2297:2315  _ydBilgi.onayKurum */\n      0x40\n      add\n      mload\n        /* \"contracts/YabanciDilBilgileri.sol\":2237:2259  yabanciDilBilgiListesi */\n      0x0d\n        /* \"contracts/YabanciDilBilgileri.sol\":2237:2273  yabanciDilBilgiListesi[_kisiAddress] */\n      0x00\n        /* \"contracts/YabanciDilBilgileri.sol\":2260:2272  _kisiAddress */\n      dup6\n        /* \"contracts/YabanciDilBilgileri.sol\":2237:2273  yabanciDilBilgiListesi[_kisiAddress] */\n      0xffffffffffffffffffffffffffffffffffffffff\n      and\n      0xffffffffffffffffffffffffffffffffffffffff\n      and\n      dup2\n      mstore\n      0x20\n      add\n      swap1\n      dup2\n      mstore\n      0x20\n      add\n      0x00\n      keccak256\n        /* \"contracts/YabanciDilBilgileri.sol\":2237:2286  yabanciDilBilgiListesi[_kisiAddress][_ydBilgi.id] */\n      0x00\n        /* \"contracts/YabanciDilBilgileri.sol\":2274:2282  _ydBilgi */\n      dup5\n        /* \"contracts/YabanciDilBilgileri.sol\":2274:2285  _ydBilgi.id */\n      0x00\n      add\n      mload\n        /* \"contracts/YabanciDilBilgileri.sol\":2237:2286  yabanciDilBilgiListesi[_kisiAddress][_ydBilgi.id] */\n      dup2\n      mstore\n      0x20\n      add\n      swap1\n      dup2\n      mstore\n      0x20\n      add\n      0x00\n      keccak256\n        /* \"contracts/YabanciDilBilgileri.sol\":2237:2296  yabanciDilBilgiListesi[_kisiAddress][_ydBilgi.id].onayKurum */\n      0x01\n      add\n      0x01\n        /* \"contracts/YabanciDilBilgileri.sol\":2237:2315  yabanciDilBilgiListesi[_kisiAddress][_ydBilgi.id].onayKurum=_ydBilgi.onayKurum */\n      0x0100\n      exp\n      dup2\n      sload\n      dup2\n      0xffffffffffffffffffffffffffffffffffffffff\n      mul\n      not\n      and\n      swap1\n      dup4\n      0xffffffffffffffffffffffffffffffffffffffff\n      and\n      mul\n      or\n      swap1\n      sstore\n      pop\n        /* \"contracts/YabanciDilBilgileri.sol\":2393:2401  _ydBilgi */\n      dup2\n        /* \"contracts/YabanciDilBilgileri.sol\":2393:2410  _ydBilgi.basTarih */\n      0x60\n      add\n      mload\n        /* \"contracts/YabanciDilBilgileri.sol\":2334:2356  yabanciDilBilgiListesi */\n      0x0d\n        /* \"contracts/YabanciDilBilgileri.sol\":2334:2370  yabanciDilBilgiListesi[_kisiAddress] */\n      0x00\n        /* \"contracts/YabanciDilBilgileri.sol\":2357:2369  _kisiAddress */\n      dup6\n        /* \"contracts/YabanciDilBilgileri.sol\":2334:2370  yabanciDilBilgiListesi[_kisiAddress] */\n      0xffffffffffffffffffffffffffffffffffffffff\n      and\n      0xffffffffffffffffffffffffffffffffffffffff\n      and\n      dup2\n      mstore\n      0x20\n      add\n      swap1\n      dup2\n      mstore\n      0x20\n      add\n      0x00\n      keccak256\n        /* \"contracts/YabanciDilBilgileri.sol\":2334:2383  yabanciDilBilgiListesi[_kisiAddress][_ydBilgi.id] */\n      0x00\n        /* \"contracts/YabanciDilBilgileri.sol\":2371:2379  _ydBilgi */\n      dup5\n        /* \"contracts/YabanciDilBilgileri.sol\":2371:2382  _ydBilgi.id */\n      0x00\n      add\n      mload\n        /* \"contracts/YabanciDilBilgileri.sol\":2334:2383  yabanciDilBilgiListesi[_kisiAddress][_ydBilgi.id] */\n      dup2\n      mstore\n      0x20\n      add\n      swap1\n      dup2\n      mstore\n      0x20\n      add\n      0x00\n      keccak256\n        /* \"contracts/YabanciDilBilgileri.sol\":2334:2392  yabanciDilBilgiListesi[_kisiAddress][_ydBilgi.id].basTarih */\n      0x02\n      add\n        /* \"contracts/YabanciDilBilgileri.sol\":2334:2410  yabanciDilBilgiListesi[_kisiAddress][_ydBilgi.id].basTarih=_ydBilgi.basTarih */\n      dup2\n      swap1\n      sstore\n      pop\n        /* \"contracts/YabanciDilBilgileri.sol\":2488:2496  _ydBilgi */\n      dup2\n        /* \"contracts/YabanciDilBilgileri.sol\":2488:2505  _ydBilgi.bitTarih */\n      0x80\n      add\n      mload\n        /* \"contracts/YabanciDilBilgileri.sol\":2429:2451  yabanciDilBilgiListesi */\n      0x0d\n        /* \"contracts/YabanciDilBilgileri.sol\":2429:2465  yabanciDilBilgiListesi[_kisiAddress] */\n      0x00\n        /* \"contracts/YabanciDilBilgileri.sol\":2452:2464  _kisiAddress */\n      dup6\n        /* \"contracts/YabanciDilBilgileri.sol\":2429:2465  yabanciDilBilgiListesi[_kisiAddress] */\n      0xffffffffffffffffffffffffffffffffffffffff\n      and\n      0xffffffffffffffffffffffffffffffffffffffff\n      and\n      dup2\n      mstore\n      0x20\n      add\n      swap1\n      dup2\n      mstore\n      0x20\n      add\n      0x00\n      keccak256\n        /* \"contracts/YabanciDilBilgileri.sol\":2429:2478  yabanciDilBilgiListesi[_kisiAddress][_ydBilgi.id] */\n      0x00\n        /* \"contracts/YabanciDilBilgileri.sol\":2466:2474  _ydBilgi */\n      dup5\n        /* \"contracts/YabanciDilBilgileri.sol\":2466:2477  _ydBilgi.id */\n      0x00\n      add\n      mload\n        /* \"contracts/YabanciDilBilgileri.sol\":2429:2478  yabanciDilBilgiListesi[_kisiAddress][_ydBilgi.id] */\n      dup2\n      mstore\n      0x20\n      add\n      swap1\n      dup2\n      mstore\n      0x20\n      add\n      0x00\n      keccak256\n        /* \"contracts/YabanciDilBilgileri.sol\":2429:2487  yabanciDilBilgiListesi[_kisiAddress][_ydBilgi.id].bitTarih */\n      0x03\n      add\n        /* \"contracts/YabanciDilBilgileri.sol\":2429:2505  yabanciDilBilgiListesi[_kisiAddress][_ydBilgi.id].bitTarih=_ydBilgi.bitTarih */\n      dup2\n      swap1\n      sstore\n      pop\n        /* \"contracts/YabanciDilBilgileri.sol\":2586:2594  _ydBilgi */\n      dup2\n        /* \"contracts/YabanciDilBilgileri.sol\":2586:2606  _ydBilgi.ogretimTipi */\n      0xa0\n      add\n      mload\n        /* \"contracts/YabanciDilBilgileri.sol\":2524:2546  yabanciDilBilgiListesi */\n      0x0d\n        /* \"contracts/YabanciDilBilgileri.sol\":2524:2560  yabanciDilBilgiListesi[_kisiAddress] */\n      0x00\n        /* \"contracts/YabanciDilBilgileri.sol\":2547:2559  _kisiAddress */\n      dup6\n        /* \"contracts/YabanciDilBilgileri.sol\":2524:2560  yabanciDilBilgiListesi[_kisiAddress] */\n      0xffffffffffffffffffffffffffffffffffffffff\n      and\n      0xffffffffffffffffffffffffffffffffffffffff\n      and\n      dup2\n      mstore\n      0x20\n      add\n      swap1\n      dup2\n      mstore\n      0x20\n      add\n      0x00\n      keccak256\n        /* \"contracts/YabanciDilBilgileri.sol\":2524:2573  yabanciDilBilgiListesi[_kisiAddress][_ydBilgi.id] */\n      0x00\n        /* \"contracts/YabanciDilBilgileri.sol\":2561:2569  _ydBilgi */\n      dup5\n        /* \"contracts/YabanciDilBilgileri.sol\":2561:2572  _ydBilgi.id */\n      0x00\n      add\n      mload\n        /* \"contracts/YabanciDilBilgileri.sol\":2524:2573  yabanciDilBilgiListesi[_kisiAddress][_ydBilgi.id] */\n      dup2\n      mstore\n      0x20\n      add\n      swap1\n      dup2\n      mstore\n      0x20\n      add\n      0x00\n      keccak256\n        /* \"contracts/YabanciDilBilgileri.sol\":2524:2585  yabanciDilBilgiListesi[_kisiAddress][_ydBilgi.id].ogretimTipi */\n      0x04\n      add\n      0x00\n        /* \"contracts/YabanciDilBilgileri.sol\":2524:2606  yabanciDilBilgiListesi[_kisiAddress][_ydBilgi.id].ogretimTipi=_ydBilgi.ogretimTipi */\n      0x0100\n      exp\n      dup2\n      sload\n      dup2\n      0xff\n      mul\n      not\n      and\n      swap1\n      dup4\n      0x03\n      dup2\n      gt\n      iszero\n      tag_154\n      jumpi\n      tag_155\n      tag_114\n      jump\t// in\n    tag_155:\n    tag_154:\n      mul\n      or\n      swap1\n      sstore\n      pop\n        /* \"contracts/YabanciDilBilgileri.sol\":2681:2689  _ydBilgi */\n      dup2\n        /* \"contracts/YabanciDilBilgileri.sol\":2681:2695  _ydBilgi.dilId */\n      0xc0\n      add\n      mload\n        /* \"contracts/YabanciDilBilgileri.sol\":2625:2647  yabanciDilBilgiListesi */\n      0x0d\n        /* \"contracts/YabanciDilBilgileri.sol\":2625:2661  yabanciDilBilgiListesi[_kisiAddress] */\n      0x00\n        /* \"contracts/YabanciDilBilgileri.sol\":2648:2660  _kisiAddress */\n      dup6\n        /* \"contracts/YabanciDilBilgileri.sol\":2625:2661  yabanciDilBilgiListesi[_kisiAddress] */\n      0xffffffffffffffffffffffffffffffffffffffff\n      and\n      0xffffffffffffffffffffffffffffffffffffffff\n      and\n      dup2\n      mstore\n      0x20\n      add\n      swap1\n      dup2\n      mstore\n      0x20\n      add\n      0x00\n      keccak256\n        /* \"contracts/YabanciDilBilgileri.sol\":2625:2674  yabanciDilBilgiListesi[_kisiAddress][_ydBilgi.id] */\n      0x00\n        /* \"contracts/YabanciDilBilgileri.sol\":2662:2670  _ydBilgi */\n      dup5\n        /* \"contracts/YabanciDilBilgileri.sol\":2662:2673  _ydBilgi.id */\n      0x00\n      add\n      mload\n        /* \"contracts/YabanciDilBilgileri.sol\":2625:2674  yabanciDilBilgiListesi[_kisiAddress][_ydBilgi.id] */\n      dup2\n      mstore\n      0x20\n      add\n      swap1\n      dup2\n      mstore\n      0x20\n      add\n      0x00\n      keccak256\n        /* \"contracts/YabanciDilBilgileri.sol\":2625:2680  yabanciDilBilgiListesi[_kisiAddress][_ydBilgi.id].dilId */\n      0x04\n      add\n      0x01\n        /* \"contracts/YabanciDilBilgileri.sol\":2625:2695  yabanciDilBilgiListesi[_kisiAddress][_ydBilgi.id].dilId=_ydBilgi.dilId */\n      0x0100\n      exp\n      dup2\n      sload\n      dup2\n      0xffffffff\n      mul\n      not\n      and\n      swap1\n      dup4\n      0xffffffff\n      and\n      mul\n      or\n      swap1\n      sstore\n      pop\n        /* \"contracts/YabanciDilBilgileri.sol\":2735:2881  YabanciDilGuncellendiLog(_ydBilgi.onayKurumTipi, _ydBilgi.onayKurum,  _ydBilgi.basTarih,  _ydBilgi.bitTarih, _ydBilgi.ogretimTipi, _ydBilgi.dilId) */\n      0xe0af8937909276b9604018dff5ed05fce915311087fbe7ef361a586d7c2facda\n        /* \"contracts/YabanciDilBilgileri.sol\":2760:2768  _ydBilgi */\n      dup3\n        /* \"contracts/YabanciDilBilgileri.sol\":2760:2782  _ydBilgi.onayKurumTipi */\n      0x20\n      add\n      mload\n        /* \"contracts/YabanciDilBilgileri.sol\":2784:2792  _ydBilgi */\n      dup4\n        /* \"contracts/YabanciDilBilgileri.sol\":2784:2802  _ydBilgi.onayKurum */\n      0x40\n      add\n      mload\n        /* \"contracts/YabanciDilBilgileri.sol\":2805:2813  _ydBilgi */\n      dup5\n        /* \"contracts/YabanciDilBilgileri.sol\":2805:2822  _ydBilgi.basTarih */\n      0x60\n      add\n      mload\n        /* \"contracts/YabanciDilBilgileri.sol\":2825:2833  _ydBilgi */\n      dup6\n        /* \"contracts/YabanciDilBilgileri.sol\":2825:2842  _ydBilgi.bitTarih */\n      0x80\n      add\n      mload\n        /* \"contracts/YabanciDilBilgileri.sol\":2844:2852  _ydBilgi */\n      dup7\n        /* \"contracts/YabanciDilBilgileri.sol\":2844:2864  _ydBilgi.ogretimTipi */\n      0xa0\n      add\n      mload\n        /* \"contracts/YabanciDilBilgileri.sol\":2866:2874  _ydBilgi */\n      dup8\n        /* \"contracts/YabanciDilBilgileri.sol\":2866:2880  _ydBilgi.dilId */\n      0xc0\n      add\n      mload\n        /* \"contracts/YabanciDilBilgileri.sol\":2735:2881  YabanciDilGuncellendiLog(_ydBilgi.onayKurumTipi, _ydBilgi.onayKurum,  _ydBilgi.basTarih,  _ydBilgi.bitTarih, _ydBilgi.ogretimTipi, _ydBilgi.dilId) */\n      mload(0x40)\n      tag_156\n      swap7\n      swap6\n      swap5\n      swap4\n      swap3\n      swap2\n      swap1\n      tag_118\n      jump\t// in\n    tag_156:\n      mload(0x40)\n      dup1\n      swap2\n      sub\n      swap1\n      log1\n        /* \"contracts/YabanciDilBilgileri.sol\":2910:2918  _ydBilgi */\n      dup2\n        /* \"contracts/YabanciDilBilgileri.sol\":2910:2921  _ydBilgi.id */\n      0x00\n      add\n      mload\n        /* \"contracts/YabanciDilBilgileri.sol\":2900:2921  return    _ydBilgi.id */\n      swap1\n      pop\n        /* \"contracts/YabanciDilBilgileri.sol\":1889:2935  function guncelleYabanciDilBilgi(address _kisiAddress, YabanciDilBilgi memory _ydBilgi)  public sadece_Uni_Firma_Kamu returns(uint){\r... */\n      swap3\n      swap2\n      pop\n      pop\n      jump\t// out\n        /* \"#utility.yul\":7:146   */\n    tag_158:\n        /* \"#utility.yul\":53:58   */\n      0x00\n        /* \"#utility.yul\":91:97   */\n      dup2\n        /* \"#utility.yul\":78:98   */\n      calldataload\n        /* \"#utility.yul\":69:98   */\n      swap1\n      pop\n        /* \"#utility.yul\":107:140   */\n      tag_160\n        /* \"#utility.yul\":134:139   */\n      dup2\n        /* \"#utility.yul\":107:140   */\n      tag_161\n      jump\t// in\n    tag_160:\n        /* \"#utility.yul\":7:146   */\n      swap3\n      swap2\n      pop\n      pop\n      jump\t// out\n        /* \"#utility.yul\":152:321   */\n    tag_162:\n        /* \"#utility.yul\":213:218   */\n      0x00\n        /* \"#utility.yul\":251:257   */\n      dup2\n        /* \"#utility.yul\":238:258   */\n      calldataload\n        /* \"#utility.yul\":229:258   */\n      swap1\n      pop\n        /* \"#utility.yul\":267:315   */\n      tag_164\n        /* \"#utility.yul\":309:314   */\n      dup2\n        /* \"#utility.yul\":267:315   */\n      tag_165\n      jump\t// in\n    tag_164:\n        /* \"#utility.yul\":152:321   */\n      swap3\n      swap2\n      pop\n      pop\n      jump\t// out\n        /* \"#utility.yul\":327:500   */\n    tag_166:\n        /* \"#utility.yul\":390:395   */\n      0x00\n        /* \"#utility.yul\":428:434   */\n      dup2\n        /* \"#utility.yul\":415:435   */\n      calldataload\n        /* \"#utility.yul\":406:435   */\n      swap1\n      pop\n        /* \"#utility.yul\":444:494   */\n      tag_168\n        /* \"#utility.yul\":488:493   */\n      dup2\n        /* \"#utility.yul\":444:494   */\n      tag_169\n      jump\t// in\n    tag_168:\n        /* \"#utility.yul\":327:500   */\n      swap3\n      swap2\n      pop\n      pop\n      jump\t// out\n        /* \"#utility.yul\":556:2004   */\n    tag_170:\n        /* \"#utility.yul\":637:642   */\n      0x00\n        /* \"#utility.yul\":681:685   */\n      0xe0\n        /* \"#utility.yul\":669:678   */\n      dup3\n        /* \"#utility.yul\":664:667   */\n      dup5\n        /* \"#utility.yul\":660:679   */\n      sub\n        /* \"#utility.yul\":656:686   */\n      slt\n        /* \"#utility.yul\":653:770   */\n      iszero\n      tag_172\n      jumpi\n        /* \"#utility.yul\":689:768   */\n      tag_173\n      tag_174\n      jump\t// in\n    tag_173:\n        /* \"#utility.yul\":653:770   */\n    tag_172:\n        /* \"#utility.yul\":788:809   */\n      tag_175\n        /* \"#utility.yul\":804:808   */\n      0xe0\n        /* \"#utility.yul\":788:809   */\n      tag_176\n      jump\t// in\n    tag_175:\n        /* \"#utility.yul\":779:809   */\n      swap1\n      pop\n        /* \"#utility.yul\":866:867   */\n      0x00\n        /* \"#utility.yul\":906:955   */\n      tag_177\n        /* \"#utility.yul\":951:954   */\n      dup5\n        /* \"#utility.yul\":942:948   */\n      dup3\n        /* \"#utility.yul\":931:940   */\n      dup6\n        /* \"#utility.yul\":927:949   */\n      add\n        /* \"#utility.yul\":906:955   */\n      tag_178\n      jump\t// in\n    tag_177:\n        /* \"#utility.yul\":899:903   */\n      0x00\n        /* \"#utility.yul\":892:897   */\n      dup4\n        /* \"#utility.yul\":888:904   */\n      add\n        /* \"#utility.yul\":881:956   */\n      mstore\n        /* \"#utility.yul\":819:967   */\n      pop\n        /* \"#utility.yul\":1035:1037   */\n      0x20\n        /* \"#utility.yul\":1076:1142   */\n      tag_179\n        /* \"#utility.yul\":1138:1141   */\n      dup5\n        /* \"#utility.yul\":1129:1135   */\n      dup3\n        /* \"#utility.yul\":1118:1127   */\n      dup6\n        /* \"#utility.yul\":1114:1136   */\n      add\n        /* \"#utility.yul\":1076:1142   */\n      tag_166\n      jump\t// in\n    tag_179:\n        /* \"#utility.yul\":1069:1073   */\n      0x20\n        /* \"#utility.yul\":1062:1067   */\n      dup4\n        /* \"#utility.yul\":1058:1074   */\n      add\n        /* \"#utility.yul\":1051:1143   */\n      mstore\n        /* \"#utility.yul\":977:1154   */\n      pop\n        /* \"#utility.yul\":1218:1220   */\n      0x40\n        /* \"#utility.yul\":1259:1308   */\n      tag_180\n        /* \"#utility.yul\":1304:1307   */\n      dup5\n        /* \"#utility.yul\":1295:1301   */\n      dup3\n        /* \"#utility.yul\":1284:1293   */\n      dup6\n        /* \"#utility.yul\":1280:1302   */\n      add\n        /* \"#utility.yul\":1259:1308   */\n      tag_158\n      jump\t// in\n    tag_180:\n        /* \"#utility.yul\":1252:1256   */\n      0x40\n        /* \"#utility.yul\":1245:1250   */\n      dup4\n        /* \"#utility.yul\":1241:1257   */\n      add\n        /* \"#utility.yul\":1234:1309   */\n      mstore\n        /* \"#utility.yul\":1164:1320   */\n      pop\n        /* \"#utility.yul\":1383:1385   */\n      0x60\n        /* \"#utility.yul\":1424:1473   */\n      tag_181\n        /* \"#utility.yul\":1469:1472   */\n      dup5\n        /* \"#utility.yul\":1460:1466   */\n      dup3\n        /* \"#utility.yul\":1449:1458   */\n      dup6\n        /* \"#utility.yul\":1445:1467   */\n      add\n        /* \"#utility.yul\":1424:1473   */\n      tag_178\n      jump\t// in\n    tag_181:\n        /* \"#utility.yul\":1417:1421   */\n      0x60\n        /* \"#utility.yul\":1410:1415   */\n      dup4\n        /* \"#utility.yul\":1406:1422   */\n      add\n        /* \"#utility.yul\":1399:1474   */\n      mstore\n        /* \"#utility.yul\":1330:1485   */\n      pop\n        /* \"#utility.yul\":1548:1551   */\n      0x80\n        /* \"#utility.yul\":1590:1639   */\n      tag_182\n        /* \"#utility.yul\":1635:1638   */\n      dup5\n        /* \"#utility.yul\":1626:1632   */\n      dup3\n        /* \"#utility.yul\":1615:1624   */\n      dup6\n        /* \"#utility.yul\":1611:1633   */\n      add\n        /* \"#utility.yul\":1590:1639   */\n      tag_178\n      jump\t// in\n    tag_182:\n        /* \"#utility.yul\":1583:1587   */\n      0x80\n        /* \"#utility.yul\":1576:1581   */\n      dup4\n        /* \"#utility.yul\":1572:1588   */\n      add\n        /* \"#utility.yul\":1565:1640   */\n      mstore\n        /* \"#utility.yul\":1495:1651   */\n      pop\n        /* \"#utility.yul\":1717:1720   */\n      0xa0\n        /* \"#utility.yul\":1759:1823   */\n      tag_183\n        /* \"#utility.yul\":1819:1822   */\n      dup5\n        /* \"#utility.yul\":1810:1816   */\n      dup3\n        /* \"#utility.yul\":1799:1808   */\n      dup6\n        /* \"#utility.yul\":1795:1817   */\n      add\n        /* \"#utility.yul\":1759:1823   */\n      tag_162\n      jump\t// in\n    tag_183:\n        /* \"#utility.yul\":1752:1756   */\n      0xa0\n        /* \"#utility.yul\":1745:1750   */\n      dup4\n        /* \"#utility.yul\":1741:1757   */\n      add\n        /* \"#utility.yul\":1734:1824   */\n      mstore\n        /* \"#utility.yul\":1661:1835   */\n      pop\n        /* \"#utility.yul\":1895:1898   */\n      0xc0\n        /* \"#utility.yul\":1937:1985   */\n      tag_184\n        /* \"#utility.yul\":1981:1984   */\n      dup5\n        /* \"#utility.yul\":1972:1978   */\n      dup3\n        /* \"#utility.yul\":1961:1970   */\n      dup6\n        /* \"#utility.yul\":1957:1979   */\n      add\n        /* \"#utility.yul\":1937:1985   */\n      tag_185\n      jump\t// in\n    tag_184:\n        /* \"#utility.yul\":1930:1934   */\n      0xc0\n        /* \"#utility.yul\":1923:1928   */\n      dup4\n        /* \"#utility.yul\":1919:1935   */\n      add\n        /* \"#utility.yul\":1912:1986   */\n      mstore\n        /* \"#utility.yul\":1845:1997   */\n      pop\n        /* \"#utility.yul\":556:2004   */\n      swap3\n      swap2\n      pop\n      pop\n      jump\t// out\n        /* \"#utility.yul\":2010:2149   */\n    tag_178:\n        /* \"#utility.yul\":2056:2061   */\n      0x00\n        /* \"#utility.yul\":2094:2100   */\n      dup2\n        /* \"#utility.yul\":2081:2101   */\n      calldataload\n        /* \"#utility.yul\":2072:2101   */\n      swap1\n      pop\n        /* \"#utility.yul\":2110:2143   */\n      tag_187\n        /* \"#utility.yul\":2137:2142   */\n      dup2\n        /* \"#utility.yul\":2110:2143   */\n      tag_188\n      jump\t// in\n    tag_187:\n        /* \"#utility.yul\":2010:2149   */\n      swap3\n      swap2\n      pop\n      pop\n      jump\t// out\n        /* \"#utility.yul\":2155:2292   */\n    tag_185:\n        /* \"#utility.yul\":2200:2205   */\n      0x00\n        /* \"#utility.yul\":2238:2244   */\n      dup2\n        /* \"#utility.yul\":2225:2245   */\n      calldataload\n        /* \"#utility.yul\":2216:2245   */\n      swap1\n      pop\n        /* \"#utility.yul\":2254:2286   */\n      tag_190\n        /* \"#utility.yul\":2280:2285   */\n      dup2\n        /* \"#utility.yul\":2254:2286   */\n      tag_191\n      jump\t// in\n    tag_190:\n        /* \"#utility.yul\":2155:2292   */\n      swap3\n      swap2\n      pop\n      pop\n      jump\t// out\n        /* \"#utility.yul\":2298:2627   */\n    tag_20:\n        /* \"#utility.yul\":2357:2363   */\n      0x00\n        /* \"#utility.yul\":2406:2408   */\n      0x20\n        /* \"#utility.yul\":2394:2403   */\n      dup3\n        /* \"#utility.yul\":2385:2392   */\n      dup5\n        /* \"#utility.yul\":2381:2404   */\n      sub\n        /* \"#utility.yul\":2377:2409   */\n      slt\n        /* \"#utility.yul\":2374:2493   */\n      iszero\n      tag_193\n      jumpi\n        /* \"#utility.yul\":2412:2491   */\n      tag_194\n      tag_195\n      jump\t// in\n    tag_194:\n        /* \"#utility.yul\":2374:2493   */\n    tag_193:\n        /* \"#utility.yul\":2532:2533   */\n      0x00\n        /* \"#utility.yul\":2557:2610   */\n      tag_196\n        /* \"#utility.yul\":2602:2609   */\n      dup5\n        /* \"#utility.yul\":2593:2599   */\n      dup3\n        /* \"#utility.yul\":2582:2591   */\n      dup6\n        /* \"#utility.yul\":2578:2600   */\n      add\n        /* \"#utility.yul\":2557:2610   */\n      tag_158\n      jump\t// in\n    tag_196:\n        /* \"#utility.yul\":2547:2610   */\n      swap2\n      pop\n        /* \"#utility.yul\":2503:2620   */\n      pop\n        /* \"#utility.yul\":2298:2627   */\n      swap3\n      swap2\n      pop\n      pop\n      jump\t// out\n        /* \"#utility.yul\":2633:3172   */\n    tag_45:\n        /* \"#utility.yul\":2733:2739   */\n      0x00\n        /* \"#utility.yul\":2741:2747   */\n      dup1\n        /* \"#utility.yul\":2790:2793   */\n      0x0100\n        /* \"#utility.yul\":2778:2787   */\n      dup4\n        /* \"#utility.yul\":2769:2776   */\n      dup6\n        /* \"#utility.yul\":2765:2788   */\n      sub\n        /* \"#utility.yul\":2761:2794   */\n      slt\n        /* \"#utility.yul\":2758:2878   */\n      iszero\n      tag_198\n      jumpi\n        /* \"#utility.yul\":2797:2876   */\n      tag_199\n      tag_195\n      jump\t// in\n    tag_199:\n        /* \"#utility.yul\":2758:2878   */\n    tag_198:\n        /* \"#utility.yul\":2917:2918   */\n      0x00\n        /* \"#utility.yul\":2942:2995   */\n      tag_200\n        /* \"#utility.yul\":2987:2994   */\n      dup6\n        /* \"#utility.yul\":2978:2984   */\n      dup3\n        /* \"#utility.yul\":2967:2976   */\n      dup7\n        /* \"#utility.yul\":2963:2985   */\n      add\n        /* \"#utility.yul\":2942:2995   */\n      tag_158\n      jump\t// in\n    tag_200:\n        /* \"#utility.yul\":2932:2995   */\n      swap3\n      pop\n        /* \"#utility.yul\":2888:3005   */\n      pop\n        /* \"#utility.yul\":3044:3046   */\n      0x20\n        /* \"#utility.yul\":3070:3155   */\n      tag_201\n        /* \"#utility.yul\":3147:3154   */\n      dup6\n        /* \"#utility.yul\":3138:3144   */\n      dup3\n        /* \"#utility.yul\":3127:3136   */\n      dup7\n        /* \"#utility.yul\":3123:3145   */\n      add\n        /* \"#utility.yul\":3070:3155   */\n      tag_170\n      jump\t// in\n    tag_201:\n        /* \"#utility.yul\":3060:3155   */\n      swap2\n      pop\n        /* \"#utility.yul\":3015:3165   */\n      pop\n        /* \"#utility.yul\":2633:3172   */\n      swap3\n      pop\n      swap3\n      swap1\n      pop\n      jump\t// out\n        /* \"#utility.yul\":3178:3652   */\n    tag_39:\n        /* \"#utility.yul\":3246:3252   */\n      0x00\n        /* \"#utility.yul\":3254:3260   */\n      dup1\n        /* \"#utility.yul\":3303:3305   */\n      0x40\n        /* \"#utility.yul\":3291:3300   */\n      dup4\n        /* \"#utility.yul\":3282:3289   */\n      dup6\n        /* \"#utility.yul\":3278:3301   */\n      sub\n        /* \"#utility.yul\":3274:3306   */\n      slt\n        /* \"#utility.yul\":3271:3390   */\n      iszero\n      tag_203\n      jumpi\n        /* \"#utility.yul\":3309:3388   */\n      tag_204\n      tag_195\n      jump\t// in\n    tag_204:\n        /* \"#utility.yul\":3271:3390   */\n    tag_203:\n        /* \"#utility.yul\":3429:3430   */\n      0x00\n        /* \"#utility.yul\":3454:3507   */\n      tag_205\n        /* \"#utility.yul\":3499:3506   */\n      dup6\n        /* \"#utility.yul\":3490:3496   */\n      dup3\n        /* \"#utility.yul\":3479:3488   */\n      dup7\n        /* \"#utility.yul\":3475:3497   */\n      add\n        /* \"#utility.yul\":3454:3507   */\n      tag_158\n      jump\t// in\n    tag_205:\n        /* \"#utility.yul\":3444:3507   */\n      swap3\n      pop\n        /* \"#utility.yul\":3400:3517   */\n      pop\n        /* \"#utility.yul\":3556:3558   */\n      0x20\n        /* \"#utility.yul\":3582:3635   */\n      tag_206\n        /* \"#utility.yul\":3627:3634   */\n      dup6\n        /* \"#utility.yul\":3618:3624   */\n      dup3\n        /* \"#utility.yul\":3607:3616   */\n      dup7\n        /* \"#utility.yul\":3603:3625   */\n      add\n        /* \"#utility.yul\":3582:3635   */\n      tag_178\n      jump\t// in\n    tag_206:\n        /* \"#utility.yul\":3572:3635   */\n      swap2\n      pop\n        /* \"#utility.yul\":3527:3645   */\n      pop\n        /* \"#utility.yul\":3178:3652   */\n      swap3\n      pop\n      swap3\n      swap1\n      pop\n      jump\t// out\n        /* \"#utility.yul\":3658:3985   */\n    tag_57:\n        /* \"#utility.yul\":3716:3722   */\n      0x00\n        /* \"#utility.yul\":3765:3767   */\n      0x20\n        /* \"#utility.yul\":3753:3762   */\n      dup3\n        /* \"#utility.yul\":3744:3751   */\n      dup5\n        /* \"#utility.yul\":3740:3763   */\n      sub\n        /* \"#utility.yul\":3736:3768   */\n      slt\n        /* \"#utility.yul\":3733:3852   */\n      iszero\n      tag_208\n      jumpi\n        /* \"#utility.yul\":3771:3850   */\n      tag_209\n      tag_195\n      jump\t// in\n    tag_209:\n        /* \"#utility.yul\":3733:3852   */\n    tag_208:\n        /* \"#utility.yul\":3891:3892   */\n      0x00\n        /* \"#utility.yul\":3916:3968   */\n      tag_210\n        /* \"#utility.yul\":3960:3967   */\n      dup5\n        /* \"#utility.yul\":3951:3957   */\n      dup3\n        /* \"#utility.yul\":3940:3949   */\n      dup6\n        /* \"#utility.yul\":3936:3958   */\n      add\n        /* \"#utility.yul\":3916:3968   */\n      tag_185\n      jump\t// in\n    tag_210:\n        /* \"#utility.yul\":3906:3968   */\n      swap2\n      pop\n        /* \"#utility.yul\":3862:3978   */\n      pop\n        /* \"#utility.yul\":3658:3985   */\n      swap3\n      swap2\n      pop\n      pop\n      jump\t// out\n        /* \"#utility.yul\":3991:4109   */\n    tag_211:\n        /* \"#utility.yul\":4078:4102   */\n      tag_213\n        /* \"#utility.yul\":4096:4101   */\n      dup2\n        /* \"#utility.yul\":4078:4102   */\n      tag_214\n      jump\t// in\n    tag_213:\n        /* \"#utility.yul\":4073:4076   */\n      dup3\n        /* \"#utility.yul\":4066:4103   */\n      mstore\n        /* \"#utility.yul\":3991:4109   */\n      pop\n      pop\n      jump\t// out\n        /* \"#utility.yul\":4115:4224   */\n    tag_215:\n        /* \"#utility.yul\":4196:4217   */\n      tag_217\n        /* \"#utility.yul\":4211:4216   */\n      dup2\n        /* \"#utility.yul\":4196:4217   */\n      tag_218\n      jump\t// in\n    tag_217:\n        /* \"#utility.yul\":4191:4194   */\n      dup3\n        /* \"#utility.yul\":4184:4218   */\n      mstore\n        /* \"#utility.yul\":4115:4224   */\n      pop\n      pop\n      jump\t// out\n        /* \"#utility.yul\":4230:4387   */\n    tag_219:\n        /* \"#utility.yul\":4330:4380   */\n      tag_221\n        /* \"#utility.yul\":4374:4379   */\n      dup2\n        /* \"#utility.yul\":4330:4380   */\n      tag_222\n      jump\t// in\n    tag_221:\n        /* \"#utility.yul\":4325:4328   */\n      dup3\n        /* \"#utility.yul\":4318:4381   */\n      mstore\n        /* \"#utility.yul\":4230:4387   */\n      pop\n      pop\n      jump\t// out\n        /* \"#utility.yul\":4393:4554   */\n    tag_223:\n        /* \"#utility.yul\":4495:4547   */\n      tag_225\n        /* \"#utility.yul\":4541:4546   */\n      dup2\n        /* \"#utility.yul\":4495:4547   */\n      tag_226\n      jump\t// in\n    tag_225:\n        /* \"#utility.yul\":4490:4493   */\n      dup3\n        /* \"#utility.yul\":4483:4548   */\n      mstore\n        /* \"#utility.yul\":4393:4554   */\n      pop\n      pop\n      jump\t// out\n        /* \"#utility.yul\":4560:4703   */\n    tag_227:\n        /* \"#utility.yul\":4653:4696   */\n      tag_229\n        /* \"#utility.yul\":4690:4695   */\n      dup2\n        /* \"#utility.yul\":4653:4696   */\n      tag_230\n      jump\t// in\n    tag_229:\n        /* \"#utility.yul\":4648:4651   */\n      dup3\n        /* \"#utility.yul\":4641:4697   */\n      mstore\n        /* \"#utility.yul\":4560:4703   */\n      pop\n      pop\n      jump\t// out\n        /* \"#utility.yul\":4709:5073   */\n    tag_231:\n        /* \"#utility.yul\":4797:4800   */\n      0x00\n        /* \"#utility.yul\":4825:4864   */\n      tag_233\n        /* \"#utility.yul\":4858:4863   */\n      dup3\n        /* \"#utility.yul\":4825:4864   */\n      tag_234\n      jump\t// in\n    tag_233:\n        /* \"#utility.yul\":4880:4951   */\n      tag_235\n        /* \"#utility.yul\":4944:4950   */\n      dup2\n        /* \"#utility.yul\":4939:4942   */\n      dup6\n        /* \"#utility.yul\":4880:4951   */\n      tag_236\n      jump\t// in\n    tag_235:\n        /* \"#utility.yul\":4873:4951   */\n      swap4\n      pop\n        /* \"#utility.yul\":4960:5012   */\n      tag_237\n        /* \"#utility.yul\":5005:5011   */\n      dup2\n        /* \"#utility.yul\":5000:5003   */\n      dup6\n        /* \"#utility.yul\":4993:4997   */\n      0x20\n        /* \"#utility.yul\":4986:4991   */\n      dup7\n        /* \"#utility.yul\":4982:4998   */\n      add\n        /* \"#utility.yul\":4960:5012   */\n      tag_238\n      jump\t// in\n    tag_237:\n        /* \"#utility.yul\":5037:5066   */\n      tag_239\n        /* \"#utility.yul\":5059:5065   */\n      dup2\n        /* \"#utility.yul\":5037:5066   */\n      tag_240\n      jump\t// in\n    tag_239:\n        /* \"#utility.yul\":5032:5035   */\n      dup5\n        /* \"#utility.yul\":5028:5067   */\n      add\n        /* \"#utility.yul\":5021:5067   */\n      swap2\n      pop\n        /* \"#utility.yul\":4801:5073   */\n      pop\n        /* \"#utility.yul\":4709:5073   */\n      swap3\n      swap2\n      pop\n      pop\n      jump\t// out\n        /* \"#utility.yul\":5079:5445   */\n    tag_241:\n        /* \"#utility.yul\":5221:5224   */\n      0x00\n        /* \"#utility.yul\":5242:5309   */\n      tag_243\n        /* \"#utility.yul\":5306:5308   */\n      0x11\n        /* \"#utility.yul\":5301:5304   */\n      dup4\n        /* \"#utility.yul\":5242:5309   */\n      tag_236\n      jump\t// in\n    tag_243:\n        /* \"#utility.yul\":5235:5309   */\n      swap2\n      pop\n        /* \"#utility.yul\":5318:5411   */\n      tag_244\n        /* \"#utility.yul\":5407:5410   */\n      dup3\n        /* \"#utility.yul\":5318:5411   */\n      tag_245\n      jump\t// in\n    tag_244:\n        /* \"#utility.yul\":5436:5438   */\n      0x20\n        /* \"#utility.yul\":5431:5434   */\n      dup3\n        /* \"#utility.yul\":5427:5439   */\n      add\n        /* \"#utility.yul\":5420:5439   */\n      swap1\n      pop\n        /* \"#utility.yul\":5079:5445   */\n      swap2\n      swap1\n      pop\n      jump\t// out\n        /* \"#utility.yul\":5451:5817   */\n    tag_246:\n        /* \"#utility.yul\":5593:5596   */\n      0x00\n        /* \"#utility.yul\":5614:5681   */\n      tag_248\n        /* \"#utility.yul\":5678:5680   */\n      0x20\n        /* \"#utility.yul\":5673:5676   */\n      dup4\n        /* \"#utility.yul\":5614:5681   */\n      tag_236\n      jump\t// in\n    tag_248:\n        /* \"#utility.yul\":5607:5681   */\n      swap2\n      pop\n        /* \"#utility.yul\":5690:5783   */\n      tag_249\n        /* \"#utility.yul\":5779:5782   */\n      dup3\n        /* \"#utility.yul\":5690:5783   */\n      tag_250\n      jump\t// in\n    tag_249:\n        /* \"#utility.yul\":5808:5810   */\n      0x20\n        /* \"#utility.yul\":5803:5806   */\n      dup3\n        /* \"#utility.yul\":5799:5811   */\n      add\n        /* \"#utility.yul\":5792:5811   */\n      swap1\n      pop\n        /* \"#utility.yul\":5451:5817   */\n      swap2\n      swap1\n      pop\n      jump\t// out\n        /* \"#utility.yul\":5823:5938   */\n    tag_251:\n        /* \"#utility.yul\":5908:5931   */\n      tag_253\n        /* \"#utility.yul\":5925:5930   */\n      dup2\n        /* \"#utility.yul\":5908:5931   */\n      tag_254\n      jump\t// in\n    tag_253:\n        /* \"#utility.yul\":5903:5906   */\n      dup3\n        /* \"#utility.yul\":5896:5932   */\n      mstore\n        /* \"#utility.yul\":5823:5938   */\n      pop\n      pop\n      jump\t// out\n        /* \"#utility.yul\":5944:6062   */\n    tag_255:\n        /* \"#utility.yul\":6031:6055   */\n      tag_257\n        /* \"#utility.yul\":6049:6054   */\n      dup2\n        /* \"#utility.yul\":6031:6055   */\n      tag_258\n      jump\t// in\n    tag_257:\n        /* \"#utility.yul\":6026:6029   */\n      dup3\n        /* \"#utility.yul\":6019:6056   */\n      mstore\n        /* \"#utility.yul\":5944:6062   */\n      pop\n      pop\n      jump\t// out\n        /* \"#utility.yul\":6068:6183   */\n    tag_259:\n        /* \"#utility.yul\":6153:6176   */\n      tag_261\n        /* \"#utility.yul\":6170:6175   */\n      dup2\n        /* \"#utility.yul\":6153:6176   */\n      tag_262\n      jump\t// in\n    tag_261:\n        /* \"#utility.yul\":6148:6151   */\n      dup3\n        /* \"#utility.yul\":6141:6177   */\n      mstore\n        /* \"#utility.yul\":6068:6183   */\n      pop\n      pop\n      jump\t// out\n        /* \"#utility.yul\":6189:6301   */\n    tag_263:\n        /* \"#utility.yul\":6272:6294   */\n      tag_265\n        /* \"#utility.yul\":6288:6293   */\n      dup2\n        /* \"#utility.yul\":6272:6294   */\n      tag_266\n      jump\t// in\n    tag_265:\n        /* \"#utility.yul\":6267:6270   */\n      dup3\n        /* \"#utility.yul\":6260:6295   */\n      mstore\n        /* \"#utility.yul\":6189:6301   */\n      pop\n      pop\n      jump\t// out\n        /* \"#utility.yul\":6307:6517   */\n    tag_74:\n        /* \"#utility.yul\":6394:6398   */\n      0x00\n        /* \"#utility.yul\":6432:6434   */\n      0x20\n        /* \"#utility.yul\":6421:6430   */\n      dup3\n        /* \"#utility.yul\":6417:6435   */\n      add\n        /* \"#utility.yul\":6409:6435   */\n      swap1\n      pop\n        /* \"#utility.yul\":6445:6510   */\n      tag_268\n        /* \"#utility.yul\":6507:6508   */\n      0x00\n        /* \"#utility.yul\":6496:6505   */\n      dup4\n        /* \"#utility.yul\":6492:6509   */\n      add\n        /* \"#utility.yul\":6483:6489   */\n      dup5\n        /* \"#utility.yul\":6445:6510   */\n      tag_215\n      jump\t// in\n    tag_268:\n        /* \"#utility.yul\":6307:6517   */\n      swap3\n      swap2\n      pop\n      pop\n      jump\t// out\n        /* \"#utility.yul\":6523:7476   */\n    tag_69:\n        /* \"#utility.yul\":6794:6798   */\n      0x00\n        /* \"#utility.yul\":6832:6835   */\n      0xc0\n        /* \"#utility.yul\":6821:6830   */\n      dup3\n        /* \"#utility.yul\":6817:6836   */\n      add\n        /* \"#utility.yul\":6809:6836   */\n      swap1\n      pop\n        /* \"#utility.yul\":6846:6911   */\n      tag_270\n        /* \"#utility.yul\":6908:6909   */\n      0x00\n        /* \"#utility.yul\":6897:6906   */\n      dup4\n        /* \"#utility.yul\":6893:6910   */\n      add\n        /* \"#utility.yul\":6884:6890   */\n      dup10\n        /* \"#utility.yul\":6846:6911   */\n      tag_215\n      jump\t// in\n    tag_270:\n        /* \"#utility.yul\":6921:6993   */\n      tag_271\n        /* \"#utility.yul\":6989:6991   */\n      0x20\n        /* \"#utility.yul\":6978:6987   */\n      dup4\n        /* \"#utility.yul\":6974:6992   */\n      add\n        /* \"#utility.yul\":6965:6971   */\n      dup9\n        /* \"#utility.yul\":6921:6993   */\n      tag_211\n      jump\t// in\n    tag_271:\n        /* \"#utility.yul\":7003:7073   */\n      tag_272\n        /* \"#utility.yul\":7069:7071   */\n      0x40\n        /* \"#utility.yul\":7058:7067   */\n      dup4\n        /* \"#utility.yul\":7054:7072   */\n      add\n        /* \"#utility.yul\":7045:7051   */\n      dup8\n        /* \"#utility.yul\":7003:7073   */\n      tag_251\n      jump\t// in\n    tag_272:\n        /* \"#utility.yul\":7083:7161   */\n      tag_273\n        /* \"#utility.yul\":7157:7159   */\n      0x60\n        /* \"#utility.yul\":7146:7155   */\n      dup4\n        /* \"#utility.yul\":7142:7160   */\n      add\n        /* \"#utility.yul\":7133:7139   */\n      dup7\n        /* \"#utility.yul\":7083:7161   */\n      tag_227\n      jump\t// in\n    tag_273:\n        /* \"#utility.yul\":7209:7218   */\n      dup2\n        /* \"#utility.yul\":7203:7207   */\n      dup2\n        /* \"#utility.yul\":7199:7219   */\n      sub\n        /* \"#utility.yul\":7193:7196   */\n      0x80\n        /* \"#utility.yul\":7182:7191   */\n      dup4\n        /* \"#utility.yul\":7178:7197   */\n      add\n        /* \"#utility.yul\":7171:7220   */\n      mstore\n        /* \"#utility.yul\":7237:7315   */\n      tag_274\n        /* \"#utility.yul\":7310:7314   */\n      dup2\n        /* \"#utility.yul\":7301:7307   */\n      dup6\n        /* \"#utility.yul\":7237:7315   */\n      tag_231\n      jump\t// in\n    tag_274:\n        /* \"#utility.yul\":7229:7315   */\n      swap1\n      pop\n        /* \"#utility.yul\":7363:7372   */\n      dup2\n        /* \"#utility.yul\":7357:7361   */\n      dup2\n        /* \"#utility.yul\":7353:7373   */\n      sub\n        /* \"#utility.yul\":7347:7350   */\n      0xa0\n        /* \"#utility.yul\":7336:7345   */\n      dup4\n        /* \"#utility.yul\":7332:7351   */\n      add\n        /* \"#utility.yul\":7325:7374   */\n      mstore\n        /* \"#utility.yul\":7391:7469   */\n      tag_275\n        /* \"#utility.yul\":7464:7468   */\n      dup2\n        /* \"#utility.yul\":7455:7461   */\n      dup5\n        /* \"#utility.yul\":7391:7469   */\n      tag_231\n      jump\t// in\n    tag_275:\n        /* \"#utility.yul\":7383:7469   */\n      swap1\n      pop\n        /* \"#utility.yul\":6523:7476   */\n      swap8\n      swap7\n      pop\n      pop\n      pop\n      pop\n      pop\n      pop\n      pop\n      jump\t// out\n        /* \"#utility.yul\":7482:7995   */\n    tag_23:\n        /* \"#utility.yul\":7641:7645   */\n      0x00\n        /* \"#utility.yul\":7679:7681   */\n      0x60\n        /* \"#utility.yul\":7668:7677   */\n      dup3\n        /* \"#utility.yul\":7664:7682   */\n      add\n        /* \"#utility.yul\":7656:7682   */\n      swap1\n      pop\n        /* \"#utility.yul\":7692:7757   */\n      tag_277\n        /* \"#utility.yul\":7754:7755   */\n      0x00\n        /* \"#utility.yul\":7743:7752   */\n      dup4\n        /* \"#utility.yul\":7739:7756   */\n      add\n        /* \"#utility.yul\":7730:7736   */\n      dup7\n        /* \"#utility.yul\":7692:7757   */\n      tag_215\n      jump\t// in\n    tag_277:\n        /* \"#utility.yul\":7804:7813   */\n      dup2\n        /* \"#utility.yul\":7798:7802   */\n      dup2\n        /* \"#utility.yul\":7794:7814   */\n      sub\n        /* \"#utility.yul\":7789:7791   */\n      0x20\n        /* \"#utility.yul\":7778:7787   */\n      dup4\n        /* \"#utility.yul\":7774:7792   */\n      add\n        /* \"#utility.yul\":7767:7815   */\n      mstore\n        /* \"#utility.yul\":7832:7910   */\n      tag_278\n        /* \"#utility.yul\":7905:7909   */\n      dup2\n        /* \"#utility.yul\":7896:7902   */\n      dup6\n        /* \"#utility.yul\":7832:7910   */\n      tag_231\n      jump\t// in\n    tag_278:\n        /* \"#utility.yul\":7824:7910   */\n      swap1\n      pop\n        /* \"#utility.yul\":7920:7988   */\n      tag_279\n        /* \"#utility.yul\":7984:7986   */\n      0x40\n        /* \"#utility.yul\":7973:7982   */\n      dup4\n        /* \"#utility.yul\":7969:7987   */\n      add\n        /* \"#utility.yul\":7960:7966   */\n      dup5\n        /* \"#utility.yul\":7920:7988   */\n      tag_263\n      jump\t// in\n    tag_279:\n        /* \"#utility.yul\":7482:7995   */\n      swap5\n      swap4\n      pop\n      pop\n      pop\n      pop\n      jump\t// out\n        /* \"#utility.yul\":8001:8625   */\n    tag_36:\n        /* \"#utility.yul\":8188:8192   */\n      0x00\n        /* \"#utility.yul\":8226:8229   */\n      0x80\n        /* \"#utility.yul\":8215:8224   */\n      dup3\n        /* \"#utility.yul\":8211:8230   */\n      add\n        /* \"#utility.yul\":8203:8230   */\n      swap1\n      pop\n        /* \"#utility.yul\":8240:8305   */\n      tag_281\n        /* \"#utility.yul\":8302:8303   */\n      0x00\n        /* \"#utility.yul\":8291:8300   */\n      dup4\n        /* \"#utility.yul\":8287:8304   */\n      add\n        /* \"#utility.yul\":8278:8284   */\n      dup8\n        /* \"#utility.yul\":8240:8305   */\n      tag_215\n      jump\t// in\n    tag_281:\n        /* \"#utility.yul\":8315:8383   */\n      tag_282\n        /* \"#utility.yul\":8379:8381   */\n      0x20\n        /* \"#utility.yul\":8368:8377   */\n      dup4\n        /* \"#utility.yul\":8364:8382   */\n      add\n        /* \"#utility.yul\":8355:8361   */\n      dup7\n        /* \"#utility.yul\":8315:8383   */\n      tag_263\n      jump\t// in\n    tag_282:\n        /* \"#utility.yul\":8393:8465   */\n      tag_283\n        /* \"#utility.yul\":8461:8463   */\n      0x40\n        /* \"#utility.yul\":8450:8459   */\n      dup4\n        /* \"#utility.yul\":8446:8464   */\n      add\n        /* \"#utility.yul\":8437:8443   */\n      dup6\n        /* \"#utility.yul\":8393:8465   */\n      tag_255\n      jump\t// in\n    tag_283:\n        /* \"#utility.yul\":8512:8521   */\n      dup2\n        /* \"#utility.yul\":8506:8510   */\n      dup2\n        /* \"#utility.yul\":8502:8522   */\n      sub\n        /* \"#utility.yul\":8497:8499   */\n      0x60\n        /* \"#utility.yul\":8486:8495   */\n      dup4\n        /* \"#utility.yul\":8482:8500   */\n      add\n        /* \"#utility.yul\":8475:8523   */\n      mstore\n        /* \"#utility.yul\":8540:8618   */\n      tag_284\n        /* \"#utility.yul\":8613:8617   */\n      dup2\n        /* \"#utility.yul\":8604:8610   */\n      dup5\n        /* \"#utility.yul\":8540:8618   */\n      tag_231\n      jump\t// in\n    tag_284:\n        /* \"#utility.yul\":8532:8618   */\n      swap1\n      pop\n        /* \"#utility.yul\":8001:8625   */\n      swap6\n      swap5\n      pop\n      pop\n      pop\n      pop\n      pop\n      jump\t// out\n        /* \"#utility.yul\":8631:9458   */\n    tag_118:\n        /* \"#utility.yul\":8890:8894   */\n      0x00\n        /* \"#utility.yul\":8928:8931   */\n      0xc0\n        /* \"#utility.yul\":8917:8926   */\n      dup3\n        /* \"#utility.yul\":8913:8932   */\n      add\n        /* \"#utility.yul\":8905:8932   */\n      swap1\n      pop\n        /* \"#utility.yul\":8942:9028   */\n      tag_286\n        /* \"#utility.yul\":9025:9026   */\n      0x00\n        /* \"#utility.yul\":9014:9023   */\n      dup4\n        /* \"#utility.yul\":9010:9027   */\n      add\n        /* \"#utility.yul\":9001:9007   */\n      dup10\n        /* \"#utility.yul\":8942:9028   */\n      tag_223\n      jump\t// in\n    tag_286:\n        /* \"#utility.yul\":9038:9110   */\n      tag_287\n        /* \"#utility.yul\":9106:9108   */\n      0x20\n        /* \"#utility.yul\":9095:9104   */\n      dup4\n        /* \"#utility.yul\":9091:9109   */\n      add\n        /* \"#utility.yul\":9082:9088   */\n      dup9\n        /* \"#utility.yul\":9038:9110   */\n      tag_211\n      jump\t// in\n    tag_287:\n        /* \"#utility.yul\":9120:9192   */\n      tag_288\n        /* \"#utility.yul\":9188:9190   */\n      0x40\n        /* \"#utility.yul\":9177:9186   */\n      dup4\n        /* \"#utility.yul\":9173:9191   */\n      add\n        /* \"#utility.yul\":9164:9170   */\n      dup8\n        /* \"#utility.yul\":9120:9192   */\n      tag_255\n      jump\t// in\n    tag_288:\n        /* \"#utility.yul\":9202:9274   */\n      tag_289\n        /* \"#utility.yul\":9270:9272   */\n      0x60\n        /* \"#utility.yul\":9259:9268   */\n      dup4\n        /* \"#utility.yul\":9255:9273   */\n      add\n        /* \"#utility.yul\":9246:9252   */\n      dup7\n        /* \"#utility.yul\":9202:9274   */\n      tag_255\n      jump\t// in\n    tag_289:\n        /* \"#utility.yul\":9284:9370   */\n      tag_290\n        /* \"#utility.yul\":9365:9368   */\n      0x80\n        /* \"#utility.yul\":9354:9363   */\n      dup4\n        /* \"#utility.yul\":9350:9369   */\n      add\n        /* \"#utility.yul\":9341:9347   */\n      dup6\n        /* \"#utility.yul\":9284:9370   */\n      tag_219\n      jump\t// in\n    tag_290:\n        /* \"#utility.yul\":9380:9451   */\n      tag_291\n        /* \"#utility.yul\":9446:9449   */\n      0xa0\n        /* \"#utility.yul\":9435:9444   */\n      dup4\n        /* \"#utility.yul\":9431:9450   */\n      add\n        /* \"#utility.yul\":9422:9428   */\n      dup5\n        /* \"#utility.yul\":9380:9451   */\n      tag_259\n      jump\t// in\n    tag_291:\n        /* \"#utility.yul\":8631:9458   */\n      swap8\n      swap7\n      pop\n      pop\n      pop\n      pop\n      pop\n      pop\n      pop\n      jump\t// out\n        /* \"#utility.yul\":9464:9883   */\n    tag_109:\n        /* \"#utility.yul\":9630:9634   */\n      0x00\n        /* \"#utility.yul\":9668:9670   */\n      0x20\n        /* \"#utility.yul\":9657:9666   */\n      dup3\n        /* \"#utility.yul\":9653:9671   */\n      add\n        /* \"#utility.yul\":9645:9671   */\n      swap1\n      pop\n        /* \"#utility.yul\":9717:9726   */\n      dup2\n        /* \"#utility.yul\":9711:9715   */\n      dup2\n        /* \"#utility.yul\":9707:9727   */\n      sub\n        /* \"#utility.yul\":9703:9704   */\n      0x00\n        /* \"#utility.yul\":9692:9701   */\n      dup4\n        /* \"#utility.yul\":9688:9705   */\n      add\n        /* \"#utility.yul\":9681:9728   */\n      mstore\n        /* \"#utility.yul\":9745:9876   */\n      tag_293\n        /* \"#utility.yul\":9871:9875   */\n      dup2\n        /* \"#utility.yul\":9745:9876   */\n      tag_241\n      jump\t// in\n    tag_293:\n        /* \"#utility.yul\":9737:9876   */\n      swap1\n      pop\n        /* \"#utility.yul\":9464:9883   */\n      swap2\n      swap1\n      pop\n      jump\t// out\n        /* \"#utility.yul\":9889:10308   */\n    tag_105:\n        /* \"#utility.yul\":10055:10059   */\n      0x00\n        /* \"#utility.yul\":10093:10095   */\n      0x20\n        /* \"#utility.yul\":10082:10091   */\n      dup3\n        /* \"#utility.yul\":10078:10096   */\n      add\n        /* \"#utility.yul\":10070:10096   */\n      swap1\n      pop\n        /* \"#utility.yul\":10142:10151   */\n      dup2\n        /* \"#utility.yul\":10136:10140   */\n      dup2\n        /* \"#utility.yul\":10132:10152   */\n      sub\n        /* \"#utility.yul\":10128:10129   */\n      0x00\n        /* \"#utility.yul\":10117:10126   */\n      dup4\n        /* \"#utility.yul\":10113:10130   */\n      add\n        /* \"#utility.yul\":10106:10153   */\n      mstore\n        /* \"#utility.yul\":10170:10301   */\n      tag_295\n        /* \"#utility.yul\":10296:10300   */\n      dup2\n        /* \"#utility.yul\":10170:10301   */\n      tag_246\n      jump\t// in\n    tag_295:\n        /* \"#utility.yul\":10162:10301   */\n      swap1\n      pop\n        /* \"#utility.yul\":9889:10308   */\n      swap2\n      swap1\n      pop\n      jump\t// out\n        /* \"#utility.yul\":10314:10536   */\n    tag_64:\n        /* \"#utility.yul\":10407:10411   */\n      0x00\n        /* \"#utility.yul\":10445:10447   */\n      0x20\n        /* \"#utility.yul\":10434:10443   */\n      dup3\n        /* \"#utility.yul\":10430:10448   */\n      add\n        /* \"#utility.yul\":10422:10448   */\n      swap1\n      pop\n        /* \"#utility.yul\":10458:10529   */\n      tag_297\n        /* \"#utility.yul\":10526:10527   */\n      0x00\n        /* \"#utility.yul\":10515:10524   */\n      dup4\n        /* \"#utility.yul\":10511:10528   */\n      add\n        /* \"#utility.yul\":10502:10508   */\n      dup5\n        /* \"#utility.yul\":10458:10529   */\n      tag_255\n      jump\t// in\n    tag_297:\n        /* \"#utility.yul\":10314:10536   */\n      swap3\n      swap2\n      pop\n      pop\n      jump\t// out\n        /* \"#utility.yul\":10542:11480   */\n    tag_42:\n        /* \"#utility.yul\":10829:10833   */\n      0x00\n        /* \"#utility.yul\":10867:10870   */\n      0xe0\n        /* \"#utility.yul\":10856:10865   */\n      dup3\n        /* \"#utility.yul\":10852:10871   */\n      add\n        /* \"#utility.yul\":10844:10871   */\n      swap1\n      pop\n        /* \"#utility.yul\":10881:10952   */\n      tag_299\n        /* \"#utility.yul\":10949:10950   */\n      0x00\n        /* \"#utility.yul\":10938:10947   */\n      dup4\n        /* \"#utility.yul\":10934:10951   */\n      add\n        /* \"#utility.yul\":10925:10931   */\n      dup11\n        /* \"#utility.yul\":10881:10952   */\n      tag_255\n      jump\t// in\n    tag_299:\n        /* \"#utility.yul\":10962:11049   */\n      tag_300\n        /* \"#utility.yul\":11045:11047   */\n      0x20\n        /* \"#utility.yul\":11034:11043   */\n      dup4\n        /* \"#utility.yul\":11030:11048   */\n      add\n        /* \"#utility.yul\":11021:11027   */\n      dup10\n        /* \"#utility.yul\":10962:11049   */\n      tag_223\n      jump\t// in\n    tag_300:\n        /* \"#utility.yul\":11059:11131   */\n      tag_301\n        /* \"#utility.yul\":11127:11129   */\n      0x40\n        /* \"#utility.yul\":11116:11125   */\n      dup4\n        /* \"#utility.yul\":11112:11130   */\n      add\n        /* \"#utility.yul\":11103:11109   */\n      dup9\n        /* \"#utility.yul\":11059:11131   */\n      tag_211\n      jump\t// in\n    tag_301:\n        /* \"#utility.yul\":11141:11213   */\n      tag_302\n        /* \"#utility.yul\":11209:11211   */\n      0x60\n        /* \"#utility.yul\":11198:11207   */\n      dup4\n        /* \"#utility.yul\":11194:11212   */\n      add\n        /* \"#utility.yul\":11185:11191   */\n      dup8\n        /* \"#utility.yul\":11141:11213   */\n      tag_255\n      jump\t// in\n    tag_302:\n        /* \"#utility.yul\":11223:11296   */\n      tag_303\n        /* \"#utility.yul\":11291:11294   */\n      0x80\n        /* \"#utility.yul\":11280:11289   */\n      dup4\n        /* \"#utility.yul\":11276:11295   */\n      add\n        /* \"#utility.yul\":11267:11273   */\n      dup7\n        /* \"#utility.yul\":11223:11296   */\n      tag_255\n      jump\t// in\n    tag_303:\n        /* \"#utility.yul\":11306:11392   */\n      tag_304\n        /* \"#utility.yul\":11387:11390   */\n      0xa0\n        /* \"#utility.yul\":11376:11385   */\n      dup4\n        /* \"#utility.yul\":11372:11391   */\n      add\n        /* \"#utility.yul\":11363:11369   */\n      dup6\n        /* \"#utility.yul\":11306:11392   */\n      tag_219\n      jump\t// in\n    tag_304:\n        /* \"#utility.yul\":11402:11473   */\n      tag_305\n        /* \"#utility.yul\":11468:11471   */\n      0xc0\n        /* \"#utility.yul\":11457:11466   */\n      dup4\n        /* \"#utility.yul\":11453:11472   */\n      add\n        /* \"#utility.yul\":11444:11450   */\n      dup5\n        /* \"#utility.yul\":11402:11473   */\n      tag_259\n      jump\t// in\n    tag_305:\n        /* \"#utility.yul\":10542:11480   */\n      swap9\n      swap8\n      pop\n      pop\n      pop\n      pop\n      pop\n      pop\n      pop\n      pop\n      jump\t// out\n        /* \"#utility.yul\":11486:11905   */\n    tag_60:\n        /* \"#utility.yul\":11625:11629   */\n      0x00\n        /* \"#utility.yul\":11663:11665   */\n      0x40\n        /* \"#utility.yul\":11652:11661   */\n      dup3\n        /* \"#utility.yul\":11648:11666   */\n      add\n        /* \"#utility.yul\":11640:11666   */\n      swap1\n      pop\n        /* \"#utility.yul\":11676:11745   */\n      tag_307\n        /* \"#utility.yul\":11742:11743   */\n      0x00\n        /* \"#utility.yul\":11731:11740   */\n      dup4\n        /* \"#utility.yul\":11727:11744   */\n      add\n        /* \"#utility.yul\":11718:11724   */\n      dup6\n        /* \"#utility.yul\":11676:11745   */\n      tag_259\n      jump\t// in\n    tag_307:\n        /* \"#utility.yul\":11792:11801   */\n      dup2\n        /* \"#utility.yul\":11786:11790   */\n      dup2\n        /* \"#utility.yul\":11782:11802   */\n      sub\n        /* \"#utility.yul\":11777:11779   */\n      0x20\n        /* \"#utility.yul\":11766:11775   */\n      dup4\n        /* \"#utility.yul\":11762:11780   */\n      add\n        /* \"#utility.yul\":11755:11803   */\n      mstore\n        /* \"#utility.yul\":11820:11898   */\n      tag_308\n        /* \"#utility.yul\":11893:11897   */\n      dup2\n        /* \"#utility.yul\":11884:11890   */\n      dup5\n        /* \"#utility.yul\":11820:11898   */\n      tag_231\n      jump\t// in\n    tag_308:\n        /* \"#utility.yul\":11812:11898   */\n      swap1\n      pop\n        /* \"#utility.yul\":11486:11905   */\n      swap4\n      swap3\n      pop\n      pop\n      pop\n      jump\t// out\n        /* \"#utility.yul\":11911:12040   */\n    tag_176:\n        /* \"#utility.yul\":11945:11951   */\n      0x00\n        /* \"#utility.yul\":11972:11992   */\n      tag_310\n      tag_311\n      jump\t// in\n    tag_310:\n        /* \"#utility.yul\":11962:11992   */\n      swap1\n      pop\n        /* \"#utility.yul\":12001:12034   */\n      tag_312\n        /* \"#utility.yul\":12029:12033   */\n      dup3\n        /* \"#utility.yul\":12021:12027   */\n      dup3\n        /* \"#utility.yul\":12001:12034   */\n      tag_313\n      jump\t// in\n    tag_312:\n        /* \"#utility.yul\":11911:12040   */\n      swap2\n      swap1\n      pop\n      jump\t// out\n        /* \"#utility.yul\":12046:12121   */\n    tag_311:\n        /* \"#utility.yul\":12079:12085   */\n      0x00\n        /* \"#utility.yul\":12112:12114   */\n      0x40\n        /* \"#utility.yul\":12106:12115   */\n      mload\n        /* \"#utility.yul\":12096:12115   */\n      swap1\n      pop\n        /* \"#utility.yul\":12046:12121   */\n      swap1\n      jump\t// out\n        /* \"#utility.yul\":12127:12226   */\n    tag_234:\n        /* \"#utility.yul\":12179:12185   */\n      0x00\n        /* \"#utility.yul\":12213:12218   */\n      dup2\n        /* \"#utility.yul\":12207:12219   */\n      mload\n        /* \"#utility.yul\":12197:12219   */\n      swap1\n      pop\n        /* \"#utility.yul\":12127:12226   */\n      swap2\n      swap1\n      pop\n      jump\t// out\n        /* \"#utility.yul\":12232:12401   */\n    tag_236:\n        /* \"#utility.yul\":12316:12327   */\n      0x00\n        /* \"#utility.yul\":12350:12356   */\n      dup3\n        /* \"#utility.yul\":12345:12348   */\n      dup3\n        /* \"#utility.yul\":12338:12357   */\n      mstore\n        /* \"#utility.yul\":12390:12394   */\n      0x20\n        /* \"#utility.yul\":12385:12388   */\n      dup3\n        /* \"#utility.yul\":12381:12395   */\n      add\n        /* \"#utility.yul\":12366:12395   */\n      swap1\n      pop\n        /* \"#utility.yul\":12232:12401   */\n      swap3\n      swap2\n      pop\n      pop\n      jump\t// out\n        /* \"#utility.yul\":12407:12503   */\n    tag_214:\n        /* \"#utility.yul\":12444:12451   */\n      0x00\n        /* \"#utility.yul\":12473:12497   */\n      tag_318\n        /* \"#utility.yul\":12491:12496   */\n      dup3\n        /* \"#utility.yul\":12473:12497   */\n      tag_319\n      jump\t// in\n    tag_318:\n        /* \"#utility.yul\":12462:12497   */\n      swap1\n      pop\n        /* \"#utility.yul\":12407:12503   */\n      swap2\n      swap1\n      pop\n      jump\t// out\n        /* \"#utility.yul\":12509:12599   */\n    tag_218:\n        /* \"#utility.yul\":12543:12550   */\n      0x00\n        /* \"#utility.yul\":12586:12591   */\n      dup2\n        /* \"#utility.yul\":12579:12592   */\n      iszero\n        /* \"#utility.yul\":12572:12593   */\n      iszero\n        /* \"#utility.yul\":12561:12593   */\n      swap1\n      pop\n        /* \"#utility.yul\":12509:12599   */\n      swap2\n      swap1\n      pop\n      jump\t// out\n        /* \"#utility.yul\":12605:12746   */\n    tag_321:\n        /* \"#utility.yul\":12657:12664   */\n      0x00\n        /* \"#utility.yul\":12686:12691   */\n      dup2\n        /* \"#utility.yul\":12675:12691   */\n      swap1\n      pop\n        /* \"#utility.yul\":12692:12740   */\n      tag_323\n        /* \"#utility.yul\":12734:12739   */\n      dup3\n        /* \"#utility.yul\":12692:12740   */\n      tag_324\n      jump\t// in\n    tag_323:\n        /* \"#utility.yul\":12605:12746   */\n      swap2\n      swap1\n      pop\n      jump\t// out\n        /* \"#utility.yul\":12752:12897   */\n    tag_325:\n        /* \"#utility.yul\":12806:12813   */\n      0x00\n        /* \"#utility.yul\":12835:12840   */\n      dup2\n        /* \"#utility.yul\":12824:12840   */\n      swap1\n      pop\n        /* \"#utility.yul\":12841:12891   */\n      tag_327\n        /* \"#utility.yul\":12885:12890   */\n      dup3\n        /* \"#utility.yul\":12841:12891   */\n      tag_328\n      jump\t// in\n    tag_327:\n        /* \"#utility.yul\":12752:12897   */\n      swap2\n      swap1\n      pop\n      jump\t// out\n        /* \"#utility.yul\":12903:13030   */\n    tag_329:\n        /* \"#utility.yul\":12948:12955   */\n      0x00\n        /* \"#utility.yul\":12977:12982   */\n      dup2\n        /* \"#utility.yul\":12966:12982   */\n      swap1\n      pop\n        /* \"#utility.yul\":12983:13024   */\n      tag_331\n        /* \"#utility.yul\":13018:13023   */\n      dup3\n        /* \"#utility.yul\":12983:13024   */\n      tag_332\n      jump\t// in\n    tag_331:\n        /* \"#utility.yul\":12903:13030   */\n      swap2\n      swap1\n      pop\n      jump\t// out\n        /* \"#utility.yul\":13036:13125   */\n    tag_254:\n        /* \"#utility.yul\":13072:13079   */\n      0x00\n        /* \"#utility.yul\":13112:13118   */\n      0xffff\n        /* \"#utility.yul\":13105:13110   */\n      dup3\n        /* \"#utility.yul\":13101:13119   */\n      and\n        /* \"#utility.yul\":13090:13119   */\n      swap1\n      pop\n        /* \"#utility.yul\":13036:13125   */\n      swap2\n      swap1\n      pop\n      jump\t// out\n        /* \"#utility.yul\":13131:13257   */\n    tag_319:\n        /* \"#utility.yul\":13168:13175   */\n      0x00\n        /* \"#utility.yul\":13208:13250   */\n      0xffffffffffffffffffffffffffffffffffffffff\n        /* \"#utility.yul\":13201:13206   */\n      dup3\n        /* \"#utility.yul\":13197:13251   */\n      and\n        /* \"#utility.yul\":13186:13251   */\n      swap1\n      pop\n        /* \"#utility.yul\":13131:13257   */\n      swap2\n      swap1\n      pop\n      jump\t// out\n        /* \"#utility.yul\":13263:13340   */\n    tag_258:\n        /* \"#utility.yul\":13300:13307   */\n      0x00\n        /* \"#utility.yul\":13329:13334   */\n      dup2\n        /* \"#utility.yul\":13318:13334   */\n      swap1\n      pop\n        /* \"#utility.yul\":13263:13340   */\n      swap2\n      swap1\n      pop\n      jump\t// out\n        /* \"#utility.yul\":13346:13439   */\n    tag_262:\n        /* \"#utility.yul\":13382:13389   */\n      0x00\n        /* \"#utility.yul\":13422:13432   */\n      0xffffffff\n        /* \"#utility.yul\":13415:13420   */\n      dup3\n        /* \"#utility.yul\":13411:13433   */\n      and\n        /* \"#utility.yul\":13400:13433   */\n      swap1\n      pop\n        /* \"#utility.yul\":13346:13439   */\n      swap2\n      swap1\n      pop\n      jump\t// out\n        /* \"#utility.yul\":13445:13531   */\n    tag_266:\n        /* \"#utility.yul\":13480:13487   */\n      0x00\n        /* \"#utility.yul\":13520:13524   */\n      0xff\n        /* \"#utility.yul\":13513:13518   */\n      dup3\n        /* \"#utility.yul\":13509:13525   */\n      and\n        /* \"#utility.yul\":13498:13525   */\n      swap1\n      pop\n        /* \"#utility.yul\":13445:13531   */\n      swap2\n      swap1\n      pop\n      jump\t// out\n        /* \"#utility.yul\":13537:13678   */\n    tag_222:\n        /* \"#utility.yul\":13600:13609   */\n      0x00\n        /* \"#utility.yul\":13633:13672   */\n      tag_339\n        /* \"#utility.yul\":13666:13671   */\n      dup3\n        /* \"#utility.yul\":13633:13672   */\n      tag_321\n      jump\t// in\n    tag_339:\n        /* \"#utility.yul\":13620:13672   */\n      swap1\n      pop\n        /* \"#utility.yul\":13537:13678   */\n      swap2\n      swap1\n      pop\n      jump\t// out\n        /* \"#utility.yul\":13684:13829   */\n    tag_226:\n        /* \"#utility.yul\":13749:13758   */\n      0x00\n        /* \"#utility.yul\":13782:13823   */\n      tag_341\n        /* \"#utility.yul\":13817:13822   */\n      dup3\n        /* \"#utility.yul\":13782:13823   */\n      tag_325\n      jump\t// in\n    tag_341:\n        /* \"#utility.yul\":13769:13823   */\n      swap1\n      pop\n        /* \"#utility.yul\":13684:13829   */\n      swap2\n      swap1\n      pop\n      jump\t// out\n        /* \"#utility.yul\":13835:13962   */\n    tag_230:\n        /* \"#utility.yul\":13891:13900   */\n      0x00\n        /* \"#utility.yul\":13924:13956   */\n      tag_343\n        /* \"#utility.yul\":13950:13955   */\n      dup3\n        /* \"#utility.yul\":13924:13956   */\n      tag_329\n      jump\t// in\n    tag_343:\n        /* \"#utility.yul\":13911:13956   */\n      swap1\n      pop\n        /* \"#utility.yul\":13835:13962   */\n      swap2\n      swap1\n      pop\n      jump\t// out\n        /* \"#utility.yul\":13968:14275   */\n    tag_238:\n        /* \"#utility.yul\":14036:14037   */\n      0x00\n        /* \"#utility.yul\":14046:14159   */\n    tag_345:\n        /* \"#utility.yul\":14060:14066   */\n      dup4\n        /* \"#utility.yul\":14057:14058   */\n      dup2\n        /* \"#utility.yul\":14054:14067   */\n      lt\n        /* \"#utility.yul\":14046:14159   */\n      iszero\n      tag_347\n      jumpi\n        /* \"#utility.yul\":14145:14146   */\n      dup1\n        /* \"#utility.yul\":14140:14143   */\n      dup3\n        /* \"#utility.yul\":14136:14147   */\n      add\n        /* \"#utility.yul\":14130:14148   */\n      mload\n        /* \"#utility.yul\":14126:14127   */\n      dup2\n        /* \"#utility.yul\":14121:14124   */\n      dup5\n        /* \"#utility.yul\":14117:14128   */\n      add\n        /* \"#utility.yul\":14110:14149   */\n      mstore\n        /* \"#utility.yul\":14082:14084   */\n      0x20\n        /* \"#utility.yul\":14079:14080   */\n      dup2\n        /* \"#utility.yul\":14075:14085   */\n      add\n        /* \"#utility.yul\":14070:14085   */\n      swap1\n      pop\n        /* \"#utility.yul\":14046:14159   */\n      jump(tag_345)\n    tag_347:\n        /* \"#utility.yul\":14177:14183   */\n      dup4\n        /* \"#utility.yul\":14174:14175   */\n      dup2\n        /* \"#utility.yul\":14171:14184   */\n      gt\n        /* \"#utility.yul\":14168:14269   */\n      iszero\n      tag_348\n      jumpi\n        /* \"#utility.yul\":14257:14258   */\n      0x00\n        /* \"#utility.yul\":14248:14254   */\n      dup5\n        /* \"#utility.yul\":14243:14246   */\n      dup5\n        /* \"#utility.yul\":14239:14255   */\n      add\n        /* \"#utility.yul\":14232:14259   */\n      mstore\n        /* \"#utility.yul\":14168:14269   */\n    tag_348:\n        /* \"#utility.yul\":14017:14275   */\n      pop\n        /* \"#utility.yul\":13968:14275   */\n      pop\n      pop\n      pop\n      jump\t// out\n        /* \"#utility.yul\":14281:14601   */\n    tag_80:\n        /* \"#utility.yul\":14325:14331   */\n      0x00\n        /* \"#utility.yul\":14362:14363   */\n      0x02\n        /* \"#utility.yul\":14356:14360   */\n      dup3\n        /* \"#utility.yul\":14352:14364   */\n      div\n        /* \"#utility.yul\":14342:14364   */\n      swap1\n      pop\n        /* \"#utility.yul\":14409:14410   */\n      0x01\n        /* \"#utility.yul\":14403:14407   */\n      dup3\n        /* \"#utility.yul\":14399:14411   */\n      and\n        /* \"#utility.yul\":14430:14448   */\n      dup1\n        /* \"#utility.yul\":14420:14501   */\n      tag_350\n      jumpi\n        /* \"#utility.yul\":14486:14490   */\n      0x7f\n        /* \"#utility.yul\":14478:14484   */\n      dup3\n        /* \"#utility.yul\":14474:14491   */\n      and\n        /* \"#utility.yul\":14464:14491   */\n      swap2\n      pop\n        /* \"#utility.yul\":14420:14501   */\n    tag_350:\n        /* \"#utility.yul\":14548:14550   */\n      0x20\n        /* \"#utility.yul\":14540:14546   */\n      dup3\n        /* \"#utility.yul\":14537:14551   */\n      lt\n        /* \"#utility.yul\":14517:14535   */\n      dup2\n        /* \"#utility.yul\":14514:14552   */\n      eq\n        /* \"#utility.yul\":14511:14595   */\n      iszero\n      tag_351\n      jumpi\n        /* \"#utility.yul\":14567:14585   */\n      tag_352\n      tag_353\n      jump\t// in\n    tag_352:\n        /* \"#utility.yul\":14511:14595   */\n    tag_351:\n        /* \"#utility.yul\":14332:14601   */\n      pop\n        /* \"#utility.yul\":14281:14601   */\n      swap2\n      swap1\n      pop\n      jump\t// out\n        /* \"#utility.yul\":14607:14888   */\n    tag_313:\n        /* \"#utility.yul\":14690:14717   */\n      tag_355\n        /* \"#utility.yul\":14712:14716   */\n      dup3\n        /* \"#utility.yul\":14690:14717   */\n      tag_240\n      jump\t// in\n    tag_355:\n        /* \"#utility.yul\":14682:14688   */\n      dup2\n        /* \"#utility.yul\":14678:14718   */\n      add\n        /* \"#utility.yul\":14820:14826   */\n      dup2\n        /* \"#utility.yul\":14808:14818   */\n      dup2\n        /* \"#utility.yul\":14805:14827   */\n      lt\n        /* \"#utility.yul\":14784:14802   */\n      0xffffffffffffffff\n        /* \"#utility.yul\":14772:14782   */\n      dup3\n        /* \"#utility.yul\":14769:14803   */\n      gt\n        /* \"#utility.yul\":14766:14828   */\n      or\n        /* \"#utility.yul\":14763:14851   */\n      iszero\n      tag_356\n      jumpi\n        /* \"#utility.yul\":14831:14849   */\n      tag_357\n      tag_358\n      jump\t// in\n    tag_357:\n        /* \"#utility.yul\":14763:14851   */\n    tag_356:\n        /* \"#utility.yul\":14871:14881   */\n      dup1\n        /* \"#utility.yul\":14867:14869   */\n      0x40\n        /* \"#utility.yul\":14860:14882   */\n      mstore\n        /* \"#utility.yul\":14650:14888   */\n      pop\n        /* \"#utility.yul\":14607:14888   */\n      pop\n      pop\n      jump\t// out\n        /* \"#utility.yul\":14894:15127   */\n    tag_111:\n        /* \"#utility.yul\":14933:14936   */\n      0x00\n        /* \"#utility.yul\":14956:14980   */\n      tag_360\n        /* \"#utility.yul\":14974:14979   */\n      dup3\n        /* \"#utility.yul\":14956:14980   */\n      tag_258\n      jump\t// in\n    tag_360:\n        /* \"#utility.yul\":14947:14980   */\n      swap2\n      pop\n        /* \"#utility.yul\":15002:15068   */\n      0xffffffffffffffffffffffffffffffffffffffffffffffffffffffffffffffff\n        /* \"#utility.yul\":14995:15000   */\n      dup3\n        /* \"#utility.yul\":14992:15069   */\n      eq\n        /* \"#utility.yul\":14989:15092   */\n      iszero\n      tag_361\n      jumpi\n        /* \"#utility.yul\":15072:15090   */\n      tag_362\n      tag_363\n      jump\t// in\n    tag_362:\n        /* \"#utility.yul\":14989:15092   */\n    tag_361:\n        /* \"#utility.yul\":15119:15120   */\n      0x01\n        /* \"#utility.yul\":15112:15117   */\n      dup3\n        /* \"#utility.yul\":15108:15121   */\n      add\n        /* \"#utility.yul\":15101:15121   */\n      swap1\n      pop\n        /* \"#utility.yul\":14894:15127   */\n      swap2\n      swap1\n      pop\n      jump\t// out\n        /* \"#utility.yul\":15133:15313   */\n    tag_363:\n        /* \"#utility.yul\":15181:15258   */\n      0x4e487b7100000000000000000000000000000000000000000000000000000000\n        /* \"#utility.yul\":15178:15179   */\n      0x00\n        /* \"#utility.yul\":15171:15259   */\n      mstore\n        /* \"#utility.yul\":15278:15282   */\n      0x11\n        /* \"#utility.yul\":15275:15276   */\n      0x04\n        /* \"#utility.yul\":15268:15283   */\n      mstore\n        /* \"#utility.yul\":15302:15306   */\n      0x24\n        /* \"#utility.yul\":15299:15300   */\n      0x00\n        /* \"#utility.yul\":15292:15307   */\n      revert\n        /* \"#utility.yul\":15319:15499   */\n    tag_114:\n        /* \"#utility.yul\":15367:15444   */\n      0x4e487b7100000000000000000000000000000000000000000000000000000000\n        /* \"#utility.yul\":15364:15365   */\n      0x00\n        /* \"#utility.yul\":15357:15445   */\n      mstore\n        /* \"#utility.yul\":15464:15468   */\n      0x21\n        /* \"#utility.yul\":15461:15462   */\n      0x04\n        /* \"#utility.yul\":15454:15469   */\n      mstore\n        /* \"#utility.yul\":15488:15492   */\n      0x24\n        /* \"#utility.yul\":15485:15486   */\n      0x00\n        /* \"#utility.yul\":15478:15493   */\n      revert\n        /* \"#utility.yul\":15505:15685   */\n    tag_353:\n        /* \"#utility.yul\":15553:15630   */\n      0x4e487b7100000000000000000000000000000000000000000000000000000000\n        /* \"#utility.yul\":15550:15551   */\n      0x00\n        /* \"#utility.yul\":15543:15631   */\n      mstore\n        /* \"#utility.yul\":15650:15654   */\n      0x22\n        /* \"#utility.yul\":15647:15648   */\n      0x04\n        /* \"#utility.yul\":15640:15655   */\n      mstore\n        /* \"#utility.yul\":15674:15678   */\n      0x24\n        /* \"#utility.yul\":15671:15672   */\n      0x00\n        /* \"#utility.yul\":15664:15679   */\n      revert\n        /* \"#utility.yul\":15691:15871   */\n    tag_358:\n        /* \"#utility.yul\":15739:15816   */\n      0x4e487b7100000000000000000000000000000000000000000000000000000000\n        /* \"#utility.yul\":15736:15737   */\n      0x00\n        /* \"#utility.yul\":15729:15817   */\n      mstore\n        /* \"#utility.yul\":15836:15840   */\n      0x41\n        /* \"#utility.yul\":15833:15834   */\n      0x04\n        /* \"#utility.yul\":15826:15841   */\n      mstore\n        /* \"#utility.yul\":15860:15864   */\n      0x24\n        /* \"#utility.yul\":15857:15858   */\n      0x00\n        /* \"#utility.yul\":15850:15865   */\n      revert\n        /* \"#utility.yul\":15877:15994   */\n    tag_174:\n        /* \"#utility.yul\":15986:15987   */\n      0x00\n        /* \"#utility.yul\":15983:15984   */\n      dup1\n        /* \"#utility.yul\":15976:15988   */\n      revert\n        /* \"#utility.yul\":16246:16363   */\n    tag_195:\n        /* \"#utility.yul\":16355:16356   */\n      0x00\n        /* \"#utility.yul\":16352:16353   */\n      dup1\n        /* \"#utility.yul\":16345:16357   */\n      revert\n        /* \"#utility.yul\":16369:16471   */\n    tag_240:\n        /* \"#utility.yul\":16410:16416   */\n      0x00\n        /* \"#utility.yul\":16461:16463   */\n      0x1f\n        /* \"#utility.yul\":16457:16464   */\n      not\n        /* \"#utility.yul\":16452:16454   */\n      0x1f\n        /* \"#utility.yul\":16445:16450   */\n      dup4\n        /* \"#utility.yul\":16441:16455   */\n      add\n        /* \"#utility.yul\":16437:16465   */\n      and\n        /* \"#utility.yul\":16427:16465   */\n      swap1\n      pop\n        /* \"#utility.yul\":16369:16471   */\n      swap2\n      swap1\n      pop\n      jump\t// out\n        /* \"#utility.yul\":16477:16644   */\n    tag_245:\n        /* \"#utility.yul\":16617:16636   */\n      0x4b697369206d657663757420646567696c000000000000000000000000000000\n        /* \"#utility.yul\":16613:16614   */\n      0x00\n        /* \"#utility.yul\":16605:16611   */\n      dup3\n        /* \"#utility.yul\":16601:16615   */\n      add\n        /* \"#utility.yul\":16594:16637   */\n      mstore\n        /* \"#utility.yul\":16477:16644   */\n      pop\n      jump\t// out\n        /* \"#utility.yul\":16650:16832   */\n    tag_250:\n        /* \"#utility.yul\":16790:16824   */\n      0x42752069736c656d6920736164656365204b757273207961706162696c69722e\n        /* \"#utility.yul\":16786:16787   */\n      0x00\n        /* \"#utility.yul\":16778:16784   */\n      dup3\n        /* \"#utility.yul\":16774:16788   */\n      add\n        /* \"#utility.yul\":16767:16825   */\n      mstore\n        /* \"#utility.yul\":16650:16832   */\n      pop\n      jump\t// out\n        /* \"#utility.yul\":16838:16958   */\n    tag_324:\n        /* \"#utility.yul\":16926:16927   */\n      0x04\n        /* \"#utility.yul\":16919:16924   */\n      dup2\n        /* \"#utility.yul\":16916:16928   */\n      lt\n        /* \"#utility.yul\":16906:16952   */\n      tag_378\n      jumpi\n        /* \"#utility.yul\":16932:16950   */\n      tag_379\n      tag_114\n      jump\t// in\n    tag_379:\n        /* \"#utility.yul\":16906:16952   */\n    tag_378:\n        /* \"#utility.yul\":16838:16958   */\n      pop\n      jump\t// out\n        /* \"#utility.yul\":16964:17086   */\n    tag_328:\n        /* \"#utility.yul\":17054:17055   */\n      0x05\n        /* \"#utility.yul\":17047:17052   */\n      dup2\n        /* \"#utility.yul\":17044:17056   */\n      lt\n        /* \"#utility.yul\":17034:17080   */\n      tag_381\n      jumpi\n        /* \"#utility.yul\":17060:17078   */\n      tag_382\n      tag_114\n      jump\t// in\n    tag_382:\n        /* \"#utility.yul\":17034:17080   */\n    tag_381:\n        /* \"#utility.yul\":16964:17086   */\n      pop\n      jump\t// out\n        /* \"#utility.yul\":17092:17205   */\n    tag_332:\n        /* \"#utility.yul\":17173:17174   */\n      0x04\n        /* \"#utility.yul\":17166:17171   */\n      dup2\n        /* \"#utility.yul\":17163:17175   */\n      lt\n        /* \"#utility.yul\":17153:17199   */\n      tag_384\n      jumpi\n        /* \"#utility.yul\":17179:17197   */\n      tag_385\n      tag_114\n      jump\t// in\n    tag_385:\n        /* \"#utility.yul\":17153:17199   */\n    tag_384:\n        /* \"#utility.yul\":17092:17205   */\n      pop\n      jump\t// out\n        /* \"#utility.yul\":17211:17333   */\n    tag_161:\n        /* \"#utility.yul\":17284:17308   */\n      tag_387\n        /* \"#utility.yul\":17302:17307   */\n      dup2\n        /* \"#utility.yul\":17284:17308   */\n      tag_214\n      jump\t// in\n    tag_387:\n        /* \"#utility.yul\":17277:17282   */\n      dup2\n        /* \"#utility.yul\":17274:17309   */\n      eq\n        /* \"#utility.yul\":17264:17327   */\n      tag_388\n      jumpi\n        /* \"#utility.yul\":17323:17324   */\n      0x00\n        /* \"#utility.yul\":17320:17321   */\n      dup1\n        /* \"#utility.yul\":17313:17325   */\n      revert\n        /* \"#utility.yul\":17264:17327   */\n    tag_388:\n        /* \"#utility.yul\":17211:17333   */\n      pop\n      jump\t// out\n        /* \"#utility.yul\":17339:17453   */\n    tag_165:\n        /* \"#utility.yul\":17427:17428   */\n      0x04\n        /* \"#utility.yul\":17420:17425   */\n      dup2\n        /* \"#utility.yul\":17417:17429   */\n      lt\n        /* \"#utility.yul\":17407:17447   */\n      tag_390\n      jumpi\n        /* \"#utility.yul\":17443:17444   */\n      0x00\n        /* \"#utility.yul\":17440:17441   */\n      dup1\n        /* \"#utility.yul\":17433:17445   */\n      revert\n        /* \"#utility.yul\":17407:17447   */\n    tag_390:\n        /* \"#utility.yul\":17339:17453   */\n      pop\n      jump\t// out\n        /* \"#utility.yul\":17459:17575   */\n    tag_169:\n        /* \"#utility.yul\":17549:17550   */\n      0x05\n        /* \"#utility.yul\":17542:17547   */\n      dup2\n        /* \"#utility.yul\":17539:17551   */\n      lt\n        /* \"#utility.yul\":17529:17569   */\n      tag_392\n      jumpi\n        /* \"#utility.yul\":17565:17566   */\n      0x00\n        /* \"#utility.yul\":17562:17563   */\n      dup1\n        /* \"#utility.yul\":17555:17567   */\n      revert\n        /* \"#utility.yul\":17529:17569   */\n    tag_392:\n        /* \"#utility.yul\":17459:17575   */\n      pop\n      jump\t// out\n        /* \"#utility.yul\":17581:17703   */\n    tag_188:\n        /* \"#utility.yul\":17654:17678   */\n      tag_394\n        /* \"#utility.yul\":17672:17677   */\n      dup2\n        /* \"#utility.yul\":17654:17678   */\n      tag_258\n      jump\t// in\n    tag_394:\n        /* \"#utility.yul\":17647:17652   */\n      dup2\n        /* \"#utility.yul\":17644:17679   */\n      eq\n        /* \"#utility.yul\":17634:17697   */\n      tag_395\n      jumpi\n        /* \"#utility.yul\":17693:17694   */\n      0x00\n        /* \"#utility.yul\":17690:17691   */\n      dup1\n        /* \"#utility.yul\":17683:17695   */\n      revert\n        /* \"#utility.yul\":17634:17697   */\n    tag_395:\n        /* \"#utility.yul\":17581:17703   */\n      pop\n      jump\t// out\n        /* \"#utility.yul\":17709:17829   */\n    tag_191:\n        /* \"#utility.yul\":17781:17804   */\n      tag_397\n        /* \"#utility.yul\":17798:17803   */\n      dup2\n        /* \"#utility.yul\":17781:17804   */\n      tag_262\n      jump\t// in\n    tag_397:\n        /* \"#utility.yul\":17774:17779   */\n      dup2\n        /* \"#utility.yul\":17771:17805   */\n      eq\n        /* \"#utility.yul\":17761:17823   */\n      tag_398\n      jumpi\n        /* \"#utility.yul\":17819:17820   */\n      0x00\n        /* \"#utility.yul\":17816:17817   */\n      dup1\n        /* \"#utility.yul\":17809:17821   */\n      revert\n        /* \"#utility.yul\":17761:17823   */\n    tag_398:\n        /* \"#utility.yul\":17709:17829   */\n      pop\n      jump\t// out\n\n    auxdata: 0xa26469706673582212204c98d99f373108e10a33fb6c223e33e8a462e941d74cfc79ad34b8ed899ccd4c64736f6c63430008070033\n}\n",
				"bytecode": {
					"linkReferences": {},
					"object": "608060405234801561001057600080fd5b50611ea3806100206000396000f3fe608060405234801561001057600080fd5b50600436106100cf5760003560e01c80637d0fa2871161008c578063af640d0f11610066578063af640d0f14610284578063ba479b7e146102a2578063cbc92809146102d7578063cc9d368a14610307576100cf565b80637d0fa287146101ef5780639a8c911914610221578063a4e7ae0514610253576100cf565b80631916e139146100d45780632826669714610106578063356b1f1e1461013857806339987f941461016a57806364b2c66b1461019d57806370223e73146101d3575b600080fd5b6100ee60048036038101906100e99190611651565b610337565b6040516100fd939291906118bc565b60405180910390f35b610120600480360381019061011b9190611651565b610403565b60405161012f939291906118bc565b60405180910390f35b610152600480360381019061014d9190611651565b6104cf565b604051610161939291906118bc565b60405180910390f35b610184600480360381019061017f9190611651565b61059b565b60405161019494939291906118fa565b60405180910390f35b6101b760048036038101906101b291906116bf565b61066d565b6040516101ca9796959493929190611a02565b60405180910390f35b6101ed60048036038101906101e8919061167e565b610706565b005b61020960048036038101906102049190611651565b610c0d565b604051610218939291906118bc565b60405180910390f35b61023b60048036038101906102369190611651565b610cd9565b60405161024a939291906118bc565b60405180910390f35b61026d600480360381019061026891906116ff565b610da5565b60405161027b929190611a71565b60405180910390f35b61028c610e61565b60405161029991906119e7565b60405180910390f35b6102bc60048036038101906102b79190611651565b610e67565b6040516102ce9695949392919061184d565b60405180910390f35b6102f160048036038101906102ec9190611651565b610ffb565b6040516102fe9190611832565b60405180910390f35b610321600480360381019061031c919061167e565b611026565b60405161032e91906119e7565b60405180910390f35b60076020528060005260406000206000915090508060000160009054906101000a900460ff169080600101805461036d90611bf7565b80601f016020809104026020016040519081016040528092919081815260200182805461039990611bf7565b80156103e65780601f106103bb576101008083540402835291602001916103e6565b820191906000526020600020905b8154815290600101906020018083116103c957829003601f168201915b5050505050908060020160009054906101000a900460ff16905083565b60046020528060005260406000206000915090508060000160009054906101000a900460ff169080600101805461043990611bf7565b80601f016020809104026020016040519081016040528092919081815260200182805461046590611bf7565b80156104b25780601f10610487576101008083540402835291602001916104b2565b820191906000526020600020905b81548152906001019060200180831161049557829003601f168201915b5050505050908060020160009054906101000a900460ff16905083565b600a6020528060005260406000206000915090508060000160009054906101000a900460ff169080600101805461050590611bf7565b80601f016020809104026020016040519081016040528092919081815260200182805461053190611bf7565b801561057e5780601f106105535761010080835404028352916020019161057e565b820191906000526020600020905b81548152906001019060200180831161056157829003601f168201915b5050505050908060020160009054906101000a900460ff16905083565b60066020528060005260406000206000915090508060000160009054906101000a900460ff16908060000160019054906101000a900460ff16908060010154908060020180546105ea90611bf7565b80601f016020809104026020016040519081016040528092919081815260200182805461061690611bf7565b80156106635780601f1061063857610100808354040283529160200191610663565b820191906000526020600020905b81548152906001019060200180831161064657829003601f168201915b5050505050905084565b600d602052816000526040600020602052806000526040600020600091509150508060000154908060010160009054906101000a900460ff16908060010160019054906101000a900473ffffffffffffffffffffffffffffffffffffffff16908060020154908060030154908060040160009054906101000a900460ff16908060040160019054906101000a900463ffffffff16905087565b600460003373ffffffffffffffffffffffffffffffffffffffff1673ffffffffffffffffffffffffffffffffffffffff16815260200190815260200160002060000160009054906101000a900460ff16806107ad5750600660003373ffffffffffffffffffffffffffffffffffffffff1673ffffffffffffffffffffffffffffffffffffffff16815260200190815260200160002060000160009054906101000a900460ff165b806108045750600860003373ffffffffffffffffffffffffffffffffffffffff1673ffffffffffffffffffffffffffffffffffffffff16815260200190815260200160002060000160009054906101000a900460ff165b610843576040517f08c379a000000000000000000000000000000000000000000000000000000000815260040161083a906119c7565b60405180910390fd5b600360008373ffffffffffffffffffffffffffffffffffffffff1673ffffffffffffffffffffffffffffffffffffffff16815260200190815260200160002060000160009054906101000a900460ff166108d2576040517f08c379a00000000000000000000000000000000000000000000000000000000081526004016108c9906119a7565b60405180910390fd5b6000600c60008154809291906108e790611c5a565b9190505590508160200151600d60008573ffffffffffffffffffffffffffffffffffffffff1673ffffffffffffffffffffffffffffffffffffffff168152602001908152602001600020600083815260200190815260200160002060010160006101000a81548160ff0219169083600481111561096757610966611cd2565b5b02179055508160400151600d60008573ffffffffffffffffffffffffffffffffffffffff1673ffffffffffffffffffffffffffffffffffffffff168152602001908152602001600020600083815260200190815260200160002060010160016101000a81548173ffffffffffffffffffffffffffffffffffffffff021916908373ffffffffffffffffffffffffffffffffffffffff1602179055508160600151600d60008573ffffffffffffffffffffffffffffffffffffffff1673ffffffffffffffffffffffffffffffffffffffff1681526020019081526020016000206000838152602001908152602001600020600201819055508160800151600d60008573ffffffffffffffffffffffffffffffffffffffff1673ffffffffffffffffffffffffffffffffffffffff1681526020019081526020016000206000838152602001908152602001600020600301819055508160a00151600d60008573ffffffffffffffffffffffffffffffffffffffff1673ffffffffffffffffffffffffffffffffffffffff168152602001908152602001600020600083815260200190815260200160002060040160006101000a81548160ff02191690836003811115610b3457610b33611cd2565b5b02179055508160c00151600d60008573ffffffffffffffffffffffffffffffffffffffff1673ffffffffffffffffffffffffffffffffffffffff168152602001908152602001600020600083815260200190815260200160002060040160016101000a81548163ffffffff021916908363ffffffff1602179055507f7ba1bbcf238bfcb5340d21d7c5589befed8cf4fd0b2a031a143aab22cf1d047b82602001518360400151846060015185608001518660a001518760c00151604051610c0096959493929190611946565b60405180910390a1505050565b60086020528060005260406000206000915090508060000160009054906101000a900460ff1690806001018054610c4390611bf7565b80601f0160208091040260200160405190810160405280929190818152602001828054610c6f90611bf7565b8015610cbc5780601f10610c9157610100808354040283529160200191610cbc565b820191906000526020600020905b815481529060010190602001808311610c9f57829003601f168201915b5050505050908060020160009054906101000a900460ff16905083565b60096020528060005260406000206000915090508060000160009054906101000a900460ff1690806001018054610d0f90611bf7565b80601f0160208091040260200160405190810160405280929190818152602001828054610d3b90611bf7565b8015610d885780601f10610d5d57610100808354040283529160200191610d88565b820191906000526020600020905b815481529060010190602001808311610d6b57829003601f168201915b5050505050908060020160009054906101000a900460ff16905083565b600b6020528060005260406000206000915090508060000160009054906101000a900463ffffffff1690806001018054610dde90611bf7565b80601f0160208091040260200160405190810160405280929190818152602001828054610e0a90611bf7565b8015610e575780601f10610e2c57610100808354040283529160200191610e57565b820191906000526020600020905b815481529060010190602001808311610e3a57829003601f168201915b5050505050905082565b600c5481565b60056020528060005260406000206000915090508060000160009054906101000a900460ff16908060000160019054906101000a900473ffffffffffffffffffffffffffffffffffffffff16908060000160159054906101000a900461ffff16908060000160179054906101000a900460ff1690806001018054610eea90611bf7565b80601f0160208091040260200160405190810160405280929190818152602001828054610f1690611bf7565b8015610f635780601f10610f3857610100808354040283529160200191610f63565b820191906000526020600020905b815481529060010190602001808311610f4657829003601f168201915b505050505090806002018054610f7890611bf7565b80601f0160208091040260200160405190810160405280929190818152602001828054610fa490611bf7565b8015610ff15780601f10610fc657610100808354040283529160200191610ff1565b820191906000526020600020905b815481529060010190602001808311610fd457829003601f168201915b5050505050905086565b60036020528060005260406000206000915090508060000160009054906101000a900460ff16905081565b6000600460003373ffffffffffffffffffffffffffffffffffffffff1673ffffffffffffffffffffffffffffffffffffffff16815260200190815260200160002060000160009054906101000a900460ff16806110cf5750600660003373ffffffffffffffffffffffffffffffffffffffff1673ffffffffffffffffffffffffffffffffffffffff16815260200190815260200160002060000160009054906101000a900460ff165b806111265750600860003373ffffffffffffffffffffffffffffffffffffffff1673ffffffffffffffffffffffffffffffffffffffff16815260200190815260200160002060000160009054906101000a900460ff165b611165576040517f08c379a000000000000000000000000000000000000000000000000000000000815260040161115c906119c7565b60405180910390fd5b600360008473ffffffffffffffffffffffffffffffffffffffff1673ffffffffffffffffffffffffffffffffffffffff16815260200190815260200160002060000160009054906101000a900460ff166111f4576040517f08c379a00000000000000000000000000000000000000000000000000000000081526004016111eb906119a7565b60405180910390fd5b8160200151600d60008573ffffffffffffffffffffffffffffffffffffffff1673ffffffffffffffffffffffffffffffffffffffff16815260200190815260200160002060008460000151815260200190815260200160002060010160006101000a81548160ff0219169083600481111561127257611271611cd2565b5b02179055508160400151600d60008573ffffffffffffffffffffffffffffffffffffffff1673ffffffffffffffffffffffffffffffffffffffff16815260200190815260200160002060008460000151815260200190815260200160002060010160016101000a81548173ffffffffffffffffffffffffffffffffffffffff021916908373ffffffffffffffffffffffffffffffffffffffff1602179055508160600151600d60008573ffffffffffffffffffffffffffffffffffffffff1673ffffffffffffffffffffffffffffffffffffffff168152602001908152602001600020600084600001518152602001908152602001600020600201819055508160800151600d60008573ffffffffffffffffffffffffffffffffffffffff1673ffffffffffffffffffffffffffffffffffffffff168152602001908152602001600020600084600001518152602001908152602001600020600301819055508160a00151600d60008573ffffffffffffffffffffffffffffffffffffffff1673ffffffffffffffffffffffffffffffffffffffff16815260200190815260200160002060008460000151815260200190815260200160002060040160006101000a81548160ff0219169083600381111561144f5761144e611cd2565b5b02179055508160c00151600d60008573ffffffffffffffffffffffffffffffffffffffff1673ffffffffffffffffffffffffffffffffffffffff16815260200190815260200160002060008460000151815260200190815260200160002060040160016101000a81548163ffffffff021916908363ffffffff1602179055507fe0af8937909276b9604018dff5ed05fce915311087fbe7ef361a586d7c2facda82602001518360400151846060015185608001518660a001518760c0015160405161151f96959493929190611946565b60405180910390a18160000151905092915050565b60008135905061154381611e08565b92915050565b60008135905061155881611e1f565b92915050565b60008135905061156d81611e2f565b92915050565b600060e0828403121561158957611588611d5f565b5b61159360e0611aa1565b905060006115a384828501611627565b60008301525060206115b78482850161155e565b60208301525060406115cb84828501611534565b60408301525060606115df84828501611627565b60608301525060806115f384828501611627565b60808301525060a061160784828501611549565b60a08301525060c061161b8482850161163c565b60c08301525092915050565b60008135905061163681611e3f565b92915050565b60008135905061164b81611e56565b92915050565b60006020828403121561166757611666611d64565b5b600061167584828501611534565b91505092915050565b600080610100838503121561169657611695611d64565b5b60006116a485828601611534565b92505060206116b585828601611573565b9150509250929050565b600080604083850312156116d6576116d5611d64565b5b60006116e485828601611534565b92505060206116f585828601611627565b9150509250929050565b60006020828403121561171557611714611d64565b5b60006117238482850161163c565b91505092915050565b61173581611ae2565b82525050565b61174481611af4565b82525050565b61175381611b8e565b82525050565b61176281611ba0565b82525050565b61177181611bb2565b82525050565b600061178282611ac6565b61178c8185611ad1565b935061179c818560208601611bc4565b6117a581611d69565b840191505092915050565b60006117bd601183611ad1565b91506117c882611d7a565b602082019050919050565b60006117e0602083611ad1565b91506117eb82611da3565b602082019050919050565b6117ff81611b39565b82525050565b61180e81611b67565b82525050565b61181d81611b71565b82525050565b61182c81611b81565b82525050565b6000602082019050611847600083018461173b565b92915050565b600060c082019050611862600083018961173b565b61186f602083018861172c565b61187c60408301876117f6565b6118896060830186611768565b818103608083015261189b8185611777565b905081810360a08301526118af8184611777565b9050979650505050505050565b60006060820190506118d1600083018661173b565b81810360208301526118e38185611777565b90506118f26040830184611823565b949350505050565b600060808201905061190f600083018761173b565b61191c6020830186611823565b6119296040830185611805565b818103606083015261193b8184611777565b905095945050505050565b600060c08201905061195b6000830189611759565b611968602083018861172c565b6119756040830187611805565b6119826060830186611805565b61198f608083018561174a565b61199c60a0830184611814565b979650505050505050565b600060208201905081810360008301526119c0816117b0565b9050919050565b600060208201905081810360008301526119e0816117d3565b9050919050565b60006020820190506119fc6000830184611805565b92915050565b600060e082019050611a17600083018a611805565b611a246020830189611759565b611a31604083018861172c565b611a3e6060830187611805565b611a4b6080830186611805565b611a5860a083018561174a565b611a6560c0830184611814565b98975050505050505050565b6000604082019050611a866000830185611814565b8181036020830152611a988184611777565b90509392505050565b6000611aab611abc565b9050611ab78282611c29565b919050565b6000604051905090565b600081519050919050565b600082825260208201905092915050565b6000611aed82611b47565b9050919050565b60008115159050919050565b6000819050611b0e82611dcc565b919050565b6000819050611b2182611de0565b919050565b6000819050611b3482611df4565b919050565b600061ffff82169050919050565b600073ffffffffffffffffffffffffffffffffffffffff82169050919050565b6000819050919050565b600063ffffffff82169050919050565b600060ff82169050919050565b6000611b9982611b00565b9050919050565b6000611bab82611b13565b9050919050565b6000611bbd82611b26565b9050919050565b60005b83811015611be2578082015181840152602081019050611bc7565b83811115611bf1576000848401525b50505050565b60006002820490506001821680611c0f57607f821691505b60208210811415611c2357611c22611d01565b5b50919050565b611c3282611d69565b810181811067ffffffffffffffff82111715611c5157611c50611d30565b5b80604052505050565b6000611c6582611b67565b91507fffffffffffffffffffffffffffffffffffffffffffffffffffffffffffffffff821415611c9857611c97611ca3565b5b600182019050919050565b7f4e487b7100000000000000000000000000000000000000000000000000000000600052601160045260246000fd5b7f4e487b7100000000000000000000000000000000000000000000000000000000600052602160045260246000fd5b7f4e487b7100000000000000000000000000000000000000000000000000000000600052602260045260246000fd5b7f4e487b7100000000000000000000000000000000000000000000000000000000600052604160045260246000fd5b600080fd5b600080fd5b6000601f19601f8301169050919050565b7f4b697369206d657663757420646567696c000000000000000000000000000000600082015250565b7f42752069736c656d6920736164656365204b757273207961706162696c69722e600082015250565b60048110611ddd57611ddc611cd2565b5b50565b60058110611df157611df0611cd2565b5b50565b60048110611e0557611e04611cd2565b5b50565b611e1181611ae2565b8114611e1c57600080fd5b50565b60048110611e2c57600080fd5b50565b60058110611e3c57600080fd5b50565b611e4881611b67565b8114611e5357600080fd5b50565b611e5f81611b71565b8114611e6a57600080fd5b5056fea26469706673582212204c98d99f373108e10a33fb6c223e33e8a462e941d74cfc79ad34b8ed899ccd4c64736f6c63430008070033",
					"opcodes": "PUSH1 0x80 PUSH1 0x40 MSTORE CALLVALUE DUP1 ISZERO PUSH2 0x10 JUMPI PUSH1 0x0 DUP1 REVERT JUMPDEST POP PUSH2 0x1EA3 DUP1 PUSH2 0x20 PUSH1 0x0 CODECOPY PUSH1 0x0 RETURN INVALID PUSH1 0x80 PUSH1 0x40 MSTORE CALLVALUE DUP1 ISZERO PUSH2 0x10 JUMPI PUSH1 0x0 DUP1 REVERT JUMPDEST POP PUSH1 0x4 CALLDATASIZE LT PUSH2 0xCF JUMPI PUSH1 0x0 CALLDATALOAD PUSH1 0xE0 SHR DUP1 PUSH4 0x7D0FA287 GT PUSH2 0x8C JUMPI DUP1 PUSH4 0xAF640D0F GT PUSH2 0x66 JUMPI DUP1 PUSH4 0xAF640D0F EQ PUSH2 0x284 JUMPI DUP1 PUSH4 0xBA479B7E EQ PUSH2 0x2A2 JUMPI DUP1 PUSH4 0xCBC92809 EQ PUSH2 0x2D7 JUMPI DUP1 PUSH4 0xCC9D368A EQ PUSH2 0x307 JUMPI PUSH2 0xCF JUMP JUMPDEST DUP1 PUSH4 0x7D0FA287 EQ PUSH2 0x1EF JUMPI DUP1 PUSH4 0x9A8C9119 EQ PUSH2 0x221 JUMPI DUP1 PUSH4 0xA4E7AE05 EQ PUSH2 0x253 JUMPI PUSH2 0xCF JUMP JUMPDEST DUP1 PUSH4 0x1916E139 EQ PUSH2 0xD4 JUMPI DUP1 PUSH4 0x28266697 EQ PUSH2 0x106 JUMPI DUP1 PUSH4 0x356B1F1E EQ PUSH2 0x138 JUMPI DUP1 PUSH4 0x39987F94 EQ PUSH2 0x16A JUMPI DUP1 PUSH4 0x64B2C66B EQ PUSH2 0x19D JUMPI DUP1 PUSH4 0x70223E73 EQ PUSH2 0x1D3 JUMPI JUMPDEST PUSH1 0x0 DUP1 REVERT JUMPDEST PUSH2 0xEE PUSH1 0x4 DUP1 CALLDATASIZE SUB DUP2 ADD SWAP1 PUSH2 0xE9 SWAP2 SWAP1 PUSH2 0x1651 JUMP JUMPDEST PUSH2 0x337 JUMP JUMPDEST PUSH1 0x40 MLOAD PUSH2 0xFD SWAP4 SWAP3 SWAP2 SWAP1 PUSH2 0x18BC JUMP JUMPDEST PUSH1 0x40 MLOAD DUP1 SWAP2 SUB SWAP1 RETURN JUMPDEST PUSH2 0x120 PUSH1 0x4 DUP1 CALLDATASIZE SUB DUP2 ADD SWAP1 PUSH2 0x11B SWAP2 SWAP1 PUSH2 0x1651 JUMP JUMPDEST PUSH2 0x403 JUMP JUMPDEST PUSH1 0x40 MLOAD PUSH2 0x12F SWAP4 SWAP3 SWAP2 SWAP1 PUSH2 0x18BC JUMP JUMPDEST PUSH1 0x40 MLOAD DUP1 SWAP2 SUB SWAP1 RETURN JUMPDEST PUSH2 0x152 PUSH1 0x4 DUP1 CALLDATASIZE SUB DUP2 ADD SWAP1 PUSH2 0x14D SWAP2 SWAP1 PUSH2 0x1651 JUMP JUMPDEST PUSH2 0x4CF JUMP JUMPDEST PUSH1 0x40 MLOAD PUSH2 0x161 SWAP4 SWAP3 SWAP2 SWAP1 PUSH2 0x18BC JUMP JUMPDEST PUSH1 0x40 MLOAD DUP1 SWAP2 SUB SWAP1 RETURN JUMPDEST PUSH2 0x184 PUSH1 0x4 DUP1 CALLDATASIZE SUB DUP2 ADD SWAP1 PUSH2 0x17F SWAP2 SWAP1 PUSH2 0x1651 JUMP JUMPDEST PUSH2 0x59B JUMP JUMPDEST PUSH1 0x40 MLOAD PUSH2 0x194 SWAP5 SWAP4 SWAP3 SWAP2 SWAP1 PUSH2 0x18FA JUMP JUMPDEST PUSH1 0x40 MLOAD DUP1 SWAP2 SUB SWAP1 RETURN JUMPDEST PUSH2 0x1B7 PUSH1 0x4 DUP1 CALLDATASIZE SUB DUP2 ADD SWAP1 PUSH2 0x1B2 SWAP2 SWAP1 PUSH2 0x16BF JUMP JUMPDEST PUSH2 0x66D JUMP JUMPDEST PUSH1 0x40 MLOAD PUSH2 0x1CA SWAP8 SWAP7 SWAP6 SWAP5 SWAP4 SWAP3 SWAP2 SWAP1 PUSH2 0x1A02 JUMP JUMPDEST PUSH1 0x40 MLOAD DUP1 SWAP2 SUB SWAP1 RETURN JUMPDEST PUSH2 0x1ED PUSH1 0x4 DUP1 CALLDATASIZE SUB DUP2 ADD SWAP1 PUSH2 0x1E8 SWAP2 SWAP1 PUSH2 0x167E JUMP JUMPDEST PUSH2 0x706 JUMP JUMPDEST STOP JUMPDEST PUSH2 0x209 PUSH1 0x4 DUP1 CALLDATASIZE SUB DUP2 ADD SWAP1 PUSH2 0x204 SWAP2 SWAP1 PUSH2 0x1651 JUMP JUMPDEST PUSH2 0xC0D JUMP JUMPDEST PUSH1 0x40 MLOAD PUSH2 0x218 SWAP4 SWAP3 SWAP2 SWAP1 PUSH2 0x18BC JUMP JUMPDEST PUSH1 0x40 MLOAD DUP1 SWAP2 SUB SWAP1 RETURN JUMPDEST PUSH2 0x23B PUSH1 0x4 DUP1 CALLDATASIZE SUB DUP2 ADD SWAP1 PUSH2 0x236 SWAP2 SWAP1 PUSH2 0x1651 JUMP JUMPDEST PUSH2 0xCD9 JUMP JUMPDEST PUSH1 0x40 MLOAD PUSH2 0x24A SWAP4 SWAP3 SWAP2 SWAP1 PUSH2 0x18BC JUMP JUMPDEST PUSH1 0x40 MLOAD DUP1 SWAP2 SUB SWAP1 RETURN JUMPDEST PUSH2 0x26D PUSH1 0x4 DUP1 CALLDATASIZE SUB DUP2 ADD SWAP1 PUSH2 0x268 SWAP2 SWAP1 PUSH2 0x16FF JUMP JUMPDEST PUSH2 0xDA5 JUMP JUMPDEST PUSH1 0x40 MLOAD PUSH2 0x27B SWAP3 SWAP2 SWAP1 PUSH2 0x1A71 JUMP JUMPDEST PUSH1 0x40 MLOAD DUP1 SWAP2 SUB SWAP1 RETURN JUMPDEST PUSH2 0x28C PUSH2 0xE61 JUMP JUMPDEST PUSH1 0x40 MLOAD PUSH2 0x299 SWAP2 SWAP1 PUSH2 0x19E7 JUMP JUMPDEST PUSH1 0x40 MLOAD DUP1 SWAP2 SUB SWAP1 RETURN JUMPDEST PUSH2 0x2BC PUSH1 0x4 DUP1 CALLDATASIZE SUB DUP2 ADD SWAP1 PUSH2 0x2B7 SWAP2 SWAP1 PUSH2 0x1651 JUMP JUMPDEST PUSH2 0xE67 JUMP JUMPDEST PUSH1 0x40 MLOAD PUSH2 0x2CE SWAP7 SWAP6 SWAP5 SWAP4 SWAP3 SWAP2 SWAP1 PUSH2 0x184D JUMP JUMPDEST PUSH1 0x40 MLOAD DUP1 SWAP2 SUB SWAP1 RETURN JUMPDEST PUSH2 0x2F1 PUSH1 0x4 DUP1 CALLDATASIZE SUB DUP2 ADD SWAP1 PUSH2 0x2EC SWAP2 SWAP1 PUSH2 0x1651 JUMP JUMPDEST PUSH2 0xFFB JUMP JUMPDEST PUSH1 0x40 MLOAD PUSH2 0x2FE SWAP2 SWAP1 PUSH2 0x1832 JUMP JUMPDEST PUSH1 0x40 MLOAD DUP1 SWAP2 SUB SWAP1 RETURN JUMPDEST PUSH2 0x321 PUSH1 0x4 DUP1 CALLDATASIZE SUB DUP2 ADD SWAP1 PUSH2 0x31C SWAP2 SWAP1 PUSH2 0x167E JUMP JUMPDEST PUSH2 0x1026 JUMP JUMPDEST PUSH1 0x40 MLOAD PUSH2 0x32E SWAP2 SWAP1 PUSH2 0x19E7 JUMP JUMPDEST PUSH1 0x40 MLOAD DUP1 SWAP2 SUB SWAP1 RETURN JUMPDEST PUSH1 0x7 PUSH1 0x20 MSTORE DUP1 PUSH1 0x0 MSTORE PUSH1 0x40 PUSH1 0x0 KECCAK256 PUSH1 0x0 SWAP2 POP SWAP1 POP DUP1 PUSH1 0x0 ADD PUSH1 0x0 SWAP1 SLOAD SWAP1 PUSH2 0x100 EXP SWAP1 DIV PUSH1 0xFF AND SWAP1 DUP1 PUSH1 0x1 ADD DUP1 SLOAD PUSH2 0x36D SWAP1 PUSH2 0x1BF7 JUMP JUMPDEST DUP1 PUSH1 0x1F ADD PUSH1 0x20 DUP1 SWAP2 DIV MUL PUSH1 0x20 ADD PUSH1 0x40 MLOAD SWAP1 DUP2 ADD PUSH1 0x40 MSTORE DUP1 SWAP3 SWAP2 SWAP1 DUP2 DUP2 MSTORE PUSH1 0x20 ADD DUP3 DUP1 SLOAD PUSH2 0x399 SWAP1 PUSH2 0x1BF7 JUMP JUMPDEST DUP1 ISZERO PUSH2 0x3E6 JUMPI DUP1 PUSH1 0x1F LT PUSH2 0x3BB JUMPI PUSH2 0x100 DUP1 DUP4 SLOAD DIV MUL DUP4 MSTORE SWAP2 PUSH1 0x20 ADD SWAP2 PUSH2 0x3E6 JUMP JUMPDEST DUP3 ADD SWAP2 SWAP1 PUSH1 0x0 MSTORE PUSH1 0x20 PUSH1 0x0 KECCAK256 SWAP1 JUMPDEST DUP2 SLOAD DUP2 MSTORE SWAP1 PUSH1 0x1 ADD SWAP1 PUSH1 0x20 ADD DUP1 DUP4 GT PUSH2 0x3C9 JUMPI DUP3 SWAP1 SUB PUSH1 0x1F AND DUP3 ADD SWAP2 JUMPDEST POP POP POP POP POP SWAP1 DUP1 PUSH1 0x2 ADD PUSH1 0x0 SWAP1 SLOAD SWAP1 PUSH2 0x100 EXP SWAP1 DIV PUSH1 0xFF AND SWAP1 POP DUP4 JUMP JUMPDEST PUSH1 0x4 PUSH1 0x20 MSTORE DUP1 PUSH1 0x0 MSTORE PUSH1 0x40 PUSH1 0x0 KECCAK256 PUSH1 0x0 SWAP2 POP SWAP1 POP DUP1 PUSH1 0x0 ADD PUSH1 0x0 SWAP1 SLOAD SWAP1 PUSH2 0x100 EXP SWAP1 DIV PUSH1 0xFF AND SWAP1 DUP1 PUSH1 0x1 ADD DUP1 SLOAD PUSH2 0x439 SWAP1 PUSH2 0x1BF7 JUMP JUMPDEST DUP1 PUSH1 0x1F ADD PUSH1 0x20 DUP1 SWAP2 DIV MUL PUSH1 0x20 ADD PUSH1 0x40 MLOAD SWAP1 DUP2 ADD PUSH1 0x40 MSTORE DUP1 SWAP3 SWAP2 SWAP1 DUP2 DUP2 MSTORE PUSH1 0x20 ADD DUP3 DUP1 SLOAD PUSH2 0x465 SWAP1 PUSH2 0x1BF7 JUMP JUMPDEST DUP1 ISZERO PUSH2 0x4B2 JUMPI DUP1 PUSH1 0x1F LT PUSH2 0x487 JUMPI PUSH2 0x100 DUP1 DUP4 SLOAD DIV MUL DUP4 MSTORE SWAP2 PUSH1 0x20 ADD SWAP2 PUSH2 0x4B2 JUMP JUMPDEST DUP3 ADD SWAP2 SWAP1 PUSH1 0x0 MSTORE PUSH1 0x20 PUSH1 0x0 KECCAK256 SWAP1 JUMPDEST DUP2 SLOAD DUP2 MSTORE SWAP1 PUSH1 0x1 ADD SWAP1 PUSH1 0x20 ADD DUP1 DUP4 GT PUSH2 0x495 JUMPI DUP3 SWAP1 SUB PUSH1 0x1F AND DUP3 ADD SWAP2 JUMPDEST POP POP POP POP POP SWAP1 DUP1 PUSH1 0x2 ADD PUSH1 0x0 SWAP1 SLOAD SWAP1 PUSH2 0x100 EXP SWAP1 DIV PUSH1 0xFF AND SWAP1 POP DUP4 JUMP JUMPDEST PUSH1 0xA PUSH1 0x20 MSTORE DUP1 PUSH1 0x0 MSTORE PUSH1 0x40 PUSH1 0x0 KECCAK256 PUSH1 0x0 SWAP2 POP SWAP1 POP DUP1 PUSH1 0x0 ADD PUSH1 0x0 SWAP1 SLOAD SWAP1 PUSH2 0x100 EXP SWAP1 DIV PUSH1 0xFF AND SWAP1 DUP1 PUSH1 0x1 ADD DUP1 SLOAD PUSH2 0x505 SWAP1 PUSH2 0x1BF7 JUMP JUMPDEST DUP1 PUSH1 0x1F ADD PUSH1 0x20 DUP1 SWAP2 DIV MUL PUSH1 0x20 ADD PUSH1 0x40 MLOAD SWAP1 DUP2 ADD PUSH1 0x40 MSTORE DUP1 SWAP3 SWAP2 SWAP1 DUP2 DUP2 MSTORE PUSH1 0x20 ADD DUP3 DUP1 SLOAD PUSH2 0x531 SWAP1 PUSH2 0x1BF7 JUMP JUMPDEST DUP1 ISZERO PUSH2 0x57E JUMPI DUP1 PUSH1 0x1F LT PUSH2 0x553 JUMPI PUSH2 0x100 DUP1 DUP4 SLOAD DIV MUL DUP4 MSTORE SWAP2 PUSH1 0x20 ADD SWAP2 PUSH2 0x57E JUMP JUMPDEST DUP3 ADD SWAP2 SWAP1 PUSH1 0x0 MSTORE PUSH1 0x20 PUSH1 0x0 KECCAK256 SWAP1 JUMPDEST DUP2 SLOAD DUP2 MSTORE SWAP1 PUSH1 0x1 ADD SWAP1 PUSH1 0x20 ADD DUP1 DUP4 GT PUSH2 0x561 JUMPI DUP3 SWAP1 SUB PUSH1 0x1F AND DUP3 ADD SWAP2 JUMPDEST POP POP POP POP POP SWAP1 DUP1 PUSH1 0x2 ADD PUSH1 0x0 SWAP1 SLOAD SWAP1 PUSH2 0x100 EXP SWAP1 DIV PUSH1 0xFF AND SWAP1 POP DUP4 JUMP JUMPDEST PUSH1 0x6 PUSH1 0x20 MSTORE DUP1 PUSH1 0x0 MSTORE PUSH1 0x40 PUSH1 0x0 KECCAK256 PUSH1 0x0 SWAP2 POP SWAP1 POP DUP1 PUSH1 0x0 ADD PUSH1 0x0 SWAP1 SLOAD SWAP1 PUSH2 0x100 EXP SWAP1 DIV PUSH1 0xFF AND SWAP1 DUP1 PUSH1 0x0 ADD PUSH1 0x1 SWAP1 SLOAD SWAP1 PUSH2 0x100 EXP SWAP1 DIV PUSH1 0xFF AND SWAP1 DUP1 PUSH1 0x1 ADD SLOAD SWAP1 DUP1 PUSH1 0x2 ADD DUP1 SLOAD PUSH2 0x5EA SWAP1 PUSH2 0x1BF7 JUMP JUMPDEST DUP1 PUSH1 0x1F ADD PUSH1 0x20 DUP1 SWAP2 DIV MUL PUSH1 0x20 ADD PUSH1 0x40 MLOAD SWAP1 DUP2 ADD PUSH1 0x40 MSTORE DUP1 SWAP3 SWAP2 SWAP1 DUP2 DUP2 MSTORE PUSH1 0x20 ADD DUP3 DUP1 SLOAD PUSH2 0x616 SWAP1 PUSH2 0x1BF7 JUMP JUMPDEST DUP1 ISZERO PUSH2 0x663 JUMPI DUP1 PUSH1 0x1F LT PUSH2 0x638 JUMPI PUSH2 0x100 DUP1 DUP4 SLOAD DIV MUL DUP4 MSTORE SWAP2 PUSH1 0x20 ADD SWAP2 PUSH2 0x663 JUMP JUMPDEST DUP3 ADD SWAP2 SWAP1 PUSH1 0x0 MSTORE PUSH1 0x20 PUSH1 0x0 KECCAK256 SWAP1 JUMPDEST DUP2 SLOAD DUP2 MSTORE SWAP1 PUSH1 0x1 ADD SWAP1 PUSH1 0x20 ADD DUP1 DUP4 GT PUSH2 0x646 JUMPI DUP3 SWAP1 SUB PUSH1 0x1F AND DUP3 ADD SWAP2 JUMPDEST POP POP POP POP POP SWAP1 POP DUP5 JUMP JUMPDEST PUSH1 0xD PUSH1 0x20 MSTORE DUP2 PUSH1 0x0 MSTORE PUSH1 0x40 PUSH1 0x0 KECCAK256 PUSH1 0x20 MSTORE DUP1 PUSH1 0x0 MSTORE PUSH1 0x40 PUSH1 0x0 KECCAK256 PUSH1 0x0 SWAP2 POP SWAP2 POP POP DUP1 PUSH1 0x0 ADD SLOAD SWAP1 DUP1 PUSH1 0x1 ADD PUSH1 0x0 SWAP1 SLOAD SWAP1 PUSH2 0x100 EXP SWAP1 DIV PUSH1 0xFF AND SWAP1 DUP1 PUSH1 0x1 ADD PUSH1 0x1 SWAP1 SLOAD SWAP1 PUSH2 0x100 EXP SWAP1 DIV PUSH20 0xFFFFFFFFFFFFFFFFFFFFFFFFFFFFFFFFFFFFFFFF AND SWAP1 DUP1 PUSH1 0x2 ADD SLOAD SWAP1 DUP1 PUSH1 0x3 ADD SLOAD SWAP1 DUP1 PUSH1 0x4 ADD PUSH1 0x0 SWAP1 SLOAD SWAP1 PUSH2 0x100 EXP SWAP1 DIV PUSH1 0xFF AND SWAP1 DUP1 PUSH1 0x4 ADD PUSH1 0x1 SWAP1 SLOAD SWAP1 PUSH2 0x100 EXP SWAP1 DIV PUSH4 0xFFFFFFFF AND SWAP1 POP DUP8 JUMP JUMPDEST PUSH1 0x4 PUSH1 0x0 CALLER PUSH20 0xFFFFFFFFFFFFFFFFFFFFFFFFFFFFFFFFFFFFFFFF AND PUSH20 0xFFFFFFFFFFFFFFFFFFFFFFFFFFFFFFFFFFFFFFFF AND DUP2 MSTORE PUSH1 0x20 ADD SWAP1 DUP2 MSTORE PUSH1 0x20 ADD PUSH1 0x0 KECCAK256 PUSH1 0x0 ADD PUSH1 0x0 SWAP1 SLOAD SWAP1 PUSH2 0x100 EXP SWAP1 DIV PUSH1 0xFF AND DUP1 PUSH2 0x7AD JUMPI POP PUSH1 0x6 PUSH1 0x0 CALLER PUSH20 0xFFFFFFFFFFFFFFFFFFFFFFFFFFFFFFFFFFFFFFFF AND PUSH20 0xFFFFFFFFFFFFFFFFFFFFFFFFFFFFFFFFFFFFFFFF AND DUP2 MSTORE PUSH1 0x20 ADD SWAP1 DUP2 MSTORE PUSH1 0x20 ADD PUSH1 0x0 KECCAK256 PUSH1 0x0 ADD PUSH1 0x0 SWAP1 SLOAD SWAP1 PUSH2 0x100 EXP SWAP1 DIV PUSH1 0xFF AND JUMPDEST DUP1 PUSH2 0x804 JUMPI POP PUSH1 0x8 PUSH1 0x0 CALLER PUSH20 0xFFFFFFFFFFFFFFFFFFFFFFFFFFFFFFFFFFFFFFFF AND PUSH20 0xFFFFFFFFFFFFFFFFFFFFFFFFFFFFFFFFFFFFFFFF AND DUP2 MSTORE PUSH1 0x20 ADD SWAP1 DUP2 MSTORE PUSH1 0x20 ADD PUSH1 0x0 KECCAK256 PUSH1 0x0 ADD PUSH1 0x0 SWAP1 SLOAD SWAP1 PUSH2 0x100 EXP SWAP1 DIV PUSH1 0xFF AND JUMPDEST PUSH2 0x843 JUMPI PUSH1 0x40 MLOAD PUSH32 0x8C379A000000000000000000000000000000000000000000000000000000000 DUP2 MSTORE PUSH1 0x4 ADD PUSH2 0x83A SWAP1 PUSH2 0x19C7 JUMP JUMPDEST PUSH1 0x40 MLOAD DUP1 SWAP2 SUB SWAP1 REVERT JUMPDEST PUSH1 0x3 PUSH1 0x0 DUP4 PUSH20 0xFFFFFFFFFFFFFFFFFFFFFFFFFFFFFFFFFFFFFFFF AND PUSH20 0xFFFFFFFFFFFFFFFFFFFFFFFFFFFFFFFFFFFFFFFF AND DUP2 MSTORE PUSH1 0x20 ADD SWAP1 DUP2 MSTORE PUSH1 0x20 ADD PUSH1 0x0 KECCAK256 PUSH1 0x0 ADD PUSH1 0x0 SWAP1 SLOAD SWAP1 PUSH2 0x100 EXP SWAP1 DIV PUSH1 0xFF AND PUSH2 0x8D2 JUMPI PUSH1 0x40 MLOAD PUSH32 0x8C379A000000000000000000000000000000000000000000000000000000000 DUP2 MSTORE PUSH1 0x4 ADD PUSH2 0x8C9 SWAP1 PUSH2 0x19A7 JUMP JUMPDEST PUSH1 0x40 MLOAD DUP1 SWAP2 SUB SWAP1 REVERT JUMPDEST PUSH1 0x0 PUSH1 0xC PUSH1 0x0 DUP2 SLOAD DUP1 SWAP3 SWAP2 SWAP1 PUSH2 0x8E7 SWAP1 PUSH2 0x1C5A JUMP JUMPDEST SWAP2 SWAP1 POP SSTORE SWAP1 POP DUP2 PUSH1 0x20 ADD MLOAD PUSH1 0xD PUSH1 0x0 DUP6 PUSH20 0xFFFFFFFFFFFFFFFFFFFFFFFFFFFFFFFFFFFFFFFF AND PUSH20 0xFFFFFFFFFFFFFFFFFFFFFFFFFFFFFFFFFFFFFFFF AND DUP2 MSTORE PUSH1 0x20 ADD SWAP1 DUP2 MSTORE PUSH1 0x20 ADD PUSH1 0x0 KECCAK256 PUSH1 0x0 DUP4 DUP2 MSTORE PUSH1 0x20 ADD SWAP1 DUP2 MSTORE PUSH1 0x20 ADD PUSH1 0x0 KECCAK256 PUSH1 0x1 ADD PUSH1 0x0 PUSH2 0x100 EXP DUP2 SLOAD DUP2 PUSH1 0xFF MUL NOT AND SWAP1 DUP4 PUSH1 0x4 DUP2 GT ISZERO PUSH2 0x967 JUMPI PUSH2 0x966 PUSH2 0x1CD2 JUMP JUMPDEST JUMPDEST MUL OR SWAP1 SSTORE POP DUP2 PUSH1 0x40 ADD MLOAD PUSH1 0xD PUSH1 0x0 DUP6 PUSH20 0xFFFFFFFFFFFFFFFFFFFFFFFFFFFFFFFFFFFFFFFF AND PUSH20 0xFFFFFFFFFFFFFFFFFFFFFFFFFFFFFFFFFFFFFFFF AND DUP2 MSTORE PUSH1 0x20 ADD SWAP1 DUP2 MSTORE PUSH1 0x20 ADD PUSH1 0x0 KECCAK256 PUSH1 0x0 DUP4 DUP2 MSTORE PUSH1 0x20 ADD SWAP1 DUP2 MSTORE PUSH1 0x20 ADD PUSH1 0x0 KECCAK256 PUSH1 0x1 ADD PUSH1 0x1 PUSH2 0x100 EXP DUP2 SLOAD DUP2 PUSH20 0xFFFFFFFFFFFFFFFFFFFFFFFFFFFFFFFFFFFFFFFF MUL NOT AND SWAP1 DUP4 PUSH20 0xFFFFFFFFFFFFFFFFFFFFFFFFFFFFFFFFFFFFFFFF AND MUL OR SWAP1 SSTORE POP DUP2 PUSH1 0x60 ADD MLOAD PUSH1 0xD PUSH1 0x0 DUP6 PUSH20 0xFFFFFFFFFFFFFFFFFFFFFFFFFFFFFFFFFFFFFFFF AND PUSH20 0xFFFFFFFFFFFFFFFFFFFFFFFFFFFFFFFFFFFFFFFF AND DUP2 MSTORE PUSH1 0x20 ADD SWAP1 DUP2 MSTORE PUSH1 0x20 ADD PUSH1 0x0 KECCAK256 PUSH1 0x0 DUP4 DUP2 MSTORE PUSH1 0x20 ADD SWAP1 DUP2 MSTORE PUSH1 0x20 ADD PUSH1 0x0 KECCAK256 PUSH1 0x2 ADD DUP2 SWAP1 SSTORE POP DUP2 PUSH1 0x80 ADD MLOAD PUSH1 0xD PUSH1 0x0 DUP6 PUSH20 0xFFFFFFFFFFFFFFFFFFFFFFFFFFFFFFFFFFFFFFFF AND PUSH20 0xFFFFFFFFFFFFFFFFFFFFFFFFFFFFFFFFFFFFFFFF AND DUP2 MSTORE PUSH1 0x20 ADD SWAP1 DUP2 MSTORE PUSH1 0x20 ADD PUSH1 0x0 KECCAK256 PUSH1 0x0 DUP4 DUP2 MSTORE PUSH1 0x20 ADD SWAP1 DUP2 MSTORE PUSH1 0x20 ADD PUSH1 0x0 KECCAK256 PUSH1 0x3 ADD DUP2 SWAP1 SSTORE POP DUP2 PUSH1 0xA0 ADD MLOAD PUSH1 0xD PUSH1 0x0 DUP6 PUSH20 0xFFFFFFFFFFFFFFFFFFFFFFFFFFFFFFFFFFFFFFFF AND PUSH20 0xFFFFFFFFFFFFFFFFFFFFFFFFFFFFFFFFFFFFFFFF AND DUP2 MSTORE PUSH1 0x20 ADD SWAP1 DUP2 MSTORE PUSH1 0x20 ADD PUSH1 0x0 KECCAK256 PUSH1 0x0 DUP4 DUP2 MSTORE PUSH1 0x20 ADD SWAP1 DUP2 MSTORE PUSH1 0x20 ADD PUSH1 0x0 KECCAK256 PUSH1 0x4 ADD PUSH1 0x0 PUSH2 0x100 EXP DUP2 SLOAD DUP2 PUSH1 0xFF MUL NOT AND SWAP1 DUP4 PUSH1 0x3 DUP2 GT ISZERO PUSH2 0xB34 JUMPI PUSH2 0xB33 PUSH2 0x1CD2 JUMP JUMPDEST JUMPDEST MUL OR SWAP1 SSTORE POP DUP2 PUSH1 0xC0 ADD MLOAD PUSH1 0xD PUSH1 0x0 DUP6 PUSH20 0xFFFFFFFFFFFFFFFFFFFFFFFFFFFFFFFFFFFFFFFF AND PUSH20 0xFFFFFFFFFFFFFFFFFFFFFFFFFFFFFFFFFFFFFFFF AND DUP2 MSTORE PUSH1 0x20 ADD SWAP1 DUP2 MSTORE PUSH1 0x20 ADD PUSH1 0x0 KECCAK256 PUSH1 0x0 DUP4 DUP2 MSTORE PUSH1 0x20 ADD SWAP1 DUP2 MSTORE PUSH1 0x20 ADD PUSH1 0x0 KECCAK256 PUSH1 0x4 ADD PUSH1 0x1 PUSH2 0x100 EXP DUP2 SLOAD DUP2 PUSH4 0xFFFFFFFF MUL NOT AND SWAP1 DUP4 PUSH4 0xFFFFFFFF AND MUL OR SWAP1 SSTORE POP PUSH32 0x7BA1BBCF238BFCB5340D21D7C5589BEFED8CF4FD0B2A031A143AAB22CF1D047B DUP3 PUSH1 0x20 ADD MLOAD DUP4 PUSH1 0x40 ADD MLOAD DUP5 PUSH1 0x60 ADD MLOAD DUP6 PUSH1 0x80 ADD MLOAD DUP7 PUSH1 0xA0 ADD MLOAD DUP8 PUSH1 0xC0 ADD MLOAD PUSH1 0x40 MLOAD PUSH2 0xC00 SWAP7 SWAP6 SWAP5 SWAP4 SWAP3 SWAP2 SWAP1 PUSH2 0x1946 JUMP JUMPDEST PUSH1 0x40 MLOAD DUP1 SWAP2 SUB SWAP1 LOG1 POP POP POP JUMP JUMPDEST PUSH1 0x8 PUSH1 0x20 MSTORE DUP1 PUSH1 0x0 MSTORE PUSH1 0x40 PUSH1 0x0 KECCAK256 PUSH1 0x0 SWAP2 POP SWAP1 POP DUP1 PUSH1 0x0 ADD PUSH1 0x0 SWAP1 SLOAD SWAP1 PUSH2 0x100 EXP SWAP1 DIV PUSH1 0xFF AND SWAP1 DUP1 PUSH1 0x1 ADD DUP1 SLOAD PUSH2 0xC43 SWAP1 PUSH2 0x1BF7 JUMP JUMPDEST DUP1 PUSH1 0x1F ADD PUSH1 0x20 DUP1 SWAP2 DIV MUL PUSH1 0x20 ADD PUSH1 0x40 MLOAD SWAP1 DUP2 ADD PUSH1 0x40 MSTORE DUP1 SWAP3 SWAP2 SWAP1 DUP2 DUP2 MSTORE PUSH1 0x20 ADD DUP3 DUP1 SLOAD PUSH2 0xC6F SWAP1 PUSH2 0x1BF7 JUMP JUMPDEST DUP1 ISZERO PUSH2 0xCBC JUMPI DUP1 PUSH1 0x1F LT PUSH2 0xC91 JUMPI PUSH2 0x100 DUP1 DUP4 SLOAD DIV MUL DUP4 MSTORE SWAP2 PUSH1 0x20 ADD SWAP2 PUSH2 0xCBC JUMP JUMPDEST DUP3 ADD SWAP2 SWAP1 PUSH1 0x0 MSTORE PUSH1 0x20 PUSH1 0x0 KECCAK256 SWAP1 JUMPDEST DUP2 SLOAD DUP2 MSTORE SWAP1 PUSH1 0x1 ADD SWAP1 PUSH1 0x20 ADD DUP1 DUP4 GT PUSH2 0xC9F JUMPI DUP3 SWAP1 SUB PUSH1 0x1F AND DUP3 ADD SWAP2 JUMPDEST POP POP POP POP POP SWAP1 DUP1 PUSH1 0x2 ADD PUSH1 0x0 SWAP1 SLOAD SWAP1 PUSH2 0x100 EXP SWAP1 DIV PUSH1 0xFF AND SWAP1 POP DUP4 JUMP JUMPDEST PUSH1 0x9 PUSH1 0x20 MSTORE DUP1 PUSH1 0x0 MSTORE PUSH1 0x40 PUSH1 0x0 KECCAK256 PUSH1 0x0 SWAP2 POP SWAP1 POP DUP1 PUSH1 0x0 ADD PUSH1 0x0 SWAP1 SLOAD SWAP1 PUSH2 0x100 EXP SWAP1 DIV PUSH1 0xFF AND SWAP1 DUP1 PUSH1 0x1 ADD DUP1 SLOAD PUSH2 0xD0F SWAP1 PUSH2 0x1BF7 JUMP JUMPDEST DUP1 PUSH1 0x1F ADD PUSH1 0x20 DUP1 SWAP2 DIV MUL PUSH1 0x20 ADD PUSH1 0x40 MLOAD SWAP1 DUP2 ADD PUSH1 0x40 MSTORE DUP1 SWAP3 SWAP2 SWAP1 DUP2 DUP2 MSTORE PUSH1 0x20 ADD DUP3 DUP1 SLOAD PUSH2 0xD3B SWAP1 PUSH2 0x1BF7 JUMP JUMPDEST DUP1 ISZERO PUSH2 0xD88 JUMPI DUP1 PUSH1 0x1F LT PUSH2 0xD5D JUMPI PUSH2 0x100 DUP1 DUP4 SLOAD DIV MUL DUP4 MSTORE SWAP2 PUSH1 0x20 ADD SWAP2 PUSH2 0xD88 JUMP JUMPDEST DUP3 ADD SWAP2 SWAP1 PUSH1 0x0 MSTORE PUSH1 0x20 PUSH1 0x0 KECCAK256 SWAP1 JUMPDEST DUP2 SLOAD DUP2 MSTORE SWAP1 PUSH1 0x1 ADD SWAP1 PUSH1 0x20 ADD DUP1 DUP4 GT PUSH2 0xD6B JUMPI DUP3 SWAP1 SUB PUSH1 0x1F AND DUP3 ADD SWAP2 JUMPDEST POP POP POP POP POP SWAP1 DUP1 PUSH1 0x2 ADD PUSH1 0x0 SWAP1 SLOAD SWAP1 PUSH2 0x100 EXP SWAP1 DIV PUSH1 0xFF AND SWAP1 POP DUP4 JUMP JUMPDEST PUSH1 0xB PUSH1 0x20 MSTORE DUP1 PUSH1 0x0 MSTORE PUSH1 0x40 PUSH1 0x0 KECCAK256 PUSH1 0x0 SWAP2 POP SWAP1 POP DUP1 PUSH1 0x0 ADD PUSH1 0x0 SWAP1 SLOAD SWAP1 PUSH2 0x100 EXP SWAP1 DIV PUSH4 0xFFFFFFFF AND SWAP1 DUP1 PUSH1 0x1 ADD DUP1 SLOAD PUSH2 0xDDE SWAP1 PUSH2 0x1BF7 JUMP JUMPDEST DUP1 PUSH1 0x1F ADD PUSH1 0x20 DUP1 SWAP2 DIV MUL PUSH1 0x20 ADD PUSH1 0x40 MLOAD SWAP1 DUP2 ADD PUSH1 0x40 MSTORE DUP1 SWAP3 SWAP2 SWAP1 DUP2 DUP2 MSTORE PUSH1 0x20 ADD DUP3 DUP1 SLOAD PUSH2 0xE0A SWAP1 PUSH2 0x1BF7 JUMP JUMPDEST DUP1 ISZERO PUSH2 0xE57 JUMPI DUP1 PUSH1 0x1F LT PUSH2 0xE2C JUMPI PUSH2 0x100 DUP1 DUP4 SLOAD DIV MUL DUP4 MSTORE SWAP2 PUSH1 0x20 ADD SWAP2 PUSH2 0xE57 JUMP JUMPDEST DUP3 ADD SWAP2 SWAP1 PUSH1 0x0 MSTORE PUSH1 0x20 PUSH1 0x0 KECCAK256 SWAP1 JUMPDEST DUP2 SLOAD DUP2 MSTORE SWAP1 PUSH1 0x1 ADD SWAP1 PUSH1 0x20 ADD DUP1 DUP4 GT PUSH2 0xE3A JUMPI DUP3 SWAP1 SUB PUSH1 0x1F AND DUP3 ADD SWAP2 JUMPDEST POP POP POP POP POP SWAP1 POP DUP3 JUMP JUMPDEST PUSH1 0xC SLOAD DUP2 JUMP JUMPDEST PUSH1 0x5 PUSH1 0x20 MSTORE DUP1 PUSH1 0x0 MSTORE PUSH1 0x40 PUSH1 0x0 KECCAK256 PUSH1 0x0 SWAP2 POP SWAP1 POP DUP1 PUSH1 0x0 ADD PUSH1 0x0 SWAP1 SLOAD SWAP1 PUSH2 0x100 EXP SWAP1 DIV PUSH1 0xFF AND SWAP1 DUP1 PUSH1 0x0 ADD PUSH1 0x1 SWAP1 SLOAD SWAP1 PUSH2 0x100 EXP SWAP1 DIV PUSH20 0xFFFFFFFFFFFFFFFFFFFFFFFFFFFFFFFFFFFFFFFF AND SWAP1 DUP1 PUSH1 0x0 ADD PUSH1 0x15 SWAP1 SLOAD SWAP1 PUSH2 0x100 EXP SWAP1 DIV PUSH2 0xFFFF AND SWAP1 DUP1 PUSH1 0x0 ADD PUSH1 0x17 SWAP1 SLOAD SWAP1 PUSH2 0x100 EXP SWAP1 DIV PUSH1 0xFF AND SWAP1 DUP1 PUSH1 0x1 ADD DUP1 SLOAD PUSH2 0xEEA SWAP1 PUSH2 0x1BF7 JUMP JUMPDEST DUP1 PUSH1 0x1F ADD PUSH1 0x20 DUP1 SWAP2 DIV MUL PUSH1 0x20 ADD PUSH1 0x40 MLOAD SWAP1 DUP2 ADD PUSH1 0x40 MSTORE DUP1 SWAP3 SWAP2 SWAP1 DUP2 DUP2 MSTORE PUSH1 0x20 ADD DUP3 DUP1 SLOAD PUSH2 0xF16 SWAP1 PUSH2 0x1BF7 JUMP JUMPDEST DUP1 ISZERO PUSH2 0xF63 JUMPI DUP1 PUSH1 0x1F LT PUSH2 0xF38 JUMPI PUSH2 0x100 DUP1 DUP4 SLOAD DIV MUL DUP4 MSTORE SWAP2 PUSH1 0x20 ADD SWAP2 PUSH2 0xF63 JUMP JUMPDEST DUP3 ADD SWAP2 SWAP1 PUSH1 0x0 MSTORE PUSH1 0x20 PUSH1 0x0 KECCAK256 SWAP1 JUMPDEST DUP2 SLOAD DUP2 MSTORE SWAP1 PUSH1 0x1 ADD SWAP1 PUSH1 0x20 ADD DUP1 DUP4 GT PUSH2 0xF46 JUMPI DUP3 SWAP1 SUB PUSH1 0x1F AND DUP3 ADD SWAP2 JUMPDEST POP POP POP POP POP SWAP1 DUP1 PUSH1 0x2 ADD DUP1 SLOAD PUSH2 0xF78 SWAP1 PUSH2 0x1BF7 JUMP JUMPDEST DUP1 PUSH1 0x1F ADD PUSH1 0x20 DUP1 SWAP2 DIV MUL PUSH1 0x20 ADD PUSH1 0x40 MLOAD SWAP1 DUP2 ADD PUSH1 0x40 MSTORE DUP1 SWAP3 SWAP2 SWAP1 DUP2 DUP2 MSTORE PUSH1 0x20 ADD DUP3 DUP1 SLOAD PUSH2 0xFA4 SWAP1 PUSH2 0x1BF7 JUMP JUMPDEST DUP1 ISZERO PUSH2 0xFF1 JUMPI DUP1 PUSH1 0x1F LT PUSH2 0xFC6 JUMPI PUSH2 0x100 DUP1 DUP4 SLOAD DIV MUL DUP4 MSTORE SWAP2 PUSH1 0x20 ADD SWAP2 PUSH2 0xFF1 JUMP JUMPDEST DUP3 ADD SWAP2 SWAP1 PUSH1 0x0 MSTORE PUSH1 0x20 PUSH1 0x0 KECCAK256 SWAP1 JUMPDEST DUP2 SLOAD DUP2 MSTORE SWAP1 PUSH1 0x1 ADD SWAP1 PUSH1 0x20 ADD DUP1 DUP4 GT PUSH2 0xFD4 JUMPI DUP3 SWAP1 SUB PUSH1 0x1F AND DUP3 ADD SWAP2 JUMPDEST POP POP POP POP POP SWAP1 POP DUP7 JUMP JUMPDEST PUSH1 0x3 PUSH1 0x20 MSTORE DUP1 PUSH1 0x0 MSTORE PUSH1 0x40 PUSH1 0x0 KECCAK256 PUSH1 0x0 SWAP2 POP SWAP1 POP DUP1 PUSH1 0x0 ADD PUSH1 0x0 SWAP1 SLOAD SWAP1 PUSH2 0x100 EXP SWAP1 DIV PUSH1 0xFF AND SWAP1 POP DUP2 JUMP JUMPDEST PUSH1 0x0 PUSH1 0x4 PUSH1 0x0 CALLER PUSH20 0xFFFFFFFFFFFFFFFFFFFFFFFFFFFFFFFFFFFFFFFF AND PUSH20 0xFFFFFFFFFFFFFFFFFFFFFFFFFFFFFFFFFFFFFFFF AND DUP2 MSTORE PUSH1 0x20 ADD SWAP1 DUP2 MSTORE PUSH1 0x20 ADD PUSH1 0x0 KECCAK256 PUSH1 0x0 ADD PUSH1 0x0 SWAP1 SLOAD SWAP1 PUSH2 0x100 EXP SWAP1 DIV PUSH1 0xFF AND DUP1 PUSH2 0x10CF JUMPI POP PUSH1 0x6 PUSH1 0x0 CALLER PUSH20 0xFFFFFFFFFFFFFFFFFFFFFFFFFFFFFFFFFFFFFFFF AND PUSH20 0xFFFFFFFFFFFFFFFFFFFFFFFFFFFFFFFFFFFFFFFF AND DUP2 MSTORE PUSH1 0x20 ADD SWAP1 DUP2 MSTORE PUSH1 0x20 ADD PUSH1 0x0 KECCAK256 PUSH1 0x0 ADD PUSH1 0x0 SWAP1 SLOAD SWAP1 PUSH2 0x100 EXP SWAP1 DIV PUSH1 0xFF AND JUMPDEST DUP1 PUSH2 0x1126 JUMPI POP PUSH1 0x8 PUSH1 0x0 CALLER PUSH20 0xFFFFFFFFFFFFFFFFFFFFFFFFFFFFFFFFFFFFFFFF AND PUSH20 0xFFFFFFFFFFFFFFFFFFFFFFFFFFFFFFFFFFFFFFFF AND DUP2 MSTORE PUSH1 0x20 ADD SWAP1 DUP2 MSTORE PUSH1 0x20 ADD PUSH1 0x0 KECCAK256 PUSH1 0x0 ADD PUSH1 0x0 SWAP1 SLOAD SWAP1 PUSH2 0x100 EXP SWAP1 DIV PUSH1 0xFF AND JUMPDEST PUSH2 0x1165 JUMPI PUSH1 0x40 MLOAD PUSH32 0x8C379A000000000000000000000000000000000000000000000000000000000 DUP2 MSTORE PUSH1 0x4 ADD PUSH2 0x115C SWAP1 PUSH2 0x19C7 JUMP JUMPDEST PUSH1 0x40 MLOAD DUP1 SWAP2 SUB SWAP1 REVERT JUMPDEST PUSH1 0x3 PUSH1 0x0 DUP5 PUSH20 0xFFFFFFFFFFFFFFFFFFFFFFFFFFFFFFFFFFFFFFFF AND PUSH20 0xFFFFFFFFFFFFFFFFFFFFFFFFFFFFFFFFFFFFFFFF AND DUP2 MSTORE PUSH1 0x20 ADD SWAP1 DUP2 MSTORE PUSH1 0x20 ADD PUSH1 0x0 KECCAK256 PUSH1 0x0 ADD PUSH1 0x0 SWAP1 SLOAD SWAP1 PUSH2 0x100 EXP SWAP1 DIV PUSH1 0xFF AND PUSH2 0x11F4 JUMPI PUSH1 0x40 MLOAD PUSH32 0x8C379A000000000000000000000000000000000000000000000000000000000 DUP2 MSTORE PUSH1 0x4 ADD PUSH2 0x11EB SWAP1 PUSH2 0x19A7 JUMP JUMPDEST PUSH1 0x40 MLOAD DUP1 SWAP2 SUB SWAP1 REVERT JUMPDEST DUP2 PUSH1 0x20 ADD MLOAD PUSH1 0xD PUSH1 0x0 DUP6 PUSH20 0xFFFFFFFFFFFFFFFFFFFFFFFFFFFFFFFFFFFFFFFF AND PUSH20 0xFFFFFFFFFFFFFFFFFFFFFFFFFFFFFFFFFFFFFFFF AND DUP2 MSTORE PUSH1 0x20 ADD SWAP1 DUP2 MSTORE PUSH1 0x20 ADD PUSH1 0x0 KECCAK256 PUSH1 0x0 DUP5 PUSH1 0x0 ADD MLOAD DUP2 MSTORE PUSH1 0x20 ADD SWAP1 DUP2 MSTORE PUSH1 0x20 ADD PUSH1 0x0 KECCAK256 PUSH1 0x1 ADD PUSH1 0x0 PUSH2 0x100 EXP DUP2 SLOAD DUP2 PUSH1 0xFF MUL NOT AND SWAP1 DUP4 PUSH1 0x4 DUP2 GT ISZERO PUSH2 0x1272 JUMPI PUSH2 0x1271 PUSH2 0x1CD2 JUMP JUMPDEST JUMPDEST MUL OR SWAP1 SSTORE POP DUP2 PUSH1 0x40 ADD MLOAD PUSH1 0xD PUSH1 0x0 DUP6 PUSH20 0xFFFFFFFFFFFFFFFFFFFFFFFFFFFFFFFFFFFFFFFF AND PUSH20 0xFFFFFFFFFFFFFFFFFFFFFFFFFFFFFFFFFFFFFFFF AND DUP2 MSTORE PUSH1 0x20 ADD SWAP1 DUP2 MSTORE PUSH1 0x20 ADD PUSH1 0x0 KECCAK256 PUSH1 0x0 DUP5 PUSH1 0x0 ADD MLOAD DUP2 MSTORE PUSH1 0x20 ADD SWAP1 DUP2 MSTORE PUSH1 0x20 ADD PUSH1 0x0 KECCAK256 PUSH1 0x1 ADD PUSH1 0x1 PUSH2 0x100 EXP DUP2 SLOAD DUP2 PUSH20 0xFFFFFFFFFFFFFFFFFFFFFFFFFFFFFFFFFFFFFFFF MUL NOT AND SWAP1 DUP4 PUSH20 0xFFFFFFFFFFFFFFFFFFFFFFFFFFFFFFFFFFFFFFFF AND MUL OR SWAP1 SSTORE POP DUP2 PUSH1 0x60 ADD MLOAD PUSH1 0xD PUSH1 0x0 DUP6 PUSH20 0xFFFFFFFFFFFFFFFFFFFFFFFFFFFFFFFFFFFFFFFF AND PUSH20 0xFFFFFFFFFFFFFFFFFFFFFFFFFFFFFFFFFFFFFFFF AND DUP2 MSTORE PUSH1 0x20 ADD SWAP1 DUP2 MSTORE PUSH1 0x20 ADD PUSH1 0x0 KECCAK256 PUSH1 0x0 DUP5 PUSH1 0x0 ADD MLOAD DUP2 MSTORE PUSH1 0x20 ADD SWAP1 DUP2 MSTORE PUSH1 0x20 ADD PUSH1 0x0 KECCAK256 PUSH1 0x2 ADD DUP2 SWAP1 SSTORE POP DUP2 PUSH1 0x80 ADD MLOAD PUSH1 0xD PUSH1 0x0 DUP6 PUSH20 0xFFFFFFFFFFFFFFFFFFFFFFFFFFFFFFFFFFFFFFFF AND PUSH20 0xFFFFFFFFFFFFFFFFFFFFFFFFFFFFFFFFFFFFFFFF AND DUP2 MSTORE PUSH1 0x20 ADD SWAP1 DUP2 MSTORE PUSH1 0x20 ADD PUSH1 0x0 KECCAK256 PUSH1 0x0 DUP5 PUSH1 0x0 ADD MLOAD DUP2 MSTORE PUSH1 0x20 ADD SWAP1 DUP2 MSTORE PUSH1 0x20 ADD PUSH1 0x0 KECCAK256 PUSH1 0x3 ADD DUP2 SWAP1 SSTORE POP DUP2 PUSH1 0xA0 ADD MLOAD PUSH1 0xD PUSH1 0x0 DUP6 PUSH20 0xFFFFFFFFFFFFFFFFFFFFFFFFFFFFFFFFFFFFFFFF AND PUSH20 0xFFFFFFFFFFFFFFFFFFFFFFFFFFFFFFFFFFFFFFFF AND DUP2 MSTORE PUSH1 0x20 ADD SWAP1 DUP2 MSTORE PUSH1 0x20 ADD PUSH1 0x0 KECCAK256 PUSH1 0x0 DUP5 PUSH1 0x0 ADD MLOAD DUP2 MSTORE PUSH1 0x20 ADD SWAP1 DUP2 MSTORE PUSH1 0x20 ADD PUSH1 0x0 KECCAK256 PUSH1 0x4 ADD PUSH1 0x0 PUSH2 0x100 EXP DUP2 SLOAD DUP2 PUSH1 0xFF MUL NOT AND SWAP1 DUP4 PUSH1 0x3 DUP2 GT ISZERO PUSH2 0x144F JUMPI PUSH2 0x144E PUSH2 0x1CD2 JUMP JUMPDEST JUMPDEST MUL OR SWAP1 SSTORE POP DUP2 PUSH1 0xC0 ADD MLOAD PUSH1 0xD PUSH1 0x0 DUP6 PUSH20 0xFFFFFFFFFFFFFFFFFFFFFFFFFFFFFFFFFFFFFFFF AND PUSH20 0xFFFFFFFFFFFFFFFFFFFFFFFFFFFFFFFFFFFFFFFF AND DUP2 MSTORE PUSH1 0x20 ADD SWAP1 DUP2 MSTORE PUSH1 0x20 ADD PUSH1 0x0 KECCAK256 PUSH1 0x0 DUP5 PUSH1 0x0 ADD MLOAD DUP2 MSTORE PUSH1 0x20 ADD SWAP1 DUP2 MSTORE PUSH1 0x20 ADD PUSH1 0x0 KECCAK256 PUSH1 0x4 ADD PUSH1 0x1 PUSH2 0x100 EXP DUP2 SLOAD DUP2 PUSH4 0xFFFFFFFF MUL NOT AND SWAP1 DUP4 PUSH4 0xFFFFFFFF AND MUL OR SWAP1 SSTORE POP PUSH32 0xE0AF8937909276B9604018DFF5ED05FCE915311087FBE7EF361A586D7C2FACDA DUP3 PUSH1 0x20 ADD MLOAD DUP4 PUSH1 0x40 ADD MLOAD DUP5 PUSH1 0x60 ADD MLOAD DUP6 PUSH1 0x80 ADD MLOAD DUP7 PUSH1 0xA0 ADD MLOAD DUP8 PUSH1 0xC0 ADD MLOAD PUSH1 0x40 MLOAD PUSH2 0x151F SWAP7 SWAP6 SWAP5 SWAP4 SWAP3 SWAP2 SWAP1 PUSH2 0x1946 JUMP JUMPDEST PUSH1 0x40 MLOAD DUP1 SWAP2 SUB SWAP1 LOG1 DUP2 PUSH1 0x0 ADD MLOAD SWAP1 POP SWAP3 SWAP2 POP POP JUMP JUMPDEST PUSH1 0x0 DUP2 CALLDATALOAD SWAP1 POP PUSH2 0x1543 DUP2 PUSH2 0x1E08 JUMP JUMPDEST SWAP3 SWAP2 POP POP JUMP JUMPDEST PUSH1 0x0 DUP2 CALLDATALOAD SWAP1 POP PUSH2 0x1558 DUP2 PUSH2 0x1E1F JUMP JUMPDEST SWAP3 SWAP2 POP POP JUMP JUMPDEST PUSH1 0x0 DUP2 CALLDATALOAD SWAP1 POP PUSH2 0x156D DUP2 PUSH2 0x1E2F JUMP JUMPDEST SWAP3 SWAP2 POP POP JUMP JUMPDEST PUSH1 0x0 PUSH1 0xE0 DUP3 DUP5 SUB SLT ISZERO PUSH2 0x1589 JUMPI PUSH2 0x1588 PUSH2 0x1D5F JUMP JUMPDEST JUMPDEST PUSH2 0x1593 PUSH1 0xE0 PUSH2 0x1AA1 JUMP JUMPDEST SWAP1 POP PUSH1 0x0 PUSH2 0x15A3 DUP5 DUP3 DUP6 ADD PUSH2 0x1627 JUMP JUMPDEST PUSH1 0x0 DUP4 ADD MSTORE POP PUSH1 0x20 PUSH2 0x15B7 DUP5 DUP3 DUP6 ADD PUSH2 0x155E JUMP JUMPDEST PUSH1 0x20 DUP4 ADD MSTORE POP PUSH1 0x40 PUSH2 0x15CB DUP5 DUP3 DUP6 ADD PUSH2 0x1534 JUMP JUMPDEST PUSH1 0x40 DUP4 ADD MSTORE POP PUSH1 0x60 PUSH2 0x15DF DUP5 DUP3 DUP6 ADD PUSH2 0x1627 JUMP JUMPDEST PUSH1 0x60 DUP4 ADD MSTORE POP PUSH1 0x80 PUSH2 0x15F3 DUP5 DUP3 DUP6 ADD PUSH2 0x1627 JUMP JUMPDEST PUSH1 0x80 DUP4 ADD MSTORE POP PUSH1 0xA0 PUSH2 0x1607 DUP5 DUP3 DUP6 ADD PUSH2 0x1549 JUMP JUMPDEST PUSH1 0xA0 DUP4 ADD MSTORE POP PUSH1 0xC0 PUSH2 0x161B DUP5 DUP3 DUP6 ADD PUSH2 0x163C JUMP JUMPDEST PUSH1 0xC0 DUP4 ADD MSTORE POP SWAP3 SWAP2 POP POP JUMP JUMPDEST PUSH1 0x0 DUP2 CALLDATALOAD SWAP1 POP PUSH2 0x1636 DUP2 PUSH2 0x1E3F JUMP JUMPDEST SWAP3 SWAP2 POP POP JUMP JUMPDEST PUSH1 0x0 DUP2 CALLDATALOAD SWAP1 POP PUSH2 0x164B DUP2 PUSH2 0x1E56 JUMP JUMPDEST SWAP3 SWAP2 POP POP JUMP JUMPDEST PUSH1 0x0 PUSH1 0x20 DUP3 DUP5 SUB SLT ISZERO PUSH2 0x1667 JUMPI PUSH2 0x1666 PUSH2 0x1D64 JUMP JUMPDEST JUMPDEST PUSH1 0x0 PUSH2 0x1675 DUP5 DUP3 DUP6 ADD PUSH2 0x1534 JUMP JUMPDEST SWAP2 POP POP SWAP3 SWAP2 POP POP JUMP JUMPDEST PUSH1 0x0 DUP1 PUSH2 0x100 DUP4 DUP6 SUB SLT ISZERO PUSH2 0x1696 JUMPI PUSH2 0x1695 PUSH2 0x1D64 JUMP JUMPDEST JUMPDEST PUSH1 0x0 PUSH2 0x16A4 DUP6 DUP3 DUP7 ADD PUSH2 0x1534 JUMP JUMPDEST SWAP3 POP POP PUSH1 0x20 PUSH2 0x16B5 DUP6 DUP3 DUP7 ADD PUSH2 0x1573 JUMP JUMPDEST SWAP2 POP POP SWAP3 POP SWAP3 SWAP1 POP JUMP JUMPDEST PUSH1 0x0 DUP1 PUSH1 0x40 DUP4 DUP6 SUB SLT ISZERO PUSH2 0x16D6 JUMPI PUSH2 0x16D5 PUSH2 0x1D64 JUMP JUMPDEST JUMPDEST PUSH1 0x0 PUSH2 0x16E4 DUP6 DUP3 DUP7 ADD PUSH2 0x1534 JUMP JUMPDEST SWAP3 POP POP PUSH1 0x20 PUSH2 0x16F5 DUP6 DUP3 DUP7 ADD PUSH2 0x1627 JUMP JUMPDEST SWAP2 POP POP SWAP3 POP SWAP3 SWAP1 POP JUMP JUMPDEST PUSH1 0x0 PUSH1 0x20 DUP3 DUP5 SUB SLT ISZERO PUSH2 0x1715 JUMPI PUSH2 0x1714 PUSH2 0x1D64 JUMP JUMPDEST JUMPDEST PUSH1 0x0 PUSH2 0x1723 DUP5 DUP3 DUP6 ADD PUSH2 0x163C JUMP JUMPDEST SWAP2 POP POP SWAP3 SWAP2 POP POP JUMP JUMPDEST PUSH2 0x1735 DUP2 PUSH2 0x1AE2 JUMP JUMPDEST DUP3 MSTORE POP POP JUMP JUMPDEST PUSH2 0x1744 DUP2 PUSH2 0x1AF4 JUMP JUMPDEST DUP3 MSTORE POP POP JUMP JUMPDEST PUSH2 0x1753 DUP2 PUSH2 0x1B8E JUMP JUMPDEST DUP3 MSTORE POP POP JUMP JUMPDEST PUSH2 0x1762 DUP2 PUSH2 0x1BA0 JUMP JUMPDEST DUP3 MSTORE POP POP JUMP JUMPDEST PUSH2 0x1771 DUP2 PUSH2 0x1BB2 JUMP JUMPDEST DUP3 MSTORE POP POP JUMP JUMPDEST PUSH1 0x0 PUSH2 0x1782 DUP3 PUSH2 0x1AC6 JUMP JUMPDEST PUSH2 0x178C DUP2 DUP6 PUSH2 0x1AD1 JUMP JUMPDEST SWAP4 POP PUSH2 0x179C DUP2 DUP6 PUSH1 0x20 DUP7 ADD PUSH2 0x1BC4 JUMP JUMPDEST PUSH2 0x17A5 DUP2 PUSH2 0x1D69 JUMP JUMPDEST DUP5 ADD SWAP2 POP POP SWAP3 SWAP2 POP POP JUMP JUMPDEST PUSH1 0x0 PUSH2 0x17BD PUSH1 0x11 DUP4 PUSH2 0x1AD1 JUMP JUMPDEST SWAP2 POP PUSH2 0x17C8 DUP3 PUSH2 0x1D7A JUMP JUMPDEST PUSH1 0x20 DUP3 ADD SWAP1 POP SWAP2 SWAP1 POP JUMP JUMPDEST PUSH1 0x0 PUSH2 0x17E0 PUSH1 0x20 DUP4 PUSH2 0x1AD1 JUMP JUMPDEST SWAP2 POP PUSH2 0x17EB DUP3 PUSH2 0x1DA3 JUMP JUMPDEST PUSH1 0x20 DUP3 ADD SWAP1 POP SWAP2 SWAP1 POP JUMP JUMPDEST PUSH2 0x17FF DUP2 PUSH2 0x1B39 JUMP JUMPDEST DUP3 MSTORE POP POP JUMP JUMPDEST PUSH2 0x180E DUP2 PUSH2 0x1B67 JUMP JUMPDEST DUP3 MSTORE POP POP JUMP JUMPDEST PUSH2 0x181D DUP2 PUSH2 0x1B71 JUMP JUMPDEST DUP3 MSTORE POP POP JUMP JUMPDEST PUSH2 0x182C DUP2 PUSH2 0x1B81 JUMP JUMPDEST DUP3 MSTORE POP POP JUMP JUMPDEST PUSH1 0x0 PUSH1 0x20 DUP3 ADD SWAP1 POP PUSH2 0x1847 PUSH1 0x0 DUP4 ADD DUP5 PUSH2 0x173B JUMP JUMPDEST SWAP3 SWAP2 POP POP JUMP JUMPDEST PUSH1 0x0 PUSH1 0xC0 DUP3 ADD SWAP1 POP PUSH2 0x1862 PUSH1 0x0 DUP4 ADD DUP10 PUSH2 0x173B JUMP JUMPDEST PUSH2 0x186F PUSH1 0x20 DUP4 ADD DUP9 PUSH2 0x172C JUMP JUMPDEST PUSH2 0x187C PUSH1 0x40 DUP4 ADD DUP8 PUSH2 0x17F6 JUMP JUMPDEST PUSH2 0x1889 PUSH1 0x60 DUP4 ADD DUP7 PUSH2 0x1768 JUMP JUMPDEST DUP2 DUP2 SUB PUSH1 0x80 DUP4 ADD MSTORE PUSH2 0x189B DUP2 DUP6 PUSH2 0x1777 JUMP JUMPDEST SWAP1 POP DUP2 DUP2 SUB PUSH1 0xA0 DUP4 ADD MSTORE PUSH2 0x18AF DUP2 DUP5 PUSH2 0x1777 JUMP JUMPDEST SWAP1 POP SWAP8 SWAP7 POP POP POP POP POP POP POP JUMP JUMPDEST PUSH1 0x0 PUSH1 0x60 DUP3 ADD SWAP1 POP PUSH2 0x18D1 PUSH1 0x0 DUP4 ADD DUP7 PUSH2 0x173B JUMP JUMPDEST DUP2 DUP2 SUB PUSH1 0x20 DUP4 ADD MSTORE PUSH2 0x18E3 DUP2 DUP6 PUSH2 0x1777 JUMP JUMPDEST SWAP1 POP PUSH2 0x18F2 PUSH1 0x40 DUP4 ADD DUP5 PUSH2 0x1823 JUMP JUMPDEST SWAP5 SWAP4 POP POP POP POP JUMP JUMPDEST PUSH1 0x0 PUSH1 0x80 DUP3 ADD SWAP1 POP PUSH2 0x190F PUSH1 0x0 DUP4 ADD DUP8 PUSH2 0x173B JUMP JUMPDEST PUSH2 0x191C PUSH1 0x20 DUP4 ADD DUP7 PUSH2 0x1823 JUMP JUMPDEST PUSH2 0x1929 PUSH1 0x40 DUP4 ADD DUP6 PUSH2 0x1805 JUMP JUMPDEST DUP2 DUP2 SUB PUSH1 0x60 DUP4 ADD MSTORE PUSH2 0x193B DUP2 DUP5 PUSH2 0x1777 JUMP JUMPDEST SWAP1 POP SWAP6 SWAP5 POP POP POP POP POP JUMP JUMPDEST PUSH1 0x0 PUSH1 0xC0 DUP3 ADD SWAP1 POP PUSH2 0x195B PUSH1 0x0 DUP4 ADD DUP10 PUSH2 0x1759 JUMP JUMPDEST PUSH2 0x1968 PUSH1 0x20 DUP4 ADD DUP9 PUSH2 0x172C JUMP JUMPDEST PUSH2 0x1975 PUSH1 0x40 DUP4 ADD DUP8 PUSH2 0x1805 JUMP JUMPDEST PUSH2 0x1982 PUSH1 0x60 DUP4 ADD DUP7 PUSH2 0x1805 JUMP JUMPDEST PUSH2 0x198F PUSH1 0x80 DUP4 ADD DUP6 PUSH2 0x174A JUMP JUMPDEST PUSH2 0x199C PUSH1 0xA0 DUP4 ADD DUP5 PUSH2 0x1814 JUMP JUMPDEST SWAP8 SWAP7 POP POP POP POP POP POP POP JUMP JUMPDEST PUSH1 0x0 PUSH1 0x20 DUP3 ADD SWAP1 POP DUP2 DUP2 SUB PUSH1 0x0 DUP4 ADD MSTORE PUSH2 0x19C0 DUP2 PUSH2 0x17B0 JUMP JUMPDEST SWAP1 POP SWAP2 SWAP1 POP JUMP JUMPDEST PUSH1 0x0 PUSH1 0x20 DUP3 ADD SWAP1 POP DUP2 DUP2 SUB PUSH1 0x0 DUP4 ADD MSTORE PUSH2 0x19E0 DUP2 PUSH2 0x17D3 JUMP JUMPDEST SWAP1 POP SWAP2 SWAP1 POP JUMP JUMPDEST PUSH1 0x0 PUSH1 0x20 DUP3 ADD SWAP1 POP PUSH2 0x19FC PUSH1 0x0 DUP4 ADD DUP5 PUSH2 0x1805 JUMP JUMPDEST SWAP3 SWAP2 POP POP JUMP JUMPDEST PUSH1 0x0 PUSH1 0xE0 DUP3 ADD SWAP1 POP PUSH2 0x1A17 PUSH1 0x0 DUP4 ADD DUP11 PUSH2 0x1805 JUMP JUMPDEST PUSH2 0x1A24 PUSH1 0x20 DUP4 ADD DUP10 PUSH2 0x1759 JUMP JUMPDEST PUSH2 0x1A31 PUSH1 0x40 DUP4 ADD DUP9 PUSH2 0x172C JUMP JUMPDEST PUSH2 0x1A3E PUSH1 0x60 DUP4 ADD DUP8 PUSH2 0x1805 JUMP JUMPDEST PUSH2 0x1A4B PUSH1 0x80 DUP4 ADD DUP7 PUSH2 0x1805 JUMP JUMPDEST PUSH2 0x1A58 PUSH1 0xA0 DUP4 ADD DUP6 PUSH2 0x174A JUMP JUMPDEST PUSH2 0x1A65 PUSH1 0xC0 DUP4 ADD DUP5 PUSH2 0x1814 JUMP JUMPDEST SWAP9 SWAP8 POP POP POP POP POP POP POP POP JUMP JUMPDEST PUSH1 0x0 PUSH1 0x40 DUP3 ADD SWAP1 POP PUSH2 0x1A86 PUSH1 0x0 DUP4 ADD DUP6 PUSH2 0x1814 JUMP JUMPDEST DUP2 DUP2 SUB PUSH1 0x20 DUP4 ADD MSTORE PUSH2 0x1A98 DUP2 DUP5 PUSH2 0x1777 JUMP JUMPDEST SWAP1 POP SWAP4 SWAP3 POP POP POP JUMP JUMPDEST PUSH1 0x0 PUSH2 0x1AAB PUSH2 0x1ABC JUMP JUMPDEST SWAP1 POP PUSH2 0x1AB7 DUP3 DUP3 PUSH2 0x1C29 JUMP JUMPDEST SWAP2 SWAP1 POP JUMP JUMPDEST PUSH1 0x0 PUSH1 0x40 MLOAD SWAP1 POP SWAP1 JUMP JUMPDEST PUSH1 0x0 DUP2 MLOAD SWAP1 POP SWAP2 SWAP1 POP JUMP JUMPDEST PUSH1 0x0 DUP3 DUP3 MSTORE PUSH1 0x20 DUP3 ADD SWAP1 POP SWAP3 SWAP2 POP POP JUMP JUMPDEST PUSH1 0x0 PUSH2 0x1AED DUP3 PUSH2 0x1B47 JUMP JUMPDEST SWAP1 POP SWAP2 SWAP1 POP JUMP JUMPDEST PUSH1 0x0 DUP2 ISZERO ISZERO SWAP1 POP SWAP2 SWAP1 POP JUMP JUMPDEST PUSH1 0x0 DUP2 SWAP1 POP PUSH2 0x1B0E DUP3 PUSH2 0x1DCC JUMP JUMPDEST SWAP2 SWAP1 POP JUMP JUMPDEST PUSH1 0x0 DUP2 SWAP1 POP PUSH2 0x1B21 DUP3 PUSH2 0x1DE0 JUMP JUMPDEST SWAP2 SWAP1 POP JUMP JUMPDEST PUSH1 0x0 DUP2 SWAP1 POP PUSH2 0x1B34 DUP3 PUSH2 0x1DF4 JUMP JUMPDEST SWAP2 SWAP1 POP JUMP JUMPDEST PUSH1 0x0 PUSH2 0xFFFF DUP3 AND SWAP1 POP SWAP2 SWAP1 POP JUMP JUMPDEST PUSH1 0x0 PUSH20 0xFFFFFFFFFFFFFFFFFFFFFFFFFFFFFFFFFFFFFFFF DUP3 AND SWAP1 POP SWAP2 SWAP1 POP JUMP JUMPDEST PUSH1 0x0 DUP2 SWAP1 POP SWAP2 SWAP1 POP JUMP JUMPDEST PUSH1 0x0 PUSH4 0xFFFFFFFF DUP3 AND SWAP1 POP SWAP2 SWAP1 POP JUMP JUMPDEST PUSH1 0x0 PUSH1 0xFF DUP3 AND SWAP1 POP SWAP2 SWAP1 POP JUMP JUMPDEST PUSH1 0x0 PUSH2 0x1B99 DUP3 PUSH2 0x1B00 JUMP JUMPDEST SWAP1 POP SWAP2 SWAP1 POP JUMP JUMPDEST PUSH1 0x0 PUSH2 0x1BAB DUP3 PUSH2 0x1B13 JUMP JUMPDEST SWAP1 POP SWAP2 SWAP1 POP JUMP JUMPDEST PUSH1 0x0 PUSH2 0x1BBD DUP3 PUSH2 0x1B26 JUMP JUMPDEST SWAP1 POP SWAP2 SWAP1 POP JUMP JUMPDEST PUSH1 0x0 JUMPDEST DUP4 DUP2 LT ISZERO PUSH2 0x1BE2 JUMPI DUP1 DUP3 ADD MLOAD DUP2 DUP5 ADD MSTORE PUSH1 0x20 DUP2 ADD SWAP1 POP PUSH2 0x1BC7 JUMP JUMPDEST DUP4 DUP2 GT ISZERO PUSH2 0x1BF1 JUMPI PUSH1 0x0 DUP5 DUP5 ADD MSTORE JUMPDEST POP POP POP POP JUMP JUMPDEST PUSH1 0x0 PUSH1 0x2 DUP3 DIV SWAP1 POP PUSH1 0x1 DUP3 AND DUP1 PUSH2 0x1C0F JUMPI PUSH1 0x7F DUP3 AND SWAP2 POP JUMPDEST PUSH1 0x20 DUP3 LT DUP2 EQ ISZERO PUSH2 0x1C23 JUMPI PUSH2 0x1C22 PUSH2 0x1D01 JUMP JUMPDEST JUMPDEST POP SWAP2 SWAP1 POP JUMP JUMPDEST PUSH2 0x1C32 DUP3 PUSH2 0x1D69 JUMP JUMPDEST DUP2 ADD DUP2 DUP2 LT PUSH8 0xFFFFFFFFFFFFFFFF DUP3 GT OR ISZERO PUSH2 0x1C51 JUMPI PUSH2 0x1C50 PUSH2 0x1D30 JUMP JUMPDEST JUMPDEST DUP1 PUSH1 0x40 MSTORE POP POP POP JUMP JUMPDEST PUSH1 0x0 PUSH2 0x1C65 DUP3 PUSH2 0x1B67 JUMP JUMPDEST SWAP2 POP PUSH32 0xFFFFFFFFFFFFFFFFFFFFFFFFFFFFFFFFFFFFFFFFFFFFFFFFFFFFFFFFFFFFFFFF DUP3 EQ ISZERO PUSH2 0x1C98 JUMPI PUSH2 0x1C97 PUSH2 0x1CA3 JUMP JUMPDEST JUMPDEST PUSH1 0x1 DUP3 ADD SWAP1 POP SWAP2 SWAP1 POP JUMP JUMPDEST PUSH32 0x4E487B7100000000000000000000000000000000000000000000000000000000 PUSH1 0x0 MSTORE PUSH1 0x11 PUSH1 0x4 MSTORE PUSH1 0x24 PUSH1 0x0 REVERT JUMPDEST PUSH32 0x4E487B7100000000000000000000000000000000000000000000000000000000 PUSH1 0x0 MSTORE PUSH1 0x21 PUSH1 0x4 MSTORE PUSH1 0x24 PUSH1 0x0 REVERT JUMPDEST PUSH32 0x4E487B7100000000000000000000000000000000000000000000000000000000 PUSH1 0x0 MSTORE PUSH1 0x22 PUSH1 0x4 MSTORE PUSH1 0x24 PUSH1 0x0 REVERT JUMPDEST PUSH32 0x4E487B7100000000000000000000000000000000000000000000000000000000 PUSH1 0x0 MSTORE PUSH1 0x41 PUSH1 0x4 MSTORE PUSH1 0x24 PUSH1 0x0 REVERT JUMPDEST PUSH1 0x0 DUP1 REVERT JUMPDEST PUSH1 0x0 DUP1 REVERT JUMPDEST PUSH1 0x0 PUSH1 0x1F NOT PUSH1 0x1F DUP4 ADD AND SWAP1 POP SWAP2 SWAP1 POP JUMP JUMPDEST PUSH32 0x4B697369206D657663757420646567696C000000000000000000000000000000 PUSH1 0x0 DUP3 ADD MSTORE POP JUMP JUMPDEST PUSH32 0x42752069736C656D6920736164656365204B757273207961706162696C69722E PUSH1 0x0 DUP3 ADD MSTORE POP JUMP JUMPDEST PUSH1 0x4 DUP2 LT PUSH2 0x1DDD JUMPI PUSH2 0x1DDC PUSH2 0x1CD2 JUMP JUMPDEST JUMPDEST POP JUMP JUMPDEST PUSH1 0x5 DUP2 LT PUSH2 0x1DF1 JUMPI PUSH2 0x1DF0 PUSH2 0x1CD2 JUMP JUMPDEST JUMPDEST POP JUMP JUMPDEST PUSH1 0x4 DUP2 LT PUSH2 0x1E05 JUMPI PUSH2 0x1E04 PUSH2 0x1CD2 JUMP JUMPDEST JUMPDEST POP JUMP JUMPDEST PUSH2 0x1E11 DUP2 PUSH2 0x1AE2 JUMP JUMPDEST DUP2 EQ PUSH2 0x1E1C JUMPI PUSH1 0x0 DUP1 REVERT JUMPDEST POP JUMP JUMPDEST PUSH1 0x4 DUP2 LT PUSH2 0x1E2C JUMPI PUSH1 0x0 DUP1 REVERT JUMPDEST POP JUMP JUMPDEST PUSH1 0x5 DUP2 LT PUSH2 0x1E3C JUMPI PUSH1 0x0 DUP1 REVERT JUMPDEST POP JUMP JUMPDEST PUSH2 0x1E48 DUP2 PUSH2 0x1B67 JUMP JUMPDEST DUP2 EQ PUSH2 0x1E53 JUMPI PUSH1 0x0 DUP1 REVERT JUMPDEST POP JUMP JUMPDEST PUSH2 0x1E5F DUP2 PUSH2 0x1B71 JUMP JUMPDEST DUP2 EQ PUSH2 0x1E6A JUMPI PUSH1 0x0 DUP1 REVERT JUMPDEST POP JUMP INVALID LOG2 PUSH5 0x6970667358 0x22 SLT KECCAK256 0x4C SWAP9 0xD9 SWAP16 CALLDATACOPY BALANCE ADDMOD 0xE1 EXP CALLER 0xFB PUSH13 0x223E33E8A462E941D74CFC79AD CALLVALUE 0xB8 0xED DUP10 SWAP13 0xCD 0x4C PUSH5 0x736F6C6343 STOP ADDMOD SMOD STOP CALLER "
				},
				"gasEstimates": {
					"creation": {
						"codeDepositCost": "1568600",
						"executionCost": "1645",
						"totalCost": "1570245"
					},
					"external": {
						"akademisyenler(address)": "infinite",
						"diller(uint32)": "infinite",
						"ekleYabanciDilBilgi(address,(uint256,uint8,address,uint256,uint256,uint8,uint32))": "infinite",
						"firmalar(address)": "infinite",
						"guncelleYabanciDilBilgi(address,(uint256,uint8,address,uint256,uint256,uint8,uint32))": "infinite",
						"id()": "2451",
						"kamuKurumlari(address)": "infinite",
						"kisiler(address)": "2936",
						"kurslar(address)": "infinite",
						"sertifikaMerkezleri(address)": "infinite",
						"stklar(address)": "infinite",
						"universiteler(address)": "infinite",
						"yabanciDilBilgiListesi(address,uint256)": "infinite"
					}
				},
				"methodIdentifiers": {
					"akademisyenler(address)": "ba479b7e",
					"diller(uint32)": "a4e7ae05",
					"ekleYabanciDilBilgi(address,(uint256,uint8,address,uint256,uint256,uint8,uint32))": "70223e73",
					"firmalar(address)": "39987f94",
					"guncelleYabanciDilBilgi(address,(uint256,uint8,address,uint256,uint256,uint8,uint32))": "cc9d368a",
					"id()": "af640d0f",
					"kamuKurumlari(address)": "7d0fa287",
					"kisiler(address)": "cbc92809",
					"kurslar(address)": "1916e139",
					"sertifikaMerkezleri(address)": "356b1f1e",
					"stklar(address)": "9a8c9119",
					"universiteler(address)": "28266697",
					"yabanciDilBilgiListesi(address,uint256)": "64b2c66b"
				}
			},
			"storageLayout": {
				"storage": [
					{
						"astId": 3,
						"contract": "contracts/YabanciDilBilgileri.sol:YabanciDilBilgileri",
						"label": "YOK",
						"offset": 0,
						"slot": "0",
						"type": "t_address"
					},
					{
						"astId": 5,
						"contract": "contracts/YabanciDilBilgileri.sol:YabanciDilBilgileri",
						"label": "TOBB",
						"offset": 0,
						"slot": "1",
						"type": "t_address"
					},
					{
						"astId": 7,
						"contract": "contracts/YabanciDilBilgileri.sol:YabanciDilBilgileri",
						"label": "CB",
						"offset": 0,
						"slot": "2",
						"type": "t_address"
					},
					{
						"astId": 204,
						"contract": "contracts/YabanciDilBilgileri.sol:YabanciDilBilgileri",
						"label": "kisiler",
						"offset": 0,
						"slot": "3",
						"type": "t_mapping(t_address,t_struct(Kisi)10_storage)"
					},
					{
						"astId": 209,
						"contract": "contracts/YabanciDilBilgileri.sol:YabanciDilBilgileri",
						"label": "universiteler",
						"offset": 0,
						"slot": "4",
						"type": "t_mapping(t_address,t_struct(Universite)17_storage)"
					},
					{
						"astId": 214,
						"contract": "contracts/YabanciDilBilgileri.sol:YabanciDilBilgileri",
						"label": "akademisyenler",
						"offset": 0,
						"slot": "5",
						"type": "t_mapping(t_address,t_struct(Akademisyen)31_storage)"
					},
					{
						"astId": 219,
						"contract": "contracts/YabanciDilBilgileri.sol:YabanciDilBilgileri",
						"label": "firmalar",
						"offset": 0,
						"slot": "6",
						"type": "t_mapping(t_address,t_struct(Firma)51_storage)"
					},
					{
						"astId": 224,
						"contract": "contracts/YabanciDilBilgileri.sol:YabanciDilBilgileri",
						"label": "kurslar",
						"offset": 0,
						"slot": "7",
						"type": "t_mapping(t_address,t_struct(Kurs)79_storage)"
					},
					{
						"astId": 229,
						"contract": "contracts/YabanciDilBilgileri.sol:YabanciDilBilgileri",
						"label": "kamuKurumlari",
						"offset": 0,
						"slot": "8",
						"type": "t_mapping(t_address,t_struct(KamuKurumu)58_storage)"
					},
					{
						"astId": 234,
						"contract": "contracts/YabanciDilBilgileri.sol:YabanciDilBilgileri",
						"label": "stklar",
						"offset": 0,
						"slot": "9",
						"type": "t_mapping(t_address,t_struct(STK)65_storage)"
					},
					{
						"astId": 239,
						"contract": "contracts/YabanciDilBilgileri.sol:YabanciDilBilgileri",
						"label": "sertifikaMerkezleri",
						"offset": 0,
						"slot": "10",
						"type": "t_mapping(t_address,t_struct(SertifikaMerkezi)72_storage)"
					},
					{
						"astId": 244,
						"contract": "contracts/YabanciDilBilgileri.sol:YabanciDilBilgileri",
						"label": "diller",
						"offset": 0,
						"slot": "11",
						"type": "t_mapping(t_uint32,t_struct(YabanciDil)84_storage)"
					},
					{
						"astId": 625,
						"contract": "contracts/YabanciDilBilgileri.sol:YabanciDilBilgileri",
						"label": "id",
						"offset": 0,
						"slot": "12",
						"type": "t_uint256"
					},
					{
						"astId": 649,
						"contract": "contracts/YabanciDilBilgileri.sol:YabanciDilBilgileri",
						"label": "yabanciDilBilgiListesi",
						"offset": 0,
						"slot": "13",
						"type": "t_mapping(t_address,t_mapping(t_uint256,t_struct(YabanciDilBilgi)642_storage))"
					}
				],
				"types": {
					"t_address": {
						"encoding": "inplace",
						"label": "address",
						"numberOfBytes": "20"
					},
					"t_bool": {
						"encoding": "inplace",
						"label": "bool",
						"numberOfBytes": "1"
					},
					"t_enum(OgretimTipi)289": {
						"encoding": "inplace",
						"label": "enum EgitimBilgileri.OgretimTipi",
						"numberOfBytes": "1"
					},
					"t_enum(OnaylayanKurum)42": {
						"encoding": "inplace",
						"label": "enum BaseContract.OnaylayanKurum",
						"numberOfBytes": "1"
					},
					"t_enum(Unvan)36": {
						"encoding": "inplace",
						"label": "enum BaseContract.Unvan",
						"numberOfBytes": "1"
					},
					"t_mapping(t_address,t_mapping(t_uint256,t_struct(YabanciDilBilgi)642_storage))": {
						"encoding": "mapping",
						"key": "t_address",
						"label": "mapping(address => mapping(uint256 => struct YabanciDilBilgileri.YabanciDilBilgi))",
						"numberOfBytes": "32",
						"value": "t_mapping(t_uint256,t_struct(YabanciDilBilgi)642_storage)"
					},
					"t_mapping(t_address,t_struct(Akademisyen)31_storage)": {
						"encoding": "mapping",
						"key": "t_address",
						"label": "mapping(address => struct BaseContract.Akademisyen)",
						"numberOfBytes": "32",
						"value": "t_struct(Akademisyen)31_storage"
					},
					"t_mapping(t_address,t_struct(Firma)51_storage)": {
						"encoding": "mapping",
						"key": "t_address",
						"label": "mapping(address => struct BaseContract.Firma)",
						"numberOfBytes": "32",
						"value": "t_struct(Firma)51_storage"
					},
					"t_mapping(t_address,t_struct(KamuKurumu)58_storage)": {
						"encoding": "mapping",
						"key": "t_address",
						"label": "mapping(address => struct BaseContract.KamuKurumu)",
						"numberOfBytes": "32",
						"value": "t_struct(KamuKurumu)58_storage"
					},
					"t_mapping(t_address,t_struct(Kisi)10_storage)": {
						"encoding": "mapping",
						"key": "t_address",
						"label": "mapping(address => struct BaseContract.Kisi)",
						"numberOfBytes": "32",
						"value": "t_struct(Kisi)10_storage"
					},
					"t_mapping(t_address,t_struct(Kurs)79_storage)": {
						"encoding": "mapping",
						"key": "t_address",
						"label": "mapping(address => struct BaseContract.Kurs)",
						"numberOfBytes": "32",
						"value": "t_struct(Kurs)79_storage"
					},
					"t_mapping(t_address,t_struct(STK)65_storage)": {
						"encoding": "mapping",
						"key": "t_address",
						"label": "mapping(address => struct BaseContract.STK)",
						"numberOfBytes": "32",
						"value": "t_struct(STK)65_storage"
					},
					"t_mapping(t_address,t_struct(SertifikaMerkezi)72_storage)": {
						"encoding": "mapping",
						"key": "t_address",
						"label": "mapping(address => struct BaseContract.SertifikaMerkezi)",
						"numberOfBytes": "32",
						"value": "t_struct(SertifikaMerkezi)72_storage"
					},
					"t_mapping(t_address,t_struct(Universite)17_storage)": {
						"encoding": "mapping",
						"key": "t_address",
						"label": "mapping(address => struct BaseContract.Universite)",
						"numberOfBytes": "32",
						"value": "t_struct(Universite)17_storage"
					},
					"t_mapping(t_uint256,t_struct(YabanciDilBilgi)642_storage)": {
						"encoding": "mapping",
						"key": "t_uint256",
						"label": "mapping(uint256 => struct YabanciDilBilgileri.YabanciDilBilgi)",
						"numberOfBytes": "32",
						"value": "t_struct(YabanciDilBilgi)642_storage"
					},
					"t_mapping(t_uint32,t_struct(YabanciDil)84_storage)": {
						"encoding": "mapping",
						"key": "t_uint32",
						"label": "mapping(uint32 => struct BaseContract.YabanciDil)",
						"numberOfBytes": "32",
						"value": "t_struct(YabanciDil)84_storage"
					},
					"t_string_storage": {
						"encoding": "bytes",
						"label": "string",
						"numberOfBytes": "32"
					},
					"t_struct(Akademisyen)31_storage": {
						"encoding": "inplace",
						"label": "struct BaseContract.Akademisyen",
						"members": [
							{
								"astId": 19,
								"contract": "contracts/YabanciDilBilgileri.sol:YabanciDilBilgileri",
								"label": "durum",
								"offset": 0,
								"slot": "0",
								"type": "t_bool"
							},
							{
								"astId": 21,
								"contract": "contracts/YabanciDilBilgileri.sol:YabanciDilBilgileri",
								"label": "universite",
								"offset": 1,
								"slot": "0",
								"type": "t_address"
							},
							{
								"astId": 23,
								"contract": "contracts/YabanciDilBilgileri.sol:YabanciDilBilgileri",
								"label": "bolum",
								"offset": 21,
								"slot": "0",
								"type": "t_uint16"
							},
							{
								"astId": 26,
								"contract": "contracts/YabanciDilBilgileri.sol:YabanciDilBilgileri",
								"label": "unvan",
								"offset": 23,
								"slot": "0",
								"type": "t_enum(Unvan)36"
							},
							{
								"astId": 28,
								"contract": "contracts/YabanciDilBilgileri.sol:YabanciDilBilgileri",
								"label": "ad",
								"offset": 0,
								"slot": "1",
								"type": "t_string_storage"
							},
							{
								"astId": 30,
								"contract": "contracts/YabanciDilBilgileri.sol:YabanciDilBilgileri",
								"label": "soyad",
								"offset": 0,
								"slot": "2",
								"type": "t_string_storage"
							}
						],
						"numberOfBytes": "96"
					},
					"t_struct(Firma)51_storage": {
						"encoding": "inplace",
						"label": "struct BaseContract.Firma",
						"members": [
							{
								"astId": 44,
								"contract": "contracts/YabanciDilBilgileri.sol:YabanciDilBilgileri",
								"label": "durum",
								"offset": 0,
								"slot": "0",
								"type": "t_bool"
							},
							{
								"astId": 46,
								"contract": "contracts/YabanciDilBilgileri.sol:YabanciDilBilgileri",
								"label": "ulke",
								"offset": 1,
								"slot": "0",
								"type": "t_uint8"
							},
							{
								"astId": 48,
								"contract": "contracts/YabanciDilBilgileri.sol:YabanciDilBilgileri",
								"label": "vergiNo",
								"offset": 0,
								"slot": "1",
								"type": "t_uint256"
							},
							{
								"astId": 50,
								"contract": "contracts/YabanciDilBilgileri.sol:YabanciDilBilgileri",
								"label": "isim",
								"offset": 0,
								"slot": "2",
								"type": "t_string_storage"
							}
						],
						"numberOfBytes": "96"
					},
					"t_struct(KamuKurumu)58_storage": {
						"encoding": "inplace",
						"label": "struct BaseContract.KamuKurumu",
						"members": [
							{
								"astId": 53,
								"contract": "contracts/YabanciDilBilgileri.sol:YabanciDilBilgileri",
								"label": "durum",
								"offset": 0,
								"slot": "0",
								"type": "t_bool"
							},
							{
								"astId": 55,
								"contract": "contracts/YabanciDilBilgileri.sol:YabanciDilBilgileri",
								"label": "isim",
								"offset": 0,
								"slot": "1",
								"type": "t_string_storage"
							},
							{
								"astId": 57,
								"contract": "contracts/YabanciDilBilgileri.sol:YabanciDilBilgileri",
								"label": "ulke",
								"offset": 0,
								"slot": "2",
								"type": "t_uint8"
							}
						],
						"numberOfBytes": "96"
					},
					"t_struct(Kisi)10_storage": {
						"encoding": "inplace",
						"label": "struct BaseContract.Kisi",
						"members": [
							{
								"astId": 9,
								"contract": "contracts/YabanciDilBilgileri.sol:YabanciDilBilgileri",
								"label": "durum",
								"offset": 0,
								"slot": "0",
								"type": "t_bool"
							}
						],
						"numberOfBytes": "32"
					},
					"t_struct(Kurs)79_storage": {
						"encoding": "inplace",
						"label": "struct BaseContract.Kurs",
						"members": [
							{
								"astId": 74,
								"contract": "contracts/YabanciDilBilgileri.sol:YabanciDilBilgileri",
								"label": "durum",
								"offset": 0,
								"slot": "0",
								"type": "t_bool"
							},
							{
								"astId": 76,
								"contract": "contracts/YabanciDilBilgileri.sol:YabanciDilBilgileri",
								"label": "isim",
								"offset": 0,
								"slot": "1",
								"type": "t_string_storage"
							},
							{
								"astId": 78,
								"contract": "contracts/YabanciDilBilgileri.sol:YabanciDilBilgileri",
								"label": "ulke",
								"offset": 0,
								"slot": "2",
								"type": "t_uint8"
							}
						],
						"numberOfBytes": "96"
					},
					"t_struct(STK)65_storage": {
						"encoding": "inplace",
						"label": "struct BaseContract.STK",
						"members": [
							{
								"astId": 60,
								"contract": "contracts/YabanciDilBilgileri.sol:YabanciDilBilgileri",
								"label": "durum",
								"offset": 0,
								"slot": "0",
								"type": "t_bool"
							},
							{
								"astId": 62,
								"contract": "contracts/YabanciDilBilgileri.sol:YabanciDilBilgileri",
								"label": "isim",
								"offset": 0,
								"slot": "1",
								"type": "t_string_storage"
							},
							{
								"astId": 64,
								"contract": "contracts/YabanciDilBilgileri.sol:YabanciDilBilgileri",
								"label": "ulke",
								"offset": 0,
								"slot": "2",
								"type": "t_uint8"
							}
						],
						"numberOfBytes": "96"
					},
					"t_struct(SertifikaMerkezi)72_storage": {
						"encoding": "inplace",
						"label": "struct BaseContract.SertifikaMerkezi",
						"members": [
							{
								"astId": 67,
								"contract": "contracts/YabanciDilBilgileri.sol:YabanciDilBilgileri",
								"label": "durum",
								"offset": 0,
								"slot": "0",
								"type": "t_bool"
							},
							{
								"astId": 69,
								"contract": "contracts/YabanciDilBilgileri.sol:YabanciDilBilgileri",
								"label": "isim",
								"offset": 0,
								"slot": "1",
								"type": "t_string_storage"
							},
							{
								"astId": 71,
								"contract": "contracts/YabanciDilBilgileri.sol:YabanciDilBilgileri",
								"label": "ulke",
								"offset": 0,
								"slot": "2",
								"type": "t_uint8"
							}
						],
						"numberOfBytes": "96"
					},
					"t_struct(Universite)17_storage": {
						"encoding": "inplace",
						"label": "struct BaseContract.Universite",
						"members": [
							{
								"astId": 12,
								"contract": "contracts/YabanciDilBilgileri.sol:YabanciDilBilgileri",
								"label": "durum",
								"offset": 0,
								"slot": "0",
								"type": "t_bool"
							},
							{
								"astId": 14,
								"contract": "contracts/YabanciDilBilgileri.sol:YabanciDilBilgileri",
								"label": "isim",
								"offset": 0,
								"slot": "1",
								"type": "t_string_storage"
							},
							{
								"astId": 16,
								"contract": "contracts/YabanciDilBilgileri.sol:YabanciDilBilgileri",
								"label": "ulke",
								"offset": 0,
								"slot": "2",
								"type": "t_uint8"
							}
						],
						"numberOfBytes": "96"
					},
					"t_struct(YabanciDil)84_storage": {
						"encoding": "inplace",
						"label": "struct BaseContract.YabanciDil",
						"members": [
							{
								"astId": 81,
								"contract": "contracts/YabanciDilBilgileri.sol:YabanciDilBilgileri",
								"label": "id",
								"offset": 0,
								"slot": "0",
								"type": "t_uint32"
							},
							{
								"astId": 83,
								"contract": "contracts/YabanciDilBilgileri.sol:YabanciDilBilgileri",
								"label": "isim",
								"offset": 0,
								"slot": "1",
								"type": "t_string_storage"
							}
						],
						"numberOfBytes": "64"
					},
					"t_struct(YabanciDilBilgi)642_storage": {
						"encoding": "inplace",
						"label": "struct YabanciDilBilgileri.YabanciDilBilgi",
						"members": [
							{
								"astId": 627,
								"contract": "contracts/YabanciDilBilgileri.sol:YabanciDilBilgileri",
								"label": "id",
								"offset": 0,
								"slot": "0",
								"type": "t_uint256"
							},
							{
								"astId": 630,
								"contract": "contracts/YabanciDilBilgileri.sol:YabanciDilBilgileri",
								"label": "onayKurumTipi",
								"offset": 0,
								"slot": "1",
								"type": "t_enum(OnaylayanKurum)42"
							},
							{
								"astId": 632,
								"contract": "contracts/YabanciDilBilgileri.sol:YabanciDilBilgileri",
								"label": "onayKurum",
								"offset": 1,
								"slot": "1",
								"type": "t_address"
							},
							{
								"astId": 634,
								"contract": "contracts/YabanciDilBilgileri.sol:YabanciDilBilgileri",
								"label": "basTarih",
								"offset": 0,
								"slot": "2",
								"type": "t_uint256"
							},
							{
								"astId": 636,
								"contract": "contracts/YabanciDilBilgileri.sol:YabanciDilBilgileri",
								"label": "bitTarih",
								"offset": 0,
								"slot": "3",
								"type": "t_uint256"
							},
							{
								"astId": 639,
								"contract": "contracts/YabanciDilBilgileri.sol:YabanciDilBilgileri",
								"label": "ogretimTipi",
								"offset": 0,
								"slot": "4",
								"type": "t_enum(OgretimTipi)289"
							},
							{
								"astId": 641,
								"contract": "contracts/YabanciDilBilgileri.sol:YabanciDilBilgileri",
								"label": "dilId",
								"offset": 1,
								"slot": "4",
								"type": "t_uint32"
							}
						],
						"numberOfBytes": "160"
					},
					"t_uint16": {
						"encoding": "inplace",
						"label": "uint16",
						"numberOfBytes": "2"
					},
					"t_uint256": {
						"encoding": "inplace",
						"label": "uint256",
						"numberOfBytes": "32"
					},
					"t_uint32": {
						"encoding": "inplace",
						"label": "uint32",
						"numberOfBytes": "4"
					},
					"t_uint8": {
						"encoding": "inplace",
						"label": "uint8",
						"numberOfBytes": "1"
					}
				}
			},
			"userdoc": {
				"kind": "user",
				"methods": {},
				"version": 1
			}
		}
	}
}