{
	"contracts/BaseContract.sol": {
		"BaseContract": {
			"abi": [
				{
					"inputs": [],
					"name": "YOK",
					"outputs": [
						{
							"internalType": "address",
							"name": "",
							"type": "address"
						}
					],
					"stateMutability": "view",
					"type": "function"
				},
				{
					"inputs": [
						{
							"internalType": "address",
							"name": "",
							"type": "address"
						}
					],
					"name": "akademisyenler",
					"outputs": [
						{
							"internalType": "bool",
							"name": "durum",
							"type": "bool"
						},
						{
							"internalType": "address",
							"name": "universite",
							"type": "address"
						},
						{
							"internalType": "uint16",
							"name": "bolum",
							"type": "uint16"
						},
						{
							"internalType": "enum BaseContract.Unvan",
							"name": "unvan",
							"type": "uint8"
						},
						{
							"internalType": "string",
							"name": "ad",
							"type": "string"
						},
						{
							"internalType": "string",
							"name": "soyad",
							"type": "string"
						}
					],
					"stateMutability": "view",
					"type": "function"
				},
				{
					"inputs": [
						{
							"internalType": "uint32",
							"name": "",
							"type": "uint32"
						}
					],
					"name": "diller",
					"outputs": [
						{
							"internalType": "uint32",
							"name": "id",
							"type": "uint32"
						},
						{
							"internalType": "string",
							"name": "isim",
							"type": "string"
						}
					],
					"stateMutability": "view",
					"type": "function"
				},
				{
					"inputs": [
						{
							"internalType": "address",
							"name": "_firmaAdres",
							"type": "address"
						},
						{
							"internalType": "string",
							"name": "_isim",
							"type": "string"
						},
						{
							"internalType": "uint256",
							"name": "_vergiNo",
							"type": "uint256"
						},
						{
							"internalType": "uint8",
							"name": "_ulke",
							"type": "uint8"
						}
					],
					"name": "ekleFirma",
					"outputs": [],
					"stateMutability": "nonpayable",
					"type": "function"
				},
				{
					"inputs": [
						{
							"internalType": "address",
							"name": "_kamuKurumuAdres",
							"type": "address"
						},
						{
							"internalType": "string",
							"name": "_isim",
							"type": "string"
						},
						{
							"internalType": "uint8",
							"name": "_ulke",
							"type": "uint8"
						}
					],
					"name": "ekleKamuKurumu",
					"outputs": [],
					"stateMutability": "nonpayable",
					"type": "function"
				},
				{
					"inputs": [
						{
							"internalType": "address",
							"name": "_kisiAdres",
							"type": "address"
						}
					],
					"name": "ekleKisi",
					"outputs": [],
					"stateMutability": "nonpayable",
					"type": "function"
				},
				{
					"inputs": [
						{
							"internalType": "address",
							"name": "_kursAdres",
							"type": "address"
						},
						{
							"internalType": "string",
							"name": "_isim",
							"type": "string"
						},
						{
							"internalType": "uint8",
							"name": "_ulke",
							"type": "uint8"
						}
					],
					"name": "ekleKurs",
					"outputs": [],
					"stateMutability": "nonpayable",
					"type": "function"
				},
				{
					"inputs": [
						{
							"internalType": "address",
							"name": "_stkAdres",
							"type": "address"
						},
						{
							"internalType": "string",
							"name": "_isim",
							"type": "string"
						},
						{
							"internalType": "uint8",
							"name": "_ulke",
							"type": "uint8"
						}
					],
					"name": "ekleSTK",
					"outputs": [],
					"stateMutability": "nonpayable",
					"type": "function"
				},
				{
					"inputs": [
						{
							"internalType": "address",
							"name": "_smAdres",
							"type": "address"
						},
						{
							"internalType": "string",
							"name": "_isim",
							"type": "string"
						},
						{
							"internalType": "uint8",
							"name": "_ulke",
							"type": "uint8"
						}
					],
					"name": "ekleSertifikaMerkezi",
					"outputs": [],
					"stateMutability": "nonpayable",
					"type": "function"
				},
				{
					"inputs": [
						{
							"internalType": "address",
							"name": "_universiteAdres",
							"type": "address"
						},
						{
							"internalType": "string",
							"name": "_isim",
							"type": "string"
						},
						{
							"internalType": "uint8",
							"name": "_ulke",
							"type": "uint8"
						}
					],
					"name": "ekleUniversite",
					"outputs": [],
					"stateMutability": "nonpayable",
					"type": "function"
				},
				{
					"inputs": [
						{
							"internalType": "uint256",
							"name": "",
							"type": "uint256"
						}
					],
					"name": "firmaAdresleri",
					"outputs": [
						{
							"internalType": "address",
							"name": "",
							"type": "address"
						}
					],
					"stateMutability": "view",
					"type": "function"
				},
				{
					"inputs": [
						{
							"internalType": "address",
							"name": "",
							"type": "address"
						}
					],
					"name": "firmalar",
					"outputs": [
						{
							"internalType": "bool",
							"name": "durum",
							"type": "bool"
						},
						{
							"internalType": "uint8",
							"name": "ulke",
							"type": "uint8"
						},
						{
							"internalType": "uint256",
							"name": "vergiNo",
							"type": "uint256"
						},
						{
							"internalType": "string",
							"name": "isim",
							"type": "string"
						}
					],
					"stateMutability": "view",
					"type": "function"
				},
				{
					"inputs": [],
					"name": "getFirmaListesi",
					"outputs": [
						{
							"components": [
								{
									"internalType": "bool",
									"name": "durum",
									"type": "bool"
								},
								{
									"internalType": "uint8",
									"name": "ulke",
									"type": "uint8"
								},
								{
									"internalType": "uint256",
									"name": "vergiNo",
									"type": "uint256"
								},
								{
									"internalType": "string",
									"name": "isim",
									"type": "string"
								}
							],
							"internalType": "struct BaseContract.Firma[]",
							"name": "",
							"type": "tuple[]"
						}
					],
					"stateMutability": "view",
					"type": "function"
				},
				{
					"inputs": [],
					"name": "getKamuKurumuListesi",
					"outputs": [
						{
							"components": [
								{
									"internalType": "bool",
									"name": "durum",
									"type": "bool"
								},
								{
									"internalType": "string",
									"name": "isim",
									"type": "string"
								},
								{
									"internalType": "uint8",
									"name": "ulke",
									"type": "uint8"
								}
							],
							"internalType": "struct BaseContract.KamuKurumu[]",
							"name": "",
							"type": "tuple[]"
						}
					],
					"stateMutability": "view",
					"type": "function"
				},
				{
					"inputs": [],
					"name": "getKursListesi",
					"outputs": [
						{
							"components": [
								{
									"internalType": "bool",
									"name": "durum",
									"type": "bool"
								},
								{
									"internalType": "string",
									"name": "isim",
									"type": "string"
								},
								{
									"internalType": "uint8",
									"name": "ulke",
									"type": "uint8"
								}
							],
							"internalType": "struct BaseContract.Kurs[]",
							"name": "",
							"type": "tuple[]"
						}
					],
					"stateMutability": "view",
					"type": "function"
				},
				{
					"inputs": [],
					"name": "getSmListesi",
					"outputs": [
						{
							"components": [
								{
									"internalType": "bool",
									"name": "durum",
									"type": "bool"
								},
								{
									"internalType": "string",
									"name": "isim",
									"type": "string"
								},
								{
									"internalType": "uint8",
									"name": "ulke",
									"type": "uint8"
								}
							],
							"internalType": "struct BaseContract.SertifikaMerkezi[]",
							"name": "",
							"type": "tuple[]"
						}
					],
					"stateMutability": "view",
					"type": "function"
				},
				{
					"inputs": [],
					"name": "getStkListesi",
					"outputs": [
						{
							"components": [
								{
									"internalType": "bool",
									"name": "durum",
									"type": "bool"
								},
								{
									"internalType": "string",
									"name": "isim",
									"type": "string"
								},
								{
									"internalType": "uint8",
									"name": "ulke",
									"type": "uint8"
								}
							],
							"internalType": "struct BaseContract.STK[]",
							"name": "",
							"type": "tuple[]"
						}
					],
					"stateMutability": "view",
					"type": "function"
				},
				{
					"inputs": [],
					"name": "getUniversiteListesi",
					"outputs": [
						{
							"components": [
								{
									"internalType": "bool",
									"name": "durum",
									"type": "bool"
								},
								{
									"internalType": "string",
									"name": "isim",
									"type": "string"
								},
								{
									"internalType": "uint8",
									"name": "ulke",
									"type": "uint8"
								}
							],
							"internalType": "struct BaseContract.Universite[]",
							"name": "",
							"type": "tuple[]"
						}
					],
					"stateMutability": "view",
					"type": "function"
				},
				{
					"inputs": [
						{
							"internalType": "address",
							"name": "_firmaAdres",
							"type": "address"
						},
						{
							"internalType": "string",
							"name": "_isim",
							"type": "string"
						},
						{
							"internalType": "uint256",
							"name": "_vergiNo",
							"type": "uint256"
						},
						{
							"internalType": "uint8",
							"name": "_ulke",
							"type": "uint8"
						}
					],
					"name": "guncelleFirma",
					"outputs": [],
					"stateMutability": "nonpayable",
					"type": "function"
				},
				{
					"inputs": [
						{
							"internalType": "address",
							"name": "_kamuKurumuAdres",
							"type": "address"
						},
						{
							"internalType": "string",
							"name": "_isim",
							"type": "string"
						},
						{
							"internalType": "uint8",
							"name": "_ulke",
							"type": "uint8"
						}
					],
					"name": "guncelleKamuKurumu",
					"outputs": [],
					"stateMutability": "nonpayable",
					"type": "function"
				},
				{
					"inputs": [
						{
							"internalType": "address",
							"name": "_kisiAdres",
							"type": "address"
						},
						{
							"internalType": "bool",
							"name": "_durum",
							"type": "bool"
						}
					],
					"name": "guncelleKisi",
					"outputs": [],
					"stateMutability": "nonpayable",
					"type": "function"
				},
				{
					"inputs": [
						{
							"internalType": "address",
							"name": "_kursAdres",
							"type": "address"
						},
						{
							"internalType": "string",
							"name": "_isim",
							"type": "string"
						},
						{
							"internalType": "uint8",
							"name": "_ulke",
							"type": "uint8"
						}
					],
					"name": "guncelleKurs",
					"outputs": [],
					"stateMutability": "nonpayable",
					"type": "function"
				},
				{
					"inputs": [
						{
							"internalType": "address",
							"name": "_stkAdres",
							"type": "address"
						},
						{
							"internalType": "string",
							"name": "_isim",
							"type": "string"
						},
						{
							"internalType": "uint8",
							"name": "_ulke",
							"type": "uint8"
						}
					],
					"name": "guncelleSTK",
					"outputs": [],
					"stateMutability": "nonpayable",
					"type": "function"
				},
				{
					"inputs": [
						{
							"internalType": "address",
							"name": "_smAdres",
							"type": "address"
						},
						{
							"internalType": "string",
							"name": "_isim",
							"type": "string"
						},
						{
							"internalType": "uint8",
							"name": "_ulke",
							"type": "uint8"
						}
					],
					"name": "guncelleSertifikaMerkezi",
					"outputs": [],
					"stateMutability": "nonpayable",
					"type": "function"
				},
				{
					"inputs": [
						{
							"internalType": "address",
							"name": "_universiteAdres",
							"type": "address"
						},
						{
							"internalType": "string",
							"name": "_isim",
							"type": "string"
						},
						{
							"internalType": "uint8",
							"name": "_ulke",
							"type": "uint8"
						}
					],
					"name": "guncelleUniversite",
					"outputs": [],
					"stateMutability": "nonpayable",
					"type": "function"
				},
				{
					"inputs": [
						{
							"internalType": "address",
							"name": "_address",
							"type": "address"
						}
					],
					"name": "isCB",
					"outputs": [
						{
							"internalType": "bool",
							"name": "",
							"type": "bool"
						}
					],
					"stateMutability": "view",
					"type": "function"
				},
				{
					"inputs": [
						{
							"internalType": "address",
							"name": "_address",
							"type": "address"
						}
					],
					"name": "isFirma",
					"outputs": [
						{
							"internalType": "bool",
							"name": "",
							"type": "bool"
						}
					],
					"stateMutability": "view",
					"type": "function"
				},
				{
					"inputs": [
						{
							"internalType": "address",
							"name": "_address",
							"type": "address"
						}
					],
					"name": "isKamuKurumu",
					"outputs": [
						{
							"internalType": "bool",
							"name": "",
							"type": "bool"
						}
					],
					"stateMutability": "view",
					"type": "function"
				},
				{
					"inputs": [
						{
							"internalType": "address",
							"name": "_address",
							"type": "address"
						}
					],
					"name": "isKisi",
					"outputs": [
						{
							"internalType": "bool",
							"name": "",
							"type": "bool"
						}
					],
					"stateMutability": "view",
					"type": "function"
				},
				{
					"inputs": [
						{
							"internalType": "address",
							"name": "_address",
							"type": "address"
						}
					],
					"name": "isKurs",
					"outputs": [
						{
							"internalType": "bool",
							"name": "",
							"type": "bool"
						}
					],
					"stateMutability": "view",
					"type": "function"
				},
				{
					"inputs": [
						{
							"internalType": "address",
							"name": "_address",
							"type": "address"
						}
					],
					"name": "isSTK",
					"outputs": [
						{
							"internalType": "bool",
							"name": "",
							"type": "bool"
						}
					],
					"stateMutability": "view",
					"type": "function"
				},
				{
					"inputs": [
						{
							"internalType": "address",
							"name": "_address",
							"type": "address"
						}
					],
					"name": "isSertifikaMerkezi",
					"outputs": [
						{
							"internalType": "bool",
							"name": "",
							"type": "bool"
						}
					],
					"stateMutability": "view",
					"type": "function"
				},
				{
					"inputs": [
						{
							"internalType": "address",
							"name": "_address",
							"type": "address"
						}
					],
					"name": "isTOBB",
					"outputs": [
						{
							"internalType": "bool",
							"name": "",
							"type": "bool"
						}
					],
					"stateMutability": "view",
					"type": "function"
				},
				{
					"inputs": [
						{
							"internalType": "address",
							"name": "_address",
							"type": "address"
						}
					],
					"name": "isUniversite",
					"outputs": [
						{
							"internalType": "bool",
							"name": "",
							"type": "bool"
						}
					],
					"stateMutability": "view",
					"type": "function"
				},
				{
					"inputs": [
						{
							"internalType": "address",
							"name": "_address",
							"type": "address"
						}
					],
					"name": "isYOK",
					"outputs": [
						{
							"internalType": "bool",
							"name": "",
							"type": "bool"
						}
					],
					"stateMutability": "view",
					"type": "function"
				},
				{
					"inputs": [
						{
							"internalType": "uint256",
							"name": "",
							"type": "uint256"
						}
					],
					"name": "kamuKurumAdresleri",
					"outputs": [
						{
							"internalType": "address",
							"name": "",
							"type": "address"
						}
					],
					"stateMutability": "view",
					"type": "function"
				},
				{
					"inputs": [
						{
							"internalType": "address",
							"name": "",
							"type": "address"
						}
					],
					"name": "kamuKurumlari",
					"outputs": [
						{
							"internalType": "bool",
							"name": "durum",
							"type": "bool"
						},
						{
							"internalType": "string",
							"name": "isim",
							"type": "string"
						},
						{
							"internalType": "uint8",
							"name": "ulke",
							"type": "uint8"
						}
					],
					"stateMutability": "view",
					"type": "function"
				},
				{
					"inputs": [
						{
							"internalType": "uint256",
							"name": "",
							"type": "uint256"
						}
					],
					"name": "kisiAdresleri",
					"outputs": [
						{
							"internalType": "address",
							"name": "",
							"type": "address"
						}
					],
					"stateMutability": "view",
					"type": "function"
				},
				{
					"inputs": [
						{
							"internalType": "address",
							"name": "",
							"type": "address"
						}
					],
					"name": "kisiler",
					"outputs": [
						{
							"internalType": "bool",
							"name": "durum",
							"type": "bool"
						}
					],
					"stateMutability": "view",
					"type": "function"
				},
				{
					"inputs": [
						{
							"internalType": "uint256",
							"name": "",
							"type": "uint256"
						}
					],
					"name": "kursAdresleri",
					"outputs": [
						{
							"internalType": "address",
							"name": "",
							"type": "address"
						}
					],
					"stateMutability": "view",
					"type": "function"
				},
				{
					"inputs": [
						{
							"internalType": "address",
							"name": "",
							"type": "address"
						}
					],
					"name": "kurslar",
					"outputs": [
						{
							"internalType": "bool",
							"name": "durum",
							"type": "bool"
						},
						{
							"internalType": "string",
							"name": "isim",
							"type": "string"
						},
						{
							"internalType": "uint8",
							"name": "ulke",
							"type": "uint8"
						}
					],
					"stateMutability": "view",
					"type": "function"
				},
				{
					"inputs": [
						{
							"internalType": "address",
							"name": "_yok",
							"type": "address"
						},
						{
							"internalType": "address",
							"name": "_tobb",
							"type": "address"
						},
						{
							"internalType": "address",
							"name": "_cb",
							"type": "address"
						}
					],
					"name": "paydasTanimla",
					"outputs": [],
					"stateMutability": "nonpayable",
					"type": "function"
				},
				{
					"inputs": [
						{
							"internalType": "address",
							"name": "",
							"type": "address"
						}
					],
					"name": "sertifikaMerkezleri",
					"outputs": [
						{
							"internalType": "bool",
							"name": "durum",
							"type": "bool"
						},
						{
							"internalType": "string",
							"name": "isim",
							"type": "string"
						},
						{
							"internalType": "uint8",
							"name": "ulke",
							"type": "uint8"
						}
					],
					"stateMutability": "view",
					"type": "function"
				},
				{
					"inputs": [
						{
							"internalType": "address",
							"name": "_firmaAdres",
							"type": "address"
						}
					],
					"name": "silFirma",
					"outputs": [],
					"stateMutability": "nonpayable",
					"type": "function"
				},
				{
					"inputs": [
						{
							"internalType": "address",
							"name": "_kamuKurumuAdres",
							"type": "address"
						}
					],
					"name": "silKamuKurumu",
					"outputs": [],
					"stateMutability": "nonpayable",
					"type": "function"
				},
				{
					"inputs": [
						{
							"internalType": "address",
							"name": "_kisiAdres",
							"type": "address"
						}
					],
					"name": "silKisi",
					"outputs": [],
					"stateMutability": "nonpayable",
					"type": "function"
				},
				{
					"inputs": [
						{
							"internalType": "address",
							"name": "_kursAdres",
							"type": "address"
						}
					],
					"name": "silKurs",
					"outputs": [],
					"stateMutability": "nonpayable",
					"type": "function"
				},
				{
					"inputs": [
						{
							"internalType": "address",
							"name": "_stkAdres",
							"type": "address"
						}
					],
					"name": "silSTK",
					"outputs": [],
					"stateMutability": "nonpayable",
					"type": "function"
				},
				{
					"inputs": [
						{
							"internalType": "address",
							"name": "_smAdres",
							"type": "address"
						}
					],
					"name": "silSertifikaMerkezi",
					"outputs": [],
					"stateMutability": "nonpayable",
					"type": "function"
				},
				{
					"inputs": [
						{
							"internalType": "address",
							"name": "_universiteAdres",
							"type": "address"
						}
					],
					"name": "silUniversite",
					"outputs": [],
					"stateMutability": "nonpayable",
					"type": "function"
				},
				{
					"inputs": [
						{
							"internalType": "uint256",
							"name": "",
							"type": "uint256"
						}
					],
					"name": "smAdresleri",
					"outputs": [
						{
							"internalType": "address",
							"name": "",
							"type": "address"
						}
					],
					"stateMutability": "view",
					"type": "function"
				},
				{
					"inputs": [
						{
							"internalType": "uint256",
							"name": "",
							"type": "uint256"
						}
					],
					"name": "stkAdresleri",
					"outputs": [
						{
							"internalType": "address",
							"name": "",
							"type": "address"
						}
					],
					"stateMutability": "view",
					"type": "function"
				},
				{
					"inputs": [
						{
							"internalType": "address",
							"name": "",
							"type": "address"
						}
					],
					"name": "stklar",
					"outputs": [
						{
							"internalType": "bool",
							"name": "durum",
							"type": "bool"
						},
						{
							"internalType": "string",
							"name": "isim",
							"type": "string"
						},
						{
							"internalType": "uint8",
							"name": "ulke",
							"type": "uint8"
						}
					],
					"stateMutability": "view",
					"type": "function"
				},
				{
					"inputs": [
						{
							"internalType": "uint256",
							"name": "",
							"type": "uint256"
						}
					],
					"name": "universiteAdresleri",
					"outputs": [
						{
							"internalType": "address",
							"name": "",
							"type": "address"
						}
					],
					"stateMutability": "view",
					"type": "function"
				},
				{
					"inputs": [
						{
							"internalType": "address",
							"name": "",
							"type": "address"
						}
					],
					"name": "universiteler",
					"outputs": [
						{
							"internalType": "bool",
							"name": "durum",
							"type": "bool"
						},
						{
							"internalType": "string",
							"name": "isim",
							"type": "string"
						},
						{
							"internalType": "uint8",
							"name": "ulke",
							"type": "uint8"
						}
					],
					"stateMutability": "view",
					"type": "function"
				}
			],
			"devdoc": {
				"kind": "dev",
				"methods": {},
				"version": 1
			},
			"evm": {
				"assembly": "    /* \"contracts/BaseContract.sol\":72:14309  contract BaseContract {\r... */\n  mstore(0x40, 0x80)\n  callvalue\n  dup1\n  iszero\n  tag_1\n  jumpi\n  0x00\n  dup1\n  revert\ntag_1:\n  pop\n  dataSize(sub_0)\n  dup1\n  dataOffset(sub_0)\n  0x00\n  codecopy\n  0x00\n  return\nstop\n\nsub_0: assembly {\n        /* \"contracts/BaseContract.sol\":72:14309  contract BaseContract {\r... */\n      mstore(0x40, 0x80)\n      callvalue\n      dup1\n      iszero\n      tag_1\n      jumpi\n      0x00\n      dup1\n      revert\n    tag_1:\n      pop\n      jumpi(tag_2, lt(calldatasize, 0x04))\n      shr(0xe0, calldataload(0x00))\n      dup1\n      0xa29879c0\n      gt\n      tag_58\n      jumpi\n      dup1\n      0xd5f6d56c\n      gt\n      tag_59\n      jumpi\n      dup1\n      0xe8abb184\n      gt\n      tag_60\n      jumpi\n      dup1\n      0xf1981850\n      gt\n      tag_61\n      jumpi\n      dup1\n      0xf1981850\n      eq\n      tag_54\n      jumpi\n      dup1\n      0xf54acc65\n      eq\n      tag_55\n      jumpi\n      dup1\n      0xf63c649f\n      eq\n      tag_56\n      jumpi\n      dup1\n      0xfd738e6d\n      eq\n      tag_57\n      jumpi\n      jump(tag_2)\n    tag_61:\n      dup1\n      0xe8abb184\n      eq\n      tag_51\n      jumpi\n      dup1\n      0xf0040eb9\n      eq\n      tag_52\n      jumpi\n      dup1\n      0xf1403851\n      eq\n      tag_53\n      jumpi\n      jump(tag_2)\n    tag_60:\n      dup1\n      0xd7909777\n      gt\n      tag_62\n      jumpi\n      dup1\n      0xd7909777\n      eq\n      tag_47\n      jumpi\n      dup1\n      0xd88d8c12\n      eq\n      tag_48\n      jumpi\n      dup1\n      0xe24047ca\n      eq\n      tag_49\n      jumpi\n      dup1\n      0xe5130508\n      eq\n      tag_50\n      jumpi\n      jump(tag_2)\n    tag_62:\n      dup1\n      0xd5f6d56c\n      eq\n      tag_44\n      jumpi\n      dup1\n      0xd71ed8b1\n      eq\n      tag_45\n      jumpi\n      dup1\n      0xd7396414\n      eq\n      tag_46\n      jumpi\n      jump(tag_2)\n    tag_59:\n      dup1\n      0xba479b7e\n      gt\n      tag_63\n      jumpi\n      dup1\n      0xcbc92809\n      gt\n      tag_64\n      jumpi\n      dup1\n      0xcbc92809\n      eq\n      tag_40\n      jumpi\n      dup1\n      0xd0d6b7a3\n      eq\n      tag_41\n      jumpi\n      dup1\n      0xd25aab85\n      eq\n      tag_42\n      jumpi\n      dup1\n      0xd508602d\n      eq\n      tag_43\n      jumpi\n      jump(tag_2)\n    tag_64:\n      dup1\n      0xba479b7e\n      eq\n      tag_37\n      jumpi\n      dup1\n      0xbd35a506\n      eq\n      tag_38\n      jumpi\n      dup1\n      0xc6da8cfe\n      eq\n      tag_39\n      jumpi\n      jump(tag_2)\n    tag_63:\n      dup1\n      0xafb61b1e\n      gt\n      tag_65\n      jumpi\n      dup1\n      0xafb61b1e\n      eq\n      tag_33\n      jumpi\n      dup1\n      0xb07b0e5a\n      eq\n      tag_34\n      jumpi\n      dup1\n      0xb2a825bb\n      eq\n      tag_35\n      jumpi\n      dup1\n      0xb98ccefd\n      eq\n      tag_36\n      jumpi\n      jump(tag_2)\n    tag_65:\n      dup1\n      0xa29879c0\n      eq\n      tag_30\n      jumpi\n      dup1\n      0xa4e7ae05\n      eq\n      tag_31\n      jumpi\n      dup1\n      0xa81dc179\n      eq\n      tag_32\n      jumpi\n      jump(tag_2)\n    tag_58:\n      dup1\n      0x36fd2633\n      gt\n      tag_66\n      jumpi\n      dup1\n      0x7d0fa287\n      gt\n      tag_67\n      jumpi\n      dup1\n      0x91e9528a\n      gt\n      tag_68\n      jumpi\n      dup1\n      0x91e9528a\n      eq\n      tag_26\n      jumpi\n      dup1\n      0x9a8c9119\n      eq\n      tag_27\n      jumpi\n      dup1\n      0x9bfc4dbd\n      eq\n      tag_28\n      jumpi\n      dup1\n      0x9dc30114\n      eq\n      tag_29\n      jumpi\n      jump(tag_2)\n    tag_68:\n      dup1\n      0x7d0fa287\n      eq\n      tag_23\n      jumpi\n      dup1\n      0x871db892\n      eq\n      tag_24\n      jumpi\n      dup1\n      0x8c848885\n      eq\n      tag_25\n      jumpi\n      jump(tag_2)\n    tag_67:\n      dup1\n      0x50d2a060\n      gt\n      tag_69\n      jumpi\n      dup1\n      0x50d2a060\n      eq\n      tag_19\n      jumpi\n      dup1\n      0x514e03c7\n      eq\n      tag_20\n      jumpi\n      dup1\n      0x548fa620\n      eq\n      tag_21\n      jumpi\n      dup1\n      0x71af892d\n      eq\n      tag_22\n      jumpi\n      jump(tag_2)\n    tag_69:\n      dup1\n      0x36fd2633\n      eq\n      tag_16\n      jumpi\n      dup1\n      0x39987f94\n      eq\n      tag_17\n      jumpi\n      dup1\n      0x46224853\n      eq\n      tag_18\n      jumpi\n      jump(tag_2)\n    tag_66:\n      dup1\n      0x19023bf3\n      gt\n      tag_70\n      jumpi\n      dup1\n      0x1f145f47\n      gt\n      tag_71\n      jumpi\n      dup1\n      0x1f145f47\n      eq\n      tag_12\n      jumpi\n      dup1\n      0x28266697\n      eq\n      tag_13\n      jumpi\n      dup1\n      0x2d087d70\n      eq\n      tag_14\n      jumpi\n      dup1\n      0x356b1f1e\n      eq\n      tag_15\n      jumpi\n      jump(tag_2)\n    tag_71:\n      dup1\n      0x19023bf3\n      eq\n      tag_9\n      jumpi\n      dup1\n      0x1916e139\n      eq\n      tag_10\n      jumpi\n      dup1\n      0x1d595580\n      eq\n      tag_11\n      jumpi\n      jump(tag_2)\n    tag_70:\n      dup1\n      0x1d54ab\n      eq\n      tag_3\n      jumpi\n      dup1\n      0x024eb6bc\n      eq\n      tag_4\n      jumpi\n      dup1\n      0x0a33e3eb\n      eq\n      tag_5\n      jumpi\n      dup1\n      0x0b877ca7\n      eq\n      tag_6\n      jumpi\n      dup1\n      0x139884ec\n      eq\n      tag_7\n      jumpi\n      dup1\n      0x150596f4\n      eq\n      tag_8\n      jumpi\n    tag_2:\n      0x00\n      dup1\n      revert\n        /* \"contracts/BaseContract.sol\":5652:6074  function ekleUniversite(address _universiteAdres, string memory _isim, uint8 _ulke) public {\r... */\n    tag_3:\n      tag_72\n      0x04\n      dup1\n      calldatasize\n      sub\n      dup2\n      add\n      swap1\n      tag_73\n      swap2\n      swap1\n      tag_74\n      jump\t// in\n    tag_73:\n      tag_75\n      jump\t// in\n    tag_72:\n      stop\n        /* \"contracts/BaseContract.sol\":4512:4621  function isKurs(address _address) public view returns (bool){\r... */\n    tag_4:\n      tag_76\n      0x04\n      dup1\n      calldatasize\n      sub\n      dup2\n      add\n      swap1\n      tag_77\n      swap2\n      swap1\n      tag_78\n      jump\t// in\n    tag_77:\n      tag_79\n      jump\t// in\n    tag_76:\n      mload(0x40)\n      tag_80\n      swap2\n      swap1\n      tag_81\n      jump\t// in\n    tag_80:\n      mload(0x40)\n      dup1\n      swap2\n      sub\n      swap1\n      return\n        /* \"contracts/BaseContract.sol\":5537:5572  address[] public kamuKurumAdresleri */\n    tag_5:\n      tag_82\n      0x04\n      dup1\n      calldatasize\n      sub\n      dup2\n      add\n      swap1\n      tag_83\n      swap2\n      swap1\n      tag_84\n      jump\t// in\n    tag_83:\n      tag_85\n      jump\t// in\n    tag_82:\n      mload(0x40)\n      tag_86\n      swap2\n      swap1\n      tag_87\n      jump\t// in\n    tag_86:\n      mload(0x40)\n      dup1\n      swap2\n      sub\n      swap1\n      return\n        /* \"contracts/BaseContract.sol\":5615:5643  address[] public smAdresleri */\n    tag_6:\n      tag_88\n      0x04\n      dup1\n      calldatasize\n      sub\n      dup2\n      add\n      swap1\n      tag_89\n      swap2\n      swap1\n      tag_84\n      jump\t// in\n    tag_89:\n      tag_90\n      jump\t// in\n    tag_88:\n      mload(0x40)\n      tag_91\n      swap2\n      swap1\n      tag_87\n      jump\t// in\n    tag_91:\n      mload(0x40)\n      dup1\n      swap2\n      sub\n      swap1\n      return\n        /* \"contracts/BaseContract.sol\":3802:3904  function isTOBB(address _address) public view returns (bool){\r... */\n    tag_7:\n      tag_92\n      0x04\n      dup1\n      calldatasize\n      sub\n      dup2\n      add\n      swap1\n      tag_93\n      swap2\n      swap1\n      tag_78\n      jump\t// in\n    tag_93:\n      tag_94\n      jump\t// in\n    tag_92:\n      mload(0x40)\n      tag_95\n      swap2\n      swap1\n      tag_81\n      jump\t// in\n    tag_95:\n      mload(0x40)\n      dup1\n      swap2\n      sub\n      swap1\n      return\n        /* \"contracts/BaseContract.sol\":10895:11271  function guncelleKamuKurumu(address _kamuKurumuAdres, string memory _isim, uint8 _ulke)\r... */\n    tag_8:\n      tag_96\n      0x04\n      dup1\n      calldatasize\n      sub\n      dup2\n      add\n      swap1\n      tag_97\n      swap2\n      swap1\n      tag_74\n      jump\t// in\n    tag_97:\n      tag_98\n      jump\t// in\n    tag_96:\n      stop\n        /* \"contracts/BaseContract.sol\":12400:12754  function ekleSTK(address _stkAdres, string memory _isim, uint8 _ulke)\r... */\n    tag_9:\n      tag_99\n      0x04\n      dup1\n      calldatasize\n      sub\n      dup2\n      add\n      swap1\n      tag_100\n      swap2\n      swap1\n      tag_74\n      jump\t// in\n    tag_100:\n      tag_101\n      jump\t// in\n    tag_99:\n      stop\n        /* \"contracts/BaseContract.sol\":5098:5138  mapping(address => Kurs) public  kurslar */\n    tag_10:\n      tag_102\n      0x04\n      dup1\n      calldatasize\n      sub\n      dup2\n      add\n      swap1\n      tag_103\n      swap2\n      swap1\n      tag_78\n      jump\t// in\n    tag_103:\n      tag_104\n      jump\t// in\n    tag_102:\n      mload(0x40)\n      tag_105\n      swap4\n      swap3\n      swap2\n      swap1\n      tag_106\n      jump\t// in\n    tag_105:\n      mload(0x40)\n      dup1\n      swap2\n      sub\n      swap1\n      return\n        /* \"contracts/BaseContract.sol\":10263:10452  function silFirma(address _firmaAdres)\r... */\n    tag_11:\n      tag_107\n      0x04\n      dup1\n      calldatasize\n      sub\n      dup2\n      add\n      swap1\n      tag_108\n      swap2\n      swap1\n      tag_78\n      jump\t// in\n    tag_108:\n      tag_109\n      jump\t// in\n    tag_107:\n      stop\n        /* \"contracts/BaseContract.sol\":5419:5455  address[] public universiteAdresleri */\n    tag_12:\n      tag_110\n      0x04\n      dup1\n      calldatasize\n      sub\n      dup2\n      add\n      swap1\n      tag_111\n      swap2\n      swap1\n      tag_84\n      jump\t// in\n    tag_111:\n      tag_112\n      jump\t// in\n    tag_110:\n      mload(0x40)\n      tag_113\n      swap2\n      swap1\n      tag_87\n      jump\t// in\n    tag_113:\n      mload(0x40)\n      dup1\n      swap2\n      sub\n      swap1\n      return\n        /* \"contracts/BaseContract.sol\":4931:4982  mapping(address => Universite) public universiteler */\n    tag_13:\n      tag_114\n      0x04\n      dup1\n      calldatasize\n      sub\n      dup2\n      add\n      swap1\n      tag_115\n      swap2\n      swap1\n      tag_78\n      jump\t// in\n    tag_115:\n      tag_116\n      jump\t// in\n    tag_114:\n      mload(0x40)\n      tag_117\n      swap4\n      swap3\n      swap2\n      swap1\n      tag_106\n      jump\t// in\n    tag_117:\n      mload(0x40)\n      dup1\n      swap2\n      sub\n      swap1\n      return\n        /* \"contracts/BaseContract.sol\":4393:4504  function isFirma(address _address) public view returns (bool){\r... */\n    tag_14:\n      tag_118\n      0x04\n      dup1\n      calldatasize\n      sub\n      dup2\n      add\n      swap1\n      tag_119\n      swap2\n      swap1\n      tag_78\n      jump\t// in\n    tag_119:\n      tag_120\n      jump\t// in\n    tag_118:\n      mload(0x40)\n      tag_121\n      swap2\n      swap1\n      tag_81\n      jump\t// in\n    tag_121:\n      mload(0x40)\n      dup1\n      swap2\n      sub\n      swap1\n      return\n        /* \"contracts/BaseContract.sol\":5247:5310  mapping(address => SertifikaMerkezi) public sertifikaMerkezleri */\n    tag_15:\n      tag_122\n      0x04\n      dup1\n      calldatasize\n      sub\n      dup2\n      add\n      swap1\n      tag_123\n      swap2\n      swap1\n      tag_78\n      jump\t// in\n    tag_123:\n      tag_124\n      jump\t// in\n    tag_122:\n      mload(0x40)\n      tag_125\n      swap4\n      swap3\n      swap2\n      swap1\n      tag_106\n      jump\t// in\n    tag_125:\n      mload(0x40)\n      dup1\n      swap2\n      sub\n      swap1\n      return\n        /* \"contracts/BaseContract.sol\":164:307  function paydasTanimla(address _yok, address _tobb, address _cb) public {\r... */\n    tag_16:\n      tag_126\n      0x04\n      dup1\n      calldatasize\n      sub\n      dup2\n      add\n      swap1\n      tag_127\n      swap2\n      swap1\n      tag_128\n      jump\t// in\n    tag_127:\n      tag_129\n      jump\t// in\n    tag_126:\n      stop\n        /* \"contracts/BaseContract.sol\":5049:5091  mapping(address => Firma) public  firmalar */\n    tag_17:\n      tag_130\n      0x04\n      dup1\n      calldatasize\n      sub\n      dup2\n      add\n      swap1\n      tag_131\n      swap2\n      swap1\n      tag_78\n      jump\t// in\n    tag_131:\n      tag_132\n      jump\t// in\n    tag_130:\n      mload(0x40)\n      tag_133\n      swap5\n      swap4\n      swap3\n      swap2\n      swap1\n      tag_134\n      jump\t// in\n    tag_133:\n      mload(0x40)\n      dup1\n      swap2\n      sub\n      swap1\n      return\n        /* \"contracts/BaseContract.sol\":11508:11865  function ekleKurs(address _kursAdres, string memory _isim, uint8 _ulke)\r... */\n    tag_18:\n      tag_135\n      0x04\n      dup1\n      calldatasize\n      sub\n      dup2\n      add\n      swap1\n      tag_136\n      swap2\n      swap1\n      tag_74\n      jump\t// in\n    tag_136:\n      tag_137\n      jump\t// in\n    tag_135:\n      stop\n        /* \"contracts/BaseContract.sol\":11279:11500  function silKamuKurumu(address _kamuKurumuAdres)\r... */\n    tag_19:\n      tag_138\n      0x04\n      dup1\n      calldatasize\n      sub\n      dup2\n      add\n      swap1\n      tag_139\n      swap2\n      swap1\n      tag_78\n      jump\t// in\n    tag_139:\n      tag_140\n      jump\t// in\n    tag_138:\n      stop\n        /* \"contracts/BaseContract.sol\":4264:4385  function isKamuKurumu(address _address) public view returns (bool){\r... */\n    tag_20:\n      tag_141\n      0x04\n      dup1\n      calldatasize\n      sub\n      dup2\n      add\n      swap1\n      tag_142\n      swap2\n      swap1\n      tag_78\n      jump\t// in\n    tag_142:\n      tag_143\n      jump\t// in\n    tag_141:\n      mload(0x40)\n      tag_144\n      swap2\n      swap1\n      tag_81\n      jump\t// in\n    tag_144:\n      mload(0x40)\n      dup1\n      swap2\n      sub\n      swap1\n      return\n        /* \"contracts/BaseContract.sol\":14083:14304  function silSertifikaMerkezi(address _smAdres)\r... */\n    tag_21:\n      tag_145\n      0x04\n      dup1\n      calldatasize\n      sub\n      dup2\n      add\n      swap1\n      tag_146\n      swap2\n      swap1\n      tag_78\n      jump\t// in\n    tag_146:\n      tag_147\n      jump\t// in\n    tag_145:\n      stop\n        /* \"contracts/BaseContract.sol\":101:119  address public YOK */\n    tag_22:\n      tag_148\n      tag_149\n      jump\t// in\n    tag_148:\n      mload(0x40)\n      tag_150\n      swap2\n      swap1\n      tag_87\n      jump\t// in\n    tag_150:\n      mload(0x40)\n      dup1\n      swap2\n      sub\n      swap1\n      return\n        /* \"contracts/BaseContract.sol\":5145:5196  mapping(address => KamuKurumu) public kamuKurumlari */\n    tag_23:\n      tag_151\n      0x04\n      dup1\n      calldatasize\n      sub\n      dup2\n      add\n      swap1\n      tag_152\n      swap2\n      swap1\n      tag_78\n      jump\t// in\n    tag_152:\n      tag_153\n      jump\t// in\n    tag_151:\n      mload(0x40)\n      tag_154\n      swap4\n      swap3\n      swap2\n      swap1\n      tag_106\n      jump\t// in\n    tag_154:\n      mload(0x40)\n      dup1\n      swap2\n      sub\n      swap1\n      return\n        /* \"contracts/BaseContract.sol\":6692:7062  function getUniversiteListesi() public sadeceYOK view returns(Universite[] memory){\r... */\n    tag_24:\n      tag_155\n      tag_156\n      jump\t// in\n    tag_155:\n      mload(0x40)\n      tag_157\n      swap2\n      swap1\n      tag_158\n      jump\t// in\n    tag_157:\n      mload(0x40)\n      dup1\n      swap2\n      sub\n      swap1\n      return\n        /* \"contracts/BaseContract.sol\":4629:4736  function isSTK(address _address) public view returns (bool){\r... */\n    tag_25:\n      tag_159\n      0x04\n      dup1\n      calldatasize\n      sub\n      dup2\n      add\n      swap1\n      tag_160\n      swap2\n      swap1\n      tag_78\n      jump\t// in\n    tag_160:\n      tag_161\n      jump\t// in\n    tag_159:\n      mload(0x40)\n      tag_162\n      swap2\n      swap1\n      tag_81\n      jump\t// in\n    tag_162:\n      mload(0x40)\n      dup1\n      swap2\n      sub\n      swap1\n      return\n        /* \"contracts/BaseContract.sol\":12762:13080  function guncelleSTK(address _stkAdres, string memory _isim, uint8 _ulke)\r... */\n    tag_26:\n      tag_163\n      0x04\n      dup1\n      calldatasize\n      sub\n      dup2\n      add\n      swap1\n      tag_164\n      swap2\n      swap1\n      tag_74\n      jump\t// in\n    tag_164:\n      tag_165\n      jump\t// in\n    tag_163:\n      stop\n        /* \"contracts/BaseContract.sol\":5203:5240  mapping(address => STK) public stklar */\n    tag_27:\n      tag_166\n      0x04\n      dup1\n      calldatasize\n      sub\n      dup2\n      add\n      swap1\n      tag_167\n      swap2\n      swap1\n      tag_78\n      jump\t// in\n    tag_167:\n      tag_168\n      jump\t// in\n    tag_166:\n      mload(0x40)\n      tag_169\n      swap4\n      swap3\n      swap2\n      swap1\n      tag_106\n      jump\t// in\n    tag_169:\n      mload(0x40)\n      dup1\n      swap2\n      sub\n      swap1\n      return\n        /* \"contracts/BaseContract.sol\":6464:6683  function silUniversite(address _universiteAdres) public {\r... */\n    tag_28:\n      tag_170\n      0x04\n      dup1\n      calldatasize\n      sub\n      dup2\n      add\n      swap1\n      tag_171\n      swap2\n      swap1\n      tag_78\n      jump\t// in\n    tag_171:\n      tag_172\n      jump\t// in\n    tag_170:\n      stop\n        /* \"contracts/BaseContract.sol\":13285:13693  function ekleSertifikaMerkezi(address _smAdres, string memory _isim, uint8 _ulke)\r... */\n    tag_29:\n      tag_173\n      0x04\n      dup1\n      calldatasize\n      sub\n      dup2\n      add\n      swap1\n      tag_174\n      swap2\n      swap1\n      tag_74\n      jump\t// in\n    tag_174:\n      tag_175\n      jump\t// in\n    tag_173:\n      stop\n        /* \"contracts/BaseContract.sol\":7786:8099  function getStkListesi() public sadeceCB view returns(STK[] memory){\r... */\n    tag_30:\n      tag_176\n      tag_177\n      jump\t// in\n    tag_176:\n      mload(0x40)\n      tag_178\n      swap2\n      swap1\n      tag_179\n      jump\t// in\n    tag_178:\n      mload(0x40)\n      dup1\n      swap2\n      sub\n      swap1\n      return\n        /* \"contracts/BaseContract.sol\":5323:5366  mapping(uint32 => YabanciDil) public diller */\n    tag_31:\n      tag_180\n      0x04\n      dup1\n      calldatasize\n      sub\n      dup2\n      add\n      swap1\n      tag_181\n      swap2\n      swap1\n      tag_182\n      jump\t// in\n    tag_181:\n      tag_183\n      jump\t// in\n    tag_180:\n      mload(0x40)\n      tag_184\n      swap3\n      swap2\n      swap1\n      tag_185\n      jump\t// in\n    tag_184:\n      mload(0x40)\n      dup1\n      swap2\n      sub\n      swap1\n      return\n        /* \"contracts/BaseContract.sol\":9865:10255  function guncelleFirma(address _firmaAdres, string memory _isim, uint _vergiNo, uint8 _ulke)\r... */\n    tag_32:\n      tag_186\n      0x04\n      dup1\n      calldatasize\n      sub\n      dup2\n      add\n      swap1\n      tag_187\n      swap2\n      swap1\n      tag_188\n      jump\t// in\n    tag_187:\n      tag_189\n      jump\t// in\n    tag_186:\n      stop\n        /* \"contracts/BaseContract.sol\":12202:12392  function silKurs(address _kursAdres)\r... */\n    tag_33:\n      tag_190\n      0x04\n      dup1\n      calldatasize\n      sub\n      dup2\n      add\n      swap1\n      tag_191\n      swap2\n      swap1\n      tag_78\n      jump\t// in\n    tag_191:\n      tag_192\n      jump\t// in\n    tag_190:\n      stop\n        /* \"contracts/BaseContract.sol\":5462:5493  address[] public firmaAdresleri */\n    tag_34:\n      tag_193\n      0x04\n      dup1\n      calldatasize\n      sub\n      dup2\n      add\n      swap1\n      tag_194\n      swap2\n      swap1\n      tag_84\n      jump\t// in\n    tag_194:\n      tag_195\n      jump\t// in\n    tag_193:\n      mload(0x40)\n      tag_196\n      swap2\n      swap1\n      tag_87\n      jump\t// in\n    tag_196:\n      mload(0x40)\n      dup1\n      swap2\n      sub\n      swap1\n      return\n        /* \"contracts/BaseContract.sol\":13701:14075  function guncelleSertifikaMerkezi(address _smAdres, string memory _isim, uint8 _ulke)\r... */\n    tag_35:\n      tag_197\n      0x04\n      dup1\n      calldatasize\n      sub\n      dup2\n      add\n      swap1\n      tag_198\n      swap2\n      swap1\n      tag_74\n      jump\t// in\n    tag_198:\n      tag_199\n      jump\t// in\n    tag_197:\n      stop\n        /* \"contracts/BaseContract.sol\":4147:4256  function isKisi(address _address) public view returns (bool){\r... */\n    tag_36:\n      tag_200\n      0x04\n      dup1\n      calldatasize\n      sub\n      dup2\n      add\n      swap1\n      tag_201\n      swap2\n      swap1\n      tag_78\n      jump\t// in\n    tag_201:\n      tag_202\n      jump\t// in\n    tag_200:\n      mload(0x40)\n      tag_203\n      swap2\n      swap1\n      tag_81\n      jump\t// in\n    tag_203:\n      mload(0x40)\n      dup1\n      swap2\n      sub\n      swap1\n      return\n        /* \"contracts/BaseContract.sol\":4989:5042  mapping(address => Akademisyen) public akademisyenler */\n    tag_37:\n      tag_204\n      0x04\n      dup1\n      calldatasize\n      sub\n      dup2\n      add\n      swap1\n      tag_205\n      swap2\n      swap1\n      tag_78\n      jump\t// in\n    tag_205:\n      tag_206\n      jump\t// in\n    tag_204:\n      mload(0x40)\n      tag_207\n      swap7\n      swap6\n      swap5\n      swap4\n      swap3\n      swap2\n      swap1\n      tag_208\n      jump\t// in\n    tag_207:\n      mload(0x40)\n      dup1\n      swap2\n      sub\n      swap1\n      return\n        /* \"contracts/BaseContract.sol\":9242:9419  function silKisi(address _kisiAdres) public {\r... */\n    tag_38:\n      tag_209\n      0x04\n      dup1\n      calldatasize\n      sub\n      dup2\n      add\n      swap1\n      tag_210\n      swap2\n      swap1\n      tag_78\n      jump\t// in\n    tag_210:\n      tag_211\n      jump\t// in\n    tag_209:\n      stop\n        /* \"contracts/BaseContract.sol\":6082:6456  function guncelleUniversite(address _universiteAdres, string memory _isim, uint8 _ulke) public {\r... */\n    tag_39:\n      tag_212\n      0x04\n      dup1\n      calldatasize\n      sub\n      dup2\n      add\n      swap1\n      tag_213\n      swap2\n      swap1\n      tag_74\n      jump\t// in\n    tag_213:\n      tag_214\n      jump\t// in\n    tag_212:\n      stop\n        /* \"contracts/BaseContract.sol\":4885:4924  mapping(address => Kisi) public kisiler */\n    tag_40:\n      tag_215\n      0x04\n      dup1\n      calldatasize\n      sub\n      dup2\n      add\n      swap1\n      tag_216\n      swap2\n      swap1\n      tag_78\n      jump\t// in\n    tag_216:\n      tag_217\n      jump\t// in\n    tag_215:\n      mload(0x40)\n      tag_218\n      swap2\n      swap1\n      tag_81\n      jump\t// in\n    tag_218:\n      mload(0x40)\n      dup1\n      swap2\n      sub\n      swap1\n      return\n        /* \"contracts/BaseContract.sol\":8479:8791  function getKursListesi() public view returns(Kurs[] memory){\r... */\n    tag_41:\n      tag_219\n      tag_220\n      jump\t// in\n    tag_219:\n      mload(0x40)\n      tag_221\n      swap2\n      swap1\n      tag_222\n      jump\t// in\n    tag_221:\n      mload(0x40)\n      dup1\n      swap2\n      sub\n      swap1\n      return\n        /* \"contracts/BaseContract.sol\":9429:9857  function ekleFirma(address _firmaAdres, string memory _isim, uint _vergiNo, uint8 _ulke)\r... */\n    tag_42:\n      tag_223\n      0x04\n      dup1\n      calldatasize\n      sub\n      dup2\n      add\n      swap1\n      tag_224\n      swap2\n      swap1\n      tag_188\n      jump\t// in\n    tag_224:\n      tag_225\n      jump\t// in\n    tag_223:\n      stop\n        /* \"contracts/BaseContract.sol\":7448:7779  function getFirmaListesi() public sadeceTOBB view returns(Firma[] memory){\r... */\n    tag_43:\n      tag_226\n      tag_227\n      jump\t// in\n    tag_226:\n      mload(0x40)\n      tag_228\n      swap2\n      swap1\n      tag_229\n      jump\t// in\n    tag_228:\n      mload(0x40)\n      dup1\n      swap2\n      sub\n      swap1\n      return\n        /* \"contracts/BaseContract.sol\":11873:12194  function guncelleKurs(address _kursAdres, string memory _isim, uint8 _ulke)\r... */\n    tag_44:\n      tag_230\n      0x04\n      dup1\n      calldatasize\n      sub\n      dup2\n      add\n      swap1\n      tag_231\n      swap2\n      swap1\n      tag_74\n      jump\t// in\n    tag_231:\n      tag_232\n      jump\t// in\n    tag_230:\n      stop\n        /* \"contracts/BaseContract.sol\":7070:7439  function getKamuKurumuListesi() public sadeceCB view  returns(KamuKurumu[] memory)  {\r... */\n    tag_45:\n      tag_233\n      tag_234\n      jump\t// in\n    tag_233:\n      mload(0x40)\n      tag_235\n      swap2\n      swap1\n      tag_236\n      jump\t// in\n    tag_235:\n      mload(0x40)\n      dup1\n      swap2\n      sub\n      swap1\n      return\n        /* \"contracts/BaseContract.sol\":3694:3794  function isYOK(address _address) public view returns (bool){\r... */\n    tag_46:\n      tag_237\n      0x04\n      dup1\n      calldatasize\n      sub\n      dup2\n      add\n      swap1\n      tag_238\n      swap2\n      swap1\n      tag_78\n      jump\t// in\n    tag_238:\n      tag_239\n      jump\t// in\n    tag_237:\n      mload(0x40)\n      tag_240\n      swap2\n      swap1\n      tag_81\n      jump\t// in\n    tag_240:\n      mload(0x40)\n      dup1\n      swap2\n      sub\n      swap1\n      return\n        /* \"contracts/BaseContract.sol\":5579:5608  address[] public stkAdresleri */\n    tag_47:\n      tag_241\n      0x04\n      dup1\n      calldatasize\n      sub\n      dup2\n      add\n      swap1\n      tag_242\n      swap2\n      swap1\n      tag_84\n      jump\t// in\n    tag_242:\n      tag_243\n      jump\t// in\n    tag_241:\n      mload(0x40)\n      tag_244\n      swap2\n      swap1\n      tag_87\n      jump\t// in\n    tag_244:\n      mload(0x40)\n      dup1\n      swap2\n      sub\n      swap1\n      return\n        /* \"contracts/BaseContract.sol\":13088:13277  function silSTK(address _stkAdres)\r... */\n    tag_48:\n      tag_245\n      0x04\n      dup1\n      calldatasize\n      sub\n      dup2\n      add\n      swap1\n      tag_246\n      swap2\n      swap1\n      tag_78\n      jump\t// in\n    tag_246:\n      tag_247\n      jump\t// in\n    tag_245:\n      stop\n        /* \"contracts/BaseContract.sol\":4744:4877  function isSertifikaMerkezi(address _address) public view returns (bool){\r... */\n    tag_49:\n      tag_248\n      0x04\n      dup1\n      calldatasize\n      sub\n      dup2\n      add\n      swap1\n      tag_249\n      swap2\n      swap1\n      tag_78\n      jump\t// in\n    tag_249:\n      tag_250\n      jump\t// in\n    tag_248:\n      mload(0x40)\n      tag_251\n      swap2\n      swap1\n      tag_81\n      jump\t// in\n    tag_251:\n      mload(0x40)\n      dup1\n      swap2\n      sub\n      swap1\n      return\n        /* \"contracts/BaseContract.sol\":3912:4010  function isCB(address _address) public view returns (bool){\r... */\n    tag_50:\n      tag_252\n      0x04\n      dup1\n      calldatasize\n      sub\n      dup2\n      add\n      swap1\n      tag_253\n      swap2\n      swap1\n      tag_78\n      jump\t// in\n    tag_253:\n      tag_254\n      jump\t// in\n    tag_252:\n      mload(0x40)\n      tag_255\n      swap2\n      swap1\n      tag_81\n      jump\t// in\n    tag_255:\n      mload(0x40)\n      dup1\n      swap2\n      sub\n      swap1\n      return\n        /* \"contracts/BaseContract.sol\":5500:5530  address[] public kursAdresleri */\n    tag_51:\n      tag_256\n      0x04\n      dup1\n      calldatasize\n      sub\n      dup2\n      add\n      swap1\n      tag_257\n      swap2\n      swap1\n      tag_84\n      jump\t// in\n    tag_257:\n      tag_258\n      jump\t// in\n    tag_256:\n      mload(0x40)\n      tag_259\n      swap2\n      swap1\n      tag_87\n      jump\t// in\n    tag_259:\n      mload(0x40)\n      dup1\n      swap2\n      sub\n      swap1\n      return\n        /* \"contracts/BaseContract.sol\":4018:4139  function isUniversite(address _address) public view returns (bool){\r... */\n    tag_52:\n      tag_260\n      0x04\n      dup1\n      calldatasize\n      sub\n      dup2\n      add\n      swap1\n      tag_261\n      swap2\n      swap1\n      tag_78\n      jump\t// in\n    tag_261:\n      tag_262\n      jump\t// in\n    tag_260:\n      mload(0x40)\n      tag_263\n      swap2\n      swap1\n      tag_81\n      jump\t// in\n    tag_263:\n      mload(0x40)\n      dup1\n      swap2\n      sub\n      swap1\n      return\n        /* \"contracts/BaseContract.sol\":5380:5410  address[] public kisiAdresleri */\n    tag_53:\n      tag_264\n      0x04\n      dup1\n      calldatasize\n      sub\n      dup2\n      add\n      swap1\n      tag_265\n      swap2\n      swap1\n      tag_84\n      jump\t// in\n    tag_265:\n      tag_266\n      jump\t// in\n    tag_264:\n      mload(0x40)\n      tag_267\n      swap2\n      swap1\n      tag_87\n      jump\t// in\n    tag_267:\n      mload(0x40)\n      dup1\n      swap2\n      sub\n      swap1\n      return\n        /* \"contracts/BaseContract.sol\":9031:9234  function guncelleKisi(address _kisiAdres, bool _durum) public {\r... */\n    tag_54:\n      tag_268\n      0x04\n      dup1\n      calldatasize\n      sub\n      dup2\n      add\n      swap1\n      tag_269\n      swap2\n      swap1\n      tag_270\n      jump\t// in\n    tag_269:\n      tag_271\n      jump\t// in\n    tag_268:\n      stop\n        /* \"contracts/BaseContract.sol\":8799:9023  function ekleKisi(address _kisiAdres) public {\r... */\n    tag_55:\n      tag_272\n      0x04\n      dup1\n      calldatasize\n      sub\n      dup2\n      add\n      swap1\n      tag_273\n      swap2\n      swap1\n      tag_78\n      jump\t// in\n    tag_273:\n      tag_274\n      jump\t// in\n    tag_272:\n      stop\n        /* \"contracts/BaseContract.sol\":10460:10887  function ekleKamuKurumu(address _kamuKurumuAdres, string memory _isim, uint8 _ulke)\r... */\n    tag_56:\n      tag_275\n      0x04\n      dup1\n      calldatasize\n      sub\n      dup2\n      add\n      swap1\n      tag_276\n      swap2\n      swap1\n      tag_74\n      jump\t// in\n    tag_276:\n      tag_277\n      jump\t// in\n    tag_275:\n      stop\n        /* \"contracts/BaseContract.sol\":8106:8469  function getSmListesi() public sadeceTOBB view returns(SertifikaMerkezi[] memory){\r... */\n    tag_57:\n      tag_278\n      tag_279\n      jump\t// in\n    tag_278:\n      mload(0x40)\n      tag_280\n      swap2\n      swap1\n      tag_281\n      jump\t// in\n    tag_280:\n      mload(0x40)\n      dup1\n      swap2\n      sub\n      swap1\n      return\n        /* \"contracts/BaseContract.sol\":5652:6074  function ekleUniversite(address _universiteAdres, string memory _isim, uint8 _ulke) public {\r... */\n    tag_75:\n        /* \"contracts/BaseContract.sol\":5763:5793  isUniversite(_universiteAdres) */\n      tag_283\n        /* \"contracts/BaseContract.sol\":5776:5792  _universiteAdres */\n      dup4\n        /* \"contracts/BaseContract.sol\":5763:5775  isUniversite */\n      tag_262\n        /* \"contracts/BaseContract.sol\":5763:5793  isUniversite(_universiteAdres) */\n      jump\t// in\n    tag_283:\n        /* \"contracts/BaseContract.sol\":5762:5793  !isUniversite(_universiteAdres) */\n      iszero\n        /* \"contracts/BaseContract.sol\":5754:5844  require(!isUniversite(_universiteAdres),\r... */\n      tag_284\n      jumpi\n      mload(0x40)\n      0x08c379a000000000000000000000000000000000000000000000000000000000\n      dup2\n      mstore\n      0x04\n      add\n      tag_285\n      swap1\n      tag_286\n      jump\t// in\n    tag_285:\n      mload(0x40)\n      dup1\n      swap2\n      sub\n      swap1\n      revert\n    tag_284:\n        /* \"contracts/BaseContract.sol\":5897:5901  true */\n      0x01\n        /* \"contracts/BaseContract.sol\":5857:5870  universiteler */\n      0x04\n        /* \"contracts/BaseContract.sol\":5857:5888  universiteler[_universiteAdres] */\n      0x00\n        /* \"contracts/BaseContract.sol\":5871:5887  _universiteAdres */\n      dup6\n        /* \"contracts/BaseContract.sol\":5857:5888  universiteler[_universiteAdres] */\n      0xffffffffffffffffffffffffffffffffffffffff\n      and\n      0xffffffffffffffffffffffffffffffffffffffff\n      and\n      dup2\n      mstore\n      0x20\n      add\n      swap1\n      dup2\n      mstore\n      0x20\n      add\n      0x00\n      keccak256\n        /* \"contracts/BaseContract.sol\":5857:5894  universiteler[_universiteAdres].durum */\n      0x00\n      add\n      0x00\n        /* \"contracts/BaseContract.sol\":5857:5901  universiteler[_universiteAdres].durum = true */\n      0x0100\n      exp\n      dup2\n      sload\n      dup2\n      0xff\n      mul\n      not\n      and\n      swap1\n      dup4\n      iszero\n      iszero\n      mul\n      or\n      swap1\n      sstore\n      pop\n        /* \"contracts/BaseContract.sol\":5951:5956  _isim */\n      dup2\n        /* \"contracts/BaseContract.sol\":5912:5925  universiteler */\n      0x04\n        /* \"contracts/BaseContract.sol\":5912:5943  universiteler[_universiteAdres] */\n      0x00\n        /* \"contracts/BaseContract.sol\":5926:5942  _universiteAdres */\n      dup6\n        /* \"contracts/BaseContract.sol\":5912:5943  universiteler[_universiteAdres] */\n      0xffffffffffffffffffffffffffffffffffffffff\n      and\n      0xffffffffffffffffffffffffffffffffffffffff\n      and\n      dup2\n      mstore\n      0x20\n      add\n      swap1\n      dup2\n      mstore\n      0x20\n      add\n      0x00\n      keccak256\n        /* \"contracts/BaseContract.sol\":5912:5948  universiteler[_universiteAdres].isim */\n      0x01\n      add\n        /* \"contracts/BaseContract.sol\":5912:5956  universiteler[_universiteAdres].isim = _isim */\n      swap1\n      dup1\n      mload\n      swap1\n      0x20\n      add\n      swap1\n      tag_287\n      swap3\n      swap2\n      swap1\n      tag_288\n      jump\t// in\n    tag_287:\n      pop\n        /* \"contracts/BaseContract.sol\":6006:6011  _ulke */\n      dup1\n        /* \"contracts/BaseContract.sol\":5967:5980  universiteler */\n      0x04\n        /* \"contracts/BaseContract.sol\":5967:5998  universiteler[_universiteAdres] */\n      0x00\n        /* \"contracts/BaseContract.sol\":5981:5997  _universiteAdres */\n      dup6\n        /* \"contracts/BaseContract.sol\":5967:5998  universiteler[_universiteAdres] */\n      0xffffffffffffffffffffffffffffffffffffffff\n      and\n      0xffffffffffffffffffffffffffffffffffffffff\n      and\n      dup2\n      mstore\n      0x20\n      add\n      swap1\n      dup2\n      mstore\n      0x20\n      add\n      0x00\n      keccak256\n        /* \"contracts/BaseContract.sol\":5967:6003  universiteler[_universiteAdres].ulke */\n      0x02\n      add\n      0x00\n        /* \"contracts/BaseContract.sol\":5967:6011  universiteler[_universiteAdres].ulke = _ulke */\n      0x0100\n      exp\n      dup2\n      sload\n      dup2\n      0xff\n      mul\n      not\n      and\n      swap1\n      dup4\n      0xff\n      and\n      mul\n      or\n      swap1\n      sstore\n      pop\n        /* \"contracts/BaseContract.sol\":6022:6041  universiteAdresleri */\n      0x0d\n        /* \"contracts/BaseContract.sol\":6047:6063  _universiteAdres */\n      dup4\n        /* \"contracts/BaseContract.sol\":6022:6064  universiteAdresleri.push(_universiteAdres) */\n      swap1\n      dup1\n      0x01\n      dup2\n      sload\n      add\n      dup1\n      dup3\n      sstore\n      dup1\n      swap2\n      pop\n      pop\n      0x01\n      swap1\n      sub\n      swap1\n      0x00\n      mstore\n      keccak256(0x00, 0x20)\n      add\n      0x00\n      swap1\n      swap2\n      swap1\n      swap2\n      swap1\n      swap2\n      0x0100\n      exp\n      dup2\n      sload\n      dup2\n      0xffffffffffffffffffffffffffffffffffffffff\n      mul\n      not\n      and\n      swap1\n      dup4\n      0xffffffffffffffffffffffffffffffffffffffff\n      and\n      mul\n      or\n      swap1\n      sstore\n      pop\n        /* \"contracts/BaseContract.sol\":5652:6074  function ekleUniversite(address _universiteAdres, string memory _isim, uint8 _ulke) public {\r... */\n      pop\n      pop\n      pop\n      jump\t// out\n        /* \"contracts/BaseContract.sol\":4512:4621  function isKurs(address _address) public view returns (bool){\r... */\n    tag_79:\n        /* \"contracts/BaseContract.sol\":4567:4571  bool */\n      0x00\n        /* \"contracts/BaseContract.sol\":4590:4597  kurslar */\n      0x07\n        /* \"contracts/BaseContract.sol\":4590:4607  kurslar[_address] */\n      0x00\n        /* \"contracts/BaseContract.sol\":4598:4606  _address */\n      dup4\n        /* \"contracts/BaseContract.sol\":4590:4607  kurslar[_address] */\n      0xffffffffffffffffffffffffffffffffffffffff\n      and\n      0xffffffffffffffffffffffffffffffffffffffff\n      and\n      dup2\n      mstore\n      0x20\n      add\n      swap1\n      dup2\n      mstore\n      0x20\n      add\n      0x00\n      keccak256\n        /* \"contracts/BaseContract.sol\":4590:4613  kurslar[_address].durum */\n      0x00\n      add\n      0x00\n      swap1\n      sload\n      swap1\n      0x0100\n      exp\n      swap1\n      div\n      0xff\n      and\n        /* \"contracts/BaseContract.sol\":4583:4613  return kurslar[_address].durum */\n      swap1\n      pop\n        /* \"contracts/BaseContract.sol\":4512:4621  function isKurs(address _address) public view returns (bool){\r... */\n      swap2\n      swap1\n      pop\n      jump\t// out\n        /* \"contracts/BaseContract.sol\":5537:5572  address[] public kamuKurumAdresleri */\n    tag_85:\n      0x10\n      dup2\n      dup2\n      sload\n      dup2\n      lt\n      tag_291\n      jumpi\n      0x00\n      dup1\n      revert\n    tag_291:\n      swap1\n      0x00\n      mstore\n      keccak256(0x00, 0x20)\n      add\n      0x00\n      swap2\n      pop\n      sload\n      swap1\n      0x0100\n      exp\n      swap1\n      div\n      0xffffffffffffffffffffffffffffffffffffffff\n      and\n      dup2\n      jump\t// out\n        /* \"contracts/BaseContract.sol\":5615:5643  address[] public smAdresleri */\n    tag_90:\n      0x12\n      dup2\n      dup2\n      sload\n      dup2\n      lt\n      tag_293\n      jumpi\n      0x00\n      dup1\n      revert\n    tag_293:\n      swap1\n      0x00\n      mstore\n      keccak256(0x00, 0x20)\n      add\n      0x00\n      swap2\n      pop\n      sload\n      swap1\n      0x0100\n      exp\n      swap1\n      div\n      0xffffffffffffffffffffffffffffffffffffffff\n      and\n      dup2\n      jump\t// out\n        /* \"contracts/BaseContract.sol\":3802:3904  function isTOBB(address _address) public view returns (bool){\r... */\n    tag_94:\n        /* \"contracts/BaseContract.sol\":3857:3861  bool */\n      0x00\n        /* \"contracts/BaseContract.sol\":3888:3896  _address */\n      dup2\n        /* \"contracts/BaseContract.sol\":3880:3896  TOBB == _address */\n      0xffffffffffffffffffffffffffffffffffffffff\n      and\n        /* \"contracts/BaseContract.sol\":3880:3884  TOBB */\n      0x01\n      0x00\n      swap1\n      sload\n      swap1\n      0x0100\n      exp\n      swap1\n      div\n      0xffffffffffffffffffffffffffffffffffffffff\n      and\n        /* \"contracts/BaseContract.sol\":3880:3896  TOBB == _address */\n      0xffffffffffffffffffffffffffffffffffffffff\n      and\n      eq\n        /* \"contracts/BaseContract.sol\":3873:3896  return TOBB == _address */\n      swap1\n      pop\n        /* \"contracts/BaseContract.sol\":3802:3904  function isTOBB(address _address) public view returns (bool){\r... */\n      swap2\n      swap1\n      pop\n      jump\t// out\n        /* \"contracts/BaseContract.sol\":10895:11271  function guncelleKamuKurumu(address _kamuKurumuAdres, string memory _isim, uint8 _ulke)\r... */\n    tag_98:\n        /* \"contracts/BaseContract.sol\":11014:11044  isKamuKurumu(_kamuKurumuAdres) */\n      tag_297\n        /* \"contracts/BaseContract.sol\":11027:11043  _kamuKurumuAdres */\n      dup4\n        /* \"contracts/BaseContract.sol\":11014:11026  isKamuKurumu */\n      tag_143\n        /* \"contracts/BaseContract.sol\":11014:11044  isKamuKurumu(_kamuKurumuAdres) */\n      jump\t// in\n    tag_297:\n        /* \"contracts/BaseContract.sol\":11006:11096  require(isKamuKurumu(_kamuKurumuAdres),\r... */\n      tag_298\n      jumpi\n      mload(0x40)\n      0x08c379a000000000000000000000000000000000000000000000000000000000\n      dup2\n      mstore\n      0x04\n      add\n      tag_299\n      swap1\n      tag_300\n      jump\t// in\n    tag_299:\n      mload(0x40)\n      dup1\n      swap2\n      sub\n      swap1\n      revert\n    tag_298:\n        /* \"contracts/BaseContract.sol\":11149:11153  true */\n      0x01\n        /* \"contracts/BaseContract.sol\":11109:11122  kamuKurumlari */\n      0x08\n        /* \"contracts/BaseContract.sol\":11109:11140  kamuKurumlari[_kamuKurumuAdres] */\n      0x00\n        /* \"contracts/BaseContract.sol\":11123:11139  _kamuKurumuAdres */\n      dup6\n        /* \"contracts/BaseContract.sol\":11109:11140  kamuKurumlari[_kamuKurumuAdres] */\n      0xffffffffffffffffffffffffffffffffffffffff\n      and\n      0xffffffffffffffffffffffffffffffffffffffff\n      and\n      dup2\n      mstore\n      0x20\n      add\n      swap1\n      dup2\n      mstore\n      0x20\n      add\n      0x00\n      keccak256\n        /* \"contracts/BaseContract.sol\":11109:11146  kamuKurumlari[_kamuKurumuAdres].durum */\n      0x00\n      add\n      0x00\n        /* \"contracts/BaseContract.sol\":11109:11153  kamuKurumlari[_kamuKurumuAdres].durum = true */\n      0x0100\n      exp\n      dup2\n      sload\n      dup2\n      0xff\n      mul\n      not\n      and\n      swap1\n      dup4\n      iszero\n      iszero\n      mul\n      or\n      swap1\n      sstore\n      pop\n        /* \"contracts/BaseContract.sol\":11203:11208  _isim */\n      dup2\n        /* \"contracts/BaseContract.sol\":11164:11177  kamuKurumlari */\n      0x08\n        /* \"contracts/BaseContract.sol\":11164:11195  kamuKurumlari[_kamuKurumuAdres] */\n      0x00\n        /* \"contracts/BaseContract.sol\":11178:11194  _kamuKurumuAdres */\n      dup6\n        /* \"contracts/BaseContract.sol\":11164:11195  kamuKurumlari[_kamuKurumuAdres] */\n      0xffffffffffffffffffffffffffffffffffffffff\n      and\n      0xffffffffffffffffffffffffffffffffffffffff\n      and\n      dup2\n      mstore\n      0x20\n      add\n      swap1\n      dup2\n      mstore\n      0x20\n      add\n      0x00\n      keccak256\n        /* \"contracts/BaseContract.sol\":11164:11200  kamuKurumlari[_kamuKurumuAdres].isim */\n      0x01\n      add\n        /* \"contracts/BaseContract.sol\":11164:11208  kamuKurumlari[_kamuKurumuAdres].isim = _isim */\n      swap1\n      dup1\n      mload\n      swap1\n      0x20\n      add\n      swap1\n      tag_301\n      swap3\n      swap2\n      swap1\n      tag_288\n      jump\t// in\n    tag_301:\n      pop\n        /* \"contracts/BaseContract.sol\":11258:11263  _ulke */\n      dup1\n        /* \"contracts/BaseContract.sol\":11219:11232  kamuKurumlari */\n      0x08\n        /* \"contracts/BaseContract.sol\":11219:11250  kamuKurumlari[_kamuKurumuAdres] */\n      0x00\n        /* \"contracts/BaseContract.sol\":11233:11249  _kamuKurumuAdres */\n      dup6\n        /* \"contracts/BaseContract.sol\":11219:11250  kamuKurumlari[_kamuKurumuAdres] */\n      0xffffffffffffffffffffffffffffffffffffffff\n      and\n      0xffffffffffffffffffffffffffffffffffffffff\n      and\n      dup2\n      mstore\n      0x20\n      add\n      swap1\n      dup2\n      mstore\n      0x20\n      add\n      0x00\n      keccak256\n        /* \"contracts/BaseContract.sol\":11219:11255  kamuKurumlari[_kamuKurumuAdres].ulke */\n      0x02\n      add\n      0x00\n        /* \"contracts/BaseContract.sol\":11219:11263  kamuKurumlari[_kamuKurumuAdres].ulke = _ulke */\n      0x0100\n      exp\n      dup2\n      sload\n      dup2\n      0xff\n      mul\n      not\n      and\n      swap1\n      dup4\n      0xff\n      and\n      mul\n      or\n      swap1\n      sstore\n      pop\n        /* \"contracts/BaseContract.sol\":10895:11271  function guncelleKamuKurumu(address _kamuKurumuAdres, string memory _isim, uint8 _ulke)\r... */\n      pop\n      pop\n      pop\n      jump\t// out\n        /* \"contracts/BaseContract.sol\":12400:12754  function ekleSTK(address _stkAdres, string memory _isim, uint8 _ulke)\r... */\n    tag_101:\n        /* \"contracts/BaseContract.sol\":12502:12518  isSTK(_stkAdres) */\n      tag_303\n        /* \"contracts/BaseContract.sol\":12508:12517  _stkAdres */\n      dup4\n        /* \"contracts/BaseContract.sol\":12502:12507  isSTK */\n      tag_161\n        /* \"contracts/BaseContract.sol\":12502:12518  isSTK(_stkAdres) */\n      jump\t// in\n    tag_303:\n        /* \"contracts/BaseContract.sol\":12501:12518  !isSTK(_stkAdres) */\n      iszero\n        /* \"contracts/BaseContract.sol\":12493:12580  require(!isSTK(_stkAdres),\r... */\n      tag_304\n      jumpi\n      mload(0x40)\n      0x08c379a000000000000000000000000000000000000000000000000000000000\n      dup2\n      mstore\n      0x04\n      add\n      tag_305\n      swap1\n      tag_306\n      jump\t// in\n    tag_305:\n      mload(0x40)\n      dup1\n      swap2\n      sub\n      swap1\n      revert\n    tag_304:\n        /* \"contracts/BaseContract.sol\":12619:12623  true */\n      0x01\n        /* \"contracts/BaseContract.sol\":12593:12599  stklar */\n      0x09\n        /* \"contracts/BaseContract.sol\":12593:12610  stklar[_stkAdres] */\n      0x00\n        /* \"contracts/BaseContract.sol\":12600:12609  _stkAdres */\n      dup6\n        /* \"contracts/BaseContract.sol\":12593:12610  stklar[_stkAdres] */\n      0xffffffffffffffffffffffffffffffffffffffff\n      and\n      0xffffffffffffffffffffffffffffffffffffffff\n      and\n      dup2\n      mstore\n      0x20\n      add\n      swap1\n      dup2\n      mstore\n      0x20\n      add\n      0x00\n      keccak256\n        /* \"contracts/BaseContract.sol\":12593:12616  stklar[_stkAdres].durum */\n      0x00\n      add\n      0x00\n        /* \"contracts/BaseContract.sol\":12593:12623  stklar[_stkAdres].durum = true */\n      0x0100\n      exp\n      dup2\n      sload\n      dup2\n      0xff\n      mul\n      not\n      and\n      swap1\n      dup4\n      iszero\n      iszero\n      mul\n      or\n      swap1\n      sstore\n      pop\n        /* \"contracts/BaseContract.sol\":12659:12664  _isim */\n      dup2\n        /* \"contracts/BaseContract.sol\":12634:12640  stklar */\n      0x09\n        /* \"contracts/BaseContract.sol\":12634:12651  stklar[_stkAdres] */\n      0x00\n        /* \"contracts/BaseContract.sol\":12641:12650  _stkAdres */\n      dup6\n        /* \"contracts/BaseContract.sol\":12634:12651  stklar[_stkAdres] */\n      0xffffffffffffffffffffffffffffffffffffffff\n      and\n      0xffffffffffffffffffffffffffffffffffffffff\n      and\n      dup2\n      mstore\n      0x20\n      add\n      swap1\n      dup2\n      mstore\n      0x20\n      add\n      0x00\n      keccak256\n        /* \"contracts/BaseContract.sol\":12634:12656  stklar[_stkAdres].isim */\n      0x01\n      add\n        /* \"contracts/BaseContract.sol\":12634:12664  stklar[_stkAdres].isim = _isim */\n      swap1\n      dup1\n      mload\n      swap1\n      0x20\n      add\n      swap1\n      tag_307\n      swap3\n      swap2\n      swap1\n      tag_288\n      jump\t// in\n    tag_307:\n      pop\n        /* \"contracts/BaseContract.sol\":12700:12705  _ulke */\n      dup1\n        /* \"contracts/BaseContract.sol\":12675:12681  stklar */\n      0x09\n        /* \"contracts/BaseContract.sol\":12675:12692  stklar[_stkAdres] */\n      0x00\n        /* \"contracts/BaseContract.sol\":12682:12691  _stkAdres */\n      dup6\n        /* \"contracts/BaseContract.sol\":12675:12692  stklar[_stkAdres] */\n      0xffffffffffffffffffffffffffffffffffffffff\n      and\n      0xffffffffffffffffffffffffffffffffffffffff\n      and\n      dup2\n      mstore\n      0x20\n      add\n      swap1\n      dup2\n      mstore\n      0x20\n      add\n      0x00\n      keccak256\n        /* \"contracts/BaseContract.sol\":12675:12697  stklar[_stkAdres].ulke */\n      0x02\n      add\n      0x00\n        /* \"contracts/BaseContract.sol\":12675:12705  stklar[_stkAdres].ulke = _ulke */\n      0x0100\n      exp\n      dup2\n      sload\n      dup2\n      0xff\n      mul\n      not\n      and\n      swap1\n      dup4\n      0xff\n      and\n      mul\n      or\n      swap1\n      sstore\n      pop\n        /* \"contracts/BaseContract.sol\":12716:12728  stkAdresleri */\n      0x11\n        /* \"contracts/BaseContract.sol\":12734:12743  _stkAdres */\n      dup4\n        /* \"contracts/BaseContract.sol\":12716:12744  stkAdresleri.push(_stkAdres) */\n      swap1\n      dup1\n      0x01\n      dup2\n      sload\n      add\n      dup1\n      dup3\n      sstore\n      dup1\n      swap2\n      pop\n      pop\n      0x01\n      swap1\n      sub\n      swap1\n      0x00\n      mstore\n      keccak256(0x00, 0x20)\n      add\n      0x00\n      swap1\n      swap2\n      swap1\n      swap2\n      swap1\n      swap2\n      0x0100\n      exp\n      dup2\n      sload\n      dup2\n      0xffffffffffffffffffffffffffffffffffffffff\n      mul\n      not\n      and\n      swap1\n      dup4\n      0xffffffffffffffffffffffffffffffffffffffff\n      and\n      mul\n      or\n      swap1\n      sstore\n      pop\n        /* \"contracts/BaseContract.sol\":12400:12754  function ekleSTK(address _stkAdres, string memory _isim, uint8 _ulke)\r... */\n      pop\n      pop\n      pop\n      jump\t// out\n        /* \"contracts/BaseContract.sol\":5098:5138  mapping(address => Kurs) public  kurslar */\n    tag_104:\n      mstore(0x20, 0x07)\n      dup1\n      0x00\n      mstore\n      keccak256(0x00, 0x40)\n      0x00\n      swap2\n      pop\n      swap1\n      pop\n      dup1\n      0x00\n      add\n      0x00\n      swap1\n      sload\n      swap1\n      0x0100\n      exp\n      swap1\n      div\n      0xff\n      and\n      swap1\n      dup1\n      0x01\n      add\n      dup1\n      sload\n      tag_309\n      swap1\n      tag_310\n      jump\t// in\n    tag_309:\n      dup1\n      0x1f\n      add\n      0x20\n      dup1\n      swap2\n      div\n      mul\n      0x20\n      add\n      mload(0x40)\n      swap1\n      dup2\n      add\n      0x40\n      mstore\n      dup1\n      swap3\n      swap2\n      swap1\n      dup2\n      dup2\n      mstore\n      0x20\n      add\n      dup3\n      dup1\n      sload\n      tag_311\n      swap1\n      tag_310\n      jump\t// in\n    tag_311:\n      dup1\n      iszero\n      tag_312\n      jumpi\n      dup1\n      0x1f\n      lt\n      tag_313\n      jumpi\n      0x0100\n      dup1\n      dup4\n      sload\n      div\n      mul\n      dup4\n      mstore\n      swap2\n      0x20\n      add\n      swap2\n      jump(tag_312)\n    tag_313:\n      dup3\n      add\n      swap2\n      swap1\n      0x00\n      mstore\n      keccak256(0x00, 0x20)\n      swap1\n    tag_314:\n      dup2\n      sload\n      dup2\n      mstore\n      swap1\n      0x01\n      add\n      swap1\n      0x20\n      add\n      dup1\n      dup4\n      gt\n      tag_314\n      jumpi\n      dup3\n      swap1\n      sub\n      0x1f\n      and\n      dup3\n      add\n      swap2\n    tag_312:\n      pop\n      pop\n      pop\n      pop\n      pop\n      swap1\n      dup1\n      0x02\n      add\n      0x00\n      swap1\n      sload\n      swap1\n      0x0100\n      exp\n      swap1\n      div\n      0xff\n      and\n      swap1\n      pop\n      dup4\n      jump\t// out\n        /* \"contracts/BaseContract.sol\":10263:10452  function silFirma(address _firmaAdres)\r... */\n    tag_109:\n        /* \"contracts/BaseContract.sol\":10333:10353  isFirma(_firmaAdres) */\n      tag_316\n        /* \"contracts/BaseContract.sol\":10341:10352  _firmaAdres */\n      dup2\n        /* \"contracts/BaseContract.sol\":10333:10340  isFirma */\n      tag_120\n        /* \"contracts/BaseContract.sol\":10333:10353  isFirma(_firmaAdres) */\n      jump\t// in\n    tag_316:\n        /* \"contracts/BaseContract.sol\":10325:10399  require(isFirma(_firmaAdres),\r... */\n      tag_317\n      jumpi\n      mload(0x40)\n      0x08c379a000000000000000000000000000000000000000000000000000000000\n      dup2\n      mstore\n      0x04\n      add\n      tag_318\n      swap1\n      tag_319\n      jump\t// in\n    tag_318:\n      mload(0x40)\n      dup1\n      swap2\n      sub\n      swap1\n      revert\n    tag_317:\n        /* \"contracts/BaseContract.sol\":10419:10427  firmalar */\n      0x06\n        /* \"contracts/BaseContract.sol\":10419:10440  firmalar[_firmaAdres] */\n      0x00\n        /* \"contracts/BaseContract.sol\":10428:10439  _firmaAdres */\n      dup3\n        /* \"contracts/BaseContract.sol\":10419:10440  firmalar[_firmaAdres] */\n      0xffffffffffffffffffffffffffffffffffffffff\n      and\n      0xffffffffffffffffffffffffffffffffffffffff\n      and\n      dup2\n      mstore\n      0x20\n      add\n      swap1\n      dup2\n      mstore\n      0x20\n      add\n      0x00\n      keccak256\n      0x00\n        /* \"contracts/BaseContract.sol\":10412:10440  delete firmalar[_firmaAdres] */\n      dup1\n      dup3\n      add\n      exp(0x0100, 0x00)\n      dup2\n      sload\n      swap1\n      0xff\n      mul\n      not\n      and\n      swap1\n      sstore\n      0x00\n      dup3\n      add\n      exp(0x0100, 0x01)\n      dup2\n      sload\n      swap1\n      0xff\n      mul\n      not\n      and\n      swap1\n      sstore\n      0x01\n      dup3\n      add\n      0x00\n      swap1\n      sstore\n      0x02\n      dup3\n      add\n      0x00\n      tag_320\n      swap2\n      swap1\n      tag_321\n      jump\t// in\n    tag_320:\n      pop\n      pop\n        /* \"contracts/BaseContract.sol\":10263:10452  function silFirma(address _firmaAdres)\r... */\n      pop\n      jump\t// out\n        /* \"contracts/BaseContract.sol\":5419:5455  address[] public universiteAdresleri */\n    tag_112:\n      0x0d\n      dup2\n      dup2\n      sload\n      dup2\n      lt\n      tag_322\n      jumpi\n      0x00\n      dup1\n      revert\n    tag_322:\n      swap1\n      0x00\n      mstore\n      keccak256(0x00, 0x20)\n      add\n      0x00\n      swap2\n      pop\n      sload\n      swap1\n      0x0100\n      exp\n      swap1\n      div\n      0xffffffffffffffffffffffffffffffffffffffff\n      and\n      dup2\n      jump\t// out\n        /* \"contracts/BaseContract.sol\":4931:4982  mapping(address => Universite) public universiteler */\n    tag_116:\n      mstore(0x20, 0x04)\n      dup1\n      0x00\n      mstore\n      keccak256(0x00, 0x40)\n      0x00\n      swap2\n      pop\n      swap1\n      pop\n      dup1\n      0x00\n      add\n      0x00\n      swap1\n      sload\n      swap1\n      0x0100\n      exp\n      swap1\n      div\n      0xff\n      and\n      swap1\n      dup1\n      0x01\n      add\n      dup1\n      sload\n      tag_324\n      swap1\n      tag_310\n      jump\t// in\n    tag_324:\n      dup1\n      0x1f\n      add\n      0x20\n      dup1\n      swap2\n      div\n      mul\n      0x20\n      add\n      mload(0x40)\n      swap1\n      dup2\n      add\n      0x40\n      mstore\n      dup1\n      swap3\n      swap2\n      swap1\n      dup2\n      dup2\n      mstore\n      0x20\n      add\n      dup3\n      dup1\n      sload\n      tag_325\n      swap1\n      tag_310\n      jump\t// in\n    tag_325:\n      dup1\n      iszero\n      tag_326\n      jumpi\n      dup1\n      0x1f\n      lt\n      tag_327\n      jumpi\n      0x0100\n      dup1\n      dup4\n      sload\n      div\n      mul\n      dup4\n      mstore\n      swap2\n      0x20\n      add\n      swap2\n      jump(tag_326)\n    tag_327:\n      dup3\n      add\n      swap2\n      swap1\n      0x00\n      mstore\n      keccak256(0x00, 0x20)\n      swap1\n    tag_328:\n      dup2\n      sload\n      dup2\n      mstore\n      swap1\n      0x01\n      add\n      swap1\n      0x20\n      add\n      dup1\n      dup4\n      gt\n      tag_328\n      jumpi\n      dup3\n      swap1\n      sub\n      0x1f\n      and\n      dup3\n      add\n      swap2\n    tag_326:\n      pop\n      pop\n      pop\n      pop\n      pop\n      swap1\n      dup1\n      0x02\n      add\n      0x00\n      swap1\n      sload\n      swap1\n      0x0100\n      exp\n      swap1\n      div\n      0xff\n      and\n      swap1\n      pop\n      dup4\n      jump\t// out\n        /* \"contracts/BaseContract.sol\":4393:4504  function isFirma(address _address) public view returns (bool){\r... */\n    tag_120:\n        /* \"contracts/BaseContract.sol\":4449:4453  bool */\n      0x00\n        /* \"contracts/BaseContract.sol\":4472:4480  firmalar */\n      0x06\n        /* \"contracts/BaseContract.sol\":4472:4490  firmalar[_address] */\n      0x00\n        /* \"contracts/BaseContract.sol\":4481:4489  _address */\n      dup4\n        /* \"contracts/BaseContract.sol\":4472:4490  firmalar[_address] */\n      0xffffffffffffffffffffffffffffffffffffffff\n      and\n      0xffffffffffffffffffffffffffffffffffffffff\n      and\n      dup2\n      mstore\n      0x20\n      add\n      swap1\n      dup2\n      mstore\n      0x20\n      add\n      0x00\n      keccak256\n        /* \"contracts/BaseContract.sol\":4472:4496  firmalar[_address].durum */\n      0x00\n      add\n      0x00\n      swap1\n      sload\n      swap1\n      0x0100\n      exp\n      swap1\n      div\n      0xff\n      and\n        /* \"contracts/BaseContract.sol\":4465:4496  return firmalar[_address].durum */\n      swap1\n      pop\n        /* \"contracts/BaseContract.sol\":4393:4504  function isFirma(address _address) public view returns (bool){\r... */\n      swap2\n      swap1\n      pop\n      jump\t// out\n        /* \"contracts/BaseContract.sol\":5247:5310  mapping(address => SertifikaMerkezi) public sertifikaMerkezleri */\n    tag_124:\n      mstore(0x20, 0x0a)\n      dup1\n      0x00\n      mstore\n      keccak256(0x00, 0x40)\n      0x00\n      swap2\n      pop\n      swap1\n      pop\n      dup1\n      0x00\n      add\n      0x00\n      swap1\n      sload\n      swap1\n      0x0100\n      exp\n      swap1\n      div\n      0xff\n      and\n      swap1\n      dup1\n      0x01\n      add\n      dup1\n      sload\n      tag_330\n      swap1\n      tag_310\n      jump\t// in\n    tag_330:\n      dup1\n      0x1f\n      add\n      0x20\n      dup1\n      swap2\n      div\n      mul\n      0x20\n      add\n      mload(0x40)\n      swap1\n      dup2\n      add\n      0x40\n      mstore\n      dup1\n      swap3\n      swap2\n      swap1\n      dup2\n      dup2\n      mstore\n      0x20\n      add\n      dup3\n      dup1\n      sload\n      tag_331\n      swap1\n      tag_310\n      jump\t// in\n    tag_331:\n      dup1\n      iszero\n      tag_332\n      jumpi\n      dup1\n      0x1f\n      lt\n      tag_333\n      jumpi\n      0x0100\n      dup1\n      dup4\n      sload\n      div\n      mul\n      dup4\n      mstore\n      swap2\n      0x20\n      add\n      swap2\n      jump(tag_332)\n    tag_333:\n      dup3\n      add\n      swap2\n      swap1\n      0x00\n      mstore\n      keccak256(0x00, 0x20)\n      swap1\n    tag_334:\n      dup2\n      sload\n      dup2\n      mstore\n      swap1\n      0x01\n      add\n      swap1\n      0x20\n      add\n      dup1\n      dup4\n      gt\n      tag_334\n      jumpi\n      dup3\n      swap1\n      sub\n      0x1f\n      and\n      dup3\n      add\n      swap2\n    tag_332:\n      pop\n      pop\n      pop\n      pop\n      pop\n      swap1\n      dup1\n      0x02\n      add\n      0x00\n      swap1\n      sload\n      swap1\n      0x0100\n      exp\n      swap1\n      div\n      0xff\n      and\n      swap1\n      pop\n      dup4\n      jump\t// out\n        /* \"contracts/BaseContract.sol\":164:307  function paydasTanimla(address _yok, address _tobb, address _cb) public {\r... */\n    tag_129:\n        /* \"contracts/BaseContract.sol\":253:257  _yok */\n      dup3\n        /* \"contracts/BaseContract.sol\":247:250  YOK */\n      0x00\n      dup1\n        /* \"contracts/BaseContract.sol\":247:257  YOK = _yok */\n      0x0100\n      exp\n      dup2\n      sload\n      dup2\n      0xffffffffffffffffffffffffffffffffffffffff\n      mul\n      not\n      and\n      swap1\n      dup4\n      0xffffffffffffffffffffffffffffffffffffffff\n      and\n      mul\n      or\n      swap1\n      sstore\n      pop\n        /* \"contracts/BaseContract.sol\":275:280  _tobb */\n      dup2\n        /* \"contracts/BaseContract.sol\":268:272  TOBB */\n      0x01\n      0x00\n        /* \"contracts/BaseContract.sol\":268:280  TOBB = _tobb */\n      0x0100\n      exp\n      dup2\n      sload\n      dup2\n      0xffffffffffffffffffffffffffffffffffffffff\n      mul\n      not\n      and\n      swap1\n      dup4\n      0xffffffffffffffffffffffffffffffffffffffff\n      and\n      mul\n      or\n      swap1\n      sstore\n      pop\n        /* \"contracts/BaseContract.sol\":296:299  _cb */\n      dup1\n        /* \"contracts/BaseContract.sol\":291:293  CB */\n      0x02\n      0x00\n        /* \"contracts/BaseContract.sol\":291:299  CB = _cb */\n      0x0100\n      exp\n      dup2\n      sload\n      dup2\n      0xffffffffffffffffffffffffffffffffffffffff\n      mul\n      not\n      and\n      swap1\n      dup4\n      0xffffffffffffffffffffffffffffffffffffffff\n      and\n      mul\n      or\n      swap1\n      sstore\n      pop\n        /* \"contracts/BaseContract.sol\":164:307  function paydasTanimla(address _yok, address _tobb, address _cb) public {\r... */\n      pop\n      pop\n      pop\n      jump\t// out\n        /* \"contracts/BaseContract.sol\":5049:5091  mapping(address => Firma) public  firmalar */\n    tag_132:\n      mstore(0x20, 0x06)\n      dup1\n      0x00\n      mstore\n      keccak256(0x00, 0x40)\n      0x00\n      swap2\n      pop\n      swap1\n      pop\n      dup1\n      0x00\n      add\n      0x00\n      swap1\n      sload\n      swap1\n      0x0100\n      exp\n      swap1\n      div\n      0xff\n      and\n      swap1\n      dup1\n      0x00\n      add\n      0x01\n      swap1\n      sload\n      swap1\n      0x0100\n      exp\n      swap1\n      div\n      0xff\n      and\n      swap1\n      dup1\n      0x01\n      add\n      sload\n      swap1\n      dup1\n      0x02\n      add\n      dup1\n      sload\n      tag_336\n      swap1\n      tag_310\n      jump\t// in\n    tag_336:\n      dup1\n      0x1f\n      add\n      0x20\n      dup1\n      swap2\n      div\n      mul\n      0x20\n      add\n      mload(0x40)\n      swap1\n      dup2\n      add\n      0x40\n      mstore\n      dup1\n      swap3\n      swap2\n      swap1\n      dup2\n      dup2\n      mstore\n      0x20\n      add\n      dup3\n      dup1\n      sload\n      tag_337\n      swap1\n      tag_310\n      jump\t// in\n    tag_337:\n      dup1\n      iszero\n      tag_338\n      jumpi\n      dup1\n      0x1f\n      lt\n      tag_339\n      jumpi\n      0x0100\n      dup1\n      dup4\n      sload\n      div\n      mul\n      dup4\n      mstore\n      swap2\n      0x20\n      add\n      swap2\n      jump(tag_338)\n    tag_339:\n      dup3\n      add\n      swap2\n      swap1\n      0x00\n      mstore\n      keccak256(0x00, 0x20)\n      swap1\n    tag_340:\n      dup2\n      sload\n      dup2\n      mstore\n      swap1\n      0x01\n      add\n      swap1\n      0x20\n      add\n      dup1\n      dup4\n      gt\n      tag_340\n      jumpi\n      dup3\n      swap1\n      sub\n      0x1f\n      and\n      dup3\n      add\n      swap2\n    tag_338:\n      pop\n      pop\n      pop\n      pop\n      pop\n      swap1\n      pop\n      dup5\n      jump\t// out\n        /* \"contracts/BaseContract.sol\":11508:11865  function ekleKurs(address _kursAdres, string memory _isim, uint8 _ulke)\r... */\n    tag_137:\n        /* \"contracts/BaseContract.sol\":11612:11630  isKurs(_kursAdres) */\n      tag_342\n        /* \"contracts/BaseContract.sol\":11619:11629  _kursAdres */\n      dup4\n        /* \"contracts/BaseContract.sol\":11612:11618  isKurs */\n      tag_79\n        /* \"contracts/BaseContract.sol\":11612:11630  isKurs(_kursAdres) */\n      jump\t// in\n    tag_342:\n        /* \"contracts/BaseContract.sol\":11611:11630  !isKurs(_kursAdres) */\n      iszero\n        /* \"contracts/BaseContract.sol\":11603:11683  require(!isKurs(_kursAdres),\r... */\n      tag_343\n      jumpi\n      mload(0x40)\n      0x08c379a000000000000000000000000000000000000000000000000000000000\n      dup2\n      mstore\n      0x04\n      add\n      tag_344\n      swap1\n      tag_345\n      jump\t// in\n    tag_344:\n      mload(0x40)\n      dup1\n      swap2\n      sub\n      swap1\n      revert\n    tag_343:\n        /* \"contracts/BaseContract.sol\":11724:11728  true */\n      0x01\n        /* \"contracts/BaseContract.sol\":11696:11703  kurslar */\n      0x07\n        /* \"contracts/BaseContract.sol\":11696:11715  kurslar[_kursAdres] */\n      0x00\n        /* \"contracts/BaseContract.sol\":11704:11714  _kursAdres */\n      dup6\n        /* \"contracts/BaseContract.sol\":11696:11715  kurslar[_kursAdres] */\n      0xffffffffffffffffffffffffffffffffffffffff\n      and\n      0xffffffffffffffffffffffffffffffffffffffff\n      and\n      dup2\n      mstore\n      0x20\n      add\n      swap1\n      dup2\n      mstore\n      0x20\n      add\n      0x00\n      keccak256\n        /* \"contracts/BaseContract.sol\":11696:11721  kurslar[_kursAdres].durum */\n      0x00\n      add\n      0x00\n        /* \"contracts/BaseContract.sol\":11696:11728  kurslar[_kursAdres].durum = true */\n      0x0100\n      exp\n      dup2\n      sload\n      dup2\n      0xff\n      mul\n      not\n      and\n      swap1\n      dup4\n      iszero\n      iszero\n      mul\n      or\n      swap1\n      sstore\n      pop\n        /* \"contracts/BaseContract.sol\":11766:11771  _isim */\n      dup2\n        /* \"contracts/BaseContract.sol\":11739:11746  kurslar */\n      0x07\n        /* \"contracts/BaseContract.sol\":11739:11758  kurslar[_kursAdres] */\n      0x00\n        /* \"contracts/BaseContract.sol\":11747:11757  _kursAdres */\n      dup6\n        /* \"contracts/BaseContract.sol\":11739:11758  kurslar[_kursAdres] */\n      0xffffffffffffffffffffffffffffffffffffffff\n      and\n      0xffffffffffffffffffffffffffffffffffffffff\n      and\n      dup2\n      mstore\n      0x20\n      add\n      swap1\n      dup2\n      mstore\n      0x20\n      add\n      0x00\n      keccak256\n        /* \"contracts/BaseContract.sol\":11739:11763  kurslar[_kursAdres].isim */\n      0x01\n      add\n        /* \"contracts/BaseContract.sol\":11739:11771  kurslar[_kursAdres].isim = _isim */\n      swap1\n      dup1\n      mload\n      swap1\n      0x20\n      add\n      swap1\n      tag_346\n      swap3\n      swap2\n      swap1\n      tag_288\n      jump\t// in\n    tag_346:\n      pop\n        /* \"contracts/BaseContract.sol\":11809:11814  _ulke */\n      dup1\n        /* \"contracts/BaseContract.sol\":11782:11789  kurslar */\n      0x07\n        /* \"contracts/BaseContract.sol\":11782:11801  kurslar[_kursAdres] */\n      0x00\n        /* \"contracts/BaseContract.sol\":11790:11800  _kursAdres */\n      dup6\n        /* \"contracts/BaseContract.sol\":11782:11801  kurslar[_kursAdres] */\n      0xffffffffffffffffffffffffffffffffffffffff\n      and\n      0xffffffffffffffffffffffffffffffffffffffff\n      and\n      dup2\n      mstore\n      0x20\n      add\n      swap1\n      dup2\n      mstore\n      0x20\n      add\n      0x00\n      keccak256\n        /* \"contracts/BaseContract.sol\":11782:11806  kurslar[_kursAdres].ulke */\n      0x02\n      add\n      0x00\n        /* \"contracts/BaseContract.sol\":11782:11814  kurslar[_kursAdres].ulke = _ulke */\n      0x0100\n      exp\n      dup2\n      sload\n      dup2\n      0xff\n      mul\n      not\n      and\n      swap1\n      dup4\n      0xff\n      and\n      mul\n      or\n      swap1\n      sstore\n      pop\n        /* \"contracts/BaseContract.sol\":11825:11838  kursAdresleri */\n      0x0f\n        /* \"contracts/BaseContract.sol\":11844:11854  _kursAdres */\n      dup4\n        /* \"contracts/BaseContract.sol\":11825:11855  kursAdresleri.push(_kursAdres) */\n      swap1\n      dup1\n      0x01\n      dup2\n      sload\n      add\n      dup1\n      dup3\n      sstore\n      dup1\n      swap2\n      pop\n      pop\n      0x01\n      swap1\n      sub\n      swap1\n      0x00\n      mstore\n      keccak256(0x00, 0x20)\n      add\n      0x00\n      swap1\n      swap2\n      swap1\n      swap2\n      swap1\n      swap2\n      0x0100\n      exp\n      dup2\n      sload\n      dup2\n      0xffffffffffffffffffffffffffffffffffffffff\n      mul\n      not\n      and\n      swap1\n      dup4\n      0xffffffffffffffffffffffffffffffffffffffff\n      and\n      mul\n      or\n      swap1\n      sstore\n      pop\n        /* \"contracts/BaseContract.sol\":11508:11865  function ekleKurs(address _kursAdres, string memory _isim, uint8 _ulke)\r... */\n      pop\n      pop\n      pop\n      jump\t// out\n        /* \"contracts/BaseContract.sol\":11279:11500  function silKamuKurumu(address _kamuKurumuAdres)\r... */\n    tag_140:\n        /* \"contracts/BaseContract.sol\":11359:11389  isKamuKurumu(_kamuKurumuAdres) */\n      tag_349\n        /* \"contracts/BaseContract.sol\":11372:11388  _kamuKurumuAdres */\n      dup2\n        /* \"contracts/BaseContract.sol\":11359:11371  isKamuKurumu */\n      tag_143\n        /* \"contracts/BaseContract.sol\":11359:11389  isKamuKurumu(_kamuKurumuAdres) */\n      jump\t// in\n    tag_349:\n        /* \"contracts/BaseContract.sol\":11351:11441  require(isKamuKurumu(_kamuKurumuAdres),\r... */\n      tag_350\n      jumpi\n      mload(0x40)\n      0x08c379a000000000000000000000000000000000000000000000000000000000\n      dup2\n      mstore\n      0x04\n      add\n      tag_351\n      swap1\n      tag_300\n      jump\t// in\n    tag_351:\n      mload(0x40)\n      dup1\n      swap2\n      sub\n      swap1\n      revert\n    tag_350:\n        /* \"contracts/BaseContract.sol\":11461:11474  kamuKurumlari */\n      0x08\n        /* \"contracts/BaseContract.sol\":11461:11492  kamuKurumlari[_kamuKurumuAdres] */\n      0x00\n        /* \"contracts/BaseContract.sol\":11475:11491  _kamuKurumuAdres */\n      dup3\n        /* \"contracts/BaseContract.sol\":11461:11492  kamuKurumlari[_kamuKurumuAdres] */\n      0xffffffffffffffffffffffffffffffffffffffff\n      and\n      0xffffffffffffffffffffffffffffffffffffffff\n      and\n      dup2\n      mstore\n      0x20\n      add\n      swap1\n      dup2\n      mstore\n      0x20\n      add\n      0x00\n      keccak256\n      0x00\n        /* \"contracts/BaseContract.sol\":11454:11492  delete kamuKurumlari[_kamuKurumuAdres] */\n      dup1\n      dup3\n      add\n      exp(0x0100, 0x00)\n      dup2\n      sload\n      swap1\n      0xff\n      mul\n      not\n      and\n      swap1\n      sstore\n      0x01\n      dup3\n      add\n      0x00\n      tag_352\n      swap2\n      swap1\n      tag_321\n      jump\t// in\n    tag_352:\n      0x02\n      dup3\n      add\n      exp(0x0100, 0x00)\n      dup2\n      sload\n      swap1\n      0xff\n      mul\n      not\n      and\n      swap1\n      sstore\n      pop\n      pop\n        /* \"contracts/BaseContract.sol\":11279:11500  function silKamuKurumu(address _kamuKurumuAdres)\r... */\n      pop\n      jump\t// out\n        /* \"contracts/BaseContract.sol\":4264:4385  function isKamuKurumu(address _address) public view returns (bool){\r... */\n    tag_143:\n        /* \"contracts/BaseContract.sol\":4325:4329  bool */\n      0x00\n        /* \"contracts/BaseContract.sol\":4348:4361  kamuKurumlari */\n      0x08\n        /* \"contracts/BaseContract.sol\":4348:4371  kamuKurumlari[_address] */\n      0x00\n        /* \"contracts/BaseContract.sol\":4362:4370  _address */\n      dup4\n        /* \"contracts/BaseContract.sol\":4348:4371  kamuKurumlari[_address] */\n      0xffffffffffffffffffffffffffffffffffffffff\n      and\n      0xffffffffffffffffffffffffffffffffffffffff\n      and\n      dup2\n      mstore\n      0x20\n      add\n      swap1\n      dup2\n      mstore\n      0x20\n      add\n      0x00\n      keccak256\n        /* \"contracts/BaseContract.sol\":4348:4377  kamuKurumlari[_address].durum */\n      0x00\n      add\n      0x00\n      swap1\n      sload\n      swap1\n      0x0100\n      exp\n      swap1\n      div\n      0xff\n      and\n        /* \"contracts/BaseContract.sol\":4341:4377  return kamuKurumlari[_address].durum */\n      swap1\n      pop\n        /* \"contracts/BaseContract.sol\":4264:4385  function isKamuKurumu(address _address) public view returns (bool){\r... */\n      swap2\n      swap1\n      pop\n      jump\t// out\n        /* \"contracts/BaseContract.sol\":14083:14304  function silSertifikaMerkezi(address _smAdres)\r... */\n    tag_147:\n        /* \"contracts/BaseContract.sol\":14161:14189  isSertifikaMerkezi(_smAdres) */\n      tag_355\n        /* \"contracts/BaseContract.sol\":14180:14188  _smAdres */\n      dup2\n        /* \"contracts/BaseContract.sol\":14161:14179  isSertifikaMerkezi */\n      tag_250\n        /* \"contracts/BaseContract.sol\":14161:14189  isSertifikaMerkezi(_smAdres) */\n      jump\t// in\n    tag_355:\n        /* \"contracts/BaseContract.sol\":14153:14247  require(isSertifikaMerkezi(_smAdres),\r... */\n      tag_356\n      jumpi\n      mload(0x40)\n      0x08c379a000000000000000000000000000000000000000000000000000000000\n      dup2\n      mstore\n      0x04\n      add\n      tag_357\n      swap1\n      tag_358\n      jump\t// in\n    tag_357:\n      mload(0x40)\n      dup1\n      swap2\n      sub\n      swap1\n      revert\n    tag_356:\n        /* \"contracts/BaseContract.sol\":14265:14284  sertifikaMerkezleri */\n      0x0a\n        /* \"contracts/BaseContract.sol\":14265:14294  sertifikaMerkezleri[_smAdres] */\n      0x00\n        /* \"contracts/BaseContract.sol\":14285:14293  _smAdres */\n      dup3\n        /* \"contracts/BaseContract.sol\":14265:14294  sertifikaMerkezleri[_smAdres] */\n      0xffffffffffffffffffffffffffffffffffffffff\n      and\n      0xffffffffffffffffffffffffffffffffffffffff\n      and\n      dup2\n      mstore\n      0x20\n      add\n      swap1\n      dup2\n      mstore\n      0x20\n      add\n      0x00\n      keccak256\n      0x00\n        /* \"contracts/BaseContract.sol\":14258:14294  delete sertifikaMerkezleri[_smAdres] */\n      dup1\n      dup3\n      add\n      exp(0x0100, 0x00)\n      dup2\n      sload\n      swap1\n      0xff\n      mul\n      not\n      and\n      swap1\n      sstore\n      0x01\n      dup3\n      add\n      0x00\n      tag_359\n      swap2\n      swap1\n      tag_321\n      jump\t// in\n    tag_359:\n      0x02\n      dup3\n      add\n      exp(0x0100, 0x00)\n      dup2\n      sload\n      swap1\n      0xff\n      mul\n      not\n      and\n      swap1\n      sstore\n      pop\n      pop\n        /* \"contracts/BaseContract.sol\":14083:14304  function silSertifikaMerkezi(address _smAdres)\r... */\n      pop\n      jump\t// out\n        /* \"contracts/BaseContract.sol\":101:119  address public YOK */\n    tag_149:\n      0x00\n      dup1\n      sload\n      swap1\n      0x0100\n      exp\n      swap1\n      div\n      0xffffffffffffffffffffffffffffffffffffffff\n      and\n      dup2\n      jump\t// out\n        /* \"contracts/BaseContract.sol\":5145:5196  mapping(address => KamuKurumu) public kamuKurumlari */\n    tag_153:\n      mstore(0x20, 0x08)\n      dup1\n      0x00\n      mstore\n      keccak256(0x00, 0x40)\n      0x00\n      swap2\n      pop\n      swap1\n      pop\n      dup1\n      0x00\n      add\n      0x00\n      swap1\n      sload\n      swap1\n      0x0100\n      exp\n      swap1\n      div\n      0xff\n      and\n      swap1\n      dup1\n      0x01\n      add\n      dup1\n      sload\n      tag_360\n      swap1\n      tag_310\n      jump\t// in\n    tag_360:\n      dup1\n      0x1f\n      add\n      0x20\n      dup1\n      swap2\n      div\n      mul\n      0x20\n      add\n      mload(0x40)\n      swap1\n      dup2\n      add\n      0x40\n      mstore\n      dup1\n      swap3\n      swap2\n      swap1\n      dup2\n      dup2\n      mstore\n      0x20\n      add\n      dup3\n      dup1\n      sload\n      tag_361\n      swap1\n      tag_310\n      jump\t// in\n    tag_361:\n      dup1\n      iszero\n      tag_362\n      jumpi\n      dup1\n      0x1f\n      lt\n      tag_363\n      jumpi\n      0x0100\n      dup1\n      dup4\n      sload\n      div\n      mul\n      dup4\n      mstore\n      swap2\n      0x20\n      add\n      swap2\n      jump(tag_362)\n    tag_363:\n      dup3\n      add\n      swap2\n      swap1\n      0x00\n      mstore\n      keccak256(0x00, 0x20)\n      swap1\n    tag_364:\n      dup2\n      sload\n      dup2\n      mstore\n      swap1\n      0x01\n      add\n      swap1\n      0x20\n      add\n      dup1\n      dup4\n      gt\n      tag_364\n      jumpi\n      dup3\n      swap1\n      sub\n      0x1f\n      and\n      dup3\n      add\n      swap2\n    tag_362:\n      pop\n      pop\n      pop\n      pop\n      pop\n      swap1\n      dup1\n      0x02\n      add\n      0x00\n      swap1\n      sload\n      swap1\n      0x0100\n      exp\n      swap1\n      div\n      0xff\n      and\n      swap1\n      pop\n      dup4\n      jump\t// out\n        /* \"contracts/BaseContract.sol\":6692:7062  function getUniversiteListesi() public sadeceYOK view returns(Universite[] memory){\r... */\n    tag_156:\n        /* \"contracts/BaseContract.sol\":6754:6773  Universite[] memory */\n      0x60\n        /* \"contracts/BaseContract.sol\":2237:2240  YOK */\n      0x00\n      dup1\n      sload\n      swap1\n      0x0100\n      exp\n      swap1\n      div\n      0xffffffffffffffffffffffffffffffffffffffff\n      and\n        /* \"contracts/BaseContract.sol\":2223:2240  msg.sender == YOK */\n      0xffffffffffffffffffffffffffffffffffffffff\n      and\n        /* \"contracts/BaseContract.sol\":2223:2233  msg.sender */\n      caller\n        /* \"contracts/BaseContract.sol\":2223:2240  msg.sender == YOK */\n      0xffffffffffffffffffffffffffffffffffffffff\n      and\n      eq\n        /* \"contracts/BaseContract.sol\":2215:2299  require(msg.sender == YOK,\r... */\n      tag_366\n      jumpi\n      mload(0x40)\n      0x08c379a000000000000000000000000000000000000000000000000000000000\n      dup2\n      mstore\n      0x04\n      add\n      tag_367\n      swap1\n      tag_368\n      jump\t// in\n    tag_367:\n      mload(0x40)\n      dup1\n      swap2\n      sub\n      swap1\n      revert\n    tag_366:\n        /* \"contracts/BaseContract.sol\":6793:6820  Universite [] memory result */\n      0x00\n        /* \"contracts/BaseContract.sol\":6840:6859  universiteAdresleri */\n      0x0d\n        /* \"contracts/BaseContract.sol\":6840:6866  universiteAdresleri.length */\n      dup1\n      sload\n      swap1\n      pop\n        /* \"contracts/BaseContract.sol\":6823:6867  new Universite[](universiteAdresleri.length) */\n      0xffffffffffffffff\n      dup2\n      gt\n      iszero\n      tag_370\n      jumpi\n      tag_371\n      tag_372\n      jump\t// in\n    tag_371:\n    tag_370:\n      mload(0x40)\n      swap1\n      dup1\n      dup3\n      mstore\n      dup1\n      0x20\n      mul\n      0x20\n      add\n      dup3\n      add\n      0x40\n      mstore\n      dup1\n      iszero\n      tag_373\n      jumpi\n      dup2\n      0x20\n      add\n    tag_374:\n      tag_375\n      tag_376\n      jump\t// in\n    tag_375:\n      dup2\n      mstore\n      0x20\n      add\n      swap1\n      0x01\n      swap1\n      sub\n      swap1\n      dup2\n      tag_374\n      jumpi\n      swap1\n      pop\n    tag_373:\n      pop\n        /* \"contracts/BaseContract.sol\":6793:6867  Universite [] memory result = new Universite[](universiteAdresleri.length) */\n      swap1\n      pop\n        /* \"contracts/BaseContract.sol\":6878:6888  uint index */\n      0x00\n        /* \"contracts/BaseContract.sol\":6905:6911  uint i */\n      dup1\n        /* \"contracts/BaseContract.sol\":6901:7031  for(uint i = 0; i< universiteAdresleri.length; i++){\r... */\n    tag_377:\n        /* \"contracts/BaseContract.sol\":6920:6939  universiteAdresleri */\n      0x0d\n        /* \"contracts/BaseContract.sol\":6920:6946  universiteAdresleri.length */\n      dup1\n      sload\n      swap1\n      pop\n        /* \"contracts/BaseContract.sol\":6917:6918  i */\n      dup2\n        /* \"contracts/BaseContract.sol\":6917:6946  i< universiteAdresleri.length */\n      lt\n        /* \"contracts/BaseContract.sol\":6901:7031  for(uint i = 0; i< universiteAdresleri.length; i++){\r... */\n      iszero\n      tag_378\n      jumpi\n        /* \"contracts/BaseContract.sol\":6982:6995  universiteler */\n      0x04\n        /* \"contracts/BaseContract.sol\":6982:7019  universiteler[universiteAdresleri[i]] */\n      0x00\n        /* \"contracts/BaseContract.sol\":6996:7015  universiteAdresleri */\n      0x0d\n        /* \"contracts/BaseContract.sol\":7016:7017  i */\n      dup4\n        /* \"contracts/BaseContract.sol\":6996:7018  universiteAdresleri[i] */\n      dup2\n      sload\n      dup2\n      lt\n      tag_380\n      jumpi\n      tag_381\n      tag_382\n      jump\t// in\n    tag_381:\n    tag_380:\n      swap1\n      0x00\n      mstore\n      keccak256(0x00, 0x20)\n      add\n      0x00\n      swap1\n      sload\n      swap1\n      0x0100\n      exp\n      swap1\n      div\n      0xffffffffffffffffffffffffffffffffffffffff\n      and\n        /* \"contracts/BaseContract.sol\":6982:7019  universiteler[universiteAdresleri[i]] */\n      0xffffffffffffffffffffffffffffffffffffffff\n      and\n      0xffffffffffffffffffffffffffffffffffffffff\n      and\n      dup2\n      mstore\n      0x20\n      add\n      swap1\n      dup2\n      mstore\n      0x20\n      add\n      0x00\n      keccak256\n        /* \"contracts/BaseContract.sol\":6966:7019  result[index++]=universiteler[universiteAdresleri[i]] */\n      mload(0x40)\n      dup1\n      0x60\n      add\n      0x40\n      mstore\n      swap1\n      dup2\n      0x00\n      dup3\n      add\n      0x00\n      swap1\n      sload\n      swap1\n      0x0100\n      exp\n      swap1\n      div\n      0xff\n      and\n      iszero\n      iszero\n      iszero\n      iszero\n      dup2\n      mstore\n      0x20\n      add\n      0x01\n      dup3\n      add\n      dup1\n      sload\n      tag_384\n      swap1\n      tag_310\n      jump\t// in\n    tag_384:\n      dup1\n      0x1f\n      add\n      0x20\n      dup1\n      swap2\n      div\n      mul\n      0x20\n      add\n      mload(0x40)\n      swap1\n      dup2\n      add\n      0x40\n      mstore\n      dup1\n      swap3\n      swap2\n      swap1\n      dup2\n      dup2\n      mstore\n      0x20\n      add\n      dup3\n      dup1\n      sload\n      tag_385\n      swap1\n      tag_310\n      jump\t// in\n    tag_385:\n      dup1\n      iszero\n      tag_386\n      jumpi\n      dup1\n      0x1f\n      lt\n      tag_387\n      jumpi\n      0x0100\n      dup1\n      dup4\n      sload\n      div\n      mul\n      dup4\n      mstore\n      swap2\n      0x20\n      add\n      swap2\n      jump(tag_386)\n    tag_387:\n      dup3\n      add\n      swap2\n      swap1\n      0x00\n      mstore\n      keccak256(0x00, 0x20)\n      swap1\n    tag_388:\n      dup2\n      sload\n      dup2\n      mstore\n      swap1\n      0x01\n      add\n      swap1\n      0x20\n      add\n      dup1\n      dup4\n      gt\n      tag_388\n      jumpi\n      dup3\n      swap1\n      sub\n      0x1f\n      and\n      dup3\n      add\n      swap2\n    tag_386:\n      pop\n      pop\n      pop\n      pop\n      pop\n      dup2\n      mstore\n      0x20\n      add\n      0x02\n      dup3\n      add\n      0x00\n      swap1\n      sload\n      swap1\n      0x0100\n      exp\n      swap1\n      div\n      0xff\n      and\n      0xff\n      and\n      0xff\n      and\n      dup2\n      mstore\n      pop\n      pop\n        /* \"contracts/BaseContract.sol\":6966:6972  result */\n      dup4\n        /* \"contracts/BaseContract.sol\":6973:6980  index++ */\n      dup4\n      dup1\n      tag_389\n      swap1\n      tag_390\n      jump\t// in\n    tag_389:\n      swap5\n      pop\n        /* \"contracts/BaseContract.sol\":6966:6981  result[index++] */\n      dup2\n      mload\n      dup2\n      lt\n      tag_391\n      jumpi\n      tag_392\n      tag_382\n      jump\t// in\n    tag_392:\n    tag_391:\n      0x20\n      mul\n      0x20\n      add\n      add\n        /* \"contracts/BaseContract.sol\":6966:7019  result[index++]=universiteler[universiteAdresleri[i]] */\n      dup2\n      swap1\n      mstore\n      pop\n        /* \"contracts/BaseContract.sol\":6948:6951  i++ */\n      dup1\n      dup1\n      tag_393\n      swap1\n      tag_390\n      jump\t// in\n    tag_393:\n      swap2\n      pop\n      pop\n        /* \"contracts/BaseContract.sol\":6901:7031  for(uint i = 0; i< universiteAdresleri.length; i++){\r... */\n      jump(tag_377)\n    tag_378:\n      pop\n        /* \"contracts/BaseContract.sol\":7048:7054  result */\n      dup2\n        /* \"contracts/BaseContract.sol\":7041:7054  return result */\n      swap3\n      pop\n      pop\n      pop\n        /* \"contracts/BaseContract.sol\":6692:7062  function getUniversiteListesi() public sadeceYOK view returns(Universite[] memory){\r... */\n      swap1\n      jump\t// out\n        /* \"contracts/BaseContract.sol\":4629:4736  function isSTK(address _address) public view returns (bool){\r... */\n    tag_161:\n        /* \"contracts/BaseContract.sol\":4683:4687  bool */\n      0x00\n        /* \"contracts/BaseContract.sol\":4706:4712  stklar */\n      0x09\n        /* \"contracts/BaseContract.sol\":4706:4722  stklar[_address] */\n      0x00\n        /* \"contracts/BaseContract.sol\":4713:4721  _address */\n      dup4\n        /* \"contracts/BaseContract.sol\":4706:4722  stklar[_address] */\n      0xffffffffffffffffffffffffffffffffffffffff\n      and\n      0xffffffffffffffffffffffffffffffffffffffff\n      and\n      dup2\n      mstore\n      0x20\n      add\n      swap1\n      dup2\n      mstore\n      0x20\n      add\n      0x00\n      keccak256\n        /* \"contracts/BaseContract.sol\":4706:4728  stklar[_address].durum */\n      0x00\n      add\n      0x00\n      swap1\n      sload\n      swap1\n      0x0100\n      exp\n      swap1\n      div\n      0xff\n      and\n        /* \"contracts/BaseContract.sol\":4699:4728  return stklar[_address].durum */\n      swap1\n      pop\n        /* \"contracts/BaseContract.sol\":4629:4736  function isSTK(address _address) public view returns (bool){\r... */\n      swap2\n      swap1\n      pop\n      jump\t// out\n        /* \"contracts/BaseContract.sol\":12762:13080  function guncelleSTK(address _stkAdres, string memory _isim, uint8 _ulke)\r... */\n    tag_165:\n        /* \"contracts/BaseContract.sol\":12867:12883  isSTK(_stkAdres) */\n      tag_396\n        /* \"contracts/BaseContract.sol\":12873:12882  _stkAdres */\n      dup4\n        /* \"contracts/BaseContract.sol\":12867:12872  isSTK */\n      tag_161\n        /* \"contracts/BaseContract.sol\":12867:12883  isSTK(_stkAdres) */\n      jump\t// in\n    tag_396:\n        /* \"contracts/BaseContract.sol\":12859:12945  require(isSTK(_stkAdres),\r... */\n      tag_397\n      jumpi\n      mload(0x40)\n      0x08c379a000000000000000000000000000000000000000000000000000000000\n      dup2\n      mstore\n      0x04\n      add\n      tag_398\n      swap1\n      tag_399\n      jump\t// in\n    tag_398:\n      mload(0x40)\n      dup1\n      swap2\n      sub\n      swap1\n      revert\n    tag_397:\n        /* \"contracts/BaseContract.sol\":12984:12988  true */\n      0x01\n        /* \"contracts/BaseContract.sol\":12958:12964  stklar */\n      0x09\n        /* \"contracts/BaseContract.sol\":12958:12975  stklar[_stkAdres] */\n      0x00\n        /* \"contracts/BaseContract.sol\":12965:12974  _stkAdres */\n      dup6\n        /* \"contracts/BaseContract.sol\":12958:12975  stklar[_stkAdres] */\n      0xffffffffffffffffffffffffffffffffffffffff\n      and\n      0xffffffffffffffffffffffffffffffffffffffff\n      and\n      dup2\n      mstore\n      0x20\n      add\n      swap1\n      dup2\n      mstore\n      0x20\n      add\n      0x00\n      keccak256\n        /* \"contracts/BaseContract.sol\":12958:12981  stklar[_stkAdres].durum */\n      0x00\n      add\n      0x00\n        /* \"contracts/BaseContract.sol\":12958:12988  stklar[_stkAdres].durum = true */\n      0x0100\n      exp\n      dup2\n      sload\n      dup2\n      0xff\n      mul\n      not\n      and\n      swap1\n      dup4\n      iszero\n      iszero\n      mul\n      or\n      swap1\n      sstore\n      pop\n        /* \"contracts/BaseContract.sol\":13024:13029  _isim */\n      dup2\n        /* \"contracts/BaseContract.sol\":12999:13005  stklar */\n      0x09\n        /* \"contracts/BaseContract.sol\":12999:13016  stklar[_stkAdres] */\n      0x00\n        /* \"contracts/BaseContract.sol\":13006:13015  _stkAdres */\n      dup6\n        /* \"contracts/BaseContract.sol\":12999:13016  stklar[_stkAdres] */\n      0xffffffffffffffffffffffffffffffffffffffff\n      and\n      0xffffffffffffffffffffffffffffffffffffffff\n      and\n      dup2\n      mstore\n      0x20\n      add\n      swap1\n      dup2\n      mstore\n      0x20\n      add\n      0x00\n      keccak256\n        /* \"contracts/BaseContract.sol\":12999:13021  stklar[_stkAdres].isim */\n      0x01\n      add\n        /* \"contracts/BaseContract.sol\":12999:13029  stklar[_stkAdres].isim = _isim */\n      swap1\n      dup1\n      mload\n      swap1\n      0x20\n      add\n      swap1\n      tag_400\n      swap3\n      swap2\n      swap1\n      tag_288\n      jump\t// in\n    tag_400:\n      pop\n        /* \"contracts/BaseContract.sol\":13065:13070  _ulke */\n      dup1\n        /* \"contracts/BaseContract.sol\":13040:13046  stklar */\n      0x09\n        /* \"contracts/BaseContract.sol\":13040:13057  stklar[_stkAdres] */\n      0x00\n        /* \"contracts/BaseContract.sol\":13047:13056  _stkAdres */\n      dup6\n        /* \"contracts/BaseContract.sol\":13040:13057  stklar[_stkAdres] */\n      0xffffffffffffffffffffffffffffffffffffffff\n      and\n      0xffffffffffffffffffffffffffffffffffffffff\n      and\n      dup2\n      mstore\n      0x20\n      add\n      swap1\n      dup2\n      mstore\n      0x20\n      add\n      0x00\n      keccak256\n        /* \"contracts/BaseContract.sol\":13040:13062  stklar[_stkAdres].ulke */\n      0x02\n      add\n      0x00\n        /* \"contracts/BaseContract.sol\":13040:13070  stklar[_stkAdres].ulke = _ulke */\n      0x0100\n      exp\n      dup2\n      sload\n      dup2\n      0xff\n      mul\n      not\n      and\n      swap1\n      dup4\n      0xff\n      and\n      mul\n      or\n      swap1\n      sstore\n      pop\n        /* \"contracts/BaseContract.sol\":12762:13080  function guncelleSTK(address _stkAdres, string memory _isim, uint8 _ulke)\r... */\n      pop\n      pop\n      pop\n      jump\t// out\n        /* \"contracts/BaseContract.sol\":5203:5240  mapping(address => STK) public stklar */\n    tag_168:\n      mstore(0x20, 0x09)\n      dup1\n      0x00\n      mstore\n      keccak256(0x00, 0x40)\n      0x00\n      swap2\n      pop\n      swap1\n      pop\n      dup1\n      0x00\n      add\n      0x00\n      swap1\n      sload\n      swap1\n      0x0100\n      exp\n      swap1\n      div\n      0xff\n      and\n      swap1\n      dup1\n      0x01\n      add\n      dup1\n      sload\n      tag_401\n      swap1\n      tag_310\n      jump\t// in\n    tag_401:\n      dup1\n      0x1f\n      add\n      0x20\n      dup1\n      swap2\n      div\n      mul\n      0x20\n      add\n      mload(0x40)\n      swap1\n      dup2\n      add\n      0x40\n      mstore\n      dup1\n      swap3\n      swap2\n      swap1\n      dup2\n      dup2\n      mstore\n      0x20\n      add\n      dup3\n      dup1\n      sload\n      tag_402\n      swap1\n      tag_310\n      jump\t// in\n    tag_402:\n      dup1\n      iszero\n      tag_403\n      jumpi\n      dup1\n      0x1f\n      lt\n      tag_404\n      jumpi\n      0x0100\n      dup1\n      dup4\n      sload\n      div\n      mul\n      dup4\n      mstore\n      swap2\n      0x20\n      add\n      swap2\n      jump(tag_403)\n    tag_404:\n      dup3\n      add\n      swap2\n      swap1\n      0x00\n      mstore\n      keccak256(0x00, 0x20)\n      swap1\n    tag_405:\n      dup2\n      sload\n      dup2\n      mstore\n      swap1\n      0x01\n      add\n      swap1\n      0x20\n      add\n      dup1\n      dup4\n      gt\n      tag_405\n      jumpi\n      dup3\n      swap1\n      sub\n      0x1f\n      and\n      dup3\n      add\n      swap2\n    tag_403:\n      pop\n      pop\n      pop\n      pop\n      pop\n      swap1\n      dup1\n      0x02\n      add\n      0x00\n      swap1\n      sload\n      swap1\n      0x0100\n      exp\n      swap1\n      div\n      0xff\n      and\n      swap1\n      pop\n      dup4\n      jump\t// out\n        /* \"contracts/BaseContract.sol\":6464:6683  function silUniversite(address _universiteAdres) public {\r... */\n    tag_172:\n        /* \"contracts/BaseContract.sol\":6539:6569  isUniversite(_universiteAdres) */\n      tag_407\n        /* \"contracts/BaseContract.sol\":6552:6568  _universiteAdres */\n      dup2\n        /* \"contracts/BaseContract.sol\":6539:6551  isUniversite */\n      tag_262\n        /* \"contracts/BaseContract.sol\":6539:6569  isUniversite(_universiteAdres) */\n      jump\t// in\n    tag_407:\n        /* \"contracts/BaseContract.sol\":6531:6620  require(isUniversite(_universiteAdres),\r... */\n      tag_408\n      jumpi\n      mload(0x40)\n      0x08c379a000000000000000000000000000000000000000000000000000000000\n      dup2\n      mstore\n      0x04\n      add\n      tag_409\n      swap1\n      tag_286\n      jump\t// in\n    tag_409:\n      mload(0x40)\n      dup1\n      swap2\n      sub\n      swap1\n      revert\n    tag_408:\n        /* \"contracts/BaseContract.sol\":6640:6653  universiteler */\n      0x04\n        /* \"contracts/BaseContract.sol\":6640:6671  universiteler[_universiteAdres] */\n      0x00\n        /* \"contracts/BaseContract.sol\":6654:6670  _universiteAdres */\n      dup3\n        /* \"contracts/BaseContract.sol\":6640:6671  universiteler[_universiteAdres] */\n      0xffffffffffffffffffffffffffffffffffffffff\n      and\n      0xffffffffffffffffffffffffffffffffffffffff\n      and\n      dup2\n      mstore\n      0x20\n      add\n      swap1\n      dup2\n      mstore\n      0x20\n      add\n      0x00\n      keccak256\n      0x00\n        /* \"contracts/BaseContract.sol\":6633:6671  delete universiteler[_universiteAdres] */\n      dup1\n      dup3\n      add\n      exp(0x0100, 0x00)\n      dup2\n      sload\n      swap1\n      0xff\n      mul\n      not\n      and\n      swap1\n      sstore\n      0x01\n      dup3\n      add\n      0x00\n      tag_410\n      swap2\n      swap1\n      tag_321\n      jump\t// in\n    tag_410:\n      0x02\n      dup3\n      add\n      exp(0x0100, 0x00)\n      dup2\n      sload\n      swap1\n      0xff\n      mul\n      not\n      and\n      swap1\n      sstore\n      pop\n      pop\n        /* \"contracts/BaseContract.sol\":6464:6683  function silUniversite(address _universiteAdres) public {\r... */\n      pop\n      jump\t// out\n        /* \"contracts/BaseContract.sol\":13285:13693  function ekleSertifikaMerkezi(address _smAdres, string memory _isim, uint8 _ulke)\r... */\n    tag_175:\n        /* \"contracts/BaseContract.sol\":13399:13427  isSertifikaMerkezi(_smAdres) */\n      tag_412\n        /* \"contracts/BaseContract.sol\":13418:13426  _smAdres */\n      dup4\n        /* \"contracts/BaseContract.sol\":13399:13417  isSertifikaMerkezi */\n      tag_250\n        /* \"contracts/BaseContract.sol\":13399:13427  isSertifikaMerkezi(_smAdres) */\n      jump\t// in\n    tag_412:\n        /* \"contracts/BaseContract.sol\":13398:13427  !isSertifikaMerkezi(_smAdres) */\n      iszero\n        /* \"contracts/BaseContract.sol\":13390:13485  require(!isSertifikaMerkezi(_smAdres),\r... */\n      tag_413\n      jumpi\n      mload(0x40)\n      0x08c379a000000000000000000000000000000000000000000000000000000000\n      dup2\n      mstore\n      0x04\n      add\n      tag_414\n      swap1\n      tag_415\n      jump\t// in\n    tag_414:\n      mload(0x40)\n      dup1\n      swap2\n      sub\n      swap1\n      revert\n    tag_413:\n        /* \"contracts/BaseContract.sol\":13538:13542  true */\n      0x01\n        /* \"contracts/BaseContract.sol\":13500:13519  sertifikaMerkezleri */\n      0x0a\n        /* \"contracts/BaseContract.sol\":13500:13529  sertifikaMerkezleri[_smAdres] */\n      0x00\n        /* \"contracts/BaseContract.sol\":13520:13528  _smAdres */\n      dup6\n        /* \"contracts/BaseContract.sol\":13500:13529  sertifikaMerkezleri[_smAdres] */\n      0xffffffffffffffffffffffffffffffffffffffff\n      and\n      0xffffffffffffffffffffffffffffffffffffffff\n      and\n      dup2\n      mstore\n      0x20\n      add\n      swap1\n      dup2\n      mstore\n      0x20\n      add\n      0x00\n      keccak256\n        /* \"contracts/BaseContract.sol\":13500:13535  sertifikaMerkezleri[_smAdres].durum */\n      0x00\n      add\n      0x00\n        /* \"contracts/BaseContract.sol\":13500:13542  sertifikaMerkezleri[_smAdres].durum = true */\n      0x0100\n      exp\n      dup2\n      sload\n      dup2\n      0xff\n      mul\n      not\n      and\n      swap1\n      dup4\n      iszero\n      iszero\n      mul\n      or\n      swap1\n      sstore\n      pop\n        /* \"contracts/BaseContract.sol\":13590:13595  _isim */\n      dup2\n        /* \"contracts/BaseContract.sol\":13553:13572  sertifikaMerkezleri */\n      0x0a\n        /* \"contracts/BaseContract.sol\":13553:13582  sertifikaMerkezleri[_smAdres] */\n      0x00\n        /* \"contracts/BaseContract.sol\":13573:13581  _smAdres */\n      dup6\n        /* \"contracts/BaseContract.sol\":13553:13582  sertifikaMerkezleri[_smAdres] */\n      0xffffffffffffffffffffffffffffffffffffffff\n      and\n      0xffffffffffffffffffffffffffffffffffffffff\n      and\n      dup2\n      mstore\n      0x20\n      add\n      swap1\n      dup2\n      mstore\n      0x20\n      add\n      0x00\n      keccak256\n        /* \"contracts/BaseContract.sol\":13553:13587  sertifikaMerkezleri[_smAdres].isim */\n      0x01\n      add\n        /* \"contracts/BaseContract.sol\":13553:13595  sertifikaMerkezleri[_smAdres].isim = _isim */\n      swap1\n      dup1\n      mload\n      swap1\n      0x20\n      add\n      swap1\n      tag_416\n      swap3\n      swap2\n      swap1\n      tag_288\n      jump\t// in\n    tag_416:\n      pop\n        /* \"contracts/BaseContract.sol\":13643:13648  _ulke */\n      dup1\n        /* \"contracts/BaseContract.sol\":13606:13625  sertifikaMerkezleri */\n      0x0a\n        /* \"contracts/BaseContract.sol\":13606:13635  sertifikaMerkezleri[_smAdres] */\n      0x00\n        /* \"contracts/BaseContract.sol\":13626:13634  _smAdres */\n      dup6\n        /* \"contracts/BaseContract.sol\":13606:13635  sertifikaMerkezleri[_smAdres] */\n      0xffffffffffffffffffffffffffffffffffffffff\n      and\n      0xffffffffffffffffffffffffffffffffffffffff\n      and\n      dup2\n      mstore\n      0x20\n      add\n      swap1\n      dup2\n      mstore\n      0x20\n      add\n      0x00\n      keccak256\n        /* \"contracts/BaseContract.sol\":13606:13640  sertifikaMerkezleri[_smAdres].ulke */\n      0x02\n      add\n      0x00\n        /* \"contracts/BaseContract.sol\":13606:13648  sertifikaMerkezleri[_smAdres].ulke = _ulke */\n      0x0100\n      exp\n      dup2\n      sload\n      dup2\n      0xff\n      mul\n      not\n      and\n      swap1\n      dup4\n      0xff\n      and\n      mul\n      or\n      swap1\n      sstore\n      pop\n        /* \"contracts/BaseContract.sol\":13659:13670  smAdresleri */\n      0x12\n        /* \"contracts/BaseContract.sol\":13676:13684  _smAdres */\n      dup4\n        /* \"contracts/BaseContract.sol\":13659:13685  smAdresleri.push(_smAdres) */\n      swap1\n      dup1\n      0x01\n      dup2\n      sload\n      add\n      dup1\n      dup3\n      sstore\n      dup1\n      swap2\n      pop\n      pop\n      0x01\n      swap1\n      sub\n      swap1\n      0x00\n      mstore\n      keccak256(0x00, 0x20)\n      add\n      0x00\n      swap1\n      swap2\n      swap1\n      swap2\n      swap1\n      swap2\n      0x0100\n      exp\n      dup2\n      sload\n      dup2\n      0xffffffffffffffffffffffffffffffffffffffff\n      mul\n      not\n      and\n      swap1\n      dup4\n      0xffffffffffffffffffffffffffffffffffffffff\n      and\n      mul\n      or\n      swap1\n      sstore\n      pop\n        /* \"contracts/BaseContract.sol\":13285:13693  function ekleSertifikaMerkezi(address _smAdres, string memory _isim, uint8 _ulke)\r... */\n      pop\n      pop\n      pop\n      jump\t// out\n        /* \"contracts/BaseContract.sol\":7786:8099  function getStkListesi() public sadeceCB view returns(STK[] memory){\r... */\n    tag_177:\n        /* \"contracts/BaseContract.sol\":7840:7852  STK[] memory */\n      0x60\n        /* \"contracts/BaseContract.sol\":2521:2523  CB */\n      0x02\n      0x00\n      swap1\n      sload\n      swap1\n      0x0100\n      exp\n      swap1\n      div\n      0xffffffffffffffffffffffffffffffffffffffff\n      and\n        /* \"contracts/BaseContract.sol\":2507:2523  msg.sender == CB */\n      0xffffffffffffffffffffffffffffffffffffffff\n      and\n        /* \"contracts/BaseContract.sol\":2507:2517  msg.sender */\n      caller\n        /* \"contracts/BaseContract.sol\":2507:2523  msg.sender == CB */\n      0xffffffffffffffffffffffffffffffffffffffff\n      and\n      eq\n        /* \"contracts/BaseContract.sol\":2499:2581  require(msg.sender == CB,\r... */\n      tag_419\n      jumpi\n      mload(0x40)\n      0x08c379a000000000000000000000000000000000000000000000000000000000\n      dup2\n      mstore\n      0x04\n      add\n      tag_420\n      swap1\n      tag_421\n      jump\t// in\n    tag_420:\n      mload(0x40)\n      dup1\n      swap2\n      sub\n      swap1\n      revert\n    tag_419:\n        /* \"contracts/BaseContract.sol\":7872:7892  STK [] memory result */\n      0x00\n        /* \"contracts/BaseContract.sol\":7905:7917  stkAdresleri */\n      0x11\n        /* \"contracts/BaseContract.sol\":7905:7924  stkAdresleri.length */\n      dup1\n      sload\n      swap1\n      pop\n        /* \"contracts/BaseContract.sol\":7895:7925  new STK[](stkAdresleri.length) */\n      0xffffffffffffffff\n      dup2\n      gt\n      iszero\n      tag_423\n      jumpi\n      tag_424\n      tag_372\n      jump\t// in\n    tag_424:\n    tag_423:\n      mload(0x40)\n      swap1\n      dup1\n      dup3\n      mstore\n      dup1\n      0x20\n      mul\n      0x20\n      add\n      dup3\n      add\n      0x40\n      mstore\n      dup1\n      iszero\n      tag_425\n      jumpi\n      dup2\n      0x20\n      add\n    tag_426:\n      tag_427\n      tag_428\n      jump\t// in\n    tag_427:\n      dup2\n      mstore\n      0x20\n      add\n      swap1\n      0x01\n      swap1\n      sub\n      swap1\n      dup2\n      tag_426\n      jumpi\n      swap1\n      pop\n    tag_425:\n      pop\n        /* \"contracts/BaseContract.sol\":7872:7925  STK [] memory result = new STK[](stkAdresleri.length) */\n      swap1\n      pop\n        /* \"contracts/BaseContract.sol\":7936:7946  uint index */\n      0x00\n        /* \"contracts/BaseContract.sol\":7963:7969  uint i */\n      dup1\n        /* \"contracts/BaseContract.sol\":7959:8068  for(uint i = 0; i< stkAdresleri.length; i++){\r... */\n    tag_429:\n        /* \"contracts/BaseContract.sol\":7978:7990  stkAdresleri */\n      0x11\n        /* \"contracts/BaseContract.sol\":7978:7997  stkAdresleri.length */\n      dup1\n      sload\n      swap1\n      pop\n        /* \"contracts/BaseContract.sol\":7975:7976  i */\n      dup2\n        /* \"contracts/BaseContract.sol\":7975:7997  i< stkAdresleri.length */\n      lt\n        /* \"contracts/BaseContract.sol\":7959:8068  for(uint i = 0; i< stkAdresleri.length; i++){\r... */\n      iszero\n      tag_430\n      jumpi\n        /* \"contracts/BaseContract.sol\":8033:8039  stklar */\n      0x09\n        /* \"contracts/BaseContract.sol\":8033:8056  stklar[stkAdresleri[i]] */\n      0x00\n        /* \"contracts/BaseContract.sol\":8040:8052  stkAdresleri */\n      0x11\n        /* \"contracts/BaseContract.sol\":8053:8054  i */\n      dup4\n        /* \"contracts/BaseContract.sol\":8040:8055  stkAdresleri[i] */\n      dup2\n      sload\n      dup2\n      lt\n      tag_432\n      jumpi\n      tag_433\n      tag_382\n      jump\t// in\n    tag_433:\n    tag_432:\n      swap1\n      0x00\n      mstore\n      keccak256(0x00, 0x20)\n      add\n      0x00\n      swap1\n      sload\n      swap1\n      0x0100\n      exp\n      swap1\n      div\n      0xffffffffffffffffffffffffffffffffffffffff\n      and\n        /* \"contracts/BaseContract.sol\":8033:8056  stklar[stkAdresleri[i]] */\n      0xffffffffffffffffffffffffffffffffffffffff\n      and\n      0xffffffffffffffffffffffffffffffffffffffff\n      and\n      dup2\n      mstore\n      0x20\n      add\n      swap1\n      dup2\n      mstore\n      0x20\n      add\n      0x00\n      keccak256\n        /* \"contracts/BaseContract.sol\":8017:8056  result[index++]=stklar[stkAdresleri[i]] */\n      mload(0x40)\n      dup1\n      0x60\n      add\n      0x40\n      mstore\n      swap1\n      dup2\n      0x00\n      dup3\n      add\n      0x00\n      swap1\n      sload\n      swap1\n      0x0100\n      exp\n      swap1\n      div\n      0xff\n      and\n      iszero\n      iszero\n      iszero\n      iszero\n      dup2\n      mstore\n      0x20\n      add\n      0x01\n      dup3\n      add\n      dup1\n      sload\n      tag_435\n      swap1\n      tag_310\n      jump\t// in\n    tag_435:\n      dup1\n      0x1f\n      add\n      0x20\n      dup1\n      swap2\n      div\n      mul\n      0x20\n      add\n      mload(0x40)\n      swap1\n      dup2\n      add\n      0x40\n      mstore\n      dup1\n      swap3\n      swap2\n      swap1\n      dup2\n      dup2\n      mstore\n      0x20\n      add\n      dup3\n      dup1\n      sload\n      tag_436\n      swap1\n      tag_310\n      jump\t// in\n    tag_436:\n      dup1\n      iszero\n      tag_437\n      jumpi\n      dup1\n      0x1f\n      lt\n      tag_438\n      jumpi\n      0x0100\n      dup1\n      dup4\n      sload\n      div\n      mul\n      dup4\n      mstore\n      swap2\n      0x20\n      add\n      swap2\n      jump(tag_437)\n    tag_438:\n      dup3\n      add\n      swap2\n      swap1\n      0x00\n      mstore\n      keccak256(0x00, 0x20)\n      swap1\n    tag_439:\n      dup2\n      sload\n      dup2\n      mstore\n      swap1\n      0x01\n      add\n      swap1\n      0x20\n      add\n      dup1\n      dup4\n      gt\n      tag_439\n      jumpi\n      dup3\n      swap1\n      sub\n      0x1f\n      and\n      dup3\n      add\n      swap2\n    tag_437:\n      pop\n      pop\n      pop\n      pop\n      pop\n      dup2\n      mstore\n      0x20\n      add\n      0x02\n      dup3\n      add\n      0x00\n      swap1\n      sload\n      swap1\n      0x0100\n      exp\n      swap1\n      div\n      0xff\n      and\n      0xff\n      and\n      0xff\n      and\n      dup2\n      mstore\n      pop\n      pop\n        /* \"contracts/BaseContract.sol\":8017:8023  result */\n      dup4\n        /* \"contracts/BaseContract.sol\":8024:8031  index++ */\n      dup4\n      dup1\n      tag_440\n      swap1\n      tag_390\n      jump\t// in\n    tag_440:\n      swap5\n      pop\n        /* \"contracts/BaseContract.sol\":8017:8032  result[index++] */\n      dup2\n      mload\n      dup2\n      lt\n      tag_441\n      jumpi\n      tag_442\n      tag_382\n      jump\t// in\n    tag_442:\n    tag_441:\n      0x20\n      mul\n      0x20\n      add\n      add\n        /* \"contracts/BaseContract.sol\":8017:8056  result[index++]=stklar[stkAdresleri[i]] */\n      dup2\n      swap1\n      mstore\n      pop\n        /* \"contracts/BaseContract.sol\":7999:8002  i++ */\n      dup1\n      dup1\n      tag_443\n      swap1\n      tag_390\n      jump\t// in\n    tag_443:\n      swap2\n      pop\n      pop\n        /* \"contracts/BaseContract.sol\":7959:8068  for(uint i = 0; i< stkAdresleri.length; i++){\r... */\n      jump(tag_429)\n    tag_430:\n      pop\n        /* \"contracts/BaseContract.sol\":8085:8091  result */\n      dup2\n        /* \"contracts/BaseContract.sol\":8078:8091  return result */\n      swap3\n      pop\n      pop\n      pop\n        /* \"contracts/BaseContract.sol\":7786:8099  function getStkListesi() public sadeceCB view returns(STK[] memory){\r... */\n      swap1\n      jump\t// out\n        /* \"contracts/BaseContract.sol\":5323:5366  mapping(uint32 => YabanciDil) public diller */\n    tag_183:\n      mstore(0x20, 0x0b)\n      dup1\n      0x00\n      mstore\n      keccak256(0x00, 0x40)\n      0x00\n      swap2\n      pop\n      swap1\n      pop\n      dup1\n      0x00\n      add\n      0x00\n      swap1\n      sload\n      swap1\n      0x0100\n      exp\n      swap1\n      div\n      0xffffffff\n      and\n      swap1\n      dup1\n      0x01\n      add\n      dup1\n      sload\n      tag_444\n      swap1\n      tag_310\n      jump\t// in\n    tag_444:\n      dup1\n      0x1f\n      add\n      0x20\n      dup1\n      swap2\n      div\n      mul\n      0x20\n      add\n      mload(0x40)\n      swap1\n      dup2\n      add\n      0x40\n      mstore\n      dup1\n      swap3\n      swap2\n      swap1\n      dup2\n      dup2\n      mstore\n      0x20\n      add\n      dup3\n      dup1\n      sload\n      tag_445\n      swap1\n      tag_310\n      jump\t// in\n    tag_445:\n      dup1\n      iszero\n      tag_446\n      jumpi\n      dup1\n      0x1f\n      lt\n      tag_447\n      jumpi\n      0x0100\n      dup1\n      dup4\n      sload\n      div\n      mul\n      dup4\n      mstore\n      swap2\n      0x20\n      add\n      swap2\n      jump(tag_446)\n    tag_447:\n      dup3\n      add\n      swap2\n      swap1\n      0x00\n      mstore\n      keccak256(0x00, 0x20)\n      swap1\n    tag_448:\n      dup2\n      sload\n      dup2\n      mstore\n      swap1\n      0x01\n      add\n      swap1\n      0x20\n      add\n      dup1\n      dup4\n      gt\n      tag_448\n      jumpi\n      dup3\n      swap1\n      sub\n      0x1f\n      and\n      dup3\n      add\n      swap2\n    tag_446:\n      pop\n      pop\n      pop\n      pop\n      pop\n      swap1\n      pop\n      dup3\n      jump\t// out\n        /* \"contracts/BaseContract.sol\":9865:10255  function guncelleFirma(address _firmaAdres, string memory _isim, uint _vergiNo, uint8 _ulke)\r... */\n    tag_189:\n        /* \"contracts/BaseContract.sol\":9989:10009  isFirma(_firmaAdres) */\n      tag_450\n        /* \"contracts/BaseContract.sol\":9997:10008  _firmaAdres */\n      dup5\n        /* \"contracts/BaseContract.sol\":9989:9996  isFirma */\n      tag_120\n        /* \"contracts/BaseContract.sol\":9989:10009  isFirma(_firmaAdres) */\n      jump\t// in\n    tag_450:\n        /* \"contracts/BaseContract.sol\":9981:10055  require(isFirma(_firmaAdres),\r... */\n      tag_451\n      jumpi\n      mload(0x40)\n      0x08c379a000000000000000000000000000000000000000000000000000000000\n      dup2\n      mstore\n      0x04\n      add\n      tag_452\n      swap1\n      tag_319\n      jump\t// in\n    tag_452:\n      mload(0x40)\n      dup1\n      swap2\n      sub\n      swap1\n      revert\n    tag_451:\n        /* \"contracts/BaseContract.sol\":10098:10102  true */\n      0x01\n        /* \"contracts/BaseContract.sol\":10068:10076  firmalar */\n      0x06\n        /* \"contracts/BaseContract.sol\":10068:10089  firmalar[_firmaAdres] */\n      0x00\n        /* \"contracts/BaseContract.sol\":10077:10088  _firmaAdres */\n      dup7\n        /* \"contracts/BaseContract.sol\":10068:10089  firmalar[_firmaAdres] */\n      0xffffffffffffffffffffffffffffffffffffffff\n      and\n      0xffffffffffffffffffffffffffffffffffffffff\n      and\n      dup2\n      mstore\n      0x20\n      add\n      swap1\n      dup2\n      mstore\n      0x20\n      add\n      0x00\n      keccak256\n        /* \"contracts/BaseContract.sol\":10068:10095  firmalar[_firmaAdres].durum */\n      0x00\n      add\n      0x00\n        /* \"contracts/BaseContract.sol\":10068:10102  firmalar[_firmaAdres].durum = true */\n      0x0100\n      exp\n      dup2\n      sload\n      dup2\n      0xff\n      mul\n      not\n      and\n      swap1\n      dup4\n      iszero\n      iszero\n      mul\n      or\n      swap1\n      sstore\n      pop\n        /* \"contracts/BaseContract.sol\":10142:10147  _isim */\n      dup3\n        /* \"contracts/BaseContract.sol\":10113:10121  firmalar */\n      0x06\n        /* \"contracts/BaseContract.sol\":10113:10134  firmalar[_firmaAdres] */\n      0x00\n        /* \"contracts/BaseContract.sol\":10122:10133  _firmaAdres */\n      dup7\n        /* \"contracts/BaseContract.sol\":10113:10134  firmalar[_firmaAdres] */\n      0xffffffffffffffffffffffffffffffffffffffff\n      and\n      0xffffffffffffffffffffffffffffffffffffffff\n      and\n      dup2\n      mstore\n      0x20\n      add\n      swap1\n      dup2\n      mstore\n      0x20\n      add\n      0x00\n      keccak256\n        /* \"contracts/BaseContract.sol\":10113:10139  firmalar[_firmaAdres].isim */\n      0x02\n      add\n        /* \"contracts/BaseContract.sol\":10113:10147  firmalar[_firmaAdres].isim = _isim */\n      swap1\n      dup1\n      mload\n      swap1\n      0x20\n      add\n      swap1\n      tag_453\n      swap3\n      swap2\n      swap1\n      tag_288\n      jump\t// in\n    tag_453:\n      pop\n        /* \"contracts/BaseContract.sol\":10187:10192  _ulke */\n      dup1\n        /* \"contracts/BaseContract.sol\":10158:10166  firmalar */\n      0x06\n        /* \"contracts/BaseContract.sol\":10158:10179  firmalar[_firmaAdres] */\n      0x00\n        /* \"contracts/BaseContract.sol\":10167:10178  _firmaAdres */\n      dup7\n        /* \"contracts/BaseContract.sol\":10158:10179  firmalar[_firmaAdres] */\n      0xffffffffffffffffffffffffffffffffffffffff\n      and\n      0xffffffffffffffffffffffffffffffffffffffff\n      and\n      dup2\n      mstore\n      0x20\n      add\n      swap1\n      dup2\n      mstore\n      0x20\n      add\n      0x00\n      keccak256\n        /* \"contracts/BaseContract.sol\":10158:10184  firmalar[_firmaAdres].ulke */\n      0x00\n      add\n      0x01\n        /* \"contracts/BaseContract.sol\":10158:10192  firmalar[_firmaAdres].ulke = _ulke */\n      0x0100\n      exp\n      dup2\n      sload\n      dup2\n      0xff\n      mul\n      not\n      and\n      swap1\n      dup4\n      0xff\n      and\n      mul\n      or\n      swap1\n      sstore\n      pop\n        /* \"contracts/BaseContract.sol\":10235:10243  _vergiNo */\n      dup2\n        /* \"contracts/BaseContract.sol\":10203:10211  firmalar */\n      0x06\n        /* \"contracts/BaseContract.sol\":10203:10224  firmalar[_firmaAdres] */\n      0x00\n        /* \"contracts/BaseContract.sol\":10212:10223  _firmaAdres */\n      dup7\n        /* \"contracts/BaseContract.sol\":10203:10224  firmalar[_firmaAdres] */\n      0xffffffffffffffffffffffffffffffffffffffff\n      and\n      0xffffffffffffffffffffffffffffffffffffffff\n      and\n      dup2\n      mstore\n      0x20\n      add\n      swap1\n      dup2\n      mstore\n      0x20\n      add\n      0x00\n      keccak256\n        /* \"contracts/BaseContract.sol\":10203:10232  firmalar[_firmaAdres].vergiNo */\n      0x01\n      add\n        /* \"contracts/BaseContract.sol\":10203:10243  firmalar[_firmaAdres].vergiNo = _vergiNo */\n      dup2\n      swap1\n      sstore\n      pop\n        /* \"contracts/BaseContract.sol\":9865:10255  function guncelleFirma(address _firmaAdres, string memory _isim, uint _vergiNo, uint8 _ulke)\r... */\n      pop\n      pop\n      pop\n      pop\n      jump\t// out\n        /* \"contracts/BaseContract.sol\":12202:12392  function silKurs(address _kursAdres)\r... */\n    tag_192:\n        /* \"contracts/BaseContract.sol\":12270:12288  isKurs(_kursAdres) */\n      tag_455\n        /* \"contracts/BaseContract.sol\":12277:12287  _kursAdres */\n      dup2\n        /* \"contracts/BaseContract.sol\":12270:12276  isKurs */\n      tag_79\n        /* \"contracts/BaseContract.sol\":12270:12288  isKurs(_kursAdres) */\n      jump\t// in\n    tag_455:\n        /* \"contracts/BaseContract.sol\":12262:12341  require(isKurs(_kursAdres),\r... */\n      tag_456\n      jumpi\n      mload(0x40)\n      0x08c379a000000000000000000000000000000000000000000000000000000000\n      dup2\n      mstore\n      0x04\n      add\n      tag_457\n      swap1\n      tag_458\n      jump\t// in\n    tag_457:\n      mload(0x40)\n      dup1\n      swap2\n      sub\n      swap1\n      revert\n    tag_456:\n        /* \"contracts/BaseContract.sol\":12361:12368  kurslar */\n      0x07\n        /* \"contracts/BaseContract.sol\":12361:12380  kurslar[_kursAdres] */\n      0x00\n        /* \"contracts/BaseContract.sol\":12369:12379  _kursAdres */\n      dup3\n        /* \"contracts/BaseContract.sol\":12361:12380  kurslar[_kursAdres] */\n      0xffffffffffffffffffffffffffffffffffffffff\n      and\n      0xffffffffffffffffffffffffffffffffffffffff\n      and\n      dup2\n      mstore\n      0x20\n      add\n      swap1\n      dup2\n      mstore\n      0x20\n      add\n      0x00\n      keccak256\n      0x00\n        /* \"contracts/BaseContract.sol\":12354:12380  delete kurslar[_kursAdres] */\n      dup1\n      dup3\n      add\n      exp(0x0100, 0x00)\n      dup2\n      sload\n      swap1\n      0xff\n      mul\n      not\n      and\n      swap1\n      sstore\n      0x01\n      dup3\n      add\n      0x00\n      tag_459\n      swap2\n      swap1\n      tag_321\n      jump\t// in\n    tag_459:\n      0x02\n      dup3\n      add\n      exp(0x0100, 0x00)\n      dup2\n      sload\n      swap1\n      0xff\n      mul\n      not\n      and\n      swap1\n      sstore\n      pop\n      pop\n        /* \"contracts/BaseContract.sol\":12202:12392  function silKurs(address _kursAdres)\r... */\n      pop\n      jump\t// out\n        /* \"contracts/BaseContract.sol\":5462:5493  address[] public firmaAdresleri */\n    tag_195:\n      0x0e\n      dup2\n      dup2\n      sload\n      dup2\n      lt\n      tag_460\n      jumpi\n      0x00\n      dup1\n      revert\n    tag_460:\n      swap1\n      0x00\n      mstore\n      keccak256(0x00, 0x20)\n      add\n      0x00\n      swap2\n      pop\n      sload\n      swap1\n      0x0100\n      exp\n      swap1\n      div\n      0xffffffffffffffffffffffffffffffffffffffff\n      and\n      dup2\n      jump\t// out\n        /* \"contracts/BaseContract.sol\":13701:14075  function guncelleSertifikaMerkezi(address _smAdres, string memory _isim, uint8 _ulke)\r... */\n    tag_199:\n        /* \"contracts/BaseContract.sol\":13818:13846  isSertifikaMerkezi(_smAdres) */\n      tag_463\n        /* \"contracts/BaseContract.sol\":13837:13845  _smAdres */\n      dup4\n        /* \"contracts/BaseContract.sol\":13818:13836  isSertifikaMerkezi */\n      tag_250\n        /* \"contracts/BaseContract.sol\":13818:13846  isSertifikaMerkezi(_smAdres) */\n      jump\t// in\n    tag_463:\n        /* \"contracts/BaseContract.sol\":13810:13904  require(isSertifikaMerkezi(_smAdres),\r... */\n      tag_464\n      jumpi\n      mload(0x40)\n      0x08c379a000000000000000000000000000000000000000000000000000000000\n      dup2\n      mstore\n      0x04\n      add\n      tag_465\n      swap1\n      tag_358\n      jump\t// in\n    tag_465:\n      mload(0x40)\n      dup1\n      swap2\n      sub\n      swap1\n      revert\n    tag_464:\n        /* \"contracts/BaseContract.sol\":13955:13959  true */\n      0x01\n        /* \"contracts/BaseContract.sol\":13917:13936  sertifikaMerkezleri */\n      0x0a\n        /* \"contracts/BaseContract.sol\":13917:13946  sertifikaMerkezleri[_smAdres] */\n      0x00\n        /* \"contracts/BaseContract.sol\":13937:13945  _smAdres */\n      dup6\n        /* \"contracts/BaseContract.sol\":13917:13946  sertifikaMerkezleri[_smAdres] */\n      0xffffffffffffffffffffffffffffffffffffffff\n      and\n      0xffffffffffffffffffffffffffffffffffffffff\n      and\n      dup2\n      mstore\n      0x20\n      add\n      swap1\n      dup2\n      mstore\n      0x20\n      add\n      0x00\n      keccak256\n        /* \"contracts/BaseContract.sol\":13917:13952  sertifikaMerkezleri[_smAdres].durum */\n      0x00\n      add\n      0x00\n        /* \"contracts/BaseContract.sol\":13917:13959  sertifikaMerkezleri[_smAdres].durum = true */\n      0x0100\n      exp\n      dup2\n      sload\n      dup2\n      0xff\n      mul\n      not\n      and\n      swap1\n      dup4\n      iszero\n      iszero\n      mul\n      or\n      swap1\n      sstore\n      pop\n        /* \"contracts/BaseContract.sol\":14007:14012  _isim */\n      dup2\n        /* \"contracts/BaseContract.sol\":13970:13989  sertifikaMerkezleri */\n      0x0a\n        /* \"contracts/BaseContract.sol\":13970:13999  sertifikaMerkezleri[_smAdres] */\n      0x00\n        /* \"contracts/BaseContract.sol\":13990:13998  _smAdres */\n      dup6\n        /* \"contracts/BaseContract.sol\":13970:13999  sertifikaMerkezleri[_smAdres] */\n      0xffffffffffffffffffffffffffffffffffffffff\n      and\n      0xffffffffffffffffffffffffffffffffffffffff\n      and\n      dup2\n      mstore\n      0x20\n      add\n      swap1\n      dup2\n      mstore\n      0x20\n      add\n      0x00\n      keccak256\n        /* \"contracts/BaseContract.sol\":13970:14004  sertifikaMerkezleri[_smAdres].isim */\n      0x01\n      add\n        /* \"contracts/BaseContract.sol\":13970:14012  sertifikaMerkezleri[_smAdres].isim = _isim */\n      swap1\n      dup1\n      mload\n      swap1\n      0x20\n      add\n      swap1\n      tag_466\n      swap3\n      swap2\n      swap1\n      tag_288\n      jump\t// in\n    tag_466:\n      pop\n        /* \"contracts/BaseContract.sol\":14060:14065  _ulke */\n      dup1\n        /* \"contracts/BaseContract.sol\":14023:14042  sertifikaMerkezleri */\n      0x0a\n        /* \"contracts/BaseContract.sol\":14023:14052  sertifikaMerkezleri[_smAdres] */\n      0x00\n        /* \"contracts/BaseContract.sol\":14043:14051  _smAdres */\n      dup6\n        /* \"contracts/BaseContract.sol\":14023:14052  sertifikaMerkezleri[_smAdres] */\n      0xffffffffffffffffffffffffffffffffffffffff\n      and\n      0xffffffffffffffffffffffffffffffffffffffff\n      and\n      dup2\n      mstore\n      0x20\n      add\n      swap1\n      dup2\n      mstore\n      0x20\n      add\n      0x00\n      keccak256\n        /* \"contracts/BaseContract.sol\":14023:14057  sertifikaMerkezleri[_smAdres].ulke */\n      0x02\n      add\n      0x00\n        /* \"contracts/BaseContract.sol\":14023:14065  sertifikaMerkezleri[_smAdres].ulke = _ulke */\n      0x0100\n      exp\n      dup2\n      sload\n      dup2\n      0xff\n      mul\n      not\n      and\n      swap1\n      dup4\n      0xff\n      and\n      mul\n      or\n      swap1\n      sstore\n      pop\n        /* \"contracts/BaseContract.sol\":13701:14075  function guncelleSertifikaMerkezi(address _smAdres, string memory _isim, uint8 _ulke)\r... */\n      pop\n      pop\n      pop\n      jump\t// out\n        /* \"contracts/BaseContract.sol\":4147:4256  function isKisi(address _address) public view returns (bool){\r... */\n    tag_202:\n        /* \"contracts/BaseContract.sol\":4202:4206  bool */\n      0x00\n        /* \"contracts/BaseContract.sol\":4225:4232  kisiler */\n      0x03\n        /* \"contracts/BaseContract.sol\":4225:4242  kisiler[_address] */\n      0x00\n        /* \"contracts/BaseContract.sol\":4233:4241  _address */\n      dup4\n        /* \"contracts/BaseContract.sol\":4225:4242  kisiler[_address] */\n      0xffffffffffffffffffffffffffffffffffffffff\n      and\n      0xffffffffffffffffffffffffffffffffffffffff\n      and\n      dup2\n      mstore\n      0x20\n      add\n      swap1\n      dup2\n      mstore\n      0x20\n      add\n      0x00\n      keccak256\n        /* \"contracts/BaseContract.sol\":4225:4248  kisiler[_address].durum */\n      0x00\n      add\n      0x00\n      swap1\n      sload\n      swap1\n      0x0100\n      exp\n      swap1\n      div\n      0xff\n      and\n        /* \"contracts/BaseContract.sol\":4218:4248  return kisiler[_address].durum */\n      swap1\n      pop\n        /* \"contracts/BaseContract.sol\":4147:4256  function isKisi(address _address) public view returns (bool){\r... */\n      swap2\n      swap1\n      pop\n      jump\t// out\n        /* \"contracts/BaseContract.sol\":4989:5042  mapping(address => Akademisyen) public akademisyenler */\n    tag_206:\n      mstore(0x20, 0x05)\n      dup1\n      0x00\n      mstore\n      keccak256(0x00, 0x40)\n      0x00\n      swap2\n      pop\n      swap1\n      pop\n      dup1\n      0x00\n      add\n      0x00\n      swap1\n      sload\n      swap1\n      0x0100\n      exp\n      swap1\n      div\n      0xff\n      and\n      swap1\n      dup1\n      0x00\n      add\n      0x01\n      swap1\n      sload\n      swap1\n      0x0100\n      exp\n      swap1\n      div\n      0xffffffffffffffffffffffffffffffffffffffff\n      and\n      swap1\n      dup1\n      0x00\n      add\n      0x15\n      swap1\n      sload\n      swap1\n      0x0100\n      exp\n      swap1\n      div\n      0xffff\n      and\n      swap1\n      dup1\n      0x00\n      add\n      0x17\n      swap1\n      sload\n      swap1\n      0x0100\n      exp\n      swap1\n      div\n      0xff\n      and\n      swap1\n      dup1\n      0x01\n      add\n      dup1\n      sload\n      tag_468\n      swap1\n      tag_310\n      jump\t// in\n    tag_468:\n      dup1\n      0x1f\n      add\n      0x20\n      dup1\n      swap2\n      div\n      mul\n      0x20\n      add\n      mload(0x40)\n      swap1\n      dup2\n      add\n      0x40\n      mstore\n      dup1\n      swap3\n      swap2\n      swap1\n      dup2\n      dup2\n      mstore\n      0x20\n      add\n      dup3\n      dup1\n      sload\n      tag_469\n      swap1\n      tag_310\n      jump\t// in\n    tag_469:\n      dup1\n      iszero\n      tag_470\n      jumpi\n      dup1\n      0x1f\n      lt\n      tag_471\n      jumpi\n      0x0100\n      dup1\n      dup4\n      sload\n      div\n      mul\n      dup4\n      mstore\n      swap2\n      0x20\n      add\n      swap2\n      jump(tag_470)\n    tag_471:\n      dup3\n      add\n      swap2\n      swap1\n      0x00\n      mstore\n      keccak256(0x00, 0x20)\n      swap1\n    tag_472:\n      dup2\n      sload\n      dup2\n      mstore\n      swap1\n      0x01\n      add\n      swap1\n      0x20\n      add\n      dup1\n      dup4\n      gt\n      tag_472\n      jumpi\n      dup3\n      swap1\n      sub\n      0x1f\n      and\n      dup3\n      add\n      swap2\n    tag_470:\n      pop\n      pop\n      pop\n      pop\n      pop\n      swap1\n      dup1\n      0x02\n      add\n      dup1\n      sload\n      tag_473\n      swap1\n      tag_310\n      jump\t// in\n    tag_473:\n      dup1\n      0x1f\n      add\n      0x20\n      dup1\n      swap2\n      div\n      mul\n      0x20\n      add\n      mload(0x40)\n      swap1\n      dup2\n      add\n      0x40\n      mstore\n      dup1\n      swap3\n      swap2\n      swap1\n      dup2\n      dup2\n      mstore\n      0x20\n      add\n      dup3\n      dup1\n      sload\n      tag_474\n      swap1\n      tag_310\n      jump\t// in\n    tag_474:\n      dup1\n      iszero\n      tag_475\n      jumpi\n      dup1\n      0x1f\n      lt\n      tag_476\n      jumpi\n      0x0100\n      dup1\n      dup4\n      sload\n      div\n      mul\n      dup4\n      mstore\n      swap2\n      0x20\n      add\n      swap2\n      jump(tag_475)\n    tag_476:\n      dup3\n      add\n      swap2\n      swap1\n      0x00\n      mstore\n      keccak256(0x00, 0x20)\n      swap1\n    tag_477:\n      dup2\n      sload\n      dup2\n      mstore\n      swap1\n      0x01\n      add\n      swap1\n      0x20\n      add\n      dup1\n      dup4\n      gt\n      tag_477\n      jumpi\n      dup3\n      swap1\n      sub\n      0x1f\n      and\n      dup3\n      add\n      swap2\n    tag_475:\n      pop\n      pop\n      pop\n      pop\n      pop\n      swap1\n      pop\n      dup7\n      jump\t// out\n        /* \"contracts/BaseContract.sol\":9242:9419  function silKisi(address _kisiAdres) public {\r... */\n    tag_211:\n        /* \"contracts/BaseContract.sol\":9305:9323  isKisi(_kisiAdres) */\n      tag_479\n        /* \"contracts/BaseContract.sol\":9312:9322  _kisiAdres */\n      dup2\n        /* \"contracts/BaseContract.sol\":9305:9311  isKisi */\n      tag_202\n        /* \"contracts/BaseContract.sol\":9305:9323  isKisi(_kisiAdres) */\n      jump\t// in\n    tag_479:\n        /* \"contracts/BaseContract.sol\":9297:9368  require(isKisi(_kisiAdres),\r... */\n      tag_480\n      jumpi\n      mload(0x40)\n      0x08c379a000000000000000000000000000000000000000000000000000000000\n      dup2\n      mstore\n      0x04\n      add\n      tag_481\n      swap1\n      tag_482\n      jump\t// in\n    tag_481:\n      mload(0x40)\n      dup1\n      swap2\n      sub\n      swap1\n      revert\n    tag_480:\n        /* \"contracts/BaseContract.sol\":9388:9395  kisiler */\n      0x03\n        /* \"contracts/BaseContract.sol\":9388:9407  kisiler[_kisiAdres] */\n      0x00\n        /* \"contracts/BaseContract.sol\":9396:9406  _kisiAdres */\n      dup3\n        /* \"contracts/BaseContract.sol\":9388:9407  kisiler[_kisiAdres] */\n      0xffffffffffffffffffffffffffffffffffffffff\n      and\n      0xffffffffffffffffffffffffffffffffffffffff\n      and\n      dup2\n      mstore\n      0x20\n      add\n      swap1\n      dup2\n      mstore\n      0x20\n      add\n      0x00\n      keccak256\n      0x00\n        /* \"contracts/BaseContract.sol\":9381:9407  delete kisiler[_kisiAdres] */\n      dup1\n      dup3\n      add\n      exp(0x0100, 0x00)\n      dup2\n      sload\n      swap1\n      0xff\n      mul\n      not\n      and\n      swap1\n      sstore\n      pop\n      pop\n        /* \"contracts/BaseContract.sol\":9242:9419  function silKisi(address _kisiAdres) public {\r... */\n      pop\n      jump\t// out\n        /* \"contracts/BaseContract.sol\":6082:6456  function guncelleUniversite(address _universiteAdres, string memory _isim, uint8 _ulke) public {\r... */\n    tag_214:\n        /* \"contracts/BaseContract.sol\":6196:6226  isUniversite(_universiteAdres) */\n      tag_484\n        /* \"contracts/BaseContract.sol\":6209:6225  _universiteAdres */\n      dup4\n        /* \"contracts/BaseContract.sol\":6196:6208  isUniversite */\n      tag_262\n        /* \"contracts/BaseContract.sol\":6196:6226  isUniversite(_universiteAdres) */\n      jump\t// in\n    tag_484:\n        /* \"contracts/BaseContract.sol\":6188:6277  require(isUniversite(_universiteAdres),\r... */\n      tag_485\n      jumpi\n      mload(0x40)\n      0x08c379a000000000000000000000000000000000000000000000000000000000\n      dup2\n      mstore\n      0x04\n      add\n      tag_486\n      swap1\n      tag_487\n      jump\t// in\n    tag_486:\n      mload(0x40)\n      dup1\n      swap2\n      sub\n      swap1\n      revert\n    tag_485:\n        /* \"contracts/BaseContract.sol\":6330:6334  true */\n      0x01\n        /* \"contracts/BaseContract.sol\":6290:6303  universiteler */\n      0x04\n        /* \"contracts/BaseContract.sol\":6290:6321  universiteler[_universiteAdres] */\n      0x00\n        /* \"contracts/BaseContract.sol\":6304:6320  _universiteAdres */\n      dup6\n        /* \"contracts/BaseContract.sol\":6290:6321  universiteler[_universiteAdres] */\n      0xffffffffffffffffffffffffffffffffffffffff\n      and\n      0xffffffffffffffffffffffffffffffffffffffff\n      and\n      dup2\n      mstore\n      0x20\n      add\n      swap1\n      dup2\n      mstore\n      0x20\n      add\n      0x00\n      keccak256\n        /* \"contracts/BaseContract.sol\":6290:6327  universiteler[_universiteAdres].durum */\n      0x00\n      add\n      0x00\n        /* \"contracts/BaseContract.sol\":6290:6334  universiteler[_universiteAdres].durum = true */\n      0x0100\n      exp\n      dup2\n      sload\n      dup2\n      0xff\n      mul\n      not\n      and\n      swap1\n      dup4\n      iszero\n      iszero\n      mul\n      or\n      swap1\n      sstore\n      pop\n        /* \"contracts/BaseContract.sol\":6384:6389  _isim */\n      dup2\n        /* \"contracts/BaseContract.sol\":6345:6358  universiteler */\n      0x04\n        /* \"contracts/BaseContract.sol\":6345:6376  universiteler[_universiteAdres] */\n      0x00\n        /* \"contracts/BaseContract.sol\":6359:6375  _universiteAdres */\n      dup6\n        /* \"contracts/BaseContract.sol\":6345:6376  universiteler[_universiteAdres] */\n      0xffffffffffffffffffffffffffffffffffffffff\n      and\n      0xffffffffffffffffffffffffffffffffffffffff\n      and\n      dup2\n      mstore\n      0x20\n      add\n      swap1\n      dup2\n      mstore\n      0x20\n      add\n      0x00\n      keccak256\n        /* \"contracts/BaseContract.sol\":6345:6381  universiteler[_universiteAdres].isim */\n      0x01\n      add\n        /* \"contracts/BaseContract.sol\":6345:6389  universiteler[_universiteAdres].isim = _isim */\n      swap1\n      dup1\n      mload\n      swap1\n      0x20\n      add\n      swap1\n      tag_488\n      swap3\n      swap2\n      swap1\n      tag_288\n      jump\t// in\n    tag_488:\n      pop\n        /* \"contracts/BaseContract.sol\":6439:6444  _ulke */\n      dup1\n        /* \"contracts/BaseContract.sol\":6400:6413  universiteler */\n      0x04\n        /* \"contracts/BaseContract.sol\":6400:6431  universiteler[_universiteAdres] */\n      0x00\n        /* \"contracts/BaseContract.sol\":6414:6430  _universiteAdres */\n      dup6\n        /* \"contracts/BaseContract.sol\":6400:6431  universiteler[_universiteAdres] */\n      0xffffffffffffffffffffffffffffffffffffffff\n      and\n      0xffffffffffffffffffffffffffffffffffffffff\n      and\n      dup2\n      mstore\n      0x20\n      add\n      swap1\n      dup2\n      mstore\n      0x20\n      add\n      0x00\n      keccak256\n        /* \"contracts/BaseContract.sol\":6400:6436  universiteler[_universiteAdres].ulke */\n      0x02\n      add\n      0x00\n        /* \"contracts/BaseContract.sol\":6400:6444  universiteler[_universiteAdres].ulke = _ulke */\n      0x0100\n      exp\n      dup2\n      sload\n      dup2\n      0xff\n      mul\n      not\n      and\n      swap1\n      dup4\n      0xff\n      and\n      mul\n      or\n      swap1\n      sstore\n      pop\n        /* \"contracts/BaseContract.sol\":6082:6456  function guncelleUniversite(address _universiteAdres, string memory _isim, uint8 _ulke) public {\r... */\n      pop\n      pop\n      pop\n      jump\t// out\n        /* \"contracts/BaseContract.sol\":4885:4924  mapping(address => Kisi) public kisiler */\n    tag_217:\n      mstore(0x20, 0x03)\n      dup1\n      0x00\n      mstore\n      keccak256(0x00, 0x40)\n      0x00\n      swap2\n      pop\n      swap1\n      pop\n      dup1\n      0x00\n      add\n      0x00\n      swap1\n      sload\n      swap1\n      0x0100\n      exp\n      swap1\n      div\n      0xff\n      and\n      swap1\n      pop\n      dup2\n      jump\t// out\n        /* \"contracts/BaseContract.sol\":8479:8791  function getKursListesi() public view returns(Kurs[] memory){\r... */\n    tag_220:\n        /* \"contracts/BaseContract.sol\":8525:8538  Kurs[] memory */\n      0x60\n        /* \"contracts/BaseContract.sol\":8558:8579  Kurs [] memory result */\n      0x00\n        /* \"contracts/BaseContract.sol\":8593:8606  kursAdresleri */\n      0x0f\n        /* \"contracts/BaseContract.sol\":8593:8613  kursAdresleri.length */\n      dup1\n      sload\n      swap1\n      pop\n        /* \"contracts/BaseContract.sol\":8582:8614  new Kurs[](kursAdresleri.length) */\n      0xffffffffffffffff\n      dup2\n      gt\n      iszero\n      tag_490\n      jumpi\n      tag_491\n      tag_372\n      jump\t// in\n    tag_491:\n    tag_490:\n      mload(0x40)\n      swap1\n      dup1\n      dup3\n      mstore\n      dup1\n      0x20\n      mul\n      0x20\n      add\n      dup3\n      add\n      0x40\n      mstore\n      dup1\n      iszero\n      tag_492\n      jumpi\n      dup2\n      0x20\n      add\n    tag_493:\n      tag_494\n      tag_495\n      jump\t// in\n    tag_494:\n      dup2\n      mstore\n      0x20\n      add\n      swap1\n      0x01\n      swap1\n      sub\n      swap1\n      dup2\n      tag_493\n      jumpi\n      swap1\n      pop\n    tag_492:\n      pop\n        /* \"contracts/BaseContract.sol\":8558:8614  Kurs [] memory result = new Kurs[](kursAdresleri.length) */\n      swap1\n      pop\n        /* \"contracts/BaseContract.sol\":8625:8635  uint index */\n      0x00\n        /* \"contracts/BaseContract.sol\":8652:8658  uint i */\n      dup1\n        /* \"contracts/BaseContract.sol\":8648:8760  for(uint i = 0; i< kursAdresleri.length; i++){\r... */\n    tag_496:\n        /* \"contracts/BaseContract.sol\":8667:8680  kursAdresleri */\n      0x0f\n        /* \"contracts/BaseContract.sol\":8667:8687  kursAdresleri.length */\n      dup1\n      sload\n      swap1\n      pop\n        /* \"contracts/BaseContract.sol\":8664:8665  i */\n      dup2\n        /* \"contracts/BaseContract.sol\":8664:8687  i< kursAdresleri.length */\n      lt\n        /* \"contracts/BaseContract.sol\":8648:8760  for(uint i = 0; i< kursAdresleri.length; i++){\r... */\n      iszero\n      tag_497\n      jumpi\n        /* \"contracts/BaseContract.sol\":8723:8730  kurslar */\n      0x07\n        /* \"contracts/BaseContract.sol\":8723:8748  kurslar[kursAdresleri[i]] */\n      0x00\n        /* \"contracts/BaseContract.sol\":8731:8744  kursAdresleri */\n      0x0f\n        /* \"contracts/BaseContract.sol\":8745:8746  i */\n      dup4\n        /* \"contracts/BaseContract.sol\":8731:8747  kursAdresleri[i] */\n      dup2\n      sload\n      dup2\n      lt\n      tag_499\n      jumpi\n      tag_500\n      tag_382\n      jump\t// in\n    tag_500:\n    tag_499:\n      swap1\n      0x00\n      mstore\n      keccak256(0x00, 0x20)\n      add\n      0x00\n      swap1\n      sload\n      swap1\n      0x0100\n      exp\n      swap1\n      div\n      0xffffffffffffffffffffffffffffffffffffffff\n      and\n        /* \"contracts/BaseContract.sol\":8723:8748  kurslar[kursAdresleri[i]] */\n      0xffffffffffffffffffffffffffffffffffffffff\n      and\n      0xffffffffffffffffffffffffffffffffffffffff\n      and\n      dup2\n      mstore\n      0x20\n      add\n      swap1\n      dup2\n      mstore\n      0x20\n      add\n      0x00\n      keccak256\n        /* \"contracts/BaseContract.sol\":8707:8748  result[index++]=kurslar[kursAdresleri[i]] */\n      mload(0x40)\n      dup1\n      0x60\n      add\n      0x40\n      mstore\n      swap1\n      dup2\n      0x00\n      dup3\n      add\n      0x00\n      swap1\n      sload\n      swap1\n      0x0100\n      exp\n      swap1\n      div\n      0xff\n      and\n      iszero\n      iszero\n      iszero\n      iszero\n      dup2\n      mstore\n      0x20\n      add\n      0x01\n      dup3\n      add\n      dup1\n      sload\n      tag_502\n      swap1\n      tag_310\n      jump\t// in\n    tag_502:\n      dup1\n      0x1f\n      add\n      0x20\n      dup1\n      swap2\n      div\n      mul\n      0x20\n      add\n      mload(0x40)\n      swap1\n      dup2\n      add\n      0x40\n      mstore\n      dup1\n      swap3\n      swap2\n      swap1\n      dup2\n      dup2\n      mstore\n      0x20\n      add\n      dup3\n      dup1\n      sload\n      tag_503\n      swap1\n      tag_310\n      jump\t// in\n    tag_503:\n      dup1\n      iszero\n      tag_504\n      jumpi\n      dup1\n      0x1f\n      lt\n      tag_505\n      jumpi\n      0x0100\n      dup1\n      dup4\n      sload\n      div\n      mul\n      dup4\n      mstore\n      swap2\n      0x20\n      add\n      swap2\n      jump(tag_504)\n    tag_505:\n      dup3\n      add\n      swap2\n      swap1\n      0x00\n      mstore\n      keccak256(0x00, 0x20)\n      swap1\n    tag_506:\n      dup2\n      sload\n      dup2\n      mstore\n      swap1\n      0x01\n      add\n      swap1\n      0x20\n      add\n      dup1\n      dup4\n      gt\n      tag_506\n      jumpi\n      dup3\n      swap1\n      sub\n      0x1f\n      and\n      dup3\n      add\n      swap2\n    tag_504:\n      pop\n      pop\n      pop\n      pop\n      pop\n      dup2\n      mstore\n      0x20\n      add\n      0x02\n      dup3\n      add\n      0x00\n      swap1\n      sload\n      swap1\n      0x0100\n      exp\n      swap1\n      div\n      0xff\n      and\n      0xff\n      and\n      0xff\n      and\n      dup2\n      mstore\n      pop\n      pop\n        /* \"contracts/BaseContract.sol\":8707:8713  result */\n      dup4\n        /* \"contracts/BaseContract.sol\":8714:8721  index++ */\n      dup4\n      dup1\n      tag_507\n      swap1\n      tag_390\n      jump\t// in\n    tag_507:\n      swap5\n      pop\n        /* \"contracts/BaseContract.sol\":8707:8722  result[index++] */\n      dup2\n      mload\n      dup2\n      lt\n      tag_508\n      jumpi\n      tag_509\n      tag_382\n      jump\t// in\n    tag_509:\n    tag_508:\n      0x20\n      mul\n      0x20\n      add\n      add\n        /* \"contracts/BaseContract.sol\":8707:8748  result[index++]=kurslar[kursAdresleri[i]] */\n      dup2\n      swap1\n      mstore\n      pop\n        /* \"contracts/BaseContract.sol\":8689:8692  i++ */\n      dup1\n      dup1\n      tag_510\n      swap1\n      tag_390\n      jump\t// in\n    tag_510:\n      swap2\n      pop\n      pop\n        /* \"contracts/BaseContract.sol\":8648:8760  for(uint i = 0; i< kursAdresleri.length; i++){\r... */\n      jump(tag_496)\n    tag_497:\n      pop\n        /* \"contracts/BaseContract.sol\":8777:8783  result */\n      dup2\n        /* \"contracts/BaseContract.sol\":8770:8783  return result */\n      swap3\n      pop\n      pop\n      pop\n        /* \"contracts/BaseContract.sol\":8479:8791  function getKursListesi() public view returns(Kurs[] memory){\r... */\n      swap1\n      jump\t// out\n        /* \"contracts/BaseContract.sol\":9429:9857  function ekleFirma(address _firmaAdres, string memory _isim, uint _vergiNo, uint8 _ulke)\r... */\n    tag_225:\n        /* \"contracts/BaseContract.sol\":9550:9570  isFirma(_firmaAdres) */\n      tag_512\n        /* \"contracts/BaseContract.sol\":9558:9569  _firmaAdres */\n      dup5\n        /* \"contracts/BaseContract.sol\":9550:9557  isFirma */\n      tag_120\n        /* \"contracts/BaseContract.sol\":9550:9570  isFirma(_firmaAdres) */\n      jump\t// in\n    tag_512:\n        /* \"contracts/BaseContract.sol\":9549:9570  !isFirma(_firmaAdres) */\n      iszero\n        /* \"contracts/BaseContract.sol\":9541:9616  require(!isFirma(_firmaAdres),\r... */\n      tag_513\n      jumpi\n      mload(0x40)\n      0x08c379a000000000000000000000000000000000000000000000000000000000\n      dup2\n      mstore\n      0x04\n      add\n      tag_514\n      swap1\n      tag_515\n      jump\t// in\n    tag_514:\n      mload(0x40)\n      dup1\n      swap2\n      sub\n      swap1\n      revert\n    tag_513:\n        /* \"contracts/BaseContract.sol\":9659:9663  true */\n      0x01\n        /* \"contracts/BaseContract.sol\":9629:9637  firmalar */\n      0x06\n        /* \"contracts/BaseContract.sol\":9629:9650  firmalar[_firmaAdres] */\n      0x00\n        /* \"contracts/BaseContract.sol\":9638:9649  _firmaAdres */\n      dup7\n        /* \"contracts/BaseContract.sol\":9629:9650  firmalar[_firmaAdres] */\n      0xffffffffffffffffffffffffffffffffffffffff\n      and\n      0xffffffffffffffffffffffffffffffffffffffff\n      and\n      dup2\n      mstore\n      0x20\n      add\n      swap1\n      dup2\n      mstore\n      0x20\n      add\n      0x00\n      keccak256\n        /* \"contracts/BaseContract.sol\":9629:9656  firmalar[_firmaAdres].durum */\n      0x00\n      add\n      0x00\n        /* \"contracts/BaseContract.sol\":9629:9663  firmalar[_firmaAdres].durum = true */\n      0x0100\n      exp\n      dup2\n      sload\n      dup2\n      0xff\n      mul\n      not\n      and\n      swap1\n      dup4\n      iszero\n      iszero\n      mul\n      or\n      swap1\n      sstore\n      pop\n        /* \"contracts/BaseContract.sol\":9703:9708  _isim */\n      dup3\n        /* \"contracts/BaseContract.sol\":9674:9682  firmalar */\n      0x06\n        /* \"contracts/BaseContract.sol\":9674:9695  firmalar[_firmaAdres] */\n      0x00\n        /* \"contracts/BaseContract.sol\":9683:9694  _firmaAdres */\n      dup7\n        /* \"contracts/BaseContract.sol\":9674:9695  firmalar[_firmaAdres] */\n      0xffffffffffffffffffffffffffffffffffffffff\n      and\n      0xffffffffffffffffffffffffffffffffffffffff\n      and\n      dup2\n      mstore\n      0x20\n      add\n      swap1\n      dup2\n      mstore\n      0x20\n      add\n      0x00\n      keccak256\n        /* \"contracts/BaseContract.sol\":9674:9700  firmalar[_firmaAdres].isim */\n      0x02\n      add\n        /* \"contracts/BaseContract.sol\":9674:9708  firmalar[_firmaAdres].isim = _isim */\n      swap1\n      dup1\n      mload\n      swap1\n      0x20\n      add\n      swap1\n      tag_516\n      swap3\n      swap2\n      swap1\n      tag_288\n      jump\t// in\n    tag_516:\n      pop\n        /* \"contracts/BaseContract.sol\":9748:9753  _ulke */\n      dup1\n        /* \"contracts/BaseContract.sol\":9719:9727  firmalar */\n      0x06\n        /* \"contracts/BaseContract.sol\":9719:9740  firmalar[_firmaAdres] */\n      0x00\n        /* \"contracts/BaseContract.sol\":9728:9739  _firmaAdres */\n      dup7\n        /* \"contracts/BaseContract.sol\":9719:9740  firmalar[_firmaAdres] */\n      0xffffffffffffffffffffffffffffffffffffffff\n      and\n      0xffffffffffffffffffffffffffffffffffffffff\n      and\n      dup2\n      mstore\n      0x20\n      add\n      swap1\n      dup2\n      mstore\n      0x20\n      add\n      0x00\n      keccak256\n        /* \"contracts/BaseContract.sol\":9719:9745  firmalar[_firmaAdres].ulke */\n      0x00\n      add\n      0x01\n        /* \"contracts/BaseContract.sol\":9719:9753  firmalar[_firmaAdres].ulke = _ulke */\n      0x0100\n      exp\n      dup2\n      sload\n      dup2\n      0xff\n      mul\n      not\n      and\n      swap1\n      dup4\n      0xff\n      and\n      mul\n      or\n      swap1\n      sstore\n      pop\n        /* \"contracts/BaseContract.sol\":9796:9804  _vergiNo */\n      dup2\n        /* \"contracts/BaseContract.sol\":9764:9772  firmalar */\n      0x06\n        /* \"contracts/BaseContract.sol\":9764:9785  firmalar[_firmaAdres] */\n      0x00\n        /* \"contracts/BaseContract.sol\":9773:9784  _firmaAdres */\n      dup7\n        /* \"contracts/BaseContract.sol\":9764:9785  firmalar[_firmaAdres] */\n      0xffffffffffffffffffffffffffffffffffffffff\n      and\n      0xffffffffffffffffffffffffffffffffffffffff\n      and\n      dup2\n      mstore\n      0x20\n      add\n      swap1\n      dup2\n      mstore\n      0x20\n      add\n      0x00\n      keccak256\n        /* \"contracts/BaseContract.sol\":9764:9793  firmalar[_firmaAdres].vergiNo */\n      0x01\n      add\n        /* \"contracts/BaseContract.sol\":9764:9804  firmalar[_firmaAdres].vergiNo = _vergiNo */\n      dup2\n      swap1\n      sstore\n      pop\n        /* \"contracts/BaseContract.sol\":9815:9829  firmaAdresleri */\n      0x0e\n        /* \"contracts/BaseContract.sol\":9835:9846  _firmaAdres */\n      dup5\n        /* \"contracts/BaseContract.sol\":9815:9847  firmaAdresleri.push(_firmaAdres) */\n      swap1\n      dup1\n      0x01\n      dup2\n      sload\n      add\n      dup1\n      dup3\n      sstore\n      dup1\n      swap2\n      pop\n      pop\n      0x01\n      swap1\n      sub\n      swap1\n      0x00\n      mstore\n      keccak256(0x00, 0x20)\n      add\n      0x00\n      swap1\n      swap2\n      swap1\n      swap2\n      swap1\n      swap2\n      0x0100\n      exp\n      dup2\n      sload\n      dup2\n      0xffffffffffffffffffffffffffffffffffffffff\n      mul\n      not\n      and\n      swap1\n      dup4\n      0xffffffffffffffffffffffffffffffffffffffff\n      and\n      mul\n      or\n      swap1\n      sstore\n      pop\n        /* \"contracts/BaseContract.sol\":9429:9857  function ekleFirma(address _firmaAdres, string memory _isim, uint _vergiNo, uint8 _ulke)\r... */\n      pop\n      pop\n      pop\n      pop\n      jump\t// out\n        /* \"contracts/BaseContract.sol\":7448:7779  function getFirmaListesi() public sadeceTOBB view returns(Firma[] memory){\r... */\n    tag_227:\n        /* \"contracts/BaseContract.sol\":7506:7520  Firma[] memory */\n      0x60\n        /* \"contracts/BaseContract.sol\":2379:2383  TOBB */\n      0x01\n      0x00\n      swap1\n      sload\n      swap1\n      0x0100\n      exp\n      swap1\n      div\n      0xffffffffffffffffffffffffffffffffffffffff\n      and\n        /* \"contracts/BaseContract.sol\":2365:2383  msg.sender == TOBB */\n      0xffffffffffffffffffffffffffffffffffffffff\n      and\n        /* \"contracts/BaseContract.sol\":2365:2375  msg.sender */\n      caller\n        /* \"contracts/BaseContract.sol\":2365:2383  msg.sender == TOBB */\n      0xffffffffffffffffffffffffffffffffffffffff\n      and\n      eq\n        /* \"contracts/BaseContract.sol\":2357:2443  require(msg.sender == TOBB,\r... */\n      tag_519\n      jumpi\n      mload(0x40)\n      0x08c379a000000000000000000000000000000000000000000000000000000000\n      dup2\n      mstore\n      0x04\n      add\n      tag_520\n      swap1\n      tag_521\n      jump\t// in\n    tag_520:\n      mload(0x40)\n      dup1\n      swap2\n      sub\n      swap1\n      revert\n    tag_519:\n        /* \"contracts/BaseContract.sol\":7540:7562  Firma [] memory result */\n      0x00\n        /* \"contracts/BaseContract.sol\":7577:7591  firmaAdresleri */\n      0x0e\n        /* \"contracts/BaseContract.sol\":7577:7598  firmaAdresleri.length */\n      dup1\n      sload\n      swap1\n      pop\n        /* \"contracts/BaseContract.sol\":7565:7599  new Firma[](firmaAdresleri.length) */\n      0xffffffffffffffff\n      dup2\n      gt\n      iszero\n      tag_523\n      jumpi\n      tag_524\n      tag_372\n      jump\t// in\n    tag_524:\n    tag_523:\n      mload(0x40)\n      swap1\n      dup1\n      dup3\n      mstore\n      dup1\n      0x20\n      mul\n      0x20\n      add\n      dup3\n      add\n      0x40\n      mstore\n      dup1\n      iszero\n      tag_525\n      jumpi\n      dup2\n      0x20\n      add\n    tag_526:\n      tag_527\n      tag_528\n      jump\t// in\n    tag_527:\n      dup2\n      mstore\n      0x20\n      add\n      swap1\n      0x01\n      swap1\n      sub\n      swap1\n      dup2\n      tag_526\n      jumpi\n      swap1\n      pop\n    tag_525:\n      pop\n        /* \"contracts/BaseContract.sol\":7540:7599  Firma [] memory result = new Firma[](firmaAdresleri.length) */\n      swap1\n      pop\n        /* \"contracts/BaseContract.sol\":7610:7620  uint index */\n      0x00\n        /* \"contracts/BaseContract.sol\":7637:7643  uint i */\n      dup1\n        /* \"contracts/BaseContract.sol\":7633:7748  for(uint i = 0; i< firmaAdresleri.length; i++){\r... */\n    tag_529:\n        /* \"contracts/BaseContract.sol\":7652:7666  firmaAdresleri */\n      0x0e\n        /* \"contracts/BaseContract.sol\":7652:7673  firmaAdresleri.length */\n      dup1\n      sload\n      swap1\n      pop\n        /* \"contracts/BaseContract.sol\":7649:7650  i */\n      dup2\n        /* \"contracts/BaseContract.sol\":7649:7673  i< firmaAdresleri.length */\n      lt\n        /* \"contracts/BaseContract.sol\":7633:7748  for(uint i = 0; i< firmaAdresleri.length; i++){\r... */\n      iszero\n      tag_530\n      jumpi\n        /* \"contracts/BaseContract.sol\":7709:7717  firmalar */\n      0x06\n        /* \"contracts/BaseContract.sol\":7709:7736  firmalar[firmaAdresleri[i]] */\n      0x00\n        /* \"contracts/BaseContract.sol\":7718:7732  firmaAdresleri */\n      0x0e\n        /* \"contracts/BaseContract.sol\":7733:7734  i */\n      dup4\n        /* \"contracts/BaseContract.sol\":7718:7735  firmaAdresleri[i] */\n      dup2\n      sload\n      dup2\n      lt\n      tag_532\n      jumpi\n      tag_533\n      tag_382\n      jump\t// in\n    tag_533:\n    tag_532:\n      swap1\n      0x00\n      mstore\n      keccak256(0x00, 0x20)\n      add\n      0x00\n      swap1\n      sload\n      swap1\n      0x0100\n      exp\n      swap1\n      div\n      0xffffffffffffffffffffffffffffffffffffffff\n      and\n        /* \"contracts/BaseContract.sol\":7709:7736  firmalar[firmaAdresleri[i]] */\n      0xffffffffffffffffffffffffffffffffffffffff\n      and\n      0xffffffffffffffffffffffffffffffffffffffff\n      and\n      dup2\n      mstore\n      0x20\n      add\n      swap1\n      dup2\n      mstore\n      0x20\n      add\n      0x00\n      keccak256\n        /* \"contracts/BaseContract.sol\":7693:7736  result[index++]=firmalar[firmaAdresleri[i]] */\n      mload(0x40)\n      dup1\n      0x80\n      add\n      0x40\n      mstore\n      swap1\n      dup2\n      0x00\n      dup3\n      add\n      0x00\n      swap1\n      sload\n      swap1\n      0x0100\n      exp\n      swap1\n      div\n      0xff\n      and\n      iszero\n      iszero\n      iszero\n      iszero\n      dup2\n      mstore\n      0x20\n      add\n      0x00\n      dup3\n      add\n      0x01\n      swap1\n      sload\n      swap1\n      0x0100\n      exp\n      swap1\n      div\n      0xff\n      and\n      0xff\n      and\n      0xff\n      and\n      dup2\n      mstore\n      0x20\n      add\n      0x01\n      dup3\n      add\n      sload\n      dup2\n      mstore\n      0x20\n      add\n      0x02\n      dup3\n      add\n      dup1\n      sload\n      tag_535\n      swap1\n      tag_310\n      jump\t// in\n    tag_535:\n      dup1\n      0x1f\n      add\n      0x20\n      dup1\n      swap2\n      div\n      mul\n      0x20\n      add\n      mload(0x40)\n      swap1\n      dup2\n      add\n      0x40\n      mstore\n      dup1\n      swap3\n      swap2\n      swap1\n      dup2\n      dup2\n      mstore\n      0x20\n      add\n      dup3\n      dup1\n      sload\n      tag_536\n      swap1\n      tag_310\n      jump\t// in\n    tag_536:\n      dup1\n      iszero\n      tag_537\n      jumpi\n      dup1\n      0x1f\n      lt\n      tag_538\n      jumpi\n      0x0100\n      dup1\n      dup4\n      sload\n      div\n      mul\n      dup4\n      mstore\n      swap2\n      0x20\n      add\n      swap2\n      jump(tag_537)\n    tag_538:\n      dup3\n      add\n      swap2\n      swap1\n      0x00\n      mstore\n      keccak256(0x00, 0x20)\n      swap1\n    tag_539:\n      dup2\n      sload\n      dup2\n      mstore\n      swap1\n      0x01\n      add\n      swap1\n      0x20\n      add\n      dup1\n      dup4\n      gt\n      tag_539\n      jumpi\n      dup3\n      swap1\n      sub\n      0x1f\n      and\n      dup3\n      add\n      swap2\n    tag_537:\n      pop\n      pop\n      pop\n      pop\n      pop\n      dup2\n      mstore\n      pop\n      pop\n        /* \"contracts/BaseContract.sol\":7693:7699  result */\n      dup4\n        /* \"contracts/BaseContract.sol\":7700:7707  index++ */\n      dup4\n      dup1\n      tag_540\n      swap1\n      tag_390\n      jump\t// in\n    tag_540:\n      swap5\n      pop\n        /* \"contracts/BaseContract.sol\":7693:7708  result[index++] */\n      dup2\n      mload\n      dup2\n      lt\n      tag_541\n      jumpi\n      tag_542\n      tag_382\n      jump\t// in\n    tag_542:\n    tag_541:\n      0x20\n      mul\n      0x20\n      add\n      add\n        /* \"contracts/BaseContract.sol\":7693:7736  result[index++]=firmalar[firmaAdresleri[i]] */\n      dup2\n      swap1\n      mstore\n      pop\n        /* \"contracts/BaseContract.sol\":7675:7678  i++ */\n      dup1\n      dup1\n      tag_543\n      swap1\n      tag_390\n      jump\t// in\n    tag_543:\n      swap2\n      pop\n      pop\n        /* \"contracts/BaseContract.sol\":7633:7748  for(uint i = 0; i< firmaAdresleri.length; i++){\r... */\n      jump(tag_529)\n    tag_530:\n      pop\n        /* \"contracts/BaseContract.sol\":7765:7771  result */\n      dup2\n        /* \"contracts/BaseContract.sol\":7758:7771  return result */\n      swap3\n      pop\n      pop\n      pop\n        /* \"contracts/BaseContract.sol\":7448:7779  function getFirmaListesi() public sadeceTOBB view returns(Firma[] memory){\r... */\n      swap1\n      jump\t// out\n        /* \"contracts/BaseContract.sol\":11873:12194  function guncelleKurs(address _kursAdres, string memory _isim, uint8 _ulke)\r... */\n    tag_232:\n        /* \"contracts/BaseContract.sol\":11980:11998  isKurs(_kursAdres) */\n      tag_545\n        /* \"contracts/BaseContract.sol\":11987:11997  _kursAdres */\n      dup4\n        /* \"contracts/BaseContract.sol\":11980:11986  isKurs */\n      tag_79\n        /* \"contracts/BaseContract.sol\":11980:11998  isKurs(_kursAdres) */\n      jump\t// in\n    tag_545:\n        /* \"contracts/BaseContract.sol\":11972:12051  require(isKurs(_kursAdres),\r... */\n      tag_546\n      jumpi\n      mload(0x40)\n      0x08c379a000000000000000000000000000000000000000000000000000000000\n      dup2\n      mstore\n      0x04\n      add\n      tag_547\n      swap1\n      tag_458\n      jump\t// in\n    tag_547:\n      mload(0x40)\n      dup1\n      swap2\n      sub\n      swap1\n      revert\n    tag_546:\n        /* \"contracts/BaseContract.sol\":12092:12096  true */\n      0x01\n        /* \"contracts/BaseContract.sol\":12064:12071  kurslar */\n      0x07\n        /* \"contracts/BaseContract.sol\":12064:12083  kurslar[_kursAdres] */\n      0x00\n        /* \"contracts/BaseContract.sol\":12072:12082  _kursAdres */\n      dup6\n        /* \"contracts/BaseContract.sol\":12064:12083  kurslar[_kursAdres] */\n      0xffffffffffffffffffffffffffffffffffffffff\n      and\n      0xffffffffffffffffffffffffffffffffffffffff\n      and\n      dup2\n      mstore\n      0x20\n      add\n      swap1\n      dup2\n      mstore\n      0x20\n      add\n      0x00\n      keccak256\n        /* \"contracts/BaseContract.sol\":12064:12089  kurslar[_kursAdres].durum */\n      0x00\n      add\n      0x00\n        /* \"contracts/BaseContract.sol\":12064:12096  kurslar[_kursAdres].durum = true */\n      0x0100\n      exp\n      dup2\n      sload\n      dup2\n      0xff\n      mul\n      not\n      and\n      swap1\n      dup4\n      iszero\n      iszero\n      mul\n      or\n      swap1\n      sstore\n      pop\n        /* \"contracts/BaseContract.sol\":12134:12139  _isim */\n      dup2\n        /* \"contracts/BaseContract.sol\":12107:12114  kurslar */\n      0x07\n        /* \"contracts/BaseContract.sol\":12107:12126  kurslar[_kursAdres] */\n      0x00\n        /* \"contracts/BaseContract.sol\":12115:12125  _kursAdres */\n      dup6\n        /* \"contracts/BaseContract.sol\":12107:12126  kurslar[_kursAdres] */\n      0xffffffffffffffffffffffffffffffffffffffff\n      and\n      0xffffffffffffffffffffffffffffffffffffffff\n      and\n      dup2\n      mstore\n      0x20\n      add\n      swap1\n      dup2\n      mstore\n      0x20\n      add\n      0x00\n      keccak256\n        /* \"contracts/BaseContract.sol\":12107:12131  kurslar[_kursAdres].isim */\n      0x01\n      add\n        /* \"contracts/BaseContract.sol\":12107:12139  kurslar[_kursAdres].isim = _isim */\n      swap1\n      dup1\n      mload\n      swap1\n      0x20\n      add\n      swap1\n      tag_548\n      swap3\n      swap2\n      swap1\n      tag_288\n      jump\t// in\n    tag_548:\n      pop\n        /* \"contracts/BaseContract.sol\":12177:12182  _ulke */\n      dup1\n        /* \"contracts/BaseContract.sol\":12150:12157  kurslar */\n      0x07\n        /* \"contracts/BaseContract.sol\":12150:12169  kurslar[_kursAdres] */\n      0x00\n        /* \"contracts/BaseContract.sol\":12158:12168  _kursAdres */\n      dup6\n        /* \"contracts/BaseContract.sol\":12150:12169  kurslar[_kursAdres] */\n      0xffffffffffffffffffffffffffffffffffffffff\n      and\n      0xffffffffffffffffffffffffffffffffffffffff\n      and\n      dup2\n      mstore\n      0x20\n      add\n      swap1\n      dup2\n      mstore\n      0x20\n      add\n      0x00\n      keccak256\n        /* \"contracts/BaseContract.sol\":12150:12174  kurslar[_kursAdres].ulke */\n      0x02\n      add\n      0x00\n        /* \"contracts/BaseContract.sol\":12150:12182  kurslar[_kursAdres].ulke = _ulke */\n      0x0100\n      exp\n      dup2\n      sload\n      dup2\n      0xff\n      mul\n      not\n      and\n      swap1\n      dup4\n      0xff\n      and\n      mul\n      or\n      swap1\n      sstore\n      pop\n        /* \"contracts/BaseContract.sol\":11873:12194  function guncelleKurs(address _kursAdres, string memory _isim, uint8 _ulke)\r... */\n      pop\n      pop\n      pop\n      jump\t// out\n        /* \"contracts/BaseContract.sol\":7070:7439  function getKamuKurumuListesi() public sadeceCB view  returns(KamuKurumu[] memory)  {\r... */\n    tag_234:\n        /* \"contracts/BaseContract.sol\":7132:7151  KamuKurumu[] memory */\n      0x60\n        /* \"contracts/BaseContract.sol\":2521:2523  CB */\n      0x02\n      0x00\n      swap1\n      sload\n      swap1\n      0x0100\n      exp\n      swap1\n      div\n      0xffffffffffffffffffffffffffffffffffffffff\n      and\n        /* \"contracts/BaseContract.sol\":2507:2523  msg.sender == CB */\n      0xffffffffffffffffffffffffffffffffffffffff\n      and\n        /* \"contracts/BaseContract.sol\":2507:2517  msg.sender */\n      caller\n        /* \"contracts/BaseContract.sol\":2507:2523  msg.sender == CB */\n      0xffffffffffffffffffffffffffffffffffffffff\n      and\n      eq\n        /* \"contracts/BaseContract.sol\":2499:2581  require(msg.sender == CB,\r... */\n      tag_550\n      jumpi\n      mload(0x40)\n      0x08c379a000000000000000000000000000000000000000000000000000000000\n      dup2\n      mstore\n      0x04\n      add\n      tag_551\n      swap1\n      tag_421\n      jump\t// in\n    tag_551:\n      mload(0x40)\n      dup1\n      swap2\n      sub\n      swap1\n      revert\n    tag_550:\n        /* \"contracts/BaseContract.sol\":7173:7200  KamuKurumu [] memory result */\n      0x00\n        /* \"contracts/BaseContract.sol\":7220:7238  kamuKurumAdresleri */\n      0x10\n        /* \"contracts/BaseContract.sol\":7220:7245  kamuKurumAdresleri.length */\n      dup1\n      sload\n      swap1\n      pop\n        /* \"contracts/BaseContract.sol\":7203:7246  new KamuKurumu[](kamuKurumAdresleri.length) */\n      0xffffffffffffffff\n      dup2\n      gt\n      iszero\n      tag_553\n      jumpi\n      tag_554\n      tag_372\n      jump\t// in\n    tag_554:\n    tag_553:\n      mload(0x40)\n      swap1\n      dup1\n      dup3\n      mstore\n      dup1\n      0x20\n      mul\n      0x20\n      add\n      dup3\n      add\n      0x40\n      mstore\n      dup1\n      iszero\n      tag_555\n      jumpi\n      dup2\n      0x20\n      add\n    tag_556:\n      tag_557\n      tag_558\n      jump\t// in\n    tag_557:\n      dup2\n      mstore\n      0x20\n      add\n      swap1\n      0x01\n      swap1\n      sub\n      swap1\n      dup2\n      tag_556\n      jumpi\n      swap1\n      pop\n    tag_555:\n      pop\n        /* \"contracts/BaseContract.sol\":7173:7246  KamuKurumu [] memory result = new KamuKurumu[](kamuKurumAdresleri.length) */\n      swap1\n      pop\n        /* \"contracts/BaseContract.sol\":7257:7267  uint index */\n      0x00\n        /* \"contracts/BaseContract.sol\":7284:7290  uint i */\n      dup1\n        /* \"contracts/BaseContract.sol\":7280:7408  for(uint i = 0; i< kamuKurumAdresleri.length; i++){\r... */\n    tag_559:\n        /* \"contracts/BaseContract.sol\":7299:7317  kamuKurumAdresleri */\n      0x10\n        /* \"contracts/BaseContract.sol\":7299:7324  kamuKurumAdresleri.length */\n      dup1\n      sload\n      swap1\n      pop\n        /* \"contracts/BaseContract.sol\":7296:7297  i */\n      dup2\n        /* \"contracts/BaseContract.sol\":7296:7324  i< kamuKurumAdresleri.length */\n      lt\n        /* \"contracts/BaseContract.sol\":7280:7408  for(uint i = 0; i< kamuKurumAdresleri.length; i++){\r... */\n      iszero\n      tag_560\n      jumpi\n        /* \"contracts/BaseContract.sol\":7360:7373  kamuKurumlari */\n      0x08\n        /* \"contracts/BaseContract.sol\":7360:7396  kamuKurumlari[kamuKurumAdresleri[i]] */\n      0x00\n        /* \"contracts/BaseContract.sol\":7374:7392  kamuKurumAdresleri */\n      0x10\n        /* \"contracts/BaseContract.sol\":7393:7394  i */\n      dup4\n        /* \"contracts/BaseContract.sol\":7374:7395  kamuKurumAdresleri[i] */\n      dup2\n      sload\n      dup2\n      lt\n      tag_562\n      jumpi\n      tag_563\n      tag_382\n      jump\t// in\n    tag_563:\n    tag_562:\n      swap1\n      0x00\n      mstore\n      keccak256(0x00, 0x20)\n      add\n      0x00\n      swap1\n      sload\n      swap1\n      0x0100\n      exp\n      swap1\n      div\n      0xffffffffffffffffffffffffffffffffffffffff\n      and\n        /* \"contracts/BaseContract.sol\":7360:7396  kamuKurumlari[kamuKurumAdresleri[i]] */\n      0xffffffffffffffffffffffffffffffffffffffff\n      and\n      0xffffffffffffffffffffffffffffffffffffffff\n      and\n      dup2\n      mstore\n      0x20\n      add\n      swap1\n      dup2\n      mstore\n      0x20\n      add\n      0x00\n      keccak256\n        /* \"contracts/BaseContract.sol\":7344:7396  result[index++]=kamuKurumlari[kamuKurumAdresleri[i]] */\n      mload(0x40)\n      dup1\n      0x60\n      add\n      0x40\n      mstore\n      swap1\n      dup2\n      0x00\n      dup3\n      add\n      0x00\n      swap1\n      sload\n      swap1\n      0x0100\n      exp\n      swap1\n      div\n      0xff\n      and\n      iszero\n      iszero\n      iszero\n      iszero\n      dup2\n      mstore\n      0x20\n      add\n      0x01\n      dup3\n      add\n      dup1\n      sload\n      tag_565\n      swap1\n      tag_310\n      jump\t// in\n    tag_565:\n      dup1\n      0x1f\n      add\n      0x20\n      dup1\n      swap2\n      div\n      mul\n      0x20\n      add\n      mload(0x40)\n      swap1\n      dup2\n      add\n      0x40\n      mstore\n      dup1\n      swap3\n      swap2\n      swap1\n      dup2\n      dup2\n      mstore\n      0x20\n      add\n      dup3\n      dup1\n      sload\n      tag_566\n      swap1\n      tag_310\n      jump\t// in\n    tag_566:\n      dup1\n      iszero\n      tag_567\n      jumpi\n      dup1\n      0x1f\n      lt\n      tag_568\n      jumpi\n      0x0100\n      dup1\n      dup4\n      sload\n      div\n      mul\n      dup4\n      mstore\n      swap2\n      0x20\n      add\n      swap2\n      jump(tag_567)\n    tag_568:\n      dup3\n      add\n      swap2\n      swap1\n      0x00\n      mstore\n      keccak256(0x00, 0x20)\n      swap1\n    tag_569:\n      dup2\n      sload\n      dup2\n      mstore\n      swap1\n      0x01\n      add\n      swap1\n      0x20\n      add\n      dup1\n      dup4\n      gt\n      tag_569\n      jumpi\n      dup3\n      swap1\n      sub\n      0x1f\n      and\n      dup3\n      add\n      swap2\n    tag_567:\n      pop\n      pop\n      pop\n      pop\n      pop\n      dup2\n      mstore\n      0x20\n      add\n      0x02\n      dup3\n      add\n      0x00\n      swap1\n      sload\n      swap1\n      0x0100\n      exp\n      swap1\n      div\n      0xff\n      and\n      0xff\n      and\n      0xff\n      and\n      dup2\n      mstore\n      pop\n      pop\n        /* \"contracts/BaseContract.sol\":7344:7350  result */\n      dup4\n        /* \"contracts/BaseContract.sol\":7351:7358  index++ */\n      dup4\n      dup1\n      tag_570\n      swap1\n      tag_390\n      jump\t// in\n    tag_570:\n      swap5\n      pop\n        /* \"contracts/BaseContract.sol\":7344:7359  result[index++] */\n      dup2\n      mload\n      dup2\n      lt\n      tag_571\n      jumpi\n      tag_572\n      tag_382\n      jump\t// in\n    tag_572:\n    tag_571:\n      0x20\n      mul\n      0x20\n      add\n      add\n        /* \"contracts/BaseContract.sol\":7344:7396  result[index++]=kamuKurumlari[kamuKurumAdresleri[i]] */\n      dup2\n      swap1\n      mstore\n      pop\n        /* \"contracts/BaseContract.sol\":7326:7329  i++ */\n      dup1\n      dup1\n      tag_573\n      swap1\n      tag_390\n      jump\t// in\n    tag_573:\n      swap2\n      pop\n      pop\n        /* \"contracts/BaseContract.sol\":7280:7408  for(uint i = 0; i< kamuKurumAdresleri.length; i++){\r... */\n      jump(tag_559)\n    tag_560:\n      pop\n        /* \"contracts/BaseContract.sol\":7425:7431  result */\n      dup2\n        /* \"contracts/BaseContract.sol\":7418:7431  return result */\n      swap3\n      pop\n      pop\n      pop\n        /* \"contracts/BaseContract.sol\":7070:7439  function getKamuKurumuListesi() public sadeceCB view  returns(KamuKurumu[] memory)  {\r... */\n      swap1\n      jump\t// out\n        /* \"contracts/BaseContract.sol\":3694:3794  function isYOK(address _address) public view returns (bool){\r... */\n    tag_239:\n        /* \"contracts/BaseContract.sol\":3748:3752  bool */\n      0x00\n        /* \"contracts/BaseContract.sol\":3778:3786  _address */\n      dup2\n        /* \"contracts/BaseContract.sol\":3771:3786  YOK == _address */\n      0xffffffffffffffffffffffffffffffffffffffff\n      and\n        /* \"contracts/BaseContract.sol\":3771:3774  YOK */\n      0x00\n      dup1\n      sload\n      swap1\n      0x0100\n      exp\n      swap1\n      div\n      0xffffffffffffffffffffffffffffffffffffffff\n      and\n        /* \"contracts/BaseContract.sol\":3771:3786  YOK == _address */\n      0xffffffffffffffffffffffffffffffffffffffff\n      and\n      eq\n        /* \"contracts/BaseContract.sol\":3764:3786  return YOK == _address */\n      swap1\n      pop\n        /* \"contracts/BaseContract.sol\":3694:3794  function isYOK(address _address) public view returns (bool){\r... */\n      swap2\n      swap1\n      pop\n      jump\t// out\n        /* \"contracts/BaseContract.sol\":5579:5608  address[] public stkAdresleri */\n    tag_243:\n      0x11\n      dup2\n      dup2\n      sload\n      dup2\n      lt\n      tag_575\n      jumpi\n      0x00\n      dup1\n      revert\n    tag_575:\n      swap1\n      0x00\n      mstore\n      keccak256(0x00, 0x20)\n      add\n      0x00\n      swap2\n      pop\n      sload\n      swap1\n      0x0100\n      exp\n      swap1\n      div\n      0xffffffffffffffffffffffffffffffffffffffff\n      and\n      dup2\n      jump\t// out\n        /* \"contracts/BaseContract.sol\":13088:13277  function silSTK(address _stkAdres)\r... */\n    tag_247:\n        /* \"contracts/BaseContract.sol\":13154:13170  isSTK(_stkAdres) */\n      tag_578\n        /* \"contracts/BaseContract.sol\":13160:13169  _stkAdres */\n      dup2\n        /* \"contracts/BaseContract.sol\":13154:13159  isSTK */\n      tag_161\n        /* \"contracts/BaseContract.sol\":13154:13170  isSTK(_stkAdres) */\n      jump\t// in\n    tag_578:\n        /* \"contracts/BaseContract.sol\":13146:13232  require(isSTK(_stkAdres),\r... */\n      tag_579\n      jumpi\n      mload(0x40)\n      0x08c379a000000000000000000000000000000000000000000000000000000000\n      dup2\n      mstore\n      0x04\n      add\n      tag_580\n      swap1\n      tag_399\n      jump\t// in\n    tag_580:\n      mload(0x40)\n      dup1\n      swap2\n      sub\n      swap1\n      revert\n    tag_579:\n        /* \"contracts/BaseContract.sol\":13250:13256  stklar */\n      0x09\n        /* \"contracts/BaseContract.sol\":13250:13267  stklar[_stkAdres] */\n      0x00\n        /* \"contracts/BaseContract.sol\":13257:13266  _stkAdres */\n      dup3\n        /* \"contracts/BaseContract.sol\":13250:13267  stklar[_stkAdres] */\n      0xffffffffffffffffffffffffffffffffffffffff\n      and\n      0xffffffffffffffffffffffffffffffffffffffff\n      and\n      dup2\n      mstore\n      0x20\n      add\n      swap1\n      dup2\n      mstore\n      0x20\n      add\n      0x00\n      keccak256\n      0x00\n        /* \"contracts/BaseContract.sol\":13243:13267  delete stklar[_stkAdres] */\n      dup1\n      dup3\n      add\n      exp(0x0100, 0x00)\n      dup2\n      sload\n      swap1\n      0xff\n      mul\n      not\n      and\n      swap1\n      sstore\n      0x01\n      dup3\n      add\n      0x00\n      tag_581\n      swap2\n      swap1\n      tag_321\n      jump\t// in\n    tag_581:\n      0x02\n      dup3\n      add\n      exp(0x0100, 0x00)\n      dup2\n      sload\n      swap1\n      0xff\n      mul\n      not\n      and\n      swap1\n      sstore\n      pop\n      pop\n        /* \"contracts/BaseContract.sol\":13088:13277  function silSTK(address _stkAdres)\r... */\n      pop\n      jump\t// out\n        /* \"contracts/BaseContract.sol\":4744:4877  function isSertifikaMerkezi(address _address) public view returns (bool){\r... */\n    tag_250:\n        /* \"contracts/BaseContract.sol\":4811:4815  bool */\n      0x00\n        /* \"contracts/BaseContract.sol\":4834:4853  sertifikaMerkezleri */\n      0x0a\n        /* \"contracts/BaseContract.sol\":4834:4863  sertifikaMerkezleri[_address] */\n      0x00\n        /* \"contracts/BaseContract.sol\":4854:4862  _address */\n      dup4\n        /* \"contracts/BaseContract.sol\":4834:4863  sertifikaMerkezleri[_address] */\n      0xffffffffffffffffffffffffffffffffffffffff\n      and\n      0xffffffffffffffffffffffffffffffffffffffff\n      and\n      dup2\n      mstore\n      0x20\n      add\n      swap1\n      dup2\n      mstore\n      0x20\n      add\n      0x00\n      keccak256\n        /* \"contracts/BaseContract.sol\":4834:4869  sertifikaMerkezleri[_address].durum */\n      0x00\n      add\n      0x00\n      swap1\n      sload\n      swap1\n      0x0100\n      exp\n      swap1\n      div\n      0xff\n      and\n        /* \"contracts/BaseContract.sol\":4827:4869  return sertifikaMerkezleri[_address].durum */\n      swap1\n      pop\n        /* \"contracts/BaseContract.sol\":4744:4877  function isSertifikaMerkezi(address _address) public view returns (bool){\r... */\n      swap2\n      swap1\n      pop\n      jump\t// out\n        /* \"contracts/BaseContract.sol\":3912:4010  function isCB(address _address) public view returns (bool){\r... */\n    tag_254:\n        /* \"contracts/BaseContract.sol\":3965:3969  bool */\n      0x00\n        /* \"contracts/BaseContract.sol\":3994:4002  _address */\n      dup2\n        /* \"contracts/BaseContract.sol\":3988:4002  CB == _address */\n      0xffffffffffffffffffffffffffffffffffffffff\n      and\n        /* \"contracts/BaseContract.sol\":3988:3990  CB */\n      0x02\n      0x00\n      swap1\n      sload\n      swap1\n      0x0100\n      exp\n      swap1\n      div\n      0xffffffffffffffffffffffffffffffffffffffff\n      and\n        /* \"contracts/BaseContract.sol\":3988:4002  CB == _address */\n      0xffffffffffffffffffffffffffffffffffffffff\n      and\n      eq\n        /* \"contracts/BaseContract.sol\":3981:4002  return CB == _address */\n      swap1\n      pop\n        /* \"contracts/BaseContract.sol\":3912:4010  function isCB(address _address) public view returns (bool){\r... */\n      swap2\n      swap1\n      pop\n      jump\t// out\n        /* \"contracts/BaseContract.sol\":5500:5530  address[] public kursAdresleri */\n    tag_258:\n      0x0f\n      dup2\n      dup2\n      sload\n      dup2\n      lt\n      tag_584\n      jumpi\n      0x00\n      dup1\n      revert\n    tag_584:\n      swap1\n      0x00\n      mstore\n      keccak256(0x00, 0x20)\n      add\n      0x00\n      swap2\n      pop\n      sload\n      swap1\n      0x0100\n      exp\n      swap1\n      div\n      0xffffffffffffffffffffffffffffffffffffffff\n      and\n      dup2\n      jump\t// out\n        /* \"contracts/BaseContract.sol\":4018:4139  function isUniversite(address _address) public view returns (bool){\r... */\n    tag_262:\n        /* \"contracts/BaseContract.sol\":4079:4083  bool */\n      0x00\n        /* \"contracts/BaseContract.sol\":4102:4115  universiteler */\n      0x04\n        /* \"contracts/BaseContract.sol\":4102:4125  universiteler[_address] */\n      0x00\n        /* \"contracts/BaseContract.sol\":4116:4124  _address */\n      dup4\n        /* \"contracts/BaseContract.sol\":4102:4125  universiteler[_address] */\n      0xffffffffffffffffffffffffffffffffffffffff\n      and\n      0xffffffffffffffffffffffffffffffffffffffff\n      and\n      dup2\n      mstore\n      0x20\n      add\n      swap1\n      dup2\n      mstore\n      0x20\n      add\n      0x00\n      keccak256\n        /* \"contracts/BaseContract.sol\":4102:4131  universiteler[_address].durum */\n      0x00\n      add\n      0x00\n      swap1\n      sload\n      swap1\n      0x0100\n      exp\n      swap1\n      div\n      0xff\n      and\n        /* \"contracts/BaseContract.sol\":4095:4131  return universiteler[_address].durum */\n      swap1\n      pop\n        /* \"contracts/BaseContract.sol\":4018:4139  function isUniversite(address _address) public view returns (bool){\r... */\n      swap2\n      swap1\n      pop\n      jump\t// out\n        /* \"contracts/BaseContract.sol\":5380:5410  address[] public kisiAdresleri */\n    tag_266:\n      0x0c\n      dup2\n      dup2\n      sload\n      dup2\n      lt\n      tag_587\n      jumpi\n      0x00\n      dup1\n      revert\n    tag_587:\n      swap1\n      0x00\n      mstore\n      keccak256(0x00, 0x20)\n      add\n      0x00\n      swap2\n      pop\n      sload\n      swap1\n      0x0100\n      exp\n      swap1\n      div\n      0xffffffffffffffffffffffffffffffffffffffff\n      and\n      dup2\n      jump\t// out\n        /* \"contracts/BaseContract.sol\":9031:9234  function guncelleKisi(address _kisiAdres, bool _durum) public {\r... */\n    tag_271:\n        /* \"contracts/BaseContract.sol\":9112:9130  isKisi(_kisiAdres) */\n      tag_590\n        /* \"contracts/BaseContract.sol\":9119:9129  _kisiAdres */\n      dup3\n        /* \"contracts/BaseContract.sol\":9112:9118  isKisi */\n      tag_202\n        /* \"contracts/BaseContract.sol\":9112:9130  isKisi(_kisiAdres) */\n      jump\t// in\n    tag_590:\n        /* \"contracts/BaseContract.sol\":9104:9175  require(isKisi(_kisiAdres),\r... */\n      tag_591\n      jumpi\n      mload(0x40)\n      0x08c379a000000000000000000000000000000000000000000000000000000000\n      dup2\n      mstore\n      0x04\n      add\n      tag_592\n      swap1\n      tag_482\n      jump\t// in\n    tag_592:\n      mload(0x40)\n      dup1\n      swap2\n      sub\n      swap1\n      revert\n    tag_591:\n        /* \"contracts/BaseContract.sol\":9216:9222  _durum */\n      dup1\n        /* \"contracts/BaseContract.sol\":9188:9195  kisiler */\n      0x03\n        /* \"contracts/BaseContract.sol\":9188:9207  kisiler[_kisiAdres] */\n      0x00\n        /* \"contracts/BaseContract.sol\":9196:9206  _kisiAdres */\n      dup5\n        /* \"contracts/BaseContract.sol\":9188:9207  kisiler[_kisiAdres] */\n      0xffffffffffffffffffffffffffffffffffffffff\n      and\n      0xffffffffffffffffffffffffffffffffffffffff\n      and\n      dup2\n      mstore\n      0x20\n      add\n      swap1\n      dup2\n      mstore\n      0x20\n      add\n      0x00\n      keccak256\n        /* \"contracts/BaseContract.sol\":9188:9213  kisiler[_kisiAdres].durum */\n      0x00\n      add\n      0x00\n        /* \"contracts/BaseContract.sol\":9188:9222  kisiler[_kisiAdres].durum = _durum */\n      0x0100\n      exp\n      dup2\n      sload\n      dup2\n      0xff\n      mul\n      not\n      and\n      swap1\n      dup4\n      iszero\n      iszero\n      mul\n      or\n      swap1\n      sstore\n      pop\n        /* \"contracts/BaseContract.sol\":9031:9234  function guncelleKisi(address _kisiAdres, bool _durum) public {\r... */\n      pop\n      pop\n      jump\t// out\n        /* \"contracts/BaseContract.sol\":8799:9023  function ekleKisi(address _kisiAdres) public {\r... */\n    tag_274:\n        /* \"contracts/BaseContract.sol\":8864:8882  isKisi(_kisiAdres) */\n      tag_594\n        /* \"contracts/BaseContract.sol\":8871:8881  _kisiAdres */\n      dup2\n        /* \"contracts/BaseContract.sol\":8864:8870  isKisi */\n      tag_202\n        /* \"contracts/BaseContract.sol\":8864:8882  isKisi(_kisiAdres) */\n      jump\t// in\n    tag_594:\n        /* \"contracts/BaseContract.sol\":8863:8882  !isKisi(_kisiAdres) */\n      iszero\n        /* \"contracts/BaseContract.sol\":8855:8927  require(!isKisi(_kisiAdres),\r... */\n      tag_595\n      jumpi\n      mload(0x40)\n      0x08c379a000000000000000000000000000000000000000000000000000000000\n      dup2\n      mstore\n      0x04\n      add\n      tag_596\n      swap1\n      tag_597\n      jump\t// in\n    tag_596:\n      mload(0x40)\n      dup1\n      swap2\n      sub\n      swap1\n      revert\n    tag_595:\n        /* \"contracts/BaseContract.sol\":8968:8972  true */\n      0x01\n        /* \"contracts/BaseContract.sol\":8940:8947  kisiler */\n      0x03\n        /* \"contracts/BaseContract.sol\":8940:8959  kisiler[_kisiAdres] */\n      0x00\n        /* \"contracts/BaseContract.sol\":8948:8958  _kisiAdres */\n      dup4\n        /* \"contracts/BaseContract.sol\":8940:8959  kisiler[_kisiAdres] */\n      0xffffffffffffffffffffffffffffffffffffffff\n      and\n      0xffffffffffffffffffffffffffffffffffffffff\n      and\n      dup2\n      mstore\n      0x20\n      add\n      swap1\n      dup2\n      mstore\n      0x20\n      add\n      0x00\n      keccak256\n        /* \"contracts/BaseContract.sol\":8940:8965  kisiler[_kisiAdres].durum */\n      0x00\n      add\n      0x00\n        /* \"contracts/BaseContract.sol\":8940:8972  kisiler[_kisiAdres].durum = true */\n      0x0100\n      exp\n      dup2\n      sload\n      dup2\n      0xff\n      mul\n      not\n      and\n      swap1\n      dup4\n      iszero\n      iszero\n      mul\n      or\n      swap1\n      sstore\n      pop\n        /* \"contracts/BaseContract.sol\":8983:8996  kisiAdresleri */\n      0x0c\n        /* \"contracts/BaseContract.sol\":9002:9012  _kisiAdres */\n      dup2\n        /* \"contracts/BaseContract.sol\":8983:9013  kisiAdresleri.push(_kisiAdres) */\n      swap1\n      dup1\n      0x01\n      dup2\n      sload\n      add\n      dup1\n      dup3\n      sstore\n      dup1\n      swap2\n      pop\n      pop\n      0x01\n      swap1\n      sub\n      swap1\n      0x00\n      mstore\n      keccak256(0x00, 0x20)\n      add\n      0x00\n      swap1\n      swap2\n      swap1\n      swap2\n      swap1\n      swap2\n      0x0100\n      exp\n      dup2\n      sload\n      dup2\n      0xffffffffffffffffffffffffffffffffffffffff\n      mul\n      not\n      and\n      swap1\n      dup4\n      0xffffffffffffffffffffffffffffffffffffffff\n      and\n      mul\n      or\n      swap1\n      sstore\n      pop\n        /* \"contracts/BaseContract.sol\":8799:9023  function ekleKisi(address _kisiAdres) public {\r... */\n      pop\n      jump\t// out\n        /* \"contracts/BaseContract.sol\":10460:10887  function ekleKamuKurumu(address _kamuKurumuAdres, string memory _isim, uint8 _ulke)\r... */\n    tag_277:\n        /* \"contracts/BaseContract.sol\":10576:10606  isKamuKurumu(_kamuKurumuAdres) */\n      tag_600\n        /* \"contracts/BaseContract.sol\":10589:10605  _kamuKurumuAdres */\n      dup4\n        /* \"contracts/BaseContract.sol\":10576:10588  isKamuKurumu */\n      tag_143\n        /* \"contracts/BaseContract.sol\":10576:10606  isKamuKurumu(_kamuKurumuAdres) */\n      jump\t// in\n    tag_600:\n        /* \"contracts/BaseContract.sol\":10575:10606  !isKamuKurumu(_kamuKurumuAdres) */\n      iszero\n        /* \"contracts/BaseContract.sol\":10567:10658  require(!isKamuKurumu(_kamuKurumuAdres),\r... */\n      tag_601\n      jumpi\n      mload(0x40)\n      0x08c379a000000000000000000000000000000000000000000000000000000000\n      dup2\n      mstore\n      0x04\n      add\n      tag_602\n      swap1\n      tag_603\n      jump\t// in\n    tag_602:\n      mload(0x40)\n      dup1\n      swap2\n      sub\n      swap1\n      revert\n    tag_601:\n        /* \"contracts/BaseContract.sol\":10711:10715  true */\n      0x01\n        /* \"contracts/BaseContract.sol\":10671:10684  kamuKurumlari */\n      0x08\n        /* \"contracts/BaseContract.sol\":10671:10702  kamuKurumlari[_kamuKurumuAdres] */\n      0x00\n        /* \"contracts/BaseContract.sol\":10685:10701  _kamuKurumuAdres */\n      dup6\n        /* \"contracts/BaseContract.sol\":10671:10702  kamuKurumlari[_kamuKurumuAdres] */\n      0xffffffffffffffffffffffffffffffffffffffff\n      and\n      0xffffffffffffffffffffffffffffffffffffffff\n      and\n      dup2\n      mstore\n      0x20\n      add\n      swap1\n      dup2\n      mstore\n      0x20\n      add\n      0x00\n      keccak256\n        /* \"contracts/BaseContract.sol\":10671:10708  kamuKurumlari[_kamuKurumuAdres].durum */\n      0x00\n      add\n      0x00\n        /* \"contracts/BaseContract.sol\":10671:10715  kamuKurumlari[_kamuKurumuAdres].durum = true */\n      0x0100\n      exp\n      dup2\n      sload\n      dup2\n      0xff\n      mul\n      not\n      and\n      swap1\n      dup4\n      iszero\n      iszero\n      mul\n      or\n      swap1\n      sstore\n      pop\n        /* \"contracts/BaseContract.sol\":10765:10770  _isim */\n      dup2\n        /* \"contracts/BaseContract.sol\":10726:10739  kamuKurumlari */\n      0x08\n        /* \"contracts/BaseContract.sol\":10726:10757  kamuKurumlari[_kamuKurumuAdres] */\n      0x00\n        /* \"contracts/BaseContract.sol\":10740:10756  _kamuKurumuAdres */\n      dup6\n        /* \"contracts/BaseContract.sol\":10726:10757  kamuKurumlari[_kamuKurumuAdres] */\n      0xffffffffffffffffffffffffffffffffffffffff\n      and\n      0xffffffffffffffffffffffffffffffffffffffff\n      and\n      dup2\n      mstore\n      0x20\n      add\n      swap1\n      dup2\n      mstore\n      0x20\n      add\n      0x00\n      keccak256\n        /* \"contracts/BaseContract.sol\":10726:10762  kamuKurumlari[_kamuKurumuAdres].isim */\n      0x01\n      add\n        /* \"contracts/BaseContract.sol\":10726:10770  kamuKurumlari[_kamuKurumuAdres].isim = _isim */\n      swap1\n      dup1\n      mload\n      swap1\n      0x20\n      add\n      swap1\n      tag_604\n      swap3\n      swap2\n      swap1\n      tag_288\n      jump\t// in\n    tag_604:\n      pop\n        /* \"contracts/BaseContract.sol\":10820:10825  _ulke */\n      dup1\n        /* \"contracts/BaseContract.sol\":10781:10794  kamuKurumlari */\n      0x08\n        /* \"contracts/BaseContract.sol\":10781:10812  kamuKurumlari[_kamuKurumuAdres] */\n      0x00\n        /* \"contracts/BaseContract.sol\":10795:10811  _kamuKurumuAdres */\n      dup6\n        /* \"contracts/BaseContract.sol\":10781:10812  kamuKurumlari[_kamuKurumuAdres] */\n      0xffffffffffffffffffffffffffffffffffffffff\n      and\n      0xffffffffffffffffffffffffffffffffffffffff\n      and\n      dup2\n      mstore\n      0x20\n      add\n      swap1\n      dup2\n      mstore\n      0x20\n      add\n      0x00\n      keccak256\n        /* \"contracts/BaseContract.sol\":10781:10817  kamuKurumlari[_kamuKurumuAdres].ulke */\n      0x02\n      add\n      0x00\n        /* \"contracts/BaseContract.sol\":10781:10825  kamuKurumlari[_kamuKurumuAdres].ulke = _ulke */\n      0x0100\n      exp\n      dup2\n      sload\n      dup2\n      0xff\n      mul\n      not\n      and\n      swap1\n      dup4\n      0xff\n      and\n      mul\n      or\n      swap1\n      sstore\n      pop\n        /* \"contracts/BaseContract.sol\":10836:10854  kamuKurumAdresleri */\n      0x10\n        /* \"contracts/BaseContract.sol\":10860:10876  _kamuKurumuAdres */\n      dup4\n        /* \"contracts/BaseContract.sol\":10836:10877  kamuKurumAdresleri.push(_kamuKurumuAdres) */\n      swap1\n      dup1\n      0x01\n      dup2\n      sload\n      add\n      dup1\n      dup3\n      sstore\n      dup1\n      swap2\n      pop\n      pop\n      0x01\n      swap1\n      sub\n      swap1\n      0x00\n      mstore\n      keccak256(0x00, 0x20)\n      add\n      0x00\n      swap1\n      swap2\n      swap1\n      swap2\n      swap1\n      swap2\n      0x0100\n      exp\n      dup2\n      sload\n      dup2\n      0xffffffffffffffffffffffffffffffffffffffff\n      mul\n      not\n      and\n      swap1\n      dup4\n      0xffffffffffffffffffffffffffffffffffffffff\n      and\n      mul\n      or\n      swap1\n      sstore\n      pop\n        /* \"contracts/BaseContract.sol\":10460:10887  function ekleKamuKurumu(address _kamuKurumuAdres, string memory _isim, uint8 _ulke)\r... */\n      pop\n      pop\n      pop\n      jump\t// out\n        /* \"contracts/BaseContract.sol\":8106:8469  function getSmListesi() public sadeceTOBB view returns(SertifikaMerkezi[] memory){\r... */\n    tag_279:\n        /* \"contracts/BaseContract.sol\":8161:8186  SertifikaMerkezi[] memory */\n      0x60\n        /* \"contracts/BaseContract.sol\":2379:2383  TOBB */\n      0x01\n      0x00\n      swap1\n      sload\n      swap1\n      0x0100\n      exp\n      swap1\n      div\n      0xffffffffffffffffffffffffffffffffffffffff\n      and\n        /* \"contracts/BaseContract.sol\":2365:2383  msg.sender == TOBB */\n      0xffffffffffffffffffffffffffffffffffffffff\n      and\n        /* \"contracts/BaseContract.sol\":2365:2375  msg.sender */\n      caller\n        /* \"contracts/BaseContract.sol\":2365:2383  msg.sender == TOBB */\n      0xffffffffffffffffffffffffffffffffffffffff\n      and\n      eq\n        /* \"contracts/BaseContract.sol\":2357:2443  require(msg.sender == TOBB,\r... */\n      tag_607\n      jumpi\n      mload(0x40)\n      0x08c379a000000000000000000000000000000000000000000000000000000000\n      dup2\n      mstore\n      0x04\n      add\n      tag_608\n      swap1\n      tag_521\n      jump\t// in\n    tag_608:\n      mload(0x40)\n      dup1\n      swap2\n      sub\n      swap1\n      revert\n    tag_607:\n        /* \"contracts/BaseContract.sol\":8206:8239  SertifikaMerkezi [] memory result */\n      0x00\n        /* \"contracts/BaseContract.sol\":8265:8276  smAdresleri */\n      0x12\n        /* \"contracts/BaseContract.sol\":8265:8283  smAdresleri.length */\n      dup1\n      sload\n      swap1\n      pop\n        /* \"contracts/BaseContract.sol\":8242:8284  new SertifikaMerkezi[](smAdresleri.length) */\n      0xffffffffffffffff\n      dup2\n      gt\n      iszero\n      tag_610\n      jumpi\n      tag_611\n      tag_372\n      jump\t// in\n    tag_611:\n    tag_610:\n      mload(0x40)\n      swap1\n      dup1\n      dup3\n      mstore\n      dup1\n      0x20\n      mul\n      0x20\n      add\n      dup3\n      add\n      0x40\n      mstore\n      dup1\n      iszero\n      tag_612\n      jumpi\n      dup2\n      0x20\n      add\n    tag_613:\n      tag_614\n      tag_615\n      jump\t// in\n    tag_614:\n      dup2\n      mstore\n      0x20\n      add\n      swap1\n      0x01\n      swap1\n      sub\n      swap1\n      dup2\n      tag_613\n      jumpi\n      swap1\n      pop\n    tag_612:\n      pop\n        /* \"contracts/BaseContract.sol\":8206:8284  SertifikaMerkezi [] memory result = new SertifikaMerkezi[](smAdresleri.length) */\n      swap1\n      pop\n        /* \"contracts/BaseContract.sol\":8295:8305  uint index */\n      0x00\n        /* \"contracts/BaseContract.sol\":8322:8328  uint i */\n      dup1\n        /* \"contracts/BaseContract.sol\":8318:8438  for(uint i = 0; i< smAdresleri.length; i++){\r... */\n    tag_616:\n        /* \"contracts/BaseContract.sol\":8337:8348  smAdresleri */\n      0x12\n        /* \"contracts/BaseContract.sol\":8337:8355  smAdresleri.length */\n      dup1\n      sload\n      swap1\n      pop\n        /* \"contracts/BaseContract.sol\":8334:8335  i */\n      dup2\n        /* \"contracts/BaseContract.sol\":8334:8355  i< smAdresleri.length */\n      lt\n        /* \"contracts/BaseContract.sol\":8318:8438  for(uint i = 0; i< smAdresleri.length; i++){\r... */\n      iszero\n      tag_617\n      jumpi\n        /* \"contracts/BaseContract.sol\":8391:8410  sertifikaMerkezleri */\n      0x0a\n        /* \"contracts/BaseContract.sol\":8391:8426  sertifikaMerkezleri[smAdresleri[i]] */\n      0x00\n        /* \"contracts/BaseContract.sol\":8411:8422  smAdresleri */\n      0x12\n        /* \"contracts/BaseContract.sol\":8423:8424  i */\n      dup4\n        /* \"contracts/BaseContract.sol\":8411:8425  smAdresleri[i] */\n      dup2\n      sload\n      dup2\n      lt\n      tag_619\n      jumpi\n      tag_620\n      tag_382\n      jump\t// in\n    tag_620:\n    tag_619:\n      swap1\n      0x00\n      mstore\n      keccak256(0x00, 0x20)\n      add\n      0x00\n      swap1\n      sload\n      swap1\n      0x0100\n      exp\n      swap1\n      div\n      0xffffffffffffffffffffffffffffffffffffffff\n      and\n        /* \"contracts/BaseContract.sol\":8391:8426  sertifikaMerkezleri[smAdresleri[i]] */\n      0xffffffffffffffffffffffffffffffffffffffff\n      and\n      0xffffffffffffffffffffffffffffffffffffffff\n      and\n      dup2\n      mstore\n      0x20\n      add\n      swap1\n      dup2\n      mstore\n      0x20\n      add\n      0x00\n      keccak256\n        /* \"contracts/BaseContract.sol\":8375:8426  result[index++]=sertifikaMerkezleri[smAdresleri[i]] */\n      mload(0x40)\n      dup1\n      0x60\n      add\n      0x40\n      mstore\n      swap1\n      dup2\n      0x00\n      dup3\n      add\n      0x00\n      swap1\n      sload\n      swap1\n      0x0100\n      exp\n      swap1\n      div\n      0xff\n      and\n      iszero\n      iszero\n      iszero\n      iszero\n      dup2\n      mstore\n      0x20\n      add\n      0x01\n      dup3\n      add\n      dup1\n      sload\n      tag_622\n      swap1\n      tag_310\n      jump\t// in\n    tag_622:\n      dup1\n      0x1f\n      add\n      0x20\n      dup1\n      swap2\n      div\n      mul\n      0x20\n      add\n      mload(0x40)\n      swap1\n      dup2\n      add\n      0x40\n      mstore\n      dup1\n      swap3\n      swap2\n      swap1\n      dup2\n      dup2\n      mstore\n      0x20\n      add\n      dup3\n      dup1\n      sload\n      tag_623\n      swap1\n      tag_310\n      jump\t// in\n    tag_623:\n      dup1\n      iszero\n      tag_624\n      jumpi\n      dup1\n      0x1f\n      lt\n      tag_625\n      jumpi\n      0x0100\n      dup1\n      dup4\n      sload\n      div\n      mul\n      dup4\n      mstore\n      swap2\n      0x20\n      add\n      swap2\n      jump(tag_624)\n    tag_625:\n      dup3\n      add\n      swap2\n      swap1\n      0x00\n      mstore\n      keccak256(0x00, 0x20)\n      swap1\n    tag_626:\n      dup2\n      sload\n      dup2\n      mstore\n      swap1\n      0x01\n      add\n      swap1\n      0x20\n      add\n      dup1\n      dup4\n      gt\n      tag_626\n      jumpi\n      dup3\n      swap1\n      sub\n      0x1f\n      and\n      dup3\n      add\n      swap2\n    tag_624:\n      pop\n      pop\n      pop\n      pop\n      pop\n      dup2\n      mstore\n      0x20\n      add\n      0x02\n      dup3\n      add\n      0x00\n      swap1\n      sload\n      swap1\n      0x0100\n      exp\n      swap1\n      div\n      0xff\n      and\n      0xff\n      and\n      0xff\n      and\n      dup2\n      mstore\n      pop\n      pop\n        /* \"contracts/BaseContract.sol\":8375:8381  result */\n      dup4\n        /* \"contracts/BaseContract.sol\":8382:8389  index++ */\n      dup4\n      dup1\n      tag_627\n      swap1\n      tag_390\n      jump\t// in\n    tag_627:\n      swap5\n      pop\n        /* \"contracts/BaseContract.sol\":8375:8390  result[index++] */\n      dup2\n      mload\n      dup2\n      lt\n      tag_628\n      jumpi\n      tag_629\n      tag_382\n      jump\t// in\n    tag_629:\n    tag_628:\n      0x20\n      mul\n      0x20\n      add\n      add\n        /* \"contracts/BaseContract.sol\":8375:8426  result[index++]=sertifikaMerkezleri[smAdresleri[i]] */\n      dup2\n      swap1\n      mstore\n      pop\n        /* \"contracts/BaseContract.sol\":8357:8360  i++ */\n      dup1\n      dup1\n      tag_630\n      swap1\n      tag_390\n      jump\t// in\n    tag_630:\n      swap2\n      pop\n      pop\n        /* \"contracts/BaseContract.sol\":8318:8438  for(uint i = 0; i< smAdresleri.length; i++){\r... */\n      jump(tag_616)\n    tag_617:\n      pop\n        /* \"contracts/BaseContract.sol\":8455:8461  result */\n      dup2\n        /* \"contracts/BaseContract.sol\":8448:8461  return result */\n      swap3\n      pop\n      pop\n      pop\n        /* \"contracts/BaseContract.sol\":8106:8469  function getSmListesi() public sadeceTOBB view returns(SertifikaMerkezi[] memory){\r... */\n      swap1\n      jump\t// out\n    tag_288:\n      dup3\n      dup1\n      sload\n      tag_631\n      swap1\n      tag_310\n      jump\t// in\n    tag_631:\n      swap1\n      0x00\n      mstore\n      keccak256(0x00, 0x20)\n      swap1\n      0x1f\n      add\n      0x20\n      swap1\n      div\n      dup2\n      add\n      swap3\n      dup3\n      tag_633\n      jumpi\n      0x00\n      dup6\n      sstore\n      jump(tag_632)\n    tag_633:\n      dup3\n      0x1f\n      lt\n      tag_634\n      jumpi\n      dup1\n      mload\n      not(0xff)\n      and\n      dup4\n      dup1\n      add\n      or\n      dup6\n      sstore\n      jump(tag_632)\n    tag_634:\n      dup3\n      dup1\n      add\n      0x01\n      add\n      dup6\n      sstore\n      dup3\n      iszero\n      tag_632\n      jumpi\n      swap2\n      dup3\n      add\n    tag_635:\n      dup3\n      dup2\n      gt\n      iszero\n      tag_636\n      jumpi\n      dup3\n      mload\n      dup3\n      sstore\n      swap2\n      0x20\n      add\n      swap2\n      swap1\n      0x01\n      add\n      swap1\n      jump(tag_635)\n    tag_636:\n    tag_632:\n      pop\n      swap1\n      pop\n      tag_637\n      swap2\n      swap1\n      tag_638\n      jump\t// in\n    tag_637:\n      pop\n      swap1\n      jump\t// out\n    tag_321:\n      pop\n      dup1\n      sload\n      tag_639\n      swap1\n      tag_310\n      jump\t// in\n    tag_639:\n      0x00\n      dup3\n      sstore\n      dup1\n      0x1f\n      lt\n      tag_641\n      jumpi\n      pop\n      jump(tag_640)\n    tag_641:\n      0x1f\n      add\n      0x20\n      swap1\n      div\n      swap1\n      0x00\n      mstore\n      keccak256(0x00, 0x20)\n      swap1\n      dup2\n      add\n      swap1\n      tag_642\n      swap2\n      swap1\n      tag_638\n      jump\t// in\n    tag_642:\n    tag_640:\n      pop\n      jump\t// out\n    tag_376:\n      mload(0x40)\n      dup1\n      0x60\n      add\n      0x40\n      mstore\n      dup1\n      iszero(iszero(0x00))\n      dup2\n      mstore\n      0x20\n      add\n      0x60\n      dup2\n      mstore\n      0x20\n      add\n      and(0xff, 0x00)\n      dup2\n      mstore\n      pop\n      swap1\n      jump\t// out\n    tag_428:\n      mload(0x40)\n      dup1\n      0x60\n      add\n      0x40\n      mstore\n      dup1\n      iszero(iszero(0x00))\n      dup2\n      mstore\n      0x20\n      add\n      0x60\n      dup2\n      mstore\n      0x20\n      add\n      and(0xff, 0x00)\n      dup2\n      mstore\n      pop\n      swap1\n      jump\t// out\n    tag_495:\n      mload(0x40)\n      dup1\n      0x60\n      add\n      0x40\n      mstore\n      dup1\n      iszero(iszero(0x00))\n      dup2\n      mstore\n      0x20\n      add\n      0x60\n      dup2\n      mstore\n      0x20\n      add\n      and(0xff, 0x00)\n      dup2\n      mstore\n      pop\n      swap1\n      jump\t// out\n    tag_528:\n      mload(0x40)\n      dup1\n      0x80\n      add\n      0x40\n      mstore\n      dup1\n      iszero(iszero(0x00))\n      dup2\n      mstore\n      0x20\n      add\n      and(0xff, 0x00)\n      dup2\n      mstore\n      0x20\n      add\n      0x00\n      dup2\n      mstore\n      0x20\n      add\n      0x60\n      dup2\n      mstore\n      pop\n      swap1\n      jump\t// out\n    tag_558:\n      mload(0x40)\n      dup1\n      0x60\n      add\n      0x40\n      mstore\n      dup1\n      iszero(iszero(0x00))\n      dup2\n      mstore\n      0x20\n      add\n      0x60\n      dup2\n      mstore\n      0x20\n      add\n      and(0xff, 0x00)\n      dup2\n      mstore\n      pop\n      swap1\n      jump\t// out\n    tag_615:\n      mload(0x40)\n      dup1\n      0x60\n      add\n      0x40\n      mstore\n      dup1\n      iszero(iszero(0x00))\n      dup2\n      mstore\n      0x20\n      add\n      0x60\n      dup2\n      mstore\n      0x20\n      add\n      and(0xff, 0x00)\n      dup2\n      mstore\n      pop\n      swap1\n      jump\t// out\n    tag_638:\n    tag_643:\n      dup1\n      dup3\n      gt\n      iszero\n      tag_644\n      jumpi\n      0x00\n      dup2\n      0x00\n      swap1\n      sstore\n      pop\n      0x01\n      add\n      jump(tag_643)\n    tag_644:\n      pop\n      swap1\n      jump\t// out\n        /* \"#utility.yul\":7:419   */\n    tag_646:\n        /* \"#utility.yul\":85:90   */\n      0x00\n        /* \"#utility.yul\":110:176   */\n      tag_648\n        /* \"#utility.yul\":126:175   */\n      tag_649\n        /* \"#utility.yul\":168:174   */\n      dup5\n        /* \"#utility.yul\":126:175   */\n      tag_650\n      jump\t// in\n    tag_649:\n        /* \"#utility.yul\":110:176   */\n      tag_651\n      jump\t// in\n    tag_648:\n        /* \"#utility.yul\":101:176   */\n      swap1\n      pop\n        /* \"#utility.yul\":199:205   */\n      dup3\n        /* \"#utility.yul\":192:197   */\n      dup2\n        /* \"#utility.yul\":185:206   */\n      mstore\n        /* \"#utility.yul\":237:241   */\n      0x20\n        /* \"#utility.yul\":230:235   */\n      dup2\n        /* \"#utility.yul\":226:242   */\n      add\n        /* \"#utility.yul\":275:278   */\n      dup5\n        /* \"#utility.yul\":266:272   */\n      dup5\n        /* \"#utility.yul\":261:264   */\n      dup5\n        /* \"#utility.yul\":257:273   */\n      add\n        /* \"#utility.yul\":254:279   */\n      gt\n        /* \"#utility.yul\":251:363   */\n      iszero\n      tag_652\n      jumpi\n        /* \"#utility.yul\":282:361   */\n      tag_653\n      tag_654\n      jump\t// in\n    tag_653:\n        /* \"#utility.yul\":251:363   */\n    tag_652:\n        /* \"#utility.yul\":372:413   */\n      tag_655\n        /* \"#utility.yul\":406:412   */\n      dup5\n        /* \"#utility.yul\":401:404   */\n      dup3\n        /* \"#utility.yul\":396:399   */\n      dup6\n        /* \"#utility.yul\":372:413   */\n      tag_656\n      jump\t// in\n    tag_655:\n        /* \"#utility.yul\":91:419   */\n      pop\n        /* \"#utility.yul\":7:419   */\n      swap4\n      swap3\n      pop\n      pop\n      pop\n      jump\t// out\n        /* \"#utility.yul\":425:564   */\n    tag_657:\n        /* \"#utility.yul\":471:476   */\n      0x00\n        /* \"#utility.yul\":509:515   */\n      dup2\n        /* \"#utility.yul\":496:516   */\n      calldataload\n        /* \"#utility.yul\":487:516   */\n      swap1\n      pop\n        /* \"#utility.yul\":525:558   */\n      tag_659\n        /* \"#utility.yul\":552:557   */\n      dup2\n        /* \"#utility.yul\":525:558   */\n      tag_660\n      jump\t// in\n    tag_659:\n        /* \"#utility.yul\":425:564   */\n      swap3\n      swap2\n      pop\n      pop\n      jump\t// out\n        /* \"#utility.yul\":570:703   */\n    tag_661:\n        /* \"#utility.yul\":613:618   */\n      0x00\n        /* \"#utility.yul\":651:657   */\n      dup2\n        /* \"#utility.yul\":638:658   */\n      calldataload\n        /* \"#utility.yul\":629:658   */\n      swap1\n      pop\n        /* \"#utility.yul\":667:697   */\n      tag_663\n        /* \"#utility.yul\":691:696   */\n      dup2\n        /* \"#utility.yul\":667:697   */\n      tag_664\n      jump\t// in\n    tag_663:\n        /* \"#utility.yul\":570:703   */\n      swap3\n      swap2\n      pop\n      pop\n      jump\t// out\n        /* \"#utility.yul\":723:1063   */\n    tag_665:\n        /* \"#utility.yul\":779:784   */\n      0x00\n        /* \"#utility.yul\":828:831   */\n      dup3\n        /* \"#utility.yul\":821:825   */\n      0x1f\n        /* \"#utility.yul\":813:819   */\n      dup4\n        /* \"#utility.yul\":809:826   */\n      add\n        /* \"#utility.yul\":805:832   */\n      slt\n        /* \"#utility.yul\":795:917   */\n      tag_667\n      jumpi\n        /* \"#utility.yul\":836:915   */\n      tag_668\n      tag_669\n      jump\t// in\n    tag_668:\n        /* \"#utility.yul\":795:917   */\n    tag_667:\n        /* \"#utility.yul\":953:959   */\n      dup2\n        /* \"#utility.yul\":940:960   */\n      calldataload\n        /* \"#utility.yul\":978:1057   */\n      tag_670\n        /* \"#utility.yul\":1053:1056   */\n      dup5\n        /* \"#utility.yul\":1045:1051   */\n      dup3\n        /* \"#utility.yul\":1038:1042   */\n      0x20\n        /* \"#utility.yul\":1030:1036   */\n      dup7\n        /* \"#utility.yul\":1026:1043   */\n      add\n        /* \"#utility.yul\":978:1057   */\n      tag_646\n      jump\t// in\n    tag_670:\n        /* \"#utility.yul\":969:1057   */\n      swap2\n      pop\n        /* \"#utility.yul\":785:1063   */\n      pop\n        /* \"#utility.yul\":723:1063   */\n      swap3\n      swap2\n      pop\n      pop\n      jump\t// out\n        /* \"#utility.yul\":1069:1208   */\n    tag_671:\n        /* \"#utility.yul\":1115:1120   */\n      0x00\n        /* \"#utility.yul\":1153:1159   */\n      dup2\n        /* \"#utility.yul\":1140:1160   */\n      calldataload\n        /* \"#utility.yul\":1131:1160   */\n      swap1\n      pop\n        /* \"#utility.yul\":1169:1202   */\n      tag_673\n        /* \"#utility.yul\":1196:1201   */\n      dup2\n        /* \"#utility.yul\":1169:1202   */\n      tag_674\n      jump\t// in\n    tag_673:\n        /* \"#utility.yul\":1069:1208   */\n      swap3\n      swap2\n      pop\n      pop\n      jump\t// out\n        /* \"#utility.yul\":1214:1351   */\n    tag_675:\n        /* \"#utility.yul\":1259:1264   */\n      0x00\n        /* \"#utility.yul\":1297:1303   */\n      dup2\n        /* \"#utility.yul\":1284:1304   */\n      calldataload\n        /* \"#utility.yul\":1275:1304   */\n      swap1\n      pop\n        /* \"#utility.yul\":1313:1345   */\n      tag_677\n        /* \"#utility.yul\":1339:1344   */\n      dup2\n        /* \"#utility.yul\":1313:1345   */\n      tag_678\n      jump\t// in\n    tag_677:\n        /* \"#utility.yul\":1214:1351   */\n      swap3\n      swap2\n      pop\n      pop\n      jump\t// out\n        /* \"#utility.yul\":1357:1492   */\n    tag_679:\n        /* \"#utility.yul\":1401:1406   */\n      0x00\n        /* \"#utility.yul\":1439:1445   */\n      dup2\n        /* \"#utility.yul\":1426:1446   */\n      calldataload\n        /* \"#utility.yul\":1417:1446   */\n      swap1\n      pop\n        /* \"#utility.yul\":1455:1486   */\n      tag_681\n        /* \"#utility.yul\":1480:1485   */\n      dup2\n        /* \"#utility.yul\":1455:1486   */\n      tag_682\n      jump\t// in\n    tag_681:\n        /* \"#utility.yul\":1357:1492   */\n      swap3\n      swap2\n      pop\n      pop\n      jump\t// out\n        /* \"#utility.yul\":1498:1827   */\n    tag_78:\n        /* \"#utility.yul\":1557:1563   */\n      0x00\n        /* \"#utility.yul\":1606:1608   */\n      0x20\n        /* \"#utility.yul\":1594:1603   */\n      dup3\n        /* \"#utility.yul\":1585:1592   */\n      dup5\n        /* \"#utility.yul\":1581:1604   */\n      sub\n        /* \"#utility.yul\":1577:1609   */\n      slt\n        /* \"#utility.yul\":1574:1693   */\n      iszero\n      tag_684\n      jumpi\n        /* \"#utility.yul\":1612:1691   */\n      tag_685\n      tag_686\n      jump\t// in\n    tag_685:\n        /* \"#utility.yul\":1574:1693   */\n    tag_684:\n        /* \"#utility.yul\":1732:1733   */\n      0x00\n        /* \"#utility.yul\":1757:1810   */\n      tag_687\n        /* \"#utility.yul\":1802:1809   */\n      dup5\n        /* \"#utility.yul\":1793:1799   */\n      dup3\n        /* \"#utility.yul\":1782:1791   */\n      dup6\n        /* \"#utility.yul\":1778:1800   */\n      add\n        /* \"#utility.yul\":1757:1810   */\n      tag_657\n      jump\t// in\n    tag_687:\n        /* \"#utility.yul\":1747:1810   */\n      swap2\n      pop\n        /* \"#utility.yul\":1703:1820   */\n      pop\n        /* \"#utility.yul\":1498:1827   */\n      swap3\n      swap2\n      pop\n      pop\n      jump\t// out\n        /* \"#utility.yul\":1833:2452   */\n    tag_128:\n        /* \"#utility.yul\":1910:1916   */\n      0x00\n        /* \"#utility.yul\":1918:1924   */\n      dup1\n        /* \"#utility.yul\":1926:1932   */\n      0x00\n        /* \"#utility.yul\":1975:1977   */\n      0x60\n        /* \"#utility.yul\":1963:1972   */\n      dup5\n        /* \"#utility.yul\":1954:1961   */\n      dup7\n        /* \"#utility.yul\":1950:1973   */\n      sub\n        /* \"#utility.yul\":1946:1978   */\n      slt\n        /* \"#utility.yul\":1943:2062   */\n      iszero\n      tag_689\n      jumpi\n        /* \"#utility.yul\":1981:2060   */\n      tag_690\n      tag_686\n      jump\t// in\n    tag_690:\n        /* \"#utility.yul\":1943:2062   */\n    tag_689:\n        /* \"#utility.yul\":2101:2102   */\n      0x00\n        /* \"#utility.yul\":2126:2179   */\n      tag_691\n        /* \"#utility.yul\":2171:2178   */\n      dup7\n        /* \"#utility.yul\":2162:2168   */\n      dup3\n        /* \"#utility.yul\":2151:2160   */\n      dup8\n        /* \"#utility.yul\":2147:2169   */\n      add\n        /* \"#utility.yul\":2126:2179   */\n      tag_657\n      jump\t// in\n    tag_691:\n        /* \"#utility.yul\":2116:2179   */\n      swap4\n      pop\n        /* \"#utility.yul\":2072:2189   */\n      pop\n        /* \"#utility.yul\":2228:2230   */\n      0x20\n        /* \"#utility.yul\":2254:2307   */\n      tag_692\n        /* \"#utility.yul\":2299:2306   */\n      dup7\n        /* \"#utility.yul\":2290:2296   */\n      dup3\n        /* \"#utility.yul\":2279:2288   */\n      dup8\n        /* \"#utility.yul\":2275:2297   */\n      add\n        /* \"#utility.yul\":2254:2307   */\n      tag_657\n      jump\t// in\n    tag_692:\n        /* \"#utility.yul\":2244:2307   */\n      swap3\n      pop\n        /* \"#utility.yul\":2199:2317   */\n      pop\n        /* \"#utility.yul\":2356:2358   */\n      0x40\n        /* \"#utility.yul\":2382:2435   */\n      tag_693\n        /* \"#utility.yul\":2427:2434   */\n      dup7\n        /* \"#utility.yul\":2418:2424   */\n      dup3\n        /* \"#utility.yul\":2407:2416   */\n      dup8\n        /* \"#utility.yul\":2403:2425   */\n      add\n        /* \"#utility.yul\":2382:2435   */\n      tag_657\n      jump\t// in\n    tag_693:\n        /* \"#utility.yul\":2372:2435   */\n      swap2\n      pop\n        /* \"#utility.yul\":2327:2445   */\n      pop\n        /* \"#utility.yul\":1833:2452   */\n      swap3\n      pop\n      swap3\n      pop\n      swap3\n      jump\t// out\n        /* \"#utility.yul\":2458:2926   */\n    tag_270:\n        /* \"#utility.yul\":2523:2529   */\n      0x00\n        /* \"#utility.yul\":2531:2537   */\n      dup1\n        /* \"#utility.yul\":2580:2582   */\n      0x40\n        /* \"#utility.yul\":2568:2577   */\n      dup4\n        /* \"#utility.yul\":2559:2566   */\n      dup6\n        /* \"#utility.yul\":2555:2578   */\n      sub\n        /* \"#utility.yul\":2551:2583   */\n      slt\n        /* \"#utility.yul\":2548:2667   */\n      iszero\n      tag_695\n      jumpi\n        /* \"#utility.yul\":2586:2665   */\n      tag_696\n      tag_686\n      jump\t// in\n    tag_696:\n        /* \"#utility.yul\":2548:2667   */\n    tag_695:\n        /* \"#utility.yul\":2706:2707   */\n      0x00\n        /* \"#utility.yul\":2731:2784   */\n      tag_697\n        /* \"#utility.yul\":2776:2783   */\n      dup6\n        /* \"#utility.yul\":2767:2773   */\n      dup3\n        /* \"#utility.yul\":2756:2765   */\n      dup7\n        /* \"#utility.yul\":2752:2774   */\n      add\n        /* \"#utility.yul\":2731:2784   */\n      tag_657\n      jump\t// in\n    tag_697:\n        /* \"#utility.yul\":2721:2784   */\n      swap3\n      pop\n        /* \"#utility.yul\":2677:2794   */\n      pop\n        /* \"#utility.yul\":2833:2835   */\n      0x20\n        /* \"#utility.yul\":2859:2909   */\n      tag_698\n        /* \"#utility.yul\":2901:2908   */\n      dup6\n        /* \"#utility.yul\":2892:2898   */\n      dup3\n        /* \"#utility.yul\":2881:2890   */\n      dup7\n        /* \"#utility.yul\":2877:2899   */\n      add\n        /* \"#utility.yul\":2859:2909   */\n      tag_661\n      jump\t// in\n    tag_698:\n        /* \"#utility.yul\":2849:2909   */\n      swap2\n      pop\n        /* \"#utility.yul\":2804:2919   */\n      pop\n        /* \"#utility.yul\":2458:2926   */\n      swap3\n      pop\n      swap3\n      swap1\n      pop\n      jump\t// out\n        /* \"#utility.yul\":2932:3873   */\n    tag_188:\n        /* \"#utility.yul\":3026:3032   */\n      0x00\n        /* \"#utility.yul\":3034:3040   */\n      dup1\n        /* \"#utility.yul\":3042:3048   */\n      0x00\n        /* \"#utility.yul\":3050:3056   */\n      dup1\n        /* \"#utility.yul\":3099:3102   */\n      0x80\n        /* \"#utility.yul\":3087:3096   */\n      dup6\n        /* \"#utility.yul\":3078:3085   */\n      dup8\n        /* \"#utility.yul\":3074:3097   */\n      sub\n        /* \"#utility.yul\":3070:3103   */\n      slt\n        /* \"#utility.yul\":3067:3187   */\n      iszero\n      tag_700\n      jumpi\n        /* \"#utility.yul\":3106:3185   */\n      tag_701\n      tag_686\n      jump\t// in\n    tag_701:\n        /* \"#utility.yul\":3067:3187   */\n    tag_700:\n        /* \"#utility.yul\":3226:3227   */\n      0x00\n        /* \"#utility.yul\":3251:3304   */\n      tag_702\n        /* \"#utility.yul\":3296:3303   */\n      dup8\n        /* \"#utility.yul\":3287:3293   */\n      dup3\n        /* \"#utility.yul\":3276:3285   */\n      dup9\n        /* \"#utility.yul\":3272:3294   */\n      add\n        /* \"#utility.yul\":3251:3304   */\n      tag_657\n      jump\t// in\n    tag_702:\n        /* \"#utility.yul\":3241:3304   */\n      swap5\n      pop\n        /* \"#utility.yul\":3197:3314   */\n      pop\n        /* \"#utility.yul\":3381:3383   */\n      0x20\n        /* \"#utility.yul\":3370:3379   */\n      dup6\n        /* \"#utility.yul\":3366:3384   */\n      add\n        /* \"#utility.yul\":3353:3385   */\n      calldataload\n        /* \"#utility.yul\":3412:3430   */\n      0xffffffffffffffff\n        /* \"#utility.yul\":3404:3410   */\n      dup2\n        /* \"#utility.yul\":3401:3431   */\n      gt\n        /* \"#utility.yul\":3398:3515   */\n      iszero\n      tag_703\n      jumpi\n        /* \"#utility.yul\":3434:3513   */\n      tag_704\n      tag_705\n      jump\t// in\n    tag_704:\n        /* \"#utility.yul\":3398:3515   */\n    tag_703:\n        /* \"#utility.yul\":3539:3602   */\n      tag_706\n        /* \"#utility.yul\":3594:3601   */\n      dup8\n        /* \"#utility.yul\":3585:3591   */\n      dup3\n        /* \"#utility.yul\":3574:3583   */\n      dup9\n        /* \"#utility.yul\":3570:3592   */\n      add\n        /* \"#utility.yul\":3539:3602   */\n      tag_665\n      jump\t// in\n    tag_706:\n        /* \"#utility.yul\":3529:3602   */\n      swap4\n      pop\n        /* \"#utility.yul\":3324:3612   */\n      pop\n        /* \"#utility.yul\":3651:3653   */\n      0x40\n        /* \"#utility.yul\":3677:3730   */\n      tag_707\n        /* \"#utility.yul\":3722:3729   */\n      dup8\n        /* \"#utility.yul\":3713:3719   */\n      dup3\n        /* \"#utility.yul\":3702:3711   */\n      dup9\n        /* \"#utility.yul\":3698:3720   */\n      add\n        /* \"#utility.yul\":3677:3730   */\n      tag_671\n      jump\t// in\n    tag_707:\n        /* \"#utility.yul\":3667:3730   */\n      swap3\n      pop\n        /* \"#utility.yul\":3622:3740   */\n      pop\n        /* \"#utility.yul\":3779:3781   */\n      0x60\n        /* \"#utility.yul\":3805:3856   */\n      tag_708\n        /* \"#utility.yul\":3848:3855   */\n      dup8\n        /* \"#utility.yul\":3839:3845   */\n      dup3\n        /* \"#utility.yul\":3828:3837   */\n      dup9\n        /* \"#utility.yul\":3824:3846   */\n      add\n        /* \"#utility.yul\":3805:3856   */\n      tag_679\n      jump\t// in\n    tag_708:\n        /* \"#utility.yul\":3795:3856   */\n      swap2\n      pop\n        /* \"#utility.yul\":3750:3866   */\n      pop\n        /* \"#utility.yul\":2932:3873   */\n      swap3\n      swap6\n      swap2\n      swap5\n      pop\n      swap3\n      pop\n      jump\t// out\n        /* \"#utility.yul\":3879:4674   */\n    tag_74:\n        /* \"#utility.yul\":3964:3970   */\n      0x00\n        /* \"#utility.yul\":3972:3978   */\n      dup1\n        /* \"#utility.yul\":3980:3986   */\n      0x00\n        /* \"#utility.yul\":4029:4031   */\n      0x60\n        /* \"#utility.yul\":4017:4026   */\n      dup5\n        /* \"#utility.yul\":4008:4015   */\n      dup7\n        /* \"#utility.yul\":4004:4027   */\n      sub\n        /* \"#utility.yul\":4000:4032   */\n      slt\n        /* \"#utility.yul\":3997:4116   */\n      iszero\n      tag_710\n      jumpi\n        /* \"#utility.yul\":4035:4114   */\n      tag_711\n      tag_686\n      jump\t// in\n    tag_711:\n        /* \"#utility.yul\":3997:4116   */\n    tag_710:\n        /* \"#utility.yul\":4155:4156   */\n      0x00\n        /* \"#utility.yul\":4180:4233   */\n      tag_712\n        /* \"#utility.yul\":4225:4232   */\n      dup7\n        /* \"#utility.yul\":4216:4222   */\n      dup3\n        /* \"#utility.yul\":4205:4214   */\n      dup8\n        /* \"#utility.yul\":4201:4223   */\n      add\n        /* \"#utility.yul\":4180:4233   */\n      tag_657\n      jump\t// in\n    tag_712:\n        /* \"#utility.yul\":4170:4233   */\n      swap4\n      pop\n        /* \"#utility.yul\":4126:4243   */\n      pop\n        /* \"#utility.yul\":4310:4312   */\n      0x20\n        /* \"#utility.yul\":4299:4308   */\n      dup5\n        /* \"#utility.yul\":4295:4313   */\n      add\n        /* \"#utility.yul\":4282:4314   */\n      calldataload\n        /* \"#utility.yul\":4341:4359   */\n      0xffffffffffffffff\n        /* \"#utility.yul\":4333:4339   */\n      dup2\n        /* \"#utility.yul\":4330:4360   */\n      gt\n        /* \"#utility.yul\":4327:4444   */\n      iszero\n      tag_713\n      jumpi\n        /* \"#utility.yul\":4363:4442   */\n      tag_714\n      tag_705\n      jump\t// in\n    tag_714:\n        /* \"#utility.yul\":4327:4444   */\n    tag_713:\n        /* \"#utility.yul\":4468:4531   */\n      tag_715\n        /* \"#utility.yul\":4523:4530   */\n      dup7\n        /* \"#utility.yul\":4514:4520   */\n      dup3\n        /* \"#utility.yul\":4503:4512   */\n      dup8\n        /* \"#utility.yul\":4499:4521   */\n      add\n        /* \"#utility.yul\":4468:4531   */\n      tag_665\n      jump\t// in\n    tag_715:\n        /* \"#utility.yul\":4458:4531   */\n      swap3\n      pop\n        /* \"#utility.yul\":4253:4541   */\n      pop\n        /* \"#utility.yul\":4580:4582   */\n      0x40\n        /* \"#utility.yul\":4606:4657   */\n      tag_716\n        /* \"#utility.yul\":4649:4656   */\n      dup7\n        /* \"#utility.yul\":4640:4646   */\n      dup3\n        /* \"#utility.yul\":4629:4638   */\n      dup8\n        /* \"#utility.yul\":4625:4647   */\n      add\n        /* \"#utility.yul\":4606:4657   */\n      tag_679\n      jump\t// in\n    tag_716:\n        /* \"#utility.yul\":4596:4657   */\n      swap2\n      pop\n        /* \"#utility.yul\":4551:4667   */\n      pop\n        /* \"#utility.yul\":3879:4674   */\n      swap3\n      pop\n      swap3\n      pop\n      swap3\n      jump\t// out\n        /* \"#utility.yul\":4680:5009   */\n    tag_84:\n        /* \"#utility.yul\":4739:4745   */\n      0x00\n        /* \"#utility.yul\":4788:4790   */\n      0x20\n        /* \"#utility.yul\":4776:4785   */\n      dup3\n        /* \"#utility.yul\":4767:4774   */\n      dup5\n        /* \"#utility.yul\":4763:4786   */\n      sub\n        /* \"#utility.yul\":4759:4791   */\n      slt\n        /* \"#utility.yul\":4756:4875   */\n      iszero\n      tag_718\n      jumpi\n        /* \"#utility.yul\":4794:4873   */\n      tag_719\n      tag_686\n      jump\t// in\n    tag_719:\n        /* \"#utility.yul\":4756:4875   */\n    tag_718:\n        /* \"#utility.yul\":4914:4915   */\n      0x00\n        /* \"#utility.yul\":4939:4992   */\n      tag_720\n        /* \"#utility.yul\":4984:4991   */\n      dup5\n        /* \"#utility.yul\":4975:4981   */\n      dup3\n        /* \"#utility.yul\":4964:4973   */\n      dup6\n        /* \"#utility.yul\":4960:4982   */\n      add\n        /* \"#utility.yul\":4939:4992   */\n      tag_671\n      jump\t// in\n    tag_720:\n        /* \"#utility.yul\":4929:4992   */\n      swap2\n      pop\n        /* \"#utility.yul\":4885:5002   */\n      pop\n        /* \"#utility.yul\":4680:5009   */\n      swap3\n      swap2\n      pop\n      pop\n      jump\t// out\n        /* \"#utility.yul\":5015:5342   */\n    tag_182:\n        /* \"#utility.yul\":5073:5079   */\n      0x00\n        /* \"#utility.yul\":5122:5124   */\n      0x20\n        /* \"#utility.yul\":5110:5119   */\n      dup3\n        /* \"#utility.yul\":5101:5108   */\n      dup5\n        /* \"#utility.yul\":5097:5120   */\n      sub\n        /* \"#utility.yul\":5093:5125   */\n      slt\n        /* \"#utility.yul\":5090:5209   */\n      iszero\n      tag_722\n      jumpi\n        /* \"#utility.yul\":5128:5207   */\n      tag_723\n      tag_686\n      jump\t// in\n    tag_723:\n        /* \"#utility.yul\":5090:5209   */\n    tag_722:\n        /* \"#utility.yul\":5248:5249   */\n      0x00\n        /* \"#utility.yul\":5273:5325   */\n      tag_724\n        /* \"#utility.yul\":5317:5324   */\n      dup5\n        /* \"#utility.yul\":5308:5314   */\n      dup3\n        /* \"#utility.yul\":5297:5306   */\n      dup6\n        /* \"#utility.yul\":5293:5315   */\n      add\n        /* \"#utility.yul\":5273:5325   */\n      tag_675\n      jump\t// in\n    tag_724:\n        /* \"#utility.yul\":5263:5325   */\n      swap2\n      pop\n        /* \"#utility.yul\":5219:5335   */\n      pop\n        /* \"#utility.yul\":5015:5342   */\n      swap3\n      swap2\n      pop\n      pop\n      jump\t// out\n        /* \"#utility.yul\":5348:5592   */\n    tag_725:\n        /* \"#utility.yul\":5461:5471   */\n      0x00\n        /* \"#utility.yul\":5496:5586   */\n      tag_727\n        /* \"#utility.yul\":5582:5585   */\n      dup4\n        /* \"#utility.yul\":5574:5580   */\n      dup4\n        /* \"#utility.yul\":5496:5586   */\n      tag_728\n      jump\t// in\n    tag_727:\n        /* \"#utility.yul\":5482:5586   */\n      swap1\n      pop\n        /* \"#utility.yul\":5348:5592   */\n      swap3\n      swap2\n      pop\n      pop\n      jump\t// out\n        /* \"#utility.yul\":5598:5862   */\n    tag_729:\n        /* \"#utility.yul\":5721:5731   */\n      0x00\n        /* \"#utility.yul\":5756:5856   */\n      tag_731\n        /* \"#utility.yul\":5852:5855   */\n      dup4\n        /* \"#utility.yul\":5844:5850   */\n      dup4\n        /* \"#utility.yul\":5756:5856   */\n      tag_732\n      jump\t// in\n    tag_731:\n        /* \"#utility.yul\":5742:5856   */\n      swap1\n      pop\n        /* \"#utility.yul\":5598:5862   */\n      swap3\n      swap2\n      pop\n      pop\n      jump\t// out\n        /* \"#utility.yul\":5868:6108   */\n    tag_733:\n        /* \"#utility.yul\":5979:5989   */\n      0x00\n        /* \"#utility.yul\":6014:6102   */\n      tag_735\n        /* \"#utility.yul\":6098:6101   */\n      dup4\n        /* \"#utility.yul\":6090:6096   */\n      dup4\n        /* \"#utility.yul\":6014:6102   */\n      tag_736\n      jump\t// in\n    tag_735:\n        /* \"#utility.yul\":6000:6102   */\n      swap1\n      pop\n        /* \"#utility.yul\":5868:6108   */\n      swap3\n      swap2\n      pop\n      pop\n      jump\t// out\n        /* \"#utility.yul\":6114:6350   */\n    tag_737:\n        /* \"#utility.yul\":6223:6233   */\n      0x00\n        /* \"#utility.yul\":6258:6344   */\n      tag_739\n        /* \"#utility.yul\":6340:6343   */\n      dup4\n        /* \"#utility.yul\":6332:6338   */\n      dup4\n        /* \"#utility.yul\":6258:6344   */\n      tag_740\n      jump\t// in\n    tag_739:\n        /* \"#utility.yul\":6244:6344   */\n      swap1\n      pop\n        /* \"#utility.yul\":6114:6350   */\n      swap3\n      swap2\n      pop\n      pop\n      jump\t// out\n        /* \"#utility.yul\":6356:6644   */\n    tag_741:\n        /* \"#utility.yul\":6491:6501   */\n      0x00\n        /* \"#utility.yul\":6526:6638   */\n      tag_743\n        /* \"#utility.yul\":6634:6637   */\n      dup4\n        /* \"#utility.yul\":6626:6632   */\n      dup4\n        /* \"#utility.yul\":6526:6638   */\n      tag_744\n      jump\t// in\n    tag_743:\n        /* \"#utility.yul\":6512:6638   */\n      swap1\n      pop\n        /* \"#utility.yul\":6356:6644   */\n      swap3\n      swap2\n      pop\n      pop\n      jump\t// out\n        /* \"#utility.yul\":6650:6910   */\n    tag_745:\n        /* \"#utility.yul\":6771:6781   */\n      0x00\n        /* \"#utility.yul\":6806:6904   */\n      tag_747\n        /* \"#utility.yul\":6900:6903   */\n      dup4\n        /* \"#utility.yul\":6892:6898   */\n      dup4\n        /* \"#utility.yul\":6806:6904   */\n      tag_748\n      jump\t// in\n    tag_747:\n        /* \"#utility.yul\":6792:6904   */\n      swap1\n      pop\n        /* \"#utility.yul\":6650:6910   */\n      swap3\n      swap2\n      pop\n      pop\n      jump\t// out\n        /* \"#utility.yul\":6916:7034   */\n    tag_749:\n        /* \"#utility.yul\":7003:7027   */\n      tag_751\n        /* \"#utility.yul\":7021:7026   */\n      dup2\n        /* \"#utility.yul\":7003:7027   */\n      tag_752\n      jump\t// in\n    tag_751:\n        /* \"#utility.yul\":6998:7001   */\n      dup3\n        /* \"#utility.yul\":6991:7028   */\n      mstore\n        /* \"#utility.yul\":6916:7034   */\n      pop\n      pop\n      jump\t// out\n        /* \"#utility.yul\":7106:8193   */\n    tag_753:\n        /* \"#utility.yul\":7269:7272   */\n      0x00\n        /* \"#utility.yul\":7298:7374   */\n      tag_755\n        /* \"#utility.yul\":7368:7373   */\n      dup3\n        /* \"#utility.yul\":7298:7374   */\n      tag_756\n      jump\t// in\n    tag_755:\n        /* \"#utility.yul\":7390:7498   */\n      tag_757\n        /* \"#utility.yul\":7491:7497   */\n      dup2\n        /* \"#utility.yul\":7486:7489   */\n      dup6\n        /* \"#utility.yul\":7390:7498   */\n      tag_758\n      jump\t// in\n    tag_757:\n        /* \"#utility.yul\":7383:7498   */\n      swap4\n      pop\n        /* \"#utility.yul\":7524:7527   */\n      dup4\n        /* \"#utility.yul\":7569:7573   */\n      0x20\n        /* \"#utility.yul\":7561:7567   */\n      dup3\n        /* \"#utility.yul\":7557:7574   */\n      mul\n        /* \"#utility.yul\":7552:7555   */\n      dup6\n        /* \"#utility.yul\":7548:7575   */\n      add\n        /* \"#utility.yul\":7599:7677   */\n      tag_759\n        /* \"#utility.yul\":7671:7676   */\n      dup6\n        /* \"#utility.yul\":7599:7677   */\n      tag_760\n      jump\t// in\n    tag_759:\n        /* \"#utility.yul\":7700:7707   */\n      dup1\n        /* \"#utility.yul\":7731:7732   */\n      0x00\n        /* \"#utility.yul\":7716:8148   */\n    tag_761:\n        /* \"#utility.yul\":7741:7747   */\n      dup6\n        /* \"#utility.yul\":7738:7739   */\n      dup2\n        /* \"#utility.yul\":7735:7748   */\n      lt\n        /* \"#utility.yul\":7716:8148   */\n      iszero\n      tag_763\n      jumpi\n        /* \"#utility.yul\":7812:7821   */\n      dup5\n        /* \"#utility.yul\":7806:7810   */\n      dup5\n        /* \"#utility.yul\":7802:7822   */\n      sub\n        /* \"#utility.yul\":7797:7800   */\n      dup10\n        /* \"#utility.yul\":7790:7823   */\n      mstore\n        /* \"#utility.yul\":7863:7869   */\n      dup2\n        /* \"#utility.yul\":7857:7870   */\n      mload\n        /* \"#utility.yul\":7891:7999   */\n      tag_764\n        /* \"#utility.yul\":7994:7998   */\n      dup6\n        /* \"#utility.yul\":7979:7992   */\n      dup3\n        /* \"#utility.yul\":7891:7999   */\n      tag_725\n      jump\t// in\n    tag_764:\n        /* \"#utility.yul\":7883:7999   */\n      swap5\n      pop\n        /* \"#utility.yul\":8022:8104   */\n      tag_765\n        /* \"#utility.yul\":8097:8103   */\n      dup4\n        /* \"#utility.yul\":8022:8104   */\n      tag_766\n      jump\t// in\n    tag_765:\n        /* \"#utility.yul\":8012:8104   */\n      swap3\n      pop\n        /* \"#utility.yul\":8133:8137   */\n      0x20\n        /* \"#utility.yul\":8128:8131   */\n      dup11\n        /* \"#utility.yul\":8124:8138   */\n      add\n        /* \"#utility.yul\":8117:8138   */\n      swap10\n      pop\n        /* \"#utility.yul\":7776:8148   */\n      pop\n        /* \"#utility.yul\":7763:7764   */\n      0x01\n        /* \"#utility.yul\":7760:7761   */\n      dup2\n        /* \"#utility.yul\":7756:7765   */\n      add\n        /* \"#utility.yul\":7751:7765   */\n      swap1\n      pop\n        /* \"#utility.yul\":7716:8148   */\n      jump(tag_761)\n    tag_763:\n        /* \"#utility.yul\":7720:7734   */\n      pop\n        /* \"#utility.yul\":8164:8168   */\n      dup3\n        /* \"#utility.yul\":8157:8168   */\n      swap8\n      pop\n        /* \"#utility.yul\":8184:8187   */\n      dup8\n        /* \"#utility.yul\":8177:8187   */\n      swap6\n      pop\n        /* \"#utility.yul\":7274:8193   */\n      pop\n      pop\n      pop\n      pop\n      pop\n        /* \"#utility.yul\":7106:8193   */\n      swap3\n      swap2\n      pop\n      pop\n      jump\t// out\n        /* \"#utility.yul\":8275:9402   */\n    tag_767:\n        /* \"#utility.yul\":8448:8451   */\n      0x00\n        /* \"#utility.yul\":8477:8558   */\n      tag_769\n        /* \"#utility.yul\":8552:8557   */\n      dup3\n        /* \"#utility.yul\":8477:8558   */\n      tag_770\n      jump\t// in\n    tag_769:\n        /* \"#utility.yul\":8574:8687   */\n      tag_771\n        /* \"#utility.yul\":8680:8686   */\n      dup2\n        /* \"#utility.yul\":8675:8678   */\n      dup6\n        /* \"#utility.yul\":8574:8687   */\n      tag_772\n      jump\t// in\n    tag_771:\n        /* \"#utility.yul\":8567:8687   */\n      swap4\n      pop\n        /* \"#utility.yul\":8713:8716   */\n      dup4\n        /* \"#utility.yul\":8758:8762   */\n      0x20\n        /* \"#utility.yul\":8750:8756   */\n      dup3\n        /* \"#utility.yul\":8746:8763   */\n      mul\n        /* \"#utility.yul\":8741:8744   */\n      dup6\n        /* \"#utility.yul\":8737:8764   */\n      add\n        /* \"#utility.yul\":8788:8871   */\n      tag_773\n        /* \"#utility.yul\":8865:8870   */\n      dup6\n        /* \"#utility.yul\":8788:8871   */\n      tag_774\n      jump\t// in\n    tag_773:\n        /* \"#utility.yul\":8894:8901   */\n      dup1\n        /* \"#utility.yul\":8925:8926   */\n      0x00\n        /* \"#utility.yul\":8910:9357   */\n    tag_775:\n        /* \"#utility.yul\":8935:8941   */\n      dup6\n        /* \"#utility.yul\":8932:8933   */\n      dup2\n        /* \"#utility.yul\":8929:8942   */\n      lt\n        /* \"#utility.yul\":8910:9357   */\n      iszero\n      tag_777\n      jumpi\n        /* \"#utility.yul\":9006:9015   */\n      dup5\n        /* \"#utility.yul\":9000:9004   */\n      dup5\n        /* \"#utility.yul\":8996:9016   */\n      sub\n        /* \"#utility.yul\":8991:8994   */\n      dup10\n        /* \"#utility.yul\":8984:9017   */\n      mstore\n        /* \"#utility.yul\":9057:9063   */\n      dup2\n        /* \"#utility.yul\":9051:9064   */\n      mload\n        /* \"#utility.yul\":9085:9203   */\n      tag_778\n        /* \"#utility.yul\":9198:9202   */\n      dup6\n        /* \"#utility.yul\":9183:9196   */\n      dup3\n        /* \"#utility.yul\":9085:9203   */\n      tag_729\n      jump\t// in\n    tag_778:\n        /* \"#utility.yul\":9077:9203   */\n      swap5\n      pop\n        /* \"#utility.yul\":9226:9313   */\n      tag_779\n        /* \"#utility.yul\":9306:9312   */\n      dup4\n        /* \"#utility.yul\":9226:9313   */\n      tag_780\n      jump\t// in\n    tag_779:\n        /* \"#utility.yul\":9216:9313   */\n      swap3\n      pop\n        /* \"#utility.yul\":9342:9346   */\n      0x20\n        /* \"#utility.yul\":9337:9340   */\n      dup11\n        /* \"#utility.yul\":9333:9347   */\n      add\n        /* \"#utility.yul\":9326:9347   */\n      swap10\n      pop\n        /* \"#utility.yul\":8970:9357   */\n      pop\n        /* \"#utility.yul\":8957:8958   */\n      0x01\n        /* \"#utility.yul\":8954:8955   */\n      dup2\n        /* \"#utility.yul\":8950:8959   */\n      add\n        /* \"#utility.yul\":8945:8959   */\n      swap1\n      pop\n        /* \"#utility.yul\":8910:9357   */\n      jump(tag_775)\n    tag_777:\n        /* \"#utility.yul\":8914:8928   */\n      pop\n        /* \"#utility.yul\":9373:9377   */\n      dup3\n        /* \"#utility.yul\":9366:9377   */\n      swap8\n      pop\n        /* \"#utility.yul\":9393:9396   */\n      dup8\n        /* \"#utility.yul\":9386:9396   */\n      swap6\n      pop\n        /* \"#utility.yul\":8453:9402   */\n      pop\n      pop\n      pop\n      pop\n      pop\n        /* \"#utility.yul\":8275:9402   */\n      swap3\n      swap2\n      pop\n      pop\n      jump\t// out\n        /* \"#utility.yul\":9472:10551   */\n    tag_781:\n        /* \"#utility.yul\":9633:9636   */\n      0x00\n        /* \"#utility.yul\":9662:9737   */\n      tag_783\n        /* \"#utility.yul\":9731:9736   */\n      dup3\n        /* \"#utility.yul\":9662:9737   */\n      tag_784\n      jump\t// in\n    tag_783:\n        /* \"#utility.yul\":9753:9860   */\n      tag_785\n        /* \"#utility.yul\":9853:9859   */\n      dup2\n        /* \"#utility.yul\":9848:9851   */\n      dup6\n        /* \"#utility.yul\":9753:9860   */\n      tag_786\n      jump\t// in\n    tag_785:\n        /* \"#utility.yul\":9746:9860   */\n      swap4\n      pop\n        /* \"#utility.yul\":9886:9889   */\n      dup4\n        /* \"#utility.yul\":9931:9935   */\n      0x20\n        /* \"#utility.yul\":9923:9929   */\n      dup3\n        /* \"#utility.yul\":9919:9936   */\n      mul\n        /* \"#utility.yul\":9914:9917   */\n      dup6\n        /* \"#utility.yul\":9910:9937   */\n      add\n        /* \"#utility.yul\":9961:10038   */\n      tag_787\n        /* \"#utility.yul\":10032:10037   */\n      dup6\n        /* \"#utility.yul\":9961:10038   */\n      tag_788\n      jump\t// in\n    tag_787:\n        /* \"#utility.yul\":10061:10068   */\n      dup1\n        /* \"#utility.yul\":10092:10093   */\n      0x00\n        /* \"#utility.yul\":10077:10506   */\n    tag_789:\n        /* \"#utility.yul\":10102:10108   */\n      dup6\n        /* \"#utility.yul\":10099:10100   */\n      dup2\n        /* \"#utility.yul\":10096:10109   */\n      lt\n        /* \"#utility.yul\":10077:10506   */\n      iszero\n      tag_791\n      jumpi\n        /* \"#utility.yul\":10173:10182   */\n      dup5\n        /* \"#utility.yul\":10167:10171   */\n      dup5\n        /* \"#utility.yul\":10163:10183   */\n      sub\n        /* \"#utility.yul\":10158:10161   */\n      dup10\n        /* \"#utility.yul\":10151:10184   */\n      mstore\n        /* \"#utility.yul\":10224:10230   */\n      dup2\n        /* \"#utility.yul\":10218:10231   */\n      mload\n        /* \"#utility.yul\":10252:10358   */\n      tag_792\n        /* \"#utility.yul\":10353:10357   */\n      dup6\n        /* \"#utility.yul\":10338:10351   */\n      dup3\n        /* \"#utility.yul\":10252:10358   */\n      tag_733\n      jump\t// in\n    tag_792:\n        /* \"#utility.yul\":10244:10358   */\n      swap5\n      pop\n        /* \"#utility.yul\":10381:10462   */\n      tag_793\n        /* \"#utility.yul\":10455:10461   */\n      dup4\n        /* \"#utility.yul\":10381:10462   */\n      tag_794\n      jump\t// in\n    tag_793:\n        /* \"#utility.yul\":10371:10462   */\n      swap3\n      pop\n        /* \"#utility.yul\":10491:10495   */\n      0x20\n        /* \"#utility.yul\":10486:10489   */\n      dup11\n        /* \"#utility.yul\":10482:10496   */\n      add\n        /* \"#utility.yul\":10475:10496   */\n      swap10\n      pop\n        /* \"#utility.yul\":10137:10506   */\n      pop\n        /* \"#utility.yul\":10124:10125   */\n      0x01\n        /* \"#utility.yul\":10121:10122   */\n      dup2\n        /* \"#utility.yul\":10117:10126   */\n      add\n        /* \"#utility.yul\":10112:10126   */\n      swap1\n      pop\n        /* \"#utility.yul\":10077:10506   */\n      jump(tag_789)\n    tag_791:\n        /* \"#utility.yul\":10081:10095   */\n      pop\n        /* \"#utility.yul\":10522:10526   */\n      dup3\n        /* \"#utility.yul\":10515:10526   */\n      swap8\n      pop\n        /* \"#utility.yul\":10542:10545   */\n      dup8\n        /* \"#utility.yul\":10535:10545   */\n      swap6\n      pop\n        /* \"#utility.yul\":9638:10551   */\n      pop\n      pop\n      pop\n      pop\n      pop\n        /* \"#utility.yul\":9472:10551   */\n      swap3\n      swap2\n      pop\n      pop\n      jump\t// out\n        /* \"#utility.yul\":10619:11690   */\n    tag_795:\n        /* \"#utility.yul\":10778:10781   */\n      0x00\n        /* \"#utility.yul\":10807:10881   */\n      tag_797\n        /* \"#utility.yul\":10875:10880   */\n      dup3\n        /* \"#utility.yul\":10807:10881   */\n      tag_798\n      jump\t// in\n    tag_797:\n        /* \"#utility.yul\":10897:11003   */\n      tag_799\n        /* \"#utility.yul\":10996:11002   */\n      dup2\n        /* \"#utility.yul\":10991:10994   */\n      dup6\n        /* \"#utility.yul\":10897:11003   */\n      tag_800\n      jump\t// in\n    tag_799:\n        /* \"#utility.yul\":10890:11003   */\n      swap4\n      pop\n        /* \"#utility.yul\":11029:11032   */\n      dup4\n        /* \"#utility.yul\":11074:11078   */\n      0x20\n        /* \"#utility.yul\":11066:11072   */\n      dup3\n        /* \"#utility.yul\":11062:11079   */\n      mul\n        /* \"#utility.yul\":11057:11060   */\n      dup6\n        /* \"#utility.yul\":11053:11080   */\n      add\n        /* \"#utility.yul\":11104:11180   */\n      tag_801\n        /* \"#utility.yul\":11174:11179   */\n      dup6\n        /* \"#utility.yul\":11104:11180   */\n      tag_802\n      jump\t// in\n    tag_801:\n        /* \"#utility.yul\":11203:11210   */\n      dup1\n        /* \"#utility.yul\":11234:11235   */\n      0x00\n        /* \"#utility.yul\":11219:11645   */\n    tag_803:\n        /* \"#utility.yul\":11244:11250   */\n      dup6\n        /* \"#utility.yul\":11241:11242   */\n      dup2\n        /* \"#utility.yul\":11238:11251   */\n      lt\n        /* \"#utility.yul\":11219:11645   */\n      iszero\n      tag_805\n      jumpi\n        /* \"#utility.yul\":11315:11324   */\n      dup5\n        /* \"#utility.yul\":11309:11313   */\n      dup5\n        /* \"#utility.yul\":11305:11325   */\n      sub\n        /* \"#utility.yul\":11300:11303   */\n      dup10\n        /* \"#utility.yul\":11293:11326   */\n      mstore\n        /* \"#utility.yul\":11366:11372   */\n      dup2\n        /* \"#utility.yul\":11360:11373   */\n      mload\n        /* \"#utility.yul\":11394:11498   */\n      tag_806\n        /* \"#utility.yul\":11493:11497   */\n      dup6\n        /* \"#utility.yul\":11478:11491   */\n      dup3\n        /* \"#utility.yul\":11394:11498   */\n      tag_737\n      jump\t// in\n    tag_806:\n        /* \"#utility.yul\":11386:11498   */\n      swap5\n      pop\n        /* \"#utility.yul\":11521:11601   */\n      tag_807\n        /* \"#utility.yul\":11594:11600   */\n      dup4\n        /* \"#utility.yul\":11521:11601   */\n      tag_808\n      jump\t// in\n    tag_807:\n        /* \"#utility.yul\":11511:11601   */\n      swap3\n      pop\n        /* \"#utility.yul\":11630:11634   */\n      0x20\n        /* \"#utility.yul\":11625:11628   */\n      dup11\n        /* \"#utility.yul\":11621:11635   */\n      add\n        /* \"#utility.yul\":11614:11635   */\n      swap10\n      pop\n        /* \"#utility.yul\":11279:11645   */\n      pop\n        /* \"#utility.yul\":11266:11267   */\n      0x01\n        /* \"#utility.yul\":11263:11264   */\n      dup2\n        /* \"#utility.yul\":11259:11268   */\n      add\n        /* \"#utility.yul\":11254:11268   */\n      swap1\n      pop\n        /* \"#utility.yul\":11219:11645   */\n      jump(tag_803)\n    tag_805:\n        /* \"#utility.yul\":11223:11237   */\n      pop\n        /* \"#utility.yul\":11661:11665   */\n      dup3\n        /* \"#utility.yul\":11654:11665   */\n      swap8\n      pop\n        /* \"#utility.yul\":11681:11684   */\n      dup8\n        /* \"#utility.yul\":11674:11684   */\n      swap6\n      pop\n        /* \"#utility.yul\":10783:11690   */\n      pop\n      pop\n      pop\n      pop\n      pop\n        /* \"#utility.yul\":10619:11690   */\n      swap3\n      swap2\n      pop\n      pop\n      jump\t// out\n        /* \"#utility.yul\":11784:12959   */\n    tag_809:\n        /* \"#utility.yul\":11969:11972   */\n      0x00\n        /* \"#utility.yul\":11998:12085   */\n      tag_811\n        /* \"#utility.yul\":12079:12084   */\n      dup3\n        /* \"#utility.yul\":11998:12085   */\n      tag_812\n      jump\t// in\n    tag_811:\n        /* \"#utility.yul\":12101:12220   */\n      tag_813\n        /* \"#utility.yul\":12213:12219   */\n      dup2\n        /* \"#utility.yul\":12208:12211   */\n      dup6\n        /* \"#utility.yul\":12101:12220   */\n      tag_814\n      jump\t// in\n    tag_813:\n        /* \"#utility.yul\":12094:12220   */\n      swap4\n      pop\n        /* \"#utility.yul\":12246:12249   */\n      dup4\n        /* \"#utility.yul\":12291:12295   */\n      0x20\n        /* \"#utility.yul\":12283:12289   */\n      dup3\n        /* \"#utility.yul\":12279:12296   */\n      mul\n        /* \"#utility.yul\":12274:12277   */\n      dup6\n        /* \"#utility.yul\":12270:12297   */\n      add\n        /* \"#utility.yul\":12321:12410   */\n      tag_815\n        /* \"#utility.yul\":12404:12409   */\n      dup6\n        /* \"#utility.yul\":12321:12410   */\n      tag_816\n      jump\t// in\n    tag_815:\n        /* \"#utility.yul\":12433:12440   */\n      dup1\n        /* \"#utility.yul\":12464:12465   */\n      0x00\n        /* \"#utility.yul\":12449:12914   */\n    tag_817:\n        /* \"#utility.yul\":12474:12480   */\n      dup6\n        /* \"#utility.yul\":12471:12472   */\n      dup2\n        /* \"#utility.yul\":12468:12481   */\n      lt\n        /* \"#utility.yul\":12449:12914   */\n      iszero\n      tag_819\n      jumpi\n        /* \"#utility.yul\":12545:12554   */\n      dup5\n        /* \"#utility.yul\":12539:12543   */\n      dup5\n        /* \"#utility.yul\":12535:12555   */\n      sub\n        /* \"#utility.yul\":12530:12533   */\n      dup10\n        /* \"#utility.yul\":12523:12556   */\n      mstore\n        /* \"#utility.yul\":12596:12602   */\n      dup2\n        /* \"#utility.yul\":12590:12603   */\n      mload\n        /* \"#utility.yul\":12624:12754   */\n      tag_820\n        /* \"#utility.yul\":12749:12753   */\n      dup6\n        /* \"#utility.yul\":12734:12747   */\n      dup3\n        /* \"#utility.yul\":12624:12754   */\n      tag_741\n      jump\t// in\n    tag_820:\n        /* \"#utility.yul\":12616:12754   */\n      swap5\n      pop\n        /* \"#utility.yul\":12777:12870   */\n      tag_821\n        /* \"#utility.yul\":12863:12869   */\n      dup4\n        /* \"#utility.yul\":12777:12870   */\n      tag_822\n      jump\t// in\n    tag_821:\n        /* \"#utility.yul\":12767:12870   */\n      swap3\n      pop\n        /* \"#utility.yul\":12899:12903   */\n      0x20\n        /* \"#utility.yul\":12894:12897   */\n      dup11\n        /* \"#utility.yul\":12890:12904   */\n      add\n        /* \"#utility.yul\":12883:12904   */\n      swap10\n      pop\n        /* \"#utility.yul\":12509:12914   */\n      pop\n        /* \"#utility.yul\":12496:12497   */\n      0x01\n        /* \"#utility.yul\":12493:12494   */\n      dup2\n        /* \"#utility.yul\":12489:12498   */\n      add\n        /* \"#utility.yul\":12484:12498   */\n      swap1\n      pop\n        /* \"#utility.yul\":12449:12914   */\n      jump(tag_817)\n    tag_819:\n        /* \"#utility.yul\":12453:12467   */\n      pop\n        /* \"#utility.yul\":12930:12934   */\n      dup3\n        /* \"#utility.yul\":12923:12934   */\n      swap8\n      pop\n        /* \"#utility.yul\":12950:12953   */\n      dup8\n        /* \"#utility.yul\":12943:12953   */\n      swap6\n      pop\n        /* \"#utility.yul\":11974:12959   */\n      pop\n      pop\n      pop\n      pop\n      pop\n        /* \"#utility.yul\":11784:12959   */\n      swap3\n      swap2\n      pop\n      pop\n      jump\t// out\n        /* \"#utility.yul\":13041:14160   */\n    tag_823:\n        /* \"#utility.yul\":13212:13215   */\n      0x00\n        /* \"#utility.yul\":13241:13321   */\n      tag_825\n        /* \"#utility.yul\":13315:13320   */\n      dup3\n        /* \"#utility.yul\":13241:13321   */\n      tag_826\n      jump\t// in\n    tag_825:\n        /* \"#utility.yul\":13337:13449   */\n      tag_827\n        /* \"#utility.yul\":13442:13448   */\n      dup2\n        /* \"#utility.yul\":13437:13440   */\n      dup6\n        /* \"#utility.yul\":13337:13449   */\n      tag_828\n      jump\t// in\n    tag_827:\n        /* \"#utility.yul\":13330:13449   */\n      swap4\n      pop\n        /* \"#utility.yul\":13475:13478   */\n      dup4\n        /* \"#utility.yul\":13520:13524   */\n      0x20\n        /* \"#utility.yul\":13512:13518   */\n      dup3\n        /* \"#utility.yul\":13508:13525   */\n      mul\n        /* \"#utility.yul\":13503:13506   */\n      dup6\n        /* \"#utility.yul\":13499:13526   */\n      add\n        /* \"#utility.yul\":13550:13632   */\n      tag_829\n        /* \"#utility.yul\":13626:13631   */\n      dup6\n        /* \"#utility.yul\":13550:13632   */\n      tag_830\n      jump\t// in\n    tag_829:\n        /* \"#utility.yul\":13655:13662   */\n      dup1\n        /* \"#utility.yul\":13686:13687   */\n      0x00\n        /* \"#utility.yul\":13671:14115   */\n    tag_831:\n        /* \"#utility.yul\":13696:13702   */\n      dup6\n        /* \"#utility.yul\":13693:13694   */\n      dup2\n        /* \"#utility.yul\":13690:13703   */\n      lt\n        /* \"#utility.yul\":13671:14115   */\n      iszero\n      tag_833\n      jumpi\n        /* \"#utility.yul\":13767:13776   */\n      dup5\n        /* \"#utility.yul\":13761:13765   */\n      dup5\n        /* \"#utility.yul\":13757:13777   */\n      sub\n        /* \"#utility.yul\":13752:13755   */\n      dup10\n        /* \"#utility.yul\":13745:13778   */\n      mstore\n        /* \"#utility.yul\":13818:13824   */\n      dup2\n        /* \"#utility.yul\":13812:13825   */\n      mload\n        /* \"#utility.yul\":13846:13962   */\n      tag_834\n        /* \"#utility.yul\":13957:13961   */\n      dup6\n        /* \"#utility.yul\":13942:13955   */\n      dup3\n        /* \"#utility.yul\":13846:13962   */\n      tag_745\n      jump\t// in\n    tag_834:\n        /* \"#utility.yul\":13838:13962   */\n      swap5\n      pop\n        /* \"#utility.yul\":13985:14071   */\n      tag_835\n        /* \"#utility.yul\":14064:14070   */\n      dup4\n        /* \"#utility.yul\":13985:14071   */\n      tag_836\n      jump\t// in\n    tag_835:\n        /* \"#utility.yul\":13975:14071   */\n      swap3\n      pop\n        /* \"#utility.yul\":14100:14104   */\n      0x20\n        /* \"#utility.yul\":14095:14098   */\n      dup11\n        /* \"#utility.yul\":14091:14105   */\n      add\n        /* \"#utility.yul\":14084:14105   */\n      swap10\n      pop\n        /* \"#utility.yul\":13731:14115   */\n      pop\n        /* \"#utility.yul\":13718:13719   */\n      0x01\n        /* \"#utility.yul\":13715:13716   */\n      dup2\n        /* \"#utility.yul\":13711:13720   */\n      add\n        /* \"#utility.yul\":13706:13720   */\n      swap1\n      pop\n        /* \"#utility.yul\":13671:14115   */\n      jump(tag_831)\n    tag_833:\n        /* \"#utility.yul\":13675:13689   */\n      pop\n        /* \"#utility.yul\":14131:14135   */\n      dup3\n        /* \"#utility.yul\":14124:14135   */\n      swap8\n      pop\n        /* \"#utility.yul\":14151:14154   */\n      dup8\n        /* \"#utility.yul\":14144:14154   */\n      swap6\n      pop\n        /* \"#utility.yul\":13217:14160   */\n      pop\n      pop\n      pop\n      pop\n      pop\n        /* \"#utility.yul\":13041:14160   */\n      swap3\n      swap2\n      pop\n      pop\n      jump\t// out\n        /* \"#utility.yul\":14166:14265   */\n    tag_837:\n        /* \"#utility.yul\":14237:14258   */\n      tag_839\n        /* \"#utility.yul\":14252:14257   */\n      dup2\n        /* \"#utility.yul\":14237:14258   */\n      tag_840\n      jump\t// in\n    tag_839:\n        /* \"#utility.yul\":14232:14235   */\n      dup3\n        /* \"#utility.yul\":14225:14259   */\n      mstore\n        /* \"#utility.yul\":14166:14265   */\n      pop\n      pop\n      jump\t// out\n        /* \"#utility.yul\":14271:14380   */\n    tag_841:\n        /* \"#utility.yul\":14352:14373   */\n      tag_843\n        /* \"#utility.yul\":14367:14372   */\n      dup2\n        /* \"#utility.yul\":14352:14373   */\n      tag_840\n      jump\t// in\n    tag_843:\n        /* \"#utility.yul\":14347:14350   */\n      dup3\n        /* \"#utility.yul\":14340:14374   */\n      mstore\n        /* \"#utility.yul\":14271:14380   */\n      pop\n      pop\n      jump\t// out\n        /* \"#utility.yul\":14386:14529   */\n    tag_844:\n        /* \"#utility.yul\":14479:14522   */\n      tag_846\n        /* \"#utility.yul\":14516:14521   */\n      dup2\n        /* \"#utility.yul\":14479:14522   */\n      tag_847\n      jump\t// in\n    tag_846:\n        /* \"#utility.yul\":14474:14477   */\n      dup3\n        /* \"#utility.yul\":14467:14523   */\n      mstore\n        /* \"#utility.yul\":14386:14529   */\n      pop\n      pop\n      jump\t// out\n        /* \"#utility.yul\":14535:14879   */\n    tag_848:\n        /* \"#utility.yul\":14613:14616   */\n      0x00\n        /* \"#utility.yul\":14641:14680   */\n      tag_850\n        /* \"#utility.yul\":14674:14679   */\n      dup3\n        /* \"#utility.yul\":14641:14680   */\n      tag_851\n      jump\t// in\n    tag_850:\n        /* \"#utility.yul\":14696:14757   */\n      tag_852\n        /* \"#utility.yul\":14750:14756   */\n      dup2\n        /* \"#utility.yul\":14745:14748   */\n      dup6\n        /* \"#utility.yul\":14696:14757   */\n      tag_853\n      jump\t// in\n    tag_852:\n        /* \"#utility.yul\":14689:14757   */\n      swap4\n      pop\n        /* \"#utility.yul\":14766:14818   */\n      tag_854\n        /* \"#utility.yul\":14811:14817   */\n      dup2\n        /* \"#utility.yul\":14806:14809   */\n      dup6\n        /* \"#utility.yul\":14799:14803   */\n      0x20\n        /* \"#utility.yul\":14792:14797   */\n      dup7\n        /* \"#utility.yul\":14788:14804   */\n      add\n        /* \"#utility.yul\":14766:14818   */\n      tag_855\n      jump\t// in\n    tag_854:\n        /* \"#utility.yul\":14843:14872   */\n      tag_856\n        /* \"#utility.yul\":14865:14871   */\n      dup2\n        /* \"#utility.yul\":14843:14872   */\n      tag_857\n      jump\t// in\n    tag_856:\n        /* \"#utility.yul\":14838:14841   */\n      dup5\n        /* \"#utility.yul\":14834:14873   */\n      add\n        /* \"#utility.yul\":14827:14873   */\n      swap2\n      pop\n        /* \"#utility.yul\":14617:14879   */\n      pop\n        /* \"#utility.yul\":14535:14879   */\n      swap3\n      swap2\n      pop\n      pop\n      jump\t// out\n        /* \"#utility.yul\":14885:15249   */\n    tag_858:\n        /* \"#utility.yul\":14973:14976   */\n      0x00\n        /* \"#utility.yul\":15001:15040   */\n      tag_860\n        /* \"#utility.yul\":15034:15039   */\n      dup3\n        /* \"#utility.yul\":15001:15040   */\n      tag_851\n      jump\t// in\n    tag_860:\n        /* \"#utility.yul\":15056:15127   */\n      tag_861\n        /* \"#utility.yul\":15120:15126   */\n      dup2\n        /* \"#utility.yul\":15115:15118   */\n      dup6\n        /* \"#utility.yul\":15056:15127   */\n      tag_862\n      jump\t// in\n    tag_861:\n        /* \"#utility.yul\":15049:15127   */\n      swap4\n      pop\n        /* \"#utility.yul\":15136:15188   */\n      tag_863\n        /* \"#utility.yul\":15181:15187   */\n      dup2\n        /* \"#utility.yul\":15176:15179   */\n      dup6\n        /* \"#utility.yul\":15169:15173   */\n      0x20\n        /* \"#utility.yul\":15162:15167   */\n      dup7\n        /* \"#utility.yul\":15158:15174   */\n      add\n        /* \"#utility.yul\":15136:15188   */\n      tag_855\n      jump\t// in\n    tag_863:\n        /* \"#utility.yul\":15213:15242   */\n      tag_864\n        /* \"#utility.yul\":15235:15241   */\n      dup2\n        /* \"#utility.yul\":15213:15242   */\n      tag_857\n      jump\t// in\n    tag_864:\n        /* \"#utility.yul\":15208:15211   */\n      dup5\n        /* \"#utility.yul\":15204:15243   */\n      add\n        /* \"#utility.yul\":15197:15243   */\n      swap2\n      pop\n        /* \"#utility.yul\":14977:15249   */\n      pop\n        /* \"#utility.yul\":14885:15249   */\n      swap3\n      swap2\n      pop\n      pop\n      jump\t// out\n        /* \"#utility.yul\":15255:15621   */\n    tag_865:\n        /* \"#utility.yul\":15397:15400   */\n      0x00\n        /* \"#utility.yul\":15418:15485   */\n      tag_867\n        /* \"#utility.yul\":15482:15484   */\n      0x1f\n        /* \"#utility.yul\":15477:15480   */\n      dup4\n        /* \"#utility.yul\":15418:15485   */\n      tag_862\n      jump\t// in\n    tag_867:\n        /* \"#utility.yul\":15411:15485   */\n      swap2\n      pop\n        /* \"#utility.yul\":15494:15587   */\n      tag_868\n        /* \"#utility.yul\":15583:15586   */\n      dup3\n        /* \"#utility.yul\":15494:15587   */\n      tag_869\n      jump\t// in\n    tag_868:\n        /* \"#utility.yul\":15612:15614   */\n      0x20\n        /* \"#utility.yul\":15607:15610   */\n      dup3\n        /* \"#utility.yul\":15603:15615   */\n      add\n        /* \"#utility.yul\":15596:15615   */\n      swap1\n      pop\n        /* \"#utility.yul\":15255:15621   */\n      swap2\n      swap1\n      pop\n      jump\t// out\n        /* \"#utility.yul\":15627:15993   */\n    tag_870:\n        /* \"#utility.yul\":15769:15772   */\n      0x00\n        /* \"#utility.yul\":15790:15857   */\n      tag_872\n        /* \"#utility.yul\":15854:15856   */\n      0x19\n        /* \"#utility.yul\":15849:15852   */\n      dup4\n        /* \"#utility.yul\":15790:15857   */\n      tag_862\n      jump\t// in\n    tag_872:\n        /* \"#utility.yul\":15783:15857   */\n      swap2\n      pop\n        /* \"#utility.yul\":15866:15959   */\n      tag_873\n        /* \"#utility.yul\":15955:15958   */\n      dup3\n        /* \"#utility.yul\":15866:15959   */\n      tag_874\n      jump\t// in\n    tag_873:\n        /* \"#utility.yul\":15984:15986   */\n      0x20\n        /* \"#utility.yul\":15979:15982   */\n      dup3\n        /* \"#utility.yul\":15975:15987   */\n      add\n        /* \"#utility.yul\":15968:15987   */\n      swap1\n      pop\n        /* \"#utility.yul\":15627:15993   */\n      swap2\n      swap1\n      pop\n      jump\t// out\n        /* \"#utility.yul\":15999:16365   */\n    tag_875:\n        /* \"#utility.yul\":16141:16144   */\n      0x00\n        /* \"#utility.yul\":16162:16229   */\n      tag_877\n        /* \"#utility.yul\":16226:16228   */\n      0x17\n        /* \"#utility.yul\":16221:16224   */\n      dup4\n        /* \"#utility.yul\":16162:16229   */\n      tag_862\n      jump\t// in\n    tag_877:\n        /* \"#utility.yul\":16155:16229   */\n      swap2\n      pop\n        /* \"#utility.yul\":16238:16331   */\n      tag_878\n        /* \"#utility.yul\":16327:16330   */\n      dup3\n        /* \"#utility.yul\":16238:16331   */\n      tag_879\n      jump\t// in\n    tag_878:\n        /* \"#utility.yul\":16356:16358   */\n      0x20\n        /* \"#utility.yul\":16351:16354   */\n      dup3\n        /* \"#utility.yul\":16347:16359   */\n      add\n        /* \"#utility.yul\":16340:16359   */\n      swap1\n      pop\n        /* \"#utility.yul\":15999:16365   */\n      swap2\n      swap1\n      pop\n      jump\t// out\n        /* \"#utility.yul\":16371:16737   */\n    tag_880:\n        /* \"#utility.yul\":16513:16516   */\n      0x00\n        /* \"#utility.yul\":16534:16601   */\n      tag_882\n        /* \"#utility.yul\":16598:16600   */\n      0x11\n        /* \"#utility.yul\":16593:16596   */\n      dup4\n        /* \"#utility.yul\":16534:16601   */\n      tag_862\n      jump\t// in\n    tag_882:\n        /* \"#utility.yul\":16527:16601   */\n      swap2\n      pop\n        /* \"#utility.yul\":16610:16703   */\n      tag_883\n        /* \"#utility.yul\":16699:16702   */\n      dup3\n        /* \"#utility.yul\":16610:16703   */\n      tag_884\n      jump\t// in\n    tag_883:\n        /* \"#utility.yul\":16728:16730   */\n      0x20\n        /* \"#utility.yul\":16723:16726   */\n      dup3\n        /* \"#utility.yul\":16719:16731   */\n      add\n        /* \"#utility.yul\":16712:16731   */\n      swap1\n      pop\n        /* \"#utility.yul\":16371:16737   */\n      swap2\n      swap1\n      pop\n      jump\t// out\n        /* \"#utility.yul\":16743:17109   */\n    tag_885:\n        /* \"#utility.yul\":16885:16888   */\n      0x00\n        /* \"#utility.yul\":16906:16973   */\n      tag_887\n        /* \"#utility.yul\":16970:16972   */\n      0x18\n        /* \"#utility.yul\":16965:16968   */\n      dup4\n        /* \"#utility.yul\":16906:16973   */\n      tag_862\n      jump\t// in\n    tag_887:\n        /* \"#utility.yul\":16899:16973   */\n      swap2\n      pop\n        /* \"#utility.yul\":16982:17075   */\n      tag_888\n        /* \"#utility.yul\":17071:17074   */\n      dup3\n        /* \"#utility.yul\":16982:17075   */\n      tag_889\n      jump\t// in\n    tag_888:\n        /* \"#utility.yul\":17100:17102   */\n      0x20\n        /* \"#utility.yul\":17095:17098   */\n      dup3\n        /* \"#utility.yul\":17091:17103   */\n      add\n        /* \"#utility.yul\":17084:17103   */\n      swap1\n      pop\n        /* \"#utility.yul\":16743:17109   */\n      swap2\n      swap1\n      pop\n      jump\t// out\n        /* \"#utility.yul\":17115:17481   */\n    tag_890:\n        /* \"#utility.yul\":17257:17260   */\n      0x00\n        /* \"#utility.yul\":17278:17345   */\n      tag_892\n        /* \"#utility.yul\":17342:17344   */\n      0x12\n        /* \"#utility.yul\":17337:17340   */\n      dup4\n        /* \"#utility.yul\":17278:17345   */\n      tag_862\n      jump\t// in\n    tag_892:\n        /* \"#utility.yul\":17271:17345   */\n      swap2\n      pop\n        /* \"#utility.yul\":17354:17447   */\n      tag_893\n        /* \"#utility.yul\":17443:17446   */\n      dup3\n        /* \"#utility.yul\":17354:17447   */\n      tag_894\n      jump\t// in\n    tag_893:\n        /* \"#utility.yul\":17472:17474   */\n      0x20\n        /* \"#utility.yul\":17467:17470   */\n      dup3\n        /* \"#utility.yul\":17463:17475   */\n      add\n        /* \"#utility.yul\":17456:17475   */\n      swap1\n      pop\n        /* \"#utility.yul\":17115:17481   */\n      swap2\n      swap1\n      pop\n      jump\t// out\n        /* \"#utility.yul\":17487:17853   */\n    tag_895:\n        /* \"#utility.yul\":17629:17632   */\n      0x00\n        /* \"#utility.yul\":17650:17717   */\n      tag_897\n        /* \"#utility.yul\":17714:17716   */\n      0x1e\n        /* \"#utility.yul\":17709:17712   */\n      dup4\n        /* \"#utility.yul\":17650:17717   */\n      tag_862\n      jump\t// in\n    tag_897:\n        /* \"#utility.yul\":17643:17717   */\n      swap2\n      pop\n        /* \"#utility.yul\":17726:17819   */\n      tag_898\n        /* \"#utility.yul\":17815:17818   */\n      dup3\n        /* \"#utility.yul\":17726:17819   */\n      tag_899\n      jump\t// in\n    tag_898:\n        /* \"#utility.yul\":17844:17846   */\n      0x20\n        /* \"#utility.yul\":17839:17842   */\n      dup3\n        /* \"#utility.yul\":17835:17847   */\n      add\n        /* \"#utility.yul\":17828:17847   */\n      swap1\n      pop\n        /* \"#utility.yul\":17487:17853   */\n      swap2\n      swap1\n      pop\n      jump\t// out\n        /* \"#utility.yul\":17859:18225   */\n    tag_900:\n        /* \"#utility.yul\":18001:18004   */\n      0x00\n        /* \"#utility.yul\":18022:18089   */\n      tag_902\n        /* \"#utility.yul\":18086:18088   */\n      0x1e\n        /* \"#utility.yul\":18081:18084   */\n      dup4\n        /* \"#utility.yul\":18022:18089   */\n      tag_862\n      jump\t// in\n    tag_902:\n        /* \"#utility.yul\":18015:18089   */\n      swap2\n      pop\n        /* \"#utility.yul\":18098:18191   */\n      tag_903\n        /* \"#utility.yul\":18187:18190   */\n      dup3\n        /* \"#utility.yul\":18098:18191   */\n      tag_904\n      jump\t// in\n    tag_903:\n        /* \"#utility.yul\":18216:18218   */\n      0x20\n        /* \"#utility.yul\":18211:18214   */\n      dup3\n        /* \"#utility.yul\":18207:18219   */\n      add\n        /* \"#utility.yul\":18200:18219   */\n      swap1\n      pop\n        /* \"#utility.yul\":17859:18225   */\n      swap2\n      swap1\n      pop\n      jump\t// out\n        /* \"#utility.yul\":18231:18597   */\n    tag_905:\n        /* \"#utility.yul\":18373:18376   */\n      0x00\n        /* \"#utility.yul\":18394:18461   */\n      tag_907\n        /* \"#utility.yul\":18458:18460   */\n      0x22\n        /* \"#utility.yul\":18453:18456   */\n      dup4\n        /* \"#utility.yul\":18394:18461   */\n      tag_862\n      jump\t// in\n    tag_907:\n        /* \"#utility.yul\":18387:18461   */\n      swap2\n      pop\n        /* \"#utility.yul\":18470:18563   */\n      tag_908\n        /* \"#utility.yul\":18559:18562   */\n      dup3\n        /* \"#utility.yul\":18470:18563   */\n      tag_909\n      jump\t// in\n    tag_908:\n        /* \"#utility.yul\":18588:18590   */\n      0x40\n        /* \"#utility.yul\":18583:18586   */\n      dup3\n        /* \"#utility.yul\":18579:18591   */\n      add\n        /* \"#utility.yul\":18572:18591   */\n      swap1\n      pop\n        /* \"#utility.yul\":18231:18597   */\n      swap2\n      swap1\n      pop\n      jump\t// out\n        /* \"#utility.yul\":18603:18969   */\n    tag_910:\n        /* \"#utility.yul\":18745:18748   */\n      0x00\n        /* \"#utility.yul\":18766:18833   */\n      tag_912\n        /* \"#utility.yul\":18830:18832   */\n      0x22\n        /* \"#utility.yul\":18825:18828   */\n      dup4\n        /* \"#utility.yul\":18766:18833   */\n      tag_862\n      jump\t// in\n    tag_912:\n        /* \"#utility.yul\":18759:18833   */\n      swap2\n      pop\n        /* \"#utility.yul\":18842:18935   */\n      tag_913\n        /* \"#utility.yul\":18931:18934   */\n      dup3\n        /* \"#utility.yul\":18842:18935   */\n      tag_914\n      jump\t// in\n    tag_913:\n        /* \"#utility.yul\":18960:18962   */\n      0x40\n        /* \"#utility.yul\":18955:18958   */\n      dup3\n        /* \"#utility.yul\":18951:18963   */\n      add\n        /* \"#utility.yul\":18944:18963   */\n      swap1\n      pop\n        /* \"#utility.yul\":18603:18969   */\n      swap2\n      swap1\n      pop\n      jump\t// out\n        /* \"#utility.yul\":18975:19341   */\n    tag_915:\n        /* \"#utility.yul\":19117:19120   */\n      0x00\n        /* \"#utility.yul\":19138:19205   */\n      tag_917\n        /* \"#utility.yul\":19202:19204   */\n      0x17\n        /* \"#utility.yul\":19197:19200   */\n      dup4\n        /* \"#utility.yul\":19138:19205   */\n      tag_862\n      jump\t// in\n    tag_917:\n        /* \"#utility.yul\":19131:19205   */\n      swap2\n      pop\n        /* \"#utility.yul\":19214:19307   */\n      tag_918\n        /* \"#utility.yul\":19303:19306   */\n      dup3\n        /* \"#utility.yul\":19214:19307   */\n      tag_919\n      jump\t// in\n    tag_918:\n        /* \"#utility.yul\":19332:19334   */\n      0x20\n        /* \"#utility.yul\":19327:19330   */\n      dup3\n        /* \"#utility.yul\":19323:19335   */\n      add\n        /* \"#utility.yul\":19316:19335   */\n      swap1\n      pop\n        /* \"#utility.yul\":18975:19341   */\n      swap2\n      swap1\n      pop\n      jump\t// out\n        /* \"#utility.yul\":19347:19713   */\n    tag_920:\n        /* \"#utility.yul\":19489:19492   */\n      0x00\n        /* \"#utility.yul\":19510:19577   */\n      tag_922\n        /* \"#utility.yul\":19574:19576   */\n      0x1e\n        /* \"#utility.yul\":19569:19572   */\n      dup4\n        /* \"#utility.yul\":19510:19577   */\n      tag_862\n      jump\t// in\n    tag_922:\n        /* \"#utility.yul\":19503:19577   */\n      swap2\n      pop\n        /* \"#utility.yul\":19586:19679   */\n      tag_923\n        /* \"#utility.yul\":19675:19678   */\n      dup3\n        /* \"#utility.yul\":19586:19679   */\n      tag_924\n      jump\t// in\n    tag_923:\n        /* \"#utility.yul\":19704:19706   */\n      0x20\n        /* \"#utility.yul\":19699:19702   */\n      dup3\n        /* \"#utility.yul\":19695:19707   */\n      add\n        /* \"#utility.yul\":19688:19707   */\n      swap1\n      pop\n        /* \"#utility.yul\":19347:19713   */\n      swap2\n      swap1\n      pop\n      jump\t// out\n        /* \"#utility.yul\":19719:20085   */\n    tag_925:\n        /* \"#utility.yul\":19861:19864   */\n      0x00\n        /* \"#utility.yul\":19882:19949   */\n      tag_927\n        /* \"#utility.yul\":19946:19948   */\n      0x11\n        /* \"#utility.yul\":19941:19944   */\n      dup4\n        /* \"#utility.yul\":19882:19949   */\n      tag_862\n      jump\t// in\n    tag_927:\n        /* \"#utility.yul\":19875:19949   */\n      swap2\n      pop\n        /* \"#utility.yul\":19958:20051   */\n      tag_928\n        /* \"#utility.yul\":20047:20050   */\n      dup3\n        /* \"#utility.yul\":19958:20051   */\n      tag_929\n      jump\t// in\n    tag_928:\n        /* \"#utility.yul\":20076:20078   */\n      0x20\n        /* \"#utility.yul\":20071:20074   */\n      dup3\n        /* \"#utility.yul\":20067:20079   */\n      add\n        /* \"#utility.yul\":20060:20079   */\n      swap1\n      pop\n        /* \"#utility.yul\":19719:20085   */\n      swap2\n      swap1\n      pop\n      jump\t// out\n        /* \"#utility.yul\":20091:20457   */\n    tag_930:\n        /* \"#utility.yul\":20233:20236   */\n      0x00\n        /* \"#utility.yul\":20254:20321   */\n      tag_932\n        /* \"#utility.yul\":20318:20320   */\n      0x18\n        /* \"#utility.yul\":20313:20316   */\n      dup4\n        /* \"#utility.yul\":20254:20321   */\n      tag_862\n      jump\t// in\n    tag_932:\n        /* \"#utility.yul\":20247:20321   */\n      swap2\n      pop\n        /* \"#utility.yul\":20330:20423   */\n      tag_933\n        /* \"#utility.yul\":20419:20422   */\n      dup3\n        /* \"#utility.yul\":20330:20423   */\n      tag_934\n      jump\t// in\n    tag_933:\n        /* \"#utility.yul\":20448:20450   */\n      0x20\n        /* \"#utility.yul\":20443:20446   */\n      dup3\n        /* \"#utility.yul\":20439:20451   */\n      add\n        /* \"#utility.yul\":20432:20451   */\n      swap1\n      pop\n        /* \"#utility.yul\":20091:20457   */\n      swap2\n      swap1\n      pop\n      jump\t// out\n        /* \"#utility.yul\":20463:20829   */\n    tag_935:\n        /* \"#utility.yul\":20605:20608   */\n      0x00\n        /* \"#utility.yul\":20626:20693   */\n      tag_937\n        /* \"#utility.yul\":20690:20692   */\n      0x12\n        /* \"#utility.yul\":20685:20688   */\n      dup4\n        /* \"#utility.yul\":20626:20693   */\n      tag_862\n      jump\t// in\n    tag_937:\n        /* \"#utility.yul\":20619:20693   */\n      swap2\n      pop\n        /* \"#utility.yul\":20702:20795   */\n      tag_938\n        /* \"#utility.yul\":20791:20794   */\n      dup3\n        /* \"#utility.yul\":20702:20795   */\n      tag_939\n      jump\t// in\n    tag_938:\n        /* \"#utility.yul\":20820:20822   */\n      0x20\n        /* \"#utility.yul\":20815:20818   */\n      dup3\n        /* \"#utility.yul\":20811:20823   */\n      add\n        /* \"#utility.yul\":20804:20823   */\n      swap1\n      pop\n        /* \"#utility.yul\":20463:20829   */\n      swap2\n      swap1\n      pop\n      jump\t// out\n        /* \"#utility.yul\":20835:21201   */\n    tag_940:\n        /* \"#utility.yul\":20977:20980   */\n      0x00\n        /* \"#utility.yul\":20998:21065   */\n      tag_942\n        /* \"#utility.yul\":21062:21064   */\n      0x19\n        /* \"#utility.yul\":21057:21060   */\n      dup4\n        /* \"#utility.yul\":20998:21065   */\n      tag_862\n      jump\t// in\n    tag_942:\n        /* \"#utility.yul\":20991:21065   */\n      swap2\n      pop\n        /* \"#utility.yul\":21074:21167   */\n      tag_943\n        /* \"#utility.yul\":21163:21166   */\n      dup3\n        /* \"#utility.yul\":21074:21167   */\n      tag_944\n      jump\t// in\n    tag_943:\n        /* \"#utility.yul\":21192:21194   */\n      0x20\n        /* \"#utility.yul\":21187:21190   */\n      dup3\n        /* \"#utility.yul\":21183:21195   */\n      add\n        /* \"#utility.yul\":21176:21195   */\n      swap1\n      pop\n        /* \"#utility.yul\":20835:21201   */\n      swap2\n      swap1\n      pop\n      jump\t// out\n        /* \"#utility.yul\":21207:21573   */\n    tag_945:\n        /* \"#utility.yul\":21349:21352   */\n      0x00\n        /* \"#utility.yul\":21370:21437   */\n      tag_947\n        /* \"#utility.yul\":21434:21436   */\n      0x20\n        /* \"#utility.yul\":21429:21432   */\n      dup4\n        /* \"#utility.yul\":21370:21437   */\n      tag_862\n      jump\t// in\n    tag_947:\n        /* \"#utility.yul\":21363:21437   */\n      swap2\n      pop\n        /* \"#utility.yul\":21446:21539   */\n      tag_948\n        /* \"#utility.yul\":21535:21538   */\n      dup3\n        /* \"#utility.yul\":21446:21539   */\n      tag_949\n      jump\t// in\n    tag_948:\n        /* \"#utility.yul\":21564:21566   */\n      0x20\n        /* \"#utility.yul\":21559:21562   */\n      dup3\n        /* \"#utility.yul\":21555:21567   */\n      add\n        /* \"#utility.yul\":21548:21567   */\n      swap1\n      pop\n        /* \"#utility.yul\":21207:21573   */\n      swap2\n      swap1\n      pop\n      jump\t// out\n        /* \"#utility.yul\":21641:22573   */\n    tag_728:\n        /* \"#utility.yul\":21744:21747   */\n      0x00\n        /* \"#utility.yul\":21780:21784   */\n      0x80\n        /* \"#utility.yul\":21775:21778   */\n      dup4\n        /* \"#utility.yul\":21771:21785   */\n      add\n        /* \"#utility.yul\":21868:21872   */\n      0x00\n        /* \"#utility.yul\":21861:21866   */\n      dup4\n        /* \"#utility.yul\":21857:21873   */\n      add\n        /* \"#utility.yul\":21851:21874   */\n      mload\n        /* \"#utility.yul\":21887:21944   */\n      tag_951\n        /* \"#utility.yul\":21938:21942   */\n      0x00\n        /* \"#utility.yul\":21933:21936   */\n      dup7\n        /* \"#utility.yul\":21929:21943   */\n      add\n        /* \"#utility.yul\":21915:21927   */\n      dup3\n        /* \"#utility.yul\":21887:21944   */\n      tag_837\n      jump\t// in\n    tag_951:\n        /* \"#utility.yul\":21795:21954   */\n      pop\n        /* \"#utility.yul\":22036:22040   */\n      0x20\n        /* \"#utility.yul\":22029:22034   */\n      dup4\n        /* \"#utility.yul\":22025:22041   */\n      add\n        /* \"#utility.yul\":22019:22042   */\n      mload\n        /* \"#utility.yul\":22055:22114   */\n      tag_952\n        /* \"#utility.yul\":22108:22112   */\n      0x20\n        /* \"#utility.yul\":22103:22106   */\n      dup7\n        /* \"#utility.yul\":22099:22113   */\n      add\n        /* \"#utility.yul\":22085:22097   */\n      dup3\n        /* \"#utility.yul\":22055:22114   */\n      tag_953\n      jump\t// in\n    tag_952:\n        /* \"#utility.yul\":21964:22124   */\n      pop\n        /* \"#utility.yul\":22209:22213   */\n      0x40\n        /* \"#utility.yul\":22202:22207   */\n      dup4\n        /* \"#utility.yul\":22198:22214   */\n      add\n        /* \"#utility.yul\":22192:22215   */\n      mload\n        /* \"#utility.yul\":22228:22291   */\n      tag_954\n        /* \"#utility.yul\":22285:22289   */\n      0x40\n        /* \"#utility.yul\":22280:22283   */\n      dup7\n        /* \"#utility.yul\":22276:22290   */\n      add\n        /* \"#utility.yul\":22262:22274   */\n      dup3\n        /* \"#utility.yul\":22228:22291   */\n      tag_955\n      jump\t// in\n    tag_954:\n        /* \"#utility.yul\":22134:22301   */\n      pop\n        /* \"#utility.yul\":22383:22387   */\n      0x60\n        /* \"#utility.yul\":22376:22381   */\n      dup4\n        /* \"#utility.yul\":22372:22388   */\n      add\n        /* \"#utility.yul\":22366:22389   */\n      mload\n        /* \"#utility.yul\":22436:22439   */\n      dup5\n        /* \"#utility.yul\":22430:22434   */\n      dup3\n        /* \"#utility.yul\":22426:22440   */\n      sub\n        /* \"#utility.yul\":22419:22423   */\n      0x60\n        /* \"#utility.yul\":22414:22417   */\n      dup7\n        /* \"#utility.yul\":22410:22424   */\n      add\n        /* \"#utility.yul\":22403:22441   */\n      mstore\n        /* \"#utility.yul\":22462:22535   */\n      tag_956\n        /* \"#utility.yul\":22530:22534   */\n      dup3\n        /* \"#utility.yul\":22516:22528   */\n      dup3\n        /* \"#utility.yul\":22462:22535   */\n      tag_848\n      jump\t// in\n    tag_956:\n        /* \"#utility.yul\":22454:22535   */\n      swap2\n      pop\n        /* \"#utility.yul\":22311:22546   */\n      pop\n        /* \"#utility.yul\":22563:22567   */\n      dup1\n        /* \"#utility.yul\":22556:22567   */\n      swap2\n      pop\n        /* \"#utility.yul\":21749:22573   */\n      pop\n        /* \"#utility.yul\":21641:22573   */\n      swap3\n      swap2\n      pop\n      pop\n      jump\t// out\n        /* \"#utility.yul\":22651:23416   */\n    tag_732:\n        /* \"#utility.yul\":22764:22767   */\n      0x00\n        /* \"#utility.yul\":22800:22804   */\n      0x60\n        /* \"#utility.yul\":22795:22798   */\n      dup4\n        /* \"#utility.yul\":22791:22805   */\n      add\n        /* \"#utility.yul\":22888:22892   */\n      0x00\n        /* \"#utility.yul\":22881:22886   */\n      dup4\n        /* \"#utility.yul\":22877:22893   */\n      add\n        /* \"#utility.yul\":22871:22894   */\n      mload\n        /* \"#utility.yul\":22907:22964   */\n      tag_958\n        /* \"#utility.yul\":22958:22962   */\n      0x00\n        /* \"#utility.yul\":22953:22956   */\n      dup7\n        /* \"#utility.yul\":22949:22963   */\n      add\n        /* \"#utility.yul\":22935:22947   */\n      dup3\n        /* \"#utility.yul\":22907:22964   */\n      tag_837\n      jump\t// in\n    tag_958:\n        /* \"#utility.yul\":22815:22974   */\n      pop\n        /* \"#utility.yul\":23056:23060   */\n      0x20\n        /* \"#utility.yul\":23049:23054   */\n      dup4\n        /* \"#utility.yul\":23045:23061   */\n      add\n        /* \"#utility.yul\":23039:23062   */\n      mload\n        /* \"#utility.yul\":23109:23112   */\n      dup5\n        /* \"#utility.yul\":23103:23107   */\n      dup3\n        /* \"#utility.yul\":23099:23113   */\n      sub\n        /* \"#utility.yul\":23092:23096   */\n      0x20\n        /* \"#utility.yul\":23087:23090   */\n      dup7\n        /* \"#utility.yul\":23083:23097   */\n      add\n        /* \"#utility.yul\":23076:23114   */\n      mstore\n        /* \"#utility.yul\":23135:23208   */\n      tag_959\n        /* \"#utility.yul\":23203:23207   */\n      dup3\n        /* \"#utility.yul\":23189:23201   */\n      dup3\n        /* \"#utility.yul\":23135:23208   */\n      tag_848\n      jump\t// in\n    tag_959:\n        /* \"#utility.yul\":23127:23208   */\n      swap2\n      pop\n        /* \"#utility.yul\":22984:23219   */\n      pop\n        /* \"#utility.yul\":23301:23305   */\n      0x40\n        /* \"#utility.yul\":23294:23299   */\n      dup4\n        /* \"#utility.yul\":23290:23306   */\n      add\n        /* \"#utility.yul\":23284:23307   */\n      mload\n        /* \"#utility.yul\":23320:23379   */\n      tag_960\n        /* \"#utility.yul\":23373:23377   */\n      0x40\n        /* \"#utility.yul\":23368:23371   */\n      dup7\n        /* \"#utility.yul\":23364:23378   */\n      add\n        /* \"#utility.yul\":23350:23362   */\n      dup3\n        /* \"#utility.yul\":23320:23379   */\n      tag_953\n      jump\t// in\n    tag_960:\n        /* \"#utility.yul\":23229:23389   */\n      pop\n        /* \"#utility.yul\":23406:23410   */\n      dup1\n        /* \"#utility.yul\":23399:23410   */\n      swap2\n      pop\n        /* \"#utility.yul\":22769:23416   */\n      pop\n        /* \"#utility.yul\":22651:23416   */\n      swap3\n      swap2\n      pop\n      pop\n      jump\t// out\n        /* \"#utility.yul\":23482:24235   */\n    tag_736:\n        /* \"#utility.yul\":23583:23586   */\n      0x00\n        /* \"#utility.yul\":23619:23623   */\n      0x60\n        /* \"#utility.yul\":23614:23617   */\n      dup4\n        /* \"#utility.yul\":23610:23624   */\n      add\n        /* \"#utility.yul\":23707:23711   */\n      0x00\n        /* \"#utility.yul\":23700:23705   */\n      dup4\n        /* \"#utility.yul\":23696:23712   */\n      add\n        /* \"#utility.yul\":23690:23713   */\n      mload\n        /* \"#utility.yul\":23726:23783   */\n      tag_962\n        /* \"#utility.yul\":23777:23781   */\n      0x00\n        /* \"#utility.yul\":23772:23775   */\n      dup7\n        /* \"#utility.yul\":23768:23782   */\n      add\n        /* \"#utility.yul\":23754:23766   */\n      dup3\n        /* \"#utility.yul\":23726:23783   */\n      tag_837\n      jump\t// in\n    tag_962:\n        /* \"#utility.yul\":23634:23793   */\n      pop\n        /* \"#utility.yul\":23875:23879   */\n      0x20\n        /* \"#utility.yul\":23868:23873   */\n      dup4\n        /* \"#utility.yul\":23864:23880   */\n      add\n        /* \"#utility.yul\":23858:23881   */\n      mload\n        /* \"#utility.yul\":23928:23931   */\n      dup5\n        /* \"#utility.yul\":23922:23926   */\n      dup3\n        /* \"#utility.yul\":23918:23932   */\n      sub\n        /* \"#utility.yul\":23911:23915   */\n      0x20\n        /* \"#utility.yul\":23906:23909   */\n      dup7\n        /* \"#utility.yul\":23902:23916   */\n      add\n        /* \"#utility.yul\":23895:23933   */\n      mstore\n        /* \"#utility.yul\":23954:24027   */\n      tag_963\n        /* \"#utility.yul\":24022:24026   */\n      dup3\n        /* \"#utility.yul\":24008:24020   */\n      dup3\n        /* \"#utility.yul\":23954:24027   */\n      tag_848\n      jump\t// in\n    tag_963:\n        /* \"#utility.yul\":23946:24027   */\n      swap2\n      pop\n        /* \"#utility.yul\":23803:24038   */\n      pop\n        /* \"#utility.yul\":24120:24124   */\n      0x40\n        /* \"#utility.yul\":24113:24118   */\n      dup4\n        /* \"#utility.yul\":24109:24125   */\n      add\n        /* \"#utility.yul\":24103:24126   */\n      mload\n        /* \"#utility.yul\":24139:24198   */\n      tag_964\n        /* \"#utility.yul\":24192:24196   */\n      0x40\n        /* \"#utility.yul\":24187:24190   */\n      dup7\n        /* \"#utility.yul\":24183:24197   */\n      add\n        /* \"#utility.yul\":24169:24181   */\n      dup3\n        /* \"#utility.yul\":24139:24198   */\n      tag_953\n      jump\t// in\n    tag_964:\n        /* \"#utility.yul\":24048:24208   */\n      pop\n        /* \"#utility.yul\":24225:24229   */\n      dup1\n        /* \"#utility.yul\":24218:24229   */\n      swap2\n      pop\n        /* \"#utility.yul\":23588:24235   */\n      pop\n        /* \"#utility.yul\":23482:24235   */\n      swap3\n      swap2\n      pop\n      pop\n      jump\t// out\n        /* \"#utility.yul\":24299:25050   */\n    tag_740:\n        /* \"#utility.yul\":24398:24401   */\n      0x00\n        /* \"#utility.yul\":24434:24438   */\n      0x60\n        /* \"#utility.yul\":24429:24432   */\n      dup4\n        /* \"#utility.yul\":24425:24439   */\n      add\n        /* \"#utility.yul\":24522:24526   */\n      0x00\n        /* \"#utility.yul\":24515:24520   */\n      dup4\n        /* \"#utility.yul\":24511:24527   */\n      add\n        /* \"#utility.yul\":24505:24528   */\n      mload\n        /* \"#utility.yul\":24541:24598   */\n      tag_966\n        /* \"#utility.yul\":24592:24596   */\n      0x00\n        /* \"#utility.yul\":24587:24590   */\n      dup7\n        /* \"#utility.yul\":24583:24597   */\n      add\n        /* \"#utility.yul\":24569:24581   */\n      dup3\n        /* \"#utility.yul\":24541:24598   */\n      tag_837\n      jump\t// in\n    tag_966:\n        /* \"#utility.yul\":24449:24608   */\n      pop\n        /* \"#utility.yul\":24690:24694   */\n      0x20\n        /* \"#utility.yul\":24683:24688   */\n      dup4\n        /* \"#utility.yul\":24679:24695   */\n      add\n        /* \"#utility.yul\":24673:24696   */\n      mload\n        /* \"#utility.yul\":24743:24746   */\n      dup5\n        /* \"#utility.yul\":24737:24741   */\n      dup3\n        /* \"#utility.yul\":24733:24747   */\n      sub\n        /* \"#utility.yul\":24726:24730   */\n      0x20\n        /* \"#utility.yul\":24721:24724   */\n      dup7\n        /* \"#utility.yul\":24717:24731   */\n      add\n        /* \"#utility.yul\":24710:24748   */\n      mstore\n        /* \"#utility.yul\":24769:24842   */\n      tag_967\n        /* \"#utility.yul\":24837:24841   */\n      dup3\n        /* \"#utility.yul\":24823:24835   */\n      dup3\n        /* \"#utility.yul\":24769:24842   */\n      tag_848\n      jump\t// in\n    tag_967:\n        /* \"#utility.yul\":24761:24842   */\n      swap2\n      pop\n        /* \"#utility.yul\":24618:24853   */\n      pop\n        /* \"#utility.yul\":24935:24939   */\n      0x40\n        /* \"#utility.yul\":24928:24933   */\n      dup4\n        /* \"#utility.yul\":24924:24940   */\n      add\n        /* \"#utility.yul\":24918:24941   */\n      mload\n        /* \"#utility.yul\":24954:25013   */\n      tag_968\n        /* \"#utility.yul\":25007:25011   */\n      0x40\n        /* \"#utility.yul\":25002:25005   */\n      dup7\n        /* \"#utility.yul\":24998:25012   */\n      add\n        /* \"#utility.yul\":24984:24996   */\n      dup3\n        /* \"#utility.yul\":24954:25013   */\n      tag_953\n      jump\t// in\n    tag_968:\n        /* \"#utility.yul\":24863:25023   */\n      pop\n        /* \"#utility.yul\":25040:25044   */\n      dup1\n        /* \"#utility.yul\":25033:25044   */\n      swap2\n      pop\n        /* \"#utility.yul\":24403:25050   */\n      pop\n        /* \"#utility.yul\":24299:25050   */\n      swap3\n      swap2\n      pop\n      pop\n      jump\t// out\n        /* \"#utility.yul\":25140:25917   */\n    tag_744:\n        /* \"#utility.yul\":25265:25268   */\n      0x00\n        /* \"#utility.yul\":25301:25305   */\n      0x60\n        /* \"#utility.yul\":25296:25299   */\n      dup4\n        /* \"#utility.yul\":25292:25306   */\n      add\n        /* \"#utility.yul\":25389:25393   */\n      0x00\n        /* \"#utility.yul\":25382:25387   */\n      dup4\n        /* \"#utility.yul\":25378:25394   */\n      add\n        /* \"#utility.yul\":25372:25395   */\n      mload\n        /* \"#utility.yul\":25408:25465   */\n      tag_970\n        /* \"#utility.yul\":25459:25463   */\n      0x00\n        /* \"#utility.yul\":25454:25457   */\n      dup7\n        /* \"#utility.yul\":25450:25464   */\n      add\n        /* \"#utility.yul\":25436:25448   */\n      dup3\n        /* \"#utility.yul\":25408:25465   */\n      tag_837\n      jump\t// in\n    tag_970:\n        /* \"#utility.yul\":25316:25475   */\n      pop\n        /* \"#utility.yul\":25557:25561   */\n      0x20\n        /* \"#utility.yul\":25550:25555   */\n      dup4\n        /* \"#utility.yul\":25546:25562   */\n      add\n        /* \"#utility.yul\":25540:25563   */\n      mload\n        /* \"#utility.yul\":25610:25613   */\n      dup5\n        /* \"#utility.yul\":25604:25608   */\n      dup3\n        /* \"#utility.yul\":25600:25614   */\n      sub\n        /* \"#utility.yul\":25593:25597   */\n      0x20\n        /* \"#utility.yul\":25588:25591   */\n      dup7\n        /* \"#utility.yul\":25584:25598   */\n      add\n        /* \"#utility.yul\":25577:25615   */\n      mstore\n        /* \"#utility.yul\":25636:25709   */\n      tag_971\n        /* \"#utility.yul\":25704:25708   */\n      dup3\n        /* \"#utility.yul\":25690:25702   */\n      dup3\n        /* \"#utility.yul\":25636:25709   */\n      tag_848\n      jump\t// in\n    tag_971:\n        /* \"#utility.yul\":25628:25709   */\n      swap2\n      pop\n        /* \"#utility.yul\":25485:25720   */\n      pop\n        /* \"#utility.yul\":25802:25806   */\n      0x40\n        /* \"#utility.yul\":25795:25800   */\n      dup4\n        /* \"#utility.yul\":25791:25807   */\n      add\n        /* \"#utility.yul\":25785:25808   */\n      mload\n        /* \"#utility.yul\":25821:25880   */\n      tag_972\n        /* \"#utility.yul\":25874:25878   */\n      0x40\n        /* \"#utility.yul\":25869:25872   */\n      dup7\n        /* \"#utility.yul\":25865:25879   */\n      add\n        /* \"#utility.yul\":25851:25863   */\n      dup3\n        /* \"#utility.yul\":25821:25880   */\n      tag_953\n      jump\t// in\n    tag_972:\n        /* \"#utility.yul\":25730:25890   */\n      pop\n        /* \"#utility.yul\":25907:25911   */\n      dup1\n        /* \"#utility.yul\":25900:25911   */\n      swap2\n      pop\n        /* \"#utility.yul\":25270:25917   */\n      pop\n        /* \"#utility.yul\":25140:25917   */\n      swap3\n      swap2\n      pop\n      pop\n      jump\t// out\n        /* \"#utility.yul\":25995:26758   */\n    tag_748:\n        /* \"#utility.yul\":26106:26109   */\n      0x00\n        /* \"#utility.yul\":26142:26146   */\n      0x60\n        /* \"#utility.yul\":26137:26140   */\n      dup4\n        /* \"#utility.yul\":26133:26147   */\n      add\n        /* \"#utility.yul\":26230:26234   */\n      0x00\n        /* \"#utility.yul\":26223:26228   */\n      dup4\n        /* \"#utility.yul\":26219:26235   */\n      add\n        /* \"#utility.yul\":26213:26236   */\n      mload\n        /* \"#utility.yul\":26249:26306   */\n      tag_974\n        /* \"#utility.yul\":26300:26304   */\n      0x00\n        /* \"#utility.yul\":26295:26298   */\n      dup7\n        /* \"#utility.yul\":26291:26305   */\n      add\n        /* \"#utility.yul\":26277:26289   */\n      dup3\n        /* \"#utility.yul\":26249:26306   */\n      tag_837\n      jump\t// in\n    tag_974:\n        /* \"#utility.yul\":26157:26316   */\n      pop\n        /* \"#utility.yul\":26398:26402   */\n      0x20\n        /* \"#utility.yul\":26391:26396   */\n      dup4\n        /* \"#utility.yul\":26387:26403   */\n      add\n        /* \"#utility.yul\":26381:26404   */\n      mload\n        /* \"#utility.yul\":26451:26454   */\n      dup5\n        /* \"#utility.yul\":26445:26449   */\n      dup3\n        /* \"#utility.yul\":26441:26455   */\n      sub\n        /* \"#utility.yul\":26434:26438   */\n      0x20\n        /* \"#utility.yul\":26429:26432   */\n      dup7\n        /* \"#utility.yul\":26425:26439   */\n      add\n        /* \"#utility.yul\":26418:26456   */\n      mstore\n        /* \"#utility.yul\":26477:26550   */\n      tag_975\n        /* \"#utility.yul\":26545:26549   */\n      dup3\n        /* \"#utility.yul\":26531:26543   */\n      dup3\n        /* \"#utility.yul\":26477:26550   */\n      tag_848\n      jump\t// in\n    tag_975:\n        /* \"#utility.yul\":26469:26550   */\n      swap2\n      pop\n        /* \"#utility.yul\":26326:26561   */\n      pop\n        /* \"#utility.yul\":26643:26647   */\n      0x40\n        /* \"#utility.yul\":26636:26641   */\n      dup4\n        /* \"#utility.yul\":26632:26648   */\n      add\n        /* \"#utility.yul\":26626:26649   */\n      mload\n        /* \"#utility.yul\":26662:26721   */\n      tag_976\n        /* \"#utility.yul\":26715:26719   */\n      0x40\n        /* \"#utility.yul\":26710:26713   */\n      dup7\n        /* \"#utility.yul\":26706:26720   */\n      add\n        /* \"#utility.yul\":26692:26704   */\n      dup3\n        /* \"#utility.yul\":26662:26721   */\n      tag_953\n      jump\t// in\n    tag_976:\n        /* \"#utility.yul\":26571:26731   */\n      pop\n        /* \"#utility.yul\":26748:26752   */\n      dup1\n        /* \"#utility.yul\":26741:26752   */\n      swap2\n      pop\n        /* \"#utility.yul\":26111:26758   */\n      pop\n        /* \"#utility.yul\":25995:26758   */\n      swap3\n      swap2\n      pop\n      pop\n      jump\t// out\n        /* \"#utility.yul\":26764:26879   */\n    tag_977:\n        /* \"#utility.yul\":26849:26872   */\n      tag_979\n        /* \"#utility.yul\":26866:26871   */\n      dup2\n        /* \"#utility.yul\":26849:26872   */\n      tag_980\n      jump\t// in\n    tag_979:\n        /* \"#utility.yul\":26844:26847   */\n      dup3\n        /* \"#utility.yul\":26837:26873   */\n      mstore\n        /* \"#utility.yul\":26764:26879   */\n      pop\n      pop\n      jump\t// out\n        /* \"#utility.yul\":26885:26993   */\n    tag_955:\n        /* \"#utility.yul\":26962:26986   */\n      tag_982\n        /* \"#utility.yul\":26980:26985   */\n      dup2\n        /* \"#utility.yul\":26962:26986   */\n      tag_983\n      jump\t// in\n    tag_982:\n        /* \"#utility.yul\":26957:26960   */\n      dup3\n        /* \"#utility.yul\":26950:26987   */\n      mstore\n        /* \"#utility.yul\":26885:26993   */\n      pop\n      pop\n      jump\t// out\n        /* \"#utility.yul\":26999:27117   */\n    tag_984:\n        /* \"#utility.yul\":27086:27110   */\n      tag_986\n        /* \"#utility.yul\":27104:27109   */\n      dup2\n        /* \"#utility.yul\":27086:27110   */\n      tag_983\n      jump\t// in\n    tag_986:\n        /* \"#utility.yul\":27081:27084   */\n      dup3\n        /* \"#utility.yul\":27074:27111   */\n      mstore\n        /* \"#utility.yul\":26999:27117   */\n      pop\n      pop\n      jump\t// out\n        /* \"#utility.yul\":27123:27238   */\n    tag_987:\n        /* \"#utility.yul\":27208:27231   */\n      tag_989\n        /* \"#utility.yul\":27225:27230   */\n      dup2\n        /* \"#utility.yul\":27208:27231   */\n      tag_990\n      jump\t// in\n    tag_989:\n        /* \"#utility.yul\":27203:27206   */\n      dup3\n        /* \"#utility.yul\":27196:27232   */\n      mstore\n        /* \"#utility.yul\":27123:27238   */\n      pop\n      pop\n      jump\t// out\n        /* \"#utility.yul\":27244:27346   */\n    tag_953:\n        /* \"#utility.yul\":27317:27339   */\n      tag_992\n        /* \"#utility.yul\":27333:27338   */\n      dup2\n        /* \"#utility.yul\":27317:27339   */\n      tag_993\n      jump\t// in\n    tag_992:\n        /* \"#utility.yul\":27312:27315   */\n      dup3\n        /* \"#utility.yul\":27305:27340   */\n      mstore\n        /* \"#utility.yul\":27244:27346   */\n      pop\n      pop\n      jump\t// out\n        /* \"#utility.yul\":27352:27464   */\n    tag_994:\n        /* \"#utility.yul\":27435:27457   */\n      tag_996\n        /* \"#utility.yul\":27451:27456   */\n      dup2\n        /* \"#utility.yul\":27435:27457   */\n      tag_993\n      jump\t// in\n    tag_996:\n        /* \"#utility.yul\":27430:27433   */\n      dup3\n        /* \"#utility.yul\":27423:27458   */\n      mstore\n        /* \"#utility.yul\":27352:27464   */\n      pop\n      pop\n      jump\t// out\n        /* \"#utility.yul\":27470:27692   */\n    tag_87:\n        /* \"#utility.yul\":27563:27567   */\n      0x00\n        /* \"#utility.yul\":27601:27603   */\n      0x20\n        /* \"#utility.yul\":27590:27599   */\n      dup3\n        /* \"#utility.yul\":27586:27604   */\n      add\n        /* \"#utility.yul\":27578:27604   */\n      swap1\n      pop\n        /* \"#utility.yul\":27614:27685   */\n      tag_998\n        /* \"#utility.yul\":27682:27683   */\n      0x00\n        /* \"#utility.yul\":27671:27680   */\n      dup4\n        /* \"#utility.yul\":27667:27684   */\n      add\n        /* \"#utility.yul\":27658:27664   */\n      dup5\n        /* \"#utility.yul\":27614:27685   */\n      tag_749\n      jump\t// in\n    tag_998:\n        /* \"#utility.yul\":27470:27692   */\n      swap3\n      swap2\n      pop\n      pop\n      jump\t// out\n        /* \"#utility.yul\":27698:28159   */\n    tag_229:\n        /* \"#utility.yul\":27885:27889   */\n      0x00\n        /* \"#utility.yul\":27923:27925   */\n      0x20\n        /* \"#utility.yul\":27912:27921   */\n      dup3\n        /* \"#utility.yul\":27908:27926   */\n      add\n        /* \"#utility.yul\":27900:27926   */\n      swap1\n      pop\n        /* \"#utility.yul\":27972:27981   */\n      dup2\n        /* \"#utility.yul\":27966:27970   */\n      dup2\n        /* \"#utility.yul\":27962:27982   */\n      sub\n        /* \"#utility.yul\":27958:27959   */\n      0x00\n        /* \"#utility.yul\":27947:27956   */\n      dup4\n        /* \"#utility.yul\":27943:27960   */\n      add\n        /* \"#utility.yul\":27936:27983   */\n      mstore\n        /* \"#utility.yul\":28000:28152   */\n      tag_1000\n        /* \"#utility.yul\":28147:28151   */\n      dup2\n        /* \"#utility.yul\":28138:28144   */\n      dup5\n        /* \"#utility.yul\":28000:28152   */\n      tag_753\n      jump\t// in\n    tag_1000:\n        /* \"#utility.yul\":27992:28152   */\n      swap1\n      pop\n        /* \"#utility.yul\":27698:28159   */\n      swap3\n      swap2\n      pop\n      pop\n      jump\t// out\n        /* \"#utility.yul\":28165:28646   */\n    tag_236:\n        /* \"#utility.yul\":28362:28366   */\n      0x00\n        /* \"#utility.yul\":28400:28402   */\n      0x20\n        /* \"#utility.yul\":28389:28398   */\n      dup3\n        /* \"#utility.yul\":28385:28403   */\n      add\n        /* \"#utility.yul\":28377:28403   */\n      swap1\n      pop\n        /* \"#utility.yul\":28449:28458   */\n      dup2\n        /* \"#utility.yul\":28443:28447   */\n      dup2\n        /* \"#utility.yul\":28439:28459   */\n      sub\n        /* \"#utility.yul\":28435:28436   */\n      0x00\n        /* \"#utility.yul\":28424:28433   */\n      dup4\n        /* \"#utility.yul\":28420:28437   */\n      add\n        /* \"#utility.yul\":28413:28460   */\n      mstore\n        /* \"#utility.yul\":28477:28639   */\n      tag_1002\n        /* \"#utility.yul\":28634:28638   */\n      dup2\n        /* \"#utility.yul\":28625:28631   */\n      dup5\n        /* \"#utility.yul\":28477:28639   */\n      tag_767\n      jump\t// in\n    tag_1002:\n        /* \"#utility.yul\":28469:28639   */\n      swap1\n      pop\n        /* \"#utility.yul\":28165:28646   */\n      swap3\n      swap2\n      pop\n      pop\n      jump\t// out\n        /* \"#utility.yul\":28652:29109   */\n    tag_222:\n        /* \"#utility.yul\":28837:28841   */\n      0x00\n        /* \"#utility.yul\":28875:28877   */\n      0x20\n        /* \"#utility.yul\":28864:28873   */\n      dup3\n        /* \"#utility.yul\":28860:28878   */\n      add\n        /* \"#utility.yul\":28852:28878   */\n      swap1\n      pop\n        /* \"#utility.yul\":28924:28933   */\n      dup2\n        /* \"#utility.yul\":28918:28922   */\n      dup2\n        /* \"#utility.yul\":28914:28934   */\n      sub\n        /* \"#utility.yul\":28910:28911   */\n      0x00\n        /* \"#utility.yul\":28899:28908   */\n      dup4\n        /* \"#utility.yul\":28895:28912   */\n      add\n        /* \"#utility.yul\":28888:28935   */\n      mstore\n        /* \"#utility.yul\":28952:29102   */\n      tag_1004\n        /* \"#utility.yul\":29097:29101   */\n      dup2\n        /* \"#utility.yul\":29088:29094   */\n      dup5\n        /* \"#utility.yul\":28952:29102   */\n      tag_781\n      jump\t// in\n    tag_1004:\n        /* \"#utility.yul\":28944:29102   */\n      swap1\n      pop\n        /* \"#utility.yul\":28652:29109   */\n      swap3\n      swap2\n      pop\n      pop\n      jump\t// out\n        /* \"#utility.yul\":29115:29568   */\n    tag_179:\n        /* \"#utility.yul\":29298:29302   */\n      0x00\n        /* \"#utility.yul\":29336:29338   */\n      0x20\n        /* \"#utility.yul\":29325:29334   */\n      dup3\n        /* \"#utility.yul\":29321:29339   */\n      add\n        /* \"#utility.yul\":29313:29339   */\n      swap1\n      pop\n        /* \"#utility.yul\":29385:29394   */\n      dup2\n        /* \"#utility.yul\":29379:29383   */\n      dup2\n        /* \"#utility.yul\":29375:29395   */\n      sub\n        /* \"#utility.yul\":29371:29372   */\n      0x00\n        /* \"#utility.yul\":29360:29369   */\n      dup4\n        /* \"#utility.yul\":29356:29373   */\n      add\n        /* \"#utility.yul\":29349:29396   */\n      mstore\n        /* \"#utility.yul\":29413:29561   */\n      tag_1006\n        /* \"#utility.yul\":29556:29560   */\n      dup2\n        /* \"#utility.yul\":29547:29553   */\n      dup5\n        /* \"#utility.yul\":29413:29561   */\n      tag_795\n      jump\t// in\n    tag_1006:\n        /* \"#utility.yul\":29405:29561   */\n      swap1\n      pop\n        /* \"#utility.yul\":29115:29568   */\n      swap3\n      swap2\n      pop\n      pop\n      jump\t// out\n        /* \"#utility.yul\":29574:30079   */\n    tag_281:\n        /* \"#utility.yul\":29783:29787   */\n      0x00\n        /* \"#utility.yul\":29821:29823   */\n      0x20\n        /* \"#utility.yul\":29810:29819   */\n      dup3\n        /* \"#utility.yul\":29806:29824   */\n      add\n        /* \"#utility.yul\":29798:29824   */\n      swap1\n      pop\n        /* \"#utility.yul\":29870:29879   */\n      dup2\n        /* \"#utility.yul\":29864:29868   */\n      dup2\n        /* \"#utility.yul\":29860:29880   */\n      sub\n        /* \"#utility.yul\":29856:29857   */\n      0x00\n        /* \"#utility.yul\":29845:29854   */\n      dup4\n        /* \"#utility.yul\":29841:29858   */\n      add\n        /* \"#utility.yul\":29834:29881   */\n      mstore\n        /* \"#utility.yul\":29898:30072   */\n      tag_1008\n        /* \"#utility.yul\":30067:30071   */\n      dup2\n        /* \"#utility.yul\":30058:30064   */\n      dup5\n        /* \"#utility.yul\":29898:30072   */\n      tag_809\n      jump\t// in\n    tag_1008:\n        /* \"#utility.yul\":29890:30072   */\n      swap1\n      pop\n        /* \"#utility.yul\":29574:30079   */\n      swap3\n      swap2\n      pop\n      pop\n      jump\t// out\n        /* \"#utility.yul\":30085:30562   */\n    tag_158:\n        /* \"#utility.yul\":30280:30284   */\n      0x00\n        /* \"#utility.yul\":30318:30320   */\n      0x20\n        /* \"#utility.yul\":30307:30316   */\n      dup3\n        /* \"#utility.yul\":30303:30321   */\n      add\n        /* \"#utility.yul\":30295:30321   */\n      swap1\n      pop\n        /* \"#utility.yul\":30367:30376   */\n      dup2\n        /* \"#utility.yul\":30361:30365   */\n      dup2\n        /* \"#utility.yul\":30357:30377   */\n      sub\n        /* \"#utility.yul\":30353:30354   */\n      0x00\n        /* \"#utility.yul\":30342:30351   */\n      dup4\n        /* \"#utility.yul\":30338:30355   */\n      add\n        /* \"#utility.yul\":30331:30378   */\n      mstore\n        /* \"#utility.yul\":30395:30555   */\n      tag_1010\n        /* \"#utility.yul\":30550:30554   */\n      dup2\n        /* \"#utility.yul\":30541:30547   */\n      dup5\n        /* \"#utility.yul\":30395:30555   */\n      tag_823\n      jump\t// in\n    tag_1010:\n        /* \"#utility.yul\":30387:30555   */\n      swap1\n      pop\n        /* \"#utility.yul\":30085:30562   */\n      swap3\n      swap2\n      pop\n      pop\n      jump\t// out\n        /* \"#utility.yul\":30568:30778   */\n    tag_81:\n        /* \"#utility.yul\":30655:30659   */\n      0x00\n        /* \"#utility.yul\":30693:30695   */\n      0x20\n        /* \"#utility.yul\":30682:30691   */\n      dup3\n        /* \"#utility.yul\":30678:30696   */\n      add\n        /* \"#utility.yul\":30670:30696   */\n      swap1\n      pop\n        /* \"#utility.yul\":30706:30771   */\n      tag_1012\n        /* \"#utility.yul\":30768:30769   */\n      0x00\n        /* \"#utility.yul\":30757:30766   */\n      dup4\n        /* \"#utility.yul\":30753:30770   */\n      add\n        /* \"#utility.yul\":30744:30750   */\n      dup5\n        /* \"#utility.yul\":30706:30771   */\n      tag_841\n      jump\t// in\n    tag_1012:\n        /* \"#utility.yul\":30568:30778   */\n      swap3\n      swap2\n      pop\n      pop\n      jump\t// out\n        /* \"#utility.yul\":30784:31737   */\n    tag_208:\n        /* \"#utility.yul\":31055:31059   */\n      0x00\n        /* \"#utility.yul\":31093:31096   */\n      0xc0\n        /* \"#utility.yul\":31082:31091   */\n      dup3\n        /* \"#utility.yul\":31078:31097   */\n      add\n        /* \"#utility.yul\":31070:31097   */\n      swap1\n      pop\n        /* \"#utility.yul\":31107:31172   */\n      tag_1014\n        /* \"#utility.yul\":31169:31170   */\n      0x00\n        /* \"#utility.yul\":31158:31167   */\n      dup4\n        /* \"#utility.yul\":31154:31171   */\n      add\n        /* \"#utility.yul\":31145:31151   */\n      dup10\n        /* \"#utility.yul\":31107:31172   */\n      tag_841\n      jump\t// in\n    tag_1014:\n        /* \"#utility.yul\":31182:31254   */\n      tag_1015\n        /* \"#utility.yul\":31250:31252   */\n      0x20\n        /* \"#utility.yul\":31239:31248   */\n      dup4\n        /* \"#utility.yul\":31235:31253   */\n      add\n        /* \"#utility.yul\":31226:31232   */\n      dup9\n        /* \"#utility.yul\":31182:31254   */\n      tag_749\n      jump\t// in\n    tag_1015:\n        /* \"#utility.yul\":31264:31334   */\n      tag_1016\n        /* \"#utility.yul\":31330:31332   */\n      0x40\n        /* \"#utility.yul\":31319:31328   */\n      dup4\n        /* \"#utility.yul\":31315:31333   */\n      add\n        /* \"#utility.yul\":31306:31312   */\n      dup8\n        /* \"#utility.yul\":31264:31334   */\n      tag_977\n      jump\t// in\n    tag_1016:\n        /* \"#utility.yul\":31344:31422   */\n      tag_1017\n        /* \"#utility.yul\":31418:31420   */\n      0x60\n        /* \"#utility.yul\":31407:31416   */\n      dup4\n        /* \"#utility.yul\":31403:31421   */\n      add\n        /* \"#utility.yul\":31394:31400   */\n      dup7\n        /* \"#utility.yul\":31344:31422   */\n      tag_844\n      jump\t// in\n    tag_1017:\n        /* \"#utility.yul\":31470:31479   */\n      dup2\n        /* \"#utility.yul\":31464:31468   */\n      dup2\n        /* \"#utility.yul\":31460:31480   */\n      sub\n        /* \"#utility.yul\":31454:31457   */\n      0x80\n        /* \"#utility.yul\":31443:31452   */\n      dup4\n        /* \"#utility.yul\":31439:31458   */\n      add\n        /* \"#utility.yul\":31432:31481   */\n      mstore\n        /* \"#utility.yul\":31498:31576   */\n      tag_1018\n        /* \"#utility.yul\":31571:31575   */\n      dup2\n        /* \"#utility.yul\":31562:31568   */\n      dup6\n        /* \"#utility.yul\":31498:31576   */\n      tag_858\n      jump\t// in\n    tag_1018:\n        /* \"#utility.yul\":31490:31576   */\n      swap1\n      pop\n        /* \"#utility.yul\":31624:31633   */\n      dup2\n        /* \"#utility.yul\":31618:31622   */\n      dup2\n        /* \"#utility.yul\":31614:31634   */\n      sub\n        /* \"#utility.yul\":31608:31611   */\n      0xa0\n        /* \"#utility.yul\":31597:31606   */\n      dup4\n        /* \"#utility.yul\":31593:31612   */\n      add\n        /* \"#utility.yul\":31586:31635   */\n      mstore\n        /* \"#utility.yul\":31652:31730   */\n      tag_1019\n        /* \"#utility.yul\":31725:31729   */\n      dup2\n        /* \"#utility.yul\":31716:31722   */\n      dup5\n        /* \"#utility.yul\":31652:31730   */\n      tag_858\n      jump\t// in\n    tag_1019:\n        /* \"#utility.yul\":31644:31730   */\n      swap1\n      pop\n        /* \"#utility.yul\":30784:31737   */\n      swap8\n      swap7\n      pop\n      pop\n      pop\n      pop\n      pop\n      pop\n      pop\n      jump\t// out\n        /* \"#utility.yul\":31743:32256   */\n    tag_106:\n        /* \"#utility.yul\":31902:31906   */\n      0x00\n        /* \"#utility.yul\":31940:31942   */\n      0x60\n        /* \"#utility.yul\":31929:31938   */\n      dup3\n        /* \"#utility.yul\":31925:31943   */\n      add\n        /* \"#utility.yul\":31917:31943   */\n      swap1\n      pop\n        /* \"#utility.yul\":31953:32018   */\n      tag_1021\n        /* \"#utility.yul\":32015:32016   */\n      0x00\n        /* \"#utility.yul\":32004:32013   */\n      dup4\n        /* \"#utility.yul\":32000:32017   */\n      add\n        /* \"#utility.yul\":31991:31997   */\n      dup7\n        /* \"#utility.yul\":31953:32018   */\n      tag_841\n      jump\t// in\n    tag_1021:\n        /* \"#utility.yul\":32065:32074   */\n      dup2\n        /* \"#utility.yul\":32059:32063   */\n      dup2\n        /* \"#utility.yul\":32055:32075   */\n      sub\n        /* \"#utility.yul\":32050:32052   */\n      0x20\n        /* \"#utility.yul\":32039:32048   */\n      dup4\n        /* \"#utility.yul\":32035:32053   */\n      add\n        /* \"#utility.yul\":32028:32076   */\n      mstore\n        /* \"#utility.yul\":32093:32171   */\n      tag_1022\n        /* \"#utility.yul\":32166:32170   */\n      dup2\n        /* \"#utility.yul\":32157:32163   */\n      dup6\n        /* \"#utility.yul\":32093:32171   */\n      tag_858\n      jump\t// in\n    tag_1022:\n        /* \"#utility.yul\":32085:32171   */\n      swap1\n      pop\n        /* \"#utility.yul\":32181:32249   */\n      tag_1023\n        /* \"#utility.yul\":32245:32247   */\n      0x40\n        /* \"#utility.yul\":32234:32243   */\n      dup4\n        /* \"#utility.yul\":32230:32248   */\n      add\n        /* \"#utility.yul\":32221:32227   */\n      dup5\n        /* \"#utility.yul\":32181:32249   */\n      tag_994\n      jump\t// in\n    tag_1023:\n        /* \"#utility.yul\":31743:32256   */\n      swap5\n      swap4\n      pop\n      pop\n      pop\n      pop\n      jump\t// out\n        /* \"#utility.yul\":32262:32886   */\n    tag_134:\n        /* \"#utility.yul\":32449:32453   */\n      0x00\n        /* \"#utility.yul\":32487:32490   */\n      0x80\n        /* \"#utility.yul\":32476:32485   */\n      dup3\n        /* \"#utility.yul\":32472:32491   */\n      add\n        /* \"#utility.yul\":32464:32491   */\n      swap1\n      pop\n        /* \"#utility.yul\":32501:32566   */\n      tag_1025\n        /* \"#utility.yul\":32563:32564   */\n      0x00\n        /* \"#utility.yul\":32552:32561   */\n      dup4\n        /* \"#utility.yul\":32548:32565   */\n      add\n        /* \"#utility.yul\":32539:32545   */\n      dup8\n        /* \"#utility.yul\":32501:32566   */\n      tag_841\n      jump\t// in\n    tag_1025:\n        /* \"#utility.yul\":32576:32644   */\n      tag_1026\n        /* \"#utility.yul\":32640:32642   */\n      0x20\n        /* \"#utility.yul\":32629:32638   */\n      dup4\n        /* \"#utility.yul\":32625:32643   */\n      add\n        /* \"#utility.yul\":32616:32622   */\n      dup7\n        /* \"#utility.yul\":32576:32644   */\n      tag_994\n      jump\t// in\n    tag_1026:\n        /* \"#utility.yul\":32654:32726   */\n      tag_1027\n        /* \"#utility.yul\":32722:32724   */\n      0x40\n        /* \"#utility.yul\":32711:32720   */\n      dup4\n        /* \"#utility.yul\":32707:32725   */\n      add\n        /* \"#utility.yul\":32698:32704   */\n      dup6\n        /* \"#utility.yul\":32654:32726   */\n      tag_984\n      jump\t// in\n    tag_1027:\n        /* \"#utility.yul\":32773:32782   */\n      dup2\n        /* \"#utility.yul\":32767:32771   */\n      dup2\n        /* \"#utility.yul\":32763:32783   */\n      sub\n        /* \"#utility.yul\":32758:32760   */\n      0x60\n        /* \"#utility.yul\":32747:32756   */\n      dup4\n        /* \"#utility.yul\":32743:32761   */\n      add\n        /* \"#utility.yul\":32736:32784   */\n      mstore\n        /* \"#utility.yul\":32801:32879   */\n      tag_1028\n        /* \"#utility.yul\":32874:32878   */\n      dup2\n        /* \"#utility.yul\":32865:32871   */\n      dup5\n        /* \"#utility.yul\":32801:32879   */\n      tag_858\n      jump\t// in\n    tag_1028:\n        /* \"#utility.yul\":32793:32879   */\n      swap1\n      pop\n        /* \"#utility.yul\":32262:32886   */\n      swap6\n      swap5\n      pop\n      pop\n      pop\n      pop\n      pop\n      jump\t// out\n        /* \"#utility.yul\":32892:33311   */\n    tag_368:\n        /* \"#utility.yul\":33058:33062   */\n      0x00\n        /* \"#utility.yul\":33096:33098   */\n      0x20\n        /* \"#utility.yul\":33085:33094   */\n      dup3\n        /* \"#utility.yul\":33081:33099   */\n      add\n        /* \"#utility.yul\":33073:33099   */\n      swap1\n      pop\n        /* \"#utility.yul\":33145:33154   */\n      dup2\n        /* \"#utility.yul\":33139:33143   */\n      dup2\n        /* \"#utility.yul\":33135:33155   */\n      sub\n        /* \"#utility.yul\":33131:33132   */\n      0x00\n        /* \"#utility.yul\":33120:33129   */\n      dup4\n        /* \"#utility.yul\":33116:33133   */\n      add\n        /* \"#utility.yul\":33109:33156   */\n      mstore\n        /* \"#utility.yul\":33173:33304   */\n      tag_1030\n        /* \"#utility.yul\":33299:33303   */\n      dup2\n        /* \"#utility.yul\":33173:33304   */\n      tag_865\n      jump\t// in\n    tag_1030:\n        /* \"#utility.yul\":33165:33304   */\n      swap1\n      pop\n        /* \"#utility.yul\":32892:33311   */\n      swap2\n      swap1\n      pop\n      jump\t// out\n        /* \"#utility.yul\":33317:33736   */\n    tag_345:\n        /* \"#utility.yul\":33483:33487   */\n      0x00\n        /* \"#utility.yul\":33521:33523   */\n      0x20\n        /* \"#utility.yul\":33510:33519   */\n      dup3\n        /* \"#utility.yul\":33506:33524   */\n      add\n        /* \"#utility.yul\":33498:33524   */\n      swap1\n      pop\n        /* \"#utility.yul\":33570:33579   */\n      dup2\n        /* \"#utility.yul\":33564:33568   */\n      dup2\n        /* \"#utility.yul\":33560:33580   */\n      sub\n        /* \"#utility.yul\":33556:33557   */\n      0x00\n        /* \"#utility.yul\":33545:33554   */\n      dup4\n        /* \"#utility.yul\":33541:33558   */\n      add\n        /* \"#utility.yul\":33534:33581   */\n      mstore\n        /* \"#utility.yul\":33598:33729   */\n      tag_1032\n        /* \"#utility.yul\":33724:33728   */\n      dup2\n        /* \"#utility.yul\":33598:33729   */\n      tag_870\n      jump\t// in\n    tag_1032:\n        /* \"#utility.yul\":33590:33729   */\n      swap1\n      pop\n        /* \"#utility.yul\":33317:33736   */\n      swap2\n      swap1\n      pop\n      jump\t// out\n        /* \"#utility.yul\":33742:34161   */\n    tag_487:\n        /* \"#utility.yul\":33908:33912   */\n      0x00\n        /* \"#utility.yul\":33946:33948   */\n      0x20\n        /* \"#utility.yul\":33935:33944   */\n      dup3\n        /* \"#utility.yul\":33931:33949   */\n      add\n        /* \"#utility.yul\":33923:33949   */\n      swap1\n      pop\n        /* \"#utility.yul\":33995:34004   */\n      dup2\n        /* \"#utility.yul\":33989:33993   */\n      dup2\n        /* \"#utility.yul\":33985:34005   */\n      sub\n        /* \"#utility.yul\":33981:33982   */\n      0x00\n        /* \"#utility.yul\":33970:33979   */\n      dup4\n        /* \"#utility.yul\":33966:33983   */\n      add\n        /* \"#utility.yul\":33959:34006   */\n      mstore\n        /* \"#utility.yul\":34023:34154   */\n      tag_1034\n        /* \"#utility.yul\":34149:34153   */\n      dup2\n        /* \"#utility.yul\":34023:34154   */\n      tag_875\n      jump\t// in\n    tag_1034:\n        /* \"#utility.yul\":34015:34154   */\n      swap1\n      pop\n        /* \"#utility.yul\":33742:34161   */\n      swap2\n      swap1\n      pop\n      jump\t// out\n        /* \"#utility.yul\":34167:34586   */\n    tag_482:\n        /* \"#utility.yul\":34333:34337   */\n      0x00\n        /* \"#utility.yul\":34371:34373   */\n      0x20\n        /* \"#utility.yul\":34360:34369   */\n      dup3\n        /* \"#utility.yul\":34356:34374   */\n      add\n        /* \"#utility.yul\":34348:34374   */\n      swap1\n      pop\n        /* \"#utility.yul\":34420:34429   */\n      dup2\n        /* \"#utility.yul\":34414:34418   */\n      dup2\n        /* \"#utility.yul\":34410:34430   */\n      sub\n        /* \"#utility.yul\":34406:34407   */\n      0x00\n        /* \"#utility.yul\":34395:34404   */\n      dup4\n        /* \"#utility.yul\":34391:34408   */\n      add\n        /* \"#utility.yul\":34384:34431   */\n      mstore\n        /* \"#utility.yul\":34448:34579   */\n      tag_1036\n        /* \"#utility.yul\":34574:34578   */\n      dup2\n        /* \"#utility.yul\":34448:34579   */\n      tag_880\n      jump\t// in\n    tag_1036:\n        /* \"#utility.yul\":34440:34579   */\n      swap1\n      pop\n        /* \"#utility.yul\":34167:34586   */\n      swap2\n      swap1\n      pop\n      jump\t// out\n        /* \"#utility.yul\":34592:35011   */\n    tag_603:\n        /* \"#utility.yul\":34758:34762   */\n      0x00\n        /* \"#utility.yul\":34796:34798   */\n      0x20\n        /* \"#utility.yul\":34785:34794   */\n      dup3\n        /* \"#utility.yul\":34781:34799   */\n      add\n        /* \"#utility.yul\":34773:34799   */\n      swap1\n      pop\n        /* \"#utility.yul\":34845:34854   */\n      dup2\n        /* \"#utility.yul\":34839:34843   */\n      dup2\n        /* \"#utility.yul\":34835:34855   */\n      sub\n        /* \"#utility.yul\":34831:34832   */\n      0x00\n        /* \"#utility.yul\":34820:34829   */\n      dup4\n        /* \"#utility.yul\":34816:34833   */\n      add\n        /* \"#utility.yul\":34809:34856   */\n      mstore\n        /* \"#utility.yul\":34873:35004   */\n      tag_1038\n        /* \"#utility.yul\":34999:35003   */\n      dup2\n        /* \"#utility.yul\":34873:35004   */\n      tag_885\n      jump\t// in\n    tag_1038:\n        /* \"#utility.yul\":34865:35004   */\n      swap1\n      pop\n        /* \"#utility.yul\":34592:35011   */\n      swap2\n      swap1\n      pop\n      jump\t// out\n        /* \"#utility.yul\":35017:35436   */\n    tag_515:\n        /* \"#utility.yul\":35183:35187   */\n      0x00\n        /* \"#utility.yul\":35221:35223   */\n      0x20\n        /* \"#utility.yul\":35210:35219   */\n      dup3\n        /* \"#utility.yul\":35206:35224   */\n      add\n        /* \"#utility.yul\":35198:35224   */\n      swap1\n      pop\n        /* \"#utility.yul\":35270:35279   */\n      dup2\n        /* \"#utility.yul\":35264:35268   */\n      dup2\n        /* \"#utility.yul\":35260:35280   */\n      sub\n        /* \"#utility.yul\":35256:35257   */\n      0x00\n        /* \"#utility.yul\":35245:35254   */\n      dup4\n        /* \"#utility.yul\":35241:35258   */\n      add\n        /* \"#utility.yul\":35234:35281   */\n      mstore\n        /* \"#utility.yul\":35298:35429   */\n      tag_1040\n        /* \"#utility.yul\":35424:35428   */\n      dup2\n        /* \"#utility.yul\":35298:35429   */\n      tag_890\n      jump\t// in\n    tag_1040:\n        /* \"#utility.yul\":35290:35429   */\n      swap1\n      pop\n        /* \"#utility.yul\":35017:35436   */\n      swap2\n      swap1\n      pop\n      jump\t// out\n        /* \"#utility.yul\":35442:35861   */\n    tag_421:\n        /* \"#utility.yul\":35608:35612   */\n      0x00\n        /* \"#utility.yul\":35646:35648   */\n      0x20\n        /* \"#utility.yul\":35635:35644   */\n      dup3\n        /* \"#utility.yul\":35631:35649   */\n      add\n        /* \"#utility.yul\":35623:35649   */\n      swap1\n      pop\n        /* \"#utility.yul\":35695:35704   */\n      dup2\n        /* \"#utility.yul\":35689:35693   */\n      dup2\n        /* \"#utility.yul\":35685:35705   */\n      sub\n        /* \"#utility.yul\":35681:35682   */\n      0x00\n        /* \"#utility.yul\":35670:35679   */\n      dup4\n        /* \"#utility.yul\":35666:35683   */\n      add\n        /* \"#utility.yul\":35659:35706   */\n      mstore\n        /* \"#utility.yul\":35723:35854   */\n      tag_1042\n        /* \"#utility.yul\":35849:35853   */\n      dup2\n        /* \"#utility.yul\":35723:35854   */\n      tag_895\n      jump\t// in\n    tag_1042:\n        /* \"#utility.yul\":35715:35854   */\n      swap1\n      pop\n        /* \"#utility.yul\":35442:35861   */\n      swap2\n      swap1\n      pop\n      jump\t// out\n        /* \"#utility.yul\":35867:36286   */\n    tag_415:\n        /* \"#utility.yul\":36033:36037   */\n      0x00\n        /* \"#utility.yul\":36071:36073   */\n      0x20\n        /* \"#utility.yul\":36060:36069   */\n      dup3\n        /* \"#utility.yul\":36056:36074   */\n      add\n        /* \"#utility.yul\":36048:36074   */\n      swap1\n      pop\n        /* \"#utility.yul\":36120:36129   */\n      dup2\n        /* \"#utility.yul\":36114:36118   */\n      dup2\n        /* \"#utility.yul\":36110:36130   */\n      sub\n        /* \"#utility.yul\":36106:36107   */\n      0x00\n        /* \"#utility.yul\":36095:36104   */\n      dup4\n        /* \"#utility.yul\":36091:36108   */\n      add\n        /* \"#utility.yul\":36084:36131   */\n      mstore\n        /* \"#utility.yul\":36148:36279   */\n      tag_1044\n        /* \"#utility.yul\":36274:36278   */\n      dup2\n        /* \"#utility.yul\":36148:36279   */\n      tag_900\n      jump\t// in\n    tag_1044:\n        /* \"#utility.yul\":36140:36279   */\n      swap1\n      pop\n        /* \"#utility.yul\":35867:36286   */\n      swap2\n      swap1\n      pop\n      jump\t// out\n        /* \"#utility.yul\":36292:36711   */\n    tag_399:\n        /* \"#utility.yul\":36458:36462   */\n      0x00\n        /* \"#utility.yul\":36496:36498   */\n      0x20\n        /* \"#utility.yul\":36485:36494   */\n      dup3\n        /* \"#utility.yul\":36481:36499   */\n      add\n        /* \"#utility.yul\":36473:36499   */\n      swap1\n      pop\n        /* \"#utility.yul\":36545:36554   */\n      dup2\n        /* \"#utility.yul\":36539:36543   */\n      dup2\n        /* \"#utility.yul\":36535:36555   */\n      sub\n        /* \"#utility.yul\":36531:36532   */\n      0x00\n        /* \"#utility.yul\":36520:36529   */\n      dup4\n        /* \"#utility.yul\":36516:36533   */\n      add\n        /* \"#utility.yul\":36509:36556   */\n      mstore\n        /* \"#utility.yul\":36573:36704   */\n      tag_1046\n        /* \"#utility.yul\":36699:36703   */\n      dup2\n        /* \"#utility.yul\":36573:36704   */\n      tag_905\n      jump\t// in\n    tag_1046:\n        /* \"#utility.yul\":36565:36704   */\n      swap1\n      pop\n        /* \"#utility.yul\":36292:36711   */\n      swap2\n      swap1\n      pop\n      jump\t// out\n        /* \"#utility.yul\":36717:37136   */\n    tag_306:\n        /* \"#utility.yul\":36883:36887   */\n      0x00\n        /* \"#utility.yul\":36921:36923   */\n      0x20\n        /* \"#utility.yul\":36910:36919   */\n      dup3\n        /* \"#utility.yul\":36906:36924   */\n      add\n        /* \"#utility.yul\":36898:36924   */\n      swap1\n      pop\n        /* \"#utility.yul\":36970:36979   */\n      dup2\n        /* \"#utility.yul\":36964:36968   */\n      dup2\n        /* \"#utility.yul\":36960:36980   */\n      sub\n        /* \"#utility.yul\":36956:36957   */\n      0x00\n        /* \"#utility.yul\":36945:36954   */\n      dup4\n        /* \"#utility.yul\":36941:36958   */\n      add\n        /* \"#utility.yul\":36934:36981   */\n      mstore\n        /* \"#utility.yul\":36998:37129   */\n      tag_1048\n        /* \"#utility.yul\":37124:37128   */\n      dup2\n        /* \"#utility.yul\":36998:37129   */\n      tag_910\n      jump\t// in\n    tag_1048:\n        /* \"#utility.yul\":36990:37129   */\n      swap1\n      pop\n        /* \"#utility.yul\":36717:37136   */\n      swap2\n      swap1\n      pop\n      jump\t// out\n        /* \"#utility.yul\":37142:37561   */\n    tag_286:\n        /* \"#utility.yul\":37308:37312   */\n      0x00\n        /* \"#utility.yul\":37346:37348   */\n      0x20\n        /* \"#utility.yul\":37335:37344   */\n      dup3\n        /* \"#utility.yul\":37331:37349   */\n      add\n        /* \"#utility.yul\":37323:37349   */\n      swap1\n      pop\n        /* \"#utility.yul\":37395:37404   */\n      dup2\n        /* \"#utility.yul\":37389:37393   */\n      dup2\n        /* \"#utility.yul\":37385:37405   */\n      sub\n        /* \"#utility.yul\":37381:37382   */\n      0x00\n        /* \"#utility.yul\":37370:37379   */\n      dup4\n        /* \"#utility.yul\":37366:37383   */\n      add\n        /* \"#utility.yul\":37359:37406   */\n      mstore\n        /* \"#utility.yul\":37423:37554   */\n      tag_1050\n        /* \"#utility.yul\":37549:37553   */\n      dup2\n        /* \"#utility.yul\":37423:37554   */\n      tag_915\n      jump\t// in\n    tag_1050:\n        /* \"#utility.yul\":37415:37554   */\n      swap1\n      pop\n        /* \"#utility.yul\":37142:37561   */\n      swap2\n      swap1\n      pop\n      jump\t// out\n        /* \"#utility.yul\":37567:37986   */\n    tag_358:\n        /* \"#utility.yul\":37733:37737   */\n      0x00\n        /* \"#utility.yul\":37771:37773   */\n      0x20\n        /* \"#utility.yul\":37760:37769   */\n      dup3\n        /* \"#utility.yul\":37756:37774   */\n      add\n        /* \"#utility.yul\":37748:37774   */\n      swap1\n      pop\n        /* \"#utility.yul\":37820:37829   */\n      dup2\n        /* \"#utility.yul\":37814:37818   */\n      dup2\n        /* \"#utility.yul\":37810:37830   */\n      sub\n        /* \"#utility.yul\":37806:37807   */\n      0x00\n        /* \"#utility.yul\":37795:37804   */\n      dup4\n        /* \"#utility.yul\":37791:37808   */\n      add\n        /* \"#utility.yul\":37784:37831   */\n      mstore\n        /* \"#utility.yul\":37848:37979   */\n      tag_1052\n        /* \"#utility.yul\":37974:37978   */\n      dup2\n        /* \"#utility.yul\":37848:37979   */\n      tag_920\n      jump\t// in\n    tag_1052:\n        /* \"#utility.yul\":37840:37979   */\n      swap1\n      pop\n        /* \"#utility.yul\":37567:37986   */\n      swap2\n      swap1\n      pop\n      jump\t// out\n        /* \"#utility.yul\":37992:38411   */\n    tag_597:\n        /* \"#utility.yul\":38158:38162   */\n      0x00\n        /* \"#utility.yul\":38196:38198   */\n      0x20\n        /* \"#utility.yul\":38185:38194   */\n      dup3\n        /* \"#utility.yul\":38181:38199   */\n      add\n        /* \"#utility.yul\":38173:38199   */\n      swap1\n      pop\n        /* \"#utility.yul\":38245:38254   */\n      dup2\n        /* \"#utility.yul\":38239:38243   */\n      dup2\n        /* \"#utility.yul\":38235:38255   */\n      sub\n        /* \"#utility.yul\":38231:38232   */\n      0x00\n        /* \"#utility.yul\":38220:38229   */\n      dup4\n        /* \"#utility.yul\":38216:38233   */\n      add\n        /* \"#utility.yul\":38209:38256   */\n      mstore\n        /* \"#utility.yul\":38273:38404   */\n      tag_1054\n        /* \"#utility.yul\":38399:38403   */\n      dup2\n        /* \"#utility.yul\":38273:38404   */\n      tag_925\n      jump\t// in\n    tag_1054:\n        /* \"#utility.yul\":38265:38404   */\n      swap1\n      pop\n        /* \"#utility.yul\":37992:38411   */\n      swap2\n      swap1\n      pop\n      jump\t// out\n        /* \"#utility.yul\":38417:38836   */\n    tag_300:\n        /* \"#utility.yul\":38583:38587   */\n      0x00\n        /* \"#utility.yul\":38621:38623   */\n      0x20\n        /* \"#utility.yul\":38610:38619   */\n      dup3\n        /* \"#utility.yul\":38606:38624   */\n      add\n        /* \"#utility.yul\":38598:38624   */\n      swap1\n      pop\n        /* \"#utility.yul\":38670:38679   */\n      dup2\n        /* \"#utility.yul\":38664:38668   */\n      dup2\n        /* \"#utility.yul\":38660:38680   */\n      sub\n        /* \"#utility.yul\":38656:38657   */\n      0x00\n        /* \"#utility.yul\":38645:38654   */\n      dup4\n        /* \"#utility.yul\":38641:38658   */\n      add\n        /* \"#utility.yul\":38634:38681   */\n      mstore\n        /* \"#utility.yul\":38698:38829   */\n      tag_1056\n        /* \"#utility.yul\":38824:38828   */\n      dup2\n        /* \"#utility.yul\":38698:38829   */\n      tag_930\n      jump\t// in\n    tag_1056:\n        /* \"#utility.yul\":38690:38829   */\n      swap1\n      pop\n        /* \"#utility.yul\":38417:38836   */\n      swap2\n      swap1\n      pop\n      jump\t// out\n        /* \"#utility.yul\":38842:39261   */\n    tag_319:\n        /* \"#utility.yul\":39008:39012   */\n      0x00\n        /* \"#utility.yul\":39046:39048   */\n      0x20\n        /* \"#utility.yul\":39035:39044   */\n      dup3\n        /* \"#utility.yul\":39031:39049   */\n      add\n        /* \"#utility.yul\":39023:39049   */\n      swap1\n      pop\n        /* \"#utility.yul\":39095:39104   */\n      dup2\n        /* \"#utility.yul\":39089:39093   */\n      dup2\n        /* \"#utility.yul\":39085:39105   */\n      sub\n        /* \"#utility.yul\":39081:39082   */\n      0x00\n        /* \"#utility.yul\":39070:39079   */\n      dup4\n        /* \"#utility.yul\":39066:39083   */\n      add\n        /* \"#utility.yul\":39059:39106   */\n      mstore\n        /* \"#utility.yul\":39123:39254   */\n      tag_1058\n        /* \"#utility.yul\":39249:39253   */\n      dup2\n        /* \"#utility.yul\":39123:39254   */\n      tag_935\n      jump\t// in\n    tag_1058:\n        /* \"#utility.yul\":39115:39254   */\n      swap1\n      pop\n        /* \"#utility.yul\":38842:39261   */\n      swap2\n      swap1\n      pop\n      jump\t// out\n        /* \"#utility.yul\":39267:39686   */\n    tag_458:\n        /* \"#utility.yul\":39433:39437   */\n      0x00\n        /* \"#utility.yul\":39471:39473   */\n      0x20\n        /* \"#utility.yul\":39460:39469   */\n      dup3\n        /* \"#utility.yul\":39456:39474   */\n      add\n        /* \"#utility.yul\":39448:39474   */\n      swap1\n      pop\n        /* \"#utility.yul\":39520:39529   */\n      dup2\n        /* \"#utility.yul\":39514:39518   */\n      dup2\n        /* \"#utility.yul\":39510:39530   */\n      sub\n        /* \"#utility.yul\":39506:39507   */\n      0x00\n        /* \"#utility.yul\":39495:39504   */\n      dup4\n        /* \"#utility.yul\":39491:39508   */\n      add\n        /* \"#utility.yul\":39484:39531   */\n      mstore\n        /* \"#utility.yul\":39548:39679   */\n      tag_1060\n        /* \"#utility.yul\":39674:39678   */\n      dup2\n        /* \"#utility.yul\":39548:39679   */\n      tag_940\n      jump\t// in\n    tag_1060:\n        /* \"#utility.yul\":39540:39679   */\n      swap1\n      pop\n        /* \"#utility.yul\":39267:39686   */\n      swap2\n      swap1\n      pop\n      jump\t// out\n        /* \"#utility.yul\":39692:40111   */\n    tag_521:\n        /* \"#utility.yul\":39858:39862   */\n      0x00\n        /* \"#utility.yul\":39896:39898   */\n      0x20\n        /* \"#utility.yul\":39885:39894   */\n      dup3\n        /* \"#utility.yul\":39881:39899   */\n      add\n        /* \"#utility.yul\":39873:39899   */\n      swap1\n      pop\n        /* \"#utility.yul\":39945:39954   */\n      dup2\n        /* \"#utility.yul\":39939:39943   */\n      dup2\n        /* \"#utility.yul\":39935:39955   */\n      sub\n        /* \"#utility.yul\":39931:39932   */\n      0x00\n        /* \"#utility.yul\":39920:39929   */\n      dup4\n        /* \"#utility.yul\":39916:39933   */\n      add\n        /* \"#utility.yul\":39909:39956   */\n      mstore\n        /* \"#utility.yul\":39973:40104   */\n      tag_1062\n        /* \"#utility.yul\":40099:40103   */\n      dup2\n        /* \"#utility.yul\":39973:40104   */\n      tag_945\n      jump\t// in\n    tag_1062:\n        /* \"#utility.yul\":39965:40104   */\n      swap1\n      pop\n        /* \"#utility.yul\":39692:40111   */\n      swap2\n      swap1\n      pop\n      jump\t// out\n        /* \"#utility.yul\":40117:40536   */\n    tag_185:\n        /* \"#utility.yul\":40256:40260   */\n      0x00\n        /* \"#utility.yul\":40294:40296   */\n      0x40\n        /* \"#utility.yul\":40283:40292   */\n      dup3\n        /* \"#utility.yul\":40279:40297   */\n      add\n        /* \"#utility.yul\":40271:40297   */\n      swap1\n      pop\n        /* \"#utility.yul\":40307:40376   */\n      tag_1064\n        /* \"#utility.yul\":40373:40374   */\n      0x00\n        /* \"#utility.yul\":40362:40371   */\n      dup4\n        /* \"#utility.yul\":40358:40375   */\n      add\n        /* \"#utility.yul\":40349:40355   */\n      dup6\n        /* \"#utility.yul\":40307:40376   */\n      tag_987\n      jump\t// in\n    tag_1064:\n        /* \"#utility.yul\":40423:40432   */\n      dup2\n        /* \"#utility.yul\":40417:40421   */\n      dup2\n        /* \"#utility.yul\":40413:40433   */\n      sub\n        /* \"#utility.yul\":40408:40410   */\n      0x20\n        /* \"#utility.yul\":40397:40406   */\n      dup4\n        /* \"#utility.yul\":40393:40411   */\n      add\n        /* \"#utility.yul\":40386:40434   */\n      mstore\n        /* \"#utility.yul\":40451:40529   */\n      tag_1065\n        /* \"#utility.yul\":40524:40528   */\n      dup2\n        /* \"#utility.yul\":40515:40521   */\n      dup5\n        /* \"#utility.yul\":40451:40529   */\n      tag_858\n      jump\t// in\n    tag_1065:\n        /* \"#utility.yul\":40443:40529   */\n      swap1\n      pop\n        /* \"#utility.yul\":40117:40536   */\n      swap4\n      swap3\n      pop\n      pop\n      pop\n      jump\t// out\n        /* \"#utility.yul\":40542:40671   */\n    tag_651:\n        /* \"#utility.yul\":40576:40582   */\n      0x00\n        /* \"#utility.yul\":40603:40623   */\n      tag_1067\n      tag_1068\n      jump\t// in\n    tag_1067:\n        /* \"#utility.yul\":40593:40623   */\n      swap1\n      pop\n        /* \"#utility.yul\":40632:40665   */\n      tag_1069\n        /* \"#utility.yul\":40660:40664   */\n      dup3\n        /* \"#utility.yul\":40652:40658   */\n      dup3\n        /* \"#utility.yul\":40632:40665   */\n      tag_1070\n      jump\t// in\n    tag_1069:\n        /* \"#utility.yul\":40542:40671   */\n      swap2\n      swap1\n      pop\n      jump\t// out\n        /* \"#utility.yul\":40677:40752   */\n    tag_1068:\n        /* \"#utility.yul\":40710:40716   */\n      0x00\n        /* \"#utility.yul\":40743:40745   */\n      0x40\n        /* \"#utility.yul\":40737:40746   */\n      mload\n        /* \"#utility.yul\":40727:40746   */\n      swap1\n      pop\n        /* \"#utility.yul\":40677:40752   */\n      swap1\n      jump\t// out\n        /* \"#utility.yul\":40758:41066   */\n    tag_650:\n        /* \"#utility.yul\":40820:40824   */\n      0x00\n        /* \"#utility.yul\":40910:40928   */\n      0xffffffffffffffff\n        /* \"#utility.yul\":40902:40908   */\n      dup3\n        /* \"#utility.yul\":40899:40929   */\n      gt\n        /* \"#utility.yul\":40896:40952   */\n      iszero\n      tag_1073\n      jumpi\n        /* \"#utility.yul\":40932:40950   */\n      tag_1074\n      tag_372\n      jump\t// in\n    tag_1074:\n        /* \"#utility.yul\":40896:40952   */\n    tag_1073:\n        /* \"#utility.yul\":40970:40999   */\n      tag_1075\n        /* \"#utility.yul\":40992:40998   */\n      dup3\n        /* \"#utility.yul\":40970:40999   */\n      tag_857\n      jump\t// in\n    tag_1075:\n        /* \"#utility.yul\":40962:40999   */\n      swap1\n      pop\n        /* \"#utility.yul\":41054:41058   */\n      0x20\n        /* \"#utility.yul\":41048:41052   */\n      dup2\n        /* \"#utility.yul\":41044:41059   */\n      add\n        /* \"#utility.yul\":41036:41059   */\n      swap1\n      pop\n        /* \"#utility.yul\":40758:41066   */\n      swap2\n      swap1\n      pop\n      jump\t// out\n        /* \"#utility.yul\":41072:41226   */\n    tag_760:\n        /* \"#utility.yul\":41161:41165   */\n      0x00\n        /* \"#utility.yul\":41184:41187   */\n      dup2\n        /* \"#utility.yul\":41176:41187   */\n      swap1\n      pop\n        /* \"#utility.yul\":41214:41218   */\n      0x20\n        /* \"#utility.yul\":41209:41212   */\n      dup3\n        /* \"#utility.yul\":41205:41219   */\n      add\n        /* \"#utility.yul\":41197:41219   */\n      swap1\n      pop\n        /* \"#utility.yul\":41072:41226   */\n      swap2\n      swap1\n      pop\n      jump\t// out\n        /* \"#utility.yul\":41232:41391   */\n    tag_774:\n        /* \"#utility.yul\":41326:41330   */\n      0x00\n        /* \"#utility.yul\":41349:41352   */\n      dup2\n        /* \"#utility.yul\":41341:41352   */\n      swap1\n      pop\n        /* \"#utility.yul\":41379:41383   */\n      0x20\n        /* \"#utility.yul\":41374:41377   */\n      dup3\n        /* \"#utility.yul\":41370:41384   */\n      add\n        /* \"#utility.yul\":41362:41384   */\n      swap1\n      pop\n        /* \"#utility.yul\":41232:41391   */\n      swap2\n      swap1\n      pop\n      jump\t// out\n        /* \"#utility.yul\":41397:41550   */\n    tag_788:\n        /* \"#utility.yul\":41485:41489   */\n      0x00\n        /* \"#utility.yul\":41508:41511   */\n      dup2\n        /* \"#utility.yul\":41500:41511   */\n      swap1\n      pop\n        /* \"#utility.yul\":41538:41542   */\n      0x20\n        /* \"#utility.yul\":41533:41536   */\n      dup3\n        /* \"#utility.yul\":41529:41543   */\n      add\n        /* \"#utility.yul\":41521:41543   */\n      swap1\n      pop\n        /* \"#utility.yul\":41397:41550   */\n      swap2\n      swap1\n      pop\n      jump\t// out\n        /* \"#utility.yul\":41556:41708   */\n    tag_802:\n        /* \"#utility.yul\":41643:41647   */\n      0x00\n        /* \"#utility.yul\":41666:41669   */\n      dup2\n        /* \"#utility.yul\":41658:41669   */\n      swap1\n      pop\n        /* \"#utility.yul\":41696:41700   */\n      0x20\n        /* \"#utility.yul\":41691:41694   */\n      dup3\n        /* \"#utility.yul\":41687:41701   */\n      add\n        /* \"#utility.yul\":41679:41701   */\n      swap1\n      pop\n        /* \"#utility.yul\":41556:41708   */\n      swap2\n      swap1\n      pop\n      jump\t// out\n        /* \"#utility.yul\":41714:41879   */\n    tag_816:\n        /* \"#utility.yul\":41814:41818   */\n      0x00\n        /* \"#utility.yul\":41837:41840   */\n      dup2\n        /* \"#utility.yul\":41829:41840   */\n      swap1\n      pop\n        /* \"#utility.yul\":41867:41871   */\n      0x20\n        /* \"#utility.yul\":41862:41865   */\n      dup3\n        /* \"#utility.yul\":41858:41872   */\n      add\n        /* \"#utility.yul\":41850:41872   */\n      swap1\n      pop\n        /* \"#utility.yul\":41714:41879   */\n      swap2\n      swap1\n      pop\n      jump\t// out\n        /* \"#utility.yul\":41885:42043   */\n    tag_830:\n        /* \"#utility.yul\":41978:41982   */\n      0x00\n        /* \"#utility.yul\":42001:42004   */\n      dup2\n        /* \"#utility.yul\":41993:42004   */\n      swap1\n      pop\n        /* \"#utility.yul\":42031:42035   */\n      0x20\n        /* \"#utility.yul\":42026:42029   */\n      dup3\n        /* \"#utility.yul\":42022:42036   */\n      add\n        /* \"#utility.yul\":42014:42036   */\n      swap1\n      pop\n        /* \"#utility.yul\":41885:42043   */\n      swap2\n      swap1\n      pop\n      jump\t// out\n        /* \"#utility.yul\":42049:42185   */\n    tag_756:\n        /* \"#utility.yul\":42138:42144   */\n      0x00\n        /* \"#utility.yul\":42172:42177   */\n      dup2\n        /* \"#utility.yul\":42166:42178   */\n      mload\n        /* \"#utility.yul\":42156:42178   */\n      swap1\n      pop\n        /* \"#utility.yul\":42049:42185   */\n      swap2\n      swap1\n      pop\n      jump\t// out\n        /* \"#utility.yul\":42191:42332   */\n    tag_770:\n        /* \"#utility.yul\":42285:42291   */\n      0x00\n        /* \"#utility.yul\":42319:42324   */\n      dup2\n        /* \"#utility.yul\":42313:42325   */\n      mload\n        /* \"#utility.yul\":42303:42325   */\n      swap1\n      pop\n        /* \"#utility.yul\":42191:42332   */\n      swap2\n      swap1\n      pop\n      jump\t// out\n        /* \"#utility.yul\":42338:42473   */\n    tag_784:\n        /* \"#utility.yul\":42426:42432   */\n      0x00\n        /* \"#utility.yul\":42460:42465   */\n      dup2\n        /* \"#utility.yul\":42454:42466   */\n      mload\n        /* \"#utility.yul\":42444:42466   */\n      swap1\n      pop\n        /* \"#utility.yul\":42338:42473   */\n      swap2\n      swap1\n      pop\n      jump\t// out\n        /* \"#utility.yul\":42479:42613   */\n    tag_798:\n        /* \"#utility.yul\":42566:42572   */\n      0x00\n        /* \"#utility.yul\":42600:42605   */\n      dup2\n        /* \"#utility.yul\":42594:42606   */\n      mload\n        /* \"#utility.yul\":42584:42606   */\n      swap1\n      pop\n        /* \"#utility.yul\":42479:42613   */\n      swap2\n      swap1\n      pop\n      jump\t// out\n        /* \"#utility.yul\":42619:42766   */\n    tag_812:\n        /* \"#utility.yul\":42719:42725   */\n      0x00\n        /* \"#utility.yul\":42753:42758   */\n      dup2\n        /* \"#utility.yul\":42747:42759   */\n      mload\n        /* \"#utility.yul\":42737:42759   */\n      swap1\n      pop\n        /* \"#utility.yul\":42619:42766   */\n      swap2\n      swap1\n      pop\n      jump\t// out\n        /* \"#utility.yul\":42772:42912   */\n    tag_826:\n        /* \"#utility.yul\":42865:42871   */\n      0x00\n        /* \"#utility.yul\":42899:42904   */\n      dup2\n        /* \"#utility.yul\":42893:42905   */\n      mload\n        /* \"#utility.yul\":42883:42905   */\n      swap1\n      pop\n        /* \"#utility.yul\":42772:42912   */\n      swap2\n      swap1\n      pop\n      jump\t// out\n        /* \"#utility.yul\":42918:43017   */\n    tag_851:\n        /* \"#utility.yul\":42970:42976   */\n      0x00\n        /* \"#utility.yul\":43004:43009   */\n      dup2\n        /* \"#utility.yul\":42998:43010   */\n      mload\n        /* \"#utility.yul\":42988:43010   */\n      swap1\n      pop\n        /* \"#utility.yul\":42918:43017   */\n      swap2\n      swap1\n      pop\n      jump\t// out\n        /* \"#utility.yul\":43023:43158   */\n    tag_766:\n        /* \"#utility.yul\":43115:43119   */\n      0x00\n        /* \"#utility.yul\":43147:43151   */\n      0x20\n        /* \"#utility.yul\":43142:43145   */\n      dup3\n        /* \"#utility.yul\":43138:43152   */\n      add\n        /* \"#utility.yul\":43130:43152   */\n      swap1\n      pop\n        /* \"#utility.yul\":43023:43158   */\n      swap2\n      swap1\n      pop\n      jump\t// out\n        /* \"#utility.yul\":43164:43304   */\n    tag_780:\n        /* \"#utility.yul\":43261:43265   */\n      0x00\n        /* \"#utility.yul\":43293:43297   */\n      0x20\n        /* \"#utility.yul\":43288:43291   */\n      dup3\n        /* \"#utility.yul\":43284:43298   */\n      add\n        /* \"#utility.yul\":43276:43298   */\n      swap1\n      pop\n        /* \"#utility.yul\":43164:43304   */\n      swap2\n      swap1\n      pop\n      jump\t// out\n        /* \"#utility.yul\":43310:43444   */\n    tag_794:\n        /* \"#utility.yul\":43401:43405   */\n      0x00\n        /* \"#utility.yul\":43433:43437   */\n      0x20\n        /* \"#utility.yul\":43428:43431   */\n      dup3\n        /* \"#utility.yul\":43424:43438   */\n      add\n        /* \"#utility.yul\":43416:43438   */\n      swap1\n      pop\n        /* \"#utility.yul\":43310:43444   */\n      swap2\n      swap1\n      pop\n      jump\t// out\n        /* \"#utility.yul\":43450:43583   */\n    tag_808:\n        /* \"#utility.yul\":43540:43544   */\n      0x00\n        /* \"#utility.yul\":43572:43576   */\n      0x20\n        /* \"#utility.yul\":43567:43570   */\n      dup3\n        /* \"#utility.yul\":43563:43577   */\n      add\n        /* \"#utility.yul\":43555:43577   */\n      swap1\n      pop\n        /* \"#utility.yul\":43450:43583   */\n      swap2\n      swap1\n      pop\n      jump\t// out\n        /* \"#utility.yul\":43589:43735   */\n    tag_822:\n        /* \"#utility.yul\":43692:43696   */\n      0x00\n        /* \"#utility.yul\":43724:43728   */\n      0x20\n        /* \"#utility.yul\":43719:43722   */\n      dup3\n        /* \"#utility.yul\":43715:43729   */\n      add\n        /* \"#utility.yul\":43707:43729   */\n      swap1\n      pop\n        /* \"#utility.yul\":43589:43735   */\n      swap2\n      swap1\n      pop\n      jump\t// out\n        /* \"#utility.yul\":43741:43880   */\n    tag_836:\n        /* \"#utility.yul\":43837:43841   */\n      0x00\n        /* \"#utility.yul\":43869:43873   */\n      0x20\n        /* \"#utility.yul\":43864:43867   */\n      dup3\n        /* \"#utility.yul\":43860:43874   */\n      add\n        /* \"#utility.yul\":43852:43874   */\n      swap1\n      pop\n        /* \"#utility.yul\":43741:43880   */\n      swap2\n      swap1\n      pop\n      jump\t// out\n        /* \"#utility.yul\":43886:44092   */\n    tag_758:\n        /* \"#utility.yul\":44007:44018   */\n      0x00\n        /* \"#utility.yul\":44041:44047   */\n      dup3\n        /* \"#utility.yul\":44036:44039   */\n      dup3\n        /* \"#utility.yul\":44029:44048   */\n      mstore\n        /* \"#utility.yul\":44081:44085   */\n      0x20\n        /* \"#utility.yul\":44076:44079   */\n      dup3\n        /* \"#utility.yul\":44072:44086   */\n      add\n        /* \"#utility.yul\":44057:44086   */\n      swap1\n      pop\n        /* \"#utility.yul\":43886:44092   */\n      swap3\n      swap2\n      pop\n      pop\n      jump\t// out\n        /* \"#utility.yul\":44098:44309   */\n    tag_772:\n        /* \"#utility.yul\":44224:44235   */\n      0x00\n        /* \"#utility.yul\":44258:44264   */\n      dup3\n        /* \"#utility.yul\":44253:44256   */\n      dup3\n        /* \"#utility.yul\":44246:44265   */\n      mstore\n        /* \"#utility.yul\":44298:44302   */\n      0x20\n        /* \"#utility.yul\":44293:44296   */\n      dup3\n        /* \"#utility.yul\":44289:44303   */\n      add\n        /* \"#utility.yul\":44274:44303   */\n      swap1\n      pop\n        /* \"#utility.yul\":44098:44309   */\n      swap3\n      swap2\n      pop\n      pop\n      jump\t// out\n        /* \"#utility.yul\":44315:44520   */\n    tag_786:\n        /* \"#utility.yul\":44435:44446   */\n      0x00\n        /* \"#utility.yul\":44469:44475   */\n      dup3\n        /* \"#utility.yul\":44464:44467   */\n      dup3\n        /* \"#utility.yul\":44457:44476   */\n      mstore\n        /* \"#utility.yul\":44509:44513   */\n      0x20\n        /* \"#utility.yul\":44504:44507   */\n      dup3\n        /* \"#utility.yul\":44500:44514   */\n      add\n        /* \"#utility.yul\":44485:44514   */\n      swap1\n      pop\n        /* \"#utility.yul\":44315:44520   */\n      swap3\n      swap2\n      pop\n      pop\n      jump\t// out\n        /* \"#utility.yul\":44526:44730   */\n    tag_800:\n        /* \"#utility.yul\":44645:44656   */\n      0x00\n        /* \"#utility.yul\":44679:44685   */\n      dup3\n        /* \"#utility.yul\":44674:44677   */\n      dup3\n        /* \"#utility.yul\":44667:44686   */\n      mstore\n        /* \"#utility.yul\":44719:44723   */\n      0x20\n        /* \"#utility.yul\":44714:44717   */\n      dup3\n        /* \"#utility.yul\":44710:44724   */\n      add\n        /* \"#utility.yul\":44695:44724   */\n      swap1\n      pop\n        /* \"#utility.yul\":44526:44730   */\n      swap3\n      swap2\n      pop\n      pop\n      jump\t// out\n        /* \"#utility.yul\":44736:44953   */\n    tag_814:\n        /* \"#utility.yul\":44868:44879   */\n      0x00\n        /* \"#utility.yul\":44902:44908   */\n      dup3\n        /* \"#utility.yul\":44897:44900   */\n      dup3\n        /* \"#utility.yul\":44890:44909   */\n      mstore\n        /* \"#utility.yul\":44942:44946   */\n      0x20\n        /* \"#utility.yul\":44937:44940   */\n      dup3\n        /* \"#utility.yul\":44933:44947   */\n      add\n        /* \"#utility.yul\":44918:44947   */\n      swap1\n      pop\n        /* \"#utility.yul\":44736:44953   */\n      swap3\n      swap2\n      pop\n      pop\n      jump\t// out\n        /* \"#utility.yul\":44959:45169   */\n    tag_828:\n        /* \"#utility.yul\":45084:45095   */\n      0x00\n        /* \"#utility.yul\":45118:45124   */\n      dup3\n        /* \"#utility.yul\":45113:45116   */\n      dup3\n        /* \"#utility.yul\":45106:45125   */\n      mstore\n        /* \"#utility.yul\":45158:45162   */\n      0x20\n        /* \"#utility.yul\":45153:45156   */\n      dup3\n        /* \"#utility.yul\":45149:45163   */\n      add\n        /* \"#utility.yul\":45134:45163   */\n      swap1\n      pop\n        /* \"#utility.yul\":44959:45169   */\n      swap3\n      swap2\n      pop\n      pop\n      jump\t// out\n        /* \"#utility.yul\":45175:45334   */\n    tag_853:\n        /* \"#utility.yul\":45249:45260   */\n      0x00\n        /* \"#utility.yul\":45283:45289   */\n      dup3\n        /* \"#utility.yul\":45278:45281   */\n      dup3\n        /* \"#utility.yul\":45271:45290   */\n      mstore\n        /* \"#utility.yul\":45323:45327   */\n      0x20\n        /* \"#utility.yul\":45318:45321   */\n      dup3\n        /* \"#utility.yul\":45314:45328   */\n      add\n        /* \"#utility.yul\":45299:45328   */\n      swap1\n      pop\n        /* \"#utility.yul\":45175:45334   */\n      swap3\n      swap2\n      pop\n      pop\n      jump\t// out\n        /* \"#utility.yul\":45340:45509   */\n    tag_862:\n        /* \"#utility.yul\":45424:45435   */\n      0x00\n        /* \"#utility.yul\":45458:45464   */\n      dup3\n        /* \"#utility.yul\":45453:45456   */\n      dup3\n        /* \"#utility.yul\":45446:45465   */\n      mstore\n        /* \"#utility.yul\":45498:45502   */\n      0x20\n        /* \"#utility.yul\":45493:45496   */\n      dup3\n        /* \"#utility.yul\":45489:45503   */\n      add\n        /* \"#utility.yul\":45474:45503   */\n      swap1\n      pop\n        /* \"#utility.yul\":45340:45509   */\n      swap3\n      swap2\n      pop\n      pop\n      jump\t// out\n        /* \"#utility.yul\":45515:45611   */\n    tag_752:\n        /* \"#utility.yul\":45552:45559   */\n      0x00\n        /* \"#utility.yul\":45581:45605   */\n      tag_1104\n        /* \"#utility.yul\":45599:45604   */\n      dup3\n        /* \"#utility.yul\":45581:45605   */\n      tag_1105\n      jump\t// in\n    tag_1104:\n        /* \"#utility.yul\":45570:45605   */\n      swap1\n      pop\n        /* \"#utility.yul\":45515:45611   */\n      swap2\n      swap1\n      pop\n      jump\t// out\n        /* \"#utility.yul\":45617:45707   */\n    tag_840:\n        /* \"#utility.yul\":45651:45658   */\n      0x00\n        /* \"#utility.yul\":45694:45699   */\n      dup2\n        /* \"#utility.yul\":45687:45700   */\n      iszero\n        /* \"#utility.yul\":45680:45701   */\n      iszero\n        /* \"#utility.yul\":45669:45701   */\n      swap1\n      pop\n        /* \"#utility.yul\":45617:45707   */\n      swap2\n      swap1\n      pop\n      jump\t// out\n        /* \"#utility.yul\":45713:45840   */\n    tag_1107:\n        /* \"#utility.yul\":45758:45765   */\n      0x00\n        /* \"#utility.yul\":45787:45792   */\n      dup2\n        /* \"#utility.yul\":45776:45792   */\n      swap1\n      pop\n        /* \"#utility.yul\":45793:45834   */\n      tag_1109\n        /* \"#utility.yul\":45828:45833   */\n      dup3\n        /* \"#utility.yul\":45793:45834   */\n      tag_1110\n      jump\t// in\n    tag_1109:\n        /* \"#utility.yul\":45713:45840   */\n      swap2\n      swap1\n      pop\n      jump\t// out\n        /* \"#utility.yul\":45846:45935   */\n    tag_980:\n        /* \"#utility.yul\":45882:45889   */\n      0x00\n        /* \"#utility.yul\":45922:45928   */\n      0xffff\n        /* \"#utility.yul\":45915:45920   */\n      dup3\n        /* \"#utility.yul\":45911:45929   */\n      and\n        /* \"#utility.yul\":45900:45929   */\n      swap1\n      pop\n        /* \"#utility.yul\":45846:45935   */\n      swap2\n      swap1\n      pop\n      jump\t// out\n        /* \"#utility.yul\":45941:46067   */\n    tag_1105:\n        /* \"#utility.yul\":45978:45985   */\n      0x00\n        /* \"#utility.yul\":46018:46060   */\n      0xffffffffffffffffffffffffffffffffffffffff\n        /* \"#utility.yul\":46011:46016   */\n      dup3\n        /* \"#utility.yul\":46007:46061   */\n      and\n        /* \"#utility.yul\":45996:46061   */\n      swap1\n      pop\n        /* \"#utility.yul\":45941:46067   */\n      swap2\n      swap1\n      pop\n      jump\t// out\n        /* \"#utility.yul\":46073:46150   */\n    tag_983:\n        /* \"#utility.yul\":46110:46117   */\n      0x00\n        /* \"#utility.yul\":46139:46144   */\n      dup2\n        /* \"#utility.yul\":46128:46144   */\n      swap1\n      pop\n        /* \"#utility.yul\":46073:46150   */\n      swap2\n      swap1\n      pop\n      jump\t// out\n        /* \"#utility.yul\":46156:46249   */\n    tag_990:\n        /* \"#utility.yul\":46192:46199   */\n      0x00\n        /* \"#utility.yul\":46232:46242   */\n      0xffffffff\n        /* \"#utility.yul\":46225:46230   */\n      dup3\n        /* \"#utility.yul\":46221:46243   */\n      and\n        /* \"#utility.yul\":46210:46243   */\n      swap1\n      pop\n        /* \"#utility.yul\":46156:46249   */\n      swap2\n      swap1\n      pop\n      jump\t// out\n        /* \"#utility.yul\":46255:46341   */\n    tag_993:\n        /* \"#utility.yul\":46290:46297   */\n      0x00\n        /* \"#utility.yul\":46330:46334   */\n      0xff\n        /* \"#utility.yul\":46323:46328   */\n      dup3\n        /* \"#utility.yul\":46319:46335   */\n      and\n        /* \"#utility.yul\":46308:46335   */\n      swap1\n      pop\n        /* \"#utility.yul\":46255:46341   */\n      swap2\n      swap1\n      pop\n      jump\t// out\n        /* \"#utility.yul\":46347:46474   */\n    tag_847:\n        /* \"#utility.yul\":46403:46412   */\n      0x00\n        /* \"#utility.yul\":46436:46468   */\n      tag_1117\n        /* \"#utility.yul\":46462:46467   */\n      dup3\n        /* \"#utility.yul\":46436:46468   */\n      tag_1107\n      jump\t// in\n    tag_1117:\n        /* \"#utility.yul\":46423:46468   */\n      swap1\n      pop\n        /* \"#utility.yul\":46347:46474   */\n      swap2\n      swap1\n      pop\n      jump\t// out\n        /* \"#utility.yul\":46480:46634   */\n    tag_656:\n        /* \"#utility.yul\":46564:46570   */\n      dup3\n        /* \"#utility.yul\":46559:46562   */\n      dup2\n        /* \"#utility.yul\":46554:46557   */\n      dup4\n        /* \"#utility.yul\":46541:46571   */\n      calldatacopy\n        /* \"#utility.yul\":46626:46627   */\n      0x00\n        /* \"#utility.yul\":46617:46623   */\n      dup4\n        /* \"#utility.yul\":46612:46615   */\n      dup4\n        /* \"#utility.yul\":46608:46624   */\n      add\n        /* \"#utility.yul\":46601:46628   */\n      mstore\n        /* \"#utility.yul\":46480:46634   */\n      pop\n      pop\n      pop\n      jump\t// out\n        /* \"#utility.yul\":46640:46947   */\n    tag_855:\n        /* \"#utility.yul\":46708:46709   */\n      0x00\n        /* \"#utility.yul\":46718:46831   */\n    tag_1120:\n        /* \"#utility.yul\":46732:46738   */\n      dup4\n        /* \"#utility.yul\":46729:46730   */\n      dup2\n        /* \"#utility.yul\":46726:46739   */\n      lt\n        /* \"#utility.yul\":46718:46831   */\n      iszero\n      tag_1122\n      jumpi\n        /* \"#utility.yul\":46817:46818   */\n      dup1\n        /* \"#utility.yul\":46812:46815   */\n      dup3\n        /* \"#utility.yul\":46808:46819   */\n      add\n        /* \"#utility.yul\":46802:46820   */\n      mload\n        /* \"#utility.yul\":46798:46799   */\n      dup2\n        /* \"#utility.yul\":46793:46796   */\n      dup5\n        /* \"#utility.yul\":46789:46800   */\n      add\n        /* \"#utility.yul\":46782:46821   */\n      mstore\n        /* \"#utility.yul\":46754:46756   */\n      0x20\n        /* \"#utility.yul\":46751:46752   */\n      dup2\n        /* \"#utility.yul\":46747:46757   */\n      add\n        /* \"#utility.yul\":46742:46757   */\n      swap1\n      pop\n        /* \"#utility.yul\":46718:46831   */\n      jump(tag_1120)\n    tag_1122:\n        /* \"#utility.yul\":46849:46855   */\n      dup4\n        /* \"#utility.yul\":46846:46847   */\n      dup2\n        /* \"#utility.yul\":46843:46856   */\n      gt\n        /* \"#utility.yul\":46840:46941   */\n      iszero\n      tag_1123\n      jumpi\n        /* \"#utility.yul\":46929:46930   */\n      0x00\n        /* \"#utility.yul\":46920:46926   */\n      dup5\n        /* \"#utility.yul\":46915:46918   */\n      dup5\n        /* \"#utility.yul\":46911:46927   */\n      add\n        /* \"#utility.yul\":46904:46931   */\n      mstore\n        /* \"#utility.yul\":46840:46941   */\n    tag_1123:\n        /* \"#utility.yul\":46689:46947   */\n      pop\n        /* \"#utility.yul\":46640:46947   */\n      pop\n      pop\n      pop\n      jump\t// out\n        /* \"#utility.yul\":46953:47273   */\n    tag_310:\n        /* \"#utility.yul\":46997:47003   */\n      0x00\n        /* \"#utility.yul\":47034:47035   */\n      0x02\n        /* \"#utility.yul\":47028:47032   */\n      dup3\n        /* \"#utility.yul\":47024:47036   */\n      div\n        /* \"#utility.yul\":47014:47036   */\n      swap1\n      pop\n        /* \"#utility.yul\":47081:47082   */\n      0x01\n        /* \"#utility.yul\":47075:47079   */\n      dup3\n        /* \"#utility.yul\":47071:47083   */\n      and\n        /* \"#utility.yul\":47102:47120   */\n      dup1\n        /* \"#utility.yul\":47092:47173   */\n      tag_1125\n      jumpi\n        /* \"#utility.yul\":47158:47162   */\n      0x7f\n        /* \"#utility.yul\":47150:47156   */\n      dup3\n        /* \"#utility.yul\":47146:47163   */\n      and\n        /* \"#utility.yul\":47136:47163   */\n      swap2\n      pop\n        /* \"#utility.yul\":47092:47173   */\n    tag_1125:\n        /* \"#utility.yul\":47220:47222   */\n      0x20\n        /* \"#utility.yul\":47212:47218   */\n      dup3\n        /* \"#utility.yul\":47209:47223   */\n      lt\n        /* \"#utility.yul\":47189:47207   */\n      dup2\n        /* \"#utility.yul\":47186:47224   */\n      eq\n        /* \"#utility.yul\":47183:47267   */\n      iszero\n      tag_1126\n      jumpi\n        /* \"#utility.yul\":47239:47257   */\n      tag_1127\n      tag_1128\n      jump\t// in\n    tag_1127:\n        /* \"#utility.yul\":47183:47267   */\n    tag_1126:\n        /* \"#utility.yul\":47004:47273   */\n      pop\n        /* \"#utility.yul\":46953:47273   */\n      swap2\n      swap1\n      pop\n      jump\t// out\n        /* \"#utility.yul\":47279:47560   */\n    tag_1070:\n        /* \"#utility.yul\":47362:47389   */\n      tag_1130\n        /* \"#utility.yul\":47384:47388   */\n      dup3\n        /* \"#utility.yul\":47362:47389   */\n      tag_857\n      jump\t// in\n    tag_1130:\n        /* \"#utility.yul\":47354:47360   */\n      dup2\n        /* \"#utility.yul\":47350:47390   */\n      add\n        /* \"#utility.yul\":47492:47498   */\n      dup2\n        /* \"#utility.yul\":47480:47490   */\n      dup2\n        /* \"#utility.yul\":47477:47499   */\n      lt\n        /* \"#utility.yul\":47456:47474   */\n      0xffffffffffffffff\n        /* \"#utility.yul\":47444:47454   */\n      dup3\n        /* \"#utility.yul\":47441:47475   */\n      gt\n        /* \"#utility.yul\":47438:47500   */\n      or\n        /* \"#utility.yul\":47435:47523   */\n      iszero\n      tag_1131\n      jumpi\n        /* \"#utility.yul\":47503:47521   */\n      tag_1132\n      tag_372\n      jump\t// in\n    tag_1132:\n        /* \"#utility.yul\":47435:47523   */\n    tag_1131:\n        /* \"#utility.yul\":47543:47553   */\n      dup1\n        /* \"#utility.yul\":47539:47541   */\n      0x40\n        /* \"#utility.yul\":47532:47554   */\n      mstore\n        /* \"#utility.yul\":47322:47560   */\n      pop\n        /* \"#utility.yul\":47279:47560   */\n      pop\n      pop\n      jump\t// out\n        /* \"#utility.yul\":47566:47799   */\n    tag_390:\n        /* \"#utility.yul\":47605:47608   */\n      0x00\n        /* \"#utility.yul\":47628:47652   */\n      tag_1134\n        /* \"#utility.yul\":47646:47651   */\n      dup3\n        /* \"#utility.yul\":47628:47652   */\n      tag_983\n      jump\t// in\n    tag_1134:\n        /* \"#utility.yul\":47619:47652   */\n      swap2\n      pop\n        /* \"#utility.yul\":47674:47740   */\n      0xffffffffffffffffffffffffffffffffffffffffffffffffffffffffffffffff\n        /* \"#utility.yul\":47667:47672   */\n      dup3\n        /* \"#utility.yul\":47664:47741   */\n      eq\n        /* \"#utility.yul\":47661:47764   */\n      iszero\n      tag_1135\n      jumpi\n        /* \"#utility.yul\":47744:47762   */\n      tag_1136\n      tag_1137\n      jump\t// in\n    tag_1136:\n        /* \"#utility.yul\":47661:47764   */\n    tag_1135:\n        /* \"#utility.yul\":47791:47792   */\n      0x01\n        /* \"#utility.yul\":47784:47789   */\n      dup3\n        /* \"#utility.yul\":47780:47793   */\n      add\n        /* \"#utility.yul\":47773:47793   */\n      swap1\n      pop\n        /* \"#utility.yul\":47566:47799   */\n      swap2\n      swap1\n      pop\n      jump\t// out\n        /* \"#utility.yul\":47805:47985   */\n    tag_1137:\n        /* \"#utility.yul\":47853:47930   */\n      0x4e487b7100000000000000000000000000000000000000000000000000000000\n        /* \"#utility.yul\":47850:47851   */\n      0x00\n        /* \"#utility.yul\":47843:47931   */\n      mstore\n        /* \"#utility.yul\":47950:47954   */\n      0x11\n        /* \"#utility.yul\":47947:47948   */\n      0x04\n        /* \"#utility.yul\":47940:47955   */\n      mstore\n        /* \"#utility.yul\":47974:47978   */\n      0x24\n        /* \"#utility.yul\":47971:47972   */\n      0x00\n        /* \"#utility.yul\":47964:47979   */\n      revert\n        /* \"#utility.yul\":47991:48171   */\n    tag_1139:\n        /* \"#utility.yul\":48039:48116   */\n      0x4e487b7100000000000000000000000000000000000000000000000000000000\n        /* \"#utility.yul\":48036:48037   */\n      0x00\n        /* \"#utility.yul\":48029:48117   */\n      mstore\n        /* \"#utility.yul\":48136:48140   */\n      0x21\n        /* \"#utility.yul\":48133:48134   */\n      0x04\n        /* \"#utility.yul\":48126:48141   */\n      mstore\n        /* \"#utility.yul\":48160:48164   */\n      0x24\n        /* \"#utility.yul\":48157:48158   */\n      0x00\n        /* \"#utility.yul\":48150:48165   */\n      revert\n        /* \"#utility.yul\":48177:48357   */\n    tag_1128:\n        /* \"#utility.yul\":48225:48302   */\n      0x4e487b7100000000000000000000000000000000000000000000000000000000\n        /* \"#utility.yul\":48222:48223   */\n      0x00\n        /* \"#utility.yul\":48215:48303   */\n      mstore\n        /* \"#utility.yul\":48322:48326   */\n      0x22\n        /* \"#utility.yul\":48319:48320   */\n      0x04\n        /* \"#utility.yul\":48312:48327   */\n      mstore\n        /* \"#utility.yul\":48346:48350   */\n      0x24\n        /* \"#utility.yul\":48343:48344   */\n      0x00\n        /* \"#utility.yul\":48336:48351   */\n      revert\n        /* \"#utility.yul\":48363:48543   */\n    tag_382:\n        /* \"#utility.yul\":48411:48488   */\n      0x4e487b7100000000000000000000000000000000000000000000000000000000\n        /* \"#utility.yul\":48408:48409   */\n      0x00\n        /* \"#utility.yul\":48401:48489   */\n      mstore\n        /* \"#utility.yul\":48508:48512   */\n      0x32\n        /* \"#utility.yul\":48505:48506   */\n      0x04\n        /* \"#utility.yul\":48498:48513   */\n      mstore\n        /* \"#utility.yul\":48532:48536   */\n      0x24\n        /* \"#utility.yul\":48529:48530   */\n      0x00\n        /* \"#utility.yul\":48522:48537   */\n      revert\n        /* \"#utility.yul\":48549:48729   */\n    tag_372:\n        /* \"#utility.yul\":48597:48674   */\n      0x4e487b7100000000000000000000000000000000000000000000000000000000\n        /* \"#utility.yul\":48594:48595   */\n      0x00\n        /* \"#utility.yul\":48587:48675   */\n      mstore\n        /* \"#utility.yul\":48694:48698   */\n      0x41\n        /* \"#utility.yul\":48691:48692   */\n      0x04\n        /* \"#utility.yul\":48684:48699   */\n      mstore\n        /* \"#utility.yul\":48718:48722   */\n      0x24\n        /* \"#utility.yul\":48715:48716   */\n      0x00\n        /* \"#utility.yul\":48708:48723   */\n      revert\n        /* \"#utility.yul\":48735:48852   */\n    tag_669:\n        /* \"#utility.yul\":48844:48845   */\n      0x00\n        /* \"#utility.yul\":48841:48842   */\n      dup1\n        /* \"#utility.yul\":48834:48846   */\n      revert\n        /* \"#utility.yul\":48858:48975   */\n    tag_654:\n        /* \"#utility.yul\":48967:48968   */\n      0x00\n        /* \"#utility.yul\":48964:48965   */\n      dup1\n        /* \"#utility.yul\":48957:48969   */\n      revert\n        /* \"#utility.yul\":48981:49098   */\n    tag_705:\n        /* \"#utility.yul\":49090:49091   */\n      0x00\n        /* \"#utility.yul\":49087:49088   */\n      dup1\n        /* \"#utility.yul\":49080:49092   */\n      revert\n        /* \"#utility.yul\":49104:49221   */\n    tag_686:\n        /* \"#utility.yul\":49213:49214   */\n      0x00\n        /* \"#utility.yul\":49210:49211   */\n      dup1\n        /* \"#utility.yul\":49203:49215   */\n      revert\n        /* \"#utility.yul\":49227:49329   */\n    tag_857:\n        /* \"#utility.yul\":49268:49274   */\n      0x00\n        /* \"#utility.yul\":49319:49321   */\n      0x1f\n        /* \"#utility.yul\":49315:49322   */\n      not\n        /* \"#utility.yul\":49310:49312   */\n      0x1f\n        /* \"#utility.yul\":49303:49308   */\n      dup4\n        /* \"#utility.yul\":49299:49313   */\n      add\n        /* \"#utility.yul\":49295:49323   */\n      and\n        /* \"#utility.yul\":49285:49323   */\n      swap1\n      pop\n        /* \"#utility.yul\":49227:49329   */\n      swap2\n      swap1\n      pop\n      jump\t// out\n        /* \"#utility.yul\":49335:49516   */\n    tag_869:\n        /* \"#utility.yul\":49475:49508   */\n      0x53616465636520594f4b2062752069736c656d69207961706162696c69722e00\n        /* \"#utility.yul\":49471:49472   */\n      0x00\n        /* \"#utility.yul\":49463:49469   */\n      dup3\n        /* \"#utility.yul\":49459:49473   */\n      add\n        /* \"#utility.yul\":49452:49509   */\n      mstore\n        /* \"#utility.yul\":49335:49516   */\n      pop\n      jump\t// out\n        /* \"#utility.yul\":49522:49697   */\n    tag_874:\n        /* \"#utility.yul\":49662:49689   */\n      0x4b757273204d65726b657a69205a6174656e204d657663757400000000000000\n        /* \"#utility.yul\":49658:49659   */\n      0x00\n        /* \"#utility.yul\":49650:49656   */\n      dup3\n        /* \"#utility.yul\":49646:49660   */\n      add\n        /* \"#utility.yul\":49639:49690   */\n      mstore\n        /* \"#utility.yul\":49522:49697   */\n      pop\n      jump\t// out\n        /* \"#utility.yul\":49703:49876   */\n    tag_879:\n        /* \"#utility.yul\":49843:49868   */\n      0x556e6976657273697465204d657663757420446567696c000000000000000000\n        /* \"#utility.yul\":49839:49840   */\n      0x00\n        /* \"#utility.yul\":49831:49837   */\n      dup3\n        /* \"#utility.yul\":49827:49841   */\n      add\n        /* \"#utility.yul\":49820:49869   */\n      mstore\n        /* \"#utility.yul\":49703:49876   */\n      pop\n      jump\t// out\n        /* \"#utility.yul\":49882:50049   */\n    tag_884:\n        /* \"#utility.yul\":50022:50041   */\n      0x4b697369204d657663757420446567696c000000000000000000000000000000\n        /* \"#utility.yul\":50018:50019   */\n      0x00\n        /* \"#utility.yul\":50010:50016   */\n      dup3\n        /* \"#utility.yul\":50006:50020   */\n      add\n        /* \"#utility.yul\":49999:50042   */\n      mstore\n        /* \"#utility.yul\":49882:50049   */\n      pop\n      jump\t// out\n        /* \"#utility.yul\":50055:50229   */\n    tag_889:\n        /* \"#utility.yul\":50195:50221   */\n      0x4b616d75204b7572756d75205a6174656e204d65766375740000000000000000\n        /* \"#utility.yul\":50191:50192   */\n      0x00\n        /* \"#utility.yul\":50183:50189   */\n      dup3\n        /* \"#utility.yul\":50179:50193   */\n      add\n        /* \"#utility.yul\":50172:50222   */\n      mstore\n        /* \"#utility.yul\":50055:50229   */\n      pop\n      jump\t// out\n        /* \"#utility.yul\":50235:50403   */\n    tag_894:\n        /* \"#utility.yul\":50375:50395   */\n      0x4669726d61205a6174656e204d65766375740000000000000000000000000000\n        /* \"#utility.yul\":50371:50372   */\n      0x00\n        /* \"#utility.yul\":50363:50369   */\n      dup3\n        /* \"#utility.yul\":50359:50373   */\n      add\n        /* \"#utility.yul\":50352:50396   */\n      mstore\n        /* \"#utility.yul\":50235:50403   */\n      pop\n      jump\t// out\n        /* \"#utility.yul\":50409:50589   */\n    tag_899:\n        /* \"#utility.yul\":50549:50581   */\n      0x5361646563652043422062752069736c656d69207961706162696c69722e0000\n        /* \"#utility.yul\":50545:50546   */\n      0x00\n        /* \"#utility.yul\":50537:50543   */\n      dup3\n        /* \"#utility.yul\":50533:50547   */\n      add\n        /* \"#utility.yul\":50526:50582   */\n      mstore\n        /* \"#utility.yul\":50409:50589   */\n      pop\n      jump\t// out\n        /* \"#utility.yul\":50595:50775   */\n    tag_904:\n        /* \"#utility.yul\":50735:50767   */\n      0x536572746966696b61204d65726b657a69205a6174656e204d65766375740000\n        /* \"#utility.yul\":50731:50732   */\n      0x00\n        /* \"#utility.yul\":50723:50729   */\n      dup3\n        /* \"#utility.yul\":50719:50733   */\n      add\n        /* \"#utility.yul\":50712:50768   */\n      mstore\n        /* \"#utility.yul\":50595:50775   */\n      pop\n      jump\t// out\n        /* \"#utility.yul\":50781:51002   */\n    tag_909:\n        /* \"#utility.yul\":50921:50955   */\n      0x536976696c20546f706c756d204b7572756c757375204d657663757420446567\n        /* \"#utility.yul\":50917:50918   */\n      0x00\n        /* \"#utility.yul\":50909:50915   */\n      dup3\n        /* \"#utility.yul\":50905:50919   */\n      add\n        /* \"#utility.yul\":50898:50956   */\n      mstore\n        /* \"#utility.yul\":50990:50994   */\n      0x696c000000000000000000000000000000000000000000000000000000000000\n        /* \"#utility.yul\":50985:50987   */\n      0x20\n        /* \"#utility.yul\":50977:50983   */\n      dup3\n        /* \"#utility.yul\":50973:50988   */\n      add\n        /* \"#utility.yul\":50966:50995   */\n      mstore\n        /* \"#utility.yul\":50781:51002   */\n      pop\n      jump\t// out\n        /* \"#utility.yul\":51008:51229   */\n    tag_914:\n        /* \"#utility.yul\":51148:51182   */\n      0x536976696c20546f706c756d204b7572756c757375205a6174656e204d657663\n        /* \"#utility.yul\":51144:51145   */\n      0x00\n        /* \"#utility.yul\":51136:51142   */\n      dup3\n        /* \"#utility.yul\":51132:51146   */\n      add\n        /* \"#utility.yul\":51125:51183   */\n      mstore\n        /* \"#utility.yul\":51217:51221   */\n      0x7574000000000000000000000000000000000000000000000000000000000000\n        /* \"#utility.yul\":51212:51214   */\n      0x20\n        /* \"#utility.yul\":51204:51210   */\n      dup3\n        /* \"#utility.yul\":51200:51215   */\n      add\n        /* \"#utility.yul\":51193:51222   */\n      mstore\n        /* \"#utility.yul\":51008:51229   */\n      pop\n      jump\t// out\n        /* \"#utility.yul\":51235:51408   */\n    tag_919:\n        /* \"#utility.yul\":51375:51400   */\n      0x556e6976657273697465205a6174656e204d6576637574000000000000000000\n        /* \"#utility.yul\":51371:51372   */\n      0x00\n        /* \"#utility.yul\":51363:51369   */\n      dup3\n        /* \"#utility.yul\":51359:51373   */\n      add\n        /* \"#utility.yul\":51352:51401   */\n      mstore\n        /* \"#utility.yul\":51235:51408   */\n      pop\n      jump\t// out\n        /* \"#utility.yul\":51414:51594   */\n    tag_924:\n        /* \"#utility.yul\":51554:51586   */\n      0x536572746966696b61204d65726b657a69204d657663757420446567696c0000\n        /* \"#utility.yul\":51550:51551   */\n      0x00\n        /* \"#utility.yul\":51542:51548   */\n      dup3\n        /* \"#utility.yul\":51538:51552   */\n      add\n        /* \"#utility.yul\":51531:51587   */\n      mstore\n        /* \"#utility.yul\":51414:51594   */\n      pop\n      jump\t// out\n        /* \"#utility.yul\":51600:51767   */\n    tag_929:\n        /* \"#utility.yul\":51740:51759   */\n      0x4b697369205a6174656e204d6576637574000000000000000000000000000000\n        /* \"#utility.yul\":51736:51737   */\n      0x00\n        /* \"#utility.yul\":51728:51734   */\n      dup3\n        /* \"#utility.yul\":51724:51738   */\n      add\n        /* \"#utility.yul\":51717:51760   */\n      mstore\n        /* \"#utility.yul\":51600:51767   */\n      pop\n      jump\t// out\n        /* \"#utility.yul\":51773:51947   */\n    tag_934:\n        /* \"#utility.yul\":51913:51939   */\n      0x4b616d75204b7572756d75204d657663757420446567696c0000000000000000\n        /* \"#utility.yul\":51909:51910   */\n      0x00\n        /* \"#utility.yul\":51901:51907   */\n      dup3\n        /* \"#utility.yul\":51897:51911   */\n      add\n        /* \"#utility.yul\":51890:51940   */\n      mstore\n        /* \"#utility.yul\":51773:51947   */\n      pop\n      jump\t// out\n        /* \"#utility.yul\":51953:52121   */\n    tag_939:\n        /* \"#utility.yul\":52093:52113   */\n      0x4669726d61204d657663757420446567696c0000000000000000000000000000\n        /* \"#utility.yul\":52089:52090   */\n      0x00\n        /* \"#utility.yul\":52081:52087   */\n      dup3\n        /* \"#utility.yul\":52077:52091   */\n      add\n        /* \"#utility.yul\":52070:52114   */\n      mstore\n        /* \"#utility.yul\":51953:52121   */\n      pop\n      jump\t// out\n        /* \"#utility.yul\":52127:52302   */\n    tag_944:\n        /* \"#utility.yul\":52267:52294   */\n      0x4b757273204d65726b657a69204d657663757420446567696c00000000000000\n        /* \"#utility.yul\":52263:52264   */\n      0x00\n        /* \"#utility.yul\":52255:52261   */\n      dup3\n        /* \"#utility.yul\":52251:52265   */\n      add\n        /* \"#utility.yul\":52244:52295   */\n      mstore\n        /* \"#utility.yul\":52127:52302   */\n      pop\n      jump\t// out\n        /* \"#utility.yul\":52308:52490   */\n    tag_949:\n        /* \"#utility.yul\":52448:52482   */\n      0x53616465636520544f42422062752069736c656d69207961706162696c69722e\n        /* \"#utility.yul\":52444:52445   */\n      0x00\n        /* \"#utility.yul\":52436:52442   */\n      dup3\n        /* \"#utility.yul\":52432:52446   */\n      add\n        /* \"#utility.yul\":52425:52483   */\n      mstore\n        /* \"#utility.yul\":52308:52490   */\n      pop\n      jump\t// out\n        /* \"#utility.yul\":52496:52609   */\n    tag_1110:\n        /* \"#utility.yul\":52577:52578   */\n      0x04\n        /* \"#utility.yul\":52570:52575   */\n      dup2\n        /* \"#utility.yul\":52567:52579   */\n      lt\n        /* \"#utility.yul\":52557:52603   */\n      tag_1167\n      jumpi\n        /* \"#utility.yul\":52583:52601   */\n      tag_1168\n      tag_1139\n      jump\t// in\n    tag_1168:\n        /* \"#utility.yul\":52557:52603   */\n    tag_1167:\n        /* \"#utility.yul\":52496:52609   */\n      pop\n      jump\t// out\n        /* \"#utility.yul\":52615:52737   */\n    tag_660:\n        /* \"#utility.yul\":52688:52712   */\n      tag_1170\n        /* \"#utility.yul\":52706:52711   */\n      dup2\n        /* \"#utility.yul\":52688:52712   */\n      tag_752\n      jump\t// in\n    tag_1170:\n        /* \"#utility.yul\":52681:52686   */\n      dup2\n        /* \"#utility.yul\":52678:52713   */\n      eq\n        /* \"#utility.yul\":52668:52731   */\n      tag_1171\n      jumpi\n        /* \"#utility.yul\":52727:52728   */\n      0x00\n        /* \"#utility.yul\":52724:52725   */\n      dup1\n        /* \"#utility.yul\":52717:52729   */\n      revert\n        /* \"#utility.yul\":52668:52731   */\n    tag_1171:\n        /* \"#utility.yul\":52615:52737   */\n      pop\n      jump\t// out\n        /* \"#utility.yul\":52743:52859   */\n    tag_664:\n        /* \"#utility.yul\":52813:52834   */\n      tag_1173\n        /* \"#utility.yul\":52828:52833   */\n      dup2\n        /* \"#utility.yul\":52813:52834   */\n      tag_840\n      jump\t// in\n    tag_1173:\n        /* \"#utility.yul\":52806:52811   */\n      dup2\n        /* \"#utility.yul\":52803:52835   */\n      eq\n        /* \"#utility.yul\":52793:52853   */\n      tag_1174\n      jumpi\n        /* \"#utility.yul\":52849:52850   */\n      0x00\n        /* \"#utility.yul\":52846:52847   */\n      dup1\n        /* \"#utility.yul\":52839:52851   */\n      revert\n        /* \"#utility.yul\":52793:52853   */\n    tag_1174:\n        /* \"#utility.yul\":52743:52859   */\n      pop\n      jump\t// out\n        /* \"#utility.yul\":52865:52987   */\n    tag_674:\n        /* \"#utility.yul\":52938:52962   */\n      tag_1176\n        /* \"#utility.yul\":52956:52961   */\n      dup2\n        /* \"#utility.yul\":52938:52962   */\n      tag_983\n      jump\t// in\n    tag_1176:\n        /* \"#utility.yul\":52931:52936   */\n      dup2\n        /* \"#utility.yul\":52928:52963   */\n      eq\n        /* \"#utility.yul\":52918:52981   */\n      tag_1177\n      jumpi\n        /* \"#utility.yul\":52977:52978   */\n      0x00\n        /* \"#utility.yul\":52974:52975   */\n      dup1\n        /* \"#utility.yul\":52967:52979   */\n      revert\n        /* \"#utility.yul\":52918:52981   */\n    tag_1177:\n        /* \"#utility.yul\":52865:52987   */\n      pop\n      jump\t// out\n        /* \"#utility.yul\":52993:53113   */\n    tag_678:\n        /* \"#utility.yul\":53065:53088   */\n      tag_1179\n        /* \"#utility.yul\":53082:53087   */\n      dup2\n        /* \"#utility.yul\":53065:53088   */\n      tag_990\n      jump\t// in\n    tag_1179:\n        /* \"#utility.yul\":53058:53063   */\n      dup2\n        /* \"#utility.yul\":53055:53089   */\n      eq\n        /* \"#utility.yul\":53045:53107   */\n      tag_1180\n      jumpi\n        /* \"#utility.yul\":53103:53104   */\n      0x00\n        /* \"#utility.yul\":53100:53101   */\n      dup1\n        /* \"#utility.yul\":53093:53105   */\n      revert\n        /* \"#utility.yul\":53045:53107   */\n    tag_1180:\n        /* \"#utility.yul\":52993:53113   */\n      pop\n      jump\t// out\n        /* \"#utility.yul\":53119:53237   */\n    tag_682:\n        /* \"#utility.yul\":53190:53212   */\n      tag_1182\n        /* \"#utility.yul\":53206:53211   */\n      dup2\n        /* \"#utility.yul\":53190:53212   */\n      tag_993\n      jump\t// in\n    tag_1182:\n        /* \"#utility.yul\":53183:53188   */\n      dup2\n        /* \"#utility.yul\":53180:53213   */\n      eq\n        /* \"#utility.yul\":53170:53231   */\n      tag_1183\n      jumpi\n        /* \"#utility.yul\":53227:53228   */\n      0x00\n        /* \"#utility.yul\":53224:53225   */\n      dup1\n        /* \"#utility.yul\":53217:53229   */\n      revert\n        /* \"#utility.yul\":53170:53231   */\n    tag_1183:\n        /* \"#utility.yul\":53119:53237   */\n      pop\n      jump\t// out\n\n    auxdata: 0xa2646970667358221220d83d8f1c8dff701d0b30f16dbeeff48e17e6849afbd44b53abd88a8cf4da81e864736f6c63430008070033\n}\n",
				"bytecode": {
					"linkReferences": {},
					"object": "608060405234801561001057600080fd5b50615bc880620000216000396000f3fe608060405234801561001057600080fd5b506004361061035c5760003560e01c8063a29879c0116101d3578063d5f6d56c11610104578063e8abb184116100a2578063f19818501161007c578063f198185014610b1c578063f54acc6514610b38578063f63c649f14610b54578063fd738e6d14610b705761035c565b8063e8abb18414610a8c578063f0040eb914610abc578063f140385114610aec5761035c565b8063d7909777116100de578063d7909777146109e0578063d88d8c1214610a10578063e24047ca14610a2c578063e513050814610a5c5761035c565b8063d5f6d56c14610976578063d71ed8b114610992578063d7396414146109b05761035c565b8063ba479b7e11610171578063cbc928091161014b578063cbc92809146108ee578063d0d6b7a31461091e578063d25aab851461093c578063d508602d146109585761035c565b8063ba479b7e14610881578063bd35a506146108b6578063c6da8cfe146108d25761035c565b8063afb61b1e116101ad578063afb61b1e146107e9578063b07b0e5a14610805578063b2a825bb14610835578063b98ccefd146108515761035c565b8063a29879c01461077e578063a4e7ae051461079c578063a81dc179146107cd5761035c565b806336fd2633116102ad5780637d0fa2871161024b57806391e9528a1161022557806391e9528a146106f85780639a8c9119146107145780639bfc4dbd146107465780639dc30114146107625761035c565b80637d0fa28714610678578063871db892146106aa5780638c848885146106c85761035c565b806350d2a0601161028757806350d2a060146105f2578063514e03c71461060e578063548fa6201461063e57806371af892d1461065a5761035c565b806336fd26331461058757806339987f94146105a357806346224853146105d65761035c565b806319023bf31161031a5780631f145f47116102f45780631f145f47146104c357806328266697146104f35780632d087d7014610525578063356b1f1e146105555761035c565b806319023bf3146104595780631916e139146104755780631d595580146104a75761035c565b80621d54ab14610361578063024eb6bc1461037d5780630a33e3eb146103ad5780630b877ca7146103dd578063139884ec1461040d578063150596f41461043d575b600080fd5b61037b600480360381019061037691906145ff565b610b8e565b005b610397600480360381019061039291906144bc565b610d4c565b6040516103a49190615033565b60405180910390f35b6103c760048036038101906103c2919061466e565b610da5565b6040516103d49190614f4c565b60405180910390f35b6103f760048036038101906103f2919061466e565b610de4565b6040516104049190614f4c565b60405180910390f35b610427600480360381019061042291906144bc565b610e23565b6040516104349190615033565b60405180910390f35b610457600480360381019061045291906145ff565b610e7d565b005b610473600480360381019061046e91906145ff565b610fd7565b005b61048f600480360381019061048a91906144bc565b611195565b60405161049e939291906150bd565b60405180910390f35b6104c160048036038101906104bc91906144bc565b611261565b005b6104dd60048036038101906104d8919061466e565b61132e565b6040516104ea9190614f4c565b60405180910390f35b61050d600480360381019061050891906144bc565b61136d565b60405161051c939291906150bd565b60405180910390f35b61053f600480360381019061053a91906144bc565b611439565b60405161054c9190615033565b60405180910390f35b61056f600480360381019061056a91906144bc565b611492565b60405161057e939291906150bd565b60405180910390f35b6105a1600480360381019061059c91906144e9565b61155e565b005b6105bd60048036038101906105b891906144bc565b611625565b6040516105cd94939291906150fb565b60405180910390f35b6105f060048036038101906105eb91906145ff565b6116f7565b005b61060c600480360381019061060791906144bc565b6118b5565b005b610628600480360381019061062391906144bc565b61197a565b6040516106359190615033565b60405180910390f35b610658600480360381019061065391906144bc565b6119d3565b005b610662611a98565b60405161066f9190614f4c565b60405180910390f35b610692600480360381019061068d91906144bc565b611abc565b6040516106a1939291906150bd565b60405180910390f35b6106b2611b88565b6040516106bf9190615011565b60405180910390f35b6106e260048036038101906106dd91906144bc565b611e1e565b6040516106ef9190615033565b60405180910390f35b610712600480360381019061070d91906145ff565b611e77565b005b61072e600480360381019061072991906144bc565b611fd1565b60405161073d939291906150bd565b60405180910390f35b610760600480360381019061075b91906144bc565b61209d565b005b61077c600480360381019061077791906145ff565b612162565b005b610786612320565b6040516107939190614fcd565b60405180910390f35b6107b660048036038101906107b1919061469b565b6125b8565b6040516107c4929190615367565b60405180910390f35b6107e760048036038101906107e2919061457c565b612674565b005b61080360048036038101906107fe91906144bc565b612816565b005b61081f600480360381019061081a919061466e565b6128db565b60405161082c9190614f4c565b60405180910390f35b61084f600480360381019061084a91906145ff565b61291a565b005b61086b600480360381019061086691906144bc565b612a74565b6040516108789190615033565b60405180910390f35b61089b600480360381019061089691906144bc565b612acd565b6040516108ad9695949392919061504e565b60405180910390f35b6108d060048036038101906108cb91906144bc565b612c61565b005b6108ec60048036038101906108e791906145ff565b612d02565b005b610908600480360381019061090391906144bc565b612e5c565b6040516109159190615033565b60405180910390f35b610926612e87565b6040516109339190614fab565b60405180910390f35b6109566004803603810190610951919061457c565b61308f565b005b610960613295565b60405161096d9190614f67565b60405180910390f35b610990600480360381019061098b91906145ff565b613537565b005b61099a613691565b6040516109a79190614f89565b60405180910390f35b6109ca60048036038101906109c591906144bc565b613929565b6040516109d79190615033565b60405180910390f35b6109fa60048036038101906109f5919061466e565b613981565b604051610a079190614f4c565b60405180910390f35b610a2a6004803603810190610a2591906144bc565b6139c0565b005b610a466004803603810190610a4191906144bc565b613a85565b604051610a539190615033565b60405180910390f35b610a766004803603810190610a7191906144bc565b613ade565b604051610a839190615033565b60405180910390f35b610aa66004803603810190610aa1919061466e565b613b38565b604051610ab39190614f4c565b60405180910390f35b610ad66004803603810190610ad191906144bc565b613b77565b604051610ae39190615033565b60405180910390f35b610b066004803603810190610b01919061466e565b613bd0565b604051610b139190614f4c565b60405180910390f35b610b366004803603810190610b31919061453c565b613c0f565b005b610b526004803603810190610b4d91906144bc565b613cb5565b005b610b6e6004803603810190610b6991906145ff565b613dbf565b005b610b78613f7d565b604051610b859190614fef565b60405180910390f35b610b9783613b77565b15610bd7576040517f08c379a0000000000000000000000000000000000000000000000000000000008152600401610bce90615287565b60405180910390fd5b6001600460008573ffffffffffffffffffffffffffffffffffffffff1673ffffffffffffffffffffffffffffffffffffffff16815260200190815260200160002060000160006101000a81548160ff02191690831515021790555081600460008573ffffffffffffffffffffffffffffffffffffffff1673ffffffffffffffffffffffffffffffffffffffff1681526020019081526020016000206001019080519060200190610c88929190614215565b5080600460008573ffffffffffffffffffffffffffffffffffffffff1673ffffffffffffffffffffffffffffffffffffffff16815260200190815260200160002060020160006101000a81548160ff021916908360ff160217905550600d839080600181540180825580915050600190039060005260206000200160009091909190916101000a81548173ffffffffffffffffffffffffffffffffffffffff021916908373ffffffffffffffffffffffffffffffffffffffff160217905550505050565b6000600760008373ffffffffffffffffffffffffffffffffffffffff1673ffffffffffffffffffffffffffffffffffffffff16815260200190815260200160002060000160009054906101000a900460ff169050919050565b60108181548110610db557600080fd5b906000526020600020016000915054906101000a900473ffffffffffffffffffffffffffffffffffffffff1681565b60128181548110610df457600080fd5b906000526020600020016000915054906101000a900473ffffffffffffffffffffffffffffffffffffffff1681565b60008173ffffffffffffffffffffffffffffffffffffffff16600160009054906101000a900473ffffffffffffffffffffffffffffffffffffffff1673ffffffffffffffffffffffffffffffffffffffff16149050919050565b610e868361197a565b610ec5576040517f08c379a0000000000000000000000000000000000000000000000000000000008152600401610ebc906152e7565b60405180910390fd5b6001600860008573ffffffffffffffffffffffffffffffffffffffff1673ffffffffffffffffffffffffffffffffffffffff16815260200190815260200160002060000160006101000a81548160ff02191690831515021790555081600860008573ffffffffffffffffffffffffffffffffffffffff1673ffffffffffffffffffffffffffffffffffffffff1681526020019081526020016000206001019080519060200190610f76929190614215565b5080600860008573ffffffffffffffffffffffffffffffffffffffff1673ffffffffffffffffffffffffffffffffffffffff16815260200190815260200160002060020160006101000a81548160ff021916908360ff160217905550505050565b610fe083611e1e565b15611020576040517f08c379a000000000000000000000000000000000000000000000000000000000815260040161101790615267565b60405180910390fd5b6001600960008573ffffffffffffffffffffffffffffffffffffffff1673ffffffffffffffffffffffffffffffffffffffff16815260200190815260200160002060000160006101000a81548160ff02191690831515021790555081600960008573ffffffffffffffffffffffffffffffffffffffff1673ffffffffffffffffffffffffffffffffffffffff16815260200190815260200160002060010190805190602001906110d1929190614215565b5080600960008573ffffffffffffffffffffffffffffffffffffffff1673ffffffffffffffffffffffffffffffffffffffff16815260200190815260200160002060020160006101000a81548160ff021916908360ff1602179055506011839080600181540180825580915050600190039060005260206000200160009091909190916101000a81548173ffffffffffffffffffffffffffffffffffffffff021916908373ffffffffffffffffffffffffffffffffffffffff160217905550505050565b60076020528060005260406000206000915090508060000160009054906101000a900460ff16908060010180546111cb9061564a565b80601f01602080910402602001604051908101604052809291908181526020018280546111f79061564a565b80156112445780601f1061121957610100808354040283529160200191611244565b820191906000526020600020905b81548152906001019060200180831161122757829003601f168201915b5050505050908060020160009054906101000a900460ff16905083565b61126a81611439565b6112a9576040517f08c379a00000000000000000000000000000000000000000000000000000000081526004016112a090615307565b60405180910390fd5b600660008273ffffffffffffffffffffffffffffffffffffffff1673ffffffffffffffffffffffffffffffffffffffff168152602001908152602001600020600080820160006101000a81549060ff02191690556000820160016101000a81549060ff02191690556001820160009055600282016000611329919061429b565b505050565b600d818154811061133e57600080fd5b906000526020600020016000915054906101000a900473ffffffffffffffffffffffffffffffffffffffff1681565b60046020528060005260406000206000915090508060000160009054906101000a900460ff16908060010180546113a39061564a565b80601f01602080910402602001604051908101604052809291908181526020018280546113cf9061564a565b801561141c5780601f106113f15761010080835404028352916020019161141c565b820191906000526020600020905b8154815290600101906020018083116113ff57829003601f168201915b5050505050908060020160009054906101000a900460ff16905083565b6000600660008373ffffffffffffffffffffffffffffffffffffffff1673ffffffffffffffffffffffffffffffffffffffff16815260200190815260200160002060000160009054906101000a900460ff169050919050565b600a6020528060005260406000206000915090508060000160009054906101000a900460ff16908060010180546114c89061564a565b80601f01602080910402602001604051908101604052809291908181526020018280546114f49061564a565b80156115415780601f1061151657610100808354040283529160200191611541565b820191906000526020600020905b81548152906001019060200180831161152457829003601f168201915b5050505050908060020160009054906101000a900460ff16905083565b826000806101000a81548173ffffffffffffffffffffffffffffffffffffffff021916908373ffffffffffffffffffffffffffffffffffffffff16021790555081600160006101000a81548173ffffffffffffffffffffffffffffffffffffffff021916908373ffffffffffffffffffffffffffffffffffffffff16021790555080600260006101000a81548173ffffffffffffffffffffffffffffffffffffffff021916908373ffffffffffffffffffffffffffffffffffffffff160217905550505050565b60066020528060005260406000206000915090508060000160009054906101000a900460ff16908060000160019054906101000a900460ff16908060010154908060020180546116749061564a565b80601f01602080910402602001604051908101604052809291908181526020018280546116a09061564a565b80156116ed5780601f106116c2576101008083540402835291602001916116ed565b820191906000526020600020905b8154815290600101906020018083116116d057829003601f168201915b5050505050905084565b61170083610d4c565b15611740576040517f08c379a000000000000000000000000000000000000000000000000000000000815260040161173790615167565b60405180910390fd5b6001600760008573ffffffffffffffffffffffffffffffffffffffff1673ffffffffffffffffffffffffffffffffffffffff16815260200190815260200160002060000160006101000a81548160ff02191690831515021790555081600760008573ffffffffffffffffffffffffffffffffffffffff1673ffffffffffffffffffffffffffffffffffffffff16815260200190815260200160002060010190805190602001906117f1929190614215565b5080600760008573ffffffffffffffffffffffffffffffffffffffff1673ffffffffffffffffffffffffffffffffffffffff16815260200190815260200160002060020160006101000a81548160ff021916908360ff160217905550600f839080600181540180825580915050600190039060005260206000200160009091909190916101000a81548173ffffffffffffffffffffffffffffffffffffffff021916908373ffffffffffffffffffffffffffffffffffffffff160217905550505050565b6118be8161197a565b6118fd576040517f08c379a00000000000000000000000000000000000000000000000000000000081526004016118f4906152e7565b60405180910390fd5b600860008273ffffffffffffffffffffffffffffffffffffffff1673ffffffffffffffffffffffffffffffffffffffff168152602001908152602001600020600080820160006101000a81549060ff0219169055600182016000611961919061429b565b6002820160006101000a81549060ff0219169055505050565b6000600860008373ffffffffffffffffffffffffffffffffffffffff1673ffffffffffffffffffffffffffffffffffffffff16815260200190815260200160002060000160009054906101000a900460ff169050919050565b6119dc81613a85565b611a1b576040517f08c379a0000000000000000000000000000000000000000000000000000000008152600401611a12906152a7565b60405180910390fd5b600a60008273ffffffffffffffffffffffffffffffffffffffff1673ffffffffffffffffffffffffffffffffffffffff168152602001908152602001600020600080820160006101000a81549060ff0219169055600182016000611a7f919061429b565b6002820160006101000a81549060ff0219169055505050565b60008054906101000a900473ffffffffffffffffffffffffffffffffffffffff1681565b60086020528060005260406000206000915090508060000160009054906101000a900460ff1690806001018054611af29061564a565b80601f0160208091040260200160405190810160405280929190818152602001828054611b1e9061564a565b8015611b6b5780601f10611b4057610100808354040283529160200191611b6b565b820191906000526020600020905b815481529060010190602001808311611b4e57829003601f168201915b5050505050908060020160009054906101000a900460ff16905083565b606060008054906101000a900473ffffffffffffffffffffffffffffffffffffffff1673ffffffffffffffffffffffffffffffffffffffff163373ffffffffffffffffffffffffffffffffffffffff1614611c18576040517f08c379a0000000000000000000000000000000000000000000000000000000008152600401611c0f90615147565b60405180910390fd5b6000600d8054905067ffffffffffffffff811115611c3957611c386157b2565b5b604051908082528060200260200182016040528015611c7257816020015b611c5f6142db565b815260200190600190039081611c575790505b5090506000805b600d80549050811015611e155760046000600d8381548110611c9e57611c9d615783565b5b9060005260206000200160009054906101000a900473ffffffffffffffffffffffffffffffffffffffff1673ffffffffffffffffffffffffffffffffffffffff1673ffffffffffffffffffffffffffffffffffffffff1681526020019081526020016000206040518060600160405290816000820160009054906101000a900460ff16151515158152602001600182018054611d399061564a565b80601f0160208091040260200160405190810160405280929190818152602001828054611d659061564a565b8015611db25780601f10611d8757610100808354040283529160200191611db2565b820191906000526020600020905b815481529060010190602001808311611d9557829003601f168201915b505050505081526020016002820160009054906101000a900460ff1660ff1660ff1681525050838380611de4906156ad565b945081518110611df757611df6615783565b5b60200260200101819052508080611e0d906156ad565b915050611c79565b50819250505090565b6000600960008373ffffffffffffffffffffffffffffffffffffffff1673ffffffffffffffffffffffffffffffffffffffff16815260200190815260200160002060000160009054906101000a900460ff169050919050565b611e8083611e1e565b611ebf576040517f08c379a0000000000000000000000000000000000000000000000000000000008152600401611eb690615247565b60405180910390fd5b6001600960008573ffffffffffffffffffffffffffffffffffffffff1673ffffffffffffffffffffffffffffffffffffffff16815260200190815260200160002060000160006101000a81548160ff02191690831515021790555081600960008573ffffffffffffffffffffffffffffffffffffffff1673ffffffffffffffffffffffffffffffffffffffff1681526020019081526020016000206001019080519060200190611f70929190614215565b5080600960008573ffffffffffffffffffffffffffffffffffffffff1673ffffffffffffffffffffffffffffffffffffffff16815260200190815260200160002060020160006101000a81548160ff021916908360ff160217905550505050565b60096020528060005260406000206000915090508060000160009054906101000a900460ff16908060010180546120079061564a565b80601f01602080910402602001604051908101604052809291908181526020018280546120339061564a565b80156120805780601f1061205557610100808354040283529160200191612080565b820191906000526020600020905b81548152906001019060200180831161206357829003601f168201915b5050505050908060020160009054906101000a900460ff16905083565b6120a681613b77565b6120e5576040517f08c379a00000000000000000000000000000000000000000000000000000000081526004016120dc90615287565b60405180910390fd5b600460008273ffffffffffffffffffffffffffffffffffffffff1673ffffffffffffffffffffffffffffffffffffffff168152602001908152602001600020600080820160006101000a81549060ff0219169055600182016000612149919061429b565b6002820160006101000a81549060ff0219169055505050565b61216b83613a85565b156121ab576040517f08c379a00000000000000000000000000000000000000000000000000000000081526004016121a290615227565b60405180910390fd5b6001600a60008573ffffffffffffffffffffffffffffffffffffffff1673ffffffffffffffffffffffffffffffffffffffff16815260200190815260200160002060000160006101000a81548160ff02191690831515021790555081600a60008573ffffffffffffffffffffffffffffffffffffffff1673ffffffffffffffffffffffffffffffffffffffff168152602001908152602001600020600101908051906020019061225c929190614215565b5080600a60008573ffffffffffffffffffffffffffffffffffffffff1673ffffffffffffffffffffffffffffffffffffffff16815260200190815260200160002060020160006101000a81548160ff021916908360ff1602179055506012839080600181540180825580915050600190039060005260206000200160009091909190916101000a81548173ffffffffffffffffffffffffffffffffffffffff021916908373ffffffffffffffffffffffffffffffffffffffff160217905550505050565b6060600260009054906101000a900473ffffffffffffffffffffffffffffffffffffffff1673ffffffffffffffffffffffffffffffffffffffff163373ffffffffffffffffffffffffffffffffffffffff16146123b2576040517f08c379a00000000000000000000000000000000000000000000000000000000081526004016123a990615207565b60405180910390fd5b600060118054905067ffffffffffffffff8111156123d3576123d26157b2565b5b60405190808252806020026020018201604052801561240c57816020015b6123f9614301565b8152602001906001900390816123f15790505b5090506000805b6011805490508110156125af57600960006011838154811061243857612437615783565b5b9060005260206000200160009054906101000a900473ffffffffffffffffffffffffffffffffffffffff1673ffffffffffffffffffffffffffffffffffffffff1673ffffffffffffffffffffffffffffffffffffffff1681526020019081526020016000206040518060600160405290816000820160009054906101000a900460ff161515151581526020016001820180546124d39061564a565b80601f01602080910402602001604051908101604052809291908181526020018280546124ff9061564a565b801561254c5780601f106125215761010080835404028352916020019161254c565b820191906000526020600020905b81548152906001019060200180831161252f57829003601f168201915b505050505081526020016002820160009054906101000a900460ff1660ff1660ff168152505083838061257e906156ad565b94508151811061259157612590615783565b5b602002602001018190525080806125a7906156ad565b915050612413565b50819250505090565b600b6020528060005260406000206000915090508060000160009054906101000a900463ffffffff16908060010180546125f19061564a565b80601f016020809104026020016040519081016040528092919081815260200182805461261d9061564a565b801561266a5780601f1061263f5761010080835404028352916020019161266a565b820191906000526020600020905b81548152906001019060200180831161264d57829003601f168201915b5050505050905082565b61267d84611439565b6126bc576040517f08c379a00000000000000000000000000000000000000000000000000000000081526004016126b390615307565b60405180910390fd5b6001600660008673ffffffffffffffffffffffffffffffffffffffff1673ffffffffffffffffffffffffffffffffffffffff16815260200190815260200160002060000160006101000a81548160ff02191690831515021790555082600660008673ffffffffffffffffffffffffffffffffffffffff1673ffffffffffffffffffffffffffffffffffffffff168152602001908152602001600020600201908051906020019061276d929190614215565b5080600660008673ffffffffffffffffffffffffffffffffffffffff1673ffffffffffffffffffffffffffffffffffffffff16815260200190815260200160002060000160016101000a81548160ff021916908360ff16021790555081600660008673ffffffffffffffffffffffffffffffffffffffff1673ffffffffffffffffffffffffffffffffffffffff1681526020019081526020016000206001018190555050505050565b61281f81610d4c565b61285e576040517f08c379a000000000000000000000000000000000000000000000000000000000815260040161285590615327565b60405180910390fd5b600760008273ffffffffffffffffffffffffffffffffffffffff1673ffffffffffffffffffffffffffffffffffffffff168152602001908152602001600020600080820160006101000a81549060ff02191690556001820160006128c2919061429b565b6002820160006101000a81549060ff0219169055505050565b600e81815481106128eb57600080fd5b906000526020600020016000915054906101000a900473ffffffffffffffffffffffffffffffffffffffff1681565b61292383613a85565b612962576040517f08c379a0000000000000000000000000000000000000000000000000000000008152600401612959906152a7565b60405180910390fd5b6001600a60008573ffffffffffffffffffffffffffffffffffffffff1673ffffffffffffffffffffffffffffffffffffffff16815260200190815260200160002060000160006101000a81548160ff02191690831515021790555081600a60008573ffffffffffffffffffffffffffffffffffffffff1673ffffffffffffffffffffffffffffffffffffffff1681526020019081526020016000206001019080519060200190612a13929190614215565b5080600a60008573ffffffffffffffffffffffffffffffffffffffff1673ffffffffffffffffffffffffffffffffffffffff16815260200190815260200160002060020160006101000a81548160ff021916908360ff160217905550505050565b6000600360008373ffffffffffffffffffffffffffffffffffffffff1673ffffffffffffffffffffffffffffffffffffffff16815260200190815260200160002060000160009054906101000a900460ff169050919050565b60056020528060005260406000206000915090508060000160009054906101000a900460ff16908060000160019054906101000a900473ffffffffffffffffffffffffffffffffffffffff16908060000160159054906101000a900461ffff16908060000160179054906101000a900460ff1690806001018054612b509061564a565b80601f0160208091040260200160405190810160405280929190818152602001828054612b7c9061564a565b8015612bc95780601f10612b9e57610100808354040283529160200191612bc9565b820191906000526020600020905b815481529060010190602001808311612bac57829003601f168201915b505050505090806002018054612bde9061564a565b80601f0160208091040260200160405190810160405280929190818152602001828054612c0a9061564a565b8015612c575780601f10612c2c57610100808354040283529160200191612c57565b820191906000526020600020905b815481529060010190602001808311612c3a57829003601f168201915b5050505050905086565b612c6a81612a74565b612ca9576040517f08c379a0000000000000000000000000000000000000000000000000000000008152600401612ca0906151a7565b60405180910390fd5b600360008273ffffffffffffffffffffffffffffffffffffffff1673ffffffffffffffffffffffffffffffffffffffff168152602001908152602001600020600080820160006101000a81549060ff0219169055505050565b612d0b83613b77565b612d4a576040517f08c379a0000000000000000000000000000000000000000000000000000000008152600401612d4190615187565b60405180910390fd5b6001600460008573ffffffffffffffffffffffffffffffffffffffff1673ffffffffffffffffffffffffffffffffffffffff16815260200190815260200160002060000160006101000a81548160ff02191690831515021790555081600460008573ffffffffffffffffffffffffffffffffffffffff1673ffffffffffffffffffffffffffffffffffffffff1681526020019081526020016000206001019080519060200190612dfb929190614215565b5080600460008573ffffffffffffffffffffffffffffffffffffffff1673ffffffffffffffffffffffffffffffffffffffff16815260200190815260200160002060020160006101000a81548160ff021916908360ff160217905550505050565b60036020528060005260406000206000915090508060000160009054906101000a900460ff16905081565b60606000600f8054905067ffffffffffffffff811115612eaa57612ea96157b2565b5b604051908082528060200260200182016040528015612ee357816020015b612ed0614327565b815260200190600190039081612ec85790505b5090506000805b600f805490508110156130865760076000600f8381548110612f0f57612f0e615783565b5b9060005260206000200160009054906101000a900473ffffffffffffffffffffffffffffffffffffffff1673ffffffffffffffffffffffffffffffffffffffff1673ffffffffffffffffffffffffffffffffffffffff1681526020019081526020016000206040518060600160405290816000820160009054906101000a900460ff16151515158152602001600182018054612faa9061564a565b80601f0160208091040260200160405190810160405280929190818152602001828054612fd69061564a565b80156130235780601f10612ff857610100808354040283529160200191613023565b820191906000526020600020905b81548152906001019060200180831161300657829003601f168201915b505050505081526020016002820160009054906101000a900460ff1660ff1660ff1681525050838380613055906156ad565b94508151811061306857613067615783565b5b6020026020010181905250808061307e906156ad565b915050612eea565b50819250505090565b61309884611439565b156130d8576040517f08c379a00000000000000000000000000000000000000000000000000000000081526004016130cf906151e7565b60405180910390fd5b6001600660008673ffffffffffffffffffffffffffffffffffffffff1673ffffffffffffffffffffffffffffffffffffffff16815260200190815260200160002060000160006101000a81548160ff02191690831515021790555082600660008673ffffffffffffffffffffffffffffffffffffffff1673ffffffffffffffffffffffffffffffffffffffff1681526020019081526020016000206002019080519060200190613189929190614215565b5080600660008673ffffffffffffffffffffffffffffffffffffffff1673ffffffffffffffffffffffffffffffffffffffff16815260200190815260200160002060000160016101000a81548160ff021916908360ff16021790555081600660008673ffffffffffffffffffffffffffffffffffffffff1673ffffffffffffffffffffffffffffffffffffffff16815260200190815260200160002060010181905550600e849080600181540180825580915050600190039060005260206000200160009091909190916101000a81548173ffffffffffffffffffffffffffffffffffffffff021916908373ffffffffffffffffffffffffffffffffffffffff16021790555050505050565b6060600160009054906101000a900473ffffffffffffffffffffffffffffffffffffffff1673ffffffffffffffffffffffffffffffffffffffff163373ffffffffffffffffffffffffffffffffffffffff1614613327576040517f08c379a000000000000000000000000000000000000000000000000000000000815260040161331e90615347565b60405180910390fd5b6000600e8054905067ffffffffffffffff811115613348576133476157b2565b5b60405190808252806020026020018201604052801561338157816020015b61336e61434d565b8152602001906001900390816133665790505b5090506000805b600e8054905081101561352e5760066000600e83815481106133ad576133ac615783565b5b9060005260206000200160009054906101000a900473ffffffffffffffffffffffffffffffffffffffff1673ffffffffffffffffffffffffffffffffffffffff1673ffffffffffffffffffffffffffffffffffffffff1681526020019081526020016000206040518060800160405290816000820160009054906101000a900460ff161515151581526020016000820160019054906101000a900460ff1660ff1660ff1681526020016001820154815260200160028201805461346f9061564a565b80601f016020809104026020016040519081016040528092919081815260200182805461349b9061564a565b80156134e85780601f106134bd576101008083540402835291602001916134e8565b820191906000526020600020905b8154815290600101906020018083116134cb57829003601f168201915b5050505050815250508383806134fd906156ad565b9450815181106135105761350f615783565b5b60200260200101819052508080613526906156ad565b915050613388565b50819250505090565b61354083610d4c565b61357f576040517f08c379a000000000000000000000000000000000000000000000000000000000815260040161357690615327565b60405180910390fd5b6001600760008573ffffffffffffffffffffffffffffffffffffffff1673ffffffffffffffffffffffffffffffffffffffff16815260200190815260200160002060000160006101000a81548160ff02191690831515021790555081600760008573ffffffffffffffffffffffffffffffffffffffff1673ffffffffffffffffffffffffffffffffffffffff1681526020019081526020016000206001019080519060200190613630929190614215565b5080600760008573ffffffffffffffffffffffffffffffffffffffff1673ffffffffffffffffffffffffffffffffffffffff16815260200190815260200160002060020160006101000a81548160ff021916908360ff160217905550505050565b6060600260009054906101000a900473ffffffffffffffffffffffffffffffffffffffff1673ffffffffffffffffffffffffffffffffffffffff163373ffffffffffffffffffffffffffffffffffffffff1614613723576040517f08c379a000000000000000000000000000000000000000000000000000000000815260040161371a90615207565b60405180910390fd5b600060108054905067ffffffffffffffff811115613744576137436157b2565b5b60405190808252806020026020018201604052801561377d57816020015b61376a61437a565b8152602001906001900390816137625790505b5090506000805b6010805490508110156139205760086000601083815481106137a9576137a8615783565b5b9060005260206000200160009054906101000a900473ffffffffffffffffffffffffffffffffffffffff1673ffffffffffffffffffffffffffffffffffffffff1673ffffffffffffffffffffffffffffffffffffffff1681526020019081526020016000206040518060600160405290816000820160009054906101000a900460ff161515151581526020016001820180546138449061564a565b80601f01602080910402602001604051908101604052809291908181526020018280546138709061564a565b80156138bd5780601f10613892576101008083540402835291602001916138bd565b820191906000526020600020905b8154815290600101906020018083116138a057829003601f168201915b505050505081526020016002820160009054906101000a900460ff1660ff1660ff16815250508383806138ef906156ad565b94508151811061390257613901615783565b5b60200260200101819052508080613918906156ad565b915050613784565b50819250505090565b60008173ffffffffffffffffffffffffffffffffffffffff1660008054906101000a900473ffffffffffffffffffffffffffffffffffffffff1673ffffffffffffffffffffffffffffffffffffffff16149050919050565b6011818154811061399157600080fd5b906000526020600020016000915054906101000a900473ffffffffffffffffffffffffffffffffffffffff1681565b6139c981611e1e565b613a08576040517f08c379a00000000000000000000000000000000000000000000000000000000081526004016139ff90615247565b60405180910390fd5b600960008273ffffffffffffffffffffffffffffffffffffffff1673ffffffffffffffffffffffffffffffffffffffff168152602001908152602001600020600080820160006101000a81549060ff0219169055600182016000613a6c919061429b565b6002820160006101000a81549060ff0219169055505050565b6000600a60008373ffffffffffffffffffffffffffffffffffffffff1673ffffffffffffffffffffffffffffffffffffffff16815260200190815260200160002060000160009054906101000a900460ff169050919050565b60008173ffffffffffffffffffffffffffffffffffffffff16600260009054906101000a900473ffffffffffffffffffffffffffffffffffffffff1673ffffffffffffffffffffffffffffffffffffffff16149050919050565b600f8181548110613b4857600080fd5b906000526020600020016000915054906101000a900473ffffffffffffffffffffffffffffffffffffffff1681565b6000600460008373ffffffffffffffffffffffffffffffffffffffff1673ffffffffffffffffffffffffffffffffffffffff16815260200190815260200160002060000160009054906101000a900460ff169050919050565b600c8181548110613be057600080fd5b906000526020600020016000915054906101000a900473ffffffffffffffffffffffffffffffffffffffff1681565b613c1882612a74565b613c57576040517f08c379a0000000000000000000000000000000000000000000000000000000008152600401613c4e906151a7565b60405180910390fd5b80600360008473ffffffffffffffffffffffffffffffffffffffff1673ffffffffffffffffffffffffffffffffffffffff16815260200190815260200160002060000160006101000a81548160ff0219169083151502179055505050565b613cbe81612a74565b15613cfe576040517f08c379a0000000000000000000000000000000000000000000000000000000008152600401613cf5906152c7565b60405180910390fd5b6001600360008373ffffffffffffffffffffffffffffffffffffffff1673ffffffffffffffffffffffffffffffffffffffff16815260200190815260200160002060000160006101000a81548160ff021916908315150217905550600c819080600181540180825580915050600190039060005260206000200160009091909190916101000a81548173ffffffffffffffffffffffffffffffffffffffff021916908373ffffffffffffffffffffffffffffffffffffffff16021790555050565b613dc88361197a565b15613e08576040517f08c379a0000000000000000000000000000000000000000000000000000000008152600401613dff906151c7565b60405180910390fd5b6001600860008573ffffffffffffffffffffffffffffffffffffffff1673ffffffffffffffffffffffffffffffffffffffff16815260200190815260200160002060000160006101000a81548160ff02191690831515021790555081600860008573ffffffffffffffffffffffffffffffffffffffff1673ffffffffffffffffffffffffffffffffffffffff1681526020019081526020016000206001019080519060200190613eb9929190614215565b5080600860008573ffffffffffffffffffffffffffffffffffffffff1673ffffffffffffffffffffffffffffffffffffffff16815260200190815260200160002060020160006101000a81548160ff021916908360ff1602179055506010839080600181540180825580915050600190039060005260206000200160009091909190916101000a81548173ffffffffffffffffffffffffffffffffffffffff021916908373ffffffffffffffffffffffffffffffffffffffff160217905550505050565b6060600160009054906101000a900473ffffffffffffffffffffffffffffffffffffffff1673ffffffffffffffffffffffffffffffffffffffff163373ffffffffffffffffffffffffffffffffffffffff161461400f576040517f08c379a000000000000000000000000000000000000000000000000000000000815260040161400690615347565b60405180910390fd5b600060128054905067ffffffffffffffff8111156140305761402f6157b2565b5b60405190808252806020026020018201604052801561406957816020015b6140566143a0565b81526020019060019003908161404e5790505b5090506000805b60128054905081101561420c57600a60006012838154811061409557614094615783565b5b9060005260206000200160009054906101000a900473ffffffffffffffffffffffffffffffffffffffff1673ffffffffffffffffffffffffffffffffffffffff1673ffffffffffffffffffffffffffffffffffffffff1681526020019081526020016000206040518060600160405290816000820160009054906101000a900460ff161515151581526020016001820180546141309061564a565b80601f016020809104026020016040519081016040528092919081815260200182805461415c9061564a565b80156141a95780601f1061417e576101008083540402835291602001916141a9565b820191906000526020600020905b81548152906001019060200180831161418c57829003601f168201915b505050505081526020016002820160009054906101000a900460ff1660ff1660ff16815250508383806141db906156ad565b9450815181106141ee576141ed615783565b5b60200260200101819052508080614204906156ad565b915050614070565b50819250505090565b8280546142219061564a565b90600052602060002090601f016020900481019282614243576000855561428a565b82601f1061425c57805160ff191683800117855561428a565b8280016001018555821561428a579182015b8281111561428957825182559160200191906001019061426e565b5b50905061429791906143c6565b5090565b5080546142a79061564a565b6000825580601f106142b957506142d8565b601f0160209004906000526020600020908101906142d791906143c6565b5b50565b604051806060016040528060001515815260200160608152602001600060ff1681525090565b604051806060016040528060001515815260200160608152602001600060ff1681525090565b604051806060016040528060001515815260200160608152602001600060ff1681525090565b6040518060800160405280600015158152602001600060ff16815260200160008152602001606081525090565b604051806060016040528060001515815260200160608152602001600060ff1681525090565b604051806060016040528060001515815260200160608152602001600060ff1681525090565b5b808211156143df5760008160009055506001016143c7565b5090565b60006143f66143f1846153bc565b615397565b905082815260208101848484011115614412576144116157e6565b5b61441d848285615608565b509392505050565b60008135905061443481615b1f565b92915050565b60008135905061444981615b36565b92915050565b600082601f830112614464576144636157e1565b5b81356144748482602086016143e3565b91505092915050565b60008135905061448c81615b4d565b92915050565b6000813590506144a181615b64565b92915050565b6000813590506144b681615b7b565b92915050565b6000602082840312156144d2576144d16157f0565b5b60006144e084828501614425565b91505092915050565b600080600060608486031215614502576145016157f0565b5b600061451086828701614425565b935050602061452186828701614425565b925050604061453286828701614425565b9150509250925092565b60008060408385031215614553576145526157f0565b5b600061456185828601614425565b92505060206145728582860161443a565b9150509250929050565b60008060008060808587031215614596576145956157f0565b5b60006145a487828801614425565b945050602085013567ffffffffffffffff8111156145c5576145c46157eb565b5b6145d18782880161444f565b93505060406145e28782880161447d565b92505060606145f3878288016144a7565b91505092959194509250565b600080600060608486031215614618576146176157f0565b5b600061462686828701614425565b935050602084013567ffffffffffffffff811115614647576146466157eb565b5b6146538682870161444f565b9250506040614664868287016144a7565b9150509250925092565b600060208284031215614684576146836157f0565b5b60006146928482850161447d565b91505092915050565b6000602082840312156146b1576146b06157f0565b5b60006146bf84828501614492565b91505092915050565b60006146d48383614cff565b905092915050565b60006146e88383614d62565b905092915050565b60006146fc8383614db2565b905092915050565b60006147108383614e02565b905092915050565b60006147248383614e52565b905092915050565b60006147388383614ea2565b905092915050565b61474981615570565b82525050565b600061475a8261544d565b61476481856154e8565b935083602082028501614776856153ed565b8060005b858110156147b2578484038952815161479385826146c8565b945061479e8361549a565b925060208a0199505060018101905061477a565b50829750879550505050505092915050565b60006147cf82615458565b6147d981856154f9565b9350836020820285016147eb856153fd565b8060005b85811015614827578484038952815161480885826146dc565b9450614813836154a7565b925060208a019950506001810190506147ef565b50829750879550505050505092915050565b600061484482615463565b61484e818561550a565b9350836020820285016148608561540d565b8060005b8581101561489c578484038952815161487d85826146f0565b9450614888836154b4565b925060208a01995050600181019050614864565b50829750879550505050505092915050565b60006148b98261546e565b6148c3818561551b565b9350836020820285016148d58561541d565b8060005b8581101561491157848403895281516148f28582614704565b94506148fd836154c1565b925060208a019950506001810190506148d9565b50829750879550505050505092915050565b600061492e82615479565b614938818561552c565b93508360208202850161494a8561542d565b8060005b8581101561498657848403895281516149678582614718565b9450614972836154ce565b925060208a0199505060018101905061494e565b50829750879550505050505092915050565b60006149a382615484565b6149ad818561553d565b9350836020820285016149bf8561543d565b8060005b858110156149fb57848403895281516149dc858261472c565b94506149e7836154db565b925060208a019950506001810190506149c3565b50829750879550505050505092915050565b614a1681615582565b82525050565b614a2581615582565b82525050565b614a34816155f6565b82525050565b6000614a458261548f565b614a4f818561554e565b9350614a5f818560208601615617565b614a68816157f5565b840191505092915050565b6000614a7e8261548f565b614a88818561555f565b9350614a98818560208601615617565b614aa1816157f5565b840191505092915050565b6000614ab9601f8361555f565b9150614ac482615806565b602082019050919050565b6000614adc60198361555f565b9150614ae78261582f565b602082019050919050565b6000614aff60178361555f565b9150614b0a82615858565b602082019050919050565b6000614b2260118361555f565b9150614b2d82615881565b602082019050919050565b6000614b4560188361555f565b9150614b50826158aa565b602082019050919050565b6000614b6860128361555f565b9150614b73826158d3565b602082019050919050565b6000614b8b601e8361555f565b9150614b96826158fc565b602082019050919050565b6000614bae601e8361555f565b9150614bb982615925565b602082019050919050565b6000614bd160228361555f565b9150614bdc8261594e565b604082019050919050565b6000614bf460228361555f565b9150614bff8261599d565b604082019050919050565b6000614c1760178361555f565b9150614c22826159ec565b602082019050919050565b6000614c3a601e8361555f565b9150614c4582615a15565b602082019050919050565b6000614c5d60118361555f565b9150614c6882615a3e565b602082019050919050565b6000614c8060188361555f565b9150614c8b82615a67565b602082019050919050565b6000614ca360128361555f565b9150614cae82615a90565b602082019050919050565b6000614cc660198361555f565b9150614cd182615ab9565b602082019050919050565b6000614ce960208361555f565b9150614cf482615ae2565b602082019050919050565b6000608083016000830151614d176000860182614a0d565b506020830151614d2a6020860182614f2e565b506040830151614d3d6040860182614f01565b5060608301518482036060860152614d558282614a3a565b9150508091505092915050565b6000606083016000830151614d7a6000860182614a0d565b5060208301518482036020860152614d928282614a3a565b9150506040830151614da76040860182614f2e565b508091505092915050565b6000606083016000830151614dca6000860182614a0d565b5060208301518482036020860152614de28282614a3a565b9150506040830151614df76040860182614f2e565b508091505092915050565b6000606083016000830151614e1a6000860182614a0d565b5060208301518482036020860152614e328282614a3a565b9150506040830151614e476040860182614f2e565b508091505092915050565b6000606083016000830151614e6a6000860182614a0d565b5060208301518482036020860152614e828282614a3a565b9150506040830151614e976040860182614f2e565b508091505092915050565b6000606083016000830151614eba6000860182614a0d565b5060208301518482036020860152614ed28282614a3a565b9150506040830151614ee76040860182614f2e565b508091505092915050565b614efb816155a1565b82525050565b614f0a816155cf565b82525050565b614f19816155cf565b82525050565b614f28816155d9565b82525050565b614f37816155e9565b82525050565b614f46816155e9565b82525050565b6000602082019050614f616000830184614740565b92915050565b60006020820190508181036000830152614f81818461474f565b905092915050565b60006020820190508181036000830152614fa381846147c4565b905092915050565b60006020820190508181036000830152614fc58184614839565b905092915050565b60006020820190508181036000830152614fe781846148ae565b905092915050565b600060208201905081810360008301526150098184614923565b905092915050565b6000602082019050818103600083015261502b8184614998565b905092915050565b60006020820190506150486000830184614a1c565b92915050565b600060c0820190506150636000830189614a1c565b6150706020830188614740565b61507d6040830187614ef2565b61508a6060830186614a2b565b818103608083015261509c8185614a73565b905081810360a08301526150b08184614a73565b9050979650505050505050565b60006060820190506150d26000830186614a1c565b81810360208301526150e48185614a73565b90506150f36040830184614f3d565b949350505050565b60006080820190506151106000830187614a1c565b61511d6020830186614f3d565b61512a6040830185614f10565b818103606083015261513c8184614a73565b905095945050505050565b6000602082019050818103600083015261516081614aac565b9050919050565b6000602082019050818103600083015261518081614acf565b9050919050565b600060208201905081810360008301526151a081614af2565b9050919050565b600060208201905081810360008301526151c081614b15565b9050919050565b600060208201905081810360008301526151e081614b38565b9050919050565b6000602082019050818103600083015261520081614b5b565b9050919050565b6000602082019050818103600083015261522081614b7e565b9050919050565b6000602082019050818103600083015261524081614ba1565b9050919050565b6000602082019050818103600083015261526081614bc4565b9050919050565b6000602082019050818103600083015261528081614be7565b9050919050565b600060208201905081810360008301526152a081614c0a565b9050919050565b600060208201905081810360008301526152c081614c2d565b9050919050565b600060208201905081810360008301526152e081614c50565b9050919050565b6000602082019050818103600083015261530081614c73565b9050919050565b6000602082019050818103600083015261532081614c96565b9050919050565b6000602082019050818103600083015261534081614cb9565b9050919050565b6000602082019050818103600083015261536081614cdc565b9050919050565b600060408201905061537c6000830185614f1f565b818103602083015261538e8184614a73565b90509392505050565b60006153a16153b2565b90506153ad828261567c565b919050565b6000604051905090565b600067ffffffffffffffff8211156153d7576153d66157b2565b5b6153e0826157f5565b9050602081019050919050565b6000819050602082019050919050565b6000819050602082019050919050565b6000819050602082019050919050565b6000819050602082019050919050565b6000819050602082019050919050565b6000819050602082019050919050565b600081519050919050565b600081519050919050565b600081519050919050565b600081519050919050565b600081519050919050565b600081519050919050565b600081519050919050565b6000602082019050919050565b6000602082019050919050565b6000602082019050919050565b6000602082019050919050565b6000602082019050919050565b6000602082019050919050565b600082825260208201905092915050565b600082825260208201905092915050565b600082825260208201905092915050565b600082825260208201905092915050565b600082825260208201905092915050565b600082825260208201905092915050565b600082825260208201905092915050565b600082825260208201905092915050565b600061557b826155af565b9050919050565b60008115159050919050565b600081905061559c82615b0b565b919050565b600061ffff82169050919050565b600073ffffffffffffffffffffffffffffffffffffffff82169050919050565b6000819050919050565b600063ffffffff82169050919050565b600060ff82169050919050565b60006156018261558e565b9050919050565b82818337600083830152505050565b60005b8381101561563557808201518184015260208101905061561a565b83811115615644576000848401525b50505050565b6000600282049050600182168061566257607f821691505b6020821081141561567657615675615754565b5b50919050565b615685826157f5565b810181811067ffffffffffffffff821117156156a4576156a36157b2565b5b80604052505050565b60006156b8826155cf565b91507fffffffffffffffffffffffffffffffffffffffffffffffffffffffffffffffff8214156156eb576156ea6156f6565b5b600182019050919050565b7f4e487b7100000000000000000000000000000000000000000000000000000000600052601160045260246000fd5b7f4e487b7100000000000000000000000000000000000000000000000000000000600052602160045260246000fd5b7f4e487b7100000000000000000000000000000000000000000000000000000000600052602260045260246000fd5b7f4e487b7100000000000000000000000000000000000000000000000000000000600052603260045260246000fd5b7f4e487b7100000000000000000000000000000000000000000000000000000000600052604160045260246000fd5b600080fd5b600080fd5b600080fd5b600080fd5b6000601f19601f8301169050919050565b7f53616465636520594f4b2062752069736c656d69207961706162696c69722e00600082015250565b7f4b757273204d65726b657a69205a6174656e204d657663757400000000000000600082015250565b7f556e6976657273697465204d657663757420446567696c000000000000000000600082015250565b7f4b697369204d657663757420446567696c000000000000000000000000000000600082015250565b7f4b616d75204b7572756d75205a6174656e204d65766375740000000000000000600082015250565b7f4669726d61205a6174656e204d65766375740000000000000000000000000000600082015250565b7f5361646563652043422062752069736c656d69207961706162696c69722e0000600082015250565b7f536572746966696b61204d65726b657a69205a6174656e204d65766375740000600082015250565b7f536976696c20546f706c756d204b7572756c757375204d65766375742044656760008201527f696c000000000000000000000000000000000000000000000000000000000000602082015250565b7f536976696c20546f706c756d204b7572756c757375205a6174656e204d65766360008201527f7574000000000000000000000000000000000000000000000000000000000000602082015250565b7f556e6976657273697465205a6174656e204d6576637574000000000000000000600082015250565b7f536572746966696b61204d65726b657a69204d657663757420446567696c0000600082015250565b7f4b697369205a6174656e204d6576637574000000000000000000000000000000600082015250565b7f4b616d75204b7572756d75204d657663757420446567696c0000000000000000600082015250565b7f4669726d61204d657663757420446567696c0000000000000000000000000000600082015250565b7f4b757273204d65726b657a69204d657663757420446567696c00000000000000600082015250565b7f53616465636520544f42422062752069736c656d69207961706162696c69722e600082015250565b60048110615b1c57615b1b615725565b5b50565b615b2881615570565b8114615b3357600080fd5b50565b615b3f81615582565b8114615b4a57600080fd5b50565b615b56816155cf565b8114615b6157600080fd5b50565b615b6d816155d9565b8114615b7857600080fd5b50565b615b84816155e9565b8114615b8f57600080fd5b5056fea2646970667358221220d83d8f1c8dff701d0b30f16dbeeff48e17e6849afbd44b53abd88a8cf4da81e864736f6c63430008070033",
					"opcodes": "PUSH1 0x80 PUSH1 0x40 MSTORE CALLVALUE DUP1 ISZERO PUSH2 0x10 JUMPI PUSH1 0x0 DUP1 REVERT JUMPDEST POP PUSH2 0x5BC8 DUP1 PUSH3 0x21 PUSH1 0x0 CODECOPY PUSH1 0x0 RETURN INVALID PUSH1 0x80 PUSH1 0x40 MSTORE CALLVALUE DUP1 ISZERO PUSH2 0x10 JUMPI PUSH1 0x0 DUP1 REVERT JUMPDEST POP PUSH1 0x4 CALLDATASIZE LT PUSH2 0x35C JUMPI PUSH1 0x0 CALLDATALOAD PUSH1 0xE0 SHR DUP1 PUSH4 0xA29879C0 GT PUSH2 0x1D3 JUMPI DUP1 PUSH4 0xD5F6D56C GT PUSH2 0x104 JUMPI DUP1 PUSH4 0xE8ABB184 GT PUSH2 0xA2 JUMPI DUP1 PUSH4 0xF1981850 GT PUSH2 0x7C JUMPI DUP1 PUSH4 0xF1981850 EQ PUSH2 0xB1C JUMPI DUP1 PUSH4 0xF54ACC65 EQ PUSH2 0xB38 JUMPI DUP1 PUSH4 0xF63C649F EQ PUSH2 0xB54 JUMPI DUP1 PUSH4 0xFD738E6D EQ PUSH2 0xB70 JUMPI PUSH2 0x35C JUMP JUMPDEST DUP1 PUSH4 0xE8ABB184 EQ PUSH2 0xA8C JUMPI DUP1 PUSH4 0xF0040EB9 EQ PUSH2 0xABC JUMPI DUP1 PUSH4 0xF1403851 EQ PUSH2 0xAEC JUMPI PUSH2 0x35C JUMP JUMPDEST DUP1 PUSH4 0xD7909777 GT PUSH2 0xDE JUMPI DUP1 PUSH4 0xD7909777 EQ PUSH2 0x9E0 JUMPI DUP1 PUSH4 0xD88D8C12 EQ PUSH2 0xA10 JUMPI DUP1 PUSH4 0xE24047CA EQ PUSH2 0xA2C JUMPI DUP1 PUSH4 0xE5130508 EQ PUSH2 0xA5C JUMPI PUSH2 0x35C JUMP JUMPDEST DUP1 PUSH4 0xD5F6D56C EQ PUSH2 0x976 JUMPI DUP1 PUSH4 0xD71ED8B1 EQ PUSH2 0x992 JUMPI DUP1 PUSH4 0xD7396414 EQ PUSH2 0x9B0 JUMPI PUSH2 0x35C JUMP JUMPDEST DUP1 PUSH4 0xBA479B7E GT PUSH2 0x171 JUMPI DUP1 PUSH4 0xCBC92809 GT PUSH2 0x14B JUMPI DUP1 PUSH4 0xCBC92809 EQ PUSH2 0x8EE JUMPI DUP1 PUSH4 0xD0D6B7A3 EQ PUSH2 0x91E JUMPI DUP1 PUSH4 0xD25AAB85 EQ PUSH2 0x93C JUMPI DUP1 PUSH4 0xD508602D EQ PUSH2 0x958 JUMPI PUSH2 0x35C JUMP JUMPDEST DUP1 PUSH4 0xBA479B7E EQ PUSH2 0x881 JUMPI DUP1 PUSH4 0xBD35A506 EQ PUSH2 0x8B6 JUMPI DUP1 PUSH4 0xC6DA8CFE EQ PUSH2 0x8D2 JUMPI PUSH2 0x35C JUMP JUMPDEST DUP1 PUSH4 0xAFB61B1E GT PUSH2 0x1AD JUMPI DUP1 PUSH4 0xAFB61B1E EQ PUSH2 0x7E9 JUMPI DUP1 PUSH4 0xB07B0E5A EQ PUSH2 0x805 JUMPI DUP1 PUSH4 0xB2A825BB EQ PUSH2 0x835 JUMPI DUP1 PUSH4 0xB98CCEFD EQ PUSH2 0x851 JUMPI PUSH2 0x35C JUMP JUMPDEST DUP1 PUSH4 0xA29879C0 EQ PUSH2 0x77E JUMPI DUP1 PUSH4 0xA4E7AE05 EQ PUSH2 0x79C JUMPI DUP1 PUSH4 0xA81DC179 EQ PUSH2 0x7CD JUMPI PUSH2 0x35C JUMP JUMPDEST DUP1 PUSH4 0x36FD2633 GT PUSH2 0x2AD JUMPI DUP1 PUSH4 0x7D0FA287 GT PUSH2 0x24B JUMPI DUP1 PUSH4 0x91E9528A GT PUSH2 0x225 JUMPI DUP1 PUSH4 0x91E9528A EQ PUSH2 0x6F8 JUMPI DUP1 PUSH4 0x9A8C9119 EQ PUSH2 0x714 JUMPI DUP1 PUSH4 0x9BFC4DBD EQ PUSH2 0x746 JUMPI DUP1 PUSH4 0x9DC30114 EQ PUSH2 0x762 JUMPI PUSH2 0x35C JUMP JUMPDEST DUP1 PUSH4 0x7D0FA287 EQ PUSH2 0x678 JUMPI DUP1 PUSH4 0x871DB892 EQ PUSH2 0x6AA JUMPI DUP1 PUSH4 0x8C848885 EQ PUSH2 0x6C8 JUMPI PUSH2 0x35C JUMP JUMPDEST DUP1 PUSH4 0x50D2A060 GT PUSH2 0x287 JUMPI DUP1 PUSH4 0x50D2A060 EQ PUSH2 0x5F2 JUMPI DUP1 PUSH4 0x514E03C7 EQ PUSH2 0x60E JUMPI DUP1 PUSH4 0x548FA620 EQ PUSH2 0x63E JUMPI DUP1 PUSH4 0x71AF892D EQ PUSH2 0x65A JUMPI PUSH2 0x35C JUMP JUMPDEST DUP1 PUSH4 0x36FD2633 EQ PUSH2 0x587 JUMPI DUP1 PUSH4 0x39987F94 EQ PUSH2 0x5A3 JUMPI DUP1 PUSH4 0x46224853 EQ PUSH2 0x5D6 JUMPI PUSH2 0x35C JUMP JUMPDEST DUP1 PUSH4 0x19023BF3 GT PUSH2 0x31A JUMPI DUP1 PUSH4 0x1F145F47 GT PUSH2 0x2F4 JUMPI DUP1 PUSH4 0x1F145F47 EQ PUSH2 0x4C3 JUMPI DUP1 PUSH4 0x28266697 EQ PUSH2 0x4F3 JUMPI DUP1 PUSH4 0x2D087D70 EQ PUSH2 0x525 JUMPI DUP1 PUSH4 0x356B1F1E EQ PUSH2 0x555 JUMPI PUSH2 0x35C JUMP JUMPDEST DUP1 PUSH4 0x19023BF3 EQ PUSH2 0x459 JUMPI DUP1 PUSH4 0x1916E139 EQ PUSH2 0x475 JUMPI DUP1 PUSH4 0x1D595580 EQ PUSH2 0x4A7 JUMPI PUSH2 0x35C JUMP JUMPDEST DUP1 PUSH3 0x1D54AB EQ PUSH2 0x361 JUMPI DUP1 PUSH4 0x24EB6BC EQ PUSH2 0x37D JUMPI DUP1 PUSH4 0xA33E3EB EQ PUSH2 0x3AD JUMPI DUP1 PUSH4 0xB877CA7 EQ PUSH2 0x3DD JUMPI DUP1 PUSH4 0x139884EC EQ PUSH2 0x40D JUMPI DUP1 PUSH4 0x150596F4 EQ PUSH2 0x43D JUMPI JUMPDEST PUSH1 0x0 DUP1 REVERT JUMPDEST PUSH2 0x37B PUSH1 0x4 DUP1 CALLDATASIZE SUB DUP2 ADD SWAP1 PUSH2 0x376 SWAP2 SWAP1 PUSH2 0x45FF JUMP JUMPDEST PUSH2 0xB8E JUMP JUMPDEST STOP JUMPDEST PUSH2 0x397 PUSH1 0x4 DUP1 CALLDATASIZE SUB DUP2 ADD SWAP1 PUSH2 0x392 SWAP2 SWAP1 PUSH2 0x44BC JUMP JUMPDEST PUSH2 0xD4C JUMP JUMPDEST PUSH1 0x40 MLOAD PUSH2 0x3A4 SWAP2 SWAP1 PUSH2 0x5033 JUMP JUMPDEST PUSH1 0x40 MLOAD DUP1 SWAP2 SUB SWAP1 RETURN JUMPDEST PUSH2 0x3C7 PUSH1 0x4 DUP1 CALLDATASIZE SUB DUP2 ADD SWAP1 PUSH2 0x3C2 SWAP2 SWAP1 PUSH2 0x466E JUMP JUMPDEST PUSH2 0xDA5 JUMP JUMPDEST PUSH1 0x40 MLOAD PUSH2 0x3D4 SWAP2 SWAP1 PUSH2 0x4F4C JUMP JUMPDEST PUSH1 0x40 MLOAD DUP1 SWAP2 SUB SWAP1 RETURN JUMPDEST PUSH2 0x3F7 PUSH1 0x4 DUP1 CALLDATASIZE SUB DUP2 ADD SWAP1 PUSH2 0x3F2 SWAP2 SWAP1 PUSH2 0x466E JUMP JUMPDEST PUSH2 0xDE4 JUMP JUMPDEST PUSH1 0x40 MLOAD PUSH2 0x404 SWAP2 SWAP1 PUSH2 0x4F4C JUMP JUMPDEST PUSH1 0x40 MLOAD DUP1 SWAP2 SUB SWAP1 RETURN JUMPDEST PUSH2 0x427 PUSH1 0x4 DUP1 CALLDATASIZE SUB DUP2 ADD SWAP1 PUSH2 0x422 SWAP2 SWAP1 PUSH2 0x44BC JUMP JUMPDEST PUSH2 0xE23 JUMP JUMPDEST PUSH1 0x40 MLOAD PUSH2 0x434 SWAP2 SWAP1 PUSH2 0x5033 JUMP JUMPDEST PUSH1 0x40 MLOAD DUP1 SWAP2 SUB SWAP1 RETURN JUMPDEST PUSH2 0x457 PUSH1 0x4 DUP1 CALLDATASIZE SUB DUP2 ADD SWAP1 PUSH2 0x452 SWAP2 SWAP1 PUSH2 0x45FF JUMP JUMPDEST PUSH2 0xE7D JUMP JUMPDEST STOP JUMPDEST PUSH2 0x473 PUSH1 0x4 DUP1 CALLDATASIZE SUB DUP2 ADD SWAP1 PUSH2 0x46E SWAP2 SWAP1 PUSH2 0x45FF JUMP JUMPDEST PUSH2 0xFD7 JUMP JUMPDEST STOP JUMPDEST PUSH2 0x48F PUSH1 0x4 DUP1 CALLDATASIZE SUB DUP2 ADD SWAP1 PUSH2 0x48A SWAP2 SWAP1 PUSH2 0x44BC JUMP JUMPDEST PUSH2 0x1195 JUMP JUMPDEST PUSH1 0x40 MLOAD PUSH2 0x49E SWAP4 SWAP3 SWAP2 SWAP1 PUSH2 0x50BD JUMP JUMPDEST PUSH1 0x40 MLOAD DUP1 SWAP2 SUB SWAP1 RETURN JUMPDEST PUSH2 0x4C1 PUSH1 0x4 DUP1 CALLDATASIZE SUB DUP2 ADD SWAP1 PUSH2 0x4BC SWAP2 SWAP1 PUSH2 0x44BC JUMP JUMPDEST PUSH2 0x1261 JUMP JUMPDEST STOP JUMPDEST PUSH2 0x4DD PUSH1 0x4 DUP1 CALLDATASIZE SUB DUP2 ADD SWAP1 PUSH2 0x4D8 SWAP2 SWAP1 PUSH2 0x466E JUMP JUMPDEST PUSH2 0x132E JUMP JUMPDEST PUSH1 0x40 MLOAD PUSH2 0x4EA SWAP2 SWAP1 PUSH2 0x4F4C JUMP JUMPDEST PUSH1 0x40 MLOAD DUP1 SWAP2 SUB SWAP1 RETURN JUMPDEST PUSH2 0x50D PUSH1 0x4 DUP1 CALLDATASIZE SUB DUP2 ADD SWAP1 PUSH2 0x508 SWAP2 SWAP1 PUSH2 0x44BC JUMP JUMPDEST PUSH2 0x136D JUMP JUMPDEST PUSH1 0x40 MLOAD PUSH2 0x51C SWAP4 SWAP3 SWAP2 SWAP1 PUSH2 0x50BD JUMP JUMPDEST PUSH1 0x40 MLOAD DUP1 SWAP2 SUB SWAP1 RETURN JUMPDEST PUSH2 0x53F PUSH1 0x4 DUP1 CALLDATASIZE SUB DUP2 ADD SWAP1 PUSH2 0x53A SWAP2 SWAP1 PUSH2 0x44BC JUMP JUMPDEST PUSH2 0x1439 JUMP JUMPDEST PUSH1 0x40 MLOAD PUSH2 0x54C SWAP2 SWAP1 PUSH2 0x5033 JUMP JUMPDEST PUSH1 0x40 MLOAD DUP1 SWAP2 SUB SWAP1 RETURN JUMPDEST PUSH2 0x56F PUSH1 0x4 DUP1 CALLDATASIZE SUB DUP2 ADD SWAP1 PUSH2 0x56A SWAP2 SWAP1 PUSH2 0x44BC JUMP JUMPDEST PUSH2 0x1492 JUMP JUMPDEST PUSH1 0x40 MLOAD PUSH2 0x57E SWAP4 SWAP3 SWAP2 SWAP1 PUSH2 0x50BD JUMP JUMPDEST PUSH1 0x40 MLOAD DUP1 SWAP2 SUB SWAP1 RETURN JUMPDEST PUSH2 0x5A1 PUSH1 0x4 DUP1 CALLDATASIZE SUB DUP2 ADD SWAP1 PUSH2 0x59C SWAP2 SWAP1 PUSH2 0x44E9 JUMP JUMPDEST PUSH2 0x155E JUMP JUMPDEST STOP JUMPDEST PUSH2 0x5BD PUSH1 0x4 DUP1 CALLDATASIZE SUB DUP2 ADD SWAP1 PUSH2 0x5B8 SWAP2 SWAP1 PUSH2 0x44BC JUMP JUMPDEST PUSH2 0x1625 JUMP JUMPDEST PUSH1 0x40 MLOAD PUSH2 0x5CD SWAP5 SWAP4 SWAP3 SWAP2 SWAP1 PUSH2 0x50FB JUMP JUMPDEST PUSH1 0x40 MLOAD DUP1 SWAP2 SUB SWAP1 RETURN JUMPDEST PUSH2 0x5F0 PUSH1 0x4 DUP1 CALLDATASIZE SUB DUP2 ADD SWAP1 PUSH2 0x5EB SWAP2 SWAP1 PUSH2 0x45FF JUMP JUMPDEST PUSH2 0x16F7 JUMP JUMPDEST STOP JUMPDEST PUSH2 0x60C PUSH1 0x4 DUP1 CALLDATASIZE SUB DUP2 ADD SWAP1 PUSH2 0x607 SWAP2 SWAP1 PUSH2 0x44BC JUMP JUMPDEST PUSH2 0x18B5 JUMP JUMPDEST STOP JUMPDEST PUSH2 0x628 PUSH1 0x4 DUP1 CALLDATASIZE SUB DUP2 ADD SWAP1 PUSH2 0x623 SWAP2 SWAP1 PUSH2 0x44BC JUMP JUMPDEST PUSH2 0x197A JUMP JUMPDEST PUSH1 0x40 MLOAD PUSH2 0x635 SWAP2 SWAP1 PUSH2 0x5033 JUMP JUMPDEST PUSH1 0x40 MLOAD DUP1 SWAP2 SUB SWAP1 RETURN JUMPDEST PUSH2 0x658 PUSH1 0x4 DUP1 CALLDATASIZE SUB DUP2 ADD SWAP1 PUSH2 0x653 SWAP2 SWAP1 PUSH2 0x44BC JUMP JUMPDEST PUSH2 0x19D3 JUMP JUMPDEST STOP JUMPDEST PUSH2 0x662 PUSH2 0x1A98 JUMP JUMPDEST PUSH1 0x40 MLOAD PUSH2 0x66F SWAP2 SWAP1 PUSH2 0x4F4C JUMP JUMPDEST PUSH1 0x40 MLOAD DUP1 SWAP2 SUB SWAP1 RETURN JUMPDEST PUSH2 0x692 PUSH1 0x4 DUP1 CALLDATASIZE SUB DUP2 ADD SWAP1 PUSH2 0x68D SWAP2 SWAP1 PUSH2 0x44BC JUMP JUMPDEST PUSH2 0x1ABC JUMP JUMPDEST PUSH1 0x40 MLOAD PUSH2 0x6A1 SWAP4 SWAP3 SWAP2 SWAP1 PUSH2 0x50BD JUMP JUMPDEST PUSH1 0x40 MLOAD DUP1 SWAP2 SUB SWAP1 RETURN JUMPDEST PUSH2 0x6B2 PUSH2 0x1B88 JUMP JUMPDEST PUSH1 0x40 MLOAD PUSH2 0x6BF SWAP2 SWAP1 PUSH2 0x5011 JUMP JUMPDEST PUSH1 0x40 MLOAD DUP1 SWAP2 SUB SWAP1 RETURN JUMPDEST PUSH2 0x6E2 PUSH1 0x4 DUP1 CALLDATASIZE SUB DUP2 ADD SWAP1 PUSH2 0x6DD SWAP2 SWAP1 PUSH2 0x44BC JUMP JUMPDEST PUSH2 0x1E1E JUMP JUMPDEST PUSH1 0x40 MLOAD PUSH2 0x6EF SWAP2 SWAP1 PUSH2 0x5033 JUMP JUMPDEST PUSH1 0x40 MLOAD DUP1 SWAP2 SUB SWAP1 RETURN JUMPDEST PUSH2 0x712 PUSH1 0x4 DUP1 CALLDATASIZE SUB DUP2 ADD SWAP1 PUSH2 0x70D SWAP2 SWAP1 PUSH2 0x45FF JUMP JUMPDEST PUSH2 0x1E77 JUMP JUMPDEST STOP JUMPDEST PUSH2 0x72E PUSH1 0x4 DUP1 CALLDATASIZE SUB DUP2 ADD SWAP1 PUSH2 0x729 SWAP2 SWAP1 PUSH2 0x44BC JUMP JUMPDEST PUSH2 0x1FD1 JUMP JUMPDEST PUSH1 0x40 MLOAD PUSH2 0x73D SWAP4 SWAP3 SWAP2 SWAP1 PUSH2 0x50BD JUMP JUMPDEST PUSH1 0x40 MLOAD DUP1 SWAP2 SUB SWAP1 RETURN JUMPDEST PUSH2 0x760 PUSH1 0x4 DUP1 CALLDATASIZE SUB DUP2 ADD SWAP1 PUSH2 0x75B SWAP2 SWAP1 PUSH2 0x44BC JUMP JUMPDEST PUSH2 0x209D JUMP JUMPDEST STOP JUMPDEST PUSH2 0x77C PUSH1 0x4 DUP1 CALLDATASIZE SUB DUP2 ADD SWAP1 PUSH2 0x777 SWAP2 SWAP1 PUSH2 0x45FF JUMP JUMPDEST PUSH2 0x2162 JUMP JUMPDEST STOP JUMPDEST PUSH2 0x786 PUSH2 0x2320 JUMP JUMPDEST PUSH1 0x40 MLOAD PUSH2 0x793 SWAP2 SWAP1 PUSH2 0x4FCD JUMP JUMPDEST PUSH1 0x40 MLOAD DUP1 SWAP2 SUB SWAP1 RETURN JUMPDEST PUSH2 0x7B6 PUSH1 0x4 DUP1 CALLDATASIZE SUB DUP2 ADD SWAP1 PUSH2 0x7B1 SWAP2 SWAP1 PUSH2 0x469B JUMP JUMPDEST PUSH2 0x25B8 JUMP JUMPDEST PUSH1 0x40 MLOAD PUSH2 0x7C4 SWAP3 SWAP2 SWAP1 PUSH2 0x5367 JUMP JUMPDEST PUSH1 0x40 MLOAD DUP1 SWAP2 SUB SWAP1 RETURN JUMPDEST PUSH2 0x7E7 PUSH1 0x4 DUP1 CALLDATASIZE SUB DUP2 ADD SWAP1 PUSH2 0x7E2 SWAP2 SWAP1 PUSH2 0x457C JUMP JUMPDEST PUSH2 0x2674 JUMP JUMPDEST STOP JUMPDEST PUSH2 0x803 PUSH1 0x4 DUP1 CALLDATASIZE SUB DUP2 ADD SWAP1 PUSH2 0x7FE SWAP2 SWAP1 PUSH2 0x44BC JUMP JUMPDEST PUSH2 0x2816 JUMP JUMPDEST STOP JUMPDEST PUSH2 0x81F PUSH1 0x4 DUP1 CALLDATASIZE SUB DUP2 ADD SWAP1 PUSH2 0x81A SWAP2 SWAP1 PUSH2 0x466E JUMP JUMPDEST PUSH2 0x28DB JUMP JUMPDEST PUSH1 0x40 MLOAD PUSH2 0x82C SWAP2 SWAP1 PUSH2 0x4F4C JUMP JUMPDEST PUSH1 0x40 MLOAD DUP1 SWAP2 SUB SWAP1 RETURN JUMPDEST PUSH2 0x84F PUSH1 0x4 DUP1 CALLDATASIZE SUB DUP2 ADD SWAP1 PUSH2 0x84A SWAP2 SWAP1 PUSH2 0x45FF JUMP JUMPDEST PUSH2 0x291A JUMP JUMPDEST STOP JUMPDEST PUSH2 0x86B PUSH1 0x4 DUP1 CALLDATASIZE SUB DUP2 ADD SWAP1 PUSH2 0x866 SWAP2 SWAP1 PUSH2 0x44BC JUMP JUMPDEST PUSH2 0x2A74 JUMP JUMPDEST PUSH1 0x40 MLOAD PUSH2 0x878 SWAP2 SWAP1 PUSH2 0x5033 JUMP JUMPDEST PUSH1 0x40 MLOAD DUP1 SWAP2 SUB SWAP1 RETURN JUMPDEST PUSH2 0x89B PUSH1 0x4 DUP1 CALLDATASIZE SUB DUP2 ADD SWAP1 PUSH2 0x896 SWAP2 SWAP1 PUSH2 0x44BC JUMP JUMPDEST PUSH2 0x2ACD JUMP JUMPDEST PUSH1 0x40 MLOAD PUSH2 0x8AD SWAP7 SWAP6 SWAP5 SWAP4 SWAP3 SWAP2 SWAP1 PUSH2 0x504E JUMP JUMPDEST PUSH1 0x40 MLOAD DUP1 SWAP2 SUB SWAP1 RETURN JUMPDEST PUSH2 0x8D0 PUSH1 0x4 DUP1 CALLDATASIZE SUB DUP2 ADD SWAP1 PUSH2 0x8CB SWAP2 SWAP1 PUSH2 0x44BC JUMP JUMPDEST PUSH2 0x2C61 JUMP JUMPDEST STOP JUMPDEST PUSH2 0x8EC PUSH1 0x4 DUP1 CALLDATASIZE SUB DUP2 ADD SWAP1 PUSH2 0x8E7 SWAP2 SWAP1 PUSH2 0x45FF JUMP JUMPDEST PUSH2 0x2D02 JUMP JUMPDEST STOP JUMPDEST PUSH2 0x908 PUSH1 0x4 DUP1 CALLDATASIZE SUB DUP2 ADD SWAP1 PUSH2 0x903 SWAP2 SWAP1 PUSH2 0x44BC JUMP JUMPDEST PUSH2 0x2E5C JUMP JUMPDEST PUSH1 0x40 MLOAD PUSH2 0x915 SWAP2 SWAP1 PUSH2 0x5033 JUMP JUMPDEST PUSH1 0x40 MLOAD DUP1 SWAP2 SUB SWAP1 RETURN JUMPDEST PUSH2 0x926 PUSH2 0x2E87 JUMP JUMPDEST PUSH1 0x40 MLOAD PUSH2 0x933 SWAP2 SWAP1 PUSH2 0x4FAB JUMP JUMPDEST PUSH1 0x40 MLOAD DUP1 SWAP2 SUB SWAP1 RETURN JUMPDEST PUSH2 0x956 PUSH1 0x4 DUP1 CALLDATASIZE SUB DUP2 ADD SWAP1 PUSH2 0x951 SWAP2 SWAP1 PUSH2 0x457C JUMP JUMPDEST PUSH2 0x308F JUMP JUMPDEST STOP JUMPDEST PUSH2 0x960 PUSH2 0x3295 JUMP JUMPDEST PUSH1 0x40 MLOAD PUSH2 0x96D SWAP2 SWAP1 PUSH2 0x4F67 JUMP JUMPDEST PUSH1 0x40 MLOAD DUP1 SWAP2 SUB SWAP1 RETURN JUMPDEST PUSH2 0x990 PUSH1 0x4 DUP1 CALLDATASIZE SUB DUP2 ADD SWAP1 PUSH2 0x98B SWAP2 SWAP1 PUSH2 0x45FF JUMP JUMPDEST PUSH2 0x3537 JUMP JUMPDEST STOP JUMPDEST PUSH2 0x99A PUSH2 0x3691 JUMP JUMPDEST PUSH1 0x40 MLOAD PUSH2 0x9A7 SWAP2 SWAP1 PUSH2 0x4F89 JUMP JUMPDEST PUSH1 0x40 MLOAD DUP1 SWAP2 SUB SWAP1 RETURN JUMPDEST PUSH2 0x9CA PUSH1 0x4 DUP1 CALLDATASIZE SUB DUP2 ADD SWAP1 PUSH2 0x9C5 SWAP2 SWAP1 PUSH2 0x44BC JUMP JUMPDEST PUSH2 0x3929 JUMP JUMPDEST PUSH1 0x40 MLOAD PUSH2 0x9D7 SWAP2 SWAP1 PUSH2 0x5033 JUMP JUMPDEST PUSH1 0x40 MLOAD DUP1 SWAP2 SUB SWAP1 RETURN JUMPDEST PUSH2 0x9FA PUSH1 0x4 DUP1 CALLDATASIZE SUB DUP2 ADD SWAP1 PUSH2 0x9F5 SWAP2 SWAP1 PUSH2 0x466E JUMP JUMPDEST PUSH2 0x3981 JUMP JUMPDEST PUSH1 0x40 MLOAD PUSH2 0xA07 SWAP2 SWAP1 PUSH2 0x4F4C JUMP JUMPDEST PUSH1 0x40 MLOAD DUP1 SWAP2 SUB SWAP1 RETURN JUMPDEST PUSH2 0xA2A PUSH1 0x4 DUP1 CALLDATASIZE SUB DUP2 ADD SWAP1 PUSH2 0xA25 SWAP2 SWAP1 PUSH2 0x44BC JUMP JUMPDEST PUSH2 0x39C0 JUMP JUMPDEST STOP JUMPDEST PUSH2 0xA46 PUSH1 0x4 DUP1 CALLDATASIZE SUB DUP2 ADD SWAP1 PUSH2 0xA41 SWAP2 SWAP1 PUSH2 0x44BC JUMP JUMPDEST PUSH2 0x3A85 JUMP JUMPDEST PUSH1 0x40 MLOAD PUSH2 0xA53 SWAP2 SWAP1 PUSH2 0x5033 JUMP JUMPDEST PUSH1 0x40 MLOAD DUP1 SWAP2 SUB SWAP1 RETURN JUMPDEST PUSH2 0xA76 PUSH1 0x4 DUP1 CALLDATASIZE SUB DUP2 ADD SWAP1 PUSH2 0xA71 SWAP2 SWAP1 PUSH2 0x44BC JUMP JUMPDEST PUSH2 0x3ADE JUMP JUMPDEST PUSH1 0x40 MLOAD PUSH2 0xA83 SWAP2 SWAP1 PUSH2 0x5033 JUMP JUMPDEST PUSH1 0x40 MLOAD DUP1 SWAP2 SUB SWAP1 RETURN JUMPDEST PUSH2 0xAA6 PUSH1 0x4 DUP1 CALLDATASIZE SUB DUP2 ADD SWAP1 PUSH2 0xAA1 SWAP2 SWAP1 PUSH2 0x466E JUMP JUMPDEST PUSH2 0x3B38 JUMP JUMPDEST PUSH1 0x40 MLOAD PUSH2 0xAB3 SWAP2 SWAP1 PUSH2 0x4F4C JUMP JUMPDEST PUSH1 0x40 MLOAD DUP1 SWAP2 SUB SWAP1 RETURN JUMPDEST PUSH2 0xAD6 PUSH1 0x4 DUP1 CALLDATASIZE SUB DUP2 ADD SWAP1 PUSH2 0xAD1 SWAP2 SWAP1 PUSH2 0x44BC JUMP JUMPDEST PUSH2 0x3B77 JUMP JUMPDEST PUSH1 0x40 MLOAD PUSH2 0xAE3 SWAP2 SWAP1 PUSH2 0x5033 JUMP JUMPDEST PUSH1 0x40 MLOAD DUP1 SWAP2 SUB SWAP1 RETURN JUMPDEST PUSH2 0xB06 PUSH1 0x4 DUP1 CALLDATASIZE SUB DUP2 ADD SWAP1 PUSH2 0xB01 SWAP2 SWAP1 PUSH2 0x466E JUMP JUMPDEST PUSH2 0x3BD0 JUMP JUMPDEST PUSH1 0x40 MLOAD PUSH2 0xB13 SWAP2 SWAP1 PUSH2 0x4F4C JUMP JUMPDEST PUSH1 0x40 MLOAD DUP1 SWAP2 SUB SWAP1 RETURN JUMPDEST PUSH2 0xB36 PUSH1 0x4 DUP1 CALLDATASIZE SUB DUP2 ADD SWAP1 PUSH2 0xB31 SWAP2 SWAP1 PUSH2 0x453C JUMP JUMPDEST PUSH2 0x3C0F JUMP JUMPDEST STOP JUMPDEST PUSH2 0xB52 PUSH1 0x4 DUP1 CALLDATASIZE SUB DUP2 ADD SWAP1 PUSH2 0xB4D SWAP2 SWAP1 PUSH2 0x44BC JUMP JUMPDEST PUSH2 0x3CB5 JUMP JUMPDEST STOP JUMPDEST PUSH2 0xB6E PUSH1 0x4 DUP1 CALLDATASIZE SUB DUP2 ADD SWAP1 PUSH2 0xB69 SWAP2 SWAP1 PUSH2 0x45FF JUMP JUMPDEST PUSH2 0x3DBF JUMP JUMPDEST STOP JUMPDEST PUSH2 0xB78 PUSH2 0x3F7D JUMP JUMPDEST PUSH1 0x40 MLOAD PUSH2 0xB85 SWAP2 SWAP1 PUSH2 0x4FEF JUMP JUMPDEST PUSH1 0x40 MLOAD DUP1 SWAP2 SUB SWAP1 RETURN JUMPDEST PUSH2 0xB97 DUP4 PUSH2 0x3B77 JUMP JUMPDEST ISZERO PUSH2 0xBD7 JUMPI PUSH1 0x40 MLOAD PUSH32 0x8C379A000000000000000000000000000000000000000000000000000000000 DUP2 MSTORE PUSH1 0x4 ADD PUSH2 0xBCE SWAP1 PUSH2 0x5287 JUMP JUMPDEST PUSH1 0x40 MLOAD DUP1 SWAP2 SUB SWAP1 REVERT JUMPDEST PUSH1 0x1 PUSH1 0x4 PUSH1 0x0 DUP6 PUSH20 0xFFFFFFFFFFFFFFFFFFFFFFFFFFFFFFFFFFFFFFFF AND PUSH20 0xFFFFFFFFFFFFFFFFFFFFFFFFFFFFFFFFFFFFFFFF AND DUP2 MSTORE PUSH1 0x20 ADD SWAP1 DUP2 MSTORE PUSH1 0x20 ADD PUSH1 0x0 KECCAK256 PUSH1 0x0 ADD PUSH1 0x0 PUSH2 0x100 EXP DUP2 SLOAD DUP2 PUSH1 0xFF MUL NOT AND SWAP1 DUP4 ISZERO ISZERO MUL OR SWAP1 SSTORE POP DUP2 PUSH1 0x4 PUSH1 0x0 DUP6 PUSH20 0xFFFFFFFFFFFFFFFFFFFFFFFFFFFFFFFFFFFFFFFF AND PUSH20 0xFFFFFFFFFFFFFFFFFFFFFFFFFFFFFFFFFFFFFFFF AND DUP2 MSTORE PUSH1 0x20 ADD SWAP1 DUP2 MSTORE PUSH1 0x20 ADD PUSH1 0x0 KECCAK256 PUSH1 0x1 ADD SWAP1 DUP1 MLOAD SWAP1 PUSH1 0x20 ADD SWAP1 PUSH2 0xC88 SWAP3 SWAP2 SWAP1 PUSH2 0x4215 JUMP JUMPDEST POP DUP1 PUSH1 0x4 PUSH1 0x0 DUP6 PUSH20 0xFFFFFFFFFFFFFFFFFFFFFFFFFFFFFFFFFFFFFFFF AND PUSH20 0xFFFFFFFFFFFFFFFFFFFFFFFFFFFFFFFFFFFFFFFF AND DUP2 MSTORE PUSH1 0x20 ADD SWAP1 DUP2 MSTORE PUSH1 0x20 ADD PUSH1 0x0 KECCAK256 PUSH1 0x2 ADD PUSH1 0x0 PUSH2 0x100 EXP DUP2 SLOAD DUP2 PUSH1 0xFF MUL NOT AND SWAP1 DUP4 PUSH1 0xFF AND MUL OR SWAP1 SSTORE POP PUSH1 0xD DUP4 SWAP1 DUP1 PUSH1 0x1 DUP2 SLOAD ADD DUP1 DUP3 SSTORE DUP1 SWAP2 POP POP PUSH1 0x1 SWAP1 SUB SWAP1 PUSH1 0x0 MSTORE PUSH1 0x20 PUSH1 0x0 KECCAK256 ADD PUSH1 0x0 SWAP1 SWAP2 SWAP1 SWAP2 SWAP1 SWAP2 PUSH2 0x100 EXP DUP2 SLOAD DUP2 PUSH20 0xFFFFFFFFFFFFFFFFFFFFFFFFFFFFFFFFFFFFFFFF MUL NOT AND SWAP1 DUP4 PUSH20 0xFFFFFFFFFFFFFFFFFFFFFFFFFFFFFFFFFFFFFFFF AND MUL OR SWAP1 SSTORE POP POP POP POP JUMP JUMPDEST PUSH1 0x0 PUSH1 0x7 PUSH1 0x0 DUP4 PUSH20 0xFFFFFFFFFFFFFFFFFFFFFFFFFFFFFFFFFFFFFFFF AND PUSH20 0xFFFFFFFFFFFFFFFFFFFFFFFFFFFFFFFFFFFFFFFF AND DUP2 MSTORE PUSH1 0x20 ADD SWAP1 DUP2 MSTORE PUSH1 0x20 ADD PUSH1 0x0 KECCAK256 PUSH1 0x0 ADD PUSH1 0x0 SWAP1 SLOAD SWAP1 PUSH2 0x100 EXP SWAP1 DIV PUSH1 0xFF AND SWAP1 POP SWAP2 SWAP1 POP JUMP JUMPDEST PUSH1 0x10 DUP2 DUP2 SLOAD DUP2 LT PUSH2 0xDB5 JUMPI PUSH1 0x0 DUP1 REVERT JUMPDEST SWAP1 PUSH1 0x0 MSTORE PUSH1 0x20 PUSH1 0x0 KECCAK256 ADD PUSH1 0x0 SWAP2 POP SLOAD SWAP1 PUSH2 0x100 EXP SWAP1 DIV PUSH20 0xFFFFFFFFFFFFFFFFFFFFFFFFFFFFFFFFFFFFFFFF AND DUP2 JUMP JUMPDEST PUSH1 0x12 DUP2 DUP2 SLOAD DUP2 LT PUSH2 0xDF4 JUMPI PUSH1 0x0 DUP1 REVERT JUMPDEST SWAP1 PUSH1 0x0 MSTORE PUSH1 0x20 PUSH1 0x0 KECCAK256 ADD PUSH1 0x0 SWAP2 POP SLOAD SWAP1 PUSH2 0x100 EXP SWAP1 DIV PUSH20 0xFFFFFFFFFFFFFFFFFFFFFFFFFFFFFFFFFFFFFFFF AND DUP2 JUMP JUMPDEST PUSH1 0x0 DUP2 PUSH20 0xFFFFFFFFFFFFFFFFFFFFFFFFFFFFFFFFFFFFFFFF AND PUSH1 0x1 PUSH1 0x0 SWAP1 SLOAD SWAP1 PUSH2 0x100 EXP SWAP1 DIV PUSH20 0xFFFFFFFFFFFFFFFFFFFFFFFFFFFFFFFFFFFFFFFF AND PUSH20 0xFFFFFFFFFFFFFFFFFFFFFFFFFFFFFFFFFFFFFFFF AND EQ SWAP1 POP SWAP2 SWAP1 POP JUMP JUMPDEST PUSH2 0xE86 DUP4 PUSH2 0x197A JUMP JUMPDEST PUSH2 0xEC5 JUMPI PUSH1 0x40 MLOAD PUSH32 0x8C379A000000000000000000000000000000000000000000000000000000000 DUP2 MSTORE PUSH1 0x4 ADD PUSH2 0xEBC SWAP1 PUSH2 0x52E7 JUMP JUMPDEST PUSH1 0x40 MLOAD DUP1 SWAP2 SUB SWAP1 REVERT JUMPDEST PUSH1 0x1 PUSH1 0x8 PUSH1 0x0 DUP6 PUSH20 0xFFFFFFFFFFFFFFFFFFFFFFFFFFFFFFFFFFFFFFFF AND PUSH20 0xFFFFFFFFFFFFFFFFFFFFFFFFFFFFFFFFFFFFFFFF AND DUP2 MSTORE PUSH1 0x20 ADD SWAP1 DUP2 MSTORE PUSH1 0x20 ADD PUSH1 0x0 KECCAK256 PUSH1 0x0 ADD PUSH1 0x0 PUSH2 0x100 EXP DUP2 SLOAD DUP2 PUSH1 0xFF MUL NOT AND SWAP1 DUP4 ISZERO ISZERO MUL OR SWAP1 SSTORE POP DUP2 PUSH1 0x8 PUSH1 0x0 DUP6 PUSH20 0xFFFFFFFFFFFFFFFFFFFFFFFFFFFFFFFFFFFFFFFF AND PUSH20 0xFFFFFFFFFFFFFFFFFFFFFFFFFFFFFFFFFFFFFFFF AND DUP2 MSTORE PUSH1 0x20 ADD SWAP1 DUP2 MSTORE PUSH1 0x20 ADD PUSH1 0x0 KECCAK256 PUSH1 0x1 ADD SWAP1 DUP1 MLOAD SWAP1 PUSH1 0x20 ADD SWAP1 PUSH2 0xF76 SWAP3 SWAP2 SWAP1 PUSH2 0x4215 JUMP JUMPDEST POP DUP1 PUSH1 0x8 PUSH1 0x0 DUP6 PUSH20 0xFFFFFFFFFFFFFFFFFFFFFFFFFFFFFFFFFFFFFFFF AND PUSH20 0xFFFFFFFFFFFFFFFFFFFFFFFFFFFFFFFFFFFFFFFF AND DUP2 MSTORE PUSH1 0x20 ADD SWAP1 DUP2 MSTORE PUSH1 0x20 ADD PUSH1 0x0 KECCAK256 PUSH1 0x2 ADD PUSH1 0x0 PUSH2 0x100 EXP DUP2 SLOAD DUP2 PUSH1 0xFF MUL NOT AND SWAP1 DUP4 PUSH1 0xFF AND MUL OR SWAP1 SSTORE POP POP POP POP JUMP JUMPDEST PUSH2 0xFE0 DUP4 PUSH2 0x1E1E JUMP JUMPDEST ISZERO PUSH2 0x1020 JUMPI PUSH1 0x40 MLOAD PUSH32 0x8C379A000000000000000000000000000000000000000000000000000000000 DUP2 MSTORE PUSH1 0x4 ADD PUSH2 0x1017 SWAP1 PUSH2 0x5267 JUMP JUMPDEST PUSH1 0x40 MLOAD DUP1 SWAP2 SUB SWAP1 REVERT JUMPDEST PUSH1 0x1 PUSH1 0x9 PUSH1 0x0 DUP6 PUSH20 0xFFFFFFFFFFFFFFFFFFFFFFFFFFFFFFFFFFFFFFFF AND PUSH20 0xFFFFFFFFFFFFFFFFFFFFFFFFFFFFFFFFFFFFFFFF AND DUP2 MSTORE PUSH1 0x20 ADD SWAP1 DUP2 MSTORE PUSH1 0x20 ADD PUSH1 0x0 KECCAK256 PUSH1 0x0 ADD PUSH1 0x0 PUSH2 0x100 EXP DUP2 SLOAD DUP2 PUSH1 0xFF MUL NOT AND SWAP1 DUP4 ISZERO ISZERO MUL OR SWAP1 SSTORE POP DUP2 PUSH1 0x9 PUSH1 0x0 DUP6 PUSH20 0xFFFFFFFFFFFFFFFFFFFFFFFFFFFFFFFFFFFFFFFF AND PUSH20 0xFFFFFFFFFFFFFFFFFFFFFFFFFFFFFFFFFFFFFFFF AND DUP2 MSTORE PUSH1 0x20 ADD SWAP1 DUP2 MSTORE PUSH1 0x20 ADD PUSH1 0x0 KECCAK256 PUSH1 0x1 ADD SWAP1 DUP1 MLOAD SWAP1 PUSH1 0x20 ADD SWAP1 PUSH2 0x10D1 SWAP3 SWAP2 SWAP1 PUSH2 0x4215 JUMP JUMPDEST POP DUP1 PUSH1 0x9 PUSH1 0x0 DUP6 PUSH20 0xFFFFFFFFFFFFFFFFFFFFFFFFFFFFFFFFFFFFFFFF AND PUSH20 0xFFFFFFFFFFFFFFFFFFFFFFFFFFFFFFFFFFFFFFFF AND DUP2 MSTORE PUSH1 0x20 ADD SWAP1 DUP2 MSTORE PUSH1 0x20 ADD PUSH1 0x0 KECCAK256 PUSH1 0x2 ADD PUSH1 0x0 PUSH2 0x100 EXP DUP2 SLOAD DUP2 PUSH1 0xFF MUL NOT AND SWAP1 DUP4 PUSH1 0xFF AND MUL OR SWAP1 SSTORE POP PUSH1 0x11 DUP4 SWAP1 DUP1 PUSH1 0x1 DUP2 SLOAD ADD DUP1 DUP3 SSTORE DUP1 SWAP2 POP POP PUSH1 0x1 SWAP1 SUB SWAP1 PUSH1 0x0 MSTORE PUSH1 0x20 PUSH1 0x0 KECCAK256 ADD PUSH1 0x0 SWAP1 SWAP2 SWAP1 SWAP2 SWAP1 SWAP2 PUSH2 0x100 EXP DUP2 SLOAD DUP2 PUSH20 0xFFFFFFFFFFFFFFFFFFFFFFFFFFFFFFFFFFFFFFFF MUL NOT AND SWAP1 DUP4 PUSH20 0xFFFFFFFFFFFFFFFFFFFFFFFFFFFFFFFFFFFFFFFF AND MUL OR SWAP1 SSTORE POP POP POP POP JUMP JUMPDEST PUSH1 0x7 PUSH1 0x20 MSTORE DUP1 PUSH1 0x0 MSTORE PUSH1 0x40 PUSH1 0x0 KECCAK256 PUSH1 0x0 SWAP2 POP SWAP1 POP DUP1 PUSH1 0x0 ADD PUSH1 0x0 SWAP1 SLOAD SWAP1 PUSH2 0x100 EXP SWAP1 DIV PUSH1 0xFF AND SWAP1 DUP1 PUSH1 0x1 ADD DUP1 SLOAD PUSH2 0x11CB SWAP1 PUSH2 0x564A JUMP JUMPDEST DUP1 PUSH1 0x1F ADD PUSH1 0x20 DUP1 SWAP2 DIV MUL PUSH1 0x20 ADD PUSH1 0x40 MLOAD SWAP1 DUP2 ADD PUSH1 0x40 MSTORE DUP1 SWAP3 SWAP2 SWAP1 DUP2 DUP2 MSTORE PUSH1 0x20 ADD DUP3 DUP1 SLOAD PUSH2 0x11F7 SWAP1 PUSH2 0x564A JUMP JUMPDEST DUP1 ISZERO PUSH2 0x1244 JUMPI DUP1 PUSH1 0x1F LT PUSH2 0x1219 JUMPI PUSH2 0x100 DUP1 DUP4 SLOAD DIV MUL DUP4 MSTORE SWAP2 PUSH1 0x20 ADD SWAP2 PUSH2 0x1244 JUMP JUMPDEST DUP3 ADD SWAP2 SWAP1 PUSH1 0x0 MSTORE PUSH1 0x20 PUSH1 0x0 KECCAK256 SWAP1 JUMPDEST DUP2 SLOAD DUP2 MSTORE SWAP1 PUSH1 0x1 ADD SWAP1 PUSH1 0x20 ADD DUP1 DUP4 GT PUSH2 0x1227 JUMPI DUP3 SWAP1 SUB PUSH1 0x1F AND DUP3 ADD SWAP2 JUMPDEST POP POP POP POP POP SWAP1 DUP1 PUSH1 0x2 ADD PUSH1 0x0 SWAP1 SLOAD SWAP1 PUSH2 0x100 EXP SWAP1 DIV PUSH1 0xFF AND SWAP1 POP DUP4 JUMP JUMPDEST PUSH2 0x126A DUP2 PUSH2 0x1439 JUMP JUMPDEST PUSH2 0x12A9 JUMPI PUSH1 0x40 MLOAD PUSH32 0x8C379A000000000000000000000000000000000000000000000000000000000 DUP2 MSTORE PUSH1 0x4 ADD PUSH2 0x12A0 SWAP1 PUSH2 0x5307 JUMP JUMPDEST PUSH1 0x40 MLOAD DUP1 SWAP2 SUB SWAP1 REVERT JUMPDEST PUSH1 0x6 PUSH1 0x0 DUP3 PUSH20 0xFFFFFFFFFFFFFFFFFFFFFFFFFFFFFFFFFFFFFFFF AND PUSH20 0xFFFFFFFFFFFFFFFFFFFFFFFFFFFFFFFFFFFFFFFF AND DUP2 MSTORE PUSH1 0x20 ADD SWAP1 DUP2 MSTORE PUSH1 0x20 ADD PUSH1 0x0 KECCAK256 PUSH1 0x0 DUP1 DUP3 ADD PUSH1 0x0 PUSH2 0x100 EXP DUP2 SLOAD SWAP1 PUSH1 0xFF MUL NOT AND SWAP1 SSTORE PUSH1 0x0 DUP3 ADD PUSH1 0x1 PUSH2 0x100 EXP DUP2 SLOAD SWAP1 PUSH1 0xFF MUL NOT AND SWAP1 SSTORE PUSH1 0x1 DUP3 ADD PUSH1 0x0 SWAP1 SSTORE PUSH1 0x2 DUP3 ADD PUSH1 0x0 PUSH2 0x1329 SWAP2 SWAP1 PUSH2 0x429B JUMP JUMPDEST POP POP POP JUMP JUMPDEST PUSH1 0xD DUP2 DUP2 SLOAD DUP2 LT PUSH2 0x133E JUMPI PUSH1 0x0 DUP1 REVERT JUMPDEST SWAP1 PUSH1 0x0 MSTORE PUSH1 0x20 PUSH1 0x0 KECCAK256 ADD PUSH1 0x0 SWAP2 POP SLOAD SWAP1 PUSH2 0x100 EXP SWAP1 DIV PUSH20 0xFFFFFFFFFFFFFFFFFFFFFFFFFFFFFFFFFFFFFFFF AND DUP2 JUMP JUMPDEST PUSH1 0x4 PUSH1 0x20 MSTORE DUP1 PUSH1 0x0 MSTORE PUSH1 0x40 PUSH1 0x0 KECCAK256 PUSH1 0x0 SWAP2 POP SWAP1 POP DUP1 PUSH1 0x0 ADD PUSH1 0x0 SWAP1 SLOAD SWAP1 PUSH2 0x100 EXP SWAP1 DIV PUSH1 0xFF AND SWAP1 DUP1 PUSH1 0x1 ADD DUP1 SLOAD PUSH2 0x13A3 SWAP1 PUSH2 0x564A JUMP JUMPDEST DUP1 PUSH1 0x1F ADD PUSH1 0x20 DUP1 SWAP2 DIV MUL PUSH1 0x20 ADD PUSH1 0x40 MLOAD SWAP1 DUP2 ADD PUSH1 0x40 MSTORE DUP1 SWAP3 SWAP2 SWAP1 DUP2 DUP2 MSTORE PUSH1 0x20 ADD DUP3 DUP1 SLOAD PUSH2 0x13CF SWAP1 PUSH2 0x564A JUMP JUMPDEST DUP1 ISZERO PUSH2 0x141C JUMPI DUP1 PUSH1 0x1F LT PUSH2 0x13F1 JUMPI PUSH2 0x100 DUP1 DUP4 SLOAD DIV MUL DUP4 MSTORE SWAP2 PUSH1 0x20 ADD SWAP2 PUSH2 0x141C JUMP JUMPDEST DUP3 ADD SWAP2 SWAP1 PUSH1 0x0 MSTORE PUSH1 0x20 PUSH1 0x0 KECCAK256 SWAP1 JUMPDEST DUP2 SLOAD DUP2 MSTORE SWAP1 PUSH1 0x1 ADD SWAP1 PUSH1 0x20 ADD DUP1 DUP4 GT PUSH2 0x13FF JUMPI DUP3 SWAP1 SUB PUSH1 0x1F AND DUP3 ADD SWAP2 JUMPDEST POP POP POP POP POP SWAP1 DUP1 PUSH1 0x2 ADD PUSH1 0x0 SWAP1 SLOAD SWAP1 PUSH2 0x100 EXP SWAP1 DIV PUSH1 0xFF AND SWAP1 POP DUP4 JUMP JUMPDEST PUSH1 0x0 PUSH1 0x6 PUSH1 0x0 DUP4 PUSH20 0xFFFFFFFFFFFFFFFFFFFFFFFFFFFFFFFFFFFFFFFF AND PUSH20 0xFFFFFFFFFFFFFFFFFFFFFFFFFFFFFFFFFFFFFFFF AND DUP2 MSTORE PUSH1 0x20 ADD SWAP1 DUP2 MSTORE PUSH1 0x20 ADD PUSH1 0x0 KECCAK256 PUSH1 0x0 ADD PUSH1 0x0 SWAP1 SLOAD SWAP1 PUSH2 0x100 EXP SWAP1 DIV PUSH1 0xFF AND SWAP1 POP SWAP2 SWAP1 POP JUMP JUMPDEST PUSH1 0xA PUSH1 0x20 MSTORE DUP1 PUSH1 0x0 MSTORE PUSH1 0x40 PUSH1 0x0 KECCAK256 PUSH1 0x0 SWAP2 POP SWAP1 POP DUP1 PUSH1 0x0 ADD PUSH1 0x0 SWAP1 SLOAD SWAP1 PUSH2 0x100 EXP SWAP1 DIV PUSH1 0xFF AND SWAP1 DUP1 PUSH1 0x1 ADD DUP1 SLOAD PUSH2 0x14C8 SWAP1 PUSH2 0x564A JUMP JUMPDEST DUP1 PUSH1 0x1F ADD PUSH1 0x20 DUP1 SWAP2 DIV MUL PUSH1 0x20 ADD PUSH1 0x40 MLOAD SWAP1 DUP2 ADD PUSH1 0x40 MSTORE DUP1 SWAP3 SWAP2 SWAP1 DUP2 DUP2 MSTORE PUSH1 0x20 ADD DUP3 DUP1 SLOAD PUSH2 0x14F4 SWAP1 PUSH2 0x564A JUMP JUMPDEST DUP1 ISZERO PUSH2 0x1541 JUMPI DUP1 PUSH1 0x1F LT PUSH2 0x1516 JUMPI PUSH2 0x100 DUP1 DUP4 SLOAD DIV MUL DUP4 MSTORE SWAP2 PUSH1 0x20 ADD SWAP2 PUSH2 0x1541 JUMP JUMPDEST DUP3 ADD SWAP2 SWAP1 PUSH1 0x0 MSTORE PUSH1 0x20 PUSH1 0x0 KECCAK256 SWAP1 JUMPDEST DUP2 SLOAD DUP2 MSTORE SWAP1 PUSH1 0x1 ADD SWAP1 PUSH1 0x20 ADD DUP1 DUP4 GT PUSH2 0x1524 JUMPI DUP3 SWAP1 SUB PUSH1 0x1F AND DUP3 ADD SWAP2 JUMPDEST POP POP POP POP POP SWAP1 DUP1 PUSH1 0x2 ADD PUSH1 0x0 SWAP1 SLOAD SWAP1 PUSH2 0x100 EXP SWAP1 DIV PUSH1 0xFF AND SWAP1 POP DUP4 JUMP JUMPDEST DUP3 PUSH1 0x0 DUP1 PUSH2 0x100 EXP DUP2 SLOAD DUP2 PUSH20 0xFFFFFFFFFFFFFFFFFFFFFFFFFFFFFFFFFFFFFFFF MUL NOT AND SWAP1 DUP4 PUSH20 0xFFFFFFFFFFFFFFFFFFFFFFFFFFFFFFFFFFFFFFFF AND MUL OR SWAP1 SSTORE POP DUP2 PUSH1 0x1 PUSH1 0x0 PUSH2 0x100 EXP DUP2 SLOAD DUP2 PUSH20 0xFFFFFFFFFFFFFFFFFFFFFFFFFFFFFFFFFFFFFFFF MUL NOT AND SWAP1 DUP4 PUSH20 0xFFFFFFFFFFFFFFFFFFFFFFFFFFFFFFFFFFFFFFFF AND MUL OR SWAP1 SSTORE POP DUP1 PUSH1 0x2 PUSH1 0x0 PUSH2 0x100 EXP DUP2 SLOAD DUP2 PUSH20 0xFFFFFFFFFFFFFFFFFFFFFFFFFFFFFFFFFFFFFFFF MUL NOT AND SWAP1 DUP4 PUSH20 0xFFFFFFFFFFFFFFFFFFFFFFFFFFFFFFFFFFFFFFFF AND MUL OR SWAP1 SSTORE POP POP POP POP JUMP JUMPDEST PUSH1 0x6 PUSH1 0x20 MSTORE DUP1 PUSH1 0x0 MSTORE PUSH1 0x40 PUSH1 0x0 KECCAK256 PUSH1 0x0 SWAP2 POP SWAP1 POP DUP1 PUSH1 0x0 ADD PUSH1 0x0 SWAP1 SLOAD SWAP1 PUSH2 0x100 EXP SWAP1 DIV PUSH1 0xFF AND SWAP1 DUP1 PUSH1 0x0 ADD PUSH1 0x1 SWAP1 SLOAD SWAP1 PUSH2 0x100 EXP SWAP1 DIV PUSH1 0xFF AND SWAP1 DUP1 PUSH1 0x1 ADD SLOAD SWAP1 DUP1 PUSH1 0x2 ADD DUP1 SLOAD PUSH2 0x1674 SWAP1 PUSH2 0x564A JUMP JUMPDEST DUP1 PUSH1 0x1F ADD PUSH1 0x20 DUP1 SWAP2 DIV MUL PUSH1 0x20 ADD PUSH1 0x40 MLOAD SWAP1 DUP2 ADD PUSH1 0x40 MSTORE DUP1 SWAP3 SWAP2 SWAP1 DUP2 DUP2 MSTORE PUSH1 0x20 ADD DUP3 DUP1 SLOAD PUSH2 0x16A0 SWAP1 PUSH2 0x564A JUMP JUMPDEST DUP1 ISZERO PUSH2 0x16ED JUMPI DUP1 PUSH1 0x1F LT PUSH2 0x16C2 JUMPI PUSH2 0x100 DUP1 DUP4 SLOAD DIV MUL DUP4 MSTORE SWAP2 PUSH1 0x20 ADD SWAP2 PUSH2 0x16ED JUMP JUMPDEST DUP3 ADD SWAP2 SWAP1 PUSH1 0x0 MSTORE PUSH1 0x20 PUSH1 0x0 KECCAK256 SWAP1 JUMPDEST DUP2 SLOAD DUP2 MSTORE SWAP1 PUSH1 0x1 ADD SWAP1 PUSH1 0x20 ADD DUP1 DUP4 GT PUSH2 0x16D0 JUMPI DUP3 SWAP1 SUB PUSH1 0x1F AND DUP3 ADD SWAP2 JUMPDEST POP POP POP POP POP SWAP1 POP DUP5 JUMP JUMPDEST PUSH2 0x1700 DUP4 PUSH2 0xD4C JUMP JUMPDEST ISZERO PUSH2 0x1740 JUMPI PUSH1 0x40 MLOAD PUSH32 0x8C379A000000000000000000000000000000000000000000000000000000000 DUP2 MSTORE PUSH1 0x4 ADD PUSH2 0x1737 SWAP1 PUSH2 0x5167 JUMP JUMPDEST PUSH1 0x40 MLOAD DUP1 SWAP2 SUB SWAP1 REVERT JUMPDEST PUSH1 0x1 PUSH1 0x7 PUSH1 0x0 DUP6 PUSH20 0xFFFFFFFFFFFFFFFFFFFFFFFFFFFFFFFFFFFFFFFF AND PUSH20 0xFFFFFFFFFFFFFFFFFFFFFFFFFFFFFFFFFFFFFFFF AND DUP2 MSTORE PUSH1 0x20 ADD SWAP1 DUP2 MSTORE PUSH1 0x20 ADD PUSH1 0x0 KECCAK256 PUSH1 0x0 ADD PUSH1 0x0 PUSH2 0x100 EXP DUP2 SLOAD DUP2 PUSH1 0xFF MUL NOT AND SWAP1 DUP4 ISZERO ISZERO MUL OR SWAP1 SSTORE POP DUP2 PUSH1 0x7 PUSH1 0x0 DUP6 PUSH20 0xFFFFFFFFFFFFFFFFFFFFFFFFFFFFFFFFFFFFFFFF AND PUSH20 0xFFFFFFFFFFFFFFFFFFFFFFFFFFFFFFFFFFFFFFFF AND DUP2 MSTORE PUSH1 0x20 ADD SWAP1 DUP2 MSTORE PUSH1 0x20 ADD PUSH1 0x0 KECCAK256 PUSH1 0x1 ADD SWAP1 DUP1 MLOAD SWAP1 PUSH1 0x20 ADD SWAP1 PUSH2 0x17F1 SWAP3 SWAP2 SWAP1 PUSH2 0x4215 JUMP JUMPDEST POP DUP1 PUSH1 0x7 PUSH1 0x0 DUP6 PUSH20 0xFFFFFFFFFFFFFFFFFFFFFFFFFFFFFFFFFFFFFFFF AND PUSH20 0xFFFFFFFFFFFFFFFFFFFFFFFFFFFFFFFFFFFFFFFF AND DUP2 MSTORE PUSH1 0x20 ADD SWAP1 DUP2 MSTORE PUSH1 0x20 ADD PUSH1 0x0 KECCAK256 PUSH1 0x2 ADD PUSH1 0x0 PUSH2 0x100 EXP DUP2 SLOAD DUP2 PUSH1 0xFF MUL NOT AND SWAP1 DUP4 PUSH1 0xFF AND MUL OR SWAP1 SSTORE POP PUSH1 0xF DUP4 SWAP1 DUP1 PUSH1 0x1 DUP2 SLOAD ADD DUP1 DUP3 SSTORE DUP1 SWAP2 POP POP PUSH1 0x1 SWAP1 SUB SWAP1 PUSH1 0x0 MSTORE PUSH1 0x20 PUSH1 0x0 KECCAK256 ADD PUSH1 0x0 SWAP1 SWAP2 SWAP1 SWAP2 SWAP1 SWAP2 PUSH2 0x100 EXP DUP2 SLOAD DUP2 PUSH20 0xFFFFFFFFFFFFFFFFFFFFFFFFFFFFFFFFFFFFFFFF MUL NOT AND SWAP1 DUP4 PUSH20 0xFFFFFFFFFFFFFFFFFFFFFFFFFFFFFFFFFFFFFFFF AND MUL OR SWAP1 SSTORE POP POP POP POP JUMP JUMPDEST PUSH2 0x18BE DUP2 PUSH2 0x197A JUMP JUMPDEST PUSH2 0x18FD JUMPI PUSH1 0x40 MLOAD PUSH32 0x8C379A000000000000000000000000000000000000000000000000000000000 DUP2 MSTORE PUSH1 0x4 ADD PUSH2 0x18F4 SWAP1 PUSH2 0x52E7 JUMP JUMPDEST PUSH1 0x40 MLOAD DUP1 SWAP2 SUB SWAP1 REVERT JUMPDEST PUSH1 0x8 PUSH1 0x0 DUP3 PUSH20 0xFFFFFFFFFFFFFFFFFFFFFFFFFFFFFFFFFFFFFFFF AND PUSH20 0xFFFFFFFFFFFFFFFFFFFFFFFFFFFFFFFFFFFFFFFF AND DUP2 MSTORE PUSH1 0x20 ADD SWAP1 DUP2 MSTORE PUSH1 0x20 ADD PUSH1 0x0 KECCAK256 PUSH1 0x0 DUP1 DUP3 ADD PUSH1 0x0 PUSH2 0x100 EXP DUP2 SLOAD SWAP1 PUSH1 0xFF MUL NOT AND SWAP1 SSTORE PUSH1 0x1 DUP3 ADD PUSH1 0x0 PUSH2 0x1961 SWAP2 SWAP1 PUSH2 0x429B JUMP JUMPDEST PUSH1 0x2 DUP3 ADD PUSH1 0x0 PUSH2 0x100 EXP DUP2 SLOAD SWAP1 PUSH1 0xFF MUL NOT AND SWAP1 SSTORE POP POP POP JUMP JUMPDEST PUSH1 0x0 PUSH1 0x8 PUSH1 0x0 DUP4 PUSH20 0xFFFFFFFFFFFFFFFFFFFFFFFFFFFFFFFFFFFFFFFF AND PUSH20 0xFFFFFFFFFFFFFFFFFFFFFFFFFFFFFFFFFFFFFFFF AND DUP2 MSTORE PUSH1 0x20 ADD SWAP1 DUP2 MSTORE PUSH1 0x20 ADD PUSH1 0x0 KECCAK256 PUSH1 0x0 ADD PUSH1 0x0 SWAP1 SLOAD SWAP1 PUSH2 0x100 EXP SWAP1 DIV PUSH1 0xFF AND SWAP1 POP SWAP2 SWAP1 POP JUMP JUMPDEST PUSH2 0x19DC DUP2 PUSH2 0x3A85 JUMP JUMPDEST PUSH2 0x1A1B JUMPI PUSH1 0x40 MLOAD PUSH32 0x8C379A000000000000000000000000000000000000000000000000000000000 DUP2 MSTORE PUSH1 0x4 ADD PUSH2 0x1A12 SWAP1 PUSH2 0x52A7 JUMP JUMPDEST PUSH1 0x40 MLOAD DUP1 SWAP2 SUB SWAP1 REVERT JUMPDEST PUSH1 0xA PUSH1 0x0 DUP3 PUSH20 0xFFFFFFFFFFFFFFFFFFFFFFFFFFFFFFFFFFFFFFFF AND PUSH20 0xFFFFFFFFFFFFFFFFFFFFFFFFFFFFFFFFFFFFFFFF AND DUP2 MSTORE PUSH1 0x20 ADD SWAP1 DUP2 MSTORE PUSH1 0x20 ADD PUSH1 0x0 KECCAK256 PUSH1 0x0 DUP1 DUP3 ADD PUSH1 0x0 PUSH2 0x100 EXP DUP2 SLOAD SWAP1 PUSH1 0xFF MUL NOT AND SWAP1 SSTORE PUSH1 0x1 DUP3 ADD PUSH1 0x0 PUSH2 0x1A7F SWAP2 SWAP1 PUSH2 0x429B JUMP JUMPDEST PUSH1 0x2 DUP3 ADD PUSH1 0x0 PUSH2 0x100 EXP DUP2 SLOAD SWAP1 PUSH1 0xFF MUL NOT AND SWAP1 SSTORE POP POP POP JUMP JUMPDEST PUSH1 0x0 DUP1 SLOAD SWAP1 PUSH2 0x100 EXP SWAP1 DIV PUSH20 0xFFFFFFFFFFFFFFFFFFFFFFFFFFFFFFFFFFFFFFFF AND DUP2 JUMP JUMPDEST PUSH1 0x8 PUSH1 0x20 MSTORE DUP1 PUSH1 0x0 MSTORE PUSH1 0x40 PUSH1 0x0 KECCAK256 PUSH1 0x0 SWAP2 POP SWAP1 POP DUP1 PUSH1 0x0 ADD PUSH1 0x0 SWAP1 SLOAD SWAP1 PUSH2 0x100 EXP SWAP1 DIV PUSH1 0xFF AND SWAP1 DUP1 PUSH1 0x1 ADD DUP1 SLOAD PUSH2 0x1AF2 SWAP1 PUSH2 0x564A JUMP JUMPDEST DUP1 PUSH1 0x1F ADD PUSH1 0x20 DUP1 SWAP2 DIV MUL PUSH1 0x20 ADD PUSH1 0x40 MLOAD SWAP1 DUP2 ADD PUSH1 0x40 MSTORE DUP1 SWAP3 SWAP2 SWAP1 DUP2 DUP2 MSTORE PUSH1 0x20 ADD DUP3 DUP1 SLOAD PUSH2 0x1B1E SWAP1 PUSH2 0x564A JUMP JUMPDEST DUP1 ISZERO PUSH2 0x1B6B JUMPI DUP1 PUSH1 0x1F LT PUSH2 0x1B40 JUMPI PUSH2 0x100 DUP1 DUP4 SLOAD DIV MUL DUP4 MSTORE SWAP2 PUSH1 0x20 ADD SWAP2 PUSH2 0x1B6B JUMP JUMPDEST DUP3 ADD SWAP2 SWAP1 PUSH1 0x0 MSTORE PUSH1 0x20 PUSH1 0x0 KECCAK256 SWAP1 JUMPDEST DUP2 SLOAD DUP2 MSTORE SWAP1 PUSH1 0x1 ADD SWAP1 PUSH1 0x20 ADD DUP1 DUP4 GT PUSH2 0x1B4E JUMPI DUP3 SWAP1 SUB PUSH1 0x1F AND DUP3 ADD SWAP2 JUMPDEST POP POP POP POP POP SWAP1 DUP1 PUSH1 0x2 ADD PUSH1 0x0 SWAP1 SLOAD SWAP1 PUSH2 0x100 EXP SWAP1 DIV PUSH1 0xFF AND SWAP1 POP DUP4 JUMP JUMPDEST PUSH1 0x60 PUSH1 0x0 DUP1 SLOAD SWAP1 PUSH2 0x100 EXP SWAP1 DIV PUSH20 0xFFFFFFFFFFFFFFFFFFFFFFFFFFFFFFFFFFFFFFFF AND PUSH20 0xFFFFFFFFFFFFFFFFFFFFFFFFFFFFFFFFFFFFFFFF AND CALLER PUSH20 0xFFFFFFFFFFFFFFFFFFFFFFFFFFFFFFFFFFFFFFFF AND EQ PUSH2 0x1C18 JUMPI PUSH1 0x40 MLOAD PUSH32 0x8C379A000000000000000000000000000000000000000000000000000000000 DUP2 MSTORE PUSH1 0x4 ADD PUSH2 0x1C0F SWAP1 PUSH2 0x5147 JUMP JUMPDEST PUSH1 0x40 MLOAD DUP1 SWAP2 SUB SWAP1 REVERT JUMPDEST PUSH1 0x0 PUSH1 0xD DUP1 SLOAD SWAP1 POP PUSH8 0xFFFFFFFFFFFFFFFF DUP2 GT ISZERO PUSH2 0x1C39 JUMPI PUSH2 0x1C38 PUSH2 0x57B2 JUMP JUMPDEST JUMPDEST PUSH1 0x40 MLOAD SWAP1 DUP1 DUP3 MSTORE DUP1 PUSH1 0x20 MUL PUSH1 0x20 ADD DUP3 ADD PUSH1 0x40 MSTORE DUP1 ISZERO PUSH2 0x1C72 JUMPI DUP2 PUSH1 0x20 ADD JUMPDEST PUSH2 0x1C5F PUSH2 0x42DB JUMP JUMPDEST DUP2 MSTORE PUSH1 0x20 ADD SWAP1 PUSH1 0x1 SWAP1 SUB SWAP1 DUP2 PUSH2 0x1C57 JUMPI SWAP1 POP JUMPDEST POP SWAP1 POP PUSH1 0x0 DUP1 JUMPDEST PUSH1 0xD DUP1 SLOAD SWAP1 POP DUP2 LT ISZERO PUSH2 0x1E15 JUMPI PUSH1 0x4 PUSH1 0x0 PUSH1 0xD DUP4 DUP2 SLOAD DUP2 LT PUSH2 0x1C9E JUMPI PUSH2 0x1C9D PUSH2 0x5783 JUMP JUMPDEST JUMPDEST SWAP1 PUSH1 0x0 MSTORE PUSH1 0x20 PUSH1 0x0 KECCAK256 ADD PUSH1 0x0 SWAP1 SLOAD SWAP1 PUSH2 0x100 EXP SWAP1 DIV PUSH20 0xFFFFFFFFFFFFFFFFFFFFFFFFFFFFFFFFFFFFFFFF AND PUSH20 0xFFFFFFFFFFFFFFFFFFFFFFFFFFFFFFFFFFFFFFFF AND PUSH20 0xFFFFFFFFFFFFFFFFFFFFFFFFFFFFFFFFFFFFFFFF AND DUP2 MSTORE PUSH1 0x20 ADD SWAP1 DUP2 MSTORE PUSH1 0x20 ADD PUSH1 0x0 KECCAK256 PUSH1 0x40 MLOAD DUP1 PUSH1 0x60 ADD PUSH1 0x40 MSTORE SWAP1 DUP2 PUSH1 0x0 DUP3 ADD PUSH1 0x0 SWAP1 SLOAD SWAP1 PUSH2 0x100 EXP SWAP1 DIV PUSH1 0xFF AND ISZERO ISZERO ISZERO ISZERO DUP2 MSTORE PUSH1 0x20 ADD PUSH1 0x1 DUP3 ADD DUP1 SLOAD PUSH2 0x1D39 SWAP1 PUSH2 0x564A JUMP JUMPDEST DUP1 PUSH1 0x1F ADD PUSH1 0x20 DUP1 SWAP2 DIV MUL PUSH1 0x20 ADD PUSH1 0x40 MLOAD SWAP1 DUP2 ADD PUSH1 0x40 MSTORE DUP1 SWAP3 SWAP2 SWAP1 DUP2 DUP2 MSTORE PUSH1 0x20 ADD DUP3 DUP1 SLOAD PUSH2 0x1D65 SWAP1 PUSH2 0x564A JUMP JUMPDEST DUP1 ISZERO PUSH2 0x1DB2 JUMPI DUP1 PUSH1 0x1F LT PUSH2 0x1D87 JUMPI PUSH2 0x100 DUP1 DUP4 SLOAD DIV MUL DUP4 MSTORE SWAP2 PUSH1 0x20 ADD SWAP2 PUSH2 0x1DB2 JUMP JUMPDEST DUP3 ADD SWAP2 SWAP1 PUSH1 0x0 MSTORE PUSH1 0x20 PUSH1 0x0 KECCAK256 SWAP1 JUMPDEST DUP2 SLOAD DUP2 MSTORE SWAP1 PUSH1 0x1 ADD SWAP1 PUSH1 0x20 ADD DUP1 DUP4 GT PUSH2 0x1D95 JUMPI DUP3 SWAP1 SUB PUSH1 0x1F AND DUP3 ADD SWAP2 JUMPDEST POP POP POP POP POP DUP2 MSTORE PUSH1 0x20 ADD PUSH1 0x2 DUP3 ADD PUSH1 0x0 SWAP1 SLOAD SWAP1 PUSH2 0x100 EXP SWAP1 DIV PUSH1 0xFF AND PUSH1 0xFF AND PUSH1 0xFF AND DUP2 MSTORE POP POP DUP4 DUP4 DUP1 PUSH2 0x1DE4 SWAP1 PUSH2 0x56AD JUMP JUMPDEST SWAP5 POP DUP2 MLOAD DUP2 LT PUSH2 0x1DF7 JUMPI PUSH2 0x1DF6 PUSH2 0x5783 JUMP JUMPDEST JUMPDEST PUSH1 0x20 MUL PUSH1 0x20 ADD ADD DUP2 SWAP1 MSTORE POP DUP1 DUP1 PUSH2 0x1E0D SWAP1 PUSH2 0x56AD JUMP JUMPDEST SWAP2 POP POP PUSH2 0x1C79 JUMP JUMPDEST POP DUP2 SWAP3 POP POP POP SWAP1 JUMP JUMPDEST PUSH1 0x0 PUSH1 0x9 PUSH1 0x0 DUP4 PUSH20 0xFFFFFFFFFFFFFFFFFFFFFFFFFFFFFFFFFFFFFFFF AND PUSH20 0xFFFFFFFFFFFFFFFFFFFFFFFFFFFFFFFFFFFFFFFF AND DUP2 MSTORE PUSH1 0x20 ADD SWAP1 DUP2 MSTORE PUSH1 0x20 ADD PUSH1 0x0 KECCAK256 PUSH1 0x0 ADD PUSH1 0x0 SWAP1 SLOAD SWAP1 PUSH2 0x100 EXP SWAP1 DIV PUSH1 0xFF AND SWAP1 POP SWAP2 SWAP1 POP JUMP JUMPDEST PUSH2 0x1E80 DUP4 PUSH2 0x1E1E JUMP JUMPDEST PUSH2 0x1EBF JUMPI PUSH1 0x40 MLOAD PUSH32 0x8C379A000000000000000000000000000000000000000000000000000000000 DUP2 MSTORE PUSH1 0x4 ADD PUSH2 0x1EB6 SWAP1 PUSH2 0x5247 JUMP JUMPDEST PUSH1 0x40 MLOAD DUP1 SWAP2 SUB SWAP1 REVERT JUMPDEST PUSH1 0x1 PUSH1 0x9 PUSH1 0x0 DUP6 PUSH20 0xFFFFFFFFFFFFFFFFFFFFFFFFFFFFFFFFFFFFFFFF AND PUSH20 0xFFFFFFFFFFFFFFFFFFFFFFFFFFFFFFFFFFFFFFFF AND DUP2 MSTORE PUSH1 0x20 ADD SWAP1 DUP2 MSTORE PUSH1 0x20 ADD PUSH1 0x0 KECCAK256 PUSH1 0x0 ADD PUSH1 0x0 PUSH2 0x100 EXP DUP2 SLOAD DUP2 PUSH1 0xFF MUL NOT AND SWAP1 DUP4 ISZERO ISZERO MUL OR SWAP1 SSTORE POP DUP2 PUSH1 0x9 PUSH1 0x0 DUP6 PUSH20 0xFFFFFFFFFFFFFFFFFFFFFFFFFFFFFFFFFFFFFFFF AND PUSH20 0xFFFFFFFFFFFFFFFFFFFFFFFFFFFFFFFFFFFFFFFF AND DUP2 MSTORE PUSH1 0x20 ADD SWAP1 DUP2 MSTORE PUSH1 0x20 ADD PUSH1 0x0 KECCAK256 PUSH1 0x1 ADD SWAP1 DUP1 MLOAD SWAP1 PUSH1 0x20 ADD SWAP1 PUSH2 0x1F70 SWAP3 SWAP2 SWAP1 PUSH2 0x4215 JUMP JUMPDEST POP DUP1 PUSH1 0x9 PUSH1 0x0 DUP6 PUSH20 0xFFFFFFFFFFFFFFFFFFFFFFFFFFFFFFFFFFFFFFFF AND PUSH20 0xFFFFFFFFFFFFFFFFFFFFFFFFFFFFFFFFFFFFFFFF AND DUP2 MSTORE PUSH1 0x20 ADD SWAP1 DUP2 MSTORE PUSH1 0x20 ADD PUSH1 0x0 KECCAK256 PUSH1 0x2 ADD PUSH1 0x0 PUSH2 0x100 EXP DUP2 SLOAD DUP2 PUSH1 0xFF MUL NOT AND SWAP1 DUP4 PUSH1 0xFF AND MUL OR SWAP1 SSTORE POP POP POP POP JUMP JUMPDEST PUSH1 0x9 PUSH1 0x20 MSTORE DUP1 PUSH1 0x0 MSTORE PUSH1 0x40 PUSH1 0x0 KECCAK256 PUSH1 0x0 SWAP2 POP SWAP1 POP DUP1 PUSH1 0x0 ADD PUSH1 0x0 SWAP1 SLOAD SWAP1 PUSH2 0x100 EXP SWAP1 DIV PUSH1 0xFF AND SWAP1 DUP1 PUSH1 0x1 ADD DUP1 SLOAD PUSH2 0x2007 SWAP1 PUSH2 0x564A JUMP JUMPDEST DUP1 PUSH1 0x1F ADD PUSH1 0x20 DUP1 SWAP2 DIV MUL PUSH1 0x20 ADD PUSH1 0x40 MLOAD SWAP1 DUP2 ADD PUSH1 0x40 MSTORE DUP1 SWAP3 SWAP2 SWAP1 DUP2 DUP2 MSTORE PUSH1 0x20 ADD DUP3 DUP1 SLOAD PUSH2 0x2033 SWAP1 PUSH2 0x564A JUMP JUMPDEST DUP1 ISZERO PUSH2 0x2080 JUMPI DUP1 PUSH1 0x1F LT PUSH2 0x2055 JUMPI PUSH2 0x100 DUP1 DUP4 SLOAD DIV MUL DUP4 MSTORE SWAP2 PUSH1 0x20 ADD SWAP2 PUSH2 0x2080 JUMP JUMPDEST DUP3 ADD SWAP2 SWAP1 PUSH1 0x0 MSTORE PUSH1 0x20 PUSH1 0x0 KECCAK256 SWAP1 JUMPDEST DUP2 SLOAD DUP2 MSTORE SWAP1 PUSH1 0x1 ADD SWAP1 PUSH1 0x20 ADD DUP1 DUP4 GT PUSH2 0x2063 JUMPI DUP3 SWAP1 SUB PUSH1 0x1F AND DUP3 ADD SWAP2 JUMPDEST POP POP POP POP POP SWAP1 DUP1 PUSH1 0x2 ADD PUSH1 0x0 SWAP1 SLOAD SWAP1 PUSH2 0x100 EXP SWAP1 DIV PUSH1 0xFF AND SWAP1 POP DUP4 JUMP JUMPDEST PUSH2 0x20A6 DUP2 PUSH2 0x3B77 JUMP JUMPDEST PUSH2 0x20E5 JUMPI PUSH1 0x40 MLOAD PUSH32 0x8C379A000000000000000000000000000000000000000000000000000000000 DUP2 MSTORE PUSH1 0x4 ADD PUSH2 0x20DC SWAP1 PUSH2 0x5287 JUMP JUMPDEST PUSH1 0x40 MLOAD DUP1 SWAP2 SUB SWAP1 REVERT JUMPDEST PUSH1 0x4 PUSH1 0x0 DUP3 PUSH20 0xFFFFFFFFFFFFFFFFFFFFFFFFFFFFFFFFFFFFFFFF AND PUSH20 0xFFFFFFFFFFFFFFFFFFFFFFFFFFFFFFFFFFFFFFFF AND DUP2 MSTORE PUSH1 0x20 ADD SWAP1 DUP2 MSTORE PUSH1 0x20 ADD PUSH1 0x0 KECCAK256 PUSH1 0x0 DUP1 DUP3 ADD PUSH1 0x0 PUSH2 0x100 EXP DUP2 SLOAD SWAP1 PUSH1 0xFF MUL NOT AND SWAP1 SSTORE PUSH1 0x1 DUP3 ADD PUSH1 0x0 PUSH2 0x2149 SWAP2 SWAP1 PUSH2 0x429B JUMP JUMPDEST PUSH1 0x2 DUP3 ADD PUSH1 0x0 PUSH2 0x100 EXP DUP2 SLOAD SWAP1 PUSH1 0xFF MUL NOT AND SWAP1 SSTORE POP POP POP JUMP JUMPDEST PUSH2 0x216B DUP4 PUSH2 0x3A85 JUMP JUMPDEST ISZERO PUSH2 0x21AB JUMPI PUSH1 0x40 MLOAD PUSH32 0x8C379A000000000000000000000000000000000000000000000000000000000 DUP2 MSTORE PUSH1 0x4 ADD PUSH2 0x21A2 SWAP1 PUSH2 0x5227 JUMP JUMPDEST PUSH1 0x40 MLOAD DUP1 SWAP2 SUB SWAP1 REVERT JUMPDEST PUSH1 0x1 PUSH1 0xA PUSH1 0x0 DUP6 PUSH20 0xFFFFFFFFFFFFFFFFFFFFFFFFFFFFFFFFFFFFFFFF AND PUSH20 0xFFFFFFFFFFFFFFFFFFFFFFFFFFFFFFFFFFFFFFFF AND DUP2 MSTORE PUSH1 0x20 ADD SWAP1 DUP2 MSTORE PUSH1 0x20 ADD PUSH1 0x0 KECCAK256 PUSH1 0x0 ADD PUSH1 0x0 PUSH2 0x100 EXP DUP2 SLOAD DUP2 PUSH1 0xFF MUL NOT AND SWAP1 DUP4 ISZERO ISZERO MUL OR SWAP1 SSTORE POP DUP2 PUSH1 0xA PUSH1 0x0 DUP6 PUSH20 0xFFFFFFFFFFFFFFFFFFFFFFFFFFFFFFFFFFFFFFFF AND PUSH20 0xFFFFFFFFFFFFFFFFFFFFFFFFFFFFFFFFFFFFFFFF AND DUP2 MSTORE PUSH1 0x20 ADD SWAP1 DUP2 MSTORE PUSH1 0x20 ADD PUSH1 0x0 KECCAK256 PUSH1 0x1 ADD SWAP1 DUP1 MLOAD SWAP1 PUSH1 0x20 ADD SWAP1 PUSH2 0x225C SWAP3 SWAP2 SWAP1 PUSH2 0x4215 JUMP JUMPDEST POP DUP1 PUSH1 0xA PUSH1 0x0 DUP6 PUSH20 0xFFFFFFFFFFFFFFFFFFFFFFFFFFFFFFFFFFFFFFFF AND PUSH20 0xFFFFFFFFFFFFFFFFFFFFFFFFFFFFFFFFFFFFFFFF AND DUP2 MSTORE PUSH1 0x20 ADD SWAP1 DUP2 MSTORE PUSH1 0x20 ADD PUSH1 0x0 KECCAK256 PUSH1 0x2 ADD PUSH1 0x0 PUSH2 0x100 EXP DUP2 SLOAD DUP2 PUSH1 0xFF MUL NOT AND SWAP1 DUP4 PUSH1 0xFF AND MUL OR SWAP1 SSTORE POP PUSH1 0x12 DUP4 SWAP1 DUP1 PUSH1 0x1 DUP2 SLOAD ADD DUP1 DUP3 SSTORE DUP1 SWAP2 POP POP PUSH1 0x1 SWAP1 SUB SWAP1 PUSH1 0x0 MSTORE PUSH1 0x20 PUSH1 0x0 KECCAK256 ADD PUSH1 0x0 SWAP1 SWAP2 SWAP1 SWAP2 SWAP1 SWAP2 PUSH2 0x100 EXP DUP2 SLOAD DUP2 PUSH20 0xFFFFFFFFFFFFFFFFFFFFFFFFFFFFFFFFFFFFFFFF MUL NOT AND SWAP1 DUP4 PUSH20 0xFFFFFFFFFFFFFFFFFFFFFFFFFFFFFFFFFFFFFFFF AND MUL OR SWAP1 SSTORE POP POP POP POP JUMP JUMPDEST PUSH1 0x60 PUSH1 0x2 PUSH1 0x0 SWAP1 SLOAD SWAP1 PUSH2 0x100 EXP SWAP1 DIV PUSH20 0xFFFFFFFFFFFFFFFFFFFFFFFFFFFFFFFFFFFFFFFF AND PUSH20 0xFFFFFFFFFFFFFFFFFFFFFFFFFFFFFFFFFFFFFFFF AND CALLER PUSH20 0xFFFFFFFFFFFFFFFFFFFFFFFFFFFFFFFFFFFFFFFF AND EQ PUSH2 0x23B2 JUMPI PUSH1 0x40 MLOAD PUSH32 0x8C379A000000000000000000000000000000000000000000000000000000000 DUP2 MSTORE PUSH1 0x4 ADD PUSH2 0x23A9 SWAP1 PUSH2 0x5207 JUMP JUMPDEST PUSH1 0x40 MLOAD DUP1 SWAP2 SUB SWAP1 REVERT JUMPDEST PUSH1 0x0 PUSH1 0x11 DUP1 SLOAD SWAP1 POP PUSH8 0xFFFFFFFFFFFFFFFF DUP2 GT ISZERO PUSH2 0x23D3 JUMPI PUSH2 0x23D2 PUSH2 0x57B2 JUMP JUMPDEST JUMPDEST PUSH1 0x40 MLOAD SWAP1 DUP1 DUP3 MSTORE DUP1 PUSH1 0x20 MUL PUSH1 0x20 ADD DUP3 ADD PUSH1 0x40 MSTORE DUP1 ISZERO PUSH2 0x240C JUMPI DUP2 PUSH1 0x20 ADD JUMPDEST PUSH2 0x23F9 PUSH2 0x4301 JUMP JUMPDEST DUP2 MSTORE PUSH1 0x20 ADD SWAP1 PUSH1 0x1 SWAP1 SUB SWAP1 DUP2 PUSH2 0x23F1 JUMPI SWAP1 POP JUMPDEST POP SWAP1 POP PUSH1 0x0 DUP1 JUMPDEST PUSH1 0x11 DUP1 SLOAD SWAP1 POP DUP2 LT ISZERO PUSH2 0x25AF JUMPI PUSH1 0x9 PUSH1 0x0 PUSH1 0x11 DUP4 DUP2 SLOAD DUP2 LT PUSH2 0x2438 JUMPI PUSH2 0x2437 PUSH2 0x5783 JUMP JUMPDEST JUMPDEST SWAP1 PUSH1 0x0 MSTORE PUSH1 0x20 PUSH1 0x0 KECCAK256 ADD PUSH1 0x0 SWAP1 SLOAD SWAP1 PUSH2 0x100 EXP SWAP1 DIV PUSH20 0xFFFFFFFFFFFFFFFFFFFFFFFFFFFFFFFFFFFFFFFF AND PUSH20 0xFFFFFFFFFFFFFFFFFFFFFFFFFFFFFFFFFFFFFFFF AND PUSH20 0xFFFFFFFFFFFFFFFFFFFFFFFFFFFFFFFFFFFFFFFF AND DUP2 MSTORE PUSH1 0x20 ADD SWAP1 DUP2 MSTORE PUSH1 0x20 ADD PUSH1 0x0 KECCAK256 PUSH1 0x40 MLOAD DUP1 PUSH1 0x60 ADD PUSH1 0x40 MSTORE SWAP1 DUP2 PUSH1 0x0 DUP3 ADD PUSH1 0x0 SWAP1 SLOAD SWAP1 PUSH2 0x100 EXP SWAP1 DIV PUSH1 0xFF AND ISZERO ISZERO ISZERO ISZERO DUP2 MSTORE PUSH1 0x20 ADD PUSH1 0x1 DUP3 ADD DUP1 SLOAD PUSH2 0x24D3 SWAP1 PUSH2 0x564A JUMP JUMPDEST DUP1 PUSH1 0x1F ADD PUSH1 0x20 DUP1 SWAP2 DIV MUL PUSH1 0x20 ADD PUSH1 0x40 MLOAD SWAP1 DUP2 ADD PUSH1 0x40 MSTORE DUP1 SWAP3 SWAP2 SWAP1 DUP2 DUP2 MSTORE PUSH1 0x20 ADD DUP3 DUP1 SLOAD PUSH2 0x24FF SWAP1 PUSH2 0x564A JUMP JUMPDEST DUP1 ISZERO PUSH2 0x254C JUMPI DUP1 PUSH1 0x1F LT PUSH2 0x2521 JUMPI PUSH2 0x100 DUP1 DUP4 SLOAD DIV MUL DUP4 MSTORE SWAP2 PUSH1 0x20 ADD SWAP2 PUSH2 0x254C JUMP JUMPDEST DUP3 ADD SWAP2 SWAP1 PUSH1 0x0 MSTORE PUSH1 0x20 PUSH1 0x0 KECCAK256 SWAP1 JUMPDEST DUP2 SLOAD DUP2 MSTORE SWAP1 PUSH1 0x1 ADD SWAP1 PUSH1 0x20 ADD DUP1 DUP4 GT PUSH2 0x252F JUMPI DUP3 SWAP1 SUB PUSH1 0x1F AND DUP3 ADD SWAP2 JUMPDEST POP POP POP POP POP DUP2 MSTORE PUSH1 0x20 ADD PUSH1 0x2 DUP3 ADD PUSH1 0x0 SWAP1 SLOAD SWAP1 PUSH2 0x100 EXP SWAP1 DIV PUSH1 0xFF AND PUSH1 0xFF AND PUSH1 0xFF AND DUP2 MSTORE POP POP DUP4 DUP4 DUP1 PUSH2 0x257E SWAP1 PUSH2 0x56AD JUMP JUMPDEST SWAP5 POP DUP2 MLOAD DUP2 LT PUSH2 0x2591 JUMPI PUSH2 0x2590 PUSH2 0x5783 JUMP JUMPDEST JUMPDEST PUSH1 0x20 MUL PUSH1 0x20 ADD ADD DUP2 SWAP1 MSTORE POP DUP1 DUP1 PUSH2 0x25A7 SWAP1 PUSH2 0x56AD JUMP JUMPDEST SWAP2 POP POP PUSH2 0x2413 JUMP JUMPDEST POP DUP2 SWAP3 POP POP POP SWAP1 JUMP JUMPDEST PUSH1 0xB PUSH1 0x20 MSTORE DUP1 PUSH1 0x0 MSTORE PUSH1 0x40 PUSH1 0x0 KECCAK256 PUSH1 0x0 SWAP2 POP SWAP1 POP DUP1 PUSH1 0x0 ADD PUSH1 0x0 SWAP1 SLOAD SWAP1 PUSH2 0x100 EXP SWAP1 DIV PUSH4 0xFFFFFFFF AND SWAP1 DUP1 PUSH1 0x1 ADD DUP1 SLOAD PUSH2 0x25F1 SWAP1 PUSH2 0x564A JUMP JUMPDEST DUP1 PUSH1 0x1F ADD PUSH1 0x20 DUP1 SWAP2 DIV MUL PUSH1 0x20 ADD PUSH1 0x40 MLOAD SWAP1 DUP2 ADD PUSH1 0x40 MSTORE DUP1 SWAP3 SWAP2 SWAP1 DUP2 DUP2 MSTORE PUSH1 0x20 ADD DUP3 DUP1 SLOAD PUSH2 0x261D SWAP1 PUSH2 0x564A JUMP JUMPDEST DUP1 ISZERO PUSH2 0x266A JUMPI DUP1 PUSH1 0x1F LT PUSH2 0x263F JUMPI PUSH2 0x100 DUP1 DUP4 SLOAD DIV MUL DUP4 MSTORE SWAP2 PUSH1 0x20 ADD SWAP2 PUSH2 0x266A JUMP JUMPDEST DUP3 ADD SWAP2 SWAP1 PUSH1 0x0 MSTORE PUSH1 0x20 PUSH1 0x0 KECCAK256 SWAP1 JUMPDEST DUP2 SLOAD DUP2 MSTORE SWAP1 PUSH1 0x1 ADD SWAP1 PUSH1 0x20 ADD DUP1 DUP4 GT PUSH2 0x264D JUMPI DUP3 SWAP1 SUB PUSH1 0x1F AND DUP3 ADD SWAP2 JUMPDEST POP POP POP POP POP SWAP1 POP DUP3 JUMP JUMPDEST PUSH2 0x267D DUP5 PUSH2 0x1439 JUMP JUMPDEST PUSH2 0x26BC JUMPI PUSH1 0x40 MLOAD PUSH32 0x8C379A000000000000000000000000000000000000000000000000000000000 DUP2 MSTORE PUSH1 0x4 ADD PUSH2 0x26B3 SWAP1 PUSH2 0x5307 JUMP JUMPDEST PUSH1 0x40 MLOAD DUP1 SWAP2 SUB SWAP1 REVERT JUMPDEST PUSH1 0x1 PUSH1 0x6 PUSH1 0x0 DUP7 PUSH20 0xFFFFFFFFFFFFFFFFFFFFFFFFFFFFFFFFFFFFFFFF AND PUSH20 0xFFFFFFFFFFFFFFFFFFFFFFFFFFFFFFFFFFFFFFFF AND DUP2 MSTORE PUSH1 0x20 ADD SWAP1 DUP2 MSTORE PUSH1 0x20 ADD PUSH1 0x0 KECCAK256 PUSH1 0x0 ADD PUSH1 0x0 PUSH2 0x100 EXP DUP2 SLOAD DUP2 PUSH1 0xFF MUL NOT AND SWAP1 DUP4 ISZERO ISZERO MUL OR SWAP1 SSTORE POP DUP3 PUSH1 0x6 PUSH1 0x0 DUP7 PUSH20 0xFFFFFFFFFFFFFFFFFFFFFFFFFFFFFFFFFFFFFFFF AND PUSH20 0xFFFFFFFFFFFFFFFFFFFFFFFFFFFFFFFFFFFFFFFF AND DUP2 MSTORE PUSH1 0x20 ADD SWAP1 DUP2 MSTORE PUSH1 0x20 ADD PUSH1 0x0 KECCAK256 PUSH1 0x2 ADD SWAP1 DUP1 MLOAD SWAP1 PUSH1 0x20 ADD SWAP1 PUSH2 0x276D SWAP3 SWAP2 SWAP1 PUSH2 0x4215 JUMP JUMPDEST POP DUP1 PUSH1 0x6 PUSH1 0x0 DUP7 PUSH20 0xFFFFFFFFFFFFFFFFFFFFFFFFFFFFFFFFFFFFFFFF AND PUSH20 0xFFFFFFFFFFFFFFFFFFFFFFFFFFFFFFFFFFFFFFFF AND DUP2 MSTORE PUSH1 0x20 ADD SWAP1 DUP2 MSTORE PUSH1 0x20 ADD PUSH1 0x0 KECCAK256 PUSH1 0x0 ADD PUSH1 0x1 PUSH2 0x100 EXP DUP2 SLOAD DUP2 PUSH1 0xFF MUL NOT AND SWAP1 DUP4 PUSH1 0xFF AND MUL OR SWAP1 SSTORE POP DUP2 PUSH1 0x6 PUSH1 0x0 DUP7 PUSH20 0xFFFFFFFFFFFFFFFFFFFFFFFFFFFFFFFFFFFFFFFF AND PUSH20 0xFFFFFFFFFFFFFFFFFFFFFFFFFFFFFFFFFFFFFFFF AND DUP2 MSTORE PUSH1 0x20 ADD SWAP1 DUP2 MSTORE PUSH1 0x20 ADD PUSH1 0x0 KECCAK256 PUSH1 0x1 ADD DUP2 SWAP1 SSTORE POP POP POP POP POP JUMP JUMPDEST PUSH2 0x281F DUP2 PUSH2 0xD4C JUMP JUMPDEST PUSH2 0x285E JUMPI PUSH1 0x40 MLOAD PUSH32 0x8C379A000000000000000000000000000000000000000000000000000000000 DUP2 MSTORE PUSH1 0x4 ADD PUSH2 0x2855 SWAP1 PUSH2 0x5327 JUMP JUMPDEST PUSH1 0x40 MLOAD DUP1 SWAP2 SUB SWAP1 REVERT JUMPDEST PUSH1 0x7 PUSH1 0x0 DUP3 PUSH20 0xFFFFFFFFFFFFFFFFFFFFFFFFFFFFFFFFFFFFFFFF AND PUSH20 0xFFFFFFFFFFFFFFFFFFFFFFFFFFFFFFFFFFFFFFFF AND DUP2 MSTORE PUSH1 0x20 ADD SWAP1 DUP2 MSTORE PUSH1 0x20 ADD PUSH1 0x0 KECCAK256 PUSH1 0x0 DUP1 DUP3 ADD PUSH1 0x0 PUSH2 0x100 EXP DUP2 SLOAD SWAP1 PUSH1 0xFF MUL NOT AND SWAP1 SSTORE PUSH1 0x1 DUP3 ADD PUSH1 0x0 PUSH2 0x28C2 SWAP2 SWAP1 PUSH2 0x429B JUMP JUMPDEST PUSH1 0x2 DUP3 ADD PUSH1 0x0 PUSH2 0x100 EXP DUP2 SLOAD SWAP1 PUSH1 0xFF MUL NOT AND SWAP1 SSTORE POP POP POP JUMP JUMPDEST PUSH1 0xE DUP2 DUP2 SLOAD DUP2 LT PUSH2 0x28EB JUMPI PUSH1 0x0 DUP1 REVERT JUMPDEST SWAP1 PUSH1 0x0 MSTORE PUSH1 0x20 PUSH1 0x0 KECCAK256 ADD PUSH1 0x0 SWAP2 POP SLOAD SWAP1 PUSH2 0x100 EXP SWAP1 DIV PUSH20 0xFFFFFFFFFFFFFFFFFFFFFFFFFFFFFFFFFFFFFFFF AND DUP2 JUMP JUMPDEST PUSH2 0x2923 DUP4 PUSH2 0x3A85 JUMP JUMPDEST PUSH2 0x2962 JUMPI PUSH1 0x40 MLOAD PUSH32 0x8C379A000000000000000000000000000000000000000000000000000000000 DUP2 MSTORE PUSH1 0x4 ADD PUSH2 0x2959 SWAP1 PUSH2 0x52A7 JUMP JUMPDEST PUSH1 0x40 MLOAD DUP1 SWAP2 SUB SWAP1 REVERT JUMPDEST PUSH1 0x1 PUSH1 0xA PUSH1 0x0 DUP6 PUSH20 0xFFFFFFFFFFFFFFFFFFFFFFFFFFFFFFFFFFFFFFFF AND PUSH20 0xFFFFFFFFFFFFFFFFFFFFFFFFFFFFFFFFFFFFFFFF AND DUP2 MSTORE PUSH1 0x20 ADD SWAP1 DUP2 MSTORE PUSH1 0x20 ADD PUSH1 0x0 KECCAK256 PUSH1 0x0 ADD PUSH1 0x0 PUSH2 0x100 EXP DUP2 SLOAD DUP2 PUSH1 0xFF MUL NOT AND SWAP1 DUP4 ISZERO ISZERO MUL OR SWAP1 SSTORE POP DUP2 PUSH1 0xA PUSH1 0x0 DUP6 PUSH20 0xFFFFFFFFFFFFFFFFFFFFFFFFFFFFFFFFFFFFFFFF AND PUSH20 0xFFFFFFFFFFFFFFFFFFFFFFFFFFFFFFFFFFFFFFFF AND DUP2 MSTORE PUSH1 0x20 ADD SWAP1 DUP2 MSTORE PUSH1 0x20 ADD PUSH1 0x0 KECCAK256 PUSH1 0x1 ADD SWAP1 DUP1 MLOAD SWAP1 PUSH1 0x20 ADD SWAP1 PUSH2 0x2A13 SWAP3 SWAP2 SWAP1 PUSH2 0x4215 JUMP JUMPDEST POP DUP1 PUSH1 0xA PUSH1 0x0 DUP6 PUSH20 0xFFFFFFFFFFFFFFFFFFFFFFFFFFFFFFFFFFFFFFFF AND PUSH20 0xFFFFFFFFFFFFFFFFFFFFFFFFFFFFFFFFFFFFFFFF AND DUP2 MSTORE PUSH1 0x20 ADD SWAP1 DUP2 MSTORE PUSH1 0x20 ADD PUSH1 0x0 KECCAK256 PUSH1 0x2 ADD PUSH1 0x0 PUSH2 0x100 EXP DUP2 SLOAD DUP2 PUSH1 0xFF MUL NOT AND SWAP1 DUP4 PUSH1 0xFF AND MUL OR SWAP1 SSTORE POP POP POP POP JUMP JUMPDEST PUSH1 0x0 PUSH1 0x3 PUSH1 0x0 DUP4 PUSH20 0xFFFFFFFFFFFFFFFFFFFFFFFFFFFFFFFFFFFFFFFF AND PUSH20 0xFFFFFFFFFFFFFFFFFFFFFFFFFFFFFFFFFFFFFFFF AND DUP2 MSTORE PUSH1 0x20 ADD SWAP1 DUP2 MSTORE PUSH1 0x20 ADD PUSH1 0x0 KECCAK256 PUSH1 0x0 ADD PUSH1 0x0 SWAP1 SLOAD SWAP1 PUSH2 0x100 EXP SWAP1 DIV PUSH1 0xFF AND SWAP1 POP SWAP2 SWAP1 POP JUMP JUMPDEST PUSH1 0x5 PUSH1 0x20 MSTORE DUP1 PUSH1 0x0 MSTORE PUSH1 0x40 PUSH1 0x0 KECCAK256 PUSH1 0x0 SWAP2 POP SWAP1 POP DUP1 PUSH1 0x0 ADD PUSH1 0x0 SWAP1 SLOAD SWAP1 PUSH2 0x100 EXP SWAP1 DIV PUSH1 0xFF AND SWAP1 DUP1 PUSH1 0x0 ADD PUSH1 0x1 SWAP1 SLOAD SWAP1 PUSH2 0x100 EXP SWAP1 DIV PUSH20 0xFFFFFFFFFFFFFFFFFFFFFFFFFFFFFFFFFFFFFFFF AND SWAP1 DUP1 PUSH1 0x0 ADD PUSH1 0x15 SWAP1 SLOAD SWAP1 PUSH2 0x100 EXP SWAP1 DIV PUSH2 0xFFFF AND SWAP1 DUP1 PUSH1 0x0 ADD PUSH1 0x17 SWAP1 SLOAD SWAP1 PUSH2 0x100 EXP SWAP1 DIV PUSH1 0xFF AND SWAP1 DUP1 PUSH1 0x1 ADD DUP1 SLOAD PUSH2 0x2B50 SWAP1 PUSH2 0x564A JUMP JUMPDEST DUP1 PUSH1 0x1F ADD PUSH1 0x20 DUP1 SWAP2 DIV MUL PUSH1 0x20 ADD PUSH1 0x40 MLOAD SWAP1 DUP2 ADD PUSH1 0x40 MSTORE DUP1 SWAP3 SWAP2 SWAP1 DUP2 DUP2 MSTORE PUSH1 0x20 ADD DUP3 DUP1 SLOAD PUSH2 0x2B7C SWAP1 PUSH2 0x564A JUMP JUMPDEST DUP1 ISZERO PUSH2 0x2BC9 JUMPI DUP1 PUSH1 0x1F LT PUSH2 0x2B9E JUMPI PUSH2 0x100 DUP1 DUP4 SLOAD DIV MUL DUP4 MSTORE SWAP2 PUSH1 0x20 ADD SWAP2 PUSH2 0x2BC9 JUMP JUMPDEST DUP3 ADD SWAP2 SWAP1 PUSH1 0x0 MSTORE PUSH1 0x20 PUSH1 0x0 KECCAK256 SWAP1 JUMPDEST DUP2 SLOAD DUP2 MSTORE SWAP1 PUSH1 0x1 ADD SWAP1 PUSH1 0x20 ADD DUP1 DUP4 GT PUSH2 0x2BAC JUMPI DUP3 SWAP1 SUB PUSH1 0x1F AND DUP3 ADD SWAP2 JUMPDEST POP POP POP POP POP SWAP1 DUP1 PUSH1 0x2 ADD DUP1 SLOAD PUSH2 0x2BDE SWAP1 PUSH2 0x564A JUMP JUMPDEST DUP1 PUSH1 0x1F ADD PUSH1 0x20 DUP1 SWAP2 DIV MUL PUSH1 0x20 ADD PUSH1 0x40 MLOAD SWAP1 DUP2 ADD PUSH1 0x40 MSTORE DUP1 SWAP3 SWAP2 SWAP1 DUP2 DUP2 MSTORE PUSH1 0x20 ADD DUP3 DUP1 SLOAD PUSH2 0x2C0A SWAP1 PUSH2 0x564A JUMP JUMPDEST DUP1 ISZERO PUSH2 0x2C57 JUMPI DUP1 PUSH1 0x1F LT PUSH2 0x2C2C JUMPI PUSH2 0x100 DUP1 DUP4 SLOAD DIV MUL DUP4 MSTORE SWAP2 PUSH1 0x20 ADD SWAP2 PUSH2 0x2C57 JUMP JUMPDEST DUP3 ADD SWAP2 SWAP1 PUSH1 0x0 MSTORE PUSH1 0x20 PUSH1 0x0 KECCAK256 SWAP1 JUMPDEST DUP2 SLOAD DUP2 MSTORE SWAP1 PUSH1 0x1 ADD SWAP1 PUSH1 0x20 ADD DUP1 DUP4 GT PUSH2 0x2C3A JUMPI DUP3 SWAP1 SUB PUSH1 0x1F AND DUP3 ADD SWAP2 JUMPDEST POP POP POP POP POP SWAP1 POP DUP7 JUMP JUMPDEST PUSH2 0x2C6A DUP2 PUSH2 0x2A74 JUMP JUMPDEST PUSH2 0x2CA9 JUMPI PUSH1 0x40 MLOAD PUSH32 0x8C379A000000000000000000000000000000000000000000000000000000000 DUP2 MSTORE PUSH1 0x4 ADD PUSH2 0x2CA0 SWAP1 PUSH2 0x51A7 JUMP JUMPDEST PUSH1 0x40 MLOAD DUP1 SWAP2 SUB SWAP1 REVERT JUMPDEST PUSH1 0x3 PUSH1 0x0 DUP3 PUSH20 0xFFFFFFFFFFFFFFFFFFFFFFFFFFFFFFFFFFFFFFFF AND PUSH20 0xFFFFFFFFFFFFFFFFFFFFFFFFFFFFFFFFFFFFFFFF AND DUP2 MSTORE PUSH1 0x20 ADD SWAP1 DUP2 MSTORE PUSH1 0x20 ADD PUSH1 0x0 KECCAK256 PUSH1 0x0 DUP1 DUP3 ADD PUSH1 0x0 PUSH2 0x100 EXP DUP2 SLOAD SWAP1 PUSH1 0xFF MUL NOT AND SWAP1 SSTORE POP POP POP JUMP JUMPDEST PUSH2 0x2D0B DUP4 PUSH2 0x3B77 JUMP JUMPDEST PUSH2 0x2D4A JUMPI PUSH1 0x40 MLOAD PUSH32 0x8C379A000000000000000000000000000000000000000000000000000000000 DUP2 MSTORE PUSH1 0x4 ADD PUSH2 0x2D41 SWAP1 PUSH2 0x5187 JUMP JUMPDEST PUSH1 0x40 MLOAD DUP1 SWAP2 SUB SWAP1 REVERT JUMPDEST PUSH1 0x1 PUSH1 0x4 PUSH1 0x0 DUP6 PUSH20 0xFFFFFFFFFFFFFFFFFFFFFFFFFFFFFFFFFFFFFFFF AND PUSH20 0xFFFFFFFFFFFFFFFFFFFFFFFFFFFFFFFFFFFFFFFF AND DUP2 MSTORE PUSH1 0x20 ADD SWAP1 DUP2 MSTORE PUSH1 0x20 ADD PUSH1 0x0 KECCAK256 PUSH1 0x0 ADD PUSH1 0x0 PUSH2 0x100 EXP DUP2 SLOAD DUP2 PUSH1 0xFF MUL NOT AND SWAP1 DUP4 ISZERO ISZERO MUL OR SWAP1 SSTORE POP DUP2 PUSH1 0x4 PUSH1 0x0 DUP6 PUSH20 0xFFFFFFFFFFFFFFFFFFFFFFFFFFFFFFFFFFFFFFFF AND PUSH20 0xFFFFFFFFFFFFFFFFFFFFFFFFFFFFFFFFFFFFFFFF AND DUP2 MSTORE PUSH1 0x20 ADD SWAP1 DUP2 MSTORE PUSH1 0x20 ADD PUSH1 0x0 KECCAK256 PUSH1 0x1 ADD SWAP1 DUP1 MLOAD SWAP1 PUSH1 0x20 ADD SWAP1 PUSH2 0x2DFB SWAP3 SWAP2 SWAP1 PUSH2 0x4215 JUMP JUMPDEST POP DUP1 PUSH1 0x4 PUSH1 0x0 DUP6 PUSH20 0xFFFFFFFFFFFFFFFFFFFFFFFFFFFFFFFFFFFFFFFF AND PUSH20 0xFFFFFFFFFFFFFFFFFFFFFFFFFFFFFFFFFFFFFFFF AND DUP2 MSTORE PUSH1 0x20 ADD SWAP1 DUP2 MSTORE PUSH1 0x20 ADD PUSH1 0x0 KECCAK256 PUSH1 0x2 ADD PUSH1 0x0 PUSH2 0x100 EXP DUP2 SLOAD DUP2 PUSH1 0xFF MUL NOT AND SWAP1 DUP4 PUSH1 0xFF AND MUL OR SWAP1 SSTORE POP POP POP POP JUMP JUMPDEST PUSH1 0x3 PUSH1 0x20 MSTORE DUP1 PUSH1 0x0 MSTORE PUSH1 0x40 PUSH1 0x0 KECCAK256 PUSH1 0x0 SWAP2 POP SWAP1 POP DUP1 PUSH1 0x0 ADD PUSH1 0x0 SWAP1 SLOAD SWAP1 PUSH2 0x100 EXP SWAP1 DIV PUSH1 0xFF AND SWAP1 POP DUP2 JUMP JUMPDEST PUSH1 0x60 PUSH1 0x0 PUSH1 0xF DUP1 SLOAD SWAP1 POP PUSH8 0xFFFFFFFFFFFFFFFF DUP2 GT ISZERO PUSH2 0x2EAA JUMPI PUSH2 0x2EA9 PUSH2 0x57B2 JUMP JUMPDEST JUMPDEST PUSH1 0x40 MLOAD SWAP1 DUP1 DUP3 MSTORE DUP1 PUSH1 0x20 MUL PUSH1 0x20 ADD DUP3 ADD PUSH1 0x40 MSTORE DUP1 ISZERO PUSH2 0x2EE3 JUMPI DUP2 PUSH1 0x20 ADD JUMPDEST PUSH2 0x2ED0 PUSH2 0x4327 JUMP JUMPDEST DUP2 MSTORE PUSH1 0x20 ADD SWAP1 PUSH1 0x1 SWAP1 SUB SWAP1 DUP2 PUSH2 0x2EC8 JUMPI SWAP1 POP JUMPDEST POP SWAP1 POP PUSH1 0x0 DUP1 JUMPDEST PUSH1 0xF DUP1 SLOAD SWAP1 POP DUP2 LT ISZERO PUSH2 0x3086 JUMPI PUSH1 0x7 PUSH1 0x0 PUSH1 0xF DUP4 DUP2 SLOAD DUP2 LT PUSH2 0x2F0F JUMPI PUSH2 0x2F0E PUSH2 0x5783 JUMP JUMPDEST JUMPDEST SWAP1 PUSH1 0x0 MSTORE PUSH1 0x20 PUSH1 0x0 KECCAK256 ADD PUSH1 0x0 SWAP1 SLOAD SWAP1 PUSH2 0x100 EXP SWAP1 DIV PUSH20 0xFFFFFFFFFFFFFFFFFFFFFFFFFFFFFFFFFFFFFFFF AND PUSH20 0xFFFFFFFFFFFFFFFFFFFFFFFFFFFFFFFFFFFFFFFF AND PUSH20 0xFFFFFFFFFFFFFFFFFFFFFFFFFFFFFFFFFFFFFFFF AND DUP2 MSTORE PUSH1 0x20 ADD SWAP1 DUP2 MSTORE PUSH1 0x20 ADD PUSH1 0x0 KECCAK256 PUSH1 0x40 MLOAD DUP1 PUSH1 0x60 ADD PUSH1 0x40 MSTORE SWAP1 DUP2 PUSH1 0x0 DUP3 ADD PUSH1 0x0 SWAP1 SLOAD SWAP1 PUSH2 0x100 EXP SWAP1 DIV PUSH1 0xFF AND ISZERO ISZERO ISZERO ISZERO DUP2 MSTORE PUSH1 0x20 ADD PUSH1 0x1 DUP3 ADD DUP1 SLOAD PUSH2 0x2FAA SWAP1 PUSH2 0x564A JUMP JUMPDEST DUP1 PUSH1 0x1F ADD PUSH1 0x20 DUP1 SWAP2 DIV MUL PUSH1 0x20 ADD PUSH1 0x40 MLOAD SWAP1 DUP2 ADD PUSH1 0x40 MSTORE DUP1 SWAP3 SWAP2 SWAP1 DUP2 DUP2 MSTORE PUSH1 0x20 ADD DUP3 DUP1 SLOAD PUSH2 0x2FD6 SWAP1 PUSH2 0x564A JUMP JUMPDEST DUP1 ISZERO PUSH2 0x3023 JUMPI DUP1 PUSH1 0x1F LT PUSH2 0x2FF8 JUMPI PUSH2 0x100 DUP1 DUP4 SLOAD DIV MUL DUP4 MSTORE SWAP2 PUSH1 0x20 ADD SWAP2 PUSH2 0x3023 JUMP JUMPDEST DUP3 ADD SWAP2 SWAP1 PUSH1 0x0 MSTORE PUSH1 0x20 PUSH1 0x0 KECCAK256 SWAP1 JUMPDEST DUP2 SLOAD DUP2 MSTORE SWAP1 PUSH1 0x1 ADD SWAP1 PUSH1 0x20 ADD DUP1 DUP4 GT PUSH2 0x3006 JUMPI DUP3 SWAP1 SUB PUSH1 0x1F AND DUP3 ADD SWAP2 JUMPDEST POP POP POP POP POP DUP2 MSTORE PUSH1 0x20 ADD PUSH1 0x2 DUP3 ADD PUSH1 0x0 SWAP1 SLOAD SWAP1 PUSH2 0x100 EXP SWAP1 DIV PUSH1 0xFF AND PUSH1 0xFF AND PUSH1 0xFF AND DUP2 MSTORE POP POP DUP4 DUP4 DUP1 PUSH2 0x3055 SWAP1 PUSH2 0x56AD JUMP JUMPDEST SWAP5 POP DUP2 MLOAD DUP2 LT PUSH2 0x3068 JUMPI PUSH2 0x3067 PUSH2 0x5783 JUMP JUMPDEST JUMPDEST PUSH1 0x20 MUL PUSH1 0x20 ADD ADD DUP2 SWAP1 MSTORE POP DUP1 DUP1 PUSH2 0x307E SWAP1 PUSH2 0x56AD JUMP JUMPDEST SWAP2 POP POP PUSH2 0x2EEA JUMP JUMPDEST POP DUP2 SWAP3 POP POP POP SWAP1 JUMP JUMPDEST PUSH2 0x3098 DUP5 PUSH2 0x1439 JUMP JUMPDEST ISZERO PUSH2 0x30D8 JUMPI PUSH1 0x40 MLOAD PUSH32 0x8C379A000000000000000000000000000000000000000000000000000000000 DUP2 MSTORE PUSH1 0x4 ADD PUSH2 0x30CF SWAP1 PUSH2 0x51E7 JUMP JUMPDEST PUSH1 0x40 MLOAD DUP1 SWAP2 SUB SWAP1 REVERT JUMPDEST PUSH1 0x1 PUSH1 0x6 PUSH1 0x0 DUP7 PUSH20 0xFFFFFFFFFFFFFFFFFFFFFFFFFFFFFFFFFFFFFFFF AND PUSH20 0xFFFFFFFFFFFFFFFFFFFFFFFFFFFFFFFFFFFFFFFF AND DUP2 MSTORE PUSH1 0x20 ADD SWAP1 DUP2 MSTORE PUSH1 0x20 ADD PUSH1 0x0 KECCAK256 PUSH1 0x0 ADD PUSH1 0x0 PUSH2 0x100 EXP DUP2 SLOAD DUP2 PUSH1 0xFF MUL NOT AND SWAP1 DUP4 ISZERO ISZERO MUL OR SWAP1 SSTORE POP DUP3 PUSH1 0x6 PUSH1 0x0 DUP7 PUSH20 0xFFFFFFFFFFFFFFFFFFFFFFFFFFFFFFFFFFFFFFFF AND PUSH20 0xFFFFFFFFFFFFFFFFFFFFFFFFFFFFFFFFFFFFFFFF AND DUP2 MSTORE PUSH1 0x20 ADD SWAP1 DUP2 MSTORE PUSH1 0x20 ADD PUSH1 0x0 KECCAK256 PUSH1 0x2 ADD SWAP1 DUP1 MLOAD SWAP1 PUSH1 0x20 ADD SWAP1 PUSH2 0x3189 SWAP3 SWAP2 SWAP1 PUSH2 0x4215 JUMP JUMPDEST POP DUP1 PUSH1 0x6 PUSH1 0x0 DUP7 PUSH20 0xFFFFFFFFFFFFFFFFFFFFFFFFFFFFFFFFFFFFFFFF AND PUSH20 0xFFFFFFFFFFFFFFFFFFFFFFFFFFFFFFFFFFFFFFFF AND DUP2 MSTORE PUSH1 0x20 ADD SWAP1 DUP2 MSTORE PUSH1 0x20 ADD PUSH1 0x0 KECCAK256 PUSH1 0x0 ADD PUSH1 0x1 PUSH2 0x100 EXP DUP2 SLOAD DUP2 PUSH1 0xFF MUL NOT AND SWAP1 DUP4 PUSH1 0xFF AND MUL OR SWAP1 SSTORE POP DUP2 PUSH1 0x6 PUSH1 0x0 DUP7 PUSH20 0xFFFFFFFFFFFFFFFFFFFFFFFFFFFFFFFFFFFFFFFF AND PUSH20 0xFFFFFFFFFFFFFFFFFFFFFFFFFFFFFFFFFFFFFFFF AND DUP2 MSTORE PUSH1 0x20 ADD SWAP1 DUP2 MSTORE PUSH1 0x20 ADD PUSH1 0x0 KECCAK256 PUSH1 0x1 ADD DUP2 SWAP1 SSTORE POP PUSH1 0xE DUP5 SWAP1 DUP1 PUSH1 0x1 DUP2 SLOAD ADD DUP1 DUP3 SSTORE DUP1 SWAP2 POP POP PUSH1 0x1 SWAP1 SUB SWAP1 PUSH1 0x0 MSTORE PUSH1 0x20 PUSH1 0x0 KECCAK256 ADD PUSH1 0x0 SWAP1 SWAP2 SWAP1 SWAP2 SWAP1 SWAP2 PUSH2 0x100 EXP DUP2 SLOAD DUP2 PUSH20 0xFFFFFFFFFFFFFFFFFFFFFFFFFFFFFFFFFFFFFFFF MUL NOT AND SWAP1 DUP4 PUSH20 0xFFFFFFFFFFFFFFFFFFFFFFFFFFFFFFFFFFFFFFFF AND MUL OR SWAP1 SSTORE POP POP POP POP POP JUMP JUMPDEST PUSH1 0x60 PUSH1 0x1 PUSH1 0x0 SWAP1 SLOAD SWAP1 PUSH2 0x100 EXP SWAP1 DIV PUSH20 0xFFFFFFFFFFFFFFFFFFFFFFFFFFFFFFFFFFFFFFFF AND PUSH20 0xFFFFFFFFFFFFFFFFFFFFFFFFFFFFFFFFFFFFFFFF AND CALLER PUSH20 0xFFFFFFFFFFFFFFFFFFFFFFFFFFFFFFFFFFFFFFFF AND EQ PUSH2 0x3327 JUMPI PUSH1 0x40 MLOAD PUSH32 0x8C379A000000000000000000000000000000000000000000000000000000000 DUP2 MSTORE PUSH1 0x4 ADD PUSH2 0x331E SWAP1 PUSH2 0x5347 JUMP JUMPDEST PUSH1 0x40 MLOAD DUP1 SWAP2 SUB SWAP1 REVERT JUMPDEST PUSH1 0x0 PUSH1 0xE DUP1 SLOAD SWAP1 POP PUSH8 0xFFFFFFFFFFFFFFFF DUP2 GT ISZERO PUSH2 0x3348 JUMPI PUSH2 0x3347 PUSH2 0x57B2 JUMP JUMPDEST JUMPDEST PUSH1 0x40 MLOAD SWAP1 DUP1 DUP3 MSTORE DUP1 PUSH1 0x20 MUL PUSH1 0x20 ADD DUP3 ADD PUSH1 0x40 MSTORE DUP1 ISZERO PUSH2 0x3381 JUMPI DUP2 PUSH1 0x20 ADD JUMPDEST PUSH2 0x336E PUSH2 0x434D JUMP JUMPDEST DUP2 MSTORE PUSH1 0x20 ADD SWAP1 PUSH1 0x1 SWAP1 SUB SWAP1 DUP2 PUSH2 0x3366 JUMPI SWAP1 POP JUMPDEST POP SWAP1 POP PUSH1 0x0 DUP1 JUMPDEST PUSH1 0xE DUP1 SLOAD SWAP1 POP DUP2 LT ISZERO PUSH2 0x352E JUMPI PUSH1 0x6 PUSH1 0x0 PUSH1 0xE DUP4 DUP2 SLOAD DUP2 LT PUSH2 0x33AD JUMPI PUSH2 0x33AC PUSH2 0x5783 JUMP JUMPDEST JUMPDEST SWAP1 PUSH1 0x0 MSTORE PUSH1 0x20 PUSH1 0x0 KECCAK256 ADD PUSH1 0x0 SWAP1 SLOAD SWAP1 PUSH2 0x100 EXP SWAP1 DIV PUSH20 0xFFFFFFFFFFFFFFFFFFFFFFFFFFFFFFFFFFFFFFFF AND PUSH20 0xFFFFFFFFFFFFFFFFFFFFFFFFFFFFFFFFFFFFFFFF AND PUSH20 0xFFFFFFFFFFFFFFFFFFFFFFFFFFFFFFFFFFFFFFFF AND DUP2 MSTORE PUSH1 0x20 ADD SWAP1 DUP2 MSTORE PUSH1 0x20 ADD PUSH1 0x0 KECCAK256 PUSH1 0x40 MLOAD DUP1 PUSH1 0x80 ADD PUSH1 0x40 MSTORE SWAP1 DUP2 PUSH1 0x0 DUP3 ADD PUSH1 0x0 SWAP1 SLOAD SWAP1 PUSH2 0x100 EXP SWAP1 DIV PUSH1 0xFF AND ISZERO ISZERO ISZERO ISZERO DUP2 MSTORE PUSH1 0x20 ADD PUSH1 0x0 DUP3 ADD PUSH1 0x1 SWAP1 SLOAD SWAP1 PUSH2 0x100 EXP SWAP1 DIV PUSH1 0xFF AND PUSH1 0xFF AND PUSH1 0xFF AND DUP2 MSTORE PUSH1 0x20 ADD PUSH1 0x1 DUP3 ADD SLOAD DUP2 MSTORE PUSH1 0x20 ADD PUSH1 0x2 DUP3 ADD DUP1 SLOAD PUSH2 0x346F SWAP1 PUSH2 0x564A JUMP JUMPDEST DUP1 PUSH1 0x1F ADD PUSH1 0x20 DUP1 SWAP2 DIV MUL PUSH1 0x20 ADD PUSH1 0x40 MLOAD SWAP1 DUP2 ADD PUSH1 0x40 MSTORE DUP1 SWAP3 SWAP2 SWAP1 DUP2 DUP2 MSTORE PUSH1 0x20 ADD DUP3 DUP1 SLOAD PUSH2 0x349B SWAP1 PUSH2 0x564A JUMP JUMPDEST DUP1 ISZERO PUSH2 0x34E8 JUMPI DUP1 PUSH1 0x1F LT PUSH2 0x34BD JUMPI PUSH2 0x100 DUP1 DUP4 SLOAD DIV MUL DUP4 MSTORE SWAP2 PUSH1 0x20 ADD SWAP2 PUSH2 0x34E8 JUMP JUMPDEST DUP3 ADD SWAP2 SWAP1 PUSH1 0x0 MSTORE PUSH1 0x20 PUSH1 0x0 KECCAK256 SWAP1 JUMPDEST DUP2 SLOAD DUP2 MSTORE SWAP1 PUSH1 0x1 ADD SWAP1 PUSH1 0x20 ADD DUP1 DUP4 GT PUSH2 0x34CB JUMPI DUP3 SWAP1 SUB PUSH1 0x1F AND DUP3 ADD SWAP2 JUMPDEST POP POP POP POP POP DUP2 MSTORE POP POP DUP4 DUP4 DUP1 PUSH2 0x34FD SWAP1 PUSH2 0x56AD JUMP JUMPDEST SWAP5 POP DUP2 MLOAD DUP2 LT PUSH2 0x3510 JUMPI PUSH2 0x350F PUSH2 0x5783 JUMP JUMPDEST JUMPDEST PUSH1 0x20 MUL PUSH1 0x20 ADD ADD DUP2 SWAP1 MSTORE POP DUP1 DUP1 PUSH2 0x3526 SWAP1 PUSH2 0x56AD JUMP JUMPDEST SWAP2 POP POP PUSH2 0x3388 JUMP JUMPDEST POP DUP2 SWAP3 POP POP POP SWAP1 JUMP JUMPDEST PUSH2 0x3540 DUP4 PUSH2 0xD4C JUMP JUMPDEST PUSH2 0x357F JUMPI PUSH1 0x40 MLOAD PUSH32 0x8C379A000000000000000000000000000000000000000000000000000000000 DUP2 MSTORE PUSH1 0x4 ADD PUSH2 0x3576 SWAP1 PUSH2 0x5327 JUMP JUMPDEST PUSH1 0x40 MLOAD DUP1 SWAP2 SUB SWAP1 REVERT JUMPDEST PUSH1 0x1 PUSH1 0x7 PUSH1 0x0 DUP6 PUSH20 0xFFFFFFFFFFFFFFFFFFFFFFFFFFFFFFFFFFFFFFFF AND PUSH20 0xFFFFFFFFFFFFFFFFFFFFFFFFFFFFFFFFFFFFFFFF AND DUP2 MSTORE PUSH1 0x20 ADD SWAP1 DUP2 MSTORE PUSH1 0x20 ADD PUSH1 0x0 KECCAK256 PUSH1 0x0 ADD PUSH1 0x0 PUSH2 0x100 EXP DUP2 SLOAD DUP2 PUSH1 0xFF MUL NOT AND SWAP1 DUP4 ISZERO ISZERO MUL OR SWAP1 SSTORE POP DUP2 PUSH1 0x7 PUSH1 0x0 DUP6 PUSH20 0xFFFFFFFFFFFFFFFFFFFFFFFFFFFFFFFFFFFFFFFF AND PUSH20 0xFFFFFFFFFFFFFFFFFFFFFFFFFFFFFFFFFFFFFFFF AND DUP2 MSTORE PUSH1 0x20 ADD SWAP1 DUP2 MSTORE PUSH1 0x20 ADD PUSH1 0x0 KECCAK256 PUSH1 0x1 ADD SWAP1 DUP1 MLOAD SWAP1 PUSH1 0x20 ADD SWAP1 PUSH2 0x3630 SWAP3 SWAP2 SWAP1 PUSH2 0x4215 JUMP JUMPDEST POP DUP1 PUSH1 0x7 PUSH1 0x0 DUP6 PUSH20 0xFFFFFFFFFFFFFFFFFFFFFFFFFFFFFFFFFFFFFFFF AND PUSH20 0xFFFFFFFFFFFFFFFFFFFFFFFFFFFFFFFFFFFFFFFF AND DUP2 MSTORE PUSH1 0x20 ADD SWAP1 DUP2 MSTORE PUSH1 0x20 ADD PUSH1 0x0 KECCAK256 PUSH1 0x2 ADD PUSH1 0x0 PUSH2 0x100 EXP DUP2 SLOAD DUP2 PUSH1 0xFF MUL NOT AND SWAP1 DUP4 PUSH1 0xFF AND MUL OR SWAP1 SSTORE POP POP POP POP JUMP JUMPDEST PUSH1 0x60 PUSH1 0x2 PUSH1 0x0 SWAP1 SLOAD SWAP1 PUSH2 0x100 EXP SWAP1 DIV PUSH20 0xFFFFFFFFFFFFFFFFFFFFFFFFFFFFFFFFFFFFFFFF AND PUSH20 0xFFFFFFFFFFFFFFFFFFFFFFFFFFFFFFFFFFFFFFFF AND CALLER PUSH20 0xFFFFFFFFFFFFFFFFFFFFFFFFFFFFFFFFFFFFFFFF AND EQ PUSH2 0x3723 JUMPI PUSH1 0x40 MLOAD PUSH32 0x8C379A000000000000000000000000000000000000000000000000000000000 DUP2 MSTORE PUSH1 0x4 ADD PUSH2 0x371A SWAP1 PUSH2 0x5207 JUMP JUMPDEST PUSH1 0x40 MLOAD DUP1 SWAP2 SUB SWAP1 REVERT JUMPDEST PUSH1 0x0 PUSH1 0x10 DUP1 SLOAD SWAP1 POP PUSH8 0xFFFFFFFFFFFFFFFF DUP2 GT ISZERO PUSH2 0x3744 JUMPI PUSH2 0x3743 PUSH2 0x57B2 JUMP JUMPDEST JUMPDEST PUSH1 0x40 MLOAD SWAP1 DUP1 DUP3 MSTORE DUP1 PUSH1 0x20 MUL PUSH1 0x20 ADD DUP3 ADD PUSH1 0x40 MSTORE DUP1 ISZERO PUSH2 0x377D JUMPI DUP2 PUSH1 0x20 ADD JUMPDEST PUSH2 0x376A PUSH2 0x437A JUMP JUMPDEST DUP2 MSTORE PUSH1 0x20 ADD SWAP1 PUSH1 0x1 SWAP1 SUB SWAP1 DUP2 PUSH2 0x3762 JUMPI SWAP1 POP JUMPDEST POP SWAP1 POP PUSH1 0x0 DUP1 JUMPDEST PUSH1 0x10 DUP1 SLOAD SWAP1 POP DUP2 LT ISZERO PUSH2 0x3920 JUMPI PUSH1 0x8 PUSH1 0x0 PUSH1 0x10 DUP4 DUP2 SLOAD DUP2 LT PUSH2 0x37A9 JUMPI PUSH2 0x37A8 PUSH2 0x5783 JUMP JUMPDEST JUMPDEST SWAP1 PUSH1 0x0 MSTORE PUSH1 0x20 PUSH1 0x0 KECCAK256 ADD PUSH1 0x0 SWAP1 SLOAD SWAP1 PUSH2 0x100 EXP SWAP1 DIV PUSH20 0xFFFFFFFFFFFFFFFFFFFFFFFFFFFFFFFFFFFFFFFF AND PUSH20 0xFFFFFFFFFFFFFFFFFFFFFFFFFFFFFFFFFFFFFFFF AND PUSH20 0xFFFFFFFFFFFFFFFFFFFFFFFFFFFFFFFFFFFFFFFF AND DUP2 MSTORE PUSH1 0x20 ADD SWAP1 DUP2 MSTORE PUSH1 0x20 ADD PUSH1 0x0 KECCAK256 PUSH1 0x40 MLOAD DUP1 PUSH1 0x60 ADD PUSH1 0x40 MSTORE SWAP1 DUP2 PUSH1 0x0 DUP3 ADD PUSH1 0x0 SWAP1 SLOAD SWAP1 PUSH2 0x100 EXP SWAP1 DIV PUSH1 0xFF AND ISZERO ISZERO ISZERO ISZERO DUP2 MSTORE PUSH1 0x20 ADD PUSH1 0x1 DUP3 ADD DUP1 SLOAD PUSH2 0x3844 SWAP1 PUSH2 0x564A JUMP JUMPDEST DUP1 PUSH1 0x1F ADD PUSH1 0x20 DUP1 SWAP2 DIV MUL PUSH1 0x20 ADD PUSH1 0x40 MLOAD SWAP1 DUP2 ADD PUSH1 0x40 MSTORE DUP1 SWAP3 SWAP2 SWAP1 DUP2 DUP2 MSTORE PUSH1 0x20 ADD DUP3 DUP1 SLOAD PUSH2 0x3870 SWAP1 PUSH2 0x564A JUMP JUMPDEST DUP1 ISZERO PUSH2 0x38BD JUMPI DUP1 PUSH1 0x1F LT PUSH2 0x3892 JUMPI PUSH2 0x100 DUP1 DUP4 SLOAD DIV MUL DUP4 MSTORE SWAP2 PUSH1 0x20 ADD SWAP2 PUSH2 0x38BD JUMP JUMPDEST DUP3 ADD SWAP2 SWAP1 PUSH1 0x0 MSTORE PUSH1 0x20 PUSH1 0x0 KECCAK256 SWAP1 JUMPDEST DUP2 SLOAD DUP2 MSTORE SWAP1 PUSH1 0x1 ADD SWAP1 PUSH1 0x20 ADD DUP1 DUP4 GT PUSH2 0x38A0 JUMPI DUP3 SWAP1 SUB PUSH1 0x1F AND DUP3 ADD SWAP2 JUMPDEST POP POP POP POP POP DUP2 MSTORE PUSH1 0x20 ADD PUSH1 0x2 DUP3 ADD PUSH1 0x0 SWAP1 SLOAD SWAP1 PUSH2 0x100 EXP SWAP1 DIV PUSH1 0xFF AND PUSH1 0xFF AND PUSH1 0xFF AND DUP2 MSTORE POP POP DUP4 DUP4 DUP1 PUSH2 0x38EF SWAP1 PUSH2 0x56AD JUMP JUMPDEST SWAP5 POP DUP2 MLOAD DUP2 LT PUSH2 0x3902 JUMPI PUSH2 0x3901 PUSH2 0x5783 JUMP JUMPDEST JUMPDEST PUSH1 0x20 MUL PUSH1 0x20 ADD ADD DUP2 SWAP1 MSTORE POP DUP1 DUP1 PUSH2 0x3918 SWAP1 PUSH2 0x56AD JUMP JUMPDEST SWAP2 POP POP PUSH2 0x3784 JUMP JUMPDEST POP DUP2 SWAP3 POP POP POP SWAP1 JUMP JUMPDEST PUSH1 0x0 DUP2 PUSH20 0xFFFFFFFFFFFFFFFFFFFFFFFFFFFFFFFFFFFFFFFF AND PUSH1 0x0 DUP1 SLOAD SWAP1 PUSH2 0x100 EXP SWAP1 DIV PUSH20 0xFFFFFFFFFFFFFFFFFFFFFFFFFFFFFFFFFFFFFFFF AND PUSH20 0xFFFFFFFFFFFFFFFFFFFFFFFFFFFFFFFFFFFFFFFF AND EQ SWAP1 POP SWAP2 SWAP1 POP JUMP JUMPDEST PUSH1 0x11 DUP2 DUP2 SLOAD DUP2 LT PUSH2 0x3991 JUMPI PUSH1 0x0 DUP1 REVERT JUMPDEST SWAP1 PUSH1 0x0 MSTORE PUSH1 0x20 PUSH1 0x0 KECCAK256 ADD PUSH1 0x0 SWAP2 POP SLOAD SWAP1 PUSH2 0x100 EXP SWAP1 DIV PUSH20 0xFFFFFFFFFFFFFFFFFFFFFFFFFFFFFFFFFFFFFFFF AND DUP2 JUMP JUMPDEST PUSH2 0x39C9 DUP2 PUSH2 0x1E1E JUMP JUMPDEST PUSH2 0x3A08 JUMPI PUSH1 0x40 MLOAD PUSH32 0x8C379A000000000000000000000000000000000000000000000000000000000 DUP2 MSTORE PUSH1 0x4 ADD PUSH2 0x39FF SWAP1 PUSH2 0x5247 JUMP JUMPDEST PUSH1 0x40 MLOAD DUP1 SWAP2 SUB SWAP1 REVERT JUMPDEST PUSH1 0x9 PUSH1 0x0 DUP3 PUSH20 0xFFFFFFFFFFFFFFFFFFFFFFFFFFFFFFFFFFFFFFFF AND PUSH20 0xFFFFFFFFFFFFFFFFFFFFFFFFFFFFFFFFFFFFFFFF AND DUP2 MSTORE PUSH1 0x20 ADD SWAP1 DUP2 MSTORE PUSH1 0x20 ADD PUSH1 0x0 KECCAK256 PUSH1 0x0 DUP1 DUP3 ADD PUSH1 0x0 PUSH2 0x100 EXP DUP2 SLOAD SWAP1 PUSH1 0xFF MUL NOT AND SWAP1 SSTORE PUSH1 0x1 DUP3 ADD PUSH1 0x0 PUSH2 0x3A6C SWAP2 SWAP1 PUSH2 0x429B JUMP JUMPDEST PUSH1 0x2 DUP3 ADD PUSH1 0x0 PUSH2 0x100 EXP DUP2 SLOAD SWAP1 PUSH1 0xFF MUL NOT AND SWAP1 SSTORE POP POP POP JUMP JUMPDEST PUSH1 0x0 PUSH1 0xA PUSH1 0x0 DUP4 PUSH20 0xFFFFFFFFFFFFFFFFFFFFFFFFFFFFFFFFFFFFFFFF AND PUSH20 0xFFFFFFFFFFFFFFFFFFFFFFFFFFFFFFFFFFFFFFFF AND DUP2 MSTORE PUSH1 0x20 ADD SWAP1 DUP2 MSTORE PUSH1 0x20 ADD PUSH1 0x0 KECCAK256 PUSH1 0x0 ADD PUSH1 0x0 SWAP1 SLOAD SWAP1 PUSH2 0x100 EXP SWAP1 DIV PUSH1 0xFF AND SWAP1 POP SWAP2 SWAP1 POP JUMP JUMPDEST PUSH1 0x0 DUP2 PUSH20 0xFFFFFFFFFFFFFFFFFFFFFFFFFFFFFFFFFFFFFFFF AND PUSH1 0x2 PUSH1 0x0 SWAP1 SLOAD SWAP1 PUSH2 0x100 EXP SWAP1 DIV PUSH20 0xFFFFFFFFFFFFFFFFFFFFFFFFFFFFFFFFFFFFFFFF AND PUSH20 0xFFFFFFFFFFFFFFFFFFFFFFFFFFFFFFFFFFFFFFFF AND EQ SWAP1 POP SWAP2 SWAP1 POP JUMP JUMPDEST PUSH1 0xF DUP2 DUP2 SLOAD DUP2 LT PUSH2 0x3B48 JUMPI PUSH1 0x0 DUP1 REVERT JUMPDEST SWAP1 PUSH1 0x0 MSTORE PUSH1 0x20 PUSH1 0x0 KECCAK256 ADD PUSH1 0x0 SWAP2 POP SLOAD SWAP1 PUSH2 0x100 EXP SWAP1 DIV PUSH20 0xFFFFFFFFFFFFFFFFFFFFFFFFFFFFFFFFFFFFFFFF AND DUP2 JUMP JUMPDEST PUSH1 0x0 PUSH1 0x4 PUSH1 0x0 DUP4 PUSH20 0xFFFFFFFFFFFFFFFFFFFFFFFFFFFFFFFFFFFFFFFF AND PUSH20 0xFFFFFFFFFFFFFFFFFFFFFFFFFFFFFFFFFFFFFFFF AND DUP2 MSTORE PUSH1 0x20 ADD SWAP1 DUP2 MSTORE PUSH1 0x20 ADD PUSH1 0x0 KECCAK256 PUSH1 0x0 ADD PUSH1 0x0 SWAP1 SLOAD SWAP1 PUSH2 0x100 EXP SWAP1 DIV PUSH1 0xFF AND SWAP1 POP SWAP2 SWAP1 POP JUMP JUMPDEST PUSH1 0xC DUP2 DUP2 SLOAD DUP2 LT PUSH2 0x3BE0 JUMPI PUSH1 0x0 DUP1 REVERT JUMPDEST SWAP1 PUSH1 0x0 MSTORE PUSH1 0x20 PUSH1 0x0 KECCAK256 ADD PUSH1 0x0 SWAP2 POP SLOAD SWAP1 PUSH2 0x100 EXP SWAP1 DIV PUSH20 0xFFFFFFFFFFFFFFFFFFFFFFFFFFFFFFFFFFFFFFFF AND DUP2 JUMP JUMPDEST PUSH2 0x3C18 DUP3 PUSH2 0x2A74 JUMP JUMPDEST PUSH2 0x3C57 JUMPI PUSH1 0x40 MLOAD PUSH32 0x8C379A000000000000000000000000000000000000000000000000000000000 DUP2 MSTORE PUSH1 0x4 ADD PUSH2 0x3C4E SWAP1 PUSH2 0x51A7 JUMP JUMPDEST PUSH1 0x40 MLOAD DUP1 SWAP2 SUB SWAP1 REVERT JUMPDEST DUP1 PUSH1 0x3 PUSH1 0x0 DUP5 PUSH20 0xFFFFFFFFFFFFFFFFFFFFFFFFFFFFFFFFFFFFFFFF AND PUSH20 0xFFFFFFFFFFFFFFFFFFFFFFFFFFFFFFFFFFFFFFFF AND DUP2 MSTORE PUSH1 0x20 ADD SWAP1 DUP2 MSTORE PUSH1 0x20 ADD PUSH1 0x0 KECCAK256 PUSH1 0x0 ADD PUSH1 0x0 PUSH2 0x100 EXP DUP2 SLOAD DUP2 PUSH1 0xFF MUL NOT AND SWAP1 DUP4 ISZERO ISZERO MUL OR SWAP1 SSTORE POP POP POP JUMP JUMPDEST PUSH2 0x3CBE DUP2 PUSH2 0x2A74 JUMP JUMPDEST ISZERO PUSH2 0x3CFE JUMPI PUSH1 0x40 MLOAD PUSH32 0x8C379A000000000000000000000000000000000000000000000000000000000 DUP2 MSTORE PUSH1 0x4 ADD PUSH2 0x3CF5 SWAP1 PUSH2 0x52C7 JUMP JUMPDEST PUSH1 0x40 MLOAD DUP1 SWAP2 SUB SWAP1 REVERT JUMPDEST PUSH1 0x1 PUSH1 0x3 PUSH1 0x0 DUP4 PUSH20 0xFFFFFFFFFFFFFFFFFFFFFFFFFFFFFFFFFFFFFFFF AND PUSH20 0xFFFFFFFFFFFFFFFFFFFFFFFFFFFFFFFFFFFFFFFF AND DUP2 MSTORE PUSH1 0x20 ADD SWAP1 DUP2 MSTORE PUSH1 0x20 ADD PUSH1 0x0 KECCAK256 PUSH1 0x0 ADD PUSH1 0x0 PUSH2 0x100 EXP DUP2 SLOAD DUP2 PUSH1 0xFF MUL NOT AND SWAP1 DUP4 ISZERO ISZERO MUL OR SWAP1 SSTORE POP PUSH1 0xC DUP2 SWAP1 DUP1 PUSH1 0x1 DUP2 SLOAD ADD DUP1 DUP3 SSTORE DUP1 SWAP2 POP POP PUSH1 0x1 SWAP1 SUB SWAP1 PUSH1 0x0 MSTORE PUSH1 0x20 PUSH1 0x0 KECCAK256 ADD PUSH1 0x0 SWAP1 SWAP2 SWAP1 SWAP2 SWAP1 SWAP2 PUSH2 0x100 EXP DUP2 SLOAD DUP2 PUSH20 0xFFFFFFFFFFFFFFFFFFFFFFFFFFFFFFFFFFFFFFFF MUL NOT AND SWAP1 DUP4 PUSH20 0xFFFFFFFFFFFFFFFFFFFFFFFFFFFFFFFFFFFFFFFF AND MUL OR SWAP1 SSTORE POP POP JUMP JUMPDEST PUSH2 0x3DC8 DUP4 PUSH2 0x197A JUMP JUMPDEST ISZERO PUSH2 0x3E08 JUMPI PUSH1 0x40 MLOAD PUSH32 0x8C379A000000000000000000000000000000000000000000000000000000000 DUP2 MSTORE PUSH1 0x4 ADD PUSH2 0x3DFF SWAP1 PUSH2 0x51C7 JUMP JUMPDEST PUSH1 0x40 MLOAD DUP1 SWAP2 SUB SWAP1 REVERT JUMPDEST PUSH1 0x1 PUSH1 0x8 PUSH1 0x0 DUP6 PUSH20 0xFFFFFFFFFFFFFFFFFFFFFFFFFFFFFFFFFFFFFFFF AND PUSH20 0xFFFFFFFFFFFFFFFFFFFFFFFFFFFFFFFFFFFFFFFF AND DUP2 MSTORE PUSH1 0x20 ADD SWAP1 DUP2 MSTORE PUSH1 0x20 ADD PUSH1 0x0 KECCAK256 PUSH1 0x0 ADD PUSH1 0x0 PUSH2 0x100 EXP DUP2 SLOAD DUP2 PUSH1 0xFF MUL NOT AND SWAP1 DUP4 ISZERO ISZERO MUL OR SWAP1 SSTORE POP DUP2 PUSH1 0x8 PUSH1 0x0 DUP6 PUSH20 0xFFFFFFFFFFFFFFFFFFFFFFFFFFFFFFFFFFFFFFFF AND PUSH20 0xFFFFFFFFFFFFFFFFFFFFFFFFFFFFFFFFFFFFFFFF AND DUP2 MSTORE PUSH1 0x20 ADD SWAP1 DUP2 MSTORE PUSH1 0x20 ADD PUSH1 0x0 KECCAK256 PUSH1 0x1 ADD SWAP1 DUP1 MLOAD SWAP1 PUSH1 0x20 ADD SWAP1 PUSH2 0x3EB9 SWAP3 SWAP2 SWAP1 PUSH2 0x4215 JUMP JUMPDEST POP DUP1 PUSH1 0x8 PUSH1 0x0 DUP6 PUSH20 0xFFFFFFFFFFFFFFFFFFFFFFFFFFFFFFFFFFFFFFFF AND PUSH20 0xFFFFFFFFFFFFFFFFFFFFFFFFFFFFFFFFFFFFFFFF AND DUP2 MSTORE PUSH1 0x20 ADD SWAP1 DUP2 MSTORE PUSH1 0x20 ADD PUSH1 0x0 KECCAK256 PUSH1 0x2 ADD PUSH1 0x0 PUSH2 0x100 EXP DUP2 SLOAD DUP2 PUSH1 0xFF MUL NOT AND SWAP1 DUP4 PUSH1 0xFF AND MUL OR SWAP1 SSTORE POP PUSH1 0x10 DUP4 SWAP1 DUP1 PUSH1 0x1 DUP2 SLOAD ADD DUP1 DUP3 SSTORE DUP1 SWAP2 POP POP PUSH1 0x1 SWAP1 SUB SWAP1 PUSH1 0x0 MSTORE PUSH1 0x20 PUSH1 0x0 KECCAK256 ADD PUSH1 0x0 SWAP1 SWAP2 SWAP1 SWAP2 SWAP1 SWAP2 PUSH2 0x100 EXP DUP2 SLOAD DUP2 PUSH20 0xFFFFFFFFFFFFFFFFFFFFFFFFFFFFFFFFFFFFFFFF MUL NOT AND SWAP1 DUP4 PUSH20 0xFFFFFFFFFFFFFFFFFFFFFFFFFFFFFFFFFFFFFFFF AND MUL OR SWAP1 SSTORE POP POP POP POP JUMP JUMPDEST PUSH1 0x60 PUSH1 0x1 PUSH1 0x0 SWAP1 SLOAD SWAP1 PUSH2 0x100 EXP SWAP1 DIV PUSH20 0xFFFFFFFFFFFFFFFFFFFFFFFFFFFFFFFFFFFFFFFF AND PUSH20 0xFFFFFFFFFFFFFFFFFFFFFFFFFFFFFFFFFFFFFFFF AND CALLER PUSH20 0xFFFFFFFFFFFFFFFFFFFFFFFFFFFFFFFFFFFFFFFF AND EQ PUSH2 0x400F JUMPI PUSH1 0x40 MLOAD PUSH32 0x8C379A000000000000000000000000000000000000000000000000000000000 DUP2 MSTORE PUSH1 0x4 ADD PUSH2 0x4006 SWAP1 PUSH2 0x5347 JUMP JUMPDEST PUSH1 0x40 MLOAD DUP1 SWAP2 SUB SWAP1 REVERT JUMPDEST PUSH1 0x0 PUSH1 0x12 DUP1 SLOAD SWAP1 POP PUSH8 0xFFFFFFFFFFFFFFFF DUP2 GT ISZERO PUSH2 0x4030 JUMPI PUSH2 0x402F PUSH2 0x57B2 JUMP JUMPDEST JUMPDEST PUSH1 0x40 MLOAD SWAP1 DUP1 DUP3 MSTORE DUP1 PUSH1 0x20 MUL PUSH1 0x20 ADD DUP3 ADD PUSH1 0x40 MSTORE DUP1 ISZERO PUSH2 0x4069 JUMPI DUP2 PUSH1 0x20 ADD JUMPDEST PUSH2 0x4056 PUSH2 0x43A0 JUMP JUMPDEST DUP2 MSTORE PUSH1 0x20 ADD SWAP1 PUSH1 0x1 SWAP1 SUB SWAP1 DUP2 PUSH2 0x404E JUMPI SWAP1 POP JUMPDEST POP SWAP1 POP PUSH1 0x0 DUP1 JUMPDEST PUSH1 0x12 DUP1 SLOAD SWAP1 POP DUP2 LT ISZERO PUSH2 0x420C JUMPI PUSH1 0xA PUSH1 0x0 PUSH1 0x12 DUP4 DUP2 SLOAD DUP2 LT PUSH2 0x4095 JUMPI PUSH2 0x4094 PUSH2 0x5783 JUMP JUMPDEST JUMPDEST SWAP1 PUSH1 0x0 MSTORE PUSH1 0x20 PUSH1 0x0 KECCAK256 ADD PUSH1 0x0 SWAP1 SLOAD SWAP1 PUSH2 0x100 EXP SWAP1 DIV PUSH20 0xFFFFFFFFFFFFFFFFFFFFFFFFFFFFFFFFFFFFFFFF AND PUSH20 0xFFFFFFFFFFFFFFFFFFFFFFFFFFFFFFFFFFFFFFFF AND PUSH20 0xFFFFFFFFFFFFFFFFFFFFFFFFFFFFFFFFFFFFFFFF AND DUP2 MSTORE PUSH1 0x20 ADD SWAP1 DUP2 MSTORE PUSH1 0x20 ADD PUSH1 0x0 KECCAK256 PUSH1 0x40 MLOAD DUP1 PUSH1 0x60 ADD PUSH1 0x40 MSTORE SWAP1 DUP2 PUSH1 0x0 DUP3 ADD PUSH1 0x0 SWAP1 SLOAD SWAP1 PUSH2 0x100 EXP SWAP1 DIV PUSH1 0xFF AND ISZERO ISZERO ISZERO ISZERO DUP2 MSTORE PUSH1 0x20 ADD PUSH1 0x1 DUP3 ADD DUP1 SLOAD PUSH2 0x4130 SWAP1 PUSH2 0x564A JUMP JUMPDEST DUP1 PUSH1 0x1F ADD PUSH1 0x20 DUP1 SWAP2 DIV MUL PUSH1 0x20 ADD PUSH1 0x40 MLOAD SWAP1 DUP2 ADD PUSH1 0x40 MSTORE DUP1 SWAP3 SWAP2 SWAP1 DUP2 DUP2 MSTORE PUSH1 0x20 ADD DUP3 DUP1 SLOAD PUSH2 0x415C SWAP1 PUSH2 0x564A JUMP JUMPDEST DUP1 ISZERO PUSH2 0x41A9 JUMPI DUP1 PUSH1 0x1F LT PUSH2 0x417E JUMPI PUSH2 0x100 DUP1 DUP4 SLOAD DIV MUL DUP4 MSTORE SWAP2 PUSH1 0x20 ADD SWAP2 PUSH2 0x41A9 JUMP JUMPDEST DUP3 ADD SWAP2 SWAP1 PUSH1 0x0 MSTORE PUSH1 0x20 PUSH1 0x0 KECCAK256 SWAP1 JUMPDEST DUP2 SLOAD DUP2 MSTORE SWAP1 PUSH1 0x1 ADD SWAP1 PUSH1 0x20 ADD DUP1 DUP4 GT PUSH2 0x418C JUMPI DUP3 SWAP1 SUB PUSH1 0x1F AND DUP3 ADD SWAP2 JUMPDEST POP POP POP POP POP DUP2 MSTORE PUSH1 0x20 ADD PUSH1 0x2 DUP3 ADD PUSH1 0x0 SWAP1 SLOAD SWAP1 PUSH2 0x100 EXP SWAP1 DIV PUSH1 0xFF AND PUSH1 0xFF AND PUSH1 0xFF AND DUP2 MSTORE POP POP DUP4 DUP4 DUP1 PUSH2 0x41DB SWAP1 PUSH2 0x56AD JUMP JUMPDEST SWAP5 POP DUP2 MLOAD DUP2 LT PUSH2 0x41EE JUMPI PUSH2 0x41ED PUSH2 0x5783 JUMP JUMPDEST JUMPDEST PUSH1 0x20 MUL PUSH1 0x20 ADD ADD DUP2 SWAP1 MSTORE POP DUP1 DUP1 PUSH2 0x4204 SWAP1 PUSH2 0x56AD JUMP JUMPDEST SWAP2 POP POP PUSH2 0x4070 JUMP JUMPDEST POP DUP2 SWAP3 POP POP POP SWAP1 JUMP JUMPDEST DUP3 DUP1 SLOAD PUSH2 0x4221 SWAP1 PUSH2 0x564A JUMP JUMPDEST SWAP1 PUSH1 0x0 MSTORE PUSH1 0x20 PUSH1 0x0 KECCAK256 SWAP1 PUSH1 0x1F ADD PUSH1 0x20 SWAP1 DIV DUP2 ADD SWAP3 DUP3 PUSH2 0x4243 JUMPI PUSH1 0x0 DUP6 SSTORE PUSH2 0x428A JUMP JUMPDEST DUP3 PUSH1 0x1F LT PUSH2 0x425C JUMPI DUP1 MLOAD PUSH1 0xFF NOT AND DUP4 DUP1 ADD OR DUP6 SSTORE PUSH2 0x428A JUMP JUMPDEST DUP3 DUP1 ADD PUSH1 0x1 ADD DUP6 SSTORE DUP3 ISZERO PUSH2 0x428A JUMPI SWAP2 DUP3 ADD JUMPDEST DUP3 DUP2 GT ISZERO PUSH2 0x4289 JUMPI DUP3 MLOAD DUP3 SSTORE SWAP2 PUSH1 0x20 ADD SWAP2 SWAP1 PUSH1 0x1 ADD SWAP1 PUSH2 0x426E JUMP JUMPDEST JUMPDEST POP SWAP1 POP PUSH2 0x4297 SWAP2 SWAP1 PUSH2 0x43C6 JUMP JUMPDEST POP SWAP1 JUMP JUMPDEST POP DUP1 SLOAD PUSH2 0x42A7 SWAP1 PUSH2 0x564A JUMP JUMPDEST PUSH1 0x0 DUP3 SSTORE DUP1 PUSH1 0x1F LT PUSH2 0x42B9 JUMPI POP PUSH2 0x42D8 JUMP JUMPDEST PUSH1 0x1F ADD PUSH1 0x20 SWAP1 DIV SWAP1 PUSH1 0x0 MSTORE PUSH1 0x20 PUSH1 0x0 KECCAK256 SWAP1 DUP2 ADD SWAP1 PUSH2 0x42D7 SWAP2 SWAP1 PUSH2 0x43C6 JUMP JUMPDEST JUMPDEST POP JUMP JUMPDEST PUSH1 0x40 MLOAD DUP1 PUSH1 0x60 ADD PUSH1 0x40 MSTORE DUP1 PUSH1 0x0 ISZERO ISZERO DUP2 MSTORE PUSH1 0x20 ADD PUSH1 0x60 DUP2 MSTORE PUSH1 0x20 ADD PUSH1 0x0 PUSH1 0xFF AND DUP2 MSTORE POP SWAP1 JUMP JUMPDEST PUSH1 0x40 MLOAD DUP1 PUSH1 0x60 ADD PUSH1 0x40 MSTORE DUP1 PUSH1 0x0 ISZERO ISZERO DUP2 MSTORE PUSH1 0x20 ADD PUSH1 0x60 DUP2 MSTORE PUSH1 0x20 ADD PUSH1 0x0 PUSH1 0xFF AND DUP2 MSTORE POP SWAP1 JUMP JUMPDEST PUSH1 0x40 MLOAD DUP1 PUSH1 0x60 ADD PUSH1 0x40 MSTORE DUP1 PUSH1 0x0 ISZERO ISZERO DUP2 MSTORE PUSH1 0x20 ADD PUSH1 0x60 DUP2 MSTORE PUSH1 0x20 ADD PUSH1 0x0 PUSH1 0xFF AND DUP2 MSTORE POP SWAP1 JUMP JUMPDEST PUSH1 0x40 MLOAD DUP1 PUSH1 0x80 ADD PUSH1 0x40 MSTORE DUP1 PUSH1 0x0 ISZERO ISZERO DUP2 MSTORE PUSH1 0x20 ADD PUSH1 0x0 PUSH1 0xFF AND DUP2 MSTORE PUSH1 0x20 ADD PUSH1 0x0 DUP2 MSTORE PUSH1 0x20 ADD PUSH1 0x60 DUP2 MSTORE POP SWAP1 JUMP JUMPDEST PUSH1 0x40 MLOAD DUP1 PUSH1 0x60 ADD PUSH1 0x40 MSTORE DUP1 PUSH1 0x0 ISZERO ISZERO DUP2 MSTORE PUSH1 0x20 ADD PUSH1 0x60 DUP2 MSTORE PUSH1 0x20 ADD PUSH1 0x0 PUSH1 0xFF AND DUP2 MSTORE POP SWAP1 JUMP JUMPDEST PUSH1 0x40 MLOAD DUP1 PUSH1 0x60 ADD PUSH1 0x40 MSTORE DUP1 PUSH1 0x0 ISZERO ISZERO DUP2 MSTORE PUSH1 0x20 ADD PUSH1 0x60 DUP2 MSTORE PUSH1 0x20 ADD PUSH1 0x0 PUSH1 0xFF AND DUP2 MSTORE POP SWAP1 JUMP JUMPDEST JUMPDEST DUP1 DUP3 GT ISZERO PUSH2 0x43DF JUMPI PUSH1 0x0 DUP2 PUSH1 0x0 SWAP1 SSTORE POP PUSH1 0x1 ADD PUSH2 0x43C7 JUMP JUMPDEST POP SWAP1 JUMP JUMPDEST PUSH1 0x0 PUSH2 0x43F6 PUSH2 0x43F1 DUP5 PUSH2 0x53BC JUMP JUMPDEST PUSH2 0x5397 JUMP JUMPDEST SWAP1 POP DUP3 DUP2 MSTORE PUSH1 0x20 DUP2 ADD DUP5 DUP5 DUP5 ADD GT ISZERO PUSH2 0x4412 JUMPI PUSH2 0x4411 PUSH2 0x57E6 JUMP JUMPDEST JUMPDEST PUSH2 0x441D DUP5 DUP3 DUP6 PUSH2 0x5608 JUMP JUMPDEST POP SWAP4 SWAP3 POP POP POP JUMP JUMPDEST PUSH1 0x0 DUP2 CALLDATALOAD SWAP1 POP PUSH2 0x4434 DUP2 PUSH2 0x5B1F JUMP JUMPDEST SWAP3 SWAP2 POP POP JUMP JUMPDEST PUSH1 0x0 DUP2 CALLDATALOAD SWAP1 POP PUSH2 0x4449 DUP2 PUSH2 0x5B36 JUMP JUMPDEST SWAP3 SWAP2 POP POP JUMP JUMPDEST PUSH1 0x0 DUP3 PUSH1 0x1F DUP4 ADD SLT PUSH2 0x4464 JUMPI PUSH2 0x4463 PUSH2 0x57E1 JUMP JUMPDEST JUMPDEST DUP2 CALLDATALOAD PUSH2 0x4474 DUP5 DUP3 PUSH1 0x20 DUP7 ADD PUSH2 0x43E3 JUMP JUMPDEST SWAP2 POP POP SWAP3 SWAP2 POP POP JUMP JUMPDEST PUSH1 0x0 DUP2 CALLDATALOAD SWAP1 POP PUSH2 0x448C DUP2 PUSH2 0x5B4D JUMP JUMPDEST SWAP3 SWAP2 POP POP JUMP JUMPDEST PUSH1 0x0 DUP2 CALLDATALOAD SWAP1 POP PUSH2 0x44A1 DUP2 PUSH2 0x5B64 JUMP JUMPDEST SWAP3 SWAP2 POP POP JUMP JUMPDEST PUSH1 0x0 DUP2 CALLDATALOAD SWAP1 POP PUSH2 0x44B6 DUP2 PUSH2 0x5B7B JUMP JUMPDEST SWAP3 SWAP2 POP POP JUMP JUMPDEST PUSH1 0x0 PUSH1 0x20 DUP3 DUP5 SUB SLT ISZERO PUSH2 0x44D2 JUMPI PUSH2 0x44D1 PUSH2 0x57F0 JUMP JUMPDEST JUMPDEST PUSH1 0x0 PUSH2 0x44E0 DUP5 DUP3 DUP6 ADD PUSH2 0x4425 JUMP JUMPDEST SWAP2 POP POP SWAP3 SWAP2 POP POP JUMP JUMPDEST PUSH1 0x0 DUP1 PUSH1 0x0 PUSH1 0x60 DUP5 DUP7 SUB SLT ISZERO PUSH2 0x4502 JUMPI PUSH2 0x4501 PUSH2 0x57F0 JUMP JUMPDEST JUMPDEST PUSH1 0x0 PUSH2 0x4510 DUP7 DUP3 DUP8 ADD PUSH2 0x4425 JUMP JUMPDEST SWAP4 POP POP PUSH1 0x20 PUSH2 0x4521 DUP7 DUP3 DUP8 ADD PUSH2 0x4425 JUMP JUMPDEST SWAP3 POP POP PUSH1 0x40 PUSH2 0x4532 DUP7 DUP3 DUP8 ADD PUSH2 0x4425 JUMP JUMPDEST SWAP2 POP POP SWAP3 POP SWAP3 POP SWAP3 JUMP JUMPDEST PUSH1 0x0 DUP1 PUSH1 0x40 DUP4 DUP6 SUB SLT ISZERO PUSH2 0x4553 JUMPI PUSH2 0x4552 PUSH2 0x57F0 JUMP JUMPDEST JUMPDEST PUSH1 0x0 PUSH2 0x4561 DUP6 DUP3 DUP7 ADD PUSH2 0x4425 JUMP JUMPDEST SWAP3 POP POP PUSH1 0x20 PUSH2 0x4572 DUP6 DUP3 DUP7 ADD PUSH2 0x443A JUMP JUMPDEST SWAP2 POP POP SWAP3 POP SWAP3 SWAP1 POP JUMP JUMPDEST PUSH1 0x0 DUP1 PUSH1 0x0 DUP1 PUSH1 0x80 DUP6 DUP8 SUB SLT ISZERO PUSH2 0x4596 JUMPI PUSH2 0x4595 PUSH2 0x57F0 JUMP JUMPDEST JUMPDEST PUSH1 0x0 PUSH2 0x45A4 DUP8 DUP3 DUP9 ADD PUSH2 0x4425 JUMP JUMPDEST SWAP5 POP POP PUSH1 0x20 DUP6 ADD CALLDATALOAD PUSH8 0xFFFFFFFFFFFFFFFF DUP2 GT ISZERO PUSH2 0x45C5 JUMPI PUSH2 0x45C4 PUSH2 0x57EB JUMP JUMPDEST JUMPDEST PUSH2 0x45D1 DUP8 DUP3 DUP9 ADD PUSH2 0x444F JUMP JUMPDEST SWAP4 POP POP PUSH1 0x40 PUSH2 0x45E2 DUP8 DUP3 DUP9 ADD PUSH2 0x447D JUMP JUMPDEST SWAP3 POP POP PUSH1 0x60 PUSH2 0x45F3 DUP8 DUP3 DUP9 ADD PUSH2 0x44A7 JUMP JUMPDEST SWAP2 POP POP SWAP3 SWAP6 SWAP2 SWAP5 POP SWAP3 POP JUMP JUMPDEST PUSH1 0x0 DUP1 PUSH1 0x0 PUSH1 0x60 DUP5 DUP7 SUB SLT ISZERO PUSH2 0x4618 JUMPI PUSH2 0x4617 PUSH2 0x57F0 JUMP JUMPDEST JUMPDEST PUSH1 0x0 PUSH2 0x4626 DUP7 DUP3 DUP8 ADD PUSH2 0x4425 JUMP JUMPDEST SWAP4 POP POP PUSH1 0x20 DUP5 ADD CALLDATALOAD PUSH8 0xFFFFFFFFFFFFFFFF DUP2 GT ISZERO PUSH2 0x4647 JUMPI PUSH2 0x4646 PUSH2 0x57EB JUMP JUMPDEST JUMPDEST PUSH2 0x4653 DUP7 DUP3 DUP8 ADD PUSH2 0x444F JUMP JUMPDEST SWAP3 POP POP PUSH1 0x40 PUSH2 0x4664 DUP7 DUP3 DUP8 ADD PUSH2 0x44A7 JUMP JUMPDEST SWAP2 POP POP SWAP3 POP SWAP3 POP SWAP3 JUMP JUMPDEST PUSH1 0x0 PUSH1 0x20 DUP3 DUP5 SUB SLT ISZERO PUSH2 0x4684 JUMPI PUSH2 0x4683 PUSH2 0x57F0 JUMP JUMPDEST JUMPDEST PUSH1 0x0 PUSH2 0x4692 DUP5 DUP3 DUP6 ADD PUSH2 0x447D JUMP JUMPDEST SWAP2 POP POP SWAP3 SWAP2 POP POP JUMP JUMPDEST PUSH1 0x0 PUSH1 0x20 DUP3 DUP5 SUB SLT ISZERO PUSH2 0x46B1 JUMPI PUSH2 0x46B0 PUSH2 0x57F0 JUMP JUMPDEST JUMPDEST PUSH1 0x0 PUSH2 0x46BF DUP5 DUP3 DUP6 ADD PUSH2 0x4492 JUMP JUMPDEST SWAP2 POP POP SWAP3 SWAP2 POP POP JUMP JUMPDEST PUSH1 0x0 PUSH2 0x46D4 DUP4 DUP4 PUSH2 0x4CFF JUMP JUMPDEST SWAP1 POP SWAP3 SWAP2 POP POP JUMP JUMPDEST PUSH1 0x0 PUSH2 0x46E8 DUP4 DUP4 PUSH2 0x4D62 JUMP JUMPDEST SWAP1 POP SWAP3 SWAP2 POP POP JUMP JUMPDEST PUSH1 0x0 PUSH2 0x46FC DUP4 DUP4 PUSH2 0x4DB2 JUMP JUMPDEST SWAP1 POP SWAP3 SWAP2 POP POP JUMP JUMPDEST PUSH1 0x0 PUSH2 0x4710 DUP4 DUP4 PUSH2 0x4E02 JUMP JUMPDEST SWAP1 POP SWAP3 SWAP2 POP POP JUMP JUMPDEST PUSH1 0x0 PUSH2 0x4724 DUP4 DUP4 PUSH2 0x4E52 JUMP JUMPDEST SWAP1 POP SWAP3 SWAP2 POP POP JUMP JUMPDEST PUSH1 0x0 PUSH2 0x4738 DUP4 DUP4 PUSH2 0x4EA2 JUMP JUMPDEST SWAP1 POP SWAP3 SWAP2 POP POP JUMP JUMPDEST PUSH2 0x4749 DUP2 PUSH2 0x5570 JUMP JUMPDEST DUP3 MSTORE POP POP JUMP JUMPDEST PUSH1 0x0 PUSH2 0x475A DUP3 PUSH2 0x544D JUMP JUMPDEST PUSH2 0x4764 DUP2 DUP6 PUSH2 0x54E8 JUMP JUMPDEST SWAP4 POP DUP4 PUSH1 0x20 DUP3 MUL DUP6 ADD PUSH2 0x4776 DUP6 PUSH2 0x53ED JUMP JUMPDEST DUP1 PUSH1 0x0 JUMPDEST DUP6 DUP2 LT ISZERO PUSH2 0x47B2 JUMPI DUP5 DUP5 SUB DUP10 MSTORE DUP2 MLOAD PUSH2 0x4793 DUP6 DUP3 PUSH2 0x46C8 JUMP JUMPDEST SWAP5 POP PUSH2 0x479E DUP4 PUSH2 0x549A JUMP JUMPDEST SWAP3 POP PUSH1 0x20 DUP11 ADD SWAP10 POP POP PUSH1 0x1 DUP2 ADD SWAP1 POP PUSH2 0x477A JUMP JUMPDEST POP DUP3 SWAP8 POP DUP8 SWAP6 POP POP POP POP POP POP SWAP3 SWAP2 POP POP JUMP JUMPDEST PUSH1 0x0 PUSH2 0x47CF DUP3 PUSH2 0x5458 JUMP JUMPDEST PUSH2 0x47D9 DUP2 DUP6 PUSH2 0x54F9 JUMP JUMPDEST SWAP4 POP DUP4 PUSH1 0x20 DUP3 MUL DUP6 ADD PUSH2 0x47EB DUP6 PUSH2 0x53FD JUMP JUMPDEST DUP1 PUSH1 0x0 JUMPDEST DUP6 DUP2 LT ISZERO PUSH2 0x4827 JUMPI DUP5 DUP5 SUB DUP10 MSTORE DUP2 MLOAD PUSH2 0x4808 DUP6 DUP3 PUSH2 0x46DC JUMP JUMPDEST SWAP5 POP PUSH2 0x4813 DUP4 PUSH2 0x54A7 JUMP JUMPDEST SWAP3 POP PUSH1 0x20 DUP11 ADD SWAP10 POP POP PUSH1 0x1 DUP2 ADD SWAP1 POP PUSH2 0x47EF JUMP JUMPDEST POP DUP3 SWAP8 POP DUP8 SWAP6 POP POP POP POP POP POP SWAP3 SWAP2 POP POP JUMP JUMPDEST PUSH1 0x0 PUSH2 0x4844 DUP3 PUSH2 0x5463 JUMP JUMPDEST PUSH2 0x484E DUP2 DUP6 PUSH2 0x550A JUMP JUMPDEST SWAP4 POP DUP4 PUSH1 0x20 DUP3 MUL DUP6 ADD PUSH2 0x4860 DUP6 PUSH2 0x540D JUMP JUMPDEST DUP1 PUSH1 0x0 JUMPDEST DUP6 DUP2 LT ISZERO PUSH2 0x489C JUMPI DUP5 DUP5 SUB DUP10 MSTORE DUP2 MLOAD PUSH2 0x487D DUP6 DUP3 PUSH2 0x46F0 JUMP JUMPDEST SWAP5 POP PUSH2 0x4888 DUP4 PUSH2 0x54B4 JUMP JUMPDEST SWAP3 POP PUSH1 0x20 DUP11 ADD SWAP10 POP POP PUSH1 0x1 DUP2 ADD SWAP1 POP PUSH2 0x4864 JUMP JUMPDEST POP DUP3 SWAP8 POP DUP8 SWAP6 POP POP POP POP POP POP SWAP3 SWAP2 POP POP JUMP JUMPDEST PUSH1 0x0 PUSH2 0x48B9 DUP3 PUSH2 0x546E JUMP JUMPDEST PUSH2 0x48C3 DUP2 DUP6 PUSH2 0x551B JUMP JUMPDEST SWAP4 POP DUP4 PUSH1 0x20 DUP3 MUL DUP6 ADD PUSH2 0x48D5 DUP6 PUSH2 0x541D JUMP JUMPDEST DUP1 PUSH1 0x0 JUMPDEST DUP6 DUP2 LT ISZERO PUSH2 0x4911 JUMPI DUP5 DUP5 SUB DUP10 MSTORE DUP2 MLOAD PUSH2 0x48F2 DUP6 DUP3 PUSH2 0x4704 JUMP JUMPDEST SWAP5 POP PUSH2 0x48FD DUP4 PUSH2 0x54C1 JUMP JUMPDEST SWAP3 POP PUSH1 0x20 DUP11 ADD SWAP10 POP POP PUSH1 0x1 DUP2 ADD SWAP1 POP PUSH2 0x48D9 JUMP JUMPDEST POP DUP3 SWAP8 POP DUP8 SWAP6 POP POP POP POP POP POP SWAP3 SWAP2 POP POP JUMP JUMPDEST PUSH1 0x0 PUSH2 0x492E DUP3 PUSH2 0x5479 JUMP JUMPDEST PUSH2 0x4938 DUP2 DUP6 PUSH2 0x552C JUMP JUMPDEST SWAP4 POP DUP4 PUSH1 0x20 DUP3 MUL DUP6 ADD PUSH2 0x494A DUP6 PUSH2 0x542D JUMP JUMPDEST DUP1 PUSH1 0x0 JUMPDEST DUP6 DUP2 LT ISZERO PUSH2 0x4986 JUMPI DUP5 DUP5 SUB DUP10 MSTORE DUP2 MLOAD PUSH2 0x4967 DUP6 DUP3 PUSH2 0x4718 JUMP JUMPDEST SWAP5 POP PUSH2 0x4972 DUP4 PUSH2 0x54CE JUMP JUMPDEST SWAP3 POP PUSH1 0x20 DUP11 ADD SWAP10 POP POP PUSH1 0x1 DUP2 ADD SWAP1 POP PUSH2 0x494E JUMP JUMPDEST POP DUP3 SWAP8 POP DUP8 SWAP6 POP POP POP POP POP POP SWAP3 SWAP2 POP POP JUMP JUMPDEST PUSH1 0x0 PUSH2 0x49A3 DUP3 PUSH2 0x5484 JUMP JUMPDEST PUSH2 0x49AD DUP2 DUP6 PUSH2 0x553D JUMP JUMPDEST SWAP4 POP DUP4 PUSH1 0x20 DUP3 MUL DUP6 ADD PUSH2 0x49BF DUP6 PUSH2 0x543D JUMP JUMPDEST DUP1 PUSH1 0x0 JUMPDEST DUP6 DUP2 LT ISZERO PUSH2 0x49FB JUMPI DUP5 DUP5 SUB DUP10 MSTORE DUP2 MLOAD PUSH2 0x49DC DUP6 DUP3 PUSH2 0x472C JUMP JUMPDEST SWAP5 POP PUSH2 0x49E7 DUP4 PUSH2 0x54DB JUMP JUMPDEST SWAP3 POP PUSH1 0x20 DUP11 ADD SWAP10 POP POP PUSH1 0x1 DUP2 ADD SWAP1 POP PUSH2 0x49C3 JUMP JUMPDEST POP DUP3 SWAP8 POP DUP8 SWAP6 POP POP POP POP POP POP SWAP3 SWAP2 POP POP JUMP JUMPDEST PUSH2 0x4A16 DUP2 PUSH2 0x5582 JUMP JUMPDEST DUP3 MSTORE POP POP JUMP JUMPDEST PUSH2 0x4A25 DUP2 PUSH2 0x5582 JUMP JUMPDEST DUP3 MSTORE POP POP JUMP JUMPDEST PUSH2 0x4A34 DUP2 PUSH2 0x55F6 JUMP JUMPDEST DUP3 MSTORE POP POP JUMP JUMPDEST PUSH1 0x0 PUSH2 0x4A45 DUP3 PUSH2 0x548F JUMP JUMPDEST PUSH2 0x4A4F DUP2 DUP6 PUSH2 0x554E JUMP JUMPDEST SWAP4 POP PUSH2 0x4A5F DUP2 DUP6 PUSH1 0x20 DUP7 ADD PUSH2 0x5617 JUMP JUMPDEST PUSH2 0x4A68 DUP2 PUSH2 0x57F5 JUMP JUMPDEST DUP5 ADD SWAP2 POP POP SWAP3 SWAP2 POP POP JUMP JUMPDEST PUSH1 0x0 PUSH2 0x4A7E DUP3 PUSH2 0x548F JUMP JUMPDEST PUSH2 0x4A88 DUP2 DUP6 PUSH2 0x555F JUMP JUMPDEST SWAP4 POP PUSH2 0x4A98 DUP2 DUP6 PUSH1 0x20 DUP7 ADD PUSH2 0x5617 JUMP JUMPDEST PUSH2 0x4AA1 DUP2 PUSH2 0x57F5 JUMP JUMPDEST DUP5 ADD SWAP2 POP POP SWAP3 SWAP2 POP POP JUMP JUMPDEST PUSH1 0x0 PUSH2 0x4AB9 PUSH1 0x1F DUP4 PUSH2 0x555F JUMP JUMPDEST SWAP2 POP PUSH2 0x4AC4 DUP3 PUSH2 0x5806 JUMP JUMPDEST PUSH1 0x20 DUP3 ADD SWAP1 POP SWAP2 SWAP1 POP JUMP JUMPDEST PUSH1 0x0 PUSH2 0x4ADC PUSH1 0x19 DUP4 PUSH2 0x555F JUMP JUMPDEST SWAP2 POP PUSH2 0x4AE7 DUP3 PUSH2 0x582F JUMP JUMPDEST PUSH1 0x20 DUP3 ADD SWAP1 POP SWAP2 SWAP1 POP JUMP JUMPDEST PUSH1 0x0 PUSH2 0x4AFF PUSH1 0x17 DUP4 PUSH2 0x555F JUMP JUMPDEST SWAP2 POP PUSH2 0x4B0A DUP3 PUSH2 0x5858 JUMP JUMPDEST PUSH1 0x20 DUP3 ADD SWAP1 POP SWAP2 SWAP1 POP JUMP JUMPDEST PUSH1 0x0 PUSH2 0x4B22 PUSH1 0x11 DUP4 PUSH2 0x555F JUMP JUMPDEST SWAP2 POP PUSH2 0x4B2D DUP3 PUSH2 0x5881 JUMP JUMPDEST PUSH1 0x20 DUP3 ADD SWAP1 POP SWAP2 SWAP1 POP JUMP JUMPDEST PUSH1 0x0 PUSH2 0x4B45 PUSH1 0x18 DUP4 PUSH2 0x555F JUMP JUMPDEST SWAP2 POP PUSH2 0x4B50 DUP3 PUSH2 0x58AA JUMP JUMPDEST PUSH1 0x20 DUP3 ADD SWAP1 POP SWAP2 SWAP1 POP JUMP JUMPDEST PUSH1 0x0 PUSH2 0x4B68 PUSH1 0x12 DUP4 PUSH2 0x555F JUMP JUMPDEST SWAP2 POP PUSH2 0x4B73 DUP3 PUSH2 0x58D3 JUMP JUMPDEST PUSH1 0x20 DUP3 ADD SWAP1 POP SWAP2 SWAP1 POP JUMP JUMPDEST PUSH1 0x0 PUSH2 0x4B8B PUSH1 0x1E DUP4 PUSH2 0x555F JUMP JUMPDEST SWAP2 POP PUSH2 0x4B96 DUP3 PUSH2 0x58FC JUMP JUMPDEST PUSH1 0x20 DUP3 ADD SWAP1 POP SWAP2 SWAP1 POP JUMP JUMPDEST PUSH1 0x0 PUSH2 0x4BAE PUSH1 0x1E DUP4 PUSH2 0x555F JUMP JUMPDEST SWAP2 POP PUSH2 0x4BB9 DUP3 PUSH2 0x5925 JUMP JUMPDEST PUSH1 0x20 DUP3 ADD SWAP1 POP SWAP2 SWAP1 POP JUMP JUMPDEST PUSH1 0x0 PUSH2 0x4BD1 PUSH1 0x22 DUP4 PUSH2 0x555F JUMP JUMPDEST SWAP2 POP PUSH2 0x4BDC DUP3 PUSH2 0x594E JUMP JUMPDEST PUSH1 0x40 DUP3 ADD SWAP1 POP SWAP2 SWAP1 POP JUMP JUMPDEST PUSH1 0x0 PUSH2 0x4BF4 PUSH1 0x22 DUP4 PUSH2 0x555F JUMP JUMPDEST SWAP2 POP PUSH2 0x4BFF DUP3 PUSH2 0x599D JUMP JUMPDEST PUSH1 0x40 DUP3 ADD SWAP1 POP SWAP2 SWAP1 POP JUMP JUMPDEST PUSH1 0x0 PUSH2 0x4C17 PUSH1 0x17 DUP4 PUSH2 0x555F JUMP JUMPDEST SWAP2 POP PUSH2 0x4C22 DUP3 PUSH2 0x59EC JUMP JUMPDEST PUSH1 0x20 DUP3 ADD SWAP1 POP SWAP2 SWAP1 POP JUMP JUMPDEST PUSH1 0x0 PUSH2 0x4C3A PUSH1 0x1E DUP4 PUSH2 0x555F JUMP JUMPDEST SWAP2 POP PUSH2 0x4C45 DUP3 PUSH2 0x5A15 JUMP JUMPDEST PUSH1 0x20 DUP3 ADD SWAP1 POP SWAP2 SWAP1 POP JUMP JUMPDEST PUSH1 0x0 PUSH2 0x4C5D PUSH1 0x11 DUP4 PUSH2 0x555F JUMP JUMPDEST SWAP2 POP PUSH2 0x4C68 DUP3 PUSH2 0x5A3E JUMP JUMPDEST PUSH1 0x20 DUP3 ADD SWAP1 POP SWAP2 SWAP1 POP JUMP JUMPDEST PUSH1 0x0 PUSH2 0x4C80 PUSH1 0x18 DUP4 PUSH2 0x555F JUMP JUMPDEST SWAP2 POP PUSH2 0x4C8B DUP3 PUSH2 0x5A67 JUMP JUMPDEST PUSH1 0x20 DUP3 ADD SWAP1 POP SWAP2 SWAP1 POP JUMP JUMPDEST PUSH1 0x0 PUSH2 0x4CA3 PUSH1 0x12 DUP4 PUSH2 0x555F JUMP JUMPDEST SWAP2 POP PUSH2 0x4CAE DUP3 PUSH2 0x5A90 JUMP JUMPDEST PUSH1 0x20 DUP3 ADD SWAP1 POP SWAP2 SWAP1 POP JUMP JUMPDEST PUSH1 0x0 PUSH2 0x4CC6 PUSH1 0x19 DUP4 PUSH2 0x555F JUMP JUMPDEST SWAP2 POP PUSH2 0x4CD1 DUP3 PUSH2 0x5AB9 JUMP JUMPDEST PUSH1 0x20 DUP3 ADD SWAP1 POP SWAP2 SWAP1 POP JUMP JUMPDEST PUSH1 0x0 PUSH2 0x4CE9 PUSH1 0x20 DUP4 PUSH2 0x555F JUMP JUMPDEST SWAP2 POP PUSH2 0x4CF4 DUP3 PUSH2 0x5AE2 JUMP JUMPDEST PUSH1 0x20 DUP3 ADD SWAP1 POP SWAP2 SWAP1 POP JUMP JUMPDEST PUSH1 0x0 PUSH1 0x80 DUP4 ADD PUSH1 0x0 DUP4 ADD MLOAD PUSH2 0x4D17 PUSH1 0x0 DUP7 ADD DUP3 PUSH2 0x4A0D JUMP JUMPDEST POP PUSH1 0x20 DUP4 ADD MLOAD PUSH2 0x4D2A PUSH1 0x20 DUP7 ADD DUP3 PUSH2 0x4F2E JUMP JUMPDEST POP PUSH1 0x40 DUP4 ADD MLOAD PUSH2 0x4D3D PUSH1 0x40 DUP7 ADD DUP3 PUSH2 0x4F01 JUMP JUMPDEST POP PUSH1 0x60 DUP4 ADD MLOAD DUP5 DUP3 SUB PUSH1 0x60 DUP7 ADD MSTORE PUSH2 0x4D55 DUP3 DUP3 PUSH2 0x4A3A JUMP JUMPDEST SWAP2 POP POP DUP1 SWAP2 POP POP SWAP3 SWAP2 POP POP JUMP JUMPDEST PUSH1 0x0 PUSH1 0x60 DUP4 ADD PUSH1 0x0 DUP4 ADD MLOAD PUSH2 0x4D7A PUSH1 0x0 DUP7 ADD DUP3 PUSH2 0x4A0D JUMP JUMPDEST POP PUSH1 0x20 DUP4 ADD MLOAD DUP5 DUP3 SUB PUSH1 0x20 DUP7 ADD MSTORE PUSH2 0x4D92 DUP3 DUP3 PUSH2 0x4A3A JUMP JUMPDEST SWAP2 POP POP PUSH1 0x40 DUP4 ADD MLOAD PUSH2 0x4DA7 PUSH1 0x40 DUP7 ADD DUP3 PUSH2 0x4F2E JUMP JUMPDEST POP DUP1 SWAP2 POP POP SWAP3 SWAP2 POP POP JUMP JUMPDEST PUSH1 0x0 PUSH1 0x60 DUP4 ADD PUSH1 0x0 DUP4 ADD MLOAD PUSH2 0x4DCA PUSH1 0x0 DUP7 ADD DUP3 PUSH2 0x4A0D JUMP JUMPDEST POP PUSH1 0x20 DUP4 ADD MLOAD DUP5 DUP3 SUB PUSH1 0x20 DUP7 ADD MSTORE PUSH2 0x4DE2 DUP3 DUP3 PUSH2 0x4A3A JUMP JUMPDEST SWAP2 POP POP PUSH1 0x40 DUP4 ADD MLOAD PUSH2 0x4DF7 PUSH1 0x40 DUP7 ADD DUP3 PUSH2 0x4F2E JUMP JUMPDEST POP DUP1 SWAP2 POP POP SWAP3 SWAP2 POP POP JUMP JUMPDEST PUSH1 0x0 PUSH1 0x60 DUP4 ADD PUSH1 0x0 DUP4 ADD MLOAD PUSH2 0x4E1A PUSH1 0x0 DUP7 ADD DUP3 PUSH2 0x4A0D JUMP JUMPDEST POP PUSH1 0x20 DUP4 ADD MLOAD DUP5 DUP3 SUB PUSH1 0x20 DUP7 ADD MSTORE PUSH2 0x4E32 DUP3 DUP3 PUSH2 0x4A3A JUMP JUMPDEST SWAP2 POP POP PUSH1 0x40 DUP4 ADD MLOAD PUSH2 0x4E47 PUSH1 0x40 DUP7 ADD DUP3 PUSH2 0x4F2E JUMP JUMPDEST POP DUP1 SWAP2 POP POP SWAP3 SWAP2 POP POP JUMP JUMPDEST PUSH1 0x0 PUSH1 0x60 DUP4 ADD PUSH1 0x0 DUP4 ADD MLOAD PUSH2 0x4E6A PUSH1 0x0 DUP7 ADD DUP3 PUSH2 0x4A0D JUMP JUMPDEST POP PUSH1 0x20 DUP4 ADD MLOAD DUP5 DUP3 SUB PUSH1 0x20 DUP7 ADD MSTORE PUSH2 0x4E82 DUP3 DUP3 PUSH2 0x4A3A JUMP JUMPDEST SWAP2 POP POP PUSH1 0x40 DUP4 ADD MLOAD PUSH2 0x4E97 PUSH1 0x40 DUP7 ADD DUP3 PUSH2 0x4F2E JUMP JUMPDEST POP DUP1 SWAP2 POP POP SWAP3 SWAP2 POP POP JUMP JUMPDEST PUSH1 0x0 PUSH1 0x60 DUP4 ADD PUSH1 0x0 DUP4 ADD MLOAD PUSH2 0x4EBA PUSH1 0x0 DUP7 ADD DUP3 PUSH2 0x4A0D JUMP JUMPDEST POP PUSH1 0x20 DUP4 ADD MLOAD DUP5 DUP3 SUB PUSH1 0x20 DUP7 ADD MSTORE PUSH2 0x4ED2 DUP3 DUP3 PUSH2 0x4A3A JUMP JUMPDEST SWAP2 POP POP PUSH1 0x40 DUP4 ADD MLOAD PUSH2 0x4EE7 PUSH1 0x40 DUP7 ADD DUP3 PUSH2 0x4F2E JUMP JUMPDEST POP DUP1 SWAP2 POP POP SWAP3 SWAP2 POP POP JUMP JUMPDEST PUSH2 0x4EFB DUP2 PUSH2 0x55A1 JUMP JUMPDEST DUP3 MSTORE POP POP JUMP JUMPDEST PUSH2 0x4F0A DUP2 PUSH2 0x55CF JUMP JUMPDEST DUP3 MSTORE POP POP JUMP JUMPDEST PUSH2 0x4F19 DUP2 PUSH2 0x55CF JUMP JUMPDEST DUP3 MSTORE POP POP JUMP JUMPDEST PUSH2 0x4F28 DUP2 PUSH2 0x55D9 JUMP JUMPDEST DUP3 MSTORE POP POP JUMP JUMPDEST PUSH2 0x4F37 DUP2 PUSH2 0x55E9 JUMP JUMPDEST DUP3 MSTORE POP POP JUMP JUMPDEST PUSH2 0x4F46 DUP2 PUSH2 0x55E9 JUMP JUMPDEST DUP3 MSTORE POP POP JUMP JUMPDEST PUSH1 0x0 PUSH1 0x20 DUP3 ADD SWAP1 POP PUSH2 0x4F61 PUSH1 0x0 DUP4 ADD DUP5 PUSH2 0x4740 JUMP JUMPDEST SWAP3 SWAP2 POP POP JUMP JUMPDEST PUSH1 0x0 PUSH1 0x20 DUP3 ADD SWAP1 POP DUP2 DUP2 SUB PUSH1 0x0 DUP4 ADD MSTORE PUSH2 0x4F81 DUP2 DUP5 PUSH2 0x474F JUMP JUMPDEST SWAP1 POP SWAP3 SWAP2 POP POP JUMP JUMPDEST PUSH1 0x0 PUSH1 0x20 DUP3 ADD SWAP1 POP DUP2 DUP2 SUB PUSH1 0x0 DUP4 ADD MSTORE PUSH2 0x4FA3 DUP2 DUP5 PUSH2 0x47C4 JUMP JUMPDEST SWAP1 POP SWAP3 SWAP2 POP POP JUMP JUMPDEST PUSH1 0x0 PUSH1 0x20 DUP3 ADD SWAP1 POP DUP2 DUP2 SUB PUSH1 0x0 DUP4 ADD MSTORE PUSH2 0x4FC5 DUP2 DUP5 PUSH2 0x4839 JUMP JUMPDEST SWAP1 POP SWAP3 SWAP2 POP POP JUMP JUMPDEST PUSH1 0x0 PUSH1 0x20 DUP3 ADD SWAP1 POP DUP2 DUP2 SUB PUSH1 0x0 DUP4 ADD MSTORE PUSH2 0x4FE7 DUP2 DUP5 PUSH2 0x48AE JUMP JUMPDEST SWAP1 POP SWAP3 SWAP2 POP POP JUMP JUMPDEST PUSH1 0x0 PUSH1 0x20 DUP3 ADD SWAP1 POP DUP2 DUP2 SUB PUSH1 0x0 DUP4 ADD MSTORE PUSH2 0x5009 DUP2 DUP5 PUSH2 0x4923 JUMP JUMPDEST SWAP1 POP SWAP3 SWAP2 POP POP JUMP JUMPDEST PUSH1 0x0 PUSH1 0x20 DUP3 ADD SWAP1 POP DUP2 DUP2 SUB PUSH1 0x0 DUP4 ADD MSTORE PUSH2 0x502B DUP2 DUP5 PUSH2 0x4998 JUMP JUMPDEST SWAP1 POP SWAP3 SWAP2 POP POP JUMP JUMPDEST PUSH1 0x0 PUSH1 0x20 DUP3 ADD SWAP1 POP PUSH2 0x5048 PUSH1 0x0 DUP4 ADD DUP5 PUSH2 0x4A1C JUMP JUMPDEST SWAP3 SWAP2 POP POP JUMP JUMPDEST PUSH1 0x0 PUSH1 0xC0 DUP3 ADD SWAP1 POP PUSH2 0x5063 PUSH1 0x0 DUP4 ADD DUP10 PUSH2 0x4A1C JUMP JUMPDEST PUSH2 0x5070 PUSH1 0x20 DUP4 ADD DUP9 PUSH2 0x4740 JUMP JUMPDEST PUSH2 0x507D PUSH1 0x40 DUP4 ADD DUP8 PUSH2 0x4EF2 JUMP JUMPDEST PUSH2 0x508A PUSH1 0x60 DUP4 ADD DUP7 PUSH2 0x4A2B JUMP JUMPDEST DUP2 DUP2 SUB PUSH1 0x80 DUP4 ADD MSTORE PUSH2 0x509C DUP2 DUP6 PUSH2 0x4A73 JUMP JUMPDEST SWAP1 POP DUP2 DUP2 SUB PUSH1 0xA0 DUP4 ADD MSTORE PUSH2 0x50B0 DUP2 DUP5 PUSH2 0x4A73 JUMP JUMPDEST SWAP1 POP SWAP8 SWAP7 POP POP POP POP POP POP POP JUMP JUMPDEST PUSH1 0x0 PUSH1 0x60 DUP3 ADD SWAP1 POP PUSH2 0x50D2 PUSH1 0x0 DUP4 ADD DUP7 PUSH2 0x4A1C JUMP JUMPDEST DUP2 DUP2 SUB PUSH1 0x20 DUP4 ADD MSTORE PUSH2 0x50E4 DUP2 DUP6 PUSH2 0x4A73 JUMP JUMPDEST SWAP1 POP PUSH2 0x50F3 PUSH1 0x40 DUP4 ADD DUP5 PUSH2 0x4F3D JUMP JUMPDEST SWAP5 SWAP4 POP POP POP POP JUMP JUMPDEST PUSH1 0x0 PUSH1 0x80 DUP3 ADD SWAP1 POP PUSH2 0x5110 PUSH1 0x0 DUP4 ADD DUP8 PUSH2 0x4A1C JUMP JUMPDEST PUSH2 0x511D PUSH1 0x20 DUP4 ADD DUP7 PUSH2 0x4F3D JUMP JUMPDEST PUSH2 0x512A PUSH1 0x40 DUP4 ADD DUP6 PUSH2 0x4F10 JUMP JUMPDEST DUP2 DUP2 SUB PUSH1 0x60 DUP4 ADD MSTORE PUSH2 0x513C DUP2 DUP5 PUSH2 0x4A73 JUMP JUMPDEST SWAP1 POP SWAP6 SWAP5 POP POP POP POP POP JUMP JUMPDEST PUSH1 0x0 PUSH1 0x20 DUP3 ADD SWAP1 POP DUP2 DUP2 SUB PUSH1 0x0 DUP4 ADD MSTORE PUSH2 0x5160 DUP2 PUSH2 0x4AAC JUMP JUMPDEST SWAP1 POP SWAP2 SWAP1 POP JUMP JUMPDEST PUSH1 0x0 PUSH1 0x20 DUP3 ADD SWAP1 POP DUP2 DUP2 SUB PUSH1 0x0 DUP4 ADD MSTORE PUSH2 0x5180 DUP2 PUSH2 0x4ACF JUMP JUMPDEST SWAP1 POP SWAP2 SWAP1 POP JUMP JUMPDEST PUSH1 0x0 PUSH1 0x20 DUP3 ADD SWAP1 POP DUP2 DUP2 SUB PUSH1 0x0 DUP4 ADD MSTORE PUSH2 0x51A0 DUP2 PUSH2 0x4AF2 JUMP JUMPDEST SWAP1 POP SWAP2 SWAP1 POP JUMP JUMPDEST PUSH1 0x0 PUSH1 0x20 DUP3 ADD SWAP1 POP DUP2 DUP2 SUB PUSH1 0x0 DUP4 ADD MSTORE PUSH2 0x51C0 DUP2 PUSH2 0x4B15 JUMP JUMPDEST SWAP1 POP SWAP2 SWAP1 POP JUMP JUMPDEST PUSH1 0x0 PUSH1 0x20 DUP3 ADD SWAP1 POP DUP2 DUP2 SUB PUSH1 0x0 DUP4 ADD MSTORE PUSH2 0x51E0 DUP2 PUSH2 0x4B38 JUMP JUMPDEST SWAP1 POP SWAP2 SWAP1 POP JUMP JUMPDEST PUSH1 0x0 PUSH1 0x20 DUP3 ADD SWAP1 POP DUP2 DUP2 SUB PUSH1 0x0 DUP4 ADD MSTORE PUSH2 0x5200 DUP2 PUSH2 0x4B5B JUMP JUMPDEST SWAP1 POP SWAP2 SWAP1 POP JUMP JUMPDEST PUSH1 0x0 PUSH1 0x20 DUP3 ADD SWAP1 POP DUP2 DUP2 SUB PUSH1 0x0 DUP4 ADD MSTORE PUSH2 0x5220 DUP2 PUSH2 0x4B7E JUMP JUMPDEST SWAP1 POP SWAP2 SWAP1 POP JUMP JUMPDEST PUSH1 0x0 PUSH1 0x20 DUP3 ADD SWAP1 POP DUP2 DUP2 SUB PUSH1 0x0 DUP4 ADD MSTORE PUSH2 0x5240 DUP2 PUSH2 0x4BA1 JUMP JUMPDEST SWAP1 POP SWAP2 SWAP1 POP JUMP JUMPDEST PUSH1 0x0 PUSH1 0x20 DUP3 ADD SWAP1 POP DUP2 DUP2 SUB PUSH1 0x0 DUP4 ADD MSTORE PUSH2 0x5260 DUP2 PUSH2 0x4BC4 JUMP JUMPDEST SWAP1 POP SWAP2 SWAP1 POP JUMP JUMPDEST PUSH1 0x0 PUSH1 0x20 DUP3 ADD SWAP1 POP DUP2 DUP2 SUB PUSH1 0x0 DUP4 ADD MSTORE PUSH2 0x5280 DUP2 PUSH2 0x4BE7 JUMP JUMPDEST SWAP1 POP SWAP2 SWAP1 POP JUMP JUMPDEST PUSH1 0x0 PUSH1 0x20 DUP3 ADD SWAP1 POP DUP2 DUP2 SUB PUSH1 0x0 DUP4 ADD MSTORE PUSH2 0x52A0 DUP2 PUSH2 0x4C0A JUMP JUMPDEST SWAP1 POP SWAP2 SWAP1 POP JUMP JUMPDEST PUSH1 0x0 PUSH1 0x20 DUP3 ADD SWAP1 POP DUP2 DUP2 SUB PUSH1 0x0 DUP4 ADD MSTORE PUSH2 0x52C0 DUP2 PUSH2 0x4C2D JUMP JUMPDEST SWAP1 POP SWAP2 SWAP1 POP JUMP JUMPDEST PUSH1 0x0 PUSH1 0x20 DUP3 ADD SWAP1 POP DUP2 DUP2 SUB PUSH1 0x0 DUP4 ADD MSTORE PUSH2 0x52E0 DUP2 PUSH2 0x4C50 JUMP JUMPDEST SWAP1 POP SWAP2 SWAP1 POP JUMP JUMPDEST PUSH1 0x0 PUSH1 0x20 DUP3 ADD SWAP1 POP DUP2 DUP2 SUB PUSH1 0x0 DUP4 ADD MSTORE PUSH2 0x5300 DUP2 PUSH2 0x4C73 JUMP JUMPDEST SWAP1 POP SWAP2 SWAP1 POP JUMP JUMPDEST PUSH1 0x0 PUSH1 0x20 DUP3 ADD SWAP1 POP DUP2 DUP2 SUB PUSH1 0x0 DUP4 ADD MSTORE PUSH2 0x5320 DUP2 PUSH2 0x4C96 JUMP JUMPDEST SWAP1 POP SWAP2 SWAP1 POP JUMP JUMPDEST PUSH1 0x0 PUSH1 0x20 DUP3 ADD SWAP1 POP DUP2 DUP2 SUB PUSH1 0x0 DUP4 ADD MSTORE PUSH2 0x5340 DUP2 PUSH2 0x4CB9 JUMP JUMPDEST SWAP1 POP SWAP2 SWAP1 POP JUMP JUMPDEST PUSH1 0x0 PUSH1 0x20 DUP3 ADD SWAP1 POP DUP2 DUP2 SUB PUSH1 0x0 DUP4 ADD MSTORE PUSH2 0x5360 DUP2 PUSH2 0x4CDC JUMP JUMPDEST SWAP1 POP SWAP2 SWAP1 POP JUMP JUMPDEST PUSH1 0x0 PUSH1 0x40 DUP3 ADD SWAP1 POP PUSH2 0x537C PUSH1 0x0 DUP4 ADD DUP6 PUSH2 0x4F1F JUMP JUMPDEST DUP2 DUP2 SUB PUSH1 0x20 DUP4 ADD MSTORE PUSH2 0x538E DUP2 DUP5 PUSH2 0x4A73 JUMP JUMPDEST SWAP1 POP SWAP4 SWAP3 POP POP POP JUMP JUMPDEST PUSH1 0x0 PUSH2 0x53A1 PUSH2 0x53B2 JUMP JUMPDEST SWAP1 POP PUSH2 0x53AD DUP3 DUP3 PUSH2 0x567C JUMP JUMPDEST SWAP2 SWAP1 POP JUMP JUMPDEST PUSH1 0x0 PUSH1 0x40 MLOAD SWAP1 POP SWAP1 JUMP JUMPDEST PUSH1 0x0 PUSH8 0xFFFFFFFFFFFFFFFF DUP3 GT ISZERO PUSH2 0x53D7 JUMPI PUSH2 0x53D6 PUSH2 0x57B2 JUMP JUMPDEST JUMPDEST PUSH2 0x53E0 DUP3 PUSH2 0x57F5 JUMP JUMPDEST SWAP1 POP PUSH1 0x20 DUP2 ADD SWAP1 POP SWAP2 SWAP1 POP JUMP JUMPDEST PUSH1 0x0 DUP2 SWAP1 POP PUSH1 0x20 DUP3 ADD SWAP1 POP SWAP2 SWAP1 POP JUMP JUMPDEST PUSH1 0x0 DUP2 SWAP1 POP PUSH1 0x20 DUP3 ADD SWAP1 POP SWAP2 SWAP1 POP JUMP JUMPDEST PUSH1 0x0 DUP2 SWAP1 POP PUSH1 0x20 DUP3 ADD SWAP1 POP SWAP2 SWAP1 POP JUMP JUMPDEST PUSH1 0x0 DUP2 SWAP1 POP PUSH1 0x20 DUP3 ADD SWAP1 POP SWAP2 SWAP1 POP JUMP JUMPDEST PUSH1 0x0 DUP2 SWAP1 POP PUSH1 0x20 DUP3 ADD SWAP1 POP SWAP2 SWAP1 POP JUMP JUMPDEST PUSH1 0x0 DUP2 SWAP1 POP PUSH1 0x20 DUP3 ADD SWAP1 POP SWAP2 SWAP1 POP JUMP JUMPDEST PUSH1 0x0 DUP2 MLOAD SWAP1 POP SWAP2 SWAP1 POP JUMP JUMPDEST PUSH1 0x0 DUP2 MLOAD SWAP1 POP SWAP2 SWAP1 POP JUMP JUMPDEST PUSH1 0x0 DUP2 MLOAD SWAP1 POP SWAP2 SWAP1 POP JUMP JUMPDEST PUSH1 0x0 DUP2 MLOAD SWAP1 POP SWAP2 SWAP1 POP JUMP JUMPDEST PUSH1 0x0 DUP2 MLOAD SWAP1 POP SWAP2 SWAP1 POP JUMP JUMPDEST PUSH1 0x0 DUP2 MLOAD SWAP1 POP SWAP2 SWAP1 POP JUMP JUMPDEST PUSH1 0x0 DUP2 MLOAD SWAP1 POP SWAP2 SWAP1 POP JUMP JUMPDEST PUSH1 0x0 PUSH1 0x20 DUP3 ADD SWAP1 POP SWAP2 SWAP1 POP JUMP JUMPDEST PUSH1 0x0 PUSH1 0x20 DUP3 ADD SWAP1 POP SWAP2 SWAP1 POP JUMP JUMPDEST PUSH1 0x0 PUSH1 0x20 DUP3 ADD SWAP1 POP SWAP2 SWAP1 POP JUMP JUMPDEST PUSH1 0x0 PUSH1 0x20 DUP3 ADD SWAP1 POP SWAP2 SWAP1 POP JUMP JUMPDEST PUSH1 0x0 PUSH1 0x20 DUP3 ADD SWAP1 POP SWAP2 SWAP1 POP JUMP JUMPDEST PUSH1 0x0 PUSH1 0x20 DUP3 ADD SWAP1 POP SWAP2 SWAP1 POP JUMP JUMPDEST PUSH1 0x0 DUP3 DUP3 MSTORE PUSH1 0x20 DUP3 ADD SWAP1 POP SWAP3 SWAP2 POP POP JUMP JUMPDEST PUSH1 0x0 DUP3 DUP3 MSTORE PUSH1 0x20 DUP3 ADD SWAP1 POP SWAP3 SWAP2 POP POP JUMP JUMPDEST PUSH1 0x0 DUP3 DUP3 MSTORE PUSH1 0x20 DUP3 ADD SWAP1 POP SWAP3 SWAP2 POP POP JUMP JUMPDEST PUSH1 0x0 DUP3 DUP3 MSTORE PUSH1 0x20 DUP3 ADD SWAP1 POP SWAP3 SWAP2 POP POP JUMP JUMPDEST PUSH1 0x0 DUP3 DUP3 MSTORE PUSH1 0x20 DUP3 ADD SWAP1 POP SWAP3 SWAP2 POP POP JUMP JUMPDEST PUSH1 0x0 DUP3 DUP3 MSTORE PUSH1 0x20 DUP3 ADD SWAP1 POP SWAP3 SWAP2 POP POP JUMP JUMPDEST PUSH1 0x0 DUP3 DUP3 MSTORE PUSH1 0x20 DUP3 ADD SWAP1 POP SWAP3 SWAP2 POP POP JUMP JUMPDEST PUSH1 0x0 DUP3 DUP3 MSTORE PUSH1 0x20 DUP3 ADD SWAP1 POP SWAP3 SWAP2 POP POP JUMP JUMPDEST PUSH1 0x0 PUSH2 0x557B DUP3 PUSH2 0x55AF JUMP JUMPDEST SWAP1 POP SWAP2 SWAP1 POP JUMP JUMPDEST PUSH1 0x0 DUP2 ISZERO ISZERO SWAP1 POP SWAP2 SWAP1 POP JUMP JUMPDEST PUSH1 0x0 DUP2 SWAP1 POP PUSH2 0x559C DUP3 PUSH2 0x5B0B JUMP JUMPDEST SWAP2 SWAP1 POP JUMP JUMPDEST PUSH1 0x0 PUSH2 0xFFFF DUP3 AND SWAP1 POP SWAP2 SWAP1 POP JUMP JUMPDEST PUSH1 0x0 PUSH20 0xFFFFFFFFFFFFFFFFFFFFFFFFFFFFFFFFFFFFFFFF DUP3 AND SWAP1 POP SWAP2 SWAP1 POP JUMP JUMPDEST PUSH1 0x0 DUP2 SWAP1 POP SWAP2 SWAP1 POP JUMP JUMPDEST PUSH1 0x0 PUSH4 0xFFFFFFFF DUP3 AND SWAP1 POP SWAP2 SWAP1 POP JUMP JUMPDEST PUSH1 0x0 PUSH1 0xFF DUP3 AND SWAP1 POP SWAP2 SWAP1 POP JUMP JUMPDEST PUSH1 0x0 PUSH2 0x5601 DUP3 PUSH2 0x558E JUMP JUMPDEST SWAP1 POP SWAP2 SWAP1 POP JUMP JUMPDEST DUP3 DUP2 DUP4 CALLDATACOPY PUSH1 0x0 DUP4 DUP4 ADD MSTORE POP POP POP JUMP JUMPDEST PUSH1 0x0 JUMPDEST DUP4 DUP2 LT ISZERO PUSH2 0x5635 JUMPI DUP1 DUP3 ADD MLOAD DUP2 DUP5 ADD MSTORE PUSH1 0x20 DUP2 ADD SWAP1 POP PUSH2 0x561A JUMP JUMPDEST DUP4 DUP2 GT ISZERO PUSH2 0x5644 JUMPI PUSH1 0x0 DUP5 DUP5 ADD MSTORE JUMPDEST POP POP POP POP JUMP JUMPDEST PUSH1 0x0 PUSH1 0x2 DUP3 DIV SWAP1 POP PUSH1 0x1 DUP3 AND DUP1 PUSH2 0x5662 JUMPI PUSH1 0x7F DUP3 AND SWAP2 POP JUMPDEST PUSH1 0x20 DUP3 LT DUP2 EQ ISZERO PUSH2 0x5676 JUMPI PUSH2 0x5675 PUSH2 0x5754 JUMP JUMPDEST JUMPDEST POP SWAP2 SWAP1 POP JUMP JUMPDEST PUSH2 0x5685 DUP3 PUSH2 0x57F5 JUMP JUMPDEST DUP2 ADD DUP2 DUP2 LT PUSH8 0xFFFFFFFFFFFFFFFF DUP3 GT OR ISZERO PUSH2 0x56A4 JUMPI PUSH2 0x56A3 PUSH2 0x57B2 JUMP JUMPDEST JUMPDEST DUP1 PUSH1 0x40 MSTORE POP POP POP JUMP JUMPDEST PUSH1 0x0 PUSH2 0x56B8 DUP3 PUSH2 0x55CF JUMP JUMPDEST SWAP2 POP PUSH32 0xFFFFFFFFFFFFFFFFFFFFFFFFFFFFFFFFFFFFFFFFFFFFFFFFFFFFFFFFFFFFFFFF DUP3 EQ ISZERO PUSH2 0x56EB JUMPI PUSH2 0x56EA PUSH2 0x56F6 JUMP JUMPDEST JUMPDEST PUSH1 0x1 DUP3 ADD SWAP1 POP SWAP2 SWAP1 POP JUMP JUMPDEST PUSH32 0x4E487B7100000000000000000000000000000000000000000000000000000000 PUSH1 0x0 MSTORE PUSH1 0x11 PUSH1 0x4 MSTORE PUSH1 0x24 PUSH1 0x0 REVERT JUMPDEST PUSH32 0x4E487B7100000000000000000000000000000000000000000000000000000000 PUSH1 0x0 MSTORE PUSH1 0x21 PUSH1 0x4 MSTORE PUSH1 0x24 PUSH1 0x0 REVERT JUMPDEST PUSH32 0x4E487B7100000000000000000000000000000000000000000000000000000000 PUSH1 0x0 MSTORE PUSH1 0x22 PUSH1 0x4 MSTORE PUSH1 0x24 PUSH1 0x0 REVERT JUMPDEST PUSH32 0x4E487B7100000000000000000000000000000000000000000000000000000000 PUSH1 0x0 MSTORE PUSH1 0x32 PUSH1 0x4 MSTORE PUSH1 0x24 PUSH1 0x0 REVERT JUMPDEST PUSH32 0x4E487B7100000000000000000000000000000000000000000000000000000000 PUSH1 0x0 MSTORE PUSH1 0x41 PUSH1 0x4 MSTORE PUSH1 0x24 PUSH1 0x0 REVERT JUMPDEST PUSH1 0x0 DUP1 REVERT JUMPDEST PUSH1 0x0 DUP1 REVERT JUMPDEST PUSH1 0x0 DUP1 REVERT JUMPDEST PUSH1 0x0 DUP1 REVERT JUMPDEST PUSH1 0x0 PUSH1 0x1F NOT PUSH1 0x1F DUP4 ADD AND SWAP1 POP SWAP2 SWAP1 POP JUMP JUMPDEST PUSH32 0x53616465636520594F4B2062752069736C656D69207961706162696C69722E00 PUSH1 0x0 DUP3 ADD MSTORE POP JUMP JUMPDEST PUSH32 0x4B757273204D65726B657A69205A6174656E204D657663757400000000000000 PUSH1 0x0 DUP3 ADD MSTORE POP JUMP JUMPDEST PUSH32 0x556E6976657273697465204D657663757420446567696C000000000000000000 PUSH1 0x0 DUP3 ADD MSTORE POP JUMP JUMPDEST PUSH32 0x4B697369204D657663757420446567696C000000000000000000000000000000 PUSH1 0x0 DUP3 ADD MSTORE POP JUMP JUMPDEST PUSH32 0x4B616D75204B7572756D75205A6174656E204D65766375740000000000000000 PUSH1 0x0 DUP3 ADD MSTORE POP JUMP JUMPDEST PUSH32 0x4669726D61205A6174656E204D65766375740000000000000000000000000000 PUSH1 0x0 DUP3 ADD MSTORE POP JUMP JUMPDEST PUSH32 0x5361646563652043422062752069736C656D69207961706162696C69722E0000 PUSH1 0x0 DUP3 ADD MSTORE POP JUMP JUMPDEST PUSH32 0x536572746966696B61204D65726B657A69205A6174656E204D65766375740000 PUSH1 0x0 DUP3 ADD MSTORE POP JUMP JUMPDEST PUSH32 0x536976696C20546F706C756D204B7572756C757375204D657663757420446567 PUSH1 0x0 DUP3 ADD MSTORE PUSH32 0x696C000000000000000000000000000000000000000000000000000000000000 PUSH1 0x20 DUP3 ADD MSTORE POP JUMP JUMPDEST PUSH32 0x536976696C20546F706C756D204B7572756C757375205A6174656E204D657663 PUSH1 0x0 DUP3 ADD MSTORE PUSH32 0x7574000000000000000000000000000000000000000000000000000000000000 PUSH1 0x20 DUP3 ADD MSTORE POP JUMP JUMPDEST PUSH32 0x556E6976657273697465205A6174656E204D6576637574000000000000000000 PUSH1 0x0 DUP3 ADD MSTORE POP JUMP JUMPDEST PUSH32 0x536572746966696B61204D65726B657A69204D657663757420446567696C0000 PUSH1 0x0 DUP3 ADD MSTORE POP JUMP JUMPDEST PUSH32 0x4B697369205A6174656E204D6576637574000000000000000000000000000000 PUSH1 0x0 DUP3 ADD MSTORE POP JUMP JUMPDEST PUSH32 0x4B616D75204B7572756D75204D657663757420446567696C0000000000000000 PUSH1 0x0 DUP3 ADD MSTORE POP JUMP JUMPDEST PUSH32 0x4669726D61204D657663757420446567696C0000000000000000000000000000 PUSH1 0x0 DUP3 ADD MSTORE POP JUMP JUMPDEST PUSH32 0x4B757273204D65726B657A69204D657663757420446567696C00000000000000 PUSH1 0x0 DUP3 ADD MSTORE POP JUMP JUMPDEST PUSH32 0x53616465636520544F42422062752069736C656D69207961706162696C69722E PUSH1 0x0 DUP3 ADD MSTORE POP JUMP JUMPDEST PUSH1 0x4 DUP2 LT PUSH2 0x5B1C JUMPI PUSH2 0x5B1B PUSH2 0x5725 JUMP JUMPDEST JUMPDEST POP JUMP JUMPDEST PUSH2 0x5B28 DUP2 PUSH2 0x5570 JUMP JUMPDEST DUP2 EQ PUSH2 0x5B33 JUMPI PUSH1 0x0 DUP1 REVERT JUMPDEST POP JUMP JUMPDEST PUSH2 0x5B3F DUP2 PUSH2 0x5582 JUMP JUMPDEST DUP2 EQ PUSH2 0x5B4A JUMPI PUSH1 0x0 DUP1 REVERT JUMPDEST POP JUMP JUMPDEST PUSH2 0x5B56 DUP2 PUSH2 0x55CF JUMP JUMPDEST DUP2 EQ PUSH2 0x5B61 JUMPI PUSH1 0x0 DUP1 REVERT JUMPDEST POP JUMP JUMPDEST PUSH2 0x5B6D DUP2 PUSH2 0x55D9 JUMP JUMPDEST DUP2 EQ PUSH2 0x5B78 JUMPI PUSH1 0x0 DUP1 REVERT JUMPDEST POP JUMP JUMPDEST PUSH2 0x5B84 DUP2 PUSH2 0x55E9 JUMP JUMPDEST DUP2 EQ PUSH2 0x5B8F JUMPI PUSH1 0x0 DUP1 REVERT JUMPDEST POP JUMP INVALID LOG2 PUSH5 0x6970667358 0x22 SLT KECCAK256 0xD8 RETURNDATASIZE DUP16 SHR DUP14 SELFDESTRUCT PUSH17 0x1D0B30F16DBEEFF48E17E6849AFBD44B53 0xAB 0xD8 DUP11 DUP13 DELEGATECALL 0xDA DUP2 0xE8 PUSH5 0x736F6C6343 STOP ADDMOD SMOD STOP CALLER "
				},
				"gasEstimates": {
					"creation": {
						"codeDepositCost": "4699200",
						"executionCost": "5516",
						"totalCost": "4704716"
					},
					"external": {
						"YOK()": "2645",
						"akademisyenler(address)": "infinite",
						"diller(uint32)": "infinite",
						"ekleFirma(address,string,uint256,uint8)": "infinite",
						"ekleKamuKurumu(address,string,uint8)": "infinite",
						"ekleKisi(address)": "75780",
						"ekleKurs(address,string,uint8)": "infinite",
						"ekleSTK(address,string,uint8)": "infinite",
						"ekleSertifikaMerkezi(address,string,uint8)": "infinite",
						"ekleUniversite(address,string,uint8)": "infinite",
						"firmaAdresleri(uint256)": "5046",
						"firmalar(address)": "infinite",
						"getFirmaListesi()": "infinite",
						"getKamuKurumuListesi()": "infinite",
						"getKursListesi()": "infinite",
						"getSmListesi()": "infinite",
						"getStkListesi()": "infinite",
						"getUniversiteListesi()": "infinite",
						"guncelleFirma(address,string,uint256,uint8)": "infinite",
						"guncelleKamuKurumu(address,string,uint8)": "infinite",
						"guncelleKisi(address,bool)": "27355",
						"guncelleKurs(address,string,uint8)": "infinite",
						"guncelleSTK(address,string,uint8)": "infinite",
						"guncelleSertifikaMerkezi(address,string,uint8)": "infinite",
						"guncelleUniversite(address,string,uint8)": "infinite",
						"isCB(address)": "2944",
						"isFirma(address)": "3001",
						"isKamuKurumu(address)": "2979",
						"isKisi(address)": "3023",
						"isKurs(address)": "2958",
						"isSTK(address)": "3001",
						"isSertifikaMerkezi(address)": "3000",
						"isTOBB(address)": "2946",
						"isUniversite(address)": "2978",
						"isYOK(address)": "2920",
						"kamuKurumAdresleri(uint256)": "5047",
						"kamuKurumlari(address)": "infinite",
						"kisiAdresleri(uint256)": "5067",
						"kisiler(address)": "2937",
						"kursAdresleri(uint256)": "5023",
						"kurslar(address)": "infinite",
						"paydasTanimla(address,address,address)": "infinite",
						"sertifikaMerkezleri(address)": "infinite",
						"silFirma(address)": "infinite",
						"silKamuKurumu(address)": "infinite",
						"silKisi(address)": "27185",
						"silKurs(address)": "infinite",
						"silSTK(address)": "infinite",
						"silSertifikaMerkezi(address)": "infinite",
						"silUniversite(address)": "infinite",
						"smAdresleri(uint256)": "5069",
						"stkAdresleri(uint256)": "5023",
						"stklar(address)": "infinite",
						"universiteAdresleri(uint256)": "5024",
						"universiteler(address)": "infinite"
					}
				},
				"methodIdentifiers": {
					"YOK()": "71af892d",
					"akademisyenler(address)": "ba479b7e",
					"diller(uint32)": "a4e7ae05",
					"ekleFirma(address,string,uint256,uint8)": "d25aab85",
					"ekleKamuKurumu(address,string,uint8)": "f63c649f",
					"ekleKisi(address)": "f54acc65",
					"ekleKurs(address,string,uint8)": "46224853",
					"ekleSTK(address,string,uint8)": "19023bf3",
					"ekleSertifikaMerkezi(address,string,uint8)": "9dc30114",
					"ekleUniversite(address,string,uint8)": "001d54ab",
					"firmaAdresleri(uint256)": "b07b0e5a",
					"firmalar(address)": "39987f94",
					"getFirmaListesi()": "d508602d",
					"getKamuKurumuListesi()": "d71ed8b1",
					"getKursListesi()": "d0d6b7a3",
					"getSmListesi()": "fd738e6d",
					"getStkListesi()": "a29879c0",
					"getUniversiteListesi()": "871db892",
					"guncelleFirma(address,string,uint256,uint8)": "a81dc179",
					"guncelleKamuKurumu(address,string,uint8)": "150596f4",
					"guncelleKisi(address,bool)": "f1981850",
					"guncelleKurs(address,string,uint8)": "d5f6d56c",
					"guncelleSTK(address,string,uint8)": "91e9528a",
					"guncelleSertifikaMerkezi(address,string,uint8)": "b2a825bb",
					"guncelleUniversite(address,string,uint8)": "c6da8cfe",
					"isCB(address)": "e5130508",
					"isFirma(address)": "2d087d70",
					"isKamuKurumu(address)": "514e03c7",
					"isKisi(address)": "b98ccefd",
					"isKurs(address)": "024eb6bc",
					"isSTK(address)": "8c848885",
					"isSertifikaMerkezi(address)": "e24047ca",
					"isTOBB(address)": "139884ec",
					"isUniversite(address)": "f0040eb9",
					"isYOK(address)": "d7396414",
					"kamuKurumAdresleri(uint256)": "0a33e3eb",
					"kamuKurumlari(address)": "7d0fa287",
					"kisiAdresleri(uint256)": "f1403851",
					"kisiler(address)": "cbc92809",
					"kursAdresleri(uint256)": "e8abb184",
					"kurslar(address)": "1916e139",
					"paydasTanimla(address,address,address)": "36fd2633",
					"sertifikaMerkezleri(address)": "356b1f1e",
					"silFirma(address)": "1d595580",
					"silKamuKurumu(address)": "50d2a060",
					"silKisi(address)": "bd35a506",
					"silKurs(address)": "afb61b1e",
					"silSTK(address)": "d88d8c12",
					"silSertifikaMerkezi(address)": "548fa620",
					"silUniversite(address)": "9bfc4dbd",
					"smAdresleri(uint256)": "0b877ca7",
					"stkAdresleri(uint256)": "d7909777",
					"stklar(address)": "9a8c9119",
					"universiteAdresleri(uint256)": "1f145f47",
					"universiteler(address)": "28266697"
				}
			},
			"storageLayout": {
				"storage": [
					{
						"astId": 3,
						"contract": "contracts/BaseContract.sol:BaseContract",
						"label": "YOK",
						"offset": 0,
						"slot": "0",
						"type": "t_address"
					},
					{
						"astId": 5,
						"contract": "contracts/BaseContract.sol:BaseContract",
						"label": "TOBB",
						"offset": 0,
						"slot": "1",
						"type": "t_address"
					},
					{
						"astId": 7,
						"contract": "contracts/BaseContract.sol:BaseContract",
						"label": "CB",
						"offset": 0,
						"slot": "2",
						"type": "t_address"
					},
					{
						"astId": 417,
						"contract": "contracts/BaseContract.sol:BaseContract",
						"label": "kisiler",
						"offset": 0,
						"slot": "3",
						"type": "t_mapping(t_address,t_struct(Kisi)32_storage)"
					},
					{
						"astId": 422,
						"contract": "contracts/BaseContract.sol:BaseContract",
						"label": "universiteler",
						"offset": 0,
						"slot": "4",
						"type": "t_mapping(t_address,t_struct(Universite)65_storage)"
					},
					{
						"astId": 427,
						"contract": "contracts/BaseContract.sol:BaseContract",
						"label": "akademisyenler",
						"offset": 0,
						"slot": "5",
						"type": "t_mapping(t_address,t_struct(Akademisyen)79_storage)"
					},
					{
						"astId": 432,
						"contract": "contracts/BaseContract.sol:BaseContract",
						"label": "firmalar",
						"offset": 0,
						"slot": "6",
						"type": "t_mapping(t_address,t_struct(Firma)119_storage)"
					},
					{
						"astId": 437,
						"contract": "contracts/BaseContract.sol:BaseContract",
						"label": "kurslar",
						"offset": 0,
						"slot": "7",
						"type": "t_mapping(t_address,t_struct(Kurs)147_storage)"
					},
					{
						"astId": 442,
						"contract": "contracts/BaseContract.sol:BaseContract",
						"label": "kamuKurumlari",
						"offset": 0,
						"slot": "8",
						"type": "t_mapping(t_address,t_struct(KamuKurumu)126_storage)"
					},
					{
						"astId": 447,
						"contract": "contracts/BaseContract.sol:BaseContract",
						"label": "stklar",
						"offset": 0,
						"slot": "9",
						"type": "t_mapping(t_address,t_struct(STK)133_storage)"
					},
					{
						"astId": 452,
						"contract": "contracts/BaseContract.sol:BaseContract",
						"label": "sertifikaMerkezleri",
						"offset": 0,
						"slot": "10",
						"type": "t_mapping(t_address,t_struct(SertifikaMerkezi)140_storage)"
					},
					{
						"astId": 457,
						"contract": "contracts/BaseContract.sol:BaseContract",
						"label": "diller",
						"offset": 0,
						"slot": "11",
						"type": "t_mapping(t_uint32,t_struct(YabanciDil)152_storage)"
					},
					{
						"astId": 460,
						"contract": "contracts/BaseContract.sol:BaseContract",
						"label": "kisiAdresleri",
						"offset": 0,
						"slot": "12",
						"type": "t_array(t_address)dyn_storage"
					},
					{
						"astId": 463,
						"contract": "contracts/BaseContract.sol:BaseContract",
						"label": "universiteAdresleri",
						"offset": 0,
						"slot": "13",
						"type": "t_array(t_address)dyn_storage"
					},
					{
						"astId": 466,
						"contract": "contracts/BaseContract.sol:BaseContract",
						"label": "firmaAdresleri",
						"offset": 0,
						"slot": "14",
						"type": "t_array(t_address)dyn_storage"
					},
					{
						"astId": 469,
						"contract": "contracts/BaseContract.sol:BaseContract",
						"label": "kursAdresleri",
						"offset": 0,
						"slot": "15",
						"type": "t_array(t_address)dyn_storage"
					},
					{
						"astId": 472,
						"contract": "contracts/BaseContract.sol:BaseContract",
						"label": "kamuKurumAdresleri",
						"offset": 0,
						"slot": "16",
						"type": "t_array(t_address)dyn_storage"
					},
					{
						"astId": 475,
						"contract": "contracts/BaseContract.sol:BaseContract",
						"label": "stkAdresleri",
						"offset": 0,
						"slot": "17",
						"type": "t_array(t_address)dyn_storage"
					},
					{
						"astId": 478,
						"contract": "contracts/BaseContract.sol:BaseContract",
						"label": "smAdresleri",
						"offset": 0,
						"slot": "18",
						"type": "t_array(t_address)dyn_storage"
					}
				],
				"types": {
					"t_address": {
						"encoding": "inplace",
						"label": "address",
						"numberOfBytes": "20"
					},
					"t_array(t_address)dyn_storage": {
						"base": "t_address",
						"encoding": "dynamic_array",
						"label": "address[]",
						"numberOfBytes": "32"
					},
					"t_bool": {
						"encoding": "inplace",
						"label": "bool",
						"numberOfBytes": "1"
					},
					"t_enum(Unvan)84": {
						"encoding": "inplace",
						"label": "enum BaseContract.Unvan",
						"numberOfBytes": "1"
					},
					"t_mapping(t_address,t_struct(Akademisyen)79_storage)": {
						"encoding": "mapping",
						"key": "t_address",
						"label": "mapping(address => struct BaseContract.Akademisyen)",
						"numberOfBytes": "32",
						"value": "t_struct(Akademisyen)79_storage"
					},
					"t_mapping(t_address,t_struct(Firma)119_storage)": {
						"encoding": "mapping",
						"key": "t_address",
						"label": "mapping(address => struct BaseContract.Firma)",
						"numberOfBytes": "32",
						"value": "t_struct(Firma)119_storage"
					},
					"t_mapping(t_address,t_struct(KamuKurumu)126_storage)": {
						"encoding": "mapping",
						"key": "t_address",
						"label": "mapping(address => struct BaseContract.KamuKurumu)",
						"numberOfBytes": "32",
						"value": "t_struct(KamuKurumu)126_storage"
					},
					"t_mapping(t_address,t_struct(Kisi)32_storage)": {
						"encoding": "mapping",
						"key": "t_address",
						"label": "mapping(address => struct BaseContract.Kisi)",
						"numberOfBytes": "32",
						"value": "t_struct(Kisi)32_storage"
					},
					"t_mapping(t_address,t_struct(Kurs)147_storage)": {
						"encoding": "mapping",
						"key": "t_address",
						"label": "mapping(address => struct BaseContract.Kurs)",
						"numberOfBytes": "32",
						"value": "t_struct(Kurs)147_storage"
					},
					"t_mapping(t_address,t_struct(STK)133_storage)": {
						"encoding": "mapping",
						"key": "t_address",
						"label": "mapping(address => struct BaseContract.STK)",
						"numberOfBytes": "32",
						"value": "t_struct(STK)133_storage"
					},
					"t_mapping(t_address,t_struct(SertifikaMerkezi)140_storage)": {
						"encoding": "mapping",
						"key": "t_address",
						"label": "mapping(address => struct BaseContract.SertifikaMerkezi)",
						"numberOfBytes": "32",
						"value": "t_struct(SertifikaMerkezi)140_storage"
					},
					"t_mapping(t_address,t_struct(Universite)65_storage)": {
						"encoding": "mapping",
						"key": "t_address",
						"label": "mapping(address => struct BaseContract.Universite)",
						"numberOfBytes": "32",
						"value": "t_struct(Universite)65_storage"
					},
					"t_mapping(t_uint32,t_struct(YabanciDil)152_storage)": {
						"encoding": "mapping",
						"key": "t_uint32",
						"label": "mapping(uint32 => struct BaseContract.YabanciDil)",
						"numberOfBytes": "32",
						"value": "t_struct(YabanciDil)152_storage"
					},
					"t_string_storage": {
						"encoding": "bytes",
						"label": "string",
						"numberOfBytes": "32"
					},
					"t_struct(Akademisyen)79_storage": {
						"encoding": "inplace",
						"label": "struct BaseContract.Akademisyen",
						"members": [
							{
								"astId": 67,
								"contract": "contracts/BaseContract.sol:BaseContract",
								"label": "durum",
								"offset": 0,
								"slot": "0",
								"type": "t_bool"
							},
							{
								"astId": 69,
								"contract": "contracts/BaseContract.sol:BaseContract",
								"label": "universite",
								"offset": 1,
								"slot": "0",
								"type": "t_address"
							},
							{
								"astId": 71,
								"contract": "contracts/BaseContract.sol:BaseContract",
								"label": "bolum",
								"offset": 21,
								"slot": "0",
								"type": "t_uint16"
							},
							{
								"astId": 74,
								"contract": "contracts/BaseContract.sol:BaseContract",
								"label": "unvan",
								"offset": 23,
								"slot": "0",
								"type": "t_enum(Unvan)84"
							},
							{
								"astId": 76,
								"contract": "contracts/BaseContract.sol:BaseContract",
								"label": "ad",
								"offset": 0,
								"slot": "1",
								"type": "t_string_storage"
							},
							{
								"astId": 78,
								"contract": "contracts/BaseContract.sol:BaseContract",
								"label": "soyad",
								"offset": 0,
								"slot": "2",
								"type": "t_string_storage"
							}
						],
						"numberOfBytes": "96"
					},
					"t_struct(Firma)119_storage": {
						"encoding": "inplace",
						"label": "struct BaseContract.Firma",
						"members": [
							{
								"astId": 112,
								"contract": "contracts/BaseContract.sol:BaseContract",
								"label": "durum",
								"offset": 0,
								"slot": "0",
								"type": "t_bool"
							},
							{
								"astId": 114,
								"contract": "contracts/BaseContract.sol:BaseContract",
								"label": "ulke",
								"offset": 1,
								"slot": "0",
								"type": "t_uint8"
							},
							{
								"astId": 116,
								"contract": "contracts/BaseContract.sol:BaseContract",
								"label": "vergiNo",
								"offset": 0,
								"slot": "1",
								"type": "t_uint256"
							},
							{
								"astId": 118,
								"contract": "contracts/BaseContract.sol:BaseContract",
								"label": "isim",
								"offset": 0,
								"slot": "2",
								"type": "t_string_storage"
							}
						],
						"numberOfBytes": "96"
					},
					"t_struct(KamuKurumu)126_storage": {
						"encoding": "inplace",
						"label": "struct BaseContract.KamuKurumu",
						"members": [
							{
								"astId": 121,
								"contract": "contracts/BaseContract.sol:BaseContract",
								"label": "durum",
								"offset": 0,
								"slot": "0",
								"type": "t_bool"
							},
							{
								"astId": 123,
								"contract": "contracts/BaseContract.sol:BaseContract",
								"label": "isim",
								"offset": 0,
								"slot": "1",
								"type": "t_string_storage"
							},
							{
								"astId": 125,
								"contract": "contracts/BaseContract.sol:BaseContract",
								"label": "ulke",
								"offset": 0,
								"slot": "2",
								"type": "t_uint8"
							}
						],
						"numberOfBytes": "96"
					},
					"t_struct(Kisi)32_storage": {
						"encoding": "inplace",
						"label": "struct BaseContract.Kisi",
						"members": [
							{
								"astId": 31,
								"contract": "contracts/BaseContract.sol:BaseContract",
								"label": "durum",
								"offset": 0,
								"slot": "0",
								"type": "t_bool"
							}
						],
						"numberOfBytes": "32"
					},
					"t_struct(Kurs)147_storage": {
						"encoding": "inplace",
						"label": "struct BaseContract.Kurs",
						"members": [
							{
								"astId": 142,
								"contract": "contracts/BaseContract.sol:BaseContract",
								"label": "durum",
								"offset": 0,
								"slot": "0",
								"type": "t_bool"
							},
							{
								"astId": 144,
								"contract": "contracts/BaseContract.sol:BaseContract",
								"label": "isim",
								"offset": 0,
								"slot": "1",
								"type": "t_string_storage"
							},
							{
								"astId": 146,
								"contract": "contracts/BaseContract.sol:BaseContract",
								"label": "ulke",
								"offset": 0,
								"slot": "2",
								"type": "t_uint8"
							}
						],
						"numberOfBytes": "96"
					},
					"t_struct(STK)133_storage": {
						"encoding": "inplace",
						"label": "struct BaseContract.STK",
						"members": [
							{
								"astId": 128,
								"contract": "contracts/BaseContract.sol:BaseContract",
								"label": "durum",
								"offset": 0,
								"slot": "0",
								"type": "t_bool"
							},
							{
								"astId": 130,
								"contract": "contracts/BaseContract.sol:BaseContract",
								"label": "isim",
								"offset": 0,
								"slot": "1",
								"type": "t_string_storage"
							},
							{
								"astId": 132,
								"contract": "contracts/BaseContract.sol:BaseContract",
								"label": "ulke",
								"offset": 0,
								"slot": "2",
								"type": "t_uint8"
							}
						],
						"numberOfBytes": "96"
					},
					"t_struct(SertifikaMerkezi)140_storage": {
						"encoding": "inplace",
						"label": "struct BaseContract.SertifikaMerkezi",
						"members": [
							{
								"astId": 135,
								"contract": "contracts/BaseContract.sol:BaseContract",
								"label": "durum",
								"offset": 0,
								"slot": "0",
								"type": "t_bool"
							},
							{
								"astId": 137,
								"contract": "contracts/BaseContract.sol:BaseContract",
								"label": "isim",
								"offset": 0,
								"slot": "1",
								"type": "t_string_storage"
							},
							{
								"astId": 139,
								"contract": "contracts/BaseContract.sol:BaseContract",
								"label": "ulke",
								"offset": 0,
								"slot": "2",
								"type": "t_uint8"
							}
						],
						"numberOfBytes": "96"
					},
					"t_struct(Universite)65_storage": {
						"encoding": "inplace",
						"label": "struct BaseContract.Universite",
						"members": [
							{
								"astId": 60,
								"contract": "contracts/BaseContract.sol:BaseContract",
								"label": "durum",
								"offset": 0,
								"slot": "0",
								"type": "t_bool"
							},
							{
								"astId": 62,
								"contract": "contracts/BaseContract.sol:BaseContract",
								"label": "isim",
								"offset": 0,
								"slot": "1",
								"type": "t_string_storage"
							},
							{
								"astId": 64,
								"contract": "contracts/BaseContract.sol:BaseContract",
								"label": "ulke",
								"offset": 0,
								"slot": "2",
								"type": "t_uint8"
							}
						],
						"numberOfBytes": "96"
					},
					"t_struct(YabanciDil)152_storage": {
						"encoding": "inplace",
						"label": "struct BaseContract.YabanciDil",
						"members": [
							{
								"astId": 149,
								"contract": "contracts/BaseContract.sol:BaseContract",
								"label": "id",
								"offset": 0,
								"slot": "0",
								"type": "t_uint32"
							},
							{
								"astId": 151,
								"contract": "contracts/BaseContract.sol:BaseContract",
								"label": "isim",
								"offset": 0,
								"slot": "1",
								"type": "t_string_storage"
							}
						],
						"numberOfBytes": "64"
					},
					"t_uint16": {
						"encoding": "inplace",
						"label": "uint16",
						"numberOfBytes": "2"
					},
					"t_uint256": {
						"encoding": "inplace",
						"label": "uint256",
						"numberOfBytes": "32"
					},
					"t_uint32": {
						"encoding": "inplace",
						"label": "uint32",
						"numberOfBytes": "4"
					},
					"t_uint8": {
						"encoding": "inplace",
						"label": "uint8",
						"numberOfBytes": "1"
					}
				}
			},
			"userdoc": {
				"kind": "user",
				"methods": {},
				"version": 1
			}
		}
	}
}