{
	"contracts/CalismaBilgileri.sol": {
		"CalismaBilgileri": {
			"abi": [
				{
					"anonymous": false,
					"inputs": [
						{
							"indexed": false,
							"internalType": "address",
							"name": "_kisiAdres",
							"type": "address"
						},
						{
							"indexed": false,
							"internalType": "address",
							"name": "_kurumAdres",
							"type": "address"
						},
						{
							"indexed": false,
							"internalType": "uint256",
							"name": "_pozisyon",
							"type": "uint256"
						},
						{
							"indexed": false,
							"internalType": "uint256",
							"name": "_sektor",
							"type": "uint256"
						}
					],
					"name": "CalismaBilgiEklendiLog",
					"type": "event"
				},
				{
					"anonymous": false,
					"inputs": [
						{
							"indexed": false,
							"internalType": "address",
							"name": "_kisiAdres",
							"type": "address"
						},
						{
							"indexed": false,
							"internalType": "address",
							"name": "_kurumAdres",
							"type": "address"
						},
						{
							"indexed": false,
							"internalType": "uint256",
							"name": "_pozisyon",
							"type": "uint256"
						},
						{
							"indexed": false,
							"internalType": "uint256",
							"name": "_sektor",
							"type": "uint256"
						}
					],
					"name": "CalismaBilgiGuncellendiLog",
					"type": "event"
				},
				{
					"inputs": [
						{
							"internalType": "address",
							"name": "",
							"type": "address"
						}
					],
					"name": "akademisyenler",
					"outputs": [
						{
							"internalType": "bool",
							"name": "durum",
							"type": "bool"
						},
						{
							"internalType": "address",
							"name": "universite",
							"type": "address"
						},
						{
							"internalType": "uint16",
							"name": "bolum",
							"type": "uint16"
						},
						{
							"internalType": "enum BaseContract.Unvan",
							"name": "unvan",
							"type": "uint8"
						},
						{
							"internalType": "string",
							"name": "ad",
							"type": "string"
						},
						{
							"internalType": "string",
							"name": "soyad",
							"type": "string"
						}
					],
					"stateMutability": "view",
					"type": "function"
				},
				{
					"inputs": [
						{
							"internalType": "address",
							"name": "",
							"type": "address"
						},
						{
							"internalType": "uint256",
							"name": "",
							"type": "uint256"
						}
					],
					"name": "calismaBilgileri",
					"outputs": [
						{
							"internalType": "uint256",
							"name": "id",
							"type": "uint256"
						},
						{
							"internalType": "address",
							"name": "kurumAdres",
							"type": "address"
						},
						{
							"internalType": "uint32",
							"name": "pozisyon",
							"type": "uint32"
						},
						{
							"internalType": "uint8",
							"name": "sektor",
							"type": "uint8"
						},
						{
							"internalType": "enum CalismaBilgileri.CalismaTipi",
							"name": "calismaTipi",
							"type": "uint8"
						},
						{
							"internalType": "string",
							"name": "isAciklama",
							"type": "string"
						},
						{
							"internalType": "uint256",
							"name": "basTarih",
							"type": "uint256"
						},
						{
							"internalType": "uint256",
							"name": "bitTarih",
							"type": "uint256"
						},
						{
							"internalType": "uint8",
							"name": "ulke",
							"type": "uint8"
						},
						{
							"internalType": "uint32",
							"name": "sehir",
							"type": "uint32"
						}
					],
					"stateMutability": "view",
					"type": "function"
				},
				{
					"inputs": [
						{
							"internalType": "uint32",
							"name": "",
							"type": "uint32"
						}
					],
					"name": "diller",
					"outputs": [
						{
							"internalType": "uint32",
							"name": "id",
							"type": "uint32"
						},
						{
							"internalType": "string",
							"name": "isim",
							"type": "string"
						}
					],
					"stateMutability": "view",
					"type": "function"
				},
				{
					"inputs": [
						{
							"internalType": "address",
							"name": "_kisiAddress",
							"type": "address"
						},
						{
							"internalType": "address",
							"name": "kurumAdres",
							"type": "address"
						},
						{
							"internalType": "uint32",
							"name": "pozisyon",
							"type": "uint32"
						},
						{
							"internalType": "uint8",
							"name": "sektor",
							"type": "uint8"
						},
						{
							"internalType": "enum CalismaBilgileri.CalismaTipi",
							"name": "calismaTipi",
							"type": "uint8"
						},
						{
							"internalType": "string",
							"name": "isAciklama",
							"type": "string"
						},
						{
							"internalType": "uint256",
							"name": "basTarih",
							"type": "uint256"
						},
						{
							"internalType": "uint256",
							"name": "bitTarih",
							"type": "uint256"
						},
						{
							"internalType": "uint8",
							"name": "ulke",
							"type": "uint8"
						},
						{
							"internalType": "uint32",
							"name": "sehir",
							"type": "uint32"
						}
					],
					"name": "ekleCalismaBilgi",
					"outputs": [],
					"stateMutability": "nonpayable",
					"type": "function"
				},
				{
					"inputs": [
						{
							"internalType": "address",
							"name": "",
							"type": "address"
						}
					],
					"name": "firmalar",
					"outputs": [
						{
							"internalType": "bool",
							"name": "durum",
							"type": "bool"
						},
						{
							"internalType": "uint8",
							"name": "ulke",
							"type": "uint8"
						},
						{
							"internalType": "uint256",
							"name": "vergiNo",
							"type": "uint256"
						},
						{
							"internalType": "string",
							"name": "isim",
							"type": "string"
						}
					],
					"stateMutability": "view",
					"type": "function"
				},
				{
					"inputs": [
						{
							"internalType": "address",
							"name": "_kisiAddress",
							"type": "address"
						},
						{
							"internalType": "uint256",
							"name": "_calismaBilgiId",
							"type": "uint256"
						},
						{
							"internalType": "address",
							"name": "kurumAdres",
							"type": "address"
						},
						{
							"internalType": "uint32",
							"name": "pozisyon",
							"type": "uint32"
						},
						{
							"internalType": "uint8",
							"name": "sektor",
							"type": "uint8"
						},
						{
							"internalType": "enum CalismaBilgileri.CalismaTipi",
							"name": "calismaTipi",
							"type": "uint8"
						},
						{
							"internalType": "string",
							"name": "isAciklama",
							"type": "string"
						},
						{
							"internalType": "uint256",
							"name": "basTarih",
							"type": "uint256"
						},
						{
							"internalType": "uint256",
							"name": "bitTarih",
							"type": "uint256"
						},
						{
							"internalType": "uint8",
							"name": "ulke",
							"type": "uint8"
						},
						{
							"internalType": "uint32",
							"name": "sehir",
							"type": "uint32"
						}
					],
					"name": "guncelleCalismaBilgi",
					"outputs": [
						{
							"internalType": "uint256",
							"name": "",
							"type": "uint256"
						}
					],
					"stateMutability": "nonpayable",
					"type": "function"
				},
				{
					"inputs": [],
					"name": "id",
					"outputs": [
						{
							"internalType": "uint256",
							"name": "",
							"type": "uint256"
						}
					],
					"stateMutability": "view",
					"type": "function"
				},
				{
					"inputs": [
						{
							"internalType": "address",
							"name": "",
							"type": "address"
						}
					],
					"name": "kamuKurumlari",
					"outputs": [
						{
							"internalType": "bool",
							"name": "durum",
							"type": "bool"
						},
						{
							"internalType": "string",
							"name": "isim",
							"type": "string"
						},
						{
							"internalType": "uint8",
							"name": "ulke",
							"type": "uint8"
						}
					],
					"stateMutability": "view",
					"type": "function"
				},
				{
					"inputs": [
						{
							"internalType": "address",
							"name": "",
							"type": "address"
						}
					],
					"name": "kisiler",
					"outputs": [
						{
							"internalType": "bool",
							"name": "durum",
							"type": "bool"
						}
					],
					"stateMutability": "view",
					"type": "function"
				},
				{
					"inputs": [
						{
							"internalType": "address",
							"name": "",
							"type": "address"
						}
					],
					"name": "kurslar",
					"outputs": [
						{
							"internalType": "bool",
							"name": "durum",
							"type": "bool"
						},
						{
							"internalType": "string",
							"name": "isim",
							"type": "string"
						},
						{
							"internalType": "uint8",
							"name": "ulke",
							"type": "uint8"
						}
					],
					"stateMutability": "view",
					"type": "function"
				},
				{
					"inputs": [
						{
							"internalType": "address",
							"name": "",
							"type": "address"
						}
					],
					"name": "sertifikaMerkezleri",
					"outputs": [
						{
							"internalType": "bool",
							"name": "durum",
							"type": "bool"
						},
						{
							"internalType": "string",
							"name": "isim",
							"type": "string"
						},
						{
							"internalType": "uint8",
							"name": "ulke",
							"type": "uint8"
						}
					],
					"stateMutability": "view",
					"type": "function"
				},
				{
					"inputs": [
						{
							"internalType": "address",
							"name": "",
							"type": "address"
						}
					],
					"name": "stklar",
					"outputs": [
						{
							"internalType": "bool",
							"name": "durum",
							"type": "bool"
						},
						{
							"internalType": "string",
							"name": "isim",
							"type": "string"
						},
						{
							"internalType": "uint8",
							"name": "ulke",
							"type": "uint8"
						}
					],
					"stateMutability": "view",
					"type": "function"
				},
				{
					"inputs": [
						{
							"internalType": "address",
							"name": "",
							"type": "address"
						}
					],
					"name": "universiteler",
					"outputs": [
						{
							"internalType": "bool",
							"name": "durum",
							"type": "bool"
						},
						{
							"internalType": "string",
							"name": "isim",
							"type": "string"
						},
						{
							"internalType": "uint8",
							"name": "ulke",
							"type": "uint8"
						}
					],
					"stateMutability": "view",
					"type": "function"
				}
			],
			"devdoc": {
				"kind": "dev",
				"methods": {},
				"version": 1
			},
			"evm": {
				"assembly": "    /* \"contracts/CalismaBilgileri.sol\":137:3320  contract CalismaBilgileri is BaseContract{\r... */\n  mstore(0x40, 0x80)\n  callvalue\n  dup1\n  iszero\n  tag_1\n  jumpi\n  0x00\n  dup1\n  revert\ntag_1:\n  pop\n  dataSize(sub_0)\n  dup1\n  dataOffset(sub_0)\n  0x00\n  codecopy\n  0x00\n  return\nstop\n\nsub_0: assembly {\n        /* \"contracts/CalismaBilgileri.sol\":137:3320  contract CalismaBilgileri is BaseContract{\r... */\n      mstore(0x40, 0x80)\n      callvalue\n      dup1\n      iszero\n      tag_1\n      jumpi\n      0x00\n      dup1\n      revert\n    tag_1:\n      pop\n      jumpi(tag_2, lt(calldatasize, 0x04))\n      shr(0xe0, calldataload(0x00))\n      dup1\n      0x7d0fa287\n      gt\n      tag_16\n      jumpi\n      dup1\n      0xaf640d0f\n      gt\n      tag_17\n      jumpi\n      dup1\n      0xaf640d0f\n      eq\n      tag_12\n      jumpi\n      dup1\n      0xb34b5539\n      eq\n      tag_13\n      jumpi\n      dup1\n      0xba479b7e\n      eq\n      tag_14\n      jumpi\n      dup1\n      0xcbc92809\n      eq\n      tag_15\n      jumpi\n      jump(tag_2)\n    tag_17:\n      dup1\n      0x7d0fa287\n      eq\n      tag_9\n      jumpi\n      dup1\n      0x9a8c9119\n      eq\n      tag_10\n      jumpi\n      dup1\n      0xa4e7ae05\n      eq\n      tag_11\n      jumpi\n      jump(tag_2)\n    tag_16:\n      dup1\n      0x0fb0b1b2\n      eq\n      tag_3\n      jumpi\n      dup1\n      0x1916e139\n      eq\n      tag_4\n      jumpi\n      dup1\n      0x28266697\n      eq\n      tag_5\n      jumpi\n      dup1\n      0x356b1f1e\n      eq\n      tag_6\n      jumpi\n      dup1\n      0x39987f94\n      eq\n      tag_7\n      jumpi\n      dup1\n      0x7b6524fe\n      eq\n      tag_8\n      jumpi\n    tag_2:\n      0x00\n      dup1\n      revert\n        /* \"contracts/CalismaBilgileri.sol\":642:711  mapping(address=>mapping(uint=>CalismaBilgi)) public calismaBilgileri */\n    tag_3:\n      tag_18\n      0x04\n      dup1\n      calldatasize\n      sub\n      dup2\n      add\n      swap1\n      tag_19\n      swap2\n      swap1\n      tag_20\n      jump\t// in\n    tag_19:\n      tag_21\n      jump\t// in\n    tag_18:\n      mload(0x40)\n      tag_22\n      swap11\n      swap10\n      swap9\n      swap8\n      swap7\n      swap6\n      swap5\n      swap4\n      swap3\n      swap2\n      swap1\n      tag_23\n      jump\t// in\n    tag_22:\n      mload(0x40)\n      dup1\n      swap2\n      sub\n      swap1\n      return\n        /* \"contracts/BaseContract.sol\":2961:2999  mapping(address=>Kurs) public  kurslar */\n    tag_4:\n      tag_24\n      0x04\n      dup1\n      calldatasize\n      sub\n      dup2\n      add\n      swap1\n      tag_25\n      swap2\n      swap1\n      tag_26\n      jump\t// in\n    tag_25:\n      tag_27\n      jump\t// in\n    tag_24:\n      mload(0x40)\n      tag_28\n      swap4\n      swap3\n      swap2\n      swap1\n      tag_29\n      jump\t// in\n    tag_28:\n      mload(0x40)\n      dup1\n      swap2\n      sub\n      swap1\n      return\n        /* \"contracts/BaseContract.sol\":2800:2849  mapping(address=>Universite) public universiteler */\n    tag_5:\n      tag_30\n      0x04\n      dup1\n      calldatasize\n      sub\n      dup2\n      add\n      swap1\n      tag_31\n      swap2\n      swap1\n      tag_26\n      jump\t// in\n    tag_31:\n      tag_32\n      jump\t// in\n    tag_30:\n      mload(0x40)\n      tag_33\n      swap4\n      swap3\n      swap2\n      swap1\n      tag_29\n      jump\t// in\n    tag_33:\n      mload(0x40)\n      dup1\n      swap2\n      sub\n      swap1\n      return\n        /* \"contracts/BaseContract.sol\":3104:3165  mapping(address=>SertifikaMerkezi) public sertifikaMerkezleri */\n    tag_6:\n      tag_34\n      0x04\n      dup1\n      calldatasize\n      sub\n      dup2\n      add\n      swap1\n      tag_35\n      swap2\n      swap1\n      tag_26\n      jump\t// in\n    tag_35:\n      tag_36\n      jump\t// in\n    tag_34:\n      mload(0x40)\n      tag_37\n      swap4\n      swap3\n      swap2\n      swap1\n      tag_29\n      jump\t// in\n    tag_37:\n      mload(0x40)\n      dup1\n      swap2\n      sub\n      swap1\n      return\n        /* \"contracts/BaseContract.sol\":2914:2954  mapping(address=>Firma) public  firmalar */\n    tag_7:\n      tag_38\n      0x04\n      dup1\n      calldatasize\n      sub\n      dup2\n      add\n      swap1\n      tag_39\n      swap2\n      swap1\n      tag_26\n      jump\t// in\n    tag_39:\n      tag_40\n      jump\t// in\n    tag_38:\n      mload(0x40)\n      tag_41\n      swap5\n      swap4\n      swap3\n      swap2\n      swap1\n      tag_42\n      jump\t// in\n    tag_41:\n      mload(0x40)\n      dup1\n      swap2\n      sub\n      swap1\n      return\n        /* \"contracts/CalismaBilgileri.sol\":2068:3310  function guncelleCalismaBilgi(address _kisiAddress, uint _calismaBilgiId, address kurumAdres, uint32 pozisyon, uint8 sektor, CalismaTipi calismaTipi, string memory isAciklama, uint basTarih, uint bitTarih, uint8 ulke, uint32 sehir)  public sadece_Uni_Firma_Kamu returns(uint){\r... */\n    tag_8:\n      tag_43\n      0x04\n      dup1\n      calldatasize\n      sub\n      dup2\n      add\n      swap1\n      tag_44\n      swap2\n      swap1\n      tag_45\n      jump\t// in\n    tag_44:\n      tag_46\n      jump\t// in\n    tag_43:\n      mload(0x40)\n      tag_47\n      swap2\n      swap1\n      tag_48\n      jump\t// in\n    tag_47:\n      mload(0x40)\n      dup1\n      swap2\n      sub\n      swap1\n      return\n        /* \"contracts/BaseContract.sol\":3006:3055  mapping(address=>KamuKurumu) public kamuKurumlari */\n    tag_9:\n      tag_49\n      0x04\n      dup1\n      calldatasize\n      sub\n      dup2\n      add\n      swap1\n      tag_50\n      swap2\n      swap1\n      tag_26\n      jump\t// in\n    tag_50:\n      tag_51\n      jump\t// in\n    tag_49:\n      mload(0x40)\n      tag_52\n      swap4\n      swap3\n      swap2\n      swap1\n      tag_29\n      jump\t// in\n    tag_52:\n      mload(0x40)\n      dup1\n      swap2\n      sub\n      swap1\n      return\n        /* \"contracts/BaseContract.sol\":3062:3097  mapping(address=>STK) public stklar */\n    tag_10:\n      tag_53\n      0x04\n      dup1\n      calldatasize\n      sub\n      dup2\n      add\n      swap1\n      tag_54\n      swap2\n      swap1\n      tag_26\n      jump\t// in\n    tag_54:\n      tag_55\n      jump\t// in\n    tag_53:\n      mload(0x40)\n      tag_56\n      swap4\n      swap3\n      swap2\n      swap1\n      tag_29\n      jump\t// in\n    tag_56:\n      mload(0x40)\n      dup1\n      swap2\n      sub\n      swap1\n      return\n        /* \"contracts/BaseContract.sol\":3175:3216  mapping(uint32=>YabanciDil) public diller */\n    tag_11:\n      tag_57\n      0x04\n      dup1\n      calldatasize\n      sub\n      dup2\n      add\n      swap1\n      tag_58\n      swap2\n      swap1\n      tag_59\n      jump\t// in\n    tag_58:\n      tag_60\n      jump\t// in\n    tag_57:\n      mload(0x40)\n      tag_61\n      swap3\n      swap2\n      swap1\n      tag_62\n      jump\t// in\n    tag_61:\n      mload(0x40)\n      dup1\n      swap2\n      sub\n      swap1\n      return\n        /* \"contracts/CalismaBilgileri.sol\":183:197  uint public id */\n    tag_12:\n      tag_63\n      tag_64\n      jump\t// in\n    tag_63:\n      mload(0x40)\n      tag_65\n      swap2\n      swap1\n      tag_48\n      jump\t// in\n    tag_65:\n      mload(0x40)\n      dup1\n      swap2\n      sub\n      swap1\n      return\n        /* \"contracts/CalismaBilgileri.sol\":966:2059  function ekleCalismaBilgi(address _kisiAddress, address kurumAdres, uint32 pozisyon, uint8 sektor, CalismaTipi calismaTipi, string memory isAciklama, uint basTarih, uint bitTarih, uint8 ulke, uint32 sehir)  public sadece_Uni_Firma_Kamu{\r... */\n    tag_13:\n      tag_66\n      0x04\n      dup1\n      calldatasize\n      sub\n      dup2\n      add\n      swap1\n      tag_67\n      swap2\n      swap1\n      tag_68\n      jump\t// in\n    tag_67:\n      tag_69\n      jump\t// in\n    tag_66:\n      stop\n        /* \"contracts/BaseContract.sol\":2856:2907  mapping(address=>Akademisyen) public akademisyenler */\n    tag_14:\n      tag_70\n      0x04\n      dup1\n      calldatasize\n      sub\n      dup2\n      add\n      swap1\n      tag_71\n      swap2\n      swap1\n      tag_26\n      jump\t// in\n    tag_71:\n      tag_72\n      jump\t// in\n    tag_70:\n      mload(0x40)\n      tag_73\n      swap7\n      swap6\n      swap5\n      swap4\n      swap3\n      swap2\n      swap1\n      tag_74\n      jump\t// in\n    tag_73:\n      mload(0x40)\n      dup1\n      swap2\n      sub\n      swap1\n      return\n        /* \"contracts/BaseContract.sol\":2756:2793  mapping(address=>Kisi) public kisiler */\n    tag_15:\n      tag_75\n      0x04\n      dup1\n      calldatasize\n      sub\n      dup2\n      add\n      swap1\n      tag_76\n      swap2\n      swap1\n      tag_26\n      jump\t// in\n    tag_76:\n      tag_77\n      jump\t// in\n    tag_75:\n      mload(0x40)\n      tag_78\n      swap2\n      swap1\n      tag_79\n      jump\t// in\n    tag_78:\n      mload(0x40)\n      dup1\n      swap2\n      sub\n      swap1\n      return\n        /* \"contracts/CalismaBilgileri.sol\":642:711  mapping(address=>mapping(uint=>CalismaBilgi)) public calismaBilgileri */\n    tag_21:\n      mstore(0x20, 0x0d)\n      dup2\n      0x00\n      mstore\n      mstore(0x20, keccak256(0x00, 0x40))\n      dup1\n      0x00\n      mstore\n      keccak256(0x00, 0x40)\n      0x00\n      swap2\n      pop\n      swap2\n      pop\n      pop\n      dup1\n      0x00\n      add\n      sload\n      swap1\n      dup1\n      0x01\n      add\n      0x00\n      swap1\n      sload\n      swap1\n      0x0100\n      exp\n      swap1\n      div\n      0xffffffffffffffffffffffffffffffffffffffff\n      and\n      swap1\n      dup1\n      0x01\n      add\n      0x14\n      swap1\n      sload\n      swap1\n      0x0100\n      exp\n      swap1\n      div\n      0xffffffff\n      and\n      swap1\n      dup1\n      0x01\n      add\n      0x18\n      swap1\n      sload\n      swap1\n      0x0100\n      exp\n      swap1\n      div\n      0xff\n      and\n      swap1\n      dup1\n      0x01\n      add\n      0x19\n      swap1\n      sload\n      swap1\n      0x0100\n      exp\n      swap1\n      div\n      0xff\n      and\n      swap1\n      dup1\n      0x02\n      add\n      dup1\n      sload\n      tag_80\n      swap1\n      tag_81\n      jump\t// in\n    tag_80:\n      dup1\n      0x1f\n      add\n      0x20\n      dup1\n      swap2\n      div\n      mul\n      0x20\n      add\n      mload(0x40)\n      swap1\n      dup2\n      add\n      0x40\n      mstore\n      dup1\n      swap3\n      swap2\n      swap1\n      dup2\n      dup2\n      mstore\n      0x20\n      add\n      dup3\n      dup1\n      sload\n      tag_82\n      swap1\n      tag_81\n      jump\t// in\n    tag_82:\n      dup1\n      iszero\n      tag_83\n      jumpi\n      dup1\n      0x1f\n      lt\n      tag_84\n      jumpi\n      0x0100\n      dup1\n      dup4\n      sload\n      div\n      mul\n      dup4\n      mstore\n      swap2\n      0x20\n      add\n      swap2\n      jump(tag_83)\n    tag_84:\n      dup3\n      add\n      swap2\n      swap1\n      0x00\n      mstore\n      keccak256(0x00, 0x20)\n      swap1\n    tag_85:\n      dup2\n      sload\n      dup2\n      mstore\n      swap1\n      0x01\n      add\n      swap1\n      0x20\n      add\n      dup1\n      dup4\n      gt\n      tag_85\n      jumpi\n      dup3\n      swap1\n      sub\n      0x1f\n      and\n      dup3\n      add\n      swap2\n    tag_83:\n      pop\n      pop\n      pop\n      pop\n      pop\n      swap1\n      dup1\n      0x03\n      add\n      sload\n      swap1\n      dup1\n      0x04\n      add\n      sload\n      swap1\n      dup1\n      0x05\n      add\n      0x00\n      swap1\n      sload\n      swap1\n      0x0100\n      exp\n      swap1\n      div\n      0xff\n      and\n      swap1\n      dup1\n      0x05\n      add\n      0x01\n      swap1\n      sload\n      swap1\n      0x0100\n      exp\n      swap1\n      div\n      0xffffffff\n      and\n      swap1\n      pop\n      dup11\n      jump\t// out\n        /* \"contracts/BaseContract.sol\":2961:2999  mapping(address=>Kurs) public  kurslar */\n    tag_27:\n      mstore(0x20, 0x07)\n      dup1\n      0x00\n      mstore\n      keccak256(0x00, 0x40)\n      0x00\n      swap2\n      pop\n      swap1\n      pop\n      dup1\n      0x00\n      add\n      0x00\n      swap1\n      sload\n      swap1\n      0x0100\n      exp\n      swap1\n      div\n      0xff\n      and\n      swap1\n      dup1\n      0x01\n      add\n      dup1\n      sload\n      tag_86\n      swap1\n      tag_81\n      jump\t// in\n    tag_86:\n      dup1\n      0x1f\n      add\n      0x20\n      dup1\n      swap2\n      div\n      mul\n      0x20\n      add\n      mload(0x40)\n      swap1\n      dup2\n      add\n      0x40\n      mstore\n      dup1\n      swap3\n      swap2\n      swap1\n      dup2\n      dup2\n      mstore\n      0x20\n      add\n      dup3\n      dup1\n      sload\n      tag_87\n      swap1\n      tag_81\n      jump\t// in\n    tag_87:\n      dup1\n      iszero\n      tag_88\n      jumpi\n      dup1\n      0x1f\n      lt\n      tag_89\n      jumpi\n      0x0100\n      dup1\n      dup4\n      sload\n      div\n      mul\n      dup4\n      mstore\n      swap2\n      0x20\n      add\n      swap2\n      jump(tag_88)\n    tag_89:\n      dup3\n      add\n      swap2\n      swap1\n      0x00\n      mstore\n      keccak256(0x00, 0x20)\n      swap1\n    tag_90:\n      dup2\n      sload\n      dup2\n      mstore\n      swap1\n      0x01\n      add\n      swap1\n      0x20\n      add\n      dup1\n      dup4\n      gt\n      tag_90\n      jumpi\n      dup3\n      swap1\n      sub\n      0x1f\n      and\n      dup3\n      add\n      swap2\n    tag_88:\n      pop\n      pop\n      pop\n      pop\n      pop\n      swap1\n      dup1\n      0x02\n      add\n      0x00\n      swap1\n      sload\n      swap1\n      0x0100\n      exp\n      swap1\n      div\n      0xff\n      and\n      swap1\n      pop\n      dup4\n      jump\t// out\n        /* \"contracts/BaseContract.sol\":2800:2849  mapping(address=>Universite) public universiteler */\n    tag_32:\n      mstore(0x20, 0x04)\n      dup1\n      0x00\n      mstore\n      keccak256(0x00, 0x40)\n      0x00\n      swap2\n      pop\n      swap1\n      pop\n      dup1\n      0x00\n      add\n      0x00\n      swap1\n      sload\n      swap1\n      0x0100\n      exp\n      swap1\n      div\n      0xff\n      and\n      swap1\n      dup1\n      0x01\n      add\n      dup1\n      sload\n      tag_91\n      swap1\n      tag_81\n      jump\t// in\n    tag_91:\n      dup1\n      0x1f\n      add\n      0x20\n      dup1\n      swap2\n      div\n      mul\n      0x20\n      add\n      mload(0x40)\n      swap1\n      dup2\n      add\n      0x40\n      mstore\n      dup1\n      swap3\n      swap2\n      swap1\n      dup2\n      dup2\n      mstore\n      0x20\n      add\n      dup3\n      dup1\n      sload\n      tag_92\n      swap1\n      tag_81\n      jump\t// in\n    tag_92:\n      dup1\n      iszero\n      tag_93\n      jumpi\n      dup1\n      0x1f\n      lt\n      tag_94\n      jumpi\n      0x0100\n      dup1\n      dup4\n      sload\n      div\n      mul\n      dup4\n      mstore\n      swap2\n      0x20\n      add\n      swap2\n      jump(tag_93)\n    tag_94:\n      dup3\n      add\n      swap2\n      swap1\n      0x00\n      mstore\n      keccak256(0x00, 0x20)\n      swap1\n    tag_95:\n      dup2\n      sload\n      dup2\n      mstore\n      swap1\n      0x01\n      add\n      swap1\n      0x20\n      add\n      dup1\n      dup4\n      gt\n      tag_95\n      jumpi\n      dup3\n      swap1\n      sub\n      0x1f\n      and\n      dup3\n      add\n      swap2\n    tag_93:\n      pop\n      pop\n      pop\n      pop\n      pop\n      swap1\n      dup1\n      0x02\n      add\n      0x00\n      swap1\n      sload\n      swap1\n      0x0100\n      exp\n      swap1\n      div\n      0xff\n      and\n      swap1\n      pop\n      dup4\n      jump\t// out\n        /* \"contracts/BaseContract.sol\":3104:3165  mapping(address=>SertifikaMerkezi) public sertifikaMerkezleri */\n    tag_36:\n      mstore(0x20, 0x0a)\n      dup1\n      0x00\n      mstore\n      keccak256(0x00, 0x40)\n      0x00\n      swap2\n      pop\n      swap1\n      pop\n      dup1\n      0x00\n      add\n      0x00\n      swap1\n      sload\n      swap1\n      0x0100\n      exp\n      swap1\n      div\n      0xff\n      and\n      swap1\n      dup1\n      0x01\n      add\n      dup1\n      sload\n      tag_96\n      swap1\n      tag_81\n      jump\t// in\n    tag_96:\n      dup1\n      0x1f\n      add\n      0x20\n      dup1\n      swap2\n      div\n      mul\n      0x20\n      add\n      mload(0x40)\n      swap1\n      dup2\n      add\n      0x40\n      mstore\n      dup1\n      swap3\n      swap2\n      swap1\n      dup2\n      dup2\n      mstore\n      0x20\n      add\n      dup3\n      dup1\n      sload\n      tag_97\n      swap1\n      tag_81\n      jump\t// in\n    tag_97:\n      dup1\n      iszero\n      tag_98\n      jumpi\n      dup1\n      0x1f\n      lt\n      tag_99\n      jumpi\n      0x0100\n      dup1\n      dup4\n      sload\n      div\n      mul\n      dup4\n      mstore\n      swap2\n      0x20\n      add\n      swap2\n      jump(tag_98)\n    tag_99:\n      dup3\n      add\n      swap2\n      swap1\n      0x00\n      mstore\n      keccak256(0x00, 0x20)\n      swap1\n    tag_100:\n      dup2\n      sload\n      dup2\n      mstore\n      swap1\n      0x01\n      add\n      swap1\n      0x20\n      add\n      dup1\n      dup4\n      gt\n      tag_100\n      jumpi\n      dup3\n      swap1\n      sub\n      0x1f\n      and\n      dup3\n      add\n      swap2\n    tag_98:\n      pop\n      pop\n      pop\n      pop\n      pop\n      swap1\n      dup1\n      0x02\n      add\n      0x00\n      swap1\n      sload\n      swap1\n      0x0100\n      exp\n      swap1\n      div\n      0xff\n      and\n      swap1\n      pop\n      dup4\n      jump\t// out\n        /* \"contracts/BaseContract.sol\":2914:2954  mapping(address=>Firma) public  firmalar */\n    tag_40:\n      mstore(0x20, 0x06)\n      dup1\n      0x00\n      mstore\n      keccak256(0x00, 0x40)\n      0x00\n      swap2\n      pop\n      swap1\n      pop\n      dup1\n      0x00\n      add\n      0x00\n      swap1\n      sload\n      swap1\n      0x0100\n      exp\n      swap1\n      div\n      0xff\n      and\n      swap1\n      dup1\n      0x00\n      add\n      0x01\n      swap1\n      sload\n      swap1\n      0x0100\n      exp\n      swap1\n      div\n      0xff\n      and\n      swap1\n      dup1\n      0x01\n      add\n      sload\n      swap1\n      dup1\n      0x02\n      add\n      dup1\n      sload\n      tag_101\n      swap1\n      tag_81\n      jump\t// in\n    tag_101:\n      dup1\n      0x1f\n      add\n      0x20\n      dup1\n      swap2\n      div\n      mul\n      0x20\n      add\n      mload(0x40)\n      swap1\n      dup2\n      add\n      0x40\n      mstore\n      dup1\n      swap3\n      swap2\n      swap1\n      dup2\n      dup2\n      mstore\n      0x20\n      add\n      dup3\n      dup1\n      sload\n      tag_102\n      swap1\n      tag_81\n      jump\t// in\n    tag_102:\n      dup1\n      iszero\n      tag_103\n      jumpi\n      dup1\n      0x1f\n      lt\n      tag_104\n      jumpi\n      0x0100\n      dup1\n      dup4\n      sload\n      div\n      mul\n      dup4\n      mstore\n      swap2\n      0x20\n      add\n      swap2\n      jump(tag_103)\n    tag_104:\n      dup3\n      add\n      swap2\n      swap1\n      0x00\n      mstore\n      keccak256(0x00, 0x20)\n      swap1\n    tag_105:\n      dup2\n      sload\n      dup2\n      mstore\n      swap1\n      0x01\n      add\n      swap1\n      0x20\n      add\n      dup1\n      dup4\n      gt\n      tag_105\n      jumpi\n      dup3\n      swap1\n      sub\n      0x1f\n      and\n      dup3\n      add\n      swap2\n    tag_103:\n      pop\n      pop\n      pop\n      pop\n      pop\n      swap1\n      pop\n      dup5\n      jump\t// out\n        /* \"contracts/CalismaBilgileri.sol\":2068:3310  function guncelleCalismaBilgi(address _kisiAddress, uint _calismaBilgiId, address kurumAdres, uint32 pozisyon, uint8 sektor, CalismaTipi calismaTipi, string memory isAciklama, uint basTarih, uint bitTarih, uint8 ulke, uint32 sehir)  public sadece_Uni_Firma_Kamu returns(uint){\r... */\n    tag_46:\n        /* \"contracts/CalismaBilgileri.sol\":2338:2342  uint */\n      0x00\n        /* \"contracts/BaseContract.sol\":2427:2440  universiteler */\n      0x04\n        /* \"contracts/BaseContract.sol\":2427:2452  universiteler[msg.sender] */\n      0x00\n        /* \"contracts/BaseContract.sol\":2441:2451  msg.sender */\n      caller\n        /* \"contracts/BaseContract.sol\":2427:2452  universiteler[msg.sender] */\n      0xffffffffffffffffffffffffffffffffffffffff\n      and\n      0xffffffffffffffffffffffffffffffffffffffff\n      and\n      dup2\n      mstore\n      0x20\n      add\n      swap1\n      dup2\n      mstore\n      0x20\n      add\n      0x00\n      keccak256\n        /* \"contracts/BaseContract.sol\":2427:2458  universiteler[msg.sender].durum */\n      0x00\n      add\n      0x00\n      swap1\n      sload\n      swap1\n      0x0100\n      exp\n      swap1\n      div\n      0xff\n      and\n        /* \"contracts/BaseContract.sol\":2427:2486  universiteler[msg.sender].durum||firmalar[msg.sender].durum */\n      dup1\n      tag_107\n      jumpi\n      pop\n        /* \"contracts/BaseContract.sol\":2460:2468  firmalar */\n      0x06\n        /* \"contracts/BaseContract.sol\":2460:2480  firmalar[msg.sender] */\n      0x00\n        /* \"contracts/BaseContract.sol\":2469:2479  msg.sender */\n      caller\n        /* \"contracts/BaseContract.sol\":2460:2480  firmalar[msg.sender] */\n      0xffffffffffffffffffffffffffffffffffffffff\n      and\n      0xffffffffffffffffffffffffffffffffffffffff\n      and\n      dup2\n      mstore\n      0x20\n      add\n      swap1\n      dup2\n      mstore\n      0x20\n      add\n      0x00\n      keccak256\n        /* \"contracts/BaseContract.sol\":2460:2486  firmalar[msg.sender].durum */\n      0x00\n      add\n      0x00\n      swap1\n      sload\n      swap1\n      0x0100\n      exp\n      swap1\n      div\n      0xff\n      and\n        /* \"contracts/BaseContract.sol\":2427:2486  universiteler[msg.sender].durum||firmalar[msg.sender].durum */\n    tag_107:\n        /* \"contracts/BaseContract.sol\":2427:2519  universiteler[msg.sender].durum||firmalar[msg.sender].durum||kamuKurumlari[msg.sender].durum */\n      dup1\n      tag_108\n      jumpi\n      pop\n        /* \"contracts/BaseContract.sol\":2488:2501  kamuKurumlari */\n      0x08\n        /* \"contracts/BaseContract.sol\":2488:2513  kamuKurumlari[msg.sender] */\n      0x00\n        /* \"contracts/BaseContract.sol\":2502:2512  msg.sender */\n      caller\n        /* \"contracts/BaseContract.sol\":2488:2513  kamuKurumlari[msg.sender] */\n      0xffffffffffffffffffffffffffffffffffffffff\n      and\n      0xffffffffffffffffffffffffffffffffffffffff\n      and\n      dup2\n      mstore\n      0x20\n      add\n      swap1\n      dup2\n      mstore\n      0x20\n      add\n      0x00\n      keccak256\n        /* \"contracts/BaseContract.sol\":2488:2519  kamuKurumlari[msg.sender].durum */\n      0x00\n      add\n      0x00\n      swap1\n      sload\n      swap1\n      0x0100\n      exp\n      swap1\n      div\n      0xff\n      and\n        /* \"contracts/BaseContract.sol\":2427:2519  universiteler[msg.sender].durum||firmalar[msg.sender].durum||kamuKurumlari[msg.sender].durum */\n    tag_108:\n        /* \"contracts/BaseContract.sol\":2419:2571  require(universiteler[msg.sender].durum||firmalar[msg.sender].durum||kamuKurumlari[msg.sender].durum,\r... */\n      tag_109\n      jumpi\n      mload(0x40)\n      0x08c379a000000000000000000000000000000000000000000000000000000000\n      dup2\n      mstore\n      0x04\n      add\n      tag_110\n      swap1\n      tag_111\n      jump\t// in\n    tag_110:\n      mload(0x40)\n      dup1\n      swap2\n      sub\n      swap1\n      revert\n    tag_109:\n        /* \"contracts/CalismaBilgileri.sol\":2367:2374  kisiler */\n      0x03\n        /* \"contracts/CalismaBilgileri.sol\":2367:2388  kisiler[_kisiAddress] */\n      0x00\n        /* \"contracts/CalismaBilgileri.sol\":2375:2387  _kisiAddress */\n      dup14\n        /* \"contracts/CalismaBilgileri.sol\":2367:2388  kisiler[_kisiAddress] */\n      0xffffffffffffffffffffffffffffffffffffffff\n      and\n      0xffffffffffffffffffffffffffffffffffffffff\n      and\n      dup2\n      mstore\n      0x20\n      add\n      swap1\n      dup2\n      mstore\n      0x20\n      add\n      0x00\n      keccak256\n        /* \"contracts/CalismaBilgileri.sol\":2367:2394  kisiler[_kisiAddress].durum */\n      0x00\n      add\n      0x00\n      swap1\n      sload\n      swap1\n      0x0100\n      exp\n      swap1\n      div\n      0xff\n      and\n        /* \"contracts/CalismaBilgileri.sol\":2359:2416  require(kisiler[_kisiAddress].durum,\"Student not exists\") */\n      tag_113\n      jumpi\n      mload(0x40)\n      0x08c379a000000000000000000000000000000000000000000000000000000000\n      dup2\n      mstore\n      0x04\n      add\n      tag_114\n      swap1\n      tag_115\n      jump\t// in\n    tag_114:\n      mload(0x40)\n      dup1\n      swap2\n      sub\n      swap1\n      revert\n    tag_113:\n        /* \"contracts/CalismaBilgileri.sol\":2506:2516  kurumAdres */\n      dup10\n        /* \"contracts/CalismaBilgileri.sol\":2447:2463  calismaBilgileri */\n      0x0d\n        /* \"contracts/CalismaBilgileri.sol\":2447:2477  calismaBilgileri[_kisiAddress] */\n      0x00\n        /* \"contracts/CalismaBilgileri.sol\":2464:2476  _kisiAddress */\n      dup15\n        /* \"contracts/CalismaBilgileri.sol\":2447:2477  calismaBilgileri[_kisiAddress] */\n      0xffffffffffffffffffffffffffffffffffffffff\n      and\n      0xffffffffffffffffffffffffffffffffffffffff\n      and\n      dup2\n      mstore\n      0x20\n      add\n      swap1\n      dup2\n      mstore\n      0x20\n      add\n      0x00\n      keccak256\n        /* \"contracts/CalismaBilgileri.sol\":2447:2494  calismaBilgileri[_kisiAddress][_calismaBilgiId] */\n      0x00\n        /* \"contracts/CalismaBilgileri.sol\":2478:2493  _calismaBilgiId */\n      dup14\n        /* \"contracts/CalismaBilgileri.sol\":2447:2494  calismaBilgileri[_kisiAddress][_calismaBilgiId] */\n      dup2\n      mstore\n      0x20\n      add\n      swap1\n      dup2\n      mstore\n      0x20\n      add\n      0x00\n      keccak256\n        /* \"contracts/CalismaBilgileri.sol\":2447:2505  calismaBilgileri[_kisiAddress][_calismaBilgiId].kurumAdres */\n      0x01\n      add\n      0x00\n        /* \"contracts/CalismaBilgileri.sol\":2447:2516  calismaBilgileri[_kisiAddress][_calismaBilgiId].kurumAdres=kurumAdres */\n      0x0100\n      exp\n      dup2\n      sload\n      dup2\n      0xffffffffffffffffffffffffffffffffffffffff\n      mul\n      not\n      and\n      swap1\n      dup4\n      0xffffffffffffffffffffffffffffffffffffffff\n      and\n      mul\n      or\n      swap1\n      sstore\n      pop\n        /* \"contracts/CalismaBilgileri.sol\":2589:2597  pozisyon */\n      dup9\n        /* \"contracts/CalismaBilgileri.sol\":2532:2548  calismaBilgileri */\n      0x0d\n        /* \"contracts/CalismaBilgileri.sol\":2532:2562  calismaBilgileri[_kisiAddress] */\n      0x00\n        /* \"contracts/CalismaBilgileri.sol\":2549:2561  _kisiAddress */\n      dup15\n        /* \"contracts/CalismaBilgileri.sol\":2532:2562  calismaBilgileri[_kisiAddress] */\n      0xffffffffffffffffffffffffffffffffffffffff\n      and\n      0xffffffffffffffffffffffffffffffffffffffff\n      and\n      dup2\n      mstore\n      0x20\n      add\n      swap1\n      dup2\n      mstore\n      0x20\n      add\n      0x00\n      keccak256\n        /* \"contracts/CalismaBilgileri.sol\":2532:2579  calismaBilgileri[_kisiAddress][_calismaBilgiId] */\n      0x00\n        /* \"contracts/CalismaBilgileri.sol\":2563:2578  _calismaBilgiId */\n      dup14\n        /* \"contracts/CalismaBilgileri.sol\":2532:2579  calismaBilgileri[_kisiAddress][_calismaBilgiId] */\n      dup2\n      mstore\n      0x20\n      add\n      swap1\n      dup2\n      mstore\n      0x20\n      add\n      0x00\n      keccak256\n        /* \"contracts/CalismaBilgileri.sol\":2532:2588  calismaBilgileri[_kisiAddress][_calismaBilgiId].pozisyon */\n      0x01\n      add\n      0x14\n        /* \"contracts/CalismaBilgileri.sol\":2532:2597  calismaBilgileri[_kisiAddress][_calismaBilgiId].pozisyon=pozisyon */\n      0x0100\n      exp\n      dup2\n      sload\n      dup2\n      0xffffffff\n      mul\n      not\n      and\n      swap1\n      dup4\n      0xffffffff\n      and\n      mul\n      or\n      swap1\n      sstore\n      pop\n        /* \"contracts/CalismaBilgileri.sol\":2668:2674  sektor */\n      dup8\n        /* \"contracts/CalismaBilgileri.sol\":2613:2629  calismaBilgileri */\n      0x0d\n        /* \"contracts/CalismaBilgileri.sol\":2613:2643  calismaBilgileri[_kisiAddress] */\n      0x00\n        /* \"contracts/CalismaBilgileri.sol\":2630:2642  _kisiAddress */\n      dup15\n        /* \"contracts/CalismaBilgileri.sol\":2613:2643  calismaBilgileri[_kisiAddress] */\n      0xffffffffffffffffffffffffffffffffffffffff\n      and\n      0xffffffffffffffffffffffffffffffffffffffff\n      and\n      dup2\n      mstore\n      0x20\n      add\n      swap1\n      dup2\n      mstore\n      0x20\n      add\n      0x00\n      keccak256\n        /* \"contracts/CalismaBilgileri.sol\":2613:2660  calismaBilgileri[_kisiAddress][_calismaBilgiId] */\n      0x00\n        /* \"contracts/CalismaBilgileri.sol\":2644:2659  _calismaBilgiId */\n      dup14\n        /* \"contracts/CalismaBilgileri.sol\":2613:2660  calismaBilgileri[_kisiAddress][_calismaBilgiId] */\n      dup2\n      mstore\n      0x20\n      add\n      swap1\n      dup2\n      mstore\n      0x20\n      add\n      0x00\n      keccak256\n        /* \"contracts/CalismaBilgileri.sol\":2613:2667  calismaBilgileri[_kisiAddress][_calismaBilgiId].sektor */\n      0x01\n      add\n      0x18\n        /* \"contracts/CalismaBilgileri.sol\":2613:2674  calismaBilgileri[_kisiAddress][_calismaBilgiId].sektor=sektor */\n      0x0100\n      exp\n      dup2\n      sload\n      dup2\n      0xff\n      mul\n      not\n      and\n      swap1\n      dup4\n      0xff\n      and\n      mul\n      or\n      swap1\n      sstore\n      pop\n        /* \"contracts/CalismaBilgileri.sol\":2750:2761  calismaTipi */\n      dup7\n        /* \"contracts/CalismaBilgileri.sol\":2690:2706  calismaBilgileri */\n      0x0d\n        /* \"contracts/CalismaBilgileri.sol\":2690:2720  calismaBilgileri[_kisiAddress] */\n      0x00\n        /* \"contracts/CalismaBilgileri.sol\":2707:2719  _kisiAddress */\n      dup15\n        /* \"contracts/CalismaBilgileri.sol\":2690:2720  calismaBilgileri[_kisiAddress] */\n      0xffffffffffffffffffffffffffffffffffffffff\n      and\n      0xffffffffffffffffffffffffffffffffffffffff\n      and\n      dup2\n      mstore\n      0x20\n      add\n      swap1\n      dup2\n      mstore\n      0x20\n      add\n      0x00\n      keccak256\n        /* \"contracts/CalismaBilgileri.sol\":2690:2737  calismaBilgileri[_kisiAddress][_calismaBilgiId] */\n      0x00\n        /* \"contracts/CalismaBilgileri.sol\":2721:2736  _calismaBilgiId */\n      dup14\n        /* \"contracts/CalismaBilgileri.sol\":2690:2737  calismaBilgileri[_kisiAddress][_calismaBilgiId] */\n      dup2\n      mstore\n      0x20\n      add\n      swap1\n      dup2\n      mstore\n      0x20\n      add\n      0x00\n      keccak256\n        /* \"contracts/CalismaBilgileri.sol\":2690:2749  calismaBilgileri[_kisiAddress][_calismaBilgiId].calismaTipi */\n      0x01\n      add\n      0x19\n        /* \"contracts/CalismaBilgileri.sol\":2690:2761  calismaBilgileri[_kisiAddress][_calismaBilgiId].calismaTipi=calismaTipi */\n      0x0100\n      exp\n      dup2\n      sload\n      dup2\n      0xff\n      mul\n      not\n      and\n      swap1\n      dup4\n      0x02\n      dup2\n      gt\n      iszero\n      tag_116\n      jumpi\n      tag_117\n      tag_118\n      jump\t// in\n    tag_117:\n    tag_116:\n      mul\n      or\n      swap1\n      sstore\n      pop\n        /* \"contracts/CalismaBilgileri.sol\":2836:2846  isAciklama */\n      dup6\n        /* \"contracts/CalismaBilgileri.sol\":2777:2793  calismaBilgileri */\n      0x0d\n        /* \"contracts/CalismaBilgileri.sol\":2777:2807  calismaBilgileri[_kisiAddress] */\n      0x00\n        /* \"contracts/CalismaBilgileri.sol\":2794:2806  _kisiAddress */\n      dup15\n        /* \"contracts/CalismaBilgileri.sol\":2777:2807  calismaBilgileri[_kisiAddress] */\n      0xffffffffffffffffffffffffffffffffffffffff\n      and\n      0xffffffffffffffffffffffffffffffffffffffff\n      and\n      dup2\n      mstore\n      0x20\n      add\n      swap1\n      dup2\n      mstore\n      0x20\n      add\n      0x00\n      keccak256\n        /* \"contracts/CalismaBilgileri.sol\":2777:2824  calismaBilgileri[_kisiAddress][_calismaBilgiId] */\n      0x00\n        /* \"contracts/CalismaBilgileri.sol\":2808:2823  _calismaBilgiId */\n      dup14\n        /* \"contracts/CalismaBilgileri.sol\":2777:2824  calismaBilgileri[_kisiAddress][_calismaBilgiId] */\n      dup2\n      mstore\n      0x20\n      add\n      swap1\n      dup2\n      mstore\n      0x20\n      add\n      0x00\n      keccak256\n        /* \"contracts/CalismaBilgileri.sol\":2777:2835  calismaBilgileri[_kisiAddress][_calismaBilgiId].isAciklama */\n      0x02\n      add\n        /* \"contracts/CalismaBilgileri.sol\":2777:2846  calismaBilgileri[_kisiAddress][_calismaBilgiId].isAciklama=isAciklama */\n      swap1\n      dup1\n      mload\n      swap1\n      0x20\n      add\n      swap1\n      tag_119\n      swap3\n      swap2\n      swap1\n      tag_120\n      jump\t// in\n    tag_119:\n      pop\n        /* \"contracts/CalismaBilgileri.sol\":2919:2927  basTarih */\n      dup5\n        /* \"contracts/CalismaBilgileri.sol\":2862:2878  calismaBilgileri */\n      0x0d\n        /* \"contracts/CalismaBilgileri.sol\":2862:2892  calismaBilgileri[_kisiAddress] */\n      0x00\n        /* \"contracts/CalismaBilgileri.sol\":2879:2891  _kisiAddress */\n      dup15\n        /* \"contracts/CalismaBilgileri.sol\":2862:2892  calismaBilgileri[_kisiAddress] */\n      0xffffffffffffffffffffffffffffffffffffffff\n      and\n      0xffffffffffffffffffffffffffffffffffffffff\n      and\n      dup2\n      mstore\n      0x20\n      add\n      swap1\n      dup2\n      mstore\n      0x20\n      add\n      0x00\n      keccak256\n        /* \"contracts/CalismaBilgileri.sol\":2862:2909  calismaBilgileri[_kisiAddress][_calismaBilgiId] */\n      0x00\n        /* \"contracts/CalismaBilgileri.sol\":2893:2908  _calismaBilgiId */\n      dup14\n        /* \"contracts/CalismaBilgileri.sol\":2862:2909  calismaBilgileri[_kisiAddress][_calismaBilgiId] */\n      dup2\n      mstore\n      0x20\n      add\n      swap1\n      dup2\n      mstore\n      0x20\n      add\n      0x00\n      keccak256\n        /* \"contracts/CalismaBilgileri.sol\":2862:2918  calismaBilgileri[_kisiAddress][_calismaBilgiId].basTarih */\n      0x03\n      add\n        /* \"contracts/CalismaBilgileri.sol\":2862:2927  calismaBilgileri[_kisiAddress][_calismaBilgiId].basTarih=basTarih */\n      dup2\n      swap1\n      sstore\n      pop\n        /* \"contracts/CalismaBilgileri.sol\":3000:3008  bitTarih */\n      dup4\n        /* \"contracts/CalismaBilgileri.sol\":2943:2959  calismaBilgileri */\n      0x0d\n        /* \"contracts/CalismaBilgileri.sol\":2943:2973  calismaBilgileri[_kisiAddress] */\n      0x00\n        /* \"contracts/CalismaBilgileri.sol\":2960:2972  _kisiAddress */\n      dup15\n        /* \"contracts/CalismaBilgileri.sol\":2943:2973  calismaBilgileri[_kisiAddress] */\n      0xffffffffffffffffffffffffffffffffffffffff\n      and\n      0xffffffffffffffffffffffffffffffffffffffff\n      and\n      dup2\n      mstore\n      0x20\n      add\n      swap1\n      dup2\n      mstore\n      0x20\n      add\n      0x00\n      keccak256\n        /* \"contracts/CalismaBilgileri.sol\":2943:2990  calismaBilgileri[_kisiAddress][_calismaBilgiId] */\n      0x00\n        /* \"contracts/CalismaBilgileri.sol\":2974:2989  _calismaBilgiId */\n      dup14\n        /* \"contracts/CalismaBilgileri.sol\":2943:2990  calismaBilgileri[_kisiAddress][_calismaBilgiId] */\n      dup2\n      mstore\n      0x20\n      add\n      swap1\n      dup2\n      mstore\n      0x20\n      add\n      0x00\n      keccak256\n        /* \"contracts/CalismaBilgileri.sol\":2943:2999  calismaBilgileri[_kisiAddress][_calismaBilgiId].bitTarih */\n      0x04\n      add\n        /* \"contracts/CalismaBilgileri.sol\":2943:3008  calismaBilgileri[_kisiAddress][_calismaBilgiId].bitTarih=bitTarih */\n      dup2\n      swap1\n      sstore\n      pop\n        /* \"contracts/CalismaBilgileri.sol\":3077:3081  ulke */\n      dup3\n        /* \"contracts/CalismaBilgileri.sol\":3024:3040  calismaBilgileri */\n      0x0d\n        /* \"contracts/CalismaBilgileri.sol\":3024:3054  calismaBilgileri[_kisiAddress] */\n      0x00\n        /* \"contracts/CalismaBilgileri.sol\":3041:3053  _kisiAddress */\n      dup15\n        /* \"contracts/CalismaBilgileri.sol\":3024:3054  calismaBilgileri[_kisiAddress] */\n      0xffffffffffffffffffffffffffffffffffffffff\n      and\n      0xffffffffffffffffffffffffffffffffffffffff\n      and\n      dup2\n      mstore\n      0x20\n      add\n      swap1\n      dup2\n      mstore\n      0x20\n      add\n      0x00\n      keccak256\n        /* \"contracts/CalismaBilgileri.sol\":3024:3071  calismaBilgileri[_kisiAddress][_calismaBilgiId] */\n      0x00\n        /* \"contracts/CalismaBilgileri.sol\":3055:3070  _calismaBilgiId */\n      dup14\n        /* \"contracts/CalismaBilgileri.sol\":3024:3071  calismaBilgileri[_kisiAddress][_calismaBilgiId] */\n      dup2\n      mstore\n      0x20\n      add\n      swap1\n      dup2\n      mstore\n      0x20\n      add\n      0x00\n      keccak256\n        /* \"contracts/CalismaBilgileri.sol\":3024:3076  calismaBilgileri[_kisiAddress][_calismaBilgiId].ulke */\n      0x05\n      add\n      0x00\n        /* \"contracts/CalismaBilgileri.sol\":3024:3081  calismaBilgileri[_kisiAddress][_calismaBilgiId].ulke=ulke */\n      0x0100\n      exp\n      dup2\n      sload\n      dup2\n      0xff\n      mul\n      not\n      and\n      swap1\n      dup4\n      0xff\n      and\n      mul\n      or\n      swap1\n      sstore\n      pop\n        /* \"contracts/CalismaBilgileri.sol\":3151:3157  sektor */\n      dup8\n        /* \"contracts/CalismaBilgileri.sol\":3097:3157  calismaBilgileri[_kisiAddress][_calismaBilgiId].sehir=sektor */\n      0xff\n      and\n        /* \"contracts/CalismaBilgileri.sol\":3097:3113  calismaBilgileri */\n      0x0d\n        /* \"contracts/CalismaBilgileri.sol\":3097:3127  calismaBilgileri[_kisiAddress] */\n      0x00\n        /* \"contracts/CalismaBilgileri.sol\":3114:3126  _kisiAddress */\n      dup15\n        /* \"contracts/CalismaBilgileri.sol\":3097:3127  calismaBilgileri[_kisiAddress] */\n      0xffffffffffffffffffffffffffffffffffffffff\n      and\n      0xffffffffffffffffffffffffffffffffffffffff\n      and\n      dup2\n      mstore\n      0x20\n      add\n      swap1\n      dup2\n      mstore\n      0x20\n      add\n      0x00\n      keccak256\n        /* \"contracts/CalismaBilgileri.sol\":3097:3144  calismaBilgileri[_kisiAddress][_calismaBilgiId] */\n      0x00\n        /* \"contracts/CalismaBilgileri.sol\":3128:3143  _calismaBilgiId */\n      dup14\n        /* \"contracts/CalismaBilgileri.sol\":3097:3144  calismaBilgileri[_kisiAddress][_calismaBilgiId] */\n      dup2\n      mstore\n      0x20\n      add\n      swap1\n      dup2\n      mstore\n      0x20\n      add\n      0x00\n      keccak256\n        /* \"contracts/CalismaBilgileri.sol\":3097:3150  calismaBilgileri[_kisiAddress][_calismaBilgiId].sehir */\n      0x05\n      add\n      0x01\n        /* \"contracts/CalismaBilgileri.sol\":3097:3157  calismaBilgileri[_kisiAddress][_calismaBilgiId].sehir=sektor */\n      0x0100\n      exp\n      dup2\n      sload\n      dup2\n      0xffffffff\n      mul\n      not\n      and\n      swap1\n      dup4\n      0xffffffff\n      and\n      mul\n      or\n      swap1\n      sstore\n      pop\n        /* \"contracts/CalismaBilgileri.sol\":3191:3262  CalismaBilgiGuncellendiLog( _kisiAddress, kurumAdres, pozisyon, sektor) */\n      0x97a8618b4c3e1bbef6226b887ae721d63d275f7a7d596ba44e9ef2fb1309cce0\n        /* \"contracts/CalismaBilgileri.sol\":3219:3231  _kisiAddress */\n      dup13\n        /* \"contracts/CalismaBilgileri.sol\":3233:3243  kurumAdres */\n      dup12\n        /* \"contracts/CalismaBilgileri.sol\":3245:3253  pozisyon */\n      dup12\n        /* \"contracts/CalismaBilgileri.sol\":3255:3261  sektor */\n      dup12\n        /* \"contracts/CalismaBilgileri.sol\":3191:3262  CalismaBilgiGuncellendiLog( _kisiAddress, kurumAdres, pozisyon, sektor) */\n      mload(0x40)\n      tag_121\n      swap5\n      swap4\n      swap3\n      swap2\n      swap1\n      tag_122\n      jump\t// in\n    tag_121:\n      mload(0x40)\n      dup1\n      swap2\n      sub\n      swap1\n      log1\n        /* \"contracts/CalismaBilgileri.sol\":3285:3300  _calismaBilgiId */\n      dup11\n        /* \"contracts/CalismaBilgileri.sol\":3278:3300  return _calismaBilgiId */\n      swap1\n      pop\n        /* \"contracts/CalismaBilgileri.sol\":2068:3310  function guncelleCalismaBilgi(address _kisiAddress, uint _calismaBilgiId, address kurumAdres, uint32 pozisyon, uint8 sektor, CalismaTipi calismaTipi, string memory isAciklama, uint basTarih, uint bitTarih, uint8 ulke, uint32 sehir)  public sadece_Uni_Firma_Kamu returns(uint){\r... */\n      swap12\n      swap11\n      pop\n      pop\n      pop\n      pop\n      pop\n      pop\n      pop\n      pop\n      pop\n      pop\n      pop\n      jump\t// out\n        /* \"contracts/BaseContract.sol\":3006:3055  mapping(address=>KamuKurumu) public kamuKurumlari */\n    tag_51:\n      mstore(0x20, 0x08)\n      dup1\n      0x00\n      mstore\n      keccak256(0x00, 0x40)\n      0x00\n      swap2\n      pop\n      swap1\n      pop\n      dup1\n      0x00\n      add\n      0x00\n      swap1\n      sload\n      swap1\n      0x0100\n      exp\n      swap1\n      div\n      0xff\n      and\n      swap1\n      dup1\n      0x01\n      add\n      dup1\n      sload\n      tag_123\n      swap1\n      tag_81\n      jump\t// in\n    tag_123:\n      dup1\n      0x1f\n      add\n      0x20\n      dup1\n      swap2\n      div\n      mul\n      0x20\n      add\n      mload(0x40)\n      swap1\n      dup2\n      add\n      0x40\n      mstore\n      dup1\n      swap3\n      swap2\n      swap1\n      dup2\n      dup2\n      mstore\n      0x20\n      add\n      dup3\n      dup1\n      sload\n      tag_124\n      swap1\n      tag_81\n      jump\t// in\n    tag_124:\n      dup1\n      iszero\n      tag_125\n      jumpi\n      dup1\n      0x1f\n      lt\n      tag_126\n      jumpi\n      0x0100\n      dup1\n      dup4\n      sload\n      div\n      mul\n      dup4\n      mstore\n      swap2\n      0x20\n      add\n      swap2\n      jump(tag_125)\n    tag_126:\n      dup3\n      add\n      swap2\n      swap1\n      0x00\n      mstore\n      keccak256(0x00, 0x20)\n      swap1\n    tag_127:\n      dup2\n      sload\n      dup2\n      mstore\n      swap1\n      0x01\n      add\n      swap1\n      0x20\n      add\n      dup1\n      dup4\n      gt\n      tag_127\n      jumpi\n      dup3\n      swap1\n      sub\n      0x1f\n      and\n      dup3\n      add\n      swap2\n    tag_125:\n      pop\n      pop\n      pop\n      pop\n      pop\n      swap1\n      dup1\n      0x02\n      add\n      0x00\n      swap1\n      sload\n      swap1\n      0x0100\n      exp\n      swap1\n      div\n      0xff\n      and\n      swap1\n      pop\n      dup4\n      jump\t// out\n        /* \"contracts/BaseContract.sol\":3062:3097  mapping(address=>STK) public stklar */\n    tag_55:\n      mstore(0x20, 0x09)\n      dup1\n      0x00\n      mstore\n      keccak256(0x00, 0x40)\n      0x00\n      swap2\n      pop\n      swap1\n      pop\n      dup1\n      0x00\n      add\n      0x00\n      swap1\n      sload\n      swap1\n      0x0100\n      exp\n      swap1\n      div\n      0xff\n      and\n      swap1\n      dup1\n      0x01\n      add\n      dup1\n      sload\n      tag_128\n      swap1\n      tag_81\n      jump\t// in\n    tag_128:\n      dup1\n      0x1f\n      add\n      0x20\n      dup1\n      swap2\n      div\n      mul\n      0x20\n      add\n      mload(0x40)\n      swap1\n      dup2\n      add\n      0x40\n      mstore\n      dup1\n      swap3\n      swap2\n      swap1\n      dup2\n      dup2\n      mstore\n      0x20\n      add\n      dup3\n      dup1\n      sload\n      tag_129\n      swap1\n      tag_81\n      jump\t// in\n    tag_129:\n      dup1\n      iszero\n      tag_130\n      jumpi\n      dup1\n      0x1f\n      lt\n      tag_131\n      jumpi\n      0x0100\n      dup1\n      dup4\n      sload\n      div\n      mul\n      dup4\n      mstore\n      swap2\n      0x20\n      add\n      swap2\n      jump(tag_130)\n    tag_131:\n      dup3\n      add\n      swap2\n      swap1\n      0x00\n      mstore\n      keccak256(0x00, 0x20)\n      swap1\n    tag_132:\n      dup2\n      sload\n      dup2\n      mstore\n      swap1\n      0x01\n      add\n      swap1\n      0x20\n      add\n      dup1\n      dup4\n      gt\n      tag_132\n      jumpi\n      dup3\n      swap1\n      sub\n      0x1f\n      and\n      dup3\n      add\n      swap2\n    tag_130:\n      pop\n      pop\n      pop\n      pop\n      pop\n      swap1\n      dup1\n      0x02\n      add\n      0x00\n      swap1\n      sload\n      swap1\n      0x0100\n      exp\n      swap1\n      div\n      0xff\n      and\n      swap1\n      pop\n      dup4\n      jump\t// out\n        /* \"contracts/BaseContract.sol\":3175:3216  mapping(uint32=>YabanciDil) public diller */\n    tag_60:\n      mstore(0x20, 0x0b)\n      dup1\n      0x00\n      mstore\n      keccak256(0x00, 0x40)\n      0x00\n      swap2\n      pop\n      swap1\n      pop\n      dup1\n      0x00\n      add\n      0x00\n      swap1\n      sload\n      swap1\n      0x0100\n      exp\n      swap1\n      div\n      0xffffffff\n      and\n      swap1\n      dup1\n      0x01\n      add\n      dup1\n      sload\n      tag_133\n      swap1\n      tag_81\n      jump\t// in\n    tag_133:\n      dup1\n      0x1f\n      add\n      0x20\n      dup1\n      swap2\n      div\n      mul\n      0x20\n      add\n      mload(0x40)\n      swap1\n      dup2\n      add\n      0x40\n      mstore\n      dup1\n      swap3\n      swap2\n      swap1\n      dup2\n      dup2\n      mstore\n      0x20\n      add\n      dup3\n      dup1\n      sload\n      tag_134\n      swap1\n      tag_81\n      jump\t// in\n    tag_134:\n      dup1\n      iszero\n      tag_135\n      jumpi\n      dup1\n      0x1f\n      lt\n      tag_136\n      jumpi\n      0x0100\n      dup1\n      dup4\n      sload\n      div\n      mul\n      dup4\n      mstore\n      swap2\n      0x20\n      add\n      swap2\n      jump(tag_135)\n    tag_136:\n      dup3\n      add\n      swap2\n      swap1\n      0x00\n      mstore\n      keccak256(0x00, 0x20)\n      swap1\n    tag_137:\n      dup2\n      sload\n      dup2\n      mstore\n      swap1\n      0x01\n      add\n      swap1\n      0x20\n      add\n      dup1\n      dup4\n      gt\n      tag_137\n      jumpi\n      dup3\n      swap1\n      sub\n      0x1f\n      and\n      dup3\n      add\n      swap2\n    tag_135:\n      pop\n      pop\n      pop\n      pop\n      pop\n      swap1\n      pop\n      dup3\n      jump\t// out\n        /* \"contracts/CalismaBilgileri.sol\":183:197  uint public id */\n    tag_64:\n      sload(0x0c)\n      dup2\n      jump\t// out\n        /* \"contracts/CalismaBilgileri.sol\":966:2059  function ekleCalismaBilgi(address _kisiAddress, address kurumAdres, uint32 pozisyon, uint8 sektor, CalismaTipi calismaTipi, string memory isAciklama, uint basTarih, uint bitTarih, uint8 ulke, uint32 sehir)  public sadece_Uni_Firma_Kamu{\r... */\n    tag_69:\n        /* \"contracts/BaseContract.sol\":2427:2440  universiteler */\n      0x04\n        /* \"contracts/BaseContract.sol\":2427:2452  universiteler[msg.sender] */\n      0x00\n        /* \"contracts/BaseContract.sol\":2441:2451  msg.sender */\n      caller\n        /* \"contracts/BaseContract.sol\":2427:2452  universiteler[msg.sender] */\n      0xffffffffffffffffffffffffffffffffffffffff\n      and\n      0xffffffffffffffffffffffffffffffffffffffff\n      and\n      dup2\n      mstore\n      0x20\n      add\n      swap1\n      dup2\n      mstore\n      0x20\n      add\n      0x00\n      keccak256\n        /* \"contracts/BaseContract.sol\":2427:2458  universiteler[msg.sender].durum */\n      0x00\n      add\n      0x00\n      swap1\n      sload\n      swap1\n      0x0100\n      exp\n      swap1\n      div\n      0xff\n      and\n        /* \"contracts/BaseContract.sol\":2427:2486  universiteler[msg.sender].durum||firmalar[msg.sender].durum */\n      dup1\n      tag_139\n      jumpi\n      pop\n        /* \"contracts/BaseContract.sol\":2460:2468  firmalar */\n      0x06\n        /* \"contracts/BaseContract.sol\":2460:2480  firmalar[msg.sender] */\n      0x00\n        /* \"contracts/BaseContract.sol\":2469:2479  msg.sender */\n      caller\n        /* \"contracts/BaseContract.sol\":2460:2480  firmalar[msg.sender] */\n      0xffffffffffffffffffffffffffffffffffffffff\n      and\n      0xffffffffffffffffffffffffffffffffffffffff\n      and\n      dup2\n      mstore\n      0x20\n      add\n      swap1\n      dup2\n      mstore\n      0x20\n      add\n      0x00\n      keccak256\n        /* \"contracts/BaseContract.sol\":2460:2486  firmalar[msg.sender].durum */\n      0x00\n      add\n      0x00\n      swap1\n      sload\n      swap1\n      0x0100\n      exp\n      swap1\n      div\n      0xff\n      and\n        /* \"contracts/BaseContract.sol\":2427:2486  universiteler[msg.sender].durum||firmalar[msg.sender].durum */\n    tag_139:\n        /* \"contracts/BaseContract.sol\":2427:2519  universiteler[msg.sender].durum||firmalar[msg.sender].durum||kamuKurumlari[msg.sender].durum */\n      dup1\n      tag_140\n      jumpi\n      pop\n        /* \"contracts/BaseContract.sol\":2488:2501  kamuKurumlari */\n      0x08\n        /* \"contracts/BaseContract.sol\":2488:2513  kamuKurumlari[msg.sender] */\n      0x00\n        /* \"contracts/BaseContract.sol\":2502:2512  msg.sender */\n      caller\n        /* \"contracts/BaseContract.sol\":2488:2513  kamuKurumlari[msg.sender] */\n      0xffffffffffffffffffffffffffffffffffffffff\n      and\n      0xffffffffffffffffffffffffffffffffffffffff\n      and\n      dup2\n      mstore\n      0x20\n      add\n      swap1\n      dup2\n      mstore\n      0x20\n      add\n      0x00\n      keccak256\n        /* \"contracts/BaseContract.sol\":2488:2519  kamuKurumlari[msg.sender].durum */\n      0x00\n      add\n      0x00\n      swap1\n      sload\n      swap1\n      0x0100\n      exp\n      swap1\n      div\n      0xff\n      and\n        /* \"contracts/BaseContract.sol\":2427:2519  universiteler[msg.sender].durum||firmalar[msg.sender].durum||kamuKurumlari[msg.sender].durum */\n    tag_140:\n        /* \"contracts/BaseContract.sol\":2419:2571  require(universiteler[msg.sender].durum||firmalar[msg.sender].durum||kamuKurumlari[msg.sender].durum,\r... */\n      tag_141\n      jumpi\n      mload(0x40)\n      0x08c379a000000000000000000000000000000000000000000000000000000000\n      dup2\n      mstore\n      0x04\n      add\n      tag_142\n      swap1\n      tag_111\n      jump\t// in\n    tag_142:\n      mload(0x40)\n      dup1\n      swap2\n      sub\n      swap1\n      revert\n    tag_141:\n        /* \"contracts/CalismaBilgileri.sol\":1225:1232  kisiler */\n      0x03\n        /* \"contracts/CalismaBilgileri.sol\":1225:1246  kisiler[_kisiAddress] */\n      0x00\n        /* \"contracts/CalismaBilgileri.sol\":1233:1245  _kisiAddress */\n      dup12\n        /* \"contracts/CalismaBilgileri.sol\":1225:1246  kisiler[_kisiAddress] */\n      0xffffffffffffffffffffffffffffffffffffffff\n      and\n      0xffffffffffffffffffffffffffffffffffffffff\n      and\n      dup2\n      mstore\n      0x20\n      add\n      swap1\n      dup2\n      mstore\n      0x20\n      add\n      0x00\n      keccak256\n        /* \"contracts/CalismaBilgileri.sol\":1225:1252  kisiler[_kisiAddress].durum */\n      0x00\n      add\n      0x00\n      swap1\n      sload\n      swap1\n      0x0100\n      exp\n      swap1\n      div\n      0xff\n      and\n        /* \"contracts/CalismaBilgileri.sol\":1217:1274  require(kisiler[_kisiAddress].durum,\"Student not exists\") */\n      tag_144\n      jumpi\n      mload(0x40)\n      0x08c379a000000000000000000000000000000000000000000000000000000000\n      dup2\n      mstore\n      0x04\n      add\n      tag_145\n      swap1\n      tag_115\n      jump\t// in\n    tag_145:\n      mload(0x40)\n      dup1\n      swap2\n      sub\n      swap1\n      revert\n    tag_144:\n        /* \"contracts/CalismaBilgileri.sol\":1290:1301  uint yeniId */\n      0x00\n        /* \"contracts/CalismaBilgileri.sol\":1302:1304  id */\n      0x0c\n      0x00\n        /* \"contracts/CalismaBilgileri.sol\":1302:1306  id++ */\n      dup2\n      sload\n      dup1\n      swap3\n      swap2\n      swap1\n      tag_146\n      swap1\n      tag_147\n      jump\t// in\n    tag_146:\n      swap2\n      swap1\n      pop\n      sstore\n        /* \"contracts/CalismaBilgileri.sol\":1290:1306  uint yeniId=id++ */\n      swap1\n      pop\n        /* \"contracts/CalismaBilgileri.sol\":1372:1382  kurumAdres */\n      dup10\n        /* \"contracts/CalismaBilgileri.sol\":1322:1338  calismaBilgileri */\n      0x0d\n        /* \"contracts/CalismaBilgileri.sol\":1322:1352  calismaBilgileri[_kisiAddress] */\n      0x00\n        /* \"contracts/CalismaBilgileri.sol\":1339:1351  _kisiAddress */\n      dup14\n        /* \"contracts/CalismaBilgileri.sol\":1322:1352  calismaBilgileri[_kisiAddress] */\n      0xffffffffffffffffffffffffffffffffffffffff\n      and\n      0xffffffffffffffffffffffffffffffffffffffff\n      and\n      dup2\n      mstore\n      0x20\n      add\n      swap1\n      dup2\n      mstore\n      0x20\n      add\n      0x00\n      keccak256\n        /* \"contracts/CalismaBilgileri.sol\":1322:1360  calismaBilgileri[_kisiAddress][yeniId] */\n      0x00\n        /* \"contracts/CalismaBilgileri.sol\":1353:1359  yeniId */\n      dup4\n        /* \"contracts/CalismaBilgileri.sol\":1322:1360  calismaBilgileri[_kisiAddress][yeniId] */\n      dup2\n      mstore\n      0x20\n      add\n      swap1\n      dup2\n      mstore\n      0x20\n      add\n      0x00\n      keccak256\n        /* \"contracts/CalismaBilgileri.sol\":1322:1371  calismaBilgileri[_kisiAddress][yeniId].kurumAdres */\n      0x01\n      add\n      0x00\n        /* \"contracts/CalismaBilgileri.sol\":1322:1382  calismaBilgileri[_kisiAddress][yeniId].kurumAdres=kurumAdres */\n      0x0100\n      exp\n      dup2\n      sload\n      dup2\n      0xffffffffffffffffffffffffffffffffffffffff\n      mul\n      not\n      and\n      swap1\n      dup4\n      0xffffffffffffffffffffffffffffffffffffffff\n      and\n      mul\n      or\n      swap1\n      sstore\n      pop\n        /* \"contracts/CalismaBilgileri.sol\":1446:1454  pozisyon */\n      dup9\n        /* \"contracts/CalismaBilgileri.sol\":1398:1414  calismaBilgileri */\n      0x0d\n        /* \"contracts/CalismaBilgileri.sol\":1398:1428  calismaBilgileri[_kisiAddress] */\n      0x00\n        /* \"contracts/CalismaBilgileri.sol\":1415:1427  _kisiAddress */\n      dup14\n        /* \"contracts/CalismaBilgileri.sol\":1398:1428  calismaBilgileri[_kisiAddress] */\n      0xffffffffffffffffffffffffffffffffffffffff\n      and\n      0xffffffffffffffffffffffffffffffffffffffff\n      and\n      dup2\n      mstore\n      0x20\n      add\n      swap1\n      dup2\n      mstore\n      0x20\n      add\n      0x00\n      keccak256\n        /* \"contracts/CalismaBilgileri.sol\":1398:1436  calismaBilgileri[_kisiAddress][yeniId] */\n      0x00\n        /* \"contracts/CalismaBilgileri.sol\":1429:1435  yeniId */\n      dup4\n        /* \"contracts/CalismaBilgileri.sol\":1398:1436  calismaBilgileri[_kisiAddress][yeniId] */\n      dup2\n      mstore\n      0x20\n      add\n      swap1\n      dup2\n      mstore\n      0x20\n      add\n      0x00\n      keccak256\n        /* \"contracts/CalismaBilgileri.sol\":1398:1445  calismaBilgileri[_kisiAddress][yeniId].pozisyon */\n      0x01\n      add\n      0x14\n        /* \"contracts/CalismaBilgileri.sol\":1398:1454  calismaBilgileri[_kisiAddress][yeniId].pozisyon=pozisyon */\n      0x0100\n      exp\n      dup2\n      sload\n      dup2\n      0xffffffff\n      mul\n      not\n      and\n      swap1\n      dup4\n      0xffffffff\n      and\n      mul\n      or\n      swap1\n      sstore\n      pop\n        /* \"contracts/CalismaBilgileri.sol\":1516:1522  sektor */\n      dup8\n        /* \"contracts/CalismaBilgileri.sol\":1470:1486  calismaBilgileri */\n      0x0d\n        /* \"contracts/CalismaBilgileri.sol\":1470:1500  calismaBilgileri[_kisiAddress] */\n      0x00\n        /* \"contracts/CalismaBilgileri.sol\":1487:1499  _kisiAddress */\n      dup14\n        /* \"contracts/CalismaBilgileri.sol\":1470:1500  calismaBilgileri[_kisiAddress] */\n      0xffffffffffffffffffffffffffffffffffffffff\n      and\n      0xffffffffffffffffffffffffffffffffffffffff\n      and\n      dup2\n      mstore\n      0x20\n      add\n      swap1\n      dup2\n      mstore\n      0x20\n      add\n      0x00\n      keccak256\n        /* \"contracts/CalismaBilgileri.sol\":1470:1508  calismaBilgileri[_kisiAddress][yeniId] */\n      0x00\n        /* \"contracts/CalismaBilgileri.sol\":1501:1507  yeniId */\n      dup4\n        /* \"contracts/CalismaBilgileri.sol\":1470:1508  calismaBilgileri[_kisiAddress][yeniId] */\n      dup2\n      mstore\n      0x20\n      add\n      swap1\n      dup2\n      mstore\n      0x20\n      add\n      0x00\n      keccak256\n        /* \"contracts/CalismaBilgileri.sol\":1470:1515  calismaBilgileri[_kisiAddress][yeniId].sektor */\n      0x01\n      add\n      0x18\n        /* \"contracts/CalismaBilgileri.sol\":1470:1522  calismaBilgileri[_kisiAddress][yeniId].sektor=sektor */\n      0x0100\n      exp\n      dup2\n      sload\n      dup2\n      0xff\n      mul\n      not\n      and\n      swap1\n      dup4\n      0xff\n      and\n      mul\n      or\n      swap1\n      sstore\n      pop\n        /* \"contracts/CalismaBilgileri.sol\":1589:1600  calismaTipi */\n      dup7\n        /* \"contracts/CalismaBilgileri.sol\":1538:1554  calismaBilgileri */\n      0x0d\n        /* \"contracts/CalismaBilgileri.sol\":1538:1568  calismaBilgileri[_kisiAddress] */\n      0x00\n        /* \"contracts/CalismaBilgileri.sol\":1555:1567  _kisiAddress */\n      dup14\n        /* \"contracts/CalismaBilgileri.sol\":1538:1568  calismaBilgileri[_kisiAddress] */\n      0xffffffffffffffffffffffffffffffffffffffff\n      and\n      0xffffffffffffffffffffffffffffffffffffffff\n      and\n      dup2\n      mstore\n      0x20\n      add\n      swap1\n      dup2\n      mstore\n      0x20\n      add\n      0x00\n      keccak256\n        /* \"contracts/CalismaBilgileri.sol\":1538:1576  calismaBilgileri[_kisiAddress][yeniId] */\n      0x00\n        /* \"contracts/CalismaBilgileri.sol\":1569:1575  yeniId */\n      dup4\n        /* \"contracts/CalismaBilgileri.sol\":1538:1576  calismaBilgileri[_kisiAddress][yeniId] */\n      dup2\n      mstore\n      0x20\n      add\n      swap1\n      dup2\n      mstore\n      0x20\n      add\n      0x00\n      keccak256\n        /* \"contracts/CalismaBilgileri.sol\":1538:1588  calismaBilgileri[_kisiAddress][yeniId].calismaTipi */\n      0x01\n      add\n      0x19\n        /* \"contracts/CalismaBilgileri.sol\":1538:1600  calismaBilgileri[_kisiAddress][yeniId].calismaTipi=calismaTipi */\n      0x0100\n      exp\n      dup2\n      sload\n      dup2\n      0xff\n      mul\n      not\n      and\n      swap1\n      dup4\n      0x02\n      dup2\n      gt\n      iszero\n      tag_148\n      jumpi\n      tag_149\n      tag_118\n      jump\t// in\n    tag_149:\n    tag_148:\n      mul\n      or\n      swap1\n      sstore\n      pop\n        /* \"contracts/CalismaBilgileri.sol\":1666:1676  isAciklama */\n      dup6\n        /* \"contracts/CalismaBilgileri.sol\":1616:1632  calismaBilgileri */\n      0x0d\n        /* \"contracts/CalismaBilgileri.sol\":1616:1646  calismaBilgileri[_kisiAddress] */\n      0x00\n        /* \"contracts/CalismaBilgileri.sol\":1633:1645  _kisiAddress */\n      dup14\n        /* \"contracts/CalismaBilgileri.sol\":1616:1646  calismaBilgileri[_kisiAddress] */\n      0xffffffffffffffffffffffffffffffffffffffff\n      and\n      0xffffffffffffffffffffffffffffffffffffffff\n      and\n      dup2\n      mstore\n      0x20\n      add\n      swap1\n      dup2\n      mstore\n      0x20\n      add\n      0x00\n      keccak256\n        /* \"contracts/CalismaBilgileri.sol\":1616:1654  calismaBilgileri[_kisiAddress][yeniId] */\n      0x00\n        /* \"contracts/CalismaBilgileri.sol\":1647:1653  yeniId */\n      dup4\n        /* \"contracts/CalismaBilgileri.sol\":1616:1654  calismaBilgileri[_kisiAddress][yeniId] */\n      dup2\n      mstore\n      0x20\n      add\n      swap1\n      dup2\n      mstore\n      0x20\n      add\n      0x00\n      keccak256\n        /* \"contracts/CalismaBilgileri.sol\":1616:1665  calismaBilgileri[_kisiAddress][yeniId].isAciklama */\n      0x02\n      add\n        /* \"contracts/CalismaBilgileri.sol\":1616:1676  calismaBilgileri[_kisiAddress][yeniId].isAciklama=isAciklama */\n      swap1\n      dup1\n      mload\n      swap1\n      0x20\n      add\n      swap1\n      tag_150\n      swap3\n      swap2\n      swap1\n      tag_120\n      jump\t// in\n    tag_150:\n      pop\n        /* \"contracts/CalismaBilgileri.sol\":1740:1748  basTarih */\n      dup5\n        /* \"contracts/CalismaBilgileri.sol\":1692:1708  calismaBilgileri */\n      0x0d\n        /* \"contracts/CalismaBilgileri.sol\":1692:1722  calismaBilgileri[_kisiAddress] */\n      0x00\n        /* \"contracts/CalismaBilgileri.sol\":1709:1721  _kisiAddress */\n      dup14\n        /* \"contracts/CalismaBilgileri.sol\":1692:1722  calismaBilgileri[_kisiAddress] */\n      0xffffffffffffffffffffffffffffffffffffffff\n      and\n      0xffffffffffffffffffffffffffffffffffffffff\n      and\n      dup2\n      mstore\n      0x20\n      add\n      swap1\n      dup2\n      mstore\n      0x20\n      add\n      0x00\n      keccak256\n        /* \"contracts/CalismaBilgileri.sol\":1692:1730  calismaBilgileri[_kisiAddress][yeniId] */\n      0x00\n        /* \"contracts/CalismaBilgileri.sol\":1723:1729  yeniId */\n      dup4\n        /* \"contracts/CalismaBilgileri.sol\":1692:1730  calismaBilgileri[_kisiAddress][yeniId] */\n      dup2\n      mstore\n      0x20\n      add\n      swap1\n      dup2\n      mstore\n      0x20\n      add\n      0x00\n      keccak256\n        /* \"contracts/CalismaBilgileri.sol\":1692:1739  calismaBilgileri[_kisiAddress][yeniId].basTarih */\n      0x03\n      add\n        /* \"contracts/CalismaBilgileri.sol\":1692:1748  calismaBilgileri[_kisiAddress][yeniId].basTarih=basTarih */\n      dup2\n      swap1\n      sstore\n      pop\n        /* \"contracts/CalismaBilgileri.sol\":1812:1820  bitTarih */\n      dup4\n        /* \"contracts/CalismaBilgileri.sol\":1764:1780  calismaBilgileri */\n      0x0d\n        /* \"contracts/CalismaBilgileri.sol\":1764:1794  calismaBilgileri[_kisiAddress] */\n      0x00\n        /* \"contracts/CalismaBilgileri.sol\":1781:1793  _kisiAddress */\n      dup14\n        /* \"contracts/CalismaBilgileri.sol\":1764:1794  calismaBilgileri[_kisiAddress] */\n      0xffffffffffffffffffffffffffffffffffffffff\n      and\n      0xffffffffffffffffffffffffffffffffffffffff\n      and\n      dup2\n      mstore\n      0x20\n      add\n      swap1\n      dup2\n      mstore\n      0x20\n      add\n      0x00\n      keccak256\n        /* \"contracts/CalismaBilgileri.sol\":1764:1802  calismaBilgileri[_kisiAddress][yeniId] */\n      0x00\n        /* \"contracts/CalismaBilgileri.sol\":1795:1801  yeniId */\n      dup4\n        /* \"contracts/CalismaBilgileri.sol\":1764:1802  calismaBilgileri[_kisiAddress][yeniId] */\n      dup2\n      mstore\n      0x20\n      add\n      swap1\n      dup2\n      mstore\n      0x20\n      add\n      0x00\n      keccak256\n        /* \"contracts/CalismaBilgileri.sol\":1764:1811  calismaBilgileri[_kisiAddress][yeniId].bitTarih */\n      0x04\n      add\n        /* \"contracts/CalismaBilgileri.sol\":1764:1820  calismaBilgileri[_kisiAddress][yeniId].bitTarih=bitTarih */\n      dup2\n      swap1\n      sstore\n      pop\n        /* \"contracts/CalismaBilgileri.sol\":1880:1884  ulke */\n      dup3\n        /* \"contracts/CalismaBilgileri.sol\":1836:1852  calismaBilgileri */\n      0x0d\n        /* \"contracts/CalismaBilgileri.sol\":1836:1866  calismaBilgileri[_kisiAddress] */\n      0x00\n        /* \"contracts/CalismaBilgileri.sol\":1853:1865  _kisiAddress */\n      dup14\n        /* \"contracts/CalismaBilgileri.sol\":1836:1866  calismaBilgileri[_kisiAddress] */\n      0xffffffffffffffffffffffffffffffffffffffff\n      and\n      0xffffffffffffffffffffffffffffffffffffffff\n      and\n      dup2\n      mstore\n      0x20\n      add\n      swap1\n      dup2\n      mstore\n      0x20\n      add\n      0x00\n      keccak256\n        /* \"contracts/CalismaBilgileri.sol\":1836:1874  calismaBilgileri[_kisiAddress][yeniId] */\n      0x00\n        /* \"contracts/CalismaBilgileri.sol\":1867:1873  yeniId */\n      dup4\n        /* \"contracts/CalismaBilgileri.sol\":1836:1874  calismaBilgileri[_kisiAddress][yeniId] */\n      dup2\n      mstore\n      0x20\n      add\n      swap1\n      dup2\n      mstore\n      0x20\n      add\n      0x00\n      keccak256\n        /* \"contracts/CalismaBilgileri.sol\":1836:1879  calismaBilgileri[_kisiAddress][yeniId].ulke */\n      0x05\n      add\n      0x00\n        /* \"contracts/CalismaBilgileri.sol\":1836:1884  calismaBilgileri[_kisiAddress][yeniId].ulke=ulke */\n      0x0100\n      exp\n      dup2\n      sload\n      dup2\n      0xff\n      mul\n      not\n      and\n      swap1\n      dup4\n      0xff\n      and\n      mul\n      or\n      swap1\n      sstore\n      pop\n        /* \"contracts/CalismaBilgileri.sol\":1945:1951  sektor */\n      dup8\n        /* \"contracts/CalismaBilgileri.sol\":1900:1951  calismaBilgileri[_kisiAddress][yeniId].sehir=sektor */\n      0xff\n      and\n        /* \"contracts/CalismaBilgileri.sol\":1900:1916  calismaBilgileri */\n      0x0d\n        /* \"contracts/CalismaBilgileri.sol\":1900:1930  calismaBilgileri[_kisiAddress] */\n      0x00\n        /* \"contracts/CalismaBilgileri.sol\":1917:1929  _kisiAddress */\n      dup14\n        /* \"contracts/CalismaBilgileri.sol\":1900:1930  calismaBilgileri[_kisiAddress] */\n      0xffffffffffffffffffffffffffffffffffffffff\n      and\n      0xffffffffffffffffffffffffffffffffffffffff\n      and\n      dup2\n      mstore\n      0x20\n      add\n      swap1\n      dup2\n      mstore\n      0x20\n      add\n      0x00\n      keccak256\n        /* \"contracts/CalismaBilgileri.sol\":1900:1938  calismaBilgileri[_kisiAddress][yeniId] */\n      0x00\n        /* \"contracts/CalismaBilgileri.sol\":1931:1937  yeniId */\n      dup4\n        /* \"contracts/CalismaBilgileri.sol\":1900:1938  calismaBilgileri[_kisiAddress][yeniId] */\n      dup2\n      mstore\n      0x20\n      add\n      swap1\n      dup2\n      mstore\n      0x20\n      add\n      0x00\n      keccak256\n        /* \"contracts/CalismaBilgileri.sol\":1900:1944  calismaBilgileri[_kisiAddress][yeniId].sehir */\n      0x05\n      add\n      0x01\n        /* \"contracts/CalismaBilgileri.sol\":1900:1951  calismaBilgileri[_kisiAddress][yeniId].sehir=sektor */\n      0x0100\n      exp\n      dup2\n      sload\n      dup2\n      0xffffffff\n      mul\n      not\n      and\n      swap1\n      dup4\n      0xffffffff\n      and\n      mul\n      or\n      swap1\n      sstore\n      pop\n        /* \"contracts/CalismaBilgileri.sol\":1985:2051  CalismaBilgiEklendiLog( _kisiAddress, kurumAdres,pozisyon, sektor) */\n      0xae2424f93616cc7fc3303332cdda5353231f2dc90a87b1e0b507a25e53ac0135\n        /* \"contracts/CalismaBilgileri.sol\":2009:2021  _kisiAddress */\n      dup12\n        /* \"contracts/CalismaBilgileri.sol\":2023:2033  kurumAdres */\n      dup12\n        /* \"contracts/CalismaBilgileri.sol\":2034:2042  pozisyon */\n      dup12\n        /* \"contracts/CalismaBilgileri.sol\":2044:2050  sektor */\n      dup12\n        /* \"contracts/CalismaBilgileri.sol\":1985:2051  CalismaBilgiEklendiLog( _kisiAddress, kurumAdres,pozisyon, sektor) */\n      mload(0x40)\n      tag_151\n      swap5\n      swap4\n      swap3\n      swap2\n      swap1\n      tag_122\n      jump\t// in\n    tag_151:\n      mload(0x40)\n      dup1\n      swap2\n      sub\n      swap1\n      log1\n        /* \"contracts/CalismaBilgileri.sol\":1201:2059  {\r... */\n      pop\n        /* \"contracts/CalismaBilgileri.sol\":966:2059  function ekleCalismaBilgi(address _kisiAddress, address kurumAdres, uint32 pozisyon, uint8 sektor, CalismaTipi calismaTipi, string memory isAciklama, uint basTarih, uint bitTarih, uint8 ulke, uint32 sehir)  public sadece_Uni_Firma_Kamu{\r... */\n      pop\n      pop\n      pop\n      pop\n      pop\n      pop\n      pop\n      pop\n      pop\n      pop\n      jump\t// out\n        /* \"contracts/BaseContract.sol\":2856:2907  mapping(address=>Akademisyen) public akademisyenler */\n    tag_72:\n      mstore(0x20, 0x05)\n      dup1\n      0x00\n      mstore\n      keccak256(0x00, 0x40)\n      0x00\n      swap2\n      pop\n      swap1\n      pop\n      dup1\n      0x00\n      add\n      0x00\n      swap1\n      sload\n      swap1\n      0x0100\n      exp\n      swap1\n      div\n      0xff\n      and\n      swap1\n      dup1\n      0x00\n      add\n      0x01\n      swap1\n      sload\n      swap1\n      0x0100\n      exp\n      swap1\n      div\n      0xffffffffffffffffffffffffffffffffffffffff\n      and\n      swap1\n      dup1\n      0x00\n      add\n      0x15\n      swap1\n      sload\n      swap1\n      0x0100\n      exp\n      swap1\n      div\n      0xffff\n      and\n      swap1\n      dup1\n      0x00\n      add\n      0x17\n      swap1\n      sload\n      swap1\n      0x0100\n      exp\n      swap1\n      div\n      0xff\n      and\n      swap1\n      dup1\n      0x01\n      add\n      dup1\n      sload\n      tag_152\n      swap1\n      tag_81\n      jump\t// in\n    tag_152:\n      dup1\n      0x1f\n      add\n      0x20\n      dup1\n      swap2\n      div\n      mul\n      0x20\n      add\n      mload(0x40)\n      swap1\n      dup2\n      add\n      0x40\n      mstore\n      dup1\n      swap3\n      swap2\n      swap1\n      dup2\n      dup2\n      mstore\n      0x20\n      add\n      dup3\n      dup1\n      sload\n      tag_153\n      swap1\n      tag_81\n      jump\t// in\n    tag_153:\n      dup1\n      iszero\n      tag_154\n      jumpi\n      dup1\n      0x1f\n      lt\n      tag_155\n      jumpi\n      0x0100\n      dup1\n      dup4\n      sload\n      div\n      mul\n      dup4\n      mstore\n      swap2\n      0x20\n      add\n      swap2\n      jump(tag_154)\n    tag_155:\n      dup3\n      add\n      swap2\n      swap1\n      0x00\n      mstore\n      keccak256(0x00, 0x20)\n      swap1\n    tag_156:\n      dup2\n      sload\n      dup2\n      mstore\n      swap1\n      0x01\n      add\n      swap1\n      0x20\n      add\n      dup1\n      dup4\n      gt\n      tag_156\n      jumpi\n      dup3\n      swap1\n      sub\n      0x1f\n      and\n      dup3\n      add\n      swap2\n    tag_154:\n      pop\n      pop\n      pop\n      pop\n      pop\n      swap1\n      dup1\n      0x02\n      add\n      dup1\n      sload\n      tag_157\n      swap1\n      tag_81\n      jump\t// in\n    tag_157:\n      dup1\n      0x1f\n      add\n      0x20\n      dup1\n      swap2\n      div\n      mul\n      0x20\n      add\n      mload(0x40)\n      swap1\n      dup2\n      add\n      0x40\n      mstore\n      dup1\n      swap3\n      swap2\n      swap1\n      dup2\n      dup2\n      mstore\n      0x20\n      add\n      dup3\n      dup1\n      sload\n      tag_158\n      swap1\n      tag_81\n      jump\t// in\n    tag_158:\n      dup1\n      iszero\n      tag_159\n      jumpi\n      dup1\n      0x1f\n      lt\n      tag_160\n      jumpi\n      0x0100\n      dup1\n      dup4\n      sload\n      div\n      mul\n      dup4\n      mstore\n      swap2\n      0x20\n      add\n      swap2\n      jump(tag_159)\n    tag_160:\n      dup3\n      add\n      swap2\n      swap1\n      0x00\n      mstore\n      keccak256(0x00, 0x20)\n      swap1\n    tag_161:\n      dup2\n      sload\n      dup2\n      mstore\n      swap1\n      0x01\n      add\n      swap1\n      0x20\n      add\n      dup1\n      dup4\n      gt\n      tag_161\n      jumpi\n      dup3\n      swap1\n      sub\n      0x1f\n      and\n      dup3\n      add\n      swap2\n    tag_159:\n      pop\n      pop\n      pop\n      pop\n      pop\n      swap1\n      pop\n      dup7\n      jump\t// out\n        /* \"contracts/BaseContract.sol\":2756:2793  mapping(address=>Kisi) public kisiler */\n    tag_77:\n      mstore(0x20, 0x03)\n      dup1\n      0x00\n      mstore\n      keccak256(0x00, 0x40)\n      0x00\n      swap2\n      pop\n      swap1\n      pop\n      dup1\n      0x00\n      add\n      0x00\n      swap1\n      sload\n      swap1\n      0x0100\n      exp\n      swap1\n      div\n      0xff\n      and\n      swap1\n      pop\n      dup2\n      jump\t// out\n    tag_120:\n      dup3\n      dup1\n      sload\n      tag_162\n      swap1\n      tag_81\n      jump\t// in\n    tag_162:\n      swap1\n      0x00\n      mstore\n      keccak256(0x00, 0x20)\n      swap1\n      0x1f\n      add\n      0x20\n      swap1\n      div\n      dup2\n      add\n      swap3\n      dup3\n      tag_164\n      jumpi\n      0x00\n      dup6\n      sstore\n      jump(tag_163)\n    tag_164:\n      dup3\n      0x1f\n      lt\n      tag_165\n      jumpi\n      dup1\n      mload\n      not(0xff)\n      and\n      dup4\n      dup1\n      add\n      or\n      dup6\n      sstore\n      jump(tag_163)\n    tag_165:\n      dup3\n      dup1\n      add\n      0x01\n      add\n      dup6\n      sstore\n      dup3\n      iszero\n      tag_163\n      jumpi\n      swap2\n      dup3\n      add\n    tag_166:\n      dup3\n      dup2\n      gt\n      iszero\n      tag_167\n      jumpi\n      dup3\n      mload\n      dup3\n      sstore\n      swap2\n      0x20\n      add\n      swap2\n      swap1\n      0x01\n      add\n      swap1\n      jump(tag_166)\n    tag_167:\n    tag_163:\n      pop\n      swap1\n      pop\n      tag_168\n      swap2\n      swap1\n      tag_169\n      jump\t// in\n    tag_168:\n      pop\n      swap1\n      jump\t// out\n    tag_169:\n    tag_170:\n      dup1\n      dup3\n      gt\n      iszero\n      tag_171\n      jumpi\n      0x00\n      dup2\n      0x00\n      swap1\n      sstore\n      pop\n      0x01\n      add\n      jump(tag_170)\n    tag_171:\n      pop\n      swap1\n      jump\t// out\n        /* \"#utility.yul\":7:419   */\n    tag_173:\n        /* \"#utility.yul\":85:90   */\n      0x00\n        /* \"#utility.yul\":110:176   */\n      tag_175\n        /* \"#utility.yul\":126:175   */\n      tag_176\n        /* \"#utility.yul\":168:174   */\n      dup5\n        /* \"#utility.yul\":126:175   */\n      tag_177\n      jump\t// in\n    tag_176:\n        /* \"#utility.yul\":110:176   */\n      tag_178\n      jump\t// in\n    tag_175:\n        /* \"#utility.yul\":101:176   */\n      swap1\n      pop\n        /* \"#utility.yul\":199:205   */\n      dup3\n        /* \"#utility.yul\":192:197   */\n      dup2\n        /* \"#utility.yul\":185:206   */\n      mstore\n        /* \"#utility.yul\":237:241   */\n      0x20\n        /* \"#utility.yul\":230:235   */\n      dup2\n        /* \"#utility.yul\":226:242   */\n      add\n        /* \"#utility.yul\":275:278   */\n      dup5\n        /* \"#utility.yul\":266:272   */\n      dup5\n        /* \"#utility.yul\":261:264   */\n      dup5\n        /* \"#utility.yul\":257:273   */\n      add\n        /* \"#utility.yul\":254:279   */\n      gt\n        /* \"#utility.yul\":251:363   */\n      iszero\n      tag_179\n      jumpi\n        /* \"#utility.yul\":282:361   */\n      tag_180\n      tag_181\n      jump\t// in\n    tag_180:\n        /* \"#utility.yul\":251:363   */\n    tag_179:\n        /* \"#utility.yul\":372:413   */\n      tag_182\n        /* \"#utility.yul\":406:412   */\n      dup5\n        /* \"#utility.yul\":401:404   */\n      dup3\n        /* \"#utility.yul\":396:399   */\n      dup6\n        /* \"#utility.yul\":372:413   */\n      tag_183\n      jump\t// in\n    tag_182:\n        /* \"#utility.yul\":91:419   */\n      pop\n        /* \"#utility.yul\":7:419   */\n      swap4\n      swap3\n      pop\n      pop\n      pop\n      jump\t// out\n        /* \"#utility.yul\":425:564   */\n    tag_184:\n        /* \"#utility.yul\":471:476   */\n      0x00\n        /* \"#utility.yul\":509:515   */\n      dup2\n        /* \"#utility.yul\":496:516   */\n      calldataload\n        /* \"#utility.yul\":487:516   */\n      swap1\n      pop\n        /* \"#utility.yul\":525:558   */\n      tag_186\n        /* \"#utility.yul\":552:557   */\n      dup2\n        /* \"#utility.yul\":525:558   */\n      tag_187\n      jump\t// in\n    tag_186:\n        /* \"#utility.yul\":425:564   */\n      swap3\n      swap2\n      pop\n      pop\n      jump\t// out\n        /* \"#utility.yul\":570:739   */\n    tag_188:\n        /* \"#utility.yul\":631:636   */\n      0x00\n        /* \"#utility.yul\":669:675   */\n      dup2\n        /* \"#utility.yul\":656:676   */\n      calldataload\n        /* \"#utility.yul\":647:676   */\n      swap1\n      pop\n        /* \"#utility.yul\":685:733   */\n      tag_190\n        /* \"#utility.yul\":727:732   */\n      dup2\n        /* \"#utility.yul\":685:733   */\n      tag_191\n      jump\t// in\n    tag_190:\n        /* \"#utility.yul\":570:739   */\n      swap3\n      swap2\n      pop\n      pop\n      jump\t// out\n        /* \"#utility.yul\":759:1099   */\n    tag_192:\n        /* \"#utility.yul\":815:820   */\n      0x00\n        /* \"#utility.yul\":864:867   */\n      dup3\n        /* \"#utility.yul\":857:861   */\n      0x1f\n        /* \"#utility.yul\":849:855   */\n      dup4\n        /* \"#utility.yul\":845:862   */\n      add\n        /* \"#utility.yul\":841:868   */\n      slt\n        /* \"#utility.yul\":831:953   */\n      tag_194\n      jumpi\n        /* \"#utility.yul\":872:951   */\n      tag_195\n      tag_196\n      jump\t// in\n    tag_195:\n        /* \"#utility.yul\":831:953   */\n    tag_194:\n        /* \"#utility.yul\":989:995   */\n      dup2\n        /* \"#utility.yul\":976:996   */\n      calldataload\n        /* \"#utility.yul\":1014:1093   */\n      tag_197\n        /* \"#utility.yul\":1089:1092   */\n      dup5\n        /* \"#utility.yul\":1081:1087   */\n      dup3\n        /* \"#utility.yul\":1074:1078   */\n      0x20\n        /* \"#utility.yul\":1066:1072   */\n      dup7\n        /* \"#utility.yul\":1062:1079   */\n      add\n        /* \"#utility.yul\":1014:1093   */\n      tag_173\n      jump\t// in\n    tag_197:\n        /* \"#utility.yul\":1005:1093   */\n      swap2\n      pop\n        /* \"#utility.yul\":821:1099   */\n      pop\n        /* \"#utility.yul\":759:1099   */\n      swap3\n      swap2\n      pop\n      pop\n      jump\t// out\n        /* \"#utility.yul\":1105:1244   */\n    tag_198:\n        /* \"#utility.yul\":1151:1156   */\n      0x00\n        /* \"#utility.yul\":1189:1195   */\n      dup2\n        /* \"#utility.yul\":1176:1196   */\n      calldataload\n        /* \"#utility.yul\":1167:1196   */\n      swap1\n      pop\n        /* \"#utility.yul\":1205:1238   */\n      tag_200\n        /* \"#utility.yul\":1232:1237   */\n      dup2\n        /* \"#utility.yul\":1205:1238   */\n      tag_201\n      jump\t// in\n    tag_200:\n        /* \"#utility.yul\":1105:1244   */\n      swap3\n      swap2\n      pop\n      pop\n      jump\t// out\n        /* \"#utility.yul\":1250:1387   */\n    tag_202:\n        /* \"#utility.yul\":1295:1300   */\n      0x00\n        /* \"#utility.yul\":1333:1339   */\n      dup2\n        /* \"#utility.yul\":1320:1340   */\n      calldataload\n        /* \"#utility.yul\":1311:1340   */\n      swap1\n      pop\n        /* \"#utility.yul\":1349:1381   */\n      tag_204\n        /* \"#utility.yul\":1375:1380   */\n      dup2\n        /* \"#utility.yul\":1349:1381   */\n      tag_205\n      jump\t// in\n    tag_204:\n        /* \"#utility.yul\":1250:1387   */\n      swap3\n      swap2\n      pop\n      pop\n      jump\t// out\n        /* \"#utility.yul\":1393:1528   */\n    tag_206:\n        /* \"#utility.yul\":1437:1442   */\n      0x00\n        /* \"#utility.yul\":1475:1481   */\n      dup2\n        /* \"#utility.yul\":1462:1482   */\n      calldataload\n        /* \"#utility.yul\":1453:1482   */\n      swap1\n      pop\n        /* \"#utility.yul\":1491:1522   */\n      tag_208\n        /* \"#utility.yul\":1516:1521   */\n      dup2\n        /* \"#utility.yul\":1491:1522   */\n      tag_209\n      jump\t// in\n    tag_208:\n        /* \"#utility.yul\":1393:1528   */\n      swap3\n      swap2\n      pop\n      pop\n      jump\t// out\n        /* \"#utility.yul\":1534:1863   */\n    tag_26:\n        /* \"#utility.yul\":1593:1599   */\n      0x00\n        /* \"#utility.yul\":1642:1644   */\n      0x20\n        /* \"#utility.yul\":1630:1639   */\n      dup3\n        /* \"#utility.yul\":1621:1628   */\n      dup5\n        /* \"#utility.yul\":1617:1640   */\n      sub\n        /* \"#utility.yul\":1613:1645   */\n      slt\n        /* \"#utility.yul\":1610:1729   */\n      iszero\n      tag_211\n      jumpi\n        /* \"#utility.yul\":1648:1727   */\n      tag_212\n      tag_213\n      jump\t// in\n    tag_212:\n        /* \"#utility.yul\":1610:1729   */\n    tag_211:\n        /* \"#utility.yul\":1768:1769   */\n      0x00\n        /* \"#utility.yul\":1793:1846   */\n      tag_214\n        /* \"#utility.yul\":1838:1845   */\n      dup5\n        /* \"#utility.yul\":1829:1835   */\n      dup3\n        /* \"#utility.yul\":1818:1827   */\n      dup6\n        /* \"#utility.yul\":1814:1836   */\n      add\n        /* \"#utility.yul\":1793:1846   */\n      tag_184\n      jump\t// in\n    tag_214:\n        /* \"#utility.yul\":1783:1846   */\n      swap2\n      pop\n        /* \"#utility.yul\":1739:1856   */\n      pop\n        /* \"#utility.yul\":1534:1863   */\n      swap3\n      swap2\n      pop\n      pop\n      jump\t// out\n        /* \"#utility.yul\":1869:3708   */\n    tag_68:\n        /* \"#utility.yul\":2028:2034   */\n      0x00\n        /* \"#utility.yul\":2036:2042   */\n      dup1\n        /* \"#utility.yul\":2044:2050   */\n      0x00\n        /* \"#utility.yul\":2052:2058   */\n      dup1\n        /* \"#utility.yul\":2060:2066   */\n      0x00\n        /* \"#utility.yul\":2068:2074   */\n      dup1\n        /* \"#utility.yul\":2076:2082   */\n      0x00\n        /* \"#utility.yul\":2084:2090   */\n      dup1\n        /* \"#utility.yul\":2092:2098   */\n      0x00\n        /* \"#utility.yul\":2100:2106   */\n      dup1\n        /* \"#utility.yul\":2149:2152   */\n      0x0140\n        /* \"#utility.yul\":2137:2146   */\n      dup12\n        /* \"#utility.yul\":2128:2135   */\n      dup14\n        /* \"#utility.yul\":2124:2147   */\n      sub\n        /* \"#utility.yul\":2120:2153   */\n      slt\n        /* \"#utility.yul\":2117:2237   */\n      iszero\n      tag_216\n      jumpi\n        /* \"#utility.yul\":2156:2235   */\n      tag_217\n      tag_213\n      jump\t// in\n    tag_217:\n        /* \"#utility.yul\":2117:2237   */\n    tag_216:\n        /* \"#utility.yul\":2276:2277   */\n      0x00\n        /* \"#utility.yul\":2301:2354   */\n      tag_218\n        /* \"#utility.yul\":2346:2353   */\n      dup14\n        /* \"#utility.yul\":2337:2343   */\n      dup3\n        /* \"#utility.yul\":2326:2335   */\n      dup15\n        /* \"#utility.yul\":2322:2344   */\n      add\n        /* \"#utility.yul\":2301:2354   */\n      tag_184\n      jump\t// in\n    tag_218:\n        /* \"#utility.yul\":2291:2354   */\n      swap11\n      pop\n        /* \"#utility.yul\":2247:2364   */\n      pop\n        /* \"#utility.yul\":2403:2405   */\n      0x20\n        /* \"#utility.yul\":2429:2482   */\n      tag_219\n        /* \"#utility.yul\":2474:2481   */\n      dup14\n        /* \"#utility.yul\":2465:2471   */\n      dup3\n        /* \"#utility.yul\":2454:2463   */\n      dup15\n        /* \"#utility.yul\":2450:2472   */\n      add\n        /* \"#utility.yul\":2429:2482   */\n      tag_184\n      jump\t// in\n    tag_219:\n        /* \"#utility.yul\":2419:2482   */\n      swap10\n      pop\n        /* \"#utility.yul\":2374:2492   */\n      pop\n        /* \"#utility.yul\":2531:2533   */\n      0x40\n        /* \"#utility.yul\":2557:2609   */\n      tag_220\n        /* \"#utility.yul\":2601:2608   */\n      dup14\n        /* \"#utility.yul\":2592:2598   */\n      dup3\n        /* \"#utility.yul\":2581:2590   */\n      dup15\n        /* \"#utility.yul\":2577:2599   */\n      add\n        /* \"#utility.yul\":2557:2609   */\n      tag_202\n      jump\t// in\n    tag_220:\n        /* \"#utility.yul\":2547:2609   */\n      swap9\n      pop\n        /* \"#utility.yul\":2502:2619   */\n      pop\n        /* \"#utility.yul\":2658:2660   */\n      0x60\n        /* \"#utility.yul\":2684:2735   */\n      tag_221\n        /* \"#utility.yul\":2727:2734   */\n      dup14\n        /* \"#utility.yul\":2718:2724   */\n      dup3\n        /* \"#utility.yul\":2707:2716   */\n      dup15\n        /* \"#utility.yul\":2703:2725   */\n      add\n        /* \"#utility.yul\":2684:2735   */\n      tag_206\n      jump\t// in\n    tag_221:\n        /* \"#utility.yul\":2674:2735   */\n      swap8\n      pop\n        /* \"#utility.yul\":2629:2745   */\n      pop\n        /* \"#utility.yul\":2784:2787   */\n      0x80\n        /* \"#utility.yul\":2811:2879   */\n      tag_222\n        /* \"#utility.yul\":2871:2878   */\n      dup14\n        /* \"#utility.yul\":2862:2868   */\n      dup3\n        /* \"#utility.yul\":2851:2860   */\n      dup15\n        /* \"#utility.yul\":2847:2869   */\n      add\n        /* \"#utility.yul\":2811:2879   */\n      tag_188\n      jump\t// in\n    tag_222:\n        /* \"#utility.yul\":2801:2879   */\n      swap7\n      pop\n        /* \"#utility.yul\":2755:2889   */\n      pop\n        /* \"#utility.yul\":2956:2959   */\n      0xa0\n        /* \"#utility.yul\":2945:2954   */\n      dup12\n        /* \"#utility.yul\":2941:2960   */\n      add\n        /* \"#utility.yul\":2928:2961   */\n      calldataload\n        /* \"#utility.yul\":2988:3006   */\n      0xffffffffffffffff\n        /* \"#utility.yul\":2980:2986   */\n      dup2\n        /* \"#utility.yul\":2977:3007   */\n      gt\n        /* \"#utility.yul\":2974:3091   */\n      iszero\n      tag_223\n      jumpi\n        /* \"#utility.yul\":3010:3089   */\n      tag_224\n      tag_225\n      jump\t// in\n    tag_224:\n        /* \"#utility.yul\":2974:3091   */\n    tag_223:\n        /* \"#utility.yul\":3115:3178   */\n      tag_226\n        /* \"#utility.yul\":3170:3177   */\n      dup14\n        /* \"#utility.yul\":3161:3167   */\n      dup3\n        /* \"#utility.yul\":3150:3159   */\n      dup15\n        /* \"#utility.yul\":3146:3168   */\n      add\n        /* \"#utility.yul\":3115:3178   */\n      tag_192\n      jump\t// in\n    tag_226:\n        /* \"#utility.yul\":3105:3178   */\n      swap6\n      pop\n        /* \"#utility.yul\":2899:3188   */\n      pop\n        /* \"#utility.yul\":3227:3230   */\n      0xc0\n        /* \"#utility.yul\":3254:3307   */\n      tag_227\n        /* \"#utility.yul\":3299:3306   */\n      dup14\n        /* \"#utility.yul\":3290:3296   */\n      dup3\n        /* \"#utility.yul\":3279:3288   */\n      dup15\n        /* \"#utility.yul\":3275:3297   */\n      add\n        /* \"#utility.yul\":3254:3307   */\n      tag_198\n      jump\t// in\n    tag_227:\n        /* \"#utility.yul\":3244:3307   */\n      swap5\n      pop\n        /* \"#utility.yul\":3198:3317   */\n      pop\n        /* \"#utility.yul\":3356:3359   */\n      0xe0\n        /* \"#utility.yul\":3383:3436   */\n      tag_228\n        /* \"#utility.yul\":3428:3435   */\n      dup14\n        /* \"#utility.yul\":3419:3425   */\n      dup3\n        /* \"#utility.yul\":3408:3417   */\n      dup15\n        /* \"#utility.yul\":3404:3426   */\n      add\n        /* \"#utility.yul\":3383:3436   */\n      tag_198\n      jump\t// in\n    tag_228:\n        /* \"#utility.yul\":3373:3436   */\n      swap4\n      pop\n        /* \"#utility.yul\":3327:3446   */\n      pop\n        /* \"#utility.yul\":3485:3488   */\n      0x0100\n        /* \"#utility.yul\":3512:3563   */\n      tag_229\n        /* \"#utility.yul\":3555:3562   */\n      dup14\n        /* \"#utility.yul\":3546:3552   */\n      dup3\n        /* \"#utility.yul\":3535:3544   */\n      dup15\n        /* \"#utility.yul\":3531:3553   */\n      add\n        /* \"#utility.yul\":3512:3563   */\n      tag_206\n      jump\t// in\n    tag_229:\n        /* \"#utility.yul\":3502:3563   */\n      swap3\n      pop\n        /* \"#utility.yul\":3456:3573   */\n      pop\n        /* \"#utility.yul\":3612:3615   */\n      0x0120\n        /* \"#utility.yul\":3639:3691   */\n      tag_230\n        /* \"#utility.yul\":3683:3690   */\n      dup14\n        /* \"#utility.yul\":3674:3680   */\n      dup3\n        /* \"#utility.yul\":3663:3672   */\n      dup15\n        /* \"#utility.yul\":3659:3681   */\n      add\n        /* \"#utility.yul\":3639:3691   */\n      tag_202\n      jump\t// in\n    tag_230:\n        /* \"#utility.yul\":3629:3691   */\n      swap2\n      pop\n        /* \"#utility.yul\":3583:3701   */\n      pop\n        /* \"#utility.yul\":1869:3708   */\n      swap3\n      swap6\n      swap9\n      swap12\n      swap2\n      swap5\n      swap8\n      swap11\n      pop\n      swap3\n      swap6\n      swap9\n      pop\n      jump\t// out\n        /* \"#utility.yul\":3714:4188   */\n    tag_20:\n        /* \"#utility.yul\":3782:3788   */\n      0x00\n        /* \"#utility.yul\":3790:3796   */\n      dup1\n        /* \"#utility.yul\":3839:3841   */\n      0x40\n        /* \"#utility.yul\":3827:3836   */\n      dup4\n        /* \"#utility.yul\":3818:3825   */\n      dup6\n        /* \"#utility.yul\":3814:3837   */\n      sub\n        /* \"#utility.yul\":3810:3842   */\n      slt\n        /* \"#utility.yul\":3807:3926   */\n      iszero\n      tag_232\n      jumpi\n        /* \"#utility.yul\":3845:3924   */\n      tag_233\n      tag_213\n      jump\t// in\n    tag_233:\n        /* \"#utility.yul\":3807:3926   */\n    tag_232:\n        /* \"#utility.yul\":3965:3966   */\n      0x00\n        /* \"#utility.yul\":3990:4043   */\n      tag_234\n        /* \"#utility.yul\":4035:4042   */\n      dup6\n        /* \"#utility.yul\":4026:4032   */\n      dup3\n        /* \"#utility.yul\":4015:4024   */\n      dup7\n        /* \"#utility.yul\":4011:4033   */\n      add\n        /* \"#utility.yul\":3990:4043   */\n      tag_184\n      jump\t// in\n    tag_234:\n        /* \"#utility.yul\":3980:4043   */\n      swap3\n      pop\n        /* \"#utility.yul\":3936:4053   */\n      pop\n        /* \"#utility.yul\":4092:4094   */\n      0x20\n        /* \"#utility.yul\":4118:4171   */\n      tag_235\n        /* \"#utility.yul\":4163:4170   */\n      dup6\n        /* \"#utility.yul\":4154:4160   */\n      dup3\n        /* \"#utility.yul\":4143:4152   */\n      dup7\n        /* \"#utility.yul\":4139:4161   */\n      add\n        /* \"#utility.yul\":4118:4171   */\n      tag_198\n      jump\t// in\n    tag_235:\n        /* \"#utility.yul\":4108:4171   */\n      swap2\n      pop\n        /* \"#utility.yul\":4063:4181   */\n      pop\n        /* \"#utility.yul\":3714:4188   */\n      swap3\n      pop\n      swap3\n      swap1\n      pop\n      jump\t// out\n        /* \"#utility.yul\":4194:6181   */\n    tag_45:\n        /* \"#utility.yul\":4362:4368   */\n      0x00\n        /* \"#utility.yul\":4370:4376   */\n      dup1\n        /* \"#utility.yul\":4378:4384   */\n      0x00\n        /* \"#utility.yul\":4386:4392   */\n      dup1\n        /* \"#utility.yul\":4394:4400   */\n      0x00\n        /* \"#utility.yul\":4402:4408   */\n      dup1\n        /* \"#utility.yul\":4410:4416   */\n      0x00\n        /* \"#utility.yul\":4418:4424   */\n      dup1\n        /* \"#utility.yul\":4426:4432   */\n      0x00\n        /* \"#utility.yul\":4434:4440   */\n      dup1\n        /* \"#utility.yul\":4442:4449   */\n      0x00\n        /* \"#utility.yul\":4492:4495   */\n      0x0160\n        /* \"#utility.yul\":4480:4489   */\n      dup13\n        /* \"#utility.yul\":4471:4478   */\n      dup15\n        /* \"#utility.yul\":4467:4490   */\n      sub\n        /* \"#utility.yul\":4463:4496   */\n      slt\n        /* \"#utility.yul\":4460:4580   */\n      iszero\n      tag_237\n      jumpi\n        /* \"#utility.yul\":4499:4578   */\n      tag_238\n      tag_213\n      jump\t// in\n    tag_238:\n        /* \"#utility.yul\":4460:4580   */\n    tag_237:\n        /* \"#utility.yul\":4619:4620   */\n      0x00\n        /* \"#utility.yul\":4644:4697   */\n      tag_239\n        /* \"#utility.yul\":4689:4696   */\n      dup15\n        /* \"#utility.yul\":4680:4686   */\n      dup3\n        /* \"#utility.yul\":4669:4678   */\n      dup16\n        /* \"#utility.yul\":4665:4687   */\n      add\n        /* \"#utility.yul\":4644:4697   */\n      tag_184\n      jump\t// in\n    tag_239:\n        /* \"#utility.yul\":4634:4697   */\n      swap12\n      pop\n        /* \"#utility.yul\":4590:4707   */\n      pop\n        /* \"#utility.yul\":4746:4748   */\n      0x20\n        /* \"#utility.yul\":4772:4825   */\n      tag_240\n        /* \"#utility.yul\":4817:4824   */\n      dup15\n        /* \"#utility.yul\":4808:4814   */\n      dup3\n        /* \"#utility.yul\":4797:4806   */\n      dup16\n        /* \"#utility.yul\":4793:4815   */\n      add\n        /* \"#utility.yul\":4772:4825   */\n      tag_198\n      jump\t// in\n    tag_240:\n        /* \"#utility.yul\":4762:4825   */\n      swap11\n      pop\n        /* \"#utility.yul\":4717:4835   */\n      pop\n        /* \"#utility.yul\":4874:4876   */\n      0x40\n        /* \"#utility.yul\":4900:4953   */\n      tag_241\n        /* \"#utility.yul\":4945:4952   */\n      dup15\n        /* \"#utility.yul\":4936:4942   */\n      dup3\n        /* \"#utility.yul\":4925:4934   */\n      dup16\n        /* \"#utility.yul\":4921:4943   */\n      add\n        /* \"#utility.yul\":4900:4953   */\n      tag_184\n      jump\t// in\n    tag_241:\n        /* \"#utility.yul\":4890:4953   */\n      swap10\n      pop\n        /* \"#utility.yul\":4845:4963   */\n      pop\n        /* \"#utility.yul\":5002:5004   */\n      0x60\n        /* \"#utility.yul\":5028:5080   */\n      tag_242\n        /* \"#utility.yul\":5072:5079   */\n      dup15\n        /* \"#utility.yul\":5063:5069   */\n      dup3\n        /* \"#utility.yul\":5052:5061   */\n      dup16\n        /* \"#utility.yul\":5048:5070   */\n      add\n        /* \"#utility.yul\":5028:5080   */\n      tag_202\n      jump\t// in\n    tag_242:\n        /* \"#utility.yul\":5018:5080   */\n      swap9\n      pop\n        /* \"#utility.yul\":4973:5090   */\n      pop\n        /* \"#utility.yul\":5129:5132   */\n      0x80\n        /* \"#utility.yul\":5156:5207   */\n      tag_243\n        /* \"#utility.yul\":5199:5206   */\n      dup15\n        /* \"#utility.yul\":5190:5196   */\n      dup3\n        /* \"#utility.yul\":5179:5188   */\n      dup16\n        /* \"#utility.yul\":5175:5197   */\n      add\n        /* \"#utility.yul\":5156:5207   */\n      tag_206\n      jump\t// in\n    tag_243:\n        /* \"#utility.yul\":5146:5207   */\n      swap8\n      pop\n        /* \"#utility.yul\":5100:5217   */\n      pop\n        /* \"#utility.yul\":5256:5259   */\n      0xa0\n        /* \"#utility.yul\":5283:5351   */\n      tag_244\n        /* \"#utility.yul\":5343:5350   */\n      dup15\n        /* \"#utility.yul\":5334:5340   */\n      dup3\n        /* \"#utility.yul\":5323:5332   */\n      dup16\n        /* \"#utility.yul\":5319:5341   */\n      add\n        /* \"#utility.yul\":5283:5351   */\n      tag_188\n      jump\t// in\n    tag_244:\n        /* \"#utility.yul\":5273:5351   */\n      swap7\n      pop\n        /* \"#utility.yul\":5227:5361   */\n      pop\n        /* \"#utility.yul\":5428:5431   */\n      0xc0\n        /* \"#utility.yul\":5417:5426   */\n      dup13\n        /* \"#utility.yul\":5413:5432   */\n      add\n        /* \"#utility.yul\":5400:5433   */\n      calldataload\n        /* \"#utility.yul\":5460:5478   */\n      0xffffffffffffffff\n        /* \"#utility.yul\":5452:5458   */\n      dup2\n        /* \"#utility.yul\":5449:5479   */\n      gt\n        /* \"#utility.yul\":5446:5563   */\n      iszero\n      tag_245\n      jumpi\n        /* \"#utility.yul\":5482:5561   */\n      tag_246\n      tag_225\n      jump\t// in\n    tag_246:\n        /* \"#utility.yul\":5446:5563   */\n    tag_245:\n        /* \"#utility.yul\":5587:5650   */\n      tag_247\n        /* \"#utility.yul\":5642:5649   */\n      dup15\n        /* \"#utility.yul\":5633:5639   */\n      dup3\n        /* \"#utility.yul\":5622:5631   */\n      dup16\n        /* \"#utility.yul\":5618:5640   */\n      add\n        /* \"#utility.yul\":5587:5650   */\n      tag_192\n      jump\t// in\n    tag_247:\n        /* \"#utility.yul\":5577:5650   */\n      swap6\n      pop\n        /* \"#utility.yul\":5371:5660   */\n      pop\n        /* \"#utility.yul\":5699:5702   */\n      0xe0\n        /* \"#utility.yul\":5726:5779   */\n      tag_248\n        /* \"#utility.yul\":5771:5778   */\n      dup15\n        /* \"#utility.yul\":5762:5768   */\n      dup3\n        /* \"#utility.yul\":5751:5760   */\n      dup16\n        /* \"#utility.yul\":5747:5769   */\n      add\n        /* \"#utility.yul\":5726:5779   */\n      tag_198\n      jump\t// in\n    tag_248:\n        /* \"#utility.yul\":5716:5779   */\n      swap5\n      pop\n        /* \"#utility.yul\":5670:5789   */\n      pop\n        /* \"#utility.yul\":5828:5831   */\n      0x0100\n        /* \"#utility.yul\":5855:5908   */\n      tag_249\n        /* \"#utility.yul\":5900:5907   */\n      dup15\n        /* \"#utility.yul\":5891:5897   */\n      dup3\n        /* \"#utility.yul\":5880:5889   */\n      dup16\n        /* \"#utility.yul\":5876:5898   */\n      add\n        /* \"#utility.yul\":5855:5908   */\n      tag_198\n      jump\t// in\n    tag_249:\n        /* \"#utility.yul\":5845:5908   */\n      swap4\n      pop\n        /* \"#utility.yul\":5799:5918   */\n      pop\n        /* \"#utility.yul\":5957:5960   */\n      0x0120\n        /* \"#utility.yul\":5984:6035   */\n      tag_250\n        /* \"#utility.yul\":6027:6034   */\n      dup15\n        /* \"#utility.yul\":6018:6024   */\n      dup3\n        /* \"#utility.yul\":6007:6016   */\n      dup16\n        /* \"#utility.yul\":6003:6025   */\n      add\n        /* \"#utility.yul\":5984:6035   */\n      tag_206\n      jump\t// in\n    tag_250:\n        /* \"#utility.yul\":5974:6035   */\n      swap3\n      pop\n        /* \"#utility.yul\":5928:6045   */\n      pop\n        /* \"#utility.yul\":6084:6087   */\n      0x0140\n        /* \"#utility.yul\":6112:6164   */\n      tag_251\n        /* \"#utility.yul\":6156:6163   */\n      dup15\n        /* \"#utility.yul\":6147:6153   */\n      dup3\n        /* \"#utility.yul\":6136:6145   */\n      dup16\n        /* \"#utility.yul\":6132:6154   */\n      add\n        /* \"#utility.yul\":6112:6164   */\n      tag_202\n      jump\t// in\n    tag_251:\n        /* \"#utility.yul\":6101:6164   */\n      swap2\n      pop\n        /* \"#utility.yul\":6055:6174   */\n      pop\n        /* \"#utility.yul\":4194:6181   */\n      swap3\n      swap6\n      swap9\n      swap12\n      pop\n      swap3\n      swap6\n      swap9\n      swap12\n      swap1\n      swap4\n      swap7\n      swap10\n      pop\n      jump\t// out\n        /* \"#utility.yul\":6187:6514   */\n    tag_59:\n        /* \"#utility.yul\":6245:6251   */\n      0x00\n        /* \"#utility.yul\":6294:6296   */\n      0x20\n        /* \"#utility.yul\":6282:6291   */\n      dup3\n        /* \"#utility.yul\":6273:6280   */\n      dup5\n        /* \"#utility.yul\":6269:6292   */\n      sub\n        /* \"#utility.yul\":6265:6297   */\n      slt\n        /* \"#utility.yul\":6262:6381   */\n      iszero\n      tag_253\n      jumpi\n        /* \"#utility.yul\":6300:6379   */\n      tag_254\n      tag_213\n      jump\t// in\n    tag_254:\n        /* \"#utility.yul\":6262:6381   */\n    tag_253:\n        /* \"#utility.yul\":6420:6421   */\n      0x00\n        /* \"#utility.yul\":6445:6497   */\n      tag_255\n        /* \"#utility.yul\":6489:6496   */\n      dup5\n        /* \"#utility.yul\":6480:6486   */\n      dup3\n        /* \"#utility.yul\":6469:6478   */\n      dup6\n        /* \"#utility.yul\":6465:6487   */\n      add\n        /* \"#utility.yul\":6445:6497   */\n      tag_202\n      jump\t// in\n    tag_255:\n        /* \"#utility.yul\":6435:6497   */\n      swap2\n      pop\n        /* \"#utility.yul\":6391:6507   */\n      pop\n        /* \"#utility.yul\":6187:6514   */\n      swap3\n      swap2\n      pop\n      pop\n      jump\t// out\n        /* \"#utility.yul\":6520:6638   */\n    tag_256:\n        /* \"#utility.yul\":6607:6631   */\n      tag_258\n        /* \"#utility.yul\":6625:6630   */\n      dup2\n        /* \"#utility.yul\":6607:6631   */\n      tag_259\n      jump\t// in\n    tag_258:\n        /* \"#utility.yul\":6602:6605   */\n      dup3\n        /* \"#utility.yul\":6595:6632   */\n      mstore\n        /* \"#utility.yul\":6520:6638   */\n      pop\n      pop\n      jump\t// out\n        /* \"#utility.yul\":6644:6753   */\n    tag_260:\n        /* \"#utility.yul\":6725:6746   */\n      tag_262\n        /* \"#utility.yul\":6740:6745   */\n      dup2\n        /* \"#utility.yul\":6725:6746   */\n      tag_263\n      jump\t// in\n    tag_262:\n        /* \"#utility.yul\":6720:6723   */\n      dup3\n        /* \"#utility.yul\":6713:6747   */\n      mstore\n        /* \"#utility.yul\":6644:6753   */\n      pop\n      pop\n      jump\t// out\n        /* \"#utility.yul\":6759:6916   */\n    tag_264:\n        /* \"#utility.yul\":6859:6909   */\n      tag_266\n        /* \"#utility.yul\":6903:6908   */\n      dup2\n        /* \"#utility.yul\":6859:6909   */\n      tag_267\n      jump\t// in\n    tag_266:\n        /* \"#utility.yul\":6854:6857   */\n      dup3\n        /* \"#utility.yul\":6847:6910   */\n      mstore\n        /* \"#utility.yul\":6759:6916   */\n      pop\n      pop\n      jump\t// out\n        /* \"#utility.yul\":6922:7065   */\n    tag_268:\n        /* \"#utility.yul\":7015:7058   */\n      tag_270\n        /* \"#utility.yul\":7052:7057   */\n      dup2\n        /* \"#utility.yul\":7015:7058   */\n      tag_271\n      jump\t// in\n    tag_270:\n        /* \"#utility.yul\":7010:7013   */\n      dup3\n        /* \"#utility.yul\":7003:7059   */\n      mstore\n        /* \"#utility.yul\":6922:7065   */\n      pop\n      pop\n      jump\t// out\n        /* \"#utility.yul\":7071:7435   */\n    tag_272:\n        /* \"#utility.yul\":7159:7162   */\n      0x00\n        /* \"#utility.yul\":7187:7226   */\n      tag_274\n        /* \"#utility.yul\":7220:7225   */\n      dup3\n        /* \"#utility.yul\":7187:7226   */\n      tag_275\n      jump\t// in\n    tag_274:\n        /* \"#utility.yul\":7242:7313   */\n      tag_276\n        /* \"#utility.yul\":7306:7312   */\n      dup2\n        /* \"#utility.yul\":7301:7304   */\n      dup6\n        /* \"#utility.yul\":7242:7313   */\n      tag_277\n      jump\t// in\n    tag_276:\n        /* \"#utility.yul\":7235:7313   */\n      swap4\n      pop\n        /* \"#utility.yul\":7322:7374   */\n      tag_278\n        /* \"#utility.yul\":7367:7373   */\n      dup2\n        /* \"#utility.yul\":7362:7365   */\n      dup6\n        /* \"#utility.yul\":7355:7359   */\n      0x20\n        /* \"#utility.yul\":7348:7353   */\n      dup7\n        /* \"#utility.yul\":7344:7360   */\n      add\n        /* \"#utility.yul\":7322:7374   */\n      tag_279\n      jump\t// in\n    tag_278:\n        /* \"#utility.yul\":7399:7428   */\n      tag_280\n        /* \"#utility.yul\":7421:7427   */\n      dup2\n        /* \"#utility.yul\":7399:7428   */\n      tag_281\n      jump\t// in\n    tag_280:\n        /* \"#utility.yul\":7394:7397   */\n      dup5\n        /* \"#utility.yul\":7390:7429   */\n      add\n        /* \"#utility.yul\":7383:7429   */\n      swap2\n      pop\n        /* \"#utility.yul\":7163:7435   */\n      pop\n        /* \"#utility.yul\":7071:7435   */\n      swap3\n      swap2\n      pop\n      pop\n      jump\t// out\n        /* \"#utility.yul\":7441:7807   */\n    tag_282:\n        /* \"#utility.yul\":7583:7586   */\n      0x00\n        /* \"#utility.yul\":7604:7671   */\n      tag_284\n        /* \"#utility.yul\":7668:7670   */\n      0x12\n        /* \"#utility.yul\":7663:7666   */\n      dup4\n        /* \"#utility.yul\":7604:7671   */\n      tag_277\n      jump\t// in\n    tag_284:\n        /* \"#utility.yul\":7597:7671   */\n      swap2\n      pop\n        /* \"#utility.yul\":7680:7773   */\n      tag_285\n        /* \"#utility.yul\":7769:7772   */\n      dup3\n        /* \"#utility.yul\":7680:7773   */\n      tag_286\n      jump\t// in\n    tag_285:\n        /* \"#utility.yul\":7798:7800   */\n      0x20\n        /* \"#utility.yul\":7793:7796   */\n      dup3\n        /* \"#utility.yul\":7789:7801   */\n      add\n        /* \"#utility.yul\":7782:7801   */\n      swap1\n      pop\n        /* \"#utility.yul\":7441:7807   */\n      swap2\n      swap1\n      pop\n      jump\t// out\n        /* \"#utility.yul\":7813:8179   */\n    tag_287:\n        /* \"#utility.yul\":7955:7958   */\n      0x00\n        /* \"#utility.yul\":7976:8043   */\n      tag_289\n        /* \"#utility.yul\":8040:8042   */\n      0x20\n        /* \"#utility.yul\":8035:8038   */\n      dup4\n        /* \"#utility.yul\":7976:8043   */\n      tag_277\n      jump\t// in\n    tag_289:\n        /* \"#utility.yul\":7969:8043   */\n      swap2\n      pop\n        /* \"#utility.yul\":8052:8145   */\n      tag_290\n        /* \"#utility.yul\":8141:8144   */\n      dup3\n        /* \"#utility.yul\":8052:8145   */\n      tag_291\n      jump\t// in\n    tag_290:\n        /* \"#utility.yul\":8170:8172   */\n      0x20\n        /* \"#utility.yul\":8165:8168   */\n      dup3\n        /* \"#utility.yul\":8161:8173   */\n      add\n        /* \"#utility.yul\":8154:8173   */\n      swap1\n      pop\n        /* \"#utility.yul\":7813:8179   */\n      swap2\n      swap1\n      pop\n      jump\t// out\n        /* \"#utility.yul\":8185:8300   */\n    tag_292:\n        /* \"#utility.yul\":8270:8293   */\n      tag_294\n        /* \"#utility.yul\":8287:8292   */\n      dup2\n        /* \"#utility.yul\":8270:8293   */\n      tag_295\n      jump\t// in\n    tag_294:\n        /* \"#utility.yul\":8265:8268   */\n      dup3\n        /* \"#utility.yul\":8258:8294   */\n      mstore\n        /* \"#utility.yul\":8185:8300   */\n      pop\n      pop\n      jump\t// out\n        /* \"#utility.yul\":8306:8424   */\n    tag_296:\n        /* \"#utility.yul\":8393:8417   */\n      tag_298\n        /* \"#utility.yul\":8411:8416   */\n      dup2\n        /* \"#utility.yul\":8393:8417   */\n      tag_299\n      jump\t// in\n    tag_298:\n        /* \"#utility.yul\":8388:8391   */\n      dup3\n        /* \"#utility.yul\":8381:8418   */\n      mstore\n        /* \"#utility.yul\":8306:8424   */\n      pop\n      pop\n      jump\t// out\n        /* \"#utility.yul\":8430:8559   */\n    tag_300:\n        /* \"#utility.yul\":8516:8552   */\n      tag_302\n        /* \"#utility.yul\":8546:8551   */\n      dup2\n        /* \"#utility.yul\":8516:8552   */\n      tag_303\n      jump\t// in\n    tag_302:\n        /* \"#utility.yul\":8511:8514   */\n      dup3\n        /* \"#utility.yul\":8504:8553   */\n      mstore\n        /* \"#utility.yul\":8430:8559   */\n      pop\n      pop\n      jump\t// out\n        /* \"#utility.yul\":8565:8680   */\n    tag_304:\n        /* \"#utility.yul\":8650:8673   */\n      tag_306\n        /* \"#utility.yul\":8667:8672   */\n      dup2\n        /* \"#utility.yul\":8650:8673   */\n      tag_307\n      jump\t// in\n    tag_306:\n        /* \"#utility.yul\":8645:8648   */\n      dup3\n        /* \"#utility.yul\":8638:8674   */\n      mstore\n        /* \"#utility.yul\":8565:8680   */\n      pop\n      pop\n      jump\t// out\n        /* \"#utility.yul\":8686:8813   */\n    tag_308:\n        /* \"#utility.yul\":8771:8806   */\n      tag_310\n        /* \"#utility.yul\":8800:8805   */\n      dup2\n        /* \"#utility.yul\":8771:8806   */\n      tag_311\n      jump\t// in\n    tag_310:\n        /* \"#utility.yul\":8766:8769   */\n      dup3\n        /* \"#utility.yul\":8759:8807   */\n      mstore\n        /* \"#utility.yul\":8686:8813   */\n      pop\n      pop\n      jump\t// out\n        /* \"#utility.yul\":8819:8931   */\n    tag_312:\n        /* \"#utility.yul\":8902:8924   */\n      tag_314\n        /* \"#utility.yul\":8918:8923   */\n      dup2\n        /* \"#utility.yul\":8902:8924   */\n      tag_315\n      jump\t// in\n    tag_314:\n        /* \"#utility.yul\":8897:8900   */\n      dup3\n        /* \"#utility.yul\":8890:8925   */\n      mstore\n        /* \"#utility.yul\":8819:8931   */\n      pop\n      pop\n      jump\t// out\n        /* \"#utility.yul\":8937:9484   */\n    tag_122:\n        /* \"#utility.yul\":9111:9115   */\n      0x00\n        /* \"#utility.yul\":9149:9152   */\n      0x80\n        /* \"#utility.yul\":9138:9147   */\n      dup3\n        /* \"#utility.yul\":9134:9153   */\n      add\n        /* \"#utility.yul\":9126:9153   */\n      swap1\n      pop\n        /* \"#utility.yul\":9163:9234   */\n      tag_317\n        /* \"#utility.yul\":9231:9232   */\n      0x00\n        /* \"#utility.yul\":9220:9229   */\n      dup4\n        /* \"#utility.yul\":9216:9233   */\n      add\n        /* \"#utility.yul\":9207:9213   */\n      dup8\n        /* \"#utility.yul\":9163:9234   */\n      tag_256\n      jump\t// in\n    tag_317:\n        /* \"#utility.yul\":9244:9316   */\n      tag_318\n        /* \"#utility.yul\":9312:9314   */\n      0x20\n        /* \"#utility.yul\":9301:9310   */\n      dup4\n        /* \"#utility.yul\":9297:9315   */\n      add\n        /* \"#utility.yul\":9288:9294   */\n      dup7\n        /* \"#utility.yul\":9244:9316   */\n      tag_256\n      jump\t// in\n    tag_318:\n        /* \"#utility.yul\":9326:9397   */\n      tag_319\n        /* \"#utility.yul\":9393:9395   */\n      0x40\n        /* \"#utility.yul\":9382:9391   */\n      dup4\n        /* \"#utility.yul\":9378:9396   */\n      add\n        /* \"#utility.yul\":9369:9375   */\n      dup6\n        /* \"#utility.yul\":9326:9397   */\n      tag_300\n      jump\t// in\n    tag_319:\n        /* \"#utility.yul\":9407:9477   */\n      tag_320\n        /* \"#utility.yul\":9473:9475   */\n      0x60\n        /* \"#utility.yul\":9462:9471   */\n      dup4\n        /* \"#utility.yul\":9458:9476   */\n      add\n        /* \"#utility.yul\":9449:9455   */\n      dup5\n        /* \"#utility.yul\":9407:9477   */\n      tag_308\n      jump\t// in\n    tag_320:\n        /* \"#utility.yul\":8937:9484   */\n      swap6\n      swap5\n      pop\n      pop\n      pop\n      pop\n      pop\n      jump\t// out\n        /* \"#utility.yul\":9490:9700   */\n    tag_79:\n        /* \"#utility.yul\":9577:9581   */\n      0x00\n        /* \"#utility.yul\":9615:9617   */\n      0x20\n        /* \"#utility.yul\":9604:9613   */\n      dup3\n        /* \"#utility.yul\":9600:9618   */\n      add\n        /* \"#utility.yul\":9592:9618   */\n      swap1\n      pop\n        /* \"#utility.yul\":9628:9693   */\n      tag_322\n        /* \"#utility.yul\":9690:9691   */\n      0x00\n        /* \"#utility.yul\":9679:9688   */\n      dup4\n        /* \"#utility.yul\":9675:9692   */\n      add\n        /* \"#utility.yul\":9666:9672   */\n      dup5\n        /* \"#utility.yul\":9628:9693   */\n      tag_260\n      jump\t// in\n    tag_322:\n        /* \"#utility.yul\":9490:9700   */\n      swap3\n      swap2\n      pop\n      pop\n      jump\t// out\n        /* \"#utility.yul\":9706:10659   */\n    tag_74:\n        /* \"#utility.yul\":9977:9981   */\n      0x00\n        /* \"#utility.yul\":10015:10018   */\n      0xc0\n        /* \"#utility.yul\":10004:10013   */\n      dup3\n        /* \"#utility.yul\":10000:10019   */\n      add\n        /* \"#utility.yul\":9992:10019   */\n      swap1\n      pop\n        /* \"#utility.yul\":10029:10094   */\n      tag_324\n        /* \"#utility.yul\":10091:10092   */\n      0x00\n        /* \"#utility.yul\":10080:10089   */\n      dup4\n        /* \"#utility.yul\":10076:10093   */\n      add\n        /* \"#utility.yul\":10067:10073   */\n      dup10\n        /* \"#utility.yul\":10029:10094   */\n      tag_260\n      jump\t// in\n    tag_324:\n        /* \"#utility.yul\":10104:10176   */\n      tag_325\n        /* \"#utility.yul\":10172:10174   */\n      0x20\n        /* \"#utility.yul\":10161:10170   */\n      dup4\n        /* \"#utility.yul\":10157:10175   */\n      add\n        /* \"#utility.yul\":10148:10154   */\n      dup9\n        /* \"#utility.yul\":10104:10176   */\n      tag_256\n      jump\t// in\n    tag_325:\n        /* \"#utility.yul\":10186:10256   */\n      tag_326\n        /* \"#utility.yul\":10252:10254   */\n      0x40\n        /* \"#utility.yul\":10241:10250   */\n      dup4\n        /* \"#utility.yul\":10237:10255   */\n      add\n        /* \"#utility.yul\":10228:10234   */\n      dup8\n        /* \"#utility.yul\":10186:10256   */\n      tag_292\n      jump\t// in\n    tag_326:\n        /* \"#utility.yul\":10266:10344   */\n      tag_327\n        /* \"#utility.yul\":10340:10342   */\n      0x60\n        /* \"#utility.yul\":10329:10338   */\n      dup4\n        /* \"#utility.yul\":10325:10343   */\n      add\n        /* \"#utility.yul\":10316:10322   */\n      dup7\n        /* \"#utility.yul\":10266:10344   */\n      tag_268\n      jump\t// in\n    tag_327:\n        /* \"#utility.yul\":10392:10401   */\n      dup2\n        /* \"#utility.yul\":10386:10390   */\n      dup2\n        /* \"#utility.yul\":10382:10402   */\n      sub\n        /* \"#utility.yul\":10376:10379   */\n      0x80\n        /* \"#utility.yul\":10365:10374   */\n      dup4\n        /* \"#utility.yul\":10361:10380   */\n      add\n        /* \"#utility.yul\":10354:10403   */\n      mstore\n        /* \"#utility.yul\":10420:10498   */\n      tag_328\n        /* \"#utility.yul\":10493:10497   */\n      dup2\n        /* \"#utility.yul\":10484:10490   */\n      dup6\n        /* \"#utility.yul\":10420:10498   */\n      tag_272\n      jump\t// in\n    tag_328:\n        /* \"#utility.yul\":10412:10498   */\n      swap1\n      pop\n        /* \"#utility.yul\":10546:10555   */\n      dup2\n        /* \"#utility.yul\":10540:10544   */\n      dup2\n        /* \"#utility.yul\":10536:10556   */\n      sub\n        /* \"#utility.yul\":10530:10533   */\n      0xa0\n        /* \"#utility.yul\":10519:10528   */\n      dup4\n        /* \"#utility.yul\":10515:10534   */\n      add\n        /* \"#utility.yul\":10508:10557   */\n      mstore\n        /* \"#utility.yul\":10574:10652   */\n      tag_329\n        /* \"#utility.yul\":10647:10651   */\n      dup2\n        /* \"#utility.yul\":10638:10644   */\n      dup5\n        /* \"#utility.yul\":10574:10652   */\n      tag_272\n      jump\t// in\n    tag_329:\n        /* \"#utility.yul\":10566:10652   */\n      swap1\n      pop\n        /* \"#utility.yul\":9706:10659   */\n      swap8\n      swap7\n      pop\n      pop\n      pop\n      pop\n      pop\n      pop\n      pop\n      jump\t// out\n        /* \"#utility.yul\":10665:11178   */\n    tag_29:\n        /* \"#utility.yul\":10824:10828   */\n      0x00\n        /* \"#utility.yul\":10862:10864   */\n      0x60\n        /* \"#utility.yul\":10851:10860   */\n      dup3\n        /* \"#utility.yul\":10847:10865   */\n      add\n        /* \"#utility.yul\":10839:10865   */\n      swap1\n      pop\n        /* \"#utility.yul\":10875:10940   */\n      tag_331\n        /* \"#utility.yul\":10937:10938   */\n      0x00\n        /* \"#utility.yul\":10926:10935   */\n      dup4\n        /* \"#utility.yul\":10922:10939   */\n      add\n        /* \"#utility.yul\":10913:10919   */\n      dup7\n        /* \"#utility.yul\":10875:10940   */\n      tag_260\n      jump\t// in\n    tag_331:\n        /* \"#utility.yul\":10987:10996   */\n      dup2\n        /* \"#utility.yul\":10981:10985   */\n      dup2\n        /* \"#utility.yul\":10977:10997   */\n      sub\n        /* \"#utility.yul\":10972:10974   */\n      0x20\n        /* \"#utility.yul\":10961:10970   */\n      dup4\n        /* \"#utility.yul\":10957:10975   */\n      add\n        /* \"#utility.yul\":10950:10998   */\n      mstore\n        /* \"#utility.yul\":11015:11093   */\n      tag_332\n        /* \"#utility.yul\":11088:11092   */\n      dup2\n        /* \"#utility.yul\":11079:11085   */\n      dup6\n        /* \"#utility.yul\":11015:11093   */\n      tag_272\n      jump\t// in\n    tag_332:\n        /* \"#utility.yul\":11007:11093   */\n      swap1\n      pop\n        /* \"#utility.yul\":11103:11171   */\n      tag_333\n        /* \"#utility.yul\":11167:11169   */\n      0x40\n        /* \"#utility.yul\":11156:11165   */\n      dup4\n        /* \"#utility.yul\":11152:11170   */\n      add\n        /* \"#utility.yul\":11143:11149   */\n      dup5\n        /* \"#utility.yul\":11103:11171   */\n      tag_312\n      jump\t// in\n    tag_333:\n        /* \"#utility.yul\":10665:11178   */\n      swap5\n      swap4\n      pop\n      pop\n      pop\n      pop\n      jump\t// out\n        /* \"#utility.yul\":11184:11808   */\n    tag_42:\n        /* \"#utility.yul\":11371:11375   */\n      0x00\n        /* \"#utility.yul\":11409:11412   */\n      0x80\n        /* \"#utility.yul\":11398:11407   */\n      dup3\n        /* \"#utility.yul\":11394:11413   */\n      add\n        /* \"#utility.yul\":11386:11413   */\n      swap1\n      pop\n        /* \"#utility.yul\":11423:11488   */\n      tag_335\n        /* \"#utility.yul\":11485:11486   */\n      0x00\n        /* \"#utility.yul\":11474:11483   */\n      dup4\n        /* \"#utility.yul\":11470:11487   */\n      add\n        /* \"#utility.yul\":11461:11467   */\n      dup8\n        /* \"#utility.yul\":11423:11488   */\n      tag_260\n      jump\t// in\n    tag_335:\n        /* \"#utility.yul\":11498:11566   */\n      tag_336\n        /* \"#utility.yul\":11562:11564   */\n      0x20\n        /* \"#utility.yul\":11551:11560   */\n      dup4\n        /* \"#utility.yul\":11547:11565   */\n      add\n        /* \"#utility.yul\":11538:11544   */\n      dup7\n        /* \"#utility.yul\":11498:11566   */\n      tag_312\n      jump\t// in\n    tag_336:\n        /* \"#utility.yul\":11576:11648   */\n      tag_337\n        /* \"#utility.yul\":11644:11646   */\n      0x40\n        /* \"#utility.yul\":11633:11642   */\n      dup4\n        /* \"#utility.yul\":11629:11647   */\n      add\n        /* \"#utility.yul\":11620:11626   */\n      dup6\n        /* \"#utility.yul\":11576:11648   */\n      tag_296\n      jump\t// in\n    tag_337:\n        /* \"#utility.yul\":11695:11704   */\n      dup2\n        /* \"#utility.yul\":11689:11693   */\n      dup2\n        /* \"#utility.yul\":11685:11705   */\n      sub\n        /* \"#utility.yul\":11680:11682   */\n      0x60\n        /* \"#utility.yul\":11669:11678   */\n      dup4\n        /* \"#utility.yul\":11665:11683   */\n      add\n        /* \"#utility.yul\":11658:11706   */\n      mstore\n        /* \"#utility.yul\":11723:11801   */\n      tag_338\n        /* \"#utility.yul\":11796:11800   */\n      dup2\n        /* \"#utility.yul\":11787:11793   */\n      dup5\n        /* \"#utility.yul\":11723:11801   */\n      tag_272\n      jump\t// in\n    tag_338:\n        /* \"#utility.yul\":11715:11801   */\n      swap1\n      pop\n        /* \"#utility.yul\":11184:11808   */\n      swap6\n      swap5\n      pop\n      pop\n      pop\n      pop\n      pop\n      jump\t// out\n        /* \"#utility.yul\":11814:12233   */\n    tag_115:\n        /* \"#utility.yul\":11980:11984   */\n      0x00\n        /* \"#utility.yul\":12018:12020   */\n      0x20\n        /* \"#utility.yul\":12007:12016   */\n      dup3\n        /* \"#utility.yul\":12003:12021   */\n      add\n        /* \"#utility.yul\":11995:12021   */\n      swap1\n      pop\n        /* \"#utility.yul\":12067:12076   */\n      dup2\n        /* \"#utility.yul\":12061:12065   */\n      dup2\n        /* \"#utility.yul\":12057:12077   */\n      sub\n        /* \"#utility.yul\":12053:12054   */\n      0x00\n        /* \"#utility.yul\":12042:12051   */\n      dup4\n        /* \"#utility.yul\":12038:12055   */\n      add\n        /* \"#utility.yul\":12031:12078   */\n      mstore\n        /* \"#utility.yul\":12095:12226   */\n      tag_340\n        /* \"#utility.yul\":12221:12225   */\n      dup2\n        /* \"#utility.yul\":12095:12226   */\n      tag_282\n      jump\t// in\n    tag_340:\n        /* \"#utility.yul\":12087:12226   */\n      swap1\n      pop\n        /* \"#utility.yul\":11814:12233   */\n      swap2\n      swap1\n      pop\n      jump\t// out\n        /* \"#utility.yul\":12239:12658   */\n    tag_111:\n        /* \"#utility.yul\":12405:12409   */\n      0x00\n        /* \"#utility.yul\":12443:12445   */\n      0x20\n        /* \"#utility.yul\":12432:12441   */\n      dup3\n        /* \"#utility.yul\":12428:12446   */\n      add\n        /* \"#utility.yul\":12420:12446   */\n      swap1\n      pop\n        /* \"#utility.yul\":12492:12501   */\n      dup2\n        /* \"#utility.yul\":12486:12490   */\n      dup2\n        /* \"#utility.yul\":12482:12502   */\n      sub\n        /* \"#utility.yul\":12478:12479   */\n      0x00\n        /* \"#utility.yul\":12467:12476   */\n      dup4\n        /* \"#utility.yul\":12463:12480   */\n      add\n        /* \"#utility.yul\":12456:12503   */\n      mstore\n        /* \"#utility.yul\":12520:12651   */\n      tag_342\n        /* \"#utility.yul\":12646:12650   */\n      dup2\n        /* \"#utility.yul\":12520:12651   */\n      tag_287\n      jump\t// in\n    tag_342:\n        /* \"#utility.yul\":12512:12651   */\n      swap1\n      pop\n        /* \"#utility.yul\":12239:12658   */\n      swap2\n      swap1\n      pop\n      jump\t// out\n        /* \"#utility.yul\":12664:12886   */\n    tag_48:\n        /* \"#utility.yul\":12757:12761   */\n      0x00\n        /* \"#utility.yul\":12795:12797   */\n      0x20\n        /* \"#utility.yul\":12784:12793   */\n      dup3\n        /* \"#utility.yul\":12780:12798   */\n      add\n        /* \"#utility.yul\":12772:12798   */\n      swap1\n      pop\n        /* \"#utility.yul\":12808:12879   */\n      tag_344\n        /* \"#utility.yul\":12876:12877   */\n      0x00\n        /* \"#utility.yul\":12865:12874   */\n      dup4\n        /* \"#utility.yul\":12861:12878   */\n      add\n        /* \"#utility.yul\":12852:12858   */\n      dup5\n        /* \"#utility.yul\":12808:12879   */\n      tag_296\n      jump\t// in\n    tag_344:\n        /* \"#utility.yul\":12664:12886   */\n      swap3\n      swap2\n      pop\n      pop\n      jump\t// out\n        /* \"#utility.yul\":12892:14204   */\n    tag_23:\n        /* \"#utility.yul\":13258:13262   */\n      0x00\n        /* \"#utility.yul\":13296:13299   */\n      0x0140\n        /* \"#utility.yul\":13285:13294   */\n      dup3\n        /* \"#utility.yul\":13281:13300   */\n      add\n        /* \"#utility.yul\":13273:13300   */\n      swap1\n      pop\n        /* \"#utility.yul\":13310:13381   */\n      tag_346\n        /* \"#utility.yul\":13378:13379   */\n      0x00\n        /* \"#utility.yul\":13367:13376   */\n      dup4\n        /* \"#utility.yul\":13363:13380   */\n      add\n        /* \"#utility.yul\":13354:13360   */\n      dup14\n        /* \"#utility.yul\":13310:13381   */\n      tag_296\n      jump\t// in\n    tag_346:\n        /* \"#utility.yul\":13391:13463   */\n      tag_347\n        /* \"#utility.yul\":13459:13461   */\n      0x20\n        /* \"#utility.yul\":13448:13457   */\n      dup4\n        /* \"#utility.yul\":13444:13462   */\n      add\n        /* \"#utility.yul\":13435:13441   */\n      dup13\n        /* \"#utility.yul\":13391:13463   */\n      tag_256\n      jump\t// in\n    tag_347:\n        /* \"#utility.yul\":13473:13543   */\n      tag_348\n        /* \"#utility.yul\":13539:13541   */\n      0x40\n        /* \"#utility.yul\":13528:13537   */\n      dup4\n        /* \"#utility.yul\":13524:13542   */\n      add\n        /* \"#utility.yul\":13515:13521   */\n      dup12\n        /* \"#utility.yul\":13473:13543   */\n      tag_304\n      jump\t// in\n    tag_348:\n        /* \"#utility.yul\":13553:13621   */\n      tag_349\n        /* \"#utility.yul\":13617:13619   */\n      0x60\n        /* \"#utility.yul\":13606:13615   */\n      dup4\n        /* \"#utility.yul\":13602:13620   */\n      add\n        /* \"#utility.yul\":13593:13599   */\n      dup11\n        /* \"#utility.yul\":13553:13621   */\n      tag_312\n      jump\t// in\n    tag_349:\n        /* \"#utility.yul\":13631:13717   */\n      tag_350\n        /* \"#utility.yul\":13712:13715   */\n      0x80\n        /* \"#utility.yul\":13701:13710   */\n      dup4\n        /* \"#utility.yul\":13697:13716   */\n      add\n        /* \"#utility.yul\":13688:13694   */\n      dup10\n        /* \"#utility.yul\":13631:13717   */\n      tag_264\n      jump\t// in\n    tag_350:\n        /* \"#utility.yul\":13765:13774   */\n      dup2\n        /* \"#utility.yul\":13759:13763   */\n      dup2\n        /* \"#utility.yul\":13755:13775   */\n      sub\n        /* \"#utility.yul\":13749:13752   */\n      0xa0\n        /* \"#utility.yul\":13738:13747   */\n      dup4\n        /* \"#utility.yul\":13734:13753   */\n      add\n        /* \"#utility.yul\":13727:13776   */\n      mstore\n        /* \"#utility.yul\":13793:13871   */\n      tag_351\n        /* \"#utility.yul\":13866:13870   */\n      dup2\n        /* \"#utility.yul\":13857:13863   */\n      dup9\n        /* \"#utility.yul\":13793:13871   */\n      tag_272\n      jump\t// in\n    tag_351:\n        /* \"#utility.yul\":13785:13871   */\n      swap1\n      pop\n        /* \"#utility.yul\":13881:13954   */\n      tag_352\n        /* \"#utility.yul\":13949:13952   */\n      0xc0\n        /* \"#utility.yul\":13938:13947   */\n      dup4\n        /* \"#utility.yul\":13934:13953   */\n      add\n        /* \"#utility.yul\":13925:13931   */\n      dup8\n        /* \"#utility.yul\":13881:13954   */\n      tag_296\n      jump\t// in\n    tag_352:\n        /* \"#utility.yul\":13964:14037   */\n      tag_353\n        /* \"#utility.yul\":14032:14035   */\n      0xe0\n        /* \"#utility.yul\":14021:14030   */\n      dup4\n        /* \"#utility.yul\":14017:14036   */\n      add\n        /* \"#utility.yul\":14008:14014   */\n      dup7\n        /* \"#utility.yul\":13964:14037   */\n      tag_296\n      jump\t// in\n    tag_353:\n        /* \"#utility.yul\":14047:14116   */\n      tag_354\n        /* \"#utility.yul\":14111:14114   */\n      0x0100\n        /* \"#utility.yul\":14100:14109   */\n      dup4\n        /* \"#utility.yul\":14096:14115   */\n      add\n        /* \"#utility.yul\":14087:14093   */\n      dup6\n        /* \"#utility.yul\":14047:14116   */\n      tag_312\n      jump\t// in\n    tag_354:\n        /* \"#utility.yul\":14126:14197   */\n      tag_355\n        /* \"#utility.yul\":14192:14195   */\n      0x0120\n        /* \"#utility.yul\":14181:14190   */\n      dup4\n        /* \"#utility.yul\":14177:14196   */\n      add\n        /* \"#utility.yul\":14168:14174   */\n      dup5\n        /* \"#utility.yul\":14126:14197   */\n      tag_304\n      jump\t// in\n    tag_355:\n        /* \"#utility.yul\":12892:14204   */\n      swap12\n      swap11\n      pop\n      pop\n      pop\n      pop\n      pop\n      pop\n      pop\n      pop\n      pop\n      pop\n      pop\n      jump\t// out\n        /* \"#utility.yul\":14210:14629   */\n    tag_62:\n        /* \"#utility.yul\":14349:14353   */\n      0x00\n        /* \"#utility.yul\":14387:14389   */\n      0x40\n        /* \"#utility.yul\":14376:14385   */\n      dup3\n        /* \"#utility.yul\":14372:14390   */\n      add\n        /* \"#utility.yul\":14364:14390   */\n      swap1\n      pop\n        /* \"#utility.yul\":14400:14469   */\n      tag_357\n        /* \"#utility.yul\":14466:14467   */\n      0x00\n        /* \"#utility.yul\":14455:14464   */\n      dup4\n        /* \"#utility.yul\":14451:14468   */\n      add\n        /* \"#utility.yul\":14442:14448   */\n      dup6\n        /* \"#utility.yul\":14400:14469   */\n      tag_304\n      jump\t// in\n    tag_357:\n        /* \"#utility.yul\":14516:14525   */\n      dup2\n        /* \"#utility.yul\":14510:14514   */\n      dup2\n        /* \"#utility.yul\":14506:14526   */\n      sub\n        /* \"#utility.yul\":14501:14503   */\n      0x20\n        /* \"#utility.yul\":14490:14499   */\n      dup4\n        /* \"#utility.yul\":14486:14504   */\n      add\n        /* \"#utility.yul\":14479:14527   */\n      mstore\n        /* \"#utility.yul\":14544:14622   */\n      tag_358\n        /* \"#utility.yul\":14617:14621   */\n      dup2\n        /* \"#utility.yul\":14608:14614   */\n      dup5\n        /* \"#utility.yul\":14544:14622   */\n      tag_272\n      jump\t// in\n    tag_358:\n        /* \"#utility.yul\":14536:14622   */\n      swap1\n      pop\n        /* \"#utility.yul\":14210:14629   */\n      swap4\n      swap3\n      pop\n      pop\n      pop\n      jump\t// out\n        /* \"#utility.yul\":14635:14764   */\n    tag_178:\n        /* \"#utility.yul\":14669:14675   */\n      0x00\n        /* \"#utility.yul\":14696:14716   */\n      tag_360\n      tag_361\n      jump\t// in\n    tag_360:\n        /* \"#utility.yul\":14686:14716   */\n      swap1\n      pop\n        /* \"#utility.yul\":14725:14758   */\n      tag_362\n        /* \"#utility.yul\":14753:14757   */\n      dup3\n        /* \"#utility.yul\":14745:14751   */\n      dup3\n        /* \"#utility.yul\":14725:14758   */\n      tag_363\n      jump\t// in\n    tag_362:\n        /* \"#utility.yul\":14635:14764   */\n      swap2\n      swap1\n      pop\n      jump\t// out\n        /* \"#utility.yul\":14770:14845   */\n    tag_361:\n        /* \"#utility.yul\":14803:14809   */\n      0x00\n        /* \"#utility.yul\":14836:14838   */\n      0x40\n        /* \"#utility.yul\":14830:14839   */\n      mload\n        /* \"#utility.yul\":14820:14839   */\n      swap1\n      pop\n        /* \"#utility.yul\":14770:14845   */\n      swap1\n      jump\t// out\n        /* \"#utility.yul\":14851:15159   */\n    tag_177:\n        /* \"#utility.yul\":14913:14917   */\n      0x00\n        /* \"#utility.yul\":15003:15021   */\n      0xffffffffffffffff\n        /* \"#utility.yul\":14995:15001   */\n      dup3\n        /* \"#utility.yul\":14992:15022   */\n      gt\n        /* \"#utility.yul\":14989:15045   */\n      iszero\n      tag_366\n      jumpi\n        /* \"#utility.yul\":15025:15043   */\n      tag_367\n      tag_368\n      jump\t// in\n    tag_367:\n        /* \"#utility.yul\":14989:15045   */\n    tag_366:\n        /* \"#utility.yul\":15063:15092   */\n      tag_369\n        /* \"#utility.yul\":15085:15091   */\n      dup3\n        /* \"#utility.yul\":15063:15092   */\n      tag_281\n      jump\t// in\n    tag_369:\n        /* \"#utility.yul\":15055:15092   */\n      swap1\n      pop\n        /* \"#utility.yul\":15147:15151   */\n      0x20\n        /* \"#utility.yul\":15141:15145   */\n      dup2\n        /* \"#utility.yul\":15137:15152   */\n      add\n        /* \"#utility.yul\":15129:15152   */\n      swap1\n      pop\n        /* \"#utility.yul\":14851:15159   */\n      swap2\n      swap1\n      pop\n      jump\t// out\n        /* \"#utility.yul\":15165:15264   */\n    tag_275:\n        /* \"#utility.yul\":15217:15223   */\n      0x00\n        /* \"#utility.yul\":15251:15256   */\n      dup2\n        /* \"#utility.yul\":15245:15257   */\n      mload\n        /* \"#utility.yul\":15235:15257   */\n      swap1\n      pop\n        /* \"#utility.yul\":15165:15264   */\n      swap2\n      swap1\n      pop\n      jump\t// out\n        /* \"#utility.yul\":15270:15439   */\n    tag_277:\n        /* \"#utility.yul\":15354:15365   */\n      0x00\n        /* \"#utility.yul\":15388:15394   */\n      dup3\n        /* \"#utility.yul\":15383:15386   */\n      dup3\n        /* \"#utility.yul\":15376:15395   */\n      mstore\n        /* \"#utility.yul\":15428:15432   */\n      0x20\n        /* \"#utility.yul\":15423:15426   */\n      dup3\n        /* \"#utility.yul\":15419:15433   */\n      add\n        /* \"#utility.yul\":15404:15433   */\n      swap1\n      pop\n        /* \"#utility.yul\":15270:15439   */\n      swap3\n      swap2\n      pop\n      pop\n      jump\t// out\n        /* \"#utility.yul\":15445:15541   */\n    tag_259:\n        /* \"#utility.yul\":15482:15489   */\n      0x00\n        /* \"#utility.yul\":15511:15535   */\n      tag_373\n        /* \"#utility.yul\":15529:15534   */\n      dup3\n        /* \"#utility.yul\":15511:15535   */\n      tag_374\n      jump\t// in\n    tag_373:\n        /* \"#utility.yul\":15500:15535   */\n      swap1\n      pop\n        /* \"#utility.yul\":15445:15541   */\n      swap2\n      swap1\n      pop\n      jump\t// out\n        /* \"#utility.yul\":15547:15637   */\n    tag_263:\n        /* \"#utility.yul\":15581:15588   */\n      0x00\n        /* \"#utility.yul\":15624:15629   */\n      dup2\n        /* \"#utility.yul\":15617:15630   */\n      iszero\n        /* \"#utility.yul\":15610:15631   */\n      iszero\n        /* \"#utility.yul\":15599:15631   */\n      swap1\n      pop\n        /* \"#utility.yul\":15547:15637   */\n      swap2\n      swap1\n      pop\n      jump\t// out\n        /* \"#utility.yul\":15643:15784   */\n    tag_376:\n        /* \"#utility.yul\":15695:15702   */\n      0x00\n        /* \"#utility.yul\":15724:15729   */\n      dup2\n        /* \"#utility.yul\":15713:15729   */\n      swap1\n      pop\n        /* \"#utility.yul\":15730:15778   */\n      tag_378\n        /* \"#utility.yul\":15772:15777   */\n      dup3\n        /* \"#utility.yul\":15730:15778   */\n      tag_379\n      jump\t// in\n    tag_378:\n        /* \"#utility.yul\":15643:15784   */\n      swap2\n      swap1\n      pop\n      jump\t// out\n        /* \"#utility.yul\":15790:15917   */\n    tag_380:\n        /* \"#utility.yul\":15835:15842   */\n      0x00\n        /* \"#utility.yul\":15864:15869   */\n      dup2\n        /* \"#utility.yul\":15853:15869   */\n      swap1\n      pop\n        /* \"#utility.yul\":15870:15911   */\n      tag_382\n        /* \"#utility.yul\":15905:15910   */\n      dup3\n        /* \"#utility.yul\":15870:15911   */\n      tag_383\n      jump\t// in\n    tag_382:\n        /* \"#utility.yul\":15790:15917   */\n      swap2\n      swap1\n      pop\n      jump\t// out\n        /* \"#utility.yul\":15923:16012   */\n    tag_295:\n        /* \"#utility.yul\":15959:15966   */\n      0x00\n        /* \"#utility.yul\":15999:16005   */\n      0xffff\n        /* \"#utility.yul\":15992:15997   */\n      dup3\n        /* \"#utility.yul\":15988:16006   */\n      and\n        /* \"#utility.yul\":15977:16006   */\n      swap1\n      pop\n        /* \"#utility.yul\":15923:16012   */\n      swap2\n      swap1\n      pop\n      jump\t// out\n        /* \"#utility.yul\":16018:16144   */\n    tag_374:\n        /* \"#utility.yul\":16055:16062   */\n      0x00\n        /* \"#utility.yul\":16095:16137   */\n      0xffffffffffffffffffffffffffffffffffffffff\n        /* \"#utility.yul\":16088:16093   */\n      dup3\n        /* \"#utility.yul\":16084:16138   */\n      and\n        /* \"#utility.yul\":16073:16138   */\n      swap1\n      pop\n        /* \"#utility.yul\":16018:16144   */\n      swap2\n      swap1\n      pop\n      jump\t// out\n        /* \"#utility.yul\":16150:16227   */\n    tag_299:\n        /* \"#utility.yul\":16187:16194   */\n      0x00\n        /* \"#utility.yul\":16216:16221   */\n      dup2\n        /* \"#utility.yul\":16205:16221   */\n      swap1\n      pop\n        /* \"#utility.yul\":16150:16227   */\n      swap2\n      swap1\n      pop\n      jump\t// out\n        /* \"#utility.yul\":16233:16326   */\n    tag_307:\n        /* \"#utility.yul\":16269:16276   */\n      0x00\n        /* \"#utility.yul\":16309:16319   */\n      0xffffffff\n        /* \"#utility.yul\":16302:16307   */\n      dup3\n        /* \"#utility.yul\":16298:16320   */\n      and\n        /* \"#utility.yul\":16287:16320   */\n      swap1\n      pop\n        /* \"#utility.yul\":16233:16326   */\n      swap2\n      swap1\n      pop\n      jump\t// out\n        /* \"#utility.yul\":16332:16418   */\n    tag_315:\n        /* \"#utility.yul\":16367:16374   */\n      0x00\n        /* \"#utility.yul\":16407:16411   */\n      0xff\n        /* \"#utility.yul\":16400:16405   */\n      dup3\n        /* \"#utility.yul\":16396:16412   */\n      and\n        /* \"#utility.yul\":16385:16412   */\n      swap1\n      pop\n        /* \"#utility.yul\":16332:16418   */\n      swap2\n      swap1\n      pop\n      jump\t// out\n        /* \"#utility.yul\":16424:16565   */\n    tag_267:\n        /* \"#utility.yul\":16487:16496   */\n      0x00\n        /* \"#utility.yul\":16520:16559   */\n      tag_390\n        /* \"#utility.yul\":16553:16558   */\n      dup3\n        /* \"#utility.yul\":16520:16559   */\n      tag_376\n      jump\t// in\n    tag_390:\n        /* \"#utility.yul\":16507:16559   */\n      swap1\n      pop\n        /* \"#utility.yul\":16424:16565   */\n      swap2\n      swap1\n      pop\n      jump\t// out\n        /* \"#utility.yul\":16571:16698   */\n    tag_271:\n        /* \"#utility.yul\":16627:16636   */\n      0x00\n        /* \"#utility.yul\":16660:16692   */\n      tag_392\n        /* \"#utility.yul\":16686:16691   */\n      dup3\n        /* \"#utility.yul\":16660:16692   */\n      tag_380\n      jump\t// in\n    tag_392:\n        /* \"#utility.yul\":16647:16692   */\n      swap1\n      pop\n        /* \"#utility.yul\":16571:16698   */\n      swap2\n      swap1\n      pop\n      jump\t// out\n        /* \"#utility.yul\":16704:16815   */\n    tag_303:\n        /* \"#utility.yul\":16753:16762   */\n      0x00\n        /* \"#utility.yul\":16786:16809   */\n      tag_394\n        /* \"#utility.yul\":16803:16808   */\n      dup3\n        /* \"#utility.yul\":16786:16809   */\n      tag_307\n      jump\t// in\n    tag_394:\n        /* \"#utility.yul\":16773:16809   */\n      swap1\n      pop\n        /* \"#utility.yul\":16704:16815   */\n      swap2\n      swap1\n      pop\n      jump\t// out\n        /* \"#utility.yul\":16821:16930   */\n    tag_311:\n        /* \"#utility.yul\":16869:16878   */\n      0x00\n        /* \"#utility.yul\":16902:16924   */\n      tag_396\n        /* \"#utility.yul\":16918:16923   */\n      dup3\n        /* \"#utility.yul\":16902:16924   */\n      tag_315\n      jump\t// in\n    tag_396:\n        /* \"#utility.yul\":16889:16924   */\n      swap1\n      pop\n        /* \"#utility.yul\":16821:16930   */\n      swap2\n      swap1\n      pop\n      jump\t// out\n        /* \"#utility.yul\":16936:17090   */\n    tag_183:\n        /* \"#utility.yul\":17020:17026   */\n      dup3\n        /* \"#utility.yul\":17015:17018   */\n      dup2\n        /* \"#utility.yul\":17010:17013   */\n      dup4\n        /* \"#utility.yul\":16997:17027   */\n      calldatacopy\n        /* \"#utility.yul\":17082:17083   */\n      0x00\n        /* \"#utility.yul\":17073:17079   */\n      dup4\n        /* \"#utility.yul\":17068:17071   */\n      dup4\n        /* \"#utility.yul\":17064:17080   */\n      add\n        /* \"#utility.yul\":17057:17084   */\n      mstore\n        /* \"#utility.yul\":16936:17090   */\n      pop\n      pop\n      pop\n      jump\t// out\n        /* \"#utility.yul\":17096:17403   */\n    tag_279:\n        /* \"#utility.yul\":17164:17165   */\n      0x00\n        /* \"#utility.yul\":17174:17287   */\n    tag_399:\n        /* \"#utility.yul\":17188:17194   */\n      dup4\n        /* \"#utility.yul\":17185:17186   */\n      dup2\n        /* \"#utility.yul\":17182:17195   */\n      lt\n        /* \"#utility.yul\":17174:17287   */\n      iszero\n      tag_401\n      jumpi\n        /* \"#utility.yul\":17273:17274   */\n      dup1\n        /* \"#utility.yul\":17268:17271   */\n      dup3\n        /* \"#utility.yul\":17264:17275   */\n      add\n        /* \"#utility.yul\":17258:17276   */\n      mload\n        /* \"#utility.yul\":17254:17255   */\n      dup2\n        /* \"#utility.yul\":17249:17252   */\n      dup5\n        /* \"#utility.yul\":17245:17256   */\n      add\n        /* \"#utility.yul\":17238:17277   */\n      mstore\n        /* \"#utility.yul\":17210:17212   */\n      0x20\n        /* \"#utility.yul\":17207:17208   */\n      dup2\n        /* \"#utility.yul\":17203:17213   */\n      add\n        /* \"#utility.yul\":17198:17213   */\n      swap1\n      pop\n        /* \"#utility.yul\":17174:17287   */\n      jump(tag_399)\n    tag_401:\n        /* \"#utility.yul\":17305:17311   */\n      dup4\n        /* \"#utility.yul\":17302:17303   */\n      dup2\n        /* \"#utility.yul\":17299:17312   */\n      gt\n        /* \"#utility.yul\":17296:17397   */\n      iszero\n      tag_402\n      jumpi\n        /* \"#utility.yul\":17385:17386   */\n      0x00\n        /* \"#utility.yul\":17376:17382   */\n      dup5\n        /* \"#utility.yul\":17371:17374   */\n      dup5\n        /* \"#utility.yul\":17367:17383   */\n      add\n        /* \"#utility.yul\":17360:17387   */\n      mstore\n        /* \"#utility.yul\":17296:17397   */\n    tag_402:\n        /* \"#utility.yul\":17145:17403   */\n      pop\n        /* \"#utility.yul\":17096:17403   */\n      pop\n      pop\n      pop\n      jump\t// out\n        /* \"#utility.yul\":17409:17729   */\n    tag_81:\n        /* \"#utility.yul\":17453:17459   */\n      0x00\n        /* \"#utility.yul\":17490:17491   */\n      0x02\n        /* \"#utility.yul\":17484:17488   */\n      dup3\n        /* \"#utility.yul\":17480:17492   */\n      div\n        /* \"#utility.yul\":17470:17492   */\n      swap1\n      pop\n        /* \"#utility.yul\":17537:17538   */\n      0x01\n        /* \"#utility.yul\":17531:17535   */\n      dup3\n        /* \"#utility.yul\":17527:17539   */\n      and\n        /* \"#utility.yul\":17558:17576   */\n      dup1\n        /* \"#utility.yul\":17548:17629   */\n      tag_404\n      jumpi\n        /* \"#utility.yul\":17614:17618   */\n      0x7f\n        /* \"#utility.yul\":17606:17612   */\n      dup3\n        /* \"#utility.yul\":17602:17619   */\n      and\n        /* \"#utility.yul\":17592:17619   */\n      swap2\n      pop\n        /* \"#utility.yul\":17548:17629   */\n    tag_404:\n        /* \"#utility.yul\":17676:17678   */\n      0x20\n        /* \"#utility.yul\":17668:17674   */\n      dup3\n        /* \"#utility.yul\":17665:17679   */\n      lt\n        /* \"#utility.yul\":17645:17663   */\n      dup2\n        /* \"#utility.yul\":17642:17680   */\n      eq\n        /* \"#utility.yul\":17639:17723   */\n      iszero\n      tag_405\n      jumpi\n        /* \"#utility.yul\":17695:17713   */\n      tag_406\n      tag_407\n      jump\t// in\n    tag_406:\n        /* \"#utility.yul\":17639:17723   */\n    tag_405:\n        /* \"#utility.yul\":17460:17729   */\n      pop\n        /* \"#utility.yul\":17409:17729   */\n      swap2\n      swap1\n      pop\n      jump\t// out\n        /* \"#utility.yul\":17735:18016   */\n    tag_363:\n        /* \"#utility.yul\":17818:17845   */\n      tag_409\n        /* \"#utility.yul\":17840:17844   */\n      dup3\n        /* \"#utility.yul\":17818:17845   */\n      tag_281\n      jump\t// in\n    tag_409:\n        /* \"#utility.yul\":17810:17816   */\n      dup2\n        /* \"#utility.yul\":17806:17846   */\n      add\n        /* \"#utility.yul\":17948:17954   */\n      dup2\n        /* \"#utility.yul\":17936:17946   */\n      dup2\n        /* \"#utility.yul\":17933:17955   */\n      lt\n        /* \"#utility.yul\":17912:17930   */\n      0xffffffffffffffff\n        /* \"#utility.yul\":17900:17910   */\n      dup3\n        /* \"#utility.yul\":17897:17931   */\n      gt\n        /* \"#utility.yul\":17894:17956   */\n      or\n        /* \"#utility.yul\":17891:17979   */\n      iszero\n      tag_410\n      jumpi\n        /* \"#utility.yul\":17959:17977   */\n      tag_411\n      tag_368\n      jump\t// in\n    tag_411:\n        /* \"#utility.yul\":17891:17979   */\n    tag_410:\n        /* \"#utility.yul\":17999:18009   */\n      dup1\n        /* \"#utility.yul\":17995:17997   */\n      0x40\n        /* \"#utility.yul\":17988:18010   */\n      mstore\n        /* \"#utility.yul\":17778:18016   */\n      pop\n        /* \"#utility.yul\":17735:18016   */\n      pop\n      pop\n      jump\t// out\n        /* \"#utility.yul\":18022:18255   */\n    tag_147:\n        /* \"#utility.yul\":18061:18064   */\n      0x00\n        /* \"#utility.yul\":18084:18108   */\n      tag_413\n        /* \"#utility.yul\":18102:18107   */\n      dup3\n        /* \"#utility.yul\":18084:18108   */\n      tag_299\n      jump\t// in\n    tag_413:\n        /* \"#utility.yul\":18075:18108   */\n      swap2\n      pop\n        /* \"#utility.yul\":18130:18196   */\n      0xffffffffffffffffffffffffffffffffffffffffffffffffffffffffffffffff\n        /* \"#utility.yul\":18123:18128   */\n      dup3\n        /* \"#utility.yul\":18120:18197   */\n      eq\n        /* \"#utility.yul\":18117:18220   */\n      iszero\n      tag_414\n      jumpi\n        /* \"#utility.yul\":18200:18218   */\n      tag_415\n      tag_416\n      jump\t// in\n    tag_415:\n        /* \"#utility.yul\":18117:18220   */\n    tag_414:\n        /* \"#utility.yul\":18247:18248   */\n      0x01\n        /* \"#utility.yul\":18240:18245   */\n      dup3\n        /* \"#utility.yul\":18236:18249   */\n      add\n        /* \"#utility.yul\":18229:18249   */\n      swap1\n      pop\n        /* \"#utility.yul\":18022:18255   */\n      swap2\n      swap1\n      pop\n      jump\t// out\n        /* \"#utility.yul\":18261:18441   */\n    tag_416:\n        /* \"#utility.yul\":18309:18386   */\n      0x4e487b7100000000000000000000000000000000000000000000000000000000\n        /* \"#utility.yul\":18306:18307   */\n      0x00\n        /* \"#utility.yul\":18299:18387   */\n      mstore\n        /* \"#utility.yul\":18406:18410   */\n      0x11\n        /* \"#utility.yul\":18403:18404   */\n      0x04\n        /* \"#utility.yul\":18396:18411   */\n      mstore\n        /* \"#utility.yul\":18430:18434   */\n      0x24\n        /* \"#utility.yul\":18427:18428   */\n      0x00\n        /* \"#utility.yul\":18420:18435   */\n      revert\n        /* \"#utility.yul\":18447:18627   */\n    tag_118:\n        /* \"#utility.yul\":18495:18572   */\n      0x4e487b7100000000000000000000000000000000000000000000000000000000\n        /* \"#utility.yul\":18492:18493   */\n      0x00\n        /* \"#utility.yul\":18485:18573   */\n      mstore\n        /* \"#utility.yul\":18592:18596   */\n      0x21\n        /* \"#utility.yul\":18589:18590   */\n      0x04\n        /* \"#utility.yul\":18582:18597   */\n      mstore\n        /* \"#utility.yul\":18616:18620   */\n      0x24\n        /* \"#utility.yul\":18613:18614   */\n      0x00\n        /* \"#utility.yul\":18606:18621   */\n      revert\n        /* \"#utility.yul\":18633:18813   */\n    tag_407:\n        /* \"#utility.yul\":18681:18758   */\n      0x4e487b7100000000000000000000000000000000000000000000000000000000\n        /* \"#utility.yul\":18678:18679   */\n      0x00\n        /* \"#utility.yul\":18671:18759   */\n      mstore\n        /* \"#utility.yul\":18778:18782   */\n      0x22\n        /* \"#utility.yul\":18775:18776   */\n      0x04\n        /* \"#utility.yul\":18768:18783   */\n      mstore\n        /* \"#utility.yul\":18802:18806   */\n      0x24\n        /* \"#utility.yul\":18799:18800   */\n      0x00\n        /* \"#utility.yul\":18792:18807   */\n      revert\n        /* \"#utility.yul\":18819:18999   */\n    tag_368:\n        /* \"#utility.yul\":18867:18944   */\n      0x4e487b7100000000000000000000000000000000000000000000000000000000\n        /* \"#utility.yul\":18864:18865   */\n      0x00\n        /* \"#utility.yul\":18857:18945   */\n      mstore\n        /* \"#utility.yul\":18964:18968   */\n      0x41\n        /* \"#utility.yul\":18961:18962   */\n      0x04\n        /* \"#utility.yul\":18954:18969   */\n      mstore\n        /* \"#utility.yul\":18988:18992   */\n      0x24\n        /* \"#utility.yul\":18985:18986   */\n      0x00\n        /* \"#utility.yul\":18978:18993   */\n      revert\n        /* \"#utility.yul\":19005:19122   */\n    tag_196:\n        /* \"#utility.yul\":19114:19115   */\n      0x00\n        /* \"#utility.yul\":19111:19112   */\n      dup1\n        /* \"#utility.yul\":19104:19116   */\n      revert\n        /* \"#utility.yul\":19128:19245   */\n    tag_181:\n        /* \"#utility.yul\":19237:19238   */\n      0x00\n        /* \"#utility.yul\":19234:19235   */\n      dup1\n        /* \"#utility.yul\":19227:19239   */\n      revert\n        /* \"#utility.yul\":19251:19368   */\n    tag_225:\n        /* \"#utility.yul\":19360:19361   */\n      0x00\n        /* \"#utility.yul\":19357:19358   */\n      dup1\n        /* \"#utility.yul\":19350:19362   */\n      revert\n        /* \"#utility.yul\":19374:19491   */\n    tag_213:\n        /* \"#utility.yul\":19483:19484   */\n      0x00\n        /* \"#utility.yul\":19480:19481   */\n      dup1\n        /* \"#utility.yul\":19473:19485   */\n      revert\n        /* \"#utility.yul\":19497:19599   */\n    tag_281:\n        /* \"#utility.yul\":19538:19544   */\n      0x00\n        /* \"#utility.yul\":19589:19591   */\n      0x1f\n        /* \"#utility.yul\":19585:19592   */\n      not\n        /* \"#utility.yul\":19580:19582   */\n      0x1f\n        /* \"#utility.yul\":19573:19578   */\n      dup4\n        /* \"#utility.yul\":19569:19583   */\n      add\n        /* \"#utility.yul\":19565:19593   */\n      and\n        /* \"#utility.yul\":19555:19593   */\n      swap1\n      pop\n        /* \"#utility.yul\":19497:19599   */\n      swap2\n      swap1\n      pop\n      jump\t// out\n        /* \"#utility.yul\":19605:19773   */\n    tag_286:\n        /* \"#utility.yul\":19745:19765   */\n      0x53747564656e74206e6f74206578697374730000000000000000000000000000\n        /* \"#utility.yul\":19741:19742   */\n      0x00\n        /* \"#utility.yul\":19733:19739   */\n      dup3\n        /* \"#utility.yul\":19729:19743   */\n      add\n        /* \"#utility.yul\":19722:19766   */\n      mstore\n        /* \"#utility.yul\":19605:19773   */\n      pop\n      jump\t// out\n        /* \"#utility.yul\":19779:19961   */\n    tag_291:\n        /* \"#utility.yul\":19919:19953   */\n      0x42752069736c656d6920736164656365204b757273207961706162696c69722e\n        /* \"#utility.yul\":19915:19916   */\n      0x00\n        /* \"#utility.yul\":19907:19913   */\n      dup3\n        /* \"#utility.yul\":19903:19917   */\n      add\n        /* \"#utility.yul\":19896:19954   */\n      mstore\n        /* \"#utility.yul\":19779:19961   */\n      pop\n      jump\t// out\n        /* \"#utility.yul\":19967:20087   */\n    tag_379:\n        /* \"#utility.yul\":20055:20056   */\n      0x03\n        /* \"#utility.yul\":20048:20053   */\n      dup2\n        /* \"#utility.yul\":20045:20057   */\n      lt\n        /* \"#utility.yul\":20035:20081   */\n      tag_429\n      jumpi\n        /* \"#utility.yul\":20061:20079   */\n      tag_430\n      tag_118\n      jump\t// in\n    tag_430:\n        /* \"#utility.yul\":20035:20081   */\n    tag_429:\n        /* \"#utility.yul\":19967:20087   */\n      pop\n      jump\t// out\n        /* \"#utility.yul\":20093:20206   */\n    tag_383:\n        /* \"#utility.yul\":20174:20175   */\n      0x04\n        /* \"#utility.yul\":20167:20172   */\n      dup2\n        /* \"#utility.yul\":20164:20176   */\n      lt\n        /* \"#utility.yul\":20154:20200   */\n      tag_432\n      jumpi\n        /* \"#utility.yul\":20180:20198   */\n      tag_433\n      tag_118\n      jump\t// in\n    tag_433:\n        /* \"#utility.yul\":20154:20200   */\n    tag_432:\n        /* \"#utility.yul\":20093:20206   */\n      pop\n      jump\t// out\n        /* \"#utility.yul\":20212:20334   */\n    tag_187:\n        /* \"#utility.yul\":20285:20309   */\n      tag_435\n        /* \"#utility.yul\":20303:20308   */\n      dup2\n        /* \"#utility.yul\":20285:20309   */\n      tag_259\n      jump\t// in\n    tag_435:\n        /* \"#utility.yul\":20278:20283   */\n      dup2\n        /* \"#utility.yul\":20275:20310   */\n      eq\n        /* \"#utility.yul\":20265:20328   */\n      tag_436\n      jumpi\n        /* \"#utility.yul\":20324:20325   */\n      0x00\n        /* \"#utility.yul\":20321:20322   */\n      dup1\n        /* \"#utility.yul\":20314:20326   */\n      revert\n        /* \"#utility.yul\":20265:20328   */\n    tag_436:\n        /* \"#utility.yul\":20212:20334   */\n      pop\n      jump\t// out\n        /* \"#utility.yul\":20340:20454   */\n    tag_191:\n        /* \"#utility.yul\":20428:20429   */\n      0x03\n        /* \"#utility.yul\":20421:20426   */\n      dup2\n        /* \"#utility.yul\":20418:20430   */\n      lt\n        /* \"#utility.yul\":20408:20448   */\n      tag_438\n      jumpi\n        /* \"#utility.yul\":20444:20445   */\n      0x00\n        /* \"#utility.yul\":20441:20442   */\n      dup1\n        /* \"#utility.yul\":20434:20446   */\n      revert\n        /* \"#utility.yul\":20408:20448   */\n    tag_438:\n        /* \"#utility.yul\":20340:20454   */\n      pop\n      jump\t// out\n        /* \"#utility.yul\":20460:20582   */\n    tag_201:\n        /* \"#utility.yul\":20533:20557   */\n      tag_440\n        /* \"#utility.yul\":20551:20556   */\n      dup2\n        /* \"#utility.yul\":20533:20557   */\n      tag_299\n      jump\t// in\n    tag_440:\n        /* \"#utility.yul\":20526:20531   */\n      dup2\n        /* \"#utility.yul\":20523:20558   */\n      eq\n        /* \"#utility.yul\":20513:20576   */\n      tag_441\n      jumpi\n        /* \"#utility.yul\":20572:20573   */\n      0x00\n        /* \"#utility.yul\":20569:20570   */\n      dup1\n        /* \"#utility.yul\":20562:20574   */\n      revert\n        /* \"#utility.yul\":20513:20576   */\n    tag_441:\n        /* \"#utility.yul\":20460:20582   */\n      pop\n      jump\t// out\n        /* \"#utility.yul\":20588:20708   */\n    tag_205:\n        /* \"#utility.yul\":20660:20683   */\n      tag_443\n        /* \"#utility.yul\":20677:20682   */\n      dup2\n        /* \"#utility.yul\":20660:20683   */\n      tag_307\n      jump\t// in\n    tag_443:\n        /* \"#utility.yul\":20653:20658   */\n      dup2\n        /* \"#utility.yul\":20650:20684   */\n      eq\n        /* \"#utility.yul\":20640:20702   */\n      tag_444\n      jumpi\n        /* \"#utility.yul\":20698:20699   */\n      0x00\n        /* \"#utility.yul\":20695:20696   */\n      dup1\n        /* \"#utility.yul\":20688:20700   */\n      revert\n        /* \"#utility.yul\":20640:20702   */\n    tag_444:\n        /* \"#utility.yul\":20588:20708   */\n      pop\n      jump\t// out\n        /* \"#utility.yul\":20714:20832   */\n    tag_209:\n        /* \"#utility.yul\":20785:20807   */\n      tag_446\n        /* \"#utility.yul\":20801:20806   */\n      dup2\n        /* \"#utility.yul\":20785:20807   */\n      tag_315\n      jump\t// in\n    tag_446:\n        /* \"#utility.yul\":20778:20783   */\n      dup2\n        /* \"#utility.yul\":20775:20808   */\n      eq\n        /* \"#utility.yul\":20765:20826   */\n      tag_447\n      jumpi\n        /* \"#utility.yul\":20822:20823   */\n      0x00\n        /* \"#utility.yul\":20819:20820   */\n      dup1\n        /* \"#utility.yul\":20812:20824   */\n      revert\n        /* \"#utility.yul\":20765:20826   */\n    tag_447:\n        /* \"#utility.yul\":20714:20832   */\n      pop\n      jump\t// out\n\n    auxdata: 0xa26469706673582212204f4600206db3db5e799380b9ca3ff6b3920b396f157cacf2007c5f9b01f8a78264736f6c63430008070033\n}\n",
				"bytecode": {
					"linkReferences": {},
					"object": "608060405234801561001057600080fd5b506123ea806100206000396000f3fe608060405234801561001057600080fd5b50600436106100cf5760003560e01c80637d0fa2871161008c578063af640d0f11610066578063af640d0f1461029b578063b34b5539146102b9578063ba479b7e146102d5578063cbc928091461030a576100cf565b80637d0fa287146102065780639a8c911914610238578063a4e7ae051461026a576100cf565b80630fb0b1b2146100d45780631916e1391461010d578063282666971461013f578063356b1f1e1461017157806339987f94146101a35780637b6524fe146101d6575b600080fd5b6100ee60048036038101906100e99190611a93565b61033a565b6040516101049a99989796959493929190611ed9565b60405180910390f35b6101276004803603810190610122919061196b565b61048a565b60405161013693929190611df4565b60405180910390f35b6101596004803603810190610154919061196b565b610556565b60405161016893929190611df4565b60405180910390f35b61018b6004803603810190610186919061196b565b610622565b60405161019a93929190611df4565b60405180910390f35b6101bd60048036038101906101b8919061196b565b6106ee565b6040516101cd9493929190611e32565b60405180910390f35b6101f060048036038101906101eb9190611ad3565b6107c0565b6040516101fd9190611ebe565b60405180910390f35b610220600480360381019061021b919061196b565b610dc1565b60405161022f93929190611df4565b60405180910390f35b610252600480360381019061024d919061196b565b610e8d565b60405161026193929190611df4565b60405180910390f35b610284600480360381019061027f9190611be3565b610f59565b604051610292929190611f7c565b60405180910390f35b6102a3611015565b6040516102b09190611ebe565b60405180910390f35b6102d360048036038101906102ce9190611998565b61101b565b005b6102ef60048036038101906102ea919061196b565b611630565b60405161030196959493929190611d85565b60405180910390f35b610324600480360381019061031f919061196b565b6117c4565b6040516103319190611d6a565b60405180910390f35b600d602052816000526040600020602052806000526040600020600091509150508060000154908060010160009054906101000a900473ffffffffffffffffffffffffffffffffffffffff16908060010160149054906101000a900463ffffffff16908060010160189054906101000a900460ff16908060010160199054906101000a900460ff16908060020180546103d290612141565b80601f01602080910402602001604051908101604052809291908181526020018280546103fe90612141565b801561044b5780601f106104205761010080835404028352916020019161044b565b820191906000526020600020905b81548152906001019060200180831161042e57829003601f168201915b5050505050908060030154908060040154908060050160009054906101000a900460ff16908060050160019054906101000a900463ffffffff1690508a565b60076020528060005260406000206000915090508060000160009054906101000a900460ff16908060010180546104c090612141565b80601f01602080910402602001604051908101604052809291908181526020018280546104ec90612141565b80156105395780601f1061050e57610100808354040283529160200191610539565b820191906000526020600020905b81548152906001019060200180831161051c57829003601f168201915b5050505050908060020160009054906101000a900460ff16905083565b60046020528060005260406000206000915090508060000160009054906101000a900460ff169080600101805461058c90612141565b80601f01602080910402602001604051908101604052809291908181526020018280546105b890612141565b80156106055780601f106105da57610100808354040283529160200191610605565b820191906000526020600020905b8154815290600101906020018083116105e857829003601f168201915b5050505050908060020160009054906101000a900460ff16905083565b600a6020528060005260406000206000915090508060000160009054906101000a900460ff169080600101805461065890612141565b80601f016020809104026020016040519081016040528092919081815260200182805461068490612141565b80156106d15780601f106106a6576101008083540402835291602001916106d1565b820191906000526020600020905b8154815290600101906020018083116106b457829003601f168201915b5050505050908060020160009054906101000a900460ff16905083565b60066020528060005260406000206000915090508060000160009054906101000a900460ff16908060000160019054906101000a900460ff169080600101549080600201805461073d90612141565b80601f016020809104026020016040519081016040528092919081815260200182805461076990612141565b80156107b65780601f1061078b576101008083540402835291602001916107b6565b820191906000526020600020905b81548152906001019060200180831161079957829003601f168201915b5050505050905084565b6000600460003373ffffffffffffffffffffffffffffffffffffffff1673ffffffffffffffffffffffffffffffffffffffff16815260200190815260200160002060000160009054906101000a900460ff16806108695750600660003373ffffffffffffffffffffffffffffffffffffffff1673ffffffffffffffffffffffffffffffffffffffff16815260200190815260200160002060000160009054906101000a900460ff165b806108c05750600860003373ffffffffffffffffffffffffffffffffffffffff1673ffffffffffffffffffffffffffffffffffffffff16815260200190815260200160002060000160009054906101000a900460ff165b6108ff576040517f08c379a00000000000000000000000000000000000000000000000000000000081526004016108f690611e9e565b60405180910390fd5b600360008d73ffffffffffffffffffffffffffffffffffffffff1673ffffffffffffffffffffffffffffffffffffffff16815260200190815260200160002060000160009054906101000a900460ff1661098e576040517f08c379a000000000000000000000000000000000000000000000000000000000815260040161098590611e7e565b60405180910390fd5b89600d60008e73ffffffffffffffffffffffffffffffffffffffff1673ffffffffffffffffffffffffffffffffffffffff16815260200190815260200160002060008d815260200190815260200160002060010160006101000a81548173ffffffffffffffffffffffffffffffffffffffff021916908373ffffffffffffffffffffffffffffffffffffffff16021790555088600d60008e73ffffffffffffffffffffffffffffffffffffffff1673ffffffffffffffffffffffffffffffffffffffff16815260200190815260200160002060008d815260200190815260200160002060010160146101000a81548163ffffffff021916908363ffffffff16021790555087600d60008e73ffffffffffffffffffffffffffffffffffffffff1673ffffffffffffffffffffffffffffffffffffffff16815260200190815260200160002060008d815260200190815260200160002060010160186101000a81548160ff021916908360ff16021790555086600d60008e73ffffffffffffffffffffffffffffffffffffffff1673ffffffffffffffffffffffffffffffffffffffff16815260200190815260200160002060008d815260200190815260200160002060010160196101000a81548160ff02191690836002811115610b7457610b7361221c565b5b021790555085600d60008e73ffffffffffffffffffffffffffffffffffffffff1673ffffffffffffffffffffffffffffffffffffffff16815260200190815260200160002060008d81526020019081526020016000206002019080519060200190610be09291906117ef565b5084600d60008e73ffffffffffffffffffffffffffffffffffffffff1673ffffffffffffffffffffffffffffffffffffffff16815260200190815260200160002060008d81526020019081526020016000206003018190555083600d60008e73ffffffffffffffffffffffffffffffffffffffff1673ffffffffffffffffffffffffffffffffffffffff16815260200190815260200160002060008d81526020019081526020016000206004018190555082600d60008e73ffffffffffffffffffffffffffffffffffffffff1673ffffffffffffffffffffffffffffffffffffffff16815260200190815260200160002060008d815260200190815260200160002060050160006101000a81548160ff021916908360ff1602179055508760ff16600d60008e73ffffffffffffffffffffffffffffffffffffffff1673ffffffffffffffffffffffffffffffffffffffff16815260200190815260200160002060008d815260200190815260200160002060050160016101000a81548163ffffffff021916908363ffffffff1602179055507f97a8618b4c3e1bbef6226b887ae721d63d275f7a7d596ba44e9ef2fb1309cce08c8b8b8b604051610da79493929190611d25565b60405180910390a18a90509b9a5050505050505050505050565b60086020528060005260406000206000915090508060000160009054906101000a900460ff1690806001018054610df790612141565b80601f0160208091040260200160405190810160405280929190818152602001828054610e2390612141565b8015610e705780601f10610e4557610100808354040283529160200191610e70565b820191906000526020600020905b815481529060010190602001808311610e5357829003601f168201915b5050505050908060020160009054906101000a900460ff16905083565b60096020528060005260406000206000915090508060000160009054906101000a900460ff1690806001018054610ec390612141565b80601f0160208091040260200160405190810160405280929190818152602001828054610eef90612141565b8015610f3c5780601f10610f1157610100808354040283529160200191610f3c565b820191906000526020600020905b815481529060010190602001808311610f1f57829003601f168201915b5050505050908060020160009054906101000a900460ff16905083565b600b6020528060005260406000206000915090508060000160009054906101000a900463ffffffff1690806001018054610f9290612141565b80601f0160208091040260200160405190810160405280929190818152602001828054610fbe90612141565b801561100b5780601f10610fe05761010080835404028352916020019161100b565b820191906000526020600020905b815481529060010190602001808311610fee57829003601f168201915b5050505050905082565b600c5481565b600460003373ffffffffffffffffffffffffffffffffffffffff1673ffffffffffffffffffffffffffffffffffffffff16815260200190815260200160002060000160009054906101000a900460ff16806110c25750600660003373ffffffffffffffffffffffffffffffffffffffff1673ffffffffffffffffffffffffffffffffffffffff16815260200190815260200160002060000160009054906101000a900460ff165b806111195750600860003373ffffffffffffffffffffffffffffffffffffffff1673ffffffffffffffffffffffffffffffffffffffff16815260200190815260200160002060000160009054906101000a900460ff165b611158576040517f08c379a000000000000000000000000000000000000000000000000000000000815260040161114f90611e9e565b60405180910390fd5b600360008b73ffffffffffffffffffffffffffffffffffffffff1673ffffffffffffffffffffffffffffffffffffffff16815260200190815260200160002060000160009054906101000a900460ff166111e7576040517f08c379a00000000000000000000000000000000000000000000000000000000081526004016111de90611e7e565b60405180910390fd5b6000600c60008154809291906111fc906121a4565b91905055905089600d60008d73ffffffffffffffffffffffffffffffffffffffff1673ffffffffffffffffffffffffffffffffffffffff168152602001908152602001600020600083815260200190815260200160002060010160006101000a81548173ffffffffffffffffffffffffffffffffffffffff021916908373ffffffffffffffffffffffffffffffffffffffff16021790555088600d60008d73ffffffffffffffffffffffffffffffffffffffff1673ffffffffffffffffffffffffffffffffffffffff168152602001908152602001600020600083815260200190815260200160002060010160146101000a81548163ffffffff021916908363ffffffff16021790555087600d60008d73ffffffffffffffffffffffffffffffffffffffff1673ffffffffffffffffffffffffffffffffffffffff168152602001908152602001600020600083815260200190815260200160002060010160186101000a81548160ff021916908360ff16021790555086600d60008d73ffffffffffffffffffffffffffffffffffffffff1673ffffffffffffffffffffffffffffffffffffffff168152602001908152602001600020600083815260200190815260200160002060010160196101000a81548160ff021916908360028111156113e8576113e761221c565b5b021790555085600d60008d73ffffffffffffffffffffffffffffffffffffffff1673ffffffffffffffffffffffffffffffffffffffff168152602001908152602001600020600083815260200190815260200160002060020190805190602001906114549291906117ef565b5084600d60008d73ffffffffffffffffffffffffffffffffffffffff1673ffffffffffffffffffffffffffffffffffffffff16815260200190815260200160002060008381526020019081526020016000206003018190555083600d60008d73ffffffffffffffffffffffffffffffffffffffff1673ffffffffffffffffffffffffffffffffffffffff16815260200190815260200160002060008381526020019081526020016000206004018190555082600d60008d73ffffffffffffffffffffffffffffffffffffffff1673ffffffffffffffffffffffffffffffffffffffff168152602001908152602001600020600083815260200190815260200160002060050160006101000a81548160ff021916908360ff1602179055508760ff16600d60008d73ffffffffffffffffffffffffffffffffffffffff1673ffffffffffffffffffffffffffffffffffffffff168152602001908152602001600020600083815260200190815260200160002060050160016101000a81548163ffffffff021916908363ffffffff1602179055507fae2424f93616cc7fc3303332cdda5353231f2dc90a87b1e0b507a25e53ac01358b8b8b8b60405161161b9493929190611d25565b60405180910390a15050505050505050505050565b60056020528060005260406000206000915090508060000160009054906101000a900460ff16908060000160019054906101000a900473ffffffffffffffffffffffffffffffffffffffff16908060000160159054906101000a900461ffff16908060000160179054906101000a900460ff16908060010180546116b390612141565b80601f01602080910402602001604051908101604052809291908181526020018280546116df90612141565b801561172c5780601f106117015761010080835404028352916020019161172c565b820191906000526020600020905b81548152906001019060200180831161170f57829003601f168201915b50505050509080600201805461174190612141565b80601f016020809104026020016040519081016040528092919081815260200182805461176d90612141565b80156117ba5780601f1061178f576101008083540402835291602001916117ba565b820191906000526020600020905b81548152906001019060200180831161179d57829003601f168201915b5050505050905086565b60036020528060005260406000206000915090508060000160009054906101000a900460ff16905081565b8280546117fb90612141565b90600052602060002090601f01602090048101928261181d5760008555611864565b82601f1061183657805160ff1916838001178555611864565b82800160010185558215611864579182015b82811115611863578251825591602001919060010190611848565b5b5090506118719190611875565b5090565b5b8082111561188e576000816000905550600101611876565b5090565b60006118a56118a084611fd1565b611fac565b9050828152602081018484840111156118c1576118c06122ae565b5b6118cc8482856120ff565b509392505050565b6000813590506118e381612348565b92915050565b6000813590506118f88161235f565b92915050565b600082601f830112611913576119126122a9565b5b8135611923848260208601611892565b91505092915050565b60008135905061193b8161236f565b92915050565b60008135905061195081612386565b92915050565b6000813590506119658161239d565b92915050565b600060208284031215611981576119806122b8565b5b600061198f848285016118d4565b91505092915050565b6000806000806000806000806000806101408b8d0312156119bc576119bb6122b8565b5b60006119ca8d828e016118d4565b9a505060206119db8d828e016118d4565b99505060406119ec8d828e01611941565b98505060606119fd8d828e01611956565b9750506080611a0e8d828e016118e9565b96505060a08b013567ffffffffffffffff811115611a2f57611a2e6122b3565b5b611a3b8d828e016118fe565b95505060c0611a4c8d828e0161192c565b94505060e0611a5d8d828e0161192c565b935050610100611a6f8d828e01611956565b925050610120611a818d828e01611941565b9150509295989b9194979a5092959850565b60008060408385031215611aaa57611aa96122b8565b5b6000611ab8858286016118d4565b9250506020611ac98582860161192c565b9150509250929050565b60008060008060008060008060008060006101608c8e031215611af957611af86122b8565b5b6000611b078e828f016118d4565b9b50506020611b188e828f0161192c565b9a50506040611b298e828f016118d4565b9950506060611b3a8e828f01611941565b9850506080611b4b8e828f01611956565b97505060a0611b5c8e828f016118e9565b96505060c08c013567ffffffffffffffff811115611b7d57611b7c6122b3565b5b611b898e828f016118fe565b95505060e0611b9a8e828f0161192c565b945050610100611bac8e828f0161192c565b935050610120611bbe8e828f01611956565b925050610140611bd08e828f01611941565b9150509295989b509295989b9093969950565b600060208284031215611bf957611bf86122b8565b5b6000611c0784828501611941565b91505092915050565b611c198161201e565b82525050565b611c2881612030565b82525050565b611c37816120b7565b82525050565b611c46816120c9565b82525050565b6000611c5782612002565b611c61818561200d565b9350611c7181856020860161210e565b611c7a816122bd565b840191505092915050565b6000611c9260128361200d565b9150611c9d826122ce565b602082019050919050565b6000611cb560208361200d565b9150611cc0826122f7565b602082019050919050565b611cd481612062565b82525050565b611ce381612090565b82525050565b611cf2816120db565b82525050565b611d018161209a565b82525050565b611d10816120ed565b82525050565b611d1f816120aa565b82525050565b6000608082019050611d3a6000830187611c10565b611d476020830186611c10565b611d546040830185611ce9565b611d616060830184611d07565b95945050505050565b6000602082019050611d7f6000830184611c1f565b92915050565b600060c082019050611d9a6000830189611c1f565b611da76020830188611c10565b611db46040830187611ccb565b611dc16060830186611c3d565b8181036080830152611dd38185611c4c565b905081810360a0830152611de78184611c4c565b9050979650505050505050565b6000606082019050611e096000830186611c1f565b8181036020830152611e1b8185611c4c565b9050611e2a6040830184611d16565b949350505050565b6000608082019050611e476000830187611c1f565b611e546020830186611d16565b611e616040830185611cda565b8181036060830152611e738184611c4c565b905095945050505050565b60006020820190508181036000830152611e9781611c85565b9050919050565b60006020820190508181036000830152611eb781611ca8565b9050919050565b6000602082019050611ed36000830184611cda565b92915050565b600061014082019050611eef600083018d611cda565b611efc602083018c611c10565b611f09604083018b611cf8565b611f16606083018a611d16565b611f236080830189611c2e565b81810360a0830152611f358188611c4c565b9050611f4460c0830187611cda565b611f5160e0830186611cda565b611f5f610100830185611d16565b611f6d610120830184611cf8565b9b9a5050505050505050505050565b6000604082019050611f916000830185611cf8565b8181036020830152611fa38184611c4c565b90509392505050565b6000611fb6611fc7565b9050611fc28282612173565b919050565b6000604051905090565b600067ffffffffffffffff821115611fec57611feb61227a565b5b611ff5826122bd565b9050602081019050919050565b600081519050919050565b600082825260208201905092915050565b600061202982612070565b9050919050565b60008115159050919050565b600081905061204a82612320565b919050565b600081905061205d82612334565b919050565b600061ffff82169050919050565b600073ffffffffffffffffffffffffffffffffffffffff82169050919050565b6000819050919050565b600063ffffffff82169050919050565b600060ff82169050919050565b60006120c28261203c565b9050919050565b60006120d48261204f565b9050919050565b60006120e68261209a565b9050919050565b60006120f8826120aa565b9050919050565b82818337600083830152505050565b60005b8381101561212c578082015181840152602081019050612111565b8381111561213b576000848401525b50505050565b6000600282049050600182168061215957607f821691505b6020821081141561216d5761216c61224b565b5b50919050565b61217c826122bd565b810181811067ffffffffffffffff8211171561219b5761219a61227a565b5b80604052505050565b60006121af82612090565b91507fffffffffffffffffffffffffffffffffffffffffffffffffffffffffffffffff8214156121e2576121e16121ed565b5b600182019050919050565b7f4e487b7100000000000000000000000000000000000000000000000000000000600052601160045260246000fd5b7f4e487b7100000000000000000000000000000000000000000000000000000000600052602160045260246000fd5b7f4e487b7100000000000000000000000000000000000000000000000000000000600052602260045260246000fd5b7f4e487b7100000000000000000000000000000000000000000000000000000000600052604160045260246000fd5b600080fd5b600080fd5b600080fd5b600080fd5b6000601f19601f8301169050919050565b7f53747564656e74206e6f74206578697374730000000000000000000000000000600082015250565b7f42752069736c656d6920736164656365204b757273207961706162696c69722e600082015250565b600381106123315761233061221c565b5b50565b600481106123455761234461221c565b5b50565b6123518161201e565b811461235c57600080fd5b50565b6003811061236c57600080fd5b50565b61237881612090565b811461238357600080fd5b50565b61238f8161209a565b811461239a57600080fd5b50565b6123a6816120aa565b81146123b157600080fd5b5056fea26469706673582212204f4600206db3db5e799380b9ca3ff6b3920b396f157cacf2007c5f9b01f8a78264736f6c63430008070033",
					"opcodes": "PUSH1 0x80 PUSH1 0x40 MSTORE CALLVALUE DUP1 ISZERO PUSH2 0x10 JUMPI PUSH1 0x0 DUP1 REVERT JUMPDEST POP PUSH2 0x23EA DUP1 PUSH2 0x20 PUSH1 0x0 CODECOPY PUSH1 0x0 RETURN INVALID PUSH1 0x80 PUSH1 0x40 MSTORE CALLVALUE DUP1 ISZERO PUSH2 0x10 JUMPI PUSH1 0x0 DUP1 REVERT JUMPDEST POP PUSH1 0x4 CALLDATASIZE LT PUSH2 0xCF JUMPI PUSH1 0x0 CALLDATALOAD PUSH1 0xE0 SHR DUP1 PUSH4 0x7D0FA287 GT PUSH2 0x8C JUMPI DUP1 PUSH4 0xAF640D0F GT PUSH2 0x66 JUMPI DUP1 PUSH4 0xAF640D0F EQ PUSH2 0x29B JUMPI DUP1 PUSH4 0xB34B5539 EQ PUSH2 0x2B9 JUMPI DUP1 PUSH4 0xBA479B7E EQ PUSH2 0x2D5 JUMPI DUP1 PUSH4 0xCBC92809 EQ PUSH2 0x30A JUMPI PUSH2 0xCF JUMP JUMPDEST DUP1 PUSH4 0x7D0FA287 EQ PUSH2 0x206 JUMPI DUP1 PUSH4 0x9A8C9119 EQ PUSH2 0x238 JUMPI DUP1 PUSH4 0xA4E7AE05 EQ PUSH2 0x26A JUMPI PUSH2 0xCF JUMP JUMPDEST DUP1 PUSH4 0xFB0B1B2 EQ PUSH2 0xD4 JUMPI DUP1 PUSH4 0x1916E139 EQ PUSH2 0x10D JUMPI DUP1 PUSH4 0x28266697 EQ PUSH2 0x13F JUMPI DUP1 PUSH4 0x356B1F1E EQ PUSH2 0x171 JUMPI DUP1 PUSH4 0x39987F94 EQ PUSH2 0x1A3 JUMPI DUP1 PUSH4 0x7B6524FE EQ PUSH2 0x1D6 JUMPI JUMPDEST PUSH1 0x0 DUP1 REVERT JUMPDEST PUSH2 0xEE PUSH1 0x4 DUP1 CALLDATASIZE SUB DUP2 ADD SWAP1 PUSH2 0xE9 SWAP2 SWAP1 PUSH2 0x1A93 JUMP JUMPDEST PUSH2 0x33A JUMP JUMPDEST PUSH1 0x40 MLOAD PUSH2 0x104 SWAP11 SWAP10 SWAP9 SWAP8 SWAP7 SWAP6 SWAP5 SWAP4 SWAP3 SWAP2 SWAP1 PUSH2 0x1ED9 JUMP JUMPDEST PUSH1 0x40 MLOAD DUP1 SWAP2 SUB SWAP1 RETURN JUMPDEST PUSH2 0x127 PUSH1 0x4 DUP1 CALLDATASIZE SUB DUP2 ADD SWAP1 PUSH2 0x122 SWAP2 SWAP1 PUSH2 0x196B JUMP JUMPDEST PUSH2 0x48A JUMP JUMPDEST PUSH1 0x40 MLOAD PUSH2 0x136 SWAP4 SWAP3 SWAP2 SWAP1 PUSH2 0x1DF4 JUMP JUMPDEST PUSH1 0x40 MLOAD DUP1 SWAP2 SUB SWAP1 RETURN JUMPDEST PUSH2 0x159 PUSH1 0x4 DUP1 CALLDATASIZE SUB DUP2 ADD SWAP1 PUSH2 0x154 SWAP2 SWAP1 PUSH2 0x196B JUMP JUMPDEST PUSH2 0x556 JUMP JUMPDEST PUSH1 0x40 MLOAD PUSH2 0x168 SWAP4 SWAP3 SWAP2 SWAP1 PUSH2 0x1DF4 JUMP JUMPDEST PUSH1 0x40 MLOAD DUP1 SWAP2 SUB SWAP1 RETURN JUMPDEST PUSH2 0x18B PUSH1 0x4 DUP1 CALLDATASIZE SUB DUP2 ADD SWAP1 PUSH2 0x186 SWAP2 SWAP1 PUSH2 0x196B JUMP JUMPDEST PUSH2 0x622 JUMP JUMPDEST PUSH1 0x40 MLOAD PUSH2 0x19A SWAP4 SWAP3 SWAP2 SWAP1 PUSH2 0x1DF4 JUMP JUMPDEST PUSH1 0x40 MLOAD DUP1 SWAP2 SUB SWAP1 RETURN JUMPDEST PUSH2 0x1BD PUSH1 0x4 DUP1 CALLDATASIZE SUB DUP2 ADD SWAP1 PUSH2 0x1B8 SWAP2 SWAP1 PUSH2 0x196B JUMP JUMPDEST PUSH2 0x6EE JUMP JUMPDEST PUSH1 0x40 MLOAD PUSH2 0x1CD SWAP5 SWAP4 SWAP3 SWAP2 SWAP1 PUSH2 0x1E32 JUMP JUMPDEST PUSH1 0x40 MLOAD DUP1 SWAP2 SUB SWAP1 RETURN JUMPDEST PUSH2 0x1F0 PUSH1 0x4 DUP1 CALLDATASIZE SUB DUP2 ADD SWAP1 PUSH2 0x1EB SWAP2 SWAP1 PUSH2 0x1AD3 JUMP JUMPDEST PUSH2 0x7C0 JUMP JUMPDEST PUSH1 0x40 MLOAD PUSH2 0x1FD SWAP2 SWAP1 PUSH2 0x1EBE JUMP JUMPDEST PUSH1 0x40 MLOAD DUP1 SWAP2 SUB SWAP1 RETURN JUMPDEST PUSH2 0x220 PUSH1 0x4 DUP1 CALLDATASIZE SUB DUP2 ADD SWAP1 PUSH2 0x21B SWAP2 SWAP1 PUSH2 0x196B JUMP JUMPDEST PUSH2 0xDC1 JUMP JUMPDEST PUSH1 0x40 MLOAD PUSH2 0x22F SWAP4 SWAP3 SWAP2 SWAP1 PUSH2 0x1DF4 JUMP JUMPDEST PUSH1 0x40 MLOAD DUP1 SWAP2 SUB SWAP1 RETURN JUMPDEST PUSH2 0x252 PUSH1 0x4 DUP1 CALLDATASIZE SUB DUP2 ADD SWAP1 PUSH2 0x24D SWAP2 SWAP1 PUSH2 0x196B JUMP JUMPDEST PUSH2 0xE8D JUMP JUMPDEST PUSH1 0x40 MLOAD PUSH2 0x261 SWAP4 SWAP3 SWAP2 SWAP1 PUSH2 0x1DF4 JUMP JUMPDEST PUSH1 0x40 MLOAD DUP1 SWAP2 SUB SWAP1 RETURN JUMPDEST PUSH2 0x284 PUSH1 0x4 DUP1 CALLDATASIZE SUB DUP2 ADD SWAP1 PUSH2 0x27F SWAP2 SWAP1 PUSH2 0x1BE3 JUMP JUMPDEST PUSH2 0xF59 JUMP JUMPDEST PUSH1 0x40 MLOAD PUSH2 0x292 SWAP3 SWAP2 SWAP1 PUSH2 0x1F7C JUMP JUMPDEST PUSH1 0x40 MLOAD DUP1 SWAP2 SUB SWAP1 RETURN JUMPDEST PUSH2 0x2A3 PUSH2 0x1015 JUMP JUMPDEST PUSH1 0x40 MLOAD PUSH2 0x2B0 SWAP2 SWAP1 PUSH2 0x1EBE JUMP JUMPDEST PUSH1 0x40 MLOAD DUP1 SWAP2 SUB SWAP1 RETURN JUMPDEST PUSH2 0x2D3 PUSH1 0x4 DUP1 CALLDATASIZE SUB DUP2 ADD SWAP1 PUSH2 0x2CE SWAP2 SWAP1 PUSH2 0x1998 JUMP JUMPDEST PUSH2 0x101B JUMP JUMPDEST STOP JUMPDEST PUSH2 0x2EF PUSH1 0x4 DUP1 CALLDATASIZE SUB DUP2 ADD SWAP1 PUSH2 0x2EA SWAP2 SWAP1 PUSH2 0x196B JUMP JUMPDEST PUSH2 0x1630 JUMP JUMPDEST PUSH1 0x40 MLOAD PUSH2 0x301 SWAP7 SWAP6 SWAP5 SWAP4 SWAP3 SWAP2 SWAP1 PUSH2 0x1D85 JUMP JUMPDEST PUSH1 0x40 MLOAD DUP1 SWAP2 SUB SWAP1 RETURN JUMPDEST PUSH2 0x324 PUSH1 0x4 DUP1 CALLDATASIZE SUB DUP2 ADD SWAP1 PUSH2 0x31F SWAP2 SWAP1 PUSH2 0x196B JUMP JUMPDEST PUSH2 0x17C4 JUMP JUMPDEST PUSH1 0x40 MLOAD PUSH2 0x331 SWAP2 SWAP1 PUSH2 0x1D6A JUMP JUMPDEST PUSH1 0x40 MLOAD DUP1 SWAP2 SUB SWAP1 RETURN JUMPDEST PUSH1 0xD PUSH1 0x20 MSTORE DUP2 PUSH1 0x0 MSTORE PUSH1 0x40 PUSH1 0x0 KECCAK256 PUSH1 0x20 MSTORE DUP1 PUSH1 0x0 MSTORE PUSH1 0x40 PUSH1 0x0 KECCAK256 PUSH1 0x0 SWAP2 POP SWAP2 POP POP DUP1 PUSH1 0x0 ADD SLOAD SWAP1 DUP1 PUSH1 0x1 ADD PUSH1 0x0 SWAP1 SLOAD SWAP1 PUSH2 0x100 EXP SWAP1 DIV PUSH20 0xFFFFFFFFFFFFFFFFFFFFFFFFFFFFFFFFFFFFFFFF AND SWAP1 DUP1 PUSH1 0x1 ADD PUSH1 0x14 SWAP1 SLOAD SWAP1 PUSH2 0x100 EXP SWAP1 DIV PUSH4 0xFFFFFFFF AND SWAP1 DUP1 PUSH1 0x1 ADD PUSH1 0x18 SWAP1 SLOAD SWAP1 PUSH2 0x100 EXP SWAP1 DIV PUSH1 0xFF AND SWAP1 DUP1 PUSH1 0x1 ADD PUSH1 0x19 SWAP1 SLOAD SWAP1 PUSH2 0x100 EXP SWAP1 DIV PUSH1 0xFF AND SWAP1 DUP1 PUSH1 0x2 ADD DUP1 SLOAD PUSH2 0x3D2 SWAP1 PUSH2 0x2141 JUMP JUMPDEST DUP1 PUSH1 0x1F ADD PUSH1 0x20 DUP1 SWAP2 DIV MUL PUSH1 0x20 ADD PUSH1 0x40 MLOAD SWAP1 DUP2 ADD PUSH1 0x40 MSTORE DUP1 SWAP3 SWAP2 SWAP1 DUP2 DUP2 MSTORE PUSH1 0x20 ADD DUP3 DUP1 SLOAD PUSH2 0x3FE SWAP1 PUSH2 0x2141 JUMP JUMPDEST DUP1 ISZERO PUSH2 0x44B JUMPI DUP1 PUSH1 0x1F LT PUSH2 0x420 JUMPI PUSH2 0x100 DUP1 DUP4 SLOAD DIV MUL DUP4 MSTORE SWAP2 PUSH1 0x20 ADD SWAP2 PUSH2 0x44B JUMP JUMPDEST DUP3 ADD SWAP2 SWAP1 PUSH1 0x0 MSTORE PUSH1 0x20 PUSH1 0x0 KECCAK256 SWAP1 JUMPDEST DUP2 SLOAD DUP2 MSTORE SWAP1 PUSH1 0x1 ADD SWAP1 PUSH1 0x20 ADD DUP1 DUP4 GT PUSH2 0x42E JUMPI DUP3 SWAP1 SUB PUSH1 0x1F AND DUP3 ADD SWAP2 JUMPDEST POP POP POP POP POP SWAP1 DUP1 PUSH1 0x3 ADD SLOAD SWAP1 DUP1 PUSH1 0x4 ADD SLOAD SWAP1 DUP1 PUSH1 0x5 ADD PUSH1 0x0 SWAP1 SLOAD SWAP1 PUSH2 0x100 EXP SWAP1 DIV PUSH1 0xFF AND SWAP1 DUP1 PUSH1 0x5 ADD PUSH1 0x1 SWAP1 SLOAD SWAP1 PUSH2 0x100 EXP SWAP1 DIV PUSH4 0xFFFFFFFF AND SWAP1 POP DUP11 JUMP JUMPDEST PUSH1 0x7 PUSH1 0x20 MSTORE DUP1 PUSH1 0x0 MSTORE PUSH1 0x40 PUSH1 0x0 KECCAK256 PUSH1 0x0 SWAP2 POP SWAP1 POP DUP1 PUSH1 0x0 ADD PUSH1 0x0 SWAP1 SLOAD SWAP1 PUSH2 0x100 EXP SWAP1 DIV PUSH1 0xFF AND SWAP1 DUP1 PUSH1 0x1 ADD DUP1 SLOAD PUSH2 0x4C0 SWAP1 PUSH2 0x2141 JUMP JUMPDEST DUP1 PUSH1 0x1F ADD PUSH1 0x20 DUP1 SWAP2 DIV MUL PUSH1 0x20 ADD PUSH1 0x40 MLOAD SWAP1 DUP2 ADD PUSH1 0x40 MSTORE DUP1 SWAP3 SWAP2 SWAP1 DUP2 DUP2 MSTORE PUSH1 0x20 ADD DUP3 DUP1 SLOAD PUSH2 0x4EC SWAP1 PUSH2 0x2141 JUMP JUMPDEST DUP1 ISZERO PUSH2 0x539 JUMPI DUP1 PUSH1 0x1F LT PUSH2 0x50E JUMPI PUSH2 0x100 DUP1 DUP4 SLOAD DIV MUL DUP4 MSTORE SWAP2 PUSH1 0x20 ADD SWAP2 PUSH2 0x539 JUMP JUMPDEST DUP3 ADD SWAP2 SWAP1 PUSH1 0x0 MSTORE PUSH1 0x20 PUSH1 0x0 KECCAK256 SWAP1 JUMPDEST DUP2 SLOAD DUP2 MSTORE SWAP1 PUSH1 0x1 ADD SWAP1 PUSH1 0x20 ADD DUP1 DUP4 GT PUSH2 0x51C JUMPI DUP3 SWAP1 SUB PUSH1 0x1F AND DUP3 ADD SWAP2 JUMPDEST POP POP POP POP POP SWAP1 DUP1 PUSH1 0x2 ADD PUSH1 0x0 SWAP1 SLOAD SWAP1 PUSH2 0x100 EXP SWAP1 DIV PUSH1 0xFF AND SWAP1 POP DUP4 JUMP JUMPDEST PUSH1 0x4 PUSH1 0x20 MSTORE DUP1 PUSH1 0x0 MSTORE PUSH1 0x40 PUSH1 0x0 KECCAK256 PUSH1 0x0 SWAP2 POP SWAP1 POP DUP1 PUSH1 0x0 ADD PUSH1 0x0 SWAP1 SLOAD SWAP1 PUSH2 0x100 EXP SWAP1 DIV PUSH1 0xFF AND SWAP1 DUP1 PUSH1 0x1 ADD DUP1 SLOAD PUSH2 0x58C SWAP1 PUSH2 0x2141 JUMP JUMPDEST DUP1 PUSH1 0x1F ADD PUSH1 0x20 DUP1 SWAP2 DIV MUL PUSH1 0x20 ADD PUSH1 0x40 MLOAD SWAP1 DUP2 ADD PUSH1 0x40 MSTORE DUP1 SWAP3 SWAP2 SWAP1 DUP2 DUP2 MSTORE PUSH1 0x20 ADD DUP3 DUP1 SLOAD PUSH2 0x5B8 SWAP1 PUSH2 0x2141 JUMP JUMPDEST DUP1 ISZERO PUSH2 0x605 JUMPI DUP1 PUSH1 0x1F LT PUSH2 0x5DA JUMPI PUSH2 0x100 DUP1 DUP4 SLOAD DIV MUL DUP4 MSTORE SWAP2 PUSH1 0x20 ADD SWAP2 PUSH2 0x605 JUMP JUMPDEST DUP3 ADD SWAP2 SWAP1 PUSH1 0x0 MSTORE PUSH1 0x20 PUSH1 0x0 KECCAK256 SWAP1 JUMPDEST DUP2 SLOAD DUP2 MSTORE SWAP1 PUSH1 0x1 ADD SWAP1 PUSH1 0x20 ADD DUP1 DUP4 GT PUSH2 0x5E8 JUMPI DUP3 SWAP1 SUB PUSH1 0x1F AND DUP3 ADD SWAP2 JUMPDEST POP POP POP POP POP SWAP1 DUP1 PUSH1 0x2 ADD PUSH1 0x0 SWAP1 SLOAD SWAP1 PUSH2 0x100 EXP SWAP1 DIV PUSH1 0xFF AND SWAP1 POP DUP4 JUMP JUMPDEST PUSH1 0xA PUSH1 0x20 MSTORE DUP1 PUSH1 0x0 MSTORE PUSH1 0x40 PUSH1 0x0 KECCAK256 PUSH1 0x0 SWAP2 POP SWAP1 POP DUP1 PUSH1 0x0 ADD PUSH1 0x0 SWAP1 SLOAD SWAP1 PUSH2 0x100 EXP SWAP1 DIV PUSH1 0xFF AND SWAP1 DUP1 PUSH1 0x1 ADD DUP1 SLOAD PUSH2 0x658 SWAP1 PUSH2 0x2141 JUMP JUMPDEST DUP1 PUSH1 0x1F ADD PUSH1 0x20 DUP1 SWAP2 DIV MUL PUSH1 0x20 ADD PUSH1 0x40 MLOAD SWAP1 DUP2 ADD PUSH1 0x40 MSTORE DUP1 SWAP3 SWAP2 SWAP1 DUP2 DUP2 MSTORE PUSH1 0x20 ADD DUP3 DUP1 SLOAD PUSH2 0x684 SWAP1 PUSH2 0x2141 JUMP JUMPDEST DUP1 ISZERO PUSH2 0x6D1 JUMPI DUP1 PUSH1 0x1F LT PUSH2 0x6A6 JUMPI PUSH2 0x100 DUP1 DUP4 SLOAD DIV MUL DUP4 MSTORE SWAP2 PUSH1 0x20 ADD SWAP2 PUSH2 0x6D1 JUMP JUMPDEST DUP3 ADD SWAP2 SWAP1 PUSH1 0x0 MSTORE PUSH1 0x20 PUSH1 0x0 KECCAK256 SWAP1 JUMPDEST DUP2 SLOAD DUP2 MSTORE SWAP1 PUSH1 0x1 ADD SWAP1 PUSH1 0x20 ADD DUP1 DUP4 GT PUSH2 0x6B4 JUMPI DUP3 SWAP1 SUB PUSH1 0x1F AND DUP3 ADD SWAP2 JUMPDEST POP POP POP POP POP SWAP1 DUP1 PUSH1 0x2 ADD PUSH1 0x0 SWAP1 SLOAD SWAP1 PUSH2 0x100 EXP SWAP1 DIV PUSH1 0xFF AND SWAP1 POP DUP4 JUMP JUMPDEST PUSH1 0x6 PUSH1 0x20 MSTORE DUP1 PUSH1 0x0 MSTORE PUSH1 0x40 PUSH1 0x0 KECCAK256 PUSH1 0x0 SWAP2 POP SWAP1 POP DUP1 PUSH1 0x0 ADD PUSH1 0x0 SWAP1 SLOAD SWAP1 PUSH2 0x100 EXP SWAP1 DIV PUSH1 0xFF AND SWAP1 DUP1 PUSH1 0x0 ADD PUSH1 0x1 SWAP1 SLOAD SWAP1 PUSH2 0x100 EXP SWAP1 DIV PUSH1 0xFF AND SWAP1 DUP1 PUSH1 0x1 ADD SLOAD SWAP1 DUP1 PUSH1 0x2 ADD DUP1 SLOAD PUSH2 0x73D SWAP1 PUSH2 0x2141 JUMP JUMPDEST DUP1 PUSH1 0x1F ADD PUSH1 0x20 DUP1 SWAP2 DIV MUL PUSH1 0x20 ADD PUSH1 0x40 MLOAD SWAP1 DUP2 ADD PUSH1 0x40 MSTORE DUP1 SWAP3 SWAP2 SWAP1 DUP2 DUP2 MSTORE PUSH1 0x20 ADD DUP3 DUP1 SLOAD PUSH2 0x769 SWAP1 PUSH2 0x2141 JUMP JUMPDEST DUP1 ISZERO PUSH2 0x7B6 JUMPI DUP1 PUSH1 0x1F LT PUSH2 0x78B JUMPI PUSH2 0x100 DUP1 DUP4 SLOAD DIV MUL DUP4 MSTORE SWAP2 PUSH1 0x20 ADD SWAP2 PUSH2 0x7B6 JUMP JUMPDEST DUP3 ADD SWAP2 SWAP1 PUSH1 0x0 MSTORE PUSH1 0x20 PUSH1 0x0 KECCAK256 SWAP1 JUMPDEST DUP2 SLOAD DUP2 MSTORE SWAP1 PUSH1 0x1 ADD SWAP1 PUSH1 0x20 ADD DUP1 DUP4 GT PUSH2 0x799 JUMPI DUP3 SWAP1 SUB PUSH1 0x1F AND DUP3 ADD SWAP2 JUMPDEST POP POP POP POP POP SWAP1 POP DUP5 JUMP JUMPDEST PUSH1 0x0 PUSH1 0x4 PUSH1 0x0 CALLER PUSH20 0xFFFFFFFFFFFFFFFFFFFFFFFFFFFFFFFFFFFFFFFF AND PUSH20 0xFFFFFFFFFFFFFFFFFFFFFFFFFFFFFFFFFFFFFFFF AND DUP2 MSTORE PUSH1 0x20 ADD SWAP1 DUP2 MSTORE PUSH1 0x20 ADD PUSH1 0x0 KECCAK256 PUSH1 0x0 ADD PUSH1 0x0 SWAP1 SLOAD SWAP1 PUSH2 0x100 EXP SWAP1 DIV PUSH1 0xFF AND DUP1 PUSH2 0x869 JUMPI POP PUSH1 0x6 PUSH1 0x0 CALLER PUSH20 0xFFFFFFFFFFFFFFFFFFFFFFFFFFFFFFFFFFFFFFFF AND PUSH20 0xFFFFFFFFFFFFFFFFFFFFFFFFFFFFFFFFFFFFFFFF AND DUP2 MSTORE PUSH1 0x20 ADD SWAP1 DUP2 MSTORE PUSH1 0x20 ADD PUSH1 0x0 KECCAK256 PUSH1 0x0 ADD PUSH1 0x0 SWAP1 SLOAD SWAP1 PUSH2 0x100 EXP SWAP1 DIV PUSH1 0xFF AND JUMPDEST DUP1 PUSH2 0x8C0 JUMPI POP PUSH1 0x8 PUSH1 0x0 CALLER PUSH20 0xFFFFFFFFFFFFFFFFFFFFFFFFFFFFFFFFFFFFFFFF AND PUSH20 0xFFFFFFFFFFFFFFFFFFFFFFFFFFFFFFFFFFFFFFFF AND DUP2 MSTORE PUSH1 0x20 ADD SWAP1 DUP2 MSTORE PUSH1 0x20 ADD PUSH1 0x0 KECCAK256 PUSH1 0x0 ADD PUSH1 0x0 SWAP1 SLOAD SWAP1 PUSH2 0x100 EXP SWAP1 DIV PUSH1 0xFF AND JUMPDEST PUSH2 0x8FF JUMPI PUSH1 0x40 MLOAD PUSH32 0x8C379A000000000000000000000000000000000000000000000000000000000 DUP2 MSTORE PUSH1 0x4 ADD PUSH2 0x8F6 SWAP1 PUSH2 0x1E9E JUMP JUMPDEST PUSH1 0x40 MLOAD DUP1 SWAP2 SUB SWAP1 REVERT JUMPDEST PUSH1 0x3 PUSH1 0x0 DUP14 PUSH20 0xFFFFFFFFFFFFFFFFFFFFFFFFFFFFFFFFFFFFFFFF AND PUSH20 0xFFFFFFFFFFFFFFFFFFFFFFFFFFFFFFFFFFFFFFFF AND DUP2 MSTORE PUSH1 0x20 ADD SWAP1 DUP2 MSTORE PUSH1 0x20 ADD PUSH1 0x0 KECCAK256 PUSH1 0x0 ADD PUSH1 0x0 SWAP1 SLOAD SWAP1 PUSH2 0x100 EXP SWAP1 DIV PUSH1 0xFF AND PUSH2 0x98E JUMPI PUSH1 0x40 MLOAD PUSH32 0x8C379A000000000000000000000000000000000000000000000000000000000 DUP2 MSTORE PUSH1 0x4 ADD PUSH2 0x985 SWAP1 PUSH2 0x1E7E JUMP JUMPDEST PUSH1 0x40 MLOAD DUP1 SWAP2 SUB SWAP1 REVERT JUMPDEST DUP10 PUSH1 0xD PUSH1 0x0 DUP15 PUSH20 0xFFFFFFFFFFFFFFFFFFFFFFFFFFFFFFFFFFFFFFFF AND PUSH20 0xFFFFFFFFFFFFFFFFFFFFFFFFFFFFFFFFFFFFFFFF AND DUP2 MSTORE PUSH1 0x20 ADD SWAP1 DUP2 MSTORE PUSH1 0x20 ADD PUSH1 0x0 KECCAK256 PUSH1 0x0 DUP14 DUP2 MSTORE PUSH1 0x20 ADD SWAP1 DUP2 MSTORE PUSH1 0x20 ADD PUSH1 0x0 KECCAK256 PUSH1 0x1 ADD PUSH1 0x0 PUSH2 0x100 EXP DUP2 SLOAD DUP2 PUSH20 0xFFFFFFFFFFFFFFFFFFFFFFFFFFFFFFFFFFFFFFFF MUL NOT AND SWAP1 DUP4 PUSH20 0xFFFFFFFFFFFFFFFFFFFFFFFFFFFFFFFFFFFFFFFF AND MUL OR SWAP1 SSTORE POP DUP9 PUSH1 0xD PUSH1 0x0 DUP15 PUSH20 0xFFFFFFFFFFFFFFFFFFFFFFFFFFFFFFFFFFFFFFFF AND PUSH20 0xFFFFFFFFFFFFFFFFFFFFFFFFFFFFFFFFFFFFFFFF AND DUP2 MSTORE PUSH1 0x20 ADD SWAP1 DUP2 MSTORE PUSH1 0x20 ADD PUSH1 0x0 KECCAK256 PUSH1 0x0 DUP14 DUP2 MSTORE PUSH1 0x20 ADD SWAP1 DUP2 MSTORE PUSH1 0x20 ADD PUSH1 0x0 KECCAK256 PUSH1 0x1 ADD PUSH1 0x14 PUSH2 0x100 EXP DUP2 SLOAD DUP2 PUSH4 0xFFFFFFFF MUL NOT AND SWAP1 DUP4 PUSH4 0xFFFFFFFF AND MUL OR SWAP1 SSTORE POP DUP8 PUSH1 0xD PUSH1 0x0 DUP15 PUSH20 0xFFFFFFFFFFFFFFFFFFFFFFFFFFFFFFFFFFFFFFFF AND PUSH20 0xFFFFFFFFFFFFFFFFFFFFFFFFFFFFFFFFFFFFFFFF AND DUP2 MSTORE PUSH1 0x20 ADD SWAP1 DUP2 MSTORE PUSH1 0x20 ADD PUSH1 0x0 KECCAK256 PUSH1 0x0 DUP14 DUP2 MSTORE PUSH1 0x20 ADD SWAP1 DUP2 MSTORE PUSH1 0x20 ADD PUSH1 0x0 KECCAK256 PUSH1 0x1 ADD PUSH1 0x18 PUSH2 0x100 EXP DUP2 SLOAD DUP2 PUSH1 0xFF MUL NOT AND SWAP1 DUP4 PUSH1 0xFF AND MUL OR SWAP1 SSTORE POP DUP7 PUSH1 0xD PUSH1 0x0 DUP15 PUSH20 0xFFFFFFFFFFFFFFFFFFFFFFFFFFFFFFFFFFFFFFFF AND PUSH20 0xFFFFFFFFFFFFFFFFFFFFFFFFFFFFFFFFFFFFFFFF AND DUP2 MSTORE PUSH1 0x20 ADD SWAP1 DUP2 MSTORE PUSH1 0x20 ADD PUSH1 0x0 KECCAK256 PUSH1 0x0 DUP14 DUP2 MSTORE PUSH1 0x20 ADD SWAP1 DUP2 MSTORE PUSH1 0x20 ADD PUSH1 0x0 KECCAK256 PUSH1 0x1 ADD PUSH1 0x19 PUSH2 0x100 EXP DUP2 SLOAD DUP2 PUSH1 0xFF MUL NOT AND SWAP1 DUP4 PUSH1 0x2 DUP2 GT ISZERO PUSH2 0xB74 JUMPI PUSH2 0xB73 PUSH2 0x221C JUMP JUMPDEST JUMPDEST MUL OR SWAP1 SSTORE POP DUP6 PUSH1 0xD PUSH1 0x0 DUP15 PUSH20 0xFFFFFFFFFFFFFFFFFFFFFFFFFFFFFFFFFFFFFFFF AND PUSH20 0xFFFFFFFFFFFFFFFFFFFFFFFFFFFFFFFFFFFFFFFF AND DUP2 MSTORE PUSH1 0x20 ADD SWAP1 DUP2 MSTORE PUSH1 0x20 ADD PUSH1 0x0 KECCAK256 PUSH1 0x0 DUP14 DUP2 MSTORE PUSH1 0x20 ADD SWAP1 DUP2 MSTORE PUSH1 0x20 ADD PUSH1 0x0 KECCAK256 PUSH1 0x2 ADD SWAP1 DUP1 MLOAD SWAP1 PUSH1 0x20 ADD SWAP1 PUSH2 0xBE0 SWAP3 SWAP2 SWAP1 PUSH2 0x17EF JUMP JUMPDEST POP DUP5 PUSH1 0xD PUSH1 0x0 DUP15 PUSH20 0xFFFFFFFFFFFFFFFFFFFFFFFFFFFFFFFFFFFFFFFF AND PUSH20 0xFFFFFFFFFFFFFFFFFFFFFFFFFFFFFFFFFFFFFFFF AND DUP2 MSTORE PUSH1 0x20 ADD SWAP1 DUP2 MSTORE PUSH1 0x20 ADD PUSH1 0x0 KECCAK256 PUSH1 0x0 DUP14 DUP2 MSTORE PUSH1 0x20 ADD SWAP1 DUP2 MSTORE PUSH1 0x20 ADD PUSH1 0x0 KECCAK256 PUSH1 0x3 ADD DUP2 SWAP1 SSTORE POP DUP4 PUSH1 0xD PUSH1 0x0 DUP15 PUSH20 0xFFFFFFFFFFFFFFFFFFFFFFFFFFFFFFFFFFFFFFFF AND PUSH20 0xFFFFFFFFFFFFFFFFFFFFFFFFFFFFFFFFFFFFFFFF AND DUP2 MSTORE PUSH1 0x20 ADD SWAP1 DUP2 MSTORE PUSH1 0x20 ADD PUSH1 0x0 KECCAK256 PUSH1 0x0 DUP14 DUP2 MSTORE PUSH1 0x20 ADD SWAP1 DUP2 MSTORE PUSH1 0x20 ADD PUSH1 0x0 KECCAK256 PUSH1 0x4 ADD DUP2 SWAP1 SSTORE POP DUP3 PUSH1 0xD PUSH1 0x0 DUP15 PUSH20 0xFFFFFFFFFFFFFFFFFFFFFFFFFFFFFFFFFFFFFFFF AND PUSH20 0xFFFFFFFFFFFFFFFFFFFFFFFFFFFFFFFFFFFFFFFF AND DUP2 MSTORE PUSH1 0x20 ADD SWAP1 DUP2 MSTORE PUSH1 0x20 ADD PUSH1 0x0 KECCAK256 PUSH1 0x0 DUP14 DUP2 MSTORE PUSH1 0x20 ADD SWAP1 DUP2 MSTORE PUSH1 0x20 ADD PUSH1 0x0 KECCAK256 PUSH1 0x5 ADD PUSH1 0x0 PUSH2 0x100 EXP DUP2 SLOAD DUP2 PUSH1 0xFF MUL NOT AND SWAP1 DUP4 PUSH1 0xFF AND MUL OR SWAP1 SSTORE POP DUP8 PUSH1 0xFF AND PUSH1 0xD PUSH1 0x0 DUP15 PUSH20 0xFFFFFFFFFFFFFFFFFFFFFFFFFFFFFFFFFFFFFFFF AND PUSH20 0xFFFFFFFFFFFFFFFFFFFFFFFFFFFFFFFFFFFFFFFF AND DUP2 MSTORE PUSH1 0x20 ADD SWAP1 DUP2 MSTORE PUSH1 0x20 ADD PUSH1 0x0 KECCAK256 PUSH1 0x0 DUP14 DUP2 MSTORE PUSH1 0x20 ADD SWAP1 DUP2 MSTORE PUSH1 0x20 ADD PUSH1 0x0 KECCAK256 PUSH1 0x5 ADD PUSH1 0x1 PUSH2 0x100 EXP DUP2 SLOAD DUP2 PUSH4 0xFFFFFFFF MUL NOT AND SWAP1 DUP4 PUSH4 0xFFFFFFFF AND MUL OR SWAP1 SSTORE POP PUSH32 0x97A8618B4C3E1BBEF6226B887AE721D63D275F7A7D596BA44E9EF2FB1309CCE0 DUP13 DUP12 DUP12 DUP12 PUSH1 0x40 MLOAD PUSH2 0xDA7 SWAP5 SWAP4 SWAP3 SWAP2 SWAP1 PUSH2 0x1D25 JUMP JUMPDEST PUSH1 0x40 MLOAD DUP1 SWAP2 SUB SWAP1 LOG1 DUP11 SWAP1 POP SWAP12 SWAP11 POP POP POP POP POP POP POP POP POP POP POP JUMP JUMPDEST PUSH1 0x8 PUSH1 0x20 MSTORE DUP1 PUSH1 0x0 MSTORE PUSH1 0x40 PUSH1 0x0 KECCAK256 PUSH1 0x0 SWAP2 POP SWAP1 POP DUP1 PUSH1 0x0 ADD PUSH1 0x0 SWAP1 SLOAD SWAP1 PUSH2 0x100 EXP SWAP1 DIV PUSH1 0xFF AND SWAP1 DUP1 PUSH1 0x1 ADD DUP1 SLOAD PUSH2 0xDF7 SWAP1 PUSH2 0x2141 JUMP JUMPDEST DUP1 PUSH1 0x1F ADD PUSH1 0x20 DUP1 SWAP2 DIV MUL PUSH1 0x20 ADD PUSH1 0x40 MLOAD SWAP1 DUP2 ADD PUSH1 0x40 MSTORE DUP1 SWAP3 SWAP2 SWAP1 DUP2 DUP2 MSTORE PUSH1 0x20 ADD DUP3 DUP1 SLOAD PUSH2 0xE23 SWAP1 PUSH2 0x2141 JUMP JUMPDEST DUP1 ISZERO PUSH2 0xE70 JUMPI DUP1 PUSH1 0x1F LT PUSH2 0xE45 JUMPI PUSH2 0x100 DUP1 DUP4 SLOAD DIV MUL DUP4 MSTORE SWAP2 PUSH1 0x20 ADD SWAP2 PUSH2 0xE70 JUMP JUMPDEST DUP3 ADD SWAP2 SWAP1 PUSH1 0x0 MSTORE PUSH1 0x20 PUSH1 0x0 KECCAK256 SWAP1 JUMPDEST DUP2 SLOAD DUP2 MSTORE SWAP1 PUSH1 0x1 ADD SWAP1 PUSH1 0x20 ADD DUP1 DUP4 GT PUSH2 0xE53 JUMPI DUP3 SWAP1 SUB PUSH1 0x1F AND DUP3 ADD SWAP2 JUMPDEST POP POP POP POP POP SWAP1 DUP1 PUSH1 0x2 ADD PUSH1 0x0 SWAP1 SLOAD SWAP1 PUSH2 0x100 EXP SWAP1 DIV PUSH1 0xFF AND SWAP1 POP DUP4 JUMP JUMPDEST PUSH1 0x9 PUSH1 0x20 MSTORE DUP1 PUSH1 0x0 MSTORE PUSH1 0x40 PUSH1 0x0 KECCAK256 PUSH1 0x0 SWAP2 POP SWAP1 POP DUP1 PUSH1 0x0 ADD PUSH1 0x0 SWAP1 SLOAD SWAP1 PUSH2 0x100 EXP SWAP1 DIV PUSH1 0xFF AND SWAP1 DUP1 PUSH1 0x1 ADD DUP1 SLOAD PUSH2 0xEC3 SWAP1 PUSH2 0x2141 JUMP JUMPDEST DUP1 PUSH1 0x1F ADD PUSH1 0x20 DUP1 SWAP2 DIV MUL PUSH1 0x20 ADD PUSH1 0x40 MLOAD SWAP1 DUP2 ADD PUSH1 0x40 MSTORE DUP1 SWAP3 SWAP2 SWAP1 DUP2 DUP2 MSTORE PUSH1 0x20 ADD DUP3 DUP1 SLOAD PUSH2 0xEEF SWAP1 PUSH2 0x2141 JUMP JUMPDEST DUP1 ISZERO PUSH2 0xF3C JUMPI DUP1 PUSH1 0x1F LT PUSH2 0xF11 JUMPI PUSH2 0x100 DUP1 DUP4 SLOAD DIV MUL DUP4 MSTORE SWAP2 PUSH1 0x20 ADD SWAP2 PUSH2 0xF3C JUMP JUMPDEST DUP3 ADD SWAP2 SWAP1 PUSH1 0x0 MSTORE PUSH1 0x20 PUSH1 0x0 KECCAK256 SWAP1 JUMPDEST DUP2 SLOAD DUP2 MSTORE SWAP1 PUSH1 0x1 ADD SWAP1 PUSH1 0x20 ADD DUP1 DUP4 GT PUSH2 0xF1F JUMPI DUP3 SWAP1 SUB PUSH1 0x1F AND DUP3 ADD SWAP2 JUMPDEST POP POP POP POP POP SWAP1 DUP1 PUSH1 0x2 ADD PUSH1 0x0 SWAP1 SLOAD SWAP1 PUSH2 0x100 EXP SWAP1 DIV PUSH1 0xFF AND SWAP1 POP DUP4 JUMP JUMPDEST PUSH1 0xB PUSH1 0x20 MSTORE DUP1 PUSH1 0x0 MSTORE PUSH1 0x40 PUSH1 0x0 KECCAK256 PUSH1 0x0 SWAP2 POP SWAP1 POP DUP1 PUSH1 0x0 ADD PUSH1 0x0 SWAP1 SLOAD SWAP1 PUSH2 0x100 EXP SWAP1 DIV PUSH4 0xFFFFFFFF AND SWAP1 DUP1 PUSH1 0x1 ADD DUP1 SLOAD PUSH2 0xF92 SWAP1 PUSH2 0x2141 JUMP JUMPDEST DUP1 PUSH1 0x1F ADD PUSH1 0x20 DUP1 SWAP2 DIV MUL PUSH1 0x20 ADD PUSH1 0x40 MLOAD SWAP1 DUP2 ADD PUSH1 0x40 MSTORE DUP1 SWAP3 SWAP2 SWAP1 DUP2 DUP2 MSTORE PUSH1 0x20 ADD DUP3 DUP1 SLOAD PUSH2 0xFBE SWAP1 PUSH2 0x2141 JUMP JUMPDEST DUP1 ISZERO PUSH2 0x100B JUMPI DUP1 PUSH1 0x1F LT PUSH2 0xFE0 JUMPI PUSH2 0x100 DUP1 DUP4 SLOAD DIV MUL DUP4 MSTORE SWAP2 PUSH1 0x20 ADD SWAP2 PUSH2 0x100B JUMP JUMPDEST DUP3 ADD SWAP2 SWAP1 PUSH1 0x0 MSTORE PUSH1 0x20 PUSH1 0x0 KECCAK256 SWAP1 JUMPDEST DUP2 SLOAD DUP2 MSTORE SWAP1 PUSH1 0x1 ADD SWAP1 PUSH1 0x20 ADD DUP1 DUP4 GT PUSH2 0xFEE JUMPI DUP3 SWAP1 SUB PUSH1 0x1F AND DUP3 ADD SWAP2 JUMPDEST POP POP POP POP POP SWAP1 POP DUP3 JUMP JUMPDEST PUSH1 0xC SLOAD DUP2 JUMP JUMPDEST PUSH1 0x4 PUSH1 0x0 CALLER PUSH20 0xFFFFFFFFFFFFFFFFFFFFFFFFFFFFFFFFFFFFFFFF AND PUSH20 0xFFFFFFFFFFFFFFFFFFFFFFFFFFFFFFFFFFFFFFFF AND DUP2 MSTORE PUSH1 0x20 ADD SWAP1 DUP2 MSTORE PUSH1 0x20 ADD PUSH1 0x0 KECCAK256 PUSH1 0x0 ADD PUSH1 0x0 SWAP1 SLOAD SWAP1 PUSH2 0x100 EXP SWAP1 DIV PUSH1 0xFF AND DUP1 PUSH2 0x10C2 JUMPI POP PUSH1 0x6 PUSH1 0x0 CALLER PUSH20 0xFFFFFFFFFFFFFFFFFFFFFFFFFFFFFFFFFFFFFFFF AND PUSH20 0xFFFFFFFFFFFFFFFFFFFFFFFFFFFFFFFFFFFFFFFF AND DUP2 MSTORE PUSH1 0x20 ADD SWAP1 DUP2 MSTORE PUSH1 0x20 ADD PUSH1 0x0 KECCAK256 PUSH1 0x0 ADD PUSH1 0x0 SWAP1 SLOAD SWAP1 PUSH2 0x100 EXP SWAP1 DIV PUSH1 0xFF AND JUMPDEST DUP1 PUSH2 0x1119 JUMPI POP PUSH1 0x8 PUSH1 0x0 CALLER PUSH20 0xFFFFFFFFFFFFFFFFFFFFFFFFFFFFFFFFFFFFFFFF AND PUSH20 0xFFFFFFFFFFFFFFFFFFFFFFFFFFFFFFFFFFFFFFFF AND DUP2 MSTORE PUSH1 0x20 ADD SWAP1 DUP2 MSTORE PUSH1 0x20 ADD PUSH1 0x0 KECCAK256 PUSH1 0x0 ADD PUSH1 0x0 SWAP1 SLOAD SWAP1 PUSH2 0x100 EXP SWAP1 DIV PUSH1 0xFF AND JUMPDEST PUSH2 0x1158 JUMPI PUSH1 0x40 MLOAD PUSH32 0x8C379A000000000000000000000000000000000000000000000000000000000 DUP2 MSTORE PUSH1 0x4 ADD PUSH2 0x114F SWAP1 PUSH2 0x1E9E JUMP JUMPDEST PUSH1 0x40 MLOAD DUP1 SWAP2 SUB SWAP1 REVERT JUMPDEST PUSH1 0x3 PUSH1 0x0 DUP12 PUSH20 0xFFFFFFFFFFFFFFFFFFFFFFFFFFFFFFFFFFFFFFFF AND PUSH20 0xFFFFFFFFFFFFFFFFFFFFFFFFFFFFFFFFFFFFFFFF AND DUP2 MSTORE PUSH1 0x20 ADD SWAP1 DUP2 MSTORE PUSH1 0x20 ADD PUSH1 0x0 KECCAK256 PUSH1 0x0 ADD PUSH1 0x0 SWAP1 SLOAD SWAP1 PUSH2 0x100 EXP SWAP1 DIV PUSH1 0xFF AND PUSH2 0x11E7 JUMPI PUSH1 0x40 MLOAD PUSH32 0x8C379A000000000000000000000000000000000000000000000000000000000 DUP2 MSTORE PUSH1 0x4 ADD PUSH2 0x11DE SWAP1 PUSH2 0x1E7E JUMP JUMPDEST PUSH1 0x40 MLOAD DUP1 SWAP2 SUB SWAP1 REVERT JUMPDEST PUSH1 0x0 PUSH1 0xC PUSH1 0x0 DUP2 SLOAD DUP1 SWAP3 SWAP2 SWAP1 PUSH2 0x11FC SWAP1 PUSH2 0x21A4 JUMP JUMPDEST SWAP2 SWAP1 POP SSTORE SWAP1 POP DUP10 PUSH1 0xD PUSH1 0x0 DUP14 PUSH20 0xFFFFFFFFFFFFFFFFFFFFFFFFFFFFFFFFFFFFFFFF AND PUSH20 0xFFFFFFFFFFFFFFFFFFFFFFFFFFFFFFFFFFFFFFFF AND DUP2 MSTORE PUSH1 0x20 ADD SWAP1 DUP2 MSTORE PUSH1 0x20 ADD PUSH1 0x0 KECCAK256 PUSH1 0x0 DUP4 DUP2 MSTORE PUSH1 0x20 ADD SWAP1 DUP2 MSTORE PUSH1 0x20 ADD PUSH1 0x0 KECCAK256 PUSH1 0x1 ADD PUSH1 0x0 PUSH2 0x100 EXP DUP2 SLOAD DUP2 PUSH20 0xFFFFFFFFFFFFFFFFFFFFFFFFFFFFFFFFFFFFFFFF MUL NOT AND SWAP1 DUP4 PUSH20 0xFFFFFFFFFFFFFFFFFFFFFFFFFFFFFFFFFFFFFFFF AND MUL OR SWAP1 SSTORE POP DUP9 PUSH1 0xD PUSH1 0x0 DUP14 PUSH20 0xFFFFFFFFFFFFFFFFFFFFFFFFFFFFFFFFFFFFFFFF AND PUSH20 0xFFFFFFFFFFFFFFFFFFFFFFFFFFFFFFFFFFFFFFFF AND DUP2 MSTORE PUSH1 0x20 ADD SWAP1 DUP2 MSTORE PUSH1 0x20 ADD PUSH1 0x0 KECCAK256 PUSH1 0x0 DUP4 DUP2 MSTORE PUSH1 0x20 ADD SWAP1 DUP2 MSTORE PUSH1 0x20 ADD PUSH1 0x0 KECCAK256 PUSH1 0x1 ADD PUSH1 0x14 PUSH2 0x100 EXP DUP2 SLOAD DUP2 PUSH4 0xFFFFFFFF MUL NOT AND SWAP1 DUP4 PUSH4 0xFFFFFFFF AND MUL OR SWAP1 SSTORE POP DUP8 PUSH1 0xD PUSH1 0x0 DUP14 PUSH20 0xFFFFFFFFFFFFFFFFFFFFFFFFFFFFFFFFFFFFFFFF AND PUSH20 0xFFFFFFFFFFFFFFFFFFFFFFFFFFFFFFFFFFFFFFFF AND DUP2 MSTORE PUSH1 0x20 ADD SWAP1 DUP2 MSTORE PUSH1 0x20 ADD PUSH1 0x0 KECCAK256 PUSH1 0x0 DUP4 DUP2 MSTORE PUSH1 0x20 ADD SWAP1 DUP2 MSTORE PUSH1 0x20 ADD PUSH1 0x0 KECCAK256 PUSH1 0x1 ADD PUSH1 0x18 PUSH2 0x100 EXP DUP2 SLOAD DUP2 PUSH1 0xFF MUL NOT AND SWAP1 DUP4 PUSH1 0xFF AND MUL OR SWAP1 SSTORE POP DUP7 PUSH1 0xD PUSH1 0x0 DUP14 PUSH20 0xFFFFFFFFFFFFFFFFFFFFFFFFFFFFFFFFFFFFFFFF AND PUSH20 0xFFFFFFFFFFFFFFFFFFFFFFFFFFFFFFFFFFFFFFFF AND DUP2 MSTORE PUSH1 0x20 ADD SWAP1 DUP2 MSTORE PUSH1 0x20 ADD PUSH1 0x0 KECCAK256 PUSH1 0x0 DUP4 DUP2 MSTORE PUSH1 0x20 ADD SWAP1 DUP2 MSTORE PUSH1 0x20 ADD PUSH1 0x0 KECCAK256 PUSH1 0x1 ADD PUSH1 0x19 PUSH2 0x100 EXP DUP2 SLOAD DUP2 PUSH1 0xFF MUL NOT AND SWAP1 DUP4 PUSH1 0x2 DUP2 GT ISZERO PUSH2 0x13E8 JUMPI PUSH2 0x13E7 PUSH2 0x221C JUMP JUMPDEST JUMPDEST MUL OR SWAP1 SSTORE POP DUP6 PUSH1 0xD PUSH1 0x0 DUP14 PUSH20 0xFFFFFFFFFFFFFFFFFFFFFFFFFFFFFFFFFFFFFFFF AND PUSH20 0xFFFFFFFFFFFFFFFFFFFFFFFFFFFFFFFFFFFFFFFF AND DUP2 MSTORE PUSH1 0x20 ADD SWAP1 DUP2 MSTORE PUSH1 0x20 ADD PUSH1 0x0 KECCAK256 PUSH1 0x0 DUP4 DUP2 MSTORE PUSH1 0x20 ADD SWAP1 DUP2 MSTORE PUSH1 0x20 ADD PUSH1 0x0 KECCAK256 PUSH1 0x2 ADD SWAP1 DUP1 MLOAD SWAP1 PUSH1 0x20 ADD SWAP1 PUSH2 0x1454 SWAP3 SWAP2 SWAP1 PUSH2 0x17EF JUMP JUMPDEST POP DUP5 PUSH1 0xD PUSH1 0x0 DUP14 PUSH20 0xFFFFFFFFFFFFFFFFFFFFFFFFFFFFFFFFFFFFFFFF AND PUSH20 0xFFFFFFFFFFFFFFFFFFFFFFFFFFFFFFFFFFFFFFFF AND DUP2 MSTORE PUSH1 0x20 ADD SWAP1 DUP2 MSTORE PUSH1 0x20 ADD PUSH1 0x0 KECCAK256 PUSH1 0x0 DUP4 DUP2 MSTORE PUSH1 0x20 ADD SWAP1 DUP2 MSTORE PUSH1 0x20 ADD PUSH1 0x0 KECCAK256 PUSH1 0x3 ADD DUP2 SWAP1 SSTORE POP DUP4 PUSH1 0xD PUSH1 0x0 DUP14 PUSH20 0xFFFFFFFFFFFFFFFFFFFFFFFFFFFFFFFFFFFFFFFF AND PUSH20 0xFFFFFFFFFFFFFFFFFFFFFFFFFFFFFFFFFFFFFFFF AND DUP2 MSTORE PUSH1 0x20 ADD SWAP1 DUP2 MSTORE PUSH1 0x20 ADD PUSH1 0x0 KECCAK256 PUSH1 0x0 DUP4 DUP2 MSTORE PUSH1 0x20 ADD SWAP1 DUP2 MSTORE PUSH1 0x20 ADD PUSH1 0x0 KECCAK256 PUSH1 0x4 ADD DUP2 SWAP1 SSTORE POP DUP3 PUSH1 0xD PUSH1 0x0 DUP14 PUSH20 0xFFFFFFFFFFFFFFFFFFFFFFFFFFFFFFFFFFFFFFFF AND PUSH20 0xFFFFFFFFFFFFFFFFFFFFFFFFFFFFFFFFFFFFFFFF AND DUP2 MSTORE PUSH1 0x20 ADD SWAP1 DUP2 MSTORE PUSH1 0x20 ADD PUSH1 0x0 KECCAK256 PUSH1 0x0 DUP4 DUP2 MSTORE PUSH1 0x20 ADD SWAP1 DUP2 MSTORE PUSH1 0x20 ADD PUSH1 0x0 KECCAK256 PUSH1 0x5 ADD PUSH1 0x0 PUSH2 0x100 EXP DUP2 SLOAD DUP2 PUSH1 0xFF MUL NOT AND SWAP1 DUP4 PUSH1 0xFF AND MUL OR SWAP1 SSTORE POP DUP8 PUSH1 0xFF AND PUSH1 0xD PUSH1 0x0 DUP14 PUSH20 0xFFFFFFFFFFFFFFFFFFFFFFFFFFFFFFFFFFFFFFFF AND PUSH20 0xFFFFFFFFFFFFFFFFFFFFFFFFFFFFFFFFFFFFFFFF AND DUP2 MSTORE PUSH1 0x20 ADD SWAP1 DUP2 MSTORE PUSH1 0x20 ADD PUSH1 0x0 KECCAK256 PUSH1 0x0 DUP4 DUP2 MSTORE PUSH1 0x20 ADD SWAP1 DUP2 MSTORE PUSH1 0x20 ADD PUSH1 0x0 KECCAK256 PUSH1 0x5 ADD PUSH1 0x1 PUSH2 0x100 EXP DUP2 SLOAD DUP2 PUSH4 0xFFFFFFFF MUL NOT AND SWAP1 DUP4 PUSH4 0xFFFFFFFF AND MUL OR SWAP1 SSTORE POP PUSH32 0xAE2424F93616CC7FC3303332CDDA5353231F2DC90A87B1E0B507A25E53AC0135 DUP12 DUP12 DUP12 DUP12 PUSH1 0x40 MLOAD PUSH2 0x161B SWAP5 SWAP4 SWAP3 SWAP2 SWAP1 PUSH2 0x1D25 JUMP JUMPDEST PUSH1 0x40 MLOAD DUP1 SWAP2 SUB SWAP1 LOG1 POP POP POP POP POP POP POP POP POP POP POP JUMP JUMPDEST PUSH1 0x5 PUSH1 0x20 MSTORE DUP1 PUSH1 0x0 MSTORE PUSH1 0x40 PUSH1 0x0 KECCAK256 PUSH1 0x0 SWAP2 POP SWAP1 POP DUP1 PUSH1 0x0 ADD PUSH1 0x0 SWAP1 SLOAD SWAP1 PUSH2 0x100 EXP SWAP1 DIV PUSH1 0xFF AND SWAP1 DUP1 PUSH1 0x0 ADD PUSH1 0x1 SWAP1 SLOAD SWAP1 PUSH2 0x100 EXP SWAP1 DIV PUSH20 0xFFFFFFFFFFFFFFFFFFFFFFFFFFFFFFFFFFFFFFFF AND SWAP1 DUP1 PUSH1 0x0 ADD PUSH1 0x15 SWAP1 SLOAD SWAP1 PUSH2 0x100 EXP SWAP1 DIV PUSH2 0xFFFF AND SWAP1 DUP1 PUSH1 0x0 ADD PUSH1 0x17 SWAP1 SLOAD SWAP1 PUSH2 0x100 EXP SWAP1 DIV PUSH1 0xFF AND SWAP1 DUP1 PUSH1 0x1 ADD DUP1 SLOAD PUSH2 0x16B3 SWAP1 PUSH2 0x2141 JUMP JUMPDEST DUP1 PUSH1 0x1F ADD PUSH1 0x20 DUP1 SWAP2 DIV MUL PUSH1 0x20 ADD PUSH1 0x40 MLOAD SWAP1 DUP2 ADD PUSH1 0x40 MSTORE DUP1 SWAP3 SWAP2 SWAP1 DUP2 DUP2 MSTORE PUSH1 0x20 ADD DUP3 DUP1 SLOAD PUSH2 0x16DF SWAP1 PUSH2 0x2141 JUMP JUMPDEST DUP1 ISZERO PUSH2 0x172C JUMPI DUP1 PUSH1 0x1F LT PUSH2 0x1701 JUMPI PUSH2 0x100 DUP1 DUP4 SLOAD DIV MUL DUP4 MSTORE SWAP2 PUSH1 0x20 ADD SWAP2 PUSH2 0x172C JUMP JUMPDEST DUP3 ADD SWAP2 SWAP1 PUSH1 0x0 MSTORE PUSH1 0x20 PUSH1 0x0 KECCAK256 SWAP1 JUMPDEST DUP2 SLOAD DUP2 MSTORE SWAP1 PUSH1 0x1 ADD SWAP1 PUSH1 0x20 ADD DUP1 DUP4 GT PUSH2 0x170F JUMPI DUP3 SWAP1 SUB PUSH1 0x1F AND DUP3 ADD SWAP2 JUMPDEST POP POP POP POP POP SWAP1 DUP1 PUSH1 0x2 ADD DUP1 SLOAD PUSH2 0x1741 SWAP1 PUSH2 0x2141 JUMP JUMPDEST DUP1 PUSH1 0x1F ADD PUSH1 0x20 DUP1 SWAP2 DIV MUL PUSH1 0x20 ADD PUSH1 0x40 MLOAD SWAP1 DUP2 ADD PUSH1 0x40 MSTORE DUP1 SWAP3 SWAP2 SWAP1 DUP2 DUP2 MSTORE PUSH1 0x20 ADD DUP3 DUP1 SLOAD PUSH2 0x176D SWAP1 PUSH2 0x2141 JUMP JUMPDEST DUP1 ISZERO PUSH2 0x17BA JUMPI DUP1 PUSH1 0x1F LT PUSH2 0x178F JUMPI PUSH2 0x100 DUP1 DUP4 SLOAD DIV MUL DUP4 MSTORE SWAP2 PUSH1 0x20 ADD SWAP2 PUSH2 0x17BA JUMP JUMPDEST DUP3 ADD SWAP2 SWAP1 PUSH1 0x0 MSTORE PUSH1 0x20 PUSH1 0x0 KECCAK256 SWAP1 JUMPDEST DUP2 SLOAD DUP2 MSTORE SWAP1 PUSH1 0x1 ADD SWAP1 PUSH1 0x20 ADD DUP1 DUP4 GT PUSH2 0x179D JUMPI DUP3 SWAP1 SUB PUSH1 0x1F AND DUP3 ADD SWAP2 JUMPDEST POP POP POP POP POP SWAP1 POP DUP7 JUMP JUMPDEST PUSH1 0x3 PUSH1 0x20 MSTORE DUP1 PUSH1 0x0 MSTORE PUSH1 0x40 PUSH1 0x0 KECCAK256 PUSH1 0x0 SWAP2 POP SWAP1 POP DUP1 PUSH1 0x0 ADD PUSH1 0x0 SWAP1 SLOAD SWAP1 PUSH2 0x100 EXP SWAP1 DIV PUSH1 0xFF AND SWAP1 POP DUP2 JUMP JUMPDEST DUP3 DUP1 SLOAD PUSH2 0x17FB SWAP1 PUSH2 0x2141 JUMP JUMPDEST SWAP1 PUSH1 0x0 MSTORE PUSH1 0x20 PUSH1 0x0 KECCAK256 SWAP1 PUSH1 0x1F ADD PUSH1 0x20 SWAP1 DIV DUP2 ADD SWAP3 DUP3 PUSH2 0x181D JUMPI PUSH1 0x0 DUP6 SSTORE PUSH2 0x1864 JUMP JUMPDEST DUP3 PUSH1 0x1F LT PUSH2 0x1836 JUMPI DUP1 MLOAD PUSH1 0xFF NOT AND DUP4 DUP1 ADD OR DUP6 SSTORE PUSH2 0x1864 JUMP JUMPDEST DUP3 DUP1 ADD PUSH1 0x1 ADD DUP6 SSTORE DUP3 ISZERO PUSH2 0x1864 JUMPI SWAP2 DUP3 ADD JUMPDEST DUP3 DUP2 GT ISZERO PUSH2 0x1863 JUMPI DUP3 MLOAD DUP3 SSTORE SWAP2 PUSH1 0x20 ADD SWAP2 SWAP1 PUSH1 0x1 ADD SWAP1 PUSH2 0x1848 JUMP JUMPDEST JUMPDEST POP SWAP1 POP PUSH2 0x1871 SWAP2 SWAP1 PUSH2 0x1875 JUMP JUMPDEST POP SWAP1 JUMP JUMPDEST JUMPDEST DUP1 DUP3 GT ISZERO PUSH2 0x188E JUMPI PUSH1 0x0 DUP2 PUSH1 0x0 SWAP1 SSTORE POP PUSH1 0x1 ADD PUSH2 0x1876 JUMP JUMPDEST POP SWAP1 JUMP JUMPDEST PUSH1 0x0 PUSH2 0x18A5 PUSH2 0x18A0 DUP5 PUSH2 0x1FD1 JUMP JUMPDEST PUSH2 0x1FAC JUMP JUMPDEST SWAP1 POP DUP3 DUP2 MSTORE PUSH1 0x20 DUP2 ADD DUP5 DUP5 DUP5 ADD GT ISZERO PUSH2 0x18C1 JUMPI PUSH2 0x18C0 PUSH2 0x22AE JUMP JUMPDEST JUMPDEST PUSH2 0x18CC DUP5 DUP3 DUP6 PUSH2 0x20FF JUMP JUMPDEST POP SWAP4 SWAP3 POP POP POP JUMP JUMPDEST PUSH1 0x0 DUP2 CALLDATALOAD SWAP1 POP PUSH2 0x18E3 DUP2 PUSH2 0x2348 JUMP JUMPDEST SWAP3 SWAP2 POP POP JUMP JUMPDEST PUSH1 0x0 DUP2 CALLDATALOAD SWAP1 POP PUSH2 0x18F8 DUP2 PUSH2 0x235F JUMP JUMPDEST SWAP3 SWAP2 POP POP JUMP JUMPDEST PUSH1 0x0 DUP3 PUSH1 0x1F DUP4 ADD SLT PUSH2 0x1913 JUMPI PUSH2 0x1912 PUSH2 0x22A9 JUMP JUMPDEST JUMPDEST DUP2 CALLDATALOAD PUSH2 0x1923 DUP5 DUP3 PUSH1 0x20 DUP7 ADD PUSH2 0x1892 JUMP JUMPDEST SWAP2 POP POP SWAP3 SWAP2 POP POP JUMP JUMPDEST PUSH1 0x0 DUP2 CALLDATALOAD SWAP1 POP PUSH2 0x193B DUP2 PUSH2 0x236F JUMP JUMPDEST SWAP3 SWAP2 POP POP JUMP JUMPDEST PUSH1 0x0 DUP2 CALLDATALOAD SWAP1 POP PUSH2 0x1950 DUP2 PUSH2 0x2386 JUMP JUMPDEST SWAP3 SWAP2 POP POP JUMP JUMPDEST PUSH1 0x0 DUP2 CALLDATALOAD SWAP1 POP PUSH2 0x1965 DUP2 PUSH2 0x239D JUMP JUMPDEST SWAP3 SWAP2 POP POP JUMP JUMPDEST PUSH1 0x0 PUSH1 0x20 DUP3 DUP5 SUB SLT ISZERO PUSH2 0x1981 JUMPI PUSH2 0x1980 PUSH2 0x22B8 JUMP JUMPDEST JUMPDEST PUSH1 0x0 PUSH2 0x198F DUP5 DUP3 DUP6 ADD PUSH2 0x18D4 JUMP JUMPDEST SWAP2 POP POP SWAP3 SWAP2 POP POP JUMP JUMPDEST PUSH1 0x0 DUP1 PUSH1 0x0 DUP1 PUSH1 0x0 DUP1 PUSH1 0x0 DUP1 PUSH1 0x0 DUP1 PUSH2 0x140 DUP12 DUP14 SUB SLT ISZERO PUSH2 0x19BC JUMPI PUSH2 0x19BB PUSH2 0x22B8 JUMP JUMPDEST JUMPDEST PUSH1 0x0 PUSH2 0x19CA DUP14 DUP3 DUP15 ADD PUSH2 0x18D4 JUMP JUMPDEST SWAP11 POP POP PUSH1 0x20 PUSH2 0x19DB DUP14 DUP3 DUP15 ADD PUSH2 0x18D4 JUMP JUMPDEST SWAP10 POP POP PUSH1 0x40 PUSH2 0x19EC DUP14 DUP3 DUP15 ADD PUSH2 0x1941 JUMP JUMPDEST SWAP9 POP POP PUSH1 0x60 PUSH2 0x19FD DUP14 DUP3 DUP15 ADD PUSH2 0x1956 JUMP JUMPDEST SWAP8 POP POP PUSH1 0x80 PUSH2 0x1A0E DUP14 DUP3 DUP15 ADD PUSH2 0x18E9 JUMP JUMPDEST SWAP7 POP POP PUSH1 0xA0 DUP12 ADD CALLDATALOAD PUSH8 0xFFFFFFFFFFFFFFFF DUP2 GT ISZERO PUSH2 0x1A2F JUMPI PUSH2 0x1A2E PUSH2 0x22B3 JUMP JUMPDEST JUMPDEST PUSH2 0x1A3B DUP14 DUP3 DUP15 ADD PUSH2 0x18FE JUMP JUMPDEST SWAP6 POP POP PUSH1 0xC0 PUSH2 0x1A4C DUP14 DUP3 DUP15 ADD PUSH2 0x192C JUMP JUMPDEST SWAP5 POP POP PUSH1 0xE0 PUSH2 0x1A5D DUP14 DUP3 DUP15 ADD PUSH2 0x192C JUMP JUMPDEST SWAP4 POP POP PUSH2 0x100 PUSH2 0x1A6F DUP14 DUP3 DUP15 ADD PUSH2 0x1956 JUMP JUMPDEST SWAP3 POP POP PUSH2 0x120 PUSH2 0x1A81 DUP14 DUP3 DUP15 ADD PUSH2 0x1941 JUMP JUMPDEST SWAP2 POP POP SWAP3 SWAP6 SWAP9 SWAP12 SWAP2 SWAP5 SWAP8 SWAP11 POP SWAP3 SWAP6 SWAP9 POP JUMP JUMPDEST PUSH1 0x0 DUP1 PUSH1 0x40 DUP4 DUP6 SUB SLT ISZERO PUSH2 0x1AAA JUMPI PUSH2 0x1AA9 PUSH2 0x22B8 JUMP JUMPDEST JUMPDEST PUSH1 0x0 PUSH2 0x1AB8 DUP6 DUP3 DUP7 ADD PUSH2 0x18D4 JUMP JUMPDEST SWAP3 POP POP PUSH1 0x20 PUSH2 0x1AC9 DUP6 DUP3 DUP7 ADD PUSH2 0x192C JUMP JUMPDEST SWAP2 POP POP SWAP3 POP SWAP3 SWAP1 POP JUMP JUMPDEST PUSH1 0x0 DUP1 PUSH1 0x0 DUP1 PUSH1 0x0 DUP1 PUSH1 0x0 DUP1 PUSH1 0x0 DUP1 PUSH1 0x0 PUSH2 0x160 DUP13 DUP15 SUB SLT ISZERO PUSH2 0x1AF9 JUMPI PUSH2 0x1AF8 PUSH2 0x22B8 JUMP JUMPDEST JUMPDEST PUSH1 0x0 PUSH2 0x1B07 DUP15 DUP3 DUP16 ADD PUSH2 0x18D4 JUMP JUMPDEST SWAP12 POP POP PUSH1 0x20 PUSH2 0x1B18 DUP15 DUP3 DUP16 ADD PUSH2 0x192C JUMP JUMPDEST SWAP11 POP POP PUSH1 0x40 PUSH2 0x1B29 DUP15 DUP3 DUP16 ADD PUSH2 0x18D4 JUMP JUMPDEST SWAP10 POP POP PUSH1 0x60 PUSH2 0x1B3A DUP15 DUP3 DUP16 ADD PUSH2 0x1941 JUMP JUMPDEST SWAP9 POP POP PUSH1 0x80 PUSH2 0x1B4B DUP15 DUP3 DUP16 ADD PUSH2 0x1956 JUMP JUMPDEST SWAP8 POP POP PUSH1 0xA0 PUSH2 0x1B5C DUP15 DUP3 DUP16 ADD PUSH2 0x18E9 JUMP JUMPDEST SWAP7 POP POP PUSH1 0xC0 DUP13 ADD CALLDATALOAD PUSH8 0xFFFFFFFFFFFFFFFF DUP2 GT ISZERO PUSH2 0x1B7D JUMPI PUSH2 0x1B7C PUSH2 0x22B3 JUMP JUMPDEST JUMPDEST PUSH2 0x1B89 DUP15 DUP3 DUP16 ADD PUSH2 0x18FE JUMP JUMPDEST SWAP6 POP POP PUSH1 0xE0 PUSH2 0x1B9A DUP15 DUP3 DUP16 ADD PUSH2 0x192C JUMP JUMPDEST SWAP5 POP POP PUSH2 0x100 PUSH2 0x1BAC DUP15 DUP3 DUP16 ADD PUSH2 0x192C JUMP JUMPDEST SWAP4 POP POP PUSH2 0x120 PUSH2 0x1BBE DUP15 DUP3 DUP16 ADD PUSH2 0x1956 JUMP JUMPDEST SWAP3 POP POP PUSH2 0x140 PUSH2 0x1BD0 DUP15 DUP3 DUP16 ADD PUSH2 0x1941 JUMP JUMPDEST SWAP2 POP POP SWAP3 SWAP6 SWAP9 SWAP12 POP SWAP3 SWAP6 SWAP9 SWAP12 SWAP1 SWAP4 SWAP7 SWAP10 POP JUMP JUMPDEST PUSH1 0x0 PUSH1 0x20 DUP3 DUP5 SUB SLT ISZERO PUSH2 0x1BF9 JUMPI PUSH2 0x1BF8 PUSH2 0x22B8 JUMP JUMPDEST JUMPDEST PUSH1 0x0 PUSH2 0x1C07 DUP5 DUP3 DUP6 ADD PUSH2 0x1941 JUMP JUMPDEST SWAP2 POP POP SWAP3 SWAP2 POP POP JUMP JUMPDEST PUSH2 0x1C19 DUP2 PUSH2 0x201E JUMP JUMPDEST DUP3 MSTORE POP POP JUMP JUMPDEST PUSH2 0x1C28 DUP2 PUSH2 0x2030 JUMP JUMPDEST DUP3 MSTORE POP POP JUMP JUMPDEST PUSH2 0x1C37 DUP2 PUSH2 0x20B7 JUMP JUMPDEST DUP3 MSTORE POP POP JUMP JUMPDEST PUSH2 0x1C46 DUP2 PUSH2 0x20C9 JUMP JUMPDEST DUP3 MSTORE POP POP JUMP JUMPDEST PUSH1 0x0 PUSH2 0x1C57 DUP3 PUSH2 0x2002 JUMP JUMPDEST PUSH2 0x1C61 DUP2 DUP6 PUSH2 0x200D JUMP JUMPDEST SWAP4 POP PUSH2 0x1C71 DUP2 DUP6 PUSH1 0x20 DUP7 ADD PUSH2 0x210E JUMP JUMPDEST PUSH2 0x1C7A DUP2 PUSH2 0x22BD JUMP JUMPDEST DUP5 ADD SWAP2 POP POP SWAP3 SWAP2 POP POP JUMP JUMPDEST PUSH1 0x0 PUSH2 0x1C92 PUSH1 0x12 DUP4 PUSH2 0x200D JUMP JUMPDEST SWAP2 POP PUSH2 0x1C9D DUP3 PUSH2 0x22CE JUMP JUMPDEST PUSH1 0x20 DUP3 ADD SWAP1 POP SWAP2 SWAP1 POP JUMP JUMPDEST PUSH1 0x0 PUSH2 0x1CB5 PUSH1 0x20 DUP4 PUSH2 0x200D JUMP JUMPDEST SWAP2 POP PUSH2 0x1CC0 DUP3 PUSH2 0x22F7 JUMP JUMPDEST PUSH1 0x20 DUP3 ADD SWAP1 POP SWAP2 SWAP1 POP JUMP JUMPDEST PUSH2 0x1CD4 DUP2 PUSH2 0x2062 JUMP JUMPDEST DUP3 MSTORE POP POP JUMP JUMPDEST PUSH2 0x1CE3 DUP2 PUSH2 0x2090 JUMP JUMPDEST DUP3 MSTORE POP POP JUMP JUMPDEST PUSH2 0x1CF2 DUP2 PUSH2 0x20DB JUMP JUMPDEST DUP3 MSTORE POP POP JUMP JUMPDEST PUSH2 0x1D01 DUP2 PUSH2 0x209A JUMP JUMPDEST DUP3 MSTORE POP POP JUMP JUMPDEST PUSH2 0x1D10 DUP2 PUSH2 0x20ED JUMP JUMPDEST DUP3 MSTORE POP POP JUMP JUMPDEST PUSH2 0x1D1F DUP2 PUSH2 0x20AA JUMP JUMPDEST DUP3 MSTORE POP POP JUMP JUMPDEST PUSH1 0x0 PUSH1 0x80 DUP3 ADD SWAP1 POP PUSH2 0x1D3A PUSH1 0x0 DUP4 ADD DUP8 PUSH2 0x1C10 JUMP JUMPDEST PUSH2 0x1D47 PUSH1 0x20 DUP4 ADD DUP7 PUSH2 0x1C10 JUMP JUMPDEST PUSH2 0x1D54 PUSH1 0x40 DUP4 ADD DUP6 PUSH2 0x1CE9 JUMP JUMPDEST PUSH2 0x1D61 PUSH1 0x60 DUP4 ADD DUP5 PUSH2 0x1D07 JUMP JUMPDEST SWAP6 SWAP5 POP POP POP POP POP JUMP JUMPDEST PUSH1 0x0 PUSH1 0x20 DUP3 ADD SWAP1 POP PUSH2 0x1D7F PUSH1 0x0 DUP4 ADD DUP5 PUSH2 0x1C1F JUMP JUMPDEST SWAP3 SWAP2 POP POP JUMP JUMPDEST PUSH1 0x0 PUSH1 0xC0 DUP3 ADD SWAP1 POP PUSH2 0x1D9A PUSH1 0x0 DUP4 ADD DUP10 PUSH2 0x1C1F JUMP JUMPDEST PUSH2 0x1DA7 PUSH1 0x20 DUP4 ADD DUP9 PUSH2 0x1C10 JUMP JUMPDEST PUSH2 0x1DB4 PUSH1 0x40 DUP4 ADD DUP8 PUSH2 0x1CCB JUMP JUMPDEST PUSH2 0x1DC1 PUSH1 0x60 DUP4 ADD DUP7 PUSH2 0x1C3D JUMP JUMPDEST DUP2 DUP2 SUB PUSH1 0x80 DUP4 ADD MSTORE PUSH2 0x1DD3 DUP2 DUP6 PUSH2 0x1C4C JUMP JUMPDEST SWAP1 POP DUP2 DUP2 SUB PUSH1 0xA0 DUP4 ADD MSTORE PUSH2 0x1DE7 DUP2 DUP5 PUSH2 0x1C4C JUMP JUMPDEST SWAP1 POP SWAP8 SWAP7 POP POP POP POP POP POP POP JUMP JUMPDEST PUSH1 0x0 PUSH1 0x60 DUP3 ADD SWAP1 POP PUSH2 0x1E09 PUSH1 0x0 DUP4 ADD DUP7 PUSH2 0x1C1F JUMP JUMPDEST DUP2 DUP2 SUB PUSH1 0x20 DUP4 ADD MSTORE PUSH2 0x1E1B DUP2 DUP6 PUSH2 0x1C4C JUMP JUMPDEST SWAP1 POP PUSH2 0x1E2A PUSH1 0x40 DUP4 ADD DUP5 PUSH2 0x1D16 JUMP JUMPDEST SWAP5 SWAP4 POP POP POP POP JUMP JUMPDEST PUSH1 0x0 PUSH1 0x80 DUP3 ADD SWAP1 POP PUSH2 0x1E47 PUSH1 0x0 DUP4 ADD DUP8 PUSH2 0x1C1F JUMP JUMPDEST PUSH2 0x1E54 PUSH1 0x20 DUP4 ADD DUP7 PUSH2 0x1D16 JUMP JUMPDEST PUSH2 0x1E61 PUSH1 0x40 DUP4 ADD DUP6 PUSH2 0x1CDA JUMP JUMPDEST DUP2 DUP2 SUB PUSH1 0x60 DUP4 ADD MSTORE PUSH2 0x1E73 DUP2 DUP5 PUSH2 0x1C4C JUMP JUMPDEST SWAP1 POP SWAP6 SWAP5 POP POP POP POP POP JUMP JUMPDEST PUSH1 0x0 PUSH1 0x20 DUP3 ADD SWAP1 POP DUP2 DUP2 SUB PUSH1 0x0 DUP4 ADD MSTORE PUSH2 0x1E97 DUP2 PUSH2 0x1C85 JUMP JUMPDEST SWAP1 POP SWAP2 SWAP1 POP JUMP JUMPDEST PUSH1 0x0 PUSH1 0x20 DUP3 ADD SWAP1 POP DUP2 DUP2 SUB PUSH1 0x0 DUP4 ADD MSTORE PUSH2 0x1EB7 DUP2 PUSH2 0x1CA8 JUMP JUMPDEST SWAP1 POP SWAP2 SWAP1 POP JUMP JUMPDEST PUSH1 0x0 PUSH1 0x20 DUP3 ADD SWAP1 POP PUSH2 0x1ED3 PUSH1 0x0 DUP4 ADD DUP5 PUSH2 0x1CDA JUMP JUMPDEST SWAP3 SWAP2 POP POP JUMP JUMPDEST PUSH1 0x0 PUSH2 0x140 DUP3 ADD SWAP1 POP PUSH2 0x1EEF PUSH1 0x0 DUP4 ADD DUP14 PUSH2 0x1CDA JUMP JUMPDEST PUSH2 0x1EFC PUSH1 0x20 DUP4 ADD DUP13 PUSH2 0x1C10 JUMP JUMPDEST PUSH2 0x1F09 PUSH1 0x40 DUP4 ADD DUP12 PUSH2 0x1CF8 JUMP JUMPDEST PUSH2 0x1F16 PUSH1 0x60 DUP4 ADD DUP11 PUSH2 0x1D16 JUMP JUMPDEST PUSH2 0x1F23 PUSH1 0x80 DUP4 ADD DUP10 PUSH2 0x1C2E JUMP JUMPDEST DUP2 DUP2 SUB PUSH1 0xA0 DUP4 ADD MSTORE PUSH2 0x1F35 DUP2 DUP9 PUSH2 0x1C4C JUMP JUMPDEST SWAP1 POP PUSH2 0x1F44 PUSH1 0xC0 DUP4 ADD DUP8 PUSH2 0x1CDA JUMP JUMPDEST PUSH2 0x1F51 PUSH1 0xE0 DUP4 ADD DUP7 PUSH2 0x1CDA JUMP JUMPDEST PUSH2 0x1F5F PUSH2 0x100 DUP4 ADD DUP6 PUSH2 0x1D16 JUMP JUMPDEST PUSH2 0x1F6D PUSH2 0x120 DUP4 ADD DUP5 PUSH2 0x1CF8 JUMP JUMPDEST SWAP12 SWAP11 POP POP POP POP POP POP POP POP POP POP POP JUMP JUMPDEST PUSH1 0x0 PUSH1 0x40 DUP3 ADD SWAP1 POP PUSH2 0x1F91 PUSH1 0x0 DUP4 ADD DUP6 PUSH2 0x1CF8 JUMP JUMPDEST DUP2 DUP2 SUB PUSH1 0x20 DUP4 ADD MSTORE PUSH2 0x1FA3 DUP2 DUP5 PUSH2 0x1C4C JUMP JUMPDEST SWAP1 POP SWAP4 SWAP3 POP POP POP JUMP JUMPDEST PUSH1 0x0 PUSH2 0x1FB6 PUSH2 0x1FC7 JUMP JUMPDEST SWAP1 POP PUSH2 0x1FC2 DUP3 DUP3 PUSH2 0x2173 JUMP JUMPDEST SWAP2 SWAP1 POP JUMP JUMPDEST PUSH1 0x0 PUSH1 0x40 MLOAD SWAP1 POP SWAP1 JUMP JUMPDEST PUSH1 0x0 PUSH8 0xFFFFFFFFFFFFFFFF DUP3 GT ISZERO PUSH2 0x1FEC JUMPI PUSH2 0x1FEB PUSH2 0x227A JUMP JUMPDEST JUMPDEST PUSH2 0x1FF5 DUP3 PUSH2 0x22BD JUMP JUMPDEST SWAP1 POP PUSH1 0x20 DUP2 ADD SWAP1 POP SWAP2 SWAP1 POP JUMP JUMPDEST PUSH1 0x0 DUP2 MLOAD SWAP1 POP SWAP2 SWAP1 POP JUMP JUMPDEST PUSH1 0x0 DUP3 DUP3 MSTORE PUSH1 0x20 DUP3 ADD SWAP1 POP SWAP3 SWAP2 POP POP JUMP JUMPDEST PUSH1 0x0 PUSH2 0x2029 DUP3 PUSH2 0x2070 JUMP JUMPDEST SWAP1 POP SWAP2 SWAP1 POP JUMP JUMPDEST PUSH1 0x0 DUP2 ISZERO ISZERO SWAP1 POP SWAP2 SWAP1 POP JUMP JUMPDEST PUSH1 0x0 DUP2 SWAP1 POP PUSH2 0x204A DUP3 PUSH2 0x2320 JUMP JUMPDEST SWAP2 SWAP1 POP JUMP JUMPDEST PUSH1 0x0 DUP2 SWAP1 POP PUSH2 0x205D DUP3 PUSH2 0x2334 JUMP JUMPDEST SWAP2 SWAP1 POP JUMP JUMPDEST PUSH1 0x0 PUSH2 0xFFFF DUP3 AND SWAP1 POP SWAP2 SWAP1 POP JUMP JUMPDEST PUSH1 0x0 PUSH20 0xFFFFFFFFFFFFFFFFFFFFFFFFFFFFFFFFFFFFFFFF DUP3 AND SWAP1 POP SWAP2 SWAP1 POP JUMP JUMPDEST PUSH1 0x0 DUP2 SWAP1 POP SWAP2 SWAP1 POP JUMP JUMPDEST PUSH1 0x0 PUSH4 0xFFFFFFFF DUP3 AND SWAP1 POP SWAP2 SWAP1 POP JUMP JUMPDEST PUSH1 0x0 PUSH1 0xFF DUP3 AND SWAP1 POP SWAP2 SWAP1 POP JUMP JUMPDEST PUSH1 0x0 PUSH2 0x20C2 DUP3 PUSH2 0x203C JUMP JUMPDEST SWAP1 POP SWAP2 SWAP1 POP JUMP JUMPDEST PUSH1 0x0 PUSH2 0x20D4 DUP3 PUSH2 0x204F JUMP JUMPDEST SWAP1 POP SWAP2 SWAP1 POP JUMP JUMPDEST PUSH1 0x0 PUSH2 0x20E6 DUP3 PUSH2 0x209A JUMP JUMPDEST SWAP1 POP SWAP2 SWAP1 POP JUMP JUMPDEST PUSH1 0x0 PUSH2 0x20F8 DUP3 PUSH2 0x20AA JUMP JUMPDEST SWAP1 POP SWAP2 SWAP1 POP JUMP JUMPDEST DUP3 DUP2 DUP4 CALLDATACOPY PUSH1 0x0 DUP4 DUP4 ADD MSTORE POP POP POP JUMP JUMPDEST PUSH1 0x0 JUMPDEST DUP4 DUP2 LT ISZERO PUSH2 0x212C JUMPI DUP1 DUP3 ADD MLOAD DUP2 DUP5 ADD MSTORE PUSH1 0x20 DUP2 ADD SWAP1 POP PUSH2 0x2111 JUMP JUMPDEST DUP4 DUP2 GT ISZERO PUSH2 0x213B JUMPI PUSH1 0x0 DUP5 DUP5 ADD MSTORE JUMPDEST POP POP POP POP JUMP JUMPDEST PUSH1 0x0 PUSH1 0x2 DUP3 DIV SWAP1 POP PUSH1 0x1 DUP3 AND DUP1 PUSH2 0x2159 JUMPI PUSH1 0x7F DUP3 AND SWAP2 POP JUMPDEST PUSH1 0x20 DUP3 LT DUP2 EQ ISZERO PUSH2 0x216D JUMPI PUSH2 0x216C PUSH2 0x224B JUMP JUMPDEST JUMPDEST POP SWAP2 SWAP1 POP JUMP JUMPDEST PUSH2 0x217C DUP3 PUSH2 0x22BD JUMP JUMPDEST DUP2 ADD DUP2 DUP2 LT PUSH8 0xFFFFFFFFFFFFFFFF DUP3 GT OR ISZERO PUSH2 0x219B JUMPI PUSH2 0x219A PUSH2 0x227A JUMP JUMPDEST JUMPDEST DUP1 PUSH1 0x40 MSTORE POP POP POP JUMP JUMPDEST PUSH1 0x0 PUSH2 0x21AF DUP3 PUSH2 0x2090 JUMP JUMPDEST SWAP2 POP PUSH32 0xFFFFFFFFFFFFFFFFFFFFFFFFFFFFFFFFFFFFFFFFFFFFFFFFFFFFFFFFFFFFFFFF DUP3 EQ ISZERO PUSH2 0x21E2 JUMPI PUSH2 0x21E1 PUSH2 0x21ED JUMP JUMPDEST JUMPDEST PUSH1 0x1 DUP3 ADD SWAP1 POP SWAP2 SWAP1 POP JUMP JUMPDEST PUSH32 0x4E487B7100000000000000000000000000000000000000000000000000000000 PUSH1 0x0 MSTORE PUSH1 0x11 PUSH1 0x4 MSTORE PUSH1 0x24 PUSH1 0x0 REVERT JUMPDEST PUSH32 0x4E487B7100000000000000000000000000000000000000000000000000000000 PUSH1 0x0 MSTORE PUSH1 0x21 PUSH1 0x4 MSTORE PUSH1 0x24 PUSH1 0x0 REVERT JUMPDEST PUSH32 0x4E487B7100000000000000000000000000000000000000000000000000000000 PUSH1 0x0 MSTORE PUSH1 0x22 PUSH1 0x4 MSTORE PUSH1 0x24 PUSH1 0x0 REVERT JUMPDEST PUSH32 0x4E487B7100000000000000000000000000000000000000000000000000000000 PUSH1 0x0 MSTORE PUSH1 0x41 PUSH1 0x4 MSTORE PUSH1 0x24 PUSH1 0x0 REVERT JUMPDEST PUSH1 0x0 DUP1 REVERT JUMPDEST PUSH1 0x0 DUP1 REVERT JUMPDEST PUSH1 0x0 DUP1 REVERT JUMPDEST PUSH1 0x0 DUP1 REVERT JUMPDEST PUSH1 0x0 PUSH1 0x1F NOT PUSH1 0x1F DUP4 ADD AND SWAP1 POP SWAP2 SWAP1 POP JUMP JUMPDEST PUSH32 0x53747564656E74206E6F74206578697374730000000000000000000000000000 PUSH1 0x0 DUP3 ADD MSTORE POP JUMP JUMPDEST PUSH32 0x42752069736C656D6920736164656365204B757273207961706162696C69722E PUSH1 0x0 DUP3 ADD MSTORE POP JUMP JUMPDEST PUSH1 0x3 DUP2 LT PUSH2 0x2331 JUMPI PUSH2 0x2330 PUSH2 0x221C JUMP JUMPDEST JUMPDEST POP JUMP JUMPDEST PUSH1 0x4 DUP2 LT PUSH2 0x2345 JUMPI PUSH2 0x2344 PUSH2 0x221C JUMP JUMPDEST JUMPDEST POP JUMP JUMPDEST PUSH2 0x2351 DUP2 PUSH2 0x201E JUMP JUMPDEST DUP2 EQ PUSH2 0x235C JUMPI PUSH1 0x0 DUP1 REVERT JUMPDEST POP JUMP JUMPDEST PUSH1 0x3 DUP2 LT PUSH2 0x236C JUMPI PUSH1 0x0 DUP1 REVERT JUMPDEST POP JUMP JUMPDEST PUSH2 0x2378 DUP2 PUSH2 0x2090 JUMP JUMPDEST DUP2 EQ PUSH2 0x2383 JUMPI PUSH1 0x0 DUP1 REVERT JUMPDEST POP JUMP JUMPDEST PUSH2 0x238F DUP2 PUSH2 0x209A JUMP JUMPDEST DUP2 EQ PUSH2 0x239A JUMPI PUSH1 0x0 DUP1 REVERT JUMPDEST POP JUMP JUMPDEST PUSH2 0x23A6 DUP2 PUSH2 0x20AA JUMP JUMPDEST DUP2 EQ PUSH2 0x23B1 JUMPI PUSH1 0x0 DUP1 REVERT JUMPDEST POP JUMP INVALID LOG2 PUSH5 0x6970667358 0x22 SLT KECCAK256 0x4F CHAINID STOP KECCAK256 PUSH14 0xB3DB5E799380B9CA3FF6B3920B39 PUSH16 0x157CACF2007C5F9B01F8A78264736F6C PUSH4 0x43000807 STOP CALLER "
				},
				"gasEstimates": {
					"creation": {
						"codeDepositCost": "1838800",
						"executionCost": "1941",
						"totalCost": "1840741"
					},
					"external": {
						"akademisyenler(address)": "infinite",
						"calismaBilgileri(address,uint256)": "infinite",
						"diller(uint32)": "infinite",
						"ekleCalismaBilgi(address,address,uint32,uint8,uint8,string,uint256,uint256,uint8,uint32)": "infinite",
						"firmalar(address)": "infinite",
						"guncelleCalismaBilgi(address,uint256,address,uint32,uint8,uint8,string,uint256,uint256,uint8,uint32)": "infinite",
						"id()": "2451",
						"kamuKurumlari(address)": "infinite",
						"kisiler(address)": "2958",
						"kurslar(address)": "infinite",
						"sertifikaMerkezleri(address)": "infinite",
						"stklar(address)": "infinite",
						"universiteler(address)": "infinite"
					}
				},
				"methodIdentifiers": {
					"akademisyenler(address)": "ba479b7e",
					"calismaBilgileri(address,uint256)": "0fb0b1b2",
					"diller(uint32)": "a4e7ae05",
					"ekleCalismaBilgi(address,address,uint32,uint8,uint8,string,uint256,uint256,uint8,uint32)": "b34b5539",
					"firmalar(address)": "39987f94",
					"guncelleCalismaBilgi(address,uint256,address,uint32,uint8,uint8,string,uint256,uint256,uint8,uint32)": "7b6524fe",
					"id()": "af640d0f",
					"kamuKurumlari(address)": "7d0fa287",
					"kisiler(address)": "cbc92809",
					"kurslar(address)": "1916e139",
					"sertifikaMerkezleri(address)": "356b1f1e",
					"stklar(address)": "9a8c9119",
					"universiteler(address)": "28266697"
				}
			},
			"storageLayout": {
				"storage": [
					{
						"astId": 3,
						"contract": "contracts/CalismaBilgileri.sol:CalismaBilgileri",
						"label": "YOK",
						"offset": 0,
						"slot": "0",
						"type": "t_address"
					},
					{
						"astId": 5,
						"contract": "contracts/CalismaBilgileri.sol:CalismaBilgileri",
						"label": "TOBB",
						"offset": 0,
						"slot": "1",
						"type": "t_address"
					},
					{
						"astId": 7,
						"contract": "contracts/CalismaBilgileri.sol:CalismaBilgileri",
						"label": "CB",
						"offset": 0,
						"slot": "2",
						"type": "t_address"
					},
					{
						"astId": 224,
						"contract": "contracts/CalismaBilgileri.sol:CalismaBilgileri",
						"label": "kisiler",
						"offset": 0,
						"slot": "3",
						"type": "t_mapping(t_address,t_struct(Kisi)10_storage)"
					},
					{
						"astId": 229,
						"contract": "contracts/CalismaBilgileri.sol:CalismaBilgileri",
						"label": "universiteler",
						"offset": 0,
						"slot": "4",
						"type": "t_mapping(t_address,t_struct(Universite)17_storage)"
					},
					{
						"astId": 234,
						"contract": "contracts/CalismaBilgileri.sol:CalismaBilgileri",
						"label": "akademisyenler",
						"offset": 0,
						"slot": "5",
						"type": "t_mapping(t_address,t_struct(Akademisyen)31_storage)"
					},
					{
						"astId": 239,
						"contract": "contracts/CalismaBilgileri.sol:CalismaBilgileri",
						"label": "firmalar",
						"offset": 0,
						"slot": "6",
						"type": "t_mapping(t_address,t_struct(Firma)71_storage)"
					},
					{
						"astId": 244,
						"contract": "contracts/CalismaBilgileri.sol:CalismaBilgileri",
						"label": "kurslar",
						"offset": 0,
						"slot": "7",
						"type": "t_mapping(t_address,t_struct(Kurs)99_storage)"
					},
					{
						"astId": 249,
						"contract": "contracts/CalismaBilgileri.sol:CalismaBilgileri",
						"label": "kamuKurumlari",
						"offset": 0,
						"slot": "8",
						"type": "t_mapping(t_address,t_struct(KamuKurumu)78_storage)"
					},
					{
						"astId": 254,
						"contract": "contracts/CalismaBilgileri.sol:CalismaBilgileri",
						"label": "stklar",
						"offset": 0,
						"slot": "9",
						"type": "t_mapping(t_address,t_struct(STK)85_storage)"
					},
					{
						"astId": 259,
						"contract": "contracts/CalismaBilgileri.sol:CalismaBilgileri",
						"label": "sertifikaMerkezleri",
						"offset": 0,
						"slot": "10",
						"type": "t_mapping(t_address,t_struct(SertifikaMerkezi)92_storage)"
					},
					{
						"astId": 264,
						"contract": "contracts/CalismaBilgileri.sol:CalismaBilgileri",
						"label": "diller",
						"offset": 0,
						"slot": "11",
						"type": "t_mapping(t_uint32,t_struct(YabanciDil)104_storage)"
					},
					{
						"astId": 272,
						"contract": "contracts/CalismaBilgileri.sol:CalismaBilgileri",
						"label": "id",
						"offset": 0,
						"slot": "12",
						"type": "t_uint256"
					},
					{
						"astId": 305,
						"contract": "contracts/CalismaBilgileri.sol:CalismaBilgileri",
						"label": "calismaBilgileri",
						"offset": 0,
						"slot": "13",
						"type": "t_mapping(t_address,t_mapping(t_uint256,t_struct(CalismaBilgi)294_storage))"
					}
				],
				"types": {
					"t_address": {
						"encoding": "inplace",
						"label": "address",
						"numberOfBytes": "20"
					},
					"t_bool": {
						"encoding": "inplace",
						"label": "bool",
						"numberOfBytes": "1"
					},
					"t_enum(CalismaTipi)298": {
						"encoding": "inplace",
						"label": "enum CalismaBilgileri.CalismaTipi",
						"numberOfBytes": "1"
					},
					"t_enum(Unvan)36": {
						"encoding": "inplace",
						"label": "enum BaseContract.Unvan",
						"numberOfBytes": "1"
					},
					"t_mapping(t_address,t_mapping(t_uint256,t_struct(CalismaBilgi)294_storage))": {
						"encoding": "mapping",
						"key": "t_address",
						"label": "mapping(address => mapping(uint256 => struct CalismaBilgileri.CalismaBilgi))",
						"numberOfBytes": "32",
						"value": "t_mapping(t_uint256,t_struct(CalismaBilgi)294_storage)"
					},
					"t_mapping(t_address,t_struct(Akademisyen)31_storage)": {
						"encoding": "mapping",
						"key": "t_address",
						"label": "mapping(address => struct BaseContract.Akademisyen)",
						"numberOfBytes": "32",
						"value": "t_struct(Akademisyen)31_storage"
					},
					"t_mapping(t_address,t_struct(Firma)71_storage)": {
						"encoding": "mapping",
						"key": "t_address",
						"label": "mapping(address => struct BaseContract.Firma)",
						"numberOfBytes": "32",
						"value": "t_struct(Firma)71_storage"
					},
					"t_mapping(t_address,t_struct(KamuKurumu)78_storage)": {
						"encoding": "mapping",
						"key": "t_address",
						"label": "mapping(address => struct BaseContract.KamuKurumu)",
						"numberOfBytes": "32",
						"value": "t_struct(KamuKurumu)78_storage"
					},
					"t_mapping(t_address,t_struct(Kisi)10_storage)": {
						"encoding": "mapping",
						"key": "t_address",
						"label": "mapping(address => struct BaseContract.Kisi)",
						"numberOfBytes": "32",
						"value": "t_struct(Kisi)10_storage"
					},
					"t_mapping(t_address,t_struct(Kurs)99_storage)": {
						"encoding": "mapping",
						"key": "t_address",
						"label": "mapping(address => struct BaseContract.Kurs)",
						"numberOfBytes": "32",
						"value": "t_struct(Kurs)99_storage"
					},
					"t_mapping(t_address,t_struct(STK)85_storage)": {
						"encoding": "mapping",
						"key": "t_address",
						"label": "mapping(address => struct BaseContract.STK)",
						"numberOfBytes": "32",
						"value": "t_struct(STK)85_storage"
					},
					"t_mapping(t_address,t_struct(SertifikaMerkezi)92_storage)": {
						"encoding": "mapping",
						"key": "t_address",
						"label": "mapping(address => struct BaseContract.SertifikaMerkezi)",
						"numberOfBytes": "32",
						"value": "t_struct(SertifikaMerkezi)92_storage"
					},
					"t_mapping(t_address,t_struct(Universite)17_storage)": {
						"encoding": "mapping",
						"key": "t_address",
						"label": "mapping(address => struct BaseContract.Universite)",
						"numberOfBytes": "32",
						"value": "t_struct(Universite)17_storage"
					},
					"t_mapping(t_uint256,t_struct(CalismaBilgi)294_storage)": {
						"encoding": "mapping",
						"key": "t_uint256",
						"label": "mapping(uint256 => struct CalismaBilgileri.CalismaBilgi)",
						"numberOfBytes": "32",
						"value": "t_struct(CalismaBilgi)294_storage"
					},
					"t_mapping(t_uint32,t_struct(YabanciDil)104_storage)": {
						"encoding": "mapping",
						"key": "t_uint32",
						"label": "mapping(uint32 => struct BaseContract.YabanciDil)",
						"numberOfBytes": "32",
						"value": "t_struct(YabanciDil)104_storage"
					},
					"t_string_storage": {
						"encoding": "bytes",
						"label": "string",
						"numberOfBytes": "32"
					},
					"t_struct(Akademisyen)31_storage": {
						"encoding": "inplace",
						"label": "struct BaseContract.Akademisyen",
						"members": [
							{
								"astId": 19,
								"contract": "contracts/CalismaBilgileri.sol:CalismaBilgileri",
								"label": "durum",
								"offset": 0,
								"slot": "0",
								"type": "t_bool"
							},
							{
								"astId": 21,
								"contract": "contracts/CalismaBilgileri.sol:CalismaBilgileri",
								"label": "universite",
								"offset": 1,
								"slot": "0",
								"type": "t_address"
							},
							{
								"astId": 23,
								"contract": "contracts/CalismaBilgileri.sol:CalismaBilgileri",
								"label": "bolum",
								"offset": 21,
								"slot": "0",
								"type": "t_uint16"
							},
							{
								"astId": 26,
								"contract": "contracts/CalismaBilgileri.sol:CalismaBilgileri",
								"label": "unvan",
								"offset": 23,
								"slot": "0",
								"type": "t_enum(Unvan)36"
							},
							{
								"astId": 28,
								"contract": "contracts/CalismaBilgileri.sol:CalismaBilgileri",
								"label": "ad",
								"offset": 0,
								"slot": "1",
								"type": "t_string_storage"
							},
							{
								"astId": 30,
								"contract": "contracts/CalismaBilgileri.sol:CalismaBilgileri",
								"label": "soyad",
								"offset": 0,
								"slot": "2",
								"type": "t_string_storage"
							}
						],
						"numberOfBytes": "96"
					},
					"t_struct(CalismaBilgi)294_storage": {
						"encoding": "inplace",
						"label": "struct CalismaBilgileri.CalismaBilgi",
						"members": [
							{
								"astId": 274,
								"contract": "contracts/CalismaBilgileri.sol:CalismaBilgileri",
								"label": "id",
								"offset": 0,
								"slot": "0",
								"type": "t_uint256"
							},
							{
								"astId": 276,
								"contract": "contracts/CalismaBilgileri.sol:CalismaBilgileri",
								"label": "kurumAdres",
								"offset": 0,
								"slot": "1",
								"type": "t_address"
							},
							{
								"astId": 278,
								"contract": "contracts/CalismaBilgileri.sol:CalismaBilgileri",
								"label": "pozisyon",
								"offset": 20,
								"slot": "1",
								"type": "t_uint32"
							},
							{
								"astId": 280,
								"contract": "contracts/CalismaBilgileri.sol:CalismaBilgileri",
								"label": "sektor",
								"offset": 24,
								"slot": "1",
								"type": "t_uint8"
							},
							{
								"astId": 283,
								"contract": "contracts/CalismaBilgileri.sol:CalismaBilgileri",
								"label": "calismaTipi",
								"offset": 25,
								"slot": "1",
								"type": "t_enum(CalismaTipi)298"
							},
							{
								"astId": 285,
								"contract": "contracts/CalismaBilgileri.sol:CalismaBilgileri",
								"label": "isAciklama",
								"offset": 0,
								"slot": "2",
								"type": "t_string_storage"
							},
							{
								"astId": 287,
								"contract": "contracts/CalismaBilgileri.sol:CalismaBilgileri",
								"label": "basTarih",
								"offset": 0,
								"slot": "3",
								"type": "t_uint256"
							},
							{
								"astId": 289,
								"contract": "contracts/CalismaBilgileri.sol:CalismaBilgileri",
								"label": "bitTarih",
								"offset": 0,
								"slot": "4",
								"type": "t_uint256"
							},
							{
								"astId": 291,
								"contract": "contracts/CalismaBilgileri.sol:CalismaBilgileri",
								"label": "ulke",
								"offset": 0,
								"slot": "5",
								"type": "t_uint8"
							},
							{
								"astId": 293,
								"contract": "contracts/CalismaBilgileri.sol:CalismaBilgileri",
								"label": "sehir",
								"offset": 1,
								"slot": "5",
								"type": "t_uint32"
							}
						],
						"numberOfBytes": "192"
					},
					"t_struct(Firma)71_storage": {
						"encoding": "inplace",
						"label": "struct BaseContract.Firma",
						"members": [
							{
								"astId": 64,
								"contract": "contracts/CalismaBilgileri.sol:CalismaBilgileri",
								"label": "durum",
								"offset": 0,
								"slot": "0",
								"type": "t_bool"
							},
							{
								"astId": 66,
								"contract": "contracts/CalismaBilgileri.sol:CalismaBilgileri",
								"label": "ulke",
								"offset": 1,
								"slot": "0",
								"type": "t_uint8"
							},
							{
								"astId": 68,
								"contract": "contracts/CalismaBilgileri.sol:CalismaBilgileri",
								"label": "vergiNo",
								"offset": 0,
								"slot": "1",
								"type": "t_uint256"
							},
							{
								"astId": 70,
								"contract": "contracts/CalismaBilgileri.sol:CalismaBilgileri",
								"label": "isim",
								"offset": 0,
								"slot": "2",
								"type": "t_string_storage"
							}
						],
						"numberOfBytes": "96"
					},
					"t_struct(KamuKurumu)78_storage": {
						"encoding": "inplace",
						"label": "struct BaseContract.KamuKurumu",
						"members": [
							{
								"astId": 73,
								"contract": "contracts/CalismaBilgileri.sol:CalismaBilgileri",
								"label": "durum",
								"offset": 0,
								"slot": "0",
								"type": "t_bool"
							},
							{
								"astId": 75,
								"contract": "contracts/CalismaBilgileri.sol:CalismaBilgileri",
								"label": "isim",
								"offset": 0,
								"slot": "1",
								"type": "t_string_storage"
							},
							{
								"astId": 77,
								"contract": "contracts/CalismaBilgileri.sol:CalismaBilgileri",
								"label": "ulke",
								"offset": 0,
								"slot": "2",
								"type": "t_uint8"
							}
						],
						"numberOfBytes": "96"
					},
					"t_struct(Kisi)10_storage": {
						"encoding": "inplace",
						"label": "struct BaseContract.Kisi",
						"members": [
							{
								"astId": 9,
								"contract": "contracts/CalismaBilgileri.sol:CalismaBilgileri",
								"label": "durum",
								"offset": 0,
								"slot": "0",
								"type": "t_bool"
							}
						],
						"numberOfBytes": "32"
					},
					"t_struct(Kurs)99_storage": {
						"encoding": "inplace",
						"label": "struct BaseContract.Kurs",
						"members": [
							{
								"astId": 94,
								"contract": "contracts/CalismaBilgileri.sol:CalismaBilgileri",
								"label": "durum",
								"offset": 0,
								"slot": "0",
								"type": "t_bool"
							},
							{
								"astId": 96,
								"contract": "contracts/CalismaBilgileri.sol:CalismaBilgileri",
								"label": "isim",
								"offset": 0,
								"slot": "1",
								"type": "t_string_storage"
							},
							{
								"astId": 98,
								"contract": "contracts/CalismaBilgileri.sol:CalismaBilgileri",
								"label": "ulke",
								"offset": 0,
								"slot": "2",
								"type": "t_uint8"
							}
						],
						"numberOfBytes": "96"
					},
					"t_struct(STK)85_storage": {
						"encoding": "inplace",
						"label": "struct BaseContract.STK",
						"members": [
							{
								"astId": 80,
								"contract": "contracts/CalismaBilgileri.sol:CalismaBilgileri",
								"label": "durum",
								"offset": 0,
								"slot": "0",
								"type": "t_bool"
							},
							{
								"astId": 82,
								"contract": "contracts/CalismaBilgileri.sol:CalismaBilgileri",
								"label": "isim",
								"offset": 0,
								"slot": "1",
								"type": "t_string_storage"
							},
							{
								"astId": 84,
								"contract": "contracts/CalismaBilgileri.sol:CalismaBilgileri",
								"label": "ulke",
								"offset": 0,
								"slot": "2",
								"type": "t_uint8"
							}
						],
						"numberOfBytes": "96"
					},
					"t_struct(SertifikaMerkezi)92_storage": {
						"encoding": "inplace",
						"label": "struct BaseContract.SertifikaMerkezi",
						"members": [
							{
								"astId": 87,
								"contract": "contracts/CalismaBilgileri.sol:CalismaBilgileri",
								"label": "durum",
								"offset": 0,
								"slot": "0",
								"type": "t_bool"
							},
							{
								"astId": 89,
								"contract": "contracts/CalismaBilgileri.sol:CalismaBilgileri",
								"label": "isim",
								"offset": 0,
								"slot": "1",
								"type": "t_string_storage"
							},
							{
								"astId": 91,
								"contract": "contracts/CalismaBilgileri.sol:CalismaBilgileri",
								"label": "ulke",
								"offset": 0,
								"slot": "2",
								"type": "t_uint8"
							}
						],
						"numberOfBytes": "96"
					},
					"t_struct(Universite)17_storage": {
						"encoding": "inplace",
						"label": "struct BaseContract.Universite",
						"members": [
							{
								"astId": 12,
								"contract": "contracts/CalismaBilgileri.sol:CalismaBilgileri",
								"label": "durum",
								"offset": 0,
								"slot": "0",
								"type": "t_bool"
							},
							{
								"astId": 14,
								"contract": "contracts/CalismaBilgileri.sol:CalismaBilgileri",
								"label": "isim",
								"offset": 0,
								"slot": "1",
								"type": "t_string_storage"
							},
							{
								"astId": 16,
								"contract": "contracts/CalismaBilgileri.sol:CalismaBilgileri",
								"label": "ulke",
								"offset": 0,
								"slot": "2",
								"type": "t_uint8"
							}
						],
						"numberOfBytes": "96"
					},
					"t_struct(YabanciDil)104_storage": {
						"encoding": "inplace",
						"label": "struct BaseContract.YabanciDil",
						"members": [
							{
								"astId": 101,
								"contract": "contracts/CalismaBilgileri.sol:CalismaBilgileri",
								"label": "id",
								"offset": 0,
								"slot": "0",
								"type": "t_uint32"
							},
							{
								"astId": 103,
								"contract": "contracts/CalismaBilgileri.sol:CalismaBilgileri",
								"label": "isim",
								"offset": 0,
								"slot": "1",
								"type": "t_string_storage"
							}
						],
						"numberOfBytes": "64"
					},
					"t_uint16": {
						"encoding": "inplace",
						"label": "uint16",
						"numberOfBytes": "2"
					},
					"t_uint256": {
						"encoding": "inplace",
						"label": "uint256",
						"numberOfBytes": "32"
					},
					"t_uint32": {
						"encoding": "inplace",
						"label": "uint32",
						"numberOfBytes": "4"
					},
					"t_uint8": {
						"encoding": "inplace",
						"label": "uint8",
						"numberOfBytes": "1"
					}
				}
			},
			"userdoc": {
				"kind": "user",
				"methods": {},
				"version": 1
			}
		}
	}
}