{
	"contracts/YabanciDilBilgileri.sol": {
		"YabanciDilBilgileri": {
			"abi": [
				{
					"anonymous": false,
					"inputs": [
						{
							"indexed": false,
							"internalType": "enum BaseContract.OnaylayanKurum",
							"name": "_onaylayanKurumTipi",
							"type": "uint8"
						},
						{
							"indexed": false,
							"internalType": "uint256",
							"name": "_basTarih",
							"type": "uint256"
						},
						{
							"indexed": false,
							"internalType": "uint256",
							"name": "_bitTarih",
							"type": "uint256"
						},
						{
							"indexed": false,
							"internalType": "enum EgitimBilgileri.OgretimTipi",
							"name": "_ogretimTipi",
							"type": "uint8"
						},
						{
							"indexed": false,
							"internalType": "uint32",
							"name": "_dilId",
							"type": "uint32"
						}
					],
					"name": "YabanciDilEklendiLog",
					"type": "event"
				},
				{
					"anonymous": false,
					"inputs": [
						{
							"indexed": false,
							"internalType": "enum BaseContract.OnaylayanKurum",
							"name": "_onaylayanKurumTipi",
							"type": "uint8"
						},
						{
							"indexed": false,
							"internalType": "uint256",
							"name": "_basTarih",
							"type": "uint256"
						},
						{
							"indexed": false,
							"internalType": "uint256",
							"name": "_bitTarih",
							"type": "uint256"
						},
						{
							"indexed": false,
							"internalType": "enum EgitimBilgileri.OgretimTipi",
							"name": "_ogretimTipi",
							"type": "uint8"
						},
						{
							"indexed": false,
							"internalType": "uint32",
							"name": "_dilId",
							"type": "uint32"
						}
					],
					"name": "YabanciDilGuncellendiLog",
					"type": "event"
				},
				{
					"anonymous": false,
					"inputs": [
						{
							"indexed": false,
							"internalType": "address",
							"name": "_talepEdilenKurum",
							"type": "address"
						},
						{
							"indexed": false,
							"internalType": "uint256",
							"name": "_basTarih",
							"type": "uint256"
						},
						{
							"indexed": false,
							"internalType": "uint256",
							"name": "_bitTarih",
							"type": "uint256"
						},
						{
							"indexed": false,
							"internalType": "enum EgitimBilgileri.OgretimTipi",
							"name": "_ogretimTipi",
							"type": "uint8"
						},
						{
							"indexed": false,
							"internalType": "uint32",
							"name": "_dilId",
							"type": "uint32"
						}
					],
					"name": "YabanciDilTalepEdildiLog",
					"type": "event"
				},
				{
					"inputs": [
						{
							"internalType": "address",
							"name": "",
							"type": "address"
						}
					],
					"name": "akademisyenler",
					"outputs": [
						{
							"internalType": "bool",
							"name": "durum",
							"type": "bool"
						},
						{
							"internalType": "address",
							"name": "universite",
							"type": "address"
						},
						{
							"internalType": "uint16",
							"name": "bolum",
							"type": "uint16"
						},
						{
							"internalType": "enum BaseContract.Unvan",
							"name": "unvan",
							"type": "uint8"
						},
						{
							"internalType": "string",
							"name": "ad",
							"type": "string"
						},
						{
							"internalType": "string",
							"name": "soyad",
							"type": "string"
						}
					],
					"stateMutability": "view",
					"type": "function"
				},
				{
					"inputs": [
						{
							"internalType": "uint32",
							"name": "",
							"type": "uint32"
						}
					],
					"name": "diller",
					"outputs": [
						{
							"internalType": "uint32",
							"name": "id",
							"type": "uint32"
						},
						{
							"internalType": "string",
							"name": "isim",
							"type": "string"
						}
					],
					"stateMutability": "view",
					"type": "function"
				},
				{
					"inputs": [
						{
							"internalType": "address",
							"name": "_kisiAddress",
							"type": "address"
						},
						{
							"internalType": "enum BaseContract.OnaylayanKurum",
							"name": "onayKurumTipi",
							"type": "uint8"
						},
						{
							"internalType": "uint256",
							"name": "basTarih",
							"type": "uint256"
						},
						{
							"internalType": "uint256",
							"name": "bitTarih",
							"type": "uint256"
						},
						{
							"internalType": "enum EgitimBilgileri.OgretimTipi",
							"name": "ogretimTipi",
							"type": "uint8"
						},
						{
							"internalType": "uint32",
							"name": "dilId",
							"type": "uint32"
						},
						{
							"internalType": "enum BaseContract.Seviye",
							"name": "seviye",
							"type": "uint8"
						}
					],
					"name": "ekleYabanciDilBilgi",
					"outputs": [],
					"stateMutability": "nonpayable",
					"type": "function"
				},
				{
					"inputs": [
						{
							"internalType": "address",
							"name": "",
							"type": "address"
						}
					],
					"name": "firmalar",
					"outputs": [
						{
							"internalType": "bool",
							"name": "durum",
							"type": "bool"
						},
						{
							"internalType": "uint8",
							"name": "ulke",
							"type": "uint8"
						},
						{
							"internalType": "uint256",
							"name": "vergiNo",
							"type": "uint256"
						},
						{
							"internalType": "string",
							"name": "isim",
							"type": "string"
						}
					],
					"stateMutability": "view",
					"type": "function"
				},
				{
					"inputs": [
						{
							"internalType": "address",
							"name": "_kisiAddress",
							"type": "address"
						},
						{
							"internalType": "uint256",
							"name": "ydBilgiId",
							"type": "uint256"
						},
						{
							"internalType": "enum BaseContract.OnaylayanKurum",
							"name": "onayKurumTipi",
							"type": "uint8"
						},
						{
							"internalType": "uint256",
							"name": "basTarih",
							"type": "uint256"
						},
						{
							"internalType": "uint256",
							"name": "bitTarih",
							"type": "uint256"
						},
						{
							"internalType": "enum EgitimBilgileri.OgretimTipi",
							"name": "ogretimTipi",
							"type": "uint8"
						},
						{
							"internalType": "uint32",
							"name": "dilId",
							"type": "uint32"
						},
						{
							"internalType": "enum BaseContract.Seviye",
							"name": "seviye",
							"type": "uint8"
						}
					],
					"name": "guncelleYabanciDilBilgi",
					"outputs": [
						{
							"internalType": "uint256",
							"name": "",
							"type": "uint256"
						}
					],
					"stateMutability": "nonpayable",
					"type": "function"
				},
				{
					"inputs": [],
					"name": "id",
					"outputs": [
						{
							"internalType": "uint256",
							"name": "",
							"type": "uint256"
						}
					],
					"stateMutability": "view",
					"type": "function"
				},
				{
					"inputs": [
						{
							"internalType": "address",
							"name": "",
							"type": "address"
						}
					],
					"name": "kamuKurumlari",
					"outputs": [
						{
							"internalType": "bool",
							"name": "durum",
							"type": "bool"
						},
						{
							"internalType": "string",
							"name": "isim",
							"type": "string"
						},
						{
							"internalType": "uint8",
							"name": "ulke",
							"type": "uint8"
						}
					],
					"stateMutability": "view",
					"type": "function"
				},
				{
					"inputs": [
						{
							"internalType": "address",
							"name": "",
							"type": "address"
						}
					],
					"name": "kisiler",
					"outputs": [
						{
							"internalType": "bool",
							"name": "durum",
							"type": "bool"
						}
					],
					"stateMutability": "view",
					"type": "function"
				},
				{
					"inputs": [
						{
							"internalType": "address",
							"name": "",
							"type": "address"
						}
					],
					"name": "kurslar",
					"outputs": [
						{
							"internalType": "bool",
							"name": "durum",
							"type": "bool"
						},
						{
							"internalType": "string",
							"name": "isim",
							"type": "string"
						},
						{
							"internalType": "uint8",
							"name": "ulke",
							"type": "uint8"
						}
					],
					"stateMutability": "view",
					"type": "function"
				},
				{
					"inputs": [
						{
							"internalType": "address",
							"name": "",
							"type": "address"
						}
					],
					"name": "sertifikaMerkezleri",
					"outputs": [
						{
							"internalType": "bool",
							"name": "durum",
							"type": "bool"
						},
						{
							"internalType": "string",
							"name": "isim",
							"type": "string"
						},
						{
							"internalType": "uint8",
							"name": "ulke",
							"type": "uint8"
						}
					],
					"stateMutability": "view",
					"type": "function"
				},
				{
					"inputs": [
						{
							"internalType": "address",
							"name": "",
							"type": "address"
						}
					],
					"name": "stklar",
					"outputs": [
						{
							"internalType": "bool",
							"name": "durum",
							"type": "bool"
						},
						{
							"internalType": "string",
							"name": "isim",
							"type": "string"
						},
						{
							"internalType": "uint8",
							"name": "ulke",
							"type": "uint8"
						}
					],
					"stateMutability": "view",
					"type": "function"
				},
				{
					"inputs": [
						{
							"internalType": "address",
							"name": "_talepEdilenKurum",
							"type": "address"
						},
						{
							"internalType": "uint256",
							"name": "basTarih",
							"type": "uint256"
						},
						{
							"internalType": "uint256",
							"name": "bitTarih",
							"type": "uint256"
						},
						{
							"internalType": "enum EgitimBilgileri.OgretimTipi",
							"name": "ogretimTipi",
							"type": "uint8"
						},
						{
							"internalType": "uint32",
							"name": "dilId",
							"type": "uint32"
						},
						{
							"internalType": "enum BaseContract.Seviye",
							"name": "seviye",
							"type": "uint8"
						}
					],
					"name": "talepEtYabanciDilBilgi",
					"outputs": [],
					"stateMutability": "nonpayable",
					"type": "function"
				},
				{
					"inputs": [
						{
							"internalType": "address",
							"name": "",
							"type": "address"
						}
					],
					"name": "universiteler",
					"outputs": [
						{
							"internalType": "bool",
							"name": "durum",
							"type": "bool"
						},
						{
							"internalType": "string",
							"name": "isim",
							"type": "string"
						},
						{
							"internalType": "uint8",
							"name": "ulke",
							"type": "uint8"
						}
					],
					"stateMutability": "view",
					"type": "function"
				},
				{
					"inputs": [
						{
							"internalType": "address",
							"name": "",
							"type": "address"
						},
						{
							"internalType": "uint256",
							"name": "",
							"type": "uint256"
						}
					],
					"name": "yabanciDilBilgiListesi",
					"outputs": [
						{
							"internalType": "uint256",
							"name": "id",
							"type": "uint256"
						},
						{
							"internalType": "address",
							"name": "talepEdilenKurum",
							"type": "address"
						},
						{
							"internalType": "enum BaseContract.OnaylayanKurum",
							"name": "onayKurumTipi",
							"type": "uint8"
						},
						{
							"internalType": "uint256",
							"name": "basTarih",
							"type": "uint256"
						},
						{
							"internalType": "uint256",
							"name": "bitTarih",
							"type": "uint256"
						},
						{
							"internalType": "enum EgitimBilgileri.OgretimTipi",
							"name": "ogretimTipi",
							"type": "uint8"
						},
						{
							"internalType": "uint32",
							"name": "dilId",
							"type": "uint32"
						},
						{
							"internalType": "enum BaseContract.Seviye",
							"name": "seviye",
							"type": "uint8"
						},
						{
							"components": [
								{
									"internalType": "uint256",
									"name": "zaman",
									"type": "uint256"
								},
								{
									"internalType": "address",
									"name": "adres",
									"type": "address"
								},
								{
									"internalType": "enum BaseContract.OnayDurum",
									"name": "durum",
									"type": "uint8"
								}
							],
							"internalType": "struct BaseContract.Onay",
							"name": "onayBilgi",
							"type": "tuple"
						}
					],
					"stateMutability": "view",
					"type": "function"
				}
			],
			"devdoc": {
				"kind": "dev",
				"methods": {},
				"version": 1
			},
			"evm": {
				"assembly": "    /* \"contracts/YabanciDilBilgileri.sol\":137:4764  contract YabanciDilBilgileri is BaseContract{\r... */\n  mstore(0x40, 0x80)\n  callvalue\n  dup1\n  iszero\n  tag_1\n  jumpi\n  0x00\n  dup1\n  revert\ntag_1:\n  pop\n  dataSize(sub_0)\n  dup1\n  dataOffset(sub_0)\n  0x00\n  codecopy\n  0x00\n  return\nstop\n\nsub_0: assembly {\n        /* \"contracts/YabanciDilBilgileri.sol\":137:4764  contract YabanciDilBilgileri is BaseContract{\r... */\n      mstore(0x40, 0x80)\n      callvalue\n      dup1\n      iszero\n      tag_1\n      jumpi\n      0x00\n      dup1\n      revert\n    tag_1:\n      pop\n      jumpi(tag_2, lt(calldatasize, 0x04))\n      shr(0xe0, calldataload(0x00))\n      dup1\n      0x7d0fa287\n      gt\n      tag_17\n      jumpi\n      dup1\n      0xaf640d0f\n      gt\n      tag_18\n      jumpi\n      dup1\n      0xaf640d0f\n      eq\n      tag_13\n      jumpi\n      dup1\n      0xba479b7e\n      eq\n      tag_14\n      jumpi\n      dup1\n      0xc0942d97\n      eq\n      tag_15\n      jumpi\n      dup1\n      0xcbc92809\n      eq\n      tag_16\n      jumpi\n      jump(tag_2)\n    tag_18:\n      dup1\n      0x7d0fa287\n      eq\n      tag_10\n      jumpi\n      dup1\n      0x9a8c9119\n      eq\n      tag_11\n      jumpi\n      dup1\n      0xa4e7ae05\n      eq\n      tag_12\n      jumpi\n      jump(tag_2)\n    tag_17:\n      dup1\n      0x28266697\n      gt\n      tag_19\n      jumpi\n      dup1\n      0x28266697\n      eq\n      tag_6\n      jumpi\n      dup1\n      0x356b1f1e\n      eq\n      tag_7\n      jumpi\n      dup1\n      0x39987f94\n      eq\n      tag_8\n      jumpi\n      dup1\n      0x64b2c66b\n      eq\n      tag_9\n      jumpi\n      jump(tag_2)\n    tag_19:\n      dup1\n      0x011c05e1\n      eq\n      tag_3\n      jumpi\n      dup1\n      0x1916e139\n      eq\n      tag_4\n      jumpi\n      dup1\n      0x1a0dda7f\n      eq\n      tag_5\n      jumpi\n    tag_2:\n      0x00\n      dup1\n      revert\n        /* \"contracts/YabanciDilBilgileri.sol\":3606:4759  function talepEtYabanciDilBilgi(address _talepEdilenKurum, uint basTarih, uint bitTarih, EgitimBilgileri.OgretimTipi ogretimTipi, uint32 dilId, Seviye seviye)  public sadeceKisi{\r... */\n    tag_3:\n      tag_20\n      0x04\n      dup1\n      calldatasize\n      sub\n      dup2\n      add\n      swap1\n      tag_21\n      swap2\n      swap1\n      tag_22\n      jump\t// in\n    tag_21:\n      tag_23\n      jump\t// in\n    tag_20:\n      stop\n        /* \"contracts/BaseContract.sol\":3293:3331  mapping(address=>Kurs) public  kurslar */\n    tag_4:\n      tag_24\n      0x04\n      dup1\n      calldatasize\n      sub\n      dup2\n      add\n      swap1\n      tag_25\n      swap2\n      swap1\n      tag_26\n      jump\t// in\n    tag_25:\n      tag_27\n      jump\t// in\n    tag_24:\n      mload(0x40)\n      tag_28\n      swap4\n      swap3\n      swap2\n      swap1\n      tag_29\n      jump\t// in\n    tag_28:\n      mload(0x40)\n      dup1\n      swap2\n      sub\n      swap1\n      return\n        /* \"contracts/YabanciDilBilgileri.sol\":2303:3598  function guncelleYabanciDilBilgi(address _kisiAddress,uint ydBilgiId, OnaylayanKurum onayKurumTipi, uint basTarih, uint bitTarih, EgitimBilgileri.OgretimTipi ogretimTipi, uint32 dilId, Seviye seviye)  public sadece_Uni_Firma_Kamu returns(uint){\r... */\n    tag_5:\n      tag_30\n      0x04\n      dup1\n      calldatasize\n      sub\n      dup2\n      add\n      swap1\n      tag_31\n      swap2\n      swap1\n      tag_32\n      jump\t// in\n    tag_31:\n      tag_33\n      jump\t// in\n    tag_30:\n      mload(0x40)\n      tag_34\n      swap2\n      swap1\n      tag_35\n      jump\t// in\n    tag_34:\n      mload(0x40)\n      dup1\n      swap2\n      sub\n      swap1\n      return\n        /* \"contracts/BaseContract.sol\":3132:3181  mapping(address=>Universite) public universiteler */\n    tag_6:\n      tag_36\n      0x04\n      dup1\n      calldatasize\n      sub\n      dup2\n      add\n      swap1\n      tag_37\n      swap2\n      swap1\n      tag_26\n      jump\t// in\n    tag_37:\n      tag_38\n      jump\t// in\n    tag_36:\n      mload(0x40)\n      tag_39\n      swap4\n      swap3\n      swap2\n      swap1\n      tag_29\n      jump\t// in\n    tag_39:\n      mload(0x40)\n      dup1\n      swap2\n      sub\n      swap1\n      return\n        /* \"contracts/BaseContract.sol\":3436:3497  mapping(address=>SertifikaMerkezi) public sertifikaMerkezleri */\n    tag_7:\n      tag_40\n      0x04\n      dup1\n      calldatasize\n      sub\n      dup2\n      add\n      swap1\n      tag_41\n      swap2\n      swap1\n      tag_26\n      jump\t// in\n    tag_41:\n      tag_42\n      jump\t// in\n    tag_40:\n      mload(0x40)\n      tag_43\n      swap4\n      swap3\n      swap2\n      swap1\n      tag_29\n      jump\t// in\n    tag_43:\n      mload(0x40)\n      dup1\n      swap2\n      sub\n      swap1\n      return\n        /* \"contracts/BaseContract.sol\":3246:3286  mapping(address=>Firma) public  firmalar */\n    tag_8:\n      tag_44\n      0x04\n      dup1\n      calldatasize\n      sub\n      dup2\n      add\n      swap1\n      tag_45\n      swap2\n      swap1\n      tag_26\n      jump\t// in\n    tag_45:\n      tag_46\n      jump\t// in\n    tag_44:\n      mload(0x40)\n      tag_47\n      swap5\n      swap4\n      swap3\n      swap2\n      swap1\n      tag_48\n      jump\t// in\n    tag_47:\n      mload(0x40)\n      dup1\n      swap2\n      sub\n      swap1\n      return\n        /* \"contracts/YabanciDilBilgileri.sol\":530:608  mapping(address=>mapping(uint=>YabanciDilBilgi)) public yabanciDilBilgiListesi */\n    tag_9:\n      tag_49\n      0x04\n      dup1\n      calldatasize\n      sub\n      dup2\n      add\n      swap1\n      tag_50\n      swap2\n      swap1\n      tag_51\n      jump\t// in\n    tag_50:\n      tag_52\n      jump\t// in\n    tag_49:\n      mload(0x40)\n      tag_53\n      swap10\n      swap9\n      swap8\n      swap7\n      swap6\n      swap5\n      swap4\n      swap3\n      swap2\n      swap1\n      tag_54\n      jump\t// in\n    tag_53:\n      mload(0x40)\n      dup1\n      swap2\n      sub\n      swap1\n      return\n        /* \"contracts/BaseContract.sol\":3338:3387  mapping(address=>KamuKurumu) public kamuKurumlari */\n    tag_10:\n      tag_55\n      0x04\n      dup1\n      calldatasize\n      sub\n      dup2\n      add\n      swap1\n      tag_56\n      swap2\n      swap1\n      tag_26\n      jump\t// in\n    tag_56:\n      tag_57\n      jump\t// in\n    tag_55:\n      mload(0x40)\n      tag_58\n      swap4\n      swap3\n      swap2\n      swap1\n      tag_29\n      jump\t// in\n    tag_58:\n      mload(0x40)\n      dup1\n      swap2\n      sub\n      swap1\n      return\n        /* \"contracts/BaseContract.sol\":3394:3429  mapping(address=>STK) public stklar */\n    tag_11:\n      tag_59\n      0x04\n      dup1\n      calldatasize\n      sub\n      dup2\n      add\n      swap1\n      tag_60\n      swap2\n      swap1\n      tag_26\n      jump\t// in\n    tag_60:\n      tag_61\n      jump\t// in\n    tag_59:\n      mload(0x40)\n      tag_62\n      swap4\n      swap3\n      swap2\n      swap1\n      tag_29\n      jump\t// in\n    tag_62:\n      mload(0x40)\n      dup1\n      swap2\n      sub\n      swap1\n      return\n        /* \"contracts/BaseContract.sol\":3505:3546  mapping(uint32=>YabanciDil) public diller */\n    tag_12:\n      tag_63\n      0x04\n      dup1\n      calldatasize\n      sub\n      dup2\n      add\n      swap1\n      tag_64\n      swap2\n      swap1\n      tag_65\n      jump\t// in\n    tag_64:\n      tag_66\n      jump\t// in\n    tag_63:\n      mload(0x40)\n      tag_67\n      swap3\n      swap2\n      swap1\n      tag_68\n      jump\t// in\n    tag_67:\n      mload(0x40)\n      dup1\n      swap2\n      sub\n      swap1\n      return\n        /* \"contracts/YabanciDilBilgileri.sol\":186:200  uint public id */\n    tag_13:\n      tag_69\n      tag_70\n      jump\t// in\n    tag_69:\n      mload(0x40)\n      tag_71\n      swap2\n      swap1\n      tag_35\n      jump\t// in\n    tag_71:\n      mload(0x40)\n      dup1\n      swap2\n      sub\n      swap1\n      return\n        /* \"contracts/BaseContract.sol\":3188:3239  mapping(address=>Akademisyen) public akademisyenler */\n    tag_14:\n      tag_72\n      0x04\n      dup1\n      calldatasize\n      sub\n      dup2\n      add\n      swap1\n      tag_73\n      swap2\n      swap1\n      tag_26\n      jump\t// in\n    tag_73:\n      tag_74\n      jump\t// in\n    tag_72:\n      mload(0x40)\n      tag_75\n      swap7\n      swap6\n      swap5\n      swap4\n      swap3\n      swap2\n      swap1\n      tag_76\n      jump\t// in\n    tag_75:\n      mload(0x40)\n      dup1\n      swap2\n      sub\n      swap1\n      return\n        /* \"contracts/YabanciDilBilgileri.sol\":1105:2291  function ekleYabanciDilBilgi(address _kisiAddress, OnaylayanKurum onayKurumTipi, uint basTarih, uint bitTarih, EgitimBilgileri.OgretimTipi ogretimTipi, uint32 dilId, Seviye seviye)  public sadece_Uni_Firma_Kamu{\r... */\n    tag_15:\n      tag_77\n      0x04\n      dup1\n      calldatasize\n      sub\n      dup2\n      add\n      swap1\n      tag_78\n      swap2\n      swap1\n      tag_79\n      jump\t// in\n    tag_78:\n      tag_80\n      jump\t// in\n    tag_77:\n      stop\n        /* \"contracts/BaseContract.sol\":3088:3125  mapping(address=>Kisi) public kisiler */\n    tag_16:\n      tag_81\n      0x04\n      dup1\n      calldatasize\n      sub\n      dup2\n      add\n      swap1\n      tag_82\n      swap2\n      swap1\n      tag_26\n      jump\t// in\n    tag_82:\n      tag_83\n      jump\t// in\n    tag_81:\n      mload(0x40)\n      tag_84\n      swap2\n      swap1\n      tag_85\n      jump\t// in\n    tag_84:\n      mload(0x40)\n      dup1\n      swap2\n      sub\n      swap1\n      return\n        /* \"contracts/YabanciDilBilgileri.sol\":3606:4759  function talepEtYabanciDilBilgi(address _talepEdilenKurum, uint basTarih, uint bitTarih, EgitimBilgileri.OgretimTipi ogretimTipi, uint32 dilId, Seviye seviye)  public sadeceKisi{\r... */\n    tag_23:\n        /* \"contracts/BaseContract.sol\":2124:2131  kisiler */\n      0x03\n        /* \"contracts/BaseContract.sol\":2124:2143  kisiler[msg.sender] */\n      0x00\n        /* \"contracts/BaseContract.sol\":2132:2142  msg.sender */\n      caller\n        /* \"contracts/BaseContract.sol\":2124:2143  kisiler[msg.sender] */\n      0xffffffffffffffffffffffffffffffffffffffff\n      and\n      0xffffffffffffffffffffffffffffffffffffffff\n      and\n      dup2\n      mstore\n      0x20\n      add\n      swap1\n      dup2\n      mstore\n      0x20\n      add\n      0x00\n      keccak256\n        /* \"contracts/BaseContract.sol\":2124:2149  kisiler[msg.sender].durum */\n      0x00\n      add\n      0x00\n      swap1\n      sload\n      swap1\n      0x0100\n      exp\n      swap1\n      div\n      0xff\n      and\n        /* \"contracts/BaseContract.sol\":2116:2201  require(kisiler[msg.sender].durum,\r... */\n      tag_87\n      jumpi\n      mload(0x40)\n      0x08c379a000000000000000000000000000000000000000000000000000000000\n      dup2\n      mstore\n      0x04\n      add\n      tag_88\n      swap1\n      tag_89\n      jump\t// in\n    tag_88:\n      mload(0x40)\n      dup1\n      swap2\n      sub\n      swap1\n      revert\n    tag_87:\n        /* \"contracts/YabanciDilBilgileri.sol\":3807:3814  kisiler */\n      0x03\n        /* \"contracts/YabanciDilBilgileri.sol\":3807:3826  kisiler[msg.sender] */\n      0x00\n        /* \"contracts/YabanciDilBilgileri.sol\":3815:3825  msg.sender */\n      caller\n        /* \"contracts/YabanciDilBilgileri.sol\":3807:3826  kisiler[msg.sender] */\n      0xffffffffffffffffffffffffffffffffffffffff\n      and\n      0xffffffffffffffffffffffffffffffffffffffff\n      and\n      dup2\n      mstore\n      0x20\n      add\n      swap1\n      dup2\n      mstore\n      0x20\n      add\n      0x00\n      keccak256\n        /* \"contracts/YabanciDilBilgileri.sol\":3807:3832  kisiler[msg.sender].durum */\n      0x00\n      add\n      0x00\n      swap1\n      sload\n      swap1\n      0x0100\n      exp\n      swap1\n      div\n      0xff\n      and\n        /* \"contracts/YabanciDilBilgileri.sol\":3799:3853  require(kisiler[msg.sender].durum,\"Kisi mevcut degil\") */\n      tag_91\n      jumpi\n      mload(0x40)\n      0x08c379a000000000000000000000000000000000000000000000000000000000\n      dup2\n      mstore\n      0x04\n      add\n      tag_92\n      swap1\n      tag_93\n      jump\t// in\n    tag_92:\n      mload(0x40)\n      dup1\n      swap2\n      sub\n      swap1\n      revert\n    tag_91:\n        /* \"contracts/YabanciDilBilgileri.sol\":3869:3880  uint yeniId */\n      0x00\n        /* \"contracts/YabanciDilBilgileri.sol\":3881:3883  id */\n      0x0c\n      0x00\n        /* \"contracts/YabanciDilBilgileri.sol\":3881:3885  id++ */\n      dup2\n      sload\n      dup1\n      swap3\n      swap2\n      swap1\n      tag_94\n      swap1\n      tag_95\n      jump\t// in\n    tag_94:\n      swap2\n      swap1\n      pop\n      sstore\n        /* \"contracts/YabanciDilBilgileri.sol\":3869:3885  uint yeniId=id++ */\n      swap1\n      pop\n        /* \"contracts/YabanciDilBilgileri.sol\":3963:3980  _talepEdilenKurum */\n      dup7\n        /* \"contracts/YabanciDilBilgileri.sol\":3903:3925  yabanciDilBilgiListesi */\n      0x0d\n        /* \"contracts/YabanciDilBilgileri.sol\":3903:3937  yabanciDilBilgiListesi[msg.sender] */\n      0x00\n        /* \"contracts/YabanciDilBilgileri.sol\":3926:3936  msg.sender */\n      caller\n        /* \"contracts/YabanciDilBilgileri.sol\":3903:3937  yabanciDilBilgiListesi[msg.sender] */\n      0xffffffffffffffffffffffffffffffffffffffff\n      and\n      0xffffffffffffffffffffffffffffffffffffffff\n      and\n      dup2\n      mstore\n      0x20\n      add\n      swap1\n      dup2\n      mstore\n      0x20\n      add\n      0x00\n      keccak256\n        /* \"contracts/YabanciDilBilgileri.sol\":3903:3945  yabanciDilBilgiListesi[msg.sender][yeniId] */\n      0x00\n        /* \"contracts/YabanciDilBilgileri.sol\":3938:3944  yeniId */\n      dup4\n        /* \"contracts/YabanciDilBilgileri.sol\":3903:3945  yabanciDilBilgiListesi[msg.sender][yeniId] */\n      dup2\n      mstore\n      0x20\n      add\n      swap1\n      dup2\n      mstore\n      0x20\n      add\n      0x00\n      keccak256\n        /* \"contracts/YabanciDilBilgileri.sol\":3903:3962  yabanciDilBilgiListesi[msg.sender][yeniId].talepEdilenKurum */\n      0x01\n      add\n      0x00\n        /* \"contracts/YabanciDilBilgileri.sol\":3903:3980  yabanciDilBilgiListesi[msg.sender][yeniId].talepEdilenKurum=_talepEdilenKurum */\n      0x0100\n      exp\n      dup2\n      sload\n      dup2\n      0xffffffffffffffffffffffffffffffffffffffff\n      mul\n      not\n      and\n      swap1\n      dup4\n      0xffffffffffffffffffffffffffffffffffffffff\n      and\n      mul\n      or\n      swap1\n      sstore\n      pop\n        /* \"contracts/YabanciDilBilgileri.sol\":4048:4056  basTarih */\n      dup6\n        /* \"contracts/YabanciDilBilgileri.sol\":3996:4018  yabanciDilBilgiListesi */\n      0x0d\n        /* \"contracts/YabanciDilBilgileri.sol\":3996:4030  yabanciDilBilgiListesi[msg.sender] */\n      0x00\n        /* \"contracts/YabanciDilBilgileri.sol\":4019:4029  msg.sender */\n      caller\n        /* \"contracts/YabanciDilBilgileri.sol\":3996:4030  yabanciDilBilgiListesi[msg.sender] */\n      0xffffffffffffffffffffffffffffffffffffffff\n      and\n      0xffffffffffffffffffffffffffffffffffffffff\n      and\n      dup2\n      mstore\n      0x20\n      add\n      swap1\n      dup2\n      mstore\n      0x20\n      add\n      0x00\n      keccak256\n        /* \"contracts/YabanciDilBilgileri.sol\":3996:4038  yabanciDilBilgiListesi[msg.sender][yeniId] */\n      0x00\n        /* \"contracts/YabanciDilBilgileri.sol\":4031:4037  yeniId */\n      dup4\n        /* \"contracts/YabanciDilBilgileri.sol\":3996:4038  yabanciDilBilgiListesi[msg.sender][yeniId] */\n      dup2\n      mstore\n      0x20\n      add\n      swap1\n      dup2\n      mstore\n      0x20\n      add\n      0x00\n      keccak256\n        /* \"contracts/YabanciDilBilgileri.sol\":3996:4047  yabanciDilBilgiListesi[msg.sender][yeniId].basTarih */\n      0x02\n      add\n        /* \"contracts/YabanciDilBilgileri.sol\":3996:4056  yabanciDilBilgiListesi[msg.sender][yeniId].basTarih=basTarih */\n      dup2\n      swap1\n      sstore\n      pop\n        /* \"contracts/YabanciDilBilgileri.sol\":4124:4132  bitTarih */\n      dup5\n        /* \"contracts/YabanciDilBilgileri.sol\":4072:4094  yabanciDilBilgiListesi */\n      0x0d\n        /* \"contracts/YabanciDilBilgileri.sol\":4072:4106  yabanciDilBilgiListesi[msg.sender] */\n      0x00\n        /* \"contracts/YabanciDilBilgileri.sol\":4095:4105  msg.sender */\n      caller\n        /* \"contracts/YabanciDilBilgileri.sol\":4072:4106  yabanciDilBilgiListesi[msg.sender] */\n      0xffffffffffffffffffffffffffffffffffffffff\n      and\n      0xffffffffffffffffffffffffffffffffffffffff\n      and\n      dup2\n      mstore\n      0x20\n      add\n      swap1\n      dup2\n      mstore\n      0x20\n      add\n      0x00\n      keccak256\n        /* \"contracts/YabanciDilBilgileri.sol\":4072:4114  yabanciDilBilgiListesi[msg.sender][yeniId] */\n      0x00\n        /* \"contracts/YabanciDilBilgileri.sol\":4107:4113  yeniId */\n      dup4\n        /* \"contracts/YabanciDilBilgileri.sol\":4072:4114  yabanciDilBilgiListesi[msg.sender][yeniId] */\n      dup2\n      mstore\n      0x20\n      add\n      swap1\n      dup2\n      mstore\n      0x20\n      add\n      0x00\n      keccak256\n        /* \"contracts/YabanciDilBilgileri.sol\":4072:4123  yabanciDilBilgiListesi[msg.sender][yeniId].bitTarih */\n      0x03\n      add\n        /* \"contracts/YabanciDilBilgileri.sol\":4072:4132  yabanciDilBilgiListesi[msg.sender][yeniId].bitTarih=bitTarih */\n      dup2\n      swap1\n      sstore\n      pop\n        /* \"contracts/YabanciDilBilgileri.sol\":4203:4214  ogretimTipi */\n      dup4\n        /* \"contracts/YabanciDilBilgileri.sol\":4148:4170  yabanciDilBilgiListesi */\n      0x0d\n        /* \"contracts/YabanciDilBilgileri.sol\":4148:4182  yabanciDilBilgiListesi[msg.sender] */\n      0x00\n        /* \"contracts/YabanciDilBilgileri.sol\":4171:4181  msg.sender */\n      caller\n        /* \"contracts/YabanciDilBilgileri.sol\":4148:4182  yabanciDilBilgiListesi[msg.sender] */\n      0xffffffffffffffffffffffffffffffffffffffff\n      and\n      0xffffffffffffffffffffffffffffffffffffffff\n      and\n      dup2\n      mstore\n      0x20\n      add\n      swap1\n      dup2\n      mstore\n      0x20\n      add\n      0x00\n      keccak256\n        /* \"contracts/YabanciDilBilgileri.sol\":4148:4190  yabanciDilBilgiListesi[msg.sender][yeniId] */\n      0x00\n        /* \"contracts/YabanciDilBilgileri.sol\":4183:4189  yeniId */\n      dup4\n        /* \"contracts/YabanciDilBilgileri.sol\":4148:4190  yabanciDilBilgiListesi[msg.sender][yeniId] */\n      dup2\n      mstore\n      0x20\n      add\n      swap1\n      dup2\n      mstore\n      0x20\n      add\n      0x00\n      keccak256\n        /* \"contracts/YabanciDilBilgileri.sol\":4148:4202  yabanciDilBilgiListesi[msg.sender][yeniId].ogretimTipi */\n      0x04\n      add\n      0x00\n        /* \"contracts/YabanciDilBilgileri.sol\":4148:4214  yabanciDilBilgiListesi[msg.sender][yeniId].ogretimTipi=ogretimTipi */\n      0x0100\n      exp\n      dup2\n      sload\n      dup2\n      0xff\n      mul\n      not\n      and\n      swap1\n      dup4\n      0x03\n      dup2\n      gt\n      iszero\n      tag_96\n      jumpi\n      tag_97\n      tag_98\n      jump\t// in\n    tag_97:\n    tag_96:\n      mul\n      or\n      swap1\n      sstore\n      pop\n        /* \"contracts/YabanciDilBilgileri.sol\":4279:4284  dilId */\n      dup3\n        /* \"contracts/YabanciDilBilgileri.sol\":4230:4252  yabanciDilBilgiListesi */\n      0x0d\n        /* \"contracts/YabanciDilBilgileri.sol\":4230:4264  yabanciDilBilgiListesi[msg.sender] */\n      0x00\n        /* \"contracts/YabanciDilBilgileri.sol\":4253:4263  msg.sender */\n      caller\n        /* \"contracts/YabanciDilBilgileri.sol\":4230:4264  yabanciDilBilgiListesi[msg.sender] */\n      0xffffffffffffffffffffffffffffffffffffffff\n      and\n      0xffffffffffffffffffffffffffffffffffffffff\n      and\n      dup2\n      mstore\n      0x20\n      add\n      swap1\n      dup2\n      mstore\n      0x20\n      add\n      0x00\n      keccak256\n        /* \"contracts/YabanciDilBilgileri.sol\":4230:4272  yabanciDilBilgiListesi[msg.sender][yeniId] */\n      0x00\n        /* \"contracts/YabanciDilBilgileri.sol\":4265:4271  yeniId */\n      dup4\n        /* \"contracts/YabanciDilBilgileri.sol\":4230:4272  yabanciDilBilgiListesi[msg.sender][yeniId] */\n      dup2\n      mstore\n      0x20\n      add\n      swap1\n      dup2\n      mstore\n      0x20\n      add\n      0x00\n      keccak256\n        /* \"contracts/YabanciDilBilgileri.sol\":4230:4278  yabanciDilBilgiListesi[msg.sender][yeniId].dilId */\n      0x04\n      add\n      0x01\n        /* \"contracts/YabanciDilBilgileri.sol\":4230:4284  yabanciDilBilgiListesi[msg.sender][yeniId].dilId=dilId */\n      0x0100\n      exp\n      dup2\n      sload\n      dup2\n      0xffffffff\n      mul\n      not\n      and\n      swap1\n      dup4\n      0xffffffff\n      and\n      mul\n      or\n      swap1\n      sstore\n      pop\n        /* \"contracts/YabanciDilBilgileri.sol\":4350:4356  seviye */\n      dup2\n        /* \"contracts/YabanciDilBilgileri.sol\":4300:4322  yabanciDilBilgiListesi */\n      0x0d\n        /* \"contracts/YabanciDilBilgileri.sol\":4300:4334  yabanciDilBilgiListesi[msg.sender] */\n      0x00\n        /* \"contracts/YabanciDilBilgileri.sol\":4323:4333  msg.sender */\n      caller\n        /* \"contracts/YabanciDilBilgileri.sol\":4300:4334  yabanciDilBilgiListesi[msg.sender] */\n      0xffffffffffffffffffffffffffffffffffffffff\n      and\n      0xffffffffffffffffffffffffffffffffffffffff\n      and\n      dup2\n      mstore\n      0x20\n      add\n      swap1\n      dup2\n      mstore\n      0x20\n      add\n      0x00\n      keccak256\n        /* \"contracts/YabanciDilBilgileri.sol\":4300:4342  yabanciDilBilgiListesi[msg.sender][yeniId] */\n      0x00\n        /* \"contracts/YabanciDilBilgileri.sol\":4335:4341  yeniId */\n      dup4\n        /* \"contracts/YabanciDilBilgileri.sol\":4300:4342  yabanciDilBilgiListesi[msg.sender][yeniId] */\n      dup2\n      mstore\n      0x20\n      add\n      swap1\n      dup2\n      mstore\n      0x20\n      add\n      0x00\n      keccak256\n        /* \"contracts/YabanciDilBilgileri.sol\":4300:4349  yabanciDilBilgiListesi[msg.sender][yeniId].seviye */\n      0x04\n      add\n      0x05\n        /* \"contracts/YabanciDilBilgileri.sol\":4300:4356  yabanciDilBilgiListesi[msg.sender][yeniId].seviye=seviye */\n      0x0100\n      exp\n      dup2\n      sload\n      dup2\n      0xff\n      mul\n      not\n      and\n      swap1\n      dup4\n      0x03\n      dup2\n      gt\n      iszero\n      tag_99\n      jumpi\n      tag_100\n      tag_98\n      jump\t// in\n    tag_100:\n    tag_99:\n      mul\n      or\n      swap1\n      sstore\n      pop\n        /* \"contracts/YabanciDilBilgileri.sol\":4431:4453  OnayDurum.OnayBekliyor */\n      0x00\n        /* \"contracts/YabanciDilBilgileri.sol\":4372:4394  yabanciDilBilgiListesi */\n      0x0d\n        /* \"contracts/YabanciDilBilgileri.sol\":4372:4406  yabanciDilBilgiListesi[msg.sender] */\n      0x00\n        /* \"contracts/YabanciDilBilgileri.sol\":4395:4405  msg.sender */\n      caller\n        /* \"contracts/YabanciDilBilgileri.sol\":4372:4406  yabanciDilBilgiListesi[msg.sender] */\n      0xffffffffffffffffffffffffffffffffffffffff\n      and\n      0xffffffffffffffffffffffffffffffffffffffff\n      and\n      dup2\n      mstore\n      0x20\n      add\n      swap1\n      dup2\n      mstore\n      0x20\n      add\n      0x00\n      keccak256\n        /* \"contracts/YabanciDilBilgileri.sol\":4372:4414  yabanciDilBilgiListesi[msg.sender][yeniId] */\n      0x00\n        /* \"contracts/YabanciDilBilgileri.sol\":4407:4413  yeniId */\n      dup4\n        /* \"contracts/YabanciDilBilgileri.sol\":4372:4414  yabanciDilBilgiListesi[msg.sender][yeniId] */\n      dup2\n      mstore\n      0x20\n      add\n      swap1\n      dup2\n      mstore\n      0x20\n      add\n      0x00\n      keccak256\n        /* \"contracts/YabanciDilBilgileri.sol\":4372:4424  yabanciDilBilgiListesi[msg.sender][yeniId].onayBilgi */\n      0x05\n      add\n        /* \"contracts/YabanciDilBilgileri.sol\":4372:4430  yabanciDilBilgiListesi[msg.sender][yeniId].onayBilgi.durum */\n      0x01\n      add\n      0x14\n        /* \"contracts/YabanciDilBilgileri.sol\":4372:4453  yabanciDilBilgiListesi[msg.sender][yeniId].onayBilgi.durum=OnayDurum.OnayBekliyor */\n      0x0100\n      exp\n      dup2\n      sload\n      dup2\n      0xff\n      mul\n      not\n      and\n      swap1\n      dup4\n      0x02\n      dup2\n      gt\n      iszero\n      tag_101\n      jumpi\n      tag_102\n      tag_98\n      jump\t// in\n    tag_102:\n    tag_101:\n      mul\n      or\n      swap1\n      sstore\n      pop\n        /* \"contracts/YabanciDilBilgileri.sol\":4528:4543  block.timestamp */\n      timestamp\n        /* \"contracts/YabanciDilBilgileri.sol\":4469:4491  yabanciDilBilgiListesi */\n      0x0d\n        /* \"contracts/YabanciDilBilgileri.sol\":4469:4503  yabanciDilBilgiListesi[msg.sender] */\n      0x00\n        /* \"contracts/YabanciDilBilgileri.sol\":4492:4502  msg.sender */\n      caller\n        /* \"contracts/YabanciDilBilgileri.sol\":4469:4503  yabanciDilBilgiListesi[msg.sender] */\n      0xffffffffffffffffffffffffffffffffffffffff\n      and\n      0xffffffffffffffffffffffffffffffffffffffff\n      and\n      dup2\n      mstore\n      0x20\n      add\n      swap1\n      dup2\n      mstore\n      0x20\n      add\n      0x00\n      keccak256\n        /* \"contracts/YabanciDilBilgileri.sol\":4469:4511  yabanciDilBilgiListesi[msg.sender][yeniId] */\n      0x00\n        /* \"contracts/YabanciDilBilgileri.sol\":4504:4510  yeniId */\n      dup4\n        /* \"contracts/YabanciDilBilgileri.sol\":4469:4511  yabanciDilBilgiListesi[msg.sender][yeniId] */\n      dup2\n      mstore\n      0x20\n      add\n      swap1\n      dup2\n      mstore\n      0x20\n      add\n      0x00\n      keccak256\n        /* \"contracts/YabanciDilBilgileri.sol\":4469:4521  yabanciDilBilgiListesi[msg.sender][yeniId].onayBilgi */\n      0x05\n      add\n        /* \"contracts/YabanciDilBilgileri.sol\":4469:4527  yabanciDilBilgiListesi[msg.sender][yeniId].onayBilgi.zaman */\n      0x00\n      add\n        /* \"contracts/YabanciDilBilgileri.sol\":4469:4543  yabanciDilBilgiListesi[msg.sender][yeniId].onayBilgi.zaman=block.timestamp */\n      dup2\n      swap1\n      sstore\n      pop\n        /* \"contracts/YabanciDilBilgileri.sol\":4618:4628  msg.sender */\n      caller\n        /* \"contracts/YabanciDilBilgileri.sol\":4559:4581  yabanciDilBilgiListesi */\n      0x0d\n        /* \"contracts/YabanciDilBilgileri.sol\":4559:4593  yabanciDilBilgiListesi[msg.sender] */\n      0x00\n        /* \"contracts/YabanciDilBilgileri.sol\":4582:4592  msg.sender */\n      caller\n        /* \"contracts/YabanciDilBilgileri.sol\":4559:4593  yabanciDilBilgiListesi[msg.sender] */\n      0xffffffffffffffffffffffffffffffffffffffff\n      and\n      0xffffffffffffffffffffffffffffffffffffffff\n      and\n      dup2\n      mstore\n      0x20\n      add\n      swap1\n      dup2\n      mstore\n      0x20\n      add\n      0x00\n      keccak256\n        /* \"contracts/YabanciDilBilgileri.sol\":4559:4601  yabanciDilBilgiListesi[msg.sender][yeniId] */\n      0x00\n        /* \"contracts/YabanciDilBilgileri.sol\":4594:4600  yeniId */\n      dup4\n        /* \"contracts/YabanciDilBilgileri.sol\":4559:4601  yabanciDilBilgiListesi[msg.sender][yeniId] */\n      dup2\n      mstore\n      0x20\n      add\n      swap1\n      dup2\n      mstore\n      0x20\n      add\n      0x00\n      keccak256\n        /* \"contracts/YabanciDilBilgileri.sol\":4559:4611  yabanciDilBilgiListesi[msg.sender][yeniId].onayBilgi */\n      0x05\n      add\n        /* \"contracts/YabanciDilBilgileri.sol\":4559:4617  yabanciDilBilgiListesi[msg.sender][yeniId].onayBilgi.adres */\n      0x01\n      add\n      0x00\n        /* \"contracts/YabanciDilBilgileri.sol\":4559:4628  yabanciDilBilgiListesi[msg.sender][yeniId].onayBilgi.adres=msg.sender */\n      0x0100\n      exp\n      dup2\n      sload\n      dup2\n      0xffffffffffffffffffffffffffffffffffffffff\n      mul\n      not\n      and\n      swap1\n      dup4\n      0xffffffffffffffffffffffffffffffffffffffff\n      and\n      mul\n      or\n      swap1\n      sstore\n      pop\n        /* \"contracts/YabanciDilBilgileri.sol\":4662:4747  YabanciDilTalepEdildiLog(_talepEdilenKurum,  basTarih,  bitTarih, ogretimTipi, dilId) */\n      0x3360922f476ca526045a942931f1a0e5fcbb757198f9c8b62f92c872e9a77688\n        /* \"contracts/YabanciDilBilgileri.sol\":4687:4704  _talepEdilenKurum */\n      dup8\n        /* \"contracts/YabanciDilBilgileri.sol\":4707:4715  basTarih */\n      dup8\n        /* \"contracts/YabanciDilBilgileri.sol\":4718:4726  bitTarih */\n      dup8\n        /* \"contracts/YabanciDilBilgileri.sol\":4728:4739  ogretimTipi */\n      dup8\n        /* \"contracts/YabanciDilBilgileri.sol\":4741:4746  dilId */\n      dup8\n        /* \"contracts/YabanciDilBilgileri.sol\":4662:4747  YabanciDilTalepEdildiLog(_talepEdilenKurum,  basTarih,  bitTarih, ogretimTipi, dilId) */\n      mload(0x40)\n      tag_103\n      swap6\n      swap5\n      swap4\n      swap3\n      swap2\n      swap1\n      tag_104\n      jump\t// in\n    tag_103:\n      mload(0x40)\n      dup1\n      swap2\n      sub\n      swap1\n      log1\n        /* \"contracts/YabanciDilBilgileri.sol\":3783:4759  {\r... */\n      pop\n        /* \"contracts/YabanciDilBilgileri.sol\":3606:4759  function talepEtYabanciDilBilgi(address _talepEdilenKurum, uint basTarih, uint bitTarih, EgitimBilgileri.OgretimTipi ogretimTipi, uint32 dilId, Seviye seviye)  public sadeceKisi{\r... */\n      pop\n      pop\n      pop\n      pop\n      pop\n      pop\n      jump\t// out\n        /* \"contracts/BaseContract.sol\":3293:3331  mapping(address=>Kurs) public  kurslar */\n    tag_27:\n      mstore(0x20, 0x07)\n      dup1\n      0x00\n      mstore\n      keccak256(0x00, 0x40)\n      0x00\n      swap2\n      pop\n      swap1\n      pop\n      dup1\n      0x00\n      add\n      0x00\n      swap1\n      sload\n      swap1\n      0x0100\n      exp\n      swap1\n      div\n      0xff\n      and\n      swap1\n      dup1\n      0x01\n      add\n      dup1\n      sload\n      tag_105\n      swap1\n      tag_106\n      jump\t// in\n    tag_105:\n      dup1\n      0x1f\n      add\n      0x20\n      dup1\n      swap2\n      div\n      mul\n      0x20\n      add\n      mload(0x40)\n      swap1\n      dup2\n      add\n      0x40\n      mstore\n      dup1\n      swap3\n      swap2\n      swap1\n      dup2\n      dup2\n      mstore\n      0x20\n      add\n      dup3\n      dup1\n      sload\n      tag_107\n      swap1\n      tag_106\n      jump\t// in\n    tag_107:\n      dup1\n      iszero\n      tag_108\n      jumpi\n      dup1\n      0x1f\n      lt\n      tag_109\n      jumpi\n      0x0100\n      dup1\n      dup4\n      sload\n      div\n      mul\n      dup4\n      mstore\n      swap2\n      0x20\n      add\n      swap2\n      jump(tag_108)\n    tag_109:\n      dup3\n      add\n      swap2\n      swap1\n      0x00\n      mstore\n      keccak256(0x00, 0x20)\n      swap1\n    tag_110:\n      dup2\n      sload\n      dup2\n      mstore\n      swap1\n      0x01\n      add\n      swap1\n      0x20\n      add\n      dup1\n      dup4\n      gt\n      tag_110\n      jumpi\n      dup3\n      swap1\n      sub\n      0x1f\n      and\n      dup3\n      add\n      swap2\n    tag_108:\n      pop\n      pop\n      pop\n      pop\n      pop\n      swap1\n      dup1\n      0x02\n      add\n      0x00\n      swap1\n      sload\n      swap1\n      0x0100\n      exp\n      swap1\n      div\n      0xff\n      and\n      swap1\n      pop\n      dup4\n      jump\t// out\n        /* \"contracts/YabanciDilBilgileri.sol\":2303:3598  function guncelleYabanciDilBilgi(address _kisiAddress,uint ydBilgiId, OnaylayanKurum onayKurumTipi, uint basTarih, uint bitTarih, EgitimBilgileri.OgretimTipi ogretimTipi, uint32 dilId, Seviye seviye)  public sadece_Uni_Firma_Kamu returns(uint){\r... */\n    tag_33:\n        /* \"contracts/YabanciDilBilgileri.sol\":2541:2545  uint */\n      0x00\n        /* \"contracts/BaseContract.sol\":2759:2772  universiteler */\n      0x04\n        /* \"contracts/BaseContract.sol\":2759:2784  universiteler[msg.sender] */\n      0x00\n        /* \"contracts/BaseContract.sol\":2773:2783  msg.sender */\n      caller\n        /* \"contracts/BaseContract.sol\":2759:2784  universiteler[msg.sender] */\n      0xffffffffffffffffffffffffffffffffffffffff\n      and\n      0xffffffffffffffffffffffffffffffffffffffff\n      and\n      dup2\n      mstore\n      0x20\n      add\n      swap1\n      dup2\n      mstore\n      0x20\n      add\n      0x00\n      keccak256\n        /* \"contracts/BaseContract.sol\":2759:2790  universiteler[msg.sender].durum */\n      0x00\n      add\n      0x00\n      swap1\n      sload\n      swap1\n      0x0100\n      exp\n      swap1\n      div\n      0xff\n      and\n        /* \"contracts/BaseContract.sol\":2759:2818  universiteler[msg.sender].durum||firmalar[msg.sender].durum */\n      dup1\n      tag_112\n      jumpi\n      pop\n        /* \"contracts/BaseContract.sol\":2792:2800  firmalar */\n      0x06\n        /* \"contracts/BaseContract.sol\":2792:2812  firmalar[msg.sender] */\n      0x00\n        /* \"contracts/BaseContract.sol\":2801:2811  msg.sender */\n      caller\n        /* \"contracts/BaseContract.sol\":2792:2812  firmalar[msg.sender] */\n      0xffffffffffffffffffffffffffffffffffffffff\n      and\n      0xffffffffffffffffffffffffffffffffffffffff\n      and\n      dup2\n      mstore\n      0x20\n      add\n      swap1\n      dup2\n      mstore\n      0x20\n      add\n      0x00\n      keccak256\n        /* \"contracts/BaseContract.sol\":2792:2818  firmalar[msg.sender].durum */\n      0x00\n      add\n      0x00\n      swap1\n      sload\n      swap1\n      0x0100\n      exp\n      swap1\n      div\n      0xff\n      and\n        /* \"contracts/BaseContract.sol\":2759:2818  universiteler[msg.sender].durum||firmalar[msg.sender].durum */\n    tag_112:\n        /* \"contracts/BaseContract.sol\":2759:2851  universiteler[msg.sender].durum||firmalar[msg.sender].durum||kamuKurumlari[msg.sender].durum */\n      dup1\n      tag_113\n      jumpi\n      pop\n        /* \"contracts/BaseContract.sol\":2820:2833  kamuKurumlari */\n      0x08\n        /* \"contracts/BaseContract.sol\":2820:2845  kamuKurumlari[msg.sender] */\n      0x00\n        /* \"contracts/BaseContract.sol\":2834:2844  msg.sender */\n      caller\n        /* \"contracts/BaseContract.sol\":2820:2845  kamuKurumlari[msg.sender] */\n      0xffffffffffffffffffffffffffffffffffffffff\n      and\n      0xffffffffffffffffffffffffffffffffffffffff\n      and\n      dup2\n      mstore\n      0x20\n      add\n      swap1\n      dup2\n      mstore\n      0x20\n      add\n      0x00\n      keccak256\n        /* \"contracts/BaseContract.sol\":2820:2851  kamuKurumlari[msg.sender].durum */\n      0x00\n      add\n      0x00\n      swap1\n      sload\n      swap1\n      0x0100\n      exp\n      swap1\n      div\n      0xff\n      and\n        /* \"contracts/BaseContract.sol\":2759:2851  universiteler[msg.sender].durum||firmalar[msg.sender].durum||kamuKurumlari[msg.sender].durum */\n    tag_113:\n        /* \"contracts/BaseContract.sol\":2751:2903  require(universiteler[msg.sender].durum||firmalar[msg.sender].durum||kamuKurumlari[msg.sender].durum,\r... */\n      tag_114\n      jumpi\n      mload(0x40)\n      0x08c379a000000000000000000000000000000000000000000000000000000000\n      dup2\n      mstore\n      0x04\n      add\n      tag_115\n      swap1\n      tag_116\n      jump\t// in\n    tag_115:\n      mload(0x40)\n      dup1\n      swap2\n      sub\n      swap1\n      revert\n    tag_114:\n        /* \"contracts/YabanciDilBilgileri.sol\":2573:2580  kisiler */\n      0x03\n        /* \"contracts/YabanciDilBilgileri.sol\":2573:2594  kisiler[_kisiAddress] */\n      0x00\n        /* \"contracts/YabanciDilBilgileri.sol\":2581:2593  _kisiAddress */\n      dup11\n        /* \"contracts/YabanciDilBilgileri.sol\":2573:2594  kisiler[_kisiAddress] */\n      0xffffffffffffffffffffffffffffffffffffffff\n      and\n      0xffffffffffffffffffffffffffffffffffffffff\n      and\n      dup2\n      mstore\n      0x20\n      add\n      swap1\n      dup2\n      mstore\n      0x20\n      add\n      0x00\n      keccak256\n        /* \"contracts/YabanciDilBilgileri.sol\":2573:2600  kisiler[_kisiAddress].durum */\n      0x00\n      add\n      0x00\n      swap1\n      sload\n      swap1\n      0x0100\n      exp\n      swap1\n      div\n      0xff\n      and\n        /* \"contracts/YabanciDilBilgileri.sol\":2565:2621  require(kisiler[_kisiAddress].durum,\"Kisi mevcut degil\") */\n      tag_118\n      jumpi\n      mload(0x40)\n      0x08c379a000000000000000000000000000000000000000000000000000000000\n      dup2\n      mstore\n      0x04\n      add\n      tag_119\n      swap1\n      tag_93\n      jump\t// in\n    tag_119:\n      mload(0x40)\n      dup1\n      swap2\n      sub\n      swap1\n      revert\n    tag_118:\n        /* \"contracts/YabanciDilBilgileri.sol\":2720:2733  onayKurumTipi */\n      dup7\n        /* \"contracts/YabanciDilBilgileri.sol\":2658:2680  yabanciDilBilgiListesi */\n      0x0d\n        /* \"contracts/YabanciDilBilgileri.sol\":2658:2694  yabanciDilBilgiListesi[_kisiAddress] */\n      0x00\n        /* \"contracts/YabanciDilBilgileri.sol\":2681:2693  _kisiAddress */\n      dup12\n        /* \"contracts/YabanciDilBilgileri.sol\":2658:2694  yabanciDilBilgiListesi[_kisiAddress] */\n      0xffffffffffffffffffffffffffffffffffffffff\n      and\n      0xffffffffffffffffffffffffffffffffffffffff\n      and\n      dup2\n      mstore\n      0x20\n      add\n      swap1\n      dup2\n      mstore\n      0x20\n      add\n      0x00\n      keccak256\n        /* \"contracts/YabanciDilBilgileri.sol\":2658:2705  yabanciDilBilgiListesi[_kisiAddress][ydBilgiId] */\n      0x00\n        /* \"contracts/YabanciDilBilgileri.sol\":2695:2704  ydBilgiId */\n      dup11\n        /* \"contracts/YabanciDilBilgileri.sol\":2658:2705  yabanciDilBilgiListesi[_kisiAddress][ydBilgiId] */\n      dup2\n      mstore\n      0x20\n      add\n      swap1\n      dup2\n      mstore\n      0x20\n      add\n      0x00\n      keccak256\n        /* \"contracts/YabanciDilBilgileri.sol\":2658:2719  yabanciDilBilgiListesi[_kisiAddress][ydBilgiId].onayKurumTipi */\n      0x01\n      add\n      0x14\n        /* \"contracts/YabanciDilBilgileri.sol\":2658:2733  yabanciDilBilgiListesi[_kisiAddress][ydBilgiId].onayKurumTipi=onayKurumTipi */\n      0x0100\n      exp\n      dup2\n      sload\n      dup2\n      0xff\n      mul\n      not\n      and\n      swap1\n      dup4\n      0x05\n      dup2\n      gt\n      iszero\n      tag_120\n      jumpi\n      tag_121\n      tag_98\n      jump\t// in\n    tag_121:\n    tag_120:\n      mul\n      or\n      swap1\n      sstore\n      pop\n        /* \"contracts/YabanciDilBilgileri.sol\":2809:2817  basTarih */\n      dup6\n        /* \"contracts/YabanciDilBilgileri.sol\":2752:2774  yabanciDilBilgiListesi */\n      0x0d\n        /* \"contracts/YabanciDilBilgileri.sol\":2752:2788  yabanciDilBilgiListesi[_kisiAddress] */\n      0x00\n        /* \"contracts/YabanciDilBilgileri.sol\":2775:2787  _kisiAddress */\n      dup12\n        /* \"contracts/YabanciDilBilgileri.sol\":2752:2788  yabanciDilBilgiListesi[_kisiAddress] */\n      0xffffffffffffffffffffffffffffffffffffffff\n      and\n      0xffffffffffffffffffffffffffffffffffffffff\n      and\n      dup2\n      mstore\n      0x20\n      add\n      swap1\n      dup2\n      mstore\n      0x20\n      add\n      0x00\n      keccak256\n        /* \"contracts/YabanciDilBilgileri.sol\":2752:2799  yabanciDilBilgiListesi[_kisiAddress][ydBilgiId] */\n      0x00\n        /* \"contracts/YabanciDilBilgileri.sol\":2789:2798  ydBilgiId */\n      dup11\n        /* \"contracts/YabanciDilBilgileri.sol\":2752:2799  yabanciDilBilgiListesi[_kisiAddress][ydBilgiId] */\n      dup2\n      mstore\n      0x20\n      add\n      swap1\n      dup2\n      mstore\n      0x20\n      add\n      0x00\n      keccak256\n        /* \"contracts/YabanciDilBilgileri.sol\":2752:2808  yabanciDilBilgiListesi[_kisiAddress][ydBilgiId].basTarih */\n      0x02\n      add\n        /* \"contracts/YabanciDilBilgileri.sol\":2752:2817  yabanciDilBilgiListesi[_kisiAddress][ydBilgiId].basTarih=basTarih */\n      dup2\n      swap1\n      sstore\n      pop\n        /* \"contracts/YabanciDilBilgileri.sol\":2893:2901  bitTarih */\n      dup5\n        /* \"contracts/YabanciDilBilgileri.sol\":2836:2858  yabanciDilBilgiListesi */\n      0x0d\n        /* \"contracts/YabanciDilBilgileri.sol\":2836:2872  yabanciDilBilgiListesi[_kisiAddress] */\n      0x00\n        /* \"contracts/YabanciDilBilgileri.sol\":2859:2871  _kisiAddress */\n      dup12\n        /* \"contracts/YabanciDilBilgileri.sol\":2836:2872  yabanciDilBilgiListesi[_kisiAddress] */\n      0xffffffffffffffffffffffffffffffffffffffff\n      and\n      0xffffffffffffffffffffffffffffffffffffffff\n      and\n      dup2\n      mstore\n      0x20\n      add\n      swap1\n      dup2\n      mstore\n      0x20\n      add\n      0x00\n      keccak256\n        /* \"contracts/YabanciDilBilgileri.sol\":2836:2883  yabanciDilBilgiListesi[_kisiAddress][ydBilgiId] */\n      0x00\n        /* \"contracts/YabanciDilBilgileri.sol\":2873:2882  ydBilgiId */\n      dup11\n        /* \"contracts/YabanciDilBilgileri.sol\":2836:2883  yabanciDilBilgiListesi[_kisiAddress][ydBilgiId] */\n      dup2\n      mstore\n      0x20\n      add\n      swap1\n      dup2\n      mstore\n      0x20\n      add\n      0x00\n      keccak256\n        /* \"contracts/YabanciDilBilgileri.sol\":2836:2892  yabanciDilBilgiListesi[_kisiAddress][ydBilgiId].bitTarih */\n      0x03\n      add\n        /* \"contracts/YabanciDilBilgileri.sol\":2836:2901  yabanciDilBilgiListesi[_kisiAddress][ydBilgiId].bitTarih=bitTarih */\n      dup2\n      swap1\n      sstore\n      pop\n        /* \"contracts/YabanciDilBilgileri.sol\":2980:2991  ogretimTipi */\n      dup4\n        /* \"contracts/YabanciDilBilgileri.sol\":2920:2942  yabanciDilBilgiListesi */\n      0x0d\n        /* \"contracts/YabanciDilBilgileri.sol\":2920:2956  yabanciDilBilgiListesi[_kisiAddress] */\n      0x00\n        /* \"contracts/YabanciDilBilgileri.sol\":2943:2955  _kisiAddress */\n      dup12\n        /* \"contracts/YabanciDilBilgileri.sol\":2920:2956  yabanciDilBilgiListesi[_kisiAddress] */\n      0xffffffffffffffffffffffffffffffffffffffff\n      and\n      0xffffffffffffffffffffffffffffffffffffffff\n      and\n      dup2\n      mstore\n      0x20\n      add\n      swap1\n      dup2\n      mstore\n      0x20\n      add\n      0x00\n      keccak256\n        /* \"contracts/YabanciDilBilgileri.sol\":2920:2967  yabanciDilBilgiListesi[_kisiAddress][ydBilgiId] */\n      0x00\n        /* \"contracts/YabanciDilBilgileri.sol\":2957:2966  ydBilgiId */\n      dup11\n        /* \"contracts/YabanciDilBilgileri.sol\":2920:2967  yabanciDilBilgiListesi[_kisiAddress][ydBilgiId] */\n      dup2\n      mstore\n      0x20\n      add\n      swap1\n      dup2\n      mstore\n      0x20\n      add\n      0x00\n      keccak256\n        /* \"contracts/YabanciDilBilgileri.sol\":2920:2979  yabanciDilBilgiListesi[_kisiAddress][ydBilgiId].ogretimTipi */\n      0x04\n      add\n      0x00\n        /* \"contracts/YabanciDilBilgileri.sol\":2920:2991  yabanciDilBilgiListesi[_kisiAddress][ydBilgiId].ogretimTipi=ogretimTipi */\n      0x0100\n      exp\n      dup2\n      sload\n      dup2\n      0xff\n      mul\n      not\n      and\n      swap1\n      dup4\n      0x03\n      dup2\n      gt\n      iszero\n      tag_122\n      jumpi\n      tag_123\n      tag_98\n      jump\t// in\n    tag_123:\n    tag_122:\n      mul\n      or\n      swap1\n      sstore\n      pop\n        /* \"contracts/YabanciDilBilgileri.sol\":3064:3069  dilId */\n      dup3\n        /* \"contracts/YabanciDilBilgileri.sol\":3010:3032  yabanciDilBilgiListesi */\n      0x0d\n        /* \"contracts/YabanciDilBilgileri.sol\":3010:3046  yabanciDilBilgiListesi[_kisiAddress] */\n      0x00\n        /* \"contracts/YabanciDilBilgileri.sol\":3033:3045  _kisiAddress */\n      dup12\n        /* \"contracts/YabanciDilBilgileri.sol\":3010:3046  yabanciDilBilgiListesi[_kisiAddress] */\n      0xffffffffffffffffffffffffffffffffffffffff\n      and\n      0xffffffffffffffffffffffffffffffffffffffff\n      and\n      dup2\n      mstore\n      0x20\n      add\n      swap1\n      dup2\n      mstore\n      0x20\n      add\n      0x00\n      keccak256\n        /* \"contracts/YabanciDilBilgileri.sol\":3010:3057  yabanciDilBilgiListesi[_kisiAddress][ydBilgiId] */\n      0x00\n        /* \"contracts/YabanciDilBilgileri.sol\":3047:3056  ydBilgiId */\n      dup11\n        /* \"contracts/YabanciDilBilgileri.sol\":3010:3057  yabanciDilBilgiListesi[_kisiAddress][ydBilgiId] */\n      dup2\n      mstore\n      0x20\n      add\n      swap1\n      dup2\n      mstore\n      0x20\n      add\n      0x00\n      keccak256\n        /* \"contracts/YabanciDilBilgileri.sol\":3010:3063  yabanciDilBilgiListesi[_kisiAddress][ydBilgiId].dilId */\n      0x04\n      add\n      0x01\n        /* \"contracts/YabanciDilBilgileri.sol\":3010:3069  yabanciDilBilgiListesi[_kisiAddress][ydBilgiId].dilId=dilId */\n      0x0100\n      exp\n      dup2\n      sload\n      dup2\n      0xffffffff\n      mul\n      not\n      and\n      swap1\n      dup4\n      0xffffffff\n      and\n      mul\n      or\n      swap1\n      sstore\n      pop\n        /* \"contracts/YabanciDilBilgileri.sol\":3143:3149  seviye */\n      dup2\n        /* \"contracts/YabanciDilBilgileri.sol\":3088:3110  yabanciDilBilgiListesi */\n      0x0d\n        /* \"contracts/YabanciDilBilgileri.sol\":3088:3124  yabanciDilBilgiListesi[_kisiAddress] */\n      0x00\n        /* \"contracts/YabanciDilBilgileri.sol\":3111:3123  _kisiAddress */\n      dup12\n        /* \"contracts/YabanciDilBilgileri.sol\":3088:3124  yabanciDilBilgiListesi[_kisiAddress] */\n      0xffffffffffffffffffffffffffffffffffffffff\n      and\n      0xffffffffffffffffffffffffffffffffffffffff\n      and\n      dup2\n      mstore\n      0x20\n      add\n      swap1\n      dup2\n      mstore\n      0x20\n      add\n      0x00\n      keccak256\n        /* \"contracts/YabanciDilBilgileri.sol\":3088:3135  yabanciDilBilgiListesi[_kisiAddress][ydBilgiId] */\n      0x00\n        /* \"contracts/YabanciDilBilgileri.sol\":3125:3134  ydBilgiId */\n      dup11\n        /* \"contracts/YabanciDilBilgileri.sol\":3088:3135  yabanciDilBilgiListesi[_kisiAddress][ydBilgiId] */\n      dup2\n      mstore\n      0x20\n      add\n      swap1\n      dup2\n      mstore\n      0x20\n      add\n      0x00\n      keccak256\n        /* \"contracts/YabanciDilBilgileri.sol\":3088:3142  yabanciDilBilgiListesi[_kisiAddress][ydBilgiId].seviye */\n      0x04\n      add\n      0x05\n        /* \"contracts/YabanciDilBilgileri.sol\":3088:3149  yabanciDilBilgiListesi[_kisiAddress][ydBilgiId].seviye=seviye */\n      0x0100\n      exp\n      dup2\n      sload\n      dup2\n      0xff\n      mul\n      not\n      and\n      swap1\n      dup4\n      0x03\n      dup2\n      gt\n      iszero\n      tag_124\n      jumpi\n      tag_125\n      tag_98\n      jump\t// in\n    tag_125:\n    tag_124:\n      mul\n      or\n      swap1\n      sstore\n      pop\n        /* \"contracts/YabanciDilBilgileri.sol\":3232:3251  OnayDurum.Onaylandi */\n      0x01\n        /* \"contracts/YabanciDilBilgileri.sol\":3168:3190  yabanciDilBilgiListesi */\n      0x0d\n        /* \"contracts/YabanciDilBilgileri.sol\":3168:3204  yabanciDilBilgiListesi[_kisiAddress] */\n      0x00\n        /* \"contracts/YabanciDilBilgileri.sol\":3191:3203  _kisiAddress */\n      dup12\n        /* \"contracts/YabanciDilBilgileri.sol\":3168:3204  yabanciDilBilgiListesi[_kisiAddress] */\n      0xffffffffffffffffffffffffffffffffffffffff\n      and\n      0xffffffffffffffffffffffffffffffffffffffff\n      and\n      dup2\n      mstore\n      0x20\n      add\n      swap1\n      dup2\n      mstore\n      0x20\n      add\n      0x00\n      keccak256\n        /* \"contracts/YabanciDilBilgileri.sol\":3168:3215  yabanciDilBilgiListesi[_kisiAddress][ydBilgiId] */\n      0x00\n        /* \"contracts/YabanciDilBilgileri.sol\":3205:3214  ydBilgiId */\n      dup11\n        /* \"contracts/YabanciDilBilgileri.sol\":3168:3215  yabanciDilBilgiListesi[_kisiAddress][ydBilgiId] */\n      dup2\n      mstore\n      0x20\n      add\n      swap1\n      dup2\n      mstore\n      0x20\n      add\n      0x00\n      keccak256\n        /* \"contracts/YabanciDilBilgileri.sol\":3168:3225  yabanciDilBilgiListesi[_kisiAddress][ydBilgiId].onayBilgi */\n      0x05\n      add\n        /* \"contracts/YabanciDilBilgileri.sol\":3168:3231  yabanciDilBilgiListesi[_kisiAddress][ydBilgiId].onayBilgi.durum */\n      0x01\n      add\n      0x14\n        /* \"contracts/YabanciDilBilgileri.sol\":3168:3251  yabanciDilBilgiListesi[_kisiAddress][ydBilgiId].onayBilgi.durum=OnayDurum.Onaylandi */\n      0x0100\n      exp\n      dup2\n      sload\n      dup2\n      0xff\n      mul\n      not\n      and\n      swap1\n      dup4\n      0x02\n      dup2\n      gt\n      iszero\n      tag_126\n      jumpi\n      tag_127\n      tag_98\n      jump\t// in\n    tag_127:\n    tag_126:\n      mul\n      or\n      swap1\n      sstore\n      pop\n        /* \"contracts/YabanciDilBilgileri.sol\":3334:3349  block.timestamp */\n      timestamp\n        /* \"contracts/YabanciDilBilgileri.sol\":3270:3292  yabanciDilBilgiListesi */\n      0x0d\n        /* \"contracts/YabanciDilBilgileri.sol\":3270:3306  yabanciDilBilgiListesi[_kisiAddress] */\n      0x00\n        /* \"contracts/YabanciDilBilgileri.sol\":3293:3305  _kisiAddress */\n      dup12\n        /* \"contracts/YabanciDilBilgileri.sol\":3270:3306  yabanciDilBilgiListesi[_kisiAddress] */\n      0xffffffffffffffffffffffffffffffffffffffff\n      and\n      0xffffffffffffffffffffffffffffffffffffffff\n      and\n      dup2\n      mstore\n      0x20\n      add\n      swap1\n      dup2\n      mstore\n      0x20\n      add\n      0x00\n      keccak256\n        /* \"contracts/YabanciDilBilgileri.sol\":3270:3317  yabanciDilBilgiListesi[_kisiAddress][ydBilgiId] */\n      0x00\n        /* \"contracts/YabanciDilBilgileri.sol\":3307:3316  ydBilgiId */\n      dup11\n        /* \"contracts/YabanciDilBilgileri.sol\":3270:3317  yabanciDilBilgiListesi[_kisiAddress][ydBilgiId] */\n      dup2\n      mstore\n      0x20\n      add\n      swap1\n      dup2\n      mstore\n      0x20\n      add\n      0x00\n      keccak256\n        /* \"contracts/YabanciDilBilgileri.sol\":3270:3327  yabanciDilBilgiListesi[_kisiAddress][ydBilgiId].onayBilgi */\n      0x05\n      add\n        /* \"contracts/YabanciDilBilgileri.sol\":3270:3333  yabanciDilBilgiListesi[_kisiAddress][ydBilgiId].onayBilgi.zaman */\n      0x00\n      add\n        /* \"contracts/YabanciDilBilgileri.sol\":3270:3349  yabanciDilBilgiListesi[_kisiAddress][ydBilgiId].onayBilgi.zaman=block.timestamp */\n      dup2\n      swap1\n      sstore\n      pop\n        /* \"contracts/YabanciDilBilgileri.sol\":3432:3442  msg.sender */\n      caller\n        /* \"contracts/YabanciDilBilgileri.sol\":3368:3390  yabanciDilBilgiListesi */\n      0x0d\n        /* \"contracts/YabanciDilBilgileri.sol\":3368:3404  yabanciDilBilgiListesi[_kisiAddress] */\n      0x00\n        /* \"contracts/YabanciDilBilgileri.sol\":3391:3403  _kisiAddress */\n      dup12\n        /* \"contracts/YabanciDilBilgileri.sol\":3368:3404  yabanciDilBilgiListesi[_kisiAddress] */\n      0xffffffffffffffffffffffffffffffffffffffff\n      and\n      0xffffffffffffffffffffffffffffffffffffffff\n      and\n      dup2\n      mstore\n      0x20\n      add\n      swap1\n      dup2\n      mstore\n      0x20\n      add\n      0x00\n      keccak256\n        /* \"contracts/YabanciDilBilgileri.sol\":3368:3415  yabanciDilBilgiListesi[_kisiAddress][ydBilgiId] */\n      0x00\n        /* \"contracts/YabanciDilBilgileri.sol\":3405:3414  ydBilgiId */\n      dup11\n        /* \"contracts/YabanciDilBilgileri.sol\":3368:3415  yabanciDilBilgiListesi[_kisiAddress][ydBilgiId] */\n      dup2\n      mstore\n      0x20\n      add\n      swap1\n      dup2\n      mstore\n      0x20\n      add\n      0x00\n      keccak256\n        /* \"contracts/YabanciDilBilgileri.sol\":3368:3425  yabanciDilBilgiListesi[_kisiAddress][ydBilgiId].onayBilgi */\n      0x05\n      add\n        /* \"contracts/YabanciDilBilgileri.sol\":3368:3431  yabanciDilBilgiListesi[_kisiAddress][ydBilgiId].onayBilgi.adres */\n      0x01\n      add\n      0x00\n        /* \"contracts/YabanciDilBilgileri.sol\":3368:3442  yabanciDilBilgiListesi[_kisiAddress][ydBilgiId].onayBilgi.adres=msg.sender */\n      0x0100\n      exp\n      dup2\n      sload\n      dup2\n      0xffffffffffffffffffffffffffffffffffffffff\n      mul\n      not\n      and\n      swap1\n      dup4\n      0xffffffffffffffffffffffffffffffffffffffff\n      and\n      mul\n      or\n      swap1\n      sstore\n      pop\n        /* \"contracts/YabanciDilBilgileri.sol\":3468:3549  YabanciDilGuncellendiLog(onayKurumTipi,  basTarih,  bitTarih, ogretimTipi, dilId) */\n      0x8fdfffa514a537dacb0033300463694b1566a2286bfb76f047f70377b990e7\n        /* \"contracts/YabanciDilBilgileri.sol\":3493:3506  onayKurumTipi */\n      dup8\n        /* \"contracts/YabanciDilBilgileri.sol\":3509:3517  basTarih */\n      dup8\n        /* \"contracts/YabanciDilBilgileri.sol\":3520:3528  bitTarih */\n      dup8\n        /* \"contracts/YabanciDilBilgileri.sol\":3530:3541  ogretimTipi */\n      dup8\n        /* \"contracts/YabanciDilBilgileri.sol\":3543:3548  dilId */\n      dup8\n        /* \"contracts/YabanciDilBilgileri.sol\":3468:3549  YabanciDilGuncellendiLog(onayKurumTipi,  basTarih,  bitTarih, ogretimTipi, dilId) */\n      mload(0x40)\n      tag_128\n      swap6\n      swap5\n      swap4\n      swap3\n      swap2\n      swap1\n      tag_129\n      jump\t// in\n    tag_128:\n      mload(0x40)\n      dup1\n      swap2\n      sub\n      swap1\n      log1\n        /* \"contracts/YabanciDilBilgileri.sol\":3575:3584  ydBilgiId */\n      dup8\n        /* \"contracts/YabanciDilBilgileri.sol\":3568:3584  return ydBilgiId */\n      swap1\n      pop\n        /* \"contracts/YabanciDilBilgileri.sol\":2303:3598  function guncelleYabanciDilBilgi(address _kisiAddress,uint ydBilgiId, OnaylayanKurum onayKurumTipi, uint basTarih, uint bitTarih, EgitimBilgileri.OgretimTipi ogretimTipi, uint32 dilId, Seviye seviye)  public sadece_Uni_Firma_Kamu returns(uint){\r... */\n      swap9\n      swap8\n      pop\n      pop\n      pop\n      pop\n      pop\n      pop\n      pop\n      pop\n      jump\t// out\n        /* \"contracts/BaseContract.sol\":3132:3181  mapping(address=>Universite) public universiteler */\n    tag_38:\n      mstore(0x20, 0x04)\n      dup1\n      0x00\n      mstore\n      keccak256(0x00, 0x40)\n      0x00\n      swap2\n      pop\n      swap1\n      pop\n      dup1\n      0x00\n      add\n      0x00\n      swap1\n      sload\n      swap1\n      0x0100\n      exp\n      swap1\n      div\n      0xff\n      and\n      swap1\n      dup1\n      0x01\n      add\n      dup1\n      sload\n      tag_130\n      swap1\n      tag_106\n      jump\t// in\n    tag_130:\n      dup1\n      0x1f\n      add\n      0x20\n      dup1\n      swap2\n      div\n      mul\n      0x20\n      add\n      mload(0x40)\n      swap1\n      dup2\n      add\n      0x40\n      mstore\n      dup1\n      swap3\n      swap2\n      swap1\n      dup2\n      dup2\n      mstore\n      0x20\n      add\n      dup3\n      dup1\n      sload\n      tag_131\n      swap1\n      tag_106\n      jump\t// in\n    tag_131:\n      dup1\n      iszero\n      tag_132\n      jumpi\n      dup1\n      0x1f\n      lt\n      tag_133\n      jumpi\n      0x0100\n      dup1\n      dup4\n      sload\n      div\n      mul\n      dup4\n      mstore\n      swap2\n      0x20\n      add\n      swap2\n      jump(tag_132)\n    tag_133:\n      dup3\n      add\n      swap2\n      swap1\n      0x00\n      mstore\n      keccak256(0x00, 0x20)\n      swap1\n    tag_134:\n      dup2\n      sload\n      dup2\n      mstore\n      swap1\n      0x01\n      add\n      swap1\n      0x20\n      add\n      dup1\n      dup4\n      gt\n      tag_134\n      jumpi\n      dup3\n      swap1\n      sub\n      0x1f\n      and\n      dup3\n      add\n      swap2\n    tag_132:\n      pop\n      pop\n      pop\n      pop\n      pop\n      swap1\n      dup1\n      0x02\n      add\n      0x00\n      swap1\n      sload\n      swap1\n      0x0100\n      exp\n      swap1\n      div\n      0xff\n      and\n      swap1\n      pop\n      dup4\n      jump\t// out\n        /* \"contracts/BaseContract.sol\":3436:3497  mapping(address=>SertifikaMerkezi) public sertifikaMerkezleri */\n    tag_42:\n      mstore(0x20, 0x0a)\n      dup1\n      0x00\n      mstore\n      keccak256(0x00, 0x40)\n      0x00\n      swap2\n      pop\n      swap1\n      pop\n      dup1\n      0x00\n      add\n      0x00\n      swap1\n      sload\n      swap1\n      0x0100\n      exp\n      swap1\n      div\n      0xff\n      and\n      swap1\n      dup1\n      0x01\n      add\n      dup1\n      sload\n      tag_135\n      swap1\n      tag_106\n      jump\t// in\n    tag_135:\n      dup1\n      0x1f\n      add\n      0x20\n      dup1\n      swap2\n      div\n      mul\n      0x20\n      add\n      mload(0x40)\n      swap1\n      dup2\n      add\n      0x40\n      mstore\n      dup1\n      swap3\n      swap2\n      swap1\n      dup2\n      dup2\n      mstore\n      0x20\n      add\n      dup3\n      dup1\n      sload\n      tag_136\n      swap1\n      tag_106\n      jump\t// in\n    tag_136:\n      dup1\n      iszero\n      tag_137\n      jumpi\n      dup1\n      0x1f\n      lt\n      tag_138\n      jumpi\n      0x0100\n      dup1\n      dup4\n      sload\n      div\n      mul\n      dup4\n      mstore\n      swap2\n      0x20\n      add\n      swap2\n      jump(tag_137)\n    tag_138:\n      dup3\n      add\n      swap2\n      swap1\n      0x00\n      mstore\n      keccak256(0x00, 0x20)\n      swap1\n    tag_139:\n      dup2\n      sload\n      dup2\n      mstore\n      swap1\n      0x01\n      add\n      swap1\n      0x20\n      add\n      dup1\n      dup4\n      gt\n      tag_139\n      jumpi\n      dup3\n      swap1\n      sub\n      0x1f\n      and\n      dup3\n      add\n      swap2\n    tag_137:\n      pop\n      pop\n      pop\n      pop\n      pop\n      swap1\n      dup1\n      0x02\n      add\n      0x00\n      swap1\n      sload\n      swap1\n      0x0100\n      exp\n      swap1\n      div\n      0xff\n      and\n      swap1\n      pop\n      dup4\n      jump\t// out\n        /* \"contracts/BaseContract.sol\":3246:3286  mapping(address=>Firma) public  firmalar */\n    tag_46:\n      mstore(0x20, 0x06)\n      dup1\n      0x00\n      mstore\n      keccak256(0x00, 0x40)\n      0x00\n      swap2\n      pop\n      swap1\n      pop\n      dup1\n      0x00\n      add\n      0x00\n      swap1\n      sload\n      swap1\n      0x0100\n      exp\n      swap1\n      div\n      0xff\n      and\n      swap1\n      dup1\n      0x00\n      add\n      0x01\n      swap1\n      sload\n      swap1\n      0x0100\n      exp\n      swap1\n      div\n      0xff\n      and\n      swap1\n      dup1\n      0x01\n      add\n      sload\n      swap1\n      dup1\n      0x02\n      add\n      dup1\n      sload\n      tag_140\n      swap1\n      tag_106\n      jump\t// in\n    tag_140:\n      dup1\n      0x1f\n      add\n      0x20\n      dup1\n      swap2\n      div\n      mul\n      0x20\n      add\n      mload(0x40)\n      swap1\n      dup2\n      add\n      0x40\n      mstore\n      dup1\n      swap3\n      swap2\n      swap1\n      dup2\n      dup2\n      mstore\n      0x20\n      add\n      dup3\n      dup1\n      sload\n      tag_141\n      swap1\n      tag_106\n      jump\t// in\n    tag_141:\n      dup1\n      iszero\n      tag_142\n      jumpi\n      dup1\n      0x1f\n      lt\n      tag_143\n      jumpi\n      0x0100\n      dup1\n      dup4\n      sload\n      div\n      mul\n      dup4\n      mstore\n      swap2\n      0x20\n      add\n      swap2\n      jump(tag_142)\n    tag_143:\n      dup3\n      add\n      swap2\n      swap1\n      0x00\n      mstore\n      keccak256(0x00, 0x20)\n      swap1\n    tag_144:\n      dup2\n      sload\n      dup2\n      mstore\n      swap1\n      0x01\n      add\n      swap1\n      0x20\n      add\n      dup1\n      dup4\n      gt\n      tag_144\n      jumpi\n      dup3\n      swap1\n      sub\n      0x1f\n      and\n      dup3\n      add\n      swap2\n    tag_142:\n      pop\n      pop\n      pop\n      pop\n      pop\n      swap1\n      pop\n      dup5\n      jump\t// out\n        /* \"contracts/YabanciDilBilgileri.sol\":530:608  mapping(address=>mapping(uint=>YabanciDilBilgi)) public yabanciDilBilgiListesi */\n    tag_52:\n      mstore(0x20, 0x0d)\n      dup2\n      0x00\n      mstore\n      mstore(0x20, keccak256(0x00, 0x40))\n      dup1\n      0x00\n      mstore\n      keccak256(0x00, 0x40)\n      0x00\n      swap2\n      pop\n      swap2\n      pop\n      pop\n      dup1\n      0x00\n      add\n      sload\n      swap1\n      dup1\n      0x01\n      add\n      0x00\n      swap1\n      sload\n      swap1\n      0x0100\n      exp\n      swap1\n      div\n      0xffffffffffffffffffffffffffffffffffffffff\n      and\n      swap1\n      dup1\n      0x01\n      add\n      0x14\n      swap1\n      sload\n      swap1\n      0x0100\n      exp\n      swap1\n      div\n      0xff\n      and\n      swap1\n      dup1\n      0x02\n      add\n      sload\n      swap1\n      dup1\n      0x03\n      add\n      sload\n      swap1\n      dup1\n      0x04\n      add\n      0x00\n      swap1\n      sload\n      swap1\n      0x0100\n      exp\n      swap1\n      div\n      0xff\n      and\n      swap1\n      dup1\n      0x04\n      add\n      0x01\n      swap1\n      sload\n      swap1\n      0x0100\n      exp\n      swap1\n      div\n      0xffffffff\n      and\n      swap1\n      dup1\n      0x04\n      add\n      0x05\n      swap1\n      sload\n      swap1\n      0x0100\n      exp\n      swap1\n      div\n      0xff\n      and\n      swap1\n      dup1\n      0x05\n      add\n      mload(0x40)\n      dup1\n      0x60\n      add\n      0x40\n      mstore\n      swap1\n      dup2\n      0x00\n      dup3\n      add\n      sload\n      dup2\n      mstore\n      0x20\n      add\n      0x01\n      dup3\n      add\n      0x00\n      swap1\n      sload\n      swap1\n      0x0100\n      exp\n      swap1\n      div\n      0xffffffffffffffffffffffffffffffffffffffff\n      and\n      0xffffffffffffffffffffffffffffffffffffffff\n      and\n      0xffffffffffffffffffffffffffffffffffffffff\n      and\n      dup2\n      mstore\n      0x20\n      add\n      0x01\n      dup3\n      add\n      0x14\n      swap1\n      sload\n      swap1\n      0x0100\n      exp\n      swap1\n      div\n      0xff\n      and\n      0x02\n      dup2\n      gt\n      iszero\n      tag_145\n      jumpi\n      tag_146\n      tag_98\n      jump\t// in\n    tag_146:\n    tag_145:\n      0x02\n      dup2\n      gt\n      iszero\n      tag_147\n      jumpi\n      tag_148\n      tag_98\n      jump\t// in\n    tag_148:\n    tag_147:\n      dup2\n      mstore\n      pop\n      pop\n      swap1\n      pop\n      dup10\n      jump\t// out\n        /* \"contracts/BaseContract.sol\":3338:3387  mapping(address=>KamuKurumu) public kamuKurumlari */\n    tag_57:\n      mstore(0x20, 0x08)\n      dup1\n      0x00\n      mstore\n      keccak256(0x00, 0x40)\n      0x00\n      swap2\n      pop\n      swap1\n      pop\n      dup1\n      0x00\n      add\n      0x00\n      swap1\n      sload\n      swap1\n      0x0100\n      exp\n      swap1\n      div\n      0xff\n      and\n      swap1\n      dup1\n      0x01\n      add\n      dup1\n      sload\n      tag_149\n      swap1\n      tag_106\n      jump\t// in\n    tag_149:\n      dup1\n      0x1f\n      add\n      0x20\n      dup1\n      swap2\n      div\n      mul\n      0x20\n      add\n      mload(0x40)\n      swap1\n      dup2\n      add\n      0x40\n      mstore\n      dup1\n      swap3\n      swap2\n      swap1\n      dup2\n      dup2\n      mstore\n      0x20\n      add\n      dup3\n      dup1\n      sload\n      tag_150\n      swap1\n      tag_106\n      jump\t// in\n    tag_150:\n      dup1\n      iszero\n      tag_151\n      jumpi\n      dup1\n      0x1f\n      lt\n      tag_152\n      jumpi\n      0x0100\n      dup1\n      dup4\n      sload\n      div\n      mul\n      dup4\n      mstore\n      swap2\n      0x20\n      add\n      swap2\n      jump(tag_151)\n    tag_152:\n      dup3\n      add\n      swap2\n      swap1\n      0x00\n      mstore\n      keccak256(0x00, 0x20)\n      swap1\n    tag_153:\n      dup2\n      sload\n      dup2\n      mstore\n      swap1\n      0x01\n      add\n      swap1\n      0x20\n      add\n      dup1\n      dup4\n      gt\n      tag_153\n      jumpi\n      dup3\n      swap1\n      sub\n      0x1f\n      and\n      dup3\n      add\n      swap2\n    tag_151:\n      pop\n      pop\n      pop\n      pop\n      pop\n      swap1\n      dup1\n      0x02\n      add\n      0x00\n      swap1\n      sload\n      swap1\n      0x0100\n      exp\n      swap1\n      div\n      0xff\n      and\n      swap1\n      pop\n      dup4\n      jump\t// out\n        /* \"contracts/BaseContract.sol\":3394:3429  mapping(address=>STK) public stklar */\n    tag_61:\n      mstore(0x20, 0x09)\n      dup1\n      0x00\n      mstore\n      keccak256(0x00, 0x40)\n      0x00\n      swap2\n      pop\n      swap1\n      pop\n      dup1\n      0x00\n      add\n      0x00\n      swap1\n      sload\n      swap1\n      0x0100\n      exp\n      swap1\n      div\n      0xff\n      and\n      swap1\n      dup1\n      0x01\n      add\n      dup1\n      sload\n      tag_154\n      swap1\n      tag_106\n      jump\t// in\n    tag_154:\n      dup1\n      0x1f\n      add\n      0x20\n      dup1\n      swap2\n      div\n      mul\n      0x20\n      add\n      mload(0x40)\n      swap1\n      dup2\n      add\n      0x40\n      mstore\n      dup1\n      swap3\n      swap2\n      swap1\n      dup2\n      dup2\n      mstore\n      0x20\n      add\n      dup3\n      dup1\n      sload\n      tag_155\n      swap1\n      tag_106\n      jump\t// in\n    tag_155:\n      dup1\n      iszero\n      tag_156\n      jumpi\n      dup1\n      0x1f\n      lt\n      tag_157\n      jumpi\n      0x0100\n      dup1\n      dup4\n      sload\n      div\n      mul\n      dup4\n      mstore\n      swap2\n      0x20\n      add\n      swap2\n      jump(tag_156)\n    tag_157:\n      dup3\n      add\n      swap2\n      swap1\n      0x00\n      mstore\n      keccak256(0x00, 0x20)\n      swap1\n    tag_158:\n      dup2\n      sload\n      dup2\n      mstore\n      swap1\n      0x01\n      add\n      swap1\n      0x20\n      add\n      dup1\n      dup4\n      gt\n      tag_158\n      jumpi\n      dup3\n      swap1\n      sub\n      0x1f\n      and\n      dup3\n      add\n      swap2\n    tag_156:\n      pop\n      pop\n      pop\n      pop\n      pop\n      swap1\n      dup1\n      0x02\n      add\n      0x00\n      swap1\n      sload\n      swap1\n      0x0100\n      exp\n      swap1\n      div\n      0xff\n      and\n      swap1\n      pop\n      dup4\n      jump\t// out\n        /* \"contracts/BaseContract.sol\":3505:3546  mapping(uint32=>YabanciDil) public diller */\n    tag_66:\n      mstore(0x20, 0x0b)\n      dup1\n      0x00\n      mstore\n      keccak256(0x00, 0x40)\n      0x00\n      swap2\n      pop\n      swap1\n      pop\n      dup1\n      0x00\n      add\n      0x00\n      swap1\n      sload\n      swap1\n      0x0100\n      exp\n      swap1\n      div\n      0xffffffff\n      and\n      swap1\n      dup1\n      0x01\n      add\n      dup1\n      sload\n      tag_159\n      swap1\n      tag_106\n      jump\t// in\n    tag_159:\n      dup1\n      0x1f\n      add\n      0x20\n      dup1\n      swap2\n      div\n      mul\n      0x20\n      add\n      mload(0x40)\n      swap1\n      dup2\n      add\n      0x40\n      mstore\n      dup1\n      swap3\n      swap2\n      swap1\n      dup2\n      dup2\n      mstore\n      0x20\n      add\n      dup3\n      dup1\n      sload\n      tag_160\n      swap1\n      tag_106\n      jump\t// in\n    tag_160:\n      dup1\n      iszero\n      tag_161\n      jumpi\n      dup1\n      0x1f\n      lt\n      tag_162\n      jumpi\n      0x0100\n      dup1\n      dup4\n      sload\n      div\n      mul\n      dup4\n      mstore\n      swap2\n      0x20\n      add\n      swap2\n      jump(tag_161)\n    tag_162:\n      dup3\n      add\n      swap2\n      swap1\n      0x00\n      mstore\n      keccak256(0x00, 0x20)\n      swap1\n    tag_163:\n      dup2\n      sload\n      dup2\n      mstore\n      swap1\n      0x01\n      add\n      swap1\n      0x20\n      add\n      dup1\n      dup4\n      gt\n      tag_163\n      jumpi\n      dup3\n      swap1\n      sub\n      0x1f\n      and\n      dup3\n      add\n      swap2\n    tag_161:\n      pop\n      pop\n      pop\n      pop\n      pop\n      swap1\n      pop\n      dup3\n      jump\t// out\n        /* \"contracts/YabanciDilBilgileri.sol\":186:200  uint public id */\n    tag_70:\n      sload(0x0c)\n      dup2\n      jump\t// out\n        /* \"contracts/BaseContract.sol\":3188:3239  mapping(address=>Akademisyen) public akademisyenler */\n    tag_74:\n      mstore(0x20, 0x05)\n      dup1\n      0x00\n      mstore\n      keccak256(0x00, 0x40)\n      0x00\n      swap2\n      pop\n      swap1\n      pop\n      dup1\n      0x00\n      add\n      0x00\n      swap1\n      sload\n      swap1\n      0x0100\n      exp\n      swap1\n      div\n      0xff\n      and\n      swap1\n      dup1\n      0x00\n      add\n      0x01\n      swap1\n      sload\n      swap1\n      0x0100\n      exp\n      swap1\n      div\n      0xffffffffffffffffffffffffffffffffffffffff\n      and\n      swap1\n      dup1\n      0x00\n      add\n      0x15\n      swap1\n      sload\n      swap1\n      0x0100\n      exp\n      swap1\n      div\n      0xffff\n      and\n      swap1\n      dup1\n      0x00\n      add\n      0x17\n      swap1\n      sload\n      swap1\n      0x0100\n      exp\n      swap1\n      div\n      0xff\n      and\n      swap1\n      dup1\n      0x01\n      add\n      dup1\n      sload\n      tag_164\n      swap1\n      tag_106\n      jump\t// in\n    tag_164:\n      dup1\n      0x1f\n      add\n      0x20\n      dup1\n      swap2\n      div\n      mul\n      0x20\n      add\n      mload(0x40)\n      swap1\n      dup2\n      add\n      0x40\n      mstore\n      dup1\n      swap3\n      swap2\n      swap1\n      dup2\n      dup2\n      mstore\n      0x20\n      add\n      dup3\n      dup1\n      sload\n      tag_165\n      swap1\n      tag_106\n      jump\t// in\n    tag_165:\n      dup1\n      iszero\n      tag_166\n      jumpi\n      dup1\n      0x1f\n      lt\n      tag_167\n      jumpi\n      0x0100\n      dup1\n      dup4\n      sload\n      div\n      mul\n      dup4\n      mstore\n      swap2\n      0x20\n      add\n      swap2\n      jump(tag_166)\n    tag_167:\n      dup3\n      add\n      swap2\n      swap1\n      0x00\n      mstore\n      keccak256(0x00, 0x20)\n      swap1\n    tag_168:\n      dup2\n      sload\n      dup2\n      mstore\n      swap1\n      0x01\n      add\n      swap1\n      0x20\n      add\n      dup1\n      dup4\n      gt\n      tag_168\n      jumpi\n      dup3\n      swap1\n      sub\n      0x1f\n      and\n      dup3\n      add\n      swap2\n    tag_166:\n      pop\n      pop\n      pop\n      pop\n      pop\n      swap1\n      dup1\n      0x02\n      add\n      dup1\n      sload\n      tag_169\n      swap1\n      tag_106\n      jump\t// in\n    tag_169:\n      dup1\n      0x1f\n      add\n      0x20\n      dup1\n      swap2\n      div\n      mul\n      0x20\n      add\n      mload(0x40)\n      swap1\n      dup2\n      add\n      0x40\n      mstore\n      dup1\n      swap3\n      swap2\n      swap1\n      dup2\n      dup2\n      mstore\n      0x20\n      add\n      dup3\n      dup1\n      sload\n      tag_170\n      swap1\n      tag_106\n      jump\t// in\n    tag_170:\n      dup1\n      iszero\n      tag_171\n      jumpi\n      dup1\n      0x1f\n      lt\n      tag_172\n      jumpi\n      0x0100\n      dup1\n      dup4\n      sload\n      div\n      mul\n      dup4\n      mstore\n      swap2\n      0x20\n      add\n      swap2\n      jump(tag_171)\n    tag_172:\n      dup3\n      add\n      swap2\n      swap1\n      0x00\n      mstore\n      keccak256(0x00, 0x20)\n      swap1\n    tag_173:\n      dup2\n      sload\n      dup2\n      mstore\n      swap1\n      0x01\n      add\n      swap1\n      0x20\n      add\n      dup1\n      dup4\n      gt\n      tag_173\n      jumpi\n      dup3\n      swap1\n      sub\n      0x1f\n      and\n      dup3\n      add\n      swap2\n    tag_171:\n      pop\n      pop\n      pop\n      pop\n      pop\n      swap1\n      pop\n      dup7\n      jump\t// out\n        /* \"contracts/YabanciDilBilgileri.sol\":1105:2291  function ekleYabanciDilBilgi(address _kisiAddress, OnaylayanKurum onayKurumTipi, uint basTarih, uint bitTarih, EgitimBilgileri.OgretimTipi ogretimTipi, uint32 dilId, Seviye seviye)  public sadece_Uni_Firma_Kamu{\r... */\n    tag_80:\n        /* \"contracts/BaseContract.sol\":2759:2772  universiteler */\n      0x04\n        /* \"contracts/BaseContract.sol\":2759:2784  universiteler[msg.sender] */\n      0x00\n        /* \"contracts/BaseContract.sol\":2773:2783  msg.sender */\n      caller\n        /* \"contracts/BaseContract.sol\":2759:2784  universiteler[msg.sender] */\n      0xffffffffffffffffffffffffffffffffffffffff\n      and\n      0xffffffffffffffffffffffffffffffffffffffff\n      and\n      dup2\n      mstore\n      0x20\n      add\n      swap1\n      dup2\n      mstore\n      0x20\n      add\n      0x00\n      keccak256\n        /* \"contracts/BaseContract.sol\":2759:2790  universiteler[msg.sender].durum */\n      0x00\n      add\n      0x00\n      swap1\n      sload\n      swap1\n      0x0100\n      exp\n      swap1\n      div\n      0xff\n      and\n        /* \"contracts/BaseContract.sol\":2759:2818  universiteler[msg.sender].durum||firmalar[msg.sender].durum */\n      dup1\n      tag_175\n      jumpi\n      pop\n        /* \"contracts/BaseContract.sol\":2792:2800  firmalar */\n      0x06\n        /* \"contracts/BaseContract.sol\":2792:2812  firmalar[msg.sender] */\n      0x00\n        /* \"contracts/BaseContract.sol\":2801:2811  msg.sender */\n      caller\n        /* \"contracts/BaseContract.sol\":2792:2812  firmalar[msg.sender] */\n      0xffffffffffffffffffffffffffffffffffffffff\n      and\n      0xffffffffffffffffffffffffffffffffffffffff\n      and\n      dup2\n      mstore\n      0x20\n      add\n      swap1\n      dup2\n      mstore\n      0x20\n      add\n      0x00\n      keccak256\n        /* \"contracts/BaseContract.sol\":2792:2818  firmalar[msg.sender].durum */\n      0x00\n      add\n      0x00\n      swap1\n      sload\n      swap1\n      0x0100\n      exp\n      swap1\n      div\n      0xff\n      and\n        /* \"contracts/BaseContract.sol\":2759:2818  universiteler[msg.sender].durum||firmalar[msg.sender].durum */\n    tag_175:\n        /* \"contracts/BaseContract.sol\":2759:2851  universiteler[msg.sender].durum||firmalar[msg.sender].durum||kamuKurumlari[msg.sender].durum */\n      dup1\n      tag_176\n      jumpi\n      pop\n        /* \"contracts/BaseContract.sol\":2820:2833  kamuKurumlari */\n      0x08\n        /* \"contracts/BaseContract.sol\":2820:2845  kamuKurumlari[msg.sender] */\n      0x00\n        /* \"contracts/BaseContract.sol\":2834:2844  msg.sender */\n      caller\n        /* \"contracts/BaseContract.sol\":2820:2845  kamuKurumlari[msg.sender] */\n      0xffffffffffffffffffffffffffffffffffffffff\n      and\n      0xffffffffffffffffffffffffffffffffffffffff\n      and\n      dup2\n      mstore\n      0x20\n      add\n      swap1\n      dup2\n      mstore\n      0x20\n      add\n      0x00\n      keccak256\n        /* \"contracts/BaseContract.sol\":2820:2851  kamuKurumlari[msg.sender].durum */\n      0x00\n      add\n      0x00\n      swap1\n      sload\n      swap1\n      0x0100\n      exp\n      swap1\n      div\n      0xff\n      and\n        /* \"contracts/BaseContract.sol\":2759:2851  universiteler[msg.sender].durum||firmalar[msg.sender].durum||kamuKurumlari[msg.sender].durum */\n    tag_176:\n        /* \"contracts/BaseContract.sol\":2751:2903  require(universiteler[msg.sender].durum||firmalar[msg.sender].durum||kamuKurumlari[msg.sender].durum,\r... */\n      tag_177\n      jumpi\n      mload(0x40)\n      0x08c379a000000000000000000000000000000000000000000000000000000000\n      dup2\n      mstore\n      0x04\n      add\n      tag_178\n      swap1\n      tag_116\n      jump\t// in\n    tag_178:\n      mload(0x40)\n      dup1\n      swap2\n      sub\n      swap1\n      revert\n    tag_177:\n        /* \"contracts/YabanciDilBilgileri.sol\":1339:1346  kisiler */\n      0x03\n        /* \"contracts/YabanciDilBilgileri.sol\":1339:1360  kisiler[_kisiAddress] */\n      0x00\n        /* \"contracts/YabanciDilBilgileri.sol\":1347:1359  _kisiAddress */\n      dup9\n        /* \"contracts/YabanciDilBilgileri.sol\":1339:1360  kisiler[_kisiAddress] */\n      0xffffffffffffffffffffffffffffffffffffffff\n      and\n      0xffffffffffffffffffffffffffffffffffffffff\n      and\n      dup2\n      mstore\n      0x20\n      add\n      swap1\n      dup2\n      mstore\n      0x20\n      add\n      0x00\n      keccak256\n        /* \"contracts/YabanciDilBilgileri.sol\":1339:1366  kisiler[_kisiAddress].durum */\n      0x00\n      add\n      0x00\n      swap1\n      sload\n      swap1\n      0x0100\n      exp\n      swap1\n      div\n      0xff\n      and\n        /* \"contracts/YabanciDilBilgileri.sol\":1331:1387  require(kisiler[_kisiAddress].durum,\"Kisi mevcut degil\") */\n      tag_180\n      jumpi\n      mload(0x40)\n      0x08c379a000000000000000000000000000000000000000000000000000000000\n      dup2\n      mstore\n      0x04\n      add\n      tag_181\n      swap1\n      tag_93\n      jump\t// in\n    tag_181:\n      mload(0x40)\n      dup1\n      swap2\n      sub\n      swap1\n      revert\n    tag_180:\n        /* \"contracts/YabanciDilBilgileri.sol\":1403:1414  uint yeniId */\n      0x00\n        /* \"contracts/YabanciDilBilgileri.sol\":1415:1417  id */\n      0x0c\n      0x00\n        /* \"contracts/YabanciDilBilgileri.sol\":1415:1419  id++ */\n      dup2\n      sload\n      dup1\n      swap3\n      swap2\n      swap1\n      tag_182\n      swap1\n      tag_95\n      jump\t// in\n    tag_182:\n      swap2\n      swap1\n      pop\n      sstore\n        /* \"contracts/YabanciDilBilgileri.sol\":1403:1419  uint yeniId=id++ */\n      swap1\n      pop\n        /* \"contracts/YabanciDilBilgileri.sol\":1494:1507  onayKurumTipi */\n      dup7\n        /* \"contracts/YabanciDilBilgileri.sol\":1435:1457  yabanciDilBilgiListesi */\n      0x0d\n        /* \"contracts/YabanciDilBilgileri.sol\":1435:1471  yabanciDilBilgiListesi[_kisiAddress] */\n      0x00\n        /* \"contracts/YabanciDilBilgileri.sol\":1458:1470  _kisiAddress */\n      dup11\n        /* \"contracts/YabanciDilBilgileri.sol\":1435:1471  yabanciDilBilgiListesi[_kisiAddress] */\n      0xffffffffffffffffffffffffffffffffffffffff\n      and\n      0xffffffffffffffffffffffffffffffffffffffff\n      and\n      dup2\n      mstore\n      0x20\n      add\n      swap1\n      dup2\n      mstore\n      0x20\n      add\n      0x00\n      keccak256\n        /* \"contracts/YabanciDilBilgileri.sol\":1435:1479  yabanciDilBilgiListesi[_kisiAddress][yeniId] */\n      0x00\n        /* \"contracts/YabanciDilBilgileri.sol\":1472:1478  yeniId */\n      dup4\n        /* \"contracts/YabanciDilBilgileri.sol\":1435:1479  yabanciDilBilgiListesi[_kisiAddress][yeniId] */\n      dup2\n      mstore\n      0x20\n      add\n      swap1\n      dup2\n      mstore\n      0x20\n      add\n      0x00\n      keccak256\n        /* \"contracts/YabanciDilBilgileri.sol\":1435:1493  yabanciDilBilgiListesi[_kisiAddress][yeniId].onayKurumTipi */\n      0x01\n      add\n      0x14\n        /* \"contracts/YabanciDilBilgileri.sol\":1435:1507  yabanciDilBilgiListesi[_kisiAddress][yeniId].onayKurumTipi=onayKurumTipi */\n      0x0100\n      exp\n      dup2\n      sload\n      dup2\n      0xff\n      mul\n      not\n      and\n      swap1\n      dup4\n      0x05\n      dup2\n      gt\n      iszero\n      tag_183\n      jumpi\n      tag_184\n      tag_98\n      jump\t// in\n    tag_184:\n    tag_183:\n      mul\n      or\n      swap1\n      sstore\n      pop\n        /* \"contracts/YabanciDilBilgileri.sol\":1577:1585  basTarih */\n      dup6\n        /* \"contracts/YabanciDilBilgileri.sol\":1523:1545  yabanciDilBilgiListesi */\n      0x0d\n        /* \"contracts/YabanciDilBilgileri.sol\":1523:1559  yabanciDilBilgiListesi[_kisiAddress] */\n      0x00\n        /* \"contracts/YabanciDilBilgileri.sol\":1546:1558  _kisiAddress */\n      dup11\n        /* \"contracts/YabanciDilBilgileri.sol\":1523:1559  yabanciDilBilgiListesi[_kisiAddress] */\n      0xffffffffffffffffffffffffffffffffffffffff\n      and\n      0xffffffffffffffffffffffffffffffffffffffff\n      and\n      dup2\n      mstore\n      0x20\n      add\n      swap1\n      dup2\n      mstore\n      0x20\n      add\n      0x00\n      keccak256\n        /* \"contracts/YabanciDilBilgileri.sol\":1523:1567  yabanciDilBilgiListesi[_kisiAddress][yeniId] */\n      0x00\n        /* \"contracts/YabanciDilBilgileri.sol\":1560:1566  yeniId */\n      dup4\n        /* \"contracts/YabanciDilBilgileri.sol\":1523:1567  yabanciDilBilgiListesi[_kisiAddress][yeniId] */\n      dup2\n      mstore\n      0x20\n      add\n      swap1\n      dup2\n      mstore\n      0x20\n      add\n      0x00\n      keccak256\n        /* \"contracts/YabanciDilBilgileri.sol\":1523:1576  yabanciDilBilgiListesi[_kisiAddress][yeniId].basTarih */\n      0x02\n      add\n        /* \"contracts/YabanciDilBilgileri.sol\":1523:1585  yabanciDilBilgiListesi[_kisiAddress][yeniId].basTarih=basTarih */\n      dup2\n      swap1\n      sstore\n      pop\n        /* \"contracts/YabanciDilBilgileri.sol\":1655:1663  bitTarih */\n      dup5\n        /* \"contracts/YabanciDilBilgileri.sol\":1601:1623  yabanciDilBilgiListesi */\n      0x0d\n        /* \"contracts/YabanciDilBilgileri.sol\":1601:1637  yabanciDilBilgiListesi[_kisiAddress] */\n      0x00\n        /* \"contracts/YabanciDilBilgileri.sol\":1624:1636  _kisiAddress */\n      dup11\n        /* \"contracts/YabanciDilBilgileri.sol\":1601:1637  yabanciDilBilgiListesi[_kisiAddress] */\n      0xffffffffffffffffffffffffffffffffffffffff\n      and\n      0xffffffffffffffffffffffffffffffffffffffff\n      and\n      dup2\n      mstore\n      0x20\n      add\n      swap1\n      dup2\n      mstore\n      0x20\n      add\n      0x00\n      keccak256\n        /* \"contracts/YabanciDilBilgileri.sol\":1601:1645  yabanciDilBilgiListesi[_kisiAddress][yeniId] */\n      0x00\n        /* \"contracts/YabanciDilBilgileri.sol\":1638:1644  yeniId */\n      dup4\n        /* \"contracts/YabanciDilBilgileri.sol\":1601:1645  yabanciDilBilgiListesi[_kisiAddress][yeniId] */\n      dup2\n      mstore\n      0x20\n      add\n      swap1\n      dup2\n      mstore\n      0x20\n      add\n      0x00\n      keccak256\n        /* \"contracts/YabanciDilBilgileri.sol\":1601:1654  yabanciDilBilgiListesi[_kisiAddress][yeniId].bitTarih */\n      0x03\n      add\n        /* \"contracts/YabanciDilBilgileri.sol\":1601:1663  yabanciDilBilgiListesi[_kisiAddress][yeniId].bitTarih=bitTarih */\n      dup2\n      swap1\n      sstore\n      pop\n        /* \"contracts/YabanciDilBilgileri.sol\":1736:1747  ogretimTipi */\n      dup4\n        /* \"contracts/YabanciDilBilgileri.sol\":1679:1701  yabanciDilBilgiListesi */\n      0x0d\n        /* \"contracts/YabanciDilBilgileri.sol\":1679:1715  yabanciDilBilgiListesi[_kisiAddress] */\n      0x00\n        /* \"contracts/YabanciDilBilgileri.sol\":1702:1714  _kisiAddress */\n      dup11\n        /* \"contracts/YabanciDilBilgileri.sol\":1679:1715  yabanciDilBilgiListesi[_kisiAddress] */\n      0xffffffffffffffffffffffffffffffffffffffff\n      and\n      0xffffffffffffffffffffffffffffffffffffffff\n      and\n      dup2\n      mstore\n      0x20\n      add\n      swap1\n      dup2\n      mstore\n      0x20\n      add\n      0x00\n      keccak256\n        /* \"contracts/YabanciDilBilgileri.sol\":1679:1723  yabanciDilBilgiListesi[_kisiAddress][yeniId] */\n      0x00\n        /* \"contracts/YabanciDilBilgileri.sol\":1716:1722  yeniId */\n      dup4\n        /* \"contracts/YabanciDilBilgileri.sol\":1679:1723  yabanciDilBilgiListesi[_kisiAddress][yeniId] */\n      dup2\n      mstore\n      0x20\n      add\n      swap1\n      dup2\n      mstore\n      0x20\n      add\n      0x00\n      keccak256\n        /* \"contracts/YabanciDilBilgileri.sol\":1679:1735  yabanciDilBilgiListesi[_kisiAddress][yeniId].ogretimTipi */\n      0x04\n      add\n      0x00\n        /* \"contracts/YabanciDilBilgileri.sol\":1679:1747  yabanciDilBilgiListesi[_kisiAddress][yeniId].ogretimTipi=ogretimTipi */\n      0x0100\n      exp\n      dup2\n      sload\n      dup2\n      0xff\n      mul\n      not\n      and\n      swap1\n      dup4\n      0x03\n      dup2\n      gt\n      iszero\n      tag_185\n      jumpi\n      tag_186\n      tag_98\n      jump\t// in\n    tag_186:\n    tag_185:\n      mul\n      or\n      swap1\n      sstore\n      pop\n        /* \"contracts/YabanciDilBilgileri.sol\":1814:1819  dilId */\n      dup3\n        /* \"contracts/YabanciDilBilgileri.sol\":1763:1785  yabanciDilBilgiListesi */\n      0x0d\n        /* \"contracts/YabanciDilBilgileri.sol\":1763:1799  yabanciDilBilgiListesi[_kisiAddress] */\n      0x00\n        /* \"contracts/YabanciDilBilgileri.sol\":1786:1798  _kisiAddress */\n      dup11\n        /* \"contracts/YabanciDilBilgileri.sol\":1763:1799  yabanciDilBilgiListesi[_kisiAddress] */\n      0xffffffffffffffffffffffffffffffffffffffff\n      and\n      0xffffffffffffffffffffffffffffffffffffffff\n      and\n      dup2\n      mstore\n      0x20\n      add\n      swap1\n      dup2\n      mstore\n      0x20\n      add\n      0x00\n      keccak256\n        /* \"contracts/YabanciDilBilgileri.sol\":1763:1807  yabanciDilBilgiListesi[_kisiAddress][yeniId] */\n      0x00\n        /* \"contracts/YabanciDilBilgileri.sol\":1800:1806  yeniId */\n      dup4\n        /* \"contracts/YabanciDilBilgileri.sol\":1763:1807  yabanciDilBilgiListesi[_kisiAddress][yeniId] */\n      dup2\n      mstore\n      0x20\n      add\n      swap1\n      dup2\n      mstore\n      0x20\n      add\n      0x00\n      keccak256\n        /* \"contracts/YabanciDilBilgileri.sol\":1763:1813  yabanciDilBilgiListesi[_kisiAddress][yeniId].dilId */\n      0x04\n      add\n      0x01\n        /* \"contracts/YabanciDilBilgileri.sol\":1763:1819  yabanciDilBilgiListesi[_kisiAddress][yeniId].dilId=dilId */\n      0x0100\n      exp\n      dup2\n      sload\n      dup2\n      0xffffffff\n      mul\n      not\n      and\n      swap1\n      dup4\n      0xffffffff\n      and\n      mul\n      or\n      swap1\n      sstore\n      pop\n        /* \"contracts/YabanciDilBilgileri.sol\":1887:1893  seviye */\n      dup2\n        /* \"contracts/YabanciDilBilgileri.sol\":1835:1857  yabanciDilBilgiListesi */\n      0x0d\n        /* \"contracts/YabanciDilBilgileri.sol\":1835:1871  yabanciDilBilgiListesi[_kisiAddress] */\n      0x00\n        /* \"contracts/YabanciDilBilgileri.sol\":1858:1870  _kisiAddress */\n      dup11\n        /* \"contracts/YabanciDilBilgileri.sol\":1835:1871  yabanciDilBilgiListesi[_kisiAddress] */\n      0xffffffffffffffffffffffffffffffffffffffff\n      and\n      0xffffffffffffffffffffffffffffffffffffffff\n      and\n      dup2\n      mstore\n      0x20\n      add\n      swap1\n      dup2\n      mstore\n      0x20\n      add\n      0x00\n      keccak256\n        /* \"contracts/YabanciDilBilgileri.sol\":1835:1879  yabanciDilBilgiListesi[_kisiAddress][yeniId] */\n      0x00\n        /* \"contracts/YabanciDilBilgileri.sol\":1872:1878  yeniId */\n      dup4\n        /* \"contracts/YabanciDilBilgileri.sol\":1835:1879  yabanciDilBilgiListesi[_kisiAddress][yeniId] */\n      dup2\n      mstore\n      0x20\n      add\n      swap1\n      dup2\n      mstore\n      0x20\n      add\n      0x00\n      keccak256\n        /* \"contracts/YabanciDilBilgileri.sol\":1835:1886  yabanciDilBilgiListesi[_kisiAddress][yeniId].seviye */\n      0x04\n      add\n      0x05\n        /* \"contracts/YabanciDilBilgileri.sol\":1835:1893  yabanciDilBilgiListesi[_kisiAddress][yeniId].seviye=seviye */\n      0x0100\n      exp\n      dup2\n      sload\n      dup2\n      0xff\n      mul\n      not\n      and\n      swap1\n      dup4\n      0x03\n      dup2\n      gt\n      iszero\n      tag_187\n      jumpi\n      tag_188\n      tag_98\n      jump\t// in\n    tag_188:\n    tag_187:\n      mul\n      or\n      swap1\n      sstore\n      pop\n        /* \"contracts/YabanciDilBilgileri.sol\":1970:1989  OnayDurum.Onaylandi */\n      0x01\n        /* \"contracts/YabanciDilBilgileri.sol\":1909:1931  yabanciDilBilgiListesi */\n      0x0d\n        /* \"contracts/YabanciDilBilgileri.sol\":1909:1945  yabanciDilBilgiListesi[_kisiAddress] */\n      0x00\n        /* \"contracts/YabanciDilBilgileri.sol\":1932:1944  _kisiAddress */\n      dup11\n        /* \"contracts/YabanciDilBilgileri.sol\":1909:1945  yabanciDilBilgiListesi[_kisiAddress] */\n      0xffffffffffffffffffffffffffffffffffffffff\n      and\n      0xffffffffffffffffffffffffffffffffffffffff\n      and\n      dup2\n      mstore\n      0x20\n      add\n      swap1\n      dup2\n      mstore\n      0x20\n      add\n      0x00\n      keccak256\n        /* \"contracts/YabanciDilBilgileri.sol\":1909:1953  yabanciDilBilgiListesi[_kisiAddress][yeniId] */\n      0x00\n        /* \"contracts/YabanciDilBilgileri.sol\":1946:1952  yeniId */\n      dup4\n        /* \"contracts/YabanciDilBilgileri.sol\":1909:1953  yabanciDilBilgiListesi[_kisiAddress][yeniId] */\n      dup2\n      mstore\n      0x20\n      add\n      swap1\n      dup2\n      mstore\n      0x20\n      add\n      0x00\n      keccak256\n        /* \"contracts/YabanciDilBilgileri.sol\":1909:1963  yabanciDilBilgiListesi[_kisiAddress][yeniId].onayBilgi */\n      0x05\n      add\n        /* \"contracts/YabanciDilBilgileri.sol\":1909:1969  yabanciDilBilgiListesi[_kisiAddress][yeniId].onayBilgi.durum */\n      0x01\n      add\n      0x14\n        /* \"contracts/YabanciDilBilgileri.sol\":1909:1989  yabanciDilBilgiListesi[_kisiAddress][yeniId].onayBilgi.durum=OnayDurum.Onaylandi */\n      0x0100\n      exp\n      dup2\n      sload\n      dup2\n      0xff\n      mul\n      not\n      and\n      swap1\n      dup4\n      0x02\n      dup2\n      gt\n      iszero\n      tag_189\n      jumpi\n      tag_190\n      tag_98\n      jump\t// in\n    tag_190:\n    tag_189:\n      mul\n      or\n      swap1\n      sstore\n      pop\n        /* \"contracts/YabanciDilBilgileri.sol\":2066:2081  block.timestamp */\n      timestamp\n        /* \"contracts/YabanciDilBilgileri.sol\":2005:2027  yabanciDilBilgiListesi */\n      0x0d\n        /* \"contracts/YabanciDilBilgileri.sol\":2005:2041  yabanciDilBilgiListesi[_kisiAddress] */\n      0x00\n        /* \"contracts/YabanciDilBilgileri.sol\":2028:2040  _kisiAddress */\n      dup11\n        /* \"contracts/YabanciDilBilgileri.sol\":2005:2041  yabanciDilBilgiListesi[_kisiAddress] */\n      0xffffffffffffffffffffffffffffffffffffffff\n      and\n      0xffffffffffffffffffffffffffffffffffffffff\n      and\n      dup2\n      mstore\n      0x20\n      add\n      swap1\n      dup2\n      mstore\n      0x20\n      add\n      0x00\n      keccak256\n        /* \"contracts/YabanciDilBilgileri.sol\":2005:2049  yabanciDilBilgiListesi[_kisiAddress][yeniId] */\n      0x00\n        /* \"contracts/YabanciDilBilgileri.sol\":2042:2048  yeniId */\n      dup4\n        /* \"contracts/YabanciDilBilgileri.sol\":2005:2049  yabanciDilBilgiListesi[_kisiAddress][yeniId] */\n      dup2\n      mstore\n      0x20\n      add\n      swap1\n      dup2\n      mstore\n      0x20\n      add\n      0x00\n      keccak256\n        /* \"contracts/YabanciDilBilgileri.sol\":2005:2059  yabanciDilBilgiListesi[_kisiAddress][yeniId].onayBilgi */\n      0x05\n      add\n        /* \"contracts/YabanciDilBilgileri.sol\":2005:2065  yabanciDilBilgiListesi[_kisiAddress][yeniId].onayBilgi.zaman */\n      0x00\n      add\n        /* \"contracts/YabanciDilBilgileri.sol\":2005:2081  yabanciDilBilgiListesi[_kisiAddress][yeniId].onayBilgi.zaman=block.timestamp */\n      dup2\n      swap1\n      sstore\n      pop\n        /* \"contracts/YabanciDilBilgileri.sol\":2158:2168  msg.sender */\n      caller\n        /* \"contracts/YabanciDilBilgileri.sol\":2097:2119  yabanciDilBilgiListesi */\n      0x0d\n        /* \"contracts/YabanciDilBilgileri.sol\":2097:2133  yabanciDilBilgiListesi[_kisiAddress] */\n      0x00\n        /* \"contracts/YabanciDilBilgileri.sol\":2120:2132  _kisiAddress */\n      dup11\n        /* \"contracts/YabanciDilBilgileri.sol\":2097:2133  yabanciDilBilgiListesi[_kisiAddress] */\n      0xffffffffffffffffffffffffffffffffffffffff\n      and\n      0xffffffffffffffffffffffffffffffffffffffff\n      and\n      dup2\n      mstore\n      0x20\n      add\n      swap1\n      dup2\n      mstore\n      0x20\n      add\n      0x00\n      keccak256\n        /* \"contracts/YabanciDilBilgileri.sol\":2097:2141  yabanciDilBilgiListesi[_kisiAddress][yeniId] */\n      0x00\n        /* \"contracts/YabanciDilBilgileri.sol\":2134:2140  yeniId */\n      dup4\n        /* \"contracts/YabanciDilBilgileri.sol\":2097:2141  yabanciDilBilgiListesi[_kisiAddress][yeniId] */\n      dup2\n      mstore\n      0x20\n      add\n      swap1\n      dup2\n      mstore\n      0x20\n      add\n      0x00\n      keccak256\n        /* \"contracts/YabanciDilBilgileri.sol\":2097:2151  yabanciDilBilgiListesi[_kisiAddress][yeniId].onayBilgi */\n      0x05\n      add\n        /* \"contracts/YabanciDilBilgileri.sol\":2097:2157  yabanciDilBilgiListesi[_kisiAddress][yeniId].onayBilgi.adres */\n      0x01\n      add\n      0x00\n        /* \"contracts/YabanciDilBilgileri.sol\":2097:2168  yabanciDilBilgiListesi[_kisiAddress][yeniId].onayBilgi.adres=msg.sender */\n      0x0100\n      exp\n      dup2\n      sload\n      dup2\n      0xffffffffffffffffffffffffffffffffffffffff\n      mul\n      not\n      and\n      swap1\n      dup4\n      0xffffffffffffffffffffffffffffffffffffffff\n      and\n      mul\n      or\n      swap1\n      sstore\n      pop\n        /* \"contracts/YabanciDilBilgileri.sol\":2202:2279  YabanciDilEklendiLog(onayKurumTipi,  basTarih,  bitTarih, ogretimTipi, dilId) */\n      0x1bc8089d220c6c0b90fb65e37237ecb0e793702849c9e0b59b1b3a02ff101206\n        /* \"contracts/YabanciDilBilgileri.sol\":2223:2236  onayKurumTipi */\n      dup8\n        /* \"contracts/YabanciDilBilgileri.sol\":2239:2247  basTarih */\n      dup8\n        /* \"contracts/YabanciDilBilgileri.sol\":2250:2258  bitTarih */\n      dup8\n        /* \"contracts/YabanciDilBilgileri.sol\":2260:2271  ogretimTipi */\n      dup8\n        /* \"contracts/YabanciDilBilgileri.sol\":2273:2278  dilId */\n      dup8\n        /* \"contracts/YabanciDilBilgileri.sol\":2202:2279  YabanciDilEklendiLog(onayKurumTipi,  basTarih,  bitTarih, ogretimTipi, dilId) */\n      mload(0x40)\n      tag_191\n      swap6\n      swap5\n      swap4\n      swap3\n      swap2\n      swap1\n      tag_129\n      jump\t// in\n    tag_191:\n      mload(0x40)\n      dup1\n      swap2\n      sub\n      swap1\n      log1\n        /* \"contracts/YabanciDilBilgileri.sol\":1315:2291  {\r... */\n      pop\n        /* \"contracts/YabanciDilBilgileri.sol\":1105:2291  function ekleYabanciDilBilgi(address _kisiAddress, OnaylayanKurum onayKurumTipi, uint basTarih, uint bitTarih, EgitimBilgileri.OgretimTipi ogretimTipi, uint32 dilId, Seviye seviye)  public sadece_Uni_Firma_Kamu{\r... */\n      pop\n      pop\n      pop\n      pop\n      pop\n      pop\n      pop\n      jump\t// out\n        /* \"contracts/BaseContract.sol\":3088:3125  mapping(address=>Kisi) public kisiler */\n    tag_83:\n      mstore(0x20, 0x03)\n      dup1\n      0x00\n      mstore\n      keccak256(0x00, 0x40)\n      0x00\n      swap2\n      pop\n      swap1\n      pop\n      dup1\n      0x00\n      add\n      0x00\n      swap1\n      sload\n      swap1\n      0x0100\n      exp\n      swap1\n      div\n      0xff\n      and\n      swap1\n      pop\n      dup2\n      jump\t// out\n        /* \"#utility.yul\":7:146   */\n    tag_193:\n        /* \"#utility.yul\":53:58   */\n      0x00\n        /* \"#utility.yul\":91:97   */\n      dup2\n        /* \"#utility.yul\":78:98   */\n      calldataload\n        /* \"#utility.yul\":69:98   */\n      swap1\n      pop\n        /* \"#utility.yul\":107:140   */\n      tag_195\n        /* \"#utility.yul\":134:139   */\n      dup2\n        /* \"#utility.yul\":107:140   */\n      tag_196\n      jump\t// in\n    tag_195:\n        /* \"#utility.yul\":7:146   */\n      swap3\n      swap2\n      pop\n      pop\n      jump\t// out\n        /* \"#utility.yul\":152:321   */\n    tag_197:\n        /* \"#utility.yul\":213:218   */\n      0x00\n        /* \"#utility.yul\":251:257   */\n      dup2\n        /* \"#utility.yul\":238:258   */\n      calldataload\n        /* \"#utility.yul\":229:258   */\n      swap1\n      pop\n        /* \"#utility.yul\":267:315   */\n      tag_199\n        /* \"#utility.yul\":309:314   */\n      dup2\n        /* \"#utility.yul\":267:315   */\n      tag_200\n      jump\t// in\n    tag_199:\n        /* \"#utility.yul\":152:321   */\n      swap3\n      swap2\n      pop\n      pop\n      jump\t// out\n        /* \"#utility.yul\":327:500   */\n    tag_201:\n        /* \"#utility.yul\":390:395   */\n      0x00\n        /* \"#utility.yul\":428:434   */\n      dup2\n        /* \"#utility.yul\":415:435   */\n      calldataload\n        /* \"#utility.yul\":406:435   */\n      swap1\n      pop\n        /* \"#utility.yul\":444:494   */\n      tag_203\n        /* \"#utility.yul\":488:493   */\n      dup2\n        /* \"#utility.yul\":444:494   */\n      tag_204\n      jump\t// in\n    tag_203:\n        /* \"#utility.yul\":327:500   */\n      swap3\n      swap2\n      pop\n      pop\n      jump\t// out\n        /* \"#utility.yul\":506:663   */\n    tag_205:\n        /* \"#utility.yul\":561:566   */\n      0x00\n        /* \"#utility.yul\":599:605   */\n      dup2\n        /* \"#utility.yul\":586:606   */\n      calldataload\n        /* \"#utility.yul\":577:606   */\n      swap1\n      pop\n        /* \"#utility.yul\":615:657   */\n      tag_207\n        /* \"#utility.yul\":651:656   */\n      dup2\n        /* \"#utility.yul\":615:657   */\n      tag_208\n      jump\t// in\n    tag_207:\n        /* \"#utility.yul\":506:663   */\n      swap3\n      swap2\n      pop\n      pop\n      jump\t// out\n        /* \"#utility.yul\":669:808   */\n    tag_209:\n        /* \"#utility.yul\":715:720   */\n      0x00\n        /* \"#utility.yul\":753:759   */\n      dup2\n        /* \"#utility.yul\":740:760   */\n      calldataload\n        /* \"#utility.yul\":731:760   */\n      swap1\n      pop\n        /* \"#utility.yul\":769:802   */\n      tag_211\n        /* \"#utility.yul\":796:801   */\n      dup2\n        /* \"#utility.yul\":769:802   */\n      tag_212\n      jump\t// in\n    tag_211:\n        /* \"#utility.yul\":669:808   */\n      swap3\n      swap2\n      pop\n      pop\n      jump\t// out\n        /* \"#utility.yul\":814:951   */\n    tag_213:\n        /* \"#utility.yul\":859:864   */\n      0x00\n        /* \"#utility.yul\":897:903   */\n      dup2\n        /* \"#utility.yul\":884:904   */\n      calldataload\n        /* \"#utility.yul\":875:904   */\n      swap1\n      pop\n        /* \"#utility.yul\":913:945   */\n      tag_215\n        /* \"#utility.yul\":939:944   */\n      dup2\n        /* \"#utility.yul\":913:945   */\n      tag_216\n      jump\t// in\n    tag_215:\n        /* \"#utility.yul\":814:951   */\n      swap3\n      swap2\n      pop\n      pop\n      jump\t// out\n        /* \"#utility.yul\":957:1286   */\n    tag_26:\n        /* \"#utility.yul\":1016:1022   */\n      0x00\n        /* \"#utility.yul\":1065:1067   */\n      0x20\n        /* \"#utility.yul\":1053:1062   */\n      dup3\n        /* \"#utility.yul\":1044:1051   */\n      dup5\n        /* \"#utility.yul\":1040:1063   */\n      sub\n        /* \"#utility.yul\":1036:1068   */\n      slt\n        /* \"#utility.yul\":1033:1152   */\n      iszero\n      tag_218\n      jumpi\n        /* \"#utility.yul\":1071:1150   */\n      tag_219\n      tag_220\n      jump\t// in\n    tag_219:\n        /* \"#utility.yul\":1033:1152   */\n    tag_218:\n        /* \"#utility.yul\":1191:1192   */\n      0x00\n        /* \"#utility.yul\":1216:1269   */\n      tag_221\n        /* \"#utility.yul\":1261:1268   */\n      dup5\n        /* \"#utility.yul\":1252:1258   */\n      dup3\n        /* \"#utility.yul\":1241:1250   */\n      dup6\n        /* \"#utility.yul\":1237:1259   */\n      add\n        /* \"#utility.yul\":1216:1269   */\n      tag_193\n      jump\t// in\n    tag_221:\n        /* \"#utility.yul\":1206:1269   */\n      swap2\n      pop\n        /* \"#utility.yul\":1162:1279   */\n      pop\n        /* \"#utility.yul\":957:1286   */\n      swap3\n      swap2\n      pop\n      pop\n      jump\t// out\n        /* \"#utility.yul\":1292:2575   */\n    tag_79:\n        /* \"#utility.yul\":1445:1451   */\n      0x00\n        /* \"#utility.yul\":1453:1459   */\n      dup1\n        /* \"#utility.yul\":1461:1467   */\n      0x00\n        /* \"#utility.yul\":1469:1475   */\n      dup1\n        /* \"#utility.yul\":1477:1483   */\n      0x00\n        /* \"#utility.yul\":1485:1491   */\n      dup1\n        /* \"#utility.yul\":1493:1499   */\n      0x00\n        /* \"#utility.yul\":1542:1545   */\n      0xe0\n        /* \"#utility.yul\":1530:1539   */\n      dup9\n        /* \"#utility.yul\":1521:1528   */\n      dup11\n        /* \"#utility.yul\":1517:1540   */\n      sub\n        /* \"#utility.yul\":1513:1546   */\n      slt\n        /* \"#utility.yul\":1510:1630   */\n      iszero\n      tag_223\n      jumpi\n        /* \"#utility.yul\":1549:1628   */\n      tag_224\n      tag_220\n      jump\t// in\n    tag_224:\n        /* \"#utility.yul\":1510:1630   */\n    tag_223:\n        /* \"#utility.yul\":1669:1670   */\n      0x00\n        /* \"#utility.yul\":1694:1747   */\n      tag_225\n        /* \"#utility.yul\":1739:1746   */\n      dup11\n        /* \"#utility.yul\":1730:1736   */\n      dup3\n        /* \"#utility.yul\":1719:1728   */\n      dup12\n        /* \"#utility.yul\":1715:1737   */\n      add\n        /* \"#utility.yul\":1694:1747   */\n      tag_193\n      jump\t// in\n    tag_225:\n        /* \"#utility.yul\":1684:1747   */\n      swap8\n      pop\n        /* \"#utility.yul\":1640:1757   */\n      pop\n        /* \"#utility.yul\":1796:1798   */\n      0x20\n        /* \"#utility.yul\":1822:1892   */\n      tag_226\n        /* \"#utility.yul\":1884:1891   */\n      dup11\n        /* \"#utility.yul\":1875:1881   */\n      dup3\n        /* \"#utility.yul\":1864:1873   */\n      dup12\n        /* \"#utility.yul\":1860:1882   */\n      add\n        /* \"#utility.yul\":1822:1892   */\n      tag_201\n      jump\t// in\n    tag_226:\n        /* \"#utility.yul\":1812:1892   */\n      swap7\n      pop\n        /* \"#utility.yul\":1767:1902   */\n      pop\n        /* \"#utility.yul\":1941:1943   */\n      0x40\n        /* \"#utility.yul\":1967:2020   */\n      tag_227\n        /* \"#utility.yul\":2012:2019   */\n      dup11\n        /* \"#utility.yul\":2003:2009   */\n      dup3\n        /* \"#utility.yul\":1992:2001   */\n      dup12\n        /* \"#utility.yul\":1988:2010   */\n      add\n        /* \"#utility.yul\":1967:2020   */\n      tag_209\n      jump\t// in\n    tag_227:\n        /* \"#utility.yul\":1957:2020   */\n      swap6\n      pop\n        /* \"#utility.yul\":1912:2030   */\n      pop\n        /* \"#utility.yul\":2069:2071   */\n      0x60\n        /* \"#utility.yul\":2095:2148   */\n      tag_228\n        /* \"#utility.yul\":2140:2147   */\n      dup11\n        /* \"#utility.yul\":2131:2137   */\n      dup3\n        /* \"#utility.yul\":2120:2129   */\n      dup12\n        /* \"#utility.yul\":2116:2138   */\n      add\n        /* \"#utility.yul\":2095:2148   */\n      tag_209\n      jump\t// in\n    tag_228:\n        /* \"#utility.yul\":2085:2148   */\n      swap5\n      pop\n        /* \"#utility.yul\":2040:2158   */\n      pop\n        /* \"#utility.yul\":2197:2200   */\n      0x80\n        /* \"#utility.yul\":2224:2292   */\n      tag_229\n        /* \"#utility.yul\":2284:2291   */\n      dup11\n        /* \"#utility.yul\":2275:2281   */\n      dup3\n        /* \"#utility.yul\":2264:2273   */\n      dup12\n        /* \"#utility.yul\":2260:2282   */\n      add\n        /* \"#utility.yul\":2224:2292   */\n      tag_197\n      jump\t// in\n    tag_229:\n        /* \"#utility.yul\":2214:2292   */\n      swap4\n      pop\n        /* \"#utility.yul\":2168:2302   */\n      pop\n        /* \"#utility.yul\":2341:2344   */\n      0xa0\n        /* \"#utility.yul\":2368:2420   */\n      tag_230\n        /* \"#utility.yul\":2412:2419   */\n      dup11\n        /* \"#utility.yul\":2403:2409   */\n      dup3\n        /* \"#utility.yul\":2392:2401   */\n      dup12\n        /* \"#utility.yul\":2388:2410   */\n      add\n        /* \"#utility.yul\":2368:2420   */\n      tag_213\n      jump\t// in\n    tag_230:\n        /* \"#utility.yul\":2358:2420   */\n      swap3\n      pop\n        /* \"#utility.yul\":2312:2430   */\n      pop\n        /* \"#utility.yul\":2469:2472   */\n      0xc0\n        /* \"#utility.yul\":2496:2558   */\n      tag_231\n        /* \"#utility.yul\":2550:2557   */\n      dup11\n        /* \"#utility.yul\":2541:2547   */\n      dup3\n        /* \"#utility.yul\":2530:2539   */\n      dup12\n        /* \"#utility.yul\":2526:2548   */\n      add\n        /* \"#utility.yul\":2496:2558   */\n      tag_205\n      jump\t// in\n    tag_231:\n        /* \"#utility.yul\":2486:2558   */\n      swap2\n      pop\n        /* \"#utility.yul\":2440:2568   */\n      pop\n        /* \"#utility.yul\":1292:2575   */\n      swap3\n      swap6\n      swap9\n      swap2\n      swap5\n      swap8\n      pop\n      swap3\n      swap6\n      pop\n      jump\t// out\n        /* \"#utility.yul\":2581:3055   */\n    tag_51:\n        /* \"#utility.yul\":2649:2655   */\n      0x00\n        /* \"#utility.yul\":2657:2663   */\n      dup1\n        /* \"#utility.yul\":2706:2708   */\n      0x40\n        /* \"#utility.yul\":2694:2703   */\n      dup4\n        /* \"#utility.yul\":2685:2692   */\n      dup6\n        /* \"#utility.yul\":2681:2704   */\n      sub\n        /* \"#utility.yul\":2677:2709   */\n      slt\n        /* \"#utility.yul\":2674:2793   */\n      iszero\n      tag_233\n      jumpi\n        /* \"#utility.yul\":2712:2791   */\n      tag_234\n      tag_220\n      jump\t// in\n    tag_234:\n        /* \"#utility.yul\":2674:2793   */\n    tag_233:\n        /* \"#utility.yul\":2832:2833   */\n      0x00\n        /* \"#utility.yul\":2857:2910   */\n      tag_235\n        /* \"#utility.yul\":2902:2909   */\n      dup6\n        /* \"#utility.yul\":2893:2899   */\n      dup3\n        /* \"#utility.yul\":2882:2891   */\n      dup7\n        /* \"#utility.yul\":2878:2900   */\n      add\n        /* \"#utility.yul\":2857:2910   */\n      tag_193\n      jump\t// in\n    tag_235:\n        /* \"#utility.yul\":2847:2910   */\n      swap3\n      pop\n        /* \"#utility.yul\":2803:2920   */\n      pop\n        /* \"#utility.yul\":2959:2961   */\n      0x20\n        /* \"#utility.yul\":2985:3038   */\n      tag_236\n        /* \"#utility.yul\":3030:3037   */\n      dup6\n        /* \"#utility.yul\":3021:3027   */\n      dup3\n        /* \"#utility.yul\":3010:3019   */\n      dup7\n        /* \"#utility.yul\":3006:3028   */\n      add\n        /* \"#utility.yul\":2985:3038   */\n      tag_209\n      jump\t// in\n    tag_236:\n        /* \"#utility.yul\":2975:3038   */\n      swap2\n      pop\n        /* \"#utility.yul\":2930:3048   */\n      pop\n        /* \"#utility.yul\":2581:3055   */\n      swap3\n      pop\n      swap3\n      swap1\n      pop\n      jump\t// out\n        /* \"#utility.yul\":3061:4490   */\n    tag_32:\n        /* \"#utility.yul\":3223:3229   */\n      0x00\n        /* \"#utility.yul\":3231:3237   */\n      dup1\n        /* \"#utility.yul\":3239:3245   */\n      0x00\n        /* \"#utility.yul\":3247:3253   */\n      dup1\n        /* \"#utility.yul\":3255:3261   */\n      0x00\n        /* \"#utility.yul\":3263:3269   */\n      dup1\n        /* \"#utility.yul\":3271:3277   */\n      0x00\n        /* \"#utility.yul\":3279:3285   */\n      dup1\n        /* \"#utility.yul\":3328:3331   */\n      0x0100\n        /* \"#utility.yul\":3316:3325   */\n      dup10\n        /* \"#utility.yul\":3307:3314   */\n      dup12\n        /* \"#utility.yul\":3303:3326   */\n      sub\n        /* \"#utility.yul\":3299:3332   */\n      slt\n        /* \"#utility.yul\":3296:3416   */\n      iszero\n      tag_238\n      jumpi\n        /* \"#utility.yul\":3335:3414   */\n      tag_239\n      tag_220\n      jump\t// in\n    tag_239:\n        /* \"#utility.yul\":3296:3416   */\n    tag_238:\n        /* \"#utility.yul\":3455:3456   */\n      0x00\n        /* \"#utility.yul\":3480:3533   */\n      tag_240\n        /* \"#utility.yul\":3525:3532   */\n      dup12\n        /* \"#utility.yul\":3516:3522   */\n      dup3\n        /* \"#utility.yul\":3505:3514   */\n      dup13\n        /* \"#utility.yul\":3501:3523   */\n      add\n        /* \"#utility.yul\":3480:3533   */\n      tag_193\n      jump\t// in\n    tag_240:\n        /* \"#utility.yul\":3470:3533   */\n      swap9\n      pop\n        /* \"#utility.yul\":3426:3543   */\n      pop\n        /* \"#utility.yul\":3582:3584   */\n      0x20\n        /* \"#utility.yul\":3608:3661   */\n      tag_241\n        /* \"#utility.yul\":3653:3660   */\n      dup12\n        /* \"#utility.yul\":3644:3650   */\n      dup3\n        /* \"#utility.yul\":3633:3642   */\n      dup13\n        /* \"#utility.yul\":3629:3651   */\n      add\n        /* \"#utility.yul\":3608:3661   */\n      tag_209\n      jump\t// in\n    tag_241:\n        /* \"#utility.yul\":3598:3661   */\n      swap8\n      pop\n        /* \"#utility.yul\":3553:3671   */\n      pop\n        /* \"#utility.yul\":3710:3712   */\n      0x40\n        /* \"#utility.yul\":3736:3806   */\n      tag_242\n        /* \"#utility.yul\":3798:3805   */\n      dup12\n        /* \"#utility.yul\":3789:3795   */\n      dup3\n        /* \"#utility.yul\":3778:3787   */\n      dup13\n        /* \"#utility.yul\":3774:3796   */\n      add\n        /* \"#utility.yul\":3736:3806   */\n      tag_201\n      jump\t// in\n    tag_242:\n        /* \"#utility.yul\":3726:3806   */\n      swap7\n      pop\n        /* \"#utility.yul\":3681:3816   */\n      pop\n        /* \"#utility.yul\":3855:3857   */\n      0x60\n        /* \"#utility.yul\":3881:3934   */\n      tag_243\n        /* \"#utility.yul\":3926:3933   */\n      dup12\n        /* \"#utility.yul\":3917:3923   */\n      dup3\n        /* \"#utility.yul\":3906:3915   */\n      dup13\n        /* \"#utility.yul\":3902:3924   */\n      add\n        /* \"#utility.yul\":3881:3934   */\n      tag_209\n      jump\t// in\n    tag_243:\n        /* \"#utility.yul\":3871:3934   */\n      swap6\n      pop\n        /* \"#utility.yul\":3826:3944   */\n      pop\n        /* \"#utility.yul\":3983:3986   */\n      0x80\n        /* \"#utility.yul\":4010:4063   */\n      tag_244\n        /* \"#utility.yul\":4055:4062   */\n      dup12\n        /* \"#utility.yul\":4046:4052   */\n      dup3\n        /* \"#utility.yul\":4035:4044   */\n      dup13\n        /* \"#utility.yul\":4031:4053   */\n      add\n        /* \"#utility.yul\":4010:4063   */\n      tag_209\n      jump\t// in\n    tag_244:\n        /* \"#utility.yul\":4000:4063   */\n      swap5\n      pop\n        /* \"#utility.yul\":3954:4073   */\n      pop\n        /* \"#utility.yul\":4112:4115   */\n      0xa0\n        /* \"#utility.yul\":4139:4207   */\n      tag_245\n        /* \"#utility.yul\":4199:4206   */\n      dup12\n        /* \"#utility.yul\":4190:4196   */\n      dup3\n        /* \"#utility.yul\":4179:4188   */\n      dup13\n        /* \"#utility.yul\":4175:4197   */\n      add\n        /* \"#utility.yul\":4139:4207   */\n      tag_197\n      jump\t// in\n    tag_245:\n        /* \"#utility.yul\":4129:4207   */\n      swap4\n      pop\n        /* \"#utility.yul\":4083:4217   */\n      pop\n        /* \"#utility.yul\":4256:4259   */\n      0xc0\n        /* \"#utility.yul\":4283:4335   */\n      tag_246\n        /* \"#utility.yul\":4327:4334   */\n      dup12\n        /* \"#utility.yul\":4318:4324   */\n      dup3\n        /* \"#utility.yul\":4307:4316   */\n      dup13\n        /* \"#utility.yul\":4303:4325   */\n      add\n        /* \"#utility.yul\":4283:4335   */\n      tag_213\n      jump\t// in\n    tag_246:\n        /* \"#utility.yul\":4273:4335   */\n      swap3\n      pop\n        /* \"#utility.yul\":4227:4345   */\n      pop\n        /* \"#utility.yul\":4384:4387   */\n      0xe0\n        /* \"#utility.yul\":4411:4473   */\n      tag_247\n        /* \"#utility.yul\":4465:4472   */\n      dup12\n        /* \"#utility.yul\":4456:4462   */\n      dup3\n        /* \"#utility.yul\":4445:4454   */\n      dup13\n        /* \"#utility.yul\":4441:4463   */\n      add\n        /* \"#utility.yul\":4411:4473   */\n      tag_205\n      jump\t// in\n    tag_247:\n        /* \"#utility.yul\":4401:4473   */\n      swap2\n      pop\n        /* \"#utility.yul\":4355:4483   */\n      pop\n        /* \"#utility.yul\":3061:4490   */\n      swap3\n      swap6\n      swap9\n      pop\n      swap3\n      swap6\n      swap9\n      swap1\n      swap4\n      swap7\n      pop\n      jump\t// out\n        /* \"#utility.yul\":4496:5599   */\n    tag_22:\n        /* \"#utility.yul\":4623:4629   */\n      0x00\n        /* \"#utility.yul\":4631:4637   */\n      dup1\n        /* \"#utility.yul\":4639:4645   */\n      0x00\n        /* \"#utility.yul\":4647:4653   */\n      dup1\n        /* \"#utility.yul\":4655:4661   */\n      0x00\n        /* \"#utility.yul\":4663:4669   */\n      dup1\n        /* \"#utility.yul\":4712:4715   */\n      0xc0\n        /* \"#utility.yul\":4700:4709   */\n      dup8\n        /* \"#utility.yul\":4691:4698   */\n      dup10\n        /* \"#utility.yul\":4687:4710   */\n      sub\n        /* \"#utility.yul\":4683:4716   */\n      slt\n        /* \"#utility.yul\":4680:4800   */\n      iszero\n      tag_249\n      jumpi\n        /* \"#utility.yul\":4719:4798   */\n      tag_250\n      tag_220\n      jump\t// in\n    tag_250:\n        /* \"#utility.yul\":4680:4800   */\n    tag_249:\n        /* \"#utility.yul\":4839:4840   */\n      0x00\n        /* \"#utility.yul\":4864:4917   */\n      tag_251\n        /* \"#utility.yul\":4909:4916   */\n      dup10\n        /* \"#utility.yul\":4900:4906   */\n      dup3\n        /* \"#utility.yul\":4889:4898   */\n      dup11\n        /* \"#utility.yul\":4885:4907   */\n      add\n        /* \"#utility.yul\":4864:4917   */\n      tag_193\n      jump\t// in\n    tag_251:\n        /* \"#utility.yul\":4854:4917   */\n      swap7\n      pop\n        /* \"#utility.yul\":4810:4927   */\n      pop\n        /* \"#utility.yul\":4966:4968   */\n      0x20\n        /* \"#utility.yul\":4992:5045   */\n      tag_252\n        /* \"#utility.yul\":5037:5044   */\n      dup10\n        /* \"#utility.yul\":5028:5034   */\n      dup3\n        /* \"#utility.yul\":5017:5026   */\n      dup11\n        /* \"#utility.yul\":5013:5035   */\n      add\n        /* \"#utility.yul\":4992:5045   */\n      tag_209\n      jump\t// in\n    tag_252:\n        /* \"#utility.yul\":4982:5045   */\n      swap6\n      pop\n        /* \"#utility.yul\":4937:5055   */\n      pop\n        /* \"#utility.yul\":5094:5096   */\n      0x40\n        /* \"#utility.yul\":5120:5173   */\n      tag_253\n        /* \"#utility.yul\":5165:5172   */\n      dup10\n        /* \"#utility.yul\":5156:5162   */\n      dup3\n        /* \"#utility.yul\":5145:5154   */\n      dup11\n        /* \"#utility.yul\":5141:5163   */\n      add\n        /* \"#utility.yul\":5120:5173   */\n      tag_209\n      jump\t// in\n    tag_253:\n        /* \"#utility.yul\":5110:5173   */\n      swap5\n      pop\n        /* \"#utility.yul\":5065:5183   */\n      pop\n        /* \"#utility.yul\":5222:5224   */\n      0x60\n        /* \"#utility.yul\":5248:5316   */\n      tag_254\n        /* \"#utility.yul\":5308:5315   */\n      dup10\n        /* \"#utility.yul\":5299:5305   */\n      dup3\n        /* \"#utility.yul\":5288:5297   */\n      dup11\n        /* \"#utility.yul\":5284:5306   */\n      add\n        /* \"#utility.yul\":5248:5316   */\n      tag_197\n      jump\t// in\n    tag_254:\n        /* \"#utility.yul\":5238:5316   */\n      swap4\n      pop\n        /* \"#utility.yul\":5193:5326   */\n      pop\n        /* \"#utility.yul\":5365:5368   */\n      0x80\n        /* \"#utility.yul\":5392:5444   */\n      tag_255\n        /* \"#utility.yul\":5436:5443   */\n      dup10\n        /* \"#utility.yul\":5427:5433   */\n      dup3\n        /* \"#utility.yul\":5416:5425   */\n      dup11\n        /* \"#utility.yul\":5412:5434   */\n      add\n        /* \"#utility.yul\":5392:5444   */\n      tag_213\n      jump\t// in\n    tag_255:\n        /* \"#utility.yul\":5382:5444   */\n      swap3\n      pop\n        /* \"#utility.yul\":5336:5454   */\n      pop\n        /* \"#utility.yul\":5493:5496   */\n      0xa0\n        /* \"#utility.yul\":5520:5582   */\n      tag_256\n        /* \"#utility.yul\":5574:5581   */\n      dup10\n        /* \"#utility.yul\":5565:5571   */\n      dup3\n        /* \"#utility.yul\":5554:5563   */\n      dup11\n        /* \"#utility.yul\":5550:5572   */\n      add\n        /* \"#utility.yul\":5520:5582   */\n      tag_205\n      jump\t// in\n    tag_256:\n        /* \"#utility.yul\":5510:5582   */\n      swap2\n      pop\n        /* \"#utility.yul\":5464:5592   */\n      pop\n        /* \"#utility.yul\":4496:5599   */\n      swap3\n      swap6\n      pop\n      swap3\n      swap6\n      pop\n      swap3\n      swap6\n      jump\t// out\n        /* \"#utility.yul\":5605:5932   */\n    tag_65:\n        /* \"#utility.yul\":5663:5669   */\n      0x00\n        /* \"#utility.yul\":5712:5714   */\n      0x20\n        /* \"#utility.yul\":5700:5709   */\n      dup3\n        /* \"#utility.yul\":5691:5698   */\n      dup5\n        /* \"#utility.yul\":5687:5710   */\n      sub\n        /* \"#utility.yul\":5683:5715   */\n      slt\n        /* \"#utility.yul\":5680:5799   */\n      iszero\n      tag_258\n      jumpi\n        /* \"#utility.yul\":5718:5797   */\n      tag_259\n      tag_220\n      jump\t// in\n    tag_259:\n        /* \"#utility.yul\":5680:5799   */\n    tag_258:\n        /* \"#utility.yul\":5838:5839   */\n      0x00\n        /* \"#utility.yul\":5863:5915   */\n      tag_260\n        /* \"#utility.yul\":5907:5914   */\n      dup5\n        /* \"#utility.yul\":5898:5904   */\n      dup3\n        /* \"#utility.yul\":5887:5896   */\n      dup6\n        /* \"#utility.yul\":5883:5905   */\n      add\n        /* \"#utility.yul\":5863:5915   */\n      tag_213\n      jump\t// in\n    tag_260:\n        /* \"#utility.yul\":5853:5915   */\n      swap2\n      pop\n        /* \"#utility.yul\":5809:5925   */\n      pop\n        /* \"#utility.yul\":5605:5932   */\n      swap3\n      swap2\n      pop\n      pop\n      jump\t// out\n        /* \"#utility.yul\":5938:6046   */\n    tag_261:\n        /* \"#utility.yul\":6015:6039   */\n      tag_263\n        /* \"#utility.yul\":6033:6038   */\n      dup2\n        /* \"#utility.yul\":6015:6039   */\n      tag_264\n      jump\t// in\n    tag_263:\n        /* \"#utility.yul\":6010:6013   */\n      dup3\n        /* \"#utility.yul\":6003:6040   */\n      mstore\n        /* \"#utility.yul\":5938:6046   */\n      pop\n      pop\n      jump\t// out\n        /* \"#utility.yul\":6052:6170   */\n    tag_265:\n        /* \"#utility.yul\":6139:6163   */\n      tag_267\n        /* \"#utility.yul\":6157:6162   */\n      dup2\n        /* \"#utility.yul\":6139:6163   */\n      tag_264\n      jump\t// in\n    tag_267:\n        /* \"#utility.yul\":6134:6137   */\n      dup3\n        /* \"#utility.yul\":6127:6164   */\n      mstore\n        /* \"#utility.yul\":6052:6170   */\n      pop\n      pop\n      jump\t// out\n        /* \"#utility.yul\":6176:6285   */\n    tag_268:\n        /* \"#utility.yul\":6257:6278   */\n      tag_270\n        /* \"#utility.yul\":6272:6277   */\n      dup2\n        /* \"#utility.yul\":6257:6278   */\n      tag_271\n      jump\t// in\n    tag_270:\n        /* \"#utility.yul\":6252:6255   */\n      dup3\n        /* \"#utility.yul\":6245:6279   */\n      mstore\n        /* \"#utility.yul\":6176:6285   */\n      pop\n      pop\n      jump\t// out\n        /* \"#utility.yul\":6291:6448   */\n    tag_272:\n        /* \"#utility.yul\":6391:6441   */\n      tag_274\n        /* \"#utility.yul\":6435:6440   */\n      dup2\n        /* \"#utility.yul\":6391:6441   */\n      tag_275\n      jump\t// in\n    tag_274:\n        /* \"#utility.yul\":6386:6389   */\n      dup3\n        /* \"#utility.yul\":6379:6442   */\n      mstore\n        /* \"#utility.yul\":6291:6448   */\n      pop\n      pop\n      jump\t// out\n        /* \"#utility.yul\":6454:6595   */\n    tag_276:\n        /* \"#utility.yul\":6541:6588   */\n      tag_278\n        /* \"#utility.yul\":6582:6587   */\n      dup2\n        /* \"#utility.yul\":6541:6588   */\n      tag_279\n      jump\t// in\n    tag_278:\n        /* \"#utility.yul\":6536:6539   */\n      dup3\n        /* \"#utility.yul\":6529:6589   */\n      mstore\n        /* \"#utility.yul\":6454:6595   */\n      pop\n      pop\n      jump\t// out\n        /* \"#utility.yul\":6601:6762   */\n    tag_280:\n        /* \"#utility.yul\":6703:6755   */\n      tag_282\n        /* \"#utility.yul\":6749:6754   */\n      dup2\n        /* \"#utility.yul\":6703:6755   */\n      tag_283\n      jump\t// in\n    tag_282:\n        /* \"#utility.yul\":6698:6701   */\n      dup3\n        /* \"#utility.yul\":6691:6756   */\n      mstore\n        /* \"#utility.yul\":6601:6762   */\n      pop\n      pop\n      jump\t// out\n        /* \"#utility.yul\":6768:6913   */\n    tag_284:\n        /* \"#utility.yul\":6862:6906   */\n      tag_286\n        /* \"#utility.yul\":6900:6905   */\n      dup2\n        /* \"#utility.yul\":6862:6906   */\n      tag_287\n      jump\t// in\n    tag_286:\n        /* \"#utility.yul\":6857:6860   */\n      dup3\n        /* \"#utility.yul\":6850:6907   */\n      mstore\n        /* \"#utility.yul\":6768:6913   */\n      pop\n      pop\n      jump\t// out\n        /* \"#utility.yul\":6919:7062   */\n    tag_288:\n        /* \"#utility.yul\":7012:7055   */\n      tag_290\n        /* \"#utility.yul\":7049:7054   */\n      dup2\n        /* \"#utility.yul\":7012:7055   */\n      tag_291\n      jump\t// in\n    tag_290:\n        /* \"#utility.yul\":7007:7010   */\n      dup3\n        /* \"#utility.yul\":7000:7056   */\n      mstore\n        /* \"#utility.yul\":6919:7062   */\n      pop\n      pop\n      jump\t// out\n        /* \"#utility.yul\":7068:7432   */\n    tag_292:\n        /* \"#utility.yul\":7156:7159   */\n      0x00\n        /* \"#utility.yul\":7184:7223   */\n      tag_294\n        /* \"#utility.yul\":7217:7222   */\n      dup3\n        /* \"#utility.yul\":7184:7223   */\n      tag_295\n      jump\t// in\n    tag_294:\n        /* \"#utility.yul\":7239:7310   */\n      tag_296\n        /* \"#utility.yul\":7303:7309   */\n      dup2\n        /* \"#utility.yul\":7298:7301   */\n      dup6\n        /* \"#utility.yul\":7239:7310   */\n      tag_297\n      jump\t// in\n    tag_296:\n        /* \"#utility.yul\":7232:7310   */\n      swap4\n      pop\n        /* \"#utility.yul\":7319:7371   */\n      tag_298\n        /* \"#utility.yul\":7364:7370   */\n      dup2\n        /* \"#utility.yul\":7359:7362   */\n      dup6\n        /* \"#utility.yul\":7352:7356   */\n      0x20\n        /* \"#utility.yul\":7345:7350   */\n      dup7\n        /* \"#utility.yul\":7341:7357   */\n      add\n        /* \"#utility.yul\":7319:7371   */\n      tag_299\n      jump\t// in\n    tag_298:\n        /* \"#utility.yul\":7396:7425   */\n      tag_300\n        /* \"#utility.yul\":7418:7424   */\n      dup2\n        /* \"#utility.yul\":7396:7425   */\n      tag_301\n      jump\t// in\n    tag_300:\n        /* \"#utility.yul\":7391:7394   */\n      dup5\n        /* \"#utility.yul\":7387:7426   */\n      add\n        /* \"#utility.yul\":7380:7426   */\n      swap2\n      pop\n        /* \"#utility.yul\":7160:7432   */\n      pop\n        /* \"#utility.yul\":7068:7432   */\n      swap3\n      swap2\n      pop\n      pop\n      jump\t// out\n        /* \"#utility.yul\":7438:7804   */\n    tag_302:\n        /* \"#utility.yul\":7580:7583   */\n      0x00\n        /* \"#utility.yul\":7601:7668   */\n      tag_304\n        /* \"#utility.yul\":7665:7667   */\n      0x11\n        /* \"#utility.yul\":7660:7663   */\n      dup4\n        /* \"#utility.yul\":7601:7668   */\n      tag_297\n      jump\t// in\n    tag_304:\n        /* \"#utility.yul\":7594:7668   */\n      swap2\n      pop\n        /* \"#utility.yul\":7677:7770   */\n      tag_305\n        /* \"#utility.yul\":7766:7769   */\n      dup3\n        /* \"#utility.yul\":7677:7770   */\n      tag_306\n      jump\t// in\n    tag_305:\n        /* \"#utility.yul\":7795:7797   */\n      0x20\n        /* \"#utility.yul\":7790:7793   */\n      dup3\n        /* \"#utility.yul\":7786:7798   */\n      add\n        /* \"#utility.yul\":7779:7798   */\n      swap1\n      pop\n        /* \"#utility.yul\":7438:7804   */\n      swap2\n      swap1\n      pop\n      jump\t// out\n        /* \"#utility.yul\":7810:8176   */\n    tag_307:\n        /* \"#utility.yul\":7952:7955   */\n      0x00\n        /* \"#utility.yul\":7973:8040   */\n      tag_309\n        /* \"#utility.yul\":8037:8039   */\n      0x20\n        /* \"#utility.yul\":8032:8035   */\n      dup4\n        /* \"#utility.yul\":7973:8040   */\n      tag_297\n      jump\t// in\n    tag_309:\n        /* \"#utility.yul\":7966:8040   */\n      swap2\n      pop\n        /* \"#utility.yul\":8049:8142   */\n      tag_310\n        /* \"#utility.yul\":8138:8141   */\n      dup3\n        /* \"#utility.yul\":8049:8142   */\n      tag_311\n      jump\t// in\n    tag_310:\n        /* \"#utility.yul\":8167:8169   */\n      0x20\n        /* \"#utility.yul\":8162:8165   */\n      dup3\n        /* \"#utility.yul\":8158:8170   */\n      add\n        /* \"#utility.yul\":8151:8170   */\n      swap1\n      pop\n        /* \"#utility.yul\":7810:8176   */\n      swap2\n      swap1\n      pop\n      jump\t// out\n        /* \"#utility.yul\":8182:8548   */\n    tag_312:\n        /* \"#utility.yul\":8324:8327   */\n      0x00\n        /* \"#utility.yul\":8345:8412   */\n      tag_314\n        /* \"#utility.yul\":8409:8411   */\n      0x20\n        /* \"#utility.yul\":8404:8407   */\n      dup4\n        /* \"#utility.yul\":8345:8412   */\n      tag_297\n      jump\t// in\n    tag_314:\n        /* \"#utility.yul\":8338:8412   */\n      swap2\n      pop\n        /* \"#utility.yul\":8421:8514   */\n      tag_315\n        /* \"#utility.yul\":8510:8513   */\n      dup3\n        /* \"#utility.yul\":8421:8514   */\n      tag_316\n      jump\t// in\n    tag_315:\n        /* \"#utility.yul\":8539:8541   */\n      0x20\n        /* \"#utility.yul\":8534:8537   */\n      dup3\n        /* \"#utility.yul\":8530:8542   */\n      add\n        /* \"#utility.yul\":8523:8542   */\n      swap1\n      pop\n        /* \"#utility.yul\":8182:8548   */\n      swap2\n      swap1\n      pop\n      jump\t// out\n        /* \"#utility.yul\":8614:9298   */\n    tag_317:\n        /* \"#utility.yul\":8751:8755   */\n      0x60\n        /* \"#utility.yul\":8746:8749   */\n      dup3\n        /* \"#utility.yul\":8742:8756   */\n      add\n        /* \"#utility.yul\":8839:8843   */\n      0x00\n        /* \"#utility.yul\":8832:8837   */\n      dup3\n        /* \"#utility.yul\":8828:8844   */\n      add\n        /* \"#utility.yul\":8822:8845   */\n      mload\n        /* \"#utility.yul\":8858:8921   */\n      tag_319\n        /* \"#utility.yul\":8915:8919   */\n      0x00\n        /* \"#utility.yul\":8910:8913   */\n      dup6\n        /* \"#utility.yul\":8906:8920   */\n      add\n        /* \"#utility.yul\":8892:8904   */\n      dup3\n        /* \"#utility.yul\":8858:8921   */\n      tag_320\n      jump\t// in\n    tag_319:\n        /* \"#utility.yul\":8766:8931   */\n      pop\n        /* \"#utility.yul\":9014:9018   */\n      0x20\n        /* \"#utility.yul\":9007:9012   */\n      dup3\n        /* \"#utility.yul\":9003:9019   */\n      add\n        /* \"#utility.yul\":8997:9020   */\n      mload\n        /* \"#utility.yul\":9033:9096   */\n      tag_321\n        /* \"#utility.yul\":9090:9094   */\n      0x20\n        /* \"#utility.yul\":9085:9088   */\n      dup6\n        /* \"#utility.yul\":9081:9095   */\n      add\n        /* \"#utility.yul\":9067:9079   */\n      dup3\n        /* \"#utility.yul\":9033:9096   */\n      tag_261\n      jump\t// in\n    tag_321:\n        /* \"#utility.yul\":8941:9106   */\n      pop\n        /* \"#utility.yul\":9189:9193   */\n      0x40\n        /* \"#utility.yul\":9182:9187   */\n      dup3\n        /* \"#utility.yul\":9178:9194   */\n      add\n        /* \"#utility.yul\":9172:9195   */\n      mload\n        /* \"#utility.yul\":9208:9281   */\n      tag_322\n        /* \"#utility.yul\":9275:9279   */\n      0x40\n        /* \"#utility.yul\":9270:9273   */\n      dup6\n        /* \"#utility.yul\":9266:9280   */\n      add\n        /* \"#utility.yul\":9252:9264   */\n      dup3\n        /* \"#utility.yul\":9208:9281   */\n      tag_276\n      jump\t// in\n    tag_322:\n        /* \"#utility.yul\":9116:9291   */\n      pop\n        /* \"#utility.yul\":8720:9298   */\n      pop\n        /* \"#utility.yul\":8614:9298   */\n      pop\n      pop\n      jump\t// out\n        /* \"#utility.yul\":9304:9419   */\n    tag_323:\n        /* \"#utility.yul\":9389:9412   */\n      tag_325\n        /* \"#utility.yul\":9406:9411   */\n      dup2\n        /* \"#utility.yul\":9389:9412   */\n      tag_326\n      jump\t// in\n    tag_325:\n        /* \"#utility.yul\":9384:9387   */\n      dup3\n        /* \"#utility.yul\":9377:9413   */\n      mstore\n        /* \"#utility.yul\":9304:9419   */\n      pop\n      pop\n      jump\t// out\n        /* \"#utility.yul\":9425:9533   */\n    tag_320:\n        /* \"#utility.yul\":9502:9526   */\n      tag_328\n        /* \"#utility.yul\":9520:9525   */\n      dup2\n        /* \"#utility.yul\":9502:9526   */\n      tag_329\n      jump\t// in\n    tag_328:\n        /* \"#utility.yul\":9497:9500   */\n      dup3\n        /* \"#utility.yul\":9490:9527   */\n      mstore\n        /* \"#utility.yul\":9425:9533   */\n      pop\n      pop\n      jump\t// out\n        /* \"#utility.yul\":9539:9657   */\n    tag_330:\n        /* \"#utility.yul\":9626:9650   */\n      tag_332\n        /* \"#utility.yul\":9644:9649   */\n      dup2\n        /* \"#utility.yul\":9626:9650   */\n      tag_329\n      jump\t// in\n    tag_332:\n        /* \"#utility.yul\":9621:9624   */\n      dup3\n        /* \"#utility.yul\":9614:9651   */\n      mstore\n        /* \"#utility.yul\":9539:9657   */\n      pop\n      pop\n      jump\t// out\n        /* \"#utility.yul\":9663:9778   */\n    tag_333:\n        /* \"#utility.yul\":9748:9771   */\n      tag_335\n        /* \"#utility.yul\":9765:9770   */\n      dup2\n        /* \"#utility.yul\":9748:9771   */\n      tag_336\n      jump\t// in\n    tag_335:\n        /* \"#utility.yul\":9743:9746   */\n      dup3\n        /* \"#utility.yul\":9736:9772   */\n      mstore\n        /* \"#utility.yul\":9663:9778   */\n      pop\n      pop\n      jump\t// out\n        /* \"#utility.yul\":9784:9896   */\n    tag_337:\n        /* \"#utility.yul\":9867:9889   */\n      tag_339\n        /* \"#utility.yul\":9883:9888   */\n      dup2\n        /* \"#utility.yul\":9867:9889   */\n      tag_340\n      jump\t// in\n    tag_339:\n        /* \"#utility.yul\":9862:9865   */\n      dup3\n        /* \"#utility.yul\":9855:9890   */\n      mstore\n        /* \"#utility.yul\":9784:9896   */\n      pop\n      pop\n      jump\t// out\n        /* \"#utility.yul\":9902:10588   */\n    tag_104:\n        /* \"#utility.yul\":10118:10122   */\n      0x00\n        /* \"#utility.yul\":10156:10159   */\n      0xa0\n        /* \"#utility.yul\":10145:10154   */\n      dup3\n        /* \"#utility.yul\":10141:10160   */\n      add\n        /* \"#utility.yul\":10133:10160   */\n      swap1\n      pop\n        /* \"#utility.yul\":10170:10241   */\n      tag_342\n        /* \"#utility.yul\":10238:10239   */\n      0x00\n        /* \"#utility.yul\":10227:10236   */\n      dup4\n        /* \"#utility.yul\":10223:10240   */\n      add\n        /* \"#utility.yul\":10214:10220   */\n      dup9\n        /* \"#utility.yul\":10170:10241   */\n      tag_265\n      jump\t// in\n    tag_342:\n        /* \"#utility.yul\":10251:10323   */\n      tag_343\n        /* \"#utility.yul\":10319:10321   */\n      0x20\n        /* \"#utility.yul\":10308:10317   */\n      dup4\n        /* \"#utility.yul\":10304:10322   */\n      add\n        /* \"#utility.yul\":10295:10301   */\n      dup8\n        /* \"#utility.yul\":10251:10323   */\n      tag_330\n      jump\t// in\n    tag_343:\n        /* \"#utility.yul\":10333:10405   */\n      tag_344\n        /* \"#utility.yul\":10401:10403   */\n      0x40\n        /* \"#utility.yul\":10390:10399   */\n      dup4\n        /* \"#utility.yul\":10386:10404   */\n      add\n        /* \"#utility.yul\":10377:10383   */\n      dup7\n        /* \"#utility.yul\":10333:10405   */\n      tag_330\n      jump\t// in\n    tag_344:\n        /* \"#utility.yul\":10415:10500   */\n      tag_345\n        /* \"#utility.yul\":10496:10498   */\n      0x60\n        /* \"#utility.yul\":10485:10494   */\n      dup4\n        /* \"#utility.yul\":10481:10499   */\n      add\n        /* \"#utility.yul\":10472:10478   */\n      dup6\n        /* \"#utility.yul\":10415:10500   */\n      tag_272\n      jump\t// in\n    tag_345:\n        /* \"#utility.yul\":10510:10581   */\n      tag_346\n        /* \"#utility.yul\":10576:10579   */\n      0x80\n        /* \"#utility.yul\":10565:10574   */\n      dup4\n        /* \"#utility.yul\":10561:10580   */\n      add\n        /* \"#utility.yul\":10552:10558   */\n      dup5\n        /* \"#utility.yul\":10510:10581   */\n      tag_333\n      jump\t// in\n    tag_346:\n        /* \"#utility.yul\":9902:10588   */\n      swap7\n      swap6\n      pop\n      pop\n      pop\n      pop\n      pop\n      pop\n      jump\t// out\n        /* \"#utility.yul\":10594:10804   */\n    tag_85:\n        /* \"#utility.yul\":10681:10685   */\n      0x00\n        /* \"#utility.yul\":10719:10721   */\n      0x20\n        /* \"#utility.yul\":10708:10717   */\n      dup3\n        /* \"#utility.yul\":10704:10722   */\n      add\n        /* \"#utility.yul\":10696:10722   */\n      swap1\n      pop\n        /* \"#utility.yul\":10732:10797   */\n      tag_348\n        /* \"#utility.yul\":10794:10795   */\n      0x00\n        /* \"#utility.yul\":10783:10792   */\n      dup4\n        /* \"#utility.yul\":10779:10796   */\n      add\n        /* \"#utility.yul\":10770:10776   */\n      dup5\n        /* \"#utility.yul\":10732:10797   */\n      tag_268\n      jump\t// in\n    tag_348:\n        /* \"#utility.yul\":10594:10804   */\n      swap3\n      swap2\n      pop\n      pop\n      jump\t// out\n        /* \"#utility.yul\":10810:11763   */\n    tag_76:\n        /* \"#utility.yul\":11081:11085   */\n      0x00\n        /* \"#utility.yul\":11119:11122   */\n      0xc0\n        /* \"#utility.yul\":11108:11117   */\n      dup3\n        /* \"#utility.yul\":11104:11123   */\n      add\n        /* \"#utility.yul\":11096:11123   */\n      swap1\n      pop\n        /* \"#utility.yul\":11133:11198   */\n      tag_350\n        /* \"#utility.yul\":11195:11196   */\n      0x00\n        /* \"#utility.yul\":11184:11193   */\n      dup4\n        /* \"#utility.yul\":11180:11197   */\n      add\n        /* \"#utility.yul\":11171:11177   */\n      dup10\n        /* \"#utility.yul\":11133:11198   */\n      tag_268\n      jump\t// in\n    tag_350:\n        /* \"#utility.yul\":11208:11280   */\n      tag_351\n        /* \"#utility.yul\":11276:11278   */\n      0x20\n        /* \"#utility.yul\":11265:11274   */\n      dup4\n        /* \"#utility.yul\":11261:11279   */\n      add\n        /* \"#utility.yul\":11252:11258   */\n      dup9\n        /* \"#utility.yul\":11208:11280   */\n      tag_265\n      jump\t// in\n    tag_351:\n        /* \"#utility.yul\":11290:11360   */\n      tag_352\n        /* \"#utility.yul\":11356:11358   */\n      0x40\n        /* \"#utility.yul\":11345:11354   */\n      dup4\n        /* \"#utility.yul\":11341:11359   */\n      add\n        /* \"#utility.yul\":11332:11338   */\n      dup8\n        /* \"#utility.yul\":11290:11360   */\n      tag_323\n      jump\t// in\n    tag_352:\n        /* \"#utility.yul\":11370:11448   */\n      tag_353\n        /* \"#utility.yul\":11444:11446   */\n      0x60\n        /* \"#utility.yul\":11433:11442   */\n      dup4\n        /* \"#utility.yul\":11429:11447   */\n      add\n        /* \"#utility.yul\":11420:11426   */\n      dup7\n        /* \"#utility.yul\":11370:11448   */\n      tag_288\n      jump\t// in\n    tag_353:\n        /* \"#utility.yul\":11496:11505   */\n      dup2\n        /* \"#utility.yul\":11490:11494   */\n      dup2\n        /* \"#utility.yul\":11486:11506   */\n      sub\n        /* \"#utility.yul\":11480:11483   */\n      0x80\n        /* \"#utility.yul\":11469:11478   */\n      dup4\n        /* \"#utility.yul\":11465:11484   */\n      add\n        /* \"#utility.yul\":11458:11507   */\n      mstore\n        /* \"#utility.yul\":11524:11602   */\n      tag_354\n        /* \"#utility.yul\":11597:11601   */\n      dup2\n        /* \"#utility.yul\":11588:11594   */\n      dup6\n        /* \"#utility.yul\":11524:11602   */\n      tag_292\n      jump\t// in\n    tag_354:\n        /* \"#utility.yul\":11516:11602   */\n      swap1\n      pop\n        /* \"#utility.yul\":11650:11659   */\n      dup2\n        /* \"#utility.yul\":11644:11648   */\n      dup2\n        /* \"#utility.yul\":11640:11660   */\n      sub\n        /* \"#utility.yul\":11634:11637   */\n      0xa0\n        /* \"#utility.yul\":11623:11632   */\n      dup4\n        /* \"#utility.yul\":11619:11638   */\n      add\n        /* \"#utility.yul\":11612:11661   */\n      mstore\n        /* \"#utility.yul\":11678:11756   */\n      tag_355\n        /* \"#utility.yul\":11751:11755   */\n      dup2\n        /* \"#utility.yul\":11742:11748   */\n      dup5\n        /* \"#utility.yul\":11678:11756   */\n      tag_292\n      jump\t// in\n    tag_355:\n        /* \"#utility.yul\":11670:11756   */\n      swap1\n      pop\n        /* \"#utility.yul\":10810:11763   */\n      swap8\n      swap7\n      pop\n      pop\n      pop\n      pop\n      pop\n      pop\n      pop\n      jump\t// out\n        /* \"#utility.yul\":11769:12282   */\n    tag_29:\n        /* \"#utility.yul\":11928:11932   */\n      0x00\n        /* \"#utility.yul\":11966:11968   */\n      0x60\n        /* \"#utility.yul\":11955:11964   */\n      dup3\n        /* \"#utility.yul\":11951:11969   */\n      add\n        /* \"#utility.yul\":11943:11969   */\n      swap1\n      pop\n        /* \"#utility.yul\":11979:12044   */\n      tag_357\n        /* \"#utility.yul\":12041:12042   */\n      0x00\n        /* \"#utility.yul\":12030:12039   */\n      dup4\n        /* \"#utility.yul\":12026:12043   */\n      add\n        /* \"#utility.yul\":12017:12023   */\n      dup7\n        /* \"#utility.yul\":11979:12044   */\n      tag_268\n      jump\t// in\n    tag_357:\n        /* \"#utility.yul\":12091:12100   */\n      dup2\n        /* \"#utility.yul\":12085:12089   */\n      dup2\n        /* \"#utility.yul\":12081:12101   */\n      sub\n        /* \"#utility.yul\":12076:12078   */\n      0x20\n        /* \"#utility.yul\":12065:12074   */\n      dup4\n        /* \"#utility.yul\":12061:12079   */\n      add\n        /* \"#utility.yul\":12054:12102   */\n      mstore\n        /* \"#utility.yul\":12119:12197   */\n      tag_358\n        /* \"#utility.yul\":12192:12196   */\n      dup2\n        /* \"#utility.yul\":12183:12189   */\n      dup6\n        /* \"#utility.yul\":12119:12197   */\n      tag_292\n      jump\t// in\n    tag_358:\n        /* \"#utility.yul\":12111:12197   */\n      swap1\n      pop\n        /* \"#utility.yul\":12207:12275   */\n      tag_359\n        /* \"#utility.yul\":12271:12273   */\n      0x40\n        /* \"#utility.yul\":12260:12269   */\n      dup4\n        /* \"#utility.yul\":12256:12274   */\n      add\n        /* \"#utility.yul\":12247:12253   */\n      dup5\n        /* \"#utility.yul\":12207:12275   */\n      tag_337\n      jump\t// in\n    tag_359:\n        /* \"#utility.yul\":11769:12282   */\n      swap5\n      swap4\n      pop\n      pop\n      pop\n      pop\n      jump\t// out\n        /* \"#utility.yul\":12288:12912   */\n    tag_48:\n        /* \"#utility.yul\":12475:12479   */\n      0x00\n        /* \"#utility.yul\":12513:12516   */\n      0x80\n        /* \"#utility.yul\":12502:12511   */\n      dup3\n        /* \"#utility.yul\":12498:12517   */\n      add\n        /* \"#utility.yul\":12490:12517   */\n      swap1\n      pop\n        /* \"#utility.yul\":12527:12592   */\n      tag_361\n        /* \"#utility.yul\":12589:12590   */\n      0x00\n        /* \"#utility.yul\":12578:12587   */\n      dup4\n        /* \"#utility.yul\":12574:12591   */\n      add\n        /* \"#utility.yul\":12565:12571   */\n      dup8\n        /* \"#utility.yul\":12527:12592   */\n      tag_268\n      jump\t// in\n    tag_361:\n        /* \"#utility.yul\":12602:12670   */\n      tag_362\n        /* \"#utility.yul\":12666:12668   */\n      0x20\n        /* \"#utility.yul\":12655:12664   */\n      dup4\n        /* \"#utility.yul\":12651:12669   */\n      add\n        /* \"#utility.yul\":12642:12648   */\n      dup7\n        /* \"#utility.yul\":12602:12670   */\n      tag_337\n      jump\t// in\n    tag_362:\n        /* \"#utility.yul\":12680:12752   */\n      tag_363\n        /* \"#utility.yul\":12748:12750   */\n      0x40\n        /* \"#utility.yul\":12737:12746   */\n      dup4\n        /* \"#utility.yul\":12733:12751   */\n      add\n        /* \"#utility.yul\":12724:12730   */\n      dup6\n        /* \"#utility.yul\":12680:12752   */\n      tag_330\n      jump\t// in\n    tag_363:\n        /* \"#utility.yul\":12799:12808   */\n      dup2\n        /* \"#utility.yul\":12793:12797   */\n      dup2\n        /* \"#utility.yul\":12789:12809   */\n      sub\n        /* \"#utility.yul\":12784:12786   */\n      0x60\n        /* \"#utility.yul\":12773:12782   */\n      dup4\n        /* \"#utility.yul\":12769:12787   */\n      add\n        /* \"#utility.yul\":12762:12810   */\n      mstore\n        /* \"#utility.yul\":12827:12905   */\n      tag_364\n        /* \"#utility.yul\":12900:12904   */\n      dup2\n        /* \"#utility.yul\":12891:12897   */\n      dup5\n        /* \"#utility.yul\":12827:12905   */\n      tag_292\n      jump\t// in\n    tag_364:\n        /* \"#utility.yul\":12819:12905   */\n      swap1\n      pop\n        /* \"#utility.yul\":12288:12912   */\n      swap6\n      swap5\n      pop\n      pop\n      pop\n      pop\n      pop\n      jump\t// out\n        /* \"#utility.yul\":12918:13634   */\n    tag_129:\n        /* \"#utility.yul\":13149:13153   */\n      0x00\n        /* \"#utility.yul\":13187:13190   */\n      0xa0\n        /* \"#utility.yul\":13176:13185   */\n      dup3\n        /* \"#utility.yul\":13172:13191   */\n      add\n        /* \"#utility.yul\":13164:13191   */\n      swap1\n      pop\n        /* \"#utility.yul\":13201:13287   */\n      tag_366\n        /* \"#utility.yul\":13284:13285   */\n      0x00\n        /* \"#utility.yul\":13273:13282   */\n      dup4\n        /* \"#utility.yul\":13269:13286   */\n      add\n        /* \"#utility.yul\":13260:13266   */\n      dup9\n        /* \"#utility.yul\":13201:13287   */\n      tag_280\n      jump\t// in\n    tag_366:\n        /* \"#utility.yul\":13297:13369   */\n      tag_367\n        /* \"#utility.yul\":13365:13367   */\n      0x20\n        /* \"#utility.yul\":13354:13363   */\n      dup4\n        /* \"#utility.yul\":13350:13368   */\n      add\n        /* \"#utility.yul\":13341:13347   */\n      dup8\n        /* \"#utility.yul\":13297:13369   */\n      tag_330\n      jump\t// in\n    tag_367:\n        /* \"#utility.yul\":13379:13451   */\n      tag_368\n        /* \"#utility.yul\":13447:13449   */\n      0x40\n        /* \"#utility.yul\":13436:13445   */\n      dup4\n        /* \"#utility.yul\":13432:13450   */\n      add\n        /* \"#utility.yul\":13423:13429   */\n      dup7\n        /* \"#utility.yul\":13379:13451   */\n      tag_330\n      jump\t// in\n    tag_368:\n        /* \"#utility.yul\":13461:13546   */\n      tag_369\n        /* \"#utility.yul\":13542:13544   */\n      0x60\n        /* \"#utility.yul\":13531:13540   */\n      dup4\n        /* \"#utility.yul\":13527:13545   */\n      add\n        /* \"#utility.yul\":13518:13524   */\n      dup6\n        /* \"#utility.yul\":13461:13546   */\n      tag_272\n      jump\t// in\n    tag_369:\n        /* \"#utility.yul\":13556:13627   */\n      tag_370\n        /* \"#utility.yul\":13622:13625   */\n      0x80\n        /* \"#utility.yul\":13611:13620   */\n      dup4\n        /* \"#utility.yul\":13607:13626   */\n      add\n        /* \"#utility.yul\":13598:13604   */\n      dup5\n        /* \"#utility.yul\":13556:13627   */\n      tag_333\n      jump\t// in\n    tag_370:\n        /* \"#utility.yul\":12918:13634   */\n      swap7\n      swap6\n      pop\n      pop\n      pop\n      pop\n      pop\n      pop\n      jump\t// out\n        /* \"#utility.yul\":13640:14059   */\n    tag_93:\n        /* \"#utility.yul\":13806:13810   */\n      0x00\n        /* \"#utility.yul\":13844:13846   */\n      0x20\n        /* \"#utility.yul\":13833:13842   */\n      dup3\n        /* \"#utility.yul\":13829:13847   */\n      add\n        /* \"#utility.yul\":13821:13847   */\n      swap1\n      pop\n        /* \"#utility.yul\":13893:13902   */\n      dup2\n        /* \"#utility.yul\":13887:13891   */\n      dup2\n        /* \"#utility.yul\":13883:13903   */\n      sub\n        /* \"#utility.yul\":13879:13880   */\n      0x00\n        /* \"#utility.yul\":13868:13877   */\n      dup4\n        /* \"#utility.yul\":13864:13881   */\n      add\n        /* \"#utility.yul\":13857:13904   */\n      mstore\n        /* \"#utility.yul\":13921:14052   */\n      tag_372\n        /* \"#utility.yul\":14047:14051   */\n      dup2\n        /* \"#utility.yul\":13921:14052   */\n      tag_302\n      jump\t// in\n    tag_372:\n        /* \"#utility.yul\":13913:14052   */\n      swap1\n      pop\n        /* \"#utility.yul\":13640:14059   */\n      swap2\n      swap1\n      pop\n      jump\t// out\n        /* \"#utility.yul\":14065:14484   */\n    tag_89:\n        /* \"#utility.yul\":14231:14235   */\n      0x00\n        /* \"#utility.yul\":14269:14271   */\n      0x20\n        /* \"#utility.yul\":14258:14267   */\n      dup3\n        /* \"#utility.yul\":14254:14272   */\n      add\n        /* \"#utility.yul\":14246:14272   */\n      swap1\n      pop\n        /* \"#utility.yul\":14318:14327   */\n      dup2\n        /* \"#utility.yul\":14312:14316   */\n      dup2\n        /* \"#utility.yul\":14308:14328   */\n      sub\n        /* \"#utility.yul\":14304:14305   */\n      0x00\n        /* \"#utility.yul\":14293:14302   */\n      dup4\n        /* \"#utility.yul\":14289:14306   */\n      add\n        /* \"#utility.yul\":14282:14329   */\n      mstore\n        /* \"#utility.yul\":14346:14477   */\n      tag_374\n        /* \"#utility.yul\":14472:14476   */\n      dup2\n        /* \"#utility.yul\":14346:14477   */\n      tag_307\n      jump\t// in\n    tag_374:\n        /* \"#utility.yul\":14338:14477   */\n      swap1\n      pop\n        /* \"#utility.yul\":14065:14484   */\n      swap2\n      swap1\n      pop\n      jump\t// out\n        /* \"#utility.yul\":14490:14909   */\n    tag_116:\n        /* \"#utility.yul\":14656:14660   */\n      0x00\n        /* \"#utility.yul\":14694:14696   */\n      0x20\n        /* \"#utility.yul\":14683:14692   */\n      dup3\n        /* \"#utility.yul\":14679:14697   */\n      add\n        /* \"#utility.yul\":14671:14697   */\n      swap1\n      pop\n        /* \"#utility.yul\":14743:14752   */\n      dup2\n        /* \"#utility.yul\":14737:14741   */\n      dup2\n        /* \"#utility.yul\":14733:14753   */\n      sub\n        /* \"#utility.yul\":14729:14730   */\n      0x00\n        /* \"#utility.yul\":14718:14727   */\n      dup4\n        /* \"#utility.yul\":14714:14731   */\n      add\n        /* \"#utility.yul\":14707:14754   */\n      mstore\n        /* \"#utility.yul\":14771:14902   */\n      tag_376\n        /* \"#utility.yul\":14897:14901   */\n      dup2\n        /* \"#utility.yul\":14771:14902   */\n      tag_312\n      jump\t// in\n    tag_376:\n        /* \"#utility.yul\":14763:14902   */\n      swap1\n      pop\n        /* \"#utility.yul\":14490:14909   */\n      swap2\n      swap1\n      pop\n      jump\t// out\n        /* \"#utility.yul\":14915:15137   */\n    tag_35:\n        /* \"#utility.yul\":15008:15012   */\n      0x00\n        /* \"#utility.yul\":15046:15048   */\n      0x20\n        /* \"#utility.yul\":15035:15044   */\n      dup3\n        /* \"#utility.yul\":15031:15049   */\n      add\n        /* \"#utility.yul\":15023:15049   */\n      swap1\n      pop\n        /* \"#utility.yul\":15059:15130   */\n      tag_378\n        /* \"#utility.yul\":15127:15128   */\n      0x00\n        /* \"#utility.yul\":15116:15125   */\n      dup4\n        /* \"#utility.yul\":15112:15129   */\n      add\n        /* \"#utility.yul\":15103:15109   */\n      dup5\n        /* \"#utility.yul\":15059:15130   */\n      tag_330\n      jump\t// in\n    tag_378:\n        /* \"#utility.yul\":14915:15137   */\n      swap3\n      swap2\n      pop\n      pop\n      jump\t// out\n        /* \"#utility.yul\":15143:16397   */\n    tag_54:\n        /* \"#utility.yul\":15533:15537   */\n      0x00\n        /* \"#utility.yul\":15571:15574   */\n      0x0160\n        /* \"#utility.yul\":15560:15569   */\n      dup3\n        /* \"#utility.yul\":15556:15575   */\n      add\n        /* \"#utility.yul\":15548:15575   */\n      swap1\n      pop\n        /* \"#utility.yul\":15585:15656   */\n      tag_380\n        /* \"#utility.yul\":15653:15654   */\n      0x00\n        /* \"#utility.yul\":15642:15651   */\n      dup4\n        /* \"#utility.yul\":15638:15655   */\n      add\n        /* \"#utility.yul\":15629:15635   */\n      dup13\n        /* \"#utility.yul\":15585:15656   */\n      tag_330\n      jump\t// in\n    tag_380:\n        /* \"#utility.yul\":15666:15738   */\n      tag_381\n        /* \"#utility.yul\":15734:15736   */\n      0x20\n        /* \"#utility.yul\":15723:15732   */\n      dup4\n        /* \"#utility.yul\":15719:15737   */\n      add\n        /* \"#utility.yul\":15710:15716   */\n      dup12\n        /* \"#utility.yul\":15666:15738   */\n      tag_265\n      jump\t// in\n    tag_381:\n        /* \"#utility.yul\":15748:15835   */\n      tag_382\n        /* \"#utility.yul\":15831:15833   */\n      0x40\n        /* \"#utility.yul\":15820:15829   */\n      dup4\n        /* \"#utility.yul\":15816:15834   */\n      add\n        /* \"#utility.yul\":15807:15813   */\n      dup11\n        /* \"#utility.yul\":15748:15835   */\n      tag_280\n      jump\t// in\n    tag_382:\n        /* \"#utility.yul\":15845:15917   */\n      tag_383\n        /* \"#utility.yul\":15913:15915   */\n      0x60\n        /* \"#utility.yul\":15902:15911   */\n      dup4\n        /* \"#utility.yul\":15898:15916   */\n      add\n        /* \"#utility.yul\":15889:15895   */\n      dup10\n        /* \"#utility.yul\":15845:15917   */\n      tag_330\n      jump\t// in\n    tag_383:\n        /* \"#utility.yul\":15927:16000   */\n      tag_384\n        /* \"#utility.yul\":15995:15998   */\n      0x80\n        /* \"#utility.yul\":15984:15993   */\n      dup4\n        /* \"#utility.yul\":15980:15999   */\n      add\n        /* \"#utility.yul\":15971:15977   */\n      dup9\n        /* \"#utility.yul\":15927:16000   */\n      tag_330\n      jump\t// in\n    tag_384:\n        /* \"#utility.yul\":16010:16096   */\n      tag_385\n        /* \"#utility.yul\":16091:16094   */\n      0xa0\n        /* \"#utility.yul\":16080:16089   */\n      dup4\n        /* \"#utility.yul\":16076:16095   */\n      add\n        /* \"#utility.yul\":16067:16073   */\n      dup8\n        /* \"#utility.yul\":16010:16096   */\n      tag_272\n      jump\t// in\n    tag_385:\n        /* \"#utility.yul\":16106:16177   */\n      tag_386\n        /* \"#utility.yul\":16172:16175   */\n      0xc0\n        /* \"#utility.yul\":16161:16170   */\n      dup4\n        /* \"#utility.yul\":16157:16176   */\n      add\n        /* \"#utility.yul\":16148:16154   */\n      dup7\n        /* \"#utility.yul\":16106:16177   */\n      tag_333\n      jump\t// in\n    tag_386:\n        /* \"#utility.yul\":16187:16267   */\n      tag_387\n        /* \"#utility.yul\":16262:16265   */\n      0xe0\n        /* \"#utility.yul\":16251:16260   */\n      dup4\n        /* \"#utility.yul\":16247:16266   */\n      add\n        /* \"#utility.yul\":16238:16244   */\n      dup6\n        /* \"#utility.yul\":16187:16267   */\n      tag_284\n      jump\t// in\n    tag_387:\n        /* \"#utility.yul\":16277:16390   */\n      tag_388\n        /* \"#utility.yul\":16385:16388   */\n      0x0100\n        /* \"#utility.yul\":16374:16383   */\n      dup4\n        /* \"#utility.yul\":16370:16389   */\n      add\n        /* \"#utility.yul\":16361:16367   */\n      dup5\n        /* \"#utility.yul\":16277:16390   */\n      tag_317\n      jump\t// in\n    tag_388:\n        /* \"#utility.yul\":15143:16397   */\n      swap11\n      swap10\n      pop\n      pop\n      pop\n      pop\n      pop\n      pop\n      pop\n      pop\n      pop\n      pop\n      jump\t// out\n        /* \"#utility.yul\":16403:16822   */\n    tag_68:\n        /* \"#utility.yul\":16542:16546   */\n      0x00\n        /* \"#utility.yul\":16580:16582   */\n      0x40\n        /* \"#utility.yul\":16569:16578   */\n      dup3\n        /* \"#utility.yul\":16565:16583   */\n      add\n        /* \"#utility.yul\":16557:16583   */\n      swap1\n      pop\n        /* \"#utility.yul\":16593:16662   */\n      tag_390\n        /* \"#utility.yul\":16659:16660   */\n      0x00\n        /* \"#utility.yul\":16648:16657   */\n      dup4\n        /* \"#utility.yul\":16644:16661   */\n      add\n        /* \"#utility.yul\":16635:16641   */\n      dup6\n        /* \"#utility.yul\":16593:16662   */\n      tag_333\n      jump\t// in\n    tag_390:\n        /* \"#utility.yul\":16709:16718   */\n      dup2\n        /* \"#utility.yul\":16703:16707   */\n      dup2\n        /* \"#utility.yul\":16699:16719   */\n      sub\n        /* \"#utility.yul\":16694:16696   */\n      0x20\n        /* \"#utility.yul\":16683:16692   */\n      dup4\n        /* \"#utility.yul\":16679:16697   */\n      add\n        /* \"#utility.yul\":16672:16720   */\n      mstore\n        /* \"#utility.yul\":16737:16815   */\n      tag_391\n        /* \"#utility.yul\":16810:16814   */\n      dup2\n        /* \"#utility.yul\":16801:16807   */\n      dup5\n        /* \"#utility.yul\":16737:16815   */\n      tag_292\n      jump\t// in\n    tag_391:\n        /* \"#utility.yul\":16729:16815   */\n      swap1\n      pop\n        /* \"#utility.yul\":16403:16822   */\n      swap4\n      swap3\n      pop\n      pop\n      pop\n      jump\t// out\n        /* \"#utility.yul\":16909:17008   */\n    tag_295:\n        /* \"#utility.yul\":16961:16967   */\n      0x00\n        /* \"#utility.yul\":16995:17000   */\n      dup2\n        /* \"#utility.yul\":16989:17001   */\n      mload\n        /* \"#utility.yul\":16979:17001   */\n      swap1\n      pop\n        /* \"#utility.yul\":16909:17008   */\n      swap2\n      swap1\n      pop\n      jump\t// out\n        /* \"#utility.yul\":17014:17183   */\n    tag_297:\n        /* \"#utility.yul\":17098:17109   */\n      0x00\n        /* \"#utility.yul\":17132:17138   */\n      dup3\n        /* \"#utility.yul\":17127:17130   */\n      dup3\n        /* \"#utility.yul\":17120:17139   */\n      mstore\n        /* \"#utility.yul\":17172:17176   */\n      0x20\n        /* \"#utility.yul\":17167:17170   */\n      dup3\n        /* \"#utility.yul\":17163:17177   */\n      add\n        /* \"#utility.yul\":17148:17177   */\n      swap1\n      pop\n        /* \"#utility.yul\":17014:17183   */\n      swap3\n      swap2\n      pop\n      pop\n      jump\t// out\n        /* \"#utility.yul\":17189:17285   */\n    tag_264:\n        /* \"#utility.yul\":17226:17233   */\n      0x00\n        /* \"#utility.yul\":17255:17279   */\n      tag_397\n        /* \"#utility.yul\":17273:17278   */\n      dup3\n        /* \"#utility.yul\":17255:17279   */\n      tag_398\n      jump\t// in\n    tag_397:\n        /* \"#utility.yul\":17244:17279   */\n      swap1\n      pop\n        /* \"#utility.yul\":17189:17285   */\n      swap2\n      swap1\n      pop\n      jump\t// out\n        /* \"#utility.yul\":17291:17381   */\n    tag_271:\n        /* \"#utility.yul\":17325:17332   */\n      0x00\n        /* \"#utility.yul\":17368:17373   */\n      dup2\n        /* \"#utility.yul\":17361:17374   */\n      iszero\n        /* \"#utility.yul\":17354:17375   */\n      iszero\n        /* \"#utility.yul\":17343:17375   */\n      swap1\n      pop\n        /* \"#utility.yul\":17291:17381   */\n      swap2\n      swap1\n      pop\n      jump\t// out\n        /* \"#utility.yul\":17387:17528   */\n    tag_400:\n        /* \"#utility.yul\":17439:17446   */\n      0x00\n        /* \"#utility.yul\":17468:17473   */\n      dup2\n        /* \"#utility.yul\":17457:17473   */\n      swap1\n      pop\n        /* \"#utility.yul\":17474:17522   */\n      tag_402\n        /* \"#utility.yul\":17516:17521   */\n      dup3\n        /* \"#utility.yul\":17474:17522   */\n      tag_403\n      jump\t// in\n    tag_402:\n        /* \"#utility.yul\":17387:17528   */\n      swap2\n      swap1\n      pop\n      jump\t// out\n        /* \"#utility.yul\":17534:17669   */\n    tag_404:\n        /* \"#utility.yul\":17583:17590   */\n      0x00\n        /* \"#utility.yul\":17612:17617   */\n      dup2\n        /* \"#utility.yul\":17601:17617   */\n      swap1\n      pop\n        /* \"#utility.yul\":17618:17663   */\n      tag_406\n        /* \"#utility.yul\":17657:17662   */\n      dup3\n        /* \"#utility.yul\":17618:17663   */\n      tag_407\n      jump\t// in\n    tag_406:\n        /* \"#utility.yul\":17534:17669   */\n      swap2\n      swap1\n      pop\n      jump\t// out\n        /* \"#utility.yul\":17675:17820   */\n    tag_408:\n        /* \"#utility.yul\":17729:17736   */\n      0x00\n        /* \"#utility.yul\":17758:17763   */\n      dup2\n        /* \"#utility.yul\":17747:17763   */\n      swap1\n      pop\n        /* \"#utility.yul\":17764:17814   */\n      tag_410\n        /* \"#utility.yul\":17808:17813   */\n      dup3\n        /* \"#utility.yul\":17764:17814   */\n      tag_411\n      jump\t// in\n    tag_410:\n        /* \"#utility.yul\":17675:17820   */\n      swap2\n      swap1\n      pop\n      jump\t// out\n        /* \"#utility.yul\":17826:17955   */\n    tag_412:\n        /* \"#utility.yul\":17872:17879   */\n      0x00\n        /* \"#utility.yul\":17901:17906   */\n      dup2\n        /* \"#utility.yul\":17890:17906   */\n      swap1\n      pop\n        /* \"#utility.yul\":17907:17949   */\n      tag_414\n        /* \"#utility.yul\":17943:17948   */\n      dup3\n        /* \"#utility.yul\":17907:17949   */\n      tag_415\n      jump\t// in\n    tag_414:\n        /* \"#utility.yul\":17826:17955   */\n      swap2\n      swap1\n      pop\n      jump\t// out\n        /* \"#utility.yul\":17961:18088   */\n    tag_416:\n        /* \"#utility.yul\":18006:18013   */\n      0x00\n        /* \"#utility.yul\":18035:18040   */\n      dup2\n        /* \"#utility.yul\":18024:18040   */\n      swap1\n      pop\n        /* \"#utility.yul\":18041:18082   */\n      tag_418\n        /* \"#utility.yul\":18076:18081   */\n      dup3\n        /* \"#utility.yul\":18041:18082   */\n      tag_419\n      jump\t// in\n    tag_418:\n        /* \"#utility.yul\":17961:18088   */\n      swap2\n      swap1\n      pop\n      jump\t// out\n        /* \"#utility.yul\":18094:18183   */\n    tag_326:\n        /* \"#utility.yul\":18130:18137   */\n      0x00\n        /* \"#utility.yul\":18170:18176   */\n      0xffff\n        /* \"#utility.yul\":18163:18168   */\n      dup3\n        /* \"#utility.yul\":18159:18177   */\n      and\n        /* \"#utility.yul\":18148:18177   */\n      swap1\n      pop\n        /* \"#utility.yul\":18094:18183   */\n      swap2\n      swap1\n      pop\n      jump\t// out\n        /* \"#utility.yul\":18189:18315   */\n    tag_398:\n        /* \"#utility.yul\":18226:18233   */\n      0x00\n        /* \"#utility.yul\":18266:18308   */\n      0xffffffffffffffffffffffffffffffffffffffff\n        /* \"#utility.yul\":18259:18264   */\n      dup3\n        /* \"#utility.yul\":18255:18309   */\n      and\n        /* \"#utility.yul\":18244:18309   */\n      swap1\n      pop\n        /* \"#utility.yul\":18189:18315   */\n      swap2\n      swap1\n      pop\n      jump\t// out\n        /* \"#utility.yul\":18321:18398   */\n    tag_329:\n        /* \"#utility.yul\":18358:18365   */\n      0x00\n        /* \"#utility.yul\":18387:18392   */\n      dup2\n        /* \"#utility.yul\":18376:18392   */\n      swap1\n      pop\n        /* \"#utility.yul\":18321:18398   */\n      swap2\n      swap1\n      pop\n      jump\t// out\n        /* \"#utility.yul\":18404:18497   */\n    tag_336:\n        /* \"#utility.yul\":18440:18447   */\n      0x00\n        /* \"#utility.yul\":18480:18490   */\n      0xffffffff\n        /* \"#utility.yul\":18473:18478   */\n      dup3\n        /* \"#utility.yul\":18469:18491   */\n      and\n        /* \"#utility.yul\":18458:18491   */\n      swap1\n      pop\n        /* \"#utility.yul\":18404:18497   */\n      swap2\n      swap1\n      pop\n      jump\t// out\n        /* \"#utility.yul\":18503:18589   */\n    tag_340:\n        /* \"#utility.yul\":18538:18545   */\n      0x00\n        /* \"#utility.yul\":18578:18582   */\n      0xff\n        /* \"#utility.yul\":18571:18576   */\n      dup3\n        /* \"#utility.yul\":18567:18583   */\n      and\n        /* \"#utility.yul\":18556:18583   */\n      swap1\n      pop\n        /* \"#utility.yul\":18503:18589   */\n      swap2\n      swap1\n      pop\n      jump\t// out\n        /* \"#utility.yul\":18595:18736   */\n    tag_275:\n        /* \"#utility.yul\":18658:18667   */\n      0x00\n        /* \"#utility.yul\":18691:18730   */\n      tag_426\n        /* \"#utility.yul\":18724:18729   */\n      dup3\n        /* \"#utility.yul\":18691:18730   */\n      tag_400\n      jump\t// in\n    tag_426:\n        /* \"#utility.yul\":18678:18730   */\n      swap1\n      pop\n        /* \"#utility.yul\":18595:18736   */\n      swap2\n      swap1\n      pop\n      jump\t// out\n        /* \"#utility.yul\":18742:18877   */\n    tag_279:\n        /* \"#utility.yul\":18802:18811   */\n      0x00\n        /* \"#utility.yul\":18835:18871   */\n      tag_428\n        /* \"#utility.yul\":18865:18870   */\n      dup3\n        /* \"#utility.yul\":18835:18871   */\n      tag_404\n      jump\t// in\n    tag_428:\n        /* \"#utility.yul\":18822:18871   */\n      swap1\n      pop\n        /* \"#utility.yul\":18742:18877   */\n      swap2\n      swap1\n      pop\n      jump\t// out\n        /* \"#utility.yul\":18883:19028   */\n    tag_283:\n        /* \"#utility.yul\":18948:18957   */\n      0x00\n        /* \"#utility.yul\":18981:19022   */\n      tag_430\n        /* \"#utility.yul\":19016:19021   */\n      dup3\n        /* \"#utility.yul\":18981:19022   */\n      tag_408\n      jump\t// in\n    tag_430:\n        /* \"#utility.yul\":18968:19022   */\n      swap1\n      pop\n        /* \"#utility.yul\":18883:19028   */\n      swap2\n      swap1\n      pop\n      jump\t// out\n        /* \"#utility.yul\":19034:19163   */\n    tag_287:\n        /* \"#utility.yul\":19091:19100   */\n      0x00\n        /* \"#utility.yul\":19124:19157   */\n      tag_432\n        /* \"#utility.yul\":19151:19156   */\n      dup3\n        /* \"#utility.yul\":19124:19157   */\n      tag_412\n      jump\t// in\n    tag_432:\n        /* \"#utility.yul\":19111:19157   */\n      swap1\n      pop\n        /* \"#utility.yul\":19034:19163   */\n      swap2\n      swap1\n      pop\n      jump\t// out\n        /* \"#utility.yul\":19169:19296   */\n    tag_291:\n        /* \"#utility.yul\":19225:19234   */\n      0x00\n        /* \"#utility.yul\":19258:19290   */\n      tag_434\n        /* \"#utility.yul\":19284:19289   */\n      dup3\n        /* \"#utility.yul\":19258:19290   */\n      tag_416\n      jump\t// in\n    tag_434:\n        /* \"#utility.yul\":19245:19290   */\n      swap1\n      pop\n        /* \"#utility.yul\":19169:19296   */\n      swap2\n      swap1\n      pop\n      jump\t// out\n        /* \"#utility.yul\":19302:19609   */\n    tag_299:\n        /* \"#utility.yul\":19370:19371   */\n      0x00\n        /* \"#utility.yul\":19380:19493   */\n    tag_436:\n        /* \"#utility.yul\":19394:19400   */\n      dup4\n        /* \"#utility.yul\":19391:19392   */\n      dup2\n        /* \"#utility.yul\":19388:19401   */\n      lt\n        /* \"#utility.yul\":19380:19493   */\n      iszero\n      tag_438\n      jumpi\n        /* \"#utility.yul\":19479:19480   */\n      dup1\n        /* \"#utility.yul\":19474:19477   */\n      dup3\n        /* \"#utility.yul\":19470:19481   */\n      add\n        /* \"#utility.yul\":19464:19482   */\n      mload\n        /* \"#utility.yul\":19460:19461   */\n      dup2\n        /* \"#utility.yul\":19455:19458   */\n      dup5\n        /* \"#utility.yul\":19451:19462   */\n      add\n        /* \"#utility.yul\":19444:19483   */\n      mstore\n        /* \"#utility.yul\":19416:19418   */\n      0x20\n        /* \"#utility.yul\":19413:19414   */\n      dup2\n        /* \"#utility.yul\":19409:19419   */\n      add\n        /* \"#utility.yul\":19404:19419   */\n      swap1\n      pop\n        /* \"#utility.yul\":19380:19493   */\n      jump(tag_436)\n    tag_438:\n        /* \"#utility.yul\":19511:19517   */\n      dup4\n        /* \"#utility.yul\":19508:19509   */\n      dup2\n        /* \"#utility.yul\":19505:19518   */\n      gt\n        /* \"#utility.yul\":19502:19603   */\n      iszero\n      tag_439\n      jumpi\n        /* \"#utility.yul\":19591:19592   */\n      0x00\n        /* \"#utility.yul\":19582:19588   */\n      dup5\n        /* \"#utility.yul\":19577:19580   */\n      dup5\n        /* \"#utility.yul\":19573:19589   */\n      add\n        /* \"#utility.yul\":19566:19593   */\n      mstore\n        /* \"#utility.yul\":19502:19603   */\n    tag_439:\n        /* \"#utility.yul\":19351:19609   */\n      pop\n        /* \"#utility.yul\":19302:19609   */\n      pop\n      pop\n      pop\n      jump\t// out\n        /* \"#utility.yul\":19615:19935   */\n    tag_106:\n        /* \"#utility.yul\":19659:19665   */\n      0x00\n        /* \"#utility.yul\":19696:19697   */\n      0x02\n        /* \"#utility.yul\":19690:19694   */\n      dup3\n        /* \"#utility.yul\":19686:19698   */\n      div\n        /* \"#utility.yul\":19676:19698   */\n      swap1\n      pop\n        /* \"#utility.yul\":19743:19744   */\n      0x01\n        /* \"#utility.yul\":19737:19741   */\n      dup3\n        /* \"#utility.yul\":19733:19745   */\n      and\n        /* \"#utility.yul\":19764:19782   */\n      dup1\n        /* \"#utility.yul\":19754:19835   */\n      tag_441\n      jumpi\n        /* \"#utility.yul\":19820:19824   */\n      0x7f\n        /* \"#utility.yul\":19812:19818   */\n      dup3\n        /* \"#utility.yul\":19808:19825   */\n      and\n        /* \"#utility.yul\":19798:19825   */\n      swap2\n      pop\n        /* \"#utility.yul\":19754:19835   */\n    tag_441:\n        /* \"#utility.yul\":19882:19884   */\n      0x20\n        /* \"#utility.yul\":19874:19880   */\n      dup3\n        /* \"#utility.yul\":19871:19885   */\n      lt\n        /* \"#utility.yul\":19851:19869   */\n      dup2\n        /* \"#utility.yul\":19848:19886   */\n      eq\n        /* \"#utility.yul\":19845:19929   */\n      iszero\n      tag_442\n      jumpi\n        /* \"#utility.yul\":19901:19919   */\n      tag_443\n      tag_444\n      jump\t// in\n    tag_443:\n        /* \"#utility.yul\":19845:19929   */\n    tag_442:\n        /* \"#utility.yul\":19666:19935   */\n      pop\n        /* \"#utility.yul\":19615:19935   */\n      swap2\n      swap1\n      pop\n      jump\t// out\n        /* \"#utility.yul\":19941:20174   */\n    tag_95:\n        /* \"#utility.yul\":19980:19983   */\n      0x00\n        /* \"#utility.yul\":20003:20027   */\n      tag_446\n        /* \"#utility.yul\":20021:20026   */\n      dup3\n        /* \"#utility.yul\":20003:20027   */\n      tag_329\n      jump\t// in\n    tag_446:\n        /* \"#utility.yul\":19994:20027   */\n      swap2\n      pop\n        /* \"#utility.yul\":20049:20115   */\n      0xffffffffffffffffffffffffffffffffffffffffffffffffffffffffffffffff\n        /* \"#utility.yul\":20042:20047   */\n      dup3\n        /* \"#utility.yul\":20039:20116   */\n      eq\n        /* \"#utility.yul\":20036:20139   */\n      iszero\n      tag_447\n      jumpi\n        /* \"#utility.yul\":20119:20137   */\n      tag_448\n      tag_449\n      jump\t// in\n    tag_448:\n        /* \"#utility.yul\":20036:20139   */\n    tag_447:\n        /* \"#utility.yul\":20166:20167   */\n      0x01\n        /* \"#utility.yul\":20159:20164   */\n      dup3\n        /* \"#utility.yul\":20155:20168   */\n      add\n        /* \"#utility.yul\":20148:20168   */\n      swap1\n      pop\n        /* \"#utility.yul\":19941:20174   */\n      swap2\n      swap1\n      pop\n      jump\t// out\n        /* \"#utility.yul\":20180:20360   */\n    tag_449:\n        /* \"#utility.yul\":20228:20305   */\n      0x4e487b7100000000000000000000000000000000000000000000000000000000\n        /* \"#utility.yul\":20225:20226   */\n      0x00\n        /* \"#utility.yul\":20218:20306   */\n      mstore\n        /* \"#utility.yul\":20325:20329   */\n      0x11\n        /* \"#utility.yul\":20322:20323   */\n      0x04\n        /* \"#utility.yul\":20315:20330   */\n      mstore\n        /* \"#utility.yul\":20349:20353   */\n      0x24\n        /* \"#utility.yul\":20346:20347   */\n      0x00\n        /* \"#utility.yul\":20339:20354   */\n      revert\n        /* \"#utility.yul\":20366:20546   */\n    tag_98:\n        /* \"#utility.yul\":20414:20491   */\n      0x4e487b7100000000000000000000000000000000000000000000000000000000\n        /* \"#utility.yul\":20411:20412   */\n      0x00\n        /* \"#utility.yul\":20404:20492   */\n      mstore\n        /* \"#utility.yul\":20511:20515   */\n      0x21\n        /* \"#utility.yul\":20508:20509   */\n      0x04\n        /* \"#utility.yul\":20501:20516   */\n      mstore\n        /* \"#utility.yul\":20535:20539   */\n      0x24\n        /* \"#utility.yul\":20532:20533   */\n      0x00\n        /* \"#utility.yul\":20525:20540   */\n      revert\n        /* \"#utility.yul\":20552:20732   */\n    tag_444:\n        /* \"#utility.yul\":20600:20677   */\n      0x4e487b7100000000000000000000000000000000000000000000000000000000\n        /* \"#utility.yul\":20597:20598   */\n      0x00\n        /* \"#utility.yul\":20590:20678   */\n      mstore\n        /* \"#utility.yul\":20697:20701   */\n      0x22\n        /* \"#utility.yul\":20694:20695   */\n      0x04\n        /* \"#utility.yul\":20687:20702   */\n      mstore\n        /* \"#utility.yul\":20721:20725   */\n      0x24\n        /* \"#utility.yul\":20718:20719   */\n      0x00\n        /* \"#utility.yul\":20711:20726   */\n      revert\n        /* \"#utility.yul\":20861:20978   */\n    tag_220:\n        /* \"#utility.yul\":20970:20971   */\n      0x00\n        /* \"#utility.yul\":20967:20968   */\n      dup1\n        /* \"#utility.yul\":20960:20972   */\n      revert\n        /* \"#utility.yul\":20984:21086   */\n    tag_301:\n        /* \"#utility.yul\":21025:21031   */\n      0x00\n        /* \"#utility.yul\":21076:21078   */\n      0x1f\n        /* \"#utility.yul\":21072:21079   */\n      not\n        /* \"#utility.yul\":21067:21069   */\n      0x1f\n        /* \"#utility.yul\":21060:21065   */\n      dup4\n        /* \"#utility.yul\":21056:21070   */\n      add\n        /* \"#utility.yul\":21052:21080   */\n      and\n        /* \"#utility.yul\":21042:21080   */\n      swap1\n      pop\n        /* \"#utility.yul\":20984:21086   */\n      swap2\n      swap1\n      pop\n      jump\t// out\n        /* \"#utility.yul\":21092:21259   */\n    tag_306:\n        /* \"#utility.yul\":21232:21251   */\n      0x4b697369206d657663757420646567696c000000000000000000000000000000\n        /* \"#utility.yul\":21228:21229   */\n      0x00\n        /* \"#utility.yul\":21220:21226   */\n      dup3\n        /* \"#utility.yul\":21216:21230   */\n      add\n        /* \"#utility.yul\":21209:21252   */\n      mstore\n        /* \"#utility.yul\":21092:21259   */\n      pop\n      jump\t// out\n        /* \"#utility.yul\":21265:21447   */\n    tag_311:\n        /* \"#utility.yul\":21405:21439   */\n      0x42752069736c656d6920736164656365204b697369207961706162696c69722e\n        /* \"#utility.yul\":21401:21402   */\n      0x00\n        /* \"#utility.yul\":21393:21399   */\n      dup3\n        /* \"#utility.yul\":21389:21403   */\n      add\n        /* \"#utility.yul\":21382:21440   */\n      mstore\n        /* \"#utility.yul\":21265:21447   */\n      pop\n      jump\t// out\n        /* \"#utility.yul\":21453:21635   */\n    tag_316:\n        /* \"#utility.yul\":21593:21627   */\n      0x42752069736c656d6920736164656365204b757273207961706162696c69722e\n        /* \"#utility.yul\":21589:21590   */\n      0x00\n        /* \"#utility.yul\":21581:21587   */\n      dup3\n        /* \"#utility.yul\":21577:21591   */\n      add\n        /* \"#utility.yul\":21570:21628   */\n      mstore\n        /* \"#utility.yul\":21453:21635   */\n      pop\n      jump\t// out\n        /* \"#utility.yul\":21641:21761   */\n    tag_403:\n        /* \"#utility.yul\":21729:21730   */\n      0x04\n        /* \"#utility.yul\":21722:21727   */\n      dup2\n        /* \"#utility.yul\":21719:21731   */\n      lt\n        /* \"#utility.yul\":21709:21755   */\n      tag_461\n      jumpi\n        /* \"#utility.yul\":21735:21753   */\n      tag_462\n      tag_98\n      jump\t// in\n    tag_462:\n        /* \"#utility.yul\":21709:21755   */\n    tag_461:\n        /* \"#utility.yul\":21641:21761   */\n      pop\n      jump\t// out\n        /* \"#utility.yul\":21767:21884   */\n    tag_407:\n        /* \"#utility.yul\":21852:21853   */\n      0x03\n        /* \"#utility.yul\":21845:21850   */\n      dup2\n        /* \"#utility.yul\":21842:21854   */\n      lt\n        /* \"#utility.yul\":21832:21878   */\n      tag_464\n      jumpi\n        /* \"#utility.yul\":21858:21876   */\n      tag_465\n      tag_98\n      jump\t// in\n    tag_465:\n        /* \"#utility.yul\":21832:21878   */\n    tag_464:\n        /* \"#utility.yul\":21767:21884   */\n      pop\n      jump\t// out\n        /* \"#utility.yul\":21890:22012   */\n    tag_411:\n        /* \"#utility.yul\":21980:21981   */\n      0x06\n        /* \"#utility.yul\":21973:21978   */\n      dup2\n        /* \"#utility.yul\":21970:21982   */\n      lt\n        /* \"#utility.yul\":21960:22006   */\n      tag_467\n      jumpi\n        /* \"#utility.yul\":21986:22004   */\n      tag_468\n      tag_98\n      jump\t// in\n    tag_468:\n        /* \"#utility.yul\":21960:22006   */\n    tag_467:\n        /* \"#utility.yul\":21890:22012   */\n      pop\n      jump\t// out\n        /* \"#utility.yul\":22018:22132   */\n    tag_415:\n        /* \"#utility.yul\":22100:22101   */\n      0x04\n        /* \"#utility.yul\":22093:22098   */\n      dup2\n        /* \"#utility.yul\":22090:22102   */\n      lt\n        /* \"#utility.yul\":22080:22126   */\n      tag_470\n      jumpi\n        /* \"#utility.yul\":22106:22124   */\n      tag_471\n      tag_98\n      jump\t// in\n    tag_471:\n        /* \"#utility.yul\":22080:22126   */\n    tag_470:\n        /* \"#utility.yul\":22018:22132   */\n      pop\n      jump\t// out\n        /* \"#utility.yul\":22138:22251   */\n    tag_419:\n        /* \"#utility.yul\":22219:22220   */\n      0x04\n        /* \"#utility.yul\":22212:22217   */\n      dup2\n        /* \"#utility.yul\":22209:22221   */\n      lt\n        /* \"#utility.yul\":22199:22245   */\n      tag_473\n      jumpi\n        /* \"#utility.yul\":22225:22243   */\n      tag_474\n      tag_98\n      jump\t// in\n    tag_474:\n        /* \"#utility.yul\":22199:22245   */\n    tag_473:\n        /* \"#utility.yul\":22138:22251   */\n      pop\n      jump\t// out\n        /* \"#utility.yul\":22257:22379   */\n    tag_196:\n        /* \"#utility.yul\":22330:22354   */\n      tag_476\n        /* \"#utility.yul\":22348:22353   */\n      dup2\n        /* \"#utility.yul\":22330:22354   */\n      tag_264\n      jump\t// in\n    tag_476:\n        /* \"#utility.yul\":22323:22328   */\n      dup2\n        /* \"#utility.yul\":22320:22355   */\n      eq\n        /* \"#utility.yul\":22310:22373   */\n      tag_477\n      jumpi\n        /* \"#utility.yul\":22369:22370   */\n      0x00\n        /* \"#utility.yul\":22366:22367   */\n      dup1\n        /* \"#utility.yul\":22359:22371   */\n      revert\n        /* \"#utility.yul\":22310:22373   */\n    tag_477:\n        /* \"#utility.yul\":22257:22379   */\n      pop\n      jump\t// out\n        /* \"#utility.yul\":22385:22499   */\n    tag_200:\n        /* \"#utility.yul\":22473:22474   */\n      0x04\n        /* \"#utility.yul\":22466:22471   */\n      dup2\n        /* \"#utility.yul\":22463:22475   */\n      lt\n        /* \"#utility.yul\":22453:22493   */\n      tag_479\n      jumpi\n        /* \"#utility.yul\":22489:22490   */\n      0x00\n        /* \"#utility.yul\":22486:22487   */\n      dup1\n        /* \"#utility.yul\":22479:22491   */\n      revert\n        /* \"#utility.yul\":22453:22493   */\n    tag_479:\n        /* \"#utility.yul\":22385:22499   */\n      pop\n      jump\t// out\n        /* \"#utility.yul\":22505:22621   */\n    tag_204:\n        /* \"#utility.yul\":22595:22596   */\n      0x06\n        /* \"#utility.yul\":22588:22593   */\n      dup2\n        /* \"#utility.yul\":22585:22597   */\n      lt\n        /* \"#utility.yul\":22575:22615   */\n      tag_481\n      jumpi\n        /* \"#utility.yul\":22611:22612   */\n      0x00\n        /* \"#utility.yul\":22608:22609   */\n      dup1\n        /* \"#utility.yul\":22601:22613   */\n      revert\n        /* \"#utility.yul\":22575:22615   */\n    tag_481:\n        /* \"#utility.yul\":22505:22621   */\n      pop\n      jump\t// out\n        /* \"#utility.yul\":22627:22735   */\n    tag_208:\n        /* \"#utility.yul\":22709:22710   */\n      0x04\n        /* \"#utility.yul\":22702:22707   */\n      dup2\n        /* \"#utility.yul\":22699:22711   */\n      lt\n        /* \"#utility.yul\":22689:22729   */\n      tag_483\n      jumpi\n        /* \"#utility.yul\":22725:22726   */\n      0x00\n        /* \"#utility.yul\":22722:22723   */\n      dup1\n        /* \"#utility.yul\":22715:22727   */\n      revert\n        /* \"#utility.yul\":22689:22729   */\n    tag_483:\n        /* \"#utility.yul\":22627:22735   */\n      pop\n      jump\t// out\n        /* \"#utility.yul\":22741:22863   */\n    tag_212:\n        /* \"#utility.yul\":22814:22838   */\n      tag_485\n        /* \"#utility.yul\":22832:22837   */\n      dup2\n        /* \"#utility.yul\":22814:22838   */\n      tag_329\n      jump\t// in\n    tag_485:\n        /* \"#utility.yul\":22807:22812   */\n      dup2\n        /* \"#utility.yul\":22804:22839   */\n      eq\n        /* \"#utility.yul\":22794:22857   */\n      tag_486\n      jumpi\n        /* \"#utility.yul\":22853:22854   */\n      0x00\n        /* \"#utility.yul\":22850:22851   */\n      dup1\n        /* \"#utility.yul\":22843:22855   */\n      revert\n        /* \"#utility.yul\":22794:22857   */\n    tag_486:\n        /* \"#utility.yul\":22741:22863   */\n      pop\n      jump\t// out\n        /* \"#utility.yul\":22869:22989   */\n    tag_216:\n        /* \"#utility.yul\":22941:22964   */\n      tag_488\n        /* \"#utility.yul\":22958:22963   */\n      dup2\n        /* \"#utility.yul\":22941:22964   */\n      tag_336\n      jump\t// in\n    tag_488:\n        /* \"#utility.yul\":22934:22939   */\n      dup2\n        /* \"#utility.yul\":22931:22965   */\n      eq\n        /* \"#utility.yul\":22921:22983   */\n      tag_489\n      jumpi\n        /* \"#utility.yul\":22979:22980   */\n      0x00\n        /* \"#utility.yul\":22976:22977   */\n      dup1\n        /* \"#utility.yul\":22969:22981   */\n      revert\n        /* \"#utility.yul\":22921:22983   */\n    tag_489:\n        /* \"#utility.yul\":22869:22989   */\n      pop\n      jump\t// out\n\n    auxdata: 0xa264697066735822122063f230c97c7e80bf5a2c999087045980d342ea06117ec7ca7f0e703fd3f53f4064736f6c63430008070033\n}\n",
				"bytecode": {
					"linkReferences": {},
					"object": "608060405234801561001057600080fd5b506129b8806100206000396000f3fe608060405234801561001057600080fd5b50600436106100ea5760003560e01c80637d0fa2871161008c578063af640d0f11610066578063af640d0f146102d1578063ba479b7e146102ef578063c0942d9714610324578063cbc9280914610340576100ea565b80637d0fa2871461023c5780639a8c91191461026e578063a4e7ae05146102a0576100ea565b806328266697116100c8578063282666971461016d578063356b1f1e1461019f57806339987f94146101d157806364b2c66b14610204576100ea565b8063011c05e1146100ef5780631916e1391461010b5780631a0dda7f1461013d575b600080fd5b61010960048036038101906101049190612042565b610370565b005b61012560048036038101906101209190611e7d565b61090a565b60405161013493929190612380565b60405180910390f35b61015760048036038101906101529190611f8c565b6109d6565b60405161016491906124bd565b60405180910390f35b61018760048036038101906101829190611e7d565b610ff3565b60405161019693929190612380565b60405180910390f35b6101b960048036038101906101b49190611e7d565b6110bf565b6040516101c893929190612380565b60405180910390f35b6101eb60048036038101906101e69190611e7d565b61118b565b6040516101fb94939291906123be565b60405180910390f35b61021e60048036038101906102199190611f4c565b61125d565b604051610233999897969594939291906124d8565b60405180910390f35b61025660048036038101906102519190611e7d565b6113b4565b60405161026593929190612380565b60405180910390f35b61028860048036038101906102839190611e7d565b611480565b60405161029793929190612380565b60405180910390f35b6102ba60048036038101906102b591906120cf565b61154c565b6040516102c8929190612565565b60405180910390f35b6102d9611608565b6040516102e691906124bd565b60405180910390f35b61030960048036038101906103049190611e7d565b61160e565b60405161031b96959493929190612311565b60405180910390f35b61033e60048036038101906103399190611eaa565b6117a2565b005b61035a60048036038101906103559190611e7d565b611dd4565b60405161036791906122f6565b60405180910390f35b600360003373ffffffffffffffffffffffffffffffffffffffff1673ffffffffffffffffffffffffffffffffffffffff16815260200190815260200160002060000160009054906101000a900460ff166103ff576040517f08c379a00000000000000000000000000000000000000000000000000000000081526004016103f69061247d565b60405180910390fd5b600360003373ffffffffffffffffffffffffffffffffffffffff1673ffffffffffffffffffffffffffffffffffffffff16815260200190815260200160002060000160009054906101000a900460ff1661048e576040517f08c379a00000000000000000000000000000000000000000000000000000000081526004016104859061245d565b60405180910390fd5b6000600c60008154809291906104a390612742565b91905055905086600d60003373ffffffffffffffffffffffffffffffffffffffff1673ffffffffffffffffffffffffffffffffffffffff168152602001908152602001600020600083815260200190815260200160002060010160006101000a81548173ffffffffffffffffffffffffffffffffffffffff021916908373ffffffffffffffffffffffffffffffffffffffff16021790555085600d60003373ffffffffffffffffffffffffffffffffffffffff1673ffffffffffffffffffffffffffffffffffffffff16815260200190815260200160002060008381526020019081526020016000206002018190555084600d60003373ffffffffffffffffffffffffffffffffffffffff1673ffffffffffffffffffffffffffffffffffffffff16815260200190815260200160002060008381526020019081526020016000206003018190555083600d60003373ffffffffffffffffffffffffffffffffffffffff1673ffffffffffffffffffffffffffffffffffffffff168152602001908152602001600020600083815260200190815260200160002060040160006101000a81548160ff02191690836003811115610661576106606127ba565b5b021790555082600d60003373ffffffffffffffffffffffffffffffffffffffff1673ffffffffffffffffffffffffffffffffffffffff168152602001908152602001600020600083815260200190815260200160002060040160016101000a81548163ffffffff021916908363ffffffff16021790555081600d60003373ffffffffffffffffffffffffffffffffffffffff1673ffffffffffffffffffffffffffffffffffffffff168152602001908152602001600020600083815260200190815260200160002060040160056101000a81548160ff0219169083600381111561074e5761074d6127ba565b5b02179055506000600d60003373ffffffffffffffffffffffffffffffffffffffff1673ffffffffffffffffffffffffffffffffffffffff168152602001908152602001600020600083815260200190815260200160002060050160010160146101000a81548160ff021916908360028111156107cd576107cc6127ba565b5b021790555042600d60003373ffffffffffffffffffffffffffffffffffffffff1673ffffffffffffffffffffffffffffffffffffffff16815260200190815260200160002060008381526020019081526020016000206005016000018190555033600d60003373ffffffffffffffffffffffffffffffffffffffff1673ffffffffffffffffffffffffffffffffffffffff168152602001908152602001600020600083815260200190815260200160002060050160010160006101000a81548173ffffffffffffffffffffffffffffffffffffffff021916908373ffffffffffffffffffffffffffffffffffffffff1602179055507f3360922f476ca526045a942931f1a0e5fcbb757198f9c8b62f92c872e9a7768887878787876040516108f99594939291906122a3565b60405180910390a150505050505050565b60076020528060005260406000206000915090508060000160009054906101000a900460ff169080600101805461094090612710565b80601f016020809104026020016040519081016040528092919081815260200182805461096c90612710565b80156109b95780601f1061098e576101008083540402835291602001916109b9565b820191906000526020600020905b81548152906001019060200180831161099c57829003601f168201915b5050505050908060020160009054906101000a900460ff16905083565b6000600460003373ffffffffffffffffffffffffffffffffffffffff1673ffffffffffffffffffffffffffffffffffffffff16815260200190815260200160002060000160009054906101000a900460ff1680610a7f5750600660003373ffffffffffffffffffffffffffffffffffffffff1673ffffffffffffffffffffffffffffffffffffffff16815260200190815260200160002060000160009054906101000a900460ff165b80610ad65750600860003373ffffffffffffffffffffffffffffffffffffffff1673ffffffffffffffffffffffffffffffffffffffff16815260200190815260200160002060000160009054906101000a900460ff165b610b15576040517f08c379a0000000000000000000000000000000000000000000000000000000008152600401610b0c9061249d565b60405180910390fd5b600360008a73ffffffffffffffffffffffffffffffffffffffff1673ffffffffffffffffffffffffffffffffffffffff16815260200190815260200160002060000160009054906101000a900460ff16610ba4576040517f08c379a0000000000000000000000000000000000000000000000000000000008152600401610b9b9061245d565b60405180910390fd5b86600d60008b73ffffffffffffffffffffffffffffffffffffffff1673ffffffffffffffffffffffffffffffffffffffff16815260200190815260200160002060008a815260200190815260200160002060010160146101000a81548160ff02191690836005811115610c1a57610c196127ba565b5b021790555085600d60008b73ffffffffffffffffffffffffffffffffffffffff1673ffffffffffffffffffffffffffffffffffffffff16815260200190815260200160002060008a81526020019081526020016000206002018190555084600d60008b73ffffffffffffffffffffffffffffffffffffffff1673ffffffffffffffffffffffffffffffffffffffff16815260200190815260200160002060008a81526020019081526020016000206003018190555083600d60008b73ffffffffffffffffffffffffffffffffffffffff1673ffffffffffffffffffffffffffffffffffffffff16815260200190815260200160002060008a815260200190815260200160002060040160006101000a81548160ff02191690836003811115610d4557610d446127ba565b5b021790555082600d60008b73ffffffffffffffffffffffffffffffffffffffff1673ffffffffffffffffffffffffffffffffffffffff16815260200190815260200160002060008a815260200190815260200160002060040160016101000a81548163ffffffff021916908363ffffffff16021790555081600d60008b73ffffffffffffffffffffffffffffffffffffffff1673ffffffffffffffffffffffffffffffffffffffff16815260200190815260200160002060008a815260200190815260200160002060040160056101000a81548160ff02191690836003811115610e3257610e316127ba565b5b02179055506001600d60008b73ffffffffffffffffffffffffffffffffffffffff1673ffffffffffffffffffffffffffffffffffffffff16815260200190815260200160002060008a815260200190815260200160002060050160010160146101000a81548160ff02191690836002811115610eb157610eb06127ba565b5b021790555042600d60008b73ffffffffffffffffffffffffffffffffffffffff1673ffffffffffffffffffffffffffffffffffffffff16815260200190815260200160002060008a81526020019081526020016000206005016000018190555033600d60008b73ffffffffffffffffffffffffffffffffffffffff1673ffffffffffffffffffffffffffffffffffffffff16815260200190815260200160002060008a815260200190815260200160002060050160010160006101000a81548173ffffffffffffffffffffffffffffffffffffffff021916908373ffffffffffffffffffffffffffffffffffffffff1602179055507e8fdfffa514a537dacb0033300463694b1566a2286bfb76f047f70377b990e78787878787604051610fdc95949392919061240a565b60405180910390a187905098975050505050505050565b60046020528060005260406000206000915090508060000160009054906101000a900460ff169080600101805461102990612710565b80601f016020809104026020016040519081016040528092919081815260200182805461105590612710565b80156110a25780601f10611077576101008083540402835291602001916110a2565b820191906000526020600020905b81548152906001019060200180831161108557829003601f168201915b5050505050908060020160009054906101000a900460ff16905083565b600a6020528060005260406000206000915090508060000160009054906101000a900460ff16908060010180546110f590612710565b80601f016020809104026020016040519081016040528092919081815260200182805461112190612710565b801561116e5780601f106111435761010080835404028352916020019161116e565b820191906000526020600020905b81548152906001019060200180831161115157829003601f168201915b5050505050908060020160009054906101000a900460ff16905083565b60066020528060005260406000206000915090508060000160009054906101000a900460ff16908060000160019054906101000a900460ff16908060010154908060020180546111da90612710565b80601f016020809104026020016040519081016040528092919081815260200182805461120690612710565b80156112535780601f1061122857610100808354040283529160200191611253565b820191906000526020600020905b81548152906001019060200180831161123657829003601f168201915b5050505050905084565b600d602052816000526040600020602052806000526040600020600091509150508060000154908060010160009054906101000a900473ffffffffffffffffffffffffffffffffffffffff16908060010160149054906101000a900460ff16908060020154908060030154908060040160009054906101000a900460ff16908060040160019054906101000a900463ffffffff16908060040160059054906101000a900460ff169080600501604051806060016040529081600082015481526020016001820160009054906101000a900473ffffffffffffffffffffffffffffffffffffffff1673ffffffffffffffffffffffffffffffffffffffff1673ffffffffffffffffffffffffffffffffffffffff1681526020016001820160149054906101000a900460ff166002811115611399576113986127ba565b5b60028111156113ab576113aa6127ba565b5b81525050905089565b60086020528060005260406000206000915090508060000160009054906101000a900460ff16908060010180546113ea90612710565b80601f016020809104026020016040519081016040528092919081815260200182805461141690612710565b80156114635780601f1061143857610100808354040283529160200191611463565b820191906000526020600020905b81548152906001019060200180831161144657829003601f168201915b5050505050908060020160009054906101000a900460ff16905083565b60096020528060005260406000206000915090508060000160009054906101000a900460ff16908060010180546114b690612710565b80601f01602080910402602001604051908101604052809291908181526020018280546114e290612710565b801561152f5780601f106115045761010080835404028352916020019161152f565b820191906000526020600020905b81548152906001019060200180831161151257829003601f168201915b5050505050908060020160009054906101000a900460ff16905083565b600b6020528060005260406000206000915090508060000160009054906101000a900463ffffffff169080600101805461158590612710565b80601f01602080910402602001604051908101604052809291908181526020018280546115b190612710565b80156115fe5780601f106115d3576101008083540402835291602001916115fe565b820191906000526020600020905b8154815290600101906020018083116115e157829003601f168201915b5050505050905082565b600c5481565b60056020528060005260406000206000915090508060000160009054906101000a900460ff16908060000160019054906101000a900473ffffffffffffffffffffffffffffffffffffffff16908060000160159054906101000a900461ffff16908060000160179054906101000a900460ff169080600101805461169190612710565b80601f01602080910402602001604051908101604052809291908181526020018280546116bd90612710565b801561170a5780601f106116df5761010080835404028352916020019161170a565b820191906000526020600020905b8154815290600101906020018083116116ed57829003601f168201915b50505050509080600201805461171f90612710565b80601f016020809104026020016040519081016040528092919081815260200182805461174b90612710565b80156117985780601f1061176d57610100808354040283529160200191611798565b820191906000526020600020905b81548152906001019060200180831161177b57829003601f168201915b5050505050905086565b600460003373ffffffffffffffffffffffffffffffffffffffff1673ffffffffffffffffffffffffffffffffffffffff16815260200190815260200160002060000160009054906101000a900460ff16806118495750600660003373ffffffffffffffffffffffffffffffffffffffff1673ffffffffffffffffffffffffffffffffffffffff16815260200190815260200160002060000160009054906101000a900460ff165b806118a05750600860003373ffffffffffffffffffffffffffffffffffffffff1673ffffffffffffffffffffffffffffffffffffffff16815260200190815260200160002060000160009054906101000a900460ff165b6118df576040517f08c379a00000000000000000000000000000000000000000000000000000000081526004016118d69061249d565b60405180910390fd5b600360008873ffffffffffffffffffffffffffffffffffffffff1673ffffffffffffffffffffffffffffffffffffffff16815260200190815260200160002060000160009054906101000a900460ff1661196e576040517f08c379a00000000000000000000000000000000000000000000000000000000081526004016119659061245d565b60405180910390fd5b6000600c600081548092919061198390612742565b91905055905086600d60008a73ffffffffffffffffffffffffffffffffffffffff1673ffffffffffffffffffffffffffffffffffffffff168152602001908152602001600020600083815260200190815260200160002060010160146101000a81548160ff021916908360058111156119ff576119fe6127ba565b5b021790555085600d60008a73ffffffffffffffffffffffffffffffffffffffff1673ffffffffffffffffffffffffffffffffffffffff16815260200190815260200160002060008381526020019081526020016000206002018190555084600d60008a73ffffffffffffffffffffffffffffffffffffffff1673ffffffffffffffffffffffffffffffffffffffff16815260200190815260200160002060008381526020019081526020016000206003018190555083600d60008a73ffffffffffffffffffffffffffffffffffffffff1673ffffffffffffffffffffffffffffffffffffffff168152602001908152602001600020600083815260200190815260200160002060040160006101000a81548160ff02191690836003811115611b2a57611b296127ba565b5b021790555082600d60008a73ffffffffffffffffffffffffffffffffffffffff1673ffffffffffffffffffffffffffffffffffffffff168152602001908152602001600020600083815260200190815260200160002060040160016101000a81548163ffffffff021916908363ffffffff16021790555081600d60008a73ffffffffffffffffffffffffffffffffffffffff1673ffffffffffffffffffffffffffffffffffffffff168152602001908152602001600020600083815260200190815260200160002060040160056101000a81548160ff02191690836003811115611c1757611c166127ba565b5b02179055506001600d60008a73ffffffffffffffffffffffffffffffffffffffff1673ffffffffffffffffffffffffffffffffffffffff168152602001908152602001600020600083815260200190815260200160002060050160010160146101000a81548160ff02191690836002811115611c9657611c956127ba565b5b021790555042600d60008a73ffffffffffffffffffffffffffffffffffffffff1673ffffffffffffffffffffffffffffffffffffffff16815260200190815260200160002060008381526020019081526020016000206005016000018190555033600d60008a73ffffffffffffffffffffffffffffffffffffffff1673ffffffffffffffffffffffffffffffffffffffff168152602001908152602001600020600083815260200190815260200160002060050160010160006101000a81548173ffffffffffffffffffffffffffffffffffffffff021916908373ffffffffffffffffffffffffffffffffffffffff1602179055507f1bc8089d220c6c0b90fb65e37237ecb0e793702849c9e0b59b1b3a02ff1012068787878787604051611dc295949392919061240a565b60405180910390a15050505050505050565b60036020528060005260406000206000915090508060000160009054906101000a900460ff16905081565b600081359050611e0e8161290d565b92915050565b600081359050611e2381612924565b92915050565b600081359050611e3881612934565b92915050565b600081359050611e4d81612944565b92915050565b600081359050611e6281612954565b92915050565b600081359050611e778161296b565b92915050565b600060208284031215611e9357611e92612818565b5b6000611ea184828501611dff565b91505092915050565b600080600080600080600060e0888a031215611ec957611ec8612818565b5b6000611ed78a828b01611dff565b9750506020611ee88a828b01611e29565b9650506040611ef98a828b01611e53565b9550506060611f0a8a828b01611e53565b9450506080611f1b8a828b01611e14565b93505060a0611f2c8a828b01611e68565b92505060c0611f3d8a828b01611e3e565b91505092959891949750929550565b60008060408385031215611f6357611f62612818565b5b6000611f7185828601611dff565b9250506020611f8285828601611e53565b9150509250929050565b600080600080600080600080610100898b031215611fad57611fac612818565b5b6000611fbb8b828c01611dff565b9850506020611fcc8b828c01611e53565b9750506040611fdd8b828c01611e29565b9650506060611fee8b828c01611e53565b9550506080611fff8b828c01611e53565b94505060a06120108b828c01611e14565b93505060c06120218b828c01611e68565b92505060e06120328b828c01611e3e565b9150509295985092959890939650565b60008060008060008060c0878903121561205f5761205e612818565b5b600061206d89828a01611dff565b965050602061207e89828a01611e53565b955050604061208f89828a01611e53565b94505060606120a089828a01611e14565b93505060806120b189828a01611e68565b92505060a06120c289828a01611e3e565b9150509295509295509295565b6000602082840312156120e5576120e4612818565b5b60006120f384828501611e68565b91505092915050565b612105816125b1565b82525050565b612114816125b1565b82525050565b612123816125c3565b82525050565b61213281612683565b82525050565b61214181612695565b82525050565b612150816126a7565b82525050565b61215f816126b9565b82525050565b61216e816126cb565b82525050565b600061217f82612595565b61218981856125a0565b93506121998185602086016126dd565b6121a28161281d565b840191505092915050565b60006121ba6011836125a0565b91506121c58261282e565b602082019050919050565b60006121dd6020836125a0565b91506121e882612857565b602082019050919050565b60006122006020836125a0565b915061220b82612880565b602082019050919050565b60608201600082015161222c6000850182612267565b50602082015161223f60208501826120fc565b5060408201516122526040850182612138565b50505050565b6122618161262e565b82525050565b6122708161265c565b82525050565b61227f8161265c565b82525050565b61228e81612666565b82525050565b61229d81612676565b82525050565b600060a0820190506122b8600083018861210b565b6122c56020830187612276565b6122d26040830186612276565b6122df6060830185612129565b6122ec6080830184612285565b9695505050505050565b600060208201905061230b600083018461211a565b92915050565b600060c082019050612326600083018961211a565b612333602083018861210b565b6123406040830187612258565b61234d6060830186612165565b818103608083015261235f8185612174565b905081810360a08301526123738184612174565b9050979650505050505050565b6000606082019050612395600083018661211a565b81810360208301526123a78185612174565b90506123b66040830184612294565b949350505050565b60006080820190506123d3600083018761211a565b6123e06020830186612294565b6123ed6040830185612276565b81810360608301526123ff8184612174565b905095945050505050565b600060a08201905061241f6000830188612147565b61242c6020830187612276565b6124396040830186612276565b6124466060830185612129565b6124536080830184612285565b9695505050505050565b60006020820190508181036000830152612476816121ad565b9050919050565b60006020820190508181036000830152612496816121d0565b9050919050565b600060208201905081810360008301526124b6816121f3565b9050919050565b60006020820190506124d26000830184612276565b92915050565b6000610160820190506124ee600083018c612276565b6124fb602083018b61210b565b612508604083018a612147565b6125156060830189612276565b6125226080830188612276565b61252f60a0830187612129565b61253c60c0830186612285565b61254960e0830185612156565b612557610100830184612216565b9a9950505050505050505050565b600060408201905061257a6000830185612285565b818103602083015261258c8184612174565b90509392505050565b600081519050919050565b600082825260208201905092915050565b60006125bc8261263c565b9050919050565b60008115159050919050565b60008190506125dd826128a9565b919050565b60008190506125f0826128bd565b919050565b6000819050612603826128d1565b919050565b6000819050612616826128e5565b919050565b6000819050612629826128f9565b919050565b600061ffff82169050919050565b600073ffffffffffffffffffffffffffffffffffffffff82169050919050565b6000819050919050565b600063ffffffff82169050919050565b600060ff82169050919050565b600061268e826125cf565b9050919050565b60006126a0826125e2565b9050919050565b60006126b2826125f5565b9050919050565b60006126c482612608565b9050919050565b60006126d68261261b565b9050919050565b60005b838110156126fb5780820151818401526020810190506126e0565b8381111561270a576000848401525b50505050565b6000600282049050600182168061272857607f821691505b6020821081141561273c5761273b6127e9565b5b50919050565b600061274d8261265c565b91507fffffffffffffffffffffffffffffffffffffffffffffffffffffffffffffffff8214156127805761277f61278b565b5b600182019050919050565b7f4e487b7100000000000000000000000000000000000000000000000000000000600052601160045260246000fd5b7f4e487b7100000000000000000000000000000000000000000000000000000000600052602160045260246000fd5b7f4e487b7100000000000000000000000000000000000000000000000000000000600052602260045260246000fd5b600080fd5b6000601f19601f8301169050919050565b7f4b697369206d657663757420646567696c000000000000000000000000000000600082015250565b7f42752069736c656d6920736164656365204b697369207961706162696c69722e600082015250565b7f42752069736c656d6920736164656365204b757273207961706162696c69722e600082015250565b600481106128ba576128b96127ba565b5b50565b600381106128ce576128cd6127ba565b5b50565b600681106128e2576128e16127ba565b5b50565b600481106128f6576128f56127ba565b5b50565b6004811061290a576129096127ba565b5b50565b612916816125b1565b811461292157600080fd5b50565b6004811061293157600080fd5b50565b6006811061294157600080fd5b50565b6004811061295157600080fd5b50565b61295d8161265c565b811461296857600080fd5b50565b61297481612666565b811461297f57600080fd5b5056fea264697066735822122063f230c97c7e80bf5a2c999087045980d342ea06117ec7ca7f0e703fd3f53f4064736f6c63430008070033",
					"opcodes": "PUSH1 0x80 PUSH1 0x40 MSTORE CALLVALUE DUP1 ISZERO PUSH2 0x10 JUMPI PUSH1 0x0 DUP1 REVERT JUMPDEST POP PUSH2 0x29B8 DUP1 PUSH2 0x20 PUSH1 0x0 CODECOPY PUSH1 0x0 RETURN INVALID PUSH1 0x80 PUSH1 0x40 MSTORE CALLVALUE DUP1 ISZERO PUSH2 0x10 JUMPI PUSH1 0x0 DUP1 REVERT JUMPDEST POP PUSH1 0x4 CALLDATASIZE LT PUSH2 0xEA JUMPI PUSH1 0x0 CALLDATALOAD PUSH1 0xE0 SHR DUP1 PUSH4 0x7D0FA287 GT PUSH2 0x8C JUMPI DUP1 PUSH4 0xAF640D0F GT PUSH2 0x66 JUMPI DUP1 PUSH4 0xAF640D0F EQ PUSH2 0x2D1 JUMPI DUP1 PUSH4 0xBA479B7E EQ PUSH2 0x2EF JUMPI DUP1 PUSH4 0xC0942D97 EQ PUSH2 0x324 JUMPI DUP1 PUSH4 0xCBC92809 EQ PUSH2 0x340 JUMPI PUSH2 0xEA JUMP JUMPDEST DUP1 PUSH4 0x7D0FA287 EQ PUSH2 0x23C JUMPI DUP1 PUSH4 0x9A8C9119 EQ PUSH2 0x26E JUMPI DUP1 PUSH4 0xA4E7AE05 EQ PUSH2 0x2A0 JUMPI PUSH2 0xEA JUMP JUMPDEST DUP1 PUSH4 0x28266697 GT PUSH2 0xC8 JUMPI DUP1 PUSH4 0x28266697 EQ PUSH2 0x16D JUMPI DUP1 PUSH4 0x356B1F1E EQ PUSH2 0x19F JUMPI DUP1 PUSH4 0x39987F94 EQ PUSH2 0x1D1 JUMPI DUP1 PUSH4 0x64B2C66B EQ PUSH2 0x204 JUMPI PUSH2 0xEA JUMP JUMPDEST DUP1 PUSH4 0x11C05E1 EQ PUSH2 0xEF JUMPI DUP1 PUSH4 0x1916E139 EQ PUSH2 0x10B JUMPI DUP1 PUSH4 0x1A0DDA7F EQ PUSH2 0x13D JUMPI JUMPDEST PUSH1 0x0 DUP1 REVERT JUMPDEST PUSH2 0x109 PUSH1 0x4 DUP1 CALLDATASIZE SUB DUP2 ADD SWAP1 PUSH2 0x104 SWAP2 SWAP1 PUSH2 0x2042 JUMP JUMPDEST PUSH2 0x370 JUMP JUMPDEST STOP JUMPDEST PUSH2 0x125 PUSH1 0x4 DUP1 CALLDATASIZE SUB DUP2 ADD SWAP1 PUSH2 0x120 SWAP2 SWAP1 PUSH2 0x1E7D JUMP JUMPDEST PUSH2 0x90A JUMP JUMPDEST PUSH1 0x40 MLOAD PUSH2 0x134 SWAP4 SWAP3 SWAP2 SWAP1 PUSH2 0x2380 JUMP JUMPDEST PUSH1 0x40 MLOAD DUP1 SWAP2 SUB SWAP1 RETURN JUMPDEST PUSH2 0x157 PUSH1 0x4 DUP1 CALLDATASIZE SUB DUP2 ADD SWAP1 PUSH2 0x152 SWAP2 SWAP1 PUSH2 0x1F8C JUMP JUMPDEST PUSH2 0x9D6 JUMP JUMPDEST PUSH1 0x40 MLOAD PUSH2 0x164 SWAP2 SWAP1 PUSH2 0x24BD JUMP JUMPDEST PUSH1 0x40 MLOAD DUP1 SWAP2 SUB SWAP1 RETURN JUMPDEST PUSH2 0x187 PUSH1 0x4 DUP1 CALLDATASIZE SUB DUP2 ADD SWAP1 PUSH2 0x182 SWAP2 SWAP1 PUSH2 0x1E7D JUMP JUMPDEST PUSH2 0xFF3 JUMP JUMPDEST PUSH1 0x40 MLOAD PUSH2 0x196 SWAP4 SWAP3 SWAP2 SWAP1 PUSH2 0x2380 JUMP JUMPDEST PUSH1 0x40 MLOAD DUP1 SWAP2 SUB SWAP1 RETURN JUMPDEST PUSH2 0x1B9 PUSH1 0x4 DUP1 CALLDATASIZE SUB DUP2 ADD SWAP1 PUSH2 0x1B4 SWAP2 SWAP1 PUSH2 0x1E7D JUMP JUMPDEST PUSH2 0x10BF JUMP JUMPDEST PUSH1 0x40 MLOAD PUSH2 0x1C8 SWAP4 SWAP3 SWAP2 SWAP1 PUSH2 0x2380 JUMP JUMPDEST PUSH1 0x40 MLOAD DUP1 SWAP2 SUB SWAP1 RETURN JUMPDEST PUSH2 0x1EB PUSH1 0x4 DUP1 CALLDATASIZE SUB DUP2 ADD SWAP1 PUSH2 0x1E6 SWAP2 SWAP1 PUSH2 0x1E7D JUMP JUMPDEST PUSH2 0x118B JUMP JUMPDEST PUSH1 0x40 MLOAD PUSH2 0x1FB SWAP5 SWAP4 SWAP3 SWAP2 SWAP1 PUSH2 0x23BE JUMP JUMPDEST PUSH1 0x40 MLOAD DUP1 SWAP2 SUB SWAP1 RETURN JUMPDEST PUSH2 0x21E PUSH1 0x4 DUP1 CALLDATASIZE SUB DUP2 ADD SWAP1 PUSH2 0x219 SWAP2 SWAP1 PUSH2 0x1F4C JUMP JUMPDEST PUSH2 0x125D JUMP JUMPDEST PUSH1 0x40 MLOAD PUSH2 0x233 SWAP10 SWAP9 SWAP8 SWAP7 SWAP6 SWAP5 SWAP4 SWAP3 SWAP2 SWAP1 PUSH2 0x24D8 JUMP JUMPDEST PUSH1 0x40 MLOAD DUP1 SWAP2 SUB SWAP1 RETURN JUMPDEST PUSH2 0x256 PUSH1 0x4 DUP1 CALLDATASIZE SUB DUP2 ADD SWAP1 PUSH2 0x251 SWAP2 SWAP1 PUSH2 0x1E7D JUMP JUMPDEST PUSH2 0x13B4 JUMP JUMPDEST PUSH1 0x40 MLOAD PUSH2 0x265 SWAP4 SWAP3 SWAP2 SWAP1 PUSH2 0x2380 JUMP JUMPDEST PUSH1 0x40 MLOAD DUP1 SWAP2 SUB SWAP1 RETURN JUMPDEST PUSH2 0x288 PUSH1 0x4 DUP1 CALLDATASIZE SUB DUP2 ADD SWAP1 PUSH2 0x283 SWAP2 SWAP1 PUSH2 0x1E7D JUMP JUMPDEST PUSH2 0x1480 JUMP JUMPDEST PUSH1 0x40 MLOAD PUSH2 0x297 SWAP4 SWAP3 SWAP2 SWAP1 PUSH2 0x2380 JUMP JUMPDEST PUSH1 0x40 MLOAD DUP1 SWAP2 SUB SWAP1 RETURN JUMPDEST PUSH2 0x2BA PUSH1 0x4 DUP1 CALLDATASIZE SUB DUP2 ADD SWAP1 PUSH2 0x2B5 SWAP2 SWAP1 PUSH2 0x20CF JUMP JUMPDEST PUSH2 0x154C JUMP JUMPDEST PUSH1 0x40 MLOAD PUSH2 0x2C8 SWAP3 SWAP2 SWAP1 PUSH2 0x2565 JUMP JUMPDEST PUSH1 0x40 MLOAD DUP1 SWAP2 SUB SWAP1 RETURN JUMPDEST PUSH2 0x2D9 PUSH2 0x1608 JUMP JUMPDEST PUSH1 0x40 MLOAD PUSH2 0x2E6 SWAP2 SWAP1 PUSH2 0x24BD JUMP JUMPDEST PUSH1 0x40 MLOAD DUP1 SWAP2 SUB SWAP1 RETURN JUMPDEST PUSH2 0x309 PUSH1 0x4 DUP1 CALLDATASIZE SUB DUP2 ADD SWAP1 PUSH2 0x304 SWAP2 SWAP1 PUSH2 0x1E7D JUMP JUMPDEST PUSH2 0x160E JUMP JUMPDEST PUSH1 0x40 MLOAD PUSH2 0x31B SWAP7 SWAP6 SWAP5 SWAP4 SWAP3 SWAP2 SWAP1 PUSH2 0x2311 JUMP JUMPDEST PUSH1 0x40 MLOAD DUP1 SWAP2 SUB SWAP1 RETURN JUMPDEST PUSH2 0x33E PUSH1 0x4 DUP1 CALLDATASIZE SUB DUP2 ADD SWAP1 PUSH2 0x339 SWAP2 SWAP1 PUSH2 0x1EAA JUMP JUMPDEST PUSH2 0x17A2 JUMP JUMPDEST STOP JUMPDEST PUSH2 0x35A PUSH1 0x4 DUP1 CALLDATASIZE SUB DUP2 ADD SWAP1 PUSH2 0x355 SWAP2 SWAP1 PUSH2 0x1E7D JUMP JUMPDEST PUSH2 0x1DD4 JUMP JUMPDEST PUSH1 0x40 MLOAD PUSH2 0x367 SWAP2 SWAP1 PUSH2 0x22F6 JUMP JUMPDEST PUSH1 0x40 MLOAD DUP1 SWAP2 SUB SWAP1 RETURN JUMPDEST PUSH1 0x3 PUSH1 0x0 CALLER PUSH20 0xFFFFFFFFFFFFFFFFFFFFFFFFFFFFFFFFFFFFFFFF AND PUSH20 0xFFFFFFFFFFFFFFFFFFFFFFFFFFFFFFFFFFFFFFFF AND DUP2 MSTORE PUSH1 0x20 ADD SWAP1 DUP2 MSTORE PUSH1 0x20 ADD PUSH1 0x0 KECCAK256 PUSH1 0x0 ADD PUSH1 0x0 SWAP1 SLOAD SWAP1 PUSH2 0x100 EXP SWAP1 DIV PUSH1 0xFF AND PUSH2 0x3FF JUMPI PUSH1 0x40 MLOAD PUSH32 0x8C379A000000000000000000000000000000000000000000000000000000000 DUP2 MSTORE PUSH1 0x4 ADD PUSH2 0x3F6 SWAP1 PUSH2 0x247D JUMP JUMPDEST PUSH1 0x40 MLOAD DUP1 SWAP2 SUB SWAP1 REVERT JUMPDEST PUSH1 0x3 PUSH1 0x0 CALLER PUSH20 0xFFFFFFFFFFFFFFFFFFFFFFFFFFFFFFFFFFFFFFFF AND PUSH20 0xFFFFFFFFFFFFFFFFFFFFFFFFFFFFFFFFFFFFFFFF AND DUP2 MSTORE PUSH1 0x20 ADD SWAP1 DUP2 MSTORE PUSH1 0x20 ADD PUSH1 0x0 KECCAK256 PUSH1 0x0 ADD PUSH1 0x0 SWAP1 SLOAD SWAP1 PUSH2 0x100 EXP SWAP1 DIV PUSH1 0xFF AND PUSH2 0x48E JUMPI PUSH1 0x40 MLOAD PUSH32 0x8C379A000000000000000000000000000000000000000000000000000000000 DUP2 MSTORE PUSH1 0x4 ADD PUSH2 0x485 SWAP1 PUSH2 0x245D JUMP JUMPDEST PUSH1 0x40 MLOAD DUP1 SWAP2 SUB SWAP1 REVERT JUMPDEST PUSH1 0x0 PUSH1 0xC PUSH1 0x0 DUP2 SLOAD DUP1 SWAP3 SWAP2 SWAP1 PUSH2 0x4A3 SWAP1 PUSH2 0x2742 JUMP JUMPDEST SWAP2 SWAP1 POP SSTORE SWAP1 POP DUP7 PUSH1 0xD PUSH1 0x0 CALLER PUSH20 0xFFFFFFFFFFFFFFFFFFFFFFFFFFFFFFFFFFFFFFFF AND PUSH20 0xFFFFFFFFFFFFFFFFFFFFFFFFFFFFFFFFFFFFFFFF AND DUP2 MSTORE PUSH1 0x20 ADD SWAP1 DUP2 MSTORE PUSH1 0x20 ADD PUSH1 0x0 KECCAK256 PUSH1 0x0 DUP4 DUP2 MSTORE PUSH1 0x20 ADD SWAP1 DUP2 MSTORE PUSH1 0x20 ADD PUSH1 0x0 KECCAK256 PUSH1 0x1 ADD PUSH1 0x0 PUSH2 0x100 EXP DUP2 SLOAD DUP2 PUSH20 0xFFFFFFFFFFFFFFFFFFFFFFFFFFFFFFFFFFFFFFFF MUL NOT AND SWAP1 DUP4 PUSH20 0xFFFFFFFFFFFFFFFFFFFFFFFFFFFFFFFFFFFFFFFF AND MUL OR SWAP1 SSTORE POP DUP6 PUSH1 0xD PUSH1 0x0 CALLER PUSH20 0xFFFFFFFFFFFFFFFFFFFFFFFFFFFFFFFFFFFFFFFF AND PUSH20 0xFFFFFFFFFFFFFFFFFFFFFFFFFFFFFFFFFFFFFFFF AND DUP2 MSTORE PUSH1 0x20 ADD SWAP1 DUP2 MSTORE PUSH1 0x20 ADD PUSH1 0x0 KECCAK256 PUSH1 0x0 DUP4 DUP2 MSTORE PUSH1 0x20 ADD SWAP1 DUP2 MSTORE PUSH1 0x20 ADD PUSH1 0x0 KECCAK256 PUSH1 0x2 ADD DUP2 SWAP1 SSTORE POP DUP5 PUSH1 0xD PUSH1 0x0 CALLER PUSH20 0xFFFFFFFFFFFFFFFFFFFFFFFFFFFFFFFFFFFFFFFF AND PUSH20 0xFFFFFFFFFFFFFFFFFFFFFFFFFFFFFFFFFFFFFFFF AND DUP2 MSTORE PUSH1 0x20 ADD SWAP1 DUP2 MSTORE PUSH1 0x20 ADD PUSH1 0x0 KECCAK256 PUSH1 0x0 DUP4 DUP2 MSTORE PUSH1 0x20 ADD SWAP1 DUP2 MSTORE PUSH1 0x20 ADD PUSH1 0x0 KECCAK256 PUSH1 0x3 ADD DUP2 SWAP1 SSTORE POP DUP4 PUSH1 0xD PUSH1 0x0 CALLER PUSH20 0xFFFFFFFFFFFFFFFFFFFFFFFFFFFFFFFFFFFFFFFF AND PUSH20 0xFFFFFFFFFFFFFFFFFFFFFFFFFFFFFFFFFFFFFFFF AND DUP2 MSTORE PUSH1 0x20 ADD SWAP1 DUP2 MSTORE PUSH1 0x20 ADD PUSH1 0x0 KECCAK256 PUSH1 0x0 DUP4 DUP2 MSTORE PUSH1 0x20 ADD SWAP1 DUP2 MSTORE PUSH1 0x20 ADD PUSH1 0x0 KECCAK256 PUSH1 0x4 ADD PUSH1 0x0 PUSH2 0x100 EXP DUP2 SLOAD DUP2 PUSH1 0xFF MUL NOT AND SWAP1 DUP4 PUSH1 0x3 DUP2 GT ISZERO PUSH2 0x661 JUMPI PUSH2 0x660 PUSH2 0x27BA JUMP JUMPDEST JUMPDEST MUL OR SWAP1 SSTORE POP DUP3 PUSH1 0xD PUSH1 0x0 CALLER PUSH20 0xFFFFFFFFFFFFFFFFFFFFFFFFFFFFFFFFFFFFFFFF AND PUSH20 0xFFFFFFFFFFFFFFFFFFFFFFFFFFFFFFFFFFFFFFFF AND DUP2 MSTORE PUSH1 0x20 ADD SWAP1 DUP2 MSTORE PUSH1 0x20 ADD PUSH1 0x0 KECCAK256 PUSH1 0x0 DUP4 DUP2 MSTORE PUSH1 0x20 ADD SWAP1 DUP2 MSTORE PUSH1 0x20 ADD PUSH1 0x0 KECCAK256 PUSH1 0x4 ADD PUSH1 0x1 PUSH2 0x100 EXP DUP2 SLOAD DUP2 PUSH4 0xFFFFFFFF MUL NOT AND SWAP1 DUP4 PUSH4 0xFFFFFFFF AND MUL OR SWAP1 SSTORE POP DUP2 PUSH1 0xD PUSH1 0x0 CALLER PUSH20 0xFFFFFFFFFFFFFFFFFFFFFFFFFFFFFFFFFFFFFFFF AND PUSH20 0xFFFFFFFFFFFFFFFFFFFFFFFFFFFFFFFFFFFFFFFF AND DUP2 MSTORE PUSH1 0x20 ADD SWAP1 DUP2 MSTORE PUSH1 0x20 ADD PUSH1 0x0 KECCAK256 PUSH1 0x0 DUP4 DUP2 MSTORE PUSH1 0x20 ADD SWAP1 DUP2 MSTORE PUSH1 0x20 ADD PUSH1 0x0 KECCAK256 PUSH1 0x4 ADD PUSH1 0x5 PUSH2 0x100 EXP DUP2 SLOAD DUP2 PUSH1 0xFF MUL NOT AND SWAP1 DUP4 PUSH1 0x3 DUP2 GT ISZERO PUSH2 0x74E JUMPI PUSH2 0x74D PUSH2 0x27BA JUMP JUMPDEST JUMPDEST MUL OR SWAP1 SSTORE POP PUSH1 0x0 PUSH1 0xD PUSH1 0x0 CALLER PUSH20 0xFFFFFFFFFFFFFFFFFFFFFFFFFFFFFFFFFFFFFFFF AND PUSH20 0xFFFFFFFFFFFFFFFFFFFFFFFFFFFFFFFFFFFFFFFF AND DUP2 MSTORE PUSH1 0x20 ADD SWAP1 DUP2 MSTORE PUSH1 0x20 ADD PUSH1 0x0 KECCAK256 PUSH1 0x0 DUP4 DUP2 MSTORE PUSH1 0x20 ADD SWAP1 DUP2 MSTORE PUSH1 0x20 ADD PUSH1 0x0 KECCAK256 PUSH1 0x5 ADD PUSH1 0x1 ADD PUSH1 0x14 PUSH2 0x100 EXP DUP2 SLOAD DUP2 PUSH1 0xFF MUL NOT AND SWAP1 DUP4 PUSH1 0x2 DUP2 GT ISZERO PUSH2 0x7CD JUMPI PUSH2 0x7CC PUSH2 0x27BA JUMP JUMPDEST JUMPDEST MUL OR SWAP1 SSTORE POP TIMESTAMP PUSH1 0xD PUSH1 0x0 CALLER PUSH20 0xFFFFFFFFFFFFFFFFFFFFFFFFFFFFFFFFFFFFFFFF AND PUSH20 0xFFFFFFFFFFFFFFFFFFFFFFFFFFFFFFFFFFFFFFFF AND DUP2 MSTORE PUSH1 0x20 ADD SWAP1 DUP2 MSTORE PUSH1 0x20 ADD PUSH1 0x0 KECCAK256 PUSH1 0x0 DUP4 DUP2 MSTORE PUSH1 0x20 ADD SWAP1 DUP2 MSTORE PUSH1 0x20 ADD PUSH1 0x0 KECCAK256 PUSH1 0x5 ADD PUSH1 0x0 ADD DUP2 SWAP1 SSTORE POP CALLER PUSH1 0xD PUSH1 0x0 CALLER PUSH20 0xFFFFFFFFFFFFFFFFFFFFFFFFFFFFFFFFFFFFFFFF AND PUSH20 0xFFFFFFFFFFFFFFFFFFFFFFFFFFFFFFFFFFFFFFFF AND DUP2 MSTORE PUSH1 0x20 ADD SWAP1 DUP2 MSTORE PUSH1 0x20 ADD PUSH1 0x0 KECCAK256 PUSH1 0x0 DUP4 DUP2 MSTORE PUSH1 0x20 ADD SWAP1 DUP2 MSTORE PUSH1 0x20 ADD PUSH1 0x0 KECCAK256 PUSH1 0x5 ADD PUSH1 0x1 ADD PUSH1 0x0 PUSH2 0x100 EXP DUP2 SLOAD DUP2 PUSH20 0xFFFFFFFFFFFFFFFFFFFFFFFFFFFFFFFFFFFFFFFF MUL NOT AND SWAP1 DUP4 PUSH20 0xFFFFFFFFFFFFFFFFFFFFFFFFFFFFFFFFFFFFFFFF AND MUL OR SWAP1 SSTORE POP PUSH32 0x3360922F476CA526045A942931F1A0E5FCBB757198F9C8B62F92C872E9A77688 DUP8 DUP8 DUP8 DUP8 DUP8 PUSH1 0x40 MLOAD PUSH2 0x8F9 SWAP6 SWAP5 SWAP4 SWAP3 SWAP2 SWAP1 PUSH2 0x22A3 JUMP JUMPDEST PUSH1 0x40 MLOAD DUP1 SWAP2 SUB SWAP1 LOG1 POP POP POP POP POP POP POP JUMP JUMPDEST PUSH1 0x7 PUSH1 0x20 MSTORE DUP1 PUSH1 0x0 MSTORE PUSH1 0x40 PUSH1 0x0 KECCAK256 PUSH1 0x0 SWAP2 POP SWAP1 POP DUP1 PUSH1 0x0 ADD PUSH1 0x0 SWAP1 SLOAD SWAP1 PUSH2 0x100 EXP SWAP1 DIV PUSH1 0xFF AND SWAP1 DUP1 PUSH1 0x1 ADD DUP1 SLOAD PUSH2 0x940 SWAP1 PUSH2 0x2710 JUMP JUMPDEST DUP1 PUSH1 0x1F ADD PUSH1 0x20 DUP1 SWAP2 DIV MUL PUSH1 0x20 ADD PUSH1 0x40 MLOAD SWAP1 DUP2 ADD PUSH1 0x40 MSTORE DUP1 SWAP3 SWAP2 SWAP1 DUP2 DUP2 MSTORE PUSH1 0x20 ADD DUP3 DUP1 SLOAD PUSH2 0x96C SWAP1 PUSH2 0x2710 JUMP JUMPDEST DUP1 ISZERO PUSH2 0x9B9 JUMPI DUP1 PUSH1 0x1F LT PUSH2 0x98E JUMPI PUSH2 0x100 DUP1 DUP4 SLOAD DIV MUL DUP4 MSTORE SWAP2 PUSH1 0x20 ADD SWAP2 PUSH2 0x9B9 JUMP JUMPDEST DUP3 ADD SWAP2 SWAP1 PUSH1 0x0 MSTORE PUSH1 0x20 PUSH1 0x0 KECCAK256 SWAP1 JUMPDEST DUP2 SLOAD DUP2 MSTORE SWAP1 PUSH1 0x1 ADD SWAP1 PUSH1 0x20 ADD DUP1 DUP4 GT PUSH2 0x99C JUMPI DUP3 SWAP1 SUB PUSH1 0x1F AND DUP3 ADD SWAP2 JUMPDEST POP POP POP POP POP SWAP1 DUP1 PUSH1 0x2 ADD PUSH1 0x0 SWAP1 SLOAD SWAP1 PUSH2 0x100 EXP SWAP1 DIV PUSH1 0xFF AND SWAP1 POP DUP4 JUMP JUMPDEST PUSH1 0x0 PUSH1 0x4 PUSH1 0x0 CALLER PUSH20 0xFFFFFFFFFFFFFFFFFFFFFFFFFFFFFFFFFFFFFFFF AND PUSH20 0xFFFFFFFFFFFFFFFFFFFFFFFFFFFFFFFFFFFFFFFF AND DUP2 MSTORE PUSH1 0x20 ADD SWAP1 DUP2 MSTORE PUSH1 0x20 ADD PUSH1 0x0 KECCAK256 PUSH1 0x0 ADD PUSH1 0x0 SWAP1 SLOAD SWAP1 PUSH2 0x100 EXP SWAP1 DIV PUSH1 0xFF AND DUP1 PUSH2 0xA7F JUMPI POP PUSH1 0x6 PUSH1 0x0 CALLER PUSH20 0xFFFFFFFFFFFFFFFFFFFFFFFFFFFFFFFFFFFFFFFF AND PUSH20 0xFFFFFFFFFFFFFFFFFFFFFFFFFFFFFFFFFFFFFFFF AND DUP2 MSTORE PUSH1 0x20 ADD SWAP1 DUP2 MSTORE PUSH1 0x20 ADD PUSH1 0x0 KECCAK256 PUSH1 0x0 ADD PUSH1 0x0 SWAP1 SLOAD SWAP1 PUSH2 0x100 EXP SWAP1 DIV PUSH1 0xFF AND JUMPDEST DUP1 PUSH2 0xAD6 JUMPI POP PUSH1 0x8 PUSH1 0x0 CALLER PUSH20 0xFFFFFFFFFFFFFFFFFFFFFFFFFFFFFFFFFFFFFFFF AND PUSH20 0xFFFFFFFFFFFFFFFFFFFFFFFFFFFFFFFFFFFFFFFF AND DUP2 MSTORE PUSH1 0x20 ADD SWAP1 DUP2 MSTORE PUSH1 0x20 ADD PUSH1 0x0 KECCAK256 PUSH1 0x0 ADD PUSH1 0x0 SWAP1 SLOAD SWAP1 PUSH2 0x100 EXP SWAP1 DIV PUSH1 0xFF AND JUMPDEST PUSH2 0xB15 JUMPI PUSH1 0x40 MLOAD PUSH32 0x8C379A000000000000000000000000000000000000000000000000000000000 DUP2 MSTORE PUSH1 0x4 ADD PUSH2 0xB0C SWAP1 PUSH2 0x249D JUMP JUMPDEST PUSH1 0x40 MLOAD DUP1 SWAP2 SUB SWAP1 REVERT JUMPDEST PUSH1 0x3 PUSH1 0x0 DUP11 PUSH20 0xFFFFFFFFFFFFFFFFFFFFFFFFFFFFFFFFFFFFFFFF AND PUSH20 0xFFFFFFFFFFFFFFFFFFFFFFFFFFFFFFFFFFFFFFFF AND DUP2 MSTORE PUSH1 0x20 ADD SWAP1 DUP2 MSTORE PUSH1 0x20 ADD PUSH1 0x0 KECCAK256 PUSH1 0x0 ADD PUSH1 0x0 SWAP1 SLOAD SWAP1 PUSH2 0x100 EXP SWAP1 DIV PUSH1 0xFF AND PUSH2 0xBA4 JUMPI PUSH1 0x40 MLOAD PUSH32 0x8C379A000000000000000000000000000000000000000000000000000000000 DUP2 MSTORE PUSH1 0x4 ADD PUSH2 0xB9B SWAP1 PUSH2 0x245D JUMP JUMPDEST PUSH1 0x40 MLOAD DUP1 SWAP2 SUB SWAP1 REVERT JUMPDEST DUP7 PUSH1 0xD PUSH1 0x0 DUP12 PUSH20 0xFFFFFFFFFFFFFFFFFFFFFFFFFFFFFFFFFFFFFFFF AND PUSH20 0xFFFFFFFFFFFFFFFFFFFFFFFFFFFFFFFFFFFFFFFF AND DUP2 MSTORE PUSH1 0x20 ADD SWAP1 DUP2 MSTORE PUSH1 0x20 ADD PUSH1 0x0 KECCAK256 PUSH1 0x0 DUP11 DUP2 MSTORE PUSH1 0x20 ADD SWAP1 DUP2 MSTORE PUSH1 0x20 ADD PUSH1 0x0 KECCAK256 PUSH1 0x1 ADD PUSH1 0x14 PUSH2 0x100 EXP DUP2 SLOAD DUP2 PUSH1 0xFF MUL NOT AND SWAP1 DUP4 PUSH1 0x5 DUP2 GT ISZERO PUSH2 0xC1A JUMPI PUSH2 0xC19 PUSH2 0x27BA JUMP JUMPDEST JUMPDEST MUL OR SWAP1 SSTORE POP DUP6 PUSH1 0xD PUSH1 0x0 DUP12 PUSH20 0xFFFFFFFFFFFFFFFFFFFFFFFFFFFFFFFFFFFFFFFF AND PUSH20 0xFFFFFFFFFFFFFFFFFFFFFFFFFFFFFFFFFFFFFFFF AND DUP2 MSTORE PUSH1 0x20 ADD SWAP1 DUP2 MSTORE PUSH1 0x20 ADD PUSH1 0x0 KECCAK256 PUSH1 0x0 DUP11 DUP2 MSTORE PUSH1 0x20 ADD SWAP1 DUP2 MSTORE PUSH1 0x20 ADD PUSH1 0x0 KECCAK256 PUSH1 0x2 ADD DUP2 SWAP1 SSTORE POP DUP5 PUSH1 0xD PUSH1 0x0 DUP12 PUSH20 0xFFFFFFFFFFFFFFFFFFFFFFFFFFFFFFFFFFFFFFFF AND PUSH20 0xFFFFFFFFFFFFFFFFFFFFFFFFFFFFFFFFFFFFFFFF AND DUP2 MSTORE PUSH1 0x20 ADD SWAP1 DUP2 MSTORE PUSH1 0x20 ADD PUSH1 0x0 KECCAK256 PUSH1 0x0 DUP11 DUP2 MSTORE PUSH1 0x20 ADD SWAP1 DUP2 MSTORE PUSH1 0x20 ADD PUSH1 0x0 KECCAK256 PUSH1 0x3 ADD DUP2 SWAP1 SSTORE POP DUP4 PUSH1 0xD PUSH1 0x0 DUP12 PUSH20 0xFFFFFFFFFFFFFFFFFFFFFFFFFFFFFFFFFFFFFFFF AND PUSH20 0xFFFFFFFFFFFFFFFFFFFFFFFFFFFFFFFFFFFFFFFF AND DUP2 MSTORE PUSH1 0x20 ADD SWAP1 DUP2 MSTORE PUSH1 0x20 ADD PUSH1 0x0 KECCAK256 PUSH1 0x0 DUP11 DUP2 MSTORE PUSH1 0x20 ADD SWAP1 DUP2 MSTORE PUSH1 0x20 ADD PUSH1 0x0 KECCAK256 PUSH1 0x4 ADD PUSH1 0x0 PUSH2 0x100 EXP DUP2 SLOAD DUP2 PUSH1 0xFF MUL NOT AND SWAP1 DUP4 PUSH1 0x3 DUP2 GT ISZERO PUSH2 0xD45 JUMPI PUSH2 0xD44 PUSH2 0x27BA JUMP JUMPDEST JUMPDEST MUL OR SWAP1 SSTORE POP DUP3 PUSH1 0xD PUSH1 0x0 DUP12 PUSH20 0xFFFFFFFFFFFFFFFFFFFFFFFFFFFFFFFFFFFFFFFF AND PUSH20 0xFFFFFFFFFFFFFFFFFFFFFFFFFFFFFFFFFFFFFFFF AND DUP2 MSTORE PUSH1 0x20 ADD SWAP1 DUP2 MSTORE PUSH1 0x20 ADD PUSH1 0x0 KECCAK256 PUSH1 0x0 DUP11 DUP2 MSTORE PUSH1 0x20 ADD SWAP1 DUP2 MSTORE PUSH1 0x20 ADD PUSH1 0x0 KECCAK256 PUSH1 0x4 ADD PUSH1 0x1 PUSH2 0x100 EXP DUP2 SLOAD DUP2 PUSH4 0xFFFFFFFF MUL NOT AND SWAP1 DUP4 PUSH4 0xFFFFFFFF AND MUL OR SWAP1 SSTORE POP DUP2 PUSH1 0xD PUSH1 0x0 DUP12 PUSH20 0xFFFFFFFFFFFFFFFFFFFFFFFFFFFFFFFFFFFFFFFF AND PUSH20 0xFFFFFFFFFFFFFFFFFFFFFFFFFFFFFFFFFFFFFFFF AND DUP2 MSTORE PUSH1 0x20 ADD SWAP1 DUP2 MSTORE PUSH1 0x20 ADD PUSH1 0x0 KECCAK256 PUSH1 0x0 DUP11 DUP2 MSTORE PUSH1 0x20 ADD SWAP1 DUP2 MSTORE PUSH1 0x20 ADD PUSH1 0x0 KECCAK256 PUSH1 0x4 ADD PUSH1 0x5 PUSH2 0x100 EXP DUP2 SLOAD DUP2 PUSH1 0xFF MUL NOT AND SWAP1 DUP4 PUSH1 0x3 DUP2 GT ISZERO PUSH2 0xE32 JUMPI PUSH2 0xE31 PUSH2 0x27BA JUMP JUMPDEST JUMPDEST MUL OR SWAP1 SSTORE POP PUSH1 0x1 PUSH1 0xD PUSH1 0x0 DUP12 PUSH20 0xFFFFFFFFFFFFFFFFFFFFFFFFFFFFFFFFFFFFFFFF AND PUSH20 0xFFFFFFFFFFFFFFFFFFFFFFFFFFFFFFFFFFFFFFFF AND DUP2 MSTORE PUSH1 0x20 ADD SWAP1 DUP2 MSTORE PUSH1 0x20 ADD PUSH1 0x0 KECCAK256 PUSH1 0x0 DUP11 DUP2 MSTORE PUSH1 0x20 ADD SWAP1 DUP2 MSTORE PUSH1 0x20 ADD PUSH1 0x0 KECCAK256 PUSH1 0x5 ADD PUSH1 0x1 ADD PUSH1 0x14 PUSH2 0x100 EXP DUP2 SLOAD DUP2 PUSH1 0xFF MUL NOT AND SWAP1 DUP4 PUSH1 0x2 DUP2 GT ISZERO PUSH2 0xEB1 JUMPI PUSH2 0xEB0 PUSH2 0x27BA JUMP JUMPDEST JUMPDEST MUL OR SWAP1 SSTORE POP TIMESTAMP PUSH1 0xD PUSH1 0x0 DUP12 PUSH20 0xFFFFFFFFFFFFFFFFFFFFFFFFFFFFFFFFFFFFFFFF AND PUSH20 0xFFFFFFFFFFFFFFFFFFFFFFFFFFFFFFFFFFFFFFFF AND DUP2 MSTORE PUSH1 0x20 ADD SWAP1 DUP2 MSTORE PUSH1 0x20 ADD PUSH1 0x0 KECCAK256 PUSH1 0x0 DUP11 DUP2 MSTORE PUSH1 0x20 ADD SWAP1 DUP2 MSTORE PUSH1 0x20 ADD PUSH1 0x0 KECCAK256 PUSH1 0x5 ADD PUSH1 0x0 ADD DUP2 SWAP1 SSTORE POP CALLER PUSH1 0xD PUSH1 0x0 DUP12 PUSH20 0xFFFFFFFFFFFFFFFFFFFFFFFFFFFFFFFFFFFFFFFF AND PUSH20 0xFFFFFFFFFFFFFFFFFFFFFFFFFFFFFFFFFFFFFFFF AND DUP2 MSTORE PUSH1 0x20 ADD SWAP1 DUP2 MSTORE PUSH1 0x20 ADD PUSH1 0x0 KECCAK256 PUSH1 0x0 DUP11 DUP2 MSTORE PUSH1 0x20 ADD SWAP1 DUP2 MSTORE PUSH1 0x20 ADD PUSH1 0x0 KECCAK256 PUSH1 0x5 ADD PUSH1 0x1 ADD PUSH1 0x0 PUSH2 0x100 EXP DUP2 SLOAD DUP2 PUSH20 0xFFFFFFFFFFFFFFFFFFFFFFFFFFFFFFFFFFFFFFFF MUL NOT AND SWAP1 DUP4 PUSH20 0xFFFFFFFFFFFFFFFFFFFFFFFFFFFFFFFFFFFFFFFF AND MUL OR SWAP1 SSTORE POP PUSH31 0x8FDFFFA514A537DACB0033300463694B1566A2286BFB76F047F70377B990E7 DUP8 DUP8 DUP8 DUP8 DUP8 PUSH1 0x40 MLOAD PUSH2 0xFDC SWAP6 SWAP5 SWAP4 SWAP3 SWAP2 SWAP1 PUSH2 0x240A JUMP JUMPDEST PUSH1 0x40 MLOAD DUP1 SWAP2 SUB SWAP1 LOG1 DUP8 SWAP1 POP SWAP9 SWAP8 POP POP POP POP POP POP POP POP JUMP JUMPDEST PUSH1 0x4 PUSH1 0x20 MSTORE DUP1 PUSH1 0x0 MSTORE PUSH1 0x40 PUSH1 0x0 KECCAK256 PUSH1 0x0 SWAP2 POP SWAP1 POP DUP1 PUSH1 0x0 ADD PUSH1 0x0 SWAP1 SLOAD SWAP1 PUSH2 0x100 EXP SWAP1 DIV PUSH1 0xFF AND SWAP1 DUP1 PUSH1 0x1 ADD DUP1 SLOAD PUSH2 0x1029 SWAP1 PUSH2 0x2710 JUMP JUMPDEST DUP1 PUSH1 0x1F ADD PUSH1 0x20 DUP1 SWAP2 DIV MUL PUSH1 0x20 ADD PUSH1 0x40 MLOAD SWAP1 DUP2 ADD PUSH1 0x40 MSTORE DUP1 SWAP3 SWAP2 SWAP1 DUP2 DUP2 MSTORE PUSH1 0x20 ADD DUP3 DUP1 SLOAD PUSH2 0x1055 SWAP1 PUSH2 0x2710 JUMP JUMPDEST DUP1 ISZERO PUSH2 0x10A2 JUMPI DUP1 PUSH1 0x1F LT PUSH2 0x1077 JUMPI PUSH2 0x100 DUP1 DUP4 SLOAD DIV MUL DUP4 MSTORE SWAP2 PUSH1 0x20 ADD SWAP2 PUSH2 0x10A2 JUMP JUMPDEST DUP3 ADD SWAP2 SWAP1 PUSH1 0x0 MSTORE PUSH1 0x20 PUSH1 0x0 KECCAK256 SWAP1 JUMPDEST DUP2 SLOAD DUP2 MSTORE SWAP1 PUSH1 0x1 ADD SWAP1 PUSH1 0x20 ADD DUP1 DUP4 GT PUSH2 0x1085 JUMPI DUP3 SWAP1 SUB PUSH1 0x1F AND DUP3 ADD SWAP2 JUMPDEST POP POP POP POP POP SWAP1 DUP1 PUSH1 0x2 ADD PUSH1 0x0 SWAP1 SLOAD SWAP1 PUSH2 0x100 EXP SWAP1 DIV PUSH1 0xFF AND SWAP1 POP DUP4 JUMP JUMPDEST PUSH1 0xA PUSH1 0x20 MSTORE DUP1 PUSH1 0x0 MSTORE PUSH1 0x40 PUSH1 0x0 KECCAK256 PUSH1 0x0 SWAP2 POP SWAP1 POP DUP1 PUSH1 0x0 ADD PUSH1 0x0 SWAP1 SLOAD SWAP1 PUSH2 0x100 EXP SWAP1 DIV PUSH1 0xFF AND SWAP1 DUP1 PUSH1 0x1 ADD DUP1 SLOAD PUSH2 0x10F5 SWAP1 PUSH2 0x2710 JUMP JUMPDEST DUP1 PUSH1 0x1F ADD PUSH1 0x20 DUP1 SWAP2 DIV MUL PUSH1 0x20 ADD PUSH1 0x40 MLOAD SWAP1 DUP2 ADD PUSH1 0x40 MSTORE DUP1 SWAP3 SWAP2 SWAP1 DUP2 DUP2 MSTORE PUSH1 0x20 ADD DUP3 DUP1 SLOAD PUSH2 0x1121 SWAP1 PUSH2 0x2710 JUMP JUMPDEST DUP1 ISZERO PUSH2 0x116E JUMPI DUP1 PUSH1 0x1F LT PUSH2 0x1143 JUMPI PUSH2 0x100 DUP1 DUP4 SLOAD DIV MUL DUP4 MSTORE SWAP2 PUSH1 0x20 ADD SWAP2 PUSH2 0x116E JUMP JUMPDEST DUP3 ADD SWAP2 SWAP1 PUSH1 0x0 MSTORE PUSH1 0x20 PUSH1 0x0 KECCAK256 SWAP1 JUMPDEST DUP2 SLOAD DUP2 MSTORE SWAP1 PUSH1 0x1 ADD SWAP1 PUSH1 0x20 ADD DUP1 DUP4 GT PUSH2 0x1151 JUMPI DUP3 SWAP1 SUB PUSH1 0x1F AND DUP3 ADD SWAP2 JUMPDEST POP POP POP POP POP SWAP1 DUP1 PUSH1 0x2 ADD PUSH1 0x0 SWAP1 SLOAD SWAP1 PUSH2 0x100 EXP SWAP1 DIV PUSH1 0xFF AND SWAP1 POP DUP4 JUMP JUMPDEST PUSH1 0x6 PUSH1 0x20 MSTORE DUP1 PUSH1 0x0 MSTORE PUSH1 0x40 PUSH1 0x0 KECCAK256 PUSH1 0x0 SWAP2 POP SWAP1 POP DUP1 PUSH1 0x0 ADD PUSH1 0x0 SWAP1 SLOAD SWAP1 PUSH2 0x100 EXP SWAP1 DIV PUSH1 0xFF AND SWAP1 DUP1 PUSH1 0x0 ADD PUSH1 0x1 SWAP1 SLOAD SWAP1 PUSH2 0x100 EXP SWAP1 DIV PUSH1 0xFF AND SWAP1 DUP1 PUSH1 0x1 ADD SLOAD SWAP1 DUP1 PUSH1 0x2 ADD DUP1 SLOAD PUSH2 0x11DA SWAP1 PUSH2 0x2710 JUMP JUMPDEST DUP1 PUSH1 0x1F ADD PUSH1 0x20 DUP1 SWAP2 DIV MUL PUSH1 0x20 ADD PUSH1 0x40 MLOAD SWAP1 DUP2 ADD PUSH1 0x40 MSTORE DUP1 SWAP3 SWAP2 SWAP1 DUP2 DUP2 MSTORE PUSH1 0x20 ADD DUP3 DUP1 SLOAD PUSH2 0x1206 SWAP1 PUSH2 0x2710 JUMP JUMPDEST DUP1 ISZERO PUSH2 0x1253 JUMPI DUP1 PUSH1 0x1F LT PUSH2 0x1228 JUMPI PUSH2 0x100 DUP1 DUP4 SLOAD DIV MUL DUP4 MSTORE SWAP2 PUSH1 0x20 ADD SWAP2 PUSH2 0x1253 JUMP JUMPDEST DUP3 ADD SWAP2 SWAP1 PUSH1 0x0 MSTORE PUSH1 0x20 PUSH1 0x0 KECCAK256 SWAP1 JUMPDEST DUP2 SLOAD DUP2 MSTORE SWAP1 PUSH1 0x1 ADD SWAP1 PUSH1 0x20 ADD DUP1 DUP4 GT PUSH2 0x1236 JUMPI DUP3 SWAP1 SUB PUSH1 0x1F AND DUP3 ADD SWAP2 JUMPDEST POP POP POP POP POP SWAP1 POP DUP5 JUMP JUMPDEST PUSH1 0xD PUSH1 0x20 MSTORE DUP2 PUSH1 0x0 MSTORE PUSH1 0x40 PUSH1 0x0 KECCAK256 PUSH1 0x20 MSTORE DUP1 PUSH1 0x0 MSTORE PUSH1 0x40 PUSH1 0x0 KECCAK256 PUSH1 0x0 SWAP2 POP SWAP2 POP POP DUP1 PUSH1 0x0 ADD SLOAD SWAP1 DUP1 PUSH1 0x1 ADD PUSH1 0x0 SWAP1 SLOAD SWAP1 PUSH2 0x100 EXP SWAP1 DIV PUSH20 0xFFFFFFFFFFFFFFFFFFFFFFFFFFFFFFFFFFFFFFFF AND SWAP1 DUP1 PUSH1 0x1 ADD PUSH1 0x14 SWAP1 SLOAD SWAP1 PUSH2 0x100 EXP SWAP1 DIV PUSH1 0xFF AND SWAP1 DUP1 PUSH1 0x2 ADD SLOAD SWAP1 DUP1 PUSH1 0x3 ADD SLOAD SWAP1 DUP1 PUSH1 0x4 ADD PUSH1 0x0 SWAP1 SLOAD SWAP1 PUSH2 0x100 EXP SWAP1 DIV PUSH1 0xFF AND SWAP1 DUP1 PUSH1 0x4 ADD PUSH1 0x1 SWAP1 SLOAD SWAP1 PUSH2 0x100 EXP SWAP1 DIV PUSH4 0xFFFFFFFF AND SWAP1 DUP1 PUSH1 0x4 ADD PUSH1 0x5 SWAP1 SLOAD SWAP1 PUSH2 0x100 EXP SWAP1 DIV PUSH1 0xFF AND SWAP1 DUP1 PUSH1 0x5 ADD PUSH1 0x40 MLOAD DUP1 PUSH1 0x60 ADD PUSH1 0x40 MSTORE SWAP1 DUP2 PUSH1 0x0 DUP3 ADD SLOAD DUP2 MSTORE PUSH1 0x20 ADD PUSH1 0x1 DUP3 ADD PUSH1 0x0 SWAP1 SLOAD SWAP1 PUSH2 0x100 EXP SWAP1 DIV PUSH20 0xFFFFFFFFFFFFFFFFFFFFFFFFFFFFFFFFFFFFFFFF AND PUSH20 0xFFFFFFFFFFFFFFFFFFFFFFFFFFFFFFFFFFFFFFFF AND PUSH20 0xFFFFFFFFFFFFFFFFFFFFFFFFFFFFFFFFFFFFFFFF AND DUP2 MSTORE PUSH1 0x20 ADD PUSH1 0x1 DUP3 ADD PUSH1 0x14 SWAP1 SLOAD SWAP1 PUSH2 0x100 EXP SWAP1 DIV PUSH1 0xFF AND PUSH1 0x2 DUP2 GT ISZERO PUSH2 0x1399 JUMPI PUSH2 0x1398 PUSH2 0x27BA JUMP JUMPDEST JUMPDEST PUSH1 0x2 DUP2 GT ISZERO PUSH2 0x13AB JUMPI PUSH2 0x13AA PUSH2 0x27BA JUMP JUMPDEST JUMPDEST DUP2 MSTORE POP POP SWAP1 POP DUP10 JUMP JUMPDEST PUSH1 0x8 PUSH1 0x20 MSTORE DUP1 PUSH1 0x0 MSTORE PUSH1 0x40 PUSH1 0x0 KECCAK256 PUSH1 0x0 SWAP2 POP SWAP1 POP DUP1 PUSH1 0x0 ADD PUSH1 0x0 SWAP1 SLOAD SWAP1 PUSH2 0x100 EXP SWAP1 DIV PUSH1 0xFF AND SWAP1 DUP1 PUSH1 0x1 ADD DUP1 SLOAD PUSH2 0x13EA SWAP1 PUSH2 0x2710 JUMP JUMPDEST DUP1 PUSH1 0x1F ADD PUSH1 0x20 DUP1 SWAP2 DIV MUL PUSH1 0x20 ADD PUSH1 0x40 MLOAD SWAP1 DUP2 ADD PUSH1 0x40 MSTORE DUP1 SWAP3 SWAP2 SWAP1 DUP2 DUP2 MSTORE PUSH1 0x20 ADD DUP3 DUP1 SLOAD PUSH2 0x1416 SWAP1 PUSH2 0x2710 JUMP JUMPDEST DUP1 ISZERO PUSH2 0x1463 JUMPI DUP1 PUSH1 0x1F LT PUSH2 0x1438 JUMPI PUSH2 0x100 DUP1 DUP4 SLOAD DIV MUL DUP4 MSTORE SWAP2 PUSH1 0x20 ADD SWAP2 PUSH2 0x1463 JUMP JUMPDEST DUP3 ADD SWAP2 SWAP1 PUSH1 0x0 MSTORE PUSH1 0x20 PUSH1 0x0 KECCAK256 SWAP1 JUMPDEST DUP2 SLOAD DUP2 MSTORE SWAP1 PUSH1 0x1 ADD SWAP1 PUSH1 0x20 ADD DUP1 DUP4 GT PUSH2 0x1446 JUMPI DUP3 SWAP1 SUB PUSH1 0x1F AND DUP3 ADD SWAP2 JUMPDEST POP POP POP POP POP SWAP1 DUP1 PUSH1 0x2 ADD PUSH1 0x0 SWAP1 SLOAD SWAP1 PUSH2 0x100 EXP SWAP1 DIV PUSH1 0xFF AND SWAP1 POP DUP4 JUMP JUMPDEST PUSH1 0x9 PUSH1 0x20 MSTORE DUP1 PUSH1 0x0 MSTORE PUSH1 0x40 PUSH1 0x0 KECCAK256 PUSH1 0x0 SWAP2 POP SWAP1 POP DUP1 PUSH1 0x0 ADD PUSH1 0x0 SWAP1 SLOAD SWAP1 PUSH2 0x100 EXP SWAP1 DIV PUSH1 0xFF AND SWAP1 DUP1 PUSH1 0x1 ADD DUP1 SLOAD PUSH2 0x14B6 SWAP1 PUSH2 0x2710 JUMP JUMPDEST DUP1 PUSH1 0x1F ADD PUSH1 0x20 DUP1 SWAP2 DIV MUL PUSH1 0x20 ADD PUSH1 0x40 MLOAD SWAP1 DUP2 ADD PUSH1 0x40 MSTORE DUP1 SWAP3 SWAP2 SWAP1 DUP2 DUP2 MSTORE PUSH1 0x20 ADD DUP3 DUP1 SLOAD PUSH2 0x14E2 SWAP1 PUSH2 0x2710 JUMP JUMPDEST DUP1 ISZERO PUSH2 0x152F JUMPI DUP1 PUSH1 0x1F LT PUSH2 0x1504 JUMPI PUSH2 0x100 DUP1 DUP4 SLOAD DIV MUL DUP4 MSTORE SWAP2 PUSH1 0x20 ADD SWAP2 PUSH2 0x152F JUMP JUMPDEST DUP3 ADD SWAP2 SWAP1 PUSH1 0x0 MSTORE PUSH1 0x20 PUSH1 0x0 KECCAK256 SWAP1 JUMPDEST DUP2 SLOAD DUP2 MSTORE SWAP1 PUSH1 0x1 ADD SWAP1 PUSH1 0x20 ADD DUP1 DUP4 GT PUSH2 0x1512 JUMPI DUP3 SWAP1 SUB PUSH1 0x1F AND DUP3 ADD SWAP2 JUMPDEST POP POP POP POP POP SWAP1 DUP1 PUSH1 0x2 ADD PUSH1 0x0 SWAP1 SLOAD SWAP1 PUSH2 0x100 EXP SWAP1 DIV PUSH1 0xFF AND SWAP1 POP DUP4 JUMP JUMPDEST PUSH1 0xB PUSH1 0x20 MSTORE DUP1 PUSH1 0x0 MSTORE PUSH1 0x40 PUSH1 0x0 KECCAK256 PUSH1 0x0 SWAP2 POP SWAP1 POP DUP1 PUSH1 0x0 ADD PUSH1 0x0 SWAP1 SLOAD SWAP1 PUSH2 0x100 EXP SWAP1 DIV PUSH4 0xFFFFFFFF AND SWAP1 DUP1 PUSH1 0x1 ADD DUP1 SLOAD PUSH2 0x1585 SWAP1 PUSH2 0x2710 JUMP JUMPDEST DUP1 PUSH1 0x1F ADD PUSH1 0x20 DUP1 SWAP2 DIV MUL PUSH1 0x20 ADD PUSH1 0x40 MLOAD SWAP1 DUP2 ADD PUSH1 0x40 MSTORE DUP1 SWAP3 SWAP2 SWAP1 DUP2 DUP2 MSTORE PUSH1 0x20 ADD DUP3 DUP1 SLOAD PUSH2 0x15B1 SWAP1 PUSH2 0x2710 JUMP JUMPDEST DUP1 ISZERO PUSH2 0x15FE JUMPI DUP1 PUSH1 0x1F LT PUSH2 0x15D3 JUMPI PUSH2 0x100 DUP1 DUP4 SLOAD DIV MUL DUP4 MSTORE SWAP2 PUSH1 0x20 ADD SWAP2 PUSH2 0x15FE JUMP JUMPDEST DUP3 ADD SWAP2 SWAP1 PUSH1 0x0 MSTORE PUSH1 0x20 PUSH1 0x0 KECCAK256 SWAP1 JUMPDEST DUP2 SLOAD DUP2 MSTORE SWAP1 PUSH1 0x1 ADD SWAP1 PUSH1 0x20 ADD DUP1 DUP4 GT PUSH2 0x15E1 JUMPI DUP3 SWAP1 SUB PUSH1 0x1F AND DUP3 ADD SWAP2 JUMPDEST POP POP POP POP POP SWAP1 POP DUP3 JUMP JUMPDEST PUSH1 0xC SLOAD DUP2 JUMP JUMPDEST PUSH1 0x5 PUSH1 0x20 MSTORE DUP1 PUSH1 0x0 MSTORE PUSH1 0x40 PUSH1 0x0 KECCAK256 PUSH1 0x0 SWAP2 POP SWAP1 POP DUP1 PUSH1 0x0 ADD PUSH1 0x0 SWAP1 SLOAD SWAP1 PUSH2 0x100 EXP SWAP1 DIV PUSH1 0xFF AND SWAP1 DUP1 PUSH1 0x0 ADD PUSH1 0x1 SWAP1 SLOAD SWAP1 PUSH2 0x100 EXP SWAP1 DIV PUSH20 0xFFFFFFFFFFFFFFFFFFFFFFFFFFFFFFFFFFFFFFFF AND SWAP1 DUP1 PUSH1 0x0 ADD PUSH1 0x15 SWAP1 SLOAD SWAP1 PUSH2 0x100 EXP SWAP1 DIV PUSH2 0xFFFF AND SWAP1 DUP1 PUSH1 0x0 ADD PUSH1 0x17 SWAP1 SLOAD SWAP1 PUSH2 0x100 EXP SWAP1 DIV PUSH1 0xFF AND SWAP1 DUP1 PUSH1 0x1 ADD DUP1 SLOAD PUSH2 0x1691 SWAP1 PUSH2 0x2710 JUMP JUMPDEST DUP1 PUSH1 0x1F ADD PUSH1 0x20 DUP1 SWAP2 DIV MUL PUSH1 0x20 ADD PUSH1 0x40 MLOAD SWAP1 DUP2 ADD PUSH1 0x40 MSTORE DUP1 SWAP3 SWAP2 SWAP1 DUP2 DUP2 MSTORE PUSH1 0x20 ADD DUP3 DUP1 SLOAD PUSH2 0x16BD SWAP1 PUSH2 0x2710 JUMP JUMPDEST DUP1 ISZERO PUSH2 0x170A JUMPI DUP1 PUSH1 0x1F LT PUSH2 0x16DF JUMPI PUSH2 0x100 DUP1 DUP4 SLOAD DIV MUL DUP4 MSTORE SWAP2 PUSH1 0x20 ADD SWAP2 PUSH2 0x170A JUMP JUMPDEST DUP3 ADD SWAP2 SWAP1 PUSH1 0x0 MSTORE PUSH1 0x20 PUSH1 0x0 KECCAK256 SWAP1 JUMPDEST DUP2 SLOAD DUP2 MSTORE SWAP1 PUSH1 0x1 ADD SWAP1 PUSH1 0x20 ADD DUP1 DUP4 GT PUSH2 0x16ED JUMPI DUP3 SWAP1 SUB PUSH1 0x1F AND DUP3 ADD SWAP2 JUMPDEST POP POP POP POP POP SWAP1 DUP1 PUSH1 0x2 ADD DUP1 SLOAD PUSH2 0x171F SWAP1 PUSH2 0x2710 JUMP JUMPDEST DUP1 PUSH1 0x1F ADD PUSH1 0x20 DUP1 SWAP2 DIV MUL PUSH1 0x20 ADD PUSH1 0x40 MLOAD SWAP1 DUP2 ADD PUSH1 0x40 MSTORE DUP1 SWAP3 SWAP2 SWAP1 DUP2 DUP2 MSTORE PUSH1 0x20 ADD DUP3 DUP1 SLOAD PUSH2 0x174B SWAP1 PUSH2 0x2710 JUMP JUMPDEST DUP1 ISZERO PUSH2 0x1798 JUMPI DUP1 PUSH1 0x1F LT PUSH2 0x176D JUMPI PUSH2 0x100 DUP1 DUP4 SLOAD DIV MUL DUP4 MSTORE SWAP2 PUSH1 0x20 ADD SWAP2 PUSH2 0x1798 JUMP JUMPDEST DUP3 ADD SWAP2 SWAP1 PUSH1 0x0 MSTORE PUSH1 0x20 PUSH1 0x0 KECCAK256 SWAP1 JUMPDEST DUP2 SLOAD DUP2 MSTORE SWAP1 PUSH1 0x1 ADD SWAP1 PUSH1 0x20 ADD DUP1 DUP4 GT PUSH2 0x177B JUMPI DUP3 SWAP1 SUB PUSH1 0x1F AND DUP3 ADD SWAP2 JUMPDEST POP POP POP POP POP SWAP1 POP DUP7 JUMP JUMPDEST PUSH1 0x4 PUSH1 0x0 CALLER PUSH20 0xFFFFFFFFFFFFFFFFFFFFFFFFFFFFFFFFFFFFFFFF AND PUSH20 0xFFFFFFFFFFFFFFFFFFFFFFFFFFFFFFFFFFFFFFFF AND DUP2 MSTORE PUSH1 0x20 ADD SWAP1 DUP2 MSTORE PUSH1 0x20 ADD PUSH1 0x0 KECCAK256 PUSH1 0x0 ADD PUSH1 0x0 SWAP1 SLOAD SWAP1 PUSH2 0x100 EXP SWAP1 DIV PUSH1 0xFF AND DUP1 PUSH2 0x1849 JUMPI POP PUSH1 0x6 PUSH1 0x0 CALLER PUSH20 0xFFFFFFFFFFFFFFFFFFFFFFFFFFFFFFFFFFFFFFFF AND PUSH20 0xFFFFFFFFFFFFFFFFFFFFFFFFFFFFFFFFFFFFFFFF AND DUP2 MSTORE PUSH1 0x20 ADD SWAP1 DUP2 MSTORE PUSH1 0x20 ADD PUSH1 0x0 KECCAK256 PUSH1 0x0 ADD PUSH1 0x0 SWAP1 SLOAD SWAP1 PUSH2 0x100 EXP SWAP1 DIV PUSH1 0xFF AND JUMPDEST DUP1 PUSH2 0x18A0 JUMPI POP PUSH1 0x8 PUSH1 0x0 CALLER PUSH20 0xFFFFFFFFFFFFFFFFFFFFFFFFFFFFFFFFFFFFFFFF AND PUSH20 0xFFFFFFFFFFFFFFFFFFFFFFFFFFFFFFFFFFFFFFFF AND DUP2 MSTORE PUSH1 0x20 ADD SWAP1 DUP2 MSTORE PUSH1 0x20 ADD PUSH1 0x0 KECCAK256 PUSH1 0x0 ADD PUSH1 0x0 SWAP1 SLOAD SWAP1 PUSH2 0x100 EXP SWAP1 DIV PUSH1 0xFF AND JUMPDEST PUSH2 0x18DF JUMPI PUSH1 0x40 MLOAD PUSH32 0x8C379A000000000000000000000000000000000000000000000000000000000 DUP2 MSTORE PUSH1 0x4 ADD PUSH2 0x18D6 SWAP1 PUSH2 0x249D JUMP JUMPDEST PUSH1 0x40 MLOAD DUP1 SWAP2 SUB SWAP1 REVERT JUMPDEST PUSH1 0x3 PUSH1 0x0 DUP9 PUSH20 0xFFFFFFFFFFFFFFFFFFFFFFFFFFFFFFFFFFFFFFFF AND PUSH20 0xFFFFFFFFFFFFFFFFFFFFFFFFFFFFFFFFFFFFFFFF AND DUP2 MSTORE PUSH1 0x20 ADD SWAP1 DUP2 MSTORE PUSH1 0x20 ADD PUSH1 0x0 KECCAK256 PUSH1 0x0 ADD PUSH1 0x0 SWAP1 SLOAD SWAP1 PUSH2 0x100 EXP SWAP1 DIV PUSH1 0xFF AND PUSH2 0x196E JUMPI PUSH1 0x40 MLOAD PUSH32 0x8C379A000000000000000000000000000000000000000000000000000000000 DUP2 MSTORE PUSH1 0x4 ADD PUSH2 0x1965 SWAP1 PUSH2 0x245D JUMP JUMPDEST PUSH1 0x40 MLOAD DUP1 SWAP2 SUB SWAP1 REVERT JUMPDEST PUSH1 0x0 PUSH1 0xC PUSH1 0x0 DUP2 SLOAD DUP1 SWAP3 SWAP2 SWAP1 PUSH2 0x1983 SWAP1 PUSH2 0x2742 JUMP JUMPDEST SWAP2 SWAP1 POP SSTORE SWAP1 POP DUP7 PUSH1 0xD PUSH1 0x0 DUP11 PUSH20 0xFFFFFFFFFFFFFFFFFFFFFFFFFFFFFFFFFFFFFFFF AND PUSH20 0xFFFFFFFFFFFFFFFFFFFFFFFFFFFFFFFFFFFFFFFF AND DUP2 MSTORE PUSH1 0x20 ADD SWAP1 DUP2 MSTORE PUSH1 0x20 ADD PUSH1 0x0 KECCAK256 PUSH1 0x0 DUP4 DUP2 MSTORE PUSH1 0x20 ADD SWAP1 DUP2 MSTORE PUSH1 0x20 ADD PUSH1 0x0 KECCAK256 PUSH1 0x1 ADD PUSH1 0x14 PUSH2 0x100 EXP DUP2 SLOAD DUP2 PUSH1 0xFF MUL NOT AND SWAP1 DUP4 PUSH1 0x5 DUP2 GT ISZERO PUSH2 0x19FF JUMPI PUSH2 0x19FE PUSH2 0x27BA JUMP JUMPDEST JUMPDEST MUL OR SWAP1 SSTORE POP DUP6 PUSH1 0xD PUSH1 0x0 DUP11 PUSH20 0xFFFFFFFFFFFFFFFFFFFFFFFFFFFFFFFFFFFFFFFF AND PUSH20 0xFFFFFFFFFFFFFFFFFFFFFFFFFFFFFFFFFFFFFFFF AND DUP2 MSTORE PUSH1 0x20 ADD SWAP1 DUP2 MSTORE PUSH1 0x20 ADD PUSH1 0x0 KECCAK256 PUSH1 0x0 DUP4 DUP2 MSTORE PUSH1 0x20 ADD SWAP1 DUP2 MSTORE PUSH1 0x20 ADD PUSH1 0x0 KECCAK256 PUSH1 0x2 ADD DUP2 SWAP1 SSTORE POP DUP5 PUSH1 0xD PUSH1 0x0 DUP11 PUSH20 0xFFFFFFFFFFFFFFFFFFFFFFFFFFFFFFFFFFFFFFFF AND PUSH20 0xFFFFFFFFFFFFFFFFFFFFFFFFFFFFFFFFFFFFFFFF AND DUP2 MSTORE PUSH1 0x20 ADD SWAP1 DUP2 MSTORE PUSH1 0x20 ADD PUSH1 0x0 KECCAK256 PUSH1 0x0 DUP4 DUP2 MSTORE PUSH1 0x20 ADD SWAP1 DUP2 MSTORE PUSH1 0x20 ADD PUSH1 0x0 KECCAK256 PUSH1 0x3 ADD DUP2 SWAP1 SSTORE POP DUP4 PUSH1 0xD PUSH1 0x0 DUP11 PUSH20 0xFFFFFFFFFFFFFFFFFFFFFFFFFFFFFFFFFFFFFFFF AND PUSH20 0xFFFFFFFFFFFFFFFFFFFFFFFFFFFFFFFFFFFFFFFF AND DUP2 MSTORE PUSH1 0x20 ADD SWAP1 DUP2 MSTORE PUSH1 0x20 ADD PUSH1 0x0 KECCAK256 PUSH1 0x0 DUP4 DUP2 MSTORE PUSH1 0x20 ADD SWAP1 DUP2 MSTORE PUSH1 0x20 ADD PUSH1 0x0 KECCAK256 PUSH1 0x4 ADD PUSH1 0x0 PUSH2 0x100 EXP DUP2 SLOAD DUP2 PUSH1 0xFF MUL NOT AND SWAP1 DUP4 PUSH1 0x3 DUP2 GT ISZERO PUSH2 0x1B2A JUMPI PUSH2 0x1B29 PUSH2 0x27BA JUMP JUMPDEST JUMPDEST MUL OR SWAP1 SSTORE POP DUP3 PUSH1 0xD PUSH1 0x0 DUP11 PUSH20 0xFFFFFFFFFFFFFFFFFFFFFFFFFFFFFFFFFFFFFFFF AND PUSH20 0xFFFFFFFFFFFFFFFFFFFFFFFFFFFFFFFFFFFFFFFF AND DUP2 MSTORE PUSH1 0x20 ADD SWAP1 DUP2 MSTORE PUSH1 0x20 ADD PUSH1 0x0 KECCAK256 PUSH1 0x0 DUP4 DUP2 MSTORE PUSH1 0x20 ADD SWAP1 DUP2 MSTORE PUSH1 0x20 ADD PUSH1 0x0 KECCAK256 PUSH1 0x4 ADD PUSH1 0x1 PUSH2 0x100 EXP DUP2 SLOAD DUP2 PUSH4 0xFFFFFFFF MUL NOT AND SWAP1 DUP4 PUSH4 0xFFFFFFFF AND MUL OR SWAP1 SSTORE POP DUP2 PUSH1 0xD PUSH1 0x0 DUP11 PUSH20 0xFFFFFFFFFFFFFFFFFFFFFFFFFFFFFFFFFFFFFFFF AND PUSH20 0xFFFFFFFFFFFFFFFFFFFFFFFFFFFFFFFFFFFFFFFF AND DUP2 MSTORE PUSH1 0x20 ADD SWAP1 DUP2 MSTORE PUSH1 0x20 ADD PUSH1 0x0 KECCAK256 PUSH1 0x0 DUP4 DUP2 MSTORE PUSH1 0x20 ADD SWAP1 DUP2 MSTORE PUSH1 0x20 ADD PUSH1 0x0 KECCAK256 PUSH1 0x4 ADD PUSH1 0x5 PUSH2 0x100 EXP DUP2 SLOAD DUP2 PUSH1 0xFF MUL NOT AND SWAP1 DUP4 PUSH1 0x3 DUP2 GT ISZERO PUSH2 0x1C17 JUMPI PUSH2 0x1C16 PUSH2 0x27BA JUMP JUMPDEST JUMPDEST MUL OR SWAP1 SSTORE POP PUSH1 0x1 PUSH1 0xD PUSH1 0x0 DUP11 PUSH20 0xFFFFFFFFFFFFFFFFFFFFFFFFFFFFFFFFFFFFFFFF AND PUSH20 0xFFFFFFFFFFFFFFFFFFFFFFFFFFFFFFFFFFFFFFFF AND DUP2 MSTORE PUSH1 0x20 ADD SWAP1 DUP2 MSTORE PUSH1 0x20 ADD PUSH1 0x0 KECCAK256 PUSH1 0x0 DUP4 DUP2 MSTORE PUSH1 0x20 ADD SWAP1 DUP2 MSTORE PUSH1 0x20 ADD PUSH1 0x0 KECCAK256 PUSH1 0x5 ADD PUSH1 0x1 ADD PUSH1 0x14 PUSH2 0x100 EXP DUP2 SLOAD DUP2 PUSH1 0xFF MUL NOT AND SWAP1 DUP4 PUSH1 0x2 DUP2 GT ISZERO PUSH2 0x1C96 JUMPI PUSH2 0x1C95 PUSH2 0x27BA JUMP JUMPDEST JUMPDEST MUL OR SWAP1 SSTORE POP TIMESTAMP PUSH1 0xD PUSH1 0x0 DUP11 PUSH20 0xFFFFFFFFFFFFFFFFFFFFFFFFFFFFFFFFFFFFFFFF AND PUSH20 0xFFFFFFFFFFFFFFFFFFFFFFFFFFFFFFFFFFFFFFFF AND DUP2 MSTORE PUSH1 0x20 ADD SWAP1 DUP2 MSTORE PUSH1 0x20 ADD PUSH1 0x0 KECCAK256 PUSH1 0x0 DUP4 DUP2 MSTORE PUSH1 0x20 ADD SWAP1 DUP2 MSTORE PUSH1 0x20 ADD PUSH1 0x0 KECCAK256 PUSH1 0x5 ADD PUSH1 0x0 ADD DUP2 SWAP1 SSTORE POP CALLER PUSH1 0xD PUSH1 0x0 DUP11 PUSH20 0xFFFFFFFFFFFFFFFFFFFFFFFFFFFFFFFFFFFFFFFF AND PUSH20 0xFFFFFFFFFFFFFFFFFFFFFFFFFFFFFFFFFFFFFFFF AND DUP2 MSTORE PUSH1 0x20 ADD SWAP1 DUP2 MSTORE PUSH1 0x20 ADD PUSH1 0x0 KECCAK256 PUSH1 0x0 DUP4 DUP2 MSTORE PUSH1 0x20 ADD SWAP1 DUP2 MSTORE PUSH1 0x20 ADD PUSH1 0x0 KECCAK256 PUSH1 0x5 ADD PUSH1 0x1 ADD PUSH1 0x0 PUSH2 0x100 EXP DUP2 SLOAD DUP2 PUSH20 0xFFFFFFFFFFFFFFFFFFFFFFFFFFFFFFFFFFFFFFFF MUL NOT AND SWAP1 DUP4 PUSH20 0xFFFFFFFFFFFFFFFFFFFFFFFFFFFFFFFFFFFFFFFF AND MUL OR SWAP1 SSTORE POP PUSH32 0x1BC8089D220C6C0B90FB65E37237ECB0E793702849C9E0B59B1B3A02FF101206 DUP8 DUP8 DUP8 DUP8 DUP8 PUSH1 0x40 MLOAD PUSH2 0x1DC2 SWAP6 SWAP5 SWAP4 SWAP3 SWAP2 SWAP1 PUSH2 0x240A JUMP JUMPDEST PUSH1 0x40 MLOAD DUP1 SWAP2 SUB SWAP1 LOG1 POP POP POP POP POP POP POP POP JUMP JUMPDEST PUSH1 0x3 PUSH1 0x20 MSTORE DUP1 PUSH1 0x0 MSTORE PUSH1 0x40 PUSH1 0x0 KECCAK256 PUSH1 0x0 SWAP2 POP SWAP1 POP DUP1 PUSH1 0x0 ADD PUSH1 0x0 SWAP1 SLOAD SWAP1 PUSH2 0x100 EXP SWAP1 DIV PUSH1 0xFF AND SWAP1 POP DUP2 JUMP JUMPDEST PUSH1 0x0 DUP2 CALLDATALOAD SWAP1 POP PUSH2 0x1E0E DUP2 PUSH2 0x290D JUMP JUMPDEST SWAP3 SWAP2 POP POP JUMP JUMPDEST PUSH1 0x0 DUP2 CALLDATALOAD SWAP1 POP PUSH2 0x1E23 DUP2 PUSH2 0x2924 JUMP JUMPDEST SWAP3 SWAP2 POP POP JUMP JUMPDEST PUSH1 0x0 DUP2 CALLDATALOAD SWAP1 POP PUSH2 0x1E38 DUP2 PUSH2 0x2934 JUMP JUMPDEST SWAP3 SWAP2 POP POP JUMP JUMPDEST PUSH1 0x0 DUP2 CALLDATALOAD SWAP1 POP PUSH2 0x1E4D DUP2 PUSH2 0x2944 JUMP JUMPDEST SWAP3 SWAP2 POP POP JUMP JUMPDEST PUSH1 0x0 DUP2 CALLDATALOAD SWAP1 POP PUSH2 0x1E62 DUP2 PUSH2 0x2954 JUMP JUMPDEST SWAP3 SWAP2 POP POP JUMP JUMPDEST PUSH1 0x0 DUP2 CALLDATALOAD SWAP1 POP PUSH2 0x1E77 DUP2 PUSH2 0x296B JUMP JUMPDEST SWAP3 SWAP2 POP POP JUMP JUMPDEST PUSH1 0x0 PUSH1 0x20 DUP3 DUP5 SUB SLT ISZERO PUSH2 0x1E93 JUMPI PUSH2 0x1E92 PUSH2 0x2818 JUMP JUMPDEST JUMPDEST PUSH1 0x0 PUSH2 0x1EA1 DUP5 DUP3 DUP6 ADD PUSH2 0x1DFF JUMP JUMPDEST SWAP2 POP POP SWAP3 SWAP2 POP POP JUMP JUMPDEST PUSH1 0x0 DUP1 PUSH1 0x0 DUP1 PUSH1 0x0 DUP1 PUSH1 0x0 PUSH1 0xE0 DUP9 DUP11 SUB SLT ISZERO PUSH2 0x1EC9 JUMPI PUSH2 0x1EC8 PUSH2 0x2818 JUMP JUMPDEST JUMPDEST PUSH1 0x0 PUSH2 0x1ED7 DUP11 DUP3 DUP12 ADD PUSH2 0x1DFF JUMP JUMPDEST SWAP8 POP POP PUSH1 0x20 PUSH2 0x1EE8 DUP11 DUP3 DUP12 ADD PUSH2 0x1E29 JUMP JUMPDEST SWAP7 POP POP PUSH1 0x40 PUSH2 0x1EF9 DUP11 DUP3 DUP12 ADD PUSH2 0x1E53 JUMP JUMPDEST SWAP6 POP POP PUSH1 0x60 PUSH2 0x1F0A DUP11 DUP3 DUP12 ADD PUSH2 0x1E53 JUMP JUMPDEST SWAP5 POP POP PUSH1 0x80 PUSH2 0x1F1B DUP11 DUP3 DUP12 ADD PUSH2 0x1E14 JUMP JUMPDEST SWAP4 POP POP PUSH1 0xA0 PUSH2 0x1F2C DUP11 DUP3 DUP12 ADD PUSH2 0x1E68 JUMP JUMPDEST SWAP3 POP POP PUSH1 0xC0 PUSH2 0x1F3D DUP11 DUP3 DUP12 ADD PUSH2 0x1E3E JUMP JUMPDEST SWAP2 POP POP SWAP3 SWAP6 SWAP9 SWAP2 SWAP5 SWAP8 POP SWAP3 SWAP6 POP JUMP JUMPDEST PUSH1 0x0 DUP1 PUSH1 0x40 DUP4 DUP6 SUB SLT ISZERO PUSH2 0x1F63 JUMPI PUSH2 0x1F62 PUSH2 0x2818 JUMP JUMPDEST JUMPDEST PUSH1 0x0 PUSH2 0x1F71 DUP6 DUP3 DUP7 ADD PUSH2 0x1DFF JUMP JUMPDEST SWAP3 POP POP PUSH1 0x20 PUSH2 0x1F82 DUP6 DUP3 DUP7 ADD PUSH2 0x1E53 JUMP JUMPDEST SWAP2 POP POP SWAP3 POP SWAP3 SWAP1 POP JUMP JUMPDEST PUSH1 0x0 DUP1 PUSH1 0x0 DUP1 PUSH1 0x0 DUP1 PUSH1 0x0 DUP1 PUSH2 0x100 DUP10 DUP12 SUB SLT ISZERO PUSH2 0x1FAD JUMPI PUSH2 0x1FAC PUSH2 0x2818 JUMP JUMPDEST JUMPDEST PUSH1 0x0 PUSH2 0x1FBB DUP12 DUP3 DUP13 ADD PUSH2 0x1DFF JUMP JUMPDEST SWAP9 POP POP PUSH1 0x20 PUSH2 0x1FCC DUP12 DUP3 DUP13 ADD PUSH2 0x1E53 JUMP JUMPDEST SWAP8 POP POP PUSH1 0x40 PUSH2 0x1FDD DUP12 DUP3 DUP13 ADD PUSH2 0x1E29 JUMP JUMPDEST SWAP7 POP POP PUSH1 0x60 PUSH2 0x1FEE DUP12 DUP3 DUP13 ADD PUSH2 0x1E53 JUMP JUMPDEST SWAP6 POP POP PUSH1 0x80 PUSH2 0x1FFF DUP12 DUP3 DUP13 ADD PUSH2 0x1E53 JUMP JUMPDEST SWAP5 POP POP PUSH1 0xA0 PUSH2 0x2010 DUP12 DUP3 DUP13 ADD PUSH2 0x1E14 JUMP JUMPDEST SWAP4 POP POP PUSH1 0xC0 PUSH2 0x2021 DUP12 DUP3 DUP13 ADD PUSH2 0x1E68 JUMP JUMPDEST SWAP3 POP POP PUSH1 0xE0 PUSH2 0x2032 DUP12 DUP3 DUP13 ADD PUSH2 0x1E3E JUMP JUMPDEST SWAP2 POP POP SWAP3 SWAP6 SWAP9 POP SWAP3 SWAP6 SWAP9 SWAP1 SWAP4 SWAP7 POP JUMP JUMPDEST PUSH1 0x0 DUP1 PUSH1 0x0 DUP1 PUSH1 0x0 DUP1 PUSH1 0xC0 DUP8 DUP10 SUB SLT ISZERO PUSH2 0x205F JUMPI PUSH2 0x205E PUSH2 0x2818 JUMP JUMPDEST JUMPDEST PUSH1 0x0 PUSH2 0x206D DUP10 DUP3 DUP11 ADD PUSH2 0x1DFF JUMP JUMPDEST SWAP7 POP POP PUSH1 0x20 PUSH2 0x207E DUP10 DUP3 DUP11 ADD PUSH2 0x1E53 JUMP JUMPDEST SWAP6 POP POP PUSH1 0x40 PUSH2 0x208F DUP10 DUP3 DUP11 ADD PUSH2 0x1E53 JUMP JUMPDEST SWAP5 POP POP PUSH1 0x60 PUSH2 0x20A0 DUP10 DUP3 DUP11 ADD PUSH2 0x1E14 JUMP JUMPDEST SWAP4 POP POP PUSH1 0x80 PUSH2 0x20B1 DUP10 DUP3 DUP11 ADD PUSH2 0x1E68 JUMP JUMPDEST SWAP3 POP POP PUSH1 0xA0 PUSH2 0x20C2 DUP10 DUP3 DUP11 ADD PUSH2 0x1E3E JUMP JUMPDEST SWAP2 POP POP SWAP3 SWAP6 POP SWAP3 SWAP6 POP SWAP3 SWAP6 JUMP JUMPDEST PUSH1 0x0 PUSH1 0x20 DUP3 DUP5 SUB SLT ISZERO PUSH2 0x20E5 JUMPI PUSH2 0x20E4 PUSH2 0x2818 JUMP JUMPDEST JUMPDEST PUSH1 0x0 PUSH2 0x20F3 DUP5 DUP3 DUP6 ADD PUSH2 0x1E68 JUMP JUMPDEST SWAP2 POP POP SWAP3 SWAP2 POP POP JUMP JUMPDEST PUSH2 0x2105 DUP2 PUSH2 0x25B1 JUMP JUMPDEST DUP3 MSTORE POP POP JUMP JUMPDEST PUSH2 0x2114 DUP2 PUSH2 0x25B1 JUMP JUMPDEST DUP3 MSTORE POP POP JUMP JUMPDEST PUSH2 0x2123 DUP2 PUSH2 0x25C3 JUMP JUMPDEST DUP3 MSTORE POP POP JUMP JUMPDEST PUSH2 0x2132 DUP2 PUSH2 0x2683 JUMP JUMPDEST DUP3 MSTORE POP POP JUMP JUMPDEST PUSH2 0x2141 DUP2 PUSH2 0x2695 JUMP JUMPDEST DUP3 MSTORE POP POP JUMP JUMPDEST PUSH2 0x2150 DUP2 PUSH2 0x26A7 JUMP JUMPDEST DUP3 MSTORE POP POP JUMP JUMPDEST PUSH2 0x215F DUP2 PUSH2 0x26B9 JUMP JUMPDEST DUP3 MSTORE POP POP JUMP JUMPDEST PUSH2 0x216E DUP2 PUSH2 0x26CB JUMP JUMPDEST DUP3 MSTORE POP POP JUMP JUMPDEST PUSH1 0x0 PUSH2 0x217F DUP3 PUSH2 0x2595 JUMP JUMPDEST PUSH2 0x2189 DUP2 DUP6 PUSH2 0x25A0 JUMP JUMPDEST SWAP4 POP PUSH2 0x2199 DUP2 DUP6 PUSH1 0x20 DUP7 ADD PUSH2 0x26DD JUMP JUMPDEST PUSH2 0x21A2 DUP2 PUSH2 0x281D JUMP JUMPDEST DUP5 ADD SWAP2 POP POP SWAP3 SWAP2 POP POP JUMP JUMPDEST PUSH1 0x0 PUSH2 0x21BA PUSH1 0x11 DUP4 PUSH2 0x25A0 JUMP JUMPDEST SWAP2 POP PUSH2 0x21C5 DUP3 PUSH2 0x282E JUMP JUMPDEST PUSH1 0x20 DUP3 ADD SWAP1 POP SWAP2 SWAP1 POP JUMP JUMPDEST PUSH1 0x0 PUSH2 0x21DD PUSH1 0x20 DUP4 PUSH2 0x25A0 JUMP JUMPDEST SWAP2 POP PUSH2 0x21E8 DUP3 PUSH2 0x2857 JUMP JUMPDEST PUSH1 0x20 DUP3 ADD SWAP1 POP SWAP2 SWAP1 POP JUMP JUMPDEST PUSH1 0x0 PUSH2 0x2200 PUSH1 0x20 DUP4 PUSH2 0x25A0 JUMP JUMPDEST SWAP2 POP PUSH2 0x220B DUP3 PUSH2 0x2880 JUMP JUMPDEST PUSH1 0x20 DUP3 ADD SWAP1 POP SWAP2 SWAP1 POP JUMP JUMPDEST PUSH1 0x60 DUP3 ADD PUSH1 0x0 DUP3 ADD MLOAD PUSH2 0x222C PUSH1 0x0 DUP6 ADD DUP3 PUSH2 0x2267 JUMP JUMPDEST POP PUSH1 0x20 DUP3 ADD MLOAD PUSH2 0x223F PUSH1 0x20 DUP6 ADD DUP3 PUSH2 0x20FC JUMP JUMPDEST POP PUSH1 0x40 DUP3 ADD MLOAD PUSH2 0x2252 PUSH1 0x40 DUP6 ADD DUP3 PUSH2 0x2138 JUMP JUMPDEST POP POP POP POP JUMP JUMPDEST PUSH2 0x2261 DUP2 PUSH2 0x262E JUMP JUMPDEST DUP3 MSTORE POP POP JUMP JUMPDEST PUSH2 0x2270 DUP2 PUSH2 0x265C JUMP JUMPDEST DUP3 MSTORE POP POP JUMP JUMPDEST PUSH2 0x227F DUP2 PUSH2 0x265C JUMP JUMPDEST DUP3 MSTORE POP POP JUMP JUMPDEST PUSH2 0x228E DUP2 PUSH2 0x2666 JUMP JUMPDEST DUP3 MSTORE POP POP JUMP JUMPDEST PUSH2 0x229D DUP2 PUSH2 0x2676 JUMP JUMPDEST DUP3 MSTORE POP POP JUMP JUMPDEST PUSH1 0x0 PUSH1 0xA0 DUP3 ADD SWAP1 POP PUSH2 0x22B8 PUSH1 0x0 DUP4 ADD DUP9 PUSH2 0x210B JUMP JUMPDEST PUSH2 0x22C5 PUSH1 0x20 DUP4 ADD DUP8 PUSH2 0x2276 JUMP JUMPDEST PUSH2 0x22D2 PUSH1 0x40 DUP4 ADD DUP7 PUSH2 0x2276 JUMP JUMPDEST PUSH2 0x22DF PUSH1 0x60 DUP4 ADD DUP6 PUSH2 0x2129 JUMP JUMPDEST PUSH2 0x22EC PUSH1 0x80 DUP4 ADD DUP5 PUSH2 0x2285 JUMP JUMPDEST SWAP7 SWAP6 POP POP POP POP POP POP JUMP JUMPDEST PUSH1 0x0 PUSH1 0x20 DUP3 ADD SWAP1 POP PUSH2 0x230B PUSH1 0x0 DUP4 ADD DUP5 PUSH2 0x211A JUMP JUMPDEST SWAP3 SWAP2 POP POP JUMP JUMPDEST PUSH1 0x0 PUSH1 0xC0 DUP3 ADD SWAP1 POP PUSH2 0x2326 PUSH1 0x0 DUP4 ADD DUP10 PUSH2 0x211A JUMP JUMPDEST PUSH2 0x2333 PUSH1 0x20 DUP4 ADD DUP9 PUSH2 0x210B JUMP JUMPDEST PUSH2 0x2340 PUSH1 0x40 DUP4 ADD DUP8 PUSH2 0x2258 JUMP JUMPDEST PUSH2 0x234D PUSH1 0x60 DUP4 ADD DUP7 PUSH2 0x2165 JUMP JUMPDEST DUP2 DUP2 SUB PUSH1 0x80 DUP4 ADD MSTORE PUSH2 0x235F DUP2 DUP6 PUSH2 0x2174 JUMP JUMPDEST SWAP1 POP DUP2 DUP2 SUB PUSH1 0xA0 DUP4 ADD MSTORE PUSH2 0x2373 DUP2 DUP5 PUSH2 0x2174 JUMP JUMPDEST SWAP1 POP SWAP8 SWAP7 POP POP POP POP POP POP POP JUMP JUMPDEST PUSH1 0x0 PUSH1 0x60 DUP3 ADD SWAP1 POP PUSH2 0x2395 PUSH1 0x0 DUP4 ADD DUP7 PUSH2 0x211A JUMP JUMPDEST DUP2 DUP2 SUB PUSH1 0x20 DUP4 ADD MSTORE PUSH2 0x23A7 DUP2 DUP6 PUSH2 0x2174 JUMP JUMPDEST SWAP1 POP PUSH2 0x23B6 PUSH1 0x40 DUP4 ADD DUP5 PUSH2 0x2294 JUMP JUMPDEST SWAP5 SWAP4 POP POP POP POP JUMP JUMPDEST PUSH1 0x0 PUSH1 0x80 DUP3 ADD SWAP1 POP PUSH2 0x23D3 PUSH1 0x0 DUP4 ADD DUP8 PUSH2 0x211A JUMP JUMPDEST PUSH2 0x23E0 PUSH1 0x20 DUP4 ADD DUP7 PUSH2 0x2294 JUMP JUMPDEST PUSH2 0x23ED PUSH1 0x40 DUP4 ADD DUP6 PUSH2 0x2276 JUMP JUMPDEST DUP2 DUP2 SUB PUSH1 0x60 DUP4 ADD MSTORE PUSH2 0x23FF DUP2 DUP5 PUSH2 0x2174 JUMP JUMPDEST SWAP1 POP SWAP6 SWAP5 POP POP POP POP POP JUMP JUMPDEST PUSH1 0x0 PUSH1 0xA0 DUP3 ADD SWAP1 POP PUSH2 0x241F PUSH1 0x0 DUP4 ADD DUP9 PUSH2 0x2147 JUMP JUMPDEST PUSH2 0x242C PUSH1 0x20 DUP4 ADD DUP8 PUSH2 0x2276 JUMP JUMPDEST PUSH2 0x2439 PUSH1 0x40 DUP4 ADD DUP7 PUSH2 0x2276 JUMP JUMPDEST PUSH2 0x2446 PUSH1 0x60 DUP4 ADD DUP6 PUSH2 0x2129 JUMP JUMPDEST PUSH2 0x2453 PUSH1 0x80 DUP4 ADD DUP5 PUSH2 0x2285 JUMP JUMPDEST SWAP7 SWAP6 POP POP POP POP POP POP JUMP JUMPDEST PUSH1 0x0 PUSH1 0x20 DUP3 ADD SWAP1 POP DUP2 DUP2 SUB PUSH1 0x0 DUP4 ADD MSTORE PUSH2 0x2476 DUP2 PUSH2 0x21AD JUMP JUMPDEST SWAP1 POP SWAP2 SWAP1 POP JUMP JUMPDEST PUSH1 0x0 PUSH1 0x20 DUP3 ADD SWAP1 POP DUP2 DUP2 SUB PUSH1 0x0 DUP4 ADD MSTORE PUSH2 0x2496 DUP2 PUSH2 0x21D0 JUMP JUMPDEST SWAP1 POP SWAP2 SWAP1 POP JUMP JUMPDEST PUSH1 0x0 PUSH1 0x20 DUP3 ADD SWAP1 POP DUP2 DUP2 SUB PUSH1 0x0 DUP4 ADD MSTORE PUSH2 0x24B6 DUP2 PUSH2 0x21F3 JUMP JUMPDEST SWAP1 POP SWAP2 SWAP1 POP JUMP JUMPDEST PUSH1 0x0 PUSH1 0x20 DUP3 ADD SWAP1 POP PUSH2 0x24D2 PUSH1 0x0 DUP4 ADD DUP5 PUSH2 0x2276 JUMP JUMPDEST SWAP3 SWAP2 POP POP JUMP JUMPDEST PUSH1 0x0 PUSH2 0x160 DUP3 ADD SWAP1 POP PUSH2 0x24EE PUSH1 0x0 DUP4 ADD DUP13 PUSH2 0x2276 JUMP JUMPDEST PUSH2 0x24FB PUSH1 0x20 DUP4 ADD DUP12 PUSH2 0x210B JUMP JUMPDEST PUSH2 0x2508 PUSH1 0x40 DUP4 ADD DUP11 PUSH2 0x2147 JUMP JUMPDEST PUSH2 0x2515 PUSH1 0x60 DUP4 ADD DUP10 PUSH2 0x2276 JUMP JUMPDEST PUSH2 0x2522 PUSH1 0x80 DUP4 ADD DUP9 PUSH2 0x2276 JUMP JUMPDEST PUSH2 0x252F PUSH1 0xA0 DUP4 ADD DUP8 PUSH2 0x2129 JUMP JUMPDEST PUSH2 0x253C PUSH1 0xC0 DUP4 ADD DUP7 PUSH2 0x2285 JUMP JUMPDEST PUSH2 0x2549 PUSH1 0xE0 DUP4 ADD DUP6 PUSH2 0x2156 JUMP JUMPDEST PUSH2 0x2557 PUSH2 0x100 DUP4 ADD DUP5 PUSH2 0x2216 JUMP JUMPDEST SWAP11 SWAP10 POP POP POP POP POP POP POP POP POP POP JUMP JUMPDEST PUSH1 0x0 PUSH1 0x40 DUP3 ADD SWAP1 POP PUSH2 0x257A PUSH1 0x0 DUP4 ADD DUP6 PUSH2 0x2285 JUMP JUMPDEST DUP2 DUP2 SUB PUSH1 0x20 DUP4 ADD MSTORE PUSH2 0x258C DUP2 DUP5 PUSH2 0x2174 JUMP JUMPDEST SWAP1 POP SWAP4 SWAP3 POP POP POP JUMP JUMPDEST PUSH1 0x0 DUP2 MLOAD SWAP1 POP SWAP2 SWAP1 POP JUMP JUMPDEST PUSH1 0x0 DUP3 DUP3 MSTORE PUSH1 0x20 DUP3 ADD SWAP1 POP SWAP3 SWAP2 POP POP JUMP JUMPDEST PUSH1 0x0 PUSH2 0x25BC DUP3 PUSH2 0x263C JUMP JUMPDEST SWAP1 POP SWAP2 SWAP1 POP JUMP JUMPDEST PUSH1 0x0 DUP2 ISZERO ISZERO SWAP1 POP SWAP2 SWAP1 POP JUMP JUMPDEST PUSH1 0x0 DUP2 SWAP1 POP PUSH2 0x25DD DUP3 PUSH2 0x28A9 JUMP JUMPDEST SWAP2 SWAP1 POP JUMP JUMPDEST PUSH1 0x0 DUP2 SWAP1 POP PUSH2 0x25F0 DUP3 PUSH2 0x28BD JUMP JUMPDEST SWAP2 SWAP1 POP JUMP JUMPDEST PUSH1 0x0 DUP2 SWAP1 POP PUSH2 0x2603 DUP3 PUSH2 0x28D1 JUMP JUMPDEST SWAP2 SWAP1 POP JUMP JUMPDEST PUSH1 0x0 DUP2 SWAP1 POP PUSH2 0x2616 DUP3 PUSH2 0x28E5 JUMP JUMPDEST SWAP2 SWAP1 POP JUMP JUMPDEST PUSH1 0x0 DUP2 SWAP1 POP PUSH2 0x2629 DUP3 PUSH2 0x28F9 JUMP JUMPDEST SWAP2 SWAP1 POP JUMP JUMPDEST PUSH1 0x0 PUSH2 0xFFFF DUP3 AND SWAP1 POP SWAP2 SWAP1 POP JUMP JUMPDEST PUSH1 0x0 PUSH20 0xFFFFFFFFFFFFFFFFFFFFFFFFFFFFFFFFFFFFFFFF DUP3 AND SWAP1 POP SWAP2 SWAP1 POP JUMP JUMPDEST PUSH1 0x0 DUP2 SWAP1 POP SWAP2 SWAP1 POP JUMP JUMPDEST PUSH1 0x0 PUSH4 0xFFFFFFFF DUP3 AND SWAP1 POP SWAP2 SWAP1 POP JUMP JUMPDEST PUSH1 0x0 PUSH1 0xFF DUP3 AND SWAP1 POP SWAP2 SWAP1 POP JUMP JUMPDEST PUSH1 0x0 PUSH2 0x268E DUP3 PUSH2 0x25CF JUMP JUMPDEST SWAP1 POP SWAP2 SWAP1 POP JUMP JUMPDEST PUSH1 0x0 PUSH2 0x26A0 DUP3 PUSH2 0x25E2 JUMP JUMPDEST SWAP1 POP SWAP2 SWAP1 POP JUMP JUMPDEST PUSH1 0x0 PUSH2 0x26B2 DUP3 PUSH2 0x25F5 JUMP JUMPDEST SWAP1 POP SWAP2 SWAP1 POP JUMP JUMPDEST PUSH1 0x0 PUSH2 0x26C4 DUP3 PUSH2 0x2608 JUMP JUMPDEST SWAP1 POP SWAP2 SWAP1 POP JUMP JUMPDEST PUSH1 0x0 PUSH2 0x26D6 DUP3 PUSH2 0x261B JUMP JUMPDEST SWAP1 POP SWAP2 SWAP1 POP JUMP JUMPDEST PUSH1 0x0 JUMPDEST DUP4 DUP2 LT ISZERO PUSH2 0x26FB JUMPI DUP1 DUP3 ADD MLOAD DUP2 DUP5 ADD MSTORE PUSH1 0x20 DUP2 ADD SWAP1 POP PUSH2 0x26E0 JUMP JUMPDEST DUP4 DUP2 GT ISZERO PUSH2 0x270A JUMPI PUSH1 0x0 DUP5 DUP5 ADD MSTORE JUMPDEST POP POP POP POP JUMP JUMPDEST PUSH1 0x0 PUSH1 0x2 DUP3 DIV SWAP1 POP PUSH1 0x1 DUP3 AND DUP1 PUSH2 0x2728 JUMPI PUSH1 0x7F DUP3 AND SWAP2 POP JUMPDEST PUSH1 0x20 DUP3 LT DUP2 EQ ISZERO PUSH2 0x273C JUMPI PUSH2 0x273B PUSH2 0x27E9 JUMP JUMPDEST JUMPDEST POP SWAP2 SWAP1 POP JUMP JUMPDEST PUSH1 0x0 PUSH2 0x274D DUP3 PUSH2 0x265C JUMP JUMPDEST SWAP2 POP PUSH32 0xFFFFFFFFFFFFFFFFFFFFFFFFFFFFFFFFFFFFFFFFFFFFFFFFFFFFFFFFFFFFFFFF DUP3 EQ ISZERO PUSH2 0x2780 JUMPI PUSH2 0x277F PUSH2 0x278B JUMP JUMPDEST JUMPDEST PUSH1 0x1 DUP3 ADD SWAP1 POP SWAP2 SWAP1 POP JUMP JUMPDEST PUSH32 0x4E487B7100000000000000000000000000000000000000000000000000000000 PUSH1 0x0 MSTORE PUSH1 0x11 PUSH1 0x4 MSTORE PUSH1 0x24 PUSH1 0x0 REVERT JUMPDEST PUSH32 0x4E487B7100000000000000000000000000000000000000000000000000000000 PUSH1 0x0 MSTORE PUSH1 0x21 PUSH1 0x4 MSTORE PUSH1 0x24 PUSH1 0x0 REVERT JUMPDEST PUSH32 0x4E487B7100000000000000000000000000000000000000000000000000000000 PUSH1 0x0 MSTORE PUSH1 0x22 PUSH1 0x4 MSTORE PUSH1 0x24 PUSH1 0x0 REVERT JUMPDEST PUSH1 0x0 DUP1 REVERT JUMPDEST PUSH1 0x0 PUSH1 0x1F NOT PUSH1 0x1F DUP4 ADD AND SWAP1 POP SWAP2 SWAP1 POP JUMP JUMPDEST PUSH32 0x4B697369206D657663757420646567696C000000000000000000000000000000 PUSH1 0x0 DUP3 ADD MSTORE POP JUMP JUMPDEST PUSH32 0x42752069736C656D6920736164656365204B697369207961706162696C69722E PUSH1 0x0 DUP3 ADD MSTORE POP JUMP JUMPDEST PUSH32 0x42752069736C656D6920736164656365204B757273207961706162696C69722E PUSH1 0x0 DUP3 ADD MSTORE POP JUMP JUMPDEST PUSH1 0x4 DUP2 LT PUSH2 0x28BA JUMPI PUSH2 0x28B9 PUSH2 0x27BA JUMP JUMPDEST JUMPDEST POP JUMP JUMPDEST PUSH1 0x3 DUP2 LT PUSH2 0x28CE JUMPI PUSH2 0x28CD PUSH2 0x27BA JUMP JUMPDEST JUMPDEST POP JUMP JUMPDEST PUSH1 0x6 DUP2 LT PUSH2 0x28E2 JUMPI PUSH2 0x28E1 PUSH2 0x27BA JUMP JUMPDEST JUMPDEST POP JUMP JUMPDEST PUSH1 0x4 DUP2 LT PUSH2 0x28F6 JUMPI PUSH2 0x28F5 PUSH2 0x27BA JUMP JUMPDEST JUMPDEST POP JUMP JUMPDEST PUSH1 0x4 DUP2 LT PUSH2 0x290A JUMPI PUSH2 0x2909 PUSH2 0x27BA JUMP JUMPDEST JUMPDEST POP JUMP JUMPDEST PUSH2 0x2916 DUP2 PUSH2 0x25B1 JUMP JUMPDEST DUP2 EQ PUSH2 0x2921 JUMPI PUSH1 0x0 DUP1 REVERT JUMPDEST POP JUMP JUMPDEST PUSH1 0x4 DUP2 LT PUSH2 0x2931 JUMPI PUSH1 0x0 DUP1 REVERT JUMPDEST POP JUMP JUMPDEST PUSH1 0x6 DUP2 LT PUSH2 0x2941 JUMPI PUSH1 0x0 DUP1 REVERT JUMPDEST POP JUMP JUMPDEST PUSH1 0x4 DUP2 LT PUSH2 0x2951 JUMPI PUSH1 0x0 DUP1 REVERT JUMPDEST POP JUMP JUMPDEST PUSH2 0x295D DUP2 PUSH2 0x265C JUMP JUMPDEST DUP2 EQ PUSH2 0x2968 JUMPI PUSH1 0x0 DUP1 REVERT JUMPDEST POP JUMP JUMPDEST PUSH2 0x2974 DUP2 PUSH2 0x2666 JUMP JUMPDEST DUP2 EQ PUSH2 0x297F JUMPI PUSH1 0x0 DUP1 REVERT JUMPDEST POP JUMP INVALID LOG2 PUSH5 0x6970667358 0x22 SLT KECCAK256 PUSH4 0xF230C97C PUSH31 0x80BF5A2C999087045980D342EA06117EC7CA7F0E703FD3F53F4064736F6C63 NUMBER STOP ADDMOD SMOD STOP CALLER "
				},
				"gasEstimates": {
					"creation": {
						"codeDepositCost": "2136000",
						"executionCost": "2272",
						"totalCost": "2138272"
					},
					"external": {
						"akademisyenler(address)": "infinite",
						"diller(uint32)": "infinite",
						"ekleYabanciDilBilgi(address,uint8,uint256,uint256,uint8,uint32,uint8)": "infinite",
						"firmalar(address)": "infinite",
						"guncelleYabanciDilBilgi(address,uint256,uint8,uint256,uint256,uint8,uint32,uint8)": "infinite",
						"id()": "2451",
						"kamuKurumlari(address)": "infinite",
						"kisiler(address)": "2958",
						"kurslar(address)": "infinite",
						"sertifikaMerkezleri(address)": "infinite",
						"stklar(address)": "infinite",
						"talepEtYabanciDilBilgi(address,uint256,uint256,uint8,uint32,uint8)": "infinite",
						"universiteler(address)": "infinite",
						"yabanciDilBilgiListesi(address,uint256)": "infinite"
					}
				},
				"methodIdentifiers": {
					"akademisyenler(address)": "ba479b7e",
					"diller(uint32)": "a4e7ae05",
					"ekleYabanciDilBilgi(address,uint8,uint256,uint256,uint8,uint32,uint8)": "c0942d97",
					"firmalar(address)": "39987f94",
					"guncelleYabanciDilBilgi(address,uint256,uint8,uint256,uint256,uint8,uint32,uint8)": "1a0dda7f",
					"id()": "af640d0f",
					"kamuKurumlari(address)": "7d0fa287",
					"kisiler(address)": "cbc92809",
					"kurslar(address)": "1916e139",
					"sertifikaMerkezleri(address)": "356b1f1e",
					"stklar(address)": "9a8c9119",
					"talepEtYabanciDilBilgi(address,uint256,uint256,uint8,uint32,uint8)": "011c05e1",
					"universiteler(address)": "28266697",
					"yabanciDilBilgiListesi(address,uint256)": "64b2c66b"
				}
			},
			"storageLayout": {
				"storage": [
					{
						"astId": 3,
						"contract": "contracts/YabanciDilBilgileri.sol:YabanciDilBilgileri",
						"label": "YOK",
						"offset": 0,
						"slot": "0",
						"type": "t_address"
					},
					{
						"astId": 5,
						"contract": "contracts/YabanciDilBilgileri.sol:YabanciDilBilgileri",
						"label": "TOBB",
						"offset": 0,
						"slot": "1",
						"type": "t_address"
					},
					{
						"astId": 7,
						"contract": "contracts/YabanciDilBilgileri.sol:YabanciDilBilgileri",
						"label": "CB",
						"offset": 0,
						"slot": "2",
						"type": "t_address"
					},
					{
						"astId": 249,
						"contract": "contracts/YabanciDilBilgileri.sol:YabanciDilBilgileri",
						"label": "kisiler",
						"offset": 0,
						"slot": "3",
						"type": "t_mapping(t_address,t_struct(Kisi)10_storage)"
					},
					{
						"astId": 254,
						"contract": "contracts/YabanciDilBilgileri.sol:YabanciDilBilgileri",
						"label": "universiteler",
						"offset": 0,
						"slot": "4",
						"type": "t_mapping(t_address,t_struct(Universite)29_storage)"
					},
					{
						"astId": 259,
						"contract": "contracts/YabanciDilBilgileri.sol:YabanciDilBilgileri",
						"label": "akademisyenler",
						"offset": 0,
						"slot": "5",
						"type": "t_mapping(t_address,t_struct(Akademisyen)43_storage)"
					},
					{
						"astId": 264,
						"contract": "contracts/YabanciDilBilgileri.sol:YabanciDilBilgileri",
						"label": "firmalar",
						"offset": 0,
						"slot": "6",
						"type": "t_mapping(t_address,t_struct(Firma)83_storage)"
					},
					{
						"astId": 269,
						"contract": "contracts/YabanciDilBilgileri.sol:YabanciDilBilgileri",
						"label": "kurslar",
						"offset": 0,
						"slot": "7",
						"type": "t_mapping(t_address,t_struct(Kurs)111_storage)"
					},
					{
						"astId": 274,
						"contract": "contracts/YabanciDilBilgileri.sol:YabanciDilBilgileri",
						"label": "kamuKurumlari",
						"offset": 0,
						"slot": "8",
						"type": "t_mapping(t_address,t_struct(KamuKurumu)90_storage)"
					},
					{
						"astId": 279,
						"contract": "contracts/YabanciDilBilgileri.sol:YabanciDilBilgileri",
						"label": "stklar",
						"offset": 0,
						"slot": "9",
						"type": "t_mapping(t_address,t_struct(STK)97_storage)"
					},
					{
						"astId": 284,
						"contract": "contracts/YabanciDilBilgileri.sol:YabanciDilBilgileri",
						"label": "sertifikaMerkezleri",
						"offset": 0,
						"slot": "10",
						"type": "t_mapping(t_address,t_struct(SertifikaMerkezi)104_storage)"
					},
					{
						"astId": 289,
						"contract": "contracts/YabanciDilBilgileri.sol:YabanciDilBilgileri",
						"label": "diller",
						"offset": 0,
						"slot": "11",
						"type": "t_mapping(t_uint32,t_struct(YabanciDil)116_storage)"
					},
					{
						"astId": 867,
						"contract": "contracts/YabanciDilBilgileri.sol:YabanciDilBilgileri",
						"label": "id",
						"offset": 0,
						"slot": "12",
						"type": "t_uint256"
					},
					{
						"astId": 897,
						"contract": "contracts/YabanciDilBilgileri.sol:YabanciDilBilgileri",
						"label": "yabanciDilBilgiListesi",
						"offset": 0,
						"slot": "13",
						"type": "t_mapping(t_address,t_mapping(t_uint256,t_struct(YabanciDilBilgi)890_storage))"
					}
				],
				"types": {
					"t_address": {
						"encoding": "inplace",
						"label": "address",
						"numberOfBytes": "20"
					},
					"t_bool": {
						"encoding": "inplace",
						"label": "bool",
						"numberOfBytes": "1"
					},
					"t_enum(OgretimTipi)335": {
						"encoding": "inplace",
						"label": "enum EgitimBilgileri.OgretimTipi",
						"numberOfBytes": "1"
					},
					"t_enum(OnayDurum)22": {
						"encoding": "inplace",
						"label": "enum BaseContract.OnayDurum",
						"numberOfBytes": "1"
					},
					"t_enum(OnaylayanKurum)74": {
						"encoding": "inplace",
						"label": "enum BaseContract.OnaylayanKurum",
						"numberOfBytes": "1"
					},
					"t_enum(Seviye)53": {
						"encoding": "inplace",
						"label": "enum BaseContract.Seviye",
						"numberOfBytes": "1"
					},
					"t_enum(Unvan)48": {
						"encoding": "inplace",
						"label": "enum BaseContract.Unvan",
						"numberOfBytes": "1"
					},
					"t_mapping(t_address,t_mapping(t_uint256,t_struct(YabanciDilBilgi)890_storage))": {
						"encoding": "mapping",
						"key": "t_address",
						"label": "mapping(address => mapping(uint256 => struct YabanciDilBilgileri.YabanciDilBilgi))",
						"numberOfBytes": "32",
						"value": "t_mapping(t_uint256,t_struct(YabanciDilBilgi)890_storage)"
					},
					"t_mapping(t_address,t_struct(Akademisyen)43_storage)": {
						"encoding": "mapping",
						"key": "t_address",
						"label": "mapping(address => struct BaseContract.Akademisyen)",
						"numberOfBytes": "32",
						"value": "t_struct(Akademisyen)43_storage"
					},
					"t_mapping(t_address,t_struct(Firma)83_storage)": {
						"encoding": "mapping",
						"key": "t_address",
						"label": "mapping(address => struct BaseContract.Firma)",
						"numberOfBytes": "32",
						"value": "t_struct(Firma)83_storage"
					},
					"t_mapping(t_address,t_struct(KamuKurumu)90_storage)": {
						"encoding": "mapping",
						"key": "t_address",
						"label": "mapping(address => struct BaseContract.KamuKurumu)",
						"numberOfBytes": "32",
						"value": "t_struct(KamuKurumu)90_storage"
					},
					"t_mapping(t_address,t_struct(Kisi)10_storage)": {
						"encoding": "mapping",
						"key": "t_address",
						"label": "mapping(address => struct BaseContract.Kisi)",
						"numberOfBytes": "32",
						"value": "t_struct(Kisi)10_storage"
					},
					"t_mapping(t_address,t_struct(Kurs)111_storage)": {
						"encoding": "mapping",
						"key": "t_address",
						"label": "mapping(address => struct BaseContract.Kurs)",
						"numberOfBytes": "32",
						"value": "t_struct(Kurs)111_storage"
					},
					"t_mapping(t_address,t_struct(STK)97_storage)": {
						"encoding": "mapping",
						"key": "t_address",
						"label": "mapping(address => struct BaseContract.STK)",
						"numberOfBytes": "32",
						"value": "t_struct(STK)97_storage"
					},
					"t_mapping(t_address,t_struct(SertifikaMerkezi)104_storage)": {
						"encoding": "mapping",
						"key": "t_address",
						"label": "mapping(address => struct BaseContract.SertifikaMerkezi)",
						"numberOfBytes": "32",
						"value": "t_struct(SertifikaMerkezi)104_storage"
					},
					"t_mapping(t_address,t_struct(Universite)29_storage)": {
						"encoding": "mapping",
						"key": "t_address",
						"label": "mapping(address => struct BaseContract.Universite)",
						"numberOfBytes": "32",
						"value": "t_struct(Universite)29_storage"
					},
					"t_mapping(t_uint256,t_struct(YabanciDilBilgi)890_storage)": {
						"encoding": "mapping",
						"key": "t_uint256",
						"label": "mapping(uint256 => struct YabanciDilBilgileri.YabanciDilBilgi)",
						"numberOfBytes": "32",
						"value": "t_struct(YabanciDilBilgi)890_storage"
					},
					"t_mapping(t_uint32,t_struct(YabanciDil)116_storage)": {
						"encoding": "mapping",
						"key": "t_uint32",
						"label": "mapping(uint32 => struct BaseContract.YabanciDil)",
						"numberOfBytes": "32",
						"value": "t_struct(YabanciDil)116_storage"
					},
					"t_string_storage": {
						"encoding": "bytes",
						"label": "string",
						"numberOfBytes": "32"
					},
					"t_struct(Akademisyen)43_storage": {
						"encoding": "inplace",
						"label": "struct BaseContract.Akademisyen",
						"members": [
							{
								"astId": 31,
								"contract": "contracts/YabanciDilBilgileri.sol:YabanciDilBilgileri",
								"label": "durum",
								"offset": 0,
								"slot": "0",
								"type": "t_bool"
							},
							{
								"astId": 33,
								"contract": "contracts/YabanciDilBilgileri.sol:YabanciDilBilgileri",
								"label": "universite",
								"offset": 1,
								"slot": "0",
								"type": "t_address"
							},
							{
								"astId": 35,
								"contract": "contracts/YabanciDilBilgileri.sol:YabanciDilBilgileri",
								"label": "bolum",
								"offset": 21,
								"slot": "0",
								"type": "t_uint16"
							},
							{
								"astId": 38,
								"contract": "contracts/YabanciDilBilgileri.sol:YabanciDilBilgileri",
								"label": "unvan",
								"offset": 23,
								"slot": "0",
								"type": "t_enum(Unvan)48"
							},
							{
								"astId": 40,
								"contract": "contracts/YabanciDilBilgileri.sol:YabanciDilBilgileri",
								"label": "ad",
								"offset": 0,
								"slot": "1",
								"type": "t_string_storage"
							},
							{
								"astId": 42,
								"contract": "contracts/YabanciDilBilgileri.sol:YabanciDilBilgileri",
								"label": "soyad",
								"offset": 0,
								"slot": "2",
								"type": "t_string_storage"
							}
						],
						"numberOfBytes": "96"
					},
					"t_struct(Firma)83_storage": {
						"encoding": "inplace",
						"label": "struct BaseContract.Firma",
						"members": [
							{
								"astId": 76,
								"contract": "contracts/YabanciDilBilgileri.sol:YabanciDilBilgileri",
								"label": "durum",
								"offset": 0,
								"slot": "0",
								"type": "t_bool"
							},
							{
								"astId": 78,
								"contract": "contracts/YabanciDilBilgileri.sol:YabanciDilBilgileri",
								"label": "ulke",
								"offset": 1,
								"slot": "0",
								"type": "t_uint8"
							},
							{
								"astId": 80,
								"contract": "contracts/YabanciDilBilgileri.sol:YabanciDilBilgileri",
								"label": "vergiNo",
								"offset": 0,
								"slot": "1",
								"type": "t_uint256"
							},
							{
								"astId": 82,
								"contract": "contracts/YabanciDilBilgileri.sol:YabanciDilBilgileri",
								"label": "isim",
								"offset": 0,
								"slot": "2",
								"type": "t_string_storage"
							}
						],
						"numberOfBytes": "96"
					},
					"t_struct(KamuKurumu)90_storage": {
						"encoding": "inplace",
						"label": "struct BaseContract.KamuKurumu",
						"members": [
							{
								"astId": 85,
								"contract": "contracts/YabanciDilBilgileri.sol:YabanciDilBilgileri",
								"label": "durum",
								"offset": 0,
								"slot": "0",
								"type": "t_bool"
							},
							{
								"astId": 87,
								"contract": "contracts/YabanciDilBilgileri.sol:YabanciDilBilgileri",
								"label": "isim",
								"offset": 0,
								"slot": "1",
								"type": "t_string_storage"
							},
							{
								"astId": 89,
								"contract": "contracts/YabanciDilBilgileri.sol:YabanciDilBilgileri",
								"label": "ulke",
								"offset": 0,
								"slot": "2",
								"type": "t_uint8"
							}
						],
						"numberOfBytes": "96"
					},
					"t_struct(Kisi)10_storage": {
						"encoding": "inplace",
						"label": "struct BaseContract.Kisi",
						"members": [
							{
								"astId": 9,
								"contract": "contracts/YabanciDilBilgileri.sol:YabanciDilBilgileri",
								"label": "durum",
								"offset": 0,
								"slot": "0",
								"type": "t_bool"
							}
						],
						"numberOfBytes": "32"
					},
					"t_struct(Kurs)111_storage": {
						"encoding": "inplace",
						"label": "struct BaseContract.Kurs",
						"members": [
							{
								"astId": 106,
								"contract": "contracts/YabanciDilBilgileri.sol:YabanciDilBilgileri",
								"label": "durum",
								"offset": 0,
								"slot": "0",
								"type": "t_bool"
							},
							{
								"astId": 108,
								"contract": "contracts/YabanciDilBilgileri.sol:YabanciDilBilgileri",
								"label": "isim",
								"offset": 0,
								"slot": "1",
								"type": "t_string_storage"
							},
							{
								"astId": 110,
								"contract": "contracts/YabanciDilBilgileri.sol:YabanciDilBilgileri",
								"label": "ulke",
								"offset": 0,
								"slot": "2",
								"type": "t_uint8"
							}
						],
						"numberOfBytes": "96"
					},
					"t_struct(Onay)18_storage": {
						"encoding": "inplace",
						"label": "struct BaseContract.Onay",
						"members": [
							{
								"astId": 12,
								"contract": "contracts/YabanciDilBilgileri.sol:YabanciDilBilgileri",
								"label": "zaman",
								"offset": 0,
								"slot": "0",
								"type": "t_uint256"
							},
							{
								"astId": 14,
								"contract": "contracts/YabanciDilBilgileri.sol:YabanciDilBilgileri",
								"label": "adres",
								"offset": 0,
								"slot": "1",
								"type": "t_address"
							},
							{
								"astId": 17,
								"contract": "contracts/YabanciDilBilgileri.sol:YabanciDilBilgileri",
								"label": "durum",
								"offset": 20,
								"slot": "1",
								"type": "t_enum(OnayDurum)22"
							}
						],
						"numberOfBytes": "64"
					},
					"t_struct(STK)97_storage": {
						"encoding": "inplace",
						"label": "struct BaseContract.STK",
						"members": [
							{
								"astId": 92,
								"contract": "contracts/YabanciDilBilgileri.sol:YabanciDilBilgileri",
								"label": "durum",
								"offset": 0,
								"slot": "0",
								"type": "t_bool"
							},
							{
								"astId": 94,
								"contract": "contracts/YabanciDilBilgileri.sol:YabanciDilBilgileri",
								"label": "isim",
								"offset": 0,
								"slot": "1",
								"type": "t_string_storage"
							},
							{
								"astId": 96,
								"contract": "contracts/YabanciDilBilgileri.sol:YabanciDilBilgileri",
								"label": "ulke",
								"offset": 0,
								"slot": "2",
								"type": "t_uint8"
							}
						],
						"numberOfBytes": "96"
					},
					"t_struct(SertifikaMerkezi)104_storage": {
						"encoding": "inplace",
						"label": "struct BaseContract.SertifikaMerkezi",
						"members": [
							{
								"astId": 99,
								"contract": "contracts/YabanciDilBilgileri.sol:YabanciDilBilgileri",
								"label": "durum",
								"offset": 0,
								"slot": "0",
								"type": "t_bool"
							},
							{
								"astId": 101,
								"contract": "contracts/YabanciDilBilgileri.sol:YabanciDilBilgileri",
								"label": "isim",
								"offset": 0,
								"slot": "1",
								"type": "t_string_storage"
							},
							{
								"astId": 103,
								"contract": "contracts/YabanciDilBilgileri.sol:YabanciDilBilgileri",
								"label": "ulke",
								"offset": 0,
								"slot": "2",
								"type": "t_uint8"
							}
						],
						"numberOfBytes": "96"
					},
					"t_struct(Universite)29_storage": {
						"encoding": "inplace",
						"label": "struct BaseContract.Universite",
						"members": [
							{
								"astId": 24,
								"contract": "contracts/YabanciDilBilgileri.sol:YabanciDilBilgileri",
								"label": "durum",
								"offset": 0,
								"slot": "0",
								"type": "t_bool"
							},
							{
								"astId": 26,
								"contract": "contracts/YabanciDilBilgileri.sol:YabanciDilBilgileri",
								"label": "isim",
								"offset": 0,
								"slot": "1",
								"type": "t_string_storage"
							},
							{
								"astId": 28,
								"contract": "contracts/YabanciDilBilgileri.sol:YabanciDilBilgileri",
								"label": "ulke",
								"offset": 0,
								"slot": "2",
								"type": "t_uint8"
							}
						],
						"numberOfBytes": "96"
					},
					"t_struct(YabanciDil)116_storage": {
						"encoding": "inplace",
						"label": "struct BaseContract.YabanciDil",
						"members": [
							{
								"astId": 113,
								"contract": "contracts/YabanciDilBilgileri.sol:YabanciDilBilgileri",
								"label": "id",
								"offset": 0,
								"slot": "0",
								"type": "t_uint32"
							},
							{
								"astId": 115,
								"contract": "contracts/YabanciDilBilgileri.sol:YabanciDilBilgileri",
								"label": "isim",
								"offset": 0,
								"slot": "1",
								"type": "t_string_storage"
							}
						],
						"numberOfBytes": "64"
					},
					"t_struct(YabanciDilBilgi)890_storage": {
						"encoding": "inplace",
						"label": "struct YabanciDilBilgileri.YabanciDilBilgi",
						"members": [
							{
								"astId": 869,
								"contract": "contracts/YabanciDilBilgileri.sol:YabanciDilBilgileri",
								"label": "id",
								"offset": 0,
								"slot": "0",
								"type": "t_uint256"
							},
							{
								"astId": 871,
								"contract": "contracts/YabanciDilBilgileri.sol:YabanciDilBilgileri",
								"label": "talepEdilenKurum",
								"offset": 0,
								"slot": "1",
								"type": "t_address"
							},
							{
								"astId": 874,
								"contract": "contracts/YabanciDilBilgileri.sol:YabanciDilBilgileri",
								"label": "onayKurumTipi",
								"offset": 20,
								"slot": "1",
								"type": "t_enum(OnaylayanKurum)74"
							},
							{
								"astId": 876,
								"contract": "contracts/YabanciDilBilgileri.sol:YabanciDilBilgileri",
								"label": "basTarih",
								"offset": 0,
								"slot": "2",
								"type": "t_uint256"
							},
							{
								"astId": 878,
								"contract": "contracts/YabanciDilBilgileri.sol:YabanciDilBilgileri",
								"label": "bitTarih",
								"offset": 0,
								"slot": "3",
								"type": "t_uint256"
							},
							{
								"astId": 881,
								"contract": "contracts/YabanciDilBilgileri.sol:YabanciDilBilgileri",
								"label": "ogretimTipi",
								"offset": 0,
								"slot": "4",
								"type": "t_enum(OgretimTipi)335"
							},
							{
								"astId": 883,
								"contract": "contracts/YabanciDilBilgileri.sol:YabanciDilBilgileri",
								"label": "dilId",
								"offset": 1,
								"slot": "4",
								"type": "t_uint32"
							},
							{
								"astId": 886,
								"contract": "contracts/YabanciDilBilgileri.sol:YabanciDilBilgileri",
								"label": "seviye",
								"offset": 5,
								"slot": "4",
								"type": "t_enum(Seviye)53"
							},
							{
								"astId": 889,
								"contract": "contracts/YabanciDilBilgileri.sol:YabanciDilBilgileri",
								"label": "onayBilgi",
								"offset": 0,
								"slot": "5",
								"type": "t_struct(Onay)18_storage"
							}
						],
						"numberOfBytes": "224"
					},
					"t_uint16": {
						"encoding": "inplace",
						"label": "uint16",
						"numberOfBytes": "2"
					},
					"t_uint256": {
						"encoding": "inplace",
						"label": "uint256",
						"numberOfBytes": "32"
					},
					"t_uint32": {
						"encoding": "inplace",
						"label": "uint32",
						"numberOfBytes": "4"
					},
					"t_uint8": {
						"encoding": "inplace",
						"label": "uint8",
						"numberOfBytes": "1"
					}
				}
			},
			"userdoc": {
				"kind": "user",
				"methods": {},
				"version": 1
			}
		}
	}
}