{
	"contracts/EgitimBilgileri.sol": {
		"EgitimBilgileri": {
			"abi": [
				{
					"anonymous": false,
					"inputs": [
						{
							"indexed": false,
							"internalType": "uint256",
							"name": "id",
							"type": "uint256"
						},
						{
							"indexed": false,
							"internalType": "address",
							"name": "_universite",
							"type": "address"
						},
						{
							"indexed": false,
							"internalType": "uint256",
							"name": "basTarih",
							"type": "uint256"
						},
						{
							"indexed": false,
							"internalType": "uint256",
							"name": "bitTarih",
							"type": "uint256"
						}
					],
					"name": "EgitimBilgiEklendiLog",
					"type": "event"
				},
				{
					"inputs": [
						{
							"internalType": "address",
							"name": "",
							"type": "address"
						}
					],
					"name": "academicians",
					"outputs": [
						{
							"internalType": "bool",
							"name": "durum",
							"type": "bool"
						},
						{
							"internalType": "address",
							"name": "universite",
							"type": "address"
						},
						{
							"internalType": "uint16",
							"name": "bolum",
							"type": "uint16"
						},
						{
							"internalType": "enum BaseContract.Unvan",
							"name": "unvan",
							"type": "uint8"
						},
						{
							"internalType": "bytes32",
							"name": "name",
							"type": "bytes32"
						},
						{
							"internalType": "bytes32",
							"name": "surname",
							"type": "bytes32"
						}
					],
					"stateMutability": "view",
					"type": "function"
				},
				{
					"inputs": [
						{
							"internalType": "address",
							"name": "_personAddress",
							"type": "address"
						},
						{
							"components": [
								{
									"internalType": "uint256",
									"name": "id",
									"type": "uint256"
								},
								{
									"internalType": "uint256",
									"name": "basTarih",
									"type": "uint256"
								},
								{
									"internalType": "uint256",
									"name": "bitTarih",
									"type": "uint256"
								},
								{
									"internalType": "uint8",
									"name": "diplomaNotu",
									"type": "uint8"
								},
								{
									"internalType": "bytes32",
									"name": "diplomaBelge",
									"type": "bytes32"
								},
								{
									"internalType": "bytes32",
									"name": "transcriptBelge",
									"type": "bytes32"
								},
								{
									"internalType": "address",
									"name": "universite",
									"type": "address"
								},
								{
									"internalType": "uint16",
									"name": "fakulte",
									"type": "uint16"
								},
								{
									"internalType": "uint16",
									"name": "bolum",
									"type": "uint16"
								},
								{
									"internalType": "uint32",
									"name": "ogretimDili",
									"type": "uint32"
								},
								{
									"internalType": "uint8",
									"name": "ulke",
									"type": "uint8"
								},
								{
									"internalType": "uint32",
									"name": "sehir",
									"type": "uint32"
								}
							],
							"internalType": "struct EgitimBilgileri.EgitimBilgi",
							"name": "_egitimBilgi",
							"type": "tuple"
						}
					],
					"name": "addEgitimBilgi",
					"outputs": [],
					"stateMutability": "nonpayable",
					"type": "function"
				},
				{
					"inputs": [
						{
							"internalType": "address",
							"name": "",
							"type": "address"
						}
					],
					"name": "companies",
					"outputs": [
						{
							"internalType": "bool",
							"name": "status",
							"type": "bool"
						},
						{
							"internalType": "bytes32",
							"name": "country",
							"type": "bytes32"
						},
						{
							"internalType": "uint256",
							"name": "identityNumber",
							"type": "uint256"
						},
						{
							"internalType": "bytes32",
							"name": "name",
							"type": "bytes32"
						}
					],
					"stateMutability": "view",
					"type": "function"
				},
				{
					"inputs": [
						{
							"internalType": "address",
							"name": "",
							"type": "address"
						}
					],
					"name": "courses",
					"outputs": [
						{
							"internalType": "bool",
							"name": "status",
							"type": "bool"
						},
						{
							"internalType": "bytes32",
							"name": "name",
							"type": "bytes32"
						},
						{
							"internalType": "bytes32",
							"name": "country",
							"type": "bytes32"
						}
					],
					"stateMutability": "view",
					"type": "function"
				},
				{
					"inputs": [
						{
							"internalType": "address",
							"name": "",
							"type": "address"
						},
						{
							"internalType": "uint256",
							"name": "",
							"type": "uint256"
						}
					],
					"name": "egitimBilgileri",
					"outputs": [
						{
							"internalType": "uint256",
							"name": "id",
							"type": "uint256"
						},
						{
							"internalType": "uint256",
							"name": "basTarih",
							"type": "uint256"
						},
						{
							"internalType": "uint256",
							"name": "bitTarih",
							"type": "uint256"
						},
						{
							"internalType": "uint8",
							"name": "diplomaNotu",
							"type": "uint8"
						},
						{
							"internalType": "bytes32",
							"name": "diplomaBelge",
							"type": "bytes32"
						},
						{
							"internalType": "bytes32",
							"name": "transcriptBelge",
							"type": "bytes32"
						},
						{
							"internalType": "address",
							"name": "universite",
							"type": "address"
						},
						{
							"internalType": "uint16",
							"name": "fakulte",
							"type": "uint16"
						},
						{
							"internalType": "uint16",
							"name": "bolum",
							"type": "uint16"
						},
						{
							"internalType": "uint32",
							"name": "ogretimDili",
							"type": "uint32"
						},
						{
							"internalType": "uint8",
							"name": "ulke",
							"type": "uint8"
						},
						{
							"internalType": "uint32",
							"name": "sehir",
							"type": "uint32"
						}
					],
					"stateMutability": "view",
					"type": "function"
				},
				{
					"inputs": [],
					"name": "id",
					"outputs": [
						{
							"internalType": "uint256",
							"name": "",
							"type": "uint256"
						}
					],
					"stateMutability": "view",
					"type": "function"
				},
				{
					"inputs": [
						{
							"internalType": "address",
							"name": "",
							"type": "address"
						}
					],
					"name": "ngos",
					"outputs": [
						{
							"internalType": "bool",
							"name": "status",
							"type": "bool"
						},
						{
							"internalType": "bytes32",
							"name": "name",
							"type": "bytes32"
						},
						{
							"internalType": "bytes32",
							"name": "country",
							"type": "bytes32"
						}
					],
					"stateMutability": "view",
					"type": "function"
				},
				{
					"inputs": [
						{
							"internalType": "address",
							"name": "",
							"type": "address"
						}
					],
					"name": "people",
					"outputs": [
						{
							"internalType": "bool",
							"name": "status",
							"type": "bool"
						}
					],
					"stateMutability": "view",
					"type": "function"
				},
				{
					"inputs": [
						{
							"internalType": "address",
							"name": "",
							"type": "address"
						}
					],
					"name": "publicInstitutions",
					"outputs": [
						{
							"internalType": "bool",
							"name": "status",
							"type": "bool"
						},
						{
							"internalType": "bytes32",
							"name": "name",
							"type": "bytes32"
						},
						{
							"internalType": "bytes32",
							"name": "country",
							"type": "bytes32"
						}
					],
					"stateMutability": "view",
					"type": "function"
				},
				{
					"inputs": [
						{
							"internalType": "address",
							"name": "",
							"type": "address"
						}
					],
					"name": "universities",
					"outputs": [
						{
							"internalType": "bool",
							"name": "durum",
							"type": "bool"
						},
						{
							"internalType": "bytes32",
							"name": "isim",
							"type": "bytes32"
						},
						{
							"internalType": "uint8",
							"name": "ulke",
							"type": "uint8"
						}
					],
					"stateMutability": "view",
					"type": "function"
				},
				{
					"inputs": [
						{
							"internalType": "address",
							"name": "_personAddress",
							"type": "address"
						},
						{
							"components": [
								{
									"internalType": "uint256",
									"name": "id",
									"type": "uint256"
								},
								{
									"internalType": "uint256",
									"name": "basTarih",
									"type": "uint256"
								},
								{
									"internalType": "uint256",
									"name": "bitTarih",
									"type": "uint256"
								},
								{
									"internalType": "uint8",
									"name": "diplomaNotu",
									"type": "uint8"
								},
								{
									"internalType": "bytes32",
									"name": "diplomaBelge",
									"type": "bytes32"
								},
								{
									"internalType": "bytes32",
									"name": "transcriptBelge",
									"type": "bytes32"
								},
								{
									"internalType": "address",
									"name": "universite",
									"type": "address"
								},
								{
									"internalType": "uint16",
									"name": "fakulte",
									"type": "uint16"
								},
								{
									"internalType": "uint16",
									"name": "bolum",
									"type": "uint16"
								},
								{
									"internalType": "uint32",
									"name": "ogretimDili",
									"type": "uint32"
								},
								{
									"internalType": "uint8",
									"name": "ulke",
									"type": "uint8"
								},
								{
									"internalType": "uint32",
									"name": "sehir",
									"type": "uint32"
								}
							],
							"internalType": "struct EgitimBilgileri.EgitimBilgi",
							"name": "_egitimBilgi",
							"type": "tuple"
						}
					],
					"name": "updateEgitimBilgi",
					"outputs": [
						{
							"internalType": "uint256",
							"name": "",
							"type": "uint256"
						}
					],
					"stateMutability": "nonpayable",
					"type": "function"
				}
			],
			"devdoc": {
				"kind": "dev",
				"methods": {},
				"version": 1
			},
			"evm": {
				"assembly": "    /* \"contracts/EgitimBilgileri.sol\":100:4296  contract EgitimBilgileri is BaseContract{\r... */\n  mstore(0x40, 0x80)\n  callvalue\n  dup1\n  iszero\n  tag_1\n  jumpi\n  0x00\n  dup1\n  revert\ntag_1:\n  pop\n  dataSize(sub_0)\n  dup1\n  dataOffset(sub_0)\n  0x00\n  codecopy\n  0x00\n  return\nstop\n\nsub_0: assembly {\n        /* \"contracts/EgitimBilgileri.sol\":100:4296  contract EgitimBilgileri is BaseContract{\r... */\n      mstore(0x40, 0x80)\n      callvalue\n      dup1\n      iszero\n      tag_1\n      jumpi\n      0x00\n      dup1\n      revert\n    tag_1:\n      pop\n      jumpi(tag_2, lt(calldatasize, 0x04))\n      shr(0xe0, calldataload(0x00))\n      dup1\n      0x56237aa5\n      gt\n      tag_14\n      jumpi\n      dup1\n      0x56237aa5\n      eq\n      tag_8\n      jumpi\n      dup1\n      0x91d19c86\n      eq\n      tag_9\n      jumpi\n      dup1\n      0x9eaad92a\n      eq\n      tag_10\n      jumpi\n      dup1\n      0xaf640d0f\n      eq\n      tag_11\n      jumpi\n      dup1\n      0xe6f7d11e\n      eq\n      tag_12\n      jumpi\n      dup1\n      0xf0995560\n      eq\n      tag_13\n      jumpi\n      jump(tag_2)\n    tag_14:\n      dup1\n      0x07de9735\n      eq\n      tag_3\n      jumpi\n      dup1\n      0x2fe34736\n      eq\n      tag_4\n      jumpi\n      dup1\n      0x355e6ce8\n      eq\n      tag_5\n      jumpi\n      dup1\n      0x391bf7a7\n      eq\n      tag_6\n      jumpi\n      dup1\n      0x4ed30fb4\n      eq\n      tag_7\n      jumpi\n    tag_2:\n      0x00\n      dup1\n      revert\n        /* \"contracts/BaseContract.sol\":2219:2257  mapping(address=>Person) public people */\n    tag_3:\n      tag_15\n      0x04\n      dup1\n      calldatasize\n      sub\n      dup2\n      add\n      swap1\n      tag_16\n      swap2\n      swap1\n      tag_17\n      jump\t// in\n    tag_16:\n      tag_18\n      jump\t// in\n    tag_15:\n      mload(0x40)\n      tag_19\n      swap2\n      swap1\n      tag_20\n      jump\t// in\n    tag_19:\n      mload(0x40)\n      dup1\n      swap2\n      sub\n      swap1\n      return\n        /* \"contracts/EgitimBilgileri.sol\":907:974  mapping(address=>mapping(uint=>EgitimBilgi)) public egitimBilgileri */\n    tag_4:\n      tag_21\n      0x04\n      dup1\n      calldatasize\n      sub\n      dup2\n      add\n      swap1\n      tag_22\n      swap2\n      swap1\n      tag_23\n      jump\t// in\n    tag_22:\n      tag_24\n      jump\t// in\n    tag_21:\n      mload(0x40)\n      tag_25\n      swap13\n      swap12\n      swap11\n      swap10\n      swap9\n      swap8\n      swap7\n      swap6\n      swap5\n      swap4\n      swap3\n      swap2\n      swap1\n      tag_26\n      jump\t// in\n    tag_25:\n      mload(0x40)\n      dup1\n      swap2\n      sub\n      swap1\n      return\n        /* \"contracts/BaseContract.sol\":2375:2418  mapping(address=>Company) public  companies */\n    tag_5:\n      tag_27\n      0x04\n      dup1\n      calldatasize\n      sub\n      dup2\n      add\n      swap1\n      tag_28\n      swap2\n      swap1\n      tag_17\n      jump\t// in\n    tag_28:\n      tag_29\n      jump\t// in\n    tag_27:\n      mload(0x40)\n      tag_30\n      swap5\n      swap4\n      swap3\n      swap2\n      swap1\n      tag_31\n      jump\t// in\n    tag_30:\n      mload(0x40)\n      dup1\n      swap2\n      sub\n      swap1\n      return\n        /* \"contracts/BaseContract.sol\":2425:2465  mapping(address=>Course) public  courses */\n    tag_6:\n      tag_32\n      0x04\n      dup1\n      calldatasize\n      sub\n      dup2\n      add\n      swap1\n      tag_33\n      swap2\n      swap1\n      tag_17\n      jump\t// in\n    tag_33:\n      tag_34\n      jump\t// in\n    tag_32:\n      mload(0x40)\n      tag_35\n      swap4\n      swap3\n      swap2\n      swap1\n      tag_36\n      jump\t// in\n    tag_35:\n      mload(0x40)\n      dup1\n      swap2\n      sub\n      swap1\n      return\n        /* \"contracts/BaseContract.sol\":2472:2533  mapping(address=>PublicInstitution) public publicInstitutions */\n    tag_7:\n      tag_37\n      0x04\n      dup1\n      calldatasize\n      sub\n      dup2\n      add\n      swap1\n      tag_38\n      swap2\n      swap1\n      tag_17\n      jump\t// in\n    tag_38:\n      tag_39\n      jump\t// in\n    tag_37:\n      mload(0x40)\n      tag_40\n      swap4\n      swap3\n      swap2\n      swap1\n      tag_36\n      jump\t// in\n    tag_40:\n      mload(0x40)\n      dup1\n      swap2\n      sub\n      swap1\n      return\n        /* \"contracts/EgitimBilgileri.sol\":2613:4286  function updateEgitimBilgi(address _personAddress, EgitimBilgi memory _egitimBilgi)  public onlyUniversity returns(uint){\r... */\n    tag_8:\n      tag_41\n      0x04\n      dup1\n      calldatasize\n      sub\n      dup2\n      add\n      swap1\n      tag_42\n      swap2\n      swap1\n      tag_43\n      jump\t// in\n    tag_42:\n      tag_44\n      jump\t// in\n    tag_41:\n      mload(0x40)\n      tag_45\n      swap2\n      swap1\n      tag_46\n      jump\t// in\n    tag_45:\n      mload(0x40)\n      dup1\n      swap2\n      sub\n      swap1\n      return\n        /* \"contracts/EgitimBilgileri.sol\":1100:2604  function addEgitimBilgi(address _personAddress, EgitimBilgi memory _egitimBilgi)  public onlyUniversity{\r... */\n    tag_9:\n      tag_47\n      0x04\n      dup1\n      calldatasize\n      sub\n      dup2\n      add\n      swap1\n      tag_48\n      swap2\n      swap1\n      tag_43\n      jump\t// in\n    tag_48:\n      tag_49\n      jump\t// in\n    tag_47:\n      stop\n        /* \"contracts/BaseContract.sol\":2319:2368  mapping(address=>Akademisyen) public academicians */\n    tag_10:\n      tag_50\n      0x04\n      dup1\n      calldatasize\n      sub\n      dup2\n      add\n      swap1\n      tag_51\n      swap2\n      swap1\n      tag_17\n      jump\t// in\n    tag_51:\n      tag_52\n      jump\t// in\n    tag_50:\n      mload(0x40)\n      tag_53\n      swap7\n      swap6\n      swap5\n      swap4\n      swap3\n      swap2\n      swap1\n      tag_54\n      jump\t// in\n    tag_53:\n      mload(0x40)\n      dup1\n      swap2\n      sub\n      swap1\n      return\n        /* \"contracts/EgitimBilgileri.sol\":145:159  uint public id */\n    tag_11:\n      tag_55\n      tag_56\n      jump\t// in\n    tag_55:\n      mload(0x40)\n      tag_57\n      swap2\n      swap1\n      tag_46\n      jump\t// in\n    tag_57:\n      mload(0x40)\n      dup1\n      swap2\n      sub\n      swap1\n      return\n        /* \"contracts/BaseContract.sol\":2540:2573  mapping(address=>NGO) public ngos */\n    tag_12:\n      tag_58\n      0x04\n      dup1\n      calldatasize\n      sub\n      dup2\n      add\n      swap1\n      tag_59\n      swap2\n      swap1\n      tag_17\n      jump\t// in\n    tag_59:\n      tag_60\n      jump\t// in\n    tag_58:\n      mload(0x40)\n      tag_61\n      swap4\n      swap3\n      swap2\n      swap1\n      tag_36\n      jump\t// in\n    tag_61:\n      mload(0x40)\n      dup1\n      swap2\n      sub\n      swap1\n      return\n        /* \"contracts/BaseContract.sol\":2264:2312  mapping(address=>Universite) public universities */\n    tag_13:\n      tag_62\n      0x04\n      dup1\n      calldatasize\n      sub\n      dup2\n      add\n      swap1\n      tag_63\n      swap2\n      swap1\n      tag_17\n      jump\t// in\n    tag_63:\n      tag_64\n      jump\t// in\n    tag_62:\n      mload(0x40)\n      tag_65\n      swap4\n      swap3\n      swap2\n      swap1\n      tag_66\n      jump\t// in\n    tag_65:\n      mload(0x40)\n      dup1\n      swap2\n      sub\n      swap1\n      return\n        /* \"contracts/BaseContract.sol\":2219:2257  mapping(address=>Person) public people */\n    tag_18:\n      mstore(0x20, 0x03)\n      dup1\n      0x00\n      mstore\n      keccak256(0x00, 0x40)\n      0x00\n      swap2\n      pop\n      swap1\n      pop\n      dup1\n      0x00\n      add\n      0x00\n      swap1\n      sload\n      swap1\n      0x0100\n      exp\n      swap1\n      div\n      0xff\n      and\n      swap1\n      pop\n      dup2\n      jump\t// out\n        /* \"contracts/EgitimBilgileri.sol\":907:974  mapping(address=>mapping(uint=>EgitimBilgi)) public egitimBilgileri */\n    tag_24:\n      mstore(0x20, 0x0b)\n      dup2\n      0x00\n      mstore\n      mstore(0x20, keccak256(0x00, 0x40))\n      dup1\n      0x00\n      mstore\n      keccak256(0x00, 0x40)\n      0x00\n      swap2\n      pop\n      swap2\n      pop\n      pop\n      dup1\n      0x00\n      add\n      sload\n      swap1\n      dup1\n      0x01\n      add\n      sload\n      swap1\n      dup1\n      0x02\n      add\n      sload\n      swap1\n      dup1\n      0x03\n      add\n      0x00\n      swap1\n      sload\n      swap1\n      0x0100\n      exp\n      swap1\n      div\n      0xff\n      and\n      swap1\n      dup1\n      0x04\n      add\n      sload\n      swap1\n      dup1\n      0x05\n      add\n      sload\n      swap1\n      dup1\n      0x06\n      add\n      0x00\n      swap1\n      sload\n      swap1\n      0x0100\n      exp\n      swap1\n      div\n      0xffffffffffffffffffffffffffffffffffffffff\n      and\n      swap1\n      dup1\n      0x06\n      add\n      0x14\n      swap1\n      sload\n      swap1\n      0x0100\n      exp\n      swap1\n      div\n      0xffff\n      and\n      swap1\n      dup1\n      0x06\n      add\n      0x16\n      swap1\n      sload\n      swap1\n      0x0100\n      exp\n      swap1\n      div\n      0xffff\n      and\n      swap1\n      dup1\n      0x06\n      add\n      0x18\n      swap1\n      sload\n      swap1\n      0x0100\n      exp\n      swap1\n      div\n      0xffffffff\n      and\n      swap1\n      dup1\n      0x06\n      add\n      0x1c\n      swap1\n      sload\n      swap1\n      0x0100\n      exp\n      swap1\n      div\n      0xff\n      and\n      swap1\n      dup1\n      0x07\n      add\n      0x00\n      swap1\n      sload\n      swap1\n      0x0100\n      exp\n      swap1\n      div\n      0xffffffff\n      and\n      swap1\n      pop\n      dup13\n      jump\t// out\n        /* \"contracts/BaseContract.sol\":2375:2418  mapping(address=>Company) public  companies */\n    tag_29:\n      mstore(0x20, 0x06)\n      dup1\n      0x00\n      mstore\n      keccak256(0x00, 0x40)\n      0x00\n      swap2\n      pop\n      swap1\n      pop\n      dup1\n      0x00\n      add\n      0x00\n      swap1\n      sload\n      swap1\n      0x0100\n      exp\n      swap1\n      div\n      0xff\n      and\n      swap1\n      dup1\n      0x01\n      add\n      sload\n      swap1\n      dup1\n      0x02\n      add\n      sload\n      swap1\n      dup1\n      0x03\n      add\n      sload\n      swap1\n      pop\n      dup5\n      jump\t// out\n        /* \"contracts/BaseContract.sol\":2425:2465  mapping(address=>Course) public  courses */\n    tag_34:\n      mstore(0x20, 0x07)\n      dup1\n      0x00\n      mstore\n      keccak256(0x00, 0x40)\n      0x00\n      swap2\n      pop\n      swap1\n      pop\n      dup1\n      0x00\n      add\n      0x00\n      swap1\n      sload\n      swap1\n      0x0100\n      exp\n      swap1\n      div\n      0xff\n      and\n      swap1\n      dup1\n      0x01\n      add\n      sload\n      swap1\n      dup1\n      0x02\n      add\n      sload\n      swap1\n      pop\n      dup4\n      jump\t// out\n        /* \"contracts/BaseContract.sol\":2472:2533  mapping(address=>PublicInstitution) public publicInstitutions */\n    tag_39:\n      mstore(0x20, 0x08)\n      dup1\n      0x00\n      mstore\n      keccak256(0x00, 0x40)\n      0x00\n      swap2\n      pop\n      swap1\n      pop\n      dup1\n      0x00\n      add\n      0x00\n      swap1\n      sload\n      swap1\n      0x0100\n      exp\n      swap1\n      div\n      0xff\n      and\n      swap1\n      dup1\n      0x01\n      add\n      sload\n      swap1\n      dup1\n      0x02\n      add\n      sload\n      swap1\n      pop\n      dup4\n      jump\t// out\n        /* \"contracts/EgitimBilgileri.sol\":2613:4286  function updateEgitimBilgi(address _personAddress, EgitimBilgi memory _egitimBilgi)  public onlyUniversity returns(uint){\r... */\n    tag_44:\n        /* \"contracts/EgitimBilgileri.sol\":2728:2732  uint */\n      0x00\n        /* \"contracts/BaseContract.sol\":1585:1597  universities */\n      0x04\n        /* \"contracts/BaseContract.sol\":1585:1609  universities[msg.sender] */\n      0x00\n        /* \"contracts/BaseContract.sol\":1598:1608  msg.sender */\n      caller\n        /* \"contracts/BaseContract.sol\":1585:1609  universities[msg.sender] */\n      0xffffffffffffffffffffffffffffffffffffffff\n      and\n      0xffffffffffffffffffffffffffffffffffffffff\n      and\n      dup2\n      mstore\n      0x20\n      add\n      swap1\n      dup2\n      mstore\n      0x20\n      add\n      0x00\n      keccak256\n        /* \"contracts/BaseContract.sol\":1585:1615  universities[msg.sender].durum */\n      0x00\n      add\n      0x00\n      swap1\n      sload\n      swap1\n      0x0100\n      exp\n      swap1\n      div\n      0xff\n      and\n        /* \"contracts/BaseContract.sol\":1577:1673  require(universities[msg.sender].durum,\r... */\n      tag_68\n      jumpi\n      mload(0x40)\n      0x08c379a000000000000000000000000000000000000000000000000000000000\n      dup2\n      mstore\n      0x04\n      add\n      tag_69\n      swap1\n      tag_70\n      jump\t// in\n    tag_69:\n      mload(0x40)\n      dup1\n      swap2\n      sub\n      swap1\n      revert\n    tag_68:\n        /* \"contracts/EgitimBilgileri.sol\":2757:2763  people */\n      0x03\n        /* \"contracts/EgitimBilgileri.sol\":2757:2779  people[_personAddress] */\n      0x00\n        /* \"contracts/EgitimBilgileri.sol\":2764:2778  _personAddress */\n      dup5\n        /* \"contracts/EgitimBilgileri.sol\":2757:2779  people[_personAddress] */\n      0xffffffffffffffffffffffffffffffffffffffff\n      and\n      0xffffffffffffffffffffffffffffffffffffffff\n      and\n      dup2\n      mstore\n      0x20\n      add\n      swap1\n      dup2\n      mstore\n      0x20\n      add\n      0x00\n      keccak256\n        /* \"contracts/EgitimBilgileri.sol\":2757:2786  people[_personAddress].status */\n      0x00\n      add\n      0x00\n      swap1\n      sload\n      swap1\n      0x0100\n      exp\n      swap1\n      div\n      0xff\n      and\n        /* \"contracts/EgitimBilgileri.sol\":2749:2808  require(people[_personAddress].status,\"Student not exists\") */\n      tag_72\n      jumpi\n      mload(0x40)\n      0x08c379a000000000000000000000000000000000000000000000000000000000\n      dup2\n      mstore\n      0x04\n      add\n      tag_73\n      swap1\n      tag_74\n      jump\t// in\n    tag_73:\n      mload(0x40)\n      dup1\n      swap2\n      sub\n      swap1\n      revert\n    tag_72:\n        /* \"contracts/EgitimBilgileri.sol\":3002:3014  _egitimBilgi */\n      dup2\n        /* \"contracts/EgitimBilgileri.sol\":3002:3023  _egitimBilgi.basTarih */\n      0x20\n      add\n      mload\n        /* \"contracts/EgitimBilgileri.sol\":2944:2959  egitimBilgileri */\n      0x0b\n        /* \"contracts/EgitimBilgileri.sol\":2944:2975  egitimBilgileri[_personAddress] */\n      0x00\n        /* \"contracts/EgitimBilgileri.sol\":2960:2974  _personAddress */\n      dup6\n        /* \"contracts/EgitimBilgileri.sol\":2944:2975  egitimBilgileri[_personAddress] */\n      0xffffffffffffffffffffffffffffffffffffffff\n      and\n      0xffffffffffffffffffffffffffffffffffffffff\n      and\n      dup2\n      mstore\n      0x20\n      add\n      swap1\n      dup2\n      mstore\n      0x20\n      add\n      0x00\n      keccak256\n        /* \"contracts/EgitimBilgileri.sol\":2944:2992  egitimBilgileri[_personAddress][_egitimBilgi.id] */\n      0x00\n        /* \"contracts/EgitimBilgileri.sol\":2976:2988  _egitimBilgi */\n      dup5\n        /* \"contracts/EgitimBilgileri.sol\":2976:2991  _egitimBilgi.id */\n      0x00\n      add\n      mload\n        /* \"contracts/EgitimBilgileri.sol\":2944:2992  egitimBilgileri[_personAddress][_egitimBilgi.id] */\n      dup2\n      mstore\n      0x20\n      add\n      swap1\n      dup2\n      mstore\n      0x20\n      add\n      0x00\n      keccak256\n        /* \"contracts/EgitimBilgileri.sol\":2944:3001  egitimBilgileri[_personAddress][_egitimBilgi.id].basTarih */\n      0x01\n      add\n        /* \"contracts/EgitimBilgileri.sol\":2944:3023  egitimBilgileri[_personAddress][_egitimBilgi.id].basTarih=_egitimBilgi.basTarih */\n      dup2\n      swap1\n      sstore\n      pop\n        /* \"contracts/EgitimBilgileri.sol\":3097:3109  _egitimBilgi */\n      dup2\n        /* \"contracts/EgitimBilgileri.sol\":3097:3118  _egitimBilgi.bitTarih */\n      0x40\n      add\n      mload\n        /* \"contracts/EgitimBilgileri.sol\":3039:3054  egitimBilgileri */\n      0x0b\n        /* \"contracts/EgitimBilgileri.sol\":3039:3070  egitimBilgileri[_personAddress] */\n      0x00\n        /* \"contracts/EgitimBilgileri.sol\":3055:3069  _personAddress */\n      dup6\n        /* \"contracts/EgitimBilgileri.sol\":3039:3070  egitimBilgileri[_personAddress] */\n      0xffffffffffffffffffffffffffffffffffffffff\n      and\n      0xffffffffffffffffffffffffffffffffffffffff\n      and\n      dup2\n      mstore\n      0x20\n      add\n      swap1\n      dup2\n      mstore\n      0x20\n      add\n      0x00\n      keccak256\n        /* \"contracts/EgitimBilgileri.sol\":3039:3087  egitimBilgileri[_personAddress][_egitimBilgi.id] */\n      0x00\n        /* \"contracts/EgitimBilgileri.sol\":3071:3083  _egitimBilgi */\n      dup5\n        /* \"contracts/EgitimBilgileri.sol\":3071:3086  _egitimBilgi.id */\n      0x00\n      add\n      mload\n        /* \"contracts/EgitimBilgileri.sol\":3039:3087  egitimBilgileri[_personAddress][_egitimBilgi.id] */\n      dup2\n      mstore\n      0x20\n      add\n      swap1\n      dup2\n      mstore\n      0x20\n      add\n      0x00\n      keccak256\n        /* \"contracts/EgitimBilgileri.sol\":3039:3096  egitimBilgileri[_personAddress][_egitimBilgi.id].bitTarih */\n      0x02\n      add\n        /* \"contracts/EgitimBilgileri.sol\":3039:3118  egitimBilgileri[_personAddress][_egitimBilgi.id].bitTarih=_egitimBilgi.bitTarih */\n      dup2\n      swap1\n      sstore\n      pop\n        /* \"contracts/EgitimBilgileri.sol\":3195:3207  _egitimBilgi */\n      dup2\n        /* \"contracts/EgitimBilgileri.sol\":3195:3219  _egitimBilgi.diplomaNotu */\n      0x60\n      add\n      mload\n        /* \"contracts/EgitimBilgileri.sol\":3134:3149  egitimBilgileri */\n      0x0b\n        /* \"contracts/EgitimBilgileri.sol\":3134:3165  egitimBilgileri[_personAddress] */\n      0x00\n        /* \"contracts/EgitimBilgileri.sol\":3150:3164  _personAddress */\n      dup6\n        /* \"contracts/EgitimBilgileri.sol\":3134:3165  egitimBilgileri[_personAddress] */\n      0xffffffffffffffffffffffffffffffffffffffff\n      and\n      0xffffffffffffffffffffffffffffffffffffffff\n      and\n      dup2\n      mstore\n      0x20\n      add\n      swap1\n      dup2\n      mstore\n      0x20\n      add\n      0x00\n      keccak256\n        /* \"contracts/EgitimBilgileri.sol\":3134:3182  egitimBilgileri[_personAddress][_egitimBilgi.id] */\n      0x00\n        /* \"contracts/EgitimBilgileri.sol\":3166:3178  _egitimBilgi */\n      dup5\n        /* \"contracts/EgitimBilgileri.sol\":3166:3181  _egitimBilgi.id */\n      0x00\n      add\n      mload\n        /* \"contracts/EgitimBilgileri.sol\":3134:3182  egitimBilgileri[_personAddress][_egitimBilgi.id] */\n      dup2\n      mstore\n      0x20\n      add\n      swap1\n      dup2\n      mstore\n      0x20\n      add\n      0x00\n      keccak256\n        /* \"contracts/EgitimBilgileri.sol\":3134:3194  egitimBilgileri[_personAddress][_egitimBilgi.id].diplomaNotu */\n      0x03\n      add\n      0x00\n        /* \"contracts/EgitimBilgileri.sol\":3134:3219  egitimBilgileri[_personAddress][_egitimBilgi.id].diplomaNotu=_egitimBilgi.diplomaNotu */\n      0x0100\n      exp\n      dup2\n      sload\n      dup2\n      0xff\n      mul\n      not\n      and\n      swap1\n      dup4\n      0xff\n      and\n      mul\n      or\n      swap1\n      sstore\n      pop\n        /* \"contracts/EgitimBilgileri.sol\":3297:3309  _egitimBilgi */\n      dup2\n        /* \"contracts/EgitimBilgileri.sol\":3297:3322  _egitimBilgi.diplomaBelge */\n      0x80\n      add\n      mload\n        /* \"contracts/EgitimBilgileri.sol\":3235:3250  egitimBilgileri */\n      0x0b\n        /* \"contracts/EgitimBilgileri.sol\":3235:3266  egitimBilgileri[_personAddress] */\n      0x00\n        /* \"contracts/EgitimBilgileri.sol\":3251:3265  _personAddress */\n      dup6\n        /* \"contracts/EgitimBilgileri.sol\":3235:3266  egitimBilgileri[_personAddress] */\n      0xffffffffffffffffffffffffffffffffffffffff\n      and\n      0xffffffffffffffffffffffffffffffffffffffff\n      and\n      dup2\n      mstore\n      0x20\n      add\n      swap1\n      dup2\n      mstore\n      0x20\n      add\n      0x00\n      keccak256\n        /* \"contracts/EgitimBilgileri.sol\":3235:3283  egitimBilgileri[_personAddress][_egitimBilgi.id] */\n      0x00\n        /* \"contracts/EgitimBilgileri.sol\":3267:3279  _egitimBilgi */\n      dup5\n        /* \"contracts/EgitimBilgileri.sol\":3267:3282  _egitimBilgi.id */\n      0x00\n      add\n      mload\n        /* \"contracts/EgitimBilgileri.sol\":3235:3283  egitimBilgileri[_personAddress][_egitimBilgi.id] */\n      dup2\n      mstore\n      0x20\n      add\n      swap1\n      dup2\n      mstore\n      0x20\n      add\n      0x00\n      keccak256\n        /* \"contracts/EgitimBilgileri.sol\":3235:3296  egitimBilgileri[_personAddress][_egitimBilgi.id].diplomaBelge */\n      0x04\n      add\n        /* \"contracts/EgitimBilgileri.sol\":3235:3322  egitimBilgileri[_personAddress][_egitimBilgi.id].diplomaBelge=_egitimBilgi.diplomaBelge */\n      dup2\n      swap1\n      sstore\n      pop\n        /* \"contracts/EgitimBilgileri.sol\":3403:3415  _egitimBilgi */\n      dup2\n        /* \"contracts/EgitimBilgileri.sol\":3403:3431  _egitimBilgi.transcriptBelge */\n      0xa0\n      add\n      mload\n        /* \"contracts/EgitimBilgileri.sol\":3338:3353  egitimBilgileri */\n      0x0b\n        /* \"contracts/EgitimBilgileri.sol\":3338:3369  egitimBilgileri[_personAddress] */\n      0x00\n        /* \"contracts/EgitimBilgileri.sol\":3354:3368  _personAddress */\n      dup6\n        /* \"contracts/EgitimBilgileri.sol\":3338:3369  egitimBilgileri[_personAddress] */\n      0xffffffffffffffffffffffffffffffffffffffff\n      and\n      0xffffffffffffffffffffffffffffffffffffffff\n      and\n      dup2\n      mstore\n      0x20\n      add\n      swap1\n      dup2\n      mstore\n      0x20\n      add\n      0x00\n      keccak256\n        /* \"contracts/EgitimBilgileri.sol\":3338:3386  egitimBilgileri[_personAddress][_egitimBilgi.id] */\n      0x00\n        /* \"contracts/EgitimBilgileri.sol\":3370:3382  _egitimBilgi */\n      dup5\n        /* \"contracts/EgitimBilgileri.sol\":3370:3385  _egitimBilgi.id */\n      0x00\n      add\n      mload\n        /* \"contracts/EgitimBilgileri.sol\":3338:3386  egitimBilgileri[_personAddress][_egitimBilgi.id] */\n      dup2\n      mstore\n      0x20\n      add\n      swap1\n      dup2\n      mstore\n      0x20\n      add\n      0x00\n      keccak256\n        /* \"contracts/EgitimBilgileri.sol\":3338:3402  egitimBilgileri[_personAddress][_egitimBilgi.id].transcriptBelge */\n      0x05\n      add\n        /* \"contracts/EgitimBilgileri.sol\":3338:3431  egitimBilgileri[_personAddress][_egitimBilgi.id].transcriptBelge=_egitimBilgi.transcriptBelge */\n      dup2\n      swap1\n      sstore\n      pop\n        /* \"contracts/EgitimBilgileri.sol\":3507:3519  _egitimBilgi */\n      dup2\n        /* \"contracts/EgitimBilgileri.sol\":3507:3530  _egitimBilgi.universite */\n      0xc0\n      add\n      mload\n        /* \"contracts/EgitimBilgileri.sol\":3447:3462  egitimBilgileri */\n      0x0b\n        /* \"contracts/EgitimBilgileri.sol\":3447:3478  egitimBilgileri[_personAddress] */\n      0x00\n        /* \"contracts/EgitimBilgileri.sol\":3463:3477  _personAddress */\n      dup6\n        /* \"contracts/EgitimBilgileri.sol\":3447:3478  egitimBilgileri[_personAddress] */\n      0xffffffffffffffffffffffffffffffffffffffff\n      and\n      0xffffffffffffffffffffffffffffffffffffffff\n      and\n      dup2\n      mstore\n      0x20\n      add\n      swap1\n      dup2\n      mstore\n      0x20\n      add\n      0x00\n      keccak256\n        /* \"contracts/EgitimBilgileri.sol\":3447:3495  egitimBilgileri[_personAddress][_egitimBilgi.id] */\n      0x00\n        /* \"contracts/EgitimBilgileri.sol\":3479:3491  _egitimBilgi */\n      dup5\n        /* \"contracts/EgitimBilgileri.sol\":3479:3494  _egitimBilgi.id */\n      0x00\n      add\n      mload\n        /* \"contracts/EgitimBilgileri.sol\":3447:3495  egitimBilgileri[_personAddress][_egitimBilgi.id] */\n      dup2\n      mstore\n      0x20\n      add\n      swap1\n      dup2\n      mstore\n      0x20\n      add\n      0x00\n      keccak256\n        /* \"contracts/EgitimBilgileri.sol\":3447:3506  egitimBilgileri[_personAddress][_egitimBilgi.id].universite */\n      0x06\n      add\n      0x00\n        /* \"contracts/EgitimBilgileri.sol\":3447:3530  egitimBilgileri[_personAddress][_egitimBilgi.id].universite=_egitimBilgi.universite */\n      0x0100\n      exp\n      dup2\n      sload\n      dup2\n      0xffffffffffffffffffffffffffffffffffffffff\n      mul\n      not\n      and\n      swap1\n      dup4\n      0xffffffffffffffffffffffffffffffffffffffff\n      and\n      mul\n      or\n      swap1\n      sstore\n      pop\n        /* \"contracts/EgitimBilgileri.sol\":3603:3615  _egitimBilgi */\n      dup2\n        /* \"contracts/EgitimBilgileri.sol\":3603:3623  _egitimBilgi.fakulte */\n      0xe0\n      add\n      mload\n        /* \"contracts/EgitimBilgileri.sol\":3546:3561  egitimBilgileri */\n      0x0b\n        /* \"contracts/EgitimBilgileri.sol\":3546:3577  egitimBilgileri[_personAddress] */\n      0x00\n        /* \"contracts/EgitimBilgileri.sol\":3562:3576  _personAddress */\n      dup6\n        /* \"contracts/EgitimBilgileri.sol\":3546:3577  egitimBilgileri[_personAddress] */\n      0xffffffffffffffffffffffffffffffffffffffff\n      and\n      0xffffffffffffffffffffffffffffffffffffffff\n      and\n      dup2\n      mstore\n      0x20\n      add\n      swap1\n      dup2\n      mstore\n      0x20\n      add\n      0x00\n      keccak256\n        /* \"contracts/EgitimBilgileri.sol\":3546:3594  egitimBilgileri[_personAddress][_egitimBilgi.id] */\n      0x00\n        /* \"contracts/EgitimBilgileri.sol\":3578:3590  _egitimBilgi */\n      dup5\n        /* \"contracts/EgitimBilgileri.sol\":3578:3593  _egitimBilgi.id */\n      0x00\n      add\n      mload\n        /* \"contracts/EgitimBilgileri.sol\":3546:3594  egitimBilgileri[_personAddress][_egitimBilgi.id] */\n      dup2\n      mstore\n      0x20\n      add\n      swap1\n      dup2\n      mstore\n      0x20\n      add\n      0x00\n      keccak256\n        /* \"contracts/EgitimBilgileri.sol\":3546:3602  egitimBilgileri[_personAddress][_egitimBilgi.id].fakulte */\n      0x06\n      add\n      0x14\n        /* \"contracts/EgitimBilgileri.sol\":3546:3623  egitimBilgileri[_personAddress][_egitimBilgi.id].fakulte=_egitimBilgi.fakulte */\n      0x0100\n      exp\n      dup2\n      sload\n      dup2\n      0xffff\n      mul\n      not\n      and\n      swap1\n      dup4\n      0xffff\n      and\n      mul\n      or\n      swap1\n      sstore\n      pop\n        /* \"contracts/EgitimBilgileri.sol\":3694:3706  _egitimBilgi */\n      dup2\n        /* \"contracts/EgitimBilgileri.sol\":3694:3712  _egitimBilgi.bolum */\n      0x0100\n      add\n      mload\n        /* \"contracts/EgitimBilgileri.sol\":3639:3654  egitimBilgileri */\n      0x0b\n        /* \"contracts/EgitimBilgileri.sol\":3639:3670  egitimBilgileri[_personAddress] */\n      0x00\n        /* \"contracts/EgitimBilgileri.sol\":3655:3669  _personAddress */\n      dup6\n        /* \"contracts/EgitimBilgileri.sol\":3639:3670  egitimBilgileri[_personAddress] */\n      0xffffffffffffffffffffffffffffffffffffffff\n      and\n      0xffffffffffffffffffffffffffffffffffffffff\n      and\n      dup2\n      mstore\n      0x20\n      add\n      swap1\n      dup2\n      mstore\n      0x20\n      add\n      0x00\n      keccak256\n        /* \"contracts/EgitimBilgileri.sol\":3639:3687  egitimBilgileri[_personAddress][_egitimBilgi.id] */\n      0x00\n        /* \"contracts/EgitimBilgileri.sol\":3671:3683  _egitimBilgi */\n      dup5\n        /* \"contracts/EgitimBilgileri.sol\":3671:3686  _egitimBilgi.id */\n      0x00\n      add\n      mload\n        /* \"contracts/EgitimBilgileri.sol\":3639:3687  egitimBilgileri[_personAddress][_egitimBilgi.id] */\n      dup2\n      mstore\n      0x20\n      add\n      swap1\n      dup2\n      mstore\n      0x20\n      add\n      0x00\n      keccak256\n        /* \"contracts/EgitimBilgileri.sol\":3639:3693  egitimBilgileri[_personAddress][_egitimBilgi.id].bolum */\n      0x06\n      add\n      0x16\n        /* \"contracts/EgitimBilgileri.sol\":3639:3712  egitimBilgileri[_personAddress][_egitimBilgi.id].bolum=_egitimBilgi.bolum */\n      0x0100\n      exp\n      dup2\n      sload\n      dup2\n      0xffff\n      mul\n      not\n      and\n      swap1\n      dup4\n      0xffff\n      and\n      mul\n      or\n      swap1\n      sstore\n      pop\n        /* \"contracts/EgitimBilgileri.sol\":3892:3904  _egitimBilgi */\n      dup2\n        /* \"contracts/EgitimBilgileri.sol\":3892:3916  _egitimBilgi.ogretimDili */\n      0x0120\n      add\n      mload\n        /* \"contracts/EgitimBilgileri.sol\":3831:3846  egitimBilgileri */\n      0x0b\n        /* \"contracts/EgitimBilgileri.sol\":3831:3862  egitimBilgileri[_personAddress] */\n      0x00\n        /* \"contracts/EgitimBilgileri.sol\":3847:3861  _personAddress */\n      dup6\n        /* \"contracts/EgitimBilgileri.sol\":3831:3862  egitimBilgileri[_personAddress] */\n      0xffffffffffffffffffffffffffffffffffffffff\n      and\n      0xffffffffffffffffffffffffffffffffffffffff\n      and\n      dup2\n      mstore\n      0x20\n      add\n      swap1\n      dup2\n      mstore\n      0x20\n      add\n      0x00\n      keccak256\n        /* \"contracts/EgitimBilgileri.sol\":3831:3879  egitimBilgileri[_personAddress][_egitimBilgi.id] */\n      0x00\n        /* \"contracts/EgitimBilgileri.sol\":3863:3875  _egitimBilgi */\n      dup5\n        /* \"contracts/EgitimBilgileri.sol\":3863:3878  _egitimBilgi.id */\n      0x00\n      add\n      mload\n        /* \"contracts/EgitimBilgileri.sol\":3831:3879  egitimBilgileri[_personAddress][_egitimBilgi.id] */\n      dup2\n      mstore\n      0x20\n      add\n      swap1\n      dup2\n      mstore\n      0x20\n      add\n      0x00\n      keccak256\n        /* \"contracts/EgitimBilgileri.sol\":3831:3891  egitimBilgileri[_personAddress][_egitimBilgi.id].ogretimDili */\n      0x06\n      add\n      0x18\n        /* \"contracts/EgitimBilgileri.sol\":3831:3916  egitimBilgileri[_personAddress][_egitimBilgi.id].ogretimDili=_egitimBilgi.ogretimDili */\n      0x0100\n      exp\n      dup2\n      sload\n      dup2\n      0xffffffff\n      mul\n      not\n      and\n      swap1\n      dup4\n      0xffffffff\n      and\n      mul\n      or\n      swap1\n      sstore\n      pop\n        /* \"contracts/EgitimBilgileri.sol\":3986:3998  _egitimBilgi */\n      dup2\n        /* \"contracts/EgitimBilgileri.sol\":3986:4003  _egitimBilgi.ulke */\n      0x0140\n      add\n      mload\n        /* \"contracts/EgitimBilgileri.sol\":3932:3947  egitimBilgileri */\n      0x0b\n        /* \"contracts/EgitimBilgileri.sol\":3932:3963  egitimBilgileri[_personAddress] */\n      0x00\n        /* \"contracts/EgitimBilgileri.sol\":3948:3962  _personAddress */\n      dup6\n        /* \"contracts/EgitimBilgileri.sol\":3932:3963  egitimBilgileri[_personAddress] */\n      0xffffffffffffffffffffffffffffffffffffffff\n      and\n      0xffffffffffffffffffffffffffffffffffffffff\n      and\n      dup2\n      mstore\n      0x20\n      add\n      swap1\n      dup2\n      mstore\n      0x20\n      add\n      0x00\n      keccak256\n        /* \"contracts/EgitimBilgileri.sol\":3932:3980  egitimBilgileri[_personAddress][_egitimBilgi.id] */\n      0x00\n        /* \"contracts/EgitimBilgileri.sol\":3964:3976  _egitimBilgi */\n      dup5\n        /* \"contracts/EgitimBilgileri.sol\":3964:3979  _egitimBilgi.id */\n      0x00\n      add\n      mload\n        /* \"contracts/EgitimBilgileri.sol\":3932:3980  egitimBilgileri[_personAddress][_egitimBilgi.id] */\n      dup2\n      mstore\n      0x20\n      add\n      swap1\n      dup2\n      mstore\n      0x20\n      add\n      0x00\n      keccak256\n        /* \"contracts/EgitimBilgileri.sol\":3932:3985  egitimBilgileri[_personAddress][_egitimBilgi.id].ulke */\n      0x06\n      add\n      0x1c\n        /* \"contracts/EgitimBilgileri.sol\":3932:4003  egitimBilgileri[_personAddress][_egitimBilgi.id].ulke=_egitimBilgi.ulke */\n      0x0100\n      exp\n      dup2\n      sload\n      dup2\n      0xff\n      mul\n      not\n      and\n      swap1\n      dup4\n      0xff\n      and\n      mul\n      or\n      swap1\n      sstore\n      pop\n        /* \"contracts/EgitimBilgileri.sol\":4074:4086  _egitimBilgi */\n      dup2\n        /* \"contracts/EgitimBilgileri.sol\":4074:4092  _egitimBilgi.sehir */\n      0x0160\n      add\n      mload\n        /* \"contracts/EgitimBilgileri.sol\":4019:4034  egitimBilgileri */\n      0x0b\n        /* \"contracts/EgitimBilgileri.sol\":4019:4050  egitimBilgileri[_personAddress] */\n      0x00\n        /* \"contracts/EgitimBilgileri.sol\":4035:4049  _personAddress */\n      dup6\n        /* \"contracts/EgitimBilgileri.sol\":4019:4050  egitimBilgileri[_personAddress] */\n      0xffffffffffffffffffffffffffffffffffffffff\n      and\n      0xffffffffffffffffffffffffffffffffffffffff\n      and\n      dup2\n      mstore\n      0x20\n      add\n      swap1\n      dup2\n      mstore\n      0x20\n      add\n      0x00\n      keccak256\n        /* \"contracts/EgitimBilgileri.sol\":4019:4067  egitimBilgileri[_personAddress][_egitimBilgi.id] */\n      0x00\n        /* \"contracts/EgitimBilgileri.sol\":4051:4063  _egitimBilgi */\n      dup5\n        /* \"contracts/EgitimBilgileri.sol\":4051:4066  _egitimBilgi.id */\n      0x00\n      add\n      mload\n        /* \"contracts/EgitimBilgileri.sol\":4019:4067  egitimBilgileri[_personAddress][_egitimBilgi.id] */\n      dup2\n      mstore\n      0x20\n      add\n      swap1\n      dup2\n      mstore\n      0x20\n      add\n      0x00\n      keccak256\n        /* \"contracts/EgitimBilgileri.sol\":4019:4073  egitimBilgileri[_personAddress][_egitimBilgi.id].sehir */\n      0x07\n      add\n      0x00\n        /* \"contracts/EgitimBilgileri.sol\":4019:4092  egitimBilgileri[_personAddress][_egitimBilgi.id].sehir=_egitimBilgi.sehir */\n      0x0100\n      exp\n      dup2\n      sload\n      dup2\n      0xffffffff\n      mul\n      not\n      and\n      swap1\n      dup4\n      0xffffffff\n      and\n      mul\n      or\n      swap1\n      sstore\n      pop\n        /* \"contracts/EgitimBilgileri.sol\":4126:4235  EgitimBilgiEklendiLog( _egitimBilgi.id, _egitimBilgi.universite,_egitimBilgi.basTarih, _egitimBilgi.bitTarih) */\n      0x9cbca7384fc1faed2b0399bc0f183e39f1de460a603e21db7ece2d0870ff424c\n        /* \"contracts/EgitimBilgileri.sol\":4149:4161  _egitimBilgi */\n      dup3\n        /* \"contracts/EgitimBilgileri.sol\":4149:4164  _egitimBilgi.id */\n      0x00\n      add\n      mload\n        /* \"contracts/EgitimBilgileri.sol\":4166:4178  _egitimBilgi */\n      dup4\n        /* \"contracts/EgitimBilgileri.sol\":4166:4189  _egitimBilgi.universite */\n      0xc0\n      add\n      mload\n        /* \"contracts/EgitimBilgileri.sol\":4190:4202  _egitimBilgi */\n      dup5\n        /* \"contracts/EgitimBilgileri.sol\":4190:4211  _egitimBilgi.basTarih */\n      0x20\n      add\n      mload\n        /* \"contracts/EgitimBilgileri.sol\":4213:4225  _egitimBilgi */\n      dup6\n        /* \"contracts/EgitimBilgileri.sol\":4213:4234  _egitimBilgi.bitTarih */\n      0x40\n      add\n      mload\n        /* \"contracts/EgitimBilgileri.sol\":4126:4235  EgitimBilgiEklendiLog( _egitimBilgi.id, _egitimBilgi.universite,_egitimBilgi.basTarih, _egitimBilgi.bitTarih) */\n      mload(0x40)\n      tag_75\n      swap5\n      swap4\n      swap3\n      swap2\n      swap1\n      tag_76\n      jump\t// in\n    tag_75:\n      mload(0x40)\n      dup1\n      swap2\n      sub\n      swap1\n      log1\n        /* \"contracts/EgitimBilgileri.sol\":4261:4273  _egitimBilgi */\n      dup2\n        /* \"contracts/EgitimBilgileri.sol\":4261:4276  _egitimBilgi.id */\n      0x00\n      add\n      mload\n        /* \"contracts/EgitimBilgileri.sol\":4251:4276  return    _egitimBilgi.id */\n      swap1\n      pop\n        /* \"contracts/EgitimBilgileri.sol\":2613:4286  function updateEgitimBilgi(address _personAddress, EgitimBilgi memory _egitimBilgi)  public onlyUniversity returns(uint){\r... */\n      swap3\n      swap2\n      pop\n      pop\n      jump\t// out\n        /* \"contracts/EgitimBilgileri.sol\":1100:2604  function addEgitimBilgi(address _personAddress, EgitimBilgi memory _egitimBilgi)  public onlyUniversity{\r... */\n    tag_49:\n        /* \"contracts/BaseContract.sol\":1585:1597  universities */\n      0x04\n        /* \"contracts/BaseContract.sol\":1585:1609  universities[msg.sender] */\n      0x00\n        /* \"contracts/BaseContract.sol\":1598:1608  msg.sender */\n      caller\n        /* \"contracts/BaseContract.sol\":1585:1609  universities[msg.sender] */\n      0xffffffffffffffffffffffffffffffffffffffff\n      and\n      0xffffffffffffffffffffffffffffffffffffffff\n      and\n      dup2\n      mstore\n      0x20\n      add\n      swap1\n      dup2\n      mstore\n      0x20\n      add\n      0x00\n      keccak256\n        /* \"contracts/BaseContract.sol\":1585:1615  universities[msg.sender].durum */\n      0x00\n      add\n      0x00\n      swap1\n      sload\n      swap1\n      0x0100\n      exp\n      swap1\n      div\n      0xff\n      and\n        /* \"contracts/BaseContract.sol\":1577:1673  require(universities[msg.sender].durum,\r... */\n      tag_78\n      jumpi\n      mload(0x40)\n      0x08c379a000000000000000000000000000000000000000000000000000000000\n      dup2\n      mstore\n      0x04\n      add\n      tag_79\n      swap1\n      tag_70\n      jump\t// in\n    tag_79:\n      mload(0x40)\n      dup1\n      swap2\n      sub\n      swap1\n      revert\n    tag_78:\n        /* \"contracts/EgitimBilgileri.sol\":1227:1233  people */\n      0x03\n        /* \"contracts/EgitimBilgileri.sol\":1227:1249  people[_personAddress] */\n      0x00\n        /* \"contracts/EgitimBilgileri.sol\":1234:1248  _personAddress */\n      dup4\n        /* \"contracts/EgitimBilgileri.sol\":1227:1249  people[_personAddress] */\n      0xffffffffffffffffffffffffffffffffffffffff\n      and\n      0xffffffffffffffffffffffffffffffffffffffff\n      and\n      dup2\n      mstore\n      0x20\n      add\n      swap1\n      dup2\n      mstore\n      0x20\n      add\n      0x00\n      keccak256\n        /* \"contracts/EgitimBilgileri.sol\":1227:1256  people[_personAddress].status */\n      0x00\n      add\n      0x00\n      swap1\n      sload\n      swap1\n      0x0100\n      exp\n      swap1\n      div\n      0xff\n      and\n        /* \"contracts/EgitimBilgileri.sol\":1219:1278  require(people[_personAddress].status,\"Student not exists\") */\n      tag_81\n      jumpi\n      mload(0x40)\n      0x08c379a000000000000000000000000000000000000000000000000000000000\n      dup2\n      mstore\n      0x04\n      add\n      tag_82\n      swap1\n      tag_74\n      jump\t// in\n    tag_82:\n      mload(0x40)\n      dup1\n      swap2\n      sub\n      swap1\n      revert\n    tag_81:\n        /* \"contracts/EgitimBilgileri.sol\":1294:1305  uint yeniId */\n      0x00\n        /* \"contracts/EgitimBilgileri.sol\":1306:1308  id */\n      0x0a\n      0x00\n        /* \"contracts/EgitimBilgileri.sol\":1306:1310  id++ */\n      dup2\n      sload\n      dup1\n      swap3\n      swap2\n      swap1\n      tag_83\n      swap1\n      tag_84\n      jump\t// in\n    tag_83:\n      swap2\n      swap1\n      pop\n      sstore\n        /* \"contracts/EgitimBilgileri.sol\":1294:1310  uint yeniId=id++ */\n      swap1\n      pop\n        /* \"contracts/EgitimBilgileri.sol\":1471:1483  _egitimBilgi */\n      dup2\n        /* \"contracts/EgitimBilgileri.sol\":1471:1492  _egitimBilgi.basTarih */\n      0x20\n      add\n      mload\n        /* \"contracts/EgitimBilgileri.sol\":1422:1437  egitimBilgileri */\n      0x0b\n        /* \"contracts/EgitimBilgileri.sol\":1422:1453  egitimBilgileri[_personAddress] */\n      0x00\n        /* \"contracts/EgitimBilgileri.sol\":1438:1452  _personAddress */\n      dup6\n        /* \"contracts/EgitimBilgileri.sol\":1422:1453  egitimBilgileri[_personAddress] */\n      0xffffffffffffffffffffffffffffffffffffffff\n      and\n      0xffffffffffffffffffffffffffffffffffffffff\n      and\n      dup2\n      mstore\n      0x20\n      add\n      swap1\n      dup2\n      mstore\n      0x20\n      add\n      0x00\n      keccak256\n        /* \"contracts/EgitimBilgileri.sol\":1422:1461  egitimBilgileri[_personAddress][yeniId] */\n      0x00\n        /* \"contracts/EgitimBilgileri.sol\":1454:1460  yeniId */\n      dup4\n        /* \"contracts/EgitimBilgileri.sol\":1422:1461  egitimBilgileri[_personAddress][yeniId] */\n      dup2\n      mstore\n      0x20\n      add\n      swap1\n      dup2\n      mstore\n      0x20\n      add\n      0x00\n      keccak256\n        /* \"contracts/EgitimBilgileri.sol\":1422:1470  egitimBilgileri[_personAddress][yeniId].basTarih */\n      0x01\n      add\n        /* \"contracts/EgitimBilgileri.sol\":1422:1492  egitimBilgileri[_personAddress][yeniId].basTarih=_egitimBilgi.basTarih */\n      dup2\n      swap1\n      sstore\n      pop\n        /* \"contracts/EgitimBilgileri.sol\":1557:1569  _egitimBilgi */\n      dup2\n        /* \"contracts/EgitimBilgileri.sol\":1557:1578  _egitimBilgi.bitTarih */\n      0x40\n      add\n      mload\n        /* \"contracts/EgitimBilgileri.sol\":1508:1523  egitimBilgileri */\n      0x0b\n        /* \"contracts/EgitimBilgileri.sol\":1508:1539  egitimBilgileri[_personAddress] */\n      0x00\n        /* \"contracts/EgitimBilgileri.sol\":1524:1538  _personAddress */\n      dup6\n        /* \"contracts/EgitimBilgileri.sol\":1508:1539  egitimBilgileri[_personAddress] */\n      0xffffffffffffffffffffffffffffffffffffffff\n      and\n      0xffffffffffffffffffffffffffffffffffffffff\n      and\n      dup2\n      mstore\n      0x20\n      add\n      swap1\n      dup2\n      mstore\n      0x20\n      add\n      0x00\n      keccak256\n        /* \"contracts/EgitimBilgileri.sol\":1508:1547  egitimBilgileri[_personAddress][yeniId] */\n      0x00\n        /* \"contracts/EgitimBilgileri.sol\":1540:1546  yeniId */\n      dup4\n        /* \"contracts/EgitimBilgileri.sol\":1508:1547  egitimBilgileri[_personAddress][yeniId] */\n      dup2\n      mstore\n      0x20\n      add\n      swap1\n      dup2\n      mstore\n      0x20\n      add\n      0x00\n      keccak256\n        /* \"contracts/EgitimBilgileri.sol\":1508:1556  egitimBilgileri[_personAddress][yeniId].bitTarih */\n      0x02\n      add\n        /* \"contracts/EgitimBilgileri.sol\":1508:1578  egitimBilgileri[_personAddress][yeniId].bitTarih=_egitimBilgi.bitTarih */\n      dup2\n      swap1\n      sstore\n      pop\n        /* \"contracts/EgitimBilgileri.sol\":1646:1658  _egitimBilgi */\n      dup2\n        /* \"contracts/EgitimBilgileri.sol\":1646:1670  _egitimBilgi.diplomaNotu */\n      0x60\n      add\n      mload\n        /* \"contracts/EgitimBilgileri.sol\":1594:1609  egitimBilgileri */\n      0x0b\n        /* \"contracts/EgitimBilgileri.sol\":1594:1625  egitimBilgileri[_personAddress] */\n      0x00\n        /* \"contracts/EgitimBilgileri.sol\":1610:1624  _personAddress */\n      dup6\n        /* \"contracts/EgitimBilgileri.sol\":1594:1625  egitimBilgileri[_personAddress] */\n      0xffffffffffffffffffffffffffffffffffffffff\n      and\n      0xffffffffffffffffffffffffffffffffffffffff\n      and\n      dup2\n      mstore\n      0x20\n      add\n      swap1\n      dup2\n      mstore\n      0x20\n      add\n      0x00\n      keccak256\n        /* \"contracts/EgitimBilgileri.sol\":1594:1633  egitimBilgileri[_personAddress][yeniId] */\n      0x00\n        /* \"contracts/EgitimBilgileri.sol\":1626:1632  yeniId */\n      dup4\n        /* \"contracts/EgitimBilgileri.sol\":1594:1633  egitimBilgileri[_personAddress][yeniId] */\n      dup2\n      mstore\n      0x20\n      add\n      swap1\n      dup2\n      mstore\n      0x20\n      add\n      0x00\n      keccak256\n        /* \"contracts/EgitimBilgileri.sol\":1594:1645  egitimBilgileri[_personAddress][yeniId].diplomaNotu */\n      0x03\n      add\n      0x00\n        /* \"contracts/EgitimBilgileri.sol\":1594:1670  egitimBilgileri[_personAddress][yeniId].diplomaNotu=_egitimBilgi.diplomaNotu */\n      0x0100\n      exp\n      dup2\n      sload\n      dup2\n      0xff\n      mul\n      not\n      and\n      swap1\n      dup4\n      0xff\n      and\n      mul\n      or\n      swap1\n      sstore\n      pop\n        /* \"contracts/EgitimBilgileri.sol\":1739:1751  _egitimBilgi */\n      dup2\n        /* \"contracts/EgitimBilgileri.sol\":1739:1764  _egitimBilgi.diplomaBelge */\n      0x80\n      add\n      mload\n        /* \"contracts/EgitimBilgileri.sol\":1686:1701  egitimBilgileri */\n      0x0b\n        /* \"contracts/EgitimBilgileri.sol\":1686:1717  egitimBilgileri[_personAddress] */\n      0x00\n        /* \"contracts/EgitimBilgileri.sol\":1702:1716  _personAddress */\n      dup6\n        /* \"contracts/EgitimBilgileri.sol\":1686:1717  egitimBilgileri[_personAddress] */\n      0xffffffffffffffffffffffffffffffffffffffff\n      and\n      0xffffffffffffffffffffffffffffffffffffffff\n      and\n      dup2\n      mstore\n      0x20\n      add\n      swap1\n      dup2\n      mstore\n      0x20\n      add\n      0x00\n      keccak256\n        /* \"contracts/EgitimBilgileri.sol\":1686:1725  egitimBilgileri[_personAddress][yeniId] */\n      0x00\n        /* \"contracts/EgitimBilgileri.sol\":1718:1724  yeniId */\n      dup4\n        /* \"contracts/EgitimBilgileri.sol\":1686:1725  egitimBilgileri[_personAddress][yeniId] */\n      dup2\n      mstore\n      0x20\n      add\n      swap1\n      dup2\n      mstore\n      0x20\n      add\n      0x00\n      keccak256\n        /* \"contracts/EgitimBilgileri.sol\":1686:1738  egitimBilgileri[_personAddress][yeniId].diplomaBelge */\n      0x04\n      add\n        /* \"contracts/EgitimBilgileri.sol\":1686:1764  egitimBilgileri[_personAddress][yeniId].diplomaBelge=_egitimBilgi.diplomaBelge */\n      dup2\n      swap1\n      sstore\n      pop\n        /* \"contracts/EgitimBilgileri.sol\":1836:1848  _egitimBilgi */\n      dup2\n        /* \"contracts/EgitimBilgileri.sol\":1836:1864  _egitimBilgi.transcriptBelge */\n      0xa0\n      add\n      mload\n        /* \"contracts/EgitimBilgileri.sol\":1780:1795  egitimBilgileri */\n      0x0b\n        /* \"contracts/EgitimBilgileri.sol\":1780:1811  egitimBilgileri[_personAddress] */\n      0x00\n        /* \"contracts/EgitimBilgileri.sol\":1796:1810  _personAddress */\n      dup6\n        /* \"contracts/EgitimBilgileri.sol\":1780:1811  egitimBilgileri[_personAddress] */\n      0xffffffffffffffffffffffffffffffffffffffff\n      and\n      0xffffffffffffffffffffffffffffffffffffffff\n      and\n      dup2\n      mstore\n      0x20\n      add\n      swap1\n      dup2\n      mstore\n      0x20\n      add\n      0x00\n      keccak256\n        /* \"contracts/EgitimBilgileri.sol\":1780:1819  egitimBilgileri[_personAddress][yeniId] */\n      0x00\n        /* \"contracts/EgitimBilgileri.sol\":1812:1818  yeniId */\n      dup4\n        /* \"contracts/EgitimBilgileri.sol\":1780:1819  egitimBilgileri[_personAddress][yeniId] */\n      dup2\n      mstore\n      0x20\n      add\n      swap1\n      dup2\n      mstore\n      0x20\n      add\n      0x00\n      keccak256\n        /* \"contracts/EgitimBilgileri.sol\":1780:1835  egitimBilgileri[_personAddress][yeniId].transcriptBelge */\n      0x05\n      add\n        /* \"contracts/EgitimBilgileri.sol\":1780:1864  egitimBilgileri[_personAddress][yeniId].transcriptBelge=_egitimBilgi.transcriptBelge */\n      dup2\n      swap1\n      sstore\n      pop\n        /* \"contracts/EgitimBilgileri.sol\":1931:1943  _egitimBilgi */\n      dup2\n        /* \"contracts/EgitimBilgileri.sol\":1931:1954  _egitimBilgi.universite */\n      0xc0\n      add\n      mload\n        /* \"contracts/EgitimBilgileri.sol\":1880:1895  egitimBilgileri */\n      0x0b\n        /* \"contracts/EgitimBilgileri.sol\":1880:1911  egitimBilgileri[_personAddress] */\n      0x00\n        /* \"contracts/EgitimBilgileri.sol\":1896:1910  _personAddress */\n      dup6\n        /* \"contracts/EgitimBilgileri.sol\":1880:1911  egitimBilgileri[_personAddress] */\n      0xffffffffffffffffffffffffffffffffffffffff\n      and\n      0xffffffffffffffffffffffffffffffffffffffff\n      and\n      dup2\n      mstore\n      0x20\n      add\n      swap1\n      dup2\n      mstore\n      0x20\n      add\n      0x00\n      keccak256\n        /* \"contracts/EgitimBilgileri.sol\":1880:1919  egitimBilgileri[_personAddress][yeniId] */\n      0x00\n        /* \"contracts/EgitimBilgileri.sol\":1912:1918  yeniId */\n      dup4\n        /* \"contracts/EgitimBilgileri.sol\":1880:1919  egitimBilgileri[_personAddress][yeniId] */\n      dup2\n      mstore\n      0x20\n      add\n      swap1\n      dup2\n      mstore\n      0x20\n      add\n      0x00\n      keccak256\n        /* \"contracts/EgitimBilgileri.sol\":1880:1930  egitimBilgileri[_personAddress][yeniId].universite */\n      0x06\n      add\n      0x00\n        /* \"contracts/EgitimBilgileri.sol\":1880:1954  egitimBilgileri[_personAddress][yeniId].universite=_egitimBilgi.universite */\n      0x0100\n      exp\n      dup2\n      sload\n      dup2\n      0xffffffffffffffffffffffffffffffffffffffff\n      mul\n      not\n      and\n      swap1\n      dup4\n      0xffffffffffffffffffffffffffffffffffffffff\n      and\n      mul\n      or\n      swap1\n      sstore\n      pop\n        /* \"contracts/EgitimBilgileri.sol\":2018:2030  _egitimBilgi */\n      dup2\n        /* \"contracts/EgitimBilgileri.sol\":2018:2038  _egitimBilgi.fakulte */\n      0xe0\n      add\n      mload\n        /* \"contracts/EgitimBilgileri.sol\":1970:1985  egitimBilgileri */\n      0x0b\n        /* \"contracts/EgitimBilgileri.sol\":1970:2001  egitimBilgileri[_personAddress] */\n      0x00\n        /* \"contracts/EgitimBilgileri.sol\":1986:2000  _personAddress */\n      dup6\n        /* \"contracts/EgitimBilgileri.sol\":1970:2001  egitimBilgileri[_personAddress] */\n      0xffffffffffffffffffffffffffffffffffffffff\n      and\n      0xffffffffffffffffffffffffffffffffffffffff\n      and\n      dup2\n      mstore\n      0x20\n      add\n      swap1\n      dup2\n      mstore\n      0x20\n      add\n      0x00\n      keccak256\n        /* \"contracts/EgitimBilgileri.sol\":1970:2009  egitimBilgileri[_personAddress][yeniId] */\n      0x00\n        /* \"contracts/EgitimBilgileri.sol\":2002:2008  yeniId */\n      dup4\n        /* \"contracts/EgitimBilgileri.sol\":1970:2009  egitimBilgileri[_personAddress][yeniId] */\n      dup2\n      mstore\n      0x20\n      add\n      swap1\n      dup2\n      mstore\n      0x20\n      add\n      0x00\n      keccak256\n        /* \"contracts/EgitimBilgileri.sol\":1970:2017  egitimBilgileri[_personAddress][yeniId].fakulte */\n      0x06\n      add\n      0x14\n        /* \"contracts/EgitimBilgileri.sol\":1970:2038  egitimBilgileri[_personAddress][yeniId].fakulte=_egitimBilgi.fakulte */\n      0x0100\n      exp\n      dup2\n      sload\n      dup2\n      0xffff\n      mul\n      not\n      and\n      swap1\n      dup4\n      0xffff\n      and\n      mul\n      or\n      swap1\n      sstore\n      pop\n        /* \"contracts/EgitimBilgileri.sol\":2100:2112  _egitimBilgi */\n      dup2\n        /* \"contracts/EgitimBilgileri.sol\":2100:2118  _egitimBilgi.bolum */\n      0x0100\n      add\n      mload\n        /* \"contracts/EgitimBilgileri.sol\":2054:2069  egitimBilgileri */\n      0x0b\n        /* \"contracts/EgitimBilgileri.sol\":2054:2085  egitimBilgileri[_personAddress] */\n      0x00\n        /* \"contracts/EgitimBilgileri.sol\":2070:2084  _personAddress */\n      dup6\n        /* \"contracts/EgitimBilgileri.sol\":2054:2085  egitimBilgileri[_personAddress] */\n      0xffffffffffffffffffffffffffffffffffffffff\n      and\n      0xffffffffffffffffffffffffffffffffffffffff\n      and\n      dup2\n      mstore\n      0x20\n      add\n      swap1\n      dup2\n      mstore\n      0x20\n      add\n      0x00\n      keccak256\n        /* \"contracts/EgitimBilgileri.sol\":2054:2093  egitimBilgileri[_personAddress][yeniId] */\n      0x00\n        /* \"contracts/EgitimBilgileri.sol\":2086:2092  yeniId */\n      dup4\n        /* \"contracts/EgitimBilgileri.sol\":2054:2093  egitimBilgileri[_personAddress][yeniId] */\n      dup2\n      mstore\n      0x20\n      add\n      swap1\n      dup2\n      mstore\n      0x20\n      add\n      0x00\n      keccak256\n        /* \"contracts/EgitimBilgileri.sol\":2054:2099  egitimBilgileri[_personAddress][yeniId].bolum */\n      0x06\n      add\n      0x16\n        /* \"contracts/EgitimBilgileri.sol\":2054:2118  egitimBilgileri[_personAddress][yeniId].bolum=_egitimBilgi.bolum */\n      0x0100\n      exp\n      dup2\n      sload\n      dup2\n      0xffff\n      mul\n      not\n      and\n      swap1\n      dup4\n      0xffff\n      and\n      mul\n      or\n      swap1\n      sstore\n      pop\n        /* \"contracts/EgitimBilgileri.sol\":2280:2292  _egitimBilgi */\n      dup2\n        /* \"contracts/EgitimBilgileri.sol\":2280:2304  _egitimBilgi.ogretimDili */\n      0x0120\n      add\n      mload\n        /* \"contracts/EgitimBilgileri.sol\":2228:2243  egitimBilgileri */\n      0x0b\n        /* \"contracts/EgitimBilgileri.sol\":2228:2259  egitimBilgileri[_personAddress] */\n      0x00\n        /* \"contracts/EgitimBilgileri.sol\":2244:2258  _personAddress */\n      dup6\n        /* \"contracts/EgitimBilgileri.sol\":2228:2259  egitimBilgileri[_personAddress] */\n      0xffffffffffffffffffffffffffffffffffffffff\n      and\n      0xffffffffffffffffffffffffffffffffffffffff\n      and\n      dup2\n      mstore\n      0x20\n      add\n      swap1\n      dup2\n      mstore\n      0x20\n      add\n      0x00\n      keccak256\n        /* \"contracts/EgitimBilgileri.sol\":2228:2267  egitimBilgileri[_personAddress][yeniId] */\n      0x00\n        /* \"contracts/EgitimBilgileri.sol\":2260:2266  yeniId */\n      dup4\n        /* \"contracts/EgitimBilgileri.sol\":2228:2267  egitimBilgileri[_personAddress][yeniId] */\n      dup2\n      mstore\n      0x20\n      add\n      swap1\n      dup2\n      mstore\n      0x20\n      add\n      0x00\n      keccak256\n        /* \"contracts/EgitimBilgileri.sol\":2228:2279  egitimBilgileri[_personAddress][yeniId].ogretimDili */\n      0x06\n      add\n      0x18\n        /* \"contracts/EgitimBilgileri.sol\":2228:2304  egitimBilgileri[_personAddress][yeniId].ogretimDili=_egitimBilgi.ogretimDili */\n      0x0100\n      exp\n      dup2\n      sload\n      dup2\n      0xffffffff\n      mul\n      not\n      and\n      swap1\n      dup4\n      0xffffffff\n      and\n      mul\n      or\n      swap1\n      sstore\n      pop\n        /* \"contracts/EgitimBilgileri.sol\":2365:2377  _egitimBilgi */\n      dup2\n        /* \"contracts/EgitimBilgileri.sol\":2365:2382  _egitimBilgi.ulke */\n      0x0140\n      add\n      mload\n        /* \"contracts/EgitimBilgileri.sol\":2320:2335  egitimBilgileri */\n      0x0b\n        /* \"contracts/EgitimBilgileri.sol\":2320:2351  egitimBilgileri[_personAddress] */\n      0x00\n        /* \"contracts/EgitimBilgileri.sol\":2336:2350  _personAddress */\n      dup6\n        /* \"contracts/EgitimBilgileri.sol\":2320:2351  egitimBilgileri[_personAddress] */\n      0xffffffffffffffffffffffffffffffffffffffff\n      and\n      0xffffffffffffffffffffffffffffffffffffffff\n      and\n      dup2\n      mstore\n      0x20\n      add\n      swap1\n      dup2\n      mstore\n      0x20\n      add\n      0x00\n      keccak256\n        /* \"contracts/EgitimBilgileri.sol\":2320:2359  egitimBilgileri[_personAddress][yeniId] */\n      0x00\n        /* \"contracts/EgitimBilgileri.sol\":2352:2358  yeniId */\n      dup4\n        /* \"contracts/EgitimBilgileri.sol\":2320:2359  egitimBilgileri[_personAddress][yeniId] */\n      dup2\n      mstore\n      0x20\n      add\n      swap1\n      dup2\n      mstore\n      0x20\n      add\n      0x00\n      keccak256\n        /* \"contracts/EgitimBilgileri.sol\":2320:2364  egitimBilgileri[_personAddress][yeniId].ulke */\n      0x06\n      add\n      0x1c\n        /* \"contracts/EgitimBilgileri.sol\":2320:2382  egitimBilgileri[_personAddress][yeniId].ulke=_egitimBilgi.ulke */\n      0x0100\n      exp\n      dup2\n      sload\n      dup2\n      0xff\n      mul\n      not\n      and\n      swap1\n      dup4\n      0xff\n      and\n      mul\n      or\n      swap1\n      sstore\n      pop\n        /* \"contracts/EgitimBilgileri.sol\":2444:2456  _egitimBilgi */\n      dup2\n        /* \"contracts/EgitimBilgileri.sol\":2444:2462  _egitimBilgi.sehir */\n      0x0160\n      add\n      mload\n        /* \"contracts/EgitimBilgileri.sol\":2398:2413  egitimBilgileri */\n      0x0b\n        /* \"contracts/EgitimBilgileri.sol\":2398:2429  egitimBilgileri[_personAddress] */\n      0x00\n        /* \"contracts/EgitimBilgileri.sol\":2414:2428  _personAddress */\n      dup6\n        /* \"contracts/EgitimBilgileri.sol\":2398:2429  egitimBilgileri[_personAddress] */\n      0xffffffffffffffffffffffffffffffffffffffff\n      and\n      0xffffffffffffffffffffffffffffffffffffffff\n      and\n      dup2\n      mstore\n      0x20\n      add\n      swap1\n      dup2\n      mstore\n      0x20\n      add\n      0x00\n      keccak256\n        /* \"contracts/EgitimBilgileri.sol\":2398:2437  egitimBilgileri[_personAddress][yeniId] */\n      0x00\n        /* \"contracts/EgitimBilgileri.sol\":2430:2436  yeniId */\n      dup4\n        /* \"contracts/EgitimBilgileri.sol\":2398:2437  egitimBilgileri[_personAddress][yeniId] */\n      dup2\n      mstore\n      0x20\n      add\n      swap1\n      dup2\n      mstore\n      0x20\n      add\n      0x00\n      keccak256\n        /* \"contracts/EgitimBilgileri.sol\":2398:2443  egitimBilgileri[_personAddress][yeniId].sehir */\n      0x07\n      add\n      0x00\n        /* \"contracts/EgitimBilgileri.sol\":2398:2462  egitimBilgileri[_personAddress][yeniId].sehir=_egitimBilgi.sehir */\n      0x0100\n      exp\n      dup2\n      sload\n      dup2\n      0xffffffff\n      mul\n      not\n      and\n      swap1\n      dup4\n      0xffffffff\n      and\n      mul\n      or\n      swap1\n      sstore\n      pop\n        /* \"contracts/EgitimBilgileri.sol\":2496:2596  EgitimBilgiEklendiLog( yeniId, _egitimBilgi.universite,_egitimBilgi.basTarih, _egitimBilgi.bitTarih) */\n      0x9cbca7384fc1faed2b0399bc0f183e39f1de460a603e21db7ece2d0870ff424c\n        /* \"contracts/EgitimBilgileri.sol\":2519:2525  yeniId */\n      dup2\n        /* \"contracts/EgitimBilgileri.sol\":2527:2539  _egitimBilgi */\n      dup4\n        /* \"contracts/EgitimBilgileri.sol\":2527:2550  _egitimBilgi.universite */\n      0xc0\n      add\n      mload\n        /* \"contracts/EgitimBilgileri.sol\":2551:2563  _egitimBilgi */\n      dup5\n        /* \"contracts/EgitimBilgileri.sol\":2551:2572  _egitimBilgi.basTarih */\n      0x20\n      add\n      mload\n        /* \"contracts/EgitimBilgileri.sol\":2574:2586  _egitimBilgi */\n      dup6\n        /* \"contracts/EgitimBilgileri.sol\":2574:2595  _egitimBilgi.bitTarih */\n      0x40\n      add\n      mload\n        /* \"contracts/EgitimBilgileri.sol\":2496:2596  EgitimBilgiEklendiLog( yeniId, _egitimBilgi.universite,_egitimBilgi.basTarih, _egitimBilgi.bitTarih) */\n      mload(0x40)\n      tag_85\n      swap5\n      swap4\n      swap3\n      swap2\n      swap1\n      tag_76\n      jump\t// in\n    tag_85:\n      mload(0x40)\n      dup1\n      swap2\n      sub\n      swap1\n      log1\n        /* \"contracts/EgitimBilgileri.sol\":1203:2604  {\r... */\n      pop\n        /* \"contracts/EgitimBilgileri.sol\":1100:2604  function addEgitimBilgi(address _personAddress, EgitimBilgi memory _egitimBilgi)  public onlyUniversity{\r... */\n      pop\n      pop\n      jump\t// out\n        /* \"contracts/BaseContract.sol\":2319:2368  mapping(address=>Akademisyen) public academicians */\n    tag_52:\n      mstore(0x20, 0x05)\n      dup1\n      0x00\n      mstore\n      keccak256(0x00, 0x40)\n      0x00\n      swap2\n      pop\n      swap1\n      pop\n      dup1\n      0x00\n      add\n      0x00\n      swap1\n      sload\n      swap1\n      0x0100\n      exp\n      swap1\n      div\n      0xff\n      and\n      swap1\n      dup1\n      0x00\n      add\n      0x01\n      swap1\n      sload\n      swap1\n      0x0100\n      exp\n      swap1\n      div\n      0xffffffffffffffffffffffffffffffffffffffff\n      and\n      swap1\n      dup1\n      0x00\n      add\n      0x15\n      swap1\n      sload\n      swap1\n      0x0100\n      exp\n      swap1\n      div\n      0xffff\n      and\n      swap1\n      dup1\n      0x00\n      add\n      0x17\n      swap1\n      sload\n      swap1\n      0x0100\n      exp\n      swap1\n      div\n      0xff\n      and\n      swap1\n      dup1\n      0x01\n      add\n      sload\n      swap1\n      dup1\n      0x02\n      add\n      sload\n      swap1\n      pop\n      dup7\n      jump\t// out\n        /* \"contracts/EgitimBilgileri.sol\":145:159  uint public id */\n    tag_56:\n      sload(0x0a)\n      dup2\n      jump\t// out\n        /* \"contracts/BaseContract.sol\":2540:2573  mapping(address=>NGO) public ngos */\n    tag_60:\n      mstore(0x20, 0x09)\n      dup1\n      0x00\n      mstore\n      keccak256(0x00, 0x40)\n      0x00\n      swap2\n      pop\n      swap1\n      pop\n      dup1\n      0x00\n      add\n      0x00\n      swap1\n      sload\n      swap1\n      0x0100\n      exp\n      swap1\n      div\n      0xff\n      and\n      swap1\n      dup1\n      0x01\n      add\n      sload\n      swap1\n      dup1\n      0x02\n      add\n      sload\n      swap1\n      pop\n      dup4\n      jump\t// out\n        /* \"contracts/BaseContract.sol\":2264:2312  mapping(address=>Universite) public universities */\n    tag_64:\n      mstore(0x20, 0x04)\n      dup1\n      0x00\n      mstore\n      keccak256(0x00, 0x40)\n      0x00\n      swap2\n      pop\n      swap1\n      pop\n      dup1\n      0x00\n      add\n      0x00\n      swap1\n      sload\n      swap1\n      0x0100\n      exp\n      swap1\n      div\n      0xff\n      and\n      swap1\n      dup1\n      0x01\n      add\n      sload\n      swap1\n      dup1\n      0x02\n      add\n      0x00\n      swap1\n      sload\n      swap1\n      0x0100\n      exp\n      swap1\n      div\n      0xff\n      and\n      swap1\n      pop\n      dup4\n      jump\t// out\n        /* \"#utility.yul\":7:146   */\n    tag_87:\n        /* \"#utility.yul\":53:58   */\n      0x00\n        /* \"#utility.yul\":91:97   */\n      dup2\n        /* \"#utility.yul\":78:98   */\n      calldataload\n        /* \"#utility.yul\":69:98   */\n      swap1\n      pop\n        /* \"#utility.yul\":107:140   */\n      tag_89\n        /* \"#utility.yul\":134:139   */\n      dup2\n        /* \"#utility.yul\":107:140   */\n      tag_90\n      jump\t// in\n    tag_89:\n        /* \"#utility.yul\":7:146   */\n      swap3\n      swap2\n      pop\n      pop\n      jump\t// out\n        /* \"#utility.yul\":152:291   */\n    tag_91:\n        /* \"#utility.yul\":198:203   */\n      0x00\n        /* \"#utility.yul\":236:242   */\n      dup2\n        /* \"#utility.yul\":223:243   */\n      calldataload\n        /* \"#utility.yul\":214:243   */\n      swap1\n      pop\n        /* \"#utility.yul\":252:285   */\n      tag_93\n        /* \"#utility.yul\":279:284   */\n      dup2\n        /* \"#utility.yul\":252:285   */\n      tag_94\n      jump\t// in\n    tag_93:\n        /* \"#utility.yul\":152:291   */\n      swap3\n      swap2\n      pop\n      pop\n      jump\t// out\n        /* \"#utility.yul\":339:2588   */\n    tag_95:\n        /* \"#utility.yul\":416:421   */\n      0x00\n        /* \"#utility.yul\":460:466   */\n      0x0180\n        /* \"#utility.yul\":448:457   */\n      dup3\n        /* \"#utility.yul\":443:446   */\n      dup5\n        /* \"#utility.yul\":439:458   */\n      sub\n        /* \"#utility.yul\":435:467   */\n      slt\n        /* \"#utility.yul\":432:551   */\n      iszero\n      tag_97\n      jumpi\n        /* \"#utility.yul\":470:549   */\n      tag_98\n      tag_99\n      jump\t// in\n    tag_98:\n        /* \"#utility.yul\":432:551   */\n    tag_97:\n        /* \"#utility.yul\":569:592   */\n      tag_100\n        /* \"#utility.yul\":585:591   */\n      0x0180\n        /* \"#utility.yul\":569:592   */\n      tag_101\n      jump\t// in\n    tag_100:\n        /* \"#utility.yul\":560:592   */\n      swap1\n      pop\n        /* \"#utility.yul\":649:650   */\n      0x00\n        /* \"#utility.yul\":689:738   */\n      tag_102\n        /* \"#utility.yul\":734:737   */\n      dup5\n        /* \"#utility.yul\":725:731   */\n      dup3\n        /* \"#utility.yul\":714:723   */\n      dup6\n        /* \"#utility.yul\":710:732   */\n      add\n        /* \"#utility.yul\":689:738   */\n      tag_103\n      jump\t// in\n    tag_102:\n        /* \"#utility.yul\":682:686   */\n      0x00\n        /* \"#utility.yul\":675:680   */\n      dup4\n        /* \"#utility.yul\":671:687   */\n      add\n        /* \"#utility.yul\":664:739   */\n      mstore\n        /* \"#utility.yul\":602:750   */\n      pop\n        /* \"#utility.yul\":813:815   */\n      0x20\n        /* \"#utility.yul\":854:903   */\n      tag_104\n        /* \"#utility.yul\":899:902   */\n      dup5\n        /* \"#utility.yul\":890:896   */\n      dup3\n        /* \"#utility.yul\":879:888   */\n      dup6\n        /* \"#utility.yul\":875:897   */\n      add\n        /* \"#utility.yul\":854:903   */\n      tag_103\n      jump\t// in\n    tag_104:\n        /* \"#utility.yul\":847:851   */\n      0x20\n        /* \"#utility.yul\":840:845   */\n      dup4\n        /* \"#utility.yul\":836:852   */\n      add\n        /* \"#utility.yul\":829:904   */\n      mstore\n        /* \"#utility.yul\":760:915   */\n      pop\n        /* \"#utility.yul\":978:980   */\n      0x40\n        /* \"#utility.yul\":1019:1068   */\n      tag_105\n        /* \"#utility.yul\":1064:1067   */\n      dup5\n        /* \"#utility.yul\":1055:1061   */\n      dup3\n        /* \"#utility.yul\":1044:1053   */\n      dup6\n        /* \"#utility.yul\":1040:1062   */\n      add\n        /* \"#utility.yul\":1019:1068   */\n      tag_103\n      jump\t// in\n    tag_105:\n        /* \"#utility.yul\":1012:1016   */\n      0x40\n        /* \"#utility.yul\":1005:1010   */\n      dup4\n        /* \"#utility.yul\":1001:1017   */\n      add\n        /* \"#utility.yul\":994:1069   */\n      mstore\n        /* \"#utility.yul\":925:1080   */\n      pop\n        /* \"#utility.yul\":1146:1148   */\n      0x60\n        /* \"#utility.yul\":1187:1234   */\n      tag_106\n        /* \"#utility.yul\":1230:1233   */\n      dup5\n        /* \"#utility.yul\":1221:1227   */\n      dup3\n        /* \"#utility.yul\":1210:1219   */\n      dup6\n        /* \"#utility.yul\":1206:1228   */\n      add\n        /* \"#utility.yul\":1187:1234   */\n      tag_107\n      jump\t// in\n    tag_106:\n        /* \"#utility.yul\":1180:1184   */\n      0x60\n        /* \"#utility.yul\":1173:1178   */\n      dup4\n        /* \"#utility.yul\":1169:1185   */\n      add\n        /* \"#utility.yul\":1162:1235   */\n      mstore\n        /* \"#utility.yul\":1090:1246   */\n      pop\n        /* \"#utility.yul\":1313:1316   */\n      0x80\n        /* \"#utility.yul\":1355:1404   */\n      tag_108\n        /* \"#utility.yul\":1400:1403   */\n      dup5\n        /* \"#utility.yul\":1391:1397   */\n      dup3\n        /* \"#utility.yul\":1380:1389   */\n      dup6\n        /* \"#utility.yul\":1376:1398   */\n      add\n        /* \"#utility.yul\":1355:1404   */\n      tag_91\n      jump\t// in\n    tag_108:\n        /* \"#utility.yul\":1348:1352   */\n      0x80\n        /* \"#utility.yul\":1341:1346   */\n      dup4\n        /* \"#utility.yul\":1337:1353   */\n      add\n        /* \"#utility.yul\":1330:1405   */\n      mstore\n        /* \"#utility.yul\":1256:1416   */\n      pop\n        /* \"#utility.yul\":1486:1489   */\n      0xa0\n        /* \"#utility.yul\":1528:1577   */\n      tag_109\n        /* \"#utility.yul\":1573:1576   */\n      dup5\n        /* \"#utility.yul\":1564:1570   */\n      dup3\n        /* \"#utility.yul\":1553:1562   */\n      dup6\n        /* \"#utility.yul\":1549:1571   */\n      add\n        /* \"#utility.yul\":1528:1577   */\n      tag_91\n      jump\t// in\n    tag_109:\n        /* \"#utility.yul\":1521:1525   */\n      0xa0\n        /* \"#utility.yul\":1514:1519   */\n      dup4\n        /* \"#utility.yul\":1510:1526   */\n      add\n        /* \"#utility.yul\":1503:1578   */\n      mstore\n        /* \"#utility.yul\":1426:1589   */\n      pop\n        /* \"#utility.yul\":1654:1657   */\n      0xc0\n        /* \"#utility.yul\":1696:1745   */\n      tag_110\n        /* \"#utility.yul\":1741:1744   */\n      dup5\n        /* \"#utility.yul\":1732:1738   */\n      dup3\n        /* \"#utility.yul\":1721:1730   */\n      dup6\n        /* \"#utility.yul\":1717:1739   */\n      add\n        /* \"#utility.yul\":1696:1745   */\n      tag_87\n      jump\t// in\n    tag_110:\n        /* \"#utility.yul\":1689:1693   */\n      0xc0\n        /* \"#utility.yul\":1682:1687   */\n      dup4\n        /* \"#utility.yul\":1678:1694   */\n      add\n        /* \"#utility.yul\":1671:1746   */\n      mstore\n        /* \"#utility.yul\":1599:1757   */\n      pop\n        /* \"#utility.yul\":1819:1822   */\n      0xe0\n        /* \"#utility.yul\":1861:1909   */\n      tag_111\n        /* \"#utility.yul\":1905:1908   */\n      dup5\n        /* \"#utility.yul\":1896:1902   */\n      dup3\n        /* \"#utility.yul\":1885:1894   */\n      dup6\n        /* \"#utility.yul\":1881:1903   */\n      add\n        /* \"#utility.yul\":1861:1909   */\n      tag_112\n      jump\t// in\n    tag_111:\n        /* \"#utility.yul\":1854:1858   */\n      0xe0\n        /* \"#utility.yul\":1847:1852   */\n      dup4\n        /* \"#utility.yul\":1843:1859   */\n      add\n        /* \"#utility.yul\":1836:1910   */\n      mstore\n        /* \"#utility.yul\":1767:1921   */\n      pop\n        /* \"#utility.yul\":1981:1984   */\n      0x0100\n        /* \"#utility.yul\":2025:2073   */\n      tag_113\n        /* \"#utility.yul\":2069:2072   */\n      dup5\n        /* \"#utility.yul\":2060:2066   */\n      dup3\n        /* \"#utility.yul\":2049:2058   */\n      dup6\n        /* \"#utility.yul\":2045:2067   */\n      add\n        /* \"#utility.yul\":2025:2073   */\n      tag_112\n      jump\t// in\n    tag_113:\n        /* \"#utility.yul\":2016:2022   */\n      0x0100\n        /* \"#utility.yul\":2009:2014   */\n      dup4\n        /* \"#utility.yul\":2005:2023   */\n      add\n        /* \"#utility.yul\":1998:2074   */\n      mstore\n        /* \"#utility.yul\":1931:2085   */\n      pop\n        /* \"#utility.yul\":2151:2154   */\n      0x0120\n        /* \"#utility.yul\":2195:2243   */\n      tag_114\n        /* \"#utility.yul\":2239:2242   */\n      dup5\n        /* \"#utility.yul\":2230:2236   */\n      dup3\n        /* \"#utility.yul\":2219:2228   */\n      dup6\n        /* \"#utility.yul\":2215:2237   */\n      add\n        /* \"#utility.yul\":2195:2243   */\n      tag_115\n      jump\t// in\n    tag_114:\n        /* \"#utility.yul\":2186:2192   */\n      0x0120\n        /* \"#utility.yul\":2179:2184   */\n      dup4\n        /* \"#utility.yul\":2175:2193   */\n      add\n        /* \"#utility.yul\":2168:2244   */\n      mstore\n        /* \"#utility.yul\":2095:2255   */\n      pop\n        /* \"#utility.yul\":2314:2317   */\n      0x0140\n        /* \"#utility.yul\":2358:2405   */\n      tag_116\n        /* \"#utility.yul\":2401:2404   */\n      dup5\n        /* \"#utility.yul\":2392:2398   */\n      dup3\n        /* \"#utility.yul\":2381:2390   */\n      dup6\n        /* \"#utility.yul\":2377:2399   */\n      add\n        /* \"#utility.yul\":2358:2405   */\n      tag_107\n      jump\t// in\n    tag_116:\n        /* \"#utility.yul\":2349:2355   */\n      0x0140\n        /* \"#utility.yul\":2342:2347   */\n      dup4\n        /* \"#utility.yul\":2338:2356   */\n      add\n        /* \"#utility.yul\":2331:2406   */\n      mstore\n        /* \"#utility.yul\":2265:2417   */\n      pop\n        /* \"#utility.yul\":2477:2480   */\n      0x0160\n        /* \"#utility.yul\":2521:2569   */\n      tag_117\n        /* \"#utility.yul\":2565:2568   */\n      dup5\n        /* \"#utility.yul\":2556:2562   */\n      dup3\n        /* \"#utility.yul\":2545:2554   */\n      dup6\n        /* \"#utility.yul\":2541:2563   */\n      add\n        /* \"#utility.yul\":2521:2569   */\n      tag_115\n      jump\t// in\n    tag_117:\n        /* \"#utility.yul\":2512:2518   */\n      0x0160\n        /* \"#utility.yul\":2505:2510   */\n      dup4\n        /* \"#utility.yul\":2501:2519   */\n      add\n        /* \"#utility.yul\":2494:2570   */\n      mstore\n        /* \"#utility.yul\":2427:2581   */\n      pop\n        /* \"#utility.yul\":339:2588   */\n      swap3\n      swap2\n      pop\n      pop\n      jump\t// out\n        /* \"#utility.yul\":2594:2731   */\n    tag_112:\n        /* \"#utility.yul\":2639:2644   */\n      0x00\n        /* \"#utility.yul\":2677:2683   */\n      dup2\n        /* \"#utility.yul\":2664:2684   */\n      calldataload\n        /* \"#utility.yul\":2655:2684   */\n      swap1\n      pop\n        /* \"#utility.yul\":2693:2725   */\n      tag_119\n        /* \"#utility.yul\":2719:2724   */\n      dup2\n        /* \"#utility.yul\":2693:2725   */\n      tag_120\n      jump\t// in\n    tag_119:\n        /* \"#utility.yul\":2594:2731   */\n      swap3\n      swap2\n      pop\n      pop\n      jump\t// out\n        /* \"#utility.yul\":2737:2876   */\n    tag_103:\n        /* \"#utility.yul\":2783:2788   */\n      0x00\n        /* \"#utility.yul\":2821:2827   */\n      dup2\n        /* \"#utility.yul\":2808:2828   */\n      calldataload\n        /* \"#utility.yul\":2799:2828   */\n      swap1\n      pop\n        /* \"#utility.yul\":2837:2870   */\n      tag_122\n        /* \"#utility.yul\":2864:2869   */\n      dup2\n        /* \"#utility.yul\":2837:2870   */\n      tag_123\n      jump\t// in\n    tag_122:\n        /* \"#utility.yul\":2737:2876   */\n      swap3\n      swap2\n      pop\n      pop\n      jump\t// out\n        /* \"#utility.yul\":2882:3019   */\n    tag_115:\n        /* \"#utility.yul\":2927:2932   */\n      0x00\n        /* \"#utility.yul\":2965:2971   */\n      dup2\n        /* \"#utility.yul\":2952:2972   */\n      calldataload\n        /* \"#utility.yul\":2943:2972   */\n      swap1\n      pop\n        /* \"#utility.yul\":2981:3013   */\n      tag_125\n        /* \"#utility.yul\":3007:3012   */\n      dup2\n        /* \"#utility.yul\":2981:3013   */\n      tag_126\n      jump\t// in\n    tag_125:\n        /* \"#utility.yul\":2882:3019   */\n      swap3\n      swap2\n      pop\n      pop\n      jump\t// out\n        /* \"#utility.yul\":3025:3160   */\n    tag_107:\n        /* \"#utility.yul\":3069:3074   */\n      0x00\n        /* \"#utility.yul\":3107:3113   */\n      dup2\n        /* \"#utility.yul\":3094:3114   */\n      calldataload\n        /* \"#utility.yul\":3085:3114   */\n      swap1\n      pop\n        /* \"#utility.yul\":3123:3154   */\n      tag_128\n        /* \"#utility.yul\":3148:3153   */\n      dup2\n        /* \"#utility.yul\":3123:3154   */\n      tag_129\n      jump\t// in\n    tag_128:\n        /* \"#utility.yul\":3025:3160   */\n      swap3\n      swap2\n      pop\n      pop\n      jump\t// out\n        /* \"#utility.yul\":3166:3495   */\n    tag_17:\n        /* \"#utility.yul\":3225:3231   */\n      0x00\n        /* \"#utility.yul\":3274:3276   */\n      0x20\n        /* \"#utility.yul\":3262:3271   */\n      dup3\n        /* \"#utility.yul\":3253:3260   */\n      dup5\n        /* \"#utility.yul\":3249:3272   */\n      sub\n        /* \"#utility.yul\":3245:3277   */\n      slt\n        /* \"#utility.yul\":3242:3361   */\n      iszero\n      tag_131\n      jumpi\n        /* \"#utility.yul\":3280:3359   */\n      tag_132\n      tag_133\n      jump\t// in\n    tag_132:\n        /* \"#utility.yul\":3242:3361   */\n    tag_131:\n        /* \"#utility.yul\":3400:3401   */\n      0x00\n        /* \"#utility.yul\":3425:3478   */\n      tag_134\n        /* \"#utility.yul\":3470:3477   */\n      dup5\n        /* \"#utility.yul\":3461:3467   */\n      dup3\n        /* \"#utility.yul\":3450:3459   */\n      dup6\n        /* \"#utility.yul\":3446:3468   */\n      add\n        /* \"#utility.yul\":3425:3478   */\n      tag_87\n      jump\t// in\n    tag_134:\n        /* \"#utility.yul\":3415:3478   */\n      swap2\n      pop\n        /* \"#utility.yul\":3371:3488   */\n      pop\n        /* \"#utility.yul\":3166:3495   */\n      swap3\n      swap2\n      pop\n      pop\n      jump\t// out\n        /* \"#utility.yul\":3501:4032   */\n    tag_43:\n        /* \"#utility.yul\":3597:3603   */\n      0x00\n        /* \"#utility.yul\":3605:3611   */\n      dup1\n        /* \"#utility.yul\":3654:3657   */\n      0x01a0\n        /* \"#utility.yul\":3642:3651   */\n      dup4\n        /* \"#utility.yul\":3633:3640   */\n      dup6\n        /* \"#utility.yul\":3629:3652   */\n      sub\n        /* \"#utility.yul\":3625:3658   */\n      slt\n        /* \"#utility.yul\":3622:3742   */\n      iszero\n      tag_136\n      jumpi\n        /* \"#utility.yul\":3661:3740   */\n      tag_137\n      tag_133\n      jump\t// in\n    tag_137:\n        /* \"#utility.yul\":3622:3742   */\n    tag_136:\n        /* \"#utility.yul\":3781:3782   */\n      0x00\n        /* \"#utility.yul\":3806:3859   */\n      tag_138\n        /* \"#utility.yul\":3851:3858   */\n      dup6\n        /* \"#utility.yul\":3842:3848   */\n      dup3\n        /* \"#utility.yul\":3831:3840   */\n      dup7\n        /* \"#utility.yul\":3827:3849   */\n      add\n        /* \"#utility.yul\":3806:3859   */\n      tag_87\n      jump\t// in\n    tag_138:\n        /* \"#utility.yul\":3796:3859   */\n      swap3\n      pop\n        /* \"#utility.yul\":3752:3869   */\n      pop\n        /* \"#utility.yul\":3908:3910   */\n      0x20\n        /* \"#utility.yul\":3934:4015   */\n      tag_139\n        /* \"#utility.yul\":4007:4014   */\n      dup6\n        /* \"#utility.yul\":3998:4004   */\n      dup3\n        /* \"#utility.yul\":3987:3996   */\n      dup7\n        /* \"#utility.yul\":3983:4005   */\n      add\n        /* \"#utility.yul\":3934:4015   */\n      tag_95\n      jump\t// in\n    tag_139:\n        /* \"#utility.yul\":3924:4015   */\n      swap2\n      pop\n        /* \"#utility.yul\":3879:4025   */\n      pop\n        /* \"#utility.yul\":3501:4032   */\n      swap3\n      pop\n      swap3\n      swap1\n      pop\n      jump\t// out\n        /* \"#utility.yul\":4038:4512   */\n    tag_23:\n        /* \"#utility.yul\":4106:4112   */\n      0x00\n        /* \"#utility.yul\":4114:4120   */\n      dup1\n        /* \"#utility.yul\":4163:4165   */\n      0x40\n        /* \"#utility.yul\":4151:4160   */\n      dup4\n        /* \"#utility.yul\":4142:4149   */\n      dup6\n        /* \"#utility.yul\":4138:4161   */\n      sub\n        /* \"#utility.yul\":4134:4166   */\n      slt\n        /* \"#utility.yul\":4131:4250   */\n      iszero\n      tag_141\n      jumpi\n        /* \"#utility.yul\":4169:4248   */\n      tag_142\n      tag_133\n      jump\t// in\n    tag_142:\n        /* \"#utility.yul\":4131:4250   */\n    tag_141:\n        /* \"#utility.yul\":4289:4290   */\n      0x00\n        /* \"#utility.yul\":4314:4367   */\n      tag_143\n        /* \"#utility.yul\":4359:4366   */\n      dup6\n        /* \"#utility.yul\":4350:4356   */\n      dup3\n        /* \"#utility.yul\":4339:4348   */\n      dup7\n        /* \"#utility.yul\":4335:4357   */\n      add\n        /* \"#utility.yul\":4314:4367   */\n      tag_87\n      jump\t// in\n    tag_143:\n        /* \"#utility.yul\":4304:4367   */\n      swap3\n      pop\n        /* \"#utility.yul\":4260:4377   */\n      pop\n        /* \"#utility.yul\":4416:4418   */\n      0x20\n        /* \"#utility.yul\":4442:4495   */\n      tag_144\n        /* \"#utility.yul\":4487:4494   */\n      dup6\n        /* \"#utility.yul\":4478:4484   */\n      dup3\n        /* \"#utility.yul\":4467:4476   */\n      dup7\n        /* \"#utility.yul\":4463:4485   */\n      add\n        /* \"#utility.yul\":4442:4495   */\n      tag_103\n      jump\t// in\n    tag_144:\n        /* \"#utility.yul\":4432:4495   */\n      swap2\n      pop\n        /* \"#utility.yul\":4387:4505   */\n      pop\n        /* \"#utility.yul\":4038:4512   */\n      swap3\n      pop\n      swap3\n      swap1\n      pop\n      jump\t// out\n        /* \"#utility.yul\":4518:4636   */\n    tag_145:\n        /* \"#utility.yul\":4605:4629   */\n      tag_147\n        /* \"#utility.yul\":4623:4628   */\n      dup2\n        /* \"#utility.yul\":4605:4629   */\n      tag_148\n      jump\t// in\n    tag_147:\n        /* \"#utility.yul\":4600:4603   */\n      dup3\n        /* \"#utility.yul\":4593:4630   */\n      mstore\n        /* \"#utility.yul\":4518:4636   */\n      pop\n      pop\n      jump\t// out\n        /* \"#utility.yul\":4642:4751   */\n    tag_149:\n        /* \"#utility.yul\":4723:4744   */\n      tag_151\n        /* \"#utility.yul\":4738:4743   */\n      dup2\n        /* \"#utility.yul\":4723:4744   */\n      tag_152\n      jump\t// in\n    tag_151:\n        /* \"#utility.yul\":4718:4721   */\n      dup3\n        /* \"#utility.yul\":4711:4745   */\n      mstore\n        /* \"#utility.yul\":4642:4751   */\n      pop\n      pop\n      jump\t// out\n        /* \"#utility.yul\":4757:4875   */\n    tag_153:\n        /* \"#utility.yul\":4844:4868   */\n      tag_155\n        /* \"#utility.yul\":4862:4867   */\n      dup2\n        /* \"#utility.yul\":4844:4868   */\n      tag_156\n      jump\t// in\n    tag_155:\n        /* \"#utility.yul\":4839:4842   */\n      dup3\n        /* \"#utility.yul\":4832:4869   */\n      mstore\n        /* \"#utility.yul\":4757:4875   */\n      pop\n      pop\n      jump\t// out\n        /* \"#utility.yul\":4881:5024   */\n    tag_157:\n        /* \"#utility.yul\":4974:5017   */\n      tag_159\n        /* \"#utility.yul\":5011:5016   */\n      dup2\n        /* \"#utility.yul\":4974:5017   */\n      tag_160\n      jump\t// in\n    tag_159:\n        /* \"#utility.yul\":4969:4972   */\n      dup3\n        /* \"#utility.yul\":4962:5018   */\n      mstore\n        /* \"#utility.yul\":4881:5024   */\n      pop\n      pop\n      jump\t// out\n        /* \"#utility.yul\":5030:5396   */\n    tag_161:\n        /* \"#utility.yul\":5172:5175   */\n      0x00\n        /* \"#utility.yul\":5193:5260   */\n      tag_163\n        /* \"#utility.yul\":5257:5259   */\n      0x26\n        /* \"#utility.yul\":5252:5255   */\n      dup4\n        /* \"#utility.yul\":5193:5260   */\n      tag_164\n      jump\t// in\n    tag_163:\n        /* \"#utility.yul\":5186:5260   */\n      swap2\n      pop\n        /* \"#utility.yul\":5269:5362   */\n      tag_165\n        /* \"#utility.yul\":5358:5361   */\n      dup3\n        /* \"#utility.yul\":5269:5362   */\n      tag_166\n      jump\t// in\n    tag_165:\n        /* \"#utility.yul\":5387:5389   */\n      0x40\n        /* \"#utility.yul\":5382:5385   */\n      dup3\n        /* \"#utility.yul\":5378:5390   */\n      add\n        /* \"#utility.yul\":5371:5390   */\n      swap1\n      pop\n        /* \"#utility.yul\":5030:5396   */\n      swap2\n      swap1\n      pop\n      jump\t// out\n        /* \"#utility.yul\":5402:5768   */\n    tag_167:\n        /* \"#utility.yul\":5544:5547   */\n      0x00\n        /* \"#utility.yul\":5565:5632   */\n      tag_169\n        /* \"#utility.yul\":5629:5631   */\n      0x12\n        /* \"#utility.yul\":5624:5627   */\n      dup4\n        /* \"#utility.yul\":5565:5632   */\n      tag_164\n      jump\t// in\n    tag_169:\n        /* \"#utility.yul\":5558:5632   */\n      swap2\n      pop\n        /* \"#utility.yul\":5641:5734   */\n      tag_170\n        /* \"#utility.yul\":5730:5733   */\n      dup3\n        /* \"#utility.yul\":5641:5734   */\n      tag_171\n      jump\t// in\n    tag_170:\n        /* \"#utility.yul\":5759:5761   */\n      0x20\n        /* \"#utility.yul\":5754:5757   */\n      dup3\n        /* \"#utility.yul\":5750:5762   */\n      add\n        /* \"#utility.yul\":5743:5762   */\n      swap1\n      pop\n        /* \"#utility.yul\":5402:5768   */\n      swap2\n      swap1\n      pop\n      jump\t// out\n        /* \"#utility.yul\":5774:5889   */\n    tag_172:\n        /* \"#utility.yul\":5859:5882   */\n      tag_174\n        /* \"#utility.yul\":5876:5881   */\n      dup2\n        /* \"#utility.yul\":5859:5882   */\n      tag_175\n      jump\t// in\n    tag_174:\n        /* \"#utility.yul\":5854:5857   */\n      dup3\n        /* \"#utility.yul\":5847:5883   */\n      mstore\n        /* \"#utility.yul\":5774:5889   */\n      pop\n      pop\n      jump\t// out\n        /* \"#utility.yul\":5895:6013   */\n    tag_176:\n        /* \"#utility.yul\":5982:6006   */\n      tag_178\n        /* \"#utility.yul\":6000:6005   */\n      dup2\n        /* \"#utility.yul\":5982:6006   */\n      tag_179\n      jump\t// in\n    tag_178:\n        /* \"#utility.yul\":5977:5980   */\n      dup3\n        /* \"#utility.yul\":5970:6007   */\n      mstore\n        /* \"#utility.yul\":5895:6013   */\n      pop\n      pop\n      jump\t// out\n        /* \"#utility.yul\":6019:6134   */\n    tag_180:\n        /* \"#utility.yul\":6104:6127   */\n      tag_182\n        /* \"#utility.yul\":6121:6126   */\n      dup2\n        /* \"#utility.yul\":6104:6127   */\n      tag_183\n      jump\t// in\n    tag_182:\n        /* \"#utility.yul\":6099:6102   */\n      dup3\n        /* \"#utility.yul\":6092:6128   */\n      mstore\n        /* \"#utility.yul\":6019:6134   */\n      pop\n      pop\n      jump\t// out\n        /* \"#utility.yul\":6140:6252   */\n    tag_184:\n        /* \"#utility.yul\":6223:6245   */\n      tag_186\n        /* \"#utility.yul\":6239:6244   */\n      dup2\n        /* \"#utility.yul\":6223:6245   */\n      tag_187\n      jump\t// in\n    tag_186:\n        /* \"#utility.yul\":6218:6221   */\n      dup3\n        /* \"#utility.yul\":6211:6246   */\n      mstore\n        /* \"#utility.yul\":6140:6252   */\n      pop\n      pop\n      jump\t// out\n        /* \"#utility.yul\":6258:6468   */\n    tag_20:\n        /* \"#utility.yul\":6345:6349   */\n      0x00\n        /* \"#utility.yul\":6383:6385   */\n      0x20\n        /* \"#utility.yul\":6372:6381   */\n      dup3\n        /* \"#utility.yul\":6368:6386   */\n      add\n        /* \"#utility.yul\":6360:6386   */\n      swap1\n      pop\n        /* \"#utility.yul\":6396:6461   */\n      tag_189\n        /* \"#utility.yul\":6458:6459   */\n      0x00\n        /* \"#utility.yul\":6447:6456   */\n      dup4\n        /* \"#utility.yul\":6443:6460   */\n      add\n        /* \"#utility.yul\":6434:6440   */\n      dup5\n        /* \"#utility.yul\":6396:6461   */\n      tag_149\n      jump\t// in\n    tag_189:\n        /* \"#utility.yul\":6258:6468   */\n      swap3\n      swap2\n      pop\n      pop\n      jump\t// out\n        /* \"#utility.yul\":6474:7245   */\n    tag_54:\n        /* \"#utility.yul\":6705:6709   */\n      0x00\n        /* \"#utility.yul\":6743:6746   */\n      0xc0\n        /* \"#utility.yul\":6732:6741   */\n      dup3\n        /* \"#utility.yul\":6728:6747   */\n      add\n        /* \"#utility.yul\":6720:6747   */\n      swap1\n      pop\n        /* \"#utility.yul\":6757:6822   */\n      tag_191\n        /* \"#utility.yul\":6819:6820   */\n      0x00\n        /* \"#utility.yul\":6808:6817   */\n      dup4\n        /* \"#utility.yul\":6804:6821   */\n      add\n        /* \"#utility.yul\":6795:6801   */\n      dup10\n        /* \"#utility.yul\":6757:6822   */\n      tag_149\n      jump\t// in\n    tag_191:\n        /* \"#utility.yul\":6832:6904   */\n      tag_192\n        /* \"#utility.yul\":6900:6902   */\n      0x20\n        /* \"#utility.yul\":6889:6898   */\n      dup4\n        /* \"#utility.yul\":6885:6903   */\n      add\n        /* \"#utility.yul\":6876:6882   */\n      dup9\n        /* \"#utility.yul\":6832:6904   */\n      tag_145\n      jump\t// in\n    tag_192:\n        /* \"#utility.yul\":6914:6984   */\n      tag_193\n        /* \"#utility.yul\":6980:6982   */\n      0x40\n        /* \"#utility.yul\":6969:6978   */\n      dup4\n        /* \"#utility.yul\":6965:6983   */\n      add\n        /* \"#utility.yul\":6956:6962   */\n      dup8\n        /* \"#utility.yul\":6914:6984   */\n      tag_172\n      jump\t// in\n    tag_193:\n        /* \"#utility.yul\":6994:7072   */\n      tag_194\n        /* \"#utility.yul\":7068:7070   */\n      0x60\n        /* \"#utility.yul\":7057:7066   */\n      dup4\n        /* \"#utility.yul\":7053:7071   */\n      add\n        /* \"#utility.yul\":7044:7050   */\n      dup7\n        /* \"#utility.yul\":6994:7072   */\n      tag_157\n      jump\t// in\n    tag_194:\n        /* \"#utility.yul\":7082:7155   */\n      tag_195\n        /* \"#utility.yul\":7150:7153   */\n      0x80\n        /* \"#utility.yul\":7139:7148   */\n      dup4\n        /* \"#utility.yul\":7135:7154   */\n      add\n        /* \"#utility.yul\":7126:7132   */\n      dup6\n        /* \"#utility.yul\":7082:7155   */\n      tag_153\n      jump\t// in\n    tag_195:\n        /* \"#utility.yul\":7165:7238   */\n      tag_196\n        /* \"#utility.yul\":7233:7236   */\n      0xa0\n        /* \"#utility.yul\":7222:7231   */\n      dup4\n        /* \"#utility.yul\":7218:7237   */\n      add\n        /* \"#utility.yul\":7209:7215   */\n      dup5\n        /* \"#utility.yul\":7165:7238   */\n      tag_153\n      jump\t// in\n    tag_196:\n        /* \"#utility.yul\":6474:7245   */\n      swap8\n      swap7\n      pop\n      pop\n      pop\n      pop\n      pop\n      pop\n      pop\n      jump\t// out\n        /* \"#utility.yul\":7251:7681   */\n    tag_36:\n        /* \"#utility.yul\":7394:7398   */\n      0x00\n        /* \"#utility.yul\":7432:7434   */\n      0x60\n        /* \"#utility.yul\":7421:7430   */\n      dup3\n        /* \"#utility.yul\":7417:7435   */\n      add\n        /* \"#utility.yul\":7409:7435   */\n      swap1\n      pop\n        /* \"#utility.yul\":7445:7510   */\n      tag_198\n        /* \"#utility.yul\":7507:7508   */\n      0x00\n        /* \"#utility.yul\":7496:7505   */\n      dup4\n        /* \"#utility.yul\":7492:7509   */\n      add\n        /* \"#utility.yul\":7483:7489   */\n      dup7\n        /* \"#utility.yul\":7445:7510   */\n      tag_149\n      jump\t// in\n    tag_198:\n        /* \"#utility.yul\":7520:7592   */\n      tag_199\n        /* \"#utility.yul\":7588:7590   */\n      0x20\n        /* \"#utility.yul\":7577:7586   */\n      dup4\n        /* \"#utility.yul\":7573:7591   */\n      add\n        /* \"#utility.yul\":7564:7570   */\n      dup6\n        /* \"#utility.yul\":7520:7592   */\n      tag_153\n      jump\t// in\n    tag_199:\n        /* \"#utility.yul\":7602:7674   */\n      tag_200\n        /* \"#utility.yul\":7670:7672   */\n      0x40\n        /* \"#utility.yul\":7659:7668   */\n      dup4\n        /* \"#utility.yul\":7655:7673   */\n      add\n        /* \"#utility.yul\":7646:7652   */\n      dup5\n        /* \"#utility.yul\":7602:7674   */\n      tag_153\n      jump\t// in\n    tag_200:\n        /* \"#utility.yul\":7251:7681   */\n      swap5\n      swap4\n      pop\n      pop\n      pop\n      pop\n      jump\t// out\n        /* \"#utility.yul\":7687:8228   */\n    tag_31:\n        /* \"#utility.yul\":7858:7862   */\n      0x00\n        /* \"#utility.yul\":7896:7899   */\n      0x80\n        /* \"#utility.yul\":7885:7894   */\n      dup3\n        /* \"#utility.yul\":7881:7900   */\n      add\n        /* \"#utility.yul\":7873:7900   */\n      swap1\n      pop\n        /* \"#utility.yul\":7910:7975   */\n      tag_202\n        /* \"#utility.yul\":7972:7973   */\n      0x00\n        /* \"#utility.yul\":7961:7970   */\n      dup4\n        /* \"#utility.yul\":7957:7974   */\n      add\n        /* \"#utility.yul\":7948:7954   */\n      dup8\n        /* \"#utility.yul\":7910:7975   */\n      tag_149\n      jump\t// in\n    tag_202:\n        /* \"#utility.yul\":7985:8057   */\n      tag_203\n        /* \"#utility.yul\":8053:8055   */\n      0x20\n        /* \"#utility.yul\":8042:8051   */\n      dup4\n        /* \"#utility.yul\":8038:8056   */\n      add\n        /* \"#utility.yul\":8029:8035   */\n      dup7\n        /* \"#utility.yul\":7985:8057   */\n      tag_153\n      jump\t// in\n    tag_203:\n        /* \"#utility.yul\":8067:8139   */\n      tag_204\n        /* \"#utility.yul\":8135:8137   */\n      0x40\n        /* \"#utility.yul\":8124:8133   */\n      dup4\n        /* \"#utility.yul\":8120:8138   */\n      add\n        /* \"#utility.yul\":8111:8117   */\n      dup6\n        /* \"#utility.yul\":8067:8139   */\n      tag_176\n      jump\t// in\n    tag_204:\n        /* \"#utility.yul\":8149:8221   */\n      tag_205\n        /* \"#utility.yul\":8217:8219   */\n      0x60\n        /* \"#utility.yul\":8206:8215   */\n      dup4\n        /* \"#utility.yul\":8202:8220   */\n      add\n        /* \"#utility.yul\":8193:8199   */\n      dup5\n        /* \"#utility.yul\":8149:8221   */\n      tag_153\n      jump\t// in\n    tag_205:\n        /* \"#utility.yul\":7687:8228   */\n      swap6\n      swap5\n      pop\n      pop\n      pop\n      pop\n      pop\n      jump\t// out\n        /* \"#utility.yul\":8234:8656   */\n    tag_66:\n        /* \"#utility.yul\":8373:8377   */\n      0x00\n        /* \"#utility.yul\":8411:8413   */\n      0x60\n        /* \"#utility.yul\":8400:8409   */\n      dup3\n        /* \"#utility.yul\":8396:8414   */\n      add\n        /* \"#utility.yul\":8388:8414   */\n      swap1\n      pop\n        /* \"#utility.yul\":8424:8489   */\n      tag_207\n        /* \"#utility.yul\":8486:8487   */\n      0x00\n        /* \"#utility.yul\":8475:8484   */\n      dup4\n        /* \"#utility.yul\":8471:8488   */\n      add\n        /* \"#utility.yul\":8462:8468   */\n      dup7\n        /* \"#utility.yul\":8424:8489   */\n      tag_149\n      jump\t// in\n    tag_207:\n        /* \"#utility.yul\":8499:8571   */\n      tag_208\n        /* \"#utility.yul\":8567:8569   */\n      0x20\n        /* \"#utility.yul\":8556:8565   */\n      dup4\n        /* \"#utility.yul\":8552:8570   */\n      add\n        /* \"#utility.yul\":8543:8549   */\n      dup6\n        /* \"#utility.yul\":8499:8571   */\n      tag_153\n      jump\t// in\n    tag_208:\n        /* \"#utility.yul\":8581:8649   */\n      tag_209\n        /* \"#utility.yul\":8645:8647   */\n      0x40\n        /* \"#utility.yul\":8634:8643   */\n      dup4\n        /* \"#utility.yul\":8630:8648   */\n      add\n        /* \"#utility.yul\":8621:8627   */\n      dup5\n        /* \"#utility.yul\":8581:8649   */\n      tag_184\n      jump\t// in\n    tag_209:\n        /* \"#utility.yul\":8234:8656   */\n      swap5\n      swap4\n      pop\n      pop\n      pop\n      pop\n      jump\t// out\n        /* \"#utility.yul\":8662:9081   */\n    tag_70:\n        /* \"#utility.yul\":8828:8832   */\n      0x00\n        /* \"#utility.yul\":8866:8868   */\n      0x20\n        /* \"#utility.yul\":8855:8864   */\n      dup3\n        /* \"#utility.yul\":8851:8869   */\n      add\n        /* \"#utility.yul\":8843:8869   */\n      swap1\n      pop\n        /* \"#utility.yul\":8915:8924   */\n      dup2\n        /* \"#utility.yul\":8909:8913   */\n      dup2\n        /* \"#utility.yul\":8905:8925   */\n      sub\n        /* \"#utility.yul\":8901:8902   */\n      0x00\n        /* \"#utility.yul\":8890:8899   */\n      dup4\n        /* \"#utility.yul\":8886:8903   */\n      add\n        /* \"#utility.yul\":8879:8926   */\n      mstore\n        /* \"#utility.yul\":8943:9074   */\n      tag_211\n        /* \"#utility.yul\":9069:9073   */\n      dup2\n        /* \"#utility.yul\":8943:9074   */\n      tag_161\n      jump\t// in\n    tag_211:\n        /* \"#utility.yul\":8935:9074   */\n      swap1\n      pop\n        /* \"#utility.yul\":8662:9081   */\n      swap2\n      swap1\n      pop\n      jump\t// out\n        /* \"#utility.yul\":9087:9506   */\n    tag_74:\n        /* \"#utility.yul\":9253:9257   */\n      0x00\n        /* \"#utility.yul\":9291:9293   */\n      0x20\n        /* \"#utility.yul\":9280:9289   */\n      dup3\n        /* \"#utility.yul\":9276:9294   */\n      add\n        /* \"#utility.yul\":9268:9294   */\n      swap1\n      pop\n        /* \"#utility.yul\":9340:9349   */\n      dup2\n        /* \"#utility.yul\":9334:9338   */\n      dup2\n        /* \"#utility.yul\":9330:9350   */\n      sub\n        /* \"#utility.yul\":9326:9327   */\n      0x00\n        /* \"#utility.yul\":9315:9324   */\n      dup4\n        /* \"#utility.yul\":9311:9328   */\n      add\n        /* \"#utility.yul\":9304:9351   */\n      mstore\n        /* \"#utility.yul\":9368:9499   */\n      tag_213\n        /* \"#utility.yul\":9494:9498   */\n      dup2\n        /* \"#utility.yul\":9368:9499   */\n      tag_167\n      jump\t// in\n    tag_213:\n        /* \"#utility.yul\":9360:9499   */\n      swap1\n      pop\n        /* \"#utility.yul\":9087:9506   */\n      swap2\n      swap1\n      pop\n      jump\t// out\n        /* \"#utility.yul\":9512:9734   */\n    tag_46:\n        /* \"#utility.yul\":9605:9609   */\n      0x00\n        /* \"#utility.yul\":9643:9645   */\n      0x20\n        /* \"#utility.yul\":9632:9641   */\n      dup3\n        /* \"#utility.yul\":9628:9646   */\n      add\n        /* \"#utility.yul\":9620:9646   */\n      swap1\n      pop\n        /* \"#utility.yul\":9656:9727   */\n      tag_215\n        /* \"#utility.yul\":9724:9725   */\n      0x00\n        /* \"#utility.yul\":9713:9722   */\n      dup4\n        /* \"#utility.yul\":9709:9726   */\n      add\n        /* \"#utility.yul\":9700:9706   */\n      dup5\n        /* \"#utility.yul\":9656:9727   */\n      tag_176\n      jump\t// in\n    tag_215:\n        /* \"#utility.yul\":9512:9734   */\n      swap3\n      swap2\n      pop\n      pop\n      jump\t// out\n        /* \"#utility.yul\":9740:10293   */\n    tag_76:\n        /* \"#utility.yul\":9917:9921   */\n      0x00\n        /* \"#utility.yul\":9955:9958   */\n      0x80\n        /* \"#utility.yul\":9944:9953   */\n      dup3\n        /* \"#utility.yul\":9940:9959   */\n      add\n        /* \"#utility.yul\":9932:9959   */\n      swap1\n      pop\n        /* \"#utility.yul\":9969:10040   */\n      tag_217\n        /* \"#utility.yul\":10037:10038   */\n      0x00\n        /* \"#utility.yul\":10026:10035   */\n      dup4\n        /* \"#utility.yul\":10022:10039   */\n      add\n        /* \"#utility.yul\":10013:10019   */\n      dup8\n        /* \"#utility.yul\":9969:10040   */\n      tag_176\n      jump\t// in\n    tag_217:\n        /* \"#utility.yul\":10050:10122   */\n      tag_218\n        /* \"#utility.yul\":10118:10120   */\n      0x20\n        /* \"#utility.yul\":10107:10116   */\n      dup4\n        /* \"#utility.yul\":10103:10121   */\n      add\n        /* \"#utility.yul\":10094:10100   */\n      dup7\n        /* \"#utility.yul\":10050:10122   */\n      tag_145\n      jump\t// in\n    tag_218:\n        /* \"#utility.yul\":10132:10204   */\n      tag_219\n        /* \"#utility.yul\":10200:10202   */\n      0x40\n        /* \"#utility.yul\":10189:10198   */\n      dup4\n        /* \"#utility.yul\":10185:10203   */\n      add\n        /* \"#utility.yul\":10176:10182   */\n      dup6\n        /* \"#utility.yul\":10132:10204   */\n      tag_176\n      jump\t// in\n    tag_219:\n        /* \"#utility.yul\":10214:10286   */\n      tag_220\n        /* \"#utility.yul\":10282:10284   */\n      0x60\n        /* \"#utility.yul\":10271:10280   */\n      dup4\n        /* \"#utility.yul\":10267:10285   */\n      add\n        /* \"#utility.yul\":10258:10264   */\n      dup5\n        /* \"#utility.yul\":10214:10286   */\n      tag_176\n      jump\t// in\n    tag_220:\n        /* \"#utility.yul\":9740:10293   */\n      swap6\n      swap5\n      pop\n      pop\n      pop\n      pop\n      pop\n      jump\t// out\n        /* \"#utility.yul\":10299:11712   */\n    tag_26:\n        /* \"#utility.yul\":10686:10690   */\n      0x00\n        /* \"#utility.yul\":10724:10727   */\n      0x0180\n        /* \"#utility.yul\":10713:10722   */\n      dup3\n        /* \"#utility.yul\":10709:10728   */\n      add\n        /* \"#utility.yul\":10701:10728   */\n      swap1\n      pop\n        /* \"#utility.yul\":10738:10809   */\n      tag_222\n        /* \"#utility.yul\":10806:10807   */\n      0x00\n        /* \"#utility.yul\":10795:10804   */\n      dup4\n        /* \"#utility.yul\":10791:10808   */\n      add\n        /* \"#utility.yul\":10782:10788   */\n      dup16\n        /* \"#utility.yul\":10738:10809   */\n      tag_176\n      jump\t// in\n    tag_222:\n        /* \"#utility.yul\":10819:10891   */\n      tag_223\n        /* \"#utility.yul\":10887:10889   */\n      0x20\n        /* \"#utility.yul\":10876:10885   */\n      dup4\n        /* \"#utility.yul\":10872:10890   */\n      add\n        /* \"#utility.yul\":10863:10869   */\n      dup15\n        /* \"#utility.yul\":10819:10891   */\n      tag_176\n      jump\t// in\n    tag_223:\n        /* \"#utility.yul\":10901:10973   */\n      tag_224\n        /* \"#utility.yul\":10969:10971   */\n      0x40\n        /* \"#utility.yul\":10958:10967   */\n      dup4\n        /* \"#utility.yul\":10954:10972   */\n      add\n        /* \"#utility.yul\":10945:10951   */\n      dup14\n        /* \"#utility.yul\":10901:10973   */\n      tag_176\n      jump\t// in\n    tag_224:\n        /* \"#utility.yul\":10983:11051   */\n      tag_225\n        /* \"#utility.yul\":11047:11049   */\n      0x60\n        /* \"#utility.yul\":11036:11045   */\n      dup4\n        /* \"#utility.yul\":11032:11050   */\n      add\n        /* \"#utility.yul\":11023:11029   */\n      dup13\n        /* \"#utility.yul\":10983:11051   */\n      tag_184\n      jump\t// in\n    tag_225:\n        /* \"#utility.yul\":11061:11134   */\n      tag_226\n        /* \"#utility.yul\":11129:11132   */\n      0x80\n        /* \"#utility.yul\":11118:11127   */\n      dup4\n        /* \"#utility.yul\":11114:11133   */\n      add\n        /* \"#utility.yul\":11105:11111   */\n      dup12\n        /* \"#utility.yul\":11061:11134   */\n      tag_153\n      jump\t// in\n    tag_226:\n        /* \"#utility.yul\":11144:11217   */\n      tag_227\n        /* \"#utility.yul\":11212:11215   */\n      0xa0\n        /* \"#utility.yul\":11201:11210   */\n      dup4\n        /* \"#utility.yul\":11197:11216   */\n      add\n        /* \"#utility.yul\":11188:11194   */\n      dup11\n        /* \"#utility.yul\":11144:11217   */\n      tag_153\n      jump\t// in\n    tag_227:\n        /* \"#utility.yul\":11227:11300   */\n      tag_228\n        /* \"#utility.yul\":11295:11298   */\n      0xc0\n        /* \"#utility.yul\":11284:11293   */\n      dup4\n        /* \"#utility.yul\":11280:11299   */\n      add\n        /* \"#utility.yul\":11271:11277   */\n      dup10\n        /* \"#utility.yul\":11227:11300   */\n      tag_145\n      jump\t// in\n    tag_228:\n        /* \"#utility.yul\":11310:11381   */\n      tag_229\n        /* \"#utility.yul\":11376:11379   */\n      0xe0\n        /* \"#utility.yul\":11365:11374   */\n      dup4\n        /* \"#utility.yul\":11361:11380   */\n      add\n        /* \"#utility.yul\":11352:11358   */\n      dup9\n        /* \"#utility.yul\":11310:11381   */\n      tag_172\n      jump\t// in\n    tag_229:\n        /* \"#utility.yul\":11391:11462   */\n      tag_230\n        /* \"#utility.yul\":11457:11460   */\n      0x0100\n        /* \"#utility.yul\":11446:11455   */\n      dup4\n        /* \"#utility.yul\":11442:11461   */\n      add\n        /* \"#utility.yul\":11433:11439   */\n      dup8\n        /* \"#utility.yul\":11391:11462   */\n      tag_172\n      jump\t// in\n    tag_230:\n        /* \"#utility.yul\":11472:11543   */\n      tag_231\n        /* \"#utility.yul\":11538:11541   */\n      0x0120\n        /* \"#utility.yul\":11527:11536   */\n      dup4\n        /* \"#utility.yul\":11523:11542   */\n      add\n        /* \"#utility.yul\":11514:11520   */\n      dup7\n        /* \"#utility.yul\":11472:11543   */\n      tag_180\n      jump\t// in\n    tag_231:\n        /* \"#utility.yul\":11553:11623   */\n      tag_232\n        /* \"#utility.yul\":11618:11621   */\n      0x0140\n        /* \"#utility.yul\":11607:11616   */\n      dup4\n        /* \"#utility.yul\":11603:11622   */\n      add\n        /* \"#utility.yul\":11593:11600   */\n      dup6\n        /* \"#utility.yul\":11553:11623   */\n      tag_184\n      jump\t// in\n    tag_232:\n        /* \"#utility.yul\":11633:11705   */\n      tag_233\n        /* \"#utility.yul\":11700:11703   */\n      0x0160\n        /* \"#utility.yul\":11689:11698   */\n      dup4\n        /* \"#utility.yul\":11685:11704   */\n      add\n        /* \"#utility.yul\":11675:11682   */\n      dup5\n        /* \"#utility.yul\":11633:11705   */\n      tag_180\n      jump\t// in\n    tag_233:\n        /* \"#utility.yul\":10299:11712   */\n      swap14\n      swap13\n      pop\n      pop\n      pop\n      pop\n      pop\n      pop\n      pop\n      pop\n      pop\n      pop\n      pop\n      pop\n      pop\n      jump\t// out\n        /* \"#utility.yul\":11718:11847   */\n    tag_101:\n        /* \"#utility.yul\":11752:11758   */\n      0x00\n        /* \"#utility.yul\":11779:11799   */\n      tag_235\n      tag_236\n      jump\t// in\n    tag_235:\n        /* \"#utility.yul\":11769:11799   */\n      swap1\n      pop\n        /* \"#utility.yul\":11808:11841   */\n      tag_237\n        /* \"#utility.yul\":11836:11840   */\n      dup3\n        /* \"#utility.yul\":11828:11834   */\n      dup3\n        /* \"#utility.yul\":11808:11841   */\n      tag_238\n      jump\t// in\n    tag_237:\n        /* \"#utility.yul\":11718:11847   */\n      swap2\n      swap1\n      pop\n      jump\t// out\n        /* \"#utility.yul\":11853:11928   */\n    tag_236:\n        /* \"#utility.yul\":11886:11892   */\n      0x00\n        /* \"#utility.yul\":11919:11921   */\n      0x40\n        /* \"#utility.yul\":11913:11922   */\n      mload\n        /* \"#utility.yul\":11903:11922   */\n      swap1\n      pop\n        /* \"#utility.yul\":11853:11928   */\n      swap1\n      jump\t// out\n        /* \"#utility.yul\":11934:12103   */\n    tag_164:\n        /* \"#utility.yul\":12018:12029   */\n      0x00\n        /* \"#utility.yul\":12052:12058   */\n      dup3\n        /* \"#utility.yul\":12047:12050   */\n      dup3\n        /* \"#utility.yul\":12040:12059   */\n      mstore\n        /* \"#utility.yul\":12092:12096   */\n      0x20\n        /* \"#utility.yul\":12087:12090   */\n      dup3\n        /* \"#utility.yul\":12083:12097   */\n      add\n        /* \"#utility.yul\":12068:12097   */\n      swap1\n      pop\n        /* \"#utility.yul\":11934:12103   */\n      swap3\n      swap2\n      pop\n      pop\n      jump\t// out\n        /* \"#utility.yul\":12109:12205   */\n    tag_148:\n        /* \"#utility.yul\":12146:12153   */\n      0x00\n        /* \"#utility.yul\":12175:12199   */\n      tag_242\n        /* \"#utility.yul\":12193:12198   */\n      dup3\n        /* \"#utility.yul\":12175:12199   */\n      tag_243\n      jump\t// in\n    tag_242:\n        /* \"#utility.yul\":12164:12199   */\n      swap1\n      pop\n        /* \"#utility.yul\":12109:12205   */\n      swap2\n      swap1\n      pop\n      jump\t// out\n        /* \"#utility.yul\":12211:12301   */\n    tag_152:\n        /* \"#utility.yul\":12245:12252   */\n      0x00\n        /* \"#utility.yul\":12288:12293   */\n      dup2\n        /* \"#utility.yul\":12281:12294   */\n      iszero\n        /* \"#utility.yul\":12274:12295   */\n      iszero\n        /* \"#utility.yul\":12263:12295   */\n      swap1\n      pop\n        /* \"#utility.yul\":12211:12301   */\n      swap2\n      swap1\n      pop\n      jump\t// out\n        /* \"#utility.yul\":12307:12384   */\n    tag_156:\n        /* \"#utility.yul\":12344:12351   */\n      0x00\n        /* \"#utility.yul\":12373:12378   */\n      dup2\n        /* \"#utility.yul\":12362:12378   */\n      swap1\n      pop\n        /* \"#utility.yul\":12307:12384   */\n      swap2\n      swap1\n      pop\n      jump\t// out\n        /* \"#utility.yul\":12390:12517   */\n    tag_246:\n        /* \"#utility.yul\":12435:12442   */\n      0x00\n        /* \"#utility.yul\":12464:12469   */\n      dup2\n        /* \"#utility.yul\":12453:12469   */\n      swap1\n      pop\n        /* \"#utility.yul\":12470:12511   */\n      tag_248\n        /* \"#utility.yul\":12505:12510   */\n      dup3\n        /* \"#utility.yul\":12470:12511   */\n      tag_249\n      jump\t// in\n    tag_248:\n        /* \"#utility.yul\":12390:12517   */\n      swap2\n      swap1\n      pop\n      jump\t// out\n        /* \"#utility.yul\":12523:12612   */\n    tag_175:\n        /* \"#utility.yul\":12559:12566   */\n      0x00\n        /* \"#utility.yul\":12599:12605   */\n      0xffff\n        /* \"#utility.yul\":12592:12597   */\n      dup3\n        /* \"#utility.yul\":12588:12606   */\n      and\n        /* \"#utility.yul\":12577:12606   */\n      swap1\n      pop\n        /* \"#utility.yul\":12523:12612   */\n      swap2\n      swap1\n      pop\n      jump\t// out\n        /* \"#utility.yul\":12618:12744   */\n    tag_243:\n        /* \"#utility.yul\":12655:12662   */\n      0x00\n        /* \"#utility.yul\":12695:12737   */\n      0xffffffffffffffffffffffffffffffffffffffff\n        /* \"#utility.yul\":12688:12693   */\n      dup3\n        /* \"#utility.yul\":12684:12738   */\n      and\n        /* \"#utility.yul\":12673:12738   */\n      swap1\n      pop\n        /* \"#utility.yul\":12618:12744   */\n      swap2\n      swap1\n      pop\n      jump\t// out\n        /* \"#utility.yul\":12750:12827   */\n    tag_179:\n        /* \"#utility.yul\":12787:12794   */\n      0x00\n        /* \"#utility.yul\":12816:12821   */\n      dup2\n        /* \"#utility.yul\":12805:12821   */\n      swap1\n      pop\n        /* \"#utility.yul\":12750:12827   */\n      swap2\n      swap1\n      pop\n      jump\t// out\n        /* \"#utility.yul\":12833:12926   */\n    tag_183:\n        /* \"#utility.yul\":12869:12876   */\n      0x00\n        /* \"#utility.yul\":12909:12919   */\n      0xffffffff\n        /* \"#utility.yul\":12902:12907   */\n      dup3\n        /* \"#utility.yul\":12898:12920   */\n      and\n        /* \"#utility.yul\":12887:12920   */\n      swap1\n      pop\n        /* \"#utility.yul\":12833:12926   */\n      swap2\n      swap1\n      pop\n      jump\t// out\n        /* \"#utility.yul\":12932:13018   */\n    tag_187:\n        /* \"#utility.yul\":12967:12974   */\n      0x00\n        /* \"#utility.yul\":13007:13011   */\n      0xff\n        /* \"#utility.yul\":13000:13005   */\n      dup3\n        /* \"#utility.yul\":12996:13012   */\n      and\n        /* \"#utility.yul\":12985:13012   */\n      swap1\n      pop\n        /* \"#utility.yul\":12932:13018   */\n      swap2\n      swap1\n      pop\n      jump\t// out\n        /* \"#utility.yul\":13024:13151   */\n    tag_160:\n        /* \"#utility.yul\":13080:13089   */\n      0x00\n        /* \"#utility.yul\":13113:13145   */\n      tag_256\n        /* \"#utility.yul\":13139:13144   */\n      dup3\n        /* \"#utility.yul\":13113:13145   */\n      tag_246\n      jump\t// in\n    tag_256:\n        /* \"#utility.yul\":13100:13145   */\n      swap1\n      pop\n        /* \"#utility.yul\":13024:13151   */\n      swap2\n      swap1\n      pop\n      jump\t// out\n        /* \"#utility.yul\":13157:13438   */\n    tag_238:\n        /* \"#utility.yul\":13240:13267   */\n      tag_258\n        /* \"#utility.yul\":13262:13266   */\n      dup3\n        /* \"#utility.yul\":13240:13267   */\n      tag_259\n      jump\t// in\n    tag_258:\n        /* \"#utility.yul\":13232:13238   */\n      dup2\n        /* \"#utility.yul\":13228:13268   */\n      add\n        /* \"#utility.yul\":13370:13376   */\n      dup2\n        /* \"#utility.yul\":13358:13368   */\n      dup2\n        /* \"#utility.yul\":13355:13377   */\n      lt\n        /* \"#utility.yul\":13334:13352   */\n      0xffffffffffffffff\n        /* \"#utility.yul\":13322:13332   */\n      dup3\n        /* \"#utility.yul\":13319:13353   */\n      gt\n        /* \"#utility.yul\":13316:13378   */\n      or\n        /* \"#utility.yul\":13313:13401   */\n      iszero\n      tag_260\n      jumpi\n        /* \"#utility.yul\":13381:13399   */\n      tag_261\n      tag_262\n      jump\t// in\n    tag_261:\n        /* \"#utility.yul\":13313:13401   */\n    tag_260:\n        /* \"#utility.yul\":13421:13431   */\n      dup1\n        /* \"#utility.yul\":13417:13419   */\n      0x40\n        /* \"#utility.yul\":13410:13432   */\n      mstore\n        /* \"#utility.yul\":13200:13438   */\n      pop\n        /* \"#utility.yul\":13157:13438   */\n      pop\n      pop\n      jump\t// out\n        /* \"#utility.yul\":13444:13677   */\n    tag_84:\n        /* \"#utility.yul\":13483:13486   */\n      0x00\n        /* \"#utility.yul\":13506:13530   */\n      tag_264\n        /* \"#utility.yul\":13524:13529   */\n      dup3\n        /* \"#utility.yul\":13506:13530   */\n      tag_179\n      jump\t// in\n    tag_264:\n        /* \"#utility.yul\":13497:13530   */\n      swap2\n      pop\n        /* \"#utility.yul\":13552:13618   */\n      0xffffffffffffffffffffffffffffffffffffffffffffffffffffffffffffffff\n        /* \"#utility.yul\":13545:13550   */\n      dup3\n        /* \"#utility.yul\":13542:13619   */\n      eq\n        /* \"#utility.yul\":13539:13642   */\n      iszero\n      tag_265\n      jumpi\n        /* \"#utility.yul\":13622:13640   */\n      tag_266\n      tag_267\n      jump\t// in\n    tag_266:\n        /* \"#utility.yul\":13539:13642   */\n    tag_265:\n        /* \"#utility.yul\":13669:13670   */\n      0x01\n        /* \"#utility.yul\":13662:13667   */\n      dup3\n        /* \"#utility.yul\":13658:13671   */\n      add\n        /* \"#utility.yul\":13651:13671   */\n      swap1\n      pop\n        /* \"#utility.yul\":13444:13677   */\n      swap2\n      swap1\n      pop\n      jump\t// out\n        /* \"#utility.yul\":13683:13863   */\n    tag_267:\n        /* \"#utility.yul\":13731:13808   */\n      0x4e487b7100000000000000000000000000000000000000000000000000000000\n        /* \"#utility.yul\":13728:13729   */\n      0x00\n        /* \"#utility.yul\":13721:13809   */\n      mstore\n        /* \"#utility.yul\":13828:13832   */\n      0x11\n        /* \"#utility.yul\":13825:13826   */\n      0x04\n        /* \"#utility.yul\":13818:13833   */\n      mstore\n        /* \"#utility.yul\":13852:13856   */\n      0x24\n        /* \"#utility.yul\":13849:13850   */\n      0x00\n        /* \"#utility.yul\":13842:13857   */\n      revert\n        /* \"#utility.yul\":13869:14049   */\n    tag_269:\n        /* \"#utility.yul\":13917:13994   */\n      0x4e487b7100000000000000000000000000000000000000000000000000000000\n        /* \"#utility.yul\":13914:13915   */\n      0x00\n        /* \"#utility.yul\":13907:13995   */\n      mstore\n        /* \"#utility.yul\":14014:14018   */\n      0x21\n        /* \"#utility.yul\":14011:14012   */\n      0x04\n        /* \"#utility.yul\":14004:14019   */\n      mstore\n        /* \"#utility.yul\":14038:14042   */\n      0x24\n        /* \"#utility.yul\":14035:14036   */\n      0x00\n        /* \"#utility.yul\":14028:14043   */\n      revert\n        /* \"#utility.yul\":14055:14235   */\n    tag_262:\n        /* \"#utility.yul\":14103:14180   */\n      0x4e487b7100000000000000000000000000000000000000000000000000000000\n        /* \"#utility.yul\":14100:14101   */\n      0x00\n        /* \"#utility.yul\":14093:14181   */\n      mstore\n        /* \"#utility.yul\":14200:14204   */\n      0x41\n        /* \"#utility.yul\":14197:14198   */\n      0x04\n        /* \"#utility.yul\":14190:14205   */\n      mstore\n        /* \"#utility.yul\":14224:14228   */\n      0x24\n        /* \"#utility.yul\":14221:14222   */\n      0x00\n        /* \"#utility.yul\":14214:14229   */\n      revert\n        /* \"#utility.yul\":14241:14358   */\n    tag_99:\n        /* \"#utility.yul\":14350:14351   */\n      0x00\n        /* \"#utility.yul\":14347:14348   */\n      dup1\n        /* \"#utility.yul\":14340:14352   */\n      revert\n        /* \"#utility.yul\":14610:14727   */\n    tag_133:\n        /* \"#utility.yul\":14719:14720   */\n      0x00\n        /* \"#utility.yul\":14716:14717   */\n      dup1\n        /* \"#utility.yul\":14709:14721   */\n      revert\n        /* \"#utility.yul\":14733:14835   */\n    tag_259:\n        /* \"#utility.yul\":14774:14780   */\n      0x00\n        /* \"#utility.yul\":14825:14827   */\n      0x1f\n        /* \"#utility.yul\":14821:14828   */\n      not\n        /* \"#utility.yul\":14816:14818   */\n      0x1f\n        /* \"#utility.yul\":14809:14814   */\n      dup4\n        /* \"#utility.yul\":14805:14819   */\n      add\n        /* \"#utility.yul\":14801:14829   */\n      and\n        /* \"#utility.yul\":14791:14829   */\n      swap1\n      pop\n        /* \"#utility.yul\":14733:14835   */\n      swap2\n      swap1\n      pop\n      jump\t// out\n        /* \"#utility.yul\":14841:15066   */\n    tag_166:\n        /* \"#utility.yul\":14981:15015   */\n      0x53616465636520556e69766572736974652062752069736c656d692079617061\n        /* \"#utility.yul\":14977:14978   */\n      0x00\n        /* \"#utility.yul\":14969:14975   */\n      dup3\n        /* \"#utility.yul\":14965:14979   */\n      add\n        /* \"#utility.yul\":14958:15016   */\n      mstore\n        /* \"#utility.yul\":15050:15058   */\n      0x62696c69722e0000000000000000000000000000000000000000000000000000\n        /* \"#utility.yul\":15045:15047   */\n      0x20\n        /* \"#utility.yul\":15037:15043   */\n      dup3\n        /* \"#utility.yul\":15033:15048   */\n      add\n        /* \"#utility.yul\":15026:15059   */\n      mstore\n        /* \"#utility.yul\":14841:15066   */\n      pop\n      jump\t// out\n        /* \"#utility.yul\":15072:15240   */\n    tag_171:\n        /* \"#utility.yul\":15212:15232   */\n      0x53747564656e74206e6f74206578697374730000000000000000000000000000\n        /* \"#utility.yul\":15208:15209   */\n      0x00\n        /* \"#utility.yul\":15200:15206   */\n      dup3\n        /* \"#utility.yul\":15196:15210   */\n      add\n        /* \"#utility.yul\":15189:15233   */\n      mstore\n        /* \"#utility.yul\":15072:15240   */\n      pop\n      jump\t// out\n        /* \"#utility.yul\":15246:15359   */\n    tag_249:\n        /* \"#utility.yul\":15327:15328   */\n      0x04\n        /* \"#utility.yul\":15320:15325   */\n      dup2\n        /* \"#utility.yul\":15317:15329   */\n      lt\n        /* \"#utility.yul\":15307:15353   */\n      tag_282\n      jumpi\n        /* \"#utility.yul\":15333:15351   */\n      tag_283\n      tag_269\n      jump\t// in\n    tag_283:\n        /* \"#utility.yul\":15307:15353   */\n    tag_282:\n        /* \"#utility.yul\":15246:15359   */\n      pop\n      jump\t// out\n        /* \"#utility.yul\":15365:15487   */\n    tag_90:\n        /* \"#utility.yul\":15438:15462   */\n      tag_285\n        /* \"#utility.yul\":15456:15461   */\n      dup2\n        /* \"#utility.yul\":15438:15462   */\n      tag_148\n      jump\t// in\n    tag_285:\n        /* \"#utility.yul\":15431:15436   */\n      dup2\n        /* \"#utility.yul\":15428:15463   */\n      eq\n        /* \"#utility.yul\":15418:15481   */\n      tag_286\n      jumpi\n        /* \"#utility.yul\":15477:15478   */\n      0x00\n        /* \"#utility.yul\":15474:15475   */\n      dup1\n        /* \"#utility.yul\":15467:15479   */\n      revert\n        /* \"#utility.yul\":15418:15481   */\n    tag_286:\n        /* \"#utility.yul\":15365:15487   */\n      pop\n      jump\t// out\n        /* \"#utility.yul\":15493:15615   */\n    tag_94:\n        /* \"#utility.yul\":15566:15590   */\n      tag_288\n        /* \"#utility.yul\":15584:15589   */\n      dup2\n        /* \"#utility.yul\":15566:15590   */\n      tag_156\n      jump\t// in\n    tag_288:\n        /* \"#utility.yul\":15559:15564   */\n      dup2\n        /* \"#utility.yul\":15556:15591   */\n      eq\n        /* \"#utility.yul\":15546:15609   */\n      tag_289\n      jumpi\n        /* \"#utility.yul\":15605:15606   */\n      0x00\n        /* \"#utility.yul\":15602:15603   */\n      dup1\n        /* \"#utility.yul\":15595:15607   */\n      revert\n        /* \"#utility.yul\":15546:15609   */\n    tag_289:\n        /* \"#utility.yul\":15493:15615   */\n      pop\n      jump\t// out\n        /* \"#utility.yul\":15621:15741   */\n    tag_120:\n        /* \"#utility.yul\":15693:15716   */\n      tag_291\n        /* \"#utility.yul\":15710:15715   */\n      dup2\n        /* \"#utility.yul\":15693:15716   */\n      tag_175\n      jump\t// in\n    tag_291:\n        /* \"#utility.yul\":15686:15691   */\n      dup2\n        /* \"#utility.yul\":15683:15717   */\n      eq\n        /* \"#utility.yul\":15673:15735   */\n      tag_292\n      jumpi\n        /* \"#utility.yul\":15731:15732   */\n      0x00\n        /* \"#utility.yul\":15728:15729   */\n      dup1\n        /* \"#utility.yul\":15721:15733   */\n      revert\n        /* \"#utility.yul\":15673:15735   */\n    tag_292:\n        /* \"#utility.yul\":15621:15741   */\n      pop\n      jump\t// out\n        /* \"#utility.yul\":15747:15869   */\n    tag_123:\n        /* \"#utility.yul\":15820:15844   */\n      tag_294\n        /* \"#utility.yul\":15838:15843   */\n      dup2\n        /* \"#utility.yul\":15820:15844   */\n      tag_179\n      jump\t// in\n    tag_294:\n        /* \"#utility.yul\":15813:15818   */\n      dup2\n        /* \"#utility.yul\":15810:15845   */\n      eq\n        /* \"#utility.yul\":15800:15863   */\n      tag_295\n      jumpi\n        /* \"#utility.yul\":15859:15860   */\n      0x00\n        /* \"#utility.yul\":15856:15857   */\n      dup1\n        /* \"#utility.yul\":15849:15861   */\n      revert\n        /* \"#utility.yul\":15800:15863   */\n    tag_295:\n        /* \"#utility.yul\":15747:15869   */\n      pop\n      jump\t// out\n        /* \"#utility.yul\":15875:15995   */\n    tag_126:\n        /* \"#utility.yul\":15947:15970   */\n      tag_297\n        /* \"#utility.yul\":15964:15969   */\n      dup2\n        /* \"#utility.yul\":15947:15970   */\n      tag_183\n      jump\t// in\n    tag_297:\n        /* \"#utility.yul\":15940:15945   */\n      dup2\n        /* \"#utility.yul\":15937:15971   */\n      eq\n        /* \"#utility.yul\":15927:15989   */\n      tag_298\n      jumpi\n        /* \"#utility.yul\":15985:15986   */\n      0x00\n        /* \"#utility.yul\":15982:15983   */\n      dup1\n        /* \"#utility.yul\":15975:15987   */\n      revert\n        /* \"#utility.yul\":15927:15989   */\n    tag_298:\n        /* \"#utility.yul\":15875:15995   */\n      pop\n      jump\t// out\n        /* \"#utility.yul\":16001:16119   */\n    tag_129:\n        /* \"#utility.yul\":16072:16094   */\n      tag_300\n        /* \"#utility.yul\":16088:16093   */\n      dup2\n        /* \"#utility.yul\":16072:16094   */\n      tag_187\n      jump\t// in\n    tag_300:\n        /* \"#utility.yul\":16065:16070   */\n      dup2\n        /* \"#utility.yul\":16062:16095   */\n      eq\n        /* \"#utility.yul\":16052:16113   */\n      tag_301\n      jumpi\n        /* \"#utility.yul\":16109:16110   */\n      0x00\n        /* \"#utility.yul\":16106:16107   */\n      dup1\n        /* \"#utility.yul\":16099:16111   */\n      revert\n        /* \"#utility.yul\":16052:16113   */\n    tag_301:\n        /* \"#utility.yul\":16001:16119   */\n      pop\n      jump\t// out\n\n    auxdata: 0xa2646970667358221220cba30a4ce775db5b2eec5a4014d32466e279b6025c726746d172d564fcc18acd64736f6c63430008070033\n}\n",
				"bytecode": {
					"linkReferences": {},
					"object": "608060405234801561001057600080fd5b50611aed806100206000396000f3fe608060405234801561001057600080fd5b50600436106100a95760003560e01c806356237aa51161007157806356237aa5146101b057806391d19c86146101e05780639eaad92a146101fc578063af640d0f14610231578063e6f7d11e1461024f578063f099556014610281576100a9565b806307de9735146100ae5780632fe34736146100de578063355e6ce814610119578063391bf7a71461014c5780634ed30fb41461017e575b600080fd5b6100c860048036038101906100c391906113b2565b6102b3565b6040516100d5919061151e565b60405180910390f35b6100f860048036038101906100f39190611420565b6102de565b6040516101109c9b9a999897969594939291906116ed565b60405180910390f35b610133600480360381019061012e91906113b2565b6103c1565b60405161014394939291906115d1565b60405180910390f35b610166600480360381019061016191906113b2565b6103fe565b6040516101759392919061159a565b60405180910390f35b610198600480360381019061019391906113b2565b610435565b6040516101a79392919061159a565b60405180910390f35b6101ca60048036038101906101c591906113df565b61046c565b6040516101d7919061168d565b60405180910390f35b6101fa60048036038101906101f591906113df565b610acc565b005b610216600480360381019061021191906113b2565b61110d565b60405161022896959493929190611539565b60405180910390f35b610239611191565b604051610246919061168d565b60405180910390f35b610269600480360381019061026491906113b2565b611197565b6040516102789392919061159a565b60405180910390f35b61029b600480360381019061029691906113b2565b6111ce565b6040516102aa93929190611616565b60405180910390f35b60036020528060005260406000206000915090508060000160009054906101000a900460ff16905081565b600b602052816000526040600020602052806000526040600020600091509150508060000154908060010154908060020154908060030160009054906101000a900460ff16908060040154908060050154908060060160009054906101000a900473ffffffffffffffffffffffffffffffffffffffff16908060060160149054906101000a900461ffff16908060060160169054906101000a900461ffff16908060060160189054906101000a900463ffffffff169080600601601c9054906101000a900460ff16908060070160009054906101000a900463ffffffff1690508c565b60066020528060005260406000206000915090508060000160009054906101000a900460ff16908060010154908060020154908060030154905084565b60076020528060005260406000206000915090508060000160009054906101000a900460ff16908060010154908060020154905083565b60086020528060005260406000206000915090508060000160009054906101000a900460ff16908060010154908060020154905083565b6000600460003373ffffffffffffffffffffffffffffffffffffffff1673ffffffffffffffffffffffffffffffffffffffff16815260200190815260200160002060000160009054906101000a900460ff166104fd576040517f08c379a00000000000000000000000000000000000000000000000000000000081526004016104f49061164d565b60405180910390fd5b600360008473ffffffffffffffffffffffffffffffffffffffff1673ffffffffffffffffffffffffffffffffffffffff16815260200190815260200160002060000160009054906101000a900460ff1661058c576040517f08c379a00000000000000000000000000000000000000000000000000000000081526004016105839061166d565b60405180910390fd5b8160200151600b60008573ffffffffffffffffffffffffffffffffffffffff1673ffffffffffffffffffffffffffffffffffffffff168152602001908152602001600020600084600001518152602001908152602001600020600101819055508160400151600b60008573ffffffffffffffffffffffffffffffffffffffff1673ffffffffffffffffffffffffffffffffffffffff168152602001908152602001600020600084600001518152602001908152602001600020600201819055508160600151600b60008573ffffffffffffffffffffffffffffffffffffffff1673ffffffffffffffffffffffffffffffffffffffff16815260200190815260200160002060008460000151815260200190815260200160002060030160006101000a81548160ff021916908360ff1602179055508160800151600b60008573ffffffffffffffffffffffffffffffffffffffff1673ffffffffffffffffffffffffffffffffffffffff168152602001908152602001600020600084600001518152602001908152602001600020600401819055508160a00151600b60008573ffffffffffffffffffffffffffffffffffffffff1673ffffffffffffffffffffffffffffffffffffffff168152602001908152602001600020600084600001518152602001908152602001600020600501819055508160c00151600b60008573ffffffffffffffffffffffffffffffffffffffff1673ffffffffffffffffffffffffffffffffffffffff16815260200190815260200160002060008460000151815260200190815260200160002060060160006101000a81548173ffffffffffffffffffffffffffffffffffffffff021916908373ffffffffffffffffffffffffffffffffffffffff1602179055508160e00151600b60008573ffffffffffffffffffffffffffffffffffffffff1673ffffffffffffffffffffffffffffffffffffffff16815260200190815260200160002060008460000151815260200190815260200160002060060160146101000a81548161ffff021916908361ffff160217905550816101000151600b60008573ffffffffffffffffffffffffffffffffffffffff1673ffffffffffffffffffffffffffffffffffffffff16815260200190815260200160002060008460000151815260200190815260200160002060060160166101000a81548161ffff021916908361ffff160217905550816101200151600b60008573ffffffffffffffffffffffffffffffffffffffff1673ffffffffffffffffffffffffffffffffffffffff16815260200190815260200160002060008460000151815260200190815260200160002060060160186101000a81548163ffffffff021916908363ffffffff160217905550816101400151600b60008573ffffffffffffffffffffffffffffffffffffffff1673ffffffffffffffffffffffffffffffffffffffff168152602001908152602001600020600084600001518152602001908152602001600020600601601c6101000a81548160ff021916908360ff160217905550816101600151600b60008573ffffffffffffffffffffffffffffffffffffffff1673ffffffffffffffffffffffffffffffffffffffff16815260200190815260200160002060008460000151815260200190815260200160002060070160006101000a81548163ffffffff021916908363ffffffff1602179055507f9cbca7384fc1faed2b0399bc0f183e39f1de460a603e21db7ece2d0870ff424c82600001518360c0015184602001518560400151604051610ab794939291906116a8565b60405180910390a18160000151905092915050565b600460003373ffffffffffffffffffffffffffffffffffffffff1673ffffffffffffffffffffffffffffffffffffffff16815260200190815260200160002060000160009054906101000a900460ff16610b5b576040517f08c379a0000000000000000000000000000000000000000000000000000000008152600401610b529061164d565b60405180910390fd5b600360008373ffffffffffffffffffffffffffffffffffffffff1673ffffffffffffffffffffffffffffffffffffffff16815260200190815260200160002060000160009054906101000a900460ff16610bea576040517f08c379a0000000000000000000000000000000000000000000000000000000008152600401610be19061166d565b60405180910390fd5b6000600a6000815480929190610bff906118b0565b9190505590508160200151600b60008573ffffffffffffffffffffffffffffffffffffffff1673ffffffffffffffffffffffffffffffffffffffff1681526020019081526020016000206000838152602001908152602001600020600101819055508160400151600b60008573ffffffffffffffffffffffffffffffffffffffff1673ffffffffffffffffffffffffffffffffffffffff1681526020019081526020016000206000838152602001908152602001600020600201819055508160600151600b60008573ffffffffffffffffffffffffffffffffffffffff1673ffffffffffffffffffffffffffffffffffffffff168152602001908152602001600020600083815260200190815260200160002060030160006101000a81548160ff021916908360ff1602179055508160800151600b60008573ffffffffffffffffffffffffffffffffffffffff1673ffffffffffffffffffffffffffffffffffffffff1681526020019081526020016000206000838152602001908152602001600020600401819055508160a00151600b60008573ffffffffffffffffffffffffffffffffffffffff1673ffffffffffffffffffffffffffffffffffffffff1681526020019081526020016000206000838152602001908152602001600020600501819055508160c00151600b60008573ffffffffffffffffffffffffffffffffffffffff1673ffffffffffffffffffffffffffffffffffffffff168152602001908152602001600020600083815260200190815260200160002060060160006101000a81548173ffffffffffffffffffffffffffffffffffffffff021916908373ffffffffffffffffffffffffffffffffffffffff1602179055508160e00151600b60008573ffffffffffffffffffffffffffffffffffffffff1673ffffffffffffffffffffffffffffffffffffffff168152602001908152602001600020600083815260200190815260200160002060060160146101000a81548161ffff021916908361ffff160217905550816101000151600b60008573ffffffffffffffffffffffffffffffffffffffff1673ffffffffffffffffffffffffffffffffffffffff168152602001908152602001600020600083815260200190815260200160002060060160166101000a81548161ffff021916908361ffff160217905550816101200151600b60008573ffffffffffffffffffffffffffffffffffffffff1673ffffffffffffffffffffffffffffffffffffffff168152602001908152602001600020600083815260200190815260200160002060060160186101000a81548163ffffffff021916908363ffffffff160217905550816101400151600b60008573ffffffffffffffffffffffffffffffffffffffff1673ffffffffffffffffffffffffffffffffffffffff1681526020019081526020016000206000838152602001908152602001600020600601601c6101000a81548160ff021916908360ff160217905550816101600151600b60008573ffffffffffffffffffffffffffffffffffffffff1673ffffffffffffffffffffffffffffffffffffffff168152602001908152602001600020600083815260200190815260200160002060070160006101000a81548163ffffffff021916908363ffffffff1602179055507f9cbca7384fc1faed2b0399bc0f183e39f1de460a603e21db7ece2d0870ff424c818360c001518460200151856040015160405161110094939291906116a8565b60405180910390a1505050565b60056020528060005260406000206000915090508060000160009054906101000a900460ff16908060000160019054906101000a900473ffffffffffffffffffffffffffffffffffffffff16908060000160159054906101000a900461ffff16908060000160179054906101000a900460ff16908060010154908060020154905086565b600a5481565b60096020528060005260406000206000915090508060000160009054906101000a900460ff16908060010154908060020154905083565b60046020528060005260406000206000915090508060000160009054906101000a900460ff16908060010154908060020160009054906101000a900460ff16905083565b60008135905061122181611a2d565b92915050565b60008135905061123681611a44565b92915050565b6000610180828403121561125357611252611986565b5b61125e6101806117a7565b9050600061126e84828501611373565b600083015250602061128284828501611373565b602083015250604061129684828501611373565b60408301525060606112aa8482850161139d565b60608301525060806112be84828501611227565b60808301525060a06112d284828501611227565b60a08301525060c06112e684828501611212565b60c08301525060e06112fa8482850161135e565b60e08301525061010061130f8482850161135e565b6101008301525061012061132584828501611388565b6101208301525061014061133b8482850161139d565b6101408301525061016061135184828501611388565b6101608301525092915050565b60008135905061136d81611a5b565b92915050565b60008135905061138281611a72565b92915050565b60008135905061139781611a89565b92915050565b6000813590506113ac81611aa0565b92915050565b6000602082840312156113c8576113c761198b565b5b60006113d684828501611212565b91505092915050565b6000806101a083850312156113f7576113f661198b565b5b600061140585828601611212565b92505060206114168582860161123c565b9150509250929050565b600080604083850312156114375761143661198b565b5b600061144585828601611212565b925050602061145685828601611373565b9150509250929050565b611469816117dd565b82525050565b611478816117ef565b82525050565b611487816117fb565b82525050565b6114968161186d565b82525050565b60006114a96026836117cc565b91506114b4826119a1565b604082019050919050565b60006114cc6012836117cc565b91506114d7826119f0565b602082019050919050565b6114eb81611818565b82525050565b6114fa81611846565b82525050565b61150981611850565b82525050565b61151881611860565b82525050565b6000602082019050611533600083018461146f565b92915050565b600060c08201905061154e600083018961146f565b61155b6020830188611460565b61156860408301876114e2565b611575606083018661148d565b611582608083018561147e565b61158f60a083018461147e565b979650505050505050565b60006060820190506115af600083018661146f565b6115bc602083018561147e565b6115c9604083018461147e565b949350505050565b60006080820190506115e6600083018761146f565b6115f3602083018661147e565b61160060408301856114f1565b61160d606083018461147e565b95945050505050565b600060608201905061162b600083018661146f565b611638602083018561147e565b611645604083018461150f565b949350505050565b600060208201905081810360008301526116668161149c565b9050919050565b60006020820190508181036000830152611686816114bf565b9050919050565b60006020820190506116a260008301846114f1565b92915050565b60006080820190506116bd60008301876114f1565b6116ca6020830186611460565b6116d760408301856114f1565b6116e460608301846114f1565b95945050505050565b600061018082019050611703600083018f6114f1565b611710602083018e6114f1565b61171d604083018d6114f1565b61172a606083018c61150f565b611737608083018b61147e565b61174460a083018a61147e565b61175160c0830189611460565b61175e60e08301886114e2565b61176c6101008301876114e2565b61177a610120830186611500565b61178861014083018561150f565b611796610160830184611500565b9d9c50505050505050505050505050565b60006117b16117c2565b90506117bd828261187f565b919050565b6000604051905090565b600082825260208201905092915050565b60006117e882611826565b9050919050565b60008115159050919050565b6000819050919050565b600081905061181382611a19565b919050565b600061ffff82169050919050565b600073ffffffffffffffffffffffffffffffffffffffff82169050919050565b6000819050919050565b600063ffffffff82169050919050565b600060ff82169050919050565b600061187882611805565b9050919050565b61188882611990565b810181811067ffffffffffffffff821117156118a7576118a6611957565b5b80604052505050565b60006118bb82611846565b91507fffffffffffffffffffffffffffffffffffffffffffffffffffffffffffffffff8214156118ee576118ed6118f9565b5b600182019050919050565b7f4e487b7100000000000000000000000000000000000000000000000000000000600052601160045260246000fd5b7f4e487b7100000000000000000000000000000000000000000000000000000000600052602160045260246000fd5b7f4e487b7100000000000000000000000000000000000000000000000000000000600052604160045260246000fd5b600080fd5b600080fd5b6000601f19601f8301169050919050565b7f53616465636520556e69766572736974652062752069736c656d69207961706160008201527f62696c69722e0000000000000000000000000000000000000000000000000000602082015250565b7f53747564656e74206e6f74206578697374730000000000000000000000000000600082015250565b60048110611a2a57611a29611928565b5b50565b611a36816117dd565b8114611a4157600080fd5b50565b611a4d816117fb565b8114611a5857600080fd5b50565b611a6481611818565b8114611a6f57600080fd5b50565b611a7b81611846565b8114611a8657600080fd5b50565b611a9281611850565b8114611a9d57600080fd5b50565b611aa981611860565b8114611ab457600080fd5b5056fea2646970667358221220cba30a4ce775db5b2eec5a4014d32466e279b6025c726746d172d564fcc18acd64736f6c63430008070033",
					"opcodes": "PUSH1 0x80 PUSH1 0x40 MSTORE CALLVALUE DUP1 ISZERO PUSH2 0x10 JUMPI PUSH1 0x0 DUP1 REVERT JUMPDEST POP PUSH2 0x1AED DUP1 PUSH2 0x20 PUSH1 0x0 CODECOPY PUSH1 0x0 RETURN INVALID PUSH1 0x80 PUSH1 0x40 MSTORE CALLVALUE DUP1 ISZERO PUSH2 0x10 JUMPI PUSH1 0x0 DUP1 REVERT JUMPDEST POP PUSH1 0x4 CALLDATASIZE LT PUSH2 0xA9 JUMPI PUSH1 0x0 CALLDATALOAD PUSH1 0xE0 SHR DUP1 PUSH4 0x56237AA5 GT PUSH2 0x71 JUMPI DUP1 PUSH4 0x56237AA5 EQ PUSH2 0x1B0 JUMPI DUP1 PUSH4 0x91D19C86 EQ PUSH2 0x1E0 JUMPI DUP1 PUSH4 0x9EAAD92A EQ PUSH2 0x1FC JUMPI DUP1 PUSH4 0xAF640D0F EQ PUSH2 0x231 JUMPI DUP1 PUSH4 0xE6F7D11E EQ PUSH2 0x24F JUMPI DUP1 PUSH4 0xF0995560 EQ PUSH2 0x281 JUMPI PUSH2 0xA9 JUMP JUMPDEST DUP1 PUSH4 0x7DE9735 EQ PUSH2 0xAE JUMPI DUP1 PUSH4 0x2FE34736 EQ PUSH2 0xDE JUMPI DUP1 PUSH4 0x355E6CE8 EQ PUSH2 0x119 JUMPI DUP1 PUSH4 0x391BF7A7 EQ PUSH2 0x14C JUMPI DUP1 PUSH4 0x4ED30FB4 EQ PUSH2 0x17E JUMPI JUMPDEST PUSH1 0x0 DUP1 REVERT JUMPDEST PUSH2 0xC8 PUSH1 0x4 DUP1 CALLDATASIZE SUB DUP2 ADD SWAP1 PUSH2 0xC3 SWAP2 SWAP1 PUSH2 0x13B2 JUMP JUMPDEST PUSH2 0x2B3 JUMP JUMPDEST PUSH1 0x40 MLOAD PUSH2 0xD5 SWAP2 SWAP1 PUSH2 0x151E JUMP JUMPDEST PUSH1 0x40 MLOAD DUP1 SWAP2 SUB SWAP1 RETURN JUMPDEST PUSH2 0xF8 PUSH1 0x4 DUP1 CALLDATASIZE SUB DUP2 ADD SWAP1 PUSH2 0xF3 SWAP2 SWAP1 PUSH2 0x1420 JUMP JUMPDEST PUSH2 0x2DE JUMP JUMPDEST PUSH1 0x40 MLOAD PUSH2 0x110 SWAP13 SWAP12 SWAP11 SWAP10 SWAP9 SWAP8 SWAP7 SWAP6 SWAP5 SWAP4 SWAP3 SWAP2 SWAP1 PUSH2 0x16ED JUMP JUMPDEST PUSH1 0x40 MLOAD DUP1 SWAP2 SUB SWAP1 RETURN JUMPDEST PUSH2 0x133 PUSH1 0x4 DUP1 CALLDATASIZE SUB DUP2 ADD SWAP1 PUSH2 0x12E SWAP2 SWAP1 PUSH2 0x13B2 JUMP JUMPDEST PUSH2 0x3C1 JUMP JUMPDEST PUSH1 0x40 MLOAD PUSH2 0x143 SWAP5 SWAP4 SWAP3 SWAP2 SWAP1 PUSH2 0x15D1 JUMP JUMPDEST PUSH1 0x40 MLOAD DUP1 SWAP2 SUB SWAP1 RETURN JUMPDEST PUSH2 0x166 PUSH1 0x4 DUP1 CALLDATASIZE SUB DUP2 ADD SWAP1 PUSH2 0x161 SWAP2 SWAP1 PUSH2 0x13B2 JUMP JUMPDEST PUSH2 0x3FE JUMP JUMPDEST PUSH1 0x40 MLOAD PUSH2 0x175 SWAP4 SWAP3 SWAP2 SWAP1 PUSH2 0x159A JUMP JUMPDEST PUSH1 0x40 MLOAD DUP1 SWAP2 SUB SWAP1 RETURN JUMPDEST PUSH2 0x198 PUSH1 0x4 DUP1 CALLDATASIZE SUB DUP2 ADD SWAP1 PUSH2 0x193 SWAP2 SWAP1 PUSH2 0x13B2 JUMP JUMPDEST PUSH2 0x435 JUMP JUMPDEST PUSH1 0x40 MLOAD PUSH2 0x1A7 SWAP4 SWAP3 SWAP2 SWAP1 PUSH2 0x159A JUMP JUMPDEST PUSH1 0x40 MLOAD DUP1 SWAP2 SUB SWAP1 RETURN JUMPDEST PUSH2 0x1CA PUSH1 0x4 DUP1 CALLDATASIZE SUB DUP2 ADD SWAP1 PUSH2 0x1C5 SWAP2 SWAP1 PUSH2 0x13DF JUMP JUMPDEST PUSH2 0x46C JUMP JUMPDEST PUSH1 0x40 MLOAD PUSH2 0x1D7 SWAP2 SWAP1 PUSH2 0x168D JUMP JUMPDEST PUSH1 0x40 MLOAD DUP1 SWAP2 SUB SWAP1 RETURN JUMPDEST PUSH2 0x1FA PUSH1 0x4 DUP1 CALLDATASIZE SUB DUP2 ADD SWAP1 PUSH2 0x1F5 SWAP2 SWAP1 PUSH2 0x13DF JUMP JUMPDEST PUSH2 0xACC JUMP JUMPDEST STOP JUMPDEST PUSH2 0x216 PUSH1 0x4 DUP1 CALLDATASIZE SUB DUP2 ADD SWAP1 PUSH2 0x211 SWAP2 SWAP1 PUSH2 0x13B2 JUMP JUMPDEST PUSH2 0x110D JUMP JUMPDEST PUSH1 0x40 MLOAD PUSH2 0x228 SWAP7 SWAP6 SWAP5 SWAP4 SWAP3 SWAP2 SWAP1 PUSH2 0x1539 JUMP JUMPDEST PUSH1 0x40 MLOAD DUP1 SWAP2 SUB SWAP1 RETURN JUMPDEST PUSH2 0x239 PUSH2 0x1191 JUMP JUMPDEST PUSH1 0x40 MLOAD PUSH2 0x246 SWAP2 SWAP1 PUSH2 0x168D JUMP JUMPDEST PUSH1 0x40 MLOAD DUP1 SWAP2 SUB SWAP1 RETURN JUMPDEST PUSH2 0x269 PUSH1 0x4 DUP1 CALLDATASIZE SUB DUP2 ADD SWAP1 PUSH2 0x264 SWAP2 SWAP1 PUSH2 0x13B2 JUMP JUMPDEST PUSH2 0x1197 JUMP JUMPDEST PUSH1 0x40 MLOAD PUSH2 0x278 SWAP4 SWAP3 SWAP2 SWAP1 PUSH2 0x159A JUMP JUMPDEST PUSH1 0x40 MLOAD DUP1 SWAP2 SUB SWAP1 RETURN JUMPDEST PUSH2 0x29B PUSH1 0x4 DUP1 CALLDATASIZE SUB DUP2 ADD SWAP1 PUSH2 0x296 SWAP2 SWAP1 PUSH2 0x13B2 JUMP JUMPDEST PUSH2 0x11CE JUMP JUMPDEST PUSH1 0x40 MLOAD PUSH2 0x2AA SWAP4 SWAP3 SWAP2 SWAP1 PUSH2 0x1616 JUMP JUMPDEST PUSH1 0x40 MLOAD DUP1 SWAP2 SUB SWAP1 RETURN JUMPDEST PUSH1 0x3 PUSH1 0x20 MSTORE DUP1 PUSH1 0x0 MSTORE PUSH1 0x40 PUSH1 0x0 KECCAK256 PUSH1 0x0 SWAP2 POP SWAP1 POP DUP1 PUSH1 0x0 ADD PUSH1 0x0 SWAP1 SLOAD SWAP1 PUSH2 0x100 EXP SWAP1 DIV PUSH1 0xFF AND SWAP1 POP DUP2 JUMP JUMPDEST PUSH1 0xB PUSH1 0x20 MSTORE DUP2 PUSH1 0x0 MSTORE PUSH1 0x40 PUSH1 0x0 KECCAK256 PUSH1 0x20 MSTORE DUP1 PUSH1 0x0 MSTORE PUSH1 0x40 PUSH1 0x0 KECCAK256 PUSH1 0x0 SWAP2 POP SWAP2 POP POP DUP1 PUSH1 0x0 ADD SLOAD SWAP1 DUP1 PUSH1 0x1 ADD SLOAD SWAP1 DUP1 PUSH1 0x2 ADD SLOAD SWAP1 DUP1 PUSH1 0x3 ADD PUSH1 0x0 SWAP1 SLOAD SWAP1 PUSH2 0x100 EXP SWAP1 DIV PUSH1 0xFF AND SWAP1 DUP1 PUSH1 0x4 ADD SLOAD SWAP1 DUP1 PUSH1 0x5 ADD SLOAD SWAP1 DUP1 PUSH1 0x6 ADD PUSH1 0x0 SWAP1 SLOAD SWAP1 PUSH2 0x100 EXP SWAP1 DIV PUSH20 0xFFFFFFFFFFFFFFFFFFFFFFFFFFFFFFFFFFFFFFFF AND SWAP1 DUP1 PUSH1 0x6 ADD PUSH1 0x14 SWAP1 SLOAD SWAP1 PUSH2 0x100 EXP SWAP1 DIV PUSH2 0xFFFF AND SWAP1 DUP1 PUSH1 0x6 ADD PUSH1 0x16 SWAP1 SLOAD SWAP1 PUSH2 0x100 EXP SWAP1 DIV PUSH2 0xFFFF AND SWAP1 DUP1 PUSH1 0x6 ADD PUSH1 0x18 SWAP1 SLOAD SWAP1 PUSH2 0x100 EXP SWAP1 DIV PUSH4 0xFFFFFFFF AND SWAP1 DUP1 PUSH1 0x6 ADD PUSH1 0x1C SWAP1 SLOAD SWAP1 PUSH2 0x100 EXP SWAP1 DIV PUSH1 0xFF AND SWAP1 DUP1 PUSH1 0x7 ADD PUSH1 0x0 SWAP1 SLOAD SWAP1 PUSH2 0x100 EXP SWAP1 DIV PUSH4 0xFFFFFFFF AND SWAP1 POP DUP13 JUMP JUMPDEST PUSH1 0x6 PUSH1 0x20 MSTORE DUP1 PUSH1 0x0 MSTORE PUSH1 0x40 PUSH1 0x0 KECCAK256 PUSH1 0x0 SWAP2 POP SWAP1 POP DUP1 PUSH1 0x0 ADD PUSH1 0x0 SWAP1 SLOAD SWAP1 PUSH2 0x100 EXP SWAP1 DIV PUSH1 0xFF AND SWAP1 DUP1 PUSH1 0x1 ADD SLOAD SWAP1 DUP1 PUSH1 0x2 ADD SLOAD SWAP1 DUP1 PUSH1 0x3 ADD SLOAD SWAP1 POP DUP5 JUMP JUMPDEST PUSH1 0x7 PUSH1 0x20 MSTORE DUP1 PUSH1 0x0 MSTORE PUSH1 0x40 PUSH1 0x0 KECCAK256 PUSH1 0x0 SWAP2 POP SWAP1 POP DUP1 PUSH1 0x0 ADD PUSH1 0x0 SWAP1 SLOAD SWAP1 PUSH2 0x100 EXP SWAP1 DIV PUSH1 0xFF AND SWAP1 DUP1 PUSH1 0x1 ADD SLOAD SWAP1 DUP1 PUSH1 0x2 ADD SLOAD SWAP1 POP DUP4 JUMP JUMPDEST PUSH1 0x8 PUSH1 0x20 MSTORE DUP1 PUSH1 0x0 MSTORE PUSH1 0x40 PUSH1 0x0 KECCAK256 PUSH1 0x0 SWAP2 POP SWAP1 POP DUP1 PUSH1 0x0 ADD PUSH1 0x0 SWAP1 SLOAD SWAP1 PUSH2 0x100 EXP SWAP1 DIV PUSH1 0xFF AND SWAP1 DUP1 PUSH1 0x1 ADD SLOAD SWAP1 DUP1 PUSH1 0x2 ADD SLOAD SWAP1 POP DUP4 JUMP JUMPDEST PUSH1 0x0 PUSH1 0x4 PUSH1 0x0 CALLER PUSH20 0xFFFFFFFFFFFFFFFFFFFFFFFFFFFFFFFFFFFFFFFF AND PUSH20 0xFFFFFFFFFFFFFFFFFFFFFFFFFFFFFFFFFFFFFFFF AND DUP2 MSTORE PUSH1 0x20 ADD SWAP1 DUP2 MSTORE PUSH1 0x20 ADD PUSH1 0x0 KECCAK256 PUSH1 0x0 ADD PUSH1 0x0 SWAP1 SLOAD SWAP1 PUSH2 0x100 EXP SWAP1 DIV PUSH1 0xFF AND PUSH2 0x4FD JUMPI PUSH1 0x40 MLOAD PUSH32 0x8C379A000000000000000000000000000000000000000000000000000000000 DUP2 MSTORE PUSH1 0x4 ADD PUSH2 0x4F4 SWAP1 PUSH2 0x164D JUMP JUMPDEST PUSH1 0x40 MLOAD DUP1 SWAP2 SUB SWAP1 REVERT JUMPDEST PUSH1 0x3 PUSH1 0x0 DUP5 PUSH20 0xFFFFFFFFFFFFFFFFFFFFFFFFFFFFFFFFFFFFFFFF AND PUSH20 0xFFFFFFFFFFFFFFFFFFFFFFFFFFFFFFFFFFFFFFFF AND DUP2 MSTORE PUSH1 0x20 ADD SWAP1 DUP2 MSTORE PUSH1 0x20 ADD PUSH1 0x0 KECCAK256 PUSH1 0x0 ADD PUSH1 0x0 SWAP1 SLOAD SWAP1 PUSH2 0x100 EXP SWAP1 DIV PUSH1 0xFF AND PUSH2 0x58C JUMPI PUSH1 0x40 MLOAD PUSH32 0x8C379A000000000000000000000000000000000000000000000000000000000 DUP2 MSTORE PUSH1 0x4 ADD PUSH2 0x583 SWAP1 PUSH2 0x166D JUMP JUMPDEST PUSH1 0x40 MLOAD DUP1 SWAP2 SUB SWAP1 REVERT JUMPDEST DUP2 PUSH1 0x20 ADD MLOAD PUSH1 0xB PUSH1 0x0 DUP6 PUSH20 0xFFFFFFFFFFFFFFFFFFFFFFFFFFFFFFFFFFFFFFFF AND PUSH20 0xFFFFFFFFFFFFFFFFFFFFFFFFFFFFFFFFFFFFFFFF AND DUP2 MSTORE PUSH1 0x20 ADD SWAP1 DUP2 MSTORE PUSH1 0x20 ADD PUSH1 0x0 KECCAK256 PUSH1 0x0 DUP5 PUSH1 0x0 ADD MLOAD DUP2 MSTORE PUSH1 0x20 ADD SWAP1 DUP2 MSTORE PUSH1 0x20 ADD PUSH1 0x0 KECCAK256 PUSH1 0x1 ADD DUP2 SWAP1 SSTORE POP DUP2 PUSH1 0x40 ADD MLOAD PUSH1 0xB PUSH1 0x0 DUP6 PUSH20 0xFFFFFFFFFFFFFFFFFFFFFFFFFFFFFFFFFFFFFFFF AND PUSH20 0xFFFFFFFFFFFFFFFFFFFFFFFFFFFFFFFFFFFFFFFF AND DUP2 MSTORE PUSH1 0x20 ADD SWAP1 DUP2 MSTORE PUSH1 0x20 ADD PUSH1 0x0 KECCAK256 PUSH1 0x0 DUP5 PUSH1 0x0 ADD MLOAD DUP2 MSTORE PUSH1 0x20 ADD SWAP1 DUP2 MSTORE PUSH1 0x20 ADD PUSH1 0x0 KECCAK256 PUSH1 0x2 ADD DUP2 SWAP1 SSTORE POP DUP2 PUSH1 0x60 ADD MLOAD PUSH1 0xB PUSH1 0x0 DUP6 PUSH20 0xFFFFFFFFFFFFFFFFFFFFFFFFFFFFFFFFFFFFFFFF AND PUSH20 0xFFFFFFFFFFFFFFFFFFFFFFFFFFFFFFFFFFFFFFFF AND DUP2 MSTORE PUSH1 0x20 ADD SWAP1 DUP2 MSTORE PUSH1 0x20 ADD PUSH1 0x0 KECCAK256 PUSH1 0x0 DUP5 PUSH1 0x0 ADD MLOAD DUP2 MSTORE PUSH1 0x20 ADD SWAP1 DUP2 MSTORE PUSH1 0x20 ADD PUSH1 0x0 KECCAK256 PUSH1 0x3 ADD PUSH1 0x0 PUSH2 0x100 EXP DUP2 SLOAD DUP2 PUSH1 0xFF MUL NOT AND SWAP1 DUP4 PUSH1 0xFF AND MUL OR SWAP1 SSTORE POP DUP2 PUSH1 0x80 ADD MLOAD PUSH1 0xB PUSH1 0x0 DUP6 PUSH20 0xFFFFFFFFFFFFFFFFFFFFFFFFFFFFFFFFFFFFFFFF AND PUSH20 0xFFFFFFFFFFFFFFFFFFFFFFFFFFFFFFFFFFFFFFFF AND DUP2 MSTORE PUSH1 0x20 ADD SWAP1 DUP2 MSTORE PUSH1 0x20 ADD PUSH1 0x0 KECCAK256 PUSH1 0x0 DUP5 PUSH1 0x0 ADD MLOAD DUP2 MSTORE PUSH1 0x20 ADD SWAP1 DUP2 MSTORE PUSH1 0x20 ADD PUSH1 0x0 KECCAK256 PUSH1 0x4 ADD DUP2 SWAP1 SSTORE POP DUP2 PUSH1 0xA0 ADD MLOAD PUSH1 0xB PUSH1 0x0 DUP6 PUSH20 0xFFFFFFFFFFFFFFFFFFFFFFFFFFFFFFFFFFFFFFFF AND PUSH20 0xFFFFFFFFFFFFFFFFFFFFFFFFFFFFFFFFFFFFFFFF AND DUP2 MSTORE PUSH1 0x20 ADD SWAP1 DUP2 MSTORE PUSH1 0x20 ADD PUSH1 0x0 KECCAK256 PUSH1 0x0 DUP5 PUSH1 0x0 ADD MLOAD DUP2 MSTORE PUSH1 0x20 ADD SWAP1 DUP2 MSTORE PUSH1 0x20 ADD PUSH1 0x0 KECCAK256 PUSH1 0x5 ADD DUP2 SWAP1 SSTORE POP DUP2 PUSH1 0xC0 ADD MLOAD PUSH1 0xB PUSH1 0x0 DUP6 PUSH20 0xFFFFFFFFFFFFFFFFFFFFFFFFFFFFFFFFFFFFFFFF AND PUSH20 0xFFFFFFFFFFFFFFFFFFFFFFFFFFFFFFFFFFFFFFFF AND DUP2 MSTORE PUSH1 0x20 ADD SWAP1 DUP2 MSTORE PUSH1 0x20 ADD PUSH1 0x0 KECCAK256 PUSH1 0x0 DUP5 PUSH1 0x0 ADD MLOAD DUP2 MSTORE PUSH1 0x20 ADD SWAP1 DUP2 MSTORE PUSH1 0x20 ADD PUSH1 0x0 KECCAK256 PUSH1 0x6 ADD PUSH1 0x0 PUSH2 0x100 EXP DUP2 SLOAD DUP2 PUSH20 0xFFFFFFFFFFFFFFFFFFFFFFFFFFFFFFFFFFFFFFFF MUL NOT AND SWAP1 DUP4 PUSH20 0xFFFFFFFFFFFFFFFFFFFFFFFFFFFFFFFFFFFFFFFF AND MUL OR SWAP1 SSTORE POP DUP2 PUSH1 0xE0 ADD MLOAD PUSH1 0xB PUSH1 0x0 DUP6 PUSH20 0xFFFFFFFFFFFFFFFFFFFFFFFFFFFFFFFFFFFFFFFF AND PUSH20 0xFFFFFFFFFFFFFFFFFFFFFFFFFFFFFFFFFFFFFFFF AND DUP2 MSTORE PUSH1 0x20 ADD SWAP1 DUP2 MSTORE PUSH1 0x20 ADD PUSH1 0x0 KECCAK256 PUSH1 0x0 DUP5 PUSH1 0x0 ADD MLOAD DUP2 MSTORE PUSH1 0x20 ADD SWAP1 DUP2 MSTORE PUSH1 0x20 ADD PUSH1 0x0 KECCAK256 PUSH1 0x6 ADD PUSH1 0x14 PUSH2 0x100 EXP DUP2 SLOAD DUP2 PUSH2 0xFFFF MUL NOT AND SWAP1 DUP4 PUSH2 0xFFFF AND MUL OR SWAP1 SSTORE POP DUP2 PUSH2 0x100 ADD MLOAD PUSH1 0xB PUSH1 0x0 DUP6 PUSH20 0xFFFFFFFFFFFFFFFFFFFFFFFFFFFFFFFFFFFFFFFF AND PUSH20 0xFFFFFFFFFFFFFFFFFFFFFFFFFFFFFFFFFFFFFFFF AND DUP2 MSTORE PUSH1 0x20 ADD SWAP1 DUP2 MSTORE PUSH1 0x20 ADD PUSH1 0x0 KECCAK256 PUSH1 0x0 DUP5 PUSH1 0x0 ADD MLOAD DUP2 MSTORE PUSH1 0x20 ADD SWAP1 DUP2 MSTORE PUSH1 0x20 ADD PUSH1 0x0 KECCAK256 PUSH1 0x6 ADD PUSH1 0x16 PUSH2 0x100 EXP DUP2 SLOAD DUP2 PUSH2 0xFFFF MUL NOT AND SWAP1 DUP4 PUSH2 0xFFFF AND MUL OR SWAP1 SSTORE POP DUP2 PUSH2 0x120 ADD MLOAD PUSH1 0xB PUSH1 0x0 DUP6 PUSH20 0xFFFFFFFFFFFFFFFFFFFFFFFFFFFFFFFFFFFFFFFF AND PUSH20 0xFFFFFFFFFFFFFFFFFFFFFFFFFFFFFFFFFFFFFFFF AND DUP2 MSTORE PUSH1 0x20 ADD SWAP1 DUP2 MSTORE PUSH1 0x20 ADD PUSH1 0x0 KECCAK256 PUSH1 0x0 DUP5 PUSH1 0x0 ADD MLOAD DUP2 MSTORE PUSH1 0x20 ADD SWAP1 DUP2 MSTORE PUSH1 0x20 ADD PUSH1 0x0 KECCAK256 PUSH1 0x6 ADD PUSH1 0x18 PUSH2 0x100 EXP DUP2 SLOAD DUP2 PUSH4 0xFFFFFFFF MUL NOT AND SWAP1 DUP4 PUSH4 0xFFFFFFFF AND MUL OR SWAP1 SSTORE POP DUP2 PUSH2 0x140 ADD MLOAD PUSH1 0xB PUSH1 0x0 DUP6 PUSH20 0xFFFFFFFFFFFFFFFFFFFFFFFFFFFFFFFFFFFFFFFF AND PUSH20 0xFFFFFFFFFFFFFFFFFFFFFFFFFFFFFFFFFFFFFFFF AND DUP2 MSTORE PUSH1 0x20 ADD SWAP1 DUP2 MSTORE PUSH1 0x20 ADD PUSH1 0x0 KECCAK256 PUSH1 0x0 DUP5 PUSH1 0x0 ADD MLOAD DUP2 MSTORE PUSH1 0x20 ADD SWAP1 DUP2 MSTORE PUSH1 0x20 ADD PUSH1 0x0 KECCAK256 PUSH1 0x6 ADD PUSH1 0x1C PUSH2 0x100 EXP DUP2 SLOAD DUP2 PUSH1 0xFF MUL NOT AND SWAP1 DUP4 PUSH1 0xFF AND MUL OR SWAP1 SSTORE POP DUP2 PUSH2 0x160 ADD MLOAD PUSH1 0xB PUSH1 0x0 DUP6 PUSH20 0xFFFFFFFFFFFFFFFFFFFFFFFFFFFFFFFFFFFFFFFF AND PUSH20 0xFFFFFFFFFFFFFFFFFFFFFFFFFFFFFFFFFFFFFFFF AND DUP2 MSTORE PUSH1 0x20 ADD SWAP1 DUP2 MSTORE PUSH1 0x20 ADD PUSH1 0x0 KECCAK256 PUSH1 0x0 DUP5 PUSH1 0x0 ADD MLOAD DUP2 MSTORE PUSH1 0x20 ADD SWAP1 DUP2 MSTORE PUSH1 0x20 ADD PUSH1 0x0 KECCAK256 PUSH1 0x7 ADD PUSH1 0x0 PUSH2 0x100 EXP DUP2 SLOAD DUP2 PUSH4 0xFFFFFFFF MUL NOT AND SWAP1 DUP4 PUSH4 0xFFFFFFFF AND MUL OR SWAP1 SSTORE POP PUSH32 0x9CBCA7384FC1FAED2B0399BC0F183E39F1DE460A603E21DB7ECE2D0870FF424C DUP3 PUSH1 0x0 ADD MLOAD DUP4 PUSH1 0xC0 ADD MLOAD DUP5 PUSH1 0x20 ADD MLOAD DUP6 PUSH1 0x40 ADD MLOAD PUSH1 0x40 MLOAD PUSH2 0xAB7 SWAP5 SWAP4 SWAP3 SWAP2 SWAP1 PUSH2 0x16A8 JUMP JUMPDEST PUSH1 0x40 MLOAD DUP1 SWAP2 SUB SWAP1 LOG1 DUP2 PUSH1 0x0 ADD MLOAD SWAP1 POP SWAP3 SWAP2 POP POP JUMP JUMPDEST PUSH1 0x4 PUSH1 0x0 CALLER PUSH20 0xFFFFFFFFFFFFFFFFFFFFFFFFFFFFFFFFFFFFFFFF AND PUSH20 0xFFFFFFFFFFFFFFFFFFFFFFFFFFFFFFFFFFFFFFFF AND DUP2 MSTORE PUSH1 0x20 ADD SWAP1 DUP2 MSTORE PUSH1 0x20 ADD PUSH1 0x0 KECCAK256 PUSH1 0x0 ADD PUSH1 0x0 SWAP1 SLOAD SWAP1 PUSH2 0x100 EXP SWAP1 DIV PUSH1 0xFF AND PUSH2 0xB5B JUMPI PUSH1 0x40 MLOAD PUSH32 0x8C379A000000000000000000000000000000000000000000000000000000000 DUP2 MSTORE PUSH1 0x4 ADD PUSH2 0xB52 SWAP1 PUSH2 0x164D JUMP JUMPDEST PUSH1 0x40 MLOAD DUP1 SWAP2 SUB SWAP1 REVERT JUMPDEST PUSH1 0x3 PUSH1 0x0 DUP4 PUSH20 0xFFFFFFFFFFFFFFFFFFFFFFFFFFFFFFFFFFFFFFFF AND PUSH20 0xFFFFFFFFFFFFFFFFFFFFFFFFFFFFFFFFFFFFFFFF AND DUP2 MSTORE PUSH1 0x20 ADD SWAP1 DUP2 MSTORE PUSH1 0x20 ADD PUSH1 0x0 KECCAK256 PUSH1 0x0 ADD PUSH1 0x0 SWAP1 SLOAD SWAP1 PUSH2 0x100 EXP SWAP1 DIV PUSH1 0xFF AND PUSH2 0xBEA JUMPI PUSH1 0x40 MLOAD PUSH32 0x8C379A000000000000000000000000000000000000000000000000000000000 DUP2 MSTORE PUSH1 0x4 ADD PUSH2 0xBE1 SWAP1 PUSH2 0x166D JUMP JUMPDEST PUSH1 0x40 MLOAD DUP1 SWAP2 SUB SWAP1 REVERT JUMPDEST PUSH1 0x0 PUSH1 0xA PUSH1 0x0 DUP2 SLOAD DUP1 SWAP3 SWAP2 SWAP1 PUSH2 0xBFF SWAP1 PUSH2 0x18B0 JUMP JUMPDEST SWAP2 SWAP1 POP SSTORE SWAP1 POP DUP2 PUSH1 0x20 ADD MLOAD PUSH1 0xB PUSH1 0x0 DUP6 PUSH20 0xFFFFFFFFFFFFFFFFFFFFFFFFFFFFFFFFFFFFFFFF AND PUSH20 0xFFFFFFFFFFFFFFFFFFFFFFFFFFFFFFFFFFFFFFFF AND DUP2 MSTORE PUSH1 0x20 ADD SWAP1 DUP2 MSTORE PUSH1 0x20 ADD PUSH1 0x0 KECCAK256 PUSH1 0x0 DUP4 DUP2 MSTORE PUSH1 0x20 ADD SWAP1 DUP2 MSTORE PUSH1 0x20 ADD PUSH1 0x0 KECCAK256 PUSH1 0x1 ADD DUP2 SWAP1 SSTORE POP DUP2 PUSH1 0x40 ADD MLOAD PUSH1 0xB PUSH1 0x0 DUP6 PUSH20 0xFFFFFFFFFFFFFFFFFFFFFFFFFFFFFFFFFFFFFFFF AND PUSH20 0xFFFFFFFFFFFFFFFFFFFFFFFFFFFFFFFFFFFFFFFF AND DUP2 MSTORE PUSH1 0x20 ADD SWAP1 DUP2 MSTORE PUSH1 0x20 ADD PUSH1 0x0 KECCAK256 PUSH1 0x0 DUP4 DUP2 MSTORE PUSH1 0x20 ADD SWAP1 DUP2 MSTORE PUSH1 0x20 ADD PUSH1 0x0 KECCAK256 PUSH1 0x2 ADD DUP2 SWAP1 SSTORE POP DUP2 PUSH1 0x60 ADD MLOAD PUSH1 0xB PUSH1 0x0 DUP6 PUSH20 0xFFFFFFFFFFFFFFFFFFFFFFFFFFFFFFFFFFFFFFFF AND PUSH20 0xFFFFFFFFFFFFFFFFFFFFFFFFFFFFFFFFFFFFFFFF AND DUP2 MSTORE PUSH1 0x20 ADD SWAP1 DUP2 MSTORE PUSH1 0x20 ADD PUSH1 0x0 KECCAK256 PUSH1 0x0 DUP4 DUP2 MSTORE PUSH1 0x20 ADD SWAP1 DUP2 MSTORE PUSH1 0x20 ADD PUSH1 0x0 KECCAK256 PUSH1 0x3 ADD PUSH1 0x0 PUSH2 0x100 EXP DUP2 SLOAD DUP2 PUSH1 0xFF MUL NOT AND SWAP1 DUP4 PUSH1 0xFF AND MUL OR SWAP1 SSTORE POP DUP2 PUSH1 0x80 ADD MLOAD PUSH1 0xB PUSH1 0x0 DUP6 PUSH20 0xFFFFFFFFFFFFFFFFFFFFFFFFFFFFFFFFFFFFFFFF AND PUSH20 0xFFFFFFFFFFFFFFFFFFFFFFFFFFFFFFFFFFFFFFFF AND DUP2 MSTORE PUSH1 0x20 ADD SWAP1 DUP2 MSTORE PUSH1 0x20 ADD PUSH1 0x0 KECCAK256 PUSH1 0x0 DUP4 DUP2 MSTORE PUSH1 0x20 ADD SWAP1 DUP2 MSTORE PUSH1 0x20 ADD PUSH1 0x0 KECCAK256 PUSH1 0x4 ADD DUP2 SWAP1 SSTORE POP DUP2 PUSH1 0xA0 ADD MLOAD PUSH1 0xB PUSH1 0x0 DUP6 PUSH20 0xFFFFFFFFFFFFFFFFFFFFFFFFFFFFFFFFFFFFFFFF AND PUSH20 0xFFFFFFFFFFFFFFFFFFFFFFFFFFFFFFFFFFFFFFFF AND DUP2 MSTORE PUSH1 0x20 ADD SWAP1 DUP2 MSTORE PUSH1 0x20 ADD PUSH1 0x0 KECCAK256 PUSH1 0x0 DUP4 DUP2 MSTORE PUSH1 0x20 ADD SWAP1 DUP2 MSTORE PUSH1 0x20 ADD PUSH1 0x0 KECCAK256 PUSH1 0x5 ADD DUP2 SWAP1 SSTORE POP DUP2 PUSH1 0xC0 ADD MLOAD PUSH1 0xB PUSH1 0x0 DUP6 PUSH20 0xFFFFFFFFFFFFFFFFFFFFFFFFFFFFFFFFFFFFFFFF AND PUSH20 0xFFFFFFFFFFFFFFFFFFFFFFFFFFFFFFFFFFFFFFFF AND DUP2 MSTORE PUSH1 0x20 ADD SWAP1 DUP2 MSTORE PUSH1 0x20 ADD PUSH1 0x0 KECCAK256 PUSH1 0x0 DUP4 DUP2 MSTORE PUSH1 0x20 ADD SWAP1 DUP2 MSTORE PUSH1 0x20 ADD PUSH1 0x0 KECCAK256 PUSH1 0x6 ADD PUSH1 0x0 PUSH2 0x100 EXP DUP2 SLOAD DUP2 PUSH20 0xFFFFFFFFFFFFFFFFFFFFFFFFFFFFFFFFFFFFFFFF MUL NOT AND SWAP1 DUP4 PUSH20 0xFFFFFFFFFFFFFFFFFFFFFFFFFFFFFFFFFFFFFFFF AND MUL OR SWAP1 SSTORE POP DUP2 PUSH1 0xE0 ADD MLOAD PUSH1 0xB PUSH1 0x0 DUP6 PUSH20 0xFFFFFFFFFFFFFFFFFFFFFFFFFFFFFFFFFFFFFFFF AND PUSH20 0xFFFFFFFFFFFFFFFFFFFFFFFFFFFFFFFFFFFFFFFF AND DUP2 MSTORE PUSH1 0x20 ADD SWAP1 DUP2 MSTORE PUSH1 0x20 ADD PUSH1 0x0 KECCAK256 PUSH1 0x0 DUP4 DUP2 MSTORE PUSH1 0x20 ADD SWAP1 DUP2 MSTORE PUSH1 0x20 ADD PUSH1 0x0 KECCAK256 PUSH1 0x6 ADD PUSH1 0x14 PUSH2 0x100 EXP DUP2 SLOAD DUP2 PUSH2 0xFFFF MUL NOT AND SWAP1 DUP4 PUSH2 0xFFFF AND MUL OR SWAP1 SSTORE POP DUP2 PUSH2 0x100 ADD MLOAD PUSH1 0xB PUSH1 0x0 DUP6 PUSH20 0xFFFFFFFFFFFFFFFFFFFFFFFFFFFFFFFFFFFFFFFF AND PUSH20 0xFFFFFFFFFFFFFFFFFFFFFFFFFFFFFFFFFFFFFFFF AND DUP2 MSTORE PUSH1 0x20 ADD SWAP1 DUP2 MSTORE PUSH1 0x20 ADD PUSH1 0x0 KECCAK256 PUSH1 0x0 DUP4 DUP2 MSTORE PUSH1 0x20 ADD SWAP1 DUP2 MSTORE PUSH1 0x20 ADD PUSH1 0x0 KECCAK256 PUSH1 0x6 ADD PUSH1 0x16 PUSH2 0x100 EXP DUP2 SLOAD DUP2 PUSH2 0xFFFF MUL NOT AND SWAP1 DUP4 PUSH2 0xFFFF AND MUL OR SWAP1 SSTORE POP DUP2 PUSH2 0x120 ADD MLOAD PUSH1 0xB PUSH1 0x0 DUP6 PUSH20 0xFFFFFFFFFFFFFFFFFFFFFFFFFFFFFFFFFFFFFFFF AND PUSH20 0xFFFFFFFFFFFFFFFFFFFFFFFFFFFFFFFFFFFFFFFF AND DUP2 MSTORE PUSH1 0x20 ADD SWAP1 DUP2 MSTORE PUSH1 0x20 ADD PUSH1 0x0 KECCAK256 PUSH1 0x0 DUP4 DUP2 MSTORE PUSH1 0x20 ADD SWAP1 DUP2 MSTORE PUSH1 0x20 ADD PUSH1 0x0 KECCAK256 PUSH1 0x6 ADD PUSH1 0x18 PUSH2 0x100 EXP DUP2 SLOAD DUP2 PUSH4 0xFFFFFFFF MUL NOT AND SWAP1 DUP4 PUSH4 0xFFFFFFFF AND MUL OR SWAP1 SSTORE POP DUP2 PUSH2 0x140 ADD MLOAD PUSH1 0xB PUSH1 0x0 DUP6 PUSH20 0xFFFFFFFFFFFFFFFFFFFFFFFFFFFFFFFFFFFFFFFF AND PUSH20 0xFFFFFFFFFFFFFFFFFFFFFFFFFFFFFFFFFFFFFFFF AND DUP2 MSTORE PUSH1 0x20 ADD SWAP1 DUP2 MSTORE PUSH1 0x20 ADD PUSH1 0x0 KECCAK256 PUSH1 0x0 DUP4 DUP2 MSTORE PUSH1 0x20 ADD SWAP1 DUP2 MSTORE PUSH1 0x20 ADD PUSH1 0x0 KECCAK256 PUSH1 0x6 ADD PUSH1 0x1C PUSH2 0x100 EXP DUP2 SLOAD DUP2 PUSH1 0xFF MUL NOT AND SWAP1 DUP4 PUSH1 0xFF AND MUL OR SWAP1 SSTORE POP DUP2 PUSH2 0x160 ADD MLOAD PUSH1 0xB PUSH1 0x0 DUP6 PUSH20 0xFFFFFFFFFFFFFFFFFFFFFFFFFFFFFFFFFFFFFFFF AND PUSH20 0xFFFFFFFFFFFFFFFFFFFFFFFFFFFFFFFFFFFFFFFF AND DUP2 MSTORE PUSH1 0x20 ADD SWAP1 DUP2 MSTORE PUSH1 0x20 ADD PUSH1 0x0 KECCAK256 PUSH1 0x0 DUP4 DUP2 MSTORE PUSH1 0x20 ADD SWAP1 DUP2 MSTORE PUSH1 0x20 ADD PUSH1 0x0 KECCAK256 PUSH1 0x7 ADD PUSH1 0x0 PUSH2 0x100 EXP DUP2 SLOAD DUP2 PUSH4 0xFFFFFFFF MUL NOT AND SWAP1 DUP4 PUSH4 0xFFFFFFFF AND MUL OR SWAP1 SSTORE POP PUSH32 0x9CBCA7384FC1FAED2B0399BC0F183E39F1DE460A603E21DB7ECE2D0870FF424C DUP2 DUP4 PUSH1 0xC0 ADD MLOAD DUP5 PUSH1 0x20 ADD MLOAD DUP6 PUSH1 0x40 ADD MLOAD PUSH1 0x40 MLOAD PUSH2 0x1100 SWAP5 SWAP4 SWAP3 SWAP2 SWAP1 PUSH2 0x16A8 JUMP JUMPDEST PUSH1 0x40 MLOAD DUP1 SWAP2 SUB SWAP1 LOG1 POP POP POP JUMP JUMPDEST PUSH1 0x5 PUSH1 0x20 MSTORE DUP1 PUSH1 0x0 MSTORE PUSH1 0x40 PUSH1 0x0 KECCAK256 PUSH1 0x0 SWAP2 POP SWAP1 POP DUP1 PUSH1 0x0 ADD PUSH1 0x0 SWAP1 SLOAD SWAP1 PUSH2 0x100 EXP SWAP1 DIV PUSH1 0xFF AND SWAP1 DUP1 PUSH1 0x0 ADD PUSH1 0x1 SWAP1 SLOAD SWAP1 PUSH2 0x100 EXP SWAP1 DIV PUSH20 0xFFFFFFFFFFFFFFFFFFFFFFFFFFFFFFFFFFFFFFFF AND SWAP1 DUP1 PUSH1 0x0 ADD PUSH1 0x15 SWAP1 SLOAD SWAP1 PUSH2 0x100 EXP SWAP1 DIV PUSH2 0xFFFF AND SWAP1 DUP1 PUSH1 0x0 ADD PUSH1 0x17 SWAP1 SLOAD SWAP1 PUSH2 0x100 EXP SWAP1 DIV PUSH1 0xFF AND SWAP1 DUP1 PUSH1 0x1 ADD SLOAD SWAP1 DUP1 PUSH1 0x2 ADD SLOAD SWAP1 POP DUP7 JUMP JUMPDEST PUSH1 0xA SLOAD DUP2 JUMP JUMPDEST PUSH1 0x9 PUSH1 0x20 MSTORE DUP1 PUSH1 0x0 MSTORE PUSH1 0x40 PUSH1 0x0 KECCAK256 PUSH1 0x0 SWAP2 POP SWAP1 POP DUP1 PUSH1 0x0 ADD PUSH1 0x0 SWAP1 SLOAD SWAP1 PUSH2 0x100 EXP SWAP1 DIV PUSH1 0xFF AND SWAP1 DUP1 PUSH1 0x1 ADD SLOAD SWAP1 DUP1 PUSH1 0x2 ADD SLOAD SWAP1 POP DUP4 JUMP JUMPDEST PUSH1 0x4 PUSH1 0x20 MSTORE DUP1 PUSH1 0x0 MSTORE PUSH1 0x40 PUSH1 0x0 KECCAK256 PUSH1 0x0 SWAP2 POP SWAP1 POP DUP1 PUSH1 0x0 ADD PUSH1 0x0 SWAP1 SLOAD SWAP1 PUSH2 0x100 EXP SWAP1 DIV PUSH1 0xFF AND SWAP1 DUP1 PUSH1 0x1 ADD SLOAD SWAP1 DUP1 PUSH1 0x2 ADD PUSH1 0x0 SWAP1 SLOAD SWAP1 PUSH2 0x100 EXP SWAP1 DIV PUSH1 0xFF AND SWAP1 POP DUP4 JUMP JUMPDEST PUSH1 0x0 DUP2 CALLDATALOAD SWAP1 POP PUSH2 0x1221 DUP2 PUSH2 0x1A2D JUMP JUMPDEST SWAP3 SWAP2 POP POP JUMP JUMPDEST PUSH1 0x0 DUP2 CALLDATALOAD SWAP1 POP PUSH2 0x1236 DUP2 PUSH2 0x1A44 JUMP JUMPDEST SWAP3 SWAP2 POP POP JUMP JUMPDEST PUSH1 0x0 PUSH2 0x180 DUP3 DUP5 SUB SLT ISZERO PUSH2 0x1253 JUMPI PUSH2 0x1252 PUSH2 0x1986 JUMP JUMPDEST JUMPDEST PUSH2 0x125E PUSH2 0x180 PUSH2 0x17A7 JUMP JUMPDEST SWAP1 POP PUSH1 0x0 PUSH2 0x126E DUP5 DUP3 DUP6 ADD PUSH2 0x1373 JUMP JUMPDEST PUSH1 0x0 DUP4 ADD MSTORE POP PUSH1 0x20 PUSH2 0x1282 DUP5 DUP3 DUP6 ADD PUSH2 0x1373 JUMP JUMPDEST PUSH1 0x20 DUP4 ADD MSTORE POP PUSH1 0x40 PUSH2 0x1296 DUP5 DUP3 DUP6 ADD PUSH2 0x1373 JUMP JUMPDEST PUSH1 0x40 DUP4 ADD MSTORE POP PUSH1 0x60 PUSH2 0x12AA DUP5 DUP3 DUP6 ADD PUSH2 0x139D JUMP JUMPDEST PUSH1 0x60 DUP4 ADD MSTORE POP PUSH1 0x80 PUSH2 0x12BE DUP5 DUP3 DUP6 ADD PUSH2 0x1227 JUMP JUMPDEST PUSH1 0x80 DUP4 ADD MSTORE POP PUSH1 0xA0 PUSH2 0x12D2 DUP5 DUP3 DUP6 ADD PUSH2 0x1227 JUMP JUMPDEST PUSH1 0xA0 DUP4 ADD MSTORE POP PUSH1 0xC0 PUSH2 0x12E6 DUP5 DUP3 DUP6 ADD PUSH2 0x1212 JUMP JUMPDEST PUSH1 0xC0 DUP4 ADD MSTORE POP PUSH1 0xE0 PUSH2 0x12FA DUP5 DUP3 DUP6 ADD PUSH2 0x135E JUMP JUMPDEST PUSH1 0xE0 DUP4 ADD MSTORE POP PUSH2 0x100 PUSH2 0x130F DUP5 DUP3 DUP6 ADD PUSH2 0x135E JUMP JUMPDEST PUSH2 0x100 DUP4 ADD MSTORE POP PUSH2 0x120 PUSH2 0x1325 DUP5 DUP3 DUP6 ADD PUSH2 0x1388 JUMP JUMPDEST PUSH2 0x120 DUP4 ADD MSTORE POP PUSH2 0x140 PUSH2 0x133B DUP5 DUP3 DUP6 ADD PUSH2 0x139D JUMP JUMPDEST PUSH2 0x140 DUP4 ADD MSTORE POP PUSH2 0x160 PUSH2 0x1351 DUP5 DUP3 DUP6 ADD PUSH2 0x1388 JUMP JUMPDEST PUSH2 0x160 DUP4 ADD MSTORE POP SWAP3 SWAP2 POP POP JUMP JUMPDEST PUSH1 0x0 DUP2 CALLDATALOAD SWAP1 POP PUSH2 0x136D DUP2 PUSH2 0x1A5B JUMP JUMPDEST SWAP3 SWAP2 POP POP JUMP JUMPDEST PUSH1 0x0 DUP2 CALLDATALOAD SWAP1 POP PUSH2 0x1382 DUP2 PUSH2 0x1A72 JUMP JUMPDEST SWAP3 SWAP2 POP POP JUMP JUMPDEST PUSH1 0x0 DUP2 CALLDATALOAD SWAP1 POP PUSH2 0x1397 DUP2 PUSH2 0x1A89 JUMP JUMPDEST SWAP3 SWAP2 POP POP JUMP JUMPDEST PUSH1 0x0 DUP2 CALLDATALOAD SWAP1 POP PUSH2 0x13AC DUP2 PUSH2 0x1AA0 JUMP JUMPDEST SWAP3 SWAP2 POP POP JUMP JUMPDEST PUSH1 0x0 PUSH1 0x20 DUP3 DUP5 SUB SLT ISZERO PUSH2 0x13C8 JUMPI PUSH2 0x13C7 PUSH2 0x198B JUMP JUMPDEST JUMPDEST PUSH1 0x0 PUSH2 0x13D6 DUP5 DUP3 DUP6 ADD PUSH2 0x1212 JUMP JUMPDEST SWAP2 POP POP SWAP3 SWAP2 POP POP JUMP JUMPDEST PUSH1 0x0 DUP1 PUSH2 0x1A0 DUP4 DUP6 SUB SLT ISZERO PUSH2 0x13F7 JUMPI PUSH2 0x13F6 PUSH2 0x198B JUMP JUMPDEST JUMPDEST PUSH1 0x0 PUSH2 0x1405 DUP6 DUP3 DUP7 ADD PUSH2 0x1212 JUMP JUMPDEST SWAP3 POP POP PUSH1 0x20 PUSH2 0x1416 DUP6 DUP3 DUP7 ADD PUSH2 0x123C JUMP JUMPDEST SWAP2 POP POP SWAP3 POP SWAP3 SWAP1 POP JUMP JUMPDEST PUSH1 0x0 DUP1 PUSH1 0x40 DUP4 DUP6 SUB SLT ISZERO PUSH2 0x1437 JUMPI PUSH2 0x1436 PUSH2 0x198B JUMP JUMPDEST JUMPDEST PUSH1 0x0 PUSH2 0x1445 DUP6 DUP3 DUP7 ADD PUSH2 0x1212 JUMP JUMPDEST SWAP3 POP POP PUSH1 0x20 PUSH2 0x1456 DUP6 DUP3 DUP7 ADD PUSH2 0x1373 JUMP JUMPDEST SWAP2 POP POP SWAP3 POP SWAP3 SWAP1 POP JUMP JUMPDEST PUSH2 0x1469 DUP2 PUSH2 0x17DD JUMP JUMPDEST DUP3 MSTORE POP POP JUMP JUMPDEST PUSH2 0x1478 DUP2 PUSH2 0x17EF JUMP JUMPDEST DUP3 MSTORE POP POP JUMP JUMPDEST PUSH2 0x1487 DUP2 PUSH2 0x17FB JUMP JUMPDEST DUP3 MSTORE POP POP JUMP JUMPDEST PUSH2 0x1496 DUP2 PUSH2 0x186D JUMP JUMPDEST DUP3 MSTORE POP POP JUMP JUMPDEST PUSH1 0x0 PUSH2 0x14A9 PUSH1 0x26 DUP4 PUSH2 0x17CC JUMP JUMPDEST SWAP2 POP PUSH2 0x14B4 DUP3 PUSH2 0x19A1 JUMP JUMPDEST PUSH1 0x40 DUP3 ADD SWAP1 POP SWAP2 SWAP1 POP JUMP JUMPDEST PUSH1 0x0 PUSH2 0x14CC PUSH1 0x12 DUP4 PUSH2 0x17CC JUMP JUMPDEST SWAP2 POP PUSH2 0x14D7 DUP3 PUSH2 0x19F0 JUMP JUMPDEST PUSH1 0x20 DUP3 ADD SWAP1 POP SWAP2 SWAP1 POP JUMP JUMPDEST PUSH2 0x14EB DUP2 PUSH2 0x1818 JUMP JUMPDEST DUP3 MSTORE POP POP JUMP JUMPDEST PUSH2 0x14FA DUP2 PUSH2 0x1846 JUMP JUMPDEST DUP3 MSTORE POP POP JUMP JUMPDEST PUSH2 0x1509 DUP2 PUSH2 0x1850 JUMP JUMPDEST DUP3 MSTORE POP POP JUMP JUMPDEST PUSH2 0x1518 DUP2 PUSH2 0x1860 JUMP JUMPDEST DUP3 MSTORE POP POP JUMP JUMPDEST PUSH1 0x0 PUSH1 0x20 DUP3 ADD SWAP1 POP PUSH2 0x1533 PUSH1 0x0 DUP4 ADD DUP5 PUSH2 0x146F JUMP JUMPDEST SWAP3 SWAP2 POP POP JUMP JUMPDEST PUSH1 0x0 PUSH1 0xC0 DUP3 ADD SWAP1 POP PUSH2 0x154E PUSH1 0x0 DUP4 ADD DUP10 PUSH2 0x146F JUMP JUMPDEST PUSH2 0x155B PUSH1 0x20 DUP4 ADD DUP9 PUSH2 0x1460 JUMP JUMPDEST PUSH2 0x1568 PUSH1 0x40 DUP4 ADD DUP8 PUSH2 0x14E2 JUMP JUMPDEST PUSH2 0x1575 PUSH1 0x60 DUP4 ADD DUP7 PUSH2 0x148D JUMP JUMPDEST PUSH2 0x1582 PUSH1 0x80 DUP4 ADD DUP6 PUSH2 0x147E JUMP JUMPDEST PUSH2 0x158F PUSH1 0xA0 DUP4 ADD DUP5 PUSH2 0x147E JUMP JUMPDEST SWAP8 SWAP7 POP POP POP POP POP POP POP JUMP JUMPDEST PUSH1 0x0 PUSH1 0x60 DUP3 ADD SWAP1 POP PUSH2 0x15AF PUSH1 0x0 DUP4 ADD DUP7 PUSH2 0x146F JUMP JUMPDEST PUSH2 0x15BC PUSH1 0x20 DUP4 ADD DUP6 PUSH2 0x147E JUMP JUMPDEST PUSH2 0x15C9 PUSH1 0x40 DUP4 ADD DUP5 PUSH2 0x147E JUMP JUMPDEST SWAP5 SWAP4 POP POP POP POP JUMP JUMPDEST PUSH1 0x0 PUSH1 0x80 DUP3 ADD SWAP1 POP PUSH2 0x15E6 PUSH1 0x0 DUP4 ADD DUP8 PUSH2 0x146F JUMP JUMPDEST PUSH2 0x15F3 PUSH1 0x20 DUP4 ADD DUP7 PUSH2 0x147E JUMP JUMPDEST PUSH2 0x1600 PUSH1 0x40 DUP4 ADD DUP6 PUSH2 0x14F1 JUMP JUMPDEST PUSH2 0x160D PUSH1 0x60 DUP4 ADD DUP5 PUSH2 0x147E JUMP JUMPDEST SWAP6 SWAP5 POP POP POP POP POP JUMP JUMPDEST PUSH1 0x0 PUSH1 0x60 DUP3 ADD SWAP1 POP PUSH2 0x162B PUSH1 0x0 DUP4 ADD DUP7 PUSH2 0x146F JUMP JUMPDEST PUSH2 0x1638 PUSH1 0x20 DUP4 ADD DUP6 PUSH2 0x147E JUMP JUMPDEST PUSH2 0x1645 PUSH1 0x40 DUP4 ADD DUP5 PUSH2 0x150F JUMP JUMPDEST SWAP5 SWAP4 POP POP POP POP JUMP JUMPDEST PUSH1 0x0 PUSH1 0x20 DUP3 ADD SWAP1 POP DUP2 DUP2 SUB PUSH1 0x0 DUP4 ADD MSTORE PUSH2 0x1666 DUP2 PUSH2 0x149C JUMP JUMPDEST SWAP1 POP SWAP2 SWAP1 POP JUMP JUMPDEST PUSH1 0x0 PUSH1 0x20 DUP3 ADD SWAP1 POP DUP2 DUP2 SUB PUSH1 0x0 DUP4 ADD MSTORE PUSH2 0x1686 DUP2 PUSH2 0x14BF JUMP JUMPDEST SWAP1 POP SWAP2 SWAP1 POP JUMP JUMPDEST PUSH1 0x0 PUSH1 0x20 DUP3 ADD SWAP1 POP PUSH2 0x16A2 PUSH1 0x0 DUP4 ADD DUP5 PUSH2 0x14F1 JUMP JUMPDEST SWAP3 SWAP2 POP POP JUMP JUMPDEST PUSH1 0x0 PUSH1 0x80 DUP3 ADD SWAP1 POP PUSH2 0x16BD PUSH1 0x0 DUP4 ADD DUP8 PUSH2 0x14F1 JUMP JUMPDEST PUSH2 0x16CA PUSH1 0x20 DUP4 ADD DUP7 PUSH2 0x1460 JUMP JUMPDEST PUSH2 0x16D7 PUSH1 0x40 DUP4 ADD DUP6 PUSH2 0x14F1 JUMP JUMPDEST PUSH2 0x16E4 PUSH1 0x60 DUP4 ADD DUP5 PUSH2 0x14F1 JUMP JUMPDEST SWAP6 SWAP5 POP POP POP POP POP JUMP JUMPDEST PUSH1 0x0 PUSH2 0x180 DUP3 ADD SWAP1 POP PUSH2 0x1703 PUSH1 0x0 DUP4 ADD DUP16 PUSH2 0x14F1 JUMP JUMPDEST PUSH2 0x1710 PUSH1 0x20 DUP4 ADD DUP15 PUSH2 0x14F1 JUMP JUMPDEST PUSH2 0x171D PUSH1 0x40 DUP4 ADD DUP14 PUSH2 0x14F1 JUMP JUMPDEST PUSH2 0x172A PUSH1 0x60 DUP4 ADD DUP13 PUSH2 0x150F JUMP JUMPDEST PUSH2 0x1737 PUSH1 0x80 DUP4 ADD DUP12 PUSH2 0x147E JUMP JUMPDEST PUSH2 0x1744 PUSH1 0xA0 DUP4 ADD DUP11 PUSH2 0x147E JUMP JUMPDEST PUSH2 0x1751 PUSH1 0xC0 DUP4 ADD DUP10 PUSH2 0x1460 JUMP JUMPDEST PUSH2 0x175E PUSH1 0xE0 DUP4 ADD DUP9 PUSH2 0x14E2 JUMP JUMPDEST PUSH2 0x176C PUSH2 0x100 DUP4 ADD DUP8 PUSH2 0x14E2 JUMP JUMPDEST PUSH2 0x177A PUSH2 0x120 DUP4 ADD DUP7 PUSH2 0x1500 JUMP JUMPDEST PUSH2 0x1788 PUSH2 0x140 DUP4 ADD DUP6 PUSH2 0x150F JUMP JUMPDEST PUSH2 0x1796 PUSH2 0x160 DUP4 ADD DUP5 PUSH2 0x1500 JUMP JUMPDEST SWAP14 SWAP13 POP POP POP POP POP POP POP POP POP POP POP POP POP JUMP JUMPDEST PUSH1 0x0 PUSH2 0x17B1 PUSH2 0x17C2 JUMP JUMPDEST SWAP1 POP PUSH2 0x17BD DUP3 DUP3 PUSH2 0x187F JUMP JUMPDEST SWAP2 SWAP1 POP JUMP JUMPDEST PUSH1 0x0 PUSH1 0x40 MLOAD SWAP1 POP SWAP1 JUMP JUMPDEST PUSH1 0x0 DUP3 DUP3 MSTORE PUSH1 0x20 DUP3 ADD SWAP1 POP SWAP3 SWAP2 POP POP JUMP JUMPDEST PUSH1 0x0 PUSH2 0x17E8 DUP3 PUSH2 0x1826 JUMP JUMPDEST SWAP1 POP SWAP2 SWAP1 POP JUMP JUMPDEST PUSH1 0x0 DUP2 ISZERO ISZERO SWAP1 POP SWAP2 SWAP1 POP JUMP JUMPDEST PUSH1 0x0 DUP2 SWAP1 POP SWAP2 SWAP1 POP JUMP JUMPDEST PUSH1 0x0 DUP2 SWAP1 POP PUSH2 0x1813 DUP3 PUSH2 0x1A19 JUMP JUMPDEST SWAP2 SWAP1 POP JUMP JUMPDEST PUSH1 0x0 PUSH2 0xFFFF DUP3 AND SWAP1 POP SWAP2 SWAP1 POP JUMP JUMPDEST PUSH1 0x0 PUSH20 0xFFFFFFFFFFFFFFFFFFFFFFFFFFFFFFFFFFFFFFFF DUP3 AND SWAP1 POP SWAP2 SWAP1 POP JUMP JUMPDEST PUSH1 0x0 DUP2 SWAP1 POP SWAP2 SWAP1 POP JUMP JUMPDEST PUSH1 0x0 PUSH4 0xFFFFFFFF DUP3 AND SWAP1 POP SWAP2 SWAP1 POP JUMP JUMPDEST PUSH1 0x0 PUSH1 0xFF DUP3 AND SWAP1 POP SWAP2 SWAP1 POP JUMP JUMPDEST PUSH1 0x0 PUSH2 0x1878 DUP3 PUSH2 0x1805 JUMP JUMPDEST SWAP1 POP SWAP2 SWAP1 POP JUMP JUMPDEST PUSH2 0x1888 DUP3 PUSH2 0x1990 JUMP JUMPDEST DUP2 ADD DUP2 DUP2 LT PUSH8 0xFFFFFFFFFFFFFFFF DUP3 GT OR ISZERO PUSH2 0x18A7 JUMPI PUSH2 0x18A6 PUSH2 0x1957 JUMP JUMPDEST JUMPDEST DUP1 PUSH1 0x40 MSTORE POP POP POP JUMP JUMPDEST PUSH1 0x0 PUSH2 0x18BB DUP3 PUSH2 0x1846 JUMP JUMPDEST SWAP2 POP PUSH32 0xFFFFFFFFFFFFFFFFFFFFFFFFFFFFFFFFFFFFFFFFFFFFFFFFFFFFFFFFFFFFFFFF DUP3 EQ ISZERO PUSH2 0x18EE JUMPI PUSH2 0x18ED PUSH2 0x18F9 JUMP JUMPDEST JUMPDEST PUSH1 0x1 DUP3 ADD SWAP1 POP SWAP2 SWAP1 POP JUMP JUMPDEST PUSH32 0x4E487B7100000000000000000000000000000000000000000000000000000000 PUSH1 0x0 MSTORE PUSH1 0x11 PUSH1 0x4 MSTORE PUSH1 0x24 PUSH1 0x0 REVERT JUMPDEST PUSH32 0x4E487B7100000000000000000000000000000000000000000000000000000000 PUSH1 0x0 MSTORE PUSH1 0x21 PUSH1 0x4 MSTORE PUSH1 0x24 PUSH1 0x0 REVERT JUMPDEST PUSH32 0x4E487B7100000000000000000000000000000000000000000000000000000000 PUSH1 0x0 MSTORE PUSH1 0x41 PUSH1 0x4 MSTORE PUSH1 0x24 PUSH1 0x0 REVERT JUMPDEST PUSH1 0x0 DUP1 REVERT JUMPDEST PUSH1 0x0 DUP1 REVERT JUMPDEST PUSH1 0x0 PUSH1 0x1F NOT PUSH1 0x1F DUP4 ADD AND SWAP1 POP SWAP2 SWAP1 POP JUMP JUMPDEST PUSH32 0x53616465636520556E69766572736974652062752069736C656D692079617061 PUSH1 0x0 DUP3 ADD MSTORE PUSH32 0x62696C69722E0000000000000000000000000000000000000000000000000000 PUSH1 0x20 DUP3 ADD MSTORE POP JUMP JUMPDEST PUSH32 0x53747564656E74206E6F74206578697374730000000000000000000000000000 PUSH1 0x0 DUP3 ADD MSTORE POP JUMP JUMPDEST PUSH1 0x4 DUP2 LT PUSH2 0x1A2A JUMPI PUSH2 0x1A29 PUSH2 0x1928 JUMP JUMPDEST JUMPDEST POP JUMP JUMPDEST PUSH2 0x1A36 DUP2 PUSH2 0x17DD JUMP JUMPDEST DUP2 EQ PUSH2 0x1A41 JUMPI PUSH1 0x0 DUP1 REVERT JUMPDEST POP JUMP JUMPDEST PUSH2 0x1A4D DUP2 PUSH2 0x17FB JUMP JUMPDEST DUP2 EQ PUSH2 0x1A58 JUMPI PUSH1 0x0 DUP1 REVERT JUMPDEST POP JUMP JUMPDEST PUSH2 0x1A64 DUP2 PUSH2 0x1818 JUMP JUMPDEST DUP2 EQ PUSH2 0x1A6F JUMPI PUSH1 0x0 DUP1 REVERT JUMPDEST POP JUMP JUMPDEST PUSH2 0x1A7B DUP2 PUSH2 0x1846 JUMP JUMPDEST DUP2 EQ PUSH2 0x1A86 JUMPI PUSH1 0x0 DUP1 REVERT JUMPDEST POP JUMP JUMPDEST PUSH2 0x1A92 DUP2 PUSH2 0x1850 JUMP JUMPDEST DUP2 EQ PUSH2 0x1A9D JUMPI PUSH1 0x0 DUP1 REVERT JUMPDEST POP JUMP JUMPDEST PUSH2 0x1AA9 DUP2 PUSH2 0x1860 JUMP JUMPDEST DUP2 EQ PUSH2 0x1AB4 JUMPI PUSH1 0x0 DUP1 REVERT JUMPDEST POP JUMP INVALID LOG2 PUSH5 0x6970667358 0x22 SLT KECCAK256 0xCB LOG3 EXP 0x4C 0xE7 PUSH22 0xDB5B2EEC5A4014D32466E279B6025C726746D172D564 0xFC 0xC1 DUP11 0xCD PUSH5 0x736F6C6343 STOP ADDMOD SMOD STOP CALLER "
				},
				"gasEstimates": {
					"creation": {
						"codeDepositCost": "1378600",
						"executionCost": "1438",
						"totalCost": "1380038"
					},
					"external": {
						"academicians(address)": "infinite",
						"addEgitimBilgi(address,(uint256,uint256,uint256,uint8,bytes32,bytes32,address,uint16,uint16,uint32,uint8,uint32))": "infinite",
						"companies(address)": "infinite",
						"courses(address)": "infinite",
						"egitimBilgileri(address,uint256)": "infinite",
						"id()": "2495",
						"ngos(address)": "infinite",
						"people(address)": "2871",
						"publicInstitutions(address)": "infinite",
						"universities(address)": "7446",
						"updateEgitimBilgi(address,(uint256,uint256,uint256,uint8,bytes32,bytes32,address,uint16,uint16,uint32,uint8,uint32))": "infinite"
					}
				},
				"methodIdentifiers": {
					"academicians(address)": "9eaad92a",
					"addEgitimBilgi(address,(uint256,uint256,uint256,uint8,bytes32,bytes32,address,uint16,uint16,uint32,uint8,uint32))": "91d19c86",
					"companies(address)": "355e6ce8",
					"courses(address)": "391bf7a7",
					"egitimBilgileri(address,uint256)": "2fe34736",
					"id()": "af640d0f",
					"ngos(address)": "e6f7d11e",
					"people(address)": "07de9735",
					"publicInstitutions(address)": "4ed30fb4",
					"universities(address)": "f0995560",
					"updateEgitimBilgi(address,(uint256,uint256,uint256,uint8,bytes32,bytes32,address,uint16,uint16,uint32,uint8,uint32))": "56237aa5"
				}
			},
			"storageLayout": {
				"storage": [
					{
						"astId": 3,
						"contract": "contracts/EgitimBilgileri.sol:EgitimBilgileri",
						"label": "YOK",
						"offset": 0,
						"slot": "0",
						"type": "t_address"
					},
					{
						"astId": 5,
						"contract": "contracts/EgitimBilgileri.sol:EgitimBilgileri",
						"label": "TOBB",
						"offset": 0,
						"slot": "1",
						"type": "t_address"
					},
					{
						"astId": 7,
						"contract": "contracts/EgitimBilgileri.sol:EgitimBilgileri",
						"label": "CB",
						"offset": 0,
						"slot": "2",
						"type": "t_address"
					},
					{
						"astId": 179,
						"contract": "contracts/EgitimBilgileri.sol:EgitimBilgileri",
						"label": "people",
						"offset": 0,
						"slot": "3",
						"type": "t_mapping(t_address,t_struct(Person)10_storage)"
					},
					{
						"astId": 184,
						"contract": "contracts/EgitimBilgileri.sol:EgitimBilgileri",
						"label": "universities",
						"offset": 0,
						"slot": "4",
						"type": "t_mapping(t_address,t_struct(Universite)17_storage)"
					},
					{
						"astId": 189,
						"contract": "contracts/EgitimBilgileri.sol:EgitimBilgileri",
						"label": "academicians",
						"offset": 0,
						"slot": "5",
						"type": "t_mapping(t_address,t_struct(Akademisyen)31_storage)"
					},
					{
						"astId": 194,
						"contract": "contracts/EgitimBilgileri.sol:EgitimBilgileri",
						"label": "companies",
						"offset": 0,
						"slot": "6",
						"type": "t_mapping(t_address,t_struct(Company)51_storage)"
					},
					{
						"astId": 199,
						"contract": "contracts/EgitimBilgileri.sol:EgitimBilgileri",
						"label": "courses",
						"offset": 0,
						"slot": "7",
						"type": "t_mapping(t_address,t_struct(Course)72_storage)"
					},
					{
						"astId": 204,
						"contract": "contracts/EgitimBilgileri.sol:EgitimBilgileri",
						"label": "publicInstitutions",
						"offset": 0,
						"slot": "8",
						"type": "t_mapping(t_address,t_struct(PublicInstitution)58_storage)"
					},
					{
						"astId": 209,
						"contract": "contracts/EgitimBilgileri.sol:EgitimBilgileri",
						"label": "ngos",
						"offset": 0,
						"slot": "9",
						"type": "t_mapping(t_address,t_struct(NGO)65_storage)"
					},
					{
						"astId": 217,
						"contract": "contracts/EgitimBilgileri.sol:EgitimBilgileri",
						"label": "id",
						"offset": 0,
						"slot": "10",
						"type": "t_uint256"
					},
					{
						"astId": 259,
						"contract": "contracts/EgitimBilgileri.sol:EgitimBilgileri",
						"label": "egitimBilgileri",
						"offset": 0,
						"slot": "11",
						"type": "t_mapping(t_address,t_mapping(t_uint256,t_struct(EgitimBilgi)242_storage))"
					}
				],
				"types": {
					"t_address": {
						"encoding": "inplace",
						"label": "address",
						"numberOfBytes": "20"
					},
					"t_bool": {
						"encoding": "inplace",
						"label": "bool",
						"numberOfBytes": "1"
					},
					"t_bytes32": {
						"encoding": "inplace",
						"label": "bytes32",
						"numberOfBytes": "32"
					},
					"t_enum(Unvan)36": {
						"encoding": "inplace",
						"label": "enum BaseContract.Unvan",
						"numberOfBytes": "1"
					},
					"t_mapping(t_address,t_mapping(t_uint256,t_struct(EgitimBilgi)242_storage))": {
						"encoding": "mapping",
						"key": "t_address",
						"label": "mapping(address => mapping(uint256 => struct EgitimBilgileri.EgitimBilgi))",
						"numberOfBytes": "32",
						"value": "t_mapping(t_uint256,t_struct(EgitimBilgi)242_storage)"
					},
					"t_mapping(t_address,t_struct(Akademisyen)31_storage)": {
						"encoding": "mapping",
						"key": "t_address",
						"label": "mapping(address => struct BaseContract.Akademisyen)",
						"numberOfBytes": "32",
						"value": "t_struct(Akademisyen)31_storage"
					},
					"t_mapping(t_address,t_struct(Company)51_storage)": {
						"encoding": "mapping",
						"key": "t_address",
						"label": "mapping(address => struct BaseContract.Company)",
						"numberOfBytes": "32",
						"value": "t_struct(Company)51_storage"
					},
					"t_mapping(t_address,t_struct(Course)72_storage)": {
						"encoding": "mapping",
						"key": "t_address",
						"label": "mapping(address => struct BaseContract.Course)",
						"numberOfBytes": "32",
						"value": "t_struct(Course)72_storage"
					},
					"t_mapping(t_address,t_struct(NGO)65_storage)": {
						"encoding": "mapping",
						"key": "t_address",
						"label": "mapping(address => struct BaseContract.NGO)",
						"numberOfBytes": "32",
						"value": "t_struct(NGO)65_storage"
					},
					"t_mapping(t_address,t_struct(Person)10_storage)": {
						"encoding": "mapping",
						"key": "t_address",
						"label": "mapping(address => struct BaseContract.Person)",
						"numberOfBytes": "32",
						"value": "t_struct(Person)10_storage"
					},
					"t_mapping(t_address,t_struct(PublicInstitution)58_storage)": {
						"encoding": "mapping",
						"key": "t_address",
						"label": "mapping(address => struct BaseContract.PublicInstitution)",
						"numberOfBytes": "32",
						"value": "t_struct(PublicInstitution)58_storage"
					},
					"t_mapping(t_address,t_struct(Universite)17_storage)": {
						"encoding": "mapping",
						"key": "t_address",
						"label": "mapping(address => struct BaseContract.Universite)",
						"numberOfBytes": "32",
						"value": "t_struct(Universite)17_storage"
					},
					"t_mapping(t_uint256,t_struct(EgitimBilgi)242_storage)": {
						"encoding": "mapping",
						"key": "t_uint256",
						"label": "mapping(uint256 => struct EgitimBilgileri.EgitimBilgi)",
						"numberOfBytes": "32",
						"value": "t_struct(EgitimBilgi)242_storage"
					},
					"t_struct(Akademisyen)31_storage": {
						"encoding": "inplace",
						"label": "struct BaseContract.Akademisyen",
						"members": [
							{
								"astId": 19,
								"contract": "contracts/EgitimBilgileri.sol:EgitimBilgileri",
								"label": "durum",
								"offset": 0,
								"slot": "0",
								"type": "t_bool"
							},
							{
								"astId": 21,
								"contract": "contracts/EgitimBilgileri.sol:EgitimBilgileri",
								"label": "universite",
								"offset": 1,
								"slot": "0",
								"type": "t_address"
							},
							{
								"astId": 23,
								"contract": "contracts/EgitimBilgileri.sol:EgitimBilgileri",
								"label": "bolum",
								"offset": 21,
								"slot": "0",
								"type": "t_uint16"
							},
							{
								"astId": 26,
								"contract": "contracts/EgitimBilgileri.sol:EgitimBilgileri",
								"label": "unvan",
								"offset": 23,
								"slot": "0",
								"type": "t_enum(Unvan)36"
							},
							{
								"astId": 28,
								"contract": "contracts/EgitimBilgileri.sol:EgitimBilgileri",
								"label": "name",
								"offset": 0,
								"slot": "1",
								"type": "t_bytes32"
							},
							{
								"astId": 30,
								"contract": "contracts/EgitimBilgileri.sol:EgitimBilgileri",
								"label": "surname",
								"offset": 0,
								"slot": "2",
								"type": "t_bytes32"
							}
						],
						"numberOfBytes": "96"
					},
					"t_struct(Company)51_storage": {
						"encoding": "inplace",
						"label": "struct BaseContract.Company",
						"members": [
							{
								"astId": 44,
								"contract": "contracts/EgitimBilgileri.sol:EgitimBilgileri",
								"label": "status",
								"offset": 0,
								"slot": "0",
								"type": "t_bool"
							},
							{
								"astId": 46,
								"contract": "contracts/EgitimBilgileri.sol:EgitimBilgileri",
								"label": "country",
								"offset": 0,
								"slot": "1",
								"type": "t_bytes32"
							},
							{
								"astId": 48,
								"contract": "contracts/EgitimBilgileri.sol:EgitimBilgileri",
								"label": "identityNumber",
								"offset": 0,
								"slot": "2",
								"type": "t_uint256"
							},
							{
								"astId": 50,
								"contract": "contracts/EgitimBilgileri.sol:EgitimBilgileri",
								"label": "name",
								"offset": 0,
								"slot": "3",
								"type": "t_bytes32"
							}
						],
						"numberOfBytes": "128"
					},
					"t_struct(Course)72_storage": {
						"encoding": "inplace",
						"label": "struct BaseContract.Course",
						"members": [
							{
								"astId": 67,
								"contract": "contracts/EgitimBilgileri.sol:EgitimBilgileri",
								"label": "status",
								"offset": 0,
								"slot": "0",
								"type": "t_bool"
							},
							{
								"astId": 69,
								"contract": "contracts/EgitimBilgileri.sol:EgitimBilgileri",
								"label": "name",
								"offset": 0,
								"slot": "1",
								"type": "t_bytes32"
							},
							{
								"astId": 71,
								"contract": "contracts/EgitimBilgileri.sol:EgitimBilgileri",
								"label": "country",
								"offset": 0,
								"slot": "2",
								"type": "t_bytes32"
							}
						],
						"numberOfBytes": "96"
					},
					"t_struct(EgitimBilgi)242_storage": {
						"encoding": "inplace",
						"label": "struct EgitimBilgileri.EgitimBilgi",
						"members": [
							{
								"astId": 219,
								"contract": "contracts/EgitimBilgileri.sol:EgitimBilgileri",
								"label": "id",
								"offset": 0,
								"slot": "0",
								"type": "t_uint256"
							},
							{
								"astId": 221,
								"contract": "contracts/EgitimBilgileri.sol:EgitimBilgileri",
								"label": "basTarih",
								"offset": 0,
								"slot": "1",
								"type": "t_uint256"
							},
							{
								"astId": 223,
								"contract": "contracts/EgitimBilgileri.sol:EgitimBilgileri",
								"label": "bitTarih",
								"offset": 0,
								"slot": "2",
								"type": "t_uint256"
							},
							{
								"astId": 225,
								"contract": "contracts/EgitimBilgileri.sol:EgitimBilgileri",
								"label": "diplomaNotu",
								"offset": 0,
								"slot": "3",
								"type": "t_uint8"
							},
							{
								"astId": 227,
								"contract": "contracts/EgitimBilgileri.sol:EgitimBilgileri",
								"label": "diplomaBelge",
								"offset": 0,
								"slot": "4",
								"type": "t_bytes32"
							},
							{
								"astId": 229,
								"contract": "contracts/EgitimBilgileri.sol:EgitimBilgileri",
								"label": "transcriptBelge",
								"offset": 0,
								"slot": "5",
								"type": "t_bytes32"
							},
							{
								"astId": 231,
								"contract": "contracts/EgitimBilgileri.sol:EgitimBilgileri",
								"label": "universite",
								"offset": 0,
								"slot": "6",
								"type": "t_address"
							},
							{
								"astId": 233,
								"contract": "contracts/EgitimBilgileri.sol:EgitimBilgileri",
								"label": "fakulte",
								"offset": 20,
								"slot": "6",
								"type": "t_uint16"
							},
							{
								"astId": 235,
								"contract": "contracts/EgitimBilgileri.sol:EgitimBilgileri",
								"label": "bolum",
								"offset": 22,
								"slot": "6",
								"type": "t_uint16"
							},
							{
								"astId": 237,
								"contract": "contracts/EgitimBilgileri.sol:EgitimBilgileri",
								"label": "ogretimDili",
								"offset": 24,
								"slot": "6",
								"type": "t_uint32"
							},
							{
								"astId": 239,
								"contract": "contracts/EgitimBilgileri.sol:EgitimBilgileri",
								"label": "ulke",
								"offset": 28,
								"slot": "6",
								"type": "t_uint8"
							},
							{
								"astId": 241,
								"contract": "contracts/EgitimBilgileri.sol:EgitimBilgileri",
								"label": "sehir",
								"offset": 0,
								"slot": "7",
								"type": "t_uint32"
							}
						],
						"numberOfBytes": "256"
					},
					"t_struct(NGO)65_storage": {
						"encoding": "inplace",
						"label": "struct BaseContract.NGO",
						"members": [
							{
								"astId": 60,
								"contract": "contracts/EgitimBilgileri.sol:EgitimBilgileri",
								"label": "status",
								"offset": 0,
								"slot": "0",
								"type": "t_bool"
							},
							{
								"astId": 62,
								"contract": "contracts/EgitimBilgileri.sol:EgitimBilgileri",
								"label": "name",
								"offset": 0,
								"slot": "1",
								"type": "t_bytes32"
							},
							{
								"astId": 64,
								"contract": "contracts/EgitimBilgileri.sol:EgitimBilgileri",
								"label": "country",
								"offset": 0,
								"slot": "2",
								"type": "t_bytes32"
							}
						],
						"numberOfBytes": "96"
					},
					"t_struct(Person)10_storage": {
						"encoding": "inplace",
						"label": "struct BaseContract.Person",
						"members": [
							{
								"astId": 9,
								"contract": "contracts/EgitimBilgileri.sol:EgitimBilgileri",
								"label": "status",
								"offset": 0,
								"slot": "0",
								"type": "t_bool"
							}
						],
						"numberOfBytes": "32"
					},
					"t_struct(PublicInstitution)58_storage": {
						"encoding": "inplace",
						"label": "struct BaseContract.PublicInstitution",
						"members": [
							{
								"astId": 53,
								"contract": "contracts/EgitimBilgileri.sol:EgitimBilgileri",
								"label": "status",
								"offset": 0,
								"slot": "0",
								"type": "t_bool"
							},
							{
								"astId": 55,
								"contract": "contracts/EgitimBilgileri.sol:EgitimBilgileri",
								"label": "name",
								"offset": 0,
								"slot": "1",
								"type": "t_bytes32"
							},
							{
								"astId": 57,
								"contract": "contracts/EgitimBilgileri.sol:EgitimBilgileri",
								"label": "country",
								"offset": 0,
								"slot": "2",
								"type": "t_bytes32"
							}
						],
						"numberOfBytes": "96"
					},
					"t_struct(Universite)17_storage": {
						"encoding": "inplace",
						"label": "struct BaseContract.Universite",
						"members": [
							{
								"astId": 12,
								"contract": "contracts/EgitimBilgileri.sol:EgitimBilgileri",
								"label": "durum",
								"offset": 0,
								"slot": "0",
								"type": "t_bool"
							},
							{
								"astId": 14,
								"contract": "contracts/EgitimBilgileri.sol:EgitimBilgileri",
								"label": "isim",
								"offset": 0,
								"slot": "1",
								"type": "t_bytes32"
							},
							{
								"astId": 16,
								"contract": "contracts/EgitimBilgileri.sol:EgitimBilgileri",
								"label": "ulke",
								"offset": 0,
								"slot": "2",
								"type": "t_uint8"
							}
						],
						"numberOfBytes": "96"
					},
					"t_uint16": {
						"encoding": "inplace",
						"label": "uint16",
						"numberOfBytes": "2"
					},
					"t_uint256": {
						"encoding": "inplace",
						"label": "uint256",
						"numberOfBytes": "32"
					},
					"t_uint32": {
						"encoding": "inplace",
						"label": "uint32",
						"numberOfBytes": "4"
					},
					"t_uint8": {
						"encoding": "inplace",
						"label": "uint8",
						"numberOfBytes": "1"
					}
				}
			},
			"userdoc": {
				"kind": "user",
				"methods": {},
				"version": 1
			}
		}
	}
}