{
	"contracts/BaseContract.sol": {
		"BaseContract": {
			"abi": [
				{
					"inputs": [],
					"name": "YOK",
					"outputs": [
						{
							"internalType": "address",
							"name": "",
							"type": "address"
						}
					],
					"stateMutability": "view",
					"type": "function"
				},
				{
					"inputs": [
						{
							"internalType": "address",
							"name": "",
							"type": "address"
						}
					],
					"name": "akademisyenler",
					"outputs": [
						{
							"internalType": "bool",
							"name": "durum",
							"type": "bool"
						},
						{
							"internalType": "address",
							"name": "universite",
							"type": "address"
						},
						{
							"internalType": "uint16",
							"name": "bolum",
							"type": "uint16"
						},
						{
							"internalType": "enum BaseContract.Unvan",
							"name": "unvan",
							"type": "uint8"
						},
						{
							"internalType": "string",
							"name": "ad",
							"type": "string"
						},
						{
							"internalType": "string",
							"name": "soyad",
							"type": "string"
						}
					],
					"stateMutability": "view",
					"type": "function"
				},
				{
					"inputs": [
						{
							"internalType": "uint32",
							"name": "",
							"type": "uint32"
						}
					],
					"name": "diller",
					"outputs": [
						{
							"internalType": "uint32",
							"name": "id",
							"type": "uint32"
						},
						{
							"internalType": "string",
							"name": "isim",
							"type": "string"
						}
					],
					"stateMutability": "view",
					"type": "function"
				},
				{
					"inputs": [
						{
							"internalType": "address",
							"name": "_firmaAdres",
							"type": "address"
						},
						{
							"internalType": "string",
							"name": "_isim",
							"type": "string"
						},
						{
							"internalType": "uint256",
							"name": "_vergiNo",
							"type": "uint256"
						},
						{
							"internalType": "uint8",
							"name": "_ulke",
							"type": "uint8"
						}
					],
					"name": "ekleFirma",
					"outputs": [],
					"stateMutability": "nonpayable",
					"type": "function"
				},
				{
					"inputs": [
						{
							"internalType": "address",
							"name": "_kamuKurumuAdres",
							"type": "address"
						},
						{
							"internalType": "string",
							"name": "_isim",
							"type": "string"
						},
						{
							"internalType": "uint8",
							"name": "_ulke",
							"type": "uint8"
						}
					],
					"name": "ekleKamuKurumu",
					"outputs": [],
					"stateMutability": "nonpayable",
					"type": "function"
				},
				{
					"inputs": [
						{
							"internalType": "address",
							"name": "_kisiAdres",
							"type": "address"
						}
					],
					"name": "ekleKisi",
					"outputs": [],
					"stateMutability": "nonpayable",
					"type": "function"
				},
				{
					"inputs": [
						{
							"internalType": "address",
							"name": "_kursAdres",
							"type": "address"
						},
						{
							"internalType": "string",
							"name": "_isim",
							"type": "string"
						},
						{
							"internalType": "uint8",
							"name": "_ulke",
							"type": "uint8"
						}
					],
					"name": "ekleKurs",
					"outputs": [],
					"stateMutability": "nonpayable",
					"type": "function"
				},
				{
					"inputs": [
						{
							"internalType": "address",
							"name": "_stkAdres",
							"type": "address"
						},
						{
							"internalType": "string",
							"name": "_isim",
							"type": "string"
						},
						{
							"internalType": "uint8",
							"name": "_ulke",
							"type": "uint8"
						}
					],
					"name": "ekleSTK",
					"outputs": [],
					"stateMutability": "nonpayable",
					"type": "function"
				},
				{
					"inputs": [
						{
							"internalType": "address",
							"name": "_smAdres",
							"type": "address"
						},
						{
							"internalType": "string",
							"name": "_isim",
							"type": "string"
						},
						{
							"internalType": "uint8",
							"name": "_ulke",
							"type": "uint8"
						}
					],
					"name": "ekleSertifikaMerkezi",
					"outputs": [],
					"stateMutability": "nonpayable",
					"type": "function"
				},
				{
					"inputs": [
						{
							"internalType": "address",
							"name": "_universiteAdres",
							"type": "address"
						},
						{
							"internalType": "string",
							"name": "_isim",
							"type": "string"
						},
						{
							"internalType": "uint8",
							"name": "_ulke",
							"type": "uint8"
						}
					],
					"name": "ekleUniversite",
					"outputs": [],
					"stateMutability": "nonpayable",
					"type": "function"
				},
				{
					"inputs": [
						{
							"internalType": "address",
							"name": "",
							"type": "address"
						}
					],
					"name": "firmalar",
					"outputs": [
						{
							"internalType": "bool",
							"name": "durum",
							"type": "bool"
						},
						{
							"internalType": "uint8",
							"name": "ulke",
							"type": "uint8"
						},
						{
							"internalType": "uint256",
							"name": "vergiNo",
							"type": "uint256"
						},
						{
							"internalType": "string",
							"name": "isim",
							"type": "string"
						}
					],
					"stateMutability": "view",
					"type": "function"
				},
				{
					"inputs": [
						{
							"internalType": "address",
							"name": "_firmaAdres",
							"type": "address"
						},
						{
							"internalType": "string",
							"name": "_isim",
							"type": "string"
						},
						{
							"internalType": "uint256",
							"name": "_vergiNo",
							"type": "uint256"
						},
						{
							"internalType": "uint8",
							"name": "_ulke",
							"type": "uint8"
						}
					],
					"name": "guncelleFirma",
					"outputs": [],
					"stateMutability": "nonpayable",
					"type": "function"
				},
				{
					"inputs": [
						{
							"internalType": "address",
							"name": "_kamuKurumuAdres",
							"type": "address"
						},
						{
							"internalType": "string",
							"name": "_isim",
							"type": "string"
						},
						{
							"internalType": "uint8",
							"name": "_ulke",
							"type": "uint8"
						}
					],
					"name": "guncelleKamuKurumu",
					"outputs": [],
					"stateMutability": "nonpayable",
					"type": "function"
				},
				{
					"inputs": [
						{
							"internalType": "address",
							"name": "_kisiAdres",
							"type": "address"
						},
						{
							"internalType": "bool",
							"name": "_durum",
							"type": "bool"
						}
					],
					"name": "guncelleKisi",
					"outputs": [],
					"stateMutability": "nonpayable",
					"type": "function"
				},
				{
					"inputs": [
						{
							"internalType": "address",
							"name": "_kursAdres",
							"type": "address"
						},
						{
							"internalType": "string",
							"name": "_isim",
							"type": "string"
						},
						{
							"internalType": "uint8",
							"name": "_ulke",
							"type": "uint8"
						}
					],
					"name": "guncelleKurs",
					"outputs": [],
					"stateMutability": "nonpayable",
					"type": "function"
				},
				{
					"inputs": [
						{
							"internalType": "address",
							"name": "_stkAdres",
							"type": "address"
						},
						{
							"internalType": "string",
							"name": "_isim",
							"type": "string"
						},
						{
							"internalType": "uint8",
							"name": "_ulke",
							"type": "uint8"
						}
					],
					"name": "guncelleSTK",
					"outputs": [],
					"stateMutability": "nonpayable",
					"type": "function"
				},
				{
					"inputs": [
						{
							"internalType": "address",
							"name": "_smAdres",
							"type": "address"
						},
						{
							"internalType": "string",
							"name": "_isim",
							"type": "string"
						},
						{
							"internalType": "uint8",
							"name": "_ulke",
							"type": "uint8"
						}
					],
					"name": "guncelleSertifikaMerkezi",
					"outputs": [],
					"stateMutability": "nonpayable",
					"type": "function"
				},
				{
					"inputs": [
						{
							"internalType": "address",
							"name": "_universiteAdres",
							"type": "address"
						},
						{
							"internalType": "string",
							"name": "_isim",
							"type": "string"
						},
						{
							"internalType": "uint8",
							"name": "_ulke",
							"type": "uint8"
						}
					],
					"name": "guncelleUniversite",
					"outputs": [],
					"stateMutability": "nonpayable",
					"type": "function"
				},
				{
					"inputs": [
						{
							"internalType": "address",
							"name": "_address",
							"type": "address"
						}
					],
					"name": "isCB",
					"outputs": [
						{
							"internalType": "bool",
							"name": "",
							"type": "bool"
						}
					],
					"stateMutability": "view",
					"type": "function"
				},
				{
					"inputs": [
						{
							"internalType": "address",
							"name": "_address",
							"type": "address"
						}
					],
					"name": "isFirma",
					"outputs": [
						{
							"internalType": "bool",
							"name": "",
							"type": "bool"
						}
					],
					"stateMutability": "view",
					"type": "function"
				},
				{
					"inputs": [
						{
							"internalType": "address",
							"name": "_address",
							"type": "address"
						}
					],
					"name": "isKamuKurumu",
					"outputs": [
						{
							"internalType": "bool",
							"name": "",
							"type": "bool"
						}
					],
					"stateMutability": "view",
					"type": "function"
				},
				{
					"inputs": [
						{
							"internalType": "address",
							"name": "_address",
							"type": "address"
						}
					],
					"name": "isKisi",
					"outputs": [
						{
							"internalType": "bool",
							"name": "",
							"type": "bool"
						}
					],
					"stateMutability": "view",
					"type": "function"
				},
				{
					"inputs": [
						{
							"internalType": "address",
							"name": "_address",
							"type": "address"
						}
					],
					"name": "isKurs",
					"outputs": [
						{
							"internalType": "bool",
							"name": "",
							"type": "bool"
						}
					],
					"stateMutability": "view",
					"type": "function"
				},
				{
					"inputs": [
						{
							"internalType": "address",
							"name": "_address",
							"type": "address"
						}
					],
					"name": "isSTK",
					"outputs": [
						{
							"internalType": "bool",
							"name": "",
							"type": "bool"
						}
					],
					"stateMutability": "view",
					"type": "function"
				},
				{
					"inputs": [
						{
							"internalType": "address",
							"name": "_address",
							"type": "address"
						}
					],
					"name": "isSertifikaMerkezi",
					"outputs": [
						{
							"internalType": "bool",
							"name": "",
							"type": "bool"
						}
					],
					"stateMutability": "view",
					"type": "function"
				},
				{
					"inputs": [
						{
							"internalType": "address",
							"name": "_address",
							"type": "address"
						}
					],
					"name": "isTOBB",
					"outputs": [
						{
							"internalType": "bool",
							"name": "",
							"type": "bool"
						}
					],
					"stateMutability": "view",
					"type": "function"
				},
				{
					"inputs": [
						{
							"internalType": "address",
							"name": "_address",
							"type": "address"
						}
					],
					"name": "isUniversite",
					"outputs": [
						{
							"internalType": "bool",
							"name": "",
							"type": "bool"
						}
					],
					"stateMutability": "view",
					"type": "function"
				},
				{
					"inputs": [
						{
							"internalType": "address",
							"name": "_address",
							"type": "address"
						}
					],
					"name": "isYOK",
					"outputs": [
						{
							"internalType": "bool",
							"name": "",
							"type": "bool"
						}
					],
					"stateMutability": "view",
					"type": "function"
				},
				{
					"inputs": [
						{
							"internalType": "address",
							"name": "",
							"type": "address"
						}
					],
					"name": "kamuKurumlari",
					"outputs": [
						{
							"internalType": "bool",
							"name": "durum",
							"type": "bool"
						},
						{
							"internalType": "string",
							"name": "isim",
							"type": "string"
						},
						{
							"internalType": "uint8",
							"name": "ulke",
							"type": "uint8"
						}
					],
					"stateMutability": "view",
					"type": "function"
				},
				{
					"inputs": [
						{
							"internalType": "address",
							"name": "",
							"type": "address"
						}
					],
					"name": "kisiler",
					"outputs": [
						{
							"internalType": "bool",
							"name": "durum",
							"type": "bool"
						}
					],
					"stateMutability": "view",
					"type": "function"
				},
				{
					"inputs": [
						{
							"internalType": "address",
							"name": "",
							"type": "address"
						}
					],
					"name": "kurslar",
					"outputs": [
						{
							"internalType": "bool",
							"name": "durum",
							"type": "bool"
						},
						{
							"internalType": "string",
							"name": "isim",
							"type": "string"
						},
						{
							"internalType": "uint8",
							"name": "ulke",
							"type": "uint8"
						}
					],
					"stateMutability": "view",
					"type": "function"
				},
				{
					"inputs": [
						{
							"internalType": "address",
							"name": "_yok",
							"type": "address"
						},
						{
							"internalType": "address",
							"name": "_tobb",
							"type": "address"
						},
						{
							"internalType": "address",
							"name": "_cb",
							"type": "address"
						}
					],
					"name": "paydasTanimla",
					"outputs": [],
					"stateMutability": "nonpayable",
					"type": "function"
				},
				{
					"inputs": [
						{
							"internalType": "address",
							"name": "",
							"type": "address"
						}
					],
					"name": "sertifikaMerkezleri",
					"outputs": [
						{
							"internalType": "bool",
							"name": "durum",
							"type": "bool"
						},
						{
							"internalType": "string",
							"name": "isim",
							"type": "string"
						},
						{
							"internalType": "uint8",
							"name": "ulke",
							"type": "uint8"
						}
					],
					"stateMutability": "view",
					"type": "function"
				},
				{
					"inputs": [
						{
							"internalType": "address",
							"name": "_firmaAdres",
							"type": "address"
						}
					],
					"name": "silFirma",
					"outputs": [],
					"stateMutability": "nonpayable",
					"type": "function"
				},
				{
					"inputs": [
						{
							"internalType": "address",
							"name": "_kamuKurumuAdres",
							"type": "address"
						}
					],
					"name": "silKamuKurumu",
					"outputs": [],
					"stateMutability": "nonpayable",
					"type": "function"
				},
				{
					"inputs": [
						{
							"internalType": "address",
							"name": "_kisiAdres",
							"type": "address"
						}
					],
					"name": "silKisi",
					"outputs": [],
					"stateMutability": "nonpayable",
					"type": "function"
				},
				{
					"inputs": [
						{
							"internalType": "address",
							"name": "_kursAdres",
							"type": "address"
						}
					],
					"name": "silKurs",
					"outputs": [],
					"stateMutability": "nonpayable",
					"type": "function"
				},
				{
					"inputs": [
						{
							"internalType": "address",
							"name": "_stkAdres",
							"type": "address"
						}
					],
					"name": "silSTK",
					"outputs": [],
					"stateMutability": "nonpayable",
					"type": "function"
				},
				{
					"inputs": [
						{
							"internalType": "address",
							"name": "_smAdres",
							"type": "address"
						}
					],
					"name": "silSertifikaMerkezi",
					"outputs": [],
					"stateMutability": "nonpayable",
					"type": "function"
				},
				{
					"inputs": [
						{
							"internalType": "address",
							"name": "_universiteAdres",
							"type": "address"
						}
					],
					"name": "silUniversite",
					"outputs": [],
					"stateMutability": "nonpayable",
					"type": "function"
				},
				{
					"inputs": [
						{
							"internalType": "address",
							"name": "",
							"type": "address"
						}
					],
					"name": "stklar",
					"outputs": [
						{
							"internalType": "bool",
							"name": "durum",
							"type": "bool"
						},
						{
							"internalType": "string",
							"name": "isim",
							"type": "string"
						},
						{
							"internalType": "uint8",
							"name": "ulke",
							"type": "uint8"
						}
					],
					"stateMutability": "view",
					"type": "function"
				},
				{
					"inputs": [
						{
							"internalType": "address",
							"name": "",
							"type": "address"
						}
					],
					"name": "universiteler",
					"outputs": [
						{
							"internalType": "bool",
							"name": "durum",
							"type": "bool"
						},
						{
							"internalType": "string",
							"name": "isim",
							"type": "string"
						},
						{
							"internalType": "uint8",
							"name": "ulke",
							"type": "uint8"
						}
					],
					"stateMutability": "view",
					"type": "function"
				}
			],
			"devdoc": {
				"kind": "dev",
				"methods": {},
				"version": 1
			},
			"evm": {
				"assembly": "    /* \"contracts/BaseContract.sol\":72:11558  contract BaseContract {\r... */\n  mstore(0x40, 0x80)\n  callvalue\n  dup1\n  iszero\n  tag_1\n  jumpi\n  0x00\n  dup1\n  revert\ntag_1:\n  pop\n  dataSize(sub_0)\n  dup1\n  dataOffset(sub_0)\n  0x00\n  codecopy\n  0x00\n  return\nstop\n\nsub_0: assembly {\n        /* \"contracts/BaseContract.sol\":72:11558  contract BaseContract {\r... */\n      mstore(0x40, 0x80)\n      callvalue\n      dup1\n      iszero\n      tag_1\n      jumpi\n      0x00\n      dup1\n      revert\n    tag_1:\n      pop\n      jumpi(tag_2, lt(calldatasize, 0x04))\n      shr(0xe0, calldataload(0x00))\n      dup1\n      0x9bfc4dbd\n      gt\n      tag_45\n      jumpi\n      dup1\n      0xcbc92809\n      gt\n      tag_46\n      jumpi\n      dup1\n      0xe24047ca\n      gt\n      tag_47\n      jumpi\n      dup1\n      0xe24047ca\n      eq\n      tag_39\n      jumpi\n      dup1\n      0xe5130508\n      eq\n      tag_40\n      jumpi\n      dup1\n      0xf0040eb9\n      eq\n      tag_41\n      jumpi\n      dup1\n      0xf1981850\n      eq\n      tag_42\n      jumpi\n      dup1\n      0xf54acc65\n      eq\n      tag_43\n      jumpi\n      dup1\n      0xf63c649f\n      eq\n      tag_44\n      jumpi\n      jump(tag_2)\n    tag_47:\n      dup1\n      0xcbc92809\n      eq\n      tag_34\n      jumpi\n      dup1\n      0xd25aab85\n      eq\n      tag_35\n      jumpi\n      dup1\n      0xd5f6d56c\n      eq\n      tag_36\n      jumpi\n      dup1\n      0xd7396414\n      eq\n      tag_37\n      jumpi\n      dup1\n      0xd88d8c12\n      eq\n      tag_38\n      jumpi\n      jump(tag_2)\n    tag_46:\n      dup1\n      0xb2a825bb\n      gt\n      tag_48\n      jumpi\n      dup1\n      0xb2a825bb\n      eq\n      tag_29\n      jumpi\n      dup1\n      0xb98ccefd\n      eq\n      tag_30\n      jumpi\n      dup1\n      0xba479b7e\n      eq\n      tag_31\n      jumpi\n      dup1\n      0xbd35a506\n      eq\n      tag_32\n      jumpi\n      dup1\n      0xc6da8cfe\n      eq\n      tag_33\n      jumpi\n      jump(tag_2)\n    tag_48:\n      dup1\n      0x9bfc4dbd\n      eq\n      tag_24\n      jumpi\n      dup1\n      0x9dc30114\n      eq\n      tag_25\n      jumpi\n      dup1\n      0xa4e7ae05\n      eq\n      tag_26\n      jumpi\n      dup1\n      0xa81dc179\n      eq\n      tag_27\n      jumpi\n      dup1\n      0xafb61b1e\n      eq\n      tag_28\n      jumpi\n      jump(tag_2)\n    tag_45:\n      dup1\n      0x36fd2633\n      gt\n      tag_49\n      jumpi\n      dup1\n      0x548fa620\n      gt\n      tag_50\n      jumpi\n      dup1\n      0x548fa620\n      eq\n      tag_18\n      jumpi\n      dup1\n      0x71af892d\n      eq\n      tag_19\n      jumpi\n      dup1\n      0x7d0fa287\n      eq\n      tag_20\n      jumpi\n      dup1\n      0x8c848885\n      eq\n      tag_21\n      jumpi\n      dup1\n      0x91e9528a\n      eq\n      tag_22\n      jumpi\n      dup1\n      0x9a8c9119\n      eq\n      tag_23\n      jumpi\n      jump(tag_2)\n    tag_50:\n      dup1\n      0x36fd2633\n      eq\n      tag_13\n      jumpi\n      dup1\n      0x39987f94\n      eq\n      tag_14\n      jumpi\n      dup1\n      0x46224853\n      eq\n      tag_15\n      jumpi\n      dup1\n      0x50d2a060\n      eq\n      tag_16\n      jumpi\n      dup1\n      0x514e03c7\n      eq\n      tag_17\n      jumpi\n      jump(tag_2)\n    tag_49:\n      dup1\n      0x1916e139\n      gt\n      tag_51\n      jumpi\n      dup1\n      0x1916e139\n      eq\n      tag_8\n      jumpi\n      dup1\n      0x1d595580\n      eq\n      tag_9\n      jumpi\n      dup1\n      0x28266697\n      eq\n      tag_10\n      jumpi\n      dup1\n      0x2d087d70\n      eq\n      tag_11\n      jumpi\n      dup1\n      0x356b1f1e\n      eq\n      tag_12\n      jumpi\n      jump(tag_2)\n    tag_51:\n      dup1\n      0x1d54ab\n      eq\n      tag_3\n      jumpi\n      dup1\n      0x024eb6bc\n      eq\n      tag_4\n      jumpi\n      dup1\n      0x139884ec\n      eq\n      tag_5\n      jumpi\n      dup1\n      0x150596f4\n      eq\n      tag_6\n      jumpi\n      dup1\n      0x19023bf3\n      eq\n      tag_7\n      jumpi\n    tag_2:\n      0x00\n      dup1\n      revert\n        /* \"contracts/BaseContract.sol\":5301:5672  function ekleUniversite(address _universiteAdres, string memory _isim, uint8 _ulke) public {\r... */\n    tag_3:\n      tag_52\n      0x04\n      dup1\n      calldatasize\n      sub\n      dup2\n      add\n      swap1\n      tag_53\n      swap2\n      swap1\n      tag_54\n      jump\t// in\n    tag_53:\n      tag_55\n      jump\t// in\n    tag_52:\n      stop\n        /* \"contracts/BaseContract.sol\":4440:4549  function isKurs(address _address) public view returns (bool){\r... */\n    tag_4:\n      tag_56\n      0x04\n      dup1\n      calldatasize\n      sub\n      dup2\n      add\n      swap1\n      tag_57\n      swap2\n      swap1\n      tag_58\n      jump\t// in\n    tag_57:\n      tag_59\n      jump\t// in\n    tag_56:\n      mload(0x40)\n      tag_60\n      swap2\n      swap1\n      tag_61\n      jump\t// in\n    tag_60:\n      mload(0x40)\n      dup1\n      swap2\n      sub\n      swap1\n      return\n        /* \"contracts/BaseContract.sol\":3730:3832  function isTOBB(address _address) public view returns (bool){\r... */\n    tag_5:\n      tag_62\n      0x04\n      dup1\n      calldatasize\n      sub\n      dup2\n      add\n      swap1\n      tag_63\n      swap2\n      swap1\n      tag_58\n      jump\t// in\n    tag_63:\n      tag_64\n      jump\t// in\n    tag_62:\n      mload(0x40)\n      tag_65\n      swap2\n      swap1\n      tag_61\n      jump\t// in\n    tag_65:\n      mload(0x40)\n      dup1\n      swap2\n      sub\n      swap1\n      return\n        /* \"contracts/BaseContract.sol\":8255:8631  function guncelleKamuKurumu(address _kamuKurumuAdres, string memory _isim, uint8 _ulke)\r... */\n    tag_6:\n      tag_66\n      0x04\n      dup1\n      calldatasize\n      sub\n      dup2\n      add\n      swap1\n      tag_67\n      swap2\n      swap1\n      tag_54\n      jump\t// in\n    tag_67:\n      tag_68\n      jump\t// in\n    tag_66:\n      stop\n        /* \"contracts/BaseContract.sol\":9721:10038  function ekleSTK(address _stkAdres, string memory _isim, uint8 _ulke)\r... */\n    tag_7:\n      tag_69\n      0x04\n      dup1\n      calldatasize\n      sub\n      dup2\n      add\n      swap1\n      tag_70\n      swap2\n      swap1\n      tag_54\n      jump\t// in\n    tag_70:\n      tag_71\n      jump\t// in\n    tag_69:\n      stop\n        /* \"contracts/BaseContract.sol\":5026:5066  mapping(address => Kurs) public  kurslar */\n    tag_8:\n      tag_72\n      0x04\n      dup1\n      calldatasize\n      sub\n      dup2\n      add\n      swap1\n      tag_73\n      swap2\n      swap1\n      tag_58\n      jump\t// in\n    tag_73:\n      tag_74\n      jump\t// in\n    tag_72:\n      mload(0x40)\n      tag_75\n      swap4\n      swap3\n      swap2\n      swap1\n      tag_76\n      jump\t// in\n    tag_75:\n      mload(0x40)\n      dup1\n      swap2\n      sub\n      swap1\n      return\n        /* \"contracts/BaseContract.sol\":7673:7862  function silFirma(address _firmaAdres)\r... */\n    tag_9:\n      tag_77\n      0x04\n      dup1\n      calldatasize\n      sub\n      dup2\n      add\n      swap1\n      tag_78\n      swap2\n      swap1\n      tag_58\n      jump\t// in\n    tag_78:\n      tag_79\n      jump\t// in\n    tag_77:\n      stop\n        /* \"contracts/BaseContract.sol\":4859:4910  mapping(address => Universite) public universiteler */\n    tag_10:\n      tag_80\n      0x04\n      dup1\n      calldatasize\n      sub\n      dup2\n      add\n      swap1\n      tag_81\n      swap2\n      swap1\n      tag_58\n      jump\t// in\n    tag_81:\n      tag_82\n      jump\t// in\n    tag_80:\n      mload(0x40)\n      tag_83\n      swap4\n      swap3\n      swap2\n      swap1\n      tag_76\n      jump\t// in\n    tag_83:\n      mload(0x40)\n      dup1\n      swap2\n      sub\n      swap1\n      return\n        /* \"contracts/BaseContract.sol\":4321:4432  function isFirma(address _address) public view returns (bool){\r... */\n    tag_11:\n      tag_84\n      0x04\n      dup1\n      calldatasize\n      sub\n      dup2\n      add\n      swap1\n      tag_85\n      swap2\n      swap1\n      tag_58\n      jump\t// in\n    tag_85:\n      tag_86\n      jump\t// in\n    tag_84:\n      mload(0x40)\n      tag_87\n      swap2\n      swap1\n      tag_61\n      jump\t// in\n    tag_87:\n      mload(0x40)\n      dup1\n      swap2\n      sub\n      swap1\n      return\n        /* \"contracts/BaseContract.sol\":5175:5238  mapping(address => SertifikaMerkezi) public sertifikaMerkezleri */\n    tag_12:\n      tag_88\n      0x04\n      dup1\n      calldatasize\n      sub\n      dup2\n      add\n      swap1\n      tag_89\n      swap2\n      swap1\n      tag_58\n      jump\t// in\n    tag_89:\n      tag_90\n      jump\t// in\n    tag_88:\n      mload(0x40)\n      tag_91\n      swap4\n      swap3\n      swap2\n      swap1\n      tag_76\n      jump\t// in\n    tag_91:\n      mload(0x40)\n      dup1\n      swap2\n      sub\n      swap1\n      return\n        /* \"contracts/BaseContract.sol\":164:307  function paydasTanimla(address _yok, address _tobb, address _cb) public {\r... */\n    tag_13:\n      tag_92\n      0x04\n      dup1\n      calldatasize\n      sub\n      dup2\n      add\n      swap1\n      tag_93\n      swap2\n      swap1\n      tag_94\n      jump\t// in\n    tag_93:\n      tag_95\n      jump\t// in\n    tag_92:\n      stop\n        /* \"contracts/BaseContract.sol\":4977:5019  mapping(address => Firma) public  firmalar */\n    tag_14:\n      tag_96\n      0x04\n      dup1\n      calldatasize\n      sub\n      dup2\n      add\n      swap1\n      tag_97\n      swap2\n      swap1\n      tag_58\n      jump\t// in\n    tag_97:\n      tag_98\n      jump\t// in\n    tag_96:\n      mload(0x40)\n      tag_99\n      swap5\n      swap4\n      swap3\n      swap2\n      swap1\n      tag_100\n      jump\t// in\n    tag_99:\n      mload(0x40)\n      dup1\n      swap2\n      sub\n      swap1\n      return\n        /* \"contracts/BaseContract.sol\":8868:9186  function ekleKurs(address _kursAdres, string memory _isim, uint8 _ulke)\r... */\n    tag_15:\n      tag_101\n      0x04\n      dup1\n      calldatasize\n      sub\n      dup2\n      add\n      swap1\n      tag_102\n      swap2\n      swap1\n      tag_54\n      jump\t// in\n    tag_102:\n      tag_103\n      jump\t// in\n    tag_101:\n      stop\n        /* \"contracts/BaseContract.sol\":8639:8860  function silKamuKurumu(address _kamuKurumuAdres)\r... */\n    tag_16:\n      tag_104\n      0x04\n      dup1\n      calldatasize\n      sub\n      dup2\n      add\n      swap1\n      tag_105\n      swap2\n      swap1\n      tag_58\n      jump\t// in\n    tag_105:\n      tag_106\n      jump\t// in\n    tag_104:\n      stop\n        /* \"contracts/BaseContract.sol\":4192:4313  function isKamuKurumu(address _address) public view returns (bool){\r... */\n    tag_17:\n      tag_107\n      0x04\n      dup1\n      calldatasize\n      sub\n      dup2\n      add\n      swap1\n      tag_108\n      swap2\n      swap1\n      tag_58\n      jump\t// in\n    tag_108:\n      tag_109\n      jump\t// in\n    tag_107:\n      mload(0x40)\n      tag_110\n      swap2\n      swap1\n      tag_61\n      jump\t// in\n    tag_110:\n      mload(0x40)\n      dup1\n      swap2\n      sub\n      swap1\n      return\n        /* \"contracts/BaseContract.sol\":11332:11553  function silSertifikaMerkezi(address _smAdres)\r... */\n    tag_18:\n      tag_111\n      0x04\n      dup1\n      calldatasize\n      sub\n      dup2\n      add\n      swap1\n      tag_112\n      swap2\n      swap1\n      tag_58\n      jump\t// in\n    tag_112:\n      tag_113\n      jump\t// in\n    tag_111:\n      stop\n        /* \"contracts/BaseContract.sol\":101:119  address public YOK */\n    tag_19:\n      tag_114\n      tag_115\n      jump\t// in\n    tag_114:\n      mload(0x40)\n      tag_116\n      swap2\n      swap1\n      tag_117\n      jump\t// in\n    tag_116:\n      mload(0x40)\n      dup1\n      swap2\n      sub\n      swap1\n      return\n        /* \"contracts/BaseContract.sol\":5073:5124  mapping(address => KamuKurumu) public kamuKurumlari */\n    tag_20:\n      tag_118\n      0x04\n      dup1\n      calldatasize\n      sub\n      dup2\n      add\n      swap1\n      tag_119\n      swap2\n      swap1\n      tag_58\n      jump\t// in\n    tag_119:\n      tag_120\n      jump\t// in\n    tag_118:\n      mload(0x40)\n      tag_121\n      swap4\n      swap3\n      swap2\n      swap1\n      tag_76\n      jump\t// in\n    tag_121:\n      mload(0x40)\n      dup1\n      swap2\n      sub\n      swap1\n      return\n        /* \"contracts/BaseContract.sol\":4557:4664  function isSTK(address _address) public view returns (bool){\r... */\n    tag_21:\n      tag_122\n      0x04\n      dup1\n      calldatasize\n      sub\n      dup2\n      add\n      swap1\n      tag_123\n      swap2\n      swap1\n      tag_58\n      jump\t// in\n    tag_123:\n      tag_124\n      jump\t// in\n    tag_122:\n      mload(0x40)\n      tag_125\n      swap2\n      swap1\n      tag_61\n      jump\t// in\n    tag_125:\n      mload(0x40)\n      dup1\n      swap2\n      sub\n      swap1\n      return\n        /* \"contracts/BaseContract.sol\":10046:10364  function guncelleSTK(address _stkAdres, string memory _isim, uint8 _ulke)\r... */\n    tag_22:\n      tag_126\n      0x04\n      dup1\n      calldatasize\n      sub\n      dup2\n      add\n      swap1\n      tag_127\n      swap2\n      swap1\n      tag_54\n      jump\t// in\n    tag_127:\n      tag_128\n      jump\t// in\n    tag_126:\n      stop\n        /* \"contracts/BaseContract.sol\":5131:5168  mapping(address => STK) public stklar */\n    tag_23:\n      tag_129\n      0x04\n      dup1\n      calldatasize\n      sub\n      dup2\n      add\n      swap1\n      tag_130\n      swap2\n      swap1\n      tag_58\n      jump\t// in\n    tag_130:\n      tag_131\n      jump\t// in\n    tag_129:\n      mload(0x40)\n      tag_132\n      swap4\n      swap3\n      swap2\n      swap1\n      tag_76\n      jump\t// in\n    tag_132:\n      mload(0x40)\n      dup1\n      swap2\n      sub\n      swap1\n      return\n        /* \"contracts/BaseContract.sol\":6062:6281  function silUniversite(address _universiteAdres) public {\r... */\n    tag_24:\n      tag_133\n      0x04\n      dup1\n      calldatasize\n      sub\n      dup2\n      add\n      swap1\n      tag_134\n      swap2\n      swap1\n      tag_58\n      jump\t// in\n    tag_134:\n      tag_135\n      jump\t// in\n    tag_133:\n      stop\n        /* \"contracts/BaseContract.sol\":10569:10942  function ekleSertifikaMerkezi(address _smAdres, string memory _isim, uint8 _ulke)\r... */\n    tag_25:\n      tag_136\n      0x04\n      dup1\n      calldatasize\n      sub\n      dup2\n      add\n      swap1\n      tag_137\n      swap2\n      swap1\n      tag_54\n      jump\t// in\n    tag_137:\n      tag_138\n      jump\t// in\n    tag_136:\n      stop\n        /* \"contracts/BaseContract.sol\":5247:5290  mapping(uint32 => YabanciDil) public diller */\n    tag_26:\n      tag_139\n      0x04\n      dup1\n      calldatasize\n      sub\n      dup2\n      add\n      swap1\n      tag_140\n      swap2\n      swap1\n      tag_141\n      jump\t// in\n    tag_140:\n      tag_142\n      jump\t// in\n    tag_139:\n      mload(0x40)\n      tag_143\n      swap3\n      swap2\n      swap1\n      tag_144\n      jump\t// in\n    tag_143:\n      mload(0x40)\n      dup1\n      swap2\n      sub\n      swap1\n      return\n        /* \"contracts/BaseContract.sol\":7275:7665  function guncelleFirma(address _firmaAdres, string memory _isim, uint _vergiNo, uint8 _ulke)\r... */\n    tag_27:\n      tag_145\n      0x04\n      dup1\n      calldatasize\n      sub\n      dup2\n      add\n      swap1\n      tag_146\n      swap2\n      swap1\n      tag_147\n      jump\t// in\n    tag_146:\n      tag_148\n      jump\t// in\n    tag_145:\n      stop\n        /* \"contracts/BaseContract.sol\":9523:9713  function silKurs(address _kursAdres)\r... */\n    tag_28:\n      tag_149\n      0x04\n      dup1\n      calldatasize\n      sub\n      dup2\n      add\n      swap1\n      tag_150\n      swap2\n      swap1\n      tag_58\n      jump\t// in\n    tag_150:\n      tag_151\n      jump\t// in\n    tag_149:\n      stop\n        /* \"contracts/BaseContract.sol\":10950:11324  function guncelleSertifikaMerkezi(address _smAdres, string memory _isim, uint8 _ulke)\r... */\n    tag_29:\n      tag_152\n      0x04\n      dup1\n      calldatasize\n      sub\n      dup2\n      add\n      swap1\n      tag_153\n      swap2\n      swap1\n      tag_54\n      jump\t// in\n    tag_153:\n      tag_154\n      jump\t// in\n    tag_152:\n      stop\n        /* \"contracts/BaseContract.sol\":4075:4184  function isKisi(address _address) public view returns (bool){\r... */\n    tag_30:\n      tag_155\n      0x04\n      dup1\n      calldatasize\n      sub\n      dup2\n      add\n      swap1\n      tag_156\n      swap2\n      swap1\n      tag_58\n      jump\t// in\n    tag_156:\n      tag_157\n      jump\t// in\n    tag_155:\n      mload(0x40)\n      tag_158\n      swap2\n      swap1\n      tag_61\n      jump\t// in\n    tag_158:\n      mload(0x40)\n      dup1\n      swap2\n      sub\n      swap1\n      return\n        /* \"contracts/BaseContract.sol\":4917:4970  mapping(address => Akademisyen) public akademisyenler */\n    tag_31:\n      tag_159\n      0x04\n      dup1\n      calldatasize\n      sub\n      dup2\n      add\n      swap1\n      tag_160\n      swap2\n      swap1\n      tag_58\n      jump\t// in\n    tag_160:\n      tag_161\n      jump\t// in\n    tag_159:\n      mload(0x40)\n      tag_162\n      swap7\n      swap6\n      swap5\n      swap4\n      swap3\n      swap2\n      swap1\n      tag_163\n      jump\t// in\n    tag_162:\n      mload(0x40)\n      dup1\n      swap2\n      sub\n      swap1\n      return\n        /* \"contracts/BaseContract.sol\":6693:6870  function silKisi(address _kisiAdres) public {\r... */\n    tag_32:\n      tag_164\n      0x04\n      dup1\n      calldatasize\n      sub\n      dup2\n      add\n      swap1\n      tag_165\n      swap2\n      swap1\n      tag_58\n      jump\t// in\n    tag_165:\n      tag_166\n      jump\t// in\n    tag_164:\n      stop\n        /* \"contracts/BaseContract.sol\":5680:6054  function guncelleUniversite(address _universiteAdres, string memory _isim, uint8 _ulke) public {\r... */\n    tag_33:\n      tag_167\n      0x04\n      dup1\n      calldatasize\n      sub\n      dup2\n      add\n      swap1\n      tag_168\n      swap2\n      swap1\n      tag_54\n      jump\t// in\n    tag_168:\n      tag_169\n      jump\t// in\n    tag_167:\n      stop\n        /* \"contracts/BaseContract.sol\":4813:4852  mapping(address => Kisi) public kisiler */\n    tag_34:\n      tag_170\n      0x04\n      dup1\n      calldatasize\n      sub\n      dup2\n      add\n      swap1\n      tag_171\n      swap2\n      swap1\n      tag_58\n      jump\t// in\n    tag_171:\n      tag_172\n      jump\t// in\n    tag_170:\n      mload(0x40)\n      tag_173\n      swap2\n      swap1\n      tag_61\n      jump\t// in\n    tag_173:\n      mload(0x40)\n      dup1\n      swap2\n      sub\n      swap1\n      return\n        /* \"contracts/BaseContract.sol\":6880:7267  function ekleFirma(address _firmaAdres, string memory _isim, uint _vergiNo, uint8 _ulke)\r... */\n    tag_35:\n      tag_174\n      0x04\n      dup1\n      calldatasize\n      sub\n      dup2\n      add\n      swap1\n      tag_175\n      swap2\n      swap1\n      tag_147\n      jump\t// in\n    tag_175:\n      tag_176\n      jump\t// in\n    tag_174:\n      stop\n        /* \"contracts/BaseContract.sol\":9194:9515  function guncelleKurs(address _kursAdres, string memory _isim, uint8 _ulke)\r... */\n    tag_36:\n      tag_177\n      0x04\n      dup1\n      calldatasize\n      sub\n      dup2\n      add\n      swap1\n      tag_178\n      swap2\n      swap1\n      tag_54\n      jump\t// in\n    tag_178:\n      tag_179\n      jump\t// in\n    tag_177:\n      stop\n        /* \"contracts/BaseContract.sol\":3622:3722  function isYOK(address _address) public view returns (bool){\r... */\n    tag_37:\n      tag_180\n      0x04\n      dup1\n      calldatasize\n      sub\n      dup2\n      add\n      swap1\n      tag_181\n      swap2\n      swap1\n      tag_58\n      jump\t// in\n    tag_181:\n      tag_182\n      jump\t// in\n    tag_180:\n      mload(0x40)\n      tag_183\n      swap2\n      swap1\n      tag_61\n      jump\t// in\n    tag_183:\n      mload(0x40)\n      dup1\n      swap2\n      sub\n      swap1\n      return\n        /* \"contracts/BaseContract.sol\":10372:10561  function silSTK(address _stkAdres)\r... */\n    tag_38:\n      tag_184\n      0x04\n      dup1\n      calldatasize\n      sub\n      dup2\n      add\n      swap1\n      tag_185\n      swap2\n      swap1\n      tag_58\n      jump\t// in\n    tag_185:\n      tag_186\n      jump\t// in\n    tag_184:\n      stop\n        /* \"contracts/BaseContract.sol\":4672:4805  function isSertifikaMerkezi(address _address) public view returns (bool){\r... */\n    tag_39:\n      tag_187\n      0x04\n      dup1\n      calldatasize\n      sub\n      dup2\n      add\n      swap1\n      tag_188\n      swap2\n      swap1\n      tag_58\n      jump\t// in\n    tag_188:\n      tag_189\n      jump\t// in\n    tag_187:\n      mload(0x40)\n      tag_190\n      swap2\n      swap1\n      tag_61\n      jump\t// in\n    tag_190:\n      mload(0x40)\n      dup1\n      swap2\n      sub\n      swap1\n      return\n        /* \"contracts/BaseContract.sol\":3840:3938  function isCB(address _address) public view returns (bool){\r... */\n    tag_40:\n      tag_191\n      0x04\n      dup1\n      calldatasize\n      sub\n      dup2\n      add\n      swap1\n      tag_192\n      swap2\n      swap1\n      tag_58\n      jump\t// in\n    tag_192:\n      tag_193\n      jump\t// in\n    tag_191:\n      mload(0x40)\n      tag_194\n      swap2\n      swap1\n      tag_61\n      jump\t// in\n    tag_194:\n      mload(0x40)\n      dup1\n      swap2\n      sub\n      swap1\n      return\n        /* \"contracts/BaseContract.sol\":3946:4067  function isUniversite(address _address) public view returns (bool){\r... */\n    tag_41:\n      tag_195\n      0x04\n      dup1\n      calldatasize\n      sub\n      dup2\n      add\n      swap1\n      tag_196\n      swap2\n      swap1\n      tag_58\n      jump\t// in\n    tag_196:\n      tag_197\n      jump\t// in\n    tag_195:\n      mload(0x40)\n      tag_198\n      swap2\n      swap1\n      tag_61\n      jump\t// in\n    tag_198:\n      mload(0x40)\n      dup1\n      swap2\n      sub\n      swap1\n      return\n        /* \"contracts/BaseContract.sol\":6482:6685  function guncelleKisi(address _kisiAdres, bool _durum) public {\r... */\n    tag_42:\n      tag_199\n      0x04\n      dup1\n      calldatasize\n      sub\n      dup2\n      add\n      swap1\n      tag_200\n      swap2\n      swap1\n      tag_201\n      jump\t// in\n    tag_200:\n      tag_202\n      jump\t// in\n    tag_199:\n      stop\n        /* \"contracts/BaseContract.sol\":6289:6474  function ekleKisi(address _kisiAdres) public {\r... */\n    tag_43:\n      tag_203\n      0x04\n      dup1\n      calldatasize\n      sub\n      dup2\n      add\n      swap1\n      tag_204\n      swap2\n      swap1\n      tag_58\n      jump\t// in\n    tag_204:\n      tag_205\n      jump\t// in\n    tag_203:\n      stop\n        /* \"contracts/BaseContract.sol\":7870:8247  function ekleKamuKurumu(address _kamuKurumuAdres, string memory _isim, uint8 _ulke)\r... */\n    tag_44:\n      tag_206\n      0x04\n      dup1\n      calldatasize\n      sub\n      dup2\n      add\n      swap1\n      tag_207\n      swap2\n      swap1\n      tag_54\n      jump\t// in\n    tag_207:\n      tag_208\n      jump\t// in\n    tag_206:\n      stop\n        /* \"contracts/BaseContract.sol\":5301:5672  function ekleUniversite(address _universiteAdres, string memory _isim, uint8 _ulke) public {\r... */\n    tag_55:\n        /* \"contracts/BaseContract.sol\":5412:5442  isUniversite(_universiteAdres) */\n      tag_210\n        /* \"contracts/BaseContract.sol\":5425:5441  _universiteAdres */\n      dup4\n        /* \"contracts/BaseContract.sol\":5412:5424  isUniversite */\n      tag_197\n        /* \"contracts/BaseContract.sol\":5412:5442  isUniversite(_universiteAdres) */\n      jump\t// in\n    tag_210:\n        /* \"contracts/BaseContract.sol\":5411:5442  !isUniversite(_universiteAdres) */\n      iszero\n        /* \"contracts/BaseContract.sol\":5403:5493  require(!isUniversite(_universiteAdres),\r... */\n      tag_211\n      jumpi\n      mload(0x40)\n      0x08c379a000000000000000000000000000000000000000000000000000000000\n      dup2\n      mstore\n      0x04\n      add\n      tag_212\n      swap1\n      tag_213\n      jump\t// in\n    tag_212:\n      mload(0x40)\n      dup1\n      swap2\n      sub\n      swap1\n      revert\n    tag_211:\n        /* \"contracts/BaseContract.sol\":5546:5550  true */\n      0x01\n        /* \"contracts/BaseContract.sol\":5506:5519  universiteler */\n      0x04\n        /* \"contracts/BaseContract.sol\":5506:5537  universiteler[_universiteAdres] */\n      0x00\n        /* \"contracts/BaseContract.sol\":5520:5536  _universiteAdres */\n      dup6\n        /* \"contracts/BaseContract.sol\":5506:5537  universiteler[_universiteAdres] */\n      0xffffffffffffffffffffffffffffffffffffffff\n      and\n      0xffffffffffffffffffffffffffffffffffffffff\n      and\n      dup2\n      mstore\n      0x20\n      add\n      swap1\n      dup2\n      mstore\n      0x20\n      add\n      0x00\n      keccak256\n        /* \"contracts/BaseContract.sol\":5506:5543  universiteler[_universiteAdres].durum */\n      0x00\n      add\n      0x00\n        /* \"contracts/BaseContract.sol\":5506:5550  universiteler[_universiteAdres].durum = true */\n      0x0100\n      exp\n      dup2\n      sload\n      dup2\n      0xff\n      mul\n      not\n      and\n      swap1\n      dup4\n      iszero\n      iszero\n      mul\n      or\n      swap1\n      sstore\n      pop\n        /* \"contracts/BaseContract.sol\":5600:5605  _isim */\n      dup2\n        /* \"contracts/BaseContract.sol\":5561:5574  universiteler */\n      0x04\n        /* \"contracts/BaseContract.sol\":5561:5592  universiteler[_universiteAdres] */\n      0x00\n        /* \"contracts/BaseContract.sol\":5575:5591  _universiteAdres */\n      dup6\n        /* \"contracts/BaseContract.sol\":5561:5592  universiteler[_universiteAdres] */\n      0xffffffffffffffffffffffffffffffffffffffff\n      and\n      0xffffffffffffffffffffffffffffffffffffffff\n      and\n      dup2\n      mstore\n      0x20\n      add\n      swap1\n      dup2\n      mstore\n      0x20\n      add\n      0x00\n      keccak256\n        /* \"contracts/BaseContract.sol\":5561:5597  universiteler[_universiteAdres].isim */\n      0x01\n      add\n        /* \"contracts/BaseContract.sol\":5561:5605  universiteler[_universiteAdres].isim = _isim */\n      swap1\n      dup1\n      mload\n      swap1\n      0x20\n      add\n      swap1\n      tag_214\n      swap3\n      swap2\n      swap1\n      tag_215\n      jump\t// in\n    tag_214:\n      pop\n        /* \"contracts/BaseContract.sol\":5655:5660  _ulke */\n      dup1\n        /* \"contracts/BaseContract.sol\":5616:5629  universiteler */\n      0x04\n        /* \"contracts/BaseContract.sol\":5616:5647  universiteler[_universiteAdres] */\n      0x00\n        /* \"contracts/BaseContract.sol\":5630:5646  _universiteAdres */\n      dup6\n        /* \"contracts/BaseContract.sol\":5616:5647  universiteler[_universiteAdres] */\n      0xffffffffffffffffffffffffffffffffffffffff\n      and\n      0xffffffffffffffffffffffffffffffffffffffff\n      and\n      dup2\n      mstore\n      0x20\n      add\n      swap1\n      dup2\n      mstore\n      0x20\n      add\n      0x00\n      keccak256\n        /* \"contracts/BaseContract.sol\":5616:5652  universiteler[_universiteAdres].ulke */\n      0x02\n      add\n      0x00\n        /* \"contracts/BaseContract.sol\":5616:5660  universiteler[_universiteAdres].ulke = _ulke */\n      0x0100\n      exp\n      dup2\n      sload\n      dup2\n      0xff\n      mul\n      not\n      and\n      swap1\n      dup4\n      0xff\n      and\n      mul\n      or\n      swap1\n      sstore\n      pop\n        /* \"contracts/BaseContract.sol\":5301:5672  function ekleUniversite(address _universiteAdres, string memory _isim, uint8 _ulke) public {\r... */\n      pop\n      pop\n      pop\n      jump\t// out\n        /* \"contracts/BaseContract.sol\":4440:4549  function isKurs(address _address) public view returns (bool){\r... */\n    tag_59:\n        /* \"contracts/BaseContract.sol\":4495:4499  bool */\n      0x00\n        /* \"contracts/BaseContract.sol\":4518:4525  kurslar */\n      0x07\n        /* \"contracts/BaseContract.sol\":4518:4535  kurslar[_address] */\n      0x00\n        /* \"contracts/BaseContract.sol\":4526:4534  _address */\n      dup4\n        /* \"contracts/BaseContract.sol\":4518:4535  kurslar[_address] */\n      0xffffffffffffffffffffffffffffffffffffffff\n      and\n      0xffffffffffffffffffffffffffffffffffffffff\n      and\n      dup2\n      mstore\n      0x20\n      add\n      swap1\n      dup2\n      mstore\n      0x20\n      add\n      0x00\n      keccak256\n        /* \"contracts/BaseContract.sol\":4518:4541  kurslar[_address].durum */\n      0x00\n      add\n      0x00\n      swap1\n      sload\n      swap1\n      0x0100\n      exp\n      swap1\n      div\n      0xff\n      and\n        /* \"contracts/BaseContract.sol\":4511:4541  return kurslar[_address].durum */\n      swap1\n      pop\n        /* \"contracts/BaseContract.sol\":4440:4549  function isKurs(address _address) public view returns (bool){\r... */\n      swap2\n      swap1\n      pop\n      jump\t// out\n        /* \"contracts/BaseContract.sol\":3730:3832  function isTOBB(address _address) public view returns (bool){\r... */\n    tag_64:\n        /* \"contracts/BaseContract.sol\":3785:3789  bool */\n      0x00\n        /* \"contracts/BaseContract.sol\":3816:3824  _address */\n      dup2\n        /* \"contracts/BaseContract.sol\":3808:3824  TOBB == _address */\n      0xffffffffffffffffffffffffffffffffffffffff\n      and\n        /* \"contracts/BaseContract.sol\":3808:3812  TOBB */\n      0x01\n      0x00\n      swap1\n      sload\n      swap1\n      0x0100\n      exp\n      swap1\n      div\n      0xffffffffffffffffffffffffffffffffffffffff\n      and\n        /* \"contracts/BaseContract.sol\":3808:3824  TOBB == _address */\n      0xffffffffffffffffffffffffffffffffffffffff\n      and\n      eq\n        /* \"contracts/BaseContract.sol\":3801:3824  return TOBB == _address */\n      swap1\n      pop\n        /* \"contracts/BaseContract.sol\":3730:3832  function isTOBB(address _address) public view returns (bool){\r... */\n      swap2\n      swap1\n      pop\n      jump\t// out\n        /* \"contracts/BaseContract.sol\":8255:8631  function guncelleKamuKurumu(address _kamuKurumuAdres, string memory _isim, uint8 _ulke)\r... */\n    tag_68:\n        /* \"contracts/BaseContract.sol\":8374:8404  isKamuKurumu(_kamuKurumuAdres) */\n      tag_219\n        /* \"contracts/BaseContract.sol\":8387:8403  _kamuKurumuAdres */\n      dup4\n        /* \"contracts/BaseContract.sol\":8374:8386  isKamuKurumu */\n      tag_109\n        /* \"contracts/BaseContract.sol\":8374:8404  isKamuKurumu(_kamuKurumuAdres) */\n      jump\t// in\n    tag_219:\n        /* \"contracts/BaseContract.sol\":8366:8456  require(isKamuKurumu(_kamuKurumuAdres),\r... */\n      tag_220\n      jumpi\n      mload(0x40)\n      0x08c379a000000000000000000000000000000000000000000000000000000000\n      dup2\n      mstore\n      0x04\n      add\n      tag_221\n      swap1\n      tag_222\n      jump\t// in\n    tag_221:\n      mload(0x40)\n      dup1\n      swap2\n      sub\n      swap1\n      revert\n    tag_220:\n        /* \"contracts/BaseContract.sol\":8509:8513  true */\n      0x01\n        /* \"contracts/BaseContract.sol\":8469:8482  kamuKurumlari */\n      0x08\n        /* \"contracts/BaseContract.sol\":8469:8500  kamuKurumlari[_kamuKurumuAdres] */\n      0x00\n        /* \"contracts/BaseContract.sol\":8483:8499  _kamuKurumuAdres */\n      dup6\n        /* \"contracts/BaseContract.sol\":8469:8500  kamuKurumlari[_kamuKurumuAdres] */\n      0xffffffffffffffffffffffffffffffffffffffff\n      and\n      0xffffffffffffffffffffffffffffffffffffffff\n      and\n      dup2\n      mstore\n      0x20\n      add\n      swap1\n      dup2\n      mstore\n      0x20\n      add\n      0x00\n      keccak256\n        /* \"contracts/BaseContract.sol\":8469:8506  kamuKurumlari[_kamuKurumuAdres].durum */\n      0x00\n      add\n      0x00\n        /* \"contracts/BaseContract.sol\":8469:8513  kamuKurumlari[_kamuKurumuAdres].durum = true */\n      0x0100\n      exp\n      dup2\n      sload\n      dup2\n      0xff\n      mul\n      not\n      and\n      swap1\n      dup4\n      iszero\n      iszero\n      mul\n      or\n      swap1\n      sstore\n      pop\n        /* \"contracts/BaseContract.sol\":8563:8568  _isim */\n      dup2\n        /* \"contracts/BaseContract.sol\":8524:8537  kamuKurumlari */\n      0x08\n        /* \"contracts/BaseContract.sol\":8524:8555  kamuKurumlari[_kamuKurumuAdres] */\n      0x00\n        /* \"contracts/BaseContract.sol\":8538:8554  _kamuKurumuAdres */\n      dup6\n        /* \"contracts/BaseContract.sol\":8524:8555  kamuKurumlari[_kamuKurumuAdres] */\n      0xffffffffffffffffffffffffffffffffffffffff\n      and\n      0xffffffffffffffffffffffffffffffffffffffff\n      and\n      dup2\n      mstore\n      0x20\n      add\n      swap1\n      dup2\n      mstore\n      0x20\n      add\n      0x00\n      keccak256\n        /* \"contracts/BaseContract.sol\":8524:8560  kamuKurumlari[_kamuKurumuAdres].isim */\n      0x01\n      add\n        /* \"contracts/BaseContract.sol\":8524:8568  kamuKurumlari[_kamuKurumuAdres].isim = _isim */\n      swap1\n      dup1\n      mload\n      swap1\n      0x20\n      add\n      swap1\n      tag_223\n      swap3\n      swap2\n      swap1\n      tag_215\n      jump\t// in\n    tag_223:\n      pop\n        /* \"contracts/BaseContract.sol\":8618:8623  _ulke */\n      dup1\n        /* \"contracts/BaseContract.sol\":8579:8592  kamuKurumlari */\n      0x08\n        /* \"contracts/BaseContract.sol\":8579:8610  kamuKurumlari[_kamuKurumuAdres] */\n      0x00\n        /* \"contracts/BaseContract.sol\":8593:8609  _kamuKurumuAdres */\n      dup6\n        /* \"contracts/BaseContract.sol\":8579:8610  kamuKurumlari[_kamuKurumuAdres] */\n      0xffffffffffffffffffffffffffffffffffffffff\n      and\n      0xffffffffffffffffffffffffffffffffffffffff\n      and\n      dup2\n      mstore\n      0x20\n      add\n      swap1\n      dup2\n      mstore\n      0x20\n      add\n      0x00\n      keccak256\n        /* \"contracts/BaseContract.sol\":8579:8615  kamuKurumlari[_kamuKurumuAdres].ulke */\n      0x02\n      add\n      0x00\n        /* \"contracts/BaseContract.sol\":8579:8623  kamuKurumlari[_kamuKurumuAdres].ulke = _ulke */\n      0x0100\n      exp\n      dup2\n      sload\n      dup2\n      0xff\n      mul\n      not\n      and\n      swap1\n      dup4\n      0xff\n      and\n      mul\n      or\n      swap1\n      sstore\n      pop\n        /* \"contracts/BaseContract.sol\":8255:8631  function guncelleKamuKurumu(address _kamuKurumuAdres, string memory _isim, uint8 _ulke)\r... */\n      pop\n      pop\n      pop\n      jump\t// out\n        /* \"contracts/BaseContract.sol\":9721:10038  function ekleSTK(address _stkAdres, string memory _isim, uint8 _ulke)\r... */\n    tag_71:\n        /* \"contracts/BaseContract.sol\":9823:9839  isSTK(_stkAdres) */\n      tag_225\n        /* \"contracts/BaseContract.sol\":9829:9838  _stkAdres */\n      dup4\n        /* \"contracts/BaseContract.sol\":9823:9828  isSTK */\n      tag_124\n        /* \"contracts/BaseContract.sol\":9823:9839  isSTK(_stkAdres) */\n      jump\t// in\n    tag_225:\n        /* \"contracts/BaseContract.sol\":9822:9839  !isSTK(_stkAdres) */\n      iszero\n        /* \"contracts/BaseContract.sol\":9814:9901  require(!isSTK(_stkAdres),\r... */\n      tag_226\n      jumpi\n      mload(0x40)\n      0x08c379a000000000000000000000000000000000000000000000000000000000\n      dup2\n      mstore\n      0x04\n      add\n      tag_227\n      swap1\n      tag_228\n      jump\t// in\n    tag_227:\n      mload(0x40)\n      dup1\n      swap2\n      sub\n      swap1\n      revert\n    tag_226:\n        /* \"contracts/BaseContract.sol\":9940:9944  true */\n      0x01\n        /* \"contracts/BaseContract.sol\":9914:9920  stklar */\n      0x09\n        /* \"contracts/BaseContract.sol\":9914:9931  stklar[_stkAdres] */\n      0x00\n        /* \"contracts/BaseContract.sol\":9921:9930  _stkAdres */\n      dup6\n        /* \"contracts/BaseContract.sol\":9914:9931  stklar[_stkAdres] */\n      0xffffffffffffffffffffffffffffffffffffffff\n      and\n      0xffffffffffffffffffffffffffffffffffffffff\n      and\n      dup2\n      mstore\n      0x20\n      add\n      swap1\n      dup2\n      mstore\n      0x20\n      add\n      0x00\n      keccak256\n        /* \"contracts/BaseContract.sol\":9914:9937  stklar[_stkAdres].durum */\n      0x00\n      add\n      0x00\n        /* \"contracts/BaseContract.sol\":9914:9944  stklar[_stkAdres].durum = true */\n      0x0100\n      exp\n      dup2\n      sload\n      dup2\n      0xff\n      mul\n      not\n      and\n      swap1\n      dup4\n      iszero\n      iszero\n      mul\n      or\n      swap1\n      sstore\n      pop\n        /* \"contracts/BaseContract.sol\":9980:9985  _isim */\n      dup2\n        /* \"contracts/BaseContract.sol\":9955:9961  stklar */\n      0x09\n        /* \"contracts/BaseContract.sol\":9955:9972  stklar[_stkAdres] */\n      0x00\n        /* \"contracts/BaseContract.sol\":9962:9971  _stkAdres */\n      dup6\n        /* \"contracts/BaseContract.sol\":9955:9972  stklar[_stkAdres] */\n      0xffffffffffffffffffffffffffffffffffffffff\n      and\n      0xffffffffffffffffffffffffffffffffffffffff\n      and\n      dup2\n      mstore\n      0x20\n      add\n      swap1\n      dup2\n      mstore\n      0x20\n      add\n      0x00\n      keccak256\n        /* \"contracts/BaseContract.sol\":9955:9977  stklar[_stkAdres].isim */\n      0x01\n      add\n        /* \"contracts/BaseContract.sol\":9955:9985  stklar[_stkAdres].isim = _isim */\n      swap1\n      dup1\n      mload\n      swap1\n      0x20\n      add\n      swap1\n      tag_229\n      swap3\n      swap2\n      swap1\n      tag_215\n      jump\t// in\n    tag_229:\n      pop\n        /* \"contracts/BaseContract.sol\":10021:10026  _ulke */\n      dup1\n        /* \"contracts/BaseContract.sol\":9996:10002  stklar */\n      0x09\n        /* \"contracts/BaseContract.sol\":9996:10013  stklar[_stkAdres] */\n      0x00\n        /* \"contracts/BaseContract.sol\":10003:10012  _stkAdres */\n      dup6\n        /* \"contracts/BaseContract.sol\":9996:10013  stklar[_stkAdres] */\n      0xffffffffffffffffffffffffffffffffffffffff\n      and\n      0xffffffffffffffffffffffffffffffffffffffff\n      and\n      dup2\n      mstore\n      0x20\n      add\n      swap1\n      dup2\n      mstore\n      0x20\n      add\n      0x00\n      keccak256\n        /* \"contracts/BaseContract.sol\":9996:10018  stklar[_stkAdres].ulke */\n      0x02\n      add\n      0x00\n        /* \"contracts/BaseContract.sol\":9996:10026  stklar[_stkAdres].ulke = _ulke */\n      0x0100\n      exp\n      dup2\n      sload\n      dup2\n      0xff\n      mul\n      not\n      and\n      swap1\n      dup4\n      0xff\n      and\n      mul\n      or\n      swap1\n      sstore\n      pop\n        /* \"contracts/BaseContract.sol\":9721:10038  function ekleSTK(address _stkAdres, string memory _isim, uint8 _ulke)\r... */\n      pop\n      pop\n      pop\n      jump\t// out\n        /* \"contracts/BaseContract.sol\":5026:5066  mapping(address => Kurs) public  kurslar */\n    tag_74:\n      mstore(0x20, 0x07)\n      dup1\n      0x00\n      mstore\n      keccak256(0x00, 0x40)\n      0x00\n      swap2\n      pop\n      swap1\n      pop\n      dup1\n      0x00\n      add\n      0x00\n      swap1\n      sload\n      swap1\n      0x0100\n      exp\n      swap1\n      div\n      0xff\n      and\n      swap1\n      dup1\n      0x01\n      add\n      dup1\n      sload\n      tag_230\n      swap1\n      tag_231\n      jump\t// in\n    tag_230:\n      dup1\n      0x1f\n      add\n      0x20\n      dup1\n      swap2\n      div\n      mul\n      0x20\n      add\n      mload(0x40)\n      swap1\n      dup2\n      add\n      0x40\n      mstore\n      dup1\n      swap3\n      swap2\n      swap1\n      dup2\n      dup2\n      mstore\n      0x20\n      add\n      dup3\n      dup1\n      sload\n      tag_232\n      swap1\n      tag_231\n      jump\t// in\n    tag_232:\n      dup1\n      iszero\n      tag_233\n      jumpi\n      dup1\n      0x1f\n      lt\n      tag_234\n      jumpi\n      0x0100\n      dup1\n      dup4\n      sload\n      div\n      mul\n      dup4\n      mstore\n      swap2\n      0x20\n      add\n      swap2\n      jump(tag_233)\n    tag_234:\n      dup3\n      add\n      swap2\n      swap1\n      0x00\n      mstore\n      keccak256(0x00, 0x20)\n      swap1\n    tag_235:\n      dup2\n      sload\n      dup2\n      mstore\n      swap1\n      0x01\n      add\n      swap1\n      0x20\n      add\n      dup1\n      dup4\n      gt\n      tag_235\n      jumpi\n      dup3\n      swap1\n      sub\n      0x1f\n      and\n      dup3\n      add\n      swap2\n    tag_233:\n      pop\n      pop\n      pop\n      pop\n      pop\n      swap1\n      dup1\n      0x02\n      add\n      0x00\n      swap1\n      sload\n      swap1\n      0x0100\n      exp\n      swap1\n      div\n      0xff\n      and\n      swap1\n      pop\n      dup4\n      jump\t// out\n        /* \"contracts/BaseContract.sol\":7673:7862  function silFirma(address _firmaAdres)\r... */\n    tag_79:\n        /* \"contracts/BaseContract.sol\":7743:7763  isFirma(_firmaAdres) */\n      tag_237\n        /* \"contracts/BaseContract.sol\":7751:7762  _firmaAdres */\n      dup2\n        /* \"contracts/BaseContract.sol\":7743:7750  isFirma */\n      tag_86\n        /* \"contracts/BaseContract.sol\":7743:7763  isFirma(_firmaAdres) */\n      jump\t// in\n    tag_237:\n        /* \"contracts/BaseContract.sol\":7735:7809  require(isFirma(_firmaAdres),\r... */\n      tag_238\n      jumpi\n      mload(0x40)\n      0x08c379a000000000000000000000000000000000000000000000000000000000\n      dup2\n      mstore\n      0x04\n      add\n      tag_239\n      swap1\n      tag_240\n      jump\t// in\n    tag_239:\n      mload(0x40)\n      dup1\n      swap2\n      sub\n      swap1\n      revert\n    tag_238:\n        /* \"contracts/BaseContract.sol\":7829:7837  firmalar */\n      0x06\n        /* \"contracts/BaseContract.sol\":7829:7850  firmalar[_firmaAdres] */\n      0x00\n        /* \"contracts/BaseContract.sol\":7838:7849  _firmaAdres */\n      dup3\n        /* \"contracts/BaseContract.sol\":7829:7850  firmalar[_firmaAdres] */\n      0xffffffffffffffffffffffffffffffffffffffff\n      and\n      0xffffffffffffffffffffffffffffffffffffffff\n      and\n      dup2\n      mstore\n      0x20\n      add\n      swap1\n      dup2\n      mstore\n      0x20\n      add\n      0x00\n      keccak256\n      0x00\n        /* \"contracts/BaseContract.sol\":7822:7850  delete firmalar[_firmaAdres] */\n      dup1\n      dup3\n      add\n      exp(0x0100, 0x00)\n      dup2\n      sload\n      swap1\n      0xff\n      mul\n      not\n      and\n      swap1\n      sstore\n      0x00\n      dup3\n      add\n      exp(0x0100, 0x01)\n      dup2\n      sload\n      swap1\n      0xff\n      mul\n      not\n      and\n      swap1\n      sstore\n      0x01\n      dup3\n      add\n      0x00\n      swap1\n      sstore\n      0x02\n      dup3\n      add\n      0x00\n      tag_241\n      swap2\n      swap1\n      tag_242\n      jump\t// in\n    tag_241:\n      pop\n      pop\n        /* \"contracts/BaseContract.sol\":7673:7862  function silFirma(address _firmaAdres)\r... */\n      pop\n      jump\t// out\n        /* \"contracts/BaseContract.sol\":4859:4910  mapping(address => Universite) public universiteler */\n    tag_82:\n      mstore(0x20, 0x04)\n      dup1\n      0x00\n      mstore\n      keccak256(0x00, 0x40)\n      0x00\n      swap2\n      pop\n      swap1\n      pop\n      dup1\n      0x00\n      add\n      0x00\n      swap1\n      sload\n      swap1\n      0x0100\n      exp\n      swap1\n      div\n      0xff\n      and\n      swap1\n      dup1\n      0x01\n      add\n      dup1\n      sload\n      tag_243\n      swap1\n      tag_231\n      jump\t// in\n    tag_243:\n      dup1\n      0x1f\n      add\n      0x20\n      dup1\n      swap2\n      div\n      mul\n      0x20\n      add\n      mload(0x40)\n      swap1\n      dup2\n      add\n      0x40\n      mstore\n      dup1\n      swap3\n      swap2\n      swap1\n      dup2\n      dup2\n      mstore\n      0x20\n      add\n      dup3\n      dup1\n      sload\n      tag_244\n      swap1\n      tag_231\n      jump\t// in\n    tag_244:\n      dup1\n      iszero\n      tag_245\n      jumpi\n      dup1\n      0x1f\n      lt\n      tag_246\n      jumpi\n      0x0100\n      dup1\n      dup4\n      sload\n      div\n      mul\n      dup4\n      mstore\n      swap2\n      0x20\n      add\n      swap2\n      jump(tag_245)\n    tag_246:\n      dup3\n      add\n      swap2\n      swap1\n      0x00\n      mstore\n      keccak256(0x00, 0x20)\n      swap1\n    tag_247:\n      dup2\n      sload\n      dup2\n      mstore\n      swap1\n      0x01\n      add\n      swap1\n      0x20\n      add\n      dup1\n      dup4\n      gt\n      tag_247\n      jumpi\n      dup3\n      swap1\n      sub\n      0x1f\n      and\n      dup3\n      add\n      swap2\n    tag_245:\n      pop\n      pop\n      pop\n      pop\n      pop\n      swap1\n      dup1\n      0x02\n      add\n      0x00\n      swap1\n      sload\n      swap1\n      0x0100\n      exp\n      swap1\n      div\n      0xff\n      and\n      swap1\n      pop\n      dup4\n      jump\t// out\n        /* \"contracts/BaseContract.sol\":4321:4432  function isFirma(address _address) public view returns (bool){\r... */\n    tag_86:\n        /* \"contracts/BaseContract.sol\":4377:4381  bool */\n      0x00\n        /* \"contracts/BaseContract.sol\":4400:4408  firmalar */\n      0x06\n        /* \"contracts/BaseContract.sol\":4400:4418  firmalar[_address] */\n      0x00\n        /* \"contracts/BaseContract.sol\":4409:4417  _address */\n      dup4\n        /* \"contracts/BaseContract.sol\":4400:4418  firmalar[_address] */\n      0xffffffffffffffffffffffffffffffffffffffff\n      and\n      0xffffffffffffffffffffffffffffffffffffffff\n      and\n      dup2\n      mstore\n      0x20\n      add\n      swap1\n      dup2\n      mstore\n      0x20\n      add\n      0x00\n      keccak256\n        /* \"contracts/BaseContract.sol\":4400:4424  firmalar[_address].durum */\n      0x00\n      add\n      0x00\n      swap1\n      sload\n      swap1\n      0x0100\n      exp\n      swap1\n      div\n      0xff\n      and\n        /* \"contracts/BaseContract.sol\":4393:4424  return firmalar[_address].durum */\n      swap1\n      pop\n        /* \"contracts/BaseContract.sol\":4321:4432  function isFirma(address _address) public view returns (bool){\r... */\n      swap2\n      swap1\n      pop\n      jump\t// out\n        /* \"contracts/BaseContract.sol\":5175:5238  mapping(address => SertifikaMerkezi) public sertifikaMerkezleri */\n    tag_90:\n      mstore(0x20, 0x0a)\n      dup1\n      0x00\n      mstore\n      keccak256(0x00, 0x40)\n      0x00\n      swap2\n      pop\n      swap1\n      pop\n      dup1\n      0x00\n      add\n      0x00\n      swap1\n      sload\n      swap1\n      0x0100\n      exp\n      swap1\n      div\n      0xff\n      and\n      swap1\n      dup1\n      0x01\n      add\n      dup1\n      sload\n      tag_249\n      swap1\n      tag_231\n      jump\t// in\n    tag_249:\n      dup1\n      0x1f\n      add\n      0x20\n      dup1\n      swap2\n      div\n      mul\n      0x20\n      add\n      mload(0x40)\n      swap1\n      dup2\n      add\n      0x40\n      mstore\n      dup1\n      swap3\n      swap2\n      swap1\n      dup2\n      dup2\n      mstore\n      0x20\n      add\n      dup3\n      dup1\n      sload\n      tag_250\n      swap1\n      tag_231\n      jump\t// in\n    tag_250:\n      dup1\n      iszero\n      tag_251\n      jumpi\n      dup1\n      0x1f\n      lt\n      tag_252\n      jumpi\n      0x0100\n      dup1\n      dup4\n      sload\n      div\n      mul\n      dup4\n      mstore\n      swap2\n      0x20\n      add\n      swap2\n      jump(tag_251)\n    tag_252:\n      dup3\n      add\n      swap2\n      swap1\n      0x00\n      mstore\n      keccak256(0x00, 0x20)\n      swap1\n    tag_253:\n      dup2\n      sload\n      dup2\n      mstore\n      swap1\n      0x01\n      add\n      swap1\n      0x20\n      add\n      dup1\n      dup4\n      gt\n      tag_253\n      jumpi\n      dup3\n      swap1\n      sub\n      0x1f\n      and\n      dup3\n      add\n      swap2\n    tag_251:\n      pop\n      pop\n      pop\n      pop\n      pop\n      swap1\n      dup1\n      0x02\n      add\n      0x00\n      swap1\n      sload\n      swap1\n      0x0100\n      exp\n      swap1\n      div\n      0xff\n      and\n      swap1\n      pop\n      dup4\n      jump\t// out\n        /* \"contracts/BaseContract.sol\":164:307  function paydasTanimla(address _yok, address _tobb, address _cb) public {\r... */\n    tag_95:\n        /* \"contracts/BaseContract.sol\":253:257  _yok */\n      dup3\n        /* \"contracts/BaseContract.sol\":247:250  YOK */\n      0x00\n      dup1\n        /* \"contracts/BaseContract.sol\":247:257  YOK = _yok */\n      0x0100\n      exp\n      dup2\n      sload\n      dup2\n      0xffffffffffffffffffffffffffffffffffffffff\n      mul\n      not\n      and\n      swap1\n      dup4\n      0xffffffffffffffffffffffffffffffffffffffff\n      and\n      mul\n      or\n      swap1\n      sstore\n      pop\n        /* \"contracts/BaseContract.sol\":275:280  _tobb */\n      dup2\n        /* \"contracts/BaseContract.sol\":268:272  TOBB */\n      0x01\n      0x00\n        /* \"contracts/BaseContract.sol\":268:280  TOBB = _tobb */\n      0x0100\n      exp\n      dup2\n      sload\n      dup2\n      0xffffffffffffffffffffffffffffffffffffffff\n      mul\n      not\n      and\n      swap1\n      dup4\n      0xffffffffffffffffffffffffffffffffffffffff\n      and\n      mul\n      or\n      swap1\n      sstore\n      pop\n        /* \"contracts/BaseContract.sol\":296:299  _cb */\n      dup1\n        /* \"contracts/BaseContract.sol\":291:293  CB */\n      0x02\n      0x00\n        /* \"contracts/BaseContract.sol\":291:299  CB = _cb */\n      0x0100\n      exp\n      dup2\n      sload\n      dup2\n      0xffffffffffffffffffffffffffffffffffffffff\n      mul\n      not\n      and\n      swap1\n      dup4\n      0xffffffffffffffffffffffffffffffffffffffff\n      and\n      mul\n      or\n      swap1\n      sstore\n      pop\n        /* \"contracts/BaseContract.sol\":164:307  function paydasTanimla(address _yok, address _tobb, address _cb) public {\r... */\n      pop\n      pop\n      pop\n      jump\t// out\n        /* \"contracts/BaseContract.sol\":4977:5019  mapping(address => Firma) public  firmalar */\n    tag_98:\n      mstore(0x20, 0x06)\n      dup1\n      0x00\n      mstore\n      keccak256(0x00, 0x40)\n      0x00\n      swap2\n      pop\n      swap1\n      pop\n      dup1\n      0x00\n      add\n      0x00\n      swap1\n      sload\n      swap1\n      0x0100\n      exp\n      swap1\n      div\n      0xff\n      and\n      swap1\n      dup1\n      0x00\n      add\n      0x01\n      swap1\n      sload\n      swap1\n      0x0100\n      exp\n      swap1\n      div\n      0xff\n      and\n      swap1\n      dup1\n      0x01\n      add\n      sload\n      swap1\n      dup1\n      0x02\n      add\n      dup1\n      sload\n      tag_255\n      swap1\n      tag_231\n      jump\t// in\n    tag_255:\n      dup1\n      0x1f\n      add\n      0x20\n      dup1\n      swap2\n      div\n      mul\n      0x20\n      add\n      mload(0x40)\n      swap1\n      dup2\n      add\n      0x40\n      mstore\n      dup1\n      swap3\n      swap2\n      swap1\n      dup2\n      dup2\n      mstore\n      0x20\n      add\n      dup3\n      dup1\n      sload\n      tag_256\n      swap1\n      tag_231\n      jump\t// in\n    tag_256:\n      dup1\n      iszero\n      tag_257\n      jumpi\n      dup1\n      0x1f\n      lt\n      tag_258\n      jumpi\n      0x0100\n      dup1\n      dup4\n      sload\n      div\n      mul\n      dup4\n      mstore\n      swap2\n      0x20\n      add\n      swap2\n      jump(tag_257)\n    tag_258:\n      dup3\n      add\n      swap2\n      swap1\n      0x00\n      mstore\n      keccak256(0x00, 0x20)\n      swap1\n    tag_259:\n      dup2\n      sload\n      dup2\n      mstore\n      swap1\n      0x01\n      add\n      swap1\n      0x20\n      add\n      dup1\n      dup4\n      gt\n      tag_259\n      jumpi\n      dup3\n      swap1\n      sub\n      0x1f\n      and\n      dup3\n      add\n      swap2\n    tag_257:\n      pop\n      pop\n      pop\n      pop\n      pop\n      swap1\n      pop\n      dup5\n      jump\t// out\n        /* \"contracts/BaseContract.sol\":8868:9186  function ekleKurs(address _kursAdres, string memory _isim, uint8 _ulke)\r... */\n    tag_103:\n        /* \"contracts/BaseContract.sol\":8972:8990  isKurs(_kursAdres) */\n      tag_261\n        /* \"contracts/BaseContract.sol\":8979:8989  _kursAdres */\n      dup4\n        /* \"contracts/BaseContract.sol\":8972:8978  isKurs */\n      tag_59\n        /* \"contracts/BaseContract.sol\":8972:8990  isKurs(_kursAdres) */\n      jump\t// in\n    tag_261:\n        /* \"contracts/BaseContract.sol\":8971:8990  !isKurs(_kursAdres) */\n      iszero\n        /* \"contracts/BaseContract.sol\":8963:9043  require(!isKurs(_kursAdres),\r... */\n      tag_262\n      jumpi\n      mload(0x40)\n      0x08c379a000000000000000000000000000000000000000000000000000000000\n      dup2\n      mstore\n      0x04\n      add\n      tag_263\n      swap1\n      tag_264\n      jump\t// in\n    tag_263:\n      mload(0x40)\n      dup1\n      swap2\n      sub\n      swap1\n      revert\n    tag_262:\n        /* \"contracts/BaseContract.sol\":9084:9088  true */\n      0x01\n        /* \"contracts/BaseContract.sol\":9056:9063  kurslar */\n      0x07\n        /* \"contracts/BaseContract.sol\":9056:9075  kurslar[_kursAdres] */\n      0x00\n        /* \"contracts/BaseContract.sol\":9064:9074  _kursAdres */\n      dup6\n        /* \"contracts/BaseContract.sol\":9056:9075  kurslar[_kursAdres] */\n      0xffffffffffffffffffffffffffffffffffffffff\n      and\n      0xffffffffffffffffffffffffffffffffffffffff\n      and\n      dup2\n      mstore\n      0x20\n      add\n      swap1\n      dup2\n      mstore\n      0x20\n      add\n      0x00\n      keccak256\n        /* \"contracts/BaseContract.sol\":9056:9081  kurslar[_kursAdres].durum */\n      0x00\n      add\n      0x00\n        /* \"contracts/BaseContract.sol\":9056:9088  kurslar[_kursAdres].durum = true */\n      0x0100\n      exp\n      dup2\n      sload\n      dup2\n      0xff\n      mul\n      not\n      and\n      swap1\n      dup4\n      iszero\n      iszero\n      mul\n      or\n      swap1\n      sstore\n      pop\n        /* \"contracts/BaseContract.sol\":9126:9131  _isim */\n      dup2\n        /* \"contracts/BaseContract.sol\":9099:9106  kurslar */\n      0x07\n        /* \"contracts/BaseContract.sol\":9099:9118  kurslar[_kursAdres] */\n      0x00\n        /* \"contracts/BaseContract.sol\":9107:9117  _kursAdres */\n      dup6\n        /* \"contracts/BaseContract.sol\":9099:9118  kurslar[_kursAdres] */\n      0xffffffffffffffffffffffffffffffffffffffff\n      and\n      0xffffffffffffffffffffffffffffffffffffffff\n      and\n      dup2\n      mstore\n      0x20\n      add\n      swap1\n      dup2\n      mstore\n      0x20\n      add\n      0x00\n      keccak256\n        /* \"contracts/BaseContract.sol\":9099:9123  kurslar[_kursAdres].isim */\n      0x01\n      add\n        /* \"contracts/BaseContract.sol\":9099:9131  kurslar[_kursAdres].isim = _isim */\n      swap1\n      dup1\n      mload\n      swap1\n      0x20\n      add\n      swap1\n      tag_265\n      swap3\n      swap2\n      swap1\n      tag_215\n      jump\t// in\n    tag_265:\n      pop\n        /* \"contracts/BaseContract.sol\":9169:9174  _ulke */\n      dup1\n        /* \"contracts/BaseContract.sol\":9142:9149  kurslar */\n      0x07\n        /* \"contracts/BaseContract.sol\":9142:9161  kurslar[_kursAdres] */\n      0x00\n        /* \"contracts/BaseContract.sol\":9150:9160  _kursAdres */\n      dup6\n        /* \"contracts/BaseContract.sol\":9142:9161  kurslar[_kursAdres] */\n      0xffffffffffffffffffffffffffffffffffffffff\n      and\n      0xffffffffffffffffffffffffffffffffffffffff\n      and\n      dup2\n      mstore\n      0x20\n      add\n      swap1\n      dup2\n      mstore\n      0x20\n      add\n      0x00\n      keccak256\n        /* \"contracts/BaseContract.sol\":9142:9166  kurslar[_kursAdres].ulke */\n      0x02\n      add\n      0x00\n        /* \"contracts/BaseContract.sol\":9142:9174  kurslar[_kursAdres].ulke = _ulke */\n      0x0100\n      exp\n      dup2\n      sload\n      dup2\n      0xff\n      mul\n      not\n      and\n      swap1\n      dup4\n      0xff\n      and\n      mul\n      or\n      swap1\n      sstore\n      pop\n        /* \"contracts/BaseContract.sol\":8868:9186  function ekleKurs(address _kursAdres, string memory _isim, uint8 _ulke)\r... */\n      pop\n      pop\n      pop\n      jump\t// out\n        /* \"contracts/BaseContract.sol\":8639:8860  function silKamuKurumu(address _kamuKurumuAdres)\r... */\n    tag_106:\n        /* \"contracts/BaseContract.sol\":8719:8749  isKamuKurumu(_kamuKurumuAdres) */\n      tag_267\n        /* \"contracts/BaseContract.sol\":8732:8748  _kamuKurumuAdres */\n      dup2\n        /* \"contracts/BaseContract.sol\":8719:8731  isKamuKurumu */\n      tag_109\n        /* \"contracts/BaseContract.sol\":8719:8749  isKamuKurumu(_kamuKurumuAdres) */\n      jump\t// in\n    tag_267:\n        /* \"contracts/BaseContract.sol\":8711:8801  require(isKamuKurumu(_kamuKurumuAdres),\r... */\n      tag_268\n      jumpi\n      mload(0x40)\n      0x08c379a000000000000000000000000000000000000000000000000000000000\n      dup2\n      mstore\n      0x04\n      add\n      tag_269\n      swap1\n      tag_222\n      jump\t// in\n    tag_269:\n      mload(0x40)\n      dup1\n      swap2\n      sub\n      swap1\n      revert\n    tag_268:\n        /* \"contracts/BaseContract.sol\":8821:8834  kamuKurumlari */\n      0x08\n        /* \"contracts/BaseContract.sol\":8821:8852  kamuKurumlari[_kamuKurumuAdres] */\n      0x00\n        /* \"contracts/BaseContract.sol\":8835:8851  _kamuKurumuAdres */\n      dup3\n        /* \"contracts/BaseContract.sol\":8821:8852  kamuKurumlari[_kamuKurumuAdres] */\n      0xffffffffffffffffffffffffffffffffffffffff\n      and\n      0xffffffffffffffffffffffffffffffffffffffff\n      and\n      dup2\n      mstore\n      0x20\n      add\n      swap1\n      dup2\n      mstore\n      0x20\n      add\n      0x00\n      keccak256\n      0x00\n        /* \"contracts/BaseContract.sol\":8814:8852  delete kamuKurumlari[_kamuKurumuAdres] */\n      dup1\n      dup3\n      add\n      exp(0x0100, 0x00)\n      dup2\n      sload\n      swap1\n      0xff\n      mul\n      not\n      and\n      swap1\n      sstore\n      0x01\n      dup3\n      add\n      0x00\n      tag_270\n      swap2\n      swap1\n      tag_242\n      jump\t// in\n    tag_270:\n      0x02\n      dup3\n      add\n      exp(0x0100, 0x00)\n      dup2\n      sload\n      swap1\n      0xff\n      mul\n      not\n      and\n      swap1\n      sstore\n      pop\n      pop\n        /* \"contracts/BaseContract.sol\":8639:8860  function silKamuKurumu(address _kamuKurumuAdres)\r... */\n      pop\n      jump\t// out\n        /* \"contracts/BaseContract.sol\":4192:4313  function isKamuKurumu(address _address) public view returns (bool){\r... */\n    tag_109:\n        /* \"contracts/BaseContract.sol\":4253:4257  bool */\n      0x00\n        /* \"contracts/BaseContract.sol\":4276:4289  kamuKurumlari */\n      0x08\n        /* \"contracts/BaseContract.sol\":4276:4299  kamuKurumlari[_address] */\n      0x00\n        /* \"contracts/BaseContract.sol\":4290:4298  _address */\n      dup4\n        /* \"contracts/BaseContract.sol\":4276:4299  kamuKurumlari[_address] */\n      0xffffffffffffffffffffffffffffffffffffffff\n      and\n      0xffffffffffffffffffffffffffffffffffffffff\n      and\n      dup2\n      mstore\n      0x20\n      add\n      swap1\n      dup2\n      mstore\n      0x20\n      add\n      0x00\n      keccak256\n        /* \"contracts/BaseContract.sol\":4276:4305  kamuKurumlari[_address].durum */\n      0x00\n      add\n      0x00\n      swap1\n      sload\n      swap1\n      0x0100\n      exp\n      swap1\n      div\n      0xff\n      and\n        /* \"contracts/BaseContract.sol\":4269:4305  return kamuKurumlari[_address].durum */\n      swap1\n      pop\n        /* \"contracts/BaseContract.sol\":4192:4313  function isKamuKurumu(address _address) public view returns (bool){\r... */\n      swap2\n      swap1\n      pop\n      jump\t// out\n        /* \"contracts/BaseContract.sol\":11332:11553  function silSertifikaMerkezi(address _smAdres)\r... */\n    tag_113:\n        /* \"contracts/BaseContract.sol\":11410:11438  isSertifikaMerkezi(_smAdres) */\n      tag_273\n        /* \"contracts/BaseContract.sol\":11429:11437  _smAdres */\n      dup2\n        /* \"contracts/BaseContract.sol\":11410:11428  isSertifikaMerkezi */\n      tag_189\n        /* \"contracts/BaseContract.sol\":11410:11438  isSertifikaMerkezi(_smAdres) */\n      jump\t// in\n    tag_273:\n        /* \"contracts/BaseContract.sol\":11402:11496  require(isSertifikaMerkezi(_smAdres),\r... */\n      tag_274\n      jumpi\n      mload(0x40)\n      0x08c379a000000000000000000000000000000000000000000000000000000000\n      dup2\n      mstore\n      0x04\n      add\n      tag_275\n      swap1\n      tag_276\n      jump\t// in\n    tag_275:\n      mload(0x40)\n      dup1\n      swap2\n      sub\n      swap1\n      revert\n    tag_274:\n        /* \"contracts/BaseContract.sol\":11514:11533  sertifikaMerkezleri */\n      0x0a\n        /* \"contracts/BaseContract.sol\":11514:11543  sertifikaMerkezleri[_smAdres] */\n      0x00\n        /* \"contracts/BaseContract.sol\":11534:11542  _smAdres */\n      dup3\n        /* \"contracts/BaseContract.sol\":11514:11543  sertifikaMerkezleri[_smAdres] */\n      0xffffffffffffffffffffffffffffffffffffffff\n      and\n      0xffffffffffffffffffffffffffffffffffffffff\n      and\n      dup2\n      mstore\n      0x20\n      add\n      swap1\n      dup2\n      mstore\n      0x20\n      add\n      0x00\n      keccak256\n      0x00\n        /* \"contracts/BaseContract.sol\":11507:11543  delete sertifikaMerkezleri[_smAdres] */\n      dup1\n      dup3\n      add\n      exp(0x0100, 0x00)\n      dup2\n      sload\n      swap1\n      0xff\n      mul\n      not\n      and\n      swap1\n      sstore\n      0x01\n      dup3\n      add\n      0x00\n      tag_277\n      swap2\n      swap1\n      tag_242\n      jump\t// in\n    tag_277:\n      0x02\n      dup3\n      add\n      exp(0x0100, 0x00)\n      dup2\n      sload\n      swap1\n      0xff\n      mul\n      not\n      and\n      swap1\n      sstore\n      pop\n      pop\n        /* \"contracts/BaseContract.sol\":11332:11553  function silSertifikaMerkezi(address _smAdres)\r... */\n      pop\n      jump\t// out\n        /* \"contracts/BaseContract.sol\":101:119  address public YOK */\n    tag_115:\n      0x00\n      dup1\n      sload\n      swap1\n      0x0100\n      exp\n      swap1\n      div\n      0xffffffffffffffffffffffffffffffffffffffff\n      and\n      dup2\n      jump\t// out\n        /* \"contracts/BaseContract.sol\":5073:5124  mapping(address => KamuKurumu) public kamuKurumlari */\n    tag_120:\n      mstore(0x20, 0x08)\n      dup1\n      0x00\n      mstore\n      keccak256(0x00, 0x40)\n      0x00\n      swap2\n      pop\n      swap1\n      pop\n      dup1\n      0x00\n      add\n      0x00\n      swap1\n      sload\n      swap1\n      0x0100\n      exp\n      swap1\n      div\n      0xff\n      and\n      swap1\n      dup1\n      0x01\n      add\n      dup1\n      sload\n      tag_278\n      swap1\n      tag_231\n      jump\t// in\n    tag_278:\n      dup1\n      0x1f\n      add\n      0x20\n      dup1\n      swap2\n      div\n      mul\n      0x20\n      add\n      mload(0x40)\n      swap1\n      dup2\n      add\n      0x40\n      mstore\n      dup1\n      swap3\n      swap2\n      swap1\n      dup2\n      dup2\n      mstore\n      0x20\n      add\n      dup3\n      dup1\n      sload\n      tag_279\n      swap1\n      tag_231\n      jump\t// in\n    tag_279:\n      dup1\n      iszero\n      tag_280\n      jumpi\n      dup1\n      0x1f\n      lt\n      tag_281\n      jumpi\n      0x0100\n      dup1\n      dup4\n      sload\n      div\n      mul\n      dup4\n      mstore\n      swap2\n      0x20\n      add\n      swap2\n      jump(tag_280)\n    tag_281:\n      dup3\n      add\n      swap2\n      swap1\n      0x00\n      mstore\n      keccak256(0x00, 0x20)\n      swap1\n    tag_282:\n      dup2\n      sload\n      dup2\n      mstore\n      swap1\n      0x01\n      add\n      swap1\n      0x20\n      add\n      dup1\n      dup4\n      gt\n      tag_282\n      jumpi\n      dup3\n      swap1\n      sub\n      0x1f\n      and\n      dup3\n      add\n      swap2\n    tag_280:\n      pop\n      pop\n      pop\n      pop\n      pop\n      swap1\n      dup1\n      0x02\n      add\n      0x00\n      swap1\n      sload\n      swap1\n      0x0100\n      exp\n      swap1\n      div\n      0xff\n      and\n      swap1\n      pop\n      dup4\n      jump\t// out\n        /* \"contracts/BaseContract.sol\":4557:4664  function isSTK(address _address) public view returns (bool){\r... */\n    tag_124:\n        /* \"contracts/BaseContract.sol\":4611:4615  bool */\n      0x00\n        /* \"contracts/BaseContract.sol\":4634:4640  stklar */\n      0x09\n        /* \"contracts/BaseContract.sol\":4634:4650  stklar[_address] */\n      0x00\n        /* \"contracts/BaseContract.sol\":4641:4649  _address */\n      dup4\n        /* \"contracts/BaseContract.sol\":4634:4650  stklar[_address] */\n      0xffffffffffffffffffffffffffffffffffffffff\n      and\n      0xffffffffffffffffffffffffffffffffffffffff\n      and\n      dup2\n      mstore\n      0x20\n      add\n      swap1\n      dup2\n      mstore\n      0x20\n      add\n      0x00\n      keccak256\n        /* \"contracts/BaseContract.sol\":4634:4656  stklar[_address].durum */\n      0x00\n      add\n      0x00\n      swap1\n      sload\n      swap1\n      0x0100\n      exp\n      swap1\n      div\n      0xff\n      and\n        /* \"contracts/BaseContract.sol\":4627:4656  return stklar[_address].durum */\n      swap1\n      pop\n        /* \"contracts/BaseContract.sol\":4557:4664  function isSTK(address _address) public view returns (bool){\r... */\n      swap2\n      swap1\n      pop\n      jump\t// out\n        /* \"contracts/BaseContract.sol\":10046:10364  function guncelleSTK(address _stkAdres, string memory _isim, uint8 _ulke)\r... */\n    tag_128:\n        /* \"contracts/BaseContract.sol\":10151:10167  isSTK(_stkAdres) */\n      tag_285\n        /* \"contracts/BaseContract.sol\":10157:10166  _stkAdres */\n      dup4\n        /* \"contracts/BaseContract.sol\":10151:10156  isSTK */\n      tag_124\n        /* \"contracts/BaseContract.sol\":10151:10167  isSTK(_stkAdres) */\n      jump\t// in\n    tag_285:\n        /* \"contracts/BaseContract.sol\":10143:10229  require(isSTK(_stkAdres),\r... */\n      tag_286\n      jumpi\n      mload(0x40)\n      0x08c379a000000000000000000000000000000000000000000000000000000000\n      dup2\n      mstore\n      0x04\n      add\n      tag_287\n      swap1\n      tag_288\n      jump\t// in\n    tag_287:\n      mload(0x40)\n      dup1\n      swap2\n      sub\n      swap1\n      revert\n    tag_286:\n        /* \"contracts/BaseContract.sol\":10268:10272  true */\n      0x01\n        /* \"contracts/BaseContract.sol\":10242:10248  stklar */\n      0x09\n        /* \"contracts/BaseContract.sol\":10242:10259  stklar[_stkAdres] */\n      0x00\n        /* \"contracts/BaseContract.sol\":10249:10258  _stkAdres */\n      dup6\n        /* \"contracts/BaseContract.sol\":10242:10259  stklar[_stkAdres] */\n      0xffffffffffffffffffffffffffffffffffffffff\n      and\n      0xffffffffffffffffffffffffffffffffffffffff\n      and\n      dup2\n      mstore\n      0x20\n      add\n      swap1\n      dup2\n      mstore\n      0x20\n      add\n      0x00\n      keccak256\n        /* \"contracts/BaseContract.sol\":10242:10265  stklar[_stkAdres].durum */\n      0x00\n      add\n      0x00\n        /* \"contracts/BaseContract.sol\":10242:10272  stklar[_stkAdres].durum = true */\n      0x0100\n      exp\n      dup2\n      sload\n      dup2\n      0xff\n      mul\n      not\n      and\n      swap1\n      dup4\n      iszero\n      iszero\n      mul\n      or\n      swap1\n      sstore\n      pop\n        /* \"contracts/BaseContract.sol\":10308:10313  _isim */\n      dup2\n        /* \"contracts/BaseContract.sol\":10283:10289  stklar */\n      0x09\n        /* \"contracts/BaseContract.sol\":10283:10300  stklar[_stkAdres] */\n      0x00\n        /* \"contracts/BaseContract.sol\":10290:10299  _stkAdres */\n      dup6\n        /* \"contracts/BaseContract.sol\":10283:10300  stklar[_stkAdres] */\n      0xffffffffffffffffffffffffffffffffffffffff\n      and\n      0xffffffffffffffffffffffffffffffffffffffff\n      and\n      dup2\n      mstore\n      0x20\n      add\n      swap1\n      dup2\n      mstore\n      0x20\n      add\n      0x00\n      keccak256\n        /* \"contracts/BaseContract.sol\":10283:10305  stklar[_stkAdres].isim */\n      0x01\n      add\n        /* \"contracts/BaseContract.sol\":10283:10313  stklar[_stkAdres].isim = _isim */\n      swap1\n      dup1\n      mload\n      swap1\n      0x20\n      add\n      swap1\n      tag_289\n      swap3\n      swap2\n      swap1\n      tag_215\n      jump\t// in\n    tag_289:\n      pop\n        /* \"contracts/BaseContract.sol\":10349:10354  _ulke */\n      dup1\n        /* \"contracts/BaseContract.sol\":10324:10330  stklar */\n      0x09\n        /* \"contracts/BaseContract.sol\":10324:10341  stklar[_stkAdres] */\n      0x00\n        /* \"contracts/BaseContract.sol\":10331:10340  _stkAdres */\n      dup6\n        /* \"contracts/BaseContract.sol\":10324:10341  stklar[_stkAdres] */\n      0xffffffffffffffffffffffffffffffffffffffff\n      and\n      0xffffffffffffffffffffffffffffffffffffffff\n      and\n      dup2\n      mstore\n      0x20\n      add\n      swap1\n      dup2\n      mstore\n      0x20\n      add\n      0x00\n      keccak256\n        /* \"contracts/BaseContract.sol\":10324:10346  stklar[_stkAdres].ulke */\n      0x02\n      add\n      0x00\n        /* \"contracts/BaseContract.sol\":10324:10354  stklar[_stkAdres].ulke = _ulke */\n      0x0100\n      exp\n      dup2\n      sload\n      dup2\n      0xff\n      mul\n      not\n      and\n      swap1\n      dup4\n      0xff\n      and\n      mul\n      or\n      swap1\n      sstore\n      pop\n        /* \"contracts/BaseContract.sol\":10046:10364  function guncelleSTK(address _stkAdres, string memory _isim, uint8 _ulke)\r... */\n      pop\n      pop\n      pop\n      jump\t// out\n        /* \"contracts/BaseContract.sol\":5131:5168  mapping(address => STK) public stklar */\n    tag_131:\n      mstore(0x20, 0x09)\n      dup1\n      0x00\n      mstore\n      keccak256(0x00, 0x40)\n      0x00\n      swap2\n      pop\n      swap1\n      pop\n      dup1\n      0x00\n      add\n      0x00\n      swap1\n      sload\n      swap1\n      0x0100\n      exp\n      swap1\n      div\n      0xff\n      and\n      swap1\n      dup1\n      0x01\n      add\n      dup1\n      sload\n      tag_290\n      swap1\n      tag_231\n      jump\t// in\n    tag_290:\n      dup1\n      0x1f\n      add\n      0x20\n      dup1\n      swap2\n      div\n      mul\n      0x20\n      add\n      mload(0x40)\n      swap1\n      dup2\n      add\n      0x40\n      mstore\n      dup1\n      swap3\n      swap2\n      swap1\n      dup2\n      dup2\n      mstore\n      0x20\n      add\n      dup3\n      dup1\n      sload\n      tag_291\n      swap1\n      tag_231\n      jump\t// in\n    tag_291:\n      dup1\n      iszero\n      tag_292\n      jumpi\n      dup1\n      0x1f\n      lt\n      tag_293\n      jumpi\n      0x0100\n      dup1\n      dup4\n      sload\n      div\n      mul\n      dup4\n      mstore\n      swap2\n      0x20\n      add\n      swap2\n      jump(tag_292)\n    tag_293:\n      dup3\n      add\n      swap2\n      swap1\n      0x00\n      mstore\n      keccak256(0x00, 0x20)\n      swap1\n    tag_294:\n      dup2\n      sload\n      dup2\n      mstore\n      swap1\n      0x01\n      add\n      swap1\n      0x20\n      add\n      dup1\n      dup4\n      gt\n      tag_294\n      jumpi\n      dup3\n      swap1\n      sub\n      0x1f\n      and\n      dup3\n      add\n      swap2\n    tag_292:\n      pop\n      pop\n      pop\n      pop\n      pop\n      swap1\n      dup1\n      0x02\n      add\n      0x00\n      swap1\n      sload\n      swap1\n      0x0100\n      exp\n      swap1\n      div\n      0xff\n      and\n      swap1\n      pop\n      dup4\n      jump\t// out\n        /* \"contracts/BaseContract.sol\":6062:6281  function silUniversite(address _universiteAdres) public {\r... */\n    tag_135:\n        /* \"contracts/BaseContract.sol\":6137:6167  isUniversite(_universiteAdres) */\n      tag_296\n        /* \"contracts/BaseContract.sol\":6150:6166  _universiteAdres */\n      dup2\n        /* \"contracts/BaseContract.sol\":6137:6149  isUniversite */\n      tag_197\n        /* \"contracts/BaseContract.sol\":6137:6167  isUniversite(_universiteAdres) */\n      jump\t// in\n    tag_296:\n        /* \"contracts/BaseContract.sol\":6129:6218  require(isUniversite(_universiteAdres),\r... */\n      tag_297\n      jumpi\n      mload(0x40)\n      0x08c379a000000000000000000000000000000000000000000000000000000000\n      dup2\n      mstore\n      0x04\n      add\n      tag_298\n      swap1\n      tag_213\n      jump\t// in\n    tag_298:\n      mload(0x40)\n      dup1\n      swap2\n      sub\n      swap1\n      revert\n    tag_297:\n        /* \"contracts/BaseContract.sol\":6238:6251  universiteler */\n      0x04\n        /* \"contracts/BaseContract.sol\":6238:6269  universiteler[_universiteAdres] */\n      0x00\n        /* \"contracts/BaseContract.sol\":6252:6268  _universiteAdres */\n      dup3\n        /* \"contracts/BaseContract.sol\":6238:6269  universiteler[_universiteAdres] */\n      0xffffffffffffffffffffffffffffffffffffffff\n      and\n      0xffffffffffffffffffffffffffffffffffffffff\n      and\n      dup2\n      mstore\n      0x20\n      add\n      swap1\n      dup2\n      mstore\n      0x20\n      add\n      0x00\n      keccak256\n      0x00\n        /* \"contracts/BaseContract.sol\":6231:6269  delete universiteler[_universiteAdres] */\n      dup1\n      dup3\n      add\n      exp(0x0100, 0x00)\n      dup2\n      sload\n      swap1\n      0xff\n      mul\n      not\n      and\n      swap1\n      sstore\n      0x01\n      dup3\n      add\n      0x00\n      tag_299\n      swap2\n      swap1\n      tag_242\n      jump\t// in\n    tag_299:\n      0x02\n      dup3\n      add\n      exp(0x0100, 0x00)\n      dup2\n      sload\n      swap1\n      0xff\n      mul\n      not\n      and\n      swap1\n      sstore\n      pop\n      pop\n        /* \"contracts/BaseContract.sol\":6062:6281  function silUniversite(address _universiteAdres) public {\r... */\n      pop\n      jump\t// out\n        /* \"contracts/BaseContract.sol\":10569:10942  function ekleSertifikaMerkezi(address _smAdres, string memory _isim, uint8 _ulke)\r... */\n    tag_138:\n        /* \"contracts/BaseContract.sol\":10683:10711  isSertifikaMerkezi(_smAdres) */\n      tag_301\n        /* \"contracts/BaseContract.sol\":10702:10710  _smAdres */\n      dup4\n        /* \"contracts/BaseContract.sol\":10683:10701  isSertifikaMerkezi */\n      tag_189\n        /* \"contracts/BaseContract.sol\":10683:10711  isSertifikaMerkezi(_smAdres) */\n      jump\t// in\n    tag_301:\n        /* \"contracts/BaseContract.sol\":10682:10711  !isSertifikaMerkezi(_smAdres) */\n      iszero\n        /* \"contracts/BaseContract.sol\":10674:10769  require(!isSertifikaMerkezi(_smAdres),\r... */\n      tag_302\n      jumpi\n      mload(0x40)\n      0x08c379a000000000000000000000000000000000000000000000000000000000\n      dup2\n      mstore\n      0x04\n      add\n      tag_303\n      swap1\n      tag_304\n      jump\t// in\n    tag_303:\n      mload(0x40)\n      dup1\n      swap2\n      sub\n      swap1\n      revert\n    tag_302:\n        /* \"contracts/BaseContract.sol\":10822:10826  true */\n      0x01\n        /* \"contracts/BaseContract.sol\":10784:10803  sertifikaMerkezleri */\n      0x0a\n        /* \"contracts/BaseContract.sol\":10784:10813  sertifikaMerkezleri[_smAdres] */\n      0x00\n        /* \"contracts/BaseContract.sol\":10804:10812  _smAdres */\n      dup6\n        /* \"contracts/BaseContract.sol\":10784:10813  sertifikaMerkezleri[_smAdres] */\n      0xffffffffffffffffffffffffffffffffffffffff\n      and\n      0xffffffffffffffffffffffffffffffffffffffff\n      and\n      dup2\n      mstore\n      0x20\n      add\n      swap1\n      dup2\n      mstore\n      0x20\n      add\n      0x00\n      keccak256\n        /* \"contracts/BaseContract.sol\":10784:10819  sertifikaMerkezleri[_smAdres].durum */\n      0x00\n      add\n      0x00\n        /* \"contracts/BaseContract.sol\":10784:10826  sertifikaMerkezleri[_smAdres].durum = true */\n      0x0100\n      exp\n      dup2\n      sload\n      dup2\n      0xff\n      mul\n      not\n      and\n      swap1\n      dup4\n      iszero\n      iszero\n      mul\n      or\n      swap1\n      sstore\n      pop\n        /* \"contracts/BaseContract.sol\":10874:10879  _isim */\n      dup2\n        /* \"contracts/BaseContract.sol\":10837:10856  sertifikaMerkezleri */\n      0x0a\n        /* \"contracts/BaseContract.sol\":10837:10866  sertifikaMerkezleri[_smAdres] */\n      0x00\n        /* \"contracts/BaseContract.sol\":10857:10865  _smAdres */\n      dup6\n        /* \"contracts/BaseContract.sol\":10837:10866  sertifikaMerkezleri[_smAdres] */\n      0xffffffffffffffffffffffffffffffffffffffff\n      and\n      0xffffffffffffffffffffffffffffffffffffffff\n      and\n      dup2\n      mstore\n      0x20\n      add\n      swap1\n      dup2\n      mstore\n      0x20\n      add\n      0x00\n      keccak256\n        /* \"contracts/BaseContract.sol\":10837:10871  sertifikaMerkezleri[_smAdres].isim */\n      0x01\n      add\n        /* \"contracts/BaseContract.sol\":10837:10879  sertifikaMerkezleri[_smAdres].isim = _isim */\n      swap1\n      dup1\n      mload\n      swap1\n      0x20\n      add\n      swap1\n      tag_305\n      swap3\n      swap2\n      swap1\n      tag_215\n      jump\t// in\n    tag_305:\n      pop\n        /* \"contracts/BaseContract.sol\":10927:10932  _ulke */\n      dup1\n        /* \"contracts/BaseContract.sol\":10890:10909  sertifikaMerkezleri */\n      0x0a\n        /* \"contracts/BaseContract.sol\":10890:10919  sertifikaMerkezleri[_smAdres] */\n      0x00\n        /* \"contracts/BaseContract.sol\":10910:10918  _smAdres */\n      dup6\n        /* \"contracts/BaseContract.sol\":10890:10919  sertifikaMerkezleri[_smAdres] */\n      0xffffffffffffffffffffffffffffffffffffffff\n      and\n      0xffffffffffffffffffffffffffffffffffffffff\n      and\n      dup2\n      mstore\n      0x20\n      add\n      swap1\n      dup2\n      mstore\n      0x20\n      add\n      0x00\n      keccak256\n        /* \"contracts/BaseContract.sol\":10890:10924  sertifikaMerkezleri[_smAdres].ulke */\n      0x02\n      add\n      0x00\n        /* \"contracts/BaseContract.sol\":10890:10932  sertifikaMerkezleri[_smAdres].ulke = _ulke */\n      0x0100\n      exp\n      dup2\n      sload\n      dup2\n      0xff\n      mul\n      not\n      and\n      swap1\n      dup4\n      0xff\n      and\n      mul\n      or\n      swap1\n      sstore\n      pop\n        /* \"contracts/BaseContract.sol\":10569:10942  function ekleSertifikaMerkezi(address _smAdres, string memory _isim, uint8 _ulke)\r... */\n      pop\n      pop\n      pop\n      jump\t// out\n        /* \"contracts/BaseContract.sol\":5247:5290  mapping(uint32 => YabanciDil) public diller */\n    tag_142:\n      mstore(0x20, 0x0b)\n      dup1\n      0x00\n      mstore\n      keccak256(0x00, 0x40)\n      0x00\n      swap2\n      pop\n      swap1\n      pop\n      dup1\n      0x00\n      add\n      0x00\n      swap1\n      sload\n      swap1\n      0x0100\n      exp\n      swap1\n      div\n      0xffffffff\n      and\n      swap1\n      dup1\n      0x01\n      add\n      dup1\n      sload\n      tag_306\n      swap1\n      tag_231\n      jump\t// in\n    tag_306:\n      dup1\n      0x1f\n      add\n      0x20\n      dup1\n      swap2\n      div\n      mul\n      0x20\n      add\n      mload(0x40)\n      swap1\n      dup2\n      add\n      0x40\n      mstore\n      dup1\n      swap3\n      swap2\n      swap1\n      dup2\n      dup2\n      mstore\n      0x20\n      add\n      dup3\n      dup1\n      sload\n      tag_307\n      swap1\n      tag_231\n      jump\t// in\n    tag_307:\n      dup1\n      iszero\n      tag_308\n      jumpi\n      dup1\n      0x1f\n      lt\n      tag_309\n      jumpi\n      0x0100\n      dup1\n      dup4\n      sload\n      div\n      mul\n      dup4\n      mstore\n      swap2\n      0x20\n      add\n      swap2\n      jump(tag_308)\n    tag_309:\n      dup3\n      add\n      swap2\n      swap1\n      0x00\n      mstore\n      keccak256(0x00, 0x20)\n      swap1\n    tag_310:\n      dup2\n      sload\n      dup2\n      mstore\n      swap1\n      0x01\n      add\n      swap1\n      0x20\n      add\n      dup1\n      dup4\n      gt\n      tag_310\n      jumpi\n      dup3\n      swap1\n      sub\n      0x1f\n      and\n      dup3\n      add\n      swap2\n    tag_308:\n      pop\n      pop\n      pop\n      pop\n      pop\n      swap1\n      pop\n      dup3\n      jump\t// out\n        /* \"contracts/BaseContract.sol\":7275:7665  function guncelleFirma(address _firmaAdres, string memory _isim, uint _vergiNo, uint8 _ulke)\r... */\n    tag_148:\n        /* \"contracts/BaseContract.sol\":7399:7419  isFirma(_firmaAdres) */\n      tag_312\n        /* \"contracts/BaseContract.sol\":7407:7418  _firmaAdres */\n      dup5\n        /* \"contracts/BaseContract.sol\":7399:7406  isFirma */\n      tag_86\n        /* \"contracts/BaseContract.sol\":7399:7419  isFirma(_firmaAdres) */\n      jump\t// in\n    tag_312:\n        /* \"contracts/BaseContract.sol\":7391:7465  require(isFirma(_firmaAdres),\r... */\n      tag_313\n      jumpi\n      mload(0x40)\n      0x08c379a000000000000000000000000000000000000000000000000000000000\n      dup2\n      mstore\n      0x04\n      add\n      tag_314\n      swap1\n      tag_240\n      jump\t// in\n    tag_314:\n      mload(0x40)\n      dup1\n      swap2\n      sub\n      swap1\n      revert\n    tag_313:\n        /* \"contracts/BaseContract.sol\":7508:7512  true */\n      0x01\n        /* \"contracts/BaseContract.sol\":7478:7486  firmalar */\n      0x06\n        /* \"contracts/BaseContract.sol\":7478:7499  firmalar[_firmaAdres] */\n      0x00\n        /* \"contracts/BaseContract.sol\":7487:7498  _firmaAdres */\n      dup7\n        /* \"contracts/BaseContract.sol\":7478:7499  firmalar[_firmaAdres] */\n      0xffffffffffffffffffffffffffffffffffffffff\n      and\n      0xffffffffffffffffffffffffffffffffffffffff\n      and\n      dup2\n      mstore\n      0x20\n      add\n      swap1\n      dup2\n      mstore\n      0x20\n      add\n      0x00\n      keccak256\n        /* \"contracts/BaseContract.sol\":7478:7505  firmalar[_firmaAdres].durum */\n      0x00\n      add\n      0x00\n        /* \"contracts/BaseContract.sol\":7478:7512  firmalar[_firmaAdres].durum = true */\n      0x0100\n      exp\n      dup2\n      sload\n      dup2\n      0xff\n      mul\n      not\n      and\n      swap1\n      dup4\n      iszero\n      iszero\n      mul\n      or\n      swap1\n      sstore\n      pop\n        /* \"contracts/BaseContract.sol\":7552:7557  _isim */\n      dup3\n        /* \"contracts/BaseContract.sol\":7523:7531  firmalar */\n      0x06\n        /* \"contracts/BaseContract.sol\":7523:7544  firmalar[_firmaAdres] */\n      0x00\n        /* \"contracts/BaseContract.sol\":7532:7543  _firmaAdres */\n      dup7\n        /* \"contracts/BaseContract.sol\":7523:7544  firmalar[_firmaAdres] */\n      0xffffffffffffffffffffffffffffffffffffffff\n      and\n      0xffffffffffffffffffffffffffffffffffffffff\n      and\n      dup2\n      mstore\n      0x20\n      add\n      swap1\n      dup2\n      mstore\n      0x20\n      add\n      0x00\n      keccak256\n        /* \"contracts/BaseContract.sol\":7523:7549  firmalar[_firmaAdres].isim */\n      0x02\n      add\n        /* \"contracts/BaseContract.sol\":7523:7557  firmalar[_firmaAdres].isim = _isim */\n      swap1\n      dup1\n      mload\n      swap1\n      0x20\n      add\n      swap1\n      tag_315\n      swap3\n      swap2\n      swap1\n      tag_215\n      jump\t// in\n    tag_315:\n      pop\n        /* \"contracts/BaseContract.sol\":7597:7602  _ulke */\n      dup1\n        /* \"contracts/BaseContract.sol\":7568:7576  firmalar */\n      0x06\n        /* \"contracts/BaseContract.sol\":7568:7589  firmalar[_firmaAdres] */\n      0x00\n        /* \"contracts/BaseContract.sol\":7577:7588  _firmaAdres */\n      dup7\n        /* \"contracts/BaseContract.sol\":7568:7589  firmalar[_firmaAdres] */\n      0xffffffffffffffffffffffffffffffffffffffff\n      and\n      0xffffffffffffffffffffffffffffffffffffffff\n      and\n      dup2\n      mstore\n      0x20\n      add\n      swap1\n      dup2\n      mstore\n      0x20\n      add\n      0x00\n      keccak256\n        /* \"contracts/BaseContract.sol\":7568:7594  firmalar[_firmaAdres].ulke */\n      0x00\n      add\n      0x01\n        /* \"contracts/BaseContract.sol\":7568:7602  firmalar[_firmaAdres].ulke = _ulke */\n      0x0100\n      exp\n      dup2\n      sload\n      dup2\n      0xff\n      mul\n      not\n      and\n      swap1\n      dup4\n      0xff\n      and\n      mul\n      or\n      swap1\n      sstore\n      pop\n        /* \"contracts/BaseContract.sol\":7645:7653  _vergiNo */\n      dup2\n        /* \"contracts/BaseContract.sol\":7613:7621  firmalar */\n      0x06\n        /* \"contracts/BaseContract.sol\":7613:7634  firmalar[_firmaAdres] */\n      0x00\n        /* \"contracts/BaseContract.sol\":7622:7633  _firmaAdres */\n      dup7\n        /* \"contracts/BaseContract.sol\":7613:7634  firmalar[_firmaAdres] */\n      0xffffffffffffffffffffffffffffffffffffffff\n      and\n      0xffffffffffffffffffffffffffffffffffffffff\n      and\n      dup2\n      mstore\n      0x20\n      add\n      swap1\n      dup2\n      mstore\n      0x20\n      add\n      0x00\n      keccak256\n        /* \"contracts/BaseContract.sol\":7613:7642  firmalar[_firmaAdres].vergiNo */\n      0x01\n      add\n        /* \"contracts/BaseContract.sol\":7613:7653  firmalar[_firmaAdres].vergiNo = _vergiNo */\n      dup2\n      swap1\n      sstore\n      pop\n        /* \"contracts/BaseContract.sol\":7275:7665  function guncelleFirma(address _firmaAdres, string memory _isim, uint _vergiNo, uint8 _ulke)\r... */\n      pop\n      pop\n      pop\n      pop\n      jump\t// out\n        /* \"contracts/BaseContract.sol\":9523:9713  function silKurs(address _kursAdres)\r... */\n    tag_151:\n        /* \"contracts/BaseContract.sol\":9591:9609  isKurs(_kursAdres) */\n      tag_317\n        /* \"contracts/BaseContract.sol\":9598:9608  _kursAdres */\n      dup2\n        /* \"contracts/BaseContract.sol\":9591:9597  isKurs */\n      tag_59\n        /* \"contracts/BaseContract.sol\":9591:9609  isKurs(_kursAdres) */\n      jump\t// in\n    tag_317:\n        /* \"contracts/BaseContract.sol\":9583:9662  require(isKurs(_kursAdres),\r... */\n      tag_318\n      jumpi\n      mload(0x40)\n      0x08c379a000000000000000000000000000000000000000000000000000000000\n      dup2\n      mstore\n      0x04\n      add\n      tag_319\n      swap1\n      tag_320\n      jump\t// in\n    tag_319:\n      mload(0x40)\n      dup1\n      swap2\n      sub\n      swap1\n      revert\n    tag_318:\n        /* \"contracts/BaseContract.sol\":9682:9689  kurslar */\n      0x07\n        /* \"contracts/BaseContract.sol\":9682:9701  kurslar[_kursAdres] */\n      0x00\n        /* \"contracts/BaseContract.sol\":9690:9700  _kursAdres */\n      dup3\n        /* \"contracts/BaseContract.sol\":9682:9701  kurslar[_kursAdres] */\n      0xffffffffffffffffffffffffffffffffffffffff\n      and\n      0xffffffffffffffffffffffffffffffffffffffff\n      and\n      dup2\n      mstore\n      0x20\n      add\n      swap1\n      dup2\n      mstore\n      0x20\n      add\n      0x00\n      keccak256\n      0x00\n        /* \"contracts/BaseContract.sol\":9675:9701  delete kurslar[_kursAdres] */\n      dup1\n      dup3\n      add\n      exp(0x0100, 0x00)\n      dup2\n      sload\n      swap1\n      0xff\n      mul\n      not\n      and\n      swap1\n      sstore\n      0x01\n      dup3\n      add\n      0x00\n      tag_321\n      swap2\n      swap1\n      tag_242\n      jump\t// in\n    tag_321:\n      0x02\n      dup3\n      add\n      exp(0x0100, 0x00)\n      dup2\n      sload\n      swap1\n      0xff\n      mul\n      not\n      and\n      swap1\n      sstore\n      pop\n      pop\n        /* \"contracts/BaseContract.sol\":9523:9713  function silKurs(address _kursAdres)\r... */\n      pop\n      jump\t// out\n        /* \"contracts/BaseContract.sol\":10950:11324  function guncelleSertifikaMerkezi(address _smAdres, string memory _isim, uint8 _ulke)\r... */\n    tag_154:\n        /* \"contracts/BaseContract.sol\":11067:11095  isSertifikaMerkezi(_smAdres) */\n      tag_323\n        /* \"contracts/BaseContract.sol\":11086:11094  _smAdres */\n      dup4\n        /* \"contracts/BaseContract.sol\":11067:11085  isSertifikaMerkezi */\n      tag_189\n        /* \"contracts/BaseContract.sol\":11067:11095  isSertifikaMerkezi(_smAdres) */\n      jump\t// in\n    tag_323:\n        /* \"contracts/BaseContract.sol\":11059:11153  require(isSertifikaMerkezi(_smAdres),\r... */\n      tag_324\n      jumpi\n      mload(0x40)\n      0x08c379a000000000000000000000000000000000000000000000000000000000\n      dup2\n      mstore\n      0x04\n      add\n      tag_325\n      swap1\n      tag_276\n      jump\t// in\n    tag_325:\n      mload(0x40)\n      dup1\n      swap2\n      sub\n      swap1\n      revert\n    tag_324:\n        /* \"contracts/BaseContract.sol\":11204:11208  true */\n      0x01\n        /* \"contracts/BaseContract.sol\":11166:11185  sertifikaMerkezleri */\n      0x0a\n        /* \"contracts/BaseContract.sol\":11166:11195  sertifikaMerkezleri[_smAdres] */\n      0x00\n        /* \"contracts/BaseContract.sol\":11186:11194  _smAdres */\n      dup6\n        /* \"contracts/BaseContract.sol\":11166:11195  sertifikaMerkezleri[_smAdres] */\n      0xffffffffffffffffffffffffffffffffffffffff\n      and\n      0xffffffffffffffffffffffffffffffffffffffff\n      and\n      dup2\n      mstore\n      0x20\n      add\n      swap1\n      dup2\n      mstore\n      0x20\n      add\n      0x00\n      keccak256\n        /* \"contracts/BaseContract.sol\":11166:11201  sertifikaMerkezleri[_smAdres].durum */\n      0x00\n      add\n      0x00\n        /* \"contracts/BaseContract.sol\":11166:11208  sertifikaMerkezleri[_smAdres].durum = true */\n      0x0100\n      exp\n      dup2\n      sload\n      dup2\n      0xff\n      mul\n      not\n      and\n      swap1\n      dup4\n      iszero\n      iszero\n      mul\n      or\n      swap1\n      sstore\n      pop\n        /* \"contracts/BaseContract.sol\":11256:11261  _isim */\n      dup2\n        /* \"contracts/BaseContract.sol\":11219:11238  sertifikaMerkezleri */\n      0x0a\n        /* \"contracts/BaseContract.sol\":11219:11248  sertifikaMerkezleri[_smAdres] */\n      0x00\n        /* \"contracts/BaseContract.sol\":11239:11247  _smAdres */\n      dup6\n        /* \"contracts/BaseContract.sol\":11219:11248  sertifikaMerkezleri[_smAdres] */\n      0xffffffffffffffffffffffffffffffffffffffff\n      and\n      0xffffffffffffffffffffffffffffffffffffffff\n      and\n      dup2\n      mstore\n      0x20\n      add\n      swap1\n      dup2\n      mstore\n      0x20\n      add\n      0x00\n      keccak256\n        /* \"contracts/BaseContract.sol\":11219:11253  sertifikaMerkezleri[_smAdres].isim */\n      0x01\n      add\n        /* \"contracts/BaseContract.sol\":11219:11261  sertifikaMerkezleri[_smAdres].isim = _isim */\n      swap1\n      dup1\n      mload\n      swap1\n      0x20\n      add\n      swap1\n      tag_326\n      swap3\n      swap2\n      swap1\n      tag_215\n      jump\t// in\n    tag_326:\n      pop\n        /* \"contracts/BaseContract.sol\":11309:11314  _ulke */\n      dup1\n        /* \"contracts/BaseContract.sol\":11272:11291  sertifikaMerkezleri */\n      0x0a\n        /* \"contracts/BaseContract.sol\":11272:11301  sertifikaMerkezleri[_smAdres] */\n      0x00\n        /* \"contracts/BaseContract.sol\":11292:11300  _smAdres */\n      dup6\n        /* \"contracts/BaseContract.sol\":11272:11301  sertifikaMerkezleri[_smAdres] */\n      0xffffffffffffffffffffffffffffffffffffffff\n      and\n      0xffffffffffffffffffffffffffffffffffffffff\n      and\n      dup2\n      mstore\n      0x20\n      add\n      swap1\n      dup2\n      mstore\n      0x20\n      add\n      0x00\n      keccak256\n        /* \"contracts/BaseContract.sol\":11272:11306  sertifikaMerkezleri[_smAdres].ulke */\n      0x02\n      add\n      0x00\n        /* \"contracts/BaseContract.sol\":11272:11314  sertifikaMerkezleri[_smAdres].ulke = _ulke */\n      0x0100\n      exp\n      dup2\n      sload\n      dup2\n      0xff\n      mul\n      not\n      and\n      swap1\n      dup4\n      0xff\n      and\n      mul\n      or\n      swap1\n      sstore\n      pop\n        /* \"contracts/BaseContract.sol\":10950:11324  function guncelleSertifikaMerkezi(address _smAdres, string memory _isim, uint8 _ulke)\r... */\n      pop\n      pop\n      pop\n      jump\t// out\n        /* \"contracts/BaseContract.sol\":4075:4184  function isKisi(address _address) public view returns (bool){\r... */\n    tag_157:\n        /* \"contracts/BaseContract.sol\":4130:4134  bool */\n      0x00\n        /* \"contracts/BaseContract.sol\":4153:4160  kisiler */\n      0x03\n        /* \"contracts/BaseContract.sol\":4153:4170  kisiler[_address] */\n      0x00\n        /* \"contracts/BaseContract.sol\":4161:4169  _address */\n      dup4\n        /* \"contracts/BaseContract.sol\":4153:4170  kisiler[_address] */\n      0xffffffffffffffffffffffffffffffffffffffff\n      and\n      0xffffffffffffffffffffffffffffffffffffffff\n      and\n      dup2\n      mstore\n      0x20\n      add\n      swap1\n      dup2\n      mstore\n      0x20\n      add\n      0x00\n      keccak256\n        /* \"contracts/BaseContract.sol\":4153:4176  kisiler[_address].durum */\n      0x00\n      add\n      0x00\n      swap1\n      sload\n      swap1\n      0x0100\n      exp\n      swap1\n      div\n      0xff\n      and\n        /* \"contracts/BaseContract.sol\":4146:4176  return kisiler[_address].durum */\n      swap1\n      pop\n        /* \"contracts/BaseContract.sol\":4075:4184  function isKisi(address _address) public view returns (bool){\r... */\n      swap2\n      swap1\n      pop\n      jump\t// out\n        /* \"contracts/BaseContract.sol\":4917:4970  mapping(address => Akademisyen) public akademisyenler */\n    tag_161:\n      mstore(0x20, 0x05)\n      dup1\n      0x00\n      mstore\n      keccak256(0x00, 0x40)\n      0x00\n      swap2\n      pop\n      swap1\n      pop\n      dup1\n      0x00\n      add\n      0x00\n      swap1\n      sload\n      swap1\n      0x0100\n      exp\n      swap1\n      div\n      0xff\n      and\n      swap1\n      dup1\n      0x00\n      add\n      0x01\n      swap1\n      sload\n      swap1\n      0x0100\n      exp\n      swap1\n      div\n      0xffffffffffffffffffffffffffffffffffffffff\n      and\n      swap1\n      dup1\n      0x00\n      add\n      0x15\n      swap1\n      sload\n      swap1\n      0x0100\n      exp\n      swap1\n      div\n      0xffff\n      and\n      swap1\n      dup1\n      0x00\n      add\n      0x17\n      swap1\n      sload\n      swap1\n      0x0100\n      exp\n      swap1\n      div\n      0xff\n      and\n      swap1\n      dup1\n      0x01\n      add\n      dup1\n      sload\n      tag_328\n      swap1\n      tag_231\n      jump\t// in\n    tag_328:\n      dup1\n      0x1f\n      add\n      0x20\n      dup1\n      swap2\n      div\n      mul\n      0x20\n      add\n      mload(0x40)\n      swap1\n      dup2\n      add\n      0x40\n      mstore\n      dup1\n      swap3\n      swap2\n      swap1\n      dup2\n      dup2\n      mstore\n      0x20\n      add\n      dup3\n      dup1\n      sload\n      tag_329\n      swap1\n      tag_231\n      jump\t// in\n    tag_329:\n      dup1\n      iszero\n      tag_330\n      jumpi\n      dup1\n      0x1f\n      lt\n      tag_331\n      jumpi\n      0x0100\n      dup1\n      dup4\n      sload\n      div\n      mul\n      dup4\n      mstore\n      swap2\n      0x20\n      add\n      swap2\n      jump(tag_330)\n    tag_331:\n      dup3\n      add\n      swap2\n      swap1\n      0x00\n      mstore\n      keccak256(0x00, 0x20)\n      swap1\n    tag_332:\n      dup2\n      sload\n      dup2\n      mstore\n      swap1\n      0x01\n      add\n      swap1\n      0x20\n      add\n      dup1\n      dup4\n      gt\n      tag_332\n      jumpi\n      dup3\n      swap1\n      sub\n      0x1f\n      and\n      dup3\n      add\n      swap2\n    tag_330:\n      pop\n      pop\n      pop\n      pop\n      pop\n      swap1\n      dup1\n      0x02\n      add\n      dup1\n      sload\n      tag_333\n      swap1\n      tag_231\n      jump\t// in\n    tag_333:\n      dup1\n      0x1f\n      add\n      0x20\n      dup1\n      swap2\n      div\n      mul\n      0x20\n      add\n      mload(0x40)\n      swap1\n      dup2\n      add\n      0x40\n      mstore\n      dup1\n      swap3\n      swap2\n      swap1\n      dup2\n      dup2\n      mstore\n      0x20\n      add\n      dup3\n      dup1\n      sload\n      tag_334\n      swap1\n      tag_231\n      jump\t// in\n    tag_334:\n      dup1\n      iszero\n      tag_335\n      jumpi\n      dup1\n      0x1f\n      lt\n      tag_336\n      jumpi\n      0x0100\n      dup1\n      dup4\n      sload\n      div\n      mul\n      dup4\n      mstore\n      swap2\n      0x20\n      add\n      swap2\n      jump(tag_335)\n    tag_336:\n      dup3\n      add\n      swap2\n      swap1\n      0x00\n      mstore\n      keccak256(0x00, 0x20)\n      swap1\n    tag_337:\n      dup2\n      sload\n      dup2\n      mstore\n      swap1\n      0x01\n      add\n      swap1\n      0x20\n      add\n      dup1\n      dup4\n      gt\n      tag_337\n      jumpi\n      dup3\n      swap1\n      sub\n      0x1f\n      and\n      dup3\n      add\n      swap2\n    tag_335:\n      pop\n      pop\n      pop\n      pop\n      pop\n      swap1\n      pop\n      dup7\n      jump\t// out\n        /* \"contracts/BaseContract.sol\":6693:6870  function silKisi(address _kisiAdres) public {\r... */\n    tag_166:\n        /* \"contracts/BaseContract.sol\":6756:6774  isKisi(_kisiAdres) */\n      tag_339\n        /* \"contracts/BaseContract.sol\":6763:6773  _kisiAdres */\n      dup2\n        /* \"contracts/BaseContract.sol\":6756:6762  isKisi */\n      tag_157\n        /* \"contracts/BaseContract.sol\":6756:6774  isKisi(_kisiAdres) */\n      jump\t// in\n    tag_339:\n        /* \"contracts/BaseContract.sol\":6748:6819  require(isKisi(_kisiAdres),\r... */\n      tag_340\n      jumpi\n      mload(0x40)\n      0x08c379a000000000000000000000000000000000000000000000000000000000\n      dup2\n      mstore\n      0x04\n      add\n      tag_341\n      swap1\n      tag_342\n      jump\t// in\n    tag_341:\n      mload(0x40)\n      dup1\n      swap2\n      sub\n      swap1\n      revert\n    tag_340:\n        /* \"contracts/BaseContract.sol\":6839:6846  kisiler */\n      0x03\n        /* \"contracts/BaseContract.sol\":6839:6858  kisiler[_kisiAdres] */\n      0x00\n        /* \"contracts/BaseContract.sol\":6847:6857  _kisiAdres */\n      dup3\n        /* \"contracts/BaseContract.sol\":6839:6858  kisiler[_kisiAdres] */\n      0xffffffffffffffffffffffffffffffffffffffff\n      and\n      0xffffffffffffffffffffffffffffffffffffffff\n      and\n      dup2\n      mstore\n      0x20\n      add\n      swap1\n      dup2\n      mstore\n      0x20\n      add\n      0x00\n      keccak256\n      0x00\n        /* \"contracts/BaseContract.sol\":6832:6858  delete kisiler[_kisiAdres] */\n      dup1\n      dup3\n      add\n      exp(0x0100, 0x00)\n      dup2\n      sload\n      swap1\n      0xff\n      mul\n      not\n      and\n      swap1\n      sstore\n      pop\n      pop\n        /* \"contracts/BaseContract.sol\":6693:6870  function silKisi(address _kisiAdres) public {\r... */\n      pop\n      jump\t// out\n        /* \"contracts/BaseContract.sol\":5680:6054  function guncelleUniversite(address _universiteAdres, string memory _isim, uint8 _ulke) public {\r... */\n    tag_169:\n        /* \"contracts/BaseContract.sol\":5794:5824  isUniversite(_universiteAdres) */\n      tag_344\n        /* \"contracts/BaseContract.sol\":5807:5823  _universiteAdres */\n      dup4\n        /* \"contracts/BaseContract.sol\":5794:5806  isUniversite */\n      tag_197\n        /* \"contracts/BaseContract.sol\":5794:5824  isUniversite(_universiteAdres) */\n      jump\t// in\n    tag_344:\n        /* \"contracts/BaseContract.sol\":5786:5875  require(isUniversite(_universiteAdres),\r... */\n      tag_345\n      jumpi\n      mload(0x40)\n      0x08c379a000000000000000000000000000000000000000000000000000000000\n      dup2\n      mstore\n      0x04\n      add\n      tag_346\n      swap1\n      tag_347\n      jump\t// in\n    tag_346:\n      mload(0x40)\n      dup1\n      swap2\n      sub\n      swap1\n      revert\n    tag_345:\n        /* \"contracts/BaseContract.sol\":5928:5932  true */\n      0x01\n        /* \"contracts/BaseContract.sol\":5888:5901  universiteler */\n      0x04\n        /* \"contracts/BaseContract.sol\":5888:5919  universiteler[_universiteAdres] */\n      0x00\n        /* \"contracts/BaseContract.sol\":5902:5918  _universiteAdres */\n      dup6\n        /* \"contracts/BaseContract.sol\":5888:5919  universiteler[_universiteAdres] */\n      0xffffffffffffffffffffffffffffffffffffffff\n      and\n      0xffffffffffffffffffffffffffffffffffffffff\n      and\n      dup2\n      mstore\n      0x20\n      add\n      swap1\n      dup2\n      mstore\n      0x20\n      add\n      0x00\n      keccak256\n        /* \"contracts/BaseContract.sol\":5888:5925  universiteler[_universiteAdres].durum */\n      0x00\n      add\n      0x00\n        /* \"contracts/BaseContract.sol\":5888:5932  universiteler[_universiteAdres].durum = true */\n      0x0100\n      exp\n      dup2\n      sload\n      dup2\n      0xff\n      mul\n      not\n      and\n      swap1\n      dup4\n      iszero\n      iszero\n      mul\n      or\n      swap1\n      sstore\n      pop\n        /* \"contracts/BaseContract.sol\":5982:5987  _isim */\n      dup2\n        /* \"contracts/BaseContract.sol\":5943:5956  universiteler */\n      0x04\n        /* \"contracts/BaseContract.sol\":5943:5974  universiteler[_universiteAdres] */\n      0x00\n        /* \"contracts/BaseContract.sol\":5957:5973  _universiteAdres */\n      dup6\n        /* \"contracts/BaseContract.sol\":5943:5974  universiteler[_universiteAdres] */\n      0xffffffffffffffffffffffffffffffffffffffff\n      and\n      0xffffffffffffffffffffffffffffffffffffffff\n      and\n      dup2\n      mstore\n      0x20\n      add\n      swap1\n      dup2\n      mstore\n      0x20\n      add\n      0x00\n      keccak256\n        /* \"contracts/BaseContract.sol\":5943:5979  universiteler[_universiteAdres].isim */\n      0x01\n      add\n        /* \"contracts/BaseContract.sol\":5943:5987  universiteler[_universiteAdres].isim = _isim */\n      swap1\n      dup1\n      mload\n      swap1\n      0x20\n      add\n      swap1\n      tag_348\n      swap3\n      swap2\n      swap1\n      tag_215\n      jump\t// in\n    tag_348:\n      pop\n        /* \"contracts/BaseContract.sol\":6037:6042  _ulke */\n      dup1\n        /* \"contracts/BaseContract.sol\":5998:6011  universiteler */\n      0x04\n        /* \"contracts/BaseContract.sol\":5998:6029  universiteler[_universiteAdres] */\n      0x00\n        /* \"contracts/BaseContract.sol\":6012:6028  _universiteAdres */\n      dup6\n        /* \"contracts/BaseContract.sol\":5998:6029  universiteler[_universiteAdres] */\n      0xffffffffffffffffffffffffffffffffffffffff\n      and\n      0xffffffffffffffffffffffffffffffffffffffff\n      and\n      dup2\n      mstore\n      0x20\n      add\n      swap1\n      dup2\n      mstore\n      0x20\n      add\n      0x00\n      keccak256\n        /* \"contracts/BaseContract.sol\":5998:6034  universiteler[_universiteAdres].ulke */\n      0x02\n      add\n      0x00\n        /* \"contracts/BaseContract.sol\":5998:6042  universiteler[_universiteAdres].ulke = _ulke */\n      0x0100\n      exp\n      dup2\n      sload\n      dup2\n      0xff\n      mul\n      not\n      and\n      swap1\n      dup4\n      0xff\n      and\n      mul\n      or\n      swap1\n      sstore\n      pop\n        /* \"contracts/BaseContract.sol\":5680:6054  function guncelleUniversite(address _universiteAdres, string memory _isim, uint8 _ulke) public {\r... */\n      pop\n      pop\n      pop\n      jump\t// out\n        /* \"contracts/BaseContract.sol\":4813:4852  mapping(address => Kisi) public kisiler */\n    tag_172:\n      mstore(0x20, 0x03)\n      dup1\n      0x00\n      mstore\n      keccak256(0x00, 0x40)\n      0x00\n      swap2\n      pop\n      swap1\n      pop\n      dup1\n      0x00\n      add\n      0x00\n      swap1\n      sload\n      swap1\n      0x0100\n      exp\n      swap1\n      div\n      0xff\n      and\n      swap1\n      pop\n      dup2\n      jump\t// out\n        /* \"contracts/BaseContract.sol\":6880:7267  function ekleFirma(address _firmaAdres, string memory _isim, uint _vergiNo, uint8 _ulke)\r... */\n    tag_176:\n        /* \"contracts/BaseContract.sol\":7001:7021  isFirma(_firmaAdres) */\n      tag_350\n        /* \"contracts/BaseContract.sol\":7009:7020  _firmaAdres */\n      dup5\n        /* \"contracts/BaseContract.sol\":7001:7008  isFirma */\n      tag_86\n        /* \"contracts/BaseContract.sol\":7001:7021  isFirma(_firmaAdres) */\n      jump\t// in\n    tag_350:\n        /* \"contracts/BaseContract.sol\":7000:7021  !isFirma(_firmaAdres) */\n      iszero\n        /* \"contracts/BaseContract.sol\":6992:7067  require(!isFirma(_firmaAdres),\r... */\n      tag_351\n      jumpi\n      mload(0x40)\n      0x08c379a000000000000000000000000000000000000000000000000000000000\n      dup2\n      mstore\n      0x04\n      add\n      tag_352\n      swap1\n      tag_353\n      jump\t// in\n    tag_352:\n      mload(0x40)\n      dup1\n      swap2\n      sub\n      swap1\n      revert\n    tag_351:\n        /* \"contracts/BaseContract.sol\":7110:7114  true */\n      0x01\n        /* \"contracts/BaseContract.sol\":7080:7088  firmalar */\n      0x06\n        /* \"contracts/BaseContract.sol\":7080:7101  firmalar[_firmaAdres] */\n      0x00\n        /* \"contracts/BaseContract.sol\":7089:7100  _firmaAdres */\n      dup7\n        /* \"contracts/BaseContract.sol\":7080:7101  firmalar[_firmaAdres] */\n      0xffffffffffffffffffffffffffffffffffffffff\n      and\n      0xffffffffffffffffffffffffffffffffffffffff\n      and\n      dup2\n      mstore\n      0x20\n      add\n      swap1\n      dup2\n      mstore\n      0x20\n      add\n      0x00\n      keccak256\n        /* \"contracts/BaseContract.sol\":7080:7107  firmalar[_firmaAdres].durum */\n      0x00\n      add\n      0x00\n        /* \"contracts/BaseContract.sol\":7080:7114  firmalar[_firmaAdres].durum = true */\n      0x0100\n      exp\n      dup2\n      sload\n      dup2\n      0xff\n      mul\n      not\n      and\n      swap1\n      dup4\n      iszero\n      iszero\n      mul\n      or\n      swap1\n      sstore\n      pop\n        /* \"contracts/BaseContract.sol\":7154:7159  _isim */\n      dup3\n        /* \"contracts/BaseContract.sol\":7125:7133  firmalar */\n      0x06\n        /* \"contracts/BaseContract.sol\":7125:7146  firmalar[_firmaAdres] */\n      0x00\n        /* \"contracts/BaseContract.sol\":7134:7145  _firmaAdres */\n      dup7\n        /* \"contracts/BaseContract.sol\":7125:7146  firmalar[_firmaAdres] */\n      0xffffffffffffffffffffffffffffffffffffffff\n      and\n      0xffffffffffffffffffffffffffffffffffffffff\n      and\n      dup2\n      mstore\n      0x20\n      add\n      swap1\n      dup2\n      mstore\n      0x20\n      add\n      0x00\n      keccak256\n        /* \"contracts/BaseContract.sol\":7125:7151  firmalar[_firmaAdres].isim */\n      0x02\n      add\n        /* \"contracts/BaseContract.sol\":7125:7159  firmalar[_firmaAdres].isim = _isim */\n      swap1\n      dup1\n      mload\n      swap1\n      0x20\n      add\n      swap1\n      tag_354\n      swap3\n      swap2\n      swap1\n      tag_215\n      jump\t// in\n    tag_354:\n      pop\n        /* \"contracts/BaseContract.sol\":7199:7204  _ulke */\n      dup1\n        /* \"contracts/BaseContract.sol\":7170:7178  firmalar */\n      0x06\n        /* \"contracts/BaseContract.sol\":7170:7191  firmalar[_firmaAdres] */\n      0x00\n        /* \"contracts/BaseContract.sol\":7179:7190  _firmaAdres */\n      dup7\n        /* \"contracts/BaseContract.sol\":7170:7191  firmalar[_firmaAdres] */\n      0xffffffffffffffffffffffffffffffffffffffff\n      and\n      0xffffffffffffffffffffffffffffffffffffffff\n      and\n      dup2\n      mstore\n      0x20\n      add\n      swap1\n      dup2\n      mstore\n      0x20\n      add\n      0x00\n      keccak256\n        /* \"contracts/BaseContract.sol\":7170:7196  firmalar[_firmaAdres].ulke */\n      0x00\n      add\n      0x01\n        /* \"contracts/BaseContract.sol\":7170:7204  firmalar[_firmaAdres].ulke = _ulke */\n      0x0100\n      exp\n      dup2\n      sload\n      dup2\n      0xff\n      mul\n      not\n      and\n      swap1\n      dup4\n      0xff\n      and\n      mul\n      or\n      swap1\n      sstore\n      pop\n        /* \"contracts/BaseContract.sol\":7247:7255  _vergiNo */\n      dup2\n        /* \"contracts/BaseContract.sol\":7215:7223  firmalar */\n      0x06\n        /* \"contracts/BaseContract.sol\":7215:7236  firmalar[_firmaAdres] */\n      0x00\n        /* \"contracts/BaseContract.sol\":7224:7235  _firmaAdres */\n      dup7\n        /* \"contracts/BaseContract.sol\":7215:7236  firmalar[_firmaAdres] */\n      0xffffffffffffffffffffffffffffffffffffffff\n      and\n      0xffffffffffffffffffffffffffffffffffffffff\n      and\n      dup2\n      mstore\n      0x20\n      add\n      swap1\n      dup2\n      mstore\n      0x20\n      add\n      0x00\n      keccak256\n        /* \"contracts/BaseContract.sol\":7215:7244  firmalar[_firmaAdres].vergiNo */\n      0x01\n      add\n        /* \"contracts/BaseContract.sol\":7215:7255  firmalar[_firmaAdres].vergiNo = _vergiNo */\n      dup2\n      swap1\n      sstore\n      pop\n        /* \"contracts/BaseContract.sol\":6880:7267  function ekleFirma(address _firmaAdres, string memory _isim, uint _vergiNo, uint8 _ulke)\r... */\n      pop\n      pop\n      pop\n      pop\n      jump\t// out\n        /* \"contracts/BaseContract.sol\":9194:9515  function guncelleKurs(address _kursAdres, string memory _isim, uint8 _ulke)\r... */\n    tag_179:\n        /* \"contracts/BaseContract.sol\":9301:9319  isKurs(_kursAdres) */\n      tag_356\n        /* \"contracts/BaseContract.sol\":9308:9318  _kursAdres */\n      dup4\n        /* \"contracts/BaseContract.sol\":9301:9307  isKurs */\n      tag_59\n        /* \"contracts/BaseContract.sol\":9301:9319  isKurs(_kursAdres) */\n      jump\t// in\n    tag_356:\n        /* \"contracts/BaseContract.sol\":9293:9372  require(isKurs(_kursAdres),\r... */\n      tag_357\n      jumpi\n      mload(0x40)\n      0x08c379a000000000000000000000000000000000000000000000000000000000\n      dup2\n      mstore\n      0x04\n      add\n      tag_358\n      swap1\n      tag_320\n      jump\t// in\n    tag_358:\n      mload(0x40)\n      dup1\n      swap2\n      sub\n      swap1\n      revert\n    tag_357:\n        /* \"contracts/BaseContract.sol\":9413:9417  true */\n      0x01\n        /* \"contracts/BaseContract.sol\":9385:9392  kurslar */\n      0x07\n        /* \"contracts/BaseContract.sol\":9385:9404  kurslar[_kursAdres] */\n      0x00\n        /* \"contracts/BaseContract.sol\":9393:9403  _kursAdres */\n      dup6\n        /* \"contracts/BaseContract.sol\":9385:9404  kurslar[_kursAdres] */\n      0xffffffffffffffffffffffffffffffffffffffff\n      and\n      0xffffffffffffffffffffffffffffffffffffffff\n      and\n      dup2\n      mstore\n      0x20\n      add\n      swap1\n      dup2\n      mstore\n      0x20\n      add\n      0x00\n      keccak256\n        /* \"contracts/BaseContract.sol\":9385:9410  kurslar[_kursAdres].durum */\n      0x00\n      add\n      0x00\n        /* \"contracts/BaseContract.sol\":9385:9417  kurslar[_kursAdres].durum = true */\n      0x0100\n      exp\n      dup2\n      sload\n      dup2\n      0xff\n      mul\n      not\n      and\n      swap1\n      dup4\n      iszero\n      iszero\n      mul\n      or\n      swap1\n      sstore\n      pop\n        /* \"contracts/BaseContract.sol\":9455:9460  _isim */\n      dup2\n        /* \"contracts/BaseContract.sol\":9428:9435  kurslar */\n      0x07\n        /* \"contracts/BaseContract.sol\":9428:9447  kurslar[_kursAdres] */\n      0x00\n        /* \"contracts/BaseContract.sol\":9436:9446  _kursAdres */\n      dup6\n        /* \"contracts/BaseContract.sol\":9428:9447  kurslar[_kursAdres] */\n      0xffffffffffffffffffffffffffffffffffffffff\n      and\n      0xffffffffffffffffffffffffffffffffffffffff\n      and\n      dup2\n      mstore\n      0x20\n      add\n      swap1\n      dup2\n      mstore\n      0x20\n      add\n      0x00\n      keccak256\n        /* \"contracts/BaseContract.sol\":9428:9452  kurslar[_kursAdres].isim */\n      0x01\n      add\n        /* \"contracts/BaseContract.sol\":9428:9460  kurslar[_kursAdres].isim = _isim */\n      swap1\n      dup1\n      mload\n      swap1\n      0x20\n      add\n      swap1\n      tag_359\n      swap3\n      swap2\n      swap1\n      tag_215\n      jump\t// in\n    tag_359:\n      pop\n        /* \"contracts/BaseContract.sol\":9498:9503  _ulke */\n      dup1\n        /* \"contracts/BaseContract.sol\":9471:9478  kurslar */\n      0x07\n        /* \"contracts/BaseContract.sol\":9471:9490  kurslar[_kursAdres] */\n      0x00\n        /* \"contracts/BaseContract.sol\":9479:9489  _kursAdres */\n      dup6\n        /* \"contracts/BaseContract.sol\":9471:9490  kurslar[_kursAdres] */\n      0xffffffffffffffffffffffffffffffffffffffff\n      and\n      0xffffffffffffffffffffffffffffffffffffffff\n      and\n      dup2\n      mstore\n      0x20\n      add\n      swap1\n      dup2\n      mstore\n      0x20\n      add\n      0x00\n      keccak256\n        /* \"contracts/BaseContract.sol\":9471:9495  kurslar[_kursAdres].ulke */\n      0x02\n      add\n      0x00\n        /* \"contracts/BaseContract.sol\":9471:9503  kurslar[_kursAdres].ulke = _ulke */\n      0x0100\n      exp\n      dup2\n      sload\n      dup2\n      0xff\n      mul\n      not\n      and\n      swap1\n      dup4\n      0xff\n      and\n      mul\n      or\n      swap1\n      sstore\n      pop\n        /* \"contracts/BaseContract.sol\":9194:9515  function guncelleKurs(address _kursAdres, string memory _isim, uint8 _ulke)\r... */\n      pop\n      pop\n      pop\n      jump\t// out\n        /* \"contracts/BaseContract.sol\":3622:3722  function isYOK(address _address) public view returns (bool){\r... */\n    tag_182:\n        /* \"contracts/BaseContract.sol\":3676:3680  bool */\n      0x00\n        /* \"contracts/BaseContract.sol\":3706:3714  _address */\n      dup2\n        /* \"contracts/BaseContract.sol\":3699:3714  YOK == _address */\n      0xffffffffffffffffffffffffffffffffffffffff\n      and\n        /* \"contracts/BaseContract.sol\":3699:3702  YOK */\n      0x00\n      dup1\n      sload\n      swap1\n      0x0100\n      exp\n      swap1\n      div\n      0xffffffffffffffffffffffffffffffffffffffff\n      and\n        /* \"contracts/BaseContract.sol\":3699:3714  YOK == _address */\n      0xffffffffffffffffffffffffffffffffffffffff\n      and\n      eq\n        /* \"contracts/BaseContract.sol\":3692:3714  return YOK == _address */\n      swap1\n      pop\n        /* \"contracts/BaseContract.sol\":3622:3722  function isYOK(address _address) public view returns (bool){\r... */\n      swap2\n      swap1\n      pop\n      jump\t// out\n        /* \"contracts/BaseContract.sol\":10372:10561  function silSTK(address _stkAdres)\r... */\n    tag_186:\n        /* \"contracts/BaseContract.sol\":10438:10454  isSTK(_stkAdres) */\n      tag_362\n        /* \"contracts/BaseContract.sol\":10444:10453  _stkAdres */\n      dup2\n        /* \"contracts/BaseContract.sol\":10438:10443  isSTK */\n      tag_124\n        /* \"contracts/BaseContract.sol\":10438:10454  isSTK(_stkAdres) */\n      jump\t// in\n    tag_362:\n        /* \"contracts/BaseContract.sol\":10430:10516  require(isSTK(_stkAdres),\r... */\n      tag_363\n      jumpi\n      mload(0x40)\n      0x08c379a000000000000000000000000000000000000000000000000000000000\n      dup2\n      mstore\n      0x04\n      add\n      tag_364\n      swap1\n      tag_288\n      jump\t// in\n    tag_364:\n      mload(0x40)\n      dup1\n      swap2\n      sub\n      swap1\n      revert\n    tag_363:\n        /* \"contracts/BaseContract.sol\":10534:10540  stklar */\n      0x09\n        /* \"contracts/BaseContract.sol\":10534:10551  stklar[_stkAdres] */\n      0x00\n        /* \"contracts/BaseContract.sol\":10541:10550  _stkAdres */\n      dup3\n        /* \"contracts/BaseContract.sol\":10534:10551  stklar[_stkAdres] */\n      0xffffffffffffffffffffffffffffffffffffffff\n      and\n      0xffffffffffffffffffffffffffffffffffffffff\n      and\n      dup2\n      mstore\n      0x20\n      add\n      swap1\n      dup2\n      mstore\n      0x20\n      add\n      0x00\n      keccak256\n      0x00\n        /* \"contracts/BaseContract.sol\":10527:10551  delete stklar[_stkAdres] */\n      dup1\n      dup3\n      add\n      exp(0x0100, 0x00)\n      dup2\n      sload\n      swap1\n      0xff\n      mul\n      not\n      and\n      swap1\n      sstore\n      0x01\n      dup3\n      add\n      0x00\n      tag_365\n      swap2\n      swap1\n      tag_242\n      jump\t// in\n    tag_365:\n      0x02\n      dup3\n      add\n      exp(0x0100, 0x00)\n      dup2\n      sload\n      swap1\n      0xff\n      mul\n      not\n      and\n      swap1\n      sstore\n      pop\n      pop\n        /* \"contracts/BaseContract.sol\":10372:10561  function silSTK(address _stkAdres)\r... */\n      pop\n      jump\t// out\n        /* \"contracts/BaseContract.sol\":4672:4805  function isSertifikaMerkezi(address _address) public view returns (bool){\r... */\n    tag_189:\n        /* \"contracts/BaseContract.sol\":4739:4743  bool */\n      0x00\n        /* \"contracts/BaseContract.sol\":4762:4781  sertifikaMerkezleri */\n      0x0a\n        /* \"contracts/BaseContract.sol\":4762:4791  sertifikaMerkezleri[_address] */\n      0x00\n        /* \"contracts/BaseContract.sol\":4782:4790  _address */\n      dup4\n        /* \"contracts/BaseContract.sol\":4762:4791  sertifikaMerkezleri[_address] */\n      0xffffffffffffffffffffffffffffffffffffffff\n      and\n      0xffffffffffffffffffffffffffffffffffffffff\n      and\n      dup2\n      mstore\n      0x20\n      add\n      swap1\n      dup2\n      mstore\n      0x20\n      add\n      0x00\n      keccak256\n        /* \"contracts/BaseContract.sol\":4762:4797  sertifikaMerkezleri[_address].durum */\n      0x00\n      add\n      0x00\n      swap1\n      sload\n      swap1\n      0x0100\n      exp\n      swap1\n      div\n      0xff\n      and\n        /* \"contracts/BaseContract.sol\":4755:4797  return sertifikaMerkezleri[_address].durum */\n      swap1\n      pop\n        /* \"contracts/BaseContract.sol\":4672:4805  function isSertifikaMerkezi(address _address) public view returns (bool){\r... */\n      swap2\n      swap1\n      pop\n      jump\t// out\n        /* \"contracts/BaseContract.sol\":3840:3938  function isCB(address _address) public view returns (bool){\r... */\n    tag_193:\n        /* \"contracts/BaseContract.sol\":3893:3897  bool */\n      0x00\n        /* \"contracts/BaseContract.sol\":3922:3930  _address */\n      dup2\n        /* \"contracts/BaseContract.sol\":3916:3930  CB == _address */\n      0xffffffffffffffffffffffffffffffffffffffff\n      and\n        /* \"contracts/BaseContract.sol\":3916:3918  CB */\n      0x02\n      0x00\n      swap1\n      sload\n      swap1\n      0x0100\n      exp\n      swap1\n      div\n      0xffffffffffffffffffffffffffffffffffffffff\n      and\n        /* \"contracts/BaseContract.sol\":3916:3930  CB == _address */\n      0xffffffffffffffffffffffffffffffffffffffff\n      and\n      eq\n        /* \"contracts/BaseContract.sol\":3909:3930  return CB == _address */\n      swap1\n      pop\n        /* \"contracts/BaseContract.sol\":3840:3938  function isCB(address _address) public view returns (bool){\r... */\n      swap2\n      swap1\n      pop\n      jump\t// out\n        /* \"contracts/BaseContract.sol\":3946:4067  function isUniversite(address _address) public view returns (bool){\r... */\n    tag_197:\n        /* \"contracts/BaseContract.sol\":4007:4011  bool */\n      0x00\n        /* \"contracts/BaseContract.sol\":4030:4043  universiteler */\n      0x04\n        /* \"contracts/BaseContract.sol\":4030:4053  universiteler[_address] */\n      0x00\n        /* \"contracts/BaseContract.sol\":4044:4052  _address */\n      dup4\n        /* \"contracts/BaseContract.sol\":4030:4053  universiteler[_address] */\n      0xffffffffffffffffffffffffffffffffffffffff\n      and\n      0xffffffffffffffffffffffffffffffffffffffff\n      and\n      dup2\n      mstore\n      0x20\n      add\n      swap1\n      dup2\n      mstore\n      0x20\n      add\n      0x00\n      keccak256\n        /* \"contracts/BaseContract.sol\":4030:4059  universiteler[_address].durum */\n      0x00\n      add\n      0x00\n      swap1\n      sload\n      swap1\n      0x0100\n      exp\n      swap1\n      div\n      0xff\n      and\n        /* \"contracts/BaseContract.sol\":4023:4059  return universiteler[_address].durum */\n      swap1\n      pop\n        /* \"contracts/BaseContract.sol\":3946:4067  function isUniversite(address _address) public view returns (bool){\r... */\n      swap2\n      swap1\n      pop\n      jump\t// out\n        /* \"contracts/BaseContract.sol\":6482:6685  function guncelleKisi(address _kisiAdres, bool _durum) public {\r... */\n    tag_202:\n        /* \"contracts/BaseContract.sol\":6563:6581  isKisi(_kisiAdres) */\n      tag_370\n        /* \"contracts/BaseContract.sol\":6570:6580  _kisiAdres */\n      dup3\n        /* \"contracts/BaseContract.sol\":6563:6569  isKisi */\n      tag_157\n        /* \"contracts/BaseContract.sol\":6563:6581  isKisi(_kisiAdres) */\n      jump\t// in\n    tag_370:\n        /* \"contracts/BaseContract.sol\":6555:6626  require(isKisi(_kisiAdres),\r... */\n      tag_371\n      jumpi\n      mload(0x40)\n      0x08c379a000000000000000000000000000000000000000000000000000000000\n      dup2\n      mstore\n      0x04\n      add\n      tag_372\n      swap1\n      tag_342\n      jump\t// in\n    tag_372:\n      mload(0x40)\n      dup1\n      swap2\n      sub\n      swap1\n      revert\n    tag_371:\n        /* \"contracts/BaseContract.sol\":6667:6673  _durum */\n      dup1\n        /* \"contracts/BaseContract.sol\":6639:6646  kisiler */\n      0x03\n        /* \"contracts/BaseContract.sol\":6639:6658  kisiler[_kisiAdres] */\n      0x00\n        /* \"contracts/BaseContract.sol\":6647:6657  _kisiAdres */\n      dup5\n        /* \"contracts/BaseContract.sol\":6639:6658  kisiler[_kisiAdres] */\n      0xffffffffffffffffffffffffffffffffffffffff\n      and\n      0xffffffffffffffffffffffffffffffffffffffff\n      and\n      dup2\n      mstore\n      0x20\n      add\n      swap1\n      dup2\n      mstore\n      0x20\n      add\n      0x00\n      keccak256\n        /* \"contracts/BaseContract.sol\":6639:6664  kisiler[_kisiAdres].durum */\n      0x00\n      add\n      0x00\n        /* \"contracts/BaseContract.sol\":6639:6673  kisiler[_kisiAdres].durum = _durum */\n      0x0100\n      exp\n      dup2\n      sload\n      dup2\n      0xff\n      mul\n      not\n      and\n      swap1\n      dup4\n      iszero\n      iszero\n      mul\n      or\n      swap1\n      sstore\n      pop\n        /* \"contracts/BaseContract.sol\":6482:6685  function guncelleKisi(address _kisiAdres, bool _durum) public {\r... */\n      pop\n      pop\n      jump\t// out\n        /* \"contracts/BaseContract.sol\":6289:6474  function ekleKisi(address _kisiAdres) public {\r... */\n    tag_205:\n        /* \"contracts/BaseContract.sol\":6354:6372  isKisi(_kisiAdres) */\n      tag_374\n        /* \"contracts/BaseContract.sol\":6361:6371  _kisiAdres */\n      dup2\n        /* \"contracts/BaseContract.sol\":6354:6360  isKisi */\n      tag_157\n        /* \"contracts/BaseContract.sol\":6354:6372  isKisi(_kisiAdres) */\n      jump\t// in\n    tag_374:\n        /* \"contracts/BaseContract.sol\":6353:6372  !isKisi(_kisiAdres) */\n      iszero\n        /* \"contracts/BaseContract.sol\":6345:6417  require(!isKisi(_kisiAdres),\r... */\n      tag_375\n      jumpi\n      mload(0x40)\n      0x08c379a000000000000000000000000000000000000000000000000000000000\n      dup2\n      mstore\n      0x04\n      add\n      tag_376\n      swap1\n      tag_377\n      jump\t// in\n    tag_376:\n      mload(0x40)\n      dup1\n      swap2\n      sub\n      swap1\n      revert\n    tag_375:\n        /* \"contracts/BaseContract.sol\":6458:6462  true */\n      0x01\n        /* \"contracts/BaseContract.sol\":6430:6437  kisiler */\n      0x03\n        /* \"contracts/BaseContract.sol\":6430:6449  kisiler[_kisiAdres] */\n      0x00\n        /* \"contracts/BaseContract.sol\":6438:6448  _kisiAdres */\n      dup4\n        /* \"contracts/BaseContract.sol\":6430:6449  kisiler[_kisiAdres] */\n      0xffffffffffffffffffffffffffffffffffffffff\n      and\n      0xffffffffffffffffffffffffffffffffffffffff\n      and\n      dup2\n      mstore\n      0x20\n      add\n      swap1\n      dup2\n      mstore\n      0x20\n      add\n      0x00\n      keccak256\n        /* \"contracts/BaseContract.sol\":6430:6455  kisiler[_kisiAdres].durum */\n      0x00\n      add\n      0x00\n        /* \"contracts/BaseContract.sol\":6430:6462  kisiler[_kisiAdres].durum = true */\n      0x0100\n      exp\n      dup2\n      sload\n      dup2\n      0xff\n      mul\n      not\n      and\n      swap1\n      dup4\n      iszero\n      iszero\n      mul\n      or\n      swap1\n      sstore\n      pop\n        /* \"contracts/BaseContract.sol\":6289:6474  function ekleKisi(address _kisiAdres) public {\r... */\n      pop\n      jump\t// out\n        /* \"contracts/BaseContract.sol\":7870:8247  function ekleKamuKurumu(address _kamuKurumuAdres, string memory _isim, uint8 _ulke)\r... */\n    tag_208:\n        /* \"contracts/BaseContract.sol\":7986:8016  isKamuKurumu(_kamuKurumuAdres) */\n      tag_379\n        /* \"contracts/BaseContract.sol\":7999:8015  _kamuKurumuAdres */\n      dup4\n        /* \"contracts/BaseContract.sol\":7986:7998  isKamuKurumu */\n      tag_109\n        /* \"contracts/BaseContract.sol\":7986:8016  isKamuKurumu(_kamuKurumuAdres) */\n      jump\t// in\n    tag_379:\n        /* \"contracts/BaseContract.sol\":7985:8016  !isKamuKurumu(_kamuKurumuAdres) */\n      iszero\n        /* \"contracts/BaseContract.sol\":7977:8068  require(!isKamuKurumu(_kamuKurumuAdres),\r... */\n      tag_380\n      jumpi\n      mload(0x40)\n      0x08c379a000000000000000000000000000000000000000000000000000000000\n      dup2\n      mstore\n      0x04\n      add\n      tag_381\n      swap1\n      tag_382\n      jump\t// in\n    tag_381:\n      mload(0x40)\n      dup1\n      swap2\n      sub\n      swap1\n      revert\n    tag_380:\n        /* \"contracts/BaseContract.sol\":8121:8125  true */\n      0x01\n        /* \"contracts/BaseContract.sol\":8081:8094  kamuKurumlari */\n      0x08\n        /* \"contracts/BaseContract.sol\":8081:8112  kamuKurumlari[_kamuKurumuAdres] */\n      0x00\n        /* \"contracts/BaseContract.sol\":8095:8111  _kamuKurumuAdres */\n      dup6\n        /* \"contracts/BaseContract.sol\":8081:8112  kamuKurumlari[_kamuKurumuAdres] */\n      0xffffffffffffffffffffffffffffffffffffffff\n      and\n      0xffffffffffffffffffffffffffffffffffffffff\n      and\n      dup2\n      mstore\n      0x20\n      add\n      swap1\n      dup2\n      mstore\n      0x20\n      add\n      0x00\n      keccak256\n        /* \"contracts/BaseContract.sol\":8081:8118  kamuKurumlari[_kamuKurumuAdres].durum */\n      0x00\n      add\n      0x00\n        /* \"contracts/BaseContract.sol\":8081:8125  kamuKurumlari[_kamuKurumuAdres].durum = true */\n      0x0100\n      exp\n      dup2\n      sload\n      dup2\n      0xff\n      mul\n      not\n      and\n      swap1\n      dup4\n      iszero\n      iszero\n      mul\n      or\n      swap1\n      sstore\n      pop\n        /* \"contracts/BaseContract.sol\":8175:8180  _isim */\n      dup2\n        /* \"contracts/BaseContract.sol\":8136:8149  kamuKurumlari */\n      0x08\n        /* \"contracts/BaseContract.sol\":8136:8167  kamuKurumlari[_kamuKurumuAdres] */\n      0x00\n        /* \"contracts/BaseContract.sol\":8150:8166  _kamuKurumuAdres */\n      dup6\n        /* \"contracts/BaseContract.sol\":8136:8167  kamuKurumlari[_kamuKurumuAdres] */\n      0xffffffffffffffffffffffffffffffffffffffff\n      and\n      0xffffffffffffffffffffffffffffffffffffffff\n      and\n      dup2\n      mstore\n      0x20\n      add\n      swap1\n      dup2\n      mstore\n      0x20\n      add\n      0x00\n      keccak256\n        /* \"contracts/BaseContract.sol\":8136:8172  kamuKurumlari[_kamuKurumuAdres].isim */\n      0x01\n      add\n        /* \"contracts/BaseContract.sol\":8136:8180  kamuKurumlari[_kamuKurumuAdres].isim = _isim */\n      swap1\n      dup1\n      mload\n      swap1\n      0x20\n      add\n      swap1\n      tag_383\n      swap3\n      swap2\n      swap1\n      tag_215\n      jump\t// in\n    tag_383:\n      pop\n        /* \"contracts/BaseContract.sol\":8230:8235  _ulke */\n      dup1\n        /* \"contracts/BaseContract.sol\":8191:8204  kamuKurumlari */\n      0x08\n        /* \"contracts/BaseContract.sol\":8191:8222  kamuKurumlari[_kamuKurumuAdres] */\n      0x00\n        /* \"contracts/BaseContract.sol\":8205:8221  _kamuKurumuAdres */\n      dup6\n        /* \"contracts/BaseContract.sol\":8191:8222  kamuKurumlari[_kamuKurumuAdres] */\n      0xffffffffffffffffffffffffffffffffffffffff\n      and\n      0xffffffffffffffffffffffffffffffffffffffff\n      and\n      dup2\n      mstore\n      0x20\n      add\n      swap1\n      dup2\n      mstore\n      0x20\n      add\n      0x00\n      keccak256\n        /* \"contracts/BaseContract.sol\":8191:8227  kamuKurumlari[_kamuKurumuAdres].ulke */\n      0x02\n      add\n      0x00\n        /* \"contracts/BaseContract.sol\":8191:8235  kamuKurumlari[_kamuKurumuAdres].ulke = _ulke */\n      0x0100\n      exp\n      dup2\n      sload\n      dup2\n      0xff\n      mul\n      not\n      and\n      swap1\n      dup4\n      0xff\n      and\n      mul\n      or\n      swap1\n      sstore\n      pop\n        /* \"contracts/BaseContract.sol\":7870:8247  function ekleKamuKurumu(address _kamuKurumuAdres, string memory _isim, uint8 _ulke)\r... */\n      pop\n      pop\n      pop\n      jump\t// out\n    tag_215:\n      dup3\n      dup1\n      sload\n      tag_384\n      swap1\n      tag_231\n      jump\t// in\n    tag_384:\n      swap1\n      0x00\n      mstore\n      keccak256(0x00, 0x20)\n      swap1\n      0x1f\n      add\n      0x20\n      swap1\n      div\n      dup2\n      add\n      swap3\n      dup3\n      tag_386\n      jumpi\n      0x00\n      dup6\n      sstore\n      jump(tag_385)\n    tag_386:\n      dup3\n      0x1f\n      lt\n      tag_387\n      jumpi\n      dup1\n      mload\n      not(0xff)\n      and\n      dup4\n      dup1\n      add\n      or\n      dup6\n      sstore\n      jump(tag_385)\n    tag_387:\n      dup3\n      dup1\n      add\n      0x01\n      add\n      dup6\n      sstore\n      dup3\n      iszero\n      tag_385\n      jumpi\n      swap2\n      dup3\n      add\n    tag_388:\n      dup3\n      dup2\n      gt\n      iszero\n      tag_389\n      jumpi\n      dup3\n      mload\n      dup3\n      sstore\n      swap2\n      0x20\n      add\n      swap2\n      swap1\n      0x01\n      add\n      swap1\n      jump(tag_388)\n    tag_389:\n    tag_385:\n      pop\n      swap1\n      pop\n      tag_390\n      swap2\n      swap1\n      tag_391\n      jump\t// in\n    tag_390:\n      pop\n      swap1\n      jump\t// out\n    tag_242:\n      pop\n      dup1\n      sload\n      tag_392\n      swap1\n      tag_231\n      jump\t// in\n    tag_392:\n      0x00\n      dup3\n      sstore\n      dup1\n      0x1f\n      lt\n      tag_394\n      jumpi\n      pop\n      jump(tag_393)\n    tag_394:\n      0x1f\n      add\n      0x20\n      swap1\n      div\n      swap1\n      0x00\n      mstore\n      keccak256(0x00, 0x20)\n      swap1\n      dup2\n      add\n      swap1\n      tag_395\n      swap2\n      swap1\n      tag_391\n      jump\t// in\n    tag_395:\n    tag_393:\n      pop\n      jump\t// out\n    tag_391:\n    tag_396:\n      dup1\n      dup3\n      gt\n      iszero\n      tag_397\n      jumpi\n      0x00\n      dup2\n      0x00\n      swap1\n      sstore\n      pop\n      0x01\n      add\n      jump(tag_396)\n    tag_397:\n      pop\n      swap1\n      jump\t// out\n        /* \"#utility.yul\":7:419   */\n    tag_399:\n        /* \"#utility.yul\":85:90   */\n      0x00\n        /* \"#utility.yul\":110:176   */\n      tag_401\n        /* \"#utility.yul\":126:175   */\n      tag_402\n        /* \"#utility.yul\":168:174   */\n      dup5\n        /* \"#utility.yul\":126:175   */\n      tag_403\n      jump\t// in\n    tag_402:\n        /* \"#utility.yul\":110:176   */\n      tag_404\n      jump\t// in\n    tag_401:\n        /* \"#utility.yul\":101:176   */\n      swap1\n      pop\n        /* \"#utility.yul\":199:205   */\n      dup3\n        /* \"#utility.yul\":192:197   */\n      dup2\n        /* \"#utility.yul\":185:206   */\n      mstore\n        /* \"#utility.yul\":237:241   */\n      0x20\n        /* \"#utility.yul\":230:235   */\n      dup2\n        /* \"#utility.yul\":226:242   */\n      add\n        /* \"#utility.yul\":275:278   */\n      dup5\n        /* \"#utility.yul\":266:272   */\n      dup5\n        /* \"#utility.yul\":261:264   */\n      dup5\n        /* \"#utility.yul\":257:273   */\n      add\n        /* \"#utility.yul\":254:279   */\n      gt\n        /* \"#utility.yul\":251:363   */\n      iszero\n      tag_405\n      jumpi\n        /* \"#utility.yul\":282:361   */\n      tag_406\n      tag_407\n      jump\t// in\n    tag_406:\n        /* \"#utility.yul\":251:363   */\n    tag_405:\n        /* \"#utility.yul\":372:413   */\n      tag_408\n        /* \"#utility.yul\":406:412   */\n      dup5\n        /* \"#utility.yul\":401:404   */\n      dup3\n        /* \"#utility.yul\":396:399   */\n      dup6\n        /* \"#utility.yul\":372:413   */\n      tag_409\n      jump\t// in\n    tag_408:\n        /* \"#utility.yul\":91:419   */\n      pop\n        /* \"#utility.yul\":7:419   */\n      swap4\n      swap3\n      pop\n      pop\n      pop\n      jump\t// out\n        /* \"#utility.yul\":425:564   */\n    tag_410:\n        /* \"#utility.yul\":471:476   */\n      0x00\n        /* \"#utility.yul\":509:515   */\n      dup2\n        /* \"#utility.yul\":496:516   */\n      calldataload\n        /* \"#utility.yul\":487:516   */\n      swap1\n      pop\n        /* \"#utility.yul\":525:558   */\n      tag_412\n        /* \"#utility.yul\":552:557   */\n      dup2\n        /* \"#utility.yul\":525:558   */\n      tag_413\n      jump\t// in\n    tag_412:\n        /* \"#utility.yul\":425:564   */\n      swap3\n      swap2\n      pop\n      pop\n      jump\t// out\n        /* \"#utility.yul\":570:703   */\n    tag_414:\n        /* \"#utility.yul\":613:618   */\n      0x00\n        /* \"#utility.yul\":651:657   */\n      dup2\n        /* \"#utility.yul\":638:658   */\n      calldataload\n        /* \"#utility.yul\":629:658   */\n      swap1\n      pop\n        /* \"#utility.yul\":667:697   */\n      tag_416\n        /* \"#utility.yul\":691:696   */\n      dup2\n        /* \"#utility.yul\":667:697   */\n      tag_417\n      jump\t// in\n    tag_416:\n        /* \"#utility.yul\":570:703   */\n      swap3\n      swap2\n      pop\n      pop\n      jump\t// out\n        /* \"#utility.yul\":723:1063   */\n    tag_418:\n        /* \"#utility.yul\":779:784   */\n      0x00\n        /* \"#utility.yul\":828:831   */\n      dup3\n        /* \"#utility.yul\":821:825   */\n      0x1f\n        /* \"#utility.yul\":813:819   */\n      dup4\n        /* \"#utility.yul\":809:826   */\n      add\n        /* \"#utility.yul\":805:832   */\n      slt\n        /* \"#utility.yul\":795:917   */\n      tag_420\n      jumpi\n        /* \"#utility.yul\":836:915   */\n      tag_421\n      tag_422\n      jump\t// in\n    tag_421:\n        /* \"#utility.yul\":795:917   */\n    tag_420:\n        /* \"#utility.yul\":953:959   */\n      dup2\n        /* \"#utility.yul\":940:960   */\n      calldataload\n        /* \"#utility.yul\":978:1057   */\n      tag_423\n        /* \"#utility.yul\":1053:1056   */\n      dup5\n        /* \"#utility.yul\":1045:1051   */\n      dup3\n        /* \"#utility.yul\":1038:1042   */\n      0x20\n        /* \"#utility.yul\":1030:1036   */\n      dup7\n        /* \"#utility.yul\":1026:1043   */\n      add\n        /* \"#utility.yul\":978:1057   */\n      tag_399\n      jump\t// in\n    tag_423:\n        /* \"#utility.yul\":969:1057   */\n      swap2\n      pop\n        /* \"#utility.yul\":785:1063   */\n      pop\n        /* \"#utility.yul\":723:1063   */\n      swap3\n      swap2\n      pop\n      pop\n      jump\t// out\n        /* \"#utility.yul\":1069:1208   */\n    tag_424:\n        /* \"#utility.yul\":1115:1120   */\n      0x00\n        /* \"#utility.yul\":1153:1159   */\n      dup2\n        /* \"#utility.yul\":1140:1160   */\n      calldataload\n        /* \"#utility.yul\":1131:1160   */\n      swap1\n      pop\n        /* \"#utility.yul\":1169:1202   */\n      tag_426\n        /* \"#utility.yul\":1196:1201   */\n      dup2\n        /* \"#utility.yul\":1169:1202   */\n      tag_427\n      jump\t// in\n    tag_426:\n        /* \"#utility.yul\":1069:1208   */\n      swap3\n      swap2\n      pop\n      pop\n      jump\t// out\n        /* \"#utility.yul\":1214:1351   */\n    tag_428:\n        /* \"#utility.yul\":1259:1264   */\n      0x00\n        /* \"#utility.yul\":1297:1303   */\n      dup2\n        /* \"#utility.yul\":1284:1304   */\n      calldataload\n        /* \"#utility.yul\":1275:1304   */\n      swap1\n      pop\n        /* \"#utility.yul\":1313:1345   */\n      tag_430\n        /* \"#utility.yul\":1339:1344   */\n      dup2\n        /* \"#utility.yul\":1313:1345   */\n      tag_431\n      jump\t// in\n    tag_430:\n        /* \"#utility.yul\":1214:1351   */\n      swap3\n      swap2\n      pop\n      pop\n      jump\t// out\n        /* \"#utility.yul\":1357:1492   */\n    tag_432:\n        /* \"#utility.yul\":1401:1406   */\n      0x00\n        /* \"#utility.yul\":1439:1445   */\n      dup2\n        /* \"#utility.yul\":1426:1446   */\n      calldataload\n        /* \"#utility.yul\":1417:1446   */\n      swap1\n      pop\n        /* \"#utility.yul\":1455:1486   */\n      tag_434\n        /* \"#utility.yul\":1480:1485   */\n      dup2\n        /* \"#utility.yul\":1455:1486   */\n      tag_435\n      jump\t// in\n    tag_434:\n        /* \"#utility.yul\":1357:1492   */\n      swap3\n      swap2\n      pop\n      pop\n      jump\t// out\n        /* \"#utility.yul\":1498:1827   */\n    tag_58:\n        /* \"#utility.yul\":1557:1563   */\n      0x00\n        /* \"#utility.yul\":1606:1608   */\n      0x20\n        /* \"#utility.yul\":1594:1603   */\n      dup3\n        /* \"#utility.yul\":1585:1592   */\n      dup5\n        /* \"#utility.yul\":1581:1604   */\n      sub\n        /* \"#utility.yul\":1577:1609   */\n      slt\n        /* \"#utility.yul\":1574:1693   */\n      iszero\n      tag_437\n      jumpi\n        /* \"#utility.yul\":1612:1691   */\n      tag_438\n      tag_439\n      jump\t// in\n    tag_438:\n        /* \"#utility.yul\":1574:1693   */\n    tag_437:\n        /* \"#utility.yul\":1732:1733   */\n      0x00\n        /* \"#utility.yul\":1757:1810   */\n      tag_440\n        /* \"#utility.yul\":1802:1809   */\n      dup5\n        /* \"#utility.yul\":1793:1799   */\n      dup3\n        /* \"#utility.yul\":1782:1791   */\n      dup6\n        /* \"#utility.yul\":1778:1800   */\n      add\n        /* \"#utility.yul\":1757:1810   */\n      tag_410\n      jump\t// in\n    tag_440:\n        /* \"#utility.yul\":1747:1810   */\n      swap2\n      pop\n        /* \"#utility.yul\":1703:1820   */\n      pop\n        /* \"#utility.yul\":1498:1827   */\n      swap3\n      swap2\n      pop\n      pop\n      jump\t// out\n        /* \"#utility.yul\":1833:2452   */\n    tag_94:\n        /* \"#utility.yul\":1910:1916   */\n      0x00\n        /* \"#utility.yul\":1918:1924   */\n      dup1\n        /* \"#utility.yul\":1926:1932   */\n      0x00\n        /* \"#utility.yul\":1975:1977   */\n      0x60\n        /* \"#utility.yul\":1963:1972   */\n      dup5\n        /* \"#utility.yul\":1954:1961   */\n      dup7\n        /* \"#utility.yul\":1950:1973   */\n      sub\n        /* \"#utility.yul\":1946:1978   */\n      slt\n        /* \"#utility.yul\":1943:2062   */\n      iszero\n      tag_442\n      jumpi\n        /* \"#utility.yul\":1981:2060   */\n      tag_443\n      tag_439\n      jump\t// in\n    tag_443:\n        /* \"#utility.yul\":1943:2062   */\n    tag_442:\n        /* \"#utility.yul\":2101:2102   */\n      0x00\n        /* \"#utility.yul\":2126:2179   */\n      tag_444\n        /* \"#utility.yul\":2171:2178   */\n      dup7\n        /* \"#utility.yul\":2162:2168   */\n      dup3\n        /* \"#utility.yul\":2151:2160   */\n      dup8\n        /* \"#utility.yul\":2147:2169   */\n      add\n        /* \"#utility.yul\":2126:2179   */\n      tag_410\n      jump\t// in\n    tag_444:\n        /* \"#utility.yul\":2116:2179   */\n      swap4\n      pop\n        /* \"#utility.yul\":2072:2189   */\n      pop\n        /* \"#utility.yul\":2228:2230   */\n      0x20\n        /* \"#utility.yul\":2254:2307   */\n      tag_445\n        /* \"#utility.yul\":2299:2306   */\n      dup7\n        /* \"#utility.yul\":2290:2296   */\n      dup3\n        /* \"#utility.yul\":2279:2288   */\n      dup8\n        /* \"#utility.yul\":2275:2297   */\n      add\n        /* \"#utility.yul\":2254:2307   */\n      tag_410\n      jump\t// in\n    tag_445:\n        /* \"#utility.yul\":2244:2307   */\n      swap3\n      pop\n        /* \"#utility.yul\":2199:2317   */\n      pop\n        /* \"#utility.yul\":2356:2358   */\n      0x40\n        /* \"#utility.yul\":2382:2435   */\n      tag_446\n        /* \"#utility.yul\":2427:2434   */\n      dup7\n        /* \"#utility.yul\":2418:2424   */\n      dup3\n        /* \"#utility.yul\":2407:2416   */\n      dup8\n        /* \"#utility.yul\":2403:2425   */\n      add\n        /* \"#utility.yul\":2382:2435   */\n      tag_410\n      jump\t// in\n    tag_446:\n        /* \"#utility.yul\":2372:2435   */\n      swap2\n      pop\n        /* \"#utility.yul\":2327:2445   */\n      pop\n        /* \"#utility.yul\":1833:2452   */\n      swap3\n      pop\n      swap3\n      pop\n      swap3\n      jump\t// out\n        /* \"#utility.yul\":2458:2926   */\n    tag_201:\n        /* \"#utility.yul\":2523:2529   */\n      0x00\n        /* \"#utility.yul\":2531:2537   */\n      dup1\n        /* \"#utility.yul\":2580:2582   */\n      0x40\n        /* \"#utility.yul\":2568:2577   */\n      dup4\n        /* \"#utility.yul\":2559:2566   */\n      dup6\n        /* \"#utility.yul\":2555:2578   */\n      sub\n        /* \"#utility.yul\":2551:2583   */\n      slt\n        /* \"#utility.yul\":2548:2667   */\n      iszero\n      tag_448\n      jumpi\n        /* \"#utility.yul\":2586:2665   */\n      tag_449\n      tag_439\n      jump\t// in\n    tag_449:\n        /* \"#utility.yul\":2548:2667   */\n    tag_448:\n        /* \"#utility.yul\":2706:2707   */\n      0x00\n        /* \"#utility.yul\":2731:2784   */\n      tag_450\n        /* \"#utility.yul\":2776:2783   */\n      dup6\n        /* \"#utility.yul\":2767:2773   */\n      dup3\n        /* \"#utility.yul\":2756:2765   */\n      dup7\n        /* \"#utility.yul\":2752:2774   */\n      add\n        /* \"#utility.yul\":2731:2784   */\n      tag_410\n      jump\t// in\n    tag_450:\n        /* \"#utility.yul\":2721:2784   */\n      swap3\n      pop\n        /* \"#utility.yul\":2677:2794   */\n      pop\n        /* \"#utility.yul\":2833:2835   */\n      0x20\n        /* \"#utility.yul\":2859:2909   */\n      tag_451\n        /* \"#utility.yul\":2901:2908   */\n      dup6\n        /* \"#utility.yul\":2892:2898   */\n      dup3\n        /* \"#utility.yul\":2881:2890   */\n      dup7\n        /* \"#utility.yul\":2877:2899   */\n      add\n        /* \"#utility.yul\":2859:2909   */\n      tag_414\n      jump\t// in\n    tag_451:\n        /* \"#utility.yul\":2849:2909   */\n      swap2\n      pop\n        /* \"#utility.yul\":2804:2919   */\n      pop\n        /* \"#utility.yul\":2458:2926   */\n      swap3\n      pop\n      swap3\n      swap1\n      pop\n      jump\t// out\n        /* \"#utility.yul\":2932:3873   */\n    tag_147:\n        /* \"#utility.yul\":3026:3032   */\n      0x00\n        /* \"#utility.yul\":3034:3040   */\n      dup1\n        /* \"#utility.yul\":3042:3048   */\n      0x00\n        /* \"#utility.yul\":3050:3056   */\n      dup1\n        /* \"#utility.yul\":3099:3102   */\n      0x80\n        /* \"#utility.yul\":3087:3096   */\n      dup6\n        /* \"#utility.yul\":3078:3085   */\n      dup8\n        /* \"#utility.yul\":3074:3097   */\n      sub\n        /* \"#utility.yul\":3070:3103   */\n      slt\n        /* \"#utility.yul\":3067:3187   */\n      iszero\n      tag_453\n      jumpi\n        /* \"#utility.yul\":3106:3185   */\n      tag_454\n      tag_439\n      jump\t// in\n    tag_454:\n        /* \"#utility.yul\":3067:3187   */\n    tag_453:\n        /* \"#utility.yul\":3226:3227   */\n      0x00\n        /* \"#utility.yul\":3251:3304   */\n      tag_455\n        /* \"#utility.yul\":3296:3303   */\n      dup8\n        /* \"#utility.yul\":3287:3293   */\n      dup3\n        /* \"#utility.yul\":3276:3285   */\n      dup9\n        /* \"#utility.yul\":3272:3294   */\n      add\n        /* \"#utility.yul\":3251:3304   */\n      tag_410\n      jump\t// in\n    tag_455:\n        /* \"#utility.yul\":3241:3304   */\n      swap5\n      pop\n        /* \"#utility.yul\":3197:3314   */\n      pop\n        /* \"#utility.yul\":3381:3383   */\n      0x20\n        /* \"#utility.yul\":3370:3379   */\n      dup6\n        /* \"#utility.yul\":3366:3384   */\n      add\n        /* \"#utility.yul\":3353:3385   */\n      calldataload\n        /* \"#utility.yul\":3412:3430   */\n      0xffffffffffffffff\n        /* \"#utility.yul\":3404:3410   */\n      dup2\n        /* \"#utility.yul\":3401:3431   */\n      gt\n        /* \"#utility.yul\":3398:3515   */\n      iszero\n      tag_456\n      jumpi\n        /* \"#utility.yul\":3434:3513   */\n      tag_457\n      tag_458\n      jump\t// in\n    tag_457:\n        /* \"#utility.yul\":3398:3515   */\n    tag_456:\n        /* \"#utility.yul\":3539:3602   */\n      tag_459\n        /* \"#utility.yul\":3594:3601   */\n      dup8\n        /* \"#utility.yul\":3585:3591   */\n      dup3\n        /* \"#utility.yul\":3574:3583   */\n      dup9\n        /* \"#utility.yul\":3570:3592   */\n      add\n        /* \"#utility.yul\":3539:3602   */\n      tag_418\n      jump\t// in\n    tag_459:\n        /* \"#utility.yul\":3529:3602   */\n      swap4\n      pop\n        /* \"#utility.yul\":3324:3612   */\n      pop\n        /* \"#utility.yul\":3651:3653   */\n      0x40\n        /* \"#utility.yul\":3677:3730   */\n      tag_460\n        /* \"#utility.yul\":3722:3729   */\n      dup8\n        /* \"#utility.yul\":3713:3719   */\n      dup3\n        /* \"#utility.yul\":3702:3711   */\n      dup9\n        /* \"#utility.yul\":3698:3720   */\n      add\n        /* \"#utility.yul\":3677:3730   */\n      tag_424\n      jump\t// in\n    tag_460:\n        /* \"#utility.yul\":3667:3730   */\n      swap3\n      pop\n        /* \"#utility.yul\":3622:3740   */\n      pop\n        /* \"#utility.yul\":3779:3781   */\n      0x60\n        /* \"#utility.yul\":3805:3856   */\n      tag_461\n        /* \"#utility.yul\":3848:3855   */\n      dup8\n        /* \"#utility.yul\":3839:3845   */\n      dup3\n        /* \"#utility.yul\":3828:3837   */\n      dup9\n        /* \"#utility.yul\":3824:3846   */\n      add\n        /* \"#utility.yul\":3805:3856   */\n      tag_432\n      jump\t// in\n    tag_461:\n        /* \"#utility.yul\":3795:3856   */\n      swap2\n      pop\n        /* \"#utility.yul\":3750:3866   */\n      pop\n        /* \"#utility.yul\":2932:3873   */\n      swap3\n      swap6\n      swap2\n      swap5\n      pop\n      swap3\n      pop\n      jump\t// out\n        /* \"#utility.yul\":3879:4674   */\n    tag_54:\n        /* \"#utility.yul\":3964:3970   */\n      0x00\n        /* \"#utility.yul\":3972:3978   */\n      dup1\n        /* \"#utility.yul\":3980:3986   */\n      0x00\n        /* \"#utility.yul\":4029:4031   */\n      0x60\n        /* \"#utility.yul\":4017:4026   */\n      dup5\n        /* \"#utility.yul\":4008:4015   */\n      dup7\n        /* \"#utility.yul\":4004:4027   */\n      sub\n        /* \"#utility.yul\":4000:4032   */\n      slt\n        /* \"#utility.yul\":3997:4116   */\n      iszero\n      tag_463\n      jumpi\n        /* \"#utility.yul\":4035:4114   */\n      tag_464\n      tag_439\n      jump\t// in\n    tag_464:\n        /* \"#utility.yul\":3997:4116   */\n    tag_463:\n        /* \"#utility.yul\":4155:4156   */\n      0x00\n        /* \"#utility.yul\":4180:4233   */\n      tag_465\n        /* \"#utility.yul\":4225:4232   */\n      dup7\n        /* \"#utility.yul\":4216:4222   */\n      dup3\n        /* \"#utility.yul\":4205:4214   */\n      dup8\n        /* \"#utility.yul\":4201:4223   */\n      add\n        /* \"#utility.yul\":4180:4233   */\n      tag_410\n      jump\t// in\n    tag_465:\n        /* \"#utility.yul\":4170:4233   */\n      swap4\n      pop\n        /* \"#utility.yul\":4126:4243   */\n      pop\n        /* \"#utility.yul\":4310:4312   */\n      0x20\n        /* \"#utility.yul\":4299:4308   */\n      dup5\n        /* \"#utility.yul\":4295:4313   */\n      add\n        /* \"#utility.yul\":4282:4314   */\n      calldataload\n        /* \"#utility.yul\":4341:4359   */\n      0xffffffffffffffff\n        /* \"#utility.yul\":4333:4339   */\n      dup2\n        /* \"#utility.yul\":4330:4360   */\n      gt\n        /* \"#utility.yul\":4327:4444   */\n      iszero\n      tag_466\n      jumpi\n        /* \"#utility.yul\":4363:4442   */\n      tag_467\n      tag_458\n      jump\t// in\n    tag_467:\n        /* \"#utility.yul\":4327:4444   */\n    tag_466:\n        /* \"#utility.yul\":4468:4531   */\n      tag_468\n        /* \"#utility.yul\":4523:4530   */\n      dup7\n        /* \"#utility.yul\":4514:4520   */\n      dup3\n        /* \"#utility.yul\":4503:4512   */\n      dup8\n        /* \"#utility.yul\":4499:4521   */\n      add\n        /* \"#utility.yul\":4468:4531   */\n      tag_418\n      jump\t// in\n    tag_468:\n        /* \"#utility.yul\":4458:4531   */\n      swap3\n      pop\n        /* \"#utility.yul\":4253:4541   */\n      pop\n        /* \"#utility.yul\":4580:4582   */\n      0x40\n        /* \"#utility.yul\":4606:4657   */\n      tag_469\n        /* \"#utility.yul\":4649:4656   */\n      dup7\n        /* \"#utility.yul\":4640:4646   */\n      dup3\n        /* \"#utility.yul\":4629:4638   */\n      dup8\n        /* \"#utility.yul\":4625:4647   */\n      add\n        /* \"#utility.yul\":4606:4657   */\n      tag_432\n      jump\t// in\n    tag_469:\n        /* \"#utility.yul\":4596:4657   */\n      swap2\n      pop\n        /* \"#utility.yul\":4551:4667   */\n      pop\n        /* \"#utility.yul\":3879:4674   */\n      swap3\n      pop\n      swap3\n      pop\n      swap3\n      jump\t// out\n        /* \"#utility.yul\":4680:5007   */\n    tag_141:\n        /* \"#utility.yul\":4738:4744   */\n      0x00\n        /* \"#utility.yul\":4787:4789   */\n      0x20\n        /* \"#utility.yul\":4775:4784   */\n      dup3\n        /* \"#utility.yul\":4766:4773   */\n      dup5\n        /* \"#utility.yul\":4762:4785   */\n      sub\n        /* \"#utility.yul\":4758:4790   */\n      slt\n        /* \"#utility.yul\":4755:4874   */\n      iszero\n      tag_471\n      jumpi\n        /* \"#utility.yul\":4793:4872   */\n      tag_472\n      tag_439\n      jump\t// in\n    tag_472:\n        /* \"#utility.yul\":4755:4874   */\n    tag_471:\n        /* \"#utility.yul\":4913:4914   */\n      0x00\n        /* \"#utility.yul\":4938:4990   */\n      tag_473\n        /* \"#utility.yul\":4982:4989   */\n      dup5\n        /* \"#utility.yul\":4973:4979   */\n      dup3\n        /* \"#utility.yul\":4962:4971   */\n      dup6\n        /* \"#utility.yul\":4958:4980   */\n      add\n        /* \"#utility.yul\":4938:4990   */\n      tag_428\n      jump\t// in\n    tag_473:\n        /* \"#utility.yul\":4928:4990   */\n      swap2\n      pop\n        /* \"#utility.yul\":4884:5000   */\n      pop\n        /* \"#utility.yul\":4680:5007   */\n      swap3\n      swap2\n      pop\n      pop\n      jump\t// out\n        /* \"#utility.yul\":5013:5131   */\n    tag_474:\n        /* \"#utility.yul\":5100:5124   */\n      tag_476\n        /* \"#utility.yul\":5118:5123   */\n      dup2\n        /* \"#utility.yul\":5100:5124   */\n      tag_477\n      jump\t// in\n    tag_476:\n        /* \"#utility.yul\":5095:5098   */\n      dup3\n        /* \"#utility.yul\":5088:5125   */\n      mstore\n        /* \"#utility.yul\":5013:5131   */\n      pop\n      pop\n      jump\t// out\n        /* \"#utility.yul\":5137:5246   */\n    tag_478:\n        /* \"#utility.yul\":5218:5239   */\n      tag_480\n        /* \"#utility.yul\":5233:5238   */\n      dup2\n        /* \"#utility.yul\":5218:5239   */\n      tag_481\n      jump\t// in\n    tag_480:\n        /* \"#utility.yul\":5213:5216   */\n      dup3\n        /* \"#utility.yul\":5206:5240   */\n      mstore\n        /* \"#utility.yul\":5137:5246   */\n      pop\n      pop\n      jump\t// out\n        /* \"#utility.yul\":5252:5395   */\n    tag_482:\n        /* \"#utility.yul\":5345:5388   */\n      tag_484\n        /* \"#utility.yul\":5382:5387   */\n      dup2\n        /* \"#utility.yul\":5345:5388   */\n      tag_485\n      jump\t// in\n    tag_484:\n        /* \"#utility.yul\":5340:5343   */\n      dup3\n        /* \"#utility.yul\":5333:5389   */\n      mstore\n        /* \"#utility.yul\":5252:5395   */\n      pop\n      pop\n      jump\t// out\n        /* \"#utility.yul\":5401:5765   */\n    tag_486:\n        /* \"#utility.yul\":5489:5492   */\n      0x00\n        /* \"#utility.yul\":5517:5556   */\n      tag_488\n        /* \"#utility.yul\":5550:5555   */\n      dup3\n        /* \"#utility.yul\":5517:5556   */\n      tag_489\n      jump\t// in\n    tag_488:\n        /* \"#utility.yul\":5572:5643   */\n      tag_490\n        /* \"#utility.yul\":5636:5642   */\n      dup2\n        /* \"#utility.yul\":5631:5634   */\n      dup6\n        /* \"#utility.yul\":5572:5643   */\n      tag_491\n      jump\t// in\n    tag_490:\n        /* \"#utility.yul\":5565:5643   */\n      swap4\n      pop\n        /* \"#utility.yul\":5652:5704   */\n      tag_492\n        /* \"#utility.yul\":5697:5703   */\n      dup2\n        /* \"#utility.yul\":5692:5695   */\n      dup6\n        /* \"#utility.yul\":5685:5689   */\n      0x20\n        /* \"#utility.yul\":5678:5683   */\n      dup7\n        /* \"#utility.yul\":5674:5690   */\n      add\n        /* \"#utility.yul\":5652:5704   */\n      tag_493\n      jump\t// in\n    tag_492:\n        /* \"#utility.yul\":5729:5758   */\n      tag_494\n        /* \"#utility.yul\":5751:5757   */\n      dup2\n        /* \"#utility.yul\":5729:5758   */\n      tag_495\n      jump\t// in\n    tag_494:\n        /* \"#utility.yul\":5724:5727   */\n      dup5\n        /* \"#utility.yul\":5720:5759   */\n      add\n        /* \"#utility.yul\":5713:5759   */\n      swap2\n      pop\n        /* \"#utility.yul\":5493:5765   */\n      pop\n        /* \"#utility.yul\":5401:5765   */\n      swap3\n      swap2\n      pop\n      pop\n      jump\t// out\n        /* \"#utility.yul\":5771:6137   */\n    tag_496:\n        /* \"#utility.yul\":5913:5916   */\n      0x00\n        /* \"#utility.yul\":5934:6001   */\n      tag_498\n        /* \"#utility.yul\":5998:6000   */\n      0x19\n        /* \"#utility.yul\":5993:5996   */\n      dup4\n        /* \"#utility.yul\":5934:6001   */\n      tag_491\n      jump\t// in\n    tag_498:\n        /* \"#utility.yul\":5927:6001   */\n      swap2\n      pop\n        /* \"#utility.yul\":6010:6103   */\n      tag_499\n        /* \"#utility.yul\":6099:6102   */\n      dup3\n        /* \"#utility.yul\":6010:6103   */\n      tag_500\n      jump\t// in\n    tag_499:\n        /* \"#utility.yul\":6128:6130   */\n      0x20\n        /* \"#utility.yul\":6123:6126   */\n      dup3\n        /* \"#utility.yul\":6119:6131   */\n      add\n        /* \"#utility.yul\":6112:6131   */\n      swap1\n      pop\n        /* \"#utility.yul\":5771:6137   */\n      swap2\n      swap1\n      pop\n      jump\t// out\n        /* \"#utility.yul\":6143:6509   */\n    tag_501:\n        /* \"#utility.yul\":6285:6288   */\n      0x00\n        /* \"#utility.yul\":6306:6373   */\n      tag_503\n        /* \"#utility.yul\":6370:6372   */\n      0x17\n        /* \"#utility.yul\":6365:6368   */\n      dup4\n        /* \"#utility.yul\":6306:6373   */\n      tag_491\n      jump\t// in\n    tag_503:\n        /* \"#utility.yul\":6299:6373   */\n      swap2\n      pop\n        /* \"#utility.yul\":6382:6475   */\n      tag_504\n        /* \"#utility.yul\":6471:6474   */\n      dup3\n        /* \"#utility.yul\":6382:6475   */\n      tag_505\n      jump\t// in\n    tag_504:\n        /* \"#utility.yul\":6500:6502   */\n      0x20\n        /* \"#utility.yul\":6495:6498   */\n      dup3\n        /* \"#utility.yul\":6491:6503   */\n      add\n        /* \"#utility.yul\":6484:6503   */\n      swap1\n      pop\n        /* \"#utility.yul\":6143:6509   */\n      swap2\n      swap1\n      pop\n      jump\t// out\n        /* \"#utility.yul\":6515:6881   */\n    tag_506:\n        /* \"#utility.yul\":6657:6660   */\n      0x00\n        /* \"#utility.yul\":6678:6745   */\n      tag_508\n        /* \"#utility.yul\":6742:6744   */\n      0x11\n        /* \"#utility.yul\":6737:6740   */\n      dup4\n        /* \"#utility.yul\":6678:6745   */\n      tag_491\n      jump\t// in\n    tag_508:\n        /* \"#utility.yul\":6671:6745   */\n      swap2\n      pop\n        /* \"#utility.yul\":6754:6847   */\n      tag_509\n        /* \"#utility.yul\":6843:6846   */\n      dup3\n        /* \"#utility.yul\":6754:6847   */\n      tag_510\n      jump\t// in\n    tag_509:\n        /* \"#utility.yul\":6872:6874   */\n      0x20\n        /* \"#utility.yul\":6867:6870   */\n      dup3\n        /* \"#utility.yul\":6863:6875   */\n      add\n        /* \"#utility.yul\":6856:6875   */\n      swap1\n      pop\n        /* \"#utility.yul\":6515:6881   */\n      swap2\n      swap1\n      pop\n      jump\t// out\n        /* \"#utility.yul\":6887:7253   */\n    tag_511:\n        /* \"#utility.yul\":7029:7032   */\n      0x00\n        /* \"#utility.yul\":7050:7117   */\n      tag_513\n        /* \"#utility.yul\":7114:7116   */\n      0x18\n        /* \"#utility.yul\":7109:7112   */\n      dup4\n        /* \"#utility.yul\":7050:7117   */\n      tag_491\n      jump\t// in\n    tag_513:\n        /* \"#utility.yul\":7043:7117   */\n      swap2\n      pop\n        /* \"#utility.yul\":7126:7219   */\n      tag_514\n        /* \"#utility.yul\":7215:7218   */\n      dup3\n        /* \"#utility.yul\":7126:7219   */\n      tag_515\n      jump\t// in\n    tag_514:\n        /* \"#utility.yul\":7244:7246   */\n      0x20\n        /* \"#utility.yul\":7239:7242   */\n      dup3\n        /* \"#utility.yul\":7235:7247   */\n      add\n        /* \"#utility.yul\":7228:7247   */\n      swap1\n      pop\n        /* \"#utility.yul\":6887:7253   */\n      swap2\n      swap1\n      pop\n      jump\t// out\n        /* \"#utility.yul\":7259:7625   */\n    tag_516:\n        /* \"#utility.yul\":7401:7404   */\n      0x00\n        /* \"#utility.yul\":7422:7489   */\n      tag_518\n        /* \"#utility.yul\":7486:7488   */\n      0x12\n        /* \"#utility.yul\":7481:7484   */\n      dup4\n        /* \"#utility.yul\":7422:7489   */\n      tag_491\n      jump\t// in\n    tag_518:\n        /* \"#utility.yul\":7415:7489   */\n      swap2\n      pop\n        /* \"#utility.yul\":7498:7591   */\n      tag_519\n        /* \"#utility.yul\":7587:7590   */\n      dup3\n        /* \"#utility.yul\":7498:7591   */\n      tag_520\n      jump\t// in\n    tag_519:\n        /* \"#utility.yul\":7616:7618   */\n      0x20\n        /* \"#utility.yul\":7611:7614   */\n      dup3\n        /* \"#utility.yul\":7607:7619   */\n      add\n        /* \"#utility.yul\":7600:7619   */\n      swap1\n      pop\n        /* \"#utility.yul\":7259:7625   */\n      swap2\n      swap1\n      pop\n      jump\t// out\n        /* \"#utility.yul\":7631:7997   */\n    tag_521:\n        /* \"#utility.yul\":7773:7776   */\n      0x00\n        /* \"#utility.yul\":7794:7861   */\n      tag_523\n        /* \"#utility.yul\":7858:7860   */\n      0x1e\n        /* \"#utility.yul\":7853:7856   */\n      dup4\n        /* \"#utility.yul\":7794:7861   */\n      tag_491\n      jump\t// in\n    tag_523:\n        /* \"#utility.yul\":7787:7861   */\n      swap2\n      pop\n        /* \"#utility.yul\":7870:7963   */\n      tag_524\n        /* \"#utility.yul\":7959:7962   */\n      dup3\n        /* \"#utility.yul\":7870:7963   */\n      tag_525\n      jump\t// in\n    tag_524:\n        /* \"#utility.yul\":7988:7990   */\n      0x20\n        /* \"#utility.yul\":7983:7986   */\n      dup3\n        /* \"#utility.yul\":7979:7991   */\n      add\n        /* \"#utility.yul\":7972:7991   */\n      swap1\n      pop\n        /* \"#utility.yul\":7631:7997   */\n      swap2\n      swap1\n      pop\n      jump\t// out\n        /* \"#utility.yul\":8003:8369   */\n    tag_526:\n        /* \"#utility.yul\":8145:8148   */\n      0x00\n        /* \"#utility.yul\":8166:8233   */\n      tag_528\n        /* \"#utility.yul\":8230:8232   */\n      0x22\n        /* \"#utility.yul\":8225:8228   */\n      dup4\n        /* \"#utility.yul\":8166:8233   */\n      tag_491\n      jump\t// in\n    tag_528:\n        /* \"#utility.yul\":8159:8233   */\n      swap2\n      pop\n        /* \"#utility.yul\":8242:8335   */\n      tag_529\n        /* \"#utility.yul\":8331:8334   */\n      dup3\n        /* \"#utility.yul\":8242:8335   */\n      tag_530\n      jump\t// in\n    tag_529:\n        /* \"#utility.yul\":8360:8362   */\n      0x40\n        /* \"#utility.yul\":8355:8358   */\n      dup3\n        /* \"#utility.yul\":8351:8363   */\n      add\n        /* \"#utility.yul\":8344:8363   */\n      swap1\n      pop\n        /* \"#utility.yul\":8003:8369   */\n      swap2\n      swap1\n      pop\n      jump\t// out\n        /* \"#utility.yul\":8375:8741   */\n    tag_531:\n        /* \"#utility.yul\":8517:8520   */\n      0x00\n        /* \"#utility.yul\":8538:8605   */\n      tag_533\n        /* \"#utility.yul\":8602:8604   */\n      0x22\n        /* \"#utility.yul\":8597:8600   */\n      dup4\n        /* \"#utility.yul\":8538:8605   */\n      tag_491\n      jump\t// in\n    tag_533:\n        /* \"#utility.yul\":8531:8605   */\n      swap2\n      pop\n        /* \"#utility.yul\":8614:8707   */\n      tag_534\n        /* \"#utility.yul\":8703:8706   */\n      dup3\n        /* \"#utility.yul\":8614:8707   */\n      tag_535\n      jump\t// in\n    tag_534:\n        /* \"#utility.yul\":8732:8734   */\n      0x40\n        /* \"#utility.yul\":8727:8730   */\n      dup3\n        /* \"#utility.yul\":8723:8735   */\n      add\n        /* \"#utility.yul\":8716:8735   */\n      swap1\n      pop\n        /* \"#utility.yul\":8375:8741   */\n      swap2\n      swap1\n      pop\n      jump\t// out\n        /* \"#utility.yul\":8747:9113   */\n    tag_536:\n        /* \"#utility.yul\":8889:8892   */\n      0x00\n        /* \"#utility.yul\":8910:8977   */\n      tag_538\n        /* \"#utility.yul\":8974:8976   */\n      0x17\n        /* \"#utility.yul\":8969:8972   */\n      dup4\n        /* \"#utility.yul\":8910:8977   */\n      tag_491\n      jump\t// in\n    tag_538:\n        /* \"#utility.yul\":8903:8977   */\n      swap2\n      pop\n        /* \"#utility.yul\":8986:9079   */\n      tag_539\n        /* \"#utility.yul\":9075:9078   */\n      dup3\n        /* \"#utility.yul\":8986:9079   */\n      tag_540\n      jump\t// in\n    tag_539:\n        /* \"#utility.yul\":9104:9106   */\n      0x20\n        /* \"#utility.yul\":9099:9102   */\n      dup3\n        /* \"#utility.yul\":9095:9107   */\n      add\n        /* \"#utility.yul\":9088:9107   */\n      swap1\n      pop\n        /* \"#utility.yul\":8747:9113   */\n      swap2\n      swap1\n      pop\n      jump\t// out\n        /* \"#utility.yul\":9119:9485   */\n    tag_541:\n        /* \"#utility.yul\":9261:9264   */\n      0x00\n        /* \"#utility.yul\":9282:9349   */\n      tag_543\n        /* \"#utility.yul\":9346:9348   */\n      0x1e\n        /* \"#utility.yul\":9341:9344   */\n      dup4\n        /* \"#utility.yul\":9282:9349   */\n      tag_491\n      jump\t// in\n    tag_543:\n        /* \"#utility.yul\":9275:9349   */\n      swap2\n      pop\n        /* \"#utility.yul\":9358:9451   */\n      tag_544\n        /* \"#utility.yul\":9447:9450   */\n      dup3\n        /* \"#utility.yul\":9358:9451   */\n      tag_545\n      jump\t// in\n    tag_544:\n        /* \"#utility.yul\":9476:9478   */\n      0x20\n        /* \"#utility.yul\":9471:9474   */\n      dup3\n        /* \"#utility.yul\":9467:9479   */\n      add\n        /* \"#utility.yul\":9460:9479   */\n      swap1\n      pop\n        /* \"#utility.yul\":9119:9485   */\n      swap2\n      swap1\n      pop\n      jump\t// out\n        /* \"#utility.yul\":9491:9857   */\n    tag_546:\n        /* \"#utility.yul\":9633:9636   */\n      0x00\n        /* \"#utility.yul\":9654:9721   */\n      tag_548\n        /* \"#utility.yul\":9718:9720   */\n      0x11\n        /* \"#utility.yul\":9713:9716   */\n      dup4\n        /* \"#utility.yul\":9654:9721   */\n      tag_491\n      jump\t// in\n    tag_548:\n        /* \"#utility.yul\":9647:9721   */\n      swap2\n      pop\n        /* \"#utility.yul\":9730:9823   */\n      tag_549\n        /* \"#utility.yul\":9819:9822   */\n      dup3\n        /* \"#utility.yul\":9730:9823   */\n      tag_550\n      jump\t// in\n    tag_549:\n        /* \"#utility.yul\":9848:9850   */\n      0x20\n        /* \"#utility.yul\":9843:9846   */\n      dup3\n        /* \"#utility.yul\":9839:9851   */\n      add\n        /* \"#utility.yul\":9832:9851   */\n      swap1\n      pop\n        /* \"#utility.yul\":9491:9857   */\n      swap2\n      swap1\n      pop\n      jump\t// out\n        /* \"#utility.yul\":9863:10229   */\n    tag_551:\n        /* \"#utility.yul\":10005:10008   */\n      0x00\n        /* \"#utility.yul\":10026:10093   */\n      tag_553\n        /* \"#utility.yul\":10090:10092   */\n      0x18\n        /* \"#utility.yul\":10085:10088   */\n      dup4\n        /* \"#utility.yul\":10026:10093   */\n      tag_491\n      jump\t// in\n    tag_553:\n        /* \"#utility.yul\":10019:10093   */\n      swap2\n      pop\n        /* \"#utility.yul\":10102:10195   */\n      tag_554\n        /* \"#utility.yul\":10191:10194   */\n      dup3\n        /* \"#utility.yul\":10102:10195   */\n      tag_555\n      jump\t// in\n    tag_554:\n        /* \"#utility.yul\":10220:10222   */\n      0x20\n        /* \"#utility.yul\":10215:10218   */\n      dup3\n        /* \"#utility.yul\":10211:10223   */\n      add\n        /* \"#utility.yul\":10204:10223   */\n      swap1\n      pop\n        /* \"#utility.yul\":9863:10229   */\n      swap2\n      swap1\n      pop\n      jump\t// out\n        /* \"#utility.yul\":10235:10601   */\n    tag_556:\n        /* \"#utility.yul\":10377:10380   */\n      0x00\n        /* \"#utility.yul\":10398:10465   */\n      tag_558\n        /* \"#utility.yul\":10462:10464   */\n      0x12\n        /* \"#utility.yul\":10457:10460   */\n      dup4\n        /* \"#utility.yul\":10398:10465   */\n      tag_491\n      jump\t// in\n    tag_558:\n        /* \"#utility.yul\":10391:10465   */\n      swap2\n      pop\n        /* \"#utility.yul\":10474:10567   */\n      tag_559\n        /* \"#utility.yul\":10563:10566   */\n      dup3\n        /* \"#utility.yul\":10474:10567   */\n      tag_560\n      jump\t// in\n    tag_559:\n        /* \"#utility.yul\":10592:10594   */\n      0x20\n        /* \"#utility.yul\":10587:10590   */\n      dup3\n        /* \"#utility.yul\":10583:10595   */\n      add\n        /* \"#utility.yul\":10576:10595   */\n      swap1\n      pop\n        /* \"#utility.yul\":10235:10601   */\n      swap2\n      swap1\n      pop\n      jump\t// out\n        /* \"#utility.yul\":10607:10973   */\n    tag_561:\n        /* \"#utility.yul\":10749:10752   */\n      0x00\n        /* \"#utility.yul\":10770:10837   */\n      tag_563\n        /* \"#utility.yul\":10834:10836   */\n      0x19\n        /* \"#utility.yul\":10829:10832   */\n      dup4\n        /* \"#utility.yul\":10770:10837   */\n      tag_491\n      jump\t// in\n    tag_563:\n        /* \"#utility.yul\":10763:10837   */\n      swap2\n      pop\n        /* \"#utility.yul\":10846:10939   */\n      tag_564\n        /* \"#utility.yul\":10935:10938   */\n      dup3\n        /* \"#utility.yul\":10846:10939   */\n      tag_565\n      jump\t// in\n    tag_564:\n        /* \"#utility.yul\":10964:10966   */\n      0x20\n        /* \"#utility.yul\":10959:10962   */\n      dup3\n        /* \"#utility.yul\":10955:10967   */\n      add\n        /* \"#utility.yul\":10948:10967   */\n      swap1\n      pop\n        /* \"#utility.yul\":10607:10973   */\n      swap2\n      swap1\n      pop\n      jump\t// out\n        /* \"#utility.yul\":10979:11094   */\n    tag_566:\n        /* \"#utility.yul\":11064:11087   */\n      tag_568\n        /* \"#utility.yul\":11081:11086   */\n      dup2\n        /* \"#utility.yul\":11064:11087   */\n      tag_569\n      jump\t// in\n    tag_568:\n        /* \"#utility.yul\":11059:11062   */\n      dup3\n        /* \"#utility.yul\":11052:11088   */\n      mstore\n        /* \"#utility.yul\":10979:11094   */\n      pop\n      pop\n      jump\t// out\n        /* \"#utility.yul\":11100:11218   */\n    tag_570:\n        /* \"#utility.yul\":11187:11211   */\n      tag_572\n        /* \"#utility.yul\":11205:11210   */\n      dup2\n        /* \"#utility.yul\":11187:11211   */\n      tag_573\n      jump\t// in\n    tag_572:\n        /* \"#utility.yul\":11182:11185   */\n      dup3\n        /* \"#utility.yul\":11175:11212   */\n      mstore\n        /* \"#utility.yul\":11100:11218   */\n      pop\n      pop\n      jump\t// out\n        /* \"#utility.yul\":11224:11339   */\n    tag_574:\n        /* \"#utility.yul\":11309:11332   */\n      tag_576\n        /* \"#utility.yul\":11326:11331   */\n      dup2\n        /* \"#utility.yul\":11309:11332   */\n      tag_577\n      jump\t// in\n    tag_576:\n        /* \"#utility.yul\":11304:11307   */\n      dup3\n        /* \"#utility.yul\":11297:11333   */\n      mstore\n        /* \"#utility.yul\":11224:11339   */\n      pop\n      pop\n      jump\t// out\n        /* \"#utility.yul\":11345:11457   */\n    tag_578:\n        /* \"#utility.yul\":11428:11450   */\n      tag_580\n        /* \"#utility.yul\":11444:11449   */\n      dup2\n        /* \"#utility.yul\":11428:11450   */\n      tag_581\n      jump\t// in\n    tag_580:\n        /* \"#utility.yul\":11423:11426   */\n      dup3\n        /* \"#utility.yul\":11416:11451   */\n      mstore\n        /* \"#utility.yul\":11345:11457   */\n      pop\n      pop\n      jump\t// out\n        /* \"#utility.yul\":11463:11685   */\n    tag_117:\n        /* \"#utility.yul\":11556:11560   */\n      0x00\n        /* \"#utility.yul\":11594:11596   */\n      0x20\n        /* \"#utility.yul\":11583:11592   */\n      dup3\n        /* \"#utility.yul\":11579:11597   */\n      add\n        /* \"#utility.yul\":11571:11597   */\n      swap1\n      pop\n        /* \"#utility.yul\":11607:11678   */\n      tag_583\n        /* \"#utility.yul\":11675:11676   */\n      0x00\n        /* \"#utility.yul\":11664:11673   */\n      dup4\n        /* \"#utility.yul\":11660:11677   */\n      add\n        /* \"#utility.yul\":11651:11657   */\n      dup5\n        /* \"#utility.yul\":11607:11678   */\n      tag_474\n      jump\t// in\n    tag_583:\n        /* \"#utility.yul\":11463:11685   */\n      swap3\n      swap2\n      pop\n      pop\n      jump\t// out\n        /* \"#utility.yul\":11691:11901   */\n    tag_61:\n        /* \"#utility.yul\":11778:11782   */\n      0x00\n        /* \"#utility.yul\":11816:11818   */\n      0x20\n        /* \"#utility.yul\":11805:11814   */\n      dup3\n        /* \"#utility.yul\":11801:11819   */\n      add\n        /* \"#utility.yul\":11793:11819   */\n      swap1\n      pop\n        /* \"#utility.yul\":11829:11894   */\n      tag_585\n        /* \"#utility.yul\":11891:11892   */\n      0x00\n        /* \"#utility.yul\":11880:11889   */\n      dup4\n        /* \"#utility.yul\":11876:11893   */\n      add\n        /* \"#utility.yul\":11867:11873   */\n      dup5\n        /* \"#utility.yul\":11829:11894   */\n      tag_478\n      jump\t// in\n    tag_585:\n        /* \"#utility.yul\":11691:11901   */\n      swap3\n      swap2\n      pop\n      pop\n      jump\t// out\n        /* \"#utility.yul\":11907:12860   */\n    tag_163:\n        /* \"#utility.yul\":12178:12182   */\n      0x00\n        /* \"#utility.yul\":12216:12219   */\n      0xc0\n        /* \"#utility.yul\":12205:12214   */\n      dup3\n        /* \"#utility.yul\":12201:12220   */\n      add\n        /* \"#utility.yul\":12193:12220   */\n      swap1\n      pop\n        /* \"#utility.yul\":12230:12295   */\n      tag_587\n        /* \"#utility.yul\":12292:12293   */\n      0x00\n        /* \"#utility.yul\":12281:12290   */\n      dup4\n        /* \"#utility.yul\":12277:12294   */\n      add\n        /* \"#utility.yul\":12268:12274   */\n      dup10\n        /* \"#utility.yul\":12230:12295   */\n      tag_478\n      jump\t// in\n    tag_587:\n        /* \"#utility.yul\":12305:12377   */\n      tag_588\n        /* \"#utility.yul\":12373:12375   */\n      0x20\n        /* \"#utility.yul\":12362:12371   */\n      dup4\n        /* \"#utility.yul\":12358:12376   */\n      add\n        /* \"#utility.yul\":12349:12355   */\n      dup9\n        /* \"#utility.yul\":12305:12377   */\n      tag_474\n      jump\t// in\n    tag_588:\n        /* \"#utility.yul\":12387:12457   */\n      tag_589\n        /* \"#utility.yul\":12453:12455   */\n      0x40\n        /* \"#utility.yul\":12442:12451   */\n      dup4\n        /* \"#utility.yul\":12438:12456   */\n      add\n        /* \"#utility.yul\":12429:12435   */\n      dup8\n        /* \"#utility.yul\":12387:12457   */\n      tag_566\n      jump\t// in\n    tag_589:\n        /* \"#utility.yul\":12467:12545   */\n      tag_590\n        /* \"#utility.yul\":12541:12543   */\n      0x60\n        /* \"#utility.yul\":12530:12539   */\n      dup4\n        /* \"#utility.yul\":12526:12544   */\n      add\n        /* \"#utility.yul\":12517:12523   */\n      dup7\n        /* \"#utility.yul\":12467:12545   */\n      tag_482\n      jump\t// in\n    tag_590:\n        /* \"#utility.yul\":12593:12602   */\n      dup2\n        /* \"#utility.yul\":12587:12591   */\n      dup2\n        /* \"#utility.yul\":12583:12603   */\n      sub\n        /* \"#utility.yul\":12577:12580   */\n      0x80\n        /* \"#utility.yul\":12566:12575   */\n      dup4\n        /* \"#utility.yul\":12562:12581   */\n      add\n        /* \"#utility.yul\":12555:12604   */\n      mstore\n        /* \"#utility.yul\":12621:12699   */\n      tag_591\n        /* \"#utility.yul\":12694:12698   */\n      dup2\n        /* \"#utility.yul\":12685:12691   */\n      dup6\n        /* \"#utility.yul\":12621:12699   */\n      tag_486\n      jump\t// in\n    tag_591:\n        /* \"#utility.yul\":12613:12699   */\n      swap1\n      pop\n        /* \"#utility.yul\":12747:12756   */\n      dup2\n        /* \"#utility.yul\":12741:12745   */\n      dup2\n        /* \"#utility.yul\":12737:12757   */\n      sub\n        /* \"#utility.yul\":12731:12734   */\n      0xa0\n        /* \"#utility.yul\":12720:12729   */\n      dup4\n        /* \"#utility.yul\":12716:12735   */\n      add\n        /* \"#utility.yul\":12709:12758   */\n      mstore\n        /* \"#utility.yul\":12775:12853   */\n      tag_592\n        /* \"#utility.yul\":12848:12852   */\n      dup2\n        /* \"#utility.yul\":12839:12845   */\n      dup5\n        /* \"#utility.yul\":12775:12853   */\n      tag_486\n      jump\t// in\n    tag_592:\n        /* \"#utility.yul\":12767:12853   */\n      swap1\n      pop\n        /* \"#utility.yul\":11907:12860   */\n      swap8\n      swap7\n      pop\n      pop\n      pop\n      pop\n      pop\n      pop\n      pop\n      jump\t// out\n        /* \"#utility.yul\":12866:13379   */\n    tag_76:\n        /* \"#utility.yul\":13025:13029   */\n      0x00\n        /* \"#utility.yul\":13063:13065   */\n      0x60\n        /* \"#utility.yul\":13052:13061   */\n      dup3\n        /* \"#utility.yul\":13048:13066   */\n      add\n        /* \"#utility.yul\":13040:13066   */\n      swap1\n      pop\n        /* \"#utility.yul\":13076:13141   */\n      tag_594\n        /* \"#utility.yul\":13138:13139   */\n      0x00\n        /* \"#utility.yul\":13127:13136   */\n      dup4\n        /* \"#utility.yul\":13123:13140   */\n      add\n        /* \"#utility.yul\":13114:13120   */\n      dup7\n        /* \"#utility.yul\":13076:13141   */\n      tag_478\n      jump\t// in\n    tag_594:\n        /* \"#utility.yul\":13188:13197   */\n      dup2\n        /* \"#utility.yul\":13182:13186   */\n      dup2\n        /* \"#utility.yul\":13178:13198   */\n      sub\n        /* \"#utility.yul\":13173:13175   */\n      0x20\n        /* \"#utility.yul\":13162:13171   */\n      dup4\n        /* \"#utility.yul\":13158:13176   */\n      add\n        /* \"#utility.yul\":13151:13199   */\n      mstore\n        /* \"#utility.yul\":13216:13294   */\n      tag_595\n        /* \"#utility.yul\":13289:13293   */\n      dup2\n        /* \"#utility.yul\":13280:13286   */\n      dup6\n        /* \"#utility.yul\":13216:13294   */\n      tag_486\n      jump\t// in\n    tag_595:\n        /* \"#utility.yul\":13208:13294   */\n      swap1\n      pop\n        /* \"#utility.yul\":13304:13372   */\n      tag_596\n        /* \"#utility.yul\":13368:13370   */\n      0x40\n        /* \"#utility.yul\":13357:13366   */\n      dup4\n        /* \"#utility.yul\":13353:13371   */\n      add\n        /* \"#utility.yul\":13344:13350   */\n      dup5\n        /* \"#utility.yul\":13304:13372   */\n      tag_578\n      jump\t// in\n    tag_596:\n        /* \"#utility.yul\":12866:13379   */\n      swap5\n      swap4\n      pop\n      pop\n      pop\n      pop\n      jump\t// out\n        /* \"#utility.yul\":13385:14009   */\n    tag_100:\n        /* \"#utility.yul\":13572:13576   */\n      0x00\n        /* \"#utility.yul\":13610:13613   */\n      0x80\n        /* \"#utility.yul\":13599:13608   */\n      dup3\n        /* \"#utility.yul\":13595:13614   */\n      add\n        /* \"#utility.yul\":13587:13614   */\n      swap1\n      pop\n        /* \"#utility.yul\":13624:13689   */\n      tag_598\n        /* \"#utility.yul\":13686:13687   */\n      0x00\n        /* \"#utility.yul\":13675:13684   */\n      dup4\n        /* \"#utility.yul\":13671:13688   */\n      add\n        /* \"#utility.yul\":13662:13668   */\n      dup8\n        /* \"#utility.yul\":13624:13689   */\n      tag_478\n      jump\t// in\n    tag_598:\n        /* \"#utility.yul\":13699:13767   */\n      tag_599\n        /* \"#utility.yul\":13763:13765   */\n      0x20\n        /* \"#utility.yul\":13752:13761   */\n      dup4\n        /* \"#utility.yul\":13748:13766   */\n      add\n        /* \"#utility.yul\":13739:13745   */\n      dup7\n        /* \"#utility.yul\":13699:13767   */\n      tag_578\n      jump\t// in\n    tag_599:\n        /* \"#utility.yul\":13777:13849   */\n      tag_600\n        /* \"#utility.yul\":13845:13847   */\n      0x40\n        /* \"#utility.yul\":13834:13843   */\n      dup4\n        /* \"#utility.yul\":13830:13848   */\n      add\n        /* \"#utility.yul\":13821:13827   */\n      dup6\n        /* \"#utility.yul\":13777:13849   */\n      tag_570\n      jump\t// in\n    tag_600:\n        /* \"#utility.yul\":13896:13905   */\n      dup2\n        /* \"#utility.yul\":13890:13894   */\n      dup2\n        /* \"#utility.yul\":13886:13906   */\n      sub\n        /* \"#utility.yul\":13881:13883   */\n      0x60\n        /* \"#utility.yul\":13870:13879   */\n      dup4\n        /* \"#utility.yul\":13866:13884   */\n      add\n        /* \"#utility.yul\":13859:13907   */\n      mstore\n        /* \"#utility.yul\":13924:14002   */\n      tag_601\n        /* \"#utility.yul\":13997:14001   */\n      dup2\n        /* \"#utility.yul\":13988:13994   */\n      dup5\n        /* \"#utility.yul\":13924:14002   */\n      tag_486\n      jump\t// in\n    tag_601:\n        /* \"#utility.yul\":13916:14002   */\n      swap1\n      pop\n        /* \"#utility.yul\":13385:14009   */\n      swap6\n      swap5\n      pop\n      pop\n      pop\n      pop\n      pop\n      jump\t// out\n        /* \"#utility.yul\":14015:14434   */\n    tag_264:\n        /* \"#utility.yul\":14181:14185   */\n      0x00\n        /* \"#utility.yul\":14219:14221   */\n      0x20\n        /* \"#utility.yul\":14208:14217   */\n      dup3\n        /* \"#utility.yul\":14204:14222   */\n      add\n        /* \"#utility.yul\":14196:14222   */\n      swap1\n      pop\n        /* \"#utility.yul\":14268:14277   */\n      dup2\n        /* \"#utility.yul\":14262:14266   */\n      dup2\n        /* \"#utility.yul\":14258:14278   */\n      sub\n        /* \"#utility.yul\":14254:14255   */\n      0x00\n        /* \"#utility.yul\":14243:14252   */\n      dup4\n        /* \"#utility.yul\":14239:14256   */\n      add\n        /* \"#utility.yul\":14232:14279   */\n      mstore\n        /* \"#utility.yul\":14296:14427   */\n      tag_603\n        /* \"#utility.yul\":14422:14426   */\n      dup2\n        /* \"#utility.yul\":14296:14427   */\n      tag_496\n      jump\t// in\n    tag_603:\n        /* \"#utility.yul\":14288:14427   */\n      swap1\n      pop\n        /* \"#utility.yul\":14015:14434   */\n      swap2\n      swap1\n      pop\n      jump\t// out\n        /* \"#utility.yul\":14440:14859   */\n    tag_347:\n        /* \"#utility.yul\":14606:14610   */\n      0x00\n        /* \"#utility.yul\":14644:14646   */\n      0x20\n        /* \"#utility.yul\":14633:14642   */\n      dup3\n        /* \"#utility.yul\":14629:14647   */\n      add\n        /* \"#utility.yul\":14621:14647   */\n      swap1\n      pop\n        /* \"#utility.yul\":14693:14702   */\n      dup2\n        /* \"#utility.yul\":14687:14691   */\n      dup2\n        /* \"#utility.yul\":14683:14703   */\n      sub\n        /* \"#utility.yul\":14679:14680   */\n      0x00\n        /* \"#utility.yul\":14668:14677   */\n      dup4\n        /* \"#utility.yul\":14664:14681   */\n      add\n        /* \"#utility.yul\":14657:14704   */\n      mstore\n        /* \"#utility.yul\":14721:14852   */\n      tag_605\n        /* \"#utility.yul\":14847:14851   */\n      dup2\n        /* \"#utility.yul\":14721:14852   */\n      tag_501\n      jump\t// in\n    tag_605:\n        /* \"#utility.yul\":14713:14852   */\n      swap1\n      pop\n        /* \"#utility.yul\":14440:14859   */\n      swap2\n      swap1\n      pop\n      jump\t// out\n        /* \"#utility.yul\":14865:15284   */\n    tag_342:\n        /* \"#utility.yul\":15031:15035   */\n      0x00\n        /* \"#utility.yul\":15069:15071   */\n      0x20\n        /* \"#utility.yul\":15058:15067   */\n      dup3\n        /* \"#utility.yul\":15054:15072   */\n      add\n        /* \"#utility.yul\":15046:15072   */\n      swap1\n      pop\n        /* \"#utility.yul\":15118:15127   */\n      dup2\n        /* \"#utility.yul\":15112:15116   */\n      dup2\n        /* \"#utility.yul\":15108:15128   */\n      sub\n        /* \"#utility.yul\":15104:15105   */\n      0x00\n        /* \"#utility.yul\":15093:15102   */\n      dup4\n        /* \"#utility.yul\":15089:15106   */\n      add\n        /* \"#utility.yul\":15082:15129   */\n      mstore\n        /* \"#utility.yul\":15146:15277   */\n      tag_607\n        /* \"#utility.yul\":15272:15276   */\n      dup2\n        /* \"#utility.yul\":15146:15277   */\n      tag_506\n      jump\t// in\n    tag_607:\n        /* \"#utility.yul\":15138:15277   */\n      swap1\n      pop\n        /* \"#utility.yul\":14865:15284   */\n      swap2\n      swap1\n      pop\n      jump\t// out\n        /* \"#utility.yul\":15290:15709   */\n    tag_382:\n        /* \"#utility.yul\":15456:15460   */\n      0x00\n        /* \"#utility.yul\":15494:15496   */\n      0x20\n        /* \"#utility.yul\":15483:15492   */\n      dup3\n        /* \"#utility.yul\":15479:15497   */\n      add\n        /* \"#utility.yul\":15471:15497   */\n      swap1\n      pop\n        /* \"#utility.yul\":15543:15552   */\n      dup2\n        /* \"#utility.yul\":15537:15541   */\n      dup2\n        /* \"#utility.yul\":15533:15553   */\n      sub\n        /* \"#utility.yul\":15529:15530   */\n      0x00\n        /* \"#utility.yul\":15518:15527   */\n      dup4\n        /* \"#utility.yul\":15514:15531   */\n      add\n        /* \"#utility.yul\":15507:15554   */\n      mstore\n        /* \"#utility.yul\":15571:15702   */\n      tag_609\n        /* \"#utility.yul\":15697:15701   */\n      dup2\n        /* \"#utility.yul\":15571:15702   */\n      tag_511\n      jump\t// in\n    tag_609:\n        /* \"#utility.yul\":15563:15702   */\n      swap1\n      pop\n        /* \"#utility.yul\":15290:15709   */\n      swap2\n      swap1\n      pop\n      jump\t// out\n        /* \"#utility.yul\":15715:16134   */\n    tag_353:\n        /* \"#utility.yul\":15881:15885   */\n      0x00\n        /* \"#utility.yul\":15919:15921   */\n      0x20\n        /* \"#utility.yul\":15908:15917   */\n      dup3\n        /* \"#utility.yul\":15904:15922   */\n      add\n        /* \"#utility.yul\":15896:15922   */\n      swap1\n      pop\n        /* \"#utility.yul\":15968:15977   */\n      dup2\n        /* \"#utility.yul\":15962:15966   */\n      dup2\n        /* \"#utility.yul\":15958:15978   */\n      sub\n        /* \"#utility.yul\":15954:15955   */\n      0x00\n        /* \"#utility.yul\":15943:15952   */\n      dup4\n        /* \"#utility.yul\":15939:15956   */\n      add\n        /* \"#utility.yul\":15932:15979   */\n      mstore\n        /* \"#utility.yul\":15996:16127   */\n      tag_611\n        /* \"#utility.yul\":16122:16126   */\n      dup2\n        /* \"#utility.yul\":15996:16127   */\n      tag_516\n      jump\t// in\n    tag_611:\n        /* \"#utility.yul\":15988:16127   */\n      swap1\n      pop\n        /* \"#utility.yul\":15715:16134   */\n      swap2\n      swap1\n      pop\n      jump\t// out\n        /* \"#utility.yul\":16140:16559   */\n    tag_304:\n        /* \"#utility.yul\":16306:16310   */\n      0x00\n        /* \"#utility.yul\":16344:16346   */\n      0x20\n        /* \"#utility.yul\":16333:16342   */\n      dup3\n        /* \"#utility.yul\":16329:16347   */\n      add\n        /* \"#utility.yul\":16321:16347   */\n      swap1\n      pop\n        /* \"#utility.yul\":16393:16402   */\n      dup2\n        /* \"#utility.yul\":16387:16391   */\n      dup2\n        /* \"#utility.yul\":16383:16403   */\n      sub\n        /* \"#utility.yul\":16379:16380   */\n      0x00\n        /* \"#utility.yul\":16368:16377   */\n      dup4\n        /* \"#utility.yul\":16364:16381   */\n      add\n        /* \"#utility.yul\":16357:16404   */\n      mstore\n        /* \"#utility.yul\":16421:16552   */\n      tag_613\n        /* \"#utility.yul\":16547:16551   */\n      dup2\n        /* \"#utility.yul\":16421:16552   */\n      tag_521\n      jump\t// in\n    tag_613:\n        /* \"#utility.yul\":16413:16552   */\n      swap1\n      pop\n        /* \"#utility.yul\":16140:16559   */\n      swap2\n      swap1\n      pop\n      jump\t// out\n        /* \"#utility.yul\":16565:16984   */\n    tag_288:\n        /* \"#utility.yul\":16731:16735   */\n      0x00\n        /* \"#utility.yul\":16769:16771   */\n      0x20\n        /* \"#utility.yul\":16758:16767   */\n      dup3\n        /* \"#utility.yul\":16754:16772   */\n      add\n        /* \"#utility.yul\":16746:16772   */\n      swap1\n      pop\n        /* \"#utility.yul\":16818:16827   */\n      dup2\n        /* \"#utility.yul\":16812:16816   */\n      dup2\n        /* \"#utility.yul\":16808:16828   */\n      sub\n        /* \"#utility.yul\":16804:16805   */\n      0x00\n        /* \"#utility.yul\":16793:16802   */\n      dup4\n        /* \"#utility.yul\":16789:16806   */\n      add\n        /* \"#utility.yul\":16782:16829   */\n      mstore\n        /* \"#utility.yul\":16846:16977   */\n      tag_615\n        /* \"#utility.yul\":16972:16976   */\n      dup2\n        /* \"#utility.yul\":16846:16977   */\n      tag_526\n      jump\t// in\n    tag_615:\n        /* \"#utility.yul\":16838:16977   */\n      swap1\n      pop\n        /* \"#utility.yul\":16565:16984   */\n      swap2\n      swap1\n      pop\n      jump\t// out\n        /* \"#utility.yul\":16990:17409   */\n    tag_228:\n        /* \"#utility.yul\":17156:17160   */\n      0x00\n        /* \"#utility.yul\":17194:17196   */\n      0x20\n        /* \"#utility.yul\":17183:17192   */\n      dup3\n        /* \"#utility.yul\":17179:17197   */\n      add\n        /* \"#utility.yul\":17171:17197   */\n      swap1\n      pop\n        /* \"#utility.yul\":17243:17252   */\n      dup2\n        /* \"#utility.yul\":17237:17241   */\n      dup2\n        /* \"#utility.yul\":17233:17253   */\n      sub\n        /* \"#utility.yul\":17229:17230   */\n      0x00\n        /* \"#utility.yul\":17218:17227   */\n      dup4\n        /* \"#utility.yul\":17214:17231   */\n      add\n        /* \"#utility.yul\":17207:17254   */\n      mstore\n        /* \"#utility.yul\":17271:17402   */\n      tag_617\n        /* \"#utility.yul\":17397:17401   */\n      dup2\n        /* \"#utility.yul\":17271:17402   */\n      tag_531\n      jump\t// in\n    tag_617:\n        /* \"#utility.yul\":17263:17402   */\n      swap1\n      pop\n        /* \"#utility.yul\":16990:17409   */\n      swap2\n      swap1\n      pop\n      jump\t// out\n        /* \"#utility.yul\":17415:17834   */\n    tag_213:\n        /* \"#utility.yul\":17581:17585   */\n      0x00\n        /* \"#utility.yul\":17619:17621   */\n      0x20\n        /* \"#utility.yul\":17608:17617   */\n      dup3\n        /* \"#utility.yul\":17604:17622   */\n      add\n        /* \"#utility.yul\":17596:17622   */\n      swap1\n      pop\n        /* \"#utility.yul\":17668:17677   */\n      dup2\n        /* \"#utility.yul\":17662:17666   */\n      dup2\n        /* \"#utility.yul\":17658:17678   */\n      sub\n        /* \"#utility.yul\":17654:17655   */\n      0x00\n        /* \"#utility.yul\":17643:17652   */\n      dup4\n        /* \"#utility.yul\":17639:17656   */\n      add\n        /* \"#utility.yul\":17632:17679   */\n      mstore\n        /* \"#utility.yul\":17696:17827   */\n      tag_619\n        /* \"#utility.yul\":17822:17826   */\n      dup2\n        /* \"#utility.yul\":17696:17827   */\n      tag_536\n      jump\t// in\n    tag_619:\n        /* \"#utility.yul\":17688:17827   */\n      swap1\n      pop\n        /* \"#utility.yul\":17415:17834   */\n      swap2\n      swap1\n      pop\n      jump\t// out\n        /* \"#utility.yul\":17840:18259   */\n    tag_276:\n        /* \"#utility.yul\":18006:18010   */\n      0x00\n        /* \"#utility.yul\":18044:18046   */\n      0x20\n        /* \"#utility.yul\":18033:18042   */\n      dup3\n        /* \"#utility.yul\":18029:18047   */\n      add\n        /* \"#utility.yul\":18021:18047   */\n      swap1\n      pop\n        /* \"#utility.yul\":18093:18102   */\n      dup2\n        /* \"#utility.yul\":18087:18091   */\n      dup2\n        /* \"#utility.yul\":18083:18103   */\n      sub\n        /* \"#utility.yul\":18079:18080   */\n      0x00\n        /* \"#utility.yul\":18068:18077   */\n      dup4\n        /* \"#utility.yul\":18064:18081   */\n      add\n        /* \"#utility.yul\":18057:18104   */\n      mstore\n        /* \"#utility.yul\":18121:18252   */\n      tag_621\n        /* \"#utility.yul\":18247:18251   */\n      dup2\n        /* \"#utility.yul\":18121:18252   */\n      tag_541\n      jump\t// in\n    tag_621:\n        /* \"#utility.yul\":18113:18252   */\n      swap1\n      pop\n        /* \"#utility.yul\":17840:18259   */\n      swap2\n      swap1\n      pop\n      jump\t// out\n        /* \"#utility.yul\":18265:18684   */\n    tag_377:\n        /* \"#utility.yul\":18431:18435   */\n      0x00\n        /* \"#utility.yul\":18469:18471   */\n      0x20\n        /* \"#utility.yul\":18458:18467   */\n      dup3\n        /* \"#utility.yul\":18454:18472   */\n      add\n        /* \"#utility.yul\":18446:18472   */\n      swap1\n      pop\n        /* \"#utility.yul\":18518:18527   */\n      dup2\n        /* \"#utility.yul\":18512:18516   */\n      dup2\n        /* \"#utility.yul\":18508:18528   */\n      sub\n        /* \"#utility.yul\":18504:18505   */\n      0x00\n        /* \"#utility.yul\":18493:18502   */\n      dup4\n        /* \"#utility.yul\":18489:18506   */\n      add\n        /* \"#utility.yul\":18482:18529   */\n      mstore\n        /* \"#utility.yul\":18546:18677   */\n      tag_623\n        /* \"#utility.yul\":18672:18676   */\n      dup2\n        /* \"#utility.yul\":18546:18677   */\n      tag_546\n      jump\t// in\n    tag_623:\n        /* \"#utility.yul\":18538:18677   */\n      swap1\n      pop\n        /* \"#utility.yul\":18265:18684   */\n      swap2\n      swap1\n      pop\n      jump\t// out\n        /* \"#utility.yul\":18690:19109   */\n    tag_222:\n        /* \"#utility.yul\":18856:18860   */\n      0x00\n        /* \"#utility.yul\":18894:18896   */\n      0x20\n        /* \"#utility.yul\":18883:18892   */\n      dup3\n        /* \"#utility.yul\":18879:18897   */\n      add\n        /* \"#utility.yul\":18871:18897   */\n      swap1\n      pop\n        /* \"#utility.yul\":18943:18952   */\n      dup2\n        /* \"#utility.yul\":18937:18941   */\n      dup2\n        /* \"#utility.yul\":18933:18953   */\n      sub\n        /* \"#utility.yul\":18929:18930   */\n      0x00\n        /* \"#utility.yul\":18918:18927   */\n      dup4\n        /* \"#utility.yul\":18914:18931   */\n      add\n        /* \"#utility.yul\":18907:18954   */\n      mstore\n        /* \"#utility.yul\":18971:19102   */\n      tag_625\n        /* \"#utility.yul\":19097:19101   */\n      dup2\n        /* \"#utility.yul\":18971:19102   */\n      tag_551\n      jump\t// in\n    tag_625:\n        /* \"#utility.yul\":18963:19102   */\n      swap1\n      pop\n        /* \"#utility.yul\":18690:19109   */\n      swap2\n      swap1\n      pop\n      jump\t// out\n        /* \"#utility.yul\":19115:19534   */\n    tag_240:\n        /* \"#utility.yul\":19281:19285   */\n      0x00\n        /* \"#utility.yul\":19319:19321   */\n      0x20\n        /* \"#utility.yul\":19308:19317   */\n      dup3\n        /* \"#utility.yul\":19304:19322   */\n      add\n        /* \"#utility.yul\":19296:19322   */\n      swap1\n      pop\n        /* \"#utility.yul\":19368:19377   */\n      dup2\n        /* \"#utility.yul\":19362:19366   */\n      dup2\n        /* \"#utility.yul\":19358:19378   */\n      sub\n        /* \"#utility.yul\":19354:19355   */\n      0x00\n        /* \"#utility.yul\":19343:19352   */\n      dup4\n        /* \"#utility.yul\":19339:19356   */\n      add\n        /* \"#utility.yul\":19332:19379   */\n      mstore\n        /* \"#utility.yul\":19396:19527   */\n      tag_627\n        /* \"#utility.yul\":19522:19526   */\n      dup2\n        /* \"#utility.yul\":19396:19527   */\n      tag_556\n      jump\t// in\n    tag_627:\n        /* \"#utility.yul\":19388:19527   */\n      swap1\n      pop\n        /* \"#utility.yul\":19115:19534   */\n      swap2\n      swap1\n      pop\n      jump\t// out\n        /* \"#utility.yul\":19540:19959   */\n    tag_320:\n        /* \"#utility.yul\":19706:19710   */\n      0x00\n        /* \"#utility.yul\":19744:19746   */\n      0x20\n        /* \"#utility.yul\":19733:19742   */\n      dup3\n        /* \"#utility.yul\":19729:19747   */\n      add\n        /* \"#utility.yul\":19721:19747   */\n      swap1\n      pop\n        /* \"#utility.yul\":19793:19802   */\n      dup2\n        /* \"#utility.yul\":19787:19791   */\n      dup2\n        /* \"#utility.yul\":19783:19803   */\n      sub\n        /* \"#utility.yul\":19779:19780   */\n      0x00\n        /* \"#utility.yul\":19768:19777   */\n      dup4\n        /* \"#utility.yul\":19764:19781   */\n      add\n        /* \"#utility.yul\":19757:19804   */\n      mstore\n        /* \"#utility.yul\":19821:19952   */\n      tag_629\n        /* \"#utility.yul\":19947:19951   */\n      dup2\n        /* \"#utility.yul\":19821:19952   */\n      tag_561\n      jump\t// in\n    tag_629:\n        /* \"#utility.yul\":19813:19952   */\n      swap1\n      pop\n        /* \"#utility.yul\":19540:19959   */\n      swap2\n      swap1\n      pop\n      jump\t// out\n        /* \"#utility.yul\":19965:20384   */\n    tag_144:\n        /* \"#utility.yul\":20104:20108   */\n      0x00\n        /* \"#utility.yul\":20142:20144   */\n      0x40\n        /* \"#utility.yul\":20131:20140   */\n      dup3\n        /* \"#utility.yul\":20127:20145   */\n      add\n        /* \"#utility.yul\":20119:20145   */\n      swap1\n      pop\n        /* \"#utility.yul\":20155:20224   */\n      tag_631\n        /* \"#utility.yul\":20221:20222   */\n      0x00\n        /* \"#utility.yul\":20210:20219   */\n      dup4\n        /* \"#utility.yul\":20206:20223   */\n      add\n        /* \"#utility.yul\":20197:20203   */\n      dup6\n        /* \"#utility.yul\":20155:20224   */\n      tag_574\n      jump\t// in\n    tag_631:\n        /* \"#utility.yul\":20271:20280   */\n      dup2\n        /* \"#utility.yul\":20265:20269   */\n      dup2\n        /* \"#utility.yul\":20261:20281   */\n      sub\n        /* \"#utility.yul\":20256:20258   */\n      0x20\n        /* \"#utility.yul\":20245:20254   */\n      dup4\n        /* \"#utility.yul\":20241:20259   */\n      add\n        /* \"#utility.yul\":20234:20282   */\n      mstore\n        /* \"#utility.yul\":20299:20377   */\n      tag_632\n        /* \"#utility.yul\":20372:20376   */\n      dup2\n        /* \"#utility.yul\":20363:20369   */\n      dup5\n        /* \"#utility.yul\":20299:20377   */\n      tag_486\n      jump\t// in\n    tag_632:\n        /* \"#utility.yul\":20291:20377   */\n      swap1\n      pop\n        /* \"#utility.yul\":19965:20384   */\n      swap4\n      swap3\n      pop\n      pop\n      pop\n      jump\t// out\n        /* \"#utility.yul\":20390:20519   */\n    tag_404:\n        /* \"#utility.yul\":20424:20430   */\n      0x00\n        /* \"#utility.yul\":20451:20471   */\n      tag_634\n      tag_635\n      jump\t// in\n    tag_634:\n        /* \"#utility.yul\":20441:20471   */\n      swap1\n      pop\n        /* \"#utility.yul\":20480:20513   */\n      tag_636\n        /* \"#utility.yul\":20508:20512   */\n      dup3\n        /* \"#utility.yul\":20500:20506   */\n      dup3\n        /* \"#utility.yul\":20480:20513   */\n      tag_637\n      jump\t// in\n    tag_636:\n        /* \"#utility.yul\":20390:20519   */\n      swap2\n      swap1\n      pop\n      jump\t// out\n        /* \"#utility.yul\":20525:20600   */\n    tag_635:\n        /* \"#utility.yul\":20558:20564   */\n      0x00\n        /* \"#utility.yul\":20591:20593   */\n      0x40\n        /* \"#utility.yul\":20585:20594   */\n      mload\n        /* \"#utility.yul\":20575:20594   */\n      swap1\n      pop\n        /* \"#utility.yul\":20525:20600   */\n      swap1\n      jump\t// out\n        /* \"#utility.yul\":20606:20914   */\n    tag_403:\n        /* \"#utility.yul\":20668:20672   */\n      0x00\n        /* \"#utility.yul\":20758:20776   */\n      0xffffffffffffffff\n        /* \"#utility.yul\":20750:20756   */\n      dup3\n        /* \"#utility.yul\":20747:20777   */\n      gt\n        /* \"#utility.yul\":20744:20800   */\n      iszero\n      tag_640\n      jumpi\n        /* \"#utility.yul\":20780:20798   */\n      tag_641\n      tag_642\n      jump\t// in\n    tag_641:\n        /* \"#utility.yul\":20744:20800   */\n    tag_640:\n        /* \"#utility.yul\":20818:20847   */\n      tag_643\n        /* \"#utility.yul\":20840:20846   */\n      dup3\n        /* \"#utility.yul\":20818:20847   */\n      tag_495\n      jump\t// in\n    tag_643:\n        /* \"#utility.yul\":20810:20847   */\n      swap1\n      pop\n        /* \"#utility.yul\":20902:20906   */\n      0x20\n        /* \"#utility.yul\":20896:20900   */\n      dup2\n        /* \"#utility.yul\":20892:20907   */\n      add\n        /* \"#utility.yul\":20884:20907   */\n      swap1\n      pop\n        /* \"#utility.yul\":20606:20914   */\n      swap2\n      swap1\n      pop\n      jump\t// out\n        /* \"#utility.yul\":20920:21019   */\n    tag_489:\n        /* \"#utility.yul\":20972:20978   */\n      0x00\n        /* \"#utility.yul\":21006:21011   */\n      dup2\n        /* \"#utility.yul\":21000:21012   */\n      mload\n        /* \"#utility.yul\":20990:21012   */\n      swap1\n      pop\n        /* \"#utility.yul\":20920:21019   */\n      swap2\n      swap1\n      pop\n      jump\t// out\n        /* \"#utility.yul\":21025:21194   */\n    tag_491:\n        /* \"#utility.yul\":21109:21120   */\n      0x00\n        /* \"#utility.yul\":21143:21149   */\n      dup3\n        /* \"#utility.yul\":21138:21141   */\n      dup3\n        /* \"#utility.yul\":21131:21150   */\n      mstore\n        /* \"#utility.yul\":21183:21187   */\n      0x20\n        /* \"#utility.yul\":21178:21181   */\n      dup3\n        /* \"#utility.yul\":21174:21188   */\n      add\n        /* \"#utility.yul\":21159:21188   */\n      swap1\n      pop\n        /* \"#utility.yul\":21025:21194   */\n      swap3\n      swap2\n      pop\n      pop\n      jump\t// out\n        /* \"#utility.yul\":21200:21296   */\n    tag_477:\n        /* \"#utility.yul\":21237:21244   */\n      0x00\n        /* \"#utility.yul\":21266:21290   */\n      tag_647\n        /* \"#utility.yul\":21284:21289   */\n      dup3\n        /* \"#utility.yul\":21266:21290   */\n      tag_648\n      jump\t// in\n    tag_647:\n        /* \"#utility.yul\":21255:21290   */\n      swap1\n      pop\n        /* \"#utility.yul\":21200:21296   */\n      swap2\n      swap1\n      pop\n      jump\t// out\n        /* \"#utility.yul\":21302:21392   */\n    tag_481:\n        /* \"#utility.yul\":21336:21343   */\n      0x00\n        /* \"#utility.yul\":21379:21384   */\n      dup2\n        /* \"#utility.yul\":21372:21385   */\n      iszero\n        /* \"#utility.yul\":21365:21386   */\n      iszero\n        /* \"#utility.yul\":21354:21386   */\n      swap1\n      pop\n        /* \"#utility.yul\":21302:21392   */\n      swap2\n      swap1\n      pop\n      jump\t// out\n        /* \"#utility.yul\":21398:21525   */\n    tag_650:\n        /* \"#utility.yul\":21443:21450   */\n      0x00\n        /* \"#utility.yul\":21472:21477   */\n      dup2\n        /* \"#utility.yul\":21461:21477   */\n      swap1\n      pop\n        /* \"#utility.yul\":21478:21519   */\n      tag_652\n        /* \"#utility.yul\":21513:21518   */\n      dup3\n        /* \"#utility.yul\":21478:21519   */\n      tag_653\n      jump\t// in\n    tag_652:\n        /* \"#utility.yul\":21398:21525   */\n      swap2\n      swap1\n      pop\n      jump\t// out\n        /* \"#utility.yul\":21531:21620   */\n    tag_569:\n        /* \"#utility.yul\":21567:21574   */\n      0x00\n        /* \"#utility.yul\":21607:21613   */\n      0xffff\n        /* \"#utility.yul\":21600:21605   */\n      dup3\n        /* \"#utility.yul\":21596:21614   */\n      and\n        /* \"#utility.yul\":21585:21614   */\n      swap1\n      pop\n        /* \"#utility.yul\":21531:21620   */\n      swap2\n      swap1\n      pop\n      jump\t// out\n        /* \"#utility.yul\":21626:21752   */\n    tag_648:\n        /* \"#utility.yul\":21663:21670   */\n      0x00\n        /* \"#utility.yul\":21703:21745   */\n      0xffffffffffffffffffffffffffffffffffffffff\n        /* \"#utility.yul\":21696:21701   */\n      dup3\n        /* \"#utility.yul\":21692:21746   */\n      and\n        /* \"#utility.yul\":21681:21746   */\n      swap1\n      pop\n        /* \"#utility.yul\":21626:21752   */\n      swap2\n      swap1\n      pop\n      jump\t// out\n        /* \"#utility.yul\":21758:21835   */\n    tag_573:\n        /* \"#utility.yul\":21795:21802   */\n      0x00\n        /* \"#utility.yul\":21824:21829   */\n      dup2\n        /* \"#utility.yul\":21813:21829   */\n      swap1\n      pop\n        /* \"#utility.yul\":21758:21835   */\n      swap2\n      swap1\n      pop\n      jump\t// out\n        /* \"#utility.yul\":21841:21934   */\n    tag_577:\n        /* \"#utility.yul\":21877:21884   */\n      0x00\n        /* \"#utility.yul\":21917:21927   */\n      0xffffffff\n        /* \"#utility.yul\":21910:21915   */\n      dup3\n        /* \"#utility.yul\":21906:21928   */\n      and\n        /* \"#utility.yul\":21895:21928   */\n      swap1\n      pop\n        /* \"#utility.yul\":21841:21934   */\n      swap2\n      swap1\n      pop\n      jump\t// out\n        /* \"#utility.yul\":21940:22026   */\n    tag_581:\n        /* \"#utility.yul\":21975:21982   */\n      0x00\n        /* \"#utility.yul\":22015:22019   */\n      0xff\n        /* \"#utility.yul\":22008:22013   */\n      dup3\n        /* \"#utility.yul\":22004:22020   */\n      and\n        /* \"#utility.yul\":21993:22020   */\n      swap1\n      pop\n        /* \"#utility.yul\":21940:22026   */\n      swap2\n      swap1\n      pop\n      jump\t// out\n        /* \"#utility.yul\":22032:22159   */\n    tag_485:\n        /* \"#utility.yul\":22088:22097   */\n      0x00\n        /* \"#utility.yul\":22121:22153   */\n      tag_660\n        /* \"#utility.yul\":22147:22152   */\n      dup3\n        /* \"#utility.yul\":22121:22153   */\n      tag_650\n      jump\t// in\n    tag_660:\n        /* \"#utility.yul\":22108:22153   */\n      swap1\n      pop\n        /* \"#utility.yul\":22032:22159   */\n      swap2\n      swap1\n      pop\n      jump\t// out\n        /* \"#utility.yul\":22165:22319   */\n    tag_409:\n        /* \"#utility.yul\":22249:22255   */\n      dup3\n        /* \"#utility.yul\":22244:22247   */\n      dup2\n        /* \"#utility.yul\":22239:22242   */\n      dup4\n        /* \"#utility.yul\":22226:22256   */\n      calldatacopy\n        /* \"#utility.yul\":22311:22312   */\n      0x00\n        /* \"#utility.yul\":22302:22308   */\n      dup4\n        /* \"#utility.yul\":22297:22300   */\n      dup4\n        /* \"#utility.yul\":22293:22309   */\n      add\n        /* \"#utility.yul\":22286:22313   */\n      mstore\n        /* \"#utility.yul\":22165:22319   */\n      pop\n      pop\n      pop\n      jump\t// out\n        /* \"#utility.yul\":22325:22632   */\n    tag_493:\n        /* \"#utility.yul\":22393:22394   */\n      0x00\n        /* \"#utility.yul\":22403:22516   */\n    tag_663:\n        /* \"#utility.yul\":22417:22423   */\n      dup4\n        /* \"#utility.yul\":22414:22415   */\n      dup2\n        /* \"#utility.yul\":22411:22424   */\n      lt\n        /* \"#utility.yul\":22403:22516   */\n      iszero\n      tag_665\n      jumpi\n        /* \"#utility.yul\":22502:22503   */\n      dup1\n        /* \"#utility.yul\":22497:22500   */\n      dup3\n        /* \"#utility.yul\":22493:22504   */\n      add\n        /* \"#utility.yul\":22487:22505   */\n      mload\n        /* \"#utility.yul\":22483:22484   */\n      dup2\n        /* \"#utility.yul\":22478:22481   */\n      dup5\n        /* \"#utility.yul\":22474:22485   */\n      add\n        /* \"#utility.yul\":22467:22506   */\n      mstore\n        /* \"#utility.yul\":22439:22441   */\n      0x20\n        /* \"#utility.yul\":22436:22437   */\n      dup2\n        /* \"#utility.yul\":22432:22442   */\n      add\n        /* \"#utility.yul\":22427:22442   */\n      swap1\n      pop\n        /* \"#utility.yul\":22403:22516   */\n      jump(tag_663)\n    tag_665:\n        /* \"#utility.yul\":22534:22540   */\n      dup4\n        /* \"#utility.yul\":22531:22532   */\n      dup2\n        /* \"#utility.yul\":22528:22541   */\n      gt\n        /* \"#utility.yul\":22525:22626   */\n      iszero\n      tag_666\n      jumpi\n        /* \"#utility.yul\":22614:22615   */\n      0x00\n        /* \"#utility.yul\":22605:22611   */\n      dup5\n        /* \"#utility.yul\":22600:22603   */\n      dup5\n        /* \"#utility.yul\":22596:22612   */\n      add\n        /* \"#utility.yul\":22589:22616   */\n      mstore\n        /* \"#utility.yul\":22525:22626   */\n    tag_666:\n        /* \"#utility.yul\":22374:22632   */\n      pop\n        /* \"#utility.yul\":22325:22632   */\n      pop\n      pop\n      pop\n      jump\t// out\n        /* \"#utility.yul\":22638:22958   */\n    tag_231:\n        /* \"#utility.yul\":22682:22688   */\n      0x00\n        /* \"#utility.yul\":22719:22720   */\n      0x02\n        /* \"#utility.yul\":22713:22717   */\n      dup3\n        /* \"#utility.yul\":22709:22721   */\n      div\n        /* \"#utility.yul\":22699:22721   */\n      swap1\n      pop\n        /* \"#utility.yul\":22766:22767   */\n      0x01\n        /* \"#utility.yul\":22760:22764   */\n      dup3\n        /* \"#utility.yul\":22756:22768   */\n      and\n        /* \"#utility.yul\":22787:22805   */\n      dup1\n        /* \"#utility.yul\":22777:22858   */\n      tag_668\n      jumpi\n        /* \"#utility.yul\":22843:22847   */\n      0x7f\n        /* \"#utility.yul\":22835:22841   */\n      dup3\n        /* \"#utility.yul\":22831:22848   */\n      and\n        /* \"#utility.yul\":22821:22848   */\n      swap2\n      pop\n        /* \"#utility.yul\":22777:22858   */\n    tag_668:\n        /* \"#utility.yul\":22905:22907   */\n      0x20\n        /* \"#utility.yul\":22897:22903   */\n      dup3\n        /* \"#utility.yul\":22894:22908   */\n      lt\n        /* \"#utility.yul\":22874:22892   */\n      dup2\n        /* \"#utility.yul\":22871:22909   */\n      eq\n        /* \"#utility.yul\":22868:22952   */\n      iszero\n      tag_669\n      jumpi\n        /* \"#utility.yul\":22924:22942   */\n      tag_670\n      tag_671\n      jump\t// in\n    tag_670:\n        /* \"#utility.yul\":22868:22952   */\n    tag_669:\n        /* \"#utility.yul\":22689:22958   */\n      pop\n        /* \"#utility.yul\":22638:22958   */\n      swap2\n      swap1\n      pop\n      jump\t// out\n        /* \"#utility.yul\":22964:23245   */\n    tag_637:\n        /* \"#utility.yul\":23047:23074   */\n      tag_673\n        /* \"#utility.yul\":23069:23073   */\n      dup3\n        /* \"#utility.yul\":23047:23074   */\n      tag_495\n      jump\t// in\n    tag_673:\n        /* \"#utility.yul\":23039:23045   */\n      dup2\n        /* \"#utility.yul\":23035:23075   */\n      add\n        /* \"#utility.yul\":23177:23183   */\n      dup2\n        /* \"#utility.yul\":23165:23175   */\n      dup2\n        /* \"#utility.yul\":23162:23184   */\n      lt\n        /* \"#utility.yul\":23141:23159   */\n      0xffffffffffffffff\n        /* \"#utility.yul\":23129:23139   */\n      dup3\n        /* \"#utility.yul\":23126:23160   */\n      gt\n        /* \"#utility.yul\":23123:23185   */\n      or\n        /* \"#utility.yul\":23120:23208   */\n      iszero\n      tag_674\n      jumpi\n        /* \"#utility.yul\":23188:23206   */\n      tag_675\n      tag_642\n      jump\t// in\n    tag_675:\n        /* \"#utility.yul\":23120:23208   */\n    tag_674:\n        /* \"#utility.yul\":23228:23238   */\n      dup1\n        /* \"#utility.yul\":23224:23226   */\n      0x40\n        /* \"#utility.yul\":23217:23239   */\n      mstore\n        /* \"#utility.yul\":23007:23245   */\n      pop\n        /* \"#utility.yul\":22964:23245   */\n      pop\n      pop\n      jump\t// out\n        /* \"#utility.yul\":23251:23431   */\n    tag_676:\n        /* \"#utility.yul\":23299:23376   */\n      0x4e487b7100000000000000000000000000000000000000000000000000000000\n        /* \"#utility.yul\":23296:23297   */\n      0x00\n        /* \"#utility.yul\":23289:23377   */\n      mstore\n        /* \"#utility.yul\":23396:23400   */\n      0x21\n        /* \"#utility.yul\":23393:23394   */\n      0x04\n        /* \"#utility.yul\":23386:23401   */\n      mstore\n        /* \"#utility.yul\":23420:23424   */\n      0x24\n        /* \"#utility.yul\":23417:23418   */\n      0x00\n        /* \"#utility.yul\":23410:23425   */\n      revert\n        /* \"#utility.yul\":23437:23617   */\n    tag_671:\n        /* \"#utility.yul\":23485:23562   */\n      0x4e487b7100000000000000000000000000000000000000000000000000000000\n        /* \"#utility.yul\":23482:23483   */\n      0x00\n        /* \"#utility.yul\":23475:23563   */\n      mstore\n        /* \"#utility.yul\":23582:23586   */\n      0x22\n        /* \"#utility.yul\":23579:23580   */\n      0x04\n        /* \"#utility.yul\":23572:23587   */\n      mstore\n        /* \"#utility.yul\":23606:23610   */\n      0x24\n        /* \"#utility.yul\":23603:23604   */\n      0x00\n        /* \"#utility.yul\":23596:23611   */\n      revert\n        /* \"#utility.yul\":23623:23803   */\n    tag_642:\n        /* \"#utility.yul\":23671:23748   */\n      0x4e487b7100000000000000000000000000000000000000000000000000000000\n        /* \"#utility.yul\":23668:23669   */\n      0x00\n        /* \"#utility.yul\":23661:23749   */\n      mstore\n        /* \"#utility.yul\":23768:23772   */\n      0x41\n        /* \"#utility.yul\":23765:23766   */\n      0x04\n        /* \"#utility.yul\":23758:23773   */\n      mstore\n        /* \"#utility.yul\":23792:23796   */\n      0x24\n        /* \"#utility.yul\":23789:23790   */\n      0x00\n        /* \"#utility.yul\":23782:23797   */\n      revert\n        /* \"#utility.yul\":23809:23926   */\n    tag_422:\n        /* \"#utility.yul\":23918:23919   */\n      0x00\n        /* \"#utility.yul\":23915:23916   */\n      dup1\n        /* \"#utility.yul\":23908:23920   */\n      revert\n        /* \"#utility.yul\":23932:24049   */\n    tag_407:\n        /* \"#utility.yul\":24041:24042   */\n      0x00\n        /* \"#utility.yul\":24038:24039   */\n      dup1\n        /* \"#utility.yul\":24031:24043   */\n      revert\n        /* \"#utility.yul\":24055:24172   */\n    tag_458:\n        /* \"#utility.yul\":24164:24165   */\n      0x00\n        /* \"#utility.yul\":24161:24162   */\n      dup1\n        /* \"#utility.yul\":24154:24166   */\n      revert\n        /* \"#utility.yul\":24178:24295   */\n    tag_439:\n        /* \"#utility.yul\":24287:24288   */\n      0x00\n        /* \"#utility.yul\":24284:24285   */\n      dup1\n        /* \"#utility.yul\":24277:24289   */\n      revert\n        /* \"#utility.yul\":24301:24403   */\n    tag_495:\n        /* \"#utility.yul\":24342:24348   */\n      0x00\n        /* \"#utility.yul\":24393:24395   */\n      0x1f\n        /* \"#utility.yul\":24389:24396   */\n      not\n        /* \"#utility.yul\":24384:24386   */\n      0x1f\n        /* \"#utility.yul\":24377:24382   */\n      dup4\n        /* \"#utility.yul\":24373:24387   */\n      add\n        /* \"#utility.yul\":24369:24397   */\n      and\n        /* \"#utility.yul\":24359:24397   */\n      swap1\n      pop\n        /* \"#utility.yul\":24301:24403   */\n      swap2\n      swap1\n      pop\n      jump\t// out\n        /* \"#utility.yul\":24409:24584   */\n    tag_500:\n        /* \"#utility.yul\":24549:24576   */\n      0x4b757273204d65726b657a69205a6174656e204d657663757400000000000000\n        /* \"#utility.yul\":24545:24546   */\n      0x00\n        /* \"#utility.yul\":24537:24543   */\n      dup3\n        /* \"#utility.yul\":24533:24547   */\n      add\n        /* \"#utility.yul\":24526:24577   */\n      mstore\n        /* \"#utility.yul\":24409:24584   */\n      pop\n      jump\t// out\n        /* \"#utility.yul\":24590:24763   */\n    tag_505:\n        /* \"#utility.yul\":24730:24755   */\n      0x556e6976657273697465204d657663757420446567696c000000000000000000\n        /* \"#utility.yul\":24726:24727   */\n      0x00\n        /* \"#utility.yul\":24718:24724   */\n      dup3\n        /* \"#utility.yul\":24714:24728   */\n      add\n        /* \"#utility.yul\":24707:24756   */\n      mstore\n        /* \"#utility.yul\":24590:24763   */\n      pop\n      jump\t// out\n        /* \"#utility.yul\":24769:24936   */\n    tag_510:\n        /* \"#utility.yul\":24909:24928   */\n      0x4b697369204d657663757420446567696c000000000000000000000000000000\n        /* \"#utility.yul\":24905:24906   */\n      0x00\n        /* \"#utility.yul\":24897:24903   */\n      dup3\n        /* \"#utility.yul\":24893:24907   */\n      add\n        /* \"#utility.yul\":24886:24929   */\n      mstore\n        /* \"#utility.yul\":24769:24936   */\n      pop\n      jump\t// out\n        /* \"#utility.yul\":24942:25116   */\n    tag_515:\n        /* \"#utility.yul\":25082:25108   */\n      0x4b616d75204b7572756d75205a6174656e204d65766375740000000000000000\n        /* \"#utility.yul\":25078:25079   */\n      0x00\n        /* \"#utility.yul\":25070:25076   */\n      dup3\n        /* \"#utility.yul\":25066:25080   */\n      add\n        /* \"#utility.yul\":25059:25109   */\n      mstore\n        /* \"#utility.yul\":24942:25116   */\n      pop\n      jump\t// out\n        /* \"#utility.yul\":25122:25290   */\n    tag_520:\n        /* \"#utility.yul\":25262:25282   */\n      0x4669726d61205a6174656e204d65766375740000000000000000000000000000\n        /* \"#utility.yul\":25258:25259   */\n      0x00\n        /* \"#utility.yul\":25250:25256   */\n      dup3\n        /* \"#utility.yul\":25246:25260   */\n      add\n        /* \"#utility.yul\":25239:25283   */\n      mstore\n        /* \"#utility.yul\":25122:25290   */\n      pop\n      jump\t// out\n        /* \"#utility.yul\":25296:25476   */\n    tag_525:\n        /* \"#utility.yul\":25436:25468   */\n      0x536572746966696b61204d65726b657a69205a6174656e204d65766375740000\n        /* \"#utility.yul\":25432:25433   */\n      0x00\n        /* \"#utility.yul\":25424:25430   */\n      dup3\n        /* \"#utility.yul\":25420:25434   */\n      add\n        /* \"#utility.yul\":25413:25469   */\n      mstore\n        /* \"#utility.yul\":25296:25476   */\n      pop\n      jump\t// out\n        /* \"#utility.yul\":25482:25703   */\n    tag_530:\n        /* \"#utility.yul\":25622:25656   */\n      0x536976696c20546f706c756d204b7572756c757375204d657663757420446567\n        /* \"#utility.yul\":25618:25619   */\n      0x00\n        /* \"#utility.yul\":25610:25616   */\n      dup3\n        /* \"#utility.yul\":25606:25620   */\n      add\n        /* \"#utility.yul\":25599:25657   */\n      mstore\n        /* \"#utility.yul\":25691:25695   */\n      0x696c000000000000000000000000000000000000000000000000000000000000\n        /* \"#utility.yul\":25686:25688   */\n      0x20\n        /* \"#utility.yul\":25678:25684   */\n      dup3\n        /* \"#utility.yul\":25674:25689   */\n      add\n        /* \"#utility.yul\":25667:25696   */\n      mstore\n        /* \"#utility.yul\":25482:25703   */\n      pop\n      jump\t// out\n        /* \"#utility.yul\":25709:25930   */\n    tag_535:\n        /* \"#utility.yul\":25849:25883   */\n      0x536976696c20546f706c756d204b7572756c757375205a6174656e204d657663\n        /* \"#utility.yul\":25845:25846   */\n      0x00\n        /* \"#utility.yul\":25837:25843   */\n      dup3\n        /* \"#utility.yul\":25833:25847   */\n      add\n        /* \"#utility.yul\":25826:25884   */\n      mstore\n        /* \"#utility.yul\":25918:25922   */\n      0x7574000000000000000000000000000000000000000000000000000000000000\n        /* \"#utility.yul\":25913:25915   */\n      0x20\n        /* \"#utility.yul\":25905:25911   */\n      dup3\n        /* \"#utility.yul\":25901:25916   */\n      add\n        /* \"#utility.yul\":25894:25923   */\n      mstore\n        /* \"#utility.yul\":25709:25930   */\n      pop\n      jump\t// out\n        /* \"#utility.yul\":25936:26109   */\n    tag_540:\n        /* \"#utility.yul\":26076:26101   */\n      0x556e6976657273697465205a6174656e204d6576637574000000000000000000\n        /* \"#utility.yul\":26072:26073   */\n      0x00\n        /* \"#utility.yul\":26064:26070   */\n      dup3\n        /* \"#utility.yul\":26060:26074   */\n      add\n        /* \"#utility.yul\":26053:26102   */\n      mstore\n        /* \"#utility.yul\":25936:26109   */\n      pop\n      jump\t// out\n        /* \"#utility.yul\":26115:26295   */\n    tag_545:\n        /* \"#utility.yul\":26255:26287   */\n      0x536572746966696b61204d65726b657a69204d657663757420446567696c0000\n        /* \"#utility.yul\":26251:26252   */\n      0x00\n        /* \"#utility.yul\":26243:26249   */\n      dup3\n        /* \"#utility.yul\":26239:26253   */\n      add\n        /* \"#utility.yul\":26232:26288   */\n      mstore\n        /* \"#utility.yul\":26115:26295   */\n      pop\n      jump\t// out\n        /* \"#utility.yul\":26301:26468   */\n    tag_550:\n        /* \"#utility.yul\":26441:26460   */\n      0x4b697369205a6174656e204d6576637574000000000000000000000000000000\n        /* \"#utility.yul\":26437:26438   */\n      0x00\n        /* \"#utility.yul\":26429:26435   */\n      dup3\n        /* \"#utility.yul\":26425:26439   */\n      add\n        /* \"#utility.yul\":26418:26461   */\n      mstore\n        /* \"#utility.yul\":26301:26468   */\n      pop\n      jump\t// out\n        /* \"#utility.yul\":26474:26648   */\n    tag_555:\n        /* \"#utility.yul\":26614:26640   */\n      0x4b616d75204b7572756d75204d657663757420446567696c0000000000000000\n        /* \"#utility.yul\":26610:26611   */\n      0x00\n        /* \"#utility.yul\":26602:26608   */\n      dup3\n        /* \"#utility.yul\":26598:26612   */\n      add\n        /* \"#utility.yul\":26591:26641   */\n      mstore\n        /* \"#utility.yul\":26474:26648   */\n      pop\n      jump\t// out\n        /* \"#utility.yul\":26654:26822   */\n    tag_560:\n        /* \"#utility.yul\":26794:26814   */\n      0x4669726d61204d657663757420446567696c0000000000000000000000000000\n        /* \"#utility.yul\":26790:26791   */\n      0x00\n        /* \"#utility.yul\":26782:26788   */\n      dup3\n        /* \"#utility.yul\":26778:26792   */\n      add\n        /* \"#utility.yul\":26771:26815   */\n      mstore\n        /* \"#utility.yul\":26654:26822   */\n      pop\n      jump\t// out\n        /* \"#utility.yul\":26828:27003   */\n    tag_565:\n        /* \"#utility.yul\":26968:26995   */\n      0x4b757273204d65726b657a69204d657663757420446567696c00000000000000\n        /* \"#utility.yul\":26964:26965   */\n      0x00\n        /* \"#utility.yul\":26956:26962   */\n      dup3\n        /* \"#utility.yul\":26952:26966   */\n      add\n        /* \"#utility.yul\":26945:26996   */\n      mstore\n        /* \"#utility.yul\":26828:27003   */\n      pop\n      jump\t// out\n        /* \"#utility.yul\":27009:27122   */\n    tag_653:\n        /* \"#utility.yul\":27090:27091   */\n      0x04\n        /* \"#utility.yul\":27083:27088   */\n      dup2\n        /* \"#utility.yul\":27080:27092   */\n      lt\n        /* \"#utility.yul\":27070:27116   */\n      tag_700\n      jumpi\n        /* \"#utility.yul\":27096:27114   */\n      tag_701\n      tag_676\n      jump\t// in\n    tag_701:\n        /* \"#utility.yul\":27070:27116   */\n    tag_700:\n        /* \"#utility.yul\":27009:27122   */\n      pop\n      jump\t// out\n        /* \"#utility.yul\":27128:27250   */\n    tag_413:\n        /* \"#utility.yul\":27201:27225   */\n      tag_703\n        /* \"#utility.yul\":27219:27224   */\n      dup2\n        /* \"#utility.yul\":27201:27225   */\n      tag_477\n      jump\t// in\n    tag_703:\n        /* \"#utility.yul\":27194:27199   */\n      dup2\n        /* \"#utility.yul\":27191:27226   */\n      eq\n        /* \"#utility.yul\":27181:27244   */\n      tag_704\n      jumpi\n        /* \"#utility.yul\":27240:27241   */\n      0x00\n        /* \"#utility.yul\":27237:27238   */\n      dup1\n        /* \"#utility.yul\":27230:27242   */\n      revert\n        /* \"#utility.yul\":27181:27244   */\n    tag_704:\n        /* \"#utility.yul\":27128:27250   */\n      pop\n      jump\t// out\n        /* \"#utility.yul\":27256:27372   */\n    tag_417:\n        /* \"#utility.yul\":27326:27347   */\n      tag_706\n        /* \"#utility.yul\":27341:27346   */\n      dup2\n        /* \"#utility.yul\":27326:27347   */\n      tag_481\n      jump\t// in\n    tag_706:\n        /* \"#utility.yul\":27319:27324   */\n      dup2\n        /* \"#utility.yul\":27316:27348   */\n      eq\n        /* \"#utility.yul\":27306:27366   */\n      tag_707\n      jumpi\n        /* \"#utility.yul\":27362:27363   */\n      0x00\n        /* \"#utility.yul\":27359:27360   */\n      dup1\n        /* \"#utility.yul\":27352:27364   */\n      revert\n        /* \"#utility.yul\":27306:27366   */\n    tag_707:\n        /* \"#utility.yul\":27256:27372   */\n      pop\n      jump\t// out\n        /* \"#utility.yul\":27378:27500   */\n    tag_427:\n        /* \"#utility.yul\":27451:27475   */\n      tag_709\n        /* \"#utility.yul\":27469:27474   */\n      dup2\n        /* \"#utility.yul\":27451:27475   */\n      tag_573\n      jump\t// in\n    tag_709:\n        /* \"#utility.yul\":27444:27449   */\n      dup2\n        /* \"#utility.yul\":27441:27476   */\n      eq\n        /* \"#utility.yul\":27431:27494   */\n      tag_710\n      jumpi\n        /* \"#utility.yul\":27490:27491   */\n      0x00\n        /* \"#utility.yul\":27487:27488   */\n      dup1\n        /* \"#utility.yul\":27480:27492   */\n      revert\n        /* \"#utility.yul\":27431:27494   */\n    tag_710:\n        /* \"#utility.yul\":27378:27500   */\n      pop\n      jump\t// out\n        /* \"#utility.yul\":27506:27626   */\n    tag_431:\n        /* \"#utility.yul\":27578:27601   */\n      tag_712\n        /* \"#utility.yul\":27595:27600   */\n      dup2\n        /* \"#utility.yul\":27578:27601   */\n      tag_577\n      jump\t// in\n    tag_712:\n        /* \"#utility.yul\":27571:27576   */\n      dup2\n        /* \"#utility.yul\":27568:27602   */\n      eq\n        /* \"#utility.yul\":27558:27620   */\n      tag_713\n      jumpi\n        /* \"#utility.yul\":27616:27617   */\n      0x00\n        /* \"#utility.yul\":27613:27614   */\n      dup1\n        /* \"#utility.yul\":27606:27618   */\n      revert\n        /* \"#utility.yul\":27558:27620   */\n    tag_713:\n        /* \"#utility.yul\":27506:27626   */\n      pop\n      jump\t// out\n        /* \"#utility.yul\":27632:27750   */\n    tag_435:\n        /* \"#utility.yul\":27703:27725   */\n      tag_715\n        /* \"#utility.yul\":27719:27724   */\n      dup2\n        /* \"#utility.yul\":27703:27725   */\n      tag_581\n      jump\t// in\n    tag_715:\n        /* \"#utility.yul\":27696:27701   */\n      dup2\n        /* \"#utility.yul\":27693:27726   */\n      eq\n        /* \"#utility.yul\":27683:27744   */\n      tag_716\n      jumpi\n        /* \"#utility.yul\":27740:27741   */\n      0x00\n        /* \"#utility.yul\":27737:27738   */\n      dup1\n        /* \"#utility.yul\":27730:27742   */\n      revert\n        /* \"#utility.yul\":27683:27744   */\n    tag_716:\n        /* \"#utility.yul\":27632:27750   */\n      pop\n      jump\t// out\n\n    auxdata: 0xa26469706673582212204d986f46028ff56a968d40c34ffefb0144e76ea20b3244d69a98bc2f8193e21a64736f6c63430008070033\n}\n",
				"bytecode": {
					"linkReferences": {},
					"object": "608060405234801561001057600080fd5b50613a8a806100206000396000f3fe608060405234801561001057600080fd5b506004361061025d5760003560e01c80639bfc4dbd11610146578063cbc92809116100c3578063e24047ca11610087578063e24047ca146107a7578063e5130508146107d7578063f0040eb914610807578063f198185014610837578063f54acc6514610853578063f63c649f1461086f5761025d565b8063cbc92809146106f3578063d25aab8514610723578063d5f6d56c1461073f578063d73964141461075b578063d88d8c121461078b5761025d565b8063b2a825bb1161010a578063b2a825bb1461063a578063b98ccefd14610656578063ba479b7e14610686578063bd35a506146106bb578063c6da8cfe146106d75761025d565b80639bfc4dbd146105995780639dc30114146105b5578063a4e7ae05146105d1578063a81dc17914610602578063afb61b1e1461061e5761025d565b806336fd2633116101df578063548fa620116101a3578063548fa620146104af57806371af892d146104cb5780637d0fa287146104e95780638c8488851461051b57806391e9528a1461054b5780639a8c9119146105675761025d565b806336fd2633146103f857806339987f9414610414578063462248531461044757806350d2a06014610463578063514e03c71461047f5761025d565b80631916e139116102265780631916e139146103165780631d5955801461034857806328266697146103645780632d087d7014610396578063356b1f1e146103c65761025d565b80621d54ab14610262578063024eb6bc1461027e578063139884ec146102ae578063150596f4146102de57806319023bf3146102fa575b600080fd5b61027c60048036038101906102779190612e9b565b61088b565b005b61029860048036038101906102939190612d58565b6109e6565b6040516102a591906131de565b60405180910390f35b6102c860048036038101906102c39190612d58565b610a3f565b6040516102d591906131de565b60405180910390f35b6102f860048036038101906102f39190612e9b565b610a99565b005b610314600480360381019061030f9190612e9b565b610bf3565b005b610330600480360381019061032b9190612d58565b610d4e565b60405161033f93929190613268565b60405180910390f35b610362600480360381019061035d9190612d58565b610e1a565b005b61037e60048036038101906103799190612d58565b610ee7565b60405161038d93929190613268565b60405180910390f35b6103b060048036038101906103ab9190612d58565b610fb3565b6040516103bd91906131de565b60405180910390f35b6103e060048036038101906103db9190612d58565b61100c565b6040516103ef93929190613268565b60405180910390f35b610412600480360381019061040d9190612d85565b6110d8565b005b61042e60048036038101906104299190612d58565b61119f565b60405161043e94939291906132a6565b60405180910390f35b610461600480360381019061045c9190612e9b565b611271565b005b61047d60048036038101906104789190612d58565b6113cc565b005b61049960048036038101906104949190612d58565b611491565b6040516104a691906131de565b60405180910390f35b6104c960048036038101906104c49190612d58565b6114ea565b005b6104d36115af565b6040516104e091906131c3565b60405180910390f35b61050360048036038101906104fe9190612d58565b6115d3565b60405161051293929190613268565b60405180910390f35b61053560048036038101906105309190612d58565b61169f565b60405161054291906131de565b60405180910390f35b61056560048036038101906105609190612e9b565b6116f8565b005b610581600480360381019061057c9190612d58565b611852565b60405161059093929190613268565b60405180910390f35b6105b360048036038101906105ae9190612d58565b61191e565b005b6105cf60048036038101906105ca9190612e9b565b6119e3565b005b6105eb60048036038101906105e69190612f0a565b611b3e565b6040516105f99291906134b2565b60405180910390f35b61061c60048036038101906106179190612e18565b611bfa565b005b61063860048036038101906106339190612d58565b611d9c565b005b610654600480360381019061064f9190612e9b565b611e61565b005b610670600480360381019061066b9190612d58565b611fbb565b60405161067d91906131de565b60405180910390f35b6106a0600480360381019061069b9190612d58565b612014565b6040516106b2969594939291906131f9565b60405180910390f35b6106d560048036038101906106d09190612d58565b6121a8565b005b6106f160048036038101906106ec9190612e9b565b612249565b005b61070d60048036038101906107089190612d58565b6123a3565b60405161071a91906131de565b60405180910390f35b61073d60048036038101906107389190612e18565b6123ce565b005b61075960048036038101906107549190612e9b565b612571565b005b61077560048036038101906107709190612d58565b6126cb565b60405161078291906131de565b60405180910390f35b6107a560048036038101906107a09190612d58565b612723565b005b6107c160048036038101906107bc9190612d58565b6127e8565b6040516107ce91906131de565b60405180910390f35b6107f160048036038101906107ec9190612d58565b612841565b6040516107fe91906131de565b60405180910390f35b610821600480360381019061081c9190612d58565b61289b565b60405161082e91906131de565b60405180910390f35b610851600480360381019061084c9190612dd8565b6128f4565b005b61086d60048036038101906108689190612d58565b61299a565b005b61088960048036038101906108849190612e9b565b612a41565b005b6108948361289b565b156108d4576040517f08c379a00000000000000000000000000000000000000000000000000000000081526004016108cb906133f2565b60405180910390fd5b6001600460008573ffffffffffffffffffffffffffffffffffffffff1673ffffffffffffffffffffffffffffffffffffffff16815260200190815260200160002060000160006101000a81548160ff02191690831515021790555081600460008573ffffffffffffffffffffffffffffffffffffffff1673ffffffffffffffffffffffffffffffffffffffff1681526020019081526020016000206001019080519060200190610985929190612b9c565b5080600460008573ffffffffffffffffffffffffffffffffffffffff1673ffffffffffffffffffffffffffffffffffffffff16815260200190815260200160002060020160006101000a81548160ff021916908360ff160217905550505050565b6000600760008373ffffffffffffffffffffffffffffffffffffffff1673ffffffffffffffffffffffffffffffffffffffff16815260200190815260200160002060000160009054906101000a900460ff169050919050565b60008173ffffffffffffffffffffffffffffffffffffffff16600160009054906101000a900473ffffffffffffffffffffffffffffffffffffffff1673ffffffffffffffffffffffffffffffffffffffff16149050919050565b610aa283611491565b610ae1576040517f08c379a0000000000000000000000000000000000000000000000000000000008152600401610ad890613452565b60405180910390fd5b6001600860008573ffffffffffffffffffffffffffffffffffffffff1673ffffffffffffffffffffffffffffffffffffffff16815260200190815260200160002060000160006101000a81548160ff02191690831515021790555081600860008573ffffffffffffffffffffffffffffffffffffffff1673ffffffffffffffffffffffffffffffffffffffff1681526020019081526020016000206001019080519060200190610b92929190612b9c565b5080600860008573ffffffffffffffffffffffffffffffffffffffff1673ffffffffffffffffffffffffffffffffffffffff16815260200190815260200160002060020160006101000a81548160ff021916908360ff160217905550505050565b610bfc8361169f565b15610c3c576040517f08c379a0000000000000000000000000000000000000000000000000000000008152600401610c33906133d2565b60405180910390fd5b6001600960008573ffffffffffffffffffffffffffffffffffffffff1673ffffffffffffffffffffffffffffffffffffffff16815260200190815260200160002060000160006101000a81548160ff02191690831515021790555081600960008573ffffffffffffffffffffffffffffffffffffffff1673ffffffffffffffffffffffffffffffffffffffff1681526020019081526020016000206001019080519060200190610ced929190612b9c565b5080600960008573ffffffffffffffffffffffffffffffffffffffff1673ffffffffffffffffffffffffffffffffffffffff16815260200190815260200160002060020160006101000a81548160ff021916908360ff160217905550505050565b60076020528060005260406000206000915090508060000160009054906101000a900460ff1690806001018054610d849061362e565b80601f0160208091040260200160405190810160405280929190818152602001828054610db09061362e565b8015610dfd5780601f10610dd257610100808354040283529160200191610dfd565b820191906000526020600020905b815481529060010190602001808311610de057829003601f168201915b5050505050908060020160009054906101000a900460ff16905083565b610e2381610fb3565b610e62576040517f08c379a0000000000000000000000000000000000000000000000000000000008152600401610e5990613472565b60405180910390fd5b600660008273ffffffffffffffffffffffffffffffffffffffff1673ffffffffffffffffffffffffffffffffffffffff168152602001908152602001600020600080820160006101000a81549060ff02191690556000820160016101000a81549060ff02191690556001820160009055600282016000610ee29190612c22565b505050565b60046020528060005260406000206000915090508060000160009054906101000a900460ff1690806001018054610f1d9061362e565b80601f0160208091040260200160405190810160405280929190818152602001828054610f499061362e565b8015610f965780601f10610f6b57610100808354040283529160200191610f96565b820191906000526020600020905b815481529060010190602001808311610f7957829003601f168201915b5050505050908060020160009054906101000a900460ff16905083565b6000600660008373ffffffffffffffffffffffffffffffffffffffff1673ffffffffffffffffffffffffffffffffffffffff16815260200190815260200160002060000160009054906101000a900460ff169050919050565b600a6020528060005260406000206000915090508060000160009054906101000a900460ff16908060010180546110429061362e565b80601f016020809104026020016040519081016040528092919081815260200182805461106e9061362e565b80156110bb5780601f10611090576101008083540402835291602001916110bb565b820191906000526020600020905b81548152906001019060200180831161109e57829003601f168201915b5050505050908060020160009054906101000a900460ff16905083565b826000806101000a81548173ffffffffffffffffffffffffffffffffffffffff021916908373ffffffffffffffffffffffffffffffffffffffff16021790555081600160006101000a81548173ffffffffffffffffffffffffffffffffffffffff021916908373ffffffffffffffffffffffffffffffffffffffff16021790555080600260006101000a81548173ffffffffffffffffffffffffffffffffffffffff021916908373ffffffffffffffffffffffffffffffffffffffff160217905550505050565b60066020528060005260406000206000915090508060000160009054906101000a900460ff16908060000160019054906101000a900460ff16908060010154908060020180546111ee9061362e565b80601f016020809104026020016040519081016040528092919081815260200182805461121a9061362e565b80156112675780601f1061123c57610100808354040283529160200191611267565b820191906000526020600020905b81548152906001019060200180831161124a57829003601f168201915b5050505050905084565b61127a836109e6565b156112ba576040517f08c379a00000000000000000000000000000000000000000000000000000000081526004016112b1906132f2565b60405180910390fd5b6001600760008573ffffffffffffffffffffffffffffffffffffffff1673ffffffffffffffffffffffffffffffffffffffff16815260200190815260200160002060000160006101000a81548160ff02191690831515021790555081600760008573ffffffffffffffffffffffffffffffffffffffff1673ffffffffffffffffffffffffffffffffffffffff168152602001908152602001600020600101908051906020019061136b929190612b9c565b5080600760008573ffffffffffffffffffffffffffffffffffffffff1673ffffffffffffffffffffffffffffffffffffffff16815260200190815260200160002060020160006101000a81548160ff021916908360ff160217905550505050565b6113d581611491565b611414576040517f08c379a000000000000000000000000000000000000000000000000000000000815260040161140b90613452565b60405180910390fd5b600860008273ffffffffffffffffffffffffffffffffffffffff1673ffffffffffffffffffffffffffffffffffffffff168152602001908152602001600020600080820160006101000a81549060ff02191690556001820160006114789190612c22565b6002820160006101000a81549060ff0219169055505050565b6000600860008373ffffffffffffffffffffffffffffffffffffffff1673ffffffffffffffffffffffffffffffffffffffff16815260200190815260200160002060000160009054906101000a900460ff169050919050565b6114f3816127e8565b611532576040517f08c379a000000000000000000000000000000000000000000000000000000000815260040161152990613412565b60405180910390fd5b600a60008273ffffffffffffffffffffffffffffffffffffffff1673ffffffffffffffffffffffffffffffffffffffff168152602001908152602001600020600080820160006101000a81549060ff02191690556001820160006115969190612c22565b6002820160006101000a81549060ff0219169055505050565b60008054906101000a900473ffffffffffffffffffffffffffffffffffffffff1681565b60086020528060005260406000206000915090508060000160009054906101000a900460ff16908060010180546116099061362e565b80601f01602080910402602001604051908101604052809291908181526020018280546116359061362e565b80156116825780601f1061165757610100808354040283529160200191611682565b820191906000526020600020905b81548152906001019060200180831161166557829003601f168201915b5050505050908060020160009054906101000a900460ff16905083565b6000600960008373ffffffffffffffffffffffffffffffffffffffff1673ffffffffffffffffffffffffffffffffffffffff16815260200190815260200160002060000160009054906101000a900460ff169050919050565b6117018361169f565b611740576040517f08c379a0000000000000000000000000000000000000000000000000000000008152600401611737906133b2565b60405180910390fd5b6001600960008573ffffffffffffffffffffffffffffffffffffffff1673ffffffffffffffffffffffffffffffffffffffff16815260200190815260200160002060000160006101000a81548160ff02191690831515021790555081600960008573ffffffffffffffffffffffffffffffffffffffff1673ffffffffffffffffffffffffffffffffffffffff16815260200190815260200160002060010190805190602001906117f1929190612b9c565b5080600960008573ffffffffffffffffffffffffffffffffffffffff1673ffffffffffffffffffffffffffffffffffffffff16815260200190815260200160002060020160006101000a81548160ff021916908360ff160217905550505050565b60096020528060005260406000206000915090508060000160009054906101000a900460ff16908060010180546118889061362e565b80601f01602080910402602001604051908101604052809291908181526020018280546118b49061362e565b80156119015780601f106118d657610100808354040283529160200191611901565b820191906000526020600020905b8154815290600101906020018083116118e457829003601f168201915b5050505050908060020160009054906101000a900460ff16905083565b6119278161289b565b611966576040517f08c379a000000000000000000000000000000000000000000000000000000000815260040161195d906133f2565b60405180910390fd5b600460008273ffffffffffffffffffffffffffffffffffffffff1673ffffffffffffffffffffffffffffffffffffffff168152602001908152602001600020600080820160006101000a81549060ff02191690556001820160006119ca9190612c22565b6002820160006101000a81549060ff0219169055505050565b6119ec836127e8565b15611a2c576040517f08c379a0000000000000000000000000000000000000000000000000000000008152600401611a2390613392565b60405180910390fd5b6001600a60008573ffffffffffffffffffffffffffffffffffffffff1673ffffffffffffffffffffffffffffffffffffffff16815260200190815260200160002060000160006101000a81548160ff02191690831515021790555081600a60008573ffffffffffffffffffffffffffffffffffffffff1673ffffffffffffffffffffffffffffffffffffffff1681526020019081526020016000206001019080519060200190611add929190612b9c565b5080600a60008573ffffffffffffffffffffffffffffffffffffffff1673ffffffffffffffffffffffffffffffffffffffff16815260200190815260200160002060020160006101000a81548160ff021916908360ff160217905550505050565b600b6020528060005260406000206000915090508060000160009054906101000a900463ffffffff1690806001018054611b779061362e565b80601f0160208091040260200160405190810160405280929190818152602001828054611ba39061362e565b8015611bf05780601f10611bc557610100808354040283529160200191611bf0565b820191906000526020600020905b815481529060010190602001808311611bd357829003601f168201915b5050505050905082565b611c0384610fb3565b611c42576040517f08c379a0000000000000000000000000000000000000000000000000000000008152600401611c3990613472565b60405180910390fd5b6001600660008673ffffffffffffffffffffffffffffffffffffffff1673ffffffffffffffffffffffffffffffffffffffff16815260200190815260200160002060000160006101000a81548160ff02191690831515021790555082600660008673ffffffffffffffffffffffffffffffffffffffff1673ffffffffffffffffffffffffffffffffffffffff1681526020019081526020016000206002019080519060200190611cf3929190612b9c565b5080600660008673ffffffffffffffffffffffffffffffffffffffff1673ffffffffffffffffffffffffffffffffffffffff16815260200190815260200160002060000160016101000a81548160ff021916908360ff16021790555081600660008673ffffffffffffffffffffffffffffffffffffffff1673ffffffffffffffffffffffffffffffffffffffff1681526020019081526020016000206001018190555050505050565b611da5816109e6565b611de4576040517f08c379a0000000000000000000000000000000000000000000000000000000008152600401611ddb90613492565b60405180910390fd5b600760008273ffffffffffffffffffffffffffffffffffffffff1673ffffffffffffffffffffffffffffffffffffffff168152602001908152602001600020600080820160006101000a81549060ff0219169055600182016000611e489190612c22565b6002820160006101000a81549060ff0219169055505050565b611e6a836127e8565b611ea9576040517f08c379a0000000000000000000000000000000000000000000000000000000008152600401611ea090613412565b60405180910390fd5b6001600a60008573ffffffffffffffffffffffffffffffffffffffff1673ffffffffffffffffffffffffffffffffffffffff16815260200190815260200160002060000160006101000a81548160ff02191690831515021790555081600a60008573ffffffffffffffffffffffffffffffffffffffff1673ffffffffffffffffffffffffffffffffffffffff1681526020019081526020016000206001019080519060200190611f5a929190612b9c565b5080600a60008573ffffffffffffffffffffffffffffffffffffffff1673ffffffffffffffffffffffffffffffffffffffff16815260200190815260200160002060020160006101000a81548160ff021916908360ff160217905550505050565b6000600360008373ffffffffffffffffffffffffffffffffffffffff1673ffffffffffffffffffffffffffffffffffffffff16815260200190815260200160002060000160009054906101000a900460ff169050919050565b60056020528060005260406000206000915090508060000160009054906101000a900460ff16908060000160019054906101000a900473ffffffffffffffffffffffffffffffffffffffff16908060000160159054906101000a900461ffff16908060000160179054906101000a900460ff16908060010180546120979061362e565b80601f01602080910402602001604051908101604052809291908181526020018280546120c39061362e565b80156121105780601f106120e557610100808354040283529160200191612110565b820191906000526020600020905b8154815290600101906020018083116120f357829003601f168201915b5050505050908060020180546121259061362e565b80601f01602080910402602001604051908101604052809291908181526020018280546121519061362e565b801561219e5780601f106121735761010080835404028352916020019161219e565b820191906000526020600020905b81548152906001019060200180831161218157829003601f168201915b5050505050905086565b6121b181611fbb565b6121f0576040517f08c379a00000000000000000000000000000000000000000000000000000000081526004016121e790613332565b60405180910390fd5b600360008273ffffffffffffffffffffffffffffffffffffffff1673ffffffffffffffffffffffffffffffffffffffff168152602001908152602001600020600080820160006101000a81549060ff0219169055505050565b6122528361289b565b612291576040517f08c379a000000000000000000000000000000000000000000000000000000000815260040161228890613312565b60405180910390fd5b6001600460008573ffffffffffffffffffffffffffffffffffffffff1673ffffffffffffffffffffffffffffffffffffffff16815260200190815260200160002060000160006101000a81548160ff02191690831515021790555081600460008573ffffffffffffffffffffffffffffffffffffffff1673ffffffffffffffffffffffffffffffffffffffff1681526020019081526020016000206001019080519060200190612342929190612b9c565b5080600460008573ffffffffffffffffffffffffffffffffffffffff1673ffffffffffffffffffffffffffffffffffffffff16815260200190815260200160002060020160006101000a81548160ff021916908360ff160217905550505050565b60036020528060005260406000206000915090508060000160009054906101000a900460ff16905081565b6123d784610fb3565b15612417576040517f08c379a000000000000000000000000000000000000000000000000000000000815260040161240e90613372565b60405180910390fd5b6001600660008673ffffffffffffffffffffffffffffffffffffffff1673ffffffffffffffffffffffffffffffffffffffff16815260200190815260200160002060000160006101000a81548160ff02191690831515021790555082600660008673ffffffffffffffffffffffffffffffffffffffff1673ffffffffffffffffffffffffffffffffffffffff16815260200190815260200160002060020190805190602001906124c8929190612b9c565b5080600660008673ffffffffffffffffffffffffffffffffffffffff1673ffffffffffffffffffffffffffffffffffffffff16815260200190815260200160002060000160016101000a81548160ff021916908360ff16021790555081600660008673ffffffffffffffffffffffffffffffffffffffff1673ffffffffffffffffffffffffffffffffffffffff1681526020019081526020016000206001018190555050505050565b61257a836109e6565b6125b9576040517f08c379a00000000000000000000000000000000000000000000000000000000081526004016125b090613492565b60405180910390fd5b6001600760008573ffffffffffffffffffffffffffffffffffffffff1673ffffffffffffffffffffffffffffffffffffffff16815260200190815260200160002060000160006101000a81548160ff02191690831515021790555081600760008573ffffffffffffffffffffffffffffffffffffffff1673ffffffffffffffffffffffffffffffffffffffff168152602001908152602001600020600101908051906020019061266a929190612b9c565b5080600760008573ffffffffffffffffffffffffffffffffffffffff1673ffffffffffffffffffffffffffffffffffffffff16815260200190815260200160002060020160006101000a81548160ff021916908360ff160217905550505050565b60008173ffffffffffffffffffffffffffffffffffffffff1660008054906101000a900473ffffffffffffffffffffffffffffffffffffffff1673ffffffffffffffffffffffffffffffffffffffff16149050919050565b61272c8161169f565b61276b576040517f08c379a0000000000000000000000000000000000000000000000000000000008152600401612762906133b2565b60405180910390fd5b600960008273ffffffffffffffffffffffffffffffffffffffff1673ffffffffffffffffffffffffffffffffffffffff168152602001908152602001600020600080820160006101000a81549060ff02191690556001820160006127cf9190612c22565b6002820160006101000a81549060ff0219169055505050565b6000600a60008373ffffffffffffffffffffffffffffffffffffffff1673ffffffffffffffffffffffffffffffffffffffff16815260200190815260200160002060000160009054906101000a900460ff169050919050565b60008173ffffffffffffffffffffffffffffffffffffffff16600260009054906101000a900473ffffffffffffffffffffffffffffffffffffffff1673ffffffffffffffffffffffffffffffffffffffff16149050919050565b6000600460008373ffffffffffffffffffffffffffffffffffffffff1673ffffffffffffffffffffffffffffffffffffffff16815260200190815260200160002060000160009054906101000a900460ff169050919050565b6128fd82611fbb565b61293c576040517f08c379a000000000000000000000000000000000000000000000000000000000815260040161293390613332565b60405180910390fd5b80600360008473ffffffffffffffffffffffffffffffffffffffff1673ffffffffffffffffffffffffffffffffffffffff16815260200190815260200160002060000160006101000a81548160ff0219169083151502179055505050565b6129a381611fbb565b156129e3576040517f08c379a00000000000000000000000000000000000000000000000000000000081526004016129da90613432565b60405180910390fd5b6001600360008373ffffffffffffffffffffffffffffffffffffffff1673ffffffffffffffffffffffffffffffffffffffff16815260200190815260200160002060000160006101000a81548160ff02191690831515021790555050565b612a4a83611491565b15612a8a576040517f08c379a0000000000000000000000000000000000000000000000000000000008152600401612a8190613352565b60405180910390fd5b6001600860008573ffffffffffffffffffffffffffffffffffffffff1673ffffffffffffffffffffffffffffffffffffffff16815260200190815260200160002060000160006101000a81548160ff02191690831515021790555081600860008573ffffffffffffffffffffffffffffffffffffffff1673ffffffffffffffffffffffffffffffffffffffff1681526020019081526020016000206001019080519060200190612b3b929190612b9c565b5080600860008573ffffffffffffffffffffffffffffffffffffffff1673ffffffffffffffffffffffffffffffffffffffff16815260200190815260200160002060020160006101000a81548160ff021916908360ff160217905550505050565b828054612ba89061362e565b90600052602060002090601f016020900481019282612bca5760008555612c11565b82601f10612be357805160ff1916838001178555612c11565b82800160010185558215612c11579182015b82811115612c10578251825591602001919060010190612bf5565b5b509050612c1e9190612c62565b5090565b508054612c2e9061362e565b6000825580601f10612c405750612c5f565b601f016020900490600052602060002090810190612c5e9190612c62565b5b50565b5b80821115612c7b576000816000905550600101612c63565b5090565b6000612c92612c8d84613507565b6134e2565b905082815260208101848484011115612cae57612cad613723565b5b612cb98482856135ec565b509392505050565b600081359050612cd0816139e1565b92915050565b600081359050612ce5816139f8565b92915050565b600082601f830112612d0057612cff61371e565b5b8135612d10848260208601612c7f565b91505092915050565b600081359050612d2881613a0f565b92915050565b600081359050612d3d81613a26565b92915050565b600081359050612d5281613a3d565b92915050565b600060208284031215612d6e57612d6d61372d565b5b6000612d7c84828501612cc1565b91505092915050565b600080600060608486031215612d9e57612d9d61372d565b5b6000612dac86828701612cc1565b9350506020612dbd86828701612cc1565b9250506040612dce86828701612cc1565b9150509250925092565b60008060408385031215612def57612dee61372d565b5b6000612dfd85828601612cc1565b9250506020612e0e85828601612cd6565b9150509250929050565b60008060008060808587031215612e3257612e3161372d565b5b6000612e4087828801612cc1565b945050602085013567ffffffffffffffff811115612e6157612e60613728565b5b612e6d87828801612ceb565b9350506040612e7e87828801612d19565b9250506060612e8f87828801612d43565b91505092959194509250565b600080600060608486031215612eb457612eb361372d565b5b6000612ec286828701612cc1565b935050602084013567ffffffffffffffff811115612ee357612ee2613728565b5b612eef86828701612ceb565b9250506040612f0086828701612d43565b9150509250925092565b600060208284031215612f2057612f1f61372d565b5b6000612f2e84828501612d2e565b91505092915050565b612f4081613554565b82525050565b612f4f81613566565b82525050565b612f5e816135da565b82525050565b6000612f6f82613538565b612f798185613543565b9350612f898185602086016135fb565b612f9281613732565b840191505092915050565b6000612faa601983613543565b9150612fb582613743565b602082019050919050565b6000612fcd601783613543565b9150612fd88261376c565b602082019050919050565b6000612ff0601183613543565b9150612ffb82613795565b602082019050919050565b6000613013601883613543565b915061301e826137be565b602082019050919050565b6000613036601283613543565b9150613041826137e7565b602082019050919050565b6000613059601e83613543565b915061306482613810565b602082019050919050565b600061307c602283613543565b915061308782613839565b604082019050919050565b600061309f602283613543565b91506130aa82613888565b604082019050919050565b60006130c2601783613543565b91506130cd826138d7565b602082019050919050565b60006130e5601e83613543565b91506130f082613900565b602082019050919050565b6000613108601183613543565b915061311382613929565b602082019050919050565b600061312b601883613543565b915061313682613952565b602082019050919050565b600061314e601283613543565b91506131598261397b565b602082019050919050565b6000613171601983613543565b915061317c826139a4565b602082019050919050565b61319081613585565b82525050565b61319f816135b3565b82525050565b6131ae816135bd565b82525050565b6131bd816135cd565b82525050565b60006020820190506131d86000830184612f37565b92915050565b60006020820190506131f36000830184612f46565b92915050565b600060c08201905061320e6000830189612f46565b61321b6020830188612f37565b6132286040830187613187565b6132356060830186612f55565b81810360808301526132478185612f64565b905081810360a083015261325b8184612f64565b9050979650505050505050565b600060608201905061327d6000830186612f46565b818103602083015261328f8185612f64565b905061329e60408301846131b4565b949350505050565b60006080820190506132bb6000830187612f46565b6132c860208301866131b4565b6132d56040830185613196565b81810360608301526132e78184612f64565b905095945050505050565b6000602082019050818103600083015261330b81612f9d565b9050919050565b6000602082019050818103600083015261332b81612fc0565b9050919050565b6000602082019050818103600083015261334b81612fe3565b9050919050565b6000602082019050818103600083015261336b81613006565b9050919050565b6000602082019050818103600083015261338b81613029565b9050919050565b600060208201905081810360008301526133ab8161304c565b9050919050565b600060208201905081810360008301526133cb8161306f565b9050919050565b600060208201905081810360008301526133eb81613092565b9050919050565b6000602082019050818103600083015261340b816130b5565b9050919050565b6000602082019050818103600083015261342b816130d8565b9050919050565b6000602082019050818103600083015261344b816130fb565b9050919050565b6000602082019050818103600083015261346b8161311e565b9050919050565b6000602082019050818103600083015261348b81613141565b9050919050565b600060208201905081810360008301526134ab81613164565b9050919050565b60006040820190506134c760008301856131a5565b81810360208301526134d98184612f64565b90509392505050565b60006134ec6134fd565b90506134f88282613660565b919050565b6000604051905090565b600067ffffffffffffffff821115613522576135216136ef565b5b61352b82613732565b9050602081019050919050565b600081519050919050565b600082825260208201905092915050565b600061355f82613593565b9050919050565b60008115159050919050565b6000819050613580826139cd565b919050565b600061ffff82169050919050565b600073ffffffffffffffffffffffffffffffffffffffff82169050919050565b6000819050919050565b600063ffffffff82169050919050565b600060ff82169050919050565b60006135e582613572565b9050919050565b82818337600083830152505050565b60005b838110156136195780820151818401526020810190506135fe565b83811115613628576000848401525b50505050565b6000600282049050600182168061364657607f821691505b6020821081141561365a576136596136c0565b5b50919050565b61366982613732565b810181811067ffffffffffffffff82111715613688576136876136ef565b5b80604052505050565b7f4e487b7100000000000000000000000000000000000000000000000000000000600052602160045260246000fd5b7f4e487b7100000000000000000000000000000000000000000000000000000000600052602260045260246000fd5b7f4e487b7100000000000000000000000000000000000000000000000000000000600052604160045260246000fd5b600080fd5b600080fd5b600080fd5b600080fd5b6000601f19601f8301169050919050565b7f4b757273204d65726b657a69205a6174656e204d657663757400000000000000600082015250565b7f556e6976657273697465204d657663757420446567696c000000000000000000600082015250565b7f4b697369204d657663757420446567696c000000000000000000000000000000600082015250565b7f4b616d75204b7572756d75205a6174656e204d65766375740000000000000000600082015250565b7f4669726d61205a6174656e204d65766375740000000000000000000000000000600082015250565b7f536572746966696b61204d65726b657a69205a6174656e204d65766375740000600082015250565b7f536976696c20546f706c756d204b7572756c757375204d65766375742044656760008201527f696c000000000000000000000000000000000000000000000000000000000000602082015250565b7f536976696c20546f706c756d204b7572756c757375205a6174656e204d65766360008201527f7574000000000000000000000000000000000000000000000000000000000000602082015250565b7f556e6976657273697465205a6174656e204d6576637574000000000000000000600082015250565b7f536572746966696b61204d65726b657a69204d657663757420446567696c0000600082015250565b7f4b697369205a6174656e204d6576637574000000000000000000000000000000600082015250565b7f4b616d75204b7572756d75204d657663757420446567696c0000000000000000600082015250565b7f4669726d61204d657663757420446567696c0000000000000000000000000000600082015250565b7f4b757273204d65726b657a69204d657663757420446567696c00000000000000600082015250565b600481106139de576139dd613691565b5b50565b6139ea81613554565b81146139f557600080fd5b50565b613a0181613566565b8114613a0c57600080fd5b50565b613a18816135b3565b8114613a2357600080fd5b50565b613a2f816135bd565b8114613a3a57600080fd5b50565b613a46816135cd565b8114613a5157600080fd5b5056fea26469706673582212204d986f46028ff56a968d40c34ffefb0144e76ea20b3244d69a98bc2f8193e21a64736f6c63430008070033",
					"opcodes": "PUSH1 0x80 PUSH1 0x40 MSTORE CALLVALUE DUP1 ISZERO PUSH2 0x10 JUMPI PUSH1 0x0 DUP1 REVERT JUMPDEST POP PUSH2 0x3A8A DUP1 PUSH2 0x20 PUSH1 0x0 CODECOPY PUSH1 0x0 RETURN INVALID PUSH1 0x80 PUSH1 0x40 MSTORE CALLVALUE DUP1 ISZERO PUSH2 0x10 JUMPI PUSH1 0x0 DUP1 REVERT JUMPDEST POP PUSH1 0x4 CALLDATASIZE LT PUSH2 0x25D JUMPI PUSH1 0x0 CALLDATALOAD PUSH1 0xE0 SHR DUP1 PUSH4 0x9BFC4DBD GT PUSH2 0x146 JUMPI DUP1 PUSH4 0xCBC92809 GT PUSH2 0xC3 JUMPI DUP1 PUSH4 0xE24047CA GT PUSH2 0x87 JUMPI DUP1 PUSH4 0xE24047CA EQ PUSH2 0x7A7 JUMPI DUP1 PUSH4 0xE5130508 EQ PUSH2 0x7D7 JUMPI DUP1 PUSH4 0xF0040EB9 EQ PUSH2 0x807 JUMPI DUP1 PUSH4 0xF1981850 EQ PUSH2 0x837 JUMPI DUP1 PUSH4 0xF54ACC65 EQ PUSH2 0x853 JUMPI DUP1 PUSH4 0xF63C649F EQ PUSH2 0x86F JUMPI PUSH2 0x25D JUMP JUMPDEST DUP1 PUSH4 0xCBC92809 EQ PUSH2 0x6F3 JUMPI DUP1 PUSH4 0xD25AAB85 EQ PUSH2 0x723 JUMPI DUP1 PUSH4 0xD5F6D56C EQ PUSH2 0x73F JUMPI DUP1 PUSH4 0xD7396414 EQ PUSH2 0x75B JUMPI DUP1 PUSH4 0xD88D8C12 EQ PUSH2 0x78B JUMPI PUSH2 0x25D JUMP JUMPDEST DUP1 PUSH4 0xB2A825BB GT PUSH2 0x10A JUMPI DUP1 PUSH4 0xB2A825BB EQ PUSH2 0x63A JUMPI DUP1 PUSH4 0xB98CCEFD EQ PUSH2 0x656 JUMPI DUP1 PUSH4 0xBA479B7E EQ PUSH2 0x686 JUMPI DUP1 PUSH4 0xBD35A506 EQ PUSH2 0x6BB JUMPI DUP1 PUSH4 0xC6DA8CFE EQ PUSH2 0x6D7 JUMPI PUSH2 0x25D JUMP JUMPDEST DUP1 PUSH4 0x9BFC4DBD EQ PUSH2 0x599 JUMPI DUP1 PUSH4 0x9DC30114 EQ PUSH2 0x5B5 JUMPI DUP1 PUSH4 0xA4E7AE05 EQ PUSH2 0x5D1 JUMPI DUP1 PUSH4 0xA81DC179 EQ PUSH2 0x602 JUMPI DUP1 PUSH4 0xAFB61B1E EQ PUSH2 0x61E JUMPI PUSH2 0x25D JUMP JUMPDEST DUP1 PUSH4 0x36FD2633 GT PUSH2 0x1DF JUMPI DUP1 PUSH4 0x548FA620 GT PUSH2 0x1A3 JUMPI DUP1 PUSH4 0x548FA620 EQ PUSH2 0x4AF JUMPI DUP1 PUSH4 0x71AF892D EQ PUSH2 0x4CB JUMPI DUP1 PUSH4 0x7D0FA287 EQ PUSH2 0x4E9 JUMPI DUP1 PUSH4 0x8C848885 EQ PUSH2 0x51B JUMPI DUP1 PUSH4 0x91E9528A EQ PUSH2 0x54B JUMPI DUP1 PUSH4 0x9A8C9119 EQ PUSH2 0x567 JUMPI PUSH2 0x25D JUMP JUMPDEST DUP1 PUSH4 0x36FD2633 EQ PUSH2 0x3F8 JUMPI DUP1 PUSH4 0x39987F94 EQ PUSH2 0x414 JUMPI DUP1 PUSH4 0x46224853 EQ PUSH2 0x447 JUMPI DUP1 PUSH4 0x50D2A060 EQ PUSH2 0x463 JUMPI DUP1 PUSH4 0x514E03C7 EQ PUSH2 0x47F JUMPI PUSH2 0x25D JUMP JUMPDEST DUP1 PUSH4 0x1916E139 GT PUSH2 0x226 JUMPI DUP1 PUSH4 0x1916E139 EQ PUSH2 0x316 JUMPI DUP1 PUSH4 0x1D595580 EQ PUSH2 0x348 JUMPI DUP1 PUSH4 0x28266697 EQ PUSH2 0x364 JUMPI DUP1 PUSH4 0x2D087D70 EQ PUSH2 0x396 JUMPI DUP1 PUSH4 0x356B1F1E EQ PUSH2 0x3C6 JUMPI PUSH2 0x25D JUMP JUMPDEST DUP1 PUSH3 0x1D54AB EQ PUSH2 0x262 JUMPI DUP1 PUSH4 0x24EB6BC EQ PUSH2 0x27E JUMPI DUP1 PUSH4 0x139884EC EQ PUSH2 0x2AE JUMPI DUP1 PUSH4 0x150596F4 EQ PUSH2 0x2DE JUMPI DUP1 PUSH4 0x19023BF3 EQ PUSH2 0x2FA JUMPI JUMPDEST PUSH1 0x0 DUP1 REVERT JUMPDEST PUSH2 0x27C PUSH1 0x4 DUP1 CALLDATASIZE SUB DUP2 ADD SWAP1 PUSH2 0x277 SWAP2 SWAP1 PUSH2 0x2E9B JUMP JUMPDEST PUSH2 0x88B JUMP JUMPDEST STOP JUMPDEST PUSH2 0x298 PUSH1 0x4 DUP1 CALLDATASIZE SUB DUP2 ADD SWAP1 PUSH2 0x293 SWAP2 SWAP1 PUSH2 0x2D58 JUMP JUMPDEST PUSH2 0x9E6 JUMP JUMPDEST PUSH1 0x40 MLOAD PUSH2 0x2A5 SWAP2 SWAP1 PUSH2 0x31DE JUMP JUMPDEST PUSH1 0x40 MLOAD DUP1 SWAP2 SUB SWAP1 RETURN JUMPDEST PUSH2 0x2C8 PUSH1 0x4 DUP1 CALLDATASIZE SUB DUP2 ADD SWAP1 PUSH2 0x2C3 SWAP2 SWAP1 PUSH2 0x2D58 JUMP JUMPDEST PUSH2 0xA3F JUMP JUMPDEST PUSH1 0x40 MLOAD PUSH2 0x2D5 SWAP2 SWAP1 PUSH2 0x31DE JUMP JUMPDEST PUSH1 0x40 MLOAD DUP1 SWAP2 SUB SWAP1 RETURN JUMPDEST PUSH2 0x2F8 PUSH1 0x4 DUP1 CALLDATASIZE SUB DUP2 ADD SWAP1 PUSH2 0x2F3 SWAP2 SWAP1 PUSH2 0x2E9B JUMP JUMPDEST PUSH2 0xA99 JUMP JUMPDEST STOP JUMPDEST PUSH2 0x314 PUSH1 0x4 DUP1 CALLDATASIZE SUB DUP2 ADD SWAP1 PUSH2 0x30F SWAP2 SWAP1 PUSH2 0x2E9B JUMP JUMPDEST PUSH2 0xBF3 JUMP JUMPDEST STOP JUMPDEST PUSH2 0x330 PUSH1 0x4 DUP1 CALLDATASIZE SUB DUP2 ADD SWAP1 PUSH2 0x32B SWAP2 SWAP1 PUSH2 0x2D58 JUMP JUMPDEST PUSH2 0xD4E JUMP JUMPDEST PUSH1 0x40 MLOAD PUSH2 0x33F SWAP4 SWAP3 SWAP2 SWAP1 PUSH2 0x3268 JUMP JUMPDEST PUSH1 0x40 MLOAD DUP1 SWAP2 SUB SWAP1 RETURN JUMPDEST PUSH2 0x362 PUSH1 0x4 DUP1 CALLDATASIZE SUB DUP2 ADD SWAP1 PUSH2 0x35D SWAP2 SWAP1 PUSH2 0x2D58 JUMP JUMPDEST PUSH2 0xE1A JUMP JUMPDEST STOP JUMPDEST PUSH2 0x37E PUSH1 0x4 DUP1 CALLDATASIZE SUB DUP2 ADD SWAP1 PUSH2 0x379 SWAP2 SWAP1 PUSH2 0x2D58 JUMP JUMPDEST PUSH2 0xEE7 JUMP JUMPDEST PUSH1 0x40 MLOAD PUSH2 0x38D SWAP4 SWAP3 SWAP2 SWAP1 PUSH2 0x3268 JUMP JUMPDEST PUSH1 0x40 MLOAD DUP1 SWAP2 SUB SWAP1 RETURN JUMPDEST PUSH2 0x3B0 PUSH1 0x4 DUP1 CALLDATASIZE SUB DUP2 ADD SWAP1 PUSH2 0x3AB SWAP2 SWAP1 PUSH2 0x2D58 JUMP JUMPDEST PUSH2 0xFB3 JUMP JUMPDEST PUSH1 0x40 MLOAD PUSH2 0x3BD SWAP2 SWAP1 PUSH2 0x31DE JUMP JUMPDEST PUSH1 0x40 MLOAD DUP1 SWAP2 SUB SWAP1 RETURN JUMPDEST PUSH2 0x3E0 PUSH1 0x4 DUP1 CALLDATASIZE SUB DUP2 ADD SWAP1 PUSH2 0x3DB SWAP2 SWAP1 PUSH2 0x2D58 JUMP JUMPDEST PUSH2 0x100C JUMP JUMPDEST PUSH1 0x40 MLOAD PUSH2 0x3EF SWAP4 SWAP3 SWAP2 SWAP1 PUSH2 0x3268 JUMP JUMPDEST PUSH1 0x40 MLOAD DUP1 SWAP2 SUB SWAP1 RETURN JUMPDEST PUSH2 0x412 PUSH1 0x4 DUP1 CALLDATASIZE SUB DUP2 ADD SWAP1 PUSH2 0x40D SWAP2 SWAP1 PUSH2 0x2D85 JUMP JUMPDEST PUSH2 0x10D8 JUMP JUMPDEST STOP JUMPDEST PUSH2 0x42E PUSH1 0x4 DUP1 CALLDATASIZE SUB DUP2 ADD SWAP1 PUSH2 0x429 SWAP2 SWAP1 PUSH2 0x2D58 JUMP JUMPDEST PUSH2 0x119F JUMP JUMPDEST PUSH1 0x40 MLOAD PUSH2 0x43E SWAP5 SWAP4 SWAP3 SWAP2 SWAP1 PUSH2 0x32A6 JUMP JUMPDEST PUSH1 0x40 MLOAD DUP1 SWAP2 SUB SWAP1 RETURN JUMPDEST PUSH2 0x461 PUSH1 0x4 DUP1 CALLDATASIZE SUB DUP2 ADD SWAP1 PUSH2 0x45C SWAP2 SWAP1 PUSH2 0x2E9B JUMP JUMPDEST PUSH2 0x1271 JUMP JUMPDEST STOP JUMPDEST PUSH2 0x47D PUSH1 0x4 DUP1 CALLDATASIZE SUB DUP2 ADD SWAP1 PUSH2 0x478 SWAP2 SWAP1 PUSH2 0x2D58 JUMP JUMPDEST PUSH2 0x13CC JUMP JUMPDEST STOP JUMPDEST PUSH2 0x499 PUSH1 0x4 DUP1 CALLDATASIZE SUB DUP2 ADD SWAP1 PUSH2 0x494 SWAP2 SWAP1 PUSH2 0x2D58 JUMP JUMPDEST PUSH2 0x1491 JUMP JUMPDEST PUSH1 0x40 MLOAD PUSH2 0x4A6 SWAP2 SWAP1 PUSH2 0x31DE JUMP JUMPDEST PUSH1 0x40 MLOAD DUP1 SWAP2 SUB SWAP1 RETURN JUMPDEST PUSH2 0x4C9 PUSH1 0x4 DUP1 CALLDATASIZE SUB DUP2 ADD SWAP1 PUSH2 0x4C4 SWAP2 SWAP1 PUSH2 0x2D58 JUMP JUMPDEST PUSH2 0x14EA JUMP JUMPDEST STOP JUMPDEST PUSH2 0x4D3 PUSH2 0x15AF JUMP JUMPDEST PUSH1 0x40 MLOAD PUSH2 0x4E0 SWAP2 SWAP1 PUSH2 0x31C3 JUMP JUMPDEST PUSH1 0x40 MLOAD DUP1 SWAP2 SUB SWAP1 RETURN JUMPDEST PUSH2 0x503 PUSH1 0x4 DUP1 CALLDATASIZE SUB DUP2 ADD SWAP1 PUSH2 0x4FE SWAP2 SWAP1 PUSH2 0x2D58 JUMP JUMPDEST PUSH2 0x15D3 JUMP JUMPDEST PUSH1 0x40 MLOAD PUSH2 0x512 SWAP4 SWAP3 SWAP2 SWAP1 PUSH2 0x3268 JUMP JUMPDEST PUSH1 0x40 MLOAD DUP1 SWAP2 SUB SWAP1 RETURN JUMPDEST PUSH2 0x535 PUSH1 0x4 DUP1 CALLDATASIZE SUB DUP2 ADD SWAP1 PUSH2 0x530 SWAP2 SWAP1 PUSH2 0x2D58 JUMP JUMPDEST PUSH2 0x169F JUMP JUMPDEST PUSH1 0x40 MLOAD PUSH2 0x542 SWAP2 SWAP1 PUSH2 0x31DE JUMP JUMPDEST PUSH1 0x40 MLOAD DUP1 SWAP2 SUB SWAP1 RETURN JUMPDEST PUSH2 0x565 PUSH1 0x4 DUP1 CALLDATASIZE SUB DUP2 ADD SWAP1 PUSH2 0x560 SWAP2 SWAP1 PUSH2 0x2E9B JUMP JUMPDEST PUSH2 0x16F8 JUMP JUMPDEST STOP JUMPDEST PUSH2 0x581 PUSH1 0x4 DUP1 CALLDATASIZE SUB DUP2 ADD SWAP1 PUSH2 0x57C SWAP2 SWAP1 PUSH2 0x2D58 JUMP JUMPDEST PUSH2 0x1852 JUMP JUMPDEST PUSH1 0x40 MLOAD PUSH2 0x590 SWAP4 SWAP3 SWAP2 SWAP1 PUSH2 0x3268 JUMP JUMPDEST PUSH1 0x40 MLOAD DUP1 SWAP2 SUB SWAP1 RETURN JUMPDEST PUSH2 0x5B3 PUSH1 0x4 DUP1 CALLDATASIZE SUB DUP2 ADD SWAP1 PUSH2 0x5AE SWAP2 SWAP1 PUSH2 0x2D58 JUMP JUMPDEST PUSH2 0x191E JUMP JUMPDEST STOP JUMPDEST PUSH2 0x5CF PUSH1 0x4 DUP1 CALLDATASIZE SUB DUP2 ADD SWAP1 PUSH2 0x5CA SWAP2 SWAP1 PUSH2 0x2E9B JUMP JUMPDEST PUSH2 0x19E3 JUMP JUMPDEST STOP JUMPDEST PUSH2 0x5EB PUSH1 0x4 DUP1 CALLDATASIZE SUB DUP2 ADD SWAP1 PUSH2 0x5E6 SWAP2 SWAP1 PUSH2 0x2F0A JUMP JUMPDEST PUSH2 0x1B3E JUMP JUMPDEST PUSH1 0x40 MLOAD PUSH2 0x5F9 SWAP3 SWAP2 SWAP1 PUSH2 0x34B2 JUMP JUMPDEST PUSH1 0x40 MLOAD DUP1 SWAP2 SUB SWAP1 RETURN JUMPDEST PUSH2 0x61C PUSH1 0x4 DUP1 CALLDATASIZE SUB DUP2 ADD SWAP1 PUSH2 0x617 SWAP2 SWAP1 PUSH2 0x2E18 JUMP JUMPDEST PUSH2 0x1BFA JUMP JUMPDEST STOP JUMPDEST PUSH2 0x638 PUSH1 0x4 DUP1 CALLDATASIZE SUB DUP2 ADD SWAP1 PUSH2 0x633 SWAP2 SWAP1 PUSH2 0x2D58 JUMP JUMPDEST PUSH2 0x1D9C JUMP JUMPDEST STOP JUMPDEST PUSH2 0x654 PUSH1 0x4 DUP1 CALLDATASIZE SUB DUP2 ADD SWAP1 PUSH2 0x64F SWAP2 SWAP1 PUSH2 0x2E9B JUMP JUMPDEST PUSH2 0x1E61 JUMP JUMPDEST STOP JUMPDEST PUSH2 0x670 PUSH1 0x4 DUP1 CALLDATASIZE SUB DUP2 ADD SWAP1 PUSH2 0x66B SWAP2 SWAP1 PUSH2 0x2D58 JUMP JUMPDEST PUSH2 0x1FBB JUMP JUMPDEST PUSH1 0x40 MLOAD PUSH2 0x67D SWAP2 SWAP1 PUSH2 0x31DE JUMP JUMPDEST PUSH1 0x40 MLOAD DUP1 SWAP2 SUB SWAP1 RETURN JUMPDEST PUSH2 0x6A0 PUSH1 0x4 DUP1 CALLDATASIZE SUB DUP2 ADD SWAP1 PUSH2 0x69B SWAP2 SWAP1 PUSH2 0x2D58 JUMP JUMPDEST PUSH2 0x2014 JUMP JUMPDEST PUSH1 0x40 MLOAD PUSH2 0x6B2 SWAP7 SWAP6 SWAP5 SWAP4 SWAP3 SWAP2 SWAP1 PUSH2 0x31F9 JUMP JUMPDEST PUSH1 0x40 MLOAD DUP1 SWAP2 SUB SWAP1 RETURN JUMPDEST PUSH2 0x6D5 PUSH1 0x4 DUP1 CALLDATASIZE SUB DUP2 ADD SWAP1 PUSH2 0x6D0 SWAP2 SWAP1 PUSH2 0x2D58 JUMP JUMPDEST PUSH2 0x21A8 JUMP JUMPDEST STOP JUMPDEST PUSH2 0x6F1 PUSH1 0x4 DUP1 CALLDATASIZE SUB DUP2 ADD SWAP1 PUSH2 0x6EC SWAP2 SWAP1 PUSH2 0x2E9B JUMP JUMPDEST PUSH2 0x2249 JUMP JUMPDEST STOP JUMPDEST PUSH2 0x70D PUSH1 0x4 DUP1 CALLDATASIZE SUB DUP2 ADD SWAP1 PUSH2 0x708 SWAP2 SWAP1 PUSH2 0x2D58 JUMP JUMPDEST PUSH2 0x23A3 JUMP JUMPDEST PUSH1 0x40 MLOAD PUSH2 0x71A SWAP2 SWAP1 PUSH2 0x31DE JUMP JUMPDEST PUSH1 0x40 MLOAD DUP1 SWAP2 SUB SWAP1 RETURN JUMPDEST PUSH2 0x73D PUSH1 0x4 DUP1 CALLDATASIZE SUB DUP2 ADD SWAP1 PUSH2 0x738 SWAP2 SWAP1 PUSH2 0x2E18 JUMP JUMPDEST PUSH2 0x23CE JUMP JUMPDEST STOP JUMPDEST PUSH2 0x759 PUSH1 0x4 DUP1 CALLDATASIZE SUB DUP2 ADD SWAP1 PUSH2 0x754 SWAP2 SWAP1 PUSH2 0x2E9B JUMP JUMPDEST PUSH2 0x2571 JUMP JUMPDEST STOP JUMPDEST PUSH2 0x775 PUSH1 0x4 DUP1 CALLDATASIZE SUB DUP2 ADD SWAP1 PUSH2 0x770 SWAP2 SWAP1 PUSH2 0x2D58 JUMP JUMPDEST PUSH2 0x26CB JUMP JUMPDEST PUSH1 0x40 MLOAD PUSH2 0x782 SWAP2 SWAP1 PUSH2 0x31DE JUMP JUMPDEST PUSH1 0x40 MLOAD DUP1 SWAP2 SUB SWAP1 RETURN JUMPDEST PUSH2 0x7A5 PUSH1 0x4 DUP1 CALLDATASIZE SUB DUP2 ADD SWAP1 PUSH2 0x7A0 SWAP2 SWAP1 PUSH2 0x2D58 JUMP JUMPDEST PUSH2 0x2723 JUMP JUMPDEST STOP JUMPDEST PUSH2 0x7C1 PUSH1 0x4 DUP1 CALLDATASIZE SUB DUP2 ADD SWAP1 PUSH2 0x7BC SWAP2 SWAP1 PUSH2 0x2D58 JUMP JUMPDEST PUSH2 0x27E8 JUMP JUMPDEST PUSH1 0x40 MLOAD PUSH2 0x7CE SWAP2 SWAP1 PUSH2 0x31DE JUMP JUMPDEST PUSH1 0x40 MLOAD DUP1 SWAP2 SUB SWAP1 RETURN JUMPDEST PUSH2 0x7F1 PUSH1 0x4 DUP1 CALLDATASIZE SUB DUP2 ADD SWAP1 PUSH2 0x7EC SWAP2 SWAP1 PUSH2 0x2D58 JUMP JUMPDEST PUSH2 0x2841 JUMP JUMPDEST PUSH1 0x40 MLOAD PUSH2 0x7FE SWAP2 SWAP1 PUSH2 0x31DE JUMP JUMPDEST PUSH1 0x40 MLOAD DUP1 SWAP2 SUB SWAP1 RETURN JUMPDEST PUSH2 0x821 PUSH1 0x4 DUP1 CALLDATASIZE SUB DUP2 ADD SWAP1 PUSH2 0x81C SWAP2 SWAP1 PUSH2 0x2D58 JUMP JUMPDEST PUSH2 0x289B JUMP JUMPDEST PUSH1 0x40 MLOAD PUSH2 0x82E SWAP2 SWAP1 PUSH2 0x31DE JUMP JUMPDEST PUSH1 0x40 MLOAD DUP1 SWAP2 SUB SWAP1 RETURN JUMPDEST PUSH2 0x851 PUSH1 0x4 DUP1 CALLDATASIZE SUB DUP2 ADD SWAP1 PUSH2 0x84C SWAP2 SWAP1 PUSH2 0x2DD8 JUMP JUMPDEST PUSH2 0x28F4 JUMP JUMPDEST STOP JUMPDEST PUSH2 0x86D PUSH1 0x4 DUP1 CALLDATASIZE SUB DUP2 ADD SWAP1 PUSH2 0x868 SWAP2 SWAP1 PUSH2 0x2D58 JUMP JUMPDEST PUSH2 0x299A JUMP JUMPDEST STOP JUMPDEST PUSH2 0x889 PUSH1 0x4 DUP1 CALLDATASIZE SUB DUP2 ADD SWAP1 PUSH2 0x884 SWAP2 SWAP1 PUSH2 0x2E9B JUMP JUMPDEST PUSH2 0x2A41 JUMP JUMPDEST STOP JUMPDEST PUSH2 0x894 DUP4 PUSH2 0x289B JUMP JUMPDEST ISZERO PUSH2 0x8D4 JUMPI PUSH1 0x40 MLOAD PUSH32 0x8C379A000000000000000000000000000000000000000000000000000000000 DUP2 MSTORE PUSH1 0x4 ADD PUSH2 0x8CB SWAP1 PUSH2 0x33F2 JUMP JUMPDEST PUSH1 0x40 MLOAD DUP1 SWAP2 SUB SWAP1 REVERT JUMPDEST PUSH1 0x1 PUSH1 0x4 PUSH1 0x0 DUP6 PUSH20 0xFFFFFFFFFFFFFFFFFFFFFFFFFFFFFFFFFFFFFFFF AND PUSH20 0xFFFFFFFFFFFFFFFFFFFFFFFFFFFFFFFFFFFFFFFF AND DUP2 MSTORE PUSH1 0x20 ADD SWAP1 DUP2 MSTORE PUSH1 0x20 ADD PUSH1 0x0 KECCAK256 PUSH1 0x0 ADD PUSH1 0x0 PUSH2 0x100 EXP DUP2 SLOAD DUP2 PUSH1 0xFF MUL NOT AND SWAP1 DUP4 ISZERO ISZERO MUL OR SWAP1 SSTORE POP DUP2 PUSH1 0x4 PUSH1 0x0 DUP6 PUSH20 0xFFFFFFFFFFFFFFFFFFFFFFFFFFFFFFFFFFFFFFFF AND PUSH20 0xFFFFFFFFFFFFFFFFFFFFFFFFFFFFFFFFFFFFFFFF AND DUP2 MSTORE PUSH1 0x20 ADD SWAP1 DUP2 MSTORE PUSH1 0x20 ADD PUSH1 0x0 KECCAK256 PUSH1 0x1 ADD SWAP1 DUP1 MLOAD SWAP1 PUSH1 0x20 ADD SWAP1 PUSH2 0x985 SWAP3 SWAP2 SWAP1 PUSH2 0x2B9C JUMP JUMPDEST POP DUP1 PUSH1 0x4 PUSH1 0x0 DUP6 PUSH20 0xFFFFFFFFFFFFFFFFFFFFFFFFFFFFFFFFFFFFFFFF AND PUSH20 0xFFFFFFFFFFFFFFFFFFFFFFFFFFFFFFFFFFFFFFFF AND DUP2 MSTORE PUSH1 0x20 ADD SWAP1 DUP2 MSTORE PUSH1 0x20 ADD PUSH1 0x0 KECCAK256 PUSH1 0x2 ADD PUSH1 0x0 PUSH2 0x100 EXP DUP2 SLOAD DUP2 PUSH1 0xFF MUL NOT AND SWAP1 DUP4 PUSH1 0xFF AND MUL OR SWAP1 SSTORE POP POP POP POP JUMP JUMPDEST PUSH1 0x0 PUSH1 0x7 PUSH1 0x0 DUP4 PUSH20 0xFFFFFFFFFFFFFFFFFFFFFFFFFFFFFFFFFFFFFFFF AND PUSH20 0xFFFFFFFFFFFFFFFFFFFFFFFFFFFFFFFFFFFFFFFF AND DUP2 MSTORE PUSH1 0x20 ADD SWAP1 DUP2 MSTORE PUSH1 0x20 ADD PUSH1 0x0 KECCAK256 PUSH1 0x0 ADD PUSH1 0x0 SWAP1 SLOAD SWAP1 PUSH2 0x100 EXP SWAP1 DIV PUSH1 0xFF AND SWAP1 POP SWAP2 SWAP1 POP JUMP JUMPDEST PUSH1 0x0 DUP2 PUSH20 0xFFFFFFFFFFFFFFFFFFFFFFFFFFFFFFFFFFFFFFFF AND PUSH1 0x1 PUSH1 0x0 SWAP1 SLOAD SWAP1 PUSH2 0x100 EXP SWAP1 DIV PUSH20 0xFFFFFFFFFFFFFFFFFFFFFFFFFFFFFFFFFFFFFFFF AND PUSH20 0xFFFFFFFFFFFFFFFFFFFFFFFFFFFFFFFFFFFFFFFF AND EQ SWAP1 POP SWAP2 SWAP1 POP JUMP JUMPDEST PUSH2 0xAA2 DUP4 PUSH2 0x1491 JUMP JUMPDEST PUSH2 0xAE1 JUMPI PUSH1 0x40 MLOAD PUSH32 0x8C379A000000000000000000000000000000000000000000000000000000000 DUP2 MSTORE PUSH1 0x4 ADD PUSH2 0xAD8 SWAP1 PUSH2 0x3452 JUMP JUMPDEST PUSH1 0x40 MLOAD DUP1 SWAP2 SUB SWAP1 REVERT JUMPDEST PUSH1 0x1 PUSH1 0x8 PUSH1 0x0 DUP6 PUSH20 0xFFFFFFFFFFFFFFFFFFFFFFFFFFFFFFFFFFFFFFFF AND PUSH20 0xFFFFFFFFFFFFFFFFFFFFFFFFFFFFFFFFFFFFFFFF AND DUP2 MSTORE PUSH1 0x20 ADD SWAP1 DUP2 MSTORE PUSH1 0x20 ADD PUSH1 0x0 KECCAK256 PUSH1 0x0 ADD PUSH1 0x0 PUSH2 0x100 EXP DUP2 SLOAD DUP2 PUSH1 0xFF MUL NOT AND SWAP1 DUP4 ISZERO ISZERO MUL OR SWAP1 SSTORE POP DUP2 PUSH1 0x8 PUSH1 0x0 DUP6 PUSH20 0xFFFFFFFFFFFFFFFFFFFFFFFFFFFFFFFFFFFFFFFF AND PUSH20 0xFFFFFFFFFFFFFFFFFFFFFFFFFFFFFFFFFFFFFFFF AND DUP2 MSTORE PUSH1 0x20 ADD SWAP1 DUP2 MSTORE PUSH1 0x20 ADD PUSH1 0x0 KECCAK256 PUSH1 0x1 ADD SWAP1 DUP1 MLOAD SWAP1 PUSH1 0x20 ADD SWAP1 PUSH2 0xB92 SWAP3 SWAP2 SWAP1 PUSH2 0x2B9C JUMP JUMPDEST POP DUP1 PUSH1 0x8 PUSH1 0x0 DUP6 PUSH20 0xFFFFFFFFFFFFFFFFFFFFFFFFFFFFFFFFFFFFFFFF AND PUSH20 0xFFFFFFFFFFFFFFFFFFFFFFFFFFFFFFFFFFFFFFFF AND DUP2 MSTORE PUSH1 0x20 ADD SWAP1 DUP2 MSTORE PUSH1 0x20 ADD PUSH1 0x0 KECCAK256 PUSH1 0x2 ADD PUSH1 0x0 PUSH2 0x100 EXP DUP2 SLOAD DUP2 PUSH1 0xFF MUL NOT AND SWAP1 DUP4 PUSH1 0xFF AND MUL OR SWAP1 SSTORE POP POP POP POP JUMP JUMPDEST PUSH2 0xBFC DUP4 PUSH2 0x169F JUMP JUMPDEST ISZERO PUSH2 0xC3C JUMPI PUSH1 0x40 MLOAD PUSH32 0x8C379A000000000000000000000000000000000000000000000000000000000 DUP2 MSTORE PUSH1 0x4 ADD PUSH2 0xC33 SWAP1 PUSH2 0x33D2 JUMP JUMPDEST PUSH1 0x40 MLOAD DUP1 SWAP2 SUB SWAP1 REVERT JUMPDEST PUSH1 0x1 PUSH1 0x9 PUSH1 0x0 DUP6 PUSH20 0xFFFFFFFFFFFFFFFFFFFFFFFFFFFFFFFFFFFFFFFF AND PUSH20 0xFFFFFFFFFFFFFFFFFFFFFFFFFFFFFFFFFFFFFFFF AND DUP2 MSTORE PUSH1 0x20 ADD SWAP1 DUP2 MSTORE PUSH1 0x20 ADD PUSH1 0x0 KECCAK256 PUSH1 0x0 ADD PUSH1 0x0 PUSH2 0x100 EXP DUP2 SLOAD DUP2 PUSH1 0xFF MUL NOT AND SWAP1 DUP4 ISZERO ISZERO MUL OR SWAP1 SSTORE POP DUP2 PUSH1 0x9 PUSH1 0x0 DUP6 PUSH20 0xFFFFFFFFFFFFFFFFFFFFFFFFFFFFFFFFFFFFFFFF AND PUSH20 0xFFFFFFFFFFFFFFFFFFFFFFFFFFFFFFFFFFFFFFFF AND DUP2 MSTORE PUSH1 0x20 ADD SWAP1 DUP2 MSTORE PUSH1 0x20 ADD PUSH1 0x0 KECCAK256 PUSH1 0x1 ADD SWAP1 DUP1 MLOAD SWAP1 PUSH1 0x20 ADD SWAP1 PUSH2 0xCED SWAP3 SWAP2 SWAP1 PUSH2 0x2B9C JUMP JUMPDEST POP DUP1 PUSH1 0x9 PUSH1 0x0 DUP6 PUSH20 0xFFFFFFFFFFFFFFFFFFFFFFFFFFFFFFFFFFFFFFFF AND PUSH20 0xFFFFFFFFFFFFFFFFFFFFFFFFFFFFFFFFFFFFFFFF AND DUP2 MSTORE PUSH1 0x20 ADD SWAP1 DUP2 MSTORE PUSH1 0x20 ADD PUSH1 0x0 KECCAK256 PUSH1 0x2 ADD PUSH1 0x0 PUSH2 0x100 EXP DUP2 SLOAD DUP2 PUSH1 0xFF MUL NOT AND SWAP1 DUP4 PUSH1 0xFF AND MUL OR SWAP1 SSTORE POP POP POP POP JUMP JUMPDEST PUSH1 0x7 PUSH1 0x20 MSTORE DUP1 PUSH1 0x0 MSTORE PUSH1 0x40 PUSH1 0x0 KECCAK256 PUSH1 0x0 SWAP2 POP SWAP1 POP DUP1 PUSH1 0x0 ADD PUSH1 0x0 SWAP1 SLOAD SWAP1 PUSH2 0x100 EXP SWAP1 DIV PUSH1 0xFF AND SWAP1 DUP1 PUSH1 0x1 ADD DUP1 SLOAD PUSH2 0xD84 SWAP1 PUSH2 0x362E JUMP JUMPDEST DUP1 PUSH1 0x1F ADD PUSH1 0x20 DUP1 SWAP2 DIV MUL PUSH1 0x20 ADD PUSH1 0x40 MLOAD SWAP1 DUP2 ADD PUSH1 0x40 MSTORE DUP1 SWAP3 SWAP2 SWAP1 DUP2 DUP2 MSTORE PUSH1 0x20 ADD DUP3 DUP1 SLOAD PUSH2 0xDB0 SWAP1 PUSH2 0x362E JUMP JUMPDEST DUP1 ISZERO PUSH2 0xDFD JUMPI DUP1 PUSH1 0x1F LT PUSH2 0xDD2 JUMPI PUSH2 0x100 DUP1 DUP4 SLOAD DIV MUL DUP4 MSTORE SWAP2 PUSH1 0x20 ADD SWAP2 PUSH2 0xDFD JUMP JUMPDEST DUP3 ADD SWAP2 SWAP1 PUSH1 0x0 MSTORE PUSH1 0x20 PUSH1 0x0 KECCAK256 SWAP1 JUMPDEST DUP2 SLOAD DUP2 MSTORE SWAP1 PUSH1 0x1 ADD SWAP1 PUSH1 0x20 ADD DUP1 DUP4 GT PUSH2 0xDE0 JUMPI DUP3 SWAP1 SUB PUSH1 0x1F AND DUP3 ADD SWAP2 JUMPDEST POP POP POP POP POP SWAP1 DUP1 PUSH1 0x2 ADD PUSH1 0x0 SWAP1 SLOAD SWAP1 PUSH2 0x100 EXP SWAP1 DIV PUSH1 0xFF AND SWAP1 POP DUP4 JUMP JUMPDEST PUSH2 0xE23 DUP2 PUSH2 0xFB3 JUMP JUMPDEST PUSH2 0xE62 JUMPI PUSH1 0x40 MLOAD PUSH32 0x8C379A000000000000000000000000000000000000000000000000000000000 DUP2 MSTORE PUSH1 0x4 ADD PUSH2 0xE59 SWAP1 PUSH2 0x3472 JUMP JUMPDEST PUSH1 0x40 MLOAD DUP1 SWAP2 SUB SWAP1 REVERT JUMPDEST PUSH1 0x6 PUSH1 0x0 DUP3 PUSH20 0xFFFFFFFFFFFFFFFFFFFFFFFFFFFFFFFFFFFFFFFF AND PUSH20 0xFFFFFFFFFFFFFFFFFFFFFFFFFFFFFFFFFFFFFFFF AND DUP2 MSTORE PUSH1 0x20 ADD SWAP1 DUP2 MSTORE PUSH1 0x20 ADD PUSH1 0x0 KECCAK256 PUSH1 0x0 DUP1 DUP3 ADD PUSH1 0x0 PUSH2 0x100 EXP DUP2 SLOAD SWAP1 PUSH1 0xFF MUL NOT AND SWAP1 SSTORE PUSH1 0x0 DUP3 ADD PUSH1 0x1 PUSH2 0x100 EXP DUP2 SLOAD SWAP1 PUSH1 0xFF MUL NOT AND SWAP1 SSTORE PUSH1 0x1 DUP3 ADD PUSH1 0x0 SWAP1 SSTORE PUSH1 0x2 DUP3 ADD PUSH1 0x0 PUSH2 0xEE2 SWAP2 SWAP1 PUSH2 0x2C22 JUMP JUMPDEST POP POP POP JUMP JUMPDEST PUSH1 0x4 PUSH1 0x20 MSTORE DUP1 PUSH1 0x0 MSTORE PUSH1 0x40 PUSH1 0x0 KECCAK256 PUSH1 0x0 SWAP2 POP SWAP1 POP DUP1 PUSH1 0x0 ADD PUSH1 0x0 SWAP1 SLOAD SWAP1 PUSH2 0x100 EXP SWAP1 DIV PUSH1 0xFF AND SWAP1 DUP1 PUSH1 0x1 ADD DUP1 SLOAD PUSH2 0xF1D SWAP1 PUSH2 0x362E JUMP JUMPDEST DUP1 PUSH1 0x1F ADD PUSH1 0x20 DUP1 SWAP2 DIV MUL PUSH1 0x20 ADD PUSH1 0x40 MLOAD SWAP1 DUP2 ADD PUSH1 0x40 MSTORE DUP1 SWAP3 SWAP2 SWAP1 DUP2 DUP2 MSTORE PUSH1 0x20 ADD DUP3 DUP1 SLOAD PUSH2 0xF49 SWAP1 PUSH2 0x362E JUMP JUMPDEST DUP1 ISZERO PUSH2 0xF96 JUMPI DUP1 PUSH1 0x1F LT PUSH2 0xF6B JUMPI PUSH2 0x100 DUP1 DUP4 SLOAD DIV MUL DUP4 MSTORE SWAP2 PUSH1 0x20 ADD SWAP2 PUSH2 0xF96 JUMP JUMPDEST DUP3 ADD SWAP2 SWAP1 PUSH1 0x0 MSTORE PUSH1 0x20 PUSH1 0x0 KECCAK256 SWAP1 JUMPDEST DUP2 SLOAD DUP2 MSTORE SWAP1 PUSH1 0x1 ADD SWAP1 PUSH1 0x20 ADD DUP1 DUP4 GT PUSH2 0xF79 JUMPI DUP3 SWAP1 SUB PUSH1 0x1F AND DUP3 ADD SWAP2 JUMPDEST POP POP POP POP POP SWAP1 DUP1 PUSH1 0x2 ADD PUSH1 0x0 SWAP1 SLOAD SWAP1 PUSH2 0x100 EXP SWAP1 DIV PUSH1 0xFF AND SWAP1 POP DUP4 JUMP JUMPDEST PUSH1 0x0 PUSH1 0x6 PUSH1 0x0 DUP4 PUSH20 0xFFFFFFFFFFFFFFFFFFFFFFFFFFFFFFFFFFFFFFFF AND PUSH20 0xFFFFFFFFFFFFFFFFFFFFFFFFFFFFFFFFFFFFFFFF AND DUP2 MSTORE PUSH1 0x20 ADD SWAP1 DUP2 MSTORE PUSH1 0x20 ADD PUSH1 0x0 KECCAK256 PUSH1 0x0 ADD PUSH1 0x0 SWAP1 SLOAD SWAP1 PUSH2 0x100 EXP SWAP1 DIV PUSH1 0xFF AND SWAP1 POP SWAP2 SWAP1 POP JUMP JUMPDEST PUSH1 0xA PUSH1 0x20 MSTORE DUP1 PUSH1 0x0 MSTORE PUSH1 0x40 PUSH1 0x0 KECCAK256 PUSH1 0x0 SWAP2 POP SWAP1 POP DUP1 PUSH1 0x0 ADD PUSH1 0x0 SWAP1 SLOAD SWAP1 PUSH2 0x100 EXP SWAP1 DIV PUSH1 0xFF AND SWAP1 DUP1 PUSH1 0x1 ADD DUP1 SLOAD PUSH2 0x1042 SWAP1 PUSH2 0x362E JUMP JUMPDEST DUP1 PUSH1 0x1F ADD PUSH1 0x20 DUP1 SWAP2 DIV MUL PUSH1 0x20 ADD PUSH1 0x40 MLOAD SWAP1 DUP2 ADD PUSH1 0x40 MSTORE DUP1 SWAP3 SWAP2 SWAP1 DUP2 DUP2 MSTORE PUSH1 0x20 ADD DUP3 DUP1 SLOAD PUSH2 0x106E SWAP1 PUSH2 0x362E JUMP JUMPDEST DUP1 ISZERO PUSH2 0x10BB JUMPI DUP1 PUSH1 0x1F LT PUSH2 0x1090 JUMPI PUSH2 0x100 DUP1 DUP4 SLOAD DIV MUL DUP4 MSTORE SWAP2 PUSH1 0x20 ADD SWAP2 PUSH2 0x10BB JUMP JUMPDEST DUP3 ADD SWAP2 SWAP1 PUSH1 0x0 MSTORE PUSH1 0x20 PUSH1 0x0 KECCAK256 SWAP1 JUMPDEST DUP2 SLOAD DUP2 MSTORE SWAP1 PUSH1 0x1 ADD SWAP1 PUSH1 0x20 ADD DUP1 DUP4 GT PUSH2 0x109E JUMPI DUP3 SWAP1 SUB PUSH1 0x1F AND DUP3 ADD SWAP2 JUMPDEST POP POP POP POP POP SWAP1 DUP1 PUSH1 0x2 ADD PUSH1 0x0 SWAP1 SLOAD SWAP1 PUSH2 0x100 EXP SWAP1 DIV PUSH1 0xFF AND SWAP1 POP DUP4 JUMP JUMPDEST DUP3 PUSH1 0x0 DUP1 PUSH2 0x100 EXP DUP2 SLOAD DUP2 PUSH20 0xFFFFFFFFFFFFFFFFFFFFFFFFFFFFFFFFFFFFFFFF MUL NOT AND SWAP1 DUP4 PUSH20 0xFFFFFFFFFFFFFFFFFFFFFFFFFFFFFFFFFFFFFFFF AND MUL OR SWAP1 SSTORE POP DUP2 PUSH1 0x1 PUSH1 0x0 PUSH2 0x100 EXP DUP2 SLOAD DUP2 PUSH20 0xFFFFFFFFFFFFFFFFFFFFFFFFFFFFFFFFFFFFFFFF MUL NOT AND SWAP1 DUP4 PUSH20 0xFFFFFFFFFFFFFFFFFFFFFFFFFFFFFFFFFFFFFFFF AND MUL OR SWAP1 SSTORE POP DUP1 PUSH1 0x2 PUSH1 0x0 PUSH2 0x100 EXP DUP2 SLOAD DUP2 PUSH20 0xFFFFFFFFFFFFFFFFFFFFFFFFFFFFFFFFFFFFFFFF MUL NOT AND SWAP1 DUP4 PUSH20 0xFFFFFFFFFFFFFFFFFFFFFFFFFFFFFFFFFFFFFFFF AND MUL OR SWAP1 SSTORE POP POP POP POP JUMP JUMPDEST PUSH1 0x6 PUSH1 0x20 MSTORE DUP1 PUSH1 0x0 MSTORE PUSH1 0x40 PUSH1 0x0 KECCAK256 PUSH1 0x0 SWAP2 POP SWAP1 POP DUP1 PUSH1 0x0 ADD PUSH1 0x0 SWAP1 SLOAD SWAP1 PUSH2 0x100 EXP SWAP1 DIV PUSH1 0xFF AND SWAP1 DUP1 PUSH1 0x0 ADD PUSH1 0x1 SWAP1 SLOAD SWAP1 PUSH2 0x100 EXP SWAP1 DIV PUSH1 0xFF AND SWAP1 DUP1 PUSH1 0x1 ADD SLOAD SWAP1 DUP1 PUSH1 0x2 ADD DUP1 SLOAD PUSH2 0x11EE SWAP1 PUSH2 0x362E JUMP JUMPDEST DUP1 PUSH1 0x1F ADD PUSH1 0x20 DUP1 SWAP2 DIV MUL PUSH1 0x20 ADD PUSH1 0x40 MLOAD SWAP1 DUP2 ADD PUSH1 0x40 MSTORE DUP1 SWAP3 SWAP2 SWAP1 DUP2 DUP2 MSTORE PUSH1 0x20 ADD DUP3 DUP1 SLOAD PUSH2 0x121A SWAP1 PUSH2 0x362E JUMP JUMPDEST DUP1 ISZERO PUSH2 0x1267 JUMPI DUP1 PUSH1 0x1F LT PUSH2 0x123C JUMPI PUSH2 0x100 DUP1 DUP4 SLOAD DIV MUL DUP4 MSTORE SWAP2 PUSH1 0x20 ADD SWAP2 PUSH2 0x1267 JUMP JUMPDEST DUP3 ADD SWAP2 SWAP1 PUSH1 0x0 MSTORE PUSH1 0x20 PUSH1 0x0 KECCAK256 SWAP1 JUMPDEST DUP2 SLOAD DUP2 MSTORE SWAP1 PUSH1 0x1 ADD SWAP1 PUSH1 0x20 ADD DUP1 DUP4 GT PUSH2 0x124A JUMPI DUP3 SWAP1 SUB PUSH1 0x1F AND DUP3 ADD SWAP2 JUMPDEST POP POP POP POP POP SWAP1 POP DUP5 JUMP JUMPDEST PUSH2 0x127A DUP4 PUSH2 0x9E6 JUMP JUMPDEST ISZERO PUSH2 0x12BA JUMPI PUSH1 0x40 MLOAD PUSH32 0x8C379A000000000000000000000000000000000000000000000000000000000 DUP2 MSTORE PUSH1 0x4 ADD PUSH2 0x12B1 SWAP1 PUSH2 0x32F2 JUMP JUMPDEST PUSH1 0x40 MLOAD DUP1 SWAP2 SUB SWAP1 REVERT JUMPDEST PUSH1 0x1 PUSH1 0x7 PUSH1 0x0 DUP6 PUSH20 0xFFFFFFFFFFFFFFFFFFFFFFFFFFFFFFFFFFFFFFFF AND PUSH20 0xFFFFFFFFFFFFFFFFFFFFFFFFFFFFFFFFFFFFFFFF AND DUP2 MSTORE PUSH1 0x20 ADD SWAP1 DUP2 MSTORE PUSH1 0x20 ADD PUSH1 0x0 KECCAK256 PUSH1 0x0 ADD PUSH1 0x0 PUSH2 0x100 EXP DUP2 SLOAD DUP2 PUSH1 0xFF MUL NOT AND SWAP1 DUP4 ISZERO ISZERO MUL OR SWAP1 SSTORE POP DUP2 PUSH1 0x7 PUSH1 0x0 DUP6 PUSH20 0xFFFFFFFFFFFFFFFFFFFFFFFFFFFFFFFFFFFFFFFF AND PUSH20 0xFFFFFFFFFFFFFFFFFFFFFFFFFFFFFFFFFFFFFFFF AND DUP2 MSTORE PUSH1 0x20 ADD SWAP1 DUP2 MSTORE PUSH1 0x20 ADD PUSH1 0x0 KECCAK256 PUSH1 0x1 ADD SWAP1 DUP1 MLOAD SWAP1 PUSH1 0x20 ADD SWAP1 PUSH2 0x136B SWAP3 SWAP2 SWAP1 PUSH2 0x2B9C JUMP JUMPDEST POP DUP1 PUSH1 0x7 PUSH1 0x0 DUP6 PUSH20 0xFFFFFFFFFFFFFFFFFFFFFFFFFFFFFFFFFFFFFFFF AND PUSH20 0xFFFFFFFFFFFFFFFFFFFFFFFFFFFFFFFFFFFFFFFF AND DUP2 MSTORE PUSH1 0x20 ADD SWAP1 DUP2 MSTORE PUSH1 0x20 ADD PUSH1 0x0 KECCAK256 PUSH1 0x2 ADD PUSH1 0x0 PUSH2 0x100 EXP DUP2 SLOAD DUP2 PUSH1 0xFF MUL NOT AND SWAP1 DUP4 PUSH1 0xFF AND MUL OR SWAP1 SSTORE POP POP POP POP JUMP JUMPDEST PUSH2 0x13D5 DUP2 PUSH2 0x1491 JUMP JUMPDEST PUSH2 0x1414 JUMPI PUSH1 0x40 MLOAD PUSH32 0x8C379A000000000000000000000000000000000000000000000000000000000 DUP2 MSTORE PUSH1 0x4 ADD PUSH2 0x140B SWAP1 PUSH2 0x3452 JUMP JUMPDEST PUSH1 0x40 MLOAD DUP1 SWAP2 SUB SWAP1 REVERT JUMPDEST PUSH1 0x8 PUSH1 0x0 DUP3 PUSH20 0xFFFFFFFFFFFFFFFFFFFFFFFFFFFFFFFFFFFFFFFF AND PUSH20 0xFFFFFFFFFFFFFFFFFFFFFFFFFFFFFFFFFFFFFFFF AND DUP2 MSTORE PUSH1 0x20 ADD SWAP1 DUP2 MSTORE PUSH1 0x20 ADD PUSH1 0x0 KECCAK256 PUSH1 0x0 DUP1 DUP3 ADD PUSH1 0x0 PUSH2 0x100 EXP DUP2 SLOAD SWAP1 PUSH1 0xFF MUL NOT AND SWAP1 SSTORE PUSH1 0x1 DUP3 ADD PUSH1 0x0 PUSH2 0x1478 SWAP2 SWAP1 PUSH2 0x2C22 JUMP JUMPDEST PUSH1 0x2 DUP3 ADD PUSH1 0x0 PUSH2 0x100 EXP DUP2 SLOAD SWAP1 PUSH1 0xFF MUL NOT AND SWAP1 SSTORE POP POP POP JUMP JUMPDEST PUSH1 0x0 PUSH1 0x8 PUSH1 0x0 DUP4 PUSH20 0xFFFFFFFFFFFFFFFFFFFFFFFFFFFFFFFFFFFFFFFF AND PUSH20 0xFFFFFFFFFFFFFFFFFFFFFFFFFFFFFFFFFFFFFFFF AND DUP2 MSTORE PUSH1 0x20 ADD SWAP1 DUP2 MSTORE PUSH1 0x20 ADD PUSH1 0x0 KECCAK256 PUSH1 0x0 ADD PUSH1 0x0 SWAP1 SLOAD SWAP1 PUSH2 0x100 EXP SWAP1 DIV PUSH1 0xFF AND SWAP1 POP SWAP2 SWAP1 POP JUMP JUMPDEST PUSH2 0x14F3 DUP2 PUSH2 0x27E8 JUMP JUMPDEST PUSH2 0x1532 JUMPI PUSH1 0x40 MLOAD PUSH32 0x8C379A000000000000000000000000000000000000000000000000000000000 DUP2 MSTORE PUSH1 0x4 ADD PUSH2 0x1529 SWAP1 PUSH2 0x3412 JUMP JUMPDEST PUSH1 0x40 MLOAD DUP1 SWAP2 SUB SWAP1 REVERT JUMPDEST PUSH1 0xA PUSH1 0x0 DUP3 PUSH20 0xFFFFFFFFFFFFFFFFFFFFFFFFFFFFFFFFFFFFFFFF AND PUSH20 0xFFFFFFFFFFFFFFFFFFFFFFFFFFFFFFFFFFFFFFFF AND DUP2 MSTORE PUSH1 0x20 ADD SWAP1 DUP2 MSTORE PUSH1 0x20 ADD PUSH1 0x0 KECCAK256 PUSH1 0x0 DUP1 DUP3 ADD PUSH1 0x0 PUSH2 0x100 EXP DUP2 SLOAD SWAP1 PUSH1 0xFF MUL NOT AND SWAP1 SSTORE PUSH1 0x1 DUP3 ADD PUSH1 0x0 PUSH2 0x1596 SWAP2 SWAP1 PUSH2 0x2C22 JUMP JUMPDEST PUSH1 0x2 DUP3 ADD PUSH1 0x0 PUSH2 0x100 EXP DUP2 SLOAD SWAP1 PUSH1 0xFF MUL NOT AND SWAP1 SSTORE POP POP POP JUMP JUMPDEST PUSH1 0x0 DUP1 SLOAD SWAP1 PUSH2 0x100 EXP SWAP1 DIV PUSH20 0xFFFFFFFFFFFFFFFFFFFFFFFFFFFFFFFFFFFFFFFF AND DUP2 JUMP JUMPDEST PUSH1 0x8 PUSH1 0x20 MSTORE DUP1 PUSH1 0x0 MSTORE PUSH1 0x40 PUSH1 0x0 KECCAK256 PUSH1 0x0 SWAP2 POP SWAP1 POP DUP1 PUSH1 0x0 ADD PUSH1 0x0 SWAP1 SLOAD SWAP1 PUSH2 0x100 EXP SWAP1 DIV PUSH1 0xFF AND SWAP1 DUP1 PUSH1 0x1 ADD DUP1 SLOAD PUSH2 0x1609 SWAP1 PUSH2 0x362E JUMP JUMPDEST DUP1 PUSH1 0x1F ADD PUSH1 0x20 DUP1 SWAP2 DIV MUL PUSH1 0x20 ADD PUSH1 0x40 MLOAD SWAP1 DUP2 ADD PUSH1 0x40 MSTORE DUP1 SWAP3 SWAP2 SWAP1 DUP2 DUP2 MSTORE PUSH1 0x20 ADD DUP3 DUP1 SLOAD PUSH2 0x1635 SWAP1 PUSH2 0x362E JUMP JUMPDEST DUP1 ISZERO PUSH2 0x1682 JUMPI DUP1 PUSH1 0x1F LT PUSH2 0x1657 JUMPI PUSH2 0x100 DUP1 DUP4 SLOAD DIV MUL DUP4 MSTORE SWAP2 PUSH1 0x20 ADD SWAP2 PUSH2 0x1682 JUMP JUMPDEST DUP3 ADD SWAP2 SWAP1 PUSH1 0x0 MSTORE PUSH1 0x20 PUSH1 0x0 KECCAK256 SWAP1 JUMPDEST DUP2 SLOAD DUP2 MSTORE SWAP1 PUSH1 0x1 ADD SWAP1 PUSH1 0x20 ADD DUP1 DUP4 GT PUSH2 0x1665 JUMPI DUP3 SWAP1 SUB PUSH1 0x1F AND DUP3 ADD SWAP2 JUMPDEST POP POP POP POP POP SWAP1 DUP1 PUSH1 0x2 ADD PUSH1 0x0 SWAP1 SLOAD SWAP1 PUSH2 0x100 EXP SWAP1 DIV PUSH1 0xFF AND SWAP1 POP DUP4 JUMP JUMPDEST PUSH1 0x0 PUSH1 0x9 PUSH1 0x0 DUP4 PUSH20 0xFFFFFFFFFFFFFFFFFFFFFFFFFFFFFFFFFFFFFFFF AND PUSH20 0xFFFFFFFFFFFFFFFFFFFFFFFFFFFFFFFFFFFFFFFF AND DUP2 MSTORE PUSH1 0x20 ADD SWAP1 DUP2 MSTORE PUSH1 0x20 ADD PUSH1 0x0 KECCAK256 PUSH1 0x0 ADD PUSH1 0x0 SWAP1 SLOAD SWAP1 PUSH2 0x100 EXP SWAP1 DIV PUSH1 0xFF AND SWAP1 POP SWAP2 SWAP1 POP JUMP JUMPDEST PUSH2 0x1701 DUP4 PUSH2 0x169F JUMP JUMPDEST PUSH2 0x1740 JUMPI PUSH1 0x40 MLOAD PUSH32 0x8C379A000000000000000000000000000000000000000000000000000000000 DUP2 MSTORE PUSH1 0x4 ADD PUSH2 0x1737 SWAP1 PUSH2 0x33B2 JUMP JUMPDEST PUSH1 0x40 MLOAD DUP1 SWAP2 SUB SWAP1 REVERT JUMPDEST PUSH1 0x1 PUSH1 0x9 PUSH1 0x0 DUP6 PUSH20 0xFFFFFFFFFFFFFFFFFFFFFFFFFFFFFFFFFFFFFFFF AND PUSH20 0xFFFFFFFFFFFFFFFFFFFFFFFFFFFFFFFFFFFFFFFF AND DUP2 MSTORE PUSH1 0x20 ADD SWAP1 DUP2 MSTORE PUSH1 0x20 ADD PUSH1 0x0 KECCAK256 PUSH1 0x0 ADD PUSH1 0x0 PUSH2 0x100 EXP DUP2 SLOAD DUP2 PUSH1 0xFF MUL NOT AND SWAP1 DUP4 ISZERO ISZERO MUL OR SWAP1 SSTORE POP DUP2 PUSH1 0x9 PUSH1 0x0 DUP6 PUSH20 0xFFFFFFFFFFFFFFFFFFFFFFFFFFFFFFFFFFFFFFFF AND PUSH20 0xFFFFFFFFFFFFFFFFFFFFFFFFFFFFFFFFFFFFFFFF AND DUP2 MSTORE PUSH1 0x20 ADD SWAP1 DUP2 MSTORE PUSH1 0x20 ADD PUSH1 0x0 KECCAK256 PUSH1 0x1 ADD SWAP1 DUP1 MLOAD SWAP1 PUSH1 0x20 ADD SWAP1 PUSH2 0x17F1 SWAP3 SWAP2 SWAP1 PUSH2 0x2B9C JUMP JUMPDEST POP DUP1 PUSH1 0x9 PUSH1 0x0 DUP6 PUSH20 0xFFFFFFFFFFFFFFFFFFFFFFFFFFFFFFFFFFFFFFFF AND PUSH20 0xFFFFFFFFFFFFFFFFFFFFFFFFFFFFFFFFFFFFFFFF AND DUP2 MSTORE PUSH1 0x20 ADD SWAP1 DUP2 MSTORE PUSH1 0x20 ADD PUSH1 0x0 KECCAK256 PUSH1 0x2 ADD PUSH1 0x0 PUSH2 0x100 EXP DUP2 SLOAD DUP2 PUSH1 0xFF MUL NOT AND SWAP1 DUP4 PUSH1 0xFF AND MUL OR SWAP1 SSTORE POP POP POP POP JUMP JUMPDEST PUSH1 0x9 PUSH1 0x20 MSTORE DUP1 PUSH1 0x0 MSTORE PUSH1 0x40 PUSH1 0x0 KECCAK256 PUSH1 0x0 SWAP2 POP SWAP1 POP DUP1 PUSH1 0x0 ADD PUSH1 0x0 SWAP1 SLOAD SWAP1 PUSH2 0x100 EXP SWAP1 DIV PUSH1 0xFF AND SWAP1 DUP1 PUSH1 0x1 ADD DUP1 SLOAD PUSH2 0x1888 SWAP1 PUSH2 0x362E JUMP JUMPDEST DUP1 PUSH1 0x1F ADD PUSH1 0x20 DUP1 SWAP2 DIV MUL PUSH1 0x20 ADD PUSH1 0x40 MLOAD SWAP1 DUP2 ADD PUSH1 0x40 MSTORE DUP1 SWAP3 SWAP2 SWAP1 DUP2 DUP2 MSTORE PUSH1 0x20 ADD DUP3 DUP1 SLOAD PUSH2 0x18B4 SWAP1 PUSH2 0x362E JUMP JUMPDEST DUP1 ISZERO PUSH2 0x1901 JUMPI DUP1 PUSH1 0x1F LT PUSH2 0x18D6 JUMPI PUSH2 0x100 DUP1 DUP4 SLOAD DIV MUL DUP4 MSTORE SWAP2 PUSH1 0x20 ADD SWAP2 PUSH2 0x1901 JUMP JUMPDEST DUP3 ADD SWAP2 SWAP1 PUSH1 0x0 MSTORE PUSH1 0x20 PUSH1 0x0 KECCAK256 SWAP1 JUMPDEST DUP2 SLOAD DUP2 MSTORE SWAP1 PUSH1 0x1 ADD SWAP1 PUSH1 0x20 ADD DUP1 DUP4 GT PUSH2 0x18E4 JUMPI DUP3 SWAP1 SUB PUSH1 0x1F AND DUP3 ADD SWAP2 JUMPDEST POP POP POP POP POP SWAP1 DUP1 PUSH1 0x2 ADD PUSH1 0x0 SWAP1 SLOAD SWAP1 PUSH2 0x100 EXP SWAP1 DIV PUSH1 0xFF AND SWAP1 POP DUP4 JUMP JUMPDEST PUSH2 0x1927 DUP2 PUSH2 0x289B JUMP JUMPDEST PUSH2 0x1966 JUMPI PUSH1 0x40 MLOAD PUSH32 0x8C379A000000000000000000000000000000000000000000000000000000000 DUP2 MSTORE PUSH1 0x4 ADD PUSH2 0x195D SWAP1 PUSH2 0x33F2 JUMP JUMPDEST PUSH1 0x40 MLOAD DUP1 SWAP2 SUB SWAP1 REVERT JUMPDEST PUSH1 0x4 PUSH1 0x0 DUP3 PUSH20 0xFFFFFFFFFFFFFFFFFFFFFFFFFFFFFFFFFFFFFFFF AND PUSH20 0xFFFFFFFFFFFFFFFFFFFFFFFFFFFFFFFFFFFFFFFF AND DUP2 MSTORE PUSH1 0x20 ADD SWAP1 DUP2 MSTORE PUSH1 0x20 ADD PUSH1 0x0 KECCAK256 PUSH1 0x0 DUP1 DUP3 ADD PUSH1 0x0 PUSH2 0x100 EXP DUP2 SLOAD SWAP1 PUSH1 0xFF MUL NOT AND SWAP1 SSTORE PUSH1 0x1 DUP3 ADD PUSH1 0x0 PUSH2 0x19CA SWAP2 SWAP1 PUSH2 0x2C22 JUMP JUMPDEST PUSH1 0x2 DUP3 ADD PUSH1 0x0 PUSH2 0x100 EXP DUP2 SLOAD SWAP1 PUSH1 0xFF MUL NOT AND SWAP1 SSTORE POP POP POP JUMP JUMPDEST PUSH2 0x19EC DUP4 PUSH2 0x27E8 JUMP JUMPDEST ISZERO PUSH2 0x1A2C JUMPI PUSH1 0x40 MLOAD PUSH32 0x8C379A000000000000000000000000000000000000000000000000000000000 DUP2 MSTORE PUSH1 0x4 ADD PUSH2 0x1A23 SWAP1 PUSH2 0x3392 JUMP JUMPDEST PUSH1 0x40 MLOAD DUP1 SWAP2 SUB SWAP1 REVERT JUMPDEST PUSH1 0x1 PUSH1 0xA PUSH1 0x0 DUP6 PUSH20 0xFFFFFFFFFFFFFFFFFFFFFFFFFFFFFFFFFFFFFFFF AND PUSH20 0xFFFFFFFFFFFFFFFFFFFFFFFFFFFFFFFFFFFFFFFF AND DUP2 MSTORE PUSH1 0x20 ADD SWAP1 DUP2 MSTORE PUSH1 0x20 ADD PUSH1 0x0 KECCAK256 PUSH1 0x0 ADD PUSH1 0x0 PUSH2 0x100 EXP DUP2 SLOAD DUP2 PUSH1 0xFF MUL NOT AND SWAP1 DUP4 ISZERO ISZERO MUL OR SWAP1 SSTORE POP DUP2 PUSH1 0xA PUSH1 0x0 DUP6 PUSH20 0xFFFFFFFFFFFFFFFFFFFFFFFFFFFFFFFFFFFFFFFF AND PUSH20 0xFFFFFFFFFFFFFFFFFFFFFFFFFFFFFFFFFFFFFFFF AND DUP2 MSTORE PUSH1 0x20 ADD SWAP1 DUP2 MSTORE PUSH1 0x20 ADD PUSH1 0x0 KECCAK256 PUSH1 0x1 ADD SWAP1 DUP1 MLOAD SWAP1 PUSH1 0x20 ADD SWAP1 PUSH2 0x1ADD SWAP3 SWAP2 SWAP1 PUSH2 0x2B9C JUMP JUMPDEST POP DUP1 PUSH1 0xA PUSH1 0x0 DUP6 PUSH20 0xFFFFFFFFFFFFFFFFFFFFFFFFFFFFFFFFFFFFFFFF AND PUSH20 0xFFFFFFFFFFFFFFFFFFFFFFFFFFFFFFFFFFFFFFFF AND DUP2 MSTORE PUSH1 0x20 ADD SWAP1 DUP2 MSTORE PUSH1 0x20 ADD PUSH1 0x0 KECCAK256 PUSH1 0x2 ADD PUSH1 0x0 PUSH2 0x100 EXP DUP2 SLOAD DUP2 PUSH1 0xFF MUL NOT AND SWAP1 DUP4 PUSH1 0xFF AND MUL OR SWAP1 SSTORE POP POP POP POP JUMP JUMPDEST PUSH1 0xB PUSH1 0x20 MSTORE DUP1 PUSH1 0x0 MSTORE PUSH1 0x40 PUSH1 0x0 KECCAK256 PUSH1 0x0 SWAP2 POP SWAP1 POP DUP1 PUSH1 0x0 ADD PUSH1 0x0 SWAP1 SLOAD SWAP1 PUSH2 0x100 EXP SWAP1 DIV PUSH4 0xFFFFFFFF AND SWAP1 DUP1 PUSH1 0x1 ADD DUP1 SLOAD PUSH2 0x1B77 SWAP1 PUSH2 0x362E JUMP JUMPDEST DUP1 PUSH1 0x1F ADD PUSH1 0x20 DUP1 SWAP2 DIV MUL PUSH1 0x20 ADD PUSH1 0x40 MLOAD SWAP1 DUP2 ADD PUSH1 0x40 MSTORE DUP1 SWAP3 SWAP2 SWAP1 DUP2 DUP2 MSTORE PUSH1 0x20 ADD DUP3 DUP1 SLOAD PUSH2 0x1BA3 SWAP1 PUSH2 0x362E JUMP JUMPDEST DUP1 ISZERO PUSH2 0x1BF0 JUMPI DUP1 PUSH1 0x1F LT PUSH2 0x1BC5 JUMPI PUSH2 0x100 DUP1 DUP4 SLOAD DIV MUL DUP4 MSTORE SWAP2 PUSH1 0x20 ADD SWAP2 PUSH2 0x1BF0 JUMP JUMPDEST DUP3 ADD SWAP2 SWAP1 PUSH1 0x0 MSTORE PUSH1 0x20 PUSH1 0x0 KECCAK256 SWAP1 JUMPDEST DUP2 SLOAD DUP2 MSTORE SWAP1 PUSH1 0x1 ADD SWAP1 PUSH1 0x20 ADD DUP1 DUP4 GT PUSH2 0x1BD3 JUMPI DUP3 SWAP1 SUB PUSH1 0x1F AND DUP3 ADD SWAP2 JUMPDEST POP POP POP POP POP SWAP1 POP DUP3 JUMP JUMPDEST PUSH2 0x1C03 DUP5 PUSH2 0xFB3 JUMP JUMPDEST PUSH2 0x1C42 JUMPI PUSH1 0x40 MLOAD PUSH32 0x8C379A000000000000000000000000000000000000000000000000000000000 DUP2 MSTORE PUSH1 0x4 ADD PUSH2 0x1C39 SWAP1 PUSH2 0x3472 JUMP JUMPDEST PUSH1 0x40 MLOAD DUP1 SWAP2 SUB SWAP1 REVERT JUMPDEST PUSH1 0x1 PUSH1 0x6 PUSH1 0x0 DUP7 PUSH20 0xFFFFFFFFFFFFFFFFFFFFFFFFFFFFFFFFFFFFFFFF AND PUSH20 0xFFFFFFFFFFFFFFFFFFFFFFFFFFFFFFFFFFFFFFFF AND DUP2 MSTORE PUSH1 0x20 ADD SWAP1 DUP2 MSTORE PUSH1 0x20 ADD PUSH1 0x0 KECCAK256 PUSH1 0x0 ADD PUSH1 0x0 PUSH2 0x100 EXP DUP2 SLOAD DUP2 PUSH1 0xFF MUL NOT AND SWAP1 DUP4 ISZERO ISZERO MUL OR SWAP1 SSTORE POP DUP3 PUSH1 0x6 PUSH1 0x0 DUP7 PUSH20 0xFFFFFFFFFFFFFFFFFFFFFFFFFFFFFFFFFFFFFFFF AND PUSH20 0xFFFFFFFFFFFFFFFFFFFFFFFFFFFFFFFFFFFFFFFF AND DUP2 MSTORE PUSH1 0x20 ADD SWAP1 DUP2 MSTORE PUSH1 0x20 ADD PUSH1 0x0 KECCAK256 PUSH1 0x2 ADD SWAP1 DUP1 MLOAD SWAP1 PUSH1 0x20 ADD SWAP1 PUSH2 0x1CF3 SWAP3 SWAP2 SWAP1 PUSH2 0x2B9C JUMP JUMPDEST POP DUP1 PUSH1 0x6 PUSH1 0x0 DUP7 PUSH20 0xFFFFFFFFFFFFFFFFFFFFFFFFFFFFFFFFFFFFFFFF AND PUSH20 0xFFFFFFFFFFFFFFFFFFFFFFFFFFFFFFFFFFFFFFFF AND DUP2 MSTORE PUSH1 0x20 ADD SWAP1 DUP2 MSTORE PUSH1 0x20 ADD PUSH1 0x0 KECCAK256 PUSH1 0x0 ADD PUSH1 0x1 PUSH2 0x100 EXP DUP2 SLOAD DUP2 PUSH1 0xFF MUL NOT AND SWAP1 DUP4 PUSH1 0xFF AND MUL OR SWAP1 SSTORE POP DUP2 PUSH1 0x6 PUSH1 0x0 DUP7 PUSH20 0xFFFFFFFFFFFFFFFFFFFFFFFFFFFFFFFFFFFFFFFF AND PUSH20 0xFFFFFFFFFFFFFFFFFFFFFFFFFFFFFFFFFFFFFFFF AND DUP2 MSTORE PUSH1 0x20 ADD SWAP1 DUP2 MSTORE PUSH1 0x20 ADD PUSH1 0x0 KECCAK256 PUSH1 0x1 ADD DUP2 SWAP1 SSTORE POP POP POP POP POP JUMP JUMPDEST PUSH2 0x1DA5 DUP2 PUSH2 0x9E6 JUMP JUMPDEST PUSH2 0x1DE4 JUMPI PUSH1 0x40 MLOAD PUSH32 0x8C379A000000000000000000000000000000000000000000000000000000000 DUP2 MSTORE PUSH1 0x4 ADD PUSH2 0x1DDB SWAP1 PUSH2 0x3492 JUMP JUMPDEST PUSH1 0x40 MLOAD DUP1 SWAP2 SUB SWAP1 REVERT JUMPDEST PUSH1 0x7 PUSH1 0x0 DUP3 PUSH20 0xFFFFFFFFFFFFFFFFFFFFFFFFFFFFFFFFFFFFFFFF AND PUSH20 0xFFFFFFFFFFFFFFFFFFFFFFFFFFFFFFFFFFFFFFFF AND DUP2 MSTORE PUSH1 0x20 ADD SWAP1 DUP2 MSTORE PUSH1 0x20 ADD PUSH1 0x0 KECCAK256 PUSH1 0x0 DUP1 DUP3 ADD PUSH1 0x0 PUSH2 0x100 EXP DUP2 SLOAD SWAP1 PUSH1 0xFF MUL NOT AND SWAP1 SSTORE PUSH1 0x1 DUP3 ADD PUSH1 0x0 PUSH2 0x1E48 SWAP2 SWAP1 PUSH2 0x2C22 JUMP JUMPDEST PUSH1 0x2 DUP3 ADD PUSH1 0x0 PUSH2 0x100 EXP DUP2 SLOAD SWAP1 PUSH1 0xFF MUL NOT AND SWAP1 SSTORE POP POP POP JUMP JUMPDEST PUSH2 0x1E6A DUP4 PUSH2 0x27E8 JUMP JUMPDEST PUSH2 0x1EA9 JUMPI PUSH1 0x40 MLOAD PUSH32 0x8C379A000000000000000000000000000000000000000000000000000000000 DUP2 MSTORE PUSH1 0x4 ADD PUSH2 0x1EA0 SWAP1 PUSH2 0x3412 JUMP JUMPDEST PUSH1 0x40 MLOAD DUP1 SWAP2 SUB SWAP1 REVERT JUMPDEST PUSH1 0x1 PUSH1 0xA PUSH1 0x0 DUP6 PUSH20 0xFFFFFFFFFFFFFFFFFFFFFFFFFFFFFFFFFFFFFFFF AND PUSH20 0xFFFFFFFFFFFFFFFFFFFFFFFFFFFFFFFFFFFFFFFF AND DUP2 MSTORE PUSH1 0x20 ADD SWAP1 DUP2 MSTORE PUSH1 0x20 ADD PUSH1 0x0 KECCAK256 PUSH1 0x0 ADD PUSH1 0x0 PUSH2 0x100 EXP DUP2 SLOAD DUP2 PUSH1 0xFF MUL NOT AND SWAP1 DUP4 ISZERO ISZERO MUL OR SWAP1 SSTORE POP DUP2 PUSH1 0xA PUSH1 0x0 DUP6 PUSH20 0xFFFFFFFFFFFFFFFFFFFFFFFFFFFFFFFFFFFFFFFF AND PUSH20 0xFFFFFFFFFFFFFFFFFFFFFFFFFFFFFFFFFFFFFFFF AND DUP2 MSTORE PUSH1 0x20 ADD SWAP1 DUP2 MSTORE PUSH1 0x20 ADD PUSH1 0x0 KECCAK256 PUSH1 0x1 ADD SWAP1 DUP1 MLOAD SWAP1 PUSH1 0x20 ADD SWAP1 PUSH2 0x1F5A SWAP3 SWAP2 SWAP1 PUSH2 0x2B9C JUMP JUMPDEST POP DUP1 PUSH1 0xA PUSH1 0x0 DUP6 PUSH20 0xFFFFFFFFFFFFFFFFFFFFFFFFFFFFFFFFFFFFFFFF AND PUSH20 0xFFFFFFFFFFFFFFFFFFFFFFFFFFFFFFFFFFFFFFFF AND DUP2 MSTORE PUSH1 0x20 ADD SWAP1 DUP2 MSTORE PUSH1 0x20 ADD PUSH1 0x0 KECCAK256 PUSH1 0x2 ADD PUSH1 0x0 PUSH2 0x100 EXP DUP2 SLOAD DUP2 PUSH1 0xFF MUL NOT AND SWAP1 DUP4 PUSH1 0xFF AND MUL OR SWAP1 SSTORE POP POP POP POP JUMP JUMPDEST PUSH1 0x0 PUSH1 0x3 PUSH1 0x0 DUP4 PUSH20 0xFFFFFFFFFFFFFFFFFFFFFFFFFFFFFFFFFFFFFFFF AND PUSH20 0xFFFFFFFFFFFFFFFFFFFFFFFFFFFFFFFFFFFFFFFF AND DUP2 MSTORE PUSH1 0x20 ADD SWAP1 DUP2 MSTORE PUSH1 0x20 ADD PUSH1 0x0 KECCAK256 PUSH1 0x0 ADD PUSH1 0x0 SWAP1 SLOAD SWAP1 PUSH2 0x100 EXP SWAP1 DIV PUSH1 0xFF AND SWAP1 POP SWAP2 SWAP1 POP JUMP JUMPDEST PUSH1 0x5 PUSH1 0x20 MSTORE DUP1 PUSH1 0x0 MSTORE PUSH1 0x40 PUSH1 0x0 KECCAK256 PUSH1 0x0 SWAP2 POP SWAP1 POP DUP1 PUSH1 0x0 ADD PUSH1 0x0 SWAP1 SLOAD SWAP1 PUSH2 0x100 EXP SWAP1 DIV PUSH1 0xFF AND SWAP1 DUP1 PUSH1 0x0 ADD PUSH1 0x1 SWAP1 SLOAD SWAP1 PUSH2 0x100 EXP SWAP1 DIV PUSH20 0xFFFFFFFFFFFFFFFFFFFFFFFFFFFFFFFFFFFFFFFF AND SWAP1 DUP1 PUSH1 0x0 ADD PUSH1 0x15 SWAP1 SLOAD SWAP1 PUSH2 0x100 EXP SWAP1 DIV PUSH2 0xFFFF AND SWAP1 DUP1 PUSH1 0x0 ADD PUSH1 0x17 SWAP1 SLOAD SWAP1 PUSH2 0x100 EXP SWAP1 DIV PUSH1 0xFF AND SWAP1 DUP1 PUSH1 0x1 ADD DUP1 SLOAD PUSH2 0x2097 SWAP1 PUSH2 0x362E JUMP JUMPDEST DUP1 PUSH1 0x1F ADD PUSH1 0x20 DUP1 SWAP2 DIV MUL PUSH1 0x20 ADD PUSH1 0x40 MLOAD SWAP1 DUP2 ADD PUSH1 0x40 MSTORE DUP1 SWAP3 SWAP2 SWAP1 DUP2 DUP2 MSTORE PUSH1 0x20 ADD DUP3 DUP1 SLOAD PUSH2 0x20C3 SWAP1 PUSH2 0x362E JUMP JUMPDEST DUP1 ISZERO PUSH2 0x2110 JUMPI DUP1 PUSH1 0x1F LT PUSH2 0x20E5 JUMPI PUSH2 0x100 DUP1 DUP4 SLOAD DIV MUL DUP4 MSTORE SWAP2 PUSH1 0x20 ADD SWAP2 PUSH2 0x2110 JUMP JUMPDEST DUP3 ADD SWAP2 SWAP1 PUSH1 0x0 MSTORE PUSH1 0x20 PUSH1 0x0 KECCAK256 SWAP1 JUMPDEST DUP2 SLOAD DUP2 MSTORE SWAP1 PUSH1 0x1 ADD SWAP1 PUSH1 0x20 ADD DUP1 DUP4 GT PUSH2 0x20F3 JUMPI DUP3 SWAP1 SUB PUSH1 0x1F AND DUP3 ADD SWAP2 JUMPDEST POP POP POP POP POP SWAP1 DUP1 PUSH1 0x2 ADD DUP1 SLOAD PUSH2 0x2125 SWAP1 PUSH2 0x362E JUMP JUMPDEST DUP1 PUSH1 0x1F ADD PUSH1 0x20 DUP1 SWAP2 DIV MUL PUSH1 0x20 ADD PUSH1 0x40 MLOAD SWAP1 DUP2 ADD PUSH1 0x40 MSTORE DUP1 SWAP3 SWAP2 SWAP1 DUP2 DUP2 MSTORE PUSH1 0x20 ADD DUP3 DUP1 SLOAD PUSH2 0x2151 SWAP1 PUSH2 0x362E JUMP JUMPDEST DUP1 ISZERO PUSH2 0x219E JUMPI DUP1 PUSH1 0x1F LT PUSH2 0x2173 JUMPI PUSH2 0x100 DUP1 DUP4 SLOAD DIV MUL DUP4 MSTORE SWAP2 PUSH1 0x20 ADD SWAP2 PUSH2 0x219E JUMP JUMPDEST DUP3 ADD SWAP2 SWAP1 PUSH1 0x0 MSTORE PUSH1 0x20 PUSH1 0x0 KECCAK256 SWAP1 JUMPDEST DUP2 SLOAD DUP2 MSTORE SWAP1 PUSH1 0x1 ADD SWAP1 PUSH1 0x20 ADD DUP1 DUP4 GT PUSH2 0x2181 JUMPI DUP3 SWAP1 SUB PUSH1 0x1F AND DUP3 ADD SWAP2 JUMPDEST POP POP POP POP POP SWAP1 POP DUP7 JUMP JUMPDEST PUSH2 0x21B1 DUP2 PUSH2 0x1FBB JUMP JUMPDEST PUSH2 0x21F0 JUMPI PUSH1 0x40 MLOAD PUSH32 0x8C379A000000000000000000000000000000000000000000000000000000000 DUP2 MSTORE PUSH1 0x4 ADD PUSH2 0x21E7 SWAP1 PUSH2 0x3332 JUMP JUMPDEST PUSH1 0x40 MLOAD DUP1 SWAP2 SUB SWAP1 REVERT JUMPDEST PUSH1 0x3 PUSH1 0x0 DUP3 PUSH20 0xFFFFFFFFFFFFFFFFFFFFFFFFFFFFFFFFFFFFFFFF AND PUSH20 0xFFFFFFFFFFFFFFFFFFFFFFFFFFFFFFFFFFFFFFFF AND DUP2 MSTORE PUSH1 0x20 ADD SWAP1 DUP2 MSTORE PUSH1 0x20 ADD PUSH1 0x0 KECCAK256 PUSH1 0x0 DUP1 DUP3 ADD PUSH1 0x0 PUSH2 0x100 EXP DUP2 SLOAD SWAP1 PUSH1 0xFF MUL NOT AND SWAP1 SSTORE POP POP POP JUMP JUMPDEST PUSH2 0x2252 DUP4 PUSH2 0x289B JUMP JUMPDEST PUSH2 0x2291 JUMPI PUSH1 0x40 MLOAD PUSH32 0x8C379A000000000000000000000000000000000000000000000000000000000 DUP2 MSTORE PUSH1 0x4 ADD PUSH2 0x2288 SWAP1 PUSH2 0x3312 JUMP JUMPDEST PUSH1 0x40 MLOAD DUP1 SWAP2 SUB SWAP1 REVERT JUMPDEST PUSH1 0x1 PUSH1 0x4 PUSH1 0x0 DUP6 PUSH20 0xFFFFFFFFFFFFFFFFFFFFFFFFFFFFFFFFFFFFFFFF AND PUSH20 0xFFFFFFFFFFFFFFFFFFFFFFFFFFFFFFFFFFFFFFFF AND DUP2 MSTORE PUSH1 0x20 ADD SWAP1 DUP2 MSTORE PUSH1 0x20 ADD PUSH1 0x0 KECCAK256 PUSH1 0x0 ADD PUSH1 0x0 PUSH2 0x100 EXP DUP2 SLOAD DUP2 PUSH1 0xFF MUL NOT AND SWAP1 DUP4 ISZERO ISZERO MUL OR SWAP1 SSTORE POP DUP2 PUSH1 0x4 PUSH1 0x0 DUP6 PUSH20 0xFFFFFFFFFFFFFFFFFFFFFFFFFFFFFFFFFFFFFFFF AND PUSH20 0xFFFFFFFFFFFFFFFFFFFFFFFFFFFFFFFFFFFFFFFF AND DUP2 MSTORE PUSH1 0x20 ADD SWAP1 DUP2 MSTORE PUSH1 0x20 ADD PUSH1 0x0 KECCAK256 PUSH1 0x1 ADD SWAP1 DUP1 MLOAD SWAP1 PUSH1 0x20 ADD SWAP1 PUSH2 0x2342 SWAP3 SWAP2 SWAP1 PUSH2 0x2B9C JUMP JUMPDEST POP DUP1 PUSH1 0x4 PUSH1 0x0 DUP6 PUSH20 0xFFFFFFFFFFFFFFFFFFFFFFFFFFFFFFFFFFFFFFFF AND PUSH20 0xFFFFFFFFFFFFFFFFFFFFFFFFFFFFFFFFFFFFFFFF AND DUP2 MSTORE PUSH1 0x20 ADD SWAP1 DUP2 MSTORE PUSH1 0x20 ADD PUSH1 0x0 KECCAK256 PUSH1 0x2 ADD PUSH1 0x0 PUSH2 0x100 EXP DUP2 SLOAD DUP2 PUSH1 0xFF MUL NOT AND SWAP1 DUP4 PUSH1 0xFF AND MUL OR SWAP1 SSTORE POP POP POP POP JUMP JUMPDEST PUSH1 0x3 PUSH1 0x20 MSTORE DUP1 PUSH1 0x0 MSTORE PUSH1 0x40 PUSH1 0x0 KECCAK256 PUSH1 0x0 SWAP2 POP SWAP1 POP DUP1 PUSH1 0x0 ADD PUSH1 0x0 SWAP1 SLOAD SWAP1 PUSH2 0x100 EXP SWAP1 DIV PUSH1 0xFF AND SWAP1 POP DUP2 JUMP JUMPDEST PUSH2 0x23D7 DUP5 PUSH2 0xFB3 JUMP JUMPDEST ISZERO PUSH2 0x2417 JUMPI PUSH1 0x40 MLOAD PUSH32 0x8C379A000000000000000000000000000000000000000000000000000000000 DUP2 MSTORE PUSH1 0x4 ADD PUSH2 0x240E SWAP1 PUSH2 0x3372 JUMP JUMPDEST PUSH1 0x40 MLOAD DUP1 SWAP2 SUB SWAP1 REVERT JUMPDEST PUSH1 0x1 PUSH1 0x6 PUSH1 0x0 DUP7 PUSH20 0xFFFFFFFFFFFFFFFFFFFFFFFFFFFFFFFFFFFFFFFF AND PUSH20 0xFFFFFFFFFFFFFFFFFFFFFFFFFFFFFFFFFFFFFFFF AND DUP2 MSTORE PUSH1 0x20 ADD SWAP1 DUP2 MSTORE PUSH1 0x20 ADD PUSH1 0x0 KECCAK256 PUSH1 0x0 ADD PUSH1 0x0 PUSH2 0x100 EXP DUP2 SLOAD DUP2 PUSH1 0xFF MUL NOT AND SWAP1 DUP4 ISZERO ISZERO MUL OR SWAP1 SSTORE POP DUP3 PUSH1 0x6 PUSH1 0x0 DUP7 PUSH20 0xFFFFFFFFFFFFFFFFFFFFFFFFFFFFFFFFFFFFFFFF AND PUSH20 0xFFFFFFFFFFFFFFFFFFFFFFFFFFFFFFFFFFFFFFFF AND DUP2 MSTORE PUSH1 0x20 ADD SWAP1 DUP2 MSTORE PUSH1 0x20 ADD PUSH1 0x0 KECCAK256 PUSH1 0x2 ADD SWAP1 DUP1 MLOAD SWAP1 PUSH1 0x20 ADD SWAP1 PUSH2 0x24C8 SWAP3 SWAP2 SWAP1 PUSH2 0x2B9C JUMP JUMPDEST POP DUP1 PUSH1 0x6 PUSH1 0x0 DUP7 PUSH20 0xFFFFFFFFFFFFFFFFFFFFFFFFFFFFFFFFFFFFFFFF AND PUSH20 0xFFFFFFFFFFFFFFFFFFFFFFFFFFFFFFFFFFFFFFFF AND DUP2 MSTORE PUSH1 0x20 ADD SWAP1 DUP2 MSTORE PUSH1 0x20 ADD PUSH1 0x0 KECCAK256 PUSH1 0x0 ADD PUSH1 0x1 PUSH2 0x100 EXP DUP2 SLOAD DUP2 PUSH1 0xFF MUL NOT AND SWAP1 DUP4 PUSH1 0xFF AND MUL OR SWAP1 SSTORE POP DUP2 PUSH1 0x6 PUSH1 0x0 DUP7 PUSH20 0xFFFFFFFFFFFFFFFFFFFFFFFFFFFFFFFFFFFFFFFF AND PUSH20 0xFFFFFFFFFFFFFFFFFFFFFFFFFFFFFFFFFFFFFFFF AND DUP2 MSTORE PUSH1 0x20 ADD SWAP1 DUP2 MSTORE PUSH1 0x20 ADD PUSH1 0x0 KECCAK256 PUSH1 0x1 ADD DUP2 SWAP1 SSTORE POP POP POP POP POP JUMP JUMPDEST PUSH2 0x257A DUP4 PUSH2 0x9E6 JUMP JUMPDEST PUSH2 0x25B9 JUMPI PUSH1 0x40 MLOAD PUSH32 0x8C379A000000000000000000000000000000000000000000000000000000000 DUP2 MSTORE PUSH1 0x4 ADD PUSH2 0x25B0 SWAP1 PUSH2 0x3492 JUMP JUMPDEST PUSH1 0x40 MLOAD DUP1 SWAP2 SUB SWAP1 REVERT JUMPDEST PUSH1 0x1 PUSH1 0x7 PUSH1 0x0 DUP6 PUSH20 0xFFFFFFFFFFFFFFFFFFFFFFFFFFFFFFFFFFFFFFFF AND PUSH20 0xFFFFFFFFFFFFFFFFFFFFFFFFFFFFFFFFFFFFFFFF AND DUP2 MSTORE PUSH1 0x20 ADD SWAP1 DUP2 MSTORE PUSH1 0x20 ADD PUSH1 0x0 KECCAK256 PUSH1 0x0 ADD PUSH1 0x0 PUSH2 0x100 EXP DUP2 SLOAD DUP2 PUSH1 0xFF MUL NOT AND SWAP1 DUP4 ISZERO ISZERO MUL OR SWAP1 SSTORE POP DUP2 PUSH1 0x7 PUSH1 0x0 DUP6 PUSH20 0xFFFFFFFFFFFFFFFFFFFFFFFFFFFFFFFFFFFFFFFF AND PUSH20 0xFFFFFFFFFFFFFFFFFFFFFFFFFFFFFFFFFFFFFFFF AND DUP2 MSTORE PUSH1 0x20 ADD SWAP1 DUP2 MSTORE PUSH1 0x20 ADD PUSH1 0x0 KECCAK256 PUSH1 0x1 ADD SWAP1 DUP1 MLOAD SWAP1 PUSH1 0x20 ADD SWAP1 PUSH2 0x266A SWAP3 SWAP2 SWAP1 PUSH2 0x2B9C JUMP JUMPDEST POP DUP1 PUSH1 0x7 PUSH1 0x0 DUP6 PUSH20 0xFFFFFFFFFFFFFFFFFFFFFFFFFFFFFFFFFFFFFFFF AND PUSH20 0xFFFFFFFFFFFFFFFFFFFFFFFFFFFFFFFFFFFFFFFF AND DUP2 MSTORE PUSH1 0x20 ADD SWAP1 DUP2 MSTORE PUSH1 0x20 ADD PUSH1 0x0 KECCAK256 PUSH1 0x2 ADD PUSH1 0x0 PUSH2 0x100 EXP DUP2 SLOAD DUP2 PUSH1 0xFF MUL NOT AND SWAP1 DUP4 PUSH1 0xFF AND MUL OR SWAP1 SSTORE POP POP POP POP JUMP JUMPDEST PUSH1 0x0 DUP2 PUSH20 0xFFFFFFFFFFFFFFFFFFFFFFFFFFFFFFFFFFFFFFFF AND PUSH1 0x0 DUP1 SLOAD SWAP1 PUSH2 0x100 EXP SWAP1 DIV PUSH20 0xFFFFFFFFFFFFFFFFFFFFFFFFFFFFFFFFFFFFFFFF AND PUSH20 0xFFFFFFFFFFFFFFFFFFFFFFFFFFFFFFFFFFFFFFFF AND EQ SWAP1 POP SWAP2 SWAP1 POP JUMP JUMPDEST PUSH2 0x272C DUP2 PUSH2 0x169F JUMP JUMPDEST PUSH2 0x276B JUMPI PUSH1 0x40 MLOAD PUSH32 0x8C379A000000000000000000000000000000000000000000000000000000000 DUP2 MSTORE PUSH1 0x4 ADD PUSH2 0x2762 SWAP1 PUSH2 0x33B2 JUMP JUMPDEST PUSH1 0x40 MLOAD DUP1 SWAP2 SUB SWAP1 REVERT JUMPDEST PUSH1 0x9 PUSH1 0x0 DUP3 PUSH20 0xFFFFFFFFFFFFFFFFFFFFFFFFFFFFFFFFFFFFFFFF AND PUSH20 0xFFFFFFFFFFFFFFFFFFFFFFFFFFFFFFFFFFFFFFFF AND DUP2 MSTORE PUSH1 0x20 ADD SWAP1 DUP2 MSTORE PUSH1 0x20 ADD PUSH1 0x0 KECCAK256 PUSH1 0x0 DUP1 DUP3 ADD PUSH1 0x0 PUSH2 0x100 EXP DUP2 SLOAD SWAP1 PUSH1 0xFF MUL NOT AND SWAP1 SSTORE PUSH1 0x1 DUP3 ADD PUSH1 0x0 PUSH2 0x27CF SWAP2 SWAP1 PUSH2 0x2C22 JUMP JUMPDEST PUSH1 0x2 DUP3 ADD PUSH1 0x0 PUSH2 0x100 EXP DUP2 SLOAD SWAP1 PUSH1 0xFF MUL NOT AND SWAP1 SSTORE POP POP POP JUMP JUMPDEST PUSH1 0x0 PUSH1 0xA PUSH1 0x0 DUP4 PUSH20 0xFFFFFFFFFFFFFFFFFFFFFFFFFFFFFFFFFFFFFFFF AND PUSH20 0xFFFFFFFFFFFFFFFFFFFFFFFFFFFFFFFFFFFFFFFF AND DUP2 MSTORE PUSH1 0x20 ADD SWAP1 DUP2 MSTORE PUSH1 0x20 ADD PUSH1 0x0 KECCAK256 PUSH1 0x0 ADD PUSH1 0x0 SWAP1 SLOAD SWAP1 PUSH2 0x100 EXP SWAP1 DIV PUSH1 0xFF AND SWAP1 POP SWAP2 SWAP1 POP JUMP JUMPDEST PUSH1 0x0 DUP2 PUSH20 0xFFFFFFFFFFFFFFFFFFFFFFFFFFFFFFFFFFFFFFFF AND PUSH1 0x2 PUSH1 0x0 SWAP1 SLOAD SWAP1 PUSH2 0x100 EXP SWAP1 DIV PUSH20 0xFFFFFFFFFFFFFFFFFFFFFFFFFFFFFFFFFFFFFFFF AND PUSH20 0xFFFFFFFFFFFFFFFFFFFFFFFFFFFFFFFFFFFFFFFF AND EQ SWAP1 POP SWAP2 SWAP1 POP JUMP JUMPDEST PUSH1 0x0 PUSH1 0x4 PUSH1 0x0 DUP4 PUSH20 0xFFFFFFFFFFFFFFFFFFFFFFFFFFFFFFFFFFFFFFFF AND PUSH20 0xFFFFFFFFFFFFFFFFFFFFFFFFFFFFFFFFFFFFFFFF AND DUP2 MSTORE PUSH1 0x20 ADD SWAP1 DUP2 MSTORE PUSH1 0x20 ADD PUSH1 0x0 KECCAK256 PUSH1 0x0 ADD PUSH1 0x0 SWAP1 SLOAD SWAP1 PUSH2 0x100 EXP SWAP1 DIV PUSH1 0xFF AND SWAP1 POP SWAP2 SWAP1 POP JUMP JUMPDEST PUSH2 0x28FD DUP3 PUSH2 0x1FBB JUMP JUMPDEST PUSH2 0x293C JUMPI PUSH1 0x40 MLOAD PUSH32 0x8C379A000000000000000000000000000000000000000000000000000000000 DUP2 MSTORE PUSH1 0x4 ADD PUSH2 0x2933 SWAP1 PUSH2 0x3332 JUMP JUMPDEST PUSH1 0x40 MLOAD DUP1 SWAP2 SUB SWAP1 REVERT JUMPDEST DUP1 PUSH1 0x3 PUSH1 0x0 DUP5 PUSH20 0xFFFFFFFFFFFFFFFFFFFFFFFFFFFFFFFFFFFFFFFF AND PUSH20 0xFFFFFFFFFFFFFFFFFFFFFFFFFFFFFFFFFFFFFFFF AND DUP2 MSTORE PUSH1 0x20 ADD SWAP1 DUP2 MSTORE PUSH1 0x20 ADD PUSH1 0x0 KECCAK256 PUSH1 0x0 ADD PUSH1 0x0 PUSH2 0x100 EXP DUP2 SLOAD DUP2 PUSH1 0xFF MUL NOT AND SWAP1 DUP4 ISZERO ISZERO MUL OR SWAP1 SSTORE POP POP POP JUMP JUMPDEST PUSH2 0x29A3 DUP2 PUSH2 0x1FBB JUMP JUMPDEST ISZERO PUSH2 0x29E3 JUMPI PUSH1 0x40 MLOAD PUSH32 0x8C379A000000000000000000000000000000000000000000000000000000000 DUP2 MSTORE PUSH1 0x4 ADD PUSH2 0x29DA SWAP1 PUSH2 0x3432 JUMP JUMPDEST PUSH1 0x40 MLOAD DUP1 SWAP2 SUB SWAP1 REVERT JUMPDEST PUSH1 0x1 PUSH1 0x3 PUSH1 0x0 DUP4 PUSH20 0xFFFFFFFFFFFFFFFFFFFFFFFFFFFFFFFFFFFFFFFF AND PUSH20 0xFFFFFFFFFFFFFFFFFFFFFFFFFFFFFFFFFFFFFFFF AND DUP2 MSTORE PUSH1 0x20 ADD SWAP1 DUP2 MSTORE PUSH1 0x20 ADD PUSH1 0x0 KECCAK256 PUSH1 0x0 ADD PUSH1 0x0 PUSH2 0x100 EXP DUP2 SLOAD DUP2 PUSH1 0xFF MUL NOT AND SWAP1 DUP4 ISZERO ISZERO MUL OR SWAP1 SSTORE POP POP JUMP JUMPDEST PUSH2 0x2A4A DUP4 PUSH2 0x1491 JUMP JUMPDEST ISZERO PUSH2 0x2A8A JUMPI PUSH1 0x40 MLOAD PUSH32 0x8C379A000000000000000000000000000000000000000000000000000000000 DUP2 MSTORE PUSH1 0x4 ADD PUSH2 0x2A81 SWAP1 PUSH2 0x3352 JUMP JUMPDEST PUSH1 0x40 MLOAD DUP1 SWAP2 SUB SWAP1 REVERT JUMPDEST PUSH1 0x1 PUSH1 0x8 PUSH1 0x0 DUP6 PUSH20 0xFFFFFFFFFFFFFFFFFFFFFFFFFFFFFFFFFFFFFFFF AND PUSH20 0xFFFFFFFFFFFFFFFFFFFFFFFFFFFFFFFFFFFFFFFF AND DUP2 MSTORE PUSH1 0x20 ADD SWAP1 DUP2 MSTORE PUSH1 0x20 ADD PUSH1 0x0 KECCAK256 PUSH1 0x0 ADD PUSH1 0x0 PUSH2 0x100 EXP DUP2 SLOAD DUP2 PUSH1 0xFF MUL NOT AND SWAP1 DUP4 ISZERO ISZERO MUL OR SWAP1 SSTORE POP DUP2 PUSH1 0x8 PUSH1 0x0 DUP6 PUSH20 0xFFFFFFFFFFFFFFFFFFFFFFFFFFFFFFFFFFFFFFFF AND PUSH20 0xFFFFFFFFFFFFFFFFFFFFFFFFFFFFFFFFFFFFFFFF AND DUP2 MSTORE PUSH1 0x20 ADD SWAP1 DUP2 MSTORE PUSH1 0x20 ADD PUSH1 0x0 KECCAK256 PUSH1 0x1 ADD SWAP1 DUP1 MLOAD SWAP1 PUSH1 0x20 ADD SWAP1 PUSH2 0x2B3B SWAP3 SWAP2 SWAP1 PUSH2 0x2B9C JUMP JUMPDEST POP DUP1 PUSH1 0x8 PUSH1 0x0 DUP6 PUSH20 0xFFFFFFFFFFFFFFFFFFFFFFFFFFFFFFFFFFFFFFFF AND PUSH20 0xFFFFFFFFFFFFFFFFFFFFFFFFFFFFFFFFFFFFFFFF AND DUP2 MSTORE PUSH1 0x20 ADD SWAP1 DUP2 MSTORE PUSH1 0x20 ADD PUSH1 0x0 KECCAK256 PUSH1 0x2 ADD PUSH1 0x0 PUSH2 0x100 EXP DUP2 SLOAD DUP2 PUSH1 0xFF MUL NOT AND SWAP1 DUP4 PUSH1 0xFF AND MUL OR SWAP1 SSTORE POP POP POP POP JUMP JUMPDEST DUP3 DUP1 SLOAD PUSH2 0x2BA8 SWAP1 PUSH2 0x362E JUMP JUMPDEST SWAP1 PUSH1 0x0 MSTORE PUSH1 0x20 PUSH1 0x0 KECCAK256 SWAP1 PUSH1 0x1F ADD PUSH1 0x20 SWAP1 DIV DUP2 ADD SWAP3 DUP3 PUSH2 0x2BCA JUMPI PUSH1 0x0 DUP6 SSTORE PUSH2 0x2C11 JUMP JUMPDEST DUP3 PUSH1 0x1F LT PUSH2 0x2BE3 JUMPI DUP1 MLOAD PUSH1 0xFF NOT AND DUP4 DUP1 ADD OR DUP6 SSTORE PUSH2 0x2C11 JUMP JUMPDEST DUP3 DUP1 ADD PUSH1 0x1 ADD DUP6 SSTORE DUP3 ISZERO PUSH2 0x2C11 JUMPI SWAP2 DUP3 ADD JUMPDEST DUP3 DUP2 GT ISZERO PUSH2 0x2C10 JUMPI DUP3 MLOAD DUP3 SSTORE SWAP2 PUSH1 0x20 ADD SWAP2 SWAP1 PUSH1 0x1 ADD SWAP1 PUSH2 0x2BF5 JUMP JUMPDEST JUMPDEST POP SWAP1 POP PUSH2 0x2C1E SWAP2 SWAP1 PUSH2 0x2C62 JUMP JUMPDEST POP SWAP1 JUMP JUMPDEST POP DUP1 SLOAD PUSH2 0x2C2E SWAP1 PUSH2 0x362E JUMP JUMPDEST PUSH1 0x0 DUP3 SSTORE DUP1 PUSH1 0x1F LT PUSH2 0x2C40 JUMPI POP PUSH2 0x2C5F JUMP JUMPDEST PUSH1 0x1F ADD PUSH1 0x20 SWAP1 DIV SWAP1 PUSH1 0x0 MSTORE PUSH1 0x20 PUSH1 0x0 KECCAK256 SWAP1 DUP2 ADD SWAP1 PUSH2 0x2C5E SWAP2 SWAP1 PUSH2 0x2C62 JUMP JUMPDEST JUMPDEST POP JUMP JUMPDEST JUMPDEST DUP1 DUP3 GT ISZERO PUSH2 0x2C7B JUMPI PUSH1 0x0 DUP2 PUSH1 0x0 SWAP1 SSTORE POP PUSH1 0x1 ADD PUSH2 0x2C63 JUMP JUMPDEST POP SWAP1 JUMP JUMPDEST PUSH1 0x0 PUSH2 0x2C92 PUSH2 0x2C8D DUP5 PUSH2 0x3507 JUMP JUMPDEST PUSH2 0x34E2 JUMP JUMPDEST SWAP1 POP DUP3 DUP2 MSTORE PUSH1 0x20 DUP2 ADD DUP5 DUP5 DUP5 ADD GT ISZERO PUSH2 0x2CAE JUMPI PUSH2 0x2CAD PUSH2 0x3723 JUMP JUMPDEST JUMPDEST PUSH2 0x2CB9 DUP5 DUP3 DUP6 PUSH2 0x35EC JUMP JUMPDEST POP SWAP4 SWAP3 POP POP POP JUMP JUMPDEST PUSH1 0x0 DUP2 CALLDATALOAD SWAP1 POP PUSH2 0x2CD0 DUP2 PUSH2 0x39E1 JUMP JUMPDEST SWAP3 SWAP2 POP POP JUMP JUMPDEST PUSH1 0x0 DUP2 CALLDATALOAD SWAP1 POP PUSH2 0x2CE5 DUP2 PUSH2 0x39F8 JUMP JUMPDEST SWAP3 SWAP2 POP POP JUMP JUMPDEST PUSH1 0x0 DUP3 PUSH1 0x1F DUP4 ADD SLT PUSH2 0x2D00 JUMPI PUSH2 0x2CFF PUSH2 0x371E JUMP JUMPDEST JUMPDEST DUP2 CALLDATALOAD PUSH2 0x2D10 DUP5 DUP3 PUSH1 0x20 DUP7 ADD PUSH2 0x2C7F JUMP JUMPDEST SWAP2 POP POP SWAP3 SWAP2 POP POP JUMP JUMPDEST PUSH1 0x0 DUP2 CALLDATALOAD SWAP1 POP PUSH2 0x2D28 DUP2 PUSH2 0x3A0F JUMP JUMPDEST SWAP3 SWAP2 POP POP JUMP JUMPDEST PUSH1 0x0 DUP2 CALLDATALOAD SWAP1 POP PUSH2 0x2D3D DUP2 PUSH2 0x3A26 JUMP JUMPDEST SWAP3 SWAP2 POP POP JUMP JUMPDEST PUSH1 0x0 DUP2 CALLDATALOAD SWAP1 POP PUSH2 0x2D52 DUP2 PUSH2 0x3A3D JUMP JUMPDEST SWAP3 SWAP2 POP POP JUMP JUMPDEST PUSH1 0x0 PUSH1 0x20 DUP3 DUP5 SUB SLT ISZERO PUSH2 0x2D6E JUMPI PUSH2 0x2D6D PUSH2 0x372D JUMP JUMPDEST JUMPDEST PUSH1 0x0 PUSH2 0x2D7C DUP5 DUP3 DUP6 ADD PUSH2 0x2CC1 JUMP JUMPDEST SWAP2 POP POP SWAP3 SWAP2 POP POP JUMP JUMPDEST PUSH1 0x0 DUP1 PUSH1 0x0 PUSH1 0x60 DUP5 DUP7 SUB SLT ISZERO PUSH2 0x2D9E JUMPI PUSH2 0x2D9D PUSH2 0x372D JUMP JUMPDEST JUMPDEST PUSH1 0x0 PUSH2 0x2DAC DUP7 DUP3 DUP8 ADD PUSH2 0x2CC1 JUMP JUMPDEST SWAP4 POP POP PUSH1 0x20 PUSH2 0x2DBD DUP7 DUP3 DUP8 ADD PUSH2 0x2CC1 JUMP JUMPDEST SWAP3 POP POP PUSH1 0x40 PUSH2 0x2DCE DUP7 DUP3 DUP8 ADD PUSH2 0x2CC1 JUMP JUMPDEST SWAP2 POP POP SWAP3 POP SWAP3 POP SWAP3 JUMP JUMPDEST PUSH1 0x0 DUP1 PUSH1 0x40 DUP4 DUP6 SUB SLT ISZERO PUSH2 0x2DEF JUMPI PUSH2 0x2DEE PUSH2 0x372D JUMP JUMPDEST JUMPDEST PUSH1 0x0 PUSH2 0x2DFD DUP6 DUP3 DUP7 ADD PUSH2 0x2CC1 JUMP JUMPDEST SWAP3 POP POP PUSH1 0x20 PUSH2 0x2E0E DUP6 DUP3 DUP7 ADD PUSH2 0x2CD6 JUMP JUMPDEST SWAP2 POP POP SWAP3 POP SWAP3 SWAP1 POP JUMP JUMPDEST PUSH1 0x0 DUP1 PUSH1 0x0 DUP1 PUSH1 0x80 DUP6 DUP8 SUB SLT ISZERO PUSH2 0x2E32 JUMPI PUSH2 0x2E31 PUSH2 0x372D JUMP JUMPDEST JUMPDEST PUSH1 0x0 PUSH2 0x2E40 DUP8 DUP3 DUP9 ADD PUSH2 0x2CC1 JUMP JUMPDEST SWAP5 POP POP PUSH1 0x20 DUP6 ADD CALLDATALOAD PUSH8 0xFFFFFFFFFFFFFFFF DUP2 GT ISZERO PUSH2 0x2E61 JUMPI PUSH2 0x2E60 PUSH2 0x3728 JUMP JUMPDEST JUMPDEST PUSH2 0x2E6D DUP8 DUP3 DUP9 ADD PUSH2 0x2CEB JUMP JUMPDEST SWAP4 POP POP PUSH1 0x40 PUSH2 0x2E7E DUP8 DUP3 DUP9 ADD PUSH2 0x2D19 JUMP JUMPDEST SWAP3 POP POP PUSH1 0x60 PUSH2 0x2E8F DUP8 DUP3 DUP9 ADD PUSH2 0x2D43 JUMP JUMPDEST SWAP2 POP POP SWAP3 SWAP6 SWAP2 SWAP5 POP SWAP3 POP JUMP JUMPDEST PUSH1 0x0 DUP1 PUSH1 0x0 PUSH1 0x60 DUP5 DUP7 SUB SLT ISZERO PUSH2 0x2EB4 JUMPI PUSH2 0x2EB3 PUSH2 0x372D JUMP JUMPDEST JUMPDEST PUSH1 0x0 PUSH2 0x2EC2 DUP7 DUP3 DUP8 ADD PUSH2 0x2CC1 JUMP JUMPDEST SWAP4 POP POP PUSH1 0x20 DUP5 ADD CALLDATALOAD PUSH8 0xFFFFFFFFFFFFFFFF DUP2 GT ISZERO PUSH2 0x2EE3 JUMPI PUSH2 0x2EE2 PUSH2 0x3728 JUMP JUMPDEST JUMPDEST PUSH2 0x2EEF DUP7 DUP3 DUP8 ADD PUSH2 0x2CEB JUMP JUMPDEST SWAP3 POP POP PUSH1 0x40 PUSH2 0x2F00 DUP7 DUP3 DUP8 ADD PUSH2 0x2D43 JUMP JUMPDEST SWAP2 POP POP SWAP3 POP SWAP3 POP SWAP3 JUMP JUMPDEST PUSH1 0x0 PUSH1 0x20 DUP3 DUP5 SUB SLT ISZERO PUSH2 0x2F20 JUMPI PUSH2 0x2F1F PUSH2 0x372D JUMP JUMPDEST JUMPDEST PUSH1 0x0 PUSH2 0x2F2E DUP5 DUP3 DUP6 ADD PUSH2 0x2D2E JUMP JUMPDEST SWAP2 POP POP SWAP3 SWAP2 POP POP JUMP JUMPDEST PUSH2 0x2F40 DUP2 PUSH2 0x3554 JUMP JUMPDEST DUP3 MSTORE POP POP JUMP JUMPDEST PUSH2 0x2F4F DUP2 PUSH2 0x3566 JUMP JUMPDEST DUP3 MSTORE POP POP JUMP JUMPDEST PUSH2 0x2F5E DUP2 PUSH2 0x35DA JUMP JUMPDEST DUP3 MSTORE POP POP JUMP JUMPDEST PUSH1 0x0 PUSH2 0x2F6F DUP3 PUSH2 0x3538 JUMP JUMPDEST PUSH2 0x2F79 DUP2 DUP6 PUSH2 0x3543 JUMP JUMPDEST SWAP4 POP PUSH2 0x2F89 DUP2 DUP6 PUSH1 0x20 DUP7 ADD PUSH2 0x35FB JUMP JUMPDEST PUSH2 0x2F92 DUP2 PUSH2 0x3732 JUMP JUMPDEST DUP5 ADD SWAP2 POP POP SWAP3 SWAP2 POP POP JUMP JUMPDEST PUSH1 0x0 PUSH2 0x2FAA PUSH1 0x19 DUP4 PUSH2 0x3543 JUMP JUMPDEST SWAP2 POP PUSH2 0x2FB5 DUP3 PUSH2 0x3743 JUMP JUMPDEST PUSH1 0x20 DUP3 ADD SWAP1 POP SWAP2 SWAP1 POP JUMP JUMPDEST PUSH1 0x0 PUSH2 0x2FCD PUSH1 0x17 DUP4 PUSH2 0x3543 JUMP JUMPDEST SWAP2 POP PUSH2 0x2FD8 DUP3 PUSH2 0x376C JUMP JUMPDEST PUSH1 0x20 DUP3 ADD SWAP1 POP SWAP2 SWAP1 POP JUMP JUMPDEST PUSH1 0x0 PUSH2 0x2FF0 PUSH1 0x11 DUP4 PUSH2 0x3543 JUMP JUMPDEST SWAP2 POP PUSH2 0x2FFB DUP3 PUSH2 0x3795 JUMP JUMPDEST PUSH1 0x20 DUP3 ADD SWAP1 POP SWAP2 SWAP1 POP JUMP JUMPDEST PUSH1 0x0 PUSH2 0x3013 PUSH1 0x18 DUP4 PUSH2 0x3543 JUMP JUMPDEST SWAP2 POP PUSH2 0x301E DUP3 PUSH2 0x37BE JUMP JUMPDEST PUSH1 0x20 DUP3 ADD SWAP1 POP SWAP2 SWAP1 POP JUMP JUMPDEST PUSH1 0x0 PUSH2 0x3036 PUSH1 0x12 DUP4 PUSH2 0x3543 JUMP JUMPDEST SWAP2 POP PUSH2 0x3041 DUP3 PUSH2 0x37E7 JUMP JUMPDEST PUSH1 0x20 DUP3 ADD SWAP1 POP SWAP2 SWAP1 POP JUMP JUMPDEST PUSH1 0x0 PUSH2 0x3059 PUSH1 0x1E DUP4 PUSH2 0x3543 JUMP JUMPDEST SWAP2 POP PUSH2 0x3064 DUP3 PUSH2 0x3810 JUMP JUMPDEST PUSH1 0x20 DUP3 ADD SWAP1 POP SWAP2 SWAP1 POP JUMP JUMPDEST PUSH1 0x0 PUSH2 0x307C PUSH1 0x22 DUP4 PUSH2 0x3543 JUMP JUMPDEST SWAP2 POP PUSH2 0x3087 DUP3 PUSH2 0x3839 JUMP JUMPDEST PUSH1 0x40 DUP3 ADD SWAP1 POP SWAP2 SWAP1 POP JUMP JUMPDEST PUSH1 0x0 PUSH2 0x309F PUSH1 0x22 DUP4 PUSH2 0x3543 JUMP JUMPDEST SWAP2 POP PUSH2 0x30AA DUP3 PUSH2 0x3888 JUMP JUMPDEST PUSH1 0x40 DUP3 ADD SWAP1 POP SWAP2 SWAP1 POP JUMP JUMPDEST PUSH1 0x0 PUSH2 0x30C2 PUSH1 0x17 DUP4 PUSH2 0x3543 JUMP JUMPDEST SWAP2 POP PUSH2 0x30CD DUP3 PUSH2 0x38D7 JUMP JUMPDEST PUSH1 0x20 DUP3 ADD SWAP1 POP SWAP2 SWAP1 POP JUMP JUMPDEST PUSH1 0x0 PUSH2 0x30E5 PUSH1 0x1E DUP4 PUSH2 0x3543 JUMP JUMPDEST SWAP2 POP PUSH2 0x30F0 DUP3 PUSH2 0x3900 JUMP JUMPDEST PUSH1 0x20 DUP3 ADD SWAP1 POP SWAP2 SWAP1 POP JUMP JUMPDEST PUSH1 0x0 PUSH2 0x3108 PUSH1 0x11 DUP4 PUSH2 0x3543 JUMP JUMPDEST SWAP2 POP PUSH2 0x3113 DUP3 PUSH2 0x3929 JUMP JUMPDEST PUSH1 0x20 DUP3 ADD SWAP1 POP SWAP2 SWAP1 POP JUMP JUMPDEST PUSH1 0x0 PUSH2 0x312B PUSH1 0x18 DUP4 PUSH2 0x3543 JUMP JUMPDEST SWAP2 POP PUSH2 0x3136 DUP3 PUSH2 0x3952 JUMP JUMPDEST PUSH1 0x20 DUP3 ADD SWAP1 POP SWAP2 SWAP1 POP JUMP JUMPDEST PUSH1 0x0 PUSH2 0x314E PUSH1 0x12 DUP4 PUSH2 0x3543 JUMP JUMPDEST SWAP2 POP PUSH2 0x3159 DUP3 PUSH2 0x397B JUMP JUMPDEST PUSH1 0x20 DUP3 ADD SWAP1 POP SWAP2 SWAP1 POP JUMP JUMPDEST PUSH1 0x0 PUSH2 0x3171 PUSH1 0x19 DUP4 PUSH2 0x3543 JUMP JUMPDEST SWAP2 POP PUSH2 0x317C DUP3 PUSH2 0x39A4 JUMP JUMPDEST PUSH1 0x20 DUP3 ADD SWAP1 POP SWAP2 SWAP1 POP JUMP JUMPDEST PUSH2 0x3190 DUP2 PUSH2 0x3585 JUMP JUMPDEST DUP3 MSTORE POP POP JUMP JUMPDEST PUSH2 0x319F DUP2 PUSH2 0x35B3 JUMP JUMPDEST DUP3 MSTORE POP POP JUMP JUMPDEST PUSH2 0x31AE DUP2 PUSH2 0x35BD JUMP JUMPDEST DUP3 MSTORE POP POP JUMP JUMPDEST PUSH2 0x31BD DUP2 PUSH2 0x35CD JUMP JUMPDEST DUP3 MSTORE POP POP JUMP JUMPDEST PUSH1 0x0 PUSH1 0x20 DUP3 ADD SWAP1 POP PUSH2 0x31D8 PUSH1 0x0 DUP4 ADD DUP5 PUSH2 0x2F37 JUMP JUMPDEST SWAP3 SWAP2 POP POP JUMP JUMPDEST PUSH1 0x0 PUSH1 0x20 DUP3 ADD SWAP1 POP PUSH2 0x31F3 PUSH1 0x0 DUP4 ADD DUP5 PUSH2 0x2F46 JUMP JUMPDEST SWAP3 SWAP2 POP POP JUMP JUMPDEST PUSH1 0x0 PUSH1 0xC0 DUP3 ADD SWAP1 POP PUSH2 0x320E PUSH1 0x0 DUP4 ADD DUP10 PUSH2 0x2F46 JUMP JUMPDEST PUSH2 0x321B PUSH1 0x20 DUP4 ADD DUP9 PUSH2 0x2F37 JUMP JUMPDEST PUSH2 0x3228 PUSH1 0x40 DUP4 ADD DUP8 PUSH2 0x3187 JUMP JUMPDEST PUSH2 0x3235 PUSH1 0x60 DUP4 ADD DUP7 PUSH2 0x2F55 JUMP JUMPDEST DUP2 DUP2 SUB PUSH1 0x80 DUP4 ADD MSTORE PUSH2 0x3247 DUP2 DUP6 PUSH2 0x2F64 JUMP JUMPDEST SWAP1 POP DUP2 DUP2 SUB PUSH1 0xA0 DUP4 ADD MSTORE PUSH2 0x325B DUP2 DUP5 PUSH2 0x2F64 JUMP JUMPDEST SWAP1 POP SWAP8 SWAP7 POP POP POP POP POP POP POP JUMP JUMPDEST PUSH1 0x0 PUSH1 0x60 DUP3 ADD SWAP1 POP PUSH2 0x327D PUSH1 0x0 DUP4 ADD DUP7 PUSH2 0x2F46 JUMP JUMPDEST DUP2 DUP2 SUB PUSH1 0x20 DUP4 ADD MSTORE PUSH2 0x328F DUP2 DUP6 PUSH2 0x2F64 JUMP JUMPDEST SWAP1 POP PUSH2 0x329E PUSH1 0x40 DUP4 ADD DUP5 PUSH2 0x31B4 JUMP JUMPDEST SWAP5 SWAP4 POP POP POP POP JUMP JUMPDEST PUSH1 0x0 PUSH1 0x80 DUP3 ADD SWAP1 POP PUSH2 0x32BB PUSH1 0x0 DUP4 ADD DUP8 PUSH2 0x2F46 JUMP JUMPDEST PUSH2 0x32C8 PUSH1 0x20 DUP4 ADD DUP7 PUSH2 0x31B4 JUMP JUMPDEST PUSH2 0x32D5 PUSH1 0x40 DUP4 ADD DUP6 PUSH2 0x3196 JUMP JUMPDEST DUP2 DUP2 SUB PUSH1 0x60 DUP4 ADD MSTORE PUSH2 0x32E7 DUP2 DUP5 PUSH2 0x2F64 JUMP JUMPDEST SWAP1 POP SWAP6 SWAP5 POP POP POP POP POP JUMP JUMPDEST PUSH1 0x0 PUSH1 0x20 DUP3 ADD SWAP1 POP DUP2 DUP2 SUB PUSH1 0x0 DUP4 ADD MSTORE PUSH2 0x330B DUP2 PUSH2 0x2F9D JUMP JUMPDEST SWAP1 POP SWAP2 SWAP1 POP JUMP JUMPDEST PUSH1 0x0 PUSH1 0x20 DUP3 ADD SWAP1 POP DUP2 DUP2 SUB PUSH1 0x0 DUP4 ADD MSTORE PUSH2 0x332B DUP2 PUSH2 0x2FC0 JUMP JUMPDEST SWAP1 POP SWAP2 SWAP1 POP JUMP JUMPDEST PUSH1 0x0 PUSH1 0x20 DUP3 ADD SWAP1 POP DUP2 DUP2 SUB PUSH1 0x0 DUP4 ADD MSTORE PUSH2 0x334B DUP2 PUSH2 0x2FE3 JUMP JUMPDEST SWAP1 POP SWAP2 SWAP1 POP JUMP JUMPDEST PUSH1 0x0 PUSH1 0x20 DUP3 ADD SWAP1 POP DUP2 DUP2 SUB PUSH1 0x0 DUP4 ADD MSTORE PUSH2 0x336B DUP2 PUSH2 0x3006 JUMP JUMPDEST SWAP1 POP SWAP2 SWAP1 POP JUMP JUMPDEST PUSH1 0x0 PUSH1 0x20 DUP3 ADD SWAP1 POP DUP2 DUP2 SUB PUSH1 0x0 DUP4 ADD MSTORE PUSH2 0x338B DUP2 PUSH2 0x3029 JUMP JUMPDEST SWAP1 POP SWAP2 SWAP1 POP JUMP JUMPDEST PUSH1 0x0 PUSH1 0x20 DUP3 ADD SWAP1 POP DUP2 DUP2 SUB PUSH1 0x0 DUP4 ADD MSTORE PUSH2 0x33AB DUP2 PUSH2 0x304C JUMP JUMPDEST SWAP1 POP SWAP2 SWAP1 POP JUMP JUMPDEST PUSH1 0x0 PUSH1 0x20 DUP3 ADD SWAP1 POP DUP2 DUP2 SUB PUSH1 0x0 DUP4 ADD MSTORE PUSH2 0x33CB DUP2 PUSH2 0x306F JUMP JUMPDEST SWAP1 POP SWAP2 SWAP1 POP JUMP JUMPDEST PUSH1 0x0 PUSH1 0x20 DUP3 ADD SWAP1 POP DUP2 DUP2 SUB PUSH1 0x0 DUP4 ADD MSTORE PUSH2 0x33EB DUP2 PUSH2 0x3092 JUMP JUMPDEST SWAP1 POP SWAP2 SWAP1 POP JUMP JUMPDEST PUSH1 0x0 PUSH1 0x20 DUP3 ADD SWAP1 POP DUP2 DUP2 SUB PUSH1 0x0 DUP4 ADD MSTORE PUSH2 0x340B DUP2 PUSH2 0x30B5 JUMP JUMPDEST SWAP1 POP SWAP2 SWAP1 POP JUMP JUMPDEST PUSH1 0x0 PUSH1 0x20 DUP3 ADD SWAP1 POP DUP2 DUP2 SUB PUSH1 0x0 DUP4 ADD MSTORE PUSH2 0x342B DUP2 PUSH2 0x30D8 JUMP JUMPDEST SWAP1 POP SWAP2 SWAP1 POP JUMP JUMPDEST PUSH1 0x0 PUSH1 0x20 DUP3 ADD SWAP1 POP DUP2 DUP2 SUB PUSH1 0x0 DUP4 ADD MSTORE PUSH2 0x344B DUP2 PUSH2 0x30FB JUMP JUMPDEST SWAP1 POP SWAP2 SWAP1 POP JUMP JUMPDEST PUSH1 0x0 PUSH1 0x20 DUP3 ADD SWAP1 POP DUP2 DUP2 SUB PUSH1 0x0 DUP4 ADD MSTORE PUSH2 0x346B DUP2 PUSH2 0x311E JUMP JUMPDEST SWAP1 POP SWAP2 SWAP1 POP JUMP JUMPDEST PUSH1 0x0 PUSH1 0x20 DUP3 ADD SWAP1 POP DUP2 DUP2 SUB PUSH1 0x0 DUP4 ADD MSTORE PUSH2 0x348B DUP2 PUSH2 0x3141 JUMP JUMPDEST SWAP1 POP SWAP2 SWAP1 POP JUMP JUMPDEST PUSH1 0x0 PUSH1 0x20 DUP3 ADD SWAP1 POP DUP2 DUP2 SUB PUSH1 0x0 DUP4 ADD MSTORE PUSH2 0x34AB DUP2 PUSH2 0x3164 JUMP JUMPDEST SWAP1 POP SWAP2 SWAP1 POP JUMP JUMPDEST PUSH1 0x0 PUSH1 0x40 DUP3 ADD SWAP1 POP PUSH2 0x34C7 PUSH1 0x0 DUP4 ADD DUP6 PUSH2 0x31A5 JUMP JUMPDEST DUP2 DUP2 SUB PUSH1 0x20 DUP4 ADD MSTORE PUSH2 0x34D9 DUP2 DUP5 PUSH2 0x2F64 JUMP JUMPDEST SWAP1 POP SWAP4 SWAP3 POP POP POP JUMP JUMPDEST PUSH1 0x0 PUSH2 0x34EC PUSH2 0x34FD JUMP JUMPDEST SWAP1 POP PUSH2 0x34F8 DUP3 DUP3 PUSH2 0x3660 JUMP JUMPDEST SWAP2 SWAP1 POP JUMP JUMPDEST PUSH1 0x0 PUSH1 0x40 MLOAD SWAP1 POP SWAP1 JUMP JUMPDEST PUSH1 0x0 PUSH8 0xFFFFFFFFFFFFFFFF DUP3 GT ISZERO PUSH2 0x3522 JUMPI PUSH2 0x3521 PUSH2 0x36EF JUMP JUMPDEST JUMPDEST PUSH2 0x352B DUP3 PUSH2 0x3732 JUMP JUMPDEST SWAP1 POP PUSH1 0x20 DUP2 ADD SWAP1 POP SWAP2 SWAP1 POP JUMP JUMPDEST PUSH1 0x0 DUP2 MLOAD SWAP1 POP SWAP2 SWAP1 POP JUMP JUMPDEST PUSH1 0x0 DUP3 DUP3 MSTORE PUSH1 0x20 DUP3 ADD SWAP1 POP SWAP3 SWAP2 POP POP JUMP JUMPDEST PUSH1 0x0 PUSH2 0x355F DUP3 PUSH2 0x3593 JUMP JUMPDEST SWAP1 POP SWAP2 SWAP1 POP JUMP JUMPDEST PUSH1 0x0 DUP2 ISZERO ISZERO SWAP1 POP SWAP2 SWAP1 POP JUMP JUMPDEST PUSH1 0x0 DUP2 SWAP1 POP PUSH2 0x3580 DUP3 PUSH2 0x39CD JUMP JUMPDEST SWAP2 SWAP1 POP JUMP JUMPDEST PUSH1 0x0 PUSH2 0xFFFF DUP3 AND SWAP1 POP SWAP2 SWAP1 POP JUMP JUMPDEST PUSH1 0x0 PUSH20 0xFFFFFFFFFFFFFFFFFFFFFFFFFFFFFFFFFFFFFFFF DUP3 AND SWAP1 POP SWAP2 SWAP1 POP JUMP JUMPDEST PUSH1 0x0 DUP2 SWAP1 POP SWAP2 SWAP1 POP JUMP JUMPDEST PUSH1 0x0 PUSH4 0xFFFFFFFF DUP3 AND SWAP1 POP SWAP2 SWAP1 POP JUMP JUMPDEST PUSH1 0x0 PUSH1 0xFF DUP3 AND SWAP1 POP SWAP2 SWAP1 POP JUMP JUMPDEST PUSH1 0x0 PUSH2 0x35E5 DUP3 PUSH2 0x3572 JUMP JUMPDEST SWAP1 POP SWAP2 SWAP1 POP JUMP JUMPDEST DUP3 DUP2 DUP4 CALLDATACOPY PUSH1 0x0 DUP4 DUP4 ADD MSTORE POP POP POP JUMP JUMPDEST PUSH1 0x0 JUMPDEST DUP4 DUP2 LT ISZERO PUSH2 0x3619 JUMPI DUP1 DUP3 ADD MLOAD DUP2 DUP5 ADD MSTORE PUSH1 0x20 DUP2 ADD SWAP1 POP PUSH2 0x35FE JUMP JUMPDEST DUP4 DUP2 GT ISZERO PUSH2 0x3628 JUMPI PUSH1 0x0 DUP5 DUP5 ADD MSTORE JUMPDEST POP POP POP POP JUMP JUMPDEST PUSH1 0x0 PUSH1 0x2 DUP3 DIV SWAP1 POP PUSH1 0x1 DUP3 AND DUP1 PUSH2 0x3646 JUMPI PUSH1 0x7F DUP3 AND SWAP2 POP JUMPDEST PUSH1 0x20 DUP3 LT DUP2 EQ ISZERO PUSH2 0x365A JUMPI PUSH2 0x3659 PUSH2 0x36C0 JUMP JUMPDEST JUMPDEST POP SWAP2 SWAP1 POP JUMP JUMPDEST PUSH2 0x3669 DUP3 PUSH2 0x3732 JUMP JUMPDEST DUP2 ADD DUP2 DUP2 LT PUSH8 0xFFFFFFFFFFFFFFFF DUP3 GT OR ISZERO PUSH2 0x3688 JUMPI PUSH2 0x3687 PUSH2 0x36EF JUMP JUMPDEST JUMPDEST DUP1 PUSH1 0x40 MSTORE POP POP POP JUMP JUMPDEST PUSH32 0x4E487B7100000000000000000000000000000000000000000000000000000000 PUSH1 0x0 MSTORE PUSH1 0x21 PUSH1 0x4 MSTORE PUSH1 0x24 PUSH1 0x0 REVERT JUMPDEST PUSH32 0x4E487B7100000000000000000000000000000000000000000000000000000000 PUSH1 0x0 MSTORE PUSH1 0x22 PUSH1 0x4 MSTORE PUSH1 0x24 PUSH1 0x0 REVERT JUMPDEST PUSH32 0x4E487B7100000000000000000000000000000000000000000000000000000000 PUSH1 0x0 MSTORE PUSH1 0x41 PUSH1 0x4 MSTORE PUSH1 0x24 PUSH1 0x0 REVERT JUMPDEST PUSH1 0x0 DUP1 REVERT JUMPDEST PUSH1 0x0 DUP1 REVERT JUMPDEST PUSH1 0x0 DUP1 REVERT JUMPDEST PUSH1 0x0 DUP1 REVERT JUMPDEST PUSH1 0x0 PUSH1 0x1F NOT PUSH1 0x1F DUP4 ADD AND SWAP1 POP SWAP2 SWAP1 POP JUMP JUMPDEST PUSH32 0x4B757273204D65726B657A69205A6174656E204D657663757400000000000000 PUSH1 0x0 DUP3 ADD MSTORE POP JUMP JUMPDEST PUSH32 0x556E6976657273697465204D657663757420446567696C000000000000000000 PUSH1 0x0 DUP3 ADD MSTORE POP JUMP JUMPDEST PUSH32 0x4B697369204D657663757420446567696C000000000000000000000000000000 PUSH1 0x0 DUP3 ADD MSTORE POP JUMP JUMPDEST PUSH32 0x4B616D75204B7572756D75205A6174656E204D65766375740000000000000000 PUSH1 0x0 DUP3 ADD MSTORE POP JUMP JUMPDEST PUSH32 0x4669726D61205A6174656E204D65766375740000000000000000000000000000 PUSH1 0x0 DUP3 ADD MSTORE POP JUMP JUMPDEST PUSH32 0x536572746966696B61204D65726B657A69205A6174656E204D65766375740000 PUSH1 0x0 DUP3 ADD MSTORE POP JUMP JUMPDEST PUSH32 0x536976696C20546F706C756D204B7572756C757375204D657663757420446567 PUSH1 0x0 DUP3 ADD MSTORE PUSH32 0x696C000000000000000000000000000000000000000000000000000000000000 PUSH1 0x20 DUP3 ADD MSTORE POP JUMP JUMPDEST PUSH32 0x536976696C20546F706C756D204B7572756C757375205A6174656E204D657663 PUSH1 0x0 DUP3 ADD MSTORE PUSH32 0x7574000000000000000000000000000000000000000000000000000000000000 PUSH1 0x20 DUP3 ADD MSTORE POP JUMP JUMPDEST PUSH32 0x556E6976657273697465205A6174656E204D6576637574000000000000000000 PUSH1 0x0 DUP3 ADD MSTORE POP JUMP JUMPDEST PUSH32 0x536572746966696B61204D65726B657A69204D657663757420446567696C0000 PUSH1 0x0 DUP3 ADD MSTORE POP JUMP JUMPDEST PUSH32 0x4B697369205A6174656E204D6576637574000000000000000000000000000000 PUSH1 0x0 DUP3 ADD MSTORE POP JUMP JUMPDEST PUSH32 0x4B616D75204B7572756D75204D657663757420446567696C0000000000000000 PUSH1 0x0 DUP3 ADD MSTORE POP JUMP JUMPDEST PUSH32 0x4669726D61204D657663757420446567696C0000000000000000000000000000 PUSH1 0x0 DUP3 ADD MSTORE POP JUMP JUMPDEST PUSH32 0x4B757273204D65726B657A69204D657663757420446567696C00000000000000 PUSH1 0x0 DUP3 ADD MSTORE POP JUMP JUMPDEST PUSH1 0x4 DUP2 LT PUSH2 0x39DE JUMPI PUSH2 0x39DD PUSH2 0x3691 JUMP JUMPDEST JUMPDEST POP JUMP JUMPDEST PUSH2 0x39EA DUP2 PUSH2 0x3554 JUMP JUMPDEST DUP2 EQ PUSH2 0x39F5 JUMPI PUSH1 0x0 DUP1 REVERT JUMPDEST POP JUMP JUMPDEST PUSH2 0x3A01 DUP2 PUSH2 0x3566 JUMP JUMPDEST DUP2 EQ PUSH2 0x3A0C JUMPI PUSH1 0x0 DUP1 REVERT JUMPDEST POP JUMP JUMPDEST PUSH2 0x3A18 DUP2 PUSH2 0x35B3 JUMP JUMPDEST DUP2 EQ PUSH2 0x3A23 JUMPI PUSH1 0x0 DUP1 REVERT JUMPDEST POP JUMP JUMPDEST PUSH2 0x3A2F DUP2 PUSH2 0x35BD JUMP JUMPDEST DUP2 EQ PUSH2 0x3A3A JUMPI PUSH1 0x0 DUP1 REVERT JUMPDEST POP JUMP JUMPDEST PUSH2 0x3A46 DUP2 PUSH2 0x35CD JUMP JUMPDEST DUP2 EQ PUSH2 0x3A51 JUMPI PUSH1 0x0 DUP1 REVERT JUMPDEST POP JUMP INVALID LOG2 PUSH5 0x6970667358 0x22 SLT KECCAK256 0x4D SWAP9 PUSH16 0x46028FF56A968D40C34FFEFB0144E76E LOG2 SIGNEXTEND ORIGIN DIFFICULTY 0xD6 SWAP11 SWAP9 0xBC 0x2F DUP2 SWAP4 0xE2 BYTE PUSH5 0x736F6C6343 STOP ADDMOD SMOD STOP CALLER "
				},
				"gasEstimates": {
					"creation": {
						"codeDepositCost": "2997200",
						"executionCost": "3294",
						"totalCost": "3000494"
					},
					"external": {
						"YOK()": "2578",
						"akademisyenler(address)": "infinite",
						"diller(uint32)": "infinite",
						"ekleFirma(address,string,uint256,uint8)": "infinite",
						"ekleKamuKurumu(address,string,uint8)": "infinite",
						"ekleKisi(address)": "27245",
						"ekleKurs(address,string,uint8)": "infinite",
						"ekleSTK(address,string,uint8)": "infinite",
						"ekleSertifikaMerkezi(address,string,uint8)": "infinite",
						"ekleUniversite(address,string,uint8)": "infinite",
						"firmalar(address)": "infinite",
						"guncelleFirma(address,string,uint256,uint8)": "infinite",
						"guncelleKamuKurumu(address,string,uint8)": "infinite",
						"guncelleKisi(address,bool)": "27399",
						"guncelleKurs(address,string,uint8)": "infinite",
						"guncelleSTK(address,string,uint8)": "infinite",
						"guncelleSertifikaMerkezi(address,string,uint8)": "infinite",
						"guncelleUniversite(address,string,uint8)": "infinite",
						"isCB(address)": "2877",
						"isFirma(address)": "3001",
						"isKamuKurumu(address)": "3023",
						"isKisi(address)": "2956",
						"isKurs(address)": "2958",
						"isSTK(address)": "3000",
						"isSertifikaMerkezi(address)": "2933",
						"isTOBB(address)": "2902",
						"isUniversite(address)": "2977",
						"isYOK(address)": "2919",
						"kamuKurumlari(address)": "infinite",
						"kisiler(address)": "2915",
						"kurslar(address)": "infinite",
						"paydasTanimla(address,address,address)": "infinite",
						"sertifikaMerkezleri(address)": "infinite",
						"silFirma(address)": "infinite",
						"silKamuKurumu(address)": "infinite",
						"silKisi(address)": "27206",
						"silKurs(address)": "infinite",
						"silSTK(address)": "infinite",
						"silSertifikaMerkezi(address)": "infinite",
						"silUniversite(address)": "infinite",
						"stklar(address)": "infinite",
						"universiteler(address)": "infinite"
					}
				},
				"methodIdentifiers": {
					"YOK()": "71af892d",
					"akademisyenler(address)": "ba479b7e",
					"diller(uint32)": "a4e7ae05",
					"ekleFirma(address,string,uint256,uint8)": "d25aab85",
					"ekleKamuKurumu(address,string,uint8)": "f63c649f",
					"ekleKisi(address)": "f54acc65",
					"ekleKurs(address,string,uint8)": "46224853",
					"ekleSTK(address,string,uint8)": "19023bf3",
					"ekleSertifikaMerkezi(address,string,uint8)": "9dc30114",
					"ekleUniversite(address,string,uint8)": "001d54ab",
					"firmalar(address)": "39987f94",
					"guncelleFirma(address,string,uint256,uint8)": "a81dc179",
					"guncelleKamuKurumu(address,string,uint8)": "150596f4",
					"guncelleKisi(address,bool)": "f1981850",
					"guncelleKurs(address,string,uint8)": "d5f6d56c",
					"guncelleSTK(address,string,uint8)": "91e9528a",
					"guncelleSertifikaMerkezi(address,string,uint8)": "b2a825bb",
					"guncelleUniversite(address,string,uint8)": "c6da8cfe",
					"isCB(address)": "e5130508",
					"isFirma(address)": "2d087d70",
					"isKamuKurumu(address)": "514e03c7",
					"isKisi(address)": "b98ccefd",
					"isKurs(address)": "024eb6bc",
					"isSTK(address)": "8c848885",
					"isSertifikaMerkezi(address)": "e24047ca",
					"isTOBB(address)": "139884ec",
					"isUniversite(address)": "f0040eb9",
					"isYOK(address)": "d7396414",
					"kamuKurumlari(address)": "7d0fa287",
					"kisiler(address)": "cbc92809",
					"kurslar(address)": "1916e139",
					"paydasTanimla(address,address,address)": "36fd2633",
					"sertifikaMerkezleri(address)": "356b1f1e",
					"silFirma(address)": "1d595580",
					"silKamuKurumu(address)": "50d2a060",
					"silKisi(address)": "bd35a506",
					"silKurs(address)": "afb61b1e",
					"silSTK(address)": "d88d8c12",
					"silSertifikaMerkezi(address)": "548fa620",
					"silUniversite(address)": "9bfc4dbd",
					"stklar(address)": "9a8c9119",
					"universiteler(address)": "28266697"
				}
			},
			"storageLayout": {
				"storage": [
					{
						"astId": 3,
						"contract": "contracts/BaseContract.sol:BaseContract",
						"label": "YOK",
						"offset": 0,
						"slot": "0",
						"type": "t_address"
					},
					{
						"astId": 5,
						"contract": "contracts/BaseContract.sol:BaseContract",
						"label": "TOBB",
						"offset": 0,
						"slot": "1",
						"type": "t_address"
					},
					{
						"astId": 7,
						"contract": "contracts/BaseContract.sol:BaseContract",
						"label": "CB",
						"offset": 0,
						"slot": "2",
						"type": "t_address"
					},
					{
						"astId": 412,
						"contract": "contracts/BaseContract.sol:BaseContract",
						"label": "kisiler",
						"offset": 0,
						"slot": "3",
						"type": "t_mapping(t_address,t_struct(Kisi)32_storage)"
					},
					{
						"astId": 417,
						"contract": "contracts/BaseContract.sol:BaseContract",
						"label": "universiteler",
						"offset": 0,
						"slot": "4",
						"type": "t_mapping(t_address,t_struct(Universite)65_storage)"
					},
					{
						"astId": 422,
						"contract": "contracts/BaseContract.sol:BaseContract",
						"label": "akademisyenler",
						"offset": 0,
						"slot": "5",
						"type": "t_mapping(t_address,t_struct(Akademisyen)79_storage)"
					},
					{
						"astId": 427,
						"contract": "contracts/BaseContract.sol:BaseContract",
						"label": "firmalar",
						"offset": 0,
						"slot": "6",
						"type": "t_mapping(t_address,t_struct(Firma)119_storage)"
					},
					{
						"astId": 432,
						"contract": "contracts/BaseContract.sol:BaseContract",
						"label": "kurslar",
						"offset": 0,
						"slot": "7",
						"type": "t_mapping(t_address,t_struct(Kurs)147_storage)"
					},
					{
						"astId": 437,
						"contract": "contracts/BaseContract.sol:BaseContract",
						"label": "kamuKurumlari",
						"offset": 0,
						"slot": "8",
						"type": "t_mapping(t_address,t_struct(KamuKurumu)126_storage)"
					},
					{
						"astId": 442,
						"contract": "contracts/BaseContract.sol:BaseContract",
						"label": "stklar",
						"offset": 0,
						"slot": "9",
						"type": "t_mapping(t_address,t_struct(STK)133_storage)"
					},
					{
						"astId": 447,
						"contract": "contracts/BaseContract.sol:BaseContract",
						"label": "sertifikaMerkezleri",
						"offset": 0,
						"slot": "10",
						"type": "t_mapping(t_address,t_struct(SertifikaMerkezi)140_storage)"
					},
					{
						"astId": 452,
						"contract": "contracts/BaseContract.sol:BaseContract",
						"label": "diller",
						"offset": 0,
						"slot": "11",
						"type": "t_mapping(t_uint32,t_struct(YabanciDil)152_storage)"
					}
				],
				"types": {
					"t_address": {
						"encoding": "inplace",
						"label": "address",
						"numberOfBytes": "20"
					},
					"t_bool": {
						"encoding": "inplace",
						"label": "bool",
						"numberOfBytes": "1"
					},
					"t_enum(Unvan)84": {
						"encoding": "inplace",
						"label": "enum BaseContract.Unvan",
						"numberOfBytes": "1"
					},
					"t_mapping(t_address,t_struct(Akademisyen)79_storage)": {
						"encoding": "mapping",
						"key": "t_address",
						"label": "mapping(address => struct BaseContract.Akademisyen)",
						"numberOfBytes": "32",
						"value": "t_struct(Akademisyen)79_storage"
					},
					"t_mapping(t_address,t_struct(Firma)119_storage)": {
						"encoding": "mapping",
						"key": "t_address",
						"label": "mapping(address => struct BaseContract.Firma)",
						"numberOfBytes": "32",
						"value": "t_struct(Firma)119_storage"
					},
					"t_mapping(t_address,t_struct(KamuKurumu)126_storage)": {
						"encoding": "mapping",
						"key": "t_address",
						"label": "mapping(address => struct BaseContract.KamuKurumu)",
						"numberOfBytes": "32",
						"value": "t_struct(KamuKurumu)126_storage"
					},
					"t_mapping(t_address,t_struct(Kisi)32_storage)": {
						"encoding": "mapping",
						"key": "t_address",
						"label": "mapping(address => struct BaseContract.Kisi)",
						"numberOfBytes": "32",
						"value": "t_struct(Kisi)32_storage"
					},
					"t_mapping(t_address,t_struct(Kurs)147_storage)": {
						"encoding": "mapping",
						"key": "t_address",
						"label": "mapping(address => struct BaseContract.Kurs)",
						"numberOfBytes": "32",
						"value": "t_struct(Kurs)147_storage"
					},
					"t_mapping(t_address,t_struct(STK)133_storage)": {
						"encoding": "mapping",
						"key": "t_address",
						"label": "mapping(address => struct BaseContract.STK)",
						"numberOfBytes": "32",
						"value": "t_struct(STK)133_storage"
					},
					"t_mapping(t_address,t_struct(SertifikaMerkezi)140_storage)": {
						"encoding": "mapping",
						"key": "t_address",
						"label": "mapping(address => struct BaseContract.SertifikaMerkezi)",
						"numberOfBytes": "32",
						"value": "t_struct(SertifikaMerkezi)140_storage"
					},
					"t_mapping(t_address,t_struct(Universite)65_storage)": {
						"encoding": "mapping",
						"key": "t_address",
						"label": "mapping(address => struct BaseContract.Universite)",
						"numberOfBytes": "32",
						"value": "t_struct(Universite)65_storage"
					},
					"t_mapping(t_uint32,t_struct(YabanciDil)152_storage)": {
						"encoding": "mapping",
						"key": "t_uint32",
						"label": "mapping(uint32 => struct BaseContract.YabanciDil)",
						"numberOfBytes": "32",
						"value": "t_struct(YabanciDil)152_storage"
					},
					"t_string_storage": {
						"encoding": "bytes",
						"label": "string",
						"numberOfBytes": "32"
					},
					"t_struct(Akademisyen)79_storage": {
						"encoding": "inplace",
						"label": "struct BaseContract.Akademisyen",
						"members": [
							{
								"astId": 67,
								"contract": "contracts/BaseContract.sol:BaseContract",
								"label": "durum",
								"offset": 0,
								"slot": "0",
								"type": "t_bool"
							},
							{
								"astId": 69,
								"contract": "contracts/BaseContract.sol:BaseContract",
								"label": "universite",
								"offset": 1,
								"slot": "0",
								"type": "t_address"
							},
							{
								"astId": 71,
								"contract": "contracts/BaseContract.sol:BaseContract",
								"label": "bolum",
								"offset": 21,
								"slot": "0",
								"type": "t_uint16"
							},
							{
								"astId": 74,
								"contract": "contracts/BaseContract.sol:BaseContract",
								"label": "unvan",
								"offset": 23,
								"slot": "0",
								"type": "t_enum(Unvan)84"
							},
							{
								"astId": 76,
								"contract": "contracts/BaseContract.sol:BaseContract",
								"label": "ad",
								"offset": 0,
								"slot": "1",
								"type": "t_string_storage"
							},
							{
								"astId": 78,
								"contract": "contracts/BaseContract.sol:BaseContract",
								"label": "soyad",
								"offset": 0,
								"slot": "2",
								"type": "t_string_storage"
							}
						],
						"numberOfBytes": "96"
					},
					"t_struct(Firma)119_storage": {
						"encoding": "inplace",
						"label": "struct BaseContract.Firma",
						"members": [
							{
								"astId": 112,
								"contract": "contracts/BaseContract.sol:BaseContract",
								"label": "durum",
								"offset": 0,
								"slot": "0",
								"type": "t_bool"
							},
							{
								"astId": 114,
								"contract": "contracts/BaseContract.sol:BaseContract",
								"label": "ulke",
								"offset": 1,
								"slot": "0",
								"type": "t_uint8"
							},
							{
								"astId": 116,
								"contract": "contracts/BaseContract.sol:BaseContract",
								"label": "vergiNo",
								"offset": 0,
								"slot": "1",
								"type": "t_uint256"
							},
							{
								"astId": 118,
								"contract": "contracts/BaseContract.sol:BaseContract",
								"label": "isim",
								"offset": 0,
								"slot": "2",
								"type": "t_string_storage"
							}
						],
						"numberOfBytes": "96"
					},
					"t_struct(KamuKurumu)126_storage": {
						"encoding": "inplace",
						"label": "struct BaseContract.KamuKurumu",
						"members": [
							{
								"astId": 121,
								"contract": "contracts/BaseContract.sol:BaseContract",
								"label": "durum",
								"offset": 0,
								"slot": "0",
								"type": "t_bool"
							},
							{
								"astId": 123,
								"contract": "contracts/BaseContract.sol:BaseContract",
								"label": "isim",
								"offset": 0,
								"slot": "1",
								"type": "t_string_storage"
							},
							{
								"astId": 125,
								"contract": "contracts/BaseContract.sol:BaseContract",
								"label": "ulke",
								"offset": 0,
								"slot": "2",
								"type": "t_uint8"
							}
						],
						"numberOfBytes": "96"
					},
					"t_struct(Kisi)32_storage": {
						"encoding": "inplace",
						"label": "struct BaseContract.Kisi",
						"members": [
							{
								"astId": 31,
								"contract": "contracts/BaseContract.sol:BaseContract",
								"label": "durum",
								"offset": 0,
								"slot": "0",
								"type": "t_bool"
							}
						],
						"numberOfBytes": "32"
					},
					"t_struct(Kurs)147_storage": {
						"encoding": "inplace",
						"label": "struct BaseContract.Kurs",
						"members": [
							{
								"astId": 142,
								"contract": "contracts/BaseContract.sol:BaseContract",
								"label": "durum",
								"offset": 0,
								"slot": "0",
								"type": "t_bool"
							},
							{
								"astId": 144,
								"contract": "contracts/BaseContract.sol:BaseContract",
								"label": "isim",
								"offset": 0,
								"slot": "1",
								"type": "t_string_storage"
							},
							{
								"astId": 146,
								"contract": "contracts/BaseContract.sol:BaseContract",
								"label": "ulke",
								"offset": 0,
								"slot": "2",
								"type": "t_uint8"
							}
						],
						"numberOfBytes": "96"
					},
					"t_struct(STK)133_storage": {
						"encoding": "inplace",
						"label": "struct BaseContract.STK",
						"members": [
							{
								"astId": 128,
								"contract": "contracts/BaseContract.sol:BaseContract",
								"label": "durum",
								"offset": 0,
								"slot": "0",
								"type": "t_bool"
							},
							{
								"astId": 130,
								"contract": "contracts/BaseContract.sol:BaseContract",
								"label": "isim",
								"offset": 0,
								"slot": "1",
								"type": "t_string_storage"
							},
							{
								"astId": 132,
								"contract": "contracts/BaseContract.sol:BaseContract",
								"label": "ulke",
								"offset": 0,
								"slot": "2",
								"type": "t_uint8"
							}
						],
						"numberOfBytes": "96"
					},
					"t_struct(SertifikaMerkezi)140_storage": {
						"encoding": "inplace",
						"label": "struct BaseContract.SertifikaMerkezi",
						"members": [
							{
								"astId": 135,
								"contract": "contracts/BaseContract.sol:BaseContract",
								"label": "durum",
								"offset": 0,
								"slot": "0",
								"type": "t_bool"
							},
							{
								"astId": 137,
								"contract": "contracts/BaseContract.sol:BaseContract",
								"label": "isim",
								"offset": 0,
								"slot": "1",
								"type": "t_string_storage"
							},
							{
								"astId": 139,
								"contract": "contracts/BaseContract.sol:BaseContract",
								"label": "ulke",
								"offset": 0,
								"slot": "2",
								"type": "t_uint8"
							}
						],
						"numberOfBytes": "96"
					},
					"t_struct(Universite)65_storage": {
						"encoding": "inplace",
						"label": "struct BaseContract.Universite",
						"members": [
							{
								"astId": 60,
								"contract": "contracts/BaseContract.sol:BaseContract",
								"label": "durum",
								"offset": 0,
								"slot": "0",
								"type": "t_bool"
							},
							{
								"astId": 62,
								"contract": "contracts/BaseContract.sol:BaseContract",
								"label": "isim",
								"offset": 0,
								"slot": "1",
								"type": "t_string_storage"
							},
							{
								"astId": 64,
								"contract": "contracts/BaseContract.sol:BaseContract",
								"label": "ulke",
								"offset": 0,
								"slot": "2",
								"type": "t_uint8"
							}
						],
						"numberOfBytes": "96"
					},
					"t_struct(YabanciDil)152_storage": {
						"encoding": "inplace",
						"label": "struct BaseContract.YabanciDil",
						"members": [
							{
								"astId": 149,
								"contract": "contracts/BaseContract.sol:BaseContract",
								"label": "id",
								"offset": 0,
								"slot": "0",
								"type": "t_uint32"
							},
							{
								"astId": 151,
								"contract": "contracts/BaseContract.sol:BaseContract",
								"label": "isim",
								"offset": 0,
								"slot": "1",
								"type": "t_string_storage"
							}
						],
						"numberOfBytes": "64"
					},
					"t_uint16": {
						"encoding": "inplace",
						"label": "uint16",
						"numberOfBytes": "2"
					},
					"t_uint256": {
						"encoding": "inplace",
						"label": "uint256",
						"numberOfBytes": "32"
					},
					"t_uint32": {
						"encoding": "inplace",
						"label": "uint32",
						"numberOfBytes": "4"
					},
					"t_uint8": {
						"encoding": "inplace",
						"label": "uint8",
						"numberOfBytes": "1"
					}
				}
			},
			"userdoc": {
				"kind": "user",
				"methods": {},
				"version": 1
			}
		}
	}
}