{
	"contracts/BaseContract.sol": {
		"BaseContract": {
			"abi": [
				{
					"inputs": [
						{
							"internalType": "address",
							"name": "",
							"type": "address"
						}
					],
					"name": "akademisyenler",
					"outputs": [
						{
							"internalType": "bool",
							"name": "durum",
							"type": "bool"
						},
						{
							"internalType": "address",
							"name": "universite",
							"type": "address"
						},
						{
							"internalType": "uint16",
							"name": "bolum",
							"type": "uint16"
						},
						{
							"internalType": "enum BaseContract.Unvan",
							"name": "unvan",
							"type": "uint8"
						},
						{
							"internalType": "string",
							"name": "ad",
							"type": "string"
						},
						{
							"internalType": "string",
							"name": "soyad",
							"type": "string"
						}
					],
					"stateMutability": "view",
					"type": "function"
				},
				{
					"inputs": [
						{
							"internalType": "uint32",
							"name": "",
							"type": "uint32"
						}
					],
					"name": "diller",
					"outputs": [
						{
							"internalType": "uint32",
							"name": "id",
							"type": "uint32"
						},
						{
							"internalType": "string",
							"name": "isim",
							"type": "string"
						}
					],
					"stateMutability": "view",
					"type": "function"
				},
				{
					"inputs": [
						{
							"internalType": "address",
							"name": "_universiteAdres",
							"type": "address"
						},
						{
							"internalType": "string",
							"name": "_isim",
							"type": "string"
						},
						{
							"internalType": "uint8",
							"name": "_ulke",
							"type": "uint8"
						}
					],
					"name": "ekleUniversite",
					"outputs": [],
					"stateMutability": "nonpayable",
					"type": "function"
				},
				{
					"inputs": [
						{
							"internalType": "address",
							"name": "",
							"type": "address"
						}
					],
					"name": "firmalar",
					"outputs": [
						{
							"internalType": "bool",
							"name": "durum",
							"type": "bool"
						},
						{
							"internalType": "uint8",
							"name": "ulke",
							"type": "uint8"
						},
						{
							"internalType": "uint256",
							"name": "vergiNo",
							"type": "uint256"
						},
						{
							"internalType": "string",
							"name": "isim",
							"type": "string"
						}
					],
					"stateMutability": "view",
					"type": "function"
				},
				{
					"inputs": [
						{
							"internalType": "address",
							"name": "_address",
							"type": "address"
						}
					],
					"name": "isFirma",
					"outputs": [
						{
							"internalType": "bool",
							"name": "",
							"type": "bool"
						}
					],
					"stateMutability": "view",
					"type": "function"
				},
				{
					"inputs": [
						{
							"internalType": "address",
							"name": "_address",
							"type": "address"
						}
					],
					"name": "isKamuKurumu",
					"outputs": [
						{
							"internalType": "bool",
							"name": "",
							"type": "bool"
						}
					],
					"stateMutability": "view",
					"type": "function"
				},
				{
					"inputs": [
						{
							"internalType": "address",
							"name": "_address",
							"type": "address"
						}
					],
					"name": "isKisi",
					"outputs": [
						{
							"internalType": "bool",
							"name": "",
							"type": "bool"
						}
					],
					"stateMutability": "view",
					"type": "function"
				},
				{
					"inputs": [
						{
							"internalType": "address",
							"name": "_address",
							"type": "address"
						}
					],
					"name": "isKurs",
					"outputs": [
						{
							"internalType": "bool",
							"name": "",
							"type": "bool"
						}
					],
					"stateMutability": "view",
					"type": "function"
				},
				{
					"inputs": [
						{
							"internalType": "address",
							"name": "_address",
							"type": "address"
						}
					],
					"name": "isSTK",
					"outputs": [
						{
							"internalType": "bool",
							"name": "",
							"type": "bool"
						}
					],
					"stateMutability": "view",
					"type": "function"
				},
				{
					"inputs": [
						{
							"internalType": "address",
							"name": "_address",
							"type": "address"
						}
					],
					"name": "isSertifikaMerkezi",
					"outputs": [
						{
							"internalType": "bool",
							"name": "",
							"type": "bool"
						}
					],
					"stateMutability": "view",
					"type": "function"
				},
				{
					"inputs": [
						{
							"internalType": "address",
							"name": "_address",
							"type": "address"
						}
					],
					"name": "isUniversite",
					"outputs": [
						{
							"internalType": "bool",
							"name": "",
							"type": "bool"
						}
					],
					"stateMutability": "view",
					"type": "function"
				},
				{
					"inputs": [
						{
							"internalType": "address",
							"name": "",
							"type": "address"
						}
					],
					"name": "kamuKurumlari",
					"outputs": [
						{
							"internalType": "bool",
							"name": "durum",
							"type": "bool"
						},
						{
							"internalType": "string",
							"name": "isim",
							"type": "string"
						},
						{
							"internalType": "uint8",
							"name": "ulke",
							"type": "uint8"
						}
					],
					"stateMutability": "view",
					"type": "function"
				},
				{
					"inputs": [
						{
							"internalType": "address",
							"name": "",
							"type": "address"
						}
					],
					"name": "kisiler",
					"outputs": [
						{
							"internalType": "bool",
							"name": "durum",
							"type": "bool"
						}
					],
					"stateMutability": "view",
					"type": "function"
				},
				{
					"inputs": [
						{
							"internalType": "address",
							"name": "",
							"type": "address"
						}
					],
					"name": "kurslar",
					"outputs": [
						{
							"internalType": "bool",
							"name": "durum",
							"type": "bool"
						},
						{
							"internalType": "string",
							"name": "isim",
							"type": "string"
						},
						{
							"internalType": "uint8",
							"name": "ulke",
							"type": "uint8"
						}
					],
					"stateMutability": "view",
					"type": "function"
				},
				{
					"inputs": [
						{
							"internalType": "address",
							"name": "",
							"type": "address"
						}
					],
					"name": "sertifikaMerkezleri",
					"outputs": [
						{
							"internalType": "bool",
							"name": "durum",
							"type": "bool"
						},
						{
							"internalType": "string",
							"name": "isim",
							"type": "string"
						},
						{
							"internalType": "uint8",
							"name": "ulke",
							"type": "uint8"
						}
					],
					"stateMutability": "view",
					"type": "function"
				},
				{
					"inputs": [
						{
							"internalType": "address",
							"name": "",
							"type": "address"
						}
					],
					"name": "stklar",
					"outputs": [
						{
							"internalType": "bool",
							"name": "durum",
							"type": "bool"
						},
						{
							"internalType": "string",
							"name": "isim",
							"type": "string"
						},
						{
							"internalType": "uint8",
							"name": "ulke",
							"type": "uint8"
						}
					],
					"stateMutability": "view",
					"type": "function"
				},
				{
					"inputs": [
						{
							"internalType": "address",
							"name": "",
							"type": "address"
						}
					],
					"name": "universiteler",
					"outputs": [
						{
							"internalType": "bool",
							"name": "durum",
							"type": "bool"
						},
						{
							"internalType": "string",
							"name": "isim",
							"type": "string"
						},
						{
							"internalType": "uint8",
							"name": "ulke",
							"type": "uint8"
						}
					],
					"stateMutability": "view",
					"type": "function"
				}
			],
			"devdoc": {
				"kind": "dev",
				"methods": {},
				"version": 1
			},
			"evm": {
				"assembly": "    /* \"contracts/BaseContract.sol\":70:5283  contract BaseContract{\r... */\n  mstore(0x40, 0x80)\n  callvalue\n  dup1\n  iszero\n  tag_1\n  jumpi\n  0x00\n  dup1\n  revert\ntag_1:\n  pop\n  dataSize(sub_0)\n  dup1\n  dataOffset(sub_0)\n  0x00\n  codecopy\n  0x00\n  return\nstop\n\nsub_0: assembly {\n        /* \"contracts/BaseContract.sol\":70:5283  contract BaseContract{\r... */\n      mstore(0x40, 0x80)\n      callvalue\n      dup1\n      iszero\n      tag_1\n      jumpi\n      0x00\n      dup1\n      revert\n    tag_1:\n      pop\n      jumpi(tag_2, lt(calldatasize, 0x04))\n      shr(0xe0, calldataload(0x00))\n      dup1\n      0x7d0fa287\n      gt\n      tag_20\n      jumpi\n      dup1\n      0xb98ccefd\n      gt\n      tag_21\n      jumpi\n      dup1\n      0xb98ccefd\n      eq\n      tag_15\n      jumpi\n      dup1\n      0xba479b7e\n      eq\n      tag_16\n      jumpi\n      dup1\n      0xcbc92809\n      eq\n      tag_17\n      jumpi\n      dup1\n      0xe24047ca\n      eq\n      tag_18\n      jumpi\n      dup1\n      0xf0040eb9\n      eq\n      tag_19\n      jumpi\n      jump(tag_2)\n    tag_21:\n      dup1\n      0x7d0fa287\n      eq\n      tag_11\n      jumpi\n      dup1\n      0x8c848885\n      eq\n      tag_12\n      jumpi\n      dup1\n      0x9a8c9119\n      eq\n      tag_13\n      jumpi\n      dup1\n      0xa4e7ae05\n      eq\n      tag_14\n      jumpi\n      jump(tag_2)\n    tag_20:\n      dup1\n      0x2d087d70\n      gt\n      tag_22\n      jumpi\n      dup1\n      0x2d087d70\n      eq\n      tag_7\n      jumpi\n      dup1\n      0x356b1f1e\n      eq\n      tag_8\n      jumpi\n      dup1\n      0x39987f94\n      eq\n      tag_9\n      jumpi\n      dup1\n      0x514e03c7\n      eq\n      tag_10\n      jumpi\n      jump(tag_2)\n    tag_22:\n      dup1\n      0x1d54ab\n      eq\n      tag_3\n      jumpi\n      dup1\n      0x024eb6bc\n      eq\n      tag_4\n      jumpi\n      dup1\n      0x1916e139\n      eq\n      tag_5\n      jumpi\n      dup1\n      0x28266697\n      eq\n      tag_6\n      jumpi\n    tag_2:\n      0x00\n      dup1\n      revert\n        /* \"contracts/BaseContract.sol\":4876:5280  function ekleUniversite(address _universiteAdres,string memory _isim, uint8 _ulke)  public virtual sadeceYOK{\r... */\n    tag_3:\n      tag_23\n      0x04\n      dup1\n      calldatasize\n      sub\n      dup2\n      add\n      swap1\n      tag_24\n      swap2\n      swap1\n      tag_25\n      jump\t// in\n    tag_24:\n      tag_26\n      jump\t// in\n    tag_23:\n      stop\n        /* \"contracts/BaseContract.sol\":4033:4141  function isKurs(address _address) public view returns(bool){\r... */\n    tag_4:\n      tag_27\n      0x04\n      dup1\n      calldatasize\n      sub\n      dup2\n      add\n      swap1\n      tag_28\n      swap2\n      swap1\n      tag_29\n      jump\t// in\n    tag_28:\n      tag_30\n      jump\t// in\n    tag_27:\n      mload(0x40)\n      tag_31\n      swap2\n      swap1\n      tag_32\n      jump\t// in\n    tag_31:\n      mload(0x40)\n      dup1\n      swap2\n      sub\n      swap1\n      return\n        /* \"contracts/BaseContract.sol\":4612:4650  mapping(address=>Kurs) public  kurslar */\n    tag_5:\n      tag_33\n      0x04\n      dup1\n      calldatasize\n      sub\n      dup2\n      add\n      swap1\n      tag_34\n      swap2\n      swap1\n      tag_29\n      jump\t// in\n    tag_34:\n      tag_35\n      jump\t// in\n    tag_33:\n      mload(0x40)\n      tag_36\n      swap4\n      swap3\n      swap2\n      swap1\n      tag_37\n      jump\t// in\n    tag_36:\n      mload(0x40)\n      dup1\n      swap2\n      sub\n      swap1\n      return\n        /* \"contracts/BaseContract.sol\":4451:4500  mapping(address=>Universite) public universiteler */\n    tag_6:\n      tag_38\n      0x04\n      dup1\n      calldatasize\n      sub\n      dup2\n      add\n      swap1\n      tag_39\n      swap2\n      swap1\n      tag_29\n      jump\t// in\n    tag_39:\n      tag_40\n      jump\t// in\n    tag_38:\n      mload(0x40)\n      tag_41\n      swap4\n      swap3\n      swap2\n      swap1\n      tag_37\n      jump\t// in\n    tag_41:\n      mload(0x40)\n      dup1\n      swap2\n      sub\n      swap1\n      return\n        /* \"contracts/BaseContract.sol\":3911:4021  function isFirma(address _address) public view returns(bool){\r... */\n    tag_7:\n      tag_42\n      0x04\n      dup1\n      calldatasize\n      sub\n      dup2\n      add\n      swap1\n      tag_43\n      swap2\n      swap1\n      tag_29\n      jump\t// in\n    tag_43:\n      tag_44\n      jump\t// in\n    tag_42:\n      mload(0x40)\n      tag_45\n      swap2\n      swap1\n      tag_32\n      jump\t// in\n    tag_45:\n      mload(0x40)\n      dup1\n      swap2\n      sub\n      swap1\n      return\n        /* \"contracts/BaseContract.sol\":4755:4816  mapping(address=>SertifikaMerkezi) public sertifikaMerkezleri */\n    tag_8:\n      tag_46\n      0x04\n      dup1\n      calldatasize\n      sub\n      dup2\n      add\n      swap1\n      tag_47\n      swap2\n      swap1\n      tag_29\n      jump\t// in\n    tag_47:\n      tag_48\n      jump\t// in\n    tag_46:\n      mload(0x40)\n      tag_49\n      swap4\n      swap3\n      swap2\n      swap1\n      tag_37\n      jump\t// in\n    tag_49:\n      mload(0x40)\n      dup1\n      swap2\n      sub\n      swap1\n      return\n        /* \"contracts/BaseContract.sol\":4565:4605  mapping(address=>Firma) public  firmalar */\n    tag_9:\n      tag_50\n      0x04\n      dup1\n      calldatasize\n      sub\n      dup2\n      add\n      swap1\n      tag_51\n      swap2\n      swap1\n      tag_29\n      jump\t// in\n    tag_51:\n      tag_52\n      jump\t// in\n    tag_50:\n      mload(0x40)\n      tag_53\n      swap5\n      swap4\n      swap3\n      swap2\n      swap1\n      tag_54\n      jump\t// in\n    tag_53:\n      mload(0x40)\n      dup1\n      swap2\n      sub\n      swap1\n      return\n        /* \"contracts/BaseContract.sol\":3783:3903  function isKamuKurumu(address _address) public view returns(bool){\r... */\n    tag_10:\n      tag_55\n      0x04\n      dup1\n      calldatasize\n      sub\n      dup2\n      add\n      swap1\n      tag_56\n      swap2\n      swap1\n      tag_29\n      jump\t// in\n    tag_56:\n      tag_57\n      jump\t// in\n    tag_55:\n      mload(0x40)\n      tag_58\n      swap2\n      swap1\n      tag_32\n      jump\t// in\n    tag_58:\n      mload(0x40)\n      dup1\n      swap2\n      sub\n      swap1\n      return\n        /* \"contracts/BaseContract.sol\":4657:4706  mapping(address=>KamuKurumu) public kamuKurumlari */\n    tag_11:\n      tag_59\n      0x04\n      dup1\n      calldatasize\n      sub\n      dup2\n      add\n      swap1\n      tag_60\n      swap2\n      swap1\n      tag_29\n      jump\t// in\n    tag_60:\n      tag_61\n      jump\t// in\n    tag_59:\n      mload(0x40)\n      tag_62\n      swap4\n      swap3\n      swap2\n      swap1\n      tag_37\n      jump\t// in\n    tag_62:\n      mload(0x40)\n      dup1\n      swap2\n      sub\n      swap1\n      return\n        /* \"contracts/BaseContract.sol\":4149:4255  function isSTK(address _address) public view returns(bool){\r... */\n    tag_12:\n      tag_63\n      0x04\n      dup1\n      calldatasize\n      sub\n      dup2\n      add\n      swap1\n      tag_64\n      swap2\n      swap1\n      tag_29\n      jump\t// in\n    tag_64:\n      tag_65\n      jump\t// in\n    tag_63:\n      mload(0x40)\n      tag_66\n      swap2\n      swap1\n      tag_32\n      jump\t// in\n    tag_66:\n      mload(0x40)\n      dup1\n      swap2\n      sub\n      swap1\n      return\n        /* \"contracts/BaseContract.sol\":4713:4748  mapping(address=>STK) public stklar */\n    tag_13:\n      tag_67\n      0x04\n      dup1\n      calldatasize\n      sub\n      dup2\n      add\n      swap1\n      tag_68\n      swap2\n      swap1\n      tag_29\n      jump\t// in\n    tag_68:\n      tag_69\n      jump\t// in\n    tag_67:\n      mload(0x40)\n      tag_70\n      swap4\n      swap3\n      swap2\n      swap1\n      tag_37\n      jump\t// in\n    tag_70:\n      mload(0x40)\n      dup1\n      swap2\n      sub\n      swap1\n      return\n        /* \"contracts/BaseContract.sol\":4823:4864  mapping(uint32=>YabanciDil) public diller */\n    tag_14:\n      tag_71\n      0x04\n      dup1\n      calldatasize\n      sub\n      dup2\n      add\n      swap1\n      tag_72\n      swap2\n      swap1\n      tag_73\n      jump\t// in\n    tag_72:\n      tag_74\n      jump\t// in\n    tag_71:\n      mload(0x40)\n      tag_75\n      swap3\n      swap2\n      swap1\n      tag_76\n      jump\t// in\n    tag_75:\n      mload(0x40)\n      dup1\n      swap2\n      sub\n      swap1\n      return\n        /* \"contracts/BaseContract.sol\":3663:3771  function isKisi(address _address) public view returns(bool){\r... */\n    tag_15:\n      tag_77\n      0x04\n      dup1\n      calldatasize\n      sub\n      dup2\n      add\n      swap1\n      tag_78\n      swap2\n      swap1\n      tag_29\n      jump\t// in\n    tag_78:\n      tag_79\n      jump\t// in\n    tag_77:\n      mload(0x40)\n      tag_80\n      swap2\n      swap1\n      tag_32\n      jump\t// in\n    tag_80:\n      mload(0x40)\n      dup1\n      swap2\n      sub\n      swap1\n      return\n        /* \"contracts/BaseContract.sol\":4507:4558  mapping(address=>Akademisyen) public akademisyenler */\n    tag_16:\n      tag_81\n      0x04\n      dup1\n      calldatasize\n      sub\n      dup2\n      add\n      swap1\n      tag_82\n      swap2\n      swap1\n      tag_29\n      jump\t// in\n    tag_82:\n      tag_83\n      jump\t// in\n    tag_81:\n      mload(0x40)\n      tag_84\n      swap7\n      swap6\n      swap5\n      swap4\n      swap3\n      swap2\n      swap1\n      tag_85\n      jump\t// in\n    tag_84:\n      mload(0x40)\n      dup1\n      swap2\n      sub\n      swap1\n      return\n        /* \"contracts/BaseContract.sol\":4407:4444  mapping(address=>Kisi) public kisiler */\n    tag_17:\n      tag_86\n      0x04\n      dup1\n      calldatasize\n      sub\n      dup2\n      add\n      swap1\n      tag_87\n      swap2\n      swap1\n      tag_29\n      jump\t// in\n    tag_87:\n      tag_88\n      jump\t// in\n    tag_86:\n      mload(0x40)\n      tag_89\n      swap2\n      swap1\n      tag_32\n      jump\t// in\n    tag_89:\n      mload(0x40)\n      dup1\n      swap2\n      sub\n      swap1\n      return\n        /* \"contracts/BaseContract.sol\":4267:4399  function isSertifikaMerkezi(address _address) public view returns(bool){\r... */\n    tag_18:\n      tag_90\n      0x04\n      dup1\n      calldatasize\n      sub\n      dup2\n      add\n      swap1\n      tag_91\n      swap2\n      swap1\n      tag_29\n      jump\t// in\n    tag_91:\n      tag_92\n      jump\t// in\n    tag_90:\n      mload(0x40)\n      tag_93\n      swap2\n      swap1\n      tag_32\n      jump\t// in\n    tag_93:\n      mload(0x40)\n      dup1\n      swap2\n      sub\n      swap1\n      return\n        /* \"contracts/BaseContract.sol\":3535:3655  function isUniversite(address _address) public view returns(bool){\r... */\n    tag_19:\n      tag_94\n      0x04\n      dup1\n      calldatasize\n      sub\n      dup2\n      add\n      swap1\n      tag_95\n      swap2\n      swap1\n      tag_29\n      jump\t// in\n    tag_95:\n      tag_96\n      jump\t// in\n    tag_94:\n      mload(0x40)\n      tag_97\n      swap2\n      swap1\n      tag_32\n      jump\t// in\n    tag_97:\n      mload(0x40)\n      dup1\n      swap2\n      sub\n      swap1\n      return\n        /* \"contracts/BaseContract.sol\":4876:5280  function ekleUniversite(address _universiteAdres,string memory _isim, uint8 _ulke)  public virtual sadeceYOK{\r... */\n    tag_26:\n        /* \"contracts/BaseContract.sol\":2149:2152  YOK */\n      0x00\n      dup1\n      sload\n      swap1\n      0x0100\n      exp\n      swap1\n      div\n      0xffffffffffffffffffffffffffffffffffffffff\n      and\n        /* \"contracts/BaseContract.sol\":2135:2152  msg.sender == YOK */\n      0xffffffffffffffffffffffffffffffffffffffff\n      and\n        /* \"contracts/BaseContract.sol\":2135:2145  msg.sender */\n      caller\n        /* \"contracts/BaseContract.sol\":2135:2152  msg.sender == YOK */\n      0xffffffffffffffffffffffffffffffffffffffff\n      and\n      eq\n        /* \"contracts/BaseContract.sol\":2127:2203  require(msg.sender == YOK,\r... */\n      tag_99\n      jumpi\n      mload(0x40)\n      0x08c379a000000000000000000000000000000000000000000000000000000000\n      dup2\n      mstore\n      0x04\n      add\n      tag_100\n      swap1\n      tag_101\n      jump\t// in\n    tag_100:\n      mload(0x40)\n      dup1\n      swap2\n      sub\n      swap1\n      revert\n    tag_99:\n        /* \"contracts/BaseContract.sol\":5004:5034  isUniversite(_universiteAdres) */\n      tag_103\n        /* \"contracts/BaseContract.sol\":5017:5033  _universiteAdres */\n      dup4\n        /* \"contracts/BaseContract.sol\":5004:5016  isUniversite */\n      tag_96\n        /* \"contracts/BaseContract.sol\":5004:5034  isUniversite(_universiteAdres) */\n      jump\t// in\n    tag_103:\n        /* \"contracts/BaseContract.sol\":5003:5034  !isUniversite(_universiteAdres) */\n      iszero\n        /* \"contracts/BaseContract.sol\":4995:5089  require(!isUniversite(_universiteAdres),\r... */\n      tag_104\n      jumpi\n      mload(0x40)\n      0x08c379a000000000000000000000000000000000000000000000000000000000\n      dup2\n      mstore\n      0x04\n      add\n      tag_105\n      swap1\n      tag_106\n      jump\t// in\n    tag_105:\n      mload(0x40)\n      dup1\n      swap2\n      sub\n      swap1\n      revert\n    tag_104:\n        /* \"contracts/BaseContract.sol\":5151:5155  true */\n      0x01\n        /* \"contracts/BaseContract.sol\":5113:5126  universiteler */\n      0x04\n        /* \"contracts/BaseContract.sol\":5113:5144  universiteler[_universiteAdres] */\n      0x00\n        /* \"contracts/BaseContract.sol\":5127:5143  _universiteAdres */\n      dup6\n        /* \"contracts/BaseContract.sol\":5113:5144  universiteler[_universiteAdres] */\n      0xffffffffffffffffffffffffffffffffffffffff\n      and\n      0xffffffffffffffffffffffffffffffffffffffff\n      and\n      dup2\n      mstore\n      0x20\n      add\n      swap1\n      dup2\n      mstore\n      0x20\n      add\n      0x00\n      keccak256\n        /* \"contracts/BaseContract.sol\":5113:5150  universiteler[_universiteAdres].durum */\n      0x00\n      add\n      0x00\n        /* \"contracts/BaseContract.sol\":5113:5155  universiteler[_universiteAdres].durum=true */\n      0x0100\n      exp\n      dup2\n      sload\n      dup2\n      0xff\n      mul\n      not\n      and\n      swap1\n      dup4\n      iszero\n      iszero\n      mul\n      or\n      swap1\n      sstore\n      pop\n        /* \"contracts/BaseContract.sol\":5203:5208  _isim */\n      dup2\n        /* \"contracts/BaseContract.sol\":5166:5179  universiteler */\n      0x04\n        /* \"contracts/BaseContract.sol\":5166:5197  universiteler[_universiteAdres] */\n      0x00\n        /* \"contracts/BaseContract.sol\":5180:5196  _universiteAdres */\n      dup6\n        /* \"contracts/BaseContract.sol\":5166:5197  universiteler[_universiteAdres] */\n      0xffffffffffffffffffffffffffffffffffffffff\n      and\n      0xffffffffffffffffffffffffffffffffffffffff\n      and\n      dup2\n      mstore\n      0x20\n      add\n      swap1\n      dup2\n      mstore\n      0x20\n      add\n      0x00\n      keccak256\n        /* \"contracts/BaseContract.sol\":5166:5202  universiteler[_universiteAdres].isim */\n      0x01\n      add\n        /* \"contracts/BaseContract.sol\":5166:5208  universiteler[_universiteAdres].isim=_isim */\n      swap1\n      dup1\n      mload\n      swap1\n      0x20\n      add\n      swap1\n      tag_107\n      swap3\n      swap2\n      swap1\n      tag_108\n      jump\t// in\n    tag_107:\n      pop\n        /* \"contracts/BaseContract.sol\":5256:5261  _ulke */\n      dup1\n        /* \"contracts/BaseContract.sol\":5219:5232  universiteler */\n      0x04\n        /* \"contracts/BaseContract.sol\":5219:5250  universiteler[_universiteAdres] */\n      0x00\n        /* \"contracts/BaseContract.sol\":5233:5249  _universiteAdres */\n      dup6\n        /* \"contracts/BaseContract.sol\":5219:5250  universiteler[_universiteAdres] */\n      0xffffffffffffffffffffffffffffffffffffffff\n      and\n      0xffffffffffffffffffffffffffffffffffffffff\n      and\n      dup2\n      mstore\n      0x20\n      add\n      swap1\n      dup2\n      mstore\n      0x20\n      add\n      0x00\n      keccak256\n        /* \"contracts/BaseContract.sol\":5219:5255  universiteler[_universiteAdres].ulke */\n      0x02\n      add\n      0x00\n        /* \"contracts/BaseContract.sol\":5219:5261  universiteler[_universiteAdres].ulke=_ulke */\n      0x0100\n      exp\n      dup2\n      sload\n      dup2\n      0xff\n      mul\n      not\n      and\n      swap1\n      dup4\n      0xff\n      and\n      mul\n      or\n      swap1\n      sstore\n      pop\n        /* \"contracts/BaseContract.sol\":4876:5280  function ekleUniversite(address _universiteAdres,string memory _isim, uint8 _ulke)  public virtual sadeceYOK{\r... */\n      pop\n      pop\n      pop\n      jump\t// out\n        /* \"contracts/BaseContract.sol\":4033:4141  function isKurs(address _address) public view returns(bool){\r... */\n    tag_30:\n        /* \"contracts/BaseContract.sol\":4087:4091  bool */\n      0x00\n        /* \"contracts/BaseContract.sol\":4110:4117  kurslar */\n      0x07\n        /* \"contracts/BaseContract.sol\":4110:4127  kurslar[_address] */\n      0x00\n        /* \"contracts/BaseContract.sol\":4118:4126  _address */\n      dup4\n        /* \"contracts/BaseContract.sol\":4110:4127  kurslar[_address] */\n      0xffffffffffffffffffffffffffffffffffffffff\n      and\n      0xffffffffffffffffffffffffffffffffffffffff\n      and\n      dup2\n      mstore\n      0x20\n      add\n      swap1\n      dup2\n      mstore\n      0x20\n      add\n      0x00\n      keccak256\n        /* \"contracts/BaseContract.sol\":4110:4133  kurslar[_address].durum */\n      0x00\n      add\n      0x00\n      swap1\n      sload\n      swap1\n      0x0100\n      exp\n      swap1\n      div\n      0xff\n      and\n        /* \"contracts/BaseContract.sol\":4103:4133  return kurslar[_address].durum */\n      swap1\n      pop\n        /* \"contracts/BaseContract.sol\":4033:4141  function isKurs(address _address) public view returns(bool){\r... */\n      swap2\n      swap1\n      pop\n      jump\t// out\n        /* \"contracts/BaseContract.sol\":4612:4650  mapping(address=>Kurs) public  kurslar */\n    tag_35:\n      mstore(0x20, 0x07)\n      dup1\n      0x00\n      mstore\n      keccak256(0x00, 0x40)\n      0x00\n      swap2\n      pop\n      swap1\n      pop\n      dup1\n      0x00\n      add\n      0x00\n      swap1\n      sload\n      swap1\n      0x0100\n      exp\n      swap1\n      div\n      0xff\n      and\n      swap1\n      dup1\n      0x01\n      add\n      dup1\n      sload\n      tag_110\n      swap1\n      tag_111\n      jump\t// in\n    tag_110:\n      dup1\n      0x1f\n      add\n      0x20\n      dup1\n      swap2\n      div\n      mul\n      0x20\n      add\n      mload(0x40)\n      swap1\n      dup2\n      add\n      0x40\n      mstore\n      dup1\n      swap3\n      swap2\n      swap1\n      dup2\n      dup2\n      mstore\n      0x20\n      add\n      dup3\n      dup1\n      sload\n      tag_112\n      swap1\n      tag_111\n      jump\t// in\n    tag_112:\n      dup1\n      iszero\n      tag_113\n      jumpi\n      dup1\n      0x1f\n      lt\n      tag_114\n      jumpi\n      0x0100\n      dup1\n      dup4\n      sload\n      div\n      mul\n      dup4\n      mstore\n      swap2\n      0x20\n      add\n      swap2\n      jump(tag_113)\n    tag_114:\n      dup3\n      add\n      swap2\n      swap1\n      0x00\n      mstore\n      keccak256(0x00, 0x20)\n      swap1\n    tag_115:\n      dup2\n      sload\n      dup2\n      mstore\n      swap1\n      0x01\n      add\n      swap1\n      0x20\n      add\n      dup1\n      dup4\n      gt\n      tag_115\n      jumpi\n      dup3\n      swap1\n      sub\n      0x1f\n      and\n      dup3\n      add\n      swap2\n    tag_113:\n      pop\n      pop\n      pop\n      pop\n      pop\n      swap1\n      dup1\n      0x02\n      add\n      0x00\n      swap1\n      sload\n      swap1\n      0x0100\n      exp\n      swap1\n      div\n      0xff\n      and\n      swap1\n      pop\n      dup4\n      jump\t// out\n        /* \"contracts/BaseContract.sol\":4451:4500  mapping(address=>Universite) public universiteler */\n    tag_40:\n      mstore(0x20, 0x04)\n      dup1\n      0x00\n      mstore\n      keccak256(0x00, 0x40)\n      0x00\n      swap2\n      pop\n      swap1\n      pop\n      dup1\n      0x00\n      add\n      0x00\n      swap1\n      sload\n      swap1\n      0x0100\n      exp\n      swap1\n      div\n      0xff\n      and\n      swap1\n      dup1\n      0x01\n      add\n      dup1\n      sload\n      tag_116\n      swap1\n      tag_111\n      jump\t// in\n    tag_116:\n      dup1\n      0x1f\n      add\n      0x20\n      dup1\n      swap2\n      div\n      mul\n      0x20\n      add\n      mload(0x40)\n      swap1\n      dup2\n      add\n      0x40\n      mstore\n      dup1\n      swap3\n      swap2\n      swap1\n      dup2\n      dup2\n      mstore\n      0x20\n      add\n      dup3\n      dup1\n      sload\n      tag_117\n      swap1\n      tag_111\n      jump\t// in\n    tag_117:\n      dup1\n      iszero\n      tag_118\n      jumpi\n      dup1\n      0x1f\n      lt\n      tag_119\n      jumpi\n      0x0100\n      dup1\n      dup4\n      sload\n      div\n      mul\n      dup4\n      mstore\n      swap2\n      0x20\n      add\n      swap2\n      jump(tag_118)\n    tag_119:\n      dup3\n      add\n      swap2\n      swap1\n      0x00\n      mstore\n      keccak256(0x00, 0x20)\n      swap1\n    tag_120:\n      dup2\n      sload\n      dup2\n      mstore\n      swap1\n      0x01\n      add\n      swap1\n      0x20\n      add\n      dup1\n      dup4\n      gt\n      tag_120\n      jumpi\n      dup3\n      swap1\n      sub\n      0x1f\n      and\n      dup3\n      add\n      swap2\n    tag_118:\n      pop\n      pop\n      pop\n      pop\n      pop\n      swap1\n      dup1\n      0x02\n      add\n      0x00\n      swap1\n      sload\n      swap1\n      0x0100\n      exp\n      swap1\n      div\n      0xff\n      and\n      swap1\n      pop\n      dup4\n      jump\t// out\n        /* \"contracts/BaseContract.sol\":3911:4021  function isFirma(address _address) public view returns(bool){\r... */\n    tag_44:\n        /* \"contracts/BaseContract.sol\":3966:3970  bool */\n      0x00\n        /* \"contracts/BaseContract.sol\":3989:3997  firmalar */\n      0x06\n        /* \"contracts/BaseContract.sol\":3989:4007  firmalar[_address] */\n      0x00\n        /* \"contracts/BaseContract.sol\":3998:4006  _address */\n      dup4\n        /* \"contracts/BaseContract.sol\":3989:4007  firmalar[_address] */\n      0xffffffffffffffffffffffffffffffffffffffff\n      and\n      0xffffffffffffffffffffffffffffffffffffffff\n      and\n      dup2\n      mstore\n      0x20\n      add\n      swap1\n      dup2\n      mstore\n      0x20\n      add\n      0x00\n      keccak256\n        /* \"contracts/BaseContract.sol\":3989:4013  firmalar[_address].durum */\n      0x00\n      add\n      0x00\n      swap1\n      sload\n      swap1\n      0x0100\n      exp\n      swap1\n      div\n      0xff\n      and\n        /* \"contracts/BaseContract.sol\":3982:4013  return firmalar[_address].durum */\n      swap1\n      pop\n        /* \"contracts/BaseContract.sol\":3911:4021  function isFirma(address _address) public view returns(bool){\r... */\n      swap2\n      swap1\n      pop\n      jump\t// out\n        /* \"contracts/BaseContract.sol\":4755:4816  mapping(address=>SertifikaMerkezi) public sertifikaMerkezleri */\n    tag_48:\n      mstore(0x20, 0x0a)\n      dup1\n      0x00\n      mstore\n      keccak256(0x00, 0x40)\n      0x00\n      swap2\n      pop\n      swap1\n      pop\n      dup1\n      0x00\n      add\n      0x00\n      swap1\n      sload\n      swap1\n      0x0100\n      exp\n      swap1\n      div\n      0xff\n      and\n      swap1\n      dup1\n      0x01\n      add\n      dup1\n      sload\n      tag_122\n      swap1\n      tag_111\n      jump\t// in\n    tag_122:\n      dup1\n      0x1f\n      add\n      0x20\n      dup1\n      swap2\n      div\n      mul\n      0x20\n      add\n      mload(0x40)\n      swap1\n      dup2\n      add\n      0x40\n      mstore\n      dup1\n      swap3\n      swap2\n      swap1\n      dup2\n      dup2\n      mstore\n      0x20\n      add\n      dup3\n      dup1\n      sload\n      tag_123\n      swap1\n      tag_111\n      jump\t// in\n    tag_123:\n      dup1\n      iszero\n      tag_124\n      jumpi\n      dup1\n      0x1f\n      lt\n      tag_125\n      jumpi\n      0x0100\n      dup1\n      dup4\n      sload\n      div\n      mul\n      dup4\n      mstore\n      swap2\n      0x20\n      add\n      swap2\n      jump(tag_124)\n    tag_125:\n      dup3\n      add\n      swap2\n      swap1\n      0x00\n      mstore\n      keccak256(0x00, 0x20)\n      swap1\n    tag_126:\n      dup2\n      sload\n      dup2\n      mstore\n      swap1\n      0x01\n      add\n      swap1\n      0x20\n      add\n      dup1\n      dup4\n      gt\n      tag_126\n      jumpi\n      dup3\n      swap1\n      sub\n      0x1f\n      and\n      dup3\n      add\n      swap2\n    tag_124:\n      pop\n      pop\n      pop\n      pop\n      pop\n      swap1\n      dup1\n      0x02\n      add\n      0x00\n      swap1\n      sload\n      swap1\n      0x0100\n      exp\n      swap1\n      div\n      0xff\n      and\n      swap1\n      pop\n      dup4\n      jump\t// out\n        /* \"contracts/BaseContract.sol\":4565:4605  mapping(address=>Firma) public  firmalar */\n    tag_52:\n      mstore(0x20, 0x06)\n      dup1\n      0x00\n      mstore\n      keccak256(0x00, 0x40)\n      0x00\n      swap2\n      pop\n      swap1\n      pop\n      dup1\n      0x00\n      add\n      0x00\n      swap1\n      sload\n      swap1\n      0x0100\n      exp\n      swap1\n      div\n      0xff\n      and\n      swap1\n      dup1\n      0x00\n      add\n      0x01\n      swap1\n      sload\n      swap1\n      0x0100\n      exp\n      swap1\n      div\n      0xff\n      and\n      swap1\n      dup1\n      0x01\n      add\n      sload\n      swap1\n      dup1\n      0x02\n      add\n      dup1\n      sload\n      tag_127\n      swap1\n      tag_111\n      jump\t// in\n    tag_127:\n      dup1\n      0x1f\n      add\n      0x20\n      dup1\n      swap2\n      div\n      mul\n      0x20\n      add\n      mload(0x40)\n      swap1\n      dup2\n      add\n      0x40\n      mstore\n      dup1\n      swap3\n      swap2\n      swap1\n      dup2\n      dup2\n      mstore\n      0x20\n      add\n      dup3\n      dup1\n      sload\n      tag_128\n      swap1\n      tag_111\n      jump\t// in\n    tag_128:\n      dup1\n      iszero\n      tag_129\n      jumpi\n      dup1\n      0x1f\n      lt\n      tag_130\n      jumpi\n      0x0100\n      dup1\n      dup4\n      sload\n      div\n      mul\n      dup4\n      mstore\n      swap2\n      0x20\n      add\n      swap2\n      jump(tag_129)\n    tag_130:\n      dup3\n      add\n      swap2\n      swap1\n      0x00\n      mstore\n      keccak256(0x00, 0x20)\n      swap1\n    tag_131:\n      dup2\n      sload\n      dup2\n      mstore\n      swap1\n      0x01\n      add\n      swap1\n      0x20\n      add\n      dup1\n      dup4\n      gt\n      tag_131\n      jumpi\n      dup3\n      swap1\n      sub\n      0x1f\n      and\n      dup3\n      add\n      swap2\n    tag_129:\n      pop\n      pop\n      pop\n      pop\n      pop\n      swap1\n      pop\n      dup5\n      jump\t// out\n        /* \"contracts/BaseContract.sol\":3783:3903  function isKamuKurumu(address _address) public view returns(bool){\r... */\n    tag_57:\n        /* \"contracts/BaseContract.sol\":3843:3847  bool */\n      0x00\n        /* \"contracts/BaseContract.sol\":3866:3879  kamuKurumlari */\n      0x08\n        /* \"contracts/BaseContract.sol\":3866:3889  kamuKurumlari[_address] */\n      0x00\n        /* \"contracts/BaseContract.sol\":3880:3888  _address */\n      dup4\n        /* \"contracts/BaseContract.sol\":3866:3889  kamuKurumlari[_address] */\n      0xffffffffffffffffffffffffffffffffffffffff\n      and\n      0xffffffffffffffffffffffffffffffffffffffff\n      and\n      dup2\n      mstore\n      0x20\n      add\n      swap1\n      dup2\n      mstore\n      0x20\n      add\n      0x00\n      keccak256\n        /* \"contracts/BaseContract.sol\":3866:3895  kamuKurumlari[_address].durum */\n      0x00\n      add\n      0x00\n      swap1\n      sload\n      swap1\n      0x0100\n      exp\n      swap1\n      div\n      0xff\n      and\n        /* \"contracts/BaseContract.sol\":3859:3895  return kamuKurumlari[_address].durum */\n      swap1\n      pop\n        /* \"contracts/BaseContract.sol\":3783:3903  function isKamuKurumu(address _address) public view returns(bool){\r... */\n      swap2\n      swap1\n      pop\n      jump\t// out\n        /* \"contracts/BaseContract.sol\":4657:4706  mapping(address=>KamuKurumu) public kamuKurumlari */\n    tag_61:\n      mstore(0x20, 0x08)\n      dup1\n      0x00\n      mstore\n      keccak256(0x00, 0x40)\n      0x00\n      swap2\n      pop\n      swap1\n      pop\n      dup1\n      0x00\n      add\n      0x00\n      swap1\n      sload\n      swap1\n      0x0100\n      exp\n      swap1\n      div\n      0xff\n      and\n      swap1\n      dup1\n      0x01\n      add\n      dup1\n      sload\n      tag_133\n      swap1\n      tag_111\n      jump\t// in\n    tag_133:\n      dup1\n      0x1f\n      add\n      0x20\n      dup1\n      swap2\n      div\n      mul\n      0x20\n      add\n      mload(0x40)\n      swap1\n      dup2\n      add\n      0x40\n      mstore\n      dup1\n      swap3\n      swap2\n      swap1\n      dup2\n      dup2\n      mstore\n      0x20\n      add\n      dup3\n      dup1\n      sload\n      tag_134\n      swap1\n      tag_111\n      jump\t// in\n    tag_134:\n      dup1\n      iszero\n      tag_135\n      jumpi\n      dup1\n      0x1f\n      lt\n      tag_136\n      jumpi\n      0x0100\n      dup1\n      dup4\n      sload\n      div\n      mul\n      dup4\n      mstore\n      swap2\n      0x20\n      add\n      swap2\n      jump(tag_135)\n    tag_136:\n      dup3\n      add\n      swap2\n      swap1\n      0x00\n      mstore\n      keccak256(0x00, 0x20)\n      swap1\n    tag_137:\n      dup2\n      sload\n      dup2\n      mstore\n      swap1\n      0x01\n      add\n      swap1\n      0x20\n      add\n      dup1\n      dup4\n      gt\n      tag_137\n      jumpi\n      dup3\n      swap1\n      sub\n      0x1f\n      and\n      dup3\n      add\n      swap2\n    tag_135:\n      pop\n      pop\n      pop\n      pop\n      pop\n      swap1\n      dup1\n      0x02\n      add\n      0x00\n      swap1\n      sload\n      swap1\n      0x0100\n      exp\n      swap1\n      div\n      0xff\n      and\n      swap1\n      pop\n      dup4\n      jump\t// out\n        /* \"contracts/BaseContract.sol\":4149:4255  function isSTK(address _address) public view returns(bool){\r... */\n    tag_65:\n        /* \"contracts/BaseContract.sol\":4202:4206  bool */\n      0x00\n        /* \"contracts/BaseContract.sol\":4225:4231  stklar */\n      0x09\n        /* \"contracts/BaseContract.sol\":4225:4241  stklar[_address] */\n      0x00\n        /* \"contracts/BaseContract.sol\":4232:4240  _address */\n      dup4\n        /* \"contracts/BaseContract.sol\":4225:4241  stklar[_address] */\n      0xffffffffffffffffffffffffffffffffffffffff\n      and\n      0xffffffffffffffffffffffffffffffffffffffff\n      and\n      dup2\n      mstore\n      0x20\n      add\n      swap1\n      dup2\n      mstore\n      0x20\n      add\n      0x00\n      keccak256\n        /* \"contracts/BaseContract.sol\":4225:4247  stklar[_address].durum */\n      0x00\n      add\n      0x00\n      swap1\n      sload\n      swap1\n      0x0100\n      exp\n      swap1\n      div\n      0xff\n      and\n        /* \"contracts/BaseContract.sol\":4218:4247  return stklar[_address].durum */\n      swap1\n      pop\n        /* \"contracts/BaseContract.sol\":4149:4255  function isSTK(address _address) public view returns(bool){\r... */\n      swap2\n      swap1\n      pop\n      jump\t// out\n        /* \"contracts/BaseContract.sol\":4713:4748  mapping(address=>STK) public stklar */\n    tag_69:\n      mstore(0x20, 0x09)\n      dup1\n      0x00\n      mstore\n      keccak256(0x00, 0x40)\n      0x00\n      swap2\n      pop\n      swap1\n      pop\n      dup1\n      0x00\n      add\n      0x00\n      swap1\n      sload\n      swap1\n      0x0100\n      exp\n      swap1\n      div\n      0xff\n      and\n      swap1\n      dup1\n      0x01\n      add\n      dup1\n      sload\n      tag_139\n      swap1\n      tag_111\n      jump\t// in\n    tag_139:\n      dup1\n      0x1f\n      add\n      0x20\n      dup1\n      swap2\n      div\n      mul\n      0x20\n      add\n      mload(0x40)\n      swap1\n      dup2\n      add\n      0x40\n      mstore\n      dup1\n      swap3\n      swap2\n      swap1\n      dup2\n      dup2\n      mstore\n      0x20\n      add\n      dup3\n      dup1\n      sload\n      tag_140\n      swap1\n      tag_111\n      jump\t// in\n    tag_140:\n      dup1\n      iszero\n      tag_141\n      jumpi\n      dup1\n      0x1f\n      lt\n      tag_142\n      jumpi\n      0x0100\n      dup1\n      dup4\n      sload\n      div\n      mul\n      dup4\n      mstore\n      swap2\n      0x20\n      add\n      swap2\n      jump(tag_141)\n    tag_142:\n      dup3\n      add\n      swap2\n      swap1\n      0x00\n      mstore\n      keccak256(0x00, 0x20)\n      swap1\n    tag_143:\n      dup2\n      sload\n      dup2\n      mstore\n      swap1\n      0x01\n      add\n      swap1\n      0x20\n      add\n      dup1\n      dup4\n      gt\n      tag_143\n      jumpi\n      dup3\n      swap1\n      sub\n      0x1f\n      and\n      dup3\n      add\n      swap2\n    tag_141:\n      pop\n      pop\n      pop\n      pop\n      pop\n      swap1\n      dup1\n      0x02\n      add\n      0x00\n      swap1\n      sload\n      swap1\n      0x0100\n      exp\n      swap1\n      div\n      0xff\n      and\n      swap1\n      pop\n      dup4\n      jump\t// out\n        /* \"contracts/BaseContract.sol\":4823:4864  mapping(uint32=>YabanciDil) public diller */\n    tag_74:\n      mstore(0x20, 0x0b)\n      dup1\n      0x00\n      mstore\n      keccak256(0x00, 0x40)\n      0x00\n      swap2\n      pop\n      swap1\n      pop\n      dup1\n      0x00\n      add\n      0x00\n      swap1\n      sload\n      swap1\n      0x0100\n      exp\n      swap1\n      div\n      0xffffffff\n      and\n      swap1\n      dup1\n      0x01\n      add\n      dup1\n      sload\n      tag_144\n      swap1\n      tag_111\n      jump\t// in\n    tag_144:\n      dup1\n      0x1f\n      add\n      0x20\n      dup1\n      swap2\n      div\n      mul\n      0x20\n      add\n      mload(0x40)\n      swap1\n      dup2\n      add\n      0x40\n      mstore\n      dup1\n      swap3\n      swap2\n      swap1\n      dup2\n      dup2\n      mstore\n      0x20\n      add\n      dup3\n      dup1\n      sload\n      tag_145\n      swap1\n      tag_111\n      jump\t// in\n    tag_145:\n      dup1\n      iszero\n      tag_146\n      jumpi\n      dup1\n      0x1f\n      lt\n      tag_147\n      jumpi\n      0x0100\n      dup1\n      dup4\n      sload\n      div\n      mul\n      dup4\n      mstore\n      swap2\n      0x20\n      add\n      swap2\n      jump(tag_146)\n    tag_147:\n      dup3\n      add\n      swap2\n      swap1\n      0x00\n      mstore\n      keccak256(0x00, 0x20)\n      swap1\n    tag_148:\n      dup2\n      sload\n      dup2\n      mstore\n      swap1\n      0x01\n      add\n      swap1\n      0x20\n      add\n      dup1\n      dup4\n      gt\n      tag_148\n      jumpi\n      dup3\n      swap1\n      sub\n      0x1f\n      and\n      dup3\n      add\n      swap2\n    tag_146:\n      pop\n      pop\n      pop\n      pop\n      pop\n      swap1\n      pop\n      dup3\n      jump\t// out\n        /* \"contracts/BaseContract.sol\":3663:3771  function isKisi(address _address) public view returns(bool){\r... */\n    tag_79:\n        /* \"contracts/BaseContract.sol\":3717:3721  bool */\n      0x00\n        /* \"contracts/BaseContract.sol\":3740:3747  kisiler */\n      0x03\n        /* \"contracts/BaseContract.sol\":3740:3757  kisiler[_address] */\n      0x00\n        /* \"contracts/BaseContract.sol\":3748:3756  _address */\n      dup4\n        /* \"contracts/BaseContract.sol\":3740:3757  kisiler[_address] */\n      0xffffffffffffffffffffffffffffffffffffffff\n      and\n      0xffffffffffffffffffffffffffffffffffffffff\n      and\n      dup2\n      mstore\n      0x20\n      add\n      swap1\n      dup2\n      mstore\n      0x20\n      add\n      0x00\n      keccak256\n        /* \"contracts/BaseContract.sol\":3740:3763  kisiler[_address].durum */\n      0x00\n      add\n      0x00\n      swap1\n      sload\n      swap1\n      0x0100\n      exp\n      swap1\n      div\n      0xff\n      and\n        /* \"contracts/BaseContract.sol\":3733:3763  return kisiler[_address].durum */\n      swap1\n      pop\n        /* \"contracts/BaseContract.sol\":3663:3771  function isKisi(address _address) public view returns(bool){\r... */\n      swap2\n      swap1\n      pop\n      jump\t// out\n        /* \"contracts/BaseContract.sol\":4507:4558  mapping(address=>Akademisyen) public akademisyenler */\n    tag_83:\n      mstore(0x20, 0x05)\n      dup1\n      0x00\n      mstore\n      keccak256(0x00, 0x40)\n      0x00\n      swap2\n      pop\n      swap1\n      pop\n      dup1\n      0x00\n      add\n      0x00\n      swap1\n      sload\n      swap1\n      0x0100\n      exp\n      swap1\n      div\n      0xff\n      and\n      swap1\n      dup1\n      0x00\n      add\n      0x01\n      swap1\n      sload\n      swap1\n      0x0100\n      exp\n      swap1\n      div\n      0xffffffffffffffffffffffffffffffffffffffff\n      and\n      swap1\n      dup1\n      0x00\n      add\n      0x15\n      swap1\n      sload\n      swap1\n      0x0100\n      exp\n      swap1\n      div\n      0xffff\n      and\n      swap1\n      dup1\n      0x00\n      add\n      0x17\n      swap1\n      sload\n      swap1\n      0x0100\n      exp\n      swap1\n      div\n      0xff\n      and\n      swap1\n      dup1\n      0x01\n      add\n      dup1\n      sload\n      tag_150\n      swap1\n      tag_111\n      jump\t// in\n    tag_150:\n      dup1\n      0x1f\n      add\n      0x20\n      dup1\n      swap2\n      div\n      mul\n      0x20\n      add\n      mload(0x40)\n      swap1\n      dup2\n      add\n      0x40\n      mstore\n      dup1\n      swap3\n      swap2\n      swap1\n      dup2\n      dup2\n      mstore\n      0x20\n      add\n      dup3\n      dup1\n      sload\n      tag_151\n      swap1\n      tag_111\n      jump\t// in\n    tag_151:\n      dup1\n      iszero\n      tag_152\n      jumpi\n      dup1\n      0x1f\n      lt\n      tag_153\n      jumpi\n      0x0100\n      dup1\n      dup4\n      sload\n      div\n      mul\n      dup4\n      mstore\n      swap2\n      0x20\n      add\n      swap2\n      jump(tag_152)\n    tag_153:\n      dup3\n      add\n      swap2\n      swap1\n      0x00\n      mstore\n      keccak256(0x00, 0x20)\n      swap1\n    tag_154:\n      dup2\n      sload\n      dup2\n      mstore\n      swap1\n      0x01\n      add\n      swap1\n      0x20\n      add\n      dup1\n      dup4\n      gt\n      tag_154\n      jumpi\n      dup3\n      swap1\n      sub\n      0x1f\n      and\n      dup3\n      add\n      swap2\n    tag_152:\n      pop\n      pop\n      pop\n      pop\n      pop\n      swap1\n      dup1\n      0x02\n      add\n      dup1\n      sload\n      tag_155\n      swap1\n      tag_111\n      jump\t// in\n    tag_155:\n      dup1\n      0x1f\n      add\n      0x20\n      dup1\n      swap2\n      div\n      mul\n      0x20\n      add\n      mload(0x40)\n      swap1\n      dup2\n      add\n      0x40\n      mstore\n      dup1\n      swap3\n      swap2\n      swap1\n      dup2\n      dup2\n      mstore\n      0x20\n      add\n      dup3\n      dup1\n      sload\n      tag_156\n      swap1\n      tag_111\n      jump\t// in\n    tag_156:\n      dup1\n      iszero\n      tag_157\n      jumpi\n      dup1\n      0x1f\n      lt\n      tag_158\n      jumpi\n      0x0100\n      dup1\n      dup4\n      sload\n      div\n      mul\n      dup4\n      mstore\n      swap2\n      0x20\n      add\n      swap2\n      jump(tag_157)\n    tag_158:\n      dup3\n      add\n      swap2\n      swap1\n      0x00\n      mstore\n      keccak256(0x00, 0x20)\n      swap1\n    tag_159:\n      dup2\n      sload\n      dup2\n      mstore\n      swap1\n      0x01\n      add\n      swap1\n      0x20\n      add\n      dup1\n      dup4\n      gt\n      tag_159\n      jumpi\n      dup3\n      swap1\n      sub\n      0x1f\n      and\n      dup3\n      add\n      swap2\n    tag_157:\n      pop\n      pop\n      pop\n      pop\n      pop\n      swap1\n      pop\n      dup7\n      jump\t// out\n        /* \"contracts/BaseContract.sol\":4407:4444  mapping(address=>Kisi) public kisiler */\n    tag_88:\n      mstore(0x20, 0x03)\n      dup1\n      0x00\n      mstore\n      keccak256(0x00, 0x40)\n      0x00\n      swap2\n      pop\n      swap1\n      pop\n      dup1\n      0x00\n      add\n      0x00\n      swap1\n      sload\n      swap1\n      0x0100\n      exp\n      swap1\n      div\n      0xff\n      and\n      swap1\n      pop\n      dup2\n      jump\t// out\n        /* \"contracts/BaseContract.sol\":4267:4399  function isSertifikaMerkezi(address _address) public view returns(bool){\r... */\n    tag_92:\n        /* \"contracts/BaseContract.sol\":4333:4337  bool */\n      0x00\n        /* \"contracts/BaseContract.sol\":4356:4375  sertifikaMerkezleri */\n      0x0a\n        /* \"contracts/BaseContract.sol\":4356:4385  sertifikaMerkezleri[_address] */\n      0x00\n        /* \"contracts/BaseContract.sol\":4376:4384  _address */\n      dup4\n        /* \"contracts/BaseContract.sol\":4356:4385  sertifikaMerkezleri[_address] */\n      0xffffffffffffffffffffffffffffffffffffffff\n      and\n      0xffffffffffffffffffffffffffffffffffffffff\n      and\n      dup2\n      mstore\n      0x20\n      add\n      swap1\n      dup2\n      mstore\n      0x20\n      add\n      0x00\n      keccak256\n        /* \"contracts/BaseContract.sol\":4356:4391  sertifikaMerkezleri[_address].durum */\n      0x00\n      add\n      0x00\n      swap1\n      sload\n      swap1\n      0x0100\n      exp\n      swap1\n      div\n      0xff\n      and\n        /* \"contracts/BaseContract.sol\":4349:4391  return sertifikaMerkezleri[_address].durum */\n      swap1\n      pop\n        /* \"contracts/BaseContract.sol\":4267:4399  function isSertifikaMerkezi(address _address) public view returns(bool){\r... */\n      swap2\n      swap1\n      pop\n      jump\t// out\n        /* \"contracts/BaseContract.sol\":3535:3655  function isUniversite(address _address) public view returns(bool){\r... */\n    tag_96:\n        /* \"contracts/BaseContract.sol\":3595:3599  bool */\n      0x00\n        /* \"contracts/BaseContract.sol\":3618:3631  universiteler */\n      0x04\n        /* \"contracts/BaseContract.sol\":3618:3641  universiteler[_address] */\n      0x00\n        /* \"contracts/BaseContract.sol\":3632:3640  _address */\n      dup4\n        /* \"contracts/BaseContract.sol\":3618:3641  universiteler[_address] */\n      0xffffffffffffffffffffffffffffffffffffffff\n      and\n      0xffffffffffffffffffffffffffffffffffffffff\n      and\n      dup2\n      mstore\n      0x20\n      add\n      swap1\n      dup2\n      mstore\n      0x20\n      add\n      0x00\n      keccak256\n        /* \"contracts/BaseContract.sol\":3618:3647  universiteler[_address].durum */\n      0x00\n      add\n      0x00\n      swap1\n      sload\n      swap1\n      0x0100\n      exp\n      swap1\n      div\n      0xff\n      and\n        /* \"contracts/BaseContract.sol\":3611:3647  return universiteler[_address].durum */\n      swap1\n      pop\n        /* \"contracts/BaseContract.sol\":3535:3655  function isUniversite(address _address) public view returns(bool){\r... */\n      swap2\n      swap1\n      pop\n      jump\t// out\n    tag_108:\n      dup3\n      dup1\n      sload\n      tag_162\n      swap1\n      tag_111\n      jump\t// in\n    tag_162:\n      swap1\n      0x00\n      mstore\n      keccak256(0x00, 0x20)\n      swap1\n      0x1f\n      add\n      0x20\n      swap1\n      div\n      dup2\n      add\n      swap3\n      dup3\n      tag_164\n      jumpi\n      0x00\n      dup6\n      sstore\n      jump(tag_163)\n    tag_164:\n      dup3\n      0x1f\n      lt\n      tag_165\n      jumpi\n      dup1\n      mload\n      not(0xff)\n      and\n      dup4\n      dup1\n      add\n      or\n      dup6\n      sstore\n      jump(tag_163)\n    tag_165:\n      dup3\n      dup1\n      add\n      0x01\n      add\n      dup6\n      sstore\n      dup3\n      iszero\n      tag_163\n      jumpi\n      swap2\n      dup3\n      add\n    tag_166:\n      dup3\n      dup2\n      gt\n      iszero\n      tag_167\n      jumpi\n      dup3\n      mload\n      dup3\n      sstore\n      swap2\n      0x20\n      add\n      swap2\n      swap1\n      0x01\n      add\n      swap1\n      jump(tag_166)\n    tag_167:\n    tag_163:\n      pop\n      swap1\n      pop\n      tag_168\n      swap2\n      swap1\n      tag_169\n      jump\t// in\n    tag_168:\n      pop\n      swap1\n      jump\t// out\n    tag_169:\n    tag_170:\n      dup1\n      dup3\n      gt\n      iszero\n      tag_171\n      jumpi\n      0x00\n      dup2\n      0x00\n      swap1\n      sstore\n      pop\n      0x01\n      add\n      jump(tag_170)\n    tag_171:\n      pop\n      swap1\n      jump\t// out\n        /* \"#utility.yul\":7:419   */\n    tag_173:\n        /* \"#utility.yul\":85:90   */\n      0x00\n        /* \"#utility.yul\":110:176   */\n      tag_175\n        /* \"#utility.yul\":126:175   */\n      tag_176\n        /* \"#utility.yul\":168:174   */\n      dup5\n        /* \"#utility.yul\":126:175   */\n      tag_177\n      jump\t// in\n    tag_176:\n        /* \"#utility.yul\":110:176   */\n      tag_178\n      jump\t// in\n    tag_175:\n        /* \"#utility.yul\":101:176   */\n      swap1\n      pop\n        /* \"#utility.yul\":199:205   */\n      dup3\n        /* \"#utility.yul\":192:197   */\n      dup2\n        /* \"#utility.yul\":185:206   */\n      mstore\n        /* \"#utility.yul\":237:241   */\n      0x20\n        /* \"#utility.yul\":230:235   */\n      dup2\n        /* \"#utility.yul\":226:242   */\n      add\n        /* \"#utility.yul\":275:278   */\n      dup5\n        /* \"#utility.yul\":266:272   */\n      dup5\n        /* \"#utility.yul\":261:264   */\n      dup5\n        /* \"#utility.yul\":257:273   */\n      add\n        /* \"#utility.yul\":254:279   */\n      gt\n        /* \"#utility.yul\":251:363   */\n      iszero\n      tag_179\n      jumpi\n        /* \"#utility.yul\":282:361   */\n      tag_180\n      tag_181\n      jump\t// in\n    tag_180:\n        /* \"#utility.yul\":251:363   */\n    tag_179:\n        /* \"#utility.yul\":372:413   */\n      tag_182\n        /* \"#utility.yul\":406:412   */\n      dup5\n        /* \"#utility.yul\":401:404   */\n      dup3\n        /* \"#utility.yul\":396:399   */\n      dup6\n        /* \"#utility.yul\":372:413   */\n      tag_183\n      jump\t// in\n    tag_182:\n        /* \"#utility.yul\":91:419   */\n      pop\n        /* \"#utility.yul\":7:419   */\n      swap4\n      swap3\n      pop\n      pop\n      pop\n      jump\t// out\n        /* \"#utility.yul\":425:564   */\n    tag_184:\n        /* \"#utility.yul\":471:476   */\n      0x00\n        /* \"#utility.yul\":509:515   */\n      dup2\n        /* \"#utility.yul\":496:516   */\n      calldataload\n        /* \"#utility.yul\":487:516   */\n      swap1\n      pop\n        /* \"#utility.yul\":525:558   */\n      tag_186\n        /* \"#utility.yul\":552:557   */\n      dup2\n        /* \"#utility.yul\":525:558   */\n      tag_187\n      jump\t// in\n    tag_186:\n        /* \"#utility.yul\":425:564   */\n      swap3\n      swap2\n      pop\n      pop\n      jump\t// out\n        /* \"#utility.yul\":584:924   */\n    tag_188:\n        /* \"#utility.yul\":640:645   */\n      0x00\n        /* \"#utility.yul\":689:692   */\n      dup3\n        /* \"#utility.yul\":682:686   */\n      0x1f\n        /* \"#utility.yul\":674:680   */\n      dup4\n        /* \"#utility.yul\":670:687   */\n      add\n        /* \"#utility.yul\":666:693   */\n      slt\n        /* \"#utility.yul\":656:778   */\n      tag_190\n      jumpi\n        /* \"#utility.yul\":697:776   */\n      tag_191\n      tag_192\n      jump\t// in\n    tag_191:\n        /* \"#utility.yul\":656:778   */\n    tag_190:\n        /* \"#utility.yul\":814:820   */\n      dup2\n        /* \"#utility.yul\":801:821   */\n      calldataload\n        /* \"#utility.yul\":839:918   */\n      tag_193\n        /* \"#utility.yul\":914:917   */\n      dup5\n        /* \"#utility.yul\":906:912   */\n      dup3\n        /* \"#utility.yul\":899:903   */\n      0x20\n        /* \"#utility.yul\":891:897   */\n      dup7\n        /* \"#utility.yul\":887:904   */\n      add\n        /* \"#utility.yul\":839:918   */\n      tag_173\n      jump\t// in\n    tag_193:\n        /* \"#utility.yul\":830:918   */\n      swap2\n      pop\n        /* \"#utility.yul\":646:924   */\n      pop\n        /* \"#utility.yul\":584:924   */\n      swap3\n      swap2\n      pop\n      pop\n      jump\t// out\n        /* \"#utility.yul\":930:1067   */\n    tag_194:\n        /* \"#utility.yul\":975:980   */\n      0x00\n        /* \"#utility.yul\":1013:1019   */\n      dup2\n        /* \"#utility.yul\":1000:1020   */\n      calldataload\n        /* \"#utility.yul\":991:1020   */\n      swap1\n      pop\n        /* \"#utility.yul\":1029:1061   */\n      tag_196\n        /* \"#utility.yul\":1055:1060   */\n      dup2\n        /* \"#utility.yul\":1029:1061   */\n      tag_197\n      jump\t// in\n    tag_196:\n        /* \"#utility.yul\":930:1067   */\n      swap3\n      swap2\n      pop\n      pop\n      jump\t// out\n        /* \"#utility.yul\":1073:1208   */\n    tag_198:\n        /* \"#utility.yul\":1117:1122   */\n      0x00\n        /* \"#utility.yul\":1155:1161   */\n      dup2\n        /* \"#utility.yul\":1142:1162   */\n      calldataload\n        /* \"#utility.yul\":1133:1162   */\n      swap1\n      pop\n        /* \"#utility.yul\":1171:1202   */\n      tag_200\n        /* \"#utility.yul\":1196:1201   */\n      dup2\n        /* \"#utility.yul\":1171:1202   */\n      tag_201\n      jump\t// in\n    tag_200:\n        /* \"#utility.yul\":1073:1208   */\n      swap3\n      swap2\n      pop\n      pop\n      jump\t// out\n        /* \"#utility.yul\":1214:1543   */\n    tag_29:\n        /* \"#utility.yul\":1273:1279   */\n      0x00\n        /* \"#utility.yul\":1322:1324   */\n      0x20\n        /* \"#utility.yul\":1310:1319   */\n      dup3\n        /* \"#utility.yul\":1301:1308   */\n      dup5\n        /* \"#utility.yul\":1297:1320   */\n      sub\n        /* \"#utility.yul\":1293:1325   */\n      slt\n        /* \"#utility.yul\":1290:1409   */\n      iszero\n      tag_203\n      jumpi\n        /* \"#utility.yul\":1328:1407   */\n      tag_204\n      tag_205\n      jump\t// in\n    tag_204:\n        /* \"#utility.yul\":1290:1409   */\n    tag_203:\n        /* \"#utility.yul\":1448:1449   */\n      0x00\n        /* \"#utility.yul\":1473:1526   */\n      tag_206\n        /* \"#utility.yul\":1518:1525   */\n      dup5\n        /* \"#utility.yul\":1509:1515   */\n      dup3\n        /* \"#utility.yul\":1498:1507   */\n      dup6\n        /* \"#utility.yul\":1494:1516   */\n      add\n        /* \"#utility.yul\":1473:1526   */\n      tag_184\n      jump\t// in\n    tag_206:\n        /* \"#utility.yul\":1463:1526   */\n      swap2\n      pop\n        /* \"#utility.yul\":1419:1536   */\n      pop\n        /* \"#utility.yul\":1214:1543   */\n      swap3\n      swap2\n      pop\n      pop\n      jump\t// out\n        /* \"#utility.yul\":1549:2344   */\n    tag_25:\n        /* \"#utility.yul\":1634:1640   */\n      0x00\n        /* \"#utility.yul\":1642:1648   */\n      dup1\n        /* \"#utility.yul\":1650:1656   */\n      0x00\n        /* \"#utility.yul\":1699:1701   */\n      0x60\n        /* \"#utility.yul\":1687:1696   */\n      dup5\n        /* \"#utility.yul\":1678:1685   */\n      dup7\n        /* \"#utility.yul\":1674:1697   */\n      sub\n        /* \"#utility.yul\":1670:1702   */\n      slt\n        /* \"#utility.yul\":1667:1786   */\n      iszero\n      tag_208\n      jumpi\n        /* \"#utility.yul\":1705:1784   */\n      tag_209\n      tag_205\n      jump\t// in\n    tag_209:\n        /* \"#utility.yul\":1667:1786   */\n    tag_208:\n        /* \"#utility.yul\":1825:1826   */\n      0x00\n        /* \"#utility.yul\":1850:1903   */\n      tag_210\n        /* \"#utility.yul\":1895:1902   */\n      dup7\n        /* \"#utility.yul\":1886:1892   */\n      dup3\n        /* \"#utility.yul\":1875:1884   */\n      dup8\n        /* \"#utility.yul\":1871:1893   */\n      add\n        /* \"#utility.yul\":1850:1903   */\n      tag_184\n      jump\t// in\n    tag_210:\n        /* \"#utility.yul\":1840:1903   */\n      swap4\n      pop\n        /* \"#utility.yul\":1796:1913   */\n      pop\n        /* \"#utility.yul\":1980:1982   */\n      0x20\n        /* \"#utility.yul\":1969:1978   */\n      dup5\n        /* \"#utility.yul\":1965:1983   */\n      add\n        /* \"#utility.yul\":1952:1984   */\n      calldataload\n        /* \"#utility.yul\":2011:2029   */\n      0xffffffffffffffff\n        /* \"#utility.yul\":2003:2009   */\n      dup2\n        /* \"#utility.yul\":2000:2030   */\n      gt\n        /* \"#utility.yul\":1997:2114   */\n      iszero\n      tag_211\n      jumpi\n        /* \"#utility.yul\":2033:2112   */\n      tag_212\n      tag_213\n      jump\t// in\n    tag_212:\n        /* \"#utility.yul\":1997:2114   */\n    tag_211:\n        /* \"#utility.yul\":2138:2201   */\n      tag_214\n        /* \"#utility.yul\":2193:2200   */\n      dup7\n        /* \"#utility.yul\":2184:2190   */\n      dup3\n        /* \"#utility.yul\":2173:2182   */\n      dup8\n        /* \"#utility.yul\":2169:2191   */\n      add\n        /* \"#utility.yul\":2138:2201   */\n      tag_188\n      jump\t// in\n    tag_214:\n        /* \"#utility.yul\":2128:2201   */\n      swap3\n      pop\n        /* \"#utility.yul\":1923:2211   */\n      pop\n        /* \"#utility.yul\":2250:2252   */\n      0x40\n        /* \"#utility.yul\":2276:2327   */\n      tag_215\n        /* \"#utility.yul\":2319:2326   */\n      dup7\n        /* \"#utility.yul\":2310:2316   */\n      dup3\n        /* \"#utility.yul\":2299:2308   */\n      dup8\n        /* \"#utility.yul\":2295:2317   */\n      add\n        /* \"#utility.yul\":2276:2327   */\n      tag_198\n      jump\t// in\n    tag_215:\n        /* \"#utility.yul\":2266:2327   */\n      swap2\n      pop\n        /* \"#utility.yul\":2221:2337   */\n      pop\n        /* \"#utility.yul\":1549:2344   */\n      swap3\n      pop\n      swap3\n      pop\n      swap3\n      jump\t// out\n        /* \"#utility.yul\":2350:2677   */\n    tag_73:\n        /* \"#utility.yul\":2408:2414   */\n      0x00\n        /* \"#utility.yul\":2457:2459   */\n      0x20\n        /* \"#utility.yul\":2445:2454   */\n      dup3\n        /* \"#utility.yul\":2436:2443   */\n      dup5\n        /* \"#utility.yul\":2432:2455   */\n      sub\n        /* \"#utility.yul\":2428:2460   */\n      slt\n        /* \"#utility.yul\":2425:2544   */\n      iszero\n      tag_217\n      jumpi\n        /* \"#utility.yul\":2463:2542   */\n      tag_218\n      tag_205\n      jump\t// in\n    tag_218:\n        /* \"#utility.yul\":2425:2544   */\n    tag_217:\n        /* \"#utility.yul\":2583:2584   */\n      0x00\n        /* \"#utility.yul\":2608:2660   */\n      tag_219\n        /* \"#utility.yul\":2652:2659   */\n      dup5\n        /* \"#utility.yul\":2643:2649   */\n      dup3\n        /* \"#utility.yul\":2632:2641   */\n      dup6\n        /* \"#utility.yul\":2628:2650   */\n      add\n        /* \"#utility.yul\":2608:2660   */\n      tag_194\n      jump\t// in\n    tag_219:\n        /* \"#utility.yul\":2598:2660   */\n      swap2\n      pop\n        /* \"#utility.yul\":2554:2670   */\n      pop\n        /* \"#utility.yul\":2350:2677   */\n      swap3\n      swap2\n      pop\n      pop\n      jump\t// out\n        /* \"#utility.yul\":2683:2801   */\n    tag_220:\n        /* \"#utility.yul\":2770:2794   */\n      tag_222\n        /* \"#utility.yul\":2788:2793   */\n      dup2\n        /* \"#utility.yul\":2770:2794   */\n      tag_223\n      jump\t// in\n    tag_222:\n        /* \"#utility.yul\":2765:2768   */\n      dup3\n        /* \"#utility.yul\":2758:2795   */\n      mstore\n        /* \"#utility.yul\":2683:2801   */\n      pop\n      pop\n      jump\t// out\n        /* \"#utility.yul\":2807:2916   */\n    tag_224:\n        /* \"#utility.yul\":2888:2909   */\n      tag_226\n        /* \"#utility.yul\":2903:2908   */\n      dup2\n        /* \"#utility.yul\":2888:2909   */\n      tag_227\n      jump\t// in\n    tag_226:\n        /* \"#utility.yul\":2883:2886   */\n      dup3\n        /* \"#utility.yul\":2876:2910   */\n      mstore\n        /* \"#utility.yul\":2807:2916   */\n      pop\n      pop\n      jump\t// out\n        /* \"#utility.yul\":2922:3065   */\n    tag_228:\n        /* \"#utility.yul\":3015:3058   */\n      tag_230\n        /* \"#utility.yul\":3052:3057   */\n      dup2\n        /* \"#utility.yul\":3015:3058   */\n      tag_231\n      jump\t// in\n    tag_230:\n        /* \"#utility.yul\":3010:3013   */\n      dup3\n        /* \"#utility.yul\":3003:3059   */\n      mstore\n        /* \"#utility.yul\":2922:3065   */\n      pop\n      pop\n      jump\t// out\n        /* \"#utility.yul\":3071:3435   */\n    tag_232:\n        /* \"#utility.yul\":3159:3162   */\n      0x00\n        /* \"#utility.yul\":3187:3226   */\n      tag_234\n        /* \"#utility.yul\":3220:3225   */\n      dup3\n        /* \"#utility.yul\":3187:3226   */\n      tag_235\n      jump\t// in\n    tag_234:\n        /* \"#utility.yul\":3242:3313   */\n      tag_236\n        /* \"#utility.yul\":3306:3312   */\n      dup2\n        /* \"#utility.yul\":3301:3304   */\n      dup6\n        /* \"#utility.yul\":3242:3313   */\n      tag_237\n      jump\t// in\n    tag_236:\n        /* \"#utility.yul\":3235:3313   */\n      swap4\n      pop\n        /* \"#utility.yul\":3322:3374   */\n      tag_238\n        /* \"#utility.yul\":3367:3373   */\n      dup2\n        /* \"#utility.yul\":3362:3365   */\n      dup6\n        /* \"#utility.yul\":3355:3359   */\n      0x20\n        /* \"#utility.yul\":3348:3353   */\n      dup7\n        /* \"#utility.yul\":3344:3360   */\n      add\n        /* \"#utility.yul\":3322:3374   */\n      tag_239\n      jump\t// in\n    tag_238:\n        /* \"#utility.yul\":3399:3428   */\n      tag_240\n        /* \"#utility.yul\":3421:3427   */\n      dup2\n        /* \"#utility.yul\":3399:3428   */\n      tag_241\n      jump\t// in\n    tag_240:\n        /* \"#utility.yul\":3394:3397   */\n      dup5\n        /* \"#utility.yul\":3390:3429   */\n      add\n        /* \"#utility.yul\":3383:3429   */\n      swap2\n      pop\n        /* \"#utility.yul\":3163:3435   */\n      pop\n        /* \"#utility.yul\":3071:3435   */\n      swap3\n      swap2\n      pop\n      pop\n      jump\t// out\n        /* \"#utility.yul\":3441:3807   */\n    tag_242:\n        /* \"#utility.yul\":3583:3586   */\n      0x00\n        /* \"#utility.yul\":3604:3671   */\n      tag_244\n        /* \"#utility.yul\":3668:3670   */\n      0x1f\n        /* \"#utility.yul\":3663:3666   */\n      dup4\n        /* \"#utility.yul\":3604:3671   */\n      tag_237\n      jump\t// in\n    tag_244:\n        /* \"#utility.yul\":3597:3671   */\n      swap2\n      pop\n        /* \"#utility.yul\":3680:3773   */\n      tag_245\n        /* \"#utility.yul\":3769:3772   */\n      dup3\n        /* \"#utility.yul\":3680:3773   */\n      tag_246\n      jump\t// in\n    tag_245:\n        /* \"#utility.yul\":3798:3800   */\n      0x20\n        /* \"#utility.yul\":3793:3796   */\n      dup3\n        /* \"#utility.yul\":3789:3801   */\n      add\n        /* \"#utility.yul\":3782:3801   */\n      swap1\n      pop\n        /* \"#utility.yul\":3441:3807   */\n      swap2\n      swap1\n      pop\n      jump\t// out\n        /* \"#utility.yul\":3813:4179   */\n    tag_247:\n        /* \"#utility.yul\":3955:3958   */\n      0x00\n        /* \"#utility.yul\":3976:4043   */\n      tag_249\n        /* \"#utility.yul\":4040:4042   */\n      0x17\n        /* \"#utility.yul\":4035:4038   */\n      dup4\n        /* \"#utility.yul\":3976:4043   */\n      tag_237\n      jump\t// in\n    tag_249:\n        /* \"#utility.yul\":3969:4043   */\n      swap2\n      pop\n        /* \"#utility.yul\":4052:4145   */\n      tag_250\n        /* \"#utility.yul\":4141:4144   */\n      dup3\n        /* \"#utility.yul\":4052:4145   */\n      tag_251\n      jump\t// in\n    tag_250:\n        /* \"#utility.yul\":4170:4172   */\n      0x20\n        /* \"#utility.yul\":4165:4168   */\n      dup3\n        /* \"#utility.yul\":4161:4173   */\n      add\n        /* \"#utility.yul\":4154:4173   */\n      swap1\n      pop\n        /* \"#utility.yul\":3813:4179   */\n      swap2\n      swap1\n      pop\n      jump\t// out\n        /* \"#utility.yul\":4185:4300   */\n    tag_252:\n        /* \"#utility.yul\":4270:4293   */\n      tag_254\n        /* \"#utility.yul\":4287:4292   */\n      dup2\n        /* \"#utility.yul\":4270:4293   */\n      tag_255\n      jump\t// in\n    tag_254:\n        /* \"#utility.yul\":4265:4268   */\n      dup3\n        /* \"#utility.yul\":4258:4294   */\n      mstore\n        /* \"#utility.yul\":4185:4300   */\n      pop\n      pop\n      jump\t// out\n        /* \"#utility.yul\":4306:4424   */\n    tag_256:\n        /* \"#utility.yul\":4393:4417   */\n      tag_258\n        /* \"#utility.yul\":4411:4416   */\n      dup2\n        /* \"#utility.yul\":4393:4417   */\n      tag_259\n      jump\t// in\n    tag_258:\n        /* \"#utility.yul\":4388:4391   */\n      dup3\n        /* \"#utility.yul\":4381:4418   */\n      mstore\n        /* \"#utility.yul\":4306:4424   */\n      pop\n      pop\n      jump\t// out\n        /* \"#utility.yul\":4430:4545   */\n    tag_260:\n        /* \"#utility.yul\":4515:4538   */\n      tag_262\n        /* \"#utility.yul\":4532:4537   */\n      dup2\n        /* \"#utility.yul\":4515:4538   */\n      tag_263\n      jump\t// in\n    tag_262:\n        /* \"#utility.yul\":4510:4513   */\n      dup3\n        /* \"#utility.yul\":4503:4539   */\n      mstore\n        /* \"#utility.yul\":4430:4545   */\n      pop\n      pop\n      jump\t// out\n        /* \"#utility.yul\":4551:4663   */\n    tag_264:\n        /* \"#utility.yul\":4634:4656   */\n      tag_266\n        /* \"#utility.yul\":4650:4655   */\n      dup2\n        /* \"#utility.yul\":4634:4656   */\n      tag_267\n      jump\t// in\n    tag_266:\n        /* \"#utility.yul\":4629:4632   */\n      dup3\n        /* \"#utility.yul\":4622:4657   */\n      mstore\n        /* \"#utility.yul\":4551:4663   */\n      pop\n      pop\n      jump\t// out\n        /* \"#utility.yul\":4669:4879   */\n    tag_32:\n        /* \"#utility.yul\":4756:4760   */\n      0x00\n        /* \"#utility.yul\":4794:4796   */\n      0x20\n        /* \"#utility.yul\":4783:4792   */\n      dup3\n        /* \"#utility.yul\":4779:4797   */\n      add\n        /* \"#utility.yul\":4771:4797   */\n      swap1\n      pop\n        /* \"#utility.yul\":4807:4872   */\n      tag_269\n        /* \"#utility.yul\":4869:4870   */\n      0x00\n        /* \"#utility.yul\":4858:4867   */\n      dup4\n        /* \"#utility.yul\":4854:4871   */\n      add\n        /* \"#utility.yul\":4845:4851   */\n      dup5\n        /* \"#utility.yul\":4807:4872   */\n      tag_224\n      jump\t// in\n    tag_269:\n        /* \"#utility.yul\":4669:4879   */\n      swap3\n      swap2\n      pop\n      pop\n      jump\t// out\n        /* \"#utility.yul\":4885:5838   */\n    tag_85:\n        /* \"#utility.yul\":5156:5160   */\n      0x00\n        /* \"#utility.yul\":5194:5197   */\n      0xc0\n        /* \"#utility.yul\":5183:5192   */\n      dup3\n        /* \"#utility.yul\":5179:5198   */\n      add\n        /* \"#utility.yul\":5171:5198   */\n      swap1\n      pop\n        /* \"#utility.yul\":5208:5273   */\n      tag_271\n        /* \"#utility.yul\":5270:5271   */\n      0x00\n        /* \"#utility.yul\":5259:5268   */\n      dup4\n        /* \"#utility.yul\":5255:5272   */\n      add\n        /* \"#utility.yul\":5246:5252   */\n      dup10\n        /* \"#utility.yul\":5208:5273   */\n      tag_224\n      jump\t// in\n    tag_271:\n        /* \"#utility.yul\":5283:5355   */\n      tag_272\n        /* \"#utility.yul\":5351:5353   */\n      0x20\n        /* \"#utility.yul\":5340:5349   */\n      dup4\n        /* \"#utility.yul\":5336:5354   */\n      add\n        /* \"#utility.yul\":5327:5333   */\n      dup9\n        /* \"#utility.yul\":5283:5355   */\n      tag_220\n      jump\t// in\n    tag_272:\n        /* \"#utility.yul\":5365:5435   */\n      tag_273\n        /* \"#utility.yul\":5431:5433   */\n      0x40\n        /* \"#utility.yul\":5420:5429   */\n      dup4\n        /* \"#utility.yul\":5416:5434   */\n      add\n        /* \"#utility.yul\":5407:5413   */\n      dup8\n        /* \"#utility.yul\":5365:5435   */\n      tag_252\n      jump\t// in\n    tag_273:\n        /* \"#utility.yul\":5445:5523   */\n      tag_274\n        /* \"#utility.yul\":5519:5521   */\n      0x60\n        /* \"#utility.yul\":5508:5517   */\n      dup4\n        /* \"#utility.yul\":5504:5522   */\n      add\n        /* \"#utility.yul\":5495:5501   */\n      dup7\n        /* \"#utility.yul\":5445:5523   */\n      tag_228\n      jump\t// in\n    tag_274:\n        /* \"#utility.yul\":5571:5580   */\n      dup2\n        /* \"#utility.yul\":5565:5569   */\n      dup2\n        /* \"#utility.yul\":5561:5581   */\n      sub\n        /* \"#utility.yul\":5555:5558   */\n      0x80\n        /* \"#utility.yul\":5544:5553   */\n      dup4\n        /* \"#utility.yul\":5540:5559   */\n      add\n        /* \"#utility.yul\":5533:5582   */\n      mstore\n        /* \"#utility.yul\":5599:5677   */\n      tag_275\n        /* \"#utility.yul\":5672:5676   */\n      dup2\n        /* \"#utility.yul\":5663:5669   */\n      dup6\n        /* \"#utility.yul\":5599:5677   */\n      tag_232\n      jump\t// in\n    tag_275:\n        /* \"#utility.yul\":5591:5677   */\n      swap1\n      pop\n        /* \"#utility.yul\":5725:5734   */\n      dup2\n        /* \"#utility.yul\":5719:5723   */\n      dup2\n        /* \"#utility.yul\":5715:5735   */\n      sub\n        /* \"#utility.yul\":5709:5712   */\n      0xa0\n        /* \"#utility.yul\":5698:5707   */\n      dup4\n        /* \"#utility.yul\":5694:5713   */\n      add\n        /* \"#utility.yul\":5687:5736   */\n      mstore\n        /* \"#utility.yul\":5753:5831   */\n      tag_276\n        /* \"#utility.yul\":5826:5830   */\n      dup2\n        /* \"#utility.yul\":5817:5823   */\n      dup5\n        /* \"#utility.yul\":5753:5831   */\n      tag_232\n      jump\t// in\n    tag_276:\n        /* \"#utility.yul\":5745:5831   */\n      swap1\n      pop\n        /* \"#utility.yul\":4885:5838   */\n      swap8\n      swap7\n      pop\n      pop\n      pop\n      pop\n      pop\n      pop\n      pop\n      jump\t// out\n        /* \"#utility.yul\":5844:6357   */\n    tag_37:\n        /* \"#utility.yul\":6003:6007   */\n      0x00\n        /* \"#utility.yul\":6041:6043   */\n      0x60\n        /* \"#utility.yul\":6030:6039   */\n      dup3\n        /* \"#utility.yul\":6026:6044   */\n      add\n        /* \"#utility.yul\":6018:6044   */\n      swap1\n      pop\n        /* \"#utility.yul\":6054:6119   */\n      tag_278\n        /* \"#utility.yul\":6116:6117   */\n      0x00\n        /* \"#utility.yul\":6105:6114   */\n      dup4\n        /* \"#utility.yul\":6101:6118   */\n      add\n        /* \"#utility.yul\":6092:6098   */\n      dup7\n        /* \"#utility.yul\":6054:6119   */\n      tag_224\n      jump\t// in\n    tag_278:\n        /* \"#utility.yul\":6166:6175   */\n      dup2\n        /* \"#utility.yul\":6160:6164   */\n      dup2\n        /* \"#utility.yul\":6156:6176   */\n      sub\n        /* \"#utility.yul\":6151:6153   */\n      0x20\n        /* \"#utility.yul\":6140:6149   */\n      dup4\n        /* \"#utility.yul\":6136:6154   */\n      add\n        /* \"#utility.yul\":6129:6177   */\n      mstore\n        /* \"#utility.yul\":6194:6272   */\n      tag_279\n        /* \"#utility.yul\":6267:6271   */\n      dup2\n        /* \"#utility.yul\":6258:6264   */\n      dup6\n        /* \"#utility.yul\":6194:6272   */\n      tag_232\n      jump\t// in\n    tag_279:\n        /* \"#utility.yul\":6186:6272   */\n      swap1\n      pop\n        /* \"#utility.yul\":6282:6350   */\n      tag_280\n        /* \"#utility.yul\":6346:6348   */\n      0x40\n        /* \"#utility.yul\":6335:6344   */\n      dup4\n        /* \"#utility.yul\":6331:6349   */\n      add\n        /* \"#utility.yul\":6322:6328   */\n      dup5\n        /* \"#utility.yul\":6282:6350   */\n      tag_264\n      jump\t// in\n    tag_280:\n        /* \"#utility.yul\":5844:6357   */\n      swap5\n      swap4\n      pop\n      pop\n      pop\n      pop\n      jump\t// out\n        /* \"#utility.yul\":6363:6987   */\n    tag_54:\n        /* \"#utility.yul\":6550:6554   */\n      0x00\n        /* \"#utility.yul\":6588:6591   */\n      0x80\n        /* \"#utility.yul\":6577:6586   */\n      dup3\n        /* \"#utility.yul\":6573:6592   */\n      add\n        /* \"#utility.yul\":6565:6592   */\n      swap1\n      pop\n        /* \"#utility.yul\":6602:6667   */\n      tag_282\n        /* \"#utility.yul\":6664:6665   */\n      0x00\n        /* \"#utility.yul\":6653:6662   */\n      dup4\n        /* \"#utility.yul\":6649:6666   */\n      add\n        /* \"#utility.yul\":6640:6646   */\n      dup8\n        /* \"#utility.yul\":6602:6667   */\n      tag_224\n      jump\t// in\n    tag_282:\n        /* \"#utility.yul\":6677:6745   */\n      tag_283\n        /* \"#utility.yul\":6741:6743   */\n      0x20\n        /* \"#utility.yul\":6730:6739   */\n      dup4\n        /* \"#utility.yul\":6726:6744   */\n      add\n        /* \"#utility.yul\":6717:6723   */\n      dup7\n        /* \"#utility.yul\":6677:6745   */\n      tag_264\n      jump\t// in\n    tag_283:\n        /* \"#utility.yul\":6755:6827   */\n      tag_284\n        /* \"#utility.yul\":6823:6825   */\n      0x40\n        /* \"#utility.yul\":6812:6821   */\n      dup4\n        /* \"#utility.yul\":6808:6826   */\n      add\n        /* \"#utility.yul\":6799:6805   */\n      dup6\n        /* \"#utility.yul\":6755:6827   */\n      tag_256\n      jump\t// in\n    tag_284:\n        /* \"#utility.yul\":6874:6883   */\n      dup2\n        /* \"#utility.yul\":6868:6872   */\n      dup2\n        /* \"#utility.yul\":6864:6884   */\n      sub\n        /* \"#utility.yul\":6859:6861   */\n      0x60\n        /* \"#utility.yul\":6848:6857   */\n      dup4\n        /* \"#utility.yul\":6844:6862   */\n      add\n        /* \"#utility.yul\":6837:6885   */\n      mstore\n        /* \"#utility.yul\":6902:6980   */\n      tag_285\n        /* \"#utility.yul\":6975:6979   */\n      dup2\n        /* \"#utility.yul\":6966:6972   */\n      dup5\n        /* \"#utility.yul\":6902:6980   */\n      tag_232\n      jump\t// in\n    tag_285:\n        /* \"#utility.yul\":6894:6980   */\n      swap1\n      pop\n        /* \"#utility.yul\":6363:6987   */\n      swap6\n      swap5\n      pop\n      pop\n      pop\n      pop\n      pop\n      jump\t// out\n        /* \"#utility.yul\":6993:7412   */\n    tag_101:\n        /* \"#utility.yul\":7159:7163   */\n      0x00\n        /* \"#utility.yul\":7197:7199   */\n      0x20\n        /* \"#utility.yul\":7186:7195   */\n      dup3\n        /* \"#utility.yul\":7182:7200   */\n      add\n        /* \"#utility.yul\":7174:7200   */\n      swap1\n      pop\n        /* \"#utility.yul\":7246:7255   */\n      dup2\n        /* \"#utility.yul\":7240:7244   */\n      dup2\n        /* \"#utility.yul\":7236:7256   */\n      sub\n        /* \"#utility.yul\":7232:7233   */\n      0x00\n        /* \"#utility.yul\":7221:7230   */\n      dup4\n        /* \"#utility.yul\":7217:7234   */\n      add\n        /* \"#utility.yul\":7210:7257   */\n      mstore\n        /* \"#utility.yul\":7274:7405   */\n      tag_287\n        /* \"#utility.yul\":7400:7404   */\n      dup2\n        /* \"#utility.yul\":7274:7405   */\n      tag_242\n      jump\t// in\n    tag_287:\n        /* \"#utility.yul\":7266:7405   */\n      swap1\n      pop\n        /* \"#utility.yul\":6993:7412   */\n      swap2\n      swap1\n      pop\n      jump\t// out\n        /* \"#utility.yul\":7418:7837   */\n    tag_106:\n        /* \"#utility.yul\":7584:7588   */\n      0x00\n        /* \"#utility.yul\":7622:7624   */\n      0x20\n        /* \"#utility.yul\":7611:7620   */\n      dup3\n        /* \"#utility.yul\":7607:7625   */\n      add\n        /* \"#utility.yul\":7599:7625   */\n      swap1\n      pop\n        /* \"#utility.yul\":7671:7680   */\n      dup2\n        /* \"#utility.yul\":7665:7669   */\n      dup2\n        /* \"#utility.yul\":7661:7681   */\n      sub\n        /* \"#utility.yul\":7657:7658   */\n      0x00\n        /* \"#utility.yul\":7646:7655   */\n      dup4\n        /* \"#utility.yul\":7642:7659   */\n      add\n        /* \"#utility.yul\":7635:7682   */\n      mstore\n        /* \"#utility.yul\":7699:7830   */\n      tag_289\n        /* \"#utility.yul\":7825:7829   */\n      dup2\n        /* \"#utility.yul\":7699:7830   */\n      tag_247\n      jump\t// in\n    tag_289:\n        /* \"#utility.yul\":7691:7830   */\n      swap1\n      pop\n        /* \"#utility.yul\":7418:7837   */\n      swap2\n      swap1\n      pop\n      jump\t// out\n        /* \"#utility.yul\":7843:8262   */\n    tag_76:\n        /* \"#utility.yul\":7982:7986   */\n      0x00\n        /* \"#utility.yul\":8020:8022   */\n      0x40\n        /* \"#utility.yul\":8009:8018   */\n      dup3\n        /* \"#utility.yul\":8005:8023   */\n      add\n        /* \"#utility.yul\":7997:8023   */\n      swap1\n      pop\n        /* \"#utility.yul\":8033:8102   */\n      tag_291\n        /* \"#utility.yul\":8099:8100   */\n      0x00\n        /* \"#utility.yul\":8088:8097   */\n      dup4\n        /* \"#utility.yul\":8084:8101   */\n      add\n        /* \"#utility.yul\":8075:8081   */\n      dup6\n        /* \"#utility.yul\":8033:8102   */\n      tag_260\n      jump\t// in\n    tag_291:\n        /* \"#utility.yul\":8149:8158   */\n      dup2\n        /* \"#utility.yul\":8143:8147   */\n      dup2\n        /* \"#utility.yul\":8139:8159   */\n      sub\n        /* \"#utility.yul\":8134:8136   */\n      0x20\n        /* \"#utility.yul\":8123:8132   */\n      dup4\n        /* \"#utility.yul\":8119:8137   */\n      add\n        /* \"#utility.yul\":8112:8160   */\n      mstore\n        /* \"#utility.yul\":8177:8255   */\n      tag_292\n        /* \"#utility.yul\":8250:8254   */\n      dup2\n        /* \"#utility.yul\":8241:8247   */\n      dup5\n        /* \"#utility.yul\":8177:8255   */\n      tag_232\n      jump\t// in\n    tag_292:\n        /* \"#utility.yul\":8169:8255   */\n      swap1\n      pop\n        /* \"#utility.yul\":7843:8262   */\n      swap4\n      swap3\n      pop\n      pop\n      pop\n      jump\t// out\n        /* \"#utility.yul\":8268:8397   */\n    tag_178:\n        /* \"#utility.yul\":8302:8308   */\n      0x00\n        /* \"#utility.yul\":8329:8349   */\n      tag_294\n      tag_295\n      jump\t// in\n    tag_294:\n        /* \"#utility.yul\":8319:8349   */\n      swap1\n      pop\n        /* \"#utility.yul\":8358:8391   */\n      tag_296\n        /* \"#utility.yul\":8386:8390   */\n      dup3\n        /* \"#utility.yul\":8378:8384   */\n      dup3\n        /* \"#utility.yul\":8358:8391   */\n      tag_297\n      jump\t// in\n    tag_296:\n        /* \"#utility.yul\":8268:8397   */\n      swap2\n      swap1\n      pop\n      jump\t// out\n        /* \"#utility.yul\":8403:8478   */\n    tag_295:\n        /* \"#utility.yul\":8436:8442   */\n      0x00\n        /* \"#utility.yul\":8469:8471   */\n      0x40\n        /* \"#utility.yul\":8463:8472   */\n      mload\n        /* \"#utility.yul\":8453:8472   */\n      swap1\n      pop\n        /* \"#utility.yul\":8403:8478   */\n      swap1\n      jump\t// out\n        /* \"#utility.yul\":8484:8792   */\n    tag_177:\n        /* \"#utility.yul\":8546:8550   */\n      0x00\n        /* \"#utility.yul\":8636:8654   */\n      0xffffffffffffffff\n        /* \"#utility.yul\":8628:8634   */\n      dup3\n        /* \"#utility.yul\":8625:8655   */\n      gt\n        /* \"#utility.yul\":8622:8678   */\n      iszero\n      tag_300\n      jumpi\n        /* \"#utility.yul\":8658:8676   */\n      tag_301\n      tag_302\n      jump\t// in\n    tag_301:\n        /* \"#utility.yul\":8622:8678   */\n    tag_300:\n        /* \"#utility.yul\":8696:8725   */\n      tag_303\n        /* \"#utility.yul\":8718:8724   */\n      dup3\n        /* \"#utility.yul\":8696:8725   */\n      tag_241\n      jump\t// in\n    tag_303:\n        /* \"#utility.yul\":8688:8725   */\n      swap1\n      pop\n        /* \"#utility.yul\":8780:8784   */\n      0x20\n        /* \"#utility.yul\":8774:8778   */\n      dup2\n        /* \"#utility.yul\":8770:8785   */\n      add\n        /* \"#utility.yul\":8762:8785   */\n      swap1\n      pop\n        /* \"#utility.yul\":8484:8792   */\n      swap2\n      swap1\n      pop\n      jump\t// out\n        /* \"#utility.yul\":8798:8897   */\n    tag_235:\n        /* \"#utility.yul\":8850:8856   */\n      0x00\n        /* \"#utility.yul\":8884:8889   */\n      dup2\n        /* \"#utility.yul\":8878:8890   */\n      mload\n        /* \"#utility.yul\":8868:8890   */\n      swap1\n      pop\n        /* \"#utility.yul\":8798:8897   */\n      swap2\n      swap1\n      pop\n      jump\t// out\n        /* \"#utility.yul\":8903:9072   */\n    tag_237:\n        /* \"#utility.yul\":8987:8998   */\n      0x00\n        /* \"#utility.yul\":9021:9027   */\n      dup3\n        /* \"#utility.yul\":9016:9019   */\n      dup3\n        /* \"#utility.yul\":9009:9028   */\n      mstore\n        /* \"#utility.yul\":9061:9065   */\n      0x20\n        /* \"#utility.yul\":9056:9059   */\n      dup3\n        /* \"#utility.yul\":9052:9066   */\n      add\n        /* \"#utility.yul\":9037:9066   */\n      swap1\n      pop\n        /* \"#utility.yul\":8903:9072   */\n      swap3\n      swap2\n      pop\n      pop\n      jump\t// out\n        /* \"#utility.yul\":9078:9174   */\n    tag_223:\n        /* \"#utility.yul\":9115:9122   */\n      0x00\n        /* \"#utility.yul\":9144:9168   */\n      tag_307\n        /* \"#utility.yul\":9162:9167   */\n      dup3\n        /* \"#utility.yul\":9144:9168   */\n      tag_308\n      jump\t// in\n    tag_307:\n        /* \"#utility.yul\":9133:9168   */\n      swap1\n      pop\n        /* \"#utility.yul\":9078:9174   */\n      swap2\n      swap1\n      pop\n      jump\t// out\n        /* \"#utility.yul\":9180:9270   */\n    tag_227:\n        /* \"#utility.yul\":9214:9221   */\n      0x00\n        /* \"#utility.yul\":9257:9262   */\n      dup2\n        /* \"#utility.yul\":9250:9263   */\n      iszero\n        /* \"#utility.yul\":9243:9264   */\n      iszero\n        /* \"#utility.yul\":9232:9264   */\n      swap1\n      pop\n        /* \"#utility.yul\":9180:9270   */\n      swap2\n      swap1\n      pop\n      jump\t// out\n        /* \"#utility.yul\":9276:9403   */\n    tag_310:\n        /* \"#utility.yul\":9321:9328   */\n      0x00\n        /* \"#utility.yul\":9350:9355   */\n      dup2\n        /* \"#utility.yul\":9339:9355   */\n      swap1\n      pop\n        /* \"#utility.yul\":9356:9397   */\n      tag_312\n        /* \"#utility.yul\":9391:9396   */\n      dup3\n        /* \"#utility.yul\":9356:9397   */\n      tag_313\n      jump\t// in\n    tag_312:\n        /* \"#utility.yul\":9276:9403   */\n      swap2\n      swap1\n      pop\n      jump\t// out\n        /* \"#utility.yul\":9409:9498   */\n    tag_255:\n        /* \"#utility.yul\":9445:9452   */\n      0x00\n        /* \"#utility.yul\":9485:9491   */\n      0xffff\n        /* \"#utility.yul\":9478:9483   */\n      dup3\n        /* \"#utility.yul\":9474:9492   */\n      and\n        /* \"#utility.yul\":9463:9492   */\n      swap1\n      pop\n        /* \"#utility.yul\":9409:9498   */\n      swap2\n      swap1\n      pop\n      jump\t// out\n        /* \"#utility.yul\":9504:9630   */\n    tag_308:\n        /* \"#utility.yul\":9541:9548   */\n      0x00\n        /* \"#utility.yul\":9581:9623   */\n      0xffffffffffffffffffffffffffffffffffffffff\n        /* \"#utility.yul\":9574:9579   */\n      dup3\n        /* \"#utility.yul\":9570:9624   */\n      and\n        /* \"#utility.yul\":9559:9624   */\n      swap1\n      pop\n        /* \"#utility.yul\":9504:9630   */\n      swap2\n      swap1\n      pop\n      jump\t// out\n        /* \"#utility.yul\":9636:9713   */\n    tag_259:\n        /* \"#utility.yul\":9673:9680   */\n      0x00\n        /* \"#utility.yul\":9702:9707   */\n      dup2\n        /* \"#utility.yul\":9691:9707   */\n      swap1\n      pop\n        /* \"#utility.yul\":9636:9713   */\n      swap2\n      swap1\n      pop\n      jump\t// out\n        /* \"#utility.yul\":9719:9812   */\n    tag_263:\n        /* \"#utility.yul\":9755:9762   */\n      0x00\n        /* \"#utility.yul\":9795:9805   */\n      0xffffffff\n        /* \"#utility.yul\":9788:9793   */\n      dup3\n        /* \"#utility.yul\":9784:9806   */\n      and\n        /* \"#utility.yul\":9773:9806   */\n      swap1\n      pop\n        /* \"#utility.yul\":9719:9812   */\n      swap2\n      swap1\n      pop\n      jump\t// out\n        /* \"#utility.yul\":9818:9904   */\n    tag_267:\n        /* \"#utility.yul\":9853:9860   */\n      0x00\n        /* \"#utility.yul\":9893:9897   */\n      0xff\n        /* \"#utility.yul\":9886:9891   */\n      dup3\n        /* \"#utility.yul\":9882:9898   */\n      and\n        /* \"#utility.yul\":9871:9898   */\n      swap1\n      pop\n        /* \"#utility.yul\":9818:9904   */\n      swap2\n      swap1\n      pop\n      jump\t// out\n        /* \"#utility.yul\":9910:10037   */\n    tag_231:\n        /* \"#utility.yul\":9966:9975   */\n      0x00\n        /* \"#utility.yul\":9999:10031   */\n      tag_320\n        /* \"#utility.yul\":10025:10030   */\n      dup3\n        /* \"#utility.yul\":9999:10031   */\n      tag_310\n      jump\t// in\n    tag_320:\n        /* \"#utility.yul\":9986:10031   */\n      swap1\n      pop\n        /* \"#utility.yul\":9910:10037   */\n      swap2\n      swap1\n      pop\n      jump\t// out\n        /* \"#utility.yul\":10043:10197   */\n    tag_183:\n        /* \"#utility.yul\":10127:10133   */\n      dup3\n        /* \"#utility.yul\":10122:10125   */\n      dup2\n        /* \"#utility.yul\":10117:10120   */\n      dup4\n        /* \"#utility.yul\":10104:10134   */\n      calldatacopy\n        /* \"#utility.yul\":10189:10190   */\n      0x00\n        /* \"#utility.yul\":10180:10186   */\n      dup4\n        /* \"#utility.yul\":10175:10178   */\n      dup4\n        /* \"#utility.yul\":10171:10187   */\n      add\n        /* \"#utility.yul\":10164:10191   */\n      mstore\n        /* \"#utility.yul\":10043:10197   */\n      pop\n      pop\n      pop\n      jump\t// out\n        /* \"#utility.yul\":10203:10510   */\n    tag_239:\n        /* \"#utility.yul\":10271:10272   */\n      0x00\n        /* \"#utility.yul\":10281:10394   */\n    tag_323:\n        /* \"#utility.yul\":10295:10301   */\n      dup4\n        /* \"#utility.yul\":10292:10293   */\n      dup2\n        /* \"#utility.yul\":10289:10302   */\n      lt\n        /* \"#utility.yul\":10281:10394   */\n      iszero\n      tag_325\n      jumpi\n        /* \"#utility.yul\":10380:10381   */\n      dup1\n        /* \"#utility.yul\":10375:10378   */\n      dup3\n        /* \"#utility.yul\":10371:10382   */\n      add\n        /* \"#utility.yul\":10365:10383   */\n      mload\n        /* \"#utility.yul\":10361:10362   */\n      dup2\n        /* \"#utility.yul\":10356:10359   */\n      dup5\n        /* \"#utility.yul\":10352:10363   */\n      add\n        /* \"#utility.yul\":10345:10384   */\n      mstore\n        /* \"#utility.yul\":10317:10319   */\n      0x20\n        /* \"#utility.yul\":10314:10315   */\n      dup2\n        /* \"#utility.yul\":10310:10320   */\n      add\n        /* \"#utility.yul\":10305:10320   */\n      swap1\n      pop\n        /* \"#utility.yul\":10281:10394   */\n      jump(tag_323)\n    tag_325:\n        /* \"#utility.yul\":10412:10418   */\n      dup4\n        /* \"#utility.yul\":10409:10410   */\n      dup2\n        /* \"#utility.yul\":10406:10419   */\n      gt\n        /* \"#utility.yul\":10403:10504   */\n      iszero\n      tag_326\n      jumpi\n        /* \"#utility.yul\":10492:10493   */\n      0x00\n        /* \"#utility.yul\":10483:10489   */\n      dup5\n        /* \"#utility.yul\":10478:10481   */\n      dup5\n        /* \"#utility.yul\":10474:10490   */\n      add\n        /* \"#utility.yul\":10467:10494   */\n      mstore\n        /* \"#utility.yul\":10403:10504   */\n    tag_326:\n        /* \"#utility.yul\":10252:10510   */\n      pop\n        /* \"#utility.yul\":10203:10510   */\n      pop\n      pop\n      pop\n      jump\t// out\n        /* \"#utility.yul\":10516:10836   */\n    tag_111:\n        /* \"#utility.yul\":10560:10566   */\n      0x00\n        /* \"#utility.yul\":10597:10598   */\n      0x02\n        /* \"#utility.yul\":10591:10595   */\n      dup3\n        /* \"#utility.yul\":10587:10599   */\n      div\n        /* \"#utility.yul\":10577:10599   */\n      swap1\n      pop\n        /* \"#utility.yul\":10644:10645   */\n      0x01\n        /* \"#utility.yul\":10638:10642   */\n      dup3\n        /* \"#utility.yul\":10634:10646   */\n      and\n        /* \"#utility.yul\":10665:10683   */\n      dup1\n        /* \"#utility.yul\":10655:10736   */\n      tag_328\n      jumpi\n        /* \"#utility.yul\":10721:10725   */\n      0x7f\n        /* \"#utility.yul\":10713:10719   */\n      dup3\n        /* \"#utility.yul\":10709:10726   */\n      and\n        /* \"#utility.yul\":10699:10726   */\n      swap2\n      pop\n        /* \"#utility.yul\":10655:10736   */\n    tag_328:\n        /* \"#utility.yul\":10783:10785   */\n      0x20\n        /* \"#utility.yul\":10775:10781   */\n      dup3\n        /* \"#utility.yul\":10772:10786   */\n      lt\n        /* \"#utility.yul\":10752:10770   */\n      dup2\n        /* \"#utility.yul\":10749:10787   */\n      eq\n        /* \"#utility.yul\":10746:10830   */\n      iszero\n      tag_329\n      jumpi\n        /* \"#utility.yul\":10802:10820   */\n      tag_330\n      tag_331\n      jump\t// in\n    tag_330:\n        /* \"#utility.yul\":10746:10830   */\n    tag_329:\n        /* \"#utility.yul\":10567:10836   */\n      pop\n        /* \"#utility.yul\":10516:10836   */\n      swap2\n      swap1\n      pop\n      jump\t// out\n        /* \"#utility.yul\":10842:11123   */\n    tag_297:\n        /* \"#utility.yul\":10925:10952   */\n      tag_333\n        /* \"#utility.yul\":10947:10951   */\n      dup3\n        /* \"#utility.yul\":10925:10952   */\n      tag_241\n      jump\t// in\n    tag_333:\n        /* \"#utility.yul\":10917:10923   */\n      dup2\n        /* \"#utility.yul\":10913:10953   */\n      add\n        /* \"#utility.yul\":11055:11061   */\n      dup2\n        /* \"#utility.yul\":11043:11053   */\n      dup2\n        /* \"#utility.yul\":11040:11062   */\n      lt\n        /* \"#utility.yul\":11019:11037   */\n      0xffffffffffffffff\n        /* \"#utility.yul\":11007:11017   */\n      dup3\n        /* \"#utility.yul\":11004:11038   */\n      gt\n        /* \"#utility.yul\":11001:11063   */\n      or\n        /* \"#utility.yul\":10998:11086   */\n      iszero\n      tag_334\n      jumpi\n        /* \"#utility.yul\":11066:11084   */\n      tag_335\n      tag_302\n      jump\t// in\n    tag_335:\n        /* \"#utility.yul\":10998:11086   */\n    tag_334:\n        /* \"#utility.yul\":11106:11116   */\n      dup1\n        /* \"#utility.yul\":11102:11104   */\n      0x40\n        /* \"#utility.yul\":11095:11117   */\n      mstore\n        /* \"#utility.yul\":10885:11123   */\n      pop\n        /* \"#utility.yul\":10842:11123   */\n      pop\n      pop\n      jump\t// out\n        /* \"#utility.yul\":11129:11309   */\n    tag_336:\n        /* \"#utility.yul\":11177:11254   */\n      0x4e487b7100000000000000000000000000000000000000000000000000000000\n        /* \"#utility.yul\":11174:11175   */\n      0x00\n        /* \"#utility.yul\":11167:11255   */\n      mstore\n        /* \"#utility.yul\":11274:11278   */\n      0x21\n        /* \"#utility.yul\":11271:11272   */\n      0x04\n        /* \"#utility.yul\":11264:11279   */\n      mstore\n        /* \"#utility.yul\":11298:11302   */\n      0x24\n        /* \"#utility.yul\":11295:11296   */\n      0x00\n        /* \"#utility.yul\":11288:11303   */\n      revert\n        /* \"#utility.yul\":11315:11495   */\n    tag_331:\n        /* \"#utility.yul\":11363:11440   */\n      0x4e487b7100000000000000000000000000000000000000000000000000000000\n        /* \"#utility.yul\":11360:11361   */\n      0x00\n        /* \"#utility.yul\":11353:11441   */\n      mstore\n        /* \"#utility.yul\":11460:11464   */\n      0x22\n        /* \"#utility.yul\":11457:11458   */\n      0x04\n        /* \"#utility.yul\":11450:11465   */\n      mstore\n        /* \"#utility.yul\":11484:11488   */\n      0x24\n        /* \"#utility.yul\":11481:11482   */\n      0x00\n        /* \"#utility.yul\":11474:11489   */\n      revert\n        /* \"#utility.yul\":11501:11681   */\n    tag_302:\n        /* \"#utility.yul\":11549:11626   */\n      0x4e487b7100000000000000000000000000000000000000000000000000000000\n        /* \"#utility.yul\":11546:11547   */\n      0x00\n        /* \"#utility.yul\":11539:11627   */\n      mstore\n        /* \"#utility.yul\":11646:11650   */\n      0x41\n        /* \"#utility.yul\":11643:11644   */\n      0x04\n        /* \"#utility.yul\":11636:11651   */\n      mstore\n        /* \"#utility.yul\":11670:11674   */\n      0x24\n        /* \"#utility.yul\":11667:11668   */\n      0x00\n        /* \"#utility.yul\":11660:11675   */\n      revert\n        /* \"#utility.yul\":11687:11804   */\n    tag_192:\n        /* \"#utility.yul\":11796:11797   */\n      0x00\n        /* \"#utility.yul\":11793:11794   */\n      dup1\n        /* \"#utility.yul\":11786:11798   */\n      revert\n        /* \"#utility.yul\":11810:11927   */\n    tag_181:\n        /* \"#utility.yul\":11919:11920   */\n      0x00\n        /* \"#utility.yul\":11916:11917   */\n      dup1\n        /* \"#utility.yul\":11909:11921   */\n      revert\n        /* \"#utility.yul\":11933:12050   */\n    tag_213:\n        /* \"#utility.yul\":12042:12043   */\n      0x00\n        /* \"#utility.yul\":12039:12040   */\n      dup1\n        /* \"#utility.yul\":12032:12044   */\n      revert\n        /* \"#utility.yul\":12056:12173   */\n    tag_205:\n        /* \"#utility.yul\":12165:12166   */\n      0x00\n        /* \"#utility.yul\":12162:12163   */\n      dup1\n        /* \"#utility.yul\":12155:12167   */\n      revert\n        /* \"#utility.yul\":12179:12281   */\n    tag_241:\n        /* \"#utility.yul\":12220:12226   */\n      0x00\n        /* \"#utility.yul\":12271:12273   */\n      0x1f\n        /* \"#utility.yul\":12267:12274   */\n      not\n        /* \"#utility.yul\":12262:12264   */\n      0x1f\n        /* \"#utility.yul\":12255:12260   */\n      dup4\n        /* \"#utility.yul\":12251:12265   */\n      add\n        /* \"#utility.yul\":12247:12275   */\n      and\n        /* \"#utility.yul\":12237:12275   */\n      swap1\n      pop\n        /* \"#utility.yul\":12179:12281   */\n      swap2\n      swap1\n      pop\n      jump\t// out\n        /* \"#utility.yul\":12287:12468   */\n    tag_246:\n        /* \"#utility.yul\":12427:12460   */\n      0x53616465636520594f4b2062752069736c656d69207961706162696c69722e00\n        /* \"#utility.yul\":12423:12424   */\n      0x00\n        /* \"#utility.yul\":12415:12421   */\n      dup3\n        /* \"#utility.yul\":12411:12425   */\n      add\n        /* \"#utility.yul\":12404:12461   */\n      mstore\n        /* \"#utility.yul\":12287:12468   */\n      pop\n      jump\t// out\n        /* \"#utility.yul\":12474:12647   */\n    tag_251:\n        /* \"#utility.yul\":12614:12639   */\n      0x556e6976657273697465205a6174656e204d6576637574000000000000000000\n        /* \"#utility.yul\":12610:12611   */\n      0x00\n        /* \"#utility.yul\":12602:12608   */\n      dup3\n        /* \"#utility.yul\":12598:12612   */\n      add\n        /* \"#utility.yul\":12591:12640   */\n      mstore\n        /* \"#utility.yul\":12474:12647   */\n      pop\n      jump\t// out\n        /* \"#utility.yul\":12653:12766   */\n    tag_313:\n        /* \"#utility.yul\":12734:12735   */\n      0x04\n        /* \"#utility.yul\":12727:12732   */\n      dup2\n        /* \"#utility.yul\":12724:12736   */\n      lt\n        /* \"#utility.yul\":12714:12760   */\n      tag_348\n      jumpi\n        /* \"#utility.yul\":12740:12758   */\n      tag_349\n      tag_336\n      jump\t// in\n    tag_349:\n        /* \"#utility.yul\":12714:12760   */\n    tag_348:\n        /* \"#utility.yul\":12653:12766   */\n      pop\n      jump\t// out\n        /* \"#utility.yul\":12772:12894   */\n    tag_187:\n        /* \"#utility.yul\":12845:12869   */\n      tag_351\n        /* \"#utility.yul\":12863:12868   */\n      dup2\n        /* \"#utility.yul\":12845:12869   */\n      tag_223\n      jump\t// in\n    tag_351:\n        /* \"#utility.yul\":12838:12843   */\n      dup2\n        /* \"#utility.yul\":12835:12870   */\n      eq\n        /* \"#utility.yul\":12825:12888   */\n      tag_352\n      jumpi\n        /* \"#utility.yul\":12884:12885   */\n      0x00\n        /* \"#utility.yul\":12881:12882   */\n      dup1\n        /* \"#utility.yul\":12874:12886   */\n      revert\n        /* \"#utility.yul\":12825:12888   */\n    tag_352:\n        /* \"#utility.yul\":12772:12894   */\n      pop\n      jump\t// out\n        /* \"#utility.yul\":12900:13020   */\n    tag_197:\n        /* \"#utility.yul\":12972:12995   */\n      tag_354\n        /* \"#utility.yul\":12989:12994   */\n      dup2\n        /* \"#utility.yul\":12972:12995   */\n      tag_263\n      jump\t// in\n    tag_354:\n        /* \"#utility.yul\":12965:12970   */\n      dup2\n        /* \"#utility.yul\":12962:12996   */\n      eq\n        /* \"#utility.yul\":12952:13014   */\n      tag_355\n      jumpi\n        /* \"#utility.yul\":13010:13011   */\n      0x00\n        /* \"#utility.yul\":13007:13008   */\n      dup1\n        /* \"#utility.yul\":13000:13012   */\n      revert\n        /* \"#utility.yul\":12952:13014   */\n    tag_355:\n        /* \"#utility.yul\":12900:13020   */\n      pop\n      jump\t// out\n        /* \"#utility.yul\":13026:13144   */\n    tag_201:\n        /* \"#utility.yul\":13097:13119   */\n      tag_357\n        /* \"#utility.yul\":13113:13118   */\n      dup2\n        /* \"#utility.yul\":13097:13119   */\n      tag_267\n      jump\t// in\n    tag_357:\n        /* \"#utility.yul\":13090:13095   */\n      dup2\n        /* \"#utility.yul\":13087:13120   */\n      eq\n        /* \"#utility.yul\":13077:13138   */\n      tag_358\n      jumpi\n        /* \"#utility.yul\":13134:13135   */\n      0x00\n        /* \"#utility.yul\":13131:13132   */\n      dup1\n        /* \"#utility.yul\":13124:13136   */\n      revert\n        /* \"#utility.yul\":13077:13138   */\n    tag_358:\n        /* \"#utility.yul\":13026:13144   */\n      pop\n      jump\t// out\n\n    auxdata: 0xa26469706673582212202a5a7720829d05379f810e0b468a84a312b283c371b354ab20e5dc73857dde1464736f6c63430008070033\n}\n",
				"bytecode": {
					"linkReferences": {},
					"object": "608060405234801561001057600080fd5b506117a8806100206000396000f3fe608060405234801561001057600080fd5b506004361061010a5760003560e01c80637d0fa287116100a2578063b98ccefd11610071578063b98ccefd14610349578063ba479b7e14610379578063cbc92809146103ae578063e24047ca146103de578063f0040eb91461040e5761010a565b80637d0fa287146102845780638c848885146102b65780639a8c9119146102e6578063a4e7ae05146103185761010a565b80632d087d70116100de5780632d087d70146101bf578063356b1f1e146101ef57806339987f9414610221578063514e03c7146102545761010a565b80621d54ab1461010f578063024eb6bc1461012b5780631916e1391461015b578063282666971461018d575b600080fd5b6101296004803603810190610124919061115e565b61043e565b005b61014560048036038101906101409190611131565b610627565b60405161015291906112e2565b60405180910390f35b61017560048036038101906101709190611131565b610680565b6040516101849392919061136c565b60405180910390f35b6101a760048036038101906101a29190611131565b61074c565b6040516101b69392919061136c565b60405180910390f35b6101d960048036038101906101d49190611131565b610818565b6040516101e691906112e2565b60405180910390f35b61020960048036038101906102049190611131565b610871565b6040516102189392919061136c565b60405180910390f35b61023b60048036038101906102369190611131565b61093d565b60405161024b94939291906113aa565b60405180910390f35b61026e60048036038101906102699190611131565b610a0f565b60405161027b91906112e2565b60405180910390f35b61029e60048036038101906102999190611131565b610a68565b6040516102ad9392919061136c565b60405180910390f35b6102d060048036038101906102cb9190611131565b610b34565b6040516102dd91906112e2565b60405180910390f35b61030060048036038101906102fb9190611131565b610b8d565b60405161030f9392919061136c565b60405180910390f35b610332600480360381019061032d91906111cd565b610c59565b604051610340929190611436565b60405180910390f35b610363600480360381019061035e9190611131565b610d15565b60405161037091906112e2565b60405180910390f35b610393600480360381019061038e9190611131565b610d6e565b6040516103a5969594939291906112fd565b60405180910390f35b6103c860048036038101906103c39190611131565b610f02565b6040516103d591906112e2565b60405180910390f35b6103f860048036038101906103f39190611131565b610f2d565b60405161040591906112e2565b60405180910390f35b61042860048036038101906104239190611131565b610f86565b60405161043591906112e2565b60405180910390f35b60008054906101000a900473ffffffffffffffffffffffffffffffffffffffff1673ffffffffffffffffffffffffffffffffffffffff163373ffffffffffffffffffffffffffffffffffffffff16146104cc576040517f08c379a00000000000000000000000000000000000000000000000000000000081526004016104c3906113f6565b60405180910390fd5b6104d583610f86565b15610515576040517f08c379a000000000000000000000000000000000000000000000000000000000815260040161050c90611416565b60405180910390fd5b6001600460008573ffffffffffffffffffffffffffffffffffffffff1673ffffffffffffffffffffffffffffffffffffffff16815260200190815260200160002060000160006101000a81548160ff02191690831515021790555081600460008573ffffffffffffffffffffffffffffffffffffffff1673ffffffffffffffffffffffffffffffffffffffff16815260200190815260200160002060010190805190602001906105c6929190610fdf565b5080600460008573ffffffffffffffffffffffffffffffffffffffff1673ffffffffffffffffffffffffffffffffffffffff16815260200190815260200160002060020160006101000a81548160ff021916908360ff160217905550505050565b6000600760008373ffffffffffffffffffffffffffffffffffffffff1673ffffffffffffffffffffffffffffffffffffffff16815260200190815260200160002060000160009054906101000a900460ff169050919050565b60076020528060005260406000206000915090508060000160009054906101000a900460ff16908060010180546106b6906115b2565b80601f01602080910402602001604051908101604052809291908181526020018280546106e2906115b2565b801561072f5780601f106107045761010080835404028352916020019161072f565b820191906000526020600020905b81548152906001019060200180831161071257829003601f168201915b5050505050908060020160009054906101000a900460ff16905083565b60046020528060005260406000206000915090508060000160009054906101000a900460ff1690806001018054610782906115b2565b80601f01602080910402602001604051908101604052809291908181526020018280546107ae906115b2565b80156107fb5780601f106107d0576101008083540402835291602001916107fb565b820191906000526020600020905b8154815290600101906020018083116107de57829003601f168201915b5050505050908060020160009054906101000a900460ff16905083565b6000600660008373ffffffffffffffffffffffffffffffffffffffff1673ffffffffffffffffffffffffffffffffffffffff16815260200190815260200160002060000160009054906101000a900460ff169050919050565b600a6020528060005260406000206000915090508060000160009054906101000a900460ff16908060010180546108a7906115b2565b80601f01602080910402602001604051908101604052809291908181526020018280546108d3906115b2565b80156109205780601f106108f557610100808354040283529160200191610920565b820191906000526020600020905b81548152906001019060200180831161090357829003601f168201915b5050505050908060020160009054906101000a900460ff16905083565b60066020528060005260406000206000915090508060000160009054906101000a900460ff16908060000160019054906101000a900460ff169080600101549080600201805461098c906115b2565b80601f01602080910402602001604051908101604052809291908181526020018280546109b8906115b2565b8015610a055780601f106109da57610100808354040283529160200191610a05565b820191906000526020600020905b8154815290600101906020018083116109e857829003601f168201915b5050505050905084565b6000600860008373ffffffffffffffffffffffffffffffffffffffff1673ffffffffffffffffffffffffffffffffffffffff16815260200190815260200160002060000160009054906101000a900460ff169050919050565b60086020528060005260406000206000915090508060000160009054906101000a900460ff1690806001018054610a9e906115b2565b80601f0160208091040260200160405190810160405280929190818152602001828054610aca906115b2565b8015610b175780601f10610aec57610100808354040283529160200191610b17565b820191906000526020600020905b815481529060010190602001808311610afa57829003601f168201915b5050505050908060020160009054906101000a900460ff16905083565b6000600960008373ffffffffffffffffffffffffffffffffffffffff1673ffffffffffffffffffffffffffffffffffffffff16815260200190815260200160002060000160009054906101000a900460ff169050919050565b60096020528060005260406000206000915090508060000160009054906101000a900460ff1690806001018054610bc3906115b2565b80601f0160208091040260200160405190810160405280929190818152602001828054610bef906115b2565b8015610c3c5780601f10610c1157610100808354040283529160200191610c3c565b820191906000526020600020905b815481529060010190602001808311610c1f57829003601f168201915b5050505050908060020160009054906101000a900460ff16905083565b600b6020528060005260406000206000915090508060000160009054906101000a900463ffffffff1690806001018054610c92906115b2565b80601f0160208091040260200160405190810160405280929190818152602001828054610cbe906115b2565b8015610d0b5780601f10610ce057610100808354040283529160200191610d0b565b820191906000526020600020905b815481529060010190602001808311610cee57829003601f168201915b5050505050905082565b6000600360008373ffffffffffffffffffffffffffffffffffffffff1673ffffffffffffffffffffffffffffffffffffffff16815260200190815260200160002060000160009054906101000a900460ff169050919050565b60056020528060005260406000206000915090508060000160009054906101000a900460ff16908060000160019054906101000a900473ffffffffffffffffffffffffffffffffffffffff16908060000160159054906101000a900461ffff16908060000160179054906101000a900460ff1690806001018054610df1906115b2565b80601f0160208091040260200160405190810160405280929190818152602001828054610e1d906115b2565b8015610e6a5780601f10610e3f57610100808354040283529160200191610e6a565b820191906000526020600020905b815481529060010190602001808311610e4d57829003601f168201915b505050505090806002018054610e7f906115b2565b80601f0160208091040260200160405190810160405280929190818152602001828054610eab906115b2565b8015610ef85780601f10610ecd57610100808354040283529160200191610ef8565b820191906000526020600020905b815481529060010190602001808311610edb57829003601f168201915b5050505050905086565b60036020528060005260406000206000915090508060000160009054906101000a900460ff16905081565b6000600a60008373ffffffffffffffffffffffffffffffffffffffff1673ffffffffffffffffffffffffffffffffffffffff16815260200190815260200160002060000160009054906101000a900460ff169050919050565b6000600460008373ffffffffffffffffffffffffffffffffffffffff1673ffffffffffffffffffffffffffffffffffffffff16815260200190815260200160002060000160009054906101000a900460ff169050919050565b828054610feb906115b2565b90600052602060002090601f01602090048101928261100d5760008555611054565b82601f1061102657805160ff1916838001178555611054565b82800160010185558215611054579182015b82811115611053578251825591602001919060010190611038565b5b5090506110619190611065565b5090565b5b8082111561107e576000816000905550600101611066565b5090565b60006110956110908461148b565b611466565b9050828152602081018484840111156110b1576110b06116a7565b5b6110bc848285611570565b509392505050565b6000813590506110d38161172d565b92915050565b600082601f8301126110ee576110ed6116a2565b5b81356110fe848260208601611082565b91505092915050565b60008135905061111681611744565b92915050565b60008135905061112b8161175b565b92915050565b600060208284031215611147576111466116b1565b5b6000611155848285016110c4565b91505092915050565b600080600060608486031215611177576111766116b1565b5b6000611185868287016110c4565b935050602084013567ffffffffffffffff8111156111a6576111a56116ac565b5b6111b2868287016110d9565b92505060406111c38682870161111c565b9150509250925092565b6000602082840312156111e3576111e26116b1565b5b60006111f184828501611107565b91505092915050565b611203816114d8565b82525050565b611212816114ea565b82525050565b6112218161155e565b82525050565b6000611232826114bc565b61123c81856114c7565b935061124c81856020860161157f565b611255816116b6565b840191505092915050565b600061126d601f836114c7565b9150611278826116c7565b602082019050919050565b60006112906017836114c7565b915061129b826116f0565b602082019050919050565b6112af81611509565b82525050565b6112be81611537565b82525050565b6112cd81611541565b82525050565b6112dc81611551565b82525050565b60006020820190506112f76000830184611209565b92915050565b600060c0820190506113126000830189611209565b61131f60208301886111fa565b61132c60408301876112a6565b6113396060830186611218565b818103608083015261134b8185611227565b905081810360a083015261135f8184611227565b9050979650505050505050565b60006060820190506113816000830186611209565b81810360208301526113938185611227565b90506113a260408301846112d3565b949350505050565b60006080820190506113bf6000830187611209565b6113cc60208301866112d3565b6113d960408301856112b5565b81810360608301526113eb8184611227565b905095945050505050565b6000602082019050818103600083015261140f81611260565b9050919050565b6000602082019050818103600083015261142f81611283565b9050919050565b600060408201905061144b60008301856112c4565b818103602083015261145d8184611227565b90509392505050565b6000611470611481565b905061147c82826115e4565b919050565b6000604051905090565b600067ffffffffffffffff8211156114a6576114a5611673565b5b6114af826116b6565b9050602081019050919050565b600081519050919050565b600082825260208201905092915050565b60006114e382611517565b9050919050565b60008115159050919050565b600081905061150482611719565b919050565b600061ffff82169050919050565b600073ffffffffffffffffffffffffffffffffffffffff82169050919050565b6000819050919050565b600063ffffffff82169050919050565b600060ff82169050919050565b6000611569826114f6565b9050919050565b82818337600083830152505050565b60005b8381101561159d578082015181840152602081019050611582565b838111156115ac576000848401525b50505050565b600060028204905060018216806115ca57607f821691505b602082108114156115de576115dd611644565b5b50919050565b6115ed826116b6565b810181811067ffffffffffffffff8211171561160c5761160b611673565b5b80604052505050565b7f4e487b7100000000000000000000000000000000000000000000000000000000600052602160045260246000fd5b7f4e487b7100000000000000000000000000000000000000000000000000000000600052602260045260246000fd5b7f4e487b7100000000000000000000000000000000000000000000000000000000600052604160045260246000fd5b600080fd5b600080fd5b600080fd5b600080fd5b6000601f19601f8301169050919050565b7f53616465636520594f4b2062752069736c656d69207961706162696c69722e00600082015250565b7f556e6976657273697465205a6174656e204d6576637574000000000000000000600082015250565b6004811061172a57611729611615565b5b50565b611736816114d8565b811461174157600080fd5b50565b61174d81611541565b811461175857600080fd5b50565b61176481611551565b811461176f57600080fd5b5056fea26469706673582212202a5a7720829d05379f810e0b468a84a312b283c371b354ab20e5dc73857dde1464736f6c63430008070033",
					"opcodes": "PUSH1 0x80 PUSH1 0x40 MSTORE CALLVALUE DUP1 ISZERO PUSH2 0x10 JUMPI PUSH1 0x0 DUP1 REVERT JUMPDEST POP PUSH2 0x17A8 DUP1 PUSH2 0x20 PUSH1 0x0 CODECOPY PUSH1 0x0 RETURN INVALID PUSH1 0x80 PUSH1 0x40 MSTORE CALLVALUE DUP1 ISZERO PUSH2 0x10 JUMPI PUSH1 0x0 DUP1 REVERT JUMPDEST POP PUSH1 0x4 CALLDATASIZE LT PUSH2 0x10A JUMPI PUSH1 0x0 CALLDATALOAD PUSH1 0xE0 SHR DUP1 PUSH4 0x7D0FA287 GT PUSH2 0xA2 JUMPI DUP1 PUSH4 0xB98CCEFD GT PUSH2 0x71 JUMPI DUP1 PUSH4 0xB98CCEFD EQ PUSH2 0x349 JUMPI DUP1 PUSH4 0xBA479B7E EQ PUSH2 0x379 JUMPI DUP1 PUSH4 0xCBC92809 EQ PUSH2 0x3AE JUMPI DUP1 PUSH4 0xE24047CA EQ PUSH2 0x3DE JUMPI DUP1 PUSH4 0xF0040EB9 EQ PUSH2 0x40E JUMPI PUSH2 0x10A JUMP JUMPDEST DUP1 PUSH4 0x7D0FA287 EQ PUSH2 0x284 JUMPI DUP1 PUSH4 0x8C848885 EQ PUSH2 0x2B6 JUMPI DUP1 PUSH4 0x9A8C9119 EQ PUSH2 0x2E6 JUMPI DUP1 PUSH4 0xA4E7AE05 EQ PUSH2 0x318 JUMPI PUSH2 0x10A JUMP JUMPDEST DUP1 PUSH4 0x2D087D70 GT PUSH2 0xDE JUMPI DUP1 PUSH4 0x2D087D70 EQ PUSH2 0x1BF JUMPI DUP1 PUSH4 0x356B1F1E EQ PUSH2 0x1EF JUMPI DUP1 PUSH4 0x39987F94 EQ PUSH2 0x221 JUMPI DUP1 PUSH4 0x514E03C7 EQ PUSH2 0x254 JUMPI PUSH2 0x10A JUMP JUMPDEST DUP1 PUSH3 0x1D54AB EQ PUSH2 0x10F JUMPI DUP1 PUSH4 0x24EB6BC EQ PUSH2 0x12B JUMPI DUP1 PUSH4 0x1916E139 EQ PUSH2 0x15B JUMPI DUP1 PUSH4 0x28266697 EQ PUSH2 0x18D JUMPI JUMPDEST PUSH1 0x0 DUP1 REVERT JUMPDEST PUSH2 0x129 PUSH1 0x4 DUP1 CALLDATASIZE SUB DUP2 ADD SWAP1 PUSH2 0x124 SWAP2 SWAP1 PUSH2 0x115E JUMP JUMPDEST PUSH2 0x43E JUMP JUMPDEST STOP JUMPDEST PUSH2 0x145 PUSH1 0x4 DUP1 CALLDATASIZE SUB DUP2 ADD SWAP1 PUSH2 0x140 SWAP2 SWAP1 PUSH2 0x1131 JUMP JUMPDEST PUSH2 0x627 JUMP JUMPDEST PUSH1 0x40 MLOAD PUSH2 0x152 SWAP2 SWAP1 PUSH2 0x12E2 JUMP JUMPDEST PUSH1 0x40 MLOAD DUP1 SWAP2 SUB SWAP1 RETURN JUMPDEST PUSH2 0x175 PUSH1 0x4 DUP1 CALLDATASIZE SUB DUP2 ADD SWAP1 PUSH2 0x170 SWAP2 SWAP1 PUSH2 0x1131 JUMP JUMPDEST PUSH2 0x680 JUMP JUMPDEST PUSH1 0x40 MLOAD PUSH2 0x184 SWAP4 SWAP3 SWAP2 SWAP1 PUSH2 0x136C JUMP JUMPDEST PUSH1 0x40 MLOAD DUP1 SWAP2 SUB SWAP1 RETURN JUMPDEST PUSH2 0x1A7 PUSH1 0x4 DUP1 CALLDATASIZE SUB DUP2 ADD SWAP1 PUSH2 0x1A2 SWAP2 SWAP1 PUSH2 0x1131 JUMP JUMPDEST PUSH2 0x74C JUMP JUMPDEST PUSH1 0x40 MLOAD PUSH2 0x1B6 SWAP4 SWAP3 SWAP2 SWAP1 PUSH2 0x136C JUMP JUMPDEST PUSH1 0x40 MLOAD DUP1 SWAP2 SUB SWAP1 RETURN JUMPDEST PUSH2 0x1D9 PUSH1 0x4 DUP1 CALLDATASIZE SUB DUP2 ADD SWAP1 PUSH2 0x1D4 SWAP2 SWAP1 PUSH2 0x1131 JUMP JUMPDEST PUSH2 0x818 JUMP JUMPDEST PUSH1 0x40 MLOAD PUSH2 0x1E6 SWAP2 SWAP1 PUSH2 0x12E2 JUMP JUMPDEST PUSH1 0x40 MLOAD DUP1 SWAP2 SUB SWAP1 RETURN JUMPDEST PUSH2 0x209 PUSH1 0x4 DUP1 CALLDATASIZE SUB DUP2 ADD SWAP1 PUSH2 0x204 SWAP2 SWAP1 PUSH2 0x1131 JUMP JUMPDEST PUSH2 0x871 JUMP JUMPDEST PUSH1 0x40 MLOAD PUSH2 0x218 SWAP4 SWAP3 SWAP2 SWAP1 PUSH2 0x136C JUMP JUMPDEST PUSH1 0x40 MLOAD DUP1 SWAP2 SUB SWAP1 RETURN JUMPDEST PUSH2 0x23B PUSH1 0x4 DUP1 CALLDATASIZE SUB DUP2 ADD SWAP1 PUSH2 0x236 SWAP2 SWAP1 PUSH2 0x1131 JUMP JUMPDEST PUSH2 0x93D JUMP JUMPDEST PUSH1 0x40 MLOAD PUSH2 0x24B SWAP5 SWAP4 SWAP3 SWAP2 SWAP1 PUSH2 0x13AA JUMP JUMPDEST PUSH1 0x40 MLOAD DUP1 SWAP2 SUB SWAP1 RETURN JUMPDEST PUSH2 0x26E PUSH1 0x4 DUP1 CALLDATASIZE SUB DUP2 ADD SWAP1 PUSH2 0x269 SWAP2 SWAP1 PUSH2 0x1131 JUMP JUMPDEST PUSH2 0xA0F JUMP JUMPDEST PUSH1 0x40 MLOAD PUSH2 0x27B SWAP2 SWAP1 PUSH2 0x12E2 JUMP JUMPDEST PUSH1 0x40 MLOAD DUP1 SWAP2 SUB SWAP1 RETURN JUMPDEST PUSH2 0x29E PUSH1 0x4 DUP1 CALLDATASIZE SUB DUP2 ADD SWAP1 PUSH2 0x299 SWAP2 SWAP1 PUSH2 0x1131 JUMP JUMPDEST PUSH2 0xA68 JUMP JUMPDEST PUSH1 0x40 MLOAD PUSH2 0x2AD SWAP4 SWAP3 SWAP2 SWAP1 PUSH2 0x136C JUMP JUMPDEST PUSH1 0x40 MLOAD DUP1 SWAP2 SUB SWAP1 RETURN JUMPDEST PUSH2 0x2D0 PUSH1 0x4 DUP1 CALLDATASIZE SUB DUP2 ADD SWAP1 PUSH2 0x2CB SWAP2 SWAP1 PUSH2 0x1131 JUMP JUMPDEST PUSH2 0xB34 JUMP JUMPDEST PUSH1 0x40 MLOAD PUSH2 0x2DD SWAP2 SWAP1 PUSH2 0x12E2 JUMP JUMPDEST PUSH1 0x40 MLOAD DUP1 SWAP2 SUB SWAP1 RETURN JUMPDEST PUSH2 0x300 PUSH1 0x4 DUP1 CALLDATASIZE SUB DUP2 ADD SWAP1 PUSH2 0x2FB SWAP2 SWAP1 PUSH2 0x1131 JUMP JUMPDEST PUSH2 0xB8D JUMP JUMPDEST PUSH1 0x40 MLOAD PUSH2 0x30F SWAP4 SWAP3 SWAP2 SWAP1 PUSH2 0x136C JUMP JUMPDEST PUSH1 0x40 MLOAD DUP1 SWAP2 SUB SWAP1 RETURN JUMPDEST PUSH2 0x332 PUSH1 0x4 DUP1 CALLDATASIZE SUB DUP2 ADD SWAP1 PUSH2 0x32D SWAP2 SWAP1 PUSH2 0x11CD JUMP JUMPDEST PUSH2 0xC59 JUMP JUMPDEST PUSH1 0x40 MLOAD PUSH2 0x340 SWAP3 SWAP2 SWAP1 PUSH2 0x1436 JUMP JUMPDEST PUSH1 0x40 MLOAD DUP1 SWAP2 SUB SWAP1 RETURN JUMPDEST PUSH2 0x363 PUSH1 0x4 DUP1 CALLDATASIZE SUB DUP2 ADD SWAP1 PUSH2 0x35E SWAP2 SWAP1 PUSH2 0x1131 JUMP JUMPDEST PUSH2 0xD15 JUMP JUMPDEST PUSH1 0x40 MLOAD PUSH2 0x370 SWAP2 SWAP1 PUSH2 0x12E2 JUMP JUMPDEST PUSH1 0x40 MLOAD DUP1 SWAP2 SUB SWAP1 RETURN JUMPDEST PUSH2 0x393 PUSH1 0x4 DUP1 CALLDATASIZE SUB DUP2 ADD SWAP1 PUSH2 0x38E SWAP2 SWAP1 PUSH2 0x1131 JUMP JUMPDEST PUSH2 0xD6E JUMP JUMPDEST PUSH1 0x40 MLOAD PUSH2 0x3A5 SWAP7 SWAP6 SWAP5 SWAP4 SWAP3 SWAP2 SWAP1 PUSH2 0x12FD JUMP JUMPDEST PUSH1 0x40 MLOAD DUP1 SWAP2 SUB SWAP1 RETURN JUMPDEST PUSH2 0x3C8 PUSH1 0x4 DUP1 CALLDATASIZE SUB DUP2 ADD SWAP1 PUSH2 0x3C3 SWAP2 SWAP1 PUSH2 0x1131 JUMP JUMPDEST PUSH2 0xF02 JUMP JUMPDEST PUSH1 0x40 MLOAD PUSH2 0x3D5 SWAP2 SWAP1 PUSH2 0x12E2 JUMP JUMPDEST PUSH1 0x40 MLOAD DUP1 SWAP2 SUB SWAP1 RETURN JUMPDEST PUSH2 0x3F8 PUSH1 0x4 DUP1 CALLDATASIZE SUB DUP2 ADD SWAP1 PUSH2 0x3F3 SWAP2 SWAP1 PUSH2 0x1131 JUMP JUMPDEST PUSH2 0xF2D JUMP JUMPDEST PUSH1 0x40 MLOAD PUSH2 0x405 SWAP2 SWAP1 PUSH2 0x12E2 JUMP JUMPDEST PUSH1 0x40 MLOAD DUP1 SWAP2 SUB SWAP1 RETURN JUMPDEST PUSH2 0x428 PUSH1 0x4 DUP1 CALLDATASIZE SUB DUP2 ADD SWAP1 PUSH2 0x423 SWAP2 SWAP1 PUSH2 0x1131 JUMP JUMPDEST PUSH2 0xF86 JUMP JUMPDEST PUSH1 0x40 MLOAD PUSH2 0x435 SWAP2 SWAP1 PUSH2 0x12E2 JUMP JUMPDEST PUSH1 0x40 MLOAD DUP1 SWAP2 SUB SWAP1 RETURN JUMPDEST PUSH1 0x0 DUP1 SLOAD SWAP1 PUSH2 0x100 EXP SWAP1 DIV PUSH20 0xFFFFFFFFFFFFFFFFFFFFFFFFFFFFFFFFFFFFFFFF AND PUSH20 0xFFFFFFFFFFFFFFFFFFFFFFFFFFFFFFFFFFFFFFFF AND CALLER PUSH20 0xFFFFFFFFFFFFFFFFFFFFFFFFFFFFFFFFFFFFFFFF AND EQ PUSH2 0x4CC JUMPI PUSH1 0x40 MLOAD PUSH32 0x8C379A000000000000000000000000000000000000000000000000000000000 DUP2 MSTORE PUSH1 0x4 ADD PUSH2 0x4C3 SWAP1 PUSH2 0x13F6 JUMP JUMPDEST PUSH1 0x40 MLOAD DUP1 SWAP2 SUB SWAP1 REVERT JUMPDEST PUSH2 0x4D5 DUP4 PUSH2 0xF86 JUMP JUMPDEST ISZERO PUSH2 0x515 JUMPI PUSH1 0x40 MLOAD PUSH32 0x8C379A000000000000000000000000000000000000000000000000000000000 DUP2 MSTORE PUSH1 0x4 ADD PUSH2 0x50C SWAP1 PUSH2 0x1416 JUMP JUMPDEST PUSH1 0x40 MLOAD DUP1 SWAP2 SUB SWAP1 REVERT JUMPDEST PUSH1 0x1 PUSH1 0x4 PUSH1 0x0 DUP6 PUSH20 0xFFFFFFFFFFFFFFFFFFFFFFFFFFFFFFFFFFFFFFFF AND PUSH20 0xFFFFFFFFFFFFFFFFFFFFFFFFFFFFFFFFFFFFFFFF AND DUP2 MSTORE PUSH1 0x20 ADD SWAP1 DUP2 MSTORE PUSH1 0x20 ADD PUSH1 0x0 KECCAK256 PUSH1 0x0 ADD PUSH1 0x0 PUSH2 0x100 EXP DUP2 SLOAD DUP2 PUSH1 0xFF MUL NOT AND SWAP1 DUP4 ISZERO ISZERO MUL OR SWAP1 SSTORE POP DUP2 PUSH1 0x4 PUSH1 0x0 DUP6 PUSH20 0xFFFFFFFFFFFFFFFFFFFFFFFFFFFFFFFFFFFFFFFF AND PUSH20 0xFFFFFFFFFFFFFFFFFFFFFFFFFFFFFFFFFFFFFFFF AND DUP2 MSTORE PUSH1 0x20 ADD SWAP1 DUP2 MSTORE PUSH1 0x20 ADD PUSH1 0x0 KECCAK256 PUSH1 0x1 ADD SWAP1 DUP1 MLOAD SWAP1 PUSH1 0x20 ADD SWAP1 PUSH2 0x5C6 SWAP3 SWAP2 SWAP1 PUSH2 0xFDF JUMP JUMPDEST POP DUP1 PUSH1 0x4 PUSH1 0x0 DUP6 PUSH20 0xFFFFFFFFFFFFFFFFFFFFFFFFFFFFFFFFFFFFFFFF AND PUSH20 0xFFFFFFFFFFFFFFFFFFFFFFFFFFFFFFFFFFFFFFFF AND DUP2 MSTORE PUSH1 0x20 ADD SWAP1 DUP2 MSTORE PUSH1 0x20 ADD PUSH1 0x0 KECCAK256 PUSH1 0x2 ADD PUSH1 0x0 PUSH2 0x100 EXP DUP2 SLOAD DUP2 PUSH1 0xFF MUL NOT AND SWAP1 DUP4 PUSH1 0xFF AND MUL OR SWAP1 SSTORE POP POP POP POP JUMP JUMPDEST PUSH1 0x0 PUSH1 0x7 PUSH1 0x0 DUP4 PUSH20 0xFFFFFFFFFFFFFFFFFFFFFFFFFFFFFFFFFFFFFFFF AND PUSH20 0xFFFFFFFFFFFFFFFFFFFFFFFFFFFFFFFFFFFFFFFF AND DUP2 MSTORE PUSH1 0x20 ADD SWAP1 DUP2 MSTORE PUSH1 0x20 ADD PUSH1 0x0 KECCAK256 PUSH1 0x0 ADD PUSH1 0x0 SWAP1 SLOAD SWAP1 PUSH2 0x100 EXP SWAP1 DIV PUSH1 0xFF AND SWAP1 POP SWAP2 SWAP1 POP JUMP JUMPDEST PUSH1 0x7 PUSH1 0x20 MSTORE DUP1 PUSH1 0x0 MSTORE PUSH1 0x40 PUSH1 0x0 KECCAK256 PUSH1 0x0 SWAP2 POP SWAP1 POP DUP1 PUSH1 0x0 ADD PUSH1 0x0 SWAP1 SLOAD SWAP1 PUSH2 0x100 EXP SWAP1 DIV PUSH1 0xFF AND SWAP1 DUP1 PUSH1 0x1 ADD DUP1 SLOAD PUSH2 0x6B6 SWAP1 PUSH2 0x15B2 JUMP JUMPDEST DUP1 PUSH1 0x1F ADD PUSH1 0x20 DUP1 SWAP2 DIV MUL PUSH1 0x20 ADD PUSH1 0x40 MLOAD SWAP1 DUP2 ADD PUSH1 0x40 MSTORE DUP1 SWAP3 SWAP2 SWAP1 DUP2 DUP2 MSTORE PUSH1 0x20 ADD DUP3 DUP1 SLOAD PUSH2 0x6E2 SWAP1 PUSH2 0x15B2 JUMP JUMPDEST DUP1 ISZERO PUSH2 0x72F JUMPI DUP1 PUSH1 0x1F LT PUSH2 0x704 JUMPI PUSH2 0x100 DUP1 DUP4 SLOAD DIV MUL DUP4 MSTORE SWAP2 PUSH1 0x20 ADD SWAP2 PUSH2 0x72F JUMP JUMPDEST DUP3 ADD SWAP2 SWAP1 PUSH1 0x0 MSTORE PUSH1 0x20 PUSH1 0x0 KECCAK256 SWAP1 JUMPDEST DUP2 SLOAD DUP2 MSTORE SWAP1 PUSH1 0x1 ADD SWAP1 PUSH1 0x20 ADD DUP1 DUP4 GT PUSH2 0x712 JUMPI DUP3 SWAP1 SUB PUSH1 0x1F AND DUP3 ADD SWAP2 JUMPDEST POP POP POP POP POP SWAP1 DUP1 PUSH1 0x2 ADD PUSH1 0x0 SWAP1 SLOAD SWAP1 PUSH2 0x100 EXP SWAP1 DIV PUSH1 0xFF AND SWAP1 POP DUP4 JUMP JUMPDEST PUSH1 0x4 PUSH1 0x20 MSTORE DUP1 PUSH1 0x0 MSTORE PUSH1 0x40 PUSH1 0x0 KECCAK256 PUSH1 0x0 SWAP2 POP SWAP1 POP DUP1 PUSH1 0x0 ADD PUSH1 0x0 SWAP1 SLOAD SWAP1 PUSH2 0x100 EXP SWAP1 DIV PUSH1 0xFF AND SWAP1 DUP1 PUSH1 0x1 ADD DUP1 SLOAD PUSH2 0x782 SWAP1 PUSH2 0x15B2 JUMP JUMPDEST DUP1 PUSH1 0x1F ADD PUSH1 0x20 DUP1 SWAP2 DIV MUL PUSH1 0x20 ADD PUSH1 0x40 MLOAD SWAP1 DUP2 ADD PUSH1 0x40 MSTORE DUP1 SWAP3 SWAP2 SWAP1 DUP2 DUP2 MSTORE PUSH1 0x20 ADD DUP3 DUP1 SLOAD PUSH2 0x7AE SWAP1 PUSH2 0x15B2 JUMP JUMPDEST DUP1 ISZERO PUSH2 0x7FB JUMPI DUP1 PUSH1 0x1F LT PUSH2 0x7D0 JUMPI PUSH2 0x100 DUP1 DUP4 SLOAD DIV MUL DUP4 MSTORE SWAP2 PUSH1 0x20 ADD SWAP2 PUSH2 0x7FB JUMP JUMPDEST DUP3 ADD SWAP2 SWAP1 PUSH1 0x0 MSTORE PUSH1 0x20 PUSH1 0x0 KECCAK256 SWAP1 JUMPDEST DUP2 SLOAD DUP2 MSTORE SWAP1 PUSH1 0x1 ADD SWAP1 PUSH1 0x20 ADD DUP1 DUP4 GT PUSH2 0x7DE JUMPI DUP3 SWAP1 SUB PUSH1 0x1F AND DUP3 ADD SWAP2 JUMPDEST POP POP POP POP POP SWAP1 DUP1 PUSH1 0x2 ADD PUSH1 0x0 SWAP1 SLOAD SWAP1 PUSH2 0x100 EXP SWAP1 DIV PUSH1 0xFF AND SWAP1 POP DUP4 JUMP JUMPDEST PUSH1 0x0 PUSH1 0x6 PUSH1 0x0 DUP4 PUSH20 0xFFFFFFFFFFFFFFFFFFFFFFFFFFFFFFFFFFFFFFFF AND PUSH20 0xFFFFFFFFFFFFFFFFFFFFFFFFFFFFFFFFFFFFFFFF AND DUP2 MSTORE PUSH1 0x20 ADD SWAP1 DUP2 MSTORE PUSH1 0x20 ADD PUSH1 0x0 KECCAK256 PUSH1 0x0 ADD PUSH1 0x0 SWAP1 SLOAD SWAP1 PUSH2 0x100 EXP SWAP1 DIV PUSH1 0xFF AND SWAP1 POP SWAP2 SWAP1 POP JUMP JUMPDEST PUSH1 0xA PUSH1 0x20 MSTORE DUP1 PUSH1 0x0 MSTORE PUSH1 0x40 PUSH1 0x0 KECCAK256 PUSH1 0x0 SWAP2 POP SWAP1 POP DUP1 PUSH1 0x0 ADD PUSH1 0x0 SWAP1 SLOAD SWAP1 PUSH2 0x100 EXP SWAP1 DIV PUSH1 0xFF AND SWAP1 DUP1 PUSH1 0x1 ADD DUP1 SLOAD PUSH2 0x8A7 SWAP1 PUSH2 0x15B2 JUMP JUMPDEST DUP1 PUSH1 0x1F ADD PUSH1 0x20 DUP1 SWAP2 DIV MUL PUSH1 0x20 ADD PUSH1 0x40 MLOAD SWAP1 DUP2 ADD PUSH1 0x40 MSTORE DUP1 SWAP3 SWAP2 SWAP1 DUP2 DUP2 MSTORE PUSH1 0x20 ADD DUP3 DUP1 SLOAD PUSH2 0x8D3 SWAP1 PUSH2 0x15B2 JUMP JUMPDEST DUP1 ISZERO PUSH2 0x920 JUMPI DUP1 PUSH1 0x1F LT PUSH2 0x8F5 JUMPI PUSH2 0x100 DUP1 DUP4 SLOAD DIV MUL DUP4 MSTORE SWAP2 PUSH1 0x20 ADD SWAP2 PUSH2 0x920 JUMP JUMPDEST DUP3 ADD SWAP2 SWAP1 PUSH1 0x0 MSTORE PUSH1 0x20 PUSH1 0x0 KECCAK256 SWAP1 JUMPDEST DUP2 SLOAD DUP2 MSTORE SWAP1 PUSH1 0x1 ADD SWAP1 PUSH1 0x20 ADD DUP1 DUP4 GT PUSH2 0x903 JUMPI DUP3 SWAP1 SUB PUSH1 0x1F AND DUP3 ADD SWAP2 JUMPDEST POP POP POP POP POP SWAP1 DUP1 PUSH1 0x2 ADD PUSH1 0x0 SWAP1 SLOAD SWAP1 PUSH2 0x100 EXP SWAP1 DIV PUSH1 0xFF AND SWAP1 POP DUP4 JUMP JUMPDEST PUSH1 0x6 PUSH1 0x20 MSTORE DUP1 PUSH1 0x0 MSTORE PUSH1 0x40 PUSH1 0x0 KECCAK256 PUSH1 0x0 SWAP2 POP SWAP1 POP DUP1 PUSH1 0x0 ADD PUSH1 0x0 SWAP1 SLOAD SWAP1 PUSH2 0x100 EXP SWAP1 DIV PUSH1 0xFF AND SWAP1 DUP1 PUSH1 0x0 ADD PUSH1 0x1 SWAP1 SLOAD SWAP1 PUSH2 0x100 EXP SWAP1 DIV PUSH1 0xFF AND SWAP1 DUP1 PUSH1 0x1 ADD SLOAD SWAP1 DUP1 PUSH1 0x2 ADD DUP1 SLOAD PUSH2 0x98C SWAP1 PUSH2 0x15B2 JUMP JUMPDEST DUP1 PUSH1 0x1F ADD PUSH1 0x20 DUP1 SWAP2 DIV MUL PUSH1 0x20 ADD PUSH1 0x40 MLOAD SWAP1 DUP2 ADD PUSH1 0x40 MSTORE DUP1 SWAP3 SWAP2 SWAP1 DUP2 DUP2 MSTORE PUSH1 0x20 ADD DUP3 DUP1 SLOAD PUSH2 0x9B8 SWAP1 PUSH2 0x15B2 JUMP JUMPDEST DUP1 ISZERO PUSH2 0xA05 JUMPI DUP1 PUSH1 0x1F LT PUSH2 0x9DA JUMPI PUSH2 0x100 DUP1 DUP4 SLOAD DIV MUL DUP4 MSTORE SWAP2 PUSH1 0x20 ADD SWAP2 PUSH2 0xA05 JUMP JUMPDEST DUP3 ADD SWAP2 SWAP1 PUSH1 0x0 MSTORE PUSH1 0x20 PUSH1 0x0 KECCAK256 SWAP1 JUMPDEST DUP2 SLOAD DUP2 MSTORE SWAP1 PUSH1 0x1 ADD SWAP1 PUSH1 0x20 ADD DUP1 DUP4 GT PUSH2 0x9E8 JUMPI DUP3 SWAP1 SUB PUSH1 0x1F AND DUP3 ADD SWAP2 JUMPDEST POP POP POP POP POP SWAP1 POP DUP5 JUMP JUMPDEST PUSH1 0x0 PUSH1 0x8 PUSH1 0x0 DUP4 PUSH20 0xFFFFFFFFFFFFFFFFFFFFFFFFFFFFFFFFFFFFFFFF AND PUSH20 0xFFFFFFFFFFFFFFFFFFFFFFFFFFFFFFFFFFFFFFFF AND DUP2 MSTORE PUSH1 0x20 ADD SWAP1 DUP2 MSTORE PUSH1 0x20 ADD PUSH1 0x0 KECCAK256 PUSH1 0x0 ADD PUSH1 0x0 SWAP1 SLOAD SWAP1 PUSH2 0x100 EXP SWAP1 DIV PUSH1 0xFF AND SWAP1 POP SWAP2 SWAP1 POP JUMP JUMPDEST PUSH1 0x8 PUSH1 0x20 MSTORE DUP1 PUSH1 0x0 MSTORE PUSH1 0x40 PUSH1 0x0 KECCAK256 PUSH1 0x0 SWAP2 POP SWAP1 POP DUP1 PUSH1 0x0 ADD PUSH1 0x0 SWAP1 SLOAD SWAP1 PUSH2 0x100 EXP SWAP1 DIV PUSH1 0xFF AND SWAP1 DUP1 PUSH1 0x1 ADD DUP1 SLOAD PUSH2 0xA9E SWAP1 PUSH2 0x15B2 JUMP JUMPDEST DUP1 PUSH1 0x1F ADD PUSH1 0x20 DUP1 SWAP2 DIV MUL PUSH1 0x20 ADD PUSH1 0x40 MLOAD SWAP1 DUP2 ADD PUSH1 0x40 MSTORE DUP1 SWAP3 SWAP2 SWAP1 DUP2 DUP2 MSTORE PUSH1 0x20 ADD DUP3 DUP1 SLOAD PUSH2 0xACA SWAP1 PUSH2 0x15B2 JUMP JUMPDEST DUP1 ISZERO PUSH2 0xB17 JUMPI DUP1 PUSH1 0x1F LT PUSH2 0xAEC JUMPI PUSH2 0x100 DUP1 DUP4 SLOAD DIV MUL DUP4 MSTORE SWAP2 PUSH1 0x20 ADD SWAP2 PUSH2 0xB17 JUMP JUMPDEST DUP3 ADD SWAP2 SWAP1 PUSH1 0x0 MSTORE PUSH1 0x20 PUSH1 0x0 KECCAK256 SWAP1 JUMPDEST DUP2 SLOAD DUP2 MSTORE SWAP1 PUSH1 0x1 ADD SWAP1 PUSH1 0x20 ADD DUP1 DUP4 GT PUSH2 0xAFA JUMPI DUP3 SWAP1 SUB PUSH1 0x1F AND DUP3 ADD SWAP2 JUMPDEST POP POP POP POP POP SWAP1 DUP1 PUSH1 0x2 ADD PUSH1 0x0 SWAP1 SLOAD SWAP1 PUSH2 0x100 EXP SWAP1 DIV PUSH1 0xFF AND SWAP1 POP DUP4 JUMP JUMPDEST PUSH1 0x0 PUSH1 0x9 PUSH1 0x0 DUP4 PUSH20 0xFFFFFFFFFFFFFFFFFFFFFFFFFFFFFFFFFFFFFFFF AND PUSH20 0xFFFFFFFFFFFFFFFFFFFFFFFFFFFFFFFFFFFFFFFF AND DUP2 MSTORE PUSH1 0x20 ADD SWAP1 DUP2 MSTORE PUSH1 0x20 ADD PUSH1 0x0 KECCAK256 PUSH1 0x0 ADD PUSH1 0x0 SWAP1 SLOAD SWAP1 PUSH2 0x100 EXP SWAP1 DIV PUSH1 0xFF AND SWAP1 POP SWAP2 SWAP1 POP JUMP JUMPDEST PUSH1 0x9 PUSH1 0x20 MSTORE DUP1 PUSH1 0x0 MSTORE PUSH1 0x40 PUSH1 0x0 KECCAK256 PUSH1 0x0 SWAP2 POP SWAP1 POP DUP1 PUSH1 0x0 ADD PUSH1 0x0 SWAP1 SLOAD SWAP1 PUSH2 0x100 EXP SWAP1 DIV PUSH1 0xFF AND SWAP1 DUP1 PUSH1 0x1 ADD DUP1 SLOAD PUSH2 0xBC3 SWAP1 PUSH2 0x15B2 JUMP JUMPDEST DUP1 PUSH1 0x1F ADD PUSH1 0x20 DUP1 SWAP2 DIV MUL PUSH1 0x20 ADD PUSH1 0x40 MLOAD SWAP1 DUP2 ADD PUSH1 0x40 MSTORE DUP1 SWAP3 SWAP2 SWAP1 DUP2 DUP2 MSTORE PUSH1 0x20 ADD DUP3 DUP1 SLOAD PUSH2 0xBEF SWAP1 PUSH2 0x15B2 JUMP JUMPDEST DUP1 ISZERO PUSH2 0xC3C JUMPI DUP1 PUSH1 0x1F LT PUSH2 0xC11 JUMPI PUSH2 0x100 DUP1 DUP4 SLOAD DIV MUL DUP4 MSTORE SWAP2 PUSH1 0x20 ADD SWAP2 PUSH2 0xC3C JUMP JUMPDEST DUP3 ADD SWAP2 SWAP1 PUSH1 0x0 MSTORE PUSH1 0x20 PUSH1 0x0 KECCAK256 SWAP1 JUMPDEST DUP2 SLOAD DUP2 MSTORE SWAP1 PUSH1 0x1 ADD SWAP1 PUSH1 0x20 ADD DUP1 DUP4 GT PUSH2 0xC1F JUMPI DUP3 SWAP1 SUB PUSH1 0x1F AND DUP3 ADD SWAP2 JUMPDEST POP POP POP POP POP SWAP1 DUP1 PUSH1 0x2 ADD PUSH1 0x0 SWAP1 SLOAD SWAP1 PUSH2 0x100 EXP SWAP1 DIV PUSH1 0xFF AND SWAP1 POP DUP4 JUMP JUMPDEST PUSH1 0xB PUSH1 0x20 MSTORE DUP1 PUSH1 0x0 MSTORE PUSH1 0x40 PUSH1 0x0 KECCAK256 PUSH1 0x0 SWAP2 POP SWAP1 POP DUP1 PUSH1 0x0 ADD PUSH1 0x0 SWAP1 SLOAD SWAP1 PUSH2 0x100 EXP SWAP1 DIV PUSH4 0xFFFFFFFF AND SWAP1 DUP1 PUSH1 0x1 ADD DUP1 SLOAD PUSH2 0xC92 SWAP1 PUSH2 0x15B2 JUMP JUMPDEST DUP1 PUSH1 0x1F ADD PUSH1 0x20 DUP1 SWAP2 DIV MUL PUSH1 0x20 ADD PUSH1 0x40 MLOAD SWAP1 DUP2 ADD PUSH1 0x40 MSTORE DUP1 SWAP3 SWAP2 SWAP1 DUP2 DUP2 MSTORE PUSH1 0x20 ADD DUP3 DUP1 SLOAD PUSH2 0xCBE SWAP1 PUSH2 0x15B2 JUMP JUMPDEST DUP1 ISZERO PUSH2 0xD0B JUMPI DUP1 PUSH1 0x1F LT PUSH2 0xCE0 JUMPI PUSH2 0x100 DUP1 DUP4 SLOAD DIV MUL DUP4 MSTORE SWAP2 PUSH1 0x20 ADD SWAP2 PUSH2 0xD0B JUMP JUMPDEST DUP3 ADD SWAP2 SWAP1 PUSH1 0x0 MSTORE PUSH1 0x20 PUSH1 0x0 KECCAK256 SWAP1 JUMPDEST DUP2 SLOAD DUP2 MSTORE SWAP1 PUSH1 0x1 ADD SWAP1 PUSH1 0x20 ADD DUP1 DUP4 GT PUSH2 0xCEE JUMPI DUP3 SWAP1 SUB PUSH1 0x1F AND DUP3 ADD SWAP2 JUMPDEST POP POP POP POP POP SWAP1 POP DUP3 JUMP JUMPDEST PUSH1 0x0 PUSH1 0x3 PUSH1 0x0 DUP4 PUSH20 0xFFFFFFFFFFFFFFFFFFFFFFFFFFFFFFFFFFFFFFFF AND PUSH20 0xFFFFFFFFFFFFFFFFFFFFFFFFFFFFFFFFFFFFFFFF AND DUP2 MSTORE PUSH1 0x20 ADD SWAP1 DUP2 MSTORE PUSH1 0x20 ADD PUSH1 0x0 KECCAK256 PUSH1 0x0 ADD PUSH1 0x0 SWAP1 SLOAD SWAP1 PUSH2 0x100 EXP SWAP1 DIV PUSH1 0xFF AND SWAP1 POP SWAP2 SWAP1 POP JUMP JUMPDEST PUSH1 0x5 PUSH1 0x20 MSTORE DUP1 PUSH1 0x0 MSTORE PUSH1 0x40 PUSH1 0x0 KECCAK256 PUSH1 0x0 SWAP2 POP SWAP1 POP DUP1 PUSH1 0x0 ADD PUSH1 0x0 SWAP1 SLOAD SWAP1 PUSH2 0x100 EXP SWAP1 DIV PUSH1 0xFF AND SWAP1 DUP1 PUSH1 0x0 ADD PUSH1 0x1 SWAP1 SLOAD SWAP1 PUSH2 0x100 EXP SWAP1 DIV PUSH20 0xFFFFFFFFFFFFFFFFFFFFFFFFFFFFFFFFFFFFFFFF AND SWAP1 DUP1 PUSH1 0x0 ADD PUSH1 0x15 SWAP1 SLOAD SWAP1 PUSH2 0x100 EXP SWAP1 DIV PUSH2 0xFFFF AND SWAP1 DUP1 PUSH1 0x0 ADD PUSH1 0x17 SWAP1 SLOAD SWAP1 PUSH2 0x100 EXP SWAP1 DIV PUSH1 0xFF AND SWAP1 DUP1 PUSH1 0x1 ADD DUP1 SLOAD PUSH2 0xDF1 SWAP1 PUSH2 0x15B2 JUMP JUMPDEST DUP1 PUSH1 0x1F ADD PUSH1 0x20 DUP1 SWAP2 DIV MUL PUSH1 0x20 ADD PUSH1 0x40 MLOAD SWAP1 DUP2 ADD PUSH1 0x40 MSTORE DUP1 SWAP3 SWAP2 SWAP1 DUP2 DUP2 MSTORE PUSH1 0x20 ADD DUP3 DUP1 SLOAD PUSH2 0xE1D SWAP1 PUSH2 0x15B2 JUMP JUMPDEST DUP1 ISZERO PUSH2 0xE6A JUMPI DUP1 PUSH1 0x1F LT PUSH2 0xE3F JUMPI PUSH2 0x100 DUP1 DUP4 SLOAD DIV MUL DUP4 MSTORE SWAP2 PUSH1 0x20 ADD SWAP2 PUSH2 0xE6A JUMP JUMPDEST DUP3 ADD SWAP2 SWAP1 PUSH1 0x0 MSTORE PUSH1 0x20 PUSH1 0x0 KECCAK256 SWAP1 JUMPDEST DUP2 SLOAD DUP2 MSTORE SWAP1 PUSH1 0x1 ADD SWAP1 PUSH1 0x20 ADD DUP1 DUP4 GT PUSH2 0xE4D JUMPI DUP3 SWAP1 SUB PUSH1 0x1F AND DUP3 ADD SWAP2 JUMPDEST POP POP POP POP POP SWAP1 DUP1 PUSH1 0x2 ADD DUP1 SLOAD PUSH2 0xE7F SWAP1 PUSH2 0x15B2 JUMP JUMPDEST DUP1 PUSH1 0x1F ADD PUSH1 0x20 DUP1 SWAP2 DIV MUL PUSH1 0x20 ADD PUSH1 0x40 MLOAD SWAP1 DUP2 ADD PUSH1 0x40 MSTORE DUP1 SWAP3 SWAP2 SWAP1 DUP2 DUP2 MSTORE PUSH1 0x20 ADD DUP3 DUP1 SLOAD PUSH2 0xEAB SWAP1 PUSH2 0x15B2 JUMP JUMPDEST DUP1 ISZERO PUSH2 0xEF8 JUMPI DUP1 PUSH1 0x1F LT PUSH2 0xECD JUMPI PUSH2 0x100 DUP1 DUP4 SLOAD DIV MUL DUP4 MSTORE SWAP2 PUSH1 0x20 ADD SWAP2 PUSH2 0xEF8 JUMP JUMPDEST DUP3 ADD SWAP2 SWAP1 PUSH1 0x0 MSTORE PUSH1 0x20 PUSH1 0x0 KECCAK256 SWAP1 JUMPDEST DUP2 SLOAD DUP2 MSTORE SWAP1 PUSH1 0x1 ADD SWAP1 PUSH1 0x20 ADD DUP1 DUP4 GT PUSH2 0xEDB JUMPI DUP3 SWAP1 SUB PUSH1 0x1F AND DUP3 ADD SWAP2 JUMPDEST POP POP POP POP POP SWAP1 POP DUP7 JUMP JUMPDEST PUSH1 0x3 PUSH1 0x20 MSTORE DUP1 PUSH1 0x0 MSTORE PUSH1 0x40 PUSH1 0x0 KECCAK256 PUSH1 0x0 SWAP2 POP SWAP1 POP DUP1 PUSH1 0x0 ADD PUSH1 0x0 SWAP1 SLOAD SWAP1 PUSH2 0x100 EXP SWAP1 DIV PUSH1 0xFF AND SWAP1 POP DUP2 JUMP JUMPDEST PUSH1 0x0 PUSH1 0xA PUSH1 0x0 DUP4 PUSH20 0xFFFFFFFFFFFFFFFFFFFFFFFFFFFFFFFFFFFFFFFF AND PUSH20 0xFFFFFFFFFFFFFFFFFFFFFFFFFFFFFFFFFFFFFFFF AND DUP2 MSTORE PUSH1 0x20 ADD SWAP1 DUP2 MSTORE PUSH1 0x20 ADD PUSH1 0x0 KECCAK256 PUSH1 0x0 ADD PUSH1 0x0 SWAP1 SLOAD SWAP1 PUSH2 0x100 EXP SWAP1 DIV PUSH1 0xFF AND SWAP1 POP SWAP2 SWAP1 POP JUMP JUMPDEST PUSH1 0x0 PUSH1 0x4 PUSH1 0x0 DUP4 PUSH20 0xFFFFFFFFFFFFFFFFFFFFFFFFFFFFFFFFFFFFFFFF AND PUSH20 0xFFFFFFFFFFFFFFFFFFFFFFFFFFFFFFFFFFFFFFFF AND DUP2 MSTORE PUSH1 0x20 ADD SWAP1 DUP2 MSTORE PUSH1 0x20 ADD PUSH1 0x0 KECCAK256 PUSH1 0x0 ADD PUSH1 0x0 SWAP1 SLOAD SWAP1 PUSH2 0x100 EXP SWAP1 DIV PUSH1 0xFF AND SWAP1 POP SWAP2 SWAP1 POP JUMP JUMPDEST DUP3 DUP1 SLOAD PUSH2 0xFEB SWAP1 PUSH2 0x15B2 JUMP JUMPDEST SWAP1 PUSH1 0x0 MSTORE PUSH1 0x20 PUSH1 0x0 KECCAK256 SWAP1 PUSH1 0x1F ADD PUSH1 0x20 SWAP1 DIV DUP2 ADD SWAP3 DUP3 PUSH2 0x100D JUMPI PUSH1 0x0 DUP6 SSTORE PUSH2 0x1054 JUMP JUMPDEST DUP3 PUSH1 0x1F LT PUSH2 0x1026 JUMPI DUP1 MLOAD PUSH1 0xFF NOT AND DUP4 DUP1 ADD OR DUP6 SSTORE PUSH2 0x1054 JUMP JUMPDEST DUP3 DUP1 ADD PUSH1 0x1 ADD DUP6 SSTORE DUP3 ISZERO PUSH2 0x1054 JUMPI SWAP2 DUP3 ADD JUMPDEST DUP3 DUP2 GT ISZERO PUSH2 0x1053 JUMPI DUP3 MLOAD DUP3 SSTORE SWAP2 PUSH1 0x20 ADD SWAP2 SWAP1 PUSH1 0x1 ADD SWAP1 PUSH2 0x1038 JUMP JUMPDEST JUMPDEST POP SWAP1 POP PUSH2 0x1061 SWAP2 SWAP1 PUSH2 0x1065 JUMP JUMPDEST POP SWAP1 JUMP JUMPDEST JUMPDEST DUP1 DUP3 GT ISZERO PUSH2 0x107E JUMPI PUSH1 0x0 DUP2 PUSH1 0x0 SWAP1 SSTORE POP PUSH1 0x1 ADD PUSH2 0x1066 JUMP JUMPDEST POP SWAP1 JUMP JUMPDEST PUSH1 0x0 PUSH2 0x1095 PUSH2 0x1090 DUP5 PUSH2 0x148B JUMP JUMPDEST PUSH2 0x1466 JUMP JUMPDEST SWAP1 POP DUP3 DUP2 MSTORE PUSH1 0x20 DUP2 ADD DUP5 DUP5 DUP5 ADD GT ISZERO PUSH2 0x10B1 JUMPI PUSH2 0x10B0 PUSH2 0x16A7 JUMP JUMPDEST JUMPDEST PUSH2 0x10BC DUP5 DUP3 DUP6 PUSH2 0x1570 JUMP JUMPDEST POP SWAP4 SWAP3 POP POP POP JUMP JUMPDEST PUSH1 0x0 DUP2 CALLDATALOAD SWAP1 POP PUSH2 0x10D3 DUP2 PUSH2 0x172D JUMP JUMPDEST SWAP3 SWAP2 POP POP JUMP JUMPDEST PUSH1 0x0 DUP3 PUSH1 0x1F DUP4 ADD SLT PUSH2 0x10EE JUMPI PUSH2 0x10ED PUSH2 0x16A2 JUMP JUMPDEST JUMPDEST DUP2 CALLDATALOAD PUSH2 0x10FE DUP5 DUP3 PUSH1 0x20 DUP7 ADD PUSH2 0x1082 JUMP JUMPDEST SWAP2 POP POP SWAP3 SWAP2 POP POP JUMP JUMPDEST PUSH1 0x0 DUP2 CALLDATALOAD SWAP1 POP PUSH2 0x1116 DUP2 PUSH2 0x1744 JUMP JUMPDEST SWAP3 SWAP2 POP POP JUMP JUMPDEST PUSH1 0x0 DUP2 CALLDATALOAD SWAP1 POP PUSH2 0x112B DUP2 PUSH2 0x175B JUMP JUMPDEST SWAP3 SWAP2 POP POP JUMP JUMPDEST PUSH1 0x0 PUSH1 0x20 DUP3 DUP5 SUB SLT ISZERO PUSH2 0x1147 JUMPI PUSH2 0x1146 PUSH2 0x16B1 JUMP JUMPDEST JUMPDEST PUSH1 0x0 PUSH2 0x1155 DUP5 DUP3 DUP6 ADD PUSH2 0x10C4 JUMP JUMPDEST SWAP2 POP POP SWAP3 SWAP2 POP POP JUMP JUMPDEST PUSH1 0x0 DUP1 PUSH1 0x0 PUSH1 0x60 DUP5 DUP7 SUB SLT ISZERO PUSH2 0x1177 JUMPI PUSH2 0x1176 PUSH2 0x16B1 JUMP JUMPDEST JUMPDEST PUSH1 0x0 PUSH2 0x1185 DUP7 DUP3 DUP8 ADD PUSH2 0x10C4 JUMP JUMPDEST SWAP4 POP POP PUSH1 0x20 DUP5 ADD CALLDATALOAD PUSH8 0xFFFFFFFFFFFFFFFF DUP2 GT ISZERO PUSH2 0x11A6 JUMPI PUSH2 0x11A5 PUSH2 0x16AC JUMP JUMPDEST JUMPDEST PUSH2 0x11B2 DUP7 DUP3 DUP8 ADD PUSH2 0x10D9 JUMP JUMPDEST SWAP3 POP POP PUSH1 0x40 PUSH2 0x11C3 DUP7 DUP3 DUP8 ADD PUSH2 0x111C JUMP JUMPDEST SWAP2 POP POP SWAP3 POP SWAP3 POP SWAP3 JUMP JUMPDEST PUSH1 0x0 PUSH1 0x20 DUP3 DUP5 SUB SLT ISZERO PUSH2 0x11E3 JUMPI PUSH2 0x11E2 PUSH2 0x16B1 JUMP JUMPDEST JUMPDEST PUSH1 0x0 PUSH2 0x11F1 DUP5 DUP3 DUP6 ADD PUSH2 0x1107 JUMP JUMPDEST SWAP2 POP POP SWAP3 SWAP2 POP POP JUMP JUMPDEST PUSH2 0x1203 DUP2 PUSH2 0x14D8 JUMP JUMPDEST DUP3 MSTORE POP POP JUMP JUMPDEST PUSH2 0x1212 DUP2 PUSH2 0x14EA JUMP JUMPDEST DUP3 MSTORE POP POP JUMP JUMPDEST PUSH2 0x1221 DUP2 PUSH2 0x155E JUMP JUMPDEST DUP3 MSTORE POP POP JUMP JUMPDEST PUSH1 0x0 PUSH2 0x1232 DUP3 PUSH2 0x14BC JUMP JUMPDEST PUSH2 0x123C DUP2 DUP6 PUSH2 0x14C7 JUMP JUMPDEST SWAP4 POP PUSH2 0x124C DUP2 DUP6 PUSH1 0x20 DUP7 ADD PUSH2 0x157F JUMP JUMPDEST PUSH2 0x1255 DUP2 PUSH2 0x16B6 JUMP JUMPDEST DUP5 ADD SWAP2 POP POP SWAP3 SWAP2 POP POP JUMP JUMPDEST PUSH1 0x0 PUSH2 0x126D PUSH1 0x1F DUP4 PUSH2 0x14C7 JUMP JUMPDEST SWAP2 POP PUSH2 0x1278 DUP3 PUSH2 0x16C7 JUMP JUMPDEST PUSH1 0x20 DUP3 ADD SWAP1 POP SWAP2 SWAP1 POP JUMP JUMPDEST PUSH1 0x0 PUSH2 0x1290 PUSH1 0x17 DUP4 PUSH2 0x14C7 JUMP JUMPDEST SWAP2 POP PUSH2 0x129B DUP3 PUSH2 0x16F0 JUMP JUMPDEST PUSH1 0x20 DUP3 ADD SWAP1 POP SWAP2 SWAP1 POP JUMP JUMPDEST PUSH2 0x12AF DUP2 PUSH2 0x1509 JUMP JUMPDEST DUP3 MSTORE POP POP JUMP JUMPDEST PUSH2 0x12BE DUP2 PUSH2 0x1537 JUMP JUMPDEST DUP3 MSTORE POP POP JUMP JUMPDEST PUSH2 0x12CD DUP2 PUSH2 0x1541 JUMP JUMPDEST DUP3 MSTORE POP POP JUMP JUMPDEST PUSH2 0x12DC DUP2 PUSH2 0x1551 JUMP JUMPDEST DUP3 MSTORE POP POP JUMP JUMPDEST PUSH1 0x0 PUSH1 0x20 DUP3 ADD SWAP1 POP PUSH2 0x12F7 PUSH1 0x0 DUP4 ADD DUP5 PUSH2 0x1209 JUMP JUMPDEST SWAP3 SWAP2 POP POP JUMP JUMPDEST PUSH1 0x0 PUSH1 0xC0 DUP3 ADD SWAP1 POP PUSH2 0x1312 PUSH1 0x0 DUP4 ADD DUP10 PUSH2 0x1209 JUMP JUMPDEST PUSH2 0x131F PUSH1 0x20 DUP4 ADD DUP9 PUSH2 0x11FA JUMP JUMPDEST PUSH2 0x132C PUSH1 0x40 DUP4 ADD DUP8 PUSH2 0x12A6 JUMP JUMPDEST PUSH2 0x1339 PUSH1 0x60 DUP4 ADD DUP7 PUSH2 0x1218 JUMP JUMPDEST DUP2 DUP2 SUB PUSH1 0x80 DUP4 ADD MSTORE PUSH2 0x134B DUP2 DUP6 PUSH2 0x1227 JUMP JUMPDEST SWAP1 POP DUP2 DUP2 SUB PUSH1 0xA0 DUP4 ADD MSTORE PUSH2 0x135F DUP2 DUP5 PUSH2 0x1227 JUMP JUMPDEST SWAP1 POP SWAP8 SWAP7 POP POP POP POP POP POP POP JUMP JUMPDEST PUSH1 0x0 PUSH1 0x60 DUP3 ADD SWAP1 POP PUSH2 0x1381 PUSH1 0x0 DUP4 ADD DUP7 PUSH2 0x1209 JUMP JUMPDEST DUP2 DUP2 SUB PUSH1 0x20 DUP4 ADD MSTORE PUSH2 0x1393 DUP2 DUP6 PUSH2 0x1227 JUMP JUMPDEST SWAP1 POP PUSH2 0x13A2 PUSH1 0x40 DUP4 ADD DUP5 PUSH2 0x12D3 JUMP JUMPDEST SWAP5 SWAP4 POP POP POP POP JUMP JUMPDEST PUSH1 0x0 PUSH1 0x80 DUP3 ADD SWAP1 POP PUSH2 0x13BF PUSH1 0x0 DUP4 ADD DUP8 PUSH2 0x1209 JUMP JUMPDEST PUSH2 0x13CC PUSH1 0x20 DUP4 ADD DUP7 PUSH2 0x12D3 JUMP JUMPDEST PUSH2 0x13D9 PUSH1 0x40 DUP4 ADD DUP6 PUSH2 0x12B5 JUMP JUMPDEST DUP2 DUP2 SUB PUSH1 0x60 DUP4 ADD MSTORE PUSH2 0x13EB DUP2 DUP5 PUSH2 0x1227 JUMP JUMPDEST SWAP1 POP SWAP6 SWAP5 POP POP POP POP POP JUMP JUMPDEST PUSH1 0x0 PUSH1 0x20 DUP3 ADD SWAP1 POP DUP2 DUP2 SUB PUSH1 0x0 DUP4 ADD MSTORE PUSH2 0x140F DUP2 PUSH2 0x1260 JUMP JUMPDEST SWAP1 POP SWAP2 SWAP1 POP JUMP JUMPDEST PUSH1 0x0 PUSH1 0x20 DUP3 ADD SWAP1 POP DUP2 DUP2 SUB PUSH1 0x0 DUP4 ADD MSTORE PUSH2 0x142F DUP2 PUSH2 0x1283 JUMP JUMPDEST SWAP1 POP SWAP2 SWAP1 POP JUMP JUMPDEST PUSH1 0x0 PUSH1 0x40 DUP3 ADD SWAP1 POP PUSH2 0x144B PUSH1 0x0 DUP4 ADD DUP6 PUSH2 0x12C4 JUMP JUMPDEST DUP2 DUP2 SUB PUSH1 0x20 DUP4 ADD MSTORE PUSH2 0x145D DUP2 DUP5 PUSH2 0x1227 JUMP JUMPDEST SWAP1 POP SWAP4 SWAP3 POP POP POP JUMP JUMPDEST PUSH1 0x0 PUSH2 0x1470 PUSH2 0x1481 JUMP JUMPDEST SWAP1 POP PUSH2 0x147C DUP3 DUP3 PUSH2 0x15E4 JUMP JUMPDEST SWAP2 SWAP1 POP JUMP JUMPDEST PUSH1 0x0 PUSH1 0x40 MLOAD SWAP1 POP SWAP1 JUMP JUMPDEST PUSH1 0x0 PUSH8 0xFFFFFFFFFFFFFFFF DUP3 GT ISZERO PUSH2 0x14A6 JUMPI PUSH2 0x14A5 PUSH2 0x1673 JUMP JUMPDEST JUMPDEST PUSH2 0x14AF DUP3 PUSH2 0x16B6 JUMP JUMPDEST SWAP1 POP PUSH1 0x20 DUP2 ADD SWAP1 POP SWAP2 SWAP1 POP JUMP JUMPDEST PUSH1 0x0 DUP2 MLOAD SWAP1 POP SWAP2 SWAP1 POP JUMP JUMPDEST PUSH1 0x0 DUP3 DUP3 MSTORE PUSH1 0x20 DUP3 ADD SWAP1 POP SWAP3 SWAP2 POP POP JUMP JUMPDEST PUSH1 0x0 PUSH2 0x14E3 DUP3 PUSH2 0x1517 JUMP JUMPDEST SWAP1 POP SWAP2 SWAP1 POP JUMP JUMPDEST PUSH1 0x0 DUP2 ISZERO ISZERO SWAP1 POP SWAP2 SWAP1 POP JUMP JUMPDEST PUSH1 0x0 DUP2 SWAP1 POP PUSH2 0x1504 DUP3 PUSH2 0x1719 JUMP JUMPDEST SWAP2 SWAP1 POP JUMP JUMPDEST PUSH1 0x0 PUSH2 0xFFFF DUP3 AND SWAP1 POP SWAP2 SWAP1 POP JUMP JUMPDEST PUSH1 0x0 PUSH20 0xFFFFFFFFFFFFFFFFFFFFFFFFFFFFFFFFFFFFFFFF DUP3 AND SWAP1 POP SWAP2 SWAP1 POP JUMP JUMPDEST PUSH1 0x0 DUP2 SWAP1 POP SWAP2 SWAP1 POP JUMP JUMPDEST PUSH1 0x0 PUSH4 0xFFFFFFFF DUP3 AND SWAP1 POP SWAP2 SWAP1 POP JUMP JUMPDEST PUSH1 0x0 PUSH1 0xFF DUP3 AND SWAP1 POP SWAP2 SWAP1 POP JUMP JUMPDEST PUSH1 0x0 PUSH2 0x1569 DUP3 PUSH2 0x14F6 JUMP JUMPDEST SWAP1 POP SWAP2 SWAP1 POP JUMP JUMPDEST DUP3 DUP2 DUP4 CALLDATACOPY PUSH1 0x0 DUP4 DUP4 ADD MSTORE POP POP POP JUMP JUMPDEST PUSH1 0x0 JUMPDEST DUP4 DUP2 LT ISZERO PUSH2 0x159D JUMPI DUP1 DUP3 ADD MLOAD DUP2 DUP5 ADD MSTORE PUSH1 0x20 DUP2 ADD SWAP1 POP PUSH2 0x1582 JUMP JUMPDEST DUP4 DUP2 GT ISZERO PUSH2 0x15AC JUMPI PUSH1 0x0 DUP5 DUP5 ADD MSTORE JUMPDEST POP POP POP POP JUMP JUMPDEST PUSH1 0x0 PUSH1 0x2 DUP3 DIV SWAP1 POP PUSH1 0x1 DUP3 AND DUP1 PUSH2 0x15CA JUMPI PUSH1 0x7F DUP3 AND SWAP2 POP JUMPDEST PUSH1 0x20 DUP3 LT DUP2 EQ ISZERO PUSH2 0x15DE JUMPI PUSH2 0x15DD PUSH2 0x1644 JUMP JUMPDEST JUMPDEST POP SWAP2 SWAP1 POP JUMP JUMPDEST PUSH2 0x15ED DUP3 PUSH2 0x16B6 JUMP JUMPDEST DUP2 ADD DUP2 DUP2 LT PUSH8 0xFFFFFFFFFFFFFFFF DUP3 GT OR ISZERO PUSH2 0x160C JUMPI PUSH2 0x160B PUSH2 0x1673 JUMP JUMPDEST JUMPDEST DUP1 PUSH1 0x40 MSTORE POP POP POP JUMP JUMPDEST PUSH32 0x4E487B7100000000000000000000000000000000000000000000000000000000 PUSH1 0x0 MSTORE PUSH1 0x21 PUSH1 0x4 MSTORE PUSH1 0x24 PUSH1 0x0 REVERT JUMPDEST PUSH32 0x4E487B7100000000000000000000000000000000000000000000000000000000 PUSH1 0x0 MSTORE PUSH1 0x22 PUSH1 0x4 MSTORE PUSH1 0x24 PUSH1 0x0 REVERT JUMPDEST PUSH32 0x4E487B7100000000000000000000000000000000000000000000000000000000 PUSH1 0x0 MSTORE PUSH1 0x41 PUSH1 0x4 MSTORE PUSH1 0x24 PUSH1 0x0 REVERT JUMPDEST PUSH1 0x0 DUP1 REVERT JUMPDEST PUSH1 0x0 DUP1 REVERT JUMPDEST PUSH1 0x0 DUP1 REVERT JUMPDEST PUSH1 0x0 DUP1 REVERT JUMPDEST PUSH1 0x0 PUSH1 0x1F NOT PUSH1 0x1F DUP4 ADD AND SWAP1 POP SWAP2 SWAP1 POP JUMP JUMPDEST PUSH32 0x53616465636520594F4B2062752069736C656D69207961706162696C69722E00 PUSH1 0x0 DUP3 ADD MSTORE POP JUMP JUMPDEST PUSH32 0x556E6976657273697465205A6174656E204D6576637574000000000000000000 PUSH1 0x0 DUP3 ADD MSTORE POP JUMP JUMPDEST PUSH1 0x4 DUP2 LT PUSH2 0x172A JUMPI PUSH2 0x1729 PUSH2 0x1615 JUMP JUMPDEST JUMPDEST POP JUMP JUMPDEST PUSH2 0x1736 DUP2 PUSH2 0x14D8 JUMP JUMPDEST DUP2 EQ PUSH2 0x1741 JUMPI PUSH1 0x0 DUP1 REVERT JUMPDEST POP JUMP JUMPDEST PUSH2 0x174D DUP2 PUSH2 0x1541 JUMP JUMPDEST DUP2 EQ PUSH2 0x1758 JUMPI PUSH1 0x0 DUP1 REVERT JUMPDEST POP JUMP JUMPDEST PUSH2 0x1764 DUP2 PUSH2 0x1551 JUMP JUMPDEST DUP2 EQ PUSH2 0x176F JUMPI PUSH1 0x0 DUP1 REVERT JUMPDEST POP JUMP INVALID LOG2 PUSH5 0x6970667358 0x22 SLT KECCAK256 0x2A GAS PUSH24 0x20829D05379F810E0B468A84A312B283C371B354AB20E5DC PUSH20 0x857DDE1464736F6C634300080700330000000000 "
				},
				"gasEstimates": {
					"creation": {
						"codeDepositCost": "1211200",
						"executionCost": "1261",
						"totalCost": "1212461"
					},
					"external": {
						"akademisyenler(address)": "infinite",
						"diller(uint32)": "infinite",
						"ekleUniversite(address,string,uint8)": "infinite",
						"firmalar(address)": "infinite",
						"isFirma(address)": "2912",
						"isKamuKurumu(address)": "2978",
						"isKisi(address)": "2911",
						"isKurs(address)": "2935",
						"isSTK(address)": "2934",
						"isSertifikaMerkezi(address)": "2977",
						"isUniversite(address)": "2999",
						"kamuKurumlari(address)": "infinite",
						"kisiler(address)": "2936",
						"kurslar(address)": "infinite",
						"sertifikaMerkezleri(address)": "infinite",
						"stklar(address)": "infinite",
						"universiteler(address)": "infinite"
					}
				},
				"methodIdentifiers": {
					"akademisyenler(address)": "ba479b7e",
					"diller(uint32)": "a4e7ae05",
					"ekleUniversite(address,string,uint8)": "001d54ab",
					"firmalar(address)": "39987f94",
					"isFirma(address)": "2d087d70",
					"isKamuKurumu(address)": "514e03c7",
					"isKisi(address)": "b98ccefd",
					"isKurs(address)": "024eb6bc",
					"isSTK(address)": "8c848885",
					"isSertifikaMerkezi(address)": "e24047ca",
					"isUniversite(address)": "f0040eb9",
					"kamuKurumlari(address)": "7d0fa287",
					"kisiler(address)": "cbc92809",
					"kurslar(address)": "1916e139",
					"sertifikaMerkezleri(address)": "356b1f1e",
					"stklar(address)": "9a8c9119",
					"universiteler(address)": "28266697"
				}
			},
			"storageLayout": {
				"storage": [
					{
						"astId": 3,
						"contract": "contracts/BaseContract.sol:BaseContract",
						"label": "YOK",
						"offset": 0,
						"slot": "0",
						"type": "t_address"
					},
					{
						"astId": 5,
						"contract": "contracts/BaseContract.sol:BaseContract",
						"label": "TOBB",
						"offset": 0,
						"slot": "1",
						"type": "t_address"
					},
					{
						"astId": 7,
						"contract": "contracts/BaseContract.sol:BaseContract",
						"label": "CB",
						"offset": 0,
						"slot": "2",
						"type": "t_address"
					},
					{
						"astId": 354,
						"contract": "contracts/BaseContract.sol:BaseContract",
						"label": "kisiler",
						"offset": 0,
						"slot": "3",
						"type": "t_mapping(t_address,t_struct(Kisi)10_storage)"
					},
					{
						"astId": 359,
						"contract": "contracts/BaseContract.sol:BaseContract",
						"label": "universiteler",
						"offset": 0,
						"slot": "4",
						"type": "t_mapping(t_address,t_struct(Universite)43_storage)"
					},
					{
						"astId": 364,
						"contract": "contracts/BaseContract.sol:BaseContract",
						"label": "akademisyenler",
						"offset": 0,
						"slot": "5",
						"type": "t_mapping(t_address,t_struct(Akademisyen)57_storage)"
					},
					{
						"astId": 369,
						"contract": "contracts/BaseContract.sol:BaseContract",
						"label": "firmalar",
						"offset": 0,
						"slot": "6",
						"type": "t_mapping(t_address,t_struct(Firma)97_storage)"
					},
					{
						"astId": 374,
						"contract": "contracts/BaseContract.sol:BaseContract",
						"label": "kurslar",
						"offset": 0,
						"slot": "7",
						"type": "t_mapping(t_address,t_struct(Kurs)125_storage)"
					},
					{
						"astId": 379,
						"contract": "contracts/BaseContract.sol:BaseContract",
						"label": "kamuKurumlari",
						"offset": 0,
						"slot": "8",
						"type": "t_mapping(t_address,t_struct(KamuKurumu)104_storage)"
					},
					{
						"astId": 384,
						"contract": "contracts/BaseContract.sol:BaseContract",
						"label": "stklar",
						"offset": 0,
						"slot": "9",
						"type": "t_mapping(t_address,t_struct(STK)111_storage)"
					},
					{
						"astId": 389,
						"contract": "contracts/BaseContract.sol:BaseContract",
						"label": "sertifikaMerkezleri",
						"offset": 0,
						"slot": "10",
						"type": "t_mapping(t_address,t_struct(SertifikaMerkezi)118_storage)"
					},
					{
						"astId": 394,
						"contract": "contracts/BaseContract.sol:BaseContract",
						"label": "diller",
						"offset": 0,
						"slot": "11",
						"type": "t_mapping(t_uint32,t_struct(YabanciDil)130_storage)"
					}
				],
				"types": {
					"t_address": {
						"encoding": "inplace",
						"label": "address",
						"numberOfBytes": "20"
					},
					"t_bool": {
						"encoding": "inplace",
						"label": "bool",
						"numberOfBytes": "1"
					},
					"t_enum(Unvan)62": {
						"encoding": "inplace",
						"label": "enum BaseContract.Unvan",
						"numberOfBytes": "1"
					},
					"t_mapping(t_address,t_struct(Akademisyen)57_storage)": {
						"encoding": "mapping",
						"key": "t_address",
						"label": "mapping(address => struct BaseContract.Akademisyen)",
						"numberOfBytes": "32",
						"value": "t_struct(Akademisyen)57_storage"
					},
					"t_mapping(t_address,t_struct(Firma)97_storage)": {
						"encoding": "mapping",
						"key": "t_address",
						"label": "mapping(address => struct BaseContract.Firma)",
						"numberOfBytes": "32",
						"value": "t_struct(Firma)97_storage"
					},
					"t_mapping(t_address,t_struct(KamuKurumu)104_storage)": {
						"encoding": "mapping",
						"key": "t_address",
						"label": "mapping(address => struct BaseContract.KamuKurumu)",
						"numberOfBytes": "32",
						"value": "t_struct(KamuKurumu)104_storage"
					},
					"t_mapping(t_address,t_struct(Kisi)10_storage)": {
						"encoding": "mapping",
						"key": "t_address",
						"label": "mapping(address => struct BaseContract.Kisi)",
						"numberOfBytes": "32",
						"value": "t_struct(Kisi)10_storage"
					},
					"t_mapping(t_address,t_struct(Kurs)125_storage)": {
						"encoding": "mapping",
						"key": "t_address",
						"label": "mapping(address => struct BaseContract.Kurs)",
						"numberOfBytes": "32",
						"value": "t_struct(Kurs)125_storage"
					},
					"t_mapping(t_address,t_struct(STK)111_storage)": {
						"encoding": "mapping",
						"key": "t_address",
						"label": "mapping(address => struct BaseContract.STK)",
						"numberOfBytes": "32",
						"value": "t_struct(STK)111_storage"
					},
					"t_mapping(t_address,t_struct(SertifikaMerkezi)118_storage)": {
						"encoding": "mapping",
						"key": "t_address",
						"label": "mapping(address => struct BaseContract.SertifikaMerkezi)",
						"numberOfBytes": "32",
						"value": "t_struct(SertifikaMerkezi)118_storage"
					},
					"t_mapping(t_address,t_struct(Universite)43_storage)": {
						"encoding": "mapping",
						"key": "t_address",
						"label": "mapping(address => struct BaseContract.Universite)",
						"numberOfBytes": "32",
						"value": "t_struct(Universite)43_storage"
					},
					"t_mapping(t_uint32,t_struct(YabanciDil)130_storage)": {
						"encoding": "mapping",
						"key": "t_uint32",
						"label": "mapping(uint32 => struct BaseContract.YabanciDil)",
						"numberOfBytes": "32",
						"value": "t_struct(YabanciDil)130_storage"
					},
					"t_string_storage": {
						"encoding": "bytes",
						"label": "string",
						"numberOfBytes": "32"
					},
					"t_struct(Akademisyen)57_storage": {
						"encoding": "inplace",
						"label": "struct BaseContract.Akademisyen",
						"members": [
							{
								"astId": 45,
								"contract": "contracts/BaseContract.sol:BaseContract",
								"label": "durum",
								"offset": 0,
								"slot": "0",
								"type": "t_bool"
							},
							{
								"astId": 47,
								"contract": "contracts/BaseContract.sol:BaseContract",
								"label": "universite",
								"offset": 1,
								"slot": "0",
								"type": "t_address"
							},
							{
								"astId": 49,
								"contract": "contracts/BaseContract.sol:BaseContract",
								"label": "bolum",
								"offset": 21,
								"slot": "0",
								"type": "t_uint16"
							},
							{
								"astId": 52,
								"contract": "contracts/BaseContract.sol:BaseContract",
								"label": "unvan",
								"offset": 23,
								"slot": "0",
								"type": "t_enum(Unvan)62"
							},
							{
								"astId": 54,
								"contract": "contracts/BaseContract.sol:BaseContract",
								"label": "ad",
								"offset": 0,
								"slot": "1",
								"type": "t_string_storage"
							},
							{
								"astId": 56,
								"contract": "contracts/BaseContract.sol:BaseContract",
								"label": "soyad",
								"offset": 0,
								"slot": "2",
								"type": "t_string_storage"
							}
						],
						"numberOfBytes": "96"
					},
					"t_struct(Firma)97_storage": {
						"encoding": "inplace",
						"label": "struct BaseContract.Firma",
						"members": [
							{
								"astId": 90,
								"contract": "contracts/BaseContract.sol:BaseContract",
								"label": "durum",
								"offset": 0,
								"slot": "0",
								"type": "t_bool"
							},
							{
								"astId": 92,
								"contract": "contracts/BaseContract.sol:BaseContract",
								"label": "ulke",
								"offset": 1,
								"slot": "0",
								"type": "t_uint8"
							},
							{
								"astId": 94,
								"contract": "contracts/BaseContract.sol:BaseContract",
								"label": "vergiNo",
								"offset": 0,
								"slot": "1",
								"type": "t_uint256"
							},
							{
								"astId": 96,
								"contract": "contracts/BaseContract.sol:BaseContract",
								"label": "isim",
								"offset": 0,
								"slot": "2",
								"type": "t_string_storage"
							}
						],
						"numberOfBytes": "96"
					},
					"t_struct(KamuKurumu)104_storage": {
						"encoding": "inplace",
						"label": "struct BaseContract.KamuKurumu",
						"members": [
							{
								"astId": 99,
								"contract": "contracts/BaseContract.sol:BaseContract",
								"label": "durum",
								"offset": 0,
								"slot": "0",
								"type": "t_bool"
							},
							{
								"astId": 101,
								"contract": "contracts/BaseContract.sol:BaseContract",
								"label": "isim",
								"offset": 0,
								"slot": "1",
								"type": "t_string_storage"
							},
							{
								"astId": 103,
								"contract": "contracts/BaseContract.sol:BaseContract",
								"label": "ulke",
								"offset": 0,
								"slot": "2",
								"type": "t_uint8"
							}
						],
						"numberOfBytes": "96"
					},
					"t_struct(Kisi)10_storage": {
						"encoding": "inplace",
						"label": "struct BaseContract.Kisi",
						"members": [
							{
								"astId": 9,
								"contract": "contracts/BaseContract.sol:BaseContract",
								"label": "durum",
								"offset": 0,
								"slot": "0",
								"type": "t_bool"
							}
						],
						"numberOfBytes": "32"
					},
					"t_struct(Kurs)125_storage": {
						"encoding": "inplace",
						"label": "struct BaseContract.Kurs",
						"members": [
							{
								"astId": 120,
								"contract": "contracts/BaseContract.sol:BaseContract",
								"label": "durum",
								"offset": 0,
								"slot": "0",
								"type": "t_bool"
							},
							{
								"astId": 122,
								"contract": "contracts/BaseContract.sol:BaseContract",
								"label": "isim",
								"offset": 0,
								"slot": "1",
								"type": "t_string_storage"
							},
							{
								"astId": 124,
								"contract": "contracts/BaseContract.sol:BaseContract",
								"label": "ulke",
								"offset": 0,
								"slot": "2",
								"type": "t_uint8"
							}
						],
						"numberOfBytes": "96"
					},
					"t_struct(STK)111_storage": {
						"encoding": "inplace",
						"label": "struct BaseContract.STK",
						"members": [
							{
								"astId": 106,
								"contract": "contracts/BaseContract.sol:BaseContract",
								"label": "durum",
								"offset": 0,
								"slot": "0",
								"type": "t_bool"
							},
							{
								"astId": 108,
								"contract": "contracts/BaseContract.sol:BaseContract",
								"label": "isim",
								"offset": 0,
								"slot": "1",
								"type": "t_string_storage"
							},
							{
								"astId": 110,
								"contract": "contracts/BaseContract.sol:BaseContract",
								"label": "ulke",
								"offset": 0,
								"slot": "2",
								"type": "t_uint8"
							}
						],
						"numberOfBytes": "96"
					},
					"t_struct(SertifikaMerkezi)118_storage": {
						"encoding": "inplace",
						"label": "struct BaseContract.SertifikaMerkezi",
						"members": [
							{
								"astId": 113,
								"contract": "contracts/BaseContract.sol:BaseContract",
								"label": "durum",
								"offset": 0,
								"slot": "0",
								"type": "t_bool"
							},
							{
								"astId": 115,
								"contract": "contracts/BaseContract.sol:BaseContract",
								"label": "isim",
								"offset": 0,
								"slot": "1",
								"type": "t_string_storage"
							},
							{
								"astId": 117,
								"contract": "contracts/BaseContract.sol:BaseContract",
								"label": "ulke",
								"offset": 0,
								"slot": "2",
								"type": "t_uint8"
							}
						],
						"numberOfBytes": "96"
					},
					"t_struct(Universite)43_storage": {
						"encoding": "inplace",
						"label": "struct BaseContract.Universite",
						"members": [
							{
								"astId": 38,
								"contract": "contracts/BaseContract.sol:BaseContract",
								"label": "durum",
								"offset": 0,
								"slot": "0",
								"type": "t_bool"
							},
							{
								"astId": 40,
								"contract": "contracts/BaseContract.sol:BaseContract",
								"label": "isim",
								"offset": 0,
								"slot": "1",
								"type": "t_string_storage"
							},
							{
								"astId": 42,
								"contract": "contracts/BaseContract.sol:BaseContract",
								"label": "ulke",
								"offset": 0,
								"slot": "2",
								"type": "t_uint8"
							}
						],
						"numberOfBytes": "96"
					},
					"t_struct(YabanciDil)130_storage": {
						"encoding": "inplace",
						"label": "struct BaseContract.YabanciDil",
						"members": [
							{
								"astId": 127,
								"contract": "contracts/BaseContract.sol:BaseContract",
								"label": "id",
								"offset": 0,
								"slot": "0",
								"type": "t_uint32"
							},
							{
								"astId": 129,
								"contract": "contracts/BaseContract.sol:BaseContract",
								"label": "isim",
								"offset": 0,
								"slot": "1",
								"type": "t_string_storage"
							}
						],
						"numberOfBytes": "64"
					},
					"t_uint16": {
						"encoding": "inplace",
						"label": "uint16",
						"numberOfBytes": "2"
					},
					"t_uint256": {
						"encoding": "inplace",
						"label": "uint256",
						"numberOfBytes": "32"
					},
					"t_uint32": {
						"encoding": "inplace",
						"label": "uint32",
						"numberOfBytes": "4"
					},
					"t_uint8": {
						"encoding": "inplace",
						"label": "uint8",
						"numberOfBytes": "1"
					}
				}
			},
			"userdoc": {
				"kind": "user",
				"methods": {},
				"version": 1
			}
		}
	}
}