{
	"contracts/YabanciDilBilgileri.sol": {
		"YabanciDilBilgileri": {
			"abi": [
				{
					"anonymous": false,
					"inputs": [
						{
							"indexed": false,
							"internalType": "enum BaseContract.OnaylayanKurum",
							"name": "_onaylayanKurumTipi",
							"type": "uint8"
						},
						{
							"indexed": false,
							"internalType": "address",
							"name": "_onayKurum",
							"type": "address"
						},
						{
							"indexed": false,
							"internalType": "uint256",
							"name": "_basTarih",
							"type": "uint256"
						},
						{
							"indexed": false,
							"internalType": "uint256",
							"name": "_bitTarih",
							"type": "uint256"
						},
						{
							"indexed": false,
							"internalType": "enum EgitimBilgileri.OgretimTipi",
							"name": "_ogretimTipi",
							"type": "uint8"
						},
						{
							"indexed": false,
							"internalType": "uint32",
							"name": "_dilId",
							"type": "uint32"
						}
					],
					"name": "YabanciDilEklendiLog",
					"type": "event"
				},
				{
					"anonymous": false,
					"inputs": [
						{
							"indexed": false,
							"internalType": "enum BaseContract.OnaylayanKurum",
							"name": "_onaylayanKurumTipi",
							"type": "uint8"
						},
						{
							"indexed": false,
							"internalType": "address",
							"name": "_onayKurum",
							"type": "address"
						},
						{
							"indexed": false,
							"internalType": "uint256",
							"name": "_basTarih",
							"type": "uint256"
						},
						{
							"indexed": false,
							"internalType": "uint256",
							"name": "_bitTarih",
							"type": "uint256"
						},
						{
							"indexed": false,
							"internalType": "enum EgitimBilgileri.OgretimTipi",
							"name": "_ogretimTipi",
							"type": "uint8"
						},
						{
							"indexed": false,
							"internalType": "uint32",
							"name": "_dilId",
							"type": "uint32"
						}
					],
					"name": "YabanciDilGuncellendiLog",
					"type": "event"
				},
				{
					"inputs": [
						{
							"internalType": "address",
							"name": "",
							"type": "address"
						}
					],
					"name": "akademisyenler",
					"outputs": [
						{
							"internalType": "bool",
							"name": "durum",
							"type": "bool"
						},
						{
							"internalType": "address",
							"name": "universite",
							"type": "address"
						},
						{
							"internalType": "uint16",
							"name": "bolum",
							"type": "uint16"
						},
						{
							"internalType": "enum BaseContract.Unvan",
							"name": "unvan",
							"type": "uint8"
						},
						{
							"internalType": "string",
							"name": "ad",
							"type": "string"
						},
						{
							"internalType": "string",
							"name": "soyad",
							"type": "string"
						}
					],
					"stateMutability": "view",
					"type": "function"
				},
				{
					"inputs": [
						{
							"internalType": "uint32",
							"name": "",
							"type": "uint32"
						}
					],
					"name": "diller",
					"outputs": [
						{
							"internalType": "uint32",
							"name": "id",
							"type": "uint32"
						},
						{
							"internalType": "string",
							"name": "isim",
							"type": "string"
						}
					],
					"stateMutability": "view",
					"type": "function"
				},
				{
					"inputs": [
						{
							"internalType": "address",
							"name": "_kisiAddress",
							"type": "address"
						},
						{
							"components": [
								{
									"internalType": "uint256",
									"name": "id",
									"type": "uint256"
								},
								{
									"internalType": "enum BaseContract.OnaylayanKurum",
									"name": "onayKurumTipi",
									"type": "uint8"
								},
								{
									"internalType": "address",
									"name": "onayKurum",
									"type": "address"
								},
								{
									"internalType": "uint256",
									"name": "basTarih",
									"type": "uint256"
								},
								{
									"internalType": "uint256",
									"name": "bitTarih",
									"type": "uint256"
								},
								{
									"internalType": "enum EgitimBilgileri.OgretimTipi",
									"name": "ogretimTipi",
									"type": "uint8"
								},
								{
									"internalType": "uint32",
									"name": "dilId",
									"type": "uint32"
								}
							],
							"internalType": "struct YabanciDilBilgileri.YabanciDil",
							"name": "_ydBilgi",
							"type": "tuple"
						}
					],
					"name": "ekleYabanciDilBilgi",
					"outputs": [],
					"stateMutability": "nonpayable",
					"type": "function"
				},
				{
					"inputs": [
						{
							"internalType": "address",
							"name": "",
							"type": "address"
						}
					],
					"name": "firmalar",
					"outputs": [
						{
							"internalType": "bool",
							"name": "durum",
							"type": "bool"
						},
						{
							"internalType": "uint8",
							"name": "ulke",
							"type": "uint8"
						},
						{
							"internalType": "uint256",
							"name": "vergiNo",
							"type": "uint256"
						},
						{
							"internalType": "string",
							"name": "isim",
							"type": "string"
						}
					],
					"stateMutability": "view",
					"type": "function"
				},
				{
					"inputs": [
						{
							"internalType": "address",
							"name": "_kisiAddress",
							"type": "address"
						},
						{
							"components": [
								{
									"internalType": "uint256",
									"name": "id",
									"type": "uint256"
								},
								{
									"internalType": "enum BaseContract.OnaylayanKurum",
									"name": "onayKurumTipi",
									"type": "uint8"
								},
								{
									"internalType": "address",
									"name": "onayKurum",
									"type": "address"
								},
								{
									"internalType": "uint256",
									"name": "basTarih",
									"type": "uint256"
								},
								{
									"internalType": "uint256",
									"name": "bitTarih",
									"type": "uint256"
								},
								{
									"internalType": "enum EgitimBilgileri.OgretimTipi",
									"name": "ogretimTipi",
									"type": "uint8"
								},
								{
									"internalType": "uint32",
									"name": "dilId",
									"type": "uint32"
								}
							],
							"internalType": "struct YabanciDilBilgileri.YabanciDil",
							"name": "_ydBilgi",
							"type": "tuple"
						}
					],
					"name": "guncelleYabanciDilBilgi",
					"outputs": [
						{
							"internalType": "uint256",
							"name": "",
							"type": "uint256"
						}
					],
					"stateMutability": "nonpayable",
					"type": "function"
				},
				{
					"inputs": [],
					"name": "id",
					"outputs": [
						{
							"internalType": "uint256",
							"name": "",
							"type": "uint256"
						}
					],
					"stateMutability": "view",
					"type": "function"
				},
				{
					"inputs": [
						{
							"internalType": "address",
							"name": "",
							"type": "address"
						}
					],
					"name": "kamuKurumlari",
					"outputs": [
						{
							"internalType": "bool",
							"name": "durum",
							"type": "bool"
						},
						{
							"internalType": "string",
							"name": "isim",
							"type": "string"
						},
						{
							"internalType": "uint8",
							"name": "ulke",
							"type": "uint8"
						}
					],
					"stateMutability": "view",
					"type": "function"
				},
				{
					"inputs": [
						{
							"internalType": "address",
							"name": "",
							"type": "address"
						}
					],
					"name": "kisiler",
					"outputs": [
						{
							"internalType": "bool",
							"name": "durum",
							"type": "bool"
						}
					],
					"stateMutability": "view",
					"type": "function"
				},
				{
					"inputs": [
						{
							"internalType": "address",
							"name": "",
							"type": "address"
						}
					],
					"name": "kurslar",
					"outputs": [
						{
							"internalType": "bool",
							"name": "durum",
							"type": "bool"
						},
						{
							"internalType": "string",
							"name": "isim",
							"type": "string"
						},
						{
							"internalType": "uint8",
							"name": "ulke",
							"type": "uint8"
						}
					],
					"stateMutability": "view",
					"type": "function"
				},
				{
					"inputs": [
						{
							"internalType": "address",
							"name": "",
							"type": "address"
						}
					],
					"name": "sertifikaMerkezleri",
					"outputs": [
						{
							"internalType": "bool",
							"name": "durum",
							"type": "bool"
						},
						{
							"internalType": "string",
							"name": "isim",
							"type": "string"
						},
						{
							"internalType": "uint8",
							"name": "ulke",
							"type": "uint8"
						}
					],
					"stateMutability": "view",
					"type": "function"
				},
				{
					"inputs": [
						{
							"internalType": "address",
							"name": "",
							"type": "address"
						}
					],
					"name": "stklar",
					"outputs": [
						{
							"internalType": "bool",
							"name": "durum",
							"type": "bool"
						},
						{
							"internalType": "string",
							"name": "isim",
							"type": "string"
						},
						{
							"internalType": "uint8",
							"name": "ulke",
							"type": "uint8"
						}
					],
					"stateMutability": "view",
					"type": "function"
				},
				{
					"inputs": [
						{
							"internalType": "address",
							"name": "",
							"type": "address"
						}
					],
					"name": "universiteler",
					"outputs": [
						{
							"internalType": "bool",
							"name": "durum",
							"type": "bool"
						},
						{
							"internalType": "string",
							"name": "isim",
							"type": "string"
						},
						{
							"internalType": "uint8",
							"name": "ulke",
							"type": "uint8"
						}
					],
					"stateMutability": "view",
					"type": "function"
				},
				{
					"inputs": [
						{
							"internalType": "address",
							"name": "",
							"type": "address"
						},
						{
							"internalType": "uint256",
							"name": "",
							"type": "uint256"
						}
					],
					"name": "yabanciDiller",
					"outputs": [
						{
							"internalType": "uint256",
							"name": "id",
							"type": "uint256"
						},
						{
							"internalType": "enum BaseContract.OnaylayanKurum",
							"name": "onayKurumTipi",
							"type": "uint8"
						},
						{
							"internalType": "address",
							"name": "onayKurum",
							"type": "address"
						},
						{
							"internalType": "uint256",
							"name": "basTarih",
							"type": "uint256"
						},
						{
							"internalType": "uint256",
							"name": "bitTarih",
							"type": "uint256"
						},
						{
							"internalType": "enum EgitimBilgileri.OgretimTipi",
							"name": "ogretimTipi",
							"type": "uint8"
						},
						{
							"internalType": "uint32",
							"name": "dilId",
							"type": "uint32"
						}
					],
					"stateMutability": "view",
					"type": "function"
				}
			],
			"devdoc": {
				"kind": "dev",
				"methods": {},
				"version": 1
			},
			"evm": {
				"assembly": "    /* \"contracts/YabanciDilBilgileri.sol\":137:2807  contract YabanciDilBilgileri is BaseContract{\r... */\n  mstore(0x40, 0x80)\n  callvalue\n  dup1\n  iszero\n  tag_1\n  jumpi\n  0x00\n  dup1\n  revert\ntag_1:\n  pop\n  dataSize(sub_0)\n  dup1\n  dataOffset(sub_0)\n  0x00\n  codecopy\n  0x00\n  return\nstop\n\nsub_0: assembly {\n        /* \"contracts/YabanciDilBilgileri.sol\":137:2807  contract YabanciDilBilgileri is BaseContract{\r... */\n      mstore(0x40, 0x80)\n      callvalue\n      dup1\n      iszero\n      tag_1\n      jumpi\n      0x00\n      dup1\n      revert\n    tag_1:\n      pop\n      jumpi(tag_2, lt(calldatasize, 0x04))\n      shr(0xe0, calldataload(0x00))\n      dup1\n      0x9a8c9119\n      gt\n      tag_16\n      jumpi\n      dup1\n      0xba479b7e\n      gt\n      tag_17\n      jumpi\n      dup1\n      0xba479b7e\n      eq\n      tag_12\n      jumpi\n      dup1\n      0xcbc92809\n      eq\n      tag_13\n      jumpi\n      dup1\n      0xcc9d368a\n      eq\n      tag_14\n      jumpi\n      dup1\n      0xee69e1af\n      eq\n      tag_15\n      jumpi\n      jump(tag_2)\n    tag_17:\n      dup1\n      0x9a8c9119\n      eq\n      tag_9\n      jumpi\n      dup1\n      0xa4e7ae05\n      eq\n      tag_10\n      jumpi\n      dup1\n      0xaf640d0f\n      eq\n      tag_11\n      jumpi\n      jump(tag_2)\n    tag_16:\n      dup1\n      0x1916e139\n      eq\n      tag_3\n      jumpi\n      dup1\n      0x28266697\n      eq\n      tag_4\n      jumpi\n      dup1\n      0x356b1f1e\n      eq\n      tag_5\n      jumpi\n      dup1\n      0x39987f94\n      eq\n      tag_6\n      jumpi\n      dup1\n      0x70223e73\n      eq\n      tag_7\n      jumpi\n      dup1\n      0x7d0fa287\n      eq\n      tag_8\n      jumpi\n    tag_2:\n      0x00\n      dup1\n      revert\n        /* \"contracts/BaseContract.sol\":2724:2762  mapping(address=>Kurs) public  kurslar */\n    tag_3:\n      tag_18\n      0x04\n      dup1\n      calldatasize\n      sub\n      dup2\n      add\n      swap1\n      tag_19\n      swap2\n      swap1\n      tag_20\n      jump\t// in\n    tag_19:\n      tag_21\n      jump\t// in\n    tag_18:\n      mload(0x40)\n      tag_22\n      swap4\n      swap3\n      swap2\n      swap1\n      tag_23\n      jump\t// in\n    tag_22:\n      mload(0x40)\n      dup1\n      swap2\n      sub\n      swap1\n      return\n        /* \"contracts/BaseContract.sol\":2563:2612  mapping(address=>Universite) public universiteler */\n    tag_4:\n      tag_24\n      0x04\n      dup1\n      calldatasize\n      sub\n      dup2\n      add\n      swap1\n      tag_25\n      swap2\n      swap1\n      tag_20\n      jump\t// in\n    tag_25:\n      tag_26\n      jump\t// in\n    tag_24:\n      mload(0x40)\n      tag_27\n      swap4\n      swap3\n      swap2\n      swap1\n      tag_23\n      jump\t// in\n    tag_27:\n      mload(0x40)\n      dup1\n      swap2\n      sub\n      swap1\n      return\n        /* \"contracts/BaseContract.sol\":2867:2928  mapping(address=>SertifikaMerkezi) public sertifikaMerkezleri */\n    tag_5:\n      tag_28\n      0x04\n      dup1\n      calldatasize\n      sub\n      dup2\n      add\n      swap1\n      tag_29\n      swap2\n      swap1\n      tag_20\n      jump\t// in\n    tag_29:\n      tag_30\n      jump\t// in\n    tag_28:\n      mload(0x40)\n      tag_31\n      swap4\n      swap3\n      swap2\n      swap1\n      tag_23\n      jump\t// in\n    tag_31:\n      mload(0x40)\n      dup1\n      swap2\n      sub\n      swap1\n      return\n        /* \"contracts/BaseContract.sol\":2677:2717  mapping(address=>Firma) public  firmalar */\n    tag_6:\n      tag_32\n      0x04\n      dup1\n      calldatasize\n      sub\n      dup2\n      add\n      swap1\n      tag_33\n      swap2\n      swap1\n      tag_20\n      jump\t// in\n    tag_33:\n      tag_34\n      jump\t// in\n    tag_32:\n      mload(0x40)\n      tag_35\n      swap5\n      swap4\n      swap3\n      swap2\n      swap1\n      tag_36\n      jump\t// in\n    tag_35:\n      mload(0x40)\n      dup1\n      swap2\n      sub\n      swap1\n      return\n        /* \"contracts/YabanciDilBilgileri.sol\":919:1799  function ekleYabanciDilBilgi(address _kisiAddress, YabanciDil memory _ydBilgi)  public sadece_Uni_Firma_Kamu{\r... */\n    tag_7:\n      tag_37\n      0x04\n      dup1\n      calldatasize\n      sub\n      dup2\n      add\n      swap1\n      tag_38\n      swap2\n      swap1\n      tag_39\n      jump\t// in\n    tag_38:\n      tag_40\n      jump\t// in\n    tag_37:\n      stop\n        /* \"contracts/BaseContract.sol\":2769:2818  mapping(address=>KamuKurumu) public kamuKurumlari */\n    tag_8:\n      tag_41\n      0x04\n      dup1\n      calldatasize\n      sub\n      dup2\n      add\n      swap1\n      tag_42\n      swap2\n      swap1\n      tag_20\n      jump\t// in\n    tag_42:\n      tag_43\n      jump\t// in\n    tag_41:\n      mload(0x40)\n      tag_44\n      swap4\n      swap3\n      swap2\n      swap1\n      tag_23\n      jump\t// in\n    tag_44:\n      mload(0x40)\n      dup1\n      swap2\n      sub\n      swap1\n      return\n        /* \"contracts/BaseContract.sol\":2825:2860  mapping(address=>STK) public stklar */\n    tag_9:\n      tag_45\n      0x04\n      dup1\n      calldatasize\n      sub\n      dup2\n      add\n      swap1\n      tag_46\n      swap2\n      swap1\n      tag_20\n      jump\t// in\n    tag_46:\n      tag_47\n      jump\t// in\n    tag_45:\n      mload(0x40)\n      tag_48\n      swap4\n      swap3\n      swap2\n      swap1\n      tag_23\n      jump\t// in\n    tag_48:\n      mload(0x40)\n      dup1\n      swap2\n      sub\n      swap1\n      return\n        /* \"contracts/BaseContract.sol\":2938:2972  mapping(uint32=>Dil) public diller */\n    tag_10:\n      tag_49\n      0x04\n      dup1\n      calldatasize\n      sub\n      dup2\n      add\n      swap1\n      tag_50\n      swap2\n      swap1\n      tag_51\n      jump\t// in\n    tag_50:\n      tag_52\n      jump\t// in\n    tag_49:\n      mload(0x40)\n      tag_53\n      swap3\n      swap2\n      swap1\n      tag_54\n      jump\t// in\n    tag_53:\n      mload(0x40)\n      dup1\n      swap2\n      sub\n      swap1\n      return\n        /* \"contracts/YabanciDilBilgileri.sol\":186:200  uint public id */\n    tag_11:\n      tag_55\n      tag_56\n      jump\t// in\n    tag_55:\n      mload(0x40)\n      tag_57\n      swap2\n      swap1\n      tag_58\n      jump\t// in\n    tag_57:\n      mload(0x40)\n      dup1\n      swap2\n      sub\n      swap1\n      return\n        /* \"contracts/BaseContract.sol\":2619:2670  mapping(address=>Akademisyen) public akademisyenler */\n    tag_12:\n      tag_59\n      0x04\n      dup1\n      calldatasize\n      sub\n      dup2\n      add\n      swap1\n      tag_60\n      swap2\n      swap1\n      tag_20\n      jump\t// in\n    tag_60:\n      tag_61\n      jump\t// in\n    tag_59:\n      mload(0x40)\n      tag_62\n      swap7\n      swap6\n      swap5\n      swap4\n      swap3\n      swap2\n      swap1\n      tag_63\n      jump\t// in\n    tag_62:\n      mload(0x40)\n      dup1\n      swap2\n      sub\n      swap1\n      return\n        /* \"contracts/BaseContract.sol\":2519:2556  mapping(address=>Kisi) public kisiler */\n    tag_13:\n      tag_64\n      0x04\n      dup1\n      calldatasize\n      sub\n      dup2\n      add\n      swap1\n      tag_65\n      swap2\n      swap1\n      tag_20\n      jump\t// in\n    tag_65:\n      tag_66\n      jump\t// in\n    tag_64:\n      mload(0x40)\n      tag_67\n      swap2\n      swap1\n      tag_68\n      jump\t// in\n    tag_67:\n      mload(0x40)\n      dup1\n      swap2\n      sub\n      swap1\n      return\n        /* \"contracts/YabanciDilBilgileri.sol\":1811:2798  function guncelleYabanciDilBilgi(address _kisiAddress, YabanciDil memory _ydBilgi)  public sadece_Uni_Firma_Kamu returns(uint){\r... */\n    tag_14:\n      tag_69\n      0x04\n      dup1\n      calldatasize\n      sub\n      dup2\n      add\n      swap1\n      tag_70\n      swap2\n      swap1\n      tag_39\n      jump\t// in\n    tag_70:\n      tag_71\n      jump\t// in\n    tag_69:\n      mload(0x40)\n      tag_72\n      swap2\n      swap1\n      tag_58\n      jump\t// in\n    tag_72:\n      mload(0x40)\n      dup1\n      swap2\n      sub\n      swap1\n      return\n        /* \"contracts/YabanciDilBilgileri.sol\":473:537  mapping(address=>mapping(uint=>YabanciDil)) public yabanciDiller */\n    tag_15:\n      tag_73\n      0x04\n      dup1\n      calldatasize\n      sub\n      dup2\n      add\n      swap1\n      tag_74\n      swap2\n      swap1\n      tag_75\n      jump\t// in\n    tag_74:\n      tag_76\n      jump\t// in\n    tag_73:\n      mload(0x40)\n      tag_77\n      swap8\n      swap7\n      swap6\n      swap5\n      swap4\n      swap3\n      swap2\n      swap1\n      tag_78\n      jump\t// in\n    tag_77:\n      mload(0x40)\n      dup1\n      swap2\n      sub\n      swap1\n      return\n        /* \"contracts/BaseContract.sol\":2724:2762  mapping(address=>Kurs) public  kurslar */\n    tag_21:\n      mstore(0x20, 0x07)\n      dup1\n      0x00\n      mstore\n      keccak256(0x00, 0x40)\n      0x00\n      swap2\n      pop\n      swap1\n      pop\n      dup1\n      0x00\n      add\n      0x00\n      swap1\n      sload\n      swap1\n      0x0100\n      exp\n      swap1\n      div\n      0xff\n      and\n      swap1\n      dup1\n      0x01\n      add\n      dup1\n      sload\n      tag_79\n      swap1\n      tag_80\n      jump\t// in\n    tag_79:\n      dup1\n      0x1f\n      add\n      0x20\n      dup1\n      swap2\n      div\n      mul\n      0x20\n      add\n      mload(0x40)\n      swap1\n      dup2\n      add\n      0x40\n      mstore\n      dup1\n      swap3\n      swap2\n      swap1\n      dup2\n      dup2\n      mstore\n      0x20\n      add\n      dup3\n      dup1\n      sload\n      tag_81\n      swap1\n      tag_80\n      jump\t// in\n    tag_81:\n      dup1\n      iszero\n      tag_82\n      jumpi\n      dup1\n      0x1f\n      lt\n      tag_83\n      jumpi\n      0x0100\n      dup1\n      dup4\n      sload\n      div\n      mul\n      dup4\n      mstore\n      swap2\n      0x20\n      add\n      swap2\n      jump(tag_82)\n    tag_83:\n      dup3\n      add\n      swap2\n      swap1\n      0x00\n      mstore\n      keccak256(0x00, 0x20)\n      swap1\n    tag_84:\n      dup2\n      sload\n      dup2\n      mstore\n      swap1\n      0x01\n      add\n      swap1\n      0x20\n      add\n      dup1\n      dup4\n      gt\n      tag_84\n      jumpi\n      dup3\n      swap1\n      sub\n      0x1f\n      and\n      dup3\n      add\n      swap2\n    tag_82:\n      pop\n      pop\n      pop\n      pop\n      pop\n      swap1\n      dup1\n      0x02\n      add\n      0x00\n      swap1\n      sload\n      swap1\n      0x0100\n      exp\n      swap1\n      div\n      0xff\n      and\n      swap1\n      pop\n      dup4\n      jump\t// out\n        /* \"contracts/BaseContract.sol\":2563:2612  mapping(address=>Universite) public universiteler */\n    tag_26:\n      mstore(0x20, 0x04)\n      dup1\n      0x00\n      mstore\n      keccak256(0x00, 0x40)\n      0x00\n      swap2\n      pop\n      swap1\n      pop\n      dup1\n      0x00\n      add\n      0x00\n      swap1\n      sload\n      swap1\n      0x0100\n      exp\n      swap1\n      div\n      0xff\n      and\n      swap1\n      dup1\n      0x01\n      add\n      dup1\n      sload\n      tag_85\n      swap1\n      tag_80\n      jump\t// in\n    tag_85:\n      dup1\n      0x1f\n      add\n      0x20\n      dup1\n      swap2\n      div\n      mul\n      0x20\n      add\n      mload(0x40)\n      swap1\n      dup2\n      add\n      0x40\n      mstore\n      dup1\n      swap3\n      swap2\n      swap1\n      dup2\n      dup2\n      mstore\n      0x20\n      add\n      dup3\n      dup1\n      sload\n      tag_86\n      swap1\n      tag_80\n      jump\t// in\n    tag_86:\n      dup1\n      iszero\n      tag_87\n      jumpi\n      dup1\n      0x1f\n      lt\n      tag_88\n      jumpi\n      0x0100\n      dup1\n      dup4\n      sload\n      div\n      mul\n      dup4\n      mstore\n      swap2\n      0x20\n      add\n      swap2\n      jump(tag_87)\n    tag_88:\n      dup3\n      add\n      swap2\n      swap1\n      0x00\n      mstore\n      keccak256(0x00, 0x20)\n      swap1\n    tag_89:\n      dup2\n      sload\n      dup2\n      mstore\n      swap1\n      0x01\n      add\n      swap1\n      0x20\n      add\n      dup1\n      dup4\n      gt\n      tag_89\n      jumpi\n      dup3\n      swap1\n      sub\n      0x1f\n      and\n      dup3\n      add\n      swap2\n    tag_87:\n      pop\n      pop\n      pop\n      pop\n      pop\n      swap1\n      dup1\n      0x02\n      add\n      0x00\n      swap1\n      sload\n      swap1\n      0x0100\n      exp\n      swap1\n      div\n      0xff\n      and\n      swap1\n      pop\n      dup4\n      jump\t// out\n        /* \"contracts/BaseContract.sol\":2867:2928  mapping(address=>SertifikaMerkezi) public sertifikaMerkezleri */\n    tag_30:\n      mstore(0x20, 0x0a)\n      dup1\n      0x00\n      mstore\n      keccak256(0x00, 0x40)\n      0x00\n      swap2\n      pop\n      swap1\n      pop\n      dup1\n      0x00\n      add\n      0x00\n      swap1\n      sload\n      swap1\n      0x0100\n      exp\n      swap1\n      div\n      0xff\n      and\n      swap1\n      dup1\n      0x01\n      add\n      dup1\n      sload\n      tag_90\n      swap1\n      tag_80\n      jump\t// in\n    tag_90:\n      dup1\n      0x1f\n      add\n      0x20\n      dup1\n      swap2\n      div\n      mul\n      0x20\n      add\n      mload(0x40)\n      swap1\n      dup2\n      add\n      0x40\n      mstore\n      dup1\n      swap3\n      swap2\n      swap1\n      dup2\n      dup2\n      mstore\n      0x20\n      add\n      dup3\n      dup1\n      sload\n      tag_91\n      swap1\n      tag_80\n      jump\t// in\n    tag_91:\n      dup1\n      iszero\n      tag_92\n      jumpi\n      dup1\n      0x1f\n      lt\n      tag_93\n      jumpi\n      0x0100\n      dup1\n      dup4\n      sload\n      div\n      mul\n      dup4\n      mstore\n      swap2\n      0x20\n      add\n      swap2\n      jump(tag_92)\n    tag_93:\n      dup3\n      add\n      swap2\n      swap1\n      0x00\n      mstore\n      keccak256(0x00, 0x20)\n      swap1\n    tag_94:\n      dup2\n      sload\n      dup2\n      mstore\n      swap1\n      0x01\n      add\n      swap1\n      0x20\n      add\n      dup1\n      dup4\n      gt\n      tag_94\n      jumpi\n      dup3\n      swap1\n      sub\n      0x1f\n      and\n      dup3\n      add\n      swap2\n    tag_92:\n      pop\n      pop\n      pop\n      pop\n      pop\n      swap1\n      dup1\n      0x02\n      add\n      0x00\n      swap1\n      sload\n      swap1\n      0x0100\n      exp\n      swap1\n      div\n      0xff\n      and\n      swap1\n      pop\n      dup4\n      jump\t// out\n        /* \"contracts/BaseContract.sol\":2677:2717  mapping(address=>Firma) public  firmalar */\n    tag_34:\n      mstore(0x20, 0x06)\n      dup1\n      0x00\n      mstore\n      keccak256(0x00, 0x40)\n      0x00\n      swap2\n      pop\n      swap1\n      pop\n      dup1\n      0x00\n      add\n      0x00\n      swap1\n      sload\n      swap1\n      0x0100\n      exp\n      swap1\n      div\n      0xff\n      and\n      swap1\n      dup1\n      0x00\n      add\n      0x01\n      swap1\n      sload\n      swap1\n      0x0100\n      exp\n      swap1\n      div\n      0xff\n      and\n      swap1\n      dup1\n      0x01\n      add\n      sload\n      swap1\n      dup1\n      0x02\n      add\n      dup1\n      sload\n      tag_95\n      swap1\n      tag_80\n      jump\t// in\n    tag_95:\n      dup1\n      0x1f\n      add\n      0x20\n      dup1\n      swap2\n      div\n      mul\n      0x20\n      add\n      mload(0x40)\n      swap1\n      dup2\n      add\n      0x40\n      mstore\n      dup1\n      swap3\n      swap2\n      swap1\n      dup2\n      dup2\n      mstore\n      0x20\n      add\n      dup3\n      dup1\n      sload\n      tag_96\n      swap1\n      tag_80\n      jump\t// in\n    tag_96:\n      dup1\n      iszero\n      tag_97\n      jumpi\n      dup1\n      0x1f\n      lt\n      tag_98\n      jumpi\n      0x0100\n      dup1\n      dup4\n      sload\n      div\n      mul\n      dup4\n      mstore\n      swap2\n      0x20\n      add\n      swap2\n      jump(tag_97)\n    tag_98:\n      dup3\n      add\n      swap2\n      swap1\n      0x00\n      mstore\n      keccak256(0x00, 0x20)\n      swap1\n    tag_99:\n      dup2\n      sload\n      dup2\n      mstore\n      swap1\n      0x01\n      add\n      swap1\n      0x20\n      add\n      dup1\n      dup4\n      gt\n      tag_99\n      jumpi\n      dup3\n      swap1\n      sub\n      0x1f\n      and\n      dup3\n      add\n      swap2\n    tag_97:\n      pop\n      pop\n      pop\n      pop\n      pop\n      swap1\n      pop\n      dup5\n      jump\t// out\n        /* \"contracts/YabanciDilBilgileri.sol\":919:1799  function ekleYabanciDilBilgi(address _kisiAddress, YabanciDil memory _ydBilgi)  public sadece_Uni_Firma_Kamu{\r... */\n    tag_40:\n        /* \"contracts/BaseContract.sol\":2190:2203  universiteler */\n      0x04\n        /* \"contracts/BaseContract.sol\":2190:2215  universiteler[msg.sender] */\n      0x00\n        /* \"contracts/BaseContract.sol\":2204:2214  msg.sender */\n      caller\n        /* \"contracts/BaseContract.sol\":2190:2215  universiteler[msg.sender] */\n      0xffffffffffffffffffffffffffffffffffffffff\n      and\n      0xffffffffffffffffffffffffffffffffffffffff\n      and\n      dup2\n      mstore\n      0x20\n      add\n      swap1\n      dup2\n      mstore\n      0x20\n      add\n      0x00\n      keccak256\n        /* \"contracts/BaseContract.sol\":2190:2221  universiteler[msg.sender].durum */\n      0x00\n      add\n      0x00\n      swap1\n      sload\n      swap1\n      0x0100\n      exp\n      swap1\n      div\n      0xff\n      and\n        /* \"contracts/BaseContract.sol\":2190:2249  universiteler[msg.sender].durum||firmalar[msg.sender].durum */\n      dup1\n      tag_101\n      jumpi\n      pop\n        /* \"contracts/BaseContract.sol\":2223:2231  firmalar */\n      0x06\n        /* \"contracts/BaseContract.sol\":2223:2243  firmalar[msg.sender] */\n      0x00\n        /* \"contracts/BaseContract.sol\":2232:2242  msg.sender */\n      caller\n        /* \"contracts/BaseContract.sol\":2223:2243  firmalar[msg.sender] */\n      0xffffffffffffffffffffffffffffffffffffffff\n      and\n      0xffffffffffffffffffffffffffffffffffffffff\n      and\n      dup2\n      mstore\n      0x20\n      add\n      swap1\n      dup2\n      mstore\n      0x20\n      add\n      0x00\n      keccak256\n        /* \"contracts/BaseContract.sol\":2223:2249  firmalar[msg.sender].durum */\n      0x00\n      add\n      0x00\n      swap1\n      sload\n      swap1\n      0x0100\n      exp\n      swap1\n      div\n      0xff\n      and\n        /* \"contracts/BaseContract.sol\":2190:2249  universiteler[msg.sender].durum||firmalar[msg.sender].durum */\n    tag_101:\n        /* \"contracts/BaseContract.sol\":2190:2282  universiteler[msg.sender].durum||firmalar[msg.sender].durum||kamuKurumlari[msg.sender].durum */\n      dup1\n      tag_102\n      jumpi\n      pop\n        /* \"contracts/BaseContract.sol\":2251:2264  kamuKurumlari */\n      0x08\n        /* \"contracts/BaseContract.sol\":2251:2276  kamuKurumlari[msg.sender] */\n      0x00\n        /* \"contracts/BaseContract.sol\":2265:2275  msg.sender */\n      caller\n        /* \"contracts/BaseContract.sol\":2251:2276  kamuKurumlari[msg.sender] */\n      0xffffffffffffffffffffffffffffffffffffffff\n      and\n      0xffffffffffffffffffffffffffffffffffffffff\n      and\n      dup2\n      mstore\n      0x20\n      add\n      swap1\n      dup2\n      mstore\n      0x20\n      add\n      0x00\n      keccak256\n        /* \"contracts/BaseContract.sol\":2251:2282  kamuKurumlari[msg.sender].durum */\n      0x00\n      add\n      0x00\n      swap1\n      sload\n      swap1\n      0x0100\n      exp\n      swap1\n      div\n      0xff\n      and\n        /* \"contracts/BaseContract.sol\":2190:2282  universiteler[msg.sender].durum||firmalar[msg.sender].durum||kamuKurumlari[msg.sender].durum */\n    tag_102:\n        /* \"contracts/BaseContract.sol\":2182:2334  require(universiteler[msg.sender].durum||firmalar[msg.sender].durum||kamuKurumlari[msg.sender].durum,\r... */\n      tag_103\n      jumpi\n      mload(0x40)\n      0x08c379a000000000000000000000000000000000000000000000000000000000\n      dup2\n      mstore\n      0x04\n      add\n      tag_104\n      swap1\n      tag_105\n      jump\t// in\n    tag_104:\n      mload(0x40)\n      dup1\n      swap2\n      sub\n      swap1\n      revert\n    tag_103:\n        /* \"contracts/YabanciDilBilgileri.sol\":1051:1058  kisiler */\n      0x03\n        /* \"contracts/YabanciDilBilgileri.sol\":1051:1072  kisiler[_kisiAddress] */\n      0x00\n        /* \"contracts/YabanciDilBilgileri.sol\":1059:1071  _kisiAddress */\n      dup4\n        /* \"contracts/YabanciDilBilgileri.sol\":1051:1072  kisiler[_kisiAddress] */\n      0xffffffffffffffffffffffffffffffffffffffff\n      and\n      0xffffffffffffffffffffffffffffffffffffffff\n      and\n      dup2\n      mstore\n      0x20\n      add\n      swap1\n      dup2\n      mstore\n      0x20\n      add\n      0x00\n      keccak256\n        /* \"contracts/YabanciDilBilgileri.sol\":1051:1078  kisiler[_kisiAddress].durum */\n      0x00\n      add\n      0x00\n      swap1\n      sload\n      swap1\n      0x0100\n      exp\n      swap1\n      div\n      0xff\n      and\n        /* \"contracts/YabanciDilBilgileri.sol\":1043:1099  require(kisiler[_kisiAddress].durum,\"Kisi mevcut degil\") */\n      tag_107\n      jumpi\n      mload(0x40)\n      0x08c379a000000000000000000000000000000000000000000000000000000000\n      dup2\n      mstore\n      0x04\n      add\n      tag_108\n      swap1\n      tag_109\n      jump\t// in\n    tag_108:\n      mload(0x40)\n      dup1\n      swap2\n      sub\n      swap1\n      revert\n    tag_107:\n        /* \"contracts/YabanciDilBilgileri.sol\":1115:1126  uint yeniId */\n      0x00\n        /* \"contracts/YabanciDilBilgileri.sol\":1127:1129  id */\n      0x0c\n      0x00\n        /* \"contracts/YabanciDilBilgileri.sol\":1127:1131  id++ */\n      dup2\n      sload\n      dup1\n      swap3\n      swap2\n      swap1\n      tag_110\n      swap1\n      tag_111\n      jump\t// in\n    tag_110:\n      swap2\n      swap1\n      pop\n      sstore\n        /* \"contracts/YabanciDilBilgileri.sol\":1115:1131  uint yeniId=id++ */\n      swap1\n      pop\n        /* \"contracts/YabanciDilBilgileri.sol\":1197:1205  _ydBilgi */\n      dup2\n        /* \"contracts/YabanciDilBilgileri.sol\":1197:1219  _ydBilgi.onayKurumTipi */\n      0x20\n      add\n      mload\n        /* \"contracts/YabanciDilBilgileri.sol\":1147:1160  yabanciDiller */\n      0x0d\n        /* \"contracts/YabanciDilBilgileri.sol\":1147:1174  yabanciDiller[_kisiAddress] */\n      0x00\n        /* \"contracts/YabanciDilBilgileri.sol\":1161:1173  _kisiAddress */\n      dup6\n        /* \"contracts/YabanciDilBilgileri.sol\":1147:1174  yabanciDiller[_kisiAddress] */\n      0xffffffffffffffffffffffffffffffffffffffff\n      and\n      0xffffffffffffffffffffffffffffffffffffffff\n      and\n      dup2\n      mstore\n      0x20\n      add\n      swap1\n      dup2\n      mstore\n      0x20\n      add\n      0x00\n      keccak256\n        /* \"contracts/YabanciDilBilgileri.sol\":1147:1182  yabanciDiller[_kisiAddress][yeniId] */\n      0x00\n        /* \"contracts/YabanciDilBilgileri.sol\":1175:1181  yeniId */\n      dup4\n        /* \"contracts/YabanciDilBilgileri.sol\":1147:1182  yabanciDiller[_kisiAddress][yeniId] */\n      dup2\n      mstore\n      0x20\n      add\n      swap1\n      dup2\n      mstore\n      0x20\n      add\n      0x00\n      keccak256\n        /* \"contracts/YabanciDilBilgileri.sol\":1147:1196  yabanciDiller[_kisiAddress][yeniId].onayKurumTipi */\n      0x01\n      add\n      0x00\n        /* \"contracts/YabanciDilBilgileri.sol\":1147:1219  yabanciDiller[_kisiAddress][yeniId].onayKurumTipi=_ydBilgi.onayKurumTipi */\n      0x0100\n      exp\n      dup2\n      sload\n      dup2\n      0xff\n      mul\n      not\n      and\n      swap1\n      dup4\n      0x04\n      dup2\n      gt\n      iszero\n      tag_112\n      jumpi\n      tag_113\n      tag_114\n      jump\t// in\n    tag_113:\n    tag_112:\n      mul\n      or\n      swap1\n      sstore\n      pop\n        /* \"contracts/YabanciDilBilgileri.sol\":1281:1289  _ydBilgi */\n      dup2\n        /* \"contracts/YabanciDilBilgileri.sol\":1281:1299  _ydBilgi.onayKurum */\n      0x40\n      add\n      mload\n        /* \"contracts/YabanciDilBilgileri.sol\":1235:1248  yabanciDiller */\n      0x0d\n        /* \"contracts/YabanciDilBilgileri.sol\":1235:1262  yabanciDiller[_kisiAddress] */\n      0x00\n        /* \"contracts/YabanciDilBilgileri.sol\":1249:1261  _kisiAddress */\n      dup6\n        /* \"contracts/YabanciDilBilgileri.sol\":1235:1262  yabanciDiller[_kisiAddress] */\n      0xffffffffffffffffffffffffffffffffffffffff\n      and\n      0xffffffffffffffffffffffffffffffffffffffff\n      and\n      dup2\n      mstore\n      0x20\n      add\n      swap1\n      dup2\n      mstore\n      0x20\n      add\n      0x00\n      keccak256\n        /* \"contracts/YabanciDilBilgileri.sol\":1235:1270  yabanciDiller[_kisiAddress][yeniId] */\n      0x00\n        /* \"contracts/YabanciDilBilgileri.sol\":1263:1269  yeniId */\n      dup4\n        /* \"contracts/YabanciDilBilgileri.sol\":1235:1270  yabanciDiller[_kisiAddress][yeniId] */\n      dup2\n      mstore\n      0x20\n      add\n      swap1\n      dup2\n      mstore\n      0x20\n      add\n      0x00\n      keccak256\n        /* \"contracts/YabanciDilBilgileri.sol\":1235:1280  yabanciDiller[_kisiAddress][yeniId].onayKurum */\n      0x01\n      add\n      0x01\n        /* \"contracts/YabanciDilBilgileri.sol\":1235:1299  yabanciDiller[_kisiAddress][yeniId].onayKurum=_ydBilgi.onayKurum */\n      0x0100\n      exp\n      dup2\n      sload\n      dup2\n      0xffffffffffffffffffffffffffffffffffffffff\n      mul\n      not\n      and\n      swap1\n      dup4\n      0xffffffffffffffffffffffffffffffffffffffff\n      and\n      mul\n      or\n      swap1\n      sstore\n      pop\n        /* \"contracts/YabanciDilBilgileri.sol\":1360:1368  _ydBilgi */\n      dup2\n        /* \"contracts/YabanciDilBilgileri.sol\":1360:1377  _ydBilgi.basTarih */\n      0x60\n      add\n      mload\n        /* \"contracts/YabanciDilBilgileri.sol\":1315:1328  yabanciDiller */\n      0x0d\n        /* \"contracts/YabanciDilBilgileri.sol\":1315:1342  yabanciDiller[_kisiAddress] */\n      0x00\n        /* \"contracts/YabanciDilBilgileri.sol\":1329:1341  _kisiAddress */\n      dup6\n        /* \"contracts/YabanciDilBilgileri.sol\":1315:1342  yabanciDiller[_kisiAddress] */\n      0xffffffffffffffffffffffffffffffffffffffff\n      and\n      0xffffffffffffffffffffffffffffffffffffffff\n      and\n      dup2\n      mstore\n      0x20\n      add\n      swap1\n      dup2\n      mstore\n      0x20\n      add\n      0x00\n      keccak256\n        /* \"contracts/YabanciDilBilgileri.sol\":1315:1350  yabanciDiller[_kisiAddress][yeniId] */\n      0x00\n        /* \"contracts/YabanciDilBilgileri.sol\":1343:1349  yeniId */\n      dup4\n        /* \"contracts/YabanciDilBilgileri.sol\":1315:1350  yabanciDiller[_kisiAddress][yeniId] */\n      dup2\n      mstore\n      0x20\n      add\n      swap1\n      dup2\n      mstore\n      0x20\n      add\n      0x00\n      keccak256\n        /* \"contracts/YabanciDilBilgileri.sol\":1315:1359  yabanciDiller[_kisiAddress][yeniId].basTarih */\n      0x02\n      add\n        /* \"contracts/YabanciDilBilgileri.sol\":1315:1377  yabanciDiller[_kisiAddress][yeniId].basTarih=_ydBilgi.basTarih */\n      dup2\n      swap1\n      sstore\n      pop\n        /* \"contracts/YabanciDilBilgileri.sol\":1438:1446  _ydBilgi */\n      dup2\n        /* \"contracts/YabanciDilBilgileri.sol\":1438:1455  _ydBilgi.bitTarih */\n      0x80\n      add\n      mload\n        /* \"contracts/YabanciDilBilgileri.sol\":1393:1406  yabanciDiller */\n      0x0d\n        /* \"contracts/YabanciDilBilgileri.sol\":1393:1420  yabanciDiller[_kisiAddress] */\n      0x00\n        /* \"contracts/YabanciDilBilgileri.sol\":1407:1419  _kisiAddress */\n      dup6\n        /* \"contracts/YabanciDilBilgileri.sol\":1393:1420  yabanciDiller[_kisiAddress] */\n      0xffffffffffffffffffffffffffffffffffffffff\n      and\n      0xffffffffffffffffffffffffffffffffffffffff\n      and\n      dup2\n      mstore\n      0x20\n      add\n      swap1\n      dup2\n      mstore\n      0x20\n      add\n      0x00\n      keccak256\n        /* \"contracts/YabanciDilBilgileri.sol\":1393:1428  yabanciDiller[_kisiAddress][yeniId] */\n      0x00\n        /* \"contracts/YabanciDilBilgileri.sol\":1421:1427  yeniId */\n      dup4\n        /* \"contracts/YabanciDilBilgileri.sol\":1393:1428  yabanciDiller[_kisiAddress][yeniId] */\n      dup2\n      mstore\n      0x20\n      add\n      swap1\n      dup2\n      mstore\n      0x20\n      add\n      0x00\n      keccak256\n        /* \"contracts/YabanciDilBilgileri.sol\":1393:1437  yabanciDiller[_kisiAddress][yeniId].bitTarih */\n      0x03\n      add\n        /* \"contracts/YabanciDilBilgileri.sol\":1393:1455  yabanciDiller[_kisiAddress][yeniId].bitTarih=_ydBilgi.bitTarih */\n      dup2\n      swap1\n      sstore\n      pop\n        /* \"contracts/YabanciDilBilgileri.sol\":1519:1527  _ydBilgi */\n      dup2\n        /* \"contracts/YabanciDilBilgileri.sol\":1519:1539  _ydBilgi.ogretimTipi */\n      0xa0\n      add\n      mload\n        /* \"contracts/YabanciDilBilgileri.sol\":1471:1484  yabanciDiller */\n      0x0d\n        /* \"contracts/YabanciDilBilgileri.sol\":1471:1498  yabanciDiller[_kisiAddress] */\n      0x00\n        /* \"contracts/YabanciDilBilgileri.sol\":1485:1497  _kisiAddress */\n      dup6\n        /* \"contracts/YabanciDilBilgileri.sol\":1471:1498  yabanciDiller[_kisiAddress] */\n      0xffffffffffffffffffffffffffffffffffffffff\n      and\n      0xffffffffffffffffffffffffffffffffffffffff\n      and\n      dup2\n      mstore\n      0x20\n      add\n      swap1\n      dup2\n      mstore\n      0x20\n      add\n      0x00\n      keccak256\n        /* \"contracts/YabanciDilBilgileri.sol\":1471:1506  yabanciDiller[_kisiAddress][yeniId] */\n      0x00\n        /* \"contracts/YabanciDilBilgileri.sol\":1499:1505  yeniId */\n      dup4\n        /* \"contracts/YabanciDilBilgileri.sol\":1471:1506  yabanciDiller[_kisiAddress][yeniId] */\n      dup2\n      mstore\n      0x20\n      add\n      swap1\n      dup2\n      mstore\n      0x20\n      add\n      0x00\n      keccak256\n        /* \"contracts/YabanciDilBilgileri.sol\":1471:1518  yabanciDiller[_kisiAddress][yeniId].ogretimTipi */\n      0x04\n      add\n      0x00\n        /* \"contracts/YabanciDilBilgileri.sol\":1471:1539  yabanciDiller[_kisiAddress][yeniId].ogretimTipi=_ydBilgi.ogretimTipi */\n      0x0100\n      exp\n      dup2\n      sload\n      dup2\n      0xff\n      mul\n      not\n      and\n      swap1\n      dup4\n      0x03\n      dup2\n      gt\n      iszero\n      tag_115\n      jumpi\n      tag_116\n      tag_114\n      jump\t// in\n    tag_116:\n    tag_115:\n      mul\n      or\n      swap1\n      sstore\n      pop\n        /* \"contracts/YabanciDilBilgileri.sol\":1597:1605  _ydBilgi */\n      dup2\n        /* \"contracts/YabanciDilBilgileri.sol\":1597:1611  _ydBilgi.dilId */\n      0xc0\n      add\n      mload\n        /* \"contracts/YabanciDilBilgileri.sol\":1555:1568  yabanciDiller */\n      0x0d\n        /* \"contracts/YabanciDilBilgileri.sol\":1555:1582  yabanciDiller[_kisiAddress] */\n      0x00\n        /* \"contracts/YabanciDilBilgileri.sol\":1569:1581  _kisiAddress */\n      dup6\n        /* \"contracts/YabanciDilBilgileri.sol\":1555:1582  yabanciDiller[_kisiAddress] */\n      0xffffffffffffffffffffffffffffffffffffffff\n      and\n      0xffffffffffffffffffffffffffffffffffffffff\n      and\n      dup2\n      mstore\n      0x20\n      add\n      swap1\n      dup2\n      mstore\n      0x20\n      add\n      0x00\n      keccak256\n        /* \"contracts/YabanciDilBilgileri.sol\":1555:1590  yabanciDiller[_kisiAddress][yeniId] */\n      0x00\n        /* \"contracts/YabanciDilBilgileri.sol\":1583:1589  yeniId */\n      dup4\n        /* \"contracts/YabanciDilBilgileri.sol\":1555:1590  yabanciDiller[_kisiAddress][yeniId] */\n      dup2\n      mstore\n      0x20\n      add\n      swap1\n      dup2\n      mstore\n      0x20\n      add\n      0x00\n      keccak256\n        /* \"contracts/YabanciDilBilgileri.sol\":1555:1596  yabanciDiller[_kisiAddress][yeniId].dilId */\n      0x04\n      add\n      0x01\n        /* \"contracts/YabanciDilBilgileri.sol\":1555:1611  yabanciDiller[_kisiAddress][yeniId].dilId=_ydBilgi.dilId */\n      0x0100\n      exp\n      dup2\n      sload\n      dup2\n      0xffffffff\n      mul\n      not\n      and\n      swap1\n      dup4\n      0xffffffff\n      and\n      mul\n      or\n      swap1\n      sstore\n      pop\n        /* \"contracts/YabanciDilBilgileri.sol\":1645:1787  YabanciDilEklendiLog(_ydBilgi.onayKurumTipi, _ydBilgi.onayKurum,  _ydBilgi.basTarih,  _ydBilgi.bitTarih, _ydBilgi.ogretimTipi, _ydBilgi.dilId) */\n      0x7ba1bbcf238bfcb5340d21d7c5589befed8cf4fd0b2a031a143aab22cf1d047b\n        /* \"contracts/YabanciDilBilgileri.sol\":1666:1674  _ydBilgi */\n      dup3\n        /* \"contracts/YabanciDilBilgileri.sol\":1666:1688  _ydBilgi.onayKurumTipi */\n      0x20\n      add\n      mload\n        /* \"contracts/YabanciDilBilgileri.sol\":1690:1698  _ydBilgi */\n      dup4\n        /* \"contracts/YabanciDilBilgileri.sol\":1690:1708  _ydBilgi.onayKurum */\n      0x40\n      add\n      mload\n        /* \"contracts/YabanciDilBilgileri.sol\":1711:1719  _ydBilgi */\n      dup5\n        /* \"contracts/YabanciDilBilgileri.sol\":1711:1728  _ydBilgi.basTarih */\n      0x60\n      add\n      mload\n        /* \"contracts/YabanciDilBilgileri.sol\":1731:1739  _ydBilgi */\n      dup6\n        /* \"contracts/YabanciDilBilgileri.sol\":1731:1748  _ydBilgi.bitTarih */\n      0x80\n      add\n      mload\n        /* \"contracts/YabanciDilBilgileri.sol\":1750:1758  _ydBilgi */\n      dup7\n        /* \"contracts/YabanciDilBilgileri.sol\":1750:1770  _ydBilgi.ogretimTipi */\n      0xa0\n      add\n      mload\n        /* \"contracts/YabanciDilBilgileri.sol\":1772:1780  _ydBilgi */\n      dup8\n        /* \"contracts/YabanciDilBilgileri.sol\":1772:1786  _ydBilgi.dilId */\n      0xc0\n      add\n      mload\n        /* \"contracts/YabanciDilBilgileri.sol\":1645:1787  YabanciDilEklendiLog(_ydBilgi.onayKurumTipi, _ydBilgi.onayKurum,  _ydBilgi.basTarih,  _ydBilgi.bitTarih, _ydBilgi.ogretimTipi, _ydBilgi.dilId) */\n      mload(0x40)\n      tag_117\n      swap7\n      swap6\n      swap5\n      swap4\n      swap3\n      swap2\n      swap1\n      tag_118\n      jump\t// in\n    tag_117:\n      mload(0x40)\n      dup1\n      swap2\n      sub\n      swap1\n      log1\n        /* \"contracts/YabanciDilBilgileri.sol\":1027:1799  {\r... */\n      pop\n        /* \"contracts/YabanciDilBilgileri.sol\":919:1799  function ekleYabanciDilBilgi(address _kisiAddress, YabanciDil memory _ydBilgi)  public sadece_Uni_Firma_Kamu{\r... */\n      pop\n      pop\n      jump\t// out\n        /* \"contracts/BaseContract.sol\":2769:2818  mapping(address=>KamuKurumu) public kamuKurumlari */\n    tag_43:\n      mstore(0x20, 0x08)\n      dup1\n      0x00\n      mstore\n      keccak256(0x00, 0x40)\n      0x00\n      swap2\n      pop\n      swap1\n      pop\n      dup1\n      0x00\n      add\n      0x00\n      swap1\n      sload\n      swap1\n      0x0100\n      exp\n      swap1\n      div\n      0xff\n      and\n      swap1\n      dup1\n      0x01\n      add\n      dup1\n      sload\n      tag_119\n      swap1\n      tag_80\n      jump\t// in\n    tag_119:\n      dup1\n      0x1f\n      add\n      0x20\n      dup1\n      swap2\n      div\n      mul\n      0x20\n      add\n      mload(0x40)\n      swap1\n      dup2\n      add\n      0x40\n      mstore\n      dup1\n      swap3\n      swap2\n      swap1\n      dup2\n      dup2\n      mstore\n      0x20\n      add\n      dup3\n      dup1\n      sload\n      tag_120\n      swap1\n      tag_80\n      jump\t// in\n    tag_120:\n      dup1\n      iszero\n      tag_121\n      jumpi\n      dup1\n      0x1f\n      lt\n      tag_122\n      jumpi\n      0x0100\n      dup1\n      dup4\n      sload\n      div\n      mul\n      dup4\n      mstore\n      swap2\n      0x20\n      add\n      swap2\n      jump(tag_121)\n    tag_122:\n      dup3\n      add\n      swap2\n      swap1\n      0x00\n      mstore\n      keccak256(0x00, 0x20)\n      swap1\n    tag_123:\n      dup2\n      sload\n      dup2\n      mstore\n      swap1\n      0x01\n      add\n      swap1\n      0x20\n      add\n      dup1\n      dup4\n      gt\n      tag_123\n      jumpi\n      dup3\n      swap1\n      sub\n      0x1f\n      and\n      dup3\n      add\n      swap2\n    tag_121:\n      pop\n      pop\n      pop\n      pop\n      pop\n      swap1\n      dup1\n      0x02\n      add\n      0x00\n      swap1\n      sload\n      swap1\n      0x0100\n      exp\n      swap1\n      div\n      0xff\n      and\n      swap1\n      pop\n      dup4\n      jump\t// out\n        /* \"contracts/BaseContract.sol\":2825:2860  mapping(address=>STK) public stklar */\n    tag_47:\n      mstore(0x20, 0x09)\n      dup1\n      0x00\n      mstore\n      keccak256(0x00, 0x40)\n      0x00\n      swap2\n      pop\n      swap1\n      pop\n      dup1\n      0x00\n      add\n      0x00\n      swap1\n      sload\n      swap1\n      0x0100\n      exp\n      swap1\n      div\n      0xff\n      and\n      swap1\n      dup1\n      0x01\n      add\n      dup1\n      sload\n      tag_124\n      swap1\n      tag_80\n      jump\t// in\n    tag_124:\n      dup1\n      0x1f\n      add\n      0x20\n      dup1\n      swap2\n      div\n      mul\n      0x20\n      add\n      mload(0x40)\n      swap1\n      dup2\n      add\n      0x40\n      mstore\n      dup1\n      swap3\n      swap2\n      swap1\n      dup2\n      dup2\n      mstore\n      0x20\n      add\n      dup3\n      dup1\n      sload\n      tag_125\n      swap1\n      tag_80\n      jump\t// in\n    tag_125:\n      dup1\n      iszero\n      tag_126\n      jumpi\n      dup1\n      0x1f\n      lt\n      tag_127\n      jumpi\n      0x0100\n      dup1\n      dup4\n      sload\n      div\n      mul\n      dup4\n      mstore\n      swap2\n      0x20\n      add\n      swap2\n      jump(tag_126)\n    tag_127:\n      dup3\n      add\n      swap2\n      swap1\n      0x00\n      mstore\n      keccak256(0x00, 0x20)\n      swap1\n    tag_128:\n      dup2\n      sload\n      dup2\n      mstore\n      swap1\n      0x01\n      add\n      swap1\n      0x20\n      add\n      dup1\n      dup4\n      gt\n      tag_128\n      jumpi\n      dup3\n      swap1\n      sub\n      0x1f\n      and\n      dup3\n      add\n      swap2\n    tag_126:\n      pop\n      pop\n      pop\n      pop\n      pop\n      swap1\n      dup1\n      0x02\n      add\n      0x00\n      swap1\n      sload\n      swap1\n      0x0100\n      exp\n      swap1\n      div\n      0xff\n      and\n      swap1\n      pop\n      dup4\n      jump\t// out\n        /* \"contracts/BaseContract.sol\":2938:2972  mapping(uint32=>Dil) public diller */\n    tag_52:\n      mstore(0x20, 0x0b)\n      dup1\n      0x00\n      mstore\n      keccak256(0x00, 0x40)\n      0x00\n      swap2\n      pop\n      swap1\n      pop\n      dup1\n      0x00\n      add\n      0x00\n      swap1\n      sload\n      swap1\n      0x0100\n      exp\n      swap1\n      div\n      0xffffffff\n      and\n      swap1\n      dup1\n      0x01\n      add\n      dup1\n      sload\n      tag_129\n      swap1\n      tag_80\n      jump\t// in\n    tag_129:\n      dup1\n      0x1f\n      add\n      0x20\n      dup1\n      swap2\n      div\n      mul\n      0x20\n      add\n      mload(0x40)\n      swap1\n      dup2\n      add\n      0x40\n      mstore\n      dup1\n      swap3\n      swap2\n      swap1\n      dup2\n      dup2\n      mstore\n      0x20\n      add\n      dup3\n      dup1\n      sload\n      tag_130\n      swap1\n      tag_80\n      jump\t// in\n    tag_130:\n      dup1\n      iszero\n      tag_131\n      jumpi\n      dup1\n      0x1f\n      lt\n      tag_132\n      jumpi\n      0x0100\n      dup1\n      dup4\n      sload\n      div\n      mul\n      dup4\n      mstore\n      swap2\n      0x20\n      add\n      swap2\n      jump(tag_131)\n    tag_132:\n      dup3\n      add\n      swap2\n      swap1\n      0x00\n      mstore\n      keccak256(0x00, 0x20)\n      swap1\n    tag_133:\n      dup2\n      sload\n      dup2\n      mstore\n      swap1\n      0x01\n      add\n      swap1\n      0x20\n      add\n      dup1\n      dup4\n      gt\n      tag_133\n      jumpi\n      dup3\n      swap1\n      sub\n      0x1f\n      and\n      dup3\n      add\n      swap2\n    tag_131:\n      pop\n      pop\n      pop\n      pop\n      pop\n      swap1\n      pop\n      dup3\n      jump\t// out\n        /* \"contracts/YabanciDilBilgileri.sol\":186:200  uint public id */\n    tag_56:\n      sload(0x0c)\n      dup2\n      jump\t// out\n        /* \"contracts/BaseContract.sol\":2619:2670  mapping(address=>Akademisyen) public akademisyenler */\n    tag_61:\n      mstore(0x20, 0x05)\n      dup1\n      0x00\n      mstore\n      keccak256(0x00, 0x40)\n      0x00\n      swap2\n      pop\n      swap1\n      pop\n      dup1\n      0x00\n      add\n      0x00\n      swap1\n      sload\n      swap1\n      0x0100\n      exp\n      swap1\n      div\n      0xff\n      and\n      swap1\n      dup1\n      0x00\n      add\n      0x01\n      swap1\n      sload\n      swap1\n      0x0100\n      exp\n      swap1\n      div\n      0xffffffffffffffffffffffffffffffffffffffff\n      and\n      swap1\n      dup1\n      0x00\n      add\n      0x15\n      swap1\n      sload\n      swap1\n      0x0100\n      exp\n      swap1\n      div\n      0xffff\n      and\n      swap1\n      dup1\n      0x00\n      add\n      0x17\n      swap1\n      sload\n      swap1\n      0x0100\n      exp\n      swap1\n      div\n      0xff\n      and\n      swap1\n      dup1\n      0x01\n      add\n      dup1\n      sload\n      tag_134\n      swap1\n      tag_80\n      jump\t// in\n    tag_134:\n      dup1\n      0x1f\n      add\n      0x20\n      dup1\n      swap2\n      div\n      mul\n      0x20\n      add\n      mload(0x40)\n      swap1\n      dup2\n      add\n      0x40\n      mstore\n      dup1\n      swap3\n      swap2\n      swap1\n      dup2\n      dup2\n      mstore\n      0x20\n      add\n      dup3\n      dup1\n      sload\n      tag_135\n      swap1\n      tag_80\n      jump\t// in\n    tag_135:\n      dup1\n      iszero\n      tag_136\n      jumpi\n      dup1\n      0x1f\n      lt\n      tag_137\n      jumpi\n      0x0100\n      dup1\n      dup4\n      sload\n      div\n      mul\n      dup4\n      mstore\n      swap2\n      0x20\n      add\n      swap2\n      jump(tag_136)\n    tag_137:\n      dup3\n      add\n      swap2\n      swap1\n      0x00\n      mstore\n      keccak256(0x00, 0x20)\n      swap1\n    tag_138:\n      dup2\n      sload\n      dup2\n      mstore\n      swap1\n      0x01\n      add\n      swap1\n      0x20\n      add\n      dup1\n      dup4\n      gt\n      tag_138\n      jumpi\n      dup3\n      swap1\n      sub\n      0x1f\n      and\n      dup3\n      add\n      swap2\n    tag_136:\n      pop\n      pop\n      pop\n      pop\n      pop\n      swap1\n      dup1\n      0x02\n      add\n      dup1\n      sload\n      tag_139\n      swap1\n      tag_80\n      jump\t// in\n    tag_139:\n      dup1\n      0x1f\n      add\n      0x20\n      dup1\n      swap2\n      div\n      mul\n      0x20\n      add\n      mload(0x40)\n      swap1\n      dup2\n      add\n      0x40\n      mstore\n      dup1\n      swap3\n      swap2\n      swap1\n      dup2\n      dup2\n      mstore\n      0x20\n      add\n      dup3\n      dup1\n      sload\n      tag_140\n      swap1\n      tag_80\n      jump\t// in\n    tag_140:\n      dup1\n      iszero\n      tag_141\n      jumpi\n      dup1\n      0x1f\n      lt\n      tag_142\n      jumpi\n      0x0100\n      dup1\n      dup4\n      sload\n      div\n      mul\n      dup4\n      mstore\n      swap2\n      0x20\n      add\n      swap2\n      jump(tag_141)\n    tag_142:\n      dup3\n      add\n      swap2\n      swap1\n      0x00\n      mstore\n      keccak256(0x00, 0x20)\n      swap1\n    tag_143:\n      dup2\n      sload\n      dup2\n      mstore\n      swap1\n      0x01\n      add\n      swap1\n      0x20\n      add\n      dup1\n      dup4\n      gt\n      tag_143\n      jumpi\n      dup3\n      swap1\n      sub\n      0x1f\n      and\n      dup3\n      add\n      swap2\n    tag_141:\n      pop\n      pop\n      pop\n      pop\n      pop\n      swap1\n      pop\n      dup7\n      jump\t// out\n        /* \"contracts/BaseContract.sol\":2519:2556  mapping(address=>Kisi) public kisiler */\n    tag_66:\n      mstore(0x20, 0x03)\n      dup1\n      0x00\n      mstore\n      keccak256(0x00, 0x40)\n      0x00\n      swap2\n      pop\n      swap1\n      pop\n      dup1\n      0x00\n      add\n      0x00\n      swap1\n      sload\n      swap1\n      0x0100\n      exp\n      swap1\n      div\n      0xff\n      and\n      swap1\n      pop\n      dup2\n      jump\t// out\n        /* \"contracts/YabanciDilBilgileri.sol\":1811:2798  function guncelleYabanciDilBilgi(address _kisiAddress, YabanciDil memory _ydBilgi)  public sadece_Uni_Firma_Kamu returns(uint){\r... */\n    tag_71:\n        /* \"contracts/YabanciDilBilgileri.sol\":1932:1936  uint */\n      0x00\n        /* \"contracts/BaseContract.sol\":2190:2203  universiteler */\n      0x04\n        /* \"contracts/BaseContract.sol\":2190:2215  universiteler[msg.sender] */\n      0x00\n        /* \"contracts/BaseContract.sol\":2204:2214  msg.sender */\n      caller\n        /* \"contracts/BaseContract.sol\":2190:2215  universiteler[msg.sender] */\n      0xffffffffffffffffffffffffffffffffffffffff\n      and\n      0xffffffffffffffffffffffffffffffffffffffff\n      and\n      dup2\n      mstore\n      0x20\n      add\n      swap1\n      dup2\n      mstore\n      0x20\n      add\n      0x00\n      keccak256\n        /* \"contracts/BaseContract.sol\":2190:2221  universiteler[msg.sender].durum */\n      0x00\n      add\n      0x00\n      swap1\n      sload\n      swap1\n      0x0100\n      exp\n      swap1\n      div\n      0xff\n      and\n        /* \"contracts/BaseContract.sol\":2190:2249  universiteler[msg.sender].durum||firmalar[msg.sender].durum */\n      dup1\n      tag_145\n      jumpi\n      pop\n        /* \"contracts/BaseContract.sol\":2223:2231  firmalar */\n      0x06\n        /* \"contracts/BaseContract.sol\":2223:2243  firmalar[msg.sender] */\n      0x00\n        /* \"contracts/BaseContract.sol\":2232:2242  msg.sender */\n      caller\n        /* \"contracts/BaseContract.sol\":2223:2243  firmalar[msg.sender] */\n      0xffffffffffffffffffffffffffffffffffffffff\n      and\n      0xffffffffffffffffffffffffffffffffffffffff\n      and\n      dup2\n      mstore\n      0x20\n      add\n      swap1\n      dup2\n      mstore\n      0x20\n      add\n      0x00\n      keccak256\n        /* \"contracts/BaseContract.sol\":2223:2249  firmalar[msg.sender].durum */\n      0x00\n      add\n      0x00\n      swap1\n      sload\n      swap1\n      0x0100\n      exp\n      swap1\n      div\n      0xff\n      and\n        /* \"contracts/BaseContract.sol\":2190:2249  universiteler[msg.sender].durum||firmalar[msg.sender].durum */\n    tag_145:\n        /* \"contracts/BaseContract.sol\":2190:2282  universiteler[msg.sender].durum||firmalar[msg.sender].durum||kamuKurumlari[msg.sender].durum */\n      dup1\n      tag_146\n      jumpi\n      pop\n        /* \"contracts/BaseContract.sol\":2251:2264  kamuKurumlari */\n      0x08\n        /* \"contracts/BaseContract.sol\":2251:2276  kamuKurumlari[msg.sender] */\n      0x00\n        /* \"contracts/BaseContract.sol\":2265:2275  msg.sender */\n      caller\n        /* \"contracts/BaseContract.sol\":2251:2276  kamuKurumlari[msg.sender] */\n      0xffffffffffffffffffffffffffffffffffffffff\n      and\n      0xffffffffffffffffffffffffffffffffffffffff\n      and\n      dup2\n      mstore\n      0x20\n      add\n      swap1\n      dup2\n      mstore\n      0x20\n      add\n      0x00\n      keccak256\n        /* \"contracts/BaseContract.sol\":2251:2282  kamuKurumlari[msg.sender].durum */\n      0x00\n      add\n      0x00\n      swap1\n      sload\n      swap1\n      0x0100\n      exp\n      swap1\n      div\n      0xff\n      and\n        /* \"contracts/BaseContract.sol\":2190:2282  universiteler[msg.sender].durum||firmalar[msg.sender].durum||kamuKurumlari[msg.sender].durum */\n    tag_146:\n        /* \"contracts/BaseContract.sol\":2182:2334  require(universiteler[msg.sender].durum||firmalar[msg.sender].durum||kamuKurumlari[msg.sender].durum,\r... */\n      tag_147\n      jumpi\n      mload(0x40)\n      0x08c379a000000000000000000000000000000000000000000000000000000000\n      dup2\n      mstore\n      0x04\n      add\n      tag_148\n      swap1\n      tag_105\n      jump\t// in\n    tag_148:\n      mload(0x40)\n      dup1\n      swap2\n      sub\n      swap1\n      revert\n    tag_147:\n        /* \"contracts/YabanciDilBilgileri.sol\":1964:1971  kisiler */\n      0x03\n        /* \"contracts/YabanciDilBilgileri.sol\":1964:1985  kisiler[_kisiAddress] */\n      0x00\n        /* \"contracts/YabanciDilBilgileri.sol\":1972:1984  _kisiAddress */\n      dup5\n        /* \"contracts/YabanciDilBilgileri.sol\":1964:1985  kisiler[_kisiAddress] */\n      0xffffffffffffffffffffffffffffffffffffffff\n      and\n      0xffffffffffffffffffffffffffffffffffffffff\n      and\n      dup2\n      mstore\n      0x20\n      add\n      swap1\n      dup2\n      mstore\n      0x20\n      add\n      0x00\n      keccak256\n        /* \"contracts/YabanciDilBilgileri.sol\":1964:1991  kisiler[_kisiAddress].durum */\n      0x00\n      add\n      0x00\n      swap1\n      sload\n      swap1\n      0x0100\n      exp\n      swap1\n      div\n      0xff\n      and\n        /* \"contracts/YabanciDilBilgileri.sol\":1956:2012  require(kisiler[_kisiAddress].durum,\"Kisi mevcut degil\") */\n      tag_150\n      jumpi\n      mload(0x40)\n      0x08c379a000000000000000000000000000000000000000000000000000000000\n      dup2\n      mstore\n      0x04\n      add\n      tag_151\n      swap1\n      tag_109\n      jump\t// in\n    tag_151:\n      mload(0x40)\n      dup1\n      swap2\n      sub\n      swap1\n      revert\n    tag_150:\n        /* \"contracts/YabanciDilBilgileri.sol\":2104:2112  _ydBilgi */\n      dup2\n        /* \"contracts/YabanciDilBilgileri.sol\":2104:2126  _ydBilgi.onayKurumTipi */\n      0x20\n      add\n      mload\n        /* \"contracts/YabanciDilBilgileri.sol\":2049:2062  yabanciDiller */\n      0x0d\n        /* \"contracts/YabanciDilBilgileri.sol\":2049:2076  yabanciDiller[_kisiAddress] */\n      0x00\n        /* \"contracts/YabanciDilBilgileri.sol\":2063:2075  _kisiAddress */\n      dup6\n        /* \"contracts/YabanciDilBilgileri.sol\":2049:2076  yabanciDiller[_kisiAddress] */\n      0xffffffffffffffffffffffffffffffffffffffff\n      and\n      0xffffffffffffffffffffffffffffffffffffffff\n      and\n      dup2\n      mstore\n      0x20\n      add\n      swap1\n      dup2\n      mstore\n      0x20\n      add\n      0x00\n      keccak256\n        /* \"contracts/YabanciDilBilgileri.sol\":2049:2089  yabanciDiller[_kisiAddress][_ydBilgi.id] */\n      0x00\n        /* \"contracts/YabanciDilBilgileri.sol\":2077:2085  _ydBilgi */\n      dup5\n        /* \"contracts/YabanciDilBilgileri.sol\":2077:2088  _ydBilgi.id */\n      0x00\n      add\n      mload\n        /* \"contracts/YabanciDilBilgileri.sol\":2049:2089  yabanciDiller[_kisiAddress][_ydBilgi.id] */\n      dup2\n      mstore\n      0x20\n      add\n      swap1\n      dup2\n      mstore\n      0x20\n      add\n      0x00\n      keccak256\n        /* \"contracts/YabanciDilBilgileri.sol\":2049:2103  yabanciDiller[_kisiAddress][_ydBilgi.id].onayKurumTipi */\n      0x01\n      add\n      0x00\n        /* \"contracts/YabanciDilBilgileri.sol\":2049:2126  yabanciDiller[_kisiAddress][_ydBilgi.id].onayKurumTipi=_ydBilgi.onayKurumTipi */\n      0x0100\n      exp\n      dup2\n      sload\n      dup2\n      0xff\n      mul\n      not\n      and\n      swap1\n      dup4\n      0x04\n      dup2\n      gt\n      iszero\n      tag_152\n      jumpi\n      tag_153\n      tag_114\n      jump\t// in\n    tag_153:\n    tag_152:\n      mul\n      or\n      swap1\n      sstore\n      pop\n        /* \"contracts/YabanciDilBilgileri.sol\":2196:2204  _ydBilgi */\n      dup2\n        /* \"contracts/YabanciDilBilgileri.sol\":2196:2214  _ydBilgi.onayKurum */\n      0x40\n      add\n      mload\n        /* \"contracts/YabanciDilBilgileri.sol\":2145:2158  yabanciDiller */\n      0x0d\n        /* \"contracts/YabanciDilBilgileri.sol\":2145:2172  yabanciDiller[_kisiAddress] */\n      0x00\n        /* \"contracts/YabanciDilBilgileri.sol\":2159:2171  _kisiAddress */\n      dup6\n        /* \"contracts/YabanciDilBilgileri.sol\":2145:2172  yabanciDiller[_kisiAddress] */\n      0xffffffffffffffffffffffffffffffffffffffff\n      and\n      0xffffffffffffffffffffffffffffffffffffffff\n      and\n      dup2\n      mstore\n      0x20\n      add\n      swap1\n      dup2\n      mstore\n      0x20\n      add\n      0x00\n      keccak256\n        /* \"contracts/YabanciDilBilgileri.sol\":2145:2185  yabanciDiller[_kisiAddress][_ydBilgi.id] */\n      0x00\n        /* \"contracts/YabanciDilBilgileri.sol\":2173:2181  _ydBilgi */\n      dup5\n        /* \"contracts/YabanciDilBilgileri.sol\":2173:2184  _ydBilgi.id */\n      0x00\n      add\n      mload\n        /* \"contracts/YabanciDilBilgileri.sol\":2145:2185  yabanciDiller[_kisiAddress][_ydBilgi.id] */\n      dup2\n      mstore\n      0x20\n      add\n      swap1\n      dup2\n      mstore\n      0x20\n      add\n      0x00\n      keccak256\n        /* \"contracts/YabanciDilBilgileri.sol\":2145:2195  yabanciDiller[_kisiAddress][_ydBilgi.id].onayKurum */\n      0x01\n      add\n      0x01\n        /* \"contracts/YabanciDilBilgileri.sol\":2145:2214  yabanciDiller[_kisiAddress][_ydBilgi.id].onayKurum=_ydBilgi.onayKurum */\n      0x0100\n      exp\n      dup2\n      sload\n      dup2\n      0xffffffffffffffffffffffffffffffffffffffff\n      mul\n      not\n      and\n      swap1\n      dup4\n      0xffffffffffffffffffffffffffffffffffffffff\n      and\n      mul\n      or\n      swap1\n      sstore\n      pop\n        /* \"contracts/YabanciDilBilgileri.sol\":2283:2291  _ydBilgi */\n      dup2\n        /* \"contracts/YabanciDilBilgileri.sol\":2283:2300  _ydBilgi.basTarih */\n      0x60\n      add\n      mload\n        /* \"contracts/YabanciDilBilgileri.sol\":2233:2246  yabanciDiller */\n      0x0d\n        /* \"contracts/YabanciDilBilgileri.sol\":2233:2260  yabanciDiller[_kisiAddress] */\n      0x00\n        /* \"contracts/YabanciDilBilgileri.sol\":2247:2259  _kisiAddress */\n      dup6\n        /* \"contracts/YabanciDilBilgileri.sol\":2233:2260  yabanciDiller[_kisiAddress] */\n      0xffffffffffffffffffffffffffffffffffffffff\n      and\n      0xffffffffffffffffffffffffffffffffffffffff\n      and\n      dup2\n      mstore\n      0x20\n      add\n      swap1\n      dup2\n      mstore\n      0x20\n      add\n      0x00\n      keccak256\n        /* \"contracts/YabanciDilBilgileri.sol\":2233:2273  yabanciDiller[_kisiAddress][_ydBilgi.id] */\n      0x00\n        /* \"contracts/YabanciDilBilgileri.sol\":2261:2269  _ydBilgi */\n      dup5\n        /* \"contracts/YabanciDilBilgileri.sol\":2261:2272  _ydBilgi.id */\n      0x00\n      add\n      mload\n        /* \"contracts/YabanciDilBilgileri.sol\":2233:2273  yabanciDiller[_kisiAddress][_ydBilgi.id] */\n      dup2\n      mstore\n      0x20\n      add\n      swap1\n      dup2\n      mstore\n      0x20\n      add\n      0x00\n      keccak256\n        /* \"contracts/YabanciDilBilgileri.sol\":2233:2282  yabanciDiller[_kisiAddress][_ydBilgi.id].basTarih */\n      0x02\n      add\n        /* \"contracts/YabanciDilBilgileri.sol\":2233:2300  yabanciDiller[_kisiAddress][_ydBilgi.id].basTarih=_ydBilgi.basTarih */\n      dup2\n      swap1\n      sstore\n      pop\n        /* \"contracts/YabanciDilBilgileri.sol\":2369:2377  _ydBilgi */\n      dup2\n        /* \"contracts/YabanciDilBilgileri.sol\":2369:2386  _ydBilgi.bitTarih */\n      0x80\n      add\n      mload\n        /* \"contracts/YabanciDilBilgileri.sol\":2319:2332  yabanciDiller */\n      0x0d\n        /* \"contracts/YabanciDilBilgileri.sol\":2319:2346  yabanciDiller[_kisiAddress] */\n      0x00\n        /* \"contracts/YabanciDilBilgileri.sol\":2333:2345  _kisiAddress */\n      dup6\n        /* \"contracts/YabanciDilBilgileri.sol\":2319:2346  yabanciDiller[_kisiAddress] */\n      0xffffffffffffffffffffffffffffffffffffffff\n      and\n      0xffffffffffffffffffffffffffffffffffffffff\n      and\n      dup2\n      mstore\n      0x20\n      add\n      swap1\n      dup2\n      mstore\n      0x20\n      add\n      0x00\n      keccak256\n        /* \"contracts/YabanciDilBilgileri.sol\":2319:2359  yabanciDiller[_kisiAddress][_ydBilgi.id] */\n      0x00\n        /* \"contracts/YabanciDilBilgileri.sol\":2347:2355  _ydBilgi */\n      dup5\n        /* \"contracts/YabanciDilBilgileri.sol\":2347:2358  _ydBilgi.id */\n      0x00\n      add\n      mload\n        /* \"contracts/YabanciDilBilgileri.sol\":2319:2359  yabanciDiller[_kisiAddress][_ydBilgi.id] */\n      dup2\n      mstore\n      0x20\n      add\n      swap1\n      dup2\n      mstore\n      0x20\n      add\n      0x00\n      keccak256\n        /* \"contracts/YabanciDilBilgileri.sol\":2319:2368  yabanciDiller[_kisiAddress][_ydBilgi.id].bitTarih */\n      0x03\n      add\n        /* \"contracts/YabanciDilBilgileri.sol\":2319:2386  yabanciDiller[_kisiAddress][_ydBilgi.id].bitTarih=_ydBilgi.bitTarih */\n      dup2\n      swap1\n      sstore\n      pop\n        /* \"contracts/YabanciDilBilgileri.sol\":2458:2466  _ydBilgi */\n      dup2\n        /* \"contracts/YabanciDilBilgileri.sol\":2458:2478  _ydBilgi.ogretimTipi */\n      0xa0\n      add\n      mload\n        /* \"contracts/YabanciDilBilgileri.sol\":2405:2418  yabanciDiller */\n      0x0d\n        /* \"contracts/YabanciDilBilgileri.sol\":2405:2432  yabanciDiller[_kisiAddress] */\n      0x00\n        /* \"contracts/YabanciDilBilgileri.sol\":2419:2431  _kisiAddress */\n      dup6\n        /* \"contracts/YabanciDilBilgileri.sol\":2405:2432  yabanciDiller[_kisiAddress] */\n      0xffffffffffffffffffffffffffffffffffffffff\n      and\n      0xffffffffffffffffffffffffffffffffffffffff\n      and\n      dup2\n      mstore\n      0x20\n      add\n      swap1\n      dup2\n      mstore\n      0x20\n      add\n      0x00\n      keccak256\n        /* \"contracts/YabanciDilBilgileri.sol\":2405:2445  yabanciDiller[_kisiAddress][_ydBilgi.id] */\n      0x00\n        /* \"contracts/YabanciDilBilgileri.sol\":2433:2441  _ydBilgi */\n      dup5\n        /* \"contracts/YabanciDilBilgileri.sol\":2433:2444  _ydBilgi.id */\n      0x00\n      add\n      mload\n        /* \"contracts/YabanciDilBilgileri.sol\":2405:2445  yabanciDiller[_kisiAddress][_ydBilgi.id] */\n      dup2\n      mstore\n      0x20\n      add\n      swap1\n      dup2\n      mstore\n      0x20\n      add\n      0x00\n      keccak256\n        /* \"contracts/YabanciDilBilgileri.sol\":2405:2457  yabanciDiller[_kisiAddress][_ydBilgi.id].ogretimTipi */\n      0x04\n      add\n      0x00\n        /* \"contracts/YabanciDilBilgileri.sol\":2405:2478  yabanciDiller[_kisiAddress][_ydBilgi.id].ogretimTipi=_ydBilgi.ogretimTipi */\n      0x0100\n      exp\n      dup2\n      sload\n      dup2\n      0xff\n      mul\n      not\n      and\n      swap1\n      dup4\n      0x03\n      dup2\n      gt\n      iszero\n      tag_154\n      jumpi\n      tag_155\n      tag_114\n      jump\t// in\n    tag_155:\n    tag_154:\n      mul\n      or\n      swap1\n      sstore\n      pop\n        /* \"contracts/YabanciDilBilgileri.sol\":2544:2552  _ydBilgi */\n      dup2\n        /* \"contracts/YabanciDilBilgileri.sol\":2544:2558  _ydBilgi.dilId */\n      0xc0\n      add\n      mload\n        /* \"contracts/YabanciDilBilgileri.sol\":2497:2510  yabanciDiller */\n      0x0d\n        /* \"contracts/YabanciDilBilgileri.sol\":2497:2524  yabanciDiller[_kisiAddress] */\n      0x00\n        /* \"contracts/YabanciDilBilgileri.sol\":2511:2523  _kisiAddress */\n      dup6\n        /* \"contracts/YabanciDilBilgileri.sol\":2497:2524  yabanciDiller[_kisiAddress] */\n      0xffffffffffffffffffffffffffffffffffffffff\n      and\n      0xffffffffffffffffffffffffffffffffffffffff\n      and\n      dup2\n      mstore\n      0x20\n      add\n      swap1\n      dup2\n      mstore\n      0x20\n      add\n      0x00\n      keccak256\n        /* \"contracts/YabanciDilBilgileri.sol\":2497:2537  yabanciDiller[_kisiAddress][_ydBilgi.id] */\n      0x00\n        /* \"contracts/YabanciDilBilgileri.sol\":2525:2533  _ydBilgi */\n      dup5\n        /* \"contracts/YabanciDilBilgileri.sol\":2525:2536  _ydBilgi.id */\n      0x00\n      add\n      mload\n        /* \"contracts/YabanciDilBilgileri.sol\":2497:2537  yabanciDiller[_kisiAddress][_ydBilgi.id] */\n      dup2\n      mstore\n      0x20\n      add\n      swap1\n      dup2\n      mstore\n      0x20\n      add\n      0x00\n      keccak256\n        /* \"contracts/YabanciDilBilgileri.sol\":2497:2543  yabanciDiller[_kisiAddress][_ydBilgi.id].dilId */\n      0x04\n      add\n      0x01\n        /* \"contracts/YabanciDilBilgileri.sol\":2497:2558  yabanciDiller[_kisiAddress][_ydBilgi.id].dilId=_ydBilgi.dilId */\n      0x0100\n      exp\n      dup2\n      sload\n      dup2\n      0xffffffff\n      mul\n      not\n      and\n      swap1\n      dup4\n      0xffffffff\n      and\n      mul\n      or\n      swap1\n      sstore\n      pop\n        /* \"contracts/YabanciDilBilgileri.sol\":2598:2744  YabanciDilGuncellendiLog(_ydBilgi.onayKurumTipi, _ydBilgi.onayKurum,  _ydBilgi.basTarih,  _ydBilgi.bitTarih, _ydBilgi.ogretimTipi, _ydBilgi.dilId) */\n      0xe0af8937909276b9604018dff5ed05fce915311087fbe7ef361a586d7c2facda\n        /* \"contracts/YabanciDilBilgileri.sol\":2623:2631  _ydBilgi */\n      dup3\n        /* \"contracts/YabanciDilBilgileri.sol\":2623:2645  _ydBilgi.onayKurumTipi */\n      0x20\n      add\n      mload\n        /* \"contracts/YabanciDilBilgileri.sol\":2647:2655  _ydBilgi */\n      dup4\n        /* \"contracts/YabanciDilBilgileri.sol\":2647:2665  _ydBilgi.onayKurum */\n      0x40\n      add\n      mload\n        /* \"contracts/YabanciDilBilgileri.sol\":2668:2676  _ydBilgi */\n      dup5\n        /* \"contracts/YabanciDilBilgileri.sol\":2668:2685  _ydBilgi.basTarih */\n      0x60\n      add\n      mload\n        /* \"contracts/YabanciDilBilgileri.sol\":2688:2696  _ydBilgi */\n      dup6\n        /* \"contracts/YabanciDilBilgileri.sol\":2688:2705  _ydBilgi.bitTarih */\n      0x80\n      add\n      mload\n        /* \"contracts/YabanciDilBilgileri.sol\":2707:2715  _ydBilgi */\n      dup7\n        /* \"contracts/YabanciDilBilgileri.sol\":2707:2727  _ydBilgi.ogretimTipi */\n      0xa0\n      add\n      mload\n        /* \"contracts/YabanciDilBilgileri.sol\":2729:2737  _ydBilgi */\n      dup8\n        /* \"contracts/YabanciDilBilgileri.sol\":2729:2743  _ydBilgi.dilId */\n      0xc0\n      add\n      mload\n        /* \"contracts/YabanciDilBilgileri.sol\":2598:2744  YabanciDilGuncellendiLog(_ydBilgi.onayKurumTipi, _ydBilgi.onayKurum,  _ydBilgi.basTarih,  _ydBilgi.bitTarih, _ydBilgi.ogretimTipi, _ydBilgi.dilId) */\n      mload(0x40)\n      tag_156\n      swap7\n      swap6\n      swap5\n      swap4\n      swap3\n      swap2\n      swap1\n      tag_118\n      jump\t// in\n    tag_156:\n      mload(0x40)\n      dup1\n      swap2\n      sub\n      swap1\n      log1\n        /* \"contracts/YabanciDilBilgileri.sol\":2773:2781  _ydBilgi */\n      dup2\n        /* \"contracts/YabanciDilBilgileri.sol\":2773:2784  _ydBilgi.id */\n      0x00\n      add\n      mload\n        /* \"contracts/YabanciDilBilgileri.sol\":2763:2784  return    _ydBilgi.id */\n      swap1\n      pop\n        /* \"contracts/YabanciDilBilgileri.sol\":1811:2798  function guncelleYabanciDilBilgi(address _kisiAddress, YabanciDil memory _ydBilgi)  public sadece_Uni_Firma_Kamu returns(uint){\r... */\n      swap3\n      swap2\n      pop\n      pop\n      jump\t// out\n        /* \"contracts/YabanciDilBilgileri.sol\":473:537  mapping(address=>mapping(uint=>YabanciDil)) public yabanciDiller */\n    tag_76:\n      mstore(0x20, 0x0d)\n      dup2\n      0x00\n      mstore\n      mstore(0x20, keccak256(0x00, 0x40))\n      dup1\n      0x00\n      mstore\n      keccak256(0x00, 0x40)\n      0x00\n      swap2\n      pop\n      swap2\n      pop\n      pop\n      dup1\n      0x00\n      add\n      sload\n      swap1\n      dup1\n      0x01\n      add\n      0x00\n      swap1\n      sload\n      swap1\n      0x0100\n      exp\n      swap1\n      div\n      0xff\n      and\n      swap1\n      dup1\n      0x01\n      add\n      0x01\n      swap1\n      sload\n      swap1\n      0x0100\n      exp\n      swap1\n      div\n      0xffffffffffffffffffffffffffffffffffffffff\n      and\n      swap1\n      dup1\n      0x02\n      add\n      sload\n      swap1\n      dup1\n      0x03\n      add\n      sload\n      swap1\n      dup1\n      0x04\n      add\n      0x00\n      swap1\n      sload\n      swap1\n      0x0100\n      exp\n      swap1\n      div\n      0xff\n      and\n      swap1\n      dup1\n      0x04\n      add\n      0x01\n      swap1\n      sload\n      swap1\n      0x0100\n      exp\n      swap1\n      div\n      0xffffffff\n      and\n      swap1\n      pop\n      dup8\n      jump\t// out\n        /* \"#utility.yul\":7:146   */\n    tag_158:\n        /* \"#utility.yul\":53:58   */\n      0x00\n        /* \"#utility.yul\":91:97   */\n      dup2\n        /* \"#utility.yul\":78:98   */\n      calldataload\n        /* \"#utility.yul\":69:98   */\n      swap1\n      pop\n        /* \"#utility.yul\":107:140   */\n      tag_160\n        /* \"#utility.yul\":134:139   */\n      dup2\n        /* \"#utility.yul\":107:140   */\n      tag_161\n      jump\t// in\n    tag_160:\n        /* \"#utility.yul\":7:146   */\n      swap3\n      swap2\n      pop\n      pop\n      jump\t// out\n        /* \"#utility.yul\":152:321   */\n    tag_162:\n        /* \"#utility.yul\":213:218   */\n      0x00\n        /* \"#utility.yul\":251:257   */\n      dup2\n        /* \"#utility.yul\":238:258   */\n      calldataload\n        /* \"#utility.yul\":229:258   */\n      swap1\n      pop\n        /* \"#utility.yul\":267:315   */\n      tag_164\n        /* \"#utility.yul\":309:314   */\n      dup2\n        /* \"#utility.yul\":267:315   */\n      tag_165\n      jump\t// in\n    tag_164:\n        /* \"#utility.yul\":152:321   */\n      swap3\n      swap2\n      pop\n      pop\n      jump\t// out\n        /* \"#utility.yul\":327:500   */\n    tag_166:\n        /* \"#utility.yul\":390:395   */\n      0x00\n        /* \"#utility.yul\":428:434   */\n      dup2\n        /* \"#utility.yul\":415:435   */\n      calldataload\n        /* \"#utility.yul\":406:435   */\n      swap1\n      pop\n        /* \"#utility.yul\":444:494   */\n      tag_168\n        /* \"#utility.yul\":488:493   */\n      dup2\n        /* \"#utility.yul\":444:494   */\n      tag_169\n      jump\t// in\n    tag_168:\n        /* \"#utility.yul\":327:500   */\n      swap3\n      swap2\n      pop\n      pop\n      jump\t// out\n        /* \"#utility.yul\":551:1994   */\n    tag_170:\n        /* \"#utility.yul\":627:632   */\n      0x00\n        /* \"#utility.yul\":671:675   */\n      0xe0\n        /* \"#utility.yul\":659:668   */\n      dup3\n        /* \"#utility.yul\":654:657   */\n      dup5\n        /* \"#utility.yul\":650:669   */\n      sub\n        /* \"#utility.yul\":646:676   */\n      slt\n        /* \"#utility.yul\":643:760   */\n      iszero\n      tag_172\n      jumpi\n        /* \"#utility.yul\":679:758   */\n      tag_173\n      tag_174\n      jump\t// in\n    tag_173:\n        /* \"#utility.yul\":643:760   */\n    tag_172:\n        /* \"#utility.yul\":778:799   */\n      tag_175\n        /* \"#utility.yul\":794:798   */\n      0xe0\n        /* \"#utility.yul\":778:799   */\n      tag_176\n      jump\t// in\n    tag_175:\n        /* \"#utility.yul\":769:799   */\n      swap1\n      pop\n        /* \"#utility.yul\":856:857   */\n      0x00\n        /* \"#utility.yul\":896:945   */\n      tag_177\n        /* \"#utility.yul\":941:944   */\n      dup5\n        /* \"#utility.yul\":932:938   */\n      dup3\n        /* \"#utility.yul\":921:930   */\n      dup6\n        /* \"#utility.yul\":917:939   */\n      add\n        /* \"#utility.yul\":896:945   */\n      tag_178\n      jump\t// in\n    tag_177:\n        /* \"#utility.yul\":889:893   */\n      0x00\n        /* \"#utility.yul\":882:887   */\n      dup4\n        /* \"#utility.yul\":878:894   */\n      add\n        /* \"#utility.yul\":871:946   */\n      mstore\n        /* \"#utility.yul\":809:957   */\n      pop\n        /* \"#utility.yul\":1025:1027   */\n      0x20\n        /* \"#utility.yul\":1066:1132   */\n      tag_179\n        /* \"#utility.yul\":1128:1131   */\n      dup5\n        /* \"#utility.yul\":1119:1125   */\n      dup3\n        /* \"#utility.yul\":1108:1117   */\n      dup6\n        /* \"#utility.yul\":1104:1126   */\n      add\n        /* \"#utility.yul\":1066:1132   */\n      tag_166\n      jump\t// in\n    tag_179:\n        /* \"#utility.yul\":1059:1063   */\n      0x20\n        /* \"#utility.yul\":1052:1057   */\n      dup4\n        /* \"#utility.yul\":1048:1064   */\n      add\n        /* \"#utility.yul\":1041:1133   */\n      mstore\n        /* \"#utility.yul\":967:1144   */\n      pop\n        /* \"#utility.yul\":1208:1210   */\n      0x40\n        /* \"#utility.yul\":1249:1298   */\n      tag_180\n        /* \"#utility.yul\":1294:1297   */\n      dup5\n        /* \"#utility.yul\":1285:1291   */\n      dup3\n        /* \"#utility.yul\":1274:1283   */\n      dup6\n        /* \"#utility.yul\":1270:1292   */\n      add\n        /* \"#utility.yul\":1249:1298   */\n      tag_158\n      jump\t// in\n    tag_180:\n        /* \"#utility.yul\":1242:1246   */\n      0x40\n        /* \"#utility.yul\":1235:1240   */\n      dup4\n        /* \"#utility.yul\":1231:1247   */\n      add\n        /* \"#utility.yul\":1224:1299   */\n      mstore\n        /* \"#utility.yul\":1154:1310   */\n      pop\n        /* \"#utility.yul\":1373:1375   */\n      0x60\n        /* \"#utility.yul\":1414:1463   */\n      tag_181\n        /* \"#utility.yul\":1459:1462   */\n      dup5\n        /* \"#utility.yul\":1450:1456   */\n      dup3\n        /* \"#utility.yul\":1439:1448   */\n      dup6\n        /* \"#utility.yul\":1435:1457   */\n      add\n        /* \"#utility.yul\":1414:1463   */\n      tag_178\n      jump\t// in\n    tag_181:\n        /* \"#utility.yul\":1407:1411   */\n      0x60\n        /* \"#utility.yul\":1400:1405   */\n      dup4\n        /* \"#utility.yul\":1396:1412   */\n      add\n        /* \"#utility.yul\":1389:1464   */\n      mstore\n        /* \"#utility.yul\":1320:1475   */\n      pop\n        /* \"#utility.yul\":1538:1541   */\n      0x80\n        /* \"#utility.yul\":1580:1629   */\n      tag_182\n        /* \"#utility.yul\":1625:1628   */\n      dup5\n        /* \"#utility.yul\":1616:1622   */\n      dup3\n        /* \"#utility.yul\":1605:1614   */\n      dup6\n        /* \"#utility.yul\":1601:1623   */\n      add\n        /* \"#utility.yul\":1580:1629   */\n      tag_178\n      jump\t// in\n    tag_182:\n        /* \"#utility.yul\":1573:1577   */\n      0x80\n        /* \"#utility.yul\":1566:1571   */\n      dup4\n        /* \"#utility.yul\":1562:1578   */\n      add\n        /* \"#utility.yul\":1555:1630   */\n      mstore\n        /* \"#utility.yul\":1485:1641   */\n      pop\n        /* \"#utility.yul\":1707:1710   */\n      0xa0\n        /* \"#utility.yul\":1749:1813   */\n      tag_183\n        /* \"#utility.yul\":1809:1812   */\n      dup5\n        /* \"#utility.yul\":1800:1806   */\n      dup3\n        /* \"#utility.yul\":1789:1798   */\n      dup6\n        /* \"#utility.yul\":1785:1807   */\n      add\n        /* \"#utility.yul\":1749:1813   */\n      tag_162\n      jump\t// in\n    tag_183:\n        /* \"#utility.yul\":1742:1746   */\n      0xa0\n        /* \"#utility.yul\":1735:1740   */\n      dup4\n        /* \"#utility.yul\":1731:1747   */\n      add\n        /* \"#utility.yul\":1724:1814   */\n      mstore\n        /* \"#utility.yul\":1651:1825   */\n      pop\n        /* \"#utility.yul\":1885:1888   */\n      0xc0\n        /* \"#utility.yul\":1927:1975   */\n      tag_184\n        /* \"#utility.yul\":1971:1974   */\n      dup5\n        /* \"#utility.yul\":1962:1968   */\n      dup3\n        /* \"#utility.yul\":1951:1960   */\n      dup6\n        /* \"#utility.yul\":1947:1969   */\n      add\n        /* \"#utility.yul\":1927:1975   */\n      tag_185\n      jump\t// in\n    tag_184:\n        /* \"#utility.yul\":1920:1924   */\n      0xc0\n        /* \"#utility.yul\":1913:1918   */\n      dup4\n        /* \"#utility.yul\":1909:1925   */\n      add\n        /* \"#utility.yul\":1902:1976   */\n      mstore\n        /* \"#utility.yul\":1835:1987   */\n      pop\n        /* \"#utility.yul\":551:1994   */\n      swap3\n      swap2\n      pop\n      pop\n      jump\t// out\n        /* \"#utility.yul\":2000:2139   */\n    tag_178:\n        /* \"#utility.yul\":2046:2051   */\n      0x00\n        /* \"#utility.yul\":2084:2090   */\n      dup2\n        /* \"#utility.yul\":2071:2091   */\n      calldataload\n        /* \"#utility.yul\":2062:2091   */\n      swap1\n      pop\n        /* \"#utility.yul\":2100:2133   */\n      tag_187\n        /* \"#utility.yul\":2127:2132   */\n      dup2\n        /* \"#utility.yul\":2100:2133   */\n      tag_188\n      jump\t// in\n    tag_187:\n        /* \"#utility.yul\":2000:2139   */\n      swap3\n      swap2\n      pop\n      pop\n      jump\t// out\n        /* \"#utility.yul\":2145:2282   */\n    tag_185:\n        /* \"#utility.yul\":2190:2195   */\n      0x00\n        /* \"#utility.yul\":2228:2234   */\n      dup2\n        /* \"#utility.yul\":2215:2235   */\n      calldataload\n        /* \"#utility.yul\":2206:2235   */\n      swap1\n      pop\n        /* \"#utility.yul\":2244:2276   */\n      tag_190\n        /* \"#utility.yul\":2270:2275   */\n      dup2\n        /* \"#utility.yul\":2244:2276   */\n      tag_191\n      jump\t// in\n    tag_190:\n        /* \"#utility.yul\":2145:2282   */\n      swap3\n      swap2\n      pop\n      pop\n      jump\t// out\n        /* \"#utility.yul\":2288:2617   */\n    tag_20:\n        /* \"#utility.yul\":2347:2353   */\n      0x00\n        /* \"#utility.yul\":2396:2398   */\n      0x20\n        /* \"#utility.yul\":2384:2393   */\n      dup3\n        /* \"#utility.yul\":2375:2382   */\n      dup5\n        /* \"#utility.yul\":2371:2394   */\n      sub\n        /* \"#utility.yul\":2367:2399   */\n      slt\n        /* \"#utility.yul\":2364:2483   */\n      iszero\n      tag_193\n      jumpi\n        /* \"#utility.yul\":2402:2481   */\n      tag_194\n      tag_195\n      jump\t// in\n    tag_194:\n        /* \"#utility.yul\":2364:2483   */\n    tag_193:\n        /* \"#utility.yul\":2522:2523   */\n      0x00\n        /* \"#utility.yul\":2547:2600   */\n      tag_196\n        /* \"#utility.yul\":2592:2599   */\n      dup5\n        /* \"#utility.yul\":2583:2589   */\n      dup3\n        /* \"#utility.yul\":2572:2581   */\n      dup6\n        /* \"#utility.yul\":2568:2590   */\n      add\n        /* \"#utility.yul\":2547:2600   */\n      tag_158\n      jump\t// in\n    tag_196:\n        /* \"#utility.yul\":2537:2600   */\n      swap2\n      pop\n        /* \"#utility.yul\":2493:2610   */\n      pop\n        /* \"#utility.yul\":2288:2617   */\n      swap3\n      swap2\n      pop\n      pop\n      jump\t// out\n        /* \"#utility.yul\":2623:3152   */\n    tag_39:\n        /* \"#utility.yul\":2718:2724   */\n      0x00\n        /* \"#utility.yul\":2726:2732   */\n      dup1\n        /* \"#utility.yul\":2775:2778   */\n      0x0100\n        /* \"#utility.yul\":2763:2772   */\n      dup4\n        /* \"#utility.yul\":2754:2761   */\n      dup6\n        /* \"#utility.yul\":2750:2773   */\n      sub\n        /* \"#utility.yul\":2746:2779   */\n      slt\n        /* \"#utility.yul\":2743:2863   */\n      iszero\n      tag_198\n      jumpi\n        /* \"#utility.yul\":2782:2861   */\n      tag_199\n      tag_195\n      jump\t// in\n    tag_199:\n        /* \"#utility.yul\":2743:2863   */\n    tag_198:\n        /* \"#utility.yul\":2902:2903   */\n      0x00\n        /* \"#utility.yul\":2927:2980   */\n      tag_200\n        /* \"#utility.yul\":2972:2979   */\n      dup6\n        /* \"#utility.yul\":2963:2969   */\n      dup3\n        /* \"#utility.yul\":2952:2961   */\n      dup7\n        /* \"#utility.yul\":2948:2970   */\n      add\n        /* \"#utility.yul\":2927:2980   */\n      tag_158\n      jump\t// in\n    tag_200:\n        /* \"#utility.yul\":2917:2980   */\n      swap3\n      pop\n        /* \"#utility.yul\":2873:2990   */\n      pop\n        /* \"#utility.yul\":3029:3031   */\n      0x20\n        /* \"#utility.yul\":3055:3135   */\n      tag_201\n        /* \"#utility.yul\":3127:3134   */\n      dup6\n        /* \"#utility.yul\":3118:3124   */\n      dup3\n        /* \"#utility.yul\":3107:3116   */\n      dup7\n        /* \"#utility.yul\":3103:3125   */\n      add\n        /* \"#utility.yul\":3055:3135   */\n      tag_170\n      jump\t// in\n    tag_201:\n        /* \"#utility.yul\":3045:3135   */\n      swap2\n      pop\n        /* \"#utility.yul\":3000:3145   */\n      pop\n        /* \"#utility.yul\":2623:3152   */\n      swap3\n      pop\n      swap3\n      swap1\n      pop\n      jump\t// out\n        /* \"#utility.yul\":3158:3632   */\n    tag_75:\n        /* \"#utility.yul\":3226:3232   */\n      0x00\n        /* \"#utility.yul\":3234:3240   */\n      dup1\n        /* \"#utility.yul\":3283:3285   */\n      0x40\n        /* \"#utility.yul\":3271:3280   */\n      dup4\n        /* \"#utility.yul\":3262:3269   */\n      dup6\n        /* \"#utility.yul\":3258:3281   */\n      sub\n        /* \"#utility.yul\":3254:3286   */\n      slt\n        /* \"#utility.yul\":3251:3370   */\n      iszero\n      tag_203\n      jumpi\n        /* \"#utility.yul\":3289:3368   */\n      tag_204\n      tag_195\n      jump\t// in\n    tag_204:\n        /* \"#utility.yul\":3251:3370   */\n    tag_203:\n        /* \"#utility.yul\":3409:3410   */\n      0x00\n        /* \"#utility.yul\":3434:3487   */\n      tag_205\n        /* \"#utility.yul\":3479:3486   */\n      dup6\n        /* \"#utility.yul\":3470:3476   */\n      dup3\n        /* \"#utility.yul\":3459:3468   */\n      dup7\n        /* \"#utility.yul\":3455:3477   */\n      add\n        /* \"#utility.yul\":3434:3487   */\n      tag_158\n      jump\t// in\n    tag_205:\n        /* \"#utility.yul\":3424:3487   */\n      swap3\n      pop\n        /* \"#utility.yul\":3380:3497   */\n      pop\n        /* \"#utility.yul\":3536:3538   */\n      0x20\n        /* \"#utility.yul\":3562:3615   */\n      tag_206\n        /* \"#utility.yul\":3607:3614   */\n      dup6\n        /* \"#utility.yul\":3598:3604   */\n      dup3\n        /* \"#utility.yul\":3587:3596   */\n      dup7\n        /* \"#utility.yul\":3583:3605   */\n      add\n        /* \"#utility.yul\":3562:3615   */\n      tag_178\n      jump\t// in\n    tag_206:\n        /* \"#utility.yul\":3552:3615   */\n      swap2\n      pop\n        /* \"#utility.yul\":3507:3625   */\n      pop\n        /* \"#utility.yul\":3158:3632   */\n      swap3\n      pop\n      swap3\n      swap1\n      pop\n      jump\t// out\n        /* \"#utility.yul\":3638:3965   */\n    tag_51:\n        /* \"#utility.yul\":3696:3702   */\n      0x00\n        /* \"#utility.yul\":3745:3747   */\n      0x20\n        /* \"#utility.yul\":3733:3742   */\n      dup3\n        /* \"#utility.yul\":3724:3731   */\n      dup5\n        /* \"#utility.yul\":3720:3743   */\n      sub\n        /* \"#utility.yul\":3716:3748   */\n      slt\n        /* \"#utility.yul\":3713:3832   */\n      iszero\n      tag_208\n      jumpi\n        /* \"#utility.yul\":3751:3830   */\n      tag_209\n      tag_195\n      jump\t// in\n    tag_209:\n        /* \"#utility.yul\":3713:3832   */\n    tag_208:\n        /* \"#utility.yul\":3871:3872   */\n      0x00\n        /* \"#utility.yul\":3896:3948   */\n      tag_210\n        /* \"#utility.yul\":3940:3947   */\n      dup5\n        /* \"#utility.yul\":3931:3937   */\n      dup3\n        /* \"#utility.yul\":3920:3929   */\n      dup6\n        /* \"#utility.yul\":3916:3938   */\n      add\n        /* \"#utility.yul\":3896:3948   */\n      tag_185\n      jump\t// in\n    tag_210:\n        /* \"#utility.yul\":3886:3948   */\n      swap2\n      pop\n        /* \"#utility.yul\":3842:3958   */\n      pop\n        /* \"#utility.yul\":3638:3965   */\n      swap3\n      swap2\n      pop\n      pop\n      jump\t// out\n        /* \"#utility.yul\":3971:4089   */\n    tag_211:\n        /* \"#utility.yul\":4058:4082   */\n      tag_213\n        /* \"#utility.yul\":4076:4081   */\n      dup2\n        /* \"#utility.yul\":4058:4082   */\n      tag_214\n      jump\t// in\n    tag_213:\n        /* \"#utility.yul\":4053:4056   */\n      dup3\n        /* \"#utility.yul\":4046:4083   */\n      mstore\n        /* \"#utility.yul\":3971:4089   */\n      pop\n      pop\n      jump\t// out\n        /* \"#utility.yul\":4095:4204   */\n    tag_215:\n        /* \"#utility.yul\":4176:4197   */\n      tag_217\n        /* \"#utility.yul\":4191:4196   */\n      dup2\n        /* \"#utility.yul\":4176:4197   */\n      tag_218\n      jump\t// in\n    tag_217:\n        /* \"#utility.yul\":4171:4174   */\n      dup3\n        /* \"#utility.yul\":4164:4198   */\n      mstore\n        /* \"#utility.yul\":4095:4204   */\n      pop\n      pop\n      jump\t// out\n        /* \"#utility.yul\":4210:4367   */\n    tag_219:\n        /* \"#utility.yul\":4310:4360   */\n      tag_221\n        /* \"#utility.yul\":4354:4359   */\n      dup2\n        /* \"#utility.yul\":4310:4360   */\n      tag_222\n      jump\t// in\n    tag_221:\n        /* \"#utility.yul\":4305:4308   */\n      dup3\n        /* \"#utility.yul\":4298:4361   */\n      mstore\n        /* \"#utility.yul\":4210:4367   */\n      pop\n      pop\n      jump\t// out\n        /* \"#utility.yul\":4373:4534   */\n    tag_223:\n        /* \"#utility.yul\":4475:4527   */\n      tag_225\n        /* \"#utility.yul\":4521:4526   */\n      dup2\n        /* \"#utility.yul\":4475:4527   */\n      tag_226\n      jump\t// in\n    tag_225:\n        /* \"#utility.yul\":4470:4473   */\n      dup3\n        /* \"#utility.yul\":4463:4528   */\n      mstore\n        /* \"#utility.yul\":4373:4534   */\n      pop\n      pop\n      jump\t// out\n        /* \"#utility.yul\":4540:4683   */\n    tag_227:\n        /* \"#utility.yul\":4633:4676   */\n      tag_229\n        /* \"#utility.yul\":4670:4675   */\n      dup2\n        /* \"#utility.yul\":4633:4676   */\n      tag_230\n      jump\t// in\n    tag_229:\n        /* \"#utility.yul\":4628:4631   */\n      dup3\n        /* \"#utility.yul\":4621:4677   */\n      mstore\n        /* \"#utility.yul\":4540:4683   */\n      pop\n      pop\n      jump\t// out\n        /* \"#utility.yul\":4689:5053   */\n    tag_231:\n        /* \"#utility.yul\":4777:4780   */\n      0x00\n        /* \"#utility.yul\":4805:4844   */\n      tag_233\n        /* \"#utility.yul\":4838:4843   */\n      dup3\n        /* \"#utility.yul\":4805:4844   */\n      tag_234\n      jump\t// in\n    tag_233:\n        /* \"#utility.yul\":4860:4931   */\n      tag_235\n        /* \"#utility.yul\":4924:4930   */\n      dup2\n        /* \"#utility.yul\":4919:4922   */\n      dup6\n        /* \"#utility.yul\":4860:4931   */\n      tag_236\n      jump\t// in\n    tag_235:\n        /* \"#utility.yul\":4853:4931   */\n      swap4\n      pop\n        /* \"#utility.yul\":4940:4992   */\n      tag_237\n        /* \"#utility.yul\":4985:4991   */\n      dup2\n        /* \"#utility.yul\":4980:4983   */\n      dup6\n        /* \"#utility.yul\":4973:4977   */\n      0x20\n        /* \"#utility.yul\":4966:4971   */\n      dup7\n        /* \"#utility.yul\":4962:4978   */\n      add\n        /* \"#utility.yul\":4940:4992   */\n      tag_238\n      jump\t// in\n    tag_237:\n        /* \"#utility.yul\":5017:5046   */\n      tag_239\n        /* \"#utility.yul\":5039:5045   */\n      dup2\n        /* \"#utility.yul\":5017:5046   */\n      tag_240\n      jump\t// in\n    tag_239:\n        /* \"#utility.yul\":5012:5015   */\n      dup5\n        /* \"#utility.yul\":5008:5047   */\n      add\n        /* \"#utility.yul\":5001:5047   */\n      swap2\n      pop\n        /* \"#utility.yul\":4781:5053   */\n      pop\n        /* \"#utility.yul\":4689:5053   */\n      swap3\n      swap2\n      pop\n      pop\n      jump\t// out\n        /* \"#utility.yul\":5059:5425   */\n    tag_241:\n        /* \"#utility.yul\":5201:5204   */\n      0x00\n        /* \"#utility.yul\":5222:5289   */\n      tag_243\n        /* \"#utility.yul\":5286:5288   */\n      0x11\n        /* \"#utility.yul\":5281:5284   */\n      dup4\n        /* \"#utility.yul\":5222:5289   */\n      tag_236\n      jump\t// in\n    tag_243:\n        /* \"#utility.yul\":5215:5289   */\n      swap2\n      pop\n        /* \"#utility.yul\":5298:5391   */\n      tag_244\n        /* \"#utility.yul\":5387:5390   */\n      dup3\n        /* \"#utility.yul\":5298:5391   */\n      tag_245\n      jump\t// in\n    tag_244:\n        /* \"#utility.yul\":5416:5418   */\n      0x20\n        /* \"#utility.yul\":5411:5414   */\n      dup3\n        /* \"#utility.yul\":5407:5419   */\n      add\n        /* \"#utility.yul\":5400:5419   */\n      swap1\n      pop\n        /* \"#utility.yul\":5059:5425   */\n      swap2\n      swap1\n      pop\n      jump\t// out\n        /* \"#utility.yul\":5431:5797   */\n    tag_246:\n        /* \"#utility.yul\":5573:5576   */\n      0x00\n        /* \"#utility.yul\":5594:5661   */\n      tag_248\n        /* \"#utility.yul\":5658:5660   */\n      0x20\n        /* \"#utility.yul\":5653:5656   */\n      dup4\n        /* \"#utility.yul\":5594:5661   */\n      tag_236\n      jump\t// in\n    tag_248:\n        /* \"#utility.yul\":5587:5661   */\n      swap2\n      pop\n        /* \"#utility.yul\":5670:5763   */\n      tag_249\n        /* \"#utility.yul\":5759:5762   */\n      dup3\n        /* \"#utility.yul\":5670:5763   */\n      tag_250\n      jump\t// in\n    tag_249:\n        /* \"#utility.yul\":5788:5790   */\n      0x20\n        /* \"#utility.yul\":5783:5786   */\n      dup3\n        /* \"#utility.yul\":5779:5791   */\n      add\n        /* \"#utility.yul\":5772:5791   */\n      swap1\n      pop\n        /* \"#utility.yul\":5431:5797   */\n      swap2\n      swap1\n      pop\n      jump\t// out\n        /* \"#utility.yul\":5803:5918   */\n    tag_251:\n        /* \"#utility.yul\":5888:5911   */\n      tag_253\n        /* \"#utility.yul\":5905:5910   */\n      dup2\n        /* \"#utility.yul\":5888:5911   */\n      tag_254\n      jump\t// in\n    tag_253:\n        /* \"#utility.yul\":5883:5886   */\n      dup3\n        /* \"#utility.yul\":5876:5912   */\n      mstore\n        /* \"#utility.yul\":5803:5918   */\n      pop\n      pop\n      jump\t// out\n        /* \"#utility.yul\":5924:6042   */\n    tag_255:\n        /* \"#utility.yul\":6011:6035   */\n      tag_257\n        /* \"#utility.yul\":6029:6034   */\n      dup2\n        /* \"#utility.yul\":6011:6035   */\n      tag_258\n      jump\t// in\n    tag_257:\n        /* \"#utility.yul\":6006:6009   */\n      dup3\n        /* \"#utility.yul\":5999:6036   */\n      mstore\n        /* \"#utility.yul\":5924:6042   */\n      pop\n      pop\n      jump\t// out\n        /* \"#utility.yul\":6048:6163   */\n    tag_259:\n        /* \"#utility.yul\":6133:6156   */\n      tag_261\n        /* \"#utility.yul\":6150:6155   */\n      dup2\n        /* \"#utility.yul\":6133:6156   */\n      tag_262\n      jump\t// in\n    tag_261:\n        /* \"#utility.yul\":6128:6131   */\n      dup3\n        /* \"#utility.yul\":6121:6157   */\n      mstore\n        /* \"#utility.yul\":6048:6163   */\n      pop\n      pop\n      jump\t// out\n        /* \"#utility.yul\":6169:6281   */\n    tag_263:\n        /* \"#utility.yul\":6252:6274   */\n      tag_265\n        /* \"#utility.yul\":6268:6273   */\n      dup2\n        /* \"#utility.yul\":6252:6274   */\n      tag_266\n      jump\t// in\n    tag_265:\n        /* \"#utility.yul\":6247:6250   */\n      dup3\n        /* \"#utility.yul\":6240:6275   */\n      mstore\n        /* \"#utility.yul\":6169:6281   */\n      pop\n      pop\n      jump\t// out\n        /* \"#utility.yul\":6287:6497   */\n    tag_68:\n        /* \"#utility.yul\":6374:6378   */\n      0x00\n        /* \"#utility.yul\":6412:6414   */\n      0x20\n        /* \"#utility.yul\":6401:6410   */\n      dup3\n        /* \"#utility.yul\":6397:6415   */\n      add\n        /* \"#utility.yul\":6389:6415   */\n      swap1\n      pop\n        /* \"#utility.yul\":6425:6490   */\n      tag_268\n        /* \"#utility.yul\":6487:6488   */\n      0x00\n        /* \"#utility.yul\":6476:6485   */\n      dup4\n        /* \"#utility.yul\":6472:6489   */\n      add\n        /* \"#utility.yul\":6463:6469   */\n      dup5\n        /* \"#utility.yul\":6425:6490   */\n      tag_215\n      jump\t// in\n    tag_268:\n        /* \"#utility.yul\":6287:6497   */\n      swap3\n      swap2\n      pop\n      pop\n      jump\t// out\n        /* \"#utility.yul\":6503:7456   */\n    tag_63:\n        /* \"#utility.yul\":6774:6778   */\n      0x00\n        /* \"#utility.yul\":6812:6815   */\n      0xc0\n        /* \"#utility.yul\":6801:6810   */\n      dup3\n        /* \"#utility.yul\":6797:6816   */\n      add\n        /* \"#utility.yul\":6789:6816   */\n      swap1\n      pop\n        /* \"#utility.yul\":6826:6891   */\n      tag_270\n        /* \"#utility.yul\":6888:6889   */\n      0x00\n        /* \"#utility.yul\":6877:6886   */\n      dup4\n        /* \"#utility.yul\":6873:6890   */\n      add\n        /* \"#utility.yul\":6864:6870   */\n      dup10\n        /* \"#utility.yul\":6826:6891   */\n      tag_215\n      jump\t// in\n    tag_270:\n        /* \"#utility.yul\":6901:6973   */\n      tag_271\n        /* \"#utility.yul\":6969:6971   */\n      0x20\n        /* \"#utility.yul\":6958:6967   */\n      dup4\n        /* \"#utility.yul\":6954:6972   */\n      add\n        /* \"#utility.yul\":6945:6951   */\n      dup9\n        /* \"#utility.yul\":6901:6973   */\n      tag_211\n      jump\t// in\n    tag_271:\n        /* \"#utility.yul\":6983:7053   */\n      tag_272\n        /* \"#utility.yul\":7049:7051   */\n      0x40\n        /* \"#utility.yul\":7038:7047   */\n      dup4\n        /* \"#utility.yul\":7034:7052   */\n      add\n        /* \"#utility.yul\":7025:7031   */\n      dup8\n        /* \"#utility.yul\":6983:7053   */\n      tag_251\n      jump\t// in\n    tag_272:\n        /* \"#utility.yul\":7063:7141   */\n      tag_273\n        /* \"#utility.yul\":7137:7139   */\n      0x60\n        /* \"#utility.yul\":7126:7135   */\n      dup4\n        /* \"#utility.yul\":7122:7140   */\n      add\n        /* \"#utility.yul\":7113:7119   */\n      dup7\n        /* \"#utility.yul\":7063:7141   */\n      tag_227\n      jump\t// in\n    tag_273:\n        /* \"#utility.yul\":7189:7198   */\n      dup2\n        /* \"#utility.yul\":7183:7187   */\n      dup2\n        /* \"#utility.yul\":7179:7199   */\n      sub\n        /* \"#utility.yul\":7173:7176   */\n      0x80\n        /* \"#utility.yul\":7162:7171   */\n      dup4\n        /* \"#utility.yul\":7158:7177   */\n      add\n        /* \"#utility.yul\":7151:7200   */\n      mstore\n        /* \"#utility.yul\":7217:7295   */\n      tag_274\n        /* \"#utility.yul\":7290:7294   */\n      dup2\n        /* \"#utility.yul\":7281:7287   */\n      dup6\n        /* \"#utility.yul\":7217:7295   */\n      tag_231\n      jump\t// in\n    tag_274:\n        /* \"#utility.yul\":7209:7295   */\n      swap1\n      pop\n        /* \"#utility.yul\":7343:7352   */\n      dup2\n        /* \"#utility.yul\":7337:7341   */\n      dup2\n        /* \"#utility.yul\":7333:7353   */\n      sub\n        /* \"#utility.yul\":7327:7330   */\n      0xa0\n        /* \"#utility.yul\":7316:7325   */\n      dup4\n        /* \"#utility.yul\":7312:7331   */\n      add\n        /* \"#utility.yul\":7305:7354   */\n      mstore\n        /* \"#utility.yul\":7371:7449   */\n      tag_275\n        /* \"#utility.yul\":7444:7448   */\n      dup2\n        /* \"#utility.yul\":7435:7441   */\n      dup5\n        /* \"#utility.yul\":7371:7449   */\n      tag_231\n      jump\t// in\n    tag_275:\n        /* \"#utility.yul\":7363:7449   */\n      swap1\n      pop\n        /* \"#utility.yul\":6503:7456   */\n      swap8\n      swap7\n      pop\n      pop\n      pop\n      pop\n      pop\n      pop\n      pop\n      jump\t// out\n        /* \"#utility.yul\":7462:7975   */\n    tag_23:\n        /* \"#utility.yul\":7621:7625   */\n      0x00\n        /* \"#utility.yul\":7659:7661   */\n      0x60\n        /* \"#utility.yul\":7648:7657   */\n      dup3\n        /* \"#utility.yul\":7644:7662   */\n      add\n        /* \"#utility.yul\":7636:7662   */\n      swap1\n      pop\n        /* \"#utility.yul\":7672:7737   */\n      tag_277\n        /* \"#utility.yul\":7734:7735   */\n      0x00\n        /* \"#utility.yul\":7723:7732   */\n      dup4\n        /* \"#utility.yul\":7719:7736   */\n      add\n        /* \"#utility.yul\":7710:7716   */\n      dup7\n        /* \"#utility.yul\":7672:7737   */\n      tag_215\n      jump\t// in\n    tag_277:\n        /* \"#utility.yul\":7784:7793   */\n      dup2\n        /* \"#utility.yul\":7778:7782   */\n      dup2\n        /* \"#utility.yul\":7774:7794   */\n      sub\n        /* \"#utility.yul\":7769:7771   */\n      0x20\n        /* \"#utility.yul\":7758:7767   */\n      dup4\n        /* \"#utility.yul\":7754:7772   */\n      add\n        /* \"#utility.yul\":7747:7795   */\n      mstore\n        /* \"#utility.yul\":7812:7890   */\n      tag_278\n        /* \"#utility.yul\":7885:7889   */\n      dup2\n        /* \"#utility.yul\":7876:7882   */\n      dup6\n        /* \"#utility.yul\":7812:7890   */\n      tag_231\n      jump\t// in\n    tag_278:\n        /* \"#utility.yul\":7804:7890   */\n      swap1\n      pop\n        /* \"#utility.yul\":7900:7968   */\n      tag_279\n        /* \"#utility.yul\":7964:7966   */\n      0x40\n        /* \"#utility.yul\":7953:7962   */\n      dup4\n        /* \"#utility.yul\":7949:7967   */\n      add\n        /* \"#utility.yul\":7940:7946   */\n      dup5\n        /* \"#utility.yul\":7900:7968   */\n      tag_263\n      jump\t// in\n    tag_279:\n        /* \"#utility.yul\":7462:7975   */\n      swap5\n      swap4\n      pop\n      pop\n      pop\n      pop\n      jump\t// out\n        /* \"#utility.yul\":7981:8605   */\n    tag_36:\n        /* \"#utility.yul\":8168:8172   */\n      0x00\n        /* \"#utility.yul\":8206:8209   */\n      0x80\n        /* \"#utility.yul\":8195:8204   */\n      dup3\n        /* \"#utility.yul\":8191:8210   */\n      add\n        /* \"#utility.yul\":8183:8210   */\n      swap1\n      pop\n        /* \"#utility.yul\":8220:8285   */\n      tag_281\n        /* \"#utility.yul\":8282:8283   */\n      0x00\n        /* \"#utility.yul\":8271:8280   */\n      dup4\n        /* \"#utility.yul\":8267:8284   */\n      add\n        /* \"#utility.yul\":8258:8264   */\n      dup8\n        /* \"#utility.yul\":8220:8285   */\n      tag_215\n      jump\t// in\n    tag_281:\n        /* \"#utility.yul\":8295:8363   */\n      tag_282\n        /* \"#utility.yul\":8359:8361   */\n      0x20\n        /* \"#utility.yul\":8348:8357   */\n      dup4\n        /* \"#utility.yul\":8344:8362   */\n      add\n        /* \"#utility.yul\":8335:8341   */\n      dup7\n        /* \"#utility.yul\":8295:8363   */\n      tag_263\n      jump\t// in\n    tag_282:\n        /* \"#utility.yul\":8373:8445   */\n      tag_283\n        /* \"#utility.yul\":8441:8443   */\n      0x40\n        /* \"#utility.yul\":8430:8439   */\n      dup4\n        /* \"#utility.yul\":8426:8444   */\n      add\n        /* \"#utility.yul\":8417:8423   */\n      dup6\n        /* \"#utility.yul\":8373:8445   */\n      tag_255\n      jump\t// in\n    tag_283:\n        /* \"#utility.yul\":8492:8501   */\n      dup2\n        /* \"#utility.yul\":8486:8490   */\n      dup2\n        /* \"#utility.yul\":8482:8502   */\n      sub\n        /* \"#utility.yul\":8477:8479   */\n      0x60\n        /* \"#utility.yul\":8466:8475   */\n      dup4\n        /* \"#utility.yul\":8462:8480   */\n      add\n        /* \"#utility.yul\":8455:8503   */\n      mstore\n        /* \"#utility.yul\":8520:8598   */\n      tag_284\n        /* \"#utility.yul\":8593:8597   */\n      dup2\n        /* \"#utility.yul\":8584:8590   */\n      dup5\n        /* \"#utility.yul\":8520:8598   */\n      tag_231\n      jump\t// in\n    tag_284:\n        /* \"#utility.yul\":8512:8598   */\n      swap1\n      pop\n        /* \"#utility.yul\":7981:8605   */\n      swap6\n      swap5\n      pop\n      pop\n      pop\n      pop\n      pop\n      jump\t// out\n        /* \"#utility.yul\":8611:9438   */\n    tag_118:\n        /* \"#utility.yul\":8870:8874   */\n      0x00\n        /* \"#utility.yul\":8908:8911   */\n      0xc0\n        /* \"#utility.yul\":8897:8906   */\n      dup3\n        /* \"#utility.yul\":8893:8912   */\n      add\n        /* \"#utility.yul\":8885:8912   */\n      swap1\n      pop\n        /* \"#utility.yul\":8922:9008   */\n      tag_286\n        /* \"#utility.yul\":9005:9006   */\n      0x00\n        /* \"#utility.yul\":8994:9003   */\n      dup4\n        /* \"#utility.yul\":8990:9007   */\n      add\n        /* \"#utility.yul\":8981:8987   */\n      dup10\n        /* \"#utility.yul\":8922:9008   */\n      tag_223\n      jump\t// in\n    tag_286:\n        /* \"#utility.yul\":9018:9090   */\n      tag_287\n        /* \"#utility.yul\":9086:9088   */\n      0x20\n        /* \"#utility.yul\":9075:9084   */\n      dup4\n        /* \"#utility.yul\":9071:9089   */\n      add\n        /* \"#utility.yul\":9062:9068   */\n      dup9\n        /* \"#utility.yul\":9018:9090   */\n      tag_211\n      jump\t// in\n    tag_287:\n        /* \"#utility.yul\":9100:9172   */\n      tag_288\n        /* \"#utility.yul\":9168:9170   */\n      0x40\n        /* \"#utility.yul\":9157:9166   */\n      dup4\n        /* \"#utility.yul\":9153:9171   */\n      add\n        /* \"#utility.yul\":9144:9150   */\n      dup8\n        /* \"#utility.yul\":9100:9172   */\n      tag_255\n      jump\t// in\n    tag_288:\n        /* \"#utility.yul\":9182:9254   */\n      tag_289\n        /* \"#utility.yul\":9250:9252   */\n      0x60\n        /* \"#utility.yul\":9239:9248   */\n      dup4\n        /* \"#utility.yul\":9235:9253   */\n      add\n        /* \"#utility.yul\":9226:9232   */\n      dup7\n        /* \"#utility.yul\":9182:9254   */\n      tag_255\n      jump\t// in\n    tag_289:\n        /* \"#utility.yul\":9264:9350   */\n      tag_290\n        /* \"#utility.yul\":9345:9348   */\n      0x80\n        /* \"#utility.yul\":9334:9343   */\n      dup4\n        /* \"#utility.yul\":9330:9349   */\n      add\n        /* \"#utility.yul\":9321:9327   */\n      dup6\n        /* \"#utility.yul\":9264:9350   */\n      tag_219\n      jump\t// in\n    tag_290:\n        /* \"#utility.yul\":9360:9431   */\n      tag_291\n        /* \"#utility.yul\":9426:9429   */\n      0xa0\n        /* \"#utility.yul\":9415:9424   */\n      dup4\n        /* \"#utility.yul\":9411:9430   */\n      add\n        /* \"#utility.yul\":9402:9408   */\n      dup5\n        /* \"#utility.yul\":9360:9431   */\n      tag_259\n      jump\t// in\n    tag_291:\n        /* \"#utility.yul\":8611:9438   */\n      swap8\n      swap7\n      pop\n      pop\n      pop\n      pop\n      pop\n      pop\n      pop\n      jump\t// out\n        /* \"#utility.yul\":9444:9863   */\n    tag_109:\n        /* \"#utility.yul\":9610:9614   */\n      0x00\n        /* \"#utility.yul\":9648:9650   */\n      0x20\n        /* \"#utility.yul\":9637:9646   */\n      dup3\n        /* \"#utility.yul\":9633:9651   */\n      add\n        /* \"#utility.yul\":9625:9651   */\n      swap1\n      pop\n        /* \"#utility.yul\":9697:9706   */\n      dup2\n        /* \"#utility.yul\":9691:9695   */\n      dup2\n        /* \"#utility.yul\":9687:9707   */\n      sub\n        /* \"#utility.yul\":9683:9684   */\n      0x00\n        /* \"#utility.yul\":9672:9681   */\n      dup4\n        /* \"#utility.yul\":9668:9685   */\n      add\n        /* \"#utility.yul\":9661:9708   */\n      mstore\n        /* \"#utility.yul\":9725:9856   */\n      tag_293\n        /* \"#utility.yul\":9851:9855   */\n      dup2\n        /* \"#utility.yul\":9725:9856   */\n      tag_241\n      jump\t// in\n    tag_293:\n        /* \"#utility.yul\":9717:9856   */\n      swap1\n      pop\n        /* \"#utility.yul\":9444:9863   */\n      swap2\n      swap1\n      pop\n      jump\t// out\n        /* \"#utility.yul\":9869:10288   */\n    tag_105:\n        /* \"#utility.yul\":10035:10039   */\n      0x00\n        /* \"#utility.yul\":10073:10075   */\n      0x20\n        /* \"#utility.yul\":10062:10071   */\n      dup3\n        /* \"#utility.yul\":10058:10076   */\n      add\n        /* \"#utility.yul\":10050:10076   */\n      swap1\n      pop\n        /* \"#utility.yul\":10122:10131   */\n      dup2\n        /* \"#utility.yul\":10116:10120   */\n      dup2\n        /* \"#utility.yul\":10112:10132   */\n      sub\n        /* \"#utility.yul\":10108:10109   */\n      0x00\n        /* \"#utility.yul\":10097:10106   */\n      dup4\n        /* \"#utility.yul\":10093:10110   */\n      add\n        /* \"#utility.yul\":10086:10133   */\n      mstore\n        /* \"#utility.yul\":10150:10281   */\n      tag_295\n        /* \"#utility.yul\":10276:10280   */\n      dup2\n        /* \"#utility.yul\":10150:10281   */\n      tag_246\n      jump\t// in\n    tag_295:\n        /* \"#utility.yul\":10142:10281   */\n      swap1\n      pop\n        /* \"#utility.yul\":9869:10288   */\n      swap2\n      swap1\n      pop\n      jump\t// out\n        /* \"#utility.yul\":10294:10516   */\n    tag_58:\n        /* \"#utility.yul\":10387:10391   */\n      0x00\n        /* \"#utility.yul\":10425:10427   */\n      0x20\n        /* \"#utility.yul\":10414:10423   */\n      dup3\n        /* \"#utility.yul\":10410:10428   */\n      add\n        /* \"#utility.yul\":10402:10428   */\n      swap1\n      pop\n        /* \"#utility.yul\":10438:10509   */\n      tag_297\n        /* \"#utility.yul\":10506:10507   */\n      0x00\n        /* \"#utility.yul\":10495:10504   */\n      dup4\n        /* \"#utility.yul\":10491:10508   */\n      add\n        /* \"#utility.yul\":10482:10488   */\n      dup5\n        /* \"#utility.yul\":10438:10509   */\n      tag_255\n      jump\t// in\n    tag_297:\n        /* \"#utility.yul\":10294:10516   */\n      swap3\n      swap2\n      pop\n      pop\n      jump\t// out\n        /* \"#utility.yul\":10522:11460   */\n    tag_78:\n        /* \"#utility.yul\":10809:10813   */\n      0x00\n        /* \"#utility.yul\":10847:10850   */\n      0xe0\n        /* \"#utility.yul\":10836:10845   */\n      dup3\n        /* \"#utility.yul\":10832:10851   */\n      add\n        /* \"#utility.yul\":10824:10851   */\n      swap1\n      pop\n        /* \"#utility.yul\":10861:10932   */\n      tag_299\n        /* \"#utility.yul\":10929:10930   */\n      0x00\n        /* \"#utility.yul\":10918:10927   */\n      dup4\n        /* \"#utility.yul\":10914:10931   */\n      add\n        /* \"#utility.yul\":10905:10911   */\n      dup11\n        /* \"#utility.yul\":10861:10932   */\n      tag_255\n      jump\t// in\n    tag_299:\n        /* \"#utility.yul\":10942:11029   */\n      tag_300\n        /* \"#utility.yul\":11025:11027   */\n      0x20\n        /* \"#utility.yul\":11014:11023   */\n      dup4\n        /* \"#utility.yul\":11010:11028   */\n      add\n        /* \"#utility.yul\":11001:11007   */\n      dup10\n        /* \"#utility.yul\":10942:11029   */\n      tag_223\n      jump\t// in\n    tag_300:\n        /* \"#utility.yul\":11039:11111   */\n      tag_301\n        /* \"#utility.yul\":11107:11109   */\n      0x40\n        /* \"#utility.yul\":11096:11105   */\n      dup4\n        /* \"#utility.yul\":11092:11110   */\n      add\n        /* \"#utility.yul\":11083:11089   */\n      dup9\n        /* \"#utility.yul\":11039:11111   */\n      tag_211\n      jump\t// in\n    tag_301:\n        /* \"#utility.yul\":11121:11193   */\n      tag_302\n        /* \"#utility.yul\":11189:11191   */\n      0x60\n        /* \"#utility.yul\":11178:11187   */\n      dup4\n        /* \"#utility.yul\":11174:11192   */\n      add\n        /* \"#utility.yul\":11165:11171   */\n      dup8\n        /* \"#utility.yul\":11121:11193   */\n      tag_255\n      jump\t// in\n    tag_302:\n        /* \"#utility.yul\":11203:11276   */\n      tag_303\n        /* \"#utility.yul\":11271:11274   */\n      0x80\n        /* \"#utility.yul\":11260:11269   */\n      dup4\n        /* \"#utility.yul\":11256:11275   */\n      add\n        /* \"#utility.yul\":11247:11253   */\n      dup7\n        /* \"#utility.yul\":11203:11276   */\n      tag_255\n      jump\t// in\n    tag_303:\n        /* \"#utility.yul\":11286:11372   */\n      tag_304\n        /* \"#utility.yul\":11367:11370   */\n      0xa0\n        /* \"#utility.yul\":11356:11365   */\n      dup4\n        /* \"#utility.yul\":11352:11371   */\n      add\n        /* \"#utility.yul\":11343:11349   */\n      dup6\n        /* \"#utility.yul\":11286:11372   */\n      tag_219\n      jump\t// in\n    tag_304:\n        /* \"#utility.yul\":11382:11453   */\n      tag_305\n        /* \"#utility.yul\":11448:11451   */\n      0xc0\n        /* \"#utility.yul\":11437:11446   */\n      dup4\n        /* \"#utility.yul\":11433:11452   */\n      add\n        /* \"#utility.yul\":11424:11430   */\n      dup5\n        /* \"#utility.yul\":11382:11453   */\n      tag_259\n      jump\t// in\n    tag_305:\n        /* \"#utility.yul\":10522:11460   */\n      swap9\n      swap8\n      pop\n      pop\n      pop\n      pop\n      pop\n      pop\n      pop\n      pop\n      jump\t// out\n        /* \"#utility.yul\":11466:11885   */\n    tag_54:\n        /* \"#utility.yul\":11605:11609   */\n      0x00\n        /* \"#utility.yul\":11643:11645   */\n      0x40\n        /* \"#utility.yul\":11632:11641   */\n      dup3\n        /* \"#utility.yul\":11628:11646   */\n      add\n        /* \"#utility.yul\":11620:11646   */\n      swap1\n      pop\n        /* \"#utility.yul\":11656:11725   */\n      tag_307\n        /* \"#utility.yul\":11722:11723   */\n      0x00\n        /* \"#utility.yul\":11711:11720   */\n      dup4\n        /* \"#utility.yul\":11707:11724   */\n      add\n        /* \"#utility.yul\":11698:11704   */\n      dup6\n        /* \"#utility.yul\":11656:11725   */\n      tag_259\n      jump\t// in\n    tag_307:\n        /* \"#utility.yul\":11772:11781   */\n      dup2\n        /* \"#utility.yul\":11766:11770   */\n      dup2\n        /* \"#utility.yul\":11762:11782   */\n      sub\n        /* \"#utility.yul\":11757:11759   */\n      0x20\n        /* \"#utility.yul\":11746:11755   */\n      dup4\n        /* \"#utility.yul\":11742:11760   */\n      add\n        /* \"#utility.yul\":11735:11783   */\n      mstore\n        /* \"#utility.yul\":11800:11878   */\n      tag_308\n        /* \"#utility.yul\":11873:11877   */\n      dup2\n        /* \"#utility.yul\":11864:11870   */\n      dup5\n        /* \"#utility.yul\":11800:11878   */\n      tag_231\n      jump\t// in\n    tag_308:\n        /* \"#utility.yul\":11792:11878   */\n      swap1\n      pop\n        /* \"#utility.yul\":11466:11885   */\n      swap4\n      swap3\n      pop\n      pop\n      pop\n      jump\t// out\n        /* \"#utility.yul\":11891:12020   */\n    tag_176:\n        /* \"#utility.yul\":11925:11931   */\n      0x00\n        /* \"#utility.yul\":11952:11972   */\n      tag_310\n      tag_311\n      jump\t// in\n    tag_310:\n        /* \"#utility.yul\":11942:11972   */\n      swap1\n      pop\n        /* \"#utility.yul\":11981:12014   */\n      tag_312\n        /* \"#utility.yul\":12009:12013   */\n      dup3\n        /* \"#utility.yul\":12001:12007   */\n      dup3\n        /* \"#utility.yul\":11981:12014   */\n      tag_313\n      jump\t// in\n    tag_312:\n        /* \"#utility.yul\":11891:12020   */\n      swap2\n      swap1\n      pop\n      jump\t// out\n        /* \"#utility.yul\":12026:12101   */\n    tag_311:\n        /* \"#utility.yul\":12059:12065   */\n      0x00\n        /* \"#utility.yul\":12092:12094   */\n      0x40\n        /* \"#utility.yul\":12086:12095   */\n      mload\n        /* \"#utility.yul\":12076:12095   */\n      swap1\n      pop\n        /* \"#utility.yul\":12026:12101   */\n      swap1\n      jump\t// out\n        /* \"#utility.yul\":12107:12206   */\n    tag_234:\n        /* \"#utility.yul\":12159:12165   */\n      0x00\n        /* \"#utility.yul\":12193:12198   */\n      dup2\n        /* \"#utility.yul\":12187:12199   */\n      mload\n        /* \"#utility.yul\":12177:12199   */\n      swap1\n      pop\n        /* \"#utility.yul\":12107:12206   */\n      swap2\n      swap1\n      pop\n      jump\t// out\n        /* \"#utility.yul\":12212:12381   */\n    tag_236:\n        /* \"#utility.yul\":12296:12307   */\n      0x00\n        /* \"#utility.yul\":12330:12336   */\n      dup3\n        /* \"#utility.yul\":12325:12328   */\n      dup3\n        /* \"#utility.yul\":12318:12337   */\n      mstore\n        /* \"#utility.yul\":12370:12374   */\n      0x20\n        /* \"#utility.yul\":12365:12368   */\n      dup3\n        /* \"#utility.yul\":12361:12375   */\n      add\n        /* \"#utility.yul\":12346:12375   */\n      swap1\n      pop\n        /* \"#utility.yul\":12212:12381   */\n      swap3\n      swap2\n      pop\n      pop\n      jump\t// out\n        /* \"#utility.yul\":12387:12483   */\n    tag_214:\n        /* \"#utility.yul\":12424:12431   */\n      0x00\n        /* \"#utility.yul\":12453:12477   */\n      tag_318\n        /* \"#utility.yul\":12471:12476   */\n      dup3\n        /* \"#utility.yul\":12453:12477   */\n      tag_319\n      jump\t// in\n    tag_318:\n        /* \"#utility.yul\":12442:12477   */\n      swap1\n      pop\n        /* \"#utility.yul\":12387:12483   */\n      swap2\n      swap1\n      pop\n      jump\t// out\n        /* \"#utility.yul\":12489:12579   */\n    tag_218:\n        /* \"#utility.yul\":12523:12530   */\n      0x00\n        /* \"#utility.yul\":12566:12571   */\n      dup2\n        /* \"#utility.yul\":12559:12572   */\n      iszero\n        /* \"#utility.yul\":12552:12573   */\n      iszero\n        /* \"#utility.yul\":12541:12573   */\n      swap1\n      pop\n        /* \"#utility.yul\":12489:12579   */\n      swap2\n      swap1\n      pop\n      jump\t// out\n        /* \"#utility.yul\":12585:12726   */\n    tag_321:\n        /* \"#utility.yul\":12637:12644   */\n      0x00\n        /* \"#utility.yul\":12666:12671   */\n      dup2\n        /* \"#utility.yul\":12655:12671   */\n      swap1\n      pop\n        /* \"#utility.yul\":12672:12720   */\n      tag_323\n        /* \"#utility.yul\":12714:12719   */\n      dup3\n        /* \"#utility.yul\":12672:12720   */\n      tag_324\n      jump\t// in\n    tag_323:\n        /* \"#utility.yul\":12585:12726   */\n      swap2\n      swap1\n      pop\n      jump\t// out\n        /* \"#utility.yul\":12732:12877   */\n    tag_325:\n        /* \"#utility.yul\":12786:12793   */\n      0x00\n        /* \"#utility.yul\":12815:12820   */\n      dup2\n        /* \"#utility.yul\":12804:12820   */\n      swap1\n      pop\n        /* \"#utility.yul\":12821:12871   */\n      tag_327\n        /* \"#utility.yul\":12865:12870   */\n      dup3\n        /* \"#utility.yul\":12821:12871   */\n      tag_328\n      jump\t// in\n    tag_327:\n        /* \"#utility.yul\":12732:12877   */\n      swap2\n      swap1\n      pop\n      jump\t// out\n        /* \"#utility.yul\":12883:13010   */\n    tag_329:\n        /* \"#utility.yul\":12928:12935   */\n      0x00\n        /* \"#utility.yul\":12957:12962   */\n      dup2\n        /* \"#utility.yul\":12946:12962   */\n      swap1\n      pop\n        /* \"#utility.yul\":12963:13004   */\n      tag_331\n        /* \"#utility.yul\":12998:13003   */\n      dup3\n        /* \"#utility.yul\":12963:13004   */\n      tag_332\n      jump\t// in\n    tag_331:\n        /* \"#utility.yul\":12883:13010   */\n      swap2\n      swap1\n      pop\n      jump\t// out\n        /* \"#utility.yul\":13016:13105   */\n    tag_254:\n        /* \"#utility.yul\":13052:13059   */\n      0x00\n        /* \"#utility.yul\":13092:13098   */\n      0xffff\n        /* \"#utility.yul\":13085:13090   */\n      dup3\n        /* \"#utility.yul\":13081:13099   */\n      and\n        /* \"#utility.yul\":13070:13099   */\n      swap1\n      pop\n        /* \"#utility.yul\":13016:13105   */\n      swap2\n      swap1\n      pop\n      jump\t// out\n        /* \"#utility.yul\":13111:13237   */\n    tag_319:\n        /* \"#utility.yul\":13148:13155   */\n      0x00\n        /* \"#utility.yul\":13188:13230   */\n      0xffffffffffffffffffffffffffffffffffffffff\n        /* \"#utility.yul\":13181:13186   */\n      dup3\n        /* \"#utility.yul\":13177:13231   */\n      and\n        /* \"#utility.yul\":13166:13231   */\n      swap1\n      pop\n        /* \"#utility.yul\":13111:13237   */\n      swap2\n      swap1\n      pop\n      jump\t// out\n        /* \"#utility.yul\":13243:13320   */\n    tag_258:\n        /* \"#utility.yul\":13280:13287   */\n      0x00\n        /* \"#utility.yul\":13309:13314   */\n      dup2\n        /* \"#utility.yul\":13298:13314   */\n      swap1\n      pop\n        /* \"#utility.yul\":13243:13320   */\n      swap2\n      swap1\n      pop\n      jump\t// out\n        /* \"#utility.yul\":13326:13419   */\n    tag_262:\n        /* \"#utility.yul\":13362:13369   */\n      0x00\n        /* \"#utility.yul\":13402:13412   */\n      0xffffffff\n        /* \"#utility.yul\":13395:13400   */\n      dup3\n        /* \"#utility.yul\":13391:13413   */\n      and\n        /* \"#utility.yul\":13380:13413   */\n      swap1\n      pop\n        /* \"#utility.yul\":13326:13419   */\n      swap2\n      swap1\n      pop\n      jump\t// out\n        /* \"#utility.yul\":13425:13511   */\n    tag_266:\n        /* \"#utility.yul\":13460:13467   */\n      0x00\n        /* \"#utility.yul\":13500:13504   */\n      0xff\n        /* \"#utility.yul\":13493:13498   */\n      dup3\n        /* \"#utility.yul\":13489:13505   */\n      and\n        /* \"#utility.yul\":13478:13505   */\n      swap1\n      pop\n        /* \"#utility.yul\":13425:13511   */\n      swap2\n      swap1\n      pop\n      jump\t// out\n        /* \"#utility.yul\":13517:13658   */\n    tag_222:\n        /* \"#utility.yul\":13580:13589   */\n      0x00\n        /* \"#utility.yul\":13613:13652   */\n      tag_339\n        /* \"#utility.yul\":13646:13651   */\n      dup3\n        /* \"#utility.yul\":13613:13652   */\n      tag_321\n      jump\t// in\n    tag_339:\n        /* \"#utility.yul\":13600:13652   */\n      swap1\n      pop\n        /* \"#utility.yul\":13517:13658   */\n      swap2\n      swap1\n      pop\n      jump\t// out\n        /* \"#utility.yul\":13664:13809   */\n    tag_226:\n        /* \"#utility.yul\":13729:13738   */\n      0x00\n        /* \"#utility.yul\":13762:13803   */\n      tag_341\n        /* \"#utility.yul\":13797:13802   */\n      dup3\n        /* \"#utility.yul\":13762:13803   */\n      tag_325\n      jump\t// in\n    tag_341:\n        /* \"#utility.yul\":13749:13803   */\n      swap1\n      pop\n        /* \"#utility.yul\":13664:13809   */\n      swap2\n      swap1\n      pop\n      jump\t// out\n        /* \"#utility.yul\":13815:13942   */\n    tag_230:\n        /* \"#utility.yul\":13871:13880   */\n      0x00\n        /* \"#utility.yul\":13904:13936   */\n      tag_343\n        /* \"#utility.yul\":13930:13935   */\n      dup3\n        /* \"#utility.yul\":13904:13936   */\n      tag_329\n      jump\t// in\n    tag_343:\n        /* \"#utility.yul\":13891:13936   */\n      swap1\n      pop\n        /* \"#utility.yul\":13815:13942   */\n      swap2\n      swap1\n      pop\n      jump\t// out\n        /* \"#utility.yul\":13948:14255   */\n    tag_238:\n        /* \"#utility.yul\":14016:14017   */\n      0x00\n        /* \"#utility.yul\":14026:14139   */\n    tag_345:\n        /* \"#utility.yul\":14040:14046   */\n      dup4\n        /* \"#utility.yul\":14037:14038   */\n      dup2\n        /* \"#utility.yul\":14034:14047   */\n      lt\n        /* \"#utility.yul\":14026:14139   */\n      iszero\n      tag_347\n      jumpi\n        /* \"#utility.yul\":14125:14126   */\n      dup1\n        /* \"#utility.yul\":14120:14123   */\n      dup3\n        /* \"#utility.yul\":14116:14127   */\n      add\n        /* \"#utility.yul\":14110:14128   */\n      mload\n        /* \"#utility.yul\":14106:14107   */\n      dup2\n        /* \"#utility.yul\":14101:14104   */\n      dup5\n        /* \"#utility.yul\":14097:14108   */\n      add\n        /* \"#utility.yul\":14090:14129   */\n      mstore\n        /* \"#utility.yul\":14062:14064   */\n      0x20\n        /* \"#utility.yul\":14059:14060   */\n      dup2\n        /* \"#utility.yul\":14055:14065   */\n      add\n        /* \"#utility.yul\":14050:14065   */\n      swap1\n      pop\n        /* \"#utility.yul\":14026:14139   */\n      jump(tag_345)\n    tag_347:\n        /* \"#utility.yul\":14157:14163   */\n      dup4\n        /* \"#utility.yul\":14154:14155   */\n      dup2\n        /* \"#utility.yul\":14151:14164   */\n      gt\n        /* \"#utility.yul\":14148:14249   */\n      iszero\n      tag_348\n      jumpi\n        /* \"#utility.yul\":14237:14238   */\n      0x00\n        /* \"#utility.yul\":14228:14234   */\n      dup5\n        /* \"#utility.yul\":14223:14226   */\n      dup5\n        /* \"#utility.yul\":14219:14235   */\n      add\n        /* \"#utility.yul\":14212:14239   */\n      mstore\n        /* \"#utility.yul\":14148:14249   */\n    tag_348:\n        /* \"#utility.yul\":13997:14255   */\n      pop\n        /* \"#utility.yul\":13948:14255   */\n      pop\n      pop\n      pop\n      jump\t// out\n        /* \"#utility.yul\":14261:14581   */\n    tag_80:\n        /* \"#utility.yul\":14305:14311   */\n      0x00\n        /* \"#utility.yul\":14342:14343   */\n      0x02\n        /* \"#utility.yul\":14336:14340   */\n      dup3\n        /* \"#utility.yul\":14332:14344   */\n      div\n        /* \"#utility.yul\":14322:14344   */\n      swap1\n      pop\n        /* \"#utility.yul\":14389:14390   */\n      0x01\n        /* \"#utility.yul\":14383:14387   */\n      dup3\n        /* \"#utility.yul\":14379:14391   */\n      and\n        /* \"#utility.yul\":14410:14428   */\n      dup1\n        /* \"#utility.yul\":14400:14481   */\n      tag_350\n      jumpi\n        /* \"#utility.yul\":14466:14470   */\n      0x7f\n        /* \"#utility.yul\":14458:14464   */\n      dup3\n        /* \"#utility.yul\":14454:14471   */\n      and\n        /* \"#utility.yul\":14444:14471   */\n      swap2\n      pop\n        /* \"#utility.yul\":14400:14481   */\n    tag_350:\n        /* \"#utility.yul\":14528:14530   */\n      0x20\n        /* \"#utility.yul\":14520:14526   */\n      dup3\n        /* \"#utility.yul\":14517:14531   */\n      lt\n        /* \"#utility.yul\":14497:14515   */\n      dup2\n        /* \"#utility.yul\":14494:14532   */\n      eq\n        /* \"#utility.yul\":14491:14575   */\n      iszero\n      tag_351\n      jumpi\n        /* \"#utility.yul\":14547:14565   */\n      tag_352\n      tag_353\n      jump\t// in\n    tag_352:\n        /* \"#utility.yul\":14491:14575   */\n    tag_351:\n        /* \"#utility.yul\":14312:14581   */\n      pop\n        /* \"#utility.yul\":14261:14581   */\n      swap2\n      swap1\n      pop\n      jump\t// out\n        /* \"#utility.yul\":14587:14868   */\n    tag_313:\n        /* \"#utility.yul\":14670:14697   */\n      tag_355\n        /* \"#utility.yul\":14692:14696   */\n      dup3\n        /* \"#utility.yul\":14670:14697   */\n      tag_240\n      jump\t// in\n    tag_355:\n        /* \"#utility.yul\":14662:14668   */\n      dup2\n        /* \"#utility.yul\":14658:14698   */\n      add\n        /* \"#utility.yul\":14800:14806   */\n      dup2\n        /* \"#utility.yul\":14788:14798   */\n      dup2\n        /* \"#utility.yul\":14785:14807   */\n      lt\n        /* \"#utility.yul\":14764:14782   */\n      0xffffffffffffffff\n        /* \"#utility.yul\":14752:14762   */\n      dup3\n        /* \"#utility.yul\":14749:14783   */\n      gt\n        /* \"#utility.yul\":14746:14808   */\n      or\n        /* \"#utility.yul\":14743:14831   */\n      iszero\n      tag_356\n      jumpi\n        /* \"#utility.yul\":14811:14829   */\n      tag_357\n      tag_358\n      jump\t// in\n    tag_357:\n        /* \"#utility.yul\":14743:14831   */\n    tag_356:\n        /* \"#utility.yul\":14851:14861   */\n      dup1\n        /* \"#utility.yul\":14847:14849   */\n      0x40\n        /* \"#utility.yul\":14840:14862   */\n      mstore\n        /* \"#utility.yul\":14630:14868   */\n      pop\n        /* \"#utility.yul\":14587:14868   */\n      pop\n      pop\n      jump\t// out\n        /* \"#utility.yul\":14874:15107   */\n    tag_111:\n        /* \"#utility.yul\":14913:14916   */\n      0x00\n        /* \"#utility.yul\":14936:14960   */\n      tag_360\n        /* \"#utility.yul\":14954:14959   */\n      dup3\n        /* \"#utility.yul\":14936:14960   */\n      tag_258\n      jump\t// in\n    tag_360:\n        /* \"#utility.yul\":14927:14960   */\n      swap2\n      pop\n        /* \"#utility.yul\":14982:15048   */\n      0xffffffffffffffffffffffffffffffffffffffffffffffffffffffffffffffff\n        /* \"#utility.yul\":14975:14980   */\n      dup3\n        /* \"#utility.yul\":14972:15049   */\n      eq\n        /* \"#utility.yul\":14969:15072   */\n      iszero\n      tag_361\n      jumpi\n        /* \"#utility.yul\":15052:15070   */\n      tag_362\n      tag_363\n      jump\t// in\n    tag_362:\n        /* \"#utility.yul\":14969:15072   */\n    tag_361:\n        /* \"#utility.yul\":15099:15100   */\n      0x01\n        /* \"#utility.yul\":15092:15097   */\n      dup3\n        /* \"#utility.yul\":15088:15101   */\n      add\n        /* \"#utility.yul\":15081:15101   */\n      swap1\n      pop\n        /* \"#utility.yul\":14874:15107   */\n      swap2\n      swap1\n      pop\n      jump\t// out\n        /* \"#utility.yul\":15113:15293   */\n    tag_363:\n        /* \"#utility.yul\":15161:15238   */\n      0x4e487b7100000000000000000000000000000000000000000000000000000000\n        /* \"#utility.yul\":15158:15159   */\n      0x00\n        /* \"#utility.yul\":15151:15239   */\n      mstore\n        /* \"#utility.yul\":15258:15262   */\n      0x11\n        /* \"#utility.yul\":15255:15256   */\n      0x04\n        /* \"#utility.yul\":15248:15263   */\n      mstore\n        /* \"#utility.yul\":15282:15286   */\n      0x24\n        /* \"#utility.yul\":15279:15280   */\n      0x00\n        /* \"#utility.yul\":15272:15287   */\n      revert\n        /* \"#utility.yul\":15299:15479   */\n    tag_114:\n        /* \"#utility.yul\":15347:15424   */\n      0x4e487b7100000000000000000000000000000000000000000000000000000000\n        /* \"#utility.yul\":15344:15345   */\n      0x00\n        /* \"#utility.yul\":15337:15425   */\n      mstore\n        /* \"#utility.yul\":15444:15448   */\n      0x21\n        /* \"#utility.yul\":15441:15442   */\n      0x04\n        /* \"#utility.yul\":15434:15449   */\n      mstore\n        /* \"#utility.yul\":15468:15472   */\n      0x24\n        /* \"#utility.yul\":15465:15466   */\n      0x00\n        /* \"#utility.yul\":15458:15473   */\n      revert\n        /* \"#utility.yul\":15485:15665   */\n    tag_353:\n        /* \"#utility.yul\":15533:15610   */\n      0x4e487b7100000000000000000000000000000000000000000000000000000000\n        /* \"#utility.yul\":15530:15531   */\n      0x00\n        /* \"#utility.yul\":15523:15611   */\n      mstore\n        /* \"#utility.yul\":15630:15634   */\n      0x22\n        /* \"#utility.yul\":15627:15628   */\n      0x04\n        /* \"#utility.yul\":15620:15635   */\n      mstore\n        /* \"#utility.yul\":15654:15658   */\n      0x24\n        /* \"#utility.yul\":15651:15652   */\n      0x00\n        /* \"#utility.yul\":15644:15659   */\n      revert\n        /* \"#utility.yul\":15671:15851   */\n    tag_358:\n        /* \"#utility.yul\":15719:15796   */\n      0x4e487b7100000000000000000000000000000000000000000000000000000000\n        /* \"#utility.yul\":15716:15717   */\n      0x00\n        /* \"#utility.yul\":15709:15797   */\n      mstore\n        /* \"#utility.yul\":15816:15820   */\n      0x41\n        /* \"#utility.yul\":15813:15814   */\n      0x04\n        /* \"#utility.yul\":15806:15821   */\n      mstore\n        /* \"#utility.yul\":15840:15844   */\n      0x24\n        /* \"#utility.yul\":15837:15838   */\n      0x00\n        /* \"#utility.yul\":15830:15845   */\n      revert\n        /* \"#utility.yul\":15857:15974   */\n    tag_174:\n        /* \"#utility.yul\":15966:15967   */\n      0x00\n        /* \"#utility.yul\":15963:15964   */\n      dup1\n        /* \"#utility.yul\":15956:15968   */\n      revert\n        /* \"#utility.yul\":16226:16343   */\n    tag_195:\n        /* \"#utility.yul\":16335:16336   */\n      0x00\n        /* \"#utility.yul\":16332:16333   */\n      dup1\n        /* \"#utility.yul\":16325:16337   */\n      revert\n        /* \"#utility.yul\":16349:16451   */\n    tag_240:\n        /* \"#utility.yul\":16390:16396   */\n      0x00\n        /* \"#utility.yul\":16441:16443   */\n      0x1f\n        /* \"#utility.yul\":16437:16444   */\n      not\n        /* \"#utility.yul\":16432:16434   */\n      0x1f\n        /* \"#utility.yul\":16425:16430   */\n      dup4\n        /* \"#utility.yul\":16421:16435   */\n      add\n        /* \"#utility.yul\":16417:16445   */\n      and\n        /* \"#utility.yul\":16407:16445   */\n      swap1\n      pop\n        /* \"#utility.yul\":16349:16451   */\n      swap2\n      swap1\n      pop\n      jump\t// out\n        /* \"#utility.yul\":16457:16624   */\n    tag_245:\n        /* \"#utility.yul\":16597:16616   */\n      0x4b697369206d657663757420646567696c000000000000000000000000000000\n        /* \"#utility.yul\":16593:16594   */\n      0x00\n        /* \"#utility.yul\":16585:16591   */\n      dup3\n        /* \"#utility.yul\":16581:16595   */\n      add\n        /* \"#utility.yul\":16574:16617   */\n      mstore\n        /* \"#utility.yul\":16457:16624   */\n      pop\n      jump\t// out\n        /* \"#utility.yul\":16630:16812   */\n    tag_250:\n        /* \"#utility.yul\":16770:16804   */\n      0x42752069736c656d6920736164656365204b757273207961706162696c69722e\n        /* \"#utility.yul\":16766:16767   */\n      0x00\n        /* \"#utility.yul\":16758:16764   */\n      dup3\n        /* \"#utility.yul\":16754:16768   */\n      add\n        /* \"#utility.yul\":16747:16805   */\n      mstore\n        /* \"#utility.yul\":16630:16812   */\n      pop\n      jump\t// out\n        /* \"#utility.yul\":16818:16938   */\n    tag_324:\n        /* \"#utility.yul\":16906:16907   */\n      0x04\n        /* \"#utility.yul\":16899:16904   */\n      dup2\n        /* \"#utility.yul\":16896:16908   */\n      lt\n        /* \"#utility.yul\":16886:16932   */\n      tag_378\n      jumpi\n        /* \"#utility.yul\":16912:16930   */\n      tag_379\n      tag_114\n      jump\t// in\n    tag_379:\n        /* \"#utility.yul\":16886:16932   */\n    tag_378:\n        /* \"#utility.yul\":16818:16938   */\n      pop\n      jump\t// out\n        /* \"#utility.yul\":16944:17066   */\n    tag_328:\n        /* \"#utility.yul\":17034:17035   */\n      0x05\n        /* \"#utility.yul\":17027:17032   */\n      dup2\n        /* \"#utility.yul\":17024:17036   */\n      lt\n        /* \"#utility.yul\":17014:17060   */\n      tag_381\n      jumpi\n        /* \"#utility.yul\":17040:17058   */\n      tag_382\n      tag_114\n      jump\t// in\n    tag_382:\n        /* \"#utility.yul\":17014:17060   */\n    tag_381:\n        /* \"#utility.yul\":16944:17066   */\n      pop\n      jump\t// out\n        /* \"#utility.yul\":17072:17185   */\n    tag_332:\n        /* \"#utility.yul\":17153:17154   */\n      0x04\n        /* \"#utility.yul\":17146:17151   */\n      dup2\n        /* \"#utility.yul\":17143:17155   */\n      lt\n        /* \"#utility.yul\":17133:17179   */\n      tag_384\n      jumpi\n        /* \"#utility.yul\":17159:17177   */\n      tag_385\n      tag_114\n      jump\t// in\n    tag_385:\n        /* \"#utility.yul\":17133:17179   */\n    tag_384:\n        /* \"#utility.yul\":17072:17185   */\n      pop\n      jump\t// out\n        /* \"#utility.yul\":17191:17313   */\n    tag_161:\n        /* \"#utility.yul\":17264:17288   */\n      tag_387\n        /* \"#utility.yul\":17282:17287   */\n      dup2\n        /* \"#utility.yul\":17264:17288   */\n      tag_214\n      jump\t// in\n    tag_387:\n        /* \"#utility.yul\":17257:17262   */\n      dup2\n        /* \"#utility.yul\":17254:17289   */\n      eq\n        /* \"#utility.yul\":17244:17307   */\n      tag_388\n      jumpi\n        /* \"#utility.yul\":17303:17304   */\n      0x00\n        /* \"#utility.yul\":17300:17301   */\n      dup1\n        /* \"#utility.yul\":17293:17305   */\n      revert\n        /* \"#utility.yul\":17244:17307   */\n    tag_388:\n        /* \"#utility.yul\":17191:17313   */\n      pop\n      jump\t// out\n        /* \"#utility.yul\":17319:17433   */\n    tag_165:\n        /* \"#utility.yul\":17407:17408   */\n      0x04\n        /* \"#utility.yul\":17400:17405   */\n      dup2\n        /* \"#utility.yul\":17397:17409   */\n      lt\n        /* \"#utility.yul\":17387:17427   */\n      tag_390\n      jumpi\n        /* \"#utility.yul\":17423:17424   */\n      0x00\n        /* \"#utility.yul\":17420:17421   */\n      dup1\n        /* \"#utility.yul\":17413:17425   */\n      revert\n        /* \"#utility.yul\":17387:17427   */\n    tag_390:\n        /* \"#utility.yul\":17319:17433   */\n      pop\n      jump\t// out\n        /* \"#utility.yul\":17439:17555   */\n    tag_169:\n        /* \"#utility.yul\":17529:17530   */\n      0x05\n        /* \"#utility.yul\":17522:17527   */\n      dup2\n        /* \"#utility.yul\":17519:17531   */\n      lt\n        /* \"#utility.yul\":17509:17549   */\n      tag_392\n      jumpi\n        /* \"#utility.yul\":17545:17546   */\n      0x00\n        /* \"#utility.yul\":17542:17543   */\n      dup1\n        /* \"#utility.yul\":17535:17547   */\n      revert\n        /* \"#utility.yul\":17509:17549   */\n    tag_392:\n        /* \"#utility.yul\":17439:17555   */\n      pop\n      jump\t// out\n        /* \"#utility.yul\":17561:17683   */\n    tag_188:\n        /* \"#utility.yul\":17634:17658   */\n      tag_394\n        /* \"#utility.yul\":17652:17657   */\n      dup2\n        /* \"#utility.yul\":17634:17658   */\n      tag_258\n      jump\t// in\n    tag_394:\n        /* \"#utility.yul\":17627:17632   */\n      dup2\n        /* \"#utility.yul\":17624:17659   */\n      eq\n        /* \"#utility.yul\":17614:17677   */\n      tag_395\n      jumpi\n        /* \"#utility.yul\":17673:17674   */\n      0x00\n        /* \"#utility.yul\":17670:17671   */\n      dup1\n        /* \"#utility.yul\":17663:17675   */\n      revert\n        /* \"#utility.yul\":17614:17677   */\n    tag_395:\n        /* \"#utility.yul\":17561:17683   */\n      pop\n      jump\t// out\n        /* \"#utility.yul\":17689:17809   */\n    tag_191:\n        /* \"#utility.yul\":17761:17784   */\n      tag_397\n        /* \"#utility.yul\":17778:17783   */\n      dup2\n        /* \"#utility.yul\":17761:17784   */\n      tag_262\n      jump\t// in\n    tag_397:\n        /* \"#utility.yul\":17754:17759   */\n      dup2\n        /* \"#utility.yul\":17751:17785   */\n      eq\n        /* \"#utility.yul\":17741:17803   */\n      tag_398\n      jumpi\n        /* \"#utility.yul\":17799:17800   */\n      0x00\n        /* \"#utility.yul\":17796:17797   */\n      dup1\n        /* \"#utility.yul\":17789:17801   */\n      revert\n        /* \"#utility.yul\":17741:17803   */\n    tag_398:\n        /* \"#utility.yul\":17689:17809   */\n      pop\n      jump\t// out\n\n    auxdata: 0xa264697066735822122071c7b2c4dc7fddd8eee2bed3ad998744db73152801ff94fdb4bd4679afd1ade164736f6c63430008070033\n}\n",
				"bytecode": {
					"linkReferences": {},
					"object": "608060405234801561001057600080fd5b50611ea3806100206000396000f3fe608060405234801561001057600080fd5b50600436106100cf5760003560e01c80639a8c91191161008c578063ba479b7e11610066578063ba479b7e1461026c578063cbc92809146102a1578063cc9d368a146102d1578063ee69e1af14610301576100cf565b80639a8c9119146101eb578063a4e7ae051461021d578063af640d0f1461024e576100cf565b80631916e139146100d45780632826669714610106578063356b1f1e1461013857806339987f941461016a57806370223e731461019d5780637d0fa287146101b9575b600080fd5b6100ee60048036038101906100e99190611651565b610337565b6040516100fd939291906118bc565b60405180910390f35b610120600480360381019061011b9190611651565b610403565b60405161012f939291906118bc565b60405180910390f35b610152600480360381019061014d9190611651565b6104cf565b604051610161939291906118bc565b60405180910390f35b610184600480360381019061017f9190611651565b61059b565b60405161019494939291906118fa565b60405180910390f35b6101b760048036038101906101b2919061167e565b61066d565b005b6101d360048036038101906101ce9190611651565b610b74565b6040516101e2939291906118bc565b60405180910390f35b61020560048036038101906102009190611651565b610c40565b604051610214939291906118bc565b60405180910390f35b610237600480360381019061023291906116ff565b610d0c565b604051610245929190611a71565b60405180910390f35b610256610dc8565b60405161026391906119e7565b60405180910390f35b61028660048036038101906102819190611651565b610dce565b6040516102989695949392919061184d565b60405180910390f35b6102bb60048036038101906102b69190611651565b610f62565b6040516102c89190611832565b60405180910390f35b6102eb60048036038101906102e6919061167e565b610f8d565b6040516102f891906119e7565b60405180910390f35b61031b600480360381019061031691906116bf565b61149b565b60405161032e9796959493929190611a02565b60405180910390f35b60076020528060005260406000206000915090508060000160009054906101000a900460ff169080600101805461036d90611bf7565b80601f016020809104026020016040519081016040528092919081815260200182805461039990611bf7565b80156103e65780601f106103bb576101008083540402835291602001916103e6565b820191906000526020600020905b8154815290600101906020018083116103c957829003601f168201915b5050505050908060020160009054906101000a900460ff16905083565b60046020528060005260406000206000915090508060000160009054906101000a900460ff169080600101805461043990611bf7565b80601f016020809104026020016040519081016040528092919081815260200182805461046590611bf7565b80156104b25780601f10610487576101008083540402835291602001916104b2565b820191906000526020600020905b81548152906001019060200180831161049557829003601f168201915b5050505050908060020160009054906101000a900460ff16905083565b600a6020528060005260406000206000915090508060000160009054906101000a900460ff169080600101805461050590611bf7565b80601f016020809104026020016040519081016040528092919081815260200182805461053190611bf7565b801561057e5780601f106105535761010080835404028352916020019161057e565b820191906000526020600020905b81548152906001019060200180831161056157829003601f168201915b5050505050908060020160009054906101000a900460ff16905083565b60066020528060005260406000206000915090508060000160009054906101000a900460ff16908060000160019054906101000a900460ff16908060010154908060020180546105ea90611bf7565b80601f016020809104026020016040519081016040528092919081815260200182805461061690611bf7565b80156106635780601f1061063857610100808354040283529160200191610663565b820191906000526020600020905b81548152906001019060200180831161064657829003601f168201915b5050505050905084565b600460003373ffffffffffffffffffffffffffffffffffffffff1673ffffffffffffffffffffffffffffffffffffffff16815260200190815260200160002060000160009054906101000a900460ff16806107145750600660003373ffffffffffffffffffffffffffffffffffffffff1673ffffffffffffffffffffffffffffffffffffffff16815260200190815260200160002060000160009054906101000a900460ff165b8061076b5750600860003373ffffffffffffffffffffffffffffffffffffffff1673ffffffffffffffffffffffffffffffffffffffff16815260200190815260200160002060000160009054906101000a900460ff165b6107aa576040517f08c379a00000000000000000000000000000000000000000000000000000000081526004016107a1906119c7565b60405180910390fd5b600360008373ffffffffffffffffffffffffffffffffffffffff1673ffffffffffffffffffffffffffffffffffffffff16815260200190815260200160002060000160009054906101000a900460ff16610839576040517f08c379a0000000000000000000000000000000000000000000000000000000008152600401610830906119a7565b60405180910390fd5b6000600c600081548092919061084e90611c5a565b9190505590508160200151600d60008573ffffffffffffffffffffffffffffffffffffffff1673ffffffffffffffffffffffffffffffffffffffff168152602001908152602001600020600083815260200190815260200160002060010160006101000a81548160ff021916908360048111156108ce576108cd611cd2565b5b02179055508160400151600d60008573ffffffffffffffffffffffffffffffffffffffff1673ffffffffffffffffffffffffffffffffffffffff168152602001908152602001600020600083815260200190815260200160002060010160016101000a81548173ffffffffffffffffffffffffffffffffffffffff021916908373ffffffffffffffffffffffffffffffffffffffff1602179055508160600151600d60008573ffffffffffffffffffffffffffffffffffffffff1673ffffffffffffffffffffffffffffffffffffffff1681526020019081526020016000206000838152602001908152602001600020600201819055508160800151600d60008573ffffffffffffffffffffffffffffffffffffffff1673ffffffffffffffffffffffffffffffffffffffff1681526020019081526020016000206000838152602001908152602001600020600301819055508160a00151600d60008573ffffffffffffffffffffffffffffffffffffffff1673ffffffffffffffffffffffffffffffffffffffff168152602001908152602001600020600083815260200190815260200160002060040160006101000a81548160ff02191690836003811115610a9b57610a9a611cd2565b5b02179055508160c00151600d60008573ffffffffffffffffffffffffffffffffffffffff1673ffffffffffffffffffffffffffffffffffffffff168152602001908152602001600020600083815260200190815260200160002060040160016101000a81548163ffffffff021916908363ffffffff1602179055507f7ba1bbcf238bfcb5340d21d7c5589befed8cf4fd0b2a031a143aab22cf1d047b82602001518360400151846060015185608001518660a001518760c00151604051610b6796959493929190611946565b60405180910390a1505050565b60086020528060005260406000206000915090508060000160009054906101000a900460ff1690806001018054610baa90611bf7565b80601f0160208091040260200160405190810160405280929190818152602001828054610bd690611bf7565b8015610c235780601f10610bf857610100808354040283529160200191610c23565b820191906000526020600020905b815481529060010190602001808311610c0657829003601f168201915b5050505050908060020160009054906101000a900460ff16905083565b60096020528060005260406000206000915090508060000160009054906101000a900460ff1690806001018054610c7690611bf7565b80601f0160208091040260200160405190810160405280929190818152602001828054610ca290611bf7565b8015610cef5780601f10610cc457610100808354040283529160200191610cef565b820191906000526020600020905b815481529060010190602001808311610cd257829003601f168201915b5050505050908060020160009054906101000a900460ff16905083565b600b6020528060005260406000206000915090508060000160009054906101000a900463ffffffff1690806001018054610d4590611bf7565b80601f0160208091040260200160405190810160405280929190818152602001828054610d7190611bf7565b8015610dbe5780601f10610d9357610100808354040283529160200191610dbe565b820191906000526020600020905b815481529060010190602001808311610da157829003601f168201915b5050505050905082565b600c5481565b60056020528060005260406000206000915090508060000160009054906101000a900460ff16908060000160019054906101000a900473ffffffffffffffffffffffffffffffffffffffff16908060000160159054906101000a900461ffff16908060000160179054906101000a900460ff1690806001018054610e5190611bf7565b80601f0160208091040260200160405190810160405280929190818152602001828054610e7d90611bf7565b8015610eca5780601f10610e9f57610100808354040283529160200191610eca565b820191906000526020600020905b815481529060010190602001808311610ead57829003601f168201915b505050505090806002018054610edf90611bf7565b80601f0160208091040260200160405190810160405280929190818152602001828054610f0b90611bf7565b8015610f585780601f10610f2d57610100808354040283529160200191610f58565b820191906000526020600020905b815481529060010190602001808311610f3b57829003601f168201915b5050505050905086565b60036020528060005260406000206000915090508060000160009054906101000a900460ff16905081565b6000600460003373ffffffffffffffffffffffffffffffffffffffff1673ffffffffffffffffffffffffffffffffffffffff16815260200190815260200160002060000160009054906101000a900460ff16806110365750600660003373ffffffffffffffffffffffffffffffffffffffff1673ffffffffffffffffffffffffffffffffffffffff16815260200190815260200160002060000160009054906101000a900460ff165b8061108d5750600860003373ffffffffffffffffffffffffffffffffffffffff1673ffffffffffffffffffffffffffffffffffffffff16815260200190815260200160002060000160009054906101000a900460ff165b6110cc576040517f08c379a00000000000000000000000000000000000000000000000000000000081526004016110c3906119c7565b60405180910390fd5b600360008473ffffffffffffffffffffffffffffffffffffffff1673ffffffffffffffffffffffffffffffffffffffff16815260200190815260200160002060000160009054906101000a900460ff1661115b576040517f08c379a0000000000000000000000000000000000000000000000000000000008152600401611152906119a7565b60405180910390fd5b8160200151600d60008573ffffffffffffffffffffffffffffffffffffffff1673ffffffffffffffffffffffffffffffffffffffff16815260200190815260200160002060008460000151815260200190815260200160002060010160006101000a81548160ff021916908360048111156111d9576111d8611cd2565b5b02179055508160400151600d60008573ffffffffffffffffffffffffffffffffffffffff1673ffffffffffffffffffffffffffffffffffffffff16815260200190815260200160002060008460000151815260200190815260200160002060010160016101000a81548173ffffffffffffffffffffffffffffffffffffffff021916908373ffffffffffffffffffffffffffffffffffffffff1602179055508160600151600d60008573ffffffffffffffffffffffffffffffffffffffff1673ffffffffffffffffffffffffffffffffffffffff168152602001908152602001600020600084600001518152602001908152602001600020600201819055508160800151600d60008573ffffffffffffffffffffffffffffffffffffffff1673ffffffffffffffffffffffffffffffffffffffff168152602001908152602001600020600084600001518152602001908152602001600020600301819055508160a00151600d60008573ffffffffffffffffffffffffffffffffffffffff1673ffffffffffffffffffffffffffffffffffffffff16815260200190815260200160002060008460000151815260200190815260200160002060040160006101000a81548160ff021916908360038111156113b6576113b5611cd2565b5b02179055508160c00151600d60008573ffffffffffffffffffffffffffffffffffffffff1673ffffffffffffffffffffffffffffffffffffffff16815260200190815260200160002060008460000151815260200190815260200160002060040160016101000a81548163ffffffff021916908363ffffffff1602179055507fe0af8937909276b9604018dff5ed05fce915311087fbe7ef361a586d7c2facda82602001518360400151846060015185608001518660a001518760c0015160405161148696959493929190611946565b60405180910390a18160000151905092915050565b600d602052816000526040600020602052806000526040600020600091509150508060000154908060010160009054906101000a900460ff16908060010160019054906101000a900473ffffffffffffffffffffffffffffffffffffffff16908060020154908060030154908060040160009054906101000a900460ff16908060040160019054906101000a900463ffffffff16905087565b60008135905061154381611e08565b92915050565b60008135905061155881611e1f565b92915050565b60008135905061156d81611e2f565b92915050565b600060e0828403121561158957611588611d5f565b5b61159360e0611aa1565b905060006115a384828501611627565b60008301525060206115b78482850161155e565b60208301525060406115cb84828501611534565b60408301525060606115df84828501611627565b60608301525060806115f384828501611627565b60808301525060a061160784828501611549565b60a08301525060c061161b8482850161163c565b60c08301525092915050565b60008135905061163681611e3f565b92915050565b60008135905061164b81611e56565b92915050565b60006020828403121561166757611666611d64565b5b600061167584828501611534565b91505092915050565b600080610100838503121561169657611695611d64565b5b60006116a485828601611534565b92505060206116b585828601611573565b9150509250929050565b600080604083850312156116d6576116d5611d64565b5b60006116e485828601611534565b92505060206116f585828601611627565b9150509250929050565b60006020828403121561171557611714611d64565b5b60006117238482850161163c565b91505092915050565b61173581611ae2565b82525050565b61174481611af4565b82525050565b61175381611b8e565b82525050565b61176281611ba0565b82525050565b61177181611bb2565b82525050565b600061178282611ac6565b61178c8185611ad1565b935061179c818560208601611bc4565b6117a581611d69565b840191505092915050565b60006117bd601183611ad1565b91506117c882611d7a565b602082019050919050565b60006117e0602083611ad1565b91506117eb82611da3565b602082019050919050565b6117ff81611b39565b82525050565b61180e81611b67565b82525050565b61181d81611b71565b82525050565b61182c81611b81565b82525050565b6000602082019050611847600083018461173b565b92915050565b600060c082019050611862600083018961173b565b61186f602083018861172c565b61187c60408301876117f6565b6118896060830186611768565b818103608083015261189b8185611777565b905081810360a08301526118af8184611777565b9050979650505050505050565b60006060820190506118d1600083018661173b565b81810360208301526118e38185611777565b90506118f26040830184611823565b949350505050565b600060808201905061190f600083018761173b565b61191c6020830186611823565b6119296040830185611805565b818103606083015261193b8184611777565b905095945050505050565b600060c08201905061195b6000830189611759565b611968602083018861172c565b6119756040830187611805565b6119826060830186611805565b61198f608083018561174a565b61199c60a0830184611814565b979650505050505050565b600060208201905081810360008301526119c0816117b0565b9050919050565b600060208201905081810360008301526119e0816117d3565b9050919050565b60006020820190506119fc6000830184611805565b92915050565b600060e082019050611a17600083018a611805565b611a246020830189611759565b611a31604083018861172c565b611a3e6060830187611805565b611a4b6080830186611805565b611a5860a083018561174a565b611a6560c0830184611814565b98975050505050505050565b6000604082019050611a866000830185611814565b8181036020830152611a988184611777565b90509392505050565b6000611aab611abc565b9050611ab78282611c29565b919050565b6000604051905090565b600081519050919050565b600082825260208201905092915050565b6000611aed82611b47565b9050919050565b60008115159050919050565b6000819050611b0e82611dcc565b919050565b6000819050611b2182611de0565b919050565b6000819050611b3482611df4565b919050565b600061ffff82169050919050565b600073ffffffffffffffffffffffffffffffffffffffff82169050919050565b6000819050919050565b600063ffffffff82169050919050565b600060ff82169050919050565b6000611b9982611b00565b9050919050565b6000611bab82611b13565b9050919050565b6000611bbd82611b26565b9050919050565b60005b83811015611be2578082015181840152602081019050611bc7565b83811115611bf1576000848401525b50505050565b60006002820490506001821680611c0f57607f821691505b60208210811415611c2357611c22611d01565b5b50919050565b611c3282611d69565b810181811067ffffffffffffffff82111715611c5157611c50611d30565b5b80604052505050565b6000611c6582611b67565b91507fffffffffffffffffffffffffffffffffffffffffffffffffffffffffffffffff821415611c9857611c97611ca3565b5b600182019050919050565b7f4e487b7100000000000000000000000000000000000000000000000000000000600052601160045260246000fd5b7f4e487b7100000000000000000000000000000000000000000000000000000000600052602160045260246000fd5b7f4e487b7100000000000000000000000000000000000000000000000000000000600052602260045260246000fd5b7f4e487b7100000000000000000000000000000000000000000000000000000000600052604160045260246000fd5b600080fd5b600080fd5b6000601f19601f8301169050919050565b7f4b697369206d657663757420646567696c000000000000000000000000000000600082015250565b7f42752069736c656d6920736164656365204b757273207961706162696c69722e600082015250565b60048110611ddd57611ddc611cd2565b5b50565b60058110611df157611df0611cd2565b5b50565b60048110611e0557611e04611cd2565b5b50565b611e1181611ae2565b8114611e1c57600080fd5b50565b60048110611e2c57600080fd5b50565b60058110611e3c57600080fd5b50565b611e4881611b67565b8114611e5357600080fd5b50565b611e5f81611b71565b8114611e6a57600080fd5b5056fea264697066735822122071c7b2c4dc7fddd8eee2bed3ad998744db73152801ff94fdb4bd4679afd1ade164736f6c63430008070033",
					"opcodes": "PUSH1 0x80 PUSH1 0x40 MSTORE CALLVALUE DUP1 ISZERO PUSH2 0x10 JUMPI PUSH1 0x0 DUP1 REVERT JUMPDEST POP PUSH2 0x1EA3 DUP1 PUSH2 0x20 PUSH1 0x0 CODECOPY PUSH1 0x0 RETURN INVALID PUSH1 0x80 PUSH1 0x40 MSTORE CALLVALUE DUP1 ISZERO PUSH2 0x10 JUMPI PUSH1 0x0 DUP1 REVERT JUMPDEST POP PUSH1 0x4 CALLDATASIZE LT PUSH2 0xCF JUMPI PUSH1 0x0 CALLDATALOAD PUSH1 0xE0 SHR DUP1 PUSH4 0x9A8C9119 GT PUSH2 0x8C JUMPI DUP1 PUSH4 0xBA479B7E GT PUSH2 0x66 JUMPI DUP1 PUSH4 0xBA479B7E EQ PUSH2 0x26C JUMPI DUP1 PUSH4 0xCBC92809 EQ PUSH2 0x2A1 JUMPI DUP1 PUSH4 0xCC9D368A EQ PUSH2 0x2D1 JUMPI DUP1 PUSH4 0xEE69E1AF EQ PUSH2 0x301 JUMPI PUSH2 0xCF JUMP JUMPDEST DUP1 PUSH4 0x9A8C9119 EQ PUSH2 0x1EB JUMPI DUP1 PUSH4 0xA4E7AE05 EQ PUSH2 0x21D JUMPI DUP1 PUSH4 0xAF640D0F EQ PUSH2 0x24E JUMPI PUSH2 0xCF JUMP JUMPDEST DUP1 PUSH4 0x1916E139 EQ PUSH2 0xD4 JUMPI DUP1 PUSH4 0x28266697 EQ PUSH2 0x106 JUMPI DUP1 PUSH4 0x356B1F1E EQ PUSH2 0x138 JUMPI DUP1 PUSH4 0x39987F94 EQ PUSH2 0x16A JUMPI DUP1 PUSH4 0x70223E73 EQ PUSH2 0x19D JUMPI DUP1 PUSH4 0x7D0FA287 EQ PUSH2 0x1B9 JUMPI JUMPDEST PUSH1 0x0 DUP1 REVERT JUMPDEST PUSH2 0xEE PUSH1 0x4 DUP1 CALLDATASIZE SUB DUP2 ADD SWAP1 PUSH2 0xE9 SWAP2 SWAP1 PUSH2 0x1651 JUMP JUMPDEST PUSH2 0x337 JUMP JUMPDEST PUSH1 0x40 MLOAD PUSH2 0xFD SWAP4 SWAP3 SWAP2 SWAP1 PUSH2 0x18BC JUMP JUMPDEST PUSH1 0x40 MLOAD DUP1 SWAP2 SUB SWAP1 RETURN JUMPDEST PUSH2 0x120 PUSH1 0x4 DUP1 CALLDATASIZE SUB DUP2 ADD SWAP1 PUSH2 0x11B SWAP2 SWAP1 PUSH2 0x1651 JUMP JUMPDEST PUSH2 0x403 JUMP JUMPDEST PUSH1 0x40 MLOAD PUSH2 0x12F SWAP4 SWAP3 SWAP2 SWAP1 PUSH2 0x18BC JUMP JUMPDEST PUSH1 0x40 MLOAD DUP1 SWAP2 SUB SWAP1 RETURN JUMPDEST PUSH2 0x152 PUSH1 0x4 DUP1 CALLDATASIZE SUB DUP2 ADD SWAP1 PUSH2 0x14D SWAP2 SWAP1 PUSH2 0x1651 JUMP JUMPDEST PUSH2 0x4CF JUMP JUMPDEST PUSH1 0x40 MLOAD PUSH2 0x161 SWAP4 SWAP3 SWAP2 SWAP1 PUSH2 0x18BC JUMP JUMPDEST PUSH1 0x40 MLOAD DUP1 SWAP2 SUB SWAP1 RETURN JUMPDEST PUSH2 0x184 PUSH1 0x4 DUP1 CALLDATASIZE SUB DUP2 ADD SWAP1 PUSH2 0x17F SWAP2 SWAP1 PUSH2 0x1651 JUMP JUMPDEST PUSH2 0x59B JUMP JUMPDEST PUSH1 0x40 MLOAD PUSH2 0x194 SWAP5 SWAP4 SWAP3 SWAP2 SWAP1 PUSH2 0x18FA JUMP JUMPDEST PUSH1 0x40 MLOAD DUP1 SWAP2 SUB SWAP1 RETURN JUMPDEST PUSH2 0x1B7 PUSH1 0x4 DUP1 CALLDATASIZE SUB DUP2 ADD SWAP1 PUSH2 0x1B2 SWAP2 SWAP1 PUSH2 0x167E JUMP JUMPDEST PUSH2 0x66D JUMP JUMPDEST STOP JUMPDEST PUSH2 0x1D3 PUSH1 0x4 DUP1 CALLDATASIZE SUB DUP2 ADD SWAP1 PUSH2 0x1CE SWAP2 SWAP1 PUSH2 0x1651 JUMP JUMPDEST PUSH2 0xB74 JUMP JUMPDEST PUSH1 0x40 MLOAD PUSH2 0x1E2 SWAP4 SWAP3 SWAP2 SWAP1 PUSH2 0x18BC JUMP JUMPDEST PUSH1 0x40 MLOAD DUP1 SWAP2 SUB SWAP1 RETURN JUMPDEST PUSH2 0x205 PUSH1 0x4 DUP1 CALLDATASIZE SUB DUP2 ADD SWAP1 PUSH2 0x200 SWAP2 SWAP1 PUSH2 0x1651 JUMP JUMPDEST PUSH2 0xC40 JUMP JUMPDEST PUSH1 0x40 MLOAD PUSH2 0x214 SWAP4 SWAP3 SWAP2 SWAP1 PUSH2 0x18BC JUMP JUMPDEST PUSH1 0x40 MLOAD DUP1 SWAP2 SUB SWAP1 RETURN JUMPDEST PUSH2 0x237 PUSH1 0x4 DUP1 CALLDATASIZE SUB DUP2 ADD SWAP1 PUSH2 0x232 SWAP2 SWAP1 PUSH2 0x16FF JUMP JUMPDEST PUSH2 0xD0C JUMP JUMPDEST PUSH1 0x40 MLOAD PUSH2 0x245 SWAP3 SWAP2 SWAP1 PUSH2 0x1A71 JUMP JUMPDEST PUSH1 0x40 MLOAD DUP1 SWAP2 SUB SWAP1 RETURN JUMPDEST PUSH2 0x256 PUSH2 0xDC8 JUMP JUMPDEST PUSH1 0x40 MLOAD PUSH2 0x263 SWAP2 SWAP1 PUSH2 0x19E7 JUMP JUMPDEST PUSH1 0x40 MLOAD DUP1 SWAP2 SUB SWAP1 RETURN JUMPDEST PUSH2 0x286 PUSH1 0x4 DUP1 CALLDATASIZE SUB DUP2 ADD SWAP1 PUSH2 0x281 SWAP2 SWAP1 PUSH2 0x1651 JUMP JUMPDEST PUSH2 0xDCE JUMP JUMPDEST PUSH1 0x40 MLOAD PUSH2 0x298 SWAP7 SWAP6 SWAP5 SWAP4 SWAP3 SWAP2 SWAP1 PUSH2 0x184D JUMP JUMPDEST PUSH1 0x40 MLOAD DUP1 SWAP2 SUB SWAP1 RETURN JUMPDEST PUSH2 0x2BB PUSH1 0x4 DUP1 CALLDATASIZE SUB DUP2 ADD SWAP1 PUSH2 0x2B6 SWAP2 SWAP1 PUSH2 0x1651 JUMP JUMPDEST PUSH2 0xF62 JUMP JUMPDEST PUSH1 0x40 MLOAD PUSH2 0x2C8 SWAP2 SWAP1 PUSH2 0x1832 JUMP JUMPDEST PUSH1 0x40 MLOAD DUP1 SWAP2 SUB SWAP1 RETURN JUMPDEST PUSH2 0x2EB PUSH1 0x4 DUP1 CALLDATASIZE SUB DUP2 ADD SWAP1 PUSH2 0x2E6 SWAP2 SWAP1 PUSH2 0x167E JUMP JUMPDEST PUSH2 0xF8D JUMP JUMPDEST PUSH1 0x40 MLOAD PUSH2 0x2F8 SWAP2 SWAP1 PUSH2 0x19E7 JUMP JUMPDEST PUSH1 0x40 MLOAD DUP1 SWAP2 SUB SWAP1 RETURN JUMPDEST PUSH2 0x31B PUSH1 0x4 DUP1 CALLDATASIZE SUB DUP2 ADD SWAP1 PUSH2 0x316 SWAP2 SWAP1 PUSH2 0x16BF JUMP JUMPDEST PUSH2 0x149B JUMP JUMPDEST PUSH1 0x40 MLOAD PUSH2 0x32E SWAP8 SWAP7 SWAP6 SWAP5 SWAP4 SWAP3 SWAP2 SWAP1 PUSH2 0x1A02 JUMP JUMPDEST PUSH1 0x40 MLOAD DUP1 SWAP2 SUB SWAP1 RETURN JUMPDEST PUSH1 0x7 PUSH1 0x20 MSTORE DUP1 PUSH1 0x0 MSTORE PUSH1 0x40 PUSH1 0x0 KECCAK256 PUSH1 0x0 SWAP2 POP SWAP1 POP DUP1 PUSH1 0x0 ADD PUSH1 0x0 SWAP1 SLOAD SWAP1 PUSH2 0x100 EXP SWAP1 DIV PUSH1 0xFF AND SWAP1 DUP1 PUSH1 0x1 ADD DUP1 SLOAD PUSH2 0x36D SWAP1 PUSH2 0x1BF7 JUMP JUMPDEST DUP1 PUSH1 0x1F ADD PUSH1 0x20 DUP1 SWAP2 DIV MUL PUSH1 0x20 ADD PUSH1 0x40 MLOAD SWAP1 DUP2 ADD PUSH1 0x40 MSTORE DUP1 SWAP3 SWAP2 SWAP1 DUP2 DUP2 MSTORE PUSH1 0x20 ADD DUP3 DUP1 SLOAD PUSH2 0x399 SWAP1 PUSH2 0x1BF7 JUMP JUMPDEST DUP1 ISZERO PUSH2 0x3E6 JUMPI DUP1 PUSH1 0x1F LT PUSH2 0x3BB JUMPI PUSH2 0x100 DUP1 DUP4 SLOAD DIV MUL DUP4 MSTORE SWAP2 PUSH1 0x20 ADD SWAP2 PUSH2 0x3E6 JUMP JUMPDEST DUP3 ADD SWAP2 SWAP1 PUSH1 0x0 MSTORE PUSH1 0x20 PUSH1 0x0 KECCAK256 SWAP1 JUMPDEST DUP2 SLOAD DUP2 MSTORE SWAP1 PUSH1 0x1 ADD SWAP1 PUSH1 0x20 ADD DUP1 DUP4 GT PUSH2 0x3C9 JUMPI DUP3 SWAP1 SUB PUSH1 0x1F AND DUP3 ADD SWAP2 JUMPDEST POP POP POP POP POP SWAP1 DUP1 PUSH1 0x2 ADD PUSH1 0x0 SWAP1 SLOAD SWAP1 PUSH2 0x100 EXP SWAP1 DIV PUSH1 0xFF AND SWAP1 POP DUP4 JUMP JUMPDEST PUSH1 0x4 PUSH1 0x20 MSTORE DUP1 PUSH1 0x0 MSTORE PUSH1 0x40 PUSH1 0x0 KECCAK256 PUSH1 0x0 SWAP2 POP SWAP1 POP DUP1 PUSH1 0x0 ADD PUSH1 0x0 SWAP1 SLOAD SWAP1 PUSH2 0x100 EXP SWAP1 DIV PUSH1 0xFF AND SWAP1 DUP1 PUSH1 0x1 ADD DUP1 SLOAD PUSH2 0x439 SWAP1 PUSH2 0x1BF7 JUMP JUMPDEST DUP1 PUSH1 0x1F ADD PUSH1 0x20 DUP1 SWAP2 DIV MUL PUSH1 0x20 ADD PUSH1 0x40 MLOAD SWAP1 DUP2 ADD PUSH1 0x40 MSTORE DUP1 SWAP3 SWAP2 SWAP1 DUP2 DUP2 MSTORE PUSH1 0x20 ADD DUP3 DUP1 SLOAD PUSH2 0x465 SWAP1 PUSH2 0x1BF7 JUMP JUMPDEST DUP1 ISZERO PUSH2 0x4B2 JUMPI DUP1 PUSH1 0x1F LT PUSH2 0x487 JUMPI PUSH2 0x100 DUP1 DUP4 SLOAD DIV MUL DUP4 MSTORE SWAP2 PUSH1 0x20 ADD SWAP2 PUSH2 0x4B2 JUMP JUMPDEST DUP3 ADD SWAP2 SWAP1 PUSH1 0x0 MSTORE PUSH1 0x20 PUSH1 0x0 KECCAK256 SWAP1 JUMPDEST DUP2 SLOAD DUP2 MSTORE SWAP1 PUSH1 0x1 ADD SWAP1 PUSH1 0x20 ADD DUP1 DUP4 GT PUSH2 0x495 JUMPI DUP3 SWAP1 SUB PUSH1 0x1F AND DUP3 ADD SWAP2 JUMPDEST POP POP POP POP POP SWAP1 DUP1 PUSH1 0x2 ADD PUSH1 0x0 SWAP1 SLOAD SWAP1 PUSH2 0x100 EXP SWAP1 DIV PUSH1 0xFF AND SWAP1 POP DUP4 JUMP JUMPDEST PUSH1 0xA PUSH1 0x20 MSTORE DUP1 PUSH1 0x0 MSTORE PUSH1 0x40 PUSH1 0x0 KECCAK256 PUSH1 0x0 SWAP2 POP SWAP1 POP DUP1 PUSH1 0x0 ADD PUSH1 0x0 SWAP1 SLOAD SWAP1 PUSH2 0x100 EXP SWAP1 DIV PUSH1 0xFF AND SWAP1 DUP1 PUSH1 0x1 ADD DUP1 SLOAD PUSH2 0x505 SWAP1 PUSH2 0x1BF7 JUMP JUMPDEST DUP1 PUSH1 0x1F ADD PUSH1 0x20 DUP1 SWAP2 DIV MUL PUSH1 0x20 ADD PUSH1 0x40 MLOAD SWAP1 DUP2 ADD PUSH1 0x40 MSTORE DUP1 SWAP3 SWAP2 SWAP1 DUP2 DUP2 MSTORE PUSH1 0x20 ADD DUP3 DUP1 SLOAD PUSH2 0x531 SWAP1 PUSH2 0x1BF7 JUMP JUMPDEST DUP1 ISZERO PUSH2 0x57E JUMPI DUP1 PUSH1 0x1F LT PUSH2 0x553 JUMPI PUSH2 0x100 DUP1 DUP4 SLOAD DIV MUL DUP4 MSTORE SWAP2 PUSH1 0x20 ADD SWAP2 PUSH2 0x57E JUMP JUMPDEST DUP3 ADD SWAP2 SWAP1 PUSH1 0x0 MSTORE PUSH1 0x20 PUSH1 0x0 KECCAK256 SWAP1 JUMPDEST DUP2 SLOAD DUP2 MSTORE SWAP1 PUSH1 0x1 ADD SWAP1 PUSH1 0x20 ADD DUP1 DUP4 GT PUSH2 0x561 JUMPI DUP3 SWAP1 SUB PUSH1 0x1F AND DUP3 ADD SWAP2 JUMPDEST POP POP POP POP POP SWAP1 DUP1 PUSH1 0x2 ADD PUSH1 0x0 SWAP1 SLOAD SWAP1 PUSH2 0x100 EXP SWAP1 DIV PUSH1 0xFF AND SWAP1 POP DUP4 JUMP JUMPDEST PUSH1 0x6 PUSH1 0x20 MSTORE DUP1 PUSH1 0x0 MSTORE PUSH1 0x40 PUSH1 0x0 KECCAK256 PUSH1 0x0 SWAP2 POP SWAP1 POP DUP1 PUSH1 0x0 ADD PUSH1 0x0 SWAP1 SLOAD SWAP1 PUSH2 0x100 EXP SWAP1 DIV PUSH1 0xFF AND SWAP1 DUP1 PUSH1 0x0 ADD PUSH1 0x1 SWAP1 SLOAD SWAP1 PUSH2 0x100 EXP SWAP1 DIV PUSH1 0xFF AND SWAP1 DUP1 PUSH1 0x1 ADD SLOAD SWAP1 DUP1 PUSH1 0x2 ADD DUP1 SLOAD PUSH2 0x5EA SWAP1 PUSH2 0x1BF7 JUMP JUMPDEST DUP1 PUSH1 0x1F ADD PUSH1 0x20 DUP1 SWAP2 DIV MUL PUSH1 0x20 ADD PUSH1 0x40 MLOAD SWAP1 DUP2 ADD PUSH1 0x40 MSTORE DUP1 SWAP3 SWAP2 SWAP1 DUP2 DUP2 MSTORE PUSH1 0x20 ADD DUP3 DUP1 SLOAD PUSH2 0x616 SWAP1 PUSH2 0x1BF7 JUMP JUMPDEST DUP1 ISZERO PUSH2 0x663 JUMPI DUP1 PUSH1 0x1F LT PUSH2 0x638 JUMPI PUSH2 0x100 DUP1 DUP4 SLOAD DIV MUL DUP4 MSTORE SWAP2 PUSH1 0x20 ADD SWAP2 PUSH2 0x663 JUMP JUMPDEST DUP3 ADD SWAP2 SWAP1 PUSH1 0x0 MSTORE PUSH1 0x20 PUSH1 0x0 KECCAK256 SWAP1 JUMPDEST DUP2 SLOAD DUP2 MSTORE SWAP1 PUSH1 0x1 ADD SWAP1 PUSH1 0x20 ADD DUP1 DUP4 GT PUSH2 0x646 JUMPI DUP3 SWAP1 SUB PUSH1 0x1F AND DUP3 ADD SWAP2 JUMPDEST POP POP POP POP POP SWAP1 POP DUP5 JUMP JUMPDEST PUSH1 0x4 PUSH1 0x0 CALLER PUSH20 0xFFFFFFFFFFFFFFFFFFFFFFFFFFFFFFFFFFFFFFFF AND PUSH20 0xFFFFFFFFFFFFFFFFFFFFFFFFFFFFFFFFFFFFFFFF AND DUP2 MSTORE PUSH1 0x20 ADD SWAP1 DUP2 MSTORE PUSH1 0x20 ADD PUSH1 0x0 KECCAK256 PUSH1 0x0 ADD PUSH1 0x0 SWAP1 SLOAD SWAP1 PUSH2 0x100 EXP SWAP1 DIV PUSH1 0xFF AND DUP1 PUSH2 0x714 JUMPI POP PUSH1 0x6 PUSH1 0x0 CALLER PUSH20 0xFFFFFFFFFFFFFFFFFFFFFFFFFFFFFFFFFFFFFFFF AND PUSH20 0xFFFFFFFFFFFFFFFFFFFFFFFFFFFFFFFFFFFFFFFF AND DUP2 MSTORE PUSH1 0x20 ADD SWAP1 DUP2 MSTORE PUSH1 0x20 ADD PUSH1 0x0 KECCAK256 PUSH1 0x0 ADD PUSH1 0x0 SWAP1 SLOAD SWAP1 PUSH2 0x100 EXP SWAP1 DIV PUSH1 0xFF AND JUMPDEST DUP1 PUSH2 0x76B JUMPI POP PUSH1 0x8 PUSH1 0x0 CALLER PUSH20 0xFFFFFFFFFFFFFFFFFFFFFFFFFFFFFFFFFFFFFFFF AND PUSH20 0xFFFFFFFFFFFFFFFFFFFFFFFFFFFFFFFFFFFFFFFF AND DUP2 MSTORE PUSH1 0x20 ADD SWAP1 DUP2 MSTORE PUSH1 0x20 ADD PUSH1 0x0 KECCAK256 PUSH1 0x0 ADD PUSH1 0x0 SWAP1 SLOAD SWAP1 PUSH2 0x100 EXP SWAP1 DIV PUSH1 0xFF AND JUMPDEST PUSH2 0x7AA JUMPI PUSH1 0x40 MLOAD PUSH32 0x8C379A000000000000000000000000000000000000000000000000000000000 DUP2 MSTORE PUSH1 0x4 ADD PUSH2 0x7A1 SWAP1 PUSH2 0x19C7 JUMP JUMPDEST PUSH1 0x40 MLOAD DUP1 SWAP2 SUB SWAP1 REVERT JUMPDEST PUSH1 0x3 PUSH1 0x0 DUP4 PUSH20 0xFFFFFFFFFFFFFFFFFFFFFFFFFFFFFFFFFFFFFFFF AND PUSH20 0xFFFFFFFFFFFFFFFFFFFFFFFFFFFFFFFFFFFFFFFF AND DUP2 MSTORE PUSH1 0x20 ADD SWAP1 DUP2 MSTORE PUSH1 0x20 ADD PUSH1 0x0 KECCAK256 PUSH1 0x0 ADD PUSH1 0x0 SWAP1 SLOAD SWAP1 PUSH2 0x100 EXP SWAP1 DIV PUSH1 0xFF AND PUSH2 0x839 JUMPI PUSH1 0x40 MLOAD PUSH32 0x8C379A000000000000000000000000000000000000000000000000000000000 DUP2 MSTORE PUSH1 0x4 ADD PUSH2 0x830 SWAP1 PUSH2 0x19A7 JUMP JUMPDEST PUSH1 0x40 MLOAD DUP1 SWAP2 SUB SWAP1 REVERT JUMPDEST PUSH1 0x0 PUSH1 0xC PUSH1 0x0 DUP2 SLOAD DUP1 SWAP3 SWAP2 SWAP1 PUSH2 0x84E SWAP1 PUSH2 0x1C5A JUMP JUMPDEST SWAP2 SWAP1 POP SSTORE SWAP1 POP DUP2 PUSH1 0x20 ADD MLOAD PUSH1 0xD PUSH1 0x0 DUP6 PUSH20 0xFFFFFFFFFFFFFFFFFFFFFFFFFFFFFFFFFFFFFFFF AND PUSH20 0xFFFFFFFFFFFFFFFFFFFFFFFFFFFFFFFFFFFFFFFF AND DUP2 MSTORE PUSH1 0x20 ADD SWAP1 DUP2 MSTORE PUSH1 0x20 ADD PUSH1 0x0 KECCAK256 PUSH1 0x0 DUP4 DUP2 MSTORE PUSH1 0x20 ADD SWAP1 DUP2 MSTORE PUSH1 0x20 ADD PUSH1 0x0 KECCAK256 PUSH1 0x1 ADD PUSH1 0x0 PUSH2 0x100 EXP DUP2 SLOAD DUP2 PUSH1 0xFF MUL NOT AND SWAP1 DUP4 PUSH1 0x4 DUP2 GT ISZERO PUSH2 0x8CE JUMPI PUSH2 0x8CD PUSH2 0x1CD2 JUMP JUMPDEST JUMPDEST MUL OR SWAP1 SSTORE POP DUP2 PUSH1 0x40 ADD MLOAD PUSH1 0xD PUSH1 0x0 DUP6 PUSH20 0xFFFFFFFFFFFFFFFFFFFFFFFFFFFFFFFFFFFFFFFF AND PUSH20 0xFFFFFFFFFFFFFFFFFFFFFFFFFFFFFFFFFFFFFFFF AND DUP2 MSTORE PUSH1 0x20 ADD SWAP1 DUP2 MSTORE PUSH1 0x20 ADD PUSH1 0x0 KECCAK256 PUSH1 0x0 DUP4 DUP2 MSTORE PUSH1 0x20 ADD SWAP1 DUP2 MSTORE PUSH1 0x20 ADD PUSH1 0x0 KECCAK256 PUSH1 0x1 ADD PUSH1 0x1 PUSH2 0x100 EXP DUP2 SLOAD DUP2 PUSH20 0xFFFFFFFFFFFFFFFFFFFFFFFFFFFFFFFFFFFFFFFF MUL NOT AND SWAP1 DUP4 PUSH20 0xFFFFFFFFFFFFFFFFFFFFFFFFFFFFFFFFFFFFFFFF AND MUL OR SWAP1 SSTORE POP DUP2 PUSH1 0x60 ADD MLOAD PUSH1 0xD PUSH1 0x0 DUP6 PUSH20 0xFFFFFFFFFFFFFFFFFFFFFFFFFFFFFFFFFFFFFFFF AND PUSH20 0xFFFFFFFFFFFFFFFFFFFFFFFFFFFFFFFFFFFFFFFF AND DUP2 MSTORE PUSH1 0x20 ADD SWAP1 DUP2 MSTORE PUSH1 0x20 ADD PUSH1 0x0 KECCAK256 PUSH1 0x0 DUP4 DUP2 MSTORE PUSH1 0x20 ADD SWAP1 DUP2 MSTORE PUSH1 0x20 ADD PUSH1 0x0 KECCAK256 PUSH1 0x2 ADD DUP2 SWAP1 SSTORE POP DUP2 PUSH1 0x80 ADD MLOAD PUSH1 0xD PUSH1 0x0 DUP6 PUSH20 0xFFFFFFFFFFFFFFFFFFFFFFFFFFFFFFFFFFFFFFFF AND PUSH20 0xFFFFFFFFFFFFFFFFFFFFFFFFFFFFFFFFFFFFFFFF AND DUP2 MSTORE PUSH1 0x20 ADD SWAP1 DUP2 MSTORE PUSH1 0x20 ADD PUSH1 0x0 KECCAK256 PUSH1 0x0 DUP4 DUP2 MSTORE PUSH1 0x20 ADD SWAP1 DUP2 MSTORE PUSH1 0x20 ADD PUSH1 0x0 KECCAK256 PUSH1 0x3 ADD DUP2 SWAP1 SSTORE POP DUP2 PUSH1 0xA0 ADD MLOAD PUSH1 0xD PUSH1 0x0 DUP6 PUSH20 0xFFFFFFFFFFFFFFFFFFFFFFFFFFFFFFFFFFFFFFFF AND PUSH20 0xFFFFFFFFFFFFFFFFFFFFFFFFFFFFFFFFFFFFFFFF AND DUP2 MSTORE PUSH1 0x20 ADD SWAP1 DUP2 MSTORE PUSH1 0x20 ADD PUSH1 0x0 KECCAK256 PUSH1 0x0 DUP4 DUP2 MSTORE PUSH1 0x20 ADD SWAP1 DUP2 MSTORE PUSH1 0x20 ADD PUSH1 0x0 KECCAK256 PUSH1 0x4 ADD PUSH1 0x0 PUSH2 0x100 EXP DUP2 SLOAD DUP2 PUSH1 0xFF MUL NOT AND SWAP1 DUP4 PUSH1 0x3 DUP2 GT ISZERO PUSH2 0xA9B JUMPI PUSH2 0xA9A PUSH2 0x1CD2 JUMP JUMPDEST JUMPDEST MUL OR SWAP1 SSTORE POP DUP2 PUSH1 0xC0 ADD MLOAD PUSH1 0xD PUSH1 0x0 DUP6 PUSH20 0xFFFFFFFFFFFFFFFFFFFFFFFFFFFFFFFFFFFFFFFF AND PUSH20 0xFFFFFFFFFFFFFFFFFFFFFFFFFFFFFFFFFFFFFFFF AND DUP2 MSTORE PUSH1 0x20 ADD SWAP1 DUP2 MSTORE PUSH1 0x20 ADD PUSH1 0x0 KECCAK256 PUSH1 0x0 DUP4 DUP2 MSTORE PUSH1 0x20 ADD SWAP1 DUP2 MSTORE PUSH1 0x20 ADD PUSH1 0x0 KECCAK256 PUSH1 0x4 ADD PUSH1 0x1 PUSH2 0x100 EXP DUP2 SLOAD DUP2 PUSH4 0xFFFFFFFF MUL NOT AND SWAP1 DUP4 PUSH4 0xFFFFFFFF AND MUL OR SWAP1 SSTORE POP PUSH32 0x7BA1BBCF238BFCB5340D21D7C5589BEFED8CF4FD0B2A031A143AAB22CF1D047B DUP3 PUSH1 0x20 ADD MLOAD DUP4 PUSH1 0x40 ADD MLOAD DUP5 PUSH1 0x60 ADD MLOAD DUP6 PUSH1 0x80 ADD MLOAD DUP7 PUSH1 0xA0 ADD MLOAD DUP8 PUSH1 0xC0 ADD MLOAD PUSH1 0x40 MLOAD PUSH2 0xB67 SWAP7 SWAP6 SWAP5 SWAP4 SWAP3 SWAP2 SWAP1 PUSH2 0x1946 JUMP JUMPDEST PUSH1 0x40 MLOAD DUP1 SWAP2 SUB SWAP1 LOG1 POP POP POP JUMP JUMPDEST PUSH1 0x8 PUSH1 0x20 MSTORE DUP1 PUSH1 0x0 MSTORE PUSH1 0x40 PUSH1 0x0 KECCAK256 PUSH1 0x0 SWAP2 POP SWAP1 POP DUP1 PUSH1 0x0 ADD PUSH1 0x0 SWAP1 SLOAD SWAP1 PUSH2 0x100 EXP SWAP1 DIV PUSH1 0xFF AND SWAP1 DUP1 PUSH1 0x1 ADD DUP1 SLOAD PUSH2 0xBAA SWAP1 PUSH2 0x1BF7 JUMP JUMPDEST DUP1 PUSH1 0x1F ADD PUSH1 0x20 DUP1 SWAP2 DIV MUL PUSH1 0x20 ADD PUSH1 0x40 MLOAD SWAP1 DUP2 ADD PUSH1 0x40 MSTORE DUP1 SWAP3 SWAP2 SWAP1 DUP2 DUP2 MSTORE PUSH1 0x20 ADD DUP3 DUP1 SLOAD PUSH2 0xBD6 SWAP1 PUSH2 0x1BF7 JUMP JUMPDEST DUP1 ISZERO PUSH2 0xC23 JUMPI DUP1 PUSH1 0x1F LT PUSH2 0xBF8 JUMPI PUSH2 0x100 DUP1 DUP4 SLOAD DIV MUL DUP4 MSTORE SWAP2 PUSH1 0x20 ADD SWAP2 PUSH2 0xC23 JUMP JUMPDEST DUP3 ADD SWAP2 SWAP1 PUSH1 0x0 MSTORE PUSH1 0x20 PUSH1 0x0 KECCAK256 SWAP1 JUMPDEST DUP2 SLOAD DUP2 MSTORE SWAP1 PUSH1 0x1 ADD SWAP1 PUSH1 0x20 ADD DUP1 DUP4 GT PUSH2 0xC06 JUMPI DUP3 SWAP1 SUB PUSH1 0x1F AND DUP3 ADD SWAP2 JUMPDEST POP POP POP POP POP SWAP1 DUP1 PUSH1 0x2 ADD PUSH1 0x0 SWAP1 SLOAD SWAP1 PUSH2 0x100 EXP SWAP1 DIV PUSH1 0xFF AND SWAP1 POP DUP4 JUMP JUMPDEST PUSH1 0x9 PUSH1 0x20 MSTORE DUP1 PUSH1 0x0 MSTORE PUSH1 0x40 PUSH1 0x0 KECCAK256 PUSH1 0x0 SWAP2 POP SWAP1 POP DUP1 PUSH1 0x0 ADD PUSH1 0x0 SWAP1 SLOAD SWAP1 PUSH2 0x100 EXP SWAP1 DIV PUSH1 0xFF AND SWAP1 DUP1 PUSH1 0x1 ADD DUP1 SLOAD PUSH2 0xC76 SWAP1 PUSH2 0x1BF7 JUMP JUMPDEST DUP1 PUSH1 0x1F ADD PUSH1 0x20 DUP1 SWAP2 DIV MUL PUSH1 0x20 ADD PUSH1 0x40 MLOAD SWAP1 DUP2 ADD PUSH1 0x40 MSTORE DUP1 SWAP3 SWAP2 SWAP1 DUP2 DUP2 MSTORE PUSH1 0x20 ADD DUP3 DUP1 SLOAD PUSH2 0xCA2 SWAP1 PUSH2 0x1BF7 JUMP JUMPDEST DUP1 ISZERO PUSH2 0xCEF JUMPI DUP1 PUSH1 0x1F LT PUSH2 0xCC4 JUMPI PUSH2 0x100 DUP1 DUP4 SLOAD DIV MUL DUP4 MSTORE SWAP2 PUSH1 0x20 ADD SWAP2 PUSH2 0xCEF JUMP JUMPDEST DUP3 ADD SWAP2 SWAP1 PUSH1 0x0 MSTORE PUSH1 0x20 PUSH1 0x0 KECCAK256 SWAP1 JUMPDEST DUP2 SLOAD DUP2 MSTORE SWAP1 PUSH1 0x1 ADD SWAP1 PUSH1 0x20 ADD DUP1 DUP4 GT PUSH2 0xCD2 JUMPI DUP3 SWAP1 SUB PUSH1 0x1F AND DUP3 ADD SWAP2 JUMPDEST POP POP POP POP POP SWAP1 DUP1 PUSH1 0x2 ADD PUSH1 0x0 SWAP1 SLOAD SWAP1 PUSH2 0x100 EXP SWAP1 DIV PUSH1 0xFF AND SWAP1 POP DUP4 JUMP JUMPDEST PUSH1 0xB PUSH1 0x20 MSTORE DUP1 PUSH1 0x0 MSTORE PUSH1 0x40 PUSH1 0x0 KECCAK256 PUSH1 0x0 SWAP2 POP SWAP1 POP DUP1 PUSH1 0x0 ADD PUSH1 0x0 SWAP1 SLOAD SWAP1 PUSH2 0x100 EXP SWAP1 DIV PUSH4 0xFFFFFFFF AND SWAP1 DUP1 PUSH1 0x1 ADD DUP1 SLOAD PUSH2 0xD45 SWAP1 PUSH2 0x1BF7 JUMP JUMPDEST DUP1 PUSH1 0x1F ADD PUSH1 0x20 DUP1 SWAP2 DIV MUL PUSH1 0x20 ADD PUSH1 0x40 MLOAD SWAP1 DUP2 ADD PUSH1 0x40 MSTORE DUP1 SWAP3 SWAP2 SWAP1 DUP2 DUP2 MSTORE PUSH1 0x20 ADD DUP3 DUP1 SLOAD PUSH2 0xD71 SWAP1 PUSH2 0x1BF7 JUMP JUMPDEST DUP1 ISZERO PUSH2 0xDBE JUMPI DUP1 PUSH1 0x1F LT PUSH2 0xD93 JUMPI PUSH2 0x100 DUP1 DUP4 SLOAD DIV MUL DUP4 MSTORE SWAP2 PUSH1 0x20 ADD SWAP2 PUSH2 0xDBE JUMP JUMPDEST DUP3 ADD SWAP2 SWAP1 PUSH1 0x0 MSTORE PUSH1 0x20 PUSH1 0x0 KECCAK256 SWAP1 JUMPDEST DUP2 SLOAD DUP2 MSTORE SWAP1 PUSH1 0x1 ADD SWAP1 PUSH1 0x20 ADD DUP1 DUP4 GT PUSH2 0xDA1 JUMPI DUP3 SWAP1 SUB PUSH1 0x1F AND DUP3 ADD SWAP2 JUMPDEST POP POP POP POP POP SWAP1 POP DUP3 JUMP JUMPDEST PUSH1 0xC SLOAD DUP2 JUMP JUMPDEST PUSH1 0x5 PUSH1 0x20 MSTORE DUP1 PUSH1 0x0 MSTORE PUSH1 0x40 PUSH1 0x0 KECCAK256 PUSH1 0x0 SWAP2 POP SWAP1 POP DUP1 PUSH1 0x0 ADD PUSH1 0x0 SWAP1 SLOAD SWAP1 PUSH2 0x100 EXP SWAP1 DIV PUSH1 0xFF AND SWAP1 DUP1 PUSH1 0x0 ADD PUSH1 0x1 SWAP1 SLOAD SWAP1 PUSH2 0x100 EXP SWAP1 DIV PUSH20 0xFFFFFFFFFFFFFFFFFFFFFFFFFFFFFFFFFFFFFFFF AND SWAP1 DUP1 PUSH1 0x0 ADD PUSH1 0x15 SWAP1 SLOAD SWAP1 PUSH2 0x100 EXP SWAP1 DIV PUSH2 0xFFFF AND SWAP1 DUP1 PUSH1 0x0 ADD PUSH1 0x17 SWAP1 SLOAD SWAP1 PUSH2 0x100 EXP SWAP1 DIV PUSH1 0xFF AND SWAP1 DUP1 PUSH1 0x1 ADD DUP1 SLOAD PUSH2 0xE51 SWAP1 PUSH2 0x1BF7 JUMP JUMPDEST DUP1 PUSH1 0x1F ADD PUSH1 0x20 DUP1 SWAP2 DIV MUL PUSH1 0x20 ADD PUSH1 0x40 MLOAD SWAP1 DUP2 ADD PUSH1 0x40 MSTORE DUP1 SWAP3 SWAP2 SWAP1 DUP2 DUP2 MSTORE PUSH1 0x20 ADD DUP3 DUP1 SLOAD PUSH2 0xE7D SWAP1 PUSH2 0x1BF7 JUMP JUMPDEST DUP1 ISZERO PUSH2 0xECA JUMPI DUP1 PUSH1 0x1F LT PUSH2 0xE9F JUMPI PUSH2 0x100 DUP1 DUP4 SLOAD DIV MUL DUP4 MSTORE SWAP2 PUSH1 0x20 ADD SWAP2 PUSH2 0xECA JUMP JUMPDEST DUP3 ADD SWAP2 SWAP1 PUSH1 0x0 MSTORE PUSH1 0x20 PUSH1 0x0 KECCAK256 SWAP1 JUMPDEST DUP2 SLOAD DUP2 MSTORE SWAP1 PUSH1 0x1 ADD SWAP1 PUSH1 0x20 ADD DUP1 DUP4 GT PUSH2 0xEAD JUMPI DUP3 SWAP1 SUB PUSH1 0x1F AND DUP3 ADD SWAP2 JUMPDEST POP POP POP POP POP SWAP1 DUP1 PUSH1 0x2 ADD DUP1 SLOAD PUSH2 0xEDF SWAP1 PUSH2 0x1BF7 JUMP JUMPDEST DUP1 PUSH1 0x1F ADD PUSH1 0x20 DUP1 SWAP2 DIV MUL PUSH1 0x20 ADD PUSH1 0x40 MLOAD SWAP1 DUP2 ADD PUSH1 0x40 MSTORE DUP1 SWAP3 SWAP2 SWAP1 DUP2 DUP2 MSTORE PUSH1 0x20 ADD DUP3 DUP1 SLOAD PUSH2 0xF0B SWAP1 PUSH2 0x1BF7 JUMP JUMPDEST DUP1 ISZERO PUSH2 0xF58 JUMPI DUP1 PUSH1 0x1F LT PUSH2 0xF2D JUMPI PUSH2 0x100 DUP1 DUP4 SLOAD DIV MUL DUP4 MSTORE SWAP2 PUSH1 0x20 ADD SWAP2 PUSH2 0xF58 JUMP JUMPDEST DUP3 ADD SWAP2 SWAP1 PUSH1 0x0 MSTORE PUSH1 0x20 PUSH1 0x0 KECCAK256 SWAP1 JUMPDEST DUP2 SLOAD DUP2 MSTORE SWAP1 PUSH1 0x1 ADD SWAP1 PUSH1 0x20 ADD DUP1 DUP4 GT PUSH2 0xF3B JUMPI DUP3 SWAP1 SUB PUSH1 0x1F AND DUP3 ADD SWAP2 JUMPDEST POP POP POP POP POP SWAP1 POP DUP7 JUMP JUMPDEST PUSH1 0x3 PUSH1 0x20 MSTORE DUP1 PUSH1 0x0 MSTORE PUSH1 0x40 PUSH1 0x0 KECCAK256 PUSH1 0x0 SWAP2 POP SWAP1 POP DUP1 PUSH1 0x0 ADD PUSH1 0x0 SWAP1 SLOAD SWAP1 PUSH2 0x100 EXP SWAP1 DIV PUSH1 0xFF AND SWAP1 POP DUP2 JUMP JUMPDEST PUSH1 0x0 PUSH1 0x4 PUSH1 0x0 CALLER PUSH20 0xFFFFFFFFFFFFFFFFFFFFFFFFFFFFFFFFFFFFFFFF AND PUSH20 0xFFFFFFFFFFFFFFFFFFFFFFFFFFFFFFFFFFFFFFFF AND DUP2 MSTORE PUSH1 0x20 ADD SWAP1 DUP2 MSTORE PUSH1 0x20 ADD PUSH1 0x0 KECCAK256 PUSH1 0x0 ADD PUSH1 0x0 SWAP1 SLOAD SWAP1 PUSH2 0x100 EXP SWAP1 DIV PUSH1 0xFF AND DUP1 PUSH2 0x1036 JUMPI POP PUSH1 0x6 PUSH1 0x0 CALLER PUSH20 0xFFFFFFFFFFFFFFFFFFFFFFFFFFFFFFFFFFFFFFFF AND PUSH20 0xFFFFFFFFFFFFFFFFFFFFFFFFFFFFFFFFFFFFFFFF AND DUP2 MSTORE PUSH1 0x20 ADD SWAP1 DUP2 MSTORE PUSH1 0x20 ADD PUSH1 0x0 KECCAK256 PUSH1 0x0 ADD PUSH1 0x0 SWAP1 SLOAD SWAP1 PUSH2 0x100 EXP SWAP1 DIV PUSH1 0xFF AND JUMPDEST DUP1 PUSH2 0x108D JUMPI POP PUSH1 0x8 PUSH1 0x0 CALLER PUSH20 0xFFFFFFFFFFFFFFFFFFFFFFFFFFFFFFFFFFFFFFFF AND PUSH20 0xFFFFFFFFFFFFFFFFFFFFFFFFFFFFFFFFFFFFFFFF AND DUP2 MSTORE PUSH1 0x20 ADD SWAP1 DUP2 MSTORE PUSH1 0x20 ADD PUSH1 0x0 KECCAK256 PUSH1 0x0 ADD PUSH1 0x0 SWAP1 SLOAD SWAP1 PUSH2 0x100 EXP SWAP1 DIV PUSH1 0xFF AND JUMPDEST PUSH2 0x10CC JUMPI PUSH1 0x40 MLOAD PUSH32 0x8C379A000000000000000000000000000000000000000000000000000000000 DUP2 MSTORE PUSH1 0x4 ADD PUSH2 0x10C3 SWAP1 PUSH2 0x19C7 JUMP JUMPDEST PUSH1 0x40 MLOAD DUP1 SWAP2 SUB SWAP1 REVERT JUMPDEST PUSH1 0x3 PUSH1 0x0 DUP5 PUSH20 0xFFFFFFFFFFFFFFFFFFFFFFFFFFFFFFFFFFFFFFFF AND PUSH20 0xFFFFFFFFFFFFFFFFFFFFFFFFFFFFFFFFFFFFFFFF AND DUP2 MSTORE PUSH1 0x20 ADD SWAP1 DUP2 MSTORE PUSH1 0x20 ADD PUSH1 0x0 KECCAK256 PUSH1 0x0 ADD PUSH1 0x0 SWAP1 SLOAD SWAP1 PUSH2 0x100 EXP SWAP1 DIV PUSH1 0xFF AND PUSH2 0x115B JUMPI PUSH1 0x40 MLOAD PUSH32 0x8C379A000000000000000000000000000000000000000000000000000000000 DUP2 MSTORE PUSH1 0x4 ADD PUSH2 0x1152 SWAP1 PUSH2 0x19A7 JUMP JUMPDEST PUSH1 0x40 MLOAD DUP1 SWAP2 SUB SWAP1 REVERT JUMPDEST DUP2 PUSH1 0x20 ADD MLOAD PUSH1 0xD PUSH1 0x0 DUP6 PUSH20 0xFFFFFFFFFFFFFFFFFFFFFFFFFFFFFFFFFFFFFFFF AND PUSH20 0xFFFFFFFFFFFFFFFFFFFFFFFFFFFFFFFFFFFFFFFF AND DUP2 MSTORE PUSH1 0x20 ADD SWAP1 DUP2 MSTORE PUSH1 0x20 ADD PUSH1 0x0 KECCAK256 PUSH1 0x0 DUP5 PUSH1 0x0 ADD MLOAD DUP2 MSTORE PUSH1 0x20 ADD SWAP1 DUP2 MSTORE PUSH1 0x20 ADD PUSH1 0x0 KECCAK256 PUSH1 0x1 ADD PUSH1 0x0 PUSH2 0x100 EXP DUP2 SLOAD DUP2 PUSH1 0xFF MUL NOT AND SWAP1 DUP4 PUSH1 0x4 DUP2 GT ISZERO PUSH2 0x11D9 JUMPI PUSH2 0x11D8 PUSH2 0x1CD2 JUMP JUMPDEST JUMPDEST MUL OR SWAP1 SSTORE POP DUP2 PUSH1 0x40 ADD MLOAD PUSH1 0xD PUSH1 0x0 DUP6 PUSH20 0xFFFFFFFFFFFFFFFFFFFFFFFFFFFFFFFFFFFFFFFF AND PUSH20 0xFFFFFFFFFFFFFFFFFFFFFFFFFFFFFFFFFFFFFFFF AND DUP2 MSTORE PUSH1 0x20 ADD SWAP1 DUP2 MSTORE PUSH1 0x20 ADD PUSH1 0x0 KECCAK256 PUSH1 0x0 DUP5 PUSH1 0x0 ADD MLOAD DUP2 MSTORE PUSH1 0x20 ADD SWAP1 DUP2 MSTORE PUSH1 0x20 ADD PUSH1 0x0 KECCAK256 PUSH1 0x1 ADD PUSH1 0x1 PUSH2 0x100 EXP DUP2 SLOAD DUP2 PUSH20 0xFFFFFFFFFFFFFFFFFFFFFFFFFFFFFFFFFFFFFFFF MUL NOT AND SWAP1 DUP4 PUSH20 0xFFFFFFFFFFFFFFFFFFFFFFFFFFFFFFFFFFFFFFFF AND MUL OR SWAP1 SSTORE POP DUP2 PUSH1 0x60 ADD MLOAD PUSH1 0xD PUSH1 0x0 DUP6 PUSH20 0xFFFFFFFFFFFFFFFFFFFFFFFFFFFFFFFFFFFFFFFF AND PUSH20 0xFFFFFFFFFFFFFFFFFFFFFFFFFFFFFFFFFFFFFFFF AND DUP2 MSTORE PUSH1 0x20 ADD SWAP1 DUP2 MSTORE PUSH1 0x20 ADD PUSH1 0x0 KECCAK256 PUSH1 0x0 DUP5 PUSH1 0x0 ADD MLOAD DUP2 MSTORE PUSH1 0x20 ADD SWAP1 DUP2 MSTORE PUSH1 0x20 ADD PUSH1 0x0 KECCAK256 PUSH1 0x2 ADD DUP2 SWAP1 SSTORE POP DUP2 PUSH1 0x80 ADD MLOAD PUSH1 0xD PUSH1 0x0 DUP6 PUSH20 0xFFFFFFFFFFFFFFFFFFFFFFFFFFFFFFFFFFFFFFFF AND PUSH20 0xFFFFFFFFFFFFFFFFFFFFFFFFFFFFFFFFFFFFFFFF AND DUP2 MSTORE PUSH1 0x20 ADD SWAP1 DUP2 MSTORE PUSH1 0x20 ADD PUSH1 0x0 KECCAK256 PUSH1 0x0 DUP5 PUSH1 0x0 ADD MLOAD DUP2 MSTORE PUSH1 0x20 ADD SWAP1 DUP2 MSTORE PUSH1 0x20 ADD PUSH1 0x0 KECCAK256 PUSH1 0x3 ADD DUP2 SWAP1 SSTORE POP DUP2 PUSH1 0xA0 ADD MLOAD PUSH1 0xD PUSH1 0x0 DUP6 PUSH20 0xFFFFFFFFFFFFFFFFFFFFFFFFFFFFFFFFFFFFFFFF AND PUSH20 0xFFFFFFFFFFFFFFFFFFFFFFFFFFFFFFFFFFFFFFFF AND DUP2 MSTORE PUSH1 0x20 ADD SWAP1 DUP2 MSTORE PUSH1 0x20 ADD PUSH1 0x0 KECCAK256 PUSH1 0x0 DUP5 PUSH1 0x0 ADD MLOAD DUP2 MSTORE PUSH1 0x20 ADD SWAP1 DUP2 MSTORE PUSH1 0x20 ADD PUSH1 0x0 KECCAK256 PUSH1 0x4 ADD PUSH1 0x0 PUSH2 0x100 EXP DUP2 SLOAD DUP2 PUSH1 0xFF MUL NOT AND SWAP1 DUP4 PUSH1 0x3 DUP2 GT ISZERO PUSH2 0x13B6 JUMPI PUSH2 0x13B5 PUSH2 0x1CD2 JUMP JUMPDEST JUMPDEST MUL OR SWAP1 SSTORE POP DUP2 PUSH1 0xC0 ADD MLOAD PUSH1 0xD PUSH1 0x0 DUP6 PUSH20 0xFFFFFFFFFFFFFFFFFFFFFFFFFFFFFFFFFFFFFFFF AND PUSH20 0xFFFFFFFFFFFFFFFFFFFFFFFFFFFFFFFFFFFFFFFF AND DUP2 MSTORE PUSH1 0x20 ADD SWAP1 DUP2 MSTORE PUSH1 0x20 ADD PUSH1 0x0 KECCAK256 PUSH1 0x0 DUP5 PUSH1 0x0 ADD MLOAD DUP2 MSTORE PUSH1 0x20 ADD SWAP1 DUP2 MSTORE PUSH1 0x20 ADD PUSH1 0x0 KECCAK256 PUSH1 0x4 ADD PUSH1 0x1 PUSH2 0x100 EXP DUP2 SLOAD DUP2 PUSH4 0xFFFFFFFF MUL NOT AND SWAP1 DUP4 PUSH4 0xFFFFFFFF AND MUL OR SWAP1 SSTORE POP PUSH32 0xE0AF8937909276B9604018DFF5ED05FCE915311087FBE7EF361A586D7C2FACDA DUP3 PUSH1 0x20 ADD MLOAD DUP4 PUSH1 0x40 ADD MLOAD DUP5 PUSH1 0x60 ADD MLOAD DUP6 PUSH1 0x80 ADD MLOAD DUP7 PUSH1 0xA0 ADD MLOAD DUP8 PUSH1 0xC0 ADD MLOAD PUSH1 0x40 MLOAD PUSH2 0x1486 SWAP7 SWAP6 SWAP5 SWAP4 SWAP3 SWAP2 SWAP1 PUSH2 0x1946 JUMP JUMPDEST PUSH1 0x40 MLOAD DUP1 SWAP2 SUB SWAP1 LOG1 DUP2 PUSH1 0x0 ADD MLOAD SWAP1 POP SWAP3 SWAP2 POP POP JUMP JUMPDEST PUSH1 0xD PUSH1 0x20 MSTORE DUP2 PUSH1 0x0 MSTORE PUSH1 0x40 PUSH1 0x0 KECCAK256 PUSH1 0x20 MSTORE DUP1 PUSH1 0x0 MSTORE PUSH1 0x40 PUSH1 0x0 KECCAK256 PUSH1 0x0 SWAP2 POP SWAP2 POP POP DUP1 PUSH1 0x0 ADD SLOAD SWAP1 DUP1 PUSH1 0x1 ADD PUSH1 0x0 SWAP1 SLOAD SWAP1 PUSH2 0x100 EXP SWAP1 DIV PUSH1 0xFF AND SWAP1 DUP1 PUSH1 0x1 ADD PUSH1 0x1 SWAP1 SLOAD SWAP1 PUSH2 0x100 EXP SWAP1 DIV PUSH20 0xFFFFFFFFFFFFFFFFFFFFFFFFFFFFFFFFFFFFFFFF AND SWAP1 DUP1 PUSH1 0x2 ADD SLOAD SWAP1 DUP1 PUSH1 0x3 ADD SLOAD SWAP1 DUP1 PUSH1 0x4 ADD PUSH1 0x0 SWAP1 SLOAD SWAP1 PUSH2 0x100 EXP SWAP1 DIV PUSH1 0xFF AND SWAP1 DUP1 PUSH1 0x4 ADD PUSH1 0x1 SWAP1 SLOAD SWAP1 PUSH2 0x100 EXP SWAP1 DIV PUSH4 0xFFFFFFFF AND SWAP1 POP DUP8 JUMP JUMPDEST PUSH1 0x0 DUP2 CALLDATALOAD SWAP1 POP PUSH2 0x1543 DUP2 PUSH2 0x1E08 JUMP JUMPDEST SWAP3 SWAP2 POP POP JUMP JUMPDEST PUSH1 0x0 DUP2 CALLDATALOAD SWAP1 POP PUSH2 0x1558 DUP2 PUSH2 0x1E1F JUMP JUMPDEST SWAP3 SWAP2 POP POP JUMP JUMPDEST PUSH1 0x0 DUP2 CALLDATALOAD SWAP1 POP PUSH2 0x156D DUP2 PUSH2 0x1E2F JUMP JUMPDEST SWAP3 SWAP2 POP POP JUMP JUMPDEST PUSH1 0x0 PUSH1 0xE0 DUP3 DUP5 SUB SLT ISZERO PUSH2 0x1589 JUMPI PUSH2 0x1588 PUSH2 0x1D5F JUMP JUMPDEST JUMPDEST PUSH2 0x1593 PUSH1 0xE0 PUSH2 0x1AA1 JUMP JUMPDEST SWAP1 POP PUSH1 0x0 PUSH2 0x15A3 DUP5 DUP3 DUP6 ADD PUSH2 0x1627 JUMP JUMPDEST PUSH1 0x0 DUP4 ADD MSTORE POP PUSH1 0x20 PUSH2 0x15B7 DUP5 DUP3 DUP6 ADD PUSH2 0x155E JUMP JUMPDEST PUSH1 0x20 DUP4 ADD MSTORE POP PUSH1 0x40 PUSH2 0x15CB DUP5 DUP3 DUP6 ADD PUSH2 0x1534 JUMP JUMPDEST PUSH1 0x40 DUP4 ADD MSTORE POP PUSH1 0x60 PUSH2 0x15DF DUP5 DUP3 DUP6 ADD PUSH2 0x1627 JUMP JUMPDEST PUSH1 0x60 DUP4 ADD MSTORE POP PUSH1 0x80 PUSH2 0x15F3 DUP5 DUP3 DUP6 ADD PUSH2 0x1627 JUMP JUMPDEST PUSH1 0x80 DUP4 ADD MSTORE POP PUSH1 0xA0 PUSH2 0x1607 DUP5 DUP3 DUP6 ADD PUSH2 0x1549 JUMP JUMPDEST PUSH1 0xA0 DUP4 ADD MSTORE POP PUSH1 0xC0 PUSH2 0x161B DUP5 DUP3 DUP6 ADD PUSH2 0x163C JUMP JUMPDEST PUSH1 0xC0 DUP4 ADD MSTORE POP SWAP3 SWAP2 POP POP JUMP JUMPDEST PUSH1 0x0 DUP2 CALLDATALOAD SWAP1 POP PUSH2 0x1636 DUP2 PUSH2 0x1E3F JUMP JUMPDEST SWAP3 SWAP2 POP POP JUMP JUMPDEST PUSH1 0x0 DUP2 CALLDATALOAD SWAP1 POP PUSH2 0x164B DUP2 PUSH2 0x1E56 JUMP JUMPDEST SWAP3 SWAP2 POP POP JUMP JUMPDEST PUSH1 0x0 PUSH1 0x20 DUP3 DUP5 SUB SLT ISZERO PUSH2 0x1667 JUMPI PUSH2 0x1666 PUSH2 0x1D64 JUMP JUMPDEST JUMPDEST PUSH1 0x0 PUSH2 0x1675 DUP5 DUP3 DUP6 ADD PUSH2 0x1534 JUMP JUMPDEST SWAP2 POP POP SWAP3 SWAP2 POP POP JUMP JUMPDEST PUSH1 0x0 DUP1 PUSH2 0x100 DUP4 DUP6 SUB SLT ISZERO PUSH2 0x1696 JUMPI PUSH2 0x1695 PUSH2 0x1D64 JUMP JUMPDEST JUMPDEST PUSH1 0x0 PUSH2 0x16A4 DUP6 DUP3 DUP7 ADD PUSH2 0x1534 JUMP JUMPDEST SWAP3 POP POP PUSH1 0x20 PUSH2 0x16B5 DUP6 DUP3 DUP7 ADD PUSH2 0x1573 JUMP JUMPDEST SWAP2 POP POP SWAP3 POP SWAP3 SWAP1 POP JUMP JUMPDEST PUSH1 0x0 DUP1 PUSH1 0x40 DUP4 DUP6 SUB SLT ISZERO PUSH2 0x16D6 JUMPI PUSH2 0x16D5 PUSH2 0x1D64 JUMP JUMPDEST JUMPDEST PUSH1 0x0 PUSH2 0x16E4 DUP6 DUP3 DUP7 ADD PUSH2 0x1534 JUMP JUMPDEST SWAP3 POP POP PUSH1 0x20 PUSH2 0x16F5 DUP6 DUP3 DUP7 ADD PUSH2 0x1627 JUMP JUMPDEST SWAP2 POP POP SWAP3 POP SWAP3 SWAP1 POP JUMP JUMPDEST PUSH1 0x0 PUSH1 0x20 DUP3 DUP5 SUB SLT ISZERO PUSH2 0x1715 JUMPI PUSH2 0x1714 PUSH2 0x1D64 JUMP JUMPDEST JUMPDEST PUSH1 0x0 PUSH2 0x1723 DUP5 DUP3 DUP6 ADD PUSH2 0x163C JUMP JUMPDEST SWAP2 POP POP SWAP3 SWAP2 POP POP JUMP JUMPDEST PUSH2 0x1735 DUP2 PUSH2 0x1AE2 JUMP JUMPDEST DUP3 MSTORE POP POP JUMP JUMPDEST PUSH2 0x1744 DUP2 PUSH2 0x1AF4 JUMP JUMPDEST DUP3 MSTORE POP POP JUMP JUMPDEST PUSH2 0x1753 DUP2 PUSH2 0x1B8E JUMP JUMPDEST DUP3 MSTORE POP POP JUMP JUMPDEST PUSH2 0x1762 DUP2 PUSH2 0x1BA0 JUMP JUMPDEST DUP3 MSTORE POP POP JUMP JUMPDEST PUSH2 0x1771 DUP2 PUSH2 0x1BB2 JUMP JUMPDEST DUP3 MSTORE POP POP JUMP JUMPDEST PUSH1 0x0 PUSH2 0x1782 DUP3 PUSH2 0x1AC6 JUMP JUMPDEST PUSH2 0x178C DUP2 DUP6 PUSH2 0x1AD1 JUMP JUMPDEST SWAP4 POP PUSH2 0x179C DUP2 DUP6 PUSH1 0x20 DUP7 ADD PUSH2 0x1BC4 JUMP JUMPDEST PUSH2 0x17A5 DUP2 PUSH2 0x1D69 JUMP JUMPDEST DUP5 ADD SWAP2 POP POP SWAP3 SWAP2 POP POP JUMP JUMPDEST PUSH1 0x0 PUSH2 0x17BD PUSH1 0x11 DUP4 PUSH2 0x1AD1 JUMP JUMPDEST SWAP2 POP PUSH2 0x17C8 DUP3 PUSH2 0x1D7A JUMP JUMPDEST PUSH1 0x20 DUP3 ADD SWAP1 POP SWAP2 SWAP1 POP JUMP JUMPDEST PUSH1 0x0 PUSH2 0x17E0 PUSH1 0x20 DUP4 PUSH2 0x1AD1 JUMP JUMPDEST SWAP2 POP PUSH2 0x17EB DUP3 PUSH2 0x1DA3 JUMP JUMPDEST PUSH1 0x20 DUP3 ADD SWAP1 POP SWAP2 SWAP1 POP JUMP JUMPDEST PUSH2 0x17FF DUP2 PUSH2 0x1B39 JUMP JUMPDEST DUP3 MSTORE POP POP JUMP JUMPDEST PUSH2 0x180E DUP2 PUSH2 0x1B67 JUMP JUMPDEST DUP3 MSTORE POP POP JUMP JUMPDEST PUSH2 0x181D DUP2 PUSH2 0x1B71 JUMP JUMPDEST DUP3 MSTORE POP POP JUMP JUMPDEST PUSH2 0x182C DUP2 PUSH2 0x1B81 JUMP JUMPDEST DUP3 MSTORE POP POP JUMP JUMPDEST PUSH1 0x0 PUSH1 0x20 DUP3 ADD SWAP1 POP PUSH2 0x1847 PUSH1 0x0 DUP4 ADD DUP5 PUSH2 0x173B JUMP JUMPDEST SWAP3 SWAP2 POP POP JUMP JUMPDEST PUSH1 0x0 PUSH1 0xC0 DUP3 ADD SWAP1 POP PUSH2 0x1862 PUSH1 0x0 DUP4 ADD DUP10 PUSH2 0x173B JUMP JUMPDEST PUSH2 0x186F PUSH1 0x20 DUP4 ADD DUP9 PUSH2 0x172C JUMP JUMPDEST PUSH2 0x187C PUSH1 0x40 DUP4 ADD DUP8 PUSH2 0x17F6 JUMP JUMPDEST PUSH2 0x1889 PUSH1 0x60 DUP4 ADD DUP7 PUSH2 0x1768 JUMP JUMPDEST DUP2 DUP2 SUB PUSH1 0x80 DUP4 ADD MSTORE PUSH2 0x189B DUP2 DUP6 PUSH2 0x1777 JUMP JUMPDEST SWAP1 POP DUP2 DUP2 SUB PUSH1 0xA0 DUP4 ADD MSTORE PUSH2 0x18AF DUP2 DUP5 PUSH2 0x1777 JUMP JUMPDEST SWAP1 POP SWAP8 SWAP7 POP POP POP POP POP POP POP JUMP JUMPDEST PUSH1 0x0 PUSH1 0x60 DUP3 ADD SWAP1 POP PUSH2 0x18D1 PUSH1 0x0 DUP4 ADD DUP7 PUSH2 0x173B JUMP JUMPDEST DUP2 DUP2 SUB PUSH1 0x20 DUP4 ADD MSTORE PUSH2 0x18E3 DUP2 DUP6 PUSH2 0x1777 JUMP JUMPDEST SWAP1 POP PUSH2 0x18F2 PUSH1 0x40 DUP4 ADD DUP5 PUSH2 0x1823 JUMP JUMPDEST SWAP5 SWAP4 POP POP POP POP JUMP JUMPDEST PUSH1 0x0 PUSH1 0x80 DUP3 ADD SWAP1 POP PUSH2 0x190F PUSH1 0x0 DUP4 ADD DUP8 PUSH2 0x173B JUMP JUMPDEST PUSH2 0x191C PUSH1 0x20 DUP4 ADD DUP7 PUSH2 0x1823 JUMP JUMPDEST PUSH2 0x1929 PUSH1 0x40 DUP4 ADD DUP6 PUSH2 0x1805 JUMP JUMPDEST DUP2 DUP2 SUB PUSH1 0x60 DUP4 ADD MSTORE PUSH2 0x193B DUP2 DUP5 PUSH2 0x1777 JUMP JUMPDEST SWAP1 POP SWAP6 SWAP5 POP POP POP POP POP JUMP JUMPDEST PUSH1 0x0 PUSH1 0xC0 DUP3 ADD SWAP1 POP PUSH2 0x195B PUSH1 0x0 DUP4 ADD DUP10 PUSH2 0x1759 JUMP JUMPDEST PUSH2 0x1968 PUSH1 0x20 DUP4 ADD DUP9 PUSH2 0x172C JUMP JUMPDEST PUSH2 0x1975 PUSH1 0x40 DUP4 ADD DUP8 PUSH2 0x1805 JUMP JUMPDEST PUSH2 0x1982 PUSH1 0x60 DUP4 ADD DUP7 PUSH2 0x1805 JUMP JUMPDEST PUSH2 0x198F PUSH1 0x80 DUP4 ADD DUP6 PUSH2 0x174A JUMP JUMPDEST PUSH2 0x199C PUSH1 0xA0 DUP4 ADD DUP5 PUSH2 0x1814 JUMP JUMPDEST SWAP8 SWAP7 POP POP POP POP POP POP POP JUMP JUMPDEST PUSH1 0x0 PUSH1 0x20 DUP3 ADD SWAP1 POP DUP2 DUP2 SUB PUSH1 0x0 DUP4 ADD MSTORE PUSH2 0x19C0 DUP2 PUSH2 0x17B0 JUMP JUMPDEST SWAP1 POP SWAP2 SWAP1 POP JUMP JUMPDEST PUSH1 0x0 PUSH1 0x20 DUP3 ADD SWAP1 POP DUP2 DUP2 SUB PUSH1 0x0 DUP4 ADD MSTORE PUSH2 0x19E0 DUP2 PUSH2 0x17D3 JUMP JUMPDEST SWAP1 POP SWAP2 SWAP1 POP JUMP JUMPDEST PUSH1 0x0 PUSH1 0x20 DUP3 ADD SWAP1 POP PUSH2 0x19FC PUSH1 0x0 DUP4 ADD DUP5 PUSH2 0x1805 JUMP JUMPDEST SWAP3 SWAP2 POP POP JUMP JUMPDEST PUSH1 0x0 PUSH1 0xE0 DUP3 ADD SWAP1 POP PUSH2 0x1A17 PUSH1 0x0 DUP4 ADD DUP11 PUSH2 0x1805 JUMP JUMPDEST PUSH2 0x1A24 PUSH1 0x20 DUP4 ADD DUP10 PUSH2 0x1759 JUMP JUMPDEST PUSH2 0x1A31 PUSH1 0x40 DUP4 ADD DUP9 PUSH2 0x172C JUMP JUMPDEST PUSH2 0x1A3E PUSH1 0x60 DUP4 ADD DUP8 PUSH2 0x1805 JUMP JUMPDEST PUSH2 0x1A4B PUSH1 0x80 DUP4 ADD DUP7 PUSH2 0x1805 JUMP JUMPDEST PUSH2 0x1A58 PUSH1 0xA0 DUP4 ADD DUP6 PUSH2 0x174A JUMP JUMPDEST PUSH2 0x1A65 PUSH1 0xC0 DUP4 ADD DUP5 PUSH2 0x1814 JUMP JUMPDEST SWAP9 SWAP8 POP POP POP POP POP POP POP POP JUMP JUMPDEST PUSH1 0x0 PUSH1 0x40 DUP3 ADD SWAP1 POP PUSH2 0x1A86 PUSH1 0x0 DUP4 ADD DUP6 PUSH2 0x1814 JUMP JUMPDEST DUP2 DUP2 SUB PUSH1 0x20 DUP4 ADD MSTORE PUSH2 0x1A98 DUP2 DUP5 PUSH2 0x1777 JUMP JUMPDEST SWAP1 POP SWAP4 SWAP3 POP POP POP JUMP JUMPDEST PUSH1 0x0 PUSH2 0x1AAB PUSH2 0x1ABC JUMP JUMPDEST SWAP1 POP PUSH2 0x1AB7 DUP3 DUP3 PUSH2 0x1C29 JUMP JUMPDEST SWAP2 SWAP1 POP JUMP JUMPDEST PUSH1 0x0 PUSH1 0x40 MLOAD SWAP1 POP SWAP1 JUMP JUMPDEST PUSH1 0x0 DUP2 MLOAD SWAP1 POP SWAP2 SWAP1 POP JUMP JUMPDEST PUSH1 0x0 DUP3 DUP3 MSTORE PUSH1 0x20 DUP3 ADD SWAP1 POP SWAP3 SWAP2 POP POP JUMP JUMPDEST PUSH1 0x0 PUSH2 0x1AED DUP3 PUSH2 0x1B47 JUMP JUMPDEST SWAP1 POP SWAP2 SWAP1 POP JUMP JUMPDEST PUSH1 0x0 DUP2 ISZERO ISZERO SWAP1 POP SWAP2 SWAP1 POP JUMP JUMPDEST PUSH1 0x0 DUP2 SWAP1 POP PUSH2 0x1B0E DUP3 PUSH2 0x1DCC JUMP JUMPDEST SWAP2 SWAP1 POP JUMP JUMPDEST PUSH1 0x0 DUP2 SWAP1 POP PUSH2 0x1B21 DUP3 PUSH2 0x1DE0 JUMP JUMPDEST SWAP2 SWAP1 POP JUMP JUMPDEST PUSH1 0x0 DUP2 SWAP1 POP PUSH2 0x1B34 DUP3 PUSH2 0x1DF4 JUMP JUMPDEST SWAP2 SWAP1 POP JUMP JUMPDEST PUSH1 0x0 PUSH2 0xFFFF DUP3 AND SWAP1 POP SWAP2 SWAP1 POP JUMP JUMPDEST PUSH1 0x0 PUSH20 0xFFFFFFFFFFFFFFFFFFFFFFFFFFFFFFFFFFFFFFFF DUP3 AND SWAP1 POP SWAP2 SWAP1 POP JUMP JUMPDEST PUSH1 0x0 DUP2 SWAP1 POP SWAP2 SWAP1 POP JUMP JUMPDEST PUSH1 0x0 PUSH4 0xFFFFFFFF DUP3 AND SWAP1 POP SWAP2 SWAP1 POP JUMP JUMPDEST PUSH1 0x0 PUSH1 0xFF DUP3 AND SWAP1 POP SWAP2 SWAP1 POP JUMP JUMPDEST PUSH1 0x0 PUSH2 0x1B99 DUP3 PUSH2 0x1B00 JUMP JUMPDEST SWAP1 POP SWAP2 SWAP1 POP JUMP JUMPDEST PUSH1 0x0 PUSH2 0x1BAB DUP3 PUSH2 0x1B13 JUMP JUMPDEST SWAP1 POP SWAP2 SWAP1 POP JUMP JUMPDEST PUSH1 0x0 PUSH2 0x1BBD DUP3 PUSH2 0x1B26 JUMP JUMPDEST SWAP1 POP SWAP2 SWAP1 POP JUMP JUMPDEST PUSH1 0x0 JUMPDEST DUP4 DUP2 LT ISZERO PUSH2 0x1BE2 JUMPI DUP1 DUP3 ADD MLOAD DUP2 DUP5 ADD MSTORE PUSH1 0x20 DUP2 ADD SWAP1 POP PUSH2 0x1BC7 JUMP JUMPDEST DUP4 DUP2 GT ISZERO PUSH2 0x1BF1 JUMPI PUSH1 0x0 DUP5 DUP5 ADD MSTORE JUMPDEST POP POP POP POP JUMP JUMPDEST PUSH1 0x0 PUSH1 0x2 DUP3 DIV SWAP1 POP PUSH1 0x1 DUP3 AND DUP1 PUSH2 0x1C0F JUMPI PUSH1 0x7F DUP3 AND SWAP2 POP JUMPDEST PUSH1 0x20 DUP3 LT DUP2 EQ ISZERO PUSH2 0x1C23 JUMPI PUSH2 0x1C22 PUSH2 0x1D01 JUMP JUMPDEST JUMPDEST POP SWAP2 SWAP1 POP JUMP JUMPDEST PUSH2 0x1C32 DUP3 PUSH2 0x1D69 JUMP JUMPDEST DUP2 ADD DUP2 DUP2 LT PUSH8 0xFFFFFFFFFFFFFFFF DUP3 GT OR ISZERO PUSH2 0x1C51 JUMPI PUSH2 0x1C50 PUSH2 0x1D30 JUMP JUMPDEST JUMPDEST DUP1 PUSH1 0x40 MSTORE POP POP POP JUMP JUMPDEST PUSH1 0x0 PUSH2 0x1C65 DUP3 PUSH2 0x1B67 JUMP JUMPDEST SWAP2 POP PUSH32 0xFFFFFFFFFFFFFFFFFFFFFFFFFFFFFFFFFFFFFFFFFFFFFFFFFFFFFFFFFFFFFFFF DUP3 EQ ISZERO PUSH2 0x1C98 JUMPI PUSH2 0x1C97 PUSH2 0x1CA3 JUMP JUMPDEST JUMPDEST PUSH1 0x1 DUP3 ADD SWAP1 POP SWAP2 SWAP1 POP JUMP JUMPDEST PUSH32 0x4E487B7100000000000000000000000000000000000000000000000000000000 PUSH1 0x0 MSTORE PUSH1 0x11 PUSH1 0x4 MSTORE PUSH1 0x24 PUSH1 0x0 REVERT JUMPDEST PUSH32 0x4E487B7100000000000000000000000000000000000000000000000000000000 PUSH1 0x0 MSTORE PUSH1 0x21 PUSH1 0x4 MSTORE PUSH1 0x24 PUSH1 0x0 REVERT JUMPDEST PUSH32 0x4E487B7100000000000000000000000000000000000000000000000000000000 PUSH1 0x0 MSTORE PUSH1 0x22 PUSH1 0x4 MSTORE PUSH1 0x24 PUSH1 0x0 REVERT JUMPDEST PUSH32 0x4E487B7100000000000000000000000000000000000000000000000000000000 PUSH1 0x0 MSTORE PUSH1 0x41 PUSH1 0x4 MSTORE PUSH1 0x24 PUSH1 0x0 REVERT JUMPDEST PUSH1 0x0 DUP1 REVERT JUMPDEST PUSH1 0x0 DUP1 REVERT JUMPDEST PUSH1 0x0 PUSH1 0x1F NOT PUSH1 0x1F DUP4 ADD AND SWAP1 POP SWAP2 SWAP1 POP JUMP JUMPDEST PUSH32 0x4B697369206D657663757420646567696C000000000000000000000000000000 PUSH1 0x0 DUP3 ADD MSTORE POP JUMP JUMPDEST PUSH32 0x42752069736C656D6920736164656365204B757273207961706162696C69722E PUSH1 0x0 DUP3 ADD MSTORE POP JUMP JUMPDEST PUSH1 0x4 DUP2 LT PUSH2 0x1DDD JUMPI PUSH2 0x1DDC PUSH2 0x1CD2 JUMP JUMPDEST JUMPDEST POP JUMP JUMPDEST PUSH1 0x5 DUP2 LT PUSH2 0x1DF1 JUMPI PUSH2 0x1DF0 PUSH2 0x1CD2 JUMP JUMPDEST JUMPDEST POP JUMP JUMPDEST PUSH1 0x4 DUP2 LT PUSH2 0x1E05 JUMPI PUSH2 0x1E04 PUSH2 0x1CD2 JUMP JUMPDEST JUMPDEST POP JUMP JUMPDEST PUSH2 0x1E11 DUP2 PUSH2 0x1AE2 JUMP JUMPDEST DUP2 EQ PUSH2 0x1E1C JUMPI PUSH1 0x0 DUP1 REVERT JUMPDEST POP JUMP JUMPDEST PUSH1 0x4 DUP2 LT PUSH2 0x1E2C JUMPI PUSH1 0x0 DUP1 REVERT JUMPDEST POP JUMP JUMPDEST PUSH1 0x5 DUP2 LT PUSH2 0x1E3C JUMPI PUSH1 0x0 DUP1 REVERT JUMPDEST POP JUMP JUMPDEST PUSH2 0x1E48 DUP2 PUSH2 0x1B67 JUMP JUMPDEST DUP2 EQ PUSH2 0x1E53 JUMPI PUSH1 0x0 DUP1 REVERT JUMPDEST POP JUMP JUMPDEST PUSH2 0x1E5F DUP2 PUSH2 0x1B71 JUMP JUMPDEST DUP2 EQ PUSH2 0x1E6A JUMPI PUSH1 0x0 DUP1 REVERT JUMPDEST POP JUMP INVALID LOG2 PUSH5 0x6970667358 0x22 SLT KECCAK256 PUSH18 0xC7B2C4DC7FDDD8EEE2BED3AD998744DB7315 0x28 ADD SELFDESTRUCT SWAP5 REVERT 0xB4 0xBD CHAINID PUSH26 0xAFD1ADE164736F6C634300080700330000000000000000000000 "
				},
				"gasEstimates": {
					"creation": {
						"codeDepositCost": "1568600",
						"executionCost": "1645",
						"totalCost": "1570245"
					},
					"external": {
						"akademisyenler(address)": "infinite",
						"diller(uint32)": "infinite",
						"ekleYabanciDilBilgi(address,(uint256,uint8,address,uint256,uint256,uint8,uint32))": "infinite",
						"firmalar(address)": "infinite",
						"guncelleYabanciDilBilgi(address,(uint256,uint8,address,uint256,uint256,uint8,uint32))": "infinite",
						"id()": "2496",
						"kamuKurumlari(address)": "infinite",
						"kisiler(address)": "2914",
						"kurslar(address)": "infinite",
						"sertifikaMerkezleri(address)": "infinite",
						"stklar(address)": "infinite",
						"universiteler(address)": "infinite",
						"yabanciDiller(address,uint256)": "infinite"
					}
				},
				"methodIdentifiers": {
					"akademisyenler(address)": "ba479b7e",
					"diller(uint32)": "a4e7ae05",
					"ekleYabanciDilBilgi(address,(uint256,uint8,address,uint256,uint256,uint8,uint32))": "70223e73",
					"firmalar(address)": "39987f94",
					"guncelleYabanciDilBilgi(address,(uint256,uint8,address,uint256,uint256,uint8,uint32))": "cc9d368a",
					"id()": "af640d0f",
					"kamuKurumlari(address)": "7d0fa287",
					"kisiler(address)": "cbc92809",
					"kurslar(address)": "1916e139",
					"sertifikaMerkezleri(address)": "356b1f1e",
					"stklar(address)": "9a8c9119",
					"universiteler(address)": "28266697",
					"yabanciDiller(address,uint256)": "ee69e1af"
				}
			},
			"storageLayout": {
				"storage": [
					{
						"astId": 3,
						"contract": "contracts/YabanciDilBilgileri.sol:YabanciDilBilgileri",
						"label": "YOK",
						"offset": 0,
						"slot": "0",
						"type": "t_address"
					},
					{
						"astId": 5,
						"contract": "contracts/YabanciDilBilgileri.sol:YabanciDilBilgileri",
						"label": "TOBB",
						"offset": 0,
						"slot": "1",
						"type": "t_address"
					},
					{
						"astId": 7,
						"contract": "contracts/YabanciDilBilgileri.sol:YabanciDilBilgileri",
						"label": "CB",
						"offset": 0,
						"slot": "2",
						"type": "t_address"
					},
					{
						"astId": 204,
						"contract": "contracts/YabanciDilBilgileri.sol:YabanciDilBilgileri",
						"label": "kisiler",
						"offset": 0,
						"slot": "3",
						"type": "t_mapping(t_address,t_struct(Kisi)10_storage)"
					},
					{
						"astId": 209,
						"contract": "contracts/YabanciDilBilgileri.sol:YabanciDilBilgileri",
						"label": "universiteler",
						"offset": 0,
						"slot": "4",
						"type": "t_mapping(t_address,t_struct(Universite)17_storage)"
					},
					{
						"astId": 214,
						"contract": "contracts/YabanciDilBilgileri.sol:YabanciDilBilgileri",
						"label": "akademisyenler",
						"offset": 0,
						"slot": "5",
						"type": "t_mapping(t_address,t_struct(Akademisyen)31_storage)"
					},
					{
						"astId": 219,
						"contract": "contracts/YabanciDilBilgileri.sol:YabanciDilBilgileri",
						"label": "firmalar",
						"offset": 0,
						"slot": "6",
						"type": "t_mapping(t_address,t_struct(Firma)51_storage)"
					},
					{
						"astId": 224,
						"contract": "contracts/YabanciDilBilgileri.sol:YabanciDilBilgileri",
						"label": "kurslar",
						"offset": 0,
						"slot": "7",
						"type": "t_mapping(t_address,t_struct(Kurs)79_storage)"
					},
					{
						"astId": 229,
						"contract": "contracts/YabanciDilBilgileri.sol:YabanciDilBilgileri",
						"label": "kamuKurumlari",
						"offset": 0,
						"slot": "8",
						"type": "t_mapping(t_address,t_struct(KamuKurumu)58_storage)"
					},
					{
						"astId": 234,
						"contract": "contracts/YabanciDilBilgileri.sol:YabanciDilBilgileri",
						"label": "stklar",
						"offset": 0,
						"slot": "9",
						"type": "t_mapping(t_address,t_struct(STK)65_storage)"
					},
					{
						"astId": 239,
						"contract": "contracts/YabanciDilBilgileri.sol:YabanciDilBilgileri",
						"label": "sertifikaMerkezleri",
						"offset": 0,
						"slot": "10",
						"type": "t_mapping(t_address,t_struct(SertifikaMerkezi)72_storage)"
					},
					{
						"astId": 244,
						"contract": "contracts/YabanciDilBilgileri.sol:YabanciDilBilgileri",
						"label": "diller",
						"offset": 0,
						"slot": "11",
						"type": "t_mapping(t_uint32,t_struct(Dil)84_storage)"
					},
					{
						"astId": 625,
						"contract": "contracts/YabanciDilBilgileri.sol:YabanciDilBilgileri",
						"label": "id",
						"offset": 0,
						"slot": "12",
						"type": "t_uint256"
					},
					{
						"astId": 649,
						"contract": "contracts/YabanciDilBilgileri.sol:YabanciDilBilgileri",
						"label": "yabanciDiller",
						"offset": 0,
						"slot": "13",
						"type": "t_mapping(t_address,t_mapping(t_uint256,t_struct(YabanciDil)642_storage))"
					}
				],
				"types": {
					"t_address": {
						"encoding": "inplace",
						"label": "address",
						"numberOfBytes": "20"
					},
					"t_bool": {
						"encoding": "inplace",
						"label": "bool",
						"numberOfBytes": "1"
					},
					"t_enum(OgretimTipi)289": {
						"encoding": "inplace",
						"label": "enum EgitimBilgileri.OgretimTipi",
						"numberOfBytes": "1"
					},
					"t_enum(OnaylayanKurum)42": {
						"encoding": "inplace",
						"label": "enum BaseContract.OnaylayanKurum",
						"numberOfBytes": "1"
					},
					"t_enum(Unvan)36": {
						"encoding": "inplace",
						"label": "enum BaseContract.Unvan",
						"numberOfBytes": "1"
					},
					"t_mapping(t_address,t_mapping(t_uint256,t_struct(YabanciDil)642_storage))": {
						"encoding": "mapping",
						"key": "t_address",
						"label": "mapping(address => mapping(uint256 => struct YabanciDilBilgileri.YabanciDil))",
						"numberOfBytes": "32",
						"value": "t_mapping(t_uint256,t_struct(YabanciDil)642_storage)"
					},
					"t_mapping(t_address,t_struct(Akademisyen)31_storage)": {
						"encoding": "mapping",
						"key": "t_address",
						"label": "mapping(address => struct BaseContract.Akademisyen)",
						"numberOfBytes": "32",
						"value": "t_struct(Akademisyen)31_storage"
					},
					"t_mapping(t_address,t_struct(Firma)51_storage)": {
						"encoding": "mapping",
						"key": "t_address",
						"label": "mapping(address => struct BaseContract.Firma)",
						"numberOfBytes": "32",
						"value": "t_struct(Firma)51_storage"
					},
					"t_mapping(t_address,t_struct(KamuKurumu)58_storage)": {
						"encoding": "mapping",
						"key": "t_address",
						"label": "mapping(address => struct BaseContract.KamuKurumu)",
						"numberOfBytes": "32",
						"value": "t_struct(KamuKurumu)58_storage"
					},
					"t_mapping(t_address,t_struct(Kisi)10_storage)": {
						"encoding": "mapping",
						"key": "t_address",
						"label": "mapping(address => struct BaseContract.Kisi)",
						"numberOfBytes": "32",
						"value": "t_struct(Kisi)10_storage"
					},
					"t_mapping(t_address,t_struct(Kurs)79_storage)": {
						"encoding": "mapping",
						"key": "t_address",
						"label": "mapping(address => struct BaseContract.Kurs)",
						"numberOfBytes": "32",
						"value": "t_struct(Kurs)79_storage"
					},
					"t_mapping(t_address,t_struct(STK)65_storage)": {
						"encoding": "mapping",
						"key": "t_address",
						"label": "mapping(address => struct BaseContract.STK)",
						"numberOfBytes": "32",
						"value": "t_struct(STK)65_storage"
					},
					"t_mapping(t_address,t_struct(SertifikaMerkezi)72_storage)": {
						"encoding": "mapping",
						"key": "t_address",
						"label": "mapping(address => struct BaseContract.SertifikaMerkezi)",
						"numberOfBytes": "32",
						"value": "t_struct(SertifikaMerkezi)72_storage"
					},
					"t_mapping(t_address,t_struct(Universite)17_storage)": {
						"encoding": "mapping",
						"key": "t_address",
						"label": "mapping(address => struct BaseContract.Universite)",
						"numberOfBytes": "32",
						"value": "t_struct(Universite)17_storage"
					},
					"t_mapping(t_uint256,t_struct(YabanciDil)642_storage)": {
						"encoding": "mapping",
						"key": "t_uint256",
						"label": "mapping(uint256 => struct YabanciDilBilgileri.YabanciDil)",
						"numberOfBytes": "32",
						"value": "t_struct(YabanciDil)642_storage"
					},
					"t_mapping(t_uint32,t_struct(Dil)84_storage)": {
						"encoding": "mapping",
						"key": "t_uint32",
						"label": "mapping(uint32 => struct BaseContract.Dil)",
						"numberOfBytes": "32",
						"value": "t_struct(Dil)84_storage"
					},
					"t_string_storage": {
						"encoding": "bytes",
						"label": "string",
						"numberOfBytes": "32"
					},
					"t_struct(Akademisyen)31_storage": {
						"encoding": "inplace",
						"label": "struct BaseContract.Akademisyen",
						"members": [
							{
								"astId": 19,
								"contract": "contracts/YabanciDilBilgileri.sol:YabanciDilBilgileri",
								"label": "durum",
								"offset": 0,
								"slot": "0",
								"type": "t_bool"
							},
							{
								"astId": 21,
								"contract": "contracts/YabanciDilBilgileri.sol:YabanciDilBilgileri",
								"label": "universite",
								"offset": 1,
								"slot": "0",
								"type": "t_address"
							},
							{
								"astId": 23,
								"contract": "contracts/YabanciDilBilgileri.sol:YabanciDilBilgileri",
								"label": "bolum",
								"offset": 21,
								"slot": "0",
								"type": "t_uint16"
							},
							{
								"astId": 26,
								"contract": "contracts/YabanciDilBilgileri.sol:YabanciDilBilgileri",
								"label": "unvan",
								"offset": 23,
								"slot": "0",
								"type": "t_enum(Unvan)36"
							},
							{
								"astId": 28,
								"contract": "contracts/YabanciDilBilgileri.sol:YabanciDilBilgileri",
								"label": "ad",
								"offset": 0,
								"slot": "1",
								"type": "t_string_storage"
							},
							{
								"astId": 30,
								"contract": "contracts/YabanciDilBilgileri.sol:YabanciDilBilgileri",
								"label": "soyad",
								"offset": 0,
								"slot": "2",
								"type": "t_string_storage"
							}
						],
						"numberOfBytes": "96"
					},
					"t_struct(Dil)84_storage": {
						"encoding": "inplace",
						"label": "struct BaseContract.Dil",
						"members": [
							{
								"astId": 81,
								"contract": "contracts/YabanciDilBilgileri.sol:YabanciDilBilgileri",
								"label": "id",
								"offset": 0,
								"slot": "0",
								"type": "t_uint32"
							},
							{
								"astId": 83,
								"contract": "contracts/YabanciDilBilgileri.sol:YabanciDilBilgileri",
								"label": "isim",
								"offset": 0,
								"slot": "1",
								"type": "t_string_storage"
							}
						],
						"numberOfBytes": "64"
					},
					"t_struct(Firma)51_storage": {
						"encoding": "inplace",
						"label": "struct BaseContract.Firma",
						"members": [
							{
								"astId": 44,
								"contract": "contracts/YabanciDilBilgileri.sol:YabanciDilBilgileri",
								"label": "durum",
								"offset": 0,
								"slot": "0",
								"type": "t_bool"
							},
							{
								"astId": 46,
								"contract": "contracts/YabanciDilBilgileri.sol:YabanciDilBilgileri",
								"label": "ulke",
								"offset": 1,
								"slot": "0",
								"type": "t_uint8"
							},
							{
								"astId": 48,
								"contract": "contracts/YabanciDilBilgileri.sol:YabanciDilBilgileri",
								"label": "vergiNo",
								"offset": 0,
								"slot": "1",
								"type": "t_uint256"
							},
							{
								"astId": 50,
								"contract": "contracts/YabanciDilBilgileri.sol:YabanciDilBilgileri",
								"label": "isim",
								"offset": 0,
								"slot": "2",
								"type": "t_string_storage"
							}
						],
						"numberOfBytes": "96"
					},
					"t_struct(KamuKurumu)58_storage": {
						"encoding": "inplace",
						"label": "struct BaseContract.KamuKurumu",
						"members": [
							{
								"astId": 53,
								"contract": "contracts/YabanciDilBilgileri.sol:YabanciDilBilgileri",
								"label": "durum",
								"offset": 0,
								"slot": "0",
								"type": "t_bool"
							},
							{
								"astId": 55,
								"contract": "contracts/YabanciDilBilgileri.sol:YabanciDilBilgileri",
								"label": "isim",
								"offset": 0,
								"slot": "1",
								"type": "t_string_storage"
							},
							{
								"astId": 57,
								"contract": "contracts/YabanciDilBilgileri.sol:YabanciDilBilgileri",
								"label": "ulke",
								"offset": 0,
								"slot": "2",
								"type": "t_uint8"
							}
						],
						"numberOfBytes": "96"
					},
					"t_struct(Kisi)10_storage": {
						"encoding": "inplace",
						"label": "struct BaseContract.Kisi",
						"members": [
							{
								"astId": 9,
								"contract": "contracts/YabanciDilBilgileri.sol:YabanciDilBilgileri",
								"label": "durum",
								"offset": 0,
								"slot": "0",
								"type": "t_bool"
							}
						],
						"numberOfBytes": "32"
					},
					"t_struct(Kurs)79_storage": {
						"encoding": "inplace",
						"label": "struct BaseContract.Kurs",
						"members": [
							{
								"astId": 74,
								"contract": "contracts/YabanciDilBilgileri.sol:YabanciDilBilgileri",
								"label": "durum",
								"offset": 0,
								"slot": "0",
								"type": "t_bool"
							},
							{
								"astId": 76,
								"contract": "contracts/YabanciDilBilgileri.sol:YabanciDilBilgileri",
								"label": "isim",
								"offset": 0,
								"slot": "1",
								"type": "t_string_storage"
							},
							{
								"astId": 78,
								"contract": "contracts/YabanciDilBilgileri.sol:YabanciDilBilgileri",
								"label": "ulke",
								"offset": 0,
								"slot": "2",
								"type": "t_uint8"
							}
						],
						"numberOfBytes": "96"
					},
					"t_struct(STK)65_storage": {
						"encoding": "inplace",
						"label": "struct BaseContract.STK",
						"members": [
							{
								"astId": 60,
								"contract": "contracts/YabanciDilBilgileri.sol:YabanciDilBilgileri",
								"label": "durum",
								"offset": 0,
								"slot": "0",
								"type": "t_bool"
							},
							{
								"astId": 62,
								"contract": "contracts/YabanciDilBilgileri.sol:YabanciDilBilgileri",
								"label": "isim",
								"offset": 0,
								"slot": "1",
								"type": "t_string_storage"
							},
							{
								"astId": 64,
								"contract": "contracts/YabanciDilBilgileri.sol:YabanciDilBilgileri",
								"label": "ulke",
								"offset": 0,
								"slot": "2",
								"type": "t_uint8"
							}
						],
						"numberOfBytes": "96"
					},
					"t_struct(SertifikaMerkezi)72_storage": {
						"encoding": "inplace",
						"label": "struct BaseContract.SertifikaMerkezi",
						"members": [
							{
								"astId": 67,
								"contract": "contracts/YabanciDilBilgileri.sol:YabanciDilBilgileri",
								"label": "durum",
								"offset": 0,
								"slot": "0",
								"type": "t_bool"
							},
							{
								"astId": 69,
								"contract": "contracts/YabanciDilBilgileri.sol:YabanciDilBilgileri",
								"label": "isim",
								"offset": 0,
								"slot": "1",
								"type": "t_string_storage"
							},
							{
								"astId": 71,
								"contract": "contracts/YabanciDilBilgileri.sol:YabanciDilBilgileri",
								"label": "ulke",
								"offset": 0,
								"slot": "2",
								"type": "t_uint8"
							}
						],
						"numberOfBytes": "96"
					},
					"t_struct(Universite)17_storage": {
						"encoding": "inplace",
						"label": "struct BaseContract.Universite",
						"members": [
							{
								"astId": 12,
								"contract": "contracts/YabanciDilBilgileri.sol:YabanciDilBilgileri",
								"label": "durum",
								"offset": 0,
								"slot": "0",
								"type": "t_bool"
							},
							{
								"astId": 14,
								"contract": "contracts/YabanciDilBilgileri.sol:YabanciDilBilgileri",
								"label": "isim",
								"offset": 0,
								"slot": "1",
								"type": "t_string_storage"
							},
							{
								"astId": 16,
								"contract": "contracts/YabanciDilBilgileri.sol:YabanciDilBilgileri",
								"label": "ulke",
								"offset": 0,
								"slot": "2",
								"type": "t_uint8"
							}
						],
						"numberOfBytes": "96"
					},
					"t_struct(YabanciDil)642_storage": {
						"encoding": "inplace",
						"label": "struct YabanciDilBilgileri.YabanciDil",
						"members": [
							{
								"astId": 627,
								"contract": "contracts/YabanciDilBilgileri.sol:YabanciDilBilgileri",
								"label": "id",
								"offset": 0,
								"slot": "0",
								"type": "t_uint256"
							},
							{
								"astId": 630,
								"contract": "contracts/YabanciDilBilgileri.sol:YabanciDilBilgileri",
								"label": "onayKurumTipi",
								"offset": 0,
								"slot": "1",
								"type": "t_enum(OnaylayanKurum)42"
							},
							{
								"astId": 632,
								"contract": "contracts/YabanciDilBilgileri.sol:YabanciDilBilgileri",
								"label": "onayKurum",
								"offset": 1,
								"slot": "1",
								"type": "t_address"
							},
							{
								"astId": 634,
								"contract": "contracts/YabanciDilBilgileri.sol:YabanciDilBilgileri",
								"label": "basTarih",
								"offset": 0,
								"slot": "2",
								"type": "t_uint256"
							},
							{
								"astId": 636,
								"contract": "contracts/YabanciDilBilgileri.sol:YabanciDilBilgileri",
								"label": "bitTarih",
								"offset": 0,
								"slot": "3",
								"type": "t_uint256"
							},
							{
								"astId": 639,
								"contract": "contracts/YabanciDilBilgileri.sol:YabanciDilBilgileri",
								"label": "ogretimTipi",
								"offset": 0,
								"slot": "4",
								"type": "t_enum(OgretimTipi)289"
							},
							{
								"astId": 641,
								"contract": "contracts/YabanciDilBilgileri.sol:YabanciDilBilgileri",
								"label": "dilId",
								"offset": 1,
								"slot": "4",
								"type": "t_uint32"
							}
						],
						"numberOfBytes": "160"
					},
					"t_uint16": {
						"encoding": "inplace",
						"label": "uint16",
						"numberOfBytes": "2"
					},
					"t_uint256": {
						"encoding": "inplace",
						"label": "uint256",
						"numberOfBytes": "32"
					},
					"t_uint32": {
						"encoding": "inplace",
						"label": "uint32",
						"numberOfBytes": "4"
					},
					"t_uint8": {
						"encoding": "inplace",
						"label": "uint8",
						"numberOfBytes": "1"
					}
				}
			},
			"userdoc": {
				"kind": "user",
				"methods": {},
				"version": 1
			}
		}
	}
}