{
	"contracts/EgitimBilgileri.sol": {
		"EgitimBilgileri": {
			"abi": [
				{
					"inputs": [
						{
							"internalType": "address",
							"name": "",
							"type": "address"
						}
					],
					"name": "academicians",
					"outputs": [
						{
							"internalType": "bool",
							"name": "durum",
							"type": "bool"
						},
						{
							"internalType": "address",
							"name": "universite",
							"type": "address"
						},
						{
							"internalType": "uint16",
							"name": "bolum",
							"type": "uint16"
						},
						{
							"internalType": "enum EgitimBilgileri.Unvan",
							"name": "unvan",
							"type": "uint8"
						},
						{
							"internalType": "bytes32",
							"name": "name",
							"type": "bytes32"
						},
						{
							"internalType": "bytes32",
							"name": "surname",
							"type": "bytes32"
						}
					],
					"stateMutability": "view",
					"type": "function"
				},
				{
					"inputs": [
						{
							"internalType": "address",
							"name": "_universityAddress",
							"type": "address"
						},
						{
							"internalType": "uint16",
							"name": "_bolum",
							"type": "uint16"
						},
						{
							"internalType": "enum EgitimBilgileri.Unvan",
							"name": "_unvan",
							"type": "uint8"
						},
						{
							"internalType": "bytes32",
							"name": "_name",
							"type": "bytes32"
						},
						{
							"internalType": "bytes32",
							"name": "_surname",
							"type": "bytes32"
						}
					],
					"name": "addAcademician",
					"outputs": [],
					"stateMutability": "nonpayable",
					"type": "function"
				},
				{
					"inputs": [
						{
							"internalType": "address",
							"name": "_universityAddress",
							"type": "address"
						},
						{
							"internalType": "bytes32",
							"name": "_isim",
							"type": "bytes32"
						},
						{
							"internalType": "uint8",
							"name": "_ulke",
							"type": "uint8"
						}
					],
					"name": "addUniversite",
					"outputs": [],
					"stateMutability": "nonpayable",
					"type": "function"
				},
				{
					"inputs": [
						{
							"internalType": "address",
							"name": "_address",
							"type": "address"
						}
					],
					"name": "isAcademician",
					"outputs": [
						{
							"internalType": "bool",
							"name": "",
							"type": "bool"
						}
					],
					"stateMutability": "view",
					"type": "function"
				},
				{
					"inputs": [
						{
							"internalType": "address",
							"name": "_address",
							"type": "address"
						}
					],
					"name": "isUniversity",
					"outputs": [
						{
							"internalType": "bool",
							"name": "",
							"type": "bool"
						}
					],
					"stateMutability": "view",
					"type": "function"
				},
				{
					"inputs": [
						{
							"internalType": "address",
							"name": "",
							"type": "address"
						}
					],
					"name": "universities",
					"outputs": [
						{
							"internalType": "bool",
							"name": "durum",
							"type": "bool"
						},
						{
							"internalType": "bytes32",
							"name": "isim",
							"type": "bytes32"
						},
						{
							"internalType": "uint8",
							"name": "ulke",
							"type": "uint8"
						}
					],
					"stateMutability": "view",
					"type": "function"
				}
			],
			"devdoc": {
				"kind": "dev",
				"methods": {},
				"version": 1
			},
			"evm": {
				"assembly": "    /* \"contracts/EgitimBilgileri.sol\":70:1951  contract EgitimBilgileri{\r... */\n  mstore(0x40, 0x80)\n  callvalue\n  dup1\n  iszero\n  tag_1\n  jumpi\n  0x00\n  dup1\n  revert\ntag_1:\n  pop\n  dataSize(sub_0)\n  dup1\n  dataOffset(sub_0)\n  0x00\n  codecopy\n  0x00\n  return\nstop\n\nsub_0: assembly {\n        /* \"contracts/EgitimBilgileri.sol\":70:1951  contract EgitimBilgileri{\r... */\n      mstore(0x40, 0x80)\n      callvalue\n      dup1\n      iszero\n      tag_1\n      jumpi\n      0x00\n      dup1\n      revert\n    tag_1:\n      pop\n      jumpi(tag_2, lt(calldatasize, 0x04))\n      shr(0xe0, calldataload(0x00))\n      dup1\n      0x43958009\n      eq\n      tag_3\n      jumpi\n      dup1\n      0x709e85ab\n      eq\n      tag_4\n      jumpi\n      dup1\n      0x9eaad92a\n      eq\n      tag_5\n      jumpi\n      dup1\n      0xb9730cde\n      eq\n      tag_6\n      jumpi\n      dup1\n      0xc689be00\n      eq\n      tag_7\n      jumpi\n      dup1\n      0xf0995560\n      eq\n      tag_8\n      jumpi\n    tag_2:\n      0x00\n      dup1\n      revert\n        /* \"contracts/EgitimBilgileri.sol\":1707:1948  function addAcademician (address _universityAddress,uint16 _bolum, Unvan _unvan, bytes32 _name, bytes32 _surname) public {\r... */\n    tag_3:\n      tag_9\n      0x04\n      dup1\n      calldatasize\n      sub\n      dup2\n      add\n      swap1\n      tag_10\n      swap2\n      swap1\n      tag_11\n      jump\t// in\n    tag_10:\n      tag_12\n      jump\t// in\n    tag_9:\n      stop\n        /* \"contracts/EgitimBilgileri.sol\":1400:1519  function isAcademician(address _address) public view returns(bool){\r... */\n    tag_4:\n      tag_13\n      0x04\n      dup1\n      calldatasize\n      sub\n      dup2\n      add\n      swap1\n      tag_14\n      swap2\n      swap1\n      tag_15\n      jump\t// in\n    tag_14:\n      tag_16\n      jump\t// in\n    tag_13:\n      mload(0x40)\n      tag_17\n      swap2\n      swap1\n      tag_18\n      jump\t// in\n    tag_17:\n      mload(0x40)\n      dup1\n      swap2\n      sub\n      swap1\n      return\n        /* \"contracts/EgitimBilgileri.sol\":1217:1266  mapping(address=>Akademisyen) public academicians */\n    tag_5:\n      tag_19\n      0x04\n      dup1\n      calldatasize\n      sub\n      dup2\n      add\n      swap1\n      tag_20\n      swap2\n      swap1\n      tag_15\n      jump\t// in\n    tag_20:\n      tag_21\n      jump\t// in\n    tag_19:\n      mload(0x40)\n      tag_22\n      swap7\n      swap6\n      swap5\n      swap4\n      swap3\n      swap2\n      swap1\n      tag_23\n      jump\t// in\n    tag_22:\n      mload(0x40)\n      dup1\n      swap2\n      sub\n      swap1\n      return\n        /* \"contracts/EgitimBilgileri.sol\":1273:1392  function isUniversity(address _address) public view returns(bool){\r... */\n    tag_6:\n      tag_24\n      0x04\n      dup1\n      calldatasize\n      sub\n      dup2\n      add\n      swap1\n      tag_25\n      swap2\n      swap1\n      tag_15\n      jump\t// in\n    tag_25:\n      tag_26\n      jump\t// in\n    tag_24:\n      mload(0x40)\n      tag_27\n      swap2\n      swap1\n      tag_18\n      jump\t// in\n    tag_27:\n      mload(0x40)\n      dup1\n      swap2\n      sub\n      swap1\n      return\n        /* \"contracts/EgitimBilgileri.sol\":1525:1695  function addUniversite (address _universityAddress, bytes32 _isim, uint8 _ulke) public {\r... */\n    tag_7:\n      tag_28\n      0x04\n      dup1\n      calldatasize\n      sub\n      dup2\n      add\n      swap1\n      tag_29\n      swap2\n      swap1\n      tag_30\n      jump\t// in\n    tag_29:\n      tag_31\n      jump\t// in\n    tag_28:\n      stop\n        /* \"contracts/EgitimBilgileri.sol\":1161:1209  mapping(address=>Universite) public universities */\n    tag_8:\n      tag_32\n      0x04\n      dup1\n      calldatasize\n      sub\n      dup2\n      add\n      swap1\n      tag_33\n      swap2\n      swap1\n      tag_15\n      jump\t// in\n    tag_33:\n      tag_34\n      jump\t// in\n    tag_32:\n      mload(0x40)\n      tag_35\n      swap4\n      swap3\n      swap2\n      swap1\n      tag_36\n      jump\t// in\n    tag_35:\n      mload(0x40)\n      dup1\n      swap2\n      sub\n      swap1\n      return\n        /* \"contracts/EgitimBilgileri.sol\":1707:1948  function addAcademician (address _universityAddress,uint16 _bolum, Unvan _unvan, bytes32 _name, bytes32 _surname) public {\r... */\n    tag_12:\n        /* \"contracts/EgitimBilgileri.sol\":1874:1940  Akademisyen(true,_universityAddress,_bolum,_unvan,_name, _surname) */\n      mload(0x40)\n      dup1\n      0xc0\n      add\n      0x40\n      mstore\n      dup1\n        /* \"contracts/EgitimBilgileri.sol\":1886:1890  true */\n      0x01\n        /* \"contracts/EgitimBilgileri.sol\":1874:1940  Akademisyen(true,_universityAddress,_bolum,_unvan,_name, _surname) */\n      iszero\n      iszero\n      dup2\n      mstore\n      0x20\n      add\n        /* \"contracts/EgitimBilgileri.sol\":1891:1909  _universityAddress */\n      dup7\n        /* \"contracts/EgitimBilgileri.sol\":1874:1940  Akademisyen(true,_universityAddress,_bolum,_unvan,_name, _surname) */\n      0xffffffffffffffffffffffffffffffffffffffff\n      and\n      dup2\n      mstore\n      0x20\n      add\n        /* \"contracts/EgitimBilgileri.sol\":1910:1916  _bolum */\n      dup6\n        /* \"contracts/EgitimBilgileri.sol\":1874:1940  Akademisyen(true,_universityAddress,_bolum,_unvan,_name, _surname) */\n      0xffff\n      and\n      dup2\n      mstore\n      0x20\n      add\n        /* \"contracts/EgitimBilgileri.sol\":1917:1923  _unvan */\n      dup5\n        /* \"contracts/EgitimBilgileri.sol\":1874:1940  Akademisyen(true,_universityAddress,_bolum,_unvan,_name, _surname) */\n      0x03\n      dup2\n      gt\n      iszero\n      tag_38\n      jumpi\n      tag_39\n      tag_40\n      jump\t// in\n    tag_39:\n    tag_38:\n      dup2\n      mstore\n      0x20\n      add\n        /* \"contracts/EgitimBilgileri.sol\":1924:1929  _name */\n      dup4\n        /* \"contracts/EgitimBilgileri.sol\":1874:1940  Akademisyen(true,_universityAddress,_bolum,_unvan,_name, _surname) */\n      dup2\n      mstore\n      0x20\n      add\n        /* \"contracts/EgitimBilgileri.sol\":1931:1939  _surname */\n      dup3\n        /* \"contracts/EgitimBilgileri.sol\":1874:1940  Akademisyen(true,_universityAddress,_bolum,_unvan,_name, _surname) */\n      dup2\n      mstore\n      pop\n        /* \"contracts/EgitimBilgileri.sol\":1839:1851  academicians */\n      0x01\n        /* \"contracts/EgitimBilgileri.sol\":1839:1871  academicians[_universityAddress] */\n      0x00\n        /* \"contracts/EgitimBilgileri.sol\":1852:1870  _universityAddress */\n      dup8\n        /* \"contracts/EgitimBilgileri.sol\":1839:1871  academicians[_universityAddress] */\n      0xffffffffffffffffffffffffffffffffffffffff\n      and\n      0xffffffffffffffffffffffffffffffffffffffff\n      and\n      dup2\n      mstore\n      0x20\n      add\n      swap1\n      dup2\n      mstore\n      0x20\n      add\n      0x00\n      keccak256\n        /* \"contracts/EgitimBilgileri.sol\":1839:1940  academicians[_universityAddress] = Akademisyen(true,_universityAddress,_bolum,_unvan,_name, _surname) */\n      0x00\n      dup3\n      add\n      mload\n      dup2\n      0x00\n      add\n      exp(0x0100, 0x00)\n      dup2\n      sload\n      dup2\n      0xff\n      mul\n      not\n      and\n      swap1\n      dup4\n      iszero\n      iszero\n      mul\n      or\n      swap1\n      sstore\n      pop\n      0x20\n      dup3\n      add\n      mload\n      dup2\n      0x00\n      add\n      exp(0x0100, 0x01)\n      dup2\n      sload\n      dup2\n      0xffffffffffffffffffffffffffffffffffffffff\n      mul\n      not\n      and\n      swap1\n      dup4\n      0xffffffffffffffffffffffffffffffffffffffff\n      and\n      mul\n      or\n      swap1\n      sstore\n      pop\n      0x40\n      dup3\n      add\n      mload\n      dup2\n      0x00\n      add\n      exp(0x0100, 0x15)\n      dup2\n      sload\n      dup2\n      0xffff\n      mul\n      not\n      and\n      swap1\n      dup4\n      0xffff\n      and\n      mul\n      or\n      swap1\n      sstore\n      pop\n      0x60\n      dup3\n      add\n      mload\n      dup2\n      0x00\n      add\n      exp(0x0100, 0x17)\n      dup2\n      sload\n      dup2\n      0xff\n      mul\n      not\n      and\n      swap1\n      dup4\n      0x03\n      dup2\n      gt\n      iszero\n      tag_41\n      jumpi\n      tag_42\n      tag_40\n      jump\t// in\n    tag_42:\n    tag_41:\n      mul\n      or\n      swap1\n      sstore\n      pop\n      0x80\n      dup3\n      add\n      mload\n      dup2\n      0x01\n      add\n      sstore\n      0xa0\n      dup3\n      add\n      mload\n      dup2\n      0x02\n      add\n      sstore\n      swap1\n      pop\n      pop\n        /* \"contracts/EgitimBilgileri.sol\":1707:1948  function addAcademician (address _universityAddress,uint16 _bolum, Unvan _unvan, bytes32 _name, bytes32 _surname) public {\r... */\n      pop\n      pop\n      pop\n      pop\n      pop\n      jump\t// out\n        /* \"contracts/EgitimBilgileri.sol\":1400:1519  function isAcademician(address _address) public view returns(bool){\r... */\n    tag_16:\n        /* \"contracts/EgitimBilgileri.sol\":1461:1465  bool */\n      0x00\n        /* \"contracts/EgitimBilgileri.sol\":1484:1496  academicians */\n      0x01\n        /* \"contracts/EgitimBilgileri.sol\":1484:1506  academicians[_address] */\n      0x00\n        /* \"contracts/EgitimBilgileri.sol\":1497:1505  _address */\n      dup4\n        /* \"contracts/EgitimBilgileri.sol\":1484:1506  academicians[_address] */\n      0xffffffffffffffffffffffffffffffffffffffff\n      and\n      0xffffffffffffffffffffffffffffffffffffffff\n      and\n      dup2\n      mstore\n      0x20\n      add\n      swap1\n      dup2\n      mstore\n      0x20\n      add\n      0x00\n      keccak256\n        /* \"contracts/EgitimBilgileri.sol\":1484:1512  academicians[_address].durum */\n      0x00\n      add\n      0x00\n      swap1\n      sload\n      swap1\n      0x0100\n      exp\n      swap1\n      div\n      0xff\n      and\n        /* \"contracts/EgitimBilgileri.sol\":1477:1512  return academicians[_address].durum */\n      swap1\n      pop\n        /* \"contracts/EgitimBilgileri.sol\":1400:1519  function isAcademician(address _address) public view returns(bool){\r... */\n      swap2\n      swap1\n      pop\n      jump\t// out\n        /* \"contracts/EgitimBilgileri.sol\":1217:1266  mapping(address=>Akademisyen) public academicians */\n    tag_21:\n      mstore(0x20, 0x01)\n      dup1\n      0x00\n      mstore\n      keccak256(0x00, 0x40)\n      0x00\n      swap2\n      pop\n      swap1\n      pop\n      dup1\n      0x00\n      add\n      0x00\n      swap1\n      sload\n      swap1\n      0x0100\n      exp\n      swap1\n      div\n      0xff\n      and\n      swap1\n      dup1\n      0x00\n      add\n      0x01\n      swap1\n      sload\n      swap1\n      0x0100\n      exp\n      swap1\n      div\n      0xffffffffffffffffffffffffffffffffffffffff\n      and\n      swap1\n      dup1\n      0x00\n      add\n      0x15\n      swap1\n      sload\n      swap1\n      0x0100\n      exp\n      swap1\n      div\n      0xffff\n      and\n      swap1\n      dup1\n      0x00\n      add\n      0x17\n      swap1\n      sload\n      swap1\n      0x0100\n      exp\n      swap1\n      div\n      0xff\n      and\n      swap1\n      dup1\n      0x01\n      add\n      sload\n      swap1\n      dup1\n      0x02\n      add\n      sload\n      swap1\n      pop\n      dup7\n      jump\t// out\n        /* \"contracts/EgitimBilgileri.sol\":1273:1392  function isUniversity(address _address) public view returns(bool){\r... */\n    tag_26:\n        /* \"contracts/EgitimBilgileri.sol\":1333:1337  bool */\n      0x00\n        /* \"contracts/EgitimBilgileri.sol\":1356:1368  universities */\n      dup1\n        /* \"contracts/EgitimBilgileri.sol\":1356:1378  universities[_address] */\n      0x00\n        /* \"contracts/EgitimBilgileri.sol\":1369:1377  _address */\n      dup4\n        /* \"contracts/EgitimBilgileri.sol\":1356:1378  universities[_address] */\n      0xffffffffffffffffffffffffffffffffffffffff\n      and\n      0xffffffffffffffffffffffffffffffffffffffff\n      and\n      dup2\n      mstore\n      0x20\n      add\n      swap1\n      dup2\n      mstore\n      0x20\n      add\n      0x00\n      keccak256\n        /* \"contracts/EgitimBilgileri.sol\":1356:1384  universities[_address].durum */\n      0x00\n      add\n      0x00\n      swap1\n      sload\n      swap1\n      0x0100\n      exp\n      swap1\n      div\n      0xff\n      and\n        /* \"contracts/EgitimBilgileri.sol\":1349:1384  return universities[_address].durum */\n      swap1\n      pop\n        /* \"contracts/EgitimBilgileri.sol\":1273:1392  function isUniversity(address _address) public view returns(bool){\r... */\n      swap2\n      swap1\n      pop\n      jump\t// out\n        /* \"contracts/EgitimBilgileri.sol\":1525:1695  function addUniversite (address _universityAddress, bytes32 _isim, uint8 _ulke) public {\r... */\n    tag_31:\n        /* \"contracts/EgitimBilgileri.sol\":1658:1687  Universite(true,_isim, _ulke) */\n      mload(0x40)\n      dup1\n      0x60\n      add\n      0x40\n      mstore\n      dup1\n        /* \"contracts/EgitimBilgileri.sol\":1669:1673  true */\n      0x01\n        /* \"contracts/EgitimBilgileri.sol\":1658:1687  Universite(true,_isim, _ulke) */\n      iszero\n      iszero\n      dup2\n      mstore\n      0x20\n      add\n        /* \"contracts/EgitimBilgileri.sol\":1674:1679  _isim */\n      dup4\n        /* \"contracts/EgitimBilgileri.sol\":1658:1687  Universite(true,_isim, _ulke) */\n      dup2\n      mstore\n      0x20\n      add\n        /* \"contracts/EgitimBilgileri.sol\":1681:1686  _ulke */\n      dup3\n        /* \"contracts/EgitimBilgileri.sol\":1658:1687  Universite(true,_isim, _ulke) */\n      0xff\n      and\n      dup2\n      mstore\n      pop\n        /* \"contracts/EgitimBilgileri.sol\":1623:1635  universities */\n      0x00\n        /* \"contracts/EgitimBilgileri.sol\":1623:1655  universities[_universityAddress] */\n      dup1\n        /* \"contracts/EgitimBilgileri.sol\":1636:1654  _universityAddress */\n      dup6\n        /* \"contracts/EgitimBilgileri.sol\":1623:1655  universities[_universityAddress] */\n      0xffffffffffffffffffffffffffffffffffffffff\n      and\n      0xffffffffffffffffffffffffffffffffffffffff\n      and\n      dup2\n      mstore\n      0x20\n      add\n      swap1\n      dup2\n      mstore\n      0x20\n      add\n      0x00\n      keccak256\n        /* \"contracts/EgitimBilgileri.sol\":1623:1687  universities[_universityAddress] = Universite(true,_isim, _ulke) */\n      0x00\n      dup3\n      add\n      mload\n      dup2\n      0x00\n      add\n      exp(0x0100, 0x00)\n      dup2\n      sload\n      dup2\n      0xff\n      mul\n      not\n      and\n      swap1\n      dup4\n      iszero\n      iszero\n      mul\n      or\n      swap1\n      sstore\n      pop\n      0x20\n      dup3\n      add\n      mload\n      dup2\n      0x01\n      add\n      sstore\n      0x40\n      dup3\n      add\n      mload\n      dup2\n      0x02\n      add\n      exp(0x0100, 0x00)\n      dup2\n      sload\n      dup2\n      0xff\n      mul\n      not\n      and\n      swap1\n      dup4\n      0xff\n      and\n      mul\n      or\n      swap1\n      sstore\n      pop\n      swap1\n      pop\n      pop\n        /* \"contracts/EgitimBilgileri.sol\":1525:1695  function addUniversite (address _universityAddress, bytes32 _isim, uint8 _ulke) public {\r... */\n      pop\n      pop\n      pop\n      jump\t// out\n        /* \"contracts/EgitimBilgileri.sol\":1161:1209  mapping(address=>Universite) public universities */\n    tag_34:\n      mstore(0x20, 0x00)\n      dup1\n      0x00\n      mstore\n      keccak256(0x00, 0x40)\n      0x00\n      swap2\n      pop\n      swap1\n      pop\n      dup1\n      0x00\n      add\n      0x00\n      swap1\n      sload\n      swap1\n      0x0100\n      exp\n      swap1\n      div\n      0xff\n      and\n      swap1\n      dup1\n      0x01\n      add\n      sload\n      swap1\n      dup1\n      0x02\n      add\n      0x00\n      swap1\n      sload\n      swap1\n      0x0100\n      exp\n      swap1\n      div\n      0xff\n      and\n      swap1\n      pop\n      dup4\n      jump\t// out\n        /* \"#utility.yul\":7:146   */\n    tag_47:\n        /* \"#utility.yul\":53:58   */\n      0x00\n        /* \"#utility.yul\":91:97   */\n      dup2\n        /* \"#utility.yul\":78:98   */\n      calldataload\n        /* \"#utility.yul\":69:98   */\n      swap1\n      pop\n        /* \"#utility.yul\":107:140   */\n      tag_49\n        /* \"#utility.yul\":134:139   */\n      dup2\n        /* \"#utility.yul\":107:140   */\n      tag_50\n      jump\t// in\n    tag_49:\n        /* \"#utility.yul\":7:146   */\n      swap3\n      swap2\n      pop\n      pop\n      jump\t// out\n        /* \"#utility.yul\":152:291   */\n    tag_51:\n        /* \"#utility.yul\":198:203   */\n      0x00\n        /* \"#utility.yul\":236:242   */\n      dup2\n        /* \"#utility.yul\":223:243   */\n      calldataload\n        /* \"#utility.yul\":214:243   */\n      swap1\n      pop\n        /* \"#utility.yul\":252:285   */\n      tag_53\n        /* \"#utility.yul\":279:284   */\n      dup2\n        /* \"#utility.yul\":252:285   */\n      tag_54\n      jump\t// in\n    tag_53:\n        /* \"#utility.yul\":152:291   */\n      swap3\n      swap2\n      pop\n      pop\n      jump\t// out\n        /* \"#utility.yul\":297:452   */\n    tag_55:\n        /* \"#utility.yul\":351:356   */\n      0x00\n        /* \"#utility.yul\":389:395   */\n      dup2\n        /* \"#utility.yul\":376:396   */\n      calldataload\n        /* \"#utility.yul\":367:396   */\n      swap1\n      pop\n        /* \"#utility.yul\":405:446   */\n      tag_57\n        /* \"#utility.yul\":440:445   */\n      dup2\n        /* \"#utility.yul\":405:446   */\n      tag_58\n      jump\t// in\n    tag_57:\n        /* \"#utility.yul\":297:452   */\n      swap3\n      swap2\n      pop\n      pop\n      jump\t// out\n        /* \"#utility.yul\":458:595   */\n    tag_59:\n        /* \"#utility.yul\":503:508   */\n      0x00\n        /* \"#utility.yul\":541:547   */\n      dup2\n        /* \"#utility.yul\":528:548   */\n      calldataload\n        /* \"#utility.yul\":519:548   */\n      swap1\n      pop\n        /* \"#utility.yul\":557:589   */\n      tag_61\n        /* \"#utility.yul\":583:588   */\n      dup2\n        /* \"#utility.yul\":557:589   */\n      tag_62\n      jump\t// in\n    tag_61:\n        /* \"#utility.yul\":458:595   */\n      swap3\n      swap2\n      pop\n      pop\n      jump\t// out\n        /* \"#utility.yul\":601:736   */\n    tag_63:\n        /* \"#utility.yul\":645:650   */\n      0x00\n        /* \"#utility.yul\":683:689   */\n      dup2\n        /* \"#utility.yul\":670:690   */\n      calldataload\n        /* \"#utility.yul\":661:690   */\n      swap1\n      pop\n        /* \"#utility.yul\":699:730   */\n      tag_65\n        /* \"#utility.yul\":724:729   */\n      dup2\n        /* \"#utility.yul\":699:730   */\n      tag_66\n      jump\t// in\n    tag_65:\n        /* \"#utility.yul\":601:736   */\n      swap3\n      swap2\n      pop\n      pop\n      jump\t// out\n        /* \"#utility.yul\":742:1071   */\n    tag_15:\n        /* \"#utility.yul\":801:807   */\n      0x00\n        /* \"#utility.yul\":850:852   */\n      0x20\n        /* \"#utility.yul\":838:847   */\n      dup3\n        /* \"#utility.yul\":829:836   */\n      dup5\n        /* \"#utility.yul\":825:848   */\n      sub\n        /* \"#utility.yul\":821:853   */\n      slt\n        /* \"#utility.yul\":818:937   */\n      iszero\n      tag_68\n      jumpi\n        /* \"#utility.yul\":856:935   */\n      tag_69\n      tag_70\n      jump\t// in\n    tag_69:\n        /* \"#utility.yul\":818:937   */\n    tag_68:\n        /* \"#utility.yul\":976:977   */\n      0x00\n        /* \"#utility.yul\":1001:1054   */\n      tag_71\n        /* \"#utility.yul\":1046:1053   */\n      dup5\n        /* \"#utility.yul\":1037:1043   */\n      dup3\n        /* \"#utility.yul\":1026:1035   */\n      dup6\n        /* \"#utility.yul\":1022:1044   */\n      add\n        /* \"#utility.yul\":1001:1054   */\n      tag_47\n      jump\t// in\n    tag_71:\n        /* \"#utility.yul\":991:1054   */\n      swap2\n      pop\n        /* \"#utility.yul\":947:1064   */\n      pop\n        /* \"#utility.yul\":742:1071   */\n      swap3\n      swap2\n      pop\n      pop\n      jump\t// out\n        /* \"#utility.yul\":1077:1692   */\n    tag_30:\n        /* \"#utility.yul\":1152:1158   */\n      0x00\n        /* \"#utility.yul\":1160:1166   */\n      dup1\n        /* \"#utility.yul\":1168:1174   */\n      0x00\n        /* \"#utility.yul\":1217:1219   */\n      0x60\n        /* \"#utility.yul\":1205:1214   */\n      dup5\n        /* \"#utility.yul\":1196:1203   */\n      dup7\n        /* \"#utility.yul\":1192:1215   */\n      sub\n        /* \"#utility.yul\":1188:1220   */\n      slt\n        /* \"#utility.yul\":1185:1304   */\n      iszero\n      tag_73\n      jumpi\n        /* \"#utility.yul\":1223:1302   */\n      tag_74\n      tag_70\n      jump\t// in\n    tag_74:\n        /* \"#utility.yul\":1185:1304   */\n    tag_73:\n        /* \"#utility.yul\":1343:1344   */\n      0x00\n        /* \"#utility.yul\":1368:1421   */\n      tag_75\n        /* \"#utility.yul\":1413:1420   */\n      dup7\n        /* \"#utility.yul\":1404:1410   */\n      dup3\n        /* \"#utility.yul\":1393:1402   */\n      dup8\n        /* \"#utility.yul\":1389:1411   */\n      add\n        /* \"#utility.yul\":1368:1421   */\n      tag_47\n      jump\t// in\n    tag_75:\n        /* \"#utility.yul\":1358:1421   */\n      swap4\n      pop\n        /* \"#utility.yul\":1314:1431   */\n      pop\n        /* \"#utility.yul\":1470:1472   */\n      0x20\n        /* \"#utility.yul\":1496:1549   */\n      tag_76\n        /* \"#utility.yul\":1541:1548   */\n      dup7\n        /* \"#utility.yul\":1532:1538   */\n      dup3\n        /* \"#utility.yul\":1521:1530   */\n      dup8\n        /* \"#utility.yul\":1517:1539   */\n      add\n        /* \"#utility.yul\":1496:1549   */\n      tag_51\n      jump\t// in\n    tag_76:\n        /* \"#utility.yul\":1486:1549   */\n      swap3\n      pop\n        /* \"#utility.yul\":1441:1559   */\n      pop\n        /* \"#utility.yul\":1598:1600   */\n      0x40\n        /* \"#utility.yul\":1624:1675   */\n      tag_77\n        /* \"#utility.yul\":1667:1674   */\n      dup7\n        /* \"#utility.yul\":1658:1664   */\n      dup3\n        /* \"#utility.yul\":1647:1656   */\n      dup8\n        /* \"#utility.yul\":1643:1665   */\n      add\n        /* \"#utility.yul\":1624:1675   */\n      tag_63\n      jump\t// in\n    tag_77:\n        /* \"#utility.yul\":1614:1675   */\n      swap2\n      pop\n        /* \"#utility.yul\":1569:1685   */\n      pop\n        /* \"#utility.yul\":1077:1692   */\n      swap3\n      pop\n      swap3\n      pop\n      swap3\n      jump\t// out\n        /* \"#utility.yul\":1698:2623   */\n    tag_11:\n        /* \"#utility.yul\":1800:1806   */\n      0x00\n        /* \"#utility.yul\":1808:1814   */\n      dup1\n        /* \"#utility.yul\":1816:1822   */\n      0x00\n        /* \"#utility.yul\":1824:1830   */\n      dup1\n        /* \"#utility.yul\":1832:1838   */\n      0x00\n        /* \"#utility.yul\":1881:1884   */\n      0xa0\n        /* \"#utility.yul\":1869:1878   */\n      dup7\n        /* \"#utility.yul\":1860:1867   */\n      dup9\n        /* \"#utility.yul\":1856:1879   */\n      sub\n        /* \"#utility.yul\":1852:1885   */\n      slt\n        /* \"#utility.yul\":1849:1969   */\n      iszero\n      tag_79\n      jumpi\n        /* \"#utility.yul\":1888:1967   */\n      tag_80\n      tag_70\n      jump\t// in\n    tag_80:\n        /* \"#utility.yul\":1849:1969   */\n    tag_79:\n        /* \"#utility.yul\":2008:2009   */\n      0x00\n        /* \"#utility.yul\":2033:2086   */\n      tag_81\n        /* \"#utility.yul\":2078:2085   */\n      dup9\n        /* \"#utility.yul\":2069:2075   */\n      dup3\n        /* \"#utility.yul\":2058:2067   */\n      dup10\n        /* \"#utility.yul\":2054:2076   */\n      add\n        /* \"#utility.yul\":2033:2086   */\n      tag_47\n      jump\t// in\n    tag_81:\n        /* \"#utility.yul\":2023:2086   */\n      swap6\n      pop\n        /* \"#utility.yul\":1979:2096   */\n      pop\n        /* \"#utility.yul\":2135:2137   */\n      0x20\n        /* \"#utility.yul\":2161:2213   */\n      tag_82\n        /* \"#utility.yul\":2205:2212   */\n      dup9\n        /* \"#utility.yul\":2196:2202   */\n      dup3\n        /* \"#utility.yul\":2185:2194   */\n      dup10\n        /* \"#utility.yul\":2181:2203   */\n      add\n        /* \"#utility.yul\":2161:2213   */\n      tag_59\n      jump\t// in\n    tag_82:\n        /* \"#utility.yul\":2151:2213   */\n      swap5\n      pop\n        /* \"#utility.yul\":2106:2223   */\n      pop\n        /* \"#utility.yul\":2262:2264   */\n      0x40\n        /* \"#utility.yul\":2288:2349   */\n      tag_83\n        /* \"#utility.yul\":2341:2348   */\n      dup9\n        /* \"#utility.yul\":2332:2338   */\n      dup3\n        /* \"#utility.yul\":2321:2330   */\n      dup10\n        /* \"#utility.yul\":2317:2339   */\n      add\n        /* \"#utility.yul\":2288:2349   */\n      tag_55\n      jump\t// in\n    tag_83:\n        /* \"#utility.yul\":2278:2349   */\n      swap4\n      pop\n        /* \"#utility.yul\":2233:2359   */\n      pop\n        /* \"#utility.yul\":2398:2400   */\n      0x60\n        /* \"#utility.yul\":2424:2477   */\n      tag_84\n        /* \"#utility.yul\":2469:2476   */\n      dup9\n        /* \"#utility.yul\":2460:2466   */\n      dup3\n        /* \"#utility.yul\":2449:2458   */\n      dup10\n        /* \"#utility.yul\":2445:2467   */\n      add\n        /* \"#utility.yul\":2424:2477   */\n      tag_51\n      jump\t// in\n    tag_84:\n        /* \"#utility.yul\":2414:2477   */\n      swap3\n      pop\n        /* \"#utility.yul\":2369:2487   */\n      pop\n        /* \"#utility.yul\":2526:2529   */\n      0x80\n        /* \"#utility.yul\":2553:2606   */\n      tag_85\n        /* \"#utility.yul\":2598:2605   */\n      dup9\n        /* \"#utility.yul\":2589:2595   */\n      dup3\n        /* \"#utility.yul\":2578:2587   */\n      dup10\n        /* \"#utility.yul\":2574:2596   */\n      add\n        /* \"#utility.yul\":2553:2606   */\n      tag_51\n      jump\t// in\n    tag_85:\n        /* \"#utility.yul\":2543:2606   */\n      swap2\n      pop\n        /* \"#utility.yul\":2497:2616   */\n      pop\n        /* \"#utility.yul\":1698:2623   */\n      swap3\n      swap6\n      pop\n      swap3\n      swap6\n      swap1\n      swap4\n      pop\n      jump\t// out\n        /* \"#utility.yul\":2629:2747   */\n    tag_86:\n        /* \"#utility.yul\":2716:2740   */\n      tag_88\n        /* \"#utility.yul\":2734:2739   */\n      dup2\n        /* \"#utility.yul\":2716:2740   */\n      tag_89\n      jump\t// in\n    tag_88:\n        /* \"#utility.yul\":2711:2714   */\n      dup3\n        /* \"#utility.yul\":2704:2741   */\n      mstore\n        /* \"#utility.yul\":2629:2747   */\n      pop\n      pop\n      jump\t// out\n        /* \"#utility.yul\":2753:2862   */\n    tag_90:\n        /* \"#utility.yul\":2834:2855   */\n      tag_92\n        /* \"#utility.yul\":2849:2854   */\n      dup2\n        /* \"#utility.yul\":2834:2855   */\n      tag_93\n      jump\t// in\n    tag_92:\n        /* \"#utility.yul\":2829:2832   */\n      dup3\n        /* \"#utility.yul\":2822:2856   */\n      mstore\n        /* \"#utility.yul\":2753:2862   */\n      pop\n      pop\n      jump\t// out\n        /* \"#utility.yul\":2868:2986   */\n    tag_94:\n        /* \"#utility.yul\":2955:2979   */\n      tag_96\n        /* \"#utility.yul\":2973:2978   */\n      dup2\n        /* \"#utility.yul\":2955:2979   */\n      tag_97\n      jump\t// in\n    tag_96:\n        /* \"#utility.yul\":2950:2953   */\n      dup3\n        /* \"#utility.yul\":2943:2980   */\n      mstore\n        /* \"#utility.yul\":2868:2986   */\n      pop\n      pop\n      jump\t// out\n        /* \"#utility.yul\":2992:3135   */\n    tag_98:\n        /* \"#utility.yul\":3085:3128   */\n      tag_100\n        /* \"#utility.yul\":3122:3127   */\n      dup2\n        /* \"#utility.yul\":3085:3128   */\n      tag_101\n      jump\t// in\n    tag_100:\n        /* \"#utility.yul\":3080:3083   */\n      dup3\n        /* \"#utility.yul\":3073:3129   */\n      mstore\n        /* \"#utility.yul\":2992:3135   */\n      pop\n      pop\n      jump\t// out\n        /* \"#utility.yul\":3141:3256   */\n    tag_102:\n        /* \"#utility.yul\":3226:3249   */\n      tag_104\n        /* \"#utility.yul\":3243:3248   */\n      dup2\n        /* \"#utility.yul\":3226:3249   */\n      tag_105\n      jump\t// in\n    tag_104:\n        /* \"#utility.yul\":3221:3224   */\n      dup3\n        /* \"#utility.yul\":3214:3250   */\n      mstore\n        /* \"#utility.yul\":3141:3256   */\n      pop\n      pop\n      jump\t// out\n        /* \"#utility.yul\":3262:3374   */\n    tag_106:\n        /* \"#utility.yul\":3345:3367   */\n      tag_108\n        /* \"#utility.yul\":3361:3366   */\n      dup2\n        /* \"#utility.yul\":3345:3367   */\n      tag_109\n      jump\t// in\n    tag_108:\n        /* \"#utility.yul\":3340:3343   */\n      dup3\n        /* \"#utility.yul\":3333:3368   */\n      mstore\n        /* \"#utility.yul\":3262:3374   */\n      pop\n      pop\n      jump\t// out\n        /* \"#utility.yul\":3380:3590   */\n    tag_18:\n        /* \"#utility.yul\":3467:3471   */\n      0x00\n        /* \"#utility.yul\":3505:3507   */\n      0x20\n        /* \"#utility.yul\":3494:3503   */\n      dup3\n        /* \"#utility.yul\":3490:3508   */\n      add\n        /* \"#utility.yul\":3482:3508   */\n      swap1\n      pop\n        /* \"#utility.yul\":3518:3583   */\n      tag_111\n        /* \"#utility.yul\":3580:3581   */\n      0x00\n        /* \"#utility.yul\":3569:3578   */\n      dup4\n        /* \"#utility.yul\":3565:3582   */\n      add\n        /* \"#utility.yul\":3556:3562   */\n      dup5\n        /* \"#utility.yul\":3518:3583   */\n      tag_90\n      jump\t// in\n    tag_111:\n        /* \"#utility.yul\":3380:3590   */\n      swap3\n      swap2\n      pop\n      pop\n      jump\t// out\n        /* \"#utility.yul\":3596:4367   */\n    tag_23:\n        /* \"#utility.yul\":3827:3831   */\n      0x00\n        /* \"#utility.yul\":3865:3868   */\n      0xc0\n        /* \"#utility.yul\":3854:3863   */\n      dup3\n        /* \"#utility.yul\":3850:3869   */\n      add\n        /* \"#utility.yul\":3842:3869   */\n      swap1\n      pop\n        /* \"#utility.yul\":3879:3944   */\n      tag_113\n        /* \"#utility.yul\":3941:3942   */\n      0x00\n        /* \"#utility.yul\":3930:3939   */\n      dup4\n        /* \"#utility.yul\":3926:3943   */\n      add\n        /* \"#utility.yul\":3917:3923   */\n      dup10\n        /* \"#utility.yul\":3879:3944   */\n      tag_90\n      jump\t// in\n    tag_113:\n        /* \"#utility.yul\":3954:4026   */\n      tag_114\n        /* \"#utility.yul\":4022:4024   */\n      0x20\n        /* \"#utility.yul\":4011:4020   */\n      dup4\n        /* \"#utility.yul\":4007:4025   */\n      add\n        /* \"#utility.yul\":3998:4004   */\n      dup9\n        /* \"#utility.yul\":3954:4026   */\n      tag_86\n      jump\t// in\n    tag_114:\n        /* \"#utility.yul\":4036:4106   */\n      tag_115\n        /* \"#utility.yul\":4102:4104   */\n      0x40\n        /* \"#utility.yul\":4091:4100   */\n      dup4\n        /* \"#utility.yul\":4087:4105   */\n      add\n        /* \"#utility.yul\":4078:4084   */\n      dup8\n        /* \"#utility.yul\":4036:4106   */\n      tag_102\n      jump\t// in\n    tag_115:\n        /* \"#utility.yul\":4116:4194   */\n      tag_116\n        /* \"#utility.yul\":4190:4192   */\n      0x60\n        /* \"#utility.yul\":4179:4188   */\n      dup4\n        /* \"#utility.yul\":4175:4193   */\n      add\n        /* \"#utility.yul\":4166:4172   */\n      dup7\n        /* \"#utility.yul\":4116:4194   */\n      tag_98\n      jump\t// in\n    tag_116:\n        /* \"#utility.yul\":4204:4277   */\n      tag_117\n        /* \"#utility.yul\":4272:4275   */\n      0x80\n        /* \"#utility.yul\":4261:4270   */\n      dup4\n        /* \"#utility.yul\":4257:4276   */\n      add\n        /* \"#utility.yul\":4248:4254   */\n      dup6\n        /* \"#utility.yul\":4204:4277   */\n      tag_94\n      jump\t// in\n    tag_117:\n        /* \"#utility.yul\":4287:4360   */\n      tag_118\n        /* \"#utility.yul\":4355:4358   */\n      0xa0\n        /* \"#utility.yul\":4344:4353   */\n      dup4\n        /* \"#utility.yul\":4340:4359   */\n      add\n        /* \"#utility.yul\":4331:4337   */\n      dup5\n        /* \"#utility.yul\":4287:4360   */\n      tag_94\n      jump\t// in\n    tag_118:\n        /* \"#utility.yul\":3596:4367   */\n      swap8\n      swap7\n      pop\n      pop\n      pop\n      pop\n      pop\n      pop\n      pop\n      jump\t// out\n        /* \"#utility.yul\":4373:4795   */\n    tag_36:\n        /* \"#utility.yul\":4512:4516   */\n      0x00\n        /* \"#utility.yul\":4550:4552   */\n      0x60\n        /* \"#utility.yul\":4539:4548   */\n      dup3\n        /* \"#utility.yul\":4535:4553   */\n      add\n        /* \"#utility.yul\":4527:4553   */\n      swap1\n      pop\n        /* \"#utility.yul\":4563:4628   */\n      tag_120\n        /* \"#utility.yul\":4625:4626   */\n      0x00\n        /* \"#utility.yul\":4614:4623   */\n      dup4\n        /* \"#utility.yul\":4610:4627   */\n      add\n        /* \"#utility.yul\":4601:4607   */\n      dup7\n        /* \"#utility.yul\":4563:4628   */\n      tag_90\n      jump\t// in\n    tag_120:\n        /* \"#utility.yul\":4638:4710   */\n      tag_121\n        /* \"#utility.yul\":4706:4708   */\n      0x20\n        /* \"#utility.yul\":4695:4704   */\n      dup4\n        /* \"#utility.yul\":4691:4709   */\n      add\n        /* \"#utility.yul\":4682:4688   */\n      dup6\n        /* \"#utility.yul\":4638:4710   */\n      tag_94\n      jump\t// in\n    tag_121:\n        /* \"#utility.yul\":4720:4788   */\n      tag_122\n        /* \"#utility.yul\":4784:4786   */\n      0x40\n        /* \"#utility.yul\":4773:4782   */\n      dup4\n        /* \"#utility.yul\":4769:4787   */\n      add\n        /* \"#utility.yul\":4760:4766   */\n      dup5\n        /* \"#utility.yul\":4720:4788   */\n      tag_106\n      jump\t// in\n    tag_122:\n        /* \"#utility.yul\":4373:4795   */\n      swap5\n      swap4\n      pop\n      pop\n      pop\n      pop\n      jump\t// out\n        /* \"#utility.yul\":4882:4978   */\n    tag_89:\n        /* \"#utility.yul\":4919:4926   */\n      0x00\n        /* \"#utility.yul\":4948:4972   */\n      tag_126\n        /* \"#utility.yul\":4966:4971   */\n      dup3\n        /* \"#utility.yul\":4948:4972   */\n      tag_127\n      jump\t// in\n    tag_126:\n        /* \"#utility.yul\":4937:4972   */\n      swap1\n      pop\n        /* \"#utility.yul\":4882:4978   */\n      swap2\n      swap1\n      pop\n      jump\t// out\n        /* \"#utility.yul\":4984:5074   */\n    tag_93:\n        /* \"#utility.yul\":5018:5025   */\n      0x00\n        /* \"#utility.yul\":5061:5066   */\n      dup2\n        /* \"#utility.yul\":5054:5067   */\n      iszero\n        /* \"#utility.yul\":5047:5068   */\n      iszero\n        /* \"#utility.yul\":5036:5068   */\n      swap1\n      pop\n        /* \"#utility.yul\":4984:5074   */\n      swap2\n      swap1\n      pop\n      jump\t// out\n        /* \"#utility.yul\":5080:5157   */\n    tag_97:\n        /* \"#utility.yul\":5117:5124   */\n      0x00\n        /* \"#utility.yul\":5146:5151   */\n      dup2\n        /* \"#utility.yul\":5135:5151   */\n      swap1\n      pop\n        /* \"#utility.yul\":5080:5157   */\n      swap2\n      swap1\n      pop\n      jump\t// out\n        /* \"#utility.yul\":5163:5290   */\n    tag_130:\n        /* \"#utility.yul\":5208:5215   */\n      0x00\n        /* \"#utility.yul\":5237:5242   */\n      dup2\n        /* \"#utility.yul\":5226:5242   */\n      swap1\n      pop\n        /* \"#utility.yul\":5243:5284   */\n      tag_132\n        /* \"#utility.yul\":5278:5283   */\n      dup3\n        /* \"#utility.yul\":5243:5284   */\n      tag_133\n      jump\t// in\n    tag_132:\n        /* \"#utility.yul\":5163:5290   */\n      swap2\n      swap1\n      pop\n      jump\t// out\n        /* \"#utility.yul\":5296:5385   */\n    tag_105:\n        /* \"#utility.yul\":5332:5339   */\n      0x00\n        /* \"#utility.yul\":5372:5378   */\n      0xffff\n        /* \"#utility.yul\":5365:5370   */\n      dup3\n        /* \"#utility.yul\":5361:5379   */\n      and\n        /* \"#utility.yul\":5350:5379   */\n      swap1\n      pop\n        /* \"#utility.yul\":5296:5385   */\n      swap2\n      swap1\n      pop\n      jump\t// out\n        /* \"#utility.yul\":5391:5517   */\n    tag_127:\n        /* \"#utility.yul\":5428:5435   */\n      0x00\n        /* \"#utility.yul\":5468:5510   */\n      0xffffffffffffffffffffffffffffffffffffffff\n        /* \"#utility.yul\":5461:5466   */\n      dup3\n        /* \"#utility.yul\":5457:5511   */\n      and\n        /* \"#utility.yul\":5446:5511   */\n      swap1\n      pop\n        /* \"#utility.yul\":5391:5517   */\n      swap2\n      swap1\n      pop\n      jump\t// out\n        /* \"#utility.yul\":5523:5609   */\n    tag_109:\n        /* \"#utility.yul\":5558:5565   */\n      0x00\n        /* \"#utility.yul\":5598:5602   */\n      0xff\n        /* \"#utility.yul\":5591:5596   */\n      dup3\n        /* \"#utility.yul\":5587:5603   */\n      and\n        /* \"#utility.yul\":5576:5603   */\n      swap1\n      pop\n        /* \"#utility.yul\":5523:5609   */\n      swap2\n      swap1\n      pop\n      jump\t// out\n        /* \"#utility.yul\":5615:5742   */\n    tag_101:\n        /* \"#utility.yul\":5671:5680   */\n      0x00\n        /* \"#utility.yul\":5704:5736   */\n      tag_138\n        /* \"#utility.yul\":5730:5735   */\n      dup3\n        /* \"#utility.yul\":5704:5736   */\n      tag_130\n      jump\t// in\n    tag_138:\n        /* \"#utility.yul\":5691:5736   */\n      swap1\n      pop\n        /* \"#utility.yul\":5615:5742   */\n      swap2\n      swap1\n      pop\n      jump\t// out\n        /* \"#utility.yul\":5748:5928   */\n    tag_40:\n        /* \"#utility.yul\":5796:5873   */\n      0x4e487b7100000000000000000000000000000000000000000000000000000000\n        /* \"#utility.yul\":5793:5794   */\n      0x00\n        /* \"#utility.yul\":5786:5874   */\n      mstore\n        /* \"#utility.yul\":5893:5897   */\n      0x21\n        /* \"#utility.yul\":5890:5891   */\n      0x04\n        /* \"#utility.yul\":5883:5898   */\n      mstore\n        /* \"#utility.yul\":5917:5921   */\n      0x24\n        /* \"#utility.yul\":5914:5915   */\n      0x00\n        /* \"#utility.yul\":5907:5922   */\n      revert\n        /* \"#utility.yul\":6057:6174   */\n    tag_70:\n        /* \"#utility.yul\":6166:6167   */\n      0x00\n        /* \"#utility.yul\":6163:6164   */\n      dup1\n        /* \"#utility.yul\":6156:6168   */\n      revert\n        /* \"#utility.yul\":6180:6293   */\n    tag_133:\n        /* \"#utility.yul\":6261:6262   */\n      0x04\n        /* \"#utility.yul\":6254:6259   */\n      dup2\n        /* \"#utility.yul\":6251:6263   */\n      lt\n        /* \"#utility.yul\":6241:6287   */\n      tag_144\n      jumpi\n        /* \"#utility.yul\":6267:6285   */\n      tag_145\n      tag_40\n      jump\t// in\n    tag_145:\n        /* \"#utility.yul\":6241:6287   */\n    tag_144:\n        /* \"#utility.yul\":6180:6293   */\n      pop\n      jump\t// out\n        /* \"#utility.yul\":6299:6421   */\n    tag_50:\n        /* \"#utility.yul\":6372:6396   */\n      tag_147\n        /* \"#utility.yul\":6390:6395   */\n      dup2\n        /* \"#utility.yul\":6372:6396   */\n      tag_89\n      jump\t// in\n    tag_147:\n        /* \"#utility.yul\":6365:6370   */\n      dup2\n        /* \"#utility.yul\":6362:6397   */\n      eq\n        /* \"#utility.yul\":6352:6415   */\n      tag_148\n      jumpi\n        /* \"#utility.yul\":6411:6412   */\n      0x00\n        /* \"#utility.yul\":6408:6409   */\n      dup1\n        /* \"#utility.yul\":6401:6413   */\n      revert\n        /* \"#utility.yul\":6352:6415   */\n    tag_148:\n        /* \"#utility.yul\":6299:6421   */\n      pop\n      jump\t// out\n        /* \"#utility.yul\":6427:6549   */\n    tag_54:\n        /* \"#utility.yul\":6500:6524   */\n      tag_150\n        /* \"#utility.yul\":6518:6523   */\n      dup2\n        /* \"#utility.yul\":6500:6524   */\n      tag_97\n      jump\t// in\n    tag_150:\n        /* \"#utility.yul\":6493:6498   */\n      dup2\n        /* \"#utility.yul\":6490:6525   */\n      eq\n        /* \"#utility.yul\":6480:6543   */\n      tag_151\n      jumpi\n        /* \"#utility.yul\":6539:6540   */\n      0x00\n        /* \"#utility.yul\":6536:6537   */\n      dup1\n        /* \"#utility.yul\":6529:6541   */\n      revert\n        /* \"#utility.yul\":6480:6543   */\n    tag_151:\n        /* \"#utility.yul\":6427:6549   */\n      pop\n      jump\t// out\n        /* \"#utility.yul\":6555:6662   */\n    tag_58:\n        /* \"#utility.yul\":6636:6637   */\n      0x04\n        /* \"#utility.yul\":6629:6634   */\n      dup2\n        /* \"#utility.yul\":6626:6638   */\n      lt\n        /* \"#utility.yul\":6616:6656   */\n      tag_153\n      jumpi\n        /* \"#utility.yul\":6652:6653   */\n      0x00\n        /* \"#utility.yul\":6649:6650   */\n      dup1\n        /* \"#utility.yul\":6642:6654   */\n      revert\n        /* \"#utility.yul\":6616:6656   */\n    tag_153:\n        /* \"#utility.yul\":6555:6662   */\n      pop\n      jump\t// out\n        /* \"#utility.yul\":6668:6788   */\n    tag_62:\n        /* \"#utility.yul\":6740:6763   */\n      tag_155\n        /* \"#utility.yul\":6757:6762   */\n      dup2\n        /* \"#utility.yul\":6740:6763   */\n      tag_105\n      jump\t// in\n    tag_155:\n        /* \"#utility.yul\":6733:6738   */\n      dup2\n        /* \"#utility.yul\":6730:6764   */\n      eq\n        /* \"#utility.yul\":6720:6782   */\n      tag_156\n      jumpi\n        /* \"#utility.yul\":6778:6779   */\n      0x00\n        /* \"#utility.yul\":6775:6776   */\n      dup1\n        /* \"#utility.yul\":6768:6780   */\n      revert\n        /* \"#utility.yul\":6720:6782   */\n    tag_156:\n        /* \"#utility.yul\":6668:6788   */\n      pop\n      jump\t// out\n        /* \"#utility.yul\":6794:6912   */\n    tag_66:\n        /* \"#utility.yul\":6865:6887   */\n      tag_158\n        /* \"#utility.yul\":6881:6886   */\n      dup2\n        /* \"#utility.yul\":6865:6887   */\n      tag_109\n      jump\t// in\n    tag_158:\n        /* \"#utility.yul\":6858:6863   */\n      dup2\n        /* \"#utility.yul\":6855:6888   */\n      eq\n        /* \"#utility.yul\":6845:6906   */\n      tag_159\n      jumpi\n        /* \"#utility.yul\":6902:6903   */\n      0x00\n        /* \"#utility.yul\":6899:6900   */\n      dup1\n        /* \"#utility.yul\":6892:6904   */\n      revert\n        /* \"#utility.yul\":6845:6906   */\n    tag_159:\n        /* \"#utility.yul\":6794:6912   */\n      pop\n      jump\t// out\n\n    auxdata: 0xa264697066735822122083bc574d13e551119f8e10d11c7bee7ead42fadd55ed924a126dd836a963c5bd64736f6c63430008070033\n}\n",
				"bytecode": {
					"linkReferences": {},
					"object": "608060405234801561001057600080fd5b506108e7806100206000396000f3fe608060405234801561001057600080fd5b50600436106100625760003560e01c80634395800914610067578063709e85ab146100835780639eaad92a146100b3578063b9730cde146100e8578063c689be0014610118578063f099556014610134575b600080fd5b610081600480360381019061007c91906105ed565b610166565b005b61009d6004803603810190610098919061056d565b6102d9565b6040516100aa91906106c2565b60405180910390f35b6100cd60048036038101906100c8919061056d565b610332565b6040516100df969594939291906106dd565b60405180910390f35b61010260048036038101906100fd919061056d565b6103b6565b60405161010f91906106c2565b60405180910390f35b610132600480360381019061012d919061059a565b61040e565b005b61014e6004803603810190610149919061056d565b6104c0565b60405161015d9392919061073e565b60405180910390f35b6040518060c001604052806001151581526020018673ffffffffffffffffffffffffffffffffffffffff1681526020018561ffff1681526020018460038111156101b3576101b26107fd565b5b815260200183815260200182815250600160008773ffffffffffffffffffffffffffffffffffffffff1673ffffffffffffffffffffffffffffffffffffffff16815260200190815260200160002060008201518160000160006101000a81548160ff02191690831515021790555060208201518160000160016101000a81548173ffffffffffffffffffffffffffffffffffffffff021916908373ffffffffffffffffffffffffffffffffffffffff16021790555060408201518160000160156101000a81548161ffff021916908361ffff16021790555060608201518160000160176101000a81548160ff021916908360038111156102b6576102b56107fd565b5b02179055506080820151816001015560a082015181600201559050505050505050565b6000600160008373ffffffffffffffffffffffffffffffffffffffff1673ffffffffffffffffffffffffffffffffffffffff16815260200190815260200160002060000160009054906101000a900460ff169050919050565b60016020528060005260406000206000915090508060000160009054906101000a900460ff16908060000160019054906101000a900473ffffffffffffffffffffffffffffffffffffffff16908060000160159054906101000a900461ffff16908060000160179054906101000a900460ff16908060010154908060020154905086565b60008060008373ffffffffffffffffffffffffffffffffffffffff1673ffffffffffffffffffffffffffffffffffffffff16815260200190815260200160002060000160009054906101000a900460ff169050919050565b60405180606001604052806001151581526020018381526020018260ff168152506000808573ffffffffffffffffffffffffffffffffffffffff1673ffffffffffffffffffffffffffffffffffffffff16815260200190815260200160002060008201518160000160006101000a81548160ff0219169083151502179055506020820151816001015560408201518160020160006101000a81548160ff021916908360ff160217905550905050505050565b60006020528060005260406000206000915090508060000160009054906101000a900460ff16908060010154908060020160009054906101000a900460ff16905083565b60008135905061051381610845565b92915050565b6000813590506105288161085c565b92915050565b60008135905061053d81610873565b92915050565b60008135905061055281610883565b92915050565b6000813590506105678161089a565b92915050565b6000602082840312156105835761058261082c565b5b600061059184828501610504565b91505092915050565b6000806000606084860312156105b3576105b261082c565b5b60006105c186828701610504565b93505060206105d286828701610519565b92505060406105e386828701610558565b9150509250925092565b600080600080600060a086880312156106095761060861082c565b5b600061061788828901610504565b955050602061062888828901610543565b94505060406106398882890161052e565b935050606061064a88828901610519565b925050608061065b88828901610519565b9150509295509295909350565b61067181610775565b82525050565b61068081610787565b82525050565b61068f81610793565b82525050565b61069e816107eb565b82525050565b6106ad816107b0565b82525050565b6106bc816107de565b82525050565b60006020820190506106d76000830184610677565b92915050565b600060c0820190506106f26000830189610677565b6106ff6020830188610668565b61070c60408301876106a4565b6107196060830186610695565b6107266080830185610686565b61073360a0830184610686565b979650505050505050565b60006060820190506107536000830186610677565b6107606020830185610686565b61076d60408301846106b3565b949350505050565b6000610780826107be565b9050919050565b60008115159050919050565b6000819050919050565b60008190506107ab82610831565b919050565b600061ffff82169050919050565b600073ffffffffffffffffffffffffffffffffffffffff82169050919050565b600060ff82169050919050565b60006107f68261079d565b9050919050565b7f4e487b7100000000000000000000000000000000000000000000000000000000600052602160045260246000fd5b600080fd5b60048110610842576108416107fd565b5b50565b61084e81610775565b811461085957600080fd5b50565b61086581610793565b811461087057600080fd5b50565b6004811061088057600080fd5b50565b61088c816107b0565b811461089757600080fd5b50565b6108a3816107de565b81146108ae57600080fd5b5056fea264697066735822122083bc574d13e551119f8e10d11c7bee7ead42fadd55ed924a126dd836a963c5bd64736f6c63430008070033",
					"opcodes": "PUSH1 0x80 PUSH1 0x40 MSTORE CALLVALUE DUP1 ISZERO PUSH2 0x10 JUMPI PUSH1 0x0 DUP1 REVERT JUMPDEST POP PUSH2 0x8E7 DUP1 PUSH2 0x20 PUSH1 0x0 CODECOPY PUSH1 0x0 RETURN INVALID PUSH1 0x80 PUSH1 0x40 MSTORE CALLVALUE DUP1 ISZERO PUSH2 0x10 JUMPI PUSH1 0x0 DUP1 REVERT JUMPDEST POP PUSH1 0x4 CALLDATASIZE LT PUSH2 0x62 JUMPI PUSH1 0x0 CALLDATALOAD PUSH1 0xE0 SHR DUP1 PUSH4 0x43958009 EQ PUSH2 0x67 JUMPI DUP1 PUSH4 0x709E85AB EQ PUSH2 0x83 JUMPI DUP1 PUSH4 0x9EAAD92A EQ PUSH2 0xB3 JUMPI DUP1 PUSH4 0xB9730CDE EQ PUSH2 0xE8 JUMPI DUP1 PUSH4 0xC689BE00 EQ PUSH2 0x118 JUMPI DUP1 PUSH4 0xF0995560 EQ PUSH2 0x134 JUMPI JUMPDEST PUSH1 0x0 DUP1 REVERT JUMPDEST PUSH2 0x81 PUSH1 0x4 DUP1 CALLDATASIZE SUB DUP2 ADD SWAP1 PUSH2 0x7C SWAP2 SWAP1 PUSH2 0x5ED JUMP JUMPDEST PUSH2 0x166 JUMP JUMPDEST STOP JUMPDEST PUSH2 0x9D PUSH1 0x4 DUP1 CALLDATASIZE SUB DUP2 ADD SWAP1 PUSH2 0x98 SWAP2 SWAP1 PUSH2 0x56D JUMP JUMPDEST PUSH2 0x2D9 JUMP JUMPDEST PUSH1 0x40 MLOAD PUSH2 0xAA SWAP2 SWAP1 PUSH2 0x6C2 JUMP JUMPDEST PUSH1 0x40 MLOAD DUP1 SWAP2 SUB SWAP1 RETURN JUMPDEST PUSH2 0xCD PUSH1 0x4 DUP1 CALLDATASIZE SUB DUP2 ADD SWAP1 PUSH2 0xC8 SWAP2 SWAP1 PUSH2 0x56D JUMP JUMPDEST PUSH2 0x332 JUMP JUMPDEST PUSH1 0x40 MLOAD PUSH2 0xDF SWAP7 SWAP6 SWAP5 SWAP4 SWAP3 SWAP2 SWAP1 PUSH2 0x6DD JUMP JUMPDEST PUSH1 0x40 MLOAD DUP1 SWAP2 SUB SWAP1 RETURN JUMPDEST PUSH2 0x102 PUSH1 0x4 DUP1 CALLDATASIZE SUB DUP2 ADD SWAP1 PUSH2 0xFD SWAP2 SWAP1 PUSH2 0x56D JUMP JUMPDEST PUSH2 0x3B6 JUMP JUMPDEST PUSH1 0x40 MLOAD PUSH2 0x10F SWAP2 SWAP1 PUSH2 0x6C2 JUMP JUMPDEST PUSH1 0x40 MLOAD DUP1 SWAP2 SUB SWAP1 RETURN JUMPDEST PUSH2 0x132 PUSH1 0x4 DUP1 CALLDATASIZE SUB DUP2 ADD SWAP1 PUSH2 0x12D SWAP2 SWAP1 PUSH2 0x59A JUMP JUMPDEST PUSH2 0x40E JUMP JUMPDEST STOP JUMPDEST PUSH2 0x14E PUSH1 0x4 DUP1 CALLDATASIZE SUB DUP2 ADD SWAP1 PUSH2 0x149 SWAP2 SWAP1 PUSH2 0x56D JUMP JUMPDEST PUSH2 0x4C0 JUMP JUMPDEST PUSH1 0x40 MLOAD PUSH2 0x15D SWAP4 SWAP3 SWAP2 SWAP1 PUSH2 0x73E JUMP JUMPDEST PUSH1 0x40 MLOAD DUP1 SWAP2 SUB SWAP1 RETURN JUMPDEST PUSH1 0x40 MLOAD DUP1 PUSH1 0xC0 ADD PUSH1 0x40 MSTORE DUP1 PUSH1 0x1 ISZERO ISZERO DUP2 MSTORE PUSH1 0x20 ADD DUP7 PUSH20 0xFFFFFFFFFFFFFFFFFFFFFFFFFFFFFFFFFFFFFFFF AND DUP2 MSTORE PUSH1 0x20 ADD DUP6 PUSH2 0xFFFF AND DUP2 MSTORE PUSH1 0x20 ADD DUP5 PUSH1 0x3 DUP2 GT ISZERO PUSH2 0x1B3 JUMPI PUSH2 0x1B2 PUSH2 0x7FD JUMP JUMPDEST JUMPDEST DUP2 MSTORE PUSH1 0x20 ADD DUP4 DUP2 MSTORE PUSH1 0x20 ADD DUP3 DUP2 MSTORE POP PUSH1 0x1 PUSH1 0x0 DUP8 PUSH20 0xFFFFFFFFFFFFFFFFFFFFFFFFFFFFFFFFFFFFFFFF AND PUSH20 0xFFFFFFFFFFFFFFFFFFFFFFFFFFFFFFFFFFFFFFFF AND DUP2 MSTORE PUSH1 0x20 ADD SWAP1 DUP2 MSTORE PUSH1 0x20 ADD PUSH1 0x0 KECCAK256 PUSH1 0x0 DUP3 ADD MLOAD DUP2 PUSH1 0x0 ADD PUSH1 0x0 PUSH2 0x100 EXP DUP2 SLOAD DUP2 PUSH1 0xFF MUL NOT AND SWAP1 DUP4 ISZERO ISZERO MUL OR SWAP1 SSTORE POP PUSH1 0x20 DUP3 ADD MLOAD DUP2 PUSH1 0x0 ADD PUSH1 0x1 PUSH2 0x100 EXP DUP2 SLOAD DUP2 PUSH20 0xFFFFFFFFFFFFFFFFFFFFFFFFFFFFFFFFFFFFFFFF MUL NOT AND SWAP1 DUP4 PUSH20 0xFFFFFFFFFFFFFFFFFFFFFFFFFFFFFFFFFFFFFFFF AND MUL OR SWAP1 SSTORE POP PUSH1 0x40 DUP3 ADD MLOAD DUP2 PUSH1 0x0 ADD PUSH1 0x15 PUSH2 0x100 EXP DUP2 SLOAD DUP2 PUSH2 0xFFFF MUL NOT AND SWAP1 DUP4 PUSH2 0xFFFF AND MUL OR SWAP1 SSTORE POP PUSH1 0x60 DUP3 ADD MLOAD DUP2 PUSH1 0x0 ADD PUSH1 0x17 PUSH2 0x100 EXP DUP2 SLOAD DUP2 PUSH1 0xFF MUL NOT AND SWAP1 DUP4 PUSH1 0x3 DUP2 GT ISZERO PUSH2 0x2B6 JUMPI PUSH2 0x2B5 PUSH2 0x7FD JUMP JUMPDEST JUMPDEST MUL OR SWAP1 SSTORE POP PUSH1 0x80 DUP3 ADD MLOAD DUP2 PUSH1 0x1 ADD SSTORE PUSH1 0xA0 DUP3 ADD MLOAD DUP2 PUSH1 0x2 ADD SSTORE SWAP1 POP POP POP POP POP POP POP JUMP JUMPDEST PUSH1 0x0 PUSH1 0x1 PUSH1 0x0 DUP4 PUSH20 0xFFFFFFFFFFFFFFFFFFFFFFFFFFFFFFFFFFFFFFFF AND PUSH20 0xFFFFFFFFFFFFFFFFFFFFFFFFFFFFFFFFFFFFFFFF AND DUP2 MSTORE PUSH1 0x20 ADD SWAP1 DUP2 MSTORE PUSH1 0x20 ADD PUSH1 0x0 KECCAK256 PUSH1 0x0 ADD PUSH1 0x0 SWAP1 SLOAD SWAP1 PUSH2 0x100 EXP SWAP1 DIV PUSH1 0xFF AND SWAP1 POP SWAP2 SWAP1 POP JUMP JUMPDEST PUSH1 0x1 PUSH1 0x20 MSTORE DUP1 PUSH1 0x0 MSTORE PUSH1 0x40 PUSH1 0x0 KECCAK256 PUSH1 0x0 SWAP2 POP SWAP1 POP DUP1 PUSH1 0x0 ADD PUSH1 0x0 SWAP1 SLOAD SWAP1 PUSH2 0x100 EXP SWAP1 DIV PUSH1 0xFF AND SWAP1 DUP1 PUSH1 0x0 ADD PUSH1 0x1 SWAP1 SLOAD SWAP1 PUSH2 0x100 EXP SWAP1 DIV PUSH20 0xFFFFFFFFFFFFFFFFFFFFFFFFFFFFFFFFFFFFFFFF AND SWAP1 DUP1 PUSH1 0x0 ADD PUSH1 0x15 SWAP1 SLOAD SWAP1 PUSH2 0x100 EXP SWAP1 DIV PUSH2 0xFFFF AND SWAP1 DUP1 PUSH1 0x0 ADD PUSH1 0x17 SWAP1 SLOAD SWAP1 PUSH2 0x100 EXP SWAP1 DIV PUSH1 0xFF AND SWAP1 DUP1 PUSH1 0x1 ADD SLOAD SWAP1 DUP1 PUSH1 0x2 ADD SLOAD SWAP1 POP DUP7 JUMP JUMPDEST PUSH1 0x0 DUP1 PUSH1 0x0 DUP4 PUSH20 0xFFFFFFFFFFFFFFFFFFFFFFFFFFFFFFFFFFFFFFFF AND PUSH20 0xFFFFFFFFFFFFFFFFFFFFFFFFFFFFFFFFFFFFFFFF AND DUP2 MSTORE PUSH1 0x20 ADD SWAP1 DUP2 MSTORE PUSH1 0x20 ADD PUSH1 0x0 KECCAK256 PUSH1 0x0 ADD PUSH1 0x0 SWAP1 SLOAD SWAP1 PUSH2 0x100 EXP SWAP1 DIV PUSH1 0xFF AND SWAP1 POP SWAP2 SWAP1 POP JUMP JUMPDEST PUSH1 0x40 MLOAD DUP1 PUSH1 0x60 ADD PUSH1 0x40 MSTORE DUP1 PUSH1 0x1 ISZERO ISZERO DUP2 MSTORE PUSH1 0x20 ADD DUP4 DUP2 MSTORE PUSH1 0x20 ADD DUP3 PUSH1 0xFF AND DUP2 MSTORE POP PUSH1 0x0 DUP1 DUP6 PUSH20 0xFFFFFFFFFFFFFFFFFFFFFFFFFFFFFFFFFFFFFFFF AND PUSH20 0xFFFFFFFFFFFFFFFFFFFFFFFFFFFFFFFFFFFFFFFF AND DUP2 MSTORE PUSH1 0x20 ADD SWAP1 DUP2 MSTORE PUSH1 0x20 ADD PUSH1 0x0 KECCAK256 PUSH1 0x0 DUP3 ADD MLOAD DUP2 PUSH1 0x0 ADD PUSH1 0x0 PUSH2 0x100 EXP DUP2 SLOAD DUP2 PUSH1 0xFF MUL NOT AND SWAP1 DUP4 ISZERO ISZERO MUL OR SWAP1 SSTORE POP PUSH1 0x20 DUP3 ADD MLOAD DUP2 PUSH1 0x1 ADD SSTORE PUSH1 0x40 DUP3 ADD MLOAD DUP2 PUSH1 0x2 ADD PUSH1 0x0 PUSH2 0x100 EXP DUP2 SLOAD DUP2 PUSH1 0xFF MUL NOT AND SWAP1 DUP4 PUSH1 0xFF AND MUL OR SWAP1 SSTORE POP SWAP1 POP POP POP POP POP JUMP JUMPDEST PUSH1 0x0 PUSH1 0x20 MSTORE DUP1 PUSH1 0x0 MSTORE PUSH1 0x40 PUSH1 0x0 KECCAK256 PUSH1 0x0 SWAP2 POP SWAP1 POP DUP1 PUSH1 0x0 ADD PUSH1 0x0 SWAP1 SLOAD SWAP1 PUSH2 0x100 EXP SWAP1 DIV PUSH1 0xFF AND SWAP1 DUP1 PUSH1 0x1 ADD SLOAD SWAP1 DUP1 PUSH1 0x2 ADD PUSH1 0x0 SWAP1 SLOAD SWAP1 PUSH2 0x100 EXP SWAP1 DIV PUSH1 0xFF AND SWAP1 POP DUP4 JUMP JUMPDEST PUSH1 0x0 DUP2 CALLDATALOAD SWAP1 POP PUSH2 0x513 DUP2 PUSH2 0x845 JUMP JUMPDEST SWAP3 SWAP2 POP POP JUMP JUMPDEST PUSH1 0x0 DUP2 CALLDATALOAD SWAP1 POP PUSH2 0x528 DUP2 PUSH2 0x85C JUMP JUMPDEST SWAP3 SWAP2 POP POP JUMP JUMPDEST PUSH1 0x0 DUP2 CALLDATALOAD SWAP1 POP PUSH2 0x53D DUP2 PUSH2 0x873 JUMP JUMPDEST SWAP3 SWAP2 POP POP JUMP JUMPDEST PUSH1 0x0 DUP2 CALLDATALOAD SWAP1 POP PUSH2 0x552 DUP2 PUSH2 0x883 JUMP JUMPDEST SWAP3 SWAP2 POP POP JUMP JUMPDEST PUSH1 0x0 DUP2 CALLDATALOAD SWAP1 POP PUSH2 0x567 DUP2 PUSH2 0x89A JUMP JUMPDEST SWAP3 SWAP2 POP POP JUMP JUMPDEST PUSH1 0x0 PUSH1 0x20 DUP3 DUP5 SUB SLT ISZERO PUSH2 0x583 JUMPI PUSH2 0x582 PUSH2 0x82C JUMP JUMPDEST JUMPDEST PUSH1 0x0 PUSH2 0x591 DUP5 DUP3 DUP6 ADD PUSH2 0x504 JUMP JUMPDEST SWAP2 POP POP SWAP3 SWAP2 POP POP JUMP JUMPDEST PUSH1 0x0 DUP1 PUSH1 0x0 PUSH1 0x60 DUP5 DUP7 SUB SLT ISZERO PUSH2 0x5B3 JUMPI PUSH2 0x5B2 PUSH2 0x82C JUMP JUMPDEST JUMPDEST PUSH1 0x0 PUSH2 0x5C1 DUP7 DUP3 DUP8 ADD PUSH2 0x504 JUMP JUMPDEST SWAP4 POP POP PUSH1 0x20 PUSH2 0x5D2 DUP7 DUP3 DUP8 ADD PUSH2 0x519 JUMP JUMPDEST SWAP3 POP POP PUSH1 0x40 PUSH2 0x5E3 DUP7 DUP3 DUP8 ADD PUSH2 0x558 JUMP JUMPDEST SWAP2 POP POP SWAP3 POP SWAP3 POP SWAP3 JUMP JUMPDEST PUSH1 0x0 DUP1 PUSH1 0x0 DUP1 PUSH1 0x0 PUSH1 0xA0 DUP7 DUP9 SUB SLT ISZERO PUSH2 0x609 JUMPI PUSH2 0x608 PUSH2 0x82C JUMP JUMPDEST JUMPDEST PUSH1 0x0 PUSH2 0x617 DUP9 DUP3 DUP10 ADD PUSH2 0x504 JUMP JUMPDEST SWAP6 POP POP PUSH1 0x20 PUSH2 0x628 DUP9 DUP3 DUP10 ADD PUSH2 0x543 JUMP JUMPDEST SWAP5 POP POP PUSH1 0x40 PUSH2 0x639 DUP9 DUP3 DUP10 ADD PUSH2 0x52E JUMP JUMPDEST SWAP4 POP POP PUSH1 0x60 PUSH2 0x64A DUP9 DUP3 DUP10 ADD PUSH2 0x519 JUMP JUMPDEST SWAP3 POP POP PUSH1 0x80 PUSH2 0x65B DUP9 DUP3 DUP10 ADD PUSH2 0x519 JUMP JUMPDEST SWAP2 POP POP SWAP3 SWAP6 POP SWAP3 SWAP6 SWAP1 SWAP4 POP JUMP JUMPDEST PUSH2 0x671 DUP2 PUSH2 0x775 JUMP JUMPDEST DUP3 MSTORE POP POP JUMP JUMPDEST PUSH2 0x680 DUP2 PUSH2 0x787 JUMP JUMPDEST DUP3 MSTORE POP POP JUMP JUMPDEST PUSH2 0x68F DUP2 PUSH2 0x793 JUMP JUMPDEST DUP3 MSTORE POP POP JUMP JUMPDEST PUSH2 0x69E DUP2 PUSH2 0x7EB JUMP JUMPDEST DUP3 MSTORE POP POP JUMP JUMPDEST PUSH2 0x6AD DUP2 PUSH2 0x7B0 JUMP JUMPDEST DUP3 MSTORE POP POP JUMP JUMPDEST PUSH2 0x6BC DUP2 PUSH2 0x7DE JUMP JUMPDEST DUP3 MSTORE POP POP JUMP JUMPDEST PUSH1 0x0 PUSH1 0x20 DUP3 ADD SWAP1 POP PUSH2 0x6D7 PUSH1 0x0 DUP4 ADD DUP5 PUSH2 0x677 JUMP JUMPDEST SWAP3 SWAP2 POP POP JUMP JUMPDEST PUSH1 0x0 PUSH1 0xC0 DUP3 ADD SWAP1 POP PUSH2 0x6F2 PUSH1 0x0 DUP4 ADD DUP10 PUSH2 0x677 JUMP JUMPDEST PUSH2 0x6FF PUSH1 0x20 DUP4 ADD DUP9 PUSH2 0x668 JUMP JUMPDEST PUSH2 0x70C PUSH1 0x40 DUP4 ADD DUP8 PUSH2 0x6A4 JUMP JUMPDEST PUSH2 0x719 PUSH1 0x60 DUP4 ADD DUP7 PUSH2 0x695 JUMP JUMPDEST PUSH2 0x726 PUSH1 0x80 DUP4 ADD DUP6 PUSH2 0x686 JUMP JUMPDEST PUSH2 0x733 PUSH1 0xA0 DUP4 ADD DUP5 PUSH2 0x686 JUMP JUMPDEST SWAP8 SWAP7 POP POP POP POP POP POP POP JUMP JUMPDEST PUSH1 0x0 PUSH1 0x60 DUP3 ADD SWAP1 POP PUSH2 0x753 PUSH1 0x0 DUP4 ADD DUP7 PUSH2 0x677 JUMP JUMPDEST PUSH2 0x760 PUSH1 0x20 DUP4 ADD DUP6 PUSH2 0x686 JUMP JUMPDEST PUSH2 0x76D PUSH1 0x40 DUP4 ADD DUP5 PUSH2 0x6B3 JUMP JUMPDEST SWAP5 SWAP4 POP POP POP POP JUMP JUMPDEST PUSH1 0x0 PUSH2 0x780 DUP3 PUSH2 0x7BE JUMP JUMPDEST SWAP1 POP SWAP2 SWAP1 POP JUMP JUMPDEST PUSH1 0x0 DUP2 ISZERO ISZERO SWAP1 POP SWAP2 SWAP1 POP JUMP JUMPDEST PUSH1 0x0 DUP2 SWAP1 POP SWAP2 SWAP1 POP JUMP JUMPDEST PUSH1 0x0 DUP2 SWAP1 POP PUSH2 0x7AB DUP3 PUSH2 0x831 JUMP JUMPDEST SWAP2 SWAP1 POP JUMP JUMPDEST PUSH1 0x0 PUSH2 0xFFFF DUP3 AND SWAP1 POP SWAP2 SWAP1 POP JUMP JUMPDEST PUSH1 0x0 PUSH20 0xFFFFFFFFFFFFFFFFFFFFFFFFFFFFFFFFFFFFFFFF DUP3 AND SWAP1 POP SWAP2 SWAP1 POP JUMP JUMPDEST PUSH1 0x0 PUSH1 0xFF DUP3 AND SWAP1 POP SWAP2 SWAP1 POP JUMP JUMPDEST PUSH1 0x0 PUSH2 0x7F6 DUP3 PUSH2 0x79D JUMP JUMPDEST SWAP1 POP SWAP2 SWAP1 POP JUMP JUMPDEST PUSH32 0x4E487B7100000000000000000000000000000000000000000000000000000000 PUSH1 0x0 MSTORE PUSH1 0x21 PUSH1 0x4 MSTORE PUSH1 0x24 PUSH1 0x0 REVERT JUMPDEST PUSH1 0x0 DUP1 REVERT JUMPDEST PUSH1 0x4 DUP2 LT PUSH2 0x842 JUMPI PUSH2 0x841 PUSH2 0x7FD JUMP JUMPDEST JUMPDEST POP JUMP JUMPDEST PUSH2 0x84E DUP2 PUSH2 0x775 JUMP JUMPDEST DUP2 EQ PUSH2 0x859 JUMPI PUSH1 0x0 DUP1 REVERT JUMPDEST POP JUMP JUMPDEST PUSH2 0x865 DUP2 PUSH2 0x793 JUMP JUMPDEST DUP2 EQ PUSH2 0x870 JUMPI PUSH1 0x0 DUP1 REVERT JUMPDEST POP JUMP JUMPDEST PUSH1 0x4 DUP2 LT PUSH2 0x880 JUMPI PUSH1 0x0 DUP1 REVERT JUMPDEST POP JUMP JUMPDEST PUSH2 0x88C DUP2 PUSH2 0x7B0 JUMP JUMPDEST DUP2 EQ PUSH2 0x897 JUMPI PUSH1 0x0 DUP1 REVERT JUMPDEST POP JUMP JUMPDEST PUSH2 0x8A3 DUP2 PUSH2 0x7DE JUMP JUMPDEST DUP2 EQ PUSH2 0x8AE JUMPI PUSH1 0x0 DUP1 REVERT JUMPDEST POP JUMP INVALID LOG2 PUSH5 0x6970667358 0x22 SLT KECCAK256 DUP4 0xBC JUMPI 0x4D SGT 0xE5 MLOAD GT SWAP16 DUP15 LT 0xD1 SHR PUSH28 0xEE7EAD42FADD55ED924A126DD836A963C5BD64736F6C634300080700 CALLER "
				},
				"gasEstimates": {
					"creation": {
						"codeDepositCost": "455800",
						"executionCost": "493",
						"totalCost": "456293"
					},
					"external": {
						"academicians(address)": "infinite",
						"addAcademician(address,uint16,uint8,bytes32,bytes32)": "infinite",
						"addUniversite(address,bytes32,uint8)": "71744",
						"isAcademician(address)": "2889",
						"isUniversity(address)": "2933",
						"universities(address)": "7424"
					}
				},
				"methodIdentifiers": {
					"academicians(address)": "9eaad92a",
					"addAcademician(address,uint16,uint8,bytes32,bytes32)": "43958009",
					"addUniversite(address,bytes32,uint8)": "c689be00",
					"isAcademician(address)": "709e85ab",
					"isUniversity(address)": "b9730cde",
					"universities(address)": "f0995560"
				}
			},
			"storageLayout": {
				"storage": [
					{
						"astId": 71,
						"contract": "contracts/EgitimBilgileri.sol:EgitimBilgileri",
						"label": "universities",
						"offset": 0,
						"slot": "0",
						"type": "t_mapping(t_address,t_struct(Universite)47_storage)"
					},
					{
						"astId": 76,
						"contract": "contracts/EgitimBilgileri.sol:EgitimBilgileri",
						"label": "academicians",
						"offset": 0,
						"slot": "1",
						"type": "t_mapping(t_address,t_struct(Akademisyen)61_storage)"
					}
				],
				"types": {
					"t_address": {
						"encoding": "inplace",
						"label": "address",
						"numberOfBytes": "20"
					},
					"t_bool": {
						"encoding": "inplace",
						"label": "bool",
						"numberOfBytes": "1"
					},
					"t_bytes32": {
						"encoding": "inplace",
						"label": "bytes32",
						"numberOfBytes": "32"
					},
					"t_enum(Unvan)66": {
						"encoding": "inplace",
						"label": "enum EgitimBilgileri.Unvan",
						"numberOfBytes": "1"
					},
					"t_mapping(t_address,t_struct(Akademisyen)61_storage)": {
						"encoding": "mapping",
						"key": "t_address",
						"label": "mapping(address => struct EgitimBilgileri.Akademisyen)",
						"numberOfBytes": "32",
						"value": "t_struct(Akademisyen)61_storage"
					},
					"t_mapping(t_address,t_struct(Universite)47_storage)": {
						"encoding": "mapping",
						"key": "t_address",
						"label": "mapping(address => struct EgitimBilgileri.Universite)",
						"numberOfBytes": "32",
						"value": "t_struct(Universite)47_storage"
					},
					"t_struct(Akademisyen)61_storage": {
						"encoding": "inplace",
						"label": "struct EgitimBilgileri.Akademisyen",
						"members": [
							{
								"astId": 49,
								"contract": "contracts/EgitimBilgileri.sol:EgitimBilgileri",
								"label": "durum",
								"offset": 0,
								"slot": "0",
								"type": "t_bool"
							},
							{
								"astId": 51,
								"contract": "contracts/EgitimBilgileri.sol:EgitimBilgileri",
								"label": "universite",
								"offset": 1,
								"slot": "0",
								"type": "t_address"
							},
							{
								"astId": 53,
								"contract": "contracts/EgitimBilgileri.sol:EgitimBilgileri",
								"label": "bolum",
								"offset": 21,
								"slot": "0",
								"type": "t_uint16"
							},
							{
								"astId": 56,
								"contract": "contracts/EgitimBilgileri.sol:EgitimBilgileri",
								"label": "unvan",
								"offset": 23,
								"slot": "0",
								"type": "t_enum(Unvan)66"
							},
							{
								"astId": 58,
								"contract": "contracts/EgitimBilgileri.sol:EgitimBilgileri",
								"label": "name",
								"offset": 0,
								"slot": "1",
								"type": "t_bytes32"
							},
							{
								"astId": 60,
								"contract": "contracts/EgitimBilgileri.sol:EgitimBilgileri",
								"label": "surname",
								"offset": 0,
								"slot": "2",
								"type": "t_bytes32"
							}
						],
						"numberOfBytes": "96"
					},
					"t_struct(Universite)47_storage": {
						"encoding": "inplace",
						"label": "struct EgitimBilgileri.Universite",
						"members": [
							{
								"astId": 42,
								"contract": "contracts/EgitimBilgileri.sol:EgitimBilgileri",
								"label": "durum",
								"offset": 0,
								"slot": "0",
								"type": "t_bool"
							},
							{
								"astId": 44,
								"contract": "contracts/EgitimBilgileri.sol:EgitimBilgileri",
								"label": "isim",
								"offset": 0,
								"slot": "1",
								"type": "t_bytes32"
							},
							{
								"astId": 46,
								"contract": "contracts/EgitimBilgileri.sol:EgitimBilgileri",
								"label": "ulke",
								"offset": 0,
								"slot": "2",
								"type": "t_uint8"
							}
						],
						"numberOfBytes": "96"
					},
					"t_uint16": {
						"encoding": "inplace",
						"label": "uint16",
						"numberOfBytes": "2"
					},
					"t_uint8": {
						"encoding": "inplace",
						"label": "uint8",
						"numberOfBytes": "1"
					}
				}
			},
			"userdoc": {
				"kind": "user",
				"methods": {},
				"version": 1
			}
		}
	}
}