{
	"data": {
		"bytecode": {
			"linkReferences": {},
			"object": "608060405234801561001057600080fd5b506158b280620000216000396000f3fe608060405234801561001057600080fd5b506004361061035c5760003560e01c8063a29879c0116101d3578063d5f6d56c11610104578063e8abb184116100a2578063f19818501161007c578063f198185014610b1c578063f54acc6514610b38578063f63c649f14610b54578063fd738e6d14610b705761035c565b8063e8abb18414610a8c578063f0040eb914610abc578063f140385114610aec5761035c565b8063d7909777116100de578063d7909777146109e0578063d88d8c1214610a10578063e24047ca14610a2c578063e513050814610a5c5761035c565b8063d5f6d56c14610976578063d71ed8b114610992578063d7396414146109b05761035c565b8063ba479b7e11610171578063cbc928091161014b578063cbc92809146108ee578063d0d6b7a31461091e578063d25aab851461093c578063d508602d146109585761035c565b8063ba479b7e14610881578063bd35a506146108b6578063c6da8cfe146108d25761035c565b8063afb61b1e116101ad578063afb61b1e146107e9578063b07b0e5a14610805578063b2a825bb14610835578063b98ccefd146108515761035c565b8063a29879c01461077e578063a4e7ae051461079c578063a81dc179146107cd5761035c565b806336fd2633116102ad5780637d0fa2871161024b57806391e9528a1161022557806391e9528a146106f85780639a8c9119146107145780639bfc4dbd146107465780639dc30114146107625761035c565b80637d0fa28714610678578063871db892146106aa5780638c848885146106c85761035c565b806350d2a0601161028757806350d2a060146105f2578063514e03c71461060e578063548fa6201461063e57806371af892d1461065a5761035c565b806336fd26331461058757806339987f94146105a357806346224853146105d65761035c565b806319023bf31161031a5780631f145f47116102f45780631f145f47146104c357806328266697146104f35780632d087d7014610525578063356b1f1e146105555761035c565b806319023bf3146104595780631916e139146104755780631d595580146104a75761035c565b80621d54ab14610361578063024eb6bc1461037d5780630a33e3eb146103ad5780630b877ca7146103dd578063139884ec1461040d578063150596f41461043d575b600080fd5b61037b600480360381019061037691906143c1565b610b8e565b005b6103976004803603810190610392919061427e565b610d4c565b6040516103a49190614daf565b60405180910390f35b6103c760048036038101906103c29190614430565b610da5565b6040516103d49190614cc8565b60405180910390f35b6103f760048036038101906103f29190614430565b610de4565b6040516104049190614cc8565b60405180910390f35b6104276004803603810190610422919061427e565b610e23565b6040516104349190614daf565b60405180910390f35b610457600480360381019061045291906143c1565b610e7d565b005b610473600480360381019061046e91906143c1565b610fd7565b005b61048f600480360381019061048a919061427e565b611195565b60405161049e93929190614e39565b60405180910390f35b6104c160048036038101906104bc919061427e565b611261565b005b6104dd60048036038101906104d89190614430565b61132e565b6040516104ea9190614cc8565b60405180910390f35b61050d6004803603810190610508919061427e565b61136d565b60405161051c93929190614e39565b60405180910390f35b61053f600480360381019061053a919061427e565b611439565b60405161054c9190614daf565b60405180910390f35b61056f600480360381019061056a919061427e565b611492565b60405161057e93929190614e39565b60405180910390f35b6105a1600480360381019061059c91906142ab565b61155e565b005b6105bd60048036038101906105b8919061427e565b611625565b6040516105cd9493929190614e77565b60405180910390f35b6105f060048036038101906105eb91906143c1565b6116f7565b005b61060c6004803603810190610607919061427e565b6118b5565b005b6106286004803603810190610623919061427e565b61197a565b6040516106359190614daf565b60405180910390f35b6106586004803603810190610653919061427e565b6119d3565b005b610662611a98565b60405161066f9190614cc8565b60405180910390f35b610692600480360381019061068d919061427e565b611abc565b6040516106a193929190614e39565b60405180910390f35b6106b2611b88565b6040516106bf9190614d8d565b60405180910390f35b6106e260048036038101906106dd919061427e565b611d90565b6040516106ef9190614daf565b60405180910390f35b610712600480360381019061070d91906143c1565b611de9565b005b61072e6004803603810190610729919061427e565b611f43565b60405161073d93929190614e39565b60405180910390f35b610760600480360381019061075b919061427e565b61200f565b005b61077c600480360381019061077791906143c1565b6120d4565b005b610786612292565b6040516107939190614d49565b60405180910390f35b6107b660048036038101906107b1919061445d565b61249a565b6040516107c49291906150a3565b60405180910390f35b6107e760048036038101906107e2919061433e565b612556565b005b61080360048036038101906107fe919061427e565b6126f8565b005b61081f600480360381019061081a9190614430565b6127bd565b60405161082c9190614cc8565b60405180910390f35b61084f600480360381019061084a91906143c1565b6127fc565b005b61086b6004803603810190610866919061427e565b612956565b6040516108789190614daf565b60405180910390f35b61089b6004803603810190610896919061427e565b6129af565b6040516108ad96959493929190614dca565b60405180910390f35b6108d060048036038101906108cb919061427e565b612b43565b005b6108ec60048036038101906108e791906143c1565b612be4565b005b6109086004803603810190610903919061427e565b612d3e565b6040516109159190614daf565b60405180910390f35b610926612d69565b6040516109339190614d27565b60405180910390f35b6109566004803603810190610951919061433e565b612f71565b005b610960613177565b60405161096d9190614ce3565b60405180910390f35b610990600480360381019061098b91906143c1565b613389565b005b61099a6134e3565b6040516109a79190614d05565b60405180910390f35b6109ca60048036038101906109c5919061427e565b61377b565b6040516109d79190614daf565b60405180910390f35b6109fa60048036038101906109f59190614430565b6137d3565b604051610a079190614cc8565b60405180910390f35b610a2a6004803603810190610a25919061427e565b613812565b005b610a466004803603810190610a41919061427e565b6138d7565b604051610a539190614daf565b60405180910390f35b610a766004803603810190610a71919061427e565b613930565b604051610a839190614daf565b60405180910390f35b610aa66004803603810190610aa19190614430565b61398a565b604051610ab39190614cc8565b60405180910390f35b610ad66004803603810190610ad1919061427e565b6139c9565b604051610ae39190614daf565b60405180910390f35b610b066004803603810190610b019190614430565b613a22565b604051610b139190614cc8565b60405180910390f35b610b366004803603810190610b3191906142fe565b613a61565b005b610b526004803603810190610b4d919061427e565b613b07565b005b610b6e6004803603810190610b6991906143c1565b613c11565b005b610b78613dcf565b604051610b859190614d6b565b60405180910390f35b610b97836139c9565b15610bd7576040517f08c379a0000000000000000000000000000000000000000000000000000000008152600401610bce90614fe3565b60405180910390fd5b6001600460008573ffffffffffffffffffffffffffffffffffffffff1673ffffffffffffffffffffffffffffffffffffffff16815260200190815260200160002060000160006101000a81548160ff02191690831515021790555081600460008573ffffffffffffffffffffffffffffffffffffffff1673ffffffffffffffffffffffffffffffffffffffff1681526020019081526020016000206001019080519060200190610c88929190613fd7565b5080600460008573ffffffffffffffffffffffffffffffffffffffff1673ffffffffffffffffffffffffffffffffffffffff16815260200190815260200160002060020160006101000a81548160ff021916908360ff160217905550600d839080600181540180825580915050600190039060005260206000200160009091909190916101000a81548173ffffffffffffffffffffffffffffffffffffffff021916908373ffffffffffffffffffffffffffffffffffffffff160217905550505050565b6000600760008373ffffffffffffffffffffffffffffffffffffffff1673ffffffffffffffffffffffffffffffffffffffff16815260200190815260200160002060000160009054906101000a900460ff169050919050565b60108181548110610db557600080fd5b906000526020600020016000915054906101000a900473ffffffffffffffffffffffffffffffffffffffff1681565b60128181548110610df457600080fd5b906000526020600020016000915054906101000a900473ffffffffffffffffffffffffffffffffffffffff1681565b60008173ffffffffffffffffffffffffffffffffffffffff16600160009054906101000a900473ffffffffffffffffffffffffffffffffffffffff1673ffffffffffffffffffffffffffffffffffffffff16149050919050565b610e868361197a565b610ec5576040517f08c379a0000000000000000000000000000000000000000000000000000000008152600401610ebc90615043565b60405180910390fd5b6001600860008573ffffffffffffffffffffffffffffffffffffffff1673ffffffffffffffffffffffffffffffffffffffff16815260200190815260200160002060000160006101000a81548160ff02191690831515021790555081600860008573ffffffffffffffffffffffffffffffffffffffff1673ffffffffffffffffffffffffffffffffffffffff1681526020019081526020016000206001019080519060200190610f76929190613fd7565b5080600860008573ffffffffffffffffffffffffffffffffffffffff1673ffffffffffffffffffffffffffffffffffffffff16815260200190815260200160002060020160006101000a81548160ff021916908360ff160217905550505050565b610fe083611d90565b15611020576040517f08c379a000000000000000000000000000000000000000000000000000000000815260040161101790614fc3565b60405180910390fd5b6001600960008573ffffffffffffffffffffffffffffffffffffffff1673ffffffffffffffffffffffffffffffffffffffff16815260200190815260200160002060000160006101000a81548160ff02191690831515021790555081600960008573ffffffffffffffffffffffffffffffffffffffff1673ffffffffffffffffffffffffffffffffffffffff16815260200190815260200160002060010190805190602001906110d1929190613fd7565b5080600960008573ffffffffffffffffffffffffffffffffffffffff1673ffffffffffffffffffffffffffffffffffffffff16815260200190815260200160002060020160006101000a81548160ff021916908360ff1602179055506011839080600181540180825580915050600190039060005260206000200160009091909190916101000a81548173ffffffffffffffffffffffffffffffffffffffff021916908373ffffffffffffffffffffffffffffffffffffffff160217905550505050565b60076020528060005260406000206000915090508060000160009054906101000a900460ff16908060010180546111cb90615386565b80601f01602080910402602001604051908101604052809291908181526020018280546111f790615386565b80156112445780601f1061121957610100808354040283529160200191611244565b820191906000526020600020905b81548152906001019060200180831161122757829003601f168201915b5050505050908060020160009054906101000a900460ff16905083565b61126a81611439565b6112a9576040517f08c379a00000000000000000000000000000000000000000000000000000000081526004016112a090615063565b60405180910390fd5b600660008273ffffffffffffffffffffffffffffffffffffffff1673ffffffffffffffffffffffffffffffffffffffff168152602001908152602001600020600080820160006101000a81549060ff02191690556000820160016101000a81549060ff02191690556001820160009055600282016000611329919061405d565b505050565b600d818154811061133e57600080fd5b906000526020600020016000915054906101000a900473ffffffffffffffffffffffffffffffffffffffff1681565b60046020528060005260406000206000915090508060000160009054906101000a900460ff16908060010180546113a390615386565b80601f01602080910402602001604051908101604052809291908181526020018280546113cf90615386565b801561141c5780601f106113f15761010080835404028352916020019161141c565b820191906000526020600020905b8154815290600101906020018083116113ff57829003601f168201915b5050505050908060020160009054906101000a900460ff16905083565b6000600660008373ffffffffffffffffffffffffffffffffffffffff1673ffffffffffffffffffffffffffffffffffffffff16815260200190815260200160002060000160009054906101000a900460ff169050919050565b600a6020528060005260406000206000915090508060000160009054906101000a900460ff16908060010180546114c890615386565b80601f01602080910402602001604051908101604052809291908181526020018280546114f490615386565b80156115415780601f1061151657610100808354040283529160200191611541565b820191906000526020600020905b81548152906001019060200180831161152457829003601f168201915b5050505050908060020160009054906101000a900460ff16905083565b826000806101000a81548173ffffffffffffffffffffffffffffffffffffffff021916908373ffffffffffffffffffffffffffffffffffffffff16021790555081600160006101000a81548173ffffffffffffffffffffffffffffffffffffffff021916908373ffffffffffffffffffffffffffffffffffffffff16021790555080600260006101000a81548173ffffffffffffffffffffffffffffffffffffffff021916908373ffffffffffffffffffffffffffffffffffffffff160217905550505050565b60066020528060005260406000206000915090508060000160009054906101000a900460ff16908060000160019054906101000a900460ff169080600101549080600201805461167490615386565b80601f01602080910402602001604051908101604052809291908181526020018280546116a090615386565b80156116ed5780601f106116c2576101008083540402835291602001916116ed565b820191906000526020600020905b8154815290600101906020018083116116d057829003601f168201915b5050505050905084565b61170083610d4c565b15611740576040517f08c379a000000000000000000000000000000000000000000000000000000000815260040161173790614ec3565b60405180910390fd5b6001600760008573ffffffffffffffffffffffffffffffffffffffff1673ffffffffffffffffffffffffffffffffffffffff16815260200190815260200160002060000160006101000a81548160ff02191690831515021790555081600760008573ffffffffffffffffffffffffffffffffffffffff1673ffffffffffffffffffffffffffffffffffffffff16815260200190815260200160002060010190805190602001906117f1929190613fd7565b5080600760008573ffffffffffffffffffffffffffffffffffffffff1673ffffffffffffffffffffffffffffffffffffffff16815260200190815260200160002060020160006101000a81548160ff021916908360ff160217905550600f839080600181540180825580915050600190039060005260206000200160009091909190916101000a81548173ffffffffffffffffffffffffffffffffffffffff021916908373ffffffffffffffffffffffffffffffffffffffff160217905550505050565b6118be8161197a565b6118fd576040517f08c379a00000000000000000000000000000000000000000000000000000000081526004016118f490615043565b60405180910390fd5b600860008273ffffffffffffffffffffffffffffffffffffffff1673ffffffffffffffffffffffffffffffffffffffff168152602001908152602001600020600080820160006101000a81549060ff0219169055600182016000611961919061405d565b6002820160006101000a81549060ff0219169055505050565b6000600860008373ffffffffffffffffffffffffffffffffffffffff1673ffffffffffffffffffffffffffffffffffffffff16815260200190815260200160002060000160009054906101000a900460ff169050919050565b6119dc816138d7565b611a1b576040517f08c379a0000000000000000000000000000000000000000000000000000000008152600401611a1290615003565b60405180910390fd5b600a60008273ffffffffffffffffffffffffffffffffffffffff1673ffffffffffffffffffffffffffffffffffffffff168152602001908152602001600020600080820160006101000a81549060ff0219169055600182016000611a7f919061405d565b6002820160006101000a81549060ff0219169055505050565b60008054906101000a900473ffffffffffffffffffffffffffffffffffffffff1681565b60086020528060005260406000206000915090508060000160009054906101000a900460ff1690806001018054611af290615386565b80601f0160208091040260200160405190810160405280929190818152602001828054611b1e90615386565b8015611b6b5780601f10611b4057610100808354040283529160200191611b6b565b820191906000526020600020905b815481529060010190602001808311611b4e57829003601f168201915b5050505050908060020160009054906101000a900460ff16905083565b60606000600d8054905067ffffffffffffffff811115611bab57611baa6154ee565b5b604051908082528060200260200182016040528015611be457816020015b611bd161409d565b815260200190600190039081611bc95790505b5090506000805b600d80549050811015611d875760046000600d8381548110611c1057611c0f6154bf565b5b9060005260206000200160009054906101000a900473ffffffffffffffffffffffffffffffffffffffff1673ffffffffffffffffffffffffffffffffffffffff1673ffffffffffffffffffffffffffffffffffffffff1681526020019081526020016000206040518060600160405290816000820160009054906101000a900460ff16151515158152602001600182018054611cab90615386565b80601f0160208091040260200160405190810160405280929190818152602001828054611cd790615386565b8015611d245780601f10611cf957610100808354040283529160200191611d24565b820191906000526020600020905b815481529060010190602001808311611d0757829003601f168201915b505050505081526020016002820160009054906101000a900460ff1660ff1660ff1681525050838380611d56906153e9565b945081518110611d6957611d686154bf565b5b60200260200101819052508080611d7f906153e9565b915050611beb565b50819250505090565b6000600960008373ffffffffffffffffffffffffffffffffffffffff1673ffffffffffffffffffffffffffffffffffffffff16815260200190815260200160002060000160009054906101000a900460ff169050919050565b611df283611d90565b611e31576040517f08c379a0000000000000000000000000000000000000000000000000000000008152600401611e2890614fa3565b60405180910390fd5b6001600960008573ffffffffffffffffffffffffffffffffffffffff1673ffffffffffffffffffffffffffffffffffffffff16815260200190815260200160002060000160006101000a81548160ff02191690831515021790555081600960008573ffffffffffffffffffffffffffffffffffffffff1673ffffffffffffffffffffffffffffffffffffffff1681526020019081526020016000206001019080519060200190611ee2929190613fd7565b5080600960008573ffffffffffffffffffffffffffffffffffffffff1673ffffffffffffffffffffffffffffffffffffffff16815260200190815260200160002060020160006101000a81548160ff021916908360ff160217905550505050565b60096020528060005260406000206000915090508060000160009054906101000a900460ff1690806001018054611f7990615386565b80601f0160208091040260200160405190810160405280929190818152602001828054611fa590615386565b8015611ff25780601f10611fc757610100808354040283529160200191611ff2565b820191906000526020600020905b815481529060010190602001808311611fd557829003601f168201915b5050505050908060020160009054906101000a900460ff16905083565b612018816139c9565b612057576040517f08c379a000000000000000000000000000000000000000000000000000000000815260040161204e90614fe3565b60405180910390fd5b600460008273ffffffffffffffffffffffffffffffffffffffff1673ffffffffffffffffffffffffffffffffffffffff168152602001908152602001600020600080820160006101000a81549060ff02191690556001820160006120bb919061405d565b6002820160006101000a81549060ff0219169055505050565b6120dd836138d7565b1561211d576040517f08c379a000000000000000000000000000000000000000000000000000000000815260040161211490614f83565b60405180910390fd5b6001600a60008573ffffffffffffffffffffffffffffffffffffffff1673ffffffffffffffffffffffffffffffffffffffff16815260200190815260200160002060000160006101000a81548160ff02191690831515021790555081600a60008573ffffffffffffffffffffffffffffffffffffffff1673ffffffffffffffffffffffffffffffffffffffff16815260200190815260200160002060010190805190602001906121ce929190613fd7565b5080600a60008573ffffffffffffffffffffffffffffffffffffffff1673ffffffffffffffffffffffffffffffffffffffff16815260200190815260200160002060020160006101000a81548160ff021916908360ff1602179055506012839080600181540180825580915050600190039060005260206000200160009091909190916101000a81548173ffffffffffffffffffffffffffffffffffffffff021916908373ffffffffffffffffffffffffffffffffffffffff160217905550505050565b6060600060118054905067ffffffffffffffff8111156122b5576122b46154ee565b5b6040519080825280602002602001820160405280156122ee57816020015b6122db6140c3565b8152602001906001900390816122d35790505b5090506000805b60118054905081101561249157600960006011838154811061231a576123196154bf565b5b9060005260206000200160009054906101000a900473ffffffffffffffffffffffffffffffffffffffff1673ffffffffffffffffffffffffffffffffffffffff1673ffffffffffffffffffffffffffffffffffffffff1681526020019081526020016000206040518060600160405290816000820160009054906101000a900460ff161515151581526020016001820180546123b590615386565b80601f01602080910402602001604051908101604052809291908181526020018280546123e190615386565b801561242e5780601f106124035761010080835404028352916020019161242e565b820191906000526020600020905b81548152906001019060200180831161241157829003601f168201915b505050505081526020016002820160009054906101000a900460ff1660ff1660ff1681525050838380612460906153e9565b945081518110612473576124726154bf565b5b60200260200101819052508080612489906153e9565b9150506122f5565b50819250505090565b600b6020528060005260406000206000915090508060000160009054906101000a900463ffffffff16908060010180546124d390615386565b80601f01602080910402602001604051908101604052809291908181526020018280546124ff90615386565b801561254c5780601f106125215761010080835404028352916020019161254c565b820191906000526020600020905b81548152906001019060200180831161252f57829003601f168201915b5050505050905082565b61255f84611439565b61259e576040517f08c379a000000000000000000000000000000000000000000000000000000000815260040161259590615063565b60405180910390fd5b6001600660008673ffffffffffffffffffffffffffffffffffffffff1673ffffffffffffffffffffffffffffffffffffffff16815260200190815260200160002060000160006101000a81548160ff02191690831515021790555082600660008673ffffffffffffffffffffffffffffffffffffffff1673ffffffffffffffffffffffffffffffffffffffff168152602001908152602001600020600201908051906020019061264f929190613fd7565b5080600660008673ffffffffffffffffffffffffffffffffffffffff1673ffffffffffffffffffffffffffffffffffffffff16815260200190815260200160002060000160016101000a81548160ff021916908360ff16021790555081600660008673ffffffffffffffffffffffffffffffffffffffff1673ffffffffffffffffffffffffffffffffffffffff1681526020019081526020016000206001018190555050505050565b61270181610d4c565b612740576040517f08c379a000000000000000000000000000000000000000000000000000000000815260040161273790615083565b60405180910390fd5b600760008273ffffffffffffffffffffffffffffffffffffffff1673ffffffffffffffffffffffffffffffffffffffff168152602001908152602001600020600080820160006101000a81549060ff02191690556001820160006127a4919061405d565b6002820160006101000a81549060ff0219169055505050565b600e81815481106127cd57600080fd5b906000526020600020016000915054906101000a900473ffffffffffffffffffffffffffffffffffffffff1681565b612805836138d7565b612844576040517f08c379a000000000000000000000000000000000000000000000000000000000815260040161283b90615003565b60405180910390fd5b6001600a60008573ffffffffffffffffffffffffffffffffffffffff1673ffffffffffffffffffffffffffffffffffffffff16815260200190815260200160002060000160006101000a81548160ff02191690831515021790555081600a60008573ffffffffffffffffffffffffffffffffffffffff1673ffffffffffffffffffffffffffffffffffffffff16815260200190815260200160002060010190805190602001906128f5929190613fd7565b5080600a60008573ffffffffffffffffffffffffffffffffffffffff1673ffffffffffffffffffffffffffffffffffffffff16815260200190815260200160002060020160006101000a81548160ff021916908360ff160217905550505050565b6000600360008373ffffffffffffffffffffffffffffffffffffffff1673ffffffffffffffffffffffffffffffffffffffff16815260200190815260200160002060000160009054906101000a900460ff169050919050565b60056020528060005260406000206000915090508060000160009054906101000a900460ff16908060000160019054906101000a900473ffffffffffffffffffffffffffffffffffffffff16908060000160159054906101000a900461ffff16908060000160179054906101000a900460ff1690806001018054612a3290615386565b80601f0160208091040260200160405190810160405280929190818152602001828054612a5e90615386565b8015612aab5780601f10612a8057610100808354040283529160200191612aab565b820191906000526020600020905b815481529060010190602001808311612a8e57829003601f168201915b505050505090806002018054612ac090615386565b80601f0160208091040260200160405190810160405280929190818152602001828054612aec90615386565b8015612b395780601f10612b0e57610100808354040283529160200191612b39565b820191906000526020600020905b815481529060010190602001808311612b1c57829003601f168201915b5050505050905086565b612b4c81612956565b612b8b576040517f08c379a0000000000000000000000000000000000000000000000000000000008152600401612b8290614f03565b60405180910390fd5b600360008273ffffffffffffffffffffffffffffffffffffffff1673ffffffffffffffffffffffffffffffffffffffff168152602001908152602001600020600080820160006101000a81549060ff0219169055505050565b612bed836139c9565b612c2c576040517f08c379a0000000000000000000000000000000000000000000000000000000008152600401612c2390614ee3565b60405180910390fd5b6001600460008573ffffffffffffffffffffffffffffffffffffffff1673ffffffffffffffffffffffffffffffffffffffff16815260200190815260200160002060000160006101000a81548160ff02191690831515021790555081600460008573ffffffffffffffffffffffffffffffffffffffff1673ffffffffffffffffffffffffffffffffffffffff1681526020019081526020016000206001019080519060200190612cdd929190613fd7565b5080600460008573ffffffffffffffffffffffffffffffffffffffff1673ffffffffffffffffffffffffffffffffffffffff16815260200190815260200160002060020160006101000a81548160ff021916908360ff160217905550505050565b60036020528060005260406000206000915090508060000160009054906101000a900460ff16905081565b60606000600f8054905067ffffffffffffffff811115612d8c57612d8b6154ee565b5b604051908082528060200260200182016040528015612dc557816020015b612db26140e9565b815260200190600190039081612daa5790505b5090506000805b600f80549050811015612f685760076000600f8381548110612df157612df06154bf565b5b9060005260206000200160009054906101000a900473ffffffffffffffffffffffffffffffffffffffff1673ffffffffffffffffffffffffffffffffffffffff1673ffffffffffffffffffffffffffffffffffffffff1681526020019081526020016000206040518060600160405290816000820160009054906101000a900460ff16151515158152602001600182018054612e8c90615386565b80601f0160208091040260200160405190810160405280929190818152602001828054612eb890615386565b8015612f055780601f10612eda57610100808354040283529160200191612f05565b820191906000526020600020905b815481529060010190602001808311612ee857829003601f168201915b505050505081526020016002820160009054906101000a900460ff1660ff1660ff1681525050838380612f37906153e9565b945081518110612f4a57612f496154bf565b5b60200260200101819052508080612f60906153e9565b915050612dcc565b50819250505090565b612f7a84611439565b15612fba576040517f08c379a0000000000000000000000000000000000000000000000000000000008152600401612fb190614f43565b60405180910390fd5b6001600660008673ffffffffffffffffffffffffffffffffffffffff1673ffffffffffffffffffffffffffffffffffffffff16815260200190815260200160002060000160006101000a81548160ff02191690831515021790555082600660008673ffffffffffffffffffffffffffffffffffffffff1673ffffffffffffffffffffffffffffffffffffffff168152602001908152602001600020600201908051906020019061306b929190613fd7565b5080600660008673ffffffffffffffffffffffffffffffffffffffff1673ffffffffffffffffffffffffffffffffffffffff16815260200190815260200160002060000160016101000a81548160ff021916908360ff16021790555081600660008673ffffffffffffffffffffffffffffffffffffffff1673ffffffffffffffffffffffffffffffffffffffff16815260200190815260200160002060010181905550600e849080600181540180825580915050600190039060005260206000200160009091909190916101000a81548173ffffffffffffffffffffffffffffffffffffffff021916908373ffffffffffffffffffffffffffffffffffffffff16021790555050505050565b60606000600e8054905067ffffffffffffffff81111561319a576131996154ee565b5b6040519080825280602002602001820160405280156131d357816020015b6131c061410f565b8152602001906001900390816131b85790505b5090506000805b600e805490508110156133805760066000600e83815481106131ff576131fe6154bf565b5b9060005260206000200160009054906101000a900473ffffffffffffffffffffffffffffffffffffffff1673ffffffffffffffffffffffffffffffffffffffff1673ffffffffffffffffffffffffffffffffffffffff1681526020019081526020016000206040518060800160405290816000820160009054906101000a900460ff161515151581526020016000820160019054906101000a900460ff1660ff1660ff168152602001600182015481526020016002820180546132c190615386565b80601f01602080910402602001604051908101604052809291908181526020018280546132ed90615386565b801561333a5780601f1061330f5761010080835404028352916020019161333a565b820191906000526020600020905b81548152906001019060200180831161331d57829003601f168201915b50505050508152505083838061334f906153e9565b945081518110613362576133616154bf565b5b60200260200101819052508080613378906153e9565b9150506131da565b50819250505090565b61339283610d4c565b6133d1576040517f08c379a00000000000000000000000000000000000000000000000000000000081526004016133c890615083565b60405180910390fd5b6001600760008573ffffffffffffffffffffffffffffffffffffffff1673ffffffffffffffffffffffffffffffffffffffff16815260200190815260200160002060000160006101000a81548160ff02191690831515021790555081600760008573ffffffffffffffffffffffffffffffffffffffff1673ffffffffffffffffffffffffffffffffffffffff1681526020019081526020016000206001019080519060200190613482929190613fd7565b5080600760008573ffffffffffffffffffffffffffffffffffffffff1673ffffffffffffffffffffffffffffffffffffffff16815260200190815260200160002060020160006101000a81548160ff021916908360ff160217905550505050565b6060600260009054906101000a900473ffffffffffffffffffffffffffffffffffffffff1673ffffffffffffffffffffffffffffffffffffffff163373ffffffffffffffffffffffffffffffffffffffff1614613575576040517f08c379a000000000000000000000000000000000000000000000000000000000815260040161356c90614f63565b60405180910390fd5b600060108054905067ffffffffffffffff811115613596576135956154ee565b5b6040519080825280602002602001820160405280156135cf57816020015b6135bc61413c565b8152602001906001900390816135b45790505b5090506000805b6010805490508110156137725760086000601083815481106135fb576135fa6154bf565b5b9060005260206000200160009054906101000a900473ffffffffffffffffffffffffffffffffffffffff1673ffffffffffffffffffffffffffffffffffffffff1673ffffffffffffffffffffffffffffffffffffffff1681526020019081526020016000206040518060600160405290816000820160009054906101000a900460ff1615151515815260200160018201805461369690615386565b80601f01602080910402602001604051908101604052809291908181526020018280546136c290615386565b801561370f5780601f106136e45761010080835404028352916020019161370f565b820191906000526020600020905b8154815290600101906020018083116136f257829003601f168201915b505050505081526020016002820160009054906101000a900460ff1660ff1660ff1681525050838380613741906153e9565b945081518110613754576137536154bf565b5b6020026020010181905250808061376a906153e9565b9150506135d6565b50819250505090565b60008173ffffffffffffffffffffffffffffffffffffffff1660008054906101000a900473ffffffffffffffffffffffffffffffffffffffff1673ffffffffffffffffffffffffffffffffffffffff16149050919050565b601181815481106137e357600080fd5b906000526020600020016000915054906101000a900473ffffffffffffffffffffffffffffffffffffffff1681565b61381b81611d90565b61385a576040517f08c379a000000000000000000000000000000000000000000000000000000000815260040161385190614fa3565b60405180910390fd5b600960008273ffffffffffffffffffffffffffffffffffffffff1673ffffffffffffffffffffffffffffffffffffffff168152602001908152602001600020600080820160006101000a81549060ff02191690556001820160006138be919061405d565b6002820160006101000a81549060ff0219169055505050565b6000600a60008373ffffffffffffffffffffffffffffffffffffffff1673ffffffffffffffffffffffffffffffffffffffff16815260200190815260200160002060000160009054906101000a900460ff169050919050565b60008173ffffffffffffffffffffffffffffffffffffffff16600260009054906101000a900473ffffffffffffffffffffffffffffffffffffffff1673ffffffffffffffffffffffffffffffffffffffff16149050919050565b600f818154811061399a57600080fd5b906000526020600020016000915054906101000a900473ffffffffffffffffffffffffffffffffffffffff1681565b6000600460008373ffffffffffffffffffffffffffffffffffffffff1673ffffffffffffffffffffffffffffffffffffffff16815260200190815260200160002060000160009054906101000a900460ff169050919050565b600c8181548110613a3257600080fd5b906000526020600020016000915054906101000a900473ffffffffffffffffffffffffffffffffffffffff1681565b613a6a82612956565b613aa9576040517f08c379a0000000000000000000000000000000000000000000000000000000008152600401613aa090614f03565b60405180910390fd5b80600360008473ffffffffffffffffffffffffffffffffffffffff1673ffffffffffffffffffffffffffffffffffffffff16815260200190815260200160002060000160006101000a81548160ff0219169083151502179055505050565b613b1081612956565b15613b50576040517f08c379a0000000000000000000000000000000000000000000000000000000008152600401613b4790615023565b60405180910390fd5b6001600360008373ffffffffffffffffffffffffffffffffffffffff1673ffffffffffffffffffffffffffffffffffffffff16815260200190815260200160002060000160006101000a81548160ff021916908315150217905550600c819080600181540180825580915050600190039060005260206000200160009091909190916101000a81548173ffffffffffffffffffffffffffffffffffffffff021916908373ffffffffffffffffffffffffffffffffffffffff16021790555050565b613c1a8361197a565b15613c5a576040517f08c379a0000000000000000000000000000000000000000000000000000000008152600401613c5190614f23565b60405180910390fd5b6001600860008573ffffffffffffffffffffffffffffffffffffffff1673ffffffffffffffffffffffffffffffffffffffff16815260200190815260200160002060000160006101000a81548160ff02191690831515021790555081600860008573ffffffffffffffffffffffffffffffffffffffff1673ffffffffffffffffffffffffffffffffffffffff1681526020019081526020016000206001019080519060200190613d0b929190613fd7565b5080600860008573ffffffffffffffffffffffffffffffffffffffff1673ffffffffffffffffffffffffffffffffffffffff16815260200190815260200160002060020160006101000a81548160ff021916908360ff1602179055506010839080600181540180825580915050600190039060005260206000200160009091909190916101000a81548173ffffffffffffffffffffffffffffffffffffffff021916908373ffffffffffffffffffffffffffffffffffffffff160217905550505050565b6060600060128054905067ffffffffffffffff811115613df257613df16154ee565b5b604051908082528060200260200182016040528015613e2b57816020015b613e18614162565b815260200190600190039081613e105790505b5090506000805b601280549050811015613fce57600a600060128381548110613e5757613e566154bf565b5b9060005260206000200160009054906101000a900473ffffffffffffffffffffffffffffffffffffffff1673ffffffffffffffffffffffffffffffffffffffff1673ffffffffffffffffffffffffffffffffffffffff1681526020019081526020016000206040518060600160405290816000820160009054906101000a900460ff16151515158152602001600182018054613ef290615386565b80601f0160208091040260200160405190810160405280929190818152602001828054613f1e90615386565b8015613f6b5780601f10613f4057610100808354040283529160200191613f6b565b820191906000526020600020905b815481529060010190602001808311613f4e57829003601f168201915b505050505081526020016002820160009054906101000a900460ff1660ff1660ff1681525050838380613f9d906153e9565b945081518110613fb057613faf6154bf565b5b60200260200101819052508080613fc6906153e9565b915050613e32565b50819250505090565b828054613fe390615386565b90600052602060002090601f016020900481019282614005576000855561404c565b82601f1061401e57805160ff191683800117855561404c565b8280016001018555821561404c579182015b8281111561404b578251825591602001919060010190614030565b5b5090506140599190614188565b5090565b50805461406990615386565b6000825580601f1061407b575061409a565b601f0160209004906000526020600020908101906140999190614188565b5b50565b604051806060016040528060001515815260200160608152602001600060ff1681525090565b604051806060016040528060001515815260200160608152602001600060ff1681525090565b604051806060016040528060001515815260200160608152602001600060ff1681525090565b6040518060800160405280600015158152602001600060ff16815260200160008152602001606081525090565b604051806060016040528060001515815260200160608152602001600060ff1681525090565b604051806060016040528060001515815260200160608152602001600060ff1681525090565b5b808211156141a1576000816000905550600101614189565b5090565b60006141b86141b3846150f8565b6150d3565b9050828152602081018484840111156141d4576141d3615522565b5b6141df848285615344565b509392505050565b6000813590506141f681615809565b92915050565b60008135905061420b81615820565b92915050565b600082601f8301126142265761422561551d565b5b81356142368482602086016141a5565b91505092915050565b60008135905061424e81615837565b92915050565b6000813590506142638161584e565b92915050565b60008135905061427881615865565b92915050565b6000602082840312156142945761429361552c565b5b60006142a2848285016141e7565b91505092915050565b6000806000606084860312156142c4576142c361552c565b5b60006142d2868287016141e7565b93505060206142e3868287016141e7565b92505060406142f4868287016141e7565b9150509250925092565b600080604083850312156143155761431461552c565b5b6000614323858286016141e7565b9250506020614334858286016141fc565b9150509250929050565b600080600080608085870312156143585761435761552c565b5b6000614366878288016141e7565b945050602085013567ffffffffffffffff81111561438757614386615527565b5b61439387828801614211565b93505060406143a48782880161423f565b92505060606143b587828801614269565b91505092959194509250565b6000806000606084860312156143da576143d961552c565b5b60006143e8868287016141e7565b935050602084013567ffffffffffffffff81111561440957614408615527565b5b61441586828701614211565b925050604061442686828701614269565b9150509250925092565b6000602082840312156144465761444561552c565b5b60006144548482850161423f565b91505092915050565b6000602082840312156144735761447261552c565b5b600061448184828501614254565b91505092915050565b60006144968383614a7b565b905092915050565b60006144aa8383614ade565b905092915050565b60006144be8383614b2e565b905092915050565b60006144d28383614b7e565b905092915050565b60006144e68383614bce565b905092915050565b60006144fa8383614c1e565b905092915050565b61450b816152ac565b82525050565b600061451c82615189565b6145268185615224565b93508360208202850161453885615129565b8060005b858110156145745784840389528151614555858261448a565b9450614560836151d6565b925060208a0199505060018101905061453c565b50829750879550505050505092915050565b600061459182615194565b61459b8185615235565b9350836020820285016145ad85615139565b8060005b858110156145e957848403895281516145ca858261449e565b94506145d5836151e3565b925060208a019950506001810190506145b1565b50829750879550505050505092915050565b60006146068261519f565b6146108185615246565b93508360208202850161462285615149565b8060005b8581101561465e578484038952815161463f85826144b2565b945061464a836151f0565b925060208a01995050600181019050614626565b50829750879550505050505092915050565b600061467b826151aa565b6146858185615257565b93508360208202850161469785615159565b8060005b858110156146d357848403895281516146b485826144c6565b94506146bf836151fd565b925060208a0199505060018101905061469b565b50829750879550505050505092915050565b60006146f0826151b5565b6146fa8185615268565b93508360208202850161470c85615169565b8060005b85811015614748578484038952815161472985826144da565b94506147348361520a565b925060208a01995050600181019050614710565b50829750879550505050505092915050565b6000614765826151c0565b61476f8185615279565b93508360208202850161478185615179565b8060005b858110156147bd578484038952815161479e85826144ee565b94506147a983615217565b925060208a01995050600181019050614785565b50829750879550505050505092915050565b6147d8816152be565b82525050565b6147e7816152be565b82525050565b6147f681615332565b82525050565b6000614807826151cb565b614811818561528a565b9350614821818560208601615353565b61482a81615531565b840191505092915050565b6000614840826151cb565b61484a818561529b565b935061485a818560208601615353565b61486381615531565b840191505092915050565b600061487b60198361529b565b915061488682615542565b602082019050919050565b600061489e60178361529b565b91506148a98261556b565b602082019050919050565b60006148c160118361529b565b91506148cc82615594565b602082019050919050565b60006148e460188361529b565b91506148ef826155bd565b602082019050919050565b600061490760128361529b565b9150614912826155e6565b602082019050919050565b600061492a601e8361529b565b91506149358261560f565b602082019050919050565b600061494d601e8361529b565b915061495882615638565b602082019050919050565b600061497060228361529b565b915061497b82615661565b604082019050919050565b600061499360228361529b565b915061499e826156b0565b604082019050919050565b60006149b660178361529b565b91506149c1826156ff565b602082019050919050565b60006149d9601e8361529b565b91506149e482615728565b602082019050919050565b60006149fc60118361529b565b9150614a0782615751565b602082019050919050565b6000614a1f60188361529b565b9150614a2a8261577a565b602082019050919050565b6000614a4260128361529b565b9150614a4d826157a3565b602082019050919050565b6000614a6560198361529b565b9150614a70826157cc565b602082019050919050565b6000608083016000830151614a9360008601826147cf565b506020830151614aa66020860182614caa565b506040830151614ab96040860182614c7d565b5060608301518482036060860152614ad182826147fc565b9150508091505092915050565b6000606083016000830151614af660008601826147cf565b5060208301518482036020860152614b0e82826147fc565b9150506040830151614b236040860182614caa565b508091505092915050565b6000606083016000830151614b4660008601826147cf565b5060208301518482036020860152614b5e82826147fc565b9150506040830151614b736040860182614caa565b508091505092915050565b6000606083016000830151614b9660008601826147cf565b5060208301518482036020860152614bae82826147fc565b9150506040830151614bc36040860182614caa565b508091505092915050565b6000606083016000830151614be660008601826147cf565b5060208301518482036020860152614bfe82826147fc565b9150506040830151614c136040860182614caa565b508091505092915050565b6000606083016000830151614c3660008601826147cf565b5060208301518482036020860152614c4e82826147fc565b9150506040830151614c636040860182614caa565b508091505092915050565b614c77816152dd565b82525050565b614c868161530b565b82525050565b614c958161530b565b82525050565b614ca481615315565b82525050565b614cb381615325565b82525050565b614cc281615325565b82525050565b6000602082019050614cdd6000830184614502565b92915050565b60006020820190508181036000830152614cfd8184614511565b905092915050565b60006020820190508181036000830152614d1f8184614586565b905092915050565b60006020820190508181036000830152614d4181846145fb565b905092915050565b60006020820190508181036000830152614d638184614670565b905092915050565b60006020820190508181036000830152614d8581846146e5565b905092915050565b60006020820190508181036000830152614da7818461475a565b905092915050565b6000602082019050614dc460008301846147de565b92915050565b600060c082019050614ddf60008301896147de565b614dec6020830188614502565b614df96040830187614c6e565b614e0660608301866147ed565b8181036080830152614e188185614835565b905081810360a0830152614e2c8184614835565b9050979650505050505050565b6000606082019050614e4e60008301866147de565b8181036020830152614e608185614835565b9050614e6f6040830184614cb9565b949350505050565b6000608082019050614e8c60008301876147de565b614e996020830186614cb9565b614ea66040830185614c8c565b8181036060830152614eb88184614835565b905095945050505050565b60006020820190508181036000830152614edc8161486e565b9050919050565b60006020820190508181036000830152614efc81614891565b9050919050565b60006020820190508181036000830152614f1c816148b4565b9050919050565b60006020820190508181036000830152614f3c816148d7565b9050919050565b60006020820190508181036000830152614f5c816148fa565b9050919050565b60006020820190508181036000830152614f7c8161491d565b9050919050565b60006020820190508181036000830152614f9c81614940565b9050919050565b60006020820190508181036000830152614fbc81614963565b9050919050565b60006020820190508181036000830152614fdc81614986565b9050919050565b60006020820190508181036000830152614ffc816149a9565b9050919050565b6000602082019050818103600083015261501c816149cc565b9050919050565b6000602082019050818103600083015261503c816149ef565b9050919050565b6000602082019050818103600083015261505c81614a12565b9050919050565b6000602082019050818103600083015261507c81614a35565b9050919050565b6000602082019050818103600083015261509c81614a58565b9050919050565b60006040820190506150b86000830185614c9b565b81810360208301526150ca8184614835565b90509392505050565b60006150dd6150ee565b90506150e982826153b8565b919050565b6000604051905090565b600067ffffffffffffffff821115615113576151126154ee565b5b61511c82615531565b9050602081019050919050565b6000819050602082019050919050565b6000819050602082019050919050565b6000819050602082019050919050565b6000819050602082019050919050565b6000819050602082019050919050565b6000819050602082019050919050565b600081519050919050565b600081519050919050565b600081519050919050565b600081519050919050565b600081519050919050565b600081519050919050565b600081519050919050565b6000602082019050919050565b6000602082019050919050565b6000602082019050919050565b6000602082019050919050565b6000602082019050919050565b6000602082019050919050565b600082825260208201905092915050565b600082825260208201905092915050565b600082825260208201905092915050565b600082825260208201905092915050565b600082825260208201905092915050565b600082825260208201905092915050565b600082825260208201905092915050565b600082825260208201905092915050565b60006152b7826152eb565b9050919050565b60008115159050919050565b60008190506152d8826157f5565b919050565b600061ffff82169050919050565b600073ffffffffffffffffffffffffffffffffffffffff82169050919050565b6000819050919050565b600063ffffffff82169050919050565b600060ff82169050919050565b600061533d826152ca565b9050919050565b82818337600083830152505050565b60005b83811015615371578082015181840152602081019050615356565b83811115615380576000848401525b50505050565b6000600282049050600182168061539e57607f821691505b602082108114156153b2576153b1615490565b5b50919050565b6153c182615531565b810181811067ffffffffffffffff821117156153e0576153df6154ee565b5b80604052505050565b60006153f48261530b565b91507fffffffffffffffffffffffffffffffffffffffffffffffffffffffffffffffff82141561542757615426615432565b5b600182019050919050565b7f4e487b7100000000000000000000000000000000000000000000000000000000600052601160045260246000fd5b7f4e487b7100000000000000000000000000000000000000000000000000000000600052602160045260246000fd5b7f4e487b7100000000000000000000000000000000000000000000000000000000600052602260045260246000fd5b7f4e487b7100000000000000000000000000000000000000000000000000000000600052603260045260246000fd5b7f4e487b7100000000000000000000000000000000000000000000000000000000600052604160045260246000fd5b600080fd5b600080fd5b600080fd5b600080fd5b6000601f19601f8301169050919050565b7f4b757273204d65726b657a69205a6174656e204d657663757400000000000000600082015250565b7f556e6976657273697465204d657663757420446567696c000000000000000000600082015250565b7f4b697369204d657663757420446567696c000000000000000000000000000000600082015250565b7f4b616d75204b7572756d75205a6174656e204d65766375740000000000000000600082015250565b7f4669726d61205a6174656e204d65766375740000000000000000000000000000600082015250565b7f5361646563652043422062752069736c656d69207961706162696c69722e0000600082015250565b7f536572746966696b61204d65726b657a69205a6174656e204d65766375740000600082015250565b7f536976696c20546f706c756d204b7572756c757375204d65766375742044656760008201527f696c000000000000000000000000000000000000000000000000000000000000602082015250565b7f536976696c20546f706c756d204b7572756c757375205a6174656e204d65766360008201527f7574000000000000000000000000000000000000000000000000000000000000602082015250565b7f556e6976657273697465205a6174656e204d6576637574000000000000000000600082015250565b7f536572746966696b61204d65726b657a69204d657663757420446567696c0000600082015250565b7f4b697369205a6174656e204d6576637574000000000000000000000000000000600082015250565b7f4b616d75204b7572756d75204d657663757420446567696c0000000000000000600082015250565b7f4669726d61204d657663757420446567696c0000000000000000000000000000600082015250565b7f4b757273204d65726b657a69204d657663757420446567696c00000000000000600082015250565b6004811061580657615805615461565b5b50565b615812816152ac565b811461581d57600080fd5b50565b615829816152be565b811461583457600080fd5b50565b6158408161530b565b811461584b57600080fd5b50565b61585781615315565b811461586257600080fd5b50565b61586e81615325565b811461587957600080fd5b5056fea26469706673582212204d9fc862766780b510bae73e141b528c8a665698e768bd2a7d874644f1b6b0f764736f6c63430008070033",
			"opcodes": "PUSH1 0x80 PUSH1 0x40 MSTORE CALLVALUE DUP1 ISZERO PUSH2 0x10 JUMPI PUSH1 0x0 DUP1 REVERT JUMPDEST POP PUSH2 0x58B2 DUP1 PUSH3 0x21 PUSH1 0x0 CODECOPY PUSH1 0x0 RETURN INVALID PUSH1 0x80 PUSH1 0x40 MSTORE CALLVALUE DUP1 ISZERO PUSH2 0x10 JUMPI PUSH1 0x0 DUP1 REVERT JUMPDEST POP PUSH1 0x4 CALLDATASIZE LT PUSH2 0x35C JUMPI PUSH1 0x0 CALLDATALOAD PUSH1 0xE0 SHR DUP1 PUSH4 0xA29879C0 GT PUSH2 0x1D3 JUMPI DUP1 PUSH4 0xD5F6D56C GT PUSH2 0x104 JUMPI DUP1 PUSH4 0xE8ABB184 GT PUSH2 0xA2 JUMPI DUP1 PUSH4 0xF1981850 GT PUSH2 0x7C JUMPI DUP1 PUSH4 0xF1981850 EQ PUSH2 0xB1C JUMPI DUP1 PUSH4 0xF54ACC65 EQ PUSH2 0xB38 JUMPI DUP1 PUSH4 0xF63C649F EQ PUSH2 0xB54 JUMPI DUP1 PUSH4 0xFD738E6D EQ PUSH2 0xB70 JUMPI PUSH2 0x35C JUMP JUMPDEST DUP1 PUSH4 0xE8ABB184 EQ PUSH2 0xA8C JUMPI DUP1 PUSH4 0xF0040EB9 EQ PUSH2 0xABC JUMPI DUP1 PUSH4 0xF1403851 EQ PUSH2 0xAEC JUMPI PUSH2 0x35C JUMP JUMPDEST DUP1 PUSH4 0xD7909777 GT PUSH2 0xDE JUMPI DUP1 PUSH4 0xD7909777 EQ PUSH2 0x9E0 JUMPI DUP1 PUSH4 0xD88D8C12 EQ PUSH2 0xA10 JUMPI DUP1 PUSH4 0xE24047CA EQ PUSH2 0xA2C JUMPI DUP1 PUSH4 0xE5130508 EQ PUSH2 0xA5C JUMPI PUSH2 0x35C JUMP JUMPDEST DUP1 PUSH4 0xD5F6D56C EQ PUSH2 0x976 JUMPI DUP1 PUSH4 0xD71ED8B1 EQ PUSH2 0x992 JUMPI DUP1 PUSH4 0xD7396414 EQ PUSH2 0x9B0 JUMPI PUSH2 0x35C JUMP JUMPDEST DUP1 PUSH4 0xBA479B7E GT PUSH2 0x171 JUMPI DUP1 PUSH4 0xCBC92809 GT PUSH2 0x14B JUMPI DUP1 PUSH4 0xCBC92809 EQ PUSH2 0x8EE JUMPI DUP1 PUSH4 0xD0D6B7A3 EQ PUSH2 0x91E JUMPI DUP1 PUSH4 0xD25AAB85 EQ PUSH2 0x93C JUMPI DUP1 PUSH4 0xD508602D EQ PUSH2 0x958 JUMPI PUSH2 0x35C JUMP JUMPDEST DUP1 PUSH4 0xBA479B7E EQ PUSH2 0x881 JUMPI DUP1 PUSH4 0xBD35A506 EQ PUSH2 0x8B6 JUMPI DUP1 PUSH4 0xC6DA8CFE EQ PUSH2 0x8D2 JUMPI PUSH2 0x35C JUMP JUMPDEST DUP1 PUSH4 0xAFB61B1E GT PUSH2 0x1AD JUMPI DUP1 PUSH4 0xAFB61B1E EQ PUSH2 0x7E9 JUMPI DUP1 PUSH4 0xB07B0E5A EQ PUSH2 0x805 JUMPI DUP1 PUSH4 0xB2A825BB EQ PUSH2 0x835 JUMPI DUP1 PUSH4 0xB98CCEFD EQ PUSH2 0x851 JUMPI PUSH2 0x35C JUMP JUMPDEST DUP1 PUSH4 0xA29879C0 EQ PUSH2 0x77E JUMPI DUP1 PUSH4 0xA4E7AE05 EQ PUSH2 0x79C JUMPI DUP1 PUSH4 0xA81DC179 EQ PUSH2 0x7CD JUMPI PUSH2 0x35C JUMP JUMPDEST DUP1 PUSH4 0x36FD2633 GT PUSH2 0x2AD JUMPI DUP1 PUSH4 0x7D0FA287 GT PUSH2 0x24B JUMPI DUP1 PUSH4 0x91E9528A GT PUSH2 0x225 JUMPI DUP1 PUSH4 0x91E9528A EQ PUSH2 0x6F8 JUMPI DUP1 PUSH4 0x9A8C9119 EQ PUSH2 0x714 JUMPI DUP1 PUSH4 0x9BFC4DBD EQ PUSH2 0x746 JUMPI DUP1 PUSH4 0x9DC30114 EQ PUSH2 0x762 JUMPI PUSH2 0x35C JUMP JUMPDEST DUP1 PUSH4 0x7D0FA287 EQ PUSH2 0x678 JUMPI DUP1 PUSH4 0x871DB892 EQ PUSH2 0x6AA JUMPI DUP1 PUSH4 0x8C848885 EQ PUSH2 0x6C8 JUMPI PUSH2 0x35C JUMP JUMPDEST DUP1 PUSH4 0x50D2A060 GT PUSH2 0x287 JUMPI DUP1 PUSH4 0x50D2A060 EQ PUSH2 0x5F2 JUMPI DUP1 PUSH4 0x514E03C7 EQ PUSH2 0x60E JUMPI DUP1 PUSH4 0x548FA620 EQ PUSH2 0x63E JUMPI DUP1 PUSH4 0x71AF892D EQ PUSH2 0x65A JUMPI PUSH2 0x35C JUMP JUMPDEST DUP1 PUSH4 0x36FD2633 EQ PUSH2 0x587 JUMPI DUP1 PUSH4 0x39987F94 EQ PUSH2 0x5A3 JUMPI DUP1 PUSH4 0x46224853 EQ PUSH2 0x5D6 JUMPI PUSH2 0x35C JUMP JUMPDEST DUP1 PUSH4 0x19023BF3 GT PUSH2 0x31A JUMPI DUP1 PUSH4 0x1F145F47 GT PUSH2 0x2F4 JUMPI DUP1 PUSH4 0x1F145F47 EQ PUSH2 0x4C3 JUMPI DUP1 PUSH4 0x28266697 EQ PUSH2 0x4F3 JUMPI DUP1 PUSH4 0x2D087D70 EQ PUSH2 0x525 JUMPI DUP1 PUSH4 0x356B1F1E EQ PUSH2 0x555 JUMPI PUSH2 0x35C JUMP JUMPDEST DUP1 PUSH4 0x19023BF3 EQ PUSH2 0x459 JUMPI DUP1 PUSH4 0x1916E139 EQ PUSH2 0x475 JUMPI DUP1 PUSH4 0x1D595580 EQ PUSH2 0x4A7 JUMPI PUSH2 0x35C JUMP JUMPDEST DUP1 PUSH3 0x1D54AB EQ PUSH2 0x361 JUMPI DUP1 PUSH4 0x24EB6BC EQ PUSH2 0x37D JUMPI DUP1 PUSH4 0xA33E3EB EQ PUSH2 0x3AD JUMPI DUP1 PUSH4 0xB877CA7 EQ PUSH2 0x3DD JUMPI DUP1 PUSH4 0x139884EC EQ PUSH2 0x40D JUMPI DUP1 PUSH4 0x150596F4 EQ PUSH2 0x43D JUMPI JUMPDEST PUSH1 0x0 DUP1 REVERT JUMPDEST PUSH2 0x37B PUSH1 0x4 DUP1 CALLDATASIZE SUB DUP2 ADD SWAP1 PUSH2 0x376 SWAP2 SWAP1 PUSH2 0x43C1 JUMP JUMPDEST PUSH2 0xB8E JUMP JUMPDEST STOP JUMPDEST PUSH2 0x397 PUSH1 0x4 DUP1 CALLDATASIZE SUB DUP2 ADD SWAP1 PUSH2 0x392 SWAP2 SWAP1 PUSH2 0x427E JUMP JUMPDEST PUSH2 0xD4C JUMP JUMPDEST PUSH1 0x40 MLOAD PUSH2 0x3A4 SWAP2 SWAP1 PUSH2 0x4DAF JUMP JUMPDEST PUSH1 0x40 MLOAD DUP1 SWAP2 SUB SWAP1 RETURN JUMPDEST PUSH2 0x3C7 PUSH1 0x4 DUP1 CALLDATASIZE SUB DUP2 ADD SWAP1 PUSH2 0x3C2 SWAP2 SWAP1 PUSH2 0x4430 JUMP JUMPDEST PUSH2 0xDA5 JUMP JUMPDEST PUSH1 0x40 MLOAD PUSH2 0x3D4 SWAP2 SWAP1 PUSH2 0x4CC8 JUMP JUMPDEST PUSH1 0x40 MLOAD DUP1 SWAP2 SUB SWAP1 RETURN JUMPDEST PUSH2 0x3F7 PUSH1 0x4 DUP1 CALLDATASIZE SUB DUP2 ADD SWAP1 PUSH2 0x3F2 SWAP2 SWAP1 PUSH2 0x4430 JUMP JUMPDEST PUSH2 0xDE4 JUMP JUMPDEST PUSH1 0x40 MLOAD PUSH2 0x404 SWAP2 SWAP1 PUSH2 0x4CC8 JUMP JUMPDEST PUSH1 0x40 MLOAD DUP1 SWAP2 SUB SWAP1 RETURN JUMPDEST PUSH2 0x427 PUSH1 0x4 DUP1 CALLDATASIZE SUB DUP2 ADD SWAP1 PUSH2 0x422 SWAP2 SWAP1 PUSH2 0x427E JUMP JUMPDEST PUSH2 0xE23 JUMP JUMPDEST PUSH1 0x40 MLOAD PUSH2 0x434 SWAP2 SWAP1 PUSH2 0x4DAF JUMP JUMPDEST PUSH1 0x40 MLOAD DUP1 SWAP2 SUB SWAP1 RETURN JUMPDEST PUSH2 0x457 PUSH1 0x4 DUP1 CALLDATASIZE SUB DUP2 ADD SWAP1 PUSH2 0x452 SWAP2 SWAP1 PUSH2 0x43C1 JUMP JUMPDEST PUSH2 0xE7D JUMP JUMPDEST STOP JUMPDEST PUSH2 0x473 PUSH1 0x4 DUP1 CALLDATASIZE SUB DUP2 ADD SWAP1 PUSH2 0x46E SWAP2 SWAP1 PUSH2 0x43C1 JUMP JUMPDEST PUSH2 0xFD7 JUMP JUMPDEST STOP JUMPDEST PUSH2 0x48F PUSH1 0x4 DUP1 CALLDATASIZE SUB DUP2 ADD SWAP1 PUSH2 0x48A SWAP2 SWAP1 PUSH2 0x427E JUMP JUMPDEST PUSH2 0x1195 JUMP JUMPDEST PUSH1 0x40 MLOAD PUSH2 0x49E SWAP4 SWAP3 SWAP2 SWAP1 PUSH2 0x4E39 JUMP JUMPDEST PUSH1 0x40 MLOAD DUP1 SWAP2 SUB SWAP1 RETURN JUMPDEST PUSH2 0x4C1 PUSH1 0x4 DUP1 CALLDATASIZE SUB DUP2 ADD SWAP1 PUSH2 0x4BC SWAP2 SWAP1 PUSH2 0x427E JUMP JUMPDEST PUSH2 0x1261 JUMP JUMPDEST STOP JUMPDEST PUSH2 0x4DD PUSH1 0x4 DUP1 CALLDATASIZE SUB DUP2 ADD SWAP1 PUSH2 0x4D8 SWAP2 SWAP1 PUSH2 0x4430 JUMP JUMPDEST PUSH2 0x132E JUMP JUMPDEST PUSH1 0x40 MLOAD PUSH2 0x4EA SWAP2 SWAP1 PUSH2 0x4CC8 JUMP JUMPDEST PUSH1 0x40 MLOAD DUP1 SWAP2 SUB SWAP1 RETURN JUMPDEST PUSH2 0x50D PUSH1 0x4 DUP1 CALLDATASIZE SUB DUP2 ADD SWAP1 PUSH2 0x508 SWAP2 SWAP1 PUSH2 0x427E JUMP JUMPDEST PUSH2 0x136D JUMP JUMPDEST PUSH1 0x40 MLOAD PUSH2 0x51C SWAP4 SWAP3 SWAP2 SWAP1 PUSH2 0x4E39 JUMP JUMPDEST PUSH1 0x40 MLOAD DUP1 SWAP2 SUB SWAP1 RETURN JUMPDEST PUSH2 0x53F PUSH1 0x4 DUP1 CALLDATASIZE SUB DUP2 ADD SWAP1 PUSH2 0x53A SWAP2 SWAP1 PUSH2 0x427E JUMP JUMPDEST PUSH2 0x1439 JUMP JUMPDEST PUSH1 0x40 MLOAD PUSH2 0x54C SWAP2 SWAP1 PUSH2 0x4DAF JUMP JUMPDEST PUSH1 0x40 MLOAD DUP1 SWAP2 SUB SWAP1 RETURN JUMPDEST PUSH2 0x56F PUSH1 0x4 DUP1 CALLDATASIZE SUB DUP2 ADD SWAP1 PUSH2 0x56A SWAP2 SWAP1 PUSH2 0x427E JUMP JUMPDEST PUSH2 0x1492 JUMP JUMPDEST PUSH1 0x40 MLOAD PUSH2 0x57E SWAP4 SWAP3 SWAP2 SWAP1 PUSH2 0x4E39 JUMP JUMPDEST PUSH1 0x40 MLOAD DUP1 SWAP2 SUB SWAP1 RETURN JUMPDEST PUSH2 0x5A1 PUSH1 0x4 DUP1 CALLDATASIZE SUB DUP2 ADD SWAP1 PUSH2 0x59C SWAP2 SWAP1 PUSH2 0x42AB JUMP JUMPDEST PUSH2 0x155E JUMP JUMPDEST STOP JUMPDEST PUSH2 0x5BD PUSH1 0x4 DUP1 CALLDATASIZE SUB DUP2 ADD SWAP1 PUSH2 0x5B8 SWAP2 SWAP1 PUSH2 0x427E JUMP JUMPDEST PUSH2 0x1625 JUMP JUMPDEST PUSH1 0x40 MLOAD PUSH2 0x5CD SWAP5 SWAP4 SWAP3 SWAP2 SWAP1 PUSH2 0x4E77 JUMP JUMPDEST PUSH1 0x40 MLOAD DUP1 SWAP2 SUB SWAP1 RETURN JUMPDEST PUSH2 0x5F0 PUSH1 0x4 DUP1 CALLDATASIZE SUB DUP2 ADD SWAP1 PUSH2 0x5EB SWAP2 SWAP1 PUSH2 0x43C1 JUMP JUMPDEST PUSH2 0x16F7 JUMP JUMPDEST STOP JUMPDEST PUSH2 0x60C PUSH1 0x4 DUP1 CALLDATASIZE SUB DUP2 ADD SWAP1 PUSH2 0x607 SWAP2 SWAP1 PUSH2 0x427E JUMP JUMPDEST PUSH2 0x18B5 JUMP JUMPDEST STOP JUMPDEST PUSH2 0x628 PUSH1 0x4 DUP1 CALLDATASIZE SUB DUP2 ADD SWAP1 PUSH2 0x623 SWAP2 SWAP1 PUSH2 0x427E JUMP JUMPDEST PUSH2 0x197A JUMP JUMPDEST PUSH1 0x40 MLOAD PUSH2 0x635 SWAP2 SWAP1 PUSH2 0x4DAF JUMP JUMPDEST PUSH1 0x40 MLOAD DUP1 SWAP2 SUB SWAP1 RETURN JUMPDEST PUSH2 0x658 PUSH1 0x4 DUP1 CALLDATASIZE SUB DUP2 ADD SWAP1 PUSH2 0x653 SWAP2 SWAP1 PUSH2 0x427E JUMP JUMPDEST PUSH2 0x19D3 JUMP JUMPDEST STOP JUMPDEST PUSH2 0x662 PUSH2 0x1A98 JUMP JUMPDEST PUSH1 0x40 MLOAD PUSH2 0x66F SWAP2 SWAP1 PUSH2 0x4CC8 JUMP JUMPDEST PUSH1 0x40 MLOAD DUP1 SWAP2 SUB SWAP1 RETURN JUMPDEST PUSH2 0x692 PUSH1 0x4 DUP1 CALLDATASIZE SUB DUP2 ADD SWAP1 PUSH2 0x68D SWAP2 SWAP1 PUSH2 0x427E JUMP JUMPDEST PUSH2 0x1ABC JUMP JUMPDEST PUSH1 0x40 MLOAD PUSH2 0x6A1 SWAP4 SWAP3 SWAP2 SWAP1 PUSH2 0x4E39 JUMP JUMPDEST PUSH1 0x40 MLOAD DUP1 SWAP2 SUB SWAP1 RETURN JUMPDEST PUSH2 0x6B2 PUSH2 0x1B88 JUMP JUMPDEST PUSH1 0x40 MLOAD PUSH2 0x6BF SWAP2 SWAP1 PUSH2 0x4D8D JUMP JUMPDEST PUSH1 0x40 MLOAD DUP1 SWAP2 SUB SWAP1 RETURN JUMPDEST PUSH2 0x6E2 PUSH1 0x4 DUP1 CALLDATASIZE SUB DUP2 ADD SWAP1 PUSH2 0x6DD SWAP2 SWAP1 PUSH2 0x427E JUMP JUMPDEST PUSH2 0x1D90 JUMP JUMPDEST PUSH1 0x40 MLOAD PUSH2 0x6EF SWAP2 SWAP1 PUSH2 0x4DAF JUMP JUMPDEST PUSH1 0x40 MLOAD DUP1 SWAP2 SUB SWAP1 RETURN JUMPDEST PUSH2 0x712 PUSH1 0x4 DUP1 CALLDATASIZE SUB DUP2 ADD SWAP1 PUSH2 0x70D SWAP2 SWAP1 PUSH2 0x43C1 JUMP JUMPDEST PUSH2 0x1DE9 JUMP JUMPDEST STOP JUMPDEST PUSH2 0x72E PUSH1 0x4 DUP1 CALLDATASIZE SUB DUP2 ADD SWAP1 PUSH2 0x729 SWAP2 SWAP1 PUSH2 0x427E JUMP JUMPDEST PUSH2 0x1F43 JUMP JUMPDEST PUSH1 0x40 MLOAD PUSH2 0x73D SWAP4 SWAP3 SWAP2 SWAP1 PUSH2 0x4E39 JUMP JUMPDEST PUSH1 0x40 MLOAD DUP1 SWAP2 SUB SWAP1 RETURN JUMPDEST PUSH2 0x760 PUSH1 0x4 DUP1 CALLDATASIZE SUB DUP2 ADD SWAP1 PUSH2 0x75B SWAP2 SWAP1 PUSH2 0x427E JUMP JUMPDEST PUSH2 0x200F JUMP JUMPDEST STOP JUMPDEST PUSH2 0x77C PUSH1 0x4 DUP1 CALLDATASIZE SUB DUP2 ADD SWAP1 PUSH2 0x777 SWAP2 SWAP1 PUSH2 0x43C1 JUMP JUMPDEST PUSH2 0x20D4 JUMP JUMPDEST STOP JUMPDEST PUSH2 0x786 PUSH2 0x2292 JUMP JUMPDEST PUSH1 0x40 MLOAD PUSH2 0x793 SWAP2 SWAP1 PUSH2 0x4D49 JUMP JUMPDEST PUSH1 0x40 MLOAD DUP1 SWAP2 SUB SWAP1 RETURN JUMPDEST PUSH2 0x7B6 PUSH1 0x4 DUP1 CALLDATASIZE SUB DUP2 ADD SWAP1 PUSH2 0x7B1 SWAP2 SWAP1 PUSH2 0x445D JUMP JUMPDEST PUSH2 0x249A JUMP JUMPDEST PUSH1 0x40 MLOAD PUSH2 0x7C4 SWAP3 SWAP2 SWAP1 PUSH2 0x50A3 JUMP JUMPDEST PUSH1 0x40 MLOAD DUP1 SWAP2 SUB SWAP1 RETURN JUMPDEST PUSH2 0x7E7 PUSH1 0x4 DUP1 CALLDATASIZE SUB DUP2 ADD SWAP1 PUSH2 0x7E2 SWAP2 SWAP1 PUSH2 0x433E JUMP JUMPDEST PUSH2 0x2556 JUMP JUMPDEST STOP JUMPDEST PUSH2 0x803 PUSH1 0x4 DUP1 CALLDATASIZE SUB DUP2 ADD SWAP1 PUSH2 0x7FE SWAP2 SWAP1 PUSH2 0x427E JUMP JUMPDEST PUSH2 0x26F8 JUMP JUMPDEST STOP JUMPDEST PUSH2 0x81F PUSH1 0x4 DUP1 CALLDATASIZE SUB DUP2 ADD SWAP1 PUSH2 0x81A SWAP2 SWAP1 PUSH2 0x4430 JUMP JUMPDEST PUSH2 0x27BD JUMP JUMPDEST PUSH1 0x40 MLOAD PUSH2 0x82C SWAP2 SWAP1 PUSH2 0x4CC8 JUMP JUMPDEST PUSH1 0x40 MLOAD DUP1 SWAP2 SUB SWAP1 RETURN JUMPDEST PUSH2 0x84F PUSH1 0x4 DUP1 CALLDATASIZE SUB DUP2 ADD SWAP1 PUSH2 0x84A SWAP2 SWAP1 PUSH2 0x43C1 JUMP JUMPDEST PUSH2 0x27FC JUMP JUMPDEST STOP JUMPDEST PUSH2 0x86B PUSH1 0x4 DUP1 CALLDATASIZE SUB DUP2 ADD SWAP1 PUSH2 0x866 SWAP2 SWAP1 PUSH2 0x427E JUMP JUMPDEST PUSH2 0x2956 JUMP JUMPDEST PUSH1 0x40 MLOAD PUSH2 0x878 SWAP2 SWAP1 PUSH2 0x4DAF JUMP JUMPDEST PUSH1 0x40 MLOAD DUP1 SWAP2 SUB SWAP1 RETURN JUMPDEST PUSH2 0x89B PUSH1 0x4 DUP1 CALLDATASIZE SUB DUP2 ADD SWAP1 PUSH2 0x896 SWAP2 SWAP1 PUSH2 0x427E JUMP JUMPDEST PUSH2 0x29AF JUMP JUMPDEST PUSH1 0x40 MLOAD PUSH2 0x8AD SWAP7 SWAP6 SWAP5 SWAP4 SWAP3 SWAP2 SWAP1 PUSH2 0x4DCA JUMP JUMPDEST PUSH1 0x40 MLOAD DUP1 SWAP2 SUB SWAP1 RETURN JUMPDEST PUSH2 0x8D0 PUSH1 0x4 DUP1 CALLDATASIZE SUB DUP2 ADD SWAP1 PUSH2 0x8CB SWAP2 SWAP1 PUSH2 0x427E JUMP JUMPDEST PUSH2 0x2B43 JUMP JUMPDEST STOP JUMPDEST PUSH2 0x8EC PUSH1 0x4 DUP1 CALLDATASIZE SUB DUP2 ADD SWAP1 PUSH2 0x8E7 SWAP2 SWAP1 PUSH2 0x43C1 JUMP JUMPDEST PUSH2 0x2BE4 JUMP JUMPDEST STOP JUMPDEST PUSH2 0x908 PUSH1 0x4 DUP1 CALLDATASIZE SUB DUP2 ADD SWAP1 PUSH2 0x903 SWAP2 SWAP1 PUSH2 0x427E JUMP JUMPDEST PUSH2 0x2D3E JUMP JUMPDEST PUSH1 0x40 MLOAD PUSH2 0x915 SWAP2 SWAP1 PUSH2 0x4DAF JUMP JUMPDEST PUSH1 0x40 MLOAD DUP1 SWAP2 SUB SWAP1 RETURN JUMPDEST PUSH2 0x926 PUSH2 0x2D69 JUMP JUMPDEST PUSH1 0x40 MLOAD PUSH2 0x933 SWAP2 SWAP1 PUSH2 0x4D27 JUMP JUMPDEST PUSH1 0x40 MLOAD DUP1 SWAP2 SUB SWAP1 RETURN JUMPDEST PUSH2 0x956 PUSH1 0x4 DUP1 CALLDATASIZE SUB DUP2 ADD SWAP1 PUSH2 0x951 SWAP2 SWAP1 PUSH2 0x433E JUMP JUMPDEST PUSH2 0x2F71 JUMP JUMPDEST STOP JUMPDEST PUSH2 0x960 PUSH2 0x3177 JUMP JUMPDEST PUSH1 0x40 MLOAD PUSH2 0x96D SWAP2 SWAP1 PUSH2 0x4CE3 JUMP JUMPDEST PUSH1 0x40 MLOAD DUP1 SWAP2 SUB SWAP1 RETURN JUMPDEST PUSH2 0x990 PUSH1 0x4 DUP1 CALLDATASIZE SUB DUP2 ADD SWAP1 PUSH2 0x98B SWAP2 SWAP1 PUSH2 0x43C1 JUMP JUMPDEST PUSH2 0x3389 JUMP JUMPDEST STOP JUMPDEST PUSH2 0x99A PUSH2 0x34E3 JUMP JUMPDEST PUSH1 0x40 MLOAD PUSH2 0x9A7 SWAP2 SWAP1 PUSH2 0x4D05 JUMP JUMPDEST PUSH1 0x40 MLOAD DUP1 SWAP2 SUB SWAP1 RETURN JUMPDEST PUSH2 0x9CA PUSH1 0x4 DUP1 CALLDATASIZE SUB DUP2 ADD SWAP1 PUSH2 0x9C5 SWAP2 SWAP1 PUSH2 0x427E JUMP JUMPDEST PUSH2 0x377B JUMP JUMPDEST PUSH1 0x40 MLOAD PUSH2 0x9D7 SWAP2 SWAP1 PUSH2 0x4DAF JUMP JUMPDEST PUSH1 0x40 MLOAD DUP1 SWAP2 SUB SWAP1 RETURN JUMPDEST PUSH2 0x9FA PUSH1 0x4 DUP1 CALLDATASIZE SUB DUP2 ADD SWAP1 PUSH2 0x9F5 SWAP2 SWAP1 PUSH2 0x4430 JUMP JUMPDEST PUSH2 0x37D3 JUMP JUMPDEST PUSH1 0x40 MLOAD PUSH2 0xA07 SWAP2 SWAP1 PUSH2 0x4CC8 JUMP JUMPDEST PUSH1 0x40 MLOAD DUP1 SWAP2 SUB SWAP1 RETURN JUMPDEST PUSH2 0xA2A PUSH1 0x4 DUP1 CALLDATASIZE SUB DUP2 ADD SWAP1 PUSH2 0xA25 SWAP2 SWAP1 PUSH2 0x427E JUMP JUMPDEST PUSH2 0x3812 JUMP JUMPDEST STOP JUMPDEST PUSH2 0xA46 PUSH1 0x4 DUP1 CALLDATASIZE SUB DUP2 ADD SWAP1 PUSH2 0xA41 SWAP2 SWAP1 PUSH2 0x427E JUMP JUMPDEST PUSH2 0x38D7 JUMP JUMPDEST PUSH1 0x40 MLOAD PUSH2 0xA53 SWAP2 SWAP1 PUSH2 0x4DAF JUMP JUMPDEST PUSH1 0x40 MLOAD DUP1 SWAP2 SUB SWAP1 RETURN JUMPDEST PUSH2 0xA76 PUSH1 0x4 DUP1 CALLDATASIZE SUB DUP2 ADD SWAP1 PUSH2 0xA71 SWAP2 SWAP1 PUSH2 0x427E JUMP JUMPDEST PUSH2 0x3930 JUMP JUMPDEST PUSH1 0x40 MLOAD PUSH2 0xA83 SWAP2 SWAP1 PUSH2 0x4DAF JUMP JUMPDEST PUSH1 0x40 MLOAD DUP1 SWAP2 SUB SWAP1 RETURN JUMPDEST PUSH2 0xAA6 PUSH1 0x4 DUP1 CALLDATASIZE SUB DUP2 ADD SWAP1 PUSH2 0xAA1 SWAP2 SWAP1 PUSH2 0x4430 JUMP JUMPDEST PUSH2 0x398A JUMP JUMPDEST PUSH1 0x40 MLOAD PUSH2 0xAB3 SWAP2 SWAP1 PUSH2 0x4CC8 JUMP JUMPDEST PUSH1 0x40 MLOAD DUP1 SWAP2 SUB SWAP1 RETURN JUMPDEST PUSH2 0xAD6 PUSH1 0x4 DUP1 CALLDATASIZE SUB DUP2 ADD SWAP1 PUSH2 0xAD1 SWAP2 SWAP1 PUSH2 0x427E JUMP JUMPDEST PUSH2 0x39C9 JUMP JUMPDEST PUSH1 0x40 MLOAD PUSH2 0xAE3 SWAP2 SWAP1 PUSH2 0x4DAF JUMP JUMPDEST PUSH1 0x40 MLOAD DUP1 SWAP2 SUB SWAP1 RETURN JUMPDEST PUSH2 0xB06 PUSH1 0x4 DUP1 CALLDATASIZE SUB DUP2 ADD SWAP1 PUSH2 0xB01 SWAP2 SWAP1 PUSH2 0x4430 JUMP JUMPDEST PUSH2 0x3A22 JUMP JUMPDEST PUSH1 0x40 MLOAD PUSH2 0xB13 SWAP2 SWAP1 PUSH2 0x4CC8 JUMP JUMPDEST PUSH1 0x40 MLOAD DUP1 SWAP2 SUB SWAP1 RETURN JUMPDEST PUSH2 0xB36 PUSH1 0x4 DUP1 CALLDATASIZE SUB DUP2 ADD SWAP1 PUSH2 0xB31 SWAP2 SWAP1 PUSH2 0x42FE JUMP JUMPDEST PUSH2 0x3A61 JUMP JUMPDEST STOP JUMPDEST PUSH2 0xB52 PUSH1 0x4 DUP1 CALLDATASIZE SUB DUP2 ADD SWAP1 PUSH2 0xB4D SWAP2 SWAP1 PUSH2 0x427E JUMP JUMPDEST PUSH2 0x3B07 JUMP JUMPDEST STOP JUMPDEST PUSH2 0xB6E PUSH1 0x4 DUP1 CALLDATASIZE SUB DUP2 ADD SWAP1 PUSH2 0xB69 SWAP2 SWAP1 PUSH2 0x43C1 JUMP JUMPDEST PUSH2 0x3C11 JUMP JUMPDEST STOP JUMPDEST PUSH2 0xB78 PUSH2 0x3DCF JUMP JUMPDEST PUSH1 0x40 MLOAD PUSH2 0xB85 SWAP2 SWAP1 PUSH2 0x4D6B JUMP JUMPDEST PUSH1 0x40 MLOAD DUP1 SWAP2 SUB SWAP1 RETURN JUMPDEST PUSH2 0xB97 DUP4 PUSH2 0x39C9 JUMP JUMPDEST ISZERO PUSH2 0xBD7 JUMPI PUSH1 0x40 MLOAD PUSH32 0x8C379A000000000000000000000000000000000000000000000000000000000 DUP2 MSTORE PUSH1 0x4 ADD PUSH2 0xBCE SWAP1 PUSH2 0x4FE3 JUMP JUMPDEST PUSH1 0x40 MLOAD DUP1 SWAP2 SUB SWAP1 REVERT JUMPDEST PUSH1 0x1 PUSH1 0x4 PUSH1 0x0 DUP6 PUSH20 0xFFFFFFFFFFFFFFFFFFFFFFFFFFFFFFFFFFFFFFFF AND PUSH20 0xFFFFFFFFFFFFFFFFFFFFFFFFFFFFFFFFFFFFFFFF AND DUP2 MSTORE PUSH1 0x20 ADD SWAP1 DUP2 MSTORE PUSH1 0x20 ADD PUSH1 0x0 KECCAK256 PUSH1 0x0 ADD PUSH1 0x0 PUSH2 0x100 EXP DUP2 SLOAD DUP2 PUSH1 0xFF MUL NOT AND SWAP1 DUP4 ISZERO ISZERO MUL OR SWAP1 SSTORE POP DUP2 PUSH1 0x4 PUSH1 0x0 DUP6 PUSH20 0xFFFFFFFFFFFFFFFFFFFFFFFFFFFFFFFFFFFFFFFF AND PUSH20 0xFFFFFFFFFFFFFFFFFFFFFFFFFFFFFFFFFFFFFFFF AND DUP2 MSTORE PUSH1 0x20 ADD SWAP1 DUP2 MSTORE PUSH1 0x20 ADD PUSH1 0x0 KECCAK256 PUSH1 0x1 ADD SWAP1 DUP1 MLOAD SWAP1 PUSH1 0x20 ADD SWAP1 PUSH2 0xC88 SWAP3 SWAP2 SWAP1 PUSH2 0x3FD7 JUMP JUMPDEST POP DUP1 PUSH1 0x4 PUSH1 0x0 DUP6 PUSH20 0xFFFFFFFFFFFFFFFFFFFFFFFFFFFFFFFFFFFFFFFF AND PUSH20 0xFFFFFFFFFFFFFFFFFFFFFFFFFFFFFFFFFFFFFFFF AND DUP2 MSTORE PUSH1 0x20 ADD SWAP1 DUP2 MSTORE PUSH1 0x20 ADD PUSH1 0x0 KECCAK256 PUSH1 0x2 ADD PUSH1 0x0 PUSH2 0x100 EXP DUP2 SLOAD DUP2 PUSH1 0xFF MUL NOT AND SWAP1 DUP4 PUSH1 0xFF AND MUL OR SWAP1 SSTORE POP PUSH1 0xD DUP4 SWAP1 DUP1 PUSH1 0x1 DUP2 SLOAD ADD DUP1 DUP3 SSTORE DUP1 SWAP2 POP POP PUSH1 0x1 SWAP1 SUB SWAP1 PUSH1 0x0 MSTORE PUSH1 0x20 PUSH1 0x0 KECCAK256 ADD PUSH1 0x0 SWAP1 SWAP2 SWAP1 SWAP2 SWAP1 SWAP2 PUSH2 0x100 EXP DUP2 SLOAD DUP2 PUSH20 0xFFFFFFFFFFFFFFFFFFFFFFFFFFFFFFFFFFFFFFFF MUL NOT AND SWAP1 DUP4 PUSH20 0xFFFFFFFFFFFFFFFFFFFFFFFFFFFFFFFFFFFFFFFF AND MUL OR SWAP1 SSTORE POP POP POP POP JUMP JUMPDEST PUSH1 0x0 PUSH1 0x7 PUSH1 0x0 DUP4 PUSH20 0xFFFFFFFFFFFFFFFFFFFFFFFFFFFFFFFFFFFFFFFF AND PUSH20 0xFFFFFFFFFFFFFFFFFFFFFFFFFFFFFFFFFFFFFFFF AND DUP2 MSTORE PUSH1 0x20 ADD SWAP1 DUP2 MSTORE PUSH1 0x20 ADD PUSH1 0x0 KECCAK256 PUSH1 0x0 ADD PUSH1 0x0 SWAP1 SLOAD SWAP1 PUSH2 0x100 EXP SWAP1 DIV PUSH1 0xFF AND SWAP1 POP SWAP2 SWAP1 POP JUMP JUMPDEST PUSH1 0x10 DUP2 DUP2 SLOAD DUP2 LT PUSH2 0xDB5 JUMPI PUSH1 0x0 DUP1 REVERT JUMPDEST SWAP1 PUSH1 0x0 MSTORE PUSH1 0x20 PUSH1 0x0 KECCAK256 ADD PUSH1 0x0 SWAP2 POP SLOAD SWAP1 PUSH2 0x100 EXP SWAP1 DIV PUSH20 0xFFFFFFFFFFFFFFFFFFFFFFFFFFFFFFFFFFFFFFFF AND DUP2 JUMP JUMPDEST PUSH1 0x12 DUP2 DUP2 SLOAD DUP2 LT PUSH2 0xDF4 JUMPI PUSH1 0x0 DUP1 REVERT JUMPDEST SWAP1 PUSH1 0x0 MSTORE PUSH1 0x20 PUSH1 0x0 KECCAK256 ADD PUSH1 0x0 SWAP2 POP SLOAD SWAP1 PUSH2 0x100 EXP SWAP1 DIV PUSH20 0xFFFFFFFFFFFFFFFFFFFFFFFFFFFFFFFFFFFFFFFF AND DUP2 JUMP JUMPDEST PUSH1 0x0 DUP2 PUSH20 0xFFFFFFFFFFFFFFFFFFFFFFFFFFFFFFFFFFFFFFFF AND PUSH1 0x1 PUSH1 0x0 SWAP1 SLOAD SWAP1 PUSH2 0x100 EXP SWAP1 DIV PUSH20 0xFFFFFFFFFFFFFFFFFFFFFFFFFFFFFFFFFFFFFFFF AND PUSH20 0xFFFFFFFFFFFFFFFFFFFFFFFFFFFFFFFFFFFFFFFF AND EQ SWAP1 POP SWAP2 SWAP1 POP JUMP JUMPDEST PUSH2 0xE86 DUP4 PUSH2 0x197A JUMP JUMPDEST PUSH2 0xEC5 JUMPI PUSH1 0x40 MLOAD PUSH32 0x8C379A000000000000000000000000000000000000000000000000000000000 DUP2 MSTORE PUSH1 0x4 ADD PUSH2 0xEBC SWAP1 PUSH2 0x5043 JUMP JUMPDEST PUSH1 0x40 MLOAD DUP1 SWAP2 SUB SWAP1 REVERT JUMPDEST PUSH1 0x1 PUSH1 0x8 PUSH1 0x0 DUP6 PUSH20 0xFFFFFFFFFFFFFFFFFFFFFFFFFFFFFFFFFFFFFFFF AND PUSH20 0xFFFFFFFFFFFFFFFFFFFFFFFFFFFFFFFFFFFFFFFF AND DUP2 MSTORE PUSH1 0x20 ADD SWAP1 DUP2 MSTORE PUSH1 0x20 ADD PUSH1 0x0 KECCAK256 PUSH1 0x0 ADD PUSH1 0x0 PUSH2 0x100 EXP DUP2 SLOAD DUP2 PUSH1 0xFF MUL NOT AND SWAP1 DUP4 ISZERO ISZERO MUL OR SWAP1 SSTORE POP DUP2 PUSH1 0x8 PUSH1 0x0 DUP6 PUSH20 0xFFFFFFFFFFFFFFFFFFFFFFFFFFFFFFFFFFFFFFFF AND PUSH20 0xFFFFFFFFFFFFFFFFFFFFFFFFFFFFFFFFFFFFFFFF AND DUP2 MSTORE PUSH1 0x20 ADD SWAP1 DUP2 MSTORE PUSH1 0x20 ADD PUSH1 0x0 KECCAK256 PUSH1 0x1 ADD SWAP1 DUP1 MLOAD SWAP1 PUSH1 0x20 ADD SWAP1 PUSH2 0xF76 SWAP3 SWAP2 SWAP1 PUSH2 0x3FD7 JUMP JUMPDEST POP DUP1 PUSH1 0x8 PUSH1 0x0 DUP6 PUSH20 0xFFFFFFFFFFFFFFFFFFFFFFFFFFFFFFFFFFFFFFFF AND PUSH20 0xFFFFFFFFFFFFFFFFFFFFFFFFFFFFFFFFFFFFFFFF AND DUP2 MSTORE PUSH1 0x20 ADD SWAP1 DUP2 MSTORE PUSH1 0x20 ADD PUSH1 0x0 KECCAK256 PUSH1 0x2 ADD PUSH1 0x0 PUSH2 0x100 EXP DUP2 SLOAD DUP2 PUSH1 0xFF MUL NOT AND SWAP1 DUP4 PUSH1 0xFF AND MUL OR SWAP1 SSTORE POP POP POP POP JUMP JUMPDEST PUSH2 0xFE0 DUP4 PUSH2 0x1D90 JUMP JUMPDEST ISZERO PUSH2 0x1020 JUMPI PUSH1 0x40 MLOAD PUSH32 0x8C379A000000000000000000000000000000000000000000000000000000000 DUP2 MSTORE PUSH1 0x4 ADD PUSH2 0x1017 SWAP1 PUSH2 0x4FC3 JUMP JUMPDEST PUSH1 0x40 MLOAD DUP1 SWAP2 SUB SWAP1 REVERT JUMPDEST PUSH1 0x1 PUSH1 0x9 PUSH1 0x0 DUP6 PUSH20 0xFFFFFFFFFFFFFFFFFFFFFFFFFFFFFFFFFFFFFFFF AND PUSH20 0xFFFFFFFFFFFFFFFFFFFFFFFFFFFFFFFFFFFFFFFF AND DUP2 MSTORE PUSH1 0x20 ADD SWAP1 DUP2 MSTORE PUSH1 0x20 ADD PUSH1 0x0 KECCAK256 PUSH1 0x0 ADD PUSH1 0x0 PUSH2 0x100 EXP DUP2 SLOAD DUP2 PUSH1 0xFF MUL NOT AND SWAP1 DUP4 ISZERO ISZERO MUL OR SWAP1 SSTORE POP DUP2 PUSH1 0x9 PUSH1 0x0 DUP6 PUSH20 0xFFFFFFFFFFFFFFFFFFFFFFFFFFFFFFFFFFFFFFFF AND PUSH20 0xFFFFFFFFFFFFFFFFFFFFFFFFFFFFFFFFFFFFFFFF AND DUP2 MSTORE PUSH1 0x20 ADD SWAP1 DUP2 MSTORE PUSH1 0x20 ADD PUSH1 0x0 KECCAK256 PUSH1 0x1 ADD SWAP1 DUP1 MLOAD SWAP1 PUSH1 0x20 ADD SWAP1 PUSH2 0x10D1 SWAP3 SWAP2 SWAP1 PUSH2 0x3FD7 JUMP JUMPDEST POP DUP1 PUSH1 0x9 PUSH1 0x0 DUP6 PUSH20 0xFFFFFFFFFFFFFFFFFFFFFFFFFFFFFFFFFFFFFFFF AND PUSH20 0xFFFFFFFFFFFFFFFFFFFFFFFFFFFFFFFFFFFFFFFF AND DUP2 MSTORE PUSH1 0x20 ADD SWAP1 DUP2 MSTORE PUSH1 0x20 ADD PUSH1 0x0 KECCAK256 PUSH1 0x2 ADD PUSH1 0x0 PUSH2 0x100 EXP DUP2 SLOAD DUP2 PUSH1 0xFF MUL NOT AND SWAP1 DUP4 PUSH1 0xFF AND MUL OR SWAP1 SSTORE POP PUSH1 0x11 DUP4 SWAP1 DUP1 PUSH1 0x1 DUP2 SLOAD ADD DUP1 DUP3 SSTORE DUP1 SWAP2 POP POP PUSH1 0x1 SWAP1 SUB SWAP1 PUSH1 0x0 MSTORE PUSH1 0x20 PUSH1 0x0 KECCAK256 ADD PUSH1 0x0 SWAP1 SWAP2 SWAP1 SWAP2 SWAP1 SWAP2 PUSH2 0x100 EXP DUP2 SLOAD DUP2 PUSH20 0xFFFFFFFFFFFFFFFFFFFFFFFFFFFFFFFFFFFFFFFF MUL NOT AND SWAP1 DUP4 PUSH20 0xFFFFFFFFFFFFFFFFFFFFFFFFFFFFFFFFFFFFFFFF AND MUL OR SWAP1 SSTORE POP POP POP POP JUMP JUMPDEST PUSH1 0x7 PUSH1 0x20 MSTORE DUP1 PUSH1 0x0 MSTORE PUSH1 0x40 PUSH1 0x0 KECCAK256 PUSH1 0x0 SWAP2 POP SWAP1 POP DUP1 PUSH1 0x0 ADD PUSH1 0x0 SWAP1 SLOAD SWAP1 PUSH2 0x100 EXP SWAP1 DIV PUSH1 0xFF AND SWAP1 DUP1 PUSH1 0x1 ADD DUP1 SLOAD PUSH2 0x11CB SWAP1 PUSH2 0x5386 JUMP JUMPDEST DUP1 PUSH1 0x1F ADD PUSH1 0x20 DUP1 SWAP2 DIV MUL PUSH1 0x20 ADD PUSH1 0x40 MLOAD SWAP1 DUP2 ADD PUSH1 0x40 MSTORE DUP1 SWAP3 SWAP2 SWAP1 DUP2 DUP2 MSTORE PUSH1 0x20 ADD DUP3 DUP1 SLOAD PUSH2 0x11F7 SWAP1 PUSH2 0x5386 JUMP JUMPDEST DUP1 ISZERO PUSH2 0x1244 JUMPI DUP1 PUSH1 0x1F LT PUSH2 0x1219 JUMPI PUSH2 0x100 DUP1 DUP4 SLOAD DIV MUL DUP4 MSTORE SWAP2 PUSH1 0x20 ADD SWAP2 PUSH2 0x1244 JUMP JUMPDEST DUP3 ADD SWAP2 SWAP1 PUSH1 0x0 MSTORE PUSH1 0x20 PUSH1 0x0 KECCAK256 SWAP1 JUMPDEST DUP2 SLOAD DUP2 MSTORE SWAP1 PUSH1 0x1 ADD SWAP1 PUSH1 0x20 ADD DUP1 DUP4 GT PUSH2 0x1227 JUMPI DUP3 SWAP1 SUB PUSH1 0x1F AND DUP3 ADD SWAP2 JUMPDEST POP POP POP POP POP SWAP1 DUP1 PUSH1 0x2 ADD PUSH1 0x0 SWAP1 SLOAD SWAP1 PUSH2 0x100 EXP SWAP1 DIV PUSH1 0xFF AND SWAP1 POP DUP4 JUMP JUMPDEST PUSH2 0x126A DUP2 PUSH2 0x1439 JUMP JUMPDEST PUSH2 0x12A9 JUMPI PUSH1 0x40 MLOAD PUSH32 0x8C379A000000000000000000000000000000000000000000000000000000000 DUP2 MSTORE PUSH1 0x4 ADD PUSH2 0x12A0 SWAP1 PUSH2 0x5063 JUMP JUMPDEST PUSH1 0x40 MLOAD DUP1 SWAP2 SUB SWAP1 REVERT JUMPDEST PUSH1 0x6 PUSH1 0x0 DUP3 PUSH20 0xFFFFFFFFFFFFFFFFFFFFFFFFFFFFFFFFFFFFFFFF AND PUSH20 0xFFFFFFFFFFFFFFFFFFFFFFFFFFFFFFFFFFFFFFFF AND DUP2 MSTORE PUSH1 0x20 ADD SWAP1 DUP2 MSTORE PUSH1 0x20 ADD PUSH1 0x0 KECCAK256 PUSH1 0x0 DUP1 DUP3 ADD PUSH1 0x0 PUSH2 0x100 EXP DUP2 SLOAD SWAP1 PUSH1 0xFF MUL NOT AND SWAP1 SSTORE PUSH1 0x0 DUP3 ADD PUSH1 0x1 PUSH2 0x100 EXP DUP2 SLOAD SWAP1 PUSH1 0xFF MUL NOT AND SWAP1 SSTORE PUSH1 0x1 DUP3 ADD PUSH1 0x0 SWAP1 SSTORE PUSH1 0x2 DUP3 ADD PUSH1 0x0 PUSH2 0x1329 SWAP2 SWAP1 PUSH2 0x405D JUMP JUMPDEST POP POP POP JUMP JUMPDEST PUSH1 0xD DUP2 DUP2 SLOAD DUP2 LT PUSH2 0x133E JUMPI PUSH1 0x0 DUP1 REVERT JUMPDEST SWAP1 PUSH1 0x0 MSTORE PUSH1 0x20 PUSH1 0x0 KECCAK256 ADD PUSH1 0x0 SWAP2 POP SLOAD SWAP1 PUSH2 0x100 EXP SWAP1 DIV PUSH20 0xFFFFFFFFFFFFFFFFFFFFFFFFFFFFFFFFFFFFFFFF AND DUP2 JUMP JUMPDEST PUSH1 0x4 PUSH1 0x20 MSTORE DUP1 PUSH1 0x0 MSTORE PUSH1 0x40 PUSH1 0x0 KECCAK256 PUSH1 0x0 SWAP2 POP SWAP1 POP DUP1 PUSH1 0x0 ADD PUSH1 0x0 SWAP1 SLOAD SWAP1 PUSH2 0x100 EXP SWAP1 DIV PUSH1 0xFF AND SWAP1 DUP1 PUSH1 0x1 ADD DUP1 SLOAD PUSH2 0x13A3 SWAP1 PUSH2 0x5386 JUMP JUMPDEST DUP1 PUSH1 0x1F ADD PUSH1 0x20 DUP1 SWAP2 DIV MUL PUSH1 0x20 ADD PUSH1 0x40 MLOAD SWAP1 DUP2 ADD PUSH1 0x40 MSTORE DUP1 SWAP3 SWAP2 SWAP1 DUP2 DUP2 MSTORE PUSH1 0x20 ADD DUP3 DUP1 SLOAD PUSH2 0x13CF SWAP1 PUSH2 0x5386 JUMP JUMPDEST DUP1 ISZERO PUSH2 0x141C JUMPI DUP1 PUSH1 0x1F LT PUSH2 0x13F1 JUMPI PUSH2 0x100 DUP1 DUP4 SLOAD DIV MUL DUP4 MSTORE SWAP2 PUSH1 0x20 ADD SWAP2 PUSH2 0x141C JUMP JUMPDEST DUP3 ADD SWAP2 SWAP1 PUSH1 0x0 MSTORE PUSH1 0x20 PUSH1 0x0 KECCAK256 SWAP1 JUMPDEST DUP2 SLOAD DUP2 MSTORE SWAP1 PUSH1 0x1 ADD SWAP1 PUSH1 0x20 ADD DUP1 DUP4 GT PUSH2 0x13FF JUMPI DUP3 SWAP1 SUB PUSH1 0x1F AND DUP3 ADD SWAP2 JUMPDEST POP POP POP POP POP SWAP1 DUP1 PUSH1 0x2 ADD PUSH1 0x0 SWAP1 SLOAD SWAP1 PUSH2 0x100 EXP SWAP1 DIV PUSH1 0xFF AND SWAP1 POP DUP4 JUMP JUMPDEST PUSH1 0x0 PUSH1 0x6 PUSH1 0x0 DUP4 PUSH20 0xFFFFFFFFFFFFFFFFFFFFFFFFFFFFFFFFFFFFFFFF AND PUSH20 0xFFFFFFFFFFFFFFFFFFFFFFFFFFFFFFFFFFFFFFFF AND DUP2 MSTORE PUSH1 0x20 ADD SWAP1 DUP2 MSTORE PUSH1 0x20 ADD PUSH1 0x0 KECCAK256 PUSH1 0x0 ADD PUSH1 0x0 SWAP1 SLOAD SWAP1 PUSH2 0x100 EXP SWAP1 DIV PUSH1 0xFF AND SWAP1 POP SWAP2 SWAP1 POP JUMP JUMPDEST PUSH1 0xA PUSH1 0x20 MSTORE DUP1 PUSH1 0x0 MSTORE PUSH1 0x40 PUSH1 0x0 KECCAK256 PUSH1 0x0 SWAP2 POP SWAP1 POP DUP1 PUSH1 0x0 ADD PUSH1 0x0 SWAP1 SLOAD SWAP1 PUSH2 0x100 EXP SWAP1 DIV PUSH1 0xFF AND SWAP1 DUP1 PUSH1 0x1 ADD DUP1 SLOAD PUSH2 0x14C8 SWAP1 PUSH2 0x5386 JUMP JUMPDEST DUP1 PUSH1 0x1F ADD PUSH1 0x20 DUP1 SWAP2 DIV MUL PUSH1 0x20 ADD PUSH1 0x40 MLOAD SWAP1 DUP2 ADD PUSH1 0x40 MSTORE DUP1 SWAP3 SWAP2 SWAP1 DUP2 DUP2 MSTORE PUSH1 0x20 ADD DUP3 DUP1 SLOAD PUSH2 0x14F4 SWAP1 PUSH2 0x5386 JUMP JUMPDEST DUP1 ISZERO PUSH2 0x1541 JUMPI DUP1 PUSH1 0x1F LT PUSH2 0x1516 JUMPI PUSH2 0x100 DUP1 DUP4 SLOAD DIV MUL DUP4 MSTORE SWAP2 PUSH1 0x20 ADD SWAP2 PUSH2 0x1541 JUMP JUMPDEST DUP3 ADD SWAP2 SWAP1 PUSH1 0x0 MSTORE PUSH1 0x20 PUSH1 0x0 KECCAK256 SWAP1 JUMPDEST DUP2 SLOAD DUP2 MSTORE SWAP1 PUSH1 0x1 ADD SWAP1 PUSH1 0x20 ADD DUP1 DUP4 GT PUSH2 0x1524 JUMPI DUP3 SWAP1 SUB PUSH1 0x1F AND DUP3 ADD SWAP2 JUMPDEST POP POP POP POP POP SWAP1 DUP1 PUSH1 0x2 ADD PUSH1 0x0 SWAP1 SLOAD SWAP1 PUSH2 0x100 EXP SWAP1 DIV PUSH1 0xFF AND SWAP1 POP DUP4 JUMP JUMPDEST DUP3 PUSH1 0x0 DUP1 PUSH2 0x100 EXP DUP2 SLOAD DUP2 PUSH20 0xFFFFFFFFFFFFFFFFFFFFFFFFFFFFFFFFFFFFFFFF MUL NOT AND SWAP1 DUP4 PUSH20 0xFFFFFFFFFFFFFFFFFFFFFFFFFFFFFFFFFFFFFFFF AND MUL OR SWAP1 SSTORE POP DUP2 PUSH1 0x1 PUSH1 0x0 PUSH2 0x100 EXP DUP2 SLOAD DUP2 PUSH20 0xFFFFFFFFFFFFFFFFFFFFFFFFFFFFFFFFFFFFFFFF MUL NOT AND SWAP1 DUP4 PUSH20 0xFFFFFFFFFFFFFFFFFFFFFFFFFFFFFFFFFFFFFFFF AND MUL OR SWAP1 SSTORE POP DUP1 PUSH1 0x2 PUSH1 0x0 PUSH2 0x100 EXP DUP2 SLOAD DUP2 PUSH20 0xFFFFFFFFFFFFFFFFFFFFFFFFFFFFFFFFFFFFFFFF MUL NOT AND SWAP1 DUP4 PUSH20 0xFFFFFFFFFFFFFFFFFFFFFFFFFFFFFFFFFFFFFFFF AND MUL OR SWAP1 SSTORE POP POP POP POP JUMP JUMPDEST PUSH1 0x6 PUSH1 0x20 MSTORE DUP1 PUSH1 0x0 MSTORE PUSH1 0x40 PUSH1 0x0 KECCAK256 PUSH1 0x0 SWAP2 POP SWAP1 POP DUP1 PUSH1 0x0 ADD PUSH1 0x0 SWAP1 SLOAD SWAP1 PUSH2 0x100 EXP SWAP1 DIV PUSH1 0xFF AND SWAP1 DUP1 PUSH1 0x0 ADD PUSH1 0x1 SWAP1 SLOAD SWAP1 PUSH2 0x100 EXP SWAP1 DIV PUSH1 0xFF AND SWAP1 DUP1 PUSH1 0x1 ADD SLOAD SWAP1 DUP1 PUSH1 0x2 ADD DUP1 SLOAD PUSH2 0x1674 SWAP1 PUSH2 0x5386 JUMP JUMPDEST DUP1 PUSH1 0x1F ADD PUSH1 0x20 DUP1 SWAP2 DIV MUL PUSH1 0x20 ADD PUSH1 0x40 MLOAD SWAP1 DUP2 ADD PUSH1 0x40 MSTORE DUP1 SWAP3 SWAP2 SWAP1 DUP2 DUP2 MSTORE PUSH1 0x20 ADD DUP3 DUP1 SLOAD PUSH2 0x16A0 SWAP1 PUSH2 0x5386 JUMP JUMPDEST DUP1 ISZERO PUSH2 0x16ED JUMPI DUP1 PUSH1 0x1F LT PUSH2 0x16C2 JUMPI PUSH2 0x100 DUP1 DUP4 SLOAD DIV MUL DUP4 MSTORE SWAP2 PUSH1 0x20 ADD SWAP2 PUSH2 0x16ED JUMP JUMPDEST DUP3 ADD SWAP2 SWAP1 PUSH1 0x0 MSTORE PUSH1 0x20 PUSH1 0x0 KECCAK256 SWAP1 JUMPDEST DUP2 SLOAD DUP2 MSTORE SWAP1 PUSH1 0x1 ADD SWAP1 PUSH1 0x20 ADD DUP1 DUP4 GT PUSH2 0x16D0 JUMPI DUP3 SWAP1 SUB PUSH1 0x1F AND DUP3 ADD SWAP2 JUMPDEST POP POP POP POP POP SWAP1 POP DUP5 JUMP JUMPDEST PUSH2 0x1700 DUP4 PUSH2 0xD4C JUMP JUMPDEST ISZERO PUSH2 0x1740 JUMPI PUSH1 0x40 MLOAD PUSH32 0x8C379A000000000000000000000000000000000000000000000000000000000 DUP2 MSTORE PUSH1 0x4 ADD PUSH2 0x1737 SWAP1 PUSH2 0x4EC3 JUMP JUMPDEST PUSH1 0x40 MLOAD DUP1 SWAP2 SUB SWAP1 REVERT JUMPDEST PUSH1 0x1 PUSH1 0x7 PUSH1 0x0 DUP6 PUSH20 0xFFFFFFFFFFFFFFFFFFFFFFFFFFFFFFFFFFFFFFFF AND PUSH20 0xFFFFFFFFFFFFFFFFFFFFFFFFFFFFFFFFFFFFFFFF AND DUP2 MSTORE PUSH1 0x20 ADD SWAP1 DUP2 MSTORE PUSH1 0x20 ADD PUSH1 0x0 KECCAK256 PUSH1 0x0 ADD PUSH1 0x0 PUSH2 0x100 EXP DUP2 SLOAD DUP2 PUSH1 0xFF MUL NOT AND SWAP1 DUP4 ISZERO ISZERO MUL OR SWAP1 SSTORE POP DUP2 PUSH1 0x7 PUSH1 0x0 DUP6 PUSH20 0xFFFFFFFFFFFFFFFFFFFFFFFFFFFFFFFFFFFFFFFF AND PUSH20 0xFFFFFFFFFFFFFFFFFFFFFFFFFFFFFFFFFFFFFFFF AND DUP2 MSTORE PUSH1 0x20 ADD SWAP1 DUP2 MSTORE PUSH1 0x20 ADD PUSH1 0x0 KECCAK256 PUSH1 0x1 ADD SWAP1 DUP1 MLOAD SWAP1 PUSH1 0x20 ADD SWAP1 PUSH2 0x17F1 SWAP3 SWAP2 SWAP1 PUSH2 0x3FD7 JUMP JUMPDEST POP DUP1 PUSH1 0x7 PUSH1 0x0 DUP6 PUSH20 0xFFFFFFFFFFFFFFFFFFFFFFFFFFFFFFFFFFFFFFFF AND PUSH20 0xFFFFFFFFFFFFFFFFFFFFFFFFFFFFFFFFFFFFFFFF AND DUP2 MSTORE PUSH1 0x20 ADD SWAP1 DUP2 MSTORE PUSH1 0x20 ADD PUSH1 0x0 KECCAK256 PUSH1 0x2 ADD PUSH1 0x0 PUSH2 0x100 EXP DUP2 SLOAD DUP2 PUSH1 0xFF MUL NOT AND SWAP1 DUP4 PUSH1 0xFF AND MUL OR SWAP1 SSTORE POP PUSH1 0xF DUP4 SWAP1 DUP1 PUSH1 0x1 DUP2 SLOAD ADD DUP1 DUP3 SSTORE DUP1 SWAP2 POP POP PUSH1 0x1 SWAP1 SUB SWAP1 PUSH1 0x0 MSTORE PUSH1 0x20 PUSH1 0x0 KECCAK256 ADD PUSH1 0x0 SWAP1 SWAP2 SWAP1 SWAP2 SWAP1 SWAP2 PUSH2 0x100 EXP DUP2 SLOAD DUP2 PUSH20 0xFFFFFFFFFFFFFFFFFFFFFFFFFFFFFFFFFFFFFFFF MUL NOT AND SWAP1 DUP4 PUSH20 0xFFFFFFFFFFFFFFFFFFFFFFFFFFFFFFFFFFFFFFFF AND MUL OR SWAP1 SSTORE POP POP POP POP JUMP JUMPDEST PUSH2 0x18BE DUP2 PUSH2 0x197A JUMP JUMPDEST PUSH2 0x18FD JUMPI PUSH1 0x40 MLOAD PUSH32 0x8C379A000000000000000000000000000000000000000000000000000000000 DUP2 MSTORE PUSH1 0x4 ADD PUSH2 0x18F4 SWAP1 PUSH2 0x5043 JUMP JUMPDEST PUSH1 0x40 MLOAD DUP1 SWAP2 SUB SWAP1 REVERT JUMPDEST PUSH1 0x8 PUSH1 0x0 DUP3 PUSH20 0xFFFFFFFFFFFFFFFFFFFFFFFFFFFFFFFFFFFFFFFF AND PUSH20 0xFFFFFFFFFFFFFFFFFFFFFFFFFFFFFFFFFFFFFFFF AND DUP2 MSTORE PUSH1 0x20 ADD SWAP1 DUP2 MSTORE PUSH1 0x20 ADD PUSH1 0x0 KECCAK256 PUSH1 0x0 DUP1 DUP3 ADD PUSH1 0x0 PUSH2 0x100 EXP DUP2 SLOAD SWAP1 PUSH1 0xFF MUL NOT AND SWAP1 SSTORE PUSH1 0x1 DUP3 ADD PUSH1 0x0 PUSH2 0x1961 SWAP2 SWAP1 PUSH2 0x405D JUMP JUMPDEST PUSH1 0x2 DUP3 ADD PUSH1 0x0 PUSH2 0x100 EXP DUP2 SLOAD SWAP1 PUSH1 0xFF MUL NOT AND SWAP1 SSTORE POP POP POP JUMP JUMPDEST PUSH1 0x0 PUSH1 0x8 PUSH1 0x0 DUP4 PUSH20 0xFFFFFFFFFFFFFFFFFFFFFFFFFFFFFFFFFFFFFFFF AND PUSH20 0xFFFFFFFFFFFFFFFFFFFFFFFFFFFFFFFFFFFFFFFF AND DUP2 MSTORE PUSH1 0x20 ADD SWAP1 DUP2 MSTORE PUSH1 0x20 ADD PUSH1 0x0 KECCAK256 PUSH1 0x0 ADD PUSH1 0x0 SWAP1 SLOAD SWAP1 PUSH2 0x100 EXP SWAP1 DIV PUSH1 0xFF AND SWAP1 POP SWAP2 SWAP1 POP JUMP JUMPDEST PUSH2 0x19DC DUP2 PUSH2 0x38D7 JUMP JUMPDEST PUSH2 0x1A1B JUMPI PUSH1 0x40 MLOAD PUSH32 0x8C379A000000000000000000000000000000000000000000000000000000000 DUP2 MSTORE PUSH1 0x4 ADD PUSH2 0x1A12 SWAP1 PUSH2 0x5003 JUMP JUMPDEST PUSH1 0x40 MLOAD DUP1 SWAP2 SUB SWAP1 REVERT JUMPDEST PUSH1 0xA PUSH1 0x0 DUP3 PUSH20 0xFFFFFFFFFFFFFFFFFFFFFFFFFFFFFFFFFFFFFFFF AND PUSH20 0xFFFFFFFFFFFFFFFFFFFFFFFFFFFFFFFFFFFFFFFF AND DUP2 MSTORE PUSH1 0x20 ADD SWAP1 DUP2 MSTORE PUSH1 0x20 ADD PUSH1 0x0 KECCAK256 PUSH1 0x0 DUP1 DUP3 ADD PUSH1 0x0 PUSH2 0x100 EXP DUP2 SLOAD SWAP1 PUSH1 0xFF MUL NOT AND SWAP1 SSTORE PUSH1 0x1 DUP3 ADD PUSH1 0x0 PUSH2 0x1A7F SWAP2 SWAP1 PUSH2 0x405D JUMP JUMPDEST PUSH1 0x2 DUP3 ADD PUSH1 0x0 PUSH2 0x100 EXP DUP2 SLOAD SWAP1 PUSH1 0xFF MUL NOT AND SWAP1 SSTORE POP POP POP JUMP JUMPDEST PUSH1 0x0 DUP1 SLOAD SWAP1 PUSH2 0x100 EXP SWAP1 DIV PUSH20 0xFFFFFFFFFFFFFFFFFFFFFFFFFFFFFFFFFFFFFFFF AND DUP2 JUMP JUMPDEST PUSH1 0x8 PUSH1 0x20 MSTORE DUP1 PUSH1 0x0 MSTORE PUSH1 0x40 PUSH1 0x0 KECCAK256 PUSH1 0x0 SWAP2 POP SWAP1 POP DUP1 PUSH1 0x0 ADD PUSH1 0x0 SWAP1 SLOAD SWAP1 PUSH2 0x100 EXP SWAP1 DIV PUSH1 0xFF AND SWAP1 DUP1 PUSH1 0x1 ADD DUP1 SLOAD PUSH2 0x1AF2 SWAP1 PUSH2 0x5386 JUMP JUMPDEST DUP1 PUSH1 0x1F ADD PUSH1 0x20 DUP1 SWAP2 DIV MUL PUSH1 0x20 ADD PUSH1 0x40 MLOAD SWAP1 DUP2 ADD PUSH1 0x40 MSTORE DUP1 SWAP3 SWAP2 SWAP1 DUP2 DUP2 MSTORE PUSH1 0x20 ADD DUP3 DUP1 SLOAD PUSH2 0x1B1E SWAP1 PUSH2 0x5386 JUMP JUMPDEST DUP1 ISZERO PUSH2 0x1B6B JUMPI DUP1 PUSH1 0x1F LT PUSH2 0x1B40 JUMPI PUSH2 0x100 DUP1 DUP4 SLOAD DIV MUL DUP4 MSTORE SWAP2 PUSH1 0x20 ADD SWAP2 PUSH2 0x1B6B JUMP JUMPDEST DUP3 ADD SWAP2 SWAP1 PUSH1 0x0 MSTORE PUSH1 0x20 PUSH1 0x0 KECCAK256 SWAP1 JUMPDEST DUP2 SLOAD DUP2 MSTORE SWAP1 PUSH1 0x1 ADD SWAP1 PUSH1 0x20 ADD DUP1 DUP4 GT PUSH2 0x1B4E JUMPI DUP3 SWAP1 SUB PUSH1 0x1F AND DUP3 ADD SWAP2 JUMPDEST POP POP POP POP POP SWAP1 DUP1 PUSH1 0x2 ADD PUSH1 0x0 SWAP1 SLOAD SWAP1 PUSH2 0x100 EXP SWAP1 DIV PUSH1 0xFF AND SWAP1 POP DUP4 JUMP JUMPDEST PUSH1 0x60 PUSH1 0x0 PUSH1 0xD DUP1 SLOAD SWAP1 POP PUSH8 0xFFFFFFFFFFFFFFFF DUP2 GT ISZERO PUSH2 0x1BAB JUMPI PUSH2 0x1BAA PUSH2 0x54EE JUMP JUMPDEST JUMPDEST PUSH1 0x40 MLOAD SWAP1 DUP1 DUP3 MSTORE DUP1 PUSH1 0x20 MUL PUSH1 0x20 ADD DUP3 ADD PUSH1 0x40 MSTORE DUP1 ISZERO PUSH2 0x1BE4 JUMPI DUP2 PUSH1 0x20 ADD JUMPDEST PUSH2 0x1BD1 PUSH2 0x409D JUMP JUMPDEST DUP2 MSTORE PUSH1 0x20 ADD SWAP1 PUSH1 0x1 SWAP1 SUB SWAP1 DUP2 PUSH2 0x1BC9 JUMPI SWAP1 POP JUMPDEST POP SWAP1 POP PUSH1 0x0 DUP1 JUMPDEST PUSH1 0xD DUP1 SLOAD SWAP1 POP DUP2 LT ISZERO PUSH2 0x1D87 JUMPI PUSH1 0x4 PUSH1 0x0 PUSH1 0xD DUP4 DUP2 SLOAD DUP2 LT PUSH2 0x1C10 JUMPI PUSH2 0x1C0F PUSH2 0x54BF JUMP JUMPDEST JUMPDEST SWAP1 PUSH1 0x0 MSTORE PUSH1 0x20 PUSH1 0x0 KECCAK256 ADD PUSH1 0x0 SWAP1 SLOAD SWAP1 PUSH2 0x100 EXP SWAP1 DIV PUSH20 0xFFFFFFFFFFFFFFFFFFFFFFFFFFFFFFFFFFFFFFFF AND PUSH20 0xFFFFFFFFFFFFFFFFFFFFFFFFFFFFFFFFFFFFFFFF AND PUSH20 0xFFFFFFFFFFFFFFFFFFFFFFFFFFFFFFFFFFFFFFFF AND DUP2 MSTORE PUSH1 0x20 ADD SWAP1 DUP2 MSTORE PUSH1 0x20 ADD PUSH1 0x0 KECCAK256 PUSH1 0x40 MLOAD DUP1 PUSH1 0x60 ADD PUSH1 0x40 MSTORE SWAP1 DUP2 PUSH1 0x0 DUP3 ADD PUSH1 0x0 SWAP1 SLOAD SWAP1 PUSH2 0x100 EXP SWAP1 DIV PUSH1 0xFF AND ISZERO ISZERO ISZERO ISZERO DUP2 MSTORE PUSH1 0x20 ADD PUSH1 0x1 DUP3 ADD DUP1 SLOAD PUSH2 0x1CAB SWAP1 PUSH2 0x5386 JUMP JUMPDEST DUP1 PUSH1 0x1F ADD PUSH1 0x20 DUP1 SWAP2 DIV MUL PUSH1 0x20 ADD PUSH1 0x40 MLOAD SWAP1 DUP2 ADD PUSH1 0x40 MSTORE DUP1 SWAP3 SWAP2 SWAP1 DUP2 DUP2 MSTORE PUSH1 0x20 ADD DUP3 DUP1 SLOAD PUSH2 0x1CD7 SWAP1 PUSH2 0x5386 JUMP JUMPDEST DUP1 ISZERO PUSH2 0x1D24 JUMPI DUP1 PUSH1 0x1F LT PUSH2 0x1CF9 JUMPI PUSH2 0x100 DUP1 DUP4 SLOAD DIV MUL DUP4 MSTORE SWAP2 PUSH1 0x20 ADD SWAP2 PUSH2 0x1D24 JUMP JUMPDEST DUP3 ADD SWAP2 SWAP1 PUSH1 0x0 MSTORE PUSH1 0x20 PUSH1 0x0 KECCAK256 SWAP1 JUMPDEST DUP2 SLOAD DUP2 MSTORE SWAP1 PUSH1 0x1 ADD SWAP1 PUSH1 0x20 ADD DUP1 DUP4 GT PUSH2 0x1D07 JUMPI DUP3 SWAP1 SUB PUSH1 0x1F AND DUP3 ADD SWAP2 JUMPDEST POP POP POP POP POP DUP2 MSTORE PUSH1 0x20 ADD PUSH1 0x2 DUP3 ADD PUSH1 0x0 SWAP1 SLOAD SWAP1 PUSH2 0x100 EXP SWAP1 DIV PUSH1 0xFF AND PUSH1 0xFF AND PUSH1 0xFF AND DUP2 MSTORE POP POP DUP4 DUP4 DUP1 PUSH2 0x1D56 SWAP1 PUSH2 0x53E9 JUMP JUMPDEST SWAP5 POP DUP2 MLOAD DUP2 LT PUSH2 0x1D69 JUMPI PUSH2 0x1D68 PUSH2 0x54BF JUMP JUMPDEST JUMPDEST PUSH1 0x20 MUL PUSH1 0x20 ADD ADD DUP2 SWAP1 MSTORE POP DUP1 DUP1 PUSH2 0x1D7F SWAP1 PUSH2 0x53E9 JUMP JUMPDEST SWAP2 POP POP PUSH2 0x1BEB JUMP JUMPDEST POP DUP2 SWAP3 POP POP POP SWAP1 JUMP JUMPDEST PUSH1 0x0 PUSH1 0x9 PUSH1 0x0 DUP4 PUSH20 0xFFFFFFFFFFFFFFFFFFFFFFFFFFFFFFFFFFFFFFFF AND PUSH20 0xFFFFFFFFFFFFFFFFFFFFFFFFFFFFFFFFFFFFFFFF AND DUP2 MSTORE PUSH1 0x20 ADD SWAP1 DUP2 MSTORE PUSH1 0x20 ADD PUSH1 0x0 KECCAK256 PUSH1 0x0 ADD PUSH1 0x0 SWAP1 SLOAD SWAP1 PUSH2 0x100 EXP SWAP1 DIV PUSH1 0xFF AND SWAP1 POP SWAP2 SWAP1 POP JUMP JUMPDEST PUSH2 0x1DF2 DUP4 PUSH2 0x1D90 JUMP JUMPDEST PUSH2 0x1E31 JUMPI PUSH1 0x40 MLOAD PUSH32 0x8C379A000000000000000000000000000000000000000000000000000000000 DUP2 MSTORE PUSH1 0x4 ADD PUSH2 0x1E28 SWAP1 PUSH2 0x4FA3 JUMP JUMPDEST PUSH1 0x40 MLOAD DUP1 SWAP2 SUB SWAP1 REVERT JUMPDEST PUSH1 0x1 PUSH1 0x9 PUSH1 0x0 DUP6 PUSH20 0xFFFFFFFFFFFFFFFFFFFFFFFFFFFFFFFFFFFFFFFF AND PUSH20 0xFFFFFFFFFFFFFFFFFFFFFFFFFFFFFFFFFFFFFFFF AND DUP2 MSTORE PUSH1 0x20 ADD SWAP1 DUP2 MSTORE PUSH1 0x20 ADD PUSH1 0x0 KECCAK256 PUSH1 0x0 ADD PUSH1 0x0 PUSH2 0x100 EXP DUP2 SLOAD DUP2 PUSH1 0xFF MUL NOT AND SWAP1 DUP4 ISZERO ISZERO MUL OR SWAP1 SSTORE POP DUP2 PUSH1 0x9 PUSH1 0x0 DUP6 PUSH20 0xFFFFFFFFFFFFFFFFFFFFFFFFFFFFFFFFFFFFFFFF AND PUSH20 0xFFFFFFFFFFFFFFFFFFFFFFFFFFFFFFFFFFFFFFFF AND DUP2 MSTORE PUSH1 0x20 ADD SWAP1 DUP2 MSTORE PUSH1 0x20 ADD PUSH1 0x0 KECCAK256 PUSH1 0x1 ADD SWAP1 DUP1 MLOAD SWAP1 PUSH1 0x20 ADD SWAP1 PUSH2 0x1EE2 SWAP3 SWAP2 SWAP1 PUSH2 0x3FD7 JUMP JUMPDEST POP DUP1 PUSH1 0x9 PUSH1 0x0 DUP6 PUSH20 0xFFFFFFFFFFFFFFFFFFFFFFFFFFFFFFFFFFFFFFFF AND PUSH20 0xFFFFFFFFFFFFFFFFFFFFFFFFFFFFFFFFFFFFFFFF AND DUP2 MSTORE PUSH1 0x20 ADD SWAP1 DUP2 MSTORE PUSH1 0x20 ADD PUSH1 0x0 KECCAK256 PUSH1 0x2 ADD PUSH1 0x0 PUSH2 0x100 EXP DUP2 SLOAD DUP2 PUSH1 0xFF MUL NOT AND SWAP1 DUP4 PUSH1 0xFF AND MUL OR SWAP1 SSTORE POP POP POP POP JUMP JUMPDEST PUSH1 0x9 PUSH1 0x20 MSTORE DUP1 PUSH1 0x0 MSTORE PUSH1 0x40 PUSH1 0x0 KECCAK256 PUSH1 0x0 SWAP2 POP SWAP1 POP DUP1 PUSH1 0x0 ADD PUSH1 0x0 SWAP1 SLOAD SWAP1 PUSH2 0x100 EXP SWAP1 DIV PUSH1 0xFF AND SWAP1 DUP1 PUSH1 0x1 ADD DUP1 SLOAD PUSH2 0x1F79 SWAP1 PUSH2 0x5386 JUMP JUMPDEST DUP1 PUSH1 0x1F ADD PUSH1 0x20 DUP1 SWAP2 DIV MUL PUSH1 0x20 ADD PUSH1 0x40 MLOAD SWAP1 DUP2 ADD PUSH1 0x40 MSTORE DUP1 SWAP3 SWAP2 SWAP1 DUP2 DUP2 MSTORE PUSH1 0x20 ADD DUP3 DUP1 SLOAD PUSH2 0x1FA5 SWAP1 PUSH2 0x5386 JUMP JUMPDEST DUP1 ISZERO PUSH2 0x1FF2 JUMPI DUP1 PUSH1 0x1F LT PUSH2 0x1FC7 JUMPI PUSH2 0x100 DUP1 DUP4 SLOAD DIV MUL DUP4 MSTORE SWAP2 PUSH1 0x20 ADD SWAP2 PUSH2 0x1FF2 JUMP JUMPDEST DUP3 ADD SWAP2 SWAP1 PUSH1 0x0 MSTORE PUSH1 0x20 PUSH1 0x0 KECCAK256 SWAP1 JUMPDEST DUP2 SLOAD DUP2 MSTORE SWAP1 PUSH1 0x1 ADD SWAP1 PUSH1 0x20 ADD DUP1 DUP4 GT PUSH2 0x1FD5 JUMPI DUP3 SWAP1 SUB PUSH1 0x1F AND DUP3 ADD SWAP2 JUMPDEST POP POP POP POP POP SWAP1 DUP1 PUSH1 0x2 ADD PUSH1 0x0 SWAP1 SLOAD SWAP1 PUSH2 0x100 EXP SWAP1 DIV PUSH1 0xFF AND SWAP1 POP DUP4 JUMP JUMPDEST PUSH2 0x2018 DUP2 PUSH2 0x39C9 JUMP JUMPDEST PUSH2 0x2057 JUMPI PUSH1 0x40 MLOAD PUSH32 0x8C379A000000000000000000000000000000000000000000000000000000000 DUP2 MSTORE PUSH1 0x4 ADD PUSH2 0x204E SWAP1 PUSH2 0x4FE3 JUMP JUMPDEST PUSH1 0x40 MLOAD DUP1 SWAP2 SUB SWAP1 REVERT JUMPDEST PUSH1 0x4 PUSH1 0x0 DUP3 PUSH20 0xFFFFFFFFFFFFFFFFFFFFFFFFFFFFFFFFFFFFFFFF AND PUSH20 0xFFFFFFFFFFFFFFFFFFFFFFFFFFFFFFFFFFFFFFFF AND DUP2 MSTORE PUSH1 0x20 ADD SWAP1 DUP2 MSTORE PUSH1 0x20 ADD PUSH1 0x0 KECCAK256 PUSH1 0x0 DUP1 DUP3 ADD PUSH1 0x0 PUSH2 0x100 EXP DUP2 SLOAD SWAP1 PUSH1 0xFF MUL NOT AND SWAP1 SSTORE PUSH1 0x1 DUP3 ADD PUSH1 0x0 PUSH2 0x20BB SWAP2 SWAP1 PUSH2 0x405D JUMP JUMPDEST PUSH1 0x2 DUP3 ADD PUSH1 0x0 PUSH2 0x100 EXP DUP2 SLOAD SWAP1 PUSH1 0xFF MUL NOT AND SWAP1 SSTORE POP POP POP JUMP JUMPDEST PUSH2 0x20DD DUP4 PUSH2 0x38D7 JUMP JUMPDEST ISZERO PUSH2 0x211D JUMPI PUSH1 0x40 MLOAD PUSH32 0x8C379A000000000000000000000000000000000000000000000000000000000 DUP2 MSTORE PUSH1 0x4 ADD PUSH2 0x2114 SWAP1 PUSH2 0x4F83 JUMP JUMPDEST PUSH1 0x40 MLOAD DUP1 SWAP2 SUB SWAP1 REVERT JUMPDEST PUSH1 0x1 PUSH1 0xA PUSH1 0x0 DUP6 PUSH20 0xFFFFFFFFFFFFFFFFFFFFFFFFFFFFFFFFFFFFFFFF AND PUSH20 0xFFFFFFFFFFFFFFFFFFFFFFFFFFFFFFFFFFFFFFFF AND DUP2 MSTORE PUSH1 0x20 ADD SWAP1 DUP2 MSTORE PUSH1 0x20 ADD PUSH1 0x0 KECCAK256 PUSH1 0x0 ADD PUSH1 0x0 PUSH2 0x100 EXP DUP2 SLOAD DUP2 PUSH1 0xFF MUL NOT AND SWAP1 DUP4 ISZERO ISZERO MUL OR SWAP1 SSTORE POP DUP2 PUSH1 0xA PUSH1 0x0 DUP6 PUSH20 0xFFFFFFFFFFFFFFFFFFFFFFFFFFFFFFFFFFFFFFFF AND PUSH20 0xFFFFFFFFFFFFFFFFFFFFFFFFFFFFFFFFFFFFFFFF AND DUP2 MSTORE PUSH1 0x20 ADD SWAP1 DUP2 MSTORE PUSH1 0x20 ADD PUSH1 0x0 KECCAK256 PUSH1 0x1 ADD SWAP1 DUP1 MLOAD SWAP1 PUSH1 0x20 ADD SWAP1 PUSH2 0x21CE SWAP3 SWAP2 SWAP1 PUSH2 0x3FD7 JUMP JUMPDEST POP DUP1 PUSH1 0xA PUSH1 0x0 DUP6 PUSH20 0xFFFFFFFFFFFFFFFFFFFFFFFFFFFFFFFFFFFFFFFF AND PUSH20 0xFFFFFFFFFFFFFFFFFFFFFFFFFFFFFFFFFFFFFFFF AND DUP2 MSTORE PUSH1 0x20 ADD SWAP1 DUP2 MSTORE PUSH1 0x20 ADD PUSH1 0x0 KECCAK256 PUSH1 0x2 ADD PUSH1 0x0 PUSH2 0x100 EXP DUP2 SLOAD DUP2 PUSH1 0xFF MUL NOT AND SWAP1 DUP4 PUSH1 0xFF AND MUL OR SWAP1 SSTORE POP PUSH1 0x12 DUP4 SWAP1 DUP1 PUSH1 0x1 DUP2 SLOAD ADD DUP1 DUP3 SSTORE DUP1 SWAP2 POP POP PUSH1 0x1 SWAP1 SUB SWAP1 PUSH1 0x0 MSTORE PUSH1 0x20 PUSH1 0x0 KECCAK256 ADD PUSH1 0x0 SWAP1 SWAP2 SWAP1 SWAP2 SWAP1 SWAP2 PUSH2 0x100 EXP DUP2 SLOAD DUP2 PUSH20 0xFFFFFFFFFFFFFFFFFFFFFFFFFFFFFFFFFFFFFFFF MUL NOT AND SWAP1 DUP4 PUSH20 0xFFFFFFFFFFFFFFFFFFFFFFFFFFFFFFFFFFFFFFFF AND MUL OR SWAP1 SSTORE POP POP POP POP JUMP JUMPDEST PUSH1 0x60 PUSH1 0x0 PUSH1 0x11 DUP1 SLOAD SWAP1 POP PUSH8 0xFFFFFFFFFFFFFFFF DUP2 GT ISZERO PUSH2 0x22B5 JUMPI PUSH2 0x22B4 PUSH2 0x54EE JUMP JUMPDEST JUMPDEST PUSH1 0x40 MLOAD SWAP1 DUP1 DUP3 MSTORE DUP1 PUSH1 0x20 MUL PUSH1 0x20 ADD DUP3 ADD PUSH1 0x40 MSTORE DUP1 ISZERO PUSH2 0x22EE JUMPI DUP2 PUSH1 0x20 ADD JUMPDEST PUSH2 0x22DB PUSH2 0x40C3 JUMP JUMPDEST DUP2 MSTORE PUSH1 0x20 ADD SWAP1 PUSH1 0x1 SWAP1 SUB SWAP1 DUP2 PUSH2 0x22D3 JUMPI SWAP1 POP JUMPDEST POP SWAP1 POP PUSH1 0x0 DUP1 JUMPDEST PUSH1 0x11 DUP1 SLOAD SWAP1 POP DUP2 LT ISZERO PUSH2 0x2491 JUMPI PUSH1 0x9 PUSH1 0x0 PUSH1 0x11 DUP4 DUP2 SLOAD DUP2 LT PUSH2 0x231A JUMPI PUSH2 0x2319 PUSH2 0x54BF JUMP JUMPDEST JUMPDEST SWAP1 PUSH1 0x0 MSTORE PUSH1 0x20 PUSH1 0x0 KECCAK256 ADD PUSH1 0x0 SWAP1 SLOAD SWAP1 PUSH2 0x100 EXP SWAP1 DIV PUSH20 0xFFFFFFFFFFFFFFFFFFFFFFFFFFFFFFFFFFFFFFFF AND PUSH20 0xFFFFFFFFFFFFFFFFFFFFFFFFFFFFFFFFFFFFFFFF AND PUSH20 0xFFFFFFFFFFFFFFFFFFFFFFFFFFFFFFFFFFFFFFFF AND DUP2 MSTORE PUSH1 0x20 ADD SWAP1 DUP2 MSTORE PUSH1 0x20 ADD PUSH1 0x0 KECCAK256 PUSH1 0x40 MLOAD DUP1 PUSH1 0x60 ADD PUSH1 0x40 MSTORE SWAP1 DUP2 PUSH1 0x0 DUP3 ADD PUSH1 0x0 SWAP1 SLOAD SWAP1 PUSH2 0x100 EXP SWAP1 DIV PUSH1 0xFF AND ISZERO ISZERO ISZERO ISZERO DUP2 MSTORE PUSH1 0x20 ADD PUSH1 0x1 DUP3 ADD DUP1 SLOAD PUSH2 0x23B5 SWAP1 PUSH2 0x5386 JUMP JUMPDEST DUP1 PUSH1 0x1F ADD PUSH1 0x20 DUP1 SWAP2 DIV MUL PUSH1 0x20 ADD PUSH1 0x40 MLOAD SWAP1 DUP2 ADD PUSH1 0x40 MSTORE DUP1 SWAP3 SWAP2 SWAP1 DUP2 DUP2 MSTORE PUSH1 0x20 ADD DUP3 DUP1 SLOAD PUSH2 0x23E1 SWAP1 PUSH2 0x5386 JUMP JUMPDEST DUP1 ISZERO PUSH2 0x242E JUMPI DUP1 PUSH1 0x1F LT PUSH2 0x2403 JUMPI PUSH2 0x100 DUP1 DUP4 SLOAD DIV MUL DUP4 MSTORE SWAP2 PUSH1 0x20 ADD SWAP2 PUSH2 0x242E JUMP JUMPDEST DUP3 ADD SWAP2 SWAP1 PUSH1 0x0 MSTORE PUSH1 0x20 PUSH1 0x0 KECCAK256 SWAP1 JUMPDEST DUP2 SLOAD DUP2 MSTORE SWAP1 PUSH1 0x1 ADD SWAP1 PUSH1 0x20 ADD DUP1 DUP4 GT PUSH2 0x2411 JUMPI DUP3 SWAP1 SUB PUSH1 0x1F AND DUP3 ADD SWAP2 JUMPDEST POP POP POP POP POP DUP2 MSTORE PUSH1 0x20 ADD PUSH1 0x2 DUP3 ADD PUSH1 0x0 SWAP1 SLOAD SWAP1 PUSH2 0x100 EXP SWAP1 DIV PUSH1 0xFF AND PUSH1 0xFF AND PUSH1 0xFF AND DUP2 MSTORE POP POP DUP4 DUP4 DUP1 PUSH2 0x2460 SWAP1 PUSH2 0x53E9 JUMP JUMPDEST SWAP5 POP DUP2 MLOAD DUP2 LT PUSH2 0x2473 JUMPI PUSH2 0x2472 PUSH2 0x54BF JUMP JUMPDEST JUMPDEST PUSH1 0x20 MUL PUSH1 0x20 ADD ADD DUP2 SWAP1 MSTORE POP DUP1 DUP1 PUSH2 0x2489 SWAP1 PUSH2 0x53E9 JUMP JUMPDEST SWAP2 POP POP PUSH2 0x22F5 JUMP JUMPDEST POP DUP2 SWAP3 POP POP POP SWAP1 JUMP JUMPDEST PUSH1 0xB PUSH1 0x20 MSTORE DUP1 PUSH1 0x0 MSTORE PUSH1 0x40 PUSH1 0x0 KECCAK256 PUSH1 0x0 SWAP2 POP SWAP1 POP DUP1 PUSH1 0x0 ADD PUSH1 0x0 SWAP1 SLOAD SWAP1 PUSH2 0x100 EXP SWAP1 DIV PUSH4 0xFFFFFFFF AND SWAP1 DUP1 PUSH1 0x1 ADD DUP1 SLOAD PUSH2 0x24D3 SWAP1 PUSH2 0x5386 JUMP JUMPDEST DUP1 PUSH1 0x1F ADD PUSH1 0x20 DUP1 SWAP2 DIV MUL PUSH1 0x20 ADD PUSH1 0x40 MLOAD SWAP1 DUP2 ADD PUSH1 0x40 MSTORE DUP1 SWAP3 SWAP2 SWAP1 DUP2 DUP2 MSTORE PUSH1 0x20 ADD DUP3 DUP1 SLOAD PUSH2 0x24FF SWAP1 PUSH2 0x5386 JUMP JUMPDEST DUP1 ISZERO PUSH2 0x254C JUMPI DUP1 PUSH1 0x1F LT PUSH2 0x2521 JUMPI PUSH2 0x100 DUP1 DUP4 SLOAD DIV MUL DUP4 MSTORE SWAP2 PUSH1 0x20 ADD SWAP2 PUSH2 0x254C JUMP JUMPDEST DUP3 ADD SWAP2 SWAP1 PUSH1 0x0 MSTORE PUSH1 0x20 PUSH1 0x0 KECCAK256 SWAP1 JUMPDEST DUP2 SLOAD DUP2 MSTORE SWAP1 PUSH1 0x1 ADD SWAP1 PUSH1 0x20 ADD DUP1 DUP4 GT PUSH2 0x252F JUMPI DUP3 SWAP1 SUB PUSH1 0x1F AND DUP3 ADD SWAP2 JUMPDEST POP POP POP POP POP SWAP1 POP DUP3 JUMP JUMPDEST PUSH2 0x255F DUP5 PUSH2 0x1439 JUMP JUMPDEST PUSH2 0x259E JUMPI PUSH1 0x40 MLOAD PUSH32 0x8C379A000000000000000000000000000000000000000000000000000000000 DUP2 MSTORE PUSH1 0x4 ADD PUSH2 0x2595 SWAP1 PUSH2 0x5063 JUMP JUMPDEST PUSH1 0x40 MLOAD DUP1 SWAP2 SUB SWAP1 REVERT JUMPDEST PUSH1 0x1 PUSH1 0x6 PUSH1 0x0 DUP7 PUSH20 0xFFFFFFFFFFFFFFFFFFFFFFFFFFFFFFFFFFFFFFFF AND PUSH20 0xFFFFFFFFFFFFFFFFFFFFFFFFFFFFFFFFFFFFFFFF AND DUP2 MSTORE PUSH1 0x20 ADD SWAP1 DUP2 MSTORE PUSH1 0x20 ADD PUSH1 0x0 KECCAK256 PUSH1 0x0 ADD PUSH1 0x0 PUSH2 0x100 EXP DUP2 SLOAD DUP2 PUSH1 0xFF MUL NOT AND SWAP1 DUP4 ISZERO ISZERO MUL OR SWAP1 SSTORE POP DUP3 PUSH1 0x6 PUSH1 0x0 DUP7 PUSH20 0xFFFFFFFFFFFFFFFFFFFFFFFFFFFFFFFFFFFFFFFF AND PUSH20 0xFFFFFFFFFFFFFFFFFFFFFFFFFFFFFFFFFFFFFFFF AND DUP2 MSTORE PUSH1 0x20 ADD SWAP1 DUP2 MSTORE PUSH1 0x20 ADD PUSH1 0x0 KECCAK256 PUSH1 0x2 ADD SWAP1 DUP1 MLOAD SWAP1 PUSH1 0x20 ADD SWAP1 PUSH2 0x264F SWAP3 SWAP2 SWAP1 PUSH2 0x3FD7 JUMP JUMPDEST POP DUP1 PUSH1 0x6 PUSH1 0x0 DUP7 PUSH20 0xFFFFFFFFFFFFFFFFFFFFFFFFFFFFFFFFFFFFFFFF AND PUSH20 0xFFFFFFFFFFFFFFFFFFFFFFFFFFFFFFFFFFFFFFFF AND DUP2 MSTORE PUSH1 0x20 ADD SWAP1 DUP2 MSTORE PUSH1 0x20 ADD PUSH1 0x0 KECCAK256 PUSH1 0x0 ADD PUSH1 0x1 PUSH2 0x100 EXP DUP2 SLOAD DUP2 PUSH1 0xFF MUL NOT AND SWAP1 DUP4 PUSH1 0xFF AND MUL OR SWAP1 SSTORE POP DUP2 PUSH1 0x6 PUSH1 0x0 DUP7 PUSH20 0xFFFFFFFFFFFFFFFFFFFFFFFFFFFFFFFFFFFFFFFF AND PUSH20 0xFFFFFFFFFFFFFFFFFFFFFFFFFFFFFFFFFFFFFFFF AND DUP2 MSTORE PUSH1 0x20 ADD SWAP1 DUP2 MSTORE PUSH1 0x20 ADD PUSH1 0x0 KECCAK256 PUSH1 0x1 ADD DUP2 SWAP1 SSTORE POP POP POP POP POP JUMP JUMPDEST PUSH2 0x2701 DUP2 PUSH2 0xD4C JUMP JUMPDEST PUSH2 0x2740 JUMPI PUSH1 0x40 MLOAD PUSH32 0x8C379A000000000000000000000000000000000000000000000000000000000 DUP2 MSTORE PUSH1 0x4 ADD PUSH2 0x2737 SWAP1 PUSH2 0x5083 JUMP JUMPDEST PUSH1 0x40 MLOAD DUP1 SWAP2 SUB SWAP1 REVERT JUMPDEST PUSH1 0x7 PUSH1 0x0 DUP3 PUSH20 0xFFFFFFFFFFFFFFFFFFFFFFFFFFFFFFFFFFFFFFFF AND PUSH20 0xFFFFFFFFFFFFFFFFFFFFFFFFFFFFFFFFFFFFFFFF AND DUP2 MSTORE PUSH1 0x20 ADD SWAP1 DUP2 MSTORE PUSH1 0x20 ADD PUSH1 0x0 KECCAK256 PUSH1 0x0 DUP1 DUP3 ADD PUSH1 0x0 PUSH2 0x100 EXP DUP2 SLOAD SWAP1 PUSH1 0xFF MUL NOT AND SWAP1 SSTORE PUSH1 0x1 DUP3 ADD PUSH1 0x0 PUSH2 0x27A4 SWAP2 SWAP1 PUSH2 0x405D JUMP JUMPDEST PUSH1 0x2 DUP3 ADD PUSH1 0x0 PUSH2 0x100 EXP DUP2 SLOAD SWAP1 PUSH1 0xFF MUL NOT AND SWAP1 SSTORE POP POP POP JUMP JUMPDEST PUSH1 0xE DUP2 DUP2 SLOAD DUP2 LT PUSH2 0x27CD JUMPI PUSH1 0x0 DUP1 REVERT JUMPDEST SWAP1 PUSH1 0x0 MSTORE PUSH1 0x20 PUSH1 0x0 KECCAK256 ADD PUSH1 0x0 SWAP2 POP SLOAD SWAP1 PUSH2 0x100 EXP SWAP1 DIV PUSH20 0xFFFFFFFFFFFFFFFFFFFFFFFFFFFFFFFFFFFFFFFF AND DUP2 JUMP JUMPDEST PUSH2 0x2805 DUP4 PUSH2 0x38D7 JUMP JUMPDEST PUSH2 0x2844 JUMPI PUSH1 0x40 MLOAD PUSH32 0x8C379A000000000000000000000000000000000000000000000000000000000 DUP2 MSTORE PUSH1 0x4 ADD PUSH2 0x283B SWAP1 PUSH2 0x5003 JUMP JUMPDEST PUSH1 0x40 MLOAD DUP1 SWAP2 SUB SWAP1 REVERT JUMPDEST PUSH1 0x1 PUSH1 0xA PUSH1 0x0 DUP6 PUSH20 0xFFFFFFFFFFFFFFFFFFFFFFFFFFFFFFFFFFFFFFFF AND PUSH20 0xFFFFFFFFFFFFFFFFFFFFFFFFFFFFFFFFFFFFFFFF AND DUP2 MSTORE PUSH1 0x20 ADD SWAP1 DUP2 MSTORE PUSH1 0x20 ADD PUSH1 0x0 KECCAK256 PUSH1 0x0 ADD PUSH1 0x0 PUSH2 0x100 EXP DUP2 SLOAD DUP2 PUSH1 0xFF MUL NOT AND SWAP1 DUP4 ISZERO ISZERO MUL OR SWAP1 SSTORE POP DUP2 PUSH1 0xA PUSH1 0x0 DUP6 PUSH20 0xFFFFFFFFFFFFFFFFFFFFFFFFFFFFFFFFFFFFFFFF AND PUSH20 0xFFFFFFFFFFFFFFFFFFFFFFFFFFFFFFFFFFFFFFFF AND DUP2 MSTORE PUSH1 0x20 ADD SWAP1 DUP2 MSTORE PUSH1 0x20 ADD PUSH1 0x0 KECCAK256 PUSH1 0x1 ADD SWAP1 DUP1 MLOAD SWAP1 PUSH1 0x20 ADD SWAP1 PUSH2 0x28F5 SWAP3 SWAP2 SWAP1 PUSH2 0x3FD7 JUMP JUMPDEST POP DUP1 PUSH1 0xA PUSH1 0x0 DUP6 PUSH20 0xFFFFFFFFFFFFFFFFFFFFFFFFFFFFFFFFFFFFFFFF AND PUSH20 0xFFFFFFFFFFFFFFFFFFFFFFFFFFFFFFFFFFFFFFFF AND DUP2 MSTORE PUSH1 0x20 ADD SWAP1 DUP2 MSTORE PUSH1 0x20 ADD PUSH1 0x0 KECCAK256 PUSH1 0x2 ADD PUSH1 0x0 PUSH2 0x100 EXP DUP2 SLOAD DUP2 PUSH1 0xFF MUL NOT AND SWAP1 DUP4 PUSH1 0xFF AND MUL OR SWAP1 SSTORE POP POP POP POP JUMP JUMPDEST PUSH1 0x0 PUSH1 0x3 PUSH1 0x0 DUP4 PUSH20 0xFFFFFFFFFFFFFFFFFFFFFFFFFFFFFFFFFFFFFFFF AND PUSH20 0xFFFFFFFFFFFFFFFFFFFFFFFFFFFFFFFFFFFFFFFF AND DUP2 MSTORE PUSH1 0x20 ADD SWAP1 DUP2 MSTORE PUSH1 0x20 ADD PUSH1 0x0 KECCAK256 PUSH1 0x0 ADD PUSH1 0x0 SWAP1 SLOAD SWAP1 PUSH2 0x100 EXP SWAP1 DIV PUSH1 0xFF AND SWAP1 POP SWAP2 SWAP1 POP JUMP JUMPDEST PUSH1 0x5 PUSH1 0x20 MSTORE DUP1 PUSH1 0x0 MSTORE PUSH1 0x40 PUSH1 0x0 KECCAK256 PUSH1 0x0 SWAP2 POP SWAP1 POP DUP1 PUSH1 0x0 ADD PUSH1 0x0 SWAP1 SLOAD SWAP1 PUSH2 0x100 EXP SWAP1 DIV PUSH1 0xFF AND SWAP1 DUP1 PUSH1 0x0 ADD PUSH1 0x1 SWAP1 SLOAD SWAP1 PUSH2 0x100 EXP SWAP1 DIV PUSH20 0xFFFFFFFFFFFFFFFFFFFFFFFFFFFFFFFFFFFFFFFF AND SWAP1 DUP1 PUSH1 0x0 ADD PUSH1 0x15 SWAP1 SLOAD SWAP1 PUSH2 0x100 EXP SWAP1 DIV PUSH2 0xFFFF AND SWAP1 DUP1 PUSH1 0x0 ADD PUSH1 0x17 SWAP1 SLOAD SWAP1 PUSH2 0x100 EXP SWAP1 DIV PUSH1 0xFF AND SWAP1 DUP1 PUSH1 0x1 ADD DUP1 SLOAD PUSH2 0x2A32 SWAP1 PUSH2 0x5386 JUMP JUMPDEST DUP1 PUSH1 0x1F ADD PUSH1 0x20 DUP1 SWAP2 DIV MUL PUSH1 0x20 ADD PUSH1 0x40 MLOAD SWAP1 DUP2 ADD PUSH1 0x40 MSTORE DUP1 SWAP3 SWAP2 SWAP1 DUP2 DUP2 MSTORE PUSH1 0x20 ADD DUP3 DUP1 SLOAD PUSH2 0x2A5E SWAP1 PUSH2 0x5386 JUMP JUMPDEST DUP1 ISZERO PUSH2 0x2AAB JUMPI DUP1 PUSH1 0x1F LT PUSH2 0x2A80 JUMPI PUSH2 0x100 DUP1 DUP4 SLOAD DIV MUL DUP4 MSTORE SWAP2 PUSH1 0x20 ADD SWAP2 PUSH2 0x2AAB JUMP JUMPDEST DUP3 ADD SWAP2 SWAP1 PUSH1 0x0 MSTORE PUSH1 0x20 PUSH1 0x0 KECCAK256 SWAP1 JUMPDEST DUP2 SLOAD DUP2 MSTORE SWAP1 PUSH1 0x1 ADD SWAP1 PUSH1 0x20 ADD DUP1 DUP4 GT PUSH2 0x2A8E JUMPI DUP3 SWAP1 SUB PUSH1 0x1F AND DUP3 ADD SWAP2 JUMPDEST POP POP POP POP POP SWAP1 DUP1 PUSH1 0x2 ADD DUP1 SLOAD PUSH2 0x2AC0 SWAP1 PUSH2 0x5386 JUMP JUMPDEST DUP1 PUSH1 0x1F ADD PUSH1 0x20 DUP1 SWAP2 DIV MUL PUSH1 0x20 ADD PUSH1 0x40 MLOAD SWAP1 DUP2 ADD PUSH1 0x40 MSTORE DUP1 SWAP3 SWAP2 SWAP1 DUP2 DUP2 MSTORE PUSH1 0x20 ADD DUP3 DUP1 SLOAD PUSH2 0x2AEC SWAP1 PUSH2 0x5386 JUMP JUMPDEST DUP1 ISZERO PUSH2 0x2B39 JUMPI DUP1 PUSH1 0x1F LT PUSH2 0x2B0E JUMPI PUSH2 0x100 DUP1 DUP4 SLOAD DIV MUL DUP4 MSTORE SWAP2 PUSH1 0x20 ADD SWAP2 PUSH2 0x2B39 JUMP JUMPDEST DUP3 ADD SWAP2 SWAP1 PUSH1 0x0 MSTORE PUSH1 0x20 PUSH1 0x0 KECCAK256 SWAP1 JUMPDEST DUP2 SLOAD DUP2 MSTORE SWAP1 PUSH1 0x1 ADD SWAP1 PUSH1 0x20 ADD DUP1 DUP4 GT PUSH2 0x2B1C JUMPI DUP3 SWAP1 SUB PUSH1 0x1F AND DUP3 ADD SWAP2 JUMPDEST POP POP POP POP POP SWAP1 POP DUP7 JUMP JUMPDEST PUSH2 0x2B4C DUP2 PUSH2 0x2956 JUMP JUMPDEST PUSH2 0x2B8B JUMPI PUSH1 0x40 MLOAD PUSH32 0x8C379A000000000000000000000000000000000000000000000000000000000 DUP2 MSTORE PUSH1 0x4 ADD PUSH2 0x2B82 SWAP1 PUSH2 0x4F03 JUMP JUMPDEST PUSH1 0x40 MLOAD DUP1 SWAP2 SUB SWAP1 REVERT JUMPDEST PUSH1 0x3 PUSH1 0x0 DUP3 PUSH20 0xFFFFFFFFFFFFFFFFFFFFFFFFFFFFFFFFFFFFFFFF AND PUSH20 0xFFFFFFFFFFFFFFFFFFFFFFFFFFFFFFFFFFFFFFFF AND DUP2 MSTORE PUSH1 0x20 ADD SWAP1 DUP2 MSTORE PUSH1 0x20 ADD PUSH1 0x0 KECCAK256 PUSH1 0x0 DUP1 DUP3 ADD PUSH1 0x0 PUSH2 0x100 EXP DUP2 SLOAD SWAP1 PUSH1 0xFF MUL NOT AND SWAP1 SSTORE POP POP POP JUMP JUMPDEST PUSH2 0x2BED DUP4 PUSH2 0x39C9 JUMP JUMPDEST PUSH2 0x2C2C JUMPI PUSH1 0x40 MLOAD PUSH32 0x8C379A000000000000000000000000000000000000000000000000000000000 DUP2 MSTORE PUSH1 0x4 ADD PUSH2 0x2C23 SWAP1 PUSH2 0x4EE3 JUMP JUMPDEST PUSH1 0x40 MLOAD DUP1 SWAP2 SUB SWAP1 REVERT JUMPDEST PUSH1 0x1 PUSH1 0x4 PUSH1 0x0 DUP6 PUSH20 0xFFFFFFFFFFFFFFFFFFFFFFFFFFFFFFFFFFFFFFFF AND PUSH20 0xFFFFFFFFFFFFFFFFFFFFFFFFFFFFFFFFFFFFFFFF AND DUP2 MSTORE PUSH1 0x20 ADD SWAP1 DUP2 MSTORE PUSH1 0x20 ADD PUSH1 0x0 KECCAK256 PUSH1 0x0 ADD PUSH1 0x0 PUSH2 0x100 EXP DUP2 SLOAD DUP2 PUSH1 0xFF MUL NOT AND SWAP1 DUP4 ISZERO ISZERO MUL OR SWAP1 SSTORE POP DUP2 PUSH1 0x4 PUSH1 0x0 DUP6 PUSH20 0xFFFFFFFFFFFFFFFFFFFFFFFFFFFFFFFFFFFFFFFF AND PUSH20 0xFFFFFFFFFFFFFFFFFFFFFFFFFFFFFFFFFFFFFFFF AND DUP2 MSTORE PUSH1 0x20 ADD SWAP1 DUP2 MSTORE PUSH1 0x20 ADD PUSH1 0x0 KECCAK256 PUSH1 0x1 ADD SWAP1 DUP1 MLOAD SWAP1 PUSH1 0x20 ADD SWAP1 PUSH2 0x2CDD SWAP3 SWAP2 SWAP1 PUSH2 0x3FD7 JUMP JUMPDEST POP DUP1 PUSH1 0x4 PUSH1 0x0 DUP6 PUSH20 0xFFFFFFFFFFFFFFFFFFFFFFFFFFFFFFFFFFFFFFFF AND PUSH20 0xFFFFFFFFFFFFFFFFFFFFFFFFFFFFFFFFFFFFFFFF AND DUP2 MSTORE PUSH1 0x20 ADD SWAP1 DUP2 MSTORE PUSH1 0x20 ADD PUSH1 0x0 KECCAK256 PUSH1 0x2 ADD PUSH1 0x0 PUSH2 0x100 EXP DUP2 SLOAD DUP2 PUSH1 0xFF MUL NOT AND SWAP1 DUP4 PUSH1 0xFF AND MUL OR SWAP1 SSTORE POP POP POP POP JUMP JUMPDEST PUSH1 0x3 PUSH1 0x20 MSTORE DUP1 PUSH1 0x0 MSTORE PUSH1 0x40 PUSH1 0x0 KECCAK256 PUSH1 0x0 SWAP2 POP SWAP1 POP DUP1 PUSH1 0x0 ADD PUSH1 0x0 SWAP1 SLOAD SWAP1 PUSH2 0x100 EXP SWAP1 DIV PUSH1 0xFF AND SWAP1 POP DUP2 JUMP JUMPDEST PUSH1 0x60 PUSH1 0x0 PUSH1 0xF DUP1 SLOAD SWAP1 POP PUSH8 0xFFFFFFFFFFFFFFFF DUP2 GT ISZERO PUSH2 0x2D8C JUMPI PUSH2 0x2D8B PUSH2 0x54EE JUMP JUMPDEST JUMPDEST PUSH1 0x40 MLOAD SWAP1 DUP1 DUP3 MSTORE DUP1 PUSH1 0x20 MUL PUSH1 0x20 ADD DUP3 ADD PUSH1 0x40 MSTORE DUP1 ISZERO PUSH2 0x2DC5 JUMPI DUP2 PUSH1 0x20 ADD JUMPDEST PUSH2 0x2DB2 PUSH2 0x40E9 JUMP JUMPDEST DUP2 MSTORE PUSH1 0x20 ADD SWAP1 PUSH1 0x1 SWAP1 SUB SWAP1 DUP2 PUSH2 0x2DAA JUMPI SWAP1 POP JUMPDEST POP SWAP1 POP PUSH1 0x0 DUP1 JUMPDEST PUSH1 0xF DUP1 SLOAD SWAP1 POP DUP2 LT ISZERO PUSH2 0x2F68 JUMPI PUSH1 0x7 PUSH1 0x0 PUSH1 0xF DUP4 DUP2 SLOAD DUP2 LT PUSH2 0x2DF1 JUMPI PUSH2 0x2DF0 PUSH2 0x54BF JUMP JUMPDEST JUMPDEST SWAP1 PUSH1 0x0 MSTORE PUSH1 0x20 PUSH1 0x0 KECCAK256 ADD PUSH1 0x0 SWAP1 SLOAD SWAP1 PUSH2 0x100 EXP SWAP1 DIV PUSH20 0xFFFFFFFFFFFFFFFFFFFFFFFFFFFFFFFFFFFFFFFF AND PUSH20 0xFFFFFFFFFFFFFFFFFFFFFFFFFFFFFFFFFFFFFFFF AND PUSH20 0xFFFFFFFFFFFFFFFFFFFFFFFFFFFFFFFFFFFFFFFF AND DUP2 MSTORE PUSH1 0x20 ADD SWAP1 DUP2 MSTORE PUSH1 0x20 ADD PUSH1 0x0 KECCAK256 PUSH1 0x40 MLOAD DUP1 PUSH1 0x60 ADD PUSH1 0x40 MSTORE SWAP1 DUP2 PUSH1 0x0 DUP3 ADD PUSH1 0x0 SWAP1 SLOAD SWAP1 PUSH2 0x100 EXP SWAP1 DIV PUSH1 0xFF AND ISZERO ISZERO ISZERO ISZERO DUP2 MSTORE PUSH1 0x20 ADD PUSH1 0x1 DUP3 ADD DUP1 SLOAD PUSH2 0x2E8C SWAP1 PUSH2 0x5386 JUMP JUMPDEST DUP1 PUSH1 0x1F ADD PUSH1 0x20 DUP1 SWAP2 DIV MUL PUSH1 0x20 ADD PUSH1 0x40 MLOAD SWAP1 DUP2 ADD PUSH1 0x40 MSTORE DUP1 SWAP3 SWAP2 SWAP1 DUP2 DUP2 MSTORE PUSH1 0x20 ADD DUP3 DUP1 SLOAD PUSH2 0x2EB8 SWAP1 PUSH2 0x5386 JUMP JUMPDEST DUP1 ISZERO PUSH2 0x2F05 JUMPI DUP1 PUSH1 0x1F LT PUSH2 0x2EDA JUMPI PUSH2 0x100 DUP1 DUP4 SLOAD DIV MUL DUP4 MSTORE SWAP2 PUSH1 0x20 ADD SWAP2 PUSH2 0x2F05 JUMP JUMPDEST DUP3 ADD SWAP2 SWAP1 PUSH1 0x0 MSTORE PUSH1 0x20 PUSH1 0x0 KECCAK256 SWAP1 JUMPDEST DUP2 SLOAD DUP2 MSTORE SWAP1 PUSH1 0x1 ADD SWAP1 PUSH1 0x20 ADD DUP1 DUP4 GT PUSH2 0x2EE8 JUMPI DUP3 SWAP1 SUB PUSH1 0x1F AND DUP3 ADD SWAP2 JUMPDEST POP POP POP POP POP DUP2 MSTORE PUSH1 0x20 ADD PUSH1 0x2 DUP3 ADD PUSH1 0x0 SWAP1 SLOAD SWAP1 PUSH2 0x100 EXP SWAP1 DIV PUSH1 0xFF AND PUSH1 0xFF AND PUSH1 0xFF AND DUP2 MSTORE POP POP DUP4 DUP4 DUP1 PUSH2 0x2F37 SWAP1 PUSH2 0x53E9 JUMP JUMPDEST SWAP5 POP DUP2 MLOAD DUP2 LT PUSH2 0x2F4A JUMPI PUSH2 0x2F49 PUSH2 0x54BF JUMP JUMPDEST JUMPDEST PUSH1 0x20 MUL PUSH1 0x20 ADD ADD DUP2 SWAP1 MSTORE POP DUP1 DUP1 PUSH2 0x2F60 SWAP1 PUSH2 0x53E9 JUMP JUMPDEST SWAP2 POP POP PUSH2 0x2DCC JUMP JUMPDEST POP DUP2 SWAP3 POP POP POP SWAP1 JUMP JUMPDEST PUSH2 0x2F7A DUP5 PUSH2 0x1439 JUMP JUMPDEST ISZERO PUSH2 0x2FBA JUMPI PUSH1 0x40 MLOAD PUSH32 0x8C379A000000000000000000000000000000000000000000000000000000000 DUP2 MSTORE PUSH1 0x4 ADD PUSH2 0x2FB1 SWAP1 PUSH2 0x4F43 JUMP JUMPDEST PUSH1 0x40 MLOAD DUP1 SWAP2 SUB SWAP1 REVERT JUMPDEST PUSH1 0x1 PUSH1 0x6 PUSH1 0x0 DUP7 PUSH20 0xFFFFFFFFFFFFFFFFFFFFFFFFFFFFFFFFFFFFFFFF AND PUSH20 0xFFFFFFFFFFFFFFFFFFFFFFFFFFFFFFFFFFFFFFFF AND DUP2 MSTORE PUSH1 0x20 ADD SWAP1 DUP2 MSTORE PUSH1 0x20 ADD PUSH1 0x0 KECCAK256 PUSH1 0x0 ADD PUSH1 0x0 PUSH2 0x100 EXP DUP2 SLOAD DUP2 PUSH1 0xFF MUL NOT AND SWAP1 DUP4 ISZERO ISZERO MUL OR SWAP1 SSTORE POP DUP3 PUSH1 0x6 PUSH1 0x0 DUP7 PUSH20 0xFFFFFFFFFFFFFFFFFFFFFFFFFFFFFFFFFFFFFFFF AND PUSH20 0xFFFFFFFFFFFFFFFFFFFFFFFFFFFFFFFFFFFFFFFF AND DUP2 MSTORE PUSH1 0x20 ADD SWAP1 DUP2 MSTORE PUSH1 0x20 ADD PUSH1 0x0 KECCAK256 PUSH1 0x2 ADD SWAP1 DUP1 MLOAD SWAP1 PUSH1 0x20 ADD SWAP1 PUSH2 0x306B SWAP3 SWAP2 SWAP1 PUSH2 0x3FD7 JUMP JUMPDEST POP DUP1 PUSH1 0x6 PUSH1 0x0 DUP7 PUSH20 0xFFFFFFFFFFFFFFFFFFFFFFFFFFFFFFFFFFFFFFFF AND PUSH20 0xFFFFFFFFFFFFFFFFFFFFFFFFFFFFFFFFFFFFFFFF AND DUP2 MSTORE PUSH1 0x20 ADD SWAP1 DUP2 MSTORE PUSH1 0x20 ADD PUSH1 0x0 KECCAK256 PUSH1 0x0 ADD PUSH1 0x1 PUSH2 0x100 EXP DUP2 SLOAD DUP2 PUSH1 0xFF MUL NOT AND SWAP1 DUP4 PUSH1 0xFF AND MUL OR SWAP1 SSTORE POP DUP2 PUSH1 0x6 PUSH1 0x0 DUP7 PUSH20 0xFFFFFFFFFFFFFFFFFFFFFFFFFFFFFFFFFFFFFFFF AND PUSH20 0xFFFFFFFFFFFFFFFFFFFFFFFFFFFFFFFFFFFFFFFF AND DUP2 MSTORE PUSH1 0x20 ADD SWAP1 DUP2 MSTORE PUSH1 0x20 ADD PUSH1 0x0 KECCAK256 PUSH1 0x1 ADD DUP2 SWAP1 SSTORE POP PUSH1 0xE DUP5 SWAP1 DUP1 PUSH1 0x1 DUP2 SLOAD ADD DUP1 DUP3 SSTORE DUP1 SWAP2 POP POP PUSH1 0x1 SWAP1 SUB SWAP1 PUSH1 0x0 MSTORE PUSH1 0x20 PUSH1 0x0 KECCAK256 ADD PUSH1 0x0 SWAP1 SWAP2 SWAP1 SWAP2 SWAP1 SWAP2 PUSH2 0x100 EXP DUP2 SLOAD DUP2 PUSH20 0xFFFFFFFFFFFFFFFFFFFFFFFFFFFFFFFFFFFFFFFF MUL NOT AND SWAP1 DUP4 PUSH20 0xFFFFFFFFFFFFFFFFFFFFFFFFFFFFFFFFFFFFFFFF AND MUL OR SWAP1 SSTORE POP POP POP POP POP JUMP JUMPDEST PUSH1 0x60 PUSH1 0x0 PUSH1 0xE DUP1 SLOAD SWAP1 POP PUSH8 0xFFFFFFFFFFFFFFFF DUP2 GT ISZERO PUSH2 0x319A JUMPI PUSH2 0x3199 PUSH2 0x54EE JUMP JUMPDEST JUMPDEST PUSH1 0x40 MLOAD SWAP1 DUP1 DUP3 MSTORE DUP1 PUSH1 0x20 MUL PUSH1 0x20 ADD DUP3 ADD PUSH1 0x40 MSTORE DUP1 ISZERO PUSH2 0x31D3 JUMPI DUP2 PUSH1 0x20 ADD JUMPDEST PUSH2 0x31C0 PUSH2 0x410F JUMP JUMPDEST DUP2 MSTORE PUSH1 0x20 ADD SWAP1 PUSH1 0x1 SWAP1 SUB SWAP1 DUP2 PUSH2 0x31B8 JUMPI SWAP1 POP JUMPDEST POP SWAP1 POP PUSH1 0x0 DUP1 JUMPDEST PUSH1 0xE DUP1 SLOAD SWAP1 POP DUP2 LT ISZERO PUSH2 0x3380 JUMPI PUSH1 0x6 PUSH1 0x0 PUSH1 0xE DUP4 DUP2 SLOAD DUP2 LT PUSH2 0x31FF JUMPI PUSH2 0x31FE PUSH2 0x54BF JUMP JUMPDEST JUMPDEST SWAP1 PUSH1 0x0 MSTORE PUSH1 0x20 PUSH1 0x0 KECCAK256 ADD PUSH1 0x0 SWAP1 SLOAD SWAP1 PUSH2 0x100 EXP SWAP1 DIV PUSH20 0xFFFFFFFFFFFFFFFFFFFFFFFFFFFFFFFFFFFFFFFF AND PUSH20 0xFFFFFFFFFFFFFFFFFFFFFFFFFFFFFFFFFFFFFFFF AND PUSH20 0xFFFFFFFFFFFFFFFFFFFFFFFFFFFFFFFFFFFFFFFF AND DUP2 MSTORE PUSH1 0x20 ADD SWAP1 DUP2 MSTORE PUSH1 0x20 ADD PUSH1 0x0 KECCAK256 PUSH1 0x40 MLOAD DUP1 PUSH1 0x80 ADD PUSH1 0x40 MSTORE SWAP1 DUP2 PUSH1 0x0 DUP3 ADD PUSH1 0x0 SWAP1 SLOAD SWAP1 PUSH2 0x100 EXP SWAP1 DIV PUSH1 0xFF AND ISZERO ISZERO ISZERO ISZERO DUP2 MSTORE PUSH1 0x20 ADD PUSH1 0x0 DUP3 ADD PUSH1 0x1 SWAP1 SLOAD SWAP1 PUSH2 0x100 EXP SWAP1 DIV PUSH1 0xFF AND PUSH1 0xFF AND PUSH1 0xFF AND DUP2 MSTORE PUSH1 0x20 ADD PUSH1 0x1 DUP3 ADD SLOAD DUP2 MSTORE PUSH1 0x20 ADD PUSH1 0x2 DUP3 ADD DUP1 SLOAD PUSH2 0x32C1 SWAP1 PUSH2 0x5386 JUMP JUMPDEST DUP1 PUSH1 0x1F ADD PUSH1 0x20 DUP1 SWAP2 DIV MUL PUSH1 0x20 ADD PUSH1 0x40 MLOAD SWAP1 DUP2 ADD PUSH1 0x40 MSTORE DUP1 SWAP3 SWAP2 SWAP1 DUP2 DUP2 MSTORE PUSH1 0x20 ADD DUP3 DUP1 SLOAD PUSH2 0x32ED SWAP1 PUSH2 0x5386 JUMP JUMPDEST DUP1 ISZERO PUSH2 0x333A JUMPI DUP1 PUSH1 0x1F LT PUSH2 0x330F JUMPI PUSH2 0x100 DUP1 DUP4 SLOAD DIV MUL DUP4 MSTORE SWAP2 PUSH1 0x20 ADD SWAP2 PUSH2 0x333A JUMP JUMPDEST DUP3 ADD SWAP2 SWAP1 PUSH1 0x0 MSTORE PUSH1 0x20 PUSH1 0x0 KECCAK256 SWAP1 JUMPDEST DUP2 SLOAD DUP2 MSTORE SWAP1 PUSH1 0x1 ADD SWAP1 PUSH1 0x20 ADD DUP1 DUP4 GT PUSH2 0x331D JUMPI DUP3 SWAP1 SUB PUSH1 0x1F AND DUP3 ADD SWAP2 JUMPDEST POP POP POP POP POP DUP2 MSTORE POP POP DUP4 DUP4 DUP1 PUSH2 0x334F SWAP1 PUSH2 0x53E9 JUMP JUMPDEST SWAP5 POP DUP2 MLOAD DUP2 LT PUSH2 0x3362 JUMPI PUSH2 0x3361 PUSH2 0x54BF JUMP JUMPDEST JUMPDEST PUSH1 0x20 MUL PUSH1 0x20 ADD ADD DUP2 SWAP1 MSTORE POP DUP1 DUP1 PUSH2 0x3378 SWAP1 PUSH2 0x53E9 JUMP JUMPDEST SWAP2 POP POP PUSH2 0x31DA JUMP JUMPDEST POP DUP2 SWAP3 POP POP POP SWAP1 JUMP JUMPDEST PUSH2 0x3392 DUP4 PUSH2 0xD4C JUMP JUMPDEST PUSH2 0x33D1 JUMPI PUSH1 0x40 MLOAD PUSH32 0x8C379A000000000000000000000000000000000000000000000000000000000 DUP2 MSTORE PUSH1 0x4 ADD PUSH2 0x33C8 SWAP1 PUSH2 0x5083 JUMP JUMPDEST PUSH1 0x40 MLOAD DUP1 SWAP2 SUB SWAP1 REVERT JUMPDEST PUSH1 0x1 PUSH1 0x7 PUSH1 0x0 DUP6 PUSH20 0xFFFFFFFFFFFFFFFFFFFFFFFFFFFFFFFFFFFFFFFF AND PUSH20 0xFFFFFFFFFFFFFFFFFFFFFFFFFFFFFFFFFFFFFFFF AND DUP2 MSTORE PUSH1 0x20 ADD SWAP1 DUP2 MSTORE PUSH1 0x20 ADD PUSH1 0x0 KECCAK256 PUSH1 0x0 ADD PUSH1 0x0 PUSH2 0x100 EXP DUP2 SLOAD DUP2 PUSH1 0xFF MUL NOT AND SWAP1 DUP4 ISZERO ISZERO MUL OR SWAP1 SSTORE POP DUP2 PUSH1 0x7 PUSH1 0x0 DUP6 PUSH20 0xFFFFFFFFFFFFFFFFFFFFFFFFFFFFFFFFFFFFFFFF AND PUSH20 0xFFFFFFFFFFFFFFFFFFFFFFFFFFFFFFFFFFFFFFFF AND DUP2 MSTORE PUSH1 0x20 ADD SWAP1 DUP2 MSTORE PUSH1 0x20 ADD PUSH1 0x0 KECCAK256 PUSH1 0x1 ADD SWAP1 DUP1 MLOAD SWAP1 PUSH1 0x20 ADD SWAP1 PUSH2 0x3482 SWAP3 SWAP2 SWAP1 PUSH2 0x3FD7 JUMP JUMPDEST POP DUP1 PUSH1 0x7 PUSH1 0x0 DUP6 PUSH20 0xFFFFFFFFFFFFFFFFFFFFFFFFFFFFFFFFFFFFFFFF AND PUSH20 0xFFFFFFFFFFFFFFFFFFFFFFFFFFFFFFFFFFFFFFFF AND DUP2 MSTORE PUSH1 0x20 ADD SWAP1 DUP2 MSTORE PUSH1 0x20 ADD PUSH1 0x0 KECCAK256 PUSH1 0x2 ADD PUSH1 0x0 PUSH2 0x100 EXP DUP2 SLOAD DUP2 PUSH1 0xFF MUL NOT AND SWAP1 DUP4 PUSH1 0xFF AND MUL OR SWAP1 SSTORE POP POP POP POP JUMP JUMPDEST PUSH1 0x60 PUSH1 0x2 PUSH1 0x0 SWAP1 SLOAD SWAP1 PUSH2 0x100 EXP SWAP1 DIV PUSH20 0xFFFFFFFFFFFFFFFFFFFFFFFFFFFFFFFFFFFFFFFF AND PUSH20 0xFFFFFFFFFFFFFFFFFFFFFFFFFFFFFFFFFFFFFFFF AND CALLER PUSH20 0xFFFFFFFFFFFFFFFFFFFFFFFFFFFFFFFFFFFFFFFF AND EQ PUSH2 0x3575 JUMPI PUSH1 0x40 MLOAD PUSH32 0x8C379A000000000000000000000000000000000000000000000000000000000 DUP2 MSTORE PUSH1 0x4 ADD PUSH2 0x356C SWAP1 PUSH2 0x4F63 JUMP JUMPDEST PUSH1 0x40 MLOAD DUP1 SWAP2 SUB SWAP1 REVERT JUMPDEST PUSH1 0x0 PUSH1 0x10 DUP1 SLOAD SWAP1 POP PUSH8 0xFFFFFFFFFFFFFFFF DUP2 GT ISZERO PUSH2 0x3596 JUMPI PUSH2 0x3595 PUSH2 0x54EE JUMP JUMPDEST JUMPDEST PUSH1 0x40 MLOAD SWAP1 DUP1 DUP3 MSTORE DUP1 PUSH1 0x20 MUL PUSH1 0x20 ADD DUP3 ADD PUSH1 0x40 MSTORE DUP1 ISZERO PUSH2 0x35CF JUMPI DUP2 PUSH1 0x20 ADD JUMPDEST PUSH2 0x35BC PUSH2 0x413C JUMP JUMPDEST DUP2 MSTORE PUSH1 0x20 ADD SWAP1 PUSH1 0x1 SWAP1 SUB SWAP1 DUP2 PUSH2 0x35B4 JUMPI SWAP1 POP JUMPDEST POP SWAP1 POP PUSH1 0x0 DUP1 JUMPDEST PUSH1 0x10 DUP1 SLOAD SWAP1 POP DUP2 LT ISZERO PUSH2 0x3772 JUMPI PUSH1 0x8 PUSH1 0x0 PUSH1 0x10 DUP4 DUP2 SLOAD DUP2 LT PUSH2 0x35FB JUMPI PUSH2 0x35FA PUSH2 0x54BF JUMP JUMPDEST JUMPDEST SWAP1 PUSH1 0x0 MSTORE PUSH1 0x20 PUSH1 0x0 KECCAK256 ADD PUSH1 0x0 SWAP1 SLOAD SWAP1 PUSH2 0x100 EXP SWAP1 DIV PUSH20 0xFFFFFFFFFFFFFFFFFFFFFFFFFFFFFFFFFFFFFFFF AND PUSH20 0xFFFFFFFFFFFFFFFFFFFFFFFFFFFFFFFFFFFFFFFF AND PUSH20 0xFFFFFFFFFFFFFFFFFFFFFFFFFFFFFFFFFFFFFFFF AND DUP2 MSTORE PUSH1 0x20 ADD SWAP1 DUP2 MSTORE PUSH1 0x20 ADD PUSH1 0x0 KECCAK256 PUSH1 0x40 MLOAD DUP1 PUSH1 0x60 ADD PUSH1 0x40 MSTORE SWAP1 DUP2 PUSH1 0x0 DUP3 ADD PUSH1 0x0 SWAP1 SLOAD SWAP1 PUSH2 0x100 EXP SWAP1 DIV PUSH1 0xFF AND ISZERO ISZERO ISZERO ISZERO DUP2 MSTORE PUSH1 0x20 ADD PUSH1 0x1 DUP3 ADD DUP1 SLOAD PUSH2 0x3696 SWAP1 PUSH2 0x5386 JUMP JUMPDEST DUP1 PUSH1 0x1F ADD PUSH1 0x20 DUP1 SWAP2 DIV MUL PUSH1 0x20 ADD PUSH1 0x40 MLOAD SWAP1 DUP2 ADD PUSH1 0x40 MSTORE DUP1 SWAP3 SWAP2 SWAP1 DUP2 DUP2 MSTORE PUSH1 0x20 ADD DUP3 DUP1 SLOAD PUSH2 0x36C2 SWAP1 PUSH2 0x5386 JUMP JUMPDEST DUP1 ISZERO PUSH2 0x370F JUMPI DUP1 PUSH1 0x1F LT PUSH2 0x36E4 JUMPI PUSH2 0x100 DUP1 DUP4 SLOAD DIV MUL DUP4 MSTORE SWAP2 PUSH1 0x20 ADD SWAP2 PUSH2 0x370F JUMP JUMPDEST DUP3 ADD SWAP2 SWAP1 PUSH1 0x0 MSTORE PUSH1 0x20 PUSH1 0x0 KECCAK256 SWAP1 JUMPDEST DUP2 SLOAD DUP2 MSTORE SWAP1 PUSH1 0x1 ADD SWAP1 PUSH1 0x20 ADD DUP1 DUP4 GT PUSH2 0x36F2 JUMPI DUP3 SWAP1 SUB PUSH1 0x1F AND DUP3 ADD SWAP2 JUMPDEST POP POP POP POP POP DUP2 MSTORE PUSH1 0x20 ADD PUSH1 0x2 DUP3 ADD PUSH1 0x0 SWAP1 SLOAD SWAP1 PUSH2 0x100 EXP SWAP1 DIV PUSH1 0xFF AND PUSH1 0xFF AND PUSH1 0xFF AND DUP2 MSTORE POP POP DUP4 DUP4 DUP1 PUSH2 0x3741 SWAP1 PUSH2 0x53E9 JUMP JUMPDEST SWAP5 POP DUP2 MLOAD DUP2 LT PUSH2 0x3754 JUMPI PUSH2 0x3753 PUSH2 0x54BF JUMP JUMPDEST JUMPDEST PUSH1 0x20 MUL PUSH1 0x20 ADD ADD DUP2 SWAP1 MSTORE POP DUP1 DUP1 PUSH2 0x376A SWAP1 PUSH2 0x53E9 JUMP JUMPDEST SWAP2 POP POP PUSH2 0x35D6 JUMP JUMPDEST POP DUP2 SWAP3 POP POP POP SWAP1 JUMP JUMPDEST PUSH1 0x0 DUP2 PUSH20 0xFFFFFFFFFFFFFFFFFFFFFFFFFFFFFFFFFFFFFFFF AND PUSH1 0x0 DUP1 SLOAD SWAP1 PUSH2 0x100 EXP SWAP1 DIV PUSH20 0xFFFFFFFFFFFFFFFFFFFFFFFFFFFFFFFFFFFFFFFF AND PUSH20 0xFFFFFFFFFFFFFFFFFFFFFFFFFFFFFFFFFFFFFFFF AND EQ SWAP1 POP SWAP2 SWAP1 POP JUMP JUMPDEST PUSH1 0x11 DUP2 DUP2 SLOAD DUP2 LT PUSH2 0x37E3 JUMPI PUSH1 0x0 DUP1 REVERT JUMPDEST SWAP1 PUSH1 0x0 MSTORE PUSH1 0x20 PUSH1 0x0 KECCAK256 ADD PUSH1 0x0 SWAP2 POP SLOAD SWAP1 PUSH2 0x100 EXP SWAP1 DIV PUSH20 0xFFFFFFFFFFFFFFFFFFFFFFFFFFFFFFFFFFFFFFFF AND DUP2 JUMP JUMPDEST PUSH2 0x381B DUP2 PUSH2 0x1D90 JUMP JUMPDEST PUSH2 0x385A JUMPI PUSH1 0x40 MLOAD PUSH32 0x8C379A000000000000000000000000000000000000000000000000000000000 DUP2 MSTORE PUSH1 0x4 ADD PUSH2 0x3851 SWAP1 PUSH2 0x4FA3 JUMP JUMPDEST PUSH1 0x40 MLOAD DUP1 SWAP2 SUB SWAP1 REVERT JUMPDEST PUSH1 0x9 PUSH1 0x0 DUP3 PUSH20 0xFFFFFFFFFFFFFFFFFFFFFFFFFFFFFFFFFFFFFFFF AND PUSH20 0xFFFFFFFFFFFFFFFFFFFFFFFFFFFFFFFFFFFFFFFF AND DUP2 MSTORE PUSH1 0x20 ADD SWAP1 DUP2 MSTORE PUSH1 0x20 ADD PUSH1 0x0 KECCAK256 PUSH1 0x0 DUP1 DUP3 ADD PUSH1 0x0 PUSH2 0x100 EXP DUP2 SLOAD SWAP1 PUSH1 0xFF MUL NOT AND SWAP1 SSTORE PUSH1 0x1 DUP3 ADD PUSH1 0x0 PUSH2 0x38BE SWAP2 SWAP1 PUSH2 0x405D JUMP JUMPDEST PUSH1 0x2 DUP3 ADD PUSH1 0x0 PUSH2 0x100 EXP DUP2 SLOAD SWAP1 PUSH1 0xFF MUL NOT AND SWAP1 SSTORE POP POP POP JUMP JUMPDEST PUSH1 0x0 PUSH1 0xA PUSH1 0x0 DUP4 PUSH20 0xFFFFFFFFFFFFFFFFFFFFFFFFFFFFFFFFFFFFFFFF AND PUSH20 0xFFFFFFFFFFFFFFFFFFFFFFFFFFFFFFFFFFFFFFFF AND DUP2 MSTORE PUSH1 0x20 ADD SWAP1 DUP2 MSTORE PUSH1 0x20 ADD PUSH1 0x0 KECCAK256 PUSH1 0x0 ADD PUSH1 0x0 SWAP1 SLOAD SWAP1 PUSH2 0x100 EXP SWAP1 DIV PUSH1 0xFF AND SWAP1 POP SWAP2 SWAP1 POP JUMP JUMPDEST PUSH1 0x0 DUP2 PUSH20 0xFFFFFFFFFFFFFFFFFFFFFFFFFFFFFFFFFFFFFFFF AND PUSH1 0x2 PUSH1 0x0 SWAP1 SLOAD SWAP1 PUSH2 0x100 EXP SWAP1 DIV PUSH20 0xFFFFFFFFFFFFFFFFFFFFFFFFFFFFFFFFFFFFFFFF AND PUSH20 0xFFFFFFFFFFFFFFFFFFFFFFFFFFFFFFFFFFFFFFFF AND EQ SWAP1 POP SWAP2 SWAP1 POP JUMP JUMPDEST PUSH1 0xF DUP2 DUP2 SLOAD DUP2 LT PUSH2 0x399A JUMPI PUSH1 0x0 DUP1 REVERT JUMPDEST SWAP1 PUSH1 0x0 MSTORE PUSH1 0x20 PUSH1 0x0 KECCAK256 ADD PUSH1 0x0 SWAP2 POP SLOAD SWAP1 PUSH2 0x100 EXP SWAP1 DIV PUSH20 0xFFFFFFFFFFFFFFFFFFFFFFFFFFFFFFFFFFFFFFFF AND DUP2 JUMP JUMPDEST PUSH1 0x0 PUSH1 0x4 PUSH1 0x0 DUP4 PUSH20 0xFFFFFFFFFFFFFFFFFFFFFFFFFFFFFFFFFFFFFFFF AND PUSH20 0xFFFFFFFFFFFFFFFFFFFFFFFFFFFFFFFFFFFFFFFF AND DUP2 MSTORE PUSH1 0x20 ADD SWAP1 DUP2 MSTORE PUSH1 0x20 ADD PUSH1 0x0 KECCAK256 PUSH1 0x0 ADD PUSH1 0x0 SWAP1 SLOAD SWAP1 PUSH2 0x100 EXP SWAP1 DIV PUSH1 0xFF AND SWAP1 POP SWAP2 SWAP1 POP JUMP JUMPDEST PUSH1 0xC DUP2 DUP2 SLOAD DUP2 LT PUSH2 0x3A32 JUMPI PUSH1 0x0 DUP1 REVERT JUMPDEST SWAP1 PUSH1 0x0 MSTORE PUSH1 0x20 PUSH1 0x0 KECCAK256 ADD PUSH1 0x0 SWAP2 POP SLOAD SWAP1 PUSH2 0x100 EXP SWAP1 DIV PUSH20 0xFFFFFFFFFFFFFFFFFFFFFFFFFFFFFFFFFFFFFFFF AND DUP2 JUMP JUMPDEST PUSH2 0x3A6A DUP3 PUSH2 0x2956 JUMP JUMPDEST PUSH2 0x3AA9 JUMPI PUSH1 0x40 MLOAD PUSH32 0x8C379A000000000000000000000000000000000000000000000000000000000 DUP2 MSTORE PUSH1 0x4 ADD PUSH2 0x3AA0 SWAP1 PUSH2 0x4F03 JUMP JUMPDEST PUSH1 0x40 MLOAD DUP1 SWAP2 SUB SWAP1 REVERT JUMPDEST DUP1 PUSH1 0x3 PUSH1 0x0 DUP5 PUSH20 0xFFFFFFFFFFFFFFFFFFFFFFFFFFFFFFFFFFFFFFFF AND PUSH20 0xFFFFFFFFFFFFFFFFFFFFFFFFFFFFFFFFFFFFFFFF AND DUP2 MSTORE PUSH1 0x20 ADD SWAP1 DUP2 MSTORE PUSH1 0x20 ADD PUSH1 0x0 KECCAK256 PUSH1 0x0 ADD PUSH1 0x0 PUSH2 0x100 EXP DUP2 SLOAD DUP2 PUSH1 0xFF MUL NOT AND SWAP1 DUP4 ISZERO ISZERO MUL OR SWAP1 SSTORE POP POP POP JUMP JUMPDEST PUSH2 0x3B10 DUP2 PUSH2 0x2956 JUMP JUMPDEST ISZERO PUSH2 0x3B50 JUMPI PUSH1 0x40 MLOAD PUSH32 0x8C379A000000000000000000000000000000000000000000000000000000000 DUP2 MSTORE PUSH1 0x4 ADD PUSH2 0x3B47 SWAP1 PUSH2 0x5023 JUMP JUMPDEST PUSH1 0x40 MLOAD DUP1 SWAP2 SUB SWAP1 REVERT JUMPDEST PUSH1 0x1 PUSH1 0x3 PUSH1 0x0 DUP4 PUSH20 0xFFFFFFFFFFFFFFFFFFFFFFFFFFFFFFFFFFFFFFFF AND PUSH20 0xFFFFFFFFFFFFFFFFFFFFFFFFFFFFFFFFFFFFFFFF AND DUP2 MSTORE PUSH1 0x20 ADD SWAP1 DUP2 MSTORE PUSH1 0x20 ADD PUSH1 0x0 KECCAK256 PUSH1 0x0 ADD PUSH1 0x0 PUSH2 0x100 EXP DUP2 SLOAD DUP2 PUSH1 0xFF MUL NOT AND SWAP1 DUP4 ISZERO ISZERO MUL OR SWAP1 SSTORE POP PUSH1 0xC DUP2 SWAP1 DUP1 PUSH1 0x1 DUP2 SLOAD ADD DUP1 DUP3 SSTORE DUP1 SWAP2 POP POP PUSH1 0x1 SWAP1 SUB SWAP1 PUSH1 0x0 MSTORE PUSH1 0x20 PUSH1 0x0 KECCAK256 ADD PUSH1 0x0 SWAP1 SWAP2 SWAP1 SWAP2 SWAP1 SWAP2 PUSH2 0x100 EXP DUP2 SLOAD DUP2 PUSH20 0xFFFFFFFFFFFFFFFFFFFFFFFFFFFFFFFFFFFFFFFF MUL NOT AND SWAP1 DUP4 PUSH20 0xFFFFFFFFFFFFFFFFFFFFFFFFFFFFFFFFFFFFFFFF AND MUL OR SWAP1 SSTORE POP POP JUMP JUMPDEST PUSH2 0x3C1A DUP4 PUSH2 0x197A JUMP JUMPDEST ISZERO PUSH2 0x3C5A JUMPI PUSH1 0x40 MLOAD PUSH32 0x8C379A000000000000000000000000000000000000000000000000000000000 DUP2 MSTORE PUSH1 0x4 ADD PUSH2 0x3C51 SWAP1 PUSH2 0x4F23 JUMP JUMPDEST PUSH1 0x40 MLOAD DUP1 SWAP2 SUB SWAP1 REVERT JUMPDEST PUSH1 0x1 PUSH1 0x8 PUSH1 0x0 DUP6 PUSH20 0xFFFFFFFFFFFFFFFFFFFFFFFFFFFFFFFFFFFFFFFF AND PUSH20 0xFFFFFFFFFFFFFFFFFFFFFFFFFFFFFFFFFFFFFFFF AND DUP2 MSTORE PUSH1 0x20 ADD SWAP1 DUP2 MSTORE PUSH1 0x20 ADD PUSH1 0x0 KECCAK256 PUSH1 0x0 ADD PUSH1 0x0 PUSH2 0x100 EXP DUP2 SLOAD DUP2 PUSH1 0xFF MUL NOT AND SWAP1 DUP4 ISZERO ISZERO MUL OR SWAP1 SSTORE POP DUP2 PUSH1 0x8 PUSH1 0x0 DUP6 PUSH20 0xFFFFFFFFFFFFFFFFFFFFFFFFFFFFFFFFFFFFFFFF AND PUSH20 0xFFFFFFFFFFFFFFFFFFFFFFFFFFFFFFFFFFFFFFFF AND DUP2 MSTORE PUSH1 0x20 ADD SWAP1 DUP2 MSTORE PUSH1 0x20 ADD PUSH1 0x0 KECCAK256 PUSH1 0x1 ADD SWAP1 DUP1 MLOAD SWAP1 PUSH1 0x20 ADD SWAP1 PUSH2 0x3D0B SWAP3 SWAP2 SWAP1 PUSH2 0x3FD7 JUMP JUMPDEST POP DUP1 PUSH1 0x8 PUSH1 0x0 DUP6 PUSH20 0xFFFFFFFFFFFFFFFFFFFFFFFFFFFFFFFFFFFFFFFF AND PUSH20 0xFFFFFFFFFFFFFFFFFFFFFFFFFFFFFFFFFFFFFFFF AND DUP2 MSTORE PUSH1 0x20 ADD SWAP1 DUP2 MSTORE PUSH1 0x20 ADD PUSH1 0x0 KECCAK256 PUSH1 0x2 ADD PUSH1 0x0 PUSH2 0x100 EXP DUP2 SLOAD DUP2 PUSH1 0xFF MUL NOT AND SWAP1 DUP4 PUSH1 0xFF AND MUL OR SWAP1 SSTORE POP PUSH1 0x10 DUP4 SWAP1 DUP1 PUSH1 0x1 DUP2 SLOAD ADD DUP1 DUP3 SSTORE DUP1 SWAP2 POP POP PUSH1 0x1 SWAP1 SUB SWAP1 PUSH1 0x0 MSTORE PUSH1 0x20 PUSH1 0x0 KECCAK256 ADD PUSH1 0x0 SWAP1 SWAP2 SWAP1 SWAP2 SWAP1 SWAP2 PUSH2 0x100 EXP DUP2 SLOAD DUP2 PUSH20 0xFFFFFFFFFFFFFFFFFFFFFFFFFFFFFFFFFFFFFFFF MUL NOT AND SWAP1 DUP4 PUSH20 0xFFFFFFFFFFFFFFFFFFFFFFFFFFFFFFFFFFFFFFFF AND MUL OR SWAP1 SSTORE POP POP POP POP JUMP JUMPDEST PUSH1 0x60 PUSH1 0x0 PUSH1 0x12 DUP1 SLOAD SWAP1 POP PUSH8 0xFFFFFFFFFFFFFFFF DUP2 GT ISZERO PUSH2 0x3DF2 JUMPI PUSH2 0x3DF1 PUSH2 0x54EE JUMP JUMPDEST JUMPDEST PUSH1 0x40 MLOAD SWAP1 DUP1 DUP3 MSTORE DUP1 PUSH1 0x20 MUL PUSH1 0x20 ADD DUP3 ADD PUSH1 0x40 MSTORE DUP1 ISZERO PUSH2 0x3E2B JUMPI DUP2 PUSH1 0x20 ADD JUMPDEST PUSH2 0x3E18 PUSH2 0x4162 JUMP JUMPDEST DUP2 MSTORE PUSH1 0x20 ADD SWAP1 PUSH1 0x1 SWAP1 SUB SWAP1 DUP2 PUSH2 0x3E10 JUMPI SWAP1 POP JUMPDEST POP SWAP1 POP PUSH1 0x0 DUP1 JUMPDEST PUSH1 0x12 DUP1 SLOAD SWAP1 POP DUP2 LT ISZERO PUSH2 0x3FCE JUMPI PUSH1 0xA PUSH1 0x0 PUSH1 0x12 DUP4 DUP2 SLOAD DUP2 LT PUSH2 0x3E57 JUMPI PUSH2 0x3E56 PUSH2 0x54BF JUMP JUMPDEST JUMPDEST SWAP1 PUSH1 0x0 MSTORE PUSH1 0x20 PUSH1 0x0 KECCAK256 ADD PUSH1 0x0 SWAP1 SLOAD SWAP1 PUSH2 0x100 EXP SWAP1 DIV PUSH20 0xFFFFFFFFFFFFFFFFFFFFFFFFFFFFFFFFFFFFFFFF AND PUSH20 0xFFFFFFFFFFFFFFFFFFFFFFFFFFFFFFFFFFFFFFFF AND PUSH20 0xFFFFFFFFFFFFFFFFFFFFFFFFFFFFFFFFFFFFFFFF AND DUP2 MSTORE PUSH1 0x20 ADD SWAP1 DUP2 MSTORE PUSH1 0x20 ADD PUSH1 0x0 KECCAK256 PUSH1 0x40 MLOAD DUP1 PUSH1 0x60 ADD PUSH1 0x40 MSTORE SWAP1 DUP2 PUSH1 0x0 DUP3 ADD PUSH1 0x0 SWAP1 SLOAD SWAP1 PUSH2 0x100 EXP SWAP1 DIV PUSH1 0xFF AND ISZERO ISZERO ISZERO ISZERO DUP2 MSTORE PUSH1 0x20 ADD PUSH1 0x1 DUP3 ADD DUP1 SLOAD PUSH2 0x3EF2 SWAP1 PUSH2 0x5386 JUMP JUMPDEST DUP1 PUSH1 0x1F ADD PUSH1 0x20 DUP1 SWAP2 DIV MUL PUSH1 0x20 ADD PUSH1 0x40 MLOAD SWAP1 DUP2 ADD PUSH1 0x40 MSTORE DUP1 SWAP3 SWAP2 SWAP1 DUP2 DUP2 MSTORE PUSH1 0x20 ADD DUP3 DUP1 SLOAD PUSH2 0x3F1E SWAP1 PUSH2 0x5386 JUMP JUMPDEST DUP1 ISZERO PUSH2 0x3F6B JUMPI DUP1 PUSH1 0x1F LT PUSH2 0x3F40 JUMPI PUSH2 0x100 DUP1 DUP4 SLOAD DIV MUL DUP4 MSTORE SWAP2 PUSH1 0x20 ADD SWAP2 PUSH2 0x3F6B JUMP JUMPDEST DUP3 ADD SWAP2 SWAP1 PUSH1 0x0 MSTORE PUSH1 0x20 PUSH1 0x0 KECCAK256 SWAP1 JUMPDEST DUP2 SLOAD DUP2 MSTORE SWAP1 PUSH1 0x1 ADD SWAP1 PUSH1 0x20 ADD DUP1 DUP4 GT PUSH2 0x3F4E JUMPI DUP3 SWAP1 SUB PUSH1 0x1F AND DUP3 ADD SWAP2 JUMPDEST POP POP POP POP POP DUP2 MSTORE PUSH1 0x20 ADD PUSH1 0x2 DUP3 ADD PUSH1 0x0 SWAP1 SLOAD SWAP1 PUSH2 0x100 EXP SWAP1 DIV PUSH1 0xFF AND PUSH1 0xFF AND PUSH1 0xFF AND DUP2 MSTORE POP POP DUP4 DUP4 DUP1 PUSH2 0x3F9D SWAP1 PUSH2 0x53E9 JUMP JUMPDEST SWAP5 POP DUP2 MLOAD DUP2 LT PUSH2 0x3FB0 JUMPI PUSH2 0x3FAF PUSH2 0x54BF JUMP JUMPDEST JUMPDEST PUSH1 0x20 MUL PUSH1 0x20 ADD ADD DUP2 SWAP1 MSTORE POP DUP1 DUP1 PUSH2 0x3FC6 SWAP1 PUSH2 0x53E9 JUMP JUMPDEST SWAP2 POP POP PUSH2 0x3E32 JUMP JUMPDEST POP DUP2 SWAP3 POP POP POP SWAP1 JUMP JUMPDEST DUP3 DUP1 SLOAD PUSH2 0x3FE3 SWAP1 PUSH2 0x5386 JUMP JUMPDEST SWAP1 PUSH1 0x0 MSTORE PUSH1 0x20 PUSH1 0x0 KECCAK256 SWAP1 PUSH1 0x1F ADD PUSH1 0x20 SWAP1 DIV DUP2 ADD SWAP3 DUP3 PUSH2 0x4005 JUMPI PUSH1 0x0 DUP6 SSTORE PUSH2 0x404C JUMP JUMPDEST DUP3 PUSH1 0x1F LT PUSH2 0x401E JUMPI DUP1 MLOAD PUSH1 0xFF NOT AND DUP4 DUP1 ADD OR DUP6 SSTORE PUSH2 0x404C JUMP JUMPDEST DUP3 DUP1 ADD PUSH1 0x1 ADD DUP6 SSTORE DUP3 ISZERO PUSH2 0x404C JUMPI SWAP2 DUP3 ADD JUMPDEST DUP3 DUP2 GT ISZERO PUSH2 0x404B JUMPI DUP3 MLOAD DUP3 SSTORE SWAP2 PUSH1 0x20 ADD SWAP2 SWAP1 PUSH1 0x1 ADD SWAP1 PUSH2 0x4030 JUMP JUMPDEST JUMPDEST POP SWAP1 POP PUSH2 0x4059 SWAP2 SWAP1 PUSH2 0x4188 JUMP JUMPDEST POP SWAP1 JUMP JUMPDEST POP DUP1 SLOAD PUSH2 0x4069 SWAP1 PUSH2 0x5386 JUMP JUMPDEST PUSH1 0x0 DUP3 SSTORE DUP1 PUSH1 0x1F LT PUSH2 0x407B JUMPI POP PUSH2 0x409A JUMP JUMPDEST PUSH1 0x1F ADD PUSH1 0x20 SWAP1 DIV SWAP1 PUSH1 0x0 MSTORE PUSH1 0x20 PUSH1 0x0 KECCAK256 SWAP1 DUP2 ADD SWAP1 PUSH2 0x4099 SWAP2 SWAP1 PUSH2 0x4188 JUMP JUMPDEST JUMPDEST POP JUMP JUMPDEST PUSH1 0x40 MLOAD DUP1 PUSH1 0x60 ADD PUSH1 0x40 MSTORE DUP1 PUSH1 0x0 ISZERO ISZERO DUP2 MSTORE PUSH1 0x20 ADD PUSH1 0x60 DUP2 MSTORE PUSH1 0x20 ADD PUSH1 0x0 PUSH1 0xFF AND DUP2 MSTORE POP SWAP1 JUMP JUMPDEST PUSH1 0x40 MLOAD DUP1 PUSH1 0x60 ADD PUSH1 0x40 MSTORE DUP1 PUSH1 0x0 ISZERO ISZERO DUP2 MSTORE PUSH1 0x20 ADD PUSH1 0x60 DUP2 MSTORE PUSH1 0x20 ADD PUSH1 0x0 PUSH1 0xFF AND DUP2 MSTORE POP SWAP1 JUMP JUMPDEST PUSH1 0x40 MLOAD DUP1 PUSH1 0x60 ADD PUSH1 0x40 MSTORE DUP1 PUSH1 0x0 ISZERO ISZERO DUP2 MSTORE PUSH1 0x20 ADD PUSH1 0x60 DUP2 MSTORE PUSH1 0x20 ADD PUSH1 0x0 PUSH1 0xFF AND DUP2 MSTORE POP SWAP1 JUMP JUMPDEST PUSH1 0x40 MLOAD DUP1 PUSH1 0x80 ADD PUSH1 0x40 MSTORE DUP1 PUSH1 0x0 ISZERO ISZERO DUP2 MSTORE PUSH1 0x20 ADD PUSH1 0x0 PUSH1 0xFF AND DUP2 MSTORE PUSH1 0x20 ADD PUSH1 0x0 DUP2 MSTORE PUSH1 0x20 ADD PUSH1 0x60 DUP2 MSTORE POP SWAP1 JUMP JUMPDEST PUSH1 0x40 MLOAD DUP1 PUSH1 0x60 ADD PUSH1 0x40 MSTORE DUP1 PUSH1 0x0 ISZERO ISZERO DUP2 MSTORE PUSH1 0x20 ADD PUSH1 0x60 DUP2 MSTORE PUSH1 0x20 ADD PUSH1 0x0 PUSH1 0xFF AND DUP2 MSTORE POP SWAP1 JUMP JUMPDEST PUSH1 0x40 MLOAD DUP1 PUSH1 0x60 ADD PUSH1 0x40 MSTORE DUP1 PUSH1 0x0 ISZERO ISZERO DUP2 MSTORE PUSH1 0x20 ADD PUSH1 0x60 DUP2 MSTORE PUSH1 0x20 ADD PUSH1 0x0 PUSH1 0xFF AND DUP2 MSTORE POP SWAP1 JUMP JUMPDEST JUMPDEST DUP1 DUP3 GT ISZERO PUSH2 0x41A1 JUMPI PUSH1 0x0 DUP2 PUSH1 0x0 SWAP1 SSTORE POP PUSH1 0x1 ADD PUSH2 0x4189 JUMP JUMPDEST POP SWAP1 JUMP JUMPDEST PUSH1 0x0 PUSH2 0x41B8 PUSH2 0x41B3 DUP5 PUSH2 0x50F8 JUMP JUMPDEST PUSH2 0x50D3 JUMP JUMPDEST SWAP1 POP DUP3 DUP2 MSTORE PUSH1 0x20 DUP2 ADD DUP5 DUP5 DUP5 ADD GT ISZERO PUSH2 0x41D4 JUMPI PUSH2 0x41D3 PUSH2 0x5522 JUMP JUMPDEST JUMPDEST PUSH2 0x41DF DUP5 DUP3 DUP6 PUSH2 0x5344 JUMP JUMPDEST POP SWAP4 SWAP3 POP POP POP JUMP JUMPDEST PUSH1 0x0 DUP2 CALLDATALOAD SWAP1 POP PUSH2 0x41F6 DUP2 PUSH2 0x5809 JUMP JUMPDEST SWAP3 SWAP2 POP POP JUMP JUMPDEST PUSH1 0x0 DUP2 CALLDATALOAD SWAP1 POP PUSH2 0x420B DUP2 PUSH2 0x5820 JUMP JUMPDEST SWAP3 SWAP2 POP POP JUMP JUMPDEST PUSH1 0x0 DUP3 PUSH1 0x1F DUP4 ADD SLT PUSH2 0x4226 JUMPI PUSH2 0x4225 PUSH2 0x551D JUMP JUMPDEST JUMPDEST DUP2 CALLDATALOAD PUSH2 0x4236 DUP5 DUP3 PUSH1 0x20 DUP7 ADD PUSH2 0x41A5 JUMP JUMPDEST SWAP2 POP POP SWAP3 SWAP2 POP POP JUMP JUMPDEST PUSH1 0x0 DUP2 CALLDATALOAD SWAP1 POP PUSH2 0x424E DUP2 PUSH2 0x5837 JUMP JUMPDEST SWAP3 SWAP2 POP POP JUMP JUMPDEST PUSH1 0x0 DUP2 CALLDATALOAD SWAP1 POP PUSH2 0x4263 DUP2 PUSH2 0x584E JUMP JUMPDEST SWAP3 SWAP2 POP POP JUMP JUMPDEST PUSH1 0x0 DUP2 CALLDATALOAD SWAP1 POP PUSH2 0x4278 DUP2 PUSH2 0x5865 JUMP JUMPDEST SWAP3 SWAP2 POP POP JUMP JUMPDEST PUSH1 0x0 PUSH1 0x20 DUP3 DUP5 SUB SLT ISZERO PUSH2 0x4294 JUMPI PUSH2 0x4293 PUSH2 0x552C JUMP JUMPDEST JUMPDEST PUSH1 0x0 PUSH2 0x42A2 DUP5 DUP3 DUP6 ADD PUSH2 0x41E7 JUMP JUMPDEST SWAP2 POP POP SWAP3 SWAP2 POP POP JUMP JUMPDEST PUSH1 0x0 DUP1 PUSH1 0x0 PUSH1 0x60 DUP5 DUP7 SUB SLT ISZERO PUSH2 0x42C4 JUMPI PUSH2 0x42C3 PUSH2 0x552C JUMP JUMPDEST JUMPDEST PUSH1 0x0 PUSH2 0x42D2 DUP7 DUP3 DUP8 ADD PUSH2 0x41E7 JUMP JUMPDEST SWAP4 POP POP PUSH1 0x20 PUSH2 0x42E3 DUP7 DUP3 DUP8 ADD PUSH2 0x41E7 JUMP JUMPDEST SWAP3 POP POP PUSH1 0x40 PUSH2 0x42F4 DUP7 DUP3 DUP8 ADD PUSH2 0x41E7 JUMP JUMPDEST SWAP2 POP POP SWAP3 POP SWAP3 POP SWAP3 JUMP JUMPDEST PUSH1 0x0 DUP1 PUSH1 0x40 DUP4 DUP6 SUB SLT ISZERO PUSH2 0x4315 JUMPI PUSH2 0x4314 PUSH2 0x552C JUMP JUMPDEST JUMPDEST PUSH1 0x0 PUSH2 0x4323 DUP6 DUP3 DUP7 ADD PUSH2 0x41E7 JUMP JUMPDEST SWAP3 POP POP PUSH1 0x20 PUSH2 0x4334 DUP6 DUP3 DUP7 ADD PUSH2 0x41FC JUMP JUMPDEST SWAP2 POP POP SWAP3 POP SWAP3 SWAP1 POP JUMP JUMPDEST PUSH1 0x0 DUP1 PUSH1 0x0 DUP1 PUSH1 0x80 DUP6 DUP8 SUB SLT ISZERO PUSH2 0x4358 JUMPI PUSH2 0x4357 PUSH2 0x552C JUMP JUMPDEST JUMPDEST PUSH1 0x0 PUSH2 0x4366 DUP8 DUP3 DUP9 ADD PUSH2 0x41E7 JUMP JUMPDEST SWAP5 POP POP PUSH1 0x20 DUP6 ADD CALLDATALOAD PUSH8 0xFFFFFFFFFFFFFFFF DUP2 GT ISZERO PUSH2 0x4387 JUMPI PUSH2 0x4386 PUSH2 0x5527 JUMP JUMPDEST JUMPDEST PUSH2 0x4393 DUP8 DUP3 DUP9 ADD PUSH2 0x4211 JUMP JUMPDEST SWAP4 POP POP PUSH1 0x40 PUSH2 0x43A4 DUP8 DUP3 DUP9 ADD PUSH2 0x423F JUMP JUMPDEST SWAP3 POP POP PUSH1 0x60 PUSH2 0x43B5 DUP8 DUP3 DUP9 ADD PUSH2 0x4269 JUMP JUMPDEST SWAP2 POP POP SWAP3 SWAP6 SWAP2 SWAP5 POP SWAP3 POP JUMP JUMPDEST PUSH1 0x0 DUP1 PUSH1 0x0 PUSH1 0x60 DUP5 DUP7 SUB SLT ISZERO PUSH2 0x43DA JUMPI PUSH2 0x43D9 PUSH2 0x552C JUMP JUMPDEST JUMPDEST PUSH1 0x0 PUSH2 0x43E8 DUP7 DUP3 DUP8 ADD PUSH2 0x41E7 JUMP JUMPDEST SWAP4 POP POP PUSH1 0x20 DUP5 ADD CALLDATALOAD PUSH8 0xFFFFFFFFFFFFFFFF DUP2 GT ISZERO PUSH2 0x4409 JUMPI PUSH2 0x4408 PUSH2 0x5527 JUMP JUMPDEST JUMPDEST PUSH2 0x4415 DUP7 DUP3 DUP8 ADD PUSH2 0x4211 JUMP JUMPDEST SWAP3 POP POP PUSH1 0x40 PUSH2 0x4426 DUP7 DUP3 DUP8 ADD PUSH2 0x4269 JUMP JUMPDEST SWAP2 POP POP SWAP3 POP SWAP3 POP SWAP3 JUMP JUMPDEST PUSH1 0x0 PUSH1 0x20 DUP3 DUP5 SUB SLT ISZERO PUSH2 0x4446 JUMPI PUSH2 0x4445 PUSH2 0x552C JUMP JUMPDEST JUMPDEST PUSH1 0x0 PUSH2 0x4454 DUP5 DUP3 DUP6 ADD PUSH2 0x423F JUMP JUMPDEST SWAP2 POP POP SWAP3 SWAP2 POP POP JUMP JUMPDEST PUSH1 0x0 PUSH1 0x20 DUP3 DUP5 SUB SLT ISZERO PUSH2 0x4473 JUMPI PUSH2 0x4472 PUSH2 0x552C JUMP JUMPDEST JUMPDEST PUSH1 0x0 PUSH2 0x4481 DUP5 DUP3 DUP6 ADD PUSH2 0x4254 JUMP JUMPDEST SWAP2 POP POP SWAP3 SWAP2 POP POP JUMP JUMPDEST PUSH1 0x0 PUSH2 0x4496 DUP4 DUP4 PUSH2 0x4A7B JUMP JUMPDEST SWAP1 POP SWAP3 SWAP2 POP POP JUMP JUMPDEST PUSH1 0x0 PUSH2 0x44AA DUP4 DUP4 PUSH2 0x4ADE JUMP JUMPDEST SWAP1 POP SWAP3 SWAP2 POP POP JUMP JUMPDEST PUSH1 0x0 PUSH2 0x44BE DUP4 DUP4 PUSH2 0x4B2E JUMP JUMPDEST SWAP1 POP SWAP3 SWAP2 POP POP JUMP JUMPDEST PUSH1 0x0 PUSH2 0x44D2 DUP4 DUP4 PUSH2 0x4B7E JUMP JUMPDEST SWAP1 POP SWAP3 SWAP2 POP POP JUMP JUMPDEST PUSH1 0x0 PUSH2 0x44E6 DUP4 DUP4 PUSH2 0x4BCE JUMP JUMPDEST SWAP1 POP SWAP3 SWAP2 POP POP JUMP JUMPDEST PUSH1 0x0 PUSH2 0x44FA DUP4 DUP4 PUSH2 0x4C1E JUMP JUMPDEST SWAP1 POP SWAP3 SWAP2 POP POP JUMP JUMPDEST PUSH2 0x450B DUP2 PUSH2 0x52AC JUMP JUMPDEST DUP3 MSTORE POP POP JUMP JUMPDEST PUSH1 0x0 PUSH2 0x451C DUP3 PUSH2 0x5189 JUMP JUMPDEST PUSH2 0x4526 DUP2 DUP6 PUSH2 0x5224 JUMP JUMPDEST SWAP4 POP DUP4 PUSH1 0x20 DUP3 MUL DUP6 ADD PUSH2 0x4538 DUP6 PUSH2 0x5129 JUMP JUMPDEST DUP1 PUSH1 0x0 JUMPDEST DUP6 DUP2 LT ISZERO PUSH2 0x4574 JUMPI DUP5 DUP5 SUB DUP10 MSTORE DUP2 MLOAD PUSH2 0x4555 DUP6 DUP3 PUSH2 0x448A JUMP JUMPDEST SWAP5 POP PUSH2 0x4560 DUP4 PUSH2 0x51D6 JUMP JUMPDEST SWAP3 POP PUSH1 0x20 DUP11 ADD SWAP10 POP POP PUSH1 0x1 DUP2 ADD SWAP1 POP PUSH2 0x453C JUMP JUMPDEST POP DUP3 SWAP8 POP DUP8 SWAP6 POP POP POP POP POP POP SWAP3 SWAP2 POP POP JUMP JUMPDEST PUSH1 0x0 PUSH2 0x4591 DUP3 PUSH2 0x5194 JUMP JUMPDEST PUSH2 0x459B DUP2 DUP6 PUSH2 0x5235 JUMP JUMPDEST SWAP4 POP DUP4 PUSH1 0x20 DUP3 MUL DUP6 ADD PUSH2 0x45AD DUP6 PUSH2 0x5139 JUMP JUMPDEST DUP1 PUSH1 0x0 JUMPDEST DUP6 DUP2 LT ISZERO PUSH2 0x45E9 JUMPI DUP5 DUP5 SUB DUP10 MSTORE DUP2 MLOAD PUSH2 0x45CA DUP6 DUP3 PUSH2 0x449E JUMP JUMPDEST SWAP5 POP PUSH2 0x45D5 DUP4 PUSH2 0x51E3 JUMP JUMPDEST SWAP3 POP PUSH1 0x20 DUP11 ADD SWAP10 POP POP PUSH1 0x1 DUP2 ADD SWAP1 POP PUSH2 0x45B1 JUMP JUMPDEST POP DUP3 SWAP8 POP DUP8 SWAP6 POP POP POP POP POP POP SWAP3 SWAP2 POP POP JUMP JUMPDEST PUSH1 0x0 PUSH2 0x4606 DUP3 PUSH2 0x519F JUMP JUMPDEST PUSH2 0x4610 DUP2 DUP6 PUSH2 0x5246 JUMP JUMPDEST SWAP4 POP DUP4 PUSH1 0x20 DUP3 MUL DUP6 ADD PUSH2 0x4622 DUP6 PUSH2 0x5149 JUMP JUMPDEST DUP1 PUSH1 0x0 JUMPDEST DUP6 DUP2 LT ISZERO PUSH2 0x465E JUMPI DUP5 DUP5 SUB DUP10 MSTORE DUP2 MLOAD PUSH2 0x463F DUP6 DUP3 PUSH2 0x44B2 JUMP JUMPDEST SWAP5 POP PUSH2 0x464A DUP4 PUSH2 0x51F0 JUMP JUMPDEST SWAP3 POP PUSH1 0x20 DUP11 ADD SWAP10 POP POP PUSH1 0x1 DUP2 ADD SWAP1 POP PUSH2 0x4626 JUMP JUMPDEST POP DUP3 SWAP8 POP DUP8 SWAP6 POP POP POP POP POP POP SWAP3 SWAP2 POP POP JUMP JUMPDEST PUSH1 0x0 PUSH2 0x467B DUP3 PUSH2 0x51AA JUMP JUMPDEST PUSH2 0x4685 DUP2 DUP6 PUSH2 0x5257 JUMP JUMPDEST SWAP4 POP DUP4 PUSH1 0x20 DUP3 MUL DUP6 ADD PUSH2 0x4697 DUP6 PUSH2 0x5159 JUMP JUMPDEST DUP1 PUSH1 0x0 JUMPDEST DUP6 DUP2 LT ISZERO PUSH2 0x46D3 JUMPI DUP5 DUP5 SUB DUP10 MSTORE DUP2 MLOAD PUSH2 0x46B4 DUP6 DUP3 PUSH2 0x44C6 JUMP JUMPDEST SWAP5 POP PUSH2 0x46BF DUP4 PUSH2 0x51FD JUMP JUMPDEST SWAP3 POP PUSH1 0x20 DUP11 ADD SWAP10 POP POP PUSH1 0x1 DUP2 ADD SWAP1 POP PUSH2 0x469B JUMP JUMPDEST POP DUP3 SWAP8 POP DUP8 SWAP6 POP POP POP POP POP POP SWAP3 SWAP2 POP POP JUMP JUMPDEST PUSH1 0x0 PUSH2 0x46F0 DUP3 PUSH2 0x51B5 JUMP JUMPDEST PUSH2 0x46FA DUP2 DUP6 PUSH2 0x5268 JUMP JUMPDEST SWAP4 POP DUP4 PUSH1 0x20 DUP3 MUL DUP6 ADD PUSH2 0x470C DUP6 PUSH2 0x5169 JUMP JUMPDEST DUP1 PUSH1 0x0 JUMPDEST DUP6 DUP2 LT ISZERO PUSH2 0x4748 JUMPI DUP5 DUP5 SUB DUP10 MSTORE DUP2 MLOAD PUSH2 0x4729 DUP6 DUP3 PUSH2 0x44DA JUMP JUMPDEST SWAP5 POP PUSH2 0x4734 DUP4 PUSH2 0x520A JUMP JUMPDEST SWAP3 POP PUSH1 0x20 DUP11 ADD SWAP10 POP POP PUSH1 0x1 DUP2 ADD SWAP1 POP PUSH2 0x4710 JUMP JUMPDEST POP DUP3 SWAP8 POP DUP8 SWAP6 POP POP POP POP POP POP SWAP3 SWAP2 POP POP JUMP JUMPDEST PUSH1 0x0 PUSH2 0x4765 DUP3 PUSH2 0x51C0 JUMP JUMPDEST PUSH2 0x476F DUP2 DUP6 PUSH2 0x5279 JUMP JUMPDEST SWAP4 POP DUP4 PUSH1 0x20 DUP3 MUL DUP6 ADD PUSH2 0x4781 DUP6 PUSH2 0x5179 JUMP JUMPDEST DUP1 PUSH1 0x0 JUMPDEST DUP6 DUP2 LT ISZERO PUSH2 0x47BD JUMPI DUP5 DUP5 SUB DUP10 MSTORE DUP2 MLOAD PUSH2 0x479E DUP6 DUP3 PUSH2 0x44EE JUMP JUMPDEST SWAP5 POP PUSH2 0x47A9 DUP4 PUSH2 0x5217 JUMP JUMPDEST SWAP3 POP PUSH1 0x20 DUP11 ADD SWAP10 POP POP PUSH1 0x1 DUP2 ADD SWAP1 POP PUSH2 0x4785 JUMP JUMPDEST POP DUP3 SWAP8 POP DUP8 SWAP6 POP POP POP POP POP POP SWAP3 SWAP2 POP POP JUMP JUMPDEST PUSH2 0x47D8 DUP2 PUSH2 0x52BE JUMP JUMPDEST DUP3 MSTORE POP POP JUMP JUMPDEST PUSH2 0x47E7 DUP2 PUSH2 0x52BE JUMP JUMPDEST DUP3 MSTORE POP POP JUMP JUMPDEST PUSH2 0x47F6 DUP2 PUSH2 0x5332 JUMP JUMPDEST DUP3 MSTORE POP POP JUMP JUMPDEST PUSH1 0x0 PUSH2 0x4807 DUP3 PUSH2 0x51CB JUMP JUMPDEST PUSH2 0x4811 DUP2 DUP6 PUSH2 0x528A JUMP JUMPDEST SWAP4 POP PUSH2 0x4821 DUP2 DUP6 PUSH1 0x20 DUP7 ADD PUSH2 0x5353 JUMP JUMPDEST PUSH2 0x482A DUP2 PUSH2 0x5531 JUMP JUMPDEST DUP5 ADD SWAP2 POP POP SWAP3 SWAP2 POP POP JUMP JUMPDEST PUSH1 0x0 PUSH2 0x4840 DUP3 PUSH2 0x51CB JUMP JUMPDEST PUSH2 0x484A DUP2 DUP6 PUSH2 0x529B JUMP JUMPDEST SWAP4 POP PUSH2 0x485A DUP2 DUP6 PUSH1 0x20 DUP7 ADD PUSH2 0x5353 JUMP JUMPDEST PUSH2 0x4863 DUP2 PUSH2 0x5531 JUMP JUMPDEST DUP5 ADD SWAP2 POP POP SWAP3 SWAP2 POP POP JUMP JUMPDEST PUSH1 0x0 PUSH2 0x487B PUSH1 0x19 DUP4 PUSH2 0x529B JUMP JUMPDEST SWAP2 POP PUSH2 0x4886 DUP3 PUSH2 0x5542 JUMP JUMPDEST PUSH1 0x20 DUP3 ADD SWAP1 POP SWAP2 SWAP1 POP JUMP JUMPDEST PUSH1 0x0 PUSH2 0x489E PUSH1 0x17 DUP4 PUSH2 0x529B JUMP JUMPDEST SWAP2 POP PUSH2 0x48A9 DUP3 PUSH2 0x556B JUMP JUMPDEST PUSH1 0x20 DUP3 ADD SWAP1 POP SWAP2 SWAP1 POP JUMP JUMPDEST PUSH1 0x0 PUSH2 0x48C1 PUSH1 0x11 DUP4 PUSH2 0x529B JUMP JUMPDEST SWAP2 POP PUSH2 0x48CC DUP3 PUSH2 0x5594 JUMP JUMPDEST PUSH1 0x20 DUP3 ADD SWAP1 POP SWAP2 SWAP1 POP JUMP JUMPDEST PUSH1 0x0 PUSH2 0x48E4 PUSH1 0x18 DUP4 PUSH2 0x529B JUMP JUMPDEST SWAP2 POP PUSH2 0x48EF DUP3 PUSH2 0x55BD JUMP JUMPDEST PUSH1 0x20 DUP3 ADD SWAP1 POP SWAP2 SWAP1 POP JUMP JUMPDEST PUSH1 0x0 PUSH2 0x4907 PUSH1 0x12 DUP4 PUSH2 0x529B JUMP JUMPDEST SWAP2 POP PUSH2 0x4912 DUP3 PUSH2 0x55E6 JUMP JUMPDEST PUSH1 0x20 DUP3 ADD SWAP1 POP SWAP2 SWAP1 POP JUMP JUMPDEST PUSH1 0x0 PUSH2 0x492A PUSH1 0x1E DUP4 PUSH2 0x529B JUMP JUMPDEST SWAP2 POP PUSH2 0x4935 DUP3 PUSH2 0x560F JUMP JUMPDEST PUSH1 0x20 DUP3 ADD SWAP1 POP SWAP2 SWAP1 POP JUMP JUMPDEST PUSH1 0x0 PUSH2 0x494D PUSH1 0x1E DUP4 PUSH2 0x529B JUMP JUMPDEST SWAP2 POP PUSH2 0x4958 DUP3 PUSH2 0x5638 JUMP JUMPDEST PUSH1 0x20 DUP3 ADD SWAP1 POP SWAP2 SWAP1 POP JUMP JUMPDEST PUSH1 0x0 PUSH2 0x4970 PUSH1 0x22 DUP4 PUSH2 0x529B JUMP JUMPDEST SWAP2 POP PUSH2 0x497B DUP3 PUSH2 0x5661 JUMP JUMPDEST PUSH1 0x40 DUP3 ADD SWAP1 POP SWAP2 SWAP1 POP JUMP JUMPDEST PUSH1 0x0 PUSH2 0x4993 PUSH1 0x22 DUP4 PUSH2 0x529B JUMP JUMPDEST SWAP2 POP PUSH2 0x499E DUP3 PUSH2 0x56B0 JUMP JUMPDEST PUSH1 0x40 DUP3 ADD SWAP1 POP SWAP2 SWAP1 POP JUMP JUMPDEST PUSH1 0x0 PUSH2 0x49B6 PUSH1 0x17 DUP4 PUSH2 0x529B JUMP JUMPDEST SWAP2 POP PUSH2 0x49C1 DUP3 PUSH2 0x56FF JUMP JUMPDEST PUSH1 0x20 DUP3 ADD SWAP1 POP SWAP2 SWAP1 POP JUMP JUMPDEST PUSH1 0x0 PUSH2 0x49D9 PUSH1 0x1E DUP4 PUSH2 0x529B JUMP JUMPDEST SWAP2 POP PUSH2 0x49E4 DUP3 PUSH2 0x5728 JUMP JUMPDEST PUSH1 0x20 DUP3 ADD SWAP1 POP SWAP2 SWAP1 POP JUMP JUMPDEST PUSH1 0x0 PUSH2 0x49FC PUSH1 0x11 DUP4 PUSH2 0x529B JUMP JUMPDEST SWAP2 POP PUSH2 0x4A07 DUP3 PUSH2 0x5751 JUMP JUMPDEST PUSH1 0x20 DUP3 ADD SWAP1 POP SWAP2 SWAP1 POP JUMP JUMPDEST PUSH1 0x0 PUSH2 0x4A1F PUSH1 0x18 DUP4 PUSH2 0x529B JUMP JUMPDEST SWAP2 POP PUSH2 0x4A2A DUP3 PUSH2 0x577A JUMP JUMPDEST PUSH1 0x20 DUP3 ADD SWAP1 POP SWAP2 SWAP1 POP JUMP JUMPDEST PUSH1 0x0 PUSH2 0x4A42 PUSH1 0x12 DUP4 PUSH2 0x529B JUMP JUMPDEST SWAP2 POP PUSH2 0x4A4D DUP3 PUSH2 0x57A3 JUMP JUMPDEST PUSH1 0x20 DUP3 ADD SWAP1 POP SWAP2 SWAP1 POP JUMP JUMPDEST PUSH1 0x0 PUSH2 0x4A65 PUSH1 0x19 DUP4 PUSH2 0x529B JUMP JUMPDEST SWAP2 POP PUSH2 0x4A70 DUP3 PUSH2 0x57CC JUMP JUMPDEST PUSH1 0x20 DUP3 ADD SWAP1 POP SWAP2 SWAP1 POP JUMP JUMPDEST PUSH1 0x0 PUSH1 0x80 DUP4 ADD PUSH1 0x0 DUP4 ADD MLOAD PUSH2 0x4A93 PUSH1 0x0 DUP7 ADD DUP3 PUSH2 0x47CF JUMP JUMPDEST POP PUSH1 0x20 DUP4 ADD MLOAD PUSH2 0x4AA6 PUSH1 0x20 DUP7 ADD DUP3 PUSH2 0x4CAA JUMP JUMPDEST POP PUSH1 0x40 DUP4 ADD MLOAD PUSH2 0x4AB9 PUSH1 0x40 DUP7 ADD DUP3 PUSH2 0x4C7D JUMP JUMPDEST POP PUSH1 0x60 DUP4 ADD MLOAD DUP5 DUP3 SUB PUSH1 0x60 DUP7 ADD MSTORE PUSH2 0x4AD1 DUP3 DUP3 PUSH2 0x47FC JUMP JUMPDEST SWAP2 POP POP DUP1 SWAP2 POP POP SWAP3 SWAP2 POP POP JUMP JUMPDEST PUSH1 0x0 PUSH1 0x60 DUP4 ADD PUSH1 0x0 DUP4 ADD MLOAD PUSH2 0x4AF6 PUSH1 0x0 DUP7 ADD DUP3 PUSH2 0x47CF JUMP JUMPDEST POP PUSH1 0x20 DUP4 ADD MLOAD DUP5 DUP3 SUB PUSH1 0x20 DUP7 ADD MSTORE PUSH2 0x4B0E DUP3 DUP3 PUSH2 0x47FC JUMP JUMPDEST SWAP2 POP POP PUSH1 0x40 DUP4 ADD MLOAD PUSH2 0x4B23 PUSH1 0x40 DUP7 ADD DUP3 PUSH2 0x4CAA JUMP JUMPDEST POP DUP1 SWAP2 POP POP SWAP3 SWAP2 POP POP JUMP JUMPDEST PUSH1 0x0 PUSH1 0x60 DUP4 ADD PUSH1 0x0 DUP4 ADD MLOAD PUSH2 0x4B46 PUSH1 0x0 DUP7 ADD DUP3 PUSH2 0x47CF JUMP JUMPDEST POP PUSH1 0x20 DUP4 ADD MLOAD DUP5 DUP3 SUB PUSH1 0x20 DUP7 ADD MSTORE PUSH2 0x4B5E DUP3 DUP3 PUSH2 0x47FC JUMP JUMPDEST SWAP2 POP POP PUSH1 0x40 DUP4 ADD MLOAD PUSH2 0x4B73 PUSH1 0x40 DUP7 ADD DUP3 PUSH2 0x4CAA JUMP JUMPDEST POP DUP1 SWAP2 POP POP SWAP3 SWAP2 POP POP JUMP JUMPDEST PUSH1 0x0 PUSH1 0x60 DUP4 ADD PUSH1 0x0 DUP4 ADD MLOAD PUSH2 0x4B96 PUSH1 0x0 DUP7 ADD DUP3 PUSH2 0x47CF JUMP JUMPDEST POP PUSH1 0x20 DUP4 ADD MLOAD DUP5 DUP3 SUB PUSH1 0x20 DUP7 ADD MSTORE PUSH2 0x4BAE DUP3 DUP3 PUSH2 0x47FC JUMP JUMPDEST SWAP2 POP POP PUSH1 0x40 DUP4 ADD MLOAD PUSH2 0x4BC3 PUSH1 0x40 DUP7 ADD DUP3 PUSH2 0x4CAA JUMP JUMPDEST POP DUP1 SWAP2 POP POP SWAP3 SWAP2 POP POP JUMP JUMPDEST PUSH1 0x0 PUSH1 0x60 DUP4 ADD PUSH1 0x0 DUP4 ADD MLOAD PUSH2 0x4BE6 PUSH1 0x0 DUP7 ADD DUP3 PUSH2 0x47CF JUMP JUMPDEST POP PUSH1 0x20 DUP4 ADD MLOAD DUP5 DUP3 SUB PUSH1 0x20 DUP7 ADD MSTORE PUSH2 0x4BFE DUP3 DUP3 PUSH2 0x47FC JUMP JUMPDEST SWAP2 POP POP PUSH1 0x40 DUP4 ADD MLOAD PUSH2 0x4C13 PUSH1 0x40 DUP7 ADD DUP3 PUSH2 0x4CAA JUMP JUMPDEST POP DUP1 SWAP2 POP POP SWAP3 SWAP2 POP POP JUMP JUMPDEST PUSH1 0x0 PUSH1 0x60 DUP4 ADD PUSH1 0x0 DUP4 ADD MLOAD PUSH2 0x4C36 PUSH1 0x0 DUP7 ADD DUP3 PUSH2 0x47CF JUMP JUMPDEST POP PUSH1 0x20 DUP4 ADD MLOAD DUP5 DUP3 SUB PUSH1 0x20 DUP7 ADD MSTORE PUSH2 0x4C4E DUP3 DUP3 PUSH2 0x47FC JUMP JUMPDEST SWAP2 POP POP PUSH1 0x40 DUP4 ADD MLOAD PUSH2 0x4C63 PUSH1 0x40 DUP7 ADD DUP3 PUSH2 0x4CAA JUMP JUMPDEST POP DUP1 SWAP2 POP POP SWAP3 SWAP2 POP POP JUMP JUMPDEST PUSH2 0x4C77 DUP2 PUSH2 0x52DD JUMP JUMPDEST DUP3 MSTORE POP POP JUMP JUMPDEST PUSH2 0x4C86 DUP2 PUSH2 0x530B JUMP JUMPDEST DUP3 MSTORE POP POP JUMP JUMPDEST PUSH2 0x4C95 DUP2 PUSH2 0x530B JUMP JUMPDEST DUP3 MSTORE POP POP JUMP JUMPDEST PUSH2 0x4CA4 DUP2 PUSH2 0x5315 JUMP JUMPDEST DUP3 MSTORE POP POP JUMP JUMPDEST PUSH2 0x4CB3 DUP2 PUSH2 0x5325 JUMP JUMPDEST DUP3 MSTORE POP POP JUMP JUMPDEST PUSH2 0x4CC2 DUP2 PUSH2 0x5325 JUMP JUMPDEST DUP3 MSTORE POP POP JUMP JUMPDEST PUSH1 0x0 PUSH1 0x20 DUP3 ADD SWAP1 POP PUSH2 0x4CDD PUSH1 0x0 DUP4 ADD DUP5 PUSH2 0x4502 JUMP JUMPDEST SWAP3 SWAP2 POP POP JUMP JUMPDEST PUSH1 0x0 PUSH1 0x20 DUP3 ADD SWAP1 POP DUP2 DUP2 SUB PUSH1 0x0 DUP4 ADD MSTORE PUSH2 0x4CFD DUP2 DUP5 PUSH2 0x4511 JUMP JUMPDEST SWAP1 POP SWAP3 SWAP2 POP POP JUMP JUMPDEST PUSH1 0x0 PUSH1 0x20 DUP3 ADD SWAP1 POP DUP2 DUP2 SUB PUSH1 0x0 DUP4 ADD MSTORE PUSH2 0x4D1F DUP2 DUP5 PUSH2 0x4586 JUMP JUMPDEST SWAP1 POP SWAP3 SWAP2 POP POP JUMP JUMPDEST PUSH1 0x0 PUSH1 0x20 DUP3 ADD SWAP1 POP DUP2 DUP2 SUB PUSH1 0x0 DUP4 ADD MSTORE PUSH2 0x4D41 DUP2 DUP5 PUSH2 0x45FB JUMP JUMPDEST SWAP1 POP SWAP3 SWAP2 POP POP JUMP JUMPDEST PUSH1 0x0 PUSH1 0x20 DUP3 ADD SWAP1 POP DUP2 DUP2 SUB PUSH1 0x0 DUP4 ADD MSTORE PUSH2 0x4D63 DUP2 DUP5 PUSH2 0x4670 JUMP JUMPDEST SWAP1 POP SWAP3 SWAP2 POP POP JUMP JUMPDEST PUSH1 0x0 PUSH1 0x20 DUP3 ADD SWAP1 POP DUP2 DUP2 SUB PUSH1 0x0 DUP4 ADD MSTORE PUSH2 0x4D85 DUP2 DUP5 PUSH2 0x46E5 JUMP JUMPDEST SWAP1 POP SWAP3 SWAP2 POP POP JUMP JUMPDEST PUSH1 0x0 PUSH1 0x20 DUP3 ADD SWAP1 POP DUP2 DUP2 SUB PUSH1 0x0 DUP4 ADD MSTORE PUSH2 0x4DA7 DUP2 DUP5 PUSH2 0x475A JUMP JUMPDEST SWAP1 POP SWAP3 SWAP2 POP POP JUMP JUMPDEST PUSH1 0x0 PUSH1 0x20 DUP3 ADD SWAP1 POP PUSH2 0x4DC4 PUSH1 0x0 DUP4 ADD DUP5 PUSH2 0x47DE JUMP JUMPDEST SWAP3 SWAP2 POP POP JUMP JUMPDEST PUSH1 0x0 PUSH1 0xC0 DUP3 ADD SWAP1 POP PUSH2 0x4DDF PUSH1 0x0 DUP4 ADD DUP10 PUSH2 0x47DE JUMP JUMPDEST PUSH2 0x4DEC PUSH1 0x20 DUP4 ADD DUP9 PUSH2 0x4502 JUMP JUMPDEST PUSH2 0x4DF9 PUSH1 0x40 DUP4 ADD DUP8 PUSH2 0x4C6E JUMP JUMPDEST PUSH2 0x4E06 PUSH1 0x60 DUP4 ADD DUP7 PUSH2 0x47ED JUMP JUMPDEST DUP2 DUP2 SUB PUSH1 0x80 DUP4 ADD MSTORE PUSH2 0x4E18 DUP2 DUP6 PUSH2 0x4835 JUMP JUMPDEST SWAP1 POP DUP2 DUP2 SUB PUSH1 0xA0 DUP4 ADD MSTORE PUSH2 0x4E2C DUP2 DUP5 PUSH2 0x4835 JUMP JUMPDEST SWAP1 POP SWAP8 SWAP7 POP POP POP POP POP POP POP JUMP JUMPDEST PUSH1 0x0 PUSH1 0x60 DUP3 ADD SWAP1 POP PUSH2 0x4E4E PUSH1 0x0 DUP4 ADD DUP7 PUSH2 0x47DE JUMP JUMPDEST DUP2 DUP2 SUB PUSH1 0x20 DUP4 ADD MSTORE PUSH2 0x4E60 DUP2 DUP6 PUSH2 0x4835 JUMP JUMPDEST SWAP1 POP PUSH2 0x4E6F PUSH1 0x40 DUP4 ADD DUP5 PUSH2 0x4CB9 JUMP JUMPDEST SWAP5 SWAP4 POP POP POP POP JUMP JUMPDEST PUSH1 0x0 PUSH1 0x80 DUP3 ADD SWAP1 POP PUSH2 0x4E8C PUSH1 0x0 DUP4 ADD DUP8 PUSH2 0x47DE JUMP JUMPDEST PUSH2 0x4E99 PUSH1 0x20 DUP4 ADD DUP7 PUSH2 0x4CB9 JUMP JUMPDEST PUSH2 0x4EA6 PUSH1 0x40 DUP4 ADD DUP6 PUSH2 0x4C8C JUMP JUMPDEST DUP2 DUP2 SUB PUSH1 0x60 DUP4 ADD MSTORE PUSH2 0x4EB8 DUP2 DUP5 PUSH2 0x4835 JUMP JUMPDEST SWAP1 POP SWAP6 SWAP5 POP POP POP POP POP JUMP JUMPDEST PUSH1 0x0 PUSH1 0x20 DUP3 ADD SWAP1 POP DUP2 DUP2 SUB PUSH1 0x0 DUP4 ADD MSTORE PUSH2 0x4EDC DUP2 PUSH2 0x486E JUMP JUMPDEST SWAP1 POP SWAP2 SWAP1 POP JUMP JUMPDEST PUSH1 0x0 PUSH1 0x20 DUP3 ADD SWAP1 POP DUP2 DUP2 SUB PUSH1 0x0 DUP4 ADD MSTORE PUSH2 0x4EFC DUP2 PUSH2 0x4891 JUMP JUMPDEST SWAP1 POP SWAP2 SWAP1 POP JUMP JUMPDEST PUSH1 0x0 PUSH1 0x20 DUP3 ADD SWAP1 POP DUP2 DUP2 SUB PUSH1 0x0 DUP4 ADD MSTORE PUSH2 0x4F1C DUP2 PUSH2 0x48B4 JUMP JUMPDEST SWAP1 POP SWAP2 SWAP1 POP JUMP JUMPDEST PUSH1 0x0 PUSH1 0x20 DUP3 ADD SWAP1 POP DUP2 DUP2 SUB PUSH1 0x0 DUP4 ADD MSTORE PUSH2 0x4F3C DUP2 PUSH2 0x48D7 JUMP JUMPDEST SWAP1 POP SWAP2 SWAP1 POP JUMP JUMPDEST PUSH1 0x0 PUSH1 0x20 DUP3 ADD SWAP1 POP DUP2 DUP2 SUB PUSH1 0x0 DUP4 ADD MSTORE PUSH2 0x4F5C DUP2 PUSH2 0x48FA JUMP JUMPDEST SWAP1 POP SWAP2 SWAP1 POP JUMP JUMPDEST PUSH1 0x0 PUSH1 0x20 DUP3 ADD SWAP1 POP DUP2 DUP2 SUB PUSH1 0x0 DUP4 ADD MSTORE PUSH2 0x4F7C DUP2 PUSH2 0x491D JUMP JUMPDEST SWAP1 POP SWAP2 SWAP1 POP JUMP JUMPDEST PUSH1 0x0 PUSH1 0x20 DUP3 ADD SWAP1 POP DUP2 DUP2 SUB PUSH1 0x0 DUP4 ADD MSTORE PUSH2 0x4F9C DUP2 PUSH2 0x4940 JUMP JUMPDEST SWAP1 POP SWAP2 SWAP1 POP JUMP JUMPDEST PUSH1 0x0 PUSH1 0x20 DUP3 ADD SWAP1 POP DUP2 DUP2 SUB PUSH1 0x0 DUP4 ADD MSTORE PUSH2 0x4FBC DUP2 PUSH2 0x4963 JUMP JUMPDEST SWAP1 POP SWAP2 SWAP1 POP JUMP JUMPDEST PUSH1 0x0 PUSH1 0x20 DUP3 ADD SWAP1 POP DUP2 DUP2 SUB PUSH1 0x0 DUP4 ADD MSTORE PUSH2 0x4FDC DUP2 PUSH2 0x4986 JUMP JUMPDEST SWAP1 POP SWAP2 SWAP1 POP JUMP JUMPDEST PUSH1 0x0 PUSH1 0x20 DUP3 ADD SWAP1 POP DUP2 DUP2 SUB PUSH1 0x0 DUP4 ADD MSTORE PUSH2 0x4FFC DUP2 PUSH2 0x49A9 JUMP JUMPDEST SWAP1 POP SWAP2 SWAP1 POP JUMP JUMPDEST PUSH1 0x0 PUSH1 0x20 DUP3 ADD SWAP1 POP DUP2 DUP2 SUB PUSH1 0x0 DUP4 ADD MSTORE PUSH2 0x501C DUP2 PUSH2 0x49CC JUMP JUMPDEST SWAP1 POP SWAP2 SWAP1 POP JUMP JUMPDEST PUSH1 0x0 PUSH1 0x20 DUP3 ADD SWAP1 POP DUP2 DUP2 SUB PUSH1 0x0 DUP4 ADD MSTORE PUSH2 0x503C DUP2 PUSH2 0x49EF JUMP JUMPDEST SWAP1 POP SWAP2 SWAP1 POP JUMP JUMPDEST PUSH1 0x0 PUSH1 0x20 DUP3 ADD SWAP1 POP DUP2 DUP2 SUB PUSH1 0x0 DUP4 ADD MSTORE PUSH2 0x505C DUP2 PUSH2 0x4A12 JUMP JUMPDEST SWAP1 POP SWAP2 SWAP1 POP JUMP JUMPDEST PUSH1 0x0 PUSH1 0x20 DUP3 ADD SWAP1 POP DUP2 DUP2 SUB PUSH1 0x0 DUP4 ADD MSTORE PUSH2 0x507C DUP2 PUSH2 0x4A35 JUMP JUMPDEST SWAP1 POP SWAP2 SWAP1 POP JUMP JUMPDEST PUSH1 0x0 PUSH1 0x20 DUP3 ADD SWAP1 POP DUP2 DUP2 SUB PUSH1 0x0 DUP4 ADD MSTORE PUSH2 0x509C DUP2 PUSH2 0x4A58 JUMP JUMPDEST SWAP1 POP SWAP2 SWAP1 POP JUMP JUMPDEST PUSH1 0x0 PUSH1 0x40 DUP3 ADD SWAP1 POP PUSH2 0x50B8 PUSH1 0x0 DUP4 ADD DUP6 PUSH2 0x4C9B JUMP JUMPDEST DUP2 DUP2 SUB PUSH1 0x20 DUP4 ADD MSTORE PUSH2 0x50CA DUP2 DUP5 PUSH2 0x4835 JUMP JUMPDEST SWAP1 POP SWAP4 SWAP3 POP POP POP JUMP JUMPDEST PUSH1 0x0 PUSH2 0x50DD PUSH2 0x50EE JUMP JUMPDEST SWAP1 POP PUSH2 0x50E9 DUP3 DUP3 PUSH2 0x53B8 JUMP JUMPDEST SWAP2 SWAP1 POP JUMP JUMPDEST PUSH1 0x0 PUSH1 0x40 MLOAD SWAP1 POP SWAP1 JUMP JUMPDEST PUSH1 0x0 PUSH8 0xFFFFFFFFFFFFFFFF DUP3 GT ISZERO PUSH2 0x5113 JUMPI PUSH2 0x5112 PUSH2 0x54EE JUMP JUMPDEST JUMPDEST PUSH2 0x511C DUP3 PUSH2 0x5531 JUMP JUMPDEST SWAP1 POP PUSH1 0x20 DUP2 ADD SWAP1 POP SWAP2 SWAP1 POP JUMP JUMPDEST PUSH1 0x0 DUP2 SWAP1 POP PUSH1 0x20 DUP3 ADD SWAP1 POP SWAP2 SWAP1 POP JUMP JUMPDEST PUSH1 0x0 DUP2 SWAP1 POP PUSH1 0x20 DUP3 ADD SWAP1 POP SWAP2 SWAP1 POP JUMP JUMPDEST PUSH1 0x0 DUP2 SWAP1 POP PUSH1 0x20 DUP3 ADD SWAP1 POP SWAP2 SWAP1 POP JUMP JUMPDEST PUSH1 0x0 DUP2 SWAP1 POP PUSH1 0x20 DUP3 ADD SWAP1 POP SWAP2 SWAP1 POP JUMP JUMPDEST PUSH1 0x0 DUP2 SWAP1 POP PUSH1 0x20 DUP3 ADD SWAP1 POP SWAP2 SWAP1 POP JUMP JUMPDEST PUSH1 0x0 DUP2 SWAP1 POP PUSH1 0x20 DUP3 ADD SWAP1 POP SWAP2 SWAP1 POP JUMP JUMPDEST PUSH1 0x0 DUP2 MLOAD SWAP1 POP SWAP2 SWAP1 POP JUMP JUMPDEST PUSH1 0x0 DUP2 MLOAD SWAP1 POP SWAP2 SWAP1 POP JUMP JUMPDEST PUSH1 0x0 DUP2 MLOAD SWAP1 POP SWAP2 SWAP1 POP JUMP JUMPDEST PUSH1 0x0 DUP2 MLOAD SWAP1 POP SWAP2 SWAP1 POP JUMP JUMPDEST PUSH1 0x0 DUP2 MLOAD SWAP1 POP SWAP2 SWAP1 POP JUMP JUMPDEST PUSH1 0x0 DUP2 MLOAD SWAP1 POP SWAP2 SWAP1 POP JUMP JUMPDEST PUSH1 0x0 DUP2 MLOAD SWAP1 POP SWAP2 SWAP1 POP JUMP JUMPDEST PUSH1 0x0 PUSH1 0x20 DUP3 ADD SWAP1 POP SWAP2 SWAP1 POP JUMP JUMPDEST PUSH1 0x0 PUSH1 0x20 DUP3 ADD SWAP1 POP SWAP2 SWAP1 POP JUMP JUMPDEST PUSH1 0x0 PUSH1 0x20 DUP3 ADD SWAP1 POP SWAP2 SWAP1 POP JUMP JUMPDEST PUSH1 0x0 PUSH1 0x20 DUP3 ADD SWAP1 POP SWAP2 SWAP1 POP JUMP JUMPDEST PUSH1 0x0 PUSH1 0x20 DUP3 ADD SWAP1 POP SWAP2 SWAP1 POP JUMP JUMPDEST PUSH1 0x0 PUSH1 0x20 DUP3 ADD SWAP1 POP SWAP2 SWAP1 POP JUMP JUMPDEST PUSH1 0x0 DUP3 DUP3 MSTORE PUSH1 0x20 DUP3 ADD SWAP1 POP SWAP3 SWAP2 POP POP JUMP JUMPDEST PUSH1 0x0 DUP3 DUP3 MSTORE PUSH1 0x20 DUP3 ADD SWAP1 POP SWAP3 SWAP2 POP POP JUMP JUMPDEST PUSH1 0x0 DUP3 DUP3 MSTORE PUSH1 0x20 DUP3 ADD SWAP1 POP SWAP3 SWAP2 POP POP JUMP JUMPDEST PUSH1 0x0 DUP3 DUP3 MSTORE PUSH1 0x20 DUP3 ADD SWAP1 POP SWAP3 SWAP2 POP POP JUMP JUMPDEST PUSH1 0x0 DUP3 DUP3 MSTORE PUSH1 0x20 DUP3 ADD SWAP1 POP SWAP3 SWAP2 POP POP JUMP JUMPDEST PUSH1 0x0 DUP3 DUP3 MSTORE PUSH1 0x20 DUP3 ADD SWAP1 POP SWAP3 SWAP2 POP POP JUMP JUMPDEST PUSH1 0x0 DUP3 DUP3 MSTORE PUSH1 0x20 DUP3 ADD SWAP1 POP SWAP3 SWAP2 POP POP JUMP JUMPDEST PUSH1 0x0 DUP3 DUP3 MSTORE PUSH1 0x20 DUP3 ADD SWAP1 POP SWAP3 SWAP2 POP POP JUMP JUMPDEST PUSH1 0x0 PUSH2 0x52B7 DUP3 PUSH2 0x52EB JUMP JUMPDEST SWAP1 POP SWAP2 SWAP1 POP JUMP JUMPDEST PUSH1 0x0 DUP2 ISZERO ISZERO SWAP1 POP SWAP2 SWAP1 POP JUMP JUMPDEST PUSH1 0x0 DUP2 SWAP1 POP PUSH2 0x52D8 DUP3 PUSH2 0x57F5 JUMP JUMPDEST SWAP2 SWAP1 POP JUMP JUMPDEST PUSH1 0x0 PUSH2 0xFFFF DUP3 AND SWAP1 POP SWAP2 SWAP1 POP JUMP JUMPDEST PUSH1 0x0 PUSH20 0xFFFFFFFFFFFFFFFFFFFFFFFFFFFFFFFFFFFFFFFF DUP3 AND SWAP1 POP SWAP2 SWAP1 POP JUMP JUMPDEST PUSH1 0x0 DUP2 SWAP1 POP SWAP2 SWAP1 POP JUMP JUMPDEST PUSH1 0x0 PUSH4 0xFFFFFFFF DUP3 AND SWAP1 POP SWAP2 SWAP1 POP JUMP JUMPDEST PUSH1 0x0 PUSH1 0xFF DUP3 AND SWAP1 POP SWAP2 SWAP1 POP JUMP JUMPDEST PUSH1 0x0 PUSH2 0x533D DUP3 PUSH2 0x52CA JUMP JUMPDEST SWAP1 POP SWAP2 SWAP1 POP JUMP JUMPDEST DUP3 DUP2 DUP4 CALLDATACOPY PUSH1 0x0 DUP4 DUP4 ADD MSTORE POP POP POP JUMP JUMPDEST PUSH1 0x0 JUMPDEST DUP4 DUP2 LT ISZERO PUSH2 0x5371 JUMPI DUP1 DUP3 ADD MLOAD DUP2 DUP5 ADD MSTORE PUSH1 0x20 DUP2 ADD SWAP1 POP PUSH2 0x5356 JUMP JUMPDEST DUP4 DUP2 GT ISZERO PUSH2 0x5380 JUMPI PUSH1 0x0 DUP5 DUP5 ADD MSTORE JUMPDEST POP POP POP POP JUMP JUMPDEST PUSH1 0x0 PUSH1 0x2 DUP3 DIV SWAP1 POP PUSH1 0x1 DUP3 AND DUP1 PUSH2 0x539E JUMPI PUSH1 0x7F DUP3 AND SWAP2 POP JUMPDEST PUSH1 0x20 DUP3 LT DUP2 EQ ISZERO PUSH2 0x53B2 JUMPI PUSH2 0x53B1 PUSH2 0x5490 JUMP JUMPDEST JUMPDEST POP SWAP2 SWAP1 POP JUMP JUMPDEST PUSH2 0x53C1 DUP3 PUSH2 0x5531 JUMP JUMPDEST DUP2 ADD DUP2 DUP2 LT PUSH8 0xFFFFFFFFFFFFFFFF DUP3 GT OR ISZERO PUSH2 0x53E0 JUMPI PUSH2 0x53DF PUSH2 0x54EE JUMP JUMPDEST JUMPDEST DUP1 PUSH1 0x40 MSTORE POP POP POP JUMP JUMPDEST PUSH1 0x0 PUSH2 0x53F4 DUP3 PUSH2 0x530B JUMP JUMPDEST SWAP2 POP PUSH32 0xFFFFFFFFFFFFFFFFFFFFFFFFFFFFFFFFFFFFFFFFFFFFFFFFFFFFFFFFFFFFFFFF DUP3 EQ ISZERO PUSH2 0x5427 JUMPI PUSH2 0x5426 PUSH2 0x5432 JUMP JUMPDEST JUMPDEST PUSH1 0x1 DUP3 ADD SWAP1 POP SWAP2 SWAP1 POP JUMP JUMPDEST PUSH32 0x4E487B7100000000000000000000000000000000000000000000000000000000 PUSH1 0x0 MSTORE PUSH1 0x11 PUSH1 0x4 MSTORE PUSH1 0x24 PUSH1 0x0 REVERT JUMPDEST PUSH32 0x4E487B7100000000000000000000000000000000000000000000000000000000 PUSH1 0x0 MSTORE PUSH1 0x21 PUSH1 0x4 MSTORE PUSH1 0x24 PUSH1 0x0 REVERT JUMPDEST PUSH32 0x4E487B7100000000000000000000000000000000000000000000000000000000 PUSH1 0x0 MSTORE PUSH1 0x22 PUSH1 0x4 MSTORE PUSH1 0x24 PUSH1 0x0 REVERT JUMPDEST PUSH32 0x4E487B7100000000000000000000000000000000000000000000000000000000 PUSH1 0x0 MSTORE PUSH1 0x32 PUSH1 0x4 MSTORE PUSH1 0x24 PUSH1 0x0 REVERT JUMPDEST PUSH32 0x4E487B7100000000000000000000000000000000000000000000000000000000 PUSH1 0x0 MSTORE PUSH1 0x41 PUSH1 0x4 MSTORE PUSH1 0x24 PUSH1 0x0 REVERT JUMPDEST PUSH1 0x0 DUP1 REVERT JUMPDEST PUSH1 0x0 DUP1 REVERT JUMPDEST PUSH1 0x0 DUP1 REVERT JUMPDEST PUSH1 0x0 DUP1 REVERT JUMPDEST PUSH1 0x0 PUSH1 0x1F NOT PUSH1 0x1F DUP4 ADD AND SWAP1 POP SWAP2 SWAP1 POP JUMP JUMPDEST PUSH32 0x4B757273204D65726B657A69205A6174656E204D657663757400000000000000 PUSH1 0x0 DUP3 ADD MSTORE POP JUMP JUMPDEST PUSH32 0x556E6976657273697465204D657663757420446567696C000000000000000000 PUSH1 0x0 DUP3 ADD MSTORE POP JUMP JUMPDEST PUSH32 0x4B697369204D657663757420446567696C000000000000000000000000000000 PUSH1 0x0 DUP3 ADD MSTORE POP JUMP JUMPDEST PUSH32 0x4B616D75204B7572756D75205A6174656E204D65766375740000000000000000 PUSH1 0x0 DUP3 ADD MSTORE POP JUMP JUMPDEST PUSH32 0x4669726D61205A6174656E204D65766375740000000000000000000000000000 PUSH1 0x0 DUP3 ADD MSTORE POP JUMP JUMPDEST PUSH32 0x5361646563652043422062752069736C656D69207961706162696C69722E0000 PUSH1 0x0 DUP3 ADD MSTORE POP JUMP JUMPDEST PUSH32 0x536572746966696B61204D65726B657A69205A6174656E204D65766375740000 PUSH1 0x0 DUP3 ADD MSTORE POP JUMP JUMPDEST PUSH32 0x536976696C20546F706C756D204B7572756C757375204D657663757420446567 PUSH1 0x0 DUP3 ADD MSTORE PUSH32 0x696C000000000000000000000000000000000000000000000000000000000000 PUSH1 0x20 DUP3 ADD MSTORE POP JUMP JUMPDEST PUSH32 0x536976696C20546F706C756D204B7572756C757375205A6174656E204D657663 PUSH1 0x0 DUP3 ADD MSTORE PUSH32 0x7574000000000000000000000000000000000000000000000000000000000000 PUSH1 0x20 DUP3 ADD MSTORE POP JUMP JUMPDEST PUSH32 0x556E6976657273697465205A6174656E204D6576637574000000000000000000 PUSH1 0x0 DUP3 ADD MSTORE POP JUMP JUMPDEST PUSH32 0x536572746966696B61204D65726B657A69204D657663757420446567696C0000 PUSH1 0x0 DUP3 ADD MSTORE POP JUMP JUMPDEST PUSH32 0x4B697369205A6174656E204D6576637574000000000000000000000000000000 PUSH1 0x0 DUP3 ADD MSTORE POP JUMP JUMPDEST PUSH32 0x4B616D75204B7572756D75204D657663757420446567696C0000000000000000 PUSH1 0x0 DUP3 ADD MSTORE POP JUMP JUMPDEST PUSH32 0x4669726D61204D657663757420446567696C0000000000000000000000000000 PUSH1 0x0 DUP3 ADD MSTORE POP JUMP JUMPDEST PUSH32 0x4B757273204D65726B657A69204D657663757420446567696C00000000000000 PUSH1 0x0 DUP3 ADD MSTORE POP JUMP JUMPDEST PUSH1 0x4 DUP2 LT PUSH2 0x5806 JUMPI PUSH2 0x5805 PUSH2 0x5461 JUMP JUMPDEST JUMPDEST POP JUMP JUMPDEST PUSH2 0x5812 DUP2 PUSH2 0x52AC JUMP JUMPDEST DUP2 EQ PUSH2 0x581D JUMPI PUSH1 0x0 DUP1 REVERT JUMPDEST POP JUMP JUMPDEST PUSH2 0x5829 DUP2 PUSH2 0x52BE JUMP JUMPDEST DUP2 EQ PUSH2 0x5834 JUMPI PUSH1 0x0 DUP1 REVERT JUMPDEST POP JUMP JUMPDEST PUSH2 0x5840 DUP2 PUSH2 0x530B JUMP JUMPDEST DUP2 EQ PUSH2 0x584B JUMPI PUSH1 0x0 DUP1 REVERT JUMPDEST POP JUMP JUMPDEST PUSH2 0x5857 DUP2 PUSH2 0x5315 JUMP JUMPDEST DUP2 EQ PUSH2 0x5862 JUMPI PUSH1 0x0 DUP1 REVERT JUMPDEST POP JUMP JUMPDEST PUSH2 0x586E DUP2 PUSH2 0x5325 JUMP JUMPDEST DUP2 EQ PUSH2 0x5879 JUMPI PUSH1 0x0 DUP1 REVERT JUMPDEST POP JUMP INVALID LOG2 PUSH5 0x6970667358 0x22 SLT KECCAK256 0x4D SWAP16 0xC8 PUSH3 0x766780 0xB5 LT 0xBA 0xE7 RETURNDATACOPY EQ SHL MSTORE DUP13 DUP11 PUSH7 0x5698E768BD2A7D DUP8 CHAINID DIFFICULTY CALL 0xB6 0xB0 0xF7 PUSH5 0x736F6C6343 STOP ADDMOD SMOD STOP CALLER "
		},
		"gasEstimates": {
			"creation": {
				"codeDepositCost": "4541200",
				"executionCost": "5295",
				"totalCost": "4546495"
			},
			"external": {
				"YOK()": "2645",
				"akademisyenler(address)": "infinite",
				"diller(uint32)": "infinite",
				"ekleFirma(address,string,uint256,uint8)": "infinite",
				"ekleKamuKurumu(address,string,uint8)": "infinite",
				"ekleKisi(address)": "75780",
				"ekleKurs(address,string,uint8)": "infinite",
				"ekleSTK(address,string,uint8)": "infinite",
				"ekleSertifikaMerkezi(address,string,uint8)": "infinite",
				"ekleUniversite(address,string,uint8)": "infinite",
				"firmaAdresleri(uint256)": "5046",
				"firmalar(address)": "infinite",
				"getFirmaListesi()": "infinite",
				"getKamuKurumuListesi()": "infinite",
				"getKursListesi()": "infinite",
				"getSmListesi()": "infinite",
				"getStkListesi()": "infinite",
				"getUniversiteListesi()": "infinite",
				"guncelleFirma(address,string,uint256,uint8)": "infinite",
				"guncelleKamuKurumu(address,string,uint8)": "infinite",
				"guncelleKisi(address,bool)": "27355",
				"guncelleKurs(address,string,uint8)": "infinite",
				"guncelleSTK(address,string,uint8)": "infinite",
				"guncelleSertifikaMerkezi(address,string,uint8)": "infinite",
				"guncelleUniversite(address,string,uint8)": "infinite",
				"isCB(address)": "2944",
				"isFirma(address)": "3001",
				"isKamuKurumu(address)": "2979",
				"isKisi(address)": "3023",
				"isKurs(address)": "2958",
				"isSTK(address)": "3001",
				"isSertifikaMerkezi(address)": "3000",
				"isTOBB(address)": "2946",
				"isUniversite(address)": "2978",
				"isYOK(address)": "2920",
				"kamuKurumAdresleri(uint256)": "5047",
				"kamuKurumlari(address)": "infinite",
				"kisiAdresleri(uint256)": "5067",
				"kisiler(address)": "2937",
				"kursAdresleri(uint256)": "5023",
				"kurslar(address)": "infinite",
				"paydasTanimla(address,address,address)": "infinite",
				"sertifikaMerkezleri(address)": "infinite",
				"silFirma(address)": "infinite",
				"silKamuKurumu(address)": "infinite",
				"silKisi(address)": "27185",
				"silKurs(address)": "infinite",
				"silSTK(address)": "infinite",
				"silSertifikaMerkezi(address)": "infinite",
				"silUniversite(address)": "infinite",
				"smAdresleri(uint256)": "5069",
				"stkAdresleri(uint256)": "5023",
				"stklar(address)": "infinite",
				"universiteAdresleri(uint256)": "5024",
				"universiteler(address)": "infinite"
			}
		},
		"methodIdentifiers": {
			"YOK()": "71af892d",
			"akademisyenler(address)": "ba479b7e",
			"diller(uint32)": "a4e7ae05",
			"ekleFirma(address,string,uint256,uint8)": "d25aab85",
			"ekleKamuKurumu(address,string,uint8)": "f63c649f",
			"ekleKisi(address)": "f54acc65",
			"ekleKurs(address,string,uint8)": "46224853",
			"ekleSTK(address,string,uint8)": "19023bf3",
			"ekleSertifikaMerkezi(address,string,uint8)": "9dc30114",
			"ekleUniversite(address,string,uint8)": "001d54ab",
			"firmaAdresleri(uint256)": "b07b0e5a",
			"firmalar(address)": "39987f94",
			"getFirmaListesi()": "d508602d",
			"getKamuKurumuListesi()": "d71ed8b1",
			"getKursListesi()": "d0d6b7a3",
			"getSmListesi()": "fd738e6d",
			"getStkListesi()": "a29879c0",
			"getUniversiteListesi()": "871db892",
			"guncelleFirma(address,string,uint256,uint8)": "a81dc179",
			"guncelleKamuKurumu(address,string,uint8)": "150596f4",
			"guncelleKisi(address,bool)": "f1981850",
			"guncelleKurs(address,string,uint8)": "d5f6d56c",
			"guncelleSTK(address,string,uint8)": "91e9528a",
			"guncelleSertifikaMerkezi(address,string,uint8)": "b2a825bb",
			"guncelleUniversite(address,string,uint8)": "c6da8cfe",
			"isCB(address)": "e5130508",
			"isFirma(address)": "2d087d70",
			"isKamuKurumu(address)": "514e03c7",
			"isKisi(address)": "b98ccefd",
			"isKurs(address)": "024eb6bc",
			"isSTK(address)": "8c848885",
			"isSertifikaMerkezi(address)": "e24047ca",
			"isTOBB(address)": "139884ec",
			"isUniversite(address)": "f0040eb9",
			"isYOK(address)": "d7396414",
			"kamuKurumAdresleri(uint256)": "0a33e3eb",
			"kamuKurumlari(address)": "7d0fa287",
			"kisiAdresleri(uint256)": "f1403851",
			"kisiler(address)": "cbc92809",
			"kursAdresleri(uint256)": "e8abb184",
			"kurslar(address)": "1916e139",
			"paydasTanimla(address,address,address)": "36fd2633",
			"sertifikaMerkezleri(address)": "356b1f1e",
			"silFirma(address)": "1d595580",
			"silKamuKurumu(address)": "50d2a060",
			"silKisi(address)": "bd35a506",
			"silKurs(address)": "afb61b1e",
			"silSTK(address)": "d88d8c12",
			"silSertifikaMerkezi(address)": "548fa620",
			"silUniversite(address)": "9bfc4dbd",
			"smAdresleri(uint256)": "0b877ca7",
			"stkAdresleri(uint256)": "d7909777",
			"stklar(address)": "9a8c9119",
			"universiteAdresleri(uint256)": "1f145f47",
			"universiteler(address)": "28266697"
		}
	},
	"abi": [
		{
			"inputs": [],
			"name": "YOK",
			"outputs": [
				{
					"internalType": "address",
					"name": "",
					"type": "address"
				}
			],
			"stateMutability": "view",
			"type": "function"
		},
		{
			"inputs": [
				{
					"internalType": "address",
					"name": "",
					"type": "address"
				}
			],
			"name": "akademisyenler",
			"outputs": [
				{
					"internalType": "bool",
					"name": "durum",
					"type": "bool"
				},
				{
					"internalType": "address",
					"name": "universite",
					"type": "address"
				},
				{
					"internalType": "uint16",
					"name": "bolum",
					"type": "uint16"
				},
				{
					"internalType": "enum BaseContract.Unvan",
					"name": "unvan",
					"type": "uint8"
				},
				{
					"internalType": "string",
					"name": "ad",
					"type": "string"
				},
				{
					"internalType": "string",
					"name": "soyad",
					"type": "string"
				}
			],
			"stateMutability": "view",
			"type": "function"
		},
		{
			"inputs": [
				{
					"internalType": "uint32",
					"name": "",
					"type": "uint32"
				}
			],
			"name": "diller",
			"outputs": [
				{
					"internalType": "uint32",
					"name": "id",
					"type": "uint32"
				},
				{
					"internalType": "string",
					"name": "isim",
					"type": "string"
				}
			],
			"stateMutability": "view",
			"type": "function"
		},
		{
			"inputs": [
				{
					"internalType": "address",
					"name": "_firmaAdres",
					"type": "address"
				},
				{
					"internalType": "string",
					"name": "_isim",
					"type": "string"
				},
				{
					"internalType": "uint256",
					"name": "_vergiNo",
					"type": "uint256"
				},
				{
					"internalType": "uint8",
					"name": "_ulke",
					"type": "uint8"
				}
			],
			"name": "ekleFirma",
			"outputs": [],
			"stateMutability": "nonpayable",
			"type": "function"
		},
		{
			"inputs": [
				{
					"internalType": "address",
					"name": "_kamuKurumuAdres",
					"type": "address"
				},
				{
					"internalType": "string",
					"name": "_isim",
					"type": "string"
				},
				{
					"internalType": "uint8",
					"name": "_ulke",
					"type": "uint8"
				}
			],
			"name": "ekleKamuKurumu",
			"outputs": [],
			"stateMutability": "nonpayable",
			"type": "function"
		},
		{
			"inputs": [
				{
					"internalType": "address",
					"name": "_kisiAdres",
					"type": "address"
				}
			],
			"name": "ekleKisi",
			"outputs": [],
			"stateMutability": "nonpayable",
			"type": "function"
		},
		{
			"inputs": [
				{
					"internalType": "address",
					"name": "_kursAdres",
					"type": "address"
				},
				{
					"internalType": "string",
					"name": "_isim",
					"type": "string"
				},
				{
					"internalType": "uint8",
					"name": "_ulke",
					"type": "uint8"
				}
			],
			"name": "ekleKurs",
			"outputs": [],
			"stateMutability": "nonpayable",
			"type": "function"
		},
		{
			"inputs": [
				{
					"internalType": "address",
					"name": "_stkAdres",
					"type": "address"
				},
				{
					"internalType": "string",
					"name": "_isim",
					"type": "string"
				},
				{
					"internalType": "uint8",
					"name": "_ulke",
					"type": "uint8"
				}
			],
			"name": "ekleSTK",
			"outputs": [],
			"stateMutability": "nonpayable",
			"type": "function"
		},
		{
			"inputs": [
				{
					"internalType": "address",
					"name": "_smAdres",
					"type": "address"
				},
				{
					"internalType": "string",
					"name": "_isim",
					"type": "string"
				},
				{
					"internalType": "uint8",
					"name": "_ulke",
					"type": "uint8"
				}
			],
			"name": "ekleSertifikaMerkezi",
			"outputs": [],
			"stateMutability": "nonpayable",
			"type": "function"
		},
		{
			"inputs": [
				{
					"internalType": "address",
					"name": "_universiteAdres",
					"type": "address"
				},
				{
					"internalType": "string",
					"name": "_isim",
					"type": "string"
				},
				{
					"internalType": "uint8",
					"name": "_ulke",
					"type": "uint8"
				}
			],
			"name": "ekleUniversite",
			"outputs": [],
			"stateMutability": "nonpayable",
			"type": "function"
		},
		{
			"inputs": [
				{
					"internalType": "uint256",
					"name": "",
					"type": "uint256"
				}
			],
			"name": "firmaAdresleri",
			"outputs": [
				{
					"internalType": "address",
					"name": "",
					"type": "address"
				}
			],
			"stateMutability": "view",
			"type": "function"
		},
		{
			"inputs": [
				{
					"internalType": "address",
					"name": "",
					"type": "address"
				}
			],
			"name": "firmalar",
			"outputs": [
				{
					"internalType": "bool",
					"name": "durum",
					"type": "bool"
				},
				{
					"internalType": "uint8",
					"name": "ulke",
					"type": "uint8"
				},
				{
					"internalType": "uint256",
					"name": "vergiNo",
					"type": "uint256"
				},
				{
					"internalType": "string",
					"name": "isim",
					"type": "string"
				}
			],
			"stateMutability": "view",
			"type": "function"
		},
		{
			"inputs": [],
			"name": "getFirmaListesi",
			"outputs": [
				{
					"components": [
						{
							"internalType": "bool",
							"name": "durum",
							"type": "bool"
						},
						{
							"internalType": "uint8",
							"name": "ulke",
							"type": "uint8"
						},
						{
							"internalType": "uint256",
							"name": "vergiNo",
							"type": "uint256"
						},
						{
							"internalType": "string",
							"name": "isim",
							"type": "string"
						}
					],
					"internalType": "struct BaseContract.Firma[]",
					"name": "",
					"type": "tuple[]"
				}
			],
			"stateMutability": "view",
			"type": "function"
		},
		{
			"inputs": [],
			"name": "getKamuKurumuListesi",
			"outputs": [
				{
					"components": [
						{
							"internalType": "bool",
							"name": "durum",
							"type": "bool"
						},
						{
							"internalType": "string",
							"name": "isim",
							"type": "string"
						},
						{
							"internalType": "uint8",
							"name": "ulke",
							"type": "uint8"
						}
					],
					"internalType": "struct BaseContract.KamuKurumu[]",
					"name": "",
					"type": "tuple[]"
				}
			],
			"stateMutability": "view",
			"type": "function"
		},
		{
			"inputs": [],
			"name": "getKursListesi",
			"outputs": [
				{
					"components": [
						{
							"internalType": "bool",
							"name": "durum",
							"type": "bool"
						},
						{
							"internalType": "string",
							"name": "isim",
							"type": "string"
						},
						{
							"internalType": "uint8",
							"name": "ulke",
							"type": "uint8"
						}
					],
					"internalType": "struct BaseContract.Kurs[]",
					"name": "",
					"type": "tuple[]"
				}
			],
			"stateMutability": "view",
			"type": "function"
		},
		{
			"inputs": [],
			"name": "getSmListesi",
			"outputs": [
				{
					"components": [
						{
							"internalType": "bool",
							"name": "durum",
							"type": "bool"
						},
						{
							"internalType": "string",
							"name": "isim",
							"type": "string"
						},
						{
							"internalType": "uint8",
							"name": "ulke",
							"type": "uint8"
						}
					],
					"internalType": "struct BaseContract.SertifikaMerkezi[]",
					"name": "",
					"type": "tuple[]"
				}
			],
			"stateMutability": "view",
			"type": "function"
		},
		{
			"inputs": [],
			"name": "getStkListesi",
			"outputs": [
				{
					"components": [
						{
							"internalType": "bool",
							"name": "durum",
							"type": "bool"
						},
						{
							"internalType": "string",
							"name": "isim",
							"type": "string"
						},
						{
							"internalType": "uint8",
							"name": "ulke",
							"type": "uint8"
						}
					],
					"internalType": "struct BaseContract.STK[]",
					"name": "",
					"type": "tuple[]"
				}
			],
			"stateMutability": "view",
			"type": "function"
		},
		{
			"inputs": [],
			"name": "getUniversiteListesi",
			"outputs": [
				{
					"components": [
						{
							"internalType": "bool",
							"name": "durum",
							"type": "bool"
						},
						{
							"internalType": "string",
							"name": "isim",
							"type": "string"
						},
						{
							"internalType": "uint8",
							"name": "ulke",
							"type": "uint8"
						}
					],
					"internalType": "struct BaseContract.Universite[]",
					"name": "",
					"type": "tuple[]"
				}
			],
			"stateMutability": "view",
			"type": "function"
		},
		{
			"inputs": [
				{
					"internalType": "address",
					"name": "_firmaAdres",
					"type": "address"
				},
				{
					"internalType": "string",
					"name": "_isim",
					"type": "string"
				},
				{
					"internalType": "uint256",
					"name": "_vergiNo",
					"type": "uint256"
				},
				{
					"internalType": "uint8",
					"name": "_ulke",
					"type": "uint8"
				}
			],
			"name": "guncelleFirma",
			"outputs": [],
			"stateMutability": "nonpayable",
			"type": "function"
		},
		{
			"inputs": [
				{
					"internalType": "address",
					"name": "_kamuKurumuAdres",
					"type": "address"
				},
				{
					"internalType": "string",
					"name": "_isim",
					"type": "string"
				},
				{
					"internalType": "uint8",
					"name": "_ulke",
					"type": "uint8"
				}
			],
			"name": "guncelleKamuKurumu",
			"outputs": [],
			"stateMutability": "nonpayable",
			"type": "function"
		},
		{
			"inputs": [
				{
					"internalType": "address",
					"name": "_kisiAdres",
					"type": "address"
				},
				{
					"internalType": "bool",
					"name": "_durum",
					"type": "bool"
				}
			],
			"name": "guncelleKisi",
			"outputs": [],
			"stateMutability": "nonpayable",
			"type": "function"
		},
		{
			"inputs": [
				{
					"internalType": "address",
					"name": "_kursAdres",
					"type": "address"
				},
				{
					"internalType": "string",
					"name": "_isim",
					"type": "string"
				},
				{
					"internalType": "uint8",
					"name": "_ulke",
					"type": "uint8"
				}
			],
			"name": "guncelleKurs",
			"outputs": [],
			"stateMutability": "nonpayable",
			"type": "function"
		},
		{
			"inputs": [
				{
					"internalType": "address",
					"name": "_stkAdres",
					"type": "address"
				},
				{
					"internalType": "string",
					"name": "_isim",
					"type": "string"
				},
				{
					"internalType": "uint8",
					"name": "_ulke",
					"type": "uint8"
				}
			],
			"name": "guncelleSTK",
			"outputs": [],
			"stateMutability": "nonpayable",
			"type": "function"
		},
		{
			"inputs": [
				{
					"internalType": "address",
					"name": "_smAdres",
					"type": "address"
				},
				{
					"internalType": "string",
					"name": "_isim",
					"type": "string"
				},
				{
					"internalType": "uint8",
					"name": "_ulke",
					"type": "uint8"
				}
			],
			"name": "guncelleSertifikaMerkezi",
			"outputs": [],
			"stateMutability": "nonpayable",
			"type": "function"
		},
		{
			"inputs": [
				{
					"internalType": "address",
					"name": "_universiteAdres",
					"type": "address"
				},
				{
					"internalType": "string",
					"name": "_isim",
					"type": "string"
				},
				{
					"internalType": "uint8",
					"name": "_ulke",
					"type": "uint8"
				}
			],
			"name": "guncelleUniversite",
			"outputs": [],
			"stateMutability": "nonpayable",
			"type": "function"
		},
		{
			"inputs": [
				{
					"internalType": "address",
					"name": "_address",
					"type": "address"
				}
			],
			"name": "isCB",
			"outputs": [
				{
					"internalType": "bool",
					"name": "",
					"type": "bool"
				}
			],
			"stateMutability": "view",
			"type": "function"
		},
		{
			"inputs": [
				{
					"internalType": "address",
					"name": "_address",
					"type": "address"
				}
			],
			"name": "isFirma",
			"outputs": [
				{
					"internalType": "bool",
					"name": "",
					"type": "bool"
				}
			],
			"stateMutability": "view",
			"type": "function"
		},
		{
			"inputs": [
				{
					"internalType": "address",
					"name": "_address",
					"type": "address"
				}
			],
			"name": "isKamuKurumu",
			"outputs": [
				{
					"internalType": "bool",
					"name": "",
					"type": "bool"
				}
			],
			"stateMutability": "view",
			"type": "function"
		},
		{
			"inputs": [
				{
					"internalType": "address",
					"name": "_address",
					"type": "address"
				}
			],
			"name": "isKisi",
			"outputs": [
				{
					"internalType": "bool",
					"name": "",
					"type": "bool"
				}
			],
			"stateMutability": "view",
			"type": "function"
		},
		{
			"inputs": [
				{
					"internalType": "address",
					"name": "_address",
					"type": "address"
				}
			],
			"name": "isKurs",
			"outputs": [
				{
					"internalType": "bool",
					"name": "",
					"type": "bool"
				}
			],
			"stateMutability": "view",
			"type": "function"
		},
		{
			"inputs": [
				{
					"internalType": "address",
					"name": "_address",
					"type": "address"
				}
			],
			"name": "isSTK",
			"outputs": [
				{
					"internalType": "bool",
					"name": "",
					"type": "bool"
				}
			],
			"stateMutability": "view",
			"type": "function"
		},
		{
			"inputs": [
				{
					"internalType": "address",
					"name": "_address",
					"type": "address"
				}
			],
			"name": "isSertifikaMerkezi",
			"outputs": [
				{
					"internalType": "bool",
					"name": "",
					"type": "bool"
				}
			],
			"stateMutability": "view",
			"type": "function"
		},
		{
			"inputs": [
				{
					"internalType": "address",
					"name": "_address",
					"type": "address"
				}
			],
			"name": "isTOBB",
			"outputs": [
				{
					"internalType": "bool",
					"name": "",
					"type": "bool"
				}
			],
			"stateMutability": "view",
			"type": "function"
		},
		{
			"inputs": [
				{
					"internalType": "address",
					"name": "_address",
					"type": "address"
				}
			],
			"name": "isUniversite",
			"outputs": [
				{
					"internalType": "bool",
					"name": "",
					"type": "bool"
				}
			],
			"stateMutability": "view",
			"type": "function"
		},
		{
			"inputs": [
				{
					"internalType": "address",
					"name": "_address",
					"type": "address"
				}
			],
			"name": "isYOK",
			"outputs": [
				{
					"internalType": "bool",
					"name": "",
					"type": "bool"
				}
			],
			"stateMutability": "view",
			"type": "function"
		},
		{
			"inputs": [
				{
					"internalType": "uint256",
					"name": "",
					"type": "uint256"
				}
			],
			"name": "kamuKurumAdresleri",
			"outputs": [
				{
					"internalType": "address",
					"name": "",
					"type": "address"
				}
			],
			"stateMutability": "view",
			"type": "function"
		},
		{
			"inputs": [
				{
					"internalType": "address",
					"name": "",
					"type": "address"
				}
			],
			"name": "kamuKurumlari",
			"outputs": [
				{
					"internalType": "bool",
					"name": "durum",
					"type": "bool"
				},
				{
					"internalType": "string",
					"name": "isim",
					"type": "string"
				},
				{
					"internalType": "uint8",
					"name": "ulke",
					"type": "uint8"
				}
			],
			"stateMutability": "view",
			"type": "function"
		},
		{
			"inputs": [
				{
					"internalType": "uint256",
					"name": "",
					"type": "uint256"
				}
			],
			"name": "kisiAdresleri",
			"outputs": [
				{
					"internalType": "address",
					"name": "",
					"type": "address"
				}
			],
			"stateMutability": "view",
			"type": "function"
		},
		{
			"inputs": [
				{
					"internalType": "address",
					"name": "",
					"type": "address"
				}
			],
			"name": "kisiler",
			"outputs": [
				{
					"internalType": "bool",
					"name": "durum",
					"type": "bool"
				}
			],
			"stateMutability": "view",
			"type": "function"
		},
		{
			"inputs": [
				{
					"internalType": "uint256",
					"name": "",
					"type": "uint256"
				}
			],
			"name": "kursAdresleri",
			"outputs": [
				{
					"internalType": "address",
					"name": "",
					"type": "address"
				}
			],
			"stateMutability": "view",
			"type": "function"
		},
		{
			"inputs": [
				{
					"internalType": "address",
					"name": "",
					"type": "address"
				}
			],
			"name": "kurslar",
			"outputs": [
				{
					"internalType": "bool",
					"name": "durum",
					"type": "bool"
				},
				{
					"internalType": "string",
					"name": "isim",
					"type": "string"
				},
				{
					"internalType": "uint8",
					"name": "ulke",
					"type": "uint8"
				}
			],
			"stateMutability": "view",
			"type": "function"
		},
		{
			"inputs": [
				{
					"internalType": "address",
					"name": "_yok",
					"type": "address"
				},
				{
					"internalType": "address",
					"name": "_tobb",
					"type": "address"
				},
				{
					"internalType": "address",
					"name": "_cb",
					"type": "address"
				}
			],
			"name": "paydasTanimla",
			"outputs": [],
			"stateMutability": "nonpayable",
			"type": "function"
		},
		{
			"inputs": [
				{
					"internalType": "address",
					"name": "",
					"type": "address"
				}
			],
			"name": "sertifikaMerkezleri",
			"outputs": [
				{
					"internalType": "bool",
					"name": "durum",
					"type": "bool"
				},
				{
					"internalType": "string",
					"name": "isim",
					"type": "string"
				},
				{
					"internalType": "uint8",
					"name": "ulke",
					"type": "uint8"
				}
			],
			"stateMutability": "view",
			"type": "function"
		},
		{
			"inputs": [
				{
					"internalType": "address",
					"name": "_firmaAdres",
					"type": "address"
				}
			],
			"name": "silFirma",
			"outputs": [],
			"stateMutability": "nonpayable",
			"type": "function"
		},
		{
			"inputs": [
				{
					"internalType": "address",
					"name": "_kamuKurumuAdres",
					"type": "address"
				}
			],
			"name": "silKamuKurumu",
			"outputs": [],
			"stateMutability": "nonpayable",
			"type": "function"
		},
		{
			"inputs": [
				{
					"internalType": "address",
					"name": "_kisiAdres",
					"type": "address"
				}
			],
			"name": "silKisi",
			"outputs": [],
			"stateMutability": "nonpayable",
			"type": "function"
		},
		{
			"inputs": [
				{
					"internalType": "address",
					"name": "_kursAdres",
					"type": "address"
				}
			],
			"name": "silKurs",
			"outputs": [],
			"stateMutability": "nonpayable",
			"type": "function"
		},
		{
			"inputs": [
				{
					"internalType": "address",
					"name": "_stkAdres",
					"type": "address"
				}
			],
			"name": "silSTK",
			"outputs": [],
			"stateMutability": "nonpayable",
			"type": "function"
		},
		{
			"inputs": [
				{
					"internalType": "address",
					"name": "_smAdres",
					"type": "address"
				}
			],
			"name": "silSertifikaMerkezi",
			"outputs": [],
			"stateMutability": "nonpayable",
			"type": "function"
		},
		{
			"inputs": [
				{
					"internalType": "address",
					"name": "_universiteAdres",
					"type": "address"
				}
			],
			"name": "silUniversite",
			"outputs": [],
			"stateMutability": "nonpayable",
			"type": "function"
		},
		{
			"inputs": [
				{
					"internalType": "uint256",
					"name": "",
					"type": "uint256"
				}
			],
			"name": "smAdresleri",
			"outputs": [
				{
					"internalType": "address",
					"name": "",
					"type": "address"
				}
			],
			"stateMutability": "view",
			"type": "function"
		},
		{
			"inputs": [
				{
					"internalType": "uint256",
					"name": "",
					"type": "uint256"
				}
			],
			"name": "stkAdresleri",
			"outputs": [
				{
					"internalType": "address",
					"name": "",
					"type": "address"
				}
			],
			"stateMutability": "view",
			"type": "function"
		},
		{
			"inputs": [
				{
					"internalType": "address",
					"name": "",
					"type": "address"
				}
			],
			"name": "stklar",
			"outputs": [
				{
					"internalType": "bool",
					"name": "durum",
					"type": "bool"
				},
				{
					"internalType": "string",
					"name": "isim",
					"type": "string"
				},
				{
					"internalType": "uint8",
					"name": "ulke",
					"type": "uint8"
				}
			],
			"stateMutability": "view",
			"type": "function"
		},
		{
			"inputs": [
				{
					"internalType": "uint256",
					"name": "",
					"type": "uint256"
				}
			],
			"name": "universiteAdresleri",
			"outputs": [
				{
					"internalType": "address",
					"name": "",
					"type": "address"
				}
			],
			"stateMutability": "view",
			"type": "function"
		},
		{
			"inputs": [
				{
					"internalType": "address",
					"name": "",
					"type": "address"
				}
			],
			"name": "universiteler",
			"outputs": [
				{
					"internalType": "bool",
					"name": "durum",
					"type": "bool"
				},
				{
					"internalType": "string",
					"name": "isim",
					"type": "string"
				},
				{
					"internalType": "uint8",
					"name": "ulke",
					"type": "uint8"
				}
			],
			"stateMutability": "view",
			"type": "function"
		}
	]
}