{
	"data": {
		"bytecode": {
			"linkReferences": {},
			"object": "608060405234801561001057600080fd5b506123ea806100206000396000f3fe608060405234801561001057600080fd5b50600436106100cf5760003560e01c80637d0fa2871161008c578063af640d0f11610066578063af640d0f1461029b578063b34b5539146102b9578063ba479b7e146102d5578063cbc928091461030a576100cf565b80637d0fa287146102065780639a8c911914610238578063a4e7ae051461026a576100cf565b80630fb0b1b2146100d45780631916e1391461010d578063282666971461013f578063356b1f1e1461017157806339987f94146101a35780637b6524fe146101d6575b600080fd5b6100ee60048036038101906100e99190611a93565b61033a565b6040516101049a99989796959493929190611ed9565b60405180910390f35b6101276004803603810190610122919061196b565b61048a565b60405161013693929190611df4565b60405180910390f35b6101596004803603810190610154919061196b565b610556565b60405161016893929190611df4565b60405180910390f35b61018b6004803603810190610186919061196b565b610622565b60405161019a93929190611df4565b60405180910390f35b6101bd60048036038101906101b8919061196b565b6106ee565b6040516101cd9493929190611e32565b60405180910390f35b6101f060048036038101906101eb9190611ad3565b6107c0565b6040516101fd9190611ebe565b60405180910390f35b610220600480360381019061021b919061196b565b610dc1565b60405161022f93929190611df4565b60405180910390f35b610252600480360381019061024d919061196b565b610e8d565b60405161026193929190611df4565b60405180910390f35b610284600480360381019061027f9190611be3565b610f59565b604051610292929190611f7c565b60405180910390f35b6102a3611015565b6040516102b09190611ebe565b60405180910390f35b6102d360048036038101906102ce9190611998565b61101b565b005b6102ef60048036038101906102ea919061196b565b611630565b60405161030196959493929190611d85565b60405180910390f35b610324600480360381019061031f919061196b565b6117c4565b6040516103319190611d6a565b60405180910390f35b600d602052816000526040600020602052806000526040600020600091509150508060000154908060010160009054906101000a900473ffffffffffffffffffffffffffffffffffffffff16908060010160149054906101000a900463ffffffff16908060010160189054906101000a900460ff16908060010160199054906101000a900460ff16908060020180546103d290612141565b80601f01602080910402602001604051908101604052809291908181526020018280546103fe90612141565b801561044b5780601f106104205761010080835404028352916020019161044b565b820191906000526020600020905b81548152906001019060200180831161042e57829003601f168201915b5050505050908060030154908060040154908060050160009054906101000a900460ff16908060050160019054906101000a900463ffffffff1690508a565b60076020528060005260406000206000915090508060000160009054906101000a900460ff16908060010180546104c090612141565b80601f01602080910402602001604051908101604052809291908181526020018280546104ec90612141565b80156105395780601f1061050e57610100808354040283529160200191610539565b820191906000526020600020905b81548152906001019060200180831161051c57829003601f168201915b5050505050908060020160009054906101000a900460ff16905083565b60046020528060005260406000206000915090508060000160009054906101000a900460ff169080600101805461058c90612141565b80601f01602080910402602001604051908101604052809291908181526020018280546105b890612141565b80156106055780601f106105da57610100808354040283529160200191610605565b820191906000526020600020905b8154815290600101906020018083116105e857829003601f168201915b5050505050908060020160009054906101000a900460ff16905083565b600a6020528060005260406000206000915090508060000160009054906101000a900460ff169080600101805461065890612141565b80601f016020809104026020016040519081016040528092919081815260200182805461068490612141565b80156106d15780601f106106a6576101008083540402835291602001916106d1565b820191906000526020600020905b8154815290600101906020018083116106b457829003601f168201915b5050505050908060020160009054906101000a900460ff16905083565b60066020528060005260406000206000915090508060000160009054906101000a900460ff16908060000160019054906101000a900460ff169080600101549080600201805461073d90612141565b80601f016020809104026020016040519081016040528092919081815260200182805461076990612141565b80156107b65780601f1061078b576101008083540402835291602001916107b6565b820191906000526020600020905b81548152906001019060200180831161079957829003601f168201915b5050505050905084565b6000600460003373ffffffffffffffffffffffffffffffffffffffff1673ffffffffffffffffffffffffffffffffffffffff16815260200190815260200160002060000160009054906101000a900460ff16806108695750600660003373ffffffffffffffffffffffffffffffffffffffff1673ffffffffffffffffffffffffffffffffffffffff16815260200190815260200160002060000160009054906101000a900460ff165b806108c05750600860003373ffffffffffffffffffffffffffffffffffffffff1673ffffffffffffffffffffffffffffffffffffffff16815260200190815260200160002060000160009054906101000a900460ff165b6108ff576040517f08c379a00000000000000000000000000000000000000000000000000000000081526004016108f690611e9e565b60405180910390fd5b600360008d73ffffffffffffffffffffffffffffffffffffffff1673ffffffffffffffffffffffffffffffffffffffff16815260200190815260200160002060000160009054906101000a900460ff1661098e576040517f08c379a000000000000000000000000000000000000000000000000000000000815260040161098590611e7e565b60405180910390fd5b89600d60008e73ffffffffffffffffffffffffffffffffffffffff1673ffffffffffffffffffffffffffffffffffffffff16815260200190815260200160002060008d815260200190815260200160002060010160006101000a81548173ffffffffffffffffffffffffffffffffffffffff021916908373ffffffffffffffffffffffffffffffffffffffff16021790555088600d60008e73ffffffffffffffffffffffffffffffffffffffff1673ffffffffffffffffffffffffffffffffffffffff16815260200190815260200160002060008d815260200190815260200160002060010160146101000a81548163ffffffff021916908363ffffffff16021790555087600d60008e73ffffffffffffffffffffffffffffffffffffffff1673ffffffffffffffffffffffffffffffffffffffff16815260200190815260200160002060008d815260200190815260200160002060010160186101000a81548160ff021916908360ff16021790555086600d60008e73ffffffffffffffffffffffffffffffffffffffff1673ffffffffffffffffffffffffffffffffffffffff16815260200190815260200160002060008d815260200190815260200160002060010160196101000a81548160ff02191690836002811115610b7457610b7361221c565b5b021790555085600d60008e73ffffffffffffffffffffffffffffffffffffffff1673ffffffffffffffffffffffffffffffffffffffff16815260200190815260200160002060008d81526020019081526020016000206002019080519060200190610be09291906117ef565b5084600d60008e73ffffffffffffffffffffffffffffffffffffffff1673ffffffffffffffffffffffffffffffffffffffff16815260200190815260200160002060008d81526020019081526020016000206003018190555083600d60008e73ffffffffffffffffffffffffffffffffffffffff1673ffffffffffffffffffffffffffffffffffffffff16815260200190815260200160002060008d81526020019081526020016000206004018190555082600d60008e73ffffffffffffffffffffffffffffffffffffffff1673ffffffffffffffffffffffffffffffffffffffff16815260200190815260200160002060008d815260200190815260200160002060050160006101000a81548160ff021916908360ff1602179055508760ff16600d60008e73ffffffffffffffffffffffffffffffffffffffff1673ffffffffffffffffffffffffffffffffffffffff16815260200190815260200160002060008d815260200190815260200160002060050160016101000a81548163ffffffff021916908363ffffffff1602179055507f97a8618b4c3e1bbef6226b887ae721d63d275f7a7d596ba44e9ef2fb1309cce08c8b8b8b604051610da79493929190611d25565b60405180910390a18a90509b9a5050505050505050505050565b60086020528060005260406000206000915090508060000160009054906101000a900460ff1690806001018054610df790612141565b80601f0160208091040260200160405190810160405280929190818152602001828054610e2390612141565b8015610e705780601f10610e4557610100808354040283529160200191610e70565b820191906000526020600020905b815481529060010190602001808311610e5357829003601f168201915b5050505050908060020160009054906101000a900460ff16905083565b60096020528060005260406000206000915090508060000160009054906101000a900460ff1690806001018054610ec390612141565b80601f0160208091040260200160405190810160405280929190818152602001828054610eef90612141565b8015610f3c5780601f10610f1157610100808354040283529160200191610f3c565b820191906000526020600020905b815481529060010190602001808311610f1f57829003601f168201915b5050505050908060020160009054906101000a900460ff16905083565b600b6020528060005260406000206000915090508060000160009054906101000a900463ffffffff1690806001018054610f9290612141565b80601f0160208091040260200160405190810160405280929190818152602001828054610fbe90612141565b801561100b5780601f10610fe05761010080835404028352916020019161100b565b820191906000526020600020905b815481529060010190602001808311610fee57829003601f168201915b5050505050905082565b600c5481565b600460003373ffffffffffffffffffffffffffffffffffffffff1673ffffffffffffffffffffffffffffffffffffffff16815260200190815260200160002060000160009054906101000a900460ff16806110c25750600660003373ffffffffffffffffffffffffffffffffffffffff1673ffffffffffffffffffffffffffffffffffffffff16815260200190815260200160002060000160009054906101000a900460ff165b806111195750600860003373ffffffffffffffffffffffffffffffffffffffff1673ffffffffffffffffffffffffffffffffffffffff16815260200190815260200160002060000160009054906101000a900460ff165b611158576040517f08c379a000000000000000000000000000000000000000000000000000000000815260040161114f90611e9e565b60405180910390fd5b600360008b73ffffffffffffffffffffffffffffffffffffffff1673ffffffffffffffffffffffffffffffffffffffff16815260200190815260200160002060000160009054906101000a900460ff166111e7576040517f08c379a00000000000000000000000000000000000000000000000000000000081526004016111de90611e7e565b60405180910390fd5b6000600c60008154809291906111fc906121a4565b91905055905089600d60008d73ffffffffffffffffffffffffffffffffffffffff1673ffffffffffffffffffffffffffffffffffffffff168152602001908152602001600020600083815260200190815260200160002060010160006101000a81548173ffffffffffffffffffffffffffffffffffffffff021916908373ffffffffffffffffffffffffffffffffffffffff16021790555088600d60008d73ffffffffffffffffffffffffffffffffffffffff1673ffffffffffffffffffffffffffffffffffffffff168152602001908152602001600020600083815260200190815260200160002060010160146101000a81548163ffffffff021916908363ffffffff16021790555087600d60008d73ffffffffffffffffffffffffffffffffffffffff1673ffffffffffffffffffffffffffffffffffffffff168152602001908152602001600020600083815260200190815260200160002060010160186101000a81548160ff021916908360ff16021790555086600d60008d73ffffffffffffffffffffffffffffffffffffffff1673ffffffffffffffffffffffffffffffffffffffff168152602001908152602001600020600083815260200190815260200160002060010160196101000a81548160ff021916908360028111156113e8576113e761221c565b5b021790555085600d60008d73ffffffffffffffffffffffffffffffffffffffff1673ffffffffffffffffffffffffffffffffffffffff168152602001908152602001600020600083815260200190815260200160002060020190805190602001906114549291906117ef565b5084600d60008d73ffffffffffffffffffffffffffffffffffffffff1673ffffffffffffffffffffffffffffffffffffffff16815260200190815260200160002060008381526020019081526020016000206003018190555083600d60008d73ffffffffffffffffffffffffffffffffffffffff1673ffffffffffffffffffffffffffffffffffffffff16815260200190815260200160002060008381526020019081526020016000206004018190555082600d60008d73ffffffffffffffffffffffffffffffffffffffff1673ffffffffffffffffffffffffffffffffffffffff168152602001908152602001600020600083815260200190815260200160002060050160006101000a81548160ff021916908360ff1602179055508760ff16600d60008d73ffffffffffffffffffffffffffffffffffffffff1673ffffffffffffffffffffffffffffffffffffffff168152602001908152602001600020600083815260200190815260200160002060050160016101000a81548163ffffffff021916908363ffffffff1602179055507fae2424f93616cc7fc3303332cdda5353231f2dc90a87b1e0b507a25e53ac01358b8b8b8b60405161161b9493929190611d25565b60405180910390a15050505050505050505050565b60056020528060005260406000206000915090508060000160009054906101000a900460ff16908060000160019054906101000a900473ffffffffffffffffffffffffffffffffffffffff16908060000160159054906101000a900461ffff16908060000160179054906101000a900460ff16908060010180546116b390612141565b80601f01602080910402602001604051908101604052809291908181526020018280546116df90612141565b801561172c5780601f106117015761010080835404028352916020019161172c565b820191906000526020600020905b81548152906001019060200180831161170f57829003601f168201915b50505050509080600201805461174190612141565b80601f016020809104026020016040519081016040528092919081815260200182805461176d90612141565b80156117ba5780601f1061178f576101008083540402835291602001916117ba565b820191906000526020600020905b81548152906001019060200180831161179d57829003601f168201915b5050505050905086565b60036020528060005260406000206000915090508060000160009054906101000a900460ff16905081565b8280546117fb90612141565b90600052602060002090601f01602090048101928261181d5760008555611864565b82601f1061183657805160ff1916838001178555611864565b82800160010185558215611864579182015b82811115611863578251825591602001919060010190611848565b5b5090506118719190611875565b5090565b5b8082111561188e576000816000905550600101611876565b5090565b60006118a56118a084611fd1565b611fac565b9050828152602081018484840111156118c1576118c06122ae565b5b6118cc8482856120ff565b509392505050565b6000813590506118e381612348565b92915050565b6000813590506118f88161235f565b92915050565b600082601f830112611913576119126122a9565b5b8135611923848260208601611892565b91505092915050565b60008135905061193b8161236f565b92915050565b60008135905061195081612386565b92915050565b6000813590506119658161239d565b92915050565b600060208284031215611981576119806122b8565b5b600061198f848285016118d4565b91505092915050565b6000806000806000806000806000806101408b8d0312156119bc576119bb6122b8565b5b60006119ca8d828e016118d4565b9a505060206119db8d828e016118d4565b99505060406119ec8d828e01611941565b98505060606119fd8d828e01611956565b9750506080611a0e8d828e016118e9565b96505060a08b013567ffffffffffffffff811115611a2f57611a2e6122b3565b5b611a3b8d828e016118fe565b95505060c0611a4c8d828e0161192c565b94505060e0611a5d8d828e0161192c565b935050610100611a6f8d828e01611956565b925050610120611a818d828e01611941565b9150509295989b9194979a5092959850565b60008060408385031215611aaa57611aa96122b8565b5b6000611ab8858286016118d4565b9250506020611ac98582860161192c565b9150509250929050565b60008060008060008060008060008060006101608c8e031215611af957611af86122b8565b5b6000611b078e828f016118d4565b9b50506020611b188e828f0161192c565b9a50506040611b298e828f016118d4565b9950506060611b3a8e828f01611941565b9850506080611b4b8e828f01611956565b97505060a0611b5c8e828f016118e9565b96505060c08c013567ffffffffffffffff811115611b7d57611b7c6122b3565b5b611b898e828f016118fe565b95505060e0611b9a8e828f0161192c565b945050610100611bac8e828f0161192c565b935050610120611bbe8e828f01611956565b925050610140611bd08e828f01611941565b9150509295989b509295989b9093969950565b600060208284031215611bf957611bf86122b8565b5b6000611c0784828501611941565b91505092915050565b611c198161201e565b82525050565b611c2881612030565b82525050565b611c37816120b7565b82525050565b611c46816120c9565b82525050565b6000611c5782612002565b611c61818561200d565b9350611c7181856020860161210e565b611c7a816122bd565b840191505092915050565b6000611c9260128361200d565b9150611c9d826122ce565b602082019050919050565b6000611cb560208361200d565b9150611cc0826122f7565b602082019050919050565b611cd481612062565b82525050565b611ce381612090565b82525050565b611cf2816120db565b82525050565b611d018161209a565b82525050565b611d10816120ed565b82525050565b611d1f816120aa565b82525050565b6000608082019050611d3a6000830187611c10565b611d476020830186611c10565b611d546040830185611ce9565b611d616060830184611d07565b95945050505050565b6000602082019050611d7f6000830184611c1f565b92915050565b600060c082019050611d9a6000830189611c1f565b611da76020830188611c10565b611db46040830187611ccb565b611dc16060830186611c3d565b8181036080830152611dd38185611c4c565b905081810360a0830152611de78184611c4c565b9050979650505050505050565b6000606082019050611e096000830186611c1f565b8181036020830152611e1b8185611c4c565b9050611e2a6040830184611d16565b949350505050565b6000608082019050611e476000830187611c1f565b611e546020830186611d16565b611e616040830185611cda565b8181036060830152611e738184611c4c565b905095945050505050565b60006020820190508181036000830152611e9781611c85565b9050919050565b60006020820190508181036000830152611eb781611ca8565b9050919050565b6000602082019050611ed36000830184611cda565b92915050565b600061014082019050611eef600083018d611cda565b611efc602083018c611c10565b611f09604083018b611cf8565b611f16606083018a611d16565b611f236080830189611c2e565b81810360a0830152611f358188611c4c565b9050611f4460c0830187611cda565b611f5160e0830186611cda565b611f5f610100830185611d16565b611f6d610120830184611cf8565b9b9a5050505050505050505050565b6000604082019050611f916000830185611cf8565b8181036020830152611fa38184611c4c565b90509392505050565b6000611fb6611fc7565b9050611fc28282612173565b919050565b6000604051905090565b600067ffffffffffffffff821115611fec57611feb61227a565b5b611ff5826122bd565b9050602081019050919050565b600081519050919050565b600082825260208201905092915050565b600061202982612070565b9050919050565b60008115159050919050565b600081905061204a82612320565b919050565b600081905061205d82612334565b919050565b600061ffff82169050919050565b600073ffffffffffffffffffffffffffffffffffffffff82169050919050565b6000819050919050565b600063ffffffff82169050919050565b600060ff82169050919050565b60006120c28261203c565b9050919050565b60006120d48261204f565b9050919050565b60006120e68261209a565b9050919050565b60006120f8826120aa565b9050919050565b82818337600083830152505050565b60005b8381101561212c578082015181840152602081019050612111565b8381111561213b576000848401525b50505050565b6000600282049050600182168061215957607f821691505b6020821081141561216d5761216c61224b565b5b50919050565b61217c826122bd565b810181811067ffffffffffffffff8211171561219b5761219a61227a565b5b80604052505050565b60006121af82612090565b91507fffffffffffffffffffffffffffffffffffffffffffffffffffffffffffffffff8214156121e2576121e16121ed565b5b600182019050919050565b7f4e487b7100000000000000000000000000000000000000000000000000000000600052601160045260246000fd5b7f4e487b7100000000000000000000000000000000000000000000000000000000600052602160045260246000fd5b7f4e487b7100000000000000000000000000000000000000000000000000000000600052602260045260246000fd5b7f4e487b7100000000000000000000000000000000000000000000000000000000600052604160045260246000fd5b600080fd5b600080fd5b600080fd5b600080fd5b6000601f19601f8301169050919050565b7f53747564656e74206e6f74206578697374730000000000000000000000000000600082015250565b7f42752069736c656d6920736164656365204b757273207961706162696c69722e600082015250565b600381106123315761233061221c565b5b50565b600481106123455761234461221c565b5b50565b6123518161201e565b811461235c57600080fd5b50565b6003811061236c57600080fd5b50565b61237881612090565b811461238357600080fd5b50565b61238f8161209a565b811461239a57600080fd5b50565b6123a6816120aa565b81146123b157600080fd5b5056fea26469706673582212204f4600206db3db5e799380b9ca3ff6b3920b396f157cacf2007c5f9b01f8a78264736f6c63430008070033",
			"opcodes": "PUSH1 0x80 PUSH1 0x40 MSTORE CALLVALUE DUP1 ISZERO PUSH2 0x10 JUMPI PUSH1 0x0 DUP1 REVERT JUMPDEST POP PUSH2 0x23EA DUP1 PUSH2 0x20 PUSH1 0x0 CODECOPY PUSH1 0x0 RETURN INVALID PUSH1 0x80 PUSH1 0x40 MSTORE CALLVALUE DUP1 ISZERO PUSH2 0x10 JUMPI PUSH1 0x0 DUP1 REVERT JUMPDEST POP PUSH1 0x4 CALLDATASIZE LT PUSH2 0xCF JUMPI PUSH1 0x0 CALLDATALOAD PUSH1 0xE0 SHR DUP1 PUSH4 0x7D0FA287 GT PUSH2 0x8C JUMPI DUP1 PUSH4 0xAF640D0F GT PUSH2 0x66 JUMPI DUP1 PUSH4 0xAF640D0F EQ PUSH2 0x29B JUMPI DUP1 PUSH4 0xB34B5539 EQ PUSH2 0x2B9 JUMPI DUP1 PUSH4 0xBA479B7E EQ PUSH2 0x2D5 JUMPI DUP1 PUSH4 0xCBC92809 EQ PUSH2 0x30A JUMPI PUSH2 0xCF JUMP JUMPDEST DUP1 PUSH4 0x7D0FA287 EQ PUSH2 0x206 JUMPI DUP1 PUSH4 0x9A8C9119 EQ PUSH2 0x238 JUMPI DUP1 PUSH4 0xA4E7AE05 EQ PUSH2 0x26A JUMPI PUSH2 0xCF JUMP JUMPDEST DUP1 PUSH4 0xFB0B1B2 EQ PUSH2 0xD4 JUMPI DUP1 PUSH4 0x1916E139 EQ PUSH2 0x10D JUMPI DUP1 PUSH4 0x28266697 EQ PUSH2 0x13F JUMPI DUP1 PUSH4 0x356B1F1E EQ PUSH2 0x171 JUMPI DUP1 PUSH4 0x39987F94 EQ PUSH2 0x1A3 JUMPI DUP1 PUSH4 0x7B6524FE EQ PUSH2 0x1D6 JUMPI JUMPDEST PUSH1 0x0 DUP1 REVERT JUMPDEST PUSH2 0xEE PUSH1 0x4 DUP1 CALLDATASIZE SUB DUP2 ADD SWAP1 PUSH2 0xE9 SWAP2 SWAP1 PUSH2 0x1A93 JUMP JUMPDEST PUSH2 0x33A JUMP JUMPDEST PUSH1 0x40 MLOAD PUSH2 0x104 SWAP11 SWAP10 SWAP9 SWAP8 SWAP7 SWAP6 SWAP5 SWAP4 SWAP3 SWAP2 SWAP1 PUSH2 0x1ED9 JUMP JUMPDEST PUSH1 0x40 MLOAD DUP1 SWAP2 SUB SWAP1 RETURN JUMPDEST PUSH2 0x127 PUSH1 0x4 DUP1 CALLDATASIZE SUB DUP2 ADD SWAP1 PUSH2 0x122 SWAP2 SWAP1 PUSH2 0x196B JUMP JUMPDEST PUSH2 0x48A JUMP JUMPDEST PUSH1 0x40 MLOAD PUSH2 0x136 SWAP4 SWAP3 SWAP2 SWAP1 PUSH2 0x1DF4 JUMP JUMPDEST PUSH1 0x40 MLOAD DUP1 SWAP2 SUB SWAP1 RETURN JUMPDEST PUSH2 0x159 PUSH1 0x4 DUP1 CALLDATASIZE SUB DUP2 ADD SWAP1 PUSH2 0x154 SWAP2 SWAP1 PUSH2 0x196B JUMP JUMPDEST PUSH2 0x556 JUMP JUMPDEST PUSH1 0x40 MLOAD PUSH2 0x168 SWAP4 SWAP3 SWAP2 SWAP1 PUSH2 0x1DF4 JUMP JUMPDEST PUSH1 0x40 MLOAD DUP1 SWAP2 SUB SWAP1 RETURN JUMPDEST PUSH2 0x18B PUSH1 0x4 DUP1 CALLDATASIZE SUB DUP2 ADD SWAP1 PUSH2 0x186 SWAP2 SWAP1 PUSH2 0x196B JUMP JUMPDEST PUSH2 0x622 JUMP JUMPDEST PUSH1 0x40 MLOAD PUSH2 0x19A SWAP4 SWAP3 SWAP2 SWAP1 PUSH2 0x1DF4 JUMP JUMPDEST PUSH1 0x40 MLOAD DUP1 SWAP2 SUB SWAP1 RETURN JUMPDEST PUSH2 0x1BD PUSH1 0x4 DUP1 CALLDATASIZE SUB DUP2 ADD SWAP1 PUSH2 0x1B8 SWAP2 SWAP1 PUSH2 0x196B JUMP JUMPDEST PUSH2 0x6EE JUMP JUMPDEST PUSH1 0x40 MLOAD PUSH2 0x1CD SWAP5 SWAP4 SWAP3 SWAP2 SWAP1 PUSH2 0x1E32 JUMP JUMPDEST PUSH1 0x40 MLOAD DUP1 SWAP2 SUB SWAP1 RETURN JUMPDEST PUSH2 0x1F0 PUSH1 0x4 DUP1 CALLDATASIZE SUB DUP2 ADD SWAP1 PUSH2 0x1EB SWAP2 SWAP1 PUSH2 0x1AD3 JUMP JUMPDEST PUSH2 0x7C0 JUMP JUMPDEST PUSH1 0x40 MLOAD PUSH2 0x1FD SWAP2 SWAP1 PUSH2 0x1EBE JUMP JUMPDEST PUSH1 0x40 MLOAD DUP1 SWAP2 SUB SWAP1 RETURN JUMPDEST PUSH2 0x220 PUSH1 0x4 DUP1 CALLDATASIZE SUB DUP2 ADD SWAP1 PUSH2 0x21B SWAP2 SWAP1 PUSH2 0x196B JUMP JUMPDEST PUSH2 0xDC1 JUMP JUMPDEST PUSH1 0x40 MLOAD PUSH2 0x22F SWAP4 SWAP3 SWAP2 SWAP1 PUSH2 0x1DF4 JUMP JUMPDEST PUSH1 0x40 MLOAD DUP1 SWAP2 SUB SWAP1 RETURN JUMPDEST PUSH2 0x252 PUSH1 0x4 DUP1 CALLDATASIZE SUB DUP2 ADD SWAP1 PUSH2 0x24D SWAP2 SWAP1 PUSH2 0x196B JUMP JUMPDEST PUSH2 0xE8D JUMP JUMPDEST PUSH1 0x40 MLOAD PUSH2 0x261 SWAP4 SWAP3 SWAP2 SWAP1 PUSH2 0x1DF4 JUMP JUMPDEST PUSH1 0x40 MLOAD DUP1 SWAP2 SUB SWAP1 RETURN JUMPDEST PUSH2 0x284 PUSH1 0x4 DUP1 CALLDATASIZE SUB DUP2 ADD SWAP1 PUSH2 0x27F SWAP2 SWAP1 PUSH2 0x1BE3 JUMP JUMPDEST PUSH2 0xF59 JUMP JUMPDEST PUSH1 0x40 MLOAD PUSH2 0x292 SWAP3 SWAP2 SWAP1 PUSH2 0x1F7C JUMP JUMPDEST PUSH1 0x40 MLOAD DUP1 SWAP2 SUB SWAP1 RETURN JUMPDEST PUSH2 0x2A3 PUSH2 0x1015 JUMP JUMPDEST PUSH1 0x40 MLOAD PUSH2 0x2B0 SWAP2 SWAP1 PUSH2 0x1EBE JUMP JUMPDEST PUSH1 0x40 MLOAD DUP1 SWAP2 SUB SWAP1 RETURN JUMPDEST PUSH2 0x2D3 PUSH1 0x4 DUP1 CALLDATASIZE SUB DUP2 ADD SWAP1 PUSH2 0x2CE SWAP2 SWAP1 PUSH2 0x1998 JUMP JUMPDEST PUSH2 0x101B JUMP JUMPDEST STOP JUMPDEST PUSH2 0x2EF PUSH1 0x4 DUP1 CALLDATASIZE SUB DUP2 ADD SWAP1 PUSH2 0x2EA SWAP2 SWAP1 PUSH2 0x196B JUMP JUMPDEST PUSH2 0x1630 JUMP JUMPDEST PUSH1 0x40 MLOAD PUSH2 0x301 SWAP7 SWAP6 SWAP5 SWAP4 SWAP3 SWAP2 SWAP1 PUSH2 0x1D85 JUMP JUMPDEST PUSH1 0x40 MLOAD DUP1 SWAP2 SUB SWAP1 RETURN JUMPDEST PUSH2 0x324 PUSH1 0x4 DUP1 CALLDATASIZE SUB DUP2 ADD SWAP1 PUSH2 0x31F SWAP2 SWAP1 PUSH2 0x196B JUMP JUMPDEST PUSH2 0x17C4 JUMP JUMPDEST PUSH1 0x40 MLOAD PUSH2 0x331 SWAP2 SWAP1 PUSH2 0x1D6A JUMP JUMPDEST PUSH1 0x40 MLOAD DUP1 SWAP2 SUB SWAP1 RETURN JUMPDEST PUSH1 0xD PUSH1 0x20 MSTORE DUP2 PUSH1 0x0 MSTORE PUSH1 0x40 PUSH1 0x0 KECCAK256 PUSH1 0x20 MSTORE DUP1 PUSH1 0x0 MSTORE PUSH1 0x40 PUSH1 0x0 KECCAK256 PUSH1 0x0 SWAP2 POP SWAP2 POP POP DUP1 PUSH1 0x0 ADD SLOAD SWAP1 DUP1 PUSH1 0x1 ADD PUSH1 0x0 SWAP1 SLOAD SWAP1 PUSH2 0x100 EXP SWAP1 DIV PUSH20 0xFFFFFFFFFFFFFFFFFFFFFFFFFFFFFFFFFFFFFFFF AND SWAP1 DUP1 PUSH1 0x1 ADD PUSH1 0x14 SWAP1 SLOAD SWAP1 PUSH2 0x100 EXP SWAP1 DIV PUSH4 0xFFFFFFFF AND SWAP1 DUP1 PUSH1 0x1 ADD PUSH1 0x18 SWAP1 SLOAD SWAP1 PUSH2 0x100 EXP SWAP1 DIV PUSH1 0xFF AND SWAP1 DUP1 PUSH1 0x1 ADD PUSH1 0x19 SWAP1 SLOAD SWAP1 PUSH2 0x100 EXP SWAP1 DIV PUSH1 0xFF AND SWAP1 DUP1 PUSH1 0x2 ADD DUP1 SLOAD PUSH2 0x3D2 SWAP1 PUSH2 0x2141 JUMP JUMPDEST DUP1 PUSH1 0x1F ADD PUSH1 0x20 DUP1 SWAP2 DIV MUL PUSH1 0x20 ADD PUSH1 0x40 MLOAD SWAP1 DUP2 ADD PUSH1 0x40 MSTORE DUP1 SWAP3 SWAP2 SWAP1 DUP2 DUP2 MSTORE PUSH1 0x20 ADD DUP3 DUP1 SLOAD PUSH2 0x3FE SWAP1 PUSH2 0x2141 JUMP JUMPDEST DUP1 ISZERO PUSH2 0x44B JUMPI DUP1 PUSH1 0x1F LT PUSH2 0x420 JUMPI PUSH2 0x100 DUP1 DUP4 SLOAD DIV MUL DUP4 MSTORE SWAP2 PUSH1 0x20 ADD SWAP2 PUSH2 0x44B JUMP JUMPDEST DUP3 ADD SWAP2 SWAP1 PUSH1 0x0 MSTORE PUSH1 0x20 PUSH1 0x0 KECCAK256 SWAP1 JUMPDEST DUP2 SLOAD DUP2 MSTORE SWAP1 PUSH1 0x1 ADD SWAP1 PUSH1 0x20 ADD DUP1 DUP4 GT PUSH2 0x42E JUMPI DUP3 SWAP1 SUB PUSH1 0x1F AND DUP3 ADD SWAP2 JUMPDEST POP POP POP POP POP SWAP1 DUP1 PUSH1 0x3 ADD SLOAD SWAP1 DUP1 PUSH1 0x4 ADD SLOAD SWAP1 DUP1 PUSH1 0x5 ADD PUSH1 0x0 SWAP1 SLOAD SWAP1 PUSH2 0x100 EXP SWAP1 DIV PUSH1 0xFF AND SWAP1 DUP1 PUSH1 0x5 ADD PUSH1 0x1 SWAP1 SLOAD SWAP1 PUSH2 0x100 EXP SWAP1 DIV PUSH4 0xFFFFFFFF AND SWAP1 POP DUP11 JUMP JUMPDEST PUSH1 0x7 PUSH1 0x20 MSTORE DUP1 PUSH1 0x0 MSTORE PUSH1 0x40 PUSH1 0x0 KECCAK256 PUSH1 0x0 SWAP2 POP SWAP1 POP DUP1 PUSH1 0x0 ADD PUSH1 0x0 SWAP1 SLOAD SWAP1 PUSH2 0x100 EXP SWAP1 DIV PUSH1 0xFF AND SWAP1 DUP1 PUSH1 0x1 ADD DUP1 SLOAD PUSH2 0x4C0 SWAP1 PUSH2 0x2141 JUMP JUMPDEST DUP1 PUSH1 0x1F ADD PUSH1 0x20 DUP1 SWAP2 DIV MUL PUSH1 0x20 ADD PUSH1 0x40 MLOAD SWAP1 DUP2 ADD PUSH1 0x40 MSTORE DUP1 SWAP3 SWAP2 SWAP1 DUP2 DUP2 MSTORE PUSH1 0x20 ADD DUP3 DUP1 SLOAD PUSH2 0x4EC SWAP1 PUSH2 0x2141 JUMP JUMPDEST DUP1 ISZERO PUSH2 0x539 JUMPI DUP1 PUSH1 0x1F LT PUSH2 0x50E JUMPI PUSH2 0x100 DUP1 DUP4 SLOAD DIV MUL DUP4 MSTORE SWAP2 PUSH1 0x20 ADD SWAP2 PUSH2 0x539 JUMP JUMPDEST DUP3 ADD SWAP2 SWAP1 PUSH1 0x0 MSTORE PUSH1 0x20 PUSH1 0x0 KECCAK256 SWAP1 JUMPDEST DUP2 SLOAD DUP2 MSTORE SWAP1 PUSH1 0x1 ADD SWAP1 PUSH1 0x20 ADD DUP1 DUP4 GT PUSH2 0x51C JUMPI DUP3 SWAP1 SUB PUSH1 0x1F AND DUP3 ADD SWAP2 JUMPDEST POP POP POP POP POP SWAP1 DUP1 PUSH1 0x2 ADD PUSH1 0x0 SWAP1 SLOAD SWAP1 PUSH2 0x100 EXP SWAP1 DIV PUSH1 0xFF AND SWAP1 POP DUP4 JUMP JUMPDEST PUSH1 0x4 PUSH1 0x20 MSTORE DUP1 PUSH1 0x0 MSTORE PUSH1 0x40 PUSH1 0x0 KECCAK256 PUSH1 0x0 SWAP2 POP SWAP1 POP DUP1 PUSH1 0x0 ADD PUSH1 0x0 SWAP1 SLOAD SWAP1 PUSH2 0x100 EXP SWAP1 DIV PUSH1 0xFF AND SWAP1 DUP1 PUSH1 0x1 ADD DUP1 SLOAD PUSH2 0x58C SWAP1 PUSH2 0x2141 JUMP JUMPDEST DUP1 PUSH1 0x1F ADD PUSH1 0x20 DUP1 SWAP2 DIV MUL PUSH1 0x20 ADD PUSH1 0x40 MLOAD SWAP1 DUP2 ADD PUSH1 0x40 MSTORE DUP1 SWAP3 SWAP2 SWAP1 DUP2 DUP2 MSTORE PUSH1 0x20 ADD DUP3 DUP1 SLOAD PUSH2 0x5B8 SWAP1 PUSH2 0x2141 JUMP JUMPDEST DUP1 ISZERO PUSH2 0x605 JUMPI DUP1 PUSH1 0x1F LT PUSH2 0x5DA JUMPI PUSH2 0x100 DUP1 DUP4 SLOAD DIV MUL DUP4 MSTORE SWAP2 PUSH1 0x20 ADD SWAP2 PUSH2 0x605 JUMP JUMPDEST DUP3 ADD SWAP2 SWAP1 PUSH1 0x0 MSTORE PUSH1 0x20 PUSH1 0x0 KECCAK256 SWAP1 JUMPDEST DUP2 SLOAD DUP2 MSTORE SWAP1 PUSH1 0x1 ADD SWAP1 PUSH1 0x20 ADD DUP1 DUP4 GT PUSH2 0x5E8 JUMPI DUP3 SWAP1 SUB PUSH1 0x1F AND DUP3 ADD SWAP2 JUMPDEST POP POP POP POP POP SWAP1 DUP1 PUSH1 0x2 ADD PUSH1 0x0 SWAP1 SLOAD SWAP1 PUSH2 0x100 EXP SWAP1 DIV PUSH1 0xFF AND SWAP1 POP DUP4 JUMP JUMPDEST PUSH1 0xA PUSH1 0x20 MSTORE DUP1 PUSH1 0x0 MSTORE PUSH1 0x40 PUSH1 0x0 KECCAK256 PUSH1 0x0 SWAP2 POP SWAP1 POP DUP1 PUSH1 0x0 ADD PUSH1 0x0 SWAP1 SLOAD SWAP1 PUSH2 0x100 EXP SWAP1 DIV PUSH1 0xFF AND SWAP1 DUP1 PUSH1 0x1 ADD DUP1 SLOAD PUSH2 0x658 SWAP1 PUSH2 0x2141 JUMP JUMPDEST DUP1 PUSH1 0x1F ADD PUSH1 0x20 DUP1 SWAP2 DIV MUL PUSH1 0x20 ADD PUSH1 0x40 MLOAD SWAP1 DUP2 ADD PUSH1 0x40 MSTORE DUP1 SWAP3 SWAP2 SWAP1 DUP2 DUP2 MSTORE PUSH1 0x20 ADD DUP3 DUP1 SLOAD PUSH2 0x684 SWAP1 PUSH2 0x2141 JUMP JUMPDEST DUP1 ISZERO PUSH2 0x6D1 JUMPI DUP1 PUSH1 0x1F LT PUSH2 0x6A6 JUMPI PUSH2 0x100 DUP1 DUP4 SLOAD DIV MUL DUP4 MSTORE SWAP2 PUSH1 0x20 ADD SWAP2 PUSH2 0x6D1 JUMP JUMPDEST DUP3 ADD SWAP2 SWAP1 PUSH1 0x0 MSTORE PUSH1 0x20 PUSH1 0x0 KECCAK256 SWAP1 JUMPDEST DUP2 SLOAD DUP2 MSTORE SWAP1 PUSH1 0x1 ADD SWAP1 PUSH1 0x20 ADD DUP1 DUP4 GT PUSH2 0x6B4 JUMPI DUP3 SWAP1 SUB PUSH1 0x1F AND DUP3 ADD SWAP2 JUMPDEST POP POP POP POP POP SWAP1 DUP1 PUSH1 0x2 ADD PUSH1 0x0 SWAP1 SLOAD SWAP1 PUSH2 0x100 EXP SWAP1 DIV PUSH1 0xFF AND SWAP1 POP DUP4 JUMP JUMPDEST PUSH1 0x6 PUSH1 0x20 MSTORE DUP1 PUSH1 0x0 MSTORE PUSH1 0x40 PUSH1 0x0 KECCAK256 PUSH1 0x0 SWAP2 POP SWAP1 POP DUP1 PUSH1 0x0 ADD PUSH1 0x0 SWAP1 SLOAD SWAP1 PUSH2 0x100 EXP SWAP1 DIV PUSH1 0xFF AND SWAP1 DUP1 PUSH1 0x0 ADD PUSH1 0x1 SWAP1 SLOAD SWAP1 PUSH2 0x100 EXP SWAP1 DIV PUSH1 0xFF AND SWAP1 DUP1 PUSH1 0x1 ADD SLOAD SWAP1 DUP1 PUSH1 0x2 ADD DUP1 SLOAD PUSH2 0x73D SWAP1 PUSH2 0x2141 JUMP JUMPDEST DUP1 PUSH1 0x1F ADD PUSH1 0x20 DUP1 SWAP2 DIV MUL PUSH1 0x20 ADD PUSH1 0x40 MLOAD SWAP1 DUP2 ADD PUSH1 0x40 MSTORE DUP1 SWAP3 SWAP2 SWAP1 DUP2 DUP2 MSTORE PUSH1 0x20 ADD DUP3 DUP1 SLOAD PUSH2 0x769 SWAP1 PUSH2 0x2141 JUMP JUMPDEST DUP1 ISZERO PUSH2 0x7B6 JUMPI DUP1 PUSH1 0x1F LT PUSH2 0x78B JUMPI PUSH2 0x100 DUP1 DUP4 SLOAD DIV MUL DUP4 MSTORE SWAP2 PUSH1 0x20 ADD SWAP2 PUSH2 0x7B6 JUMP JUMPDEST DUP3 ADD SWAP2 SWAP1 PUSH1 0x0 MSTORE PUSH1 0x20 PUSH1 0x0 KECCAK256 SWAP1 JUMPDEST DUP2 SLOAD DUP2 MSTORE SWAP1 PUSH1 0x1 ADD SWAP1 PUSH1 0x20 ADD DUP1 DUP4 GT PUSH2 0x799 JUMPI DUP3 SWAP1 SUB PUSH1 0x1F AND DUP3 ADD SWAP2 JUMPDEST POP POP POP POP POP SWAP1 POP DUP5 JUMP JUMPDEST PUSH1 0x0 PUSH1 0x4 PUSH1 0x0 CALLER PUSH20 0xFFFFFFFFFFFFFFFFFFFFFFFFFFFFFFFFFFFFFFFF AND PUSH20 0xFFFFFFFFFFFFFFFFFFFFFFFFFFFFFFFFFFFFFFFF AND DUP2 MSTORE PUSH1 0x20 ADD SWAP1 DUP2 MSTORE PUSH1 0x20 ADD PUSH1 0x0 KECCAK256 PUSH1 0x0 ADD PUSH1 0x0 SWAP1 SLOAD SWAP1 PUSH2 0x100 EXP SWAP1 DIV PUSH1 0xFF AND DUP1 PUSH2 0x869 JUMPI POP PUSH1 0x6 PUSH1 0x0 CALLER PUSH20 0xFFFFFFFFFFFFFFFFFFFFFFFFFFFFFFFFFFFFFFFF AND PUSH20 0xFFFFFFFFFFFFFFFFFFFFFFFFFFFFFFFFFFFFFFFF AND DUP2 MSTORE PUSH1 0x20 ADD SWAP1 DUP2 MSTORE PUSH1 0x20 ADD PUSH1 0x0 KECCAK256 PUSH1 0x0 ADD PUSH1 0x0 SWAP1 SLOAD SWAP1 PUSH2 0x100 EXP SWAP1 DIV PUSH1 0xFF AND JUMPDEST DUP1 PUSH2 0x8C0 JUMPI POP PUSH1 0x8 PUSH1 0x0 CALLER PUSH20 0xFFFFFFFFFFFFFFFFFFFFFFFFFFFFFFFFFFFFFFFF AND PUSH20 0xFFFFFFFFFFFFFFFFFFFFFFFFFFFFFFFFFFFFFFFF AND DUP2 MSTORE PUSH1 0x20 ADD SWAP1 DUP2 MSTORE PUSH1 0x20 ADD PUSH1 0x0 KECCAK256 PUSH1 0x0 ADD PUSH1 0x0 SWAP1 SLOAD SWAP1 PUSH2 0x100 EXP SWAP1 DIV PUSH1 0xFF AND JUMPDEST PUSH2 0x8FF JUMPI PUSH1 0x40 MLOAD PUSH32 0x8C379A000000000000000000000000000000000000000000000000000000000 DUP2 MSTORE PUSH1 0x4 ADD PUSH2 0x8F6 SWAP1 PUSH2 0x1E9E JUMP JUMPDEST PUSH1 0x40 MLOAD DUP1 SWAP2 SUB SWAP1 REVERT JUMPDEST PUSH1 0x3 PUSH1 0x0 DUP14 PUSH20 0xFFFFFFFFFFFFFFFFFFFFFFFFFFFFFFFFFFFFFFFF AND PUSH20 0xFFFFFFFFFFFFFFFFFFFFFFFFFFFFFFFFFFFFFFFF AND DUP2 MSTORE PUSH1 0x20 ADD SWAP1 DUP2 MSTORE PUSH1 0x20 ADD PUSH1 0x0 KECCAK256 PUSH1 0x0 ADD PUSH1 0x0 SWAP1 SLOAD SWAP1 PUSH2 0x100 EXP SWAP1 DIV PUSH1 0xFF AND PUSH2 0x98E JUMPI PUSH1 0x40 MLOAD PUSH32 0x8C379A000000000000000000000000000000000000000000000000000000000 DUP2 MSTORE PUSH1 0x4 ADD PUSH2 0x985 SWAP1 PUSH2 0x1E7E JUMP JUMPDEST PUSH1 0x40 MLOAD DUP1 SWAP2 SUB SWAP1 REVERT JUMPDEST DUP10 PUSH1 0xD PUSH1 0x0 DUP15 PUSH20 0xFFFFFFFFFFFFFFFFFFFFFFFFFFFFFFFFFFFFFFFF AND PUSH20 0xFFFFFFFFFFFFFFFFFFFFFFFFFFFFFFFFFFFFFFFF AND DUP2 MSTORE PUSH1 0x20 ADD SWAP1 DUP2 MSTORE PUSH1 0x20 ADD PUSH1 0x0 KECCAK256 PUSH1 0x0 DUP14 DUP2 MSTORE PUSH1 0x20 ADD SWAP1 DUP2 MSTORE PUSH1 0x20 ADD PUSH1 0x0 KECCAK256 PUSH1 0x1 ADD PUSH1 0x0 PUSH2 0x100 EXP DUP2 SLOAD DUP2 PUSH20 0xFFFFFFFFFFFFFFFFFFFFFFFFFFFFFFFFFFFFFFFF MUL NOT AND SWAP1 DUP4 PUSH20 0xFFFFFFFFFFFFFFFFFFFFFFFFFFFFFFFFFFFFFFFF AND MUL OR SWAP1 SSTORE POP DUP9 PUSH1 0xD PUSH1 0x0 DUP15 PUSH20 0xFFFFFFFFFFFFFFFFFFFFFFFFFFFFFFFFFFFFFFFF AND PUSH20 0xFFFFFFFFFFFFFFFFFFFFFFFFFFFFFFFFFFFFFFFF AND DUP2 MSTORE PUSH1 0x20 ADD SWAP1 DUP2 MSTORE PUSH1 0x20 ADD PUSH1 0x0 KECCAK256 PUSH1 0x0 DUP14 DUP2 MSTORE PUSH1 0x20 ADD SWAP1 DUP2 MSTORE PUSH1 0x20 ADD PUSH1 0x0 KECCAK256 PUSH1 0x1 ADD PUSH1 0x14 PUSH2 0x100 EXP DUP2 SLOAD DUP2 PUSH4 0xFFFFFFFF MUL NOT AND SWAP1 DUP4 PUSH4 0xFFFFFFFF AND MUL OR SWAP1 SSTORE POP DUP8 PUSH1 0xD PUSH1 0x0 DUP15 PUSH20 0xFFFFFFFFFFFFFFFFFFFFFFFFFFFFFFFFFFFFFFFF AND PUSH20 0xFFFFFFFFFFFFFFFFFFFFFFFFFFFFFFFFFFFFFFFF AND DUP2 MSTORE PUSH1 0x20 ADD SWAP1 DUP2 MSTORE PUSH1 0x20 ADD PUSH1 0x0 KECCAK256 PUSH1 0x0 DUP14 DUP2 MSTORE PUSH1 0x20 ADD SWAP1 DUP2 MSTORE PUSH1 0x20 ADD PUSH1 0x0 KECCAK256 PUSH1 0x1 ADD PUSH1 0x18 PUSH2 0x100 EXP DUP2 SLOAD DUP2 PUSH1 0xFF MUL NOT AND SWAP1 DUP4 PUSH1 0xFF AND MUL OR SWAP1 SSTORE POP DUP7 PUSH1 0xD PUSH1 0x0 DUP15 PUSH20 0xFFFFFFFFFFFFFFFFFFFFFFFFFFFFFFFFFFFFFFFF AND PUSH20 0xFFFFFFFFFFFFFFFFFFFFFFFFFFFFFFFFFFFFFFFF AND DUP2 MSTORE PUSH1 0x20 ADD SWAP1 DUP2 MSTORE PUSH1 0x20 ADD PUSH1 0x0 KECCAK256 PUSH1 0x0 DUP14 DUP2 MSTORE PUSH1 0x20 ADD SWAP1 DUP2 MSTORE PUSH1 0x20 ADD PUSH1 0x0 KECCAK256 PUSH1 0x1 ADD PUSH1 0x19 PUSH2 0x100 EXP DUP2 SLOAD DUP2 PUSH1 0xFF MUL NOT AND SWAP1 DUP4 PUSH1 0x2 DUP2 GT ISZERO PUSH2 0xB74 JUMPI PUSH2 0xB73 PUSH2 0x221C JUMP JUMPDEST JUMPDEST MUL OR SWAP1 SSTORE POP DUP6 PUSH1 0xD PUSH1 0x0 DUP15 PUSH20 0xFFFFFFFFFFFFFFFFFFFFFFFFFFFFFFFFFFFFFFFF AND PUSH20 0xFFFFFFFFFFFFFFFFFFFFFFFFFFFFFFFFFFFFFFFF AND DUP2 MSTORE PUSH1 0x20 ADD SWAP1 DUP2 MSTORE PUSH1 0x20 ADD PUSH1 0x0 KECCAK256 PUSH1 0x0 DUP14 DUP2 MSTORE PUSH1 0x20 ADD SWAP1 DUP2 MSTORE PUSH1 0x20 ADD PUSH1 0x0 KECCAK256 PUSH1 0x2 ADD SWAP1 DUP1 MLOAD SWAP1 PUSH1 0x20 ADD SWAP1 PUSH2 0xBE0 SWAP3 SWAP2 SWAP1 PUSH2 0x17EF JUMP JUMPDEST POP DUP5 PUSH1 0xD PUSH1 0x0 DUP15 PUSH20 0xFFFFFFFFFFFFFFFFFFFFFFFFFFFFFFFFFFFFFFFF AND PUSH20 0xFFFFFFFFFFFFFFFFFFFFFFFFFFFFFFFFFFFFFFFF AND DUP2 MSTORE PUSH1 0x20 ADD SWAP1 DUP2 MSTORE PUSH1 0x20 ADD PUSH1 0x0 KECCAK256 PUSH1 0x0 DUP14 DUP2 MSTORE PUSH1 0x20 ADD SWAP1 DUP2 MSTORE PUSH1 0x20 ADD PUSH1 0x0 KECCAK256 PUSH1 0x3 ADD DUP2 SWAP1 SSTORE POP DUP4 PUSH1 0xD PUSH1 0x0 DUP15 PUSH20 0xFFFFFFFFFFFFFFFFFFFFFFFFFFFFFFFFFFFFFFFF AND PUSH20 0xFFFFFFFFFFFFFFFFFFFFFFFFFFFFFFFFFFFFFFFF AND DUP2 MSTORE PUSH1 0x20 ADD SWAP1 DUP2 MSTORE PUSH1 0x20 ADD PUSH1 0x0 KECCAK256 PUSH1 0x0 DUP14 DUP2 MSTORE PUSH1 0x20 ADD SWAP1 DUP2 MSTORE PUSH1 0x20 ADD PUSH1 0x0 KECCAK256 PUSH1 0x4 ADD DUP2 SWAP1 SSTORE POP DUP3 PUSH1 0xD PUSH1 0x0 DUP15 PUSH20 0xFFFFFFFFFFFFFFFFFFFFFFFFFFFFFFFFFFFFFFFF AND PUSH20 0xFFFFFFFFFFFFFFFFFFFFFFFFFFFFFFFFFFFFFFFF AND DUP2 MSTORE PUSH1 0x20 ADD SWAP1 DUP2 MSTORE PUSH1 0x20 ADD PUSH1 0x0 KECCAK256 PUSH1 0x0 DUP14 DUP2 MSTORE PUSH1 0x20 ADD SWAP1 DUP2 MSTORE PUSH1 0x20 ADD PUSH1 0x0 KECCAK256 PUSH1 0x5 ADD PUSH1 0x0 PUSH2 0x100 EXP DUP2 SLOAD DUP2 PUSH1 0xFF MUL NOT AND SWAP1 DUP4 PUSH1 0xFF AND MUL OR SWAP1 SSTORE POP DUP8 PUSH1 0xFF AND PUSH1 0xD PUSH1 0x0 DUP15 PUSH20 0xFFFFFFFFFFFFFFFFFFFFFFFFFFFFFFFFFFFFFFFF AND PUSH20 0xFFFFFFFFFFFFFFFFFFFFFFFFFFFFFFFFFFFFFFFF AND DUP2 MSTORE PUSH1 0x20 ADD SWAP1 DUP2 MSTORE PUSH1 0x20 ADD PUSH1 0x0 KECCAK256 PUSH1 0x0 DUP14 DUP2 MSTORE PUSH1 0x20 ADD SWAP1 DUP2 MSTORE PUSH1 0x20 ADD PUSH1 0x0 KECCAK256 PUSH1 0x5 ADD PUSH1 0x1 PUSH2 0x100 EXP DUP2 SLOAD DUP2 PUSH4 0xFFFFFFFF MUL NOT AND SWAP1 DUP4 PUSH4 0xFFFFFFFF AND MUL OR SWAP1 SSTORE POP PUSH32 0x97A8618B4C3E1BBEF6226B887AE721D63D275F7A7D596BA44E9EF2FB1309CCE0 DUP13 DUP12 DUP12 DUP12 PUSH1 0x40 MLOAD PUSH2 0xDA7 SWAP5 SWAP4 SWAP3 SWAP2 SWAP1 PUSH2 0x1D25 JUMP JUMPDEST PUSH1 0x40 MLOAD DUP1 SWAP2 SUB SWAP1 LOG1 DUP11 SWAP1 POP SWAP12 SWAP11 POP POP POP POP POP POP POP POP POP POP POP JUMP JUMPDEST PUSH1 0x8 PUSH1 0x20 MSTORE DUP1 PUSH1 0x0 MSTORE PUSH1 0x40 PUSH1 0x0 KECCAK256 PUSH1 0x0 SWAP2 POP SWAP1 POP DUP1 PUSH1 0x0 ADD PUSH1 0x0 SWAP1 SLOAD SWAP1 PUSH2 0x100 EXP SWAP1 DIV PUSH1 0xFF AND SWAP1 DUP1 PUSH1 0x1 ADD DUP1 SLOAD PUSH2 0xDF7 SWAP1 PUSH2 0x2141 JUMP JUMPDEST DUP1 PUSH1 0x1F ADD PUSH1 0x20 DUP1 SWAP2 DIV MUL PUSH1 0x20 ADD PUSH1 0x40 MLOAD SWAP1 DUP2 ADD PUSH1 0x40 MSTORE DUP1 SWAP3 SWAP2 SWAP1 DUP2 DUP2 MSTORE PUSH1 0x20 ADD DUP3 DUP1 SLOAD PUSH2 0xE23 SWAP1 PUSH2 0x2141 JUMP JUMPDEST DUP1 ISZERO PUSH2 0xE70 JUMPI DUP1 PUSH1 0x1F LT PUSH2 0xE45 JUMPI PUSH2 0x100 DUP1 DUP4 SLOAD DIV MUL DUP4 MSTORE SWAP2 PUSH1 0x20 ADD SWAP2 PUSH2 0xE70 JUMP JUMPDEST DUP3 ADD SWAP2 SWAP1 PUSH1 0x0 MSTORE PUSH1 0x20 PUSH1 0x0 KECCAK256 SWAP1 JUMPDEST DUP2 SLOAD DUP2 MSTORE SWAP1 PUSH1 0x1 ADD SWAP1 PUSH1 0x20 ADD DUP1 DUP4 GT PUSH2 0xE53 JUMPI DUP3 SWAP1 SUB PUSH1 0x1F AND DUP3 ADD SWAP2 JUMPDEST POP POP POP POP POP SWAP1 DUP1 PUSH1 0x2 ADD PUSH1 0x0 SWAP1 SLOAD SWAP1 PUSH2 0x100 EXP SWAP1 DIV PUSH1 0xFF AND SWAP1 POP DUP4 JUMP JUMPDEST PUSH1 0x9 PUSH1 0x20 MSTORE DUP1 PUSH1 0x0 MSTORE PUSH1 0x40 PUSH1 0x0 KECCAK256 PUSH1 0x0 SWAP2 POP SWAP1 POP DUP1 PUSH1 0x0 ADD PUSH1 0x0 SWAP1 SLOAD SWAP1 PUSH2 0x100 EXP SWAP1 DIV PUSH1 0xFF AND SWAP1 DUP1 PUSH1 0x1 ADD DUP1 SLOAD PUSH2 0xEC3 SWAP1 PUSH2 0x2141 JUMP JUMPDEST DUP1 PUSH1 0x1F ADD PUSH1 0x20 DUP1 SWAP2 DIV MUL PUSH1 0x20 ADD PUSH1 0x40 MLOAD SWAP1 DUP2 ADD PUSH1 0x40 MSTORE DUP1 SWAP3 SWAP2 SWAP1 DUP2 DUP2 MSTORE PUSH1 0x20 ADD DUP3 DUP1 SLOAD PUSH2 0xEEF SWAP1 PUSH2 0x2141 JUMP JUMPDEST DUP1 ISZERO PUSH2 0xF3C JUMPI DUP1 PUSH1 0x1F LT PUSH2 0xF11 JUMPI PUSH2 0x100 DUP1 DUP4 SLOAD DIV MUL DUP4 MSTORE SWAP2 PUSH1 0x20 ADD SWAP2 PUSH2 0xF3C JUMP JUMPDEST DUP3 ADD SWAP2 SWAP1 PUSH1 0x0 MSTORE PUSH1 0x20 PUSH1 0x0 KECCAK256 SWAP1 JUMPDEST DUP2 SLOAD DUP2 MSTORE SWAP1 PUSH1 0x1 ADD SWAP1 PUSH1 0x20 ADD DUP1 DUP4 GT PUSH2 0xF1F JUMPI DUP3 SWAP1 SUB PUSH1 0x1F AND DUP3 ADD SWAP2 JUMPDEST POP POP POP POP POP SWAP1 DUP1 PUSH1 0x2 ADD PUSH1 0x0 SWAP1 SLOAD SWAP1 PUSH2 0x100 EXP SWAP1 DIV PUSH1 0xFF AND SWAP1 POP DUP4 JUMP JUMPDEST PUSH1 0xB PUSH1 0x20 MSTORE DUP1 PUSH1 0x0 MSTORE PUSH1 0x40 PUSH1 0x0 KECCAK256 PUSH1 0x0 SWAP2 POP SWAP1 POP DUP1 PUSH1 0x0 ADD PUSH1 0x0 SWAP1 SLOAD SWAP1 PUSH2 0x100 EXP SWAP1 DIV PUSH4 0xFFFFFFFF AND SWAP1 DUP1 PUSH1 0x1 ADD DUP1 SLOAD PUSH2 0xF92 SWAP1 PUSH2 0x2141 JUMP JUMPDEST DUP1 PUSH1 0x1F ADD PUSH1 0x20 DUP1 SWAP2 DIV MUL PUSH1 0x20 ADD PUSH1 0x40 MLOAD SWAP1 DUP2 ADD PUSH1 0x40 MSTORE DUP1 SWAP3 SWAP2 SWAP1 DUP2 DUP2 MSTORE PUSH1 0x20 ADD DUP3 DUP1 SLOAD PUSH2 0xFBE SWAP1 PUSH2 0x2141 JUMP JUMPDEST DUP1 ISZERO PUSH2 0x100B JUMPI DUP1 PUSH1 0x1F LT PUSH2 0xFE0 JUMPI PUSH2 0x100 DUP1 DUP4 SLOAD DIV MUL DUP4 MSTORE SWAP2 PUSH1 0x20 ADD SWAP2 PUSH2 0x100B JUMP JUMPDEST DUP3 ADD SWAP2 SWAP1 PUSH1 0x0 MSTORE PUSH1 0x20 PUSH1 0x0 KECCAK256 SWAP1 JUMPDEST DUP2 SLOAD DUP2 MSTORE SWAP1 PUSH1 0x1 ADD SWAP1 PUSH1 0x20 ADD DUP1 DUP4 GT PUSH2 0xFEE JUMPI DUP3 SWAP1 SUB PUSH1 0x1F AND DUP3 ADD SWAP2 JUMPDEST POP POP POP POP POP SWAP1 POP DUP3 JUMP JUMPDEST PUSH1 0xC SLOAD DUP2 JUMP JUMPDEST PUSH1 0x4 PUSH1 0x0 CALLER PUSH20 0xFFFFFFFFFFFFFFFFFFFFFFFFFFFFFFFFFFFFFFFF AND PUSH20 0xFFFFFFFFFFFFFFFFFFFFFFFFFFFFFFFFFFFFFFFF AND DUP2 MSTORE PUSH1 0x20 ADD SWAP1 DUP2 MSTORE PUSH1 0x20 ADD PUSH1 0x0 KECCAK256 PUSH1 0x0 ADD PUSH1 0x0 SWAP1 SLOAD SWAP1 PUSH2 0x100 EXP SWAP1 DIV PUSH1 0xFF AND DUP1 PUSH2 0x10C2 JUMPI POP PUSH1 0x6 PUSH1 0x0 CALLER PUSH20 0xFFFFFFFFFFFFFFFFFFFFFFFFFFFFFFFFFFFFFFFF AND PUSH20 0xFFFFFFFFFFFFFFFFFFFFFFFFFFFFFFFFFFFFFFFF AND DUP2 MSTORE PUSH1 0x20 ADD SWAP1 DUP2 MSTORE PUSH1 0x20 ADD PUSH1 0x0 KECCAK256 PUSH1 0x0 ADD PUSH1 0x0 SWAP1 SLOAD SWAP1 PUSH2 0x100 EXP SWAP1 DIV PUSH1 0xFF AND JUMPDEST DUP1 PUSH2 0x1119 JUMPI POP PUSH1 0x8 PUSH1 0x0 CALLER PUSH20 0xFFFFFFFFFFFFFFFFFFFFFFFFFFFFFFFFFFFFFFFF AND PUSH20 0xFFFFFFFFFFFFFFFFFFFFFFFFFFFFFFFFFFFFFFFF AND DUP2 MSTORE PUSH1 0x20 ADD SWAP1 DUP2 MSTORE PUSH1 0x20 ADD PUSH1 0x0 KECCAK256 PUSH1 0x0 ADD PUSH1 0x0 SWAP1 SLOAD SWAP1 PUSH2 0x100 EXP SWAP1 DIV PUSH1 0xFF AND JUMPDEST PUSH2 0x1158 JUMPI PUSH1 0x40 MLOAD PUSH32 0x8C379A000000000000000000000000000000000000000000000000000000000 DUP2 MSTORE PUSH1 0x4 ADD PUSH2 0x114F SWAP1 PUSH2 0x1E9E JUMP JUMPDEST PUSH1 0x40 MLOAD DUP1 SWAP2 SUB SWAP1 REVERT JUMPDEST PUSH1 0x3 PUSH1 0x0 DUP12 PUSH20 0xFFFFFFFFFFFFFFFFFFFFFFFFFFFFFFFFFFFFFFFF AND PUSH20 0xFFFFFFFFFFFFFFFFFFFFFFFFFFFFFFFFFFFFFFFF AND DUP2 MSTORE PUSH1 0x20 ADD SWAP1 DUP2 MSTORE PUSH1 0x20 ADD PUSH1 0x0 KECCAK256 PUSH1 0x0 ADD PUSH1 0x0 SWAP1 SLOAD SWAP1 PUSH2 0x100 EXP SWAP1 DIV PUSH1 0xFF AND PUSH2 0x11E7 JUMPI PUSH1 0x40 MLOAD PUSH32 0x8C379A000000000000000000000000000000000000000000000000000000000 DUP2 MSTORE PUSH1 0x4 ADD PUSH2 0x11DE SWAP1 PUSH2 0x1E7E JUMP JUMPDEST PUSH1 0x40 MLOAD DUP1 SWAP2 SUB SWAP1 REVERT JUMPDEST PUSH1 0x0 PUSH1 0xC PUSH1 0x0 DUP2 SLOAD DUP1 SWAP3 SWAP2 SWAP1 PUSH2 0x11FC SWAP1 PUSH2 0x21A4 JUMP JUMPDEST SWAP2 SWAP1 POP SSTORE SWAP1 POP DUP10 PUSH1 0xD PUSH1 0x0 DUP14 PUSH20 0xFFFFFFFFFFFFFFFFFFFFFFFFFFFFFFFFFFFFFFFF AND PUSH20 0xFFFFFFFFFFFFFFFFFFFFFFFFFFFFFFFFFFFFFFFF AND DUP2 MSTORE PUSH1 0x20 ADD SWAP1 DUP2 MSTORE PUSH1 0x20 ADD PUSH1 0x0 KECCAK256 PUSH1 0x0 DUP4 DUP2 MSTORE PUSH1 0x20 ADD SWAP1 DUP2 MSTORE PUSH1 0x20 ADD PUSH1 0x0 KECCAK256 PUSH1 0x1 ADD PUSH1 0x0 PUSH2 0x100 EXP DUP2 SLOAD DUP2 PUSH20 0xFFFFFFFFFFFFFFFFFFFFFFFFFFFFFFFFFFFFFFFF MUL NOT AND SWAP1 DUP4 PUSH20 0xFFFFFFFFFFFFFFFFFFFFFFFFFFFFFFFFFFFFFFFF AND MUL OR SWAP1 SSTORE POP DUP9 PUSH1 0xD PUSH1 0x0 DUP14 PUSH20 0xFFFFFFFFFFFFFFFFFFFFFFFFFFFFFFFFFFFFFFFF AND PUSH20 0xFFFFFFFFFFFFFFFFFFFFFFFFFFFFFFFFFFFFFFFF AND DUP2 MSTORE PUSH1 0x20 ADD SWAP1 DUP2 MSTORE PUSH1 0x20 ADD PUSH1 0x0 KECCAK256 PUSH1 0x0 DUP4 DUP2 MSTORE PUSH1 0x20 ADD SWAP1 DUP2 MSTORE PUSH1 0x20 ADD PUSH1 0x0 KECCAK256 PUSH1 0x1 ADD PUSH1 0x14 PUSH2 0x100 EXP DUP2 SLOAD DUP2 PUSH4 0xFFFFFFFF MUL NOT AND SWAP1 DUP4 PUSH4 0xFFFFFFFF AND MUL OR SWAP1 SSTORE POP DUP8 PUSH1 0xD PUSH1 0x0 DUP14 PUSH20 0xFFFFFFFFFFFFFFFFFFFFFFFFFFFFFFFFFFFFFFFF AND PUSH20 0xFFFFFFFFFFFFFFFFFFFFFFFFFFFFFFFFFFFFFFFF AND DUP2 MSTORE PUSH1 0x20 ADD SWAP1 DUP2 MSTORE PUSH1 0x20 ADD PUSH1 0x0 KECCAK256 PUSH1 0x0 DUP4 DUP2 MSTORE PUSH1 0x20 ADD SWAP1 DUP2 MSTORE PUSH1 0x20 ADD PUSH1 0x0 KECCAK256 PUSH1 0x1 ADD PUSH1 0x18 PUSH2 0x100 EXP DUP2 SLOAD DUP2 PUSH1 0xFF MUL NOT AND SWAP1 DUP4 PUSH1 0xFF AND MUL OR SWAP1 SSTORE POP DUP7 PUSH1 0xD PUSH1 0x0 DUP14 PUSH20 0xFFFFFFFFFFFFFFFFFFFFFFFFFFFFFFFFFFFFFFFF AND PUSH20 0xFFFFFFFFFFFFFFFFFFFFFFFFFFFFFFFFFFFFFFFF AND DUP2 MSTORE PUSH1 0x20 ADD SWAP1 DUP2 MSTORE PUSH1 0x20 ADD PUSH1 0x0 KECCAK256 PUSH1 0x0 DUP4 DUP2 MSTORE PUSH1 0x20 ADD SWAP1 DUP2 MSTORE PUSH1 0x20 ADD PUSH1 0x0 KECCAK256 PUSH1 0x1 ADD PUSH1 0x19 PUSH2 0x100 EXP DUP2 SLOAD DUP2 PUSH1 0xFF MUL NOT AND SWAP1 DUP4 PUSH1 0x2 DUP2 GT ISZERO PUSH2 0x13E8 JUMPI PUSH2 0x13E7 PUSH2 0x221C JUMP JUMPDEST JUMPDEST MUL OR SWAP1 SSTORE POP DUP6 PUSH1 0xD PUSH1 0x0 DUP14 PUSH20 0xFFFFFFFFFFFFFFFFFFFFFFFFFFFFFFFFFFFFFFFF AND PUSH20 0xFFFFFFFFFFFFFFFFFFFFFFFFFFFFFFFFFFFFFFFF AND DUP2 MSTORE PUSH1 0x20 ADD SWAP1 DUP2 MSTORE PUSH1 0x20 ADD PUSH1 0x0 KECCAK256 PUSH1 0x0 DUP4 DUP2 MSTORE PUSH1 0x20 ADD SWAP1 DUP2 MSTORE PUSH1 0x20 ADD PUSH1 0x0 KECCAK256 PUSH1 0x2 ADD SWAP1 DUP1 MLOAD SWAP1 PUSH1 0x20 ADD SWAP1 PUSH2 0x1454 SWAP3 SWAP2 SWAP1 PUSH2 0x17EF JUMP JUMPDEST POP DUP5 PUSH1 0xD PUSH1 0x0 DUP14 PUSH20 0xFFFFFFFFFFFFFFFFFFFFFFFFFFFFFFFFFFFFFFFF AND PUSH20 0xFFFFFFFFFFFFFFFFFFFFFFFFFFFFFFFFFFFFFFFF AND DUP2 MSTORE PUSH1 0x20 ADD SWAP1 DUP2 MSTORE PUSH1 0x20 ADD PUSH1 0x0 KECCAK256 PUSH1 0x0 DUP4 DUP2 MSTORE PUSH1 0x20 ADD SWAP1 DUP2 MSTORE PUSH1 0x20 ADD PUSH1 0x0 KECCAK256 PUSH1 0x3 ADD DUP2 SWAP1 SSTORE POP DUP4 PUSH1 0xD PUSH1 0x0 DUP14 PUSH20 0xFFFFFFFFFFFFFFFFFFFFFFFFFFFFFFFFFFFFFFFF AND PUSH20 0xFFFFFFFFFFFFFFFFFFFFFFFFFFFFFFFFFFFFFFFF AND DUP2 MSTORE PUSH1 0x20 ADD SWAP1 DUP2 MSTORE PUSH1 0x20 ADD PUSH1 0x0 KECCAK256 PUSH1 0x0 DUP4 DUP2 MSTORE PUSH1 0x20 ADD SWAP1 DUP2 MSTORE PUSH1 0x20 ADD PUSH1 0x0 KECCAK256 PUSH1 0x4 ADD DUP2 SWAP1 SSTORE POP DUP3 PUSH1 0xD PUSH1 0x0 DUP14 PUSH20 0xFFFFFFFFFFFFFFFFFFFFFFFFFFFFFFFFFFFFFFFF AND PUSH20 0xFFFFFFFFFFFFFFFFFFFFFFFFFFFFFFFFFFFFFFFF AND DUP2 MSTORE PUSH1 0x20 ADD SWAP1 DUP2 MSTORE PUSH1 0x20 ADD PUSH1 0x0 KECCAK256 PUSH1 0x0 DUP4 DUP2 MSTORE PUSH1 0x20 ADD SWAP1 DUP2 MSTORE PUSH1 0x20 ADD PUSH1 0x0 KECCAK256 PUSH1 0x5 ADD PUSH1 0x0 PUSH2 0x100 EXP DUP2 SLOAD DUP2 PUSH1 0xFF MUL NOT AND SWAP1 DUP4 PUSH1 0xFF AND MUL OR SWAP1 SSTORE POP DUP8 PUSH1 0xFF AND PUSH1 0xD PUSH1 0x0 DUP14 PUSH20 0xFFFFFFFFFFFFFFFFFFFFFFFFFFFFFFFFFFFFFFFF AND PUSH20 0xFFFFFFFFFFFFFFFFFFFFFFFFFFFFFFFFFFFFFFFF AND DUP2 MSTORE PUSH1 0x20 ADD SWAP1 DUP2 MSTORE PUSH1 0x20 ADD PUSH1 0x0 KECCAK256 PUSH1 0x0 DUP4 DUP2 MSTORE PUSH1 0x20 ADD SWAP1 DUP2 MSTORE PUSH1 0x20 ADD PUSH1 0x0 KECCAK256 PUSH1 0x5 ADD PUSH1 0x1 PUSH2 0x100 EXP DUP2 SLOAD DUP2 PUSH4 0xFFFFFFFF MUL NOT AND SWAP1 DUP4 PUSH4 0xFFFFFFFF AND MUL OR SWAP1 SSTORE POP PUSH32 0xAE2424F93616CC7FC3303332CDDA5353231F2DC90A87B1E0B507A25E53AC0135 DUP12 DUP12 DUP12 DUP12 PUSH1 0x40 MLOAD PUSH2 0x161B SWAP5 SWAP4 SWAP3 SWAP2 SWAP1 PUSH2 0x1D25 JUMP JUMPDEST PUSH1 0x40 MLOAD DUP1 SWAP2 SUB SWAP1 LOG1 POP POP POP POP POP POP POP POP POP POP POP JUMP JUMPDEST PUSH1 0x5 PUSH1 0x20 MSTORE DUP1 PUSH1 0x0 MSTORE PUSH1 0x40 PUSH1 0x0 KECCAK256 PUSH1 0x0 SWAP2 POP SWAP1 POP DUP1 PUSH1 0x0 ADD PUSH1 0x0 SWAP1 SLOAD SWAP1 PUSH2 0x100 EXP SWAP1 DIV PUSH1 0xFF AND SWAP1 DUP1 PUSH1 0x0 ADD PUSH1 0x1 SWAP1 SLOAD SWAP1 PUSH2 0x100 EXP SWAP1 DIV PUSH20 0xFFFFFFFFFFFFFFFFFFFFFFFFFFFFFFFFFFFFFFFF AND SWAP1 DUP1 PUSH1 0x0 ADD PUSH1 0x15 SWAP1 SLOAD SWAP1 PUSH2 0x100 EXP SWAP1 DIV PUSH2 0xFFFF AND SWAP1 DUP1 PUSH1 0x0 ADD PUSH1 0x17 SWAP1 SLOAD SWAP1 PUSH2 0x100 EXP SWAP1 DIV PUSH1 0xFF AND SWAP1 DUP1 PUSH1 0x1 ADD DUP1 SLOAD PUSH2 0x16B3 SWAP1 PUSH2 0x2141 JUMP JUMPDEST DUP1 PUSH1 0x1F ADD PUSH1 0x20 DUP1 SWAP2 DIV MUL PUSH1 0x20 ADD PUSH1 0x40 MLOAD SWAP1 DUP2 ADD PUSH1 0x40 MSTORE DUP1 SWAP3 SWAP2 SWAP1 DUP2 DUP2 MSTORE PUSH1 0x20 ADD DUP3 DUP1 SLOAD PUSH2 0x16DF SWAP1 PUSH2 0x2141 JUMP JUMPDEST DUP1 ISZERO PUSH2 0x172C JUMPI DUP1 PUSH1 0x1F LT PUSH2 0x1701 JUMPI PUSH2 0x100 DUP1 DUP4 SLOAD DIV MUL DUP4 MSTORE SWAP2 PUSH1 0x20 ADD SWAP2 PUSH2 0x172C JUMP JUMPDEST DUP3 ADD SWAP2 SWAP1 PUSH1 0x0 MSTORE PUSH1 0x20 PUSH1 0x0 KECCAK256 SWAP1 JUMPDEST DUP2 SLOAD DUP2 MSTORE SWAP1 PUSH1 0x1 ADD SWAP1 PUSH1 0x20 ADD DUP1 DUP4 GT PUSH2 0x170F JUMPI DUP3 SWAP1 SUB PUSH1 0x1F AND DUP3 ADD SWAP2 JUMPDEST POP POP POP POP POP SWAP1 DUP1 PUSH1 0x2 ADD DUP1 SLOAD PUSH2 0x1741 SWAP1 PUSH2 0x2141 JUMP JUMPDEST DUP1 PUSH1 0x1F ADD PUSH1 0x20 DUP1 SWAP2 DIV MUL PUSH1 0x20 ADD PUSH1 0x40 MLOAD SWAP1 DUP2 ADD PUSH1 0x40 MSTORE DUP1 SWAP3 SWAP2 SWAP1 DUP2 DUP2 MSTORE PUSH1 0x20 ADD DUP3 DUP1 SLOAD PUSH2 0x176D SWAP1 PUSH2 0x2141 JUMP JUMPDEST DUP1 ISZERO PUSH2 0x17BA JUMPI DUP1 PUSH1 0x1F LT PUSH2 0x178F JUMPI PUSH2 0x100 DUP1 DUP4 SLOAD DIV MUL DUP4 MSTORE SWAP2 PUSH1 0x20 ADD SWAP2 PUSH2 0x17BA JUMP JUMPDEST DUP3 ADD SWAP2 SWAP1 PUSH1 0x0 MSTORE PUSH1 0x20 PUSH1 0x0 KECCAK256 SWAP1 JUMPDEST DUP2 SLOAD DUP2 MSTORE SWAP1 PUSH1 0x1 ADD SWAP1 PUSH1 0x20 ADD DUP1 DUP4 GT PUSH2 0x179D JUMPI DUP3 SWAP1 SUB PUSH1 0x1F AND DUP3 ADD SWAP2 JUMPDEST POP POP POP POP POP SWAP1 POP DUP7 JUMP JUMPDEST PUSH1 0x3 PUSH1 0x20 MSTORE DUP1 PUSH1 0x0 MSTORE PUSH1 0x40 PUSH1 0x0 KECCAK256 PUSH1 0x0 SWAP2 POP SWAP1 POP DUP1 PUSH1 0x0 ADD PUSH1 0x0 SWAP1 SLOAD SWAP1 PUSH2 0x100 EXP SWAP1 DIV PUSH1 0xFF AND SWAP1 POP DUP2 JUMP JUMPDEST DUP3 DUP1 SLOAD PUSH2 0x17FB SWAP1 PUSH2 0x2141 JUMP JUMPDEST SWAP1 PUSH1 0x0 MSTORE PUSH1 0x20 PUSH1 0x0 KECCAK256 SWAP1 PUSH1 0x1F ADD PUSH1 0x20 SWAP1 DIV DUP2 ADD SWAP3 DUP3 PUSH2 0x181D JUMPI PUSH1 0x0 DUP6 SSTORE PUSH2 0x1864 JUMP JUMPDEST DUP3 PUSH1 0x1F LT PUSH2 0x1836 JUMPI DUP1 MLOAD PUSH1 0xFF NOT AND DUP4 DUP1 ADD OR DUP6 SSTORE PUSH2 0x1864 JUMP JUMPDEST DUP3 DUP1 ADD PUSH1 0x1 ADD DUP6 SSTORE DUP3 ISZERO PUSH2 0x1864 JUMPI SWAP2 DUP3 ADD JUMPDEST DUP3 DUP2 GT ISZERO PUSH2 0x1863 JUMPI DUP3 MLOAD DUP3 SSTORE SWAP2 PUSH1 0x20 ADD SWAP2 SWAP1 PUSH1 0x1 ADD SWAP1 PUSH2 0x1848 JUMP JUMPDEST JUMPDEST POP SWAP1 POP PUSH2 0x1871 SWAP2 SWAP1 PUSH2 0x1875 JUMP JUMPDEST POP SWAP1 JUMP JUMPDEST JUMPDEST DUP1 DUP3 GT ISZERO PUSH2 0x188E JUMPI PUSH1 0x0 DUP2 PUSH1 0x0 SWAP1 SSTORE POP PUSH1 0x1 ADD PUSH2 0x1876 JUMP JUMPDEST POP SWAP1 JUMP JUMPDEST PUSH1 0x0 PUSH2 0x18A5 PUSH2 0x18A0 DUP5 PUSH2 0x1FD1 JUMP JUMPDEST PUSH2 0x1FAC JUMP JUMPDEST SWAP1 POP DUP3 DUP2 MSTORE PUSH1 0x20 DUP2 ADD DUP5 DUP5 DUP5 ADD GT ISZERO PUSH2 0x18C1 JUMPI PUSH2 0x18C0 PUSH2 0x22AE JUMP JUMPDEST JUMPDEST PUSH2 0x18CC DUP5 DUP3 DUP6 PUSH2 0x20FF JUMP JUMPDEST POP SWAP4 SWAP3 POP POP POP JUMP JUMPDEST PUSH1 0x0 DUP2 CALLDATALOAD SWAP1 POP PUSH2 0x18E3 DUP2 PUSH2 0x2348 JUMP JUMPDEST SWAP3 SWAP2 POP POP JUMP JUMPDEST PUSH1 0x0 DUP2 CALLDATALOAD SWAP1 POP PUSH2 0x18F8 DUP2 PUSH2 0x235F JUMP JUMPDEST SWAP3 SWAP2 POP POP JUMP JUMPDEST PUSH1 0x0 DUP3 PUSH1 0x1F DUP4 ADD SLT PUSH2 0x1913 JUMPI PUSH2 0x1912 PUSH2 0x22A9 JUMP JUMPDEST JUMPDEST DUP2 CALLDATALOAD PUSH2 0x1923 DUP5 DUP3 PUSH1 0x20 DUP7 ADD PUSH2 0x1892 JUMP JUMPDEST SWAP2 POP POP SWAP3 SWAP2 POP POP JUMP JUMPDEST PUSH1 0x0 DUP2 CALLDATALOAD SWAP1 POP PUSH2 0x193B DUP2 PUSH2 0x236F JUMP JUMPDEST SWAP3 SWAP2 POP POP JUMP JUMPDEST PUSH1 0x0 DUP2 CALLDATALOAD SWAP1 POP PUSH2 0x1950 DUP2 PUSH2 0x2386 JUMP JUMPDEST SWAP3 SWAP2 POP POP JUMP JUMPDEST PUSH1 0x0 DUP2 CALLDATALOAD SWAP1 POP PUSH2 0x1965 DUP2 PUSH2 0x239D JUMP JUMPDEST SWAP3 SWAP2 POP POP JUMP JUMPDEST PUSH1 0x0 PUSH1 0x20 DUP3 DUP5 SUB SLT ISZERO PUSH2 0x1981 JUMPI PUSH2 0x1980 PUSH2 0x22B8 JUMP JUMPDEST JUMPDEST PUSH1 0x0 PUSH2 0x198F DUP5 DUP3 DUP6 ADD PUSH2 0x18D4 JUMP JUMPDEST SWAP2 POP POP SWAP3 SWAP2 POP POP JUMP JUMPDEST PUSH1 0x0 DUP1 PUSH1 0x0 DUP1 PUSH1 0x0 DUP1 PUSH1 0x0 DUP1 PUSH1 0x0 DUP1 PUSH2 0x140 DUP12 DUP14 SUB SLT ISZERO PUSH2 0x19BC JUMPI PUSH2 0x19BB PUSH2 0x22B8 JUMP JUMPDEST JUMPDEST PUSH1 0x0 PUSH2 0x19CA DUP14 DUP3 DUP15 ADD PUSH2 0x18D4 JUMP JUMPDEST SWAP11 POP POP PUSH1 0x20 PUSH2 0x19DB DUP14 DUP3 DUP15 ADD PUSH2 0x18D4 JUMP JUMPDEST SWAP10 POP POP PUSH1 0x40 PUSH2 0x19EC DUP14 DUP3 DUP15 ADD PUSH2 0x1941 JUMP JUMPDEST SWAP9 POP POP PUSH1 0x60 PUSH2 0x19FD DUP14 DUP3 DUP15 ADD PUSH2 0x1956 JUMP JUMPDEST SWAP8 POP POP PUSH1 0x80 PUSH2 0x1A0E DUP14 DUP3 DUP15 ADD PUSH2 0x18E9 JUMP JUMPDEST SWAP7 POP POP PUSH1 0xA0 DUP12 ADD CALLDATALOAD PUSH8 0xFFFFFFFFFFFFFFFF DUP2 GT ISZERO PUSH2 0x1A2F JUMPI PUSH2 0x1A2E PUSH2 0x22B3 JUMP JUMPDEST JUMPDEST PUSH2 0x1A3B DUP14 DUP3 DUP15 ADD PUSH2 0x18FE JUMP JUMPDEST SWAP6 POP POP PUSH1 0xC0 PUSH2 0x1A4C DUP14 DUP3 DUP15 ADD PUSH2 0x192C JUMP JUMPDEST SWAP5 POP POP PUSH1 0xE0 PUSH2 0x1A5D DUP14 DUP3 DUP15 ADD PUSH2 0x192C JUMP JUMPDEST SWAP4 POP POP PUSH2 0x100 PUSH2 0x1A6F DUP14 DUP3 DUP15 ADD PUSH2 0x1956 JUMP JUMPDEST SWAP3 POP POP PUSH2 0x120 PUSH2 0x1A81 DUP14 DUP3 DUP15 ADD PUSH2 0x1941 JUMP JUMPDEST SWAP2 POP POP SWAP3 SWAP6 SWAP9 SWAP12 SWAP2 SWAP5 SWAP8 SWAP11 POP SWAP3 SWAP6 SWAP9 POP JUMP JUMPDEST PUSH1 0x0 DUP1 PUSH1 0x40 DUP4 DUP6 SUB SLT ISZERO PUSH2 0x1AAA JUMPI PUSH2 0x1AA9 PUSH2 0x22B8 JUMP JUMPDEST JUMPDEST PUSH1 0x0 PUSH2 0x1AB8 DUP6 DUP3 DUP7 ADD PUSH2 0x18D4 JUMP JUMPDEST SWAP3 POP POP PUSH1 0x20 PUSH2 0x1AC9 DUP6 DUP3 DUP7 ADD PUSH2 0x192C JUMP JUMPDEST SWAP2 POP POP SWAP3 POP SWAP3 SWAP1 POP JUMP JUMPDEST PUSH1 0x0 DUP1 PUSH1 0x0 DUP1 PUSH1 0x0 DUP1 PUSH1 0x0 DUP1 PUSH1 0x0 DUP1 PUSH1 0x0 PUSH2 0x160 DUP13 DUP15 SUB SLT ISZERO PUSH2 0x1AF9 JUMPI PUSH2 0x1AF8 PUSH2 0x22B8 JUMP JUMPDEST JUMPDEST PUSH1 0x0 PUSH2 0x1B07 DUP15 DUP3 DUP16 ADD PUSH2 0x18D4 JUMP JUMPDEST SWAP12 POP POP PUSH1 0x20 PUSH2 0x1B18 DUP15 DUP3 DUP16 ADD PUSH2 0x192C JUMP JUMPDEST SWAP11 POP POP PUSH1 0x40 PUSH2 0x1B29 DUP15 DUP3 DUP16 ADD PUSH2 0x18D4 JUMP JUMPDEST SWAP10 POP POP PUSH1 0x60 PUSH2 0x1B3A DUP15 DUP3 DUP16 ADD PUSH2 0x1941 JUMP JUMPDEST SWAP9 POP POP PUSH1 0x80 PUSH2 0x1B4B DUP15 DUP3 DUP16 ADD PUSH2 0x1956 JUMP JUMPDEST SWAP8 POP POP PUSH1 0xA0 PUSH2 0x1B5C DUP15 DUP3 DUP16 ADD PUSH2 0x18E9 JUMP JUMPDEST SWAP7 POP POP PUSH1 0xC0 DUP13 ADD CALLDATALOAD PUSH8 0xFFFFFFFFFFFFFFFF DUP2 GT ISZERO PUSH2 0x1B7D JUMPI PUSH2 0x1B7C PUSH2 0x22B3 JUMP JUMPDEST JUMPDEST PUSH2 0x1B89 DUP15 DUP3 DUP16 ADD PUSH2 0x18FE JUMP JUMPDEST SWAP6 POP POP PUSH1 0xE0 PUSH2 0x1B9A DUP15 DUP3 DUP16 ADD PUSH2 0x192C JUMP JUMPDEST SWAP5 POP POP PUSH2 0x100 PUSH2 0x1BAC DUP15 DUP3 DUP16 ADD PUSH2 0x192C JUMP JUMPDEST SWAP4 POP POP PUSH2 0x120 PUSH2 0x1BBE DUP15 DUP3 DUP16 ADD PUSH2 0x1956 JUMP JUMPDEST SWAP3 POP POP PUSH2 0x140 PUSH2 0x1BD0 DUP15 DUP3 DUP16 ADD PUSH2 0x1941 JUMP JUMPDEST SWAP2 POP POP SWAP3 SWAP6 SWAP9 SWAP12 POP SWAP3 SWAP6 SWAP9 SWAP12 SWAP1 SWAP4 SWAP7 SWAP10 POP JUMP JUMPDEST PUSH1 0x0 PUSH1 0x20 DUP3 DUP5 SUB SLT ISZERO PUSH2 0x1BF9 JUMPI PUSH2 0x1BF8 PUSH2 0x22B8 JUMP JUMPDEST JUMPDEST PUSH1 0x0 PUSH2 0x1C07 DUP5 DUP3 DUP6 ADD PUSH2 0x1941 JUMP JUMPDEST SWAP2 POP POP SWAP3 SWAP2 POP POP JUMP JUMPDEST PUSH2 0x1C19 DUP2 PUSH2 0x201E JUMP JUMPDEST DUP3 MSTORE POP POP JUMP JUMPDEST PUSH2 0x1C28 DUP2 PUSH2 0x2030 JUMP JUMPDEST DUP3 MSTORE POP POP JUMP JUMPDEST PUSH2 0x1C37 DUP2 PUSH2 0x20B7 JUMP JUMPDEST DUP3 MSTORE POP POP JUMP JUMPDEST PUSH2 0x1C46 DUP2 PUSH2 0x20C9 JUMP JUMPDEST DUP3 MSTORE POP POP JUMP JUMPDEST PUSH1 0x0 PUSH2 0x1C57 DUP3 PUSH2 0x2002 JUMP JUMPDEST PUSH2 0x1C61 DUP2 DUP6 PUSH2 0x200D JUMP JUMPDEST SWAP4 POP PUSH2 0x1C71 DUP2 DUP6 PUSH1 0x20 DUP7 ADD PUSH2 0x210E JUMP JUMPDEST PUSH2 0x1C7A DUP2 PUSH2 0x22BD JUMP JUMPDEST DUP5 ADD SWAP2 POP POP SWAP3 SWAP2 POP POP JUMP JUMPDEST PUSH1 0x0 PUSH2 0x1C92 PUSH1 0x12 DUP4 PUSH2 0x200D JUMP JUMPDEST SWAP2 POP PUSH2 0x1C9D DUP3 PUSH2 0x22CE JUMP JUMPDEST PUSH1 0x20 DUP3 ADD SWAP1 POP SWAP2 SWAP1 POP JUMP JUMPDEST PUSH1 0x0 PUSH2 0x1CB5 PUSH1 0x20 DUP4 PUSH2 0x200D JUMP JUMPDEST SWAP2 POP PUSH2 0x1CC0 DUP3 PUSH2 0x22F7 JUMP JUMPDEST PUSH1 0x20 DUP3 ADD SWAP1 POP SWAP2 SWAP1 POP JUMP JUMPDEST PUSH2 0x1CD4 DUP2 PUSH2 0x2062 JUMP JUMPDEST DUP3 MSTORE POP POP JUMP JUMPDEST PUSH2 0x1CE3 DUP2 PUSH2 0x2090 JUMP JUMPDEST DUP3 MSTORE POP POP JUMP JUMPDEST PUSH2 0x1CF2 DUP2 PUSH2 0x20DB JUMP JUMPDEST DUP3 MSTORE POP POP JUMP JUMPDEST PUSH2 0x1D01 DUP2 PUSH2 0x209A JUMP JUMPDEST DUP3 MSTORE POP POP JUMP JUMPDEST PUSH2 0x1D10 DUP2 PUSH2 0x20ED JUMP JUMPDEST DUP3 MSTORE POP POP JUMP JUMPDEST PUSH2 0x1D1F DUP2 PUSH2 0x20AA JUMP JUMPDEST DUP3 MSTORE POP POP JUMP JUMPDEST PUSH1 0x0 PUSH1 0x80 DUP3 ADD SWAP1 POP PUSH2 0x1D3A PUSH1 0x0 DUP4 ADD DUP8 PUSH2 0x1C10 JUMP JUMPDEST PUSH2 0x1D47 PUSH1 0x20 DUP4 ADD DUP7 PUSH2 0x1C10 JUMP JUMPDEST PUSH2 0x1D54 PUSH1 0x40 DUP4 ADD DUP6 PUSH2 0x1CE9 JUMP JUMPDEST PUSH2 0x1D61 PUSH1 0x60 DUP4 ADD DUP5 PUSH2 0x1D07 JUMP JUMPDEST SWAP6 SWAP5 POP POP POP POP POP JUMP JUMPDEST PUSH1 0x0 PUSH1 0x20 DUP3 ADD SWAP1 POP PUSH2 0x1D7F PUSH1 0x0 DUP4 ADD DUP5 PUSH2 0x1C1F JUMP JUMPDEST SWAP3 SWAP2 POP POP JUMP JUMPDEST PUSH1 0x0 PUSH1 0xC0 DUP3 ADD SWAP1 POP PUSH2 0x1D9A PUSH1 0x0 DUP4 ADD DUP10 PUSH2 0x1C1F JUMP JUMPDEST PUSH2 0x1DA7 PUSH1 0x20 DUP4 ADD DUP9 PUSH2 0x1C10 JUMP JUMPDEST PUSH2 0x1DB4 PUSH1 0x40 DUP4 ADD DUP8 PUSH2 0x1CCB JUMP JUMPDEST PUSH2 0x1DC1 PUSH1 0x60 DUP4 ADD DUP7 PUSH2 0x1C3D JUMP JUMPDEST DUP2 DUP2 SUB PUSH1 0x80 DUP4 ADD MSTORE PUSH2 0x1DD3 DUP2 DUP6 PUSH2 0x1C4C JUMP JUMPDEST SWAP1 POP DUP2 DUP2 SUB PUSH1 0xA0 DUP4 ADD MSTORE PUSH2 0x1DE7 DUP2 DUP5 PUSH2 0x1C4C JUMP JUMPDEST SWAP1 POP SWAP8 SWAP7 POP POP POP POP POP POP POP JUMP JUMPDEST PUSH1 0x0 PUSH1 0x60 DUP3 ADD SWAP1 POP PUSH2 0x1E09 PUSH1 0x0 DUP4 ADD DUP7 PUSH2 0x1C1F JUMP JUMPDEST DUP2 DUP2 SUB PUSH1 0x20 DUP4 ADD MSTORE PUSH2 0x1E1B DUP2 DUP6 PUSH2 0x1C4C JUMP JUMPDEST SWAP1 POP PUSH2 0x1E2A PUSH1 0x40 DUP4 ADD DUP5 PUSH2 0x1D16 JUMP JUMPDEST SWAP5 SWAP4 POP POP POP POP JUMP JUMPDEST PUSH1 0x0 PUSH1 0x80 DUP3 ADD SWAP1 POP PUSH2 0x1E47 PUSH1 0x0 DUP4 ADD DUP8 PUSH2 0x1C1F JUMP JUMPDEST PUSH2 0x1E54 PUSH1 0x20 DUP4 ADD DUP7 PUSH2 0x1D16 JUMP JUMPDEST PUSH2 0x1E61 PUSH1 0x40 DUP4 ADD DUP6 PUSH2 0x1CDA JUMP JUMPDEST DUP2 DUP2 SUB PUSH1 0x60 DUP4 ADD MSTORE PUSH2 0x1E73 DUP2 DUP5 PUSH2 0x1C4C JUMP JUMPDEST SWAP1 POP SWAP6 SWAP5 POP POP POP POP POP JUMP JUMPDEST PUSH1 0x0 PUSH1 0x20 DUP3 ADD SWAP1 POP DUP2 DUP2 SUB PUSH1 0x0 DUP4 ADD MSTORE PUSH2 0x1E97 DUP2 PUSH2 0x1C85 JUMP JUMPDEST SWAP1 POP SWAP2 SWAP1 POP JUMP JUMPDEST PUSH1 0x0 PUSH1 0x20 DUP3 ADD SWAP1 POP DUP2 DUP2 SUB PUSH1 0x0 DUP4 ADD MSTORE PUSH2 0x1EB7 DUP2 PUSH2 0x1CA8 JUMP JUMPDEST SWAP1 POP SWAP2 SWAP1 POP JUMP JUMPDEST PUSH1 0x0 PUSH1 0x20 DUP3 ADD SWAP1 POP PUSH2 0x1ED3 PUSH1 0x0 DUP4 ADD DUP5 PUSH2 0x1CDA JUMP JUMPDEST SWAP3 SWAP2 POP POP JUMP JUMPDEST PUSH1 0x0 PUSH2 0x140 DUP3 ADD SWAP1 POP PUSH2 0x1EEF PUSH1 0x0 DUP4 ADD DUP14 PUSH2 0x1CDA JUMP JUMPDEST PUSH2 0x1EFC PUSH1 0x20 DUP4 ADD DUP13 PUSH2 0x1C10 JUMP JUMPDEST PUSH2 0x1F09 PUSH1 0x40 DUP4 ADD DUP12 PUSH2 0x1CF8 JUMP JUMPDEST PUSH2 0x1F16 PUSH1 0x60 DUP4 ADD DUP11 PUSH2 0x1D16 JUMP JUMPDEST PUSH2 0x1F23 PUSH1 0x80 DUP4 ADD DUP10 PUSH2 0x1C2E JUMP JUMPDEST DUP2 DUP2 SUB PUSH1 0xA0 DUP4 ADD MSTORE PUSH2 0x1F35 DUP2 DUP9 PUSH2 0x1C4C JUMP JUMPDEST SWAP1 POP PUSH2 0x1F44 PUSH1 0xC0 DUP4 ADD DUP8 PUSH2 0x1CDA JUMP JUMPDEST PUSH2 0x1F51 PUSH1 0xE0 DUP4 ADD DUP7 PUSH2 0x1CDA JUMP JUMPDEST PUSH2 0x1F5F PUSH2 0x100 DUP4 ADD DUP6 PUSH2 0x1D16 JUMP JUMPDEST PUSH2 0x1F6D PUSH2 0x120 DUP4 ADD DUP5 PUSH2 0x1CF8 JUMP JUMPDEST SWAP12 SWAP11 POP POP POP POP POP POP POP POP POP POP POP JUMP JUMPDEST PUSH1 0x0 PUSH1 0x40 DUP3 ADD SWAP1 POP PUSH2 0x1F91 PUSH1 0x0 DUP4 ADD DUP6 PUSH2 0x1CF8 JUMP JUMPDEST DUP2 DUP2 SUB PUSH1 0x20 DUP4 ADD MSTORE PUSH2 0x1FA3 DUP2 DUP5 PUSH2 0x1C4C JUMP JUMPDEST SWAP1 POP SWAP4 SWAP3 POP POP POP JUMP JUMPDEST PUSH1 0x0 PUSH2 0x1FB6 PUSH2 0x1FC7 JUMP JUMPDEST SWAP1 POP PUSH2 0x1FC2 DUP3 DUP3 PUSH2 0x2173 JUMP JUMPDEST SWAP2 SWAP1 POP JUMP JUMPDEST PUSH1 0x0 PUSH1 0x40 MLOAD SWAP1 POP SWAP1 JUMP JUMPDEST PUSH1 0x0 PUSH8 0xFFFFFFFFFFFFFFFF DUP3 GT ISZERO PUSH2 0x1FEC JUMPI PUSH2 0x1FEB PUSH2 0x227A JUMP JUMPDEST JUMPDEST PUSH2 0x1FF5 DUP3 PUSH2 0x22BD JUMP JUMPDEST SWAP1 POP PUSH1 0x20 DUP2 ADD SWAP1 POP SWAP2 SWAP1 POP JUMP JUMPDEST PUSH1 0x0 DUP2 MLOAD SWAP1 POP SWAP2 SWAP1 POP JUMP JUMPDEST PUSH1 0x0 DUP3 DUP3 MSTORE PUSH1 0x20 DUP3 ADD SWAP1 POP SWAP3 SWAP2 POP POP JUMP JUMPDEST PUSH1 0x0 PUSH2 0x2029 DUP3 PUSH2 0x2070 JUMP JUMPDEST SWAP1 POP SWAP2 SWAP1 POP JUMP JUMPDEST PUSH1 0x0 DUP2 ISZERO ISZERO SWAP1 POP SWAP2 SWAP1 POP JUMP JUMPDEST PUSH1 0x0 DUP2 SWAP1 POP PUSH2 0x204A DUP3 PUSH2 0x2320 JUMP JUMPDEST SWAP2 SWAP1 POP JUMP JUMPDEST PUSH1 0x0 DUP2 SWAP1 POP PUSH2 0x205D DUP3 PUSH2 0x2334 JUMP JUMPDEST SWAP2 SWAP1 POP JUMP JUMPDEST PUSH1 0x0 PUSH2 0xFFFF DUP3 AND SWAP1 POP SWAP2 SWAP1 POP JUMP JUMPDEST PUSH1 0x0 PUSH20 0xFFFFFFFFFFFFFFFFFFFFFFFFFFFFFFFFFFFFFFFF DUP3 AND SWAP1 POP SWAP2 SWAP1 POP JUMP JUMPDEST PUSH1 0x0 DUP2 SWAP1 POP SWAP2 SWAP1 POP JUMP JUMPDEST PUSH1 0x0 PUSH4 0xFFFFFFFF DUP3 AND SWAP1 POP SWAP2 SWAP1 POP JUMP JUMPDEST PUSH1 0x0 PUSH1 0xFF DUP3 AND SWAP1 POP SWAP2 SWAP1 POP JUMP JUMPDEST PUSH1 0x0 PUSH2 0x20C2 DUP3 PUSH2 0x203C JUMP JUMPDEST SWAP1 POP SWAP2 SWAP1 POP JUMP JUMPDEST PUSH1 0x0 PUSH2 0x20D4 DUP3 PUSH2 0x204F JUMP JUMPDEST SWAP1 POP SWAP2 SWAP1 POP JUMP JUMPDEST PUSH1 0x0 PUSH2 0x20E6 DUP3 PUSH2 0x209A JUMP JUMPDEST SWAP1 POP SWAP2 SWAP1 POP JUMP JUMPDEST PUSH1 0x0 PUSH2 0x20F8 DUP3 PUSH2 0x20AA JUMP JUMPDEST SWAP1 POP SWAP2 SWAP1 POP JUMP JUMPDEST DUP3 DUP2 DUP4 CALLDATACOPY PUSH1 0x0 DUP4 DUP4 ADD MSTORE POP POP POP JUMP JUMPDEST PUSH1 0x0 JUMPDEST DUP4 DUP2 LT ISZERO PUSH2 0x212C JUMPI DUP1 DUP3 ADD MLOAD DUP2 DUP5 ADD MSTORE PUSH1 0x20 DUP2 ADD SWAP1 POP PUSH2 0x2111 JUMP JUMPDEST DUP4 DUP2 GT ISZERO PUSH2 0x213B JUMPI PUSH1 0x0 DUP5 DUP5 ADD MSTORE JUMPDEST POP POP POP POP JUMP JUMPDEST PUSH1 0x0 PUSH1 0x2 DUP3 DIV SWAP1 POP PUSH1 0x1 DUP3 AND DUP1 PUSH2 0x2159 JUMPI PUSH1 0x7F DUP3 AND SWAP2 POP JUMPDEST PUSH1 0x20 DUP3 LT DUP2 EQ ISZERO PUSH2 0x216D JUMPI PUSH2 0x216C PUSH2 0x224B JUMP JUMPDEST JUMPDEST POP SWAP2 SWAP1 POP JUMP JUMPDEST PUSH2 0x217C DUP3 PUSH2 0x22BD JUMP JUMPDEST DUP2 ADD DUP2 DUP2 LT PUSH8 0xFFFFFFFFFFFFFFFF DUP3 GT OR ISZERO PUSH2 0x219B JUMPI PUSH2 0x219A PUSH2 0x227A JUMP JUMPDEST JUMPDEST DUP1 PUSH1 0x40 MSTORE POP POP POP JUMP JUMPDEST PUSH1 0x0 PUSH2 0x21AF DUP3 PUSH2 0x2090 JUMP JUMPDEST SWAP2 POP PUSH32 0xFFFFFFFFFFFFFFFFFFFFFFFFFFFFFFFFFFFFFFFFFFFFFFFFFFFFFFFFFFFFFFFF DUP3 EQ ISZERO PUSH2 0x21E2 JUMPI PUSH2 0x21E1 PUSH2 0x21ED JUMP JUMPDEST JUMPDEST PUSH1 0x1 DUP3 ADD SWAP1 POP SWAP2 SWAP1 POP JUMP JUMPDEST PUSH32 0x4E487B7100000000000000000000000000000000000000000000000000000000 PUSH1 0x0 MSTORE PUSH1 0x11 PUSH1 0x4 MSTORE PUSH1 0x24 PUSH1 0x0 REVERT JUMPDEST PUSH32 0x4E487B7100000000000000000000000000000000000000000000000000000000 PUSH1 0x0 MSTORE PUSH1 0x21 PUSH1 0x4 MSTORE PUSH1 0x24 PUSH1 0x0 REVERT JUMPDEST PUSH32 0x4E487B7100000000000000000000000000000000000000000000000000000000 PUSH1 0x0 MSTORE PUSH1 0x22 PUSH1 0x4 MSTORE PUSH1 0x24 PUSH1 0x0 REVERT JUMPDEST PUSH32 0x4E487B7100000000000000000000000000000000000000000000000000000000 PUSH1 0x0 MSTORE PUSH1 0x41 PUSH1 0x4 MSTORE PUSH1 0x24 PUSH1 0x0 REVERT JUMPDEST PUSH1 0x0 DUP1 REVERT JUMPDEST PUSH1 0x0 DUP1 REVERT JUMPDEST PUSH1 0x0 DUP1 REVERT JUMPDEST PUSH1 0x0 DUP1 REVERT JUMPDEST PUSH1 0x0 PUSH1 0x1F NOT PUSH1 0x1F DUP4 ADD AND SWAP1 POP SWAP2 SWAP1 POP JUMP JUMPDEST PUSH32 0x53747564656E74206E6F74206578697374730000000000000000000000000000 PUSH1 0x0 DUP3 ADD MSTORE POP JUMP JUMPDEST PUSH32 0x42752069736C656D6920736164656365204B757273207961706162696C69722E PUSH1 0x0 DUP3 ADD MSTORE POP JUMP JUMPDEST PUSH1 0x3 DUP2 LT PUSH2 0x2331 JUMPI PUSH2 0x2330 PUSH2 0x221C JUMP JUMPDEST JUMPDEST POP JUMP JUMPDEST PUSH1 0x4 DUP2 LT PUSH2 0x2345 JUMPI PUSH2 0x2344 PUSH2 0x221C JUMP JUMPDEST JUMPDEST POP JUMP JUMPDEST PUSH2 0x2351 DUP2 PUSH2 0x201E JUMP JUMPDEST DUP2 EQ PUSH2 0x235C JUMPI PUSH1 0x0 DUP1 REVERT JUMPDEST POP JUMP JUMPDEST PUSH1 0x3 DUP2 LT PUSH2 0x236C JUMPI PUSH1 0x0 DUP1 REVERT JUMPDEST POP JUMP JUMPDEST PUSH2 0x2378 DUP2 PUSH2 0x2090 JUMP JUMPDEST DUP2 EQ PUSH2 0x2383 JUMPI PUSH1 0x0 DUP1 REVERT JUMPDEST POP JUMP JUMPDEST PUSH2 0x238F DUP2 PUSH2 0x209A JUMP JUMPDEST DUP2 EQ PUSH2 0x239A JUMPI PUSH1 0x0 DUP1 REVERT JUMPDEST POP JUMP JUMPDEST PUSH2 0x23A6 DUP2 PUSH2 0x20AA JUMP JUMPDEST DUP2 EQ PUSH2 0x23B1 JUMPI PUSH1 0x0 DUP1 REVERT JUMPDEST POP JUMP INVALID LOG2 PUSH5 0x6970667358 0x22 SLT KECCAK256 0x4F CHAINID STOP KECCAK256 PUSH14 0xB3DB5E799380B9CA3FF6B3920B39 PUSH16 0x157CACF2007C5F9B01F8A78264736F6C PUSH4 0x43000807 STOP CALLER "
		},
		"gasEstimates": {
			"creation": {
				"codeDepositCost": "1838800",
				"executionCost": "1941",
				"totalCost": "1840741"
			},
			"external": {
				"akademisyenler(address)": "infinite",
				"calismaBilgileri(address,uint256)": "infinite",
				"diller(uint32)": "infinite",
				"ekleCalismaBilgi(address,address,uint32,uint8,uint8,string,uint256,uint256,uint8,uint32)": "infinite",
				"firmalar(address)": "infinite",
				"guncelleCalismaBilgi(address,uint256,address,uint32,uint8,uint8,string,uint256,uint256,uint8,uint32)": "infinite",
				"id()": "2451",
				"kamuKurumlari(address)": "infinite",
				"kisiler(address)": "2958",
				"kurslar(address)": "infinite",
				"sertifikaMerkezleri(address)": "infinite",
				"stklar(address)": "infinite",
				"universiteler(address)": "infinite"
			}
		},
		"methodIdentifiers": {
			"akademisyenler(address)": "ba479b7e",
			"calismaBilgileri(address,uint256)": "0fb0b1b2",
			"diller(uint32)": "a4e7ae05",
			"ekleCalismaBilgi(address,address,uint32,uint8,uint8,string,uint256,uint256,uint8,uint32)": "b34b5539",
			"firmalar(address)": "39987f94",
			"guncelleCalismaBilgi(address,uint256,address,uint32,uint8,uint8,string,uint256,uint256,uint8,uint32)": "7b6524fe",
			"id()": "af640d0f",
			"kamuKurumlari(address)": "7d0fa287",
			"kisiler(address)": "cbc92809",
			"kurslar(address)": "1916e139",
			"sertifikaMerkezleri(address)": "356b1f1e",
			"stklar(address)": "9a8c9119",
			"universiteler(address)": "28266697"
		}
	},
	"abi": [
		{
			"anonymous": false,
			"inputs": [
				{
					"indexed": false,
					"internalType": "address",
					"name": "_kisiAdres",
					"type": "address"
				},
				{
					"indexed": false,
					"internalType": "address",
					"name": "_kurumAdres",
					"type": "address"
				},
				{
					"indexed": false,
					"internalType": "uint256",
					"name": "_pozisyon",
					"type": "uint256"
				},
				{
					"indexed": false,
					"internalType": "uint256",
					"name": "_sektor",
					"type": "uint256"
				}
			],
			"name": "CalismaBilgiEklendiLog",
			"type": "event"
		},
		{
			"anonymous": false,
			"inputs": [
				{
					"indexed": false,
					"internalType": "address",
					"name": "_kisiAdres",
					"type": "address"
				},
				{
					"indexed": false,
					"internalType": "address",
					"name": "_kurumAdres",
					"type": "address"
				},
				{
					"indexed": false,
					"internalType": "uint256",
					"name": "_pozisyon",
					"type": "uint256"
				},
				{
					"indexed": false,
					"internalType": "uint256",
					"name": "_sektor",
					"type": "uint256"
				}
			],
			"name": "CalismaBilgiGuncellendiLog",
			"type": "event"
		},
		{
			"inputs": [
				{
					"internalType": "address",
					"name": "",
					"type": "address"
				}
			],
			"name": "akademisyenler",
			"outputs": [
				{
					"internalType": "bool",
					"name": "durum",
					"type": "bool"
				},
				{
					"internalType": "address",
					"name": "universite",
					"type": "address"
				},
				{
					"internalType": "uint16",
					"name": "bolum",
					"type": "uint16"
				},
				{
					"internalType": "enum BaseContract.Unvan",
					"name": "unvan",
					"type": "uint8"
				},
				{
					"internalType": "string",
					"name": "ad",
					"type": "string"
				},
				{
					"internalType": "string",
					"name": "soyad",
					"type": "string"
				}
			],
			"stateMutability": "view",
			"type": "function"
		},
		{
			"inputs": [
				{
					"internalType": "address",
					"name": "",
					"type": "address"
				},
				{
					"internalType": "uint256",
					"name": "",
					"type": "uint256"
				}
			],
			"name": "calismaBilgileri",
			"outputs": [
				{
					"internalType": "uint256",
					"name": "id",
					"type": "uint256"
				},
				{
					"internalType": "address",
					"name": "kurumAdres",
					"type": "address"
				},
				{
					"internalType": "uint32",
					"name": "pozisyon",
					"type": "uint32"
				},
				{
					"internalType": "uint8",
					"name": "sektor",
					"type": "uint8"
				},
				{
					"internalType": "enum CalismaBilgileri.CalismaTipi",
					"name": "calismaTipi",
					"type": "uint8"
				},
				{
					"internalType": "string",
					"name": "isAciklama",
					"type": "string"
				},
				{
					"internalType": "uint256",
					"name": "basTarih",
					"type": "uint256"
				},
				{
					"internalType": "uint256",
					"name": "bitTarih",
					"type": "uint256"
				},
				{
					"internalType": "uint8",
					"name": "ulke",
					"type": "uint8"
				},
				{
					"internalType": "uint32",
					"name": "sehir",
					"type": "uint32"
				}
			],
			"stateMutability": "view",
			"type": "function"
		},
		{
			"inputs": [
				{
					"internalType": "uint32",
					"name": "",
					"type": "uint32"
				}
			],
			"name": "diller",
			"outputs": [
				{
					"internalType": "uint32",
					"name": "id",
					"type": "uint32"
				},
				{
					"internalType": "string",
					"name": "isim",
					"type": "string"
				}
			],
			"stateMutability": "view",
			"type": "function"
		},
		{
			"inputs": [
				{
					"internalType": "address",
					"name": "_kisiAddress",
					"type": "address"
				},
				{
					"internalType": "address",
					"name": "kurumAdres",
					"type": "address"
				},
				{
					"internalType": "uint32",
					"name": "pozisyon",
					"type": "uint32"
				},
				{
					"internalType": "uint8",
					"name": "sektor",
					"type": "uint8"
				},
				{
					"internalType": "enum CalismaBilgileri.CalismaTipi",
					"name": "calismaTipi",
					"type": "uint8"
				},
				{
					"internalType": "string",
					"name": "isAciklama",
					"type": "string"
				},
				{
					"internalType": "uint256",
					"name": "basTarih",
					"type": "uint256"
				},
				{
					"internalType": "uint256",
					"name": "bitTarih",
					"type": "uint256"
				},
				{
					"internalType": "uint8",
					"name": "ulke",
					"type": "uint8"
				},
				{
					"internalType": "uint32",
					"name": "sehir",
					"type": "uint32"
				}
			],
			"name": "ekleCalismaBilgi",
			"outputs": [],
			"stateMutability": "nonpayable",
			"type": "function"
		},
		{
			"inputs": [
				{
					"internalType": "address",
					"name": "",
					"type": "address"
				}
			],
			"name": "firmalar",
			"outputs": [
				{
					"internalType": "bool",
					"name": "durum",
					"type": "bool"
				},
				{
					"internalType": "uint8",
					"name": "ulke",
					"type": "uint8"
				},
				{
					"internalType": "uint256",
					"name": "vergiNo",
					"type": "uint256"
				},
				{
					"internalType": "string",
					"name": "isim",
					"type": "string"
				}
			],
			"stateMutability": "view",
			"type": "function"
		},
		{
			"inputs": [
				{
					"internalType": "address",
					"name": "_kisiAddress",
					"type": "address"
				},
				{
					"internalType": "uint256",
					"name": "_calismaBilgiId",
					"type": "uint256"
				},
				{
					"internalType": "address",
					"name": "kurumAdres",
					"type": "address"
				},
				{
					"internalType": "uint32",
					"name": "pozisyon",
					"type": "uint32"
				},
				{
					"internalType": "uint8",
					"name": "sektor",
					"type": "uint8"
				},
				{
					"internalType": "enum CalismaBilgileri.CalismaTipi",
					"name": "calismaTipi",
					"type": "uint8"
				},
				{
					"internalType": "string",
					"name": "isAciklama",
					"type": "string"
				},
				{
					"internalType": "uint256",
					"name": "basTarih",
					"type": "uint256"
				},
				{
					"internalType": "uint256",
					"name": "bitTarih",
					"type": "uint256"
				},
				{
					"internalType": "uint8",
					"name": "ulke",
					"type": "uint8"
				},
				{
					"internalType": "uint32",
					"name": "sehir",
					"type": "uint32"
				}
			],
			"name": "guncelleCalismaBilgi",
			"outputs": [
				{
					"internalType": "uint256",
					"name": "",
					"type": "uint256"
				}
			],
			"stateMutability": "nonpayable",
			"type": "function"
		},
		{
			"inputs": [],
			"name": "id",
			"outputs": [
				{
					"internalType": "uint256",
					"name": "",
					"type": "uint256"
				}
			],
			"stateMutability": "view",
			"type": "function"
		},
		{
			"inputs": [
				{
					"internalType": "address",
					"name": "",
					"type": "address"
				}
			],
			"name": "kamuKurumlari",
			"outputs": [
				{
					"internalType": "bool",
					"name": "durum",
					"type": "bool"
				},
				{
					"internalType": "string",
					"name": "isim",
					"type": "string"
				},
				{
					"internalType": "uint8",
					"name": "ulke",
					"type": "uint8"
				}
			],
			"stateMutability": "view",
			"type": "function"
		},
		{
			"inputs": [
				{
					"internalType": "address",
					"name": "",
					"type": "address"
				}
			],
			"name": "kisiler",
			"outputs": [
				{
					"internalType": "bool",
					"name": "durum",
					"type": "bool"
				}
			],
			"stateMutability": "view",
			"type": "function"
		},
		{
			"inputs": [
				{
					"internalType": "address",
					"name": "",
					"type": "address"
				}
			],
			"name": "kurslar",
			"outputs": [
				{
					"internalType": "bool",
					"name": "durum",
					"type": "bool"
				},
				{
					"internalType": "string",
					"name": "isim",
					"type": "string"
				},
				{
					"internalType": "uint8",
					"name": "ulke",
					"type": "uint8"
				}
			],
			"stateMutability": "view",
			"type": "function"
		},
		{
			"inputs": [
				{
					"internalType": "address",
					"name": "",
					"type": "address"
				}
			],
			"name": "sertifikaMerkezleri",
			"outputs": [
				{
					"internalType": "bool",
					"name": "durum",
					"type": "bool"
				},
				{
					"internalType": "string",
					"name": "isim",
					"type": "string"
				},
				{
					"internalType": "uint8",
					"name": "ulke",
					"type": "uint8"
				}
			],
			"stateMutability": "view",
			"type": "function"
		},
		{
			"inputs": [
				{
					"internalType": "address",
					"name": "",
					"type": "address"
				}
			],
			"name": "stklar",
			"outputs": [
				{
					"internalType": "bool",
					"name": "durum",
					"type": "bool"
				},
				{
					"internalType": "string",
					"name": "isim",
					"type": "string"
				},
				{
					"internalType": "uint8",
					"name": "ulke",
					"type": "uint8"
				}
			],
			"stateMutability": "view",
			"type": "function"
		},
		{
			"inputs": [
				{
					"internalType": "address",
					"name": "",
					"type": "address"
				}
			],
			"name": "universiteler",
			"outputs": [
				{
					"internalType": "bool",
					"name": "durum",
					"type": "bool"
				},
				{
					"internalType": "string",
					"name": "isim",
					"type": "string"
				},
				{
					"internalType": "uint8",
					"name": "ulke",
					"type": "uint8"
				}
			],
			"stateMutability": "view",
			"type": "function"
		}
	]
}