{
	"data": {
		"bytecode": {
			"linkReferences": {},
			"object": "60806040523480156200001157600080fd5b50604051620040d1380380620040d1833981810160405281019062000037919062000096565b80600c60006101000a81548173ffffffffffffffffffffffffffffffffffffffff021916908373ffffffffffffffffffffffffffffffffffffffff160217905550506200011b565b600081519050620000908162000101565b92915050565b600060208284031215620000af57620000ae620000fc565b5b6000620000bf848285016200007f565b91505092915050565b6000620000d582620000dc565b9050919050565b600073ffffffffffffffffffffffffffffffffffffffff82169050919050565b600080fd5b6200010c81620000c8565b81146200011857600080fd5b50565b613fa6806200012b6000396000f3fe608060405234801561001057600080fd5b506004361061021b5760003560e01c80638c84888511610125578063ba479b7e116100ad578063e24047ca1161007c578063e24047ca14610739578063e513050814610769578063f0040eb914610799578063f54acc65146107c9578063f63c649f146107e55761021b565b8063ba479b7e14610688578063cbc92809146106bd578063d25aab85146106ed578063d7396414146107095761021b565b8063ac42f257116100f4578063ac42f257146105b2578063af640d0f146105e2578063b2f17ea314610600578063b7fd0c021461063a578063b98ccefd146106585761021b565b80638c848885146105035780639a8c9119146105335780639dc3011414610565578063a4e7ae05146105815761021b565b8063356b1f1e116101a8578063514e03c711610177578063514e03c71461042357806357152cbe1461045357806371af892d14610483578063722460c6146104a15780637d0fa287146104d15761021b565b8063356b1f1e1461038657806336fd2633146103b857806339987f94146103d457806346224853146104075761021b565b8063139884ec116101ef578063139884ec146102a657806319023bf3146102d65780631916e139146102f257806328266697146103245780632d087d70146103565761021b565b80621d54ab14610220578063024eb6bc1461023c57806303c3abc41461026c5780631145e6b31461028a575b600080fd5b61023a60048036038101906102359190612f7a565b610801565b005b61025660048036038101906102519190612e77565b61095c565b604051610263919061361c565b60405180910390f35b6102746109b5565b6040516102819190613548565b60405180910390f35b6102a4600480360381019061029f91906131dc565b6109de565b005b6102c060048036038101906102bb9190612e77565b610f91565b6040516102cd919061361c565b60405180910390f35b6102f060048036038101906102eb9190612f7a565b610feb565b005b61030c60048036038101906103079190612e77565b611146565b60405161031b939291906136a6565b60405180910390f35b61033e60048036038101906103399190612e77565b611212565b60405161034d939291906136a6565b60405180910390f35b610370600480360381019061036b9190612e77565b6112de565b60405161037d919061361c565b60405180910390f35b6103a0600480360381019061039b9190612e77565b611337565b6040516103af939291906136a6565b60405180910390f35b6103d260048036038101906103cd9190612ea4565b611403565b005b6103ee60048036038101906103e99190612e77565b6114ca565b6040516103fe94939291906136e4565b60405180910390f35b610421600480360381019061041c9190612f7a565b61159c565b005b61043d60048036038101906104389190612e77565b6116f7565b60405161044a919061361c565b60405180910390f35b61046d60048036038101906104689190613083565b611750565b60405161047a91906138b0565b60405180910390f35b61048b611d3e565b6040516104989190613548565b60405180910390f35b6104bb60048036038101906104b69190613043565b611d62565b6040516104c8919061361c565b60405180910390f35b6104eb60048036038101906104e69190612e77565b611d9a565b6040516104fa939291906136a6565b60405180910390f35b61051d60048036038101906105189190612e77565b611e66565b60405161052a919061361c565b60405180910390f35b61054d60048036038101906105489190612e77565b611ebf565b60405161055c939291906136a6565b60405180910390f35b61057f600480360381019061057a9190612f7a565b611f8b565b005b61059b600480360381019061059691906131af565b6120e6565b6040516105a9929190613939565b60405180910390f35b6105cc60048036038101906105c79190613016565b6121a2565b6040516105d991906138b0565b60405180910390f35b6105ea6123db565b6040516105f791906138b0565b60405180910390f35b61061a60048036038101906106159190613016565b6123e1565b6040516106319b9a99989796959493929190613563565b60405180910390f35b6106426125bf565b60405161064f91906138b0565b60405180910390f35b610672600480360381019061066d9190612e77565b6125c5565b60405161067f919061361c565b60405180910390f35b6106a2600480360381019061069d9190612e77565b61261e565b6040516106b496959493929190613637565b60405180910390f35b6106d760048036038101906106d29190612e77565b6127b2565b6040516106e4919061361c565b60405180910390f35b61070760048036038101906107029190612ef7565b6127dd565b005b610723600480360381019061071e9190612e77565b612980565b604051610730919061361c565b60405180910390f35b610753600480360381019061074e9190612e77565b6129d8565b604051610760919061361c565b60405180910390f35b610783600480360381019061077e9190612e77565b612a31565b604051610790919061361c565b60405180910390f35b6107b360048036038101906107ae9190612e77565b612a8b565b6040516107c0919061361c565b60405180910390f35b6107e360048036038101906107de9190612e77565b612ae4565b005b6107ff60048036038101906107fa9190612f7a565b612b8b565b005b61080a83612a8b565b1561084a576040517f08c379a000000000000000000000000000000000000000000000000000000000815260040161084190613810565b60405180910390fd5b6001600460008573ffffffffffffffffffffffffffffffffffffffff1673ffffffffffffffffffffffffffffffffffffffff16815260200190815260200160002060000160006101000a81548160ff02191690831515021790555081600460008573ffffffffffffffffffffffffffffffffffffffff1673ffffffffffffffffffffffffffffffffffffffff16815260200190815260200160002060010190805190602001906108fb929190612ce6565b5080600460008573ffffffffffffffffffffffffffffffffffffffff1673ffffffffffffffffffffffffffffffffffffffff16815260200190815260200160002060020160006101000a81548160ff021916908360ff160217905550505050565b6000600760008373ffffffffffffffffffffffffffffffffffffffff1673ffffffffffffffffffffffffffffffffffffffff16815260200190815260200160002060000160009054906101000a900460ff169050919050565b60008060009054906101000a900473ffffffffffffffffffffffffffffffffffffffff16905090565b600c60009054906101000a900473ffffffffffffffffffffffffffffffffffffffff1673ffffffffffffffffffffffffffffffffffffffff1663514e03c7336040518263ffffffff1660e01b8152600401610a399190613548565b60206040518083038186803b158015610a5157600080fd5b505afa158015610a65573d6000803e3d6000fd5b505050506040513d601f19601f82011682018060405250810190610a899190612fe9565b80610b3b5750600c60009054906101000a900473ffffffffffffffffffffffffffffffffffffffff1673ffffffffffffffffffffffffffffffffffffffff16632d087d70336040518263ffffffff1660e01b8152600401610aea9190613548565b60206040518083038186803b158015610b0257600080fd5b505afa158015610b16573d6000803e3d6000fd5b505050506040513d601f19601f82011682018060405250810190610b3a9190612fe9565b5b610b7a576040517f08c379a0000000000000000000000000000000000000000000000000000000008152600401610b71906137b0565b60405180910390fd5b600c60009054906101000a900473ffffffffffffffffffffffffffffffffffffffff1673ffffffffffffffffffffffffffffffffffffffff1663514e03c7336040518263ffffffff1660e01b8152600401610bd59190613548565b60206040518083038186803b158015610bed57600080fd5b505afa158015610c01573d6000803e3d6000fd5b505050506040513d601f19601f82011682018060405250810190610c259190612fe9565b80610cd75750600c60009054906101000a900473ffffffffffffffffffffffffffffffffffffffff1673ffffffffffffffffffffffffffffffffffffffff16632d087d70336040518263ffffffff1660e01b8152600401610c869190613548565b60206040518083038186803b158015610c9e57600080fd5b505afa158015610cb2573d6000803e3d6000fd5b505050506040513d601f19601f82011682018060405250810190610cd69190612fe9565b5b610d16576040517f08c379a0000000000000000000000000000000000000000000000000000000008152600401610d0d90613850565b60405180910390fd5b6000600d6000815480929190610d2b90613b3d565b91905055905033600f600083815260200190815260200160002060000160006101000a81548173ffffffffffffffffffffffffffffffffffffffff021916908373ffffffffffffffffffffffffffffffffffffffff1602179055508a600f600083815260200190815260200160002060000160146101000a81548163ffffffff021916908363ffffffff16021790555089600f600083815260200190815260200160002060000160186101000a81548160ff021916908360ff16021790555088600f600083815260200190815260200160002060000160196101000a81548160ff02191690836002811115610e2357610e22613bb5565b5b021790555087600f60008381526020019081526020016000206001019080519060200190610e52929190612ce6565b5086600f60008381526020019081526020016000206002019080519060200190610e7d929190612ce6565b5085600f60008381526020019081526020016000206003018190555084600f60008381526020019081526020016000206004018190555081600f600083815260200190815260200160002060050160006101000a81548160ff021916908360ff16021790555083600f600083815260200190815260200160002060050160016101000a81548160ff021916908360ff16021790555082600f600083815260200190815260200160002060050160026101000a81548163ffffffff021916908363ffffffff1602179055507fe0e63d831510f0bf5d668c0ee1860c29ae4816f0d25d69b44d89e1a4a3448bc781338d8d604051610f7c94939291906138f4565b60405180910390a15050505050505050505050565b60008173ffffffffffffffffffffffffffffffffffffffff16600160009054906101000a900473ffffffffffffffffffffffffffffffffffffffff1673ffffffffffffffffffffffffffffffffffffffff16149050919050565b610ff483611e66565b15611034576040517f08c379a000000000000000000000000000000000000000000000000000000000815260040161102b906137f0565b60405180910390fd5b6001600960008573ffffffffffffffffffffffffffffffffffffffff1673ffffffffffffffffffffffffffffffffffffffff16815260200190815260200160002060000160006101000a81548160ff02191690831515021790555081600960008573ffffffffffffffffffffffffffffffffffffffff1673ffffffffffffffffffffffffffffffffffffffff16815260200190815260200160002060010190805190602001906110e5929190612ce6565b5080600960008573ffffffffffffffffffffffffffffffffffffffff1673ffffffffffffffffffffffffffffffffffffffff16815260200190815260200160002060020160006101000a81548160ff021916908360ff160217905550505050565b60076020528060005260406000206000915090508060000160009054906101000a900460ff169080600101805461117c90613ada565b80601f01602080910402602001604051908101604052809291908181526020018280546111a890613ada565b80156111f55780601f106111ca576101008083540402835291602001916111f5565b820191906000526020600020905b8154815290600101906020018083116111d857829003601f168201915b5050505050908060020160009054906101000a900460ff16905083565b60046020528060005260406000206000915090508060000160009054906101000a900460ff169080600101805461124890613ada565b80601f016020809104026020016040519081016040528092919081815260200182805461127490613ada565b80156112c15780601f10611296576101008083540402835291602001916112c1565b820191906000526020600020905b8154815290600101906020018083116112a457829003601f168201915b5050505050908060020160009054906101000a900460ff16905083565b6000600660008373ffffffffffffffffffffffffffffffffffffffff1673ffffffffffffffffffffffffffffffffffffffff16815260200190815260200160002060000160009054906101000a900460ff169050919050565b600a6020528060005260406000206000915090508060000160009054906101000a900460ff169080600101805461136d90613ada565b80601f016020809104026020016040519081016040528092919081815260200182805461139990613ada565b80156113e65780601f106113bb576101008083540402835291602001916113e6565b820191906000526020600020905b8154815290600101906020018083116113c957829003601f168201915b5050505050908060020160009054906101000a900460ff16905083565b826000806101000a81548173ffffffffffffffffffffffffffffffffffffffff021916908373ffffffffffffffffffffffffffffffffffffffff16021790555081600160006101000a81548173ffffffffffffffffffffffffffffffffffffffff021916908373ffffffffffffffffffffffffffffffffffffffff16021790555080600260006101000a81548173ffffffffffffffffffffffffffffffffffffffff021916908373ffffffffffffffffffffffffffffffffffffffff160217905550505050565b60066020528060005260406000206000915090508060000160009054906101000a900460ff16908060000160019054906101000a900460ff169080600101549080600201805461151990613ada565b80601f016020809104026020016040519081016040528092919081815260200182805461154590613ada565b80156115925780601f1061156757610100808354040283529160200191611592565b820191906000526020600020905b81548152906001019060200180831161157557829003601f168201915b5050505050905084565b6115a58361095c565b156115e5576040517f08c379a00000000000000000000000000000000000000000000000000000000081526004016115dc90613730565b60405180910390fd5b6001600760008573ffffffffffffffffffffffffffffffffffffffff1673ffffffffffffffffffffffffffffffffffffffff16815260200190815260200160002060000160006101000a81548160ff02191690831515021790555081600760008573ffffffffffffffffffffffffffffffffffffffff1673ffffffffffffffffffffffffffffffffffffffff1681526020019081526020016000206001019080519060200190611696929190612ce6565b5080600760008573ffffffffffffffffffffffffffffffffffffffff1673ffffffffffffffffffffffffffffffffffffffff16815260200190815260200160002060020160006101000a81548160ff021916908360ff160217905550505050565b6000600860008373ffffffffffffffffffffffffffffffffffffffff1673ffffffffffffffffffffffffffffffffffffffff16815260200190815260200160002060000160009054906101000a900460ff169050919050565b6000600c60009054906101000a900473ffffffffffffffffffffffffffffffffffffffff1673ffffffffffffffffffffffffffffffffffffffff1663514e03c7336040518263ffffffff1660e01b81526004016117ad9190613548565b60206040518083038186803b1580156117c557600080fd5b505afa1580156117d9573d6000803e3d6000fd5b505050506040513d601f19601f820116820180604052508101906117fd9190612fe9565b806118af5750600c60009054906101000a900473ffffffffffffffffffffffffffffffffffffffff1673ffffffffffffffffffffffffffffffffffffffff16632d087d70336040518263ffffffff1660e01b815260040161185e9190613548565b60206040518083038186803b15801561187657600080fd5b505afa15801561188a573d6000803e3d6000fd5b505050506040513d601f19601f820116820180604052508101906118ae9190612fe9565b5b6118ee576040517f08c379a00000000000000000000000000000000000000000000000000000000081526004016118e5906137b0565b60405180910390fd5b600c60009054906101000a900473ffffffffffffffffffffffffffffffffffffffff1673ffffffffffffffffffffffffffffffffffffffff1663514e03c7336040518263ffffffff1660e01b81526004016119499190613548565b60206040518083038186803b15801561196157600080fd5b505afa158015611975573d6000803e3d6000fd5b505050506040513d601f19601f820116820180604052508101906119999190612fe9565b80611a4b5750600c60009054906101000a900473ffffffffffffffffffffffffffffffffffffffff1673ffffffffffffffffffffffffffffffffffffffff16632d087d70336040518263ffffffff1660e01b81526004016119fa9190613548565b60206040518083038186803b158015611a1257600080fd5b505afa158015611a26573d6000803e3d6000fd5b505050506040513d601f19601f82011682018060405250810190611a4a9190612fe9565b5b611a8a576040517f08c379a0000000000000000000000000000000000000000000000000000000008152600401611a8190613850565b60405180910390fd5b3373ffffffffffffffffffffffffffffffffffffffff16600f60008e815260200190815260200160002060000160009054906101000a900473ffffffffffffffffffffffffffffffffffffffff1673ffffffffffffffffffffffffffffffffffffffff1614611b2e576040517f08c379a0000000000000000000000000000000000000000000000000000000008152600401611b25906137d0565b60405180910390fd5b8a600f60008e815260200190815260200160002060000160146101000a81548163ffffffff021916908363ffffffff16021790555089600f60008e815260200190815260200160002060000160186101000a81548160ff021916908360ff16021790555088600f60008e815260200190815260200160002060000160196101000a81548160ff02191690836002811115611bcb57611bca613bb5565b5b021790555087600f60008e81526020019081526020016000206001019080519060200190611bfa929190612ce6565b5086600f60008e81526020019081526020016000206002019080519060200190611c25929190612ce6565b5085600f60008e81526020019081526020016000206003018190555084600f60008e81526020019081526020016000206004018190555081600f60008e815260200190815260200160002060050160006101000a81548160ff021916908360ff16021790555083600f60008e815260200190815260200160002060050160016101000a81548160ff021916908360ff16021790555082600f60008e815260200190815260200160002060050160026101000a81548163ffffffff021916908363ffffffff1602179055507fec48a115d5383d58af17eec867438b24cab63cb72dc0f36ac4e64e90fdebea0f8c338d8d604051611d2494939291906138f4565b60405180910390a18b90509b9a5050505050505050505050565b60008054906101000a900473ffffffffffffffffffffffffffffffffffffffff1681565b6010602052816000526040600020602052806000526040600020600091509150508060000160009054906101000a900460ff16905081565b60086020528060005260406000206000915090508060000160009054906101000a900460ff1690806001018054611dd090613ada565b80601f0160208091040260200160405190810160405280929190818152602001828054611dfc90613ada565b8015611e495780601f10611e1e57610100808354040283529160200191611e49565b820191906000526020600020905b815481529060010190602001808311611e2c57829003601f168201915b5050505050908060020160009054906101000a900460ff16905083565b6000600960008373ffffffffffffffffffffffffffffffffffffffff1673ffffffffffffffffffffffffffffffffffffffff16815260200190815260200160002060000160009054906101000a900460ff169050919050565b60096020528060005260406000206000915090508060000160009054906101000a900460ff1690806001018054611ef590613ada565b80601f0160208091040260200160405190810160405280929190818152602001828054611f2190613ada565b8015611f6e5780601f10611f4357610100808354040283529160200191611f6e565b820191906000526020600020905b815481529060010190602001808311611f5157829003601f168201915b5050505050908060020160009054906101000a900460ff16905083565b611f94836129d8565b15611fd4576040517f08c379a0000000000000000000000000000000000000000000000000000000008152600401611fcb90613790565b60405180910390fd5b6001600a60008573ffffffffffffffffffffffffffffffffffffffff1673ffffffffffffffffffffffffffffffffffffffff16815260200190815260200160002060000160006101000a81548160ff02191690831515021790555081600a60008573ffffffffffffffffffffffffffffffffffffffff1673ffffffffffffffffffffffffffffffffffffffff1681526020019081526020016000206001019080519060200190612085929190612ce6565b5080600a60008573ffffffffffffffffffffffffffffffffffffffff1673ffffffffffffffffffffffffffffffffffffffff16815260200190815260200160002060020160006101000a81548160ff021916908360ff160217905550505050565b600b6020528060005260406000206000915090508060000160009054906101000a900463ffffffff169080600101805461211f90613ada565b80601f016020809104026020016040519081016040528092919081815260200182805461214b90613ada565b80156121985780601f1061216d57610100808354040283529160200191612198565b820191906000526020600020905b81548152906001019060200180831161217b57829003601f168201915b5050505050905082565b6000600c60009054906101000a900473ffffffffffffffffffffffffffffffffffffffff1673ffffffffffffffffffffffffffffffffffffffff1663b98ccefd336040518263ffffffff1660e01b81526004016121ff9190613548565b60206040518083038186803b15801561221757600080fd5b505afa15801561222b573d6000803e3d6000fd5b505050506040513d601f19601f8201168201806040525081019061224f9190612fe9565b61228e576040517f08c379a000000000000000000000000000000000000000000000000000000000815260040161228590613770565b60405180910390fd5b6010600083815260200190815260200160002060003373ffffffffffffffffffffffffffffffffffffffff1673ffffffffffffffffffffffffffffffffffffffff16815260200190815260200160002060000160009054906101000a900460ff1661232e576040517f08c379a000000000000000000000000000000000000000000000000000000000815260040161232590613870565b60405180910390fd5b60016010600084815260200190815260200160002060003373ffffffffffffffffffffffffffffffffffffffff1673ffffffffffffffffffffffffffffffffffffffff16815260200190815260200160002060000160006101000a81548160ff0219169083151502179055507f7e06965495dfdcad403b1a0d21a429740fbb5c2b86745e07940d39c109479f0082336040516123cb9291906138cb565b60405180910390a1819050919050565b600d5481565b600f6020528060005260406000206000915090508060000160009054906101000a900473ffffffffffffffffffffffffffffffffffffffff16908060000160149054906101000a900463ffffffff16908060000160189054906101000a900460ff16908060000160199054906101000a900460ff169080600101805461246690613ada565b80601f016020809104026020016040519081016040528092919081815260200182805461249290613ada565b80156124df5780601f106124b4576101008083540402835291602001916124df565b820191906000526020600020905b8154815290600101906020018083116124c257829003601f168201915b5050505050908060020180546124f490613ada565b80601f016020809104026020016040519081016040528092919081815260200182805461252090613ada565b801561256d5780601f106125425761010080835404028352916020019161256d565b820191906000526020600020905b81548152906001019060200180831161255057829003601f168201915b5050505050908060030154908060040154908060050160009054906101000a900460ff16908060050160019054906101000a900460ff16908060050160029054906101000a900463ffffffff1690508b565b600e5481565b6000600360008373ffffffffffffffffffffffffffffffffffffffff1673ffffffffffffffffffffffffffffffffffffffff16815260200190815260200160002060000160009054906101000a900460ff169050919050565b60056020528060005260406000206000915090508060000160009054906101000a900460ff16908060000160019054906101000a900473ffffffffffffffffffffffffffffffffffffffff16908060000160159054906101000a900461ffff16908060000160179054906101000a900460ff16908060010180546126a190613ada565b80601f01602080910402602001604051908101604052809291908181526020018280546126cd90613ada565b801561271a5780601f106126ef5761010080835404028352916020019161271a565b820191906000526020600020905b8154815290600101906020018083116126fd57829003601f168201915b50505050509080600201805461272f90613ada565b80601f016020809104026020016040519081016040528092919081815260200182805461275b90613ada565b80156127a85780601f1061277d576101008083540402835291602001916127a8565b820191906000526020600020905b81548152906001019060200180831161278b57829003601f168201915b5050505050905086565b60036020528060005260406000206000915090508060000160009054906101000a900460ff16905081565b6127e6846112de565b15612826576040517f08c379a000000000000000000000000000000000000000000000000000000000815260040161281d90613750565b60405180910390fd5b6001600660008673ffffffffffffffffffffffffffffffffffffffff1673ffffffffffffffffffffffffffffffffffffffff16815260200190815260200160002060000160006101000a81548160ff02191690831515021790555082600660008673ffffffffffffffffffffffffffffffffffffffff1673ffffffffffffffffffffffffffffffffffffffff16815260200190815260200160002060020190805190602001906128d7929190612ce6565b5080600660008673ffffffffffffffffffffffffffffffffffffffff1673ffffffffffffffffffffffffffffffffffffffff16815260200190815260200160002060000160016101000a81548160ff021916908360ff16021790555081600660008673ffffffffffffffffffffffffffffffffffffffff1673ffffffffffffffffffffffffffffffffffffffff1681526020019081526020016000206001018190555050505050565b60008173ffffffffffffffffffffffffffffffffffffffff1660008054906101000a900473ffffffffffffffffffffffffffffffffffffffff1673ffffffffffffffffffffffffffffffffffffffff16149050919050565b6000600a60008373ffffffffffffffffffffffffffffffffffffffff1673ffffffffffffffffffffffffffffffffffffffff16815260200190815260200160002060000160009054906101000a900460ff169050919050565b60008173ffffffffffffffffffffffffffffffffffffffff16600260009054906101000a900473ffffffffffffffffffffffffffffffffffffffff1673ffffffffffffffffffffffffffffffffffffffff16149050919050565b6000600460008373ffffffffffffffffffffffffffffffffffffffff1673ffffffffffffffffffffffffffffffffffffffff16815260200190815260200160002060000160009054906101000a900460ff169050919050565b612aed816125c5565b15612b2d576040517f08c379a0000000000000000000000000000000000000000000000000000000008152600401612b2490613830565b60405180910390fd5b6001600360008373ffffffffffffffffffffffffffffffffffffffff1673ffffffffffffffffffffffffffffffffffffffff16815260200190815260200160002060000160006101000a81548160ff02191690831515021790555050565b612b94836116f7565b15612bd4576040517f08c379a0000000000000000000000000000000000000000000000000000000008152600401612bcb90613890565b60405180910390fd5b6001600860008573ffffffffffffffffffffffffffffffffffffffff1673ffffffffffffffffffffffffffffffffffffffff16815260200190815260200160002060000160006101000a81548160ff02191690831515021790555081600860008573ffffffffffffffffffffffffffffffffffffffff1673ffffffffffffffffffffffffffffffffffffffff1681526020019081526020016000206001019080519060200190612c85929190612ce6565b5080600860008573ffffffffffffffffffffffffffffffffffffffff1673ffffffffffffffffffffffffffffffffffffffff16815260200190815260200160002060020160006101000a81548160ff021916908360ff160217905550505050565b828054612cf290613ada565b90600052602060002090601f016020900481019282612d145760008555612d5b565b82601f10612d2d57805160ff1916838001178555612d5b565b82800160010185558215612d5b579182015b82811115612d5a578251825591602001919060010190612d3f565b5b509050612d689190612d6c565b5090565b5b80821115612d85576000816000905550600101612d6d565b5090565b6000612d9c612d978461398e565b613969565b905082815260208101848484011115612db857612db7613c47565b5b612dc3848285613a98565b509392505050565b600081359050612dda81613eed565b92915050565b600081519050612def81613f04565b92915050565b600081359050612e0481613f1b565b92915050565b600082601f830112612e1f57612e1e613c42565b5b8135612e2f848260208601612d89565b91505092915050565b600081359050612e4781613f2b565b92915050565b600081359050612e5c81613f42565b92915050565b600081359050612e7181613f59565b92915050565b600060208284031215612e8d57612e8c613c51565b5b6000612e9b84828501612dcb565b91505092915050565b600080600060608486031215612ebd57612ebc613c51565b5b6000612ecb86828701612dcb565b9350506020612edc86828701612dcb565b9250506040612eed86828701612dcb565b9150509250925092565b60008060008060808587031215612f1157612f10613c51565b5b6000612f1f87828801612dcb565b945050602085013567ffffffffffffffff811115612f4057612f3f613c4c565b5b612f4c87828801612e0a565b9350506040612f5d87828801612e38565b9250506060612f6e87828801612e62565b91505092959194509250565b600080600060608486031215612f9357612f92613c51565b5b6000612fa186828701612dcb565b935050602084013567ffffffffffffffff811115612fc257612fc1613c4c565b5b612fce86828701612e0a565b9250506040612fdf86828701612e62565b9150509250925092565b600060208284031215612fff57612ffe613c51565b5b600061300d84828501612de0565b91505092915050565b60006020828403121561302c5761302b613c51565b5b600061303a84828501612e38565b91505092915050565b6000806040838503121561305a57613059613c51565b5b600061306885828601612e38565b925050602061307985828601612dcb565b9150509250929050565b60008060008060008060008060008060006101608c8e0312156130a9576130a8613c51565b5b60006130b78e828f01612e38565b9b505060206130c88e828f01612e4d565b9a505060406130d98e828f01612e62565b99505060606130ea8e828f01612df5565b98505060808c013567ffffffffffffffff81111561310b5761310a613c4c565b5b6131178e828f01612e0a565b97505060a08c013567ffffffffffffffff81111561313857613137613c4c565b5b6131448e828f01612e0a565b96505060c06131558e828f01612e38565b95505060e06131668e828f01612e38565b9450506101006131788e828f01612e62565b93505061012061318a8e828f01612e4d565b92505061014061319c8e828f01612e62565b9150509295989b509295989b9093969950565b6000602082840312156131c5576131c4613c51565b5b60006131d384828501612e4d565b91505092915050565b6000806000806000806000806000806101408b8d031215613200576131ff613c51565b5b600061320e8d828e01612e4d565b9a5050602061321f8d828e01612e62565b99505060406132308d828e01612df5565b98505060608b013567ffffffffffffffff81111561325157613250613c4c565b5b61325d8d828e01612e0a565b97505060808b013567ffffffffffffffff81111561327e5761327d613c4c565b5b61328a8d828e01612e0a565b96505060a061329b8d828e01612e38565b95505060c06132ac8d828e01612e38565b94505060e06132bd8d828e01612e62565b9350506101006132cf8d828e01612e4d565b9250506101206132e18d828e01612e62565b9150509295989b9194979a5092959850565b6132fc816139db565b82525050565b61330b816139ed565b82525050565b61331a81613a74565b82525050565b61332981613a86565b82525050565b600061333a826139bf565b61334481856139ca565b9350613354818560208601613aa7565b61335d81613c56565b840191505092915050565b60006133756019836139ca565b915061338082613c67565b602082019050919050565b60006133986012836139ca565b91506133a382613c90565b602082019050919050565b60006133bb6020836139ca565b91506133c682613cb9565b602082019050919050565b60006133de601e836139ca565b91506133e982613ce2565b602082019050919050565b6000613401602a836139ca565b915061340c82613d0b565b604082019050919050565b60006134246025836139ca565b915061342f82613d5a565b604082019050919050565b60006134476022836139ca565b915061345282613da9565b604082019050919050565b600061346a6017836139ca565b915061347582613df8565b602082019050919050565b600061348d6011836139ca565b915061349882613e21565b602082019050919050565b60006134b0601d836139ca565b91506134bb82613e4a565b602082019050919050565b60006134d36020836139ca565b91506134de82613e73565b602082019050919050565b60006134f66017836139ca565b915061350182613e9c565b602082019050919050565b61351581613a1f565b82525050565b61352481613a4d565b82525050565b61353381613a57565b82525050565b61354281613a67565b82525050565b600060208201905061355d60008301846132f3565b92915050565b600061016082019050613579600083018e6132f3565b613586602083018d61352a565b613593604083018c613539565b6135a0606083018b613311565b81810360808301526135b2818a61332f565b905081810360a08301526135c6818961332f565b90506135d560c083018861351b565b6135e260e083018761351b565b6135f0610100830186613539565b6135fe610120830185613539565b61360c61014083018461352a565b9c9b505050505050505050505050565b60006020820190506136316000830184613302565b92915050565b600060c08201905061364c6000830189613302565b61365960208301886132f3565b613666604083018761350c565b6136736060830186613320565b8181036080830152613685818561332f565b905081810360a0830152613699818461332f565b9050979650505050505050565b60006060820190506136bb6000830186613302565b81810360208301526136cd818561332f565b90506136dc6040830184613539565b949350505050565b60006080820190506136f96000830187613302565b6137066020830186613539565b613713604083018561351b565b8181036060830152613725818461332f565b905095945050505050565b6000602082019050818103600083015261374981613368565b9050919050565b600060208201905081810360008301526137698161338b565b9050919050565b60006020820190508181036000830152613789816133ae565b9050919050565b600060208201905081810360008301526137a9816133d1565b9050919050565b600060208201905081810360008301526137c9816133f4565b9050919050565b600060208201905081810360008301526137e981613417565b9050919050565b600060208201905081810360008301526138098161343a565b9050919050565b600060208201905081810360008301526138298161345d565b9050919050565b6000602082019050818103600083015261384981613480565b9050919050565b60006020820190508181036000830152613869816134a3565b9050919050565b60006020820190508181036000830152613889816134c6565b9050919050565b600060208201905081810360008301526138a9816134e9565b9050919050565b60006020820190506138c5600083018461351b565b92915050565b60006040820190506138e0600083018561351b565b6138ed60208301846132f3565b9392505050565b6000608082019050613909600083018761351b565b61391660208301866132f3565b613923604083018561352a565b6139306060830184613539565b95945050505050565b600060408201905061394e600083018561352a565b8181036020830152613960818461332f565b90509392505050565b6000613973613984565b905061397f8282613b0c565b919050565b6000604051905090565b600067ffffffffffffffff8211156139a9576139a8613c13565b5b6139b282613c56565b9050602081019050919050565b600081519050919050565b600082825260208201905092915050565b60006139e682613a2d565b9050919050565b60008115159050919050565b6000819050613a0782613ec5565b919050565b6000819050613a1a82613ed9565b919050565b600061ffff82169050919050565b600073ffffffffffffffffffffffffffffffffffffffff82169050919050565b6000819050919050565b600063ffffffff82169050919050565b600060ff82169050919050565b6000613a7f826139f9565b9050919050565b6000613a9182613a0c565b9050919050565b82818337600083830152505050565b60005b83811015613ac5578082015181840152602081019050613aaa565b83811115613ad4576000848401525b50505050565b60006002820490506001821680613af257607f821691505b60208210811415613b0657613b05613be4565b5b50919050565b613b1582613c56565b810181811067ffffffffffffffff82111715613b3457613b33613c13565b5b80604052505050565b6000613b4882613a4d565b91507fffffffffffffffffffffffffffffffffffffffffffffffffffffffffffffffff821415613b7b57613b7a613b86565b5b600182019050919050565b7f4e487b7100000000000000000000000000000000000000000000000000000000600052601160045260246000fd5b7f4e487b7100000000000000000000000000000000000000000000000000000000600052602160045260246000fd5b7f4e487b7100000000000000000000000000000000000000000000000000000000600052602260045260246000fd5b7f4e487b7100000000000000000000000000000000000000000000000000000000600052604160045260246000fd5b600080fd5b600080fd5b600080fd5b600080fd5b6000601f19601f8301169050919050565b7f4b757273204d65726b657a69205a6174656e204d657663757400000000000000600082015250565b7f4669726d61205a6174656e204d65766375740000000000000000000000000000600082015250565b7f42752069736c656d6920736164656365204b697369207961706162696c69722e600082015250565b7f536572746966696b61204d65726b657a69205a6174656e204d65766375740000600082015250565b7f536164656365207965746b696c69207061796461732062752069736c656d692060008201527f7961706162696c69722e00000000000000000000000000000000000000000000602082015250565b7f496c616e206163616e2067756e63656c6c656d652069736c656d69207961706160008201527f62696c6972000000000000000000000000000000000000000000000000000000602082015250565b7f536976696c20546f706c756d204b7572756c757375205a6174656e204d65766360008201527f7574000000000000000000000000000000000000000000000000000000000000602082015250565b7f556e6976657273697465205a6174656e204d6576637574000000000000000000600082015250565b7f4b697369205a6174656e204d6576637574000000000000000000000000000000600082015250565b7f496c616e206163616e206b7572756d206b617969746c6920646567696c000000600082015250565b7f41796e6920696c616e612064616861206f6e636520626173767572756c6d7573600082015250565b7f4b616d75204b75726d75205a6174656e204d6576637574000000000000000000600082015250565b60038110613ed657613ed5613bb5565b5b50565b60048110613eea57613ee9613bb5565b5b50565b613ef6816139db565b8114613f0157600080fd5b50565b613f0d816139ed565b8114613f1857600080fd5b50565b60038110613f2857600080fd5b50565b613f3481613a4d565b8114613f3f57600080fd5b50565b613f4b81613a57565b8114613f5657600080fd5b50565b613f6281613a67565b8114613f6d57600080fd5b5056fea2646970667358221220633814852873d183aa5041b3e589a5e04b05217c61f567b5b0b8ebc350a1fc8e64736f6c63430008070033",
			"opcodes": "PUSH1 0x80 PUSH1 0x40 MSTORE CALLVALUE DUP1 ISZERO PUSH3 0x11 JUMPI PUSH1 0x0 DUP1 REVERT JUMPDEST POP PUSH1 0x40 MLOAD PUSH3 0x40D1 CODESIZE SUB DUP1 PUSH3 0x40D1 DUP4 CODECOPY DUP2 DUP2 ADD PUSH1 0x40 MSTORE DUP2 ADD SWAP1 PUSH3 0x37 SWAP2 SWAP1 PUSH3 0x96 JUMP JUMPDEST DUP1 PUSH1 0xC PUSH1 0x0 PUSH2 0x100 EXP DUP2 SLOAD DUP2 PUSH20 0xFFFFFFFFFFFFFFFFFFFFFFFFFFFFFFFFFFFFFFFF MUL NOT AND SWAP1 DUP4 PUSH20 0xFFFFFFFFFFFFFFFFFFFFFFFFFFFFFFFFFFFFFFFF AND MUL OR SWAP1 SSTORE POP POP PUSH3 0x11B JUMP JUMPDEST PUSH1 0x0 DUP2 MLOAD SWAP1 POP PUSH3 0x90 DUP2 PUSH3 0x101 JUMP JUMPDEST SWAP3 SWAP2 POP POP JUMP JUMPDEST PUSH1 0x0 PUSH1 0x20 DUP3 DUP5 SUB SLT ISZERO PUSH3 0xAF JUMPI PUSH3 0xAE PUSH3 0xFC JUMP JUMPDEST JUMPDEST PUSH1 0x0 PUSH3 0xBF DUP5 DUP3 DUP6 ADD PUSH3 0x7F JUMP JUMPDEST SWAP2 POP POP SWAP3 SWAP2 POP POP JUMP JUMPDEST PUSH1 0x0 PUSH3 0xD5 DUP3 PUSH3 0xDC JUMP JUMPDEST SWAP1 POP SWAP2 SWAP1 POP JUMP JUMPDEST PUSH1 0x0 PUSH20 0xFFFFFFFFFFFFFFFFFFFFFFFFFFFFFFFFFFFFFFFF DUP3 AND SWAP1 POP SWAP2 SWAP1 POP JUMP JUMPDEST PUSH1 0x0 DUP1 REVERT JUMPDEST PUSH3 0x10C DUP2 PUSH3 0xC8 JUMP JUMPDEST DUP2 EQ PUSH3 0x118 JUMPI PUSH1 0x0 DUP1 REVERT JUMPDEST POP JUMP JUMPDEST PUSH2 0x3FA6 DUP1 PUSH3 0x12B PUSH1 0x0 CODECOPY PUSH1 0x0 RETURN INVALID PUSH1 0x80 PUSH1 0x40 MSTORE CALLVALUE DUP1 ISZERO PUSH2 0x10 JUMPI PUSH1 0x0 DUP1 REVERT JUMPDEST POP PUSH1 0x4 CALLDATASIZE LT PUSH2 0x21B JUMPI PUSH1 0x0 CALLDATALOAD PUSH1 0xE0 SHR DUP1 PUSH4 0x8C848885 GT PUSH2 0x125 JUMPI DUP1 PUSH4 0xBA479B7E GT PUSH2 0xAD JUMPI DUP1 PUSH4 0xE24047CA GT PUSH2 0x7C JUMPI DUP1 PUSH4 0xE24047CA EQ PUSH2 0x739 JUMPI DUP1 PUSH4 0xE5130508 EQ PUSH2 0x769 JUMPI DUP1 PUSH4 0xF0040EB9 EQ PUSH2 0x799 JUMPI DUP1 PUSH4 0xF54ACC65 EQ PUSH2 0x7C9 JUMPI DUP1 PUSH4 0xF63C649F EQ PUSH2 0x7E5 JUMPI PUSH2 0x21B JUMP JUMPDEST DUP1 PUSH4 0xBA479B7E EQ PUSH2 0x688 JUMPI DUP1 PUSH4 0xCBC92809 EQ PUSH2 0x6BD JUMPI DUP1 PUSH4 0xD25AAB85 EQ PUSH2 0x6ED JUMPI DUP1 PUSH4 0xD7396414 EQ PUSH2 0x709 JUMPI PUSH2 0x21B JUMP JUMPDEST DUP1 PUSH4 0xAC42F257 GT PUSH2 0xF4 JUMPI DUP1 PUSH4 0xAC42F257 EQ PUSH2 0x5B2 JUMPI DUP1 PUSH4 0xAF640D0F EQ PUSH2 0x5E2 JUMPI DUP1 PUSH4 0xB2F17EA3 EQ PUSH2 0x600 JUMPI DUP1 PUSH4 0xB7FD0C02 EQ PUSH2 0x63A JUMPI DUP1 PUSH4 0xB98CCEFD EQ PUSH2 0x658 JUMPI PUSH2 0x21B JUMP JUMPDEST DUP1 PUSH4 0x8C848885 EQ PUSH2 0x503 JUMPI DUP1 PUSH4 0x9A8C9119 EQ PUSH2 0x533 JUMPI DUP1 PUSH4 0x9DC30114 EQ PUSH2 0x565 JUMPI DUP1 PUSH4 0xA4E7AE05 EQ PUSH2 0x581 JUMPI PUSH2 0x21B JUMP JUMPDEST DUP1 PUSH4 0x356B1F1E GT PUSH2 0x1A8 JUMPI DUP1 PUSH4 0x514E03C7 GT PUSH2 0x177 JUMPI DUP1 PUSH4 0x514E03C7 EQ PUSH2 0x423 JUMPI DUP1 PUSH4 0x57152CBE EQ PUSH2 0x453 JUMPI DUP1 PUSH4 0x71AF892D EQ PUSH2 0x483 JUMPI DUP1 PUSH4 0x722460C6 EQ PUSH2 0x4A1 JUMPI DUP1 PUSH4 0x7D0FA287 EQ PUSH2 0x4D1 JUMPI PUSH2 0x21B JUMP JUMPDEST DUP1 PUSH4 0x356B1F1E EQ PUSH2 0x386 JUMPI DUP1 PUSH4 0x36FD2633 EQ PUSH2 0x3B8 JUMPI DUP1 PUSH4 0x39987F94 EQ PUSH2 0x3D4 JUMPI DUP1 PUSH4 0x46224853 EQ PUSH2 0x407 JUMPI PUSH2 0x21B JUMP JUMPDEST DUP1 PUSH4 0x139884EC GT PUSH2 0x1EF JUMPI DUP1 PUSH4 0x139884EC EQ PUSH2 0x2A6 JUMPI DUP1 PUSH4 0x19023BF3 EQ PUSH2 0x2D6 JUMPI DUP1 PUSH4 0x1916E139 EQ PUSH2 0x2F2 JUMPI DUP1 PUSH4 0x28266697 EQ PUSH2 0x324 JUMPI DUP1 PUSH4 0x2D087D70 EQ PUSH2 0x356 JUMPI PUSH2 0x21B JUMP JUMPDEST DUP1 PUSH3 0x1D54AB EQ PUSH2 0x220 JUMPI DUP1 PUSH4 0x24EB6BC EQ PUSH2 0x23C JUMPI DUP1 PUSH4 0x3C3ABC4 EQ PUSH2 0x26C JUMPI DUP1 PUSH4 0x1145E6B3 EQ PUSH2 0x28A JUMPI JUMPDEST PUSH1 0x0 DUP1 REVERT JUMPDEST PUSH2 0x23A PUSH1 0x4 DUP1 CALLDATASIZE SUB DUP2 ADD SWAP1 PUSH2 0x235 SWAP2 SWAP1 PUSH2 0x2F7A JUMP JUMPDEST PUSH2 0x801 JUMP JUMPDEST STOP JUMPDEST PUSH2 0x256 PUSH1 0x4 DUP1 CALLDATASIZE SUB DUP2 ADD SWAP1 PUSH2 0x251 SWAP2 SWAP1 PUSH2 0x2E77 JUMP JUMPDEST PUSH2 0x95C JUMP JUMPDEST PUSH1 0x40 MLOAD PUSH2 0x263 SWAP2 SWAP1 PUSH2 0x361C JUMP JUMPDEST PUSH1 0x40 MLOAD DUP1 SWAP2 SUB SWAP1 RETURN JUMPDEST PUSH2 0x274 PUSH2 0x9B5 JUMP JUMPDEST PUSH1 0x40 MLOAD PUSH2 0x281 SWAP2 SWAP1 PUSH2 0x3548 JUMP JUMPDEST PUSH1 0x40 MLOAD DUP1 SWAP2 SUB SWAP1 RETURN JUMPDEST PUSH2 0x2A4 PUSH1 0x4 DUP1 CALLDATASIZE SUB DUP2 ADD SWAP1 PUSH2 0x29F SWAP2 SWAP1 PUSH2 0x31DC JUMP JUMPDEST PUSH2 0x9DE JUMP JUMPDEST STOP JUMPDEST PUSH2 0x2C0 PUSH1 0x4 DUP1 CALLDATASIZE SUB DUP2 ADD SWAP1 PUSH2 0x2BB SWAP2 SWAP1 PUSH2 0x2E77 JUMP JUMPDEST PUSH2 0xF91 JUMP JUMPDEST PUSH1 0x40 MLOAD PUSH2 0x2CD SWAP2 SWAP1 PUSH2 0x361C JUMP JUMPDEST PUSH1 0x40 MLOAD DUP1 SWAP2 SUB SWAP1 RETURN JUMPDEST PUSH2 0x2F0 PUSH1 0x4 DUP1 CALLDATASIZE SUB DUP2 ADD SWAP1 PUSH2 0x2EB SWAP2 SWAP1 PUSH2 0x2F7A JUMP JUMPDEST PUSH2 0xFEB JUMP JUMPDEST STOP JUMPDEST PUSH2 0x30C PUSH1 0x4 DUP1 CALLDATASIZE SUB DUP2 ADD SWAP1 PUSH2 0x307 SWAP2 SWAP1 PUSH2 0x2E77 JUMP JUMPDEST PUSH2 0x1146 JUMP JUMPDEST PUSH1 0x40 MLOAD PUSH2 0x31B SWAP4 SWAP3 SWAP2 SWAP1 PUSH2 0x36A6 JUMP JUMPDEST PUSH1 0x40 MLOAD DUP1 SWAP2 SUB SWAP1 RETURN JUMPDEST PUSH2 0x33E PUSH1 0x4 DUP1 CALLDATASIZE SUB DUP2 ADD SWAP1 PUSH2 0x339 SWAP2 SWAP1 PUSH2 0x2E77 JUMP JUMPDEST PUSH2 0x1212 JUMP JUMPDEST PUSH1 0x40 MLOAD PUSH2 0x34D SWAP4 SWAP3 SWAP2 SWAP1 PUSH2 0x36A6 JUMP JUMPDEST PUSH1 0x40 MLOAD DUP1 SWAP2 SUB SWAP1 RETURN JUMPDEST PUSH2 0x370 PUSH1 0x4 DUP1 CALLDATASIZE SUB DUP2 ADD SWAP1 PUSH2 0x36B SWAP2 SWAP1 PUSH2 0x2E77 JUMP JUMPDEST PUSH2 0x12DE JUMP JUMPDEST PUSH1 0x40 MLOAD PUSH2 0x37D SWAP2 SWAP1 PUSH2 0x361C JUMP JUMPDEST PUSH1 0x40 MLOAD DUP1 SWAP2 SUB SWAP1 RETURN JUMPDEST PUSH2 0x3A0 PUSH1 0x4 DUP1 CALLDATASIZE SUB DUP2 ADD SWAP1 PUSH2 0x39B SWAP2 SWAP1 PUSH2 0x2E77 JUMP JUMPDEST PUSH2 0x1337 JUMP JUMPDEST PUSH1 0x40 MLOAD PUSH2 0x3AF SWAP4 SWAP3 SWAP2 SWAP1 PUSH2 0x36A6 JUMP JUMPDEST PUSH1 0x40 MLOAD DUP1 SWAP2 SUB SWAP1 RETURN JUMPDEST PUSH2 0x3D2 PUSH1 0x4 DUP1 CALLDATASIZE SUB DUP2 ADD SWAP1 PUSH2 0x3CD SWAP2 SWAP1 PUSH2 0x2EA4 JUMP JUMPDEST PUSH2 0x1403 JUMP JUMPDEST STOP JUMPDEST PUSH2 0x3EE PUSH1 0x4 DUP1 CALLDATASIZE SUB DUP2 ADD SWAP1 PUSH2 0x3E9 SWAP2 SWAP1 PUSH2 0x2E77 JUMP JUMPDEST PUSH2 0x14CA JUMP JUMPDEST PUSH1 0x40 MLOAD PUSH2 0x3FE SWAP5 SWAP4 SWAP3 SWAP2 SWAP1 PUSH2 0x36E4 JUMP JUMPDEST PUSH1 0x40 MLOAD DUP1 SWAP2 SUB SWAP1 RETURN JUMPDEST PUSH2 0x421 PUSH1 0x4 DUP1 CALLDATASIZE SUB DUP2 ADD SWAP1 PUSH2 0x41C SWAP2 SWAP1 PUSH2 0x2F7A JUMP JUMPDEST PUSH2 0x159C JUMP JUMPDEST STOP JUMPDEST PUSH2 0x43D PUSH1 0x4 DUP1 CALLDATASIZE SUB DUP2 ADD SWAP1 PUSH2 0x438 SWAP2 SWAP1 PUSH2 0x2E77 JUMP JUMPDEST PUSH2 0x16F7 JUMP JUMPDEST PUSH1 0x40 MLOAD PUSH2 0x44A SWAP2 SWAP1 PUSH2 0x361C JUMP JUMPDEST PUSH1 0x40 MLOAD DUP1 SWAP2 SUB SWAP1 RETURN JUMPDEST PUSH2 0x46D PUSH1 0x4 DUP1 CALLDATASIZE SUB DUP2 ADD SWAP1 PUSH2 0x468 SWAP2 SWAP1 PUSH2 0x3083 JUMP JUMPDEST PUSH2 0x1750 JUMP JUMPDEST PUSH1 0x40 MLOAD PUSH2 0x47A SWAP2 SWAP1 PUSH2 0x38B0 JUMP JUMPDEST PUSH1 0x40 MLOAD DUP1 SWAP2 SUB SWAP1 RETURN JUMPDEST PUSH2 0x48B PUSH2 0x1D3E JUMP JUMPDEST PUSH1 0x40 MLOAD PUSH2 0x498 SWAP2 SWAP1 PUSH2 0x3548 JUMP JUMPDEST PUSH1 0x40 MLOAD DUP1 SWAP2 SUB SWAP1 RETURN JUMPDEST PUSH2 0x4BB PUSH1 0x4 DUP1 CALLDATASIZE SUB DUP2 ADD SWAP1 PUSH2 0x4B6 SWAP2 SWAP1 PUSH2 0x3043 JUMP JUMPDEST PUSH2 0x1D62 JUMP JUMPDEST PUSH1 0x40 MLOAD PUSH2 0x4C8 SWAP2 SWAP1 PUSH2 0x361C JUMP JUMPDEST PUSH1 0x40 MLOAD DUP1 SWAP2 SUB SWAP1 RETURN JUMPDEST PUSH2 0x4EB PUSH1 0x4 DUP1 CALLDATASIZE SUB DUP2 ADD SWAP1 PUSH2 0x4E6 SWAP2 SWAP1 PUSH2 0x2E77 JUMP JUMPDEST PUSH2 0x1D9A JUMP JUMPDEST PUSH1 0x40 MLOAD PUSH2 0x4FA SWAP4 SWAP3 SWAP2 SWAP1 PUSH2 0x36A6 JUMP JUMPDEST PUSH1 0x40 MLOAD DUP1 SWAP2 SUB SWAP1 RETURN JUMPDEST PUSH2 0x51D PUSH1 0x4 DUP1 CALLDATASIZE SUB DUP2 ADD SWAP1 PUSH2 0x518 SWAP2 SWAP1 PUSH2 0x2E77 JUMP JUMPDEST PUSH2 0x1E66 JUMP JUMPDEST PUSH1 0x40 MLOAD PUSH2 0x52A SWAP2 SWAP1 PUSH2 0x361C JUMP JUMPDEST PUSH1 0x40 MLOAD DUP1 SWAP2 SUB SWAP1 RETURN JUMPDEST PUSH2 0x54D PUSH1 0x4 DUP1 CALLDATASIZE SUB DUP2 ADD SWAP1 PUSH2 0x548 SWAP2 SWAP1 PUSH2 0x2E77 JUMP JUMPDEST PUSH2 0x1EBF JUMP JUMPDEST PUSH1 0x40 MLOAD PUSH2 0x55C SWAP4 SWAP3 SWAP2 SWAP1 PUSH2 0x36A6 JUMP JUMPDEST PUSH1 0x40 MLOAD DUP1 SWAP2 SUB SWAP1 RETURN JUMPDEST PUSH2 0x57F PUSH1 0x4 DUP1 CALLDATASIZE SUB DUP2 ADD SWAP1 PUSH2 0x57A SWAP2 SWAP1 PUSH2 0x2F7A JUMP JUMPDEST PUSH2 0x1F8B JUMP JUMPDEST STOP JUMPDEST PUSH2 0x59B PUSH1 0x4 DUP1 CALLDATASIZE SUB DUP2 ADD SWAP1 PUSH2 0x596 SWAP2 SWAP1 PUSH2 0x31AF JUMP JUMPDEST PUSH2 0x20E6 JUMP JUMPDEST PUSH1 0x40 MLOAD PUSH2 0x5A9 SWAP3 SWAP2 SWAP1 PUSH2 0x3939 JUMP JUMPDEST PUSH1 0x40 MLOAD DUP1 SWAP2 SUB SWAP1 RETURN JUMPDEST PUSH2 0x5CC PUSH1 0x4 DUP1 CALLDATASIZE SUB DUP2 ADD SWAP1 PUSH2 0x5C7 SWAP2 SWAP1 PUSH2 0x3016 JUMP JUMPDEST PUSH2 0x21A2 JUMP JUMPDEST PUSH1 0x40 MLOAD PUSH2 0x5D9 SWAP2 SWAP1 PUSH2 0x38B0 JUMP JUMPDEST PUSH1 0x40 MLOAD DUP1 SWAP2 SUB SWAP1 RETURN JUMPDEST PUSH2 0x5EA PUSH2 0x23DB JUMP JUMPDEST PUSH1 0x40 MLOAD PUSH2 0x5F7 SWAP2 SWAP1 PUSH2 0x38B0 JUMP JUMPDEST PUSH1 0x40 MLOAD DUP1 SWAP2 SUB SWAP1 RETURN JUMPDEST PUSH2 0x61A PUSH1 0x4 DUP1 CALLDATASIZE SUB DUP2 ADD SWAP1 PUSH2 0x615 SWAP2 SWAP1 PUSH2 0x3016 JUMP JUMPDEST PUSH2 0x23E1 JUMP JUMPDEST PUSH1 0x40 MLOAD PUSH2 0x631 SWAP12 SWAP11 SWAP10 SWAP9 SWAP8 SWAP7 SWAP6 SWAP5 SWAP4 SWAP3 SWAP2 SWAP1 PUSH2 0x3563 JUMP JUMPDEST PUSH1 0x40 MLOAD DUP1 SWAP2 SUB SWAP1 RETURN JUMPDEST PUSH2 0x642 PUSH2 0x25BF JUMP JUMPDEST PUSH1 0x40 MLOAD PUSH2 0x64F SWAP2 SWAP1 PUSH2 0x38B0 JUMP JUMPDEST PUSH1 0x40 MLOAD DUP1 SWAP2 SUB SWAP1 RETURN JUMPDEST PUSH2 0x672 PUSH1 0x4 DUP1 CALLDATASIZE SUB DUP2 ADD SWAP1 PUSH2 0x66D SWAP2 SWAP1 PUSH2 0x2E77 JUMP JUMPDEST PUSH2 0x25C5 JUMP JUMPDEST PUSH1 0x40 MLOAD PUSH2 0x67F SWAP2 SWAP1 PUSH2 0x361C JUMP JUMPDEST PUSH1 0x40 MLOAD DUP1 SWAP2 SUB SWAP1 RETURN JUMPDEST PUSH2 0x6A2 PUSH1 0x4 DUP1 CALLDATASIZE SUB DUP2 ADD SWAP1 PUSH2 0x69D SWAP2 SWAP1 PUSH2 0x2E77 JUMP JUMPDEST PUSH2 0x261E JUMP JUMPDEST PUSH1 0x40 MLOAD PUSH2 0x6B4 SWAP7 SWAP6 SWAP5 SWAP4 SWAP3 SWAP2 SWAP1 PUSH2 0x3637 JUMP JUMPDEST PUSH1 0x40 MLOAD DUP1 SWAP2 SUB SWAP1 RETURN JUMPDEST PUSH2 0x6D7 PUSH1 0x4 DUP1 CALLDATASIZE SUB DUP2 ADD SWAP1 PUSH2 0x6D2 SWAP2 SWAP1 PUSH2 0x2E77 JUMP JUMPDEST PUSH2 0x27B2 JUMP JUMPDEST PUSH1 0x40 MLOAD PUSH2 0x6E4 SWAP2 SWAP1 PUSH2 0x361C JUMP JUMPDEST PUSH1 0x40 MLOAD DUP1 SWAP2 SUB SWAP1 RETURN JUMPDEST PUSH2 0x707 PUSH1 0x4 DUP1 CALLDATASIZE SUB DUP2 ADD SWAP1 PUSH2 0x702 SWAP2 SWAP1 PUSH2 0x2EF7 JUMP JUMPDEST PUSH2 0x27DD JUMP JUMPDEST STOP JUMPDEST PUSH2 0x723 PUSH1 0x4 DUP1 CALLDATASIZE SUB DUP2 ADD SWAP1 PUSH2 0x71E SWAP2 SWAP1 PUSH2 0x2E77 JUMP JUMPDEST PUSH2 0x2980 JUMP JUMPDEST PUSH1 0x40 MLOAD PUSH2 0x730 SWAP2 SWAP1 PUSH2 0x361C JUMP JUMPDEST PUSH1 0x40 MLOAD DUP1 SWAP2 SUB SWAP1 RETURN JUMPDEST PUSH2 0x753 PUSH1 0x4 DUP1 CALLDATASIZE SUB DUP2 ADD SWAP1 PUSH2 0x74E SWAP2 SWAP1 PUSH2 0x2E77 JUMP JUMPDEST PUSH2 0x29D8 JUMP JUMPDEST PUSH1 0x40 MLOAD PUSH2 0x760 SWAP2 SWAP1 PUSH2 0x361C JUMP JUMPDEST PUSH1 0x40 MLOAD DUP1 SWAP2 SUB SWAP1 RETURN JUMPDEST PUSH2 0x783 PUSH1 0x4 DUP1 CALLDATASIZE SUB DUP2 ADD SWAP1 PUSH2 0x77E SWAP2 SWAP1 PUSH2 0x2E77 JUMP JUMPDEST PUSH2 0x2A31 JUMP JUMPDEST PUSH1 0x40 MLOAD PUSH2 0x790 SWAP2 SWAP1 PUSH2 0x361C JUMP JUMPDEST PUSH1 0x40 MLOAD DUP1 SWAP2 SUB SWAP1 RETURN JUMPDEST PUSH2 0x7B3 PUSH1 0x4 DUP1 CALLDATASIZE SUB DUP2 ADD SWAP1 PUSH2 0x7AE SWAP2 SWAP1 PUSH2 0x2E77 JUMP JUMPDEST PUSH2 0x2A8B JUMP JUMPDEST PUSH1 0x40 MLOAD PUSH2 0x7C0 SWAP2 SWAP1 PUSH2 0x361C JUMP JUMPDEST PUSH1 0x40 MLOAD DUP1 SWAP2 SUB SWAP1 RETURN JUMPDEST PUSH2 0x7E3 PUSH1 0x4 DUP1 CALLDATASIZE SUB DUP2 ADD SWAP1 PUSH2 0x7DE SWAP2 SWAP1 PUSH2 0x2E77 JUMP JUMPDEST PUSH2 0x2AE4 JUMP JUMPDEST STOP JUMPDEST PUSH2 0x7FF PUSH1 0x4 DUP1 CALLDATASIZE SUB DUP2 ADD SWAP1 PUSH2 0x7FA SWAP2 SWAP1 PUSH2 0x2F7A JUMP JUMPDEST PUSH2 0x2B8B JUMP JUMPDEST STOP JUMPDEST PUSH2 0x80A DUP4 PUSH2 0x2A8B JUMP JUMPDEST ISZERO PUSH2 0x84A JUMPI PUSH1 0x40 MLOAD PUSH32 0x8C379A000000000000000000000000000000000000000000000000000000000 DUP2 MSTORE PUSH1 0x4 ADD PUSH2 0x841 SWAP1 PUSH2 0x3810 JUMP JUMPDEST PUSH1 0x40 MLOAD DUP1 SWAP2 SUB SWAP1 REVERT JUMPDEST PUSH1 0x1 PUSH1 0x4 PUSH1 0x0 DUP6 PUSH20 0xFFFFFFFFFFFFFFFFFFFFFFFFFFFFFFFFFFFFFFFF AND PUSH20 0xFFFFFFFFFFFFFFFFFFFFFFFFFFFFFFFFFFFFFFFF AND DUP2 MSTORE PUSH1 0x20 ADD SWAP1 DUP2 MSTORE PUSH1 0x20 ADD PUSH1 0x0 KECCAK256 PUSH1 0x0 ADD PUSH1 0x0 PUSH2 0x100 EXP DUP2 SLOAD DUP2 PUSH1 0xFF MUL NOT AND SWAP1 DUP4 ISZERO ISZERO MUL OR SWAP1 SSTORE POP DUP2 PUSH1 0x4 PUSH1 0x0 DUP6 PUSH20 0xFFFFFFFFFFFFFFFFFFFFFFFFFFFFFFFFFFFFFFFF AND PUSH20 0xFFFFFFFFFFFFFFFFFFFFFFFFFFFFFFFFFFFFFFFF AND DUP2 MSTORE PUSH1 0x20 ADD SWAP1 DUP2 MSTORE PUSH1 0x20 ADD PUSH1 0x0 KECCAK256 PUSH1 0x1 ADD SWAP1 DUP1 MLOAD SWAP1 PUSH1 0x20 ADD SWAP1 PUSH2 0x8FB SWAP3 SWAP2 SWAP1 PUSH2 0x2CE6 JUMP JUMPDEST POP DUP1 PUSH1 0x4 PUSH1 0x0 DUP6 PUSH20 0xFFFFFFFFFFFFFFFFFFFFFFFFFFFFFFFFFFFFFFFF AND PUSH20 0xFFFFFFFFFFFFFFFFFFFFFFFFFFFFFFFFFFFFFFFF AND DUP2 MSTORE PUSH1 0x20 ADD SWAP1 DUP2 MSTORE PUSH1 0x20 ADD PUSH1 0x0 KECCAK256 PUSH1 0x2 ADD PUSH1 0x0 PUSH2 0x100 EXP DUP2 SLOAD DUP2 PUSH1 0xFF MUL NOT AND SWAP1 DUP4 PUSH1 0xFF AND MUL OR SWAP1 SSTORE POP POP POP POP JUMP JUMPDEST PUSH1 0x0 PUSH1 0x7 PUSH1 0x0 DUP4 PUSH20 0xFFFFFFFFFFFFFFFFFFFFFFFFFFFFFFFFFFFFFFFF AND PUSH20 0xFFFFFFFFFFFFFFFFFFFFFFFFFFFFFFFFFFFFFFFF AND DUP2 MSTORE PUSH1 0x20 ADD SWAP1 DUP2 MSTORE PUSH1 0x20 ADD PUSH1 0x0 KECCAK256 PUSH1 0x0 ADD PUSH1 0x0 SWAP1 SLOAD SWAP1 PUSH2 0x100 EXP SWAP1 DIV PUSH1 0xFF AND SWAP1 POP SWAP2 SWAP1 POP JUMP JUMPDEST PUSH1 0x0 DUP1 PUSH1 0x0 SWAP1 SLOAD SWAP1 PUSH2 0x100 EXP SWAP1 DIV PUSH20 0xFFFFFFFFFFFFFFFFFFFFFFFFFFFFFFFFFFFFFFFF AND SWAP1 POP SWAP1 JUMP JUMPDEST PUSH1 0xC PUSH1 0x0 SWAP1 SLOAD SWAP1 PUSH2 0x100 EXP SWAP1 DIV PUSH20 0xFFFFFFFFFFFFFFFFFFFFFFFFFFFFFFFFFFFFFFFF AND PUSH20 0xFFFFFFFFFFFFFFFFFFFFFFFFFFFFFFFFFFFFFFFF AND PUSH4 0x514E03C7 CALLER PUSH1 0x40 MLOAD DUP3 PUSH4 0xFFFFFFFF AND PUSH1 0xE0 SHL DUP2 MSTORE PUSH1 0x4 ADD PUSH2 0xA39 SWAP2 SWAP1 PUSH2 0x3548 JUMP JUMPDEST PUSH1 0x20 PUSH1 0x40 MLOAD DUP1 DUP4 SUB DUP2 DUP7 DUP1 EXTCODESIZE ISZERO DUP1 ISZERO PUSH2 0xA51 JUMPI PUSH1 0x0 DUP1 REVERT JUMPDEST POP GAS STATICCALL ISZERO DUP1 ISZERO PUSH2 0xA65 JUMPI RETURNDATASIZE PUSH1 0x0 DUP1 RETURNDATACOPY RETURNDATASIZE PUSH1 0x0 REVERT JUMPDEST POP POP POP POP PUSH1 0x40 MLOAD RETURNDATASIZE PUSH1 0x1F NOT PUSH1 0x1F DUP3 ADD AND DUP3 ADD DUP1 PUSH1 0x40 MSTORE POP DUP2 ADD SWAP1 PUSH2 0xA89 SWAP2 SWAP1 PUSH2 0x2FE9 JUMP JUMPDEST DUP1 PUSH2 0xB3B JUMPI POP PUSH1 0xC PUSH1 0x0 SWAP1 SLOAD SWAP1 PUSH2 0x100 EXP SWAP1 DIV PUSH20 0xFFFFFFFFFFFFFFFFFFFFFFFFFFFFFFFFFFFFFFFF AND PUSH20 0xFFFFFFFFFFFFFFFFFFFFFFFFFFFFFFFFFFFFFFFF AND PUSH4 0x2D087D70 CALLER PUSH1 0x40 MLOAD DUP3 PUSH4 0xFFFFFFFF AND PUSH1 0xE0 SHL DUP2 MSTORE PUSH1 0x4 ADD PUSH2 0xAEA SWAP2 SWAP1 PUSH2 0x3548 JUMP JUMPDEST PUSH1 0x20 PUSH1 0x40 MLOAD DUP1 DUP4 SUB DUP2 DUP7 DUP1 EXTCODESIZE ISZERO DUP1 ISZERO PUSH2 0xB02 JUMPI PUSH1 0x0 DUP1 REVERT JUMPDEST POP GAS STATICCALL ISZERO DUP1 ISZERO PUSH2 0xB16 JUMPI RETURNDATASIZE PUSH1 0x0 DUP1 RETURNDATACOPY RETURNDATASIZE PUSH1 0x0 REVERT JUMPDEST POP POP POP POP PUSH1 0x40 MLOAD RETURNDATASIZE PUSH1 0x1F NOT PUSH1 0x1F DUP3 ADD AND DUP3 ADD DUP1 PUSH1 0x40 MSTORE POP DUP2 ADD SWAP1 PUSH2 0xB3A SWAP2 SWAP1 PUSH2 0x2FE9 JUMP JUMPDEST JUMPDEST PUSH2 0xB7A JUMPI PUSH1 0x40 MLOAD PUSH32 0x8C379A000000000000000000000000000000000000000000000000000000000 DUP2 MSTORE PUSH1 0x4 ADD PUSH2 0xB71 SWAP1 PUSH2 0x37B0 JUMP JUMPDEST PUSH1 0x40 MLOAD DUP1 SWAP2 SUB SWAP1 REVERT JUMPDEST PUSH1 0xC PUSH1 0x0 SWAP1 SLOAD SWAP1 PUSH2 0x100 EXP SWAP1 DIV PUSH20 0xFFFFFFFFFFFFFFFFFFFFFFFFFFFFFFFFFFFFFFFF AND PUSH20 0xFFFFFFFFFFFFFFFFFFFFFFFFFFFFFFFFFFFFFFFF AND PUSH4 0x514E03C7 CALLER PUSH1 0x40 MLOAD DUP3 PUSH4 0xFFFFFFFF AND PUSH1 0xE0 SHL DUP2 MSTORE PUSH1 0x4 ADD PUSH2 0xBD5 SWAP2 SWAP1 PUSH2 0x3548 JUMP JUMPDEST PUSH1 0x20 PUSH1 0x40 MLOAD DUP1 DUP4 SUB DUP2 DUP7 DUP1 EXTCODESIZE ISZERO DUP1 ISZERO PUSH2 0xBED JUMPI PUSH1 0x0 DUP1 REVERT JUMPDEST POP GAS STATICCALL ISZERO DUP1 ISZERO PUSH2 0xC01 JUMPI RETURNDATASIZE PUSH1 0x0 DUP1 RETURNDATACOPY RETURNDATASIZE PUSH1 0x0 REVERT JUMPDEST POP POP POP POP PUSH1 0x40 MLOAD RETURNDATASIZE PUSH1 0x1F NOT PUSH1 0x1F DUP3 ADD AND DUP3 ADD DUP1 PUSH1 0x40 MSTORE POP DUP2 ADD SWAP1 PUSH2 0xC25 SWAP2 SWAP1 PUSH2 0x2FE9 JUMP JUMPDEST DUP1 PUSH2 0xCD7 JUMPI POP PUSH1 0xC PUSH1 0x0 SWAP1 SLOAD SWAP1 PUSH2 0x100 EXP SWAP1 DIV PUSH20 0xFFFFFFFFFFFFFFFFFFFFFFFFFFFFFFFFFFFFFFFF AND PUSH20 0xFFFFFFFFFFFFFFFFFFFFFFFFFFFFFFFFFFFFFFFF AND PUSH4 0x2D087D70 CALLER PUSH1 0x40 MLOAD DUP3 PUSH4 0xFFFFFFFF AND PUSH1 0xE0 SHL DUP2 MSTORE PUSH1 0x4 ADD PUSH2 0xC86 SWAP2 SWAP1 PUSH2 0x3548 JUMP JUMPDEST PUSH1 0x20 PUSH1 0x40 MLOAD DUP1 DUP4 SUB DUP2 DUP7 DUP1 EXTCODESIZE ISZERO DUP1 ISZERO PUSH2 0xC9E JUMPI PUSH1 0x0 DUP1 REVERT JUMPDEST POP GAS STATICCALL ISZERO DUP1 ISZERO PUSH2 0xCB2 JUMPI RETURNDATASIZE PUSH1 0x0 DUP1 RETURNDATACOPY RETURNDATASIZE PUSH1 0x0 REVERT JUMPDEST POP POP POP POP PUSH1 0x40 MLOAD RETURNDATASIZE PUSH1 0x1F NOT PUSH1 0x1F DUP3 ADD AND DUP3 ADD DUP1 PUSH1 0x40 MSTORE POP DUP2 ADD SWAP1 PUSH2 0xCD6 SWAP2 SWAP1 PUSH2 0x2FE9 JUMP JUMPDEST JUMPDEST PUSH2 0xD16 JUMPI PUSH1 0x40 MLOAD PUSH32 0x8C379A000000000000000000000000000000000000000000000000000000000 DUP2 MSTORE PUSH1 0x4 ADD PUSH2 0xD0D SWAP1 PUSH2 0x3850 JUMP JUMPDEST PUSH1 0x40 MLOAD DUP1 SWAP2 SUB SWAP1 REVERT JUMPDEST PUSH1 0x0 PUSH1 0xD PUSH1 0x0 DUP2 SLOAD DUP1 SWAP3 SWAP2 SWAP1 PUSH2 0xD2B SWAP1 PUSH2 0x3B3D JUMP JUMPDEST SWAP2 SWAP1 POP SSTORE SWAP1 POP CALLER PUSH1 0xF PUSH1 0x0 DUP4 DUP2 MSTORE PUSH1 0x20 ADD SWAP1 DUP2 MSTORE PUSH1 0x20 ADD PUSH1 0x0 KECCAK256 PUSH1 0x0 ADD PUSH1 0x0 PUSH2 0x100 EXP DUP2 SLOAD DUP2 PUSH20 0xFFFFFFFFFFFFFFFFFFFFFFFFFFFFFFFFFFFFFFFF MUL NOT AND SWAP1 DUP4 PUSH20 0xFFFFFFFFFFFFFFFFFFFFFFFFFFFFFFFFFFFFFFFF AND MUL OR SWAP1 SSTORE POP DUP11 PUSH1 0xF PUSH1 0x0 DUP4 DUP2 MSTORE PUSH1 0x20 ADD SWAP1 DUP2 MSTORE PUSH1 0x20 ADD PUSH1 0x0 KECCAK256 PUSH1 0x0 ADD PUSH1 0x14 PUSH2 0x100 EXP DUP2 SLOAD DUP2 PUSH4 0xFFFFFFFF MUL NOT AND SWAP1 DUP4 PUSH4 0xFFFFFFFF AND MUL OR SWAP1 SSTORE POP DUP10 PUSH1 0xF PUSH1 0x0 DUP4 DUP2 MSTORE PUSH1 0x20 ADD SWAP1 DUP2 MSTORE PUSH1 0x20 ADD PUSH1 0x0 KECCAK256 PUSH1 0x0 ADD PUSH1 0x18 PUSH2 0x100 EXP DUP2 SLOAD DUP2 PUSH1 0xFF MUL NOT AND SWAP1 DUP4 PUSH1 0xFF AND MUL OR SWAP1 SSTORE POP DUP9 PUSH1 0xF PUSH1 0x0 DUP4 DUP2 MSTORE PUSH1 0x20 ADD SWAP1 DUP2 MSTORE PUSH1 0x20 ADD PUSH1 0x0 KECCAK256 PUSH1 0x0 ADD PUSH1 0x19 PUSH2 0x100 EXP DUP2 SLOAD DUP2 PUSH1 0xFF MUL NOT AND SWAP1 DUP4 PUSH1 0x2 DUP2 GT ISZERO PUSH2 0xE23 JUMPI PUSH2 0xE22 PUSH2 0x3BB5 JUMP JUMPDEST JUMPDEST MUL OR SWAP1 SSTORE POP DUP8 PUSH1 0xF PUSH1 0x0 DUP4 DUP2 MSTORE PUSH1 0x20 ADD SWAP1 DUP2 MSTORE PUSH1 0x20 ADD PUSH1 0x0 KECCAK256 PUSH1 0x1 ADD SWAP1 DUP1 MLOAD SWAP1 PUSH1 0x20 ADD SWAP1 PUSH2 0xE52 SWAP3 SWAP2 SWAP1 PUSH2 0x2CE6 JUMP JUMPDEST POP DUP7 PUSH1 0xF PUSH1 0x0 DUP4 DUP2 MSTORE PUSH1 0x20 ADD SWAP1 DUP2 MSTORE PUSH1 0x20 ADD PUSH1 0x0 KECCAK256 PUSH1 0x2 ADD SWAP1 DUP1 MLOAD SWAP1 PUSH1 0x20 ADD SWAP1 PUSH2 0xE7D SWAP3 SWAP2 SWAP1 PUSH2 0x2CE6 JUMP JUMPDEST POP DUP6 PUSH1 0xF PUSH1 0x0 DUP4 DUP2 MSTORE PUSH1 0x20 ADD SWAP1 DUP2 MSTORE PUSH1 0x20 ADD PUSH1 0x0 KECCAK256 PUSH1 0x3 ADD DUP2 SWAP1 SSTORE POP DUP5 PUSH1 0xF PUSH1 0x0 DUP4 DUP2 MSTORE PUSH1 0x20 ADD SWAP1 DUP2 MSTORE PUSH1 0x20 ADD PUSH1 0x0 KECCAK256 PUSH1 0x4 ADD DUP2 SWAP1 SSTORE POP DUP2 PUSH1 0xF PUSH1 0x0 DUP4 DUP2 MSTORE PUSH1 0x20 ADD SWAP1 DUP2 MSTORE PUSH1 0x20 ADD PUSH1 0x0 KECCAK256 PUSH1 0x5 ADD PUSH1 0x0 PUSH2 0x100 EXP DUP2 SLOAD DUP2 PUSH1 0xFF MUL NOT AND SWAP1 DUP4 PUSH1 0xFF AND MUL OR SWAP1 SSTORE POP DUP4 PUSH1 0xF PUSH1 0x0 DUP4 DUP2 MSTORE PUSH1 0x20 ADD SWAP1 DUP2 MSTORE PUSH1 0x20 ADD PUSH1 0x0 KECCAK256 PUSH1 0x5 ADD PUSH1 0x1 PUSH2 0x100 EXP DUP2 SLOAD DUP2 PUSH1 0xFF MUL NOT AND SWAP1 DUP4 PUSH1 0xFF AND MUL OR SWAP1 SSTORE POP DUP3 PUSH1 0xF PUSH1 0x0 DUP4 DUP2 MSTORE PUSH1 0x20 ADD SWAP1 DUP2 MSTORE PUSH1 0x20 ADD PUSH1 0x0 KECCAK256 PUSH1 0x5 ADD PUSH1 0x2 PUSH2 0x100 EXP DUP2 SLOAD DUP2 PUSH4 0xFFFFFFFF MUL NOT AND SWAP1 DUP4 PUSH4 0xFFFFFFFF AND MUL OR SWAP1 SSTORE POP PUSH32 0xE0E63D831510F0BF5D668C0EE1860C29AE4816F0D25D69B44D89E1A4A3448BC7 DUP2 CALLER DUP14 DUP14 PUSH1 0x40 MLOAD PUSH2 0xF7C SWAP5 SWAP4 SWAP3 SWAP2 SWAP1 PUSH2 0x38F4 JUMP JUMPDEST PUSH1 0x40 MLOAD DUP1 SWAP2 SUB SWAP1 LOG1 POP POP POP POP POP POP POP POP POP POP POP JUMP JUMPDEST PUSH1 0x0 DUP2 PUSH20 0xFFFFFFFFFFFFFFFFFFFFFFFFFFFFFFFFFFFFFFFF AND PUSH1 0x1 PUSH1 0x0 SWAP1 SLOAD SWAP1 PUSH2 0x100 EXP SWAP1 DIV PUSH20 0xFFFFFFFFFFFFFFFFFFFFFFFFFFFFFFFFFFFFFFFF AND PUSH20 0xFFFFFFFFFFFFFFFFFFFFFFFFFFFFFFFFFFFFFFFF AND EQ SWAP1 POP SWAP2 SWAP1 POP JUMP JUMPDEST PUSH2 0xFF4 DUP4 PUSH2 0x1E66 JUMP JUMPDEST ISZERO PUSH2 0x1034 JUMPI PUSH1 0x40 MLOAD PUSH32 0x8C379A000000000000000000000000000000000000000000000000000000000 DUP2 MSTORE PUSH1 0x4 ADD PUSH2 0x102B SWAP1 PUSH2 0x37F0 JUMP JUMPDEST PUSH1 0x40 MLOAD DUP1 SWAP2 SUB SWAP1 REVERT JUMPDEST PUSH1 0x1 PUSH1 0x9 PUSH1 0x0 DUP6 PUSH20 0xFFFFFFFFFFFFFFFFFFFFFFFFFFFFFFFFFFFFFFFF AND PUSH20 0xFFFFFFFFFFFFFFFFFFFFFFFFFFFFFFFFFFFFFFFF AND DUP2 MSTORE PUSH1 0x20 ADD SWAP1 DUP2 MSTORE PUSH1 0x20 ADD PUSH1 0x0 KECCAK256 PUSH1 0x0 ADD PUSH1 0x0 PUSH2 0x100 EXP DUP2 SLOAD DUP2 PUSH1 0xFF MUL NOT AND SWAP1 DUP4 ISZERO ISZERO MUL OR SWAP1 SSTORE POP DUP2 PUSH1 0x9 PUSH1 0x0 DUP6 PUSH20 0xFFFFFFFFFFFFFFFFFFFFFFFFFFFFFFFFFFFFFFFF AND PUSH20 0xFFFFFFFFFFFFFFFFFFFFFFFFFFFFFFFFFFFFFFFF AND DUP2 MSTORE PUSH1 0x20 ADD SWAP1 DUP2 MSTORE PUSH1 0x20 ADD PUSH1 0x0 KECCAK256 PUSH1 0x1 ADD SWAP1 DUP1 MLOAD SWAP1 PUSH1 0x20 ADD SWAP1 PUSH2 0x10E5 SWAP3 SWAP2 SWAP1 PUSH2 0x2CE6 JUMP JUMPDEST POP DUP1 PUSH1 0x9 PUSH1 0x0 DUP6 PUSH20 0xFFFFFFFFFFFFFFFFFFFFFFFFFFFFFFFFFFFFFFFF AND PUSH20 0xFFFFFFFFFFFFFFFFFFFFFFFFFFFFFFFFFFFFFFFF AND DUP2 MSTORE PUSH1 0x20 ADD SWAP1 DUP2 MSTORE PUSH1 0x20 ADD PUSH1 0x0 KECCAK256 PUSH1 0x2 ADD PUSH1 0x0 PUSH2 0x100 EXP DUP2 SLOAD DUP2 PUSH1 0xFF MUL NOT AND SWAP1 DUP4 PUSH1 0xFF AND MUL OR SWAP1 SSTORE POP POP POP POP JUMP JUMPDEST PUSH1 0x7 PUSH1 0x20 MSTORE DUP1 PUSH1 0x0 MSTORE PUSH1 0x40 PUSH1 0x0 KECCAK256 PUSH1 0x0 SWAP2 POP SWAP1 POP DUP1 PUSH1 0x0 ADD PUSH1 0x0 SWAP1 SLOAD SWAP1 PUSH2 0x100 EXP SWAP1 DIV PUSH1 0xFF AND SWAP1 DUP1 PUSH1 0x1 ADD DUP1 SLOAD PUSH2 0x117C SWAP1 PUSH2 0x3ADA JUMP JUMPDEST DUP1 PUSH1 0x1F ADD PUSH1 0x20 DUP1 SWAP2 DIV MUL PUSH1 0x20 ADD PUSH1 0x40 MLOAD SWAP1 DUP2 ADD PUSH1 0x40 MSTORE DUP1 SWAP3 SWAP2 SWAP1 DUP2 DUP2 MSTORE PUSH1 0x20 ADD DUP3 DUP1 SLOAD PUSH2 0x11A8 SWAP1 PUSH2 0x3ADA JUMP JUMPDEST DUP1 ISZERO PUSH2 0x11F5 JUMPI DUP1 PUSH1 0x1F LT PUSH2 0x11CA JUMPI PUSH2 0x100 DUP1 DUP4 SLOAD DIV MUL DUP4 MSTORE SWAP2 PUSH1 0x20 ADD SWAP2 PUSH2 0x11F5 JUMP JUMPDEST DUP3 ADD SWAP2 SWAP1 PUSH1 0x0 MSTORE PUSH1 0x20 PUSH1 0x0 KECCAK256 SWAP1 JUMPDEST DUP2 SLOAD DUP2 MSTORE SWAP1 PUSH1 0x1 ADD SWAP1 PUSH1 0x20 ADD DUP1 DUP4 GT PUSH2 0x11D8 JUMPI DUP3 SWAP1 SUB PUSH1 0x1F AND DUP3 ADD SWAP2 JUMPDEST POP POP POP POP POP SWAP1 DUP1 PUSH1 0x2 ADD PUSH1 0x0 SWAP1 SLOAD SWAP1 PUSH2 0x100 EXP SWAP1 DIV PUSH1 0xFF AND SWAP1 POP DUP4 JUMP JUMPDEST PUSH1 0x4 PUSH1 0x20 MSTORE DUP1 PUSH1 0x0 MSTORE PUSH1 0x40 PUSH1 0x0 KECCAK256 PUSH1 0x0 SWAP2 POP SWAP1 POP DUP1 PUSH1 0x0 ADD PUSH1 0x0 SWAP1 SLOAD SWAP1 PUSH2 0x100 EXP SWAP1 DIV PUSH1 0xFF AND SWAP1 DUP1 PUSH1 0x1 ADD DUP1 SLOAD PUSH2 0x1248 SWAP1 PUSH2 0x3ADA JUMP JUMPDEST DUP1 PUSH1 0x1F ADD PUSH1 0x20 DUP1 SWAP2 DIV MUL PUSH1 0x20 ADD PUSH1 0x40 MLOAD SWAP1 DUP2 ADD PUSH1 0x40 MSTORE DUP1 SWAP3 SWAP2 SWAP1 DUP2 DUP2 MSTORE PUSH1 0x20 ADD DUP3 DUP1 SLOAD PUSH2 0x1274 SWAP1 PUSH2 0x3ADA JUMP JUMPDEST DUP1 ISZERO PUSH2 0x12C1 JUMPI DUP1 PUSH1 0x1F LT PUSH2 0x1296 JUMPI PUSH2 0x100 DUP1 DUP4 SLOAD DIV MUL DUP4 MSTORE SWAP2 PUSH1 0x20 ADD SWAP2 PUSH2 0x12C1 JUMP JUMPDEST DUP3 ADD SWAP2 SWAP1 PUSH1 0x0 MSTORE PUSH1 0x20 PUSH1 0x0 KECCAK256 SWAP1 JUMPDEST DUP2 SLOAD DUP2 MSTORE SWAP1 PUSH1 0x1 ADD SWAP1 PUSH1 0x20 ADD DUP1 DUP4 GT PUSH2 0x12A4 JUMPI DUP3 SWAP1 SUB PUSH1 0x1F AND DUP3 ADD SWAP2 JUMPDEST POP POP POP POP POP SWAP1 DUP1 PUSH1 0x2 ADD PUSH1 0x0 SWAP1 SLOAD SWAP1 PUSH2 0x100 EXP SWAP1 DIV PUSH1 0xFF AND SWAP1 POP DUP4 JUMP JUMPDEST PUSH1 0x0 PUSH1 0x6 PUSH1 0x0 DUP4 PUSH20 0xFFFFFFFFFFFFFFFFFFFFFFFFFFFFFFFFFFFFFFFF AND PUSH20 0xFFFFFFFFFFFFFFFFFFFFFFFFFFFFFFFFFFFFFFFF AND DUP2 MSTORE PUSH1 0x20 ADD SWAP1 DUP2 MSTORE PUSH1 0x20 ADD PUSH1 0x0 KECCAK256 PUSH1 0x0 ADD PUSH1 0x0 SWAP1 SLOAD SWAP1 PUSH2 0x100 EXP SWAP1 DIV PUSH1 0xFF AND SWAP1 POP SWAP2 SWAP1 POP JUMP JUMPDEST PUSH1 0xA PUSH1 0x20 MSTORE DUP1 PUSH1 0x0 MSTORE PUSH1 0x40 PUSH1 0x0 KECCAK256 PUSH1 0x0 SWAP2 POP SWAP1 POP DUP1 PUSH1 0x0 ADD PUSH1 0x0 SWAP1 SLOAD SWAP1 PUSH2 0x100 EXP SWAP1 DIV PUSH1 0xFF AND SWAP1 DUP1 PUSH1 0x1 ADD DUP1 SLOAD PUSH2 0x136D SWAP1 PUSH2 0x3ADA JUMP JUMPDEST DUP1 PUSH1 0x1F ADD PUSH1 0x20 DUP1 SWAP2 DIV MUL PUSH1 0x20 ADD PUSH1 0x40 MLOAD SWAP1 DUP2 ADD PUSH1 0x40 MSTORE DUP1 SWAP3 SWAP2 SWAP1 DUP2 DUP2 MSTORE PUSH1 0x20 ADD DUP3 DUP1 SLOAD PUSH2 0x1399 SWAP1 PUSH2 0x3ADA JUMP JUMPDEST DUP1 ISZERO PUSH2 0x13E6 JUMPI DUP1 PUSH1 0x1F LT PUSH2 0x13BB JUMPI PUSH2 0x100 DUP1 DUP4 SLOAD DIV MUL DUP4 MSTORE SWAP2 PUSH1 0x20 ADD SWAP2 PUSH2 0x13E6 JUMP JUMPDEST DUP3 ADD SWAP2 SWAP1 PUSH1 0x0 MSTORE PUSH1 0x20 PUSH1 0x0 KECCAK256 SWAP1 JUMPDEST DUP2 SLOAD DUP2 MSTORE SWAP1 PUSH1 0x1 ADD SWAP1 PUSH1 0x20 ADD DUP1 DUP4 GT PUSH2 0x13C9 JUMPI DUP3 SWAP1 SUB PUSH1 0x1F AND DUP3 ADD SWAP2 JUMPDEST POP POP POP POP POP SWAP1 DUP1 PUSH1 0x2 ADD PUSH1 0x0 SWAP1 SLOAD SWAP1 PUSH2 0x100 EXP SWAP1 DIV PUSH1 0xFF AND SWAP1 POP DUP4 JUMP JUMPDEST DUP3 PUSH1 0x0 DUP1 PUSH2 0x100 EXP DUP2 SLOAD DUP2 PUSH20 0xFFFFFFFFFFFFFFFFFFFFFFFFFFFFFFFFFFFFFFFF MUL NOT AND SWAP1 DUP4 PUSH20 0xFFFFFFFFFFFFFFFFFFFFFFFFFFFFFFFFFFFFFFFF AND MUL OR SWAP1 SSTORE POP DUP2 PUSH1 0x1 PUSH1 0x0 PUSH2 0x100 EXP DUP2 SLOAD DUP2 PUSH20 0xFFFFFFFFFFFFFFFFFFFFFFFFFFFFFFFFFFFFFFFF MUL NOT AND SWAP1 DUP4 PUSH20 0xFFFFFFFFFFFFFFFFFFFFFFFFFFFFFFFFFFFFFFFF AND MUL OR SWAP1 SSTORE POP DUP1 PUSH1 0x2 PUSH1 0x0 PUSH2 0x100 EXP DUP2 SLOAD DUP2 PUSH20 0xFFFFFFFFFFFFFFFFFFFFFFFFFFFFFFFFFFFFFFFF MUL NOT AND SWAP1 DUP4 PUSH20 0xFFFFFFFFFFFFFFFFFFFFFFFFFFFFFFFFFFFFFFFF AND MUL OR SWAP1 SSTORE POP POP POP POP JUMP JUMPDEST PUSH1 0x6 PUSH1 0x20 MSTORE DUP1 PUSH1 0x0 MSTORE PUSH1 0x40 PUSH1 0x0 KECCAK256 PUSH1 0x0 SWAP2 POP SWAP1 POP DUP1 PUSH1 0x0 ADD PUSH1 0x0 SWAP1 SLOAD SWAP1 PUSH2 0x100 EXP SWAP1 DIV PUSH1 0xFF AND SWAP1 DUP1 PUSH1 0x0 ADD PUSH1 0x1 SWAP1 SLOAD SWAP1 PUSH2 0x100 EXP SWAP1 DIV PUSH1 0xFF AND SWAP1 DUP1 PUSH1 0x1 ADD SLOAD SWAP1 DUP1 PUSH1 0x2 ADD DUP1 SLOAD PUSH2 0x1519 SWAP1 PUSH2 0x3ADA JUMP JUMPDEST DUP1 PUSH1 0x1F ADD PUSH1 0x20 DUP1 SWAP2 DIV MUL PUSH1 0x20 ADD PUSH1 0x40 MLOAD SWAP1 DUP2 ADD PUSH1 0x40 MSTORE DUP1 SWAP3 SWAP2 SWAP1 DUP2 DUP2 MSTORE PUSH1 0x20 ADD DUP3 DUP1 SLOAD PUSH2 0x1545 SWAP1 PUSH2 0x3ADA JUMP JUMPDEST DUP1 ISZERO PUSH2 0x1592 JUMPI DUP1 PUSH1 0x1F LT PUSH2 0x1567 JUMPI PUSH2 0x100 DUP1 DUP4 SLOAD DIV MUL DUP4 MSTORE SWAP2 PUSH1 0x20 ADD SWAP2 PUSH2 0x1592 JUMP JUMPDEST DUP3 ADD SWAP2 SWAP1 PUSH1 0x0 MSTORE PUSH1 0x20 PUSH1 0x0 KECCAK256 SWAP1 JUMPDEST DUP2 SLOAD DUP2 MSTORE SWAP1 PUSH1 0x1 ADD SWAP1 PUSH1 0x20 ADD DUP1 DUP4 GT PUSH2 0x1575 JUMPI DUP3 SWAP1 SUB PUSH1 0x1F AND DUP3 ADD SWAP2 JUMPDEST POP POP POP POP POP SWAP1 POP DUP5 JUMP JUMPDEST PUSH2 0x15A5 DUP4 PUSH2 0x95C JUMP JUMPDEST ISZERO PUSH2 0x15E5 JUMPI PUSH1 0x40 MLOAD PUSH32 0x8C379A000000000000000000000000000000000000000000000000000000000 DUP2 MSTORE PUSH1 0x4 ADD PUSH2 0x15DC SWAP1 PUSH2 0x3730 JUMP JUMPDEST PUSH1 0x40 MLOAD DUP1 SWAP2 SUB SWAP1 REVERT JUMPDEST PUSH1 0x1 PUSH1 0x7 PUSH1 0x0 DUP6 PUSH20 0xFFFFFFFFFFFFFFFFFFFFFFFFFFFFFFFFFFFFFFFF AND PUSH20 0xFFFFFFFFFFFFFFFFFFFFFFFFFFFFFFFFFFFFFFFF AND DUP2 MSTORE PUSH1 0x20 ADD SWAP1 DUP2 MSTORE PUSH1 0x20 ADD PUSH1 0x0 KECCAK256 PUSH1 0x0 ADD PUSH1 0x0 PUSH2 0x100 EXP DUP2 SLOAD DUP2 PUSH1 0xFF MUL NOT AND SWAP1 DUP4 ISZERO ISZERO MUL OR SWAP1 SSTORE POP DUP2 PUSH1 0x7 PUSH1 0x0 DUP6 PUSH20 0xFFFFFFFFFFFFFFFFFFFFFFFFFFFFFFFFFFFFFFFF AND PUSH20 0xFFFFFFFFFFFFFFFFFFFFFFFFFFFFFFFFFFFFFFFF AND DUP2 MSTORE PUSH1 0x20 ADD SWAP1 DUP2 MSTORE PUSH1 0x20 ADD PUSH1 0x0 KECCAK256 PUSH1 0x1 ADD SWAP1 DUP1 MLOAD SWAP1 PUSH1 0x20 ADD SWAP1 PUSH2 0x1696 SWAP3 SWAP2 SWAP1 PUSH2 0x2CE6 JUMP JUMPDEST POP DUP1 PUSH1 0x7 PUSH1 0x0 DUP6 PUSH20 0xFFFFFFFFFFFFFFFFFFFFFFFFFFFFFFFFFFFFFFFF AND PUSH20 0xFFFFFFFFFFFFFFFFFFFFFFFFFFFFFFFFFFFFFFFF AND DUP2 MSTORE PUSH1 0x20 ADD SWAP1 DUP2 MSTORE PUSH1 0x20 ADD PUSH1 0x0 KECCAK256 PUSH1 0x2 ADD PUSH1 0x0 PUSH2 0x100 EXP DUP2 SLOAD DUP2 PUSH1 0xFF MUL NOT AND SWAP1 DUP4 PUSH1 0xFF AND MUL OR SWAP1 SSTORE POP POP POP POP JUMP JUMPDEST PUSH1 0x0 PUSH1 0x8 PUSH1 0x0 DUP4 PUSH20 0xFFFFFFFFFFFFFFFFFFFFFFFFFFFFFFFFFFFFFFFF AND PUSH20 0xFFFFFFFFFFFFFFFFFFFFFFFFFFFFFFFFFFFFFFFF AND DUP2 MSTORE PUSH1 0x20 ADD SWAP1 DUP2 MSTORE PUSH1 0x20 ADD PUSH1 0x0 KECCAK256 PUSH1 0x0 ADD PUSH1 0x0 SWAP1 SLOAD SWAP1 PUSH2 0x100 EXP SWAP1 DIV PUSH1 0xFF AND SWAP1 POP SWAP2 SWAP1 POP JUMP JUMPDEST PUSH1 0x0 PUSH1 0xC PUSH1 0x0 SWAP1 SLOAD SWAP1 PUSH2 0x100 EXP SWAP1 DIV PUSH20 0xFFFFFFFFFFFFFFFFFFFFFFFFFFFFFFFFFFFFFFFF AND PUSH20 0xFFFFFFFFFFFFFFFFFFFFFFFFFFFFFFFFFFFFFFFF AND PUSH4 0x514E03C7 CALLER PUSH1 0x40 MLOAD DUP3 PUSH4 0xFFFFFFFF AND PUSH1 0xE0 SHL DUP2 MSTORE PUSH1 0x4 ADD PUSH2 0x17AD SWAP2 SWAP1 PUSH2 0x3548 JUMP JUMPDEST PUSH1 0x20 PUSH1 0x40 MLOAD DUP1 DUP4 SUB DUP2 DUP7 DUP1 EXTCODESIZE ISZERO DUP1 ISZERO PUSH2 0x17C5 JUMPI PUSH1 0x0 DUP1 REVERT JUMPDEST POP GAS STATICCALL ISZERO DUP1 ISZERO PUSH2 0x17D9 JUMPI RETURNDATASIZE PUSH1 0x0 DUP1 RETURNDATACOPY RETURNDATASIZE PUSH1 0x0 REVERT JUMPDEST POP POP POP POP PUSH1 0x40 MLOAD RETURNDATASIZE PUSH1 0x1F NOT PUSH1 0x1F DUP3 ADD AND DUP3 ADD DUP1 PUSH1 0x40 MSTORE POP DUP2 ADD SWAP1 PUSH2 0x17FD SWAP2 SWAP1 PUSH2 0x2FE9 JUMP JUMPDEST DUP1 PUSH2 0x18AF JUMPI POP PUSH1 0xC PUSH1 0x0 SWAP1 SLOAD SWAP1 PUSH2 0x100 EXP SWAP1 DIV PUSH20 0xFFFFFFFFFFFFFFFFFFFFFFFFFFFFFFFFFFFFFFFF AND PUSH20 0xFFFFFFFFFFFFFFFFFFFFFFFFFFFFFFFFFFFFFFFF AND PUSH4 0x2D087D70 CALLER PUSH1 0x40 MLOAD DUP3 PUSH4 0xFFFFFFFF AND PUSH1 0xE0 SHL DUP2 MSTORE PUSH1 0x4 ADD PUSH2 0x185E SWAP2 SWAP1 PUSH2 0x3548 JUMP JUMPDEST PUSH1 0x20 PUSH1 0x40 MLOAD DUP1 DUP4 SUB DUP2 DUP7 DUP1 EXTCODESIZE ISZERO DUP1 ISZERO PUSH2 0x1876 JUMPI PUSH1 0x0 DUP1 REVERT JUMPDEST POP GAS STATICCALL ISZERO DUP1 ISZERO PUSH2 0x188A JUMPI RETURNDATASIZE PUSH1 0x0 DUP1 RETURNDATACOPY RETURNDATASIZE PUSH1 0x0 REVERT JUMPDEST POP POP POP POP PUSH1 0x40 MLOAD RETURNDATASIZE PUSH1 0x1F NOT PUSH1 0x1F DUP3 ADD AND DUP3 ADD DUP1 PUSH1 0x40 MSTORE POP DUP2 ADD SWAP1 PUSH2 0x18AE SWAP2 SWAP1 PUSH2 0x2FE9 JUMP JUMPDEST JUMPDEST PUSH2 0x18EE JUMPI PUSH1 0x40 MLOAD PUSH32 0x8C379A000000000000000000000000000000000000000000000000000000000 DUP2 MSTORE PUSH1 0x4 ADD PUSH2 0x18E5 SWAP1 PUSH2 0x37B0 JUMP JUMPDEST PUSH1 0x40 MLOAD DUP1 SWAP2 SUB SWAP1 REVERT JUMPDEST PUSH1 0xC PUSH1 0x0 SWAP1 SLOAD SWAP1 PUSH2 0x100 EXP SWAP1 DIV PUSH20 0xFFFFFFFFFFFFFFFFFFFFFFFFFFFFFFFFFFFFFFFF AND PUSH20 0xFFFFFFFFFFFFFFFFFFFFFFFFFFFFFFFFFFFFFFFF AND PUSH4 0x514E03C7 CALLER PUSH1 0x40 MLOAD DUP3 PUSH4 0xFFFFFFFF AND PUSH1 0xE0 SHL DUP2 MSTORE PUSH1 0x4 ADD PUSH2 0x1949 SWAP2 SWAP1 PUSH2 0x3548 JUMP JUMPDEST PUSH1 0x20 PUSH1 0x40 MLOAD DUP1 DUP4 SUB DUP2 DUP7 DUP1 EXTCODESIZE ISZERO DUP1 ISZERO PUSH2 0x1961 JUMPI PUSH1 0x0 DUP1 REVERT JUMPDEST POP GAS STATICCALL ISZERO DUP1 ISZERO PUSH2 0x1975 JUMPI RETURNDATASIZE PUSH1 0x0 DUP1 RETURNDATACOPY RETURNDATASIZE PUSH1 0x0 REVERT JUMPDEST POP POP POP POP PUSH1 0x40 MLOAD RETURNDATASIZE PUSH1 0x1F NOT PUSH1 0x1F DUP3 ADD AND DUP3 ADD DUP1 PUSH1 0x40 MSTORE POP DUP2 ADD SWAP1 PUSH2 0x1999 SWAP2 SWAP1 PUSH2 0x2FE9 JUMP JUMPDEST DUP1 PUSH2 0x1A4B JUMPI POP PUSH1 0xC PUSH1 0x0 SWAP1 SLOAD SWAP1 PUSH2 0x100 EXP SWAP1 DIV PUSH20 0xFFFFFFFFFFFFFFFFFFFFFFFFFFFFFFFFFFFFFFFF AND PUSH20 0xFFFFFFFFFFFFFFFFFFFFFFFFFFFFFFFFFFFFFFFF AND PUSH4 0x2D087D70 CALLER PUSH1 0x40 MLOAD DUP3 PUSH4 0xFFFFFFFF AND PUSH1 0xE0 SHL DUP2 MSTORE PUSH1 0x4 ADD PUSH2 0x19FA SWAP2 SWAP1 PUSH2 0x3548 JUMP JUMPDEST PUSH1 0x20 PUSH1 0x40 MLOAD DUP1 DUP4 SUB DUP2 DUP7 DUP1 EXTCODESIZE ISZERO DUP1 ISZERO PUSH2 0x1A12 JUMPI PUSH1 0x0 DUP1 REVERT JUMPDEST POP GAS STATICCALL ISZERO DUP1 ISZERO PUSH2 0x1A26 JUMPI RETURNDATASIZE PUSH1 0x0 DUP1 RETURNDATACOPY RETURNDATASIZE PUSH1 0x0 REVERT JUMPDEST POP POP POP POP PUSH1 0x40 MLOAD RETURNDATASIZE PUSH1 0x1F NOT PUSH1 0x1F DUP3 ADD AND DUP3 ADD DUP1 PUSH1 0x40 MSTORE POP DUP2 ADD SWAP1 PUSH2 0x1A4A SWAP2 SWAP1 PUSH2 0x2FE9 JUMP JUMPDEST JUMPDEST PUSH2 0x1A8A JUMPI PUSH1 0x40 MLOAD PUSH32 0x8C379A000000000000000000000000000000000000000000000000000000000 DUP2 MSTORE PUSH1 0x4 ADD PUSH2 0x1A81 SWAP1 PUSH2 0x3850 JUMP JUMPDEST PUSH1 0x40 MLOAD DUP1 SWAP2 SUB SWAP1 REVERT JUMPDEST CALLER PUSH20 0xFFFFFFFFFFFFFFFFFFFFFFFFFFFFFFFFFFFFFFFF AND PUSH1 0xF PUSH1 0x0 DUP15 DUP2 MSTORE PUSH1 0x20 ADD SWAP1 DUP2 MSTORE PUSH1 0x20 ADD PUSH1 0x0 KECCAK256 PUSH1 0x0 ADD PUSH1 0x0 SWAP1 SLOAD SWAP1 PUSH2 0x100 EXP SWAP1 DIV PUSH20 0xFFFFFFFFFFFFFFFFFFFFFFFFFFFFFFFFFFFFFFFF AND PUSH20 0xFFFFFFFFFFFFFFFFFFFFFFFFFFFFFFFFFFFFFFFF AND EQ PUSH2 0x1B2E JUMPI PUSH1 0x40 MLOAD PUSH32 0x8C379A000000000000000000000000000000000000000000000000000000000 DUP2 MSTORE PUSH1 0x4 ADD PUSH2 0x1B25 SWAP1 PUSH2 0x37D0 JUMP JUMPDEST PUSH1 0x40 MLOAD DUP1 SWAP2 SUB SWAP1 REVERT JUMPDEST DUP11 PUSH1 0xF PUSH1 0x0 DUP15 DUP2 MSTORE PUSH1 0x20 ADD SWAP1 DUP2 MSTORE PUSH1 0x20 ADD PUSH1 0x0 KECCAK256 PUSH1 0x0 ADD PUSH1 0x14 PUSH2 0x100 EXP DUP2 SLOAD DUP2 PUSH4 0xFFFFFFFF MUL NOT AND SWAP1 DUP4 PUSH4 0xFFFFFFFF AND MUL OR SWAP1 SSTORE POP DUP10 PUSH1 0xF PUSH1 0x0 DUP15 DUP2 MSTORE PUSH1 0x20 ADD SWAP1 DUP2 MSTORE PUSH1 0x20 ADD PUSH1 0x0 KECCAK256 PUSH1 0x0 ADD PUSH1 0x18 PUSH2 0x100 EXP DUP2 SLOAD DUP2 PUSH1 0xFF MUL NOT AND SWAP1 DUP4 PUSH1 0xFF AND MUL OR SWAP1 SSTORE POP DUP9 PUSH1 0xF PUSH1 0x0 DUP15 DUP2 MSTORE PUSH1 0x20 ADD SWAP1 DUP2 MSTORE PUSH1 0x20 ADD PUSH1 0x0 KECCAK256 PUSH1 0x0 ADD PUSH1 0x19 PUSH2 0x100 EXP DUP2 SLOAD DUP2 PUSH1 0xFF MUL NOT AND SWAP1 DUP4 PUSH1 0x2 DUP2 GT ISZERO PUSH2 0x1BCB JUMPI PUSH2 0x1BCA PUSH2 0x3BB5 JUMP JUMPDEST JUMPDEST MUL OR SWAP1 SSTORE POP DUP8 PUSH1 0xF PUSH1 0x0 DUP15 DUP2 MSTORE PUSH1 0x20 ADD SWAP1 DUP2 MSTORE PUSH1 0x20 ADD PUSH1 0x0 KECCAK256 PUSH1 0x1 ADD SWAP1 DUP1 MLOAD SWAP1 PUSH1 0x20 ADD SWAP1 PUSH2 0x1BFA SWAP3 SWAP2 SWAP1 PUSH2 0x2CE6 JUMP JUMPDEST POP DUP7 PUSH1 0xF PUSH1 0x0 DUP15 DUP2 MSTORE PUSH1 0x20 ADD SWAP1 DUP2 MSTORE PUSH1 0x20 ADD PUSH1 0x0 KECCAK256 PUSH1 0x2 ADD SWAP1 DUP1 MLOAD SWAP1 PUSH1 0x20 ADD SWAP1 PUSH2 0x1C25 SWAP3 SWAP2 SWAP1 PUSH2 0x2CE6 JUMP JUMPDEST POP DUP6 PUSH1 0xF PUSH1 0x0 DUP15 DUP2 MSTORE PUSH1 0x20 ADD SWAP1 DUP2 MSTORE PUSH1 0x20 ADD PUSH1 0x0 KECCAK256 PUSH1 0x3 ADD DUP2 SWAP1 SSTORE POP DUP5 PUSH1 0xF PUSH1 0x0 DUP15 DUP2 MSTORE PUSH1 0x20 ADD SWAP1 DUP2 MSTORE PUSH1 0x20 ADD PUSH1 0x0 KECCAK256 PUSH1 0x4 ADD DUP2 SWAP1 SSTORE POP DUP2 PUSH1 0xF PUSH1 0x0 DUP15 DUP2 MSTORE PUSH1 0x20 ADD SWAP1 DUP2 MSTORE PUSH1 0x20 ADD PUSH1 0x0 KECCAK256 PUSH1 0x5 ADD PUSH1 0x0 PUSH2 0x100 EXP DUP2 SLOAD DUP2 PUSH1 0xFF MUL NOT AND SWAP1 DUP4 PUSH1 0xFF AND MUL OR SWAP1 SSTORE POP DUP4 PUSH1 0xF PUSH1 0x0 DUP15 DUP2 MSTORE PUSH1 0x20 ADD SWAP1 DUP2 MSTORE PUSH1 0x20 ADD PUSH1 0x0 KECCAK256 PUSH1 0x5 ADD PUSH1 0x1 PUSH2 0x100 EXP DUP2 SLOAD DUP2 PUSH1 0xFF MUL NOT AND SWAP1 DUP4 PUSH1 0xFF AND MUL OR SWAP1 SSTORE POP DUP3 PUSH1 0xF PUSH1 0x0 DUP15 DUP2 MSTORE PUSH1 0x20 ADD SWAP1 DUP2 MSTORE PUSH1 0x20 ADD PUSH1 0x0 KECCAK256 PUSH1 0x5 ADD PUSH1 0x2 PUSH2 0x100 EXP DUP2 SLOAD DUP2 PUSH4 0xFFFFFFFF MUL NOT AND SWAP1 DUP4 PUSH4 0xFFFFFFFF AND MUL OR SWAP1 SSTORE POP PUSH32 0xEC48A115D5383D58AF17EEC867438B24CAB63CB72DC0F36AC4E64E90FDEBEA0F DUP13 CALLER DUP14 DUP14 PUSH1 0x40 MLOAD PUSH2 0x1D24 SWAP5 SWAP4 SWAP3 SWAP2 SWAP1 PUSH2 0x38F4 JUMP JUMPDEST PUSH1 0x40 MLOAD DUP1 SWAP2 SUB SWAP1 LOG1 DUP12 SWAP1 POP SWAP12 SWAP11 POP POP POP POP POP POP POP POP POP POP POP JUMP JUMPDEST PUSH1 0x0 DUP1 SLOAD SWAP1 PUSH2 0x100 EXP SWAP1 DIV PUSH20 0xFFFFFFFFFFFFFFFFFFFFFFFFFFFFFFFFFFFFFFFF AND DUP2 JUMP JUMPDEST PUSH1 0x10 PUSH1 0x20 MSTORE DUP2 PUSH1 0x0 MSTORE PUSH1 0x40 PUSH1 0x0 KECCAK256 PUSH1 0x20 MSTORE DUP1 PUSH1 0x0 MSTORE PUSH1 0x40 PUSH1 0x0 KECCAK256 PUSH1 0x0 SWAP2 POP SWAP2 POP POP DUP1 PUSH1 0x0 ADD PUSH1 0x0 SWAP1 SLOAD SWAP1 PUSH2 0x100 EXP SWAP1 DIV PUSH1 0xFF AND SWAP1 POP DUP2 JUMP JUMPDEST PUSH1 0x8 PUSH1 0x20 MSTORE DUP1 PUSH1 0x0 MSTORE PUSH1 0x40 PUSH1 0x0 KECCAK256 PUSH1 0x0 SWAP2 POP SWAP1 POP DUP1 PUSH1 0x0 ADD PUSH1 0x0 SWAP1 SLOAD SWAP1 PUSH2 0x100 EXP SWAP1 DIV PUSH1 0xFF AND SWAP1 DUP1 PUSH1 0x1 ADD DUP1 SLOAD PUSH2 0x1DD0 SWAP1 PUSH2 0x3ADA JUMP JUMPDEST DUP1 PUSH1 0x1F ADD PUSH1 0x20 DUP1 SWAP2 DIV MUL PUSH1 0x20 ADD PUSH1 0x40 MLOAD SWAP1 DUP2 ADD PUSH1 0x40 MSTORE DUP1 SWAP3 SWAP2 SWAP1 DUP2 DUP2 MSTORE PUSH1 0x20 ADD DUP3 DUP1 SLOAD PUSH2 0x1DFC SWAP1 PUSH2 0x3ADA JUMP JUMPDEST DUP1 ISZERO PUSH2 0x1E49 JUMPI DUP1 PUSH1 0x1F LT PUSH2 0x1E1E JUMPI PUSH2 0x100 DUP1 DUP4 SLOAD DIV MUL DUP4 MSTORE SWAP2 PUSH1 0x20 ADD SWAP2 PUSH2 0x1E49 JUMP JUMPDEST DUP3 ADD SWAP2 SWAP1 PUSH1 0x0 MSTORE PUSH1 0x20 PUSH1 0x0 KECCAK256 SWAP1 JUMPDEST DUP2 SLOAD DUP2 MSTORE SWAP1 PUSH1 0x1 ADD SWAP1 PUSH1 0x20 ADD DUP1 DUP4 GT PUSH2 0x1E2C JUMPI DUP3 SWAP1 SUB PUSH1 0x1F AND DUP3 ADD SWAP2 JUMPDEST POP POP POP POP POP SWAP1 DUP1 PUSH1 0x2 ADD PUSH1 0x0 SWAP1 SLOAD SWAP1 PUSH2 0x100 EXP SWAP1 DIV PUSH1 0xFF AND SWAP1 POP DUP4 JUMP JUMPDEST PUSH1 0x0 PUSH1 0x9 PUSH1 0x0 DUP4 PUSH20 0xFFFFFFFFFFFFFFFFFFFFFFFFFFFFFFFFFFFFFFFF AND PUSH20 0xFFFFFFFFFFFFFFFFFFFFFFFFFFFFFFFFFFFFFFFF AND DUP2 MSTORE PUSH1 0x20 ADD SWAP1 DUP2 MSTORE PUSH1 0x20 ADD PUSH1 0x0 KECCAK256 PUSH1 0x0 ADD PUSH1 0x0 SWAP1 SLOAD SWAP1 PUSH2 0x100 EXP SWAP1 DIV PUSH1 0xFF AND SWAP1 POP SWAP2 SWAP1 POP JUMP JUMPDEST PUSH1 0x9 PUSH1 0x20 MSTORE DUP1 PUSH1 0x0 MSTORE PUSH1 0x40 PUSH1 0x0 KECCAK256 PUSH1 0x0 SWAP2 POP SWAP1 POP DUP1 PUSH1 0x0 ADD PUSH1 0x0 SWAP1 SLOAD SWAP1 PUSH2 0x100 EXP SWAP1 DIV PUSH1 0xFF AND SWAP1 DUP1 PUSH1 0x1 ADD DUP1 SLOAD PUSH2 0x1EF5 SWAP1 PUSH2 0x3ADA JUMP JUMPDEST DUP1 PUSH1 0x1F ADD PUSH1 0x20 DUP1 SWAP2 DIV MUL PUSH1 0x20 ADD PUSH1 0x40 MLOAD SWAP1 DUP2 ADD PUSH1 0x40 MSTORE DUP1 SWAP3 SWAP2 SWAP1 DUP2 DUP2 MSTORE PUSH1 0x20 ADD DUP3 DUP1 SLOAD PUSH2 0x1F21 SWAP1 PUSH2 0x3ADA JUMP JUMPDEST DUP1 ISZERO PUSH2 0x1F6E JUMPI DUP1 PUSH1 0x1F LT PUSH2 0x1F43 JUMPI PUSH2 0x100 DUP1 DUP4 SLOAD DIV MUL DUP4 MSTORE SWAP2 PUSH1 0x20 ADD SWAP2 PUSH2 0x1F6E JUMP JUMPDEST DUP3 ADD SWAP2 SWAP1 PUSH1 0x0 MSTORE PUSH1 0x20 PUSH1 0x0 KECCAK256 SWAP1 JUMPDEST DUP2 SLOAD DUP2 MSTORE SWAP1 PUSH1 0x1 ADD SWAP1 PUSH1 0x20 ADD DUP1 DUP4 GT PUSH2 0x1F51 JUMPI DUP3 SWAP1 SUB PUSH1 0x1F AND DUP3 ADD SWAP2 JUMPDEST POP POP POP POP POP SWAP1 DUP1 PUSH1 0x2 ADD PUSH1 0x0 SWAP1 SLOAD SWAP1 PUSH2 0x100 EXP SWAP1 DIV PUSH1 0xFF AND SWAP1 POP DUP4 JUMP JUMPDEST PUSH2 0x1F94 DUP4 PUSH2 0x29D8 JUMP JUMPDEST ISZERO PUSH2 0x1FD4 JUMPI PUSH1 0x40 MLOAD PUSH32 0x8C379A000000000000000000000000000000000000000000000000000000000 DUP2 MSTORE PUSH1 0x4 ADD PUSH2 0x1FCB SWAP1 PUSH2 0x3790 JUMP JUMPDEST PUSH1 0x40 MLOAD DUP1 SWAP2 SUB SWAP1 REVERT JUMPDEST PUSH1 0x1 PUSH1 0xA PUSH1 0x0 DUP6 PUSH20 0xFFFFFFFFFFFFFFFFFFFFFFFFFFFFFFFFFFFFFFFF AND PUSH20 0xFFFFFFFFFFFFFFFFFFFFFFFFFFFFFFFFFFFFFFFF AND DUP2 MSTORE PUSH1 0x20 ADD SWAP1 DUP2 MSTORE PUSH1 0x20 ADD PUSH1 0x0 KECCAK256 PUSH1 0x0 ADD PUSH1 0x0 PUSH2 0x100 EXP DUP2 SLOAD DUP2 PUSH1 0xFF MUL NOT AND SWAP1 DUP4 ISZERO ISZERO MUL OR SWAP1 SSTORE POP DUP2 PUSH1 0xA PUSH1 0x0 DUP6 PUSH20 0xFFFFFFFFFFFFFFFFFFFFFFFFFFFFFFFFFFFFFFFF AND PUSH20 0xFFFFFFFFFFFFFFFFFFFFFFFFFFFFFFFFFFFFFFFF AND DUP2 MSTORE PUSH1 0x20 ADD SWAP1 DUP2 MSTORE PUSH1 0x20 ADD PUSH1 0x0 KECCAK256 PUSH1 0x1 ADD SWAP1 DUP1 MLOAD SWAP1 PUSH1 0x20 ADD SWAP1 PUSH2 0x2085 SWAP3 SWAP2 SWAP1 PUSH2 0x2CE6 JUMP JUMPDEST POP DUP1 PUSH1 0xA PUSH1 0x0 DUP6 PUSH20 0xFFFFFFFFFFFFFFFFFFFFFFFFFFFFFFFFFFFFFFFF AND PUSH20 0xFFFFFFFFFFFFFFFFFFFFFFFFFFFFFFFFFFFFFFFF AND DUP2 MSTORE PUSH1 0x20 ADD SWAP1 DUP2 MSTORE PUSH1 0x20 ADD PUSH1 0x0 KECCAK256 PUSH1 0x2 ADD PUSH1 0x0 PUSH2 0x100 EXP DUP2 SLOAD DUP2 PUSH1 0xFF MUL NOT AND SWAP1 DUP4 PUSH1 0xFF AND MUL OR SWAP1 SSTORE POP POP POP POP JUMP JUMPDEST PUSH1 0xB PUSH1 0x20 MSTORE DUP1 PUSH1 0x0 MSTORE PUSH1 0x40 PUSH1 0x0 KECCAK256 PUSH1 0x0 SWAP2 POP SWAP1 POP DUP1 PUSH1 0x0 ADD PUSH1 0x0 SWAP1 SLOAD SWAP1 PUSH2 0x100 EXP SWAP1 DIV PUSH4 0xFFFFFFFF AND SWAP1 DUP1 PUSH1 0x1 ADD DUP1 SLOAD PUSH2 0x211F SWAP1 PUSH2 0x3ADA JUMP JUMPDEST DUP1 PUSH1 0x1F ADD PUSH1 0x20 DUP1 SWAP2 DIV MUL PUSH1 0x20 ADD PUSH1 0x40 MLOAD SWAP1 DUP2 ADD PUSH1 0x40 MSTORE DUP1 SWAP3 SWAP2 SWAP1 DUP2 DUP2 MSTORE PUSH1 0x20 ADD DUP3 DUP1 SLOAD PUSH2 0x214B SWAP1 PUSH2 0x3ADA JUMP JUMPDEST DUP1 ISZERO PUSH2 0x2198 JUMPI DUP1 PUSH1 0x1F LT PUSH2 0x216D JUMPI PUSH2 0x100 DUP1 DUP4 SLOAD DIV MUL DUP4 MSTORE SWAP2 PUSH1 0x20 ADD SWAP2 PUSH2 0x2198 JUMP JUMPDEST DUP3 ADD SWAP2 SWAP1 PUSH1 0x0 MSTORE PUSH1 0x20 PUSH1 0x0 KECCAK256 SWAP1 JUMPDEST DUP2 SLOAD DUP2 MSTORE SWAP1 PUSH1 0x1 ADD SWAP1 PUSH1 0x20 ADD DUP1 DUP4 GT PUSH2 0x217B JUMPI DUP3 SWAP1 SUB PUSH1 0x1F AND DUP3 ADD SWAP2 JUMPDEST POP POP POP POP POP SWAP1 POP DUP3 JUMP JUMPDEST PUSH1 0x0 PUSH1 0xC PUSH1 0x0 SWAP1 SLOAD SWAP1 PUSH2 0x100 EXP SWAP1 DIV PUSH20 0xFFFFFFFFFFFFFFFFFFFFFFFFFFFFFFFFFFFFFFFF AND PUSH20 0xFFFFFFFFFFFFFFFFFFFFFFFFFFFFFFFFFFFFFFFF AND PUSH4 0xB98CCEFD CALLER PUSH1 0x40 MLOAD DUP3 PUSH4 0xFFFFFFFF AND PUSH1 0xE0 SHL DUP2 MSTORE PUSH1 0x4 ADD PUSH2 0x21FF SWAP2 SWAP1 PUSH2 0x3548 JUMP JUMPDEST PUSH1 0x20 PUSH1 0x40 MLOAD DUP1 DUP4 SUB DUP2 DUP7 DUP1 EXTCODESIZE ISZERO DUP1 ISZERO PUSH2 0x2217 JUMPI PUSH1 0x0 DUP1 REVERT JUMPDEST POP GAS STATICCALL ISZERO DUP1 ISZERO PUSH2 0x222B JUMPI RETURNDATASIZE PUSH1 0x0 DUP1 RETURNDATACOPY RETURNDATASIZE PUSH1 0x0 REVERT JUMPDEST POP POP POP POP PUSH1 0x40 MLOAD RETURNDATASIZE PUSH1 0x1F NOT PUSH1 0x1F DUP3 ADD AND DUP3 ADD DUP1 PUSH1 0x40 MSTORE POP DUP2 ADD SWAP1 PUSH2 0x224F SWAP2 SWAP1 PUSH2 0x2FE9 JUMP JUMPDEST PUSH2 0x228E JUMPI PUSH1 0x40 MLOAD PUSH32 0x8C379A000000000000000000000000000000000000000000000000000000000 DUP2 MSTORE PUSH1 0x4 ADD PUSH2 0x2285 SWAP1 PUSH2 0x3770 JUMP JUMPDEST PUSH1 0x40 MLOAD DUP1 SWAP2 SUB SWAP1 REVERT JUMPDEST PUSH1 0x10 PUSH1 0x0 DUP4 DUP2 MSTORE PUSH1 0x20 ADD SWAP1 DUP2 MSTORE PUSH1 0x20 ADD PUSH1 0x0 KECCAK256 PUSH1 0x0 CALLER PUSH20 0xFFFFFFFFFFFFFFFFFFFFFFFFFFFFFFFFFFFFFFFF AND PUSH20 0xFFFFFFFFFFFFFFFFFFFFFFFFFFFFFFFFFFFFFFFF AND DUP2 MSTORE PUSH1 0x20 ADD SWAP1 DUP2 MSTORE PUSH1 0x20 ADD PUSH1 0x0 KECCAK256 PUSH1 0x0 ADD PUSH1 0x0 SWAP1 SLOAD SWAP1 PUSH2 0x100 EXP SWAP1 DIV PUSH1 0xFF AND PUSH2 0x232E JUMPI PUSH1 0x40 MLOAD PUSH32 0x8C379A000000000000000000000000000000000000000000000000000000000 DUP2 MSTORE PUSH1 0x4 ADD PUSH2 0x2325 SWAP1 PUSH2 0x3870 JUMP JUMPDEST PUSH1 0x40 MLOAD DUP1 SWAP2 SUB SWAP1 REVERT JUMPDEST PUSH1 0x1 PUSH1 0x10 PUSH1 0x0 DUP5 DUP2 MSTORE PUSH1 0x20 ADD SWAP1 DUP2 MSTORE PUSH1 0x20 ADD PUSH1 0x0 KECCAK256 PUSH1 0x0 CALLER PUSH20 0xFFFFFFFFFFFFFFFFFFFFFFFFFFFFFFFFFFFFFFFF AND PUSH20 0xFFFFFFFFFFFFFFFFFFFFFFFFFFFFFFFFFFFFFFFF AND DUP2 MSTORE PUSH1 0x20 ADD SWAP1 DUP2 MSTORE PUSH1 0x20 ADD PUSH1 0x0 KECCAK256 PUSH1 0x0 ADD PUSH1 0x0 PUSH2 0x100 EXP DUP2 SLOAD DUP2 PUSH1 0xFF MUL NOT AND SWAP1 DUP4 ISZERO ISZERO MUL OR SWAP1 SSTORE POP PUSH32 0x7E06965495DFDCAD403B1A0D21A429740FBB5C2B86745E07940D39C109479F00 DUP3 CALLER PUSH1 0x40 MLOAD PUSH2 0x23CB SWAP3 SWAP2 SWAP1 PUSH2 0x38CB JUMP JUMPDEST PUSH1 0x40 MLOAD DUP1 SWAP2 SUB SWAP1 LOG1 DUP2 SWAP1 POP SWAP2 SWAP1 POP JUMP JUMPDEST PUSH1 0xD SLOAD DUP2 JUMP JUMPDEST PUSH1 0xF PUSH1 0x20 MSTORE DUP1 PUSH1 0x0 MSTORE PUSH1 0x40 PUSH1 0x0 KECCAK256 PUSH1 0x0 SWAP2 POP SWAP1 POP DUP1 PUSH1 0x0 ADD PUSH1 0x0 SWAP1 SLOAD SWAP1 PUSH2 0x100 EXP SWAP1 DIV PUSH20 0xFFFFFFFFFFFFFFFFFFFFFFFFFFFFFFFFFFFFFFFF AND SWAP1 DUP1 PUSH1 0x0 ADD PUSH1 0x14 SWAP1 SLOAD SWAP1 PUSH2 0x100 EXP SWAP1 DIV PUSH4 0xFFFFFFFF AND SWAP1 DUP1 PUSH1 0x0 ADD PUSH1 0x18 SWAP1 SLOAD SWAP1 PUSH2 0x100 EXP SWAP1 DIV PUSH1 0xFF AND SWAP1 DUP1 PUSH1 0x0 ADD PUSH1 0x19 SWAP1 SLOAD SWAP1 PUSH2 0x100 EXP SWAP1 DIV PUSH1 0xFF AND SWAP1 DUP1 PUSH1 0x1 ADD DUP1 SLOAD PUSH2 0x2466 SWAP1 PUSH2 0x3ADA JUMP JUMPDEST DUP1 PUSH1 0x1F ADD PUSH1 0x20 DUP1 SWAP2 DIV MUL PUSH1 0x20 ADD PUSH1 0x40 MLOAD SWAP1 DUP2 ADD PUSH1 0x40 MSTORE DUP1 SWAP3 SWAP2 SWAP1 DUP2 DUP2 MSTORE PUSH1 0x20 ADD DUP3 DUP1 SLOAD PUSH2 0x2492 SWAP1 PUSH2 0x3ADA JUMP JUMPDEST DUP1 ISZERO PUSH2 0x24DF JUMPI DUP1 PUSH1 0x1F LT PUSH2 0x24B4 JUMPI PUSH2 0x100 DUP1 DUP4 SLOAD DIV MUL DUP4 MSTORE SWAP2 PUSH1 0x20 ADD SWAP2 PUSH2 0x24DF JUMP JUMPDEST DUP3 ADD SWAP2 SWAP1 PUSH1 0x0 MSTORE PUSH1 0x20 PUSH1 0x0 KECCAK256 SWAP1 JUMPDEST DUP2 SLOAD DUP2 MSTORE SWAP1 PUSH1 0x1 ADD SWAP1 PUSH1 0x20 ADD DUP1 DUP4 GT PUSH2 0x24C2 JUMPI DUP3 SWAP1 SUB PUSH1 0x1F AND DUP3 ADD SWAP2 JUMPDEST POP POP POP POP POP SWAP1 DUP1 PUSH1 0x2 ADD DUP1 SLOAD PUSH2 0x24F4 SWAP1 PUSH2 0x3ADA JUMP JUMPDEST DUP1 PUSH1 0x1F ADD PUSH1 0x20 DUP1 SWAP2 DIV MUL PUSH1 0x20 ADD PUSH1 0x40 MLOAD SWAP1 DUP2 ADD PUSH1 0x40 MSTORE DUP1 SWAP3 SWAP2 SWAP1 DUP2 DUP2 MSTORE PUSH1 0x20 ADD DUP3 DUP1 SLOAD PUSH2 0x2520 SWAP1 PUSH2 0x3ADA JUMP JUMPDEST DUP1 ISZERO PUSH2 0x256D JUMPI DUP1 PUSH1 0x1F LT PUSH2 0x2542 JUMPI PUSH2 0x100 DUP1 DUP4 SLOAD DIV MUL DUP4 MSTORE SWAP2 PUSH1 0x20 ADD SWAP2 PUSH2 0x256D JUMP JUMPDEST DUP3 ADD SWAP2 SWAP1 PUSH1 0x0 MSTORE PUSH1 0x20 PUSH1 0x0 KECCAK256 SWAP1 JUMPDEST DUP2 SLOAD DUP2 MSTORE SWAP1 PUSH1 0x1 ADD SWAP1 PUSH1 0x20 ADD DUP1 DUP4 GT PUSH2 0x2550 JUMPI DUP3 SWAP1 SUB PUSH1 0x1F AND DUP3 ADD SWAP2 JUMPDEST POP POP POP POP POP SWAP1 DUP1 PUSH1 0x3 ADD SLOAD SWAP1 DUP1 PUSH1 0x4 ADD SLOAD SWAP1 DUP1 PUSH1 0x5 ADD PUSH1 0x0 SWAP1 SLOAD SWAP1 PUSH2 0x100 EXP SWAP1 DIV PUSH1 0xFF AND SWAP1 DUP1 PUSH1 0x5 ADD PUSH1 0x1 SWAP1 SLOAD SWAP1 PUSH2 0x100 EXP SWAP1 DIV PUSH1 0xFF AND SWAP1 DUP1 PUSH1 0x5 ADD PUSH1 0x2 SWAP1 SLOAD SWAP1 PUSH2 0x100 EXP SWAP1 DIV PUSH4 0xFFFFFFFF AND SWAP1 POP DUP12 JUMP JUMPDEST PUSH1 0xE SLOAD DUP2 JUMP JUMPDEST PUSH1 0x0 PUSH1 0x3 PUSH1 0x0 DUP4 PUSH20 0xFFFFFFFFFFFFFFFFFFFFFFFFFFFFFFFFFFFFFFFF AND PUSH20 0xFFFFFFFFFFFFFFFFFFFFFFFFFFFFFFFFFFFFFFFF AND DUP2 MSTORE PUSH1 0x20 ADD SWAP1 DUP2 MSTORE PUSH1 0x20 ADD PUSH1 0x0 KECCAK256 PUSH1 0x0 ADD PUSH1 0x0 SWAP1 SLOAD SWAP1 PUSH2 0x100 EXP SWAP1 DIV PUSH1 0xFF AND SWAP1 POP SWAP2 SWAP1 POP JUMP JUMPDEST PUSH1 0x5 PUSH1 0x20 MSTORE DUP1 PUSH1 0x0 MSTORE PUSH1 0x40 PUSH1 0x0 KECCAK256 PUSH1 0x0 SWAP2 POP SWAP1 POP DUP1 PUSH1 0x0 ADD PUSH1 0x0 SWAP1 SLOAD SWAP1 PUSH2 0x100 EXP SWAP1 DIV PUSH1 0xFF AND SWAP1 DUP1 PUSH1 0x0 ADD PUSH1 0x1 SWAP1 SLOAD SWAP1 PUSH2 0x100 EXP SWAP1 DIV PUSH20 0xFFFFFFFFFFFFFFFFFFFFFFFFFFFFFFFFFFFFFFFF AND SWAP1 DUP1 PUSH1 0x0 ADD PUSH1 0x15 SWAP1 SLOAD SWAP1 PUSH2 0x100 EXP SWAP1 DIV PUSH2 0xFFFF AND SWAP1 DUP1 PUSH1 0x0 ADD PUSH1 0x17 SWAP1 SLOAD SWAP1 PUSH2 0x100 EXP SWAP1 DIV PUSH1 0xFF AND SWAP1 DUP1 PUSH1 0x1 ADD DUP1 SLOAD PUSH2 0x26A1 SWAP1 PUSH2 0x3ADA JUMP JUMPDEST DUP1 PUSH1 0x1F ADD PUSH1 0x20 DUP1 SWAP2 DIV MUL PUSH1 0x20 ADD PUSH1 0x40 MLOAD SWAP1 DUP2 ADD PUSH1 0x40 MSTORE DUP1 SWAP3 SWAP2 SWAP1 DUP2 DUP2 MSTORE PUSH1 0x20 ADD DUP3 DUP1 SLOAD PUSH2 0x26CD SWAP1 PUSH2 0x3ADA JUMP JUMPDEST DUP1 ISZERO PUSH2 0x271A JUMPI DUP1 PUSH1 0x1F LT PUSH2 0x26EF JUMPI PUSH2 0x100 DUP1 DUP4 SLOAD DIV MUL DUP4 MSTORE SWAP2 PUSH1 0x20 ADD SWAP2 PUSH2 0x271A JUMP JUMPDEST DUP3 ADD SWAP2 SWAP1 PUSH1 0x0 MSTORE PUSH1 0x20 PUSH1 0x0 KECCAK256 SWAP1 JUMPDEST DUP2 SLOAD DUP2 MSTORE SWAP1 PUSH1 0x1 ADD SWAP1 PUSH1 0x20 ADD DUP1 DUP4 GT PUSH2 0x26FD JUMPI DUP3 SWAP1 SUB PUSH1 0x1F AND DUP3 ADD SWAP2 JUMPDEST POP POP POP POP POP SWAP1 DUP1 PUSH1 0x2 ADD DUP1 SLOAD PUSH2 0x272F SWAP1 PUSH2 0x3ADA JUMP JUMPDEST DUP1 PUSH1 0x1F ADD PUSH1 0x20 DUP1 SWAP2 DIV MUL PUSH1 0x20 ADD PUSH1 0x40 MLOAD SWAP1 DUP2 ADD PUSH1 0x40 MSTORE DUP1 SWAP3 SWAP2 SWAP1 DUP2 DUP2 MSTORE PUSH1 0x20 ADD DUP3 DUP1 SLOAD PUSH2 0x275B SWAP1 PUSH2 0x3ADA JUMP JUMPDEST DUP1 ISZERO PUSH2 0x27A8 JUMPI DUP1 PUSH1 0x1F LT PUSH2 0x277D JUMPI PUSH2 0x100 DUP1 DUP4 SLOAD DIV MUL DUP4 MSTORE SWAP2 PUSH1 0x20 ADD SWAP2 PUSH2 0x27A8 JUMP JUMPDEST DUP3 ADD SWAP2 SWAP1 PUSH1 0x0 MSTORE PUSH1 0x20 PUSH1 0x0 KECCAK256 SWAP1 JUMPDEST DUP2 SLOAD DUP2 MSTORE SWAP1 PUSH1 0x1 ADD SWAP1 PUSH1 0x20 ADD DUP1 DUP4 GT PUSH2 0x278B JUMPI DUP3 SWAP1 SUB PUSH1 0x1F AND DUP3 ADD SWAP2 JUMPDEST POP POP POP POP POP SWAP1 POP DUP7 JUMP JUMPDEST PUSH1 0x3 PUSH1 0x20 MSTORE DUP1 PUSH1 0x0 MSTORE PUSH1 0x40 PUSH1 0x0 KECCAK256 PUSH1 0x0 SWAP2 POP SWAP1 POP DUP1 PUSH1 0x0 ADD PUSH1 0x0 SWAP1 SLOAD SWAP1 PUSH2 0x100 EXP SWAP1 DIV PUSH1 0xFF AND SWAP1 POP DUP2 JUMP JUMPDEST PUSH2 0x27E6 DUP5 PUSH2 0x12DE JUMP JUMPDEST ISZERO PUSH2 0x2826 JUMPI PUSH1 0x40 MLOAD PUSH32 0x8C379A000000000000000000000000000000000000000000000000000000000 DUP2 MSTORE PUSH1 0x4 ADD PUSH2 0x281D SWAP1 PUSH2 0x3750 JUMP JUMPDEST PUSH1 0x40 MLOAD DUP1 SWAP2 SUB SWAP1 REVERT JUMPDEST PUSH1 0x1 PUSH1 0x6 PUSH1 0x0 DUP7 PUSH20 0xFFFFFFFFFFFFFFFFFFFFFFFFFFFFFFFFFFFFFFFF AND PUSH20 0xFFFFFFFFFFFFFFFFFFFFFFFFFFFFFFFFFFFFFFFF AND DUP2 MSTORE PUSH1 0x20 ADD SWAP1 DUP2 MSTORE PUSH1 0x20 ADD PUSH1 0x0 KECCAK256 PUSH1 0x0 ADD PUSH1 0x0 PUSH2 0x100 EXP DUP2 SLOAD DUP2 PUSH1 0xFF MUL NOT AND SWAP1 DUP4 ISZERO ISZERO MUL OR SWAP1 SSTORE POP DUP3 PUSH1 0x6 PUSH1 0x0 DUP7 PUSH20 0xFFFFFFFFFFFFFFFFFFFFFFFFFFFFFFFFFFFFFFFF AND PUSH20 0xFFFFFFFFFFFFFFFFFFFFFFFFFFFFFFFFFFFFFFFF AND DUP2 MSTORE PUSH1 0x20 ADD SWAP1 DUP2 MSTORE PUSH1 0x20 ADD PUSH1 0x0 KECCAK256 PUSH1 0x2 ADD SWAP1 DUP1 MLOAD SWAP1 PUSH1 0x20 ADD SWAP1 PUSH2 0x28D7 SWAP3 SWAP2 SWAP1 PUSH2 0x2CE6 JUMP JUMPDEST POP DUP1 PUSH1 0x6 PUSH1 0x0 DUP7 PUSH20 0xFFFFFFFFFFFFFFFFFFFFFFFFFFFFFFFFFFFFFFFF AND PUSH20 0xFFFFFFFFFFFFFFFFFFFFFFFFFFFFFFFFFFFFFFFF AND DUP2 MSTORE PUSH1 0x20 ADD SWAP1 DUP2 MSTORE PUSH1 0x20 ADD PUSH1 0x0 KECCAK256 PUSH1 0x0 ADD PUSH1 0x1 PUSH2 0x100 EXP DUP2 SLOAD DUP2 PUSH1 0xFF MUL NOT AND SWAP1 DUP4 PUSH1 0xFF AND MUL OR SWAP1 SSTORE POP DUP2 PUSH1 0x6 PUSH1 0x0 DUP7 PUSH20 0xFFFFFFFFFFFFFFFFFFFFFFFFFFFFFFFFFFFFFFFF AND PUSH20 0xFFFFFFFFFFFFFFFFFFFFFFFFFFFFFFFFFFFFFFFF AND DUP2 MSTORE PUSH1 0x20 ADD SWAP1 DUP2 MSTORE PUSH1 0x20 ADD PUSH1 0x0 KECCAK256 PUSH1 0x1 ADD DUP2 SWAP1 SSTORE POP POP POP POP POP JUMP JUMPDEST PUSH1 0x0 DUP2 PUSH20 0xFFFFFFFFFFFFFFFFFFFFFFFFFFFFFFFFFFFFFFFF AND PUSH1 0x0 DUP1 SLOAD SWAP1 PUSH2 0x100 EXP SWAP1 DIV PUSH20 0xFFFFFFFFFFFFFFFFFFFFFFFFFFFFFFFFFFFFFFFF AND PUSH20 0xFFFFFFFFFFFFFFFFFFFFFFFFFFFFFFFFFFFFFFFF AND EQ SWAP1 POP SWAP2 SWAP1 POP JUMP JUMPDEST PUSH1 0x0 PUSH1 0xA PUSH1 0x0 DUP4 PUSH20 0xFFFFFFFFFFFFFFFFFFFFFFFFFFFFFFFFFFFFFFFF AND PUSH20 0xFFFFFFFFFFFFFFFFFFFFFFFFFFFFFFFFFFFFFFFF AND DUP2 MSTORE PUSH1 0x20 ADD SWAP1 DUP2 MSTORE PUSH1 0x20 ADD PUSH1 0x0 KECCAK256 PUSH1 0x0 ADD PUSH1 0x0 SWAP1 SLOAD SWAP1 PUSH2 0x100 EXP SWAP1 DIV PUSH1 0xFF AND SWAP1 POP SWAP2 SWAP1 POP JUMP JUMPDEST PUSH1 0x0 DUP2 PUSH20 0xFFFFFFFFFFFFFFFFFFFFFFFFFFFFFFFFFFFFFFFF AND PUSH1 0x2 PUSH1 0x0 SWAP1 SLOAD SWAP1 PUSH2 0x100 EXP SWAP1 DIV PUSH20 0xFFFFFFFFFFFFFFFFFFFFFFFFFFFFFFFFFFFFFFFF AND PUSH20 0xFFFFFFFFFFFFFFFFFFFFFFFFFFFFFFFFFFFFFFFF AND EQ SWAP1 POP SWAP2 SWAP1 POP JUMP JUMPDEST PUSH1 0x0 PUSH1 0x4 PUSH1 0x0 DUP4 PUSH20 0xFFFFFFFFFFFFFFFFFFFFFFFFFFFFFFFFFFFFFFFF AND PUSH20 0xFFFFFFFFFFFFFFFFFFFFFFFFFFFFFFFFFFFFFFFF AND DUP2 MSTORE PUSH1 0x20 ADD SWAP1 DUP2 MSTORE PUSH1 0x20 ADD PUSH1 0x0 KECCAK256 PUSH1 0x0 ADD PUSH1 0x0 SWAP1 SLOAD SWAP1 PUSH2 0x100 EXP SWAP1 DIV PUSH1 0xFF AND SWAP1 POP SWAP2 SWAP1 POP JUMP JUMPDEST PUSH2 0x2AED DUP2 PUSH2 0x25C5 JUMP JUMPDEST ISZERO PUSH2 0x2B2D JUMPI PUSH1 0x40 MLOAD PUSH32 0x8C379A000000000000000000000000000000000000000000000000000000000 DUP2 MSTORE PUSH1 0x4 ADD PUSH2 0x2B24 SWAP1 PUSH2 0x3830 JUMP JUMPDEST PUSH1 0x40 MLOAD DUP1 SWAP2 SUB SWAP1 REVERT JUMPDEST PUSH1 0x1 PUSH1 0x3 PUSH1 0x0 DUP4 PUSH20 0xFFFFFFFFFFFFFFFFFFFFFFFFFFFFFFFFFFFFFFFF AND PUSH20 0xFFFFFFFFFFFFFFFFFFFFFFFFFFFFFFFFFFFFFFFF AND DUP2 MSTORE PUSH1 0x20 ADD SWAP1 DUP2 MSTORE PUSH1 0x20 ADD PUSH1 0x0 KECCAK256 PUSH1 0x0 ADD PUSH1 0x0 PUSH2 0x100 EXP DUP2 SLOAD DUP2 PUSH1 0xFF MUL NOT AND SWAP1 DUP4 ISZERO ISZERO MUL OR SWAP1 SSTORE POP POP JUMP JUMPDEST PUSH2 0x2B94 DUP4 PUSH2 0x16F7 JUMP JUMPDEST ISZERO PUSH2 0x2BD4 JUMPI PUSH1 0x40 MLOAD PUSH32 0x8C379A000000000000000000000000000000000000000000000000000000000 DUP2 MSTORE PUSH1 0x4 ADD PUSH2 0x2BCB SWAP1 PUSH2 0x3890 JUMP JUMPDEST PUSH1 0x40 MLOAD DUP1 SWAP2 SUB SWAP1 REVERT JUMPDEST PUSH1 0x1 PUSH1 0x8 PUSH1 0x0 DUP6 PUSH20 0xFFFFFFFFFFFFFFFFFFFFFFFFFFFFFFFFFFFFFFFF AND PUSH20 0xFFFFFFFFFFFFFFFFFFFFFFFFFFFFFFFFFFFFFFFF AND DUP2 MSTORE PUSH1 0x20 ADD SWAP1 DUP2 MSTORE PUSH1 0x20 ADD PUSH1 0x0 KECCAK256 PUSH1 0x0 ADD PUSH1 0x0 PUSH2 0x100 EXP DUP2 SLOAD DUP2 PUSH1 0xFF MUL NOT AND SWAP1 DUP4 ISZERO ISZERO MUL OR SWAP1 SSTORE POP DUP2 PUSH1 0x8 PUSH1 0x0 DUP6 PUSH20 0xFFFFFFFFFFFFFFFFFFFFFFFFFFFFFFFFFFFFFFFF AND PUSH20 0xFFFFFFFFFFFFFFFFFFFFFFFFFFFFFFFFFFFFFFFF AND DUP2 MSTORE PUSH1 0x20 ADD SWAP1 DUP2 MSTORE PUSH1 0x20 ADD PUSH1 0x0 KECCAK256 PUSH1 0x1 ADD SWAP1 DUP1 MLOAD SWAP1 PUSH1 0x20 ADD SWAP1 PUSH2 0x2C85 SWAP3 SWAP2 SWAP1 PUSH2 0x2CE6 JUMP JUMPDEST POP DUP1 PUSH1 0x8 PUSH1 0x0 DUP6 PUSH20 0xFFFFFFFFFFFFFFFFFFFFFFFFFFFFFFFFFFFFFFFF AND PUSH20 0xFFFFFFFFFFFFFFFFFFFFFFFFFFFFFFFFFFFFFFFF AND DUP2 MSTORE PUSH1 0x20 ADD SWAP1 DUP2 MSTORE PUSH1 0x20 ADD PUSH1 0x0 KECCAK256 PUSH1 0x2 ADD PUSH1 0x0 PUSH2 0x100 EXP DUP2 SLOAD DUP2 PUSH1 0xFF MUL NOT AND SWAP1 DUP4 PUSH1 0xFF AND MUL OR SWAP1 SSTORE POP POP POP POP JUMP JUMPDEST DUP3 DUP1 SLOAD PUSH2 0x2CF2 SWAP1 PUSH2 0x3ADA JUMP JUMPDEST SWAP1 PUSH1 0x0 MSTORE PUSH1 0x20 PUSH1 0x0 KECCAK256 SWAP1 PUSH1 0x1F ADD PUSH1 0x20 SWAP1 DIV DUP2 ADD SWAP3 DUP3 PUSH2 0x2D14 JUMPI PUSH1 0x0 DUP6 SSTORE PUSH2 0x2D5B JUMP JUMPDEST DUP3 PUSH1 0x1F LT PUSH2 0x2D2D JUMPI DUP1 MLOAD PUSH1 0xFF NOT AND DUP4 DUP1 ADD OR DUP6 SSTORE PUSH2 0x2D5B JUMP JUMPDEST DUP3 DUP1 ADD PUSH1 0x1 ADD DUP6 SSTORE DUP3 ISZERO PUSH2 0x2D5B JUMPI SWAP2 DUP3 ADD JUMPDEST DUP3 DUP2 GT ISZERO PUSH2 0x2D5A JUMPI DUP3 MLOAD DUP3 SSTORE SWAP2 PUSH1 0x20 ADD SWAP2 SWAP1 PUSH1 0x1 ADD SWAP1 PUSH2 0x2D3F JUMP JUMPDEST JUMPDEST POP SWAP1 POP PUSH2 0x2D68 SWAP2 SWAP1 PUSH2 0x2D6C JUMP JUMPDEST POP SWAP1 JUMP JUMPDEST JUMPDEST DUP1 DUP3 GT ISZERO PUSH2 0x2D85 JUMPI PUSH1 0x0 DUP2 PUSH1 0x0 SWAP1 SSTORE POP PUSH1 0x1 ADD PUSH2 0x2D6D JUMP JUMPDEST POP SWAP1 JUMP JUMPDEST PUSH1 0x0 PUSH2 0x2D9C PUSH2 0x2D97 DUP5 PUSH2 0x398E JUMP JUMPDEST PUSH2 0x3969 JUMP JUMPDEST SWAP1 POP DUP3 DUP2 MSTORE PUSH1 0x20 DUP2 ADD DUP5 DUP5 DUP5 ADD GT ISZERO PUSH2 0x2DB8 JUMPI PUSH2 0x2DB7 PUSH2 0x3C47 JUMP JUMPDEST JUMPDEST PUSH2 0x2DC3 DUP5 DUP3 DUP6 PUSH2 0x3A98 JUMP JUMPDEST POP SWAP4 SWAP3 POP POP POP JUMP JUMPDEST PUSH1 0x0 DUP2 CALLDATALOAD SWAP1 POP PUSH2 0x2DDA DUP2 PUSH2 0x3EED JUMP JUMPDEST SWAP3 SWAP2 POP POP JUMP JUMPDEST PUSH1 0x0 DUP2 MLOAD SWAP1 POP PUSH2 0x2DEF DUP2 PUSH2 0x3F04 JUMP JUMPDEST SWAP3 SWAP2 POP POP JUMP JUMPDEST PUSH1 0x0 DUP2 CALLDATALOAD SWAP1 POP PUSH2 0x2E04 DUP2 PUSH2 0x3F1B JUMP JUMPDEST SWAP3 SWAP2 POP POP JUMP JUMPDEST PUSH1 0x0 DUP3 PUSH1 0x1F DUP4 ADD SLT PUSH2 0x2E1F JUMPI PUSH2 0x2E1E PUSH2 0x3C42 JUMP JUMPDEST JUMPDEST DUP2 CALLDATALOAD PUSH2 0x2E2F DUP5 DUP3 PUSH1 0x20 DUP7 ADD PUSH2 0x2D89 JUMP JUMPDEST SWAP2 POP POP SWAP3 SWAP2 POP POP JUMP JUMPDEST PUSH1 0x0 DUP2 CALLDATALOAD SWAP1 POP PUSH2 0x2E47 DUP2 PUSH2 0x3F2B JUMP JUMPDEST SWAP3 SWAP2 POP POP JUMP JUMPDEST PUSH1 0x0 DUP2 CALLDATALOAD SWAP1 POP PUSH2 0x2E5C DUP2 PUSH2 0x3F42 JUMP JUMPDEST SWAP3 SWAP2 POP POP JUMP JUMPDEST PUSH1 0x0 DUP2 CALLDATALOAD SWAP1 POP PUSH2 0x2E71 DUP2 PUSH2 0x3F59 JUMP JUMPDEST SWAP3 SWAP2 POP POP JUMP JUMPDEST PUSH1 0x0 PUSH1 0x20 DUP3 DUP5 SUB SLT ISZERO PUSH2 0x2E8D JUMPI PUSH2 0x2E8C PUSH2 0x3C51 JUMP JUMPDEST JUMPDEST PUSH1 0x0 PUSH2 0x2E9B DUP5 DUP3 DUP6 ADD PUSH2 0x2DCB JUMP JUMPDEST SWAP2 POP POP SWAP3 SWAP2 POP POP JUMP JUMPDEST PUSH1 0x0 DUP1 PUSH1 0x0 PUSH1 0x60 DUP5 DUP7 SUB SLT ISZERO PUSH2 0x2EBD JUMPI PUSH2 0x2EBC PUSH2 0x3C51 JUMP JUMPDEST JUMPDEST PUSH1 0x0 PUSH2 0x2ECB DUP7 DUP3 DUP8 ADD PUSH2 0x2DCB JUMP JUMPDEST SWAP4 POP POP PUSH1 0x20 PUSH2 0x2EDC DUP7 DUP3 DUP8 ADD PUSH2 0x2DCB JUMP JUMPDEST SWAP3 POP POP PUSH1 0x40 PUSH2 0x2EED DUP7 DUP3 DUP8 ADD PUSH2 0x2DCB JUMP JUMPDEST SWAP2 POP POP SWAP3 POP SWAP3 POP SWAP3 JUMP JUMPDEST PUSH1 0x0 DUP1 PUSH1 0x0 DUP1 PUSH1 0x80 DUP6 DUP8 SUB SLT ISZERO PUSH2 0x2F11 JUMPI PUSH2 0x2F10 PUSH2 0x3C51 JUMP JUMPDEST JUMPDEST PUSH1 0x0 PUSH2 0x2F1F DUP8 DUP3 DUP9 ADD PUSH2 0x2DCB JUMP JUMPDEST SWAP5 POP POP PUSH1 0x20 DUP6 ADD CALLDATALOAD PUSH8 0xFFFFFFFFFFFFFFFF DUP2 GT ISZERO PUSH2 0x2F40 JUMPI PUSH2 0x2F3F PUSH2 0x3C4C JUMP JUMPDEST JUMPDEST PUSH2 0x2F4C DUP8 DUP3 DUP9 ADD PUSH2 0x2E0A JUMP JUMPDEST SWAP4 POP POP PUSH1 0x40 PUSH2 0x2F5D DUP8 DUP3 DUP9 ADD PUSH2 0x2E38 JUMP JUMPDEST SWAP3 POP POP PUSH1 0x60 PUSH2 0x2F6E DUP8 DUP3 DUP9 ADD PUSH2 0x2E62 JUMP JUMPDEST SWAP2 POP POP SWAP3 SWAP6 SWAP2 SWAP5 POP SWAP3 POP JUMP JUMPDEST PUSH1 0x0 DUP1 PUSH1 0x0 PUSH1 0x60 DUP5 DUP7 SUB SLT ISZERO PUSH2 0x2F93 JUMPI PUSH2 0x2F92 PUSH2 0x3C51 JUMP JUMPDEST JUMPDEST PUSH1 0x0 PUSH2 0x2FA1 DUP7 DUP3 DUP8 ADD PUSH2 0x2DCB JUMP JUMPDEST SWAP4 POP POP PUSH1 0x20 DUP5 ADD CALLDATALOAD PUSH8 0xFFFFFFFFFFFFFFFF DUP2 GT ISZERO PUSH2 0x2FC2 JUMPI PUSH2 0x2FC1 PUSH2 0x3C4C JUMP JUMPDEST JUMPDEST PUSH2 0x2FCE DUP7 DUP3 DUP8 ADD PUSH2 0x2E0A JUMP JUMPDEST SWAP3 POP POP PUSH1 0x40 PUSH2 0x2FDF DUP7 DUP3 DUP8 ADD PUSH2 0x2E62 JUMP JUMPDEST SWAP2 POP POP SWAP3 POP SWAP3 POP SWAP3 JUMP JUMPDEST PUSH1 0x0 PUSH1 0x20 DUP3 DUP5 SUB SLT ISZERO PUSH2 0x2FFF JUMPI PUSH2 0x2FFE PUSH2 0x3C51 JUMP JUMPDEST JUMPDEST PUSH1 0x0 PUSH2 0x300D DUP5 DUP3 DUP6 ADD PUSH2 0x2DE0 JUMP JUMPDEST SWAP2 POP POP SWAP3 SWAP2 POP POP JUMP JUMPDEST PUSH1 0x0 PUSH1 0x20 DUP3 DUP5 SUB SLT ISZERO PUSH2 0x302C JUMPI PUSH2 0x302B PUSH2 0x3C51 JUMP JUMPDEST JUMPDEST PUSH1 0x0 PUSH2 0x303A DUP5 DUP3 DUP6 ADD PUSH2 0x2E38 JUMP JUMPDEST SWAP2 POP POP SWAP3 SWAP2 POP POP JUMP JUMPDEST PUSH1 0x0 DUP1 PUSH1 0x40 DUP4 DUP6 SUB SLT ISZERO PUSH2 0x305A JUMPI PUSH2 0x3059 PUSH2 0x3C51 JUMP JUMPDEST JUMPDEST PUSH1 0x0 PUSH2 0x3068 DUP6 DUP3 DUP7 ADD PUSH2 0x2E38 JUMP JUMPDEST SWAP3 POP POP PUSH1 0x20 PUSH2 0x3079 DUP6 DUP3 DUP7 ADD PUSH2 0x2DCB JUMP JUMPDEST SWAP2 POP POP SWAP3 POP SWAP3 SWAP1 POP JUMP JUMPDEST PUSH1 0x0 DUP1 PUSH1 0x0 DUP1 PUSH1 0x0 DUP1 PUSH1 0x0 DUP1 PUSH1 0x0 DUP1 PUSH1 0x0 PUSH2 0x160 DUP13 DUP15 SUB SLT ISZERO PUSH2 0x30A9 JUMPI PUSH2 0x30A8 PUSH2 0x3C51 JUMP JUMPDEST JUMPDEST PUSH1 0x0 PUSH2 0x30B7 DUP15 DUP3 DUP16 ADD PUSH2 0x2E38 JUMP JUMPDEST SWAP12 POP POP PUSH1 0x20 PUSH2 0x30C8 DUP15 DUP3 DUP16 ADD PUSH2 0x2E4D JUMP JUMPDEST SWAP11 POP POP PUSH1 0x40 PUSH2 0x30D9 DUP15 DUP3 DUP16 ADD PUSH2 0x2E62 JUMP JUMPDEST SWAP10 POP POP PUSH1 0x60 PUSH2 0x30EA DUP15 DUP3 DUP16 ADD PUSH2 0x2DF5 JUMP JUMPDEST SWAP9 POP POP PUSH1 0x80 DUP13 ADD CALLDATALOAD PUSH8 0xFFFFFFFFFFFFFFFF DUP2 GT ISZERO PUSH2 0x310B JUMPI PUSH2 0x310A PUSH2 0x3C4C JUMP JUMPDEST JUMPDEST PUSH2 0x3117 DUP15 DUP3 DUP16 ADD PUSH2 0x2E0A JUMP JUMPDEST SWAP8 POP POP PUSH1 0xA0 DUP13 ADD CALLDATALOAD PUSH8 0xFFFFFFFFFFFFFFFF DUP2 GT ISZERO PUSH2 0x3138 JUMPI PUSH2 0x3137 PUSH2 0x3C4C JUMP JUMPDEST JUMPDEST PUSH2 0x3144 DUP15 DUP3 DUP16 ADD PUSH2 0x2E0A JUMP JUMPDEST SWAP7 POP POP PUSH1 0xC0 PUSH2 0x3155 DUP15 DUP3 DUP16 ADD PUSH2 0x2E38 JUMP JUMPDEST SWAP6 POP POP PUSH1 0xE0 PUSH2 0x3166 DUP15 DUP3 DUP16 ADD PUSH2 0x2E38 JUMP JUMPDEST SWAP5 POP POP PUSH2 0x100 PUSH2 0x3178 DUP15 DUP3 DUP16 ADD PUSH2 0x2E62 JUMP JUMPDEST SWAP4 POP POP PUSH2 0x120 PUSH2 0x318A DUP15 DUP3 DUP16 ADD PUSH2 0x2E4D JUMP JUMPDEST SWAP3 POP POP PUSH2 0x140 PUSH2 0x319C DUP15 DUP3 DUP16 ADD PUSH2 0x2E62 JUMP JUMPDEST SWAP2 POP POP SWAP3 SWAP6 SWAP9 SWAP12 POP SWAP3 SWAP6 SWAP9 SWAP12 SWAP1 SWAP4 SWAP7 SWAP10 POP JUMP JUMPDEST PUSH1 0x0 PUSH1 0x20 DUP3 DUP5 SUB SLT ISZERO PUSH2 0x31C5 JUMPI PUSH2 0x31C4 PUSH2 0x3C51 JUMP JUMPDEST JUMPDEST PUSH1 0x0 PUSH2 0x31D3 DUP5 DUP3 DUP6 ADD PUSH2 0x2E4D JUMP JUMPDEST SWAP2 POP POP SWAP3 SWAP2 POP POP JUMP JUMPDEST PUSH1 0x0 DUP1 PUSH1 0x0 DUP1 PUSH1 0x0 DUP1 PUSH1 0x0 DUP1 PUSH1 0x0 DUP1 PUSH2 0x140 DUP12 DUP14 SUB SLT ISZERO PUSH2 0x3200 JUMPI PUSH2 0x31FF PUSH2 0x3C51 JUMP JUMPDEST JUMPDEST PUSH1 0x0 PUSH2 0x320E DUP14 DUP3 DUP15 ADD PUSH2 0x2E4D JUMP JUMPDEST SWAP11 POP POP PUSH1 0x20 PUSH2 0x321F DUP14 DUP3 DUP15 ADD PUSH2 0x2E62 JUMP JUMPDEST SWAP10 POP POP PUSH1 0x40 PUSH2 0x3230 DUP14 DUP3 DUP15 ADD PUSH2 0x2DF5 JUMP JUMPDEST SWAP9 POP POP PUSH1 0x60 DUP12 ADD CALLDATALOAD PUSH8 0xFFFFFFFFFFFFFFFF DUP2 GT ISZERO PUSH2 0x3251 JUMPI PUSH2 0x3250 PUSH2 0x3C4C JUMP JUMPDEST JUMPDEST PUSH2 0x325D DUP14 DUP3 DUP15 ADD PUSH2 0x2E0A JUMP JUMPDEST SWAP8 POP POP PUSH1 0x80 DUP12 ADD CALLDATALOAD PUSH8 0xFFFFFFFFFFFFFFFF DUP2 GT ISZERO PUSH2 0x327E JUMPI PUSH2 0x327D PUSH2 0x3C4C JUMP JUMPDEST JUMPDEST PUSH2 0x328A DUP14 DUP3 DUP15 ADD PUSH2 0x2E0A JUMP JUMPDEST SWAP7 POP POP PUSH1 0xA0 PUSH2 0x329B DUP14 DUP3 DUP15 ADD PUSH2 0x2E38 JUMP JUMPDEST SWAP6 POP POP PUSH1 0xC0 PUSH2 0x32AC DUP14 DUP3 DUP15 ADD PUSH2 0x2E38 JUMP JUMPDEST SWAP5 POP POP PUSH1 0xE0 PUSH2 0x32BD DUP14 DUP3 DUP15 ADD PUSH2 0x2E62 JUMP JUMPDEST SWAP4 POP POP PUSH2 0x100 PUSH2 0x32CF DUP14 DUP3 DUP15 ADD PUSH2 0x2E4D JUMP JUMPDEST SWAP3 POP POP PUSH2 0x120 PUSH2 0x32E1 DUP14 DUP3 DUP15 ADD PUSH2 0x2E62 JUMP JUMPDEST SWAP2 POP POP SWAP3 SWAP6 SWAP9 SWAP12 SWAP2 SWAP5 SWAP8 SWAP11 POP SWAP3 SWAP6 SWAP9 POP JUMP JUMPDEST PUSH2 0x32FC DUP2 PUSH2 0x39DB JUMP JUMPDEST DUP3 MSTORE POP POP JUMP JUMPDEST PUSH2 0x330B DUP2 PUSH2 0x39ED JUMP JUMPDEST DUP3 MSTORE POP POP JUMP JUMPDEST PUSH2 0x331A DUP2 PUSH2 0x3A74 JUMP JUMPDEST DUP3 MSTORE POP POP JUMP JUMPDEST PUSH2 0x3329 DUP2 PUSH2 0x3A86 JUMP JUMPDEST DUP3 MSTORE POP POP JUMP JUMPDEST PUSH1 0x0 PUSH2 0x333A DUP3 PUSH2 0x39BF JUMP JUMPDEST PUSH2 0x3344 DUP2 DUP6 PUSH2 0x39CA JUMP JUMPDEST SWAP4 POP PUSH2 0x3354 DUP2 DUP6 PUSH1 0x20 DUP7 ADD PUSH2 0x3AA7 JUMP JUMPDEST PUSH2 0x335D DUP2 PUSH2 0x3C56 JUMP JUMPDEST DUP5 ADD SWAP2 POP POP SWAP3 SWAP2 POP POP JUMP JUMPDEST PUSH1 0x0 PUSH2 0x3375 PUSH1 0x19 DUP4 PUSH2 0x39CA JUMP JUMPDEST SWAP2 POP PUSH2 0x3380 DUP3 PUSH2 0x3C67 JUMP JUMPDEST PUSH1 0x20 DUP3 ADD SWAP1 POP SWAP2 SWAP1 POP JUMP JUMPDEST PUSH1 0x0 PUSH2 0x3398 PUSH1 0x12 DUP4 PUSH2 0x39CA JUMP JUMPDEST SWAP2 POP PUSH2 0x33A3 DUP3 PUSH2 0x3C90 JUMP JUMPDEST PUSH1 0x20 DUP3 ADD SWAP1 POP SWAP2 SWAP1 POP JUMP JUMPDEST PUSH1 0x0 PUSH2 0x33BB PUSH1 0x20 DUP4 PUSH2 0x39CA JUMP JUMPDEST SWAP2 POP PUSH2 0x33C6 DUP3 PUSH2 0x3CB9 JUMP JUMPDEST PUSH1 0x20 DUP3 ADD SWAP1 POP SWAP2 SWAP1 POP JUMP JUMPDEST PUSH1 0x0 PUSH2 0x33DE PUSH1 0x1E DUP4 PUSH2 0x39CA JUMP JUMPDEST SWAP2 POP PUSH2 0x33E9 DUP3 PUSH2 0x3CE2 JUMP JUMPDEST PUSH1 0x20 DUP3 ADD SWAP1 POP SWAP2 SWAP1 POP JUMP JUMPDEST PUSH1 0x0 PUSH2 0x3401 PUSH1 0x2A DUP4 PUSH2 0x39CA JUMP JUMPDEST SWAP2 POP PUSH2 0x340C DUP3 PUSH2 0x3D0B JUMP JUMPDEST PUSH1 0x40 DUP3 ADD SWAP1 POP SWAP2 SWAP1 POP JUMP JUMPDEST PUSH1 0x0 PUSH2 0x3424 PUSH1 0x25 DUP4 PUSH2 0x39CA JUMP JUMPDEST SWAP2 POP PUSH2 0x342F DUP3 PUSH2 0x3D5A JUMP JUMPDEST PUSH1 0x40 DUP3 ADD SWAP1 POP SWAP2 SWAP1 POP JUMP JUMPDEST PUSH1 0x0 PUSH2 0x3447 PUSH1 0x22 DUP4 PUSH2 0x39CA JUMP JUMPDEST SWAP2 POP PUSH2 0x3452 DUP3 PUSH2 0x3DA9 JUMP JUMPDEST PUSH1 0x40 DUP3 ADD SWAP1 POP SWAP2 SWAP1 POP JUMP JUMPDEST PUSH1 0x0 PUSH2 0x346A PUSH1 0x17 DUP4 PUSH2 0x39CA JUMP JUMPDEST SWAP2 POP PUSH2 0x3475 DUP3 PUSH2 0x3DF8 JUMP JUMPDEST PUSH1 0x20 DUP3 ADD SWAP1 POP SWAP2 SWAP1 POP JUMP JUMPDEST PUSH1 0x0 PUSH2 0x348D PUSH1 0x11 DUP4 PUSH2 0x39CA JUMP JUMPDEST SWAP2 POP PUSH2 0x3498 DUP3 PUSH2 0x3E21 JUMP JUMPDEST PUSH1 0x20 DUP3 ADD SWAP1 POP SWAP2 SWAP1 POP JUMP JUMPDEST PUSH1 0x0 PUSH2 0x34B0 PUSH1 0x1D DUP4 PUSH2 0x39CA JUMP JUMPDEST SWAP2 POP PUSH2 0x34BB DUP3 PUSH2 0x3E4A JUMP JUMPDEST PUSH1 0x20 DUP3 ADD SWAP1 POP SWAP2 SWAP1 POP JUMP JUMPDEST PUSH1 0x0 PUSH2 0x34D3 PUSH1 0x20 DUP4 PUSH2 0x39CA JUMP JUMPDEST SWAP2 POP PUSH2 0x34DE DUP3 PUSH2 0x3E73 JUMP JUMPDEST PUSH1 0x20 DUP3 ADD SWAP1 POP SWAP2 SWAP1 POP JUMP JUMPDEST PUSH1 0x0 PUSH2 0x34F6 PUSH1 0x17 DUP4 PUSH2 0x39CA JUMP JUMPDEST SWAP2 POP PUSH2 0x3501 DUP3 PUSH2 0x3E9C JUMP JUMPDEST PUSH1 0x20 DUP3 ADD SWAP1 POP SWAP2 SWAP1 POP JUMP JUMPDEST PUSH2 0x3515 DUP2 PUSH2 0x3A1F JUMP JUMPDEST DUP3 MSTORE POP POP JUMP JUMPDEST PUSH2 0x3524 DUP2 PUSH2 0x3A4D JUMP JUMPDEST DUP3 MSTORE POP POP JUMP JUMPDEST PUSH2 0x3533 DUP2 PUSH2 0x3A57 JUMP JUMPDEST DUP3 MSTORE POP POP JUMP JUMPDEST PUSH2 0x3542 DUP2 PUSH2 0x3A67 JUMP JUMPDEST DUP3 MSTORE POP POP JUMP JUMPDEST PUSH1 0x0 PUSH1 0x20 DUP3 ADD SWAP1 POP PUSH2 0x355D PUSH1 0x0 DUP4 ADD DUP5 PUSH2 0x32F3 JUMP JUMPDEST SWAP3 SWAP2 POP POP JUMP JUMPDEST PUSH1 0x0 PUSH2 0x160 DUP3 ADD SWAP1 POP PUSH2 0x3579 PUSH1 0x0 DUP4 ADD DUP15 PUSH2 0x32F3 JUMP JUMPDEST PUSH2 0x3586 PUSH1 0x20 DUP4 ADD DUP14 PUSH2 0x352A JUMP JUMPDEST PUSH2 0x3593 PUSH1 0x40 DUP4 ADD DUP13 PUSH2 0x3539 JUMP JUMPDEST PUSH2 0x35A0 PUSH1 0x60 DUP4 ADD DUP12 PUSH2 0x3311 JUMP JUMPDEST DUP2 DUP2 SUB PUSH1 0x80 DUP4 ADD MSTORE PUSH2 0x35B2 DUP2 DUP11 PUSH2 0x332F JUMP JUMPDEST SWAP1 POP DUP2 DUP2 SUB PUSH1 0xA0 DUP4 ADD MSTORE PUSH2 0x35C6 DUP2 DUP10 PUSH2 0x332F JUMP JUMPDEST SWAP1 POP PUSH2 0x35D5 PUSH1 0xC0 DUP4 ADD DUP9 PUSH2 0x351B JUMP JUMPDEST PUSH2 0x35E2 PUSH1 0xE0 DUP4 ADD DUP8 PUSH2 0x351B JUMP JUMPDEST PUSH2 0x35F0 PUSH2 0x100 DUP4 ADD DUP7 PUSH2 0x3539 JUMP JUMPDEST PUSH2 0x35FE PUSH2 0x120 DUP4 ADD DUP6 PUSH2 0x3539 JUMP JUMPDEST PUSH2 0x360C PUSH2 0x140 DUP4 ADD DUP5 PUSH2 0x352A JUMP JUMPDEST SWAP13 SWAP12 POP POP POP POP POP POP POP POP POP POP POP POP JUMP JUMPDEST PUSH1 0x0 PUSH1 0x20 DUP3 ADD SWAP1 POP PUSH2 0x3631 PUSH1 0x0 DUP4 ADD DUP5 PUSH2 0x3302 JUMP JUMPDEST SWAP3 SWAP2 POP POP JUMP JUMPDEST PUSH1 0x0 PUSH1 0xC0 DUP3 ADD SWAP1 POP PUSH2 0x364C PUSH1 0x0 DUP4 ADD DUP10 PUSH2 0x3302 JUMP JUMPDEST PUSH2 0x3659 PUSH1 0x20 DUP4 ADD DUP9 PUSH2 0x32F3 JUMP JUMPDEST PUSH2 0x3666 PUSH1 0x40 DUP4 ADD DUP8 PUSH2 0x350C JUMP JUMPDEST PUSH2 0x3673 PUSH1 0x60 DUP4 ADD DUP7 PUSH2 0x3320 JUMP JUMPDEST DUP2 DUP2 SUB PUSH1 0x80 DUP4 ADD MSTORE PUSH2 0x3685 DUP2 DUP6 PUSH2 0x332F JUMP JUMPDEST SWAP1 POP DUP2 DUP2 SUB PUSH1 0xA0 DUP4 ADD MSTORE PUSH2 0x3699 DUP2 DUP5 PUSH2 0x332F JUMP JUMPDEST SWAP1 POP SWAP8 SWAP7 POP POP POP POP POP POP POP JUMP JUMPDEST PUSH1 0x0 PUSH1 0x60 DUP3 ADD SWAP1 POP PUSH2 0x36BB PUSH1 0x0 DUP4 ADD DUP7 PUSH2 0x3302 JUMP JUMPDEST DUP2 DUP2 SUB PUSH1 0x20 DUP4 ADD MSTORE PUSH2 0x36CD DUP2 DUP6 PUSH2 0x332F JUMP JUMPDEST SWAP1 POP PUSH2 0x36DC PUSH1 0x40 DUP4 ADD DUP5 PUSH2 0x3539 JUMP JUMPDEST SWAP5 SWAP4 POP POP POP POP JUMP JUMPDEST PUSH1 0x0 PUSH1 0x80 DUP3 ADD SWAP1 POP PUSH2 0x36F9 PUSH1 0x0 DUP4 ADD DUP8 PUSH2 0x3302 JUMP JUMPDEST PUSH2 0x3706 PUSH1 0x20 DUP4 ADD DUP7 PUSH2 0x3539 JUMP JUMPDEST PUSH2 0x3713 PUSH1 0x40 DUP4 ADD DUP6 PUSH2 0x351B JUMP JUMPDEST DUP2 DUP2 SUB PUSH1 0x60 DUP4 ADD MSTORE PUSH2 0x3725 DUP2 DUP5 PUSH2 0x332F JUMP JUMPDEST SWAP1 POP SWAP6 SWAP5 POP POP POP POP POP JUMP JUMPDEST PUSH1 0x0 PUSH1 0x20 DUP3 ADD SWAP1 POP DUP2 DUP2 SUB PUSH1 0x0 DUP4 ADD MSTORE PUSH2 0x3749 DUP2 PUSH2 0x3368 JUMP JUMPDEST SWAP1 POP SWAP2 SWAP1 POP JUMP JUMPDEST PUSH1 0x0 PUSH1 0x20 DUP3 ADD SWAP1 POP DUP2 DUP2 SUB PUSH1 0x0 DUP4 ADD MSTORE PUSH2 0x3769 DUP2 PUSH2 0x338B JUMP JUMPDEST SWAP1 POP SWAP2 SWAP1 POP JUMP JUMPDEST PUSH1 0x0 PUSH1 0x20 DUP3 ADD SWAP1 POP DUP2 DUP2 SUB PUSH1 0x0 DUP4 ADD MSTORE PUSH2 0x3789 DUP2 PUSH2 0x33AE JUMP JUMPDEST SWAP1 POP SWAP2 SWAP1 POP JUMP JUMPDEST PUSH1 0x0 PUSH1 0x20 DUP3 ADD SWAP1 POP DUP2 DUP2 SUB PUSH1 0x0 DUP4 ADD MSTORE PUSH2 0x37A9 DUP2 PUSH2 0x33D1 JUMP JUMPDEST SWAP1 POP SWAP2 SWAP1 POP JUMP JUMPDEST PUSH1 0x0 PUSH1 0x20 DUP3 ADD SWAP1 POP DUP2 DUP2 SUB PUSH1 0x0 DUP4 ADD MSTORE PUSH2 0x37C9 DUP2 PUSH2 0x33F4 JUMP JUMPDEST SWAP1 POP SWAP2 SWAP1 POP JUMP JUMPDEST PUSH1 0x0 PUSH1 0x20 DUP3 ADD SWAP1 POP DUP2 DUP2 SUB PUSH1 0x0 DUP4 ADD MSTORE PUSH2 0x37E9 DUP2 PUSH2 0x3417 JUMP JUMPDEST SWAP1 POP SWAP2 SWAP1 POP JUMP JUMPDEST PUSH1 0x0 PUSH1 0x20 DUP3 ADD SWAP1 POP DUP2 DUP2 SUB PUSH1 0x0 DUP4 ADD MSTORE PUSH2 0x3809 DUP2 PUSH2 0x343A JUMP JUMPDEST SWAP1 POP SWAP2 SWAP1 POP JUMP JUMPDEST PUSH1 0x0 PUSH1 0x20 DUP3 ADD SWAP1 POP DUP2 DUP2 SUB PUSH1 0x0 DUP4 ADD MSTORE PUSH2 0x3829 DUP2 PUSH2 0x345D JUMP JUMPDEST SWAP1 POP SWAP2 SWAP1 POP JUMP JUMPDEST PUSH1 0x0 PUSH1 0x20 DUP3 ADD SWAP1 POP DUP2 DUP2 SUB PUSH1 0x0 DUP4 ADD MSTORE PUSH2 0x3849 DUP2 PUSH2 0x3480 JUMP JUMPDEST SWAP1 POP SWAP2 SWAP1 POP JUMP JUMPDEST PUSH1 0x0 PUSH1 0x20 DUP3 ADD SWAP1 POP DUP2 DUP2 SUB PUSH1 0x0 DUP4 ADD MSTORE PUSH2 0x3869 DUP2 PUSH2 0x34A3 JUMP JUMPDEST SWAP1 POP SWAP2 SWAP1 POP JUMP JUMPDEST PUSH1 0x0 PUSH1 0x20 DUP3 ADD SWAP1 POP DUP2 DUP2 SUB PUSH1 0x0 DUP4 ADD MSTORE PUSH2 0x3889 DUP2 PUSH2 0x34C6 JUMP JUMPDEST SWAP1 POP SWAP2 SWAP1 POP JUMP JUMPDEST PUSH1 0x0 PUSH1 0x20 DUP3 ADD SWAP1 POP DUP2 DUP2 SUB PUSH1 0x0 DUP4 ADD MSTORE PUSH2 0x38A9 DUP2 PUSH2 0x34E9 JUMP JUMPDEST SWAP1 POP SWAP2 SWAP1 POP JUMP JUMPDEST PUSH1 0x0 PUSH1 0x20 DUP3 ADD SWAP1 POP PUSH2 0x38C5 PUSH1 0x0 DUP4 ADD DUP5 PUSH2 0x351B JUMP JUMPDEST SWAP3 SWAP2 POP POP JUMP JUMPDEST PUSH1 0x0 PUSH1 0x40 DUP3 ADD SWAP1 POP PUSH2 0x38E0 PUSH1 0x0 DUP4 ADD DUP6 PUSH2 0x351B JUMP JUMPDEST PUSH2 0x38ED PUSH1 0x20 DUP4 ADD DUP5 PUSH2 0x32F3 JUMP JUMPDEST SWAP4 SWAP3 POP POP POP JUMP JUMPDEST PUSH1 0x0 PUSH1 0x80 DUP3 ADD SWAP1 POP PUSH2 0x3909 PUSH1 0x0 DUP4 ADD DUP8 PUSH2 0x351B JUMP JUMPDEST PUSH2 0x3916 PUSH1 0x20 DUP4 ADD DUP7 PUSH2 0x32F3 JUMP JUMPDEST PUSH2 0x3923 PUSH1 0x40 DUP4 ADD DUP6 PUSH2 0x352A JUMP JUMPDEST PUSH2 0x3930 PUSH1 0x60 DUP4 ADD DUP5 PUSH2 0x3539 JUMP JUMPDEST SWAP6 SWAP5 POP POP POP POP POP JUMP JUMPDEST PUSH1 0x0 PUSH1 0x40 DUP3 ADD SWAP1 POP PUSH2 0x394E PUSH1 0x0 DUP4 ADD DUP6 PUSH2 0x352A JUMP JUMPDEST DUP2 DUP2 SUB PUSH1 0x20 DUP4 ADD MSTORE PUSH2 0x3960 DUP2 DUP5 PUSH2 0x332F JUMP JUMPDEST SWAP1 POP SWAP4 SWAP3 POP POP POP JUMP JUMPDEST PUSH1 0x0 PUSH2 0x3973 PUSH2 0x3984 JUMP JUMPDEST SWAP1 POP PUSH2 0x397F DUP3 DUP3 PUSH2 0x3B0C JUMP JUMPDEST SWAP2 SWAP1 POP JUMP JUMPDEST PUSH1 0x0 PUSH1 0x40 MLOAD SWAP1 POP SWAP1 JUMP JUMPDEST PUSH1 0x0 PUSH8 0xFFFFFFFFFFFFFFFF DUP3 GT ISZERO PUSH2 0x39A9 JUMPI PUSH2 0x39A8 PUSH2 0x3C13 JUMP JUMPDEST JUMPDEST PUSH2 0x39B2 DUP3 PUSH2 0x3C56 JUMP JUMPDEST SWAP1 POP PUSH1 0x20 DUP2 ADD SWAP1 POP SWAP2 SWAP1 POP JUMP JUMPDEST PUSH1 0x0 DUP2 MLOAD SWAP1 POP SWAP2 SWAP1 POP JUMP JUMPDEST PUSH1 0x0 DUP3 DUP3 MSTORE PUSH1 0x20 DUP3 ADD SWAP1 POP SWAP3 SWAP2 POP POP JUMP JUMPDEST PUSH1 0x0 PUSH2 0x39E6 DUP3 PUSH2 0x3A2D JUMP JUMPDEST SWAP1 POP SWAP2 SWAP1 POP JUMP JUMPDEST PUSH1 0x0 DUP2 ISZERO ISZERO SWAP1 POP SWAP2 SWAP1 POP JUMP JUMPDEST PUSH1 0x0 DUP2 SWAP1 POP PUSH2 0x3A07 DUP3 PUSH2 0x3EC5 JUMP JUMPDEST SWAP2 SWAP1 POP JUMP JUMPDEST PUSH1 0x0 DUP2 SWAP1 POP PUSH2 0x3A1A DUP3 PUSH2 0x3ED9 JUMP JUMPDEST SWAP2 SWAP1 POP JUMP JUMPDEST PUSH1 0x0 PUSH2 0xFFFF DUP3 AND SWAP1 POP SWAP2 SWAP1 POP JUMP JUMPDEST PUSH1 0x0 PUSH20 0xFFFFFFFFFFFFFFFFFFFFFFFFFFFFFFFFFFFFFFFF DUP3 AND SWAP1 POP SWAP2 SWAP1 POP JUMP JUMPDEST PUSH1 0x0 DUP2 SWAP1 POP SWAP2 SWAP1 POP JUMP JUMPDEST PUSH1 0x0 PUSH4 0xFFFFFFFF DUP3 AND SWAP1 POP SWAP2 SWAP1 POP JUMP JUMPDEST PUSH1 0x0 PUSH1 0xFF DUP3 AND SWAP1 POP SWAP2 SWAP1 POP JUMP JUMPDEST PUSH1 0x0 PUSH2 0x3A7F DUP3 PUSH2 0x39F9 JUMP JUMPDEST SWAP1 POP SWAP2 SWAP1 POP JUMP JUMPDEST PUSH1 0x0 PUSH2 0x3A91 DUP3 PUSH2 0x3A0C JUMP JUMPDEST SWAP1 POP SWAP2 SWAP1 POP JUMP JUMPDEST DUP3 DUP2 DUP4 CALLDATACOPY PUSH1 0x0 DUP4 DUP4 ADD MSTORE POP POP POP JUMP JUMPDEST PUSH1 0x0 JUMPDEST DUP4 DUP2 LT ISZERO PUSH2 0x3AC5 JUMPI DUP1 DUP3 ADD MLOAD DUP2 DUP5 ADD MSTORE PUSH1 0x20 DUP2 ADD SWAP1 POP PUSH2 0x3AAA JUMP JUMPDEST DUP4 DUP2 GT ISZERO PUSH2 0x3AD4 JUMPI PUSH1 0x0 DUP5 DUP5 ADD MSTORE JUMPDEST POP POP POP POP JUMP JUMPDEST PUSH1 0x0 PUSH1 0x2 DUP3 DIV SWAP1 POP PUSH1 0x1 DUP3 AND DUP1 PUSH2 0x3AF2 JUMPI PUSH1 0x7F DUP3 AND SWAP2 POP JUMPDEST PUSH1 0x20 DUP3 LT DUP2 EQ ISZERO PUSH2 0x3B06 JUMPI PUSH2 0x3B05 PUSH2 0x3BE4 JUMP JUMPDEST JUMPDEST POP SWAP2 SWAP1 POP JUMP JUMPDEST PUSH2 0x3B15 DUP3 PUSH2 0x3C56 JUMP JUMPDEST DUP2 ADD DUP2 DUP2 LT PUSH8 0xFFFFFFFFFFFFFFFF DUP3 GT OR ISZERO PUSH2 0x3B34 JUMPI PUSH2 0x3B33 PUSH2 0x3C13 JUMP JUMPDEST JUMPDEST DUP1 PUSH1 0x40 MSTORE POP POP POP JUMP JUMPDEST PUSH1 0x0 PUSH2 0x3B48 DUP3 PUSH2 0x3A4D JUMP JUMPDEST SWAP2 POP PUSH32 0xFFFFFFFFFFFFFFFFFFFFFFFFFFFFFFFFFFFFFFFFFFFFFFFFFFFFFFFFFFFFFFFF DUP3 EQ ISZERO PUSH2 0x3B7B JUMPI PUSH2 0x3B7A PUSH2 0x3B86 JUMP JUMPDEST JUMPDEST PUSH1 0x1 DUP3 ADD SWAP1 POP SWAP2 SWAP1 POP JUMP JUMPDEST PUSH32 0x4E487B7100000000000000000000000000000000000000000000000000000000 PUSH1 0x0 MSTORE PUSH1 0x11 PUSH1 0x4 MSTORE PUSH1 0x24 PUSH1 0x0 REVERT JUMPDEST PUSH32 0x4E487B7100000000000000000000000000000000000000000000000000000000 PUSH1 0x0 MSTORE PUSH1 0x21 PUSH1 0x4 MSTORE PUSH1 0x24 PUSH1 0x0 REVERT JUMPDEST PUSH32 0x4E487B7100000000000000000000000000000000000000000000000000000000 PUSH1 0x0 MSTORE PUSH1 0x22 PUSH1 0x4 MSTORE PUSH1 0x24 PUSH1 0x0 REVERT JUMPDEST PUSH32 0x4E487B7100000000000000000000000000000000000000000000000000000000 PUSH1 0x0 MSTORE PUSH1 0x41 PUSH1 0x4 MSTORE PUSH1 0x24 PUSH1 0x0 REVERT JUMPDEST PUSH1 0x0 DUP1 REVERT JUMPDEST PUSH1 0x0 DUP1 REVERT JUMPDEST PUSH1 0x0 DUP1 REVERT JUMPDEST PUSH1 0x0 DUP1 REVERT JUMPDEST PUSH1 0x0 PUSH1 0x1F NOT PUSH1 0x1F DUP4 ADD AND SWAP1 POP SWAP2 SWAP1 POP JUMP JUMPDEST PUSH32 0x4B757273204D65726B657A69205A6174656E204D657663757400000000000000 PUSH1 0x0 DUP3 ADD MSTORE POP JUMP JUMPDEST PUSH32 0x4669726D61205A6174656E204D65766375740000000000000000000000000000 PUSH1 0x0 DUP3 ADD MSTORE POP JUMP JUMPDEST PUSH32 0x42752069736C656D6920736164656365204B697369207961706162696C69722E PUSH1 0x0 DUP3 ADD MSTORE POP JUMP JUMPDEST PUSH32 0x536572746966696B61204D65726B657A69205A6174656E204D65766375740000 PUSH1 0x0 DUP3 ADD MSTORE POP JUMP JUMPDEST PUSH32 0x536164656365207965746B696C69207061796461732062752069736C656D6920 PUSH1 0x0 DUP3 ADD MSTORE PUSH32 0x7961706162696C69722E00000000000000000000000000000000000000000000 PUSH1 0x20 DUP3 ADD MSTORE POP JUMP JUMPDEST PUSH32 0x496C616E206163616E2067756E63656C6C656D652069736C656D692079617061 PUSH1 0x0 DUP3 ADD MSTORE PUSH32 0x62696C6972000000000000000000000000000000000000000000000000000000 PUSH1 0x20 DUP3 ADD MSTORE POP JUMP JUMPDEST PUSH32 0x536976696C20546F706C756D204B7572756C757375205A6174656E204D657663 PUSH1 0x0 DUP3 ADD MSTORE PUSH32 0x7574000000000000000000000000000000000000000000000000000000000000 PUSH1 0x20 DUP3 ADD MSTORE POP JUMP JUMPDEST PUSH32 0x556E6976657273697465205A6174656E204D6576637574000000000000000000 PUSH1 0x0 DUP3 ADD MSTORE POP JUMP JUMPDEST PUSH32 0x4B697369205A6174656E204D6576637574000000000000000000000000000000 PUSH1 0x0 DUP3 ADD MSTORE POP JUMP JUMPDEST PUSH32 0x496C616E206163616E206B7572756D206B617969746C6920646567696C000000 PUSH1 0x0 DUP3 ADD MSTORE POP JUMP JUMPDEST PUSH32 0x41796E6920696C616E612064616861206F6E636520626173767572756C6D7573 PUSH1 0x0 DUP3 ADD MSTORE POP JUMP JUMPDEST PUSH32 0x4B616D75204B75726D75205A6174656E204D6576637574000000000000000000 PUSH1 0x0 DUP3 ADD MSTORE POP JUMP JUMPDEST PUSH1 0x3 DUP2 LT PUSH2 0x3ED6 JUMPI PUSH2 0x3ED5 PUSH2 0x3BB5 JUMP JUMPDEST JUMPDEST POP JUMP JUMPDEST PUSH1 0x4 DUP2 LT PUSH2 0x3EEA JUMPI PUSH2 0x3EE9 PUSH2 0x3BB5 JUMP JUMPDEST JUMPDEST POP JUMP JUMPDEST PUSH2 0x3EF6 DUP2 PUSH2 0x39DB JUMP JUMPDEST DUP2 EQ PUSH2 0x3F01 JUMPI PUSH1 0x0 DUP1 REVERT JUMPDEST POP JUMP JUMPDEST PUSH2 0x3F0D DUP2 PUSH2 0x39ED JUMP JUMPDEST DUP2 EQ PUSH2 0x3F18 JUMPI PUSH1 0x0 DUP1 REVERT JUMPDEST POP JUMP JUMPDEST PUSH1 0x3 DUP2 LT PUSH2 0x3F28 JUMPI PUSH1 0x0 DUP1 REVERT JUMPDEST POP JUMP JUMPDEST PUSH2 0x3F34 DUP2 PUSH2 0x3A4D JUMP JUMPDEST DUP2 EQ PUSH2 0x3F3F JUMPI PUSH1 0x0 DUP1 REVERT JUMPDEST POP JUMP JUMPDEST PUSH2 0x3F4B DUP2 PUSH2 0x3A57 JUMP JUMPDEST DUP2 EQ PUSH2 0x3F56 JUMPI PUSH1 0x0 DUP1 REVERT JUMPDEST POP JUMP JUMPDEST PUSH2 0x3F62 DUP2 PUSH2 0x3A67 JUMP JUMPDEST DUP2 EQ PUSH2 0x3F6D JUMPI PUSH1 0x0 DUP1 REVERT JUMPDEST POP JUMP INVALID LOG2 PUSH5 0x6970667358 0x22 SLT KECCAK256 PUSH4 0x38148528 PUSH20 0xD183AA5041B3E589A5E04B05217C61F567B5B0B8 0xEB 0xC3 POP LOG1 0xFC DUP15 PUSH5 0x736F6C6343 STOP ADDMOD SMOD STOP CALLER "
		},
		"gasEstimates": {
			"creation": {
				"codeDepositCost": "3258800",
				"executionCost": "infinite",
				"totalCost": "infinite"
			},
			"external": {
				"YOK()": "2600",
				"akademisyenler(address)": "infinite",
				"basvurIlan(uint256)": "infinite",
				"basvuruId()": "2540",
				"diller(uint32)": "infinite",
				"ekleFirma(address,string,uint256,uint8)": "infinite",
				"ekleIlanBilgi(uint32,uint8,uint8,string,string,uint256,uint256,uint8,uint32,uint8)": "infinite",
				"ekleKamuKurumu(address,string,uint8)": "infinite",
				"ekleKisi(address)": "27223",
				"ekleKurs(address,string,uint8)": "infinite",
				"ekleSTK(address,string,uint8)": "infinite",
				"ekleSertifikaMerkezi(address,string,uint8)": "infinite",
				"ekleUniversite(address,string,uint8)": "infinite",
				"firmalar(address)": "infinite",
				"getYOK()": "2613",
				"guncelleIlanBilgi(uint256,uint32,uint8,uint8,string,string,uint256,uint256,uint8,uint32,uint8)": "infinite",
				"id()": "2496",
				"ilanBasvuruListesi(uint256,address)": "3217",
				"ilanBilgileri(uint256)": "infinite",
				"isCB(address)": "2877",
				"isFirma(address)": "3023",
				"isKamuKurumu(address)": "2934",
				"isKisi(address)": "3022",
				"isKurs(address)": "2958",
				"isSTK(address)": "2935",
				"isSertifikaMerkezi(address)": "2933",
				"isTOBB(address)": "2857",
				"isUniversite(address)": "2977",
				"isYOK(address)": "2919",
				"kamuKurumlari(address)": "infinite",
				"kisiler(address)": "2937",
				"kurslar(address)": "infinite",
				"paydasTanimla(address,address,address)": "infinite",
				"sertifikaMerkezleri(address)": "infinite",
				"stklar(address)": "infinite",
				"universiteler(address)": "infinite"
			}
		},
		"methodIdentifiers": {
			"YOK()": "71af892d",
			"akademisyenler(address)": "ba479b7e",
			"basvurIlan(uint256)": "ac42f257",
			"basvuruId()": "b7fd0c02",
			"diller(uint32)": "a4e7ae05",
			"ekleFirma(address,string,uint256,uint8)": "d25aab85",
			"ekleIlanBilgi(uint32,uint8,uint8,string,string,uint256,uint256,uint8,uint32,uint8)": "1145e6b3",
			"ekleKamuKurumu(address,string,uint8)": "f63c649f",
			"ekleKisi(address)": "f54acc65",
			"ekleKurs(address,string,uint8)": "46224853",
			"ekleSTK(address,string,uint8)": "19023bf3",
			"ekleSertifikaMerkezi(address,string,uint8)": "9dc30114",
			"ekleUniversite(address,string,uint8)": "001d54ab",
			"firmalar(address)": "39987f94",
			"getYOK()": "03c3abc4",
			"guncelleIlanBilgi(uint256,uint32,uint8,uint8,string,string,uint256,uint256,uint8,uint32,uint8)": "57152cbe",
			"id()": "af640d0f",
			"ilanBasvuruListesi(uint256,address)": "722460c6",
			"ilanBilgileri(uint256)": "b2f17ea3",
			"isCB(address)": "e5130508",
			"isFirma(address)": "2d087d70",
			"isKamuKurumu(address)": "514e03c7",
			"isKisi(address)": "b98ccefd",
			"isKurs(address)": "024eb6bc",
			"isSTK(address)": "8c848885",
			"isSertifikaMerkezi(address)": "e24047ca",
			"isTOBB(address)": "139884ec",
			"isUniversite(address)": "f0040eb9",
			"isYOK(address)": "d7396414",
			"kamuKurumlari(address)": "7d0fa287",
			"kisiler(address)": "cbc92809",
			"kurslar(address)": "1916e139",
			"paydasTanimla(address,address,address)": "36fd2633",
			"sertifikaMerkezleri(address)": "356b1f1e",
			"stklar(address)": "9a8c9119",
			"universiteler(address)": "28266697"
		}
	},
	"abi": [
		{
			"inputs": [
				{
					"internalType": "address",
					"name": "baseAddress",
					"type": "address"
				}
			],
			"stateMutability": "nonpayable",
			"type": "constructor"
		},
		{
			"anonymous": false,
			"inputs": [
				{
					"indexed": false,
					"internalType": "uint256",
					"name": "_ilanId",
					"type": "uint256"
				},
				{
					"indexed": false,
					"internalType": "address",
					"name": "_basvuranKisi",
					"type": "address"
				}
			],
			"name": "IlanBasvuruLog",
			"type": "event"
		},
		{
			"anonymous": false,
			"inputs": [
				{
					"indexed": false,
					"internalType": "uint256",
					"name": "_id",
					"type": "uint256"
				},
				{
					"indexed": false,
					"internalType": "address",
					"name": "_talepEdenKurum",
					"type": "address"
				},
				{
					"indexed": false,
					"internalType": "uint32",
					"name": "_pozisyon",
					"type": "uint32"
				},
				{
					"indexed": false,
					"internalType": "uint8",
					"name": "_sektor",
					"type": "uint8"
				}
			],
			"name": "IlanBilgiEklendiLog",
			"type": "event"
		},
		{
			"anonymous": false,
			"inputs": [
				{
					"indexed": false,
					"internalType": "uint256",
					"name": "_id",
					"type": "uint256"
				},
				{
					"indexed": false,
					"internalType": "address",
					"name": "_talepEdenKurum",
					"type": "address"
				},
				{
					"indexed": false,
					"internalType": "uint32",
					"name": "_pozisyon",
					"type": "uint32"
				},
				{
					"indexed": false,
					"internalType": "uint8",
					"name": "_sektor",
					"type": "uint8"
				}
			],
			"name": "IlanBilgiGuncellendiLog",
			"type": "event"
		},
		{
			"inputs": [],
			"name": "YOK",
			"outputs": [
				{
					"internalType": "address",
					"name": "",
					"type": "address"
				}
			],
			"stateMutability": "view",
			"type": "function"
		},
		{
			"inputs": [
				{
					"internalType": "address",
					"name": "",
					"type": "address"
				}
			],
			"name": "akademisyenler",
			"outputs": [
				{
					"internalType": "bool",
					"name": "durum",
					"type": "bool"
				},
				{
					"internalType": "address",
					"name": "universite",
					"type": "address"
				},
				{
					"internalType": "uint16",
					"name": "bolum",
					"type": "uint16"
				},
				{
					"internalType": "enum BaseContract.Unvan",
					"name": "unvan",
					"type": "uint8"
				},
				{
					"internalType": "string",
					"name": "ad",
					"type": "string"
				},
				{
					"internalType": "string",
					"name": "soyad",
					"type": "string"
				}
			],
			"stateMutability": "view",
			"type": "function"
		},
		{
			"inputs": [
				{
					"internalType": "uint256",
					"name": "_ilanId",
					"type": "uint256"
				}
			],
			"name": "basvurIlan",
			"outputs": [
				{
					"internalType": "uint256",
					"name": "",
					"type": "uint256"
				}
			],
			"stateMutability": "nonpayable",
			"type": "function"
		},
		{
			"inputs": [],
			"name": "basvuruId",
			"outputs": [
				{
					"internalType": "uint256",
					"name": "",
					"type": "uint256"
				}
			],
			"stateMutability": "view",
			"type": "function"
		},
		{
			"inputs": [
				{
					"internalType": "uint32",
					"name": "",
					"type": "uint32"
				}
			],
			"name": "diller",
			"outputs": [
				{
					"internalType": "uint32",
					"name": "id",
					"type": "uint32"
				},
				{
					"internalType": "string",
					"name": "isim",
					"type": "string"
				}
			],
			"stateMutability": "view",
			"type": "function"
		},
		{
			"inputs": [
				{
					"internalType": "address",
					"name": "_firmaAdres",
					"type": "address"
				},
				{
					"internalType": "string",
					"name": "_isim",
					"type": "string"
				},
				{
					"internalType": "uint256",
					"name": "_vergiNo",
					"type": "uint256"
				},
				{
					"internalType": "uint8",
					"name": "_ulke",
					"type": "uint8"
				}
			],
			"name": "ekleFirma",
			"outputs": [],
			"stateMutability": "nonpayable",
			"type": "function"
		},
		{
			"inputs": [
				{
					"internalType": "uint32",
					"name": "_pozisyon",
					"type": "uint32"
				},
				{
					"internalType": "uint8",
					"name": "_sektor",
					"type": "uint8"
				},
				{
					"internalType": "enum BaseContract.CalismaTipi",
					"name": "_calismaTipi",
					"type": "uint8"
				},
				{
					"internalType": "string",
					"name": "_arananOzellikler",
					"type": "string"
				},
				{
					"internalType": "string",
					"name": "_isTanimi",
					"type": "string"
				},
				{
					"internalType": "uint256",
					"name": "_ilanBasTarih",
					"type": "uint256"
				},
				{
					"internalType": "uint256",
					"name": "_ilanBitTarih",
					"type": "uint256"
				},
				{
					"internalType": "uint8",
					"name": "_ulke",
					"type": "uint8"
				},
				{
					"internalType": "uint32",
					"name": "_sehir",
					"type": "uint32"
				},
				{
					"internalType": "uint8",
					"name": "_tecrubeYili",
					"type": "uint8"
				}
			],
			"name": "ekleIlanBilgi",
			"outputs": [],
			"stateMutability": "nonpayable",
			"type": "function"
		},
		{
			"inputs": [
				{
					"internalType": "address",
					"name": "_kamuKurumuAdres",
					"type": "address"
				},
				{
					"internalType": "string",
					"name": "_isim",
					"type": "string"
				},
				{
					"internalType": "uint8",
					"name": "_ulke",
					"type": "uint8"
				}
			],
			"name": "ekleKamuKurumu",
			"outputs": [],
			"stateMutability": "nonpayable",
			"type": "function"
		},
		{
			"inputs": [
				{
					"internalType": "address",
					"name": "_kisiAdres",
					"type": "address"
				}
			],
			"name": "ekleKisi",
			"outputs": [],
			"stateMutability": "nonpayable",
			"type": "function"
		},
		{
			"inputs": [
				{
					"internalType": "address",
					"name": "_kursAdres",
					"type": "address"
				},
				{
					"internalType": "string",
					"name": "_isim",
					"type": "string"
				},
				{
					"internalType": "uint8",
					"name": "_ulke",
					"type": "uint8"
				}
			],
			"name": "ekleKurs",
			"outputs": [],
			"stateMutability": "nonpayable",
			"type": "function"
		},
		{
			"inputs": [
				{
					"internalType": "address",
					"name": "_stkAdres",
					"type": "address"
				},
				{
					"internalType": "string",
					"name": "_isim",
					"type": "string"
				},
				{
					"internalType": "uint8",
					"name": "_ulke",
					"type": "uint8"
				}
			],
			"name": "ekleSTK",
			"outputs": [],
			"stateMutability": "nonpayable",
			"type": "function"
		},
		{
			"inputs": [
				{
					"internalType": "address",
					"name": "_smAdres",
					"type": "address"
				},
				{
					"internalType": "string",
					"name": "_isim",
					"type": "string"
				},
				{
					"internalType": "uint8",
					"name": "_ulke",
					"type": "uint8"
				}
			],
			"name": "ekleSertifikaMerkezi",
			"outputs": [],
			"stateMutability": "nonpayable",
			"type": "function"
		},
		{
			"inputs": [
				{
					"internalType": "address",
					"name": "_universiteAdres",
					"type": "address"
				},
				{
					"internalType": "string",
					"name": "_isim",
					"type": "string"
				},
				{
					"internalType": "uint8",
					"name": "_ulke",
					"type": "uint8"
				}
			],
			"name": "ekleUniversite",
			"outputs": [],
			"stateMutability": "nonpayable",
			"type": "function"
		},
		{
			"inputs": [
				{
					"internalType": "address",
					"name": "",
					"type": "address"
				}
			],
			"name": "firmalar",
			"outputs": [
				{
					"internalType": "bool",
					"name": "durum",
					"type": "bool"
				},
				{
					"internalType": "uint8",
					"name": "ulke",
					"type": "uint8"
				},
				{
					"internalType": "uint256",
					"name": "vergiNo",
					"type": "uint256"
				},
				{
					"internalType": "string",
					"name": "isim",
					"type": "string"
				}
			],
			"stateMutability": "view",
			"type": "function"
		},
		{
			"inputs": [],
			"name": "getYOK",
			"outputs": [
				{
					"internalType": "address",
					"name": "",
					"type": "address"
				}
			],
			"stateMutability": "view",
			"type": "function"
		},
		{
			"inputs": [
				{
					"internalType": "uint256",
					"name": "_ilanId",
					"type": "uint256"
				},
				{
					"internalType": "uint32",
					"name": "_pozisyon",
					"type": "uint32"
				},
				{
					"internalType": "uint8",
					"name": "_sektor",
					"type": "uint8"
				},
				{
					"internalType": "enum BaseContract.CalismaTipi",
					"name": "_calismaTipi",
					"type": "uint8"
				},
				{
					"internalType": "string",
					"name": "_arananOzellikler",
					"type": "string"
				},
				{
					"internalType": "string",
					"name": "_isTanimi",
					"type": "string"
				},
				{
					"internalType": "uint256",
					"name": "_ilanBasTarih",
					"type": "uint256"
				},
				{
					"internalType": "uint256",
					"name": "_ilanBitTarih",
					"type": "uint256"
				},
				{
					"internalType": "uint8",
					"name": "_ulke",
					"type": "uint8"
				},
				{
					"internalType": "uint32",
					"name": "_sehir",
					"type": "uint32"
				},
				{
					"internalType": "uint8",
					"name": "_tecrubeYili",
					"type": "uint8"
				}
			],
			"name": "guncelleIlanBilgi",
			"outputs": [
				{
					"internalType": "uint256",
					"name": "",
					"type": "uint256"
				}
			],
			"stateMutability": "nonpayable",
			"type": "function"
		},
		{
			"inputs": [],
			"name": "id",
			"outputs": [
				{
					"internalType": "uint256",
					"name": "",
					"type": "uint256"
				}
			],
			"stateMutability": "view",
			"type": "function"
		},
		{
			"inputs": [
				{
					"internalType": "uint256",
					"name": "",
					"type": "uint256"
				},
				{
					"internalType": "address",
					"name": "",
					"type": "address"
				}
			],
			"name": "ilanBasvuruListesi",
			"outputs": [
				{
					"internalType": "bool",
					"name": "durum",
					"type": "bool"
				}
			],
			"stateMutability": "view",
			"type": "function"
		},
		{
			"inputs": [
				{
					"internalType": "uint256",
					"name": "",
					"type": "uint256"
				}
			],
			"name": "ilanBilgileri",
			"outputs": [
				{
					"internalType": "address",
					"name": "talepEdenKurum",
					"type": "address"
				},
				{
					"internalType": "uint32",
					"name": "pozisyon",
					"type": "uint32"
				},
				{
					"internalType": "uint8",
					"name": "sektor",
					"type": "uint8"
				},
				{
					"internalType": "enum BaseContract.CalismaTipi",
					"name": "calismaTipi",
					"type": "uint8"
				},
				{
					"internalType": "string",
					"name": "arananOzellikler",
					"type": "string"
				},
				{
					"internalType": "string",
					"name": "isTanimi",
					"type": "string"
				},
				{
					"internalType": "uint256",
					"name": "ilanBasTarih",
					"type": "uint256"
				},
				{
					"internalType": "uint256",
					"name": "ilanBitTarih",
					"type": "uint256"
				},
				{
					"internalType": "uint8",
					"name": "tecrubeYili",
					"type": "uint8"
				},
				{
					"internalType": "uint8",
					"name": "ulke",
					"type": "uint8"
				},
				{
					"internalType": "uint32",
					"name": "sehir",
					"type": "uint32"
				}
			],
			"stateMutability": "view",
			"type": "function"
		},
		{
			"inputs": [
				{
					"internalType": "address",
					"name": "_address",
					"type": "address"
				}
			],
			"name": "isCB",
			"outputs": [
				{
					"internalType": "bool",
					"name": "",
					"type": "bool"
				}
			],
			"stateMutability": "view",
			"type": "function"
		},
		{
			"inputs": [
				{
					"internalType": "address",
					"name": "_address",
					"type": "address"
				}
			],
			"name": "isFirma",
			"outputs": [
				{
					"internalType": "bool",
					"name": "",
					"type": "bool"
				}
			],
			"stateMutability": "view",
			"type": "function"
		},
		{
			"inputs": [
				{
					"internalType": "address",
					"name": "_address",
					"type": "address"
				}
			],
			"name": "isKamuKurumu",
			"outputs": [
				{
					"internalType": "bool",
					"name": "",
					"type": "bool"
				}
			],
			"stateMutability": "view",
			"type": "function"
		},
		{
			"inputs": [
				{
					"internalType": "address",
					"name": "_address",
					"type": "address"
				}
			],
			"name": "isKisi",
			"outputs": [
				{
					"internalType": "bool",
					"name": "",
					"type": "bool"
				}
			],
			"stateMutability": "view",
			"type": "function"
		},
		{
			"inputs": [
				{
					"internalType": "address",
					"name": "_address",
					"type": "address"
				}
			],
			"name": "isKurs",
			"outputs": [
				{
					"internalType": "bool",
					"name": "",
					"type": "bool"
				}
			],
			"stateMutability": "view",
			"type": "function"
		},
		{
			"inputs": [
				{
					"internalType": "address",
					"name": "_address",
					"type": "address"
				}
			],
			"name": "isSTK",
			"outputs": [
				{
					"internalType": "bool",
					"name": "",
					"type": "bool"
				}
			],
			"stateMutability": "view",
			"type": "function"
		},
		{
			"inputs": [
				{
					"internalType": "address",
					"name": "_address",
					"type": "address"
				}
			],
			"name": "isSertifikaMerkezi",
			"outputs": [
				{
					"internalType": "bool",
					"name": "",
					"type": "bool"
				}
			],
			"stateMutability": "view",
			"type": "function"
		},
		{
			"inputs": [
				{
					"internalType": "address",
					"name": "_address",
					"type": "address"
				}
			],
			"name": "isTOBB",
			"outputs": [
				{
					"internalType": "bool",
					"name": "",
					"type": "bool"
				}
			],
			"stateMutability": "view",
			"type": "function"
		},
		{
			"inputs": [
				{
					"internalType": "address",
					"name": "_address",
					"type": "address"
				}
			],
			"name": "isUniversite",
			"outputs": [
				{
					"internalType": "bool",
					"name": "",
					"type": "bool"
				}
			],
			"stateMutability": "view",
			"type": "function"
		},
		{
			"inputs": [
				{
					"internalType": "address",
					"name": "_address",
					"type": "address"
				}
			],
			"name": "isYOK",
			"outputs": [
				{
					"internalType": "bool",
					"name": "",
					"type": "bool"
				}
			],
			"stateMutability": "view",
			"type": "function"
		},
		{
			"inputs": [
				{
					"internalType": "address",
					"name": "",
					"type": "address"
				}
			],
			"name": "kamuKurumlari",
			"outputs": [
				{
					"internalType": "bool",
					"name": "durum",
					"type": "bool"
				},
				{
					"internalType": "string",
					"name": "isim",
					"type": "string"
				},
				{
					"internalType": "uint8",
					"name": "ulke",
					"type": "uint8"
				}
			],
			"stateMutability": "view",
			"type": "function"
		},
		{
			"inputs": [
				{
					"internalType": "address",
					"name": "",
					"type": "address"
				}
			],
			"name": "kisiler",
			"outputs": [
				{
					"internalType": "bool",
					"name": "durum",
					"type": "bool"
				}
			],
			"stateMutability": "view",
			"type": "function"
		},
		{
			"inputs": [
				{
					"internalType": "address",
					"name": "",
					"type": "address"
				}
			],
			"name": "kurslar",
			"outputs": [
				{
					"internalType": "bool",
					"name": "durum",
					"type": "bool"
				},
				{
					"internalType": "string",
					"name": "isim",
					"type": "string"
				},
				{
					"internalType": "uint8",
					"name": "ulke",
					"type": "uint8"
				}
			],
			"stateMutability": "view",
			"type": "function"
		},
		{
			"inputs": [
				{
					"internalType": "address",
					"name": "_yok",
					"type": "address"
				},
				{
					"internalType": "address",
					"name": "_tobb",
					"type": "address"
				},
				{
					"internalType": "address",
					"name": "_cb",
					"type": "address"
				}
			],
			"name": "paydasTanimla",
			"outputs": [],
			"stateMutability": "nonpayable",
			"type": "function"
		},
		{
			"inputs": [
				{
					"internalType": "address",
					"name": "",
					"type": "address"
				}
			],
			"name": "sertifikaMerkezleri",
			"outputs": [
				{
					"internalType": "bool",
					"name": "durum",
					"type": "bool"
				},
				{
					"internalType": "string",
					"name": "isim",
					"type": "string"
				},
				{
					"internalType": "uint8",
					"name": "ulke",
					"type": "uint8"
				}
			],
			"stateMutability": "view",
			"type": "function"
		},
		{
			"inputs": [
				{
					"internalType": "address",
					"name": "",
					"type": "address"
				}
			],
			"name": "stklar",
			"outputs": [
				{
					"internalType": "bool",
					"name": "durum",
					"type": "bool"
				},
				{
					"internalType": "string",
					"name": "isim",
					"type": "string"
				},
				{
					"internalType": "uint8",
					"name": "ulke",
					"type": "uint8"
				}
			],
			"stateMutability": "view",
			"type": "function"
		},
		{
			"inputs": [
				{
					"internalType": "address",
					"name": "",
					"type": "address"
				}
			],
			"name": "universiteler",
			"outputs": [
				{
					"internalType": "bool",
					"name": "durum",
					"type": "bool"
				},
				{
					"internalType": "string",
					"name": "isim",
					"type": "string"
				},
				{
					"internalType": "uint8",
					"name": "ulke",
					"type": "uint8"
				}
			],
			"stateMutability": "view",
			"type": "function"
		}
	]
}