{
	"data": {
		"bytecode": {
			"linkReferences": {},
			"object": "60806040523480156200001157600080fd5b50604051620036163803806200361683398181016040528101906200003791906200009e565b80600160006101000a81548173ffffffffffffffffffffffffffffffffffffffff021916908373ffffffffffffffffffffffffffffffffffffffff16021790555060016000819055505062000123565b600081519050620000988162000109565b92915050565b600060208284031215620000b757620000b662000104565b5b6000620000c78482850162000087565b91505092915050565b6000620000dd82620000e4565b9050919050565b600073ffffffffffffffffffffffffffffffffffffffff82169050919050565b600080fd5b6200011481620000d0565b81146200012057600080fd5b50565b6134e380620001336000396000f3fe608060405234801561001057600080fd5b50600436106100a95760003560e01c8063760050b011610071578063760050b01461017d57806386f55628146101ad578063930fd616146101dd578063af640d0f1461020d578063cca509401461022b578063d44ae3b114610247576100a9565b8063126e67ba146100ae57806313e5c393146100de5780632281d48d146101135780634b31362b146101435780636f9bce3114610161575b600080fd5b6100c860048036038101906100c39190612558565b610277565b6040516100d59190612cf5565b60405180910390f35b6100f860048036038101906100f39190612558565b610731565b60405161010a96959493929190612d10565b60405180910390f35b61012d60048036038101906101289190612598565b6108d4565b60405161013a9190612cf5565b60405180910390f35b61014b610e22565b6040516101589190612b6f565b60405180910390f35b61017b6004803603810190610176919061262f565b610eb0565b005b61019760048036038101906101929190612558565b611439565b6040516101a49190612cf5565b60405180910390f35b6101c760048036038101906101c291906126df565b61146a565b6040516101d49190612b2b565b60405180910390f35b6101f760048036038101906101f29190612558565b6114a9565b6040516102049190612cd3565b60405180910390f35b6102156116dc565b6040516102229190612cf5565b60405180910390f35b610245600480360381019061024091906124c1565b6116e2565b005b610261600480360381019061025c9190612494565b611b78565b60405161026e9190612b91565b60405180910390f35b6000600160009054906101000a900473ffffffffffffffffffffffffffffffffffffffff1673ffffffffffffffffffffffffffffffffffffffff1663e24047ca336040518263ffffffff1660e01b81526004016102d49190612b2b565b60206040518083038186803b1580156102ec57600080fd5b505afa158015610300573d6000803e3d6000fd5b505050506040513d601f19601f8201168201806040525081019061032491906126b2565b610363576040517f08c379a000000000000000000000000000000000000000000000000000000000815260040161035a90612c33565b60405180910390fd5b600160009054906101000a900473ffffffffffffffffffffffffffffffffffffffff1673ffffffffffffffffffffffffffffffffffffffff1663b98ccefd846040518263ffffffff1660e01b81526004016103be9190612b2b565b60206040518083038186803b1580156103d657600080fd5b505afa1580156103ea573d6000803e3d6000fd5b505050506040513d601f19601f8201168201806040525081019061040e91906126b2565b61044d576040517f08c379a000000000000000000000000000000000000000000000000000000000815260040161044490612c73565b60405180910390fd5b6104578383611c0f565b610496576040517f08c379a000000000000000000000000000000000000000000000000000000000815260040161048d90612bf3565b60405180910390fd5b3373ffffffffffffffffffffffffffffffffffffffff16600260008573ffffffffffffffffffffffffffffffffffffffff1673ffffffffffffffffffffffffffffffffffffffff168152602001908152602001600020600084815260200190815260200160002060010160009054906101000a900473ffffffffffffffffffffffffffffffffffffffff1673ffffffffffffffffffffffffffffffffffffffff1614610577576040517f08c379a000000000000000000000000000000000000000000000000000000000815260040161056e90612c53565b60405180910390fd5b6001600260008573ffffffffffffffffffffffffffffffffffffffff1673ffffffffffffffffffffffffffffffffffffffff168152602001908152602001600020600084815260200190815260200160002060050160010160146101000a81548160ff021916908360028111156105f1576105f06130d8565b5b021790555033600260008573ffffffffffffffffffffffffffffffffffffffff1673ffffffffffffffffffffffffffffffffffffffff168152602001908152602001600020600084815260200190815260200160002060050160010160006101000a81548173ffffffffffffffffffffffffffffffffffffffff021916908373ffffffffffffffffffffffffffffffffffffffff16021790555042600260008573ffffffffffffffffffffffffffffffffffffffff1673ffffffffffffffffffffffffffffffffffffffff1681526020019081526020016000206000848152602001908152602001600020600501600001819055506106ef83611db1565b7f184fbe53359a73b433d6892acb1085f17cc306a867bdcbf0913e0298a4c4ccea3342604051610720929190612b46565b60405180910390a181905092915050565b6002602052816000526040600020602052806000526040600020600091509150508060000154908060010160009054906101000a900473ffffffffffffffffffffffffffffffffffffffff16908060020154908060030160009054906101000a900460ff16908060040180546107a690612ffd565b80601f01602080910402602001604051908101604052809291908181526020018280546107d290612ffd565b801561081f5780601f106107f45761010080835404028352916020019161081f565b820191906000526020600020905b81548152906001019060200180831161080257829003601f168201915b50505050509080600501604051806060016040529081600082015481526020016001820160009054906101000a900473ffffffffffffffffffffffffffffffffffffffff1673ffffffffffffffffffffffffffffffffffffffff1673ffffffffffffffffffffffffffffffffffffffff1681526020016001820160149054906101000a900460ff1660028111156108b9576108b86130d8565b5b60028111156108cb576108ca6130d8565b5b81525050905086565b6000600160009054906101000a900473ffffffffffffffffffffffffffffffffffffffff1673ffffffffffffffffffffffffffffffffffffffff1663e24047ca336040518263ffffffff1660e01b81526004016109319190612b2b565b60206040518083038186803b15801561094957600080fd5b505afa15801561095d573d6000803e3d6000fd5b505050506040513d601f19601f8201168201806040525081019061098191906126b2565b6109c0576040517f08c379a00000000000000000000000000000000000000000000000000000000081526004016109b790612c33565b60405180910390fd5b600160009054906101000a900473ffffffffffffffffffffffffffffffffffffffff1673ffffffffffffffffffffffffffffffffffffffff1663b98ccefd876040518263ffffffff1660e01b8152600401610a1b9190612b2b565b60206040518083038186803b158015610a3357600080fd5b505afa158015610a47573d6000803e3d6000fd5b505050506040513d601f19601f82011682018060405250810190610a6b91906126b2565b610aaa576040517f08c379a0000000000000000000000000000000000000000000000000000000008152600401610aa190612c73565b60405180910390fd5b6001600260008873ffffffffffffffffffffffffffffffffffffffff1673ffffffffffffffffffffffffffffffffffffffff16815260200190815260200160002060008781526020019081526020016000206000015411610b40576040517f08c379a0000000000000000000000000000000000000000000000000000000008152600401610b3790612bb3565b60405180910390fd5b83600260008873ffffffffffffffffffffffffffffffffffffffff1673ffffffffffffffffffffffffffffffffffffffff16815260200190815260200160002060008781526020019081526020016000206002018190555082600260008873ffffffffffffffffffffffffffffffffffffffff1673ffffffffffffffffffffffffffffffffffffffff168152602001908152602001600020600087815260200190815260200160002060030160006101000a81548160ff021916908360ff16021790555081600260008873ffffffffffffffffffffffffffffffffffffffff1673ffffffffffffffffffffffffffffffffffffffff16815260200190815260200160002060008781526020019081526020016000206004019080519060200190610c6b92919061228f565b506001600260008873ffffffffffffffffffffffffffffffffffffffff1673ffffffffffffffffffffffffffffffffffffffff168152602001908152602001600020600087815260200190815260200160002060050160010160146101000a81548160ff02191690836002811115610ce657610ce56130d8565b5b021790555042600260008873ffffffffffffffffffffffffffffffffffffffff1673ffffffffffffffffffffffffffffffffffffffff16815260200190815260200160002060008781526020019081526020016000206005016000018190555033600260008873ffffffffffffffffffffffffffffffffffffffff1673ffffffffffffffffffffffffffffffffffffffff168152602001908152602001600020600087815260200190815260200160002060050160010160006101000a81548173ffffffffffffffffffffffffffffffffffffffff021916908373ffffffffffffffffffffffffffffffffffffffff1602179055507ff9f415b36bab00ec7ce2b6169fba48d979ac445d0b84e81be942439e3b492981858585604051610e0e93929190612d79565b60405180910390a184905095945050505050565b60606003805480602002602001604051908101604052809291908181526020018280548015610ea657602002820191906000526020600020905b8160009054906101000a900473ffffffffffffffffffffffffffffffffffffffff1673ffffffffffffffffffffffffffffffffffffffff1681526020019060010190808311610e5c575b5050505050905090565b600160009054906101000a900473ffffffffffffffffffffffffffffffffffffffff1673ffffffffffffffffffffffffffffffffffffffff1663e24047ca336040518263ffffffff1660e01b8152600401610f0b9190612b2b565b60206040518083038186803b158015610f2357600080fd5b505afa158015610f37573d6000803e3d6000fd5b505050506040513d601f19601f82011682018060405250810190610f5b91906126b2565b610f9a576040517f08c379a0000000000000000000000000000000000000000000000000000000008152600401610f9190612c33565b60405180910390fd5b600160009054906101000a900473ffffffffffffffffffffffffffffffffffffffff1673ffffffffffffffffffffffffffffffffffffffff1663b98ccefd856040518263ffffffff1660e01b8152600401610ff59190612b2b565b60206040518083038186803b15801561100d57600080fd5b505afa158015611021573d6000803e3d6000fd5b505050506040513d601f19601f8201168201806040525081019061104591906126b2565b611084576040517f08c379a000000000000000000000000000000000000000000000000000000000815260040161107b90612c73565b60405180910390fd5b600080600081548092919061109890613060565b91905055905080600260008773ffffffffffffffffffffffffffffffffffffffff1673ffffffffffffffffffffffffffffffffffffffff16815260200190815260200160002060008381526020019081526020016000206000018190555083600260008773ffffffffffffffffffffffffffffffffffffffff1673ffffffffffffffffffffffffffffffffffffffff16815260200190815260200160002060008381526020019081526020016000206002018190555082600260008773ffffffffffffffffffffffffffffffffffffffff1673ffffffffffffffffffffffffffffffffffffffff168152602001908152602001600020600083815260200190815260200160002060030160006101000a81548160ff021916908360ff16021790555081600260008773ffffffffffffffffffffffffffffffffffffffff1673ffffffffffffffffffffffffffffffffffffffff1681526020019081526020016000206000838152602001908152602001600020600401908051906020019061122192919061228f565b506001600260008773ffffffffffffffffffffffffffffffffffffffff1673ffffffffffffffffffffffffffffffffffffffff168152602001908152602001600020600083815260200190815260200160002060050160010160146101000a81548160ff0219169083600281111561129c5761129b6130d8565b5b021790555042600260008773ffffffffffffffffffffffffffffffffffffffff1673ffffffffffffffffffffffffffffffffffffffff16815260200190815260200160002060008381526020019081526020016000206005016000018190555033600260008773ffffffffffffffffffffffffffffffffffffffff1673ffffffffffffffffffffffffffffffffffffffff168152602001908152602001600020600083815260200190815260200160002060050160010160006101000a81548173ffffffffffffffffffffffffffffffffffffffff021916908373ffffffffffffffffffffffffffffffffffffffff160217905550600460008673ffffffffffffffffffffffffffffffffffffffff1673ffffffffffffffffffffffffffffffffffffffff1681526020019081526020016000208190806001815401808255809150506001900390600052602060002001600090919091909150557f054b623f8c9e4f82dabe9fa4dcda7698d2759c99c1646c278deec0bc70c6f76c81858560405161142a93929190612d79565b60405180910390a15050505050565b6004602052816000526040600020818154811061145557600080fd5b90600052602060002001600091509150505481565b6003818154811061147a57600080fd5b906000526020600020016000915054906101000a900473ffffffffffffffffffffffffffffffffffffffff1681565b6114b1612315565b600260008473ffffffffffffffffffffffffffffffffffffffff1673ffffffffffffffffffffffffffffffffffffffff16815260200190815260200160002060008381526020019081526020016000206040518060c0016040529081600082015481526020016001820160009054906101000a900473ffffffffffffffffffffffffffffffffffffffff1673ffffffffffffffffffffffffffffffffffffffff1673ffffffffffffffffffffffffffffffffffffffff168152602001600282015481526020016003820160009054906101000a900460ff1660ff1660ff1681526020016004820180546115a390612ffd565b80601f01602080910402602001604051908101604052809291908181526020018280546115cf90612ffd565b801561161c5780601f106115f15761010080835404028352916020019161161c565b820191906000526020600020905b8154815290600101906020018083116115ff57829003601f168201915b5050505050815260200160058201604051806060016040529081600082015481526020016001820160009054906101000a900473ffffffffffffffffffffffffffffffffffffffff1673ffffffffffffffffffffffffffffffffffffffff1673ffffffffffffffffffffffffffffffffffffffff1681526020016001820160149054906101000a900460ff1660028111156116ba576116b96130d8565b5b60028111156116cc576116cb6130d8565b5b8152505081525050905092915050565b60005481565b600160009054906101000a900473ffffffffffffffffffffffffffffffffffffffff1673ffffffffffffffffffffffffffffffffffffffff1663b98ccefd866040518263ffffffff1660e01b815260040161173d9190612b2b565b60206040518083038186803b15801561175557600080fd5b505afa158015611769573d6000803e3d6000fd5b505050506040513d601f19601f8201168201806040525081019061178d91906126b2565b6117cc576040517f08c379a00000000000000000000000000000000000000000000000000000000081526004016117c390612bd3565b60405180910390fd5b6117d5856121e0565b15611815576040517f08c379a000000000000000000000000000000000000000000000000000000000815260040161180c90612cb3565b60405180910390fd5b600080600081548092919061182990613060565b91905055905084600260008873ffffffffffffffffffffffffffffffffffffffff1673ffffffffffffffffffffffffffffffffffffffff168152602001908152602001600020600083815260200190815260200160002060010160006101000a81548173ffffffffffffffffffffffffffffffffffffffff021916908373ffffffffffffffffffffffffffffffffffffffff16021790555083600260008873ffffffffffffffffffffffffffffffffffffffff1673ffffffffffffffffffffffffffffffffffffffff16815260200190815260200160002060008381526020019081526020016000206002018190555082600260008873ffffffffffffffffffffffffffffffffffffffff1673ffffffffffffffffffffffffffffffffffffffff168152602001908152602001600020600083815260200190815260200160002060030160006101000a81548160ff021916908360ff16021790555081600260008873ffffffffffffffffffffffffffffffffffffffff1673ffffffffffffffffffffffffffffffffffffffff168152602001908152602001600020600083815260200190815260200160002060040190805190602001906119ec92919061228f565b506000600260008873ffffffffffffffffffffffffffffffffffffffff1673ffffffffffffffffffffffffffffffffffffffff168152602001908152602001600020600083815260200190815260200160002060050160010160146101000a81548160ff02191690836002811115611a6757611a666130d8565b5b02179055506003869080600181540180825580915050600190039060005260206000200160009091909190916101000a81548173ffffffffffffffffffffffffffffffffffffffff021916908373ffffffffffffffffffffffffffffffffffffffff160217905550600460008773ffffffffffffffffffffffffffffffffffffffff1673ffffffffffffffffffffffffffffffffffffffff1681526020019081526020016000208190806001815401808255809150506001900390600052602060002001600090919091909150557fdaf544d55f2b0d82bd37254f81a5f6f0d8709dbdf56a68c8566d3e1fcb159fb7818585604051611b6893929190612d79565b60405180910390a1505050505050565b6060600460008373ffffffffffffffffffffffffffffffffffffffff1673ffffffffffffffffffffffffffffffffffffffff168152602001908152602001600020805480602002602001604051908101604052809291908181526020018280548015611c0357602002820191906000526020600020905b815481526020019060010190808311611bef575b50505050509050919050565b600080600090505b600380549050811015611da5578373ffffffffffffffffffffffffffffffffffffffff1660038281548110611c4f57611c4e613165565b5b9060005260206000200160009054906101000a900473ffffffffffffffffffffffffffffffffffffffff1673ffffffffffffffffffffffffffffffffffffffff16148015611cf057506000600260008673ffffffffffffffffffffffffffffffffffffffff1673ffffffffffffffffffffffffffffffffffffffff168152602001908152602001600020600085815260200190815260200160002060000154115b8015611d83575060006002811115611d0b57611d0a6130d8565b5b600260008673ffffffffffffffffffffffffffffffffffffffff1673ffffffffffffffffffffffffffffffffffffffff168152602001908152602001600020600085815260200190815260200160002060050160010160149054906101000a900460ff166002811115611d8157611d806130d8565b5b145b15611d92576001915050611dab565b8080611d9d90613060565b915050611c17565b50600090505b92915050565b600060038054905011611df9576040517f08c379a0000000000000000000000000000000000000000000000000000000008152600401611df090612c13565b60405180910390fd5b8073ffffffffffffffffffffffffffffffffffffffff1660036001600380549050611e249190612efb565b81548110611e3557611e34613165565b5b9060005260206000200160009054906101000a900473ffffffffffffffffffffffffffffffffffffffff1673ffffffffffffffffffffffffffffffffffffffff161415611ec8576003805480611e8e57611e8d613136565b5b6001900381819060005260206000200160006101000a81549073ffffffffffffffffffffffffffffffffffffffff021916905590556121dd565b60008080600090505b6001600380549050611ee39190612efb565b81101561201e578373ffffffffffffffffffffffffffffffffffffffff1660038281548110611f1557611f14613165565b5b9060005260206000200160009054906101000a900473ffffffffffffffffffffffffffffffffffffffff1673ffffffffffffffffffffffffffffffffffffffff16141561200b576003600182611f6b9190612ea5565b81548110611f7c57611f7b613165565b5b9060005260206000200160009054906101000a900473ffffffffffffffffffffffffffffffffffffffff1660038281548110611fbb57611fba613165565b5b9060005260206000200160006101000a81548173ffffffffffffffffffffffffffffffffffffffff021916908373ffffffffffffffffffffffffffffffffffffffff160217905550600192508091505b808061201690613060565b915050611ed1565b50600015158215151415612067576040517f08c379a000000000000000000000000000000000000000000000000000000000815260040161205e90612c93565b60405180910390fd5b60008190505b600160038054905061207f9190612efb565b8110156121405760036001826120959190612ea5565b815481106120a6576120a5613165565b5b9060005260206000200160009054906101000a900473ffffffffffffffffffffffffffffffffffffffff16600382815481106120e5576120e4613165565b5b9060005260206000200160006101000a81548173ffffffffffffffffffffffffffffffffffffffff021916908373ffffffffffffffffffffffffffffffffffffffff160217905550808061213890613060565b91505061206d565b50600360016003805490506121559190612efb565b8154811061216657612165613165565b5b9060005260206000200160006101000a81549073ffffffffffffffffffffffffffffffffffffffff021916905560038054806121a5576121a4613136565b5b6001900381819060005260206000200160006101000a81549073ffffffffffffffffffffffffffffffffffffffff0219169055905550505b50565b600080600090505b600380549050811015612284578273ffffffffffffffffffffffffffffffffffffffff16600382815481106122205761221f613165565b5b9060005260206000200160009054906101000a900473ffffffffffffffffffffffffffffffffffffffff1673ffffffffffffffffffffffffffffffffffffffff16141561227157600191505061228a565b808061227c90613060565b9150506121e8565b50600090505b919050565b82805461229b90612ffd565b90600052602060002090601f0160209004810192826122bd5760008555612304565b82601f106122d657805160ff1916838001178555612304565b82800160010185558215612304579182015b828111156123035782518255916020019190600101906122e8565b5b509050612311919061236a565b5090565b6040518060c0016040528060008152602001600073ffffffffffffffffffffffffffffffffffffffff16815260200160008152602001600060ff16815260200160608152602001612364612387565b81525090565b5b8082111561238357600081600090555060010161236b565b5090565b604051806060016040528060008152602001600073ffffffffffffffffffffffffffffffffffffffff168152602001600060028111156123ca576123c96130d8565b5b81525090565b60006123e36123de84612dd5565b612db0565b9050828152602081018484840111156123ff576123fe6131c8565b5b61240a848285612fbb565b509392505050565b60008135905061242181613451565b92915050565b60008151905061243681613468565b92915050565b600082601f830112612451576124506131c3565b5b81356124618482602086016123d0565b91505092915050565b6000813590506124798161347f565b92915050565b60008135905061248e81613496565b92915050565b6000602082840312156124aa576124a96131d2565b5b60006124b884828501612412565b91505092915050565b600080600080600060a086880312156124dd576124dc6131d2565b5b60006124eb88828901612412565b95505060206124fc88828901612412565b945050604061250d8882890161246a565b935050606061251e8882890161247f565b925050608086013567ffffffffffffffff81111561253f5761253e6131cd565b5b61254b8882890161243c565b9150509295509295909350565b6000806040838503121561256f5761256e6131d2565b5b600061257d85828601612412565b925050602061258e8582860161246a565b9150509250929050565b600080600080600060a086880312156125b4576125b36131d2565b5b60006125c288828901612412565b95505060206125d38882890161246a565b94505060406125e48882890161246a565b93505060606125f58882890161247f565b925050608086013567ffffffffffffffff811115612616576126156131cd565b5b6126228882890161243c565b9150509295509295909350565b60008060008060808587031215612649576126486131d2565b5b600061265787828801612412565b94505060206126688782880161246a565b93505060406126798782880161247f565b925050606085013567ffffffffffffffff81111561269a576126996131cd565b5b6126a68782880161243c565b91505092959194509250565b6000602082840312156126c8576126c76131d2565b5b60006126d684828501612427565b91505092915050565b6000602082840312156126f5576126f46131d2565b5b60006127038482850161246a565b91505092915050565b6000612718838361273c565b60208301905092915050565b60006127308383612ae0565b60208301905092915050565b61274581612f2f565b82525050565b61275481612f2f565b82525050565b600061276582612e26565b61276f8185612e61565b935061277a83612e06565b8060005b838110156127ab578151612792888261270c565b975061279d83612e47565b92505060018101905061277e565b5085935050505092915050565b60006127c382612e31565b6127cd8185612e72565b93506127d883612e16565b8060005b838110156128095781516127f08882612724565b97506127fb83612e54565b9250506001810190506127dc565b5085935050505092915050565b61281f81612f97565b82525050565b600061283082612e3c565b61283a8185612e83565b935061284a818560208601612fca565b612853816131d7565b840191505092915050565b600061286982612e3c565b6128738185612e94565b9350612883818560208601612fca565b61288c816131d7565b840191505092915050565b60006128a4603983612e94565b91506128af826131e8565b604082019050919050565b60006128c7601183612e94565b91506128d282613237565b602082019050919050565b60006128ea602883612e94565b91506128f582613260565b604082019050919050565b600061290d601c83612e94565b9150612918826132af565b602082019050919050565b6000612930602a83612e94565b915061293b826132d8565b604082019050919050565b6000612953602883612e94565b915061295e82613327565b604082019050919050565b6000612976600f83612e94565b915061298182613376565b602082019050919050565b6000612999602583612e94565b91506129a48261339f565b604082019050919050565b60006129bc603583612e94565b91506129c7826133ee565b604082019050919050565b6060820160008201516129e86000850182612ae0565b5060208201516129fb602085018261273c565b506040820151612a0e6040850182612816565b50505050565b606082016000820151612a2a6000850182612ae0565b506020820151612a3d602085018261273c565b506040820151612a506040850182612816565b50505050565b600061010083016000830151612a6f6000860182612ae0565b506020830151612a82602086018261273c565b506040830151612a956040860182612ae0565b506060830151612aa86060860182612b0d565b5060808301518482036080860152612ac08282612825565b91505060a0830151612ad560a08601826129d2565b508091505092915050565b612ae981612f80565b82525050565b612af881612f80565b82525050565b612b0781612fa9565b82525050565b612b1681612f8a565b82525050565b612b2581612f8a565b82525050565b6000602082019050612b40600083018461274b565b92915050565b6000604082019050612b5b600083018561274b565b612b686020830184612aef565b9392505050565b60006020820190508181036000830152612b89818461275a565b905092915050565b60006020820190508181036000830152612bab81846127b8565b905092915050565b60006020820190508181036000830152612bcc81612897565b9050919050565b60006020820190508181036000830152612bec816128ba565b9050919050565b60006020820190508181036000830152612c0c816128dd565b9050919050565b60006020820190508181036000830152612c2c81612900565b9050919050565b60006020820190508181036000830152612c4c81612923565b9050919050565b60006020820190508181036000830152612c6c81612946565b9050919050565b60006020820190508181036000830152612c8c81612969565b9050919050565b60006020820190508181036000830152612cac8161298c565b9050919050565b60006020820190508181036000830152612ccc816129af565b9050919050565b60006020820190508181036000830152612ced8184612a56565b905092915050565b6000602082019050612d0a6000830184612aef565b92915050565b600061010082019050612d266000830189612aef565b612d33602083018861274b565b612d406040830187612aef565b612d4d6060830186612b1c565b8181036080830152612d5f818561285e565b9050612d6e60a0830184612a14565b979650505050505050565b6000606082019050612d8e6000830186612aef565b612d9b6020830185612aef565b612da86040830184612afe565b949350505050565b6000612dba612dcb565b9050612dc6828261302f565b919050565b6000604051905090565b600067ffffffffffffffff821115612df057612def613194565b5b612df9826131d7565b9050602081019050919050565b6000819050602082019050919050565b6000819050602082019050919050565b600081519050919050565b600081519050919050565b600081519050919050565b6000602082019050919050565b6000602082019050919050565b600082825260208201905092915050565b600082825260208201905092915050565b600082825260208201905092915050565b600082825260208201905092915050565b6000612eb082612f80565b9150612ebb83612f80565b9250827fffffffffffffffffffffffffffffffffffffffffffffffffffffffffffffffff03821115612ef057612eef6130a9565b5b828201905092915050565b6000612f0682612f80565b9150612f1183612f80565b925082821015612f2457612f236130a9565b5b828203905092915050565b6000612f3a82612f60565b9050919050565b60008115159050919050565b6000819050612f5b8261343d565b919050565b600073ffffffffffffffffffffffffffffffffffffffff82169050919050565b6000819050919050565b600060ff82169050919050565b6000612fa282612f4d565b9050919050565b6000612fb482612f8a565b9050919050565b82818337600083830152505050565b60005b83811015612fe8578082015181840152602081019050612fcd565b83811115612ff7576000848401525b50505050565b6000600282049050600182168061301557607f821691505b6020821081141561302957613028613107565b5b50919050565b613038826131d7565b810181811067ffffffffffffffff8211171561305757613056613194565b5b80604052505050565b600061306b82612f80565b91507fffffffffffffffffffffffffffffffffffffffffffffffffffffffffffffffff82141561309e5761309d6130a9565b5b600182019050919050565b7f4e487b7100000000000000000000000000000000000000000000000000000000600052601160045260246000fd5b7f4e487b7100000000000000000000000000000000000000000000000000000000600052602160045260246000fd5b7f4e487b7100000000000000000000000000000000000000000000000000000000600052602260045260246000fd5b7f4e487b7100000000000000000000000000000000000000000000000000000000600052603160045260246000fd5b7f4e487b7100000000000000000000000000000000000000000000000000000000600052603260045260246000fd5b7f4e487b7100000000000000000000000000000000000000000000000000000000600052604160045260246000fd5b600080fd5b600080fd5b600080fd5b600080fd5b6000601f19601f8301169050919050565b7f4b6973696e696e20627520616472657320766520736572746966696b6120696460008201527f2064656765726920696c65206b6179646920796f6b7475722e00000000000000602082015250565b7f4b697369206d657663757420646567696c000000000000000000000000000000600082015250565b7f4b6973696e696e206f6e61792062656b6c6579656e206269722074616c65626960008201527f20796f6b7475722e000000000000000000000000000000000000000000000000602082015250565b7f4f6e61792042656b6c6579656e204c69737465736920426f7374757200000000600082015250565b7f536164656365207965746b696c69207061796461732062752069736c656d692060008201527f7961706162696c69722e00000000000000000000000000000000000000000000602082015250565b7f5361646563652054616c6570206564696c656e206b7572756d206f6e61796c6160008201527f796162696c69722e000000000000000000000000000000000000000000000000602082015250565b7f4b6973692062756c756e616d6164690000000000000000000000000000000000600082015250565b7f4b697369204f6e61792042656b6c6579656e204c6973746573696e646520596f60008201527f6b7475722e000000000000000000000000000000000000000000000000000000602082015250565b7f4b6973696e696e2064616861206f6e636564656e206f6e61792062656b6c657960008201527f656e206269722074616c656269207661726469722e0000000000000000000000602082015250565b6003811061344e5761344d6130d8565b5b50565b61345a81612f2f565b811461346557600080fd5b50565b61347181612f41565b811461347c57600080fd5b50565b61348881612f80565b811461349357600080fd5b50565b61349f81612f8a565b81146134aa57600080fd5b5056fea264697066735822122029b390a27ef0cc89fb405e8b97ca0a6e27116fd5862d2b3ae1281b5da90282a864736f6c63430008070033",
			"opcodes": "PUSH1 0x80 PUSH1 0x40 MSTORE CALLVALUE DUP1 ISZERO PUSH3 0x11 JUMPI PUSH1 0x0 DUP1 REVERT JUMPDEST POP PUSH1 0x40 MLOAD PUSH3 0x3616 CODESIZE SUB DUP1 PUSH3 0x3616 DUP4 CODECOPY DUP2 DUP2 ADD PUSH1 0x40 MSTORE DUP2 ADD SWAP1 PUSH3 0x37 SWAP2 SWAP1 PUSH3 0x9E JUMP JUMPDEST DUP1 PUSH1 0x1 PUSH1 0x0 PUSH2 0x100 EXP DUP2 SLOAD DUP2 PUSH20 0xFFFFFFFFFFFFFFFFFFFFFFFFFFFFFFFFFFFFFFFF MUL NOT AND SWAP1 DUP4 PUSH20 0xFFFFFFFFFFFFFFFFFFFFFFFFFFFFFFFFFFFFFFFF AND MUL OR SWAP1 SSTORE POP PUSH1 0x1 PUSH1 0x0 DUP2 SWAP1 SSTORE POP POP PUSH3 0x123 JUMP JUMPDEST PUSH1 0x0 DUP2 MLOAD SWAP1 POP PUSH3 0x98 DUP2 PUSH3 0x109 JUMP JUMPDEST SWAP3 SWAP2 POP POP JUMP JUMPDEST PUSH1 0x0 PUSH1 0x20 DUP3 DUP5 SUB SLT ISZERO PUSH3 0xB7 JUMPI PUSH3 0xB6 PUSH3 0x104 JUMP JUMPDEST JUMPDEST PUSH1 0x0 PUSH3 0xC7 DUP5 DUP3 DUP6 ADD PUSH3 0x87 JUMP JUMPDEST SWAP2 POP POP SWAP3 SWAP2 POP POP JUMP JUMPDEST PUSH1 0x0 PUSH3 0xDD DUP3 PUSH3 0xE4 JUMP JUMPDEST SWAP1 POP SWAP2 SWAP1 POP JUMP JUMPDEST PUSH1 0x0 PUSH20 0xFFFFFFFFFFFFFFFFFFFFFFFFFFFFFFFFFFFFFFFF DUP3 AND SWAP1 POP SWAP2 SWAP1 POP JUMP JUMPDEST PUSH1 0x0 DUP1 REVERT JUMPDEST PUSH3 0x114 DUP2 PUSH3 0xD0 JUMP JUMPDEST DUP2 EQ PUSH3 0x120 JUMPI PUSH1 0x0 DUP1 REVERT JUMPDEST POP JUMP JUMPDEST PUSH2 0x34E3 DUP1 PUSH3 0x133 PUSH1 0x0 CODECOPY PUSH1 0x0 RETURN INVALID PUSH1 0x80 PUSH1 0x40 MSTORE CALLVALUE DUP1 ISZERO PUSH2 0x10 JUMPI PUSH1 0x0 DUP1 REVERT JUMPDEST POP PUSH1 0x4 CALLDATASIZE LT PUSH2 0xA9 JUMPI PUSH1 0x0 CALLDATALOAD PUSH1 0xE0 SHR DUP1 PUSH4 0x760050B0 GT PUSH2 0x71 JUMPI DUP1 PUSH4 0x760050B0 EQ PUSH2 0x17D JUMPI DUP1 PUSH4 0x86F55628 EQ PUSH2 0x1AD JUMPI DUP1 PUSH4 0x930FD616 EQ PUSH2 0x1DD JUMPI DUP1 PUSH4 0xAF640D0F EQ PUSH2 0x20D JUMPI DUP1 PUSH4 0xCCA50940 EQ PUSH2 0x22B JUMPI DUP1 PUSH4 0xD44AE3B1 EQ PUSH2 0x247 JUMPI PUSH2 0xA9 JUMP JUMPDEST DUP1 PUSH4 0x126E67BA EQ PUSH2 0xAE JUMPI DUP1 PUSH4 0x13E5C393 EQ PUSH2 0xDE JUMPI DUP1 PUSH4 0x2281D48D EQ PUSH2 0x113 JUMPI DUP1 PUSH4 0x4B31362B EQ PUSH2 0x143 JUMPI DUP1 PUSH4 0x6F9BCE31 EQ PUSH2 0x161 JUMPI JUMPDEST PUSH1 0x0 DUP1 REVERT JUMPDEST PUSH2 0xC8 PUSH1 0x4 DUP1 CALLDATASIZE SUB DUP2 ADD SWAP1 PUSH2 0xC3 SWAP2 SWAP1 PUSH2 0x2558 JUMP JUMPDEST PUSH2 0x277 JUMP JUMPDEST PUSH1 0x40 MLOAD PUSH2 0xD5 SWAP2 SWAP1 PUSH2 0x2CF5 JUMP JUMPDEST PUSH1 0x40 MLOAD DUP1 SWAP2 SUB SWAP1 RETURN JUMPDEST PUSH2 0xF8 PUSH1 0x4 DUP1 CALLDATASIZE SUB DUP2 ADD SWAP1 PUSH2 0xF3 SWAP2 SWAP1 PUSH2 0x2558 JUMP JUMPDEST PUSH2 0x731 JUMP JUMPDEST PUSH1 0x40 MLOAD PUSH2 0x10A SWAP7 SWAP6 SWAP5 SWAP4 SWAP3 SWAP2 SWAP1 PUSH2 0x2D10 JUMP JUMPDEST PUSH1 0x40 MLOAD DUP1 SWAP2 SUB SWAP1 RETURN JUMPDEST PUSH2 0x12D PUSH1 0x4 DUP1 CALLDATASIZE SUB DUP2 ADD SWAP1 PUSH2 0x128 SWAP2 SWAP1 PUSH2 0x2598 JUMP JUMPDEST PUSH2 0x8D4 JUMP JUMPDEST PUSH1 0x40 MLOAD PUSH2 0x13A SWAP2 SWAP1 PUSH2 0x2CF5 JUMP JUMPDEST PUSH1 0x40 MLOAD DUP1 SWAP2 SUB SWAP1 RETURN JUMPDEST PUSH2 0x14B PUSH2 0xE22 JUMP JUMPDEST PUSH1 0x40 MLOAD PUSH2 0x158 SWAP2 SWAP1 PUSH2 0x2B6F JUMP JUMPDEST PUSH1 0x40 MLOAD DUP1 SWAP2 SUB SWAP1 RETURN JUMPDEST PUSH2 0x17B PUSH1 0x4 DUP1 CALLDATASIZE SUB DUP2 ADD SWAP1 PUSH2 0x176 SWAP2 SWAP1 PUSH2 0x262F JUMP JUMPDEST PUSH2 0xEB0 JUMP JUMPDEST STOP JUMPDEST PUSH2 0x197 PUSH1 0x4 DUP1 CALLDATASIZE SUB DUP2 ADD SWAP1 PUSH2 0x192 SWAP2 SWAP1 PUSH2 0x2558 JUMP JUMPDEST PUSH2 0x1439 JUMP JUMPDEST PUSH1 0x40 MLOAD PUSH2 0x1A4 SWAP2 SWAP1 PUSH2 0x2CF5 JUMP JUMPDEST PUSH1 0x40 MLOAD DUP1 SWAP2 SUB SWAP1 RETURN JUMPDEST PUSH2 0x1C7 PUSH1 0x4 DUP1 CALLDATASIZE SUB DUP2 ADD SWAP1 PUSH2 0x1C2 SWAP2 SWAP1 PUSH2 0x26DF JUMP JUMPDEST PUSH2 0x146A JUMP JUMPDEST PUSH1 0x40 MLOAD PUSH2 0x1D4 SWAP2 SWAP1 PUSH2 0x2B2B JUMP JUMPDEST PUSH1 0x40 MLOAD DUP1 SWAP2 SUB SWAP1 RETURN JUMPDEST PUSH2 0x1F7 PUSH1 0x4 DUP1 CALLDATASIZE SUB DUP2 ADD SWAP1 PUSH2 0x1F2 SWAP2 SWAP1 PUSH2 0x2558 JUMP JUMPDEST PUSH2 0x14A9 JUMP JUMPDEST PUSH1 0x40 MLOAD PUSH2 0x204 SWAP2 SWAP1 PUSH2 0x2CD3 JUMP JUMPDEST PUSH1 0x40 MLOAD DUP1 SWAP2 SUB SWAP1 RETURN JUMPDEST PUSH2 0x215 PUSH2 0x16DC JUMP JUMPDEST PUSH1 0x40 MLOAD PUSH2 0x222 SWAP2 SWAP1 PUSH2 0x2CF5 JUMP JUMPDEST PUSH1 0x40 MLOAD DUP1 SWAP2 SUB SWAP1 RETURN JUMPDEST PUSH2 0x245 PUSH1 0x4 DUP1 CALLDATASIZE SUB DUP2 ADD SWAP1 PUSH2 0x240 SWAP2 SWAP1 PUSH2 0x24C1 JUMP JUMPDEST PUSH2 0x16E2 JUMP JUMPDEST STOP JUMPDEST PUSH2 0x261 PUSH1 0x4 DUP1 CALLDATASIZE SUB DUP2 ADD SWAP1 PUSH2 0x25C SWAP2 SWAP1 PUSH2 0x2494 JUMP JUMPDEST PUSH2 0x1B78 JUMP JUMPDEST PUSH1 0x40 MLOAD PUSH2 0x26E SWAP2 SWAP1 PUSH2 0x2B91 JUMP JUMPDEST PUSH1 0x40 MLOAD DUP1 SWAP2 SUB SWAP1 RETURN JUMPDEST PUSH1 0x0 PUSH1 0x1 PUSH1 0x0 SWAP1 SLOAD SWAP1 PUSH2 0x100 EXP SWAP1 DIV PUSH20 0xFFFFFFFFFFFFFFFFFFFFFFFFFFFFFFFFFFFFFFFF AND PUSH20 0xFFFFFFFFFFFFFFFFFFFFFFFFFFFFFFFFFFFFFFFF AND PUSH4 0xE24047CA CALLER PUSH1 0x40 MLOAD DUP3 PUSH4 0xFFFFFFFF AND PUSH1 0xE0 SHL DUP2 MSTORE PUSH1 0x4 ADD PUSH2 0x2D4 SWAP2 SWAP1 PUSH2 0x2B2B JUMP JUMPDEST PUSH1 0x20 PUSH1 0x40 MLOAD DUP1 DUP4 SUB DUP2 DUP7 DUP1 EXTCODESIZE ISZERO DUP1 ISZERO PUSH2 0x2EC JUMPI PUSH1 0x0 DUP1 REVERT JUMPDEST POP GAS STATICCALL ISZERO DUP1 ISZERO PUSH2 0x300 JUMPI RETURNDATASIZE PUSH1 0x0 DUP1 RETURNDATACOPY RETURNDATASIZE PUSH1 0x0 REVERT JUMPDEST POP POP POP POP PUSH1 0x40 MLOAD RETURNDATASIZE PUSH1 0x1F NOT PUSH1 0x1F DUP3 ADD AND DUP3 ADD DUP1 PUSH1 0x40 MSTORE POP DUP2 ADD SWAP1 PUSH2 0x324 SWAP2 SWAP1 PUSH2 0x26B2 JUMP JUMPDEST PUSH2 0x363 JUMPI PUSH1 0x40 MLOAD PUSH32 0x8C379A000000000000000000000000000000000000000000000000000000000 DUP2 MSTORE PUSH1 0x4 ADD PUSH2 0x35A SWAP1 PUSH2 0x2C33 JUMP JUMPDEST PUSH1 0x40 MLOAD DUP1 SWAP2 SUB SWAP1 REVERT JUMPDEST PUSH1 0x1 PUSH1 0x0 SWAP1 SLOAD SWAP1 PUSH2 0x100 EXP SWAP1 DIV PUSH20 0xFFFFFFFFFFFFFFFFFFFFFFFFFFFFFFFFFFFFFFFF AND PUSH20 0xFFFFFFFFFFFFFFFFFFFFFFFFFFFFFFFFFFFFFFFF AND PUSH4 0xB98CCEFD DUP5 PUSH1 0x40 MLOAD DUP3 PUSH4 0xFFFFFFFF AND PUSH1 0xE0 SHL DUP2 MSTORE PUSH1 0x4 ADD PUSH2 0x3BE SWAP2 SWAP1 PUSH2 0x2B2B JUMP JUMPDEST PUSH1 0x20 PUSH1 0x40 MLOAD DUP1 DUP4 SUB DUP2 DUP7 DUP1 EXTCODESIZE ISZERO DUP1 ISZERO PUSH2 0x3D6 JUMPI PUSH1 0x0 DUP1 REVERT JUMPDEST POP GAS STATICCALL ISZERO DUP1 ISZERO PUSH2 0x3EA JUMPI RETURNDATASIZE PUSH1 0x0 DUP1 RETURNDATACOPY RETURNDATASIZE PUSH1 0x0 REVERT JUMPDEST POP POP POP POP PUSH1 0x40 MLOAD RETURNDATASIZE PUSH1 0x1F NOT PUSH1 0x1F DUP3 ADD AND DUP3 ADD DUP1 PUSH1 0x40 MSTORE POP DUP2 ADD SWAP1 PUSH2 0x40E SWAP2 SWAP1 PUSH2 0x26B2 JUMP JUMPDEST PUSH2 0x44D JUMPI PUSH1 0x40 MLOAD PUSH32 0x8C379A000000000000000000000000000000000000000000000000000000000 DUP2 MSTORE PUSH1 0x4 ADD PUSH2 0x444 SWAP1 PUSH2 0x2C73 JUMP JUMPDEST PUSH1 0x40 MLOAD DUP1 SWAP2 SUB SWAP1 REVERT JUMPDEST PUSH2 0x457 DUP4 DUP4 PUSH2 0x1C0F JUMP JUMPDEST PUSH2 0x496 JUMPI PUSH1 0x40 MLOAD PUSH32 0x8C379A000000000000000000000000000000000000000000000000000000000 DUP2 MSTORE PUSH1 0x4 ADD PUSH2 0x48D SWAP1 PUSH2 0x2BF3 JUMP JUMPDEST PUSH1 0x40 MLOAD DUP1 SWAP2 SUB SWAP1 REVERT JUMPDEST CALLER PUSH20 0xFFFFFFFFFFFFFFFFFFFFFFFFFFFFFFFFFFFFFFFF AND PUSH1 0x2 PUSH1 0x0 DUP6 PUSH20 0xFFFFFFFFFFFFFFFFFFFFFFFFFFFFFFFFFFFFFFFF AND PUSH20 0xFFFFFFFFFFFFFFFFFFFFFFFFFFFFFFFFFFFFFFFF AND DUP2 MSTORE PUSH1 0x20 ADD SWAP1 DUP2 MSTORE PUSH1 0x20 ADD PUSH1 0x0 KECCAK256 PUSH1 0x0 DUP5 DUP2 MSTORE PUSH1 0x20 ADD SWAP1 DUP2 MSTORE PUSH1 0x20 ADD PUSH1 0x0 KECCAK256 PUSH1 0x1 ADD PUSH1 0x0 SWAP1 SLOAD SWAP1 PUSH2 0x100 EXP SWAP1 DIV PUSH20 0xFFFFFFFFFFFFFFFFFFFFFFFFFFFFFFFFFFFFFFFF AND PUSH20 0xFFFFFFFFFFFFFFFFFFFFFFFFFFFFFFFFFFFFFFFF AND EQ PUSH2 0x577 JUMPI PUSH1 0x40 MLOAD PUSH32 0x8C379A000000000000000000000000000000000000000000000000000000000 DUP2 MSTORE PUSH1 0x4 ADD PUSH2 0x56E SWAP1 PUSH2 0x2C53 JUMP JUMPDEST PUSH1 0x40 MLOAD DUP1 SWAP2 SUB SWAP1 REVERT JUMPDEST PUSH1 0x1 PUSH1 0x2 PUSH1 0x0 DUP6 PUSH20 0xFFFFFFFFFFFFFFFFFFFFFFFFFFFFFFFFFFFFFFFF AND PUSH20 0xFFFFFFFFFFFFFFFFFFFFFFFFFFFFFFFFFFFFFFFF AND DUP2 MSTORE PUSH1 0x20 ADD SWAP1 DUP2 MSTORE PUSH1 0x20 ADD PUSH1 0x0 KECCAK256 PUSH1 0x0 DUP5 DUP2 MSTORE PUSH1 0x20 ADD SWAP1 DUP2 MSTORE PUSH1 0x20 ADD PUSH1 0x0 KECCAK256 PUSH1 0x5 ADD PUSH1 0x1 ADD PUSH1 0x14 PUSH2 0x100 EXP DUP2 SLOAD DUP2 PUSH1 0xFF MUL NOT AND SWAP1 DUP4 PUSH1 0x2 DUP2 GT ISZERO PUSH2 0x5F1 JUMPI PUSH2 0x5F0 PUSH2 0x30D8 JUMP JUMPDEST JUMPDEST MUL OR SWAP1 SSTORE POP CALLER PUSH1 0x2 PUSH1 0x0 DUP6 PUSH20 0xFFFFFFFFFFFFFFFFFFFFFFFFFFFFFFFFFFFFFFFF AND PUSH20 0xFFFFFFFFFFFFFFFFFFFFFFFFFFFFFFFFFFFFFFFF AND DUP2 MSTORE PUSH1 0x20 ADD SWAP1 DUP2 MSTORE PUSH1 0x20 ADD PUSH1 0x0 KECCAK256 PUSH1 0x0 DUP5 DUP2 MSTORE PUSH1 0x20 ADD SWAP1 DUP2 MSTORE PUSH1 0x20 ADD PUSH1 0x0 KECCAK256 PUSH1 0x5 ADD PUSH1 0x1 ADD PUSH1 0x0 PUSH2 0x100 EXP DUP2 SLOAD DUP2 PUSH20 0xFFFFFFFFFFFFFFFFFFFFFFFFFFFFFFFFFFFFFFFF MUL NOT AND SWAP1 DUP4 PUSH20 0xFFFFFFFFFFFFFFFFFFFFFFFFFFFFFFFFFFFFFFFF AND MUL OR SWAP1 SSTORE POP TIMESTAMP PUSH1 0x2 PUSH1 0x0 DUP6 PUSH20 0xFFFFFFFFFFFFFFFFFFFFFFFFFFFFFFFFFFFFFFFF AND PUSH20 0xFFFFFFFFFFFFFFFFFFFFFFFFFFFFFFFFFFFFFFFF AND DUP2 MSTORE PUSH1 0x20 ADD SWAP1 DUP2 MSTORE PUSH1 0x20 ADD PUSH1 0x0 KECCAK256 PUSH1 0x0 DUP5 DUP2 MSTORE PUSH1 0x20 ADD SWAP1 DUP2 MSTORE PUSH1 0x20 ADD PUSH1 0x0 KECCAK256 PUSH1 0x5 ADD PUSH1 0x0 ADD DUP2 SWAP1 SSTORE POP PUSH2 0x6EF DUP4 PUSH2 0x1DB1 JUMP JUMPDEST PUSH32 0x184FBE53359A73B433D6892ACB1085F17CC306A867BDCBF0913E0298A4C4CCEA CALLER TIMESTAMP PUSH1 0x40 MLOAD PUSH2 0x720 SWAP3 SWAP2 SWAP1 PUSH2 0x2B46 JUMP JUMPDEST PUSH1 0x40 MLOAD DUP1 SWAP2 SUB SWAP1 LOG1 DUP2 SWAP1 POP SWAP3 SWAP2 POP POP JUMP JUMPDEST PUSH1 0x2 PUSH1 0x20 MSTORE DUP2 PUSH1 0x0 MSTORE PUSH1 0x40 PUSH1 0x0 KECCAK256 PUSH1 0x20 MSTORE DUP1 PUSH1 0x0 MSTORE PUSH1 0x40 PUSH1 0x0 KECCAK256 PUSH1 0x0 SWAP2 POP SWAP2 POP POP DUP1 PUSH1 0x0 ADD SLOAD SWAP1 DUP1 PUSH1 0x1 ADD PUSH1 0x0 SWAP1 SLOAD SWAP1 PUSH2 0x100 EXP SWAP1 DIV PUSH20 0xFFFFFFFFFFFFFFFFFFFFFFFFFFFFFFFFFFFFFFFF AND SWAP1 DUP1 PUSH1 0x2 ADD SLOAD SWAP1 DUP1 PUSH1 0x3 ADD PUSH1 0x0 SWAP1 SLOAD SWAP1 PUSH2 0x100 EXP SWAP1 DIV PUSH1 0xFF AND SWAP1 DUP1 PUSH1 0x4 ADD DUP1 SLOAD PUSH2 0x7A6 SWAP1 PUSH2 0x2FFD JUMP JUMPDEST DUP1 PUSH1 0x1F ADD PUSH1 0x20 DUP1 SWAP2 DIV MUL PUSH1 0x20 ADD PUSH1 0x40 MLOAD SWAP1 DUP2 ADD PUSH1 0x40 MSTORE DUP1 SWAP3 SWAP2 SWAP1 DUP2 DUP2 MSTORE PUSH1 0x20 ADD DUP3 DUP1 SLOAD PUSH2 0x7D2 SWAP1 PUSH2 0x2FFD JUMP JUMPDEST DUP1 ISZERO PUSH2 0x81F JUMPI DUP1 PUSH1 0x1F LT PUSH2 0x7F4 JUMPI PUSH2 0x100 DUP1 DUP4 SLOAD DIV MUL DUP4 MSTORE SWAP2 PUSH1 0x20 ADD SWAP2 PUSH2 0x81F JUMP JUMPDEST DUP3 ADD SWAP2 SWAP1 PUSH1 0x0 MSTORE PUSH1 0x20 PUSH1 0x0 KECCAK256 SWAP1 JUMPDEST DUP2 SLOAD DUP2 MSTORE SWAP1 PUSH1 0x1 ADD SWAP1 PUSH1 0x20 ADD DUP1 DUP4 GT PUSH2 0x802 JUMPI DUP3 SWAP1 SUB PUSH1 0x1F AND DUP3 ADD SWAP2 JUMPDEST POP POP POP POP POP SWAP1 DUP1 PUSH1 0x5 ADD PUSH1 0x40 MLOAD DUP1 PUSH1 0x60 ADD PUSH1 0x40 MSTORE SWAP1 DUP2 PUSH1 0x0 DUP3 ADD SLOAD DUP2 MSTORE PUSH1 0x20 ADD PUSH1 0x1 DUP3 ADD PUSH1 0x0 SWAP1 SLOAD SWAP1 PUSH2 0x100 EXP SWAP1 DIV PUSH20 0xFFFFFFFFFFFFFFFFFFFFFFFFFFFFFFFFFFFFFFFF AND PUSH20 0xFFFFFFFFFFFFFFFFFFFFFFFFFFFFFFFFFFFFFFFF AND PUSH20 0xFFFFFFFFFFFFFFFFFFFFFFFFFFFFFFFFFFFFFFFF AND DUP2 MSTORE PUSH1 0x20 ADD PUSH1 0x1 DUP3 ADD PUSH1 0x14 SWAP1 SLOAD SWAP1 PUSH2 0x100 EXP SWAP1 DIV PUSH1 0xFF AND PUSH1 0x2 DUP2 GT ISZERO PUSH2 0x8B9 JUMPI PUSH2 0x8B8 PUSH2 0x30D8 JUMP JUMPDEST JUMPDEST PUSH1 0x2 DUP2 GT ISZERO PUSH2 0x8CB JUMPI PUSH2 0x8CA PUSH2 0x30D8 JUMP JUMPDEST JUMPDEST DUP2 MSTORE POP POP SWAP1 POP DUP7 JUMP JUMPDEST PUSH1 0x0 PUSH1 0x1 PUSH1 0x0 SWAP1 SLOAD SWAP1 PUSH2 0x100 EXP SWAP1 DIV PUSH20 0xFFFFFFFFFFFFFFFFFFFFFFFFFFFFFFFFFFFFFFFF AND PUSH20 0xFFFFFFFFFFFFFFFFFFFFFFFFFFFFFFFFFFFFFFFF AND PUSH4 0xE24047CA CALLER PUSH1 0x40 MLOAD DUP3 PUSH4 0xFFFFFFFF AND PUSH1 0xE0 SHL DUP2 MSTORE PUSH1 0x4 ADD PUSH2 0x931 SWAP2 SWAP1 PUSH2 0x2B2B JUMP JUMPDEST PUSH1 0x20 PUSH1 0x40 MLOAD DUP1 DUP4 SUB DUP2 DUP7 DUP1 EXTCODESIZE ISZERO DUP1 ISZERO PUSH2 0x949 JUMPI PUSH1 0x0 DUP1 REVERT JUMPDEST POP GAS STATICCALL ISZERO DUP1 ISZERO PUSH2 0x95D JUMPI RETURNDATASIZE PUSH1 0x0 DUP1 RETURNDATACOPY RETURNDATASIZE PUSH1 0x0 REVERT JUMPDEST POP POP POP POP PUSH1 0x40 MLOAD RETURNDATASIZE PUSH1 0x1F NOT PUSH1 0x1F DUP3 ADD AND DUP3 ADD DUP1 PUSH1 0x40 MSTORE POP DUP2 ADD SWAP1 PUSH2 0x981 SWAP2 SWAP1 PUSH2 0x26B2 JUMP JUMPDEST PUSH2 0x9C0 JUMPI PUSH1 0x40 MLOAD PUSH32 0x8C379A000000000000000000000000000000000000000000000000000000000 DUP2 MSTORE PUSH1 0x4 ADD PUSH2 0x9B7 SWAP1 PUSH2 0x2C33 JUMP JUMPDEST PUSH1 0x40 MLOAD DUP1 SWAP2 SUB SWAP1 REVERT JUMPDEST PUSH1 0x1 PUSH1 0x0 SWAP1 SLOAD SWAP1 PUSH2 0x100 EXP SWAP1 DIV PUSH20 0xFFFFFFFFFFFFFFFFFFFFFFFFFFFFFFFFFFFFFFFF AND PUSH20 0xFFFFFFFFFFFFFFFFFFFFFFFFFFFFFFFFFFFFFFFF AND PUSH4 0xB98CCEFD DUP8 PUSH1 0x40 MLOAD DUP3 PUSH4 0xFFFFFFFF AND PUSH1 0xE0 SHL DUP2 MSTORE PUSH1 0x4 ADD PUSH2 0xA1B SWAP2 SWAP1 PUSH2 0x2B2B JUMP JUMPDEST PUSH1 0x20 PUSH1 0x40 MLOAD DUP1 DUP4 SUB DUP2 DUP7 DUP1 EXTCODESIZE ISZERO DUP1 ISZERO PUSH2 0xA33 JUMPI PUSH1 0x0 DUP1 REVERT JUMPDEST POP GAS STATICCALL ISZERO DUP1 ISZERO PUSH2 0xA47 JUMPI RETURNDATASIZE PUSH1 0x0 DUP1 RETURNDATACOPY RETURNDATASIZE PUSH1 0x0 REVERT JUMPDEST POP POP POP POP PUSH1 0x40 MLOAD RETURNDATASIZE PUSH1 0x1F NOT PUSH1 0x1F DUP3 ADD AND DUP3 ADD DUP1 PUSH1 0x40 MSTORE POP DUP2 ADD SWAP1 PUSH2 0xA6B SWAP2 SWAP1 PUSH2 0x26B2 JUMP JUMPDEST PUSH2 0xAAA JUMPI PUSH1 0x40 MLOAD PUSH32 0x8C379A000000000000000000000000000000000000000000000000000000000 DUP2 MSTORE PUSH1 0x4 ADD PUSH2 0xAA1 SWAP1 PUSH2 0x2C73 JUMP JUMPDEST PUSH1 0x40 MLOAD DUP1 SWAP2 SUB SWAP1 REVERT JUMPDEST PUSH1 0x1 PUSH1 0x2 PUSH1 0x0 DUP9 PUSH20 0xFFFFFFFFFFFFFFFFFFFFFFFFFFFFFFFFFFFFFFFF AND PUSH20 0xFFFFFFFFFFFFFFFFFFFFFFFFFFFFFFFFFFFFFFFF AND DUP2 MSTORE PUSH1 0x20 ADD SWAP1 DUP2 MSTORE PUSH1 0x20 ADD PUSH1 0x0 KECCAK256 PUSH1 0x0 DUP8 DUP2 MSTORE PUSH1 0x20 ADD SWAP1 DUP2 MSTORE PUSH1 0x20 ADD PUSH1 0x0 KECCAK256 PUSH1 0x0 ADD SLOAD GT PUSH2 0xB40 JUMPI PUSH1 0x40 MLOAD PUSH32 0x8C379A000000000000000000000000000000000000000000000000000000000 DUP2 MSTORE PUSH1 0x4 ADD PUSH2 0xB37 SWAP1 PUSH2 0x2BB3 JUMP JUMPDEST PUSH1 0x40 MLOAD DUP1 SWAP2 SUB SWAP1 REVERT JUMPDEST DUP4 PUSH1 0x2 PUSH1 0x0 DUP9 PUSH20 0xFFFFFFFFFFFFFFFFFFFFFFFFFFFFFFFFFFFFFFFF AND PUSH20 0xFFFFFFFFFFFFFFFFFFFFFFFFFFFFFFFFFFFFFFFF AND DUP2 MSTORE PUSH1 0x20 ADD SWAP1 DUP2 MSTORE PUSH1 0x20 ADD PUSH1 0x0 KECCAK256 PUSH1 0x0 DUP8 DUP2 MSTORE PUSH1 0x20 ADD SWAP1 DUP2 MSTORE PUSH1 0x20 ADD PUSH1 0x0 KECCAK256 PUSH1 0x2 ADD DUP2 SWAP1 SSTORE POP DUP3 PUSH1 0x2 PUSH1 0x0 DUP9 PUSH20 0xFFFFFFFFFFFFFFFFFFFFFFFFFFFFFFFFFFFFFFFF AND PUSH20 0xFFFFFFFFFFFFFFFFFFFFFFFFFFFFFFFFFFFFFFFF AND DUP2 MSTORE PUSH1 0x20 ADD SWAP1 DUP2 MSTORE PUSH1 0x20 ADD PUSH1 0x0 KECCAK256 PUSH1 0x0 DUP8 DUP2 MSTORE PUSH1 0x20 ADD SWAP1 DUP2 MSTORE PUSH1 0x20 ADD PUSH1 0x0 KECCAK256 PUSH1 0x3 ADD PUSH1 0x0 PUSH2 0x100 EXP DUP2 SLOAD DUP2 PUSH1 0xFF MUL NOT AND SWAP1 DUP4 PUSH1 0xFF AND MUL OR SWAP1 SSTORE POP DUP2 PUSH1 0x2 PUSH1 0x0 DUP9 PUSH20 0xFFFFFFFFFFFFFFFFFFFFFFFFFFFFFFFFFFFFFFFF AND PUSH20 0xFFFFFFFFFFFFFFFFFFFFFFFFFFFFFFFFFFFFFFFF AND DUP2 MSTORE PUSH1 0x20 ADD SWAP1 DUP2 MSTORE PUSH1 0x20 ADD PUSH1 0x0 KECCAK256 PUSH1 0x0 DUP8 DUP2 MSTORE PUSH1 0x20 ADD SWAP1 DUP2 MSTORE PUSH1 0x20 ADD PUSH1 0x0 KECCAK256 PUSH1 0x4 ADD SWAP1 DUP1 MLOAD SWAP1 PUSH1 0x20 ADD SWAP1 PUSH2 0xC6B SWAP3 SWAP2 SWAP1 PUSH2 0x228F JUMP JUMPDEST POP PUSH1 0x1 PUSH1 0x2 PUSH1 0x0 DUP9 PUSH20 0xFFFFFFFFFFFFFFFFFFFFFFFFFFFFFFFFFFFFFFFF AND PUSH20 0xFFFFFFFFFFFFFFFFFFFFFFFFFFFFFFFFFFFFFFFF AND DUP2 MSTORE PUSH1 0x20 ADD SWAP1 DUP2 MSTORE PUSH1 0x20 ADD PUSH1 0x0 KECCAK256 PUSH1 0x0 DUP8 DUP2 MSTORE PUSH1 0x20 ADD SWAP1 DUP2 MSTORE PUSH1 0x20 ADD PUSH1 0x0 KECCAK256 PUSH1 0x5 ADD PUSH1 0x1 ADD PUSH1 0x14 PUSH2 0x100 EXP DUP2 SLOAD DUP2 PUSH1 0xFF MUL NOT AND SWAP1 DUP4 PUSH1 0x2 DUP2 GT ISZERO PUSH2 0xCE6 JUMPI PUSH2 0xCE5 PUSH2 0x30D8 JUMP JUMPDEST JUMPDEST MUL OR SWAP1 SSTORE POP TIMESTAMP PUSH1 0x2 PUSH1 0x0 DUP9 PUSH20 0xFFFFFFFFFFFFFFFFFFFFFFFFFFFFFFFFFFFFFFFF AND PUSH20 0xFFFFFFFFFFFFFFFFFFFFFFFFFFFFFFFFFFFFFFFF AND DUP2 MSTORE PUSH1 0x20 ADD SWAP1 DUP2 MSTORE PUSH1 0x20 ADD PUSH1 0x0 KECCAK256 PUSH1 0x0 DUP8 DUP2 MSTORE PUSH1 0x20 ADD SWAP1 DUP2 MSTORE PUSH1 0x20 ADD PUSH1 0x0 KECCAK256 PUSH1 0x5 ADD PUSH1 0x0 ADD DUP2 SWAP1 SSTORE POP CALLER PUSH1 0x2 PUSH1 0x0 DUP9 PUSH20 0xFFFFFFFFFFFFFFFFFFFFFFFFFFFFFFFFFFFFFFFF AND PUSH20 0xFFFFFFFFFFFFFFFFFFFFFFFFFFFFFFFFFFFFFFFF AND DUP2 MSTORE PUSH1 0x20 ADD SWAP1 DUP2 MSTORE PUSH1 0x20 ADD PUSH1 0x0 KECCAK256 PUSH1 0x0 DUP8 DUP2 MSTORE PUSH1 0x20 ADD SWAP1 DUP2 MSTORE PUSH1 0x20 ADD PUSH1 0x0 KECCAK256 PUSH1 0x5 ADD PUSH1 0x1 ADD PUSH1 0x0 PUSH2 0x100 EXP DUP2 SLOAD DUP2 PUSH20 0xFFFFFFFFFFFFFFFFFFFFFFFFFFFFFFFFFFFFFFFF MUL NOT AND SWAP1 DUP4 PUSH20 0xFFFFFFFFFFFFFFFFFFFFFFFFFFFFFFFFFFFFFFFF AND MUL OR SWAP1 SSTORE POP PUSH32 0xF9F415B36BAB00EC7CE2B6169FBA48D979AC445D0B84E81BE942439E3B492981 DUP6 DUP6 DUP6 PUSH1 0x40 MLOAD PUSH2 0xE0E SWAP4 SWAP3 SWAP2 SWAP1 PUSH2 0x2D79 JUMP JUMPDEST PUSH1 0x40 MLOAD DUP1 SWAP2 SUB SWAP1 LOG1 DUP5 SWAP1 POP SWAP6 SWAP5 POP POP POP POP POP JUMP JUMPDEST PUSH1 0x60 PUSH1 0x3 DUP1 SLOAD DUP1 PUSH1 0x20 MUL PUSH1 0x20 ADD PUSH1 0x40 MLOAD SWAP1 DUP2 ADD PUSH1 0x40 MSTORE DUP1 SWAP3 SWAP2 SWAP1 DUP2 DUP2 MSTORE PUSH1 0x20 ADD DUP3 DUP1 SLOAD DUP1 ISZERO PUSH2 0xEA6 JUMPI PUSH1 0x20 MUL DUP3 ADD SWAP2 SWAP1 PUSH1 0x0 MSTORE PUSH1 0x20 PUSH1 0x0 KECCAK256 SWAP1 JUMPDEST DUP2 PUSH1 0x0 SWAP1 SLOAD SWAP1 PUSH2 0x100 EXP SWAP1 DIV PUSH20 0xFFFFFFFFFFFFFFFFFFFFFFFFFFFFFFFFFFFFFFFF AND PUSH20 0xFFFFFFFFFFFFFFFFFFFFFFFFFFFFFFFFFFFFFFFF AND DUP2 MSTORE PUSH1 0x20 ADD SWAP1 PUSH1 0x1 ADD SWAP1 DUP1 DUP4 GT PUSH2 0xE5C JUMPI JUMPDEST POP POP POP POP POP SWAP1 POP SWAP1 JUMP JUMPDEST PUSH1 0x1 PUSH1 0x0 SWAP1 SLOAD SWAP1 PUSH2 0x100 EXP SWAP1 DIV PUSH20 0xFFFFFFFFFFFFFFFFFFFFFFFFFFFFFFFFFFFFFFFF AND PUSH20 0xFFFFFFFFFFFFFFFFFFFFFFFFFFFFFFFFFFFFFFFF AND PUSH4 0xE24047CA CALLER PUSH1 0x40 MLOAD DUP3 PUSH4 0xFFFFFFFF AND PUSH1 0xE0 SHL DUP2 MSTORE PUSH1 0x4 ADD PUSH2 0xF0B SWAP2 SWAP1 PUSH2 0x2B2B JUMP JUMPDEST PUSH1 0x20 PUSH1 0x40 MLOAD DUP1 DUP4 SUB DUP2 DUP7 DUP1 EXTCODESIZE ISZERO DUP1 ISZERO PUSH2 0xF23 JUMPI PUSH1 0x0 DUP1 REVERT JUMPDEST POP GAS STATICCALL ISZERO DUP1 ISZERO PUSH2 0xF37 JUMPI RETURNDATASIZE PUSH1 0x0 DUP1 RETURNDATACOPY RETURNDATASIZE PUSH1 0x0 REVERT JUMPDEST POP POP POP POP PUSH1 0x40 MLOAD RETURNDATASIZE PUSH1 0x1F NOT PUSH1 0x1F DUP3 ADD AND DUP3 ADD DUP1 PUSH1 0x40 MSTORE POP DUP2 ADD SWAP1 PUSH2 0xF5B SWAP2 SWAP1 PUSH2 0x26B2 JUMP JUMPDEST PUSH2 0xF9A JUMPI PUSH1 0x40 MLOAD PUSH32 0x8C379A000000000000000000000000000000000000000000000000000000000 DUP2 MSTORE PUSH1 0x4 ADD PUSH2 0xF91 SWAP1 PUSH2 0x2C33 JUMP JUMPDEST PUSH1 0x40 MLOAD DUP1 SWAP2 SUB SWAP1 REVERT JUMPDEST PUSH1 0x1 PUSH1 0x0 SWAP1 SLOAD SWAP1 PUSH2 0x100 EXP SWAP1 DIV PUSH20 0xFFFFFFFFFFFFFFFFFFFFFFFFFFFFFFFFFFFFFFFF AND PUSH20 0xFFFFFFFFFFFFFFFFFFFFFFFFFFFFFFFFFFFFFFFF AND PUSH4 0xB98CCEFD DUP6 PUSH1 0x40 MLOAD DUP3 PUSH4 0xFFFFFFFF AND PUSH1 0xE0 SHL DUP2 MSTORE PUSH1 0x4 ADD PUSH2 0xFF5 SWAP2 SWAP1 PUSH2 0x2B2B JUMP JUMPDEST PUSH1 0x20 PUSH1 0x40 MLOAD DUP1 DUP4 SUB DUP2 DUP7 DUP1 EXTCODESIZE ISZERO DUP1 ISZERO PUSH2 0x100D JUMPI PUSH1 0x0 DUP1 REVERT JUMPDEST POP GAS STATICCALL ISZERO DUP1 ISZERO PUSH2 0x1021 JUMPI RETURNDATASIZE PUSH1 0x0 DUP1 RETURNDATACOPY RETURNDATASIZE PUSH1 0x0 REVERT JUMPDEST POP POP POP POP PUSH1 0x40 MLOAD RETURNDATASIZE PUSH1 0x1F NOT PUSH1 0x1F DUP3 ADD AND DUP3 ADD DUP1 PUSH1 0x40 MSTORE POP DUP2 ADD SWAP1 PUSH2 0x1045 SWAP2 SWAP1 PUSH2 0x26B2 JUMP JUMPDEST PUSH2 0x1084 JUMPI PUSH1 0x40 MLOAD PUSH32 0x8C379A000000000000000000000000000000000000000000000000000000000 DUP2 MSTORE PUSH1 0x4 ADD PUSH2 0x107B SWAP1 PUSH2 0x2C73 JUMP JUMPDEST PUSH1 0x40 MLOAD DUP1 SWAP2 SUB SWAP1 REVERT JUMPDEST PUSH1 0x0 DUP1 PUSH1 0x0 DUP2 SLOAD DUP1 SWAP3 SWAP2 SWAP1 PUSH2 0x1098 SWAP1 PUSH2 0x3060 JUMP JUMPDEST SWAP2 SWAP1 POP SSTORE SWAP1 POP DUP1 PUSH1 0x2 PUSH1 0x0 DUP8 PUSH20 0xFFFFFFFFFFFFFFFFFFFFFFFFFFFFFFFFFFFFFFFF AND PUSH20 0xFFFFFFFFFFFFFFFFFFFFFFFFFFFFFFFFFFFFFFFF AND DUP2 MSTORE PUSH1 0x20 ADD SWAP1 DUP2 MSTORE PUSH1 0x20 ADD PUSH1 0x0 KECCAK256 PUSH1 0x0 DUP4 DUP2 MSTORE PUSH1 0x20 ADD SWAP1 DUP2 MSTORE PUSH1 0x20 ADD PUSH1 0x0 KECCAK256 PUSH1 0x0 ADD DUP2 SWAP1 SSTORE POP DUP4 PUSH1 0x2 PUSH1 0x0 DUP8 PUSH20 0xFFFFFFFFFFFFFFFFFFFFFFFFFFFFFFFFFFFFFFFF AND PUSH20 0xFFFFFFFFFFFFFFFFFFFFFFFFFFFFFFFFFFFFFFFF AND DUP2 MSTORE PUSH1 0x20 ADD SWAP1 DUP2 MSTORE PUSH1 0x20 ADD PUSH1 0x0 KECCAK256 PUSH1 0x0 DUP4 DUP2 MSTORE PUSH1 0x20 ADD SWAP1 DUP2 MSTORE PUSH1 0x20 ADD PUSH1 0x0 KECCAK256 PUSH1 0x2 ADD DUP2 SWAP1 SSTORE POP DUP3 PUSH1 0x2 PUSH1 0x0 DUP8 PUSH20 0xFFFFFFFFFFFFFFFFFFFFFFFFFFFFFFFFFFFFFFFF AND PUSH20 0xFFFFFFFFFFFFFFFFFFFFFFFFFFFFFFFFFFFFFFFF AND DUP2 MSTORE PUSH1 0x20 ADD SWAP1 DUP2 MSTORE PUSH1 0x20 ADD PUSH1 0x0 KECCAK256 PUSH1 0x0 DUP4 DUP2 MSTORE PUSH1 0x20 ADD SWAP1 DUP2 MSTORE PUSH1 0x20 ADD PUSH1 0x0 KECCAK256 PUSH1 0x3 ADD PUSH1 0x0 PUSH2 0x100 EXP DUP2 SLOAD DUP2 PUSH1 0xFF MUL NOT AND SWAP1 DUP4 PUSH1 0xFF AND MUL OR SWAP1 SSTORE POP DUP2 PUSH1 0x2 PUSH1 0x0 DUP8 PUSH20 0xFFFFFFFFFFFFFFFFFFFFFFFFFFFFFFFFFFFFFFFF AND PUSH20 0xFFFFFFFFFFFFFFFFFFFFFFFFFFFFFFFFFFFFFFFF AND DUP2 MSTORE PUSH1 0x20 ADD SWAP1 DUP2 MSTORE PUSH1 0x20 ADD PUSH1 0x0 KECCAK256 PUSH1 0x0 DUP4 DUP2 MSTORE PUSH1 0x20 ADD SWAP1 DUP2 MSTORE PUSH1 0x20 ADD PUSH1 0x0 KECCAK256 PUSH1 0x4 ADD SWAP1 DUP1 MLOAD SWAP1 PUSH1 0x20 ADD SWAP1 PUSH2 0x1221 SWAP3 SWAP2 SWAP1 PUSH2 0x228F JUMP JUMPDEST POP PUSH1 0x1 PUSH1 0x2 PUSH1 0x0 DUP8 PUSH20 0xFFFFFFFFFFFFFFFFFFFFFFFFFFFFFFFFFFFFFFFF AND PUSH20 0xFFFFFFFFFFFFFFFFFFFFFFFFFFFFFFFFFFFFFFFF AND DUP2 MSTORE PUSH1 0x20 ADD SWAP1 DUP2 MSTORE PUSH1 0x20 ADD PUSH1 0x0 KECCAK256 PUSH1 0x0 DUP4 DUP2 MSTORE PUSH1 0x20 ADD SWAP1 DUP2 MSTORE PUSH1 0x20 ADD PUSH1 0x0 KECCAK256 PUSH1 0x5 ADD PUSH1 0x1 ADD PUSH1 0x14 PUSH2 0x100 EXP DUP2 SLOAD DUP2 PUSH1 0xFF MUL NOT AND SWAP1 DUP4 PUSH1 0x2 DUP2 GT ISZERO PUSH2 0x129C JUMPI PUSH2 0x129B PUSH2 0x30D8 JUMP JUMPDEST JUMPDEST MUL OR SWAP1 SSTORE POP TIMESTAMP PUSH1 0x2 PUSH1 0x0 DUP8 PUSH20 0xFFFFFFFFFFFFFFFFFFFFFFFFFFFFFFFFFFFFFFFF AND PUSH20 0xFFFFFFFFFFFFFFFFFFFFFFFFFFFFFFFFFFFFFFFF AND DUP2 MSTORE PUSH1 0x20 ADD SWAP1 DUP2 MSTORE PUSH1 0x20 ADD PUSH1 0x0 KECCAK256 PUSH1 0x0 DUP4 DUP2 MSTORE PUSH1 0x20 ADD SWAP1 DUP2 MSTORE PUSH1 0x20 ADD PUSH1 0x0 KECCAK256 PUSH1 0x5 ADD PUSH1 0x0 ADD DUP2 SWAP1 SSTORE POP CALLER PUSH1 0x2 PUSH1 0x0 DUP8 PUSH20 0xFFFFFFFFFFFFFFFFFFFFFFFFFFFFFFFFFFFFFFFF AND PUSH20 0xFFFFFFFFFFFFFFFFFFFFFFFFFFFFFFFFFFFFFFFF AND DUP2 MSTORE PUSH1 0x20 ADD SWAP1 DUP2 MSTORE PUSH1 0x20 ADD PUSH1 0x0 KECCAK256 PUSH1 0x0 DUP4 DUP2 MSTORE PUSH1 0x20 ADD SWAP1 DUP2 MSTORE PUSH1 0x20 ADD PUSH1 0x0 KECCAK256 PUSH1 0x5 ADD PUSH1 0x1 ADD PUSH1 0x0 PUSH2 0x100 EXP DUP2 SLOAD DUP2 PUSH20 0xFFFFFFFFFFFFFFFFFFFFFFFFFFFFFFFFFFFFFFFF MUL NOT AND SWAP1 DUP4 PUSH20 0xFFFFFFFFFFFFFFFFFFFFFFFFFFFFFFFFFFFFFFFF AND MUL OR SWAP1 SSTORE POP PUSH1 0x4 PUSH1 0x0 DUP7 PUSH20 0xFFFFFFFFFFFFFFFFFFFFFFFFFFFFFFFFFFFFFFFF AND PUSH20 0xFFFFFFFFFFFFFFFFFFFFFFFFFFFFFFFFFFFFFFFF AND DUP2 MSTORE PUSH1 0x20 ADD SWAP1 DUP2 MSTORE PUSH1 0x20 ADD PUSH1 0x0 KECCAK256 DUP2 SWAP1 DUP1 PUSH1 0x1 DUP2 SLOAD ADD DUP1 DUP3 SSTORE DUP1 SWAP2 POP POP PUSH1 0x1 SWAP1 SUB SWAP1 PUSH1 0x0 MSTORE PUSH1 0x20 PUSH1 0x0 KECCAK256 ADD PUSH1 0x0 SWAP1 SWAP2 SWAP1 SWAP2 SWAP1 SWAP2 POP SSTORE PUSH32 0x54B623F8C9E4F82DABE9FA4DCDA7698D2759C99C1646C278DEEC0BC70C6F76C DUP2 DUP6 DUP6 PUSH1 0x40 MLOAD PUSH2 0x142A SWAP4 SWAP3 SWAP2 SWAP1 PUSH2 0x2D79 JUMP JUMPDEST PUSH1 0x40 MLOAD DUP1 SWAP2 SUB SWAP1 LOG1 POP POP POP POP POP JUMP JUMPDEST PUSH1 0x4 PUSH1 0x20 MSTORE DUP2 PUSH1 0x0 MSTORE PUSH1 0x40 PUSH1 0x0 KECCAK256 DUP2 DUP2 SLOAD DUP2 LT PUSH2 0x1455 JUMPI PUSH1 0x0 DUP1 REVERT JUMPDEST SWAP1 PUSH1 0x0 MSTORE PUSH1 0x20 PUSH1 0x0 KECCAK256 ADD PUSH1 0x0 SWAP2 POP SWAP2 POP POP SLOAD DUP2 JUMP JUMPDEST PUSH1 0x3 DUP2 DUP2 SLOAD DUP2 LT PUSH2 0x147A JUMPI PUSH1 0x0 DUP1 REVERT JUMPDEST SWAP1 PUSH1 0x0 MSTORE PUSH1 0x20 PUSH1 0x0 KECCAK256 ADD PUSH1 0x0 SWAP2 POP SLOAD SWAP1 PUSH2 0x100 EXP SWAP1 DIV PUSH20 0xFFFFFFFFFFFFFFFFFFFFFFFFFFFFFFFFFFFFFFFF AND DUP2 JUMP JUMPDEST PUSH2 0x14B1 PUSH2 0x2315 JUMP JUMPDEST PUSH1 0x2 PUSH1 0x0 DUP5 PUSH20 0xFFFFFFFFFFFFFFFFFFFFFFFFFFFFFFFFFFFFFFFF AND PUSH20 0xFFFFFFFFFFFFFFFFFFFFFFFFFFFFFFFFFFFFFFFF AND DUP2 MSTORE PUSH1 0x20 ADD SWAP1 DUP2 MSTORE PUSH1 0x20 ADD PUSH1 0x0 KECCAK256 PUSH1 0x0 DUP4 DUP2 MSTORE PUSH1 0x20 ADD SWAP1 DUP2 MSTORE PUSH1 0x20 ADD PUSH1 0x0 KECCAK256 PUSH1 0x40 MLOAD DUP1 PUSH1 0xC0 ADD PUSH1 0x40 MSTORE SWAP1 DUP2 PUSH1 0x0 DUP3 ADD SLOAD DUP2 MSTORE PUSH1 0x20 ADD PUSH1 0x1 DUP3 ADD PUSH1 0x0 SWAP1 SLOAD SWAP1 PUSH2 0x100 EXP SWAP1 DIV PUSH20 0xFFFFFFFFFFFFFFFFFFFFFFFFFFFFFFFFFFFFFFFF AND PUSH20 0xFFFFFFFFFFFFFFFFFFFFFFFFFFFFFFFFFFFFFFFF AND PUSH20 0xFFFFFFFFFFFFFFFFFFFFFFFFFFFFFFFFFFFFFFFF AND DUP2 MSTORE PUSH1 0x20 ADD PUSH1 0x2 DUP3 ADD SLOAD DUP2 MSTORE PUSH1 0x20 ADD PUSH1 0x3 DUP3 ADD PUSH1 0x0 SWAP1 SLOAD SWAP1 PUSH2 0x100 EXP SWAP1 DIV PUSH1 0xFF AND PUSH1 0xFF AND PUSH1 0xFF AND DUP2 MSTORE PUSH1 0x20 ADD PUSH1 0x4 DUP3 ADD DUP1 SLOAD PUSH2 0x15A3 SWAP1 PUSH2 0x2FFD JUMP JUMPDEST DUP1 PUSH1 0x1F ADD PUSH1 0x20 DUP1 SWAP2 DIV MUL PUSH1 0x20 ADD PUSH1 0x40 MLOAD SWAP1 DUP2 ADD PUSH1 0x40 MSTORE DUP1 SWAP3 SWAP2 SWAP1 DUP2 DUP2 MSTORE PUSH1 0x20 ADD DUP3 DUP1 SLOAD PUSH2 0x15CF SWAP1 PUSH2 0x2FFD JUMP JUMPDEST DUP1 ISZERO PUSH2 0x161C JUMPI DUP1 PUSH1 0x1F LT PUSH2 0x15F1 JUMPI PUSH2 0x100 DUP1 DUP4 SLOAD DIV MUL DUP4 MSTORE SWAP2 PUSH1 0x20 ADD SWAP2 PUSH2 0x161C JUMP JUMPDEST DUP3 ADD SWAP2 SWAP1 PUSH1 0x0 MSTORE PUSH1 0x20 PUSH1 0x0 KECCAK256 SWAP1 JUMPDEST DUP2 SLOAD DUP2 MSTORE SWAP1 PUSH1 0x1 ADD SWAP1 PUSH1 0x20 ADD DUP1 DUP4 GT PUSH2 0x15FF JUMPI DUP3 SWAP1 SUB PUSH1 0x1F AND DUP3 ADD SWAP2 JUMPDEST POP POP POP POP POP DUP2 MSTORE PUSH1 0x20 ADD PUSH1 0x5 DUP3 ADD PUSH1 0x40 MLOAD DUP1 PUSH1 0x60 ADD PUSH1 0x40 MSTORE SWAP1 DUP2 PUSH1 0x0 DUP3 ADD SLOAD DUP2 MSTORE PUSH1 0x20 ADD PUSH1 0x1 DUP3 ADD PUSH1 0x0 SWAP1 SLOAD SWAP1 PUSH2 0x100 EXP SWAP1 DIV PUSH20 0xFFFFFFFFFFFFFFFFFFFFFFFFFFFFFFFFFFFFFFFF AND PUSH20 0xFFFFFFFFFFFFFFFFFFFFFFFFFFFFFFFFFFFFFFFF AND PUSH20 0xFFFFFFFFFFFFFFFFFFFFFFFFFFFFFFFFFFFFFFFF AND DUP2 MSTORE PUSH1 0x20 ADD PUSH1 0x1 DUP3 ADD PUSH1 0x14 SWAP1 SLOAD SWAP1 PUSH2 0x100 EXP SWAP1 DIV PUSH1 0xFF AND PUSH1 0x2 DUP2 GT ISZERO PUSH2 0x16BA JUMPI PUSH2 0x16B9 PUSH2 0x30D8 JUMP JUMPDEST JUMPDEST PUSH1 0x2 DUP2 GT ISZERO PUSH2 0x16CC JUMPI PUSH2 0x16CB PUSH2 0x30D8 JUMP JUMPDEST JUMPDEST DUP2 MSTORE POP POP DUP2 MSTORE POP POP SWAP1 POP SWAP3 SWAP2 POP POP JUMP JUMPDEST PUSH1 0x0 SLOAD DUP2 JUMP JUMPDEST PUSH1 0x1 PUSH1 0x0 SWAP1 SLOAD SWAP1 PUSH2 0x100 EXP SWAP1 DIV PUSH20 0xFFFFFFFFFFFFFFFFFFFFFFFFFFFFFFFFFFFFFFFF AND PUSH20 0xFFFFFFFFFFFFFFFFFFFFFFFFFFFFFFFFFFFFFFFF AND PUSH4 0xB98CCEFD DUP7 PUSH1 0x40 MLOAD DUP3 PUSH4 0xFFFFFFFF AND PUSH1 0xE0 SHL DUP2 MSTORE PUSH1 0x4 ADD PUSH2 0x173D SWAP2 SWAP1 PUSH2 0x2B2B JUMP JUMPDEST PUSH1 0x20 PUSH1 0x40 MLOAD DUP1 DUP4 SUB DUP2 DUP7 DUP1 EXTCODESIZE ISZERO DUP1 ISZERO PUSH2 0x1755 JUMPI PUSH1 0x0 DUP1 REVERT JUMPDEST POP GAS STATICCALL ISZERO DUP1 ISZERO PUSH2 0x1769 JUMPI RETURNDATASIZE PUSH1 0x0 DUP1 RETURNDATACOPY RETURNDATASIZE PUSH1 0x0 REVERT JUMPDEST POP POP POP POP PUSH1 0x40 MLOAD RETURNDATASIZE PUSH1 0x1F NOT PUSH1 0x1F DUP3 ADD AND DUP3 ADD DUP1 PUSH1 0x40 MSTORE POP DUP2 ADD SWAP1 PUSH2 0x178D SWAP2 SWAP1 PUSH2 0x26B2 JUMP JUMPDEST PUSH2 0x17CC JUMPI PUSH1 0x40 MLOAD PUSH32 0x8C379A000000000000000000000000000000000000000000000000000000000 DUP2 MSTORE PUSH1 0x4 ADD PUSH2 0x17C3 SWAP1 PUSH2 0x2BD3 JUMP JUMPDEST PUSH1 0x40 MLOAD DUP1 SWAP2 SUB SWAP1 REVERT JUMPDEST PUSH2 0x17D5 DUP6 PUSH2 0x21E0 JUMP JUMPDEST ISZERO PUSH2 0x1815 JUMPI PUSH1 0x40 MLOAD PUSH32 0x8C379A000000000000000000000000000000000000000000000000000000000 DUP2 MSTORE PUSH1 0x4 ADD PUSH2 0x180C SWAP1 PUSH2 0x2CB3 JUMP JUMPDEST PUSH1 0x40 MLOAD DUP1 SWAP2 SUB SWAP1 REVERT JUMPDEST PUSH1 0x0 DUP1 PUSH1 0x0 DUP2 SLOAD DUP1 SWAP3 SWAP2 SWAP1 PUSH2 0x1829 SWAP1 PUSH2 0x3060 JUMP JUMPDEST SWAP2 SWAP1 POP SSTORE SWAP1 POP DUP5 PUSH1 0x2 PUSH1 0x0 DUP9 PUSH20 0xFFFFFFFFFFFFFFFFFFFFFFFFFFFFFFFFFFFFFFFF AND PUSH20 0xFFFFFFFFFFFFFFFFFFFFFFFFFFFFFFFFFFFFFFFF AND DUP2 MSTORE PUSH1 0x20 ADD SWAP1 DUP2 MSTORE PUSH1 0x20 ADD PUSH1 0x0 KECCAK256 PUSH1 0x0 DUP4 DUP2 MSTORE PUSH1 0x20 ADD SWAP1 DUP2 MSTORE PUSH1 0x20 ADD PUSH1 0x0 KECCAK256 PUSH1 0x1 ADD PUSH1 0x0 PUSH2 0x100 EXP DUP2 SLOAD DUP2 PUSH20 0xFFFFFFFFFFFFFFFFFFFFFFFFFFFFFFFFFFFFFFFF MUL NOT AND SWAP1 DUP4 PUSH20 0xFFFFFFFFFFFFFFFFFFFFFFFFFFFFFFFFFFFFFFFF AND MUL OR SWAP1 SSTORE POP DUP4 PUSH1 0x2 PUSH1 0x0 DUP9 PUSH20 0xFFFFFFFFFFFFFFFFFFFFFFFFFFFFFFFFFFFFFFFF AND PUSH20 0xFFFFFFFFFFFFFFFFFFFFFFFFFFFFFFFFFFFFFFFF AND DUP2 MSTORE PUSH1 0x20 ADD SWAP1 DUP2 MSTORE PUSH1 0x20 ADD PUSH1 0x0 KECCAK256 PUSH1 0x0 DUP4 DUP2 MSTORE PUSH1 0x20 ADD SWAP1 DUP2 MSTORE PUSH1 0x20 ADD PUSH1 0x0 KECCAK256 PUSH1 0x2 ADD DUP2 SWAP1 SSTORE POP DUP3 PUSH1 0x2 PUSH1 0x0 DUP9 PUSH20 0xFFFFFFFFFFFFFFFFFFFFFFFFFFFFFFFFFFFFFFFF AND PUSH20 0xFFFFFFFFFFFFFFFFFFFFFFFFFFFFFFFFFFFFFFFF AND DUP2 MSTORE PUSH1 0x20 ADD SWAP1 DUP2 MSTORE PUSH1 0x20 ADD PUSH1 0x0 KECCAK256 PUSH1 0x0 DUP4 DUP2 MSTORE PUSH1 0x20 ADD SWAP1 DUP2 MSTORE PUSH1 0x20 ADD PUSH1 0x0 KECCAK256 PUSH1 0x3 ADD PUSH1 0x0 PUSH2 0x100 EXP DUP2 SLOAD DUP2 PUSH1 0xFF MUL NOT AND SWAP1 DUP4 PUSH1 0xFF AND MUL OR SWAP1 SSTORE POP DUP2 PUSH1 0x2 PUSH1 0x0 DUP9 PUSH20 0xFFFFFFFFFFFFFFFFFFFFFFFFFFFFFFFFFFFFFFFF AND PUSH20 0xFFFFFFFFFFFFFFFFFFFFFFFFFFFFFFFFFFFFFFFF AND DUP2 MSTORE PUSH1 0x20 ADD SWAP1 DUP2 MSTORE PUSH1 0x20 ADD PUSH1 0x0 KECCAK256 PUSH1 0x0 DUP4 DUP2 MSTORE PUSH1 0x20 ADD SWAP1 DUP2 MSTORE PUSH1 0x20 ADD PUSH1 0x0 KECCAK256 PUSH1 0x4 ADD SWAP1 DUP1 MLOAD SWAP1 PUSH1 0x20 ADD SWAP1 PUSH2 0x19EC SWAP3 SWAP2 SWAP1 PUSH2 0x228F JUMP JUMPDEST POP PUSH1 0x0 PUSH1 0x2 PUSH1 0x0 DUP9 PUSH20 0xFFFFFFFFFFFFFFFFFFFFFFFFFFFFFFFFFFFFFFFF AND PUSH20 0xFFFFFFFFFFFFFFFFFFFFFFFFFFFFFFFFFFFFFFFF AND DUP2 MSTORE PUSH1 0x20 ADD SWAP1 DUP2 MSTORE PUSH1 0x20 ADD PUSH1 0x0 KECCAK256 PUSH1 0x0 DUP4 DUP2 MSTORE PUSH1 0x20 ADD SWAP1 DUP2 MSTORE PUSH1 0x20 ADD PUSH1 0x0 KECCAK256 PUSH1 0x5 ADD PUSH1 0x1 ADD PUSH1 0x14 PUSH2 0x100 EXP DUP2 SLOAD DUP2 PUSH1 0xFF MUL NOT AND SWAP1 DUP4 PUSH1 0x2 DUP2 GT ISZERO PUSH2 0x1A67 JUMPI PUSH2 0x1A66 PUSH2 0x30D8 JUMP JUMPDEST JUMPDEST MUL OR SWAP1 SSTORE POP PUSH1 0x3 DUP7 SWAP1 DUP1 PUSH1 0x1 DUP2 SLOAD ADD DUP1 DUP3 SSTORE DUP1 SWAP2 POP POP PUSH1 0x1 SWAP1 SUB SWAP1 PUSH1 0x0 MSTORE PUSH1 0x20 PUSH1 0x0 KECCAK256 ADD PUSH1 0x0 SWAP1 SWAP2 SWAP1 SWAP2 SWAP1 SWAP2 PUSH2 0x100 EXP DUP2 SLOAD DUP2 PUSH20 0xFFFFFFFFFFFFFFFFFFFFFFFFFFFFFFFFFFFFFFFF MUL NOT AND SWAP1 DUP4 PUSH20 0xFFFFFFFFFFFFFFFFFFFFFFFFFFFFFFFFFFFFFFFF AND MUL OR SWAP1 SSTORE POP PUSH1 0x4 PUSH1 0x0 DUP8 PUSH20 0xFFFFFFFFFFFFFFFFFFFFFFFFFFFFFFFFFFFFFFFF AND PUSH20 0xFFFFFFFFFFFFFFFFFFFFFFFFFFFFFFFFFFFFFFFF AND DUP2 MSTORE PUSH1 0x20 ADD SWAP1 DUP2 MSTORE PUSH1 0x20 ADD PUSH1 0x0 KECCAK256 DUP2 SWAP1 DUP1 PUSH1 0x1 DUP2 SLOAD ADD DUP1 DUP3 SSTORE DUP1 SWAP2 POP POP PUSH1 0x1 SWAP1 SUB SWAP1 PUSH1 0x0 MSTORE PUSH1 0x20 PUSH1 0x0 KECCAK256 ADD PUSH1 0x0 SWAP1 SWAP2 SWAP1 SWAP2 SWAP1 SWAP2 POP SSTORE PUSH32 0xDAF544D55F2B0D82BD37254F81A5F6F0D8709DBDF56A68C8566D3E1FCB159FB7 DUP2 DUP6 DUP6 PUSH1 0x40 MLOAD PUSH2 0x1B68 SWAP4 SWAP3 SWAP2 SWAP1 PUSH2 0x2D79 JUMP JUMPDEST PUSH1 0x40 MLOAD DUP1 SWAP2 SUB SWAP1 LOG1 POP POP POP POP POP POP JUMP JUMPDEST PUSH1 0x60 PUSH1 0x4 PUSH1 0x0 DUP4 PUSH20 0xFFFFFFFFFFFFFFFFFFFFFFFFFFFFFFFFFFFFFFFF AND PUSH20 0xFFFFFFFFFFFFFFFFFFFFFFFFFFFFFFFFFFFFFFFF AND DUP2 MSTORE PUSH1 0x20 ADD SWAP1 DUP2 MSTORE PUSH1 0x20 ADD PUSH1 0x0 KECCAK256 DUP1 SLOAD DUP1 PUSH1 0x20 MUL PUSH1 0x20 ADD PUSH1 0x40 MLOAD SWAP1 DUP2 ADD PUSH1 0x40 MSTORE DUP1 SWAP3 SWAP2 SWAP1 DUP2 DUP2 MSTORE PUSH1 0x20 ADD DUP3 DUP1 SLOAD DUP1 ISZERO PUSH2 0x1C03 JUMPI PUSH1 0x20 MUL DUP3 ADD SWAP2 SWAP1 PUSH1 0x0 MSTORE PUSH1 0x20 PUSH1 0x0 KECCAK256 SWAP1 JUMPDEST DUP2 SLOAD DUP2 MSTORE PUSH1 0x20 ADD SWAP1 PUSH1 0x1 ADD SWAP1 DUP1 DUP4 GT PUSH2 0x1BEF JUMPI JUMPDEST POP POP POP POP POP SWAP1 POP SWAP2 SWAP1 POP JUMP JUMPDEST PUSH1 0x0 DUP1 PUSH1 0x0 SWAP1 POP JUMPDEST PUSH1 0x3 DUP1 SLOAD SWAP1 POP DUP2 LT ISZERO PUSH2 0x1DA5 JUMPI DUP4 PUSH20 0xFFFFFFFFFFFFFFFFFFFFFFFFFFFFFFFFFFFFFFFF AND PUSH1 0x3 DUP3 DUP2 SLOAD DUP2 LT PUSH2 0x1C4F JUMPI PUSH2 0x1C4E PUSH2 0x3165 JUMP JUMPDEST JUMPDEST SWAP1 PUSH1 0x0 MSTORE PUSH1 0x20 PUSH1 0x0 KECCAK256 ADD PUSH1 0x0 SWAP1 SLOAD SWAP1 PUSH2 0x100 EXP SWAP1 DIV PUSH20 0xFFFFFFFFFFFFFFFFFFFFFFFFFFFFFFFFFFFFFFFF AND PUSH20 0xFFFFFFFFFFFFFFFFFFFFFFFFFFFFFFFFFFFFFFFF AND EQ DUP1 ISZERO PUSH2 0x1CF0 JUMPI POP PUSH1 0x0 PUSH1 0x2 PUSH1 0x0 DUP7 PUSH20 0xFFFFFFFFFFFFFFFFFFFFFFFFFFFFFFFFFFFFFFFF AND PUSH20 0xFFFFFFFFFFFFFFFFFFFFFFFFFFFFFFFFFFFFFFFF AND DUP2 MSTORE PUSH1 0x20 ADD SWAP1 DUP2 MSTORE PUSH1 0x20 ADD PUSH1 0x0 KECCAK256 PUSH1 0x0 DUP6 DUP2 MSTORE PUSH1 0x20 ADD SWAP1 DUP2 MSTORE PUSH1 0x20 ADD PUSH1 0x0 KECCAK256 PUSH1 0x0 ADD SLOAD GT JUMPDEST DUP1 ISZERO PUSH2 0x1D83 JUMPI POP PUSH1 0x0 PUSH1 0x2 DUP2 GT ISZERO PUSH2 0x1D0B JUMPI PUSH2 0x1D0A PUSH2 0x30D8 JUMP JUMPDEST JUMPDEST PUSH1 0x2 PUSH1 0x0 DUP7 PUSH20 0xFFFFFFFFFFFFFFFFFFFFFFFFFFFFFFFFFFFFFFFF AND PUSH20 0xFFFFFFFFFFFFFFFFFFFFFFFFFFFFFFFFFFFFFFFF AND DUP2 MSTORE PUSH1 0x20 ADD SWAP1 DUP2 MSTORE PUSH1 0x20 ADD PUSH1 0x0 KECCAK256 PUSH1 0x0 DUP6 DUP2 MSTORE PUSH1 0x20 ADD SWAP1 DUP2 MSTORE PUSH1 0x20 ADD PUSH1 0x0 KECCAK256 PUSH1 0x5 ADD PUSH1 0x1 ADD PUSH1 0x14 SWAP1 SLOAD SWAP1 PUSH2 0x100 EXP SWAP1 DIV PUSH1 0xFF AND PUSH1 0x2 DUP2 GT ISZERO PUSH2 0x1D81 JUMPI PUSH2 0x1D80 PUSH2 0x30D8 JUMP JUMPDEST JUMPDEST EQ JUMPDEST ISZERO PUSH2 0x1D92 JUMPI PUSH1 0x1 SWAP2 POP POP PUSH2 0x1DAB JUMP JUMPDEST DUP1 DUP1 PUSH2 0x1D9D SWAP1 PUSH2 0x3060 JUMP JUMPDEST SWAP2 POP POP PUSH2 0x1C17 JUMP JUMPDEST POP PUSH1 0x0 SWAP1 POP JUMPDEST SWAP3 SWAP2 POP POP JUMP JUMPDEST PUSH1 0x0 PUSH1 0x3 DUP1 SLOAD SWAP1 POP GT PUSH2 0x1DF9 JUMPI PUSH1 0x40 MLOAD PUSH32 0x8C379A000000000000000000000000000000000000000000000000000000000 DUP2 MSTORE PUSH1 0x4 ADD PUSH2 0x1DF0 SWAP1 PUSH2 0x2C13 JUMP JUMPDEST PUSH1 0x40 MLOAD DUP1 SWAP2 SUB SWAP1 REVERT JUMPDEST DUP1 PUSH20 0xFFFFFFFFFFFFFFFFFFFFFFFFFFFFFFFFFFFFFFFF AND PUSH1 0x3 PUSH1 0x1 PUSH1 0x3 DUP1 SLOAD SWAP1 POP PUSH2 0x1E24 SWAP2 SWAP1 PUSH2 0x2EFB JUMP JUMPDEST DUP2 SLOAD DUP2 LT PUSH2 0x1E35 JUMPI PUSH2 0x1E34 PUSH2 0x3165 JUMP JUMPDEST JUMPDEST SWAP1 PUSH1 0x0 MSTORE PUSH1 0x20 PUSH1 0x0 KECCAK256 ADD PUSH1 0x0 SWAP1 SLOAD SWAP1 PUSH2 0x100 EXP SWAP1 DIV PUSH20 0xFFFFFFFFFFFFFFFFFFFFFFFFFFFFFFFFFFFFFFFF AND PUSH20 0xFFFFFFFFFFFFFFFFFFFFFFFFFFFFFFFFFFFFFFFF AND EQ ISZERO PUSH2 0x1EC8 JUMPI PUSH1 0x3 DUP1 SLOAD DUP1 PUSH2 0x1E8E JUMPI PUSH2 0x1E8D PUSH2 0x3136 JUMP JUMPDEST JUMPDEST PUSH1 0x1 SWAP1 SUB DUP2 DUP2 SWAP1 PUSH1 0x0 MSTORE PUSH1 0x20 PUSH1 0x0 KECCAK256 ADD PUSH1 0x0 PUSH2 0x100 EXP DUP2 SLOAD SWAP1 PUSH20 0xFFFFFFFFFFFFFFFFFFFFFFFFFFFFFFFFFFFFFFFF MUL NOT AND SWAP1 SSTORE SWAP1 SSTORE PUSH2 0x21DD JUMP JUMPDEST PUSH1 0x0 DUP1 DUP1 PUSH1 0x0 SWAP1 POP JUMPDEST PUSH1 0x1 PUSH1 0x3 DUP1 SLOAD SWAP1 POP PUSH2 0x1EE3 SWAP2 SWAP1 PUSH2 0x2EFB JUMP JUMPDEST DUP2 LT ISZERO PUSH2 0x201E JUMPI DUP4 PUSH20 0xFFFFFFFFFFFFFFFFFFFFFFFFFFFFFFFFFFFFFFFF AND PUSH1 0x3 DUP3 DUP2 SLOAD DUP2 LT PUSH2 0x1F15 JUMPI PUSH2 0x1F14 PUSH2 0x3165 JUMP JUMPDEST JUMPDEST SWAP1 PUSH1 0x0 MSTORE PUSH1 0x20 PUSH1 0x0 KECCAK256 ADD PUSH1 0x0 SWAP1 SLOAD SWAP1 PUSH2 0x100 EXP SWAP1 DIV PUSH20 0xFFFFFFFFFFFFFFFFFFFFFFFFFFFFFFFFFFFFFFFF AND PUSH20 0xFFFFFFFFFFFFFFFFFFFFFFFFFFFFFFFFFFFFFFFF AND EQ ISZERO PUSH2 0x200B JUMPI PUSH1 0x3 PUSH1 0x1 DUP3 PUSH2 0x1F6B SWAP2 SWAP1 PUSH2 0x2EA5 JUMP JUMPDEST DUP2 SLOAD DUP2 LT PUSH2 0x1F7C JUMPI PUSH2 0x1F7B PUSH2 0x3165 JUMP JUMPDEST JUMPDEST SWAP1 PUSH1 0x0 MSTORE PUSH1 0x20 PUSH1 0x0 KECCAK256 ADD PUSH1 0x0 SWAP1 SLOAD SWAP1 PUSH2 0x100 EXP SWAP1 DIV PUSH20 0xFFFFFFFFFFFFFFFFFFFFFFFFFFFFFFFFFFFFFFFF AND PUSH1 0x3 DUP3 DUP2 SLOAD DUP2 LT PUSH2 0x1FBB JUMPI PUSH2 0x1FBA PUSH2 0x3165 JUMP JUMPDEST JUMPDEST SWAP1 PUSH1 0x0 MSTORE PUSH1 0x20 PUSH1 0x0 KECCAK256 ADD PUSH1 0x0 PUSH2 0x100 EXP DUP2 SLOAD DUP2 PUSH20 0xFFFFFFFFFFFFFFFFFFFFFFFFFFFFFFFFFFFFFFFF MUL NOT AND SWAP1 DUP4 PUSH20 0xFFFFFFFFFFFFFFFFFFFFFFFFFFFFFFFFFFFFFFFF AND MUL OR SWAP1 SSTORE POP PUSH1 0x1 SWAP3 POP DUP1 SWAP2 POP JUMPDEST DUP1 DUP1 PUSH2 0x2016 SWAP1 PUSH2 0x3060 JUMP JUMPDEST SWAP2 POP POP PUSH2 0x1ED1 JUMP JUMPDEST POP PUSH1 0x0 ISZERO ISZERO DUP3 ISZERO ISZERO EQ ISZERO PUSH2 0x2067 JUMPI PUSH1 0x40 MLOAD PUSH32 0x8C379A000000000000000000000000000000000000000000000000000000000 DUP2 MSTORE PUSH1 0x4 ADD PUSH2 0x205E SWAP1 PUSH2 0x2C93 JUMP JUMPDEST PUSH1 0x40 MLOAD DUP1 SWAP2 SUB SWAP1 REVERT JUMPDEST PUSH1 0x0 DUP2 SWAP1 POP JUMPDEST PUSH1 0x1 PUSH1 0x3 DUP1 SLOAD SWAP1 POP PUSH2 0x207F SWAP2 SWAP1 PUSH2 0x2EFB JUMP JUMPDEST DUP2 LT ISZERO PUSH2 0x2140 JUMPI PUSH1 0x3 PUSH1 0x1 DUP3 PUSH2 0x2095 SWAP2 SWAP1 PUSH2 0x2EA5 JUMP JUMPDEST DUP2 SLOAD DUP2 LT PUSH2 0x20A6 JUMPI PUSH2 0x20A5 PUSH2 0x3165 JUMP JUMPDEST JUMPDEST SWAP1 PUSH1 0x0 MSTORE PUSH1 0x20 PUSH1 0x0 KECCAK256 ADD PUSH1 0x0 SWAP1 SLOAD SWAP1 PUSH2 0x100 EXP SWAP1 DIV PUSH20 0xFFFFFFFFFFFFFFFFFFFFFFFFFFFFFFFFFFFFFFFF AND PUSH1 0x3 DUP3 DUP2 SLOAD DUP2 LT PUSH2 0x20E5 JUMPI PUSH2 0x20E4 PUSH2 0x3165 JUMP JUMPDEST JUMPDEST SWAP1 PUSH1 0x0 MSTORE PUSH1 0x20 PUSH1 0x0 KECCAK256 ADD PUSH1 0x0 PUSH2 0x100 EXP DUP2 SLOAD DUP2 PUSH20 0xFFFFFFFFFFFFFFFFFFFFFFFFFFFFFFFFFFFFFFFF MUL NOT AND SWAP1 DUP4 PUSH20 0xFFFFFFFFFFFFFFFFFFFFFFFFFFFFFFFFFFFFFFFF AND MUL OR SWAP1 SSTORE POP DUP1 DUP1 PUSH2 0x2138 SWAP1 PUSH2 0x3060 JUMP JUMPDEST SWAP2 POP POP PUSH2 0x206D JUMP JUMPDEST POP PUSH1 0x3 PUSH1 0x1 PUSH1 0x3 DUP1 SLOAD SWAP1 POP PUSH2 0x2155 SWAP2 SWAP1 PUSH2 0x2EFB JUMP JUMPDEST DUP2 SLOAD DUP2 LT PUSH2 0x2166 JUMPI PUSH2 0x2165 PUSH2 0x3165 JUMP JUMPDEST JUMPDEST SWAP1 PUSH1 0x0 MSTORE PUSH1 0x20 PUSH1 0x0 KECCAK256 ADD PUSH1 0x0 PUSH2 0x100 EXP DUP2 SLOAD SWAP1 PUSH20 0xFFFFFFFFFFFFFFFFFFFFFFFFFFFFFFFFFFFFFFFF MUL NOT AND SWAP1 SSTORE PUSH1 0x3 DUP1 SLOAD DUP1 PUSH2 0x21A5 JUMPI PUSH2 0x21A4 PUSH2 0x3136 JUMP JUMPDEST JUMPDEST PUSH1 0x1 SWAP1 SUB DUP2 DUP2 SWAP1 PUSH1 0x0 MSTORE PUSH1 0x20 PUSH1 0x0 KECCAK256 ADD PUSH1 0x0 PUSH2 0x100 EXP DUP2 SLOAD SWAP1 PUSH20 0xFFFFFFFFFFFFFFFFFFFFFFFFFFFFFFFFFFFFFFFF MUL NOT AND SWAP1 SSTORE SWAP1 SSTORE POP POP JUMPDEST POP JUMP JUMPDEST PUSH1 0x0 DUP1 PUSH1 0x0 SWAP1 POP JUMPDEST PUSH1 0x3 DUP1 SLOAD SWAP1 POP DUP2 LT ISZERO PUSH2 0x2284 JUMPI DUP3 PUSH20 0xFFFFFFFFFFFFFFFFFFFFFFFFFFFFFFFFFFFFFFFF AND PUSH1 0x3 DUP3 DUP2 SLOAD DUP2 LT PUSH2 0x2220 JUMPI PUSH2 0x221F PUSH2 0x3165 JUMP JUMPDEST JUMPDEST SWAP1 PUSH1 0x0 MSTORE PUSH1 0x20 PUSH1 0x0 KECCAK256 ADD PUSH1 0x0 SWAP1 SLOAD SWAP1 PUSH2 0x100 EXP SWAP1 DIV PUSH20 0xFFFFFFFFFFFFFFFFFFFFFFFFFFFFFFFFFFFFFFFF AND PUSH20 0xFFFFFFFFFFFFFFFFFFFFFFFFFFFFFFFFFFFFFFFF AND EQ ISZERO PUSH2 0x2271 JUMPI PUSH1 0x1 SWAP2 POP POP PUSH2 0x228A JUMP JUMPDEST DUP1 DUP1 PUSH2 0x227C SWAP1 PUSH2 0x3060 JUMP JUMPDEST SWAP2 POP POP PUSH2 0x21E8 JUMP JUMPDEST POP PUSH1 0x0 SWAP1 POP JUMPDEST SWAP2 SWAP1 POP JUMP JUMPDEST DUP3 DUP1 SLOAD PUSH2 0x229B SWAP1 PUSH2 0x2FFD JUMP JUMPDEST SWAP1 PUSH1 0x0 MSTORE PUSH1 0x20 PUSH1 0x0 KECCAK256 SWAP1 PUSH1 0x1F ADD PUSH1 0x20 SWAP1 DIV DUP2 ADD SWAP3 DUP3 PUSH2 0x22BD JUMPI PUSH1 0x0 DUP6 SSTORE PUSH2 0x2304 JUMP JUMPDEST DUP3 PUSH1 0x1F LT PUSH2 0x22D6 JUMPI DUP1 MLOAD PUSH1 0xFF NOT AND DUP4 DUP1 ADD OR DUP6 SSTORE PUSH2 0x2304 JUMP JUMPDEST DUP3 DUP1 ADD PUSH1 0x1 ADD DUP6 SSTORE DUP3 ISZERO PUSH2 0x2304 JUMPI SWAP2 DUP3 ADD JUMPDEST DUP3 DUP2 GT ISZERO PUSH2 0x2303 JUMPI DUP3 MLOAD DUP3 SSTORE SWAP2 PUSH1 0x20 ADD SWAP2 SWAP1 PUSH1 0x1 ADD SWAP1 PUSH2 0x22E8 JUMP JUMPDEST JUMPDEST POP SWAP1 POP PUSH2 0x2311 SWAP2 SWAP1 PUSH2 0x236A JUMP JUMPDEST POP SWAP1 JUMP JUMPDEST PUSH1 0x40 MLOAD DUP1 PUSH1 0xC0 ADD PUSH1 0x40 MSTORE DUP1 PUSH1 0x0 DUP2 MSTORE PUSH1 0x20 ADD PUSH1 0x0 PUSH20 0xFFFFFFFFFFFFFFFFFFFFFFFFFFFFFFFFFFFFFFFF AND DUP2 MSTORE PUSH1 0x20 ADD PUSH1 0x0 DUP2 MSTORE PUSH1 0x20 ADD PUSH1 0x0 PUSH1 0xFF AND DUP2 MSTORE PUSH1 0x20 ADD PUSH1 0x60 DUP2 MSTORE PUSH1 0x20 ADD PUSH2 0x2364 PUSH2 0x2387 JUMP JUMPDEST DUP2 MSTORE POP SWAP1 JUMP JUMPDEST JUMPDEST DUP1 DUP3 GT ISZERO PUSH2 0x2383 JUMPI PUSH1 0x0 DUP2 PUSH1 0x0 SWAP1 SSTORE POP PUSH1 0x1 ADD PUSH2 0x236B JUMP JUMPDEST POP SWAP1 JUMP JUMPDEST PUSH1 0x40 MLOAD DUP1 PUSH1 0x60 ADD PUSH1 0x40 MSTORE DUP1 PUSH1 0x0 DUP2 MSTORE PUSH1 0x20 ADD PUSH1 0x0 PUSH20 0xFFFFFFFFFFFFFFFFFFFFFFFFFFFFFFFFFFFFFFFF AND DUP2 MSTORE PUSH1 0x20 ADD PUSH1 0x0 PUSH1 0x2 DUP2 GT ISZERO PUSH2 0x23CA JUMPI PUSH2 0x23C9 PUSH2 0x30D8 JUMP JUMPDEST JUMPDEST DUP2 MSTORE POP SWAP1 JUMP JUMPDEST PUSH1 0x0 PUSH2 0x23E3 PUSH2 0x23DE DUP5 PUSH2 0x2DD5 JUMP JUMPDEST PUSH2 0x2DB0 JUMP JUMPDEST SWAP1 POP DUP3 DUP2 MSTORE PUSH1 0x20 DUP2 ADD DUP5 DUP5 DUP5 ADD GT ISZERO PUSH2 0x23FF JUMPI PUSH2 0x23FE PUSH2 0x31C8 JUMP JUMPDEST JUMPDEST PUSH2 0x240A DUP5 DUP3 DUP6 PUSH2 0x2FBB JUMP JUMPDEST POP SWAP4 SWAP3 POP POP POP JUMP JUMPDEST PUSH1 0x0 DUP2 CALLDATALOAD SWAP1 POP PUSH2 0x2421 DUP2 PUSH2 0x3451 JUMP JUMPDEST SWAP3 SWAP2 POP POP JUMP JUMPDEST PUSH1 0x0 DUP2 MLOAD SWAP1 POP PUSH2 0x2436 DUP2 PUSH2 0x3468 JUMP JUMPDEST SWAP3 SWAP2 POP POP JUMP JUMPDEST PUSH1 0x0 DUP3 PUSH1 0x1F DUP4 ADD SLT PUSH2 0x2451 JUMPI PUSH2 0x2450 PUSH2 0x31C3 JUMP JUMPDEST JUMPDEST DUP2 CALLDATALOAD PUSH2 0x2461 DUP5 DUP3 PUSH1 0x20 DUP7 ADD PUSH2 0x23D0 JUMP JUMPDEST SWAP2 POP POP SWAP3 SWAP2 POP POP JUMP JUMPDEST PUSH1 0x0 DUP2 CALLDATALOAD SWAP1 POP PUSH2 0x2479 DUP2 PUSH2 0x347F JUMP JUMPDEST SWAP3 SWAP2 POP POP JUMP JUMPDEST PUSH1 0x0 DUP2 CALLDATALOAD SWAP1 POP PUSH2 0x248E DUP2 PUSH2 0x3496 JUMP JUMPDEST SWAP3 SWAP2 POP POP JUMP JUMPDEST PUSH1 0x0 PUSH1 0x20 DUP3 DUP5 SUB SLT ISZERO PUSH2 0x24AA JUMPI PUSH2 0x24A9 PUSH2 0x31D2 JUMP JUMPDEST JUMPDEST PUSH1 0x0 PUSH2 0x24B8 DUP5 DUP3 DUP6 ADD PUSH2 0x2412 JUMP JUMPDEST SWAP2 POP POP SWAP3 SWAP2 POP POP JUMP JUMPDEST PUSH1 0x0 DUP1 PUSH1 0x0 DUP1 PUSH1 0x0 PUSH1 0xA0 DUP7 DUP9 SUB SLT ISZERO PUSH2 0x24DD JUMPI PUSH2 0x24DC PUSH2 0x31D2 JUMP JUMPDEST JUMPDEST PUSH1 0x0 PUSH2 0x24EB DUP9 DUP3 DUP10 ADD PUSH2 0x2412 JUMP JUMPDEST SWAP6 POP POP PUSH1 0x20 PUSH2 0x24FC DUP9 DUP3 DUP10 ADD PUSH2 0x2412 JUMP JUMPDEST SWAP5 POP POP PUSH1 0x40 PUSH2 0x250D DUP9 DUP3 DUP10 ADD PUSH2 0x246A JUMP JUMPDEST SWAP4 POP POP PUSH1 0x60 PUSH2 0x251E DUP9 DUP3 DUP10 ADD PUSH2 0x247F JUMP JUMPDEST SWAP3 POP POP PUSH1 0x80 DUP7 ADD CALLDATALOAD PUSH8 0xFFFFFFFFFFFFFFFF DUP2 GT ISZERO PUSH2 0x253F JUMPI PUSH2 0x253E PUSH2 0x31CD JUMP JUMPDEST JUMPDEST PUSH2 0x254B DUP9 DUP3 DUP10 ADD PUSH2 0x243C JUMP JUMPDEST SWAP2 POP POP SWAP3 SWAP6 POP SWAP3 SWAP6 SWAP1 SWAP4 POP JUMP JUMPDEST PUSH1 0x0 DUP1 PUSH1 0x40 DUP4 DUP6 SUB SLT ISZERO PUSH2 0x256F JUMPI PUSH2 0x256E PUSH2 0x31D2 JUMP JUMPDEST JUMPDEST PUSH1 0x0 PUSH2 0x257D DUP6 DUP3 DUP7 ADD PUSH2 0x2412 JUMP JUMPDEST SWAP3 POP POP PUSH1 0x20 PUSH2 0x258E DUP6 DUP3 DUP7 ADD PUSH2 0x246A JUMP JUMPDEST SWAP2 POP POP SWAP3 POP SWAP3 SWAP1 POP JUMP JUMPDEST PUSH1 0x0 DUP1 PUSH1 0x0 DUP1 PUSH1 0x0 PUSH1 0xA0 DUP7 DUP9 SUB SLT ISZERO PUSH2 0x25B4 JUMPI PUSH2 0x25B3 PUSH2 0x31D2 JUMP JUMPDEST JUMPDEST PUSH1 0x0 PUSH2 0x25C2 DUP9 DUP3 DUP10 ADD PUSH2 0x2412 JUMP JUMPDEST SWAP6 POP POP PUSH1 0x20 PUSH2 0x25D3 DUP9 DUP3 DUP10 ADD PUSH2 0x246A JUMP JUMPDEST SWAP5 POP POP PUSH1 0x40 PUSH2 0x25E4 DUP9 DUP3 DUP10 ADD PUSH2 0x246A JUMP JUMPDEST SWAP4 POP POP PUSH1 0x60 PUSH2 0x25F5 DUP9 DUP3 DUP10 ADD PUSH2 0x247F JUMP JUMPDEST SWAP3 POP POP PUSH1 0x80 DUP7 ADD CALLDATALOAD PUSH8 0xFFFFFFFFFFFFFFFF DUP2 GT ISZERO PUSH2 0x2616 JUMPI PUSH2 0x2615 PUSH2 0x31CD JUMP JUMPDEST JUMPDEST PUSH2 0x2622 DUP9 DUP3 DUP10 ADD PUSH2 0x243C JUMP JUMPDEST SWAP2 POP POP SWAP3 SWAP6 POP SWAP3 SWAP6 SWAP1 SWAP4 POP JUMP JUMPDEST PUSH1 0x0 DUP1 PUSH1 0x0 DUP1 PUSH1 0x80 DUP6 DUP8 SUB SLT ISZERO PUSH2 0x2649 JUMPI PUSH2 0x2648 PUSH2 0x31D2 JUMP JUMPDEST JUMPDEST PUSH1 0x0 PUSH2 0x2657 DUP8 DUP3 DUP9 ADD PUSH2 0x2412 JUMP JUMPDEST SWAP5 POP POP PUSH1 0x20 PUSH2 0x2668 DUP8 DUP3 DUP9 ADD PUSH2 0x246A JUMP JUMPDEST SWAP4 POP POP PUSH1 0x40 PUSH2 0x2679 DUP8 DUP3 DUP9 ADD PUSH2 0x247F JUMP JUMPDEST SWAP3 POP POP PUSH1 0x60 DUP6 ADD CALLDATALOAD PUSH8 0xFFFFFFFFFFFFFFFF DUP2 GT ISZERO PUSH2 0x269A JUMPI PUSH2 0x2699 PUSH2 0x31CD JUMP JUMPDEST JUMPDEST PUSH2 0x26A6 DUP8 DUP3 DUP9 ADD PUSH2 0x243C JUMP JUMPDEST SWAP2 POP POP SWAP3 SWAP6 SWAP2 SWAP5 POP SWAP3 POP JUMP JUMPDEST PUSH1 0x0 PUSH1 0x20 DUP3 DUP5 SUB SLT ISZERO PUSH2 0x26C8 JUMPI PUSH2 0x26C7 PUSH2 0x31D2 JUMP JUMPDEST JUMPDEST PUSH1 0x0 PUSH2 0x26D6 DUP5 DUP3 DUP6 ADD PUSH2 0x2427 JUMP JUMPDEST SWAP2 POP POP SWAP3 SWAP2 POP POP JUMP JUMPDEST PUSH1 0x0 PUSH1 0x20 DUP3 DUP5 SUB SLT ISZERO PUSH2 0x26F5 JUMPI PUSH2 0x26F4 PUSH2 0x31D2 JUMP JUMPDEST JUMPDEST PUSH1 0x0 PUSH2 0x2703 DUP5 DUP3 DUP6 ADD PUSH2 0x246A JUMP JUMPDEST SWAP2 POP POP SWAP3 SWAP2 POP POP JUMP JUMPDEST PUSH1 0x0 PUSH2 0x2718 DUP4 DUP4 PUSH2 0x273C JUMP JUMPDEST PUSH1 0x20 DUP4 ADD SWAP1 POP SWAP3 SWAP2 POP POP JUMP JUMPDEST PUSH1 0x0 PUSH2 0x2730 DUP4 DUP4 PUSH2 0x2AE0 JUMP JUMPDEST PUSH1 0x20 DUP4 ADD SWAP1 POP SWAP3 SWAP2 POP POP JUMP JUMPDEST PUSH2 0x2745 DUP2 PUSH2 0x2F2F JUMP JUMPDEST DUP3 MSTORE POP POP JUMP JUMPDEST PUSH2 0x2754 DUP2 PUSH2 0x2F2F JUMP JUMPDEST DUP3 MSTORE POP POP JUMP JUMPDEST PUSH1 0x0 PUSH2 0x2765 DUP3 PUSH2 0x2E26 JUMP JUMPDEST PUSH2 0x276F DUP2 DUP6 PUSH2 0x2E61 JUMP JUMPDEST SWAP4 POP PUSH2 0x277A DUP4 PUSH2 0x2E06 JUMP JUMPDEST DUP1 PUSH1 0x0 JUMPDEST DUP4 DUP2 LT ISZERO PUSH2 0x27AB JUMPI DUP2 MLOAD PUSH2 0x2792 DUP9 DUP3 PUSH2 0x270C JUMP JUMPDEST SWAP8 POP PUSH2 0x279D DUP4 PUSH2 0x2E47 JUMP JUMPDEST SWAP3 POP POP PUSH1 0x1 DUP2 ADD SWAP1 POP PUSH2 0x277E JUMP JUMPDEST POP DUP6 SWAP4 POP POP POP POP SWAP3 SWAP2 POP POP JUMP JUMPDEST PUSH1 0x0 PUSH2 0x27C3 DUP3 PUSH2 0x2E31 JUMP JUMPDEST PUSH2 0x27CD DUP2 DUP6 PUSH2 0x2E72 JUMP JUMPDEST SWAP4 POP PUSH2 0x27D8 DUP4 PUSH2 0x2E16 JUMP JUMPDEST DUP1 PUSH1 0x0 JUMPDEST DUP4 DUP2 LT ISZERO PUSH2 0x2809 JUMPI DUP2 MLOAD PUSH2 0x27F0 DUP9 DUP3 PUSH2 0x2724 JUMP JUMPDEST SWAP8 POP PUSH2 0x27FB DUP4 PUSH2 0x2E54 JUMP JUMPDEST SWAP3 POP POP PUSH1 0x1 DUP2 ADD SWAP1 POP PUSH2 0x27DC JUMP JUMPDEST POP DUP6 SWAP4 POP POP POP POP SWAP3 SWAP2 POP POP JUMP JUMPDEST PUSH2 0x281F DUP2 PUSH2 0x2F97 JUMP JUMPDEST DUP3 MSTORE POP POP JUMP JUMPDEST PUSH1 0x0 PUSH2 0x2830 DUP3 PUSH2 0x2E3C JUMP JUMPDEST PUSH2 0x283A DUP2 DUP6 PUSH2 0x2E83 JUMP JUMPDEST SWAP4 POP PUSH2 0x284A DUP2 DUP6 PUSH1 0x20 DUP7 ADD PUSH2 0x2FCA JUMP JUMPDEST PUSH2 0x2853 DUP2 PUSH2 0x31D7 JUMP JUMPDEST DUP5 ADD SWAP2 POP POP SWAP3 SWAP2 POP POP JUMP JUMPDEST PUSH1 0x0 PUSH2 0x2869 DUP3 PUSH2 0x2E3C JUMP JUMPDEST PUSH2 0x2873 DUP2 DUP6 PUSH2 0x2E94 JUMP JUMPDEST SWAP4 POP PUSH2 0x2883 DUP2 DUP6 PUSH1 0x20 DUP7 ADD PUSH2 0x2FCA JUMP JUMPDEST PUSH2 0x288C DUP2 PUSH2 0x31D7 JUMP JUMPDEST DUP5 ADD SWAP2 POP POP SWAP3 SWAP2 POP POP JUMP JUMPDEST PUSH1 0x0 PUSH2 0x28A4 PUSH1 0x39 DUP4 PUSH2 0x2E94 JUMP JUMPDEST SWAP2 POP PUSH2 0x28AF DUP3 PUSH2 0x31E8 JUMP JUMPDEST PUSH1 0x40 DUP3 ADD SWAP1 POP SWAP2 SWAP1 POP JUMP JUMPDEST PUSH1 0x0 PUSH2 0x28C7 PUSH1 0x11 DUP4 PUSH2 0x2E94 JUMP JUMPDEST SWAP2 POP PUSH2 0x28D2 DUP3 PUSH2 0x3237 JUMP JUMPDEST PUSH1 0x20 DUP3 ADD SWAP1 POP SWAP2 SWAP1 POP JUMP JUMPDEST PUSH1 0x0 PUSH2 0x28EA PUSH1 0x28 DUP4 PUSH2 0x2E94 JUMP JUMPDEST SWAP2 POP PUSH2 0x28F5 DUP3 PUSH2 0x3260 JUMP JUMPDEST PUSH1 0x40 DUP3 ADD SWAP1 POP SWAP2 SWAP1 POP JUMP JUMPDEST PUSH1 0x0 PUSH2 0x290D PUSH1 0x1C DUP4 PUSH2 0x2E94 JUMP JUMPDEST SWAP2 POP PUSH2 0x2918 DUP3 PUSH2 0x32AF JUMP JUMPDEST PUSH1 0x20 DUP3 ADD SWAP1 POP SWAP2 SWAP1 POP JUMP JUMPDEST PUSH1 0x0 PUSH2 0x2930 PUSH1 0x2A DUP4 PUSH2 0x2E94 JUMP JUMPDEST SWAP2 POP PUSH2 0x293B DUP3 PUSH2 0x32D8 JUMP JUMPDEST PUSH1 0x40 DUP3 ADD SWAP1 POP SWAP2 SWAP1 POP JUMP JUMPDEST PUSH1 0x0 PUSH2 0x2953 PUSH1 0x28 DUP4 PUSH2 0x2E94 JUMP JUMPDEST SWAP2 POP PUSH2 0x295E DUP3 PUSH2 0x3327 JUMP JUMPDEST PUSH1 0x40 DUP3 ADD SWAP1 POP SWAP2 SWAP1 POP JUMP JUMPDEST PUSH1 0x0 PUSH2 0x2976 PUSH1 0xF DUP4 PUSH2 0x2E94 JUMP JUMPDEST SWAP2 POP PUSH2 0x2981 DUP3 PUSH2 0x3376 JUMP JUMPDEST PUSH1 0x20 DUP3 ADD SWAP1 POP SWAP2 SWAP1 POP JUMP JUMPDEST PUSH1 0x0 PUSH2 0x2999 PUSH1 0x25 DUP4 PUSH2 0x2E94 JUMP JUMPDEST SWAP2 POP PUSH2 0x29A4 DUP3 PUSH2 0x339F JUMP JUMPDEST PUSH1 0x40 DUP3 ADD SWAP1 POP SWAP2 SWAP1 POP JUMP JUMPDEST PUSH1 0x0 PUSH2 0x29BC PUSH1 0x35 DUP4 PUSH2 0x2E94 JUMP JUMPDEST SWAP2 POP PUSH2 0x29C7 DUP3 PUSH2 0x33EE JUMP JUMPDEST PUSH1 0x40 DUP3 ADD SWAP1 POP SWAP2 SWAP1 POP JUMP JUMPDEST PUSH1 0x60 DUP3 ADD PUSH1 0x0 DUP3 ADD MLOAD PUSH2 0x29E8 PUSH1 0x0 DUP6 ADD DUP3 PUSH2 0x2AE0 JUMP JUMPDEST POP PUSH1 0x20 DUP3 ADD MLOAD PUSH2 0x29FB PUSH1 0x20 DUP6 ADD DUP3 PUSH2 0x273C JUMP JUMPDEST POP PUSH1 0x40 DUP3 ADD MLOAD PUSH2 0x2A0E PUSH1 0x40 DUP6 ADD DUP3 PUSH2 0x2816 JUMP JUMPDEST POP POP POP POP JUMP JUMPDEST PUSH1 0x60 DUP3 ADD PUSH1 0x0 DUP3 ADD MLOAD PUSH2 0x2A2A PUSH1 0x0 DUP6 ADD DUP3 PUSH2 0x2AE0 JUMP JUMPDEST POP PUSH1 0x20 DUP3 ADD MLOAD PUSH2 0x2A3D PUSH1 0x20 DUP6 ADD DUP3 PUSH2 0x273C JUMP JUMPDEST POP PUSH1 0x40 DUP3 ADD MLOAD PUSH2 0x2A50 PUSH1 0x40 DUP6 ADD DUP3 PUSH2 0x2816 JUMP JUMPDEST POP POP POP POP JUMP JUMPDEST PUSH1 0x0 PUSH2 0x100 DUP4 ADD PUSH1 0x0 DUP4 ADD MLOAD PUSH2 0x2A6F PUSH1 0x0 DUP7 ADD DUP3 PUSH2 0x2AE0 JUMP JUMPDEST POP PUSH1 0x20 DUP4 ADD MLOAD PUSH2 0x2A82 PUSH1 0x20 DUP7 ADD DUP3 PUSH2 0x273C JUMP JUMPDEST POP PUSH1 0x40 DUP4 ADD MLOAD PUSH2 0x2A95 PUSH1 0x40 DUP7 ADD DUP3 PUSH2 0x2AE0 JUMP JUMPDEST POP PUSH1 0x60 DUP4 ADD MLOAD PUSH2 0x2AA8 PUSH1 0x60 DUP7 ADD DUP3 PUSH2 0x2B0D JUMP JUMPDEST POP PUSH1 0x80 DUP4 ADD MLOAD DUP5 DUP3 SUB PUSH1 0x80 DUP7 ADD MSTORE PUSH2 0x2AC0 DUP3 DUP3 PUSH2 0x2825 JUMP JUMPDEST SWAP2 POP POP PUSH1 0xA0 DUP4 ADD MLOAD PUSH2 0x2AD5 PUSH1 0xA0 DUP7 ADD DUP3 PUSH2 0x29D2 JUMP JUMPDEST POP DUP1 SWAP2 POP POP SWAP3 SWAP2 POP POP JUMP JUMPDEST PUSH2 0x2AE9 DUP2 PUSH2 0x2F80 JUMP JUMPDEST DUP3 MSTORE POP POP JUMP JUMPDEST PUSH2 0x2AF8 DUP2 PUSH2 0x2F80 JUMP JUMPDEST DUP3 MSTORE POP POP JUMP JUMPDEST PUSH2 0x2B07 DUP2 PUSH2 0x2FA9 JUMP JUMPDEST DUP3 MSTORE POP POP JUMP JUMPDEST PUSH2 0x2B16 DUP2 PUSH2 0x2F8A JUMP JUMPDEST DUP3 MSTORE POP POP JUMP JUMPDEST PUSH2 0x2B25 DUP2 PUSH2 0x2F8A JUMP JUMPDEST DUP3 MSTORE POP POP JUMP JUMPDEST PUSH1 0x0 PUSH1 0x20 DUP3 ADD SWAP1 POP PUSH2 0x2B40 PUSH1 0x0 DUP4 ADD DUP5 PUSH2 0x274B JUMP JUMPDEST SWAP3 SWAP2 POP POP JUMP JUMPDEST PUSH1 0x0 PUSH1 0x40 DUP3 ADD SWAP1 POP PUSH2 0x2B5B PUSH1 0x0 DUP4 ADD DUP6 PUSH2 0x274B JUMP JUMPDEST PUSH2 0x2B68 PUSH1 0x20 DUP4 ADD DUP5 PUSH2 0x2AEF JUMP JUMPDEST SWAP4 SWAP3 POP POP POP JUMP JUMPDEST PUSH1 0x0 PUSH1 0x20 DUP3 ADD SWAP1 POP DUP2 DUP2 SUB PUSH1 0x0 DUP4 ADD MSTORE PUSH2 0x2B89 DUP2 DUP5 PUSH2 0x275A JUMP JUMPDEST SWAP1 POP SWAP3 SWAP2 POP POP JUMP JUMPDEST PUSH1 0x0 PUSH1 0x20 DUP3 ADD SWAP1 POP DUP2 DUP2 SUB PUSH1 0x0 DUP4 ADD MSTORE PUSH2 0x2BAB DUP2 DUP5 PUSH2 0x27B8 JUMP JUMPDEST SWAP1 POP SWAP3 SWAP2 POP POP JUMP JUMPDEST PUSH1 0x0 PUSH1 0x20 DUP3 ADD SWAP1 POP DUP2 DUP2 SUB PUSH1 0x0 DUP4 ADD MSTORE PUSH2 0x2BCC DUP2 PUSH2 0x2897 JUMP JUMPDEST SWAP1 POP SWAP2 SWAP1 POP JUMP JUMPDEST PUSH1 0x0 PUSH1 0x20 DUP3 ADD SWAP1 POP DUP2 DUP2 SUB PUSH1 0x0 DUP4 ADD MSTORE PUSH2 0x2BEC DUP2 PUSH2 0x28BA JUMP JUMPDEST SWAP1 POP SWAP2 SWAP1 POP JUMP JUMPDEST PUSH1 0x0 PUSH1 0x20 DUP3 ADD SWAP1 POP DUP2 DUP2 SUB PUSH1 0x0 DUP4 ADD MSTORE PUSH2 0x2C0C DUP2 PUSH2 0x28DD JUMP JUMPDEST SWAP1 POP SWAP2 SWAP1 POP JUMP JUMPDEST PUSH1 0x0 PUSH1 0x20 DUP3 ADD SWAP1 POP DUP2 DUP2 SUB PUSH1 0x0 DUP4 ADD MSTORE PUSH2 0x2C2C DUP2 PUSH2 0x2900 JUMP JUMPDEST SWAP1 POP SWAP2 SWAP1 POP JUMP JUMPDEST PUSH1 0x0 PUSH1 0x20 DUP3 ADD SWAP1 POP DUP2 DUP2 SUB PUSH1 0x0 DUP4 ADD MSTORE PUSH2 0x2C4C DUP2 PUSH2 0x2923 JUMP JUMPDEST SWAP1 POP SWAP2 SWAP1 POP JUMP JUMPDEST PUSH1 0x0 PUSH1 0x20 DUP3 ADD SWAP1 POP DUP2 DUP2 SUB PUSH1 0x0 DUP4 ADD MSTORE PUSH2 0x2C6C DUP2 PUSH2 0x2946 JUMP JUMPDEST SWAP1 POP SWAP2 SWAP1 POP JUMP JUMPDEST PUSH1 0x0 PUSH1 0x20 DUP3 ADD SWAP1 POP DUP2 DUP2 SUB PUSH1 0x0 DUP4 ADD MSTORE PUSH2 0x2C8C DUP2 PUSH2 0x2969 JUMP JUMPDEST SWAP1 POP SWAP2 SWAP1 POP JUMP JUMPDEST PUSH1 0x0 PUSH1 0x20 DUP3 ADD SWAP1 POP DUP2 DUP2 SUB PUSH1 0x0 DUP4 ADD MSTORE PUSH2 0x2CAC DUP2 PUSH2 0x298C JUMP JUMPDEST SWAP1 POP SWAP2 SWAP1 POP JUMP JUMPDEST PUSH1 0x0 PUSH1 0x20 DUP3 ADD SWAP1 POP DUP2 DUP2 SUB PUSH1 0x0 DUP4 ADD MSTORE PUSH2 0x2CCC DUP2 PUSH2 0x29AF JUMP JUMPDEST SWAP1 POP SWAP2 SWAP1 POP JUMP JUMPDEST PUSH1 0x0 PUSH1 0x20 DUP3 ADD SWAP1 POP DUP2 DUP2 SUB PUSH1 0x0 DUP4 ADD MSTORE PUSH2 0x2CED DUP2 DUP5 PUSH2 0x2A56 JUMP JUMPDEST SWAP1 POP SWAP3 SWAP2 POP POP JUMP JUMPDEST PUSH1 0x0 PUSH1 0x20 DUP3 ADD SWAP1 POP PUSH2 0x2D0A PUSH1 0x0 DUP4 ADD DUP5 PUSH2 0x2AEF JUMP JUMPDEST SWAP3 SWAP2 POP POP JUMP JUMPDEST PUSH1 0x0 PUSH2 0x100 DUP3 ADD SWAP1 POP PUSH2 0x2D26 PUSH1 0x0 DUP4 ADD DUP10 PUSH2 0x2AEF JUMP JUMPDEST PUSH2 0x2D33 PUSH1 0x20 DUP4 ADD DUP9 PUSH2 0x274B JUMP JUMPDEST PUSH2 0x2D40 PUSH1 0x40 DUP4 ADD DUP8 PUSH2 0x2AEF JUMP JUMPDEST PUSH2 0x2D4D PUSH1 0x60 DUP4 ADD DUP7 PUSH2 0x2B1C JUMP JUMPDEST DUP2 DUP2 SUB PUSH1 0x80 DUP4 ADD MSTORE PUSH2 0x2D5F DUP2 DUP6 PUSH2 0x285E JUMP JUMPDEST SWAP1 POP PUSH2 0x2D6E PUSH1 0xA0 DUP4 ADD DUP5 PUSH2 0x2A14 JUMP JUMPDEST SWAP8 SWAP7 POP POP POP POP POP POP POP JUMP JUMPDEST PUSH1 0x0 PUSH1 0x60 DUP3 ADD SWAP1 POP PUSH2 0x2D8E PUSH1 0x0 DUP4 ADD DUP7 PUSH2 0x2AEF JUMP JUMPDEST PUSH2 0x2D9B PUSH1 0x20 DUP4 ADD DUP6 PUSH2 0x2AEF JUMP JUMPDEST PUSH2 0x2DA8 PUSH1 0x40 DUP4 ADD DUP5 PUSH2 0x2AFE JUMP JUMPDEST SWAP5 SWAP4 POP POP POP POP JUMP JUMPDEST PUSH1 0x0 PUSH2 0x2DBA PUSH2 0x2DCB JUMP JUMPDEST SWAP1 POP PUSH2 0x2DC6 DUP3 DUP3 PUSH2 0x302F JUMP JUMPDEST SWAP2 SWAP1 POP JUMP JUMPDEST PUSH1 0x0 PUSH1 0x40 MLOAD SWAP1 POP SWAP1 JUMP JUMPDEST PUSH1 0x0 PUSH8 0xFFFFFFFFFFFFFFFF DUP3 GT ISZERO PUSH2 0x2DF0 JUMPI PUSH2 0x2DEF PUSH2 0x3194 JUMP JUMPDEST JUMPDEST PUSH2 0x2DF9 DUP3 PUSH2 0x31D7 JUMP JUMPDEST SWAP1 POP PUSH1 0x20 DUP2 ADD SWAP1 POP SWAP2 SWAP1 POP JUMP JUMPDEST PUSH1 0x0 DUP2 SWAP1 POP PUSH1 0x20 DUP3 ADD SWAP1 POP SWAP2 SWAP1 POP JUMP JUMPDEST PUSH1 0x0 DUP2 SWAP1 POP PUSH1 0x20 DUP3 ADD SWAP1 POP SWAP2 SWAP1 POP JUMP JUMPDEST PUSH1 0x0 DUP2 MLOAD SWAP1 POP SWAP2 SWAP1 POP JUMP JUMPDEST PUSH1 0x0 DUP2 MLOAD SWAP1 POP SWAP2 SWAP1 POP JUMP JUMPDEST PUSH1 0x0 DUP2 MLOAD SWAP1 POP SWAP2 SWAP1 POP JUMP JUMPDEST PUSH1 0x0 PUSH1 0x20 DUP3 ADD SWAP1 POP SWAP2 SWAP1 POP JUMP JUMPDEST PUSH1 0x0 PUSH1 0x20 DUP3 ADD SWAP1 POP SWAP2 SWAP1 POP JUMP JUMPDEST PUSH1 0x0 DUP3 DUP3 MSTORE PUSH1 0x20 DUP3 ADD SWAP1 POP SWAP3 SWAP2 POP POP JUMP JUMPDEST PUSH1 0x0 DUP3 DUP3 MSTORE PUSH1 0x20 DUP3 ADD SWAP1 POP SWAP3 SWAP2 POP POP JUMP JUMPDEST PUSH1 0x0 DUP3 DUP3 MSTORE PUSH1 0x20 DUP3 ADD SWAP1 POP SWAP3 SWAP2 POP POP JUMP JUMPDEST PUSH1 0x0 DUP3 DUP3 MSTORE PUSH1 0x20 DUP3 ADD SWAP1 POP SWAP3 SWAP2 POP POP JUMP JUMPDEST PUSH1 0x0 PUSH2 0x2EB0 DUP3 PUSH2 0x2F80 JUMP JUMPDEST SWAP2 POP PUSH2 0x2EBB DUP4 PUSH2 0x2F80 JUMP JUMPDEST SWAP3 POP DUP3 PUSH32 0xFFFFFFFFFFFFFFFFFFFFFFFFFFFFFFFFFFFFFFFFFFFFFFFFFFFFFFFFFFFFFFFF SUB DUP3 GT ISZERO PUSH2 0x2EF0 JUMPI PUSH2 0x2EEF PUSH2 0x30A9 JUMP JUMPDEST JUMPDEST DUP3 DUP3 ADD SWAP1 POP SWAP3 SWAP2 POP POP JUMP JUMPDEST PUSH1 0x0 PUSH2 0x2F06 DUP3 PUSH2 0x2F80 JUMP JUMPDEST SWAP2 POP PUSH2 0x2F11 DUP4 PUSH2 0x2F80 JUMP JUMPDEST SWAP3 POP DUP3 DUP3 LT ISZERO PUSH2 0x2F24 JUMPI PUSH2 0x2F23 PUSH2 0x30A9 JUMP JUMPDEST JUMPDEST DUP3 DUP3 SUB SWAP1 POP SWAP3 SWAP2 POP POP JUMP JUMPDEST PUSH1 0x0 PUSH2 0x2F3A DUP3 PUSH2 0x2F60 JUMP JUMPDEST SWAP1 POP SWAP2 SWAP1 POP JUMP JUMPDEST PUSH1 0x0 DUP2 ISZERO ISZERO SWAP1 POP SWAP2 SWAP1 POP JUMP JUMPDEST PUSH1 0x0 DUP2 SWAP1 POP PUSH2 0x2F5B DUP3 PUSH2 0x343D JUMP JUMPDEST SWAP2 SWAP1 POP JUMP JUMPDEST PUSH1 0x0 PUSH20 0xFFFFFFFFFFFFFFFFFFFFFFFFFFFFFFFFFFFFFFFF DUP3 AND SWAP1 POP SWAP2 SWAP1 POP JUMP JUMPDEST PUSH1 0x0 DUP2 SWAP1 POP SWAP2 SWAP1 POP JUMP JUMPDEST PUSH1 0x0 PUSH1 0xFF DUP3 AND SWAP1 POP SWAP2 SWAP1 POP JUMP JUMPDEST PUSH1 0x0 PUSH2 0x2FA2 DUP3 PUSH2 0x2F4D JUMP JUMPDEST SWAP1 POP SWAP2 SWAP1 POP JUMP JUMPDEST PUSH1 0x0 PUSH2 0x2FB4 DUP3 PUSH2 0x2F8A JUMP JUMPDEST SWAP1 POP SWAP2 SWAP1 POP JUMP JUMPDEST DUP3 DUP2 DUP4 CALLDATACOPY PUSH1 0x0 DUP4 DUP4 ADD MSTORE POP POP POP JUMP JUMPDEST PUSH1 0x0 JUMPDEST DUP4 DUP2 LT ISZERO PUSH2 0x2FE8 JUMPI DUP1 DUP3 ADD MLOAD DUP2 DUP5 ADD MSTORE PUSH1 0x20 DUP2 ADD SWAP1 POP PUSH2 0x2FCD JUMP JUMPDEST DUP4 DUP2 GT ISZERO PUSH2 0x2FF7 JUMPI PUSH1 0x0 DUP5 DUP5 ADD MSTORE JUMPDEST POP POP POP POP JUMP JUMPDEST PUSH1 0x0 PUSH1 0x2 DUP3 DIV SWAP1 POP PUSH1 0x1 DUP3 AND DUP1 PUSH2 0x3015 JUMPI PUSH1 0x7F DUP3 AND SWAP2 POP JUMPDEST PUSH1 0x20 DUP3 LT DUP2 EQ ISZERO PUSH2 0x3029 JUMPI PUSH2 0x3028 PUSH2 0x3107 JUMP JUMPDEST JUMPDEST POP SWAP2 SWAP1 POP JUMP JUMPDEST PUSH2 0x3038 DUP3 PUSH2 0x31D7 JUMP JUMPDEST DUP2 ADD DUP2 DUP2 LT PUSH8 0xFFFFFFFFFFFFFFFF DUP3 GT OR ISZERO PUSH2 0x3057 JUMPI PUSH2 0x3056 PUSH2 0x3194 JUMP JUMPDEST JUMPDEST DUP1 PUSH1 0x40 MSTORE POP POP POP JUMP JUMPDEST PUSH1 0x0 PUSH2 0x306B DUP3 PUSH2 0x2F80 JUMP JUMPDEST SWAP2 POP PUSH32 0xFFFFFFFFFFFFFFFFFFFFFFFFFFFFFFFFFFFFFFFFFFFFFFFFFFFFFFFFFFFFFFFF DUP3 EQ ISZERO PUSH2 0x309E JUMPI PUSH2 0x309D PUSH2 0x30A9 JUMP JUMPDEST JUMPDEST PUSH1 0x1 DUP3 ADD SWAP1 POP SWAP2 SWAP1 POP JUMP JUMPDEST PUSH32 0x4E487B7100000000000000000000000000000000000000000000000000000000 PUSH1 0x0 MSTORE PUSH1 0x11 PUSH1 0x4 MSTORE PUSH1 0x24 PUSH1 0x0 REVERT JUMPDEST PUSH32 0x4E487B7100000000000000000000000000000000000000000000000000000000 PUSH1 0x0 MSTORE PUSH1 0x21 PUSH1 0x4 MSTORE PUSH1 0x24 PUSH1 0x0 REVERT JUMPDEST PUSH32 0x4E487B7100000000000000000000000000000000000000000000000000000000 PUSH1 0x0 MSTORE PUSH1 0x22 PUSH1 0x4 MSTORE PUSH1 0x24 PUSH1 0x0 REVERT JUMPDEST PUSH32 0x4E487B7100000000000000000000000000000000000000000000000000000000 PUSH1 0x0 MSTORE PUSH1 0x31 PUSH1 0x4 MSTORE PUSH1 0x24 PUSH1 0x0 REVERT JUMPDEST PUSH32 0x4E487B7100000000000000000000000000000000000000000000000000000000 PUSH1 0x0 MSTORE PUSH1 0x32 PUSH1 0x4 MSTORE PUSH1 0x24 PUSH1 0x0 REVERT JUMPDEST PUSH32 0x4E487B7100000000000000000000000000000000000000000000000000000000 PUSH1 0x0 MSTORE PUSH1 0x41 PUSH1 0x4 MSTORE PUSH1 0x24 PUSH1 0x0 REVERT JUMPDEST PUSH1 0x0 DUP1 REVERT JUMPDEST PUSH1 0x0 DUP1 REVERT JUMPDEST PUSH1 0x0 DUP1 REVERT JUMPDEST PUSH1 0x0 DUP1 REVERT JUMPDEST PUSH1 0x0 PUSH1 0x1F NOT PUSH1 0x1F DUP4 ADD AND SWAP1 POP SWAP2 SWAP1 POP JUMP JUMPDEST PUSH32 0x4B6973696E696E20627520616472657320766520736572746966696B61206964 PUSH1 0x0 DUP3 ADD MSTORE PUSH32 0x2064656765726920696C65206B6179646920796F6B7475722E00000000000000 PUSH1 0x20 DUP3 ADD MSTORE POP JUMP JUMPDEST PUSH32 0x4B697369206D657663757420646567696C000000000000000000000000000000 PUSH1 0x0 DUP3 ADD MSTORE POP JUMP JUMPDEST PUSH32 0x4B6973696E696E206F6E61792062656B6C6579656E206269722074616C656269 PUSH1 0x0 DUP3 ADD MSTORE PUSH32 0x20796F6B7475722E000000000000000000000000000000000000000000000000 PUSH1 0x20 DUP3 ADD MSTORE POP JUMP JUMPDEST PUSH32 0x4F6E61792042656B6C6579656E204C69737465736920426F7374757200000000 PUSH1 0x0 DUP3 ADD MSTORE POP JUMP JUMPDEST PUSH32 0x536164656365207965746B696C69207061796461732062752069736C656D6920 PUSH1 0x0 DUP3 ADD MSTORE PUSH32 0x7961706162696C69722E00000000000000000000000000000000000000000000 PUSH1 0x20 DUP3 ADD MSTORE POP JUMP JUMPDEST PUSH32 0x5361646563652054616C6570206564696C656E206B7572756D206F6E61796C61 PUSH1 0x0 DUP3 ADD MSTORE PUSH32 0x796162696C69722E000000000000000000000000000000000000000000000000 PUSH1 0x20 DUP3 ADD MSTORE POP JUMP JUMPDEST PUSH32 0x4B6973692062756C756E616D6164690000000000000000000000000000000000 PUSH1 0x0 DUP3 ADD MSTORE POP JUMP JUMPDEST PUSH32 0x4B697369204F6E61792042656B6C6579656E204C6973746573696E646520596F PUSH1 0x0 DUP3 ADD MSTORE PUSH32 0x6B7475722E000000000000000000000000000000000000000000000000000000 PUSH1 0x20 DUP3 ADD MSTORE POP JUMP JUMPDEST PUSH32 0x4B6973696E696E2064616861206F6E636564656E206F6E61792062656B6C6579 PUSH1 0x0 DUP3 ADD MSTORE PUSH32 0x656E206269722074616C656269207661726469722E0000000000000000000000 PUSH1 0x20 DUP3 ADD MSTORE POP JUMP JUMPDEST PUSH1 0x3 DUP2 LT PUSH2 0x344E JUMPI PUSH2 0x344D PUSH2 0x30D8 JUMP JUMPDEST JUMPDEST POP JUMP JUMPDEST PUSH2 0x345A DUP2 PUSH2 0x2F2F JUMP JUMPDEST DUP2 EQ PUSH2 0x3465 JUMPI PUSH1 0x0 DUP1 REVERT JUMPDEST POP JUMP JUMPDEST PUSH2 0x3471 DUP2 PUSH2 0x2F41 JUMP JUMPDEST DUP2 EQ PUSH2 0x347C JUMPI PUSH1 0x0 DUP1 REVERT JUMPDEST POP JUMP JUMPDEST PUSH2 0x3488 DUP2 PUSH2 0x2F80 JUMP JUMPDEST DUP2 EQ PUSH2 0x3493 JUMPI PUSH1 0x0 DUP1 REVERT JUMPDEST POP JUMP JUMPDEST PUSH2 0x349F DUP2 PUSH2 0x2F8A JUMP JUMPDEST DUP2 EQ PUSH2 0x34AA JUMPI PUSH1 0x0 DUP1 REVERT JUMPDEST POP JUMP INVALID LOG2 PUSH5 0x6970667358 0x22 SLT KECCAK256 0x29 0xB3 SWAP1 LOG2 PUSH31 0xF0CC89FB405E8B97CA0A6E27116FD5862D2B3AE1281B5DA90282A864736F6C PUSH4 0x43000807 STOP CALLER "
		},
		"gasEstimates": {
			"creation": {
				"codeDepositCost": "2707800",
				"executionCost": "infinite",
				"totalCost": "infinite"
			},
			"external": {
				"ekleSertifikaBilgi(address,uint256,uint8,string)": "infinite",
				"getirKisininSertifikaBilgisi(address,uint256)": "infinite",
				"getirKisininSertifikaIdListe(address)": "infinite",
				"getirOnayBekleyenListe()": "infinite",
				"guncelleSertifikaBilgi(address,uint256,uint256,uint8,string)": "infinite",
				"id()": "2495",
				"kisiSertifikaIdListesi(address,uint256)": "infinite",
				"onayBekleyenKisiler(uint256)": "4978",
				"sertifikaBilgiListesi(address,uint256)": "infinite",
				"talepEtSertifikaBilgi(address,address,uint256,uint8,string)": "infinite",
				"talepOnaylaSertifikaBilgi(address,uint256)": "infinite"
			},
			"internal": {
				"onayBekleyenKisiVeIdMevcutMu(address,uint256)": "infinite",
				"onayBekliyorMu(address)": "infinite",
				"silOnayBekleyenListe(address)": "infinite"
			}
		},
		"methodIdentifiers": {
			"ekleSertifikaBilgi(address,uint256,uint8,string)": "6f9bce31",
			"getirKisininSertifikaBilgisi(address,uint256)": "930fd616",
			"getirKisininSertifikaIdListe(address)": "d44ae3b1",
			"getirOnayBekleyenListe()": "4b31362b",
			"guncelleSertifikaBilgi(address,uint256,uint256,uint8,string)": "2281d48d",
			"id()": "af640d0f",
			"kisiSertifikaIdListesi(address,uint256)": "760050b0",
			"onayBekleyenKisiler(uint256)": "86f55628",
			"sertifikaBilgiListesi(address,uint256)": "13e5c393",
			"talepEtSertifikaBilgi(address,address,uint256,uint8,string)": "cca50940",
			"talepOnaylaSertifikaBilgi(address,uint256)": "126e67ba"
		}
	},
	"abi": [
		{
			"inputs": [
				{
					"internalType": "address",
					"name": "baseAddress",
					"type": "address"
				}
			],
			"stateMutability": "nonpayable",
			"type": "constructor"
		},
		{
			"anonymous": false,
			"inputs": [
				{
					"indexed": false,
					"internalType": "uint256",
					"name": "_id",
					"type": "uint256"
				},
				{
					"indexed": false,
					"internalType": "uint256",
					"name": "_alinanTarih",
					"type": "uint256"
				},
				{
					"indexed": false,
					"internalType": "uint256",
					"name": "_gecerlilikSuresi",
					"type": "uint256"
				}
			],
			"name": "SertifikaEklendiLog",
			"type": "event"
		},
		{
			"anonymous": false,
			"inputs": [
				{
					"indexed": false,
					"internalType": "uint256",
					"name": "_sertifikaBilgiId",
					"type": "uint256"
				},
				{
					"indexed": false,
					"internalType": "uint256",
					"name": "_alinanTarih",
					"type": "uint256"
				},
				{
					"indexed": false,
					"internalType": "uint256",
					"name": "_gecerlilikSuresi",
					"type": "uint256"
				}
			],
			"name": "SertifikaGuncellendiLog",
			"type": "event"
		},
		{
			"anonymous": false,
			"inputs": [
				{
					"indexed": false,
					"internalType": "address",
					"name": "_onayKurumAdres",
					"type": "address"
				},
				{
					"indexed": false,
					"internalType": "uint256",
					"name": "_tarih",
					"type": "uint256"
				}
			],
			"name": "SertifikaTalebiOnaylandiLog",
			"type": "event"
		},
		{
			"anonymous": false,
			"inputs": [
				{
					"indexed": false,
					"internalType": "uint256",
					"name": "_sertifikaBilgiId",
					"type": "uint256"
				},
				{
					"indexed": false,
					"internalType": "uint256",
					"name": "_alinanTarih",
					"type": "uint256"
				},
				{
					"indexed": false,
					"internalType": "uint256",
					"name": "_gecerlilikSuresi",
					"type": "uint256"
				}
			],
			"name": "SertifikaTalepEdildiLog",
			"type": "event"
		},
		{
			"inputs": [
				{
					"internalType": "address",
					"name": "_kisiAddress",
					"type": "address"
				},
				{
					"internalType": "uint256",
					"name": "_alinanTarih",
					"type": "uint256"
				},
				{
					"internalType": "uint8",
					"name": "_gecerlilikSuresi",
					"type": "uint8"
				},
				{
					"internalType": "string",
					"name": "_sertifikaAdi",
					"type": "string"
				}
			],
			"name": "ekleSertifikaBilgi",
			"outputs": [],
			"stateMutability": "nonpayable",
			"type": "function"
		},
		{
			"inputs": [
				{
					"internalType": "address",
					"name": "_kisiAddress",
					"type": "address"
				},
				{
					"internalType": "uint256",
					"name": "_id",
					"type": "uint256"
				}
			],
			"name": "getirKisininSertifikaBilgisi",
			"outputs": [
				{
					"components": [
						{
							"internalType": "uint256",
							"name": "id",
							"type": "uint256"
						},
						{
							"internalType": "address",
							"name": "talepEdilenKurum",
							"type": "address"
						},
						{
							"internalType": "uint256",
							"name": "alinanTarih",
							"type": "uint256"
						},
						{
							"internalType": "uint8",
							"name": "gecerlilikSuresi",
							"type": "uint8"
						},
						{
							"internalType": "string",
							"name": "sertifikaAdi",
							"type": "string"
						},
						{
							"components": [
								{
									"internalType": "uint256",
									"name": "zaman",
									"type": "uint256"
								},
								{
									"internalType": "address",
									"name": "adres",
									"type": "address"
								},
								{
									"internalType": "enum BaseProperties.OnayDurum",
									"name": "durum",
									"type": "uint8"
								}
							],
							"internalType": "struct BaseProperties.Onay",
							"name": "onayBilgi",
							"type": "tuple"
						}
					],
					"internalType": "struct SertifikaBilgileri.SertifikaBilgi",
					"name": "",
					"type": "tuple"
				}
			],
			"stateMutability": "view",
			"type": "function"
		},
		{
			"inputs": [
				{
					"internalType": "address",
					"name": "_kisiAddress",
					"type": "address"
				}
			],
			"name": "getirKisininSertifikaIdListe",
			"outputs": [
				{
					"internalType": "uint256[]",
					"name": "",
					"type": "uint256[]"
				}
			],
			"stateMutability": "view",
			"type": "function"
		},
		{
			"inputs": [],
			"name": "getirOnayBekleyenListe",
			"outputs": [
				{
					"internalType": "address[]",
					"name": "",
					"type": "address[]"
				}
			],
			"stateMutability": "view",
			"type": "function"
		},
		{
			"inputs": [
				{
					"internalType": "address",
					"name": "_kisiAddress",
					"type": "address"
				},
				{
					"internalType": "uint256",
					"name": "_sertifikaBilgiId",
					"type": "uint256"
				},
				{
					"internalType": "uint256",
					"name": "_alinanTarih",
					"type": "uint256"
				},
				{
					"internalType": "uint8",
					"name": "_gecerlilikSuresi",
					"type": "uint8"
				},
				{
					"internalType": "string",
					"name": "_sertifikaAdi",
					"type": "string"
				}
			],
			"name": "guncelleSertifikaBilgi",
			"outputs": [
				{
					"internalType": "uint256",
					"name": "",
					"type": "uint256"
				}
			],
			"stateMutability": "nonpayable",
			"type": "function"
		},
		{
			"inputs": [],
			"name": "id",
			"outputs": [
				{
					"internalType": "uint256",
					"name": "",
					"type": "uint256"
				}
			],
			"stateMutability": "view",
			"type": "function"
		},
		{
			"inputs": [
				{
					"internalType": "address",
					"name": "",
					"type": "address"
				},
				{
					"internalType": "uint256",
					"name": "",
					"type": "uint256"
				}
			],
			"name": "kisiSertifikaIdListesi",
			"outputs": [
				{
					"internalType": "uint256",
					"name": "",
					"type": "uint256"
				}
			],
			"stateMutability": "view",
			"type": "function"
		},
		{
			"inputs": [
				{
					"internalType": "uint256",
					"name": "",
					"type": "uint256"
				}
			],
			"name": "onayBekleyenKisiler",
			"outputs": [
				{
					"internalType": "address",
					"name": "",
					"type": "address"
				}
			],
			"stateMutability": "view",
			"type": "function"
		},
		{
			"inputs": [
				{
					"internalType": "address",
					"name": "",
					"type": "address"
				},
				{
					"internalType": "uint256",
					"name": "",
					"type": "uint256"
				}
			],
			"name": "sertifikaBilgiListesi",
			"outputs": [
				{
					"internalType": "uint256",
					"name": "id",
					"type": "uint256"
				},
				{
					"internalType": "address",
					"name": "talepEdilenKurum",
					"type": "address"
				},
				{
					"internalType": "uint256",
					"name": "alinanTarih",
					"type": "uint256"
				},
				{
					"internalType": "uint8",
					"name": "gecerlilikSuresi",
					"type": "uint8"
				},
				{
					"internalType": "string",
					"name": "sertifikaAdi",
					"type": "string"
				},
				{
					"components": [
						{
							"internalType": "uint256",
							"name": "zaman",
							"type": "uint256"
						},
						{
							"internalType": "address",
							"name": "adres",
							"type": "address"
						},
						{
							"internalType": "enum BaseProperties.OnayDurum",
							"name": "durum",
							"type": "uint8"
						}
					],
					"internalType": "struct BaseProperties.Onay",
					"name": "onayBilgi",
					"type": "tuple"
				}
			],
			"stateMutability": "view",
			"type": "function"
		},
		{
			"inputs": [
				{
					"internalType": "address",
					"name": "_kisiAddress",
					"type": "address"
				},
				{
					"internalType": "address",
					"name": "_talepEdilenKurum",
					"type": "address"
				},
				{
					"internalType": "uint256",
					"name": "_alinanTarih",
					"type": "uint256"
				},
				{
					"internalType": "uint8",
					"name": "_gecerlilikSuresi",
					"type": "uint8"
				},
				{
					"internalType": "string",
					"name": "_sertifikaAdi",
					"type": "string"
				}
			],
			"name": "talepEtSertifikaBilgi",
			"outputs": [],
			"stateMutability": "nonpayable",
			"type": "function"
		},
		{
			"inputs": [
				{
					"internalType": "address",
					"name": "_kisiAddress",
					"type": "address"
				},
				{
					"internalType": "uint256",
					"name": "_sertifikaBilgiId",
					"type": "uint256"
				}
			],
			"name": "talepOnaylaSertifikaBilgi",
			"outputs": [
				{
					"internalType": "uint256",
					"name": "",
					"type": "uint256"
				}
			],
			"stateMutability": "nonpayable",
			"type": "function"
		}
	]
}