{
	"data": {
		"bytecode": {
			"linkReferences": {},
			"object": "60806040523480156200001157600080fd5b5060405162001b0538038062001b05833981810160405281019062000037919062000221565b866000806101000a81548173ffffffffffffffffffffffffffffffffffffffff021916908373ffffffffffffffffffffffffffffffffffffffff16021790555085600160006101000a81548173ffffffffffffffffffffffffffffffffffffffff021916908373ffffffffffffffffffffffffffffffffffffffff16021790555084600260006101000a81548173ffffffffffffffffffffffffffffffffffffffff021916908373ffffffffffffffffffffffffffffffffffffffff16021790555083600360006101000a81548173ffffffffffffffffffffffffffffffffffffffff021916908373ffffffffffffffffffffffffffffffffffffffff16021790555082600460006101000a81548173ffffffffffffffffffffffffffffffffffffffff021916908373ffffffffffffffffffffffffffffffffffffffff16021790555081600560006101000a81548173ffffffffffffffffffffffffffffffffffffffff021916908373ffffffffffffffffffffffffffffffffffffffff16021790555080600660006101000a81548173ffffffffffffffffffffffffffffffffffffffff021916908373ffffffffffffffffffffffffffffffffffffffff1602179055505050505050505062000327565b6000815190506200021b816200030d565b92915050565b600080600080600080600060e0888a03121562000243576200024262000308565b5b6000620002538a828b016200020a565b9750506020620002668a828b016200020a565b9650506040620002798a828b016200020a565b95505060606200028c8a828b016200020a565b94505060806200029f8a828b016200020a565b93505060a0620002b28a828b016200020a565b92505060c0620002c58a828b016200020a565b91505092959891949750929550565b6000620002e182620002e8565b9050919050565b600073ffffffffffffffffffffffffffffffffffffffff82169050919050565b600080fd5b6200031881620002d4565b81146200032457600080fd5b50565b6117ce80620003376000396000f3fe608060405234801561001057600080fd5b50600436106100625760003560e01c8063011c05e114610067578063035963ce14610083578063756d4f9f1461009f57806398522fd6146100bb578063aa18710d146100d7578063fb887b89146100f3575b600080fd5b610081600480360381019061007c9190610d27565b61010f565b005b61009d60048036038101906100989190610ece565b610298565b005b6100b960048036038101906100b49190610b8d565b61042a565b005b6100d560048036038101906100d09190610db4565b6105bf565b005b6100f160048036038101906100ec9190610e4b565b610745565b005b61010d60048036038101906101089190610ca4565b6108c8565b005b60008054906101000a900473ffffffffffffffffffffffffffffffffffffffff1673ffffffffffffffffffffffffffffffffffffffff1663b98ccefd336040518263ffffffff1660e01b815260040161016891906110c4565b60206040518083038186803b15801561018057600080fd5b505afa158015610194573d6000803e3d6000fd5b505050506040513d601f19601f820116820180604052508101906101b89190610fb4565b6101f7576040517f08c379a00000000000000000000000000000000000000000000000000000000081526004016101ee906113c6565b60405180910390fd5b600360009054906101000a900473ffffffffffffffffffffffffffffffffffffffff1673ffffffffffffffffffffffffffffffffffffffff1663c90ae82a338888888888886040518863ffffffff1660e01b815260040161025e97969594939291906111f2565b600060405180830381600087803b15801561027857600080fd5b505af115801561028c573d6000803e3d6000fd5b50505050505050505050565b60008054906101000a900473ffffffffffffffffffffffffffffffffffffffff1673ffffffffffffffffffffffffffffffffffffffff1663b98ccefd336040518263ffffffff1660e01b81526004016102f191906110c4565b60206040518083038186803b15801561030957600080fd5b505afa15801561031d573d6000803e3d6000fd5b505050506040513d601f19601f820116820180604052508101906103419190610fb4565b610380576040517f08c379a0000000000000000000000000000000000000000000000000000000008152600401610377906113c6565b60405180910390fd5b600260009054906101000a900473ffffffffffffffffffffffffffffffffffffffff1673ffffffffffffffffffffffffffffffffffffffff166330561b9b338b8b8b8b8b8b8b8b8b6040518b63ffffffff1660e01b81526004016103ed9a99989796959493929190611323565b600060405180830381600087803b15801561040757600080fd5b505af115801561041b573d6000803e3d6000fd5b50505050505050505050505050565b60008054906101000a900473ffffffffffffffffffffffffffffffffffffffff1673ffffffffffffffffffffffffffffffffffffffff1663b98ccefd336040518263ffffffff1660e01b815260040161048391906110c4565b60206040518083038186803b15801561049b57600080fd5b505afa1580156104af573d6000803e3d6000fd5b505050506040513d601f19601f820116820180604052508101906104d39190610fb4565b610512576040517f08c379a0000000000000000000000000000000000000000000000000000000008152600401610509906113c6565b60405180910390fd5b600160009054906101000a900473ffffffffffffffffffffffffffffffffffffffff1673ffffffffffffffffffffffffffffffffffffffff166356978f67338c8c8c8c8c8c8c8c8c8c6040518c63ffffffff1660e01b81526004016105819b9a999897969594939291906110df565b600060405180830381600087803b15801561059b57600080fd5b505af11580156105af573d6000803e3d6000fd5b5050505050505050505050505050565b60008054906101000a900473ffffffffffffffffffffffffffffffffffffffff1673ffffffffffffffffffffffffffffffffffffffff1663b98ccefd336040518263ffffffff1660e01b815260040161061891906110c4565b60206040518083038186803b15801561063057600080fd5b505afa158015610644573d6000803e3d6000fd5b505050506040513d601f19601f820116820180604052508101906106689190610fb4565b6106a7576040517f08c379a000000000000000000000000000000000000000000000000000000000815260040161069e906113c6565b60405180910390fd5b600460009054906101000a900473ffffffffffffffffffffffffffffffffffffffff1673ffffffffffffffffffffffffffffffffffffffff16635637b6a53387878787876040518763ffffffff1660e01b815260040161070c96959493929190611261565b600060405180830381600087803b15801561072657600080fd5b505af115801561073a573d6000803e3d6000fd5b505050505050505050565b60008054906101000a900473ffffffffffffffffffffffffffffffffffffffff1673ffffffffffffffffffffffffffffffffffffffff1663b98ccefd336040518263ffffffff1660e01b815260040161079e91906110c4565b60206040518083038186803b1580156107b657600080fd5b505afa1580156107ca573d6000803e3d6000fd5b505050506040513d601f19601f820116820180604052508101906107ee9190610fb4565b61082d576040517f08c379a0000000000000000000000000000000000000000000000000000000008152600401610824906113c6565b60405180910390fd5b600660009054906101000a900473ffffffffffffffffffffffffffffffffffffffff1673ffffffffffffffffffffffffffffffffffffffff1663cca5094033868686866040518663ffffffff1660e01b81526004016108909594939291906112c9565b600060405180830381600087803b1580156108aa57600080fd5b505af11580156108be573d6000803e3d6000fd5b5050505050505050565b60008054906101000a900473ffffffffffffffffffffffffffffffffffffffff1673ffffffffffffffffffffffffffffffffffffffff1663b98ccefd336040518263ffffffff1660e01b815260040161092191906110c4565b60206040518083038186803b15801561093957600080fd5b505afa15801561094d573d6000803e3d6000fd5b505050506040513d601f19601f820116820180604052508101906109719190610fb4565b6109b0576040517f08c379a00000000000000000000000000000000000000000000000000000000081526004016109a7906113c6565b60405180910390fd5b600560009054906101000a900473ffffffffffffffffffffffffffffffffffffffff1673ffffffffffffffffffffffffffffffffffffffff1663c2abce8333868686866040518663ffffffff1660e01b8152600401610a13959493929190611198565b600060405180830381600087803b158015610a2d57600080fd5b505af1158015610a41573d6000803e3d6000fd5b5050505050505050565b6000610a5e610a598461140b565b6113e6565b905082815260208101848484011115610a7a57610a79611635565b5b610a8584828561155f565b509392505050565b600081359050610a9c816116ce565b92915050565b600081519050610ab1816116e5565b92915050565b600081359050610ac6816116fc565b92915050565b600081359050610adb8161170c565b92915050565b600081359050610af08161171c565b92915050565b600081359050610b058161172c565b92915050565b600082601f830112610b2057610b1f611630565b5b8135610b30848260208601610a4b565b91505092915050565b600081359050610b488161173c565b92915050565b600081359050610b5d81611753565b92915050565b600081359050610b728161176a565b92915050565b600081359050610b8781611781565b92915050565b6000806000806000806000806000806101408b8d031215610bb157610bb061163f565b5b6000610bbf8d828e01610a8d565b9a50506020610bd08d828e01610acc565b9950506040610be18d828e01610b4e565b9850506060610bf28d828e01610b4e565b97505060808b013567ffffffffffffffff811115610c1357610c1261163a565b5b610c1f8d828e01610b0b565b96505060a08b013567ffffffffffffffff811115610c4057610c3f61163a565b5b610c4c8d828e01610b0b565b95505060c0610c5d8d828e01610a8d565b94505060e0610c6e8d828e01610b39565b935050610100610c808d828e01610b39565b925050610120610c928d828e01610ae1565b9150509295989b9194979a5092959850565b60008060008060808587031215610cbe57610cbd61163f565b5b6000610ccc87828801610a8d565b9450506020610cdd87828801610b4e565b935050604085013567ffffffffffffffff811115610cfe57610cfd61163a565b5b610d0a87828801610b0b565b9250506060610d1b87828801610af6565b91505092959194509250565b60008060008060008060c08789031215610d4457610d4361163f565b5b6000610d5289828a01610a8d565b9650506020610d6389828a01610b4e565b9550506040610d7489828a01610b4e565b9450506060610d8589828a01610ae1565b9350506080610d9689828a01610b63565b92505060a0610da789828a01610af6565b9150509295509295509295565b600080600080600060a08688031215610dd057610dcf61163f565b5b6000610dde88828901610a8d565b9550506020610def88828901610b4e565b9450506040610e0088828901610b4e565b9350506060610e1188828901610b78565b925050608086013567ffffffffffffffff811115610e3257610e3161163a565b5b610e3e88828901610b0b565b9150509295509295909350565b60008060008060808587031215610e6557610e6461163f565b5b6000610e7387828801610a8d565b9450506020610e8487828801610b4e565b9350506040610e9587828801610b78565b925050606085013567ffffffffffffffff811115610eb657610eb561163a565b5b610ec287828801610b0b565b91505092959194509250565b60008060008060008060008060006101208a8c031215610ef157610ef061163f565b5b6000610eff8c828d01610a8d565b9950506020610f108c828d01610b63565b9850506040610f218c828d01610b78565b9750506060610f328c828d01610ab7565b96505060808a013567ffffffffffffffff811115610f5357610f5261163a565b5b610f5f8c828d01610b0b565b95505060a0610f708c828d01610b4e565b94505060c0610f818c828d01610b4e565b93505060e0610f928c828d01610b78565b925050610100610fa48c828d01610b63565b9150509295985092959850929598565b600060208284031215610fca57610fc961163f565b5b6000610fd884828501610aa2565b91505092915050565b610fea81611458565b82525050565b610ff981611517565b82525050565b61100881611529565b82525050565b6110178161153b565b82525050565b6110268161154d565b82525050565b60006110378261143c565b6110418185611447565b935061105181856020860161156e565b61105a81611644565b840191505092915050565b6000611072602083611447565b915061107d82611655565b602082019050919050565b611091816114c2565b82525050565b6110a0816114f0565b82525050565b6110af816114fa565b82525050565b6110be8161150a565b82525050565b60006020820190506110d96000830184610fe1565b92915050565b6000610160820190506110f5600083018e610fe1565b611102602083018d610fe1565b61110f604083018c610fff565b61111c606083018b611097565b611129608083018a611097565b81810360a083015261113b818961102c565b905081810360c083015261114f818861102c565b905061115e60e0830187610fe1565b61116c610100830186611088565b61117a610120830185611088565b61118861014083018461100e565b9c9b505050505050505050505050565b600060a0820190506111ad6000830188610fe1565b6111ba6020830187610fe1565b6111c76040830186611097565b81810360608301526111d9818561102c565b90506111e8608083018461101d565b9695505050505050565b600060e082019050611207600083018a610fe1565b6112146020830189610fe1565b6112216040830188611097565b61122e6060830187611097565b61123b608083018661100e565b61124860a08301856110a6565b61125560c083018461101d565b98975050505050505050565b600060c0820190506112766000830189610fe1565b6112836020830188610fe1565b6112906040830187611097565b61129d6060830186611097565b6112aa60808301856110b5565b81810360a08301526112bc818461102c565b9050979650505050505050565b600060a0820190506112de6000830188610fe1565b6112eb6020830187610fe1565b6112f86040830186611097565b61130560608301856110b5565b8181036080830152611317818461102c565b90509695505050505050565b600061014082019050611339600083018d610fe1565b611346602083018c610fe1565b611353604083018b6110a6565b611360606083018a6110b5565b61136d6080830189610ff0565b81810360a083015261137f818861102c565b905061138e60c0830187611097565b61139b60e0830186611097565b6113a96101008301856110b5565b6113b76101208301846110a6565b9b9a5050505050505050505050565b600060208201905081810360008301526113df81611065565b9050919050565b60006113f0611401565b90506113fc82826115a1565b919050565b6000604051905090565b600067ffffffffffffffff82111561142657611425611601565b5b61142f82611644565b9050602081019050919050565b600081519050919050565b600082825260208201905092915050565b6000611463826114d0565b9050919050565b60008115159050919050565b60008190506114848261167e565b919050565b600081905061149782611692565b919050565b60008190506114aa826116a6565b919050565b60008190506114bd826116ba565b919050565b600061ffff82169050919050565b600073ffffffffffffffffffffffffffffffffffffffff82169050919050565b6000819050919050565b600063ffffffff82169050919050565b600060ff82169050919050565b600061152282611476565b9050919050565b600061153482611489565b9050919050565b60006115468261149c565b9050919050565b6000611558826114af565b9050919050565b82818337600083830152505050565b60005b8381101561158c578082015181840152602081019050611571565b8381111561159b576000848401525b50505050565b6115aa82611644565b810181811067ffffffffffffffff821117156115c9576115c8611601565b5b80604052505050565b7f4e487b7100000000000000000000000000000000000000000000000000000000600052602160045260246000fd5b7f4e487b7100000000000000000000000000000000000000000000000000000000600052604160045260246000fd5b600080fd5b600080fd5b600080fd5b600080fd5b6000601f19601f8301169050919050565b7f42752069736c656d6920736164656365204b697369207961706162696c69722e600082015250565b6003811061168f5761168e6115d2565b5b50565b600481106116a3576116a26115d2565b5b50565b600481106116b7576116b66115d2565b5b50565b600481106116cb576116ca6115d2565b5b50565b6116d781611458565b81146116e257600080fd5b50565b6116ee8161146a565b81146116f957600080fd5b50565b6003811061170957600080fd5b50565b6004811061171957600080fd5b50565b6004811061172957600080fd5b50565b6004811061173957600080fd5b50565b611745816114c2565b811461175057600080fd5b50565b61175c816114f0565b811461176757600080fd5b50565b611773816114fa565b811461177e57600080fd5b50565b61178a8161150a565b811461179557600080fd5b5056fea26469706673582212203300810075171e2f0d38ff7b97df1226a64b17802d97ca180d6587e07e473bb464736f6c63430008070033",
			"opcodes": "PUSH1 0x80 PUSH1 0x40 MSTORE CALLVALUE DUP1 ISZERO PUSH3 0x11 JUMPI PUSH1 0x0 DUP1 REVERT JUMPDEST POP PUSH1 0x40 MLOAD PUSH3 0x1B05 CODESIZE SUB DUP1 PUSH3 0x1B05 DUP4 CODECOPY DUP2 DUP2 ADD PUSH1 0x40 MSTORE DUP2 ADD SWAP1 PUSH3 0x37 SWAP2 SWAP1 PUSH3 0x221 JUMP JUMPDEST DUP7 PUSH1 0x0 DUP1 PUSH2 0x100 EXP DUP2 SLOAD DUP2 PUSH20 0xFFFFFFFFFFFFFFFFFFFFFFFFFFFFFFFFFFFFFFFF MUL NOT AND SWAP1 DUP4 PUSH20 0xFFFFFFFFFFFFFFFFFFFFFFFFFFFFFFFFFFFFFFFF AND MUL OR SWAP1 SSTORE POP DUP6 PUSH1 0x1 PUSH1 0x0 PUSH2 0x100 EXP DUP2 SLOAD DUP2 PUSH20 0xFFFFFFFFFFFFFFFFFFFFFFFFFFFFFFFFFFFFFFFF MUL NOT AND SWAP1 DUP4 PUSH20 0xFFFFFFFFFFFFFFFFFFFFFFFFFFFFFFFFFFFFFFFF AND MUL OR SWAP1 SSTORE POP DUP5 PUSH1 0x2 PUSH1 0x0 PUSH2 0x100 EXP DUP2 SLOAD DUP2 PUSH20 0xFFFFFFFFFFFFFFFFFFFFFFFFFFFFFFFFFFFFFFFF MUL NOT AND SWAP1 DUP4 PUSH20 0xFFFFFFFFFFFFFFFFFFFFFFFFFFFFFFFFFFFFFFFF AND MUL OR SWAP1 SSTORE POP DUP4 PUSH1 0x3 PUSH1 0x0 PUSH2 0x100 EXP DUP2 SLOAD DUP2 PUSH20 0xFFFFFFFFFFFFFFFFFFFFFFFFFFFFFFFFFFFFFFFF MUL NOT AND SWAP1 DUP4 PUSH20 0xFFFFFFFFFFFFFFFFFFFFFFFFFFFFFFFFFFFFFFFF AND MUL OR SWAP1 SSTORE POP DUP3 PUSH1 0x4 PUSH1 0x0 PUSH2 0x100 EXP DUP2 SLOAD DUP2 PUSH20 0xFFFFFFFFFFFFFFFFFFFFFFFFFFFFFFFFFFFFFFFF MUL NOT AND SWAP1 DUP4 PUSH20 0xFFFFFFFFFFFFFFFFFFFFFFFFFFFFFFFFFFFFFFFF AND MUL OR SWAP1 SSTORE POP DUP2 PUSH1 0x5 PUSH1 0x0 PUSH2 0x100 EXP DUP2 SLOAD DUP2 PUSH20 0xFFFFFFFFFFFFFFFFFFFFFFFFFFFFFFFFFFFFFFFF MUL NOT AND SWAP1 DUP4 PUSH20 0xFFFFFFFFFFFFFFFFFFFFFFFFFFFFFFFFFFFFFFFF AND MUL OR SWAP1 SSTORE POP DUP1 PUSH1 0x6 PUSH1 0x0 PUSH2 0x100 EXP DUP2 SLOAD DUP2 PUSH20 0xFFFFFFFFFFFFFFFFFFFFFFFFFFFFFFFFFFFFFFFF MUL NOT AND SWAP1 DUP4 PUSH20 0xFFFFFFFFFFFFFFFFFFFFFFFFFFFFFFFFFFFFFFFF AND MUL OR SWAP1 SSTORE POP POP POP POP POP POP POP POP PUSH3 0x327 JUMP JUMPDEST PUSH1 0x0 DUP2 MLOAD SWAP1 POP PUSH3 0x21B DUP2 PUSH3 0x30D JUMP JUMPDEST SWAP3 SWAP2 POP POP JUMP JUMPDEST PUSH1 0x0 DUP1 PUSH1 0x0 DUP1 PUSH1 0x0 DUP1 PUSH1 0x0 PUSH1 0xE0 DUP9 DUP11 SUB SLT ISZERO PUSH3 0x243 JUMPI PUSH3 0x242 PUSH3 0x308 JUMP JUMPDEST JUMPDEST PUSH1 0x0 PUSH3 0x253 DUP11 DUP3 DUP12 ADD PUSH3 0x20A JUMP JUMPDEST SWAP8 POP POP PUSH1 0x20 PUSH3 0x266 DUP11 DUP3 DUP12 ADD PUSH3 0x20A JUMP JUMPDEST SWAP7 POP POP PUSH1 0x40 PUSH3 0x279 DUP11 DUP3 DUP12 ADD PUSH3 0x20A JUMP JUMPDEST SWAP6 POP POP PUSH1 0x60 PUSH3 0x28C DUP11 DUP3 DUP12 ADD PUSH3 0x20A JUMP JUMPDEST SWAP5 POP POP PUSH1 0x80 PUSH3 0x29F DUP11 DUP3 DUP12 ADD PUSH3 0x20A JUMP JUMPDEST SWAP4 POP POP PUSH1 0xA0 PUSH3 0x2B2 DUP11 DUP3 DUP12 ADD PUSH3 0x20A JUMP JUMPDEST SWAP3 POP POP PUSH1 0xC0 PUSH3 0x2C5 DUP11 DUP3 DUP12 ADD PUSH3 0x20A JUMP JUMPDEST SWAP2 POP POP SWAP3 SWAP6 SWAP9 SWAP2 SWAP5 SWAP8 POP SWAP3 SWAP6 POP JUMP JUMPDEST PUSH1 0x0 PUSH3 0x2E1 DUP3 PUSH3 0x2E8 JUMP JUMPDEST SWAP1 POP SWAP2 SWAP1 POP JUMP JUMPDEST PUSH1 0x0 PUSH20 0xFFFFFFFFFFFFFFFFFFFFFFFFFFFFFFFFFFFFFFFF DUP3 AND SWAP1 POP SWAP2 SWAP1 POP JUMP JUMPDEST PUSH1 0x0 DUP1 REVERT JUMPDEST PUSH3 0x318 DUP2 PUSH3 0x2D4 JUMP JUMPDEST DUP2 EQ PUSH3 0x324 JUMPI PUSH1 0x0 DUP1 REVERT JUMPDEST POP JUMP JUMPDEST PUSH2 0x17CE DUP1 PUSH3 0x337 PUSH1 0x0 CODECOPY PUSH1 0x0 RETURN INVALID PUSH1 0x80 PUSH1 0x40 MSTORE CALLVALUE DUP1 ISZERO PUSH2 0x10 JUMPI PUSH1 0x0 DUP1 REVERT JUMPDEST POP PUSH1 0x4 CALLDATASIZE LT PUSH2 0x62 JUMPI PUSH1 0x0 CALLDATALOAD PUSH1 0xE0 SHR DUP1 PUSH4 0x11C05E1 EQ PUSH2 0x67 JUMPI DUP1 PUSH4 0x35963CE EQ PUSH2 0x83 JUMPI DUP1 PUSH4 0x756D4F9F EQ PUSH2 0x9F JUMPI DUP1 PUSH4 0x98522FD6 EQ PUSH2 0xBB JUMPI DUP1 PUSH4 0xAA18710D EQ PUSH2 0xD7 JUMPI DUP1 PUSH4 0xFB887B89 EQ PUSH2 0xF3 JUMPI JUMPDEST PUSH1 0x0 DUP1 REVERT JUMPDEST PUSH2 0x81 PUSH1 0x4 DUP1 CALLDATASIZE SUB DUP2 ADD SWAP1 PUSH2 0x7C SWAP2 SWAP1 PUSH2 0xD27 JUMP JUMPDEST PUSH2 0x10F JUMP JUMPDEST STOP JUMPDEST PUSH2 0x9D PUSH1 0x4 DUP1 CALLDATASIZE SUB DUP2 ADD SWAP1 PUSH2 0x98 SWAP2 SWAP1 PUSH2 0xECE JUMP JUMPDEST PUSH2 0x298 JUMP JUMPDEST STOP JUMPDEST PUSH2 0xB9 PUSH1 0x4 DUP1 CALLDATASIZE SUB DUP2 ADD SWAP1 PUSH2 0xB4 SWAP2 SWAP1 PUSH2 0xB8D JUMP JUMPDEST PUSH2 0x42A JUMP JUMPDEST STOP JUMPDEST PUSH2 0xD5 PUSH1 0x4 DUP1 CALLDATASIZE SUB DUP2 ADD SWAP1 PUSH2 0xD0 SWAP2 SWAP1 PUSH2 0xDB4 JUMP JUMPDEST PUSH2 0x5BF JUMP JUMPDEST STOP JUMPDEST PUSH2 0xF1 PUSH1 0x4 DUP1 CALLDATASIZE SUB DUP2 ADD SWAP1 PUSH2 0xEC SWAP2 SWAP1 PUSH2 0xE4B JUMP JUMPDEST PUSH2 0x745 JUMP JUMPDEST STOP JUMPDEST PUSH2 0x10D PUSH1 0x4 DUP1 CALLDATASIZE SUB DUP2 ADD SWAP1 PUSH2 0x108 SWAP2 SWAP1 PUSH2 0xCA4 JUMP JUMPDEST PUSH2 0x8C8 JUMP JUMPDEST STOP JUMPDEST PUSH1 0x0 DUP1 SLOAD SWAP1 PUSH2 0x100 EXP SWAP1 DIV PUSH20 0xFFFFFFFFFFFFFFFFFFFFFFFFFFFFFFFFFFFFFFFF AND PUSH20 0xFFFFFFFFFFFFFFFFFFFFFFFFFFFFFFFFFFFFFFFF AND PUSH4 0xB98CCEFD CALLER PUSH1 0x40 MLOAD DUP3 PUSH4 0xFFFFFFFF AND PUSH1 0xE0 SHL DUP2 MSTORE PUSH1 0x4 ADD PUSH2 0x168 SWAP2 SWAP1 PUSH2 0x10C4 JUMP JUMPDEST PUSH1 0x20 PUSH1 0x40 MLOAD DUP1 DUP4 SUB DUP2 DUP7 DUP1 EXTCODESIZE ISZERO DUP1 ISZERO PUSH2 0x180 JUMPI PUSH1 0x0 DUP1 REVERT JUMPDEST POP GAS STATICCALL ISZERO DUP1 ISZERO PUSH2 0x194 JUMPI RETURNDATASIZE PUSH1 0x0 DUP1 RETURNDATACOPY RETURNDATASIZE PUSH1 0x0 REVERT JUMPDEST POP POP POP POP PUSH1 0x40 MLOAD RETURNDATASIZE PUSH1 0x1F NOT PUSH1 0x1F DUP3 ADD AND DUP3 ADD DUP1 PUSH1 0x40 MSTORE POP DUP2 ADD SWAP1 PUSH2 0x1B8 SWAP2 SWAP1 PUSH2 0xFB4 JUMP JUMPDEST PUSH2 0x1F7 JUMPI PUSH1 0x40 MLOAD PUSH32 0x8C379A000000000000000000000000000000000000000000000000000000000 DUP2 MSTORE PUSH1 0x4 ADD PUSH2 0x1EE SWAP1 PUSH2 0x13C6 JUMP JUMPDEST PUSH1 0x40 MLOAD DUP1 SWAP2 SUB SWAP1 REVERT JUMPDEST PUSH1 0x3 PUSH1 0x0 SWAP1 SLOAD SWAP1 PUSH2 0x100 EXP SWAP1 DIV PUSH20 0xFFFFFFFFFFFFFFFFFFFFFFFFFFFFFFFFFFFFFFFF AND PUSH20 0xFFFFFFFFFFFFFFFFFFFFFFFFFFFFFFFFFFFFFFFF AND PUSH4 0xC90AE82A CALLER DUP9 DUP9 DUP9 DUP9 DUP9 DUP9 PUSH1 0x40 MLOAD DUP9 PUSH4 0xFFFFFFFF AND PUSH1 0xE0 SHL DUP2 MSTORE PUSH1 0x4 ADD PUSH2 0x25E SWAP8 SWAP7 SWAP6 SWAP5 SWAP4 SWAP3 SWAP2 SWAP1 PUSH2 0x11F2 JUMP JUMPDEST PUSH1 0x0 PUSH1 0x40 MLOAD DUP1 DUP4 SUB DUP2 PUSH1 0x0 DUP8 DUP1 EXTCODESIZE ISZERO DUP1 ISZERO PUSH2 0x278 JUMPI PUSH1 0x0 DUP1 REVERT JUMPDEST POP GAS CALL ISZERO DUP1 ISZERO PUSH2 0x28C JUMPI RETURNDATASIZE PUSH1 0x0 DUP1 RETURNDATACOPY RETURNDATASIZE PUSH1 0x0 REVERT JUMPDEST POP POP POP POP POP POP POP POP POP POP JUMP JUMPDEST PUSH1 0x0 DUP1 SLOAD SWAP1 PUSH2 0x100 EXP SWAP1 DIV PUSH20 0xFFFFFFFFFFFFFFFFFFFFFFFFFFFFFFFFFFFFFFFF AND PUSH20 0xFFFFFFFFFFFFFFFFFFFFFFFFFFFFFFFFFFFFFFFF AND PUSH4 0xB98CCEFD CALLER PUSH1 0x40 MLOAD DUP3 PUSH4 0xFFFFFFFF AND PUSH1 0xE0 SHL DUP2 MSTORE PUSH1 0x4 ADD PUSH2 0x2F1 SWAP2 SWAP1 PUSH2 0x10C4 JUMP JUMPDEST PUSH1 0x20 PUSH1 0x40 MLOAD DUP1 DUP4 SUB DUP2 DUP7 DUP1 EXTCODESIZE ISZERO DUP1 ISZERO PUSH2 0x309 JUMPI PUSH1 0x0 DUP1 REVERT JUMPDEST POP GAS STATICCALL ISZERO DUP1 ISZERO PUSH2 0x31D JUMPI RETURNDATASIZE PUSH1 0x0 DUP1 RETURNDATACOPY RETURNDATASIZE PUSH1 0x0 REVERT JUMPDEST POP POP POP POP PUSH1 0x40 MLOAD RETURNDATASIZE PUSH1 0x1F NOT PUSH1 0x1F DUP3 ADD AND DUP3 ADD DUP1 PUSH1 0x40 MSTORE POP DUP2 ADD SWAP1 PUSH2 0x341 SWAP2 SWAP1 PUSH2 0xFB4 JUMP JUMPDEST PUSH2 0x380 JUMPI PUSH1 0x40 MLOAD PUSH32 0x8C379A000000000000000000000000000000000000000000000000000000000 DUP2 MSTORE PUSH1 0x4 ADD PUSH2 0x377 SWAP1 PUSH2 0x13C6 JUMP JUMPDEST PUSH1 0x40 MLOAD DUP1 SWAP2 SUB SWAP1 REVERT JUMPDEST PUSH1 0x2 PUSH1 0x0 SWAP1 SLOAD SWAP1 PUSH2 0x100 EXP SWAP1 DIV PUSH20 0xFFFFFFFFFFFFFFFFFFFFFFFFFFFFFFFFFFFFFFFF AND PUSH20 0xFFFFFFFFFFFFFFFFFFFFFFFFFFFFFFFFFFFFFFFF AND PUSH4 0x30561B9B CALLER DUP12 DUP12 DUP12 DUP12 DUP12 DUP12 DUP12 DUP12 DUP12 PUSH1 0x40 MLOAD DUP12 PUSH4 0xFFFFFFFF AND PUSH1 0xE0 SHL DUP2 MSTORE PUSH1 0x4 ADD PUSH2 0x3ED SWAP11 SWAP10 SWAP9 SWAP8 SWAP7 SWAP6 SWAP5 SWAP4 SWAP3 SWAP2 SWAP1 PUSH2 0x1323 JUMP JUMPDEST PUSH1 0x0 PUSH1 0x40 MLOAD DUP1 DUP4 SUB DUP2 PUSH1 0x0 DUP8 DUP1 EXTCODESIZE ISZERO DUP1 ISZERO PUSH2 0x407 JUMPI PUSH1 0x0 DUP1 REVERT JUMPDEST POP GAS CALL ISZERO DUP1 ISZERO PUSH2 0x41B JUMPI RETURNDATASIZE PUSH1 0x0 DUP1 RETURNDATACOPY RETURNDATASIZE PUSH1 0x0 REVERT JUMPDEST POP POP POP POP POP POP POP POP POP POP POP POP POP JUMP JUMPDEST PUSH1 0x0 DUP1 SLOAD SWAP1 PUSH2 0x100 EXP SWAP1 DIV PUSH20 0xFFFFFFFFFFFFFFFFFFFFFFFFFFFFFFFFFFFFFFFF AND PUSH20 0xFFFFFFFFFFFFFFFFFFFFFFFFFFFFFFFFFFFFFFFF AND PUSH4 0xB98CCEFD CALLER PUSH1 0x40 MLOAD DUP3 PUSH4 0xFFFFFFFF AND PUSH1 0xE0 SHL DUP2 MSTORE PUSH1 0x4 ADD PUSH2 0x483 SWAP2 SWAP1 PUSH2 0x10C4 JUMP JUMPDEST PUSH1 0x20 PUSH1 0x40 MLOAD DUP1 DUP4 SUB DUP2 DUP7 DUP1 EXTCODESIZE ISZERO DUP1 ISZERO PUSH2 0x49B JUMPI PUSH1 0x0 DUP1 REVERT JUMPDEST POP GAS STATICCALL ISZERO DUP1 ISZERO PUSH2 0x4AF JUMPI RETURNDATASIZE PUSH1 0x0 DUP1 RETURNDATACOPY RETURNDATASIZE PUSH1 0x0 REVERT JUMPDEST POP POP POP POP PUSH1 0x40 MLOAD RETURNDATASIZE PUSH1 0x1F NOT PUSH1 0x1F DUP3 ADD AND DUP3 ADD DUP1 PUSH1 0x40 MSTORE POP DUP2 ADD SWAP1 PUSH2 0x4D3 SWAP2 SWAP1 PUSH2 0xFB4 JUMP JUMPDEST PUSH2 0x512 JUMPI PUSH1 0x40 MLOAD PUSH32 0x8C379A000000000000000000000000000000000000000000000000000000000 DUP2 MSTORE PUSH1 0x4 ADD PUSH2 0x509 SWAP1 PUSH2 0x13C6 JUMP JUMPDEST PUSH1 0x40 MLOAD DUP1 SWAP2 SUB SWAP1 REVERT JUMPDEST PUSH1 0x1 PUSH1 0x0 SWAP1 SLOAD SWAP1 PUSH2 0x100 EXP SWAP1 DIV PUSH20 0xFFFFFFFFFFFFFFFFFFFFFFFFFFFFFFFFFFFFFFFF AND PUSH20 0xFFFFFFFFFFFFFFFFFFFFFFFFFFFFFFFFFFFFFFFF AND PUSH4 0x56978F67 CALLER DUP13 DUP13 DUP13 DUP13 DUP13 DUP13 DUP13 DUP13 DUP13 DUP13 PUSH1 0x40 MLOAD DUP13 PUSH4 0xFFFFFFFF AND PUSH1 0xE0 SHL DUP2 MSTORE PUSH1 0x4 ADD PUSH2 0x581 SWAP12 SWAP11 SWAP10 SWAP9 SWAP8 SWAP7 SWAP6 SWAP5 SWAP4 SWAP3 SWAP2 SWAP1 PUSH2 0x10DF JUMP JUMPDEST PUSH1 0x0 PUSH1 0x40 MLOAD DUP1 DUP4 SUB DUP2 PUSH1 0x0 DUP8 DUP1 EXTCODESIZE ISZERO DUP1 ISZERO PUSH2 0x59B JUMPI PUSH1 0x0 DUP1 REVERT JUMPDEST POP GAS CALL ISZERO DUP1 ISZERO PUSH2 0x5AF JUMPI RETURNDATASIZE PUSH1 0x0 DUP1 RETURNDATACOPY RETURNDATASIZE PUSH1 0x0 REVERT JUMPDEST POP POP POP POP POP POP POP POP POP POP POP POP POP POP JUMP JUMPDEST PUSH1 0x0 DUP1 SLOAD SWAP1 PUSH2 0x100 EXP SWAP1 DIV PUSH20 0xFFFFFFFFFFFFFFFFFFFFFFFFFFFFFFFFFFFFFFFF AND PUSH20 0xFFFFFFFFFFFFFFFFFFFFFFFFFFFFFFFFFFFFFFFF AND PUSH4 0xB98CCEFD CALLER PUSH1 0x40 MLOAD DUP3 PUSH4 0xFFFFFFFF AND PUSH1 0xE0 SHL DUP2 MSTORE PUSH1 0x4 ADD PUSH2 0x618 SWAP2 SWAP1 PUSH2 0x10C4 JUMP JUMPDEST PUSH1 0x20 PUSH1 0x40 MLOAD DUP1 DUP4 SUB DUP2 DUP7 DUP1 EXTCODESIZE ISZERO DUP1 ISZERO PUSH2 0x630 JUMPI PUSH1 0x0 DUP1 REVERT JUMPDEST POP GAS STATICCALL ISZERO DUP1 ISZERO PUSH2 0x644 JUMPI RETURNDATASIZE PUSH1 0x0 DUP1 RETURNDATACOPY RETURNDATASIZE PUSH1 0x0 REVERT JUMPDEST POP POP POP POP PUSH1 0x40 MLOAD RETURNDATASIZE PUSH1 0x1F NOT PUSH1 0x1F DUP3 ADD AND DUP3 ADD DUP1 PUSH1 0x40 MSTORE POP DUP2 ADD SWAP1 PUSH2 0x668 SWAP2 SWAP1 PUSH2 0xFB4 JUMP JUMPDEST PUSH2 0x6A7 JUMPI PUSH1 0x40 MLOAD PUSH32 0x8C379A000000000000000000000000000000000000000000000000000000000 DUP2 MSTORE PUSH1 0x4 ADD PUSH2 0x69E SWAP1 PUSH2 0x13C6 JUMP JUMPDEST PUSH1 0x40 MLOAD DUP1 SWAP2 SUB SWAP1 REVERT JUMPDEST PUSH1 0x4 PUSH1 0x0 SWAP1 SLOAD SWAP1 PUSH2 0x100 EXP SWAP1 DIV PUSH20 0xFFFFFFFFFFFFFFFFFFFFFFFFFFFFFFFFFFFFFFFF AND PUSH20 0xFFFFFFFFFFFFFFFFFFFFFFFFFFFFFFFFFFFFFFFF AND PUSH4 0x5637B6A5 CALLER DUP8 DUP8 DUP8 DUP8 DUP8 PUSH1 0x40 MLOAD DUP8 PUSH4 0xFFFFFFFF AND PUSH1 0xE0 SHL DUP2 MSTORE PUSH1 0x4 ADD PUSH2 0x70C SWAP7 SWAP6 SWAP5 SWAP4 SWAP3 SWAP2 SWAP1 PUSH2 0x1261 JUMP JUMPDEST PUSH1 0x0 PUSH1 0x40 MLOAD DUP1 DUP4 SUB DUP2 PUSH1 0x0 DUP8 DUP1 EXTCODESIZE ISZERO DUP1 ISZERO PUSH2 0x726 JUMPI PUSH1 0x0 DUP1 REVERT JUMPDEST POP GAS CALL ISZERO DUP1 ISZERO PUSH2 0x73A JUMPI RETURNDATASIZE PUSH1 0x0 DUP1 RETURNDATACOPY RETURNDATASIZE PUSH1 0x0 REVERT JUMPDEST POP POP POP POP POP POP POP POP POP JUMP JUMPDEST PUSH1 0x0 DUP1 SLOAD SWAP1 PUSH2 0x100 EXP SWAP1 DIV PUSH20 0xFFFFFFFFFFFFFFFFFFFFFFFFFFFFFFFFFFFFFFFF AND PUSH20 0xFFFFFFFFFFFFFFFFFFFFFFFFFFFFFFFFFFFFFFFF AND PUSH4 0xB98CCEFD CALLER PUSH1 0x40 MLOAD DUP3 PUSH4 0xFFFFFFFF AND PUSH1 0xE0 SHL DUP2 MSTORE PUSH1 0x4 ADD PUSH2 0x79E SWAP2 SWAP1 PUSH2 0x10C4 JUMP JUMPDEST PUSH1 0x20 PUSH1 0x40 MLOAD DUP1 DUP4 SUB DUP2 DUP7 DUP1 EXTCODESIZE ISZERO DUP1 ISZERO PUSH2 0x7B6 JUMPI PUSH1 0x0 DUP1 REVERT JUMPDEST POP GAS STATICCALL ISZERO DUP1 ISZERO PUSH2 0x7CA JUMPI RETURNDATASIZE PUSH1 0x0 DUP1 RETURNDATACOPY RETURNDATASIZE PUSH1 0x0 REVERT JUMPDEST POP POP POP POP PUSH1 0x40 MLOAD RETURNDATASIZE PUSH1 0x1F NOT PUSH1 0x1F DUP3 ADD AND DUP3 ADD DUP1 PUSH1 0x40 MSTORE POP DUP2 ADD SWAP1 PUSH2 0x7EE SWAP2 SWAP1 PUSH2 0xFB4 JUMP JUMPDEST PUSH2 0x82D JUMPI PUSH1 0x40 MLOAD PUSH32 0x8C379A000000000000000000000000000000000000000000000000000000000 DUP2 MSTORE PUSH1 0x4 ADD PUSH2 0x824 SWAP1 PUSH2 0x13C6 JUMP JUMPDEST PUSH1 0x40 MLOAD DUP1 SWAP2 SUB SWAP1 REVERT JUMPDEST PUSH1 0x6 PUSH1 0x0 SWAP1 SLOAD SWAP1 PUSH2 0x100 EXP SWAP1 DIV PUSH20 0xFFFFFFFFFFFFFFFFFFFFFFFFFFFFFFFFFFFFFFFF AND PUSH20 0xFFFFFFFFFFFFFFFFFFFFFFFFFFFFFFFFFFFFFFFF AND PUSH4 0xCCA50940 CALLER DUP7 DUP7 DUP7 DUP7 PUSH1 0x40 MLOAD DUP7 PUSH4 0xFFFFFFFF AND PUSH1 0xE0 SHL DUP2 MSTORE PUSH1 0x4 ADD PUSH2 0x890 SWAP6 SWAP5 SWAP4 SWAP3 SWAP2 SWAP1 PUSH2 0x12C9 JUMP JUMPDEST PUSH1 0x0 PUSH1 0x40 MLOAD DUP1 DUP4 SUB DUP2 PUSH1 0x0 DUP8 DUP1 EXTCODESIZE ISZERO DUP1 ISZERO PUSH2 0x8AA JUMPI PUSH1 0x0 DUP1 REVERT JUMPDEST POP GAS CALL ISZERO DUP1 ISZERO PUSH2 0x8BE JUMPI RETURNDATASIZE PUSH1 0x0 DUP1 RETURNDATACOPY RETURNDATASIZE PUSH1 0x0 REVERT JUMPDEST POP POP POP POP POP POP POP POP JUMP JUMPDEST PUSH1 0x0 DUP1 SLOAD SWAP1 PUSH2 0x100 EXP SWAP1 DIV PUSH20 0xFFFFFFFFFFFFFFFFFFFFFFFFFFFFFFFFFFFFFFFF AND PUSH20 0xFFFFFFFFFFFFFFFFFFFFFFFFFFFFFFFFFFFFFFFF AND PUSH4 0xB98CCEFD CALLER PUSH1 0x40 MLOAD DUP3 PUSH4 0xFFFFFFFF AND PUSH1 0xE0 SHL DUP2 MSTORE PUSH1 0x4 ADD PUSH2 0x921 SWAP2 SWAP1 PUSH2 0x10C4 JUMP JUMPDEST PUSH1 0x20 PUSH1 0x40 MLOAD DUP1 DUP4 SUB DUP2 DUP7 DUP1 EXTCODESIZE ISZERO DUP1 ISZERO PUSH2 0x939 JUMPI PUSH1 0x0 DUP1 REVERT JUMPDEST POP GAS STATICCALL ISZERO DUP1 ISZERO PUSH2 0x94D JUMPI RETURNDATASIZE PUSH1 0x0 DUP1 RETURNDATACOPY RETURNDATASIZE PUSH1 0x0 REVERT JUMPDEST POP POP POP POP PUSH1 0x40 MLOAD RETURNDATASIZE PUSH1 0x1F NOT PUSH1 0x1F DUP3 ADD AND DUP3 ADD DUP1 PUSH1 0x40 MSTORE POP DUP2 ADD SWAP1 PUSH2 0x971 SWAP2 SWAP1 PUSH2 0xFB4 JUMP JUMPDEST PUSH2 0x9B0 JUMPI PUSH1 0x40 MLOAD PUSH32 0x8C379A000000000000000000000000000000000000000000000000000000000 DUP2 MSTORE PUSH1 0x4 ADD PUSH2 0x9A7 SWAP1 PUSH2 0x13C6 JUMP JUMPDEST PUSH1 0x40 MLOAD DUP1 SWAP2 SUB SWAP1 REVERT JUMPDEST PUSH1 0x5 PUSH1 0x0 SWAP1 SLOAD SWAP1 PUSH2 0x100 EXP SWAP1 DIV PUSH20 0xFFFFFFFFFFFFFFFFFFFFFFFFFFFFFFFFFFFFFFFF AND PUSH20 0xFFFFFFFFFFFFFFFFFFFFFFFFFFFFFFFFFFFFFFFF AND PUSH4 0xC2ABCE83 CALLER DUP7 DUP7 DUP7 DUP7 PUSH1 0x40 MLOAD DUP7 PUSH4 0xFFFFFFFF AND PUSH1 0xE0 SHL DUP2 MSTORE PUSH1 0x4 ADD PUSH2 0xA13 SWAP6 SWAP5 SWAP4 SWAP3 SWAP2 SWAP1 PUSH2 0x1198 JUMP JUMPDEST PUSH1 0x0 PUSH1 0x40 MLOAD DUP1 DUP4 SUB DUP2 PUSH1 0x0 DUP8 DUP1 EXTCODESIZE ISZERO DUP1 ISZERO PUSH2 0xA2D JUMPI PUSH1 0x0 DUP1 REVERT JUMPDEST POP GAS CALL ISZERO DUP1 ISZERO PUSH2 0xA41 JUMPI RETURNDATASIZE PUSH1 0x0 DUP1 RETURNDATACOPY RETURNDATASIZE PUSH1 0x0 REVERT JUMPDEST POP POP POP POP POP POP POP POP JUMP JUMPDEST PUSH1 0x0 PUSH2 0xA5E PUSH2 0xA59 DUP5 PUSH2 0x140B JUMP JUMPDEST PUSH2 0x13E6 JUMP JUMPDEST SWAP1 POP DUP3 DUP2 MSTORE PUSH1 0x20 DUP2 ADD DUP5 DUP5 DUP5 ADD GT ISZERO PUSH2 0xA7A JUMPI PUSH2 0xA79 PUSH2 0x1635 JUMP JUMPDEST JUMPDEST PUSH2 0xA85 DUP5 DUP3 DUP6 PUSH2 0x155F JUMP JUMPDEST POP SWAP4 SWAP3 POP POP POP JUMP JUMPDEST PUSH1 0x0 DUP2 CALLDATALOAD SWAP1 POP PUSH2 0xA9C DUP2 PUSH2 0x16CE JUMP JUMPDEST SWAP3 SWAP2 POP POP JUMP JUMPDEST PUSH1 0x0 DUP2 MLOAD SWAP1 POP PUSH2 0xAB1 DUP2 PUSH2 0x16E5 JUMP JUMPDEST SWAP3 SWAP2 POP POP JUMP JUMPDEST PUSH1 0x0 DUP2 CALLDATALOAD SWAP1 POP PUSH2 0xAC6 DUP2 PUSH2 0x16FC JUMP JUMPDEST SWAP3 SWAP2 POP POP JUMP JUMPDEST PUSH1 0x0 DUP2 CALLDATALOAD SWAP1 POP PUSH2 0xADB DUP2 PUSH2 0x170C JUMP JUMPDEST SWAP3 SWAP2 POP POP JUMP JUMPDEST PUSH1 0x0 DUP2 CALLDATALOAD SWAP1 POP PUSH2 0xAF0 DUP2 PUSH2 0x171C JUMP JUMPDEST SWAP3 SWAP2 POP POP JUMP JUMPDEST PUSH1 0x0 DUP2 CALLDATALOAD SWAP1 POP PUSH2 0xB05 DUP2 PUSH2 0x172C JUMP JUMPDEST SWAP3 SWAP2 POP POP JUMP JUMPDEST PUSH1 0x0 DUP3 PUSH1 0x1F DUP4 ADD SLT PUSH2 0xB20 JUMPI PUSH2 0xB1F PUSH2 0x1630 JUMP JUMPDEST JUMPDEST DUP2 CALLDATALOAD PUSH2 0xB30 DUP5 DUP3 PUSH1 0x20 DUP7 ADD PUSH2 0xA4B JUMP JUMPDEST SWAP2 POP POP SWAP3 SWAP2 POP POP JUMP JUMPDEST PUSH1 0x0 DUP2 CALLDATALOAD SWAP1 POP PUSH2 0xB48 DUP2 PUSH2 0x173C JUMP JUMPDEST SWAP3 SWAP2 POP POP JUMP JUMPDEST PUSH1 0x0 DUP2 CALLDATALOAD SWAP1 POP PUSH2 0xB5D DUP2 PUSH2 0x1753 JUMP JUMPDEST SWAP3 SWAP2 POP POP JUMP JUMPDEST PUSH1 0x0 DUP2 CALLDATALOAD SWAP1 POP PUSH2 0xB72 DUP2 PUSH2 0x176A JUMP JUMPDEST SWAP3 SWAP2 POP POP JUMP JUMPDEST PUSH1 0x0 DUP2 CALLDATALOAD SWAP1 POP PUSH2 0xB87 DUP2 PUSH2 0x1781 JUMP JUMPDEST SWAP3 SWAP2 POP POP JUMP JUMPDEST PUSH1 0x0 DUP1 PUSH1 0x0 DUP1 PUSH1 0x0 DUP1 PUSH1 0x0 DUP1 PUSH1 0x0 DUP1 PUSH2 0x140 DUP12 DUP14 SUB SLT ISZERO PUSH2 0xBB1 JUMPI PUSH2 0xBB0 PUSH2 0x163F JUMP JUMPDEST JUMPDEST PUSH1 0x0 PUSH2 0xBBF DUP14 DUP3 DUP15 ADD PUSH2 0xA8D JUMP JUMPDEST SWAP11 POP POP PUSH1 0x20 PUSH2 0xBD0 DUP14 DUP3 DUP15 ADD PUSH2 0xACC JUMP JUMPDEST SWAP10 POP POP PUSH1 0x40 PUSH2 0xBE1 DUP14 DUP3 DUP15 ADD PUSH2 0xB4E JUMP JUMPDEST SWAP9 POP POP PUSH1 0x60 PUSH2 0xBF2 DUP14 DUP3 DUP15 ADD PUSH2 0xB4E JUMP JUMPDEST SWAP8 POP POP PUSH1 0x80 DUP12 ADD CALLDATALOAD PUSH8 0xFFFFFFFFFFFFFFFF DUP2 GT ISZERO PUSH2 0xC13 JUMPI PUSH2 0xC12 PUSH2 0x163A JUMP JUMPDEST JUMPDEST PUSH2 0xC1F DUP14 DUP3 DUP15 ADD PUSH2 0xB0B JUMP JUMPDEST SWAP7 POP POP PUSH1 0xA0 DUP12 ADD CALLDATALOAD PUSH8 0xFFFFFFFFFFFFFFFF DUP2 GT ISZERO PUSH2 0xC40 JUMPI PUSH2 0xC3F PUSH2 0x163A JUMP JUMPDEST JUMPDEST PUSH2 0xC4C DUP14 DUP3 DUP15 ADD PUSH2 0xB0B JUMP JUMPDEST SWAP6 POP POP PUSH1 0xC0 PUSH2 0xC5D DUP14 DUP3 DUP15 ADD PUSH2 0xA8D JUMP JUMPDEST SWAP5 POP POP PUSH1 0xE0 PUSH2 0xC6E DUP14 DUP3 DUP15 ADD PUSH2 0xB39 JUMP JUMPDEST SWAP4 POP POP PUSH2 0x100 PUSH2 0xC80 DUP14 DUP3 DUP15 ADD PUSH2 0xB39 JUMP JUMPDEST SWAP3 POP POP PUSH2 0x120 PUSH2 0xC92 DUP14 DUP3 DUP15 ADD PUSH2 0xAE1 JUMP JUMPDEST SWAP2 POP POP SWAP3 SWAP6 SWAP9 SWAP12 SWAP2 SWAP5 SWAP8 SWAP11 POP SWAP3 SWAP6 SWAP9 POP JUMP JUMPDEST PUSH1 0x0 DUP1 PUSH1 0x0 DUP1 PUSH1 0x80 DUP6 DUP8 SUB SLT ISZERO PUSH2 0xCBE JUMPI PUSH2 0xCBD PUSH2 0x163F JUMP JUMPDEST JUMPDEST PUSH1 0x0 PUSH2 0xCCC DUP8 DUP3 DUP9 ADD PUSH2 0xA8D JUMP JUMPDEST SWAP5 POP POP PUSH1 0x20 PUSH2 0xCDD DUP8 DUP3 DUP9 ADD PUSH2 0xB4E JUMP JUMPDEST SWAP4 POP POP PUSH1 0x40 DUP6 ADD CALLDATALOAD PUSH8 0xFFFFFFFFFFFFFFFF DUP2 GT ISZERO PUSH2 0xCFE JUMPI PUSH2 0xCFD PUSH2 0x163A JUMP JUMPDEST JUMPDEST PUSH2 0xD0A DUP8 DUP3 DUP9 ADD PUSH2 0xB0B JUMP JUMPDEST SWAP3 POP POP PUSH1 0x60 PUSH2 0xD1B DUP8 DUP3 DUP9 ADD PUSH2 0xAF6 JUMP JUMPDEST SWAP2 POP POP SWAP3 SWAP6 SWAP2 SWAP5 POP SWAP3 POP JUMP JUMPDEST PUSH1 0x0 DUP1 PUSH1 0x0 DUP1 PUSH1 0x0 DUP1 PUSH1 0xC0 DUP8 DUP10 SUB SLT ISZERO PUSH2 0xD44 JUMPI PUSH2 0xD43 PUSH2 0x163F JUMP JUMPDEST JUMPDEST PUSH1 0x0 PUSH2 0xD52 DUP10 DUP3 DUP11 ADD PUSH2 0xA8D JUMP JUMPDEST SWAP7 POP POP PUSH1 0x20 PUSH2 0xD63 DUP10 DUP3 DUP11 ADD PUSH2 0xB4E JUMP JUMPDEST SWAP6 POP POP PUSH1 0x40 PUSH2 0xD74 DUP10 DUP3 DUP11 ADD PUSH2 0xB4E JUMP JUMPDEST SWAP5 POP POP PUSH1 0x60 PUSH2 0xD85 DUP10 DUP3 DUP11 ADD PUSH2 0xAE1 JUMP JUMPDEST SWAP4 POP POP PUSH1 0x80 PUSH2 0xD96 DUP10 DUP3 DUP11 ADD PUSH2 0xB63 JUMP JUMPDEST SWAP3 POP POP PUSH1 0xA0 PUSH2 0xDA7 DUP10 DUP3 DUP11 ADD PUSH2 0xAF6 JUMP JUMPDEST SWAP2 POP POP SWAP3 SWAP6 POP SWAP3 SWAP6 POP SWAP3 SWAP6 JUMP JUMPDEST PUSH1 0x0 DUP1 PUSH1 0x0 DUP1 PUSH1 0x0 PUSH1 0xA0 DUP7 DUP9 SUB SLT ISZERO PUSH2 0xDD0 JUMPI PUSH2 0xDCF PUSH2 0x163F JUMP JUMPDEST JUMPDEST PUSH1 0x0 PUSH2 0xDDE DUP9 DUP3 DUP10 ADD PUSH2 0xA8D JUMP JUMPDEST SWAP6 POP POP PUSH1 0x20 PUSH2 0xDEF DUP9 DUP3 DUP10 ADD PUSH2 0xB4E JUMP JUMPDEST SWAP5 POP POP PUSH1 0x40 PUSH2 0xE00 DUP9 DUP3 DUP10 ADD PUSH2 0xB4E JUMP JUMPDEST SWAP4 POP POP PUSH1 0x60 PUSH2 0xE11 DUP9 DUP3 DUP10 ADD PUSH2 0xB78 JUMP JUMPDEST SWAP3 POP POP PUSH1 0x80 DUP7 ADD CALLDATALOAD PUSH8 0xFFFFFFFFFFFFFFFF DUP2 GT ISZERO PUSH2 0xE32 JUMPI PUSH2 0xE31 PUSH2 0x163A JUMP JUMPDEST JUMPDEST PUSH2 0xE3E DUP9 DUP3 DUP10 ADD PUSH2 0xB0B JUMP JUMPDEST SWAP2 POP POP SWAP3 SWAP6 POP SWAP3 SWAP6 SWAP1 SWAP4 POP JUMP JUMPDEST PUSH1 0x0 DUP1 PUSH1 0x0 DUP1 PUSH1 0x80 DUP6 DUP8 SUB SLT ISZERO PUSH2 0xE65 JUMPI PUSH2 0xE64 PUSH2 0x163F JUMP JUMPDEST JUMPDEST PUSH1 0x0 PUSH2 0xE73 DUP8 DUP3 DUP9 ADD PUSH2 0xA8D JUMP JUMPDEST SWAP5 POP POP PUSH1 0x20 PUSH2 0xE84 DUP8 DUP3 DUP9 ADD PUSH2 0xB4E JUMP JUMPDEST SWAP4 POP POP PUSH1 0x40 PUSH2 0xE95 DUP8 DUP3 DUP9 ADD PUSH2 0xB78 JUMP JUMPDEST SWAP3 POP POP PUSH1 0x60 DUP6 ADD CALLDATALOAD PUSH8 0xFFFFFFFFFFFFFFFF DUP2 GT ISZERO PUSH2 0xEB6 JUMPI PUSH2 0xEB5 PUSH2 0x163A JUMP JUMPDEST JUMPDEST PUSH2 0xEC2 DUP8 DUP3 DUP9 ADD PUSH2 0xB0B JUMP JUMPDEST SWAP2 POP POP SWAP3 SWAP6 SWAP2 SWAP5 POP SWAP3 POP JUMP JUMPDEST PUSH1 0x0 DUP1 PUSH1 0x0 DUP1 PUSH1 0x0 DUP1 PUSH1 0x0 DUP1 PUSH1 0x0 PUSH2 0x120 DUP11 DUP13 SUB SLT ISZERO PUSH2 0xEF1 JUMPI PUSH2 0xEF0 PUSH2 0x163F JUMP JUMPDEST JUMPDEST PUSH1 0x0 PUSH2 0xEFF DUP13 DUP3 DUP14 ADD PUSH2 0xA8D JUMP JUMPDEST SWAP10 POP POP PUSH1 0x20 PUSH2 0xF10 DUP13 DUP3 DUP14 ADD PUSH2 0xB63 JUMP JUMPDEST SWAP9 POP POP PUSH1 0x40 PUSH2 0xF21 DUP13 DUP3 DUP14 ADD PUSH2 0xB78 JUMP JUMPDEST SWAP8 POP POP PUSH1 0x60 PUSH2 0xF32 DUP13 DUP3 DUP14 ADD PUSH2 0xAB7 JUMP JUMPDEST SWAP7 POP POP PUSH1 0x80 DUP11 ADD CALLDATALOAD PUSH8 0xFFFFFFFFFFFFFFFF DUP2 GT ISZERO PUSH2 0xF53 JUMPI PUSH2 0xF52 PUSH2 0x163A JUMP JUMPDEST JUMPDEST PUSH2 0xF5F DUP13 DUP3 DUP14 ADD PUSH2 0xB0B JUMP JUMPDEST SWAP6 POP POP PUSH1 0xA0 PUSH2 0xF70 DUP13 DUP3 DUP14 ADD PUSH2 0xB4E JUMP JUMPDEST SWAP5 POP POP PUSH1 0xC0 PUSH2 0xF81 DUP13 DUP3 DUP14 ADD PUSH2 0xB4E JUMP JUMPDEST SWAP4 POP POP PUSH1 0xE0 PUSH2 0xF92 DUP13 DUP3 DUP14 ADD PUSH2 0xB78 JUMP JUMPDEST SWAP3 POP POP PUSH2 0x100 PUSH2 0xFA4 DUP13 DUP3 DUP14 ADD PUSH2 0xB63 JUMP JUMPDEST SWAP2 POP POP SWAP3 SWAP6 SWAP9 POP SWAP3 SWAP6 SWAP9 POP SWAP3 SWAP6 SWAP9 JUMP JUMPDEST PUSH1 0x0 PUSH1 0x20 DUP3 DUP5 SUB SLT ISZERO PUSH2 0xFCA JUMPI PUSH2 0xFC9 PUSH2 0x163F JUMP JUMPDEST JUMPDEST PUSH1 0x0 PUSH2 0xFD8 DUP5 DUP3 DUP6 ADD PUSH2 0xAA2 JUMP JUMPDEST SWAP2 POP POP SWAP3 SWAP2 POP POP JUMP JUMPDEST PUSH2 0xFEA DUP2 PUSH2 0x1458 JUMP JUMPDEST DUP3 MSTORE POP POP JUMP JUMPDEST PUSH2 0xFF9 DUP2 PUSH2 0x1517 JUMP JUMPDEST DUP3 MSTORE POP POP JUMP JUMPDEST PUSH2 0x1008 DUP2 PUSH2 0x1529 JUMP JUMPDEST DUP3 MSTORE POP POP JUMP JUMPDEST PUSH2 0x1017 DUP2 PUSH2 0x153B JUMP JUMPDEST DUP3 MSTORE POP POP JUMP JUMPDEST PUSH2 0x1026 DUP2 PUSH2 0x154D JUMP JUMPDEST DUP3 MSTORE POP POP JUMP JUMPDEST PUSH1 0x0 PUSH2 0x1037 DUP3 PUSH2 0x143C JUMP JUMPDEST PUSH2 0x1041 DUP2 DUP6 PUSH2 0x1447 JUMP JUMPDEST SWAP4 POP PUSH2 0x1051 DUP2 DUP6 PUSH1 0x20 DUP7 ADD PUSH2 0x156E JUMP JUMPDEST PUSH2 0x105A DUP2 PUSH2 0x1644 JUMP JUMPDEST DUP5 ADD SWAP2 POP POP SWAP3 SWAP2 POP POP JUMP JUMPDEST PUSH1 0x0 PUSH2 0x1072 PUSH1 0x20 DUP4 PUSH2 0x1447 JUMP JUMPDEST SWAP2 POP PUSH2 0x107D DUP3 PUSH2 0x1655 JUMP JUMPDEST PUSH1 0x20 DUP3 ADD SWAP1 POP SWAP2 SWAP1 POP JUMP JUMPDEST PUSH2 0x1091 DUP2 PUSH2 0x14C2 JUMP JUMPDEST DUP3 MSTORE POP POP JUMP JUMPDEST PUSH2 0x10A0 DUP2 PUSH2 0x14F0 JUMP JUMPDEST DUP3 MSTORE POP POP JUMP JUMPDEST PUSH2 0x10AF DUP2 PUSH2 0x14FA JUMP JUMPDEST DUP3 MSTORE POP POP JUMP JUMPDEST PUSH2 0x10BE DUP2 PUSH2 0x150A JUMP JUMPDEST DUP3 MSTORE POP POP JUMP JUMPDEST PUSH1 0x0 PUSH1 0x20 DUP3 ADD SWAP1 POP PUSH2 0x10D9 PUSH1 0x0 DUP4 ADD DUP5 PUSH2 0xFE1 JUMP JUMPDEST SWAP3 SWAP2 POP POP JUMP JUMPDEST PUSH1 0x0 PUSH2 0x160 DUP3 ADD SWAP1 POP PUSH2 0x10F5 PUSH1 0x0 DUP4 ADD DUP15 PUSH2 0xFE1 JUMP JUMPDEST PUSH2 0x1102 PUSH1 0x20 DUP4 ADD DUP14 PUSH2 0xFE1 JUMP JUMPDEST PUSH2 0x110F PUSH1 0x40 DUP4 ADD DUP13 PUSH2 0xFFF JUMP JUMPDEST PUSH2 0x111C PUSH1 0x60 DUP4 ADD DUP12 PUSH2 0x1097 JUMP JUMPDEST PUSH2 0x1129 PUSH1 0x80 DUP4 ADD DUP11 PUSH2 0x1097 JUMP JUMPDEST DUP2 DUP2 SUB PUSH1 0xA0 DUP4 ADD MSTORE PUSH2 0x113B DUP2 DUP10 PUSH2 0x102C JUMP JUMPDEST SWAP1 POP DUP2 DUP2 SUB PUSH1 0xC0 DUP4 ADD MSTORE PUSH2 0x114F DUP2 DUP9 PUSH2 0x102C JUMP JUMPDEST SWAP1 POP PUSH2 0x115E PUSH1 0xE0 DUP4 ADD DUP8 PUSH2 0xFE1 JUMP JUMPDEST PUSH2 0x116C PUSH2 0x100 DUP4 ADD DUP7 PUSH2 0x1088 JUMP JUMPDEST PUSH2 0x117A PUSH2 0x120 DUP4 ADD DUP6 PUSH2 0x1088 JUMP JUMPDEST PUSH2 0x1188 PUSH2 0x140 DUP4 ADD DUP5 PUSH2 0x100E JUMP JUMPDEST SWAP13 SWAP12 POP POP POP POP POP POP POP POP POP POP POP POP JUMP JUMPDEST PUSH1 0x0 PUSH1 0xA0 DUP3 ADD SWAP1 POP PUSH2 0x11AD PUSH1 0x0 DUP4 ADD DUP9 PUSH2 0xFE1 JUMP JUMPDEST PUSH2 0x11BA PUSH1 0x20 DUP4 ADD DUP8 PUSH2 0xFE1 JUMP JUMPDEST PUSH2 0x11C7 PUSH1 0x40 DUP4 ADD DUP7 PUSH2 0x1097 JUMP JUMPDEST DUP2 DUP2 SUB PUSH1 0x60 DUP4 ADD MSTORE PUSH2 0x11D9 DUP2 DUP6 PUSH2 0x102C JUMP JUMPDEST SWAP1 POP PUSH2 0x11E8 PUSH1 0x80 DUP4 ADD DUP5 PUSH2 0x101D JUMP JUMPDEST SWAP7 SWAP6 POP POP POP POP POP POP JUMP JUMPDEST PUSH1 0x0 PUSH1 0xE0 DUP3 ADD SWAP1 POP PUSH2 0x1207 PUSH1 0x0 DUP4 ADD DUP11 PUSH2 0xFE1 JUMP JUMPDEST PUSH2 0x1214 PUSH1 0x20 DUP4 ADD DUP10 PUSH2 0xFE1 JUMP JUMPDEST PUSH2 0x1221 PUSH1 0x40 DUP4 ADD DUP9 PUSH2 0x1097 JUMP JUMPDEST PUSH2 0x122E PUSH1 0x60 DUP4 ADD DUP8 PUSH2 0x1097 JUMP JUMPDEST PUSH2 0x123B PUSH1 0x80 DUP4 ADD DUP7 PUSH2 0x100E JUMP JUMPDEST PUSH2 0x1248 PUSH1 0xA0 DUP4 ADD DUP6 PUSH2 0x10A6 JUMP JUMPDEST PUSH2 0x1255 PUSH1 0xC0 DUP4 ADD DUP5 PUSH2 0x101D JUMP JUMPDEST SWAP9 SWAP8 POP POP POP POP POP POP POP POP JUMP JUMPDEST PUSH1 0x0 PUSH1 0xC0 DUP3 ADD SWAP1 POP PUSH2 0x1276 PUSH1 0x0 DUP4 ADD DUP10 PUSH2 0xFE1 JUMP JUMPDEST PUSH2 0x1283 PUSH1 0x20 DUP4 ADD DUP9 PUSH2 0xFE1 JUMP JUMPDEST PUSH2 0x1290 PUSH1 0x40 DUP4 ADD DUP8 PUSH2 0x1097 JUMP JUMPDEST PUSH2 0x129D PUSH1 0x60 DUP4 ADD DUP7 PUSH2 0x1097 JUMP JUMPDEST PUSH2 0x12AA PUSH1 0x80 DUP4 ADD DUP6 PUSH2 0x10B5 JUMP JUMPDEST DUP2 DUP2 SUB PUSH1 0xA0 DUP4 ADD MSTORE PUSH2 0x12BC DUP2 DUP5 PUSH2 0x102C JUMP JUMPDEST SWAP1 POP SWAP8 SWAP7 POP POP POP POP POP POP POP JUMP JUMPDEST PUSH1 0x0 PUSH1 0xA0 DUP3 ADD SWAP1 POP PUSH2 0x12DE PUSH1 0x0 DUP4 ADD DUP9 PUSH2 0xFE1 JUMP JUMPDEST PUSH2 0x12EB PUSH1 0x20 DUP4 ADD DUP8 PUSH2 0xFE1 JUMP JUMPDEST PUSH2 0x12F8 PUSH1 0x40 DUP4 ADD DUP7 PUSH2 0x1097 JUMP JUMPDEST PUSH2 0x1305 PUSH1 0x60 DUP4 ADD DUP6 PUSH2 0x10B5 JUMP JUMPDEST DUP2 DUP2 SUB PUSH1 0x80 DUP4 ADD MSTORE PUSH2 0x1317 DUP2 DUP5 PUSH2 0x102C JUMP JUMPDEST SWAP1 POP SWAP7 SWAP6 POP POP POP POP POP POP JUMP JUMPDEST PUSH1 0x0 PUSH2 0x140 DUP3 ADD SWAP1 POP PUSH2 0x1339 PUSH1 0x0 DUP4 ADD DUP14 PUSH2 0xFE1 JUMP JUMPDEST PUSH2 0x1346 PUSH1 0x20 DUP4 ADD DUP13 PUSH2 0xFE1 JUMP JUMPDEST PUSH2 0x1353 PUSH1 0x40 DUP4 ADD DUP12 PUSH2 0x10A6 JUMP JUMPDEST PUSH2 0x1360 PUSH1 0x60 DUP4 ADD DUP11 PUSH2 0x10B5 JUMP JUMPDEST PUSH2 0x136D PUSH1 0x80 DUP4 ADD DUP10 PUSH2 0xFF0 JUMP JUMPDEST DUP2 DUP2 SUB PUSH1 0xA0 DUP4 ADD MSTORE PUSH2 0x137F DUP2 DUP9 PUSH2 0x102C JUMP JUMPDEST SWAP1 POP PUSH2 0x138E PUSH1 0xC0 DUP4 ADD DUP8 PUSH2 0x1097 JUMP JUMPDEST PUSH2 0x139B PUSH1 0xE0 DUP4 ADD DUP7 PUSH2 0x1097 JUMP JUMPDEST PUSH2 0x13A9 PUSH2 0x100 DUP4 ADD DUP6 PUSH2 0x10B5 JUMP JUMPDEST PUSH2 0x13B7 PUSH2 0x120 DUP4 ADD DUP5 PUSH2 0x10A6 JUMP JUMPDEST SWAP12 SWAP11 POP POP POP POP POP POP POP POP POP POP POP JUMP JUMPDEST PUSH1 0x0 PUSH1 0x20 DUP3 ADD SWAP1 POP DUP2 DUP2 SUB PUSH1 0x0 DUP4 ADD MSTORE PUSH2 0x13DF DUP2 PUSH2 0x1065 JUMP JUMPDEST SWAP1 POP SWAP2 SWAP1 POP JUMP JUMPDEST PUSH1 0x0 PUSH2 0x13F0 PUSH2 0x1401 JUMP JUMPDEST SWAP1 POP PUSH2 0x13FC DUP3 DUP3 PUSH2 0x15A1 JUMP JUMPDEST SWAP2 SWAP1 POP JUMP JUMPDEST PUSH1 0x0 PUSH1 0x40 MLOAD SWAP1 POP SWAP1 JUMP JUMPDEST PUSH1 0x0 PUSH8 0xFFFFFFFFFFFFFFFF DUP3 GT ISZERO PUSH2 0x1426 JUMPI PUSH2 0x1425 PUSH2 0x1601 JUMP JUMPDEST JUMPDEST PUSH2 0x142F DUP3 PUSH2 0x1644 JUMP JUMPDEST SWAP1 POP PUSH1 0x20 DUP2 ADD SWAP1 POP SWAP2 SWAP1 POP JUMP JUMPDEST PUSH1 0x0 DUP2 MLOAD SWAP1 POP SWAP2 SWAP1 POP JUMP JUMPDEST PUSH1 0x0 DUP3 DUP3 MSTORE PUSH1 0x20 DUP3 ADD SWAP1 POP SWAP3 SWAP2 POP POP JUMP JUMPDEST PUSH1 0x0 PUSH2 0x1463 DUP3 PUSH2 0x14D0 JUMP JUMPDEST SWAP1 POP SWAP2 SWAP1 POP JUMP JUMPDEST PUSH1 0x0 DUP2 ISZERO ISZERO SWAP1 POP SWAP2 SWAP1 POP JUMP JUMPDEST PUSH1 0x0 DUP2 SWAP1 POP PUSH2 0x1484 DUP3 PUSH2 0x167E JUMP JUMPDEST SWAP2 SWAP1 POP JUMP JUMPDEST PUSH1 0x0 DUP2 SWAP1 POP PUSH2 0x1497 DUP3 PUSH2 0x1692 JUMP JUMPDEST SWAP2 SWAP1 POP JUMP JUMPDEST PUSH1 0x0 DUP2 SWAP1 POP PUSH2 0x14AA DUP3 PUSH2 0x16A6 JUMP JUMPDEST SWAP2 SWAP1 POP JUMP JUMPDEST PUSH1 0x0 DUP2 SWAP1 POP PUSH2 0x14BD DUP3 PUSH2 0x16BA JUMP JUMPDEST SWAP2 SWAP1 POP JUMP JUMPDEST PUSH1 0x0 PUSH2 0xFFFF DUP3 AND SWAP1 POP SWAP2 SWAP1 POP JUMP JUMPDEST PUSH1 0x0 PUSH20 0xFFFFFFFFFFFFFFFFFFFFFFFFFFFFFFFFFFFFFFFF DUP3 AND SWAP1 POP SWAP2 SWAP1 POP JUMP JUMPDEST PUSH1 0x0 DUP2 SWAP1 POP SWAP2 SWAP1 POP JUMP JUMPDEST PUSH1 0x0 PUSH4 0xFFFFFFFF DUP3 AND SWAP1 POP SWAP2 SWAP1 POP JUMP JUMPDEST PUSH1 0x0 PUSH1 0xFF DUP3 AND SWAP1 POP SWAP2 SWAP1 POP JUMP JUMPDEST PUSH1 0x0 PUSH2 0x1522 DUP3 PUSH2 0x1476 JUMP JUMPDEST SWAP1 POP SWAP2 SWAP1 POP JUMP JUMPDEST PUSH1 0x0 PUSH2 0x1534 DUP3 PUSH2 0x1489 JUMP JUMPDEST SWAP1 POP SWAP2 SWAP1 POP JUMP JUMPDEST PUSH1 0x0 PUSH2 0x1546 DUP3 PUSH2 0x149C JUMP JUMPDEST SWAP1 POP SWAP2 SWAP1 POP JUMP JUMPDEST PUSH1 0x0 PUSH2 0x1558 DUP3 PUSH2 0x14AF JUMP JUMPDEST SWAP1 POP SWAP2 SWAP1 POP JUMP JUMPDEST DUP3 DUP2 DUP4 CALLDATACOPY PUSH1 0x0 DUP4 DUP4 ADD MSTORE POP POP POP JUMP JUMPDEST PUSH1 0x0 JUMPDEST DUP4 DUP2 LT ISZERO PUSH2 0x158C JUMPI DUP1 DUP3 ADD MLOAD DUP2 DUP5 ADD MSTORE PUSH1 0x20 DUP2 ADD SWAP1 POP PUSH2 0x1571 JUMP JUMPDEST DUP4 DUP2 GT ISZERO PUSH2 0x159B JUMPI PUSH1 0x0 DUP5 DUP5 ADD MSTORE JUMPDEST POP POP POP POP JUMP JUMPDEST PUSH2 0x15AA DUP3 PUSH2 0x1644 JUMP JUMPDEST DUP2 ADD DUP2 DUP2 LT PUSH8 0xFFFFFFFFFFFFFFFF DUP3 GT OR ISZERO PUSH2 0x15C9 JUMPI PUSH2 0x15C8 PUSH2 0x1601 JUMP JUMPDEST JUMPDEST DUP1 PUSH1 0x40 MSTORE POP POP POP JUMP JUMPDEST PUSH32 0x4E487B7100000000000000000000000000000000000000000000000000000000 PUSH1 0x0 MSTORE PUSH1 0x21 PUSH1 0x4 MSTORE PUSH1 0x24 PUSH1 0x0 REVERT JUMPDEST PUSH32 0x4E487B7100000000000000000000000000000000000000000000000000000000 PUSH1 0x0 MSTORE PUSH1 0x41 PUSH1 0x4 MSTORE PUSH1 0x24 PUSH1 0x0 REVERT JUMPDEST PUSH1 0x0 DUP1 REVERT JUMPDEST PUSH1 0x0 DUP1 REVERT JUMPDEST PUSH1 0x0 DUP1 REVERT JUMPDEST PUSH1 0x0 DUP1 REVERT JUMPDEST PUSH1 0x0 PUSH1 0x1F NOT PUSH1 0x1F DUP4 ADD AND SWAP1 POP SWAP2 SWAP1 POP JUMP JUMPDEST PUSH32 0x42752069736C656D6920736164656365204B697369207961706162696C69722E PUSH1 0x0 DUP3 ADD MSTORE POP JUMP JUMPDEST PUSH1 0x3 DUP2 LT PUSH2 0x168F JUMPI PUSH2 0x168E PUSH2 0x15D2 JUMP JUMPDEST JUMPDEST POP JUMP JUMPDEST PUSH1 0x4 DUP2 LT PUSH2 0x16A3 JUMPI PUSH2 0x16A2 PUSH2 0x15D2 JUMP JUMPDEST JUMPDEST POP JUMP JUMPDEST PUSH1 0x4 DUP2 LT PUSH2 0x16B7 JUMPI PUSH2 0x16B6 PUSH2 0x15D2 JUMP JUMPDEST JUMPDEST POP JUMP JUMPDEST PUSH1 0x4 DUP2 LT PUSH2 0x16CB JUMPI PUSH2 0x16CA PUSH2 0x15D2 JUMP JUMPDEST JUMPDEST POP JUMP JUMPDEST PUSH2 0x16D7 DUP2 PUSH2 0x1458 JUMP JUMPDEST DUP2 EQ PUSH2 0x16E2 JUMPI PUSH1 0x0 DUP1 REVERT JUMPDEST POP JUMP JUMPDEST PUSH2 0x16EE DUP2 PUSH2 0x146A JUMP JUMPDEST DUP2 EQ PUSH2 0x16F9 JUMPI PUSH1 0x0 DUP1 REVERT JUMPDEST POP JUMP JUMPDEST PUSH1 0x3 DUP2 LT PUSH2 0x1709 JUMPI PUSH1 0x0 DUP1 REVERT JUMPDEST POP JUMP JUMPDEST PUSH1 0x4 DUP2 LT PUSH2 0x1719 JUMPI PUSH1 0x0 DUP1 REVERT JUMPDEST POP JUMP JUMPDEST PUSH1 0x4 DUP2 LT PUSH2 0x1729 JUMPI PUSH1 0x0 DUP1 REVERT JUMPDEST POP JUMP JUMPDEST PUSH1 0x4 DUP2 LT PUSH2 0x1739 JUMPI PUSH1 0x0 DUP1 REVERT JUMPDEST POP JUMP JUMPDEST PUSH2 0x1745 DUP2 PUSH2 0x14C2 JUMP JUMPDEST DUP2 EQ PUSH2 0x1750 JUMPI PUSH1 0x0 DUP1 REVERT JUMPDEST POP JUMP JUMPDEST PUSH2 0x175C DUP2 PUSH2 0x14F0 JUMP JUMPDEST DUP2 EQ PUSH2 0x1767 JUMPI PUSH1 0x0 DUP1 REVERT JUMPDEST POP JUMP JUMPDEST PUSH2 0x1773 DUP2 PUSH2 0x14FA JUMP JUMPDEST DUP2 EQ PUSH2 0x177E JUMPI PUSH1 0x0 DUP1 REVERT JUMPDEST POP JUMP JUMPDEST PUSH2 0x178A DUP2 PUSH2 0x150A JUMP JUMPDEST DUP2 EQ PUSH2 0x1795 JUMPI PUSH1 0x0 DUP1 REVERT JUMPDEST POP JUMP INVALID LOG2 PUSH5 0x6970667358 0x22 SLT KECCAK256 CALLER STOP DUP2 STOP PUSH22 0x171E2F0D38FF7B97DF1226A64B17802D97CA180D6587 0xE0 PUSH31 0x473BB464736F6C634300080700330000000000000000000000000000000000 "
		},
		"gasEstimates": {
			"creation": {
				"codeDepositCost": "1218800",
				"executionCost": "infinite",
				"totalCost": "infinite"
			},
			"external": {
				"talepEtCalismaBilgi(address,uint32,uint8,uint8,string,uint256,uint256,uint8,uint32)": "infinite",
				"talepEtEgitimBilgi(address,uint8,uint256,uint256,string,string,address,uint16,uint16,uint8)": "infinite",
				"talepEtKursBilgi(address,uint256,uint256,uint8,string)": "infinite",
				"talepEtNitelikBilgi(address,uint256,string,uint8)": "infinite",
				"talepEtSertifikaBilgi(address,uint256,uint8,string)": "infinite",
				"talepEtYabanciDilBilgi(address,uint256,uint256,uint8,uint32,uint8)": "infinite"
			}
		},
		"methodIdentifiers": {
			"talepEtCalismaBilgi(address,uint32,uint8,uint8,string,uint256,uint256,uint8,uint32)": "035963ce",
			"talepEtEgitimBilgi(address,uint8,uint256,uint256,string,string,address,uint16,uint16,uint8)": "756d4f9f",
			"talepEtKursBilgi(address,uint256,uint256,uint8,string)": "98522fd6",
			"talepEtNitelikBilgi(address,uint256,string,uint8)": "fb887b89",
			"talepEtSertifikaBilgi(address,uint256,uint8,string)": "aa18710d",
			"talepEtYabanciDilBilgi(address,uint256,uint256,uint8,uint32,uint8)": "011c05e1"
		}
	},
	"abi": [
		{
			"inputs": [
				{
					"internalType": "address",
					"name": "_baseKontrati",
					"type": "address"
				},
				{
					"internalType": "address",
					"name": "_egitimKontrati",
					"type": "address"
				},
				{
					"internalType": "address",
					"name": "_calismaKontrati",
					"type": "address"
				},
				{
					"internalType": "address",
					"name": "_yabanciDilKontrati",
					"type": "address"
				},
				{
					"internalType": "address",
					"name": "_kursKontrati",
					"type": "address"
				},
				{
					"internalType": "address",
					"name": "_nitelikKontrati",
					"type": "address"
				},
				{
					"internalType": "address",
					"name": "_sertifikaKontrati",
					"type": "address"
				}
			],
			"stateMutability": "nonpayable",
			"type": "constructor"
		},
		{
			"inputs": [
				{
					"internalType": "address",
					"name": "_talepEdilenKurum",
					"type": "address"
				},
				{
					"internalType": "uint32",
					"name": "pozisyon",
					"type": "uint32"
				},
				{
					"internalType": "uint8",
					"name": "sektor",
					"type": "uint8"
				},
				{
					"internalType": "enum BaseProperties.CalismaTipi",
					"name": "calismaTipi",
					"type": "uint8"
				},
				{
					"internalType": "string",
					"name": "isAciklama",
					"type": "string"
				},
				{
					"internalType": "uint256",
					"name": "basTarih",
					"type": "uint256"
				},
				{
					"internalType": "uint256",
					"name": "bitTarih",
					"type": "uint256"
				},
				{
					"internalType": "uint8",
					"name": "ulke",
					"type": "uint8"
				},
				{
					"internalType": "uint32",
					"name": "sehir",
					"type": "uint32"
				}
			],
			"name": "talepEtCalismaBilgi",
			"outputs": [],
			"stateMutability": "nonpayable",
			"type": "function"
		},
		{
			"inputs": [
				{
					"internalType": "address",
					"name": "_talepEdilenKurum",
					"type": "address"
				},
				{
					"internalType": "enum BaseProperties.EgitimDurumu",
					"name": "egitimDurumu",
					"type": "uint8"
				},
				{
					"internalType": "uint256",
					"name": "basTarih",
					"type": "uint256"
				},
				{
					"internalType": "uint256",
					"name": "bitTarih",
					"type": "uint256"
				},
				{
					"internalType": "string",
					"name": "diplomaBelge",
					"type": "string"
				},
				{
					"internalType": "string",
					"name": "transcriptBelge",
					"type": "string"
				},
				{
					"internalType": "address",
					"name": "universite",
					"type": "address"
				},
				{
					"internalType": "uint16",
					"name": "fakulte",
					"type": "uint16"
				},
				{
					"internalType": "uint16",
					"name": "bolum",
					"type": "uint16"
				},
				{
					"internalType": "enum BaseProperties.OgretimTipi",
					"name": "ogretimTipi",
					"type": "uint8"
				}
			],
			"name": "talepEtEgitimBilgi",
			"outputs": [],
			"stateMutability": "nonpayable",
			"type": "function"
		},
		{
			"inputs": [
				{
					"internalType": "address",
					"name": "_talepEdilenKurum",
					"type": "address"
				},
				{
					"internalType": "uint256",
					"name": "basTarih",
					"type": "uint256"
				},
				{
					"internalType": "uint256",
					"name": "bitTarih",
					"type": "uint256"
				},
				{
					"internalType": "uint8",
					"name": "sure",
					"type": "uint8"
				},
				{
					"internalType": "string",
					"name": "egitimAdi",
					"type": "string"
				}
			],
			"name": "talepEtKursBilgi",
			"outputs": [],
			"stateMutability": "nonpayable",
			"type": "function"
		},
		{
			"inputs": [
				{
					"internalType": "address",
					"name": "_talepEdilenKurum",
					"type": "address"
				},
				{
					"internalType": "uint256",
					"name": "nitelikKodu",
					"type": "uint256"
				},
				{
					"internalType": "string",
					"name": "aciklama",
					"type": "string"
				},
				{
					"internalType": "enum BaseProperties.Seviye",
					"name": "seviye",
					"type": "uint8"
				}
			],
			"name": "talepEtNitelikBilgi",
			"outputs": [],
			"stateMutability": "nonpayable",
			"type": "function"
		},
		{
			"inputs": [
				{
					"internalType": "address",
					"name": "_talepEdilenKurum",
					"type": "address"
				},
				{
					"internalType": "uint256",
					"name": "_alinanTarih",
					"type": "uint256"
				},
				{
					"internalType": "uint8",
					"name": "_gecerlilikSuresi",
					"type": "uint8"
				},
				{
					"internalType": "string",
					"name": "_sertifikaAdi",
					"type": "string"
				}
			],
			"name": "talepEtSertifikaBilgi",
			"outputs": [],
			"stateMutability": "nonpayable",
			"type": "function"
		},
		{
			"inputs": [
				{
					"internalType": "address",
					"name": "_talepEdilenKurum",
					"type": "address"
				},
				{
					"internalType": "uint256",
					"name": "basTarih",
					"type": "uint256"
				},
				{
					"internalType": "uint256",
					"name": "bitTarih",
					"type": "uint256"
				},
				{
					"internalType": "enum BaseProperties.OgretimTipi",
					"name": "ogretimTipi",
					"type": "uint8"
				},
				{
					"internalType": "uint32",
					"name": "dilId",
					"type": "uint32"
				},
				{
					"internalType": "enum BaseProperties.Seviye",
					"name": "seviye",
					"type": "uint8"
				}
			],
			"name": "talepEtYabanciDilBilgi",
			"outputs": [],
			"stateMutability": "nonpayable",
			"type": "function"
		}
	]
}