{
	"data": {
		"bytecode": {
			"linkReferences": {},
			"object": "608060405234801561001057600080fd5b50612265806100206000396000f3fe608060405234801561001057600080fd5b50600436106100cf5760003560e01c80637d0fa2871161008c578063af640d0f11610066578063af640d0f14610299578063ba479b7e146102b7578063c0942d97146102ec578063cbc9280914610308576100cf565b80637d0fa287146102045780639a8c911914610236578063a4e7ae0514610268576100cf565b80631916e139146100d45780631a0dda7f146101065780632826669714610136578063356b1f1e1461016857806339987f941461019a57806364b2c66b146101cd575b600080fd5b6100ee60048036038101906100e99190611885565b610338565b6040516100fd93929190611c85565b60405180910390f35b610120600480360381019061011b9190611994565b610404565b60405161012d9190611da2565b60405180910390f35b610150600480360381019061014b9190611885565b610a21565b60405161015f93929190611c85565b60405180910390f35b610182600480360381019061017d9190611885565b610aed565b60405161019193929190611c85565b60405180910390f35b6101b460048036038101906101af9190611885565b610bb9565b6040516101c49493929190611cc3565b60405180910390f35b6101e760048036038101906101e29190611954565b610c8b565b6040516101fb989796959493929190611dbd565b60405180910390f35b61021e60048036038101906102199190611885565b610dbc565b60405161022d93929190611c85565b60405180910390f35b610250600480360381019061024b9190611885565b610e88565b60405161025f93929190611c85565b60405180910390f35b610282600480360381019061027d9190611a4a565b610f54565b604051610290929190611e3b565b60405180910390f35b6102a1611010565b6040516102ae9190611da2565b60405180910390f35b6102d160048036038101906102cc9190611885565b611016565b6040516102e396959493929190611c16565b60405180910390f35b610306600480360381019061030191906118b2565b6111aa565b005b610322600480360381019061031d9190611885565b6117dc565b60405161032f9190611bfb565b60405180910390f35b60076020528060005260406000206000915090508060000160009054906101000a900460ff169080600101805461036e90611fe6565b80601f016020809104026020016040519081016040528092919081815260200182805461039a90611fe6565b80156103e75780601f106103bc576101008083540402835291602001916103e7565b820191906000526020600020905b8154815290600101906020018083116103ca57829003601f168201915b5050505050908060020160009054906101000a900460ff16905083565b6000600460003373ffffffffffffffffffffffffffffffffffffffff1673ffffffffffffffffffffffffffffffffffffffff16815260200190815260200160002060000160009054906101000a900460ff16806104ad5750600660003373ffffffffffffffffffffffffffffffffffffffff1673ffffffffffffffffffffffffffffffffffffffff16815260200190815260200160002060000160009054906101000a900460ff165b806105045750600860003373ffffffffffffffffffffffffffffffffffffffff1673ffffffffffffffffffffffffffffffffffffffff16815260200190815260200160002060000160009054906101000a900460ff165b610543576040517f08c379a000000000000000000000000000000000000000000000000000000000815260040161053a90611d82565b60405180910390fd5b600360008a73ffffffffffffffffffffffffffffffffffffffff1673ffffffffffffffffffffffffffffffffffffffff16815260200190815260200160002060000160009054906101000a900460ff166105d2576040517f08c379a00000000000000000000000000000000000000000000000000000000081526004016105c990611d62565b60405180910390fd5b86600d60008b73ffffffffffffffffffffffffffffffffffffffff1673ffffffffffffffffffffffffffffffffffffffff16815260200190815260200160002060008a815260200190815260200160002060010160006101000a81548160ff0219169083600581111561064857610647612090565b5b021790555085600d60008b73ffffffffffffffffffffffffffffffffffffffff1673ffffffffffffffffffffffffffffffffffffffff16815260200190815260200160002060008a81526020019081526020016000206002018190555084600d60008b73ffffffffffffffffffffffffffffffffffffffff1673ffffffffffffffffffffffffffffffffffffffff16815260200190815260200160002060008a81526020019081526020016000206003018190555083600d60008b73ffffffffffffffffffffffffffffffffffffffff1673ffffffffffffffffffffffffffffffffffffffff16815260200190815260200160002060008a815260200190815260200160002060040160006101000a81548160ff0219169083600381111561077357610772612090565b5b021790555082600d60008b73ffffffffffffffffffffffffffffffffffffffff1673ffffffffffffffffffffffffffffffffffffffff16815260200190815260200160002060008a815260200190815260200160002060040160016101000a81548163ffffffff021916908363ffffffff16021790555081600d60008b73ffffffffffffffffffffffffffffffffffffffff1673ffffffffffffffffffffffffffffffffffffffff16815260200190815260200160002060008a815260200190815260200160002060040160056101000a81548160ff021916908360038111156108605761085f612090565b5b02179055506001600d60008b73ffffffffffffffffffffffffffffffffffffffff1673ffffffffffffffffffffffffffffffffffffffff16815260200190815260200160002060008a815260200190815260200160002060050160010160146101000a81548160ff021916908360028111156108df576108de612090565b5b021790555042600d60008b73ffffffffffffffffffffffffffffffffffffffff1673ffffffffffffffffffffffffffffffffffffffff16815260200190815260200160002060008a81526020019081526020016000206005016000018190555033600d60008b73ffffffffffffffffffffffffffffffffffffffff1673ffffffffffffffffffffffffffffffffffffffff16815260200190815260200160002060008a815260200190815260200160002060050160010160006101000a81548173ffffffffffffffffffffffffffffffffffffffff021916908373ffffffffffffffffffffffffffffffffffffffff1602179055507e8fdfffa514a537dacb0033300463694b1566a2286bfb76f047f70377b990e78787878787604051610a0a959493929190611d0f565b60405180910390a187905098975050505050505050565b60046020528060005260406000206000915090508060000160009054906101000a900460ff1690806001018054610a5790611fe6565b80601f0160208091040260200160405190810160405280929190818152602001828054610a8390611fe6565b8015610ad05780601f10610aa557610100808354040283529160200191610ad0565b820191906000526020600020905b815481529060010190602001808311610ab357829003601f168201915b5050505050908060020160009054906101000a900460ff16905083565b600a6020528060005260406000206000915090508060000160009054906101000a900460ff1690806001018054610b2390611fe6565b80601f0160208091040260200160405190810160405280929190818152602001828054610b4f90611fe6565b8015610b9c5780601f10610b7157610100808354040283529160200191610b9c565b820191906000526020600020905b815481529060010190602001808311610b7f57829003601f168201915b5050505050908060020160009054906101000a900460ff16905083565b60066020528060005260406000206000915090508060000160009054906101000a900460ff16908060000160019054906101000a900460ff1690806001015490806002018054610c0890611fe6565b80601f0160208091040260200160405190810160405280929190818152602001828054610c3490611fe6565b8015610c815780601f10610c5657610100808354040283529160200191610c81565b820191906000526020600020905b815481529060010190602001808311610c6457829003601f168201915b5050505050905084565b600d602052816000526040600020602052806000526040600020600091509150508060000154908060010160009054906101000a900460ff16908060020154908060030154908060040160009054906101000a900460ff16908060040160019054906101000a900463ffffffff16908060040160059054906101000a900460ff169080600501604051806060016040529081600082015481526020016001820160009054906101000a900473ffffffffffffffffffffffffffffffffffffffff1673ffffffffffffffffffffffffffffffffffffffff1673ffffffffffffffffffffffffffffffffffffffff1681526020016001820160149054906101000a900460ff166002811115610da157610da0612090565b5b6002811115610db357610db2612090565b5b81525050905088565b60086020528060005260406000206000915090508060000160009054906101000a900460ff1690806001018054610df290611fe6565b80601f0160208091040260200160405190810160405280929190818152602001828054610e1e90611fe6565b8015610e6b5780601f10610e4057610100808354040283529160200191610e6b565b820191906000526020600020905b815481529060010190602001808311610e4e57829003601f168201915b5050505050908060020160009054906101000a900460ff16905083565b60096020528060005260406000206000915090508060000160009054906101000a900460ff1690806001018054610ebe90611fe6565b80601f0160208091040260200160405190810160405280929190818152602001828054610eea90611fe6565b8015610f375780601f10610f0c57610100808354040283529160200191610f37565b820191906000526020600020905b815481529060010190602001808311610f1a57829003601f168201915b5050505050908060020160009054906101000a900460ff16905083565b600b6020528060005260406000206000915090508060000160009054906101000a900463ffffffff1690806001018054610f8d90611fe6565b80601f0160208091040260200160405190810160405280929190818152602001828054610fb990611fe6565b80156110065780601f10610fdb57610100808354040283529160200191611006565b820191906000526020600020905b815481529060010190602001808311610fe957829003601f168201915b5050505050905082565b600c5481565b60056020528060005260406000206000915090508060000160009054906101000a900460ff16908060000160019054906101000a900473ffffffffffffffffffffffffffffffffffffffff16908060000160159054906101000a900461ffff16908060000160179054906101000a900460ff169080600101805461109990611fe6565b80601f01602080910402602001604051908101604052809291908181526020018280546110c590611fe6565b80156111125780601f106110e757610100808354040283529160200191611112565b820191906000526020600020905b8154815290600101906020018083116110f557829003601f168201915b50505050509080600201805461112790611fe6565b80601f016020809104026020016040519081016040528092919081815260200182805461115390611fe6565b80156111a05780601f10611175576101008083540402835291602001916111a0565b820191906000526020600020905b81548152906001019060200180831161118357829003601f168201915b5050505050905086565b600460003373ffffffffffffffffffffffffffffffffffffffff1673ffffffffffffffffffffffffffffffffffffffff16815260200190815260200160002060000160009054906101000a900460ff16806112515750600660003373ffffffffffffffffffffffffffffffffffffffff1673ffffffffffffffffffffffffffffffffffffffff16815260200190815260200160002060000160009054906101000a900460ff165b806112a85750600860003373ffffffffffffffffffffffffffffffffffffffff1673ffffffffffffffffffffffffffffffffffffffff16815260200190815260200160002060000160009054906101000a900460ff165b6112e7576040517f08c379a00000000000000000000000000000000000000000000000000000000081526004016112de90611d82565b60405180910390fd5b600360008873ffffffffffffffffffffffffffffffffffffffff1673ffffffffffffffffffffffffffffffffffffffff16815260200190815260200160002060000160009054906101000a900460ff16611376576040517f08c379a000000000000000000000000000000000000000000000000000000000815260040161136d90611d62565b60405180910390fd5b6000600c600081548092919061138b90612018565b91905055905086600d60008a73ffffffffffffffffffffffffffffffffffffffff1673ffffffffffffffffffffffffffffffffffffffff168152602001908152602001600020600083815260200190815260200160002060010160006101000a81548160ff0219169083600581111561140757611406612090565b5b021790555085600d60008a73ffffffffffffffffffffffffffffffffffffffff1673ffffffffffffffffffffffffffffffffffffffff16815260200190815260200160002060008381526020019081526020016000206002018190555084600d60008a73ffffffffffffffffffffffffffffffffffffffff1673ffffffffffffffffffffffffffffffffffffffff16815260200190815260200160002060008381526020019081526020016000206003018190555083600d60008a73ffffffffffffffffffffffffffffffffffffffff1673ffffffffffffffffffffffffffffffffffffffff168152602001908152602001600020600083815260200190815260200160002060040160006101000a81548160ff0219169083600381111561153257611531612090565b5b021790555082600d60008a73ffffffffffffffffffffffffffffffffffffffff1673ffffffffffffffffffffffffffffffffffffffff168152602001908152602001600020600083815260200190815260200160002060040160016101000a81548163ffffffff021916908363ffffffff16021790555081600d60008a73ffffffffffffffffffffffffffffffffffffffff1673ffffffffffffffffffffffffffffffffffffffff168152602001908152602001600020600083815260200190815260200160002060040160056101000a81548160ff0219169083600381111561161f5761161e612090565b5b02179055506001600d60008a73ffffffffffffffffffffffffffffffffffffffff1673ffffffffffffffffffffffffffffffffffffffff168152602001908152602001600020600083815260200190815260200160002060050160010160146101000a81548160ff0219169083600281111561169e5761169d612090565b5b021790555042600d60008a73ffffffffffffffffffffffffffffffffffffffff1673ffffffffffffffffffffffffffffffffffffffff16815260200190815260200160002060008381526020019081526020016000206005016000018190555033600d60008a73ffffffffffffffffffffffffffffffffffffffff1673ffffffffffffffffffffffffffffffffffffffff168152602001908152602001600020600083815260200190815260200160002060050160010160006101000a81548173ffffffffffffffffffffffffffffffffffffffff021916908373ffffffffffffffffffffffffffffffffffffffff1602179055507f1bc8089d220c6c0b90fb65e37237ecb0e793702849c9e0b59b1b3a02ff10120687878787876040516117ca959493929190611d0f565b60405180910390a15050505050505050565b60036020528060005260406000206000915090508060000160009054906101000a900460ff16905081565b600081359050611816816121ba565b92915050565b60008135905061182b816121d1565b92915050565b600081359050611840816121e1565b92915050565b600081359050611855816121f1565b92915050565b60008135905061186a81612201565b92915050565b60008135905061187f81612218565b92915050565b60006020828403121561189b5761189a6120ee565b5b60006118a984828501611807565b91505092915050565b600080600080600080600060e0888a0312156118d1576118d06120ee565b5b60006118df8a828b01611807565b97505060206118f08a828b01611831565b96505060406119018a828b0161185b565b95505060606119128a828b0161185b565b94505060806119238a828b0161181c565b93505060a06119348a828b01611870565b92505060c06119458a828b01611846565b91505092959891949750929550565b6000806040838503121561196b5761196a6120ee565b5b600061197985828601611807565b925050602061198a8582860161185b565b9150509250929050565b600080600080600080600080610100898b0312156119b5576119b46120ee565b5b60006119c38b828c01611807565b98505060206119d48b828c0161185b565b97505060406119e58b828c01611831565b96505060606119f68b828c0161185b565b9550506080611a078b828c0161185b565b94505060a0611a188b828c0161181c565b93505060c0611a298b828c01611870565b92505060e0611a3a8b828c01611846565b9150509295985092959890939650565b600060208284031215611a6057611a5f6120ee565b5b6000611a6e84828501611870565b91505092915050565b611a8081611e87565b82525050565b611a8f81611e87565b82525050565b611a9e81611e99565b82525050565b611aad81611f59565b82525050565b611abc81611f6b565b82525050565b611acb81611f7d565b82525050565b611ada81611f8f565b82525050565b611ae981611fa1565b82525050565b6000611afa82611e6b565b611b048185611e76565b9350611b14818560208601611fb3565b611b1d816120f3565b840191505092915050565b6000611b35601183611e76565b9150611b4082612104565b602082019050919050565b6000611b58602083611e76565b9150611b638261212d565b602082019050919050565b606082016000820151611b846000850182611bbf565b506020820151611b976020850182611a77565b506040820151611baa6040850182611ab3565b50505050565b611bb981611f04565b82525050565b611bc881611f32565b82525050565b611bd781611f32565b82525050565b611be681611f3c565b82525050565b611bf581611f4c565b82525050565b6000602082019050611c106000830184611a95565b92915050565b600060c082019050611c2b6000830189611a95565b611c386020830188611a86565b611c456040830187611bb0565b611c526060830186611ae0565b8181036080830152611c648185611aef565b905081810360a0830152611c788184611aef565b9050979650505050505050565b6000606082019050611c9a6000830186611a95565b8181036020830152611cac8185611aef565b9050611cbb6040830184611bec565b949350505050565b6000608082019050611cd86000830187611a95565b611ce56020830186611bec565b611cf26040830185611bce565b8181036060830152611d048184611aef565b905095945050505050565b600060a082019050611d246000830188611ac2565b611d316020830187611bce565b611d3e6040830186611bce565b611d4b6060830185611aa4565b611d586080830184611bdd565b9695505050505050565b60006020820190508181036000830152611d7b81611b28565b9050919050565b60006020820190508181036000830152611d9b81611b4b565b9050919050565b6000602082019050611db76000830184611bce565b92915050565b600061014082019050611dd3600083018b611bce565b611de0602083018a611ac2565b611ded6040830189611bce565b611dfa6060830188611bce565b611e076080830187611aa4565b611e1460a0830186611bdd565b611e2160c0830185611ad1565b611e2e60e0830184611b6e565b9998505050505050505050565b6000604082019050611e506000830185611bdd565b8181036020830152611e628184611aef565b90509392505050565b600081519050919050565b600082825260208201905092915050565b6000611e9282611f12565b9050919050565b60008115159050919050565b6000819050611eb382612156565b919050565b6000819050611ec68261216a565b919050565b6000819050611ed98261217e565b919050565b6000819050611eec82612192565b919050565b6000819050611eff826121a6565b919050565b600061ffff82169050919050565b600073ffffffffffffffffffffffffffffffffffffffff82169050919050565b6000819050919050565b600063ffffffff82169050919050565b600060ff82169050919050565b6000611f6482611ea5565b9050919050565b6000611f7682611eb8565b9050919050565b6000611f8882611ecb565b9050919050565b6000611f9a82611ede565b9050919050565b6000611fac82611ef1565b9050919050565b60005b83811015611fd1578082015181840152602081019050611fb6565b83811115611fe0576000848401525b50505050565b60006002820490506001821680611ffe57607f821691505b60208210811415612012576120116120bf565b5b50919050565b600061202382611f32565b91507fffffffffffffffffffffffffffffffffffffffffffffffffffffffffffffffff82141561205657612055612061565b5b600182019050919050565b7f4e487b7100000000000000000000000000000000000000000000000000000000600052601160045260246000fd5b7f4e487b7100000000000000000000000000000000000000000000000000000000600052602160045260246000fd5b7f4e487b7100000000000000000000000000000000000000000000000000000000600052602260045260246000fd5b600080fd5b6000601f19601f8301169050919050565b7f4b697369206d657663757420646567696c000000000000000000000000000000600082015250565b7f42752069736c656d6920736164656365204b757273207961706162696c69722e600082015250565b6004811061216757612166612090565b5b50565b6003811061217b5761217a612090565b5b50565b6006811061218f5761218e612090565b5b50565b600481106121a3576121a2612090565b5b50565b600481106121b7576121b6612090565b5b50565b6121c381611e87565b81146121ce57600080fd5b50565b600481106121de57600080fd5b50565b600681106121ee57600080fd5b50565b600481106121fe57600080fd5b50565b61220a81611f32565b811461221557600080fd5b50565b61222181611f3c565b811461222c57600080fd5b5056fea26469706673582212201126df116775e899f948dfb0ad992710833416b732da03b6094672345d4708f364736f6c63430008070033",
			"opcodes": "PUSH1 0x80 PUSH1 0x40 MSTORE CALLVALUE DUP1 ISZERO PUSH2 0x10 JUMPI PUSH1 0x0 DUP1 REVERT JUMPDEST POP PUSH2 0x2265 DUP1 PUSH2 0x20 PUSH1 0x0 CODECOPY PUSH1 0x0 RETURN INVALID PUSH1 0x80 PUSH1 0x40 MSTORE CALLVALUE DUP1 ISZERO PUSH2 0x10 JUMPI PUSH1 0x0 DUP1 REVERT JUMPDEST POP PUSH1 0x4 CALLDATASIZE LT PUSH2 0xCF JUMPI PUSH1 0x0 CALLDATALOAD PUSH1 0xE0 SHR DUP1 PUSH4 0x7D0FA287 GT PUSH2 0x8C JUMPI DUP1 PUSH4 0xAF640D0F GT PUSH2 0x66 JUMPI DUP1 PUSH4 0xAF640D0F EQ PUSH2 0x299 JUMPI DUP1 PUSH4 0xBA479B7E EQ PUSH2 0x2B7 JUMPI DUP1 PUSH4 0xC0942D97 EQ PUSH2 0x2EC JUMPI DUP1 PUSH4 0xCBC92809 EQ PUSH2 0x308 JUMPI PUSH2 0xCF JUMP JUMPDEST DUP1 PUSH4 0x7D0FA287 EQ PUSH2 0x204 JUMPI DUP1 PUSH4 0x9A8C9119 EQ PUSH2 0x236 JUMPI DUP1 PUSH4 0xA4E7AE05 EQ PUSH2 0x268 JUMPI PUSH2 0xCF JUMP JUMPDEST DUP1 PUSH4 0x1916E139 EQ PUSH2 0xD4 JUMPI DUP1 PUSH4 0x1A0DDA7F EQ PUSH2 0x106 JUMPI DUP1 PUSH4 0x28266697 EQ PUSH2 0x136 JUMPI DUP1 PUSH4 0x356B1F1E EQ PUSH2 0x168 JUMPI DUP1 PUSH4 0x39987F94 EQ PUSH2 0x19A JUMPI DUP1 PUSH4 0x64B2C66B EQ PUSH2 0x1CD JUMPI JUMPDEST PUSH1 0x0 DUP1 REVERT JUMPDEST PUSH2 0xEE PUSH1 0x4 DUP1 CALLDATASIZE SUB DUP2 ADD SWAP1 PUSH2 0xE9 SWAP2 SWAP1 PUSH2 0x1885 JUMP JUMPDEST PUSH2 0x338 JUMP JUMPDEST PUSH1 0x40 MLOAD PUSH2 0xFD SWAP4 SWAP3 SWAP2 SWAP1 PUSH2 0x1C85 JUMP JUMPDEST PUSH1 0x40 MLOAD DUP1 SWAP2 SUB SWAP1 RETURN JUMPDEST PUSH2 0x120 PUSH1 0x4 DUP1 CALLDATASIZE SUB DUP2 ADD SWAP1 PUSH2 0x11B SWAP2 SWAP1 PUSH2 0x1994 JUMP JUMPDEST PUSH2 0x404 JUMP JUMPDEST PUSH1 0x40 MLOAD PUSH2 0x12D SWAP2 SWAP1 PUSH2 0x1DA2 JUMP JUMPDEST PUSH1 0x40 MLOAD DUP1 SWAP2 SUB SWAP1 RETURN JUMPDEST PUSH2 0x150 PUSH1 0x4 DUP1 CALLDATASIZE SUB DUP2 ADD SWAP1 PUSH2 0x14B SWAP2 SWAP1 PUSH2 0x1885 JUMP JUMPDEST PUSH2 0xA21 JUMP JUMPDEST PUSH1 0x40 MLOAD PUSH2 0x15F SWAP4 SWAP3 SWAP2 SWAP1 PUSH2 0x1C85 JUMP JUMPDEST PUSH1 0x40 MLOAD DUP1 SWAP2 SUB SWAP1 RETURN JUMPDEST PUSH2 0x182 PUSH1 0x4 DUP1 CALLDATASIZE SUB DUP2 ADD SWAP1 PUSH2 0x17D SWAP2 SWAP1 PUSH2 0x1885 JUMP JUMPDEST PUSH2 0xAED JUMP JUMPDEST PUSH1 0x40 MLOAD PUSH2 0x191 SWAP4 SWAP3 SWAP2 SWAP1 PUSH2 0x1C85 JUMP JUMPDEST PUSH1 0x40 MLOAD DUP1 SWAP2 SUB SWAP1 RETURN JUMPDEST PUSH2 0x1B4 PUSH1 0x4 DUP1 CALLDATASIZE SUB DUP2 ADD SWAP1 PUSH2 0x1AF SWAP2 SWAP1 PUSH2 0x1885 JUMP JUMPDEST PUSH2 0xBB9 JUMP JUMPDEST PUSH1 0x40 MLOAD PUSH2 0x1C4 SWAP5 SWAP4 SWAP3 SWAP2 SWAP1 PUSH2 0x1CC3 JUMP JUMPDEST PUSH1 0x40 MLOAD DUP1 SWAP2 SUB SWAP1 RETURN JUMPDEST PUSH2 0x1E7 PUSH1 0x4 DUP1 CALLDATASIZE SUB DUP2 ADD SWAP1 PUSH2 0x1E2 SWAP2 SWAP1 PUSH2 0x1954 JUMP JUMPDEST PUSH2 0xC8B JUMP JUMPDEST PUSH1 0x40 MLOAD PUSH2 0x1FB SWAP9 SWAP8 SWAP7 SWAP6 SWAP5 SWAP4 SWAP3 SWAP2 SWAP1 PUSH2 0x1DBD JUMP JUMPDEST PUSH1 0x40 MLOAD DUP1 SWAP2 SUB SWAP1 RETURN JUMPDEST PUSH2 0x21E PUSH1 0x4 DUP1 CALLDATASIZE SUB DUP2 ADD SWAP1 PUSH2 0x219 SWAP2 SWAP1 PUSH2 0x1885 JUMP JUMPDEST PUSH2 0xDBC JUMP JUMPDEST PUSH1 0x40 MLOAD PUSH2 0x22D SWAP4 SWAP3 SWAP2 SWAP1 PUSH2 0x1C85 JUMP JUMPDEST PUSH1 0x40 MLOAD DUP1 SWAP2 SUB SWAP1 RETURN JUMPDEST PUSH2 0x250 PUSH1 0x4 DUP1 CALLDATASIZE SUB DUP2 ADD SWAP1 PUSH2 0x24B SWAP2 SWAP1 PUSH2 0x1885 JUMP JUMPDEST PUSH2 0xE88 JUMP JUMPDEST PUSH1 0x40 MLOAD PUSH2 0x25F SWAP4 SWAP3 SWAP2 SWAP1 PUSH2 0x1C85 JUMP JUMPDEST PUSH1 0x40 MLOAD DUP1 SWAP2 SUB SWAP1 RETURN JUMPDEST PUSH2 0x282 PUSH1 0x4 DUP1 CALLDATASIZE SUB DUP2 ADD SWAP1 PUSH2 0x27D SWAP2 SWAP1 PUSH2 0x1A4A JUMP JUMPDEST PUSH2 0xF54 JUMP JUMPDEST PUSH1 0x40 MLOAD PUSH2 0x290 SWAP3 SWAP2 SWAP1 PUSH2 0x1E3B JUMP JUMPDEST PUSH1 0x40 MLOAD DUP1 SWAP2 SUB SWAP1 RETURN JUMPDEST PUSH2 0x2A1 PUSH2 0x1010 JUMP JUMPDEST PUSH1 0x40 MLOAD PUSH2 0x2AE SWAP2 SWAP1 PUSH2 0x1DA2 JUMP JUMPDEST PUSH1 0x40 MLOAD DUP1 SWAP2 SUB SWAP1 RETURN JUMPDEST PUSH2 0x2D1 PUSH1 0x4 DUP1 CALLDATASIZE SUB DUP2 ADD SWAP1 PUSH2 0x2CC SWAP2 SWAP1 PUSH2 0x1885 JUMP JUMPDEST PUSH2 0x1016 JUMP JUMPDEST PUSH1 0x40 MLOAD PUSH2 0x2E3 SWAP7 SWAP6 SWAP5 SWAP4 SWAP3 SWAP2 SWAP1 PUSH2 0x1C16 JUMP JUMPDEST PUSH1 0x40 MLOAD DUP1 SWAP2 SUB SWAP1 RETURN JUMPDEST PUSH2 0x306 PUSH1 0x4 DUP1 CALLDATASIZE SUB DUP2 ADD SWAP1 PUSH2 0x301 SWAP2 SWAP1 PUSH2 0x18B2 JUMP JUMPDEST PUSH2 0x11AA JUMP JUMPDEST STOP JUMPDEST PUSH2 0x322 PUSH1 0x4 DUP1 CALLDATASIZE SUB DUP2 ADD SWAP1 PUSH2 0x31D SWAP2 SWAP1 PUSH2 0x1885 JUMP JUMPDEST PUSH2 0x17DC JUMP JUMPDEST PUSH1 0x40 MLOAD PUSH2 0x32F SWAP2 SWAP1 PUSH2 0x1BFB JUMP JUMPDEST PUSH1 0x40 MLOAD DUP1 SWAP2 SUB SWAP1 RETURN JUMPDEST PUSH1 0x7 PUSH1 0x20 MSTORE DUP1 PUSH1 0x0 MSTORE PUSH1 0x40 PUSH1 0x0 KECCAK256 PUSH1 0x0 SWAP2 POP SWAP1 POP DUP1 PUSH1 0x0 ADD PUSH1 0x0 SWAP1 SLOAD SWAP1 PUSH2 0x100 EXP SWAP1 DIV PUSH1 0xFF AND SWAP1 DUP1 PUSH1 0x1 ADD DUP1 SLOAD PUSH2 0x36E SWAP1 PUSH2 0x1FE6 JUMP JUMPDEST DUP1 PUSH1 0x1F ADD PUSH1 0x20 DUP1 SWAP2 DIV MUL PUSH1 0x20 ADD PUSH1 0x40 MLOAD SWAP1 DUP2 ADD PUSH1 0x40 MSTORE DUP1 SWAP3 SWAP2 SWAP1 DUP2 DUP2 MSTORE PUSH1 0x20 ADD DUP3 DUP1 SLOAD PUSH2 0x39A SWAP1 PUSH2 0x1FE6 JUMP JUMPDEST DUP1 ISZERO PUSH2 0x3E7 JUMPI DUP1 PUSH1 0x1F LT PUSH2 0x3BC JUMPI PUSH2 0x100 DUP1 DUP4 SLOAD DIV MUL DUP4 MSTORE SWAP2 PUSH1 0x20 ADD SWAP2 PUSH2 0x3E7 JUMP JUMPDEST DUP3 ADD SWAP2 SWAP1 PUSH1 0x0 MSTORE PUSH1 0x20 PUSH1 0x0 KECCAK256 SWAP1 JUMPDEST DUP2 SLOAD DUP2 MSTORE SWAP1 PUSH1 0x1 ADD SWAP1 PUSH1 0x20 ADD DUP1 DUP4 GT PUSH2 0x3CA JUMPI DUP3 SWAP1 SUB PUSH1 0x1F AND DUP3 ADD SWAP2 JUMPDEST POP POP POP POP POP SWAP1 DUP1 PUSH1 0x2 ADD PUSH1 0x0 SWAP1 SLOAD SWAP1 PUSH2 0x100 EXP SWAP1 DIV PUSH1 0xFF AND SWAP1 POP DUP4 JUMP JUMPDEST PUSH1 0x0 PUSH1 0x4 PUSH1 0x0 CALLER PUSH20 0xFFFFFFFFFFFFFFFFFFFFFFFFFFFFFFFFFFFFFFFF AND PUSH20 0xFFFFFFFFFFFFFFFFFFFFFFFFFFFFFFFFFFFFFFFF AND DUP2 MSTORE PUSH1 0x20 ADD SWAP1 DUP2 MSTORE PUSH1 0x20 ADD PUSH1 0x0 KECCAK256 PUSH1 0x0 ADD PUSH1 0x0 SWAP1 SLOAD SWAP1 PUSH2 0x100 EXP SWAP1 DIV PUSH1 0xFF AND DUP1 PUSH2 0x4AD JUMPI POP PUSH1 0x6 PUSH1 0x0 CALLER PUSH20 0xFFFFFFFFFFFFFFFFFFFFFFFFFFFFFFFFFFFFFFFF AND PUSH20 0xFFFFFFFFFFFFFFFFFFFFFFFFFFFFFFFFFFFFFFFF AND DUP2 MSTORE PUSH1 0x20 ADD SWAP1 DUP2 MSTORE PUSH1 0x20 ADD PUSH1 0x0 KECCAK256 PUSH1 0x0 ADD PUSH1 0x0 SWAP1 SLOAD SWAP1 PUSH2 0x100 EXP SWAP1 DIV PUSH1 0xFF AND JUMPDEST DUP1 PUSH2 0x504 JUMPI POP PUSH1 0x8 PUSH1 0x0 CALLER PUSH20 0xFFFFFFFFFFFFFFFFFFFFFFFFFFFFFFFFFFFFFFFF AND PUSH20 0xFFFFFFFFFFFFFFFFFFFFFFFFFFFFFFFFFFFFFFFF AND DUP2 MSTORE PUSH1 0x20 ADD SWAP1 DUP2 MSTORE PUSH1 0x20 ADD PUSH1 0x0 KECCAK256 PUSH1 0x0 ADD PUSH1 0x0 SWAP1 SLOAD SWAP1 PUSH2 0x100 EXP SWAP1 DIV PUSH1 0xFF AND JUMPDEST PUSH2 0x543 JUMPI PUSH1 0x40 MLOAD PUSH32 0x8C379A000000000000000000000000000000000000000000000000000000000 DUP2 MSTORE PUSH1 0x4 ADD PUSH2 0x53A SWAP1 PUSH2 0x1D82 JUMP JUMPDEST PUSH1 0x40 MLOAD DUP1 SWAP2 SUB SWAP1 REVERT JUMPDEST PUSH1 0x3 PUSH1 0x0 DUP11 PUSH20 0xFFFFFFFFFFFFFFFFFFFFFFFFFFFFFFFFFFFFFFFF AND PUSH20 0xFFFFFFFFFFFFFFFFFFFFFFFFFFFFFFFFFFFFFFFF AND DUP2 MSTORE PUSH1 0x20 ADD SWAP1 DUP2 MSTORE PUSH1 0x20 ADD PUSH1 0x0 KECCAK256 PUSH1 0x0 ADD PUSH1 0x0 SWAP1 SLOAD SWAP1 PUSH2 0x100 EXP SWAP1 DIV PUSH1 0xFF AND PUSH2 0x5D2 JUMPI PUSH1 0x40 MLOAD PUSH32 0x8C379A000000000000000000000000000000000000000000000000000000000 DUP2 MSTORE PUSH1 0x4 ADD PUSH2 0x5C9 SWAP1 PUSH2 0x1D62 JUMP JUMPDEST PUSH1 0x40 MLOAD DUP1 SWAP2 SUB SWAP1 REVERT JUMPDEST DUP7 PUSH1 0xD PUSH1 0x0 DUP12 PUSH20 0xFFFFFFFFFFFFFFFFFFFFFFFFFFFFFFFFFFFFFFFF AND PUSH20 0xFFFFFFFFFFFFFFFFFFFFFFFFFFFFFFFFFFFFFFFF AND DUP2 MSTORE PUSH1 0x20 ADD SWAP1 DUP2 MSTORE PUSH1 0x20 ADD PUSH1 0x0 KECCAK256 PUSH1 0x0 DUP11 DUP2 MSTORE PUSH1 0x20 ADD SWAP1 DUP2 MSTORE PUSH1 0x20 ADD PUSH1 0x0 KECCAK256 PUSH1 0x1 ADD PUSH1 0x0 PUSH2 0x100 EXP DUP2 SLOAD DUP2 PUSH1 0xFF MUL NOT AND SWAP1 DUP4 PUSH1 0x5 DUP2 GT ISZERO PUSH2 0x648 JUMPI PUSH2 0x647 PUSH2 0x2090 JUMP JUMPDEST JUMPDEST MUL OR SWAP1 SSTORE POP DUP6 PUSH1 0xD PUSH1 0x0 DUP12 PUSH20 0xFFFFFFFFFFFFFFFFFFFFFFFFFFFFFFFFFFFFFFFF AND PUSH20 0xFFFFFFFFFFFFFFFFFFFFFFFFFFFFFFFFFFFFFFFF AND DUP2 MSTORE PUSH1 0x20 ADD SWAP1 DUP2 MSTORE PUSH1 0x20 ADD PUSH1 0x0 KECCAK256 PUSH1 0x0 DUP11 DUP2 MSTORE PUSH1 0x20 ADD SWAP1 DUP2 MSTORE PUSH1 0x20 ADD PUSH1 0x0 KECCAK256 PUSH1 0x2 ADD DUP2 SWAP1 SSTORE POP DUP5 PUSH1 0xD PUSH1 0x0 DUP12 PUSH20 0xFFFFFFFFFFFFFFFFFFFFFFFFFFFFFFFFFFFFFFFF AND PUSH20 0xFFFFFFFFFFFFFFFFFFFFFFFFFFFFFFFFFFFFFFFF AND DUP2 MSTORE PUSH1 0x20 ADD SWAP1 DUP2 MSTORE PUSH1 0x20 ADD PUSH1 0x0 KECCAK256 PUSH1 0x0 DUP11 DUP2 MSTORE PUSH1 0x20 ADD SWAP1 DUP2 MSTORE PUSH1 0x20 ADD PUSH1 0x0 KECCAK256 PUSH1 0x3 ADD DUP2 SWAP1 SSTORE POP DUP4 PUSH1 0xD PUSH1 0x0 DUP12 PUSH20 0xFFFFFFFFFFFFFFFFFFFFFFFFFFFFFFFFFFFFFFFF AND PUSH20 0xFFFFFFFFFFFFFFFFFFFFFFFFFFFFFFFFFFFFFFFF AND DUP2 MSTORE PUSH1 0x20 ADD SWAP1 DUP2 MSTORE PUSH1 0x20 ADD PUSH1 0x0 KECCAK256 PUSH1 0x0 DUP11 DUP2 MSTORE PUSH1 0x20 ADD SWAP1 DUP2 MSTORE PUSH1 0x20 ADD PUSH1 0x0 KECCAK256 PUSH1 0x4 ADD PUSH1 0x0 PUSH2 0x100 EXP DUP2 SLOAD DUP2 PUSH1 0xFF MUL NOT AND SWAP1 DUP4 PUSH1 0x3 DUP2 GT ISZERO PUSH2 0x773 JUMPI PUSH2 0x772 PUSH2 0x2090 JUMP JUMPDEST JUMPDEST MUL OR SWAP1 SSTORE POP DUP3 PUSH1 0xD PUSH1 0x0 DUP12 PUSH20 0xFFFFFFFFFFFFFFFFFFFFFFFFFFFFFFFFFFFFFFFF AND PUSH20 0xFFFFFFFFFFFFFFFFFFFFFFFFFFFFFFFFFFFFFFFF AND DUP2 MSTORE PUSH1 0x20 ADD SWAP1 DUP2 MSTORE PUSH1 0x20 ADD PUSH1 0x0 KECCAK256 PUSH1 0x0 DUP11 DUP2 MSTORE PUSH1 0x20 ADD SWAP1 DUP2 MSTORE PUSH1 0x20 ADD PUSH1 0x0 KECCAK256 PUSH1 0x4 ADD PUSH1 0x1 PUSH2 0x100 EXP DUP2 SLOAD DUP2 PUSH4 0xFFFFFFFF MUL NOT AND SWAP1 DUP4 PUSH4 0xFFFFFFFF AND MUL OR SWAP1 SSTORE POP DUP2 PUSH1 0xD PUSH1 0x0 DUP12 PUSH20 0xFFFFFFFFFFFFFFFFFFFFFFFFFFFFFFFFFFFFFFFF AND PUSH20 0xFFFFFFFFFFFFFFFFFFFFFFFFFFFFFFFFFFFFFFFF AND DUP2 MSTORE PUSH1 0x20 ADD SWAP1 DUP2 MSTORE PUSH1 0x20 ADD PUSH1 0x0 KECCAK256 PUSH1 0x0 DUP11 DUP2 MSTORE PUSH1 0x20 ADD SWAP1 DUP2 MSTORE PUSH1 0x20 ADD PUSH1 0x0 KECCAK256 PUSH1 0x4 ADD PUSH1 0x5 PUSH2 0x100 EXP DUP2 SLOAD DUP2 PUSH1 0xFF MUL NOT AND SWAP1 DUP4 PUSH1 0x3 DUP2 GT ISZERO PUSH2 0x860 JUMPI PUSH2 0x85F PUSH2 0x2090 JUMP JUMPDEST JUMPDEST MUL OR SWAP1 SSTORE POP PUSH1 0x1 PUSH1 0xD PUSH1 0x0 DUP12 PUSH20 0xFFFFFFFFFFFFFFFFFFFFFFFFFFFFFFFFFFFFFFFF AND PUSH20 0xFFFFFFFFFFFFFFFFFFFFFFFFFFFFFFFFFFFFFFFF AND DUP2 MSTORE PUSH1 0x20 ADD SWAP1 DUP2 MSTORE PUSH1 0x20 ADD PUSH1 0x0 KECCAK256 PUSH1 0x0 DUP11 DUP2 MSTORE PUSH1 0x20 ADD SWAP1 DUP2 MSTORE PUSH1 0x20 ADD PUSH1 0x0 KECCAK256 PUSH1 0x5 ADD PUSH1 0x1 ADD PUSH1 0x14 PUSH2 0x100 EXP DUP2 SLOAD DUP2 PUSH1 0xFF MUL NOT AND SWAP1 DUP4 PUSH1 0x2 DUP2 GT ISZERO PUSH2 0x8DF JUMPI PUSH2 0x8DE PUSH2 0x2090 JUMP JUMPDEST JUMPDEST MUL OR SWAP1 SSTORE POP TIMESTAMP PUSH1 0xD PUSH1 0x0 DUP12 PUSH20 0xFFFFFFFFFFFFFFFFFFFFFFFFFFFFFFFFFFFFFFFF AND PUSH20 0xFFFFFFFFFFFFFFFFFFFFFFFFFFFFFFFFFFFFFFFF AND DUP2 MSTORE PUSH1 0x20 ADD SWAP1 DUP2 MSTORE PUSH1 0x20 ADD PUSH1 0x0 KECCAK256 PUSH1 0x0 DUP11 DUP2 MSTORE PUSH1 0x20 ADD SWAP1 DUP2 MSTORE PUSH1 0x20 ADD PUSH1 0x0 KECCAK256 PUSH1 0x5 ADD PUSH1 0x0 ADD DUP2 SWAP1 SSTORE POP CALLER PUSH1 0xD PUSH1 0x0 DUP12 PUSH20 0xFFFFFFFFFFFFFFFFFFFFFFFFFFFFFFFFFFFFFFFF AND PUSH20 0xFFFFFFFFFFFFFFFFFFFFFFFFFFFFFFFFFFFFFFFF AND DUP2 MSTORE PUSH1 0x20 ADD SWAP1 DUP2 MSTORE PUSH1 0x20 ADD PUSH1 0x0 KECCAK256 PUSH1 0x0 DUP11 DUP2 MSTORE PUSH1 0x20 ADD SWAP1 DUP2 MSTORE PUSH1 0x20 ADD PUSH1 0x0 KECCAK256 PUSH1 0x5 ADD PUSH1 0x1 ADD PUSH1 0x0 PUSH2 0x100 EXP DUP2 SLOAD DUP2 PUSH20 0xFFFFFFFFFFFFFFFFFFFFFFFFFFFFFFFFFFFFFFFF MUL NOT AND SWAP1 DUP4 PUSH20 0xFFFFFFFFFFFFFFFFFFFFFFFFFFFFFFFFFFFFFFFF AND MUL OR SWAP1 SSTORE POP PUSH31 0x8FDFFFA514A537DACB0033300463694B1566A2286BFB76F047F70377B990E7 DUP8 DUP8 DUP8 DUP8 DUP8 PUSH1 0x40 MLOAD PUSH2 0xA0A SWAP6 SWAP5 SWAP4 SWAP3 SWAP2 SWAP1 PUSH2 0x1D0F JUMP JUMPDEST PUSH1 0x40 MLOAD DUP1 SWAP2 SUB SWAP1 LOG1 DUP8 SWAP1 POP SWAP9 SWAP8 POP POP POP POP POP POP POP POP JUMP JUMPDEST PUSH1 0x4 PUSH1 0x20 MSTORE DUP1 PUSH1 0x0 MSTORE PUSH1 0x40 PUSH1 0x0 KECCAK256 PUSH1 0x0 SWAP2 POP SWAP1 POP DUP1 PUSH1 0x0 ADD PUSH1 0x0 SWAP1 SLOAD SWAP1 PUSH2 0x100 EXP SWAP1 DIV PUSH1 0xFF AND SWAP1 DUP1 PUSH1 0x1 ADD DUP1 SLOAD PUSH2 0xA57 SWAP1 PUSH2 0x1FE6 JUMP JUMPDEST DUP1 PUSH1 0x1F ADD PUSH1 0x20 DUP1 SWAP2 DIV MUL PUSH1 0x20 ADD PUSH1 0x40 MLOAD SWAP1 DUP2 ADD PUSH1 0x40 MSTORE DUP1 SWAP3 SWAP2 SWAP1 DUP2 DUP2 MSTORE PUSH1 0x20 ADD DUP3 DUP1 SLOAD PUSH2 0xA83 SWAP1 PUSH2 0x1FE6 JUMP JUMPDEST DUP1 ISZERO PUSH2 0xAD0 JUMPI DUP1 PUSH1 0x1F LT PUSH2 0xAA5 JUMPI PUSH2 0x100 DUP1 DUP4 SLOAD DIV MUL DUP4 MSTORE SWAP2 PUSH1 0x20 ADD SWAP2 PUSH2 0xAD0 JUMP JUMPDEST DUP3 ADD SWAP2 SWAP1 PUSH1 0x0 MSTORE PUSH1 0x20 PUSH1 0x0 KECCAK256 SWAP1 JUMPDEST DUP2 SLOAD DUP2 MSTORE SWAP1 PUSH1 0x1 ADD SWAP1 PUSH1 0x20 ADD DUP1 DUP4 GT PUSH2 0xAB3 JUMPI DUP3 SWAP1 SUB PUSH1 0x1F AND DUP3 ADD SWAP2 JUMPDEST POP POP POP POP POP SWAP1 DUP1 PUSH1 0x2 ADD PUSH1 0x0 SWAP1 SLOAD SWAP1 PUSH2 0x100 EXP SWAP1 DIV PUSH1 0xFF AND SWAP1 POP DUP4 JUMP JUMPDEST PUSH1 0xA PUSH1 0x20 MSTORE DUP1 PUSH1 0x0 MSTORE PUSH1 0x40 PUSH1 0x0 KECCAK256 PUSH1 0x0 SWAP2 POP SWAP1 POP DUP1 PUSH1 0x0 ADD PUSH1 0x0 SWAP1 SLOAD SWAP1 PUSH2 0x100 EXP SWAP1 DIV PUSH1 0xFF AND SWAP1 DUP1 PUSH1 0x1 ADD DUP1 SLOAD PUSH2 0xB23 SWAP1 PUSH2 0x1FE6 JUMP JUMPDEST DUP1 PUSH1 0x1F ADD PUSH1 0x20 DUP1 SWAP2 DIV MUL PUSH1 0x20 ADD PUSH1 0x40 MLOAD SWAP1 DUP2 ADD PUSH1 0x40 MSTORE DUP1 SWAP3 SWAP2 SWAP1 DUP2 DUP2 MSTORE PUSH1 0x20 ADD DUP3 DUP1 SLOAD PUSH2 0xB4F SWAP1 PUSH2 0x1FE6 JUMP JUMPDEST DUP1 ISZERO PUSH2 0xB9C JUMPI DUP1 PUSH1 0x1F LT PUSH2 0xB71 JUMPI PUSH2 0x100 DUP1 DUP4 SLOAD DIV MUL DUP4 MSTORE SWAP2 PUSH1 0x20 ADD SWAP2 PUSH2 0xB9C JUMP JUMPDEST DUP3 ADD SWAP2 SWAP1 PUSH1 0x0 MSTORE PUSH1 0x20 PUSH1 0x0 KECCAK256 SWAP1 JUMPDEST DUP2 SLOAD DUP2 MSTORE SWAP1 PUSH1 0x1 ADD SWAP1 PUSH1 0x20 ADD DUP1 DUP4 GT PUSH2 0xB7F JUMPI DUP3 SWAP1 SUB PUSH1 0x1F AND DUP3 ADD SWAP2 JUMPDEST POP POP POP POP POP SWAP1 DUP1 PUSH1 0x2 ADD PUSH1 0x0 SWAP1 SLOAD SWAP1 PUSH2 0x100 EXP SWAP1 DIV PUSH1 0xFF AND SWAP1 POP DUP4 JUMP JUMPDEST PUSH1 0x6 PUSH1 0x20 MSTORE DUP1 PUSH1 0x0 MSTORE PUSH1 0x40 PUSH1 0x0 KECCAK256 PUSH1 0x0 SWAP2 POP SWAP1 POP DUP1 PUSH1 0x0 ADD PUSH1 0x0 SWAP1 SLOAD SWAP1 PUSH2 0x100 EXP SWAP1 DIV PUSH1 0xFF AND SWAP1 DUP1 PUSH1 0x0 ADD PUSH1 0x1 SWAP1 SLOAD SWAP1 PUSH2 0x100 EXP SWAP1 DIV PUSH1 0xFF AND SWAP1 DUP1 PUSH1 0x1 ADD SLOAD SWAP1 DUP1 PUSH1 0x2 ADD DUP1 SLOAD PUSH2 0xC08 SWAP1 PUSH2 0x1FE6 JUMP JUMPDEST DUP1 PUSH1 0x1F ADD PUSH1 0x20 DUP1 SWAP2 DIV MUL PUSH1 0x20 ADD PUSH1 0x40 MLOAD SWAP1 DUP2 ADD PUSH1 0x40 MSTORE DUP1 SWAP3 SWAP2 SWAP1 DUP2 DUP2 MSTORE PUSH1 0x20 ADD DUP3 DUP1 SLOAD PUSH2 0xC34 SWAP1 PUSH2 0x1FE6 JUMP JUMPDEST DUP1 ISZERO PUSH2 0xC81 JUMPI DUP1 PUSH1 0x1F LT PUSH2 0xC56 JUMPI PUSH2 0x100 DUP1 DUP4 SLOAD DIV MUL DUP4 MSTORE SWAP2 PUSH1 0x20 ADD SWAP2 PUSH2 0xC81 JUMP JUMPDEST DUP3 ADD SWAP2 SWAP1 PUSH1 0x0 MSTORE PUSH1 0x20 PUSH1 0x0 KECCAK256 SWAP1 JUMPDEST DUP2 SLOAD DUP2 MSTORE SWAP1 PUSH1 0x1 ADD SWAP1 PUSH1 0x20 ADD DUP1 DUP4 GT PUSH2 0xC64 JUMPI DUP3 SWAP1 SUB PUSH1 0x1F AND DUP3 ADD SWAP2 JUMPDEST POP POP POP POP POP SWAP1 POP DUP5 JUMP JUMPDEST PUSH1 0xD PUSH1 0x20 MSTORE DUP2 PUSH1 0x0 MSTORE PUSH1 0x40 PUSH1 0x0 KECCAK256 PUSH1 0x20 MSTORE DUP1 PUSH1 0x0 MSTORE PUSH1 0x40 PUSH1 0x0 KECCAK256 PUSH1 0x0 SWAP2 POP SWAP2 POP POP DUP1 PUSH1 0x0 ADD SLOAD SWAP1 DUP1 PUSH1 0x1 ADD PUSH1 0x0 SWAP1 SLOAD SWAP1 PUSH2 0x100 EXP SWAP1 DIV PUSH1 0xFF AND SWAP1 DUP1 PUSH1 0x2 ADD SLOAD SWAP1 DUP1 PUSH1 0x3 ADD SLOAD SWAP1 DUP1 PUSH1 0x4 ADD PUSH1 0x0 SWAP1 SLOAD SWAP1 PUSH2 0x100 EXP SWAP1 DIV PUSH1 0xFF AND SWAP1 DUP1 PUSH1 0x4 ADD PUSH1 0x1 SWAP1 SLOAD SWAP1 PUSH2 0x100 EXP SWAP1 DIV PUSH4 0xFFFFFFFF AND SWAP1 DUP1 PUSH1 0x4 ADD PUSH1 0x5 SWAP1 SLOAD SWAP1 PUSH2 0x100 EXP SWAP1 DIV PUSH1 0xFF AND SWAP1 DUP1 PUSH1 0x5 ADD PUSH1 0x40 MLOAD DUP1 PUSH1 0x60 ADD PUSH1 0x40 MSTORE SWAP1 DUP2 PUSH1 0x0 DUP3 ADD SLOAD DUP2 MSTORE PUSH1 0x20 ADD PUSH1 0x1 DUP3 ADD PUSH1 0x0 SWAP1 SLOAD SWAP1 PUSH2 0x100 EXP SWAP1 DIV PUSH20 0xFFFFFFFFFFFFFFFFFFFFFFFFFFFFFFFFFFFFFFFF AND PUSH20 0xFFFFFFFFFFFFFFFFFFFFFFFFFFFFFFFFFFFFFFFF AND PUSH20 0xFFFFFFFFFFFFFFFFFFFFFFFFFFFFFFFFFFFFFFFF AND DUP2 MSTORE PUSH1 0x20 ADD PUSH1 0x1 DUP3 ADD PUSH1 0x14 SWAP1 SLOAD SWAP1 PUSH2 0x100 EXP SWAP1 DIV PUSH1 0xFF AND PUSH1 0x2 DUP2 GT ISZERO PUSH2 0xDA1 JUMPI PUSH2 0xDA0 PUSH2 0x2090 JUMP JUMPDEST JUMPDEST PUSH1 0x2 DUP2 GT ISZERO PUSH2 0xDB3 JUMPI PUSH2 0xDB2 PUSH2 0x2090 JUMP JUMPDEST JUMPDEST DUP2 MSTORE POP POP SWAP1 POP DUP9 JUMP JUMPDEST PUSH1 0x8 PUSH1 0x20 MSTORE DUP1 PUSH1 0x0 MSTORE PUSH1 0x40 PUSH1 0x0 KECCAK256 PUSH1 0x0 SWAP2 POP SWAP1 POP DUP1 PUSH1 0x0 ADD PUSH1 0x0 SWAP1 SLOAD SWAP1 PUSH2 0x100 EXP SWAP1 DIV PUSH1 0xFF AND SWAP1 DUP1 PUSH1 0x1 ADD DUP1 SLOAD PUSH2 0xDF2 SWAP1 PUSH2 0x1FE6 JUMP JUMPDEST DUP1 PUSH1 0x1F ADD PUSH1 0x20 DUP1 SWAP2 DIV MUL PUSH1 0x20 ADD PUSH1 0x40 MLOAD SWAP1 DUP2 ADD PUSH1 0x40 MSTORE DUP1 SWAP3 SWAP2 SWAP1 DUP2 DUP2 MSTORE PUSH1 0x20 ADD DUP3 DUP1 SLOAD PUSH2 0xE1E SWAP1 PUSH2 0x1FE6 JUMP JUMPDEST DUP1 ISZERO PUSH2 0xE6B JUMPI DUP1 PUSH1 0x1F LT PUSH2 0xE40 JUMPI PUSH2 0x100 DUP1 DUP4 SLOAD DIV MUL DUP4 MSTORE SWAP2 PUSH1 0x20 ADD SWAP2 PUSH2 0xE6B JUMP JUMPDEST DUP3 ADD SWAP2 SWAP1 PUSH1 0x0 MSTORE PUSH1 0x20 PUSH1 0x0 KECCAK256 SWAP1 JUMPDEST DUP2 SLOAD DUP2 MSTORE SWAP1 PUSH1 0x1 ADD SWAP1 PUSH1 0x20 ADD DUP1 DUP4 GT PUSH2 0xE4E JUMPI DUP3 SWAP1 SUB PUSH1 0x1F AND DUP3 ADD SWAP2 JUMPDEST POP POP POP POP POP SWAP1 DUP1 PUSH1 0x2 ADD PUSH1 0x0 SWAP1 SLOAD SWAP1 PUSH2 0x100 EXP SWAP1 DIV PUSH1 0xFF AND SWAP1 POP DUP4 JUMP JUMPDEST PUSH1 0x9 PUSH1 0x20 MSTORE DUP1 PUSH1 0x0 MSTORE PUSH1 0x40 PUSH1 0x0 KECCAK256 PUSH1 0x0 SWAP2 POP SWAP1 POP DUP1 PUSH1 0x0 ADD PUSH1 0x0 SWAP1 SLOAD SWAP1 PUSH2 0x100 EXP SWAP1 DIV PUSH1 0xFF AND SWAP1 DUP1 PUSH1 0x1 ADD DUP1 SLOAD PUSH2 0xEBE SWAP1 PUSH2 0x1FE6 JUMP JUMPDEST DUP1 PUSH1 0x1F ADD PUSH1 0x20 DUP1 SWAP2 DIV MUL PUSH1 0x20 ADD PUSH1 0x40 MLOAD SWAP1 DUP2 ADD PUSH1 0x40 MSTORE DUP1 SWAP3 SWAP2 SWAP1 DUP2 DUP2 MSTORE PUSH1 0x20 ADD DUP3 DUP1 SLOAD PUSH2 0xEEA SWAP1 PUSH2 0x1FE6 JUMP JUMPDEST DUP1 ISZERO PUSH2 0xF37 JUMPI DUP1 PUSH1 0x1F LT PUSH2 0xF0C JUMPI PUSH2 0x100 DUP1 DUP4 SLOAD DIV MUL DUP4 MSTORE SWAP2 PUSH1 0x20 ADD SWAP2 PUSH2 0xF37 JUMP JUMPDEST DUP3 ADD SWAP2 SWAP1 PUSH1 0x0 MSTORE PUSH1 0x20 PUSH1 0x0 KECCAK256 SWAP1 JUMPDEST DUP2 SLOAD DUP2 MSTORE SWAP1 PUSH1 0x1 ADD SWAP1 PUSH1 0x20 ADD DUP1 DUP4 GT PUSH2 0xF1A JUMPI DUP3 SWAP1 SUB PUSH1 0x1F AND DUP3 ADD SWAP2 JUMPDEST POP POP POP POP POP SWAP1 DUP1 PUSH1 0x2 ADD PUSH1 0x0 SWAP1 SLOAD SWAP1 PUSH2 0x100 EXP SWAP1 DIV PUSH1 0xFF AND SWAP1 POP DUP4 JUMP JUMPDEST PUSH1 0xB PUSH1 0x20 MSTORE DUP1 PUSH1 0x0 MSTORE PUSH1 0x40 PUSH1 0x0 KECCAK256 PUSH1 0x0 SWAP2 POP SWAP1 POP DUP1 PUSH1 0x0 ADD PUSH1 0x0 SWAP1 SLOAD SWAP1 PUSH2 0x100 EXP SWAP1 DIV PUSH4 0xFFFFFFFF AND SWAP1 DUP1 PUSH1 0x1 ADD DUP1 SLOAD PUSH2 0xF8D SWAP1 PUSH2 0x1FE6 JUMP JUMPDEST DUP1 PUSH1 0x1F ADD PUSH1 0x20 DUP1 SWAP2 DIV MUL PUSH1 0x20 ADD PUSH1 0x40 MLOAD SWAP1 DUP2 ADD PUSH1 0x40 MSTORE DUP1 SWAP3 SWAP2 SWAP1 DUP2 DUP2 MSTORE PUSH1 0x20 ADD DUP3 DUP1 SLOAD PUSH2 0xFB9 SWAP1 PUSH2 0x1FE6 JUMP JUMPDEST DUP1 ISZERO PUSH2 0x1006 JUMPI DUP1 PUSH1 0x1F LT PUSH2 0xFDB JUMPI PUSH2 0x100 DUP1 DUP4 SLOAD DIV MUL DUP4 MSTORE SWAP2 PUSH1 0x20 ADD SWAP2 PUSH2 0x1006 JUMP JUMPDEST DUP3 ADD SWAP2 SWAP1 PUSH1 0x0 MSTORE PUSH1 0x20 PUSH1 0x0 KECCAK256 SWAP1 JUMPDEST DUP2 SLOAD DUP2 MSTORE SWAP1 PUSH1 0x1 ADD SWAP1 PUSH1 0x20 ADD DUP1 DUP4 GT PUSH2 0xFE9 JUMPI DUP3 SWAP1 SUB PUSH1 0x1F AND DUP3 ADD SWAP2 JUMPDEST POP POP POP POP POP SWAP1 POP DUP3 JUMP JUMPDEST PUSH1 0xC SLOAD DUP2 JUMP JUMPDEST PUSH1 0x5 PUSH1 0x20 MSTORE DUP1 PUSH1 0x0 MSTORE PUSH1 0x40 PUSH1 0x0 KECCAK256 PUSH1 0x0 SWAP2 POP SWAP1 POP DUP1 PUSH1 0x0 ADD PUSH1 0x0 SWAP1 SLOAD SWAP1 PUSH2 0x100 EXP SWAP1 DIV PUSH1 0xFF AND SWAP1 DUP1 PUSH1 0x0 ADD PUSH1 0x1 SWAP1 SLOAD SWAP1 PUSH2 0x100 EXP SWAP1 DIV PUSH20 0xFFFFFFFFFFFFFFFFFFFFFFFFFFFFFFFFFFFFFFFF AND SWAP1 DUP1 PUSH1 0x0 ADD PUSH1 0x15 SWAP1 SLOAD SWAP1 PUSH2 0x100 EXP SWAP1 DIV PUSH2 0xFFFF AND SWAP1 DUP1 PUSH1 0x0 ADD PUSH1 0x17 SWAP1 SLOAD SWAP1 PUSH2 0x100 EXP SWAP1 DIV PUSH1 0xFF AND SWAP1 DUP1 PUSH1 0x1 ADD DUP1 SLOAD PUSH2 0x1099 SWAP1 PUSH2 0x1FE6 JUMP JUMPDEST DUP1 PUSH1 0x1F ADD PUSH1 0x20 DUP1 SWAP2 DIV MUL PUSH1 0x20 ADD PUSH1 0x40 MLOAD SWAP1 DUP2 ADD PUSH1 0x40 MSTORE DUP1 SWAP3 SWAP2 SWAP1 DUP2 DUP2 MSTORE PUSH1 0x20 ADD DUP3 DUP1 SLOAD PUSH2 0x10C5 SWAP1 PUSH2 0x1FE6 JUMP JUMPDEST DUP1 ISZERO PUSH2 0x1112 JUMPI DUP1 PUSH1 0x1F LT PUSH2 0x10E7 JUMPI PUSH2 0x100 DUP1 DUP4 SLOAD DIV MUL DUP4 MSTORE SWAP2 PUSH1 0x20 ADD SWAP2 PUSH2 0x1112 JUMP JUMPDEST DUP3 ADD SWAP2 SWAP1 PUSH1 0x0 MSTORE PUSH1 0x20 PUSH1 0x0 KECCAK256 SWAP1 JUMPDEST DUP2 SLOAD DUP2 MSTORE SWAP1 PUSH1 0x1 ADD SWAP1 PUSH1 0x20 ADD DUP1 DUP4 GT PUSH2 0x10F5 JUMPI DUP3 SWAP1 SUB PUSH1 0x1F AND DUP3 ADD SWAP2 JUMPDEST POP POP POP POP POP SWAP1 DUP1 PUSH1 0x2 ADD DUP1 SLOAD PUSH2 0x1127 SWAP1 PUSH2 0x1FE6 JUMP JUMPDEST DUP1 PUSH1 0x1F ADD PUSH1 0x20 DUP1 SWAP2 DIV MUL PUSH1 0x20 ADD PUSH1 0x40 MLOAD SWAP1 DUP2 ADD PUSH1 0x40 MSTORE DUP1 SWAP3 SWAP2 SWAP1 DUP2 DUP2 MSTORE PUSH1 0x20 ADD DUP3 DUP1 SLOAD PUSH2 0x1153 SWAP1 PUSH2 0x1FE6 JUMP JUMPDEST DUP1 ISZERO PUSH2 0x11A0 JUMPI DUP1 PUSH1 0x1F LT PUSH2 0x1175 JUMPI PUSH2 0x100 DUP1 DUP4 SLOAD DIV MUL DUP4 MSTORE SWAP2 PUSH1 0x20 ADD SWAP2 PUSH2 0x11A0 JUMP JUMPDEST DUP3 ADD SWAP2 SWAP1 PUSH1 0x0 MSTORE PUSH1 0x20 PUSH1 0x0 KECCAK256 SWAP1 JUMPDEST DUP2 SLOAD DUP2 MSTORE SWAP1 PUSH1 0x1 ADD SWAP1 PUSH1 0x20 ADD DUP1 DUP4 GT PUSH2 0x1183 JUMPI DUP3 SWAP1 SUB PUSH1 0x1F AND DUP3 ADD SWAP2 JUMPDEST POP POP POP POP POP SWAP1 POP DUP7 JUMP JUMPDEST PUSH1 0x4 PUSH1 0x0 CALLER PUSH20 0xFFFFFFFFFFFFFFFFFFFFFFFFFFFFFFFFFFFFFFFF AND PUSH20 0xFFFFFFFFFFFFFFFFFFFFFFFFFFFFFFFFFFFFFFFF AND DUP2 MSTORE PUSH1 0x20 ADD SWAP1 DUP2 MSTORE PUSH1 0x20 ADD PUSH1 0x0 KECCAK256 PUSH1 0x0 ADD PUSH1 0x0 SWAP1 SLOAD SWAP1 PUSH2 0x100 EXP SWAP1 DIV PUSH1 0xFF AND DUP1 PUSH2 0x1251 JUMPI POP PUSH1 0x6 PUSH1 0x0 CALLER PUSH20 0xFFFFFFFFFFFFFFFFFFFFFFFFFFFFFFFFFFFFFFFF AND PUSH20 0xFFFFFFFFFFFFFFFFFFFFFFFFFFFFFFFFFFFFFFFF AND DUP2 MSTORE PUSH1 0x20 ADD SWAP1 DUP2 MSTORE PUSH1 0x20 ADD PUSH1 0x0 KECCAK256 PUSH1 0x0 ADD PUSH1 0x0 SWAP1 SLOAD SWAP1 PUSH2 0x100 EXP SWAP1 DIV PUSH1 0xFF AND JUMPDEST DUP1 PUSH2 0x12A8 JUMPI POP PUSH1 0x8 PUSH1 0x0 CALLER PUSH20 0xFFFFFFFFFFFFFFFFFFFFFFFFFFFFFFFFFFFFFFFF AND PUSH20 0xFFFFFFFFFFFFFFFFFFFFFFFFFFFFFFFFFFFFFFFF AND DUP2 MSTORE PUSH1 0x20 ADD SWAP1 DUP2 MSTORE PUSH1 0x20 ADD PUSH1 0x0 KECCAK256 PUSH1 0x0 ADD PUSH1 0x0 SWAP1 SLOAD SWAP1 PUSH2 0x100 EXP SWAP1 DIV PUSH1 0xFF AND JUMPDEST PUSH2 0x12E7 JUMPI PUSH1 0x40 MLOAD PUSH32 0x8C379A000000000000000000000000000000000000000000000000000000000 DUP2 MSTORE PUSH1 0x4 ADD PUSH2 0x12DE SWAP1 PUSH2 0x1D82 JUMP JUMPDEST PUSH1 0x40 MLOAD DUP1 SWAP2 SUB SWAP1 REVERT JUMPDEST PUSH1 0x3 PUSH1 0x0 DUP9 PUSH20 0xFFFFFFFFFFFFFFFFFFFFFFFFFFFFFFFFFFFFFFFF AND PUSH20 0xFFFFFFFFFFFFFFFFFFFFFFFFFFFFFFFFFFFFFFFF AND DUP2 MSTORE PUSH1 0x20 ADD SWAP1 DUP2 MSTORE PUSH1 0x20 ADD PUSH1 0x0 KECCAK256 PUSH1 0x0 ADD PUSH1 0x0 SWAP1 SLOAD SWAP1 PUSH2 0x100 EXP SWAP1 DIV PUSH1 0xFF AND PUSH2 0x1376 JUMPI PUSH1 0x40 MLOAD PUSH32 0x8C379A000000000000000000000000000000000000000000000000000000000 DUP2 MSTORE PUSH1 0x4 ADD PUSH2 0x136D SWAP1 PUSH2 0x1D62 JUMP JUMPDEST PUSH1 0x40 MLOAD DUP1 SWAP2 SUB SWAP1 REVERT JUMPDEST PUSH1 0x0 PUSH1 0xC PUSH1 0x0 DUP2 SLOAD DUP1 SWAP3 SWAP2 SWAP1 PUSH2 0x138B SWAP1 PUSH2 0x2018 JUMP JUMPDEST SWAP2 SWAP1 POP SSTORE SWAP1 POP DUP7 PUSH1 0xD PUSH1 0x0 DUP11 PUSH20 0xFFFFFFFFFFFFFFFFFFFFFFFFFFFFFFFFFFFFFFFF AND PUSH20 0xFFFFFFFFFFFFFFFFFFFFFFFFFFFFFFFFFFFFFFFF AND DUP2 MSTORE PUSH1 0x20 ADD SWAP1 DUP2 MSTORE PUSH1 0x20 ADD PUSH1 0x0 KECCAK256 PUSH1 0x0 DUP4 DUP2 MSTORE PUSH1 0x20 ADD SWAP1 DUP2 MSTORE PUSH1 0x20 ADD PUSH1 0x0 KECCAK256 PUSH1 0x1 ADD PUSH1 0x0 PUSH2 0x100 EXP DUP2 SLOAD DUP2 PUSH1 0xFF MUL NOT AND SWAP1 DUP4 PUSH1 0x5 DUP2 GT ISZERO PUSH2 0x1407 JUMPI PUSH2 0x1406 PUSH2 0x2090 JUMP JUMPDEST JUMPDEST MUL OR SWAP1 SSTORE POP DUP6 PUSH1 0xD PUSH1 0x0 DUP11 PUSH20 0xFFFFFFFFFFFFFFFFFFFFFFFFFFFFFFFFFFFFFFFF AND PUSH20 0xFFFFFFFFFFFFFFFFFFFFFFFFFFFFFFFFFFFFFFFF AND DUP2 MSTORE PUSH1 0x20 ADD SWAP1 DUP2 MSTORE PUSH1 0x20 ADD PUSH1 0x0 KECCAK256 PUSH1 0x0 DUP4 DUP2 MSTORE PUSH1 0x20 ADD SWAP1 DUP2 MSTORE PUSH1 0x20 ADD PUSH1 0x0 KECCAK256 PUSH1 0x2 ADD DUP2 SWAP1 SSTORE POP DUP5 PUSH1 0xD PUSH1 0x0 DUP11 PUSH20 0xFFFFFFFFFFFFFFFFFFFFFFFFFFFFFFFFFFFFFFFF AND PUSH20 0xFFFFFFFFFFFFFFFFFFFFFFFFFFFFFFFFFFFFFFFF AND DUP2 MSTORE PUSH1 0x20 ADD SWAP1 DUP2 MSTORE PUSH1 0x20 ADD PUSH1 0x0 KECCAK256 PUSH1 0x0 DUP4 DUP2 MSTORE PUSH1 0x20 ADD SWAP1 DUP2 MSTORE PUSH1 0x20 ADD PUSH1 0x0 KECCAK256 PUSH1 0x3 ADD DUP2 SWAP1 SSTORE POP DUP4 PUSH1 0xD PUSH1 0x0 DUP11 PUSH20 0xFFFFFFFFFFFFFFFFFFFFFFFFFFFFFFFFFFFFFFFF AND PUSH20 0xFFFFFFFFFFFFFFFFFFFFFFFFFFFFFFFFFFFFFFFF AND DUP2 MSTORE PUSH1 0x20 ADD SWAP1 DUP2 MSTORE PUSH1 0x20 ADD PUSH1 0x0 KECCAK256 PUSH1 0x0 DUP4 DUP2 MSTORE PUSH1 0x20 ADD SWAP1 DUP2 MSTORE PUSH1 0x20 ADD PUSH1 0x0 KECCAK256 PUSH1 0x4 ADD PUSH1 0x0 PUSH2 0x100 EXP DUP2 SLOAD DUP2 PUSH1 0xFF MUL NOT AND SWAP1 DUP4 PUSH1 0x3 DUP2 GT ISZERO PUSH2 0x1532 JUMPI PUSH2 0x1531 PUSH2 0x2090 JUMP JUMPDEST JUMPDEST MUL OR SWAP1 SSTORE POP DUP3 PUSH1 0xD PUSH1 0x0 DUP11 PUSH20 0xFFFFFFFFFFFFFFFFFFFFFFFFFFFFFFFFFFFFFFFF AND PUSH20 0xFFFFFFFFFFFFFFFFFFFFFFFFFFFFFFFFFFFFFFFF AND DUP2 MSTORE PUSH1 0x20 ADD SWAP1 DUP2 MSTORE PUSH1 0x20 ADD PUSH1 0x0 KECCAK256 PUSH1 0x0 DUP4 DUP2 MSTORE PUSH1 0x20 ADD SWAP1 DUP2 MSTORE PUSH1 0x20 ADD PUSH1 0x0 KECCAK256 PUSH1 0x4 ADD PUSH1 0x1 PUSH2 0x100 EXP DUP2 SLOAD DUP2 PUSH4 0xFFFFFFFF MUL NOT AND SWAP1 DUP4 PUSH4 0xFFFFFFFF AND MUL OR SWAP1 SSTORE POP DUP2 PUSH1 0xD PUSH1 0x0 DUP11 PUSH20 0xFFFFFFFFFFFFFFFFFFFFFFFFFFFFFFFFFFFFFFFF AND PUSH20 0xFFFFFFFFFFFFFFFFFFFFFFFFFFFFFFFFFFFFFFFF AND DUP2 MSTORE PUSH1 0x20 ADD SWAP1 DUP2 MSTORE PUSH1 0x20 ADD PUSH1 0x0 KECCAK256 PUSH1 0x0 DUP4 DUP2 MSTORE PUSH1 0x20 ADD SWAP1 DUP2 MSTORE PUSH1 0x20 ADD PUSH1 0x0 KECCAK256 PUSH1 0x4 ADD PUSH1 0x5 PUSH2 0x100 EXP DUP2 SLOAD DUP2 PUSH1 0xFF MUL NOT AND SWAP1 DUP4 PUSH1 0x3 DUP2 GT ISZERO PUSH2 0x161F JUMPI PUSH2 0x161E PUSH2 0x2090 JUMP JUMPDEST JUMPDEST MUL OR SWAP1 SSTORE POP PUSH1 0x1 PUSH1 0xD PUSH1 0x0 DUP11 PUSH20 0xFFFFFFFFFFFFFFFFFFFFFFFFFFFFFFFFFFFFFFFF AND PUSH20 0xFFFFFFFFFFFFFFFFFFFFFFFFFFFFFFFFFFFFFFFF AND DUP2 MSTORE PUSH1 0x20 ADD SWAP1 DUP2 MSTORE PUSH1 0x20 ADD PUSH1 0x0 KECCAK256 PUSH1 0x0 DUP4 DUP2 MSTORE PUSH1 0x20 ADD SWAP1 DUP2 MSTORE PUSH1 0x20 ADD PUSH1 0x0 KECCAK256 PUSH1 0x5 ADD PUSH1 0x1 ADD PUSH1 0x14 PUSH2 0x100 EXP DUP2 SLOAD DUP2 PUSH1 0xFF MUL NOT AND SWAP1 DUP4 PUSH1 0x2 DUP2 GT ISZERO PUSH2 0x169E JUMPI PUSH2 0x169D PUSH2 0x2090 JUMP JUMPDEST JUMPDEST MUL OR SWAP1 SSTORE POP TIMESTAMP PUSH1 0xD PUSH1 0x0 DUP11 PUSH20 0xFFFFFFFFFFFFFFFFFFFFFFFFFFFFFFFFFFFFFFFF AND PUSH20 0xFFFFFFFFFFFFFFFFFFFFFFFFFFFFFFFFFFFFFFFF AND DUP2 MSTORE PUSH1 0x20 ADD SWAP1 DUP2 MSTORE PUSH1 0x20 ADD PUSH1 0x0 KECCAK256 PUSH1 0x0 DUP4 DUP2 MSTORE PUSH1 0x20 ADD SWAP1 DUP2 MSTORE PUSH1 0x20 ADD PUSH1 0x0 KECCAK256 PUSH1 0x5 ADD PUSH1 0x0 ADD DUP2 SWAP1 SSTORE POP CALLER PUSH1 0xD PUSH1 0x0 DUP11 PUSH20 0xFFFFFFFFFFFFFFFFFFFFFFFFFFFFFFFFFFFFFFFF AND PUSH20 0xFFFFFFFFFFFFFFFFFFFFFFFFFFFFFFFFFFFFFFFF AND DUP2 MSTORE PUSH1 0x20 ADD SWAP1 DUP2 MSTORE PUSH1 0x20 ADD PUSH1 0x0 KECCAK256 PUSH1 0x0 DUP4 DUP2 MSTORE PUSH1 0x20 ADD SWAP1 DUP2 MSTORE PUSH1 0x20 ADD PUSH1 0x0 KECCAK256 PUSH1 0x5 ADD PUSH1 0x1 ADD PUSH1 0x0 PUSH2 0x100 EXP DUP2 SLOAD DUP2 PUSH20 0xFFFFFFFFFFFFFFFFFFFFFFFFFFFFFFFFFFFFFFFF MUL NOT AND SWAP1 DUP4 PUSH20 0xFFFFFFFFFFFFFFFFFFFFFFFFFFFFFFFFFFFFFFFF AND MUL OR SWAP1 SSTORE POP PUSH32 0x1BC8089D220C6C0B90FB65E37237ECB0E793702849C9E0B59B1B3A02FF101206 DUP8 DUP8 DUP8 DUP8 DUP8 PUSH1 0x40 MLOAD PUSH2 0x17CA SWAP6 SWAP5 SWAP4 SWAP3 SWAP2 SWAP1 PUSH2 0x1D0F JUMP JUMPDEST PUSH1 0x40 MLOAD DUP1 SWAP2 SUB SWAP1 LOG1 POP POP POP POP POP POP POP POP JUMP JUMPDEST PUSH1 0x3 PUSH1 0x20 MSTORE DUP1 PUSH1 0x0 MSTORE PUSH1 0x40 PUSH1 0x0 KECCAK256 PUSH1 0x0 SWAP2 POP SWAP1 POP DUP1 PUSH1 0x0 ADD PUSH1 0x0 SWAP1 SLOAD SWAP1 PUSH2 0x100 EXP SWAP1 DIV PUSH1 0xFF AND SWAP1 POP DUP2 JUMP JUMPDEST PUSH1 0x0 DUP2 CALLDATALOAD SWAP1 POP PUSH2 0x1816 DUP2 PUSH2 0x21BA JUMP JUMPDEST SWAP3 SWAP2 POP POP JUMP JUMPDEST PUSH1 0x0 DUP2 CALLDATALOAD SWAP1 POP PUSH2 0x182B DUP2 PUSH2 0x21D1 JUMP JUMPDEST SWAP3 SWAP2 POP POP JUMP JUMPDEST PUSH1 0x0 DUP2 CALLDATALOAD SWAP1 POP PUSH2 0x1840 DUP2 PUSH2 0x21E1 JUMP JUMPDEST SWAP3 SWAP2 POP POP JUMP JUMPDEST PUSH1 0x0 DUP2 CALLDATALOAD SWAP1 POP PUSH2 0x1855 DUP2 PUSH2 0x21F1 JUMP JUMPDEST SWAP3 SWAP2 POP POP JUMP JUMPDEST PUSH1 0x0 DUP2 CALLDATALOAD SWAP1 POP PUSH2 0x186A DUP2 PUSH2 0x2201 JUMP JUMPDEST SWAP3 SWAP2 POP POP JUMP JUMPDEST PUSH1 0x0 DUP2 CALLDATALOAD SWAP1 POP PUSH2 0x187F DUP2 PUSH2 0x2218 JUMP JUMPDEST SWAP3 SWAP2 POP POP JUMP JUMPDEST PUSH1 0x0 PUSH1 0x20 DUP3 DUP5 SUB SLT ISZERO PUSH2 0x189B JUMPI PUSH2 0x189A PUSH2 0x20EE JUMP JUMPDEST JUMPDEST PUSH1 0x0 PUSH2 0x18A9 DUP5 DUP3 DUP6 ADD PUSH2 0x1807 JUMP JUMPDEST SWAP2 POP POP SWAP3 SWAP2 POP POP JUMP JUMPDEST PUSH1 0x0 DUP1 PUSH1 0x0 DUP1 PUSH1 0x0 DUP1 PUSH1 0x0 PUSH1 0xE0 DUP9 DUP11 SUB SLT ISZERO PUSH2 0x18D1 JUMPI PUSH2 0x18D0 PUSH2 0x20EE JUMP JUMPDEST JUMPDEST PUSH1 0x0 PUSH2 0x18DF DUP11 DUP3 DUP12 ADD PUSH2 0x1807 JUMP JUMPDEST SWAP8 POP POP PUSH1 0x20 PUSH2 0x18F0 DUP11 DUP3 DUP12 ADD PUSH2 0x1831 JUMP JUMPDEST SWAP7 POP POP PUSH1 0x40 PUSH2 0x1901 DUP11 DUP3 DUP12 ADD PUSH2 0x185B JUMP JUMPDEST SWAP6 POP POP PUSH1 0x60 PUSH2 0x1912 DUP11 DUP3 DUP12 ADD PUSH2 0x185B JUMP JUMPDEST SWAP5 POP POP PUSH1 0x80 PUSH2 0x1923 DUP11 DUP3 DUP12 ADD PUSH2 0x181C JUMP JUMPDEST SWAP4 POP POP PUSH1 0xA0 PUSH2 0x1934 DUP11 DUP3 DUP12 ADD PUSH2 0x1870 JUMP JUMPDEST SWAP3 POP POP PUSH1 0xC0 PUSH2 0x1945 DUP11 DUP3 DUP12 ADD PUSH2 0x1846 JUMP JUMPDEST SWAP2 POP POP SWAP3 SWAP6 SWAP9 SWAP2 SWAP5 SWAP8 POP SWAP3 SWAP6 POP JUMP JUMPDEST PUSH1 0x0 DUP1 PUSH1 0x40 DUP4 DUP6 SUB SLT ISZERO PUSH2 0x196B JUMPI PUSH2 0x196A PUSH2 0x20EE JUMP JUMPDEST JUMPDEST PUSH1 0x0 PUSH2 0x1979 DUP6 DUP3 DUP7 ADD PUSH2 0x1807 JUMP JUMPDEST SWAP3 POP POP PUSH1 0x20 PUSH2 0x198A DUP6 DUP3 DUP7 ADD PUSH2 0x185B JUMP JUMPDEST SWAP2 POP POP SWAP3 POP SWAP3 SWAP1 POP JUMP JUMPDEST PUSH1 0x0 DUP1 PUSH1 0x0 DUP1 PUSH1 0x0 DUP1 PUSH1 0x0 DUP1 PUSH2 0x100 DUP10 DUP12 SUB SLT ISZERO PUSH2 0x19B5 JUMPI PUSH2 0x19B4 PUSH2 0x20EE JUMP JUMPDEST JUMPDEST PUSH1 0x0 PUSH2 0x19C3 DUP12 DUP3 DUP13 ADD PUSH2 0x1807 JUMP JUMPDEST SWAP9 POP POP PUSH1 0x20 PUSH2 0x19D4 DUP12 DUP3 DUP13 ADD PUSH2 0x185B JUMP JUMPDEST SWAP8 POP POP PUSH1 0x40 PUSH2 0x19E5 DUP12 DUP3 DUP13 ADD PUSH2 0x1831 JUMP JUMPDEST SWAP7 POP POP PUSH1 0x60 PUSH2 0x19F6 DUP12 DUP3 DUP13 ADD PUSH2 0x185B JUMP JUMPDEST SWAP6 POP POP PUSH1 0x80 PUSH2 0x1A07 DUP12 DUP3 DUP13 ADD PUSH2 0x185B JUMP JUMPDEST SWAP5 POP POP PUSH1 0xA0 PUSH2 0x1A18 DUP12 DUP3 DUP13 ADD PUSH2 0x181C JUMP JUMPDEST SWAP4 POP POP PUSH1 0xC0 PUSH2 0x1A29 DUP12 DUP3 DUP13 ADD PUSH2 0x1870 JUMP JUMPDEST SWAP3 POP POP PUSH1 0xE0 PUSH2 0x1A3A DUP12 DUP3 DUP13 ADD PUSH2 0x1846 JUMP JUMPDEST SWAP2 POP POP SWAP3 SWAP6 SWAP9 POP SWAP3 SWAP6 SWAP9 SWAP1 SWAP4 SWAP7 POP JUMP JUMPDEST PUSH1 0x0 PUSH1 0x20 DUP3 DUP5 SUB SLT ISZERO PUSH2 0x1A60 JUMPI PUSH2 0x1A5F PUSH2 0x20EE JUMP JUMPDEST JUMPDEST PUSH1 0x0 PUSH2 0x1A6E DUP5 DUP3 DUP6 ADD PUSH2 0x1870 JUMP JUMPDEST SWAP2 POP POP SWAP3 SWAP2 POP POP JUMP JUMPDEST PUSH2 0x1A80 DUP2 PUSH2 0x1E87 JUMP JUMPDEST DUP3 MSTORE POP POP JUMP JUMPDEST PUSH2 0x1A8F DUP2 PUSH2 0x1E87 JUMP JUMPDEST DUP3 MSTORE POP POP JUMP JUMPDEST PUSH2 0x1A9E DUP2 PUSH2 0x1E99 JUMP JUMPDEST DUP3 MSTORE POP POP JUMP JUMPDEST PUSH2 0x1AAD DUP2 PUSH2 0x1F59 JUMP JUMPDEST DUP3 MSTORE POP POP JUMP JUMPDEST PUSH2 0x1ABC DUP2 PUSH2 0x1F6B JUMP JUMPDEST DUP3 MSTORE POP POP JUMP JUMPDEST PUSH2 0x1ACB DUP2 PUSH2 0x1F7D JUMP JUMPDEST DUP3 MSTORE POP POP JUMP JUMPDEST PUSH2 0x1ADA DUP2 PUSH2 0x1F8F JUMP JUMPDEST DUP3 MSTORE POP POP JUMP JUMPDEST PUSH2 0x1AE9 DUP2 PUSH2 0x1FA1 JUMP JUMPDEST DUP3 MSTORE POP POP JUMP JUMPDEST PUSH1 0x0 PUSH2 0x1AFA DUP3 PUSH2 0x1E6B JUMP JUMPDEST PUSH2 0x1B04 DUP2 DUP6 PUSH2 0x1E76 JUMP JUMPDEST SWAP4 POP PUSH2 0x1B14 DUP2 DUP6 PUSH1 0x20 DUP7 ADD PUSH2 0x1FB3 JUMP JUMPDEST PUSH2 0x1B1D DUP2 PUSH2 0x20F3 JUMP JUMPDEST DUP5 ADD SWAP2 POP POP SWAP3 SWAP2 POP POP JUMP JUMPDEST PUSH1 0x0 PUSH2 0x1B35 PUSH1 0x11 DUP4 PUSH2 0x1E76 JUMP JUMPDEST SWAP2 POP PUSH2 0x1B40 DUP3 PUSH2 0x2104 JUMP JUMPDEST PUSH1 0x20 DUP3 ADD SWAP1 POP SWAP2 SWAP1 POP JUMP JUMPDEST PUSH1 0x0 PUSH2 0x1B58 PUSH1 0x20 DUP4 PUSH2 0x1E76 JUMP JUMPDEST SWAP2 POP PUSH2 0x1B63 DUP3 PUSH2 0x212D JUMP JUMPDEST PUSH1 0x20 DUP3 ADD SWAP1 POP SWAP2 SWAP1 POP JUMP JUMPDEST PUSH1 0x60 DUP3 ADD PUSH1 0x0 DUP3 ADD MLOAD PUSH2 0x1B84 PUSH1 0x0 DUP6 ADD DUP3 PUSH2 0x1BBF JUMP JUMPDEST POP PUSH1 0x20 DUP3 ADD MLOAD PUSH2 0x1B97 PUSH1 0x20 DUP6 ADD DUP3 PUSH2 0x1A77 JUMP JUMPDEST POP PUSH1 0x40 DUP3 ADD MLOAD PUSH2 0x1BAA PUSH1 0x40 DUP6 ADD DUP3 PUSH2 0x1AB3 JUMP JUMPDEST POP POP POP POP JUMP JUMPDEST PUSH2 0x1BB9 DUP2 PUSH2 0x1F04 JUMP JUMPDEST DUP3 MSTORE POP POP JUMP JUMPDEST PUSH2 0x1BC8 DUP2 PUSH2 0x1F32 JUMP JUMPDEST DUP3 MSTORE POP POP JUMP JUMPDEST PUSH2 0x1BD7 DUP2 PUSH2 0x1F32 JUMP JUMPDEST DUP3 MSTORE POP POP JUMP JUMPDEST PUSH2 0x1BE6 DUP2 PUSH2 0x1F3C JUMP JUMPDEST DUP3 MSTORE POP POP JUMP JUMPDEST PUSH2 0x1BF5 DUP2 PUSH2 0x1F4C JUMP JUMPDEST DUP3 MSTORE POP POP JUMP JUMPDEST PUSH1 0x0 PUSH1 0x20 DUP3 ADD SWAP1 POP PUSH2 0x1C10 PUSH1 0x0 DUP4 ADD DUP5 PUSH2 0x1A95 JUMP JUMPDEST SWAP3 SWAP2 POP POP JUMP JUMPDEST PUSH1 0x0 PUSH1 0xC0 DUP3 ADD SWAP1 POP PUSH2 0x1C2B PUSH1 0x0 DUP4 ADD DUP10 PUSH2 0x1A95 JUMP JUMPDEST PUSH2 0x1C38 PUSH1 0x20 DUP4 ADD DUP9 PUSH2 0x1A86 JUMP JUMPDEST PUSH2 0x1C45 PUSH1 0x40 DUP4 ADD DUP8 PUSH2 0x1BB0 JUMP JUMPDEST PUSH2 0x1C52 PUSH1 0x60 DUP4 ADD DUP7 PUSH2 0x1AE0 JUMP JUMPDEST DUP2 DUP2 SUB PUSH1 0x80 DUP4 ADD MSTORE PUSH2 0x1C64 DUP2 DUP6 PUSH2 0x1AEF JUMP JUMPDEST SWAP1 POP DUP2 DUP2 SUB PUSH1 0xA0 DUP4 ADD MSTORE PUSH2 0x1C78 DUP2 DUP5 PUSH2 0x1AEF JUMP JUMPDEST SWAP1 POP SWAP8 SWAP7 POP POP POP POP POP POP POP JUMP JUMPDEST PUSH1 0x0 PUSH1 0x60 DUP3 ADD SWAP1 POP PUSH2 0x1C9A PUSH1 0x0 DUP4 ADD DUP7 PUSH2 0x1A95 JUMP JUMPDEST DUP2 DUP2 SUB PUSH1 0x20 DUP4 ADD MSTORE PUSH2 0x1CAC DUP2 DUP6 PUSH2 0x1AEF JUMP JUMPDEST SWAP1 POP PUSH2 0x1CBB PUSH1 0x40 DUP4 ADD DUP5 PUSH2 0x1BEC JUMP JUMPDEST SWAP5 SWAP4 POP POP POP POP JUMP JUMPDEST PUSH1 0x0 PUSH1 0x80 DUP3 ADD SWAP1 POP PUSH2 0x1CD8 PUSH1 0x0 DUP4 ADD DUP8 PUSH2 0x1A95 JUMP JUMPDEST PUSH2 0x1CE5 PUSH1 0x20 DUP4 ADD DUP7 PUSH2 0x1BEC JUMP JUMPDEST PUSH2 0x1CF2 PUSH1 0x40 DUP4 ADD DUP6 PUSH2 0x1BCE JUMP JUMPDEST DUP2 DUP2 SUB PUSH1 0x60 DUP4 ADD MSTORE PUSH2 0x1D04 DUP2 DUP5 PUSH2 0x1AEF JUMP JUMPDEST SWAP1 POP SWAP6 SWAP5 POP POP POP POP POP JUMP JUMPDEST PUSH1 0x0 PUSH1 0xA0 DUP3 ADD SWAP1 POP PUSH2 0x1D24 PUSH1 0x0 DUP4 ADD DUP9 PUSH2 0x1AC2 JUMP JUMPDEST PUSH2 0x1D31 PUSH1 0x20 DUP4 ADD DUP8 PUSH2 0x1BCE JUMP JUMPDEST PUSH2 0x1D3E PUSH1 0x40 DUP4 ADD DUP7 PUSH2 0x1BCE JUMP JUMPDEST PUSH2 0x1D4B PUSH1 0x60 DUP4 ADD DUP6 PUSH2 0x1AA4 JUMP JUMPDEST PUSH2 0x1D58 PUSH1 0x80 DUP4 ADD DUP5 PUSH2 0x1BDD JUMP JUMPDEST SWAP7 SWAP6 POP POP POP POP POP POP JUMP JUMPDEST PUSH1 0x0 PUSH1 0x20 DUP3 ADD SWAP1 POP DUP2 DUP2 SUB PUSH1 0x0 DUP4 ADD MSTORE PUSH2 0x1D7B DUP2 PUSH2 0x1B28 JUMP JUMPDEST SWAP1 POP SWAP2 SWAP1 POP JUMP JUMPDEST PUSH1 0x0 PUSH1 0x20 DUP3 ADD SWAP1 POP DUP2 DUP2 SUB PUSH1 0x0 DUP4 ADD MSTORE PUSH2 0x1D9B DUP2 PUSH2 0x1B4B JUMP JUMPDEST SWAP1 POP SWAP2 SWAP1 POP JUMP JUMPDEST PUSH1 0x0 PUSH1 0x20 DUP3 ADD SWAP1 POP PUSH2 0x1DB7 PUSH1 0x0 DUP4 ADD DUP5 PUSH2 0x1BCE JUMP JUMPDEST SWAP3 SWAP2 POP POP JUMP JUMPDEST PUSH1 0x0 PUSH2 0x140 DUP3 ADD SWAP1 POP PUSH2 0x1DD3 PUSH1 0x0 DUP4 ADD DUP12 PUSH2 0x1BCE JUMP JUMPDEST PUSH2 0x1DE0 PUSH1 0x20 DUP4 ADD DUP11 PUSH2 0x1AC2 JUMP JUMPDEST PUSH2 0x1DED PUSH1 0x40 DUP4 ADD DUP10 PUSH2 0x1BCE JUMP JUMPDEST PUSH2 0x1DFA PUSH1 0x60 DUP4 ADD DUP9 PUSH2 0x1BCE JUMP JUMPDEST PUSH2 0x1E07 PUSH1 0x80 DUP4 ADD DUP8 PUSH2 0x1AA4 JUMP JUMPDEST PUSH2 0x1E14 PUSH1 0xA0 DUP4 ADD DUP7 PUSH2 0x1BDD JUMP JUMPDEST PUSH2 0x1E21 PUSH1 0xC0 DUP4 ADD DUP6 PUSH2 0x1AD1 JUMP JUMPDEST PUSH2 0x1E2E PUSH1 0xE0 DUP4 ADD DUP5 PUSH2 0x1B6E JUMP JUMPDEST SWAP10 SWAP9 POP POP POP POP POP POP POP POP POP JUMP JUMPDEST PUSH1 0x0 PUSH1 0x40 DUP3 ADD SWAP1 POP PUSH2 0x1E50 PUSH1 0x0 DUP4 ADD DUP6 PUSH2 0x1BDD JUMP JUMPDEST DUP2 DUP2 SUB PUSH1 0x20 DUP4 ADD MSTORE PUSH2 0x1E62 DUP2 DUP5 PUSH2 0x1AEF JUMP JUMPDEST SWAP1 POP SWAP4 SWAP3 POP POP POP JUMP JUMPDEST PUSH1 0x0 DUP2 MLOAD SWAP1 POP SWAP2 SWAP1 POP JUMP JUMPDEST PUSH1 0x0 DUP3 DUP3 MSTORE PUSH1 0x20 DUP3 ADD SWAP1 POP SWAP3 SWAP2 POP POP JUMP JUMPDEST PUSH1 0x0 PUSH2 0x1E92 DUP3 PUSH2 0x1F12 JUMP JUMPDEST SWAP1 POP SWAP2 SWAP1 POP JUMP JUMPDEST PUSH1 0x0 DUP2 ISZERO ISZERO SWAP1 POP SWAP2 SWAP1 POP JUMP JUMPDEST PUSH1 0x0 DUP2 SWAP1 POP PUSH2 0x1EB3 DUP3 PUSH2 0x2156 JUMP JUMPDEST SWAP2 SWAP1 POP JUMP JUMPDEST PUSH1 0x0 DUP2 SWAP1 POP PUSH2 0x1EC6 DUP3 PUSH2 0x216A JUMP JUMPDEST SWAP2 SWAP1 POP JUMP JUMPDEST PUSH1 0x0 DUP2 SWAP1 POP PUSH2 0x1ED9 DUP3 PUSH2 0x217E JUMP JUMPDEST SWAP2 SWAP1 POP JUMP JUMPDEST PUSH1 0x0 DUP2 SWAP1 POP PUSH2 0x1EEC DUP3 PUSH2 0x2192 JUMP JUMPDEST SWAP2 SWAP1 POP JUMP JUMPDEST PUSH1 0x0 DUP2 SWAP1 POP PUSH2 0x1EFF DUP3 PUSH2 0x21A6 JUMP JUMPDEST SWAP2 SWAP1 POP JUMP JUMPDEST PUSH1 0x0 PUSH2 0xFFFF DUP3 AND SWAP1 POP SWAP2 SWAP1 POP JUMP JUMPDEST PUSH1 0x0 PUSH20 0xFFFFFFFFFFFFFFFFFFFFFFFFFFFFFFFFFFFFFFFF DUP3 AND SWAP1 POP SWAP2 SWAP1 POP JUMP JUMPDEST PUSH1 0x0 DUP2 SWAP1 POP SWAP2 SWAP1 POP JUMP JUMPDEST PUSH1 0x0 PUSH4 0xFFFFFFFF DUP3 AND SWAP1 POP SWAP2 SWAP1 POP JUMP JUMPDEST PUSH1 0x0 PUSH1 0xFF DUP3 AND SWAP1 POP SWAP2 SWAP1 POP JUMP JUMPDEST PUSH1 0x0 PUSH2 0x1F64 DUP3 PUSH2 0x1EA5 JUMP JUMPDEST SWAP1 POP SWAP2 SWAP1 POP JUMP JUMPDEST PUSH1 0x0 PUSH2 0x1F76 DUP3 PUSH2 0x1EB8 JUMP JUMPDEST SWAP1 POP SWAP2 SWAP1 POP JUMP JUMPDEST PUSH1 0x0 PUSH2 0x1F88 DUP3 PUSH2 0x1ECB JUMP JUMPDEST SWAP1 POP SWAP2 SWAP1 POP JUMP JUMPDEST PUSH1 0x0 PUSH2 0x1F9A DUP3 PUSH2 0x1EDE JUMP JUMPDEST SWAP1 POP SWAP2 SWAP1 POP JUMP JUMPDEST PUSH1 0x0 PUSH2 0x1FAC DUP3 PUSH2 0x1EF1 JUMP JUMPDEST SWAP1 POP SWAP2 SWAP1 POP JUMP JUMPDEST PUSH1 0x0 JUMPDEST DUP4 DUP2 LT ISZERO PUSH2 0x1FD1 JUMPI DUP1 DUP3 ADD MLOAD DUP2 DUP5 ADD MSTORE PUSH1 0x20 DUP2 ADD SWAP1 POP PUSH2 0x1FB6 JUMP JUMPDEST DUP4 DUP2 GT ISZERO PUSH2 0x1FE0 JUMPI PUSH1 0x0 DUP5 DUP5 ADD MSTORE JUMPDEST POP POP POP POP JUMP JUMPDEST PUSH1 0x0 PUSH1 0x2 DUP3 DIV SWAP1 POP PUSH1 0x1 DUP3 AND DUP1 PUSH2 0x1FFE JUMPI PUSH1 0x7F DUP3 AND SWAP2 POP JUMPDEST PUSH1 0x20 DUP3 LT DUP2 EQ ISZERO PUSH2 0x2012 JUMPI PUSH2 0x2011 PUSH2 0x20BF JUMP JUMPDEST JUMPDEST POP SWAP2 SWAP1 POP JUMP JUMPDEST PUSH1 0x0 PUSH2 0x2023 DUP3 PUSH2 0x1F32 JUMP JUMPDEST SWAP2 POP PUSH32 0xFFFFFFFFFFFFFFFFFFFFFFFFFFFFFFFFFFFFFFFFFFFFFFFFFFFFFFFFFFFFFFFF DUP3 EQ ISZERO PUSH2 0x2056 JUMPI PUSH2 0x2055 PUSH2 0x2061 JUMP JUMPDEST JUMPDEST PUSH1 0x1 DUP3 ADD SWAP1 POP SWAP2 SWAP1 POP JUMP JUMPDEST PUSH32 0x4E487B7100000000000000000000000000000000000000000000000000000000 PUSH1 0x0 MSTORE PUSH1 0x11 PUSH1 0x4 MSTORE PUSH1 0x24 PUSH1 0x0 REVERT JUMPDEST PUSH32 0x4E487B7100000000000000000000000000000000000000000000000000000000 PUSH1 0x0 MSTORE PUSH1 0x21 PUSH1 0x4 MSTORE PUSH1 0x24 PUSH1 0x0 REVERT JUMPDEST PUSH32 0x4E487B7100000000000000000000000000000000000000000000000000000000 PUSH1 0x0 MSTORE PUSH1 0x22 PUSH1 0x4 MSTORE PUSH1 0x24 PUSH1 0x0 REVERT JUMPDEST PUSH1 0x0 DUP1 REVERT JUMPDEST PUSH1 0x0 PUSH1 0x1F NOT PUSH1 0x1F DUP4 ADD AND SWAP1 POP SWAP2 SWAP1 POP JUMP JUMPDEST PUSH32 0x4B697369206D657663757420646567696C000000000000000000000000000000 PUSH1 0x0 DUP3 ADD MSTORE POP JUMP JUMPDEST PUSH32 0x42752069736C656D6920736164656365204B757273207961706162696C69722E PUSH1 0x0 DUP3 ADD MSTORE POP JUMP JUMPDEST PUSH1 0x4 DUP2 LT PUSH2 0x2167 JUMPI PUSH2 0x2166 PUSH2 0x2090 JUMP JUMPDEST JUMPDEST POP JUMP JUMPDEST PUSH1 0x3 DUP2 LT PUSH2 0x217B JUMPI PUSH2 0x217A PUSH2 0x2090 JUMP JUMPDEST JUMPDEST POP JUMP JUMPDEST PUSH1 0x6 DUP2 LT PUSH2 0x218F JUMPI PUSH2 0x218E PUSH2 0x2090 JUMP JUMPDEST JUMPDEST POP JUMP JUMPDEST PUSH1 0x4 DUP2 LT PUSH2 0x21A3 JUMPI PUSH2 0x21A2 PUSH2 0x2090 JUMP JUMPDEST JUMPDEST POP JUMP JUMPDEST PUSH1 0x4 DUP2 LT PUSH2 0x21B7 JUMPI PUSH2 0x21B6 PUSH2 0x2090 JUMP JUMPDEST JUMPDEST POP JUMP JUMPDEST PUSH2 0x21C3 DUP2 PUSH2 0x1E87 JUMP JUMPDEST DUP2 EQ PUSH2 0x21CE JUMPI PUSH1 0x0 DUP1 REVERT JUMPDEST POP JUMP JUMPDEST PUSH1 0x4 DUP2 LT PUSH2 0x21DE JUMPI PUSH1 0x0 DUP1 REVERT JUMPDEST POP JUMP JUMPDEST PUSH1 0x6 DUP2 LT PUSH2 0x21EE JUMPI PUSH1 0x0 DUP1 REVERT JUMPDEST POP JUMP JUMPDEST PUSH1 0x4 DUP2 LT PUSH2 0x21FE JUMPI PUSH1 0x0 DUP1 REVERT JUMPDEST POP JUMP JUMPDEST PUSH2 0x220A DUP2 PUSH2 0x1F32 JUMP JUMPDEST DUP2 EQ PUSH2 0x2215 JUMPI PUSH1 0x0 DUP1 REVERT JUMPDEST POP JUMP JUMPDEST PUSH2 0x2221 DUP2 PUSH2 0x1F3C JUMP JUMPDEST DUP2 EQ PUSH2 0x222C JUMPI PUSH1 0x0 DUP1 REVERT JUMPDEST POP JUMP INVALID LOG2 PUSH5 0x6970667358 0x22 SLT KECCAK256 GT 0x26 0xDF GT PUSH8 0x75E899F948DFB0AD SWAP10 0x27 LT DUP4 CALLVALUE AND 0xB7 ORIGIN 0xDA SUB 0xB6 MULMOD CHAINID PUSH19 0x345D4708F364736F6C63430008070033000000 "
		},
		"gasEstimates": {
			"creation": {
				"codeDepositCost": "1761000",
				"executionCost": "1855",
				"totalCost": "1762855"
			},
			"external": {
				"akademisyenler(address)": "infinite",
				"diller(uint32)": "infinite",
				"ekleYabanciDilBilgi(address,uint8,uint256,uint256,uint8,uint32,uint8)": "infinite",
				"firmalar(address)": "infinite",
				"guncelleYabanciDilBilgi(address,uint256,uint8,uint256,uint256,uint8,uint32,uint8)": "infinite",
				"id()": "2451",
				"kamuKurumlari(address)": "infinite",
				"kisiler(address)": "2958",
				"kurslar(address)": "infinite",
				"sertifikaMerkezleri(address)": "infinite",
				"stklar(address)": "infinite",
				"universiteler(address)": "infinite",
				"yabanciDilBilgiListesi(address,uint256)": "infinite"
			}
		},
		"methodIdentifiers": {
			"akademisyenler(address)": "ba479b7e",
			"diller(uint32)": "a4e7ae05",
			"ekleYabanciDilBilgi(address,uint8,uint256,uint256,uint8,uint32,uint8)": "c0942d97",
			"firmalar(address)": "39987f94",
			"guncelleYabanciDilBilgi(address,uint256,uint8,uint256,uint256,uint8,uint32,uint8)": "1a0dda7f",
			"id()": "af640d0f",
			"kamuKurumlari(address)": "7d0fa287",
			"kisiler(address)": "cbc92809",
			"kurslar(address)": "1916e139",
			"sertifikaMerkezleri(address)": "356b1f1e",
			"stklar(address)": "9a8c9119",
			"universiteler(address)": "28266697",
			"yabanciDilBilgiListesi(address,uint256)": "64b2c66b"
		}
	},
	"abi": [
		{
			"anonymous": false,
			"inputs": [
				{
					"indexed": false,
					"internalType": "enum BaseContract.OnaylayanKurum",
					"name": "_onaylayanKurumTipi",
					"type": "uint8"
				},
				{
					"indexed": false,
					"internalType": "uint256",
					"name": "_basTarih",
					"type": "uint256"
				},
				{
					"indexed": false,
					"internalType": "uint256",
					"name": "_bitTarih",
					"type": "uint256"
				},
				{
					"indexed": false,
					"internalType": "enum EgitimBilgileri.OgretimTipi",
					"name": "_ogretimTipi",
					"type": "uint8"
				},
				{
					"indexed": false,
					"internalType": "uint32",
					"name": "_dilId",
					"type": "uint32"
				}
			],
			"name": "YabanciDilEklendiLog",
			"type": "event"
		},
		{
			"anonymous": false,
			"inputs": [
				{
					"indexed": false,
					"internalType": "enum BaseContract.OnaylayanKurum",
					"name": "_onaylayanKurumTipi",
					"type": "uint8"
				},
				{
					"indexed": false,
					"internalType": "uint256",
					"name": "_basTarih",
					"type": "uint256"
				},
				{
					"indexed": false,
					"internalType": "uint256",
					"name": "_bitTarih",
					"type": "uint256"
				},
				{
					"indexed": false,
					"internalType": "enum EgitimBilgileri.OgretimTipi",
					"name": "_ogretimTipi",
					"type": "uint8"
				},
				{
					"indexed": false,
					"internalType": "uint32",
					"name": "_dilId",
					"type": "uint32"
				}
			],
			"name": "YabanciDilGuncellendiLog",
			"type": "event"
		},
		{
			"inputs": [
				{
					"internalType": "address",
					"name": "",
					"type": "address"
				}
			],
			"name": "akademisyenler",
			"outputs": [
				{
					"internalType": "bool",
					"name": "durum",
					"type": "bool"
				},
				{
					"internalType": "address",
					"name": "universite",
					"type": "address"
				},
				{
					"internalType": "uint16",
					"name": "bolum",
					"type": "uint16"
				},
				{
					"internalType": "enum BaseContract.Unvan",
					"name": "unvan",
					"type": "uint8"
				},
				{
					"internalType": "string",
					"name": "ad",
					"type": "string"
				},
				{
					"internalType": "string",
					"name": "soyad",
					"type": "string"
				}
			],
			"stateMutability": "view",
			"type": "function"
		},
		{
			"inputs": [
				{
					"internalType": "uint32",
					"name": "",
					"type": "uint32"
				}
			],
			"name": "diller",
			"outputs": [
				{
					"internalType": "uint32",
					"name": "id",
					"type": "uint32"
				},
				{
					"internalType": "string",
					"name": "isim",
					"type": "string"
				}
			],
			"stateMutability": "view",
			"type": "function"
		},
		{
			"inputs": [
				{
					"internalType": "address",
					"name": "_kisiAddress",
					"type": "address"
				},
				{
					"internalType": "enum BaseContract.OnaylayanKurum",
					"name": "onayKurumTipi",
					"type": "uint8"
				},
				{
					"internalType": "uint256",
					"name": "basTarih",
					"type": "uint256"
				},
				{
					"internalType": "uint256",
					"name": "bitTarih",
					"type": "uint256"
				},
				{
					"internalType": "enum EgitimBilgileri.OgretimTipi",
					"name": "ogretimTipi",
					"type": "uint8"
				},
				{
					"internalType": "uint32",
					"name": "dilId",
					"type": "uint32"
				},
				{
					"internalType": "enum BaseContract.Seviye",
					"name": "seviye",
					"type": "uint8"
				}
			],
			"name": "ekleYabanciDilBilgi",
			"outputs": [],
			"stateMutability": "nonpayable",
			"type": "function"
		},
		{
			"inputs": [
				{
					"internalType": "address",
					"name": "",
					"type": "address"
				}
			],
			"name": "firmalar",
			"outputs": [
				{
					"internalType": "bool",
					"name": "durum",
					"type": "bool"
				},
				{
					"internalType": "uint8",
					"name": "ulke",
					"type": "uint8"
				},
				{
					"internalType": "uint256",
					"name": "vergiNo",
					"type": "uint256"
				},
				{
					"internalType": "string",
					"name": "isim",
					"type": "string"
				}
			],
			"stateMutability": "view",
			"type": "function"
		},
		{
			"inputs": [
				{
					"internalType": "address",
					"name": "_kisiAddress",
					"type": "address"
				},
				{
					"internalType": "uint256",
					"name": "ydBilgiId",
					"type": "uint256"
				},
				{
					"internalType": "enum BaseContract.OnaylayanKurum",
					"name": "onayKurumTipi",
					"type": "uint8"
				},
				{
					"internalType": "uint256",
					"name": "basTarih",
					"type": "uint256"
				},
				{
					"internalType": "uint256",
					"name": "bitTarih",
					"type": "uint256"
				},
				{
					"internalType": "enum EgitimBilgileri.OgretimTipi",
					"name": "ogretimTipi",
					"type": "uint8"
				},
				{
					"internalType": "uint32",
					"name": "dilId",
					"type": "uint32"
				},
				{
					"internalType": "enum BaseContract.Seviye",
					"name": "seviye",
					"type": "uint8"
				}
			],
			"name": "guncelleYabanciDilBilgi",
			"outputs": [
				{
					"internalType": "uint256",
					"name": "",
					"type": "uint256"
				}
			],
			"stateMutability": "nonpayable",
			"type": "function"
		},
		{
			"inputs": [],
			"name": "id",
			"outputs": [
				{
					"internalType": "uint256",
					"name": "",
					"type": "uint256"
				}
			],
			"stateMutability": "view",
			"type": "function"
		},
		{
			"inputs": [
				{
					"internalType": "address",
					"name": "",
					"type": "address"
				}
			],
			"name": "kamuKurumlari",
			"outputs": [
				{
					"internalType": "bool",
					"name": "durum",
					"type": "bool"
				},
				{
					"internalType": "string",
					"name": "isim",
					"type": "string"
				},
				{
					"internalType": "uint8",
					"name": "ulke",
					"type": "uint8"
				}
			],
			"stateMutability": "view",
			"type": "function"
		},
		{
			"inputs": [
				{
					"internalType": "address",
					"name": "",
					"type": "address"
				}
			],
			"name": "kisiler",
			"outputs": [
				{
					"internalType": "bool",
					"name": "durum",
					"type": "bool"
				}
			],
			"stateMutability": "view",
			"type": "function"
		},
		{
			"inputs": [
				{
					"internalType": "address",
					"name": "",
					"type": "address"
				}
			],
			"name": "kurslar",
			"outputs": [
				{
					"internalType": "bool",
					"name": "durum",
					"type": "bool"
				},
				{
					"internalType": "string",
					"name": "isim",
					"type": "string"
				},
				{
					"internalType": "uint8",
					"name": "ulke",
					"type": "uint8"
				}
			],
			"stateMutability": "view",
			"type": "function"
		},
		{
			"inputs": [
				{
					"internalType": "address",
					"name": "",
					"type": "address"
				}
			],
			"name": "sertifikaMerkezleri",
			"outputs": [
				{
					"internalType": "bool",
					"name": "durum",
					"type": "bool"
				},
				{
					"internalType": "string",
					"name": "isim",
					"type": "string"
				},
				{
					"internalType": "uint8",
					"name": "ulke",
					"type": "uint8"
				}
			],
			"stateMutability": "view",
			"type": "function"
		},
		{
			"inputs": [
				{
					"internalType": "address",
					"name": "",
					"type": "address"
				}
			],
			"name": "stklar",
			"outputs": [
				{
					"internalType": "bool",
					"name": "durum",
					"type": "bool"
				},
				{
					"internalType": "string",
					"name": "isim",
					"type": "string"
				},
				{
					"internalType": "uint8",
					"name": "ulke",
					"type": "uint8"
				}
			],
			"stateMutability": "view",
			"type": "function"
		},
		{
			"inputs": [
				{
					"internalType": "address",
					"name": "",
					"type": "address"
				}
			],
			"name": "universiteler",
			"outputs": [
				{
					"internalType": "bool",
					"name": "durum",
					"type": "bool"
				},
				{
					"internalType": "string",
					"name": "isim",
					"type": "string"
				},
				{
					"internalType": "uint8",
					"name": "ulke",
					"type": "uint8"
				}
			],
			"stateMutability": "view",
			"type": "function"
		},
		{
			"inputs": [
				{
					"internalType": "address",
					"name": "",
					"type": "address"
				},
				{
					"internalType": "uint256",
					"name": "",
					"type": "uint256"
				}
			],
			"name": "yabanciDilBilgiListesi",
			"outputs": [
				{
					"internalType": "uint256",
					"name": "id",
					"type": "uint256"
				},
				{
					"internalType": "enum BaseContract.OnaylayanKurum",
					"name": "onayKurumTipi",
					"type": "uint8"
				},
				{
					"internalType": "uint256",
					"name": "basTarih",
					"type": "uint256"
				},
				{
					"internalType": "uint256",
					"name": "bitTarih",
					"type": "uint256"
				},
				{
					"internalType": "enum EgitimBilgileri.OgretimTipi",
					"name": "ogretimTipi",
					"type": "uint8"
				},
				{
					"internalType": "uint32",
					"name": "dilId",
					"type": "uint32"
				},
				{
					"internalType": "enum BaseContract.Seviye",
					"name": "seviye",
					"type": "uint8"
				},
				{
					"components": [
						{
							"internalType": "uint256",
							"name": "zaman",
							"type": "uint256"
						},
						{
							"internalType": "address",
							"name": "adres",
							"type": "address"
						},
						{
							"internalType": "enum BaseContract.OnayDurum",
							"name": "durum",
							"type": "uint8"
						}
					],
					"internalType": "struct BaseContract.Onay",
					"name": "onayBilgi",
					"type": "tuple"
				}
			],
			"stateMutability": "view",
			"type": "function"
		}
	]
}