{
	"data": {
		"bytecode": {
			"linkReferences": {},
			"object": "60806040523480156200001157600080fd5b506040516200490438038062004904833981810160405281019062000037919062000096565b80600d60006101000a81548173ffffffffffffffffffffffffffffffffffffffff021916908373ffffffffffffffffffffffffffffffffffffffff160217905550506200011b565b600081519050620000908162000101565b92915050565b600060208284031215620000af57620000ae620000fc565b5b6000620000bf848285016200007f565b91505092915050565b6000620000d582620000dc565b9050919050565b600073ffffffffffffffffffffffffffffffffffffffff82169050919050565b600080fd5b6200010c81620000c8565b81146200011857600080fd5b50565b6147d9806200012b6000396000f3fe608060405234801561001057600080fd5b50600436106102055760003560e01c80637d0fa2871161011a578063c0942d97116100ad578063e24047ca1161007c578063e24047ca146106bf578063e5130508146106ef578063f0040eb91461071f578063f54acc651461074f578063f63c649f1461076b57610205565b8063c0942d9714610627578063cbc9280914610643578063d25aab8514610673578063d73964141461068f57610205565b8063a4e7ae05116100e9578063a4e7ae0514610573578063af640d0f146105a4578063b98ccefd146105c2578063ba479b7e146105f257610205565b80637d0fa287146104c35780638c848885146104f55780639a8c9119146105255780639dc301141461055757610205565b8063282666971161019d57806339987f941161016c57806339987f94146103ee5780634622485314610421578063514e03c71461043d57806364b2c66b1461046d57806371af892d146104a557610205565b8063282666971461033e5780632d087d7014610370578063356b1f1e146103a057806336fd2633146103d257610205565b8063139884ec116101d9578063139884ec1461029057806319023bf3146102c05780631916e139146102dc5780631a0dda7f1461030e57610205565b80621d54ab1461020a578063011c05e114610226578063024eb6bc1461024257806303c3abc414610272575b600080fd5b610224600480360381019061021f9190613808565b610787565b005b610240600480360381019061023b919061396d565b6108e2565b005b61025c60048036038101906102579190613663565b610f32565b6040516102699190613d81565b60405180910390f35b61027a610f8b565b6040516102879190613d13565b60405180910390f35b6102aa60048036038101906102a59190613663565b610fb4565b6040516102b79190613d81565b60405180910390f35b6102da60048036038101906102d59190613808565b61100e565b005b6102f660048036038101906102f19190613663565b611169565b60405161030593929190613e0b565b60405180910390f35b610328600480360381019061032391906138b7565b611235565b6040516103359190614048565b60405180910390f35b61035860048036038101906103539190613663565b611a70565b60405161036793929190613e0b565b60405180910390f35b61038a60048036038101906103859190613663565b611b3c565b6040516103979190613d81565b60405180910390f35b6103ba60048036038101906103b59190613663565b611b95565b6040516103c993929190613e0b565b60405180910390f35b6103ec60048036038101906103e79190613690565b611c61565b005b61040860048036038101906104039190613663565b611d28565b6040516104189493929190613e49565b60405180910390f35b61043b60048036038101906104369190613808565b611dfa565b005b61045760048036038101906104529190613663565b611f55565b6040516104649190613d81565b60405180910390f35b61048760048036038101906104829190613877565b611fae565b60405161049c99989796959493929190614063565b60405180910390f35b6104ad612105565b6040516104ba9190613d13565b60405180910390f35b6104dd60048036038101906104d89190613663565b612129565b6040516104ec93929190613e0b565b60405180910390f35b61050f600480360381019061050a9190613663565b6121f5565b60405161051c9190613d81565b60405180910390f35b61053f600480360381019061053a9190613663565b61224e565b60405161054e93929190613e0b565b60405180910390f35b610571600480360381019061056c9190613808565b61231a565b005b61058d60048036038101906105889190613a27565b612475565b60405161059b9291906140f0565b60405180910390f35b6105ac612531565b6040516105b99190614048565b60405180910390f35b6105dc60048036038101906105d79190613663565b612537565b6040516105e99190613d81565b60405180910390f35b61060c60048036038101906106079190613663565b612590565b60405161061e96959493929190613d9c565b60405180910390f35b610641600480360381019061063c91906136e3565b612724565b005b61065d60048036038101906106589190613663565b612f74565b60405161066a9190613d81565b60405180910390f35b61068d60048036038101906106889190613785565b612f9f565b005b6106a960048036038101906106a49190613663565b613142565b6040516106b69190613d81565b60405180910390f35b6106d960048036038101906106d49190613663565b61319a565b6040516106e69190613d81565b60405180910390f35b61070960048036038101906107049190613663565b6131f3565b6040516107169190613d81565b60405180910390f35b61073960048036038101906107349190613663565b61324d565b6040516107469190613d81565b60405180910390f35b61076960048036038101906107649190613663565b6132a6565b005b61078560048036038101906107809190613808565b61334d565b005b6107908361324d565b156107d0576040517f08c379a00000000000000000000000000000000000000000000000000000000081526004016107c790613fa8565b60405180910390fd5b6001600460008573ffffffffffffffffffffffffffffffffffffffff1673ffffffffffffffffffffffffffffffffffffffff16815260200190815260200160002060000160006101000a81548160ff02191690831515021790555081600460008573ffffffffffffffffffffffffffffffffffffffff1673ffffffffffffffffffffffffffffffffffffffff16815260200190815260200160002060010190805190602001906108819291906134a8565b5080600460008573ffffffffffffffffffffffffffffffffffffffff1673ffffffffffffffffffffffffffffffffffffffff16815260200190815260200160002060020160006101000a81548160ff021916908360ff160217905550505050565b600d60009054906101000a900473ffffffffffffffffffffffffffffffffffffffff1673ffffffffffffffffffffffffffffffffffffffff1663b98ccefd336040518263ffffffff1660e01b815260040161093d9190613d13565b60206040518083038186803b15801561095557600080fd5b505afa158015610969573d6000803e3d6000fd5b505050506040513d601f19601f8201168201806040525081019061098d91906139fa565b6109cc576040517f08c379a00000000000000000000000000000000000000000000000000000000081526004016109c390613f28565b60405180910390fd5b600d60009054906101000a900473ffffffffffffffffffffffffffffffffffffffff1673ffffffffffffffffffffffffffffffffffffffff1663b98ccefd336040518263ffffffff1660e01b8152600401610a279190613d13565b60206040518083038186803b158015610a3f57600080fd5b505afa158015610a53573d6000803e3d6000fd5b505050506040513d601f19601f82011682018060405250810190610a7791906139fa565b610ab6576040517f08c379a0000000000000000000000000000000000000000000000000000000008152600401610aad90613fe8565b60405180910390fd5b6000600c6000815480929190610acb90614363565b91905055905086600e60003373ffffffffffffffffffffffffffffffffffffffff1673ffffffffffffffffffffffffffffffffffffffff168152602001908152602001600020600083815260200190815260200160002060010160006101000a81548173ffffffffffffffffffffffffffffffffffffffff021916908373ffffffffffffffffffffffffffffffffffffffff16021790555085600e60003373ffffffffffffffffffffffffffffffffffffffff1673ffffffffffffffffffffffffffffffffffffffff16815260200190815260200160002060008381526020019081526020016000206002018190555084600e60003373ffffffffffffffffffffffffffffffffffffffff1673ffffffffffffffffffffffffffffffffffffffff16815260200190815260200160002060008381526020019081526020016000206003018190555083600e60003373ffffffffffffffffffffffffffffffffffffffff1673ffffffffffffffffffffffffffffffffffffffff168152602001908152602001600020600083815260200190815260200160002060040160006101000a81548160ff02191690836003811115610c8957610c886143db565b5b021790555082600e60003373ffffffffffffffffffffffffffffffffffffffff1673ffffffffffffffffffffffffffffffffffffffff168152602001908152602001600020600083815260200190815260200160002060040160016101000a81548163ffffffff021916908363ffffffff16021790555081600e60003373ffffffffffffffffffffffffffffffffffffffff1673ffffffffffffffffffffffffffffffffffffffff168152602001908152602001600020600083815260200190815260200160002060040160056101000a81548160ff02191690836003811115610d7657610d756143db565b5b02179055506000600e60003373ffffffffffffffffffffffffffffffffffffffff1673ffffffffffffffffffffffffffffffffffffffff168152602001908152602001600020600083815260200190815260200160002060050160010160146101000a81548160ff02191690836002811115610df557610df46143db565b5b021790555042600e60003373ffffffffffffffffffffffffffffffffffffffff1673ffffffffffffffffffffffffffffffffffffffff16815260200190815260200160002060008381526020019081526020016000206005016000018190555033600e60003373ffffffffffffffffffffffffffffffffffffffff1673ffffffffffffffffffffffffffffffffffffffff168152602001908152602001600020600083815260200190815260200160002060050160010160006101000a81548173ffffffffffffffffffffffffffffffffffffffff021916908373ffffffffffffffffffffffffffffffffffffffff1602179055507f3360922f476ca526045a942931f1a0e5fcbb757198f9c8b62f92c872e9a776888787878787604051610f21959493929190613d2e565b60405180910390a150505050505050565b6000600760008373ffffffffffffffffffffffffffffffffffffffff1673ffffffffffffffffffffffffffffffffffffffff16815260200190815260200160002060000160009054906101000a900460ff169050919050565b60008060009054906101000a900473ffffffffffffffffffffffffffffffffffffffff16905090565b60008173ffffffffffffffffffffffffffffffffffffffff16600160009054906101000a900473ffffffffffffffffffffffffffffffffffffffff1673ffffffffffffffffffffffffffffffffffffffff16149050919050565b611017836121f5565b15611057576040517f08c379a000000000000000000000000000000000000000000000000000000000815260040161104e90613f88565b60405180910390fd5b6001600960008573ffffffffffffffffffffffffffffffffffffffff1673ffffffffffffffffffffffffffffffffffffffff16815260200190815260200160002060000160006101000a81548160ff02191690831515021790555081600960008573ffffffffffffffffffffffffffffffffffffffff1673ffffffffffffffffffffffffffffffffffffffff16815260200190815260200160002060010190805190602001906111089291906134a8565b5080600960008573ffffffffffffffffffffffffffffffffffffffff1673ffffffffffffffffffffffffffffffffffffffff16815260200190815260200160002060020160006101000a81548160ff021916908360ff160217905550505050565b60076020528060005260406000206000915090508060000160009054906101000a900460ff169080600101805461119f90614300565b80601f01602080910402602001604051908101604052809291908181526020018280546111cb90614300565b80156112185780601f106111ed57610100808354040283529160200191611218565b820191906000526020600020905b8154815290600101906020018083116111fb57829003601f168201915b5050505050908060020160009054906101000a900460ff16905083565b6000600d60009054906101000a900473ffffffffffffffffffffffffffffffffffffffff1673ffffffffffffffffffffffffffffffffffffffff1663f0040eb9336040518263ffffffff1660e01b81526004016112929190613d13565b60206040518083038186803b1580156112aa57600080fd5b505afa1580156112be573d6000803e3d6000fd5b505050506040513d601f19601f820116820180604052508101906112e291906139fa565b806113945750600d60009054906101000a900473ffffffffffffffffffffffffffffffffffffffff1673ffffffffffffffffffffffffffffffffffffffff16632d087d70336040518263ffffffff1660e01b81526004016113439190613d13565b60206040518083038186803b15801561135b57600080fd5b505afa15801561136f573d6000803e3d6000fd5b505050506040513d601f19601f8201168201806040525081019061139391906139fa565b5b806114465750600d60009054906101000a900473ffffffffffffffffffffffffffffffffffffffff1673ffffffffffffffffffffffffffffffffffffffff1663514e03c7336040518263ffffffff1660e01b81526004016113f59190613d13565b60206040518083038186803b15801561140d57600080fd5b505afa158015611421573d6000803e3d6000fd5b505050506040513d601f19601f8201168201806040525081019061144591906139fa565b5b806114f85750600d60009054906101000a900473ffffffffffffffffffffffffffffffffffffffff1673ffffffffffffffffffffffffffffffffffffffff1663024eb6bc336040518263ffffffff1660e01b81526004016114a79190613d13565b60206040518083038186803b1580156114bf57600080fd5b505afa1580156114d3573d6000803e3d6000fd5b505050506040513d601f19601f820116820180604052508101906114f791906139fa565b5b611537576040517f08c379a000000000000000000000000000000000000000000000000000000000815260040161152e90613f68565b60405180910390fd5b600d60009054906101000a900473ffffffffffffffffffffffffffffffffffffffff1673ffffffffffffffffffffffffffffffffffffffff1663b98ccefd8a6040518263ffffffff1660e01b81526004016115929190613d13565b60206040518083038186803b1580156115aa57600080fd5b505afa1580156115be573d6000803e3d6000fd5b505050506040513d601f19601f820116820180604052508101906115e291906139fa565b611621576040517f08c379a000000000000000000000000000000000000000000000000000000000815260040161161890614008565b60405180910390fd5b86600e60008b73ffffffffffffffffffffffffffffffffffffffff1673ffffffffffffffffffffffffffffffffffffffff16815260200190815260200160002060008a815260200190815260200160002060010160146101000a81548160ff02191690836005811115611697576116966143db565b5b021790555085600e60008b73ffffffffffffffffffffffffffffffffffffffff1673ffffffffffffffffffffffffffffffffffffffff16815260200190815260200160002060008a81526020019081526020016000206002018190555084600e60008b73ffffffffffffffffffffffffffffffffffffffff1673ffffffffffffffffffffffffffffffffffffffff16815260200190815260200160002060008a81526020019081526020016000206003018190555083600e60008b73ffffffffffffffffffffffffffffffffffffffff1673ffffffffffffffffffffffffffffffffffffffff16815260200190815260200160002060008a815260200190815260200160002060040160006101000a81548160ff021916908360038111156117c2576117c16143db565b5b021790555082600e60008b73ffffffffffffffffffffffffffffffffffffffff1673ffffffffffffffffffffffffffffffffffffffff16815260200190815260200160002060008a815260200190815260200160002060040160016101000a81548163ffffffff021916908363ffffffff16021790555081600e60008b73ffffffffffffffffffffffffffffffffffffffff1673ffffffffffffffffffffffffffffffffffffffff16815260200190815260200160002060008a815260200190815260200160002060040160056101000a81548160ff021916908360038111156118af576118ae6143db565b5b02179055506001600e60008b73ffffffffffffffffffffffffffffffffffffffff1673ffffffffffffffffffffffffffffffffffffffff16815260200190815260200160002060008a815260200190815260200160002060050160010160146101000a81548160ff0219169083600281111561192e5761192d6143db565b5b021790555042600e60008b73ffffffffffffffffffffffffffffffffffffffff1673ffffffffffffffffffffffffffffffffffffffff16815260200190815260200160002060008a81526020019081526020016000206005016000018190555033600e60008b73ffffffffffffffffffffffffffffffffffffffff1673ffffffffffffffffffffffffffffffffffffffff16815260200190815260200160002060008a815260200190815260200160002060050160010160006101000a81548173ffffffffffffffffffffffffffffffffffffffff021916908373ffffffffffffffffffffffffffffffffffffffff1602179055507e8fdfffa514a537dacb0033300463694b1566a2286bfb76f047f70377b990e78787878787604051611a59959493929190613e95565b60405180910390a187905098975050505050505050565b60046020528060005260406000206000915090508060000160009054906101000a900460ff1690806001018054611aa690614300565b80601f0160208091040260200160405190810160405280929190818152602001828054611ad290614300565b8015611b1f5780601f10611af457610100808354040283529160200191611b1f565b820191906000526020600020905b815481529060010190602001808311611b0257829003601f168201915b5050505050908060020160009054906101000a900460ff16905083565b6000600660008373ffffffffffffffffffffffffffffffffffffffff1673ffffffffffffffffffffffffffffffffffffffff16815260200190815260200160002060000160009054906101000a900460ff169050919050565b600a6020528060005260406000206000915090508060000160009054906101000a900460ff1690806001018054611bcb90614300565b80601f0160208091040260200160405190810160405280929190818152602001828054611bf790614300565b8015611c445780601f10611c1957610100808354040283529160200191611c44565b820191906000526020600020905b815481529060010190602001808311611c2757829003601f168201915b5050505050908060020160009054906101000a900460ff16905083565b826000806101000a81548173ffffffffffffffffffffffffffffffffffffffff021916908373ffffffffffffffffffffffffffffffffffffffff16021790555081600160006101000a81548173ffffffffffffffffffffffffffffffffffffffff021916908373ffffffffffffffffffffffffffffffffffffffff16021790555080600260006101000a81548173ffffffffffffffffffffffffffffffffffffffff021916908373ffffffffffffffffffffffffffffffffffffffff160217905550505050565b60066020528060005260406000206000915090508060000160009054906101000a900460ff16908060000160019054906101000a900460ff1690806001015490806002018054611d7790614300565b80601f0160208091040260200160405190810160405280929190818152602001828054611da390614300565b8015611df05780601f10611dc557610100808354040283529160200191611df0565b820191906000526020600020905b815481529060010190602001808311611dd357829003601f168201915b5050505050905084565b611e0383610f32565b15611e43576040517f08c379a0000000000000000000000000000000000000000000000000000000008152600401611e3a90613ee8565b60405180910390fd5b6001600760008573ffffffffffffffffffffffffffffffffffffffff1673ffffffffffffffffffffffffffffffffffffffff16815260200190815260200160002060000160006101000a81548160ff02191690831515021790555081600760008573ffffffffffffffffffffffffffffffffffffffff1673ffffffffffffffffffffffffffffffffffffffff1681526020019081526020016000206001019080519060200190611ef49291906134a8565b5080600760008573ffffffffffffffffffffffffffffffffffffffff1673ffffffffffffffffffffffffffffffffffffffff16815260200190815260200160002060020160006101000a81548160ff021916908360ff160217905550505050565b6000600860008373ffffffffffffffffffffffffffffffffffffffff1673ffffffffffffffffffffffffffffffffffffffff16815260200190815260200160002060000160009054906101000a900460ff169050919050565b600e602052816000526040600020602052806000526040600020600091509150508060000154908060010160009054906101000a900473ffffffffffffffffffffffffffffffffffffffff16908060010160149054906101000a900460ff16908060020154908060030154908060040160009054906101000a900460ff16908060040160019054906101000a900463ffffffff16908060040160059054906101000a900460ff169080600501604051806060016040529081600082015481526020016001820160009054906101000a900473ffffffffffffffffffffffffffffffffffffffff1673ffffffffffffffffffffffffffffffffffffffff1673ffffffffffffffffffffffffffffffffffffffff1681526020016001820160149054906101000a900460ff1660028111156120ea576120e96143db565b5b60028111156120fc576120fb6143db565b5b81525050905089565b60008054906101000a900473ffffffffffffffffffffffffffffffffffffffff1681565b60086020528060005260406000206000915090508060000160009054906101000a900460ff169080600101805461215f90614300565b80601f016020809104026020016040519081016040528092919081815260200182805461218b90614300565b80156121d85780601f106121ad576101008083540402835291602001916121d8565b820191906000526020600020905b8154815290600101906020018083116121bb57829003601f168201915b5050505050908060020160009054906101000a900460ff16905083565b6000600960008373ffffffffffffffffffffffffffffffffffffffff1673ffffffffffffffffffffffffffffffffffffffff16815260200190815260200160002060000160009054906101000a900460ff169050919050565b60096020528060005260406000206000915090508060000160009054906101000a900460ff169080600101805461228490614300565b80601f01602080910402602001604051908101604052809291908181526020018280546122b090614300565b80156122fd5780601f106122d2576101008083540402835291602001916122fd565b820191906000526020600020905b8154815290600101906020018083116122e057829003601f168201915b5050505050908060020160009054906101000a900460ff16905083565b6123238361319a565b15612363576040517f08c379a000000000000000000000000000000000000000000000000000000000815260040161235a90613f48565b60405180910390fd5b6001600a60008573ffffffffffffffffffffffffffffffffffffffff1673ffffffffffffffffffffffffffffffffffffffff16815260200190815260200160002060000160006101000a81548160ff02191690831515021790555081600a60008573ffffffffffffffffffffffffffffffffffffffff1673ffffffffffffffffffffffffffffffffffffffff16815260200190815260200160002060010190805190602001906124149291906134a8565b5080600a60008573ffffffffffffffffffffffffffffffffffffffff1673ffffffffffffffffffffffffffffffffffffffff16815260200190815260200160002060020160006101000a81548160ff021916908360ff160217905550505050565b600b6020528060005260406000206000915090508060000160009054906101000a900463ffffffff16908060010180546124ae90614300565b80601f01602080910402602001604051908101604052809291908181526020018280546124da90614300565b80156125275780601f106124fc57610100808354040283529160200191612527565b820191906000526020600020905b81548152906001019060200180831161250a57829003601f168201915b5050505050905082565b600c5481565b6000600360008373ffffffffffffffffffffffffffffffffffffffff1673ffffffffffffffffffffffffffffffffffffffff16815260200190815260200160002060000160009054906101000a900460ff169050919050565b60056020528060005260406000206000915090508060000160009054906101000a900460ff16908060000160019054906101000a900473ffffffffffffffffffffffffffffffffffffffff16908060000160159054906101000a900461ffff16908060000160179054906101000a900460ff169080600101805461261390614300565b80601f016020809104026020016040519081016040528092919081815260200182805461263f90614300565b801561268c5780601f106126615761010080835404028352916020019161268c565b820191906000526020600020905b81548152906001019060200180831161266f57829003601f168201915b5050505050908060020180546126a190614300565b80601f01602080910402602001604051908101604052809291908181526020018280546126cd90614300565b801561271a5780601f106126ef5761010080835404028352916020019161271a565b820191906000526020600020905b8154815290600101906020018083116126fd57829003601f168201915b5050505050905086565b600d60009054906101000a900473ffffffffffffffffffffffffffffffffffffffff1673ffffffffffffffffffffffffffffffffffffffff1663f0040eb9336040518263ffffffff1660e01b815260040161277f9190613d13565b60206040518083038186803b15801561279757600080fd5b505afa1580156127ab573d6000803e3d6000fd5b505050506040513d601f19601f820116820180604052508101906127cf91906139fa565b806128815750600d60009054906101000a900473ffffffffffffffffffffffffffffffffffffffff1673ffffffffffffffffffffffffffffffffffffffff16632d087d70336040518263ffffffff1660e01b81526004016128309190613d13565b60206040518083038186803b15801561284857600080fd5b505afa15801561285c573d6000803e3d6000fd5b505050506040513d601f19601f8201168201806040525081019061288091906139fa565b5b806129335750600d60009054906101000a900473ffffffffffffffffffffffffffffffffffffffff1673ffffffffffffffffffffffffffffffffffffffff1663514e03c7336040518263ffffffff1660e01b81526004016128e29190613d13565b60206040518083038186803b1580156128fa57600080fd5b505afa15801561290e573d6000803e3d6000fd5b505050506040513d601f19601f8201168201806040525081019061293291906139fa565b5b806129e55750600d60009054906101000a900473ffffffffffffffffffffffffffffffffffffffff1673ffffffffffffffffffffffffffffffffffffffff1663024eb6bc336040518263ffffffff1660e01b81526004016129949190613d13565b60206040518083038186803b1580156129ac57600080fd5b505afa1580156129c0573d6000803e3d6000fd5b505050506040513d601f19601f820116820180604052508101906129e491906139fa565b5b612a24576040517f08c379a0000000000000000000000000000000000000000000000000000000008152600401612a1b90613f68565b60405180910390fd5b600d60009054906101000a900473ffffffffffffffffffffffffffffffffffffffff1673ffffffffffffffffffffffffffffffffffffffff1663b98ccefd886040518263ffffffff1660e01b8152600401612a7f9190613d13565b60206040518083038186803b158015612a9757600080fd5b505afa158015612aab573d6000803e3d6000fd5b505050506040513d601f19601f82011682018060405250810190612acf91906139fa565b612b0e576040517f08c379a0000000000000000000000000000000000000000000000000000000008152600401612b0590614008565b60405180910390fd5b6000600c6000815480929190612b2390614363565b91905055905086600e60008a73ffffffffffffffffffffffffffffffffffffffff1673ffffffffffffffffffffffffffffffffffffffff168152602001908152602001600020600083815260200190815260200160002060010160146101000a81548160ff02191690836005811115612b9f57612b9e6143db565b5b021790555085600e60008a73ffffffffffffffffffffffffffffffffffffffff1673ffffffffffffffffffffffffffffffffffffffff16815260200190815260200160002060008381526020019081526020016000206002018190555084600e60008a73ffffffffffffffffffffffffffffffffffffffff1673ffffffffffffffffffffffffffffffffffffffff16815260200190815260200160002060008381526020019081526020016000206003018190555083600e60008a73ffffffffffffffffffffffffffffffffffffffff1673ffffffffffffffffffffffffffffffffffffffff168152602001908152602001600020600083815260200190815260200160002060040160006101000a81548160ff02191690836003811115612cca57612cc96143db565b5b021790555082600e60008a73ffffffffffffffffffffffffffffffffffffffff1673ffffffffffffffffffffffffffffffffffffffff168152602001908152602001600020600083815260200190815260200160002060040160016101000a81548163ffffffff021916908363ffffffff16021790555081600e60008a73ffffffffffffffffffffffffffffffffffffffff1673ffffffffffffffffffffffffffffffffffffffff168152602001908152602001600020600083815260200190815260200160002060040160056101000a81548160ff02191690836003811115612db757612db66143db565b5b02179055506001600e60008a73ffffffffffffffffffffffffffffffffffffffff1673ffffffffffffffffffffffffffffffffffffffff168152602001908152602001600020600083815260200190815260200160002060050160010160146101000a81548160ff02191690836002811115612e3657612e356143db565b5b021790555042600e60008a73ffffffffffffffffffffffffffffffffffffffff1673ffffffffffffffffffffffffffffffffffffffff16815260200190815260200160002060008381526020019081526020016000206005016000018190555033600e60008a73ffffffffffffffffffffffffffffffffffffffff1673ffffffffffffffffffffffffffffffffffffffff168152602001908152602001600020600083815260200190815260200160002060050160010160006101000a81548173ffffffffffffffffffffffffffffffffffffffff021916908373ffffffffffffffffffffffffffffffffffffffff1602179055507f1bc8089d220c6c0b90fb65e37237ecb0e793702849c9e0b59b1b3a02ff1012068787878787604051612f62959493929190613e95565b60405180910390a15050505050505050565b60036020528060005260406000206000915090508060000160009054906101000a900460ff16905081565b612fa884611b3c565b15612fe8576040517f08c379a0000000000000000000000000000000000000000000000000000000008152600401612fdf90613f08565b60405180910390fd5b6001600660008673ffffffffffffffffffffffffffffffffffffffff1673ffffffffffffffffffffffffffffffffffffffff16815260200190815260200160002060000160006101000a81548160ff02191690831515021790555082600660008673ffffffffffffffffffffffffffffffffffffffff1673ffffffffffffffffffffffffffffffffffffffff16815260200190815260200160002060020190805190602001906130999291906134a8565b5080600660008673ffffffffffffffffffffffffffffffffffffffff1673ffffffffffffffffffffffffffffffffffffffff16815260200190815260200160002060000160016101000a81548160ff021916908360ff16021790555081600660008673ffffffffffffffffffffffffffffffffffffffff1673ffffffffffffffffffffffffffffffffffffffff1681526020019081526020016000206001018190555050505050565b60008173ffffffffffffffffffffffffffffffffffffffff1660008054906101000a900473ffffffffffffffffffffffffffffffffffffffff1673ffffffffffffffffffffffffffffffffffffffff16149050919050565b6000600a60008373ffffffffffffffffffffffffffffffffffffffff1673ffffffffffffffffffffffffffffffffffffffff16815260200190815260200160002060000160009054906101000a900460ff169050919050565b60008173ffffffffffffffffffffffffffffffffffffffff16600260009054906101000a900473ffffffffffffffffffffffffffffffffffffffff1673ffffffffffffffffffffffffffffffffffffffff16149050919050565b6000600460008373ffffffffffffffffffffffffffffffffffffffff1673ffffffffffffffffffffffffffffffffffffffff16815260200190815260200160002060000160009054906101000a900460ff169050919050565b6132af81612537565b156132ef576040517f08c379a00000000000000000000000000000000000000000000000000000000081526004016132e690613fc8565b60405180910390fd5b6001600360008373ffffffffffffffffffffffffffffffffffffffff1673ffffffffffffffffffffffffffffffffffffffff16815260200190815260200160002060000160006101000a81548160ff02191690831515021790555050565b61335683611f55565b15613396576040517f08c379a000000000000000000000000000000000000000000000000000000000815260040161338d90614028565b60405180910390fd5b6001600860008573ffffffffffffffffffffffffffffffffffffffff1673ffffffffffffffffffffffffffffffffffffffff16815260200190815260200160002060000160006101000a81548160ff02191690831515021790555081600860008573ffffffffffffffffffffffffffffffffffffffff1673ffffffffffffffffffffffffffffffffffffffff16815260200190815260200160002060010190805190602001906134479291906134a8565b5080600860008573ffffffffffffffffffffffffffffffffffffffff1673ffffffffffffffffffffffffffffffffffffffff16815260200190815260200160002060020160006101000a81548160ff021916908360ff160217905550505050565b8280546134b490614300565b90600052602060002090601f0160209004810192826134d6576000855561351d565b82601f106134ef57805160ff191683800117855561351d565b8280016001018555821561351d579182015b8281111561351c578251825591602001919060010190613501565b5b50905061352a919061352e565b5090565b5b8082111561354757600081600090555060010161352f565b5090565b600061355e61355984614145565b614120565b90508281526020810184848401111561357a5761357961446d565b5b6135858482856142be565b509392505050565b60008135905061359c81614700565b92915050565b6000815190506135b181614717565b92915050565b6000813590506135c68161472e565b92915050565b6000813590506135db8161473e565b92915050565b6000813590506135f08161474e565b92915050565b600082601f83011261360b5761360a614468565b5b813561361b84826020860161354b565b91505092915050565b6000813590506136338161475e565b92915050565b60008135905061364881614775565b92915050565b60008135905061365d8161478c565b92915050565b60006020828403121561367957613678614477565b5b60006136878482850161358d565b91505092915050565b6000806000606084860312156136a9576136a8614477565b5b60006136b78682870161358d565b93505060206136c88682870161358d565b92505060406136d98682870161358d565b9150509250925092565b600080600080600080600060e0888a03121561370257613701614477565b5b60006137108a828b0161358d565b97505060206137218a828b016135cc565b96505060406137328a828b01613624565b95505060606137438a828b01613624565b94505060806137548a828b016135b7565b93505060a06137658a828b01613639565b92505060c06137768a828b016135e1565b91505092959891949750929550565b6000806000806080858703121561379f5761379e614477565b5b60006137ad8782880161358d565b945050602085013567ffffffffffffffff8111156137ce576137cd614472565b5b6137da878288016135f6565b93505060406137eb87828801613624565b92505060606137fc8782880161364e565b91505092959194509250565b60008060006060848603121561382157613820614477565b5b600061382f8682870161358d565b935050602084013567ffffffffffffffff8111156138505761384f614472565b5b61385c868287016135f6565b925050604061386d8682870161364e565b9150509250925092565b6000806040838503121561388e5761388d614477565b5b600061389c8582860161358d565b92505060206138ad85828601613624565b9150509250929050565b600080600080600080600080610100898b0312156138d8576138d7614477565b5b60006138e68b828c0161358d565b98505060206138f78b828c01613624565b97505060406139088b828c016135cc565b96505060606139198b828c01613624565b955050608061392a8b828c01613624565b94505060a061393b8b828c016135b7565b93505060c061394c8b828c01613639565b92505060e061395d8b828c016135e1565b9150509295985092959890939650565b60008060008060008060c0878903121561398a57613989614477565b5b600061399889828a0161358d565b96505060206139a989828a01613624565b95505060406139ba89828a01613624565b94505060606139cb89828a016135b7565b93505060806139dc89828a01613639565b92505060a06139ed89828a016135e1565b9150509295509295509295565b600060208284031215613a1057613a0f614477565b5b6000613a1e848285016135a2565b91505092915050565b600060208284031215613a3d57613a3c614477565b5b6000613a4b84828501613639565b91505092915050565b613a5d81614192565b82525050565b613a6c81614192565b82525050565b613a7b816141a4565b82525050565b613a8a81614264565b82525050565b613a9981614276565b82525050565b613aa881614288565b82525050565b613ab78161429a565b82525050565b613ac6816142ac565b82525050565b6000613ad782614176565b613ae18185614181565b9350613af18185602086016142cd565b613afa8161447c565b840191505092915050565b6000613b12601983614181565b9150613b1d8261448d565b602082019050919050565b6000613b35601283614181565b9150613b40826144b6565b602082019050919050565b6000613b58602083614181565b9150613b63826144df565b602082019050919050565b6000613b7b601e83614181565b9150613b8682614508565b602082019050919050565b6000613b9e602a83614181565b9150613ba982614531565b604082019050919050565b6000613bc1602283614181565b9150613bcc82614580565b604082019050919050565b6000613be4601783614181565b9150613bef826145cf565b602082019050919050565b6000613c07601183614181565b9150613c12826145f8565b602082019050919050565b6000613c2a601283614181565b9150613c3582614621565b602082019050919050565b6000613c4d600f83614181565b9150613c588261464a565b602082019050919050565b6000613c70601783614181565b9150613c7b82614673565b602082019050919050565b606082016000820151613c9c6000850182613cd7565b506020820151613caf6020850182613a54565b506040820151613cc26040850182613a90565b50505050565b613cd18161420f565b82525050565b613ce08161423d565b82525050565b613cef8161423d565b82525050565b613cfe81614247565b82525050565b613d0d81614257565b82525050565b6000602082019050613d286000830184613a63565b92915050565b600060a082019050613d436000830188613a63565b613d506020830187613ce6565b613d5d6040830186613ce6565b613d6a6060830185613a81565b613d776080830184613cf5565b9695505050505050565b6000602082019050613d966000830184613a72565b92915050565b600060c082019050613db16000830189613a72565b613dbe6020830188613a63565b613dcb6040830187613cc8565b613dd86060830186613abd565b8181036080830152613dea8185613acc565b905081810360a0830152613dfe8184613acc565b9050979650505050505050565b6000606082019050613e206000830186613a72565b8181036020830152613e328185613acc565b9050613e416040830184613d04565b949350505050565b6000608082019050613e5e6000830187613a72565b613e6b6020830186613d04565b613e786040830185613ce6565b8181036060830152613e8a8184613acc565b905095945050505050565b600060a082019050613eaa6000830188613a9f565b613eb76020830187613ce6565b613ec46040830186613ce6565b613ed16060830185613a81565b613ede6080830184613cf5565b9695505050505050565b60006020820190508181036000830152613f0181613b05565b9050919050565b60006020820190508181036000830152613f2181613b28565b9050919050565b60006020820190508181036000830152613f4181613b4b565b9050919050565b60006020820190508181036000830152613f6181613b6e565b9050919050565b60006020820190508181036000830152613f8181613b91565b9050919050565b60006020820190508181036000830152613fa181613bb4565b9050919050565b60006020820190508181036000830152613fc181613bd7565b9050919050565b60006020820190508181036000830152613fe181613bfa565b9050919050565b6000602082019050818103600083015261400181613c1d565b9050919050565b6000602082019050818103600083015261402181613c40565b9050919050565b6000602082019050818103600083015261404181613c63565b9050919050565b600060208201905061405d6000830184613ce6565b92915050565b600061016082019050614079600083018c613ce6565b614086602083018b613a63565b614093604083018a613a9f565b6140a06060830189613ce6565b6140ad6080830188613ce6565b6140ba60a0830187613a81565b6140c760c0830186613cf5565b6140d460e0830185613aae565b6140e2610100830184613c86565b9a9950505050505050505050565b60006040820190506141056000830185613cf5565b81810360208301526141178184613acc565b90509392505050565b600061412a61413b565b90506141368282614332565b919050565b6000604051905090565b600067ffffffffffffffff8211156141605761415f614439565b5b6141698261447c565b9050602081019050919050565b600081519050919050565b600082825260208201905092915050565b600061419d8261421d565b9050919050565b60008115159050919050565b60008190506141be8261469c565b919050565b60008190506141d1826146b0565b919050565b60008190506141e4826146c4565b919050565b60008190506141f7826146d8565b919050565b600081905061420a826146ec565b919050565b600061ffff82169050919050565b600073ffffffffffffffffffffffffffffffffffffffff82169050919050565b6000819050919050565b600063ffffffff82169050919050565b600060ff82169050919050565b600061426f826141b0565b9050919050565b6000614281826141c3565b9050919050565b6000614293826141d6565b9050919050565b60006142a5826141e9565b9050919050565b60006142b7826141fc565b9050919050565b82818337600083830152505050565b60005b838110156142eb5780820151818401526020810190506142d0565b838111156142fa576000848401525b50505050565b6000600282049050600182168061431857607f821691505b6020821081141561432c5761432b61440a565b5b50919050565b61433b8261447c565b810181811067ffffffffffffffff8211171561435a57614359614439565b5b80604052505050565b600061436e8261423d565b91507fffffffffffffffffffffffffffffffffffffffffffffffffffffffffffffffff8214156143a1576143a06143ac565b5b600182019050919050565b7f4e487b7100000000000000000000000000000000000000000000000000000000600052601160045260246000fd5b7f4e487b7100000000000000000000000000000000000000000000000000000000600052602160045260246000fd5b7f4e487b7100000000000000000000000000000000000000000000000000000000600052602260045260246000fd5b7f4e487b7100000000000000000000000000000000000000000000000000000000600052604160045260246000fd5b600080fd5b600080fd5b600080fd5b600080fd5b6000601f19601f8301169050919050565b7f4b757273204d65726b657a69205a6174656e204d657663757400000000000000600082015250565b7f4669726d61205a6174656e204d65766375740000000000000000000000000000600082015250565b7f42752069736c656d6920736164656365204b697369207961706162696c69722e600082015250565b7f536572746966696b61204d65726b657a69205a6174656e204d65766375740000600082015250565b7f536164656365207965746b696c69207061796461732062752069736c656d692060008201527f7961706162696c69722e00000000000000000000000000000000000000000000602082015250565b7f536976696c20546f706c756d204b7572756c757375205a6174656e204d65766360008201527f7574000000000000000000000000000000000000000000000000000000000000602082015250565b7f556e6976657273697465205a6174656e204d6576637574000000000000000000600082015250565b7f4b697369205a6174656e204d6576637574000000000000000000000000000000600082015250565b7f53747564656e74206e6f74206578697374730000000000000000000000000000600082015250565b7f4b6973692062756c756e616d6164690000000000000000000000000000000000600082015250565b7f4b616d75204b75726d75205a6174656e204d6576637574000000000000000000600082015250565b600481106146ad576146ac6143db565b5b50565b600381106146c1576146c06143db565b5b50565b600681106146d5576146d46143db565b5b50565b600481106146e9576146e86143db565b5b50565b600481106146fd576146fc6143db565b5b50565b61470981614192565b811461471457600080fd5b50565b614720816141a4565b811461472b57600080fd5b50565b6004811061473b57600080fd5b50565b6006811061474b57600080fd5b50565b6004811061475b57600080fd5b50565b6147678161423d565b811461477257600080fd5b50565b61477e81614247565b811461478957600080fd5b50565b61479581614257565b81146147a057600080fd5b5056fea2646970667358221220f43f47e262c3317577096854368f6ab67a7065fde1ba61c1fab467b28da55dde64736f6c63430008070033",
			"opcodes": "PUSH1 0x80 PUSH1 0x40 MSTORE CALLVALUE DUP1 ISZERO PUSH3 0x11 JUMPI PUSH1 0x0 DUP1 REVERT JUMPDEST POP PUSH1 0x40 MLOAD PUSH3 0x4904 CODESIZE SUB DUP1 PUSH3 0x4904 DUP4 CODECOPY DUP2 DUP2 ADD PUSH1 0x40 MSTORE DUP2 ADD SWAP1 PUSH3 0x37 SWAP2 SWAP1 PUSH3 0x96 JUMP JUMPDEST DUP1 PUSH1 0xD PUSH1 0x0 PUSH2 0x100 EXP DUP2 SLOAD DUP2 PUSH20 0xFFFFFFFFFFFFFFFFFFFFFFFFFFFFFFFFFFFFFFFF MUL NOT AND SWAP1 DUP4 PUSH20 0xFFFFFFFFFFFFFFFFFFFFFFFFFFFFFFFFFFFFFFFF AND MUL OR SWAP1 SSTORE POP POP PUSH3 0x11B JUMP JUMPDEST PUSH1 0x0 DUP2 MLOAD SWAP1 POP PUSH3 0x90 DUP2 PUSH3 0x101 JUMP JUMPDEST SWAP3 SWAP2 POP POP JUMP JUMPDEST PUSH1 0x0 PUSH1 0x20 DUP3 DUP5 SUB SLT ISZERO PUSH3 0xAF JUMPI PUSH3 0xAE PUSH3 0xFC JUMP JUMPDEST JUMPDEST PUSH1 0x0 PUSH3 0xBF DUP5 DUP3 DUP6 ADD PUSH3 0x7F JUMP JUMPDEST SWAP2 POP POP SWAP3 SWAP2 POP POP JUMP JUMPDEST PUSH1 0x0 PUSH3 0xD5 DUP3 PUSH3 0xDC JUMP JUMPDEST SWAP1 POP SWAP2 SWAP1 POP JUMP JUMPDEST PUSH1 0x0 PUSH20 0xFFFFFFFFFFFFFFFFFFFFFFFFFFFFFFFFFFFFFFFF DUP3 AND SWAP1 POP SWAP2 SWAP1 POP JUMP JUMPDEST PUSH1 0x0 DUP1 REVERT JUMPDEST PUSH3 0x10C DUP2 PUSH3 0xC8 JUMP JUMPDEST DUP2 EQ PUSH3 0x118 JUMPI PUSH1 0x0 DUP1 REVERT JUMPDEST POP JUMP JUMPDEST PUSH2 0x47D9 DUP1 PUSH3 0x12B PUSH1 0x0 CODECOPY PUSH1 0x0 RETURN INVALID PUSH1 0x80 PUSH1 0x40 MSTORE CALLVALUE DUP1 ISZERO PUSH2 0x10 JUMPI PUSH1 0x0 DUP1 REVERT JUMPDEST POP PUSH1 0x4 CALLDATASIZE LT PUSH2 0x205 JUMPI PUSH1 0x0 CALLDATALOAD PUSH1 0xE0 SHR DUP1 PUSH4 0x7D0FA287 GT PUSH2 0x11A JUMPI DUP1 PUSH4 0xC0942D97 GT PUSH2 0xAD JUMPI DUP1 PUSH4 0xE24047CA GT PUSH2 0x7C JUMPI DUP1 PUSH4 0xE24047CA EQ PUSH2 0x6BF JUMPI DUP1 PUSH4 0xE5130508 EQ PUSH2 0x6EF JUMPI DUP1 PUSH4 0xF0040EB9 EQ PUSH2 0x71F JUMPI DUP1 PUSH4 0xF54ACC65 EQ PUSH2 0x74F JUMPI DUP1 PUSH4 0xF63C649F EQ PUSH2 0x76B JUMPI PUSH2 0x205 JUMP JUMPDEST DUP1 PUSH4 0xC0942D97 EQ PUSH2 0x627 JUMPI DUP1 PUSH4 0xCBC92809 EQ PUSH2 0x643 JUMPI DUP1 PUSH4 0xD25AAB85 EQ PUSH2 0x673 JUMPI DUP1 PUSH4 0xD7396414 EQ PUSH2 0x68F JUMPI PUSH2 0x205 JUMP JUMPDEST DUP1 PUSH4 0xA4E7AE05 GT PUSH2 0xE9 JUMPI DUP1 PUSH4 0xA4E7AE05 EQ PUSH2 0x573 JUMPI DUP1 PUSH4 0xAF640D0F EQ PUSH2 0x5A4 JUMPI DUP1 PUSH4 0xB98CCEFD EQ PUSH2 0x5C2 JUMPI DUP1 PUSH4 0xBA479B7E EQ PUSH2 0x5F2 JUMPI PUSH2 0x205 JUMP JUMPDEST DUP1 PUSH4 0x7D0FA287 EQ PUSH2 0x4C3 JUMPI DUP1 PUSH4 0x8C848885 EQ PUSH2 0x4F5 JUMPI DUP1 PUSH4 0x9A8C9119 EQ PUSH2 0x525 JUMPI DUP1 PUSH4 0x9DC30114 EQ PUSH2 0x557 JUMPI PUSH2 0x205 JUMP JUMPDEST DUP1 PUSH4 0x28266697 GT PUSH2 0x19D JUMPI DUP1 PUSH4 0x39987F94 GT PUSH2 0x16C JUMPI DUP1 PUSH4 0x39987F94 EQ PUSH2 0x3EE JUMPI DUP1 PUSH4 0x46224853 EQ PUSH2 0x421 JUMPI DUP1 PUSH4 0x514E03C7 EQ PUSH2 0x43D JUMPI DUP1 PUSH4 0x64B2C66B EQ PUSH2 0x46D JUMPI DUP1 PUSH4 0x71AF892D EQ PUSH2 0x4A5 JUMPI PUSH2 0x205 JUMP JUMPDEST DUP1 PUSH4 0x28266697 EQ PUSH2 0x33E JUMPI DUP1 PUSH4 0x2D087D70 EQ PUSH2 0x370 JUMPI DUP1 PUSH4 0x356B1F1E EQ PUSH2 0x3A0 JUMPI DUP1 PUSH4 0x36FD2633 EQ PUSH2 0x3D2 JUMPI PUSH2 0x205 JUMP JUMPDEST DUP1 PUSH4 0x139884EC GT PUSH2 0x1D9 JUMPI DUP1 PUSH4 0x139884EC EQ PUSH2 0x290 JUMPI DUP1 PUSH4 0x19023BF3 EQ PUSH2 0x2C0 JUMPI DUP1 PUSH4 0x1916E139 EQ PUSH2 0x2DC JUMPI DUP1 PUSH4 0x1A0DDA7F EQ PUSH2 0x30E JUMPI PUSH2 0x205 JUMP JUMPDEST DUP1 PUSH3 0x1D54AB EQ PUSH2 0x20A JUMPI DUP1 PUSH4 0x11C05E1 EQ PUSH2 0x226 JUMPI DUP1 PUSH4 0x24EB6BC EQ PUSH2 0x242 JUMPI DUP1 PUSH4 0x3C3ABC4 EQ PUSH2 0x272 JUMPI JUMPDEST PUSH1 0x0 DUP1 REVERT JUMPDEST PUSH2 0x224 PUSH1 0x4 DUP1 CALLDATASIZE SUB DUP2 ADD SWAP1 PUSH2 0x21F SWAP2 SWAP1 PUSH2 0x3808 JUMP JUMPDEST PUSH2 0x787 JUMP JUMPDEST STOP JUMPDEST PUSH2 0x240 PUSH1 0x4 DUP1 CALLDATASIZE SUB DUP2 ADD SWAP1 PUSH2 0x23B SWAP2 SWAP1 PUSH2 0x396D JUMP JUMPDEST PUSH2 0x8E2 JUMP JUMPDEST STOP JUMPDEST PUSH2 0x25C PUSH1 0x4 DUP1 CALLDATASIZE SUB DUP2 ADD SWAP1 PUSH2 0x257 SWAP2 SWAP1 PUSH2 0x3663 JUMP JUMPDEST PUSH2 0xF32 JUMP JUMPDEST PUSH1 0x40 MLOAD PUSH2 0x269 SWAP2 SWAP1 PUSH2 0x3D81 JUMP JUMPDEST PUSH1 0x40 MLOAD DUP1 SWAP2 SUB SWAP1 RETURN JUMPDEST PUSH2 0x27A PUSH2 0xF8B JUMP JUMPDEST PUSH1 0x40 MLOAD PUSH2 0x287 SWAP2 SWAP1 PUSH2 0x3D13 JUMP JUMPDEST PUSH1 0x40 MLOAD DUP1 SWAP2 SUB SWAP1 RETURN JUMPDEST PUSH2 0x2AA PUSH1 0x4 DUP1 CALLDATASIZE SUB DUP2 ADD SWAP1 PUSH2 0x2A5 SWAP2 SWAP1 PUSH2 0x3663 JUMP JUMPDEST PUSH2 0xFB4 JUMP JUMPDEST PUSH1 0x40 MLOAD PUSH2 0x2B7 SWAP2 SWAP1 PUSH2 0x3D81 JUMP JUMPDEST PUSH1 0x40 MLOAD DUP1 SWAP2 SUB SWAP1 RETURN JUMPDEST PUSH2 0x2DA PUSH1 0x4 DUP1 CALLDATASIZE SUB DUP2 ADD SWAP1 PUSH2 0x2D5 SWAP2 SWAP1 PUSH2 0x3808 JUMP JUMPDEST PUSH2 0x100E JUMP JUMPDEST STOP JUMPDEST PUSH2 0x2F6 PUSH1 0x4 DUP1 CALLDATASIZE SUB DUP2 ADD SWAP1 PUSH2 0x2F1 SWAP2 SWAP1 PUSH2 0x3663 JUMP JUMPDEST PUSH2 0x1169 JUMP JUMPDEST PUSH1 0x40 MLOAD PUSH2 0x305 SWAP4 SWAP3 SWAP2 SWAP1 PUSH2 0x3E0B JUMP JUMPDEST PUSH1 0x40 MLOAD DUP1 SWAP2 SUB SWAP1 RETURN JUMPDEST PUSH2 0x328 PUSH1 0x4 DUP1 CALLDATASIZE SUB DUP2 ADD SWAP1 PUSH2 0x323 SWAP2 SWAP1 PUSH2 0x38B7 JUMP JUMPDEST PUSH2 0x1235 JUMP JUMPDEST PUSH1 0x40 MLOAD PUSH2 0x335 SWAP2 SWAP1 PUSH2 0x4048 JUMP JUMPDEST PUSH1 0x40 MLOAD DUP1 SWAP2 SUB SWAP1 RETURN JUMPDEST PUSH2 0x358 PUSH1 0x4 DUP1 CALLDATASIZE SUB DUP2 ADD SWAP1 PUSH2 0x353 SWAP2 SWAP1 PUSH2 0x3663 JUMP JUMPDEST PUSH2 0x1A70 JUMP JUMPDEST PUSH1 0x40 MLOAD PUSH2 0x367 SWAP4 SWAP3 SWAP2 SWAP1 PUSH2 0x3E0B JUMP JUMPDEST PUSH1 0x40 MLOAD DUP1 SWAP2 SUB SWAP1 RETURN JUMPDEST PUSH2 0x38A PUSH1 0x4 DUP1 CALLDATASIZE SUB DUP2 ADD SWAP1 PUSH2 0x385 SWAP2 SWAP1 PUSH2 0x3663 JUMP JUMPDEST PUSH2 0x1B3C JUMP JUMPDEST PUSH1 0x40 MLOAD PUSH2 0x397 SWAP2 SWAP1 PUSH2 0x3D81 JUMP JUMPDEST PUSH1 0x40 MLOAD DUP1 SWAP2 SUB SWAP1 RETURN JUMPDEST PUSH2 0x3BA PUSH1 0x4 DUP1 CALLDATASIZE SUB DUP2 ADD SWAP1 PUSH2 0x3B5 SWAP2 SWAP1 PUSH2 0x3663 JUMP JUMPDEST PUSH2 0x1B95 JUMP JUMPDEST PUSH1 0x40 MLOAD PUSH2 0x3C9 SWAP4 SWAP3 SWAP2 SWAP1 PUSH2 0x3E0B JUMP JUMPDEST PUSH1 0x40 MLOAD DUP1 SWAP2 SUB SWAP1 RETURN JUMPDEST PUSH2 0x3EC PUSH1 0x4 DUP1 CALLDATASIZE SUB DUP2 ADD SWAP1 PUSH2 0x3E7 SWAP2 SWAP1 PUSH2 0x3690 JUMP JUMPDEST PUSH2 0x1C61 JUMP JUMPDEST STOP JUMPDEST PUSH2 0x408 PUSH1 0x4 DUP1 CALLDATASIZE SUB DUP2 ADD SWAP1 PUSH2 0x403 SWAP2 SWAP1 PUSH2 0x3663 JUMP JUMPDEST PUSH2 0x1D28 JUMP JUMPDEST PUSH1 0x40 MLOAD PUSH2 0x418 SWAP5 SWAP4 SWAP3 SWAP2 SWAP1 PUSH2 0x3E49 JUMP JUMPDEST PUSH1 0x40 MLOAD DUP1 SWAP2 SUB SWAP1 RETURN JUMPDEST PUSH2 0x43B PUSH1 0x4 DUP1 CALLDATASIZE SUB DUP2 ADD SWAP1 PUSH2 0x436 SWAP2 SWAP1 PUSH2 0x3808 JUMP JUMPDEST PUSH2 0x1DFA JUMP JUMPDEST STOP JUMPDEST PUSH2 0x457 PUSH1 0x4 DUP1 CALLDATASIZE SUB DUP2 ADD SWAP1 PUSH2 0x452 SWAP2 SWAP1 PUSH2 0x3663 JUMP JUMPDEST PUSH2 0x1F55 JUMP JUMPDEST PUSH1 0x40 MLOAD PUSH2 0x464 SWAP2 SWAP1 PUSH2 0x3D81 JUMP JUMPDEST PUSH1 0x40 MLOAD DUP1 SWAP2 SUB SWAP1 RETURN JUMPDEST PUSH2 0x487 PUSH1 0x4 DUP1 CALLDATASIZE SUB DUP2 ADD SWAP1 PUSH2 0x482 SWAP2 SWAP1 PUSH2 0x3877 JUMP JUMPDEST PUSH2 0x1FAE JUMP JUMPDEST PUSH1 0x40 MLOAD PUSH2 0x49C SWAP10 SWAP9 SWAP8 SWAP7 SWAP6 SWAP5 SWAP4 SWAP3 SWAP2 SWAP1 PUSH2 0x4063 JUMP JUMPDEST PUSH1 0x40 MLOAD DUP1 SWAP2 SUB SWAP1 RETURN JUMPDEST PUSH2 0x4AD PUSH2 0x2105 JUMP JUMPDEST PUSH1 0x40 MLOAD PUSH2 0x4BA SWAP2 SWAP1 PUSH2 0x3D13 JUMP JUMPDEST PUSH1 0x40 MLOAD DUP1 SWAP2 SUB SWAP1 RETURN JUMPDEST PUSH2 0x4DD PUSH1 0x4 DUP1 CALLDATASIZE SUB DUP2 ADD SWAP1 PUSH2 0x4D8 SWAP2 SWAP1 PUSH2 0x3663 JUMP JUMPDEST PUSH2 0x2129 JUMP JUMPDEST PUSH1 0x40 MLOAD PUSH2 0x4EC SWAP4 SWAP3 SWAP2 SWAP1 PUSH2 0x3E0B JUMP JUMPDEST PUSH1 0x40 MLOAD DUP1 SWAP2 SUB SWAP1 RETURN JUMPDEST PUSH2 0x50F PUSH1 0x4 DUP1 CALLDATASIZE SUB DUP2 ADD SWAP1 PUSH2 0x50A SWAP2 SWAP1 PUSH2 0x3663 JUMP JUMPDEST PUSH2 0x21F5 JUMP JUMPDEST PUSH1 0x40 MLOAD PUSH2 0x51C SWAP2 SWAP1 PUSH2 0x3D81 JUMP JUMPDEST PUSH1 0x40 MLOAD DUP1 SWAP2 SUB SWAP1 RETURN JUMPDEST PUSH2 0x53F PUSH1 0x4 DUP1 CALLDATASIZE SUB DUP2 ADD SWAP1 PUSH2 0x53A SWAP2 SWAP1 PUSH2 0x3663 JUMP JUMPDEST PUSH2 0x224E JUMP JUMPDEST PUSH1 0x40 MLOAD PUSH2 0x54E SWAP4 SWAP3 SWAP2 SWAP1 PUSH2 0x3E0B JUMP JUMPDEST PUSH1 0x40 MLOAD DUP1 SWAP2 SUB SWAP1 RETURN JUMPDEST PUSH2 0x571 PUSH1 0x4 DUP1 CALLDATASIZE SUB DUP2 ADD SWAP1 PUSH2 0x56C SWAP2 SWAP1 PUSH2 0x3808 JUMP JUMPDEST PUSH2 0x231A JUMP JUMPDEST STOP JUMPDEST PUSH2 0x58D PUSH1 0x4 DUP1 CALLDATASIZE SUB DUP2 ADD SWAP1 PUSH2 0x588 SWAP2 SWAP1 PUSH2 0x3A27 JUMP JUMPDEST PUSH2 0x2475 JUMP JUMPDEST PUSH1 0x40 MLOAD PUSH2 0x59B SWAP3 SWAP2 SWAP1 PUSH2 0x40F0 JUMP JUMPDEST PUSH1 0x40 MLOAD DUP1 SWAP2 SUB SWAP1 RETURN JUMPDEST PUSH2 0x5AC PUSH2 0x2531 JUMP JUMPDEST PUSH1 0x40 MLOAD PUSH2 0x5B9 SWAP2 SWAP1 PUSH2 0x4048 JUMP JUMPDEST PUSH1 0x40 MLOAD DUP1 SWAP2 SUB SWAP1 RETURN JUMPDEST PUSH2 0x5DC PUSH1 0x4 DUP1 CALLDATASIZE SUB DUP2 ADD SWAP1 PUSH2 0x5D7 SWAP2 SWAP1 PUSH2 0x3663 JUMP JUMPDEST PUSH2 0x2537 JUMP JUMPDEST PUSH1 0x40 MLOAD PUSH2 0x5E9 SWAP2 SWAP1 PUSH2 0x3D81 JUMP JUMPDEST PUSH1 0x40 MLOAD DUP1 SWAP2 SUB SWAP1 RETURN JUMPDEST PUSH2 0x60C PUSH1 0x4 DUP1 CALLDATASIZE SUB DUP2 ADD SWAP1 PUSH2 0x607 SWAP2 SWAP1 PUSH2 0x3663 JUMP JUMPDEST PUSH2 0x2590 JUMP JUMPDEST PUSH1 0x40 MLOAD PUSH2 0x61E SWAP7 SWAP6 SWAP5 SWAP4 SWAP3 SWAP2 SWAP1 PUSH2 0x3D9C JUMP JUMPDEST PUSH1 0x40 MLOAD DUP1 SWAP2 SUB SWAP1 RETURN JUMPDEST PUSH2 0x641 PUSH1 0x4 DUP1 CALLDATASIZE SUB DUP2 ADD SWAP1 PUSH2 0x63C SWAP2 SWAP1 PUSH2 0x36E3 JUMP JUMPDEST PUSH2 0x2724 JUMP JUMPDEST STOP JUMPDEST PUSH2 0x65D PUSH1 0x4 DUP1 CALLDATASIZE SUB DUP2 ADD SWAP1 PUSH2 0x658 SWAP2 SWAP1 PUSH2 0x3663 JUMP JUMPDEST PUSH2 0x2F74 JUMP JUMPDEST PUSH1 0x40 MLOAD PUSH2 0x66A SWAP2 SWAP1 PUSH2 0x3D81 JUMP JUMPDEST PUSH1 0x40 MLOAD DUP1 SWAP2 SUB SWAP1 RETURN JUMPDEST PUSH2 0x68D PUSH1 0x4 DUP1 CALLDATASIZE SUB DUP2 ADD SWAP1 PUSH2 0x688 SWAP2 SWAP1 PUSH2 0x3785 JUMP JUMPDEST PUSH2 0x2F9F JUMP JUMPDEST STOP JUMPDEST PUSH2 0x6A9 PUSH1 0x4 DUP1 CALLDATASIZE SUB DUP2 ADD SWAP1 PUSH2 0x6A4 SWAP2 SWAP1 PUSH2 0x3663 JUMP JUMPDEST PUSH2 0x3142 JUMP JUMPDEST PUSH1 0x40 MLOAD PUSH2 0x6B6 SWAP2 SWAP1 PUSH2 0x3D81 JUMP JUMPDEST PUSH1 0x40 MLOAD DUP1 SWAP2 SUB SWAP1 RETURN JUMPDEST PUSH2 0x6D9 PUSH1 0x4 DUP1 CALLDATASIZE SUB DUP2 ADD SWAP1 PUSH2 0x6D4 SWAP2 SWAP1 PUSH2 0x3663 JUMP JUMPDEST PUSH2 0x319A JUMP JUMPDEST PUSH1 0x40 MLOAD PUSH2 0x6E6 SWAP2 SWAP1 PUSH2 0x3D81 JUMP JUMPDEST PUSH1 0x40 MLOAD DUP1 SWAP2 SUB SWAP1 RETURN JUMPDEST PUSH2 0x709 PUSH1 0x4 DUP1 CALLDATASIZE SUB DUP2 ADD SWAP1 PUSH2 0x704 SWAP2 SWAP1 PUSH2 0x3663 JUMP JUMPDEST PUSH2 0x31F3 JUMP JUMPDEST PUSH1 0x40 MLOAD PUSH2 0x716 SWAP2 SWAP1 PUSH2 0x3D81 JUMP JUMPDEST PUSH1 0x40 MLOAD DUP1 SWAP2 SUB SWAP1 RETURN JUMPDEST PUSH2 0x739 PUSH1 0x4 DUP1 CALLDATASIZE SUB DUP2 ADD SWAP1 PUSH2 0x734 SWAP2 SWAP1 PUSH2 0x3663 JUMP JUMPDEST PUSH2 0x324D JUMP JUMPDEST PUSH1 0x40 MLOAD PUSH2 0x746 SWAP2 SWAP1 PUSH2 0x3D81 JUMP JUMPDEST PUSH1 0x40 MLOAD DUP1 SWAP2 SUB SWAP1 RETURN JUMPDEST PUSH2 0x769 PUSH1 0x4 DUP1 CALLDATASIZE SUB DUP2 ADD SWAP1 PUSH2 0x764 SWAP2 SWAP1 PUSH2 0x3663 JUMP JUMPDEST PUSH2 0x32A6 JUMP JUMPDEST STOP JUMPDEST PUSH2 0x785 PUSH1 0x4 DUP1 CALLDATASIZE SUB DUP2 ADD SWAP1 PUSH2 0x780 SWAP2 SWAP1 PUSH2 0x3808 JUMP JUMPDEST PUSH2 0x334D JUMP JUMPDEST STOP JUMPDEST PUSH2 0x790 DUP4 PUSH2 0x324D JUMP JUMPDEST ISZERO PUSH2 0x7D0 JUMPI PUSH1 0x40 MLOAD PUSH32 0x8C379A000000000000000000000000000000000000000000000000000000000 DUP2 MSTORE PUSH1 0x4 ADD PUSH2 0x7C7 SWAP1 PUSH2 0x3FA8 JUMP JUMPDEST PUSH1 0x40 MLOAD DUP1 SWAP2 SUB SWAP1 REVERT JUMPDEST PUSH1 0x1 PUSH1 0x4 PUSH1 0x0 DUP6 PUSH20 0xFFFFFFFFFFFFFFFFFFFFFFFFFFFFFFFFFFFFFFFF AND PUSH20 0xFFFFFFFFFFFFFFFFFFFFFFFFFFFFFFFFFFFFFFFF AND DUP2 MSTORE PUSH1 0x20 ADD SWAP1 DUP2 MSTORE PUSH1 0x20 ADD PUSH1 0x0 KECCAK256 PUSH1 0x0 ADD PUSH1 0x0 PUSH2 0x100 EXP DUP2 SLOAD DUP2 PUSH1 0xFF MUL NOT AND SWAP1 DUP4 ISZERO ISZERO MUL OR SWAP1 SSTORE POP DUP2 PUSH1 0x4 PUSH1 0x0 DUP6 PUSH20 0xFFFFFFFFFFFFFFFFFFFFFFFFFFFFFFFFFFFFFFFF AND PUSH20 0xFFFFFFFFFFFFFFFFFFFFFFFFFFFFFFFFFFFFFFFF AND DUP2 MSTORE PUSH1 0x20 ADD SWAP1 DUP2 MSTORE PUSH1 0x20 ADD PUSH1 0x0 KECCAK256 PUSH1 0x1 ADD SWAP1 DUP1 MLOAD SWAP1 PUSH1 0x20 ADD SWAP1 PUSH2 0x881 SWAP3 SWAP2 SWAP1 PUSH2 0x34A8 JUMP JUMPDEST POP DUP1 PUSH1 0x4 PUSH1 0x0 DUP6 PUSH20 0xFFFFFFFFFFFFFFFFFFFFFFFFFFFFFFFFFFFFFFFF AND PUSH20 0xFFFFFFFFFFFFFFFFFFFFFFFFFFFFFFFFFFFFFFFF AND DUP2 MSTORE PUSH1 0x20 ADD SWAP1 DUP2 MSTORE PUSH1 0x20 ADD PUSH1 0x0 KECCAK256 PUSH1 0x2 ADD PUSH1 0x0 PUSH2 0x100 EXP DUP2 SLOAD DUP2 PUSH1 0xFF MUL NOT AND SWAP1 DUP4 PUSH1 0xFF AND MUL OR SWAP1 SSTORE POP POP POP POP JUMP JUMPDEST PUSH1 0xD PUSH1 0x0 SWAP1 SLOAD SWAP1 PUSH2 0x100 EXP SWAP1 DIV PUSH20 0xFFFFFFFFFFFFFFFFFFFFFFFFFFFFFFFFFFFFFFFF AND PUSH20 0xFFFFFFFFFFFFFFFFFFFFFFFFFFFFFFFFFFFFFFFF AND PUSH4 0xB98CCEFD CALLER PUSH1 0x40 MLOAD DUP3 PUSH4 0xFFFFFFFF AND PUSH1 0xE0 SHL DUP2 MSTORE PUSH1 0x4 ADD PUSH2 0x93D SWAP2 SWAP1 PUSH2 0x3D13 JUMP JUMPDEST PUSH1 0x20 PUSH1 0x40 MLOAD DUP1 DUP4 SUB DUP2 DUP7 DUP1 EXTCODESIZE ISZERO DUP1 ISZERO PUSH2 0x955 JUMPI PUSH1 0x0 DUP1 REVERT JUMPDEST POP GAS STATICCALL ISZERO DUP1 ISZERO PUSH2 0x969 JUMPI RETURNDATASIZE PUSH1 0x0 DUP1 RETURNDATACOPY RETURNDATASIZE PUSH1 0x0 REVERT JUMPDEST POP POP POP POP PUSH1 0x40 MLOAD RETURNDATASIZE PUSH1 0x1F NOT PUSH1 0x1F DUP3 ADD AND DUP3 ADD DUP1 PUSH1 0x40 MSTORE POP DUP2 ADD SWAP1 PUSH2 0x98D SWAP2 SWAP1 PUSH2 0x39FA JUMP JUMPDEST PUSH2 0x9CC JUMPI PUSH1 0x40 MLOAD PUSH32 0x8C379A000000000000000000000000000000000000000000000000000000000 DUP2 MSTORE PUSH1 0x4 ADD PUSH2 0x9C3 SWAP1 PUSH2 0x3F28 JUMP JUMPDEST PUSH1 0x40 MLOAD DUP1 SWAP2 SUB SWAP1 REVERT JUMPDEST PUSH1 0xD PUSH1 0x0 SWAP1 SLOAD SWAP1 PUSH2 0x100 EXP SWAP1 DIV PUSH20 0xFFFFFFFFFFFFFFFFFFFFFFFFFFFFFFFFFFFFFFFF AND PUSH20 0xFFFFFFFFFFFFFFFFFFFFFFFFFFFFFFFFFFFFFFFF AND PUSH4 0xB98CCEFD CALLER PUSH1 0x40 MLOAD DUP3 PUSH4 0xFFFFFFFF AND PUSH1 0xE0 SHL DUP2 MSTORE PUSH1 0x4 ADD PUSH2 0xA27 SWAP2 SWAP1 PUSH2 0x3D13 JUMP JUMPDEST PUSH1 0x20 PUSH1 0x40 MLOAD DUP1 DUP4 SUB DUP2 DUP7 DUP1 EXTCODESIZE ISZERO DUP1 ISZERO PUSH2 0xA3F JUMPI PUSH1 0x0 DUP1 REVERT JUMPDEST POP GAS STATICCALL ISZERO DUP1 ISZERO PUSH2 0xA53 JUMPI RETURNDATASIZE PUSH1 0x0 DUP1 RETURNDATACOPY RETURNDATASIZE PUSH1 0x0 REVERT JUMPDEST POP POP POP POP PUSH1 0x40 MLOAD RETURNDATASIZE PUSH1 0x1F NOT PUSH1 0x1F DUP3 ADD AND DUP3 ADD DUP1 PUSH1 0x40 MSTORE POP DUP2 ADD SWAP1 PUSH2 0xA77 SWAP2 SWAP1 PUSH2 0x39FA JUMP JUMPDEST PUSH2 0xAB6 JUMPI PUSH1 0x40 MLOAD PUSH32 0x8C379A000000000000000000000000000000000000000000000000000000000 DUP2 MSTORE PUSH1 0x4 ADD PUSH2 0xAAD SWAP1 PUSH2 0x3FE8 JUMP JUMPDEST PUSH1 0x40 MLOAD DUP1 SWAP2 SUB SWAP1 REVERT JUMPDEST PUSH1 0x0 PUSH1 0xC PUSH1 0x0 DUP2 SLOAD DUP1 SWAP3 SWAP2 SWAP1 PUSH2 0xACB SWAP1 PUSH2 0x4363 JUMP JUMPDEST SWAP2 SWAP1 POP SSTORE SWAP1 POP DUP7 PUSH1 0xE PUSH1 0x0 CALLER PUSH20 0xFFFFFFFFFFFFFFFFFFFFFFFFFFFFFFFFFFFFFFFF AND PUSH20 0xFFFFFFFFFFFFFFFFFFFFFFFFFFFFFFFFFFFFFFFF AND DUP2 MSTORE PUSH1 0x20 ADD SWAP1 DUP2 MSTORE PUSH1 0x20 ADD PUSH1 0x0 KECCAK256 PUSH1 0x0 DUP4 DUP2 MSTORE PUSH1 0x20 ADD SWAP1 DUP2 MSTORE PUSH1 0x20 ADD PUSH1 0x0 KECCAK256 PUSH1 0x1 ADD PUSH1 0x0 PUSH2 0x100 EXP DUP2 SLOAD DUP2 PUSH20 0xFFFFFFFFFFFFFFFFFFFFFFFFFFFFFFFFFFFFFFFF MUL NOT AND SWAP1 DUP4 PUSH20 0xFFFFFFFFFFFFFFFFFFFFFFFFFFFFFFFFFFFFFFFF AND MUL OR SWAP1 SSTORE POP DUP6 PUSH1 0xE PUSH1 0x0 CALLER PUSH20 0xFFFFFFFFFFFFFFFFFFFFFFFFFFFFFFFFFFFFFFFF AND PUSH20 0xFFFFFFFFFFFFFFFFFFFFFFFFFFFFFFFFFFFFFFFF AND DUP2 MSTORE PUSH1 0x20 ADD SWAP1 DUP2 MSTORE PUSH1 0x20 ADD PUSH1 0x0 KECCAK256 PUSH1 0x0 DUP4 DUP2 MSTORE PUSH1 0x20 ADD SWAP1 DUP2 MSTORE PUSH1 0x20 ADD PUSH1 0x0 KECCAK256 PUSH1 0x2 ADD DUP2 SWAP1 SSTORE POP DUP5 PUSH1 0xE PUSH1 0x0 CALLER PUSH20 0xFFFFFFFFFFFFFFFFFFFFFFFFFFFFFFFFFFFFFFFF AND PUSH20 0xFFFFFFFFFFFFFFFFFFFFFFFFFFFFFFFFFFFFFFFF AND DUP2 MSTORE PUSH1 0x20 ADD SWAP1 DUP2 MSTORE PUSH1 0x20 ADD PUSH1 0x0 KECCAK256 PUSH1 0x0 DUP4 DUP2 MSTORE PUSH1 0x20 ADD SWAP1 DUP2 MSTORE PUSH1 0x20 ADD PUSH1 0x0 KECCAK256 PUSH1 0x3 ADD DUP2 SWAP1 SSTORE POP DUP4 PUSH1 0xE PUSH1 0x0 CALLER PUSH20 0xFFFFFFFFFFFFFFFFFFFFFFFFFFFFFFFFFFFFFFFF AND PUSH20 0xFFFFFFFFFFFFFFFFFFFFFFFFFFFFFFFFFFFFFFFF AND DUP2 MSTORE PUSH1 0x20 ADD SWAP1 DUP2 MSTORE PUSH1 0x20 ADD PUSH1 0x0 KECCAK256 PUSH1 0x0 DUP4 DUP2 MSTORE PUSH1 0x20 ADD SWAP1 DUP2 MSTORE PUSH1 0x20 ADD PUSH1 0x0 KECCAK256 PUSH1 0x4 ADD PUSH1 0x0 PUSH2 0x100 EXP DUP2 SLOAD DUP2 PUSH1 0xFF MUL NOT AND SWAP1 DUP4 PUSH1 0x3 DUP2 GT ISZERO PUSH2 0xC89 JUMPI PUSH2 0xC88 PUSH2 0x43DB JUMP JUMPDEST JUMPDEST MUL OR SWAP1 SSTORE POP DUP3 PUSH1 0xE PUSH1 0x0 CALLER PUSH20 0xFFFFFFFFFFFFFFFFFFFFFFFFFFFFFFFFFFFFFFFF AND PUSH20 0xFFFFFFFFFFFFFFFFFFFFFFFFFFFFFFFFFFFFFFFF AND DUP2 MSTORE PUSH1 0x20 ADD SWAP1 DUP2 MSTORE PUSH1 0x20 ADD PUSH1 0x0 KECCAK256 PUSH1 0x0 DUP4 DUP2 MSTORE PUSH1 0x20 ADD SWAP1 DUP2 MSTORE PUSH1 0x20 ADD PUSH1 0x0 KECCAK256 PUSH1 0x4 ADD PUSH1 0x1 PUSH2 0x100 EXP DUP2 SLOAD DUP2 PUSH4 0xFFFFFFFF MUL NOT AND SWAP1 DUP4 PUSH4 0xFFFFFFFF AND MUL OR SWAP1 SSTORE POP DUP2 PUSH1 0xE PUSH1 0x0 CALLER PUSH20 0xFFFFFFFFFFFFFFFFFFFFFFFFFFFFFFFFFFFFFFFF AND PUSH20 0xFFFFFFFFFFFFFFFFFFFFFFFFFFFFFFFFFFFFFFFF AND DUP2 MSTORE PUSH1 0x20 ADD SWAP1 DUP2 MSTORE PUSH1 0x20 ADD PUSH1 0x0 KECCAK256 PUSH1 0x0 DUP4 DUP2 MSTORE PUSH1 0x20 ADD SWAP1 DUP2 MSTORE PUSH1 0x20 ADD PUSH1 0x0 KECCAK256 PUSH1 0x4 ADD PUSH1 0x5 PUSH2 0x100 EXP DUP2 SLOAD DUP2 PUSH1 0xFF MUL NOT AND SWAP1 DUP4 PUSH1 0x3 DUP2 GT ISZERO PUSH2 0xD76 JUMPI PUSH2 0xD75 PUSH2 0x43DB JUMP JUMPDEST JUMPDEST MUL OR SWAP1 SSTORE POP PUSH1 0x0 PUSH1 0xE PUSH1 0x0 CALLER PUSH20 0xFFFFFFFFFFFFFFFFFFFFFFFFFFFFFFFFFFFFFFFF AND PUSH20 0xFFFFFFFFFFFFFFFFFFFFFFFFFFFFFFFFFFFFFFFF AND DUP2 MSTORE PUSH1 0x20 ADD SWAP1 DUP2 MSTORE PUSH1 0x20 ADD PUSH1 0x0 KECCAK256 PUSH1 0x0 DUP4 DUP2 MSTORE PUSH1 0x20 ADD SWAP1 DUP2 MSTORE PUSH1 0x20 ADD PUSH1 0x0 KECCAK256 PUSH1 0x5 ADD PUSH1 0x1 ADD PUSH1 0x14 PUSH2 0x100 EXP DUP2 SLOAD DUP2 PUSH1 0xFF MUL NOT AND SWAP1 DUP4 PUSH1 0x2 DUP2 GT ISZERO PUSH2 0xDF5 JUMPI PUSH2 0xDF4 PUSH2 0x43DB JUMP JUMPDEST JUMPDEST MUL OR SWAP1 SSTORE POP TIMESTAMP PUSH1 0xE PUSH1 0x0 CALLER PUSH20 0xFFFFFFFFFFFFFFFFFFFFFFFFFFFFFFFFFFFFFFFF AND PUSH20 0xFFFFFFFFFFFFFFFFFFFFFFFFFFFFFFFFFFFFFFFF AND DUP2 MSTORE PUSH1 0x20 ADD SWAP1 DUP2 MSTORE PUSH1 0x20 ADD PUSH1 0x0 KECCAK256 PUSH1 0x0 DUP4 DUP2 MSTORE PUSH1 0x20 ADD SWAP1 DUP2 MSTORE PUSH1 0x20 ADD PUSH1 0x0 KECCAK256 PUSH1 0x5 ADD PUSH1 0x0 ADD DUP2 SWAP1 SSTORE POP CALLER PUSH1 0xE PUSH1 0x0 CALLER PUSH20 0xFFFFFFFFFFFFFFFFFFFFFFFFFFFFFFFFFFFFFFFF AND PUSH20 0xFFFFFFFFFFFFFFFFFFFFFFFFFFFFFFFFFFFFFFFF AND DUP2 MSTORE PUSH1 0x20 ADD SWAP1 DUP2 MSTORE PUSH1 0x20 ADD PUSH1 0x0 KECCAK256 PUSH1 0x0 DUP4 DUP2 MSTORE PUSH1 0x20 ADD SWAP1 DUP2 MSTORE PUSH1 0x20 ADD PUSH1 0x0 KECCAK256 PUSH1 0x5 ADD PUSH1 0x1 ADD PUSH1 0x0 PUSH2 0x100 EXP DUP2 SLOAD DUP2 PUSH20 0xFFFFFFFFFFFFFFFFFFFFFFFFFFFFFFFFFFFFFFFF MUL NOT AND SWAP1 DUP4 PUSH20 0xFFFFFFFFFFFFFFFFFFFFFFFFFFFFFFFFFFFFFFFF AND MUL OR SWAP1 SSTORE POP PUSH32 0x3360922F476CA526045A942931F1A0E5FCBB757198F9C8B62F92C872E9A77688 DUP8 DUP8 DUP8 DUP8 DUP8 PUSH1 0x40 MLOAD PUSH2 0xF21 SWAP6 SWAP5 SWAP4 SWAP3 SWAP2 SWAP1 PUSH2 0x3D2E JUMP JUMPDEST PUSH1 0x40 MLOAD DUP1 SWAP2 SUB SWAP1 LOG1 POP POP POP POP POP POP POP JUMP JUMPDEST PUSH1 0x0 PUSH1 0x7 PUSH1 0x0 DUP4 PUSH20 0xFFFFFFFFFFFFFFFFFFFFFFFFFFFFFFFFFFFFFFFF AND PUSH20 0xFFFFFFFFFFFFFFFFFFFFFFFFFFFFFFFFFFFFFFFF AND DUP2 MSTORE PUSH1 0x20 ADD SWAP1 DUP2 MSTORE PUSH1 0x20 ADD PUSH1 0x0 KECCAK256 PUSH1 0x0 ADD PUSH1 0x0 SWAP1 SLOAD SWAP1 PUSH2 0x100 EXP SWAP1 DIV PUSH1 0xFF AND SWAP1 POP SWAP2 SWAP1 POP JUMP JUMPDEST PUSH1 0x0 DUP1 PUSH1 0x0 SWAP1 SLOAD SWAP1 PUSH2 0x100 EXP SWAP1 DIV PUSH20 0xFFFFFFFFFFFFFFFFFFFFFFFFFFFFFFFFFFFFFFFF AND SWAP1 POP SWAP1 JUMP JUMPDEST PUSH1 0x0 DUP2 PUSH20 0xFFFFFFFFFFFFFFFFFFFFFFFFFFFFFFFFFFFFFFFF AND PUSH1 0x1 PUSH1 0x0 SWAP1 SLOAD SWAP1 PUSH2 0x100 EXP SWAP1 DIV PUSH20 0xFFFFFFFFFFFFFFFFFFFFFFFFFFFFFFFFFFFFFFFF AND PUSH20 0xFFFFFFFFFFFFFFFFFFFFFFFFFFFFFFFFFFFFFFFF AND EQ SWAP1 POP SWAP2 SWAP1 POP JUMP JUMPDEST PUSH2 0x1017 DUP4 PUSH2 0x21F5 JUMP JUMPDEST ISZERO PUSH2 0x1057 JUMPI PUSH1 0x40 MLOAD PUSH32 0x8C379A000000000000000000000000000000000000000000000000000000000 DUP2 MSTORE PUSH1 0x4 ADD PUSH2 0x104E SWAP1 PUSH2 0x3F88 JUMP JUMPDEST PUSH1 0x40 MLOAD DUP1 SWAP2 SUB SWAP1 REVERT JUMPDEST PUSH1 0x1 PUSH1 0x9 PUSH1 0x0 DUP6 PUSH20 0xFFFFFFFFFFFFFFFFFFFFFFFFFFFFFFFFFFFFFFFF AND PUSH20 0xFFFFFFFFFFFFFFFFFFFFFFFFFFFFFFFFFFFFFFFF AND DUP2 MSTORE PUSH1 0x20 ADD SWAP1 DUP2 MSTORE PUSH1 0x20 ADD PUSH1 0x0 KECCAK256 PUSH1 0x0 ADD PUSH1 0x0 PUSH2 0x100 EXP DUP2 SLOAD DUP2 PUSH1 0xFF MUL NOT AND SWAP1 DUP4 ISZERO ISZERO MUL OR SWAP1 SSTORE POP DUP2 PUSH1 0x9 PUSH1 0x0 DUP6 PUSH20 0xFFFFFFFFFFFFFFFFFFFFFFFFFFFFFFFFFFFFFFFF AND PUSH20 0xFFFFFFFFFFFFFFFFFFFFFFFFFFFFFFFFFFFFFFFF AND DUP2 MSTORE PUSH1 0x20 ADD SWAP1 DUP2 MSTORE PUSH1 0x20 ADD PUSH1 0x0 KECCAK256 PUSH1 0x1 ADD SWAP1 DUP1 MLOAD SWAP1 PUSH1 0x20 ADD SWAP1 PUSH2 0x1108 SWAP3 SWAP2 SWAP1 PUSH2 0x34A8 JUMP JUMPDEST POP DUP1 PUSH1 0x9 PUSH1 0x0 DUP6 PUSH20 0xFFFFFFFFFFFFFFFFFFFFFFFFFFFFFFFFFFFFFFFF AND PUSH20 0xFFFFFFFFFFFFFFFFFFFFFFFFFFFFFFFFFFFFFFFF AND DUP2 MSTORE PUSH1 0x20 ADD SWAP1 DUP2 MSTORE PUSH1 0x20 ADD PUSH1 0x0 KECCAK256 PUSH1 0x2 ADD PUSH1 0x0 PUSH2 0x100 EXP DUP2 SLOAD DUP2 PUSH1 0xFF MUL NOT AND SWAP1 DUP4 PUSH1 0xFF AND MUL OR SWAP1 SSTORE POP POP POP POP JUMP JUMPDEST PUSH1 0x7 PUSH1 0x20 MSTORE DUP1 PUSH1 0x0 MSTORE PUSH1 0x40 PUSH1 0x0 KECCAK256 PUSH1 0x0 SWAP2 POP SWAP1 POP DUP1 PUSH1 0x0 ADD PUSH1 0x0 SWAP1 SLOAD SWAP1 PUSH2 0x100 EXP SWAP1 DIV PUSH1 0xFF AND SWAP1 DUP1 PUSH1 0x1 ADD DUP1 SLOAD PUSH2 0x119F SWAP1 PUSH2 0x4300 JUMP JUMPDEST DUP1 PUSH1 0x1F ADD PUSH1 0x20 DUP1 SWAP2 DIV MUL PUSH1 0x20 ADD PUSH1 0x40 MLOAD SWAP1 DUP2 ADD PUSH1 0x40 MSTORE DUP1 SWAP3 SWAP2 SWAP1 DUP2 DUP2 MSTORE PUSH1 0x20 ADD DUP3 DUP1 SLOAD PUSH2 0x11CB SWAP1 PUSH2 0x4300 JUMP JUMPDEST DUP1 ISZERO PUSH2 0x1218 JUMPI DUP1 PUSH1 0x1F LT PUSH2 0x11ED JUMPI PUSH2 0x100 DUP1 DUP4 SLOAD DIV MUL DUP4 MSTORE SWAP2 PUSH1 0x20 ADD SWAP2 PUSH2 0x1218 JUMP JUMPDEST DUP3 ADD SWAP2 SWAP1 PUSH1 0x0 MSTORE PUSH1 0x20 PUSH1 0x0 KECCAK256 SWAP1 JUMPDEST DUP2 SLOAD DUP2 MSTORE SWAP1 PUSH1 0x1 ADD SWAP1 PUSH1 0x20 ADD DUP1 DUP4 GT PUSH2 0x11FB JUMPI DUP3 SWAP1 SUB PUSH1 0x1F AND DUP3 ADD SWAP2 JUMPDEST POP POP POP POP POP SWAP1 DUP1 PUSH1 0x2 ADD PUSH1 0x0 SWAP1 SLOAD SWAP1 PUSH2 0x100 EXP SWAP1 DIV PUSH1 0xFF AND SWAP1 POP DUP4 JUMP JUMPDEST PUSH1 0x0 PUSH1 0xD PUSH1 0x0 SWAP1 SLOAD SWAP1 PUSH2 0x100 EXP SWAP1 DIV PUSH20 0xFFFFFFFFFFFFFFFFFFFFFFFFFFFFFFFFFFFFFFFF AND PUSH20 0xFFFFFFFFFFFFFFFFFFFFFFFFFFFFFFFFFFFFFFFF AND PUSH4 0xF0040EB9 CALLER PUSH1 0x40 MLOAD DUP3 PUSH4 0xFFFFFFFF AND PUSH1 0xE0 SHL DUP2 MSTORE PUSH1 0x4 ADD PUSH2 0x1292 SWAP2 SWAP1 PUSH2 0x3D13 JUMP JUMPDEST PUSH1 0x20 PUSH1 0x40 MLOAD DUP1 DUP4 SUB DUP2 DUP7 DUP1 EXTCODESIZE ISZERO DUP1 ISZERO PUSH2 0x12AA JUMPI PUSH1 0x0 DUP1 REVERT JUMPDEST POP GAS STATICCALL ISZERO DUP1 ISZERO PUSH2 0x12BE JUMPI RETURNDATASIZE PUSH1 0x0 DUP1 RETURNDATACOPY RETURNDATASIZE PUSH1 0x0 REVERT JUMPDEST POP POP POP POP PUSH1 0x40 MLOAD RETURNDATASIZE PUSH1 0x1F NOT PUSH1 0x1F DUP3 ADD AND DUP3 ADD DUP1 PUSH1 0x40 MSTORE POP DUP2 ADD SWAP1 PUSH2 0x12E2 SWAP2 SWAP1 PUSH2 0x39FA JUMP JUMPDEST DUP1 PUSH2 0x1394 JUMPI POP PUSH1 0xD PUSH1 0x0 SWAP1 SLOAD SWAP1 PUSH2 0x100 EXP SWAP1 DIV PUSH20 0xFFFFFFFFFFFFFFFFFFFFFFFFFFFFFFFFFFFFFFFF AND PUSH20 0xFFFFFFFFFFFFFFFFFFFFFFFFFFFFFFFFFFFFFFFF AND PUSH4 0x2D087D70 CALLER PUSH1 0x40 MLOAD DUP3 PUSH4 0xFFFFFFFF AND PUSH1 0xE0 SHL DUP2 MSTORE PUSH1 0x4 ADD PUSH2 0x1343 SWAP2 SWAP1 PUSH2 0x3D13 JUMP JUMPDEST PUSH1 0x20 PUSH1 0x40 MLOAD DUP1 DUP4 SUB DUP2 DUP7 DUP1 EXTCODESIZE ISZERO DUP1 ISZERO PUSH2 0x135B JUMPI PUSH1 0x0 DUP1 REVERT JUMPDEST POP GAS STATICCALL ISZERO DUP1 ISZERO PUSH2 0x136F JUMPI RETURNDATASIZE PUSH1 0x0 DUP1 RETURNDATACOPY RETURNDATASIZE PUSH1 0x0 REVERT JUMPDEST POP POP POP POP PUSH1 0x40 MLOAD RETURNDATASIZE PUSH1 0x1F NOT PUSH1 0x1F DUP3 ADD AND DUP3 ADD DUP1 PUSH1 0x40 MSTORE POP DUP2 ADD SWAP1 PUSH2 0x1393 SWAP2 SWAP1 PUSH2 0x39FA JUMP JUMPDEST JUMPDEST DUP1 PUSH2 0x1446 JUMPI POP PUSH1 0xD PUSH1 0x0 SWAP1 SLOAD SWAP1 PUSH2 0x100 EXP SWAP1 DIV PUSH20 0xFFFFFFFFFFFFFFFFFFFFFFFFFFFFFFFFFFFFFFFF AND PUSH20 0xFFFFFFFFFFFFFFFFFFFFFFFFFFFFFFFFFFFFFFFF AND PUSH4 0x514E03C7 CALLER PUSH1 0x40 MLOAD DUP3 PUSH4 0xFFFFFFFF AND PUSH1 0xE0 SHL DUP2 MSTORE PUSH1 0x4 ADD PUSH2 0x13F5 SWAP2 SWAP1 PUSH2 0x3D13 JUMP JUMPDEST PUSH1 0x20 PUSH1 0x40 MLOAD DUP1 DUP4 SUB DUP2 DUP7 DUP1 EXTCODESIZE ISZERO DUP1 ISZERO PUSH2 0x140D JUMPI PUSH1 0x0 DUP1 REVERT JUMPDEST POP GAS STATICCALL ISZERO DUP1 ISZERO PUSH2 0x1421 JUMPI RETURNDATASIZE PUSH1 0x0 DUP1 RETURNDATACOPY RETURNDATASIZE PUSH1 0x0 REVERT JUMPDEST POP POP POP POP PUSH1 0x40 MLOAD RETURNDATASIZE PUSH1 0x1F NOT PUSH1 0x1F DUP3 ADD AND DUP3 ADD DUP1 PUSH1 0x40 MSTORE POP DUP2 ADD SWAP1 PUSH2 0x1445 SWAP2 SWAP1 PUSH2 0x39FA JUMP JUMPDEST JUMPDEST DUP1 PUSH2 0x14F8 JUMPI POP PUSH1 0xD PUSH1 0x0 SWAP1 SLOAD SWAP1 PUSH2 0x100 EXP SWAP1 DIV PUSH20 0xFFFFFFFFFFFFFFFFFFFFFFFFFFFFFFFFFFFFFFFF AND PUSH20 0xFFFFFFFFFFFFFFFFFFFFFFFFFFFFFFFFFFFFFFFF AND PUSH4 0x24EB6BC CALLER PUSH1 0x40 MLOAD DUP3 PUSH4 0xFFFFFFFF AND PUSH1 0xE0 SHL DUP2 MSTORE PUSH1 0x4 ADD PUSH2 0x14A7 SWAP2 SWAP1 PUSH2 0x3D13 JUMP JUMPDEST PUSH1 0x20 PUSH1 0x40 MLOAD DUP1 DUP4 SUB DUP2 DUP7 DUP1 EXTCODESIZE ISZERO DUP1 ISZERO PUSH2 0x14BF JUMPI PUSH1 0x0 DUP1 REVERT JUMPDEST POP GAS STATICCALL ISZERO DUP1 ISZERO PUSH2 0x14D3 JUMPI RETURNDATASIZE PUSH1 0x0 DUP1 RETURNDATACOPY RETURNDATASIZE PUSH1 0x0 REVERT JUMPDEST POP POP POP POP PUSH1 0x40 MLOAD RETURNDATASIZE PUSH1 0x1F NOT PUSH1 0x1F DUP3 ADD AND DUP3 ADD DUP1 PUSH1 0x40 MSTORE POP DUP2 ADD SWAP1 PUSH2 0x14F7 SWAP2 SWAP1 PUSH2 0x39FA JUMP JUMPDEST JUMPDEST PUSH2 0x1537 JUMPI PUSH1 0x40 MLOAD PUSH32 0x8C379A000000000000000000000000000000000000000000000000000000000 DUP2 MSTORE PUSH1 0x4 ADD PUSH2 0x152E SWAP1 PUSH2 0x3F68 JUMP JUMPDEST PUSH1 0x40 MLOAD DUP1 SWAP2 SUB SWAP1 REVERT JUMPDEST PUSH1 0xD PUSH1 0x0 SWAP1 SLOAD SWAP1 PUSH2 0x100 EXP SWAP1 DIV PUSH20 0xFFFFFFFFFFFFFFFFFFFFFFFFFFFFFFFFFFFFFFFF AND PUSH20 0xFFFFFFFFFFFFFFFFFFFFFFFFFFFFFFFFFFFFFFFF AND PUSH4 0xB98CCEFD DUP11 PUSH1 0x40 MLOAD DUP3 PUSH4 0xFFFFFFFF AND PUSH1 0xE0 SHL DUP2 MSTORE PUSH1 0x4 ADD PUSH2 0x1592 SWAP2 SWAP1 PUSH2 0x3D13 JUMP JUMPDEST PUSH1 0x20 PUSH1 0x40 MLOAD DUP1 DUP4 SUB DUP2 DUP7 DUP1 EXTCODESIZE ISZERO DUP1 ISZERO PUSH2 0x15AA JUMPI PUSH1 0x0 DUP1 REVERT JUMPDEST POP GAS STATICCALL ISZERO DUP1 ISZERO PUSH2 0x15BE JUMPI RETURNDATASIZE PUSH1 0x0 DUP1 RETURNDATACOPY RETURNDATASIZE PUSH1 0x0 REVERT JUMPDEST POP POP POP POP PUSH1 0x40 MLOAD RETURNDATASIZE PUSH1 0x1F NOT PUSH1 0x1F DUP3 ADD AND DUP3 ADD DUP1 PUSH1 0x40 MSTORE POP DUP2 ADD SWAP1 PUSH2 0x15E2 SWAP2 SWAP1 PUSH2 0x39FA JUMP JUMPDEST PUSH2 0x1621 JUMPI PUSH1 0x40 MLOAD PUSH32 0x8C379A000000000000000000000000000000000000000000000000000000000 DUP2 MSTORE PUSH1 0x4 ADD PUSH2 0x1618 SWAP1 PUSH2 0x4008 JUMP JUMPDEST PUSH1 0x40 MLOAD DUP1 SWAP2 SUB SWAP1 REVERT JUMPDEST DUP7 PUSH1 0xE PUSH1 0x0 DUP12 PUSH20 0xFFFFFFFFFFFFFFFFFFFFFFFFFFFFFFFFFFFFFFFF AND PUSH20 0xFFFFFFFFFFFFFFFFFFFFFFFFFFFFFFFFFFFFFFFF AND DUP2 MSTORE PUSH1 0x20 ADD SWAP1 DUP2 MSTORE PUSH1 0x20 ADD PUSH1 0x0 KECCAK256 PUSH1 0x0 DUP11 DUP2 MSTORE PUSH1 0x20 ADD SWAP1 DUP2 MSTORE PUSH1 0x20 ADD PUSH1 0x0 KECCAK256 PUSH1 0x1 ADD PUSH1 0x14 PUSH2 0x100 EXP DUP2 SLOAD DUP2 PUSH1 0xFF MUL NOT AND SWAP1 DUP4 PUSH1 0x5 DUP2 GT ISZERO PUSH2 0x1697 JUMPI PUSH2 0x1696 PUSH2 0x43DB JUMP JUMPDEST JUMPDEST MUL OR SWAP1 SSTORE POP DUP6 PUSH1 0xE PUSH1 0x0 DUP12 PUSH20 0xFFFFFFFFFFFFFFFFFFFFFFFFFFFFFFFFFFFFFFFF AND PUSH20 0xFFFFFFFFFFFFFFFFFFFFFFFFFFFFFFFFFFFFFFFF AND DUP2 MSTORE PUSH1 0x20 ADD SWAP1 DUP2 MSTORE PUSH1 0x20 ADD PUSH1 0x0 KECCAK256 PUSH1 0x0 DUP11 DUP2 MSTORE PUSH1 0x20 ADD SWAP1 DUP2 MSTORE PUSH1 0x20 ADD PUSH1 0x0 KECCAK256 PUSH1 0x2 ADD DUP2 SWAP1 SSTORE POP DUP5 PUSH1 0xE PUSH1 0x0 DUP12 PUSH20 0xFFFFFFFFFFFFFFFFFFFFFFFFFFFFFFFFFFFFFFFF AND PUSH20 0xFFFFFFFFFFFFFFFFFFFFFFFFFFFFFFFFFFFFFFFF AND DUP2 MSTORE PUSH1 0x20 ADD SWAP1 DUP2 MSTORE PUSH1 0x20 ADD PUSH1 0x0 KECCAK256 PUSH1 0x0 DUP11 DUP2 MSTORE PUSH1 0x20 ADD SWAP1 DUP2 MSTORE PUSH1 0x20 ADD PUSH1 0x0 KECCAK256 PUSH1 0x3 ADD DUP2 SWAP1 SSTORE POP DUP4 PUSH1 0xE PUSH1 0x0 DUP12 PUSH20 0xFFFFFFFFFFFFFFFFFFFFFFFFFFFFFFFFFFFFFFFF AND PUSH20 0xFFFFFFFFFFFFFFFFFFFFFFFFFFFFFFFFFFFFFFFF AND DUP2 MSTORE PUSH1 0x20 ADD SWAP1 DUP2 MSTORE PUSH1 0x20 ADD PUSH1 0x0 KECCAK256 PUSH1 0x0 DUP11 DUP2 MSTORE PUSH1 0x20 ADD SWAP1 DUP2 MSTORE PUSH1 0x20 ADD PUSH1 0x0 KECCAK256 PUSH1 0x4 ADD PUSH1 0x0 PUSH2 0x100 EXP DUP2 SLOAD DUP2 PUSH1 0xFF MUL NOT AND SWAP1 DUP4 PUSH1 0x3 DUP2 GT ISZERO PUSH2 0x17C2 JUMPI PUSH2 0x17C1 PUSH2 0x43DB JUMP JUMPDEST JUMPDEST MUL OR SWAP1 SSTORE POP DUP3 PUSH1 0xE PUSH1 0x0 DUP12 PUSH20 0xFFFFFFFFFFFFFFFFFFFFFFFFFFFFFFFFFFFFFFFF AND PUSH20 0xFFFFFFFFFFFFFFFFFFFFFFFFFFFFFFFFFFFFFFFF AND DUP2 MSTORE PUSH1 0x20 ADD SWAP1 DUP2 MSTORE PUSH1 0x20 ADD PUSH1 0x0 KECCAK256 PUSH1 0x0 DUP11 DUP2 MSTORE PUSH1 0x20 ADD SWAP1 DUP2 MSTORE PUSH1 0x20 ADD PUSH1 0x0 KECCAK256 PUSH1 0x4 ADD PUSH1 0x1 PUSH2 0x100 EXP DUP2 SLOAD DUP2 PUSH4 0xFFFFFFFF MUL NOT AND SWAP1 DUP4 PUSH4 0xFFFFFFFF AND MUL OR SWAP1 SSTORE POP DUP2 PUSH1 0xE PUSH1 0x0 DUP12 PUSH20 0xFFFFFFFFFFFFFFFFFFFFFFFFFFFFFFFFFFFFFFFF AND PUSH20 0xFFFFFFFFFFFFFFFFFFFFFFFFFFFFFFFFFFFFFFFF AND DUP2 MSTORE PUSH1 0x20 ADD SWAP1 DUP2 MSTORE PUSH1 0x20 ADD PUSH1 0x0 KECCAK256 PUSH1 0x0 DUP11 DUP2 MSTORE PUSH1 0x20 ADD SWAP1 DUP2 MSTORE PUSH1 0x20 ADD PUSH1 0x0 KECCAK256 PUSH1 0x4 ADD PUSH1 0x5 PUSH2 0x100 EXP DUP2 SLOAD DUP2 PUSH1 0xFF MUL NOT AND SWAP1 DUP4 PUSH1 0x3 DUP2 GT ISZERO PUSH2 0x18AF JUMPI PUSH2 0x18AE PUSH2 0x43DB JUMP JUMPDEST JUMPDEST MUL OR SWAP1 SSTORE POP PUSH1 0x1 PUSH1 0xE PUSH1 0x0 DUP12 PUSH20 0xFFFFFFFFFFFFFFFFFFFFFFFFFFFFFFFFFFFFFFFF AND PUSH20 0xFFFFFFFFFFFFFFFFFFFFFFFFFFFFFFFFFFFFFFFF AND DUP2 MSTORE PUSH1 0x20 ADD SWAP1 DUP2 MSTORE PUSH1 0x20 ADD PUSH1 0x0 KECCAK256 PUSH1 0x0 DUP11 DUP2 MSTORE PUSH1 0x20 ADD SWAP1 DUP2 MSTORE PUSH1 0x20 ADD PUSH1 0x0 KECCAK256 PUSH1 0x5 ADD PUSH1 0x1 ADD PUSH1 0x14 PUSH2 0x100 EXP DUP2 SLOAD DUP2 PUSH1 0xFF MUL NOT AND SWAP1 DUP4 PUSH1 0x2 DUP2 GT ISZERO PUSH2 0x192E JUMPI PUSH2 0x192D PUSH2 0x43DB JUMP JUMPDEST JUMPDEST MUL OR SWAP1 SSTORE POP TIMESTAMP PUSH1 0xE PUSH1 0x0 DUP12 PUSH20 0xFFFFFFFFFFFFFFFFFFFFFFFFFFFFFFFFFFFFFFFF AND PUSH20 0xFFFFFFFFFFFFFFFFFFFFFFFFFFFFFFFFFFFFFFFF AND DUP2 MSTORE PUSH1 0x20 ADD SWAP1 DUP2 MSTORE PUSH1 0x20 ADD PUSH1 0x0 KECCAK256 PUSH1 0x0 DUP11 DUP2 MSTORE PUSH1 0x20 ADD SWAP1 DUP2 MSTORE PUSH1 0x20 ADD PUSH1 0x0 KECCAK256 PUSH1 0x5 ADD PUSH1 0x0 ADD DUP2 SWAP1 SSTORE POP CALLER PUSH1 0xE PUSH1 0x0 DUP12 PUSH20 0xFFFFFFFFFFFFFFFFFFFFFFFFFFFFFFFFFFFFFFFF AND PUSH20 0xFFFFFFFFFFFFFFFFFFFFFFFFFFFFFFFFFFFFFFFF AND DUP2 MSTORE PUSH1 0x20 ADD SWAP1 DUP2 MSTORE PUSH1 0x20 ADD PUSH1 0x0 KECCAK256 PUSH1 0x0 DUP11 DUP2 MSTORE PUSH1 0x20 ADD SWAP1 DUP2 MSTORE PUSH1 0x20 ADD PUSH1 0x0 KECCAK256 PUSH1 0x5 ADD PUSH1 0x1 ADD PUSH1 0x0 PUSH2 0x100 EXP DUP2 SLOAD DUP2 PUSH20 0xFFFFFFFFFFFFFFFFFFFFFFFFFFFFFFFFFFFFFFFF MUL NOT AND SWAP1 DUP4 PUSH20 0xFFFFFFFFFFFFFFFFFFFFFFFFFFFFFFFFFFFFFFFF AND MUL OR SWAP1 SSTORE POP PUSH31 0x8FDFFFA514A537DACB0033300463694B1566A2286BFB76F047F70377B990E7 DUP8 DUP8 DUP8 DUP8 DUP8 PUSH1 0x40 MLOAD PUSH2 0x1A59 SWAP6 SWAP5 SWAP4 SWAP3 SWAP2 SWAP1 PUSH2 0x3E95 JUMP JUMPDEST PUSH1 0x40 MLOAD DUP1 SWAP2 SUB SWAP1 LOG1 DUP8 SWAP1 POP SWAP9 SWAP8 POP POP POP POP POP POP POP POP JUMP JUMPDEST PUSH1 0x4 PUSH1 0x20 MSTORE DUP1 PUSH1 0x0 MSTORE PUSH1 0x40 PUSH1 0x0 KECCAK256 PUSH1 0x0 SWAP2 POP SWAP1 POP DUP1 PUSH1 0x0 ADD PUSH1 0x0 SWAP1 SLOAD SWAP1 PUSH2 0x100 EXP SWAP1 DIV PUSH1 0xFF AND SWAP1 DUP1 PUSH1 0x1 ADD DUP1 SLOAD PUSH2 0x1AA6 SWAP1 PUSH2 0x4300 JUMP JUMPDEST DUP1 PUSH1 0x1F ADD PUSH1 0x20 DUP1 SWAP2 DIV MUL PUSH1 0x20 ADD PUSH1 0x40 MLOAD SWAP1 DUP2 ADD PUSH1 0x40 MSTORE DUP1 SWAP3 SWAP2 SWAP1 DUP2 DUP2 MSTORE PUSH1 0x20 ADD DUP3 DUP1 SLOAD PUSH2 0x1AD2 SWAP1 PUSH2 0x4300 JUMP JUMPDEST DUP1 ISZERO PUSH2 0x1B1F JUMPI DUP1 PUSH1 0x1F LT PUSH2 0x1AF4 JUMPI PUSH2 0x100 DUP1 DUP4 SLOAD DIV MUL DUP4 MSTORE SWAP2 PUSH1 0x20 ADD SWAP2 PUSH2 0x1B1F JUMP JUMPDEST DUP3 ADD SWAP2 SWAP1 PUSH1 0x0 MSTORE PUSH1 0x20 PUSH1 0x0 KECCAK256 SWAP1 JUMPDEST DUP2 SLOAD DUP2 MSTORE SWAP1 PUSH1 0x1 ADD SWAP1 PUSH1 0x20 ADD DUP1 DUP4 GT PUSH2 0x1B02 JUMPI DUP3 SWAP1 SUB PUSH1 0x1F AND DUP3 ADD SWAP2 JUMPDEST POP POP POP POP POP SWAP1 DUP1 PUSH1 0x2 ADD PUSH1 0x0 SWAP1 SLOAD SWAP1 PUSH2 0x100 EXP SWAP1 DIV PUSH1 0xFF AND SWAP1 POP DUP4 JUMP JUMPDEST PUSH1 0x0 PUSH1 0x6 PUSH1 0x0 DUP4 PUSH20 0xFFFFFFFFFFFFFFFFFFFFFFFFFFFFFFFFFFFFFFFF AND PUSH20 0xFFFFFFFFFFFFFFFFFFFFFFFFFFFFFFFFFFFFFFFF AND DUP2 MSTORE PUSH1 0x20 ADD SWAP1 DUP2 MSTORE PUSH1 0x20 ADD PUSH1 0x0 KECCAK256 PUSH1 0x0 ADD PUSH1 0x0 SWAP1 SLOAD SWAP1 PUSH2 0x100 EXP SWAP1 DIV PUSH1 0xFF AND SWAP1 POP SWAP2 SWAP1 POP JUMP JUMPDEST PUSH1 0xA PUSH1 0x20 MSTORE DUP1 PUSH1 0x0 MSTORE PUSH1 0x40 PUSH1 0x0 KECCAK256 PUSH1 0x0 SWAP2 POP SWAP1 POP DUP1 PUSH1 0x0 ADD PUSH1 0x0 SWAP1 SLOAD SWAP1 PUSH2 0x100 EXP SWAP1 DIV PUSH1 0xFF AND SWAP1 DUP1 PUSH1 0x1 ADD DUP1 SLOAD PUSH2 0x1BCB SWAP1 PUSH2 0x4300 JUMP JUMPDEST DUP1 PUSH1 0x1F ADD PUSH1 0x20 DUP1 SWAP2 DIV MUL PUSH1 0x20 ADD PUSH1 0x40 MLOAD SWAP1 DUP2 ADD PUSH1 0x40 MSTORE DUP1 SWAP3 SWAP2 SWAP1 DUP2 DUP2 MSTORE PUSH1 0x20 ADD DUP3 DUP1 SLOAD PUSH2 0x1BF7 SWAP1 PUSH2 0x4300 JUMP JUMPDEST DUP1 ISZERO PUSH2 0x1C44 JUMPI DUP1 PUSH1 0x1F LT PUSH2 0x1C19 JUMPI PUSH2 0x100 DUP1 DUP4 SLOAD DIV MUL DUP4 MSTORE SWAP2 PUSH1 0x20 ADD SWAP2 PUSH2 0x1C44 JUMP JUMPDEST DUP3 ADD SWAP2 SWAP1 PUSH1 0x0 MSTORE PUSH1 0x20 PUSH1 0x0 KECCAK256 SWAP1 JUMPDEST DUP2 SLOAD DUP2 MSTORE SWAP1 PUSH1 0x1 ADD SWAP1 PUSH1 0x20 ADD DUP1 DUP4 GT PUSH2 0x1C27 JUMPI DUP3 SWAP1 SUB PUSH1 0x1F AND DUP3 ADD SWAP2 JUMPDEST POP POP POP POP POP SWAP1 DUP1 PUSH1 0x2 ADD PUSH1 0x0 SWAP1 SLOAD SWAP1 PUSH2 0x100 EXP SWAP1 DIV PUSH1 0xFF AND SWAP1 POP DUP4 JUMP JUMPDEST DUP3 PUSH1 0x0 DUP1 PUSH2 0x100 EXP DUP2 SLOAD DUP2 PUSH20 0xFFFFFFFFFFFFFFFFFFFFFFFFFFFFFFFFFFFFFFFF MUL NOT AND SWAP1 DUP4 PUSH20 0xFFFFFFFFFFFFFFFFFFFFFFFFFFFFFFFFFFFFFFFF AND MUL OR SWAP1 SSTORE POP DUP2 PUSH1 0x1 PUSH1 0x0 PUSH2 0x100 EXP DUP2 SLOAD DUP2 PUSH20 0xFFFFFFFFFFFFFFFFFFFFFFFFFFFFFFFFFFFFFFFF MUL NOT AND SWAP1 DUP4 PUSH20 0xFFFFFFFFFFFFFFFFFFFFFFFFFFFFFFFFFFFFFFFF AND MUL OR SWAP1 SSTORE POP DUP1 PUSH1 0x2 PUSH1 0x0 PUSH2 0x100 EXP DUP2 SLOAD DUP2 PUSH20 0xFFFFFFFFFFFFFFFFFFFFFFFFFFFFFFFFFFFFFFFF MUL NOT AND SWAP1 DUP4 PUSH20 0xFFFFFFFFFFFFFFFFFFFFFFFFFFFFFFFFFFFFFFFF AND MUL OR SWAP1 SSTORE POP POP POP POP JUMP JUMPDEST PUSH1 0x6 PUSH1 0x20 MSTORE DUP1 PUSH1 0x0 MSTORE PUSH1 0x40 PUSH1 0x0 KECCAK256 PUSH1 0x0 SWAP2 POP SWAP1 POP DUP1 PUSH1 0x0 ADD PUSH1 0x0 SWAP1 SLOAD SWAP1 PUSH2 0x100 EXP SWAP1 DIV PUSH1 0xFF AND SWAP1 DUP1 PUSH1 0x0 ADD PUSH1 0x1 SWAP1 SLOAD SWAP1 PUSH2 0x100 EXP SWAP1 DIV PUSH1 0xFF AND SWAP1 DUP1 PUSH1 0x1 ADD SLOAD SWAP1 DUP1 PUSH1 0x2 ADD DUP1 SLOAD PUSH2 0x1D77 SWAP1 PUSH2 0x4300 JUMP JUMPDEST DUP1 PUSH1 0x1F ADD PUSH1 0x20 DUP1 SWAP2 DIV MUL PUSH1 0x20 ADD PUSH1 0x40 MLOAD SWAP1 DUP2 ADD PUSH1 0x40 MSTORE DUP1 SWAP3 SWAP2 SWAP1 DUP2 DUP2 MSTORE PUSH1 0x20 ADD DUP3 DUP1 SLOAD PUSH2 0x1DA3 SWAP1 PUSH2 0x4300 JUMP JUMPDEST DUP1 ISZERO PUSH2 0x1DF0 JUMPI DUP1 PUSH1 0x1F LT PUSH2 0x1DC5 JUMPI PUSH2 0x100 DUP1 DUP4 SLOAD DIV MUL DUP4 MSTORE SWAP2 PUSH1 0x20 ADD SWAP2 PUSH2 0x1DF0 JUMP JUMPDEST DUP3 ADD SWAP2 SWAP1 PUSH1 0x0 MSTORE PUSH1 0x20 PUSH1 0x0 KECCAK256 SWAP1 JUMPDEST DUP2 SLOAD DUP2 MSTORE SWAP1 PUSH1 0x1 ADD SWAP1 PUSH1 0x20 ADD DUP1 DUP4 GT PUSH2 0x1DD3 JUMPI DUP3 SWAP1 SUB PUSH1 0x1F AND DUP3 ADD SWAP2 JUMPDEST POP POP POP POP POP SWAP1 POP DUP5 JUMP JUMPDEST PUSH2 0x1E03 DUP4 PUSH2 0xF32 JUMP JUMPDEST ISZERO PUSH2 0x1E43 JUMPI PUSH1 0x40 MLOAD PUSH32 0x8C379A000000000000000000000000000000000000000000000000000000000 DUP2 MSTORE PUSH1 0x4 ADD PUSH2 0x1E3A SWAP1 PUSH2 0x3EE8 JUMP JUMPDEST PUSH1 0x40 MLOAD DUP1 SWAP2 SUB SWAP1 REVERT JUMPDEST PUSH1 0x1 PUSH1 0x7 PUSH1 0x0 DUP6 PUSH20 0xFFFFFFFFFFFFFFFFFFFFFFFFFFFFFFFFFFFFFFFF AND PUSH20 0xFFFFFFFFFFFFFFFFFFFFFFFFFFFFFFFFFFFFFFFF AND DUP2 MSTORE PUSH1 0x20 ADD SWAP1 DUP2 MSTORE PUSH1 0x20 ADD PUSH1 0x0 KECCAK256 PUSH1 0x0 ADD PUSH1 0x0 PUSH2 0x100 EXP DUP2 SLOAD DUP2 PUSH1 0xFF MUL NOT AND SWAP1 DUP4 ISZERO ISZERO MUL OR SWAP1 SSTORE POP DUP2 PUSH1 0x7 PUSH1 0x0 DUP6 PUSH20 0xFFFFFFFFFFFFFFFFFFFFFFFFFFFFFFFFFFFFFFFF AND PUSH20 0xFFFFFFFFFFFFFFFFFFFFFFFFFFFFFFFFFFFFFFFF AND DUP2 MSTORE PUSH1 0x20 ADD SWAP1 DUP2 MSTORE PUSH1 0x20 ADD PUSH1 0x0 KECCAK256 PUSH1 0x1 ADD SWAP1 DUP1 MLOAD SWAP1 PUSH1 0x20 ADD SWAP1 PUSH2 0x1EF4 SWAP3 SWAP2 SWAP1 PUSH2 0x34A8 JUMP JUMPDEST POP DUP1 PUSH1 0x7 PUSH1 0x0 DUP6 PUSH20 0xFFFFFFFFFFFFFFFFFFFFFFFFFFFFFFFFFFFFFFFF AND PUSH20 0xFFFFFFFFFFFFFFFFFFFFFFFFFFFFFFFFFFFFFFFF AND DUP2 MSTORE PUSH1 0x20 ADD SWAP1 DUP2 MSTORE PUSH1 0x20 ADD PUSH1 0x0 KECCAK256 PUSH1 0x2 ADD PUSH1 0x0 PUSH2 0x100 EXP DUP2 SLOAD DUP2 PUSH1 0xFF MUL NOT AND SWAP1 DUP4 PUSH1 0xFF AND MUL OR SWAP1 SSTORE POP POP POP POP JUMP JUMPDEST PUSH1 0x0 PUSH1 0x8 PUSH1 0x0 DUP4 PUSH20 0xFFFFFFFFFFFFFFFFFFFFFFFFFFFFFFFFFFFFFFFF AND PUSH20 0xFFFFFFFFFFFFFFFFFFFFFFFFFFFFFFFFFFFFFFFF AND DUP2 MSTORE PUSH1 0x20 ADD SWAP1 DUP2 MSTORE PUSH1 0x20 ADD PUSH1 0x0 KECCAK256 PUSH1 0x0 ADD PUSH1 0x0 SWAP1 SLOAD SWAP1 PUSH2 0x100 EXP SWAP1 DIV PUSH1 0xFF AND SWAP1 POP SWAP2 SWAP1 POP JUMP JUMPDEST PUSH1 0xE PUSH1 0x20 MSTORE DUP2 PUSH1 0x0 MSTORE PUSH1 0x40 PUSH1 0x0 KECCAK256 PUSH1 0x20 MSTORE DUP1 PUSH1 0x0 MSTORE PUSH1 0x40 PUSH1 0x0 KECCAK256 PUSH1 0x0 SWAP2 POP SWAP2 POP POP DUP1 PUSH1 0x0 ADD SLOAD SWAP1 DUP1 PUSH1 0x1 ADD PUSH1 0x0 SWAP1 SLOAD SWAP1 PUSH2 0x100 EXP SWAP1 DIV PUSH20 0xFFFFFFFFFFFFFFFFFFFFFFFFFFFFFFFFFFFFFFFF AND SWAP1 DUP1 PUSH1 0x1 ADD PUSH1 0x14 SWAP1 SLOAD SWAP1 PUSH2 0x100 EXP SWAP1 DIV PUSH1 0xFF AND SWAP1 DUP1 PUSH1 0x2 ADD SLOAD SWAP1 DUP1 PUSH1 0x3 ADD SLOAD SWAP1 DUP1 PUSH1 0x4 ADD PUSH1 0x0 SWAP1 SLOAD SWAP1 PUSH2 0x100 EXP SWAP1 DIV PUSH1 0xFF AND SWAP1 DUP1 PUSH1 0x4 ADD PUSH1 0x1 SWAP1 SLOAD SWAP1 PUSH2 0x100 EXP SWAP1 DIV PUSH4 0xFFFFFFFF AND SWAP1 DUP1 PUSH1 0x4 ADD PUSH1 0x5 SWAP1 SLOAD SWAP1 PUSH2 0x100 EXP SWAP1 DIV PUSH1 0xFF AND SWAP1 DUP1 PUSH1 0x5 ADD PUSH1 0x40 MLOAD DUP1 PUSH1 0x60 ADD PUSH1 0x40 MSTORE SWAP1 DUP2 PUSH1 0x0 DUP3 ADD SLOAD DUP2 MSTORE PUSH1 0x20 ADD PUSH1 0x1 DUP3 ADD PUSH1 0x0 SWAP1 SLOAD SWAP1 PUSH2 0x100 EXP SWAP1 DIV PUSH20 0xFFFFFFFFFFFFFFFFFFFFFFFFFFFFFFFFFFFFFFFF AND PUSH20 0xFFFFFFFFFFFFFFFFFFFFFFFFFFFFFFFFFFFFFFFF AND PUSH20 0xFFFFFFFFFFFFFFFFFFFFFFFFFFFFFFFFFFFFFFFF AND DUP2 MSTORE PUSH1 0x20 ADD PUSH1 0x1 DUP3 ADD PUSH1 0x14 SWAP1 SLOAD SWAP1 PUSH2 0x100 EXP SWAP1 DIV PUSH1 0xFF AND PUSH1 0x2 DUP2 GT ISZERO PUSH2 0x20EA JUMPI PUSH2 0x20E9 PUSH2 0x43DB JUMP JUMPDEST JUMPDEST PUSH1 0x2 DUP2 GT ISZERO PUSH2 0x20FC JUMPI PUSH2 0x20FB PUSH2 0x43DB JUMP JUMPDEST JUMPDEST DUP2 MSTORE POP POP SWAP1 POP DUP10 JUMP JUMPDEST PUSH1 0x0 DUP1 SLOAD SWAP1 PUSH2 0x100 EXP SWAP1 DIV PUSH20 0xFFFFFFFFFFFFFFFFFFFFFFFFFFFFFFFFFFFFFFFF AND DUP2 JUMP JUMPDEST PUSH1 0x8 PUSH1 0x20 MSTORE DUP1 PUSH1 0x0 MSTORE PUSH1 0x40 PUSH1 0x0 KECCAK256 PUSH1 0x0 SWAP2 POP SWAP1 POP DUP1 PUSH1 0x0 ADD PUSH1 0x0 SWAP1 SLOAD SWAP1 PUSH2 0x100 EXP SWAP1 DIV PUSH1 0xFF AND SWAP1 DUP1 PUSH1 0x1 ADD DUP1 SLOAD PUSH2 0x215F SWAP1 PUSH2 0x4300 JUMP JUMPDEST DUP1 PUSH1 0x1F ADD PUSH1 0x20 DUP1 SWAP2 DIV MUL PUSH1 0x20 ADD PUSH1 0x40 MLOAD SWAP1 DUP2 ADD PUSH1 0x40 MSTORE DUP1 SWAP3 SWAP2 SWAP1 DUP2 DUP2 MSTORE PUSH1 0x20 ADD DUP3 DUP1 SLOAD PUSH2 0x218B SWAP1 PUSH2 0x4300 JUMP JUMPDEST DUP1 ISZERO PUSH2 0x21D8 JUMPI DUP1 PUSH1 0x1F LT PUSH2 0x21AD JUMPI PUSH2 0x100 DUP1 DUP4 SLOAD DIV MUL DUP4 MSTORE SWAP2 PUSH1 0x20 ADD SWAP2 PUSH2 0x21D8 JUMP JUMPDEST DUP3 ADD SWAP2 SWAP1 PUSH1 0x0 MSTORE PUSH1 0x20 PUSH1 0x0 KECCAK256 SWAP1 JUMPDEST DUP2 SLOAD DUP2 MSTORE SWAP1 PUSH1 0x1 ADD SWAP1 PUSH1 0x20 ADD DUP1 DUP4 GT PUSH2 0x21BB JUMPI DUP3 SWAP1 SUB PUSH1 0x1F AND DUP3 ADD SWAP2 JUMPDEST POP POP POP POP POP SWAP1 DUP1 PUSH1 0x2 ADD PUSH1 0x0 SWAP1 SLOAD SWAP1 PUSH2 0x100 EXP SWAP1 DIV PUSH1 0xFF AND SWAP1 POP DUP4 JUMP JUMPDEST PUSH1 0x0 PUSH1 0x9 PUSH1 0x0 DUP4 PUSH20 0xFFFFFFFFFFFFFFFFFFFFFFFFFFFFFFFFFFFFFFFF AND PUSH20 0xFFFFFFFFFFFFFFFFFFFFFFFFFFFFFFFFFFFFFFFF AND DUP2 MSTORE PUSH1 0x20 ADD SWAP1 DUP2 MSTORE PUSH1 0x20 ADD PUSH1 0x0 KECCAK256 PUSH1 0x0 ADD PUSH1 0x0 SWAP1 SLOAD SWAP1 PUSH2 0x100 EXP SWAP1 DIV PUSH1 0xFF AND SWAP1 POP SWAP2 SWAP1 POP JUMP JUMPDEST PUSH1 0x9 PUSH1 0x20 MSTORE DUP1 PUSH1 0x0 MSTORE PUSH1 0x40 PUSH1 0x0 KECCAK256 PUSH1 0x0 SWAP2 POP SWAP1 POP DUP1 PUSH1 0x0 ADD PUSH1 0x0 SWAP1 SLOAD SWAP1 PUSH2 0x100 EXP SWAP1 DIV PUSH1 0xFF AND SWAP1 DUP1 PUSH1 0x1 ADD DUP1 SLOAD PUSH2 0x2284 SWAP1 PUSH2 0x4300 JUMP JUMPDEST DUP1 PUSH1 0x1F ADD PUSH1 0x20 DUP1 SWAP2 DIV MUL PUSH1 0x20 ADD PUSH1 0x40 MLOAD SWAP1 DUP2 ADD PUSH1 0x40 MSTORE DUP1 SWAP3 SWAP2 SWAP1 DUP2 DUP2 MSTORE PUSH1 0x20 ADD DUP3 DUP1 SLOAD PUSH2 0x22B0 SWAP1 PUSH2 0x4300 JUMP JUMPDEST DUP1 ISZERO PUSH2 0x22FD JUMPI DUP1 PUSH1 0x1F LT PUSH2 0x22D2 JUMPI PUSH2 0x100 DUP1 DUP4 SLOAD DIV MUL DUP4 MSTORE SWAP2 PUSH1 0x20 ADD SWAP2 PUSH2 0x22FD JUMP JUMPDEST DUP3 ADD SWAP2 SWAP1 PUSH1 0x0 MSTORE PUSH1 0x20 PUSH1 0x0 KECCAK256 SWAP1 JUMPDEST DUP2 SLOAD DUP2 MSTORE SWAP1 PUSH1 0x1 ADD SWAP1 PUSH1 0x20 ADD DUP1 DUP4 GT PUSH2 0x22E0 JUMPI DUP3 SWAP1 SUB PUSH1 0x1F AND DUP3 ADD SWAP2 JUMPDEST POP POP POP POP POP SWAP1 DUP1 PUSH1 0x2 ADD PUSH1 0x0 SWAP1 SLOAD SWAP1 PUSH2 0x100 EXP SWAP1 DIV PUSH1 0xFF AND SWAP1 POP DUP4 JUMP JUMPDEST PUSH2 0x2323 DUP4 PUSH2 0x319A JUMP JUMPDEST ISZERO PUSH2 0x2363 JUMPI PUSH1 0x40 MLOAD PUSH32 0x8C379A000000000000000000000000000000000000000000000000000000000 DUP2 MSTORE PUSH1 0x4 ADD PUSH2 0x235A SWAP1 PUSH2 0x3F48 JUMP JUMPDEST PUSH1 0x40 MLOAD DUP1 SWAP2 SUB SWAP1 REVERT JUMPDEST PUSH1 0x1 PUSH1 0xA PUSH1 0x0 DUP6 PUSH20 0xFFFFFFFFFFFFFFFFFFFFFFFFFFFFFFFFFFFFFFFF AND PUSH20 0xFFFFFFFFFFFFFFFFFFFFFFFFFFFFFFFFFFFFFFFF AND DUP2 MSTORE PUSH1 0x20 ADD SWAP1 DUP2 MSTORE PUSH1 0x20 ADD PUSH1 0x0 KECCAK256 PUSH1 0x0 ADD PUSH1 0x0 PUSH2 0x100 EXP DUP2 SLOAD DUP2 PUSH1 0xFF MUL NOT AND SWAP1 DUP4 ISZERO ISZERO MUL OR SWAP1 SSTORE POP DUP2 PUSH1 0xA PUSH1 0x0 DUP6 PUSH20 0xFFFFFFFFFFFFFFFFFFFFFFFFFFFFFFFFFFFFFFFF AND PUSH20 0xFFFFFFFFFFFFFFFFFFFFFFFFFFFFFFFFFFFFFFFF AND DUP2 MSTORE PUSH1 0x20 ADD SWAP1 DUP2 MSTORE PUSH1 0x20 ADD PUSH1 0x0 KECCAK256 PUSH1 0x1 ADD SWAP1 DUP1 MLOAD SWAP1 PUSH1 0x20 ADD SWAP1 PUSH2 0x2414 SWAP3 SWAP2 SWAP1 PUSH2 0x34A8 JUMP JUMPDEST POP DUP1 PUSH1 0xA PUSH1 0x0 DUP6 PUSH20 0xFFFFFFFFFFFFFFFFFFFFFFFFFFFFFFFFFFFFFFFF AND PUSH20 0xFFFFFFFFFFFFFFFFFFFFFFFFFFFFFFFFFFFFFFFF AND DUP2 MSTORE PUSH1 0x20 ADD SWAP1 DUP2 MSTORE PUSH1 0x20 ADD PUSH1 0x0 KECCAK256 PUSH1 0x2 ADD PUSH1 0x0 PUSH2 0x100 EXP DUP2 SLOAD DUP2 PUSH1 0xFF MUL NOT AND SWAP1 DUP4 PUSH1 0xFF AND MUL OR SWAP1 SSTORE POP POP POP POP JUMP JUMPDEST PUSH1 0xB PUSH1 0x20 MSTORE DUP1 PUSH1 0x0 MSTORE PUSH1 0x40 PUSH1 0x0 KECCAK256 PUSH1 0x0 SWAP2 POP SWAP1 POP DUP1 PUSH1 0x0 ADD PUSH1 0x0 SWAP1 SLOAD SWAP1 PUSH2 0x100 EXP SWAP1 DIV PUSH4 0xFFFFFFFF AND SWAP1 DUP1 PUSH1 0x1 ADD DUP1 SLOAD PUSH2 0x24AE SWAP1 PUSH2 0x4300 JUMP JUMPDEST DUP1 PUSH1 0x1F ADD PUSH1 0x20 DUP1 SWAP2 DIV MUL PUSH1 0x20 ADD PUSH1 0x40 MLOAD SWAP1 DUP2 ADD PUSH1 0x40 MSTORE DUP1 SWAP3 SWAP2 SWAP1 DUP2 DUP2 MSTORE PUSH1 0x20 ADD DUP3 DUP1 SLOAD PUSH2 0x24DA SWAP1 PUSH2 0x4300 JUMP JUMPDEST DUP1 ISZERO PUSH2 0x2527 JUMPI DUP1 PUSH1 0x1F LT PUSH2 0x24FC JUMPI PUSH2 0x100 DUP1 DUP4 SLOAD DIV MUL DUP4 MSTORE SWAP2 PUSH1 0x20 ADD SWAP2 PUSH2 0x2527 JUMP JUMPDEST DUP3 ADD SWAP2 SWAP1 PUSH1 0x0 MSTORE PUSH1 0x20 PUSH1 0x0 KECCAK256 SWAP1 JUMPDEST DUP2 SLOAD DUP2 MSTORE SWAP1 PUSH1 0x1 ADD SWAP1 PUSH1 0x20 ADD DUP1 DUP4 GT PUSH2 0x250A JUMPI DUP3 SWAP1 SUB PUSH1 0x1F AND DUP3 ADD SWAP2 JUMPDEST POP POP POP POP POP SWAP1 POP DUP3 JUMP JUMPDEST PUSH1 0xC SLOAD DUP2 JUMP JUMPDEST PUSH1 0x0 PUSH1 0x3 PUSH1 0x0 DUP4 PUSH20 0xFFFFFFFFFFFFFFFFFFFFFFFFFFFFFFFFFFFFFFFF AND PUSH20 0xFFFFFFFFFFFFFFFFFFFFFFFFFFFFFFFFFFFFFFFF AND DUP2 MSTORE PUSH1 0x20 ADD SWAP1 DUP2 MSTORE PUSH1 0x20 ADD PUSH1 0x0 KECCAK256 PUSH1 0x0 ADD PUSH1 0x0 SWAP1 SLOAD SWAP1 PUSH2 0x100 EXP SWAP1 DIV PUSH1 0xFF AND SWAP1 POP SWAP2 SWAP1 POP JUMP JUMPDEST PUSH1 0x5 PUSH1 0x20 MSTORE DUP1 PUSH1 0x0 MSTORE PUSH1 0x40 PUSH1 0x0 KECCAK256 PUSH1 0x0 SWAP2 POP SWAP1 POP DUP1 PUSH1 0x0 ADD PUSH1 0x0 SWAP1 SLOAD SWAP1 PUSH2 0x100 EXP SWAP1 DIV PUSH1 0xFF AND SWAP1 DUP1 PUSH1 0x0 ADD PUSH1 0x1 SWAP1 SLOAD SWAP1 PUSH2 0x100 EXP SWAP1 DIV PUSH20 0xFFFFFFFFFFFFFFFFFFFFFFFFFFFFFFFFFFFFFFFF AND SWAP1 DUP1 PUSH1 0x0 ADD PUSH1 0x15 SWAP1 SLOAD SWAP1 PUSH2 0x100 EXP SWAP1 DIV PUSH2 0xFFFF AND SWAP1 DUP1 PUSH1 0x0 ADD PUSH1 0x17 SWAP1 SLOAD SWAP1 PUSH2 0x100 EXP SWAP1 DIV PUSH1 0xFF AND SWAP1 DUP1 PUSH1 0x1 ADD DUP1 SLOAD PUSH2 0x2613 SWAP1 PUSH2 0x4300 JUMP JUMPDEST DUP1 PUSH1 0x1F ADD PUSH1 0x20 DUP1 SWAP2 DIV MUL PUSH1 0x20 ADD PUSH1 0x40 MLOAD SWAP1 DUP2 ADD PUSH1 0x40 MSTORE DUP1 SWAP3 SWAP2 SWAP1 DUP2 DUP2 MSTORE PUSH1 0x20 ADD DUP3 DUP1 SLOAD PUSH2 0x263F SWAP1 PUSH2 0x4300 JUMP JUMPDEST DUP1 ISZERO PUSH2 0x268C JUMPI DUP1 PUSH1 0x1F LT PUSH2 0x2661 JUMPI PUSH2 0x100 DUP1 DUP4 SLOAD DIV MUL DUP4 MSTORE SWAP2 PUSH1 0x20 ADD SWAP2 PUSH2 0x268C JUMP JUMPDEST DUP3 ADD SWAP2 SWAP1 PUSH1 0x0 MSTORE PUSH1 0x20 PUSH1 0x0 KECCAK256 SWAP1 JUMPDEST DUP2 SLOAD DUP2 MSTORE SWAP1 PUSH1 0x1 ADD SWAP1 PUSH1 0x20 ADD DUP1 DUP4 GT PUSH2 0x266F JUMPI DUP3 SWAP1 SUB PUSH1 0x1F AND DUP3 ADD SWAP2 JUMPDEST POP POP POP POP POP SWAP1 DUP1 PUSH1 0x2 ADD DUP1 SLOAD PUSH2 0x26A1 SWAP1 PUSH2 0x4300 JUMP JUMPDEST DUP1 PUSH1 0x1F ADD PUSH1 0x20 DUP1 SWAP2 DIV MUL PUSH1 0x20 ADD PUSH1 0x40 MLOAD SWAP1 DUP2 ADD PUSH1 0x40 MSTORE DUP1 SWAP3 SWAP2 SWAP1 DUP2 DUP2 MSTORE PUSH1 0x20 ADD DUP3 DUP1 SLOAD PUSH2 0x26CD SWAP1 PUSH2 0x4300 JUMP JUMPDEST DUP1 ISZERO PUSH2 0x271A JUMPI DUP1 PUSH1 0x1F LT PUSH2 0x26EF JUMPI PUSH2 0x100 DUP1 DUP4 SLOAD DIV MUL DUP4 MSTORE SWAP2 PUSH1 0x20 ADD SWAP2 PUSH2 0x271A JUMP JUMPDEST DUP3 ADD SWAP2 SWAP1 PUSH1 0x0 MSTORE PUSH1 0x20 PUSH1 0x0 KECCAK256 SWAP1 JUMPDEST DUP2 SLOAD DUP2 MSTORE SWAP1 PUSH1 0x1 ADD SWAP1 PUSH1 0x20 ADD DUP1 DUP4 GT PUSH2 0x26FD JUMPI DUP3 SWAP1 SUB PUSH1 0x1F AND DUP3 ADD SWAP2 JUMPDEST POP POP POP POP POP SWAP1 POP DUP7 JUMP JUMPDEST PUSH1 0xD PUSH1 0x0 SWAP1 SLOAD SWAP1 PUSH2 0x100 EXP SWAP1 DIV PUSH20 0xFFFFFFFFFFFFFFFFFFFFFFFFFFFFFFFFFFFFFFFF AND PUSH20 0xFFFFFFFFFFFFFFFFFFFFFFFFFFFFFFFFFFFFFFFF AND PUSH4 0xF0040EB9 CALLER PUSH1 0x40 MLOAD DUP3 PUSH4 0xFFFFFFFF AND PUSH1 0xE0 SHL DUP2 MSTORE PUSH1 0x4 ADD PUSH2 0x277F SWAP2 SWAP1 PUSH2 0x3D13 JUMP JUMPDEST PUSH1 0x20 PUSH1 0x40 MLOAD DUP1 DUP4 SUB DUP2 DUP7 DUP1 EXTCODESIZE ISZERO DUP1 ISZERO PUSH2 0x2797 JUMPI PUSH1 0x0 DUP1 REVERT JUMPDEST POP GAS STATICCALL ISZERO DUP1 ISZERO PUSH2 0x27AB JUMPI RETURNDATASIZE PUSH1 0x0 DUP1 RETURNDATACOPY RETURNDATASIZE PUSH1 0x0 REVERT JUMPDEST POP POP POP POP PUSH1 0x40 MLOAD RETURNDATASIZE PUSH1 0x1F NOT PUSH1 0x1F DUP3 ADD AND DUP3 ADD DUP1 PUSH1 0x40 MSTORE POP DUP2 ADD SWAP1 PUSH2 0x27CF SWAP2 SWAP1 PUSH2 0x39FA JUMP JUMPDEST DUP1 PUSH2 0x2881 JUMPI POP PUSH1 0xD PUSH1 0x0 SWAP1 SLOAD SWAP1 PUSH2 0x100 EXP SWAP1 DIV PUSH20 0xFFFFFFFFFFFFFFFFFFFFFFFFFFFFFFFFFFFFFFFF AND PUSH20 0xFFFFFFFFFFFFFFFFFFFFFFFFFFFFFFFFFFFFFFFF AND PUSH4 0x2D087D70 CALLER PUSH1 0x40 MLOAD DUP3 PUSH4 0xFFFFFFFF AND PUSH1 0xE0 SHL DUP2 MSTORE PUSH1 0x4 ADD PUSH2 0x2830 SWAP2 SWAP1 PUSH2 0x3D13 JUMP JUMPDEST PUSH1 0x20 PUSH1 0x40 MLOAD DUP1 DUP4 SUB DUP2 DUP7 DUP1 EXTCODESIZE ISZERO DUP1 ISZERO PUSH2 0x2848 JUMPI PUSH1 0x0 DUP1 REVERT JUMPDEST POP GAS STATICCALL ISZERO DUP1 ISZERO PUSH2 0x285C JUMPI RETURNDATASIZE PUSH1 0x0 DUP1 RETURNDATACOPY RETURNDATASIZE PUSH1 0x0 REVERT JUMPDEST POP POP POP POP PUSH1 0x40 MLOAD RETURNDATASIZE PUSH1 0x1F NOT PUSH1 0x1F DUP3 ADD AND DUP3 ADD DUP1 PUSH1 0x40 MSTORE POP DUP2 ADD SWAP1 PUSH2 0x2880 SWAP2 SWAP1 PUSH2 0x39FA JUMP JUMPDEST JUMPDEST DUP1 PUSH2 0x2933 JUMPI POP PUSH1 0xD PUSH1 0x0 SWAP1 SLOAD SWAP1 PUSH2 0x100 EXP SWAP1 DIV PUSH20 0xFFFFFFFFFFFFFFFFFFFFFFFFFFFFFFFFFFFFFFFF AND PUSH20 0xFFFFFFFFFFFFFFFFFFFFFFFFFFFFFFFFFFFFFFFF AND PUSH4 0x514E03C7 CALLER PUSH1 0x40 MLOAD DUP3 PUSH4 0xFFFFFFFF AND PUSH1 0xE0 SHL DUP2 MSTORE PUSH1 0x4 ADD PUSH2 0x28E2 SWAP2 SWAP1 PUSH2 0x3D13 JUMP JUMPDEST PUSH1 0x20 PUSH1 0x40 MLOAD DUP1 DUP4 SUB DUP2 DUP7 DUP1 EXTCODESIZE ISZERO DUP1 ISZERO PUSH2 0x28FA JUMPI PUSH1 0x0 DUP1 REVERT JUMPDEST POP GAS STATICCALL ISZERO DUP1 ISZERO PUSH2 0x290E JUMPI RETURNDATASIZE PUSH1 0x0 DUP1 RETURNDATACOPY RETURNDATASIZE PUSH1 0x0 REVERT JUMPDEST POP POP POP POP PUSH1 0x40 MLOAD RETURNDATASIZE PUSH1 0x1F NOT PUSH1 0x1F DUP3 ADD AND DUP3 ADD DUP1 PUSH1 0x40 MSTORE POP DUP2 ADD SWAP1 PUSH2 0x2932 SWAP2 SWAP1 PUSH2 0x39FA JUMP JUMPDEST JUMPDEST DUP1 PUSH2 0x29E5 JUMPI POP PUSH1 0xD PUSH1 0x0 SWAP1 SLOAD SWAP1 PUSH2 0x100 EXP SWAP1 DIV PUSH20 0xFFFFFFFFFFFFFFFFFFFFFFFFFFFFFFFFFFFFFFFF AND PUSH20 0xFFFFFFFFFFFFFFFFFFFFFFFFFFFFFFFFFFFFFFFF AND PUSH4 0x24EB6BC CALLER PUSH1 0x40 MLOAD DUP3 PUSH4 0xFFFFFFFF AND PUSH1 0xE0 SHL DUP2 MSTORE PUSH1 0x4 ADD PUSH2 0x2994 SWAP2 SWAP1 PUSH2 0x3D13 JUMP JUMPDEST PUSH1 0x20 PUSH1 0x40 MLOAD DUP1 DUP4 SUB DUP2 DUP7 DUP1 EXTCODESIZE ISZERO DUP1 ISZERO PUSH2 0x29AC JUMPI PUSH1 0x0 DUP1 REVERT JUMPDEST POP GAS STATICCALL ISZERO DUP1 ISZERO PUSH2 0x29C0 JUMPI RETURNDATASIZE PUSH1 0x0 DUP1 RETURNDATACOPY RETURNDATASIZE PUSH1 0x0 REVERT JUMPDEST POP POP POP POP PUSH1 0x40 MLOAD RETURNDATASIZE PUSH1 0x1F NOT PUSH1 0x1F DUP3 ADD AND DUP3 ADD DUP1 PUSH1 0x40 MSTORE POP DUP2 ADD SWAP1 PUSH2 0x29E4 SWAP2 SWAP1 PUSH2 0x39FA JUMP JUMPDEST JUMPDEST PUSH2 0x2A24 JUMPI PUSH1 0x40 MLOAD PUSH32 0x8C379A000000000000000000000000000000000000000000000000000000000 DUP2 MSTORE PUSH1 0x4 ADD PUSH2 0x2A1B SWAP1 PUSH2 0x3F68 JUMP JUMPDEST PUSH1 0x40 MLOAD DUP1 SWAP2 SUB SWAP1 REVERT JUMPDEST PUSH1 0xD PUSH1 0x0 SWAP1 SLOAD SWAP1 PUSH2 0x100 EXP SWAP1 DIV PUSH20 0xFFFFFFFFFFFFFFFFFFFFFFFFFFFFFFFFFFFFFFFF AND PUSH20 0xFFFFFFFFFFFFFFFFFFFFFFFFFFFFFFFFFFFFFFFF AND PUSH4 0xB98CCEFD DUP9 PUSH1 0x40 MLOAD DUP3 PUSH4 0xFFFFFFFF AND PUSH1 0xE0 SHL DUP2 MSTORE PUSH1 0x4 ADD PUSH2 0x2A7F SWAP2 SWAP1 PUSH2 0x3D13 JUMP JUMPDEST PUSH1 0x20 PUSH1 0x40 MLOAD DUP1 DUP4 SUB DUP2 DUP7 DUP1 EXTCODESIZE ISZERO DUP1 ISZERO PUSH2 0x2A97 JUMPI PUSH1 0x0 DUP1 REVERT JUMPDEST POP GAS STATICCALL ISZERO DUP1 ISZERO PUSH2 0x2AAB JUMPI RETURNDATASIZE PUSH1 0x0 DUP1 RETURNDATACOPY RETURNDATASIZE PUSH1 0x0 REVERT JUMPDEST POP POP POP POP PUSH1 0x40 MLOAD RETURNDATASIZE PUSH1 0x1F NOT PUSH1 0x1F DUP3 ADD AND DUP3 ADD DUP1 PUSH1 0x40 MSTORE POP DUP2 ADD SWAP1 PUSH2 0x2ACF SWAP2 SWAP1 PUSH2 0x39FA JUMP JUMPDEST PUSH2 0x2B0E JUMPI PUSH1 0x40 MLOAD PUSH32 0x8C379A000000000000000000000000000000000000000000000000000000000 DUP2 MSTORE PUSH1 0x4 ADD PUSH2 0x2B05 SWAP1 PUSH2 0x4008 JUMP JUMPDEST PUSH1 0x40 MLOAD DUP1 SWAP2 SUB SWAP1 REVERT JUMPDEST PUSH1 0x0 PUSH1 0xC PUSH1 0x0 DUP2 SLOAD DUP1 SWAP3 SWAP2 SWAP1 PUSH2 0x2B23 SWAP1 PUSH2 0x4363 JUMP JUMPDEST SWAP2 SWAP1 POP SSTORE SWAP1 POP DUP7 PUSH1 0xE PUSH1 0x0 DUP11 PUSH20 0xFFFFFFFFFFFFFFFFFFFFFFFFFFFFFFFFFFFFFFFF AND PUSH20 0xFFFFFFFFFFFFFFFFFFFFFFFFFFFFFFFFFFFFFFFF AND DUP2 MSTORE PUSH1 0x20 ADD SWAP1 DUP2 MSTORE PUSH1 0x20 ADD PUSH1 0x0 KECCAK256 PUSH1 0x0 DUP4 DUP2 MSTORE PUSH1 0x20 ADD SWAP1 DUP2 MSTORE PUSH1 0x20 ADD PUSH1 0x0 KECCAK256 PUSH1 0x1 ADD PUSH1 0x14 PUSH2 0x100 EXP DUP2 SLOAD DUP2 PUSH1 0xFF MUL NOT AND SWAP1 DUP4 PUSH1 0x5 DUP2 GT ISZERO PUSH2 0x2B9F JUMPI PUSH2 0x2B9E PUSH2 0x43DB JUMP JUMPDEST JUMPDEST MUL OR SWAP1 SSTORE POP DUP6 PUSH1 0xE PUSH1 0x0 DUP11 PUSH20 0xFFFFFFFFFFFFFFFFFFFFFFFFFFFFFFFFFFFFFFFF AND PUSH20 0xFFFFFFFFFFFFFFFFFFFFFFFFFFFFFFFFFFFFFFFF AND DUP2 MSTORE PUSH1 0x20 ADD SWAP1 DUP2 MSTORE PUSH1 0x20 ADD PUSH1 0x0 KECCAK256 PUSH1 0x0 DUP4 DUP2 MSTORE PUSH1 0x20 ADD SWAP1 DUP2 MSTORE PUSH1 0x20 ADD PUSH1 0x0 KECCAK256 PUSH1 0x2 ADD DUP2 SWAP1 SSTORE POP DUP5 PUSH1 0xE PUSH1 0x0 DUP11 PUSH20 0xFFFFFFFFFFFFFFFFFFFFFFFFFFFFFFFFFFFFFFFF AND PUSH20 0xFFFFFFFFFFFFFFFFFFFFFFFFFFFFFFFFFFFFFFFF AND DUP2 MSTORE PUSH1 0x20 ADD SWAP1 DUP2 MSTORE PUSH1 0x20 ADD PUSH1 0x0 KECCAK256 PUSH1 0x0 DUP4 DUP2 MSTORE PUSH1 0x20 ADD SWAP1 DUP2 MSTORE PUSH1 0x20 ADD PUSH1 0x0 KECCAK256 PUSH1 0x3 ADD DUP2 SWAP1 SSTORE POP DUP4 PUSH1 0xE PUSH1 0x0 DUP11 PUSH20 0xFFFFFFFFFFFFFFFFFFFFFFFFFFFFFFFFFFFFFFFF AND PUSH20 0xFFFFFFFFFFFFFFFFFFFFFFFFFFFFFFFFFFFFFFFF AND DUP2 MSTORE PUSH1 0x20 ADD SWAP1 DUP2 MSTORE PUSH1 0x20 ADD PUSH1 0x0 KECCAK256 PUSH1 0x0 DUP4 DUP2 MSTORE PUSH1 0x20 ADD SWAP1 DUP2 MSTORE PUSH1 0x20 ADD PUSH1 0x0 KECCAK256 PUSH1 0x4 ADD PUSH1 0x0 PUSH2 0x100 EXP DUP2 SLOAD DUP2 PUSH1 0xFF MUL NOT AND SWAP1 DUP4 PUSH1 0x3 DUP2 GT ISZERO PUSH2 0x2CCA JUMPI PUSH2 0x2CC9 PUSH2 0x43DB JUMP JUMPDEST JUMPDEST MUL OR SWAP1 SSTORE POP DUP3 PUSH1 0xE PUSH1 0x0 DUP11 PUSH20 0xFFFFFFFFFFFFFFFFFFFFFFFFFFFFFFFFFFFFFFFF AND PUSH20 0xFFFFFFFFFFFFFFFFFFFFFFFFFFFFFFFFFFFFFFFF AND DUP2 MSTORE PUSH1 0x20 ADD SWAP1 DUP2 MSTORE PUSH1 0x20 ADD PUSH1 0x0 KECCAK256 PUSH1 0x0 DUP4 DUP2 MSTORE PUSH1 0x20 ADD SWAP1 DUP2 MSTORE PUSH1 0x20 ADD PUSH1 0x0 KECCAK256 PUSH1 0x4 ADD PUSH1 0x1 PUSH2 0x100 EXP DUP2 SLOAD DUP2 PUSH4 0xFFFFFFFF MUL NOT AND SWAP1 DUP4 PUSH4 0xFFFFFFFF AND MUL OR SWAP1 SSTORE POP DUP2 PUSH1 0xE PUSH1 0x0 DUP11 PUSH20 0xFFFFFFFFFFFFFFFFFFFFFFFFFFFFFFFFFFFFFFFF AND PUSH20 0xFFFFFFFFFFFFFFFFFFFFFFFFFFFFFFFFFFFFFFFF AND DUP2 MSTORE PUSH1 0x20 ADD SWAP1 DUP2 MSTORE PUSH1 0x20 ADD PUSH1 0x0 KECCAK256 PUSH1 0x0 DUP4 DUP2 MSTORE PUSH1 0x20 ADD SWAP1 DUP2 MSTORE PUSH1 0x20 ADD PUSH1 0x0 KECCAK256 PUSH1 0x4 ADD PUSH1 0x5 PUSH2 0x100 EXP DUP2 SLOAD DUP2 PUSH1 0xFF MUL NOT AND SWAP1 DUP4 PUSH1 0x3 DUP2 GT ISZERO PUSH2 0x2DB7 JUMPI PUSH2 0x2DB6 PUSH2 0x43DB JUMP JUMPDEST JUMPDEST MUL OR SWAP1 SSTORE POP PUSH1 0x1 PUSH1 0xE PUSH1 0x0 DUP11 PUSH20 0xFFFFFFFFFFFFFFFFFFFFFFFFFFFFFFFFFFFFFFFF AND PUSH20 0xFFFFFFFFFFFFFFFFFFFFFFFFFFFFFFFFFFFFFFFF AND DUP2 MSTORE PUSH1 0x20 ADD SWAP1 DUP2 MSTORE PUSH1 0x20 ADD PUSH1 0x0 KECCAK256 PUSH1 0x0 DUP4 DUP2 MSTORE PUSH1 0x20 ADD SWAP1 DUP2 MSTORE PUSH1 0x20 ADD PUSH1 0x0 KECCAK256 PUSH1 0x5 ADD PUSH1 0x1 ADD PUSH1 0x14 PUSH2 0x100 EXP DUP2 SLOAD DUP2 PUSH1 0xFF MUL NOT AND SWAP1 DUP4 PUSH1 0x2 DUP2 GT ISZERO PUSH2 0x2E36 JUMPI PUSH2 0x2E35 PUSH2 0x43DB JUMP JUMPDEST JUMPDEST MUL OR SWAP1 SSTORE POP TIMESTAMP PUSH1 0xE PUSH1 0x0 DUP11 PUSH20 0xFFFFFFFFFFFFFFFFFFFFFFFFFFFFFFFFFFFFFFFF AND PUSH20 0xFFFFFFFFFFFFFFFFFFFFFFFFFFFFFFFFFFFFFFFF AND DUP2 MSTORE PUSH1 0x20 ADD SWAP1 DUP2 MSTORE PUSH1 0x20 ADD PUSH1 0x0 KECCAK256 PUSH1 0x0 DUP4 DUP2 MSTORE PUSH1 0x20 ADD SWAP1 DUP2 MSTORE PUSH1 0x20 ADD PUSH1 0x0 KECCAK256 PUSH1 0x5 ADD PUSH1 0x0 ADD DUP2 SWAP1 SSTORE POP CALLER PUSH1 0xE PUSH1 0x0 DUP11 PUSH20 0xFFFFFFFFFFFFFFFFFFFFFFFFFFFFFFFFFFFFFFFF AND PUSH20 0xFFFFFFFFFFFFFFFFFFFFFFFFFFFFFFFFFFFFFFFF AND DUP2 MSTORE PUSH1 0x20 ADD SWAP1 DUP2 MSTORE PUSH1 0x20 ADD PUSH1 0x0 KECCAK256 PUSH1 0x0 DUP4 DUP2 MSTORE PUSH1 0x20 ADD SWAP1 DUP2 MSTORE PUSH1 0x20 ADD PUSH1 0x0 KECCAK256 PUSH1 0x5 ADD PUSH1 0x1 ADD PUSH1 0x0 PUSH2 0x100 EXP DUP2 SLOAD DUP2 PUSH20 0xFFFFFFFFFFFFFFFFFFFFFFFFFFFFFFFFFFFFFFFF MUL NOT AND SWAP1 DUP4 PUSH20 0xFFFFFFFFFFFFFFFFFFFFFFFFFFFFFFFFFFFFFFFF AND MUL OR SWAP1 SSTORE POP PUSH32 0x1BC8089D220C6C0B90FB65E37237ECB0E793702849C9E0B59B1B3A02FF101206 DUP8 DUP8 DUP8 DUP8 DUP8 PUSH1 0x40 MLOAD PUSH2 0x2F62 SWAP6 SWAP5 SWAP4 SWAP3 SWAP2 SWAP1 PUSH2 0x3E95 JUMP JUMPDEST PUSH1 0x40 MLOAD DUP1 SWAP2 SUB SWAP1 LOG1 POP POP POP POP POP POP POP POP JUMP JUMPDEST PUSH1 0x3 PUSH1 0x20 MSTORE DUP1 PUSH1 0x0 MSTORE PUSH1 0x40 PUSH1 0x0 KECCAK256 PUSH1 0x0 SWAP2 POP SWAP1 POP DUP1 PUSH1 0x0 ADD PUSH1 0x0 SWAP1 SLOAD SWAP1 PUSH2 0x100 EXP SWAP1 DIV PUSH1 0xFF AND SWAP1 POP DUP2 JUMP JUMPDEST PUSH2 0x2FA8 DUP5 PUSH2 0x1B3C JUMP JUMPDEST ISZERO PUSH2 0x2FE8 JUMPI PUSH1 0x40 MLOAD PUSH32 0x8C379A000000000000000000000000000000000000000000000000000000000 DUP2 MSTORE PUSH1 0x4 ADD PUSH2 0x2FDF SWAP1 PUSH2 0x3F08 JUMP JUMPDEST PUSH1 0x40 MLOAD DUP1 SWAP2 SUB SWAP1 REVERT JUMPDEST PUSH1 0x1 PUSH1 0x6 PUSH1 0x0 DUP7 PUSH20 0xFFFFFFFFFFFFFFFFFFFFFFFFFFFFFFFFFFFFFFFF AND PUSH20 0xFFFFFFFFFFFFFFFFFFFFFFFFFFFFFFFFFFFFFFFF AND DUP2 MSTORE PUSH1 0x20 ADD SWAP1 DUP2 MSTORE PUSH1 0x20 ADD PUSH1 0x0 KECCAK256 PUSH1 0x0 ADD PUSH1 0x0 PUSH2 0x100 EXP DUP2 SLOAD DUP2 PUSH1 0xFF MUL NOT AND SWAP1 DUP4 ISZERO ISZERO MUL OR SWAP1 SSTORE POP DUP3 PUSH1 0x6 PUSH1 0x0 DUP7 PUSH20 0xFFFFFFFFFFFFFFFFFFFFFFFFFFFFFFFFFFFFFFFF AND PUSH20 0xFFFFFFFFFFFFFFFFFFFFFFFFFFFFFFFFFFFFFFFF AND DUP2 MSTORE PUSH1 0x20 ADD SWAP1 DUP2 MSTORE PUSH1 0x20 ADD PUSH1 0x0 KECCAK256 PUSH1 0x2 ADD SWAP1 DUP1 MLOAD SWAP1 PUSH1 0x20 ADD SWAP1 PUSH2 0x3099 SWAP3 SWAP2 SWAP1 PUSH2 0x34A8 JUMP JUMPDEST POP DUP1 PUSH1 0x6 PUSH1 0x0 DUP7 PUSH20 0xFFFFFFFFFFFFFFFFFFFFFFFFFFFFFFFFFFFFFFFF AND PUSH20 0xFFFFFFFFFFFFFFFFFFFFFFFFFFFFFFFFFFFFFFFF AND DUP2 MSTORE PUSH1 0x20 ADD SWAP1 DUP2 MSTORE PUSH1 0x20 ADD PUSH1 0x0 KECCAK256 PUSH1 0x0 ADD PUSH1 0x1 PUSH2 0x100 EXP DUP2 SLOAD DUP2 PUSH1 0xFF MUL NOT AND SWAP1 DUP4 PUSH1 0xFF AND MUL OR SWAP1 SSTORE POP DUP2 PUSH1 0x6 PUSH1 0x0 DUP7 PUSH20 0xFFFFFFFFFFFFFFFFFFFFFFFFFFFFFFFFFFFFFFFF AND PUSH20 0xFFFFFFFFFFFFFFFFFFFFFFFFFFFFFFFFFFFFFFFF AND DUP2 MSTORE PUSH1 0x20 ADD SWAP1 DUP2 MSTORE PUSH1 0x20 ADD PUSH1 0x0 KECCAK256 PUSH1 0x1 ADD DUP2 SWAP1 SSTORE POP POP POP POP POP JUMP JUMPDEST PUSH1 0x0 DUP2 PUSH20 0xFFFFFFFFFFFFFFFFFFFFFFFFFFFFFFFFFFFFFFFF AND PUSH1 0x0 DUP1 SLOAD SWAP1 PUSH2 0x100 EXP SWAP1 DIV PUSH20 0xFFFFFFFFFFFFFFFFFFFFFFFFFFFFFFFFFFFFFFFF AND PUSH20 0xFFFFFFFFFFFFFFFFFFFFFFFFFFFFFFFFFFFFFFFF AND EQ SWAP1 POP SWAP2 SWAP1 POP JUMP JUMPDEST PUSH1 0x0 PUSH1 0xA PUSH1 0x0 DUP4 PUSH20 0xFFFFFFFFFFFFFFFFFFFFFFFFFFFFFFFFFFFFFFFF AND PUSH20 0xFFFFFFFFFFFFFFFFFFFFFFFFFFFFFFFFFFFFFFFF AND DUP2 MSTORE PUSH1 0x20 ADD SWAP1 DUP2 MSTORE PUSH1 0x20 ADD PUSH1 0x0 KECCAK256 PUSH1 0x0 ADD PUSH1 0x0 SWAP1 SLOAD SWAP1 PUSH2 0x100 EXP SWAP1 DIV PUSH1 0xFF AND SWAP1 POP SWAP2 SWAP1 POP JUMP JUMPDEST PUSH1 0x0 DUP2 PUSH20 0xFFFFFFFFFFFFFFFFFFFFFFFFFFFFFFFFFFFFFFFF AND PUSH1 0x2 PUSH1 0x0 SWAP1 SLOAD SWAP1 PUSH2 0x100 EXP SWAP1 DIV PUSH20 0xFFFFFFFFFFFFFFFFFFFFFFFFFFFFFFFFFFFFFFFF AND PUSH20 0xFFFFFFFFFFFFFFFFFFFFFFFFFFFFFFFFFFFFFFFF AND EQ SWAP1 POP SWAP2 SWAP1 POP JUMP JUMPDEST PUSH1 0x0 PUSH1 0x4 PUSH1 0x0 DUP4 PUSH20 0xFFFFFFFFFFFFFFFFFFFFFFFFFFFFFFFFFFFFFFFF AND PUSH20 0xFFFFFFFFFFFFFFFFFFFFFFFFFFFFFFFFFFFFFFFF AND DUP2 MSTORE PUSH1 0x20 ADD SWAP1 DUP2 MSTORE PUSH1 0x20 ADD PUSH1 0x0 KECCAK256 PUSH1 0x0 ADD PUSH1 0x0 SWAP1 SLOAD SWAP1 PUSH2 0x100 EXP SWAP1 DIV PUSH1 0xFF AND SWAP1 POP SWAP2 SWAP1 POP JUMP JUMPDEST PUSH2 0x32AF DUP2 PUSH2 0x2537 JUMP JUMPDEST ISZERO PUSH2 0x32EF JUMPI PUSH1 0x40 MLOAD PUSH32 0x8C379A000000000000000000000000000000000000000000000000000000000 DUP2 MSTORE PUSH1 0x4 ADD PUSH2 0x32E6 SWAP1 PUSH2 0x3FC8 JUMP JUMPDEST PUSH1 0x40 MLOAD DUP1 SWAP2 SUB SWAP1 REVERT JUMPDEST PUSH1 0x1 PUSH1 0x3 PUSH1 0x0 DUP4 PUSH20 0xFFFFFFFFFFFFFFFFFFFFFFFFFFFFFFFFFFFFFFFF AND PUSH20 0xFFFFFFFFFFFFFFFFFFFFFFFFFFFFFFFFFFFFFFFF AND DUP2 MSTORE PUSH1 0x20 ADD SWAP1 DUP2 MSTORE PUSH1 0x20 ADD PUSH1 0x0 KECCAK256 PUSH1 0x0 ADD PUSH1 0x0 PUSH2 0x100 EXP DUP2 SLOAD DUP2 PUSH1 0xFF MUL NOT AND SWAP1 DUP4 ISZERO ISZERO MUL OR SWAP1 SSTORE POP POP JUMP JUMPDEST PUSH2 0x3356 DUP4 PUSH2 0x1F55 JUMP JUMPDEST ISZERO PUSH2 0x3396 JUMPI PUSH1 0x40 MLOAD PUSH32 0x8C379A000000000000000000000000000000000000000000000000000000000 DUP2 MSTORE PUSH1 0x4 ADD PUSH2 0x338D SWAP1 PUSH2 0x4028 JUMP JUMPDEST PUSH1 0x40 MLOAD DUP1 SWAP2 SUB SWAP1 REVERT JUMPDEST PUSH1 0x1 PUSH1 0x8 PUSH1 0x0 DUP6 PUSH20 0xFFFFFFFFFFFFFFFFFFFFFFFFFFFFFFFFFFFFFFFF AND PUSH20 0xFFFFFFFFFFFFFFFFFFFFFFFFFFFFFFFFFFFFFFFF AND DUP2 MSTORE PUSH1 0x20 ADD SWAP1 DUP2 MSTORE PUSH1 0x20 ADD PUSH1 0x0 KECCAK256 PUSH1 0x0 ADD PUSH1 0x0 PUSH2 0x100 EXP DUP2 SLOAD DUP2 PUSH1 0xFF MUL NOT AND SWAP1 DUP4 ISZERO ISZERO MUL OR SWAP1 SSTORE POP DUP2 PUSH1 0x8 PUSH1 0x0 DUP6 PUSH20 0xFFFFFFFFFFFFFFFFFFFFFFFFFFFFFFFFFFFFFFFF AND PUSH20 0xFFFFFFFFFFFFFFFFFFFFFFFFFFFFFFFFFFFFFFFF AND DUP2 MSTORE PUSH1 0x20 ADD SWAP1 DUP2 MSTORE PUSH1 0x20 ADD PUSH1 0x0 KECCAK256 PUSH1 0x1 ADD SWAP1 DUP1 MLOAD SWAP1 PUSH1 0x20 ADD SWAP1 PUSH2 0x3447 SWAP3 SWAP2 SWAP1 PUSH2 0x34A8 JUMP JUMPDEST POP DUP1 PUSH1 0x8 PUSH1 0x0 DUP6 PUSH20 0xFFFFFFFFFFFFFFFFFFFFFFFFFFFFFFFFFFFFFFFF AND PUSH20 0xFFFFFFFFFFFFFFFFFFFFFFFFFFFFFFFFFFFFFFFF AND DUP2 MSTORE PUSH1 0x20 ADD SWAP1 DUP2 MSTORE PUSH1 0x20 ADD PUSH1 0x0 KECCAK256 PUSH1 0x2 ADD PUSH1 0x0 PUSH2 0x100 EXP DUP2 SLOAD DUP2 PUSH1 0xFF MUL NOT AND SWAP1 DUP4 PUSH1 0xFF AND MUL OR SWAP1 SSTORE POP POP POP POP JUMP JUMPDEST DUP3 DUP1 SLOAD PUSH2 0x34B4 SWAP1 PUSH2 0x4300 JUMP JUMPDEST SWAP1 PUSH1 0x0 MSTORE PUSH1 0x20 PUSH1 0x0 KECCAK256 SWAP1 PUSH1 0x1F ADD PUSH1 0x20 SWAP1 DIV DUP2 ADD SWAP3 DUP3 PUSH2 0x34D6 JUMPI PUSH1 0x0 DUP6 SSTORE PUSH2 0x351D JUMP JUMPDEST DUP3 PUSH1 0x1F LT PUSH2 0x34EF JUMPI DUP1 MLOAD PUSH1 0xFF NOT AND DUP4 DUP1 ADD OR DUP6 SSTORE PUSH2 0x351D JUMP JUMPDEST DUP3 DUP1 ADD PUSH1 0x1 ADD DUP6 SSTORE DUP3 ISZERO PUSH2 0x351D JUMPI SWAP2 DUP3 ADD JUMPDEST DUP3 DUP2 GT ISZERO PUSH2 0x351C JUMPI DUP3 MLOAD DUP3 SSTORE SWAP2 PUSH1 0x20 ADD SWAP2 SWAP1 PUSH1 0x1 ADD SWAP1 PUSH2 0x3501 JUMP JUMPDEST JUMPDEST POP SWAP1 POP PUSH2 0x352A SWAP2 SWAP1 PUSH2 0x352E JUMP JUMPDEST POP SWAP1 JUMP JUMPDEST JUMPDEST DUP1 DUP3 GT ISZERO PUSH2 0x3547 JUMPI PUSH1 0x0 DUP2 PUSH1 0x0 SWAP1 SSTORE POP PUSH1 0x1 ADD PUSH2 0x352F JUMP JUMPDEST POP SWAP1 JUMP JUMPDEST PUSH1 0x0 PUSH2 0x355E PUSH2 0x3559 DUP5 PUSH2 0x4145 JUMP JUMPDEST PUSH2 0x4120 JUMP JUMPDEST SWAP1 POP DUP3 DUP2 MSTORE PUSH1 0x20 DUP2 ADD DUP5 DUP5 DUP5 ADD GT ISZERO PUSH2 0x357A JUMPI PUSH2 0x3579 PUSH2 0x446D JUMP JUMPDEST JUMPDEST PUSH2 0x3585 DUP5 DUP3 DUP6 PUSH2 0x42BE JUMP JUMPDEST POP SWAP4 SWAP3 POP POP POP JUMP JUMPDEST PUSH1 0x0 DUP2 CALLDATALOAD SWAP1 POP PUSH2 0x359C DUP2 PUSH2 0x4700 JUMP JUMPDEST SWAP3 SWAP2 POP POP JUMP JUMPDEST PUSH1 0x0 DUP2 MLOAD SWAP1 POP PUSH2 0x35B1 DUP2 PUSH2 0x4717 JUMP JUMPDEST SWAP3 SWAP2 POP POP JUMP JUMPDEST PUSH1 0x0 DUP2 CALLDATALOAD SWAP1 POP PUSH2 0x35C6 DUP2 PUSH2 0x472E JUMP JUMPDEST SWAP3 SWAP2 POP POP JUMP JUMPDEST PUSH1 0x0 DUP2 CALLDATALOAD SWAP1 POP PUSH2 0x35DB DUP2 PUSH2 0x473E JUMP JUMPDEST SWAP3 SWAP2 POP POP JUMP JUMPDEST PUSH1 0x0 DUP2 CALLDATALOAD SWAP1 POP PUSH2 0x35F0 DUP2 PUSH2 0x474E JUMP JUMPDEST SWAP3 SWAP2 POP POP JUMP JUMPDEST PUSH1 0x0 DUP3 PUSH1 0x1F DUP4 ADD SLT PUSH2 0x360B JUMPI PUSH2 0x360A PUSH2 0x4468 JUMP JUMPDEST JUMPDEST DUP2 CALLDATALOAD PUSH2 0x361B DUP5 DUP3 PUSH1 0x20 DUP7 ADD PUSH2 0x354B JUMP JUMPDEST SWAP2 POP POP SWAP3 SWAP2 POP POP JUMP JUMPDEST PUSH1 0x0 DUP2 CALLDATALOAD SWAP1 POP PUSH2 0x3633 DUP2 PUSH2 0x475E JUMP JUMPDEST SWAP3 SWAP2 POP POP JUMP JUMPDEST PUSH1 0x0 DUP2 CALLDATALOAD SWAP1 POP PUSH2 0x3648 DUP2 PUSH2 0x4775 JUMP JUMPDEST SWAP3 SWAP2 POP POP JUMP JUMPDEST PUSH1 0x0 DUP2 CALLDATALOAD SWAP1 POP PUSH2 0x365D DUP2 PUSH2 0x478C JUMP JUMPDEST SWAP3 SWAP2 POP POP JUMP JUMPDEST PUSH1 0x0 PUSH1 0x20 DUP3 DUP5 SUB SLT ISZERO PUSH2 0x3679 JUMPI PUSH2 0x3678 PUSH2 0x4477 JUMP JUMPDEST JUMPDEST PUSH1 0x0 PUSH2 0x3687 DUP5 DUP3 DUP6 ADD PUSH2 0x358D JUMP JUMPDEST SWAP2 POP POP SWAP3 SWAP2 POP POP JUMP JUMPDEST PUSH1 0x0 DUP1 PUSH1 0x0 PUSH1 0x60 DUP5 DUP7 SUB SLT ISZERO PUSH2 0x36A9 JUMPI PUSH2 0x36A8 PUSH2 0x4477 JUMP JUMPDEST JUMPDEST PUSH1 0x0 PUSH2 0x36B7 DUP7 DUP3 DUP8 ADD PUSH2 0x358D JUMP JUMPDEST SWAP4 POP POP PUSH1 0x20 PUSH2 0x36C8 DUP7 DUP3 DUP8 ADD PUSH2 0x358D JUMP JUMPDEST SWAP3 POP POP PUSH1 0x40 PUSH2 0x36D9 DUP7 DUP3 DUP8 ADD PUSH2 0x358D JUMP JUMPDEST SWAP2 POP POP SWAP3 POP SWAP3 POP SWAP3 JUMP JUMPDEST PUSH1 0x0 DUP1 PUSH1 0x0 DUP1 PUSH1 0x0 DUP1 PUSH1 0x0 PUSH1 0xE0 DUP9 DUP11 SUB SLT ISZERO PUSH2 0x3702 JUMPI PUSH2 0x3701 PUSH2 0x4477 JUMP JUMPDEST JUMPDEST PUSH1 0x0 PUSH2 0x3710 DUP11 DUP3 DUP12 ADD PUSH2 0x358D JUMP JUMPDEST SWAP8 POP POP PUSH1 0x20 PUSH2 0x3721 DUP11 DUP3 DUP12 ADD PUSH2 0x35CC JUMP JUMPDEST SWAP7 POP POP PUSH1 0x40 PUSH2 0x3732 DUP11 DUP3 DUP12 ADD PUSH2 0x3624 JUMP JUMPDEST SWAP6 POP POP PUSH1 0x60 PUSH2 0x3743 DUP11 DUP3 DUP12 ADD PUSH2 0x3624 JUMP JUMPDEST SWAP5 POP POP PUSH1 0x80 PUSH2 0x3754 DUP11 DUP3 DUP12 ADD PUSH2 0x35B7 JUMP JUMPDEST SWAP4 POP POP PUSH1 0xA0 PUSH2 0x3765 DUP11 DUP3 DUP12 ADD PUSH2 0x3639 JUMP JUMPDEST SWAP3 POP POP PUSH1 0xC0 PUSH2 0x3776 DUP11 DUP3 DUP12 ADD PUSH2 0x35E1 JUMP JUMPDEST SWAP2 POP POP SWAP3 SWAP6 SWAP9 SWAP2 SWAP5 SWAP8 POP SWAP3 SWAP6 POP JUMP JUMPDEST PUSH1 0x0 DUP1 PUSH1 0x0 DUP1 PUSH1 0x80 DUP6 DUP8 SUB SLT ISZERO PUSH2 0x379F JUMPI PUSH2 0x379E PUSH2 0x4477 JUMP JUMPDEST JUMPDEST PUSH1 0x0 PUSH2 0x37AD DUP8 DUP3 DUP9 ADD PUSH2 0x358D JUMP JUMPDEST SWAP5 POP POP PUSH1 0x20 DUP6 ADD CALLDATALOAD PUSH8 0xFFFFFFFFFFFFFFFF DUP2 GT ISZERO PUSH2 0x37CE JUMPI PUSH2 0x37CD PUSH2 0x4472 JUMP JUMPDEST JUMPDEST PUSH2 0x37DA DUP8 DUP3 DUP9 ADD PUSH2 0x35F6 JUMP JUMPDEST SWAP4 POP POP PUSH1 0x40 PUSH2 0x37EB DUP8 DUP3 DUP9 ADD PUSH2 0x3624 JUMP JUMPDEST SWAP3 POP POP PUSH1 0x60 PUSH2 0x37FC DUP8 DUP3 DUP9 ADD PUSH2 0x364E JUMP JUMPDEST SWAP2 POP POP SWAP3 SWAP6 SWAP2 SWAP5 POP SWAP3 POP JUMP JUMPDEST PUSH1 0x0 DUP1 PUSH1 0x0 PUSH1 0x60 DUP5 DUP7 SUB SLT ISZERO PUSH2 0x3821 JUMPI PUSH2 0x3820 PUSH2 0x4477 JUMP JUMPDEST JUMPDEST PUSH1 0x0 PUSH2 0x382F DUP7 DUP3 DUP8 ADD PUSH2 0x358D JUMP JUMPDEST SWAP4 POP POP PUSH1 0x20 DUP5 ADD CALLDATALOAD PUSH8 0xFFFFFFFFFFFFFFFF DUP2 GT ISZERO PUSH2 0x3850 JUMPI PUSH2 0x384F PUSH2 0x4472 JUMP JUMPDEST JUMPDEST PUSH2 0x385C DUP7 DUP3 DUP8 ADD PUSH2 0x35F6 JUMP JUMPDEST SWAP3 POP POP PUSH1 0x40 PUSH2 0x386D DUP7 DUP3 DUP8 ADD PUSH2 0x364E JUMP JUMPDEST SWAP2 POP POP SWAP3 POP SWAP3 POP SWAP3 JUMP JUMPDEST PUSH1 0x0 DUP1 PUSH1 0x40 DUP4 DUP6 SUB SLT ISZERO PUSH2 0x388E JUMPI PUSH2 0x388D PUSH2 0x4477 JUMP JUMPDEST JUMPDEST PUSH1 0x0 PUSH2 0x389C DUP6 DUP3 DUP7 ADD PUSH2 0x358D JUMP JUMPDEST SWAP3 POP POP PUSH1 0x20 PUSH2 0x38AD DUP6 DUP3 DUP7 ADD PUSH2 0x3624 JUMP JUMPDEST SWAP2 POP POP SWAP3 POP SWAP3 SWAP1 POP JUMP JUMPDEST PUSH1 0x0 DUP1 PUSH1 0x0 DUP1 PUSH1 0x0 DUP1 PUSH1 0x0 DUP1 PUSH2 0x100 DUP10 DUP12 SUB SLT ISZERO PUSH2 0x38D8 JUMPI PUSH2 0x38D7 PUSH2 0x4477 JUMP JUMPDEST JUMPDEST PUSH1 0x0 PUSH2 0x38E6 DUP12 DUP3 DUP13 ADD PUSH2 0x358D JUMP JUMPDEST SWAP9 POP POP PUSH1 0x20 PUSH2 0x38F7 DUP12 DUP3 DUP13 ADD PUSH2 0x3624 JUMP JUMPDEST SWAP8 POP POP PUSH1 0x40 PUSH2 0x3908 DUP12 DUP3 DUP13 ADD PUSH2 0x35CC JUMP JUMPDEST SWAP7 POP POP PUSH1 0x60 PUSH2 0x3919 DUP12 DUP3 DUP13 ADD PUSH2 0x3624 JUMP JUMPDEST SWAP6 POP POP PUSH1 0x80 PUSH2 0x392A DUP12 DUP3 DUP13 ADD PUSH2 0x3624 JUMP JUMPDEST SWAP5 POP POP PUSH1 0xA0 PUSH2 0x393B DUP12 DUP3 DUP13 ADD PUSH2 0x35B7 JUMP JUMPDEST SWAP4 POP POP PUSH1 0xC0 PUSH2 0x394C DUP12 DUP3 DUP13 ADD PUSH2 0x3639 JUMP JUMPDEST SWAP3 POP POP PUSH1 0xE0 PUSH2 0x395D DUP12 DUP3 DUP13 ADD PUSH2 0x35E1 JUMP JUMPDEST SWAP2 POP POP SWAP3 SWAP6 SWAP9 POP SWAP3 SWAP6 SWAP9 SWAP1 SWAP4 SWAP7 POP JUMP JUMPDEST PUSH1 0x0 DUP1 PUSH1 0x0 DUP1 PUSH1 0x0 DUP1 PUSH1 0xC0 DUP8 DUP10 SUB SLT ISZERO PUSH2 0x398A JUMPI PUSH2 0x3989 PUSH2 0x4477 JUMP JUMPDEST JUMPDEST PUSH1 0x0 PUSH2 0x3998 DUP10 DUP3 DUP11 ADD PUSH2 0x358D JUMP JUMPDEST SWAP7 POP POP PUSH1 0x20 PUSH2 0x39A9 DUP10 DUP3 DUP11 ADD PUSH2 0x3624 JUMP JUMPDEST SWAP6 POP POP PUSH1 0x40 PUSH2 0x39BA DUP10 DUP3 DUP11 ADD PUSH2 0x3624 JUMP JUMPDEST SWAP5 POP POP PUSH1 0x60 PUSH2 0x39CB DUP10 DUP3 DUP11 ADD PUSH2 0x35B7 JUMP JUMPDEST SWAP4 POP POP PUSH1 0x80 PUSH2 0x39DC DUP10 DUP3 DUP11 ADD PUSH2 0x3639 JUMP JUMPDEST SWAP3 POP POP PUSH1 0xA0 PUSH2 0x39ED DUP10 DUP3 DUP11 ADD PUSH2 0x35E1 JUMP JUMPDEST SWAP2 POP POP SWAP3 SWAP6 POP SWAP3 SWAP6 POP SWAP3 SWAP6 JUMP JUMPDEST PUSH1 0x0 PUSH1 0x20 DUP3 DUP5 SUB SLT ISZERO PUSH2 0x3A10 JUMPI PUSH2 0x3A0F PUSH2 0x4477 JUMP JUMPDEST JUMPDEST PUSH1 0x0 PUSH2 0x3A1E DUP5 DUP3 DUP6 ADD PUSH2 0x35A2 JUMP JUMPDEST SWAP2 POP POP SWAP3 SWAP2 POP POP JUMP JUMPDEST PUSH1 0x0 PUSH1 0x20 DUP3 DUP5 SUB SLT ISZERO PUSH2 0x3A3D JUMPI PUSH2 0x3A3C PUSH2 0x4477 JUMP JUMPDEST JUMPDEST PUSH1 0x0 PUSH2 0x3A4B DUP5 DUP3 DUP6 ADD PUSH2 0x3639 JUMP JUMPDEST SWAP2 POP POP SWAP3 SWAP2 POP POP JUMP JUMPDEST PUSH2 0x3A5D DUP2 PUSH2 0x4192 JUMP JUMPDEST DUP3 MSTORE POP POP JUMP JUMPDEST PUSH2 0x3A6C DUP2 PUSH2 0x4192 JUMP JUMPDEST DUP3 MSTORE POP POP JUMP JUMPDEST PUSH2 0x3A7B DUP2 PUSH2 0x41A4 JUMP JUMPDEST DUP3 MSTORE POP POP JUMP JUMPDEST PUSH2 0x3A8A DUP2 PUSH2 0x4264 JUMP JUMPDEST DUP3 MSTORE POP POP JUMP JUMPDEST PUSH2 0x3A99 DUP2 PUSH2 0x4276 JUMP JUMPDEST DUP3 MSTORE POP POP JUMP JUMPDEST PUSH2 0x3AA8 DUP2 PUSH2 0x4288 JUMP JUMPDEST DUP3 MSTORE POP POP JUMP JUMPDEST PUSH2 0x3AB7 DUP2 PUSH2 0x429A JUMP JUMPDEST DUP3 MSTORE POP POP JUMP JUMPDEST PUSH2 0x3AC6 DUP2 PUSH2 0x42AC JUMP JUMPDEST DUP3 MSTORE POP POP JUMP JUMPDEST PUSH1 0x0 PUSH2 0x3AD7 DUP3 PUSH2 0x4176 JUMP JUMPDEST PUSH2 0x3AE1 DUP2 DUP6 PUSH2 0x4181 JUMP JUMPDEST SWAP4 POP PUSH2 0x3AF1 DUP2 DUP6 PUSH1 0x20 DUP7 ADD PUSH2 0x42CD JUMP JUMPDEST PUSH2 0x3AFA DUP2 PUSH2 0x447C JUMP JUMPDEST DUP5 ADD SWAP2 POP POP SWAP3 SWAP2 POP POP JUMP JUMPDEST PUSH1 0x0 PUSH2 0x3B12 PUSH1 0x19 DUP4 PUSH2 0x4181 JUMP JUMPDEST SWAP2 POP PUSH2 0x3B1D DUP3 PUSH2 0x448D JUMP JUMPDEST PUSH1 0x20 DUP3 ADD SWAP1 POP SWAP2 SWAP1 POP JUMP JUMPDEST PUSH1 0x0 PUSH2 0x3B35 PUSH1 0x12 DUP4 PUSH2 0x4181 JUMP JUMPDEST SWAP2 POP PUSH2 0x3B40 DUP3 PUSH2 0x44B6 JUMP JUMPDEST PUSH1 0x20 DUP3 ADD SWAP1 POP SWAP2 SWAP1 POP JUMP JUMPDEST PUSH1 0x0 PUSH2 0x3B58 PUSH1 0x20 DUP4 PUSH2 0x4181 JUMP JUMPDEST SWAP2 POP PUSH2 0x3B63 DUP3 PUSH2 0x44DF JUMP JUMPDEST PUSH1 0x20 DUP3 ADD SWAP1 POP SWAP2 SWAP1 POP JUMP JUMPDEST PUSH1 0x0 PUSH2 0x3B7B PUSH1 0x1E DUP4 PUSH2 0x4181 JUMP JUMPDEST SWAP2 POP PUSH2 0x3B86 DUP3 PUSH2 0x4508 JUMP JUMPDEST PUSH1 0x20 DUP3 ADD SWAP1 POP SWAP2 SWAP1 POP JUMP JUMPDEST PUSH1 0x0 PUSH2 0x3B9E PUSH1 0x2A DUP4 PUSH2 0x4181 JUMP JUMPDEST SWAP2 POP PUSH2 0x3BA9 DUP3 PUSH2 0x4531 JUMP JUMPDEST PUSH1 0x40 DUP3 ADD SWAP1 POP SWAP2 SWAP1 POP JUMP JUMPDEST PUSH1 0x0 PUSH2 0x3BC1 PUSH1 0x22 DUP4 PUSH2 0x4181 JUMP JUMPDEST SWAP2 POP PUSH2 0x3BCC DUP3 PUSH2 0x4580 JUMP JUMPDEST PUSH1 0x40 DUP3 ADD SWAP1 POP SWAP2 SWAP1 POP JUMP JUMPDEST PUSH1 0x0 PUSH2 0x3BE4 PUSH1 0x17 DUP4 PUSH2 0x4181 JUMP JUMPDEST SWAP2 POP PUSH2 0x3BEF DUP3 PUSH2 0x45CF JUMP JUMPDEST PUSH1 0x20 DUP3 ADD SWAP1 POP SWAP2 SWAP1 POP JUMP JUMPDEST PUSH1 0x0 PUSH2 0x3C07 PUSH1 0x11 DUP4 PUSH2 0x4181 JUMP JUMPDEST SWAP2 POP PUSH2 0x3C12 DUP3 PUSH2 0x45F8 JUMP JUMPDEST PUSH1 0x20 DUP3 ADD SWAP1 POP SWAP2 SWAP1 POP JUMP JUMPDEST PUSH1 0x0 PUSH2 0x3C2A PUSH1 0x12 DUP4 PUSH2 0x4181 JUMP JUMPDEST SWAP2 POP PUSH2 0x3C35 DUP3 PUSH2 0x4621 JUMP JUMPDEST PUSH1 0x20 DUP3 ADD SWAP1 POP SWAP2 SWAP1 POP JUMP JUMPDEST PUSH1 0x0 PUSH2 0x3C4D PUSH1 0xF DUP4 PUSH2 0x4181 JUMP JUMPDEST SWAP2 POP PUSH2 0x3C58 DUP3 PUSH2 0x464A JUMP JUMPDEST PUSH1 0x20 DUP3 ADD SWAP1 POP SWAP2 SWAP1 POP JUMP JUMPDEST PUSH1 0x0 PUSH2 0x3C70 PUSH1 0x17 DUP4 PUSH2 0x4181 JUMP JUMPDEST SWAP2 POP PUSH2 0x3C7B DUP3 PUSH2 0x4673 JUMP JUMPDEST PUSH1 0x20 DUP3 ADD SWAP1 POP SWAP2 SWAP1 POP JUMP JUMPDEST PUSH1 0x60 DUP3 ADD PUSH1 0x0 DUP3 ADD MLOAD PUSH2 0x3C9C PUSH1 0x0 DUP6 ADD DUP3 PUSH2 0x3CD7 JUMP JUMPDEST POP PUSH1 0x20 DUP3 ADD MLOAD PUSH2 0x3CAF PUSH1 0x20 DUP6 ADD DUP3 PUSH2 0x3A54 JUMP JUMPDEST POP PUSH1 0x40 DUP3 ADD MLOAD PUSH2 0x3CC2 PUSH1 0x40 DUP6 ADD DUP3 PUSH2 0x3A90 JUMP JUMPDEST POP POP POP POP JUMP JUMPDEST PUSH2 0x3CD1 DUP2 PUSH2 0x420F JUMP JUMPDEST DUP3 MSTORE POP POP JUMP JUMPDEST PUSH2 0x3CE0 DUP2 PUSH2 0x423D JUMP JUMPDEST DUP3 MSTORE POP POP JUMP JUMPDEST PUSH2 0x3CEF DUP2 PUSH2 0x423D JUMP JUMPDEST DUP3 MSTORE POP POP JUMP JUMPDEST PUSH2 0x3CFE DUP2 PUSH2 0x4247 JUMP JUMPDEST DUP3 MSTORE POP POP JUMP JUMPDEST PUSH2 0x3D0D DUP2 PUSH2 0x4257 JUMP JUMPDEST DUP3 MSTORE POP POP JUMP JUMPDEST PUSH1 0x0 PUSH1 0x20 DUP3 ADD SWAP1 POP PUSH2 0x3D28 PUSH1 0x0 DUP4 ADD DUP5 PUSH2 0x3A63 JUMP JUMPDEST SWAP3 SWAP2 POP POP JUMP JUMPDEST PUSH1 0x0 PUSH1 0xA0 DUP3 ADD SWAP1 POP PUSH2 0x3D43 PUSH1 0x0 DUP4 ADD DUP9 PUSH2 0x3A63 JUMP JUMPDEST PUSH2 0x3D50 PUSH1 0x20 DUP4 ADD DUP8 PUSH2 0x3CE6 JUMP JUMPDEST PUSH2 0x3D5D PUSH1 0x40 DUP4 ADD DUP7 PUSH2 0x3CE6 JUMP JUMPDEST PUSH2 0x3D6A PUSH1 0x60 DUP4 ADD DUP6 PUSH2 0x3A81 JUMP JUMPDEST PUSH2 0x3D77 PUSH1 0x80 DUP4 ADD DUP5 PUSH2 0x3CF5 JUMP JUMPDEST SWAP7 SWAP6 POP POP POP POP POP POP JUMP JUMPDEST PUSH1 0x0 PUSH1 0x20 DUP3 ADD SWAP1 POP PUSH2 0x3D96 PUSH1 0x0 DUP4 ADD DUP5 PUSH2 0x3A72 JUMP JUMPDEST SWAP3 SWAP2 POP POP JUMP JUMPDEST PUSH1 0x0 PUSH1 0xC0 DUP3 ADD SWAP1 POP PUSH2 0x3DB1 PUSH1 0x0 DUP4 ADD DUP10 PUSH2 0x3A72 JUMP JUMPDEST PUSH2 0x3DBE PUSH1 0x20 DUP4 ADD DUP9 PUSH2 0x3A63 JUMP JUMPDEST PUSH2 0x3DCB PUSH1 0x40 DUP4 ADD DUP8 PUSH2 0x3CC8 JUMP JUMPDEST PUSH2 0x3DD8 PUSH1 0x60 DUP4 ADD DUP7 PUSH2 0x3ABD JUMP JUMPDEST DUP2 DUP2 SUB PUSH1 0x80 DUP4 ADD MSTORE PUSH2 0x3DEA DUP2 DUP6 PUSH2 0x3ACC JUMP JUMPDEST SWAP1 POP DUP2 DUP2 SUB PUSH1 0xA0 DUP4 ADD MSTORE PUSH2 0x3DFE DUP2 DUP5 PUSH2 0x3ACC JUMP JUMPDEST SWAP1 POP SWAP8 SWAP7 POP POP POP POP POP POP POP JUMP JUMPDEST PUSH1 0x0 PUSH1 0x60 DUP3 ADD SWAP1 POP PUSH2 0x3E20 PUSH1 0x0 DUP4 ADD DUP7 PUSH2 0x3A72 JUMP JUMPDEST DUP2 DUP2 SUB PUSH1 0x20 DUP4 ADD MSTORE PUSH2 0x3E32 DUP2 DUP6 PUSH2 0x3ACC JUMP JUMPDEST SWAP1 POP PUSH2 0x3E41 PUSH1 0x40 DUP4 ADD DUP5 PUSH2 0x3D04 JUMP JUMPDEST SWAP5 SWAP4 POP POP POP POP JUMP JUMPDEST PUSH1 0x0 PUSH1 0x80 DUP3 ADD SWAP1 POP PUSH2 0x3E5E PUSH1 0x0 DUP4 ADD DUP8 PUSH2 0x3A72 JUMP JUMPDEST PUSH2 0x3E6B PUSH1 0x20 DUP4 ADD DUP7 PUSH2 0x3D04 JUMP JUMPDEST PUSH2 0x3E78 PUSH1 0x40 DUP4 ADD DUP6 PUSH2 0x3CE6 JUMP JUMPDEST DUP2 DUP2 SUB PUSH1 0x60 DUP4 ADD MSTORE PUSH2 0x3E8A DUP2 DUP5 PUSH2 0x3ACC JUMP JUMPDEST SWAP1 POP SWAP6 SWAP5 POP POP POP POP POP JUMP JUMPDEST PUSH1 0x0 PUSH1 0xA0 DUP3 ADD SWAP1 POP PUSH2 0x3EAA PUSH1 0x0 DUP4 ADD DUP9 PUSH2 0x3A9F JUMP JUMPDEST PUSH2 0x3EB7 PUSH1 0x20 DUP4 ADD DUP8 PUSH2 0x3CE6 JUMP JUMPDEST PUSH2 0x3EC4 PUSH1 0x40 DUP4 ADD DUP7 PUSH2 0x3CE6 JUMP JUMPDEST PUSH2 0x3ED1 PUSH1 0x60 DUP4 ADD DUP6 PUSH2 0x3A81 JUMP JUMPDEST PUSH2 0x3EDE PUSH1 0x80 DUP4 ADD DUP5 PUSH2 0x3CF5 JUMP JUMPDEST SWAP7 SWAP6 POP POP POP POP POP POP JUMP JUMPDEST PUSH1 0x0 PUSH1 0x20 DUP3 ADD SWAP1 POP DUP2 DUP2 SUB PUSH1 0x0 DUP4 ADD MSTORE PUSH2 0x3F01 DUP2 PUSH2 0x3B05 JUMP JUMPDEST SWAP1 POP SWAP2 SWAP1 POP JUMP JUMPDEST PUSH1 0x0 PUSH1 0x20 DUP3 ADD SWAP1 POP DUP2 DUP2 SUB PUSH1 0x0 DUP4 ADD MSTORE PUSH2 0x3F21 DUP2 PUSH2 0x3B28 JUMP JUMPDEST SWAP1 POP SWAP2 SWAP1 POP JUMP JUMPDEST PUSH1 0x0 PUSH1 0x20 DUP3 ADD SWAP1 POP DUP2 DUP2 SUB PUSH1 0x0 DUP4 ADD MSTORE PUSH2 0x3F41 DUP2 PUSH2 0x3B4B JUMP JUMPDEST SWAP1 POP SWAP2 SWAP1 POP JUMP JUMPDEST PUSH1 0x0 PUSH1 0x20 DUP3 ADD SWAP1 POP DUP2 DUP2 SUB PUSH1 0x0 DUP4 ADD MSTORE PUSH2 0x3F61 DUP2 PUSH2 0x3B6E JUMP JUMPDEST SWAP1 POP SWAP2 SWAP1 POP JUMP JUMPDEST PUSH1 0x0 PUSH1 0x20 DUP3 ADD SWAP1 POP DUP2 DUP2 SUB PUSH1 0x0 DUP4 ADD MSTORE PUSH2 0x3F81 DUP2 PUSH2 0x3B91 JUMP JUMPDEST SWAP1 POP SWAP2 SWAP1 POP JUMP JUMPDEST PUSH1 0x0 PUSH1 0x20 DUP3 ADD SWAP1 POP DUP2 DUP2 SUB PUSH1 0x0 DUP4 ADD MSTORE PUSH2 0x3FA1 DUP2 PUSH2 0x3BB4 JUMP JUMPDEST SWAP1 POP SWAP2 SWAP1 POP JUMP JUMPDEST PUSH1 0x0 PUSH1 0x20 DUP3 ADD SWAP1 POP DUP2 DUP2 SUB PUSH1 0x0 DUP4 ADD MSTORE PUSH2 0x3FC1 DUP2 PUSH2 0x3BD7 JUMP JUMPDEST SWAP1 POP SWAP2 SWAP1 POP JUMP JUMPDEST PUSH1 0x0 PUSH1 0x20 DUP3 ADD SWAP1 POP DUP2 DUP2 SUB PUSH1 0x0 DUP4 ADD MSTORE PUSH2 0x3FE1 DUP2 PUSH2 0x3BFA JUMP JUMPDEST SWAP1 POP SWAP2 SWAP1 POP JUMP JUMPDEST PUSH1 0x0 PUSH1 0x20 DUP3 ADD SWAP1 POP DUP2 DUP2 SUB PUSH1 0x0 DUP4 ADD MSTORE PUSH2 0x4001 DUP2 PUSH2 0x3C1D JUMP JUMPDEST SWAP1 POP SWAP2 SWAP1 POP JUMP JUMPDEST PUSH1 0x0 PUSH1 0x20 DUP3 ADD SWAP1 POP DUP2 DUP2 SUB PUSH1 0x0 DUP4 ADD MSTORE PUSH2 0x4021 DUP2 PUSH2 0x3C40 JUMP JUMPDEST SWAP1 POP SWAP2 SWAP1 POP JUMP JUMPDEST PUSH1 0x0 PUSH1 0x20 DUP3 ADD SWAP1 POP DUP2 DUP2 SUB PUSH1 0x0 DUP4 ADD MSTORE PUSH2 0x4041 DUP2 PUSH2 0x3C63 JUMP JUMPDEST SWAP1 POP SWAP2 SWAP1 POP JUMP JUMPDEST PUSH1 0x0 PUSH1 0x20 DUP3 ADD SWAP1 POP PUSH2 0x405D PUSH1 0x0 DUP4 ADD DUP5 PUSH2 0x3CE6 JUMP JUMPDEST SWAP3 SWAP2 POP POP JUMP JUMPDEST PUSH1 0x0 PUSH2 0x160 DUP3 ADD SWAP1 POP PUSH2 0x4079 PUSH1 0x0 DUP4 ADD DUP13 PUSH2 0x3CE6 JUMP JUMPDEST PUSH2 0x4086 PUSH1 0x20 DUP4 ADD DUP12 PUSH2 0x3A63 JUMP JUMPDEST PUSH2 0x4093 PUSH1 0x40 DUP4 ADD DUP11 PUSH2 0x3A9F JUMP JUMPDEST PUSH2 0x40A0 PUSH1 0x60 DUP4 ADD DUP10 PUSH2 0x3CE6 JUMP JUMPDEST PUSH2 0x40AD PUSH1 0x80 DUP4 ADD DUP9 PUSH2 0x3CE6 JUMP JUMPDEST PUSH2 0x40BA PUSH1 0xA0 DUP4 ADD DUP8 PUSH2 0x3A81 JUMP JUMPDEST PUSH2 0x40C7 PUSH1 0xC0 DUP4 ADD DUP7 PUSH2 0x3CF5 JUMP JUMPDEST PUSH2 0x40D4 PUSH1 0xE0 DUP4 ADD DUP6 PUSH2 0x3AAE JUMP JUMPDEST PUSH2 0x40E2 PUSH2 0x100 DUP4 ADD DUP5 PUSH2 0x3C86 JUMP JUMPDEST SWAP11 SWAP10 POP POP POP POP POP POP POP POP POP POP JUMP JUMPDEST PUSH1 0x0 PUSH1 0x40 DUP3 ADD SWAP1 POP PUSH2 0x4105 PUSH1 0x0 DUP4 ADD DUP6 PUSH2 0x3CF5 JUMP JUMPDEST DUP2 DUP2 SUB PUSH1 0x20 DUP4 ADD MSTORE PUSH2 0x4117 DUP2 DUP5 PUSH2 0x3ACC JUMP JUMPDEST SWAP1 POP SWAP4 SWAP3 POP POP POP JUMP JUMPDEST PUSH1 0x0 PUSH2 0x412A PUSH2 0x413B JUMP JUMPDEST SWAP1 POP PUSH2 0x4136 DUP3 DUP3 PUSH2 0x4332 JUMP JUMPDEST SWAP2 SWAP1 POP JUMP JUMPDEST PUSH1 0x0 PUSH1 0x40 MLOAD SWAP1 POP SWAP1 JUMP JUMPDEST PUSH1 0x0 PUSH8 0xFFFFFFFFFFFFFFFF DUP3 GT ISZERO PUSH2 0x4160 JUMPI PUSH2 0x415F PUSH2 0x4439 JUMP JUMPDEST JUMPDEST PUSH2 0x4169 DUP3 PUSH2 0x447C JUMP JUMPDEST SWAP1 POP PUSH1 0x20 DUP2 ADD SWAP1 POP SWAP2 SWAP1 POP JUMP JUMPDEST PUSH1 0x0 DUP2 MLOAD SWAP1 POP SWAP2 SWAP1 POP JUMP JUMPDEST PUSH1 0x0 DUP3 DUP3 MSTORE PUSH1 0x20 DUP3 ADD SWAP1 POP SWAP3 SWAP2 POP POP JUMP JUMPDEST PUSH1 0x0 PUSH2 0x419D DUP3 PUSH2 0x421D JUMP JUMPDEST SWAP1 POP SWAP2 SWAP1 POP JUMP JUMPDEST PUSH1 0x0 DUP2 ISZERO ISZERO SWAP1 POP SWAP2 SWAP1 POP JUMP JUMPDEST PUSH1 0x0 DUP2 SWAP1 POP PUSH2 0x41BE DUP3 PUSH2 0x469C JUMP JUMPDEST SWAP2 SWAP1 POP JUMP JUMPDEST PUSH1 0x0 DUP2 SWAP1 POP PUSH2 0x41D1 DUP3 PUSH2 0x46B0 JUMP JUMPDEST SWAP2 SWAP1 POP JUMP JUMPDEST PUSH1 0x0 DUP2 SWAP1 POP PUSH2 0x41E4 DUP3 PUSH2 0x46C4 JUMP JUMPDEST SWAP2 SWAP1 POP JUMP JUMPDEST PUSH1 0x0 DUP2 SWAP1 POP PUSH2 0x41F7 DUP3 PUSH2 0x46D8 JUMP JUMPDEST SWAP2 SWAP1 POP JUMP JUMPDEST PUSH1 0x0 DUP2 SWAP1 POP PUSH2 0x420A DUP3 PUSH2 0x46EC JUMP JUMPDEST SWAP2 SWAP1 POP JUMP JUMPDEST PUSH1 0x0 PUSH2 0xFFFF DUP3 AND SWAP1 POP SWAP2 SWAP1 POP JUMP JUMPDEST PUSH1 0x0 PUSH20 0xFFFFFFFFFFFFFFFFFFFFFFFFFFFFFFFFFFFFFFFF DUP3 AND SWAP1 POP SWAP2 SWAP1 POP JUMP JUMPDEST PUSH1 0x0 DUP2 SWAP1 POP SWAP2 SWAP1 POP JUMP JUMPDEST PUSH1 0x0 PUSH4 0xFFFFFFFF DUP3 AND SWAP1 POP SWAP2 SWAP1 POP JUMP JUMPDEST PUSH1 0x0 PUSH1 0xFF DUP3 AND SWAP1 POP SWAP2 SWAP1 POP JUMP JUMPDEST PUSH1 0x0 PUSH2 0x426F DUP3 PUSH2 0x41B0 JUMP JUMPDEST SWAP1 POP SWAP2 SWAP1 POP JUMP JUMPDEST PUSH1 0x0 PUSH2 0x4281 DUP3 PUSH2 0x41C3 JUMP JUMPDEST SWAP1 POP SWAP2 SWAP1 POP JUMP JUMPDEST PUSH1 0x0 PUSH2 0x4293 DUP3 PUSH2 0x41D6 JUMP JUMPDEST SWAP1 POP SWAP2 SWAP1 POP JUMP JUMPDEST PUSH1 0x0 PUSH2 0x42A5 DUP3 PUSH2 0x41E9 JUMP JUMPDEST SWAP1 POP SWAP2 SWAP1 POP JUMP JUMPDEST PUSH1 0x0 PUSH2 0x42B7 DUP3 PUSH2 0x41FC JUMP JUMPDEST SWAP1 POP SWAP2 SWAP1 POP JUMP JUMPDEST DUP3 DUP2 DUP4 CALLDATACOPY PUSH1 0x0 DUP4 DUP4 ADD MSTORE POP POP POP JUMP JUMPDEST PUSH1 0x0 JUMPDEST DUP4 DUP2 LT ISZERO PUSH2 0x42EB JUMPI DUP1 DUP3 ADD MLOAD DUP2 DUP5 ADD MSTORE PUSH1 0x20 DUP2 ADD SWAP1 POP PUSH2 0x42D0 JUMP JUMPDEST DUP4 DUP2 GT ISZERO PUSH2 0x42FA JUMPI PUSH1 0x0 DUP5 DUP5 ADD MSTORE JUMPDEST POP POP POP POP JUMP JUMPDEST PUSH1 0x0 PUSH1 0x2 DUP3 DIV SWAP1 POP PUSH1 0x1 DUP3 AND DUP1 PUSH2 0x4318 JUMPI PUSH1 0x7F DUP3 AND SWAP2 POP JUMPDEST PUSH1 0x20 DUP3 LT DUP2 EQ ISZERO PUSH2 0x432C JUMPI PUSH2 0x432B PUSH2 0x440A JUMP JUMPDEST JUMPDEST POP SWAP2 SWAP1 POP JUMP JUMPDEST PUSH2 0x433B DUP3 PUSH2 0x447C JUMP JUMPDEST DUP2 ADD DUP2 DUP2 LT PUSH8 0xFFFFFFFFFFFFFFFF DUP3 GT OR ISZERO PUSH2 0x435A JUMPI PUSH2 0x4359 PUSH2 0x4439 JUMP JUMPDEST JUMPDEST DUP1 PUSH1 0x40 MSTORE POP POP POP JUMP JUMPDEST PUSH1 0x0 PUSH2 0x436E DUP3 PUSH2 0x423D JUMP JUMPDEST SWAP2 POP PUSH32 0xFFFFFFFFFFFFFFFFFFFFFFFFFFFFFFFFFFFFFFFFFFFFFFFFFFFFFFFFFFFFFFFF DUP3 EQ ISZERO PUSH2 0x43A1 JUMPI PUSH2 0x43A0 PUSH2 0x43AC JUMP JUMPDEST JUMPDEST PUSH1 0x1 DUP3 ADD SWAP1 POP SWAP2 SWAP1 POP JUMP JUMPDEST PUSH32 0x4E487B7100000000000000000000000000000000000000000000000000000000 PUSH1 0x0 MSTORE PUSH1 0x11 PUSH1 0x4 MSTORE PUSH1 0x24 PUSH1 0x0 REVERT JUMPDEST PUSH32 0x4E487B7100000000000000000000000000000000000000000000000000000000 PUSH1 0x0 MSTORE PUSH1 0x21 PUSH1 0x4 MSTORE PUSH1 0x24 PUSH1 0x0 REVERT JUMPDEST PUSH32 0x4E487B7100000000000000000000000000000000000000000000000000000000 PUSH1 0x0 MSTORE PUSH1 0x22 PUSH1 0x4 MSTORE PUSH1 0x24 PUSH1 0x0 REVERT JUMPDEST PUSH32 0x4E487B7100000000000000000000000000000000000000000000000000000000 PUSH1 0x0 MSTORE PUSH1 0x41 PUSH1 0x4 MSTORE PUSH1 0x24 PUSH1 0x0 REVERT JUMPDEST PUSH1 0x0 DUP1 REVERT JUMPDEST PUSH1 0x0 DUP1 REVERT JUMPDEST PUSH1 0x0 DUP1 REVERT JUMPDEST PUSH1 0x0 DUP1 REVERT JUMPDEST PUSH1 0x0 PUSH1 0x1F NOT PUSH1 0x1F DUP4 ADD AND SWAP1 POP SWAP2 SWAP1 POP JUMP JUMPDEST PUSH32 0x4B757273204D65726B657A69205A6174656E204D657663757400000000000000 PUSH1 0x0 DUP3 ADD MSTORE POP JUMP JUMPDEST PUSH32 0x4669726D61205A6174656E204D65766375740000000000000000000000000000 PUSH1 0x0 DUP3 ADD MSTORE POP JUMP JUMPDEST PUSH32 0x42752069736C656D6920736164656365204B697369207961706162696C69722E PUSH1 0x0 DUP3 ADD MSTORE POP JUMP JUMPDEST PUSH32 0x536572746966696B61204D65726B657A69205A6174656E204D65766375740000 PUSH1 0x0 DUP3 ADD MSTORE POP JUMP JUMPDEST PUSH32 0x536164656365207965746B696C69207061796461732062752069736C656D6920 PUSH1 0x0 DUP3 ADD MSTORE PUSH32 0x7961706162696C69722E00000000000000000000000000000000000000000000 PUSH1 0x20 DUP3 ADD MSTORE POP JUMP JUMPDEST PUSH32 0x536976696C20546F706C756D204B7572756C757375205A6174656E204D657663 PUSH1 0x0 DUP3 ADD MSTORE PUSH32 0x7574000000000000000000000000000000000000000000000000000000000000 PUSH1 0x20 DUP3 ADD MSTORE POP JUMP JUMPDEST PUSH32 0x556E6976657273697465205A6174656E204D6576637574000000000000000000 PUSH1 0x0 DUP3 ADD MSTORE POP JUMP JUMPDEST PUSH32 0x4B697369205A6174656E204D6576637574000000000000000000000000000000 PUSH1 0x0 DUP3 ADD MSTORE POP JUMP JUMPDEST PUSH32 0x53747564656E74206E6F74206578697374730000000000000000000000000000 PUSH1 0x0 DUP3 ADD MSTORE POP JUMP JUMPDEST PUSH32 0x4B6973692062756C756E616D6164690000000000000000000000000000000000 PUSH1 0x0 DUP3 ADD MSTORE POP JUMP JUMPDEST PUSH32 0x4B616D75204B75726D75205A6174656E204D6576637574000000000000000000 PUSH1 0x0 DUP3 ADD MSTORE POP JUMP JUMPDEST PUSH1 0x4 DUP2 LT PUSH2 0x46AD JUMPI PUSH2 0x46AC PUSH2 0x43DB JUMP JUMPDEST JUMPDEST POP JUMP JUMPDEST PUSH1 0x3 DUP2 LT PUSH2 0x46C1 JUMPI PUSH2 0x46C0 PUSH2 0x43DB JUMP JUMPDEST JUMPDEST POP JUMP JUMPDEST PUSH1 0x6 DUP2 LT PUSH2 0x46D5 JUMPI PUSH2 0x46D4 PUSH2 0x43DB JUMP JUMPDEST JUMPDEST POP JUMP JUMPDEST PUSH1 0x4 DUP2 LT PUSH2 0x46E9 JUMPI PUSH2 0x46E8 PUSH2 0x43DB JUMP JUMPDEST JUMPDEST POP JUMP JUMPDEST PUSH1 0x4 DUP2 LT PUSH2 0x46FD JUMPI PUSH2 0x46FC PUSH2 0x43DB JUMP JUMPDEST JUMPDEST POP JUMP JUMPDEST PUSH2 0x4709 DUP2 PUSH2 0x4192 JUMP JUMPDEST DUP2 EQ PUSH2 0x4714 JUMPI PUSH1 0x0 DUP1 REVERT JUMPDEST POP JUMP JUMPDEST PUSH2 0x4720 DUP2 PUSH2 0x41A4 JUMP JUMPDEST DUP2 EQ PUSH2 0x472B JUMPI PUSH1 0x0 DUP1 REVERT JUMPDEST POP JUMP JUMPDEST PUSH1 0x4 DUP2 LT PUSH2 0x473B JUMPI PUSH1 0x0 DUP1 REVERT JUMPDEST POP JUMP JUMPDEST PUSH1 0x6 DUP2 LT PUSH2 0x474B JUMPI PUSH1 0x0 DUP1 REVERT JUMPDEST POP JUMP JUMPDEST PUSH1 0x4 DUP2 LT PUSH2 0x475B JUMPI PUSH1 0x0 DUP1 REVERT JUMPDEST POP JUMP JUMPDEST PUSH2 0x4767 DUP2 PUSH2 0x423D JUMP JUMPDEST DUP2 EQ PUSH2 0x4772 JUMPI PUSH1 0x0 DUP1 REVERT JUMPDEST POP JUMP JUMPDEST PUSH2 0x477E DUP2 PUSH2 0x4247 JUMP JUMPDEST DUP2 EQ PUSH2 0x4789 JUMPI PUSH1 0x0 DUP1 REVERT JUMPDEST POP JUMP JUMPDEST PUSH2 0x4795 DUP2 PUSH2 0x4257 JUMP JUMPDEST DUP2 EQ PUSH2 0x47A0 JUMPI PUSH1 0x0 DUP1 REVERT JUMPDEST POP JUMP INVALID LOG2 PUSH5 0x6970667358 0x22 SLT KECCAK256 DELEGATECALL EXTCODEHASH SELFBALANCE 0xE2 PUSH3 0xC33175 PUSH24 0x96854368F6AB67A7065FDE1BA61C1FAB467B28DA55DDE64 PUSH20 0x6F6C634300080700330000000000000000000000 "
		},
		"gasEstimates": {
			"creation": {
				"codeDepositCost": "3678600",
				"executionCost": "infinite",
				"totalCost": "infinite"
			},
			"external": {
				"YOK()": "2644",
				"akademisyenler(address)": "infinite",
				"diller(uint32)": "infinite",
				"ekleFirma(address,string,uint256,uint8)": "infinite",
				"ekleKamuKurumu(address,string,uint8)": "infinite",
				"ekleKisi(address)": "27223",
				"ekleKurs(address,string,uint8)": "infinite",
				"ekleSTK(address,string,uint8)": "infinite",
				"ekleSertifikaMerkezi(address,string,uint8)": "infinite",
				"ekleUniversite(address,string,uint8)": "infinite",
				"ekleYabanciDilBilgi(address,uint8,uint256,uint256,uint8,uint32,uint8)": "infinite",
				"firmalar(address)": "infinite",
				"getYOK()": "2635",
				"guncelleYabanciDilBilgi(address,uint256,uint8,uint256,uint256,uint8,uint32,uint8)": "infinite",
				"id()": "2496",
				"isCB(address)": "2877",
				"isFirma(address)": "2957",
				"isKamuKurumu(address)": "2978",
				"isKisi(address)": "2978",
				"isKurs(address)": "2980",
				"isSTK(address)": "2957",
				"isSertifikaMerkezi(address)": "2933",
				"isTOBB(address)": "2857",
				"isUniversite(address)": "2977",
				"isYOK(address)": "2919",
				"kamuKurumlari(address)": "infinite",
				"kisiler(address)": "2937",
				"kurslar(address)": "infinite",
				"paydasTanimla(address,address,address)": "infinite",
				"sertifikaMerkezleri(address)": "infinite",
				"stklar(address)": "infinite",
				"talepEtYabanciDilBilgi(address,uint256,uint256,uint8,uint32,uint8)": "infinite",
				"universiteler(address)": "infinite",
				"yabanciDilBilgiListesi(address,uint256)": "infinite"
			}
		},
		"methodIdentifiers": {
			"YOK()": "71af892d",
			"akademisyenler(address)": "ba479b7e",
			"diller(uint32)": "a4e7ae05",
			"ekleFirma(address,string,uint256,uint8)": "d25aab85",
			"ekleKamuKurumu(address,string,uint8)": "f63c649f",
			"ekleKisi(address)": "f54acc65",
			"ekleKurs(address,string,uint8)": "46224853",
			"ekleSTK(address,string,uint8)": "19023bf3",
			"ekleSertifikaMerkezi(address,string,uint8)": "9dc30114",
			"ekleUniversite(address,string,uint8)": "001d54ab",
			"ekleYabanciDilBilgi(address,uint8,uint256,uint256,uint8,uint32,uint8)": "c0942d97",
			"firmalar(address)": "39987f94",
			"getYOK()": "03c3abc4",
			"guncelleYabanciDilBilgi(address,uint256,uint8,uint256,uint256,uint8,uint32,uint8)": "1a0dda7f",
			"id()": "af640d0f",
			"isCB(address)": "e5130508",
			"isFirma(address)": "2d087d70",
			"isKamuKurumu(address)": "514e03c7",
			"isKisi(address)": "b98ccefd",
			"isKurs(address)": "024eb6bc",
			"isSTK(address)": "8c848885",
			"isSertifikaMerkezi(address)": "e24047ca",
			"isTOBB(address)": "139884ec",
			"isUniversite(address)": "f0040eb9",
			"isYOK(address)": "d7396414",
			"kamuKurumlari(address)": "7d0fa287",
			"kisiler(address)": "cbc92809",
			"kurslar(address)": "1916e139",
			"paydasTanimla(address,address,address)": "36fd2633",
			"sertifikaMerkezleri(address)": "356b1f1e",
			"stklar(address)": "9a8c9119",
			"talepEtYabanciDilBilgi(address,uint256,uint256,uint8,uint32,uint8)": "011c05e1",
			"universiteler(address)": "28266697",
			"yabanciDilBilgiListesi(address,uint256)": "64b2c66b"
		}
	},
	"abi": [
		{
			"inputs": [
				{
					"internalType": "address",
					"name": "baseAddress",
					"type": "address"
				}
			],
			"stateMutability": "nonpayable",
			"type": "constructor"
		},
		{
			"anonymous": false,
			"inputs": [
				{
					"indexed": false,
					"internalType": "enum BaseContract.OnaylayanKurum",
					"name": "_onaylayanKurumTipi",
					"type": "uint8"
				},
				{
					"indexed": false,
					"internalType": "uint256",
					"name": "_basTarih",
					"type": "uint256"
				},
				{
					"indexed": false,
					"internalType": "uint256",
					"name": "_bitTarih",
					"type": "uint256"
				},
				{
					"indexed": false,
					"internalType": "enum BaseContract.OgretimTipi",
					"name": "_ogretimTipi",
					"type": "uint8"
				},
				{
					"indexed": false,
					"internalType": "uint32",
					"name": "_dilId",
					"type": "uint32"
				}
			],
			"name": "YabanciDilEklendiLog",
			"type": "event"
		},
		{
			"anonymous": false,
			"inputs": [
				{
					"indexed": false,
					"internalType": "enum BaseContract.OnaylayanKurum",
					"name": "_onaylayanKurumTipi",
					"type": "uint8"
				},
				{
					"indexed": false,
					"internalType": "uint256",
					"name": "_basTarih",
					"type": "uint256"
				},
				{
					"indexed": false,
					"internalType": "uint256",
					"name": "_bitTarih",
					"type": "uint256"
				},
				{
					"indexed": false,
					"internalType": "enum BaseContract.OgretimTipi",
					"name": "_ogretimTipi",
					"type": "uint8"
				},
				{
					"indexed": false,
					"internalType": "uint32",
					"name": "_dilId",
					"type": "uint32"
				}
			],
			"name": "YabanciDilGuncellendiLog",
			"type": "event"
		},
		{
			"anonymous": false,
			"inputs": [
				{
					"indexed": false,
					"internalType": "address",
					"name": "_talepEdilenKurum",
					"type": "address"
				},
				{
					"indexed": false,
					"internalType": "uint256",
					"name": "_basTarih",
					"type": "uint256"
				},
				{
					"indexed": false,
					"internalType": "uint256",
					"name": "_bitTarih",
					"type": "uint256"
				},
				{
					"indexed": false,
					"internalType": "enum BaseContract.OgretimTipi",
					"name": "_ogretimTipi",
					"type": "uint8"
				},
				{
					"indexed": false,
					"internalType": "uint32",
					"name": "_dilId",
					"type": "uint32"
				}
			],
			"name": "YabanciDilTalepEdildiLog",
			"type": "event"
		},
		{
			"inputs": [],
			"name": "YOK",
			"outputs": [
				{
					"internalType": "address",
					"name": "",
					"type": "address"
				}
			],
			"stateMutability": "view",
			"type": "function"
		},
		{
			"inputs": [
				{
					"internalType": "address",
					"name": "",
					"type": "address"
				}
			],
			"name": "akademisyenler",
			"outputs": [
				{
					"internalType": "bool",
					"name": "durum",
					"type": "bool"
				},
				{
					"internalType": "address",
					"name": "universite",
					"type": "address"
				},
				{
					"internalType": "uint16",
					"name": "bolum",
					"type": "uint16"
				},
				{
					"internalType": "enum BaseContract.Unvan",
					"name": "unvan",
					"type": "uint8"
				},
				{
					"internalType": "string",
					"name": "ad",
					"type": "string"
				},
				{
					"internalType": "string",
					"name": "soyad",
					"type": "string"
				}
			],
			"stateMutability": "view",
			"type": "function"
		},
		{
			"inputs": [
				{
					"internalType": "uint32",
					"name": "",
					"type": "uint32"
				}
			],
			"name": "diller",
			"outputs": [
				{
					"internalType": "uint32",
					"name": "id",
					"type": "uint32"
				},
				{
					"internalType": "string",
					"name": "isim",
					"type": "string"
				}
			],
			"stateMutability": "view",
			"type": "function"
		},
		{
			"inputs": [
				{
					"internalType": "address",
					"name": "_firmaAdres",
					"type": "address"
				},
				{
					"internalType": "string",
					"name": "_isim",
					"type": "string"
				},
				{
					"internalType": "uint256",
					"name": "_vergiNo",
					"type": "uint256"
				},
				{
					"internalType": "uint8",
					"name": "_ulke",
					"type": "uint8"
				}
			],
			"name": "ekleFirma",
			"outputs": [],
			"stateMutability": "nonpayable",
			"type": "function"
		},
		{
			"inputs": [
				{
					"internalType": "address",
					"name": "_kamuKurumuAdres",
					"type": "address"
				},
				{
					"internalType": "string",
					"name": "_isim",
					"type": "string"
				},
				{
					"internalType": "uint8",
					"name": "_ulke",
					"type": "uint8"
				}
			],
			"name": "ekleKamuKurumu",
			"outputs": [],
			"stateMutability": "nonpayable",
			"type": "function"
		},
		{
			"inputs": [
				{
					"internalType": "address",
					"name": "_kisiAdres",
					"type": "address"
				}
			],
			"name": "ekleKisi",
			"outputs": [],
			"stateMutability": "nonpayable",
			"type": "function"
		},
		{
			"inputs": [
				{
					"internalType": "address",
					"name": "_kursAdres",
					"type": "address"
				},
				{
					"internalType": "string",
					"name": "_isim",
					"type": "string"
				},
				{
					"internalType": "uint8",
					"name": "_ulke",
					"type": "uint8"
				}
			],
			"name": "ekleKurs",
			"outputs": [],
			"stateMutability": "nonpayable",
			"type": "function"
		},
		{
			"inputs": [
				{
					"internalType": "address",
					"name": "_stkAdres",
					"type": "address"
				},
				{
					"internalType": "string",
					"name": "_isim",
					"type": "string"
				},
				{
					"internalType": "uint8",
					"name": "_ulke",
					"type": "uint8"
				}
			],
			"name": "ekleSTK",
			"outputs": [],
			"stateMutability": "nonpayable",
			"type": "function"
		},
		{
			"inputs": [
				{
					"internalType": "address",
					"name": "_smAdres",
					"type": "address"
				},
				{
					"internalType": "string",
					"name": "_isim",
					"type": "string"
				},
				{
					"internalType": "uint8",
					"name": "_ulke",
					"type": "uint8"
				}
			],
			"name": "ekleSertifikaMerkezi",
			"outputs": [],
			"stateMutability": "nonpayable",
			"type": "function"
		},
		{
			"inputs": [
				{
					"internalType": "address",
					"name": "_universiteAdres",
					"type": "address"
				},
				{
					"internalType": "string",
					"name": "_isim",
					"type": "string"
				},
				{
					"internalType": "uint8",
					"name": "_ulke",
					"type": "uint8"
				}
			],
			"name": "ekleUniversite",
			"outputs": [],
			"stateMutability": "nonpayable",
			"type": "function"
		},
		{
			"inputs": [
				{
					"internalType": "address",
					"name": "_kisiAddress",
					"type": "address"
				},
				{
					"internalType": "enum BaseContract.OnaylayanKurum",
					"name": "onayKurumTipi",
					"type": "uint8"
				},
				{
					"internalType": "uint256",
					"name": "basTarih",
					"type": "uint256"
				},
				{
					"internalType": "uint256",
					"name": "bitTarih",
					"type": "uint256"
				},
				{
					"internalType": "enum BaseContract.OgretimTipi",
					"name": "ogretimTipi",
					"type": "uint8"
				},
				{
					"internalType": "uint32",
					"name": "dilId",
					"type": "uint32"
				},
				{
					"internalType": "enum BaseContract.Seviye",
					"name": "seviye",
					"type": "uint8"
				}
			],
			"name": "ekleYabanciDilBilgi",
			"outputs": [],
			"stateMutability": "nonpayable",
			"type": "function"
		},
		{
			"inputs": [
				{
					"internalType": "address",
					"name": "",
					"type": "address"
				}
			],
			"name": "firmalar",
			"outputs": [
				{
					"internalType": "bool",
					"name": "durum",
					"type": "bool"
				},
				{
					"internalType": "uint8",
					"name": "ulke",
					"type": "uint8"
				},
				{
					"internalType": "uint256",
					"name": "vergiNo",
					"type": "uint256"
				},
				{
					"internalType": "string",
					"name": "isim",
					"type": "string"
				}
			],
			"stateMutability": "view",
			"type": "function"
		},
		{
			"inputs": [],
			"name": "getYOK",
			"outputs": [
				{
					"internalType": "address",
					"name": "",
					"type": "address"
				}
			],
			"stateMutability": "view",
			"type": "function"
		},
		{
			"inputs": [
				{
					"internalType": "address",
					"name": "_kisiAddress",
					"type": "address"
				},
				{
					"internalType": "uint256",
					"name": "ydBilgiId",
					"type": "uint256"
				},
				{
					"internalType": "enum BaseContract.OnaylayanKurum",
					"name": "onayKurumTipi",
					"type": "uint8"
				},
				{
					"internalType": "uint256",
					"name": "basTarih",
					"type": "uint256"
				},
				{
					"internalType": "uint256",
					"name": "bitTarih",
					"type": "uint256"
				},
				{
					"internalType": "enum BaseContract.OgretimTipi",
					"name": "ogretimTipi",
					"type": "uint8"
				},
				{
					"internalType": "uint32",
					"name": "dilId",
					"type": "uint32"
				},
				{
					"internalType": "enum BaseContract.Seviye",
					"name": "seviye",
					"type": "uint8"
				}
			],
			"name": "guncelleYabanciDilBilgi",
			"outputs": [
				{
					"internalType": "uint256",
					"name": "",
					"type": "uint256"
				}
			],
			"stateMutability": "nonpayable",
			"type": "function"
		},
		{
			"inputs": [],
			"name": "id",
			"outputs": [
				{
					"internalType": "uint256",
					"name": "",
					"type": "uint256"
				}
			],
			"stateMutability": "view",
			"type": "function"
		},
		{
			"inputs": [
				{
					"internalType": "address",
					"name": "_address",
					"type": "address"
				}
			],
			"name": "isCB",
			"outputs": [
				{
					"internalType": "bool",
					"name": "",
					"type": "bool"
				}
			],
			"stateMutability": "view",
			"type": "function"
		},
		{
			"inputs": [
				{
					"internalType": "address",
					"name": "_address",
					"type": "address"
				}
			],
			"name": "isFirma",
			"outputs": [
				{
					"internalType": "bool",
					"name": "",
					"type": "bool"
				}
			],
			"stateMutability": "view",
			"type": "function"
		},
		{
			"inputs": [
				{
					"internalType": "address",
					"name": "_address",
					"type": "address"
				}
			],
			"name": "isKamuKurumu",
			"outputs": [
				{
					"internalType": "bool",
					"name": "",
					"type": "bool"
				}
			],
			"stateMutability": "view",
			"type": "function"
		},
		{
			"inputs": [
				{
					"internalType": "address",
					"name": "_address",
					"type": "address"
				}
			],
			"name": "isKisi",
			"outputs": [
				{
					"internalType": "bool",
					"name": "",
					"type": "bool"
				}
			],
			"stateMutability": "view",
			"type": "function"
		},
		{
			"inputs": [
				{
					"internalType": "address",
					"name": "_address",
					"type": "address"
				}
			],
			"name": "isKurs",
			"outputs": [
				{
					"internalType": "bool",
					"name": "",
					"type": "bool"
				}
			],
			"stateMutability": "view",
			"type": "function"
		},
		{
			"inputs": [
				{
					"internalType": "address",
					"name": "_address",
					"type": "address"
				}
			],
			"name": "isSTK",
			"outputs": [
				{
					"internalType": "bool",
					"name": "",
					"type": "bool"
				}
			],
			"stateMutability": "view",
			"type": "function"
		},
		{
			"inputs": [
				{
					"internalType": "address",
					"name": "_address",
					"type": "address"
				}
			],
			"name": "isSertifikaMerkezi",
			"outputs": [
				{
					"internalType": "bool",
					"name": "",
					"type": "bool"
				}
			],
			"stateMutability": "view",
			"type": "function"
		},
		{
			"inputs": [
				{
					"internalType": "address",
					"name": "_address",
					"type": "address"
				}
			],
			"name": "isTOBB",
			"outputs": [
				{
					"internalType": "bool",
					"name": "",
					"type": "bool"
				}
			],
			"stateMutability": "view",
			"type": "function"
		},
		{
			"inputs": [
				{
					"internalType": "address",
					"name": "_address",
					"type": "address"
				}
			],
			"name": "isUniversite",
			"outputs": [
				{
					"internalType": "bool",
					"name": "",
					"type": "bool"
				}
			],
			"stateMutability": "view",
			"type": "function"
		},
		{
			"inputs": [
				{
					"internalType": "address",
					"name": "_address",
					"type": "address"
				}
			],
			"name": "isYOK",
			"outputs": [
				{
					"internalType": "bool",
					"name": "",
					"type": "bool"
				}
			],
			"stateMutability": "view",
			"type": "function"
		},
		{
			"inputs": [
				{
					"internalType": "address",
					"name": "",
					"type": "address"
				}
			],
			"name": "kamuKurumlari",
			"outputs": [
				{
					"internalType": "bool",
					"name": "durum",
					"type": "bool"
				},
				{
					"internalType": "string",
					"name": "isim",
					"type": "string"
				},
				{
					"internalType": "uint8",
					"name": "ulke",
					"type": "uint8"
				}
			],
			"stateMutability": "view",
			"type": "function"
		},
		{
			"inputs": [
				{
					"internalType": "address",
					"name": "",
					"type": "address"
				}
			],
			"name": "kisiler",
			"outputs": [
				{
					"internalType": "bool",
					"name": "durum",
					"type": "bool"
				}
			],
			"stateMutability": "view",
			"type": "function"
		},
		{
			"inputs": [
				{
					"internalType": "address",
					"name": "",
					"type": "address"
				}
			],
			"name": "kurslar",
			"outputs": [
				{
					"internalType": "bool",
					"name": "durum",
					"type": "bool"
				},
				{
					"internalType": "string",
					"name": "isim",
					"type": "string"
				},
				{
					"internalType": "uint8",
					"name": "ulke",
					"type": "uint8"
				}
			],
			"stateMutability": "view",
			"type": "function"
		},
		{
			"inputs": [
				{
					"internalType": "address",
					"name": "_yok",
					"type": "address"
				},
				{
					"internalType": "address",
					"name": "_tobb",
					"type": "address"
				},
				{
					"internalType": "address",
					"name": "_cb",
					"type": "address"
				}
			],
			"name": "paydasTanimla",
			"outputs": [],
			"stateMutability": "nonpayable",
			"type": "function"
		},
		{
			"inputs": [
				{
					"internalType": "address",
					"name": "",
					"type": "address"
				}
			],
			"name": "sertifikaMerkezleri",
			"outputs": [
				{
					"internalType": "bool",
					"name": "durum",
					"type": "bool"
				},
				{
					"internalType": "string",
					"name": "isim",
					"type": "string"
				},
				{
					"internalType": "uint8",
					"name": "ulke",
					"type": "uint8"
				}
			],
			"stateMutability": "view",
			"type": "function"
		},
		{
			"inputs": [
				{
					"internalType": "address",
					"name": "",
					"type": "address"
				}
			],
			"name": "stklar",
			"outputs": [
				{
					"internalType": "bool",
					"name": "durum",
					"type": "bool"
				},
				{
					"internalType": "string",
					"name": "isim",
					"type": "string"
				},
				{
					"internalType": "uint8",
					"name": "ulke",
					"type": "uint8"
				}
			],
			"stateMutability": "view",
			"type": "function"
		},
		{
			"inputs": [
				{
					"internalType": "address",
					"name": "_talepEdilenKurum",
					"type": "address"
				},
				{
					"internalType": "uint256",
					"name": "basTarih",
					"type": "uint256"
				},
				{
					"internalType": "uint256",
					"name": "bitTarih",
					"type": "uint256"
				},
				{
					"internalType": "enum BaseContract.OgretimTipi",
					"name": "ogretimTipi",
					"type": "uint8"
				},
				{
					"internalType": "uint32",
					"name": "dilId",
					"type": "uint32"
				},
				{
					"internalType": "enum BaseContract.Seviye",
					"name": "seviye",
					"type": "uint8"
				}
			],
			"name": "talepEtYabanciDilBilgi",
			"outputs": [],
			"stateMutability": "nonpayable",
			"type": "function"
		},
		{
			"inputs": [
				{
					"internalType": "address",
					"name": "",
					"type": "address"
				}
			],
			"name": "universiteler",
			"outputs": [
				{
					"internalType": "bool",
					"name": "durum",
					"type": "bool"
				},
				{
					"internalType": "string",
					"name": "isim",
					"type": "string"
				},
				{
					"internalType": "uint8",
					"name": "ulke",
					"type": "uint8"
				}
			],
			"stateMutability": "view",
			"type": "function"
		},
		{
			"inputs": [
				{
					"internalType": "address",
					"name": "",
					"type": "address"
				},
				{
					"internalType": "uint256",
					"name": "",
					"type": "uint256"
				}
			],
			"name": "yabanciDilBilgiListesi",
			"outputs": [
				{
					"internalType": "uint256",
					"name": "id",
					"type": "uint256"
				},
				{
					"internalType": "address",
					"name": "talepEdilenKurum",
					"type": "address"
				},
				{
					"internalType": "enum BaseContract.OnaylayanKurum",
					"name": "onayKurumTipi",
					"type": "uint8"
				},
				{
					"internalType": "uint256",
					"name": "basTarih",
					"type": "uint256"
				},
				{
					"internalType": "uint256",
					"name": "bitTarih",
					"type": "uint256"
				},
				{
					"internalType": "enum BaseContract.OgretimTipi",
					"name": "ogretimTipi",
					"type": "uint8"
				},
				{
					"internalType": "uint32",
					"name": "dilId",
					"type": "uint32"
				},
				{
					"internalType": "enum BaseContract.Seviye",
					"name": "seviye",
					"type": "uint8"
				},
				{
					"components": [
						{
							"internalType": "uint256",
							"name": "zaman",
							"type": "uint256"
						},
						{
							"internalType": "address",
							"name": "adres",
							"type": "address"
						},
						{
							"internalType": "enum BaseContract.OnayDurum",
							"name": "durum",
							"type": "uint8"
						}
					],
					"internalType": "struct BaseContract.Onay",
					"name": "onayBilgi",
					"type": "tuple"
				}
			],
			"stateMutability": "view",
			"type": "function"
		}
	]
}